{
	"src/voting.sol": {
		"Voting": {
			"abi": [
				{
					"anonymous": false,
					"inputs": [
						{
							"indexed": false,
							"internalType": "address",
							"name": "NewCandidate",
							"type": "address"
						}
					],
					"name": "becameCandidate",
					"type": "event"
				},
				{
					"anonymous": false,
					"inputs": [
						{
							"indexed": false,
							"internalType": "address",
							"name": "_candidate",
							"type": "address"
						},
						{
							"indexed": false,
							"internalType": "bool",
							"name": "status",
							"type": "bool"
						}
					],
					"name": "voted",
					"type": "event"
				},
				{
					"inputs": [
						{
							"internalType": "address",
							"name": "_newCandidate",
							"type": "address"
						},
						{
							"internalType": "string",
							"name": "_name",
							"type": "string"
						}
					],
					"name": "AddCandidate",
					"outputs": [],
					"stateMutability": "nonpayable",
					"type": "function"
				},
				{
					"inputs": [
						{
							"internalType": "string",
							"name": "_name",
							"type": "string"
						}
					],
					"name": "AllCandidates",
					"outputs": [
						{
							"internalType": "address[]",
							"name": "_candidates",
							"type": "address[]"
						}
					],
					"stateMutability": "view",
					"type": "function"
				},
				{
					"inputs": [
						{
							"internalType": "string",
							"name": "_name",
							"type": "string"
						}
					],
					"name": "NoOfRegisteredCandidates",
					"outputs": [
						{
							"internalType": "uint256",
							"name": "",
							"type": "uint256"
						}
					],
					"stateMutability": "view",
					"type": "function"
				},
				{
					"inputs": [
						{
							"internalType": "string",
							"name": "_name",
							"type": "string"
						},
						{
							"internalType": "uint16",
							"name": "ExpectedNoOfCandidate",
							"type": "uint16"
						}
					],
					"name": "createPoll",
					"outputs": [
						{
							"internalType": "string",
							"name": "",
							"type": "string"
						},
						{
							"internalType": "uint256",
							"name": "Candidate",
							"type": "uint256"
						}
					],
					"stateMutability": "nonpayable",
					"type": "function"
				},
				{
					"inputs": [
						{
							"internalType": "string",
							"name": "_name",
							"type": "string"
						}
					],
					"name": "getUint",
					"outputs": [
						{
							"internalType": "uint256",
							"name": "val",
							"type": "uint256"
						},
						{
							"internalType": "address",
							"name": "cand",
							"type": "address"
						}
					],
					"stateMutability": "view",
					"type": "function"
				},
				{
					"inputs": [
						{
							"internalType": "address",
							"name": "Cand",
							"type": "address"
						},
						{
							"internalType": "string",
							"name": "_name",
							"type": "string"
						},
						{
							"internalType": "uint256",
							"name": "nonce",
							"type": "uint256"
						},
						{
							"internalType": "uint256",
							"name": "time",
							"type": "uint256"
						}
					],
					"name": "metaVotingHash",
					"outputs": [
						{
							"internalType": "bytes32",
							"name": "",
							"type": "bytes32"
						}
					],
					"stateMutability": "view",
					"type": "function"
				},
				{
					"inputs": [
						{
							"internalType": "address",
							"name": "",
							"type": "address"
						}
					],
					"name": "replayNonce",
					"outputs": [
						{
							"internalType": "uint256",
							"name": "",
							"type": "uint256"
						}
					],
					"stateMutability": "view",
					"type": "function"
				},
				{
					"inputs": [
						{
							"internalType": "string",
							"name": "_name",
							"type": "string"
						}
					],
					"name": "revealWinner",
					"outputs": [
						{
							"internalType": "uint256[]",
							"name": "CV",
							"type": "uint256[]"
						},
						{
							"internalType": "address",
							"name": "",
							"type": "address"
						},
						{
							"internalType": "uint256",
							"name": "",
							"type": "uint256"
						}
					],
					"stateMutability": "view",
					"type": "function"
				},
				{
					"inputs": [
						{
							"internalType": "string",
							"name": "_name",
							"type": "string"
						}
					],
					"name": "setVotingState",
					"outputs": [],
					"stateMutability": "nonpayable",
					"type": "function"
				},
				{
					"inputs": [
						{
							"internalType": "address",
							"name": "Cand",
							"type": "address"
						},
						{
							"internalType": "string",
							"name": "_name",
							"type": "string"
						}
					],
					"name": "vote",
					"outputs": [],
					"stateMutability": "nonpayable",
					"type": "function"
				},
				{
					"inputs": [
						{
							"internalType": "string",
							"name": "",
							"type": "string"
						}
					],
					"name": "votingPoll",
					"outputs": [
						{
							"internalType": "address",
							"name": "chairman",
							"type": "address"
						},
						{
							"internalType": "uint32",
							"name": "maxNoOfCandidates",
							"type": "uint32"
						},
						{
							"internalType": "uint64",
							"name": "startTime",
							"type": "uint64"
						},
						{
							"internalType": "uint64",
							"name": "amountGenerated",
							"type": "uint64"
						},
						{
							"internalType": "uint16",
							"name": "currentNoOfCandidates",
							"type": "uint16"
						},
						{
							"internalType": "bool",
							"name": "voting",
							"type": "bool"
						}
					],
					"stateMutability": "view",
					"type": "function"
				},
				{
					"stateMutability": "payable",
					"type": "receive"
				}
			],
			"devdoc": {
				"kind": "dev",
				"methods": {},
				"version": 1
			},
			"evm": {
				"assembly": "    /* \"src/voting.sol\":63:5338  contract Voting{... */\n  mstore(0x40, 0x80)\n  callvalue\n  dup1\n  iszero\n  tag_1\n  jumpi\n  0x00\n  dup1\n  revert\ntag_1:\n  pop\n  dataSize(sub_0)\n  dup1\n  dataOffset(sub_0)\n  0x00\n  codecopy\n  0x00\n  return\nstop\n\nsub_0: assembly {\n        /* \"src/voting.sol\":63:5338  contract Voting{... */\n      mstore(0x40, 0x80)\n      jumpi(tag_1, lt(calldatasize, 0x04))\n      shr(0xe0, calldataload(0x00))\n      dup1\n      0x57f53967\n      gt\n      tag_14\n      jumpi\n      dup1\n      0x57f53967\n      eq\n      tag_8\n      jumpi\n      dup1\n      0x63ee965a\n      eq\n      tag_9\n      jumpi\n      dup1\n      0x67d407df\n      eq\n      tag_10\n      jumpi\n      dup1\n      0x8579cacd\n      eq\n      tag_11\n      jumpi\n      dup1\n      0xaf7cbc0d\n      eq\n      tag_12\n      jumpi\n      dup1\n      0xf0e4de22\n      eq\n      tag_13\n      jumpi\n      jump(tag_2)\n    tag_14:\n      dup1\n      0x01ff993b\n      eq\n      tag_3\n      jumpi\n      dup1\n      0x0968d4b1\n      eq\n      tag_4\n      jumpi\n      dup1\n      0x1bf533a4\n      eq\n      tag_5\n      jumpi\n      dup1\n      0x498bff00\n      eq\n      tag_6\n      jumpi\n      dup1\n      0x4fcf1f39\n      eq\n      tag_7\n      jumpi\n      jump(tag_2)\n    tag_1:\n      jumpi(tag_2, calldatasize)\n      stop\n    tag_2:\n      0x00\n      dup1\n      revert\n        /* \"src/voting.sol\":4489:4717  function metaVotingHash(address Cand, string memory _name, uint256 nonce, uint256 time) public view returns(bytes32){... */\n    tag_3:\n      callvalue\n      dup1\n      iszero\n      tag_17\n      jumpi\n      0x00\n      dup1\n      revert\n    tag_17:\n      pop\n      tag_18\n      0x04\n      dup1\n      calldatasize\n      sub\n      dup2\n      add\n      swap1\n      tag_19\n      swap2\n      swap1\n      tag_20\n      jump\t// in\n    tag_19:\n      tag_21\n      jump\t// in\n    tag_18:\n      mload(0x40)\n      tag_22\n      swap2\n      swap1\n      tag_23\n      jump\t// in\n    tag_22:\n      mload(0x40)\n      dup1\n      swap2\n      sub\n      swap1\n      return\n        /* \"src/voting.sol\":1482:1771  function createPoll(string memory _name, uint16 ExpectedNoOfCandidate) external returns(string memory, uint Candidate){... */\n    tag_4:\n      callvalue\n      dup1\n      iszero\n      tag_24\n      jumpi\n      0x00\n      dup1\n      revert\n    tag_24:\n      pop\n      tag_25\n      0x04\n      dup1\n      calldatasize\n      sub\n      dup2\n      add\n      swap1\n      tag_26\n      swap2\n      swap1\n      tag_27\n      jump\t// in\n    tag_26:\n      tag_28\n      jump\t// in\n    tag_25:\n      mload(0x40)\n      tag_29\n      swap3\n      swap2\n      swap1\n      tag_30\n      jump\t// in\n    tag_29:\n      mload(0x40)\n      dup1\n      swap2\n      sub\n      swap1\n      return\n        /* \"src/voting.sol\":2290:2875  function vote(address Cand, string memory _name /*, uint256 nonce, bytes memory signature*/) external  isCandidate(Cand, _name) StillVoting(_name){... */\n    tag_5:\n      callvalue\n      dup1\n      iszero\n      tag_31\n      jumpi\n      0x00\n      dup1\n      revert\n    tag_31:\n      pop\n      tag_32\n      0x04\n      dup1\n      calldatasize\n      sub\n      dup2\n      add\n      swap1\n      tag_33\n      swap2\n      swap1\n      tag_34\n      jump\t// in\n    tag_33:\n      tag_35\n      jump\t// in\n    tag_32:\n      stop\n        /* \"src/voting.sol\":4295:4482  function getUint( string memory _name) external view returns(uint val, address cand){... */\n    tag_6:\n      callvalue\n      dup1\n      iszero\n      tag_36\n      jumpi\n      0x00\n      dup1\n      revert\n    tag_36:\n      pop\n      tag_37\n      0x04\n      dup1\n      calldatasize\n      sub\n      dup2\n      add\n      swap1\n      tag_38\n      swap2\n      swap1\n      tag_39\n      jump\t// in\n    tag_38:\n      tag_40\n      jump\t// in\n    tag_37:\n      mload(0x40)\n      tag_41\n      swap3\n      swap2\n      swap1\n      tag_42\n      jump\t// in\n    tag_41:\n      mload(0x40)\n      dup1\n      swap2\n      sub\n      swap1\n      return\n        /* \"src/voting.sol\":3481:4087  function revealWinner( string memory _name) external view returns ( uint[] memory CV, address, uint){... */\n    tag_7:\n      callvalue\n      dup1\n      iszero\n      tag_43\n      jumpi\n      0x00\n      dup1\n      revert\n    tag_43:\n      pop\n      tag_44\n      0x04\n      dup1\n      calldatasize\n      sub\n      dup2\n      add\n      swap1\n      tag_45\n      swap2\n      swap1\n      tag_39\n      jump\t// in\n    tag_45:\n      tag_46\n      jump\t// in\n    tag_44:\n      mload(0x40)\n      tag_47\n      swap4\n      swap3\n      swap2\n      swap1\n      tag_48\n      jump\t// in\n    tag_47:\n      mload(0x40)\n      dup1\n      swap2\n      sub\n      swap1\n      return\n        /* \"src/voting.sol\":1775:2287  function AddCandidate(address _newCandidate, string memory _name) external{... */\n    tag_8:\n      callvalue\n      dup1\n      iszero\n      tag_49\n      jumpi\n      0x00\n      dup1\n      revert\n    tag_49:\n      pop\n      tag_50\n      0x04\n      dup1\n      calldatasize\n      sub\n      dup2\n      add\n      swap1\n      tag_51\n      swap2\n      swap1\n      tag_34\n      jump\t// in\n    tag_51:\n      tag_52\n      jump\t// in\n    tag_50:\n      stop\n        /* \"src/voting.sol\":670:717  mapping(string => VotingPoll) public votingPoll */\n    tag_9:\n      callvalue\n      dup1\n      iszero\n      tag_53\n      jumpi\n      0x00\n      dup1\n      revert\n    tag_53:\n      pop\n      tag_54\n      0x04\n      dup1\n      calldatasize\n      sub\n      dup2\n      add\n      swap1\n      tag_55\n      swap2\n      swap1\n      tag_39\n      jump\t// in\n    tag_55:\n      tag_56\n      jump\t// in\n    tag_54:\n      mload(0x40)\n      tag_57\n      swap7\n      swap6\n      swap5\n      swap4\n      swap3\n      swap2\n      swap1\n      tag_58\n      jump\t// in\n    tag_57:\n      mload(0x40)\n      dup1\n      swap2\n      sub\n      swap1\n      return\n        /* \"src/voting.sol\":723:770  mapping (address => uint256) public replayNonce */\n    tag_10:\n      callvalue\n      dup1\n      iszero\n      tag_59\n      jumpi\n      0x00\n      dup1\n      revert\n    tag_59:\n      pop\n      tag_60\n      0x04\n      dup1\n      calldatasize\n      sub\n      dup2\n      add\n      swap1\n      tag_61\n      swap2\n      swap1\n      tag_62\n      jump\t// in\n    tag_61:\n      tag_63\n      jump\t// in\n    tag_60:\n      mload(0x40)\n      tag_64\n      swap2\n      swap1\n      tag_65\n      jump\t// in\n    tag_64:\n      mload(0x40)\n      dup1\n      swap2\n      sub\n      swap1\n      return\n        /* \"src/voting.sol\":3126:3297  function NoOfRegisteredCandidates( string memory _name) public view returns(uint){... */\n    tag_11:\n      callvalue\n      dup1\n      iszero\n      tag_66\n      jumpi\n      0x00\n      dup1\n      revert\n    tag_66:\n      pop\n      tag_67\n      0x04\n      dup1\n      calldatasize\n      sub\n      dup2\n      add\n      swap1\n      tag_68\n      swap2\n      swap1\n      tag_39\n      jump\t// in\n    tag_68:\n      tag_69\n      jump\t// in\n    tag_67:\n      mload(0x40)\n      tag_70\n      swap2\n      swap1\n      tag_65\n      jump\t// in\n    tag_70:\n      mload(0x40)\n      dup1\n      swap2\n      sub\n      swap1\n      return\n        /* \"src/voting.sol\":3305:3478  function AllCandidates( string memory _name) public view returns(address[] memory _candidates){... */\n    tag_12:\n      callvalue\n      dup1\n      iszero\n      tag_71\n      jumpi\n      0x00\n      dup1\n      revert\n    tag_71:\n      pop\n      tag_72\n      0x04\n      dup1\n      calldatasize\n      sub\n      dup2\n      add\n      swap1\n      tag_73\n      swap2\n      swap1\n      tag_39\n      jump\t// in\n    tag_73:\n      tag_74\n      jump\t// in\n    tag_72:\n      mload(0x40)\n      tag_75\n      swap2\n      swap1\n      tag_76\n      jump\t// in\n    tag_75:\n      mload(0x40)\n      dup1\n      swap2\n      sub\n      swap1\n      return\n        /* \"src/voting.sol\":4090:4292  function setVotingState( string memory _name) external {... */\n    tag_13:\n      callvalue\n      dup1\n      iszero\n      tag_77\n      jumpi\n      0x00\n      dup1\n      revert\n    tag_77:\n      pop\n      tag_78\n      0x04\n      dup1\n      calldatasize\n      sub\n      dup2\n      add\n      swap1\n      tag_79\n      swap2\n      swap1\n      tag_39\n      jump\t// in\n    tag_79:\n      tag_80\n      jump\t// in\n    tag_78:\n      stop\n        /* \"src/voting.sol\":4489:4717  function metaVotingHash(address Cand, string memory _name, uint256 nonce, uint256 time) public view returns(bytes32){... */\n    tag_21:\n        /* \"src/voting.sol\":4597:4604  bytes32 */\n      0x00\n        /* \"src/voting.sol\":4653:4657  this */\n      address\n        /* \"src/voting.sol\":4686:4690  Cand */\n      dup6\n        /* \"src/voting.sol\":4692:4697  _name */\n      dup6\n        /* \"src/voting.sol\":4699:4704  nonce */\n      dup6\n        /* \"src/voting.sol\":4706:4710  time */\n      dup6\n        /* \"src/voting.sol\":4628:4711  abi.encodePacked(address(this),\"metatransaction Voting \", Cand, _name, nonce, time) */\n      add(0x20, mload(0x40))\n      tag_82\n      swap6\n      swap5\n      swap4\n      swap3\n      swap2\n      swap1\n      tag_83\n      jump\t// in\n    tag_82:\n      mload(0x40)\n      0x20\n      dup2\n      dup4\n      sub\n      sub\n      dup2\n      mstore\n      swap1\n      0x40\n      mstore\n        /* \"src/voting.sol\":4618:4712  keccak256(abi.encodePacked(address(this),\"metatransaction Voting \", Cand, _name, nonce, time)) */\n      dup1\n      mload\n      swap1\n      0x20\n      add\n      keccak256\n        /* \"src/voting.sol\":4611:4712  return keccak256(abi.encodePacked(address(this),\"metatransaction Voting \", Cand, _name, nonce, time)) */\n      swap1\n      pop\n        /* \"src/voting.sol\":4489:4717  function metaVotingHash(address Cand, string memory _name, uint256 nonce, uint256 time) public view returns(bytes32){... */\n      swap5\n      swap4\n      pop\n      pop\n      pop\n      pop\n      jump\t// out\n        /* \"src/voting.sol\":1482:1771  function createPoll(string memory _name, uint16 ExpectedNoOfCandidate) external returns(string memory, uint Candidate){... */\n    tag_28:\n        /* \"src/voting.sol\":1570:1583  string memory */\n      0x60\n        /* \"src/voting.sol\":1585:1599  uint Candidate */\n      0x00\n        /* \"src/voting.sol\":1606:1627  VotingPoll storage VP */\n      dup1\n        /* \"src/voting.sol\":1630:1640  votingPoll */\n      0x00\n        /* \"src/voting.sol\":1641:1646  _name */\n      dup6\n        /* \"src/voting.sol\":1630:1647  votingPoll[_name] */\n      mload(0x40)\n      tag_85\n      swap2\n      swap1\n      tag_86\n      jump\t// in\n    tag_85:\n      swap1\n      dup2\n      mstore\n      0x20\n      add\n      mload(0x40)\n      dup1\n      swap2\n      sub\n      swap1\n      keccak256\n        /* \"src/voting.sol\":1606:1647  VotingPoll storage VP = votingPoll[_name] */\n      swap1\n      pop\n        /* \"src/voting.sol\":1667:1677  msg.sender */\n      caller\n        /* \"src/voting.sol\":1653:1655  VP */\n      dup2\n        /* \"src/voting.sol\":1653:1664  VP.chairman */\n      0x00\n      add\n      0x00\n        /* \"src/voting.sol\":1653:1677  VP.chairman = msg.sender */\n      0x0100\n      exp\n      dup2\n      sload\n      dup2\n      0xffffffffffffffffffffffffffffffffffffffff\n      mul\n      not\n      and\n      swap1\n      dup4\n      0xffffffffffffffffffffffffffffffffffffffff\n      and\n      mul\n      or\n      swap1\n      sstore\n      pop\n        /* \"src/voting.sol\":1705:1726  ExpectedNoOfCandidate */\n      dup4\n        /* \"src/voting.sol\":1683:1726  VP.maxNoOfCandidates =ExpectedNoOfCandidate */\n      0xffff\n      and\n        /* \"src/voting.sol\":1683:1685  VP */\n      dup2\n        /* \"src/voting.sol\":1683:1703  VP.maxNoOfCandidates */\n      0x02\n      add\n      0x00\n        /* \"src/voting.sol\":1683:1726  VP.maxNoOfCandidates =ExpectedNoOfCandidate */\n      0x0100\n      exp\n      dup2\n      sload\n      dup2\n      0xffffffff\n      mul\n      not\n      and\n      swap1\n      dup4\n      0xffffffff\n      and\n      mul\n      or\n      swap1\n      sstore\n      pop\n        /* \"src/voting.sol\":1739:1744  _name */\n      dup5\n        /* \"src/voting.sol\":1746:1767  ExpectedNoOfCandidate */\n      dup5\n        /* \"src/voting.sol\":1732:1768  return(_name, ExpectedNoOfCandidate) */\n      dup1\n      0xffff\n      and\n      swap1\n      pop\n      swap3\n      pop\n      swap3\n      pop\n      pop\n        /* \"src/voting.sol\":1482:1771  function createPoll(string memory _name, uint16 ExpectedNoOfCandidate) external returns(string memory, uint Candidate){... */\n      swap3\n      pop\n      swap3\n      swap1\n      pop\n      jump\t// out\n        /* \"src/voting.sol\":2290:2875  function vote(address Cand, string memory _name /*, uint256 nonce, bytes memory signature*/) external  isCandidate(Cand, _name) StillVoting(_name){... */\n    tag_35:\n        /* \"src/voting.sol\":2405:2409  Cand */\n      dup2\n        /* \"src/voting.sol\":2411:2416  _name */\n      dup2\n        /* \"src/voting.sol\":1050:1071  VotingPoll storage VP */\n      0x00\n        /* \"src/voting.sol\":1074:1084  votingPoll */\n      dup1\n        /* \"src/voting.sol\":1085:1090  _name */\n      dup3\n        /* \"src/voting.sol\":1074:1091  votingPoll[_name] */\n      mload(0x40)\n      tag_88\n      swap2\n      swap1\n      tag_86\n      jump\t// in\n    tag_88:\n      swap1\n      dup2\n      mstore\n      0x20\n      add\n      mload(0x40)\n      dup1\n      swap2\n      sub\n      swap1\n      keccak256\n        /* \"src/voting.sol\":1050:1091  VotingPoll storage VP = votingPoll[_name] */\n      swap1\n      pop\n        /* \"src/voting.sol\":1131:1135  true */\n      0x01\n        /* \"src/voting.sol\":1105:1135  VP.CandidateStatus[Cand]==true */\n      iszero\n      iszero\n        /* \"src/voting.sol\":1105:1107  VP */\n      dup2\n        /* \"src/voting.sol\":1105:1123  VP.CandidateStatus */\n      0x03\n      add\n        /* \"src/voting.sol\":1105:1129  VP.CandidateStatus[Cand] */\n      0x00\n        /* \"src/voting.sol\":1124:1128  Cand */\n      dup6\n        /* \"src/voting.sol\":1105:1129  VP.CandidateStatus[Cand] */\n      0xffffffffffffffffffffffffffffffffffffffff\n      and\n      0xffffffffffffffffffffffffffffffffffffffff\n      and\n      dup2\n      mstore\n      0x20\n      add\n      swap1\n      dup2\n      mstore\n      0x20\n      add\n      0x00\n      keccak256\n      0x00\n      swap1\n      sload\n      swap1\n      0x0100\n      exp\n      swap1\n      div\n      0xff\n      and\n        /* \"src/voting.sol\":1105:1135  VP.CandidateStatus[Cand]==true */\n      iszero\n      iszero\n      eq\n        /* \"src/voting.sol\":1097:1181  require(VP.CandidateStatus[Cand]==true,'This address does not exist as a candidate') */\n      tag_89\n      jumpi\n      mload(0x40)\n      0x08c379a000000000000000000000000000000000000000000000000000000000\n      dup2\n      mstore\n      0x04\n      add\n      tag_90\n      swap1\n      tag_91\n      jump\t// in\n    tag_90:\n      mload(0x40)\n      dup1\n      swap2\n      sub\n      swap1\n      revert\n    tag_89:\n        /* \"src/voting.sol\":2430:2435  _name */\n      dup4\n        /* \"src/voting.sol\":1242:1263  VotingPoll storage VP */\n      0x00\n        /* \"src/voting.sol\":1266:1276  votingPoll */\n      dup1\n        /* \"src/voting.sol\":1277:1282  _name */\n      dup3\n        /* \"src/voting.sol\":1266:1283  votingPoll[_name] */\n      mload(0x40)\n      tag_93\n      swap2\n      swap1\n      tag_86\n      jump\t// in\n    tag_93:\n      swap1\n      dup2\n      mstore\n      0x20\n      add\n      mload(0x40)\n      dup1\n      swap2\n      sub\n      swap1\n      keccak256\n        /* \"src/voting.sol\":1242:1283  VotingPoll storage VP = votingPoll[_name] */\n      swap1\n      pop\n        /* \"src/voting.sol\":1310:1314  true */\n      0x01\n        /* \"src/voting.sol\":1297:1314  VP.voting == true */\n      iszero\n      iszero\n        /* \"src/voting.sol\":1297:1299  VP */\n      dup2\n        /* \"src/voting.sol\":1297:1306  VP.voting */\n      0x02\n      add\n      0x16\n      swap1\n      sload\n      swap1\n      0x0100\n      exp\n      swap1\n      div\n      0xff\n      and\n        /* \"src/voting.sol\":1297:1314  VP.voting == true */\n      iszero\n      iszero\n      eq\n        /* \"src/voting.sol\":1289:1335  require(VP.voting == true, \"voting has ended\") */\n      tag_94\n      jumpi\n      mload(0x40)\n      0x08c379a000000000000000000000000000000000000000000000000000000000\n      dup2\n      mstore\n      0x04\n      add\n      tag_95\n      swap1\n      tag_96\n      jump\t// in\n    tag_95:\n      mload(0x40)\n      dup1\n      swap2\n      sub\n      swap1\n      revert\n    tag_94:\n        /* \"src/voting.sol\":2689:2710  VotingPoll storage VP */\n      0x00\n        /* \"src/voting.sol\":2713:2723  votingPoll */\n      dup1\n        /* \"src/voting.sol\":2724:2729  _name */\n      dup8\n        /* \"src/voting.sol\":2713:2730  votingPoll[_name] */\n      mload(0x40)\n      tag_98\n      swap2\n      swap1\n      tag_86\n      jump\t// in\n    tag_98:\n      swap1\n      dup2\n      mstore\n      0x20\n      add\n      mload(0x40)\n      dup1\n      swap2\n      sub\n      swap1\n      keccak256\n        /* \"src/voting.sol\":2689:2730  VotingPoll storage VP = votingPoll[_name] */\n      swap1\n      pop\n        /* \"src/voting.sol\":2772:2777  false */\n      0x00\n        /* \"src/voting.sol\":2745:2777  VP.hasVoted[msg.sender] == false */\n      iszero\n      iszero\n        /* \"src/voting.sol\":2745:2747  VP */\n      dup2\n        /* \"src/voting.sol\":2745:2756  VP.hasVoted */\n      0x04\n      add\n        /* \"src/voting.sol\":2745:2768  VP.hasVoted[msg.sender] */\n      0x00\n        /* \"src/voting.sol\":2757:2767  msg.sender */\n      caller\n        /* \"src/voting.sol\":2745:2768  VP.hasVoted[msg.sender] */\n      0xffffffffffffffffffffffffffffffffffffffff\n      and\n      0xffffffffffffffffffffffffffffffffffffffff\n      and\n      dup2\n      mstore\n      0x20\n      add\n      swap1\n      dup2\n      mstore\n      0x20\n      add\n      0x00\n      keccak256\n      0x00\n      swap1\n      sload\n      swap1\n      0x0100\n      exp\n      swap1\n      div\n      0xff\n      and\n        /* \"src/voting.sol\":2745:2777  VP.hasVoted[msg.sender] == false */\n      iszero\n      iszero\n      eq\n        /* \"src/voting.sol\":2737:2799  require(VP.hasVoted[msg.sender] == false, \"You already voted\") */\n      tag_99\n      jumpi\n      mload(0x40)\n      0x08c379a000000000000000000000000000000000000000000000000000000000\n      dup2\n      mstore\n      0x04\n      add\n      tag_100\n      swap1\n      tag_101\n      jump\t// in\n    tag_100:\n      mload(0x40)\n      dup1\n      swap2\n      sub\n      swap1\n      revert\n    tag_99:\n        /* \"src/voting.sol\":2807:2841  countVote(Cand, _name, msg.sender) */\n      tag_102\n        /* \"src/voting.sol\":2817:2821  Cand */\n      dup9\n        /* \"src/voting.sol\":2823:2828  _name */\n      dup9\n        /* \"src/voting.sol\":2830:2840  msg.sender */\n      caller\n        /* \"src/voting.sol\":2807:2816  countVote */\n      tag_103\n        /* \"src/voting.sol\":2807:2841  countVote(Cand, _name, msg.sender) */\n      jump\t// in\n    tag_102:\n      pop\n        /* \"src/voting.sol\":2853:2870  voted(Cand, true) */\n      0xf3f16a15f074b71c5138107dfc7c63b80524d5411cb967caa97d8d9f12b2fd6b\n        /* \"src/voting.sol\":2859:2863  Cand */\n      dup9\n        /* \"src/voting.sol\":2865:2869  true */\n      0x01\n        /* \"src/voting.sol\":2853:2870  voted(Cand, true) */\n      mload(0x40)\n      tag_104\n      swap3\n      swap2\n      swap1\n      tag_105\n      jump\t// in\n    tag_104:\n      mload(0x40)\n      dup1\n      swap2\n      sub\n      swap1\n      log1\n        /* \"src/voting.sol\":2436:2875  {... */\n      pop\n        /* \"src/voting.sol\":1236:1346  {... */\n      pop\n        /* \"src/voting.sol\":1187:1188  _ */\n      pop\n        /* \"src/voting.sol\":1044:1191  {... */\n      pop\n        /* \"src/voting.sol\":2290:2875  function vote(address Cand, string memory _name /*, uint256 nonce, bytes memory signature*/) external  isCandidate(Cand, _name) StillVoting(_name){... */\n      pop\n      pop\n      pop\n      pop\n      jump\t// out\n        /* \"src/voting.sol\":4295:4482  function getUint( string memory _name) external view returns(uint val, address cand){... */\n    tag_40:\n        /* \"src/voting.sol\":4356:4364  uint val */\n      0x00\n        /* \"src/voting.sol\":4366:4378  address cand */\n      dup1\n        /* \"src/voting.sol\":4386:4407  VotingPoll storage VP */\n      0x00\n        /* \"src/voting.sol\":4410:4420  votingPoll */\n      dup1\n        /* \"src/voting.sol\":4421:4426  _name */\n      dup5\n        /* \"src/voting.sol\":4410:4427  votingPoll[_name] */\n      mload(0x40)\n      tag_107\n      swap2\n      swap1\n      tag_86\n      jump\t// in\n    tag_107:\n      swap1\n      dup2\n      mstore\n      0x20\n      add\n      mload(0x40)\n      dup1\n      swap2\n      sub\n      swap1\n      keccak256\n        /* \"src/voting.sol\":4386:4427  VotingPoll storage VP = votingPoll[_name] */\n      swap1\n      pop\n        /* \"src/voting.sol\":4442:4444  VP */\n      dup1\n        /* \"src/voting.sol\":4442:4458  VP.CandidateVote */\n      0x05\n      add\n        /* \"src/voting.sol\":4442:4476  VP.CandidateVote[VP.candidates[0]] */\n      0x00\n        /* \"src/voting.sol\":4459:4461  VP */\n      dup3\n        /* \"src/voting.sol\":4459:4472  VP.candidates */\n      0x01\n      add\n        /* \"src/voting.sol\":4473:4474  0 */\n      0x00\n        /* \"src/voting.sol\":4459:4475  VP.candidates[0] */\n      dup2\n      sload\n      dup2\n      lt\n      tag_108\n      jumpi\n      tag_109\n      tag_110\n      jump\t// in\n    tag_109:\n    tag_108:\n      swap1\n      0x00\n      mstore\n      keccak256(0x00, 0x20)\n      add\n      0x00\n      swap1\n      sload\n      swap1\n      0x0100\n      exp\n      swap1\n      div\n      0xffffffffffffffffffffffffffffffffffffffff\n      and\n        /* \"src/voting.sol\":4442:4476  VP.CandidateVote[VP.candidates[0]] */\n      0xffffffffffffffffffffffffffffffffffffffff\n      and\n      0xffffffffffffffffffffffffffffffffffffffff\n      and\n      dup2\n      mstore\n      0x20\n      add\n      swap1\n      dup2\n      mstore\n      0x20\n      add\n      0x00\n      keccak256\n      sload\n        /* \"src/voting.sol\":4436:4476  val = VP.CandidateVote[VP.candidates[0]] */\n      swap3\n      pop\n        /* \"src/voting.sol\":4379:4482  {... */\n      pop\n        /* \"src/voting.sol\":4295:4482  function getUint( string memory _name) external view returns(uint val, address cand){... */\n      swap2\n      pop\n      swap2\n      jump\t// out\n        /* \"src/voting.sol\":3481:4087  function revealWinner( string memory _name) external view returns ( uint[] memory CV, address, uint){... */\n    tag_46:\n        /* \"src/voting.sol\":3549:3565  uint[] memory CV */\n      0x60\n        /* \"src/voting.sol\":3567:3574  address */\n      0x00\n        /* \"src/voting.sol\":3576:3580  uint */\n      dup1\n        /* \"src/voting.sol\":3588:3609  VotingPoll storage VP */\n      0x00\n        /* \"src/voting.sol\":3612:3622  votingPoll */\n      dup1\n        /* \"src/voting.sol\":3623:3628  _name */\n      dup6\n        /* \"src/voting.sol\":3612:3629  votingPoll[_name] */\n      mload(0x40)\n      tag_113\n      swap2\n      swap1\n      tag_86\n      jump\t// in\n    tag_113:\n      swap1\n      dup2\n      mstore\n      0x20\n      add\n      mload(0x40)\n      dup1\n      swap2\n      sub\n      swap1\n      keccak256\n        /* \"src/voting.sol\":3588:3629  VotingPoll storage VP = votingPoll[_name] */\n      swap1\n      pop\n        /* \"src/voting.sol\":3667:3668  0 */\n      0x00\n        /* \"src/voting.sol\":3644:3669  VP.chairman != address(0) */\n      0xffffffffffffffffffffffffffffffffffffffff\n      and\n        /* \"src/voting.sol\":3644:3646  VP */\n      dup2\n        /* \"src/voting.sol\":3644:3655  VP.chairman */\n      0x00\n      add\n      0x00\n      swap1\n      sload\n      swap1\n      0x0100\n      exp\n      swap1\n      div\n      0xffffffffffffffffffffffffffffffffffffffff\n      and\n        /* \"src/voting.sol\":3644:3669  VP.chairman != address(0) */\n      0xffffffffffffffffffffffffffffffffffffffff\n      and\n      eq\n      iszero\n        /* \"src/voting.sol\":3636:3689  require(VP.chairman != address(0), \"No poll created\") */\n      tag_114\n      jumpi\n      mload(0x40)\n      0x08c379a000000000000000000000000000000000000000000000000000000000\n      dup2\n      mstore\n      0x04\n      add\n      tag_115\n      swap1\n      tag_116\n      jump\t// in\n    tag_115:\n      mload(0x40)\n      dup1\n      swap2\n      sub\n      swap1\n      revert\n    tag_114:\n        /* \"src/voting.sol\":3712:3714  VP */\n      dup1\n        /* \"src/voting.sol\":3712:3725  VP.candidates */\n      0x01\n      add\n        /* \"src/voting.sol\":3712:3732  VP.candidates.length */\n      dup1\n      sload\n      swap1\n      pop\n        /* \"src/voting.sol\":3701:3733  new uint[](VP.candidates.length) */\n      0xffffffffffffffff\n      dup2\n      gt\n      iszero\n      tag_117\n      jumpi\n      tag_118\n      tag_119\n      jump\t// in\n    tag_118:\n    tag_117:\n      mload(0x40)\n      swap1\n      dup1\n      dup3\n      mstore\n      dup1\n      0x20\n      mul\n      0x20\n      add\n      dup3\n      add\n      0x40\n      mstore\n      dup1\n      iszero\n      tag_120\n      jumpi\n      dup2\n      0x20\n      add\n      0x20\n      dup3\n      mul\n      dup1\n      calldatasize\n      dup4\n      calldatacopy\n      dup1\n      dup3\n      add\n      swap2\n      pop\n      pop\n      swap1\n      pop\n    tag_120:\n      pop\n        /* \"src/voting.sol\":3696:3733  CV = new uint[](VP.candidates.length) */\n      swap4\n      pop\n        /* \"src/voting.sol\":3740:3756  uint highestVote */\n      0x00\n        /* \"src/voting.sol\":3763:3777  address winner */\n      dup1\n        /* \"src/voting.sol\":3789:3795  uint i */\n      0x00\n        /* \"src/voting.sol\":3784:4045  for (uint i =0; i <= VP.candidates.length; i++){... */\n    tag_121:\n        /* \"src/voting.sol\":3805:3807  VP */\n      dup4\n        /* \"src/voting.sol\":3805:3818  VP.candidates */\n      0x01\n      add\n        /* \"src/voting.sol\":3805:3825  VP.candidates.length */\n      dup1\n      sload\n      swap1\n      pop\n        /* \"src/voting.sol\":3800:3801  i */\n      dup2\n        /* \"src/voting.sol\":3800:3825  i <= VP.candidates.length */\n      gt\n        /* \"src/voting.sol\":3784:4045  for (uint i =0; i <= VP.candidates.length; i++){... */\n      tag_122\n      jumpi\n        /* \"src/voting.sol\":3840:3848  uint val */\n      0x00\n        /* \"src/voting.sol\":3851:3853  VP */\n      dup5\n        /* \"src/voting.sol\":3851:3867  VP.CandidateVote */\n      0x05\n      add\n        /* \"src/voting.sol\":3851:3885  VP.CandidateVote[VP.candidates[i]] */\n      0x00\n        /* \"src/voting.sol\":3868:3870  VP */\n      dup7\n        /* \"src/voting.sol\":3868:3881  VP.candidates */\n      0x01\n      add\n        /* \"src/voting.sol\":3882:3883  i */\n      dup5\n        /* \"src/voting.sol\":3868:3884  VP.candidates[i] */\n      dup2\n      sload\n      dup2\n      lt\n      tag_124\n      jumpi\n      tag_125\n      tag_110\n      jump\t// in\n    tag_125:\n    tag_124:\n      swap1\n      0x00\n      mstore\n      keccak256(0x00, 0x20)\n      add\n      0x00\n      swap1\n      sload\n      swap1\n      0x0100\n      exp\n      swap1\n      div\n      0xffffffffffffffffffffffffffffffffffffffff\n      and\n        /* \"src/voting.sol\":3851:3885  VP.CandidateVote[VP.candidates[i]] */\n      0xffffffffffffffffffffffffffffffffffffffff\n      and\n      0xffffffffffffffffffffffffffffffffffffffff\n      and\n      dup2\n      mstore\n      0x20\n      add\n      swap1\n      dup2\n      mstore\n      0x20\n      add\n      0x00\n      keccak256\n      sload\n        /* \"src/voting.sol\":3840:3885  uint val = VP.CandidateVote[VP.candidates[i]] */\n      swap1\n      pop\n        /* \"src/voting.sol\":3901:3912  highestVote */\n      dup4\n        /* \"src/voting.sol\":3895:3898  val */\n      dup2\n        /* \"src/voting.sol\":3895:3912  val > highestVote */\n      gt\n        /* \"src/voting.sol\":3892:3986  if(val > highestVote){... */\n      iszero\n      tag_127\n      jumpi\n        /* \"src/voting.sol\":3938:3941  val */\n      dup1\n        /* \"src/voting.sol\":3924:3941  highestVote = val */\n      swap4\n      pop\n        /* \"src/voting.sol\":3962:3964  VP */\n      dup5\n        /* \"src/voting.sol\":3962:3975  VP.candidates */\n      0x01\n      add\n        /* \"src/voting.sol\":3976:3977  i */\n      dup3\n        /* \"src/voting.sol\":3962:3978  VP.candidates[i] */\n      dup2\n      sload\n      dup2\n      lt\n      tag_128\n      jumpi\n      tag_129\n      tag_110\n      jump\t// in\n    tag_129:\n    tag_128:\n      swap1\n      0x00\n      mstore\n      keccak256(0x00, 0x20)\n      add\n      0x00\n      swap1\n      sload\n      swap1\n      0x0100\n      exp\n      swap1\n      div\n      0xffffffffffffffffffffffffffffffffffffffff\n      and\n        /* \"src/voting.sol\":3953:3978  winner = VP.candidates[i] */\n      swap3\n      pop\n        /* \"src/voting.sol\":3892:3986  if(val > highestVote){... */\n    tag_127:\n        /* \"src/voting.sol\":4001:4003  VP */\n      dup5\n        /* \"src/voting.sol\":4001:4017  VP.CandidateVote */\n      0x05\n      add\n        /* \"src/voting.sol\":4001:4035  VP.CandidateVote[VP.candidates[i]] */\n      0x00\n        /* \"src/voting.sol\":4018:4020  VP */\n      dup7\n        /* \"src/voting.sol\":4018:4031  VP.candidates */\n      0x01\n      add\n        /* \"src/voting.sol\":4032:4033  i */\n      dup5\n        /* \"src/voting.sol\":4018:4034  VP.candidates[i] */\n      dup2\n      sload\n      dup2\n      lt\n      tag_131\n      jumpi\n      tag_132\n      tag_110\n      jump\t// in\n    tag_132:\n    tag_131:\n      swap1\n      0x00\n      mstore\n      keccak256(0x00, 0x20)\n      add\n      0x00\n      swap1\n      sload\n      swap1\n      0x0100\n      exp\n      swap1\n      div\n      0xffffffffffffffffffffffffffffffffffffffff\n      and\n        /* \"src/voting.sol\":4001:4035  VP.CandidateVote[VP.candidates[i]] */\n      0xffffffffffffffffffffffffffffffffffffffff\n      and\n      0xffffffffffffffffffffffffffffffffffffffff\n      and\n      dup2\n      mstore\n      0x20\n      add\n      swap1\n      dup2\n      mstore\n      0x20\n      add\n      0x00\n      keccak256\n      sload\n        /* \"src/voting.sol\":3992:3994  CV */\n      dup9\n        /* \"src/voting.sol\":3995:3996  i */\n      dup4\n        /* \"src/voting.sol\":3992:3997  CV[i] */\n      dup2\n      mload\n      dup2\n      lt\n      tag_134\n      jumpi\n      tag_135\n      tag_110\n      jump\t// in\n    tag_135:\n    tag_134:\n      0x20\n      mul\n      0x20\n      add\n      add\n        /* \"src/voting.sol\":3992:4036  CV[i] = (VP.CandidateVote[VP.candidates[i]]) */\n      dup2\n      dup2\n      mstore\n      pop\n      pop\n        /* \"src/voting.sol\":3831:4045  {... */\n      pop\n        /* \"src/voting.sol\":3827:3830  i++ */\n      dup1\n      dup1\n      tag_136\n      swap1\n      tag_137\n      jump\t// in\n    tag_136:\n      swap2\n      pop\n      pop\n        /* \"src/voting.sol\":3784:4045  for (uint i =0; i <= VP.candidates.length; i++){... */\n      jump(tag_121)\n    tag_122:\n      pop\n        /* \"src/voting.sol\":4059:4061  CV */\n      dup6\n        /* \"src/voting.sol\":4063:4069  winner */\n      dup2\n        /* \"src/voting.sol\":4071:4082  highestVote */\n      dup4\n        /* \"src/voting.sol\":4051:4083  return (CV, winner, highestVote) */\n      swap6\n      pop\n      swap6\n      pop\n      swap6\n      pop\n      pop\n      pop\n      pop\n        /* \"src/voting.sol\":3481:4087  function revealWinner( string memory _name) external view returns ( uint[] memory CV, address, uint){... */\n      swap2\n      swap4\n      swap1\n      swap3\n      pop\n      jump\t// out\n        /* \"src/voting.sol\":1775:2287  function AddCandidate(address _newCandidate, string memory _name) external{... */\n    tag_52:\n        /* \"src/voting.sol\":1856:1877  VotingPoll storage VP */\n      0x00\n        /* \"src/voting.sol\":1880:1890  votingPoll */\n      dup1\n        /* \"src/voting.sol\":1891:1896  _name */\n      dup3\n        /* \"src/voting.sol\":1880:1897  votingPoll[_name] */\n      mload(0x40)\n      tag_139\n      swap2\n      swap1\n      tag_86\n      jump\t// in\n    tag_139:\n      swap1\n      dup2\n      mstore\n      0x20\n      add\n      mload(0x40)\n      dup1\n      swap2\n      sub\n      swap1\n      keccak256\n        /* \"src/voting.sol\":1856:1897  VotingPoll storage VP = votingPoll[_name] */\n      swap1\n      pop\n        /* \"src/voting.sol\":1936:1937  0 */\n      0x00\n        /* \"src/voting.sol\":1913:1938  VP.chairman != address(0) */\n      0xffffffffffffffffffffffffffffffffffffffff\n      and\n        /* \"src/voting.sol\":1913:1915  VP */\n      dup2\n        /* \"src/voting.sol\":1913:1924  VP.chairman */\n      0x00\n      add\n      0x00\n      swap1\n      sload\n      swap1\n      0x0100\n      exp\n      swap1\n      div\n      0xffffffffffffffffffffffffffffffffffffffff\n      and\n        /* \"src/voting.sol\":1913:1938  VP.chairman != address(0) */\n      0xffffffffffffffffffffffffffffffffffffffff\n      and\n      eq\n      iszero\n        /* \"src/voting.sol\":1904:1964  require (VP.chairman != address(0) , \"yet to create a poll\") */\n      tag_140\n      jumpi\n      mload(0x40)\n      0x08c379a000000000000000000000000000000000000000000000000000000000\n      dup2\n      mstore\n      0x04\n      add\n      tag_141\n      swap1\n      tag_142\n      jump\t// in\n    tag_141:\n      mload(0x40)\n      dup1\n      swap2\n      sub\n      swap1\n      revert\n    tag_140:\n        /* \"src/voting.sol\":1995:2005  msg.sender */\n      caller\n        /* \"src/voting.sol\":1980:2005  VP.chairman == msg.sender */\n      0xffffffffffffffffffffffffffffffffffffffff\n      and\n        /* \"src/voting.sol\":1980:1982  VP */\n      dup2\n        /* \"src/voting.sol\":1980:1991  VP.chairman */\n      0x00\n      add\n      0x00\n      swap1\n      sload\n      swap1\n      0x0100\n      exp\n      swap1\n      div\n      0xffffffffffffffffffffffffffffffffffffffff\n      and\n        /* \"src/voting.sol\":1980:2005  VP.chairman == msg.sender */\n      0xffffffffffffffffffffffffffffffffffffffff\n      and\n      eq\n        /* \"src/voting.sol\":1973:2006  assert(VP.chairman == msg.sender) */\n      tag_143\n      jumpi\n      tag_144\n      tag_145\n      jump\t// in\n    tag_144:\n    tag_143:\n        /* \"src/voting.sol\":2048:2050  VP */\n      dup1\n        /* \"src/voting.sol\":2048:2068  VP.maxNoOfCandidates */\n      0x02\n      add\n      0x00\n      swap1\n      sload\n      swap1\n      0x0100\n      exp\n      swap1\n      div\n      0xffffffff\n      and\n        /* \"src/voting.sol\":2021:2068  VP.currentNoOfCandidates < VP.maxNoOfCandidates */\n      0xffffffff\n      and\n        /* \"src/voting.sol\":2021:2023  VP */\n      dup2\n        /* \"src/voting.sol\":2021:2045  VP.currentNoOfCandidates */\n      0x02\n      add\n      0x14\n      swap1\n      sload\n      swap1\n      0x0100\n      exp\n      swap1\n      div\n      0xffff\n      and\n        /* \"src/voting.sol\":2021:2068  VP.currentNoOfCandidates < VP.maxNoOfCandidates */\n      0xffff\n      and\n      lt\n        /* \"src/voting.sol\":2013:2119  require(VP.currentNoOfCandidates < VP.maxNoOfCandidates, \"maximum no of candidate per session registered\") */\n      tag_146\n      jumpi\n      mload(0x40)\n      0x08c379a000000000000000000000000000000000000000000000000000000000\n      dup2\n      mstore\n      0x04\n      add\n      tag_147\n      swap1\n      tag_148\n      jump\t// in\n    tag_147:\n      mload(0x40)\n      dup1\n      swap2\n      sub\n      swap1\n      revert\n    tag_146:\n        /* \"src/voting.sol\":2162:2166  true */\n      0x01\n        /* \"src/voting.sol\":2126:2128  VP */\n      dup2\n        /* \"src/voting.sol\":2126:2144  VP.CandidateStatus */\n      0x03\n      add\n        /* \"src/voting.sol\":2126:2159  VP.CandidateStatus[_newCandidate] */\n      0x00\n        /* \"src/voting.sol\":2145:2158  _newCandidate */\n      dup6\n        /* \"src/voting.sol\":2126:2159  VP.CandidateStatus[_newCandidate] */\n      0xffffffffffffffffffffffffffffffffffffffff\n      and\n      0xffffffffffffffffffffffffffffffffffffffff\n      and\n      dup2\n      mstore\n      0x20\n      add\n      swap1\n      dup2\n      mstore\n      0x20\n      add\n      0x00\n      keccak256\n      0x00\n        /* \"src/voting.sol\":2126:2166  VP.CandidateStatus[_newCandidate] = true */\n      0x0100\n      exp\n      dup2\n      sload\n      dup2\n      0xff\n      mul\n      not\n      and\n      swap1\n      dup4\n      iszero\n      iszero\n      mul\n      or\n      swap1\n      sstore\n      pop\n        /* \"src/voting.sol\":2174:2176  VP */\n      dup1\n        /* \"src/voting.sol\":2174:2187  VP.candidates */\n      0x01\n      add\n        /* \"src/voting.sol\":2193:2206  _newCandidate */\n      dup4\n        /* \"src/voting.sol\":2174:2207  VP.candidates.push(_newCandidate) */\n      swap1\n      dup1\n      0x01\n      dup2\n      sload\n      add\n      dup1\n      dup3\n      sstore\n      dup1\n      swap2\n      pop\n      pop\n      0x01\n      swap1\n      sub\n      swap1\n      0x00\n      mstore\n      keccak256(0x00, 0x20)\n      add\n      0x00\n      swap1\n      swap2\n      swap1\n      swap2\n      swap1\n      swap2\n      0x0100\n      exp\n      dup2\n      sload\n      dup2\n      0xffffffffffffffffffffffffffffffffffffffff\n      mul\n      not\n      and\n      swap1\n      dup4\n      0xffffffffffffffffffffffffffffffffffffffff\n      and\n      mul\n      or\n      swap1\n      sstore\n      pop\n        /* \"src/voting.sol\":2215:2217  VP */\n      dup1\n        /* \"src/voting.sol\":2215:2239  VP.currentNoOfCandidates */\n      0x02\n      add\n      0x14\n        /* \"src/voting.sol\":2215:2241  VP.currentNoOfCandidates++ */\n      dup2\n      dup2\n      swap1\n      sload\n      swap1\n      0x0100\n      exp\n      swap1\n      div\n      0xffff\n      and\n      dup1\n      swap3\n      swap2\n      swap1\n      tag_150\n      swap1\n      tag_151\n      jump\t// in\n    tag_150:\n      swap2\n      swap1\n      0x0100\n      exp\n      dup2\n      sload\n      dup2\n      0xffff\n      mul\n      not\n      and\n      swap1\n      dup4\n      0xffff\n      and\n      mul\n      or\n      swap1\n      sstore\n      pop\n      pop\n        /* \"src/voting.sol\":2253:2283  becameCandidate(_newCandidate) */\n      0xc19c59aa93348e8fc54764bc642eca975e2639f44cc683ef8f027e1529cbda32\n        /* \"src/voting.sol\":2269:2282  _newCandidate */\n      dup4\n        /* \"src/voting.sol\":2253:2283  becameCandidate(_newCandidate) */\n      mload(0x40)\n      tag_152\n      swap2\n      swap1\n      tag_153\n      jump\t// in\n    tag_152:\n      mload(0x40)\n      dup1\n      swap2\n      sub\n      swap1\n      log1\n        /* \"src/voting.sol\":1849:2287  {... */\n      pop\n        /* \"src/voting.sol\":1775:2287  function AddCandidate(address _newCandidate, string memory _name) external{... */\n      pop\n      pop\n      jump\t// out\n        /* \"src/voting.sol\":670:717  mapping(string => VotingPoll) public votingPoll */\n    tag_56:\n      0x00\n      dup2\n      dup1\n      mload\n      0x20\n      dup2\n      add\n      dup3\n      add\n      dup1\n      mload\n      dup5\n      dup3\n      mstore\n      0x20\n      dup4\n      add\n      0x20\n      dup6\n      add\n      keccak256\n      dup2\n      dup4\n      mstore\n      dup1\n      swap6\n      pop\n      pop\n      pop\n      pop\n      pop\n      pop\n      0x00\n      swap2\n      pop\n      swap1\n      pop\n      dup1\n      0x00\n      add\n      0x00\n      swap1\n      sload\n      swap1\n      0x0100\n      exp\n      swap1\n      div\n      0xffffffffffffffffffffffffffffffffffffffff\n      and\n      swap1\n      dup1\n      0x02\n      add\n      0x00\n      swap1\n      sload\n      swap1\n      0x0100\n      exp\n      swap1\n      div\n      0xffffffff\n      and\n      swap1\n      dup1\n      0x02\n      add\n      0x04\n      swap1\n      sload\n      swap1\n      0x0100\n      exp\n      swap1\n      div\n      0xffffffffffffffff\n      and\n      swap1\n      dup1\n      0x02\n      add\n      0x0c\n      swap1\n      sload\n      swap1\n      0x0100\n      exp\n      swap1\n      div\n      0xffffffffffffffff\n      and\n      swap1\n      dup1\n      0x02\n      add\n      0x14\n      swap1\n      sload\n      swap1\n      0x0100\n      exp\n      swap1\n      div\n      0xffff\n      and\n      swap1\n      dup1\n      0x02\n      add\n      0x16\n      swap1\n      sload\n      swap1\n      0x0100\n      exp\n      swap1\n      div\n      0xff\n      and\n      swap1\n      pop\n      dup7\n      jump\t// out\n        /* \"src/voting.sol\":723:770  mapping (address => uint256) public replayNonce */\n    tag_63:\n      mstore(0x20, 0x01)\n      dup1\n      0x00\n      mstore\n      keccak256(0x00, 0x40)\n      0x00\n      swap2\n      pop\n      swap1\n      pop\n      sload\n      dup2\n      jump\t// out\n        /* \"src/voting.sol\":3126:3297  function NoOfRegisteredCandidates( string memory _name) public view returns(uint){... */\n    tag_69:\n        /* \"src/voting.sol\":3202:3206  uint */\n      0x00\n        /* \"src/voting.sol\":3214:3235  VotingPoll storage VP */\n      dup1\n        /* \"src/voting.sol\":3238:3248  votingPoll */\n      0x00\n        /* \"src/voting.sol\":3249:3254  _name */\n      dup4\n        /* \"src/voting.sol\":3238:3255  votingPoll[_name] */\n      mload(0x40)\n      tag_155\n      swap2\n      swap1\n      tag_86\n      jump\t// in\n    tag_155:\n      swap1\n      dup2\n      mstore\n      0x20\n      add\n      mload(0x40)\n      dup1\n      swap2\n      sub\n      swap1\n      keccak256\n        /* \"src/voting.sol\":3214:3255  VotingPoll storage VP = votingPoll[_name] */\n      swap1\n      pop\n        /* \"src/voting.sol\":3269:3271  VP */\n      dup1\n        /* \"src/voting.sol\":3269:3293  VP.currentNoOfCandidates */\n      0x02\n      add\n      0x14\n      swap1\n      sload\n      swap1\n      0x0100\n      exp\n      swap1\n      div\n      0xffff\n      and\n        /* \"src/voting.sol\":3262:3293  return VP.currentNoOfCandidates */\n      0xffff\n      and\n      swap2\n      pop\n      pop\n        /* \"src/voting.sol\":3126:3297  function NoOfRegisteredCandidates( string memory _name) public view returns(uint){... */\n      swap2\n      swap1\n      pop\n      jump\t// out\n        /* \"src/voting.sol\":3305:3478  function AllCandidates( string memory _name) public view returns(address[] memory _candidates){... */\n    tag_74:\n        /* \"src/voting.sol\":3370:3398  address[] memory _candidates */\n      0x60\n        /* \"src/voting.sol\":3406:3427  VotingPoll storage VP */\n      0x00\n        /* \"src/voting.sol\":3430:3440  votingPoll */\n      dup1\n        /* \"src/voting.sol\":3441:3446  _name */\n      dup4\n        /* \"src/voting.sol\":3430:3447  votingPoll[_name] */\n      mload(0x40)\n      tag_157\n      swap2\n      swap1\n      tag_86\n      jump\t// in\n    tag_157:\n      swap1\n      dup2\n      mstore\n      0x20\n      add\n      mload(0x40)\n      dup1\n      swap2\n      sub\n      swap1\n      keccak256\n        /* \"src/voting.sol\":3406:3447  VotingPoll storage VP = votingPoll[_name] */\n      swap1\n      pop\n        /* \"src/voting.sol\":3461:3463  VP */\n      dup1\n        /* \"src/voting.sol\":3461:3474  VP.candidates */\n      0x01\n      add\n        /* \"src/voting.sol\":3454:3474  return VP.candidates */\n      dup1\n      sload\n      dup1\n      0x20\n      mul\n      0x20\n      add\n      mload(0x40)\n      swap1\n      dup2\n      add\n      0x40\n      mstore\n      dup1\n      swap3\n      swap2\n      swap1\n      dup2\n      dup2\n      mstore\n      0x20\n      add\n      dup3\n      dup1\n      sload\n      dup1\n      iszero\n      tag_158\n      jumpi\n      0x20\n      mul\n      dup3\n      add\n      swap2\n      swap1\n      0x00\n      mstore\n      keccak256(0x00, 0x20)\n      swap1\n    tag_159:\n      dup2\n      0x00\n      swap1\n      sload\n      swap1\n      0x0100\n      exp\n      swap1\n      div\n      0xffffffffffffffffffffffffffffffffffffffff\n      and\n      0xffffffffffffffffffffffffffffffffffffffff\n      and\n      dup2\n      mstore\n      0x20\n      add\n      swap1\n      0x01\n      add\n      swap1\n      dup1\n      dup4\n      gt\n      tag_159\n      jumpi\n    tag_158:\n      pop\n      pop\n      pop\n      pop\n      pop\n      swap2\n      pop\n      pop\n        /* \"src/voting.sol\":3305:3478  function AllCandidates( string memory _name) public view returns(address[] memory _candidates){... */\n      swap2\n      swap1\n      pop\n      jump\t// out\n        /* \"src/voting.sol\":4090:4292  function setVotingState( string memory _name) external {... */\n    tag_80:\n        /* \"src/voting.sol\":4151:4172  VotingPoll storage VP */\n      0x00\n        /* \"src/voting.sol\":4175:4185  votingPoll */\n      dup1\n        /* \"src/voting.sol\":4186:4191  _name */\n      dup3\n        /* \"src/voting.sol\":4175:4192  votingPoll[_name] */\n      mload(0x40)\n      tag_161\n      swap2\n      swap1\n      tag_86\n      jump\t// in\n    tag_161:\n      swap1\n      dup2\n      mstore\n      0x20\n      add\n      mload(0x40)\n      dup1\n      swap2\n      sub\n      swap1\n      keccak256\n        /* \"src/voting.sol\":4151:4192  VotingPoll storage VP = votingPoll[_name] */\n      swap1\n      pop\n        /* \"src/voting.sol\":4221:4231  msg.sender */\n      caller\n        /* \"src/voting.sol\":4206:4231  VP.chairman == msg.sender */\n      0xffffffffffffffffffffffffffffffffffffffff\n      and\n        /* \"src/voting.sol\":4206:4208  VP */\n      dup2\n        /* \"src/voting.sol\":4206:4217  VP.chairman */\n      0x00\n      add\n      0x00\n      swap1\n      sload\n      swap1\n      0x0100\n      exp\n      swap1\n      div\n      0xffffffffffffffffffffffffffffffffffffffff\n      and\n        /* \"src/voting.sol\":4206:4231  VP.chairman == msg.sender */\n      0xffffffffffffffffffffffffffffffffffffffff\n      and\n      eq\n        /* \"src/voting.sol\":4198:4252  require(VP.chairman == msg.sender, \"not the chairman\") */\n      tag_162\n      jumpi\n      mload(0x40)\n      0x08c379a000000000000000000000000000000000000000000000000000000000\n      dup2\n      mstore\n      0x04\n      add\n      tag_163\n      swap1\n      tag_164\n      jump\t// in\n    tag_163:\n      mload(0x40)\n      dup1\n      swap2\n      sub\n      swap1\n      revert\n    tag_162:\n        /* \"src/voting.sol\":4278:4280  VP */\n      dup1\n        /* \"src/voting.sol\":4278:4287  VP.voting */\n      0x02\n      add\n      0x16\n      swap1\n      sload\n      swap1\n      0x0100\n      exp\n      swap1\n      div\n      0xff\n      and\n        /* \"src/voting.sol\":4276:4288  !(VP.voting) */\n      iszero\n        /* \"src/voting.sol\":4264:4266  VP */\n      dup2\n        /* \"src/voting.sol\":4264:4273  VP.voting */\n      0x02\n      add\n      0x16\n        /* \"src/voting.sol\":4264:4288  VP.voting = !(VP.voting) */\n      0x0100\n      exp\n      dup2\n      sload\n      dup2\n      0xff\n      mul\n      not\n      and\n      swap1\n      dup4\n      iszero\n      iszero\n      mul\n      or\n      swap1\n      sstore\n      pop\n        /* \"src/voting.sol\":4145:4292  {... */\n      pop\n        /* \"src/voting.sol\":4090:4292  function setVotingState( string memory _name) external {... */\n      pop\n      jump\t// out\n        /* \"src/voting.sol\":2878:3123  function countVote(address Cand, string memory _name, address signer) internal returns(uint){... */\n    tag_103:\n        /* \"src/voting.sol\":2965:2969  uint */\n      0x00\n        /* \"src/voting.sol\":2977:2998  VotingPoll storage VP */\n      dup1\n        /* \"src/voting.sol\":3001:3011  votingPoll */\n      0x00\n        /* \"src/voting.sol\":3012:3017  _name */\n      dup5\n        /* \"src/voting.sol\":3001:3018  votingPoll[_name] */\n      mload(0x40)\n      tag_166\n      swap2\n      swap1\n      tag_86\n      jump\t// in\n    tag_166:\n      swap1\n      dup2\n      mstore\n      0x20\n      add\n      mload(0x40)\n      dup1\n      swap2\n      sub\n      swap1\n      keccak256\n        /* \"src/voting.sol\":2977:3018  VotingPoll storage VP = votingPoll[_name] */\n      swap1\n      pop\n        /* \"src/voting.sol\":3047:3051  true */\n      0x01\n        /* \"src/voting.sol\":3025:3027  VP */\n      dup2\n        /* \"src/voting.sol\":3025:3036  VP.hasVoted */\n      0x04\n      add\n        /* \"src/voting.sol\":3025:3044  VP.hasVoted[signer] */\n      0x00\n        /* \"src/voting.sol\":3037:3043  signer */\n      dup6\n        /* \"src/voting.sol\":3025:3044  VP.hasVoted[signer] */\n      0xffffffffffffffffffffffffffffffffffffffff\n      and\n      0xffffffffffffffffffffffffffffffffffffffff\n      and\n      dup2\n      mstore\n      0x20\n      add\n      swap1\n      dup2\n      mstore\n      0x20\n      add\n      0x00\n      keccak256\n      0x00\n        /* \"src/voting.sol\":3025:3051  VP.hasVoted[signer] = true */\n      0x0100\n      exp\n      dup2\n      sload\n      dup2\n      0xff\n      mul\n      not\n      and\n      swap1\n      dup4\n      iszero\n      iszero\n      mul\n      or\n      swap1\n      sstore\n      pop\n        /* \"src/voting.sol\":3058:3060  VP */\n      dup1\n        /* \"src/voting.sol\":3058:3074  VP.CandidateVote */\n      0x05\n      add\n        /* \"src/voting.sol\":3058:3080  VP.CandidateVote[Cand] */\n      0x00\n        /* \"src/voting.sol\":3075:3079  Cand */\n      dup7\n        /* \"src/voting.sol\":3058:3080  VP.CandidateVote[Cand] */\n      0xffffffffffffffffffffffffffffffffffffffff\n      and\n      0xffffffffffffffffffffffffffffffffffffffff\n      and\n      dup2\n      mstore\n      0x20\n      add\n      swap1\n      dup2\n      mstore\n      0x20\n      add\n      0x00\n      keccak256\n      0x00\n        /* \"src/voting.sol\":3058:3082  VP.CandidateVote[Cand]++ */\n      dup2\n      sload\n      dup1\n      swap3\n      swap2\n      swap1\n      tag_167\n      swap1\n      tag_137\n      jump\t// in\n    tag_167:\n      swap2\n      swap1\n      pop\n      sstore\n      pop\n        /* \"src/voting.sol\":3096:3098  VP */\n      dup1\n        /* \"src/voting.sol\":3096:3112  VP.CandidateVote */\n      0x05\n      add\n        /* \"src/voting.sol\":3096:3118  VP.CandidateVote[Cand] */\n      0x00\n        /* \"src/voting.sol\":3113:3117  Cand */\n      dup7\n        /* \"src/voting.sol\":3096:3118  VP.CandidateVote[Cand] */\n      0xffffffffffffffffffffffffffffffffffffffff\n      and\n      0xffffffffffffffffffffffffffffffffffffffff\n      and\n      dup2\n      mstore\n      0x20\n      add\n      swap1\n      dup2\n      mstore\n      0x20\n      add\n      0x00\n      keccak256\n      sload\n        /* \"src/voting.sol\":3089:3118  return VP.CandidateVote[Cand] */\n      swap2\n      pop\n      pop\n        /* \"src/voting.sol\":2878:3123  function countVote(address Cand, string memory _name, address signer) internal returns(uint){... */\n      swap4\n      swap3\n      pop\n      pop\n      pop\n      jump\t// out\n        /* \"#utility.yul\":7:82   */\n    tag_168:\n        /* \"#utility.yul\":40:46   */\n      0x00\n        /* \"#utility.yul\":73:75   */\n      0x40\n        /* \"#utility.yul\":67:76   */\n      mload\n        /* \"#utility.yul\":57:76   */\n      swap1\n      pop\n        /* \"#utility.yul\":7:82   */\n      swap1\n      jump\t// out\n        /* \"#utility.yul\":88:205   */\n    tag_169:\n        /* \"#utility.yul\":197:198   */\n      0x00\n        /* \"#utility.yul\":194:195   */\n      dup1\n        /* \"#utility.yul\":187:199   */\n      revert\n        /* \"#utility.yul\":211:328   */\n    tag_170:\n        /* \"#utility.yul\":320:321   */\n      0x00\n        /* \"#utility.yul\":317:318   */\n      dup1\n        /* \"#utility.yul\":310:322   */\n      revert\n        /* \"#utility.yul\":334:460   */\n    tag_171:\n        /* \"#utility.yul\":371:378   */\n      0x00\n        /* \"#utility.yul\":411:453   */\n      0xffffffffffffffffffffffffffffffffffffffff\n        /* \"#utility.yul\":404:409   */\n      dup3\n        /* \"#utility.yul\":400:454   */\n      and\n        /* \"#utility.yul\":389:454   */\n      swap1\n      pop\n        /* \"#utility.yul\":334:460   */\n      swap2\n      swap1\n      pop\n      jump\t// out\n        /* \"#utility.yul\":466:562   */\n    tag_172:\n        /* \"#utility.yul\":503:510   */\n      0x00\n        /* \"#utility.yul\":532:556   */\n      tag_250\n        /* \"#utility.yul\":550:555   */\n      dup3\n        /* \"#utility.yul\":532:556   */\n      tag_171\n      jump\t// in\n    tag_250:\n        /* \"#utility.yul\":521:556   */\n      swap1\n      pop\n        /* \"#utility.yul\":466:562   */\n      swap2\n      swap1\n      pop\n      jump\t// out\n        /* \"#utility.yul\":568:690   */\n    tag_173:\n        /* \"#utility.yul\":641:665   */\n      tag_252\n        /* \"#utility.yul\":659:664   */\n      dup2\n        /* \"#utility.yul\":641:665   */\n      tag_172\n      jump\t// in\n    tag_252:\n        /* \"#utility.yul\":634:639   */\n      dup2\n        /* \"#utility.yul\":631:666   */\n      eq\n        /* \"#utility.yul\":621:684   */\n      tag_253\n      jumpi\n        /* \"#utility.yul\":680:681   */\n      0x00\n        /* \"#utility.yul\":677:678   */\n      dup1\n        /* \"#utility.yul\":670:682   */\n      revert\n        /* \"#utility.yul\":621:684   */\n    tag_253:\n        /* \"#utility.yul\":568:690   */\n      pop\n      jump\t// out\n        /* \"#utility.yul\":696:835   */\n    tag_174:\n        /* \"#utility.yul\":742:747   */\n      0x00\n        /* \"#utility.yul\":780:786   */\n      dup2\n        /* \"#utility.yul\":767:787   */\n      calldataload\n        /* \"#utility.yul\":758:787   */\n      swap1\n      pop\n        /* \"#utility.yul\":796:829   */\n      tag_255\n        /* \"#utility.yul\":823:828   */\n      dup2\n        /* \"#utility.yul\":796:829   */\n      tag_173\n      jump\t// in\n    tag_255:\n        /* \"#utility.yul\":696:835   */\n      swap3\n      swap2\n      pop\n      pop\n      jump\t// out\n        /* \"#utility.yul\":841:958   */\n    tag_175:\n        /* \"#utility.yul\":950:951   */\n      0x00\n        /* \"#utility.yul\":947:948   */\n      dup1\n        /* \"#utility.yul\":940:952   */\n      revert\n        /* \"#utility.yul\":964:1081   */\n    tag_176:\n        /* \"#utility.yul\":1073:1074   */\n      0x00\n        /* \"#utility.yul\":1070:1071   */\n      dup1\n        /* \"#utility.yul\":1063:1075   */\n      revert\n        /* \"#utility.yul\":1087:1189   */\n    tag_177:\n        /* \"#utility.yul\":1128:1134   */\n      0x00\n        /* \"#utility.yul\":1179:1181   */\n      0x1f\n        /* \"#utility.yul\":1175:1182   */\n      not\n        /* \"#utility.yul\":1170:1172   */\n      0x1f\n        /* \"#utility.yul\":1163:1168   */\n      dup4\n        /* \"#utility.yul\":1159:1173   */\n      add\n        /* \"#utility.yul\":1155:1183   */\n      and\n        /* \"#utility.yul\":1145:1183   */\n      swap1\n      pop\n        /* \"#utility.yul\":1087:1189   */\n      swap2\n      swap1\n      pop\n      jump\t// out\n        /* \"#utility.yul\":1195:1375   */\n    tag_119:\n        /* \"#utility.yul\":1243:1320   */\n      0x4e487b7100000000000000000000000000000000000000000000000000000000\n        /* \"#utility.yul\":1240:1241   */\n      0x00\n        /* \"#utility.yul\":1233:1321   */\n      mstore\n        /* \"#utility.yul\":1340:1344   */\n      0x41\n        /* \"#utility.yul\":1337:1338   */\n      0x04\n        /* \"#utility.yul\":1330:1345   */\n      mstore\n        /* \"#utility.yul\":1364:1368   */\n      0x24\n        /* \"#utility.yul\":1361:1362   */\n      0x00\n        /* \"#utility.yul\":1354:1369   */\n      revert\n        /* \"#utility.yul\":1381:1662   */\n    tag_178:\n        /* \"#utility.yul\":1464:1491   */\n      tag_261\n        /* \"#utility.yul\":1486:1490   */\n      dup3\n        /* \"#utility.yul\":1464:1491   */\n      tag_177\n      jump\t// in\n    tag_261:\n        /* \"#utility.yul\":1456:1462   */\n      dup2\n        /* \"#utility.yul\":1452:1492   */\n      add\n        /* \"#utility.yul\":1594:1600   */\n      dup2\n        /* \"#utility.yul\":1582:1592   */\n      dup2\n        /* \"#utility.yul\":1579:1601   */\n      lt\n        /* \"#utility.yul\":1558:1576   */\n      0xffffffffffffffff\n        /* \"#utility.yul\":1546:1556   */\n      dup3\n        /* \"#utility.yul\":1543:1577   */\n      gt\n        /* \"#utility.yul\":1540:1602   */\n      or\n        /* \"#utility.yul\":1537:1625   */\n      iszero\n      tag_262\n      jumpi\n        /* \"#utility.yul\":1605:1623   */\n      tag_263\n      tag_119\n      jump\t// in\n    tag_263:\n        /* \"#utility.yul\":1537:1625   */\n    tag_262:\n        /* \"#utility.yul\":1645:1655   */\n      dup1\n        /* \"#utility.yul\":1641:1643   */\n      0x40\n        /* \"#utility.yul\":1634:1656   */\n      mstore\n        /* \"#utility.yul\":1424:1662   */\n      pop\n        /* \"#utility.yul\":1381:1662   */\n      pop\n      pop\n      jump\t// out\n        /* \"#utility.yul\":1668:1797   */\n    tag_179:\n        /* \"#utility.yul\":1702:1708   */\n      0x00\n        /* \"#utility.yul\":1729:1749   */\n      tag_265\n      tag_168\n      jump\t// in\n    tag_265:\n        /* \"#utility.yul\":1719:1749   */\n      swap1\n      pop\n        /* \"#utility.yul\":1758:1791   */\n      tag_266\n        /* \"#utility.yul\":1786:1790   */\n      dup3\n        /* \"#utility.yul\":1778:1784   */\n      dup3\n        /* \"#utility.yul\":1758:1791   */\n      tag_178\n      jump\t// in\n    tag_266:\n        /* \"#utility.yul\":1668:1797   */\n      swap2\n      swap1\n      pop\n      jump\t// out\n        /* \"#utility.yul\":1803:2111   */\n    tag_180:\n        /* \"#utility.yul\":1865:1869   */\n      0x00\n        /* \"#utility.yul\":1955:1973   */\n      0xffffffffffffffff\n        /* \"#utility.yul\":1947:1953   */\n      dup3\n        /* \"#utility.yul\":1944:1974   */\n      gt\n        /* \"#utility.yul\":1941:1997   */\n      iszero\n      tag_268\n      jumpi\n        /* \"#utility.yul\":1977:1995   */\n      tag_269\n      tag_119\n      jump\t// in\n    tag_269:\n        /* \"#utility.yul\":1941:1997   */\n    tag_268:\n        /* \"#utility.yul\":2015:2044   */\n      tag_270\n        /* \"#utility.yul\":2037:2043   */\n      dup3\n        /* \"#utility.yul\":2015:2044   */\n      tag_177\n      jump\t// in\n    tag_270:\n        /* \"#utility.yul\":2007:2044   */\n      swap1\n      pop\n        /* \"#utility.yul\":2099:2103   */\n      0x20\n        /* \"#utility.yul\":2093:2097   */\n      dup2\n        /* \"#utility.yul\":2089:2104   */\n      add\n        /* \"#utility.yul\":2081:2104   */\n      swap1\n      pop\n        /* \"#utility.yul\":1803:2111   */\n      swap2\n      swap1\n      pop\n      jump\t// out\n        /* \"#utility.yul\":2117:2271   */\n    tag_181:\n        /* \"#utility.yul\":2201:2207   */\n      dup3\n        /* \"#utility.yul\":2196:2199   */\n      dup2\n        /* \"#utility.yul\":2191:2194   */\n      dup4\n        /* \"#utility.yul\":2178:2208   */\n      calldatacopy\n        /* \"#utility.yul\":2263:2264   */\n      0x00\n        /* \"#utility.yul\":2254:2260   */\n      dup4\n        /* \"#utility.yul\":2249:2252   */\n      dup4\n        /* \"#utility.yul\":2245:2261   */\n      add\n        /* \"#utility.yul\":2238:2265   */\n      mstore\n        /* \"#utility.yul\":2117:2271   */\n      pop\n      pop\n      pop\n      jump\t// out\n        /* \"#utility.yul\":2277:2689   */\n    tag_182:\n        /* \"#utility.yul\":2355:2360   */\n      0x00\n        /* \"#utility.yul\":2380:2446   */\n      tag_273\n        /* \"#utility.yul\":2396:2445   */\n      tag_274\n        /* \"#utility.yul\":2438:2444   */\n      dup5\n        /* \"#utility.yul\":2396:2445   */\n      tag_180\n      jump\t// in\n    tag_274:\n        /* \"#utility.yul\":2380:2446   */\n      tag_179\n      jump\t// in\n    tag_273:\n        /* \"#utility.yul\":2371:2446   */\n      swap1\n      pop\n        /* \"#utility.yul\":2469:2475   */\n      dup3\n        /* \"#utility.yul\":2462:2467   */\n      dup2\n        /* \"#utility.yul\":2455:2476   */\n      mstore\n        /* \"#utility.yul\":2507:2511   */\n      0x20\n        /* \"#utility.yul\":2500:2505   */\n      dup2\n        /* \"#utility.yul\":2496:2512   */\n      add\n        /* \"#utility.yul\":2545:2548   */\n      dup5\n        /* \"#utility.yul\":2536:2542   */\n      dup5\n        /* \"#utility.yul\":2531:2534   */\n      dup5\n        /* \"#utility.yul\":2527:2543   */\n      add\n        /* \"#utility.yul\":2524:2549   */\n      gt\n        /* \"#utility.yul\":2521:2633   */\n      iszero\n      tag_275\n      jumpi\n        /* \"#utility.yul\":2552:2631   */\n      tag_276\n      tag_176\n      jump\t// in\n    tag_276:\n        /* \"#utility.yul\":2521:2633   */\n    tag_275:\n        /* \"#utility.yul\":2642:2683   */\n      tag_277\n        /* \"#utility.yul\":2676:2682   */\n      dup5\n        /* \"#utility.yul\":2671:2674   */\n      dup3\n        /* \"#utility.yul\":2666:2669   */\n      dup6\n        /* \"#utility.yul\":2642:2683   */\n      tag_181\n      jump\t// in\n    tag_277:\n        /* \"#utility.yul\":2361:2689   */\n      pop\n        /* \"#utility.yul\":2277:2689   */\n      swap4\n      swap3\n      pop\n      pop\n      pop\n      jump\t// out\n        /* \"#utility.yul\":2709:3049   */\n    tag_183:\n        /* \"#utility.yul\":2765:2770   */\n      0x00\n        /* \"#utility.yul\":2814:2817   */\n      dup3\n        /* \"#utility.yul\":2807:2811   */\n      0x1f\n        /* \"#utility.yul\":2799:2805   */\n      dup4\n        /* \"#utility.yul\":2795:2812   */\n      add\n        /* \"#utility.yul\":2791:2818   */\n      slt\n        /* \"#utility.yul\":2781:2903   */\n      tag_279\n      jumpi\n        /* \"#utility.yul\":2822:2901   */\n      tag_280\n      tag_175\n      jump\t// in\n    tag_280:\n        /* \"#utility.yul\":2781:2903   */\n    tag_279:\n        /* \"#utility.yul\":2939:2945   */\n      dup2\n        /* \"#utility.yul\":2926:2946   */\n      calldataload\n        /* \"#utility.yul\":2964:3043   */\n      tag_281\n        /* \"#utility.yul\":3039:3042   */\n      dup5\n        /* \"#utility.yul\":3031:3037   */\n      dup3\n        /* \"#utility.yul\":3024:3028   */\n      0x20\n        /* \"#utility.yul\":3016:3022   */\n      dup7\n        /* \"#utility.yul\":3012:3029   */\n      add\n        /* \"#utility.yul\":2964:3043   */\n      tag_182\n      jump\t// in\n    tag_281:\n        /* \"#utility.yul\":2955:3043   */\n      swap2\n      pop\n        /* \"#utility.yul\":2771:3049   */\n      pop\n        /* \"#utility.yul\":2709:3049   */\n      swap3\n      swap2\n      pop\n      pop\n      jump\t// out\n        /* \"#utility.yul\":3055:3132   */\n    tag_184:\n        /* \"#utility.yul\":3092:3099   */\n      0x00\n        /* \"#utility.yul\":3121:3126   */\n      dup2\n        /* \"#utility.yul\":3110:3126   */\n      swap1\n      pop\n        /* \"#utility.yul\":3055:3132   */\n      swap2\n      swap1\n      pop\n      jump\t// out\n        /* \"#utility.yul\":3138:3260   */\n    tag_185:\n        /* \"#utility.yul\":3211:3235   */\n      tag_284\n        /* \"#utility.yul\":3229:3234   */\n      dup2\n        /* \"#utility.yul\":3211:3235   */\n      tag_184\n      jump\t// in\n    tag_284:\n        /* \"#utility.yul\":3204:3209   */\n      dup2\n        /* \"#utility.yul\":3201:3236   */\n      eq\n        /* \"#utility.yul\":3191:3254   */\n      tag_285\n      jumpi\n        /* \"#utility.yul\":3250:3251   */\n      0x00\n        /* \"#utility.yul\":3247:3248   */\n      dup1\n        /* \"#utility.yul\":3240:3252   */\n      revert\n        /* \"#utility.yul\":3191:3254   */\n    tag_285:\n        /* \"#utility.yul\":3138:3260   */\n      pop\n      jump\t// out\n        /* \"#utility.yul\":3266:3405   */\n    tag_186:\n        /* \"#utility.yul\":3312:3317   */\n      0x00\n        /* \"#utility.yul\":3350:3356   */\n      dup2\n        /* \"#utility.yul\":3337:3357   */\n      calldataload\n        /* \"#utility.yul\":3328:3357   */\n      swap1\n      pop\n        /* \"#utility.yul\":3366:3399   */\n      tag_287\n        /* \"#utility.yul\":3393:3398   */\n      dup2\n        /* \"#utility.yul\":3366:3399   */\n      tag_185\n      jump\t// in\n    tag_287:\n        /* \"#utility.yul\":3266:3405   */\n      swap3\n      swap2\n      pop\n      pop\n      jump\t// out\n        /* \"#utility.yul\":3411:4356   */\n    tag_20:\n        /* \"#utility.yul\":3507:3513   */\n      0x00\n        /* \"#utility.yul\":3515:3521   */\n      dup1\n        /* \"#utility.yul\":3523:3529   */\n      0x00\n        /* \"#utility.yul\":3531:3537   */\n      dup1\n        /* \"#utility.yul\":3580:3583   */\n      0x80\n        /* \"#utility.yul\":3568:3577   */\n      dup6\n        /* \"#utility.yul\":3559:3566   */\n      dup8\n        /* \"#utility.yul\":3555:3578   */\n      sub\n        /* \"#utility.yul\":3551:3584   */\n      slt\n        /* \"#utility.yul\":3548:3668   */\n      iszero\n      tag_289\n      jumpi\n        /* \"#utility.yul\":3587:3666   */\n      tag_290\n      tag_169\n      jump\t// in\n    tag_290:\n        /* \"#utility.yul\":3548:3668   */\n    tag_289:\n        /* \"#utility.yul\":3707:3708   */\n      0x00\n        /* \"#utility.yul\":3732:3785   */\n      tag_291\n        /* \"#utility.yul\":3777:3784   */\n      dup8\n        /* \"#utility.yul\":3768:3774   */\n      dup3\n        /* \"#utility.yul\":3757:3766   */\n      dup9\n        /* \"#utility.yul\":3753:3775   */\n      add\n        /* \"#utility.yul\":3732:3785   */\n      tag_174\n      jump\t// in\n    tag_291:\n        /* \"#utility.yul\":3722:3785   */\n      swap5\n      pop\n        /* \"#utility.yul\":3678:3795   */\n      pop\n        /* \"#utility.yul\":3862:3864   */\n      0x20\n        /* \"#utility.yul\":3851:3860   */\n      dup6\n        /* \"#utility.yul\":3847:3865   */\n      add\n        /* \"#utility.yul\":3834:3866   */\n      calldataload\n        /* \"#utility.yul\":3893:3911   */\n      0xffffffffffffffff\n        /* \"#utility.yul\":3885:3891   */\n      dup2\n        /* \"#utility.yul\":3882:3912   */\n      gt\n        /* \"#utility.yul\":3879:3996   */\n      iszero\n      tag_292\n      jumpi\n        /* \"#utility.yul\":3915:3994   */\n      tag_293\n      tag_170\n      jump\t// in\n    tag_293:\n        /* \"#utility.yul\":3879:3996   */\n    tag_292:\n        /* \"#utility.yul\":4020:4083   */\n      tag_294\n        /* \"#utility.yul\":4075:4082   */\n      dup8\n        /* \"#utility.yul\":4066:4072   */\n      dup3\n        /* \"#utility.yul\":4055:4064   */\n      dup9\n        /* \"#utility.yul\":4051:4073   */\n      add\n        /* \"#utility.yul\":4020:4083   */\n      tag_183\n      jump\t// in\n    tag_294:\n        /* \"#utility.yul\":4010:4083   */\n      swap4\n      pop\n        /* \"#utility.yul\":3805:4093   */\n      pop\n        /* \"#utility.yul\":4132:4134   */\n      0x40\n        /* \"#utility.yul\":4158:4211   */\n      tag_295\n        /* \"#utility.yul\":4203:4210   */\n      dup8\n        /* \"#utility.yul\":4194:4200   */\n      dup3\n        /* \"#utility.yul\":4183:4192   */\n      dup9\n        /* \"#utility.yul\":4179:4201   */\n      add\n        /* \"#utility.yul\":4158:4211   */\n      tag_186\n      jump\t// in\n    tag_295:\n        /* \"#utility.yul\":4148:4211   */\n      swap3\n      pop\n        /* \"#utility.yul\":4103:4221   */\n      pop\n        /* \"#utility.yul\":4260:4262   */\n      0x60\n        /* \"#utility.yul\":4286:4339   */\n      tag_296\n        /* \"#utility.yul\":4331:4338   */\n      dup8\n        /* \"#utility.yul\":4322:4328   */\n      dup3\n        /* \"#utility.yul\":4311:4320   */\n      dup9\n        /* \"#utility.yul\":4307:4329   */\n      add\n        /* \"#utility.yul\":4286:4339   */\n      tag_186\n      jump\t// in\n    tag_296:\n        /* \"#utility.yul\":4276:4339   */\n      swap2\n      pop\n        /* \"#utility.yul\":4231:4349   */\n      pop\n        /* \"#utility.yul\":3411:4356   */\n      swap3\n      swap6\n      swap2\n      swap5\n      pop\n      swap3\n      pop\n      jump\t// out\n        /* \"#utility.yul\":4362:4439   */\n    tag_187:\n        /* \"#utility.yul\":4399:4406   */\n      0x00\n        /* \"#utility.yul\":4428:4433   */\n      dup2\n        /* \"#utility.yul\":4417:4433   */\n      swap1\n      pop\n        /* \"#utility.yul\":4362:4439   */\n      swap2\n      swap1\n      pop\n      jump\t// out\n        /* \"#utility.yul\":4445:4563   */\n    tag_188:\n        /* \"#utility.yul\":4532:4556   */\n      tag_299\n        /* \"#utility.yul\":4550:4555   */\n      dup2\n        /* \"#utility.yul\":4532:4556   */\n      tag_187\n      jump\t// in\n    tag_299:\n        /* \"#utility.yul\":4527:4530   */\n      dup3\n        /* \"#utility.yul\":4520:4557   */\n      mstore\n        /* \"#utility.yul\":4445:4563   */\n      pop\n      pop\n      jump\t// out\n        /* \"#utility.yul\":4569:4791   */\n    tag_23:\n        /* \"#utility.yul\":4662:4666   */\n      0x00\n        /* \"#utility.yul\":4700:4702   */\n      0x20\n        /* \"#utility.yul\":4689:4698   */\n      dup3\n        /* \"#utility.yul\":4685:4703   */\n      add\n        /* \"#utility.yul\":4677:4703   */\n      swap1\n      pop\n        /* \"#utility.yul\":4713:4784   */\n      tag_301\n        /* \"#utility.yul\":4781:4782   */\n      0x00\n        /* \"#utility.yul\":4770:4779   */\n      dup4\n        /* \"#utility.yul\":4766:4783   */\n      add\n        /* \"#utility.yul\":4757:4763   */\n      dup5\n        /* \"#utility.yul\":4713:4784   */\n      tag_188\n      jump\t// in\n    tag_301:\n        /* \"#utility.yul\":4569:4791   */\n      swap3\n      swap2\n      pop\n      pop\n      jump\t// out\n        /* \"#utility.yul\":4797:4886   */\n    tag_189:\n        /* \"#utility.yul\":4833:4840   */\n      0x00\n        /* \"#utility.yul\":4873:4879   */\n      0xffff\n        /* \"#utility.yul\":4866:4871   */\n      dup3\n        /* \"#utility.yul\":4862:4880   */\n      and\n        /* \"#utility.yul\":4851:4880   */\n      swap1\n      pop\n        /* \"#utility.yul\":4797:4886   */\n      swap2\n      swap1\n      pop\n      jump\t// out\n        /* \"#utility.yul\":4892:5012   */\n    tag_190:\n        /* \"#utility.yul\":4964:4987   */\n      tag_304\n        /* \"#utility.yul\":4981:4986   */\n      dup2\n        /* \"#utility.yul\":4964:4987   */\n      tag_189\n      jump\t// in\n    tag_304:\n        /* \"#utility.yul\":4957:4962   */\n      dup2\n        /* \"#utility.yul\":4954:4988   */\n      eq\n        /* \"#utility.yul\":4944:5006   */\n      tag_305\n      jumpi\n        /* \"#utility.yul\":5002:5003   */\n      0x00\n        /* \"#utility.yul\":4999:5000   */\n      dup1\n        /* \"#utility.yul\":4992:5004   */\n      revert\n        /* \"#utility.yul\":4944:5006   */\n    tag_305:\n        /* \"#utility.yul\":4892:5012   */\n      pop\n      jump\t// out\n        /* \"#utility.yul\":5018:5155   */\n    tag_191:\n        /* \"#utility.yul\":5063:5068   */\n      0x00\n        /* \"#utility.yul\":5101:5107   */\n      dup2\n        /* \"#utility.yul\":5088:5108   */\n      calldataload\n        /* \"#utility.yul\":5079:5108   */\n      swap1\n      pop\n        /* \"#utility.yul\":5117:5149   */\n      tag_307\n        /* \"#utility.yul\":5143:5148   */\n      dup2\n        /* \"#utility.yul\":5117:5149   */\n      tag_190\n      jump\t// in\n    tag_307:\n        /* \"#utility.yul\":5018:5155   */\n      swap3\n      swap2\n      pop\n      pop\n      jump\t// out\n        /* \"#utility.yul\":5161:5813   */\n    tag_27:\n        /* \"#utility.yul\":5238:5244   */\n      0x00\n        /* \"#utility.yul\":5246:5252   */\n      dup1\n        /* \"#utility.yul\":5295:5297   */\n      0x40\n        /* \"#utility.yul\":5283:5292   */\n      dup4\n        /* \"#utility.yul\":5274:5281   */\n      dup6\n        /* \"#utility.yul\":5270:5293   */\n      sub\n        /* \"#utility.yul\":5266:5298   */\n      slt\n        /* \"#utility.yul\":5263:5382   */\n      iszero\n      tag_309\n      jumpi\n        /* \"#utility.yul\":5301:5380   */\n      tag_310\n      tag_169\n      jump\t// in\n    tag_310:\n        /* \"#utility.yul\":5263:5382   */\n    tag_309:\n        /* \"#utility.yul\":5449:5450   */\n      0x00\n        /* \"#utility.yul\":5438:5447   */\n      dup4\n        /* \"#utility.yul\":5434:5451   */\n      add\n        /* \"#utility.yul\":5421:5452   */\n      calldataload\n        /* \"#utility.yul\":5479:5497   */\n      0xffffffffffffffff\n        /* \"#utility.yul\":5471:5477   */\n      dup2\n        /* \"#utility.yul\":5468:5498   */\n      gt\n        /* \"#utility.yul\":5465:5582   */\n      iszero\n      tag_311\n      jumpi\n        /* \"#utility.yul\":5501:5580   */\n      tag_312\n      tag_170\n      jump\t// in\n    tag_312:\n        /* \"#utility.yul\":5465:5582   */\n    tag_311:\n        /* \"#utility.yul\":5606:5669   */\n      tag_313\n        /* \"#utility.yul\":5661:5668   */\n      dup6\n        /* \"#utility.yul\":5652:5658   */\n      dup3\n        /* \"#utility.yul\":5641:5650   */\n      dup7\n        /* \"#utility.yul\":5637:5659   */\n      add\n        /* \"#utility.yul\":5606:5669   */\n      tag_183\n      jump\t// in\n    tag_313:\n        /* \"#utility.yul\":5596:5669   */\n      swap3\n      pop\n        /* \"#utility.yul\":5392:5679   */\n      pop\n        /* \"#utility.yul\":5718:5720   */\n      0x20\n        /* \"#utility.yul\":5744:5796   */\n      tag_314\n        /* \"#utility.yul\":5788:5795   */\n      dup6\n        /* \"#utility.yul\":5779:5785   */\n      dup3\n        /* \"#utility.yul\":5768:5777   */\n      dup7\n        /* \"#utility.yul\":5764:5786   */\n      add\n        /* \"#utility.yul\":5744:5796   */\n      tag_191\n      jump\t// in\n    tag_314:\n        /* \"#utility.yul\":5734:5796   */\n      swap2\n      pop\n        /* \"#utility.yul\":5689:5806   */\n      pop\n        /* \"#utility.yul\":5161:5813   */\n      swap3\n      pop\n      swap3\n      swap1\n      pop\n      jump\t// out\n        /* \"#utility.yul\":5819:5918   */\n    tag_192:\n        /* \"#utility.yul\":5871:5877   */\n      0x00\n        /* \"#utility.yul\":5905:5910   */\n      dup2\n        /* \"#utility.yul\":5899:5911   */\n      mload\n        /* \"#utility.yul\":5889:5911   */\n      swap1\n      pop\n        /* \"#utility.yul\":5819:5918   */\n      swap2\n      swap1\n      pop\n      jump\t// out\n        /* \"#utility.yul\":5924:6093   */\n    tag_193:\n        /* \"#utility.yul\":6008:6019   */\n      0x00\n        /* \"#utility.yul\":6042:6048   */\n      dup3\n        /* \"#utility.yul\":6037:6040   */\n      dup3\n        /* \"#utility.yul\":6030:6049   */\n      mstore\n        /* \"#utility.yul\":6082:6086   */\n      0x20\n        /* \"#utility.yul\":6077:6080   */\n      dup3\n        /* \"#utility.yul\":6073:6087   */\n      add\n        /* \"#utility.yul\":6058:6087   */\n      swap1\n      pop\n        /* \"#utility.yul\":5924:6093   */\n      swap3\n      swap2\n      pop\n      pop\n      jump\t// out\n        /* \"#utility.yul\":6099:6406   */\n    tag_194:\n        /* \"#utility.yul\":6167:6168   */\n      0x00\n        /* \"#utility.yul\":6177:6290   */\n    tag_318:\n        /* \"#utility.yul\":6191:6197   */\n      dup4\n        /* \"#utility.yul\":6188:6189   */\n      dup2\n        /* \"#utility.yul\":6185:6198   */\n      lt\n        /* \"#utility.yul\":6177:6290   */\n      iszero\n      tag_320\n      jumpi\n        /* \"#utility.yul\":6276:6277   */\n      dup1\n        /* \"#utility.yul\":6271:6274   */\n      dup3\n        /* \"#utility.yul\":6267:6278   */\n      add\n        /* \"#utility.yul\":6261:6279   */\n      mload\n        /* \"#utility.yul\":6257:6258   */\n      dup2\n        /* \"#utility.yul\":6252:6255   */\n      dup5\n        /* \"#utility.yul\":6248:6259   */\n      add\n        /* \"#utility.yul\":6241:6280   */\n      mstore\n        /* \"#utility.yul\":6213:6215   */\n      0x20\n        /* \"#utility.yul\":6210:6211   */\n      dup2\n        /* \"#utility.yul\":6206:6216   */\n      add\n        /* \"#utility.yul\":6201:6216   */\n      swap1\n      pop\n        /* \"#utility.yul\":6177:6290   */\n      jump(tag_318)\n    tag_320:\n        /* \"#utility.yul\":6308:6314   */\n      dup4\n        /* \"#utility.yul\":6305:6306   */\n      dup2\n        /* \"#utility.yul\":6302:6315   */\n      gt\n        /* \"#utility.yul\":6299:6400   */\n      iszero\n      tag_321\n      jumpi\n        /* \"#utility.yul\":6388:6389   */\n      0x00\n        /* \"#utility.yul\":6379:6385   */\n      dup5\n        /* \"#utility.yul\":6374:6377   */\n      dup5\n        /* \"#utility.yul\":6370:6386   */\n      add\n        /* \"#utility.yul\":6363:6390   */\n      mstore\n        /* \"#utility.yul\":6299:6400   */\n    tag_321:\n        /* \"#utility.yul\":6148:6406   */\n      pop\n        /* \"#utility.yul\":6099:6406   */\n      pop\n      pop\n      pop\n      jump\t// out\n        /* \"#utility.yul\":6412:6776   */\n    tag_195:\n        /* \"#utility.yul\":6500:6503   */\n      0x00\n        /* \"#utility.yul\":6528:6567   */\n      tag_323\n        /* \"#utility.yul\":6561:6566   */\n      dup3\n        /* \"#utility.yul\":6528:6567   */\n      tag_192\n      jump\t// in\n    tag_323:\n        /* \"#utility.yul\":6583:6654   */\n      tag_324\n        /* \"#utility.yul\":6647:6653   */\n      dup2\n        /* \"#utility.yul\":6642:6645   */\n      dup6\n        /* \"#utility.yul\":6583:6654   */\n      tag_193\n      jump\t// in\n    tag_324:\n        /* \"#utility.yul\":6576:6654   */\n      swap4\n      pop\n        /* \"#utility.yul\":6663:6715   */\n      tag_325\n        /* \"#utility.yul\":6708:6714   */\n      dup2\n        /* \"#utility.yul\":6703:6706   */\n      dup6\n        /* \"#utility.yul\":6696:6700   */\n      0x20\n        /* \"#utility.yul\":6689:6694   */\n      dup7\n        /* \"#utility.yul\":6685:6701   */\n      add\n        /* \"#utility.yul\":6663:6715   */\n      tag_194\n      jump\t// in\n    tag_325:\n        /* \"#utility.yul\":6740:6769   */\n      tag_326\n        /* \"#utility.yul\":6762:6768   */\n      dup2\n        /* \"#utility.yul\":6740:6769   */\n      tag_177\n      jump\t// in\n    tag_326:\n        /* \"#utility.yul\":6735:6738   */\n      dup5\n        /* \"#utility.yul\":6731:6770   */\n      add\n        /* \"#utility.yul\":6724:6770   */\n      swap2\n      pop\n        /* \"#utility.yul\":6504:6776   */\n      pop\n        /* \"#utility.yul\":6412:6776   */\n      swap3\n      swap2\n      pop\n      pop\n      jump\t// out\n        /* \"#utility.yul\":6782:6900   */\n    tag_196:\n        /* \"#utility.yul\":6869:6893   */\n      tag_328\n        /* \"#utility.yul\":6887:6892   */\n      dup2\n        /* \"#utility.yul\":6869:6893   */\n      tag_184\n      jump\t// in\n    tag_328:\n        /* \"#utility.yul\":6864:6867   */\n      dup3\n        /* \"#utility.yul\":6857:6894   */\n      mstore\n        /* \"#utility.yul\":6782:6900   */\n      pop\n      pop\n      jump\t// out\n        /* \"#utility.yul\":6906:7329   */\n    tag_30:\n        /* \"#utility.yul\":7047:7051   */\n      0x00\n        /* \"#utility.yul\":7085:7087   */\n      0x40\n        /* \"#utility.yul\":7074:7083   */\n      dup3\n        /* \"#utility.yul\":7070:7088   */\n      add\n        /* \"#utility.yul\":7062:7088   */\n      swap1\n      pop\n        /* \"#utility.yul\":7134:7143   */\n      dup2\n        /* \"#utility.yul\":7128:7132   */\n      dup2\n        /* \"#utility.yul\":7124:7144   */\n      sub\n        /* \"#utility.yul\":7120:7121   */\n      0x00\n        /* \"#utility.yul\":7109:7118   */\n      dup4\n        /* \"#utility.yul\":7105:7122   */\n      add\n        /* \"#utility.yul\":7098:7145   */\n      mstore\n        /* \"#utility.yul\":7162:7240   */\n      tag_330\n        /* \"#utility.yul\":7235:7239   */\n      dup2\n        /* \"#utility.yul\":7226:7232   */\n      dup6\n        /* \"#utility.yul\":7162:7240   */\n      tag_195\n      jump\t// in\n    tag_330:\n        /* \"#utility.yul\":7154:7240   */\n      swap1\n      pop\n        /* \"#utility.yul\":7250:7322   */\n      tag_331\n        /* \"#utility.yul\":7318:7320   */\n      0x20\n        /* \"#utility.yul\":7307:7316   */\n      dup4\n        /* \"#utility.yul\":7303:7321   */\n      add\n        /* \"#utility.yul\":7294:7300   */\n      dup5\n        /* \"#utility.yul\":7250:7322   */\n      tag_196\n      jump\t// in\n    tag_331:\n        /* \"#utility.yul\":6906:7329   */\n      swap4\n      swap3\n      pop\n      pop\n      pop\n      jump\t// out\n        /* \"#utility.yul\":7335:7989   */\n    tag_34:\n        /* \"#utility.yul\":7413:7419   */\n      0x00\n        /* \"#utility.yul\":7421:7427   */\n      dup1\n        /* \"#utility.yul\":7470:7472   */\n      0x40\n        /* \"#utility.yul\":7458:7467   */\n      dup4\n        /* \"#utility.yul\":7449:7456   */\n      dup6\n        /* \"#utility.yul\":7445:7468   */\n      sub\n        /* \"#utility.yul\":7441:7473   */\n      slt\n        /* \"#utility.yul\":7438:7557   */\n      iszero\n      tag_333\n      jumpi\n        /* \"#utility.yul\":7476:7555   */\n      tag_334\n      tag_169\n      jump\t// in\n    tag_334:\n        /* \"#utility.yul\":7438:7557   */\n    tag_333:\n        /* \"#utility.yul\":7596:7597   */\n      0x00\n        /* \"#utility.yul\":7621:7674   */\n      tag_335\n        /* \"#utility.yul\":7666:7673   */\n      dup6\n        /* \"#utility.yul\":7657:7663   */\n      dup3\n        /* \"#utility.yul\":7646:7655   */\n      dup7\n        /* \"#utility.yul\":7642:7664   */\n      add\n        /* \"#utility.yul\":7621:7674   */\n      tag_174\n      jump\t// in\n    tag_335:\n        /* \"#utility.yul\":7611:7674   */\n      swap3\n      pop\n        /* \"#utility.yul\":7567:7684   */\n      pop\n        /* \"#utility.yul\":7751:7753   */\n      0x20\n        /* \"#utility.yul\":7740:7749   */\n      dup4\n        /* \"#utility.yul\":7736:7754   */\n      add\n        /* \"#utility.yul\":7723:7755   */\n      calldataload\n        /* \"#utility.yul\":7782:7800   */\n      0xffffffffffffffff\n        /* \"#utility.yul\":7774:7780   */\n      dup2\n        /* \"#utility.yul\":7771:7801   */\n      gt\n        /* \"#utility.yul\":7768:7885   */\n      iszero\n      tag_336\n      jumpi\n        /* \"#utility.yul\":7804:7883   */\n      tag_337\n      tag_170\n      jump\t// in\n    tag_337:\n        /* \"#utility.yul\":7768:7885   */\n    tag_336:\n        /* \"#utility.yul\":7909:7972   */\n      tag_338\n        /* \"#utility.yul\":7964:7971   */\n      dup6\n        /* \"#utility.yul\":7955:7961   */\n      dup3\n        /* \"#utility.yul\":7944:7953   */\n      dup7\n        /* \"#utility.yul\":7940:7962   */\n      add\n        /* \"#utility.yul\":7909:7972   */\n      tag_183\n      jump\t// in\n    tag_338:\n        /* \"#utility.yul\":7899:7972   */\n      swap2\n      pop\n        /* \"#utility.yul\":7694:7982   */\n      pop\n        /* \"#utility.yul\":7335:7989   */\n      swap3\n      pop\n      swap3\n      swap1\n      pop\n      jump\t// out\n        /* \"#utility.yul\":7995:8504   */\n    tag_39:\n        /* \"#utility.yul\":8064:8070   */\n      0x00\n        /* \"#utility.yul\":8113:8115   */\n      0x20\n        /* \"#utility.yul\":8101:8110   */\n      dup3\n        /* \"#utility.yul\":8092:8099   */\n      dup5\n        /* \"#utility.yul\":8088:8111   */\n      sub\n        /* \"#utility.yul\":8084:8116   */\n      slt\n        /* \"#utility.yul\":8081:8200   */\n      iszero\n      tag_340\n      jumpi\n        /* \"#utility.yul\":8119:8198   */\n      tag_341\n      tag_169\n      jump\t// in\n    tag_341:\n        /* \"#utility.yul\":8081:8200   */\n    tag_340:\n        /* \"#utility.yul\":8267:8268   */\n      0x00\n        /* \"#utility.yul\":8256:8265   */\n      dup3\n        /* \"#utility.yul\":8252:8269   */\n      add\n        /* \"#utility.yul\":8239:8270   */\n      calldataload\n        /* \"#utility.yul\":8297:8315   */\n      0xffffffffffffffff\n        /* \"#utility.yul\":8289:8295   */\n      dup2\n        /* \"#utility.yul\":8286:8316   */\n      gt\n        /* \"#utility.yul\":8283:8400   */\n      iszero\n      tag_342\n      jumpi\n        /* \"#utility.yul\":8319:8398   */\n      tag_343\n      tag_170\n      jump\t// in\n    tag_343:\n        /* \"#utility.yul\":8283:8400   */\n    tag_342:\n        /* \"#utility.yul\":8424:8487   */\n      tag_344\n        /* \"#utility.yul\":8479:8486   */\n      dup5\n        /* \"#utility.yul\":8470:8476   */\n      dup3\n        /* \"#utility.yul\":8459:8468   */\n      dup6\n        /* \"#utility.yul\":8455:8477   */\n      add\n        /* \"#utility.yul\":8424:8487   */\n      tag_183\n      jump\t// in\n    tag_344:\n        /* \"#utility.yul\":8414:8487   */\n      swap2\n      pop\n        /* \"#utility.yul\":8210:8497   */\n      pop\n        /* \"#utility.yul\":7995:8504   */\n      swap3\n      swap2\n      pop\n      pop\n      jump\t// out\n        /* \"#utility.yul\":8510:8628   */\n    tag_197:\n        /* \"#utility.yul\":8597:8621   */\n      tag_346\n        /* \"#utility.yul\":8615:8620   */\n      dup2\n        /* \"#utility.yul\":8597:8621   */\n      tag_172\n      jump\t// in\n    tag_346:\n        /* \"#utility.yul\":8592:8595   */\n      dup3\n        /* \"#utility.yul\":8585:8622   */\n      mstore\n        /* \"#utility.yul\":8510:8628   */\n      pop\n      pop\n      jump\t// out\n        /* \"#utility.yul\":8634:8966   */\n    tag_42:\n        /* \"#utility.yul\":8755:8759   */\n      0x00\n        /* \"#utility.yul\":8793:8795   */\n      0x40\n        /* \"#utility.yul\":8782:8791   */\n      dup3\n        /* \"#utility.yul\":8778:8796   */\n      add\n        /* \"#utility.yul\":8770:8796   */\n      swap1\n      pop\n        /* \"#utility.yul\":8806:8877   */\n      tag_348\n        /* \"#utility.yul\":8874:8875   */\n      0x00\n        /* \"#utility.yul\":8863:8872   */\n      dup4\n        /* \"#utility.yul\":8859:8876   */\n      add\n        /* \"#utility.yul\":8850:8856   */\n      dup6\n        /* \"#utility.yul\":8806:8877   */\n      tag_196\n      jump\t// in\n    tag_348:\n        /* \"#utility.yul\":8887:8959   */\n      tag_349\n        /* \"#utility.yul\":8955:8957   */\n      0x20\n        /* \"#utility.yul\":8944:8953   */\n      dup4\n        /* \"#utility.yul\":8940:8958   */\n      add\n        /* \"#utility.yul\":8931:8937   */\n      dup5\n        /* \"#utility.yul\":8887:8959   */\n      tag_197\n      jump\t// in\n    tag_349:\n        /* \"#utility.yul\":8634:8966   */\n      swap4\n      swap3\n      pop\n      pop\n      pop\n      jump\t// out\n        /* \"#utility.yul\":8972:9086   */\n    tag_198:\n        /* \"#utility.yul\":9039:9045   */\n      0x00\n        /* \"#utility.yul\":9073:9078   */\n      dup2\n        /* \"#utility.yul\":9067:9079   */\n      mload\n        /* \"#utility.yul\":9057:9079   */\n      swap1\n      pop\n        /* \"#utility.yul\":8972:9086   */\n      swap2\n      swap1\n      pop\n      jump\t// out\n        /* \"#utility.yul\":9092:9276   */\n    tag_199:\n        /* \"#utility.yul\":9191:9202   */\n      0x00\n        /* \"#utility.yul\":9225:9231   */\n      dup3\n        /* \"#utility.yul\":9220:9223   */\n      dup3\n        /* \"#utility.yul\":9213:9232   */\n      mstore\n        /* \"#utility.yul\":9265:9269   */\n      0x20\n        /* \"#utility.yul\":9260:9263   */\n      dup3\n        /* \"#utility.yul\":9256:9270   */\n      add\n        /* \"#utility.yul\":9241:9270   */\n      swap1\n      pop\n        /* \"#utility.yul\":9092:9276   */\n      swap3\n      swap2\n      pop\n      pop\n      jump\t// out\n        /* \"#utility.yul\":9282:9414   */\n    tag_200:\n        /* \"#utility.yul\":9349:9353   */\n      0x00\n        /* \"#utility.yul\":9372:9375   */\n      dup2\n        /* \"#utility.yul\":9364:9375   */\n      swap1\n      pop\n        /* \"#utility.yul\":9402:9406   */\n      0x20\n        /* \"#utility.yul\":9397:9400   */\n      dup3\n        /* \"#utility.yul\":9393:9407   */\n      add\n        /* \"#utility.yul\":9385:9407   */\n      swap1\n      pop\n        /* \"#utility.yul\":9282:9414   */\n      swap2\n      swap1\n      pop\n      jump\t// out\n        /* \"#utility.yul\":9420:9528   */\n    tag_201:\n        /* \"#utility.yul\":9497:9521   */\n      tag_354\n        /* \"#utility.yul\":9515:9520   */\n      dup2\n        /* \"#utility.yul\":9497:9521   */\n      tag_184\n      jump\t// in\n    tag_354:\n        /* \"#utility.yul\":9492:9495   */\n      dup3\n        /* \"#utility.yul\":9485:9522   */\n      mstore\n        /* \"#utility.yul\":9420:9528   */\n      pop\n      pop\n      jump\t// out\n        /* \"#utility.yul\":9534:9713   */\n    tag_202:\n        /* \"#utility.yul\":9603:9613   */\n      0x00\n        /* \"#utility.yul\":9624:9670   */\n      tag_356\n        /* \"#utility.yul\":9666:9669   */\n      dup4\n        /* \"#utility.yul\":9658:9664   */\n      dup4\n        /* \"#utility.yul\":9624:9670   */\n      tag_201\n      jump\t// in\n    tag_356:\n        /* \"#utility.yul\":9702:9706   */\n      0x20\n        /* \"#utility.yul\":9697:9700   */\n      dup4\n        /* \"#utility.yul\":9693:9707   */\n      add\n        /* \"#utility.yul\":9679:9707   */\n      swap1\n      pop\n        /* \"#utility.yul\":9534:9713   */\n      swap3\n      swap2\n      pop\n      pop\n      jump\t// out\n        /* \"#utility.yul\":9719:9832   */\n    tag_203:\n        /* \"#utility.yul\":9789:9793   */\n      0x00\n        /* \"#utility.yul\":9821:9825   */\n      0x20\n        /* \"#utility.yul\":9816:9819   */\n      dup3\n        /* \"#utility.yul\":9812:9826   */\n      add\n        /* \"#utility.yul\":9804:9826   */\n      swap1\n      pop\n        /* \"#utility.yul\":9719:9832   */\n      swap2\n      swap1\n      pop\n      jump\t// out\n        /* \"#utility.yul\":9868:10600   */\n    tag_204:\n        /* \"#utility.yul\":9987:9990   */\n      0x00\n        /* \"#utility.yul\":10016:10070   */\n      tag_359\n        /* \"#utility.yul\":10064:10069   */\n      dup3\n        /* \"#utility.yul\":10016:10070   */\n      tag_198\n      jump\t// in\n    tag_359:\n        /* \"#utility.yul\":10086:10172   */\n      tag_360\n        /* \"#utility.yul\":10165:10171   */\n      dup2\n        /* \"#utility.yul\":10160:10163   */\n      dup6\n        /* \"#utility.yul\":10086:10172   */\n      tag_199\n      jump\t// in\n    tag_360:\n        /* \"#utility.yul\":10079:10172   */\n      swap4\n      pop\n        /* \"#utility.yul\":10196:10252   */\n      tag_361\n        /* \"#utility.yul\":10246:10251   */\n      dup4\n        /* \"#utility.yul\":10196:10252   */\n      tag_200\n      jump\t// in\n    tag_361:\n        /* \"#utility.yul\":10275:10282   */\n      dup1\n        /* \"#utility.yul\":10306:10307   */\n      0x00\n        /* \"#utility.yul\":10291:10575   */\n    tag_362:\n        /* \"#utility.yul\":10316:10322   */\n      dup4\n        /* \"#utility.yul\":10313:10314   */\n      dup2\n        /* \"#utility.yul\":10310:10323   */\n      lt\n        /* \"#utility.yul\":10291:10575   */\n      iszero\n      tag_364\n      jumpi\n        /* \"#utility.yul\":10392:10398   */\n      dup2\n        /* \"#utility.yul\":10386:10399   */\n      mload\n        /* \"#utility.yul\":10419:10482   */\n      tag_365\n        /* \"#utility.yul\":10478:10481   */\n      dup9\n        /* \"#utility.yul\":10463:10476   */\n      dup3\n        /* \"#utility.yul\":10419:10482   */\n      tag_202\n      jump\t// in\n    tag_365:\n        /* \"#utility.yul\":10412:10482   */\n      swap8\n      pop\n        /* \"#utility.yul\":10505:10565   */\n      tag_366\n        /* \"#utility.yul\":10558:10564   */\n      dup4\n        /* \"#utility.yul\":10505:10565   */\n      tag_203\n      jump\t// in\n    tag_366:\n        /* \"#utility.yul\":10495:10565   */\n      swap3\n      pop\n        /* \"#utility.yul\":10351:10575   */\n      pop\n        /* \"#utility.yul\":10338:10339   */\n      0x01\n        /* \"#utility.yul\":10335:10336   */\n      dup2\n        /* \"#utility.yul\":10331:10340   */\n      add\n        /* \"#utility.yul\":10326:10340   */\n      swap1\n      pop\n        /* \"#utility.yul\":10291:10575   */\n      jump(tag_362)\n    tag_364:\n        /* \"#utility.yul\":10295:10309   */\n      pop\n        /* \"#utility.yul\":10591:10594   */\n      dup6\n        /* \"#utility.yul\":10584:10594   */\n      swap4\n      pop\n        /* \"#utility.yul\":9992:10600   */\n      pop\n      pop\n      pop\n        /* \"#utility.yul\":9868:10600   */\n      swap3\n      swap2\n      pop\n      pop\n      jump\t// out\n        /* \"#utility.yul\":10606:11199   */\n    tag_48:\n        /* \"#utility.yul\":10805:10809   */\n      0x00\n        /* \"#utility.yul\":10843:10845   */\n      0x60\n        /* \"#utility.yul\":10832:10841   */\n      dup3\n        /* \"#utility.yul\":10828:10846   */\n      add\n        /* \"#utility.yul\":10820:10846   */\n      swap1\n      pop\n        /* \"#utility.yul\":10892:10901   */\n      dup2\n        /* \"#utility.yul\":10886:10890   */\n      dup2\n        /* \"#utility.yul\":10882:10902   */\n      sub\n        /* \"#utility.yul\":10878:10879   */\n      0x00\n        /* \"#utility.yul\":10867:10876   */\n      dup4\n        /* \"#utility.yul\":10863:10880   */\n      add\n        /* \"#utility.yul\":10856:10903   */\n      mstore\n        /* \"#utility.yul\":10920:11028   */\n      tag_368\n        /* \"#utility.yul\":11023:11027   */\n      dup2\n        /* \"#utility.yul\":11014:11020   */\n      dup7\n        /* \"#utility.yul\":10920:11028   */\n      tag_204\n      jump\t// in\n    tag_368:\n        /* \"#utility.yul\":10912:11028   */\n      swap1\n      pop\n        /* \"#utility.yul\":11038:11110   */\n      tag_369\n        /* \"#utility.yul\":11106:11108   */\n      0x20\n        /* \"#utility.yul\":11095:11104   */\n      dup4\n        /* \"#utility.yul\":11091:11109   */\n      add\n        /* \"#utility.yul\":11082:11088   */\n      dup6\n        /* \"#utility.yul\":11038:11110   */\n      tag_197\n      jump\t// in\n    tag_369:\n        /* \"#utility.yul\":11120:11192   */\n      tag_370\n        /* \"#utility.yul\":11188:11190   */\n      0x40\n        /* \"#utility.yul\":11177:11186   */\n      dup4\n        /* \"#utility.yul\":11173:11191   */\n      add\n        /* \"#utility.yul\":11164:11170   */\n      dup5\n        /* \"#utility.yul\":11120:11192   */\n      tag_196\n      jump\t// in\n    tag_370:\n        /* \"#utility.yul\":10606:11199   */\n      swap5\n      swap4\n      pop\n      pop\n      pop\n      pop\n      jump\t// out\n        /* \"#utility.yul\":11205:11298   */\n    tag_205:\n        /* \"#utility.yul\":11241:11248   */\n      0x00\n        /* \"#utility.yul\":11281:11291   */\n      0xffffffff\n        /* \"#utility.yul\":11274:11279   */\n      dup3\n        /* \"#utility.yul\":11270:11292   */\n      and\n        /* \"#utility.yul\":11259:11292   */\n      swap1\n      pop\n        /* \"#utility.yul\":11205:11298   */\n      swap2\n      swap1\n      pop\n      jump\t// out\n        /* \"#utility.yul\":11304:11419   */\n    tag_206:\n        /* \"#utility.yul\":11389:11412   */\n      tag_373\n        /* \"#utility.yul\":11406:11411   */\n      dup2\n        /* \"#utility.yul\":11389:11412   */\n      tag_205\n      jump\t// in\n    tag_373:\n        /* \"#utility.yul\":11384:11387   */\n      dup3\n        /* \"#utility.yul\":11377:11413   */\n      mstore\n        /* \"#utility.yul\":11304:11419   */\n      pop\n      pop\n      jump\t// out\n        /* \"#utility.yul\":11425:11526   */\n    tag_207:\n        /* \"#utility.yul\":11461:11468   */\n      0x00\n        /* \"#utility.yul\":11501:11519   */\n      0xffffffffffffffff\n        /* \"#utility.yul\":11494:11499   */\n      dup3\n        /* \"#utility.yul\":11490:11520   */\n      and\n        /* \"#utility.yul\":11479:11520   */\n      swap1\n      pop\n        /* \"#utility.yul\":11425:11526   */\n      swap2\n      swap1\n      pop\n      jump\t// out\n        /* \"#utility.yul\":11532:11647   */\n    tag_208:\n        /* \"#utility.yul\":11617:11640   */\n      tag_376\n        /* \"#utility.yul\":11634:11639   */\n      dup2\n        /* \"#utility.yul\":11617:11640   */\n      tag_207\n      jump\t// in\n    tag_376:\n        /* \"#utility.yul\":11612:11615   */\n      dup3\n        /* \"#utility.yul\":11605:11641   */\n      mstore\n        /* \"#utility.yul\":11532:11647   */\n      pop\n      pop\n      jump\t// out\n        /* \"#utility.yul\":11653:11768   */\n    tag_209:\n        /* \"#utility.yul\":11738:11761   */\n      tag_378\n        /* \"#utility.yul\":11755:11760   */\n      dup2\n        /* \"#utility.yul\":11738:11761   */\n      tag_189\n      jump\t// in\n    tag_378:\n        /* \"#utility.yul\":11733:11736   */\n      dup3\n        /* \"#utility.yul\":11726:11762   */\n      mstore\n        /* \"#utility.yul\":11653:11768   */\n      pop\n      pop\n      jump\t// out\n        /* \"#utility.yul\":11774:11864   */\n    tag_210:\n        /* \"#utility.yul\":11808:11815   */\n      0x00\n        /* \"#utility.yul\":11851:11856   */\n      dup2\n        /* \"#utility.yul\":11844:11857   */\n      iszero\n        /* \"#utility.yul\":11837:11858   */\n      iszero\n        /* \"#utility.yul\":11826:11858   */\n      swap1\n      pop\n        /* \"#utility.yul\":11774:11864   */\n      swap2\n      swap1\n      pop\n      jump\t// out\n        /* \"#utility.yul\":11870:11979   */\n    tag_211:\n        /* \"#utility.yul\":11951:11972   */\n      tag_381\n        /* \"#utility.yul\":11966:11971   */\n      dup2\n        /* \"#utility.yul\":11951:11972   */\n      tag_210\n      jump\t// in\n    tag_381:\n        /* \"#utility.yul\":11946:11949   */\n      dup3\n        /* \"#utility.yul\":11939:11973   */\n      mstore\n        /* \"#utility.yul\":11870:11979   */\n      pop\n      pop\n      jump\t// out\n        /* \"#utility.yul\":11985:12732   */\n    tag_58:\n        /* \"#utility.yul\":12204:12208   */\n      0x00\n        /* \"#utility.yul\":12242:12245   */\n      0xc0\n        /* \"#utility.yul\":12231:12240   */\n      dup3\n        /* \"#utility.yul\":12227:12246   */\n      add\n        /* \"#utility.yul\":12219:12246   */\n      swap1\n      pop\n        /* \"#utility.yul\":12256:12327   */\n      tag_383\n        /* \"#utility.yul\":12324:12325   */\n      0x00\n        /* \"#utility.yul\":12313:12322   */\n      dup4\n        /* \"#utility.yul\":12309:12326   */\n      add\n        /* \"#utility.yul\":12300:12306   */\n      dup10\n        /* \"#utility.yul\":12256:12327   */\n      tag_197\n      jump\t// in\n    tag_383:\n        /* \"#utility.yul\":12337:12407   */\n      tag_384\n        /* \"#utility.yul\":12403:12405   */\n      0x20\n        /* \"#utility.yul\":12392:12401   */\n      dup4\n        /* \"#utility.yul\":12388:12406   */\n      add\n        /* \"#utility.yul\":12379:12385   */\n      dup9\n        /* \"#utility.yul\":12337:12407   */\n      tag_206\n      jump\t// in\n    tag_384:\n        /* \"#utility.yul\":12417:12487   */\n      tag_385\n        /* \"#utility.yul\":12483:12485   */\n      0x40\n        /* \"#utility.yul\":12472:12481   */\n      dup4\n        /* \"#utility.yul\":12468:12486   */\n      add\n        /* \"#utility.yul\":12459:12465   */\n      dup8\n        /* \"#utility.yul\":12417:12487   */\n      tag_208\n      jump\t// in\n    tag_385:\n        /* \"#utility.yul\":12497:12567   */\n      tag_386\n        /* \"#utility.yul\":12563:12565   */\n      0x60\n        /* \"#utility.yul\":12552:12561   */\n      dup4\n        /* \"#utility.yul\":12548:12566   */\n      add\n        /* \"#utility.yul\":12539:12545   */\n      dup7\n        /* \"#utility.yul\":12497:12567   */\n      tag_208\n      jump\t// in\n    tag_386:\n        /* \"#utility.yul\":12577:12648   */\n      tag_387\n        /* \"#utility.yul\":12643:12646   */\n      0x80\n        /* \"#utility.yul\":12632:12641   */\n      dup4\n        /* \"#utility.yul\":12628:12647   */\n      add\n        /* \"#utility.yul\":12619:12625   */\n      dup6\n        /* \"#utility.yul\":12577:12648   */\n      tag_209\n      jump\t// in\n    tag_387:\n        /* \"#utility.yul\":12658:12725   */\n      tag_388\n        /* \"#utility.yul\":12720:12723   */\n      0xa0\n        /* \"#utility.yul\":12709:12718   */\n      dup4\n        /* \"#utility.yul\":12705:12724   */\n      add\n        /* \"#utility.yul\":12696:12702   */\n      dup5\n        /* \"#utility.yul\":12658:12725   */\n      tag_211\n      jump\t// in\n    tag_388:\n        /* \"#utility.yul\":11985:12732   */\n      swap8\n      swap7\n      pop\n      pop\n      pop\n      pop\n      pop\n      pop\n      pop\n      jump\t// out\n        /* \"#utility.yul\":12738:13067   */\n    tag_62:\n        /* \"#utility.yul\":12797:12803   */\n      0x00\n        /* \"#utility.yul\":12846:12848   */\n      0x20\n        /* \"#utility.yul\":12834:12843   */\n      dup3\n        /* \"#utility.yul\":12825:12832   */\n      dup5\n        /* \"#utility.yul\":12821:12844   */\n      sub\n        /* \"#utility.yul\":12817:12849   */\n      slt\n        /* \"#utility.yul\":12814:12933   */\n      iszero\n      tag_390\n      jumpi\n        /* \"#utility.yul\":12852:12931   */\n      tag_391\n      tag_169\n      jump\t// in\n    tag_391:\n        /* \"#utility.yul\":12814:12933   */\n    tag_390:\n        /* \"#utility.yul\":12972:12973   */\n      0x00\n        /* \"#utility.yul\":12997:13050   */\n      tag_392\n        /* \"#utility.yul\":13042:13049   */\n      dup5\n        /* \"#utility.yul\":13033:13039   */\n      dup3\n        /* \"#utility.yul\":13022:13031   */\n      dup6\n        /* \"#utility.yul\":13018:13040   */\n      add\n        /* \"#utility.yul\":12997:13050   */\n      tag_174\n      jump\t// in\n    tag_392:\n        /* \"#utility.yul\":12987:13050   */\n      swap2\n      pop\n        /* \"#utility.yul\":12943:13060   */\n      pop\n        /* \"#utility.yul\":12738:13067   */\n      swap3\n      swap2\n      pop\n      pop\n      jump\t// out\n        /* \"#utility.yul\":13073:13295   */\n    tag_65:\n        /* \"#utility.yul\":13166:13170   */\n      0x00\n        /* \"#utility.yul\":13204:13206   */\n      0x20\n        /* \"#utility.yul\":13193:13202   */\n      dup3\n        /* \"#utility.yul\":13189:13207   */\n      add\n        /* \"#utility.yul\":13181:13207   */\n      swap1\n      pop\n        /* \"#utility.yul\":13217:13288   */\n      tag_394\n        /* \"#utility.yul\":13285:13286   */\n      0x00\n        /* \"#utility.yul\":13274:13283   */\n      dup4\n        /* \"#utility.yul\":13270:13287   */\n      add\n        /* \"#utility.yul\":13261:13267   */\n      dup5\n        /* \"#utility.yul\":13217:13288   */\n      tag_196\n      jump\t// in\n    tag_394:\n        /* \"#utility.yul\":13073:13295   */\n      swap3\n      swap2\n      pop\n      pop\n      jump\t// out\n        /* \"#utility.yul\":13301:13415   */\n    tag_212:\n        /* \"#utility.yul\":13368:13374   */\n      0x00\n        /* \"#utility.yul\":13402:13407   */\n      dup2\n        /* \"#utility.yul\":13396:13408   */\n      mload\n        /* \"#utility.yul\":13386:13408   */\n      swap1\n      pop\n        /* \"#utility.yul\":13301:13415   */\n      swap2\n      swap1\n      pop\n      jump\t// out\n        /* \"#utility.yul\":13421:13605   */\n    tag_213:\n        /* \"#utility.yul\":13520:13531   */\n      0x00\n        /* \"#utility.yul\":13554:13560   */\n      dup3\n        /* \"#utility.yul\":13549:13552   */\n      dup3\n        /* \"#utility.yul\":13542:13561   */\n      mstore\n        /* \"#utility.yul\":13594:13598   */\n      0x20\n        /* \"#utility.yul\":13589:13592   */\n      dup3\n        /* \"#utility.yul\":13585:13599   */\n      add\n        /* \"#utility.yul\":13570:13599   */\n      swap1\n      pop\n        /* \"#utility.yul\":13421:13605   */\n      swap3\n      swap2\n      pop\n      pop\n      jump\t// out\n        /* \"#utility.yul\":13611:13743   */\n    tag_214:\n        /* \"#utility.yul\":13678:13682   */\n      0x00\n        /* \"#utility.yul\":13701:13704   */\n      dup2\n        /* \"#utility.yul\":13693:13704   */\n      swap1\n      pop\n        /* \"#utility.yul\":13731:13735   */\n      0x20\n        /* \"#utility.yul\":13726:13729   */\n      dup3\n        /* \"#utility.yul\":13722:13736   */\n      add\n        /* \"#utility.yul\":13714:13736   */\n      swap1\n      pop\n        /* \"#utility.yul\":13611:13743   */\n      swap2\n      swap1\n      pop\n      jump\t// out\n        /* \"#utility.yul\":13749:13857   */\n    tag_215:\n        /* \"#utility.yul\":13826:13850   */\n      tag_399\n        /* \"#utility.yul\":13844:13849   */\n      dup2\n        /* \"#utility.yul\":13826:13850   */\n      tag_172\n      jump\t// in\n    tag_399:\n        /* \"#utility.yul\":13821:13824   */\n      dup3\n        /* \"#utility.yul\":13814:13851   */\n      mstore\n        /* \"#utility.yul\":13749:13857   */\n      pop\n      pop\n      jump\t// out\n        /* \"#utility.yul\":13863:14042   */\n    tag_216:\n        /* \"#utility.yul\":13932:13942   */\n      0x00\n        /* \"#utility.yul\":13953:13999   */\n      tag_401\n        /* \"#utility.yul\":13995:13998   */\n      dup4\n        /* \"#utility.yul\":13987:13993   */\n      dup4\n        /* \"#utility.yul\":13953:13999   */\n      tag_215\n      jump\t// in\n    tag_401:\n        /* \"#utility.yul\":14031:14035   */\n      0x20\n        /* \"#utility.yul\":14026:14029   */\n      dup4\n        /* \"#utility.yul\":14022:14036   */\n      add\n        /* \"#utility.yul\":14008:14036   */\n      swap1\n      pop\n        /* \"#utility.yul\":13863:14042   */\n      swap3\n      swap2\n      pop\n      pop\n      jump\t// out\n        /* \"#utility.yul\":14048:14161   */\n    tag_217:\n        /* \"#utility.yul\":14118:14122   */\n      0x00\n        /* \"#utility.yul\":14150:14154   */\n      0x20\n        /* \"#utility.yul\":14145:14148   */\n      dup3\n        /* \"#utility.yul\":14141:14155   */\n      add\n        /* \"#utility.yul\":14133:14155   */\n      swap1\n      pop\n        /* \"#utility.yul\":14048:14161   */\n      swap2\n      swap1\n      pop\n      jump\t// out\n        /* \"#utility.yul\":14197:14929   */\n    tag_218:\n        /* \"#utility.yul\":14316:14319   */\n      0x00\n        /* \"#utility.yul\":14345:14399   */\n      tag_404\n        /* \"#utility.yul\":14393:14398   */\n      dup3\n        /* \"#utility.yul\":14345:14399   */\n      tag_212\n      jump\t// in\n    tag_404:\n        /* \"#utility.yul\":14415:14501   */\n      tag_405\n        /* \"#utility.yul\":14494:14500   */\n      dup2\n        /* \"#utility.yul\":14489:14492   */\n      dup6\n        /* \"#utility.yul\":14415:14501   */\n      tag_213\n      jump\t// in\n    tag_405:\n        /* \"#utility.yul\":14408:14501   */\n      swap4\n      pop\n        /* \"#utility.yul\":14525:14581   */\n      tag_406\n        /* \"#utility.yul\":14575:14580   */\n      dup4\n        /* \"#utility.yul\":14525:14581   */\n      tag_214\n      jump\t// in\n    tag_406:\n        /* \"#utility.yul\":14604:14611   */\n      dup1\n        /* \"#utility.yul\":14635:14636   */\n      0x00\n        /* \"#utility.yul\":14620:14904   */\n    tag_407:\n        /* \"#utility.yul\":14645:14651   */\n      dup4\n        /* \"#utility.yul\":14642:14643   */\n      dup2\n        /* \"#utility.yul\":14639:14652   */\n      lt\n        /* \"#utility.yul\":14620:14904   */\n      iszero\n      tag_409\n      jumpi\n        /* \"#utility.yul\":14721:14727   */\n      dup2\n        /* \"#utility.yul\":14715:14728   */\n      mload\n        /* \"#utility.yul\":14748:14811   */\n      tag_410\n        /* \"#utility.yul\":14807:14810   */\n      dup9\n        /* \"#utility.yul\":14792:14805   */\n      dup3\n        /* \"#utility.yul\":14748:14811   */\n      tag_216\n      jump\t// in\n    tag_410:\n        /* \"#utility.yul\":14741:14811   */\n      swap8\n      pop\n        /* \"#utility.yul\":14834:14894   */\n      tag_411\n        /* \"#utility.yul\":14887:14893   */\n      dup4\n        /* \"#utility.yul\":14834:14894   */\n      tag_217\n      jump\t// in\n    tag_411:\n        /* \"#utility.yul\":14824:14894   */\n      swap3\n      pop\n        /* \"#utility.yul\":14680:14904   */\n      pop\n        /* \"#utility.yul\":14667:14668   */\n      0x01\n        /* \"#utility.yul\":14664:14665   */\n      dup2\n        /* \"#utility.yul\":14660:14669   */\n      add\n        /* \"#utility.yul\":14655:14669   */\n      swap1\n      pop\n        /* \"#utility.yul\":14620:14904   */\n      jump(tag_407)\n    tag_409:\n        /* \"#utility.yul\":14624:14638   */\n      pop\n        /* \"#utility.yul\":14920:14923   */\n      dup6\n        /* \"#utility.yul\":14913:14923   */\n      swap4\n      pop\n        /* \"#utility.yul\":14321:14929   */\n      pop\n      pop\n      pop\n        /* \"#utility.yul\":14197:14929   */\n      swap3\n      swap2\n      pop\n      pop\n      jump\t// out\n        /* \"#utility.yul\":14935:15308   */\n    tag_76:\n        /* \"#utility.yul\":15078:15082   */\n      0x00\n        /* \"#utility.yul\":15116:15118   */\n      0x20\n        /* \"#utility.yul\":15105:15114   */\n      dup3\n        /* \"#utility.yul\":15101:15119   */\n      add\n        /* \"#utility.yul\":15093:15119   */\n      swap1\n      pop\n        /* \"#utility.yul\":15165:15174   */\n      dup2\n        /* \"#utility.yul\":15159:15163   */\n      dup2\n        /* \"#utility.yul\":15155:15175   */\n      sub\n        /* \"#utility.yul\":15151:15152   */\n      0x00\n        /* \"#utility.yul\":15140:15149   */\n      dup4\n        /* \"#utility.yul\":15136:15153   */\n      add\n        /* \"#utility.yul\":15129:15176   */\n      mstore\n        /* \"#utility.yul\":15193:15301   */\n      tag_413\n        /* \"#utility.yul\":15296:15300   */\n      dup2\n        /* \"#utility.yul\":15287:15293   */\n      dup5\n        /* \"#utility.yul\":15193:15301   */\n      tag_218\n      jump\t// in\n    tag_413:\n        /* \"#utility.yul\":15185:15301   */\n      swap1\n      pop\n        /* \"#utility.yul\":14935:15308   */\n      swap3\n      swap2\n      pop\n      pop\n      jump\t// out\n        /* \"#utility.yul\":15314:15408   */\n    tag_219:\n        /* \"#utility.yul\":15347:15355   */\n      0x00\n        /* \"#utility.yul\":15395:15400   */\n      dup2\n        /* \"#utility.yul\":15391:15393   */\n      0x60\n        /* \"#utility.yul\":15387:15401   */\n      shl\n        /* \"#utility.yul\":15366:15401   */\n      swap1\n      pop\n        /* \"#utility.yul\":15314:15408   */\n      swap2\n      swap1\n      pop\n      jump\t// out\n        /* \"#utility.yul\":15414:15508   */\n    tag_220:\n        /* \"#utility.yul\":15453:15460   */\n      0x00\n        /* \"#utility.yul\":15482:15502   */\n      tag_416\n        /* \"#utility.yul\":15496:15501   */\n      dup3\n        /* \"#utility.yul\":15482:15502   */\n      tag_219\n      jump\t// in\n    tag_416:\n        /* \"#utility.yul\":15471:15502   */\n      swap1\n      pop\n        /* \"#utility.yul\":15414:15508   */\n      swap2\n      swap1\n      pop\n      jump\t// out\n        /* \"#utility.yul\":15514:15614   */\n    tag_221:\n        /* \"#utility.yul\":15553:15560   */\n      0x00\n        /* \"#utility.yul\":15582:15608   */\n      tag_418\n        /* \"#utility.yul\":15602:15607   */\n      dup3\n        /* \"#utility.yul\":15582:15608   */\n      tag_220\n      jump\t// in\n    tag_418:\n        /* \"#utility.yul\":15571:15608   */\n      swap1\n      pop\n        /* \"#utility.yul\":15514:15614   */\n      swap2\n      swap1\n      pop\n      jump\t// out\n        /* \"#utility.yul\":15620:15777   */\n    tag_222:\n        /* \"#utility.yul\":15725:15770   */\n      tag_420\n        /* \"#utility.yul\":15745:15769   */\n      tag_421\n        /* \"#utility.yul\":15763:15768   */\n      dup3\n        /* \"#utility.yul\":15745:15769   */\n      tag_172\n      jump\t// in\n    tag_421:\n        /* \"#utility.yul\":15725:15770   */\n      tag_221\n      jump\t// in\n    tag_420:\n        /* \"#utility.yul\":15720:15723   */\n      dup3\n        /* \"#utility.yul\":15713:15771   */\n      mstore\n        /* \"#utility.yul\":15620:15777   */\n      pop\n      pop\n      jump\t// out\n        /* \"#utility.yul\":15783:15931   */\n    tag_223:\n        /* \"#utility.yul\":15885:15896   */\n      0x00\n        /* \"#utility.yul\":15922:15925   */\n      dup2\n        /* \"#utility.yul\":15907:15925   */\n      swap1\n      pop\n        /* \"#utility.yul\":15783:15931   */\n      swap3\n      swap2\n      pop\n      pop\n      jump\t// out\n        /* \"#utility.yul\":15937:16110   */\n    tag_224:\n        /* \"#utility.yul\":16077:16102   */\n      0x6d6574617472616e73616374696f6e20566f74696e6720000000000000000000\n        /* \"#utility.yul\":16073:16074   */\n      0x00\n        /* \"#utility.yul\":16065:16071   */\n      dup3\n        /* \"#utility.yul\":16061:16075   */\n      add\n        /* \"#utility.yul\":16054:16103   */\n      mstore\n        /* \"#utility.yul\":15937:16110   */\n      pop\n      jump\t// out\n        /* \"#utility.yul\":16116:16518   */\n    tag_225:\n        /* \"#utility.yul\":16276:16279   */\n      0x00\n        /* \"#utility.yul\":16297:16382   */\n      tag_425\n        /* \"#utility.yul\":16379:16381   */\n      0x17\n        /* \"#utility.yul\":16374:16377   */\n      dup4\n        /* \"#utility.yul\":16297:16382   */\n      tag_223\n      jump\t// in\n    tag_425:\n        /* \"#utility.yul\":16290:16382   */\n      swap2\n      pop\n        /* \"#utility.yul\":16391:16484   */\n      tag_426\n        /* \"#utility.yul\":16480:16483   */\n      dup3\n        /* \"#utility.yul\":16391:16484   */\n      tag_224\n      jump\t// in\n    tag_426:\n        /* \"#utility.yul\":16509:16511   */\n      0x17\n        /* \"#utility.yul\":16504:16507   */\n      dup3\n        /* \"#utility.yul\":16500:16512   */\n      add\n        /* \"#utility.yul\":16493:16512   */\n      swap1\n      pop\n        /* \"#utility.yul\":16116:16518   */\n      swap2\n      swap1\n      pop\n      jump\t// out\n        /* \"#utility.yul\":16524:16901   */\n    tag_226:\n        /* \"#utility.yul\":16630:16633   */\n      0x00\n        /* \"#utility.yul\":16658:16697   */\n      tag_428\n        /* \"#utility.yul\":16691:16696   */\n      dup3\n        /* \"#utility.yul\":16658:16697   */\n      tag_192\n      jump\t// in\n    tag_428:\n        /* \"#utility.yul\":16713:16802   */\n      tag_429\n        /* \"#utility.yul\":16795:16801   */\n      dup2\n        /* \"#utility.yul\":16790:16793   */\n      dup6\n        /* \"#utility.yul\":16713:16802   */\n      tag_223\n      jump\t// in\n    tag_429:\n        /* \"#utility.yul\":16706:16802   */\n      swap4\n      pop\n        /* \"#utility.yul\":16811:16863   */\n      tag_430\n        /* \"#utility.yul\":16856:16862   */\n      dup2\n        /* \"#utility.yul\":16851:16854   */\n      dup6\n        /* \"#utility.yul\":16844:16848   */\n      0x20\n        /* \"#utility.yul\":16837:16842   */\n      dup7\n        /* \"#utility.yul\":16833:16849   */\n      add\n        /* \"#utility.yul\":16811:16863   */\n      tag_194\n      jump\t// in\n    tag_430:\n        /* \"#utility.yul\":16888:16894   */\n      dup1\n        /* \"#utility.yul\":16883:16886   */\n      dup5\n        /* \"#utility.yul\":16879:16895   */\n      add\n        /* \"#utility.yul\":16872:16895   */\n      swap2\n      pop\n        /* \"#utility.yul\":16634:16901   */\n      pop\n        /* \"#utility.yul\":16524:16901   */\n      swap3\n      swap2\n      pop\n      pop\n      jump\t// out\n        /* \"#utility.yul\":16907:16986   */\n    tag_227:\n        /* \"#utility.yul\":16946:16953   */\n      0x00\n        /* \"#utility.yul\":16975:16980   */\n      dup2\n        /* \"#utility.yul\":16964:16980   */\n      swap1\n      pop\n        /* \"#utility.yul\":16907:16986   */\n      swap2\n      swap1\n      pop\n      jump\t// out\n        /* \"#utility.yul\":16992:17149   */\n    tag_228:\n        /* \"#utility.yul\":17097:17142   */\n      tag_433\n        /* \"#utility.yul\":17117:17141   */\n      tag_434\n        /* \"#utility.yul\":17135:17140   */\n      dup3\n        /* \"#utility.yul\":17117:17141   */\n      tag_184\n      jump\t// in\n    tag_434:\n        /* \"#utility.yul\":17097:17142   */\n      tag_227\n      jump\t// in\n    tag_433:\n        /* \"#utility.yul\":17092:17095   */\n      dup3\n        /* \"#utility.yul\":17085:17143   */\n      mstore\n        /* \"#utility.yul\":16992:17149   */\n      pop\n      pop\n      jump\t// out\n        /* \"#utility.yul\":17155:18260   */\n    tag_83:\n        /* \"#utility.yul\":17500:17503   */\n      0x00\n        /* \"#utility.yul\":17515:17590   */\n      tag_436\n        /* \"#utility.yul\":17586:17589   */\n      dup3\n        /* \"#utility.yul\":17577:17583   */\n      dup9\n        /* \"#utility.yul\":17515:17590   */\n      tag_222\n      jump\t// in\n    tag_436:\n        /* \"#utility.yul\":17615:17617   */\n      0x14\n        /* \"#utility.yul\":17610:17613   */\n      dup3\n        /* \"#utility.yul\":17606:17618   */\n      add\n        /* \"#utility.yul\":17599:17618   */\n      swap2\n      pop\n        /* \"#utility.yul\":17635:17783   */\n      tag_437\n        /* \"#utility.yul\":17779:17782   */\n      dup3\n        /* \"#utility.yul\":17635:17783   */\n      tag_225\n      jump\t// in\n    tag_437:\n        /* \"#utility.yul\":17628:17783   */\n      swap2\n      pop\n        /* \"#utility.yul\":17793:17868   */\n      tag_438\n        /* \"#utility.yul\":17864:17867   */\n      dup3\n        /* \"#utility.yul\":17855:17861   */\n      dup8\n        /* \"#utility.yul\":17793:17868   */\n      tag_222\n      jump\t// in\n    tag_438:\n        /* \"#utility.yul\":17893:17895   */\n      0x14\n        /* \"#utility.yul\":17888:17891   */\n      dup3\n        /* \"#utility.yul\":17884:17896   */\n      add\n        /* \"#utility.yul\":17877:17896   */\n      swap2\n      pop\n        /* \"#utility.yul\":17913:18008   */\n      tag_439\n        /* \"#utility.yul\":18004:18007   */\n      dup3\n        /* \"#utility.yul\":17995:18001   */\n      dup7\n        /* \"#utility.yul\":17913:18008   */\n      tag_226\n      jump\t// in\n    tag_439:\n        /* \"#utility.yul\":17906:18008   */\n      swap2\n      pop\n        /* \"#utility.yul\":18018:18093   */\n      tag_440\n        /* \"#utility.yul\":18089:18092   */\n      dup3\n        /* \"#utility.yul\":18080:18086   */\n      dup6\n        /* \"#utility.yul\":18018:18093   */\n      tag_228\n      jump\t// in\n    tag_440:\n        /* \"#utility.yul\":18118:18120   */\n      0x20\n        /* \"#utility.yul\":18113:18116   */\n      dup3\n        /* \"#utility.yul\":18109:18121   */\n      add\n        /* \"#utility.yul\":18102:18121   */\n      swap2\n      pop\n        /* \"#utility.yul\":18131:18206   */\n      tag_441\n        /* \"#utility.yul\":18202:18205   */\n      dup3\n        /* \"#utility.yul\":18193:18199   */\n      dup5\n        /* \"#utility.yul\":18131:18206   */\n      tag_228\n      jump\t// in\n    tag_441:\n        /* \"#utility.yul\":18231:18233   */\n      0x20\n        /* \"#utility.yul\":18226:18229   */\n      dup3\n        /* \"#utility.yul\":18222:18234   */\n      add\n        /* \"#utility.yul\":18215:18234   */\n      swap2\n      pop\n        /* \"#utility.yul\":18251:18254   */\n      dup2\n        /* \"#utility.yul\":18244:18254   */\n      swap1\n      pop\n        /* \"#utility.yul\":17155:18260   */\n      swap7\n      swap6\n      pop\n      pop\n      pop\n      pop\n      pop\n      pop\n      jump\t// out\n        /* \"#utility.yul\":18266:18541   */\n    tag_86:\n        /* \"#utility.yul\":18398:18401   */\n      0x00\n        /* \"#utility.yul\":18420:18515   */\n      tag_443\n        /* \"#utility.yul\":18511:18514   */\n      dup3\n        /* \"#utility.yul\":18502:18508   */\n      dup5\n        /* \"#utility.yul\":18420:18515   */\n      tag_226\n      jump\t// in\n    tag_443:\n        /* \"#utility.yul\":18413:18515   */\n      swap2\n      pop\n        /* \"#utility.yul\":18532:18535   */\n      dup2\n        /* \"#utility.yul\":18525:18535   */\n      swap1\n      pop\n        /* \"#utility.yul\":18266:18541   */\n      swap3\n      swap2\n      pop\n      pop\n      jump\t// out\n        /* \"#utility.yul\":18547:18776   */\n    tag_229:\n        /* \"#utility.yul\":18687:18721   */\n      0x54686973206164647265737320646f6573206e6f742065786973742061732061\n        /* \"#utility.yul\":18683:18684   */\n      0x00\n        /* \"#utility.yul\":18675:18681   */\n      dup3\n        /* \"#utility.yul\":18671:18685   */\n      add\n        /* \"#utility.yul\":18664:18722   */\n      mstore\n        /* \"#utility.yul\":18756:18768   */\n      0x2063616e64696461746500000000000000000000000000000000000000000000\n        /* \"#utility.yul\":18751:18753   */\n      0x20\n        /* \"#utility.yul\":18743:18749   */\n      dup3\n        /* \"#utility.yul\":18739:18754   */\n      add\n        /* \"#utility.yul\":18732:18769   */\n      mstore\n        /* \"#utility.yul\":18547:18776   */\n      pop\n      jump\t// out\n        /* \"#utility.yul\":18782:19148   */\n    tag_230:\n        /* \"#utility.yul\":18924:18927   */\n      0x00\n        /* \"#utility.yul\":18945:19012   */\n      tag_446\n        /* \"#utility.yul\":19009:19011   */\n      0x2a\n        /* \"#utility.yul\":19004:19007   */\n      dup4\n        /* \"#utility.yul\":18945:19012   */\n      tag_193\n      jump\t// in\n    tag_446:\n        /* \"#utility.yul\":18938:19012   */\n      swap2\n      pop\n        /* \"#utility.yul\":19021:19114   */\n      tag_447\n        /* \"#utility.yul\":19110:19113   */\n      dup3\n        /* \"#utility.yul\":19021:19114   */\n      tag_229\n      jump\t// in\n    tag_447:\n        /* \"#utility.yul\":19139:19141   */\n      0x40\n        /* \"#utility.yul\":19134:19137   */\n      dup3\n        /* \"#utility.yul\":19130:19142   */\n      add\n        /* \"#utility.yul\":19123:19142   */\n      swap1\n      pop\n        /* \"#utility.yul\":18782:19148   */\n      swap2\n      swap1\n      pop\n      jump\t// out\n        /* \"#utility.yul\":19154:19573   */\n    tag_91:\n        /* \"#utility.yul\":19320:19324   */\n      0x00\n        /* \"#utility.yul\":19358:19360   */\n      0x20\n        /* \"#utility.yul\":19347:19356   */\n      dup3\n        /* \"#utility.yul\":19343:19361   */\n      add\n        /* \"#utility.yul\":19335:19361   */\n      swap1\n      pop\n        /* \"#utility.yul\":19407:19416   */\n      dup2\n        /* \"#utility.yul\":19401:19405   */\n      dup2\n        /* \"#utility.yul\":19397:19417   */\n      sub\n        /* \"#utility.yul\":19393:19394   */\n      0x00\n        /* \"#utility.yul\":19382:19391   */\n      dup4\n        /* \"#utility.yul\":19378:19395   */\n      add\n        /* \"#utility.yul\":19371:19418   */\n      mstore\n        /* \"#utility.yul\":19435:19566   */\n      tag_449\n        /* \"#utility.yul\":19561:19565   */\n      dup2\n        /* \"#utility.yul\":19435:19566   */\n      tag_230\n      jump\t// in\n    tag_449:\n        /* \"#utility.yul\":19427:19566   */\n      swap1\n      pop\n        /* \"#utility.yul\":19154:19573   */\n      swap2\n      swap1\n      pop\n      jump\t// out\n        /* \"#utility.yul\":19579:19745   */\n    tag_231:\n        /* \"#utility.yul\":19719:19737   */\n      0x766f74696e672068617320656e64656400000000000000000000000000000000\n        /* \"#utility.yul\":19715:19716   */\n      0x00\n        /* \"#utility.yul\":19707:19713   */\n      dup3\n        /* \"#utility.yul\":19703:19717   */\n      add\n        /* \"#utility.yul\":19696:19738   */\n      mstore\n        /* \"#utility.yul\":19579:19745   */\n      pop\n      jump\t// out\n        /* \"#utility.yul\":19751:20117   */\n    tag_232:\n        /* \"#utility.yul\":19893:19896   */\n      0x00\n        /* \"#utility.yul\":19914:19981   */\n      tag_452\n        /* \"#utility.yul\":19978:19980   */\n      0x10\n        /* \"#utility.yul\":19973:19976   */\n      dup4\n        /* \"#utility.yul\":19914:19981   */\n      tag_193\n      jump\t// in\n    tag_452:\n        /* \"#utility.yul\":19907:19981   */\n      swap2\n      pop\n        /* \"#utility.yul\":19990:20083   */\n      tag_453\n        /* \"#utility.yul\":20079:20082   */\n      dup3\n        /* \"#utility.yul\":19990:20083   */\n      tag_231\n      jump\t// in\n    tag_453:\n        /* \"#utility.yul\":20108:20110   */\n      0x20\n        /* \"#utility.yul\":20103:20106   */\n      dup3\n        /* \"#utility.yul\":20099:20111   */\n      add\n        /* \"#utility.yul\":20092:20111   */\n      swap1\n      pop\n        /* \"#utility.yul\":19751:20117   */\n      swap2\n      swap1\n      pop\n      jump\t// out\n        /* \"#utility.yul\":20123:20542   */\n    tag_96:\n        /* \"#utility.yul\":20289:20293   */\n      0x00\n        /* \"#utility.yul\":20327:20329   */\n      0x20\n        /* \"#utility.yul\":20316:20325   */\n      dup3\n        /* \"#utility.yul\":20312:20330   */\n      add\n        /* \"#utility.yul\":20304:20330   */\n      swap1\n      pop\n        /* \"#utility.yul\":20376:20385   */\n      dup2\n        /* \"#utility.yul\":20370:20374   */\n      dup2\n        /* \"#utility.yul\":20366:20386   */\n      sub\n        /* \"#utility.yul\":20362:20363   */\n      0x00\n        /* \"#utility.yul\":20351:20360   */\n      dup4\n        /* \"#utility.yul\":20347:20364   */\n      add\n        /* \"#utility.yul\":20340:20387   */\n      mstore\n        /* \"#utility.yul\":20404:20535   */\n      tag_455\n        /* \"#utility.yul\":20530:20534   */\n      dup2\n        /* \"#utility.yul\":20404:20535   */\n      tag_232\n      jump\t// in\n    tag_455:\n        /* \"#utility.yul\":20396:20535   */\n      swap1\n      pop\n        /* \"#utility.yul\":20123:20542   */\n      swap2\n      swap1\n      pop\n      jump\t// out\n        /* \"#utility.yul\":20548:20715   */\n    tag_233:\n        /* \"#utility.yul\":20688:20707   */\n      0x596f7520616c726561647920766f746564000000000000000000000000000000\n        /* \"#utility.yul\":20684:20685   */\n      0x00\n        /* \"#utility.yul\":20676:20682   */\n      dup3\n        /* \"#utility.yul\":20672:20686   */\n      add\n        /* \"#utility.yul\":20665:20708   */\n      mstore\n        /* \"#utility.yul\":20548:20715   */\n      pop\n      jump\t// out\n        /* \"#utility.yul\":20721:21087   */\n    tag_234:\n        /* \"#utility.yul\":20863:20866   */\n      0x00\n        /* \"#utility.yul\":20884:20951   */\n      tag_458\n        /* \"#utility.yul\":20948:20950   */\n      0x11\n        /* \"#utility.yul\":20943:20946   */\n      dup4\n        /* \"#utility.yul\":20884:20951   */\n      tag_193\n      jump\t// in\n    tag_458:\n        /* \"#utility.yul\":20877:20951   */\n      swap2\n      pop\n        /* \"#utility.yul\":20960:21053   */\n      tag_459\n        /* \"#utility.yul\":21049:21052   */\n      dup3\n        /* \"#utility.yul\":20960:21053   */\n      tag_233\n      jump\t// in\n    tag_459:\n        /* \"#utility.yul\":21078:21080   */\n      0x20\n        /* \"#utility.yul\":21073:21076   */\n      dup3\n        /* \"#utility.yul\":21069:21081   */\n      add\n        /* \"#utility.yul\":21062:21081   */\n      swap1\n      pop\n        /* \"#utility.yul\":20721:21087   */\n      swap2\n      swap1\n      pop\n      jump\t// out\n        /* \"#utility.yul\":21093:21512   */\n    tag_101:\n        /* \"#utility.yul\":21259:21263   */\n      0x00\n        /* \"#utility.yul\":21297:21299   */\n      0x20\n        /* \"#utility.yul\":21286:21295   */\n      dup3\n        /* \"#utility.yul\":21282:21300   */\n      add\n        /* \"#utility.yul\":21274:21300   */\n      swap1\n      pop\n        /* \"#utility.yul\":21346:21355   */\n      dup2\n        /* \"#utility.yul\":21340:21344   */\n      dup2\n        /* \"#utility.yul\":21336:21356   */\n      sub\n        /* \"#utility.yul\":21332:21333   */\n      0x00\n        /* \"#utility.yul\":21321:21330   */\n      dup4\n        /* \"#utility.yul\":21317:21334   */\n      add\n        /* \"#utility.yul\":21310:21357   */\n      mstore\n        /* \"#utility.yul\":21374:21505   */\n      tag_461\n        /* \"#utility.yul\":21500:21504   */\n      dup2\n        /* \"#utility.yul\":21374:21505   */\n      tag_234\n      jump\t// in\n    tag_461:\n        /* \"#utility.yul\":21366:21505   */\n      swap1\n      pop\n        /* \"#utility.yul\":21093:21512   */\n      swap2\n      swap1\n      pop\n      jump\t// out\n        /* \"#utility.yul\":21518:21838   */\n    tag_105:\n        /* \"#utility.yul\":21633:21637   */\n      0x00\n        /* \"#utility.yul\":21671:21673   */\n      0x40\n        /* \"#utility.yul\":21660:21669   */\n      dup3\n        /* \"#utility.yul\":21656:21674   */\n      add\n        /* \"#utility.yul\":21648:21674   */\n      swap1\n      pop\n        /* \"#utility.yul\":21684:21755   */\n      tag_463\n        /* \"#utility.yul\":21752:21753   */\n      0x00\n        /* \"#utility.yul\":21741:21750   */\n      dup4\n        /* \"#utility.yul\":21737:21754   */\n      add\n        /* \"#utility.yul\":21728:21734   */\n      dup6\n        /* \"#utility.yul\":21684:21755   */\n      tag_197\n      jump\t// in\n    tag_463:\n        /* \"#utility.yul\":21765:21831   */\n      tag_464\n        /* \"#utility.yul\":21827:21829   */\n      0x20\n        /* \"#utility.yul\":21816:21825   */\n      dup4\n        /* \"#utility.yul\":21812:21830   */\n      add\n        /* \"#utility.yul\":21803:21809   */\n      dup5\n        /* \"#utility.yul\":21765:21831   */\n      tag_211\n      jump\t// in\n    tag_464:\n        /* \"#utility.yul\":21518:21838   */\n      swap4\n      swap3\n      pop\n      pop\n      pop\n      jump\t// out\n        /* \"#utility.yul\":21844:22024   */\n    tag_110:\n        /* \"#utility.yul\":21892:21969   */\n      0x4e487b7100000000000000000000000000000000000000000000000000000000\n        /* \"#utility.yul\":21889:21890   */\n      0x00\n        /* \"#utility.yul\":21882:21970   */\n      mstore\n        /* \"#utility.yul\":21989:21993   */\n      0x32\n        /* \"#utility.yul\":21986:21987   */\n      0x04\n        /* \"#utility.yul\":21979:21994   */\n      mstore\n        /* \"#utility.yul\":22013:22017   */\n      0x24\n        /* \"#utility.yul\":22010:22011   */\n      0x00\n        /* \"#utility.yul\":22003:22018   */\n      revert\n        /* \"#utility.yul\":22030:22195   */\n    tag_235:\n        /* \"#utility.yul\":22170:22187   */\n      0x4e6f20706f6c6c20637265617465640000000000000000000000000000000000\n        /* \"#utility.yul\":22166:22167   */\n      0x00\n        /* \"#utility.yul\":22158:22164   */\n      dup3\n        /* \"#utility.yul\":22154:22168   */\n      add\n        /* \"#utility.yul\":22147:22188   */\n      mstore\n        /* \"#utility.yul\":22030:22195   */\n      pop\n      jump\t// out\n        /* \"#utility.yul\":22201:22567   */\n    tag_236:\n        /* \"#utility.yul\":22343:22346   */\n      0x00\n        /* \"#utility.yul\":22364:22431   */\n      tag_468\n        /* \"#utility.yul\":22428:22430   */\n      0x0f\n        /* \"#utility.yul\":22423:22426   */\n      dup4\n        /* \"#utility.yul\":22364:22431   */\n      tag_193\n      jump\t// in\n    tag_468:\n        /* \"#utility.yul\":22357:22431   */\n      swap2\n      pop\n        /* \"#utility.yul\":22440:22533   */\n      tag_469\n        /* \"#utility.yul\":22529:22532   */\n      dup3\n        /* \"#utility.yul\":22440:22533   */\n      tag_235\n      jump\t// in\n    tag_469:\n        /* \"#utility.yul\":22558:22560   */\n      0x20\n        /* \"#utility.yul\":22553:22556   */\n      dup3\n        /* \"#utility.yul\":22549:22561   */\n      add\n        /* \"#utility.yul\":22542:22561   */\n      swap1\n      pop\n        /* \"#utility.yul\":22201:22567   */\n      swap2\n      swap1\n      pop\n      jump\t// out\n        /* \"#utility.yul\":22573:22992   */\n    tag_116:\n        /* \"#utility.yul\":22739:22743   */\n      0x00\n        /* \"#utility.yul\":22777:22779   */\n      0x20\n        /* \"#utility.yul\":22766:22775   */\n      dup3\n        /* \"#utility.yul\":22762:22780   */\n      add\n        /* \"#utility.yul\":22754:22780   */\n      swap1\n      pop\n        /* \"#utility.yul\":22826:22835   */\n      dup2\n        /* \"#utility.yul\":22820:22824   */\n      dup2\n        /* \"#utility.yul\":22816:22836   */\n      sub\n        /* \"#utility.yul\":22812:22813   */\n      0x00\n        /* \"#utility.yul\":22801:22810   */\n      dup4\n        /* \"#utility.yul\":22797:22814   */\n      add\n        /* \"#utility.yul\":22790:22837   */\n      mstore\n        /* \"#utility.yul\":22854:22985   */\n      tag_471\n        /* \"#utility.yul\":22980:22984   */\n      dup2\n        /* \"#utility.yul\":22854:22985   */\n      tag_236\n      jump\t// in\n    tag_471:\n        /* \"#utility.yul\":22846:22985   */\n      swap1\n      pop\n        /* \"#utility.yul\":22573:22992   */\n      swap2\n      swap1\n      pop\n      jump\t// out\n        /* \"#utility.yul\":22998:23178   */\n    tag_237:\n        /* \"#utility.yul\":23046:23123   */\n      0x4e487b7100000000000000000000000000000000000000000000000000000000\n        /* \"#utility.yul\":23043:23044   */\n      0x00\n        /* \"#utility.yul\":23036:23124   */\n      mstore\n        /* \"#utility.yul\":23143:23147   */\n      0x11\n        /* \"#utility.yul\":23140:23141   */\n      0x04\n        /* \"#utility.yul\":23133:23148   */\n      mstore\n        /* \"#utility.yul\":23167:23171   */\n      0x24\n        /* \"#utility.yul\":23164:23165   */\n      0x00\n        /* \"#utility.yul\":23157:23172   */\n      revert\n        /* \"#utility.yul\":23184:23417   */\n    tag_137:\n        /* \"#utility.yul\":23223:23226   */\n      0x00\n        /* \"#utility.yul\":23246:23270   */\n      tag_474\n        /* \"#utility.yul\":23264:23269   */\n      dup3\n        /* \"#utility.yul\":23246:23270   */\n      tag_184\n      jump\t// in\n    tag_474:\n        /* \"#utility.yul\":23237:23270   */\n      swap2\n      pop\n        /* \"#utility.yul\":23292:23358   */\n      0xffffffffffffffffffffffffffffffffffffffffffffffffffffffffffffffff\n        /* \"#utility.yul\":23285:23290   */\n      dup3\n        /* \"#utility.yul\":23282:23359   */\n      eq\n        /* \"#utility.yul\":23279:23382   */\n      iszero\n      tag_475\n      jumpi\n        /* \"#utility.yul\":23362:23380   */\n      tag_476\n      tag_237\n      jump\t// in\n    tag_476:\n        /* \"#utility.yul\":23279:23382   */\n    tag_475:\n        /* \"#utility.yul\":23409:23410   */\n      0x01\n        /* \"#utility.yul\":23402:23407   */\n      dup3\n        /* \"#utility.yul\":23398:23411   */\n      add\n        /* \"#utility.yul\":23391:23411   */\n      swap1\n      pop\n        /* \"#utility.yul\":23184:23417   */\n      swap2\n      swap1\n      pop\n      jump\t// out\n        /* \"#utility.yul\":23423:23593   */\n    tag_238:\n        /* \"#utility.yul\":23563:23585   */\n      0x79657420746f20637265617465206120706f6c6c000000000000000000000000\n        /* \"#utility.yul\":23559:23560   */\n      0x00\n        /* \"#utility.yul\":23551:23557   */\n      dup3\n        /* \"#utility.yul\":23547:23561   */\n      add\n        /* \"#utility.yul\":23540:23586   */\n      mstore\n        /* \"#utility.yul\":23423:23593   */\n      pop\n      jump\t// out\n        /* \"#utility.yul\":23599:23965   */\n    tag_239:\n        /* \"#utility.yul\":23741:23744   */\n      0x00\n        /* \"#utility.yul\":23762:23829   */\n      tag_479\n        /* \"#utility.yul\":23826:23828   */\n      0x14\n        /* \"#utility.yul\":23821:23824   */\n      dup4\n        /* \"#utility.yul\":23762:23829   */\n      tag_193\n      jump\t// in\n    tag_479:\n        /* \"#utility.yul\":23755:23829   */\n      swap2\n      pop\n        /* \"#utility.yul\":23838:23931   */\n      tag_480\n        /* \"#utility.yul\":23927:23930   */\n      dup3\n        /* \"#utility.yul\":23838:23931   */\n      tag_238\n      jump\t// in\n    tag_480:\n        /* \"#utility.yul\":23956:23958   */\n      0x20\n        /* \"#utility.yul\":23951:23954   */\n      dup3\n        /* \"#utility.yul\":23947:23959   */\n      add\n        /* \"#utility.yul\":23940:23959   */\n      swap1\n      pop\n        /* \"#utility.yul\":23599:23965   */\n      swap2\n      swap1\n      pop\n      jump\t// out\n        /* \"#utility.yul\":23971:24390   */\n    tag_142:\n        /* \"#utility.yul\":24137:24141   */\n      0x00\n        /* \"#utility.yul\":24175:24177   */\n      0x20\n        /* \"#utility.yul\":24164:24173   */\n      dup3\n        /* \"#utility.yul\":24160:24178   */\n      add\n        /* \"#utility.yul\":24152:24178   */\n      swap1\n      pop\n        /* \"#utility.yul\":24224:24233   */\n      dup2\n        /* \"#utility.yul\":24218:24222   */\n      dup2\n        /* \"#utility.yul\":24214:24234   */\n      sub\n        /* \"#utility.yul\":24210:24211   */\n      0x00\n        /* \"#utility.yul\":24199:24208   */\n      dup4\n        /* \"#utility.yul\":24195:24212   */\n      add\n        /* \"#utility.yul\":24188:24235   */\n      mstore\n        /* \"#utility.yul\":24252:24383   */\n      tag_482\n        /* \"#utility.yul\":24378:24382   */\n      dup2\n        /* \"#utility.yul\":24252:24383   */\n      tag_239\n      jump\t// in\n    tag_482:\n        /* \"#utility.yul\":24244:24383   */\n      swap1\n      pop\n        /* \"#utility.yul\":23971:24390   */\n      swap2\n      swap1\n      pop\n      jump\t// out\n        /* \"#utility.yul\":24396:24576   */\n    tag_145:\n        /* \"#utility.yul\":24444:24521   */\n      0x4e487b7100000000000000000000000000000000000000000000000000000000\n        /* \"#utility.yul\":24441:24442   */\n      0x00\n        /* \"#utility.yul\":24434:24522   */\n      mstore\n        /* \"#utility.yul\":24541:24545   */\n      0x01\n        /* \"#utility.yul\":24538:24539   */\n      0x04\n        /* \"#utility.yul\":24531:24546   */\n      mstore\n        /* \"#utility.yul\":24565:24569   */\n      0x24\n        /* \"#utility.yul\":24562:24563   */\n      0x00\n        /* \"#utility.yul\":24555:24570   */\n      revert\n        /* \"#utility.yul\":24582:24815   */\n    tag_240:\n        /* \"#utility.yul\":24722:24756   */\n      0x6d6178696d756d206e6f206f662063616e646964617465207065722073657373\n        /* \"#utility.yul\":24718:24719   */\n      0x00\n        /* \"#utility.yul\":24710:24716   */\n      dup3\n        /* \"#utility.yul\":24706:24720   */\n      add\n        /* \"#utility.yul\":24699:24757   */\n      mstore\n        /* \"#utility.yul\":24791:24807   */\n      0x696f6e2072656769737465726564000000000000000000000000000000000000\n        /* \"#utility.yul\":24786:24788   */\n      0x20\n        /* \"#utility.yul\":24778:24784   */\n      dup3\n        /* \"#utility.yul\":24774:24789   */\n      add\n        /* \"#utility.yul\":24767:24808   */\n      mstore\n        /* \"#utility.yul\":24582:24815   */\n      pop\n      jump\t// out\n        /* \"#utility.yul\":24821:25187   */\n    tag_241:\n        /* \"#utility.yul\":24963:24966   */\n      0x00\n        /* \"#utility.yul\":24984:25051   */\n      tag_486\n        /* \"#utility.yul\":25048:25050   */\n      0x2e\n        /* \"#utility.yul\":25043:25046   */\n      dup4\n        /* \"#utility.yul\":24984:25051   */\n      tag_193\n      jump\t// in\n    tag_486:\n        /* \"#utility.yul\":24977:25051   */\n      swap2\n      pop\n        /* \"#utility.yul\":25060:25153   */\n      tag_487\n        /* \"#utility.yul\":25149:25152   */\n      dup3\n        /* \"#utility.yul\":25060:25153   */\n      tag_240\n      jump\t// in\n    tag_487:\n        /* \"#utility.yul\":25178:25180   */\n      0x40\n        /* \"#utility.yul\":25173:25176   */\n      dup3\n        /* \"#utility.yul\":25169:25181   */\n      add\n        /* \"#utility.yul\":25162:25181   */\n      swap1\n      pop\n        /* \"#utility.yul\":24821:25187   */\n      swap2\n      swap1\n      pop\n      jump\t// out\n        /* \"#utility.yul\":25193:25612   */\n    tag_148:\n        /* \"#utility.yul\":25359:25363   */\n      0x00\n        /* \"#utility.yul\":25397:25399   */\n      0x20\n        /* \"#utility.yul\":25386:25395   */\n      dup3\n        /* \"#utility.yul\":25382:25400   */\n      add\n        /* \"#utility.yul\":25374:25400   */\n      swap1\n      pop\n        /* \"#utility.yul\":25446:25455   */\n      dup2\n        /* \"#utility.yul\":25440:25444   */\n      dup2\n        /* \"#utility.yul\":25436:25456   */\n      sub\n        /* \"#utility.yul\":25432:25433   */\n      0x00\n        /* \"#utility.yul\":25421:25430   */\n      dup4\n        /* \"#utility.yul\":25417:25434   */\n      add\n        /* \"#utility.yul\":25410:25457   */\n      mstore\n        /* \"#utility.yul\":25474:25605   */\n      tag_489\n        /* \"#utility.yul\":25600:25604   */\n      dup2\n        /* \"#utility.yul\":25474:25605   */\n      tag_241\n      jump\t// in\n    tag_489:\n        /* \"#utility.yul\":25466:25605   */\n      swap1\n      pop\n        /* \"#utility.yul\":25193:25612   */\n      swap2\n      swap1\n      pop\n      jump\t// out\n        /* \"#utility.yul\":25618:25789   */\n    tag_151:\n        /* \"#utility.yul\":25656:25659   */\n      0x00\n        /* \"#utility.yul\":25679:25702   */\n      tag_491\n        /* \"#utility.yul\":25696:25701   */\n      dup3\n        /* \"#utility.yul\":25679:25702   */\n      tag_189\n      jump\t// in\n    tag_491:\n        /* \"#utility.yul\":25670:25702   */\n      swap2\n      pop\n        /* \"#utility.yul\":25724:25730   */\n      0xffff\n        /* \"#utility.yul\":25717:25722   */\n      dup3\n        /* \"#utility.yul\":25714:25731   */\n      eq\n        /* \"#utility.yul\":25711:25754   */\n      iszero\n      tag_492\n      jumpi\n        /* \"#utility.yul\":25734:25752   */\n      tag_493\n      tag_237\n      jump\t// in\n    tag_493:\n        /* \"#utility.yul\":25711:25754   */\n    tag_492:\n        /* \"#utility.yul\":25781:25782   */\n      0x01\n        /* \"#utility.yul\":25774:25779   */\n      dup3\n        /* \"#utility.yul\":25770:25783   */\n      add\n        /* \"#utility.yul\":25763:25783   */\n      swap1\n      pop\n        /* \"#utility.yul\":25618:25789   */\n      swap2\n      swap1\n      pop\n      jump\t// out\n        /* \"#utility.yul\":25795:26017   */\n    tag_153:\n        /* \"#utility.yul\":25888:25892   */\n      0x00\n        /* \"#utility.yul\":25926:25928   */\n      0x20\n        /* \"#utility.yul\":25915:25924   */\n      dup3\n        /* \"#utility.yul\":25911:25929   */\n      add\n        /* \"#utility.yul\":25903:25929   */\n      swap1\n      pop\n        /* \"#utility.yul\":25939:26010   */\n      tag_495\n        /* \"#utility.yul\":26007:26008   */\n      0x00\n        /* \"#utility.yul\":25996:26005   */\n      dup4\n        /* \"#utility.yul\":25992:26009   */\n      add\n        /* \"#utility.yul\":25983:25989   */\n      dup5\n        /* \"#utility.yul\":25939:26010   */\n      tag_197\n      jump\t// in\n    tag_495:\n        /* \"#utility.yul\":25795:26017   */\n      swap3\n      swap2\n      pop\n      pop\n      jump\t// out\n        /* \"#utility.yul\":26023:26189   */\n    tag_242:\n        /* \"#utility.yul\":26163:26181   */\n      0x6e6f74207468652063686169726d616e00000000000000000000000000000000\n        /* \"#utility.yul\":26159:26160   */\n      0x00\n        /* \"#utility.yul\":26151:26157   */\n      dup3\n        /* \"#utility.yul\":26147:26161   */\n      add\n        /* \"#utility.yul\":26140:26182   */\n      mstore\n        /* \"#utility.yul\":26023:26189   */\n      pop\n      jump\t// out\n        /* \"#utility.yul\":26195:26561   */\n    tag_243:\n        /* \"#utility.yul\":26337:26340   */\n      0x00\n        /* \"#utility.yul\":26358:26425   */\n      tag_498\n        /* \"#utility.yul\":26422:26424   */\n      0x10\n        /* \"#utility.yul\":26417:26420   */\n      dup4\n        /* \"#utility.yul\":26358:26425   */\n      tag_193\n      jump\t// in\n    tag_498:\n        /* \"#utility.yul\":26351:26425   */\n      swap2\n      pop\n        /* \"#utility.yul\":26434:26527   */\n      tag_499\n        /* \"#utility.yul\":26523:26526   */\n      dup3\n        /* \"#utility.yul\":26434:26527   */\n      tag_242\n      jump\t// in\n    tag_499:\n        /* \"#utility.yul\":26552:26554   */\n      0x20\n        /* \"#utility.yul\":26547:26550   */\n      dup3\n        /* \"#utility.yul\":26543:26555   */\n      add\n        /* \"#utility.yul\":26536:26555   */\n      swap1\n      pop\n        /* \"#utility.yul\":26195:26561   */\n      swap2\n      swap1\n      pop\n      jump\t// out\n        /* \"#utility.yul\":26567:26986   */\n    tag_164:\n        /* \"#utility.yul\":26733:26737   */\n      0x00\n        /* \"#utility.yul\":26771:26773   */\n      0x20\n        /* \"#utility.yul\":26760:26769   */\n      dup3\n        /* \"#utility.yul\":26756:26774   */\n      add\n        /* \"#utility.yul\":26748:26774   */\n      swap1\n      pop\n        /* \"#utility.yul\":26820:26829   */\n      dup2\n        /* \"#utility.yul\":26814:26818   */\n      dup2\n        /* \"#utility.yul\":26810:26830   */\n      sub\n        /* \"#utility.yul\":26806:26807   */\n      0x00\n        /* \"#utility.yul\":26795:26804   */\n      dup4\n        /* \"#utility.yul\":26791:26808   */\n      add\n        /* \"#utility.yul\":26784:26831   */\n      mstore\n        /* \"#utility.yul\":26848:26979   */\n      tag_501\n        /* \"#utility.yul\":26974:26978   */\n      dup2\n        /* \"#utility.yul\":26848:26979   */\n      tag_243\n      jump\t// in\n    tag_501:\n        /* \"#utility.yul\":26840:26979   */\n      swap1\n      pop\n        /* \"#utility.yul\":26567:26986   */\n      swap2\n      swap1\n      pop\n      jump\t// out\n\n    auxdata: 0xa26469706673582212200ce728625677f2ae24db2ac51d3617c568701d3f9b2c3479cdb0966e205428bd64736f6c634300080a0033\n}\n",
				"bytecode": {
					"linkReferences": {},
					"object": "608060405234801561001057600080fd5b50611e2c806100206000396000f3fe6080604052600436106100a05760003560e01c806357f539671161006457806357f53967146101cd57806363ee965a146101f657806367d407df146102385780638579cacd14610275578063af7cbc0d146102b2578063f0e4de22146102ef576100a7565b806301ff993b146100ac5780630968d4b1146100e95780631bf533a414610127578063498bff00146101505780634fcf1f391461018e576100a7565b366100a757005b600080fd5b3480156100b857600080fd5b506100d360048036038101906100ce9190611221565b610318565b6040516100e091906112bd565b60405180910390f35b3480156100f557600080fd5b50610110600480360381019061010b9190611312565b610353565b60405161011e929190611405565b60405180910390f35b34801561013357600080fd5b5061014e60048036038101906101499190611435565b6103f7565b005b34801561015c57600080fd5b5061017760048036038101906101729190611491565b61062f565b6040516101859291906114e9565b60405180910390f35b34801561019a57600080fd5b506101b560048036038101906101b09190611491565b6106de565b6040516101c4939291906115d0565b60405180910390f35b3480156101d957600080fd5b506101f460048036038101906101ef9190611435565b61099c565b005b34801561020257600080fd5b5061021d60048036038101906102189190611491565b610c5b565b60405161022f9695949392919061167a565b60405180910390f35b34801561024457600080fd5b5061025f600480360381019061025a91906116db565b610d20565b60405161026c9190611708565b60405180910390f35b34801561028157600080fd5b5061029c60048036038101906102979190611491565b610d38565b6040516102a99190611708565b60405180910390f35b3480156102be57600080fd5b506102d960048036038101906102d49190611491565b610d7a565b6040516102e691906117e1565b60405180910390f35b3480156102fb57600080fd5b5061031660048036038101906103119190611491565b610e2e565b005b600030858585856040516020016103339594939291906118f4565b604051602081830303815290604052805190602001209050949350505050565b6060600080600085604051610368919061195a565b90815260200160405180910390209050338160000160006101000a81548173ffffffffffffffffffffffffffffffffffffffff021916908373ffffffffffffffffffffffffffffffffffffffff1602179055508361ffff168160020160006101000a81548163ffffffff021916908363ffffffff16021790555084848061ffff16905092509250509250929050565b81816000808260405161040a919061195a565b90815260200160405180910390209050600115158160030160008573ffffffffffffffffffffffffffffffffffffffff1673ffffffffffffffffffffffffffffffffffffffff16815260200190815260200160002060009054906101000a900460ff161515146104af576040517f08c379a00000000000000000000000000000000000000000000000000000000081526004016104a6906119e3565b60405180910390fd5b83600080826040516104c1919061195a565b90815260200160405180910390209050600115158160020160169054906101000a900460ff16151514610529576040517f08c379a000000000000000000000000000000000000000000000000000000000815260040161052090611a4f565b60405180910390fd5b6000808760405161053a919061195a565b90815260200160405180910390209050600015158160040160003373ffffffffffffffffffffffffffffffffffffffff1673ffffffffffffffffffffffffffffffffffffffff16815260200190815260200160002060009054906101000a900460ff161515146105df576040517f08c379a00000000000000000000000000000000000000000000000000000000081526004016105d690611abb565b60405180910390fd5b6105ea888833610f13565b507ff3f16a15f074b71c5138107dfc7c63b80524d5411cb967caa97d8d9f12b2fd6b88600160405161061d929190611adb565b60405180910390a15050505050505050565b60008060008084604051610643919061195a565b90815260200160405180910390209050806005016000826001016000815481106106705761066f611b04565b5b9060005260206000200160009054906101000a900473ffffffffffffffffffffffffffffffffffffffff1673ffffffffffffffffffffffffffffffffffffffff1673ffffffffffffffffffffffffffffffffffffffff16815260200190815260200160002054925050915091565b6060600080600080856040516106f4919061195a565b90815260200160405180910390209050600073ffffffffffffffffffffffffffffffffffffffff168160000160009054906101000a900473ffffffffffffffffffffffffffffffffffffffff1673ffffffffffffffffffffffffffffffffffffffff161415610798576040517f08c379a000000000000000000000000000000000000000000000000000000000815260040161078f90611b7f565b60405180910390fd5b806001018054905067ffffffffffffffff8111156107b9576107b86110c0565b5b6040519080825280602002602001820160405280156107e75781602001602082028036833780820191505090505b50935060008060005b8360010180549050811161098857600084600501600086600101848154811061081c5761081b611b04565b5b9060005260206000200160009054906101000a900473ffffffffffffffffffffffffffffffffffffffff1673ffffffffffffffffffffffffffffffffffffffff1673ffffffffffffffffffffffffffffffffffffffff168152602001908152602001600020549050838111156108d3578093508460010182815481106108a5576108a4611b04565b5b9060005260206000200160009054906101000a900473ffffffffffffffffffffffffffffffffffffffff1692505b8460050160008660010184815481106108ef576108ee611b04565b5b9060005260206000200160009054906101000a900473ffffffffffffffffffffffffffffffffffffffff1673ffffffffffffffffffffffffffffffffffffffff1673ffffffffffffffffffffffffffffffffffffffff1681526020019081526020016000205488838151811061096857610967611b04565b5b60200260200101818152505050808061098090611bce565b9150506107f0565b508581839550955095505050509193909250565b600080826040516109ad919061195a565b90815260200160405180910390209050600073ffffffffffffffffffffffffffffffffffffffff168160000160009054906101000a900473ffffffffffffffffffffffffffffffffffffffff1673ffffffffffffffffffffffffffffffffffffffff161415610a51576040517f08c379a0000000000000000000000000000000000000000000000000000000008152600401610a4890611c63565b60405180910390fd5b3373ffffffffffffffffffffffffffffffffffffffff168160000160009054906101000a900473ffffffffffffffffffffffffffffffffffffffff1673ffffffffffffffffffffffffffffffffffffffff1614610ab157610ab0611c83565b5b8060020160009054906101000a900463ffffffff1663ffffffff168160020160149054906101000a900461ffff1661ffff1610610b23576040517f08c379a0000000000000000000000000000000000000000000000000000000008152600401610b1a90611d24565b60405180910390fd5b60018160030160008573ffffffffffffffffffffffffffffffffffffffff1673ffffffffffffffffffffffffffffffffffffffff16815260200190815260200160002060006101000a81548160ff02191690831515021790555080600101839080600181540180825580915050600190039060005260206000200160009091909190916101000a81548173ffffffffffffffffffffffffffffffffffffffff021916908373ffffffffffffffffffffffffffffffffffffffff16021790555080600201601481819054906101000a900461ffff1680929190610c0490611d44565b91906101000a81548161ffff021916908361ffff160217905550507fc19c59aa93348e8fc54764bc642eca975e2639f44cc683ef8f027e1529cbda3283604051610c4e9190611d6f565b60405180910390a1505050565b6000818051602081018201805184825260208301602085012081835280955050505050506000915090508060000160009054906101000a900473ffffffffffffffffffffffffffffffffffffffff16908060020160009054906101000a900463ffffffff16908060020160049054906101000a900467ffffffffffffffff169080600201600c9054906101000a900467ffffffffffffffff16908060020160149054906101000a900461ffff16908060020160169054906101000a900460ff16905086565b60016020528060005260406000206000915090505481565b600080600083604051610d4b919061195a565b908152602001604051809103902090508060020160149054906101000a900461ffff1661ffff16915050919050565b606060008083604051610d8d919061195a565b9081526020016040518091039020905080600101805480602002602001604051908101604052809291908181526020018280548015610e2157602002820191906000526020600020905b8160009054906101000a900473ffffffffffffffffffffffffffffffffffffffff1673ffffffffffffffffffffffffffffffffffffffff1681526020019060010190808311610dd7575b5050505050915050919050565b60008082604051610e3f919061195a565b908152602001604051809103902090503373ffffffffffffffffffffffffffffffffffffffff168160000160009054906101000a900473ffffffffffffffffffffffffffffffffffffffff1673ffffffffffffffffffffffffffffffffffffffff1614610ee1576040517f08c379a0000000000000000000000000000000000000000000000000000000008152600401610ed890611dd6565b60405180910390fd5b8060020160169054906101000a900460ff16158160020160166101000a81548160ff0219169083151502179055505050565b600080600084604051610f26919061195a565b9081526020016040518091039020905060018160040160008573ffffffffffffffffffffffffffffffffffffffff1673ffffffffffffffffffffffffffffffffffffffff16815260200190815260200160002060006101000a81548160ff0219169083151502179055508060050160008673ffffffffffffffffffffffffffffffffffffffff1673ffffffffffffffffffffffffffffffffffffffff1681526020019081526020016000206000815480929190610fe290611bce565b91905055508060050160008673ffffffffffffffffffffffffffffffffffffffff1673ffffffffffffffffffffffffffffffffffffffff168152602001908152602001600020549150509392505050565b6000604051905090565b600080fd5b600080fd5b600073ffffffffffffffffffffffffffffffffffffffff82169050919050565b600061107282611047565b9050919050565b61108281611067565b811461108d57600080fd5b50565b60008135905061109f81611079565b92915050565b600080fd5b600080fd5b6000601f19601f8301169050919050565b7f4e487b7100000000000000000000000000000000000000000000000000000000600052604160045260246000fd5b6110f8826110af565b810181811067ffffffffffffffff82111715611117576111166110c0565b5b80604052505050565b600061112a611033565b905061113682826110ef565b919050565b600067ffffffffffffffff821115611156576111556110c0565b5b61115f826110af565b9050602081019050919050565b82818337600083830152505050565b600061118e6111898461113b565b611120565b9050828152602081018484840111156111aa576111a96110aa565b5b6111b584828561116c565b509392505050565b600082601f8301126111d2576111d16110a5565b5b81356111e284826020860161117b565b91505092915050565b6000819050919050565b6111fe816111eb565b811461120957600080fd5b50565b60008135905061121b816111f5565b92915050565b6000806000806080858703121561123b5761123a61103d565b5b600061124987828801611090565b945050602085013567ffffffffffffffff81111561126a57611269611042565b5b611276878288016111bd565b93505060406112878782880161120c565b92505060606112988782880161120c565b91505092959194509250565b6000819050919050565b6112b7816112a4565b82525050565b60006020820190506112d260008301846112ae565b92915050565b600061ffff82169050919050565b6112ef816112d8565b81146112fa57600080fd5b50565b60008135905061130c816112e6565b92915050565b600080604083850312156113295761132861103d565b5b600083013567ffffffffffffffff81111561134757611346611042565b5b611353858286016111bd565b9250506020611364858286016112fd565b9150509250929050565b600081519050919050565b600082825260208201905092915050565b60005b838110156113a857808201518184015260208101905061138d565b838111156113b7576000848401525b50505050565b60006113c88261136e565b6113d28185611379565b93506113e281856020860161138a565b6113eb816110af565b840191505092915050565b6113ff816111eb565b82525050565b6000604082019050818103600083015261141f81856113bd565b905061142e60208301846113f6565b9392505050565b6000806040838503121561144c5761144b61103d565b5b600061145a85828601611090565b925050602083013567ffffffffffffffff81111561147b5761147a611042565b5b611487858286016111bd565b9150509250929050565b6000602082840312156114a7576114a661103d565b5b600082013567ffffffffffffffff8111156114c5576114c4611042565b5b6114d1848285016111bd565b91505092915050565b6114e381611067565b82525050565b60006040820190506114fe60008301856113f6565b61150b60208301846114da565b9392505050565b600081519050919050565b600082825260208201905092915050565b6000819050602082019050919050565b611547816111eb565b82525050565b6000611559838361153e565b60208301905092915050565b6000602082019050919050565b600061157d82611512565b611587818561151d565b93506115928361152e565b8060005b838110156115c35781516115aa888261154d565b97506115b583611565565b925050600181019050611596565b5085935050505092915050565b600060608201905081810360008301526115ea8186611572565b90506115f960208301856114da565b61160660408301846113f6565b949350505050565b600063ffffffff82169050919050565b6116278161160e565b82525050565b600067ffffffffffffffff82169050919050565b61164a8161162d565b82525050565b611659816112d8565b82525050565b60008115159050919050565b6116748161165f565b82525050565b600060c08201905061168f60008301896114da565b61169c602083018861161e565b6116a96040830187611641565b6116b66060830186611641565b6116c36080830185611650565b6116d060a083018461166b565b979650505050505050565b6000602082840312156116f1576116f061103d565b5b60006116ff84828501611090565b91505092915050565b600060208201905061171d60008301846113f6565b92915050565b600081519050919050565b600082825260208201905092915050565b6000819050602082019050919050565b61175881611067565b82525050565b600061176a838361174f565b60208301905092915050565b6000602082019050919050565b600061178e82611723565b611798818561172e565b93506117a38361173f565b8060005b838110156117d45781516117bb888261175e565b97506117c683611776565b9250506001810190506117a7565b5085935050505092915050565b600060208201905081810360008301526117fb8184611783565b905092915050565b60008160601b9050919050565b600061181b82611803565b9050919050565b600061182d82611810565b9050919050565b61184561184082611067565b611822565b82525050565b600081905092915050565b7f6d6574617472616e73616374696f6e20566f74696e6720000000000000000000600082015250565b600061188c60178361184b565b915061189782611856565b601782019050919050565b60006118ad8261136e565b6118b7818561184b565b93506118c781856020860161138a565b80840191505092915050565b6000819050919050565b6118ee6118e9826111eb565b6118d3565b82525050565b60006119008288611834565b60148201915061190f8261187f565b915061191b8287611834565b60148201915061192b82866118a2565b915061193782856118dd565b60208201915061194782846118dd565b6020820191508190509695505050505050565b600061196682846118a2565b915081905092915050565b7f54686973206164647265737320646f6573206e6f74206578697374206173206160008201527f2063616e64696461746500000000000000000000000000000000000000000000602082015250565b60006119cd602a83611379565b91506119d882611971565b604082019050919050565b600060208201905081810360008301526119fc816119c0565b9050919050565b7f766f74696e672068617320656e64656400000000000000000000000000000000600082015250565b6000611a39601083611379565b9150611a4482611a03565b602082019050919050565b60006020820190508181036000830152611a6881611a2c565b9050919050565b7f596f7520616c726561647920766f746564000000000000000000000000000000600082015250565b6000611aa5601183611379565b9150611ab082611a6f565b602082019050919050565b60006020820190508181036000830152611ad481611a98565b9050919050565b6000604082019050611af060008301856114da565b611afd602083018461166b565b9392505050565b7f4e487b7100000000000000000000000000000000000000000000000000000000600052603260045260246000fd5b7f4e6f20706f6c6c20637265617465640000000000000000000000000000000000600082015250565b6000611b69600f83611379565b9150611b7482611b33565b602082019050919050565b60006020820190508181036000830152611b9881611b5c565b9050919050565b7f4e487b7100000000000000000000000000000000000000000000000000000000600052601160045260246000fd5b6000611bd9826111eb565b91507fffffffffffffffffffffffffffffffffffffffffffffffffffffffffffffffff821415611c0c57611c0b611b9f565b5b600182019050919050565b7f79657420746f20637265617465206120706f6c6c000000000000000000000000600082015250565b6000611c4d601483611379565b9150611c5882611c17565b602082019050919050565b60006020820190508181036000830152611c7c81611c40565b9050919050565b7f4e487b7100000000000000000000000000000000000000000000000000000000600052600160045260246000fd5b7f6d6178696d756d206e6f206f662063616e64696461746520706572207365737360008201527f696f6e2072656769737465726564000000000000000000000000000000000000602082015250565b6000611d0e602e83611379565b9150611d1982611cb2565b604082019050919050565b60006020820190508181036000830152611d3d81611d01565b9050919050565b6000611d4f826112d8565b915061ffff821415611d6457611d63611b9f565b5b600182019050919050565b6000602082019050611d8460008301846114da565b92915050565b7f6e6f74207468652063686169726d616e00000000000000000000000000000000600082015250565b6000611dc0601083611379565b9150611dcb82611d8a565b602082019050919050565b60006020820190508181036000830152611def81611db3565b905091905056fea26469706673582212200ce728625677f2ae24db2ac51d3617c568701d3f9b2c3479cdb0966e205428bd64736f6c634300080a0033",
					"opcodes": "PUSH1 0x80 PUSH1 0x40 MSTORE CALLVALUE DUP1 ISZERO PUSH2 0x10 JUMPI PUSH1 0x0 DUP1 REVERT JUMPDEST POP PUSH2 0x1E2C DUP1 PUSH2 0x20 PUSH1 0x0 CODECOPY PUSH1 0x0 RETURN INVALID PUSH1 0x80 PUSH1 0x40 MSTORE PUSH1 0x4 CALLDATASIZE LT PUSH2 0xA0 JUMPI PUSH1 0x0 CALLDATALOAD PUSH1 0xE0 SHR DUP1 PUSH4 0x57F53967 GT PUSH2 0x64 JUMPI DUP1 PUSH4 0x57F53967 EQ PUSH2 0x1CD JUMPI DUP1 PUSH4 0x63EE965A EQ PUSH2 0x1F6 JUMPI DUP1 PUSH4 0x67D407DF EQ PUSH2 0x238 JUMPI DUP1 PUSH4 0x8579CACD EQ PUSH2 0x275 JUMPI DUP1 PUSH4 0xAF7CBC0D EQ PUSH2 0x2B2 JUMPI DUP1 PUSH4 0xF0E4DE22 EQ PUSH2 0x2EF JUMPI PUSH2 0xA7 JUMP JUMPDEST DUP1 PUSH4 0x1FF993B EQ PUSH2 0xAC JUMPI DUP1 PUSH4 0x968D4B1 EQ PUSH2 0xE9 JUMPI DUP1 PUSH4 0x1BF533A4 EQ PUSH2 0x127 JUMPI DUP1 PUSH4 0x498BFF00 EQ PUSH2 0x150 JUMPI DUP1 PUSH4 0x4FCF1F39 EQ PUSH2 0x18E JUMPI PUSH2 0xA7 JUMP JUMPDEST CALLDATASIZE PUSH2 0xA7 JUMPI STOP JUMPDEST PUSH1 0x0 DUP1 REVERT JUMPDEST CALLVALUE DUP1 ISZERO PUSH2 0xB8 JUMPI PUSH1 0x0 DUP1 REVERT JUMPDEST POP PUSH2 0xD3 PUSH1 0x4 DUP1 CALLDATASIZE SUB DUP2 ADD SWAP1 PUSH2 0xCE SWAP2 SWAP1 PUSH2 0x1221 JUMP JUMPDEST PUSH2 0x318 JUMP JUMPDEST PUSH1 0x40 MLOAD PUSH2 0xE0 SWAP2 SWAP1 PUSH2 0x12BD JUMP JUMPDEST PUSH1 0x40 MLOAD DUP1 SWAP2 SUB SWAP1 RETURN JUMPDEST CALLVALUE DUP1 ISZERO PUSH2 0xF5 JUMPI PUSH1 0x0 DUP1 REVERT JUMPDEST POP PUSH2 0x110 PUSH1 0x4 DUP1 CALLDATASIZE SUB DUP2 ADD SWAP1 PUSH2 0x10B SWAP2 SWAP1 PUSH2 0x1312 JUMP JUMPDEST PUSH2 0x353 JUMP JUMPDEST PUSH1 0x40 MLOAD PUSH2 0x11E SWAP3 SWAP2 SWAP1 PUSH2 0x1405 JUMP JUMPDEST PUSH1 0x40 MLOAD DUP1 SWAP2 SUB SWAP1 RETURN JUMPDEST CALLVALUE DUP1 ISZERO PUSH2 0x133 JUMPI PUSH1 0x0 DUP1 REVERT JUMPDEST POP PUSH2 0x14E PUSH1 0x4 DUP1 CALLDATASIZE SUB DUP2 ADD SWAP1 PUSH2 0x149 SWAP2 SWAP1 PUSH2 0x1435 JUMP JUMPDEST PUSH2 0x3F7 JUMP JUMPDEST STOP JUMPDEST CALLVALUE DUP1 ISZERO PUSH2 0x15C JUMPI PUSH1 0x0 DUP1 REVERT JUMPDEST POP PUSH2 0x177 PUSH1 0x4 DUP1 CALLDATASIZE SUB DUP2 ADD SWAP1 PUSH2 0x172 SWAP2 SWAP1 PUSH2 0x1491 JUMP JUMPDEST PUSH2 0x62F JUMP JUMPDEST PUSH1 0x40 MLOAD PUSH2 0x185 SWAP3 SWAP2 SWAP1 PUSH2 0x14E9 JUMP JUMPDEST PUSH1 0x40 MLOAD DUP1 SWAP2 SUB SWAP1 RETURN JUMPDEST CALLVALUE DUP1 ISZERO PUSH2 0x19A JUMPI PUSH1 0x0 DUP1 REVERT JUMPDEST POP PUSH2 0x1B5 PUSH1 0x4 DUP1 CALLDATASIZE SUB DUP2 ADD SWAP1 PUSH2 0x1B0 SWAP2 SWAP1 PUSH2 0x1491 JUMP JUMPDEST PUSH2 0x6DE JUMP JUMPDEST PUSH1 0x40 MLOAD PUSH2 0x1C4 SWAP4 SWAP3 SWAP2 SWAP1 PUSH2 0x15D0 JUMP JUMPDEST PUSH1 0x40 MLOAD DUP1 SWAP2 SUB SWAP1 RETURN JUMPDEST CALLVALUE DUP1 ISZERO PUSH2 0x1D9 JUMPI PUSH1 0x0 DUP1 REVERT JUMPDEST POP PUSH2 0x1F4 PUSH1 0x4 DUP1 CALLDATASIZE SUB DUP2 ADD SWAP1 PUSH2 0x1EF SWAP2 SWAP1 PUSH2 0x1435 JUMP JUMPDEST PUSH2 0x99C JUMP JUMPDEST STOP JUMPDEST CALLVALUE DUP1 ISZERO PUSH2 0x202 JUMPI PUSH1 0x0 DUP1 REVERT JUMPDEST POP PUSH2 0x21D PUSH1 0x4 DUP1 CALLDATASIZE SUB DUP2 ADD SWAP1 PUSH2 0x218 SWAP2 SWAP1 PUSH2 0x1491 JUMP JUMPDEST PUSH2 0xC5B JUMP JUMPDEST PUSH1 0x40 MLOAD PUSH2 0x22F SWAP7 SWAP6 SWAP5 SWAP4 SWAP3 SWAP2 SWAP1 PUSH2 0x167A JUMP JUMPDEST PUSH1 0x40 MLOAD DUP1 SWAP2 SUB SWAP1 RETURN JUMPDEST CALLVALUE DUP1 ISZERO PUSH2 0x244 JUMPI PUSH1 0x0 DUP1 REVERT JUMPDEST POP PUSH2 0x25F PUSH1 0x4 DUP1 CALLDATASIZE SUB DUP2 ADD SWAP1 PUSH2 0x25A SWAP2 SWAP1 PUSH2 0x16DB JUMP JUMPDEST PUSH2 0xD20 JUMP JUMPDEST PUSH1 0x40 MLOAD PUSH2 0x26C SWAP2 SWAP1 PUSH2 0x1708 JUMP JUMPDEST PUSH1 0x40 MLOAD DUP1 SWAP2 SUB SWAP1 RETURN JUMPDEST CALLVALUE DUP1 ISZERO PUSH2 0x281 JUMPI PUSH1 0x0 DUP1 REVERT JUMPDEST POP PUSH2 0x29C PUSH1 0x4 DUP1 CALLDATASIZE SUB DUP2 ADD SWAP1 PUSH2 0x297 SWAP2 SWAP1 PUSH2 0x1491 JUMP JUMPDEST PUSH2 0xD38 JUMP JUMPDEST PUSH1 0x40 MLOAD PUSH2 0x2A9 SWAP2 SWAP1 PUSH2 0x1708 JUMP JUMPDEST PUSH1 0x40 MLOAD DUP1 SWAP2 SUB SWAP1 RETURN JUMPDEST CALLVALUE DUP1 ISZERO PUSH2 0x2BE JUMPI PUSH1 0x0 DUP1 REVERT JUMPDEST POP PUSH2 0x2D9 PUSH1 0x4 DUP1 CALLDATASIZE SUB DUP2 ADD SWAP1 PUSH2 0x2D4 SWAP2 SWAP1 PUSH2 0x1491 JUMP JUMPDEST PUSH2 0xD7A JUMP JUMPDEST PUSH1 0x40 MLOAD PUSH2 0x2E6 SWAP2 SWAP1 PUSH2 0x17E1 JUMP JUMPDEST PUSH1 0x40 MLOAD DUP1 SWAP2 SUB SWAP1 RETURN JUMPDEST CALLVALUE DUP1 ISZERO PUSH2 0x2FB JUMPI PUSH1 0x0 DUP1 REVERT JUMPDEST POP PUSH2 0x316 PUSH1 0x4 DUP1 CALLDATASIZE SUB DUP2 ADD SWAP1 PUSH2 0x311 SWAP2 SWAP1 PUSH2 0x1491 JUMP JUMPDEST PUSH2 0xE2E JUMP JUMPDEST STOP JUMPDEST PUSH1 0x0 ADDRESS DUP6 DUP6 DUP6 DUP6 PUSH1 0x40 MLOAD PUSH1 0x20 ADD PUSH2 0x333 SWAP6 SWAP5 SWAP4 SWAP3 SWAP2 SWAP1 PUSH2 0x18F4 JUMP JUMPDEST PUSH1 0x40 MLOAD PUSH1 0x20 DUP2 DUP4 SUB SUB DUP2 MSTORE SWAP1 PUSH1 0x40 MSTORE DUP1 MLOAD SWAP1 PUSH1 0x20 ADD KECCAK256 SWAP1 POP SWAP5 SWAP4 POP POP POP POP JUMP JUMPDEST PUSH1 0x60 PUSH1 0x0 DUP1 PUSH1 0x0 DUP6 PUSH1 0x40 MLOAD PUSH2 0x368 SWAP2 SWAP1 PUSH2 0x195A JUMP JUMPDEST SWAP1 DUP2 MSTORE PUSH1 0x20 ADD PUSH1 0x40 MLOAD DUP1 SWAP2 SUB SWAP1 KECCAK256 SWAP1 POP CALLER DUP2 PUSH1 0x0 ADD PUSH1 0x0 PUSH2 0x100 EXP DUP2 SLOAD DUP2 PUSH20 0xFFFFFFFFFFFFFFFFFFFFFFFFFFFFFFFFFFFFFFFF MUL NOT AND SWAP1 DUP4 PUSH20 0xFFFFFFFFFFFFFFFFFFFFFFFFFFFFFFFFFFFFFFFF AND MUL OR SWAP1 SSTORE POP DUP4 PUSH2 0xFFFF AND DUP2 PUSH1 0x2 ADD PUSH1 0x0 PUSH2 0x100 EXP DUP2 SLOAD DUP2 PUSH4 0xFFFFFFFF MUL NOT AND SWAP1 DUP4 PUSH4 0xFFFFFFFF AND MUL OR SWAP1 SSTORE POP DUP5 DUP5 DUP1 PUSH2 0xFFFF AND SWAP1 POP SWAP3 POP SWAP3 POP POP SWAP3 POP SWAP3 SWAP1 POP JUMP JUMPDEST DUP2 DUP2 PUSH1 0x0 DUP1 DUP3 PUSH1 0x40 MLOAD PUSH2 0x40A SWAP2 SWAP1 PUSH2 0x195A JUMP JUMPDEST SWAP1 DUP2 MSTORE PUSH1 0x20 ADD PUSH1 0x40 MLOAD DUP1 SWAP2 SUB SWAP1 KECCAK256 SWAP1 POP PUSH1 0x1 ISZERO ISZERO DUP2 PUSH1 0x3 ADD PUSH1 0x0 DUP6 PUSH20 0xFFFFFFFFFFFFFFFFFFFFFFFFFFFFFFFFFFFFFFFF AND PUSH20 0xFFFFFFFFFFFFFFFFFFFFFFFFFFFFFFFFFFFFFFFF AND DUP2 MSTORE PUSH1 0x20 ADD SWAP1 DUP2 MSTORE PUSH1 0x20 ADD PUSH1 0x0 KECCAK256 PUSH1 0x0 SWAP1 SLOAD SWAP1 PUSH2 0x100 EXP SWAP1 DIV PUSH1 0xFF AND ISZERO ISZERO EQ PUSH2 0x4AF JUMPI PUSH1 0x40 MLOAD PUSH32 0x8C379A000000000000000000000000000000000000000000000000000000000 DUP2 MSTORE PUSH1 0x4 ADD PUSH2 0x4A6 SWAP1 PUSH2 0x19E3 JUMP JUMPDEST PUSH1 0x40 MLOAD DUP1 SWAP2 SUB SWAP1 REVERT JUMPDEST DUP4 PUSH1 0x0 DUP1 DUP3 PUSH1 0x40 MLOAD PUSH2 0x4C1 SWAP2 SWAP1 PUSH2 0x195A JUMP JUMPDEST SWAP1 DUP2 MSTORE PUSH1 0x20 ADD PUSH1 0x40 MLOAD DUP1 SWAP2 SUB SWAP1 KECCAK256 SWAP1 POP PUSH1 0x1 ISZERO ISZERO DUP2 PUSH1 0x2 ADD PUSH1 0x16 SWAP1 SLOAD SWAP1 PUSH2 0x100 EXP SWAP1 DIV PUSH1 0xFF AND ISZERO ISZERO EQ PUSH2 0x529 JUMPI PUSH1 0x40 MLOAD PUSH32 0x8C379A000000000000000000000000000000000000000000000000000000000 DUP2 MSTORE PUSH1 0x4 ADD PUSH2 0x520 SWAP1 PUSH2 0x1A4F JUMP JUMPDEST PUSH1 0x40 MLOAD DUP1 SWAP2 SUB SWAP1 REVERT JUMPDEST PUSH1 0x0 DUP1 DUP8 PUSH1 0x40 MLOAD PUSH2 0x53A SWAP2 SWAP1 PUSH2 0x195A JUMP JUMPDEST SWAP1 DUP2 MSTORE PUSH1 0x20 ADD PUSH1 0x40 MLOAD DUP1 SWAP2 SUB SWAP1 KECCAK256 SWAP1 POP PUSH1 0x0 ISZERO ISZERO DUP2 PUSH1 0x4 ADD PUSH1 0x0 CALLER PUSH20 0xFFFFFFFFFFFFFFFFFFFFFFFFFFFFFFFFFFFFFFFF AND PUSH20 0xFFFFFFFFFFFFFFFFFFFFFFFFFFFFFFFFFFFFFFFF AND DUP2 MSTORE PUSH1 0x20 ADD SWAP1 DUP2 MSTORE PUSH1 0x20 ADD PUSH1 0x0 KECCAK256 PUSH1 0x0 SWAP1 SLOAD SWAP1 PUSH2 0x100 EXP SWAP1 DIV PUSH1 0xFF AND ISZERO ISZERO EQ PUSH2 0x5DF JUMPI PUSH1 0x40 MLOAD PUSH32 0x8C379A000000000000000000000000000000000000000000000000000000000 DUP2 MSTORE PUSH1 0x4 ADD PUSH2 0x5D6 SWAP1 PUSH2 0x1ABB JUMP JUMPDEST PUSH1 0x40 MLOAD DUP1 SWAP2 SUB SWAP1 REVERT JUMPDEST PUSH2 0x5EA DUP9 DUP9 CALLER PUSH2 0xF13 JUMP JUMPDEST POP PUSH32 0xF3F16A15F074B71C5138107DFC7C63B80524D5411CB967CAA97D8D9F12B2FD6B DUP9 PUSH1 0x1 PUSH1 0x40 MLOAD PUSH2 0x61D SWAP3 SWAP2 SWAP1 PUSH2 0x1ADB JUMP JUMPDEST PUSH1 0x40 MLOAD DUP1 SWAP2 SUB SWAP1 LOG1 POP POP POP POP POP POP POP POP JUMP JUMPDEST PUSH1 0x0 DUP1 PUSH1 0x0 DUP1 DUP5 PUSH1 0x40 MLOAD PUSH2 0x643 SWAP2 SWAP1 PUSH2 0x195A JUMP JUMPDEST SWAP1 DUP2 MSTORE PUSH1 0x20 ADD PUSH1 0x40 MLOAD DUP1 SWAP2 SUB SWAP1 KECCAK256 SWAP1 POP DUP1 PUSH1 0x5 ADD PUSH1 0x0 DUP3 PUSH1 0x1 ADD PUSH1 0x0 DUP2 SLOAD DUP2 LT PUSH2 0x670 JUMPI PUSH2 0x66F PUSH2 0x1B04 JUMP JUMPDEST JUMPDEST SWAP1 PUSH1 0x0 MSTORE PUSH1 0x20 PUSH1 0x0 KECCAK256 ADD PUSH1 0x0 SWAP1 SLOAD SWAP1 PUSH2 0x100 EXP SWAP1 DIV PUSH20 0xFFFFFFFFFFFFFFFFFFFFFFFFFFFFFFFFFFFFFFFF AND PUSH20 0xFFFFFFFFFFFFFFFFFFFFFFFFFFFFFFFFFFFFFFFF AND PUSH20 0xFFFFFFFFFFFFFFFFFFFFFFFFFFFFFFFFFFFFFFFF AND DUP2 MSTORE PUSH1 0x20 ADD SWAP1 DUP2 MSTORE PUSH1 0x20 ADD PUSH1 0x0 KECCAK256 SLOAD SWAP3 POP POP SWAP2 POP SWAP2 JUMP JUMPDEST PUSH1 0x60 PUSH1 0x0 DUP1 PUSH1 0x0 DUP1 DUP6 PUSH1 0x40 MLOAD PUSH2 0x6F4 SWAP2 SWAP1 PUSH2 0x195A JUMP JUMPDEST SWAP1 DUP2 MSTORE PUSH1 0x20 ADD PUSH1 0x40 MLOAD DUP1 SWAP2 SUB SWAP1 KECCAK256 SWAP1 POP PUSH1 0x0 PUSH20 0xFFFFFFFFFFFFFFFFFFFFFFFFFFFFFFFFFFFFFFFF AND DUP2 PUSH1 0x0 ADD PUSH1 0x0 SWAP1 SLOAD SWAP1 PUSH2 0x100 EXP SWAP1 DIV PUSH20 0xFFFFFFFFFFFFFFFFFFFFFFFFFFFFFFFFFFFFFFFF AND PUSH20 0xFFFFFFFFFFFFFFFFFFFFFFFFFFFFFFFFFFFFFFFF AND EQ ISZERO PUSH2 0x798 JUMPI PUSH1 0x40 MLOAD PUSH32 0x8C379A000000000000000000000000000000000000000000000000000000000 DUP2 MSTORE PUSH1 0x4 ADD PUSH2 0x78F SWAP1 PUSH2 0x1B7F JUMP JUMPDEST PUSH1 0x40 MLOAD DUP1 SWAP2 SUB SWAP1 REVERT JUMPDEST DUP1 PUSH1 0x1 ADD DUP1 SLOAD SWAP1 POP PUSH8 0xFFFFFFFFFFFFFFFF DUP2 GT ISZERO PUSH2 0x7B9 JUMPI PUSH2 0x7B8 PUSH2 0x10C0 JUMP JUMPDEST JUMPDEST PUSH1 0x40 MLOAD SWAP1 DUP1 DUP3 MSTORE DUP1 PUSH1 0x20 MUL PUSH1 0x20 ADD DUP3 ADD PUSH1 0x40 MSTORE DUP1 ISZERO PUSH2 0x7E7 JUMPI DUP2 PUSH1 0x20 ADD PUSH1 0x20 DUP3 MUL DUP1 CALLDATASIZE DUP4 CALLDATACOPY DUP1 DUP3 ADD SWAP2 POP POP SWAP1 POP JUMPDEST POP SWAP4 POP PUSH1 0x0 DUP1 PUSH1 0x0 JUMPDEST DUP4 PUSH1 0x1 ADD DUP1 SLOAD SWAP1 POP DUP2 GT PUSH2 0x988 JUMPI PUSH1 0x0 DUP5 PUSH1 0x5 ADD PUSH1 0x0 DUP7 PUSH1 0x1 ADD DUP5 DUP2 SLOAD DUP2 LT PUSH2 0x81C JUMPI PUSH2 0x81B PUSH2 0x1B04 JUMP JUMPDEST JUMPDEST SWAP1 PUSH1 0x0 MSTORE PUSH1 0x20 PUSH1 0x0 KECCAK256 ADD PUSH1 0x0 SWAP1 SLOAD SWAP1 PUSH2 0x100 EXP SWAP1 DIV PUSH20 0xFFFFFFFFFFFFFFFFFFFFFFFFFFFFFFFFFFFFFFFF AND PUSH20 0xFFFFFFFFFFFFFFFFFFFFFFFFFFFFFFFFFFFFFFFF AND PUSH20 0xFFFFFFFFFFFFFFFFFFFFFFFFFFFFFFFFFFFFFFFF AND DUP2 MSTORE PUSH1 0x20 ADD SWAP1 DUP2 MSTORE PUSH1 0x20 ADD PUSH1 0x0 KECCAK256 SLOAD SWAP1 POP DUP4 DUP2 GT ISZERO PUSH2 0x8D3 JUMPI DUP1 SWAP4 POP DUP5 PUSH1 0x1 ADD DUP3 DUP2 SLOAD DUP2 LT PUSH2 0x8A5 JUMPI PUSH2 0x8A4 PUSH2 0x1B04 JUMP JUMPDEST JUMPDEST SWAP1 PUSH1 0x0 MSTORE PUSH1 0x20 PUSH1 0x0 KECCAK256 ADD PUSH1 0x0 SWAP1 SLOAD SWAP1 PUSH2 0x100 EXP SWAP1 DIV PUSH20 0xFFFFFFFFFFFFFFFFFFFFFFFFFFFFFFFFFFFFFFFF AND SWAP3 POP JUMPDEST DUP5 PUSH1 0x5 ADD PUSH1 0x0 DUP7 PUSH1 0x1 ADD DUP5 DUP2 SLOAD DUP2 LT PUSH2 0x8EF JUMPI PUSH2 0x8EE PUSH2 0x1B04 JUMP JUMPDEST JUMPDEST SWAP1 PUSH1 0x0 MSTORE PUSH1 0x20 PUSH1 0x0 KECCAK256 ADD PUSH1 0x0 SWAP1 SLOAD SWAP1 PUSH2 0x100 EXP SWAP1 DIV PUSH20 0xFFFFFFFFFFFFFFFFFFFFFFFFFFFFFFFFFFFFFFFF AND PUSH20 0xFFFFFFFFFFFFFFFFFFFFFFFFFFFFFFFFFFFFFFFF AND PUSH20 0xFFFFFFFFFFFFFFFFFFFFFFFFFFFFFFFFFFFFFFFF AND DUP2 MSTORE PUSH1 0x20 ADD SWAP1 DUP2 MSTORE PUSH1 0x20 ADD PUSH1 0x0 KECCAK256 SLOAD DUP9 DUP4 DUP2 MLOAD DUP2 LT PUSH2 0x968 JUMPI PUSH2 0x967 PUSH2 0x1B04 JUMP JUMPDEST JUMPDEST PUSH1 0x20 MUL PUSH1 0x20 ADD ADD DUP2 DUP2 MSTORE POP POP POP DUP1 DUP1 PUSH2 0x980 SWAP1 PUSH2 0x1BCE JUMP JUMPDEST SWAP2 POP POP PUSH2 0x7F0 JUMP JUMPDEST POP DUP6 DUP2 DUP4 SWAP6 POP SWAP6 POP SWAP6 POP POP POP POP SWAP2 SWAP4 SWAP1 SWAP3 POP JUMP JUMPDEST PUSH1 0x0 DUP1 DUP3 PUSH1 0x40 MLOAD PUSH2 0x9AD SWAP2 SWAP1 PUSH2 0x195A JUMP JUMPDEST SWAP1 DUP2 MSTORE PUSH1 0x20 ADD PUSH1 0x40 MLOAD DUP1 SWAP2 SUB SWAP1 KECCAK256 SWAP1 POP PUSH1 0x0 PUSH20 0xFFFFFFFFFFFFFFFFFFFFFFFFFFFFFFFFFFFFFFFF AND DUP2 PUSH1 0x0 ADD PUSH1 0x0 SWAP1 SLOAD SWAP1 PUSH2 0x100 EXP SWAP1 DIV PUSH20 0xFFFFFFFFFFFFFFFFFFFFFFFFFFFFFFFFFFFFFFFF AND PUSH20 0xFFFFFFFFFFFFFFFFFFFFFFFFFFFFFFFFFFFFFFFF AND EQ ISZERO PUSH2 0xA51 JUMPI PUSH1 0x40 MLOAD PUSH32 0x8C379A000000000000000000000000000000000000000000000000000000000 DUP2 MSTORE PUSH1 0x4 ADD PUSH2 0xA48 SWAP1 PUSH2 0x1C63 JUMP JUMPDEST PUSH1 0x40 MLOAD DUP1 SWAP2 SUB SWAP1 REVERT JUMPDEST CALLER PUSH20 0xFFFFFFFFFFFFFFFFFFFFFFFFFFFFFFFFFFFFFFFF AND DUP2 PUSH1 0x0 ADD PUSH1 0x0 SWAP1 SLOAD SWAP1 PUSH2 0x100 EXP SWAP1 DIV PUSH20 0xFFFFFFFFFFFFFFFFFFFFFFFFFFFFFFFFFFFFFFFF AND PUSH20 0xFFFFFFFFFFFFFFFFFFFFFFFFFFFFFFFFFFFFFFFF AND EQ PUSH2 0xAB1 JUMPI PUSH2 0xAB0 PUSH2 0x1C83 JUMP JUMPDEST JUMPDEST DUP1 PUSH1 0x2 ADD PUSH1 0x0 SWAP1 SLOAD SWAP1 PUSH2 0x100 EXP SWAP1 DIV PUSH4 0xFFFFFFFF AND PUSH4 0xFFFFFFFF AND DUP2 PUSH1 0x2 ADD PUSH1 0x14 SWAP1 SLOAD SWAP1 PUSH2 0x100 EXP SWAP1 DIV PUSH2 0xFFFF AND PUSH2 0xFFFF AND LT PUSH2 0xB23 JUMPI PUSH1 0x40 MLOAD PUSH32 0x8C379A000000000000000000000000000000000000000000000000000000000 DUP2 MSTORE PUSH1 0x4 ADD PUSH2 0xB1A SWAP1 PUSH2 0x1D24 JUMP JUMPDEST PUSH1 0x40 MLOAD DUP1 SWAP2 SUB SWAP1 REVERT JUMPDEST PUSH1 0x1 DUP2 PUSH1 0x3 ADD PUSH1 0x0 DUP6 PUSH20 0xFFFFFFFFFFFFFFFFFFFFFFFFFFFFFFFFFFFFFFFF AND PUSH20 0xFFFFFFFFFFFFFFFFFFFFFFFFFFFFFFFFFFFFFFFF AND DUP2 MSTORE PUSH1 0x20 ADD SWAP1 DUP2 MSTORE PUSH1 0x20 ADD PUSH1 0x0 KECCAK256 PUSH1 0x0 PUSH2 0x100 EXP DUP2 SLOAD DUP2 PUSH1 0xFF MUL NOT AND SWAP1 DUP4 ISZERO ISZERO MUL OR SWAP1 SSTORE POP DUP1 PUSH1 0x1 ADD DUP4 SWAP1 DUP1 PUSH1 0x1 DUP2 SLOAD ADD DUP1 DUP3 SSTORE DUP1 SWAP2 POP POP PUSH1 0x1 SWAP1 SUB SWAP1 PUSH1 0x0 MSTORE PUSH1 0x20 PUSH1 0x0 KECCAK256 ADD PUSH1 0x0 SWAP1 SWAP2 SWAP1 SWAP2 SWAP1 SWAP2 PUSH2 0x100 EXP DUP2 SLOAD DUP2 PUSH20 0xFFFFFFFFFFFFFFFFFFFFFFFFFFFFFFFFFFFFFFFF MUL NOT AND SWAP1 DUP4 PUSH20 0xFFFFFFFFFFFFFFFFFFFFFFFFFFFFFFFFFFFFFFFF AND MUL OR SWAP1 SSTORE POP DUP1 PUSH1 0x2 ADD PUSH1 0x14 DUP2 DUP2 SWAP1 SLOAD SWAP1 PUSH2 0x100 EXP SWAP1 DIV PUSH2 0xFFFF AND DUP1 SWAP3 SWAP2 SWAP1 PUSH2 0xC04 SWAP1 PUSH2 0x1D44 JUMP JUMPDEST SWAP2 SWAP1 PUSH2 0x100 EXP DUP2 SLOAD DUP2 PUSH2 0xFFFF MUL NOT AND SWAP1 DUP4 PUSH2 0xFFFF AND MUL OR SWAP1 SSTORE POP POP PUSH32 0xC19C59AA93348E8FC54764BC642ECA975E2639F44CC683EF8F027E1529CBDA32 DUP4 PUSH1 0x40 MLOAD PUSH2 0xC4E SWAP2 SWAP1 PUSH2 0x1D6F JUMP JUMPDEST PUSH1 0x40 MLOAD DUP1 SWAP2 SUB SWAP1 LOG1 POP POP POP JUMP JUMPDEST PUSH1 0x0 DUP2 DUP1 MLOAD PUSH1 0x20 DUP2 ADD DUP3 ADD DUP1 MLOAD DUP5 DUP3 MSTORE PUSH1 0x20 DUP4 ADD PUSH1 0x20 DUP6 ADD KECCAK256 DUP2 DUP4 MSTORE DUP1 SWAP6 POP POP POP POP POP POP PUSH1 0x0 SWAP2 POP SWAP1 POP DUP1 PUSH1 0x0 ADD PUSH1 0x0 SWAP1 SLOAD SWAP1 PUSH2 0x100 EXP SWAP1 DIV PUSH20 0xFFFFFFFFFFFFFFFFFFFFFFFFFFFFFFFFFFFFFFFF AND SWAP1 DUP1 PUSH1 0x2 ADD PUSH1 0x0 SWAP1 SLOAD SWAP1 PUSH2 0x100 EXP SWAP1 DIV PUSH4 0xFFFFFFFF AND SWAP1 DUP1 PUSH1 0x2 ADD PUSH1 0x4 SWAP1 SLOAD SWAP1 PUSH2 0x100 EXP SWAP1 DIV PUSH8 0xFFFFFFFFFFFFFFFF AND SWAP1 DUP1 PUSH1 0x2 ADD PUSH1 0xC SWAP1 SLOAD SWAP1 PUSH2 0x100 EXP SWAP1 DIV PUSH8 0xFFFFFFFFFFFFFFFF AND SWAP1 DUP1 PUSH1 0x2 ADD PUSH1 0x14 SWAP1 SLOAD SWAP1 PUSH2 0x100 EXP SWAP1 DIV PUSH2 0xFFFF AND SWAP1 DUP1 PUSH1 0x2 ADD PUSH1 0x16 SWAP1 SLOAD SWAP1 PUSH2 0x100 EXP SWAP1 DIV PUSH1 0xFF AND SWAP1 POP DUP7 JUMP JUMPDEST PUSH1 0x1 PUSH1 0x20 MSTORE DUP1 PUSH1 0x0 MSTORE PUSH1 0x40 PUSH1 0x0 KECCAK256 PUSH1 0x0 SWAP2 POP SWAP1 POP SLOAD DUP2 JUMP JUMPDEST PUSH1 0x0 DUP1 PUSH1 0x0 DUP4 PUSH1 0x40 MLOAD PUSH2 0xD4B SWAP2 SWAP1 PUSH2 0x195A JUMP JUMPDEST SWAP1 DUP2 MSTORE PUSH1 0x20 ADD PUSH1 0x40 MLOAD DUP1 SWAP2 SUB SWAP1 KECCAK256 SWAP1 POP DUP1 PUSH1 0x2 ADD PUSH1 0x14 SWAP1 SLOAD SWAP1 PUSH2 0x100 EXP SWAP1 DIV PUSH2 0xFFFF AND PUSH2 0xFFFF AND SWAP2 POP POP SWAP2 SWAP1 POP JUMP JUMPDEST PUSH1 0x60 PUSH1 0x0 DUP1 DUP4 PUSH1 0x40 MLOAD PUSH2 0xD8D SWAP2 SWAP1 PUSH2 0x195A JUMP JUMPDEST SWAP1 DUP2 MSTORE PUSH1 0x20 ADD PUSH1 0x40 MLOAD DUP1 SWAP2 SUB SWAP1 KECCAK256 SWAP1 POP DUP1 PUSH1 0x1 ADD DUP1 SLOAD DUP1 PUSH1 0x20 MUL PUSH1 0x20 ADD PUSH1 0x40 MLOAD SWAP1 DUP2 ADD PUSH1 0x40 MSTORE DUP1 SWAP3 SWAP2 SWAP1 DUP2 DUP2 MSTORE PUSH1 0x20 ADD DUP3 DUP1 SLOAD DUP1 ISZERO PUSH2 0xE21 JUMPI PUSH1 0x20 MUL DUP3 ADD SWAP2 SWAP1 PUSH1 0x0 MSTORE PUSH1 0x20 PUSH1 0x0 KECCAK256 SWAP1 JUMPDEST DUP2 PUSH1 0x0 SWAP1 SLOAD SWAP1 PUSH2 0x100 EXP SWAP1 DIV PUSH20 0xFFFFFFFFFFFFFFFFFFFFFFFFFFFFFFFFFFFFFFFF AND PUSH20 0xFFFFFFFFFFFFFFFFFFFFFFFFFFFFFFFFFFFFFFFF AND DUP2 MSTORE PUSH1 0x20 ADD SWAP1 PUSH1 0x1 ADD SWAP1 DUP1 DUP4 GT PUSH2 0xDD7 JUMPI JUMPDEST POP POP POP POP POP SWAP2 POP POP SWAP2 SWAP1 POP JUMP JUMPDEST PUSH1 0x0 DUP1 DUP3 PUSH1 0x40 MLOAD PUSH2 0xE3F SWAP2 SWAP1 PUSH2 0x195A JUMP JUMPDEST SWAP1 DUP2 MSTORE PUSH1 0x20 ADD PUSH1 0x40 MLOAD DUP1 SWAP2 SUB SWAP1 KECCAK256 SWAP1 POP CALLER PUSH20 0xFFFFFFFFFFFFFFFFFFFFFFFFFFFFFFFFFFFFFFFF AND DUP2 PUSH1 0x0 ADD PUSH1 0x0 SWAP1 SLOAD SWAP1 PUSH2 0x100 EXP SWAP1 DIV PUSH20 0xFFFFFFFFFFFFFFFFFFFFFFFFFFFFFFFFFFFFFFFF AND PUSH20 0xFFFFFFFFFFFFFFFFFFFFFFFFFFFFFFFFFFFFFFFF AND EQ PUSH2 0xEE1 JUMPI PUSH1 0x40 MLOAD PUSH32 0x8C379A000000000000000000000000000000000000000000000000000000000 DUP2 MSTORE PUSH1 0x4 ADD PUSH2 0xED8 SWAP1 PUSH2 0x1DD6 JUMP JUMPDEST PUSH1 0x40 MLOAD DUP1 SWAP2 SUB SWAP1 REVERT JUMPDEST DUP1 PUSH1 0x2 ADD PUSH1 0x16 SWAP1 SLOAD SWAP1 PUSH2 0x100 EXP SWAP1 DIV PUSH1 0xFF AND ISZERO DUP2 PUSH1 0x2 ADD PUSH1 0x16 PUSH2 0x100 EXP DUP2 SLOAD DUP2 PUSH1 0xFF MUL NOT AND SWAP1 DUP4 ISZERO ISZERO MUL OR SWAP1 SSTORE POP POP POP JUMP JUMPDEST PUSH1 0x0 DUP1 PUSH1 0x0 DUP5 PUSH1 0x40 MLOAD PUSH2 0xF26 SWAP2 SWAP1 PUSH2 0x195A JUMP JUMPDEST SWAP1 DUP2 MSTORE PUSH1 0x20 ADD PUSH1 0x40 MLOAD DUP1 SWAP2 SUB SWAP1 KECCAK256 SWAP1 POP PUSH1 0x1 DUP2 PUSH1 0x4 ADD PUSH1 0x0 DUP6 PUSH20 0xFFFFFFFFFFFFFFFFFFFFFFFFFFFFFFFFFFFFFFFF AND PUSH20 0xFFFFFFFFFFFFFFFFFFFFFFFFFFFFFFFFFFFFFFFF AND DUP2 MSTORE PUSH1 0x20 ADD SWAP1 DUP2 MSTORE PUSH1 0x20 ADD PUSH1 0x0 KECCAK256 PUSH1 0x0 PUSH2 0x100 EXP DUP2 SLOAD DUP2 PUSH1 0xFF MUL NOT AND SWAP1 DUP4 ISZERO ISZERO MUL OR SWAP1 SSTORE POP DUP1 PUSH1 0x5 ADD PUSH1 0x0 DUP7 PUSH20 0xFFFFFFFFFFFFFFFFFFFFFFFFFFFFFFFFFFFFFFFF AND PUSH20 0xFFFFFFFFFFFFFFFFFFFFFFFFFFFFFFFFFFFFFFFF AND DUP2 MSTORE PUSH1 0x20 ADD SWAP1 DUP2 MSTORE PUSH1 0x20 ADD PUSH1 0x0 KECCAK256 PUSH1 0x0 DUP2 SLOAD DUP1 SWAP3 SWAP2 SWAP1 PUSH2 0xFE2 SWAP1 PUSH2 0x1BCE JUMP JUMPDEST SWAP2 SWAP1 POP SSTORE POP DUP1 PUSH1 0x5 ADD PUSH1 0x0 DUP7 PUSH20 0xFFFFFFFFFFFFFFFFFFFFFFFFFFFFFFFFFFFFFFFF AND PUSH20 0xFFFFFFFFFFFFFFFFFFFFFFFFFFFFFFFFFFFFFFFF AND DUP2 MSTORE PUSH1 0x20 ADD SWAP1 DUP2 MSTORE PUSH1 0x20 ADD PUSH1 0x0 KECCAK256 SLOAD SWAP2 POP POP SWAP4 SWAP3 POP POP POP JUMP JUMPDEST PUSH1 0x0 PUSH1 0x40 MLOAD SWAP1 POP SWAP1 JUMP JUMPDEST PUSH1 0x0 DUP1 REVERT JUMPDEST PUSH1 0x0 DUP1 REVERT JUMPDEST PUSH1 0x0 PUSH20 0xFFFFFFFFFFFFFFFFFFFFFFFFFFFFFFFFFFFFFFFF DUP3 AND SWAP1 POP SWAP2 SWAP1 POP JUMP JUMPDEST PUSH1 0x0 PUSH2 0x1072 DUP3 PUSH2 0x1047 JUMP JUMPDEST SWAP1 POP SWAP2 SWAP1 POP JUMP JUMPDEST PUSH2 0x1082 DUP2 PUSH2 0x1067 JUMP JUMPDEST DUP2 EQ PUSH2 0x108D JUMPI PUSH1 0x0 DUP1 REVERT JUMPDEST POP JUMP JUMPDEST PUSH1 0x0 DUP2 CALLDATALOAD SWAP1 POP PUSH2 0x109F DUP2 PUSH2 0x1079 JUMP JUMPDEST SWAP3 SWAP2 POP POP JUMP JUMPDEST PUSH1 0x0 DUP1 REVERT JUMPDEST PUSH1 0x0 DUP1 REVERT JUMPDEST PUSH1 0x0 PUSH1 0x1F NOT PUSH1 0x1F DUP4 ADD AND SWAP1 POP SWAP2 SWAP1 POP JUMP JUMPDEST PUSH32 0x4E487B7100000000000000000000000000000000000000000000000000000000 PUSH1 0x0 MSTORE PUSH1 0x41 PUSH1 0x4 MSTORE PUSH1 0x24 PUSH1 0x0 REVERT JUMPDEST PUSH2 0x10F8 DUP3 PUSH2 0x10AF JUMP JUMPDEST DUP2 ADD DUP2 DUP2 LT PUSH8 0xFFFFFFFFFFFFFFFF DUP3 GT OR ISZERO PUSH2 0x1117 JUMPI PUSH2 0x1116 PUSH2 0x10C0 JUMP JUMPDEST JUMPDEST DUP1 PUSH1 0x40 MSTORE POP POP POP JUMP JUMPDEST PUSH1 0x0 PUSH2 0x112A PUSH2 0x1033 JUMP JUMPDEST SWAP1 POP PUSH2 0x1136 DUP3 DUP3 PUSH2 0x10EF JUMP JUMPDEST SWAP2 SWAP1 POP JUMP JUMPDEST PUSH1 0x0 PUSH8 0xFFFFFFFFFFFFFFFF DUP3 GT ISZERO PUSH2 0x1156 JUMPI PUSH2 0x1155 PUSH2 0x10C0 JUMP JUMPDEST JUMPDEST PUSH2 0x115F DUP3 PUSH2 0x10AF JUMP JUMPDEST SWAP1 POP PUSH1 0x20 DUP2 ADD SWAP1 POP SWAP2 SWAP1 POP JUMP JUMPDEST DUP3 DUP2 DUP4 CALLDATACOPY PUSH1 0x0 DUP4 DUP4 ADD MSTORE POP POP POP JUMP JUMPDEST PUSH1 0x0 PUSH2 0x118E PUSH2 0x1189 DUP5 PUSH2 0x113B JUMP JUMPDEST PUSH2 0x1120 JUMP JUMPDEST SWAP1 POP DUP3 DUP2 MSTORE PUSH1 0x20 DUP2 ADD DUP5 DUP5 DUP5 ADD GT ISZERO PUSH2 0x11AA JUMPI PUSH2 0x11A9 PUSH2 0x10AA JUMP JUMPDEST JUMPDEST PUSH2 0x11B5 DUP5 DUP3 DUP6 PUSH2 0x116C JUMP JUMPDEST POP SWAP4 SWAP3 POP POP POP JUMP JUMPDEST PUSH1 0x0 DUP3 PUSH1 0x1F DUP4 ADD SLT PUSH2 0x11D2 JUMPI PUSH2 0x11D1 PUSH2 0x10A5 JUMP JUMPDEST JUMPDEST DUP2 CALLDATALOAD PUSH2 0x11E2 DUP5 DUP3 PUSH1 0x20 DUP7 ADD PUSH2 0x117B JUMP JUMPDEST SWAP2 POP POP SWAP3 SWAP2 POP POP JUMP JUMPDEST PUSH1 0x0 DUP2 SWAP1 POP SWAP2 SWAP1 POP JUMP JUMPDEST PUSH2 0x11FE DUP2 PUSH2 0x11EB JUMP JUMPDEST DUP2 EQ PUSH2 0x1209 JUMPI PUSH1 0x0 DUP1 REVERT JUMPDEST POP JUMP JUMPDEST PUSH1 0x0 DUP2 CALLDATALOAD SWAP1 POP PUSH2 0x121B DUP2 PUSH2 0x11F5 JUMP JUMPDEST SWAP3 SWAP2 POP POP JUMP JUMPDEST PUSH1 0x0 DUP1 PUSH1 0x0 DUP1 PUSH1 0x80 DUP6 DUP8 SUB SLT ISZERO PUSH2 0x123B JUMPI PUSH2 0x123A PUSH2 0x103D JUMP JUMPDEST JUMPDEST PUSH1 0x0 PUSH2 0x1249 DUP8 DUP3 DUP9 ADD PUSH2 0x1090 JUMP JUMPDEST SWAP5 POP POP PUSH1 0x20 DUP6 ADD CALLDATALOAD PUSH8 0xFFFFFFFFFFFFFFFF DUP2 GT ISZERO PUSH2 0x126A JUMPI PUSH2 0x1269 PUSH2 0x1042 JUMP JUMPDEST JUMPDEST PUSH2 0x1276 DUP8 DUP3 DUP9 ADD PUSH2 0x11BD JUMP JUMPDEST SWAP4 POP POP PUSH1 0x40 PUSH2 0x1287 DUP8 DUP3 DUP9 ADD PUSH2 0x120C JUMP JUMPDEST SWAP3 POP POP PUSH1 0x60 PUSH2 0x1298 DUP8 DUP3 DUP9 ADD PUSH2 0x120C JUMP JUMPDEST SWAP2 POP POP SWAP3 SWAP6 SWAP2 SWAP5 POP SWAP3 POP JUMP JUMPDEST PUSH1 0x0 DUP2 SWAP1 POP SWAP2 SWAP1 POP JUMP JUMPDEST PUSH2 0x12B7 DUP2 PUSH2 0x12A4 JUMP JUMPDEST DUP3 MSTORE POP POP JUMP JUMPDEST PUSH1 0x0 PUSH1 0x20 DUP3 ADD SWAP1 POP PUSH2 0x12D2 PUSH1 0x0 DUP4 ADD DUP5 PUSH2 0x12AE JUMP JUMPDEST SWAP3 SWAP2 POP POP JUMP JUMPDEST PUSH1 0x0 PUSH2 0xFFFF DUP3 AND SWAP1 POP SWAP2 SWAP1 POP JUMP JUMPDEST PUSH2 0x12EF DUP2 PUSH2 0x12D8 JUMP JUMPDEST DUP2 EQ PUSH2 0x12FA JUMPI PUSH1 0x0 DUP1 REVERT JUMPDEST POP JUMP JUMPDEST PUSH1 0x0 DUP2 CALLDATALOAD SWAP1 POP PUSH2 0x130C DUP2 PUSH2 0x12E6 JUMP JUMPDEST SWAP3 SWAP2 POP POP JUMP JUMPDEST PUSH1 0x0 DUP1 PUSH1 0x40 DUP4 DUP6 SUB SLT ISZERO PUSH2 0x1329 JUMPI PUSH2 0x1328 PUSH2 0x103D JUMP JUMPDEST JUMPDEST PUSH1 0x0 DUP4 ADD CALLDATALOAD PUSH8 0xFFFFFFFFFFFFFFFF DUP2 GT ISZERO PUSH2 0x1347 JUMPI PUSH2 0x1346 PUSH2 0x1042 JUMP JUMPDEST JUMPDEST PUSH2 0x1353 DUP6 DUP3 DUP7 ADD PUSH2 0x11BD JUMP JUMPDEST SWAP3 POP POP PUSH1 0x20 PUSH2 0x1364 DUP6 DUP3 DUP7 ADD PUSH2 0x12FD JUMP JUMPDEST SWAP2 POP POP SWAP3 POP SWAP3 SWAP1 POP JUMP JUMPDEST PUSH1 0x0 DUP2 MLOAD SWAP1 POP SWAP2 SWAP1 POP JUMP JUMPDEST PUSH1 0x0 DUP3 DUP3 MSTORE PUSH1 0x20 DUP3 ADD SWAP1 POP SWAP3 SWAP2 POP POP JUMP JUMPDEST PUSH1 0x0 JUMPDEST DUP4 DUP2 LT ISZERO PUSH2 0x13A8 JUMPI DUP1 DUP3 ADD MLOAD DUP2 DUP5 ADD MSTORE PUSH1 0x20 DUP2 ADD SWAP1 POP PUSH2 0x138D JUMP JUMPDEST DUP4 DUP2 GT ISZERO PUSH2 0x13B7 JUMPI PUSH1 0x0 DUP5 DUP5 ADD MSTORE JUMPDEST POP POP POP POP JUMP JUMPDEST PUSH1 0x0 PUSH2 0x13C8 DUP3 PUSH2 0x136E JUMP JUMPDEST PUSH2 0x13D2 DUP2 DUP6 PUSH2 0x1379 JUMP JUMPDEST SWAP4 POP PUSH2 0x13E2 DUP2 DUP6 PUSH1 0x20 DUP7 ADD PUSH2 0x138A JUMP JUMPDEST PUSH2 0x13EB DUP2 PUSH2 0x10AF JUMP JUMPDEST DUP5 ADD SWAP2 POP POP SWAP3 SWAP2 POP POP JUMP JUMPDEST PUSH2 0x13FF DUP2 PUSH2 0x11EB JUMP JUMPDEST DUP3 MSTORE POP POP JUMP JUMPDEST PUSH1 0x0 PUSH1 0x40 DUP3 ADD SWAP1 POP DUP2 DUP2 SUB PUSH1 0x0 DUP4 ADD MSTORE PUSH2 0x141F DUP2 DUP6 PUSH2 0x13BD JUMP JUMPDEST SWAP1 POP PUSH2 0x142E PUSH1 0x20 DUP4 ADD DUP5 PUSH2 0x13F6 JUMP JUMPDEST SWAP4 SWAP3 POP POP POP JUMP JUMPDEST PUSH1 0x0 DUP1 PUSH1 0x40 DUP4 DUP6 SUB SLT ISZERO PUSH2 0x144C JUMPI PUSH2 0x144B PUSH2 0x103D JUMP JUMPDEST JUMPDEST PUSH1 0x0 PUSH2 0x145A DUP6 DUP3 DUP7 ADD PUSH2 0x1090 JUMP JUMPDEST SWAP3 POP POP PUSH1 0x20 DUP4 ADD CALLDATALOAD PUSH8 0xFFFFFFFFFFFFFFFF DUP2 GT ISZERO PUSH2 0x147B JUMPI PUSH2 0x147A PUSH2 0x1042 JUMP JUMPDEST JUMPDEST PUSH2 0x1487 DUP6 DUP3 DUP7 ADD PUSH2 0x11BD JUMP JUMPDEST SWAP2 POP POP SWAP3 POP SWAP3 SWAP1 POP JUMP JUMPDEST PUSH1 0x0 PUSH1 0x20 DUP3 DUP5 SUB SLT ISZERO PUSH2 0x14A7 JUMPI PUSH2 0x14A6 PUSH2 0x103D JUMP JUMPDEST JUMPDEST PUSH1 0x0 DUP3 ADD CALLDATALOAD PUSH8 0xFFFFFFFFFFFFFFFF DUP2 GT ISZERO PUSH2 0x14C5 JUMPI PUSH2 0x14C4 PUSH2 0x1042 JUMP JUMPDEST JUMPDEST PUSH2 0x14D1 DUP5 DUP3 DUP6 ADD PUSH2 0x11BD JUMP JUMPDEST SWAP2 POP POP SWAP3 SWAP2 POP POP JUMP JUMPDEST PUSH2 0x14E3 DUP2 PUSH2 0x1067 JUMP JUMPDEST DUP3 MSTORE POP POP JUMP JUMPDEST PUSH1 0x0 PUSH1 0x40 DUP3 ADD SWAP1 POP PUSH2 0x14FE PUSH1 0x0 DUP4 ADD DUP6 PUSH2 0x13F6 JUMP JUMPDEST PUSH2 0x150B PUSH1 0x20 DUP4 ADD DUP5 PUSH2 0x14DA JUMP JUMPDEST SWAP4 SWAP3 POP POP POP JUMP JUMPDEST PUSH1 0x0 DUP2 MLOAD SWAP1 POP SWAP2 SWAP1 POP JUMP JUMPDEST PUSH1 0x0 DUP3 DUP3 MSTORE PUSH1 0x20 DUP3 ADD SWAP1 POP SWAP3 SWAP2 POP POP JUMP JUMPDEST PUSH1 0x0 DUP2 SWAP1 POP PUSH1 0x20 DUP3 ADD SWAP1 POP SWAP2 SWAP1 POP JUMP JUMPDEST PUSH2 0x1547 DUP2 PUSH2 0x11EB JUMP JUMPDEST DUP3 MSTORE POP POP JUMP JUMPDEST PUSH1 0x0 PUSH2 0x1559 DUP4 DUP4 PUSH2 0x153E JUMP JUMPDEST PUSH1 0x20 DUP4 ADD SWAP1 POP SWAP3 SWAP2 POP POP JUMP JUMPDEST PUSH1 0x0 PUSH1 0x20 DUP3 ADD SWAP1 POP SWAP2 SWAP1 POP JUMP JUMPDEST PUSH1 0x0 PUSH2 0x157D DUP3 PUSH2 0x1512 JUMP JUMPDEST PUSH2 0x1587 DUP2 DUP6 PUSH2 0x151D JUMP JUMPDEST SWAP4 POP PUSH2 0x1592 DUP4 PUSH2 0x152E JUMP JUMPDEST DUP1 PUSH1 0x0 JUMPDEST DUP4 DUP2 LT ISZERO PUSH2 0x15C3 JUMPI DUP2 MLOAD PUSH2 0x15AA DUP9 DUP3 PUSH2 0x154D JUMP JUMPDEST SWAP8 POP PUSH2 0x15B5 DUP4 PUSH2 0x1565 JUMP JUMPDEST SWAP3 POP POP PUSH1 0x1 DUP2 ADD SWAP1 POP PUSH2 0x1596 JUMP JUMPDEST POP DUP6 SWAP4 POP POP POP POP SWAP3 SWAP2 POP POP JUMP JUMPDEST PUSH1 0x0 PUSH1 0x60 DUP3 ADD SWAP1 POP DUP2 DUP2 SUB PUSH1 0x0 DUP4 ADD MSTORE PUSH2 0x15EA DUP2 DUP7 PUSH2 0x1572 JUMP JUMPDEST SWAP1 POP PUSH2 0x15F9 PUSH1 0x20 DUP4 ADD DUP6 PUSH2 0x14DA JUMP JUMPDEST PUSH2 0x1606 PUSH1 0x40 DUP4 ADD DUP5 PUSH2 0x13F6 JUMP JUMPDEST SWAP5 SWAP4 POP POP POP POP JUMP JUMPDEST PUSH1 0x0 PUSH4 0xFFFFFFFF DUP3 AND SWAP1 POP SWAP2 SWAP1 POP JUMP JUMPDEST PUSH2 0x1627 DUP2 PUSH2 0x160E JUMP JUMPDEST DUP3 MSTORE POP POP JUMP JUMPDEST PUSH1 0x0 PUSH8 0xFFFFFFFFFFFFFFFF DUP3 AND SWAP1 POP SWAP2 SWAP1 POP JUMP JUMPDEST PUSH2 0x164A DUP2 PUSH2 0x162D JUMP JUMPDEST DUP3 MSTORE POP POP JUMP JUMPDEST PUSH2 0x1659 DUP2 PUSH2 0x12D8 JUMP JUMPDEST DUP3 MSTORE POP POP JUMP JUMPDEST PUSH1 0x0 DUP2 ISZERO ISZERO SWAP1 POP SWAP2 SWAP1 POP JUMP JUMPDEST PUSH2 0x1674 DUP2 PUSH2 0x165F JUMP JUMPDEST DUP3 MSTORE POP POP JUMP JUMPDEST PUSH1 0x0 PUSH1 0xC0 DUP3 ADD SWAP1 POP PUSH2 0x168F PUSH1 0x0 DUP4 ADD DUP10 PUSH2 0x14DA JUMP JUMPDEST PUSH2 0x169C PUSH1 0x20 DUP4 ADD DUP9 PUSH2 0x161E JUMP JUMPDEST PUSH2 0x16A9 PUSH1 0x40 DUP4 ADD DUP8 PUSH2 0x1641 JUMP JUMPDEST PUSH2 0x16B6 PUSH1 0x60 DUP4 ADD DUP7 PUSH2 0x1641 JUMP JUMPDEST PUSH2 0x16C3 PUSH1 0x80 DUP4 ADD DUP6 PUSH2 0x1650 JUMP JUMPDEST PUSH2 0x16D0 PUSH1 0xA0 DUP4 ADD DUP5 PUSH2 0x166B JUMP JUMPDEST SWAP8 SWAP7 POP POP POP POP POP POP POP JUMP JUMPDEST PUSH1 0x0 PUSH1 0x20 DUP3 DUP5 SUB SLT ISZERO PUSH2 0x16F1 JUMPI PUSH2 0x16F0 PUSH2 0x103D JUMP JUMPDEST JUMPDEST PUSH1 0x0 PUSH2 0x16FF DUP5 DUP3 DUP6 ADD PUSH2 0x1090 JUMP JUMPDEST SWAP2 POP POP SWAP3 SWAP2 POP POP JUMP JUMPDEST PUSH1 0x0 PUSH1 0x20 DUP3 ADD SWAP1 POP PUSH2 0x171D PUSH1 0x0 DUP4 ADD DUP5 PUSH2 0x13F6 JUMP JUMPDEST SWAP3 SWAP2 POP POP JUMP JUMPDEST PUSH1 0x0 DUP2 MLOAD SWAP1 POP SWAP2 SWAP1 POP JUMP JUMPDEST PUSH1 0x0 DUP3 DUP3 MSTORE PUSH1 0x20 DUP3 ADD SWAP1 POP SWAP3 SWAP2 POP POP JUMP JUMPDEST PUSH1 0x0 DUP2 SWAP1 POP PUSH1 0x20 DUP3 ADD SWAP1 POP SWAP2 SWAP1 POP JUMP JUMPDEST PUSH2 0x1758 DUP2 PUSH2 0x1067 JUMP JUMPDEST DUP3 MSTORE POP POP JUMP JUMPDEST PUSH1 0x0 PUSH2 0x176A DUP4 DUP4 PUSH2 0x174F JUMP JUMPDEST PUSH1 0x20 DUP4 ADD SWAP1 POP SWAP3 SWAP2 POP POP JUMP JUMPDEST PUSH1 0x0 PUSH1 0x20 DUP3 ADD SWAP1 POP SWAP2 SWAP1 POP JUMP JUMPDEST PUSH1 0x0 PUSH2 0x178E DUP3 PUSH2 0x1723 JUMP JUMPDEST PUSH2 0x1798 DUP2 DUP6 PUSH2 0x172E JUMP JUMPDEST SWAP4 POP PUSH2 0x17A3 DUP4 PUSH2 0x173F JUMP JUMPDEST DUP1 PUSH1 0x0 JUMPDEST DUP4 DUP2 LT ISZERO PUSH2 0x17D4 JUMPI DUP2 MLOAD PUSH2 0x17BB DUP9 DUP3 PUSH2 0x175E JUMP JUMPDEST SWAP8 POP PUSH2 0x17C6 DUP4 PUSH2 0x1776 JUMP JUMPDEST SWAP3 POP POP PUSH1 0x1 DUP2 ADD SWAP1 POP PUSH2 0x17A7 JUMP JUMPDEST POP DUP6 SWAP4 POP POP POP POP SWAP3 SWAP2 POP POP JUMP JUMPDEST PUSH1 0x0 PUSH1 0x20 DUP3 ADD SWAP1 POP DUP2 DUP2 SUB PUSH1 0x0 DUP4 ADD MSTORE PUSH2 0x17FB DUP2 DUP5 PUSH2 0x1783 JUMP JUMPDEST SWAP1 POP SWAP3 SWAP2 POP POP JUMP JUMPDEST PUSH1 0x0 DUP2 PUSH1 0x60 SHL SWAP1 POP SWAP2 SWAP1 POP JUMP JUMPDEST PUSH1 0x0 PUSH2 0x181B DUP3 PUSH2 0x1803 JUMP JUMPDEST SWAP1 POP SWAP2 SWAP1 POP JUMP JUMPDEST PUSH1 0x0 PUSH2 0x182D DUP3 PUSH2 0x1810 JUMP JUMPDEST SWAP1 POP SWAP2 SWAP1 POP JUMP JUMPDEST PUSH2 0x1845 PUSH2 0x1840 DUP3 PUSH2 0x1067 JUMP JUMPDEST PUSH2 0x1822 JUMP JUMPDEST DUP3 MSTORE POP POP JUMP JUMPDEST PUSH1 0x0 DUP2 SWAP1 POP SWAP3 SWAP2 POP POP JUMP JUMPDEST PUSH32 0x6D6574617472616E73616374696F6E20566F74696E6720000000000000000000 PUSH1 0x0 DUP3 ADD MSTORE POP JUMP JUMPDEST PUSH1 0x0 PUSH2 0x188C PUSH1 0x17 DUP4 PUSH2 0x184B JUMP JUMPDEST SWAP2 POP PUSH2 0x1897 DUP3 PUSH2 0x1856 JUMP JUMPDEST PUSH1 0x17 DUP3 ADD SWAP1 POP SWAP2 SWAP1 POP JUMP JUMPDEST PUSH1 0x0 PUSH2 0x18AD DUP3 PUSH2 0x136E JUMP JUMPDEST PUSH2 0x18B7 DUP2 DUP6 PUSH2 0x184B JUMP JUMPDEST SWAP4 POP PUSH2 0x18C7 DUP2 DUP6 PUSH1 0x20 DUP7 ADD PUSH2 0x138A JUMP JUMPDEST DUP1 DUP5 ADD SWAP2 POP POP SWAP3 SWAP2 POP POP JUMP JUMPDEST PUSH1 0x0 DUP2 SWAP1 POP SWAP2 SWAP1 POP JUMP JUMPDEST PUSH2 0x18EE PUSH2 0x18E9 DUP3 PUSH2 0x11EB JUMP JUMPDEST PUSH2 0x18D3 JUMP JUMPDEST DUP3 MSTORE POP POP JUMP JUMPDEST PUSH1 0x0 PUSH2 0x1900 DUP3 DUP9 PUSH2 0x1834 JUMP JUMPDEST PUSH1 0x14 DUP3 ADD SWAP2 POP PUSH2 0x190F DUP3 PUSH2 0x187F JUMP JUMPDEST SWAP2 POP PUSH2 0x191B DUP3 DUP8 PUSH2 0x1834 JUMP JUMPDEST PUSH1 0x14 DUP3 ADD SWAP2 POP PUSH2 0x192B DUP3 DUP7 PUSH2 0x18A2 JUMP JUMPDEST SWAP2 POP PUSH2 0x1937 DUP3 DUP6 PUSH2 0x18DD JUMP JUMPDEST PUSH1 0x20 DUP3 ADD SWAP2 POP PUSH2 0x1947 DUP3 DUP5 PUSH2 0x18DD JUMP JUMPDEST PUSH1 0x20 DUP3 ADD SWAP2 POP DUP2 SWAP1 POP SWAP7 SWAP6 POP POP POP POP POP POP JUMP JUMPDEST PUSH1 0x0 PUSH2 0x1966 DUP3 DUP5 PUSH2 0x18A2 JUMP JUMPDEST SWAP2 POP DUP2 SWAP1 POP SWAP3 SWAP2 POP POP JUMP JUMPDEST PUSH32 0x54686973206164647265737320646F6573206E6F742065786973742061732061 PUSH1 0x0 DUP3 ADD MSTORE PUSH32 0x2063616E64696461746500000000000000000000000000000000000000000000 PUSH1 0x20 DUP3 ADD MSTORE POP JUMP JUMPDEST PUSH1 0x0 PUSH2 0x19CD PUSH1 0x2A DUP4 PUSH2 0x1379 JUMP JUMPDEST SWAP2 POP PUSH2 0x19D8 DUP3 PUSH2 0x1971 JUMP JUMPDEST PUSH1 0x40 DUP3 ADD SWAP1 POP SWAP2 SWAP1 POP JUMP JUMPDEST PUSH1 0x0 PUSH1 0x20 DUP3 ADD SWAP1 POP DUP2 DUP2 SUB PUSH1 0x0 DUP4 ADD MSTORE PUSH2 0x19FC DUP2 PUSH2 0x19C0 JUMP JUMPDEST SWAP1 POP SWAP2 SWAP1 POP JUMP JUMPDEST PUSH32 0x766F74696E672068617320656E64656400000000000000000000000000000000 PUSH1 0x0 DUP3 ADD MSTORE POP JUMP JUMPDEST PUSH1 0x0 PUSH2 0x1A39 PUSH1 0x10 DUP4 PUSH2 0x1379 JUMP JUMPDEST SWAP2 POP PUSH2 0x1A44 DUP3 PUSH2 0x1A03 JUMP JUMPDEST PUSH1 0x20 DUP3 ADD SWAP1 POP SWAP2 SWAP1 POP JUMP JUMPDEST PUSH1 0x0 PUSH1 0x20 DUP3 ADD SWAP1 POP DUP2 DUP2 SUB PUSH1 0x0 DUP4 ADD MSTORE PUSH2 0x1A68 DUP2 PUSH2 0x1A2C JUMP JUMPDEST SWAP1 POP SWAP2 SWAP1 POP JUMP JUMPDEST PUSH32 0x596F7520616C726561647920766F746564000000000000000000000000000000 PUSH1 0x0 DUP3 ADD MSTORE POP JUMP JUMPDEST PUSH1 0x0 PUSH2 0x1AA5 PUSH1 0x11 DUP4 PUSH2 0x1379 JUMP JUMPDEST SWAP2 POP PUSH2 0x1AB0 DUP3 PUSH2 0x1A6F JUMP JUMPDEST PUSH1 0x20 DUP3 ADD SWAP1 POP SWAP2 SWAP1 POP JUMP JUMPDEST PUSH1 0x0 PUSH1 0x20 DUP3 ADD SWAP1 POP DUP2 DUP2 SUB PUSH1 0x0 DUP4 ADD MSTORE PUSH2 0x1AD4 DUP2 PUSH2 0x1A98 JUMP JUMPDEST SWAP1 POP SWAP2 SWAP1 POP JUMP JUMPDEST PUSH1 0x0 PUSH1 0x40 DUP3 ADD SWAP1 POP PUSH2 0x1AF0 PUSH1 0x0 DUP4 ADD DUP6 PUSH2 0x14DA JUMP JUMPDEST PUSH2 0x1AFD PUSH1 0x20 DUP4 ADD DUP5 PUSH2 0x166B JUMP JUMPDEST SWAP4 SWAP3 POP POP POP JUMP JUMPDEST PUSH32 0x4E487B7100000000000000000000000000000000000000000000000000000000 PUSH1 0x0 MSTORE PUSH1 0x32 PUSH1 0x4 MSTORE PUSH1 0x24 PUSH1 0x0 REVERT JUMPDEST PUSH32 0x4E6F20706F6C6C20637265617465640000000000000000000000000000000000 PUSH1 0x0 DUP3 ADD MSTORE POP JUMP JUMPDEST PUSH1 0x0 PUSH2 0x1B69 PUSH1 0xF DUP4 PUSH2 0x1379 JUMP JUMPDEST SWAP2 POP PUSH2 0x1B74 DUP3 PUSH2 0x1B33 JUMP JUMPDEST PUSH1 0x20 DUP3 ADD SWAP1 POP SWAP2 SWAP1 POP JUMP JUMPDEST PUSH1 0x0 PUSH1 0x20 DUP3 ADD SWAP1 POP DUP2 DUP2 SUB PUSH1 0x0 DUP4 ADD MSTORE PUSH2 0x1B98 DUP2 PUSH2 0x1B5C JUMP JUMPDEST SWAP1 POP SWAP2 SWAP1 POP JUMP JUMPDEST PUSH32 0x4E487B7100000000000000000000000000000000000000000000000000000000 PUSH1 0x0 MSTORE PUSH1 0x11 PUSH1 0x4 MSTORE PUSH1 0x24 PUSH1 0x0 REVERT JUMPDEST PUSH1 0x0 PUSH2 0x1BD9 DUP3 PUSH2 0x11EB JUMP JUMPDEST SWAP2 POP PUSH32 0xFFFFFFFFFFFFFFFFFFFFFFFFFFFFFFFFFFFFFFFFFFFFFFFFFFFFFFFFFFFFFFFF DUP3 EQ ISZERO PUSH2 0x1C0C JUMPI PUSH2 0x1C0B PUSH2 0x1B9F JUMP JUMPDEST JUMPDEST PUSH1 0x1 DUP3 ADD SWAP1 POP SWAP2 SWAP1 POP JUMP JUMPDEST PUSH32 0x79657420746F20637265617465206120706F6C6C000000000000000000000000 PUSH1 0x0 DUP3 ADD MSTORE POP JUMP JUMPDEST PUSH1 0x0 PUSH2 0x1C4D PUSH1 0x14 DUP4 PUSH2 0x1379 JUMP JUMPDEST SWAP2 POP PUSH2 0x1C58 DUP3 PUSH2 0x1C17 JUMP JUMPDEST PUSH1 0x20 DUP3 ADD SWAP1 POP SWAP2 SWAP1 POP JUMP JUMPDEST PUSH1 0x0 PUSH1 0x20 DUP3 ADD SWAP1 POP DUP2 DUP2 SUB PUSH1 0x0 DUP4 ADD MSTORE PUSH2 0x1C7C DUP2 PUSH2 0x1C40 JUMP JUMPDEST SWAP1 POP SWAP2 SWAP1 POP JUMP JUMPDEST PUSH32 0x4E487B7100000000000000000000000000000000000000000000000000000000 PUSH1 0x0 MSTORE PUSH1 0x1 PUSH1 0x4 MSTORE PUSH1 0x24 PUSH1 0x0 REVERT JUMPDEST PUSH32 0x6D6178696D756D206E6F206F662063616E646964617465207065722073657373 PUSH1 0x0 DUP3 ADD MSTORE PUSH32 0x696F6E2072656769737465726564000000000000000000000000000000000000 PUSH1 0x20 DUP3 ADD MSTORE POP JUMP JUMPDEST PUSH1 0x0 PUSH2 0x1D0E PUSH1 0x2E DUP4 PUSH2 0x1379 JUMP JUMPDEST SWAP2 POP PUSH2 0x1D19 DUP3 PUSH2 0x1CB2 JUMP JUMPDEST PUSH1 0x40 DUP3 ADD SWAP1 POP SWAP2 SWAP1 POP JUMP JUMPDEST PUSH1 0x0 PUSH1 0x20 DUP3 ADD SWAP1 POP DUP2 DUP2 SUB PUSH1 0x0 DUP4 ADD MSTORE PUSH2 0x1D3D DUP2 PUSH2 0x1D01 JUMP JUMPDEST SWAP1 POP SWAP2 SWAP1 POP JUMP JUMPDEST PUSH1 0x0 PUSH2 0x1D4F DUP3 PUSH2 0x12D8 JUMP JUMPDEST SWAP2 POP PUSH2 0xFFFF DUP3 EQ ISZERO PUSH2 0x1D64 JUMPI PUSH2 0x1D63 PUSH2 0x1B9F JUMP JUMPDEST JUMPDEST PUSH1 0x1 DUP3 ADD SWAP1 POP SWAP2 SWAP1 POP JUMP JUMPDEST PUSH1 0x0 PUSH1 0x20 DUP3 ADD SWAP1 POP PUSH2 0x1D84 PUSH1 0x0 DUP4 ADD DUP5 PUSH2 0x14DA JUMP JUMPDEST SWAP3 SWAP2 POP POP JUMP JUMPDEST PUSH32 0x6E6F74207468652063686169726D616E00000000000000000000000000000000 PUSH1 0x0 DUP3 ADD MSTORE POP JUMP JUMPDEST PUSH1 0x0 PUSH2 0x1DC0 PUSH1 0x10 DUP4 PUSH2 0x1379 JUMP JUMPDEST SWAP2 POP PUSH2 0x1DCB DUP3 PUSH2 0x1D8A JUMP JUMPDEST PUSH1 0x20 DUP3 ADD SWAP1 POP SWAP2 SWAP1 POP JUMP JUMPDEST PUSH1 0x0 PUSH1 0x20 DUP3 ADD SWAP1 POP DUP2 DUP2 SUB PUSH1 0x0 DUP4 ADD MSTORE PUSH2 0x1DEF DUP2 PUSH2 0x1DB3 JUMP JUMPDEST SWAP1 POP SWAP2 SWAP1 POP JUMP INVALID LOG2 PUSH5 0x6970667358 0x22 SLT KECCAK256 0xC 0xE7 0x28 PUSH3 0x5677F2 0xAE 0x24 0xDB 0x2A 0xC5 SAR CALLDATASIZE OR 0xC5 PUSH9 0x701D3F9B2C3479CDB0 SWAP7 PUSH15 0x205428BD64736F6C634300080A0033 "
				},
				"gasEstimates": {
					"creation": {
						"codeDepositCost": "1544800",
						"executionCost": "1617",
						"totalCost": "1546417"
					},
					"external": {
						"AddCandidate(address,string)": "infinite",
						"AllCandidates(string)": "infinite",
						"NoOfRegisteredCandidates(string)": "infinite",
						"createPoll(string,uint16)": "infinite",
						"getUint(string)": "infinite",
						"metaVotingHash(address,string,uint256,uint256)": "infinite",
						"replayNonce(address)": "2858",
						"revealWinner(string)": "infinite",
						"setVotingState(string)": "infinite",
						"vote(address,string)": "infinite",
						"votingPoll(string)": "infinite"
					},
					"internal": {
						"countVote(address,string memory,address)": "infinite",
						"getSigner(bytes32,bytes memory)": "infinite"
					}
				},
				"methodIdentifiers": {
					"AddCandidate(address,string)": "57f53967",
					"AllCandidates(string)": "af7cbc0d",
					"NoOfRegisteredCandidates(string)": "8579cacd",
					"createPoll(string,uint16)": "0968d4b1",
					"getUint(string)": "498bff00",
					"metaVotingHash(address,string,uint256,uint256)": "01ff993b",
					"replayNonce(address)": "67d407df",
					"revealWinner(string)": "4fcf1f39",
					"setVotingState(string)": "f0e4de22",
					"vote(address,string)": "1bf533a4",
					"votingPoll(string)": "63ee965a"
				}
			},
			"storageLayout": {
				"storage": [
					{
						"astId": 34,
						"contract": "src/voting.sol:Voting",
						"label": "votingPoll",
						"offset": 0,
						"slot": "0",
						"type": "t_mapping(t_string_memory_ptr,t_struct(VotingPoll)29_storage)"
					},
					{
						"astId": 38,
						"contract": "src/voting.sol:Voting",
						"label": "replayNonce",
						"offset": 0,
						"slot": "1",
						"type": "t_mapping(t_address,t_uint256)"
					}
				],
				"types": {
					"t_address": {
						"encoding": "inplace",
						"label": "address",
						"numberOfBytes": "20"
					},
					"t_array(t_address)dyn_storage": {
						"base": "t_address",
						"encoding": "dynamic_array",
						"label": "address[]",
						"numberOfBytes": "32"
					},
					"t_bool": {
						"encoding": "inplace",
						"label": "bool",
						"numberOfBytes": "1"
					},
					"t_mapping(t_address,t_bool)": {
						"encoding": "mapping",
						"key": "t_address",
						"label": "mapping(address => bool)",
						"numberOfBytes": "32",
						"value": "t_bool"
					},
					"t_mapping(t_address,t_uint256)": {
						"encoding": "mapping",
						"key": "t_address",
						"label": "mapping(address => uint256)",
						"numberOfBytes": "32",
						"value": "t_uint256"
					},
					"t_mapping(t_string_memory_ptr,t_struct(VotingPoll)29_storage)": {
						"encoding": "mapping",
						"key": "t_string_memory_ptr",
						"label": "mapping(string => struct Voting.VotingPoll)",
						"numberOfBytes": "32",
						"value": "t_struct(VotingPoll)29_storage"
					},
					"t_string_memory_ptr": {
						"encoding": "bytes",
						"label": "string",
						"numberOfBytes": "32"
					},
					"t_struct(VotingPoll)29_storage": {
						"encoding": "inplace",
						"label": "struct Voting.VotingPoll",
						"members": [
							{
								"astId": 3,
								"contract": "src/voting.sol:Voting",
								"label": "chairman",
								"offset": 0,
								"slot": "0",
								"type": "t_address"
							},
							{
								"astId": 6,
								"contract": "src/voting.sol:Voting",
								"label": "candidates",
								"offset": 0,
								"slot": "1",
								"type": "t_array(t_address)dyn_storage"
							},
							{
								"astId": 8,
								"contract": "src/voting.sol:Voting",
								"label": "maxNoOfCandidates",
								"offset": 0,
								"slot": "2",
								"type": "t_uint32"
							},
							{
								"astId": 10,
								"contract": "src/voting.sol:Voting",
								"label": "startTime",
								"offset": 4,
								"slot": "2",
								"type": "t_uint64"
							},
							{
								"astId": 12,
								"contract": "src/voting.sol:Voting",
								"label": "amountGenerated",
								"offset": 12,
								"slot": "2",
								"type": "t_uint64"
							},
							{
								"astId": 14,
								"contract": "src/voting.sol:Voting",
								"label": "currentNoOfCandidates",
								"offset": 20,
								"slot": "2",
								"type": "t_uint16"
							},
							{
								"astId": 16,
								"contract": "src/voting.sol:Voting",
								"label": "voting",
								"offset": 22,
								"slot": "2",
								"type": "t_bool"
							},
							{
								"astId": 20,
								"contract": "src/voting.sol:Voting",
								"label": "CandidateStatus",
								"offset": 0,
								"slot": "3",
								"type": "t_mapping(t_address,t_bool)"
							},
							{
								"astId": 24,
								"contract": "src/voting.sol:Voting",
								"label": "hasVoted",
								"offset": 0,
								"slot": "4",
								"type": "t_mapping(t_address,t_bool)"
							},
							{
								"astId": 28,
								"contract": "src/voting.sol:Voting",
								"label": "CandidateVote",
								"offset": 0,
								"slot": "5",
								"type": "t_mapping(t_address,t_uint256)"
							}
						],
						"numberOfBytes": "192"
					},
					"t_uint16": {
						"encoding": "inplace",
						"label": "uint16",
						"numberOfBytes": "2"
					},
					"t_uint256": {
						"encoding": "inplace",
						"label": "uint256",
						"numberOfBytes": "32"
					},
					"t_uint32": {
						"encoding": "inplace",
						"label": "uint32",
						"numberOfBytes": "4"
					},
					"t_uint64": {
						"encoding": "inplace",
						"label": "uint64",
						"numberOfBytes": "8"
					}
				}
			},
			"userdoc": {
				"kind": "user",
				"methods": {},
				"version": 1
			}
		}
	}
}