{
	"src/voting.sol": {
		"Voting": {
			"abi": [
				{
					"anonymous": false,
					"inputs": [
						{
							"indexed": false,
							"internalType": "address",
							"name": "NewCandidate",
							"type": "address"
						}
					],
					"name": "becameCandidate",
					"type": "event"
				},
				{
					"anonymous": false,
					"inputs": [
						{
							"indexed": true,
							"internalType": "string",
							"name": "_name",
							"type": "string"
						},
						{
							"indexed": true,
							"internalType": "uint32",
							"name": "ExpectedNoOfCandidate",
							"type": "uint32"
						},
						{
							"indexed": true,
							"internalType": "uint256",
							"name": "_id",
							"type": "uint256"
						}
					],
					"name": "pollCreated",
					"type": "event"
				},
				{
					"anonymous": false,
					"inputs": [
						{
							"indexed": true,
							"internalType": "bool",
							"name": "status",
							"type": "bool"
						}
					],
					"name": "voteStatus",
					"type": "event"
				},
				{
					"anonymous": false,
					"inputs": [
						{
							"indexed": false,
							"internalType": "address",
							"name": "_candidate",
							"type": "address"
						},
						{
							"indexed": false,
							"internalType": "bool",
							"name": "status",
							"type": "bool"
						}
					],
					"name": "voted",
					"type": "event"
				},
				{
					"inputs": [
						{
							"internalType": "address",
							"name": "_newCandidate",
							"type": "address"
						},
						{
							"internalType": "uint256",
							"name": "_id",
							"type": "uint256"
						}
					],
					"name": "AddCandidate",
					"outputs": [],
					"stateMutability": "nonpayable",
					"type": "function"
				},
				{
					"inputs": [
						{
							"internalType": "uint256",
							"name": "_id",
							"type": "uint256"
						}
					],
					"name": "AllCandidates",
					"outputs": [
						{
							"internalType": "address[]",
							"name": "_candidates",
							"type": "address[]"
						}
					],
					"stateMutability": "view",
					"type": "function"
				},
				{
					"inputs": [
						{
							"internalType": "uint256",
							"name": "_id",
							"type": "uint256"
						}
					],
					"name": "NoOfRegisteredCandidates",
					"outputs": [
						{
							"internalType": "uint256",
							"name": "",
							"type": "uint256"
						}
					],
					"stateMutability": "view",
					"type": "function"
				},
				{
					"inputs": [
						{
							"internalType": "uint256",
							"name": "",
							"type": "uint256"
						}
					],
					"name": "VotingKey",
					"outputs": [
						{
							"internalType": "uint256",
							"name": "",
							"type": "uint256"
						}
					],
					"stateMutability": "view",
					"type": "function"
				},
				{
					"inputs": [
						{
							"internalType": "uint256",
							"name": "",
							"type": "uint256"
						}
					],
					"name": "VotingStruct",
					"outputs": [
						{
							"internalType": "string",
							"name": "name",
							"type": "string"
						},
						{
							"internalType": "address",
							"name": "chairman",
							"type": "address"
						},
						{
							"internalType": "uint32",
							"name": "maxNoOfCandidates",
							"type": "uint32"
						},
						{
							"internalType": "uint32",
							"name": "currentNoOfCandidates",
							"type": "uint32"
						},
						{
							"internalType": "bool",
							"name": "voting",
							"type": "bool"
						}
					],
					"stateMutability": "view",
					"type": "function"
				},
				{
					"inputs": [
						{
							"internalType": "string",
							"name": "_name",
							"type": "string"
						},
						{
							"internalType": "uint32",
							"name": "ExpectedNoOfCandidate",
							"type": "uint32"
						}
					],
					"name": "createPoll",
					"outputs": [],
					"stateMutability": "nonpayable",
					"type": "function"
				},
				{
					"inputs": [
						{
							"internalType": "uint256",
							"name": "_id",
							"type": "uint256"
						}
					],
					"name": "getVotePollProps",
					"outputs": [
						{
							"components": [
								{
									"internalType": "string",
									"name": "name",
									"type": "string"
								},
								{
									"internalType": "address",
									"name": "chairman",
									"type": "address"
								},
								{
									"internalType": "address[]",
									"name": "candidates",
									"type": "address[]"
								},
								{
									"internalType": "uint32",
									"name": "maxNoOfCandidates",
									"type": "uint32"
								},
								{
									"internalType": "uint32",
									"name": "currentNoOfCandidates",
									"type": "uint32"
								},
								{
									"internalType": "bool",
									"name": "voting",
									"type": "bool"
								}
							],
							"internalType": "struct Voting.VotingPoll",
							"name": "",
							"type": "tuple"
						}
					],
					"stateMutability": "view",
					"type": "function"
				},
				{
					"inputs": [
						{
							"internalType": "address",
							"name": "Cand",
							"type": "address"
						},
						{
							"internalType": "uint256",
							"name": "_id",
							"type": "uint256"
						},
						{
							"internalType": "uint256",
							"name": "nonce",
							"type": "uint256"
						},
						{
							"internalType": "uint256",
							"name": "time",
							"type": "uint256"
						}
					],
					"name": "metaVotingHash",
					"outputs": [
						{
							"internalType": "bytes32",
							"name": "",
							"type": "bytes32"
						}
					],
					"stateMutability": "view",
					"type": "function"
				},
				{
					"inputs": [
						{
							"internalType": "address",
							"name": "",
							"type": "address"
						}
					],
					"name": "replayNonce",
					"outputs": [
						{
							"internalType": "uint256",
							"name": "",
							"type": "uint256"
						}
					],
					"stateMutability": "view",
					"type": "function"
				},
				{
					"inputs": [
						{
							"internalType": "uint256",
							"name": "_id",
							"type": "uint256"
						}
					],
					"name": "revealWinner",
					"outputs": [
						{
							"internalType": "uint256[]",
							"name": "CV",
							"type": "uint256[]"
						},
						{
							"internalType": "address",
							"name": "",
							"type": "address"
						},
						{
							"internalType": "uint256",
							"name": "",
							"type": "uint256"
						}
					],
					"stateMutability": "view",
					"type": "function"
				},
				{
					"inputs": [
						{
							"internalType": "uint256",
							"name": "_id",
							"type": "uint256"
						}
					],
					"name": "setVotingState",
					"outputs": [],
					"stateMutability": "nonpayable",
					"type": "function"
				},
				{
					"inputs": [
						{
							"internalType": "address",
							"name": "Cand",
							"type": "address"
						},
						{
							"internalType": "uint256",
							"name": "_id",
							"type": "uint256"
						},
						{
							"internalType": "uint256",
							"name": "nonce",
							"type": "uint256"
						},
						{
							"internalType": "bytes",
							"name": "signature",
							"type": "bytes"
						}
					],
					"name": "vote",
					"outputs": [],
					"stateMutability": "nonpayable",
					"type": "function"
				},
				{
					"inputs": [
						{
							"internalType": "uint256",
							"name": "",
							"type": "uint256"
						}
					],
					"name": "votingPoll",
					"outputs": [
						{
							"internalType": "string",
							"name": "name",
							"type": "string"
						},
						{
							"internalType": "address",
							"name": "chairman",
							"type": "address"
						},
						{
							"internalType": "uint32",
							"name": "maxNoOfCandidates",
							"type": "uint32"
						},
						{
							"internalType": "uint32",
							"name": "currentNoOfCandidates",
							"type": "uint32"
						},
						{
							"internalType": "bool",
							"name": "voting",
							"type": "bool"
						}
					],
					"stateMutability": "view",
					"type": "function"
				}
			],
			"devdoc": {
				"kind": "dev",
				"methods": {},
				"version": 1
			},
			"evm": {
				"assembly": "    /* \"src/voting.sol\":63:5375  contract Voting{... */\n  mstore(0x40, 0x80)\n    /* \"src/voting.sol\":159:160  1 */\n  0x01\n    /* \"src/voting.sol\":149:160  uint id = 1 */\n  0x00\n  sstore\n    /* \"src/voting.sol\":63:5375  contract Voting{... */\n  callvalue\n  dup1\n  iszero\n  tag_1\n  jumpi\n  0x00\n  dup1\n  revert\ntag_1:\n  pop\n  dataSize(sub_0)\n  dup1\n  dataOffset(sub_0)\n  0x00\n  codecopy\n  0x00\n  return\nstop\n\nsub_0: assembly {\n        /* \"src/voting.sol\":63:5375  contract Voting{... */\n      mstore(0x40, 0x80)\n      callvalue\n      dup1\n      iszero\n      tag_1\n      jumpi\n      0x00\n      dup1\n      revert\n    tag_1:\n      pop\n      jumpi(tag_2, lt(calldatasize, 0x04))\n      shr(0xe0, calldataload(0x00))\n      dup1\n      0x8ccb59e8\n      gt\n      tag_16\n      jumpi\n      dup1\n      0xc10d6cec\n      gt\n      tag_17\n      jumpi\n      dup1\n      0xc10d6cec\n      eq\n      tag_12\n      jumpi\n      dup1\n      0xc57003cc\n      eq\n      tag_13\n      jumpi\n      dup1\n      0xe615f104\n      eq\n      tag_14\n      jumpi\n      dup1\n      0xf762f4c0\n      eq\n      tag_15\n      jumpi\n      jump(tag_2)\n    tag_17:\n      dup1\n      0x8ccb59e8\n      eq\n      tag_9\n      jumpi\n      dup1\n      0xae928e3e\n      eq\n      tag_10\n      jumpi\n      dup1\n      0xbfe2e25d\n      eq\n      tag_11\n      jumpi\n      jump(tag_2)\n    tag_16:\n      dup1\n      0x049d1c8b\n      eq\n      tag_3\n      jumpi\n      dup1\n      0x278e2c90\n      eq\n      tag_4\n      jumpi\n      dup1\n      0x66c5343b\n      eq\n      tag_5\n      jumpi\n      dup1\n      0x67d407df\n      eq\n      tag_6\n      jumpi\n      dup1\n      0x8321f397\n      eq\n      tag_7\n      jumpi\n      dup1\n      0x8ac3c3c2\n      eq\n      tag_8\n      jumpi\n    tag_2:\n      0x00\n      dup1\n      revert\n        /* \"src/voting.sol\":1950:2451  function AddCandidate(address _newCandidate, uint _id) external{... */\n    tag_3:\n      tag_18\n      0x04\n      dup1\n      calldatasize\n      sub\n      dup2\n      add\n      swap1\n      tag_19\n      swap2\n      swap1\n      tag_20\n      jump\t// in\n    tag_19:\n      tag_21\n      jump\t// in\n    tag_18:\n      stop\n        /* \"src/voting.sol\":4458:4565  function getVotePollProps(uint _id) external view returns(VotingPoll memory){... */\n    tag_4:\n      tag_22\n      0x04\n      dup1\n      calldatasize\n      sub\n      dup2\n      add\n      swap1\n      tag_23\n      swap2\n      swap1\n      tag_24\n      jump\t// in\n    tag_23:\n      tag_25\n      jump\t// in\n    tag_22:\n      mload(0x40)\n      tag_26\n      swap2\n      swap1\n      tag_27\n      jump\t// in\n    tag_26:\n      mload(0x40)\n      dup1\n      swap2\n      sub\n      swap1\n      return\n        /* \"src/voting.sol\":3369:3527  function NoOfRegisteredCandidates( uint _id) public view returns(uint){... */\n    tag_5:\n      tag_28\n      0x04\n      dup1\n      calldatasize\n      sub\n      dup2\n      add\n      swap1\n      tag_29\n      swap2\n      swap1\n      tag_24\n      jump\t// in\n    tag_29:\n      tag_30\n      jump\t// in\n    tag_28:\n      mload(0x40)\n      tag_31\n      swap2\n      swap1\n      tag_32\n      jump\t// in\n    tag_31:\n      mload(0x40)\n      dup1\n      swap2\n      sub\n      swap1\n      return\n        /* \"src/voting.sol\":627:674  mapping (address => uint256) public replayNonce */\n    tag_6:\n      tag_33\n      0x04\n      dup1\n      calldatasize\n      sub\n      dup2\n      add\n      swap1\n      tag_34\n      swap2\n      swap1\n      tag_35\n      jump\t// in\n    tag_34:\n      tag_36\n      jump\t// in\n    tag_33:\n      mload(0x40)\n      tag_37\n      swap2\n      swap1\n      tag_32\n      jump\t// in\n    tag_37:\n      mload(0x40)\n      dup1\n      swap2\n      sub\n      swap1\n      return\n        /* \"src/voting.sol\":484:516  VotingPoll[] public VotingStruct */\n    tag_7:\n      tag_38\n      0x04\n      dup1\n      calldatasize\n      sub\n      dup2\n      add\n      swap1\n      tag_39\n      swap2\n      swap1\n      tag_24\n      jump\t// in\n    tag_39:\n      tag_40\n      jump\t// in\n    tag_38:\n      mload(0x40)\n      tag_41\n      swap6\n      swap5\n      swap4\n      swap3\n      swap2\n      swap1\n      tag_42\n      jump\t// in\n    tag_41:\n      mload(0x40)\n      dup1\n      swap2\n      sub\n      swap1\n      return\n        /* \"src/voting.sol\":3532:3692  function AllCandidates( uint _id) public view returns(address[] memory _candidates){... */\n    tag_8:\n      tag_43\n      0x04\n      dup1\n      calldatasize\n      sub\n      dup2\n      add\n      swap1\n      tag_44\n      swap2\n      swap1\n      tag_24\n      jump\t// in\n    tag_44:\n      tag_45\n      jump\t// in\n    tag_43:\n      mload(0x40)\n      tag_46\n      swap2\n      swap1\n      tag_47\n      jump\t// in\n    tag_46:\n      mload(0x40)\n      dup1\n      swap2\n      sub\n      swap1\n      return\n        /* \"src/voting.sol\":3695:4274  function revealWinner( uint _id) external view returns ( uint[] memory CV, address, uint){... */\n    tag_9:\n      tag_48\n      0x04\n      dup1\n      calldatasize\n      sub\n      dup2\n      add\n      swap1\n      tag_49\n      swap2\n      swap1\n      tag_24\n      jump\t// in\n    tag_49:\n      tag_50\n      jump\t// in\n    tag_48:\n      mload(0x40)\n      tag_51\n      swap4\n      swap3\n      swap2\n      swap1\n      tag_52\n      jump\t// in\n    tag_51:\n      mload(0x40)\n      dup1\n      swap2\n      sub\n      swap1\n      return\n        /* \"src/voting.sol\":459:482  uint[] public VotingKey */\n    tag_10:\n      tag_53\n      0x04\n      dup1\n      calldatasize\n      sub\n      dup2\n      add\n      swap1\n      tag_54\n      swap2\n      swap1\n      tag_24\n      jump\t// in\n    tag_54:\n      tag_55\n      jump\t// in\n    tag_53:\n      mload(0x40)\n      tag_56\n      swap2\n      swap1\n      tag_32\n      jump\t// in\n    tag_56:\n      mload(0x40)\n      dup1\n      swap2\n      sub\n      swap1\n      return\n        /* \"src/voting.sol\":4570:4785  function metaVotingHash(address Cand, uint _id, uint256 nonce, uint256 time) public view returns(bytes32){... */\n    tag_11:\n      tag_57\n      0x04\n      dup1\n      calldatasize\n      sub\n      dup2\n      add\n      swap1\n      tag_58\n      swap2\n      swap1\n      tag_59\n      jump\t// in\n    tag_58:\n      tag_60\n      jump\t// in\n    tag_57:\n      mload(0x40)\n      tag_61\n      swap2\n      swap1\n      tag_62\n      jump\t// in\n    tag_61:\n      mload(0x40)\n      dup1\n      swap2\n      sub\n      swap1\n      return\n        /* \"src/voting.sol\":2454:2945  function vote(address Cand, uint _id, uint256 nonce, bytes memory signature) external  isCandidate(Cand, _id) StillVoting(_id){... */\n    tag_12:\n      tag_63\n      0x04\n      dup1\n      calldatasize\n      sub\n      dup2\n      add\n      swap1\n      tag_64\n      swap2\n      swap1\n      tag_65\n      jump\t// in\n    tag_64:\n      tag_66\n      jump\t// in\n    tag_63:\n      stop\n        /* \"src/voting.sol\":3144:3366  function setVotingState( uint _id) external {... */\n    tag_13:\n      tag_67\n      0x04\n      dup1\n      calldatasize\n      sub\n      dup2\n      add\n      swap1\n      tag_68\n      swap2\n      swap1\n      tag_24\n      jump\t// in\n    tag_68:\n      tag_69\n      jump\t// in\n    tag_67:\n      stop\n        /* \"src/voting.sol\":580:625  mapping(uint => VotingPoll) public votingPoll */\n    tag_14:\n      tag_70\n      0x04\n      dup1\n      calldatasize\n      sub\n      dup2\n      add\n      swap1\n      tag_71\n      swap2\n      swap1\n      tag_24\n      jump\t// in\n    tag_71:\n      tag_72\n      jump\t// in\n    tag_70:\n      mload(0x40)\n      tag_73\n      swap6\n      swap5\n      swap4\n      swap3\n      swap2\n      swap1\n      tag_42\n      jump\t// in\n    tag_73:\n      mload(0x40)\n      dup1\n      swap2\n      sub\n      swap1\n      return\n        /* \"src/voting.sol\":1627:1946  function createPoll(string memory _name, uint32 ExpectedNoOfCandidate) external {... */\n    tag_15:\n      tag_74\n      0x04\n      dup1\n      calldatasize\n      sub\n      dup2\n      add\n      swap1\n      tag_75\n      swap2\n      swap1\n      tag_76\n      jump\t// in\n    tag_75:\n      tag_77\n      jump\t// in\n    tag_74:\n      stop\n        /* \"src/voting.sol\":1950:2451  function AddCandidate(address _newCandidate, uint _id) external{... */\n    tag_21:\n        /* \"src/voting.sol\":2020:2041  VotingPoll storage VP */\n      0x00\n        /* \"src/voting.sol\":2044:2054  votingPoll */\n      0x03\n        /* \"src/voting.sol\":2044:2059  votingPoll[_id] */\n      0x00\n        /* \"src/voting.sol\":2055:2058  _id */\n      dup4\n        /* \"src/voting.sol\":2044:2059  votingPoll[_id] */\n      dup2\n      mstore\n      0x20\n      add\n      swap1\n      dup2\n      mstore\n      0x20\n      add\n      0x00\n      keccak256\n        /* \"src/voting.sol\":2020:2059  VotingPoll storage VP = votingPoll[_id] */\n      swap1\n      pop\n        /* \"src/voting.sol\":2098:2099  0 */\n      0x00\n        /* \"src/voting.sol\":2075:2100  VP.chairman != address(0) */\n      0xffffffffffffffffffffffffffffffffffffffff\n      and\n        /* \"src/voting.sol\":2075:2077  VP */\n      dup2\n        /* \"src/voting.sol\":2075:2086  VP.chairman */\n      0x01\n      add\n      0x00\n      swap1\n      sload\n      swap1\n      0x0100\n      exp\n      swap1\n      div\n      0xffffffffffffffffffffffffffffffffffffffff\n      and\n        /* \"src/voting.sol\":2075:2100  VP.chairman != address(0) */\n      0xffffffffffffffffffffffffffffffffffffffff\n      and\n      eq\n      iszero\n        /* \"src/voting.sol\":2066:2126  require (VP.chairman != address(0) , \"yet to create a poll\") */\n      tag_79\n      jumpi\n      mload(0x40)\n      0x08c379a000000000000000000000000000000000000000000000000000000000\n      dup2\n      mstore\n      0x04\n      add\n      tag_80\n      swap1\n      tag_81\n      jump\t// in\n    tag_80:\n      mload(0x40)\n      dup1\n      swap2\n      sub\n      swap1\n      revert\n    tag_79:\n        /* \"src/voting.sol\":2157:2167  msg.sender */\n      caller\n        /* \"src/voting.sol\":2142:2167  VP.chairman == msg.sender */\n      0xffffffffffffffffffffffffffffffffffffffff\n      and\n        /* \"src/voting.sol\":2142:2144  VP */\n      dup2\n        /* \"src/voting.sol\":2142:2153  VP.chairman */\n      0x01\n      add\n      0x00\n      swap1\n      sload\n      swap1\n      0x0100\n      exp\n      swap1\n      div\n      0xffffffffffffffffffffffffffffffffffffffff\n      and\n        /* \"src/voting.sol\":2142:2167  VP.chairman == msg.sender */\n      0xffffffffffffffffffffffffffffffffffffffff\n      and\n      eq\n        /* \"src/voting.sol\":2135:2168  assert(VP.chairman == msg.sender) */\n      tag_82\n      jumpi\n      tag_83\n      tag_84\n      jump\t// in\n    tag_83:\n    tag_82:\n        /* \"src/voting.sol\":2210:2212  VP */\n      dup1\n        /* \"src/voting.sol\":2210:2230  VP.maxNoOfCandidates */\n      0x03\n      add\n      0x00\n      swap1\n      sload\n      swap1\n      0x0100\n      exp\n      swap1\n      div\n      0xffffffff\n      and\n        /* \"src/voting.sol\":2183:2230  VP.currentNoOfCandidates < VP.maxNoOfCandidates */\n      0xffffffff\n      and\n        /* \"src/voting.sol\":2183:2185  VP */\n      dup2\n        /* \"src/voting.sol\":2183:2207  VP.currentNoOfCandidates */\n      0x03\n      add\n      0x04\n      swap1\n      sload\n      swap1\n      0x0100\n      exp\n      swap1\n      div\n      0xffffffff\n      and\n        /* \"src/voting.sol\":2183:2230  VP.currentNoOfCandidates < VP.maxNoOfCandidates */\n      0xffffffff\n      and\n      lt\n        /* \"src/voting.sol\":2175:2281  require(VP.currentNoOfCandidates < VP.maxNoOfCandidates, \"maximum no of candidate per session registered\") */\n      tag_85\n      jumpi\n      mload(0x40)\n      0x08c379a000000000000000000000000000000000000000000000000000000000\n      dup2\n      mstore\n      0x04\n      add\n      tag_86\n      swap1\n      tag_87\n      jump\t// in\n    tag_86:\n      mload(0x40)\n      dup1\n      swap2\n      sub\n      swap1\n      revert\n    tag_85:\n        /* \"src/voting.sol\":2326:2330  true */\n      0x01\n        /* \"src/voting.sol\":2288:2303  CandidateStatus */\n      0x05\n        /* \"src/voting.sol\":2288:2308  CandidateStatus[_id] */\n      0x00\n        /* \"src/voting.sol\":2304:2307  _id */\n      dup5\n        /* \"src/voting.sol\":2288:2308  CandidateStatus[_id] */\n      dup2\n      mstore\n      0x20\n      add\n      swap1\n      dup2\n      mstore\n      0x20\n      add\n      0x00\n      keccak256\n        /* \"src/voting.sol\":2288:2323  CandidateStatus[_id][_newCandidate] */\n      0x00\n        /* \"src/voting.sol\":2309:2322  _newCandidate */\n      dup6\n        /* \"src/voting.sol\":2288:2323  CandidateStatus[_id][_newCandidate] */\n      0xffffffffffffffffffffffffffffffffffffffff\n      and\n      0xffffffffffffffffffffffffffffffffffffffff\n      and\n      dup2\n      mstore\n      0x20\n      add\n      swap1\n      dup2\n      mstore\n      0x20\n      add\n      0x00\n      keccak256\n      0x00\n        /* \"src/voting.sol\":2288:2330  CandidateStatus[_id][_newCandidate] = true */\n      0x0100\n      exp\n      dup2\n      sload\n      dup2\n      0xff\n      mul\n      not\n      and\n      swap1\n      dup4\n      iszero\n      iszero\n      mul\n      or\n      swap1\n      sstore\n      pop\n        /* \"src/voting.sol\":2338:2340  VP */\n      dup1\n        /* \"src/voting.sol\":2338:2351  VP.candidates */\n      0x02\n      add\n        /* \"src/voting.sol\":2357:2370  _newCandidate */\n      dup4\n        /* \"src/voting.sol\":2338:2371  VP.candidates.push(_newCandidate) */\n      swap1\n      dup1\n      0x01\n      dup2\n      sload\n      add\n      dup1\n      dup3\n      sstore\n      dup1\n      swap2\n      pop\n      pop\n      0x01\n      swap1\n      sub\n      swap1\n      0x00\n      mstore\n      keccak256(0x00, 0x20)\n      add\n      0x00\n      swap1\n      swap2\n      swap1\n      swap2\n      swap1\n      swap2\n      0x0100\n      exp\n      dup2\n      sload\n      dup2\n      0xffffffffffffffffffffffffffffffffffffffff\n      mul\n      not\n      and\n      swap1\n      dup4\n      0xffffffffffffffffffffffffffffffffffffffff\n      and\n      mul\n      or\n      swap1\n      sstore\n      pop\n        /* \"src/voting.sol\":2379:2381  VP */\n      dup1\n        /* \"src/voting.sol\":2379:2403  VP.currentNoOfCandidates */\n      0x03\n      add\n      0x04\n        /* \"src/voting.sol\":2379:2405  VP.currentNoOfCandidates++ */\n      dup2\n      dup2\n      swap1\n      sload\n      swap1\n      0x0100\n      exp\n      swap1\n      div\n      0xffffffff\n      and\n      dup1\n      swap3\n      swap2\n      swap1\n      tag_89\n      swap1\n      tag_90\n      jump\t// in\n    tag_89:\n      swap2\n      swap1\n      0x0100\n      exp\n      dup2\n      sload\n      dup2\n      0xffffffff\n      mul\n      not\n      and\n      swap1\n      dup4\n      0xffffffff\n      and\n      mul\n      or\n      swap1\n      sstore\n      pop\n      pop\n        /* \"src/voting.sol\":2417:2447  becameCandidate(_newCandidate) */\n      0xc19c59aa93348e8fc54764bc642eca975e2639f44cc683ef8f027e1529cbda32\n        /* \"src/voting.sol\":2433:2446  _newCandidate */\n      dup4\n        /* \"src/voting.sol\":2417:2447  becameCandidate(_newCandidate) */\n      mload(0x40)\n      tag_91\n      swap2\n      swap1\n      tag_92\n      jump\t// in\n    tag_91:\n      mload(0x40)\n      dup1\n      swap2\n      sub\n      swap1\n      log1\n        /* \"src/voting.sol\":2013:2451  {... */\n      pop\n        /* \"src/voting.sol\":1950:2451  function AddCandidate(address _newCandidate, uint _id) external{... */\n      pop\n      pop\n      jump\t// out\n        /* \"src/voting.sol\":4458:4565  function getVotePollProps(uint _id) external view returns(VotingPoll memory){... */\n    tag_25:\n        /* \"src/voting.sol\":4516:4533  VotingPoll memory */\n      tag_93\n      tag_94\n      jump\t// in\n    tag_93:\n        /* \"src/voting.sol\":4546:4556  votingPoll */\n      0x03\n        /* \"src/voting.sol\":4546:4561  votingPoll[_id] */\n      0x00\n        /* \"src/voting.sol\":4557:4560  _id */\n      dup4\n        /* \"src/voting.sol\":4546:4561  votingPoll[_id] */\n      dup2\n      mstore\n      0x20\n      add\n      swap1\n      dup2\n      mstore\n      0x20\n      add\n      0x00\n      keccak256\n        /* \"src/voting.sol\":4539:4561  return votingPoll[_id] */\n      mload(0x40)\n      dup1\n      0xc0\n      add\n      0x40\n      mstore\n      swap1\n      dup2\n      0x00\n      dup3\n      add\n      dup1\n      sload\n      tag_96\n      swap1\n      tag_97\n      jump\t// in\n    tag_96:\n      dup1\n      0x1f\n      add\n      0x20\n      dup1\n      swap2\n      div\n      mul\n      0x20\n      add\n      mload(0x40)\n      swap1\n      dup2\n      add\n      0x40\n      mstore\n      dup1\n      swap3\n      swap2\n      swap1\n      dup2\n      dup2\n      mstore\n      0x20\n      add\n      dup3\n      dup1\n      sload\n      tag_98\n      swap1\n      tag_97\n      jump\t// in\n    tag_98:\n      dup1\n      iszero\n      tag_99\n      jumpi\n      dup1\n      0x1f\n      lt\n      tag_100\n      jumpi\n      0x0100\n      dup1\n      dup4\n      sload\n      div\n      mul\n      dup4\n      mstore\n      swap2\n      0x20\n      add\n      swap2\n      jump(tag_99)\n    tag_100:\n      dup3\n      add\n      swap2\n      swap1\n      0x00\n      mstore\n      keccak256(0x00, 0x20)\n      swap1\n    tag_101:\n      dup2\n      sload\n      dup2\n      mstore\n      swap1\n      0x01\n      add\n      swap1\n      0x20\n      add\n      dup1\n      dup4\n      gt\n      tag_101\n      jumpi\n      dup3\n      swap1\n      sub\n      0x1f\n      and\n      dup3\n      add\n      swap2\n    tag_99:\n      pop\n      pop\n      pop\n      pop\n      pop\n      dup2\n      mstore\n      0x20\n      add\n      0x01\n      dup3\n      add\n      0x00\n      swap1\n      sload\n      swap1\n      0x0100\n      exp\n      swap1\n      div\n      0xffffffffffffffffffffffffffffffffffffffff\n      and\n      0xffffffffffffffffffffffffffffffffffffffff\n      and\n      0xffffffffffffffffffffffffffffffffffffffff\n      and\n      dup2\n      mstore\n      0x20\n      add\n      0x02\n      dup3\n      add\n      dup1\n      sload\n      dup1\n      0x20\n      mul\n      0x20\n      add\n      mload(0x40)\n      swap1\n      dup2\n      add\n      0x40\n      mstore\n      dup1\n      swap3\n      swap2\n      swap1\n      dup2\n      dup2\n      mstore\n      0x20\n      add\n      dup3\n      dup1\n      sload\n      dup1\n      iszero\n      tag_102\n      jumpi\n      0x20\n      mul\n      dup3\n      add\n      swap2\n      swap1\n      0x00\n      mstore\n      keccak256(0x00, 0x20)\n      swap1\n    tag_103:\n      dup2\n      0x00\n      swap1\n      sload\n      swap1\n      0x0100\n      exp\n      swap1\n      div\n      0xffffffffffffffffffffffffffffffffffffffff\n      and\n      0xffffffffffffffffffffffffffffffffffffffff\n      and\n      dup2\n      mstore\n      0x20\n      add\n      swap1\n      0x01\n      add\n      swap1\n      dup1\n      dup4\n      gt\n      tag_103\n      jumpi\n    tag_102:\n      pop\n      pop\n      pop\n      pop\n      pop\n      dup2\n      mstore\n      0x20\n      add\n      0x03\n      dup3\n      add\n      0x00\n      swap1\n      sload\n      swap1\n      0x0100\n      exp\n      swap1\n      div\n      0xffffffff\n      and\n      0xffffffff\n      and\n      0xffffffff\n      and\n      dup2\n      mstore\n      0x20\n      add\n      0x03\n      dup3\n      add\n      0x04\n      swap1\n      sload\n      swap1\n      0x0100\n      exp\n      swap1\n      div\n      0xffffffff\n      and\n      0xffffffff\n      and\n      0xffffffff\n      and\n      dup2\n      mstore\n      0x20\n      add\n      0x03\n      dup3\n      add\n      0x08\n      swap1\n      sload\n      swap1\n      0x0100\n      exp\n      swap1\n      div\n      0xff\n      and\n      iszero\n      iszero\n      iszero\n      iszero\n      dup2\n      mstore\n      pop\n      pop\n      swap1\n      pop\n        /* \"src/voting.sol\":4458:4565  function getVotePollProps(uint _id) external view returns(VotingPoll memory){... */\n      swap2\n      swap1\n      pop\n      jump\t// out\n        /* \"src/voting.sol\":3369:3527  function NoOfRegisteredCandidates( uint _id) public view returns(uint){... */\n    tag_30:\n        /* \"src/voting.sol\":3434:3438  uint */\n      0x00\n        /* \"src/voting.sol\":3446:3467  VotingPoll storage VP */\n      dup1\n        /* \"src/voting.sol\":3470:3480  votingPoll */\n      0x03\n        /* \"src/voting.sol\":3470:3485  votingPoll[_id] */\n      0x00\n        /* \"src/voting.sol\":3481:3484  _id */\n      dup5\n        /* \"src/voting.sol\":3470:3485  votingPoll[_id] */\n      dup2\n      mstore\n      0x20\n      add\n      swap1\n      dup2\n      mstore\n      0x20\n      add\n      0x00\n      keccak256\n        /* \"src/voting.sol\":3446:3485  VotingPoll storage VP = votingPoll[_id] */\n      swap1\n      pop\n        /* \"src/voting.sol\":3499:3501  VP */\n      dup1\n        /* \"src/voting.sol\":3499:3523  VP.currentNoOfCandidates */\n      0x03\n      add\n      0x04\n      swap1\n      sload\n      swap1\n      0x0100\n      exp\n      swap1\n      div\n      0xffffffff\n      and\n        /* \"src/voting.sol\":3492:3523  return VP.currentNoOfCandidates */\n      0xffffffff\n      and\n      swap2\n      pop\n      pop\n        /* \"src/voting.sol\":3369:3527  function NoOfRegisteredCandidates( uint _id) public view returns(uint){... */\n      swap2\n      swap1\n      pop\n      jump\t// out\n        /* \"src/voting.sol\":627:674  mapping (address => uint256) public replayNonce */\n    tag_36:\n      mstore(0x20, 0x04)\n      dup1\n      0x00\n      mstore\n      keccak256(0x00, 0x40)\n      0x00\n      swap2\n      pop\n      swap1\n      pop\n      sload\n      dup2\n      jump\t// out\n        /* \"src/voting.sol\":484:516  VotingPoll[] public VotingStruct */\n    tag_40:\n      0x02\n      dup2\n      dup2\n      sload\n      dup2\n      lt\n      tag_105\n      jumpi\n      0x00\n      dup1\n      revert\n    tag_105:\n      swap1\n      0x00\n      mstore\n      keccak256(0x00, 0x20)\n      swap1\n      0x04\n      mul\n      add\n      0x00\n      swap2\n      pop\n      swap1\n      pop\n      dup1\n      0x00\n      add\n      dup1\n      sload\n      tag_107\n      swap1\n      tag_97\n      jump\t// in\n    tag_107:\n      dup1\n      0x1f\n      add\n      0x20\n      dup1\n      swap2\n      div\n      mul\n      0x20\n      add\n      mload(0x40)\n      swap1\n      dup2\n      add\n      0x40\n      mstore\n      dup1\n      swap3\n      swap2\n      swap1\n      dup2\n      dup2\n      mstore\n      0x20\n      add\n      dup3\n      dup1\n      sload\n      tag_108\n      swap1\n      tag_97\n      jump\t// in\n    tag_108:\n      dup1\n      iszero\n      tag_109\n      jumpi\n      dup1\n      0x1f\n      lt\n      tag_110\n      jumpi\n      0x0100\n      dup1\n      dup4\n      sload\n      div\n      mul\n      dup4\n      mstore\n      swap2\n      0x20\n      add\n      swap2\n      jump(tag_109)\n    tag_110:\n      dup3\n      add\n      swap2\n      swap1\n      0x00\n      mstore\n      keccak256(0x00, 0x20)\n      swap1\n    tag_111:\n      dup2\n      sload\n      dup2\n      mstore\n      swap1\n      0x01\n      add\n      swap1\n      0x20\n      add\n      dup1\n      dup4\n      gt\n      tag_111\n      jumpi\n      dup3\n      swap1\n      sub\n      0x1f\n      and\n      dup3\n      add\n      swap2\n    tag_109:\n      pop\n      pop\n      pop\n      pop\n      pop\n      swap1\n      dup1\n      0x01\n      add\n      0x00\n      swap1\n      sload\n      swap1\n      0x0100\n      exp\n      swap1\n      div\n      0xffffffffffffffffffffffffffffffffffffffff\n      and\n      swap1\n      dup1\n      0x03\n      add\n      0x00\n      swap1\n      sload\n      swap1\n      0x0100\n      exp\n      swap1\n      div\n      0xffffffff\n      and\n      swap1\n      dup1\n      0x03\n      add\n      0x04\n      swap1\n      sload\n      swap1\n      0x0100\n      exp\n      swap1\n      div\n      0xffffffff\n      and\n      swap1\n      dup1\n      0x03\n      add\n      0x08\n      swap1\n      sload\n      swap1\n      0x0100\n      exp\n      swap1\n      div\n      0xff\n      and\n      swap1\n      pop\n      dup6\n      jump\t// out\n        /* \"src/voting.sol\":3532:3692  function AllCandidates( uint _id) public view returns(address[] memory _candidates){... */\n    tag_45:\n        /* \"src/voting.sol\":3586:3614  address[] memory _candidates */\n      0x60\n        /* \"src/voting.sol\":3622:3643  VotingPoll storage VP */\n      0x00\n        /* \"src/voting.sol\":3646:3656  votingPoll */\n      0x03\n        /* \"src/voting.sol\":3646:3661  votingPoll[_id] */\n      0x00\n        /* \"src/voting.sol\":3657:3660  _id */\n      dup5\n        /* \"src/voting.sol\":3646:3661  votingPoll[_id] */\n      dup2\n      mstore\n      0x20\n      add\n      swap1\n      dup2\n      mstore\n      0x20\n      add\n      0x00\n      keccak256\n        /* \"src/voting.sol\":3622:3661  VotingPoll storage VP = votingPoll[_id] */\n      swap1\n      pop\n        /* \"src/voting.sol\":3675:3677  VP */\n      dup1\n        /* \"src/voting.sol\":3675:3688  VP.candidates */\n      0x02\n      add\n        /* \"src/voting.sol\":3668:3688  return VP.candidates */\n      dup1\n      sload\n      dup1\n      0x20\n      mul\n      0x20\n      add\n      mload(0x40)\n      swap1\n      dup2\n      add\n      0x40\n      mstore\n      dup1\n      swap3\n      swap2\n      swap1\n      dup2\n      dup2\n      mstore\n      0x20\n      add\n      dup3\n      dup1\n      sload\n      dup1\n      iszero\n      tag_113\n      jumpi\n      0x20\n      mul\n      dup3\n      add\n      swap2\n      swap1\n      0x00\n      mstore\n      keccak256(0x00, 0x20)\n      swap1\n    tag_114:\n      dup2\n      0x00\n      swap1\n      sload\n      swap1\n      0x0100\n      exp\n      swap1\n      div\n      0xffffffffffffffffffffffffffffffffffffffff\n      and\n      0xffffffffffffffffffffffffffffffffffffffff\n      and\n      dup2\n      mstore\n      0x20\n      add\n      swap1\n      0x01\n      add\n      swap1\n      dup1\n      dup4\n      gt\n      tag_114\n      jumpi\n    tag_113:\n      pop\n      pop\n      pop\n      pop\n      pop\n      swap2\n      pop\n      pop\n        /* \"src/voting.sol\":3532:3692  function AllCandidates( uint _id) public view returns(address[] memory _candidates){... */\n      swap2\n      swap1\n      pop\n      jump\t// out\n        /* \"src/voting.sol\":3695:4274  function revealWinner( uint _id) external view returns ( uint[] memory CV, address, uint){... */\n    tag_50:\n        /* \"src/voting.sol\":3752:3768  uint[] memory CV */\n      0x60\n        /* \"src/voting.sol\":3770:3777  address */\n      0x00\n        /* \"src/voting.sol\":3779:3783  uint */\n      dup1\n        /* \"src/voting.sol\":3791:3812  VotingPoll storage VP */\n      0x00\n        /* \"src/voting.sol\":3815:3825  votingPoll */\n      0x03\n        /* \"src/voting.sol\":3815:3830  votingPoll[_id] */\n      0x00\n        /* \"src/voting.sol\":3826:3829  _id */\n      dup7\n        /* \"src/voting.sol\":3815:3830  votingPoll[_id] */\n      dup2\n      mstore\n      0x20\n      add\n      swap1\n      dup2\n      mstore\n      0x20\n      add\n      0x00\n      keccak256\n        /* \"src/voting.sol\":3791:3830  VotingPoll storage VP = votingPoll[_id] */\n      swap1\n      pop\n        /* \"src/voting.sol\":3868:3869  0 */\n      0x00\n        /* \"src/voting.sol\":3845:3870  VP.chairman != address(0) */\n      0xffffffffffffffffffffffffffffffffffffffff\n      and\n        /* \"src/voting.sol\":3845:3847  VP */\n      dup2\n        /* \"src/voting.sol\":3845:3856  VP.chairman */\n      0x01\n      add\n      0x00\n      swap1\n      sload\n      swap1\n      0x0100\n      exp\n      swap1\n      div\n      0xffffffffffffffffffffffffffffffffffffffff\n      and\n        /* \"src/voting.sol\":3845:3870  VP.chairman != address(0) */\n      0xffffffffffffffffffffffffffffffffffffffff\n      and\n      eq\n      iszero\n        /* \"src/voting.sol\":3837:3890  require(VP.chairman != address(0), \"No poll created\") */\n      tag_116\n      jumpi\n      mload(0x40)\n      0x08c379a000000000000000000000000000000000000000000000000000000000\n      dup2\n      mstore\n      0x04\n      add\n      tag_117\n      swap1\n      tag_118\n      jump\t// in\n    tag_117:\n      mload(0x40)\n      dup1\n      swap2\n      sub\n      swap1\n      revert\n    tag_116:\n        /* \"src/voting.sol\":3913:3915  VP */\n      dup1\n        /* \"src/voting.sol\":3913:3926  VP.candidates */\n      0x02\n      add\n        /* \"src/voting.sol\":3913:3933  VP.candidates.length */\n      dup1\n      sload\n      swap1\n      pop\n        /* \"src/voting.sol\":3902:3934  new uint[](VP.candidates.length) */\n      0xffffffffffffffff\n      dup2\n      gt\n      iszero\n      tag_119\n      jumpi\n      tag_120\n      tag_121\n      jump\t// in\n    tag_120:\n    tag_119:\n      mload(0x40)\n      swap1\n      dup1\n      dup3\n      mstore\n      dup1\n      0x20\n      mul\n      0x20\n      add\n      dup3\n      add\n      0x40\n      mstore\n      dup1\n      iszero\n      tag_122\n      jumpi\n      dup2\n      0x20\n      add\n      0x20\n      dup3\n      mul\n      dup1\n      calldatasize\n      dup4\n      calldatacopy\n      dup1\n      dup3\n      add\n      swap2\n      pop\n      pop\n      swap1\n      pop\n    tag_122:\n      pop\n        /* \"src/voting.sol\":3897:3934  CV = new uint[](VP.candidates.length) */\n      swap4\n      pop\n        /* \"src/voting.sol\":3941:3957  uint highestVote */\n      0x00\n        /* \"src/voting.sol\":3964:3978  address winner */\n      dup1\n        /* \"src/voting.sol\":3990:3996  uint i */\n      0x00\n        /* \"src/voting.sol\":3985:4232  for (uint i = 0; i < VP.candidates.length; i++){... */\n    tag_123:\n        /* \"src/voting.sol\":4006:4008  VP */\n      dup4\n        /* \"src/voting.sol\":4006:4019  VP.candidates */\n      0x02\n      add\n        /* \"src/voting.sol\":4006:4026  VP.candidates.length */\n      dup1\n      sload\n      swap1\n      pop\n        /* \"src/voting.sol\":4002:4003  i */\n      dup2\n        /* \"src/voting.sol\":4002:4026  i < VP.candidates.length */\n      lt\n        /* \"src/voting.sol\":3985:4232  for (uint i = 0; i < VP.candidates.length; i++){... */\n      iszero\n      tag_124\n      jumpi\n        /* \"src/voting.sol\":4041:4049  uint val */\n      0x00\n        /* \"src/voting.sol\":4052:4070  getPosition(_id,i) */\n      tag_126\n        /* \"src/voting.sol\":4064:4067  _id */\n      dup10\n        /* \"src/voting.sol\":4068:4069  i */\n      dup4\n        /* \"src/voting.sol\":4052:4063  getPosition */\n      tag_127\n        /* \"src/voting.sol\":4052:4070  getPosition(_id,i) */\n      jump\t// in\n    tag_126:\n        /* \"src/voting.sol\":4041:4070  uint val = getPosition(_id,i) */\n      swap1\n      pop\n        /* \"src/voting.sol\":4086:4097  highestVote */\n      dup4\n        /* \"src/voting.sol\":4080:4083  val */\n      dup2\n        /* \"src/voting.sol\":4080:4097  val > highestVote */\n      gt\n        /* \"src/voting.sol\":4077:4171  if(val > highestVote){... */\n      iszero\n      tag_128\n      jumpi\n        /* \"src/voting.sol\":4123:4126  val */\n      dup1\n        /* \"src/voting.sol\":4109:4126  highestVote = val */\n      swap4\n      pop\n        /* \"src/voting.sol\":4147:4149  VP */\n      dup5\n        /* \"src/voting.sol\":4147:4160  VP.candidates */\n      0x02\n      add\n        /* \"src/voting.sol\":4161:4162  i */\n      dup3\n        /* \"src/voting.sol\":4147:4163  VP.candidates[i] */\n      dup2\n      sload\n      dup2\n      lt\n      tag_129\n      jumpi\n      tag_130\n      tag_131\n      jump\t// in\n    tag_130:\n    tag_129:\n      swap1\n      0x00\n      mstore\n      keccak256(0x00, 0x20)\n      add\n      0x00\n      swap1\n      sload\n      swap1\n      0x0100\n      exp\n      swap1\n      div\n      0xffffffffffffffffffffffffffffffffffffffff\n      and\n        /* \"src/voting.sol\":4138:4163  winner = VP.candidates[i] */\n      swap3\n      pop\n        /* \"src/voting.sol\":4077:4171  if(val > highestVote){... */\n    tag_128:\n        /* \"src/voting.sol\":4186:4199  CandidateVote */\n      0x06\n        /* \"src/voting.sol\":4186:4204  CandidateVote[_id] */\n      0x00\n        /* \"src/voting.sol\":4200:4203  _id */\n      dup11\n        /* \"src/voting.sol\":4186:4204  CandidateVote[_id] */\n      dup2\n      mstore\n      0x20\n      add\n      swap1\n      dup2\n      mstore\n      0x20\n      add\n      0x00\n      keccak256\n        /* \"src/voting.sol\":4186:4222  CandidateVote[_id][VP.candidates[i]] */\n      0x00\n        /* \"src/voting.sol\":4205:4207  VP */\n      dup7\n        /* \"src/voting.sol\":4205:4218  VP.candidates */\n      0x02\n      add\n        /* \"src/voting.sol\":4219:4220  i */\n      dup5\n        /* \"src/voting.sol\":4205:4221  VP.candidates[i] */\n      dup2\n      sload\n      dup2\n      lt\n      tag_133\n      jumpi\n      tag_134\n      tag_131\n      jump\t// in\n    tag_134:\n    tag_133:\n      swap1\n      0x00\n      mstore\n      keccak256(0x00, 0x20)\n      add\n      0x00\n      swap1\n      sload\n      swap1\n      0x0100\n      exp\n      swap1\n      div\n      0xffffffffffffffffffffffffffffffffffffffff\n      and\n        /* \"src/voting.sol\":4186:4222  CandidateVote[_id][VP.candidates[i]] */\n      0xffffffffffffffffffffffffffffffffffffffff\n      and\n      0xffffffffffffffffffffffffffffffffffffffff\n      and\n      dup2\n      mstore\n      0x20\n      add\n      swap1\n      dup2\n      mstore\n      0x20\n      add\n      0x00\n      keccak256\n      sload\n        /* \"src/voting.sol\":4177:4179  CV */\n      dup9\n        /* \"src/voting.sol\":4180:4181  i */\n      dup4\n        /* \"src/voting.sol\":4177:4182  CV[i] */\n      dup2\n      mload\n      dup2\n      lt\n      tag_136\n      jumpi\n      tag_137\n      tag_131\n      jump\t// in\n    tag_137:\n    tag_136:\n      0x20\n      mul\n      0x20\n      add\n      add\n        /* \"src/voting.sol\":4177:4223  CV[i] = (CandidateVote[_id][VP.candidates[i]]) */\n      dup2\n      dup2\n      mstore\n      pop\n      pop\n        /* \"src/voting.sol\":4032:4232  {... */\n      pop\n        /* \"src/voting.sol\":4028:4031  i++ */\n      dup1\n      dup1\n      tag_138\n      swap1\n      tag_139\n      jump\t// in\n    tag_138:\n      swap2\n      pop\n      pop\n        /* \"src/voting.sol\":3985:4232  for (uint i = 0; i < VP.candidates.length; i++){... */\n      jump(tag_123)\n    tag_124:\n      pop\n        /* \"src/voting.sol\":4246:4248  CV */\n      dup6\n        /* \"src/voting.sol\":4250:4256  winner */\n      dup2\n        /* \"src/voting.sol\":4258:4269  highestVote */\n      dup4\n        /* \"src/voting.sol\":4238:4270  return (CV, winner, highestVote) */\n      swap6\n      pop\n      swap6\n      pop\n      swap6\n      pop\n      pop\n      pop\n      pop\n        /* \"src/voting.sol\":3695:4274  function revealWinner( uint _id) external view returns ( uint[] memory CV, address, uint){... */\n      swap2\n      swap4\n      swap1\n      swap3\n      pop\n      jump\t// out\n        /* \"src/voting.sol\":459:482  uint[] public VotingKey */\n    tag_55:\n      0x01\n      dup2\n      dup2\n      sload\n      dup2\n      lt\n      tag_140\n      jumpi\n      0x00\n      dup1\n      revert\n    tag_140:\n      swap1\n      0x00\n      mstore\n      keccak256(0x00, 0x20)\n      add\n      0x00\n      swap2\n      pop\n      swap1\n      pop\n      sload\n      dup2\n      jump\t// out\n        /* \"src/voting.sol\":4570:4785  function metaVotingHash(address Cand, uint _id, uint256 nonce, uint256 time) public view returns(bytes32){... */\n    tag_60:\n        /* \"src/voting.sol\":4667:4674  bytes32 */\n      0x00\n        /* \"src/voting.sol\":4723:4727  this */\n      address\n        /* \"src/voting.sol\":4756:4760  Cand */\n      dup6\n        /* \"src/voting.sol\":4762:4765  _id */\n      dup6\n        /* \"src/voting.sol\":4767:4772  nonce */\n      dup6\n        /* \"src/voting.sol\":4774:4778  time */\n      dup6\n        /* \"src/voting.sol\":4698:4779  abi.encodePacked(address(this),\"metatransaction Voting \", Cand, _id, nonce, time) */\n      add(0x20, mload(0x40))\n      tag_143\n      swap6\n      swap5\n      swap4\n      swap3\n      swap2\n      swap1\n      tag_144\n      jump\t// in\n    tag_143:\n      mload(0x40)\n      0x20\n      dup2\n      dup4\n      sub\n      sub\n      dup2\n      mstore\n      swap1\n      0x40\n      mstore\n        /* \"src/voting.sol\":4688:4780  keccak256(abi.encodePacked(address(this),\"metatransaction Voting \", Cand, _id, nonce, time)) */\n      dup1\n      mload\n      swap1\n      0x20\n      add\n      keccak256\n        /* \"src/voting.sol\":4681:4780  return keccak256(abi.encodePacked(address(this),\"metatransaction Voting \", Cand, _id, nonce, time)) */\n      swap1\n      pop\n        /* \"src/voting.sol\":4570:4785  function metaVotingHash(address Cand, uint _id, uint256 nonce, uint256 time) public view returns(bytes32){... */\n      swap5\n      swap4\n      pop\n      pop\n      pop\n      pop\n      jump\t// out\n        /* \"src/voting.sol\":2454:2945  function vote(address Cand, uint _id, uint256 nonce, bytes memory signature) external  isCandidate(Cand, _id) StillVoting(_id){... */\n    tag_66:\n        /* \"src/voting.sol\":2553:2557  Cand */\n      dup4\n        /* \"src/voting.sol\":2559:2562  _id */\n      dup4\n        /* \"src/voting.sol\":1289:1293  true */\n      0x01\n        /* \"src/voting.sol\":1261:1293  CandidateStatus[_id][Cand]==true */\n      iszero\n      iszero\n        /* \"src/voting.sol\":1261:1276  CandidateStatus */\n      0x05\n        /* \"src/voting.sol\":1261:1281  CandidateStatus[_id] */\n      0x00\n        /* \"src/voting.sol\":1277:1280  _id */\n      dup4\n        /* \"src/voting.sol\":1261:1281  CandidateStatus[_id] */\n      dup2\n      mstore\n      0x20\n      add\n      swap1\n      dup2\n      mstore\n      0x20\n      add\n      0x00\n      keccak256\n        /* \"src/voting.sol\":1261:1287  CandidateStatus[_id][Cand] */\n      0x00\n        /* \"src/voting.sol\":1282:1286  Cand */\n      dup5\n        /* \"src/voting.sol\":1261:1287  CandidateStatus[_id][Cand] */\n      0xffffffffffffffffffffffffffffffffffffffff\n      and\n      0xffffffffffffffffffffffffffffffffffffffff\n      and\n      dup2\n      mstore\n      0x20\n      add\n      swap1\n      dup2\n      mstore\n      0x20\n      add\n      0x00\n      keccak256\n      0x00\n      swap1\n      sload\n      swap1\n      0x0100\n      exp\n      swap1\n      div\n      0xff\n      and\n        /* \"src/voting.sol\":1261:1293  CandidateStatus[_id][Cand]==true */\n      iszero\n      iszero\n      eq\n        /* \"src/voting.sol\":1253:1339  require(CandidateStatus[_id][Cand]==true,'This address does not exist as a candidate') */\n      tag_146\n      jumpi\n      mload(0x40)\n      0x08c379a000000000000000000000000000000000000000000000000000000000\n      dup2\n      mstore\n      0x04\n      add\n      tag_147\n      swap1\n      tag_148\n      jump\t// in\n    tag_147:\n      mload(0x40)\n      dup1\n      swap2\n      sub\n      swap1\n      revert\n    tag_146:\n        /* \"src/voting.sol\":2576:2579  _id */\n      dup5\n        /* \"src/voting.sol\":1389:1410  VotingPoll storage VP */\n      0x00\n        /* \"src/voting.sol\":1413:1423  votingPoll */\n      0x03\n        /* \"src/voting.sol\":1413:1428  votingPoll[_id] */\n      0x00\n        /* \"src/voting.sol\":1424:1427  _id */\n      dup4\n        /* \"src/voting.sol\":1413:1428  votingPoll[_id] */\n      dup2\n      mstore\n      0x20\n      add\n      swap1\n      dup2\n      mstore\n      0x20\n      add\n      0x00\n      keccak256\n        /* \"src/voting.sol\":1389:1428  VotingPoll storage VP = votingPoll[_id] */\n      swap1\n      pop\n        /* \"src/voting.sol\":1455:1459  true */\n      0x01\n        /* \"src/voting.sol\":1442:1459  VP.voting == true */\n      iszero\n      iszero\n        /* \"src/voting.sol\":1442:1444  VP */\n      dup2\n        /* \"src/voting.sol\":1442:1451  VP.voting */\n      0x03\n      add\n      0x08\n      swap1\n      sload\n      swap1\n      0x0100\n      exp\n      swap1\n      div\n      0xff\n      and\n        /* \"src/voting.sol\":1442:1459  VP.voting == true */\n      iszero\n      iszero\n      eq\n        /* \"src/voting.sol\":1434:1480  require(VP.voting == true, \"voting has ended\") */\n      tag_150\n      jumpi\n      mload(0x40)\n      0x08c379a000000000000000000000000000000000000000000000000000000000\n      dup2\n      mstore\n      0x04\n      add\n      tag_151\n      swap1\n      tag_152\n      jump\t// in\n    tag_151:\n      mload(0x40)\n      dup1\n      swap2\n      sub\n      swap1\n      revert\n    tag_150:\n        /* \"src/voting.sol\":2587:2603  bytes32 metaHash */\n      0x00\n        /* \"src/voting.sol\":2606:2652  metaVotingHash(Cand,_id,nonce,block.timestamp) */\n      tag_154\n        /* \"src/voting.sol\":2621:2625  Cand */\n      dup10\n        /* \"src/voting.sol\":2626:2629  _id */\n      dup10\n        /* \"src/voting.sol\":2630:2635  nonce */\n      dup10\n        /* \"src/voting.sol\":2636:2651  block.timestamp */\n      timestamp\n        /* \"src/voting.sol\":2606:2620  metaVotingHash */\n      tag_60\n        /* \"src/voting.sol\":2606:2652  metaVotingHash(Cand,_id,nonce,block.timestamp) */\n      jump\t// in\n    tag_154:\n        /* \"src/voting.sol\":2587:2652  bytes32 metaHash = metaVotingHash(Cand,_id,nonce,block.timestamp) */\n      swap1\n      pop\n        /* \"src/voting.sol\":2659:2673  address signer */\n      0x00\n        /* \"src/voting.sol\":2676:2705  getSigner(metaHash,signature) */\n      tag_155\n        /* \"src/voting.sol\":2686:2694  metaHash */\n      dup3\n        /* \"src/voting.sol\":2695:2704  signature */\n      dup9\n        /* \"src/voting.sol\":2676:2685  getSigner */\n      tag_156\n        /* \"src/voting.sol\":2676:2705  getSigner(metaHash,signature) */\n      jump\t// in\n    tag_155:\n        /* \"src/voting.sol\":2659:2705  address signer = getSigner(metaHash,signature) */\n      swap1\n      pop\n        /* \"src/voting.sol\":2736:2737  0 */\n      0x00\n        /* \"src/voting.sol\":2720:2738  signer!=address(0) */\n      0xffffffffffffffffffffffffffffffffffffffff\n      and\n        /* \"src/voting.sol\":2720:2726  signer */\n      dup2\n        /* \"src/voting.sol\":2720:2738  signer!=address(0) */\n      0xffffffffffffffffffffffffffffffffffffffff\n      and\n      eq\n      iszero\n        /* \"src/voting.sol\":2712:2739  require(signer!=address(0)) */\n      tag_157\n      jumpi\n      0x00\n      dup1\n      revert\n    tag_157:\n        /* \"src/voting.sol\":2762:2773  replayNonce */\n      0x04\n        /* \"src/voting.sol\":2762:2781  replayNonce[signer] */\n      0x00\n        /* \"src/voting.sol\":2774:2780  signer */\n      dup3\n        /* \"src/voting.sol\":2762:2781  replayNonce[signer] */\n      0xffffffffffffffffffffffffffffffffffffffff\n      and\n      0xffffffffffffffffffffffffffffffffffffffff\n      and\n      dup2\n      mstore\n      0x20\n      add\n      swap1\n      dup2\n      mstore\n      0x20\n      add\n      0x00\n      keccak256\n      sload\n        /* \"src/voting.sol\":2753:2758  nonce */\n      dup9\n        /* \"src/voting.sol\":2753:2781  nonce == replayNonce[signer] */\n      eq\n        /* \"src/voting.sol\":2745:2782  require(nonce == replayNonce[signer]) */\n      tag_158\n      jumpi\n      0x00\n      dup1\n      revert\n    tag_158:\n        /* \"src/voting.sol\":2788:2799  replayNonce */\n      0x04\n        /* \"src/voting.sol\":2788:2807  replayNonce[signer] */\n      0x00\n        /* \"src/voting.sol\":2800:2806  signer */\n      dup3\n        /* \"src/voting.sol\":2788:2807  replayNonce[signer] */\n      0xffffffffffffffffffffffffffffffffffffffff\n      and\n      0xffffffffffffffffffffffffffffffffffffffff\n      and\n      dup2\n      mstore\n      0x20\n      add\n      swap1\n      dup2\n      mstore\n      0x20\n      add\n      0x00\n      keccak256\n      0x00\n        /* \"src/voting.sol\":2788:2809  replayNonce[signer]++ */\n      dup2\n      sload\n      dup1\n      swap3\n      swap2\n      swap1\n      tag_159\n      swap1\n      tag_139\n      jump\t// in\n    tag_159:\n      swap2\n      swap1\n      pop\n      sstore\n      pop\n        /* \"src/voting.sol\":2849:2854  false */\n      0x00\n        /* \"src/voting.sol\":2824:2854  hasVoted[_id][signer] == false */\n      iszero\n      iszero\n        /* \"src/voting.sol\":2824:2832  hasVoted */\n      0x07\n        /* \"src/voting.sol\":2824:2837  hasVoted[_id] */\n      0x00\n        /* \"src/voting.sol\":2833:2836  _id */\n      dup12\n        /* \"src/voting.sol\":2824:2837  hasVoted[_id] */\n      dup2\n      mstore\n      0x20\n      add\n      swap1\n      dup2\n      mstore\n      0x20\n      add\n      0x00\n      keccak256\n        /* \"src/voting.sol\":2824:2845  hasVoted[_id][signer] */\n      0x00\n        /* \"src/voting.sol\":2838:2844  signer */\n      dup4\n        /* \"src/voting.sol\":2824:2845  hasVoted[_id][signer] */\n      0xffffffffffffffffffffffffffffffffffffffff\n      and\n      0xffffffffffffffffffffffffffffffffffffffff\n      and\n      dup2\n      mstore\n      0x20\n      add\n      swap1\n      dup2\n      mstore\n      0x20\n      add\n      0x00\n      keccak256\n      0x00\n      swap1\n      sload\n      swap1\n      0x0100\n      exp\n      swap1\n      div\n      0xff\n      and\n        /* \"src/voting.sol\":2824:2854  hasVoted[_id][signer] == false */\n      iszero\n      iszero\n      eq\n        /* \"src/voting.sol\":2816:2876  require(hasVoted[_id][signer] == false, \"You already voted\") */\n      tag_160\n      jumpi\n      mload(0x40)\n      0x08c379a000000000000000000000000000000000000000000000000000000000\n      dup2\n      mstore\n      0x04\n      add\n      tag_161\n      swap1\n      tag_162\n      jump\t// in\n    tag_161:\n      mload(0x40)\n      dup1\n      swap2\n      sub\n      swap1\n      revert\n    tag_160:\n        /* \"src/voting.sol\":2883:2911  countVote(Cand, _id, signer) */\n      tag_163\n        /* \"src/voting.sol\":2893:2897  Cand */\n      dup11\n        /* \"src/voting.sol\":2899:2902  _id */\n      dup11\n        /* \"src/voting.sol\":2904:2910  signer */\n      dup4\n        /* \"src/voting.sol\":2883:2892  countVote */\n      tag_164\n        /* \"src/voting.sol\":2883:2911  countVote(Cand, _id, signer) */\n      jump\t// in\n    tag_163:\n      pop\n        /* \"src/voting.sol\":2923:2940  voted(Cand, true) */\n      0xf3f16a15f074b71c5138107dfc7c63b80524d5411cb967caa97d8d9f12b2fd6b\n        /* \"src/voting.sol\":2929:2933  Cand */\n      dup11\n        /* \"src/voting.sol\":2935:2939  true */\n      0x01\n        /* \"src/voting.sol\":2923:2940  voted(Cand, true) */\n      mload(0x40)\n      tag_165\n      swap3\n      swap2\n      swap1\n      tag_166\n      jump\t// in\n    tag_165:\n      mload(0x40)\n      dup1\n      swap2\n      sub\n      swap1\n      log1\n        /* \"src/voting.sol\":2580:2945  {... */\n      pop\n      pop\n        /* \"src/voting.sol\":1383:1491  {... */\n      pop\n        /* \"src/voting.sol\":1345:1346  _ */\n      pop\n        /* \"src/voting.sol\":2454:2945  function vote(address Cand, uint _id, uint256 nonce, bytes memory signature) external  isCandidate(Cand, _id) StillVoting(_id){... */\n      pop\n      pop\n      pop\n      pop\n      pop\n      pop\n      jump\t// out\n        /* \"src/voting.sol\":3144:3366  function setVotingState( uint _id) external {... */\n    tag_69:\n        /* \"src/voting.sol\":3194:3215  VotingPoll storage VP */\n      0x00\n        /* \"src/voting.sol\":3218:3228  votingPoll */\n      0x03\n        /* \"src/voting.sol\":3218:3233  votingPoll[_id] */\n      0x00\n        /* \"src/voting.sol\":3229:3232  _id */\n      dup4\n        /* \"src/voting.sol\":3218:3233  votingPoll[_id] */\n      dup2\n      mstore\n      0x20\n      add\n      swap1\n      dup2\n      mstore\n      0x20\n      add\n      0x00\n      keccak256\n        /* \"src/voting.sol\":3194:3233  VotingPoll storage VP = votingPoll[_id] */\n      swap1\n      pop\n        /* \"src/voting.sol\":3262:3272  msg.sender */\n      caller\n        /* \"src/voting.sol\":3247:3272  VP.chairman == msg.sender */\n      0xffffffffffffffffffffffffffffffffffffffff\n      and\n        /* \"src/voting.sol\":3247:3249  VP */\n      dup2\n        /* \"src/voting.sol\":3247:3258  VP.chairman */\n      0x01\n      add\n      0x00\n      swap1\n      sload\n      swap1\n      0x0100\n      exp\n      swap1\n      div\n      0xffffffffffffffffffffffffffffffffffffffff\n      and\n        /* \"src/voting.sol\":3247:3272  VP.chairman == msg.sender */\n      0xffffffffffffffffffffffffffffffffffffffff\n      and\n      eq\n        /* \"src/voting.sol\":3239:3293  require(VP.chairman == msg.sender, \"not the chairman\") */\n      tag_168\n      jumpi\n      mload(0x40)\n      0x08c379a000000000000000000000000000000000000000000000000000000000\n      dup2\n      mstore\n      0x04\n      add\n      tag_169\n      swap1\n      tag_170\n      jump\t// in\n    tag_169:\n      mload(0x40)\n      dup1\n      swap2\n      sub\n      swap1\n      revert\n    tag_168:\n        /* \"src/voting.sol\":3319:3321  VP */\n      dup1\n        /* \"src/voting.sol\":3319:3328  VP.voting */\n      0x03\n      add\n      0x08\n      swap1\n      sload\n      swap1\n      0x0100\n      exp\n      swap1\n      div\n      0xff\n      and\n        /* \"src/voting.sol\":3317:3329  !(VP.voting) */\n      iszero\n        /* \"src/voting.sol\":3305:3307  VP */\n      dup2\n        /* \"src/voting.sol\":3305:3314  VP.voting */\n      0x03\n      add\n      0x08\n        /* \"src/voting.sol\":3305:3329  VP.voting = !(VP.voting) */\n      0x0100\n      exp\n      dup2\n      sload\n      dup2\n      0xff\n      mul\n      not\n      and\n      swap1\n      dup4\n      iszero\n      iszero\n      mul\n      or\n      swap1\n      sstore\n      pop\n        /* \"src/voting.sol\":3352:3354  VP */\n      dup1\n        /* \"src/voting.sol\":3352:3361  VP.voting */\n      0x03\n      add\n      0x08\n      swap1\n      sload\n      swap1\n      0x0100\n      exp\n      swap1\n      div\n      0xff\n      and\n        /* \"src/voting.sol\":3341:3362  voteStatus(VP.voting) */\n      iszero\n      iszero\n      0x7b224db641892626dca6975b376f464e9ac52ccfa180436175170c009b94dcd7\n      mload(0x40)\n      mload(0x40)\n      dup1\n      swap2\n      sub\n      swap1\n      log2\n        /* \"src/voting.sol\":3188:3366  {... */\n      pop\n        /* \"src/voting.sol\":3144:3366  function setVotingState( uint _id) external {... */\n      pop\n      jump\t// out\n        /* \"src/voting.sol\":580:625  mapping(uint => VotingPoll) public votingPoll */\n    tag_72:\n      mstore(0x20, 0x03)\n      dup1\n      0x00\n      mstore\n      keccak256(0x00, 0x40)\n      0x00\n      swap2\n      pop\n      swap1\n      pop\n      dup1\n      0x00\n      add\n      dup1\n      sload\n      tag_171\n      swap1\n      tag_97\n      jump\t// in\n    tag_171:\n      dup1\n      0x1f\n      add\n      0x20\n      dup1\n      swap2\n      div\n      mul\n      0x20\n      add\n      mload(0x40)\n      swap1\n      dup2\n      add\n      0x40\n      mstore\n      dup1\n      swap3\n      swap2\n      swap1\n      dup2\n      dup2\n      mstore\n      0x20\n      add\n      dup3\n      dup1\n      sload\n      tag_172\n      swap1\n      tag_97\n      jump\t// in\n    tag_172:\n      dup1\n      iszero\n      tag_173\n      jumpi\n      dup1\n      0x1f\n      lt\n      tag_174\n      jumpi\n      0x0100\n      dup1\n      dup4\n      sload\n      div\n      mul\n      dup4\n      mstore\n      swap2\n      0x20\n      add\n      swap2\n      jump(tag_173)\n    tag_174:\n      dup3\n      add\n      swap2\n      swap1\n      0x00\n      mstore\n      keccak256(0x00, 0x20)\n      swap1\n    tag_175:\n      dup2\n      sload\n      dup2\n      mstore\n      swap1\n      0x01\n      add\n      swap1\n      0x20\n      add\n      dup1\n      dup4\n      gt\n      tag_175\n      jumpi\n      dup3\n      swap1\n      sub\n      0x1f\n      and\n      dup3\n      add\n      swap2\n    tag_173:\n      pop\n      pop\n      pop\n      pop\n      pop\n      swap1\n      dup1\n      0x01\n      add\n      0x00\n      swap1\n      sload\n      swap1\n      0x0100\n      exp\n      swap1\n      div\n      0xffffffffffffffffffffffffffffffffffffffff\n      and\n      swap1\n      dup1\n      0x03\n      add\n      0x00\n      swap1\n      sload\n      swap1\n      0x0100\n      exp\n      swap1\n      div\n      0xffffffff\n      and\n      swap1\n      dup1\n      0x03\n      add\n      0x04\n      swap1\n      sload\n      swap1\n      0x0100\n      exp\n      swap1\n      div\n      0xffffffff\n      and\n      swap1\n      dup1\n      0x03\n      add\n      0x08\n      swap1\n      sload\n      swap1\n      0x0100\n      exp\n      swap1\n      div\n      0xff\n      and\n      swap1\n      pop\n      dup6\n      jump\t// out\n        /* \"src/voting.sol\":1627:1946  function createPoll(string memory _name, uint32 ExpectedNoOfCandidate) external {... */\n    tag_77:\n        /* \"src/voting.sol\":1713:1734  VotingPoll storage VP */\n      0x00\n        /* \"src/voting.sol\":1737:1747  votingPoll */\n      0x03\n        /* \"src/voting.sol\":1737:1751  votingPoll[id] */\n      0x00\n        /* \"src/voting.sol\":1748:1750  id */\n      dup1\n      sload\n        /* \"src/voting.sol\":1737:1751  votingPoll[id] */\n      dup2\n      mstore\n      0x20\n      add\n      swap1\n      dup2\n      mstore\n      0x20\n      add\n      0x00\n      keccak256\n        /* \"src/voting.sol\":1713:1751  VotingPoll storage VP = votingPoll[id] */\n      swap1\n      pop\n        /* \"src/voting.sol\":1767:1772  _name */\n      dup3\n        /* \"src/voting.sol\":1757:1759  VP */\n      dup2\n        /* \"src/voting.sol\":1757:1764  VP.name */\n      0x00\n      add\n        /* \"src/voting.sol\":1757:1772  VP.name = _name */\n      swap1\n      dup1\n      mload\n      swap1\n      0x20\n      add\n      swap1\n      tag_177\n      swap3\n      swap2\n      swap1\n      tag_178\n      jump\t// in\n    tag_177:\n      pop\n        /* \"src/voting.sol\":1792:1802  msg.sender */\n      caller\n        /* \"src/voting.sol\":1778:1780  VP */\n      dup2\n        /* \"src/voting.sol\":1778:1789  VP.chairman */\n      0x01\n      add\n      0x00\n        /* \"src/voting.sol\":1778:1802  VP.chairman = msg.sender */\n      0x0100\n      exp\n      dup2\n      sload\n      dup2\n      0xffffffffffffffffffffffffffffffffffffffff\n      mul\n      not\n      and\n      swap1\n      dup4\n      0xffffffffffffffffffffffffffffffffffffffff\n      and\n      mul\n      or\n      swap1\n      sstore\n      pop\n        /* \"src/voting.sol\":1830:1851  ExpectedNoOfCandidate */\n      dup2\n        /* \"src/voting.sol\":1808:1810  VP */\n      dup2\n        /* \"src/voting.sol\":1808:1828  VP.maxNoOfCandidates */\n      0x03\n      add\n      0x00\n        /* \"src/voting.sol\":1808:1851  VP.maxNoOfCandidates =ExpectedNoOfCandidate */\n      0x0100\n      exp\n      dup2\n      sload\n      dup2\n      0xffffffff\n      mul\n      not\n      and\n      swap1\n      dup4\n      0xffffffff\n      and\n      mul\n      or\n      swap1\n      sstore\n      pop\n        /* \"src/voting.sol\":1857:1866  VotingKey */\n      0x01\n        /* \"src/voting.sol\":1872:1874  id */\n      sload(0x00)\n        /* \"src/voting.sol\":1857:1875  VotingKey.push(id) */\n      swap1\n      dup1\n      0x01\n      dup2\n      sload\n      add\n      dup1\n      dup3\n      sstore\n      dup1\n      swap2\n      pop\n      pop\n      0x01\n      swap1\n      sub\n      swap1\n      0x00\n      mstore\n      keccak256(0x00, 0x20)\n      add\n      0x00\n      swap1\n      swap2\n      swap1\n      swap2\n      swap1\n      swap2\n      pop\n      sstore\n        /* \"src/voting.sol\":1928:1930  id */\n      sload(0x00)\n        /* \"src/voting.sol\":1906:1908  VP */\n      dup2\n        /* \"src/voting.sol\":1906:1926  VP.maxNoOfCandidates */\n      0x03\n      add\n      0x00\n      swap1\n      sload\n      swap1\n      0x0100\n      exp\n      swap1\n      div\n      0xffffffff\n      and\n        /* \"src/voting.sol\":1886:1931  pollCreated( _name, VP.maxNoOfCandidates, id) */\n      0xffffffff\n      and\n        /* \"src/voting.sol\":1899:1904  _name */\n      dup5\n        /* \"src/voting.sol\":1886:1931  pollCreated( _name, VP.maxNoOfCandidates, id) */\n      mload(0x40)\n      tag_180\n      swap2\n      swap1\n      tag_181\n      jump\t// in\n    tag_180:\n      mload(0x40)\n      dup1\n      swap2\n      sub\n      swap1\n      keccak256\n      0xd4d0d9a1ef7f13069f1bade752fda515713d747eb14a8c30ae461c52916bf1c7\n      mload(0x40)\n      mload(0x40)\n      dup1\n      swap2\n      sub\n      swap1\n      log4\n        /* \"src/voting.sol\":1938:1940  id */\n      0x00\n      dup1\n        /* \"src/voting.sol\":1938:1942  id++ */\n      dup2\n      sload\n      dup1\n      swap3\n      swap2\n      swap1\n      tag_182\n      swap1\n      tag_139\n      jump\t// in\n    tag_182:\n      swap2\n      swap1\n      pop\n      sstore\n      pop\n        /* \"src/voting.sol\":1707:1946  {... */\n      pop\n        /* \"src/voting.sol\":1627:1946  function createPoll(string memory _name, uint32 ExpectedNoOfCandidate) external {... */\n      pop\n      pop\n      jump\t// out\n        /* \"src/voting.sol\":4280:4452  function getPosition( uint _id, uint i) internal view returns(uint val){... */\n    tag_127:\n        /* \"src/voting.sol\":4342:4350  uint val */\n      0x00\n        /* \"src/voting.sol\":4358:4379  VotingPoll storage VP */\n      dup1\n        /* \"src/voting.sol\":4382:4392  votingPoll */\n      0x03\n        /* \"src/voting.sol\":4382:4397  votingPoll[_id] */\n      0x00\n        /* \"src/voting.sol\":4393:4396  _id */\n      dup6\n        /* \"src/voting.sol\":4382:4397  votingPoll[_id] */\n      dup2\n      mstore\n      0x20\n      add\n      swap1\n      dup2\n      mstore\n      0x20\n      add\n      0x00\n      keccak256\n        /* \"src/voting.sol\":4358:4397  VotingPoll storage VP = votingPoll[_id] */\n      swap1\n      pop\n        /* \"src/voting.sol\":4412:4425  CandidateVote */\n      0x06\n        /* \"src/voting.sol\":4412:4430  CandidateVote[_id] */\n      0x00\n        /* \"src/voting.sol\":4426:4429  _id */\n      dup6\n        /* \"src/voting.sol\":4412:4430  CandidateVote[_id] */\n      dup2\n      mstore\n      0x20\n      add\n      swap1\n      dup2\n      mstore\n      0x20\n      add\n      0x00\n      keccak256\n        /* \"src/voting.sol\":4412:4448  CandidateVote[_id][VP.candidates[i]] */\n      0x00\n        /* \"src/voting.sol\":4431:4433  VP */\n      dup3\n        /* \"src/voting.sol\":4431:4444  VP.candidates */\n      0x02\n      add\n        /* \"src/voting.sol\":4445:4446  i */\n      dup6\n        /* \"src/voting.sol\":4431:4447  VP.candidates[i] */\n      dup2\n      sload\n      dup2\n      lt\n      tag_184\n      jumpi\n      tag_185\n      tag_131\n      jump\t// in\n    tag_185:\n    tag_184:\n      swap1\n      0x00\n      mstore\n      keccak256(0x00, 0x20)\n      add\n      0x00\n      swap1\n      sload\n      swap1\n      0x0100\n      exp\n      swap1\n      div\n      0xffffffffffffffffffffffffffffffffffffffff\n      and\n        /* \"src/voting.sol\":4412:4448  CandidateVote[_id][VP.candidates[i]] */\n      0xffffffffffffffffffffffffffffffffffffffff\n      and\n      0xffffffffffffffffffffffffffffffffffffffff\n      and\n      dup2\n      mstore\n      0x20\n      add\n      swap1\n      dup2\n      mstore\n      0x20\n      add\n      0x00\n      keccak256\n      sload\n        /* \"src/voting.sol\":4406:4448  val = CandidateVote[_id][VP.candidates[i]] */\n      swap2\n      pop\n        /* \"src/voting.sol\":4351:4452  {... */\n      pop\n        /* \"src/voting.sol\":4280:4452  function getPosition( uint _id, uint i) internal view returns(uint val){... */\n      swap3\n      swap2\n      pop\n      pop\n      jump\t// out\n        /* \"src/voting.sol\":4789:5371  function getSigner(bytes32 _hash, bytes memory _signature) internal pure returns (address){... */\n    tag_156:\n        /* \"src/voting.sol\":4871:4878  address */\n      0x00\n        /* \"src/voting.sol\":4885:4894  bytes32 r */\n      dup1\n        /* \"src/voting.sol\":4900:4909  bytes32 s */\n      0x00\n        /* \"src/voting.sol\":4915:4922  uint8 v */\n      dup1\n        /* \"src/voting.sol\":4953:4955  65 */\n      0x41\n        /* \"src/voting.sol\":4932:4942  _signature */\n      dup6\n        /* \"src/voting.sol\":4932:4949  _signature.length */\n      mload\n        /* \"src/voting.sol\":4932:4955  _signature.length != 65 */\n      eq\n        /* \"src/voting.sol\":4928:4989  if (_signature.length != 65) {... */\n      tag_188\n      jumpi\n        /* \"src/voting.sol\":4980:4981  0 */\n      0x00\n        /* \"src/voting.sol\":4965:4982  return address(0) */\n      swap4\n      pop\n      pop\n      pop\n      pop\n      jump(tag_187)\n        /* \"src/voting.sol\":4928:4989  if (_signature.length != 65) {... */\n    tag_188:\n        /* \"src/voting.sol\":5038:5040  32 */\n      0x20\n        /* \"src/voting.sol\":5026:5036  _signature */\n      dup6\n        /* \"src/voting.sol\":5022:5041  add(_signature, 32) */\n      add\n        /* \"src/voting.sol\":5016:5042  mload(add(_signature, 32)) */\n      mload\n        /* \"src/voting.sol\":5011:5042  r := mload(add(_signature, 32)) */\n      swap3\n      pop\n        /* \"src/voting.sol\":5076:5078  64 */\n      0x40\n        /* \"src/voting.sol\":5064:5074  _signature */\n      dup6\n        /* \"src/voting.sol\":5060:5079  add(_signature, 64) */\n      add\n        /* \"src/voting.sol\":5054:5080  mload(add(_signature, 64)) */\n      mload\n        /* \"src/voting.sol\":5049:5080  s := mload(add(_signature, 64)) */\n      swap2\n      pop\n        /* \"src/voting.sol\":5122:5124  96 */\n      0x60\n        /* \"src/voting.sol\":5110:5120  _signature */\n      dup6\n        /* \"src/voting.sol\":5106:5125  add(_signature, 96) */\n      add\n        /* \"src/voting.sol\":5100:5126  mload(add(_signature, 96)) */\n      mload\n        /* \"src/voting.sol\":5097:5098  0 */\n      0x00\n        /* \"src/voting.sol\":5092:5127  byte(0, mload(add(_signature, 96))) */\n      byte\n        /* \"src/voting.sol\":5087:5127  v := byte(0, mload(add(_signature, 96))) */\n      swap1\n      pop\n        /* \"src/voting.sol\":5146:5148  27 */\n      0x1b\n        /* \"src/voting.sol\":5142:5143  v */\n      dup2\n        /* \"src/voting.sol\":5142:5148  v < 27 */\n      0xff\n      and\n      lt\n        /* \"src/voting.sol\":5138:5172  if (v < 27) {... */\n      iszero\n      tag_189\n      jumpi\n        /* \"src/voting.sol\":5163:5165  27 */\n      0x1b\n        /* \"src/voting.sol\":5158:5165  v += 27 */\n      dup2\n      tag_190\n      swap2\n      swap1\n      tag_191\n      jump\t// in\n    tag_190:\n      swap1\n      pop\n        /* \"src/voting.sol\":5138:5172  if (v < 27) {... */\n    tag_189:\n        /* \"src/voting.sol\":5186:5188  27 */\n      0x1b\n        /* \"src/voting.sol\":5181:5182  v */\n      dup2\n        /* \"src/voting.sol\":5181:5188  v != 27 */\n      0xff\n      and\n      eq\n      iszero\n        /* \"src/voting.sol\":5181:5199  v != 27 && v != 28 */\n      dup1\n      iszero\n      tag_192\n      jumpi\n      pop\n        /* \"src/voting.sol\":5197:5199  28 */\n      0x1c\n        /* \"src/voting.sol\":5192:5193  v */\n      dup2\n        /* \"src/voting.sol\":5192:5199  v != 28 */\n      0xff\n      and\n      eq\n      iszero\n        /* \"src/voting.sol\":5181:5199  v != 27 && v != 28 */\n    tag_192:\n        /* \"src/voting.sol\":5177:5367  if (v != 27 && v != 28) {... */\n      iszero\n      tag_193\n      jumpi\n        /* \"src/voting.sol\":5224:5225  0 */\n      0x00\n        /* \"src/voting.sol\":5209:5226  return address(0) */\n      swap4\n      pop\n      pop\n      pop\n      pop\n      jump(tag_187)\n        /* \"src/voting.sol\":5177:5367  if (v != 27 && v != 28) {... */\n    tag_193:\n        /* \"src/voting.sol\":5254:5360  ecrecover(keccak256(... */\n      0x01\n        /* \"src/voting.sol\":5336:5341  _hash */\n      dup7\n        /* \"src/voting.sol\":5283:5342  abi.encodePacked(\"\\x19Ethereum Signed Message:\\n32\", _hash) */\n      add(0x20, mload(0x40))\n      tag_195\n      swap2\n      swap1\n      tag_196\n      jump\t// in\n    tag_195:\n      mload(0x40)\n      0x20\n      dup2\n      dup4\n      sub\n      sub\n      dup2\n      mstore\n      swap1\n      0x40\n      mstore\n        /* \"src/voting.sol\":5264:5350  keccak256(... */\n      dup1\n      mload\n      swap1\n      0x20\n      add\n      keccak256\n        /* \"src/voting.sol\":5352:5353  v */\n      dup3\n        /* \"src/voting.sol\":5355:5356  r */\n      dup6\n        /* \"src/voting.sol\":5358:5359  s */\n      dup6\n        /* \"src/voting.sol\":5254:5360  ecrecover(keccak256(... */\n      mload(0x40)\n      0x00\n      dup2\n      mstore\n      0x20\n      add\n      0x40\n      mstore\n      mload(0x40)\n      tag_197\n      swap5\n      swap4\n      swap3\n      swap2\n      swap1\n      tag_198\n      jump\t// in\n    tag_197:\n      0x20\n      mload(0x40)\n      0x20\n      dup2\n      sub\n      swap1\n      dup1\n      dup5\n      sub\n      swap1\n      dup6\n      gas\n      staticcall\n      iszero\n      dup1\n      iszero\n      tag_200\n      jumpi\n      returndatasize\n      0x00\n      dup1\n      returndatacopy\n      revert(0x00, returndatasize)\n    tag_200:\n      pop\n      pop\n      pop\n      mload(sub(mload(0x40), 0x20))\n        /* \"src/voting.sol\":5247:5360  return ecrecover(keccak256(... */\n      swap4\n      pop\n      pop\n      pop\n      pop\n        /* \"src/voting.sol\":4789:5371  function getSigner(bytes32 _hash, bytes memory _signature) internal pure returns (address){... */\n    tag_187:\n      swap3\n      swap2\n      pop\n      pop\n      jump\t// out\n        /* \"src/voting.sol\":2948:3140  function countVote(address Cand, uint _id, address signer) internal returns(uint){... */\n    tag_164:\n        /* \"src/voting.sol\":3024:3028  uint */\n      0x00\n        /* \"src/voting.sol\":3060:3064  true */\n      0x01\n        /* \"src/voting.sol\":3036:3044  hasVoted */\n      0x07\n        /* \"src/voting.sol\":3036:3049  hasVoted[_id] */\n      0x00\n        /* \"src/voting.sol\":3045:3048  _id */\n      dup6\n        /* \"src/voting.sol\":3036:3049  hasVoted[_id] */\n      dup2\n      mstore\n      0x20\n      add\n      swap1\n      dup2\n      mstore\n      0x20\n      add\n      0x00\n      keccak256\n        /* \"src/voting.sol\":3036:3057  hasVoted[_id][signer] */\n      0x00\n        /* \"src/voting.sol\":3050:3056  signer */\n      dup5\n        /* \"src/voting.sol\":3036:3057  hasVoted[_id][signer] */\n      0xffffffffffffffffffffffffffffffffffffffff\n      and\n      0xffffffffffffffffffffffffffffffffffffffff\n      and\n      dup2\n      mstore\n      0x20\n      add\n      swap1\n      dup2\n      mstore\n      0x20\n      add\n      0x00\n      keccak256\n      0x00\n        /* \"src/voting.sol\":3036:3064  hasVoted[_id][signer] = true */\n      0x0100\n      exp\n      dup2\n      sload\n      dup2\n      0xff\n      mul\n      not\n      and\n      swap1\n      dup4\n      iszero\n      iszero\n      mul\n      or\n      swap1\n      sstore\n      pop\n        /* \"src/voting.sol\":3071:3084  CandidateVote */\n      0x06\n        /* \"src/voting.sol\":3071:3089  CandidateVote[_id] */\n      0x00\n        /* \"src/voting.sol\":3085:3088  _id */\n      dup5\n        /* \"src/voting.sol\":3071:3089  CandidateVote[_id] */\n      dup2\n      mstore\n      0x20\n      add\n      swap1\n      dup2\n      mstore\n      0x20\n      add\n      0x00\n      keccak256\n        /* \"src/voting.sol\":3071:3095  CandidateVote[_id][Cand] */\n      0x00\n        /* \"src/voting.sol\":3090:3094  Cand */\n      dup6\n        /* \"src/voting.sol\":3071:3095  CandidateVote[_id][Cand] */\n      0xffffffffffffffffffffffffffffffffffffffff\n      and\n      0xffffffffffffffffffffffffffffffffffffffff\n      and\n      dup2\n      mstore\n      0x20\n      add\n      swap1\n      dup2\n      mstore\n      0x20\n      add\n      0x00\n      keccak256\n      0x00\n        /* \"src/voting.sol\":3071:3097  CandidateVote[_id][Cand]++ */\n      dup2\n      sload\n      dup1\n      swap3\n      swap2\n      swap1\n      tag_202\n      swap1\n      tag_139\n      jump\t// in\n    tag_202:\n      swap2\n      swap1\n      pop\n      sstore\n      pop\n        /* \"src/voting.sol\":3111:3124  CandidateVote */\n      0x06\n        /* \"src/voting.sol\":3111:3129  CandidateVote[_id] */\n      0x00\n        /* \"src/voting.sol\":3125:3128  _id */\n      dup5\n        /* \"src/voting.sol\":3111:3129  CandidateVote[_id] */\n      dup2\n      mstore\n      0x20\n      add\n      swap1\n      dup2\n      mstore\n      0x20\n      add\n      0x00\n      keccak256\n        /* \"src/voting.sol\":3111:3135  CandidateVote[_id][Cand] */\n      0x00\n        /* \"src/voting.sol\":3130:3134  Cand */\n      dup6\n        /* \"src/voting.sol\":3111:3135  CandidateVote[_id][Cand] */\n      0xffffffffffffffffffffffffffffffffffffffff\n      and\n      0xffffffffffffffffffffffffffffffffffffffff\n      and\n      dup2\n      mstore\n      0x20\n      add\n      swap1\n      dup2\n      mstore\n      0x20\n      add\n      0x00\n      keccak256\n      sload\n        /* \"src/voting.sol\":3104:3135  return CandidateVote[_id][Cand] */\n      swap1\n      pop\n        /* \"src/voting.sol\":2948:3140  function countVote(address Cand, uint _id, address signer) internal returns(uint){... */\n      swap4\n      swap3\n      pop\n      pop\n      pop\n      jump\t// out\n    tag_94:\n      mload(0x40)\n      dup1\n      0xc0\n      add\n      0x40\n      mstore\n      dup1\n      0x60\n      dup2\n      mstore\n      0x20\n      add\n      and(0xffffffffffffffffffffffffffffffffffffffff, 0x00)\n      dup2\n      mstore\n      0x20\n      add\n      0x60\n      dup2\n      mstore\n      0x20\n      add\n      and(0xffffffff, 0x00)\n      dup2\n      mstore\n      0x20\n      add\n      and(0xffffffff, 0x00)\n      dup2\n      mstore\n      0x20\n      add\n      iszero(iszero(0x00))\n      dup2\n      mstore\n      pop\n      swap1\n      jump\t// out\n    tag_178:\n      dup3\n      dup1\n      sload\n      tag_203\n      swap1\n      tag_97\n      jump\t// in\n    tag_203:\n      swap1\n      0x00\n      mstore\n      keccak256(0x00, 0x20)\n      swap1\n      0x1f\n      add\n      0x20\n      swap1\n      div\n      dup2\n      add\n      swap3\n      dup3\n      tag_205\n      jumpi\n      0x00\n      dup6\n      sstore\n      jump(tag_204)\n    tag_205:\n      dup3\n      0x1f\n      lt\n      tag_206\n      jumpi\n      dup1\n      mload\n      not(0xff)\n      and\n      dup4\n      dup1\n      add\n      or\n      dup6\n      sstore\n      jump(tag_204)\n    tag_206:\n      dup3\n      dup1\n      add\n      0x01\n      add\n      dup6\n      sstore\n      dup3\n      iszero\n      tag_204\n      jumpi\n      swap2\n      dup3\n      add\n    tag_207:\n      dup3\n      dup2\n      gt\n      iszero\n      tag_208\n      jumpi\n      dup3\n      mload\n      dup3\n      sstore\n      swap2\n      0x20\n      add\n      swap2\n      swap1\n      0x01\n      add\n      swap1\n      jump(tag_207)\n    tag_208:\n    tag_204:\n      pop\n      swap1\n      pop\n      tag_209\n      swap2\n      swap1\n      tag_210\n      jump\t// in\n    tag_209:\n      pop\n      swap1\n      jump\t// out\n    tag_210:\n    tag_211:\n      dup1\n      dup3\n      gt\n      iszero\n      tag_212\n      jumpi\n      0x00\n      dup2\n      0x00\n      swap1\n      sstore\n      pop\n      0x01\n      add\n      jump(tag_211)\n    tag_212:\n      pop\n      swap1\n      jump\t// out\n        /* \"#utility.yul\":7:82   */\n    tag_213:\n        /* \"#utility.yul\":40:46   */\n      0x00\n        /* \"#utility.yul\":73:75   */\n      0x40\n        /* \"#utility.yul\":67:76   */\n      mload\n        /* \"#utility.yul\":57:76   */\n      swap1\n      pop\n        /* \"#utility.yul\":7:82   */\n      swap1\n      jump\t// out\n        /* \"#utility.yul\":88:205   */\n    tag_214:\n        /* \"#utility.yul\":197:198   */\n      0x00\n        /* \"#utility.yul\":194:195   */\n      dup1\n        /* \"#utility.yul\":187:199   */\n      revert\n        /* \"#utility.yul\":211:328   */\n    tag_215:\n        /* \"#utility.yul\":320:321   */\n      0x00\n        /* \"#utility.yul\":317:318   */\n      dup1\n        /* \"#utility.yul\":310:322   */\n      revert\n        /* \"#utility.yul\":334:460   */\n    tag_216:\n        /* \"#utility.yul\":371:378   */\n      0x00\n        /* \"#utility.yul\":411:453   */\n      0xffffffffffffffffffffffffffffffffffffffff\n        /* \"#utility.yul\":404:409   */\n      dup3\n        /* \"#utility.yul\":400:454   */\n      and\n        /* \"#utility.yul\":389:454   */\n      swap1\n      pop\n        /* \"#utility.yul\":334:460   */\n      swap2\n      swap1\n      pop\n      jump\t// out\n        /* \"#utility.yul\":466:562   */\n    tag_217:\n        /* \"#utility.yul\":503:510   */\n      0x00\n        /* \"#utility.yul\":532:556   */\n      tag_308\n        /* \"#utility.yul\":550:555   */\n      dup3\n        /* \"#utility.yul\":532:556   */\n      tag_216\n      jump\t// in\n    tag_308:\n        /* \"#utility.yul\":521:556   */\n      swap1\n      pop\n        /* \"#utility.yul\":466:562   */\n      swap2\n      swap1\n      pop\n      jump\t// out\n        /* \"#utility.yul\":568:690   */\n    tag_218:\n        /* \"#utility.yul\":641:665   */\n      tag_310\n        /* \"#utility.yul\":659:664   */\n      dup2\n        /* \"#utility.yul\":641:665   */\n      tag_217\n      jump\t// in\n    tag_310:\n        /* \"#utility.yul\":634:639   */\n      dup2\n        /* \"#utility.yul\":631:666   */\n      eq\n        /* \"#utility.yul\":621:684   */\n      tag_311\n      jumpi\n        /* \"#utility.yul\":680:681   */\n      0x00\n        /* \"#utility.yul\":677:678   */\n      dup1\n        /* \"#utility.yul\":670:682   */\n      revert\n        /* \"#utility.yul\":621:684   */\n    tag_311:\n        /* \"#utility.yul\":568:690   */\n      pop\n      jump\t// out\n        /* \"#utility.yul\":696:835   */\n    tag_219:\n        /* \"#utility.yul\":742:747   */\n      0x00\n        /* \"#utility.yul\":780:786   */\n      dup2\n        /* \"#utility.yul\":767:787   */\n      calldataload\n        /* \"#utility.yul\":758:787   */\n      swap1\n      pop\n        /* \"#utility.yul\":796:829   */\n      tag_313\n        /* \"#utility.yul\":823:828   */\n      dup2\n        /* \"#utility.yul\":796:829   */\n      tag_218\n      jump\t// in\n    tag_313:\n        /* \"#utility.yul\":696:835   */\n      swap3\n      swap2\n      pop\n      pop\n      jump\t// out\n        /* \"#utility.yul\":841:918   */\n    tag_220:\n        /* \"#utility.yul\":878:885   */\n      0x00\n        /* \"#utility.yul\":907:912   */\n      dup2\n        /* \"#utility.yul\":896:912   */\n      swap1\n      pop\n        /* \"#utility.yul\":841:918   */\n      swap2\n      swap1\n      pop\n      jump\t// out\n        /* \"#utility.yul\":924:1046   */\n    tag_221:\n        /* \"#utility.yul\":997:1021   */\n      tag_316\n        /* \"#utility.yul\":1015:1020   */\n      dup2\n        /* \"#utility.yul\":997:1021   */\n      tag_220\n      jump\t// in\n    tag_316:\n        /* \"#utility.yul\":990:995   */\n      dup2\n        /* \"#utility.yul\":987:1022   */\n      eq\n        /* \"#utility.yul\":977:1040   */\n      tag_317\n      jumpi\n        /* \"#utility.yul\":1036:1037   */\n      0x00\n        /* \"#utility.yul\":1033:1034   */\n      dup1\n        /* \"#utility.yul\":1026:1038   */\n      revert\n        /* \"#utility.yul\":977:1040   */\n    tag_317:\n        /* \"#utility.yul\":924:1046   */\n      pop\n      jump\t// out\n        /* \"#utility.yul\":1052:1191   */\n    tag_222:\n        /* \"#utility.yul\":1098:1103   */\n      0x00\n        /* \"#utility.yul\":1136:1142   */\n      dup2\n        /* \"#utility.yul\":1123:1143   */\n      calldataload\n        /* \"#utility.yul\":1114:1143   */\n      swap1\n      pop\n        /* \"#utility.yul\":1152:1185   */\n      tag_319\n        /* \"#utility.yul\":1179:1184   */\n      dup2\n        /* \"#utility.yul\":1152:1185   */\n      tag_221\n      jump\t// in\n    tag_319:\n        /* \"#utility.yul\":1052:1191   */\n      swap3\n      swap2\n      pop\n      pop\n      jump\t// out\n        /* \"#utility.yul\":1197:1671   */\n    tag_20:\n        /* \"#utility.yul\":1265:1271   */\n      0x00\n        /* \"#utility.yul\":1273:1279   */\n      dup1\n        /* \"#utility.yul\":1322:1324   */\n      0x40\n        /* \"#utility.yul\":1310:1319   */\n      dup4\n        /* \"#utility.yul\":1301:1308   */\n      dup6\n        /* \"#utility.yul\":1297:1320   */\n      sub\n        /* \"#utility.yul\":1293:1325   */\n      slt\n        /* \"#utility.yul\":1290:1409   */\n      iszero\n      tag_321\n      jumpi\n        /* \"#utility.yul\":1328:1407   */\n      tag_322\n      tag_214\n      jump\t// in\n    tag_322:\n        /* \"#utility.yul\":1290:1409   */\n    tag_321:\n        /* \"#utility.yul\":1448:1449   */\n      0x00\n        /* \"#utility.yul\":1473:1526   */\n      tag_323\n        /* \"#utility.yul\":1518:1525   */\n      dup6\n        /* \"#utility.yul\":1509:1515   */\n      dup3\n        /* \"#utility.yul\":1498:1507   */\n      dup7\n        /* \"#utility.yul\":1494:1516   */\n      add\n        /* \"#utility.yul\":1473:1526   */\n      tag_219\n      jump\t// in\n    tag_323:\n        /* \"#utility.yul\":1463:1526   */\n      swap3\n      pop\n        /* \"#utility.yul\":1419:1536   */\n      pop\n        /* \"#utility.yul\":1575:1577   */\n      0x20\n        /* \"#utility.yul\":1601:1654   */\n      tag_324\n        /* \"#utility.yul\":1646:1653   */\n      dup6\n        /* \"#utility.yul\":1637:1643   */\n      dup3\n        /* \"#utility.yul\":1626:1635   */\n      dup7\n        /* \"#utility.yul\":1622:1644   */\n      add\n        /* \"#utility.yul\":1601:1654   */\n      tag_222\n      jump\t// in\n    tag_324:\n        /* \"#utility.yul\":1591:1654   */\n      swap2\n      pop\n        /* \"#utility.yul\":1546:1664   */\n      pop\n        /* \"#utility.yul\":1197:1671   */\n      swap3\n      pop\n      swap3\n      swap1\n      pop\n      jump\t// out\n        /* \"#utility.yul\":1677:2006   */\n    tag_24:\n        /* \"#utility.yul\":1736:1742   */\n      0x00\n        /* \"#utility.yul\":1785:1787   */\n      0x20\n        /* \"#utility.yul\":1773:1782   */\n      dup3\n        /* \"#utility.yul\":1764:1771   */\n      dup5\n        /* \"#utility.yul\":1760:1783   */\n      sub\n        /* \"#utility.yul\":1756:1788   */\n      slt\n        /* \"#utility.yul\":1753:1872   */\n      iszero\n      tag_326\n      jumpi\n        /* \"#utility.yul\":1791:1870   */\n      tag_327\n      tag_214\n      jump\t// in\n    tag_327:\n        /* \"#utility.yul\":1753:1872   */\n    tag_326:\n        /* \"#utility.yul\":1911:1912   */\n      0x00\n        /* \"#utility.yul\":1936:1989   */\n      tag_328\n        /* \"#utility.yul\":1981:1988   */\n      dup5\n        /* \"#utility.yul\":1972:1978   */\n      dup3\n        /* \"#utility.yul\":1961:1970   */\n      dup6\n        /* \"#utility.yul\":1957:1979   */\n      add\n        /* \"#utility.yul\":1936:1989   */\n      tag_222\n      jump\t// in\n    tag_328:\n        /* \"#utility.yul\":1926:1989   */\n      swap2\n      pop\n        /* \"#utility.yul\":1882:1999   */\n      pop\n        /* \"#utility.yul\":1677:2006   */\n      swap3\n      swap2\n      pop\n      pop\n      jump\t// out\n        /* \"#utility.yul\":2012:2111   */\n    tag_223:\n        /* \"#utility.yul\":2064:2070   */\n      0x00\n        /* \"#utility.yul\":2098:2103   */\n      dup2\n        /* \"#utility.yul\":2092:2104   */\n      mload\n        /* \"#utility.yul\":2082:2104   */\n      swap1\n      pop\n        /* \"#utility.yul\":2012:2111   */\n      swap2\n      swap1\n      pop\n      jump\t// out\n        /* \"#utility.yul\":2117:2276   */\n    tag_224:\n        /* \"#utility.yul\":2191:2202   */\n      0x00\n        /* \"#utility.yul\":2225:2231   */\n      dup3\n        /* \"#utility.yul\":2220:2223   */\n      dup3\n        /* \"#utility.yul\":2213:2232   */\n      mstore\n        /* \"#utility.yul\":2265:2269   */\n      0x20\n        /* \"#utility.yul\":2260:2263   */\n      dup3\n        /* \"#utility.yul\":2256:2270   */\n      add\n        /* \"#utility.yul\":2241:2270   */\n      swap1\n      pop\n        /* \"#utility.yul\":2117:2276   */\n      swap3\n      swap2\n      pop\n      pop\n      jump\t// out\n        /* \"#utility.yul\":2282:2589   */\n    tag_225:\n        /* \"#utility.yul\":2350:2351   */\n      0x00\n        /* \"#utility.yul\":2360:2473   */\n    tag_332:\n        /* \"#utility.yul\":2374:2380   */\n      dup4\n        /* \"#utility.yul\":2371:2372   */\n      dup2\n        /* \"#utility.yul\":2368:2381   */\n      lt\n        /* \"#utility.yul\":2360:2473   */\n      iszero\n      tag_334\n      jumpi\n        /* \"#utility.yul\":2459:2460   */\n      dup1\n        /* \"#utility.yul\":2454:2457   */\n      dup3\n        /* \"#utility.yul\":2450:2461   */\n      add\n        /* \"#utility.yul\":2444:2462   */\n      mload\n        /* \"#utility.yul\":2440:2441   */\n      dup2\n        /* \"#utility.yul\":2435:2438   */\n      dup5\n        /* \"#utility.yul\":2431:2442   */\n      add\n        /* \"#utility.yul\":2424:2463   */\n      mstore\n        /* \"#utility.yul\":2396:2398   */\n      0x20\n        /* \"#utility.yul\":2393:2394   */\n      dup2\n        /* \"#utility.yul\":2389:2399   */\n      add\n        /* \"#utility.yul\":2384:2399   */\n      swap1\n      pop\n        /* \"#utility.yul\":2360:2473   */\n      jump(tag_332)\n    tag_334:\n        /* \"#utility.yul\":2491:2497   */\n      dup4\n        /* \"#utility.yul\":2488:2489   */\n      dup2\n        /* \"#utility.yul\":2485:2498   */\n      gt\n        /* \"#utility.yul\":2482:2583   */\n      iszero\n      tag_335\n      jumpi\n        /* \"#utility.yul\":2571:2572   */\n      0x00\n        /* \"#utility.yul\":2562:2568   */\n      dup5\n        /* \"#utility.yul\":2557:2560   */\n      dup5\n        /* \"#utility.yul\":2553:2569   */\n      add\n        /* \"#utility.yul\":2546:2573   */\n      mstore\n        /* \"#utility.yul\":2482:2583   */\n    tag_335:\n        /* \"#utility.yul\":2331:2589   */\n      pop\n        /* \"#utility.yul\":2282:2589   */\n      pop\n      pop\n      pop\n      jump\t// out\n        /* \"#utility.yul\":2595:2697   */\n    tag_226:\n        /* \"#utility.yul\":2636:2642   */\n      0x00\n        /* \"#utility.yul\":2687:2689   */\n      0x1f\n        /* \"#utility.yul\":2683:2690   */\n      not\n        /* \"#utility.yul\":2678:2680   */\n      0x1f\n        /* \"#utility.yul\":2671:2676   */\n      dup4\n        /* \"#utility.yul\":2667:2681   */\n      add\n        /* \"#utility.yul\":2663:2691   */\n      and\n        /* \"#utility.yul\":2653:2691   */\n      swap1\n      pop\n        /* \"#utility.yul\":2595:2697   */\n      swap2\n      swap1\n      pop\n      jump\t// out\n        /* \"#utility.yul\":2703:3047   */\n    tag_227:\n        /* \"#utility.yul\":2781:2784   */\n      0x00\n        /* \"#utility.yul\":2809:2848   */\n      tag_338\n        /* \"#utility.yul\":2842:2847   */\n      dup3\n        /* \"#utility.yul\":2809:2848   */\n      tag_223\n      jump\t// in\n    tag_338:\n        /* \"#utility.yul\":2864:2925   */\n      tag_339\n        /* \"#utility.yul\":2918:2924   */\n      dup2\n        /* \"#utility.yul\":2913:2916   */\n      dup6\n        /* \"#utility.yul\":2864:2925   */\n      tag_224\n      jump\t// in\n    tag_339:\n        /* \"#utility.yul\":2857:2925   */\n      swap4\n      pop\n        /* \"#utility.yul\":2934:2986   */\n      tag_340\n        /* \"#utility.yul\":2979:2985   */\n      dup2\n        /* \"#utility.yul\":2974:2977   */\n      dup6\n        /* \"#utility.yul\":2967:2971   */\n      0x20\n        /* \"#utility.yul\":2960:2965   */\n      dup7\n        /* \"#utility.yul\":2956:2972   */\n      add\n        /* \"#utility.yul\":2934:2986   */\n      tag_225\n      jump\t// in\n    tag_340:\n        /* \"#utility.yul\":3011:3040   */\n      tag_341\n        /* \"#utility.yul\":3033:3039   */\n      dup2\n        /* \"#utility.yul\":3011:3040   */\n      tag_226\n      jump\t// in\n    tag_341:\n        /* \"#utility.yul\":3006:3009   */\n      dup5\n        /* \"#utility.yul\":3002:3041   */\n      add\n        /* \"#utility.yul\":2995:3041   */\n      swap2\n      pop\n        /* \"#utility.yul\":2785:3047   */\n      pop\n        /* \"#utility.yul\":2703:3047   */\n      swap3\n      swap2\n      pop\n      pop\n      jump\t// out\n        /* \"#utility.yul\":3053:3161   */\n    tag_228:\n        /* \"#utility.yul\":3130:3154   */\n      tag_343\n        /* \"#utility.yul\":3148:3153   */\n      dup2\n        /* \"#utility.yul\":3130:3154   */\n      tag_217\n      jump\t// in\n    tag_343:\n        /* \"#utility.yul\":3125:3128   */\n      dup3\n        /* \"#utility.yul\":3118:3155   */\n      mstore\n        /* \"#utility.yul\":3053:3161   */\n      pop\n      pop\n      jump\t// out\n        /* \"#utility.yul\":3167:3281   */\n    tag_229:\n        /* \"#utility.yul\":3234:3240   */\n      0x00\n        /* \"#utility.yul\":3268:3273   */\n      dup2\n        /* \"#utility.yul\":3262:3274   */\n      mload\n        /* \"#utility.yul\":3252:3274   */\n      swap1\n      pop\n        /* \"#utility.yul\":3167:3281   */\n      swap2\n      swap1\n      pop\n      jump\t// out\n        /* \"#utility.yul\":3287:3461   */\n    tag_230:\n        /* \"#utility.yul\":3376:3387   */\n      0x00\n        /* \"#utility.yul\":3410:3416   */\n      dup3\n        /* \"#utility.yul\":3405:3408   */\n      dup3\n        /* \"#utility.yul\":3398:3417   */\n      mstore\n        /* \"#utility.yul\":3450:3454   */\n      0x20\n        /* \"#utility.yul\":3445:3448   */\n      dup3\n        /* \"#utility.yul\":3441:3455   */\n      add\n        /* \"#utility.yul\":3426:3455   */\n      swap1\n      pop\n        /* \"#utility.yul\":3287:3461   */\n      swap3\n      swap2\n      pop\n      pop\n      jump\t// out\n        /* \"#utility.yul\":3467:3599   */\n    tag_231:\n        /* \"#utility.yul\":3534:3538   */\n      0x00\n        /* \"#utility.yul\":3557:3560   */\n      dup2\n        /* \"#utility.yul\":3549:3560   */\n      swap1\n      pop\n        /* \"#utility.yul\":3587:3591   */\n      0x20\n        /* \"#utility.yul\":3582:3585   */\n      dup3\n        /* \"#utility.yul\":3578:3592   */\n      add\n        /* \"#utility.yul\":3570:3592   */\n      swap1\n      pop\n        /* \"#utility.yul\":3467:3599   */\n      swap2\n      swap1\n      pop\n      jump\t// out\n        /* \"#utility.yul\":3605:3784   */\n    tag_232:\n        /* \"#utility.yul\":3674:3684   */\n      0x00\n        /* \"#utility.yul\":3695:3741   */\n      tag_348\n        /* \"#utility.yul\":3737:3740   */\n      dup4\n        /* \"#utility.yul\":3729:3735   */\n      dup4\n        /* \"#utility.yul\":3695:3741   */\n      tag_228\n      jump\t// in\n    tag_348:\n        /* \"#utility.yul\":3773:3777   */\n      0x20\n        /* \"#utility.yul\":3768:3771   */\n      dup4\n        /* \"#utility.yul\":3764:3778   */\n      add\n        /* \"#utility.yul\":3750:3778   */\n      swap1\n      pop\n        /* \"#utility.yul\":3605:3784   */\n      swap3\n      swap2\n      pop\n      pop\n      jump\t// out\n        /* \"#utility.yul\":3790:3903   */\n    tag_233:\n        /* \"#utility.yul\":3860:3864   */\n      0x00\n        /* \"#utility.yul\":3892:3896   */\n      0x20\n        /* \"#utility.yul\":3887:3890   */\n      dup3\n        /* \"#utility.yul\":3883:3897   */\n      add\n        /* \"#utility.yul\":3875:3897   */\n      swap1\n      pop\n        /* \"#utility.yul\":3790:3903   */\n      swap2\n      swap1\n      pop\n      jump\t// out\n        /* \"#utility.yul\":3939:4651   */\n    tag_234:\n        /* \"#utility.yul\":4048:4051   */\n      0x00\n        /* \"#utility.yul\":4077:4131   */\n      tag_351\n        /* \"#utility.yul\":4125:4130   */\n      dup3\n        /* \"#utility.yul\":4077:4131   */\n      tag_229\n      jump\t// in\n    tag_351:\n        /* \"#utility.yul\":4147:4223   */\n      tag_352\n        /* \"#utility.yul\":4216:4222   */\n      dup2\n        /* \"#utility.yul\":4211:4214   */\n      dup6\n        /* \"#utility.yul\":4147:4223   */\n      tag_230\n      jump\t// in\n    tag_352:\n        /* \"#utility.yul\":4140:4223   */\n      swap4\n      pop\n        /* \"#utility.yul\":4247:4303   */\n      tag_353\n        /* \"#utility.yul\":4297:4302   */\n      dup4\n        /* \"#utility.yul\":4247:4303   */\n      tag_231\n      jump\t// in\n    tag_353:\n        /* \"#utility.yul\":4326:4333   */\n      dup1\n        /* \"#utility.yul\":4357:4358   */\n      0x00\n        /* \"#utility.yul\":4342:4626   */\n    tag_354:\n        /* \"#utility.yul\":4367:4373   */\n      dup4\n        /* \"#utility.yul\":4364:4365   */\n      dup2\n        /* \"#utility.yul\":4361:4374   */\n      lt\n        /* \"#utility.yul\":4342:4626   */\n      iszero\n      tag_356\n      jumpi\n        /* \"#utility.yul\":4443:4449   */\n      dup2\n        /* \"#utility.yul\":4437:4450   */\n      mload\n        /* \"#utility.yul\":4470:4533   */\n      tag_357\n        /* \"#utility.yul\":4529:4532   */\n      dup9\n        /* \"#utility.yul\":4514:4527   */\n      dup3\n        /* \"#utility.yul\":4470:4533   */\n      tag_232\n      jump\t// in\n    tag_357:\n        /* \"#utility.yul\":4463:4533   */\n      swap8\n      pop\n        /* \"#utility.yul\":4556:4616   */\n      tag_358\n        /* \"#utility.yul\":4609:4615   */\n      dup4\n        /* \"#utility.yul\":4556:4616   */\n      tag_233\n      jump\t// in\n    tag_358:\n        /* \"#utility.yul\":4546:4616   */\n      swap3\n      pop\n        /* \"#utility.yul\":4402:4626   */\n      pop\n        /* \"#utility.yul\":4389:4390   */\n      0x01\n        /* \"#utility.yul\":4386:4387   */\n      dup2\n        /* \"#utility.yul\":4382:4391   */\n      add\n        /* \"#utility.yul\":4377:4391   */\n      swap1\n      pop\n        /* \"#utility.yul\":4342:4626   */\n      jump(tag_354)\n    tag_356:\n        /* \"#utility.yul\":4346:4360   */\n      pop\n        /* \"#utility.yul\":4642:4645   */\n      dup6\n        /* \"#utility.yul\":4635:4645   */\n      swap4\n      pop\n        /* \"#utility.yul\":4053:4651   */\n      pop\n      pop\n      pop\n        /* \"#utility.yul\":3939:4651   */\n      swap3\n      swap2\n      pop\n      pop\n      jump\t// out\n        /* \"#utility.yul\":4657:4750   */\n    tag_235:\n        /* \"#utility.yul\":4693:4700   */\n      0x00\n        /* \"#utility.yul\":4733:4743   */\n      0xffffffff\n        /* \"#utility.yul\":4726:4731   */\n      dup3\n        /* \"#utility.yul\":4722:4744   */\n      and\n        /* \"#utility.yul\":4711:4744   */\n      swap1\n      pop\n        /* \"#utility.yul\":4657:4750   */\n      swap2\n      swap1\n      pop\n      jump\t// out\n        /* \"#utility.yul\":4756:4861   */\n    tag_236:\n        /* \"#utility.yul\":4831:4854   */\n      tag_361\n        /* \"#utility.yul\":4848:4853   */\n      dup2\n        /* \"#utility.yul\":4831:4854   */\n      tag_235\n      jump\t// in\n    tag_361:\n        /* \"#utility.yul\":4826:4829   */\n      dup3\n        /* \"#utility.yul\":4819:4855   */\n      mstore\n        /* \"#utility.yul\":4756:4861   */\n      pop\n      pop\n      jump\t// out\n        /* \"#utility.yul\":4867:4957   */\n    tag_237:\n        /* \"#utility.yul\":4901:4908   */\n      0x00\n        /* \"#utility.yul\":4944:4949   */\n      dup2\n        /* \"#utility.yul\":4937:4950   */\n      iszero\n        /* \"#utility.yul\":4930:4951   */\n      iszero\n        /* \"#utility.yul\":4919:4951   */\n      swap1\n      pop\n        /* \"#utility.yul\":4867:4957   */\n      swap2\n      swap1\n      pop\n      jump\t// out\n        /* \"#utility.yul\":4963:5062   */\n    tag_238:\n        /* \"#utility.yul\":5034:5055   */\n      tag_364\n        /* \"#utility.yul\":5049:5054   */\n      dup2\n        /* \"#utility.yul\":5034:5055   */\n      tag_237\n      jump\t// in\n    tag_364:\n        /* \"#utility.yul\":5029:5032   */\n      dup3\n        /* \"#utility.yul\":5022:5056   */\n      mstore\n        /* \"#utility.yul\":4963:5062   */\n      pop\n      pop\n      jump\t// out\n        /* \"#utility.yul\":5128:6565   */\n    tag_239:\n        /* \"#utility.yul\":5249:5252   */\n      0x00\n        /* \"#utility.yul\":5285:5289   */\n      0xc0\n        /* \"#utility.yul\":5280:5283   */\n      dup4\n        /* \"#utility.yul\":5276:5290   */\n      add\n        /* \"#utility.yul\":5372:5376   */\n      0x00\n        /* \"#utility.yul\":5365:5370   */\n      dup4\n        /* \"#utility.yul\":5361:5377   */\n      add\n        /* \"#utility.yul\":5355:5378   */\n      mload\n        /* \"#utility.yul\":5425:5428   */\n      dup5\n        /* \"#utility.yul\":5419:5423   */\n      dup3\n        /* \"#utility.yul\":5415:5429   */\n      sub\n        /* \"#utility.yul\":5408:5412   */\n      0x00\n        /* \"#utility.yul\":5403:5406   */\n      dup7\n        /* \"#utility.yul\":5399:5413   */\n      add\n        /* \"#utility.yul\":5392:5430   */\n      mstore\n        /* \"#utility.yul\":5451:5524   */\n      tag_366\n        /* \"#utility.yul\":5519:5523   */\n      dup3\n        /* \"#utility.yul\":5505:5517   */\n      dup3\n        /* \"#utility.yul\":5451:5524   */\n      tag_227\n      jump\t// in\n    tag_366:\n        /* \"#utility.yul\":5443:5524   */\n      swap2\n      pop\n        /* \"#utility.yul\":5300:5535   */\n      pop\n        /* \"#utility.yul\":5621:5625   */\n      0x20\n        /* \"#utility.yul\":5614:5619   */\n      dup4\n        /* \"#utility.yul\":5610:5626   */\n      add\n        /* \"#utility.yul\":5604:5627   */\n      mload\n        /* \"#utility.yul\":5640:5703   */\n      tag_367\n        /* \"#utility.yul\":5697:5701   */\n      0x20\n        /* \"#utility.yul\":5692:5695   */\n      dup7\n        /* \"#utility.yul\":5688:5702   */\n      add\n        /* \"#utility.yul\":5674:5686   */\n      dup3\n        /* \"#utility.yul\":5640:5703   */\n      tag_228\n      jump\t// in\n    tag_367:\n        /* \"#utility.yul\":5545:5713   */\n      pop\n        /* \"#utility.yul\":5801:5805   */\n      0x40\n        /* \"#utility.yul\":5794:5799   */\n      dup4\n        /* \"#utility.yul\":5790:5806   */\n      add\n        /* \"#utility.yul\":5784:5807   */\n      mload\n        /* \"#utility.yul\":5854:5857   */\n      dup5\n        /* \"#utility.yul\":5848:5852   */\n      dup3\n        /* \"#utility.yul\":5844:5858   */\n      sub\n        /* \"#utility.yul\":5837:5841   */\n      0x40\n        /* \"#utility.yul\":5832:5835   */\n      dup7\n        /* \"#utility.yul\":5828:5842   */\n      add\n        /* \"#utility.yul\":5821:5859   */\n      mstore\n        /* \"#utility.yul\":5880:5983   */\n      tag_368\n        /* \"#utility.yul\":5978:5982   */\n      dup3\n        /* \"#utility.yul\":5964:5976   */\n      dup3\n        /* \"#utility.yul\":5880:5983   */\n      tag_234\n      jump\t// in\n    tag_368:\n        /* \"#utility.yul\":5872:5983   */\n      swap2\n      pop\n        /* \"#utility.yul\":5723:5994   */\n      pop\n        /* \"#utility.yul\":6089:6093   */\n      0x60\n        /* \"#utility.yul\":6082:6087   */\n      dup4\n        /* \"#utility.yul\":6078:6094   */\n      add\n        /* \"#utility.yul\":6072:6095   */\n      mload\n        /* \"#utility.yul\":6108:6169   */\n      tag_369\n        /* \"#utility.yul\":6163:6167   */\n      0x60\n        /* \"#utility.yul\":6158:6161   */\n      dup7\n        /* \"#utility.yul\":6154:6168   */\n      add\n        /* \"#utility.yul\":6140:6152   */\n      dup3\n        /* \"#utility.yul\":6108:6169   */\n      tag_236\n      jump\t// in\n    tag_369:\n        /* \"#utility.yul\":6004:6179   */\n      pop\n        /* \"#utility.yul\":6278:6282   */\n      0x80\n        /* \"#utility.yul\":6271:6276   */\n      dup4\n        /* \"#utility.yul\":6267:6283   */\n      add\n        /* \"#utility.yul\":6261:6284   */\n      mload\n        /* \"#utility.yul\":6297:6358   */\n      tag_370\n        /* \"#utility.yul\":6352:6356   */\n      0x80\n        /* \"#utility.yul\":6347:6350   */\n      dup7\n        /* \"#utility.yul\":6343:6357   */\n      add\n        /* \"#utility.yul\":6329:6341   */\n      dup3\n        /* \"#utility.yul\":6297:6358   */\n      tag_236\n      jump\t// in\n    tag_370:\n        /* \"#utility.yul\":6189:6368   */\n      pop\n        /* \"#utility.yul\":6452:6456   */\n      0xa0\n        /* \"#utility.yul\":6445:6450   */\n      dup4\n        /* \"#utility.yul\":6441:6457   */\n      add\n        /* \"#utility.yul\":6435:6458   */\n      mload\n        /* \"#utility.yul\":6471:6528   */\n      tag_371\n        /* \"#utility.yul\":6522:6526   */\n      0xa0\n        /* \"#utility.yul\":6517:6520   */\n      dup7\n        /* \"#utility.yul\":6513:6527   */\n      add\n        /* \"#utility.yul\":6499:6511   */\n      dup3\n        /* \"#utility.yul\":6471:6528   */\n      tag_238\n      jump\t// in\n    tag_371:\n        /* \"#utility.yul\":6378:6538   */\n      pop\n        /* \"#utility.yul\":6555:6559   */\n      dup1\n        /* \"#utility.yul\":6548:6559   */\n      swap2\n      pop\n        /* \"#utility.yul\":5254:6565   */\n      pop\n        /* \"#utility.yul\":5128:6565   */\n      swap3\n      swap2\n      pop\n      pop\n      jump\t// out\n        /* \"#utility.yul\":6571:6948   */\n    tag_27:\n        /* \"#utility.yul\":6716:6720   */\n      0x00\n        /* \"#utility.yul\":6754:6756   */\n      0x20\n        /* \"#utility.yul\":6743:6752   */\n      dup3\n        /* \"#utility.yul\":6739:6757   */\n      add\n        /* \"#utility.yul\":6731:6757   */\n      swap1\n      pop\n        /* \"#utility.yul\":6803:6812   */\n      dup2\n        /* \"#utility.yul\":6797:6801   */\n      dup2\n        /* \"#utility.yul\":6793:6813   */\n      sub\n        /* \"#utility.yul\":6789:6790   */\n      0x00\n        /* \"#utility.yul\":6778:6787   */\n      dup4\n        /* \"#utility.yul\":6774:6791   */\n      add\n        /* \"#utility.yul\":6767:6814   */\n      mstore\n        /* \"#utility.yul\":6831:6941   */\n      tag_373\n        /* \"#utility.yul\":6936:6940   */\n      dup2\n        /* \"#utility.yul\":6927:6933   */\n      dup5\n        /* \"#utility.yul\":6831:6941   */\n      tag_239\n      jump\t// in\n    tag_373:\n        /* \"#utility.yul\":6823:6941   */\n      swap1\n      pop\n        /* \"#utility.yul\":6571:6948   */\n      swap3\n      swap2\n      pop\n      pop\n      jump\t// out\n        /* \"#utility.yul\":6954:7072   */\n    tag_240:\n        /* \"#utility.yul\":7041:7065   */\n      tag_375\n        /* \"#utility.yul\":7059:7064   */\n      dup2\n        /* \"#utility.yul\":7041:7065   */\n      tag_220\n      jump\t// in\n    tag_375:\n        /* \"#utility.yul\":7036:7039   */\n      dup3\n        /* \"#utility.yul\":7029:7066   */\n      mstore\n        /* \"#utility.yul\":6954:7072   */\n      pop\n      pop\n      jump\t// out\n        /* \"#utility.yul\":7078:7300   */\n    tag_32:\n        /* \"#utility.yul\":7171:7175   */\n      0x00\n        /* \"#utility.yul\":7209:7211   */\n      0x20\n        /* \"#utility.yul\":7198:7207   */\n      dup3\n        /* \"#utility.yul\":7194:7212   */\n      add\n        /* \"#utility.yul\":7186:7212   */\n      swap1\n      pop\n        /* \"#utility.yul\":7222:7293   */\n      tag_377\n        /* \"#utility.yul\":7290:7291   */\n      0x00\n        /* \"#utility.yul\":7279:7288   */\n      dup4\n        /* \"#utility.yul\":7275:7292   */\n      add\n        /* \"#utility.yul\":7266:7272   */\n      dup5\n        /* \"#utility.yul\":7222:7293   */\n      tag_240\n      jump\t// in\n    tag_377:\n        /* \"#utility.yul\":7078:7300   */\n      swap3\n      swap2\n      pop\n      pop\n      jump\t// out\n        /* \"#utility.yul\":7306:7635   */\n    tag_35:\n        /* \"#utility.yul\":7365:7371   */\n      0x00\n        /* \"#utility.yul\":7414:7416   */\n      0x20\n        /* \"#utility.yul\":7402:7411   */\n      dup3\n        /* \"#utility.yul\":7393:7400   */\n      dup5\n        /* \"#utility.yul\":7389:7412   */\n      sub\n        /* \"#utility.yul\":7385:7417   */\n      slt\n        /* \"#utility.yul\":7382:7501   */\n      iszero\n      tag_379\n      jumpi\n        /* \"#utility.yul\":7420:7499   */\n      tag_380\n      tag_214\n      jump\t// in\n    tag_380:\n        /* \"#utility.yul\":7382:7501   */\n    tag_379:\n        /* \"#utility.yul\":7540:7541   */\n      0x00\n        /* \"#utility.yul\":7565:7618   */\n      tag_381\n        /* \"#utility.yul\":7610:7617   */\n      dup5\n        /* \"#utility.yul\":7601:7607   */\n      dup3\n        /* \"#utility.yul\":7590:7599   */\n      dup6\n        /* \"#utility.yul\":7586:7608   */\n      add\n        /* \"#utility.yul\":7565:7618   */\n      tag_219\n      jump\t// in\n    tag_381:\n        /* \"#utility.yul\":7555:7618   */\n      swap2\n      pop\n        /* \"#utility.yul\":7511:7628   */\n      pop\n        /* \"#utility.yul\":7306:7635   */\n      swap3\n      swap2\n      pop\n      pop\n      jump\t// out\n        /* \"#utility.yul\":7641:7810   */\n    tag_241:\n        /* \"#utility.yul\":7725:7736   */\n      0x00\n        /* \"#utility.yul\":7759:7765   */\n      dup3\n        /* \"#utility.yul\":7754:7757   */\n      dup3\n        /* \"#utility.yul\":7747:7766   */\n      mstore\n        /* \"#utility.yul\":7799:7803   */\n      0x20\n        /* \"#utility.yul\":7794:7797   */\n      dup3\n        /* \"#utility.yul\":7790:7804   */\n      add\n        /* \"#utility.yul\":7775:7804   */\n      swap1\n      pop\n        /* \"#utility.yul\":7641:7810   */\n      swap3\n      swap2\n      pop\n      pop\n      jump\t// out\n        /* \"#utility.yul\":7816:8180   */\n    tag_242:\n        /* \"#utility.yul\":7904:7907   */\n      0x00\n        /* \"#utility.yul\":7932:7971   */\n      tag_384\n        /* \"#utility.yul\":7965:7970   */\n      dup3\n        /* \"#utility.yul\":7932:7971   */\n      tag_223\n      jump\t// in\n    tag_384:\n        /* \"#utility.yul\":7987:8058   */\n      tag_385\n        /* \"#utility.yul\":8051:8057   */\n      dup2\n        /* \"#utility.yul\":8046:8049   */\n      dup6\n        /* \"#utility.yul\":7987:8058   */\n      tag_241\n      jump\t// in\n    tag_385:\n        /* \"#utility.yul\":7980:8058   */\n      swap4\n      pop\n        /* \"#utility.yul\":8067:8119   */\n      tag_386\n        /* \"#utility.yul\":8112:8118   */\n      dup2\n        /* \"#utility.yul\":8107:8110   */\n      dup6\n        /* \"#utility.yul\":8100:8104   */\n      0x20\n        /* \"#utility.yul\":8093:8098   */\n      dup7\n        /* \"#utility.yul\":8089:8105   */\n      add\n        /* \"#utility.yul\":8067:8119   */\n      tag_225\n      jump\t// in\n    tag_386:\n        /* \"#utility.yul\":8144:8173   */\n      tag_387\n        /* \"#utility.yul\":8166:8172   */\n      dup2\n        /* \"#utility.yul\":8144:8173   */\n      tag_226\n      jump\t// in\n    tag_387:\n        /* \"#utility.yul\":8139:8142   */\n      dup5\n        /* \"#utility.yul\":8135:8174   */\n      add\n        /* \"#utility.yul\":8128:8174   */\n      swap2\n      pop\n        /* \"#utility.yul\":7908:8180   */\n      pop\n        /* \"#utility.yul\":7816:8180   */\n      swap3\n      swap2\n      pop\n      pop\n      jump\t// out\n        /* \"#utility.yul\":8186:8304   */\n    tag_243:\n        /* \"#utility.yul\":8273:8297   */\n      tag_389\n        /* \"#utility.yul\":8291:8296   */\n      dup2\n        /* \"#utility.yul\":8273:8297   */\n      tag_217\n      jump\t// in\n    tag_389:\n        /* \"#utility.yul\":8268:8271   */\n      dup3\n        /* \"#utility.yul\":8261:8298   */\n      mstore\n        /* \"#utility.yul\":8186:8304   */\n      pop\n      pop\n      jump\t// out\n        /* \"#utility.yul\":8310:8425   */\n    tag_244:\n        /* \"#utility.yul\":8395:8418   */\n      tag_391\n        /* \"#utility.yul\":8412:8417   */\n      dup2\n        /* \"#utility.yul\":8395:8418   */\n      tag_235\n      jump\t// in\n    tag_391:\n        /* \"#utility.yul\":8390:8393   */\n      dup3\n        /* \"#utility.yul\":8383:8419   */\n      mstore\n        /* \"#utility.yul\":8310:8425   */\n      pop\n      pop\n      jump\t// out\n        /* \"#utility.yul\":8431:8540   */\n    tag_245:\n        /* \"#utility.yul\":8512:8533   */\n      tag_393\n        /* \"#utility.yul\":8527:8532   */\n      dup2\n        /* \"#utility.yul\":8512:8533   */\n      tag_237\n      jump\t// in\n    tag_393:\n        /* \"#utility.yul\":8507:8510   */\n      dup3\n        /* \"#utility.yul\":8500:8534   */\n      mstore\n        /* \"#utility.yul\":8431:8540   */\n      pop\n      pop\n      jump\t// out\n        /* \"#utility.yul\":8546:9281   */\n    tag_42:\n        /* \"#utility.yul\":8761:8765   */\n      0x00\n        /* \"#utility.yul\":8799:8802   */\n      0xa0\n        /* \"#utility.yul\":8788:8797   */\n      dup3\n        /* \"#utility.yul\":8784:8803   */\n      add\n        /* \"#utility.yul\":8776:8803   */\n      swap1\n      pop\n        /* \"#utility.yul\":8849:8858   */\n      dup2\n        /* \"#utility.yul\":8843:8847   */\n      dup2\n        /* \"#utility.yul\":8839:8859   */\n      sub\n        /* \"#utility.yul\":8835:8836   */\n      0x00\n        /* \"#utility.yul\":8824:8833   */\n      dup4\n        /* \"#utility.yul\":8820:8837   */\n      add\n        /* \"#utility.yul\":8813:8860   */\n      mstore\n        /* \"#utility.yul\":8877:8955   */\n      tag_395\n        /* \"#utility.yul\":8950:8954   */\n      dup2\n        /* \"#utility.yul\":8941:8947   */\n      dup9\n        /* \"#utility.yul\":8877:8955   */\n      tag_242\n      jump\t// in\n    tag_395:\n        /* \"#utility.yul\":8869:8955   */\n      swap1\n      pop\n        /* \"#utility.yul\":8965:9037   */\n      tag_396\n        /* \"#utility.yul\":9033:9035   */\n      0x20\n        /* \"#utility.yul\":9022:9031   */\n      dup4\n        /* \"#utility.yul\":9018:9036   */\n      add\n        /* \"#utility.yul\":9009:9015   */\n      dup8\n        /* \"#utility.yul\":8965:9037   */\n      tag_243\n      jump\t// in\n    tag_396:\n        /* \"#utility.yul\":9047:9117   */\n      tag_397\n        /* \"#utility.yul\":9113:9115   */\n      0x40\n        /* \"#utility.yul\":9102:9111   */\n      dup4\n        /* \"#utility.yul\":9098:9116   */\n      add\n        /* \"#utility.yul\":9089:9095   */\n      dup7\n        /* \"#utility.yul\":9047:9117   */\n      tag_244\n      jump\t// in\n    tag_397:\n        /* \"#utility.yul\":9127:9197   */\n      tag_398\n        /* \"#utility.yul\":9193:9195   */\n      0x60\n        /* \"#utility.yul\":9182:9191   */\n      dup4\n        /* \"#utility.yul\":9178:9196   */\n      add\n        /* \"#utility.yul\":9169:9175   */\n      dup6\n        /* \"#utility.yul\":9127:9197   */\n      tag_244\n      jump\t// in\n    tag_398:\n        /* \"#utility.yul\":9207:9274   */\n      tag_399\n        /* \"#utility.yul\":9269:9272   */\n      0x80\n        /* \"#utility.yul\":9258:9267   */\n      dup4\n        /* \"#utility.yul\":9254:9273   */\n      add\n        /* \"#utility.yul\":9245:9251   */\n      dup5\n        /* \"#utility.yul\":9207:9274   */\n      tag_245\n      jump\t// in\n    tag_399:\n        /* \"#utility.yul\":8546:9281   */\n      swap7\n      swap6\n      pop\n      pop\n      pop\n      pop\n      pop\n      pop\n      jump\t// out\n        /* \"#utility.yul\":9287:9471   */\n    tag_246:\n        /* \"#utility.yul\":9386:9397   */\n      0x00\n        /* \"#utility.yul\":9420:9426   */\n      dup3\n        /* \"#utility.yul\":9415:9418   */\n      dup3\n        /* \"#utility.yul\":9408:9427   */\n      mstore\n        /* \"#utility.yul\":9460:9464   */\n      0x20\n        /* \"#utility.yul\":9455:9458   */\n      dup3\n        /* \"#utility.yul\":9451:9465   */\n      add\n        /* \"#utility.yul\":9436:9465   */\n      swap1\n      pop\n        /* \"#utility.yul\":9287:9471   */\n      swap3\n      swap2\n      pop\n      pop\n      jump\t// out\n        /* \"#utility.yul\":9507:10239   */\n    tag_247:\n        /* \"#utility.yul\":9626:9629   */\n      0x00\n        /* \"#utility.yul\":9655:9709   */\n      tag_402\n        /* \"#utility.yul\":9703:9708   */\n      dup3\n        /* \"#utility.yul\":9655:9709   */\n      tag_229\n      jump\t// in\n    tag_402:\n        /* \"#utility.yul\":9725:9811   */\n      tag_403\n        /* \"#utility.yul\":9804:9810   */\n      dup2\n        /* \"#utility.yul\":9799:9802   */\n      dup6\n        /* \"#utility.yul\":9725:9811   */\n      tag_246\n      jump\t// in\n    tag_403:\n        /* \"#utility.yul\":9718:9811   */\n      swap4\n      pop\n        /* \"#utility.yul\":9835:9891   */\n      tag_404\n        /* \"#utility.yul\":9885:9890   */\n      dup4\n        /* \"#utility.yul\":9835:9891   */\n      tag_231\n      jump\t// in\n    tag_404:\n        /* \"#utility.yul\":9914:9921   */\n      dup1\n        /* \"#utility.yul\":9945:9946   */\n      0x00\n        /* \"#utility.yul\":9930:10214   */\n    tag_405:\n        /* \"#utility.yul\":9955:9961   */\n      dup4\n        /* \"#utility.yul\":9952:9953   */\n      dup2\n        /* \"#utility.yul\":9949:9962   */\n      lt\n        /* \"#utility.yul\":9930:10214   */\n      iszero\n      tag_407\n      jumpi\n        /* \"#utility.yul\":10031:10037   */\n      dup2\n        /* \"#utility.yul\":10025:10038   */\n      mload\n        /* \"#utility.yul\":10058:10121   */\n      tag_408\n        /* \"#utility.yul\":10117:10120   */\n      dup9\n        /* \"#utility.yul\":10102:10115   */\n      dup3\n        /* \"#utility.yul\":10058:10121   */\n      tag_232\n      jump\t// in\n    tag_408:\n        /* \"#utility.yul\":10051:10121   */\n      swap8\n      pop\n        /* \"#utility.yul\":10144:10204   */\n      tag_409\n        /* \"#utility.yul\":10197:10203   */\n      dup4\n        /* \"#utility.yul\":10144:10204   */\n      tag_233\n      jump\t// in\n    tag_409:\n        /* \"#utility.yul\":10134:10204   */\n      swap3\n      pop\n        /* \"#utility.yul\":9990:10214   */\n      pop\n        /* \"#utility.yul\":9977:9978   */\n      0x01\n        /* \"#utility.yul\":9974:9975   */\n      dup2\n        /* \"#utility.yul\":9970:9979   */\n      add\n        /* \"#utility.yul\":9965:9979   */\n      swap1\n      pop\n        /* \"#utility.yul\":9930:10214   */\n      jump(tag_405)\n    tag_407:\n        /* \"#utility.yul\":9934:9948   */\n      pop\n        /* \"#utility.yul\":10230:10233   */\n      dup6\n        /* \"#utility.yul\":10223:10233   */\n      swap4\n      pop\n        /* \"#utility.yul\":9631:10239   */\n      pop\n      pop\n      pop\n        /* \"#utility.yul\":9507:10239   */\n      swap3\n      swap2\n      pop\n      pop\n      jump\t// out\n        /* \"#utility.yul\":10245:10618   */\n    tag_47:\n        /* \"#utility.yul\":10388:10392   */\n      0x00\n        /* \"#utility.yul\":10426:10428   */\n      0x20\n        /* \"#utility.yul\":10415:10424   */\n      dup3\n        /* \"#utility.yul\":10411:10429   */\n      add\n        /* \"#utility.yul\":10403:10429   */\n      swap1\n      pop\n        /* \"#utility.yul\":10475:10484   */\n      dup2\n        /* \"#utility.yul\":10469:10473   */\n      dup2\n        /* \"#utility.yul\":10465:10485   */\n      sub\n        /* \"#utility.yul\":10461:10462   */\n      0x00\n        /* \"#utility.yul\":10450:10459   */\n      dup4\n        /* \"#utility.yul\":10446:10463   */\n      add\n        /* \"#utility.yul\":10439:10486   */\n      mstore\n        /* \"#utility.yul\":10503:10611   */\n      tag_411\n        /* \"#utility.yul\":10606:10610   */\n      dup2\n        /* \"#utility.yul\":10597:10603   */\n      dup5\n        /* \"#utility.yul\":10503:10611   */\n      tag_247\n      jump\t// in\n    tag_411:\n        /* \"#utility.yul\":10495:10611   */\n      swap1\n      pop\n        /* \"#utility.yul\":10245:10618   */\n      swap3\n      swap2\n      pop\n      pop\n      jump\t// out\n        /* \"#utility.yul\":10624:10738   */\n    tag_248:\n        /* \"#utility.yul\":10691:10697   */\n      0x00\n        /* \"#utility.yul\":10725:10730   */\n      dup2\n        /* \"#utility.yul\":10719:10731   */\n      mload\n        /* \"#utility.yul\":10709:10731   */\n      swap1\n      pop\n        /* \"#utility.yul\":10624:10738   */\n      swap2\n      swap1\n      pop\n      jump\t// out\n        /* \"#utility.yul\":10744:10928   */\n    tag_249:\n        /* \"#utility.yul\":10843:10854   */\n      0x00\n        /* \"#utility.yul\":10877:10883   */\n      dup3\n        /* \"#utility.yul\":10872:10875   */\n      dup3\n        /* \"#utility.yul\":10865:10884   */\n      mstore\n        /* \"#utility.yul\":10917:10921   */\n      0x20\n        /* \"#utility.yul\":10912:10915   */\n      dup3\n        /* \"#utility.yul\":10908:10922   */\n      add\n        /* \"#utility.yul\":10893:10922   */\n      swap1\n      pop\n        /* \"#utility.yul\":10744:10928   */\n      swap3\n      swap2\n      pop\n      pop\n      jump\t// out\n        /* \"#utility.yul\":10934:11066   */\n    tag_250:\n        /* \"#utility.yul\":11001:11005   */\n      0x00\n        /* \"#utility.yul\":11024:11027   */\n      dup2\n        /* \"#utility.yul\":11016:11027   */\n      swap1\n      pop\n        /* \"#utility.yul\":11054:11058   */\n      0x20\n        /* \"#utility.yul\":11049:11052   */\n      dup3\n        /* \"#utility.yul\":11045:11059   */\n      add\n        /* \"#utility.yul\":11037:11059   */\n      swap1\n      pop\n        /* \"#utility.yul\":10934:11066   */\n      swap2\n      swap1\n      pop\n      jump\t// out\n        /* \"#utility.yul\":11072:11180   */\n    tag_251:\n        /* \"#utility.yul\":11149:11173   */\n      tag_416\n        /* \"#utility.yul\":11167:11172   */\n      dup2\n        /* \"#utility.yul\":11149:11173   */\n      tag_220\n      jump\t// in\n    tag_416:\n        /* \"#utility.yul\":11144:11147   */\n      dup3\n        /* \"#utility.yul\":11137:11174   */\n      mstore\n        /* \"#utility.yul\":11072:11180   */\n      pop\n      pop\n      jump\t// out\n        /* \"#utility.yul\":11186:11365   */\n    tag_252:\n        /* \"#utility.yul\":11255:11265   */\n      0x00\n        /* \"#utility.yul\":11276:11322   */\n      tag_418\n        /* \"#utility.yul\":11318:11321   */\n      dup4\n        /* \"#utility.yul\":11310:11316   */\n      dup4\n        /* \"#utility.yul\":11276:11322   */\n      tag_251\n      jump\t// in\n    tag_418:\n        /* \"#utility.yul\":11354:11358   */\n      0x20\n        /* \"#utility.yul\":11349:11352   */\n      dup4\n        /* \"#utility.yul\":11345:11359   */\n      add\n        /* \"#utility.yul\":11331:11359   */\n      swap1\n      pop\n        /* \"#utility.yul\":11186:11365   */\n      swap3\n      swap2\n      pop\n      pop\n      jump\t// out\n        /* \"#utility.yul\":11371:11484   */\n    tag_253:\n        /* \"#utility.yul\":11441:11445   */\n      0x00\n        /* \"#utility.yul\":11473:11477   */\n      0x20\n        /* \"#utility.yul\":11468:11471   */\n      dup3\n        /* \"#utility.yul\":11464:11478   */\n      add\n        /* \"#utility.yul\":11456:11478   */\n      swap1\n      pop\n        /* \"#utility.yul\":11371:11484   */\n      swap2\n      swap1\n      pop\n      jump\t// out\n        /* \"#utility.yul\":11520:12252   */\n    tag_254:\n        /* \"#utility.yul\":11639:11642   */\n      0x00\n        /* \"#utility.yul\":11668:11722   */\n      tag_421\n        /* \"#utility.yul\":11716:11721   */\n      dup3\n        /* \"#utility.yul\":11668:11722   */\n      tag_248\n      jump\t// in\n    tag_421:\n        /* \"#utility.yul\":11738:11824   */\n      tag_422\n        /* \"#utility.yul\":11817:11823   */\n      dup2\n        /* \"#utility.yul\":11812:11815   */\n      dup6\n        /* \"#utility.yul\":11738:11824   */\n      tag_249\n      jump\t// in\n    tag_422:\n        /* \"#utility.yul\":11731:11824   */\n      swap4\n      pop\n        /* \"#utility.yul\":11848:11904   */\n      tag_423\n        /* \"#utility.yul\":11898:11903   */\n      dup4\n        /* \"#utility.yul\":11848:11904   */\n      tag_250\n      jump\t// in\n    tag_423:\n        /* \"#utility.yul\":11927:11934   */\n      dup1\n        /* \"#utility.yul\":11958:11959   */\n      0x00\n        /* \"#utility.yul\":11943:12227   */\n    tag_424:\n        /* \"#utility.yul\":11968:11974   */\n      dup4\n        /* \"#utility.yul\":11965:11966   */\n      dup2\n        /* \"#utility.yul\":11962:11975   */\n      lt\n        /* \"#utility.yul\":11943:12227   */\n      iszero\n      tag_426\n      jumpi\n        /* \"#utility.yul\":12044:12050   */\n      dup2\n        /* \"#utility.yul\":12038:12051   */\n      mload\n        /* \"#utility.yul\":12071:12134   */\n      tag_427\n        /* \"#utility.yul\":12130:12133   */\n      dup9\n        /* \"#utility.yul\":12115:12128   */\n      dup3\n        /* \"#utility.yul\":12071:12134   */\n      tag_252\n      jump\t// in\n    tag_427:\n        /* \"#utility.yul\":12064:12134   */\n      swap8\n      pop\n        /* \"#utility.yul\":12157:12217   */\n      tag_428\n        /* \"#utility.yul\":12210:12216   */\n      dup4\n        /* \"#utility.yul\":12157:12217   */\n      tag_253\n      jump\t// in\n    tag_428:\n        /* \"#utility.yul\":12147:12217   */\n      swap3\n      pop\n        /* \"#utility.yul\":12003:12227   */\n      pop\n        /* \"#utility.yul\":11990:11991   */\n      0x01\n        /* \"#utility.yul\":11987:11988   */\n      dup2\n        /* \"#utility.yul\":11983:11992   */\n      add\n        /* \"#utility.yul\":11978:11992   */\n      swap1\n      pop\n        /* \"#utility.yul\":11943:12227   */\n      jump(tag_424)\n    tag_426:\n        /* \"#utility.yul\":11947:11961   */\n      pop\n        /* \"#utility.yul\":12243:12246   */\n      dup6\n        /* \"#utility.yul\":12236:12246   */\n      swap4\n      pop\n        /* \"#utility.yul\":11644:12252   */\n      pop\n      pop\n      pop\n        /* \"#utility.yul\":11520:12252   */\n      swap3\n      swap2\n      pop\n      pop\n      jump\t// out\n        /* \"#utility.yul\":12258:12851   */\n    tag_52:\n        /* \"#utility.yul\":12457:12461   */\n      0x00\n        /* \"#utility.yul\":12495:12497   */\n      0x60\n        /* \"#utility.yul\":12484:12493   */\n      dup3\n        /* \"#utility.yul\":12480:12498   */\n      add\n        /* \"#utility.yul\":12472:12498   */\n      swap1\n      pop\n        /* \"#utility.yul\":12544:12553   */\n      dup2\n        /* \"#utility.yul\":12538:12542   */\n      dup2\n        /* \"#utility.yul\":12534:12554   */\n      sub\n        /* \"#utility.yul\":12530:12531   */\n      0x00\n        /* \"#utility.yul\":12519:12528   */\n      dup4\n        /* \"#utility.yul\":12515:12532   */\n      add\n        /* \"#utility.yul\":12508:12555   */\n      mstore\n        /* \"#utility.yul\":12572:12680   */\n      tag_430\n        /* \"#utility.yul\":12675:12679   */\n      dup2\n        /* \"#utility.yul\":12666:12672   */\n      dup7\n        /* \"#utility.yul\":12572:12680   */\n      tag_254\n      jump\t// in\n    tag_430:\n        /* \"#utility.yul\":12564:12680   */\n      swap1\n      pop\n        /* \"#utility.yul\":12690:12762   */\n      tag_431\n        /* \"#utility.yul\":12758:12760   */\n      0x20\n        /* \"#utility.yul\":12747:12756   */\n      dup4\n        /* \"#utility.yul\":12743:12761   */\n      add\n        /* \"#utility.yul\":12734:12740   */\n      dup6\n        /* \"#utility.yul\":12690:12762   */\n      tag_243\n      jump\t// in\n    tag_431:\n        /* \"#utility.yul\":12772:12844   */\n      tag_432\n        /* \"#utility.yul\":12840:12842   */\n      0x40\n        /* \"#utility.yul\":12829:12838   */\n      dup4\n        /* \"#utility.yul\":12825:12843   */\n      add\n        /* \"#utility.yul\":12816:12822   */\n      dup5\n        /* \"#utility.yul\":12772:12844   */\n      tag_240\n      jump\t// in\n    tag_432:\n        /* \"#utility.yul\":12258:12851   */\n      swap5\n      swap4\n      pop\n      pop\n      pop\n      pop\n      jump\t// out\n        /* \"#utility.yul\":12857:13622   */\n    tag_59:\n        /* \"#utility.yul\":12943:12949   */\n      0x00\n        /* \"#utility.yul\":12951:12957   */\n      dup1\n        /* \"#utility.yul\":12959:12965   */\n      0x00\n        /* \"#utility.yul\":12967:12973   */\n      dup1\n        /* \"#utility.yul\":13016:13019   */\n      0x80\n        /* \"#utility.yul\":13004:13013   */\n      dup6\n        /* \"#utility.yul\":12995:13002   */\n      dup8\n        /* \"#utility.yul\":12991:13014   */\n      sub\n        /* \"#utility.yul\":12987:13020   */\n      slt\n        /* \"#utility.yul\":12984:13104   */\n      iszero\n      tag_434\n      jumpi\n        /* \"#utility.yul\":13023:13102   */\n      tag_435\n      tag_214\n      jump\t// in\n    tag_435:\n        /* \"#utility.yul\":12984:13104   */\n    tag_434:\n        /* \"#utility.yul\":13143:13144   */\n      0x00\n        /* \"#utility.yul\":13168:13221   */\n      tag_436\n        /* \"#utility.yul\":13213:13220   */\n      dup8\n        /* \"#utility.yul\":13204:13210   */\n      dup3\n        /* \"#utility.yul\":13193:13202   */\n      dup9\n        /* \"#utility.yul\":13189:13211   */\n      add\n        /* \"#utility.yul\":13168:13221   */\n      tag_219\n      jump\t// in\n    tag_436:\n        /* \"#utility.yul\":13158:13221   */\n      swap5\n      pop\n        /* \"#utility.yul\":13114:13231   */\n      pop\n        /* \"#utility.yul\":13270:13272   */\n      0x20\n        /* \"#utility.yul\":13296:13349   */\n      tag_437\n        /* \"#utility.yul\":13341:13348   */\n      dup8\n        /* \"#utility.yul\":13332:13338   */\n      dup3\n        /* \"#utility.yul\":13321:13330   */\n      dup9\n        /* \"#utility.yul\":13317:13339   */\n      add\n        /* \"#utility.yul\":13296:13349   */\n      tag_222\n      jump\t// in\n    tag_437:\n        /* \"#utility.yul\":13286:13349   */\n      swap4\n      pop\n        /* \"#utility.yul\":13241:13359   */\n      pop\n        /* \"#utility.yul\":13398:13400   */\n      0x40\n        /* \"#utility.yul\":13424:13477   */\n      tag_438\n        /* \"#utility.yul\":13469:13476   */\n      dup8\n        /* \"#utility.yul\":13460:13466   */\n      dup3\n        /* \"#utility.yul\":13449:13458   */\n      dup9\n        /* \"#utility.yul\":13445:13467   */\n      add\n        /* \"#utility.yul\":13424:13477   */\n      tag_222\n      jump\t// in\n    tag_438:\n        /* \"#utility.yul\":13414:13477   */\n      swap3\n      pop\n        /* \"#utility.yul\":13369:13487   */\n      pop\n        /* \"#utility.yul\":13526:13528   */\n      0x60\n        /* \"#utility.yul\":13552:13605   */\n      tag_439\n        /* \"#utility.yul\":13597:13604   */\n      dup8\n        /* \"#utility.yul\":13588:13594   */\n      dup3\n        /* \"#utility.yul\":13577:13586   */\n      dup9\n        /* \"#utility.yul\":13573:13595   */\n      add\n        /* \"#utility.yul\":13552:13605   */\n      tag_222\n      jump\t// in\n    tag_439:\n        /* \"#utility.yul\":13542:13605   */\n      swap2\n      pop\n        /* \"#utility.yul\":13497:13615   */\n      pop\n        /* \"#utility.yul\":12857:13622   */\n      swap3\n      swap6\n      swap2\n      swap5\n      pop\n      swap3\n      pop\n      jump\t// out\n        /* \"#utility.yul\":13628:13705   */\n    tag_255:\n        /* \"#utility.yul\":13665:13672   */\n      0x00\n        /* \"#utility.yul\":13694:13699   */\n      dup2\n        /* \"#utility.yul\":13683:13699   */\n      swap1\n      pop\n        /* \"#utility.yul\":13628:13705   */\n      swap2\n      swap1\n      pop\n      jump\t// out\n        /* \"#utility.yul\":13711:13829   */\n    tag_256:\n        /* \"#utility.yul\":13798:13822   */\n      tag_442\n        /* \"#utility.yul\":13816:13821   */\n      dup2\n        /* \"#utility.yul\":13798:13822   */\n      tag_255\n      jump\t// in\n    tag_442:\n        /* \"#utility.yul\":13793:13796   */\n      dup3\n        /* \"#utility.yul\":13786:13823   */\n      mstore\n        /* \"#utility.yul\":13711:13829   */\n      pop\n      pop\n      jump\t// out\n        /* \"#utility.yul\":13835:14057   */\n    tag_62:\n        /* \"#utility.yul\":13928:13932   */\n      0x00\n        /* \"#utility.yul\":13966:13968   */\n      0x20\n        /* \"#utility.yul\":13955:13964   */\n      dup3\n        /* \"#utility.yul\":13951:13969   */\n      add\n        /* \"#utility.yul\":13943:13969   */\n      swap1\n      pop\n        /* \"#utility.yul\":13979:14050   */\n      tag_444\n        /* \"#utility.yul\":14047:14048   */\n      0x00\n        /* \"#utility.yul\":14036:14045   */\n      dup4\n        /* \"#utility.yul\":14032:14049   */\n      add\n        /* \"#utility.yul\":14023:14029   */\n      dup5\n        /* \"#utility.yul\":13979:14050   */\n      tag_256\n      jump\t// in\n    tag_444:\n        /* \"#utility.yul\":13835:14057   */\n      swap3\n      swap2\n      pop\n      pop\n      jump\t// out\n        /* \"#utility.yul\":14063:14180   */\n    tag_257:\n        /* \"#utility.yul\":14172:14173   */\n      0x00\n        /* \"#utility.yul\":14169:14170   */\n      dup1\n        /* \"#utility.yul\":14162:14174   */\n      revert\n        /* \"#utility.yul\":14186:14303   */\n    tag_258:\n        /* \"#utility.yul\":14295:14296   */\n      0x00\n        /* \"#utility.yul\":14292:14293   */\n      dup1\n        /* \"#utility.yul\":14285:14297   */\n      revert\n        /* \"#utility.yul\":14309:14489   */\n    tag_121:\n        /* \"#utility.yul\":14357:14434   */\n      0x4e487b7100000000000000000000000000000000000000000000000000000000\n        /* \"#utility.yul\":14354:14355   */\n      0x00\n        /* \"#utility.yul\":14347:14435   */\n      mstore\n        /* \"#utility.yul\":14454:14458   */\n      0x41\n        /* \"#utility.yul\":14451:14452   */\n      0x04\n        /* \"#utility.yul\":14444:14459   */\n      mstore\n        /* \"#utility.yul\":14478:14482   */\n      0x24\n        /* \"#utility.yul\":14475:14476   */\n      0x00\n        /* \"#utility.yul\":14468:14483   */\n      revert\n        /* \"#utility.yul\":14495:14776   */\n    tag_259:\n        /* \"#utility.yul\":14578:14605   */\n      tag_449\n        /* \"#utility.yul\":14600:14604   */\n      dup3\n        /* \"#utility.yul\":14578:14605   */\n      tag_226\n      jump\t// in\n    tag_449:\n        /* \"#utility.yul\":14570:14576   */\n      dup2\n        /* \"#utility.yul\":14566:14606   */\n      add\n        /* \"#utility.yul\":14708:14714   */\n      dup2\n        /* \"#utility.yul\":14696:14706   */\n      dup2\n        /* \"#utility.yul\":14693:14715   */\n      lt\n        /* \"#utility.yul\":14672:14690   */\n      0xffffffffffffffff\n        /* \"#utility.yul\":14660:14670   */\n      dup3\n        /* \"#utility.yul\":14657:14691   */\n      gt\n        /* \"#utility.yul\":14654:14716   */\n      or\n        /* \"#utility.yul\":14651:14739   */\n      iszero\n      tag_450\n      jumpi\n        /* \"#utility.yul\":14719:14737   */\n      tag_451\n      tag_121\n      jump\t// in\n    tag_451:\n        /* \"#utility.yul\":14651:14739   */\n    tag_450:\n        /* \"#utility.yul\":14759:14769   */\n      dup1\n        /* \"#utility.yul\":14755:14757   */\n      0x40\n        /* \"#utility.yul\":14748:14770   */\n      mstore\n        /* \"#utility.yul\":14538:14776   */\n      pop\n        /* \"#utility.yul\":14495:14776   */\n      pop\n      pop\n      jump\t// out\n        /* \"#utility.yul\":14782:14911   */\n    tag_260:\n        /* \"#utility.yul\":14816:14822   */\n      0x00\n        /* \"#utility.yul\":14843:14863   */\n      tag_453\n      tag_213\n      jump\t// in\n    tag_453:\n        /* \"#utility.yul\":14833:14863   */\n      swap1\n      pop\n        /* \"#utility.yul\":14872:14905   */\n      tag_454\n        /* \"#utility.yul\":14900:14904   */\n      dup3\n        /* \"#utility.yul\":14892:14898   */\n      dup3\n        /* \"#utility.yul\":14872:14905   */\n      tag_259\n      jump\t// in\n    tag_454:\n        /* \"#utility.yul\":14782:14911   */\n      swap2\n      swap1\n      pop\n      jump\t// out\n        /* \"#utility.yul\":14917:15224   */\n    tag_261:\n        /* \"#utility.yul\":14978:14982   */\n      0x00\n        /* \"#utility.yul\":15068:15086   */\n      0xffffffffffffffff\n        /* \"#utility.yul\":15060:15066   */\n      dup3\n        /* \"#utility.yul\":15057:15087   */\n      gt\n        /* \"#utility.yul\":15054:15110   */\n      iszero\n      tag_456\n      jumpi\n        /* \"#utility.yul\":15090:15108   */\n      tag_457\n      tag_121\n      jump\t// in\n    tag_457:\n        /* \"#utility.yul\":15054:15110   */\n    tag_456:\n        /* \"#utility.yul\":15128:15157   */\n      tag_458\n        /* \"#utility.yul\":15150:15156   */\n      dup3\n        /* \"#utility.yul\":15128:15157   */\n      tag_226\n      jump\t// in\n    tag_458:\n        /* \"#utility.yul\":15120:15157   */\n      swap1\n      pop\n        /* \"#utility.yul\":15212:15216   */\n      0x20\n        /* \"#utility.yul\":15206:15210   */\n      dup2\n        /* \"#utility.yul\":15202:15217   */\n      add\n        /* \"#utility.yul\":15194:15217   */\n      swap1\n      pop\n        /* \"#utility.yul\":14917:15224   */\n      swap2\n      swap1\n      pop\n      jump\t// out\n        /* \"#utility.yul\":15230:15384   */\n    tag_262:\n        /* \"#utility.yul\":15314:15320   */\n      dup3\n        /* \"#utility.yul\":15309:15312   */\n      dup2\n        /* \"#utility.yul\":15304:15307   */\n      dup4\n        /* \"#utility.yul\":15291:15321   */\n      calldatacopy\n        /* \"#utility.yul\":15376:15377   */\n      0x00\n        /* \"#utility.yul\":15367:15373   */\n      dup4\n        /* \"#utility.yul\":15362:15365   */\n      dup4\n        /* \"#utility.yul\":15358:15374   */\n      add\n        /* \"#utility.yul\":15351:15378   */\n      mstore\n        /* \"#utility.yul\":15230:15384   */\n      pop\n      pop\n      pop\n      jump\t// out\n        /* \"#utility.yul\":15390:15800   */\n    tag_263:\n        /* \"#utility.yul\":15467:15472   */\n      0x00\n        /* \"#utility.yul\":15492:15557   */\n      tag_461\n        /* \"#utility.yul\":15508:15556   */\n      tag_462\n        /* \"#utility.yul\":15549:15555   */\n      dup5\n        /* \"#utility.yul\":15508:15556   */\n      tag_261\n      jump\t// in\n    tag_462:\n        /* \"#utility.yul\":15492:15557   */\n      tag_260\n      jump\t// in\n    tag_461:\n        /* \"#utility.yul\":15483:15557   */\n      swap1\n      pop\n        /* \"#utility.yul\":15580:15586   */\n      dup3\n        /* \"#utility.yul\":15573:15578   */\n      dup2\n        /* \"#utility.yul\":15566:15587   */\n      mstore\n        /* \"#utility.yul\":15618:15622   */\n      0x20\n        /* \"#utility.yul\":15611:15616   */\n      dup2\n        /* \"#utility.yul\":15607:15623   */\n      add\n        /* \"#utility.yul\":15656:15659   */\n      dup5\n        /* \"#utility.yul\":15647:15653   */\n      dup5\n        /* \"#utility.yul\":15642:15645   */\n      dup5\n        /* \"#utility.yul\":15638:15654   */\n      add\n        /* \"#utility.yul\":15635:15660   */\n      gt\n        /* \"#utility.yul\":15632:15744   */\n      iszero\n      tag_463\n      jumpi\n        /* \"#utility.yul\":15663:15742   */\n      tag_464\n      tag_258\n      jump\t// in\n    tag_464:\n        /* \"#utility.yul\":15632:15744   */\n    tag_463:\n        /* \"#utility.yul\":15753:15794   */\n      tag_465\n        /* \"#utility.yul\":15787:15793   */\n      dup5\n        /* \"#utility.yul\":15782:15785   */\n      dup3\n        /* \"#utility.yul\":15777:15780   */\n      dup6\n        /* \"#utility.yul\":15753:15794   */\n      tag_262\n      jump\t// in\n    tag_465:\n        /* \"#utility.yul\":15473:15800   */\n      pop\n        /* \"#utility.yul\":15390:15800   */\n      swap4\n      swap3\n      pop\n      pop\n      pop\n      jump\t// out\n        /* \"#utility.yul\":15819:16157   */\n    tag_264:\n        /* \"#utility.yul\":15874:15879   */\n      0x00\n        /* \"#utility.yul\":15923:15926   */\n      dup3\n        /* \"#utility.yul\":15916:15920   */\n      0x1f\n        /* \"#utility.yul\":15908:15914   */\n      dup4\n        /* \"#utility.yul\":15904:15921   */\n      add\n        /* \"#utility.yul\":15900:15927   */\n      slt\n        /* \"#utility.yul\":15890:16012   */\n      tag_467\n      jumpi\n        /* \"#utility.yul\":15931:16010   */\n      tag_468\n      tag_257\n      jump\t// in\n    tag_468:\n        /* \"#utility.yul\":15890:16012   */\n    tag_467:\n        /* \"#utility.yul\":16048:16054   */\n      dup2\n        /* \"#utility.yul\":16035:16055   */\n      calldataload\n        /* \"#utility.yul\":16073:16151   */\n      tag_469\n        /* \"#utility.yul\":16147:16150   */\n      dup5\n        /* \"#utility.yul\":16139:16145   */\n      dup3\n        /* \"#utility.yul\":16132:16136   */\n      0x20\n        /* \"#utility.yul\":16124:16130   */\n      dup7\n        /* \"#utility.yul\":16120:16137   */\n      add\n        /* \"#utility.yul\":16073:16151   */\n      tag_263\n      jump\t// in\n    tag_469:\n        /* \"#utility.yul\":16064:16151   */\n      swap2\n      pop\n        /* \"#utility.yul\":15880:16157   */\n      pop\n        /* \"#utility.yul\":15819:16157   */\n      swap3\n      swap2\n      pop\n      pop\n      jump\t// out\n        /* \"#utility.yul\":16163:17106   */\n    tag_65:\n        /* \"#utility.yul\":16258:16264   */\n      0x00\n        /* \"#utility.yul\":16266:16272   */\n      dup1\n        /* \"#utility.yul\":16274:16280   */\n      0x00\n        /* \"#utility.yul\":16282:16288   */\n      dup1\n        /* \"#utility.yul\":16331:16334   */\n      0x80\n        /* \"#utility.yul\":16319:16328   */\n      dup6\n        /* \"#utility.yul\":16310:16317   */\n      dup8\n        /* \"#utility.yul\":16306:16329   */\n      sub\n        /* \"#utility.yul\":16302:16335   */\n      slt\n        /* \"#utility.yul\":16299:16419   */\n      iszero\n      tag_471\n      jumpi\n        /* \"#utility.yul\":16338:16417   */\n      tag_472\n      tag_214\n      jump\t// in\n    tag_472:\n        /* \"#utility.yul\":16299:16419   */\n    tag_471:\n        /* \"#utility.yul\":16458:16459   */\n      0x00\n        /* \"#utility.yul\":16483:16536   */\n      tag_473\n        /* \"#utility.yul\":16528:16535   */\n      dup8\n        /* \"#utility.yul\":16519:16525   */\n      dup3\n        /* \"#utility.yul\":16508:16517   */\n      dup9\n        /* \"#utility.yul\":16504:16526   */\n      add\n        /* \"#utility.yul\":16483:16536   */\n      tag_219\n      jump\t// in\n    tag_473:\n        /* \"#utility.yul\":16473:16536   */\n      swap5\n      pop\n        /* \"#utility.yul\":16429:16546   */\n      pop\n        /* \"#utility.yul\":16585:16587   */\n      0x20\n        /* \"#utility.yul\":16611:16664   */\n      tag_474\n        /* \"#utility.yul\":16656:16663   */\n      dup8\n        /* \"#utility.yul\":16647:16653   */\n      dup3\n        /* \"#utility.yul\":16636:16645   */\n      dup9\n        /* \"#utility.yul\":16632:16654   */\n      add\n        /* \"#utility.yul\":16611:16664   */\n      tag_222\n      jump\t// in\n    tag_474:\n        /* \"#utility.yul\":16601:16664   */\n      swap4\n      pop\n        /* \"#utility.yul\":16556:16674   */\n      pop\n        /* \"#utility.yul\":16713:16715   */\n      0x40\n        /* \"#utility.yul\":16739:16792   */\n      tag_475\n        /* \"#utility.yul\":16784:16791   */\n      dup8\n        /* \"#utility.yul\":16775:16781   */\n      dup3\n        /* \"#utility.yul\":16764:16773   */\n      dup9\n        /* \"#utility.yul\":16760:16782   */\n      add\n        /* \"#utility.yul\":16739:16792   */\n      tag_222\n      jump\t// in\n    tag_475:\n        /* \"#utility.yul\":16729:16792   */\n      swap3\n      pop\n        /* \"#utility.yul\":16684:16802   */\n      pop\n        /* \"#utility.yul\":16869:16871   */\n      0x60\n        /* \"#utility.yul\":16858:16867   */\n      dup6\n        /* \"#utility.yul\":16854:16872   */\n      add\n        /* \"#utility.yul\":16841:16873   */\n      calldataload\n        /* \"#utility.yul\":16900:16918   */\n      0xffffffffffffffff\n        /* \"#utility.yul\":16892:16898   */\n      dup2\n        /* \"#utility.yul\":16889:16919   */\n      gt\n        /* \"#utility.yul\":16886:17003   */\n      iszero\n      tag_476\n      jumpi\n        /* \"#utility.yul\":16922:17001   */\n      tag_477\n      tag_215\n      jump\t// in\n    tag_477:\n        /* \"#utility.yul\":16886:17003   */\n    tag_476:\n        /* \"#utility.yul\":17027:17089   */\n      tag_478\n        /* \"#utility.yul\":17081:17088   */\n      dup8\n        /* \"#utility.yul\":17072:17078   */\n      dup3\n        /* \"#utility.yul\":17061:17070   */\n      dup9\n        /* \"#utility.yul\":17057:17079   */\n      add\n        /* \"#utility.yul\":17027:17089   */\n      tag_264\n      jump\t// in\n    tag_478:\n        /* \"#utility.yul\":17017:17089   */\n      swap2\n      pop\n        /* \"#utility.yul\":16812:17099   */\n      pop\n        /* \"#utility.yul\":16163:17106   */\n      swap3\n      swap6\n      swap2\n      swap5\n      pop\n      swap3\n      pop\n      jump\t// out\n        /* \"#utility.yul\":17112:17420   */\n    tag_265:\n        /* \"#utility.yul\":17174:17178   */\n      0x00\n        /* \"#utility.yul\":17264:17282   */\n      0xffffffffffffffff\n        /* \"#utility.yul\":17256:17262   */\n      dup3\n        /* \"#utility.yul\":17253:17283   */\n      gt\n        /* \"#utility.yul\":17250:17306   */\n      iszero\n      tag_480\n      jumpi\n        /* \"#utility.yul\":17286:17304   */\n      tag_481\n      tag_121\n      jump\t// in\n    tag_481:\n        /* \"#utility.yul\":17250:17306   */\n    tag_480:\n        /* \"#utility.yul\":17324:17353   */\n      tag_482\n        /* \"#utility.yul\":17346:17352   */\n      dup3\n        /* \"#utility.yul\":17324:17353   */\n      tag_226\n      jump\t// in\n    tag_482:\n        /* \"#utility.yul\":17316:17353   */\n      swap1\n      pop\n        /* \"#utility.yul\":17408:17412   */\n      0x20\n        /* \"#utility.yul\":17402:17406   */\n      dup2\n        /* \"#utility.yul\":17398:17413   */\n      add\n        /* \"#utility.yul\":17390:17413   */\n      swap1\n      pop\n        /* \"#utility.yul\":17112:17420   */\n      swap2\n      swap1\n      pop\n      jump\t// out\n        /* \"#utility.yul\":17426:17838   */\n    tag_266:\n        /* \"#utility.yul\":17504:17509   */\n      0x00\n        /* \"#utility.yul\":17529:17595   */\n      tag_484\n        /* \"#utility.yul\":17545:17594   */\n      tag_485\n        /* \"#utility.yul\":17587:17593   */\n      dup5\n        /* \"#utility.yul\":17545:17594   */\n      tag_265\n      jump\t// in\n    tag_485:\n        /* \"#utility.yul\":17529:17595   */\n      tag_260\n      jump\t// in\n    tag_484:\n        /* \"#utility.yul\":17520:17595   */\n      swap1\n      pop\n        /* \"#utility.yul\":17618:17624   */\n      dup3\n        /* \"#utility.yul\":17611:17616   */\n      dup2\n        /* \"#utility.yul\":17604:17625   */\n      mstore\n        /* \"#utility.yul\":17656:17660   */\n      0x20\n        /* \"#utility.yul\":17649:17654   */\n      dup2\n        /* \"#utility.yul\":17645:17661   */\n      add\n        /* \"#utility.yul\":17694:17697   */\n      dup5\n        /* \"#utility.yul\":17685:17691   */\n      dup5\n        /* \"#utility.yul\":17680:17683   */\n      dup5\n        /* \"#utility.yul\":17676:17692   */\n      add\n        /* \"#utility.yul\":17673:17698   */\n      gt\n        /* \"#utility.yul\":17670:17782   */\n      iszero\n      tag_486\n      jumpi\n        /* \"#utility.yul\":17701:17780   */\n      tag_487\n      tag_258\n      jump\t// in\n    tag_487:\n        /* \"#utility.yul\":17670:17782   */\n    tag_486:\n        /* \"#utility.yul\":17791:17832   */\n      tag_488\n        /* \"#utility.yul\":17825:17831   */\n      dup5\n        /* \"#utility.yul\":17820:17823   */\n      dup3\n        /* \"#utility.yul\":17815:17818   */\n      dup6\n        /* \"#utility.yul\":17791:17832   */\n      tag_262\n      jump\t// in\n    tag_488:\n        /* \"#utility.yul\":17510:17838   */\n      pop\n        /* \"#utility.yul\":17426:17838   */\n      swap4\n      swap3\n      pop\n      pop\n      pop\n      jump\t// out\n        /* \"#utility.yul\":17858:18198   */\n    tag_267:\n        /* \"#utility.yul\":17914:17919   */\n      0x00\n        /* \"#utility.yul\":17963:17966   */\n      dup3\n        /* \"#utility.yul\":17956:17960   */\n      0x1f\n        /* \"#utility.yul\":17948:17954   */\n      dup4\n        /* \"#utility.yul\":17944:17961   */\n      add\n        /* \"#utility.yul\":17940:17967   */\n      slt\n        /* \"#utility.yul\":17930:18052   */\n      tag_490\n      jumpi\n        /* \"#utility.yul\":17971:18050   */\n      tag_491\n      tag_257\n      jump\t// in\n    tag_491:\n        /* \"#utility.yul\":17930:18052   */\n    tag_490:\n        /* \"#utility.yul\":18088:18094   */\n      dup2\n        /* \"#utility.yul\":18075:18095   */\n      calldataload\n        /* \"#utility.yul\":18113:18192   */\n      tag_492\n        /* \"#utility.yul\":18188:18191   */\n      dup5\n        /* \"#utility.yul\":18180:18186   */\n      dup3\n        /* \"#utility.yul\":18173:18177   */\n      0x20\n        /* \"#utility.yul\":18165:18171   */\n      dup7\n        /* \"#utility.yul\":18161:18178   */\n      add\n        /* \"#utility.yul\":18113:18192   */\n      tag_266\n      jump\t// in\n    tag_492:\n        /* \"#utility.yul\":18104:18192   */\n      swap2\n      pop\n        /* \"#utility.yul\":17920:18198   */\n      pop\n        /* \"#utility.yul\":17858:18198   */\n      swap3\n      swap2\n      pop\n      pop\n      jump\t// out\n        /* \"#utility.yul\":18204:18324   */\n    tag_268:\n        /* \"#utility.yul\":18276:18299   */\n      tag_494\n        /* \"#utility.yul\":18293:18298   */\n      dup2\n        /* \"#utility.yul\":18276:18299   */\n      tag_235\n      jump\t// in\n    tag_494:\n        /* \"#utility.yul\":18269:18274   */\n      dup2\n        /* \"#utility.yul\":18266:18300   */\n      eq\n        /* \"#utility.yul\":18256:18318   */\n      tag_495\n      jumpi\n        /* \"#utility.yul\":18314:18315   */\n      0x00\n        /* \"#utility.yul\":18311:18312   */\n      dup1\n        /* \"#utility.yul\":18304:18316   */\n      revert\n        /* \"#utility.yul\":18256:18318   */\n    tag_495:\n        /* \"#utility.yul\":18204:18324   */\n      pop\n      jump\t// out\n        /* \"#utility.yul\":18330:18467   */\n    tag_269:\n        /* \"#utility.yul\":18375:18380   */\n      0x00\n        /* \"#utility.yul\":18413:18419   */\n      dup2\n        /* \"#utility.yul\":18400:18420   */\n      calldataload\n        /* \"#utility.yul\":18391:18420   */\n      swap1\n      pop\n        /* \"#utility.yul\":18429:18461   */\n      tag_497\n        /* \"#utility.yul\":18455:18460   */\n      dup2\n        /* \"#utility.yul\":18429:18461   */\n      tag_268\n      jump\t// in\n    tag_497:\n        /* \"#utility.yul\":18330:18467   */\n      swap3\n      swap2\n      pop\n      pop\n      jump\t// out\n        /* \"#utility.yul\":18473:19125   */\n    tag_76:\n        /* \"#utility.yul\":18550:18556   */\n      0x00\n        /* \"#utility.yul\":18558:18564   */\n      dup1\n        /* \"#utility.yul\":18607:18609   */\n      0x40\n        /* \"#utility.yul\":18595:18604   */\n      dup4\n        /* \"#utility.yul\":18586:18593   */\n      dup6\n        /* \"#utility.yul\":18582:18605   */\n      sub\n        /* \"#utility.yul\":18578:18610   */\n      slt\n        /* \"#utility.yul\":18575:18694   */\n      iszero\n      tag_499\n      jumpi\n        /* \"#utility.yul\":18613:18692   */\n      tag_500\n      tag_214\n      jump\t// in\n    tag_500:\n        /* \"#utility.yul\":18575:18694   */\n    tag_499:\n        /* \"#utility.yul\":18761:18762   */\n      0x00\n        /* \"#utility.yul\":18750:18759   */\n      dup4\n        /* \"#utility.yul\":18746:18763   */\n      add\n        /* \"#utility.yul\":18733:18764   */\n      calldataload\n        /* \"#utility.yul\":18791:18809   */\n      0xffffffffffffffff\n        /* \"#utility.yul\":18783:18789   */\n      dup2\n        /* \"#utility.yul\":18780:18810   */\n      gt\n        /* \"#utility.yul\":18777:18894   */\n      iszero\n      tag_501\n      jumpi\n        /* \"#utility.yul\":18813:18892   */\n      tag_502\n      tag_215\n      jump\t// in\n    tag_502:\n        /* \"#utility.yul\":18777:18894   */\n    tag_501:\n        /* \"#utility.yul\":18918:18981   */\n      tag_503\n        /* \"#utility.yul\":18973:18980   */\n      dup6\n        /* \"#utility.yul\":18964:18970   */\n      dup3\n        /* \"#utility.yul\":18953:18962   */\n      dup7\n        /* \"#utility.yul\":18949:18971   */\n      add\n        /* \"#utility.yul\":18918:18981   */\n      tag_267\n      jump\t// in\n    tag_503:\n        /* \"#utility.yul\":18908:18981   */\n      swap3\n      pop\n        /* \"#utility.yul\":18704:18991   */\n      pop\n        /* \"#utility.yul\":19030:19032   */\n      0x20\n        /* \"#utility.yul\":19056:19108   */\n      tag_504\n        /* \"#utility.yul\":19100:19107   */\n      dup6\n        /* \"#utility.yul\":19091:19097   */\n      dup3\n        /* \"#utility.yul\":19080:19089   */\n      dup7\n        /* \"#utility.yul\":19076:19098   */\n      add\n        /* \"#utility.yul\":19056:19108   */\n      tag_269\n      jump\t// in\n    tag_504:\n        /* \"#utility.yul\":19046:19108   */\n      swap2\n      pop\n        /* \"#utility.yul\":19001:19118   */\n      pop\n        /* \"#utility.yul\":18473:19125   */\n      swap3\n      pop\n      swap3\n      swap1\n      pop\n      jump\t// out\n        /* \"#utility.yul\":19131:19301   */\n    tag_270:\n        /* \"#utility.yul\":19271:19293   */\n      0x79657420746f20637265617465206120706f6c6c000000000000000000000000\n        /* \"#utility.yul\":19267:19268   */\n      0x00\n        /* \"#utility.yul\":19259:19265   */\n      dup3\n        /* \"#utility.yul\":19255:19269   */\n      add\n        /* \"#utility.yul\":19248:19294   */\n      mstore\n        /* \"#utility.yul\":19131:19301   */\n      pop\n      jump\t// out\n        /* \"#utility.yul\":19307:19673   */\n    tag_271:\n        /* \"#utility.yul\":19449:19452   */\n      0x00\n        /* \"#utility.yul\":19470:19537   */\n      tag_507\n        /* \"#utility.yul\":19534:19536   */\n      0x14\n        /* \"#utility.yul\":19529:19532   */\n      dup4\n        /* \"#utility.yul\":19470:19537   */\n      tag_241\n      jump\t// in\n    tag_507:\n        /* \"#utility.yul\":19463:19537   */\n      swap2\n      pop\n        /* \"#utility.yul\":19546:19639   */\n      tag_508\n        /* \"#utility.yul\":19635:19638   */\n      dup3\n        /* \"#utility.yul\":19546:19639   */\n      tag_270\n      jump\t// in\n    tag_508:\n        /* \"#utility.yul\":19664:19666   */\n      0x20\n        /* \"#utility.yul\":19659:19662   */\n      dup3\n        /* \"#utility.yul\":19655:19667   */\n      add\n        /* \"#utility.yul\":19648:19667   */\n      swap1\n      pop\n        /* \"#utility.yul\":19307:19673   */\n      swap2\n      swap1\n      pop\n      jump\t// out\n        /* \"#utility.yul\":19679:20098   */\n    tag_81:\n        /* \"#utility.yul\":19845:19849   */\n      0x00\n        /* \"#utility.yul\":19883:19885   */\n      0x20\n        /* \"#utility.yul\":19872:19881   */\n      dup3\n        /* \"#utility.yul\":19868:19886   */\n      add\n        /* \"#utility.yul\":19860:19886   */\n      swap1\n      pop\n        /* \"#utility.yul\":19932:19941   */\n      dup2\n        /* \"#utility.yul\":19926:19930   */\n      dup2\n        /* \"#utility.yul\":19922:19942   */\n      sub\n        /* \"#utility.yul\":19918:19919   */\n      0x00\n        /* \"#utility.yul\":19907:19916   */\n      dup4\n        /* \"#utility.yul\":19903:19920   */\n      add\n        /* \"#utility.yul\":19896:19943   */\n      mstore\n        /* \"#utility.yul\":19960:20091   */\n      tag_510\n        /* \"#utility.yul\":20086:20090   */\n      dup2\n        /* \"#utility.yul\":19960:20091   */\n      tag_271\n      jump\t// in\n    tag_510:\n        /* \"#utility.yul\":19952:20091   */\n      swap1\n      pop\n        /* \"#utility.yul\":19679:20098   */\n      swap2\n      swap1\n      pop\n      jump\t// out\n        /* \"#utility.yul\":20104:20284   */\n    tag_84:\n        /* \"#utility.yul\":20152:20229   */\n      0x4e487b7100000000000000000000000000000000000000000000000000000000\n        /* \"#utility.yul\":20149:20150   */\n      0x00\n        /* \"#utility.yul\":20142:20230   */\n      mstore\n        /* \"#utility.yul\":20249:20253   */\n      0x01\n        /* \"#utility.yul\":20246:20247   */\n      0x04\n        /* \"#utility.yul\":20239:20254   */\n      mstore\n        /* \"#utility.yul\":20273:20277   */\n      0x24\n        /* \"#utility.yul\":20270:20271   */\n      0x00\n        /* \"#utility.yul\":20263:20278   */\n      revert\n        /* \"#utility.yul\":20290:20523   */\n    tag_272:\n        /* \"#utility.yul\":20430:20464   */\n      0x6d6178696d756d206e6f206f662063616e646964617465207065722073657373\n        /* \"#utility.yul\":20426:20427   */\n      0x00\n        /* \"#utility.yul\":20418:20424   */\n      dup3\n        /* \"#utility.yul\":20414:20428   */\n      add\n        /* \"#utility.yul\":20407:20465   */\n      mstore\n        /* \"#utility.yul\":20499:20515   */\n      0x696f6e2072656769737465726564000000000000000000000000000000000000\n        /* \"#utility.yul\":20494:20496   */\n      0x20\n        /* \"#utility.yul\":20486:20492   */\n      dup3\n        /* \"#utility.yul\":20482:20497   */\n      add\n        /* \"#utility.yul\":20475:20516   */\n      mstore\n        /* \"#utility.yul\":20290:20523   */\n      pop\n      jump\t// out\n        /* \"#utility.yul\":20529:20895   */\n    tag_273:\n        /* \"#utility.yul\":20671:20674   */\n      0x00\n        /* \"#utility.yul\":20692:20759   */\n      tag_514\n        /* \"#utility.yul\":20756:20758   */\n      0x2e\n        /* \"#utility.yul\":20751:20754   */\n      dup4\n        /* \"#utility.yul\":20692:20759   */\n      tag_241\n      jump\t// in\n    tag_514:\n        /* \"#utility.yul\":20685:20759   */\n      swap2\n      pop\n        /* \"#utility.yul\":20768:20861   */\n      tag_515\n        /* \"#utility.yul\":20857:20860   */\n      dup3\n        /* \"#utility.yul\":20768:20861   */\n      tag_272\n      jump\t// in\n    tag_515:\n        /* \"#utility.yul\":20886:20888   */\n      0x40\n        /* \"#utility.yul\":20881:20884   */\n      dup3\n        /* \"#utility.yul\":20877:20889   */\n      add\n        /* \"#utility.yul\":20870:20889   */\n      swap1\n      pop\n        /* \"#utility.yul\":20529:20895   */\n      swap2\n      swap1\n      pop\n      jump\t// out\n        /* \"#utility.yul\":20901:21320   */\n    tag_87:\n        /* \"#utility.yul\":21067:21071   */\n      0x00\n        /* \"#utility.yul\":21105:21107   */\n      0x20\n        /* \"#utility.yul\":21094:21103   */\n      dup3\n        /* \"#utility.yul\":21090:21108   */\n      add\n        /* \"#utility.yul\":21082:21108   */\n      swap1\n      pop\n        /* \"#utility.yul\":21154:21163   */\n      dup2\n        /* \"#utility.yul\":21148:21152   */\n      dup2\n        /* \"#utility.yul\":21144:21164   */\n      sub\n        /* \"#utility.yul\":21140:21141   */\n      0x00\n        /* \"#utility.yul\":21129:21138   */\n      dup4\n        /* \"#utility.yul\":21125:21142   */\n      add\n        /* \"#utility.yul\":21118:21165   */\n      mstore\n        /* \"#utility.yul\":21182:21313   */\n      tag_517\n        /* \"#utility.yul\":21308:21312   */\n      dup2\n        /* \"#utility.yul\":21182:21313   */\n      tag_273\n      jump\t// in\n    tag_517:\n        /* \"#utility.yul\":21174:21313   */\n      swap1\n      pop\n        /* \"#utility.yul\":20901:21320   */\n      swap2\n      swap1\n      pop\n      jump\t// out\n        /* \"#utility.yul\":21326:21506   */\n    tag_274:\n        /* \"#utility.yul\":21374:21451   */\n      0x4e487b7100000000000000000000000000000000000000000000000000000000\n        /* \"#utility.yul\":21371:21372   */\n      0x00\n        /* \"#utility.yul\":21364:21452   */\n      mstore\n        /* \"#utility.yul\":21471:21475   */\n      0x11\n        /* \"#utility.yul\":21468:21469   */\n      0x04\n        /* \"#utility.yul\":21461:21476   */\n      mstore\n        /* \"#utility.yul\":21495:21499   */\n      0x24\n        /* \"#utility.yul\":21492:21493   */\n      0x00\n        /* \"#utility.yul\":21485:21500   */\n      revert\n        /* \"#utility.yul\":21512:21687   */\n    tag_90:\n        /* \"#utility.yul\":21550:21553   */\n      0x00\n        /* \"#utility.yul\":21573:21596   */\n      tag_520\n        /* \"#utility.yul\":21590:21595   */\n      dup3\n        /* \"#utility.yul\":21573:21596   */\n      tag_235\n      jump\t// in\n    tag_520:\n        /* \"#utility.yul\":21564:21596   */\n      swap2\n      pop\n        /* \"#utility.yul\":21618:21628   */\n      0xffffffff\n        /* \"#utility.yul\":21611:21616   */\n      dup3\n        /* \"#utility.yul\":21608:21629   */\n      eq\n        /* \"#utility.yul\":21605:21652   */\n      iszero\n      tag_521\n      jumpi\n        /* \"#utility.yul\":21632:21650   */\n      tag_522\n      tag_274\n      jump\t// in\n    tag_522:\n        /* \"#utility.yul\":21605:21652   */\n    tag_521:\n        /* \"#utility.yul\":21679:21680   */\n      0x01\n        /* \"#utility.yul\":21672:21677   */\n      dup3\n        /* \"#utility.yul\":21668:21681   */\n      add\n        /* \"#utility.yul\":21661:21681   */\n      swap1\n      pop\n        /* \"#utility.yul\":21512:21687   */\n      swap2\n      swap1\n      pop\n      jump\t// out\n        /* \"#utility.yul\":21693:21915   */\n    tag_92:\n        /* \"#utility.yul\":21786:21790   */\n      0x00\n        /* \"#utility.yul\":21824:21826   */\n      0x20\n        /* \"#utility.yul\":21813:21822   */\n      dup3\n        /* \"#utility.yul\":21809:21827   */\n      add\n        /* \"#utility.yul\":21801:21827   */\n      swap1\n      pop\n        /* \"#utility.yul\":21837:21908   */\n      tag_524\n        /* \"#utility.yul\":21905:21906   */\n      0x00\n        /* \"#utility.yul\":21894:21903   */\n      dup4\n        /* \"#utility.yul\":21890:21907   */\n      add\n        /* \"#utility.yul\":21881:21887   */\n      dup5\n        /* \"#utility.yul\":21837:21908   */\n      tag_243\n      jump\t// in\n    tag_524:\n        /* \"#utility.yul\":21693:21915   */\n      swap3\n      swap2\n      pop\n      pop\n      jump\t// out\n        /* \"#utility.yul\":21921:22101   */\n    tag_275:\n        /* \"#utility.yul\":21969:22046   */\n      0x4e487b7100000000000000000000000000000000000000000000000000000000\n        /* \"#utility.yul\":21966:21967   */\n      0x00\n        /* \"#utility.yul\":21959:22047   */\n      mstore\n        /* \"#utility.yul\":22066:22070   */\n      0x22\n        /* \"#utility.yul\":22063:22064   */\n      0x04\n        /* \"#utility.yul\":22056:22071   */\n      mstore\n        /* \"#utility.yul\":22090:22094   */\n      0x24\n        /* \"#utility.yul\":22087:22088   */\n      0x00\n        /* \"#utility.yul\":22080:22095   */\n      revert\n        /* \"#utility.yul\":22107:22427   */\n    tag_97:\n        /* \"#utility.yul\":22151:22157   */\n      0x00\n        /* \"#utility.yul\":22188:22189   */\n      0x02\n        /* \"#utility.yul\":22182:22186   */\n      dup3\n        /* \"#utility.yul\":22178:22190   */\n      div\n        /* \"#utility.yul\":22168:22190   */\n      swap1\n      pop\n        /* \"#utility.yul\":22235:22236   */\n      0x01\n        /* \"#utility.yul\":22229:22233   */\n      dup3\n        /* \"#utility.yul\":22225:22237   */\n      and\n        /* \"#utility.yul\":22256:22274   */\n      dup1\n        /* \"#utility.yul\":22246:22327   */\n      tag_527\n      jumpi\n        /* \"#utility.yul\":22312:22316   */\n      0x7f\n        /* \"#utility.yul\":22304:22310   */\n      dup3\n        /* \"#utility.yul\":22300:22317   */\n      and\n        /* \"#utility.yul\":22290:22317   */\n      swap2\n      pop\n        /* \"#utility.yul\":22246:22327   */\n    tag_527:\n        /* \"#utility.yul\":22374:22376   */\n      0x20\n        /* \"#utility.yul\":22366:22372   */\n      dup3\n        /* \"#utility.yul\":22363:22377   */\n      lt\n        /* \"#utility.yul\":22343:22361   */\n      dup2\n        /* \"#utility.yul\":22340:22378   */\n      eq\n        /* \"#utility.yul\":22337:22421   */\n      iszero\n      tag_528\n      jumpi\n        /* \"#utility.yul\":22393:22411   */\n      tag_529\n      tag_275\n      jump\t// in\n    tag_529:\n        /* \"#utility.yul\":22337:22421   */\n    tag_528:\n        /* \"#utility.yul\":22158:22427   */\n      pop\n        /* \"#utility.yul\":22107:22427   */\n      swap2\n      swap1\n      pop\n      jump\t// out\n        /* \"#utility.yul\":22433:22598   */\n    tag_276:\n        /* \"#utility.yul\":22573:22590   */\n      0x4e6f20706f6c6c20637265617465640000000000000000000000000000000000\n        /* \"#utility.yul\":22569:22570   */\n      0x00\n        /* \"#utility.yul\":22561:22567   */\n      dup3\n        /* \"#utility.yul\":22557:22571   */\n      add\n        /* \"#utility.yul\":22550:22591   */\n      mstore\n        /* \"#utility.yul\":22433:22598   */\n      pop\n      jump\t// out\n        /* \"#utility.yul\":22604:22970   */\n    tag_277:\n        /* \"#utility.yul\":22746:22749   */\n      0x00\n        /* \"#utility.yul\":22767:22834   */\n      tag_532\n        /* \"#utility.yul\":22831:22833   */\n      0x0f\n        /* \"#utility.yul\":22826:22829   */\n      dup4\n        /* \"#utility.yul\":22767:22834   */\n      tag_241\n      jump\t// in\n    tag_532:\n        /* \"#utility.yul\":22760:22834   */\n      swap2\n      pop\n        /* \"#utility.yul\":22843:22936   */\n      tag_533\n        /* \"#utility.yul\":22932:22935   */\n      dup3\n        /* \"#utility.yul\":22843:22936   */\n      tag_276\n      jump\t// in\n    tag_533:\n        /* \"#utility.yul\":22961:22963   */\n      0x20\n        /* \"#utility.yul\":22956:22959   */\n      dup3\n        /* \"#utility.yul\":22952:22964   */\n      add\n        /* \"#utility.yul\":22945:22964   */\n      swap1\n      pop\n        /* \"#utility.yul\":22604:22970   */\n      swap2\n      swap1\n      pop\n      jump\t// out\n        /* \"#utility.yul\":22976:23395   */\n    tag_118:\n        /* \"#utility.yul\":23142:23146   */\n      0x00\n        /* \"#utility.yul\":23180:23182   */\n      0x20\n        /* \"#utility.yul\":23169:23178   */\n      dup3\n        /* \"#utility.yul\":23165:23183   */\n      add\n        /* \"#utility.yul\":23157:23183   */\n      swap1\n      pop\n        /* \"#utility.yul\":23229:23238   */\n      dup2\n        /* \"#utility.yul\":23223:23227   */\n      dup2\n        /* \"#utility.yul\":23219:23239   */\n      sub\n        /* \"#utility.yul\":23215:23216   */\n      0x00\n        /* \"#utility.yul\":23204:23213   */\n      dup4\n        /* \"#utility.yul\":23200:23217   */\n      add\n        /* \"#utility.yul\":23193:23240   */\n      mstore\n        /* \"#utility.yul\":23257:23388   */\n      tag_535\n        /* \"#utility.yul\":23383:23387   */\n      dup2\n        /* \"#utility.yul\":23257:23388   */\n      tag_277\n      jump\t// in\n    tag_535:\n        /* \"#utility.yul\":23249:23388   */\n      swap1\n      pop\n        /* \"#utility.yul\":22976:23395   */\n      swap2\n      swap1\n      pop\n      jump\t// out\n        /* \"#utility.yul\":23401:23581   */\n    tag_131:\n        /* \"#utility.yul\":23449:23526   */\n      0x4e487b7100000000000000000000000000000000000000000000000000000000\n        /* \"#utility.yul\":23446:23447   */\n      0x00\n        /* \"#utility.yul\":23439:23527   */\n      mstore\n        /* \"#utility.yul\":23546:23550   */\n      0x32\n        /* \"#utility.yul\":23543:23544   */\n      0x04\n        /* \"#utility.yul\":23536:23551   */\n      mstore\n        /* \"#utility.yul\":23570:23574   */\n      0x24\n        /* \"#utility.yul\":23567:23568   */\n      0x00\n        /* \"#utility.yul\":23560:23575   */\n      revert\n        /* \"#utility.yul\":23587:23820   */\n    tag_139:\n        /* \"#utility.yul\":23626:23629   */\n      0x00\n        /* \"#utility.yul\":23649:23673   */\n      tag_538\n        /* \"#utility.yul\":23667:23672   */\n      dup3\n        /* \"#utility.yul\":23649:23673   */\n      tag_220\n      jump\t// in\n    tag_538:\n        /* \"#utility.yul\":23640:23673   */\n      swap2\n      pop\n        /* \"#utility.yul\":23695:23761   */\n      0xffffffffffffffffffffffffffffffffffffffffffffffffffffffffffffffff\n        /* \"#utility.yul\":23688:23693   */\n      dup3\n        /* \"#utility.yul\":23685:23762   */\n      eq\n        /* \"#utility.yul\":23682:23785   */\n      iszero\n      tag_539\n      jumpi\n        /* \"#utility.yul\":23765:23783   */\n      tag_540\n      tag_274\n      jump\t// in\n    tag_540:\n        /* \"#utility.yul\":23682:23785   */\n    tag_539:\n        /* \"#utility.yul\":23812:23813   */\n      0x01\n        /* \"#utility.yul\":23805:23810   */\n      dup3\n        /* \"#utility.yul\":23801:23814   */\n      add\n        /* \"#utility.yul\":23794:23814   */\n      swap1\n      pop\n        /* \"#utility.yul\":23587:23820   */\n      swap2\n      swap1\n      pop\n      jump\t// out\n        /* \"#utility.yul\":23826:23920   */\n    tag_278:\n        /* \"#utility.yul\":23859:23867   */\n      0x00\n        /* \"#utility.yul\":23907:23912   */\n      dup2\n        /* \"#utility.yul\":23903:23905   */\n      0x60\n        /* \"#utility.yul\":23899:23913   */\n      shl\n        /* \"#utility.yul\":23878:23913   */\n      swap1\n      pop\n        /* \"#utility.yul\":23826:23920   */\n      swap2\n      swap1\n      pop\n      jump\t// out\n        /* \"#utility.yul\":23926:24020   */\n    tag_279:\n        /* \"#utility.yul\":23965:23972   */\n      0x00\n        /* \"#utility.yul\":23994:24014   */\n      tag_543\n        /* \"#utility.yul\":24008:24013   */\n      dup3\n        /* \"#utility.yul\":23994:24014   */\n      tag_278\n      jump\t// in\n    tag_543:\n        /* \"#utility.yul\":23983:24014   */\n      swap1\n      pop\n        /* \"#utility.yul\":23926:24020   */\n      swap2\n      swap1\n      pop\n      jump\t// out\n        /* \"#utility.yul\":24026:24126   */\n    tag_280:\n        /* \"#utility.yul\":24065:24072   */\n      0x00\n        /* \"#utility.yul\":24094:24120   */\n      tag_545\n        /* \"#utility.yul\":24114:24119   */\n      dup3\n        /* \"#utility.yul\":24094:24120   */\n      tag_279\n      jump\t// in\n    tag_545:\n        /* \"#utility.yul\":24083:24120   */\n      swap1\n      pop\n        /* \"#utility.yul\":24026:24126   */\n      swap2\n      swap1\n      pop\n      jump\t// out\n        /* \"#utility.yul\":24132:24289   */\n    tag_281:\n        /* \"#utility.yul\":24237:24282   */\n      tag_547\n        /* \"#utility.yul\":24257:24281   */\n      tag_548\n        /* \"#utility.yul\":24275:24280   */\n      dup3\n        /* \"#utility.yul\":24257:24281   */\n      tag_217\n      jump\t// in\n    tag_548:\n        /* \"#utility.yul\":24237:24282   */\n      tag_280\n      jump\t// in\n    tag_547:\n        /* \"#utility.yul\":24232:24235   */\n      dup3\n        /* \"#utility.yul\":24225:24283   */\n      mstore\n        /* \"#utility.yul\":24132:24289   */\n      pop\n      pop\n      jump\t// out\n        /* \"#utility.yul\":24295:24443   */\n    tag_282:\n        /* \"#utility.yul\":24397:24408   */\n      0x00\n        /* \"#utility.yul\":24434:24437   */\n      dup2\n        /* \"#utility.yul\":24419:24437   */\n      swap1\n      pop\n        /* \"#utility.yul\":24295:24443   */\n      swap3\n      swap2\n      pop\n      pop\n      jump\t// out\n        /* \"#utility.yul\":24449:24622   */\n    tag_283:\n        /* \"#utility.yul\":24589:24614   */\n      0x6d6574617472616e73616374696f6e20566f74696e6720000000000000000000\n        /* \"#utility.yul\":24585:24586   */\n      0x00\n        /* \"#utility.yul\":24577:24583   */\n      dup3\n        /* \"#utility.yul\":24573:24587   */\n      add\n        /* \"#utility.yul\":24566:24615   */\n      mstore\n        /* \"#utility.yul\":24449:24622   */\n      pop\n      jump\t// out\n        /* \"#utility.yul\":24628:25030   */\n    tag_284:\n        /* \"#utility.yul\":24788:24791   */\n      0x00\n        /* \"#utility.yul\":24809:24894   */\n      tag_552\n        /* \"#utility.yul\":24891:24893   */\n      0x17\n        /* \"#utility.yul\":24886:24889   */\n      dup4\n        /* \"#utility.yul\":24809:24894   */\n      tag_282\n      jump\t// in\n    tag_552:\n        /* \"#utility.yul\":24802:24894   */\n      swap2\n      pop\n        /* \"#utility.yul\":24903:24996   */\n      tag_553\n        /* \"#utility.yul\":24992:24995   */\n      dup3\n        /* \"#utility.yul\":24903:24996   */\n      tag_283\n      jump\t// in\n    tag_553:\n        /* \"#utility.yul\":25021:25023   */\n      0x17\n        /* \"#utility.yul\":25016:25019   */\n      dup3\n        /* \"#utility.yul\":25012:25024   */\n      add\n        /* \"#utility.yul\":25005:25024   */\n      swap1\n      pop\n        /* \"#utility.yul\":24628:25030   */\n      swap2\n      swap1\n      pop\n      jump\t// out\n        /* \"#utility.yul\":25036:25115   */\n    tag_285:\n        /* \"#utility.yul\":25075:25082   */\n      0x00\n        /* \"#utility.yul\":25104:25109   */\n      dup2\n        /* \"#utility.yul\":25093:25109   */\n      swap1\n      pop\n        /* \"#utility.yul\":25036:25115   */\n      swap2\n      swap1\n      pop\n      jump\t// out\n        /* \"#utility.yul\":25121:25278   */\n    tag_286:\n        /* \"#utility.yul\":25226:25271   */\n      tag_556\n        /* \"#utility.yul\":25246:25270   */\n      tag_557\n        /* \"#utility.yul\":25264:25269   */\n      dup3\n        /* \"#utility.yul\":25246:25270   */\n      tag_220\n      jump\t// in\n    tag_557:\n        /* \"#utility.yul\":25226:25271   */\n      tag_285\n      jump\t// in\n    tag_556:\n        /* \"#utility.yul\":25221:25224   */\n      dup3\n        /* \"#utility.yul\":25214:25272   */\n      mstore\n        /* \"#utility.yul\":25121:25278   */\n      pop\n      pop\n      jump\t// out\n        /* \"#utility.yul\":25284:26370   */\n    tag_144:\n        /* \"#utility.yul\":25609:25612   */\n      0x00\n        /* \"#utility.yul\":25624:25699   */\n      tag_559\n        /* \"#utility.yul\":25695:25698   */\n      dup3\n        /* \"#utility.yul\":25686:25692   */\n      dup9\n        /* \"#utility.yul\":25624:25699   */\n      tag_281\n      jump\t// in\n    tag_559:\n        /* \"#utility.yul\":25724:25726   */\n      0x14\n        /* \"#utility.yul\":25719:25722   */\n      dup3\n        /* \"#utility.yul\":25715:25727   */\n      add\n        /* \"#utility.yul\":25708:25727   */\n      swap2\n      pop\n        /* \"#utility.yul\":25744:25892   */\n      tag_560\n        /* \"#utility.yul\":25888:25891   */\n      dup3\n        /* \"#utility.yul\":25744:25892   */\n      tag_284\n      jump\t// in\n    tag_560:\n        /* \"#utility.yul\":25737:25892   */\n      swap2\n      pop\n        /* \"#utility.yul\":25902:25977   */\n      tag_561\n        /* \"#utility.yul\":25973:25976   */\n      dup3\n        /* \"#utility.yul\":25964:25970   */\n      dup8\n        /* \"#utility.yul\":25902:25977   */\n      tag_281\n      jump\t// in\n    tag_561:\n        /* \"#utility.yul\":26002:26004   */\n      0x14\n        /* \"#utility.yul\":25997:26000   */\n      dup3\n        /* \"#utility.yul\":25993:26005   */\n      add\n        /* \"#utility.yul\":25986:26005   */\n      swap2\n      pop\n        /* \"#utility.yul\":26015:26090   */\n      tag_562\n        /* \"#utility.yul\":26086:26089   */\n      dup3\n        /* \"#utility.yul\":26077:26083   */\n      dup7\n        /* \"#utility.yul\":26015:26090   */\n      tag_286\n      jump\t// in\n    tag_562:\n        /* \"#utility.yul\":26115:26117   */\n      0x20\n        /* \"#utility.yul\":26110:26113   */\n      dup3\n        /* \"#utility.yul\":26106:26118   */\n      add\n        /* \"#utility.yul\":26099:26118   */\n      swap2\n      pop\n        /* \"#utility.yul\":26128:26203   */\n      tag_563\n        /* \"#utility.yul\":26199:26202   */\n      dup3\n        /* \"#utility.yul\":26190:26196   */\n      dup6\n        /* \"#utility.yul\":26128:26203   */\n      tag_286\n      jump\t// in\n    tag_563:\n        /* \"#utility.yul\":26228:26230   */\n      0x20\n        /* \"#utility.yul\":26223:26226   */\n      dup3\n        /* \"#utility.yul\":26219:26231   */\n      add\n        /* \"#utility.yul\":26212:26231   */\n      swap2\n      pop\n        /* \"#utility.yul\":26241:26316   */\n      tag_564\n        /* \"#utility.yul\":26312:26315   */\n      dup3\n        /* \"#utility.yul\":26303:26309   */\n      dup5\n        /* \"#utility.yul\":26241:26316   */\n      tag_286\n      jump\t// in\n    tag_564:\n        /* \"#utility.yul\":26341:26343   */\n      0x20\n        /* \"#utility.yul\":26336:26339   */\n      dup3\n        /* \"#utility.yul\":26332:26344   */\n      add\n        /* \"#utility.yul\":26325:26344   */\n      swap2\n      pop\n        /* \"#utility.yul\":26361:26364   */\n      dup2\n        /* \"#utility.yul\":26354:26364   */\n      swap1\n      pop\n        /* \"#utility.yul\":25284:26370   */\n      swap7\n      swap6\n      pop\n      pop\n      pop\n      pop\n      pop\n      pop\n      jump\t// out\n        /* \"#utility.yul\":26376:26605   */\n    tag_287:\n        /* \"#utility.yul\":26516:26550   */\n      0x54686973206164647265737320646f6573206e6f742065786973742061732061\n        /* \"#utility.yul\":26512:26513   */\n      0x00\n        /* \"#utility.yul\":26504:26510   */\n      dup3\n        /* \"#utility.yul\":26500:26514   */\n      add\n        /* \"#utility.yul\":26493:26551   */\n      mstore\n        /* \"#utility.yul\":26585:26597   */\n      0x2063616e64696461746500000000000000000000000000000000000000000000\n        /* \"#utility.yul\":26580:26582   */\n      0x20\n        /* \"#utility.yul\":26572:26578   */\n      dup3\n        /* \"#utility.yul\":26568:26583   */\n      add\n        /* \"#utility.yul\":26561:26598   */\n      mstore\n        /* \"#utility.yul\":26376:26605   */\n      pop\n      jump\t// out\n        /* \"#utility.yul\":26611:26977   */\n    tag_288:\n        /* \"#utility.yul\":26753:26756   */\n      0x00\n        /* \"#utility.yul\":26774:26841   */\n      tag_567\n        /* \"#utility.yul\":26838:26840   */\n      0x2a\n        /* \"#utility.yul\":26833:26836   */\n      dup4\n        /* \"#utility.yul\":26774:26841   */\n      tag_241\n      jump\t// in\n    tag_567:\n        /* \"#utility.yul\":26767:26841   */\n      swap2\n      pop\n        /* \"#utility.yul\":26850:26943   */\n      tag_568\n        /* \"#utility.yul\":26939:26942   */\n      dup3\n        /* \"#utility.yul\":26850:26943   */\n      tag_287\n      jump\t// in\n    tag_568:\n        /* \"#utility.yul\":26968:26970   */\n      0x40\n        /* \"#utility.yul\":26963:26966   */\n      dup3\n        /* \"#utility.yul\":26959:26971   */\n      add\n        /* \"#utility.yul\":26952:26971   */\n      swap1\n      pop\n        /* \"#utility.yul\":26611:26977   */\n      swap2\n      swap1\n      pop\n      jump\t// out\n        /* \"#utility.yul\":26983:27402   */\n    tag_148:\n        /* \"#utility.yul\":27149:27153   */\n      0x00\n        /* \"#utility.yul\":27187:27189   */\n      0x20\n        /* \"#utility.yul\":27176:27185   */\n      dup3\n        /* \"#utility.yul\":27172:27190   */\n      add\n        /* \"#utility.yul\":27164:27190   */\n      swap1\n      pop\n        /* \"#utility.yul\":27236:27245   */\n      dup2\n        /* \"#utility.yul\":27230:27234   */\n      dup2\n        /* \"#utility.yul\":27226:27246   */\n      sub\n        /* \"#utility.yul\":27222:27223   */\n      0x00\n        /* \"#utility.yul\":27211:27220   */\n      dup4\n        /* \"#utility.yul\":27207:27224   */\n      add\n        /* \"#utility.yul\":27200:27247   */\n      mstore\n        /* \"#utility.yul\":27264:27395   */\n      tag_570\n        /* \"#utility.yul\":27390:27394   */\n      dup2\n        /* \"#utility.yul\":27264:27395   */\n      tag_288\n      jump\t// in\n    tag_570:\n        /* \"#utility.yul\":27256:27395   */\n      swap1\n      pop\n        /* \"#utility.yul\":26983:27402   */\n      swap2\n      swap1\n      pop\n      jump\t// out\n        /* \"#utility.yul\":27408:27574   */\n    tag_289:\n        /* \"#utility.yul\":27548:27566   */\n      0x766f74696e672068617320656e64656400000000000000000000000000000000\n        /* \"#utility.yul\":27544:27545   */\n      0x00\n        /* \"#utility.yul\":27536:27542   */\n      dup3\n        /* \"#utility.yul\":27532:27546   */\n      add\n        /* \"#utility.yul\":27525:27567   */\n      mstore\n        /* \"#utility.yul\":27408:27574   */\n      pop\n      jump\t// out\n        /* \"#utility.yul\":27580:27946   */\n    tag_290:\n        /* \"#utility.yul\":27722:27725   */\n      0x00\n        /* \"#utility.yul\":27743:27810   */\n      tag_573\n        /* \"#utility.yul\":27807:27809   */\n      0x10\n        /* \"#utility.yul\":27802:27805   */\n      dup4\n        /* \"#utility.yul\":27743:27810   */\n      tag_241\n      jump\t// in\n    tag_573:\n        /* \"#utility.yul\":27736:27810   */\n      swap2\n      pop\n        /* \"#utility.yul\":27819:27912   */\n      tag_574\n        /* \"#utility.yul\":27908:27911   */\n      dup3\n        /* \"#utility.yul\":27819:27912   */\n      tag_289\n      jump\t// in\n    tag_574:\n        /* \"#utility.yul\":27937:27939   */\n      0x20\n        /* \"#utility.yul\":27932:27935   */\n      dup3\n        /* \"#utility.yul\":27928:27940   */\n      add\n        /* \"#utility.yul\":27921:27940   */\n      swap1\n      pop\n        /* \"#utility.yul\":27580:27946   */\n      swap2\n      swap1\n      pop\n      jump\t// out\n        /* \"#utility.yul\":27952:28371   */\n    tag_152:\n        /* \"#utility.yul\":28118:28122   */\n      0x00\n        /* \"#utility.yul\":28156:28158   */\n      0x20\n        /* \"#utility.yul\":28145:28154   */\n      dup3\n        /* \"#utility.yul\":28141:28159   */\n      add\n        /* \"#utility.yul\":28133:28159   */\n      swap1\n      pop\n        /* \"#utility.yul\":28205:28214   */\n      dup2\n        /* \"#utility.yul\":28199:28203   */\n      dup2\n        /* \"#utility.yul\":28195:28215   */\n      sub\n        /* \"#utility.yul\":28191:28192   */\n      0x00\n        /* \"#utility.yul\":28180:28189   */\n      dup4\n        /* \"#utility.yul\":28176:28193   */\n      add\n        /* \"#utility.yul\":28169:28216   */\n      mstore\n        /* \"#utility.yul\":28233:28364   */\n      tag_576\n        /* \"#utility.yul\":28359:28363   */\n      dup2\n        /* \"#utility.yul\":28233:28364   */\n      tag_290\n      jump\t// in\n    tag_576:\n        /* \"#utility.yul\":28225:28364   */\n      swap1\n      pop\n        /* \"#utility.yul\":27952:28371   */\n      swap2\n      swap1\n      pop\n      jump\t// out\n        /* \"#utility.yul\":28377:28544   */\n    tag_291:\n        /* \"#utility.yul\":28517:28536   */\n      0x596f7520616c726561647920766f746564000000000000000000000000000000\n        /* \"#utility.yul\":28513:28514   */\n      0x00\n        /* \"#utility.yul\":28505:28511   */\n      dup3\n        /* \"#utility.yul\":28501:28515   */\n      add\n        /* \"#utility.yul\":28494:28537   */\n      mstore\n        /* \"#utility.yul\":28377:28544   */\n      pop\n      jump\t// out\n        /* \"#utility.yul\":28550:28916   */\n    tag_292:\n        /* \"#utility.yul\":28692:28695   */\n      0x00\n        /* \"#utility.yul\":28713:28780   */\n      tag_579\n        /* \"#utility.yul\":28777:28779   */\n      0x11\n        /* \"#utility.yul\":28772:28775   */\n      dup4\n        /* \"#utility.yul\":28713:28780   */\n      tag_241\n      jump\t// in\n    tag_579:\n        /* \"#utility.yul\":28706:28780   */\n      swap2\n      pop\n        /* \"#utility.yul\":28789:28882   */\n      tag_580\n        /* \"#utility.yul\":28878:28881   */\n      dup3\n        /* \"#utility.yul\":28789:28882   */\n      tag_291\n      jump\t// in\n    tag_580:\n        /* \"#utility.yul\":28907:28909   */\n      0x20\n        /* \"#utility.yul\":28902:28905   */\n      dup3\n        /* \"#utility.yul\":28898:28910   */\n      add\n        /* \"#utility.yul\":28891:28910   */\n      swap1\n      pop\n        /* \"#utility.yul\":28550:28916   */\n      swap2\n      swap1\n      pop\n      jump\t// out\n        /* \"#utility.yul\":28922:29341   */\n    tag_162:\n        /* \"#utility.yul\":29088:29092   */\n      0x00\n        /* \"#utility.yul\":29126:29128   */\n      0x20\n        /* \"#utility.yul\":29115:29124   */\n      dup3\n        /* \"#utility.yul\":29111:29129   */\n      add\n        /* \"#utility.yul\":29103:29129   */\n      swap1\n      pop\n        /* \"#utility.yul\":29175:29184   */\n      dup2\n        /* \"#utility.yul\":29169:29173   */\n      dup2\n        /* \"#utility.yul\":29165:29185   */\n      sub\n        /* \"#utility.yul\":29161:29162   */\n      0x00\n        /* \"#utility.yul\":29150:29159   */\n      dup4\n        /* \"#utility.yul\":29146:29163   */\n      add\n        /* \"#utility.yul\":29139:29186   */\n      mstore\n        /* \"#utility.yul\":29203:29334   */\n      tag_582\n        /* \"#utility.yul\":29329:29333   */\n      dup2\n        /* \"#utility.yul\":29203:29334   */\n      tag_292\n      jump\t// in\n    tag_582:\n        /* \"#utility.yul\":29195:29334   */\n      swap1\n      pop\n        /* \"#utility.yul\":28922:29341   */\n      swap2\n      swap1\n      pop\n      jump\t// out\n        /* \"#utility.yul\":29347:29667   */\n    tag_166:\n        /* \"#utility.yul\":29462:29466   */\n      0x00\n        /* \"#utility.yul\":29500:29502   */\n      0x40\n        /* \"#utility.yul\":29489:29498   */\n      dup3\n        /* \"#utility.yul\":29485:29503   */\n      add\n        /* \"#utility.yul\":29477:29503   */\n      swap1\n      pop\n        /* \"#utility.yul\":29513:29584   */\n      tag_584\n        /* \"#utility.yul\":29581:29582   */\n      0x00\n        /* \"#utility.yul\":29570:29579   */\n      dup4\n        /* \"#utility.yul\":29566:29583   */\n      add\n        /* \"#utility.yul\":29557:29563   */\n      dup6\n        /* \"#utility.yul\":29513:29584   */\n      tag_243\n      jump\t// in\n    tag_584:\n        /* \"#utility.yul\":29594:29660   */\n      tag_585\n        /* \"#utility.yul\":29656:29658   */\n      0x20\n        /* \"#utility.yul\":29645:29654   */\n      dup4\n        /* \"#utility.yul\":29641:29659   */\n      add\n        /* \"#utility.yul\":29632:29638   */\n      dup5\n        /* \"#utility.yul\":29594:29660   */\n      tag_245\n      jump\t// in\n    tag_585:\n        /* \"#utility.yul\":29347:29667   */\n      swap4\n      swap3\n      pop\n      pop\n      pop\n      jump\t// out\n        /* \"#utility.yul\":29673:29839   */\n    tag_293:\n        /* \"#utility.yul\":29813:29831   */\n      0x6e6f74207468652063686169726d616e00000000000000000000000000000000\n        /* \"#utility.yul\":29809:29810   */\n      0x00\n        /* \"#utility.yul\":29801:29807   */\n      dup3\n        /* \"#utility.yul\":29797:29811   */\n      add\n        /* \"#utility.yul\":29790:29832   */\n      mstore\n        /* \"#utility.yul\":29673:29839   */\n      pop\n      jump\t// out\n        /* \"#utility.yul\":29845:30211   */\n    tag_294:\n        /* \"#utility.yul\":29987:29990   */\n      0x00\n        /* \"#utility.yul\":30008:30075   */\n      tag_588\n        /* \"#utility.yul\":30072:30074   */\n      0x10\n        /* \"#utility.yul\":30067:30070   */\n      dup4\n        /* \"#utility.yul\":30008:30075   */\n      tag_241\n      jump\t// in\n    tag_588:\n        /* \"#utility.yul\":30001:30075   */\n      swap2\n      pop\n        /* \"#utility.yul\":30084:30177   */\n      tag_589\n        /* \"#utility.yul\":30173:30176   */\n      dup3\n        /* \"#utility.yul\":30084:30177   */\n      tag_293\n      jump\t// in\n    tag_589:\n        /* \"#utility.yul\":30202:30204   */\n      0x20\n        /* \"#utility.yul\":30197:30200   */\n      dup3\n        /* \"#utility.yul\":30193:30205   */\n      add\n        /* \"#utility.yul\":30186:30205   */\n      swap1\n      pop\n        /* \"#utility.yul\":29845:30211   */\n      swap2\n      swap1\n      pop\n      jump\t// out\n        /* \"#utility.yul\":30217:30636   */\n    tag_170:\n        /* \"#utility.yul\":30383:30387   */\n      0x00\n        /* \"#utility.yul\":30421:30423   */\n      0x20\n        /* \"#utility.yul\":30410:30419   */\n      dup3\n        /* \"#utility.yul\":30406:30424   */\n      add\n        /* \"#utility.yul\":30398:30424   */\n      swap1\n      pop\n        /* \"#utility.yul\":30470:30479   */\n      dup2\n        /* \"#utility.yul\":30464:30468   */\n      dup2\n        /* \"#utility.yul\":30460:30480   */\n      sub\n        /* \"#utility.yul\":30456:30457   */\n      0x00\n        /* \"#utility.yul\":30445:30454   */\n      dup4\n        /* \"#utility.yul\":30441:30458   */\n      add\n        /* \"#utility.yul\":30434:30481   */\n      mstore\n        /* \"#utility.yul\":30498:30629   */\n      tag_591\n        /* \"#utility.yul\":30624:30628   */\n      dup2\n        /* \"#utility.yul\":30498:30629   */\n      tag_294\n      jump\t// in\n    tag_591:\n        /* \"#utility.yul\":30490:30629   */\n      swap1\n      pop\n        /* \"#utility.yul\":30217:30636   */\n      swap2\n      swap1\n      pop\n      jump\t// out\n        /* \"#utility.yul\":30642:31019   */\n    tag_295:\n        /* \"#utility.yul\":30748:30751   */\n      0x00\n        /* \"#utility.yul\":30776:30815   */\n      tag_593\n        /* \"#utility.yul\":30809:30814   */\n      dup3\n        /* \"#utility.yul\":30776:30815   */\n      tag_223\n      jump\t// in\n    tag_593:\n        /* \"#utility.yul\":30831:30920   */\n      tag_594\n        /* \"#utility.yul\":30913:30919   */\n      dup2\n        /* \"#utility.yul\":30908:30911   */\n      dup6\n        /* \"#utility.yul\":30831:30920   */\n      tag_282\n      jump\t// in\n    tag_594:\n        /* \"#utility.yul\":30824:30920   */\n      swap4\n      pop\n        /* \"#utility.yul\":30929:30981   */\n      tag_595\n        /* \"#utility.yul\":30974:30980   */\n      dup2\n        /* \"#utility.yul\":30969:30972   */\n      dup6\n        /* \"#utility.yul\":30962:30966   */\n      0x20\n        /* \"#utility.yul\":30955:30960   */\n      dup7\n        /* \"#utility.yul\":30951:30967   */\n      add\n        /* \"#utility.yul\":30929:30981   */\n      tag_225\n      jump\t// in\n    tag_595:\n        /* \"#utility.yul\":31006:31012   */\n      dup1\n        /* \"#utility.yul\":31001:31004   */\n      dup5\n        /* \"#utility.yul\":30997:31013   */\n      add\n        /* \"#utility.yul\":30990:31013   */\n      swap2\n      pop\n        /* \"#utility.yul\":30752:31019   */\n      pop\n        /* \"#utility.yul\":30642:31019   */\n      swap3\n      swap2\n      pop\n      pop\n      jump\t// out\n        /* \"#utility.yul\":31025:31300   */\n    tag_181:\n        /* \"#utility.yul\":31157:31160   */\n      0x00\n        /* \"#utility.yul\":31179:31274   */\n      tag_597\n        /* \"#utility.yul\":31270:31273   */\n      dup3\n        /* \"#utility.yul\":31261:31267   */\n      dup5\n        /* \"#utility.yul\":31179:31274   */\n      tag_295\n      jump\t// in\n    tag_597:\n        /* \"#utility.yul\":31172:31274   */\n      swap2\n      pop\n        /* \"#utility.yul\":31291:31294   */\n      dup2\n        /* \"#utility.yul\":31284:31294   */\n      swap1\n      pop\n        /* \"#utility.yul\":31025:31300   */\n      swap3\n      swap2\n      pop\n      pop\n      jump\t// out\n        /* \"#utility.yul\":31306:31392   */\n    tag_296:\n        /* \"#utility.yul\":31341:31348   */\n      0x00\n        /* \"#utility.yul\":31381:31385   */\n      0xff\n        /* \"#utility.yul\":31374:31379   */\n      dup3\n        /* \"#utility.yul\":31370:31386   */\n      and\n        /* \"#utility.yul\":31359:31386   */\n      swap1\n      pop\n        /* \"#utility.yul\":31306:31392   */\n      swap2\n      swap1\n      pop\n      jump\t// out\n        /* \"#utility.yul\":31398:31635   */\n    tag_191:\n        /* \"#utility.yul\":31436:31439   */\n      0x00\n        /* \"#utility.yul\":31455:31473   */\n      tag_600\n        /* \"#utility.yul\":31471:31472   */\n      dup3\n        /* \"#utility.yul\":31455:31473   */\n      tag_296\n      jump\t// in\n    tag_600:\n        /* \"#utility.yul\":31450:31473   */\n      swap2\n      pop\n        /* \"#utility.yul\":31487:31505   */\n      tag_601\n        /* \"#utility.yul\":31503:31504   */\n      dup4\n        /* \"#utility.yul\":31487:31505   */\n      tag_296\n      jump\t// in\n    tag_601:\n        /* \"#utility.yul\":31482:31505   */\n      swap3\n      pop\n        /* \"#utility.yul\":31577:31578   */\n      dup3\n        /* \"#utility.yul\":31571:31575   */\n      0xff\n        /* \"#utility.yul\":31567:31579   */\n      sub\n        /* \"#utility.yul\":31564:31565   */\n      dup3\n        /* \"#utility.yul\":31561:31580   */\n      gt\n        /* \"#utility.yul\":31558:31603   */\n      iszero\n      tag_602\n      jumpi\n        /* \"#utility.yul\":31583:31601   */\n      tag_603\n      tag_274\n      jump\t// in\n    tag_603:\n        /* \"#utility.yul\":31558:31603   */\n    tag_602:\n        /* \"#utility.yul\":31627:31628   */\n      dup3\n        /* \"#utility.yul\":31624:31625   */\n      dup3\n        /* \"#utility.yul\":31620:31629   */\n      add\n        /* \"#utility.yul\":31613:31629   */\n      swap1\n      pop\n        /* \"#utility.yul\":31398:31635   */\n      swap3\n      swap2\n      pop\n      pop\n      jump\t// out\n        /* \"#utility.yul\":31641:31855   */\n    tag_297:\n        /* \"#utility.yul\":31781:31847   */\n      0x19457468657265756d205369676e6564204d6573736167653a0a333200000000\n        /* \"#utility.yul\":31777:31778   */\n      0x00\n        /* \"#utility.yul\":31769:31775   */\n      dup3\n        /* \"#utility.yul\":31765:31779   */\n      add\n        /* \"#utility.yul\":31758:31848   */\n      mstore\n        /* \"#utility.yul\":31641:31855   */\n      pop\n      jump\t// out\n        /* \"#utility.yul\":31861:32263   */\n    tag_298:\n        /* \"#utility.yul\":32021:32024   */\n      0x00\n        /* \"#utility.yul\":32042:32127   */\n      tag_606\n        /* \"#utility.yul\":32124:32126   */\n      0x1c\n        /* \"#utility.yul\":32119:32122   */\n      dup4\n        /* \"#utility.yul\":32042:32127   */\n      tag_282\n      jump\t// in\n    tag_606:\n        /* \"#utility.yul\":32035:32127   */\n      swap2\n      pop\n        /* \"#utility.yul\":32136:32229   */\n      tag_607\n        /* \"#utility.yul\":32225:32228   */\n      dup3\n        /* \"#utility.yul\":32136:32229   */\n      tag_297\n      jump\t// in\n    tag_607:\n        /* \"#utility.yul\":32254:32256   */\n      0x1c\n        /* \"#utility.yul\":32249:32252   */\n      dup3\n        /* \"#utility.yul\":32245:32257   */\n      add\n        /* \"#utility.yul\":32238:32257   */\n      swap1\n      pop\n        /* \"#utility.yul\":31861:32263   */\n      swap2\n      swap1\n      pop\n      jump\t// out\n        /* \"#utility.yul\":32269:32348   */\n    tag_299:\n        /* \"#utility.yul\":32308:32315   */\n      0x00\n        /* \"#utility.yul\":32337:32342   */\n      dup2\n        /* \"#utility.yul\":32326:32342   */\n      swap1\n      pop\n        /* \"#utility.yul\":32269:32348   */\n      swap2\n      swap1\n      pop\n      jump\t// out\n        /* \"#utility.yul\":32354:32511   */\n    tag_300:\n        /* \"#utility.yul\":32459:32504   */\n      tag_610\n        /* \"#utility.yul\":32479:32503   */\n      tag_611\n        /* \"#utility.yul\":32497:32502   */\n      dup3\n        /* \"#utility.yul\":32479:32503   */\n      tag_255\n      jump\t// in\n    tag_611:\n        /* \"#utility.yul\":32459:32504   */\n      tag_299\n      jump\t// in\n    tag_610:\n        /* \"#utility.yul\":32454:32457   */\n      dup3\n        /* \"#utility.yul\":32447:32505   */\n      mstore\n        /* \"#utility.yul\":32354:32511   */\n      pop\n      pop\n      jump\t// out\n        /* \"#utility.yul\":32517:33039   */\n    tag_196:\n        /* \"#utility.yul\":32730:32733   */\n      0x00\n        /* \"#utility.yul\":32752:32900   */\n      tag_613\n        /* \"#utility.yul\":32896:32899   */\n      dup3\n        /* \"#utility.yul\":32752:32900   */\n      tag_298\n      jump\t// in\n    tag_613:\n        /* \"#utility.yul\":32745:32900   */\n      swap2\n      pop\n        /* \"#utility.yul\":32910:32985   */\n      tag_614\n        /* \"#utility.yul\":32981:32984   */\n      dup3\n        /* \"#utility.yul\":32972:32978   */\n      dup5\n        /* \"#utility.yul\":32910:32985   */\n      tag_300\n      jump\t// in\n    tag_614:\n        /* \"#utility.yul\":33010:33012   */\n      0x20\n        /* \"#utility.yul\":33005:33008   */\n      dup3\n        /* \"#utility.yul\":33001:33013   */\n      add\n        /* \"#utility.yul\":32994:33013   */\n      swap2\n      pop\n        /* \"#utility.yul\":33030:33033   */\n      dup2\n        /* \"#utility.yul\":33023:33033   */\n      swap1\n      pop\n        /* \"#utility.yul\":32517:33039   */\n      swap3\n      swap2\n      pop\n      pop\n      jump\t// out\n        /* \"#utility.yul\":33045:33157   */\n    tag_301:\n        /* \"#utility.yul\":33128:33150   */\n      tag_616\n        /* \"#utility.yul\":33144:33149   */\n      dup2\n        /* \"#utility.yul\":33128:33150   */\n      tag_296\n      jump\t// in\n    tag_616:\n        /* \"#utility.yul\":33123:33126   */\n      dup3\n        /* \"#utility.yul\":33116:33151   */\n      mstore\n        /* \"#utility.yul\":33045:33157   */\n      pop\n      pop\n      jump\t// out\n        /* \"#utility.yul\":33163:33708   */\n    tag_198:\n        /* \"#utility.yul\":33336:33340   */\n      0x00\n        /* \"#utility.yul\":33374:33377   */\n      0x80\n        /* \"#utility.yul\":33363:33372   */\n      dup3\n        /* \"#utility.yul\":33359:33378   */\n      add\n        /* \"#utility.yul\":33351:33378   */\n      swap1\n      pop\n        /* \"#utility.yul\":33388:33459   */\n      tag_618\n        /* \"#utility.yul\":33456:33457   */\n      0x00\n        /* \"#utility.yul\":33445:33454   */\n      dup4\n        /* \"#utility.yul\":33441:33458   */\n      add\n        /* \"#utility.yul\":33432:33438   */\n      dup8\n        /* \"#utility.yul\":33388:33459   */\n      tag_256\n      jump\t// in\n    tag_618:\n        /* \"#utility.yul\":33469:33537   */\n      tag_619\n        /* \"#utility.yul\":33533:33535   */\n      0x20\n        /* \"#utility.yul\":33522:33531   */\n      dup4\n        /* \"#utility.yul\":33518:33536   */\n      add\n        /* \"#utility.yul\":33509:33515   */\n      dup7\n        /* \"#utility.yul\":33469:33537   */\n      tag_301\n      jump\t// in\n    tag_619:\n        /* \"#utility.yul\":33547:33619   */\n      tag_620\n        /* \"#utility.yul\":33615:33617   */\n      0x40\n        /* \"#utility.yul\":33604:33613   */\n      dup4\n        /* \"#utility.yul\":33600:33618   */\n      add\n        /* \"#utility.yul\":33591:33597   */\n      dup6\n        /* \"#utility.yul\":33547:33619   */\n      tag_256\n      jump\t// in\n    tag_620:\n        /* \"#utility.yul\":33629:33701   */\n      tag_621\n        /* \"#utility.yul\":33697:33699   */\n      0x60\n        /* \"#utility.yul\":33686:33695   */\n      dup4\n        /* \"#utility.yul\":33682:33700   */\n      add\n        /* \"#utility.yul\":33673:33679   */\n      dup5\n        /* \"#utility.yul\":33629:33701   */\n      tag_256\n      jump\t// in\n    tag_621:\n        /* \"#utility.yul\":33163:33708   */\n      swap6\n      swap5\n      pop\n      pop\n      pop\n      pop\n      pop\n      jump\t// out\n\n    auxdata: 0xa2646970667358221220caf159f5f4fc8ed27a9f0f7bb4587664f591c273d9967d0078b8e38bec4831c964736f6c634300080a0033\n}\n",
				"bytecode": {
					"linkReferences": {},
					"object": "6080604052600160005534801561001557600080fd5b50612818806100256000396000f3fe608060405234801561001057600080fd5b50600436106100cf5760003560e01c80638ccb59e81161008c578063c10d6cec11610066578063c10d6cec14610276578063c57003cc14610292578063e615f104146102ae578063f762f4c0146102e2576100cf565b80638ccb59e8146101e4578063ae928e3e14610216578063bfe2e25d14610246576100cf565b8063049d1c8b146100d4578063278e2c90146100f057806366c5343b1461012057806367d407df146101505780638321f397146101805780638ac3c3c2146101b4575b600080fd5b6100ee60048036038101906100e9919061177c565b6102fe565b005b61010a600480360381019061010591906117bc565b6105cc565b6040516101179190611a0a565b60405180910390f35b61013a600480360381019061013591906117bc565b6107d6565b6040516101479190611a3b565b60405180910390f35b61016a60048036038101906101659190611a56565b610811565b6040516101779190611a3b565b60405180910390f35b61019a600480360381019061019591906117bc565b610829565b6040516101ab959493929190611afa565b60405180910390f35b6101ce60048036038101906101c991906117bc565b610944565b6040516101db9190611bc3565b60405180910390f35b6101fe60048036038101906101f991906117bc565b6109ee565b60405161020d93929190611ca3565b60405180910390f35b610230600480360381019061022b91906117bc565b610c3a565b60405161023d9190611a3b565b60405180910390f35b610260600480360381019061025b9190611ce1565b610c5e565b60405161026d9190611d61565b60405180910390f35b610290600480360381019061028b9190611eb1565b610c99565b005b6102ac60048036038101906102a791906117bc565b610f9d565b005b6102c860048036038101906102c391906117bc565b6110b8565b6040516102d9959493929190611afa565b60405180910390f35b6102fc60048036038101906102f79190612001565b6111c3565b005b6000600360008381526020019081526020016000209050600073ffffffffffffffffffffffffffffffffffffffff168160010160009054906101000a900473ffffffffffffffffffffffffffffffffffffffff1673ffffffffffffffffffffffffffffffffffffffff1614156103a9576040517f08c379a00000000000000000000000000000000000000000000000000000000081526004016103a0906120a9565b60405180910390fd5b3373ffffffffffffffffffffffffffffffffffffffff168160010160009054906101000a900473ffffffffffffffffffffffffffffffffffffffff1673ffffffffffffffffffffffffffffffffffffffff1614610409576104086120c9565b5b8060030160009054906101000a900463ffffffff1663ffffffff168160030160049054906101000a900463ffffffff1663ffffffff161061047f576040517f08c379a00000000000000000000000000000000000000000000000000000000081526004016104769061216a565b60405180910390fd5b60016005600084815260200190815260200160002060008573ffffffffffffffffffffffffffffffffffffffff1673ffffffffffffffffffffffffffffffffffffffff16815260200190815260200160002060006101000a81548160ff02191690831515021790555080600201839080600181540180825580915050600190039060005260206000200160009091909190916101000a81548173ffffffffffffffffffffffffffffffffffffffff021916908373ffffffffffffffffffffffffffffffffffffffff16021790555080600301600481819054906101000a900463ffffffff1680929190610571906121b9565b91906101000a81548163ffffffff021916908363ffffffff160217905550507fc19c59aa93348e8fc54764bc642eca975e2639f44cc683ef8f027e1529cbda32836040516105bf91906121e6565b60405180910390a1505050565b6105d46115d7565b600360008381526020019081526020016000206040518060c001604052908160008201805461060290612230565b80601f016020809104026020016040519081016040528092919081815260200182805461062e90612230565b801561067b5780601f106106505761010080835404028352916020019161067b565b820191906000526020600020905b81548152906001019060200180831161065e57829003601f168201915b505050505081526020016001820160009054906101000a900473ffffffffffffffffffffffffffffffffffffffff1673ffffffffffffffffffffffffffffffffffffffff1673ffffffffffffffffffffffffffffffffffffffff1681526020016002820180548060200260200160405190810160405280929190818152602001828054801561075f57602002820191906000526020600020905b8160009054906101000a900473ffffffffffffffffffffffffffffffffffffffff1673ffffffffffffffffffffffffffffffffffffffff1681526020019060010190808311610715575b505050505081526020016003820160009054906101000a900463ffffffff1663ffffffff1663ffffffff1681526020016003820160049054906101000a900463ffffffff1663ffffffff1663ffffffff1681526020016003820160089054906101000a900460ff1615151515815250509050919050565b6000806003600084815260200190815260200160002090508060030160049054906101000a900463ffffffff1663ffffffff16915050919050565b60046020528060005260406000206000915090505481565b6002818154811061083957600080fd5b906000526020600020906004020160009150905080600001805461085c90612230565b80601f016020809104026020016040519081016040528092919081815260200182805461088890612230565b80156108d55780601f106108aa576101008083540402835291602001916108d5565b820191906000526020600020905b8154815290600101906020018083116108b857829003601f168201915b5050505050908060010160009054906101000a900473ffffffffffffffffffffffffffffffffffffffff16908060030160009054906101000a900463ffffffff16908060030160049054906101000a900463ffffffff16908060030160089054906101000a900460ff16905085565b60606000600360008481526020019081526020016000209050806002018054806020026020016040519081016040528092919081815260200182805480156109e157602002820191906000526020600020905b8160009054906101000a900473ffffffffffffffffffffffffffffffffffffffff1673ffffffffffffffffffffffffffffffffffffffff1681526020019060010190808311610997575b5050505050915050919050565b60606000806000600360008681526020019081526020016000209050600073ffffffffffffffffffffffffffffffffffffffff168160010160009054906101000a900473ffffffffffffffffffffffffffffffffffffffff1673ffffffffffffffffffffffffffffffffffffffff161415610a9e576040517f08c379a0000000000000000000000000000000000000000000000000000000008152600401610a95906122ae565b60405180910390fd5b806002018054905067ffffffffffffffff811115610abf57610abe611d86565b5b604051908082528060200260200182016040528015610aed5781602001602082028036833780820191505090505b50935060008060005b8360020180549050811015610c26576000610b118983611301565b905083811115610b6257809350846002018281548110610b3457610b336122ce565b5b9060005260206000200160009054906101000a900473ffffffffffffffffffffffffffffffffffffffff1692505b600660008a81526020019081526020016000206000866002018481548110610b8d57610b8c6122ce565b5b9060005260206000200160009054906101000a900473ffffffffffffffffffffffffffffffffffffffff1673ffffffffffffffffffffffffffffffffffffffff1673ffffffffffffffffffffffffffffffffffffffff16815260200190815260200160002054888381518110610c0657610c056122ce565b5b602002602001018181525050508080610c1e906122fd565b915050610af6565b508581839550955095505050509193909250565b60018181548110610c4a57600080fd5b906000526020600020016000915090505481565b60003085858585604051602001610c79959493929190612406565b604051602081830303815290604052805190602001209050949350505050565b8383600115156005600083815260200190815260200160002060008473ffffffffffffffffffffffffffffffffffffffff1673ffffffffffffffffffffffffffffffffffffffff16815260200190815260200160002060009054906101000a900460ff16151514610d3f576040517f08c379a0000000000000000000000000000000000000000000000000000000008152600401610d36906124e2565b60405180910390fd5b846000600360008381526020019081526020016000209050600115158160030160089054906101000a900460ff16151514610daf576040517f08c379a0000000000000000000000000000000000000000000000000000000008152600401610da69061254e565b60405180910390fd5b6000610dbd89898942610c5e565b90506000610dcb82886113b3565b9050600073ffffffffffffffffffffffffffffffffffffffff168173ffffffffffffffffffffffffffffffffffffffff161415610e0757600080fd5b600460008273ffffffffffffffffffffffffffffffffffffffff1673ffffffffffffffffffffffffffffffffffffffff168152602001908152602001600020548814610e5257600080fd5b600460008273ffffffffffffffffffffffffffffffffffffffff1673ffffffffffffffffffffffffffffffffffffffff1681526020019081526020016000206000815480929190610ea2906122fd565b919050555060001515600760008b815260200190815260200160002060008373ffffffffffffffffffffffffffffffffffffffff1673ffffffffffffffffffffffffffffffffffffffff16815260200190815260200160002060009054906101000a900460ff16151514610f4b576040517f08c379a0000000000000000000000000000000000000000000000000000000008152600401610f42906125ba565b60405180910390fd5b610f568a8a836114ac565b507ff3f16a15f074b71c5138107dfc7c63b80524d5411cb967caa97d8d9f12b2fd6b8a6001604051610f899291906125da565b60405180910390a150505050505050505050565b60006003600083815260200190815260200160002090503373ffffffffffffffffffffffffffffffffffffffff168160010160009054906101000a900473ffffffffffffffffffffffffffffffffffffffff1673ffffffffffffffffffffffffffffffffffffffff1614611046576040517f08c379a000000000000000000000000000000000000000000000000000000000815260040161103d9061264f565b60405180910390fd5b8060030160089054906101000a900460ff16158160030160086101000a81548160ff0219169083151502179055508060030160089054906101000a900460ff1615157f7b224db641892626dca6975b376f464e9ac52ccfa180436175170c009b94dcd760405160405180910390a25050565b60036020528060005260406000206000915090508060000180546110db90612230565b80601f016020809104026020016040519081016040528092919081815260200182805461110790612230565b80156111545780601f1061112957610100808354040283529160200191611154565b820191906000526020600020905b81548152906001019060200180831161113757829003601f168201915b5050505050908060010160009054906101000a900473ffffffffffffffffffffffffffffffffffffffff16908060030160009054906101000a900463ffffffff16908060030160049054906101000a900463ffffffff16908060030160089054906101000a900460ff16905085565b600060036000805481526020019081526020016000209050828160000190805190602001906111f3929190611631565b50338160010160006101000a81548173ffffffffffffffffffffffffffffffffffffffff021916908373ffffffffffffffffffffffffffffffffffffffff160217905550818160030160006101000a81548163ffffffff021916908363ffffffff160217905550600160005490806001815401808255809150506001900390600052602060002001600090919091909150556000548160030160009054906101000a900463ffffffff1663ffffffff16846040516112b191906126a0565b60405180910390207fd4d0d9a1ef7f13069f1bade752fda515713d747eb14a8c30ae461c52916bf1c760405160405180910390a46000808154809291906112f7906122fd565b9190505550505050565b600080600360008581526020019081526020016000209050600660008581526020019081526020016000206000826002018581548110611344576113436122ce565b5b9060005260206000200160009054906101000a900473ffffffffffffffffffffffffffffffffffffffff1673ffffffffffffffffffffffffffffffffffffffff1673ffffffffffffffffffffffffffffffffffffffff1681526020019081526020016000205491505092915050565b60008060008060418551146113ce57600093505050506114a6565b6020850151925060408501519150606085015160001a9050601b8160ff16101561140257601b816113ff91906126c4565b90505b601b8160ff161415801561141a5750601c8160ff1614155b1561142b57600093505050506114a6565b60018660405160200161143e9190612768565b6040516020818303038152906040528051906020012082858560405160008152602001604052604051611474949392919061279d565b6020604051602081039080840390855afa158015611496573d6000803e3d6000fd5b5050506020604051035193505050505b92915050565b600060016007600085815260200190815260200160002060008473ffffffffffffffffffffffffffffffffffffffff1673ffffffffffffffffffffffffffffffffffffffff16815260200190815260200160002060006101000a81548160ff0219169083151502179055506006600084815260200190815260200160002060008573ffffffffffffffffffffffffffffffffffffffff1673ffffffffffffffffffffffffffffffffffffffff1681526020019081526020016000206000815480929190611578906122fd565b91905055506006600084815260200190815260200160002060008573ffffffffffffffffffffffffffffffffffffffff1673ffffffffffffffffffffffffffffffffffffffff1681526020019081526020016000205490509392505050565b6040518060c0016040528060608152602001600073ffffffffffffffffffffffffffffffffffffffff16815260200160608152602001600063ffffffff168152602001600063ffffffff1681526020016000151581525090565b82805461163d90612230565b90600052602060002090601f01602090048101928261165f57600085556116a6565b82601f1061167857805160ff19168380011785556116a6565b828001600101855582156116a6579182015b828111156116a557825182559160200191906001019061168a565b5b5090506116b391906116b7565b5090565b5b808211156116d05760008160009055506001016116b8565b5090565b6000604051905090565b600080fd5b600080fd5b600073ffffffffffffffffffffffffffffffffffffffff82169050919050565b6000611713826116e8565b9050919050565b61172381611708565b811461172e57600080fd5b50565b6000813590506117408161171a565b92915050565b6000819050919050565b61175981611746565b811461176457600080fd5b50565b60008135905061177681611750565b92915050565b60008060408385031215611793576117926116de565b5b60006117a185828601611731565b92505060206117b285828601611767565b9150509250929050565b6000602082840312156117d2576117d16116de565b5b60006117e084828501611767565b91505092915050565b600081519050919050565b600082825260208201905092915050565b60005b83811015611823578082015181840152602081019050611808565b83811115611832576000848401525b50505050565b6000601f19601f8301169050919050565b6000611854826117e9565b61185e81856117f4565b935061186e818560208601611805565b61187781611838565b840191505092915050565b61188b81611708565b82525050565b600081519050919050565b600082825260208201905092915050565b6000819050602082019050919050565b60006118c98383611882565b60208301905092915050565b6000602082019050919050565b60006118ed82611891565b6118f7818561189c565b9350611902836118ad565b8060005b8381101561193357815161191a88826118bd565b9750611925836118d5565b925050600181019050611906565b5085935050505092915050565b600063ffffffff82169050919050565b61195981611940565b82525050565b60008115159050919050565b6119748161195f565b82525050565b600060c08301600083015184820360008601526119978282611849565b91505060208301516119ac6020860182611882565b50604083015184820360408601526119c482826118e2565b91505060608301516119d96060860182611950565b5060808301516119ec6080860182611950565b5060a08301516119ff60a086018261196b565b508091505092915050565b60006020820190508181036000830152611a24818461197a565b905092915050565b611a3581611746565b82525050565b6000602082019050611a506000830184611a2c565b92915050565b600060208284031215611a6c57611a6b6116de565b5b6000611a7a84828501611731565b91505092915050565b600082825260208201905092915050565b6000611a9f826117e9565b611aa98185611a83565b9350611ab9818560208601611805565b611ac281611838565b840191505092915050565b611ad681611708565b82525050565b611ae581611940565b82525050565b611af48161195f565b82525050565b600060a0820190508181036000830152611b148188611a94565b9050611b236020830187611acd565b611b306040830186611adc565b611b3d6060830185611adc565b611b4a6080830184611aeb565b9695505050505050565b600082825260208201905092915050565b6000611b7082611891565b611b7a8185611b54565b9350611b85836118ad565b8060005b83811015611bb6578151611b9d88826118bd565b9750611ba8836118d5565b925050600181019050611b89565b5085935050505092915050565b60006020820190508181036000830152611bdd8184611b65565b905092915050565b600081519050919050565b600082825260208201905092915050565b6000819050602082019050919050565b611c1a81611746565b82525050565b6000611c2c8383611c11565b60208301905092915050565b6000602082019050919050565b6000611c5082611be5565b611c5a8185611bf0565b9350611c6583611c01565b8060005b83811015611c96578151611c7d8882611c20565b9750611c8883611c38565b925050600181019050611c69565b5085935050505092915050565b60006060820190508181036000830152611cbd8186611c45565b9050611ccc6020830185611acd565b611cd96040830184611a2c565b949350505050565b60008060008060808587031215611cfb57611cfa6116de565b5b6000611d0987828801611731565b9450506020611d1a87828801611767565b9350506040611d2b87828801611767565b9250506060611d3c87828801611767565b91505092959194509250565b6000819050919050565b611d5b81611d48565b82525050565b6000602082019050611d766000830184611d52565b92915050565b600080fd5b600080fd5b7f4e487b7100000000000000000000000000000000000000000000000000000000600052604160045260246000fd5b611dbe82611838565b810181811067ffffffffffffffff82111715611ddd57611ddc611d86565b5b80604052505050565b6000611df06116d4565b9050611dfc8282611db5565b919050565b600067ffffffffffffffff821115611e1c57611e1b611d86565b5b611e2582611838565b9050602081019050919050565b82818337600083830152505050565b6000611e54611e4f84611e01565b611de6565b905082815260208101848484011115611e7057611e6f611d81565b5b611e7b848285611e32565b509392505050565b600082601f830112611e9857611e97611d7c565b5b8135611ea8848260208601611e41565b91505092915050565b60008060008060808587031215611ecb57611eca6116de565b5b6000611ed987828801611731565b9450506020611eea87828801611767565b9350506040611efb87828801611767565b925050606085013567ffffffffffffffff811115611f1c57611f1b6116e3565b5b611f2887828801611e83565b91505092959194509250565b600067ffffffffffffffff821115611f4f57611f4e611d86565b5b611f5882611838565b9050602081019050919050565b6000611f78611f7384611f34565b611de6565b905082815260208101848484011115611f9457611f93611d81565b5b611f9f848285611e32565b509392505050565b600082601f830112611fbc57611fbb611d7c565b5b8135611fcc848260208601611f65565b91505092915050565b611fde81611940565b8114611fe957600080fd5b50565b600081359050611ffb81611fd5565b92915050565b60008060408385031215612018576120176116de565b5b600083013567ffffffffffffffff811115612036576120356116e3565b5b61204285828601611fa7565b925050602061205385828601611fec565b9150509250929050565b7f79657420746f20637265617465206120706f6c6c000000000000000000000000600082015250565b6000612093601483611a83565b915061209e8261205d565b602082019050919050565b600060208201905081810360008301526120c281612086565b9050919050565b7f4e487b7100000000000000000000000000000000000000000000000000000000600052600160045260246000fd5b7f6d6178696d756d206e6f206f662063616e64696461746520706572207365737360008201527f696f6e2072656769737465726564000000000000000000000000000000000000602082015250565b6000612154602e83611a83565b915061215f826120f8565b604082019050919050565b6000602082019050818103600083015261218381612147565b9050919050565b7f4e487b7100000000000000000000000000000000000000000000000000000000600052601160045260246000fd5b60006121c482611940565b915063ffffffff8214156121db576121da61218a565b5b600182019050919050565b60006020820190506121fb6000830184611acd565b92915050565b7f4e487b7100000000000000000000000000000000000000000000000000000000600052602260045260246000fd5b6000600282049050600182168061224857607f821691505b6020821081141561225c5761225b612201565b5b50919050565b7f4e6f20706f6c6c20637265617465640000000000000000000000000000000000600082015250565b6000612298600f83611a83565b91506122a382612262565b602082019050919050565b600060208201905081810360008301526122c78161228b565b9050919050565b7f4e487b7100000000000000000000000000000000000000000000000000000000600052603260045260246000fd5b600061230882611746565b91507fffffffffffffffffffffffffffffffffffffffffffffffffffffffffffffffff82141561233b5761233a61218a565b5b600182019050919050565b60008160601b9050919050565b600061235e82612346565b9050919050565b600061237082612353565b9050919050565b61238861238382611708565b612365565b82525050565b600081905092915050565b7f6d6574617472616e73616374696f6e20566f74696e6720000000000000000000600082015250565b60006123cf60178361238e565b91506123da82612399565b601782019050919050565b6000819050919050565b6124006123fb82611746565b6123e5565b82525050565b60006124128288612377565b601482019150612421826123c2565b915061242d8287612377565b60148201915061243d82866123ef565b60208201915061244d82856123ef565b60208201915061245d82846123ef565b6020820191508190509695505050505050565b7f54686973206164647265737320646f6573206e6f74206578697374206173206160008201527f2063616e64696461746500000000000000000000000000000000000000000000602082015250565b60006124cc602a83611a83565b91506124d782612470565b604082019050919050565b600060208201905081810360008301526124fb816124bf565b9050919050565b7f766f74696e672068617320656e64656400000000000000000000000000000000600082015250565b6000612538601083611a83565b915061254382612502565b602082019050919050565b600060208201905081810360008301526125678161252b565b9050919050565b7f596f7520616c726561647920766f746564000000000000000000000000000000600082015250565b60006125a4601183611a83565b91506125af8261256e565b602082019050919050565b600060208201905081810360008301526125d381612597565b9050919050565b60006040820190506125ef6000830185611acd565b6125fc6020830184611aeb565b9392505050565b7f6e6f74207468652063686169726d616e00000000000000000000000000000000600082015250565b6000612639601083611a83565b915061264482612603565b602082019050919050565b600060208201905081810360008301526126688161262c565b9050919050565b600061267a826117e9565b612684818561238e565b9350612694818560208601611805565b80840191505092915050565b60006126ac828461266f565b915081905092915050565b600060ff82169050919050565b60006126cf826126b7565b91506126da836126b7565b92508260ff038211156126f0576126ef61218a565b5b828201905092915050565b7f19457468657265756d205369676e6564204d6573736167653a0a333200000000600082015250565b6000612731601c8361238e565b915061273c826126fb565b601c82019050919050565b6000819050919050565b61276261275d82611d48565b612747565b82525050565b600061277382612724565b915061277f8284612751565b60208201915081905092915050565b612797816126b7565b82525050565b60006080820190506127b26000830187611d52565b6127bf602083018661278e565b6127cc6040830185611d52565b6127d96060830184611d52565b9594505050505056fea2646970667358221220caf159f5f4fc8ed27a9f0f7bb4587664f591c273d9967d0078b8e38bec4831c964736f6c634300080a0033",
					"opcodes": "PUSH1 0x80 PUSH1 0x40 MSTORE PUSH1 0x1 PUSH1 0x0 SSTORE CALLVALUE DUP1 ISZERO PUSH2 0x15 JUMPI PUSH1 0x0 DUP1 REVERT JUMPDEST POP PUSH2 0x2818 DUP1 PUSH2 0x25 PUSH1 0x0 CODECOPY PUSH1 0x0 RETURN INVALID PUSH1 0x80 PUSH1 0x40 MSTORE CALLVALUE DUP1 ISZERO PUSH2 0x10 JUMPI PUSH1 0x0 DUP1 REVERT JUMPDEST POP PUSH1 0x4 CALLDATASIZE LT PUSH2 0xCF JUMPI PUSH1 0x0 CALLDATALOAD PUSH1 0xE0 SHR DUP1 PUSH4 0x8CCB59E8 GT PUSH2 0x8C JUMPI DUP1 PUSH4 0xC10D6CEC GT PUSH2 0x66 JUMPI DUP1 PUSH4 0xC10D6CEC EQ PUSH2 0x276 JUMPI DUP1 PUSH4 0xC57003CC EQ PUSH2 0x292 JUMPI DUP1 PUSH4 0xE615F104 EQ PUSH2 0x2AE JUMPI DUP1 PUSH4 0xF762F4C0 EQ PUSH2 0x2E2 JUMPI PUSH2 0xCF JUMP JUMPDEST DUP1 PUSH4 0x8CCB59E8 EQ PUSH2 0x1E4 JUMPI DUP1 PUSH4 0xAE928E3E EQ PUSH2 0x216 JUMPI DUP1 PUSH4 0xBFE2E25D EQ PUSH2 0x246 JUMPI PUSH2 0xCF JUMP JUMPDEST DUP1 PUSH4 0x49D1C8B EQ PUSH2 0xD4 JUMPI DUP1 PUSH4 0x278E2C90 EQ PUSH2 0xF0 JUMPI DUP1 PUSH4 0x66C5343B EQ PUSH2 0x120 JUMPI DUP1 PUSH4 0x67D407DF EQ PUSH2 0x150 JUMPI DUP1 PUSH4 0x8321F397 EQ PUSH2 0x180 JUMPI DUP1 PUSH4 0x8AC3C3C2 EQ PUSH2 0x1B4 JUMPI JUMPDEST PUSH1 0x0 DUP1 REVERT JUMPDEST PUSH2 0xEE PUSH1 0x4 DUP1 CALLDATASIZE SUB DUP2 ADD SWAP1 PUSH2 0xE9 SWAP2 SWAP1 PUSH2 0x177C JUMP JUMPDEST PUSH2 0x2FE JUMP JUMPDEST STOP JUMPDEST PUSH2 0x10A PUSH1 0x4 DUP1 CALLDATASIZE SUB DUP2 ADD SWAP1 PUSH2 0x105 SWAP2 SWAP1 PUSH2 0x17BC JUMP JUMPDEST PUSH2 0x5CC JUMP JUMPDEST PUSH1 0x40 MLOAD PUSH2 0x117 SWAP2 SWAP1 PUSH2 0x1A0A JUMP JUMPDEST PUSH1 0x40 MLOAD DUP1 SWAP2 SUB SWAP1 RETURN JUMPDEST PUSH2 0x13A PUSH1 0x4 DUP1 CALLDATASIZE SUB DUP2 ADD SWAP1 PUSH2 0x135 SWAP2 SWAP1 PUSH2 0x17BC JUMP JUMPDEST PUSH2 0x7D6 JUMP JUMPDEST PUSH1 0x40 MLOAD PUSH2 0x147 SWAP2 SWAP1 PUSH2 0x1A3B JUMP JUMPDEST PUSH1 0x40 MLOAD DUP1 SWAP2 SUB SWAP1 RETURN JUMPDEST PUSH2 0x16A PUSH1 0x4 DUP1 CALLDATASIZE SUB DUP2 ADD SWAP1 PUSH2 0x165 SWAP2 SWAP1 PUSH2 0x1A56 JUMP JUMPDEST PUSH2 0x811 JUMP JUMPDEST PUSH1 0x40 MLOAD PUSH2 0x177 SWAP2 SWAP1 PUSH2 0x1A3B JUMP JUMPDEST PUSH1 0x40 MLOAD DUP1 SWAP2 SUB SWAP1 RETURN JUMPDEST PUSH2 0x19A PUSH1 0x4 DUP1 CALLDATASIZE SUB DUP2 ADD SWAP1 PUSH2 0x195 SWAP2 SWAP1 PUSH2 0x17BC JUMP JUMPDEST PUSH2 0x829 JUMP JUMPDEST PUSH1 0x40 MLOAD PUSH2 0x1AB SWAP6 SWAP5 SWAP4 SWAP3 SWAP2 SWAP1 PUSH2 0x1AFA JUMP JUMPDEST PUSH1 0x40 MLOAD DUP1 SWAP2 SUB SWAP1 RETURN JUMPDEST PUSH2 0x1CE PUSH1 0x4 DUP1 CALLDATASIZE SUB DUP2 ADD SWAP1 PUSH2 0x1C9 SWAP2 SWAP1 PUSH2 0x17BC JUMP JUMPDEST PUSH2 0x944 JUMP JUMPDEST PUSH1 0x40 MLOAD PUSH2 0x1DB SWAP2 SWAP1 PUSH2 0x1BC3 JUMP JUMPDEST PUSH1 0x40 MLOAD DUP1 SWAP2 SUB SWAP1 RETURN JUMPDEST PUSH2 0x1FE PUSH1 0x4 DUP1 CALLDATASIZE SUB DUP2 ADD SWAP1 PUSH2 0x1F9 SWAP2 SWAP1 PUSH2 0x17BC JUMP JUMPDEST PUSH2 0x9EE JUMP JUMPDEST PUSH1 0x40 MLOAD PUSH2 0x20D SWAP4 SWAP3 SWAP2 SWAP1 PUSH2 0x1CA3 JUMP JUMPDEST PUSH1 0x40 MLOAD DUP1 SWAP2 SUB SWAP1 RETURN JUMPDEST PUSH2 0x230 PUSH1 0x4 DUP1 CALLDATASIZE SUB DUP2 ADD SWAP1 PUSH2 0x22B SWAP2 SWAP1 PUSH2 0x17BC JUMP JUMPDEST PUSH2 0xC3A JUMP JUMPDEST PUSH1 0x40 MLOAD PUSH2 0x23D SWAP2 SWAP1 PUSH2 0x1A3B JUMP JUMPDEST PUSH1 0x40 MLOAD DUP1 SWAP2 SUB SWAP1 RETURN JUMPDEST PUSH2 0x260 PUSH1 0x4 DUP1 CALLDATASIZE SUB DUP2 ADD SWAP1 PUSH2 0x25B SWAP2 SWAP1 PUSH2 0x1CE1 JUMP JUMPDEST PUSH2 0xC5E JUMP JUMPDEST PUSH1 0x40 MLOAD PUSH2 0x26D SWAP2 SWAP1 PUSH2 0x1D61 JUMP JUMPDEST PUSH1 0x40 MLOAD DUP1 SWAP2 SUB SWAP1 RETURN JUMPDEST PUSH2 0x290 PUSH1 0x4 DUP1 CALLDATASIZE SUB DUP2 ADD SWAP1 PUSH2 0x28B SWAP2 SWAP1 PUSH2 0x1EB1 JUMP JUMPDEST PUSH2 0xC99 JUMP JUMPDEST STOP JUMPDEST PUSH2 0x2AC PUSH1 0x4 DUP1 CALLDATASIZE SUB DUP2 ADD SWAP1 PUSH2 0x2A7 SWAP2 SWAP1 PUSH2 0x17BC JUMP JUMPDEST PUSH2 0xF9D JUMP JUMPDEST STOP JUMPDEST PUSH2 0x2C8 PUSH1 0x4 DUP1 CALLDATASIZE SUB DUP2 ADD SWAP1 PUSH2 0x2C3 SWAP2 SWAP1 PUSH2 0x17BC JUMP JUMPDEST PUSH2 0x10B8 JUMP JUMPDEST PUSH1 0x40 MLOAD PUSH2 0x2D9 SWAP6 SWAP5 SWAP4 SWAP3 SWAP2 SWAP1 PUSH2 0x1AFA JUMP JUMPDEST PUSH1 0x40 MLOAD DUP1 SWAP2 SUB SWAP1 RETURN JUMPDEST PUSH2 0x2FC PUSH1 0x4 DUP1 CALLDATASIZE SUB DUP2 ADD SWAP1 PUSH2 0x2F7 SWAP2 SWAP1 PUSH2 0x2001 JUMP JUMPDEST PUSH2 0x11C3 JUMP JUMPDEST STOP JUMPDEST PUSH1 0x0 PUSH1 0x3 PUSH1 0x0 DUP4 DUP2 MSTORE PUSH1 0x20 ADD SWAP1 DUP2 MSTORE PUSH1 0x20 ADD PUSH1 0x0 KECCAK256 SWAP1 POP PUSH1 0x0 PUSH20 0xFFFFFFFFFFFFFFFFFFFFFFFFFFFFFFFFFFFFFFFF AND DUP2 PUSH1 0x1 ADD PUSH1 0x0 SWAP1 SLOAD SWAP1 PUSH2 0x100 EXP SWAP1 DIV PUSH20 0xFFFFFFFFFFFFFFFFFFFFFFFFFFFFFFFFFFFFFFFF AND PUSH20 0xFFFFFFFFFFFFFFFFFFFFFFFFFFFFFFFFFFFFFFFF AND EQ ISZERO PUSH2 0x3A9 JUMPI PUSH1 0x40 MLOAD PUSH32 0x8C379A000000000000000000000000000000000000000000000000000000000 DUP2 MSTORE PUSH1 0x4 ADD PUSH2 0x3A0 SWAP1 PUSH2 0x20A9 JUMP JUMPDEST PUSH1 0x40 MLOAD DUP1 SWAP2 SUB SWAP1 REVERT JUMPDEST CALLER PUSH20 0xFFFFFFFFFFFFFFFFFFFFFFFFFFFFFFFFFFFFFFFF AND DUP2 PUSH1 0x1 ADD PUSH1 0x0 SWAP1 SLOAD SWAP1 PUSH2 0x100 EXP SWAP1 DIV PUSH20 0xFFFFFFFFFFFFFFFFFFFFFFFFFFFFFFFFFFFFFFFF AND PUSH20 0xFFFFFFFFFFFFFFFFFFFFFFFFFFFFFFFFFFFFFFFF AND EQ PUSH2 0x409 JUMPI PUSH2 0x408 PUSH2 0x20C9 JUMP JUMPDEST JUMPDEST DUP1 PUSH1 0x3 ADD PUSH1 0x0 SWAP1 SLOAD SWAP1 PUSH2 0x100 EXP SWAP1 DIV PUSH4 0xFFFFFFFF AND PUSH4 0xFFFFFFFF AND DUP2 PUSH1 0x3 ADD PUSH1 0x4 SWAP1 SLOAD SWAP1 PUSH2 0x100 EXP SWAP1 DIV PUSH4 0xFFFFFFFF AND PUSH4 0xFFFFFFFF AND LT PUSH2 0x47F JUMPI PUSH1 0x40 MLOAD PUSH32 0x8C379A000000000000000000000000000000000000000000000000000000000 DUP2 MSTORE PUSH1 0x4 ADD PUSH2 0x476 SWAP1 PUSH2 0x216A JUMP JUMPDEST PUSH1 0x40 MLOAD DUP1 SWAP2 SUB SWAP1 REVERT JUMPDEST PUSH1 0x1 PUSH1 0x5 PUSH1 0x0 DUP5 DUP2 MSTORE PUSH1 0x20 ADD SWAP1 DUP2 MSTORE PUSH1 0x20 ADD PUSH1 0x0 KECCAK256 PUSH1 0x0 DUP6 PUSH20 0xFFFFFFFFFFFFFFFFFFFFFFFFFFFFFFFFFFFFFFFF AND PUSH20 0xFFFFFFFFFFFFFFFFFFFFFFFFFFFFFFFFFFFFFFFF AND DUP2 MSTORE PUSH1 0x20 ADD SWAP1 DUP2 MSTORE PUSH1 0x20 ADD PUSH1 0x0 KECCAK256 PUSH1 0x0 PUSH2 0x100 EXP DUP2 SLOAD DUP2 PUSH1 0xFF MUL NOT AND SWAP1 DUP4 ISZERO ISZERO MUL OR SWAP1 SSTORE POP DUP1 PUSH1 0x2 ADD DUP4 SWAP1 DUP1 PUSH1 0x1 DUP2 SLOAD ADD DUP1 DUP3 SSTORE DUP1 SWAP2 POP POP PUSH1 0x1 SWAP1 SUB SWAP1 PUSH1 0x0 MSTORE PUSH1 0x20 PUSH1 0x0 KECCAK256 ADD PUSH1 0x0 SWAP1 SWAP2 SWAP1 SWAP2 SWAP1 SWAP2 PUSH2 0x100 EXP DUP2 SLOAD DUP2 PUSH20 0xFFFFFFFFFFFFFFFFFFFFFFFFFFFFFFFFFFFFFFFF MUL NOT AND SWAP1 DUP4 PUSH20 0xFFFFFFFFFFFFFFFFFFFFFFFFFFFFFFFFFFFFFFFF AND MUL OR SWAP1 SSTORE POP DUP1 PUSH1 0x3 ADD PUSH1 0x4 DUP2 DUP2 SWAP1 SLOAD SWAP1 PUSH2 0x100 EXP SWAP1 DIV PUSH4 0xFFFFFFFF AND DUP1 SWAP3 SWAP2 SWAP1 PUSH2 0x571 SWAP1 PUSH2 0x21B9 JUMP JUMPDEST SWAP2 SWAP1 PUSH2 0x100 EXP DUP2 SLOAD DUP2 PUSH4 0xFFFFFFFF MUL NOT AND SWAP1 DUP4 PUSH4 0xFFFFFFFF AND MUL OR SWAP1 SSTORE POP POP PUSH32 0xC19C59AA93348E8FC54764BC642ECA975E2639F44CC683EF8F027E1529CBDA32 DUP4 PUSH1 0x40 MLOAD PUSH2 0x5BF SWAP2 SWAP1 PUSH2 0x21E6 JUMP JUMPDEST PUSH1 0x40 MLOAD DUP1 SWAP2 SUB SWAP1 LOG1 POP POP POP JUMP JUMPDEST PUSH2 0x5D4 PUSH2 0x15D7 JUMP JUMPDEST PUSH1 0x3 PUSH1 0x0 DUP4 DUP2 MSTORE PUSH1 0x20 ADD SWAP1 DUP2 MSTORE PUSH1 0x20 ADD PUSH1 0x0 KECCAK256 PUSH1 0x40 MLOAD DUP1 PUSH1 0xC0 ADD PUSH1 0x40 MSTORE SWAP1 DUP2 PUSH1 0x0 DUP3 ADD DUP1 SLOAD PUSH2 0x602 SWAP1 PUSH2 0x2230 JUMP JUMPDEST DUP1 PUSH1 0x1F ADD PUSH1 0x20 DUP1 SWAP2 DIV MUL PUSH1 0x20 ADD PUSH1 0x40 MLOAD SWAP1 DUP2 ADD PUSH1 0x40 MSTORE DUP1 SWAP3 SWAP2 SWAP1 DUP2 DUP2 MSTORE PUSH1 0x20 ADD DUP3 DUP1 SLOAD PUSH2 0x62E SWAP1 PUSH2 0x2230 JUMP JUMPDEST DUP1 ISZERO PUSH2 0x67B JUMPI DUP1 PUSH1 0x1F LT PUSH2 0x650 JUMPI PUSH2 0x100 DUP1 DUP4 SLOAD DIV MUL DUP4 MSTORE SWAP2 PUSH1 0x20 ADD SWAP2 PUSH2 0x67B JUMP JUMPDEST DUP3 ADD SWAP2 SWAP1 PUSH1 0x0 MSTORE PUSH1 0x20 PUSH1 0x0 KECCAK256 SWAP1 JUMPDEST DUP2 SLOAD DUP2 MSTORE SWAP1 PUSH1 0x1 ADD SWAP1 PUSH1 0x20 ADD DUP1 DUP4 GT PUSH2 0x65E JUMPI DUP3 SWAP1 SUB PUSH1 0x1F AND DUP3 ADD SWAP2 JUMPDEST POP POP POP POP POP DUP2 MSTORE PUSH1 0x20 ADD PUSH1 0x1 DUP3 ADD PUSH1 0x0 SWAP1 SLOAD SWAP1 PUSH2 0x100 EXP SWAP1 DIV PUSH20 0xFFFFFFFFFFFFFFFFFFFFFFFFFFFFFFFFFFFFFFFF AND PUSH20 0xFFFFFFFFFFFFFFFFFFFFFFFFFFFFFFFFFFFFFFFF AND PUSH20 0xFFFFFFFFFFFFFFFFFFFFFFFFFFFFFFFFFFFFFFFF AND DUP2 MSTORE PUSH1 0x20 ADD PUSH1 0x2 DUP3 ADD DUP1 SLOAD DUP1 PUSH1 0x20 MUL PUSH1 0x20 ADD PUSH1 0x40 MLOAD SWAP1 DUP2 ADD PUSH1 0x40 MSTORE DUP1 SWAP3 SWAP2 SWAP1 DUP2 DUP2 MSTORE PUSH1 0x20 ADD DUP3 DUP1 SLOAD DUP1 ISZERO PUSH2 0x75F JUMPI PUSH1 0x20 MUL DUP3 ADD SWAP2 SWAP1 PUSH1 0x0 MSTORE PUSH1 0x20 PUSH1 0x0 KECCAK256 SWAP1 JUMPDEST DUP2 PUSH1 0x0 SWAP1 SLOAD SWAP1 PUSH2 0x100 EXP SWAP1 DIV PUSH20 0xFFFFFFFFFFFFFFFFFFFFFFFFFFFFFFFFFFFFFFFF AND PUSH20 0xFFFFFFFFFFFFFFFFFFFFFFFFFFFFFFFFFFFFFFFF AND DUP2 MSTORE PUSH1 0x20 ADD SWAP1 PUSH1 0x1 ADD SWAP1 DUP1 DUP4 GT PUSH2 0x715 JUMPI JUMPDEST POP POP POP POP POP DUP2 MSTORE PUSH1 0x20 ADD PUSH1 0x3 DUP3 ADD PUSH1 0x0 SWAP1 SLOAD SWAP1 PUSH2 0x100 EXP SWAP1 DIV PUSH4 0xFFFFFFFF AND PUSH4 0xFFFFFFFF AND PUSH4 0xFFFFFFFF AND DUP2 MSTORE PUSH1 0x20 ADD PUSH1 0x3 DUP3 ADD PUSH1 0x4 SWAP1 SLOAD SWAP1 PUSH2 0x100 EXP SWAP1 DIV PUSH4 0xFFFFFFFF AND PUSH4 0xFFFFFFFF AND PUSH4 0xFFFFFFFF AND DUP2 MSTORE PUSH1 0x20 ADD PUSH1 0x3 DUP3 ADD PUSH1 0x8 SWAP1 SLOAD SWAP1 PUSH2 0x100 EXP SWAP1 DIV PUSH1 0xFF AND ISZERO ISZERO ISZERO ISZERO DUP2 MSTORE POP POP SWAP1 POP SWAP2 SWAP1 POP JUMP JUMPDEST PUSH1 0x0 DUP1 PUSH1 0x3 PUSH1 0x0 DUP5 DUP2 MSTORE PUSH1 0x20 ADD SWAP1 DUP2 MSTORE PUSH1 0x20 ADD PUSH1 0x0 KECCAK256 SWAP1 POP DUP1 PUSH1 0x3 ADD PUSH1 0x4 SWAP1 SLOAD SWAP1 PUSH2 0x100 EXP SWAP1 DIV PUSH4 0xFFFFFFFF AND PUSH4 0xFFFFFFFF AND SWAP2 POP POP SWAP2 SWAP1 POP JUMP JUMPDEST PUSH1 0x4 PUSH1 0x20 MSTORE DUP1 PUSH1 0x0 MSTORE PUSH1 0x40 PUSH1 0x0 KECCAK256 PUSH1 0x0 SWAP2 POP SWAP1 POP SLOAD DUP2 JUMP JUMPDEST PUSH1 0x2 DUP2 DUP2 SLOAD DUP2 LT PUSH2 0x839 JUMPI PUSH1 0x0 DUP1 REVERT JUMPDEST SWAP1 PUSH1 0x0 MSTORE PUSH1 0x20 PUSH1 0x0 KECCAK256 SWAP1 PUSH1 0x4 MUL ADD PUSH1 0x0 SWAP2 POP SWAP1 POP DUP1 PUSH1 0x0 ADD DUP1 SLOAD PUSH2 0x85C SWAP1 PUSH2 0x2230 JUMP JUMPDEST DUP1 PUSH1 0x1F ADD PUSH1 0x20 DUP1 SWAP2 DIV MUL PUSH1 0x20 ADD PUSH1 0x40 MLOAD SWAP1 DUP2 ADD PUSH1 0x40 MSTORE DUP1 SWAP3 SWAP2 SWAP1 DUP2 DUP2 MSTORE PUSH1 0x20 ADD DUP3 DUP1 SLOAD PUSH2 0x888 SWAP1 PUSH2 0x2230 JUMP JUMPDEST DUP1 ISZERO PUSH2 0x8D5 JUMPI DUP1 PUSH1 0x1F LT PUSH2 0x8AA JUMPI PUSH2 0x100 DUP1 DUP4 SLOAD DIV MUL DUP4 MSTORE SWAP2 PUSH1 0x20 ADD SWAP2 PUSH2 0x8D5 JUMP JUMPDEST DUP3 ADD SWAP2 SWAP1 PUSH1 0x0 MSTORE PUSH1 0x20 PUSH1 0x0 KECCAK256 SWAP1 JUMPDEST DUP2 SLOAD DUP2 MSTORE SWAP1 PUSH1 0x1 ADD SWAP1 PUSH1 0x20 ADD DUP1 DUP4 GT PUSH2 0x8B8 JUMPI DUP3 SWAP1 SUB PUSH1 0x1F AND DUP3 ADD SWAP2 JUMPDEST POP POP POP POP POP SWAP1 DUP1 PUSH1 0x1 ADD PUSH1 0x0 SWAP1 SLOAD SWAP1 PUSH2 0x100 EXP SWAP1 DIV PUSH20 0xFFFFFFFFFFFFFFFFFFFFFFFFFFFFFFFFFFFFFFFF AND SWAP1 DUP1 PUSH1 0x3 ADD PUSH1 0x0 SWAP1 SLOAD SWAP1 PUSH2 0x100 EXP SWAP1 DIV PUSH4 0xFFFFFFFF AND SWAP1 DUP1 PUSH1 0x3 ADD PUSH1 0x4 SWAP1 SLOAD SWAP1 PUSH2 0x100 EXP SWAP1 DIV PUSH4 0xFFFFFFFF AND SWAP1 DUP1 PUSH1 0x3 ADD PUSH1 0x8 SWAP1 SLOAD SWAP1 PUSH2 0x100 EXP SWAP1 DIV PUSH1 0xFF AND SWAP1 POP DUP6 JUMP JUMPDEST PUSH1 0x60 PUSH1 0x0 PUSH1 0x3 PUSH1 0x0 DUP5 DUP2 MSTORE PUSH1 0x20 ADD SWAP1 DUP2 MSTORE PUSH1 0x20 ADD PUSH1 0x0 KECCAK256 SWAP1 POP DUP1 PUSH1 0x2 ADD DUP1 SLOAD DUP1 PUSH1 0x20 MUL PUSH1 0x20 ADD PUSH1 0x40 MLOAD SWAP1 DUP2 ADD PUSH1 0x40 MSTORE DUP1 SWAP3 SWAP2 SWAP1 DUP2 DUP2 MSTORE PUSH1 0x20 ADD DUP3 DUP1 SLOAD DUP1 ISZERO PUSH2 0x9E1 JUMPI PUSH1 0x20 MUL DUP3 ADD SWAP2 SWAP1 PUSH1 0x0 MSTORE PUSH1 0x20 PUSH1 0x0 KECCAK256 SWAP1 JUMPDEST DUP2 PUSH1 0x0 SWAP1 SLOAD SWAP1 PUSH2 0x100 EXP SWAP1 DIV PUSH20 0xFFFFFFFFFFFFFFFFFFFFFFFFFFFFFFFFFFFFFFFF AND PUSH20 0xFFFFFFFFFFFFFFFFFFFFFFFFFFFFFFFFFFFFFFFF AND DUP2 MSTORE PUSH1 0x20 ADD SWAP1 PUSH1 0x1 ADD SWAP1 DUP1 DUP4 GT PUSH2 0x997 JUMPI JUMPDEST POP POP POP POP POP SWAP2 POP POP SWAP2 SWAP1 POP JUMP JUMPDEST PUSH1 0x60 PUSH1 0x0 DUP1 PUSH1 0x0 PUSH1 0x3 PUSH1 0x0 DUP7 DUP2 MSTORE PUSH1 0x20 ADD SWAP1 DUP2 MSTORE PUSH1 0x20 ADD PUSH1 0x0 KECCAK256 SWAP1 POP PUSH1 0x0 PUSH20 0xFFFFFFFFFFFFFFFFFFFFFFFFFFFFFFFFFFFFFFFF AND DUP2 PUSH1 0x1 ADD PUSH1 0x0 SWAP1 SLOAD SWAP1 PUSH2 0x100 EXP SWAP1 DIV PUSH20 0xFFFFFFFFFFFFFFFFFFFFFFFFFFFFFFFFFFFFFFFF AND PUSH20 0xFFFFFFFFFFFFFFFFFFFFFFFFFFFFFFFFFFFFFFFF AND EQ ISZERO PUSH2 0xA9E JUMPI PUSH1 0x40 MLOAD PUSH32 0x8C379A000000000000000000000000000000000000000000000000000000000 DUP2 MSTORE PUSH1 0x4 ADD PUSH2 0xA95 SWAP1 PUSH2 0x22AE JUMP JUMPDEST PUSH1 0x40 MLOAD DUP1 SWAP2 SUB SWAP1 REVERT JUMPDEST DUP1 PUSH1 0x2 ADD DUP1 SLOAD SWAP1 POP PUSH8 0xFFFFFFFFFFFFFFFF DUP2 GT ISZERO PUSH2 0xABF JUMPI PUSH2 0xABE PUSH2 0x1D86 JUMP JUMPDEST JUMPDEST PUSH1 0x40 MLOAD SWAP1 DUP1 DUP3 MSTORE DUP1 PUSH1 0x20 MUL PUSH1 0x20 ADD DUP3 ADD PUSH1 0x40 MSTORE DUP1 ISZERO PUSH2 0xAED JUMPI DUP2 PUSH1 0x20 ADD PUSH1 0x20 DUP3 MUL DUP1 CALLDATASIZE DUP4 CALLDATACOPY DUP1 DUP3 ADD SWAP2 POP POP SWAP1 POP JUMPDEST POP SWAP4 POP PUSH1 0x0 DUP1 PUSH1 0x0 JUMPDEST DUP4 PUSH1 0x2 ADD DUP1 SLOAD SWAP1 POP DUP2 LT ISZERO PUSH2 0xC26 JUMPI PUSH1 0x0 PUSH2 0xB11 DUP10 DUP4 PUSH2 0x1301 JUMP JUMPDEST SWAP1 POP DUP4 DUP2 GT ISZERO PUSH2 0xB62 JUMPI DUP1 SWAP4 POP DUP5 PUSH1 0x2 ADD DUP3 DUP2 SLOAD DUP2 LT PUSH2 0xB34 JUMPI PUSH2 0xB33 PUSH2 0x22CE JUMP JUMPDEST JUMPDEST SWAP1 PUSH1 0x0 MSTORE PUSH1 0x20 PUSH1 0x0 KECCAK256 ADD PUSH1 0x0 SWAP1 SLOAD SWAP1 PUSH2 0x100 EXP SWAP1 DIV PUSH20 0xFFFFFFFFFFFFFFFFFFFFFFFFFFFFFFFFFFFFFFFF AND SWAP3 POP JUMPDEST PUSH1 0x6 PUSH1 0x0 DUP11 DUP2 MSTORE PUSH1 0x20 ADD SWAP1 DUP2 MSTORE PUSH1 0x20 ADD PUSH1 0x0 KECCAK256 PUSH1 0x0 DUP7 PUSH1 0x2 ADD DUP5 DUP2 SLOAD DUP2 LT PUSH2 0xB8D JUMPI PUSH2 0xB8C PUSH2 0x22CE JUMP JUMPDEST JUMPDEST SWAP1 PUSH1 0x0 MSTORE PUSH1 0x20 PUSH1 0x0 KECCAK256 ADD PUSH1 0x0 SWAP1 SLOAD SWAP1 PUSH2 0x100 EXP SWAP1 DIV PUSH20 0xFFFFFFFFFFFFFFFFFFFFFFFFFFFFFFFFFFFFFFFF AND PUSH20 0xFFFFFFFFFFFFFFFFFFFFFFFFFFFFFFFFFFFFFFFF AND PUSH20 0xFFFFFFFFFFFFFFFFFFFFFFFFFFFFFFFFFFFFFFFF AND DUP2 MSTORE PUSH1 0x20 ADD SWAP1 DUP2 MSTORE PUSH1 0x20 ADD PUSH1 0x0 KECCAK256 SLOAD DUP9 DUP4 DUP2 MLOAD DUP2 LT PUSH2 0xC06 JUMPI PUSH2 0xC05 PUSH2 0x22CE JUMP JUMPDEST JUMPDEST PUSH1 0x20 MUL PUSH1 0x20 ADD ADD DUP2 DUP2 MSTORE POP POP POP DUP1 DUP1 PUSH2 0xC1E SWAP1 PUSH2 0x22FD JUMP JUMPDEST SWAP2 POP POP PUSH2 0xAF6 JUMP JUMPDEST POP DUP6 DUP2 DUP4 SWAP6 POP SWAP6 POP SWAP6 POP POP POP POP SWAP2 SWAP4 SWAP1 SWAP3 POP JUMP JUMPDEST PUSH1 0x1 DUP2 DUP2 SLOAD DUP2 LT PUSH2 0xC4A JUMPI PUSH1 0x0 DUP1 REVERT JUMPDEST SWAP1 PUSH1 0x0 MSTORE PUSH1 0x20 PUSH1 0x0 KECCAK256 ADD PUSH1 0x0 SWAP2 POP SWAP1 POP SLOAD DUP2 JUMP JUMPDEST PUSH1 0x0 ADDRESS DUP6 DUP6 DUP6 DUP6 PUSH1 0x40 MLOAD PUSH1 0x20 ADD PUSH2 0xC79 SWAP6 SWAP5 SWAP4 SWAP3 SWAP2 SWAP1 PUSH2 0x2406 JUMP JUMPDEST PUSH1 0x40 MLOAD PUSH1 0x20 DUP2 DUP4 SUB SUB DUP2 MSTORE SWAP1 PUSH1 0x40 MSTORE DUP1 MLOAD SWAP1 PUSH1 0x20 ADD KECCAK256 SWAP1 POP SWAP5 SWAP4 POP POP POP POP JUMP JUMPDEST DUP4 DUP4 PUSH1 0x1 ISZERO ISZERO PUSH1 0x5 PUSH1 0x0 DUP4 DUP2 MSTORE PUSH1 0x20 ADD SWAP1 DUP2 MSTORE PUSH1 0x20 ADD PUSH1 0x0 KECCAK256 PUSH1 0x0 DUP5 PUSH20 0xFFFFFFFFFFFFFFFFFFFFFFFFFFFFFFFFFFFFFFFF AND PUSH20 0xFFFFFFFFFFFFFFFFFFFFFFFFFFFFFFFFFFFFFFFF AND DUP2 MSTORE PUSH1 0x20 ADD SWAP1 DUP2 MSTORE PUSH1 0x20 ADD PUSH1 0x0 KECCAK256 PUSH1 0x0 SWAP1 SLOAD SWAP1 PUSH2 0x100 EXP SWAP1 DIV PUSH1 0xFF AND ISZERO ISZERO EQ PUSH2 0xD3F JUMPI PUSH1 0x40 MLOAD PUSH32 0x8C379A000000000000000000000000000000000000000000000000000000000 DUP2 MSTORE PUSH1 0x4 ADD PUSH2 0xD36 SWAP1 PUSH2 0x24E2 JUMP JUMPDEST PUSH1 0x40 MLOAD DUP1 SWAP2 SUB SWAP1 REVERT JUMPDEST DUP5 PUSH1 0x0 PUSH1 0x3 PUSH1 0x0 DUP4 DUP2 MSTORE PUSH1 0x20 ADD SWAP1 DUP2 MSTORE PUSH1 0x20 ADD PUSH1 0x0 KECCAK256 SWAP1 POP PUSH1 0x1 ISZERO ISZERO DUP2 PUSH1 0x3 ADD PUSH1 0x8 SWAP1 SLOAD SWAP1 PUSH2 0x100 EXP SWAP1 DIV PUSH1 0xFF AND ISZERO ISZERO EQ PUSH2 0xDAF JUMPI PUSH1 0x40 MLOAD PUSH32 0x8C379A000000000000000000000000000000000000000000000000000000000 DUP2 MSTORE PUSH1 0x4 ADD PUSH2 0xDA6 SWAP1 PUSH2 0x254E JUMP JUMPDEST PUSH1 0x40 MLOAD DUP1 SWAP2 SUB SWAP1 REVERT JUMPDEST PUSH1 0x0 PUSH2 0xDBD DUP10 DUP10 DUP10 TIMESTAMP PUSH2 0xC5E JUMP JUMPDEST SWAP1 POP PUSH1 0x0 PUSH2 0xDCB DUP3 DUP9 PUSH2 0x13B3 JUMP JUMPDEST SWAP1 POP PUSH1 0x0 PUSH20 0xFFFFFFFFFFFFFFFFFFFFFFFFFFFFFFFFFFFFFFFF AND DUP2 PUSH20 0xFFFFFFFFFFFFFFFFFFFFFFFFFFFFFFFFFFFFFFFF AND EQ ISZERO PUSH2 0xE07 JUMPI PUSH1 0x0 DUP1 REVERT JUMPDEST PUSH1 0x4 PUSH1 0x0 DUP3 PUSH20 0xFFFFFFFFFFFFFFFFFFFFFFFFFFFFFFFFFFFFFFFF AND PUSH20 0xFFFFFFFFFFFFFFFFFFFFFFFFFFFFFFFFFFFFFFFF AND DUP2 MSTORE PUSH1 0x20 ADD SWAP1 DUP2 MSTORE PUSH1 0x20 ADD PUSH1 0x0 KECCAK256 SLOAD DUP9 EQ PUSH2 0xE52 JUMPI PUSH1 0x0 DUP1 REVERT JUMPDEST PUSH1 0x4 PUSH1 0x0 DUP3 PUSH20 0xFFFFFFFFFFFFFFFFFFFFFFFFFFFFFFFFFFFFFFFF AND PUSH20 0xFFFFFFFFFFFFFFFFFFFFFFFFFFFFFFFFFFFFFFFF AND DUP2 MSTORE PUSH1 0x20 ADD SWAP1 DUP2 MSTORE PUSH1 0x20 ADD PUSH1 0x0 KECCAK256 PUSH1 0x0 DUP2 SLOAD DUP1 SWAP3 SWAP2 SWAP1 PUSH2 0xEA2 SWAP1 PUSH2 0x22FD JUMP JUMPDEST SWAP2 SWAP1 POP SSTORE POP PUSH1 0x0 ISZERO ISZERO PUSH1 0x7 PUSH1 0x0 DUP12 DUP2 MSTORE PUSH1 0x20 ADD SWAP1 DUP2 MSTORE PUSH1 0x20 ADD PUSH1 0x0 KECCAK256 PUSH1 0x0 DUP4 PUSH20 0xFFFFFFFFFFFFFFFFFFFFFFFFFFFFFFFFFFFFFFFF AND PUSH20 0xFFFFFFFFFFFFFFFFFFFFFFFFFFFFFFFFFFFFFFFF AND DUP2 MSTORE PUSH1 0x20 ADD SWAP1 DUP2 MSTORE PUSH1 0x20 ADD PUSH1 0x0 KECCAK256 PUSH1 0x0 SWAP1 SLOAD SWAP1 PUSH2 0x100 EXP SWAP1 DIV PUSH1 0xFF AND ISZERO ISZERO EQ PUSH2 0xF4B JUMPI PUSH1 0x40 MLOAD PUSH32 0x8C379A000000000000000000000000000000000000000000000000000000000 DUP2 MSTORE PUSH1 0x4 ADD PUSH2 0xF42 SWAP1 PUSH2 0x25BA JUMP JUMPDEST PUSH1 0x40 MLOAD DUP1 SWAP2 SUB SWAP1 REVERT JUMPDEST PUSH2 0xF56 DUP11 DUP11 DUP4 PUSH2 0x14AC JUMP JUMPDEST POP PUSH32 0xF3F16A15F074B71C5138107DFC7C63B80524D5411CB967CAA97D8D9F12B2FD6B DUP11 PUSH1 0x1 PUSH1 0x40 MLOAD PUSH2 0xF89 SWAP3 SWAP2 SWAP1 PUSH2 0x25DA JUMP JUMPDEST PUSH1 0x40 MLOAD DUP1 SWAP2 SUB SWAP1 LOG1 POP POP POP POP POP POP POP POP POP POP JUMP JUMPDEST PUSH1 0x0 PUSH1 0x3 PUSH1 0x0 DUP4 DUP2 MSTORE PUSH1 0x20 ADD SWAP1 DUP2 MSTORE PUSH1 0x20 ADD PUSH1 0x0 KECCAK256 SWAP1 POP CALLER PUSH20 0xFFFFFFFFFFFFFFFFFFFFFFFFFFFFFFFFFFFFFFFF AND DUP2 PUSH1 0x1 ADD PUSH1 0x0 SWAP1 SLOAD SWAP1 PUSH2 0x100 EXP SWAP1 DIV PUSH20 0xFFFFFFFFFFFFFFFFFFFFFFFFFFFFFFFFFFFFFFFF AND PUSH20 0xFFFFFFFFFFFFFFFFFFFFFFFFFFFFFFFFFFFFFFFF AND EQ PUSH2 0x1046 JUMPI PUSH1 0x40 MLOAD PUSH32 0x8C379A000000000000000000000000000000000000000000000000000000000 DUP2 MSTORE PUSH1 0x4 ADD PUSH2 0x103D SWAP1 PUSH2 0x264F JUMP JUMPDEST PUSH1 0x40 MLOAD DUP1 SWAP2 SUB SWAP1 REVERT JUMPDEST DUP1 PUSH1 0x3 ADD PUSH1 0x8 SWAP1 SLOAD SWAP1 PUSH2 0x100 EXP SWAP1 DIV PUSH1 0xFF AND ISZERO DUP2 PUSH1 0x3 ADD PUSH1 0x8 PUSH2 0x100 EXP DUP2 SLOAD DUP2 PUSH1 0xFF MUL NOT AND SWAP1 DUP4 ISZERO ISZERO MUL OR SWAP1 SSTORE POP DUP1 PUSH1 0x3 ADD PUSH1 0x8 SWAP1 SLOAD SWAP1 PUSH2 0x100 EXP SWAP1 DIV PUSH1 0xFF AND ISZERO ISZERO PUSH32 0x7B224DB641892626DCA6975B376F464E9AC52CCFA180436175170C009B94DCD7 PUSH1 0x40 MLOAD PUSH1 0x40 MLOAD DUP1 SWAP2 SUB SWAP1 LOG2 POP POP JUMP JUMPDEST PUSH1 0x3 PUSH1 0x20 MSTORE DUP1 PUSH1 0x0 MSTORE PUSH1 0x40 PUSH1 0x0 KECCAK256 PUSH1 0x0 SWAP2 POP SWAP1 POP DUP1 PUSH1 0x0 ADD DUP1 SLOAD PUSH2 0x10DB SWAP1 PUSH2 0x2230 JUMP JUMPDEST DUP1 PUSH1 0x1F ADD PUSH1 0x20 DUP1 SWAP2 DIV MUL PUSH1 0x20 ADD PUSH1 0x40 MLOAD SWAP1 DUP2 ADD PUSH1 0x40 MSTORE DUP1 SWAP3 SWAP2 SWAP1 DUP2 DUP2 MSTORE PUSH1 0x20 ADD DUP3 DUP1 SLOAD PUSH2 0x1107 SWAP1 PUSH2 0x2230 JUMP JUMPDEST DUP1 ISZERO PUSH2 0x1154 JUMPI DUP1 PUSH1 0x1F LT PUSH2 0x1129 JUMPI PUSH2 0x100 DUP1 DUP4 SLOAD DIV MUL DUP4 MSTORE SWAP2 PUSH1 0x20 ADD SWAP2 PUSH2 0x1154 JUMP JUMPDEST DUP3 ADD SWAP2 SWAP1 PUSH1 0x0 MSTORE PUSH1 0x20 PUSH1 0x0 KECCAK256 SWAP1 JUMPDEST DUP2 SLOAD DUP2 MSTORE SWAP1 PUSH1 0x1 ADD SWAP1 PUSH1 0x20 ADD DUP1 DUP4 GT PUSH2 0x1137 JUMPI DUP3 SWAP1 SUB PUSH1 0x1F AND DUP3 ADD SWAP2 JUMPDEST POP POP POP POP POP SWAP1 DUP1 PUSH1 0x1 ADD PUSH1 0x0 SWAP1 SLOAD SWAP1 PUSH2 0x100 EXP SWAP1 DIV PUSH20 0xFFFFFFFFFFFFFFFFFFFFFFFFFFFFFFFFFFFFFFFF AND SWAP1 DUP1 PUSH1 0x3 ADD PUSH1 0x0 SWAP1 SLOAD SWAP1 PUSH2 0x100 EXP SWAP1 DIV PUSH4 0xFFFFFFFF AND SWAP1 DUP1 PUSH1 0x3 ADD PUSH1 0x4 SWAP1 SLOAD SWAP1 PUSH2 0x100 EXP SWAP1 DIV PUSH4 0xFFFFFFFF AND SWAP1 DUP1 PUSH1 0x3 ADD PUSH1 0x8 SWAP1 SLOAD SWAP1 PUSH2 0x100 EXP SWAP1 DIV PUSH1 0xFF AND SWAP1 POP DUP6 JUMP JUMPDEST PUSH1 0x0 PUSH1 0x3 PUSH1 0x0 DUP1 SLOAD DUP2 MSTORE PUSH1 0x20 ADD SWAP1 DUP2 MSTORE PUSH1 0x20 ADD PUSH1 0x0 KECCAK256 SWAP1 POP DUP3 DUP2 PUSH1 0x0 ADD SWAP1 DUP1 MLOAD SWAP1 PUSH1 0x20 ADD SWAP1 PUSH2 0x11F3 SWAP3 SWAP2 SWAP1 PUSH2 0x1631 JUMP JUMPDEST POP CALLER DUP2 PUSH1 0x1 ADD PUSH1 0x0 PUSH2 0x100 EXP DUP2 SLOAD DUP2 PUSH20 0xFFFFFFFFFFFFFFFFFFFFFFFFFFFFFFFFFFFFFFFF MUL NOT AND SWAP1 DUP4 PUSH20 0xFFFFFFFFFFFFFFFFFFFFFFFFFFFFFFFFFFFFFFFF AND MUL OR SWAP1 SSTORE POP DUP2 DUP2 PUSH1 0x3 ADD PUSH1 0x0 PUSH2 0x100 EXP DUP2 SLOAD DUP2 PUSH4 0xFFFFFFFF MUL NOT AND SWAP1 DUP4 PUSH4 0xFFFFFFFF AND MUL OR SWAP1 SSTORE POP PUSH1 0x1 PUSH1 0x0 SLOAD SWAP1 DUP1 PUSH1 0x1 DUP2 SLOAD ADD DUP1 DUP3 SSTORE DUP1 SWAP2 POP POP PUSH1 0x1 SWAP1 SUB SWAP1 PUSH1 0x0 MSTORE PUSH1 0x20 PUSH1 0x0 KECCAK256 ADD PUSH1 0x0 SWAP1 SWAP2 SWAP1 SWAP2 SWAP1 SWAP2 POP SSTORE PUSH1 0x0 SLOAD DUP2 PUSH1 0x3 ADD PUSH1 0x0 SWAP1 SLOAD SWAP1 PUSH2 0x100 EXP SWAP1 DIV PUSH4 0xFFFFFFFF AND PUSH4 0xFFFFFFFF AND DUP5 PUSH1 0x40 MLOAD PUSH2 0x12B1 SWAP2 SWAP1 PUSH2 0x26A0 JUMP JUMPDEST PUSH1 0x40 MLOAD DUP1 SWAP2 SUB SWAP1 KECCAK256 PUSH32 0xD4D0D9A1EF7F13069F1BADE752FDA515713D747EB14A8C30AE461C52916BF1C7 PUSH1 0x40 MLOAD PUSH1 0x40 MLOAD DUP1 SWAP2 SUB SWAP1 LOG4 PUSH1 0x0 DUP1 DUP2 SLOAD DUP1 SWAP3 SWAP2 SWAP1 PUSH2 0x12F7 SWAP1 PUSH2 0x22FD JUMP JUMPDEST SWAP2 SWAP1 POP SSTORE POP POP POP POP JUMP JUMPDEST PUSH1 0x0 DUP1 PUSH1 0x3 PUSH1 0x0 DUP6 DUP2 MSTORE PUSH1 0x20 ADD SWAP1 DUP2 MSTORE PUSH1 0x20 ADD PUSH1 0x0 KECCAK256 SWAP1 POP PUSH1 0x6 PUSH1 0x0 DUP6 DUP2 MSTORE PUSH1 0x20 ADD SWAP1 DUP2 MSTORE PUSH1 0x20 ADD PUSH1 0x0 KECCAK256 PUSH1 0x0 DUP3 PUSH1 0x2 ADD DUP6 DUP2 SLOAD DUP2 LT PUSH2 0x1344 JUMPI PUSH2 0x1343 PUSH2 0x22CE JUMP JUMPDEST JUMPDEST SWAP1 PUSH1 0x0 MSTORE PUSH1 0x20 PUSH1 0x0 KECCAK256 ADD PUSH1 0x0 SWAP1 SLOAD SWAP1 PUSH2 0x100 EXP SWAP1 DIV PUSH20 0xFFFFFFFFFFFFFFFFFFFFFFFFFFFFFFFFFFFFFFFF AND PUSH20 0xFFFFFFFFFFFFFFFFFFFFFFFFFFFFFFFFFFFFFFFF AND PUSH20 0xFFFFFFFFFFFFFFFFFFFFFFFFFFFFFFFFFFFFFFFF AND DUP2 MSTORE PUSH1 0x20 ADD SWAP1 DUP2 MSTORE PUSH1 0x20 ADD PUSH1 0x0 KECCAK256 SLOAD SWAP2 POP POP SWAP3 SWAP2 POP POP JUMP JUMPDEST PUSH1 0x0 DUP1 PUSH1 0x0 DUP1 PUSH1 0x41 DUP6 MLOAD EQ PUSH2 0x13CE JUMPI PUSH1 0x0 SWAP4 POP POP POP POP PUSH2 0x14A6 JUMP JUMPDEST PUSH1 0x20 DUP6 ADD MLOAD SWAP3 POP PUSH1 0x40 DUP6 ADD MLOAD SWAP2 POP PUSH1 0x60 DUP6 ADD MLOAD PUSH1 0x0 BYTE SWAP1 POP PUSH1 0x1B DUP2 PUSH1 0xFF AND LT ISZERO PUSH2 0x1402 JUMPI PUSH1 0x1B DUP2 PUSH2 0x13FF SWAP2 SWAP1 PUSH2 0x26C4 JUMP JUMPDEST SWAP1 POP JUMPDEST PUSH1 0x1B DUP2 PUSH1 0xFF AND EQ ISZERO DUP1 ISZERO PUSH2 0x141A JUMPI POP PUSH1 0x1C DUP2 PUSH1 0xFF AND EQ ISZERO JUMPDEST ISZERO PUSH2 0x142B JUMPI PUSH1 0x0 SWAP4 POP POP POP POP PUSH2 0x14A6 JUMP JUMPDEST PUSH1 0x1 DUP7 PUSH1 0x40 MLOAD PUSH1 0x20 ADD PUSH2 0x143E SWAP2 SWAP1 PUSH2 0x2768 JUMP JUMPDEST PUSH1 0x40 MLOAD PUSH1 0x20 DUP2 DUP4 SUB SUB DUP2 MSTORE SWAP1 PUSH1 0x40 MSTORE DUP1 MLOAD SWAP1 PUSH1 0x20 ADD KECCAK256 DUP3 DUP6 DUP6 PUSH1 0x40 MLOAD PUSH1 0x0 DUP2 MSTORE PUSH1 0x20 ADD PUSH1 0x40 MSTORE PUSH1 0x40 MLOAD PUSH2 0x1474 SWAP5 SWAP4 SWAP3 SWAP2 SWAP1 PUSH2 0x279D JUMP JUMPDEST PUSH1 0x20 PUSH1 0x40 MLOAD PUSH1 0x20 DUP2 SUB SWAP1 DUP1 DUP5 SUB SWAP1 DUP6 GAS STATICCALL ISZERO DUP1 ISZERO PUSH2 0x1496 JUMPI RETURNDATASIZE PUSH1 0x0 DUP1 RETURNDATACOPY RETURNDATASIZE PUSH1 0x0 REVERT JUMPDEST POP POP POP PUSH1 0x20 PUSH1 0x40 MLOAD SUB MLOAD SWAP4 POP POP POP POP JUMPDEST SWAP3 SWAP2 POP POP JUMP JUMPDEST PUSH1 0x0 PUSH1 0x1 PUSH1 0x7 PUSH1 0x0 DUP6 DUP2 MSTORE PUSH1 0x20 ADD SWAP1 DUP2 MSTORE PUSH1 0x20 ADD PUSH1 0x0 KECCAK256 PUSH1 0x0 DUP5 PUSH20 0xFFFFFFFFFFFFFFFFFFFFFFFFFFFFFFFFFFFFFFFF AND PUSH20 0xFFFFFFFFFFFFFFFFFFFFFFFFFFFFFFFFFFFFFFFF AND DUP2 MSTORE PUSH1 0x20 ADD SWAP1 DUP2 MSTORE PUSH1 0x20 ADD PUSH1 0x0 KECCAK256 PUSH1 0x0 PUSH2 0x100 EXP DUP2 SLOAD DUP2 PUSH1 0xFF MUL NOT AND SWAP1 DUP4 ISZERO ISZERO MUL OR SWAP1 SSTORE POP PUSH1 0x6 PUSH1 0x0 DUP5 DUP2 MSTORE PUSH1 0x20 ADD SWAP1 DUP2 MSTORE PUSH1 0x20 ADD PUSH1 0x0 KECCAK256 PUSH1 0x0 DUP6 PUSH20 0xFFFFFFFFFFFFFFFFFFFFFFFFFFFFFFFFFFFFFFFF AND PUSH20 0xFFFFFFFFFFFFFFFFFFFFFFFFFFFFFFFFFFFFFFFF AND DUP2 MSTORE PUSH1 0x20 ADD SWAP1 DUP2 MSTORE PUSH1 0x20 ADD PUSH1 0x0 KECCAK256 PUSH1 0x0 DUP2 SLOAD DUP1 SWAP3 SWAP2 SWAP1 PUSH2 0x1578 SWAP1 PUSH2 0x22FD JUMP JUMPDEST SWAP2 SWAP1 POP SSTORE POP PUSH1 0x6 PUSH1 0x0 DUP5 DUP2 MSTORE PUSH1 0x20 ADD SWAP1 DUP2 MSTORE PUSH1 0x20 ADD PUSH1 0x0 KECCAK256 PUSH1 0x0 DUP6 PUSH20 0xFFFFFFFFFFFFFFFFFFFFFFFFFFFFFFFFFFFFFFFF AND PUSH20 0xFFFFFFFFFFFFFFFFFFFFFFFFFFFFFFFFFFFFFFFF AND DUP2 MSTORE PUSH1 0x20 ADD SWAP1 DUP2 MSTORE PUSH1 0x20 ADD PUSH1 0x0 KECCAK256 SLOAD SWAP1 POP SWAP4 SWAP3 POP POP POP JUMP JUMPDEST PUSH1 0x40 MLOAD DUP1 PUSH1 0xC0 ADD PUSH1 0x40 MSTORE DUP1 PUSH1 0x60 DUP2 MSTORE PUSH1 0x20 ADD PUSH1 0x0 PUSH20 0xFFFFFFFFFFFFFFFFFFFFFFFFFFFFFFFFFFFFFFFF AND DUP2 MSTORE PUSH1 0x20 ADD PUSH1 0x60 DUP2 MSTORE PUSH1 0x20 ADD PUSH1 0x0 PUSH4 0xFFFFFFFF AND DUP2 MSTORE PUSH1 0x20 ADD PUSH1 0x0 PUSH4 0xFFFFFFFF AND DUP2 MSTORE PUSH1 0x20 ADD PUSH1 0x0 ISZERO ISZERO DUP2 MSTORE POP SWAP1 JUMP JUMPDEST DUP3 DUP1 SLOAD PUSH2 0x163D SWAP1 PUSH2 0x2230 JUMP JUMPDEST SWAP1 PUSH1 0x0 MSTORE PUSH1 0x20 PUSH1 0x0 KECCAK256 SWAP1 PUSH1 0x1F ADD PUSH1 0x20 SWAP1 DIV DUP2 ADD SWAP3 DUP3 PUSH2 0x165F JUMPI PUSH1 0x0 DUP6 SSTORE PUSH2 0x16A6 JUMP JUMPDEST DUP3 PUSH1 0x1F LT PUSH2 0x1678 JUMPI DUP1 MLOAD PUSH1 0xFF NOT AND DUP4 DUP1 ADD OR DUP6 SSTORE PUSH2 0x16A6 JUMP JUMPDEST DUP3 DUP1 ADD PUSH1 0x1 ADD DUP6 SSTORE DUP3 ISZERO PUSH2 0x16A6 JUMPI SWAP2 DUP3 ADD JUMPDEST DUP3 DUP2 GT ISZERO PUSH2 0x16A5 JUMPI DUP3 MLOAD DUP3 SSTORE SWAP2 PUSH1 0x20 ADD SWAP2 SWAP1 PUSH1 0x1 ADD SWAP1 PUSH2 0x168A JUMP JUMPDEST JUMPDEST POP SWAP1 POP PUSH2 0x16B3 SWAP2 SWAP1 PUSH2 0x16B7 JUMP JUMPDEST POP SWAP1 JUMP JUMPDEST JUMPDEST DUP1 DUP3 GT ISZERO PUSH2 0x16D0 JUMPI PUSH1 0x0 DUP2 PUSH1 0x0 SWAP1 SSTORE POP PUSH1 0x1 ADD PUSH2 0x16B8 JUMP JUMPDEST POP SWAP1 JUMP JUMPDEST PUSH1 0x0 PUSH1 0x40 MLOAD SWAP1 POP SWAP1 JUMP JUMPDEST PUSH1 0x0 DUP1 REVERT JUMPDEST PUSH1 0x0 DUP1 REVERT JUMPDEST PUSH1 0x0 PUSH20 0xFFFFFFFFFFFFFFFFFFFFFFFFFFFFFFFFFFFFFFFF DUP3 AND SWAP1 POP SWAP2 SWAP1 POP JUMP JUMPDEST PUSH1 0x0 PUSH2 0x1713 DUP3 PUSH2 0x16E8 JUMP JUMPDEST SWAP1 POP SWAP2 SWAP1 POP JUMP JUMPDEST PUSH2 0x1723 DUP2 PUSH2 0x1708 JUMP JUMPDEST DUP2 EQ PUSH2 0x172E JUMPI PUSH1 0x0 DUP1 REVERT JUMPDEST POP JUMP JUMPDEST PUSH1 0x0 DUP2 CALLDATALOAD SWAP1 POP PUSH2 0x1740 DUP2 PUSH2 0x171A JUMP JUMPDEST SWAP3 SWAP2 POP POP JUMP JUMPDEST PUSH1 0x0 DUP2 SWAP1 POP SWAP2 SWAP1 POP JUMP JUMPDEST PUSH2 0x1759 DUP2 PUSH2 0x1746 JUMP JUMPDEST DUP2 EQ PUSH2 0x1764 JUMPI PUSH1 0x0 DUP1 REVERT JUMPDEST POP JUMP JUMPDEST PUSH1 0x0 DUP2 CALLDATALOAD SWAP1 POP PUSH2 0x1776 DUP2 PUSH2 0x1750 JUMP JUMPDEST SWAP3 SWAP2 POP POP JUMP JUMPDEST PUSH1 0x0 DUP1 PUSH1 0x40 DUP4 DUP6 SUB SLT ISZERO PUSH2 0x1793 JUMPI PUSH2 0x1792 PUSH2 0x16DE JUMP JUMPDEST JUMPDEST PUSH1 0x0 PUSH2 0x17A1 DUP6 DUP3 DUP7 ADD PUSH2 0x1731 JUMP JUMPDEST SWAP3 POP POP PUSH1 0x20 PUSH2 0x17B2 DUP6 DUP3 DUP7 ADD PUSH2 0x1767 JUMP JUMPDEST SWAP2 POP POP SWAP3 POP SWAP3 SWAP1 POP JUMP JUMPDEST PUSH1 0x0 PUSH1 0x20 DUP3 DUP5 SUB SLT ISZERO PUSH2 0x17D2 JUMPI PUSH2 0x17D1 PUSH2 0x16DE JUMP JUMPDEST JUMPDEST PUSH1 0x0 PUSH2 0x17E0 DUP5 DUP3 DUP6 ADD PUSH2 0x1767 JUMP JUMPDEST SWAP2 POP POP SWAP3 SWAP2 POP POP JUMP JUMPDEST PUSH1 0x0 DUP2 MLOAD SWAP1 POP SWAP2 SWAP1 POP JUMP JUMPDEST PUSH1 0x0 DUP3 DUP3 MSTORE PUSH1 0x20 DUP3 ADD SWAP1 POP SWAP3 SWAP2 POP POP JUMP JUMPDEST PUSH1 0x0 JUMPDEST DUP4 DUP2 LT ISZERO PUSH2 0x1823 JUMPI DUP1 DUP3 ADD MLOAD DUP2 DUP5 ADD MSTORE PUSH1 0x20 DUP2 ADD SWAP1 POP PUSH2 0x1808 JUMP JUMPDEST DUP4 DUP2 GT ISZERO PUSH2 0x1832 JUMPI PUSH1 0x0 DUP5 DUP5 ADD MSTORE JUMPDEST POP POP POP POP JUMP JUMPDEST PUSH1 0x0 PUSH1 0x1F NOT PUSH1 0x1F DUP4 ADD AND SWAP1 POP SWAP2 SWAP1 POP JUMP JUMPDEST PUSH1 0x0 PUSH2 0x1854 DUP3 PUSH2 0x17E9 JUMP JUMPDEST PUSH2 0x185E DUP2 DUP6 PUSH2 0x17F4 JUMP JUMPDEST SWAP4 POP PUSH2 0x186E DUP2 DUP6 PUSH1 0x20 DUP7 ADD PUSH2 0x1805 JUMP JUMPDEST PUSH2 0x1877 DUP2 PUSH2 0x1838 JUMP JUMPDEST DUP5 ADD SWAP2 POP POP SWAP3 SWAP2 POP POP JUMP JUMPDEST PUSH2 0x188B DUP2 PUSH2 0x1708 JUMP JUMPDEST DUP3 MSTORE POP POP JUMP JUMPDEST PUSH1 0x0 DUP2 MLOAD SWAP1 POP SWAP2 SWAP1 POP JUMP JUMPDEST PUSH1 0x0 DUP3 DUP3 MSTORE PUSH1 0x20 DUP3 ADD SWAP1 POP SWAP3 SWAP2 POP POP JUMP JUMPDEST PUSH1 0x0 DUP2 SWAP1 POP PUSH1 0x20 DUP3 ADD SWAP1 POP SWAP2 SWAP1 POP JUMP JUMPDEST PUSH1 0x0 PUSH2 0x18C9 DUP4 DUP4 PUSH2 0x1882 JUMP JUMPDEST PUSH1 0x20 DUP4 ADD SWAP1 POP SWAP3 SWAP2 POP POP JUMP JUMPDEST PUSH1 0x0 PUSH1 0x20 DUP3 ADD SWAP1 POP SWAP2 SWAP1 POP JUMP JUMPDEST PUSH1 0x0 PUSH2 0x18ED DUP3 PUSH2 0x1891 JUMP JUMPDEST PUSH2 0x18F7 DUP2 DUP6 PUSH2 0x189C JUMP JUMPDEST SWAP4 POP PUSH2 0x1902 DUP4 PUSH2 0x18AD JUMP JUMPDEST DUP1 PUSH1 0x0 JUMPDEST DUP4 DUP2 LT ISZERO PUSH2 0x1933 JUMPI DUP2 MLOAD PUSH2 0x191A DUP9 DUP3 PUSH2 0x18BD JUMP JUMPDEST SWAP8 POP PUSH2 0x1925 DUP4 PUSH2 0x18D5 JUMP JUMPDEST SWAP3 POP POP PUSH1 0x1 DUP2 ADD SWAP1 POP PUSH2 0x1906 JUMP JUMPDEST POP DUP6 SWAP4 POP POP POP POP SWAP3 SWAP2 POP POP JUMP JUMPDEST PUSH1 0x0 PUSH4 0xFFFFFFFF DUP3 AND SWAP1 POP SWAP2 SWAP1 POP JUMP JUMPDEST PUSH2 0x1959 DUP2 PUSH2 0x1940 JUMP JUMPDEST DUP3 MSTORE POP POP JUMP JUMPDEST PUSH1 0x0 DUP2 ISZERO ISZERO SWAP1 POP SWAP2 SWAP1 POP JUMP JUMPDEST PUSH2 0x1974 DUP2 PUSH2 0x195F JUMP JUMPDEST DUP3 MSTORE POP POP JUMP JUMPDEST PUSH1 0x0 PUSH1 0xC0 DUP4 ADD PUSH1 0x0 DUP4 ADD MLOAD DUP5 DUP3 SUB PUSH1 0x0 DUP7 ADD MSTORE PUSH2 0x1997 DUP3 DUP3 PUSH2 0x1849 JUMP JUMPDEST SWAP2 POP POP PUSH1 0x20 DUP4 ADD MLOAD PUSH2 0x19AC PUSH1 0x20 DUP7 ADD DUP3 PUSH2 0x1882 JUMP JUMPDEST POP PUSH1 0x40 DUP4 ADD MLOAD DUP5 DUP3 SUB PUSH1 0x40 DUP7 ADD MSTORE PUSH2 0x19C4 DUP3 DUP3 PUSH2 0x18E2 JUMP JUMPDEST SWAP2 POP POP PUSH1 0x60 DUP4 ADD MLOAD PUSH2 0x19D9 PUSH1 0x60 DUP7 ADD DUP3 PUSH2 0x1950 JUMP JUMPDEST POP PUSH1 0x80 DUP4 ADD MLOAD PUSH2 0x19EC PUSH1 0x80 DUP7 ADD DUP3 PUSH2 0x1950 JUMP JUMPDEST POP PUSH1 0xA0 DUP4 ADD MLOAD PUSH2 0x19FF PUSH1 0xA0 DUP7 ADD DUP3 PUSH2 0x196B JUMP JUMPDEST POP DUP1 SWAP2 POP POP SWAP3 SWAP2 POP POP JUMP JUMPDEST PUSH1 0x0 PUSH1 0x20 DUP3 ADD SWAP1 POP DUP2 DUP2 SUB PUSH1 0x0 DUP4 ADD MSTORE PUSH2 0x1A24 DUP2 DUP5 PUSH2 0x197A JUMP JUMPDEST SWAP1 POP SWAP3 SWAP2 POP POP JUMP JUMPDEST PUSH2 0x1A35 DUP2 PUSH2 0x1746 JUMP JUMPDEST DUP3 MSTORE POP POP JUMP JUMPDEST PUSH1 0x0 PUSH1 0x20 DUP3 ADD SWAP1 POP PUSH2 0x1A50 PUSH1 0x0 DUP4 ADD DUP5 PUSH2 0x1A2C JUMP JUMPDEST SWAP3 SWAP2 POP POP JUMP JUMPDEST PUSH1 0x0 PUSH1 0x20 DUP3 DUP5 SUB SLT ISZERO PUSH2 0x1A6C JUMPI PUSH2 0x1A6B PUSH2 0x16DE JUMP JUMPDEST JUMPDEST PUSH1 0x0 PUSH2 0x1A7A DUP5 DUP3 DUP6 ADD PUSH2 0x1731 JUMP JUMPDEST SWAP2 POP POP SWAP3 SWAP2 POP POP JUMP JUMPDEST PUSH1 0x0 DUP3 DUP3 MSTORE PUSH1 0x20 DUP3 ADD SWAP1 POP SWAP3 SWAP2 POP POP JUMP JUMPDEST PUSH1 0x0 PUSH2 0x1A9F DUP3 PUSH2 0x17E9 JUMP JUMPDEST PUSH2 0x1AA9 DUP2 DUP6 PUSH2 0x1A83 JUMP JUMPDEST SWAP4 POP PUSH2 0x1AB9 DUP2 DUP6 PUSH1 0x20 DUP7 ADD PUSH2 0x1805 JUMP JUMPDEST PUSH2 0x1AC2 DUP2 PUSH2 0x1838 JUMP JUMPDEST DUP5 ADD SWAP2 POP POP SWAP3 SWAP2 POP POP JUMP JUMPDEST PUSH2 0x1AD6 DUP2 PUSH2 0x1708 JUMP JUMPDEST DUP3 MSTORE POP POP JUMP JUMPDEST PUSH2 0x1AE5 DUP2 PUSH2 0x1940 JUMP JUMPDEST DUP3 MSTORE POP POP JUMP JUMPDEST PUSH2 0x1AF4 DUP2 PUSH2 0x195F JUMP JUMPDEST DUP3 MSTORE POP POP JUMP JUMPDEST PUSH1 0x0 PUSH1 0xA0 DUP3 ADD SWAP1 POP DUP2 DUP2 SUB PUSH1 0x0 DUP4 ADD MSTORE PUSH2 0x1B14 DUP2 DUP9 PUSH2 0x1A94 JUMP JUMPDEST SWAP1 POP PUSH2 0x1B23 PUSH1 0x20 DUP4 ADD DUP8 PUSH2 0x1ACD JUMP JUMPDEST PUSH2 0x1B30 PUSH1 0x40 DUP4 ADD DUP7 PUSH2 0x1ADC JUMP JUMPDEST PUSH2 0x1B3D PUSH1 0x60 DUP4 ADD DUP6 PUSH2 0x1ADC JUMP JUMPDEST PUSH2 0x1B4A PUSH1 0x80 DUP4 ADD DUP5 PUSH2 0x1AEB JUMP JUMPDEST SWAP7 SWAP6 POP POP POP POP POP POP JUMP JUMPDEST PUSH1 0x0 DUP3 DUP3 MSTORE PUSH1 0x20 DUP3 ADD SWAP1 POP SWAP3 SWAP2 POP POP JUMP JUMPDEST PUSH1 0x0 PUSH2 0x1B70 DUP3 PUSH2 0x1891 JUMP JUMPDEST PUSH2 0x1B7A DUP2 DUP6 PUSH2 0x1B54 JUMP JUMPDEST SWAP4 POP PUSH2 0x1B85 DUP4 PUSH2 0x18AD JUMP JUMPDEST DUP1 PUSH1 0x0 JUMPDEST DUP4 DUP2 LT ISZERO PUSH2 0x1BB6 JUMPI DUP2 MLOAD PUSH2 0x1B9D DUP9 DUP3 PUSH2 0x18BD JUMP JUMPDEST SWAP8 POP PUSH2 0x1BA8 DUP4 PUSH2 0x18D5 JUMP JUMPDEST SWAP3 POP POP PUSH1 0x1 DUP2 ADD SWAP1 POP PUSH2 0x1B89 JUMP JUMPDEST POP DUP6 SWAP4 POP POP POP POP SWAP3 SWAP2 POP POP JUMP JUMPDEST PUSH1 0x0 PUSH1 0x20 DUP3 ADD SWAP1 POP DUP2 DUP2 SUB PUSH1 0x0 DUP4 ADD MSTORE PUSH2 0x1BDD DUP2 DUP5 PUSH2 0x1B65 JUMP JUMPDEST SWAP1 POP SWAP3 SWAP2 POP POP JUMP JUMPDEST PUSH1 0x0 DUP2 MLOAD SWAP1 POP SWAP2 SWAP1 POP JUMP JUMPDEST PUSH1 0x0 DUP3 DUP3 MSTORE PUSH1 0x20 DUP3 ADD SWAP1 POP SWAP3 SWAP2 POP POP JUMP JUMPDEST PUSH1 0x0 DUP2 SWAP1 POP PUSH1 0x20 DUP3 ADD SWAP1 POP SWAP2 SWAP1 POP JUMP JUMPDEST PUSH2 0x1C1A DUP2 PUSH2 0x1746 JUMP JUMPDEST DUP3 MSTORE POP POP JUMP JUMPDEST PUSH1 0x0 PUSH2 0x1C2C DUP4 DUP4 PUSH2 0x1C11 JUMP JUMPDEST PUSH1 0x20 DUP4 ADD SWAP1 POP SWAP3 SWAP2 POP POP JUMP JUMPDEST PUSH1 0x0 PUSH1 0x20 DUP3 ADD SWAP1 POP SWAP2 SWAP1 POP JUMP JUMPDEST PUSH1 0x0 PUSH2 0x1C50 DUP3 PUSH2 0x1BE5 JUMP JUMPDEST PUSH2 0x1C5A DUP2 DUP6 PUSH2 0x1BF0 JUMP JUMPDEST SWAP4 POP PUSH2 0x1C65 DUP4 PUSH2 0x1C01 JUMP JUMPDEST DUP1 PUSH1 0x0 JUMPDEST DUP4 DUP2 LT ISZERO PUSH2 0x1C96 JUMPI DUP2 MLOAD PUSH2 0x1C7D DUP9 DUP3 PUSH2 0x1C20 JUMP JUMPDEST SWAP8 POP PUSH2 0x1C88 DUP4 PUSH2 0x1C38 JUMP JUMPDEST SWAP3 POP POP PUSH1 0x1 DUP2 ADD SWAP1 POP PUSH2 0x1C69 JUMP JUMPDEST POP DUP6 SWAP4 POP POP POP POP SWAP3 SWAP2 POP POP JUMP JUMPDEST PUSH1 0x0 PUSH1 0x60 DUP3 ADD SWAP1 POP DUP2 DUP2 SUB PUSH1 0x0 DUP4 ADD MSTORE PUSH2 0x1CBD DUP2 DUP7 PUSH2 0x1C45 JUMP JUMPDEST SWAP1 POP PUSH2 0x1CCC PUSH1 0x20 DUP4 ADD DUP6 PUSH2 0x1ACD JUMP JUMPDEST PUSH2 0x1CD9 PUSH1 0x40 DUP4 ADD DUP5 PUSH2 0x1A2C JUMP JUMPDEST SWAP5 SWAP4 POP POP POP POP JUMP JUMPDEST PUSH1 0x0 DUP1 PUSH1 0x0 DUP1 PUSH1 0x80 DUP6 DUP8 SUB SLT ISZERO PUSH2 0x1CFB JUMPI PUSH2 0x1CFA PUSH2 0x16DE JUMP JUMPDEST JUMPDEST PUSH1 0x0 PUSH2 0x1D09 DUP8 DUP3 DUP9 ADD PUSH2 0x1731 JUMP JUMPDEST SWAP5 POP POP PUSH1 0x20 PUSH2 0x1D1A DUP8 DUP3 DUP9 ADD PUSH2 0x1767 JUMP JUMPDEST SWAP4 POP POP PUSH1 0x40 PUSH2 0x1D2B DUP8 DUP3 DUP9 ADD PUSH2 0x1767 JUMP JUMPDEST SWAP3 POP POP PUSH1 0x60 PUSH2 0x1D3C DUP8 DUP3 DUP9 ADD PUSH2 0x1767 JUMP JUMPDEST SWAP2 POP POP SWAP3 SWAP6 SWAP2 SWAP5 POP SWAP3 POP JUMP JUMPDEST PUSH1 0x0 DUP2 SWAP1 POP SWAP2 SWAP1 POP JUMP JUMPDEST PUSH2 0x1D5B DUP2 PUSH2 0x1D48 JUMP JUMPDEST DUP3 MSTORE POP POP JUMP JUMPDEST PUSH1 0x0 PUSH1 0x20 DUP3 ADD SWAP1 POP PUSH2 0x1D76 PUSH1 0x0 DUP4 ADD DUP5 PUSH2 0x1D52 JUMP JUMPDEST SWAP3 SWAP2 POP POP JUMP JUMPDEST PUSH1 0x0 DUP1 REVERT JUMPDEST PUSH1 0x0 DUP1 REVERT JUMPDEST PUSH32 0x4E487B7100000000000000000000000000000000000000000000000000000000 PUSH1 0x0 MSTORE PUSH1 0x41 PUSH1 0x4 MSTORE PUSH1 0x24 PUSH1 0x0 REVERT JUMPDEST PUSH2 0x1DBE DUP3 PUSH2 0x1838 JUMP JUMPDEST DUP2 ADD DUP2 DUP2 LT PUSH8 0xFFFFFFFFFFFFFFFF DUP3 GT OR ISZERO PUSH2 0x1DDD JUMPI PUSH2 0x1DDC PUSH2 0x1D86 JUMP JUMPDEST JUMPDEST DUP1 PUSH1 0x40 MSTORE POP POP POP JUMP JUMPDEST PUSH1 0x0 PUSH2 0x1DF0 PUSH2 0x16D4 JUMP JUMPDEST SWAP1 POP PUSH2 0x1DFC DUP3 DUP3 PUSH2 0x1DB5 JUMP JUMPDEST SWAP2 SWAP1 POP JUMP JUMPDEST PUSH1 0x0 PUSH8 0xFFFFFFFFFFFFFFFF DUP3 GT ISZERO PUSH2 0x1E1C JUMPI PUSH2 0x1E1B PUSH2 0x1D86 JUMP JUMPDEST JUMPDEST PUSH2 0x1E25 DUP3 PUSH2 0x1838 JUMP JUMPDEST SWAP1 POP PUSH1 0x20 DUP2 ADD SWAP1 POP SWAP2 SWAP1 POP JUMP JUMPDEST DUP3 DUP2 DUP4 CALLDATACOPY PUSH1 0x0 DUP4 DUP4 ADD MSTORE POP POP POP JUMP JUMPDEST PUSH1 0x0 PUSH2 0x1E54 PUSH2 0x1E4F DUP5 PUSH2 0x1E01 JUMP JUMPDEST PUSH2 0x1DE6 JUMP JUMPDEST SWAP1 POP DUP3 DUP2 MSTORE PUSH1 0x20 DUP2 ADD DUP5 DUP5 DUP5 ADD GT ISZERO PUSH2 0x1E70 JUMPI PUSH2 0x1E6F PUSH2 0x1D81 JUMP JUMPDEST JUMPDEST PUSH2 0x1E7B DUP5 DUP3 DUP6 PUSH2 0x1E32 JUMP JUMPDEST POP SWAP4 SWAP3 POP POP POP JUMP JUMPDEST PUSH1 0x0 DUP3 PUSH1 0x1F DUP4 ADD SLT PUSH2 0x1E98 JUMPI PUSH2 0x1E97 PUSH2 0x1D7C JUMP JUMPDEST JUMPDEST DUP2 CALLDATALOAD PUSH2 0x1EA8 DUP5 DUP3 PUSH1 0x20 DUP7 ADD PUSH2 0x1E41 JUMP JUMPDEST SWAP2 POP POP SWAP3 SWAP2 POP POP JUMP JUMPDEST PUSH1 0x0 DUP1 PUSH1 0x0 DUP1 PUSH1 0x80 DUP6 DUP8 SUB SLT ISZERO PUSH2 0x1ECB JUMPI PUSH2 0x1ECA PUSH2 0x16DE JUMP JUMPDEST JUMPDEST PUSH1 0x0 PUSH2 0x1ED9 DUP8 DUP3 DUP9 ADD PUSH2 0x1731 JUMP JUMPDEST SWAP5 POP POP PUSH1 0x20 PUSH2 0x1EEA DUP8 DUP3 DUP9 ADD PUSH2 0x1767 JUMP JUMPDEST SWAP4 POP POP PUSH1 0x40 PUSH2 0x1EFB DUP8 DUP3 DUP9 ADD PUSH2 0x1767 JUMP JUMPDEST SWAP3 POP POP PUSH1 0x60 DUP6 ADD CALLDATALOAD PUSH8 0xFFFFFFFFFFFFFFFF DUP2 GT ISZERO PUSH2 0x1F1C JUMPI PUSH2 0x1F1B PUSH2 0x16E3 JUMP JUMPDEST JUMPDEST PUSH2 0x1F28 DUP8 DUP3 DUP9 ADD PUSH2 0x1E83 JUMP JUMPDEST SWAP2 POP POP SWAP3 SWAP6 SWAP2 SWAP5 POP SWAP3 POP JUMP JUMPDEST PUSH1 0x0 PUSH8 0xFFFFFFFFFFFFFFFF DUP3 GT ISZERO PUSH2 0x1F4F JUMPI PUSH2 0x1F4E PUSH2 0x1D86 JUMP JUMPDEST JUMPDEST PUSH2 0x1F58 DUP3 PUSH2 0x1838 JUMP JUMPDEST SWAP1 POP PUSH1 0x20 DUP2 ADD SWAP1 POP SWAP2 SWAP1 POP JUMP JUMPDEST PUSH1 0x0 PUSH2 0x1F78 PUSH2 0x1F73 DUP5 PUSH2 0x1F34 JUMP JUMPDEST PUSH2 0x1DE6 JUMP JUMPDEST SWAP1 POP DUP3 DUP2 MSTORE PUSH1 0x20 DUP2 ADD DUP5 DUP5 DUP5 ADD GT ISZERO PUSH2 0x1F94 JUMPI PUSH2 0x1F93 PUSH2 0x1D81 JUMP JUMPDEST JUMPDEST PUSH2 0x1F9F DUP5 DUP3 DUP6 PUSH2 0x1E32 JUMP JUMPDEST POP SWAP4 SWAP3 POP POP POP JUMP JUMPDEST PUSH1 0x0 DUP3 PUSH1 0x1F DUP4 ADD SLT PUSH2 0x1FBC JUMPI PUSH2 0x1FBB PUSH2 0x1D7C JUMP JUMPDEST JUMPDEST DUP2 CALLDATALOAD PUSH2 0x1FCC DUP5 DUP3 PUSH1 0x20 DUP7 ADD PUSH2 0x1F65 JUMP JUMPDEST SWAP2 POP POP SWAP3 SWAP2 POP POP JUMP JUMPDEST PUSH2 0x1FDE DUP2 PUSH2 0x1940 JUMP JUMPDEST DUP2 EQ PUSH2 0x1FE9 JUMPI PUSH1 0x0 DUP1 REVERT JUMPDEST POP JUMP JUMPDEST PUSH1 0x0 DUP2 CALLDATALOAD SWAP1 POP PUSH2 0x1FFB DUP2 PUSH2 0x1FD5 JUMP JUMPDEST SWAP3 SWAP2 POP POP JUMP JUMPDEST PUSH1 0x0 DUP1 PUSH1 0x40 DUP4 DUP6 SUB SLT ISZERO PUSH2 0x2018 JUMPI PUSH2 0x2017 PUSH2 0x16DE JUMP JUMPDEST JUMPDEST PUSH1 0x0 DUP4 ADD CALLDATALOAD PUSH8 0xFFFFFFFFFFFFFFFF DUP2 GT ISZERO PUSH2 0x2036 JUMPI PUSH2 0x2035 PUSH2 0x16E3 JUMP JUMPDEST JUMPDEST PUSH2 0x2042 DUP6 DUP3 DUP7 ADD PUSH2 0x1FA7 JUMP JUMPDEST SWAP3 POP POP PUSH1 0x20 PUSH2 0x2053 DUP6 DUP3 DUP7 ADD PUSH2 0x1FEC JUMP JUMPDEST SWAP2 POP POP SWAP3 POP SWAP3 SWAP1 POP JUMP JUMPDEST PUSH32 0x79657420746F20637265617465206120706F6C6C000000000000000000000000 PUSH1 0x0 DUP3 ADD MSTORE POP JUMP JUMPDEST PUSH1 0x0 PUSH2 0x2093 PUSH1 0x14 DUP4 PUSH2 0x1A83 JUMP JUMPDEST SWAP2 POP PUSH2 0x209E DUP3 PUSH2 0x205D JUMP JUMPDEST PUSH1 0x20 DUP3 ADD SWAP1 POP SWAP2 SWAP1 POP JUMP JUMPDEST PUSH1 0x0 PUSH1 0x20 DUP3 ADD SWAP1 POP DUP2 DUP2 SUB PUSH1 0x0 DUP4 ADD MSTORE PUSH2 0x20C2 DUP2 PUSH2 0x2086 JUMP JUMPDEST SWAP1 POP SWAP2 SWAP1 POP JUMP JUMPDEST PUSH32 0x4E487B7100000000000000000000000000000000000000000000000000000000 PUSH1 0x0 MSTORE PUSH1 0x1 PUSH1 0x4 MSTORE PUSH1 0x24 PUSH1 0x0 REVERT JUMPDEST PUSH32 0x6D6178696D756D206E6F206F662063616E646964617465207065722073657373 PUSH1 0x0 DUP3 ADD MSTORE PUSH32 0x696F6E2072656769737465726564000000000000000000000000000000000000 PUSH1 0x20 DUP3 ADD MSTORE POP JUMP JUMPDEST PUSH1 0x0 PUSH2 0x2154 PUSH1 0x2E DUP4 PUSH2 0x1A83 JUMP JUMPDEST SWAP2 POP PUSH2 0x215F DUP3 PUSH2 0x20F8 JUMP JUMPDEST PUSH1 0x40 DUP3 ADD SWAP1 POP SWAP2 SWAP1 POP JUMP JUMPDEST PUSH1 0x0 PUSH1 0x20 DUP3 ADD SWAP1 POP DUP2 DUP2 SUB PUSH1 0x0 DUP4 ADD MSTORE PUSH2 0x2183 DUP2 PUSH2 0x2147 JUMP JUMPDEST SWAP1 POP SWAP2 SWAP1 POP JUMP JUMPDEST PUSH32 0x4E487B7100000000000000000000000000000000000000000000000000000000 PUSH1 0x0 MSTORE PUSH1 0x11 PUSH1 0x4 MSTORE PUSH1 0x24 PUSH1 0x0 REVERT JUMPDEST PUSH1 0x0 PUSH2 0x21C4 DUP3 PUSH2 0x1940 JUMP JUMPDEST SWAP2 POP PUSH4 0xFFFFFFFF DUP3 EQ ISZERO PUSH2 0x21DB JUMPI PUSH2 0x21DA PUSH2 0x218A JUMP JUMPDEST JUMPDEST PUSH1 0x1 DUP3 ADD SWAP1 POP SWAP2 SWAP1 POP JUMP JUMPDEST PUSH1 0x0 PUSH1 0x20 DUP3 ADD SWAP1 POP PUSH2 0x21FB PUSH1 0x0 DUP4 ADD DUP5 PUSH2 0x1ACD JUMP JUMPDEST SWAP3 SWAP2 POP POP JUMP JUMPDEST PUSH32 0x4E487B7100000000000000000000000000000000000000000000000000000000 PUSH1 0x0 MSTORE PUSH1 0x22 PUSH1 0x4 MSTORE PUSH1 0x24 PUSH1 0x0 REVERT JUMPDEST PUSH1 0x0 PUSH1 0x2 DUP3 DIV SWAP1 POP PUSH1 0x1 DUP3 AND DUP1 PUSH2 0x2248 JUMPI PUSH1 0x7F DUP3 AND SWAP2 POP JUMPDEST PUSH1 0x20 DUP3 LT DUP2 EQ ISZERO PUSH2 0x225C JUMPI PUSH2 0x225B PUSH2 0x2201 JUMP JUMPDEST JUMPDEST POP SWAP2 SWAP1 POP JUMP JUMPDEST PUSH32 0x4E6F20706F6C6C20637265617465640000000000000000000000000000000000 PUSH1 0x0 DUP3 ADD MSTORE POP JUMP JUMPDEST PUSH1 0x0 PUSH2 0x2298 PUSH1 0xF DUP4 PUSH2 0x1A83 JUMP JUMPDEST SWAP2 POP PUSH2 0x22A3 DUP3 PUSH2 0x2262 JUMP JUMPDEST PUSH1 0x20 DUP3 ADD SWAP1 POP SWAP2 SWAP1 POP JUMP JUMPDEST PUSH1 0x0 PUSH1 0x20 DUP3 ADD SWAP1 POP DUP2 DUP2 SUB PUSH1 0x0 DUP4 ADD MSTORE PUSH2 0x22C7 DUP2 PUSH2 0x228B JUMP JUMPDEST SWAP1 POP SWAP2 SWAP1 POP JUMP JUMPDEST PUSH32 0x4E487B7100000000000000000000000000000000000000000000000000000000 PUSH1 0x0 MSTORE PUSH1 0x32 PUSH1 0x4 MSTORE PUSH1 0x24 PUSH1 0x0 REVERT JUMPDEST PUSH1 0x0 PUSH2 0x2308 DUP3 PUSH2 0x1746 JUMP JUMPDEST SWAP2 POP PUSH32 0xFFFFFFFFFFFFFFFFFFFFFFFFFFFFFFFFFFFFFFFFFFFFFFFFFFFFFFFFFFFFFFFF DUP3 EQ ISZERO PUSH2 0x233B JUMPI PUSH2 0x233A PUSH2 0x218A JUMP JUMPDEST JUMPDEST PUSH1 0x1 DUP3 ADD SWAP1 POP SWAP2 SWAP1 POP JUMP JUMPDEST PUSH1 0x0 DUP2 PUSH1 0x60 SHL SWAP1 POP SWAP2 SWAP1 POP JUMP JUMPDEST PUSH1 0x0 PUSH2 0x235E DUP3 PUSH2 0x2346 JUMP JUMPDEST SWAP1 POP SWAP2 SWAP1 POP JUMP JUMPDEST PUSH1 0x0 PUSH2 0x2370 DUP3 PUSH2 0x2353 JUMP JUMPDEST SWAP1 POP SWAP2 SWAP1 POP JUMP JUMPDEST PUSH2 0x2388 PUSH2 0x2383 DUP3 PUSH2 0x1708 JUMP JUMPDEST PUSH2 0x2365 JUMP JUMPDEST DUP3 MSTORE POP POP JUMP JUMPDEST PUSH1 0x0 DUP2 SWAP1 POP SWAP3 SWAP2 POP POP JUMP JUMPDEST PUSH32 0x6D6574617472616E73616374696F6E20566F74696E6720000000000000000000 PUSH1 0x0 DUP3 ADD MSTORE POP JUMP JUMPDEST PUSH1 0x0 PUSH2 0x23CF PUSH1 0x17 DUP4 PUSH2 0x238E JUMP JUMPDEST SWAP2 POP PUSH2 0x23DA DUP3 PUSH2 0x2399 JUMP JUMPDEST PUSH1 0x17 DUP3 ADD SWAP1 POP SWAP2 SWAP1 POP JUMP JUMPDEST PUSH1 0x0 DUP2 SWAP1 POP SWAP2 SWAP1 POP JUMP JUMPDEST PUSH2 0x2400 PUSH2 0x23FB DUP3 PUSH2 0x1746 JUMP JUMPDEST PUSH2 0x23E5 JUMP JUMPDEST DUP3 MSTORE POP POP JUMP JUMPDEST PUSH1 0x0 PUSH2 0x2412 DUP3 DUP9 PUSH2 0x2377 JUMP JUMPDEST PUSH1 0x14 DUP3 ADD SWAP2 POP PUSH2 0x2421 DUP3 PUSH2 0x23C2 JUMP JUMPDEST SWAP2 POP PUSH2 0x242D DUP3 DUP8 PUSH2 0x2377 JUMP JUMPDEST PUSH1 0x14 DUP3 ADD SWAP2 POP PUSH2 0x243D DUP3 DUP7 PUSH2 0x23EF JUMP JUMPDEST PUSH1 0x20 DUP3 ADD SWAP2 POP PUSH2 0x244D DUP3 DUP6 PUSH2 0x23EF JUMP JUMPDEST PUSH1 0x20 DUP3 ADD SWAP2 POP PUSH2 0x245D DUP3 DUP5 PUSH2 0x23EF JUMP JUMPDEST PUSH1 0x20 DUP3 ADD SWAP2 POP DUP2 SWAP1 POP SWAP7 SWAP6 POP POP POP POP POP POP JUMP JUMPDEST PUSH32 0x54686973206164647265737320646F6573206E6F742065786973742061732061 PUSH1 0x0 DUP3 ADD MSTORE PUSH32 0x2063616E64696461746500000000000000000000000000000000000000000000 PUSH1 0x20 DUP3 ADD MSTORE POP JUMP JUMPDEST PUSH1 0x0 PUSH2 0x24CC PUSH1 0x2A DUP4 PUSH2 0x1A83 JUMP JUMPDEST SWAP2 POP PUSH2 0x24D7 DUP3 PUSH2 0x2470 JUMP JUMPDEST PUSH1 0x40 DUP3 ADD SWAP1 POP SWAP2 SWAP1 POP JUMP JUMPDEST PUSH1 0x0 PUSH1 0x20 DUP3 ADD SWAP1 POP DUP2 DUP2 SUB PUSH1 0x0 DUP4 ADD MSTORE PUSH2 0x24FB DUP2 PUSH2 0x24BF JUMP JUMPDEST SWAP1 POP SWAP2 SWAP1 POP JUMP JUMPDEST PUSH32 0x766F74696E672068617320656E64656400000000000000000000000000000000 PUSH1 0x0 DUP3 ADD MSTORE POP JUMP JUMPDEST PUSH1 0x0 PUSH2 0x2538 PUSH1 0x10 DUP4 PUSH2 0x1A83 JUMP JUMPDEST SWAP2 POP PUSH2 0x2543 DUP3 PUSH2 0x2502 JUMP JUMPDEST PUSH1 0x20 DUP3 ADD SWAP1 POP SWAP2 SWAP1 POP JUMP JUMPDEST PUSH1 0x0 PUSH1 0x20 DUP3 ADD SWAP1 POP DUP2 DUP2 SUB PUSH1 0x0 DUP4 ADD MSTORE PUSH2 0x2567 DUP2 PUSH2 0x252B JUMP JUMPDEST SWAP1 POP SWAP2 SWAP1 POP JUMP JUMPDEST PUSH32 0x596F7520616C726561647920766F746564000000000000000000000000000000 PUSH1 0x0 DUP3 ADD MSTORE POP JUMP JUMPDEST PUSH1 0x0 PUSH2 0x25A4 PUSH1 0x11 DUP4 PUSH2 0x1A83 JUMP JUMPDEST SWAP2 POP PUSH2 0x25AF DUP3 PUSH2 0x256E JUMP JUMPDEST PUSH1 0x20 DUP3 ADD SWAP1 POP SWAP2 SWAP1 POP JUMP JUMPDEST PUSH1 0x0 PUSH1 0x20 DUP3 ADD SWAP1 POP DUP2 DUP2 SUB PUSH1 0x0 DUP4 ADD MSTORE PUSH2 0x25D3 DUP2 PUSH2 0x2597 JUMP JUMPDEST SWAP1 POP SWAP2 SWAP1 POP JUMP JUMPDEST PUSH1 0x0 PUSH1 0x40 DUP3 ADD SWAP1 POP PUSH2 0x25EF PUSH1 0x0 DUP4 ADD DUP6 PUSH2 0x1ACD JUMP JUMPDEST PUSH2 0x25FC PUSH1 0x20 DUP4 ADD DUP5 PUSH2 0x1AEB JUMP JUMPDEST SWAP4 SWAP3 POP POP POP JUMP JUMPDEST PUSH32 0x6E6F74207468652063686169726D616E00000000000000000000000000000000 PUSH1 0x0 DUP3 ADD MSTORE POP JUMP JUMPDEST PUSH1 0x0 PUSH2 0x2639 PUSH1 0x10 DUP4 PUSH2 0x1A83 JUMP JUMPDEST SWAP2 POP PUSH2 0x2644 DUP3 PUSH2 0x2603 JUMP JUMPDEST PUSH1 0x20 DUP3 ADD SWAP1 POP SWAP2 SWAP1 POP JUMP JUMPDEST PUSH1 0x0 PUSH1 0x20 DUP3 ADD SWAP1 POP DUP2 DUP2 SUB PUSH1 0x0 DUP4 ADD MSTORE PUSH2 0x2668 DUP2 PUSH2 0x262C JUMP JUMPDEST SWAP1 POP SWAP2 SWAP1 POP JUMP JUMPDEST PUSH1 0x0 PUSH2 0x267A DUP3 PUSH2 0x17E9 JUMP JUMPDEST PUSH2 0x2684 DUP2 DUP6 PUSH2 0x238E JUMP JUMPDEST SWAP4 POP PUSH2 0x2694 DUP2 DUP6 PUSH1 0x20 DUP7 ADD PUSH2 0x1805 JUMP JUMPDEST DUP1 DUP5 ADD SWAP2 POP POP SWAP3 SWAP2 POP POP JUMP JUMPDEST PUSH1 0x0 PUSH2 0x26AC DUP3 DUP5 PUSH2 0x266F JUMP JUMPDEST SWAP2 POP DUP2 SWAP1 POP SWAP3 SWAP2 POP POP JUMP JUMPDEST PUSH1 0x0 PUSH1 0xFF DUP3 AND SWAP1 POP SWAP2 SWAP1 POP JUMP JUMPDEST PUSH1 0x0 PUSH2 0x26CF DUP3 PUSH2 0x26B7 JUMP JUMPDEST SWAP2 POP PUSH2 0x26DA DUP4 PUSH2 0x26B7 JUMP JUMPDEST SWAP3 POP DUP3 PUSH1 0xFF SUB DUP3 GT ISZERO PUSH2 0x26F0 JUMPI PUSH2 0x26EF PUSH2 0x218A JUMP JUMPDEST JUMPDEST DUP3 DUP3 ADD SWAP1 POP SWAP3 SWAP2 POP POP JUMP JUMPDEST PUSH32 0x19457468657265756D205369676E6564204D6573736167653A0A333200000000 PUSH1 0x0 DUP3 ADD MSTORE POP JUMP JUMPDEST PUSH1 0x0 PUSH2 0x2731 PUSH1 0x1C DUP4 PUSH2 0x238E JUMP JUMPDEST SWAP2 POP PUSH2 0x273C DUP3 PUSH2 0x26FB JUMP JUMPDEST PUSH1 0x1C DUP3 ADD SWAP1 POP SWAP2 SWAP1 POP JUMP JUMPDEST PUSH1 0x0 DUP2 SWAP1 POP SWAP2 SWAP1 POP JUMP JUMPDEST PUSH2 0x2762 PUSH2 0x275D DUP3 PUSH2 0x1D48 JUMP JUMPDEST PUSH2 0x2747 JUMP JUMPDEST DUP3 MSTORE POP POP JUMP JUMPDEST PUSH1 0x0 PUSH2 0x2773 DUP3 PUSH2 0x2724 JUMP JUMPDEST SWAP2 POP PUSH2 0x277F DUP3 DUP5 PUSH2 0x2751 JUMP JUMPDEST PUSH1 0x20 DUP3 ADD SWAP2 POP DUP2 SWAP1 POP SWAP3 SWAP2 POP POP JUMP JUMPDEST PUSH2 0x2797 DUP2 PUSH2 0x26B7 JUMP JUMPDEST DUP3 MSTORE POP POP JUMP JUMPDEST PUSH1 0x0 PUSH1 0x80 DUP3 ADD SWAP1 POP PUSH2 0x27B2 PUSH1 0x0 DUP4 ADD DUP8 PUSH2 0x1D52 JUMP JUMPDEST PUSH2 0x27BF PUSH1 0x20 DUP4 ADD DUP7 PUSH2 0x278E JUMP JUMPDEST PUSH2 0x27CC PUSH1 0x40 DUP4 ADD DUP6 PUSH2 0x1D52 JUMP JUMPDEST PUSH2 0x27D9 PUSH1 0x60 DUP4 ADD DUP5 PUSH2 0x1D52 JUMP JUMPDEST SWAP6 SWAP5 POP POP POP POP POP JUMP INVALID LOG2 PUSH5 0x6970667358 0x22 SLT KECCAK256 0xCA CALL MSIZE CREATE2 DELEGATECALL 0xFC DUP15 0xD2 PUSH27 0x9F0F7BB4587664F591C273D9967D0078B8E38BEC4831C964736F6C PUSH4 0x4300080A STOP CALLER "
				},
				"gasEstimates": {
					"creation": {
						"codeDepositCost": "2052800",
						"executionCost": "24284",
						"totalCost": "2077084"
					},
					"external": {
						"AddCandidate(address,uint256)": "infinite",
						"AllCandidates(uint256)": "infinite",
						"NoOfRegisteredCandidates(uint256)": "infinite",
						"VotingKey(uint256)": "infinite",
						"VotingStruct(uint256)": "infinite",
						"createPoll(string,uint32)": "infinite",
						"getVotePollProps(uint256)": "infinite",
						"metaVotingHash(address,uint256,uint256,uint256)": "infinite",
						"replayNonce(address)": "2881",
						"revealWinner(uint256)": "infinite",
						"setVotingState(uint256)": "32588",
						"vote(address,uint256,uint256,bytes)": "infinite",
						"votingPoll(uint256)": "infinite"
					},
					"internal": {
						"countVote(address,uint256,address)": "51269",
						"getPosition(uint256,uint256)": "6717",
						"getSigner(bytes32,bytes memory)": "infinite"
					}
				},
				"methodIdentifiers": {
					"AddCandidate(address,uint256)": "049d1c8b",
					"AllCandidates(uint256)": "8ac3c3c2",
					"NoOfRegisteredCandidates(uint256)": "66c5343b",
					"VotingKey(uint256)": "ae928e3e",
					"VotingStruct(uint256)": "8321f397",
					"createPoll(string,uint32)": "f762f4c0",
					"getVotePollProps(uint256)": "278e2c90",
					"metaVotingHash(address,uint256,uint256,uint256)": "bfe2e25d",
					"replayNonce(address)": "67d407df",
					"revealWinner(uint256)": "8ccb59e8",
					"setVotingState(uint256)": "c57003cc",
					"vote(address,uint256,uint256,bytes)": "c10d6cec",
					"votingPoll(uint256)": "e615f104"
				}
			},
			"storageLayout": {
				"storage": [
					{
						"astId": 4,
						"contract": "src/voting.sol:Voting",
						"label": "id",
						"offset": 0,
						"slot": "0",
						"type": "t_uint256"
					},
					{
						"astId": 21,
						"contract": "src/voting.sol:Voting",
						"label": "VotingKey",
						"offset": 0,
						"slot": "1",
						"type": "t_array(t_uint256)dyn_storage"
					},
					{
						"astId": 25,
						"contract": "src/voting.sol:Voting",
						"label": "VotingStruct",
						"offset": 0,
						"slot": "2",
						"type": "t_array(t_struct(VotingPoll)18_storage)dyn_storage"
					},
					{
						"astId": 30,
						"contract": "src/voting.sol:Voting",
						"label": "votingPoll",
						"offset": 0,
						"slot": "3",
						"type": "t_mapping(t_uint256,t_struct(VotingPoll)18_storage)"
					},
					{
						"astId": 34,
						"contract": "src/voting.sol:Voting",
						"label": "replayNonce",
						"offset": 0,
						"slot": "4",
						"type": "t_mapping(t_address,t_uint256)"
					},
					{
						"astId": 40,
						"contract": "src/voting.sol:Voting",
						"label": "CandidateStatus",
						"offset": 0,
						"slot": "5",
						"type": "t_mapping(t_uint256,t_mapping(t_address,t_bool))"
					},
					{
						"astId": 46,
						"contract": "src/voting.sol:Voting",
						"label": "CandidateVote",
						"offset": 0,
						"slot": "6",
						"type": "t_mapping(t_uint256,t_mapping(t_address,t_uint256))"
					},
					{
						"astId": 52,
						"contract": "src/voting.sol:Voting",
						"label": "hasVoted",
						"offset": 0,
						"slot": "7",
						"type": "t_mapping(t_uint256,t_mapping(t_address,t_bool))"
					}
				],
				"types": {
					"t_address": {
						"encoding": "inplace",
						"label": "address",
						"numberOfBytes": "20"
					},
					"t_array(t_address)dyn_storage": {
						"base": "t_address",
						"encoding": "dynamic_array",
						"label": "address[]",
						"numberOfBytes": "32"
					},
					"t_array(t_struct(VotingPoll)18_storage)dyn_storage": {
						"base": "t_struct(VotingPoll)18_storage",
						"encoding": "dynamic_array",
						"label": "struct Voting.VotingPoll[]",
						"numberOfBytes": "32"
					},
					"t_array(t_uint256)dyn_storage": {
						"base": "t_uint256",
						"encoding": "dynamic_array",
						"label": "uint256[]",
						"numberOfBytes": "32"
					},
					"t_bool": {
						"encoding": "inplace",
						"label": "bool",
						"numberOfBytes": "1"
					},
					"t_mapping(t_address,t_bool)": {
						"encoding": "mapping",
						"key": "t_address",
						"label": "mapping(address => bool)",
						"numberOfBytes": "32",
						"value": "t_bool"
					},
					"t_mapping(t_address,t_uint256)": {
						"encoding": "mapping",
						"key": "t_address",
						"label": "mapping(address => uint256)",
						"numberOfBytes": "32",
						"value": "t_uint256"
					},
					"t_mapping(t_uint256,t_mapping(t_address,t_bool))": {
						"encoding": "mapping",
						"key": "t_uint256",
						"label": "mapping(uint256 => mapping(address => bool))",
						"numberOfBytes": "32",
						"value": "t_mapping(t_address,t_bool)"
					},
					"t_mapping(t_uint256,t_mapping(t_address,t_uint256))": {
						"encoding": "mapping",
						"key": "t_uint256",
						"label": "mapping(uint256 => mapping(address => uint256))",
						"numberOfBytes": "32",
						"value": "t_mapping(t_address,t_uint256)"
					},
					"t_mapping(t_uint256,t_struct(VotingPoll)18_storage)": {
						"encoding": "mapping",
						"key": "t_uint256",
						"label": "mapping(uint256 => struct Voting.VotingPoll)",
						"numberOfBytes": "32",
						"value": "t_struct(VotingPoll)18_storage"
					},
					"t_string_storage": {
						"encoding": "bytes",
						"label": "string",
						"numberOfBytes": "32"
					},
					"t_struct(VotingPoll)18_storage": {
						"encoding": "inplace",
						"label": "struct Voting.VotingPoll",
						"members": [
							{
								"astId": 6,
								"contract": "src/voting.sol:Voting",
								"label": "name",
								"offset": 0,
								"slot": "0",
								"type": "t_string_storage"
							},
							{
								"astId": 8,
								"contract": "src/voting.sol:Voting",
								"label": "chairman",
								"offset": 0,
								"slot": "1",
								"type": "t_address"
							},
							{
								"astId": 11,
								"contract": "src/voting.sol:Voting",
								"label": "candidates",
								"offset": 0,
								"slot": "2",
								"type": "t_array(t_address)dyn_storage"
							},
							{
								"astId": 13,
								"contract": "src/voting.sol:Voting",
								"label": "maxNoOfCandidates",
								"offset": 0,
								"slot": "3",
								"type": "t_uint32"
							},
							{
								"astId": 15,
								"contract": "src/voting.sol:Voting",
								"label": "currentNoOfCandidates",
								"offset": 4,
								"slot": "3",
								"type": "t_uint32"
							},
							{
								"astId": 17,
								"contract": "src/voting.sol:Voting",
								"label": "voting",
								"offset": 8,
								"slot": "3",
								"type": "t_bool"
							}
						],
						"numberOfBytes": "128"
					},
					"t_uint256": {
						"encoding": "inplace",
						"label": "uint256",
						"numberOfBytes": "32"
					},
					"t_uint32": {
						"encoding": "inplace",
						"label": "uint32",
						"numberOfBytes": "4"
					}
				}
			},
			"userdoc": {
				"kind": "user",
				"methods": {},
				"version": 1
			}
		}
	}
}