{
	"src/voting.sol": {
		"Voting": {
			"abi": [
				{
					"anonymous": false,
					"inputs": [
						{
							"indexed": false,
							"internalType": "address",
							"name": "NewCandidate",
							"type": "address"
						}
					],
					"name": "becameCandidate",
					"type": "event"
				},
				{
					"anonymous": false,
					"inputs": [
						{
							"indexed": false,
							"internalType": "address",
							"name": "_candidate",
							"type": "address"
						},
						{
							"indexed": false,
							"internalType": "bool",
							"name": "status",
							"type": "bool"
						}
					],
					"name": "voted",
					"type": "event"
				},
				{
					"inputs": [
						{
							"internalType": "address",
							"name": "_newCandidate",
							"type": "address"
						},
						{
							"internalType": "string",
							"name": "_name",
							"type": "string"
						}
					],
					"name": "AddCandidate",
					"outputs": [],
					"stateMutability": "nonpayable",
					"type": "function"
				},
				{
					"inputs": [
						{
							"internalType": "string",
							"name": "_name",
							"type": "string"
						}
					],
					"name": "AllCandidates",
					"outputs": [
						{
							"internalType": "address[]",
							"name": "_candidates",
							"type": "address[]"
						}
					],
					"stateMutability": "view",
					"type": "function"
				},
				{
					"inputs": [
						{
							"internalType": "string",
							"name": "_name",
							"type": "string"
						}
					],
					"name": "NoOfRegisteredCandidates",
					"outputs": [
						{
							"internalType": "uint256",
							"name": "",
							"type": "uint256"
						}
					],
					"stateMutability": "view",
					"type": "function"
				},
				{
					"inputs": [
						{
							"internalType": "string",
							"name": "_name",
							"type": "string"
						},
						{
							"internalType": "uint16",
							"name": "ExpectedNoOfCandidate",
							"type": "uint16"
						}
					],
					"name": "createPoll",
					"outputs": [
						{
							"internalType": "string",
							"name": "",
							"type": "string"
						},
						{
							"internalType": "uint256",
							"name": "Candidate",
							"type": "uint256"
						}
					],
					"stateMutability": "nonpayable",
					"type": "function"
				},
				{
					"inputs": [
						{
							"internalType": "string",
							"name": "_name",
							"type": "string"
						},
						{
							"internalType": "uint256",
							"name": "i",
							"type": "uint256"
						}
					],
					"name": "getUint",
					"outputs": [
						{
							"internalType": "uint256",
							"name": "val",
							"type": "uint256"
						}
					],
					"stateMutability": "view",
					"type": "function"
				},
				{
					"inputs": [
						{
							"internalType": "address",
							"name": "Cand",
							"type": "address"
						},
						{
							"internalType": "string",
							"name": "_name",
							"type": "string"
						},
						{
							"internalType": "uint256",
							"name": "nonce",
							"type": "uint256"
						},
						{
							"internalType": "uint256",
							"name": "time",
							"type": "uint256"
						}
					],
					"name": "metaVotingHash",
					"outputs": [
						{
							"internalType": "bytes32",
							"name": "",
							"type": "bytes32"
						}
					],
					"stateMutability": "view",
					"type": "function"
				},
				{
					"inputs": [
						{
							"internalType": "address",
							"name": "",
							"type": "address"
						}
					],
					"name": "replayNonce",
					"outputs": [
						{
							"internalType": "uint256",
							"name": "",
							"type": "uint256"
						}
					],
					"stateMutability": "view",
					"type": "function"
				},
				{
					"inputs": [
						{
							"internalType": "string",
							"name": "_name",
							"type": "string"
						}
					],
					"name": "revealWinner",
					"outputs": [
						{
							"internalType": "uint256[]",
							"name": "CV",
							"type": "uint256[]"
						},
						{
							"internalType": "address",
							"name": "",
							"type": "address"
						},
						{
							"internalType": "uint256",
							"name": "",
							"type": "uint256"
						}
					],
					"stateMutability": "view",
					"type": "function"
				},
				{
					"inputs": [
						{
							"internalType": "string",
							"name": "_name",
							"type": "string"
						}
					],
					"name": "setVotingState",
					"outputs": [],
					"stateMutability": "nonpayable",
					"type": "function"
				},
				{
					"inputs": [
						{
							"internalType": "address",
							"name": "Cand",
							"type": "address"
						},
						{
							"internalType": "string",
							"name": "_name",
							"type": "string"
						},
						{
							"internalType": "uint256",
							"name": "nonce",
							"type": "uint256"
						},
						{
							"internalType": "bytes",
							"name": "signature",
							"type": "bytes"
						}
					],
					"name": "vote",
					"outputs": [],
					"stateMutability": "nonpayable",
					"type": "function"
				},
				{
					"inputs": [
						{
							"internalType": "string",
							"name": "",
							"type": "string"
						}
					],
					"name": "votingPoll",
					"outputs": [
						{
							"internalType": "address",
							"name": "chairman",
							"type": "address"
						},
						{
							"internalType": "uint32",
							"name": "maxNoOfCandidates",
							"type": "uint32"
						},
						{
							"internalType": "uint16",
							"name": "currentNoOfCandidates",
							"type": "uint16"
						},
						{
							"internalType": "bool",
							"name": "voting",
							"type": "bool"
						}
					],
					"stateMutability": "view",
					"type": "function"
				},
				{
					"stateMutability": "payable",
					"type": "receive"
				}
			],
			"devdoc": {
				"kind": "dev",
				"methods": {},
				"version": 1
			},
			"evm": {
				"assembly": "    /* \"src/voting.sol\":63:5263  contract Voting{... */\n  mstore(0x40, 0x80)\n  callvalue\n  dup1\n  iszero\n  tag_1\n  jumpi\n  0x00\n  dup1\n  revert\ntag_1:\n  pop\n  dataSize(sub_0)\n  dup1\n  dataOffset(sub_0)\n  0x00\n  codecopy\n  0x00\n  return\nstop\n\nsub_0: assembly {\n        /* \"src/voting.sol\":63:5263  contract Voting{... */\n      mstore(0x40, 0x80)\n      jumpi(tag_1, lt(calldatasize, 0x04))\n      shr(0xe0, calldataload(0x00))\n      dup1\n      0x63ee965a\n      gt\n      tag_14\n      jumpi\n      dup1\n      0x63ee965a\n      eq\n      tag_8\n      jumpi\n      dup1\n      0x67d407df\n      eq\n      tag_9\n      jumpi\n      dup1\n      0x8579cacd\n      eq\n      tag_10\n      jumpi\n      dup1\n      0xaf7cbc0d\n      eq\n      tag_11\n      jumpi\n      dup1\n      0xbd807c6c\n      eq\n      tag_12\n      jumpi\n      dup1\n      0xf0e4de22\n      eq\n      tag_13\n      jumpi\n      jump(tag_2)\n    tag_14:\n      dup1\n      0x01ff993b\n      eq\n      tag_3\n      jumpi\n      dup1\n      0x0968d4b1\n      eq\n      tag_4\n      jumpi\n      dup1\n      0x12f0da4b\n      eq\n      tag_5\n      jumpi\n      dup1\n      0x4fcf1f39\n      eq\n      tag_6\n      jumpi\n      dup1\n      0x57f53967\n      eq\n      tag_7\n      jumpi\n      jump(tag_2)\n    tag_1:\n      jumpi(tag_2, calldatasize)\n      stop\n    tag_2:\n      0x00\n      dup1\n      revert\n        /* \"src/voting.sol\":4414:4642  function metaVotingHash(address Cand, string memory _name, uint256 nonce, uint256 time) public view returns(bytes32){... */\n    tag_3:\n      callvalue\n      dup1\n      iszero\n      tag_17\n      jumpi\n      0x00\n      dup1\n      revert\n    tag_17:\n      pop\n      tag_18\n      0x04\n      dup1\n      calldatasize\n      sub\n      dup2\n      add\n      swap1\n      tag_19\n      swap2\n      swap1\n      tag_20\n      jump\t// in\n    tag_19:\n      tag_21\n      jump\t// in\n    tag_18:\n      mload(0x40)\n      tag_22\n      swap2\n      swap1\n      tag_23\n      jump\t// in\n    tag_22:\n      mload(0x40)\n      dup1\n      swap2\n      sub\n      swap1\n      return\n        /* \"src/voting.sol\":1432:1721  function createPoll(string memory _name, uint16 ExpectedNoOfCandidate) external returns(string memory, uint Candidate){... */\n    tag_4:\n      callvalue\n      dup1\n      iszero\n      tag_24\n      jumpi\n      0x00\n      dup1\n      revert\n    tag_24:\n      pop\n      tag_25\n      0x04\n      dup1\n      calldatasize\n      sub\n      dup2\n      add\n      swap1\n      tag_26\n      swap2\n      swap1\n      tag_27\n      jump\t// in\n    tag_26:\n      tag_28\n      jump\t// in\n    tag_25:\n      mload(0x40)\n      tag_29\n      swap3\n      swap2\n      swap1\n      tag_30\n      jump\t// in\n    tag_29:\n      mload(0x40)\n      dup1\n      swap2\n      sub\n      swap1\n      return\n        /* \"src/voting.sol\":2240:2806  function vote(address Cand, string memory _name , uint256 nonce, bytes memory signature) external  isCandidate(Cand, _name) StillVoting(_name){... */\n    tag_5:\n      callvalue\n      dup1\n      iszero\n      tag_31\n      jumpi\n      0x00\n      dup1\n      revert\n    tag_31:\n      pop\n      tag_32\n      0x04\n      dup1\n      calldatasize\n      sub\n      dup2\n      add\n      swap1\n      tag_33\n      swap2\n      swap1\n      tag_34\n      jump\t// in\n    tag_33:\n      tag_35\n      jump\t// in\n    tag_32:\n      stop\n        /* \"src/voting.sol\":3412:4018  function revealWinner( string memory _name) external view returns ( uint[] memory CV, address, uint){... */\n    tag_6:\n      callvalue\n      dup1\n      iszero\n      tag_36\n      jumpi\n      0x00\n      dup1\n      revert\n    tag_36:\n      pop\n      tag_37\n      0x04\n      dup1\n      calldatasize\n      sub\n      dup2\n      add\n      swap1\n      tag_38\n      swap2\n      swap1\n      tag_39\n      jump\t// in\n    tag_38:\n      tag_40\n      jump\t// in\n    tag_37:\n      mload(0x40)\n      tag_41\n      swap4\n      swap3\n      swap2\n      swap1\n      tag_42\n      jump\t// in\n    tag_41:\n      mload(0x40)\n      dup1\n      swap2\n      sub\n      swap1\n      return\n        /* \"src/voting.sol\":1725:2237  function AddCandidate(address _newCandidate, string memory _name) external{... */\n    tag_7:\n      callvalue\n      dup1\n      iszero\n      tag_43\n      jumpi\n      0x00\n      dup1\n      revert\n    tag_43:\n      pop\n      tag_44\n      0x04\n      dup1\n      calldatasize\n      sub\n      dup2\n      add\n      swap1\n      tag_45\n      swap2\n      swap1\n      tag_46\n      jump\t// in\n    tag_45:\n      tag_47\n      jump\t// in\n    tag_44:\n      stop\n        /* \"src/voting.sol\":620:667  mapping(string => VotingPoll) public votingPoll */\n    tag_8:\n      callvalue\n      dup1\n      iszero\n      tag_48\n      jumpi\n      0x00\n      dup1\n      revert\n    tag_48:\n      pop\n      tag_49\n      0x04\n      dup1\n      calldatasize\n      sub\n      dup2\n      add\n      swap1\n      tag_50\n      swap2\n      swap1\n      tag_39\n      jump\t// in\n    tag_50:\n      tag_51\n      jump\t// in\n    tag_49:\n      mload(0x40)\n      tag_52\n      swap5\n      swap4\n      swap3\n      swap2\n      swap1\n      tag_53\n      jump\t// in\n    tag_52:\n      mload(0x40)\n      dup1\n      swap2\n      sub\n      swap1\n      return\n        /* \"src/voting.sol\":673:720  mapping (address => uint256) public replayNonce */\n    tag_9:\n      callvalue\n      dup1\n      iszero\n      tag_54\n      jumpi\n      0x00\n      dup1\n      revert\n    tag_54:\n      pop\n      tag_55\n      0x04\n      dup1\n      calldatasize\n      sub\n      dup2\n      add\n      swap1\n      tag_56\n      swap2\n      swap1\n      tag_57\n      jump\t// in\n    tag_56:\n      tag_58\n      jump\t// in\n    tag_55:\n      mload(0x40)\n      tag_59\n      swap2\n      swap1\n      tag_60\n      jump\t// in\n    tag_59:\n      mload(0x40)\n      dup1\n      swap2\n      sub\n      swap1\n      return\n        /* \"src/voting.sol\":3057:3228  function NoOfRegisteredCandidates( string memory _name) public view returns(uint){... */\n    tag_10:\n      callvalue\n      dup1\n      iszero\n      tag_61\n      jumpi\n      0x00\n      dup1\n      revert\n    tag_61:\n      pop\n      tag_62\n      0x04\n      dup1\n      calldatasize\n      sub\n      dup2\n      add\n      swap1\n      tag_63\n      swap2\n      swap1\n      tag_39\n      jump\t// in\n    tag_63:\n      tag_64\n      jump\t// in\n    tag_62:\n      mload(0x40)\n      tag_65\n      swap2\n      swap1\n      tag_60\n      jump\t// in\n    tag_65:\n      mload(0x40)\n      dup1\n      swap2\n      sub\n      swap1\n      return\n        /* \"src/voting.sol\":3236:3409  function AllCandidates( string memory _name) public view returns(address[] memory _candidates){... */\n    tag_11:\n      callvalue\n      dup1\n      iszero\n      tag_66\n      jumpi\n      0x00\n      dup1\n      revert\n    tag_66:\n      pop\n      tag_67\n      0x04\n      dup1\n      calldatasize\n      sub\n      dup2\n      add\n      swap1\n      tag_68\n      swap2\n      swap1\n      tag_39\n      jump\t// in\n    tag_68:\n      tag_69\n      jump\t// in\n    tag_67:\n      mload(0x40)\n      tag_70\n      swap2\n      swap1\n      tag_71\n      jump\t// in\n    tag_70:\n      mload(0x40)\n      dup1\n      swap2\n      sub\n      swap1\n      return\n        /* \"src/voting.sol\":4226:4407  function getUint( string memory _name, uint i) external view returns(uint val){... */\n    tag_12:\n      callvalue\n      dup1\n      iszero\n      tag_72\n      jumpi\n      0x00\n      dup1\n      revert\n    tag_72:\n      pop\n      tag_73\n      0x04\n      dup1\n      calldatasize\n      sub\n      dup2\n      add\n      swap1\n      tag_74\n      swap2\n      swap1\n      tag_75\n      jump\t// in\n    tag_74:\n      tag_76\n      jump\t// in\n    tag_73:\n      mload(0x40)\n      tag_77\n      swap2\n      swap1\n      tag_60\n      jump\t// in\n    tag_77:\n      mload(0x40)\n      dup1\n      swap2\n      sub\n      swap1\n      return\n        /* \"src/voting.sol\":4021:4223  function setVotingState( string memory _name) external {... */\n    tag_13:\n      callvalue\n      dup1\n      iszero\n      tag_78\n      jumpi\n      0x00\n      dup1\n      revert\n    tag_78:\n      pop\n      tag_79\n      0x04\n      dup1\n      calldatasize\n      sub\n      dup2\n      add\n      swap1\n      tag_80\n      swap2\n      swap1\n      tag_39\n      jump\t// in\n    tag_80:\n      tag_81\n      jump\t// in\n    tag_79:\n      stop\n        /* \"src/voting.sol\":4414:4642  function metaVotingHash(address Cand, string memory _name, uint256 nonce, uint256 time) public view returns(bytes32){... */\n    tag_21:\n        /* \"src/voting.sol\":4522:4529  bytes32 */\n      0x00\n        /* \"src/voting.sol\":4578:4582  this */\n      address\n        /* \"src/voting.sol\":4611:4615  Cand */\n      dup6\n        /* \"src/voting.sol\":4617:4622  _name */\n      dup6\n        /* \"src/voting.sol\":4624:4629  nonce */\n      dup6\n        /* \"src/voting.sol\":4631:4635  time */\n      dup6\n        /* \"src/voting.sol\":4553:4636  abi.encodePacked(address(this),\"metatransaction Voting \", Cand, _name, nonce, time) */\n      add(0x20, mload(0x40))\n      tag_83\n      swap6\n      swap5\n      swap4\n      swap3\n      swap2\n      swap1\n      tag_84\n      jump\t// in\n    tag_83:\n      mload(0x40)\n      0x20\n      dup2\n      dup4\n      sub\n      sub\n      dup2\n      mstore\n      swap1\n      0x40\n      mstore\n        /* \"src/voting.sol\":4543:4637  keccak256(abi.encodePacked(address(this),\"metatransaction Voting \", Cand, _name, nonce, time)) */\n      dup1\n      mload\n      swap1\n      0x20\n      add\n      keccak256\n        /* \"src/voting.sol\":4536:4637  return keccak256(abi.encodePacked(address(this),\"metatransaction Voting \", Cand, _name, nonce, time)) */\n      swap1\n      pop\n        /* \"src/voting.sol\":4414:4642  function metaVotingHash(address Cand, string memory _name, uint256 nonce, uint256 time) public view returns(bytes32){... */\n      swap5\n      swap4\n      pop\n      pop\n      pop\n      pop\n      jump\t// out\n        /* \"src/voting.sol\":1432:1721  function createPoll(string memory _name, uint16 ExpectedNoOfCandidate) external returns(string memory, uint Candidate){... */\n    tag_28:\n        /* \"src/voting.sol\":1520:1533  string memory */\n      0x60\n        /* \"src/voting.sol\":1535:1549  uint Candidate */\n      0x00\n        /* \"src/voting.sol\":1556:1577  VotingPoll storage VP */\n      dup1\n        /* \"src/voting.sol\":1580:1590  votingPoll */\n      0x00\n        /* \"src/voting.sol\":1591:1596  _name */\n      dup6\n        /* \"src/voting.sol\":1580:1597  votingPoll[_name] */\n      mload(0x40)\n      tag_86\n      swap2\n      swap1\n      tag_87\n      jump\t// in\n    tag_86:\n      swap1\n      dup2\n      mstore\n      0x20\n      add\n      mload(0x40)\n      dup1\n      swap2\n      sub\n      swap1\n      keccak256\n        /* \"src/voting.sol\":1556:1597  VotingPoll storage VP = votingPoll[_name] */\n      swap1\n      pop\n        /* \"src/voting.sol\":1617:1627  msg.sender */\n      caller\n        /* \"src/voting.sol\":1603:1605  VP */\n      dup2\n        /* \"src/voting.sol\":1603:1614  VP.chairman */\n      0x00\n      add\n      0x00\n        /* \"src/voting.sol\":1603:1627  VP.chairman = msg.sender */\n      0x0100\n      exp\n      dup2\n      sload\n      dup2\n      0xffffffffffffffffffffffffffffffffffffffff\n      mul\n      not\n      and\n      swap1\n      dup4\n      0xffffffffffffffffffffffffffffffffffffffff\n      and\n      mul\n      or\n      swap1\n      sstore\n      pop\n        /* \"src/voting.sol\":1655:1676  ExpectedNoOfCandidate */\n      dup4\n        /* \"src/voting.sol\":1633:1676  VP.maxNoOfCandidates =ExpectedNoOfCandidate */\n      0xffff\n      and\n        /* \"src/voting.sol\":1633:1635  VP */\n      dup2\n        /* \"src/voting.sol\":1633:1653  VP.maxNoOfCandidates */\n      0x02\n      add\n      0x00\n        /* \"src/voting.sol\":1633:1676  VP.maxNoOfCandidates =ExpectedNoOfCandidate */\n      0x0100\n      exp\n      dup2\n      sload\n      dup2\n      0xffffffff\n      mul\n      not\n      and\n      swap1\n      dup4\n      0xffffffff\n      and\n      mul\n      or\n      swap1\n      sstore\n      pop\n        /* \"src/voting.sol\":1689:1694  _name */\n      dup5\n        /* \"src/voting.sol\":1696:1717  ExpectedNoOfCandidate */\n      dup5\n        /* \"src/voting.sol\":1682:1718  return(_name, ExpectedNoOfCandidate) */\n      dup1\n      0xffff\n      and\n      swap1\n      pop\n      swap3\n      pop\n      swap3\n      pop\n      pop\n        /* \"src/voting.sol\":1432:1721  function createPoll(string memory _name, uint16 ExpectedNoOfCandidate) external returns(string memory, uint Candidate){... */\n      swap3\n      pop\n      swap3\n      swap1\n      pop\n      jump\t// out\n        /* \"src/voting.sol\":2240:2806  function vote(address Cand, string memory _name , uint256 nonce, bytes memory signature) external  isCandidate(Cand, _name) StillVoting(_name){... */\n    tag_35:\n        /* \"src/voting.sol\":2351:2355  Cand */\n      dup4\n        /* \"src/voting.sol\":2357:2362  _name */\n      dup4\n        /* \"src/voting.sol\":1000:1021  VotingPoll storage VP */\n      0x00\n        /* \"src/voting.sol\":1024:1034  votingPoll */\n      dup1\n        /* \"src/voting.sol\":1035:1040  _name */\n      dup3\n        /* \"src/voting.sol\":1024:1041  votingPoll[_name] */\n      mload(0x40)\n      tag_89\n      swap2\n      swap1\n      tag_87\n      jump\t// in\n    tag_89:\n      swap1\n      dup2\n      mstore\n      0x20\n      add\n      mload(0x40)\n      dup1\n      swap2\n      sub\n      swap1\n      keccak256\n        /* \"src/voting.sol\":1000:1041  VotingPoll storage VP = votingPoll[_name] */\n      swap1\n      pop\n        /* \"src/voting.sol\":1081:1085  true */\n      0x01\n        /* \"src/voting.sol\":1055:1085  VP.CandidateStatus[Cand]==true */\n      iszero\n      iszero\n        /* \"src/voting.sol\":1055:1057  VP */\n      dup2\n        /* \"src/voting.sol\":1055:1073  VP.CandidateStatus */\n      0x03\n      add\n        /* \"src/voting.sol\":1055:1079  VP.CandidateStatus[Cand] */\n      0x00\n        /* \"src/voting.sol\":1074:1078  Cand */\n      dup6\n        /* \"src/voting.sol\":1055:1079  VP.CandidateStatus[Cand] */\n      0xffffffffffffffffffffffffffffffffffffffff\n      and\n      0xffffffffffffffffffffffffffffffffffffffff\n      and\n      dup2\n      mstore\n      0x20\n      add\n      swap1\n      dup2\n      mstore\n      0x20\n      add\n      0x00\n      keccak256\n      0x00\n      swap1\n      sload\n      swap1\n      0x0100\n      exp\n      swap1\n      div\n      0xff\n      and\n        /* \"src/voting.sol\":1055:1085  VP.CandidateStatus[Cand]==true */\n      iszero\n      iszero\n      eq\n        /* \"src/voting.sol\":1047:1131  require(VP.CandidateStatus[Cand]==true,'This address does not exist as a candidate') */\n      tag_90\n      jumpi\n      mload(0x40)\n      0x08c379a000000000000000000000000000000000000000000000000000000000\n      dup2\n      mstore\n      0x04\n      add\n      tag_91\n      swap1\n      tag_92\n      jump\t// in\n    tag_91:\n      mload(0x40)\n      dup1\n      swap2\n      sub\n      swap1\n      revert\n    tag_90:\n        /* \"src/voting.sol\":2376:2381  _name */\n      dup6\n        /* \"src/voting.sol\":1192:1213  VotingPoll storage VP */\n      0x00\n        /* \"src/voting.sol\":1216:1226  votingPoll */\n      dup1\n        /* \"src/voting.sol\":1227:1232  _name */\n      dup3\n        /* \"src/voting.sol\":1216:1233  votingPoll[_name] */\n      mload(0x40)\n      tag_94\n      swap2\n      swap1\n      tag_87\n      jump\t// in\n    tag_94:\n      swap1\n      dup2\n      mstore\n      0x20\n      add\n      mload(0x40)\n      dup1\n      swap2\n      sub\n      swap1\n      keccak256\n        /* \"src/voting.sol\":1192:1233  VotingPoll storage VP = votingPoll[_name] */\n      swap1\n      pop\n        /* \"src/voting.sol\":1260:1264  true */\n      0x01\n        /* \"src/voting.sol\":1247:1264  VP.voting == true */\n      iszero\n      iszero\n        /* \"src/voting.sol\":1247:1249  VP */\n      dup2\n        /* \"src/voting.sol\":1247:1256  VP.voting */\n      0x02\n      add\n      0x06\n      swap1\n      sload\n      swap1\n      0x0100\n      exp\n      swap1\n      div\n      0xff\n      and\n        /* \"src/voting.sol\":1247:1264  VP.voting == true */\n      iszero\n      iszero\n      eq\n        /* \"src/voting.sol\":1239:1285  require(VP.voting == true, \"voting has ended\") */\n      tag_95\n      jumpi\n      mload(0x40)\n      0x08c379a000000000000000000000000000000000000000000000000000000000\n      dup2\n      mstore\n      0x04\n      add\n      tag_96\n      swap1\n      tag_97\n      jump\t// in\n    tag_96:\n      mload(0x40)\n      dup1\n      swap2\n      sub\n      swap1\n      revert\n    tag_95:\n        /* \"src/voting.sol\":2389:2405  bytes32 metaHash */\n      0x00\n        /* \"src/voting.sol\":2408:2456  metaVotingHash(Cand,_name,nonce,block.timestamp) */\n      tag_99\n        /* \"src/voting.sol\":2423:2427  Cand */\n      dup11\n        /* \"src/voting.sol\":2428:2433  _name */\n      dup11\n        /* \"src/voting.sol\":2434:2439  nonce */\n      dup11\n        /* \"src/voting.sol\":2440:2455  block.timestamp */\n      timestamp\n        /* \"src/voting.sol\":2408:2422  metaVotingHash */\n      tag_21\n        /* \"src/voting.sol\":2408:2456  metaVotingHash(Cand,_name,nonce,block.timestamp) */\n      jump\t// in\n    tag_99:\n        /* \"src/voting.sol\":2389:2456  bytes32 metaHash = metaVotingHash(Cand,_name,nonce,block.timestamp) */\n      swap1\n      pop\n        /* \"src/voting.sol\":2463:2477  address signer */\n      0x00\n        /* \"src/voting.sol\":2480:2509  getSigner(metaHash,signature) */\n      tag_100\n        /* \"src/voting.sol\":2490:2498  metaHash */\n      dup3\n        /* \"src/voting.sol\":2499:2508  signature */\n      dup10\n        /* \"src/voting.sol\":2480:2489  getSigner */\n      tag_101\n        /* \"src/voting.sol\":2480:2509  getSigner(metaHash,signature) */\n      jump\t// in\n    tag_100:\n        /* \"src/voting.sol\":2463:2509  address signer = getSigner(metaHash,signature) */\n      swap1\n      pop\n        /* \"src/voting.sol\":2540:2541  0 */\n      0x00\n        /* \"src/voting.sol\":2524:2542  signer!=address(0) */\n      0xffffffffffffffffffffffffffffffffffffffff\n      and\n        /* \"src/voting.sol\":2524:2530  signer */\n      dup2\n        /* \"src/voting.sol\":2524:2542  signer!=address(0) */\n      0xffffffffffffffffffffffffffffffffffffffff\n      and\n      eq\n      iszero\n        /* \"src/voting.sol\":2516:2543  require(signer!=address(0)) */\n      tag_102\n      jumpi\n      0x00\n      dup1\n      revert\n    tag_102:\n        /* \"src/voting.sol\":2566:2577  replayNonce */\n      0x01\n        /* \"src/voting.sol\":2566:2585  replayNonce[signer] */\n      0x00\n        /* \"src/voting.sol\":2578:2584  signer */\n      dup3\n        /* \"src/voting.sol\":2566:2585  replayNonce[signer] */\n      0xffffffffffffffffffffffffffffffffffffffff\n      and\n      0xffffffffffffffffffffffffffffffffffffffff\n      and\n      dup2\n      mstore\n      0x20\n      add\n      swap1\n      dup2\n      mstore\n      0x20\n      add\n      0x00\n      keccak256\n      sload\n        /* \"src/voting.sol\":2557:2562  nonce */\n      dup10\n        /* \"src/voting.sol\":2557:2585  nonce == replayNonce[signer] */\n      eq\n        /* \"src/voting.sol\":2549:2586  require(nonce == replayNonce[signer]) */\n      tag_103\n      jumpi\n      0x00\n      dup1\n      revert\n    tag_103:\n        /* \"src/voting.sol\":2592:2603  replayNonce */\n      0x01\n        /* \"src/voting.sol\":2592:2611  replayNonce[signer] */\n      0x00\n        /* \"src/voting.sol\":2604:2610  signer */\n      dup3\n        /* \"src/voting.sol\":2592:2611  replayNonce[signer] */\n      0xffffffffffffffffffffffffffffffffffffffff\n      and\n      0xffffffffffffffffffffffffffffffffffffffff\n      and\n      dup2\n      mstore\n      0x20\n      add\n      swap1\n      dup2\n      mstore\n      0x20\n      add\n      0x00\n      keccak256\n      0x00\n        /* \"src/voting.sol\":2592:2613  replayNonce[signer]++ */\n      dup2\n      sload\n      dup1\n      swap3\n      swap2\n      swap1\n      tag_104\n      swap1\n      tag_105\n      jump\t// in\n    tag_104:\n      swap2\n      swap1\n      pop\n      sstore\n      pop\n        /* \"src/voting.sol\":2620:2641  VotingPoll storage VP */\n      0x00\n        /* \"src/voting.sol\":2644:2654  votingPoll */\n      dup1\n        /* \"src/voting.sol\":2655:2660  _name */\n      dup12\n        /* \"src/voting.sol\":2644:2661  votingPoll[_name] */\n      mload(0x40)\n      tag_106\n      swap2\n      swap1\n      tag_87\n      jump\t// in\n    tag_106:\n      swap1\n      dup2\n      mstore\n      0x20\n      add\n      mload(0x40)\n      dup1\n      swap2\n      sub\n      swap1\n      keccak256\n        /* \"src/voting.sol\":2620:2661  VotingPoll storage VP = votingPoll[_name] */\n      swap1\n      pop\n        /* \"src/voting.sol\":2703:2708  false */\n      0x00\n        /* \"src/voting.sol\":2676:2708  VP.hasVoted[msg.sender] == false */\n      iszero\n      iszero\n        /* \"src/voting.sol\":2676:2678  VP */\n      dup2\n        /* \"src/voting.sol\":2676:2687  VP.hasVoted */\n      0x04\n      add\n        /* \"src/voting.sol\":2676:2699  VP.hasVoted[msg.sender] */\n      0x00\n        /* \"src/voting.sol\":2688:2698  msg.sender */\n      caller\n        /* \"src/voting.sol\":2676:2699  VP.hasVoted[msg.sender] */\n      0xffffffffffffffffffffffffffffffffffffffff\n      and\n      0xffffffffffffffffffffffffffffffffffffffff\n      and\n      dup2\n      mstore\n      0x20\n      add\n      swap1\n      dup2\n      mstore\n      0x20\n      add\n      0x00\n      keccak256\n      0x00\n      swap1\n      sload\n      swap1\n      0x0100\n      exp\n      swap1\n      div\n      0xff\n      and\n        /* \"src/voting.sol\":2676:2708  VP.hasVoted[msg.sender] == false */\n      iszero\n      iszero\n      eq\n        /* \"src/voting.sol\":2668:2730  require(VP.hasVoted[msg.sender] == false, \"You already voted\") */\n      tag_107\n      jumpi\n      mload(0x40)\n      0x08c379a000000000000000000000000000000000000000000000000000000000\n      dup2\n      mstore\n      0x04\n      add\n      tag_108\n      swap1\n      tag_109\n      jump\t// in\n    tag_108:\n      mload(0x40)\n      dup1\n      swap2\n      sub\n      swap1\n      revert\n    tag_107:\n        /* \"src/voting.sol\":2738:2772  countVote(Cand, _name, msg.sender) */\n      tag_110\n        /* \"src/voting.sol\":2748:2752  Cand */\n      dup13\n        /* \"src/voting.sol\":2754:2759  _name */\n      dup13\n        /* \"src/voting.sol\":2761:2771  msg.sender */\n      caller\n        /* \"src/voting.sol\":2738:2747  countVote */\n      tag_111\n        /* \"src/voting.sol\":2738:2772  countVote(Cand, _name, msg.sender) */\n      jump\t// in\n    tag_110:\n      pop\n        /* \"src/voting.sol\":2784:2801  voted(Cand, true) */\n      0xf3f16a15f074b71c5138107dfc7c63b80524d5411cb967caa97d8d9f12b2fd6b\n        /* \"src/voting.sol\":2790:2794  Cand */\n      dup13\n        /* \"src/voting.sol\":2796:2800  true */\n      0x01\n        /* \"src/voting.sol\":2784:2801  voted(Cand, true) */\n      mload(0x40)\n      tag_112\n      swap3\n      swap2\n      swap1\n      tag_113\n      jump\t// in\n    tag_112:\n      mload(0x40)\n      dup1\n      swap2\n      sub\n      swap1\n      log1\n        /* \"src/voting.sol\":2382:2806  {... */\n      pop\n      pop\n      pop\n        /* \"src/voting.sol\":1186:1296  {... */\n      pop\n        /* \"src/voting.sol\":1137:1138  _ */\n      pop\n        /* \"src/voting.sol\":994:1141  {... */\n      pop\n        /* \"src/voting.sol\":2240:2806  function vote(address Cand, string memory _name , uint256 nonce, bytes memory signature) external  isCandidate(Cand, _name) StillVoting(_name){... */\n      pop\n      pop\n      pop\n      pop\n      pop\n      pop\n      jump\t// out\n        /* \"src/voting.sol\":3412:4018  function revealWinner( string memory _name) external view returns ( uint[] memory CV, address, uint){... */\n    tag_40:\n        /* \"src/voting.sol\":3480:3496  uint[] memory CV */\n      0x60\n        /* \"src/voting.sol\":3498:3505  address */\n      0x00\n        /* \"src/voting.sol\":3507:3511  uint */\n      dup1\n        /* \"src/voting.sol\":3519:3540  VotingPoll storage VP */\n      0x00\n        /* \"src/voting.sol\":3543:3553  votingPoll */\n      dup1\n        /* \"src/voting.sol\":3554:3559  _name */\n      dup6\n        /* \"src/voting.sol\":3543:3560  votingPoll[_name] */\n      mload(0x40)\n      tag_115\n      swap2\n      swap1\n      tag_87\n      jump\t// in\n    tag_115:\n      swap1\n      dup2\n      mstore\n      0x20\n      add\n      mload(0x40)\n      dup1\n      swap2\n      sub\n      swap1\n      keccak256\n        /* \"src/voting.sol\":3519:3560  VotingPoll storage VP = votingPoll[_name] */\n      swap1\n      pop\n        /* \"src/voting.sol\":3598:3599  0 */\n      0x00\n        /* \"src/voting.sol\":3575:3600  VP.chairman != address(0) */\n      0xffffffffffffffffffffffffffffffffffffffff\n      and\n        /* \"src/voting.sol\":3575:3577  VP */\n      dup2\n        /* \"src/voting.sol\":3575:3586  VP.chairman */\n      0x00\n      add\n      0x00\n      swap1\n      sload\n      swap1\n      0x0100\n      exp\n      swap1\n      div\n      0xffffffffffffffffffffffffffffffffffffffff\n      and\n        /* \"src/voting.sol\":3575:3600  VP.chairman != address(0) */\n      0xffffffffffffffffffffffffffffffffffffffff\n      and\n      eq\n      iszero\n        /* \"src/voting.sol\":3567:3620  require(VP.chairman != address(0), \"No poll created\") */\n      tag_116\n      jumpi\n      mload(0x40)\n      0x08c379a000000000000000000000000000000000000000000000000000000000\n      dup2\n      mstore\n      0x04\n      add\n      tag_117\n      swap1\n      tag_118\n      jump\t// in\n    tag_117:\n      mload(0x40)\n      dup1\n      swap2\n      sub\n      swap1\n      revert\n    tag_116:\n        /* \"src/voting.sol\":3643:3645  VP */\n      dup1\n        /* \"src/voting.sol\":3643:3656  VP.candidates */\n      0x01\n      add\n        /* \"src/voting.sol\":3643:3663  VP.candidates.length */\n      dup1\n      sload\n      swap1\n      pop\n        /* \"src/voting.sol\":3632:3664  new uint[](VP.candidates.length) */\n      0xffffffffffffffff\n      dup2\n      gt\n      iszero\n      tag_119\n      jumpi\n      tag_120\n      tag_121\n      jump\t// in\n    tag_120:\n    tag_119:\n      mload(0x40)\n      swap1\n      dup1\n      dup3\n      mstore\n      dup1\n      0x20\n      mul\n      0x20\n      add\n      dup3\n      add\n      0x40\n      mstore\n      dup1\n      iszero\n      tag_122\n      jumpi\n      dup2\n      0x20\n      add\n      0x20\n      dup3\n      mul\n      dup1\n      calldatasize\n      dup4\n      calldatacopy\n      dup1\n      dup3\n      add\n      swap2\n      pop\n      pop\n      swap1\n      pop\n    tag_122:\n      pop\n        /* \"src/voting.sol\":3627:3664  CV = new uint[](VP.candidates.length) */\n      swap4\n      pop\n        /* \"src/voting.sol\":3671:3687  uint highestVote */\n      0x00\n        /* \"src/voting.sol\":3694:3708  address winner */\n      dup1\n        /* \"src/voting.sol\":3720:3726  uint i */\n      0x00\n        /* \"src/voting.sol\":3715:3976  for (uint i =0; i <= VP.candidates.length; i++){... */\n    tag_123:\n        /* \"src/voting.sol\":3736:3738  VP */\n      dup4\n        /* \"src/voting.sol\":3736:3749  VP.candidates */\n      0x01\n      add\n        /* \"src/voting.sol\":3736:3756  VP.candidates.length */\n      dup1\n      sload\n      swap1\n      pop\n        /* \"src/voting.sol\":3731:3732  i */\n      dup2\n        /* \"src/voting.sol\":3731:3756  i <= VP.candidates.length */\n      gt\n        /* \"src/voting.sol\":3715:3976  for (uint i =0; i <= VP.candidates.length; i++){... */\n      tag_124\n      jumpi\n        /* \"src/voting.sol\":3771:3779  uint val */\n      0x00\n        /* \"src/voting.sol\":3782:3784  VP */\n      dup5\n        /* \"src/voting.sol\":3782:3798  VP.CandidateVote */\n      0x05\n      add\n        /* \"src/voting.sol\":3782:3816  VP.CandidateVote[VP.candidates[i]] */\n      0x00\n        /* \"src/voting.sol\":3799:3801  VP */\n      dup7\n        /* \"src/voting.sol\":3799:3812  VP.candidates */\n      0x01\n      add\n        /* \"src/voting.sol\":3813:3814  i */\n      dup5\n        /* \"src/voting.sol\":3799:3815  VP.candidates[i] */\n      dup2\n      sload\n      dup2\n      lt\n      tag_126\n      jumpi\n      tag_127\n      tag_128\n      jump\t// in\n    tag_127:\n    tag_126:\n      swap1\n      0x00\n      mstore\n      keccak256(0x00, 0x20)\n      add\n      0x00\n      swap1\n      sload\n      swap1\n      0x0100\n      exp\n      swap1\n      div\n      0xffffffffffffffffffffffffffffffffffffffff\n      and\n        /* \"src/voting.sol\":3782:3816  VP.CandidateVote[VP.candidates[i]] */\n      0xffffffffffffffffffffffffffffffffffffffff\n      and\n      0xffffffffffffffffffffffffffffffffffffffff\n      and\n      dup2\n      mstore\n      0x20\n      add\n      swap1\n      dup2\n      mstore\n      0x20\n      add\n      0x00\n      keccak256\n      sload\n        /* \"src/voting.sol\":3771:3816  uint val = VP.CandidateVote[VP.candidates[i]] */\n      swap1\n      pop\n        /* \"src/voting.sol\":3832:3843  highestVote */\n      dup4\n        /* \"src/voting.sol\":3826:3829  val */\n      dup2\n        /* \"src/voting.sol\":3826:3843  val > highestVote */\n      gt\n        /* \"src/voting.sol\":3823:3917  if(val > highestVote){... */\n      iszero\n      tag_130\n      jumpi\n        /* \"src/voting.sol\":3869:3872  val */\n      dup1\n        /* \"src/voting.sol\":3855:3872  highestVote = val */\n      swap4\n      pop\n        /* \"src/voting.sol\":3893:3895  VP */\n      dup5\n        /* \"src/voting.sol\":3893:3906  VP.candidates */\n      0x01\n      add\n        /* \"src/voting.sol\":3907:3908  i */\n      dup3\n        /* \"src/voting.sol\":3893:3909  VP.candidates[i] */\n      dup2\n      sload\n      dup2\n      lt\n      tag_131\n      jumpi\n      tag_132\n      tag_128\n      jump\t// in\n    tag_132:\n    tag_131:\n      swap1\n      0x00\n      mstore\n      keccak256(0x00, 0x20)\n      add\n      0x00\n      swap1\n      sload\n      swap1\n      0x0100\n      exp\n      swap1\n      div\n      0xffffffffffffffffffffffffffffffffffffffff\n      and\n        /* \"src/voting.sol\":3884:3909  winner = VP.candidates[i] */\n      swap3\n      pop\n        /* \"src/voting.sol\":3823:3917  if(val > highestVote){... */\n    tag_130:\n        /* \"src/voting.sol\":3932:3934  VP */\n      dup5\n        /* \"src/voting.sol\":3932:3948  VP.CandidateVote */\n      0x05\n      add\n        /* \"src/voting.sol\":3932:3966  VP.CandidateVote[VP.candidates[i]] */\n      0x00\n        /* \"src/voting.sol\":3949:3951  VP */\n      dup7\n        /* \"src/voting.sol\":3949:3962  VP.candidates */\n      0x01\n      add\n        /* \"src/voting.sol\":3963:3964  i */\n      dup5\n        /* \"src/voting.sol\":3949:3965  VP.candidates[i] */\n      dup2\n      sload\n      dup2\n      lt\n      tag_134\n      jumpi\n      tag_135\n      tag_128\n      jump\t// in\n    tag_135:\n    tag_134:\n      swap1\n      0x00\n      mstore\n      keccak256(0x00, 0x20)\n      add\n      0x00\n      swap1\n      sload\n      swap1\n      0x0100\n      exp\n      swap1\n      div\n      0xffffffffffffffffffffffffffffffffffffffff\n      and\n        /* \"src/voting.sol\":3932:3966  VP.CandidateVote[VP.candidates[i]] */\n      0xffffffffffffffffffffffffffffffffffffffff\n      and\n      0xffffffffffffffffffffffffffffffffffffffff\n      and\n      dup2\n      mstore\n      0x20\n      add\n      swap1\n      dup2\n      mstore\n      0x20\n      add\n      0x00\n      keccak256\n      sload\n        /* \"src/voting.sol\":3923:3925  CV */\n      dup9\n        /* \"src/voting.sol\":3926:3927  i */\n      dup4\n        /* \"src/voting.sol\":3923:3928  CV[i] */\n      dup2\n      mload\n      dup2\n      lt\n      tag_137\n      jumpi\n      tag_138\n      tag_128\n      jump\t// in\n    tag_138:\n    tag_137:\n      0x20\n      mul\n      0x20\n      add\n      add\n        /* \"src/voting.sol\":3923:3967  CV[i] = (VP.CandidateVote[VP.candidates[i]]) */\n      dup2\n      dup2\n      mstore\n      pop\n      pop\n        /* \"src/voting.sol\":3762:3976  {... */\n      pop\n        /* \"src/voting.sol\":3758:3761  i++ */\n      dup1\n      dup1\n      tag_139\n      swap1\n      tag_105\n      jump\t// in\n    tag_139:\n      swap2\n      pop\n      pop\n        /* \"src/voting.sol\":3715:3976  for (uint i =0; i <= VP.candidates.length; i++){... */\n      jump(tag_123)\n    tag_124:\n      pop\n        /* \"src/voting.sol\":3990:3992  CV */\n      dup6\n        /* \"src/voting.sol\":3994:4000  winner */\n      dup2\n        /* \"src/voting.sol\":4002:4013  highestVote */\n      dup4\n        /* \"src/voting.sol\":3982:4014  return (CV, winner, highestVote) */\n      swap6\n      pop\n      swap6\n      pop\n      swap6\n      pop\n      pop\n      pop\n      pop\n        /* \"src/voting.sol\":3412:4018  function revealWinner( string memory _name) external view returns ( uint[] memory CV, address, uint){... */\n      swap2\n      swap4\n      swap1\n      swap3\n      pop\n      jump\t// out\n        /* \"src/voting.sol\":1725:2237  function AddCandidate(address _newCandidate, string memory _name) external{... */\n    tag_47:\n        /* \"src/voting.sol\":1806:1827  VotingPoll storage VP */\n      0x00\n        /* \"src/voting.sol\":1830:1840  votingPoll */\n      dup1\n        /* \"src/voting.sol\":1841:1846  _name */\n      dup3\n        /* \"src/voting.sol\":1830:1847  votingPoll[_name] */\n      mload(0x40)\n      tag_141\n      swap2\n      swap1\n      tag_87\n      jump\t// in\n    tag_141:\n      swap1\n      dup2\n      mstore\n      0x20\n      add\n      mload(0x40)\n      dup1\n      swap2\n      sub\n      swap1\n      keccak256\n        /* \"src/voting.sol\":1806:1847  VotingPoll storage VP = votingPoll[_name] */\n      swap1\n      pop\n        /* \"src/voting.sol\":1886:1887  0 */\n      0x00\n        /* \"src/voting.sol\":1863:1888  VP.chairman != address(0) */\n      0xffffffffffffffffffffffffffffffffffffffff\n      and\n        /* \"src/voting.sol\":1863:1865  VP */\n      dup2\n        /* \"src/voting.sol\":1863:1874  VP.chairman */\n      0x00\n      add\n      0x00\n      swap1\n      sload\n      swap1\n      0x0100\n      exp\n      swap1\n      div\n      0xffffffffffffffffffffffffffffffffffffffff\n      and\n        /* \"src/voting.sol\":1863:1888  VP.chairman != address(0) */\n      0xffffffffffffffffffffffffffffffffffffffff\n      and\n      eq\n      iszero\n        /* \"src/voting.sol\":1854:1914  require (VP.chairman != address(0) , \"yet to create a poll\") */\n      tag_142\n      jumpi\n      mload(0x40)\n      0x08c379a000000000000000000000000000000000000000000000000000000000\n      dup2\n      mstore\n      0x04\n      add\n      tag_143\n      swap1\n      tag_144\n      jump\t// in\n    tag_143:\n      mload(0x40)\n      dup1\n      swap2\n      sub\n      swap1\n      revert\n    tag_142:\n        /* \"src/voting.sol\":1945:1955  msg.sender */\n      caller\n        /* \"src/voting.sol\":1930:1955  VP.chairman == msg.sender */\n      0xffffffffffffffffffffffffffffffffffffffff\n      and\n        /* \"src/voting.sol\":1930:1932  VP */\n      dup2\n        /* \"src/voting.sol\":1930:1941  VP.chairman */\n      0x00\n      add\n      0x00\n      swap1\n      sload\n      swap1\n      0x0100\n      exp\n      swap1\n      div\n      0xffffffffffffffffffffffffffffffffffffffff\n      and\n        /* \"src/voting.sol\":1930:1955  VP.chairman == msg.sender */\n      0xffffffffffffffffffffffffffffffffffffffff\n      and\n      eq\n        /* \"src/voting.sol\":1923:1956  assert(VP.chairman == msg.sender) */\n      tag_145\n      jumpi\n      tag_146\n      tag_147\n      jump\t// in\n    tag_146:\n    tag_145:\n        /* \"src/voting.sol\":1998:2000  VP */\n      dup1\n        /* \"src/voting.sol\":1998:2018  VP.maxNoOfCandidates */\n      0x02\n      add\n      0x00\n      swap1\n      sload\n      swap1\n      0x0100\n      exp\n      swap1\n      div\n      0xffffffff\n      and\n        /* \"src/voting.sol\":1971:2018  VP.currentNoOfCandidates < VP.maxNoOfCandidates */\n      0xffffffff\n      and\n        /* \"src/voting.sol\":1971:1973  VP */\n      dup2\n        /* \"src/voting.sol\":1971:1995  VP.currentNoOfCandidates */\n      0x02\n      add\n      0x04\n      swap1\n      sload\n      swap1\n      0x0100\n      exp\n      swap1\n      div\n      0xffff\n      and\n        /* \"src/voting.sol\":1971:2018  VP.currentNoOfCandidates < VP.maxNoOfCandidates */\n      0xffff\n      and\n      lt\n        /* \"src/voting.sol\":1963:2069  require(VP.currentNoOfCandidates < VP.maxNoOfCandidates, \"maximum no of candidate per session registered\") */\n      tag_148\n      jumpi\n      mload(0x40)\n      0x08c379a000000000000000000000000000000000000000000000000000000000\n      dup2\n      mstore\n      0x04\n      add\n      tag_149\n      swap1\n      tag_150\n      jump\t// in\n    tag_149:\n      mload(0x40)\n      dup1\n      swap2\n      sub\n      swap1\n      revert\n    tag_148:\n        /* \"src/voting.sol\":2112:2116  true */\n      0x01\n        /* \"src/voting.sol\":2076:2078  VP */\n      dup2\n        /* \"src/voting.sol\":2076:2094  VP.CandidateStatus */\n      0x03\n      add\n        /* \"src/voting.sol\":2076:2109  VP.CandidateStatus[_newCandidate] */\n      0x00\n        /* \"src/voting.sol\":2095:2108  _newCandidate */\n      dup6\n        /* \"src/voting.sol\":2076:2109  VP.CandidateStatus[_newCandidate] */\n      0xffffffffffffffffffffffffffffffffffffffff\n      and\n      0xffffffffffffffffffffffffffffffffffffffff\n      and\n      dup2\n      mstore\n      0x20\n      add\n      swap1\n      dup2\n      mstore\n      0x20\n      add\n      0x00\n      keccak256\n      0x00\n        /* \"src/voting.sol\":2076:2116  VP.CandidateStatus[_newCandidate] = true */\n      0x0100\n      exp\n      dup2\n      sload\n      dup2\n      0xff\n      mul\n      not\n      and\n      swap1\n      dup4\n      iszero\n      iszero\n      mul\n      or\n      swap1\n      sstore\n      pop\n        /* \"src/voting.sol\":2124:2126  VP */\n      dup1\n        /* \"src/voting.sol\":2124:2137  VP.candidates */\n      0x01\n      add\n        /* \"src/voting.sol\":2143:2156  _newCandidate */\n      dup4\n        /* \"src/voting.sol\":2124:2157  VP.candidates.push(_newCandidate) */\n      swap1\n      dup1\n      0x01\n      dup2\n      sload\n      add\n      dup1\n      dup3\n      sstore\n      dup1\n      swap2\n      pop\n      pop\n      0x01\n      swap1\n      sub\n      swap1\n      0x00\n      mstore\n      keccak256(0x00, 0x20)\n      add\n      0x00\n      swap1\n      swap2\n      swap1\n      swap2\n      swap1\n      swap2\n      0x0100\n      exp\n      dup2\n      sload\n      dup2\n      0xffffffffffffffffffffffffffffffffffffffff\n      mul\n      not\n      and\n      swap1\n      dup4\n      0xffffffffffffffffffffffffffffffffffffffff\n      and\n      mul\n      or\n      swap1\n      sstore\n      pop\n        /* \"src/voting.sol\":2165:2167  VP */\n      dup1\n        /* \"src/voting.sol\":2165:2189  VP.currentNoOfCandidates */\n      0x02\n      add\n      0x04\n        /* \"src/voting.sol\":2165:2191  VP.currentNoOfCandidates++ */\n      dup2\n      dup2\n      swap1\n      sload\n      swap1\n      0x0100\n      exp\n      swap1\n      div\n      0xffff\n      and\n      dup1\n      swap3\n      swap2\n      swap1\n      tag_152\n      swap1\n      tag_153\n      jump\t// in\n    tag_152:\n      swap2\n      swap1\n      0x0100\n      exp\n      dup2\n      sload\n      dup2\n      0xffff\n      mul\n      not\n      and\n      swap1\n      dup4\n      0xffff\n      and\n      mul\n      or\n      swap1\n      sstore\n      pop\n      pop\n        /* \"src/voting.sol\":2203:2233  becameCandidate(_newCandidate) */\n      0xc19c59aa93348e8fc54764bc642eca975e2639f44cc683ef8f027e1529cbda32\n        /* \"src/voting.sol\":2219:2232  _newCandidate */\n      dup4\n        /* \"src/voting.sol\":2203:2233  becameCandidate(_newCandidate) */\n      mload(0x40)\n      tag_154\n      swap2\n      swap1\n      tag_155\n      jump\t// in\n    tag_154:\n      mload(0x40)\n      dup1\n      swap2\n      sub\n      swap1\n      log1\n        /* \"src/voting.sol\":1799:2237  {... */\n      pop\n        /* \"src/voting.sol\":1725:2237  function AddCandidate(address _newCandidate, string memory _name) external{... */\n      pop\n      pop\n      jump\t// out\n        /* \"src/voting.sol\":620:667  mapping(string => VotingPoll) public votingPoll */\n    tag_51:\n      0x00\n      dup2\n      dup1\n      mload\n      0x20\n      dup2\n      add\n      dup3\n      add\n      dup1\n      mload\n      dup5\n      dup3\n      mstore\n      0x20\n      dup4\n      add\n      0x20\n      dup6\n      add\n      keccak256\n      dup2\n      dup4\n      mstore\n      dup1\n      swap6\n      pop\n      pop\n      pop\n      pop\n      pop\n      pop\n      0x00\n      swap2\n      pop\n      swap1\n      pop\n      dup1\n      0x00\n      add\n      0x00\n      swap1\n      sload\n      swap1\n      0x0100\n      exp\n      swap1\n      div\n      0xffffffffffffffffffffffffffffffffffffffff\n      and\n      swap1\n      dup1\n      0x02\n      add\n      0x00\n      swap1\n      sload\n      swap1\n      0x0100\n      exp\n      swap1\n      div\n      0xffffffff\n      and\n      swap1\n      dup1\n      0x02\n      add\n      0x04\n      swap1\n      sload\n      swap1\n      0x0100\n      exp\n      swap1\n      div\n      0xffff\n      and\n      swap1\n      dup1\n      0x02\n      add\n      0x06\n      swap1\n      sload\n      swap1\n      0x0100\n      exp\n      swap1\n      div\n      0xff\n      and\n      swap1\n      pop\n      dup5\n      jump\t// out\n        /* \"src/voting.sol\":673:720  mapping (address => uint256) public replayNonce */\n    tag_58:\n      mstore(0x20, 0x01)\n      dup1\n      0x00\n      mstore\n      keccak256(0x00, 0x40)\n      0x00\n      swap2\n      pop\n      swap1\n      pop\n      sload\n      dup2\n      jump\t// out\n        /* \"src/voting.sol\":3057:3228  function NoOfRegisteredCandidates( string memory _name) public view returns(uint){... */\n    tag_64:\n        /* \"src/voting.sol\":3133:3137  uint */\n      0x00\n        /* \"src/voting.sol\":3145:3166  VotingPoll storage VP */\n      dup1\n        /* \"src/voting.sol\":3169:3179  votingPoll */\n      0x00\n        /* \"src/voting.sol\":3180:3185  _name */\n      dup4\n        /* \"src/voting.sol\":3169:3186  votingPoll[_name] */\n      mload(0x40)\n      tag_157\n      swap2\n      swap1\n      tag_87\n      jump\t// in\n    tag_157:\n      swap1\n      dup2\n      mstore\n      0x20\n      add\n      mload(0x40)\n      dup1\n      swap2\n      sub\n      swap1\n      keccak256\n        /* \"src/voting.sol\":3145:3186  VotingPoll storage VP = votingPoll[_name] */\n      swap1\n      pop\n        /* \"src/voting.sol\":3200:3202  VP */\n      dup1\n        /* \"src/voting.sol\":3200:3224  VP.currentNoOfCandidates */\n      0x02\n      add\n      0x04\n      swap1\n      sload\n      swap1\n      0x0100\n      exp\n      swap1\n      div\n      0xffff\n      and\n        /* \"src/voting.sol\":3193:3224  return VP.currentNoOfCandidates */\n      0xffff\n      and\n      swap2\n      pop\n      pop\n        /* \"src/voting.sol\":3057:3228  function NoOfRegisteredCandidates( string memory _name) public view returns(uint){... */\n      swap2\n      swap1\n      pop\n      jump\t// out\n        /* \"src/voting.sol\":3236:3409  function AllCandidates( string memory _name) public view returns(address[] memory _candidates){... */\n    tag_69:\n        /* \"src/voting.sol\":3301:3329  address[] memory _candidates */\n      0x60\n        /* \"src/voting.sol\":3337:3358  VotingPoll storage VP */\n      0x00\n        /* \"src/voting.sol\":3361:3371  votingPoll */\n      dup1\n        /* \"src/voting.sol\":3372:3377  _name */\n      dup4\n        /* \"src/voting.sol\":3361:3378  votingPoll[_name] */\n      mload(0x40)\n      tag_159\n      swap2\n      swap1\n      tag_87\n      jump\t// in\n    tag_159:\n      swap1\n      dup2\n      mstore\n      0x20\n      add\n      mload(0x40)\n      dup1\n      swap2\n      sub\n      swap1\n      keccak256\n        /* \"src/voting.sol\":3337:3378  VotingPoll storage VP = votingPoll[_name] */\n      swap1\n      pop\n        /* \"src/voting.sol\":3392:3394  VP */\n      dup1\n        /* \"src/voting.sol\":3392:3405  VP.candidates */\n      0x01\n      add\n        /* \"src/voting.sol\":3385:3405  return VP.candidates */\n      dup1\n      sload\n      dup1\n      0x20\n      mul\n      0x20\n      add\n      mload(0x40)\n      swap1\n      dup2\n      add\n      0x40\n      mstore\n      dup1\n      swap3\n      swap2\n      swap1\n      dup2\n      dup2\n      mstore\n      0x20\n      add\n      dup3\n      dup1\n      sload\n      dup1\n      iszero\n      tag_160\n      jumpi\n      0x20\n      mul\n      dup3\n      add\n      swap2\n      swap1\n      0x00\n      mstore\n      keccak256(0x00, 0x20)\n      swap1\n    tag_161:\n      dup2\n      0x00\n      swap1\n      sload\n      swap1\n      0x0100\n      exp\n      swap1\n      div\n      0xffffffffffffffffffffffffffffffffffffffff\n      and\n      0xffffffffffffffffffffffffffffffffffffffff\n      and\n      dup2\n      mstore\n      0x20\n      add\n      swap1\n      0x01\n      add\n      swap1\n      dup1\n      dup4\n      gt\n      tag_161\n      jumpi\n    tag_160:\n      pop\n      pop\n      pop\n      pop\n      pop\n      swap2\n      pop\n      pop\n        /* \"src/voting.sol\":3236:3409  function AllCandidates( string memory _name) public view returns(address[] memory _candidates){... */\n      swap2\n      swap1\n      pop\n      jump\t// out\n        /* \"src/voting.sol\":4226:4407  function getUint( string memory _name, uint i) external view returns(uint val){... */\n    tag_76:\n        /* \"src/voting.sol\":4295:4303  uint val */\n      0x00\n        /* \"src/voting.sol\":4311:4332  VotingPoll storage VP */\n      dup1\n        /* \"src/voting.sol\":4335:4345  votingPoll */\n      0x00\n        /* \"src/voting.sol\":4346:4351  _name */\n      dup5\n        /* \"src/voting.sol\":4335:4352  votingPoll[_name] */\n      mload(0x40)\n      tag_163\n      swap2\n      swap1\n      tag_87\n      jump\t// in\n    tag_163:\n      swap1\n      dup2\n      mstore\n      0x20\n      add\n      mload(0x40)\n      dup1\n      swap2\n      sub\n      swap1\n      keccak256\n        /* \"src/voting.sol\":4311:4352  VotingPoll storage VP = votingPoll[_name] */\n      swap1\n      pop\n        /* \"src/voting.sol\":4367:4369  VP */\n      dup1\n        /* \"src/voting.sol\":4367:4383  VP.CandidateVote */\n      0x05\n      add\n        /* \"src/voting.sol\":4367:4401  VP.CandidateVote[VP.candidates[i]] */\n      0x00\n        /* \"src/voting.sol\":4384:4386  VP */\n      dup3\n        /* \"src/voting.sol\":4384:4397  VP.candidates */\n      0x01\n      add\n        /* \"src/voting.sol\":4398:4399  i */\n      dup6\n        /* \"src/voting.sol\":4384:4400  VP.candidates[i] */\n      dup2\n      sload\n      dup2\n      lt\n      tag_164\n      jumpi\n      tag_165\n      tag_128\n      jump\t// in\n    tag_165:\n    tag_164:\n      swap1\n      0x00\n      mstore\n      keccak256(0x00, 0x20)\n      add\n      0x00\n      swap1\n      sload\n      swap1\n      0x0100\n      exp\n      swap1\n      div\n      0xffffffffffffffffffffffffffffffffffffffff\n      and\n        /* \"src/voting.sol\":4367:4401  VP.CandidateVote[VP.candidates[i]] */\n      0xffffffffffffffffffffffffffffffffffffffff\n      and\n      0xffffffffffffffffffffffffffffffffffffffff\n      and\n      dup2\n      mstore\n      0x20\n      add\n      swap1\n      dup2\n      mstore\n      0x20\n      add\n      0x00\n      keccak256\n      sload\n        /* \"src/voting.sol\":4361:4401  val = VP.CandidateVote[VP.candidates[i]] */\n      swap2\n      pop\n        /* \"src/voting.sol\":4304:4407  {... */\n      pop\n        /* \"src/voting.sol\":4226:4407  function getUint( string memory _name, uint i) external view returns(uint val){... */\n      swap3\n      swap2\n      pop\n      pop\n      jump\t// out\n        /* \"src/voting.sol\":4021:4223  function setVotingState( string memory _name) external {... */\n    tag_81:\n        /* \"src/voting.sol\":4082:4103  VotingPoll storage VP */\n      0x00\n        /* \"src/voting.sol\":4106:4116  votingPoll */\n      dup1\n        /* \"src/voting.sol\":4117:4122  _name */\n      dup3\n        /* \"src/voting.sol\":4106:4123  votingPoll[_name] */\n      mload(0x40)\n      tag_168\n      swap2\n      swap1\n      tag_87\n      jump\t// in\n    tag_168:\n      swap1\n      dup2\n      mstore\n      0x20\n      add\n      mload(0x40)\n      dup1\n      swap2\n      sub\n      swap1\n      keccak256\n        /* \"src/voting.sol\":4082:4123  VotingPoll storage VP = votingPoll[_name] */\n      swap1\n      pop\n        /* \"src/voting.sol\":4152:4162  msg.sender */\n      caller\n        /* \"src/voting.sol\":4137:4162  VP.chairman == msg.sender */\n      0xffffffffffffffffffffffffffffffffffffffff\n      and\n        /* \"src/voting.sol\":4137:4139  VP */\n      dup2\n        /* \"src/voting.sol\":4137:4148  VP.chairman */\n      0x00\n      add\n      0x00\n      swap1\n      sload\n      swap1\n      0x0100\n      exp\n      swap1\n      div\n      0xffffffffffffffffffffffffffffffffffffffff\n      and\n        /* \"src/voting.sol\":4137:4162  VP.chairman == msg.sender */\n      0xffffffffffffffffffffffffffffffffffffffff\n      and\n      eq\n        /* \"src/voting.sol\":4129:4183  require(VP.chairman == msg.sender, \"not the chairman\") */\n      tag_169\n      jumpi\n      mload(0x40)\n      0x08c379a000000000000000000000000000000000000000000000000000000000\n      dup2\n      mstore\n      0x04\n      add\n      tag_170\n      swap1\n      tag_171\n      jump\t// in\n    tag_170:\n      mload(0x40)\n      dup1\n      swap2\n      sub\n      swap1\n      revert\n    tag_169:\n        /* \"src/voting.sol\":4209:4211  VP */\n      dup1\n        /* \"src/voting.sol\":4209:4218  VP.voting */\n      0x02\n      add\n      0x06\n      swap1\n      sload\n      swap1\n      0x0100\n      exp\n      swap1\n      div\n      0xff\n      and\n        /* \"src/voting.sol\":4207:4219  !(VP.voting) */\n      iszero\n        /* \"src/voting.sol\":4195:4197  VP */\n      dup2\n        /* \"src/voting.sol\":4195:4204  VP.voting */\n      0x02\n      add\n      0x06\n        /* \"src/voting.sol\":4195:4219  VP.voting = !(VP.voting) */\n      0x0100\n      exp\n      dup2\n      sload\n      dup2\n      0xff\n      mul\n      not\n      and\n      swap1\n      dup4\n      iszero\n      iszero\n      mul\n      or\n      swap1\n      sstore\n      pop\n        /* \"src/voting.sol\":4076:4223  {... */\n      pop\n        /* \"src/voting.sol\":4021:4223  function setVotingState( string memory _name) external {... */\n      pop\n      jump\t// out\n        /* \"src/voting.sol\":4646:5228  function getSigner(bytes32 _hash, bytes memory _signature) internal pure returns (address){... */\n    tag_101:\n        /* \"src/voting.sol\":4728:4735  address */\n      0x00\n        /* \"src/voting.sol\":4742:4751  bytes32 r */\n      dup1\n        /* \"src/voting.sol\":4757:4766  bytes32 s */\n      0x00\n        /* \"src/voting.sol\":4772:4779  uint8 v */\n      dup1\n        /* \"src/voting.sol\":4810:4812  65 */\n      0x41\n        /* \"src/voting.sol\":4789:4799  _signature */\n      dup6\n        /* \"src/voting.sol\":4789:4806  _signature.length */\n      mload\n        /* \"src/voting.sol\":4789:4812  _signature.length != 65 */\n      eq\n        /* \"src/voting.sol\":4785:4846  if (_signature.length != 65) {... */\n      tag_173\n      jumpi\n        /* \"src/voting.sol\":4837:4838  0 */\n      0x00\n        /* \"src/voting.sol\":4822:4839  return address(0) */\n      swap4\n      pop\n      pop\n      pop\n      pop\n      jump(tag_172)\n        /* \"src/voting.sol\":4785:4846  if (_signature.length != 65) {... */\n    tag_173:\n        /* \"src/voting.sol\":4895:4897  32 */\n      0x20\n        /* \"src/voting.sol\":4883:4893  _signature */\n      dup6\n        /* \"src/voting.sol\":4879:4898  add(_signature, 32) */\n      add\n        /* \"src/voting.sol\":4873:4899  mload(add(_signature, 32)) */\n      mload\n        /* \"src/voting.sol\":4868:4899  r := mload(add(_signature, 32)) */\n      swap3\n      pop\n        /* \"src/voting.sol\":4933:4935  64 */\n      0x40\n        /* \"src/voting.sol\":4921:4931  _signature */\n      dup6\n        /* \"src/voting.sol\":4917:4936  add(_signature, 64) */\n      add\n        /* \"src/voting.sol\":4911:4937  mload(add(_signature, 64)) */\n      mload\n        /* \"src/voting.sol\":4906:4937  s := mload(add(_signature, 64)) */\n      swap2\n      pop\n        /* \"src/voting.sol\":4979:4981  96 */\n      0x60\n        /* \"src/voting.sol\":4967:4977  _signature */\n      dup6\n        /* \"src/voting.sol\":4963:4982  add(_signature, 96) */\n      add\n        /* \"src/voting.sol\":4957:4983  mload(add(_signature, 96)) */\n      mload\n        /* \"src/voting.sol\":4954:4955  0 */\n      0x00\n        /* \"src/voting.sol\":4949:4984  byte(0, mload(add(_signature, 96))) */\n      byte\n        /* \"src/voting.sol\":4944:4984  v := byte(0, mload(add(_signature, 96))) */\n      swap1\n      pop\n        /* \"src/voting.sol\":5003:5005  27 */\n      0x1b\n        /* \"src/voting.sol\":4999:5000  v */\n      dup2\n        /* \"src/voting.sol\":4999:5005  v < 27 */\n      0xff\n      and\n      lt\n        /* \"src/voting.sol\":4995:5029  if (v < 27) {... */\n      iszero\n      tag_174\n      jumpi\n        /* \"src/voting.sol\":5020:5022  27 */\n      0x1b\n        /* \"src/voting.sol\":5015:5022  v += 27 */\n      dup2\n      tag_175\n      swap2\n      swap1\n      tag_176\n      jump\t// in\n    tag_175:\n      swap1\n      pop\n        /* \"src/voting.sol\":4995:5029  if (v < 27) {... */\n    tag_174:\n        /* \"src/voting.sol\":5043:5045  27 */\n      0x1b\n        /* \"src/voting.sol\":5038:5039  v */\n      dup2\n        /* \"src/voting.sol\":5038:5045  v != 27 */\n      0xff\n      and\n      eq\n      iszero\n        /* \"src/voting.sol\":5038:5056  v != 27 && v != 28 */\n      dup1\n      iszero\n      tag_177\n      jumpi\n      pop\n        /* \"src/voting.sol\":5054:5056  28 */\n      0x1c\n        /* \"src/voting.sol\":5049:5050  v */\n      dup2\n        /* \"src/voting.sol\":5049:5056  v != 28 */\n      0xff\n      and\n      eq\n      iszero\n        /* \"src/voting.sol\":5038:5056  v != 27 && v != 28 */\n    tag_177:\n        /* \"src/voting.sol\":5034:5224  if (v != 27 && v != 28) {... */\n      iszero\n      tag_178\n      jumpi\n        /* \"src/voting.sol\":5081:5082  0 */\n      0x00\n        /* \"src/voting.sol\":5066:5083  return address(0) */\n      swap4\n      pop\n      pop\n      pop\n      pop\n      jump(tag_172)\n        /* \"src/voting.sol\":5034:5224  if (v != 27 && v != 28) {... */\n    tag_178:\n        /* \"src/voting.sol\":5111:5217  ecrecover(keccak256(... */\n      0x01\n        /* \"src/voting.sol\":5193:5198  _hash */\n      dup7\n        /* \"src/voting.sol\":5140:5199  abi.encodePacked(\"\\x19Ethereum Signed Message:\\n32\", _hash) */\n      add(0x20, mload(0x40))\n      tag_180\n      swap2\n      swap1\n      tag_181\n      jump\t// in\n    tag_180:\n      mload(0x40)\n      0x20\n      dup2\n      dup4\n      sub\n      sub\n      dup2\n      mstore\n      swap1\n      0x40\n      mstore\n        /* \"src/voting.sol\":5121:5207  keccak256(... */\n      dup1\n      mload\n      swap1\n      0x20\n      add\n      keccak256\n        /* \"src/voting.sol\":5209:5210  v */\n      dup3\n        /* \"src/voting.sol\":5212:5213  r */\n      dup6\n        /* \"src/voting.sol\":5215:5216  s */\n      dup6\n        /* \"src/voting.sol\":5111:5217  ecrecover(keccak256(... */\n      mload(0x40)\n      0x00\n      dup2\n      mstore\n      0x20\n      add\n      0x40\n      mstore\n      mload(0x40)\n      tag_182\n      swap5\n      swap4\n      swap3\n      swap2\n      swap1\n      tag_183\n      jump\t// in\n    tag_182:\n      0x20\n      mload(0x40)\n      0x20\n      dup2\n      sub\n      swap1\n      dup1\n      dup5\n      sub\n      swap1\n      dup6\n      gas\n      staticcall\n      iszero\n      dup1\n      iszero\n      tag_185\n      jumpi\n      returndatasize\n      0x00\n      dup1\n      returndatacopy\n      revert(0x00, returndatasize)\n    tag_185:\n      pop\n      pop\n      pop\n      mload(sub(mload(0x40), 0x20))\n        /* \"src/voting.sol\":5104:5217  return ecrecover(keccak256(... */\n      swap4\n      pop\n      pop\n      pop\n      pop\n        /* \"src/voting.sol\":4646:5228  function getSigner(bytes32 _hash, bytes memory _signature) internal pure returns (address){... */\n    tag_172:\n      swap3\n      swap2\n      pop\n      pop\n      jump\t// out\n        /* \"src/voting.sol\":2809:3054  function countVote(address Cand, string memory _name, address signer) internal returns(uint){... */\n    tag_111:\n        /* \"src/voting.sol\":2896:2900  uint */\n      0x00\n        /* \"src/voting.sol\":2908:2929  VotingPoll storage VP */\n      dup1\n        /* \"src/voting.sol\":2932:2942  votingPoll */\n      0x00\n        /* \"src/voting.sol\":2943:2948  _name */\n      dup5\n        /* \"src/voting.sol\":2932:2949  votingPoll[_name] */\n      mload(0x40)\n      tag_187\n      swap2\n      swap1\n      tag_87\n      jump\t// in\n    tag_187:\n      swap1\n      dup2\n      mstore\n      0x20\n      add\n      mload(0x40)\n      dup1\n      swap2\n      sub\n      swap1\n      keccak256\n        /* \"src/voting.sol\":2908:2949  VotingPoll storage VP = votingPoll[_name] */\n      swap1\n      pop\n        /* \"src/voting.sol\":2978:2982  true */\n      0x01\n        /* \"src/voting.sol\":2956:2958  VP */\n      dup2\n        /* \"src/voting.sol\":2956:2967  VP.hasVoted */\n      0x04\n      add\n        /* \"src/voting.sol\":2956:2975  VP.hasVoted[signer] */\n      0x00\n        /* \"src/voting.sol\":2968:2974  signer */\n      dup6\n        /* \"src/voting.sol\":2956:2975  VP.hasVoted[signer] */\n      0xffffffffffffffffffffffffffffffffffffffff\n      and\n      0xffffffffffffffffffffffffffffffffffffffff\n      and\n      dup2\n      mstore\n      0x20\n      add\n      swap1\n      dup2\n      mstore\n      0x20\n      add\n      0x00\n      keccak256\n      0x00\n        /* \"src/voting.sol\":2956:2982  VP.hasVoted[signer] = true */\n      0x0100\n      exp\n      dup2\n      sload\n      dup2\n      0xff\n      mul\n      not\n      and\n      swap1\n      dup4\n      iszero\n      iszero\n      mul\n      or\n      swap1\n      sstore\n      pop\n        /* \"src/voting.sol\":2989:2991  VP */\n      dup1\n        /* \"src/voting.sol\":2989:3005  VP.CandidateVote */\n      0x05\n      add\n        /* \"src/voting.sol\":2989:3011  VP.CandidateVote[Cand] */\n      0x00\n        /* \"src/voting.sol\":3006:3010  Cand */\n      dup7\n        /* \"src/voting.sol\":2989:3011  VP.CandidateVote[Cand] */\n      0xffffffffffffffffffffffffffffffffffffffff\n      and\n      0xffffffffffffffffffffffffffffffffffffffff\n      and\n      dup2\n      mstore\n      0x20\n      add\n      swap1\n      dup2\n      mstore\n      0x20\n      add\n      0x00\n      keccak256\n      0x00\n        /* \"src/voting.sol\":2989:3013  VP.CandidateVote[Cand]++ */\n      dup2\n      sload\n      dup1\n      swap3\n      swap2\n      swap1\n      tag_188\n      swap1\n      tag_105\n      jump\t// in\n    tag_188:\n      swap2\n      swap1\n      pop\n      sstore\n      pop\n        /* \"src/voting.sol\":3027:3029  VP */\n      dup1\n        /* \"src/voting.sol\":3027:3043  VP.CandidateVote */\n      0x05\n      add\n        /* \"src/voting.sol\":3027:3049  VP.CandidateVote[Cand] */\n      0x00\n        /* \"src/voting.sol\":3044:3048  Cand */\n      dup7\n        /* \"src/voting.sol\":3027:3049  VP.CandidateVote[Cand] */\n      0xffffffffffffffffffffffffffffffffffffffff\n      and\n      0xffffffffffffffffffffffffffffffffffffffff\n      and\n      dup2\n      mstore\n      0x20\n      add\n      swap1\n      dup2\n      mstore\n      0x20\n      add\n      0x00\n      keccak256\n      sload\n        /* \"src/voting.sol\":3020:3049  return VP.CandidateVote[Cand] */\n      swap2\n      pop\n      pop\n        /* \"src/voting.sol\":2809:3054  function countVote(address Cand, string memory _name, address signer) internal returns(uint){... */\n      swap4\n      swap3\n      pop\n      pop\n      pop\n      jump\t// out\n        /* \"#utility.yul\":7:82   */\n    tag_189:\n        /* \"#utility.yul\":40:46   */\n      0x00\n        /* \"#utility.yul\":73:75   */\n      0x40\n        /* \"#utility.yul\":67:76   */\n      mload\n        /* \"#utility.yul\":57:76   */\n      swap1\n      pop\n        /* \"#utility.yul\":7:82   */\n      swap1\n      jump\t// out\n        /* \"#utility.yul\":88:205   */\n    tag_190:\n        /* \"#utility.yul\":197:198   */\n      0x00\n        /* \"#utility.yul\":194:195   */\n      dup1\n        /* \"#utility.yul\":187:199   */\n      revert\n        /* \"#utility.yul\":211:328   */\n    tag_191:\n        /* \"#utility.yul\":320:321   */\n      0x00\n        /* \"#utility.yul\":317:318   */\n      dup1\n        /* \"#utility.yul\":310:322   */\n      revert\n        /* \"#utility.yul\":334:460   */\n    tag_192:\n        /* \"#utility.yul\":371:378   */\n      0x00\n        /* \"#utility.yul\":411:453   */\n      0xffffffffffffffffffffffffffffffffffffffff\n        /* \"#utility.yul\":404:409   */\n      dup3\n        /* \"#utility.yul\":400:454   */\n      and\n        /* \"#utility.yul\":389:454   */\n      swap1\n      pop\n        /* \"#utility.yul\":334:460   */\n      swap2\n      swap1\n      pop\n      jump\t// out\n        /* \"#utility.yul\":466:562   */\n    tag_193:\n        /* \"#utility.yul\":503:510   */\n      0x00\n        /* \"#utility.yul\":532:556   */\n      tag_278\n        /* \"#utility.yul\":550:555   */\n      dup3\n        /* \"#utility.yul\":532:556   */\n      tag_192\n      jump\t// in\n    tag_278:\n        /* \"#utility.yul\":521:556   */\n      swap1\n      pop\n        /* \"#utility.yul\":466:562   */\n      swap2\n      swap1\n      pop\n      jump\t// out\n        /* \"#utility.yul\":568:690   */\n    tag_194:\n        /* \"#utility.yul\":641:665   */\n      tag_280\n        /* \"#utility.yul\":659:664   */\n      dup2\n        /* \"#utility.yul\":641:665   */\n      tag_193\n      jump\t// in\n    tag_280:\n        /* \"#utility.yul\":634:639   */\n      dup2\n        /* \"#utility.yul\":631:666   */\n      eq\n        /* \"#utility.yul\":621:684   */\n      tag_281\n      jumpi\n        /* \"#utility.yul\":680:681   */\n      0x00\n        /* \"#utility.yul\":677:678   */\n      dup1\n        /* \"#utility.yul\":670:682   */\n      revert\n        /* \"#utility.yul\":621:684   */\n    tag_281:\n        /* \"#utility.yul\":568:690   */\n      pop\n      jump\t// out\n        /* \"#utility.yul\":696:835   */\n    tag_195:\n        /* \"#utility.yul\":742:747   */\n      0x00\n        /* \"#utility.yul\":780:786   */\n      dup2\n        /* \"#utility.yul\":767:787   */\n      calldataload\n        /* \"#utility.yul\":758:787   */\n      swap1\n      pop\n        /* \"#utility.yul\":796:829   */\n      tag_283\n        /* \"#utility.yul\":823:828   */\n      dup2\n        /* \"#utility.yul\":796:829   */\n      tag_194\n      jump\t// in\n    tag_283:\n        /* \"#utility.yul\":696:835   */\n      swap3\n      swap2\n      pop\n      pop\n      jump\t// out\n        /* \"#utility.yul\":841:958   */\n    tag_196:\n        /* \"#utility.yul\":950:951   */\n      0x00\n        /* \"#utility.yul\":947:948   */\n      dup1\n        /* \"#utility.yul\":940:952   */\n      revert\n        /* \"#utility.yul\":964:1081   */\n    tag_197:\n        /* \"#utility.yul\":1073:1074   */\n      0x00\n        /* \"#utility.yul\":1070:1071   */\n      dup1\n        /* \"#utility.yul\":1063:1075   */\n      revert\n        /* \"#utility.yul\":1087:1189   */\n    tag_198:\n        /* \"#utility.yul\":1128:1134   */\n      0x00\n        /* \"#utility.yul\":1179:1181   */\n      0x1f\n        /* \"#utility.yul\":1175:1182   */\n      not\n        /* \"#utility.yul\":1170:1172   */\n      0x1f\n        /* \"#utility.yul\":1163:1168   */\n      dup4\n        /* \"#utility.yul\":1159:1173   */\n      add\n        /* \"#utility.yul\":1155:1183   */\n      and\n        /* \"#utility.yul\":1145:1183   */\n      swap1\n      pop\n        /* \"#utility.yul\":1087:1189   */\n      swap2\n      swap1\n      pop\n      jump\t// out\n        /* \"#utility.yul\":1195:1375   */\n    tag_121:\n        /* \"#utility.yul\":1243:1320   */\n      0x4e487b7100000000000000000000000000000000000000000000000000000000\n        /* \"#utility.yul\":1240:1241   */\n      0x00\n        /* \"#utility.yul\":1233:1321   */\n      mstore\n        /* \"#utility.yul\":1340:1344   */\n      0x41\n        /* \"#utility.yul\":1337:1338   */\n      0x04\n        /* \"#utility.yul\":1330:1345   */\n      mstore\n        /* \"#utility.yul\":1364:1368   */\n      0x24\n        /* \"#utility.yul\":1361:1362   */\n      0x00\n        /* \"#utility.yul\":1354:1369   */\n      revert\n        /* \"#utility.yul\":1381:1662   */\n    tag_199:\n        /* \"#utility.yul\":1464:1491   */\n      tag_289\n        /* \"#utility.yul\":1486:1490   */\n      dup3\n        /* \"#utility.yul\":1464:1491   */\n      tag_198\n      jump\t// in\n    tag_289:\n        /* \"#utility.yul\":1456:1462   */\n      dup2\n        /* \"#utility.yul\":1452:1492   */\n      add\n        /* \"#utility.yul\":1594:1600   */\n      dup2\n        /* \"#utility.yul\":1582:1592   */\n      dup2\n        /* \"#utility.yul\":1579:1601   */\n      lt\n        /* \"#utility.yul\":1558:1576   */\n      0xffffffffffffffff\n        /* \"#utility.yul\":1546:1556   */\n      dup3\n        /* \"#utility.yul\":1543:1577   */\n      gt\n        /* \"#utility.yul\":1540:1602   */\n      or\n        /* \"#utility.yul\":1537:1625   */\n      iszero\n      tag_290\n      jumpi\n        /* \"#utility.yul\":1605:1623   */\n      tag_291\n      tag_121\n      jump\t// in\n    tag_291:\n        /* \"#utility.yul\":1537:1625   */\n    tag_290:\n        /* \"#utility.yul\":1645:1655   */\n      dup1\n        /* \"#utility.yul\":1641:1643   */\n      0x40\n        /* \"#utility.yul\":1634:1656   */\n      mstore\n        /* \"#utility.yul\":1424:1662   */\n      pop\n        /* \"#utility.yul\":1381:1662   */\n      pop\n      pop\n      jump\t// out\n        /* \"#utility.yul\":1668:1797   */\n    tag_200:\n        /* \"#utility.yul\":1702:1708   */\n      0x00\n        /* \"#utility.yul\":1729:1749   */\n      tag_293\n      tag_189\n      jump\t// in\n    tag_293:\n        /* \"#utility.yul\":1719:1749   */\n      swap1\n      pop\n        /* \"#utility.yul\":1758:1791   */\n      tag_294\n        /* \"#utility.yul\":1786:1790   */\n      dup3\n        /* \"#utility.yul\":1778:1784   */\n      dup3\n        /* \"#utility.yul\":1758:1791   */\n      tag_199\n      jump\t// in\n    tag_294:\n        /* \"#utility.yul\":1668:1797   */\n      swap2\n      swap1\n      pop\n      jump\t// out\n        /* \"#utility.yul\":1803:2111   */\n    tag_201:\n        /* \"#utility.yul\":1865:1869   */\n      0x00\n        /* \"#utility.yul\":1955:1973   */\n      0xffffffffffffffff\n        /* \"#utility.yul\":1947:1953   */\n      dup3\n        /* \"#utility.yul\":1944:1974   */\n      gt\n        /* \"#utility.yul\":1941:1997   */\n      iszero\n      tag_296\n      jumpi\n        /* \"#utility.yul\":1977:1995   */\n      tag_297\n      tag_121\n      jump\t// in\n    tag_297:\n        /* \"#utility.yul\":1941:1997   */\n    tag_296:\n        /* \"#utility.yul\":2015:2044   */\n      tag_298\n        /* \"#utility.yul\":2037:2043   */\n      dup3\n        /* \"#utility.yul\":2015:2044   */\n      tag_198\n      jump\t// in\n    tag_298:\n        /* \"#utility.yul\":2007:2044   */\n      swap1\n      pop\n        /* \"#utility.yul\":2099:2103   */\n      0x20\n        /* \"#utility.yul\":2093:2097   */\n      dup2\n        /* \"#utility.yul\":2089:2104   */\n      add\n        /* \"#utility.yul\":2081:2104   */\n      swap1\n      pop\n        /* \"#utility.yul\":1803:2111   */\n      swap2\n      swap1\n      pop\n      jump\t// out\n        /* \"#utility.yul\":2117:2271   */\n    tag_202:\n        /* \"#utility.yul\":2201:2207   */\n      dup3\n        /* \"#utility.yul\":2196:2199   */\n      dup2\n        /* \"#utility.yul\":2191:2194   */\n      dup4\n        /* \"#utility.yul\":2178:2208   */\n      calldatacopy\n        /* \"#utility.yul\":2263:2264   */\n      0x00\n        /* \"#utility.yul\":2254:2260   */\n      dup4\n        /* \"#utility.yul\":2249:2252   */\n      dup4\n        /* \"#utility.yul\":2245:2261   */\n      add\n        /* \"#utility.yul\":2238:2265   */\n      mstore\n        /* \"#utility.yul\":2117:2271   */\n      pop\n      pop\n      pop\n      jump\t// out\n        /* \"#utility.yul\":2277:2689   */\n    tag_203:\n        /* \"#utility.yul\":2355:2360   */\n      0x00\n        /* \"#utility.yul\":2380:2446   */\n      tag_301\n        /* \"#utility.yul\":2396:2445   */\n      tag_302\n        /* \"#utility.yul\":2438:2444   */\n      dup5\n        /* \"#utility.yul\":2396:2445   */\n      tag_201\n      jump\t// in\n    tag_302:\n        /* \"#utility.yul\":2380:2446   */\n      tag_200\n      jump\t// in\n    tag_301:\n        /* \"#utility.yul\":2371:2446   */\n      swap1\n      pop\n        /* \"#utility.yul\":2469:2475   */\n      dup3\n        /* \"#utility.yul\":2462:2467   */\n      dup2\n        /* \"#utility.yul\":2455:2476   */\n      mstore\n        /* \"#utility.yul\":2507:2511   */\n      0x20\n        /* \"#utility.yul\":2500:2505   */\n      dup2\n        /* \"#utility.yul\":2496:2512   */\n      add\n        /* \"#utility.yul\":2545:2548   */\n      dup5\n        /* \"#utility.yul\":2536:2542   */\n      dup5\n        /* \"#utility.yul\":2531:2534   */\n      dup5\n        /* \"#utility.yul\":2527:2543   */\n      add\n        /* \"#utility.yul\":2524:2549   */\n      gt\n        /* \"#utility.yul\":2521:2633   */\n      iszero\n      tag_303\n      jumpi\n        /* \"#utility.yul\":2552:2631   */\n      tag_304\n      tag_197\n      jump\t// in\n    tag_304:\n        /* \"#utility.yul\":2521:2633   */\n    tag_303:\n        /* \"#utility.yul\":2642:2683   */\n      tag_305\n        /* \"#utility.yul\":2676:2682   */\n      dup5\n        /* \"#utility.yul\":2671:2674   */\n      dup3\n        /* \"#utility.yul\":2666:2669   */\n      dup6\n        /* \"#utility.yul\":2642:2683   */\n      tag_202\n      jump\t// in\n    tag_305:\n        /* \"#utility.yul\":2361:2689   */\n      pop\n        /* \"#utility.yul\":2277:2689   */\n      swap4\n      swap3\n      pop\n      pop\n      pop\n      jump\t// out\n        /* \"#utility.yul\":2709:3049   */\n    tag_204:\n        /* \"#utility.yul\":2765:2770   */\n      0x00\n        /* \"#utility.yul\":2814:2817   */\n      dup3\n        /* \"#utility.yul\":2807:2811   */\n      0x1f\n        /* \"#utility.yul\":2799:2805   */\n      dup4\n        /* \"#utility.yul\":2795:2812   */\n      add\n        /* \"#utility.yul\":2791:2818   */\n      slt\n        /* \"#utility.yul\":2781:2903   */\n      tag_307\n      jumpi\n        /* \"#utility.yul\":2822:2901   */\n      tag_308\n      tag_196\n      jump\t// in\n    tag_308:\n        /* \"#utility.yul\":2781:2903   */\n    tag_307:\n        /* \"#utility.yul\":2939:2945   */\n      dup2\n        /* \"#utility.yul\":2926:2946   */\n      calldataload\n        /* \"#utility.yul\":2964:3043   */\n      tag_309\n        /* \"#utility.yul\":3039:3042   */\n      dup5\n        /* \"#utility.yul\":3031:3037   */\n      dup3\n        /* \"#utility.yul\":3024:3028   */\n      0x20\n        /* \"#utility.yul\":3016:3022   */\n      dup7\n        /* \"#utility.yul\":3012:3029   */\n      add\n        /* \"#utility.yul\":2964:3043   */\n      tag_203\n      jump\t// in\n    tag_309:\n        /* \"#utility.yul\":2955:3043   */\n      swap2\n      pop\n        /* \"#utility.yul\":2771:3049   */\n      pop\n        /* \"#utility.yul\":2709:3049   */\n      swap3\n      swap2\n      pop\n      pop\n      jump\t// out\n        /* \"#utility.yul\":3055:3132   */\n    tag_205:\n        /* \"#utility.yul\":3092:3099   */\n      0x00\n        /* \"#utility.yul\":3121:3126   */\n      dup2\n        /* \"#utility.yul\":3110:3126   */\n      swap1\n      pop\n        /* \"#utility.yul\":3055:3132   */\n      swap2\n      swap1\n      pop\n      jump\t// out\n        /* \"#utility.yul\":3138:3260   */\n    tag_206:\n        /* \"#utility.yul\":3211:3235   */\n      tag_312\n        /* \"#utility.yul\":3229:3234   */\n      dup2\n        /* \"#utility.yul\":3211:3235   */\n      tag_205\n      jump\t// in\n    tag_312:\n        /* \"#utility.yul\":3204:3209   */\n      dup2\n        /* \"#utility.yul\":3201:3236   */\n      eq\n        /* \"#utility.yul\":3191:3254   */\n      tag_313\n      jumpi\n        /* \"#utility.yul\":3250:3251   */\n      0x00\n        /* \"#utility.yul\":3247:3248   */\n      dup1\n        /* \"#utility.yul\":3240:3252   */\n      revert\n        /* \"#utility.yul\":3191:3254   */\n    tag_313:\n        /* \"#utility.yul\":3138:3260   */\n      pop\n      jump\t// out\n        /* \"#utility.yul\":3266:3405   */\n    tag_207:\n        /* \"#utility.yul\":3312:3317   */\n      0x00\n        /* \"#utility.yul\":3350:3356   */\n      dup2\n        /* \"#utility.yul\":3337:3357   */\n      calldataload\n        /* \"#utility.yul\":3328:3357   */\n      swap1\n      pop\n        /* \"#utility.yul\":3366:3399   */\n      tag_315\n        /* \"#utility.yul\":3393:3398   */\n      dup2\n        /* \"#utility.yul\":3366:3399   */\n      tag_206\n      jump\t// in\n    tag_315:\n        /* \"#utility.yul\":3266:3405   */\n      swap3\n      swap2\n      pop\n      pop\n      jump\t// out\n        /* \"#utility.yul\":3411:4356   */\n    tag_20:\n        /* \"#utility.yul\":3507:3513   */\n      0x00\n        /* \"#utility.yul\":3515:3521   */\n      dup1\n        /* \"#utility.yul\":3523:3529   */\n      0x00\n        /* \"#utility.yul\":3531:3537   */\n      dup1\n        /* \"#utility.yul\":3580:3583   */\n      0x80\n        /* \"#utility.yul\":3568:3577   */\n      dup6\n        /* \"#utility.yul\":3559:3566   */\n      dup8\n        /* \"#utility.yul\":3555:3578   */\n      sub\n        /* \"#utility.yul\":3551:3584   */\n      slt\n        /* \"#utility.yul\":3548:3668   */\n      iszero\n      tag_317\n      jumpi\n        /* \"#utility.yul\":3587:3666   */\n      tag_318\n      tag_190\n      jump\t// in\n    tag_318:\n        /* \"#utility.yul\":3548:3668   */\n    tag_317:\n        /* \"#utility.yul\":3707:3708   */\n      0x00\n        /* \"#utility.yul\":3732:3785   */\n      tag_319\n        /* \"#utility.yul\":3777:3784   */\n      dup8\n        /* \"#utility.yul\":3768:3774   */\n      dup3\n        /* \"#utility.yul\":3757:3766   */\n      dup9\n        /* \"#utility.yul\":3753:3775   */\n      add\n        /* \"#utility.yul\":3732:3785   */\n      tag_195\n      jump\t// in\n    tag_319:\n        /* \"#utility.yul\":3722:3785   */\n      swap5\n      pop\n        /* \"#utility.yul\":3678:3795   */\n      pop\n        /* \"#utility.yul\":3862:3864   */\n      0x20\n        /* \"#utility.yul\":3851:3860   */\n      dup6\n        /* \"#utility.yul\":3847:3865   */\n      add\n        /* \"#utility.yul\":3834:3866   */\n      calldataload\n        /* \"#utility.yul\":3893:3911   */\n      0xffffffffffffffff\n        /* \"#utility.yul\":3885:3891   */\n      dup2\n        /* \"#utility.yul\":3882:3912   */\n      gt\n        /* \"#utility.yul\":3879:3996   */\n      iszero\n      tag_320\n      jumpi\n        /* \"#utility.yul\":3915:3994   */\n      tag_321\n      tag_191\n      jump\t// in\n    tag_321:\n        /* \"#utility.yul\":3879:3996   */\n    tag_320:\n        /* \"#utility.yul\":4020:4083   */\n      tag_322\n        /* \"#utility.yul\":4075:4082   */\n      dup8\n        /* \"#utility.yul\":4066:4072   */\n      dup3\n        /* \"#utility.yul\":4055:4064   */\n      dup9\n        /* \"#utility.yul\":4051:4073   */\n      add\n        /* \"#utility.yul\":4020:4083   */\n      tag_204\n      jump\t// in\n    tag_322:\n        /* \"#utility.yul\":4010:4083   */\n      swap4\n      pop\n        /* \"#utility.yul\":3805:4093   */\n      pop\n        /* \"#utility.yul\":4132:4134   */\n      0x40\n        /* \"#utility.yul\":4158:4211   */\n      tag_323\n        /* \"#utility.yul\":4203:4210   */\n      dup8\n        /* \"#utility.yul\":4194:4200   */\n      dup3\n        /* \"#utility.yul\":4183:4192   */\n      dup9\n        /* \"#utility.yul\":4179:4201   */\n      add\n        /* \"#utility.yul\":4158:4211   */\n      tag_207\n      jump\t// in\n    tag_323:\n        /* \"#utility.yul\":4148:4211   */\n      swap3\n      pop\n        /* \"#utility.yul\":4103:4221   */\n      pop\n        /* \"#utility.yul\":4260:4262   */\n      0x60\n        /* \"#utility.yul\":4286:4339   */\n      tag_324\n        /* \"#utility.yul\":4331:4338   */\n      dup8\n        /* \"#utility.yul\":4322:4328   */\n      dup3\n        /* \"#utility.yul\":4311:4320   */\n      dup9\n        /* \"#utility.yul\":4307:4329   */\n      add\n        /* \"#utility.yul\":4286:4339   */\n      tag_207\n      jump\t// in\n    tag_324:\n        /* \"#utility.yul\":4276:4339   */\n      swap2\n      pop\n        /* \"#utility.yul\":4231:4349   */\n      pop\n        /* \"#utility.yul\":3411:4356   */\n      swap3\n      swap6\n      swap2\n      swap5\n      pop\n      swap3\n      pop\n      jump\t// out\n        /* \"#utility.yul\":4362:4439   */\n    tag_208:\n        /* \"#utility.yul\":4399:4406   */\n      0x00\n        /* \"#utility.yul\":4428:4433   */\n      dup2\n        /* \"#utility.yul\":4417:4433   */\n      swap1\n      pop\n        /* \"#utility.yul\":4362:4439   */\n      swap2\n      swap1\n      pop\n      jump\t// out\n        /* \"#utility.yul\":4445:4563   */\n    tag_209:\n        /* \"#utility.yul\":4532:4556   */\n      tag_327\n        /* \"#utility.yul\":4550:4555   */\n      dup2\n        /* \"#utility.yul\":4532:4556   */\n      tag_208\n      jump\t// in\n    tag_327:\n        /* \"#utility.yul\":4527:4530   */\n      dup3\n        /* \"#utility.yul\":4520:4557   */\n      mstore\n        /* \"#utility.yul\":4445:4563   */\n      pop\n      pop\n      jump\t// out\n        /* \"#utility.yul\":4569:4791   */\n    tag_23:\n        /* \"#utility.yul\":4662:4666   */\n      0x00\n        /* \"#utility.yul\":4700:4702   */\n      0x20\n        /* \"#utility.yul\":4689:4698   */\n      dup3\n        /* \"#utility.yul\":4685:4703   */\n      add\n        /* \"#utility.yul\":4677:4703   */\n      swap1\n      pop\n        /* \"#utility.yul\":4713:4784   */\n      tag_329\n        /* \"#utility.yul\":4781:4782   */\n      0x00\n        /* \"#utility.yul\":4770:4779   */\n      dup4\n        /* \"#utility.yul\":4766:4783   */\n      add\n        /* \"#utility.yul\":4757:4763   */\n      dup5\n        /* \"#utility.yul\":4713:4784   */\n      tag_209\n      jump\t// in\n    tag_329:\n        /* \"#utility.yul\":4569:4791   */\n      swap3\n      swap2\n      pop\n      pop\n      jump\t// out\n        /* \"#utility.yul\":4797:4886   */\n    tag_210:\n        /* \"#utility.yul\":4833:4840   */\n      0x00\n        /* \"#utility.yul\":4873:4879   */\n      0xffff\n        /* \"#utility.yul\":4866:4871   */\n      dup3\n        /* \"#utility.yul\":4862:4880   */\n      and\n        /* \"#utility.yul\":4851:4880   */\n      swap1\n      pop\n        /* \"#utility.yul\":4797:4886   */\n      swap2\n      swap1\n      pop\n      jump\t// out\n        /* \"#utility.yul\":4892:5012   */\n    tag_211:\n        /* \"#utility.yul\":4964:4987   */\n      tag_332\n        /* \"#utility.yul\":4981:4986   */\n      dup2\n        /* \"#utility.yul\":4964:4987   */\n      tag_210\n      jump\t// in\n    tag_332:\n        /* \"#utility.yul\":4957:4962   */\n      dup2\n        /* \"#utility.yul\":4954:4988   */\n      eq\n        /* \"#utility.yul\":4944:5006   */\n      tag_333\n      jumpi\n        /* \"#utility.yul\":5002:5003   */\n      0x00\n        /* \"#utility.yul\":4999:5000   */\n      dup1\n        /* \"#utility.yul\":4992:5004   */\n      revert\n        /* \"#utility.yul\":4944:5006   */\n    tag_333:\n        /* \"#utility.yul\":4892:5012   */\n      pop\n      jump\t// out\n        /* \"#utility.yul\":5018:5155   */\n    tag_212:\n        /* \"#utility.yul\":5063:5068   */\n      0x00\n        /* \"#utility.yul\":5101:5107   */\n      dup2\n        /* \"#utility.yul\":5088:5108   */\n      calldataload\n        /* \"#utility.yul\":5079:5108   */\n      swap1\n      pop\n        /* \"#utility.yul\":5117:5149   */\n      tag_335\n        /* \"#utility.yul\":5143:5148   */\n      dup2\n        /* \"#utility.yul\":5117:5149   */\n      tag_211\n      jump\t// in\n    tag_335:\n        /* \"#utility.yul\":5018:5155   */\n      swap3\n      swap2\n      pop\n      pop\n      jump\t// out\n        /* \"#utility.yul\":5161:5813   */\n    tag_27:\n        /* \"#utility.yul\":5238:5244   */\n      0x00\n        /* \"#utility.yul\":5246:5252   */\n      dup1\n        /* \"#utility.yul\":5295:5297   */\n      0x40\n        /* \"#utility.yul\":5283:5292   */\n      dup4\n        /* \"#utility.yul\":5274:5281   */\n      dup6\n        /* \"#utility.yul\":5270:5293   */\n      sub\n        /* \"#utility.yul\":5266:5298   */\n      slt\n        /* \"#utility.yul\":5263:5382   */\n      iszero\n      tag_337\n      jumpi\n        /* \"#utility.yul\":5301:5380   */\n      tag_338\n      tag_190\n      jump\t// in\n    tag_338:\n        /* \"#utility.yul\":5263:5382   */\n    tag_337:\n        /* \"#utility.yul\":5449:5450   */\n      0x00\n        /* \"#utility.yul\":5438:5447   */\n      dup4\n        /* \"#utility.yul\":5434:5451   */\n      add\n        /* \"#utility.yul\":5421:5452   */\n      calldataload\n        /* \"#utility.yul\":5479:5497   */\n      0xffffffffffffffff\n        /* \"#utility.yul\":5471:5477   */\n      dup2\n        /* \"#utility.yul\":5468:5498   */\n      gt\n        /* \"#utility.yul\":5465:5582   */\n      iszero\n      tag_339\n      jumpi\n        /* \"#utility.yul\":5501:5580   */\n      tag_340\n      tag_191\n      jump\t// in\n    tag_340:\n        /* \"#utility.yul\":5465:5582   */\n    tag_339:\n        /* \"#utility.yul\":5606:5669   */\n      tag_341\n        /* \"#utility.yul\":5661:5668   */\n      dup6\n        /* \"#utility.yul\":5652:5658   */\n      dup3\n        /* \"#utility.yul\":5641:5650   */\n      dup7\n        /* \"#utility.yul\":5637:5659   */\n      add\n        /* \"#utility.yul\":5606:5669   */\n      tag_204\n      jump\t// in\n    tag_341:\n        /* \"#utility.yul\":5596:5669   */\n      swap3\n      pop\n        /* \"#utility.yul\":5392:5679   */\n      pop\n        /* \"#utility.yul\":5718:5720   */\n      0x20\n        /* \"#utility.yul\":5744:5796   */\n      tag_342\n        /* \"#utility.yul\":5788:5795   */\n      dup6\n        /* \"#utility.yul\":5779:5785   */\n      dup3\n        /* \"#utility.yul\":5768:5777   */\n      dup7\n        /* \"#utility.yul\":5764:5786   */\n      add\n        /* \"#utility.yul\":5744:5796   */\n      tag_212\n      jump\t// in\n    tag_342:\n        /* \"#utility.yul\":5734:5796   */\n      swap2\n      pop\n        /* \"#utility.yul\":5689:5806   */\n      pop\n        /* \"#utility.yul\":5161:5813   */\n      swap3\n      pop\n      swap3\n      swap1\n      pop\n      jump\t// out\n        /* \"#utility.yul\":5819:5918   */\n    tag_213:\n        /* \"#utility.yul\":5871:5877   */\n      0x00\n        /* \"#utility.yul\":5905:5910   */\n      dup2\n        /* \"#utility.yul\":5899:5911   */\n      mload\n        /* \"#utility.yul\":5889:5911   */\n      swap1\n      pop\n        /* \"#utility.yul\":5819:5918   */\n      swap2\n      swap1\n      pop\n      jump\t// out\n        /* \"#utility.yul\":5924:6093   */\n    tag_214:\n        /* \"#utility.yul\":6008:6019   */\n      0x00\n        /* \"#utility.yul\":6042:6048   */\n      dup3\n        /* \"#utility.yul\":6037:6040   */\n      dup3\n        /* \"#utility.yul\":6030:6049   */\n      mstore\n        /* \"#utility.yul\":6082:6086   */\n      0x20\n        /* \"#utility.yul\":6077:6080   */\n      dup3\n        /* \"#utility.yul\":6073:6087   */\n      add\n        /* \"#utility.yul\":6058:6087   */\n      swap1\n      pop\n        /* \"#utility.yul\":5924:6093   */\n      swap3\n      swap2\n      pop\n      pop\n      jump\t// out\n        /* \"#utility.yul\":6099:6406   */\n    tag_215:\n        /* \"#utility.yul\":6167:6168   */\n      0x00\n        /* \"#utility.yul\":6177:6290   */\n    tag_346:\n        /* \"#utility.yul\":6191:6197   */\n      dup4\n        /* \"#utility.yul\":6188:6189   */\n      dup2\n        /* \"#utility.yul\":6185:6198   */\n      lt\n        /* \"#utility.yul\":6177:6290   */\n      iszero\n      tag_348\n      jumpi\n        /* \"#utility.yul\":6276:6277   */\n      dup1\n        /* \"#utility.yul\":6271:6274   */\n      dup3\n        /* \"#utility.yul\":6267:6278   */\n      add\n        /* \"#utility.yul\":6261:6279   */\n      mload\n        /* \"#utility.yul\":6257:6258   */\n      dup2\n        /* \"#utility.yul\":6252:6255   */\n      dup5\n        /* \"#utility.yul\":6248:6259   */\n      add\n        /* \"#utility.yul\":6241:6280   */\n      mstore\n        /* \"#utility.yul\":6213:6215   */\n      0x20\n        /* \"#utility.yul\":6210:6211   */\n      dup2\n        /* \"#utility.yul\":6206:6216   */\n      add\n        /* \"#utility.yul\":6201:6216   */\n      swap1\n      pop\n        /* \"#utility.yul\":6177:6290   */\n      jump(tag_346)\n    tag_348:\n        /* \"#utility.yul\":6308:6314   */\n      dup4\n        /* \"#utility.yul\":6305:6306   */\n      dup2\n        /* \"#utility.yul\":6302:6315   */\n      gt\n        /* \"#utility.yul\":6299:6400   */\n      iszero\n      tag_349\n      jumpi\n        /* \"#utility.yul\":6388:6389   */\n      0x00\n        /* \"#utility.yul\":6379:6385   */\n      dup5\n        /* \"#utility.yul\":6374:6377   */\n      dup5\n        /* \"#utility.yul\":6370:6386   */\n      add\n        /* \"#utility.yul\":6363:6390   */\n      mstore\n        /* \"#utility.yul\":6299:6400   */\n    tag_349:\n        /* \"#utility.yul\":6148:6406   */\n      pop\n        /* \"#utility.yul\":6099:6406   */\n      pop\n      pop\n      pop\n      jump\t// out\n        /* \"#utility.yul\":6412:6776   */\n    tag_216:\n        /* \"#utility.yul\":6500:6503   */\n      0x00\n        /* \"#utility.yul\":6528:6567   */\n      tag_351\n        /* \"#utility.yul\":6561:6566   */\n      dup3\n        /* \"#utility.yul\":6528:6567   */\n      tag_213\n      jump\t// in\n    tag_351:\n        /* \"#utility.yul\":6583:6654   */\n      tag_352\n        /* \"#utility.yul\":6647:6653   */\n      dup2\n        /* \"#utility.yul\":6642:6645   */\n      dup6\n        /* \"#utility.yul\":6583:6654   */\n      tag_214\n      jump\t// in\n    tag_352:\n        /* \"#utility.yul\":6576:6654   */\n      swap4\n      pop\n        /* \"#utility.yul\":6663:6715   */\n      tag_353\n        /* \"#utility.yul\":6708:6714   */\n      dup2\n        /* \"#utility.yul\":6703:6706   */\n      dup6\n        /* \"#utility.yul\":6696:6700   */\n      0x20\n        /* \"#utility.yul\":6689:6694   */\n      dup7\n        /* \"#utility.yul\":6685:6701   */\n      add\n        /* \"#utility.yul\":6663:6715   */\n      tag_215\n      jump\t// in\n    tag_353:\n        /* \"#utility.yul\":6740:6769   */\n      tag_354\n        /* \"#utility.yul\":6762:6768   */\n      dup2\n        /* \"#utility.yul\":6740:6769   */\n      tag_198\n      jump\t// in\n    tag_354:\n        /* \"#utility.yul\":6735:6738   */\n      dup5\n        /* \"#utility.yul\":6731:6770   */\n      add\n        /* \"#utility.yul\":6724:6770   */\n      swap2\n      pop\n        /* \"#utility.yul\":6504:6776   */\n      pop\n        /* \"#utility.yul\":6412:6776   */\n      swap3\n      swap2\n      pop\n      pop\n      jump\t// out\n        /* \"#utility.yul\":6782:6900   */\n    tag_217:\n        /* \"#utility.yul\":6869:6893   */\n      tag_356\n        /* \"#utility.yul\":6887:6892   */\n      dup2\n        /* \"#utility.yul\":6869:6893   */\n      tag_205\n      jump\t// in\n    tag_356:\n        /* \"#utility.yul\":6864:6867   */\n      dup3\n        /* \"#utility.yul\":6857:6894   */\n      mstore\n        /* \"#utility.yul\":6782:6900   */\n      pop\n      pop\n      jump\t// out\n        /* \"#utility.yul\":6906:7329   */\n    tag_30:\n        /* \"#utility.yul\":7047:7051   */\n      0x00\n        /* \"#utility.yul\":7085:7087   */\n      0x40\n        /* \"#utility.yul\":7074:7083   */\n      dup3\n        /* \"#utility.yul\":7070:7088   */\n      add\n        /* \"#utility.yul\":7062:7088   */\n      swap1\n      pop\n        /* \"#utility.yul\":7134:7143   */\n      dup2\n        /* \"#utility.yul\":7128:7132   */\n      dup2\n        /* \"#utility.yul\":7124:7144   */\n      sub\n        /* \"#utility.yul\":7120:7121   */\n      0x00\n        /* \"#utility.yul\":7109:7118   */\n      dup4\n        /* \"#utility.yul\":7105:7122   */\n      add\n        /* \"#utility.yul\":7098:7145   */\n      mstore\n        /* \"#utility.yul\":7162:7240   */\n      tag_358\n        /* \"#utility.yul\":7235:7239   */\n      dup2\n        /* \"#utility.yul\":7226:7232   */\n      dup6\n        /* \"#utility.yul\":7162:7240   */\n      tag_216\n      jump\t// in\n    tag_358:\n        /* \"#utility.yul\":7154:7240   */\n      swap1\n      pop\n        /* \"#utility.yul\":7250:7322   */\n      tag_359\n        /* \"#utility.yul\":7318:7320   */\n      0x20\n        /* \"#utility.yul\":7307:7316   */\n      dup4\n        /* \"#utility.yul\":7303:7321   */\n      add\n        /* \"#utility.yul\":7294:7300   */\n      dup5\n        /* \"#utility.yul\":7250:7322   */\n      tag_217\n      jump\t// in\n    tag_359:\n        /* \"#utility.yul\":6906:7329   */\n      swap4\n      swap3\n      pop\n      pop\n      pop\n      jump\t// out\n        /* \"#utility.yul\":7335:7642   */\n    tag_218:\n        /* \"#utility.yul\":7396:7400   */\n      0x00\n        /* \"#utility.yul\":7486:7504   */\n      0xffffffffffffffff\n        /* \"#utility.yul\":7478:7484   */\n      dup3\n        /* \"#utility.yul\":7475:7505   */\n      gt\n        /* \"#utility.yul\":7472:7528   */\n      iszero\n      tag_361\n      jumpi\n        /* \"#utility.yul\":7508:7526   */\n      tag_362\n      tag_121\n      jump\t// in\n    tag_362:\n        /* \"#utility.yul\":7472:7528   */\n    tag_361:\n        /* \"#utility.yul\":7546:7575   */\n      tag_363\n        /* \"#utility.yul\":7568:7574   */\n      dup3\n        /* \"#utility.yul\":7546:7575   */\n      tag_198\n      jump\t// in\n    tag_363:\n        /* \"#utility.yul\":7538:7575   */\n      swap1\n      pop\n        /* \"#utility.yul\":7630:7634   */\n      0x20\n        /* \"#utility.yul\":7624:7628   */\n      dup2\n        /* \"#utility.yul\":7620:7635   */\n      add\n        /* \"#utility.yul\":7612:7635   */\n      swap1\n      pop\n        /* \"#utility.yul\":7335:7642   */\n      swap2\n      swap1\n      pop\n      jump\t// out\n        /* \"#utility.yul\":7648:8058   */\n    tag_219:\n        /* \"#utility.yul\":7725:7730   */\n      0x00\n        /* \"#utility.yul\":7750:7815   */\n      tag_365\n        /* \"#utility.yul\":7766:7814   */\n      tag_366\n        /* \"#utility.yul\":7807:7813   */\n      dup5\n        /* \"#utility.yul\":7766:7814   */\n      tag_218\n      jump\t// in\n    tag_366:\n        /* \"#utility.yul\":7750:7815   */\n      tag_200\n      jump\t// in\n    tag_365:\n        /* \"#utility.yul\":7741:7815   */\n      swap1\n      pop\n        /* \"#utility.yul\":7838:7844   */\n      dup3\n        /* \"#utility.yul\":7831:7836   */\n      dup2\n        /* \"#utility.yul\":7824:7845   */\n      mstore\n        /* \"#utility.yul\":7876:7880   */\n      0x20\n        /* \"#utility.yul\":7869:7874   */\n      dup2\n        /* \"#utility.yul\":7865:7881   */\n      add\n        /* \"#utility.yul\":7914:7917   */\n      dup5\n        /* \"#utility.yul\":7905:7911   */\n      dup5\n        /* \"#utility.yul\":7900:7903   */\n      dup5\n        /* \"#utility.yul\":7896:7912   */\n      add\n        /* \"#utility.yul\":7893:7918   */\n      gt\n        /* \"#utility.yul\":7890:8002   */\n      iszero\n      tag_367\n      jumpi\n        /* \"#utility.yul\":7921:8000   */\n      tag_368\n      tag_197\n      jump\t// in\n    tag_368:\n        /* \"#utility.yul\":7890:8002   */\n    tag_367:\n        /* \"#utility.yul\":8011:8052   */\n      tag_369\n        /* \"#utility.yul\":8045:8051   */\n      dup5\n        /* \"#utility.yul\":8040:8043   */\n      dup3\n        /* \"#utility.yul\":8035:8038   */\n      dup6\n        /* \"#utility.yul\":8011:8052   */\n      tag_202\n      jump\t// in\n    tag_369:\n        /* \"#utility.yul\":7731:8058   */\n      pop\n        /* \"#utility.yul\":7648:8058   */\n      swap4\n      swap3\n      pop\n      pop\n      pop\n      jump\t// out\n        /* \"#utility.yul\":8077:8415   */\n    tag_220:\n        /* \"#utility.yul\":8132:8137   */\n      0x00\n        /* \"#utility.yul\":8181:8184   */\n      dup3\n        /* \"#utility.yul\":8174:8178   */\n      0x1f\n        /* \"#utility.yul\":8166:8172   */\n      dup4\n        /* \"#utility.yul\":8162:8179   */\n      add\n        /* \"#utility.yul\":8158:8185   */\n      slt\n        /* \"#utility.yul\":8148:8270   */\n      tag_371\n      jumpi\n        /* \"#utility.yul\":8189:8268   */\n      tag_372\n      tag_196\n      jump\t// in\n    tag_372:\n        /* \"#utility.yul\":8148:8270   */\n    tag_371:\n        /* \"#utility.yul\":8306:8312   */\n      dup2\n        /* \"#utility.yul\":8293:8313   */\n      calldataload\n        /* \"#utility.yul\":8331:8409   */\n      tag_373\n        /* \"#utility.yul\":8405:8408   */\n      dup5\n        /* \"#utility.yul\":8397:8403   */\n      dup3\n        /* \"#utility.yul\":8390:8394   */\n      0x20\n        /* \"#utility.yul\":8382:8388   */\n      dup7\n        /* \"#utility.yul\":8378:8395   */\n      add\n        /* \"#utility.yul\":8331:8409   */\n      tag_219\n      jump\t// in\n    tag_373:\n        /* \"#utility.yul\":8322:8409   */\n      swap2\n      pop\n        /* \"#utility.yul\":8138:8415   */\n      pop\n        /* \"#utility.yul\":8077:8415   */\n      swap3\n      swap2\n      pop\n      pop\n      jump\t// out\n        /* \"#utility.yul\":8421:9544   */\n    tag_34:\n        /* \"#utility.yul\":8526:8532   */\n      0x00\n        /* \"#utility.yul\":8534:8540   */\n      dup1\n        /* \"#utility.yul\":8542:8548   */\n      0x00\n        /* \"#utility.yul\":8550:8556   */\n      dup1\n        /* \"#utility.yul\":8599:8602   */\n      0x80\n        /* \"#utility.yul\":8587:8596   */\n      dup6\n        /* \"#utility.yul\":8578:8585   */\n      dup8\n        /* \"#utility.yul\":8574:8597   */\n      sub\n        /* \"#utility.yul\":8570:8603   */\n      slt\n        /* \"#utility.yul\":8567:8687   */\n      iszero\n      tag_375\n      jumpi\n        /* \"#utility.yul\":8606:8685   */\n      tag_376\n      tag_190\n      jump\t// in\n    tag_376:\n        /* \"#utility.yul\":8567:8687   */\n    tag_375:\n        /* \"#utility.yul\":8726:8727   */\n      0x00\n        /* \"#utility.yul\":8751:8804   */\n      tag_377\n        /* \"#utility.yul\":8796:8803   */\n      dup8\n        /* \"#utility.yul\":8787:8793   */\n      dup3\n        /* \"#utility.yul\":8776:8785   */\n      dup9\n        /* \"#utility.yul\":8772:8794   */\n      add\n        /* \"#utility.yul\":8751:8804   */\n      tag_195\n      jump\t// in\n    tag_377:\n        /* \"#utility.yul\":8741:8804   */\n      swap5\n      pop\n        /* \"#utility.yul\":8697:8814   */\n      pop\n        /* \"#utility.yul\":8881:8883   */\n      0x20\n        /* \"#utility.yul\":8870:8879   */\n      dup6\n        /* \"#utility.yul\":8866:8884   */\n      add\n        /* \"#utility.yul\":8853:8885   */\n      calldataload\n        /* \"#utility.yul\":8912:8930   */\n      0xffffffffffffffff\n        /* \"#utility.yul\":8904:8910   */\n      dup2\n        /* \"#utility.yul\":8901:8931   */\n      gt\n        /* \"#utility.yul\":8898:9015   */\n      iszero\n      tag_378\n      jumpi\n        /* \"#utility.yul\":8934:9013   */\n      tag_379\n      tag_191\n      jump\t// in\n    tag_379:\n        /* \"#utility.yul\":8898:9015   */\n    tag_378:\n        /* \"#utility.yul\":9039:9102   */\n      tag_380\n        /* \"#utility.yul\":9094:9101   */\n      dup8\n        /* \"#utility.yul\":9085:9091   */\n      dup3\n        /* \"#utility.yul\":9074:9083   */\n      dup9\n        /* \"#utility.yul\":9070:9092   */\n      add\n        /* \"#utility.yul\":9039:9102   */\n      tag_204\n      jump\t// in\n    tag_380:\n        /* \"#utility.yul\":9029:9102   */\n      swap4\n      pop\n        /* \"#utility.yul\":8824:9112   */\n      pop\n        /* \"#utility.yul\":9151:9153   */\n      0x40\n        /* \"#utility.yul\":9177:9230   */\n      tag_381\n        /* \"#utility.yul\":9222:9229   */\n      dup8\n        /* \"#utility.yul\":9213:9219   */\n      dup3\n        /* \"#utility.yul\":9202:9211   */\n      dup9\n        /* \"#utility.yul\":9198:9220   */\n      add\n        /* \"#utility.yul\":9177:9230   */\n      tag_207\n      jump\t// in\n    tag_381:\n        /* \"#utility.yul\":9167:9230   */\n      swap3\n      pop\n        /* \"#utility.yul\":9122:9240   */\n      pop\n        /* \"#utility.yul\":9307:9309   */\n      0x60\n        /* \"#utility.yul\":9296:9305   */\n      dup6\n        /* \"#utility.yul\":9292:9310   */\n      add\n        /* \"#utility.yul\":9279:9311   */\n      calldataload\n        /* \"#utility.yul\":9338:9356   */\n      0xffffffffffffffff\n        /* \"#utility.yul\":9330:9336   */\n      dup2\n        /* \"#utility.yul\":9327:9357   */\n      gt\n        /* \"#utility.yul\":9324:9441   */\n      iszero\n      tag_382\n      jumpi\n        /* \"#utility.yul\":9360:9439   */\n      tag_383\n      tag_191\n      jump\t// in\n    tag_383:\n        /* \"#utility.yul\":9324:9441   */\n    tag_382:\n        /* \"#utility.yul\":9465:9527   */\n      tag_384\n        /* \"#utility.yul\":9519:9526   */\n      dup8\n        /* \"#utility.yul\":9510:9516   */\n      dup3\n        /* \"#utility.yul\":9499:9508   */\n      dup9\n        /* \"#utility.yul\":9495:9517   */\n      add\n        /* \"#utility.yul\":9465:9527   */\n      tag_220\n      jump\t// in\n    tag_384:\n        /* \"#utility.yul\":9455:9527   */\n      swap2\n      pop\n        /* \"#utility.yul\":9250:9537   */\n      pop\n        /* \"#utility.yul\":8421:9544   */\n      swap3\n      swap6\n      swap2\n      swap5\n      pop\n      swap3\n      pop\n      jump\t// out\n        /* \"#utility.yul\":9550:10059   */\n    tag_39:\n        /* \"#utility.yul\":9619:9625   */\n      0x00\n        /* \"#utility.yul\":9668:9670   */\n      0x20\n        /* \"#utility.yul\":9656:9665   */\n      dup3\n        /* \"#utility.yul\":9647:9654   */\n      dup5\n        /* \"#utility.yul\":9643:9666   */\n      sub\n        /* \"#utility.yul\":9639:9671   */\n      slt\n        /* \"#utility.yul\":9636:9755   */\n      iszero\n      tag_386\n      jumpi\n        /* \"#utility.yul\":9674:9753   */\n      tag_387\n      tag_190\n      jump\t// in\n    tag_387:\n        /* \"#utility.yul\":9636:9755   */\n    tag_386:\n        /* \"#utility.yul\":9822:9823   */\n      0x00\n        /* \"#utility.yul\":9811:9820   */\n      dup3\n        /* \"#utility.yul\":9807:9824   */\n      add\n        /* \"#utility.yul\":9794:9825   */\n      calldataload\n        /* \"#utility.yul\":9852:9870   */\n      0xffffffffffffffff\n        /* \"#utility.yul\":9844:9850   */\n      dup2\n        /* \"#utility.yul\":9841:9871   */\n      gt\n        /* \"#utility.yul\":9838:9955   */\n      iszero\n      tag_388\n      jumpi\n        /* \"#utility.yul\":9874:9953   */\n      tag_389\n      tag_191\n      jump\t// in\n    tag_389:\n        /* \"#utility.yul\":9838:9955   */\n    tag_388:\n        /* \"#utility.yul\":9979:10042   */\n      tag_390\n        /* \"#utility.yul\":10034:10041   */\n      dup5\n        /* \"#utility.yul\":10025:10031   */\n      dup3\n        /* \"#utility.yul\":10014:10023   */\n      dup6\n        /* \"#utility.yul\":10010:10032   */\n      add\n        /* \"#utility.yul\":9979:10042   */\n      tag_204\n      jump\t// in\n    tag_390:\n        /* \"#utility.yul\":9969:10042   */\n      swap2\n      pop\n        /* \"#utility.yul\":9765:10052   */\n      pop\n        /* \"#utility.yul\":9550:10059   */\n      swap3\n      swap2\n      pop\n      pop\n      jump\t// out\n        /* \"#utility.yul\":10065:10179   */\n    tag_221:\n        /* \"#utility.yul\":10132:10138   */\n      0x00\n        /* \"#utility.yul\":10166:10171   */\n      dup2\n        /* \"#utility.yul\":10160:10172   */\n      mload\n        /* \"#utility.yul\":10150:10172   */\n      swap1\n      pop\n        /* \"#utility.yul\":10065:10179   */\n      swap2\n      swap1\n      pop\n      jump\t// out\n        /* \"#utility.yul\":10185:10369   */\n    tag_222:\n        /* \"#utility.yul\":10284:10295   */\n      0x00\n        /* \"#utility.yul\":10318:10324   */\n      dup3\n        /* \"#utility.yul\":10313:10316   */\n      dup3\n        /* \"#utility.yul\":10306:10325   */\n      mstore\n        /* \"#utility.yul\":10358:10362   */\n      0x20\n        /* \"#utility.yul\":10353:10356   */\n      dup3\n        /* \"#utility.yul\":10349:10363   */\n      add\n        /* \"#utility.yul\":10334:10363   */\n      swap1\n      pop\n        /* \"#utility.yul\":10185:10369   */\n      swap3\n      swap2\n      pop\n      pop\n      jump\t// out\n        /* \"#utility.yul\":10375:10507   */\n    tag_223:\n        /* \"#utility.yul\":10442:10446   */\n      0x00\n        /* \"#utility.yul\":10465:10468   */\n      dup2\n        /* \"#utility.yul\":10457:10468   */\n      swap1\n      pop\n        /* \"#utility.yul\":10495:10499   */\n      0x20\n        /* \"#utility.yul\":10490:10493   */\n      dup3\n        /* \"#utility.yul\":10486:10500   */\n      add\n        /* \"#utility.yul\":10478:10500   */\n      swap1\n      pop\n        /* \"#utility.yul\":10375:10507   */\n      swap2\n      swap1\n      pop\n      jump\t// out\n        /* \"#utility.yul\":10513:10621   */\n    tag_224:\n        /* \"#utility.yul\":10590:10614   */\n      tag_395\n        /* \"#utility.yul\":10608:10613   */\n      dup2\n        /* \"#utility.yul\":10590:10614   */\n      tag_205\n      jump\t// in\n    tag_395:\n        /* \"#utility.yul\":10585:10588   */\n      dup3\n        /* \"#utility.yul\":10578:10615   */\n      mstore\n        /* \"#utility.yul\":10513:10621   */\n      pop\n      pop\n      jump\t// out\n        /* \"#utility.yul\":10627:10806   */\n    tag_225:\n        /* \"#utility.yul\":10696:10706   */\n      0x00\n        /* \"#utility.yul\":10717:10763   */\n      tag_397\n        /* \"#utility.yul\":10759:10762   */\n      dup4\n        /* \"#utility.yul\":10751:10757   */\n      dup4\n        /* \"#utility.yul\":10717:10763   */\n      tag_224\n      jump\t// in\n    tag_397:\n        /* \"#utility.yul\":10795:10799   */\n      0x20\n        /* \"#utility.yul\":10790:10793   */\n      dup4\n        /* \"#utility.yul\":10786:10800   */\n      add\n        /* \"#utility.yul\":10772:10800   */\n      swap1\n      pop\n        /* \"#utility.yul\":10627:10806   */\n      swap3\n      swap2\n      pop\n      pop\n      jump\t// out\n        /* \"#utility.yul\":10812:10925   */\n    tag_226:\n        /* \"#utility.yul\":10882:10886   */\n      0x00\n        /* \"#utility.yul\":10914:10918   */\n      0x20\n        /* \"#utility.yul\":10909:10912   */\n      dup3\n        /* \"#utility.yul\":10905:10919   */\n      add\n        /* \"#utility.yul\":10897:10919   */\n      swap1\n      pop\n        /* \"#utility.yul\":10812:10925   */\n      swap2\n      swap1\n      pop\n      jump\t// out\n        /* \"#utility.yul\":10961:11693   */\n    tag_227:\n        /* \"#utility.yul\":11080:11083   */\n      0x00\n        /* \"#utility.yul\":11109:11163   */\n      tag_400\n        /* \"#utility.yul\":11157:11162   */\n      dup3\n        /* \"#utility.yul\":11109:11163   */\n      tag_221\n      jump\t// in\n    tag_400:\n        /* \"#utility.yul\":11179:11265   */\n      tag_401\n        /* \"#utility.yul\":11258:11264   */\n      dup2\n        /* \"#utility.yul\":11253:11256   */\n      dup6\n        /* \"#utility.yul\":11179:11265   */\n      tag_222\n      jump\t// in\n    tag_401:\n        /* \"#utility.yul\":11172:11265   */\n      swap4\n      pop\n        /* \"#utility.yul\":11289:11345   */\n      tag_402\n        /* \"#utility.yul\":11339:11344   */\n      dup4\n        /* \"#utility.yul\":11289:11345   */\n      tag_223\n      jump\t// in\n    tag_402:\n        /* \"#utility.yul\":11368:11375   */\n      dup1\n        /* \"#utility.yul\":11399:11400   */\n      0x00\n        /* \"#utility.yul\":11384:11668   */\n    tag_403:\n        /* \"#utility.yul\":11409:11415   */\n      dup4\n        /* \"#utility.yul\":11406:11407   */\n      dup2\n        /* \"#utility.yul\":11403:11416   */\n      lt\n        /* \"#utility.yul\":11384:11668   */\n      iszero\n      tag_405\n      jumpi\n        /* \"#utility.yul\":11485:11491   */\n      dup2\n        /* \"#utility.yul\":11479:11492   */\n      mload\n        /* \"#utility.yul\":11512:11575   */\n      tag_406\n        /* \"#utility.yul\":11571:11574   */\n      dup9\n        /* \"#utility.yul\":11556:11569   */\n      dup3\n        /* \"#utility.yul\":11512:11575   */\n      tag_225\n      jump\t// in\n    tag_406:\n        /* \"#utility.yul\":11505:11575   */\n      swap8\n      pop\n        /* \"#utility.yul\":11598:11658   */\n      tag_407\n        /* \"#utility.yul\":11651:11657   */\n      dup4\n        /* \"#utility.yul\":11598:11658   */\n      tag_226\n      jump\t// in\n    tag_407:\n        /* \"#utility.yul\":11588:11658   */\n      swap3\n      pop\n        /* \"#utility.yul\":11444:11668   */\n      pop\n        /* \"#utility.yul\":11431:11432   */\n      0x01\n        /* \"#utility.yul\":11428:11429   */\n      dup2\n        /* \"#utility.yul\":11424:11433   */\n      add\n        /* \"#utility.yul\":11419:11433   */\n      swap1\n      pop\n        /* \"#utility.yul\":11384:11668   */\n      jump(tag_403)\n    tag_405:\n        /* \"#utility.yul\":11388:11402   */\n      pop\n        /* \"#utility.yul\":11684:11687   */\n      dup6\n        /* \"#utility.yul\":11677:11687   */\n      swap4\n      pop\n        /* \"#utility.yul\":11085:11693   */\n      pop\n      pop\n      pop\n        /* \"#utility.yul\":10961:11693   */\n      swap3\n      swap2\n      pop\n      pop\n      jump\t// out\n        /* \"#utility.yul\":11699:11817   */\n    tag_228:\n        /* \"#utility.yul\":11786:11810   */\n      tag_409\n        /* \"#utility.yul\":11804:11809   */\n      dup2\n        /* \"#utility.yul\":11786:11810   */\n      tag_193\n      jump\t// in\n    tag_409:\n        /* \"#utility.yul\":11781:11784   */\n      dup3\n        /* \"#utility.yul\":11774:11811   */\n      mstore\n        /* \"#utility.yul\":11699:11817   */\n      pop\n      pop\n      jump\t// out\n        /* \"#utility.yul\":11823:12416   */\n    tag_42:\n        /* \"#utility.yul\":12022:12026   */\n      0x00\n        /* \"#utility.yul\":12060:12062   */\n      0x60\n        /* \"#utility.yul\":12049:12058   */\n      dup3\n        /* \"#utility.yul\":12045:12063   */\n      add\n        /* \"#utility.yul\":12037:12063   */\n      swap1\n      pop\n        /* \"#utility.yul\":12109:12118   */\n      dup2\n        /* \"#utility.yul\":12103:12107   */\n      dup2\n        /* \"#utility.yul\":12099:12119   */\n      sub\n        /* \"#utility.yul\":12095:12096   */\n      0x00\n        /* \"#utility.yul\":12084:12093   */\n      dup4\n        /* \"#utility.yul\":12080:12097   */\n      add\n        /* \"#utility.yul\":12073:12120   */\n      mstore\n        /* \"#utility.yul\":12137:12245   */\n      tag_411\n        /* \"#utility.yul\":12240:12244   */\n      dup2\n        /* \"#utility.yul\":12231:12237   */\n      dup7\n        /* \"#utility.yul\":12137:12245   */\n      tag_227\n      jump\t// in\n    tag_411:\n        /* \"#utility.yul\":12129:12245   */\n      swap1\n      pop\n        /* \"#utility.yul\":12255:12327   */\n      tag_412\n        /* \"#utility.yul\":12323:12325   */\n      0x20\n        /* \"#utility.yul\":12312:12321   */\n      dup4\n        /* \"#utility.yul\":12308:12326   */\n      add\n        /* \"#utility.yul\":12299:12305   */\n      dup6\n        /* \"#utility.yul\":12255:12327   */\n      tag_228\n      jump\t// in\n    tag_412:\n        /* \"#utility.yul\":12337:12409   */\n      tag_413\n        /* \"#utility.yul\":12405:12407   */\n      0x40\n        /* \"#utility.yul\":12394:12403   */\n      dup4\n        /* \"#utility.yul\":12390:12408   */\n      add\n        /* \"#utility.yul\":12381:12387   */\n      dup5\n        /* \"#utility.yul\":12337:12409   */\n      tag_217\n      jump\t// in\n    tag_413:\n        /* \"#utility.yul\":11823:12416   */\n      swap5\n      swap4\n      pop\n      pop\n      pop\n      pop\n      jump\t// out\n        /* \"#utility.yul\":12422:13076   */\n    tag_46:\n        /* \"#utility.yul\":12500:12506   */\n      0x00\n        /* \"#utility.yul\":12508:12514   */\n      dup1\n        /* \"#utility.yul\":12557:12559   */\n      0x40\n        /* \"#utility.yul\":12545:12554   */\n      dup4\n        /* \"#utility.yul\":12536:12543   */\n      dup6\n        /* \"#utility.yul\":12532:12555   */\n      sub\n        /* \"#utility.yul\":12528:12560   */\n      slt\n        /* \"#utility.yul\":12525:12644   */\n      iszero\n      tag_415\n      jumpi\n        /* \"#utility.yul\":12563:12642   */\n      tag_416\n      tag_190\n      jump\t// in\n    tag_416:\n        /* \"#utility.yul\":12525:12644   */\n    tag_415:\n        /* \"#utility.yul\":12683:12684   */\n      0x00\n        /* \"#utility.yul\":12708:12761   */\n      tag_417\n        /* \"#utility.yul\":12753:12760   */\n      dup6\n        /* \"#utility.yul\":12744:12750   */\n      dup3\n        /* \"#utility.yul\":12733:12742   */\n      dup7\n        /* \"#utility.yul\":12729:12751   */\n      add\n        /* \"#utility.yul\":12708:12761   */\n      tag_195\n      jump\t// in\n    tag_417:\n        /* \"#utility.yul\":12698:12761   */\n      swap3\n      pop\n        /* \"#utility.yul\":12654:12771   */\n      pop\n        /* \"#utility.yul\":12838:12840   */\n      0x20\n        /* \"#utility.yul\":12827:12836   */\n      dup4\n        /* \"#utility.yul\":12823:12841   */\n      add\n        /* \"#utility.yul\":12810:12842   */\n      calldataload\n        /* \"#utility.yul\":12869:12887   */\n      0xffffffffffffffff\n        /* \"#utility.yul\":12861:12867   */\n      dup2\n        /* \"#utility.yul\":12858:12888   */\n      gt\n        /* \"#utility.yul\":12855:12972   */\n      iszero\n      tag_418\n      jumpi\n        /* \"#utility.yul\":12891:12970   */\n      tag_419\n      tag_191\n      jump\t// in\n    tag_419:\n        /* \"#utility.yul\":12855:12972   */\n    tag_418:\n        /* \"#utility.yul\":12996:13059   */\n      tag_420\n        /* \"#utility.yul\":13051:13058   */\n      dup6\n        /* \"#utility.yul\":13042:13048   */\n      dup3\n        /* \"#utility.yul\":13031:13040   */\n      dup7\n        /* \"#utility.yul\":13027:13049   */\n      add\n        /* \"#utility.yul\":12996:13059   */\n      tag_204\n      jump\t// in\n    tag_420:\n        /* \"#utility.yul\":12986:13059   */\n      swap2\n      pop\n        /* \"#utility.yul\":12781:13069   */\n      pop\n        /* \"#utility.yul\":12422:13076   */\n      swap3\n      pop\n      swap3\n      swap1\n      pop\n      jump\t// out\n        /* \"#utility.yul\":13082:13175   */\n    tag_229:\n        /* \"#utility.yul\":13118:13125   */\n      0x00\n        /* \"#utility.yul\":13158:13168   */\n      0xffffffff\n        /* \"#utility.yul\":13151:13156   */\n      dup3\n        /* \"#utility.yul\":13147:13169   */\n      and\n        /* \"#utility.yul\":13136:13169   */\n      swap1\n      pop\n        /* \"#utility.yul\":13082:13175   */\n      swap2\n      swap1\n      pop\n      jump\t// out\n        /* \"#utility.yul\":13181:13296   */\n    tag_230:\n        /* \"#utility.yul\":13266:13289   */\n      tag_423\n        /* \"#utility.yul\":13283:13288   */\n      dup2\n        /* \"#utility.yul\":13266:13289   */\n      tag_229\n      jump\t// in\n    tag_423:\n        /* \"#utility.yul\":13261:13264   */\n      dup3\n        /* \"#utility.yul\":13254:13290   */\n      mstore\n        /* \"#utility.yul\":13181:13296   */\n      pop\n      pop\n      jump\t// out\n        /* \"#utility.yul\":13302:13417   */\n    tag_231:\n        /* \"#utility.yul\":13387:13410   */\n      tag_425\n        /* \"#utility.yul\":13404:13409   */\n      dup2\n        /* \"#utility.yul\":13387:13410   */\n      tag_210\n      jump\t// in\n    tag_425:\n        /* \"#utility.yul\":13382:13385   */\n      dup3\n        /* \"#utility.yul\":13375:13411   */\n      mstore\n        /* \"#utility.yul\":13302:13417   */\n      pop\n      pop\n      jump\t// out\n        /* \"#utility.yul\":13423:13513   */\n    tag_232:\n        /* \"#utility.yul\":13457:13464   */\n      0x00\n        /* \"#utility.yul\":13500:13505   */\n      dup2\n        /* \"#utility.yul\":13493:13506   */\n      iszero\n        /* \"#utility.yul\":13486:13507   */\n      iszero\n        /* \"#utility.yul\":13475:13507   */\n      swap1\n      pop\n        /* \"#utility.yul\":13423:13513   */\n      swap2\n      swap1\n      pop\n      jump\t// out\n        /* \"#utility.yul\":13519:13628   */\n    tag_233:\n        /* \"#utility.yul\":13600:13621   */\n      tag_428\n        /* \"#utility.yul\":13615:13620   */\n      dup2\n        /* \"#utility.yul\":13600:13621   */\n      tag_232\n      jump\t// in\n    tag_428:\n        /* \"#utility.yul\":13595:13598   */\n      dup3\n        /* \"#utility.yul\":13588:13622   */\n      mstore\n        /* \"#utility.yul\":13519:13628   */\n      pop\n      pop\n      jump\t// out\n        /* \"#utility.yul\":13634:14167   */\n    tag_53:\n        /* \"#utility.yul\":13801:13805   */\n      0x00\n        /* \"#utility.yul\":13839:13842   */\n      0x80\n        /* \"#utility.yul\":13828:13837   */\n      dup3\n        /* \"#utility.yul\":13824:13843   */\n      add\n        /* \"#utility.yul\":13816:13843   */\n      swap1\n      pop\n        /* \"#utility.yul\":13853:13924   */\n      tag_430\n        /* \"#utility.yul\":13921:13922   */\n      0x00\n        /* \"#utility.yul\":13910:13919   */\n      dup4\n        /* \"#utility.yul\":13906:13923   */\n      add\n        /* \"#utility.yul\":13897:13903   */\n      dup8\n        /* \"#utility.yul\":13853:13924   */\n      tag_228\n      jump\t// in\n    tag_430:\n        /* \"#utility.yul\":13934:14004   */\n      tag_431\n        /* \"#utility.yul\":14000:14002   */\n      0x20\n        /* \"#utility.yul\":13989:13998   */\n      dup4\n        /* \"#utility.yul\":13985:14003   */\n      add\n        /* \"#utility.yul\":13976:13982   */\n      dup7\n        /* \"#utility.yul\":13934:14004   */\n      tag_230\n      jump\t// in\n    tag_431:\n        /* \"#utility.yul\":14014:14084   */\n      tag_432\n        /* \"#utility.yul\":14080:14082   */\n      0x40\n        /* \"#utility.yul\":14069:14078   */\n      dup4\n        /* \"#utility.yul\":14065:14083   */\n      add\n        /* \"#utility.yul\":14056:14062   */\n      dup6\n        /* \"#utility.yul\":14014:14084   */\n      tag_231\n      jump\t// in\n    tag_432:\n        /* \"#utility.yul\":14094:14160   */\n      tag_433\n        /* \"#utility.yul\":14156:14158   */\n      0x60\n        /* \"#utility.yul\":14145:14154   */\n      dup4\n        /* \"#utility.yul\":14141:14159   */\n      add\n        /* \"#utility.yul\":14132:14138   */\n      dup5\n        /* \"#utility.yul\":14094:14160   */\n      tag_233\n      jump\t// in\n    tag_433:\n        /* \"#utility.yul\":13634:14167   */\n      swap6\n      swap5\n      pop\n      pop\n      pop\n      pop\n      pop\n      jump\t// out\n        /* \"#utility.yul\":14173:14502   */\n    tag_57:\n        /* \"#utility.yul\":14232:14238   */\n      0x00\n        /* \"#utility.yul\":14281:14283   */\n      0x20\n        /* \"#utility.yul\":14269:14278   */\n      dup3\n        /* \"#utility.yul\":14260:14267   */\n      dup5\n        /* \"#utility.yul\":14256:14279   */\n      sub\n        /* \"#utility.yul\":14252:14284   */\n      slt\n        /* \"#utility.yul\":14249:14368   */\n      iszero\n      tag_435\n      jumpi\n        /* \"#utility.yul\":14287:14366   */\n      tag_436\n      tag_190\n      jump\t// in\n    tag_436:\n        /* \"#utility.yul\":14249:14368   */\n    tag_435:\n        /* \"#utility.yul\":14407:14408   */\n      0x00\n        /* \"#utility.yul\":14432:14485   */\n      tag_437\n        /* \"#utility.yul\":14477:14484   */\n      dup5\n        /* \"#utility.yul\":14468:14474   */\n      dup3\n        /* \"#utility.yul\":14457:14466   */\n      dup6\n        /* \"#utility.yul\":14453:14475   */\n      add\n        /* \"#utility.yul\":14432:14485   */\n      tag_195\n      jump\t// in\n    tag_437:\n        /* \"#utility.yul\":14422:14485   */\n      swap2\n      pop\n        /* \"#utility.yul\":14378:14495   */\n      pop\n        /* \"#utility.yul\":14173:14502   */\n      swap3\n      swap2\n      pop\n      pop\n      jump\t// out\n        /* \"#utility.yul\":14508:14730   */\n    tag_60:\n        /* \"#utility.yul\":14601:14605   */\n      0x00\n        /* \"#utility.yul\":14639:14641   */\n      0x20\n        /* \"#utility.yul\":14628:14637   */\n      dup3\n        /* \"#utility.yul\":14624:14642   */\n      add\n        /* \"#utility.yul\":14616:14642   */\n      swap1\n      pop\n        /* \"#utility.yul\":14652:14723   */\n      tag_439\n        /* \"#utility.yul\":14720:14721   */\n      0x00\n        /* \"#utility.yul\":14709:14718   */\n      dup4\n        /* \"#utility.yul\":14705:14722   */\n      add\n        /* \"#utility.yul\":14696:14702   */\n      dup5\n        /* \"#utility.yul\":14652:14723   */\n      tag_217\n      jump\t// in\n    tag_439:\n        /* \"#utility.yul\":14508:14730   */\n      swap3\n      swap2\n      pop\n      pop\n      jump\t// out\n        /* \"#utility.yul\":14736:14850   */\n    tag_234:\n        /* \"#utility.yul\":14803:14809   */\n      0x00\n        /* \"#utility.yul\":14837:14842   */\n      dup2\n        /* \"#utility.yul\":14831:14843   */\n      mload\n        /* \"#utility.yul\":14821:14843   */\n      swap1\n      pop\n        /* \"#utility.yul\":14736:14850   */\n      swap2\n      swap1\n      pop\n      jump\t// out\n        /* \"#utility.yul\":14856:15040   */\n    tag_235:\n        /* \"#utility.yul\":14955:14966   */\n      0x00\n        /* \"#utility.yul\":14989:14995   */\n      dup3\n        /* \"#utility.yul\":14984:14987   */\n      dup3\n        /* \"#utility.yul\":14977:14996   */\n      mstore\n        /* \"#utility.yul\":15029:15033   */\n      0x20\n        /* \"#utility.yul\":15024:15027   */\n      dup3\n        /* \"#utility.yul\":15020:15034   */\n      add\n        /* \"#utility.yul\":15005:15034   */\n      swap1\n      pop\n        /* \"#utility.yul\":14856:15040   */\n      swap3\n      swap2\n      pop\n      pop\n      jump\t// out\n        /* \"#utility.yul\":15046:15178   */\n    tag_236:\n        /* \"#utility.yul\":15113:15117   */\n      0x00\n        /* \"#utility.yul\":15136:15139   */\n      dup2\n        /* \"#utility.yul\":15128:15139   */\n      swap1\n      pop\n        /* \"#utility.yul\":15166:15170   */\n      0x20\n        /* \"#utility.yul\":15161:15164   */\n      dup3\n        /* \"#utility.yul\":15157:15171   */\n      add\n        /* \"#utility.yul\":15149:15171   */\n      swap1\n      pop\n        /* \"#utility.yul\":15046:15178   */\n      swap2\n      swap1\n      pop\n      jump\t// out\n        /* \"#utility.yul\":15184:15292   */\n    tag_237:\n        /* \"#utility.yul\":15261:15285   */\n      tag_444\n        /* \"#utility.yul\":15279:15284   */\n      dup2\n        /* \"#utility.yul\":15261:15285   */\n      tag_193\n      jump\t// in\n    tag_444:\n        /* \"#utility.yul\":15256:15259   */\n      dup3\n        /* \"#utility.yul\":15249:15286   */\n      mstore\n        /* \"#utility.yul\":15184:15292   */\n      pop\n      pop\n      jump\t// out\n        /* \"#utility.yul\":15298:15477   */\n    tag_238:\n        /* \"#utility.yul\":15367:15377   */\n      0x00\n        /* \"#utility.yul\":15388:15434   */\n      tag_446\n        /* \"#utility.yul\":15430:15433   */\n      dup4\n        /* \"#utility.yul\":15422:15428   */\n      dup4\n        /* \"#utility.yul\":15388:15434   */\n      tag_237\n      jump\t// in\n    tag_446:\n        /* \"#utility.yul\":15466:15470   */\n      0x20\n        /* \"#utility.yul\":15461:15464   */\n      dup4\n        /* \"#utility.yul\":15457:15471   */\n      add\n        /* \"#utility.yul\":15443:15471   */\n      swap1\n      pop\n        /* \"#utility.yul\":15298:15477   */\n      swap3\n      swap2\n      pop\n      pop\n      jump\t// out\n        /* \"#utility.yul\":15483:15596   */\n    tag_239:\n        /* \"#utility.yul\":15553:15557   */\n      0x00\n        /* \"#utility.yul\":15585:15589   */\n      0x20\n        /* \"#utility.yul\":15580:15583   */\n      dup3\n        /* \"#utility.yul\":15576:15590   */\n      add\n        /* \"#utility.yul\":15568:15590   */\n      swap1\n      pop\n        /* \"#utility.yul\":15483:15596   */\n      swap2\n      swap1\n      pop\n      jump\t// out\n        /* \"#utility.yul\":15632:16364   */\n    tag_240:\n        /* \"#utility.yul\":15751:15754   */\n      0x00\n        /* \"#utility.yul\":15780:15834   */\n      tag_449\n        /* \"#utility.yul\":15828:15833   */\n      dup3\n        /* \"#utility.yul\":15780:15834   */\n      tag_234\n      jump\t// in\n    tag_449:\n        /* \"#utility.yul\":15850:15936   */\n      tag_450\n        /* \"#utility.yul\":15929:15935   */\n      dup2\n        /* \"#utility.yul\":15924:15927   */\n      dup6\n        /* \"#utility.yul\":15850:15936   */\n      tag_235\n      jump\t// in\n    tag_450:\n        /* \"#utility.yul\":15843:15936   */\n      swap4\n      pop\n        /* \"#utility.yul\":15960:16016   */\n      tag_451\n        /* \"#utility.yul\":16010:16015   */\n      dup4\n        /* \"#utility.yul\":15960:16016   */\n      tag_236\n      jump\t// in\n    tag_451:\n        /* \"#utility.yul\":16039:16046   */\n      dup1\n        /* \"#utility.yul\":16070:16071   */\n      0x00\n        /* \"#utility.yul\":16055:16339   */\n    tag_452:\n        /* \"#utility.yul\":16080:16086   */\n      dup4\n        /* \"#utility.yul\":16077:16078   */\n      dup2\n        /* \"#utility.yul\":16074:16087   */\n      lt\n        /* \"#utility.yul\":16055:16339   */\n      iszero\n      tag_454\n      jumpi\n        /* \"#utility.yul\":16156:16162   */\n      dup2\n        /* \"#utility.yul\":16150:16163   */\n      mload\n        /* \"#utility.yul\":16183:16246   */\n      tag_455\n        /* \"#utility.yul\":16242:16245   */\n      dup9\n        /* \"#utility.yul\":16227:16240   */\n      dup3\n        /* \"#utility.yul\":16183:16246   */\n      tag_238\n      jump\t// in\n    tag_455:\n        /* \"#utility.yul\":16176:16246   */\n      swap8\n      pop\n        /* \"#utility.yul\":16269:16329   */\n      tag_456\n        /* \"#utility.yul\":16322:16328   */\n      dup4\n        /* \"#utility.yul\":16269:16329   */\n      tag_239\n      jump\t// in\n    tag_456:\n        /* \"#utility.yul\":16259:16329   */\n      swap3\n      pop\n        /* \"#utility.yul\":16115:16339   */\n      pop\n        /* \"#utility.yul\":16102:16103   */\n      0x01\n        /* \"#utility.yul\":16099:16100   */\n      dup2\n        /* \"#utility.yul\":16095:16104   */\n      add\n        /* \"#utility.yul\":16090:16104   */\n      swap1\n      pop\n        /* \"#utility.yul\":16055:16339   */\n      jump(tag_452)\n    tag_454:\n        /* \"#utility.yul\":16059:16073   */\n      pop\n        /* \"#utility.yul\":16355:16358   */\n      dup6\n        /* \"#utility.yul\":16348:16358   */\n      swap4\n      pop\n        /* \"#utility.yul\":15756:16364   */\n      pop\n      pop\n      pop\n        /* \"#utility.yul\":15632:16364   */\n      swap3\n      swap2\n      pop\n      pop\n      jump\t// out\n        /* \"#utility.yul\":16370:16743   */\n    tag_71:\n        /* \"#utility.yul\":16513:16517   */\n      0x00\n        /* \"#utility.yul\":16551:16553   */\n      0x20\n        /* \"#utility.yul\":16540:16549   */\n      dup3\n        /* \"#utility.yul\":16536:16554   */\n      add\n        /* \"#utility.yul\":16528:16554   */\n      swap1\n      pop\n        /* \"#utility.yul\":16600:16609   */\n      dup2\n        /* \"#utility.yul\":16594:16598   */\n      dup2\n        /* \"#utility.yul\":16590:16610   */\n      sub\n        /* \"#utility.yul\":16586:16587   */\n      0x00\n        /* \"#utility.yul\":16575:16584   */\n      dup4\n        /* \"#utility.yul\":16571:16588   */\n      add\n        /* \"#utility.yul\":16564:16611   */\n      mstore\n        /* \"#utility.yul\":16628:16736   */\n      tag_458\n        /* \"#utility.yul\":16731:16735   */\n      dup2\n        /* \"#utility.yul\":16722:16728   */\n      dup5\n        /* \"#utility.yul\":16628:16736   */\n      tag_240\n      jump\t// in\n    tag_458:\n        /* \"#utility.yul\":16620:16736   */\n      swap1\n      pop\n        /* \"#utility.yul\":16370:16743   */\n      swap3\n      swap2\n      pop\n      pop\n      jump\t// out\n        /* \"#utility.yul\":16749:17403   */\n    tag_75:\n        /* \"#utility.yul\":16827:16833   */\n      0x00\n        /* \"#utility.yul\":16835:16841   */\n      dup1\n        /* \"#utility.yul\":16884:16886   */\n      0x40\n        /* \"#utility.yul\":16872:16881   */\n      dup4\n        /* \"#utility.yul\":16863:16870   */\n      dup6\n        /* \"#utility.yul\":16859:16882   */\n      sub\n        /* \"#utility.yul\":16855:16887   */\n      slt\n        /* \"#utility.yul\":16852:16971   */\n      iszero\n      tag_460\n      jumpi\n        /* \"#utility.yul\":16890:16969   */\n      tag_461\n      tag_190\n      jump\t// in\n    tag_461:\n        /* \"#utility.yul\":16852:16971   */\n    tag_460:\n        /* \"#utility.yul\":17038:17039   */\n      0x00\n        /* \"#utility.yul\":17027:17036   */\n      dup4\n        /* \"#utility.yul\":17023:17040   */\n      add\n        /* \"#utility.yul\":17010:17041   */\n      calldataload\n        /* \"#utility.yul\":17068:17086   */\n      0xffffffffffffffff\n        /* \"#utility.yul\":17060:17066   */\n      dup2\n        /* \"#utility.yul\":17057:17087   */\n      gt\n        /* \"#utility.yul\":17054:17171   */\n      iszero\n      tag_462\n      jumpi\n        /* \"#utility.yul\":17090:17169   */\n      tag_463\n      tag_191\n      jump\t// in\n    tag_463:\n        /* \"#utility.yul\":17054:17171   */\n    tag_462:\n        /* \"#utility.yul\":17195:17258   */\n      tag_464\n        /* \"#utility.yul\":17250:17257   */\n      dup6\n        /* \"#utility.yul\":17241:17247   */\n      dup3\n        /* \"#utility.yul\":17230:17239   */\n      dup7\n        /* \"#utility.yul\":17226:17248   */\n      add\n        /* \"#utility.yul\":17195:17258   */\n      tag_204\n      jump\t// in\n    tag_464:\n        /* \"#utility.yul\":17185:17258   */\n      swap3\n      pop\n        /* \"#utility.yul\":16981:17268   */\n      pop\n        /* \"#utility.yul\":17307:17309   */\n      0x20\n        /* \"#utility.yul\":17333:17386   */\n      tag_465\n        /* \"#utility.yul\":17378:17385   */\n      dup6\n        /* \"#utility.yul\":17369:17375   */\n      dup3\n        /* \"#utility.yul\":17358:17367   */\n      dup7\n        /* \"#utility.yul\":17354:17376   */\n      add\n        /* \"#utility.yul\":17333:17386   */\n      tag_207\n      jump\t// in\n    tag_465:\n        /* \"#utility.yul\":17323:17386   */\n      swap2\n      pop\n        /* \"#utility.yul\":17278:17396   */\n      pop\n        /* \"#utility.yul\":16749:17403   */\n      swap3\n      pop\n      swap3\n      swap1\n      pop\n      jump\t// out\n        /* \"#utility.yul\":17409:17503   */\n    tag_241:\n        /* \"#utility.yul\":17442:17450   */\n      0x00\n        /* \"#utility.yul\":17490:17495   */\n      dup2\n        /* \"#utility.yul\":17486:17488   */\n      0x60\n        /* \"#utility.yul\":17482:17496   */\n      shl\n        /* \"#utility.yul\":17461:17496   */\n      swap1\n      pop\n        /* \"#utility.yul\":17409:17503   */\n      swap2\n      swap1\n      pop\n      jump\t// out\n        /* \"#utility.yul\":17509:17603   */\n    tag_242:\n        /* \"#utility.yul\":17548:17555   */\n      0x00\n        /* \"#utility.yul\":17577:17597   */\n      tag_468\n        /* \"#utility.yul\":17591:17596   */\n      dup3\n        /* \"#utility.yul\":17577:17597   */\n      tag_241\n      jump\t// in\n    tag_468:\n        /* \"#utility.yul\":17566:17597   */\n      swap1\n      pop\n        /* \"#utility.yul\":17509:17603   */\n      swap2\n      swap1\n      pop\n      jump\t// out\n        /* \"#utility.yul\":17609:17709   */\n    tag_243:\n        /* \"#utility.yul\":17648:17655   */\n      0x00\n        /* \"#utility.yul\":17677:17703   */\n      tag_470\n        /* \"#utility.yul\":17697:17702   */\n      dup3\n        /* \"#utility.yul\":17677:17703   */\n      tag_242\n      jump\t// in\n    tag_470:\n        /* \"#utility.yul\":17666:17703   */\n      swap1\n      pop\n        /* \"#utility.yul\":17609:17709   */\n      swap2\n      swap1\n      pop\n      jump\t// out\n        /* \"#utility.yul\":17715:17872   */\n    tag_244:\n        /* \"#utility.yul\":17820:17865   */\n      tag_472\n        /* \"#utility.yul\":17840:17864   */\n      tag_473\n        /* \"#utility.yul\":17858:17863   */\n      dup3\n        /* \"#utility.yul\":17840:17864   */\n      tag_193\n      jump\t// in\n    tag_473:\n        /* \"#utility.yul\":17820:17865   */\n      tag_243\n      jump\t// in\n    tag_472:\n        /* \"#utility.yul\":17815:17818   */\n      dup3\n        /* \"#utility.yul\":17808:17866   */\n      mstore\n        /* \"#utility.yul\":17715:17872   */\n      pop\n      pop\n      jump\t// out\n        /* \"#utility.yul\":17878:18026   */\n    tag_245:\n        /* \"#utility.yul\":17980:17991   */\n      0x00\n        /* \"#utility.yul\":18017:18020   */\n      dup2\n        /* \"#utility.yul\":18002:18020   */\n      swap1\n      pop\n        /* \"#utility.yul\":17878:18026   */\n      swap3\n      swap2\n      pop\n      pop\n      jump\t// out\n        /* \"#utility.yul\":18032:18205   */\n    tag_246:\n        /* \"#utility.yul\":18172:18197   */\n      0x6d6574617472616e73616374696f6e20566f74696e6720000000000000000000\n        /* \"#utility.yul\":18168:18169   */\n      0x00\n        /* \"#utility.yul\":18160:18166   */\n      dup3\n        /* \"#utility.yul\":18156:18170   */\n      add\n        /* \"#utility.yul\":18149:18198   */\n      mstore\n        /* \"#utility.yul\":18032:18205   */\n      pop\n      jump\t// out\n        /* \"#utility.yul\":18211:18613   */\n    tag_247:\n        /* \"#utility.yul\":18371:18374   */\n      0x00\n        /* \"#utility.yul\":18392:18477   */\n      tag_477\n        /* \"#utility.yul\":18474:18476   */\n      0x17\n        /* \"#utility.yul\":18469:18472   */\n      dup4\n        /* \"#utility.yul\":18392:18477   */\n      tag_245\n      jump\t// in\n    tag_477:\n        /* \"#utility.yul\":18385:18477   */\n      swap2\n      pop\n        /* \"#utility.yul\":18486:18579   */\n      tag_478\n        /* \"#utility.yul\":18575:18578   */\n      dup3\n        /* \"#utility.yul\":18486:18579   */\n      tag_246\n      jump\t// in\n    tag_478:\n        /* \"#utility.yul\":18604:18606   */\n      0x17\n        /* \"#utility.yul\":18599:18602   */\n      dup3\n        /* \"#utility.yul\":18595:18607   */\n      add\n        /* \"#utility.yul\":18588:18607   */\n      swap1\n      pop\n        /* \"#utility.yul\":18211:18613   */\n      swap2\n      swap1\n      pop\n      jump\t// out\n        /* \"#utility.yul\":18619:18996   */\n    tag_248:\n        /* \"#utility.yul\":18725:18728   */\n      0x00\n        /* \"#utility.yul\":18753:18792   */\n      tag_480\n        /* \"#utility.yul\":18786:18791   */\n      dup3\n        /* \"#utility.yul\":18753:18792   */\n      tag_213\n      jump\t// in\n    tag_480:\n        /* \"#utility.yul\":18808:18897   */\n      tag_481\n        /* \"#utility.yul\":18890:18896   */\n      dup2\n        /* \"#utility.yul\":18885:18888   */\n      dup6\n        /* \"#utility.yul\":18808:18897   */\n      tag_245\n      jump\t// in\n    tag_481:\n        /* \"#utility.yul\":18801:18897   */\n      swap4\n      pop\n        /* \"#utility.yul\":18906:18958   */\n      tag_482\n        /* \"#utility.yul\":18951:18957   */\n      dup2\n        /* \"#utility.yul\":18946:18949   */\n      dup6\n        /* \"#utility.yul\":18939:18943   */\n      0x20\n        /* \"#utility.yul\":18932:18937   */\n      dup7\n        /* \"#utility.yul\":18928:18944   */\n      add\n        /* \"#utility.yul\":18906:18958   */\n      tag_215\n      jump\t// in\n    tag_482:\n        /* \"#utility.yul\":18983:18989   */\n      dup1\n        /* \"#utility.yul\":18978:18981   */\n      dup5\n        /* \"#utility.yul\":18974:18990   */\n      add\n        /* \"#utility.yul\":18967:18990   */\n      swap2\n      pop\n        /* \"#utility.yul\":18729:18996   */\n      pop\n        /* \"#utility.yul\":18619:18996   */\n      swap3\n      swap2\n      pop\n      pop\n      jump\t// out\n        /* \"#utility.yul\":19002:19081   */\n    tag_249:\n        /* \"#utility.yul\":19041:19048   */\n      0x00\n        /* \"#utility.yul\":19070:19075   */\n      dup2\n        /* \"#utility.yul\":19059:19075   */\n      swap1\n      pop\n        /* \"#utility.yul\":19002:19081   */\n      swap2\n      swap1\n      pop\n      jump\t// out\n        /* \"#utility.yul\":19087:19244   */\n    tag_250:\n        /* \"#utility.yul\":19192:19237   */\n      tag_485\n        /* \"#utility.yul\":19212:19236   */\n      tag_486\n        /* \"#utility.yul\":19230:19235   */\n      dup3\n        /* \"#utility.yul\":19212:19236   */\n      tag_205\n      jump\t// in\n    tag_486:\n        /* \"#utility.yul\":19192:19237   */\n      tag_249\n      jump\t// in\n    tag_485:\n        /* \"#utility.yul\":19187:19190   */\n      dup3\n        /* \"#utility.yul\":19180:19238   */\n      mstore\n        /* \"#utility.yul\":19087:19244   */\n      pop\n      pop\n      jump\t// out\n        /* \"#utility.yul\":19250:20355   */\n    tag_84:\n        /* \"#utility.yul\":19595:19598   */\n      0x00\n        /* \"#utility.yul\":19610:19685   */\n      tag_488\n        /* \"#utility.yul\":19681:19684   */\n      dup3\n        /* \"#utility.yul\":19672:19678   */\n      dup9\n        /* \"#utility.yul\":19610:19685   */\n      tag_244\n      jump\t// in\n    tag_488:\n        /* \"#utility.yul\":19710:19712   */\n      0x14\n        /* \"#utility.yul\":19705:19708   */\n      dup3\n        /* \"#utility.yul\":19701:19713   */\n      add\n        /* \"#utility.yul\":19694:19713   */\n      swap2\n      pop\n        /* \"#utility.yul\":19730:19878   */\n      tag_489\n        /* \"#utility.yul\":19874:19877   */\n      dup3\n        /* \"#utility.yul\":19730:19878   */\n      tag_247\n      jump\t// in\n    tag_489:\n        /* \"#utility.yul\":19723:19878   */\n      swap2\n      pop\n        /* \"#utility.yul\":19888:19963   */\n      tag_490\n        /* \"#utility.yul\":19959:19962   */\n      dup3\n        /* \"#utility.yul\":19950:19956   */\n      dup8\n        /* \"#utility.yul\":19888:19963   */\n      tag_244\n      jump\t// in\n    tag_490:\n        /* \"#utility.yul\":19988:19990   */\n      0x14\n        /* \"#utility.yul\":19983:19986   */\n      dup3\n        /* \"#utility.yul\":19979:19991   */\n      add\n        /* \"#utility.yul\":19972:19991   */\n      swap2\n      pop\n        /* \"#utility.yul\":20008:20103   */\n      tag_491\n        /* \"#utility.yul\":20099:20102   */\n      dup3\n        /* \"#utility.yul\":20090:20096   */\n      dup7\n        /* \"#utility.yul\":20008:20103   */\n      tag_248\n      jump\t// in\n    tag_491:\n        /* \"#utility.yul\":20001:20103   */\n      swap2\n      pop\n        /* \"#utility.yul\":20113:20188   */\n      tag_492\n        /* \"#utility.yul\":20184:20187   */\n      dup3\n        /* \"#utility.yul\":20175:20181   */\n      dup6\n        /* \"#utility.yul\":20113:20188   */\n      tag_250\n      jump\t// in\n    tag_492:\n        /* \"#utility.yul\":20213:20215   */\n      0x20\n        /* \"#utility.yul\":20208:20211   */\n      dup3\n        /* \"#utility.yul\":20204:20216   */\n      add\n        /* \"#utility.yul\":20197:20216   */\n      swap2\n      pop\n        /* \"#utility.yul\":20226:20301   */\n      tag_493\n        /* \"#utility.yul\":20297:20300   */\n      dup3\n        /* \"#utility.yul\":20288:20294   */\n      dup5\n        /* \"#utility.yul\":20226:20301   */\n      tag_250\n      jump\t// in\n    tag_493:\n        /* \"#utility.yul\":20326:20328   */\n      0x20\n        /* \"#utility.yul\":20321:20324   */\n      dup3\n        /* \"#utility.yul\":20317:20329   */\n      add\n        /* \"#utility.yul\":20310:20329   */\n      swap2\n      pop\n        /* \"#utility.yul\":20346:20349   */\n      dup2\n        /* \"#utility.yul\":20339:20349   */\n      swap1\n      pop\n        /* \"#utility.yul\":19250:20355   */\n      swap7\n      swap6\n      pop\n      pop\n      pop\n      pop\n      pop\n      pop\n      jump\t// out\n        /* \"#utility.yul\":20361:20636   */\n    tag_87:\n        /* \"#utility.yul\":20493:20496   */\n      0x00\n        /* \"#utility.yul\":20515:20610   */\n      tag_495\n        /* \"#utility.yul\":20606:20609   */\n      dup3\n        /* \"#utility.yul\":20597:20603   */\n      dup5\n        /* \"#utility.yul\":20515:20610   */\n      tag_248\n      jump\t// in\n    tag_495:\n        /* \"#utility.yul\":20508:20610   */\n      swap2\n      pop\n        /* \"#utility.yul\":20627:20630   */\n      dup2\n        /* \"#utility.yul\":20620:20630   */\n      swap1\n      pop\n        /* \"#utility.yul\":20361:20636   */\n      swap3\n      swap2\n      pop\n      pop\n      jump\t// out\n        /* \"#utility.yul\":20642:20871   */\n    tag_251:\n        /* \"#utility.yul\":20782:20816   */\n      0x54686973206164647265737320646f6573206e6f742065786973742061732061\n        /* \"#utility.yul\":20778:20779   */\n      0x00\n        /* \"#utility.yul\":20770:20776   */\n      dup3\n        /* \"#utility.yul\":20766:20780   */\n      add\n        /* \"#utility.yul\":20759:20817   */\n      mstore\n        /* \"#utility.yul\":20851:20863   */\n      0x2063616e64696461746500000000000000000000000000000000000000000000\n        /* \"#utility.yul\":20846:20848   */\n      0x20\n        /* \"#utility.yul\":20838:20844   */\n      dup3\n        /* \"#utility.yul\":20834:20849   */\n      add\n        /* \"#utility.yul\":20827:20864   */\n      mstore\n        /* \"#utility.yul\":20642:20871   */\n      pop\n      jump\t// out\n        /* \"#utility.yul\":20877:21243   */\n    tag_252:\n        /* \"#utility.yul\":21019:21022   */\n      0x00\n        /* \"#utility.yul\":21040:21107   */\n      tag_498\n        /* \"#utility.yul\":21104:21106   */\n      0x2a\n        /* \"#utility.yul\":21099:21102   */\n      dup4\n        /* \"#utility.yul\":21040:21107   */\n      tag_214\n      jump\t// in\n    tag_498:\n        /* \"#utility.yul\":21033:21107   */\n      swap2\n      pop\n        /* \"#utility.yul\":21116:21209   */\n      tag_499\n        /* \"#utility.yul\":21205:21208   */\n      dup3\n        /* \"#utility.yul\":21116:21209   */\n      tag_251\n      jump\t// in\n    tag_499:\n        /* \"#utility.yul\":21234:21236   */\n      0x40\n        /* \"#utility.yul\":21229:21232   */\n      dup3\n        /* \"#utility.yul\":21225:21237   */\n      add\n        /* \"#utility.yul\":21218:21237   */\n      swap1\n      pop\n        /* \"#utility.yul\":20877:21243   */\n      swap2\n      swap1\n      pop\n      jump\t// out\n        /* \"#utility.yul\":21249:21668   */\n    tag_92:\n        /* \"#utility.yul\":21415:21419   */\n      0x00\n        /* \"#utility.yul\":21453:21455   */\n      0x20\n        /* \"#utility.yul\":21442:21451   */\n      dup3\n        /* \"#utility.yul\":21438:21456   */\n      add\n        /* \"#utility.yul\":21430:21456   */\n      swap1\n      pop\n        /* \"#utility.yul\":21502:21511   */\n      dup2\n        /* \"#utility.yul\":21496:21500   */\n      dup2\n        /* \"#utility.yul\":21492:21512   */\n      sub\n        /* \"#utility.yul\":21488:21489   */\n      0x00\n        /* \"#utility.yul\":21477:21486   */\n      dup4\n        /* \"#utility.yul\":21473:21490   */\n      add\n        /* \"#utility.yul\":21466:21513   */\n      mstore\n        /* \"#utility.yul\":21530:21661   */\n      tag_501\n        /* \"#utility.yul\":21656:21660   */\n      dup2\n        /* \"#utility.yul\":21530:21661   */\n      tag_252\n      jump\t// in\n    tag_501:\n        /* \"#utility.yul\":21522:21661   */\n      swap1\n      pop\n        /* \"#utility.yul\":21249:21668   */\n      swap2\n      swap1\n      pop\n      jump\t// out\n        /* \"#utility.yul\":21674:21840   */\n    tag_253:\n        /* \"#utility.yul\":21814:21832   */\n      0x766f74696e672068617320656e64656400000000000000000000000000000000\n        /* \"#utility.yul\":21810:21811   */\n      0x00\n        /* \"#utility.yul\":21802:21808   */\n      dup3\n        /* \"#utility.yul\":21798:21812   */\n      add\n        /* \"#utility.yul\":21791:21833   */\n      mstore\n        /* \"#utility.yul\":21674:21840   */\n      pop\n      jump\t// out\n        /* \"#utility.yul\":21846:22212   */\n    tag_254:\n        /* \"#utility.yul\":21988:21991   */\n      0x00\n        /* \"#utility.yul\":22009:22076   */\n      tag_504\n        /* \"#utility.yul\":22073:22075   */\n      0x10\n        /* \"#utility.yul\":22068:22071   */\n      dup4\n        /* \"#utility.yul\":22009:22076   */\n      tag_214\n      jump\t// in\n    tag_504:\n        /* \"#utility.yul\":22002:22076   */\n      swap2\n      pop\n        /* \"#utility.yul\":22085:22178   */\n      tag_505\n        /* \"#utility.yul\":22174:22177   */\n      dup3\n        /* \"#utility.yul\":22085:22178   */\n      tag_253\n      jump\t// in\n    tag_505:\n        /* \"#utility.yul\":22203:22205   */\n      0x20\n        /* \"#utility.yul\":22198:22201   */\n      dup3\n        /* \"#utility.yul\":22194:22206   */\n      add\n        /* \"#utility.yul\":22187:22206   */\n      swap1\n      pop\n        /* \"#utility.yul\":21846:22212   */\n      swap2\n      swap1\n      pop\n      jump\t// out\n        /* \"#utility.yul\":22218:22637   */\n    tag_97:\n        /* \"#utility.yul\":22384:22388   */\n      0x00\n        /* \"#utility.yul\":22422:22424   */\n      0x20\n        /* \"#utility.yul\":22411:22420   */\n      dup3\n        /* \"#utility.yul\":22407:22425   */\n      add\n        /* \"#utility.yul\":22399:22425   */\n      swap1\n      pop\n        /* \"#utility.yul\":22471:22480   */\n      dup2\n        /* \"#utility.yul\":22465:22469   */\n      dup2\n        /* \"#utility.yul\":22461:22481   */\n      sub\n        /* \"#utility.yul\":22457:22458   */\n      0x00\n        /* \"#utility.yul\":22446:22455   */\n      dup4\n        /* \"#utility.yul\":22442:22459   */\n      add\n        /* \"#utility.yul\":22435:22482   */\n      mstore\n        /* \"#utility.yul\":22499:22630   */\n      tag_507\n        /* \"#utility.yul\":22625:22629   */\n      dup2\n        /* \"#utility.yul\":22499:22630   */\n      tag_254\n      jump\t// in\n    tag_507:\n        /* \"#utility.yul\":22491:22630   */\n      swap1\n      pop\n        /* \"#utility.yul\":22218:22637   */\n      swap2\n      swap1\n      pop\n      jump\t// out\n        /* \"#utility.yul\":22643:22823   */\n    tag_255:\n        /* \"#utility.yul\":22691:22768   */\n      0x4e487b7100000000000000000000000000000000000000000000000000000000\n        /* \"#utility.yul\":22688:22689   */\n      0x00\n        /* \"#utility.yul\":22681:22769   */\n      mstore\n        /* \"#utility.yul\":22788:22792   */\n      0x11\n        /* \"#utility.yul\":22785:22786   */\n      0x04\n        /* \"#utility.yul\":22778:22793   */\n      mstore\n        /* \"#utility.yul\":22812:22816   */\n      0x24\n        /* \"#utility.yul\":22809:22810   */\n      0x00\n        /* \"#utility.yul\":22802:22817   */\n      revert\n        /* \"#utility.yul\":22829:23062   */\n    tag_105:\n        /* \"#utility.yul\":22868:22871   */\n      0x00\n        /* \"#utility.yul\":22891:22915   */\n      tag_510\n        /* \"#utility.yul\":22909:22914   */\n      dup3\n        /* \"#utility.yul\":22891:22915   */\n      tag_205\n      jump\t// in\n    tag_510:\n        /* \"#utility.yul\":22882:22915   */\n      swap2\n      pop\n        /* \"#utility.yul\":22937:23003   */\n      0xffffffffffffffffffffffffffffffffffffffffffffffffffffffffffffffff\n        /* \"#utility.yul\":22930:22935   */\n      dup3\n        /* \"#utility.yul\":22927:23004   */\n      eq\n        /* \"#utility.yul\":22924:23027   */\n      iszero\n      tag_511\n      jumpi\n        /* \"#utility.yul\":23007:23025   */\n      tag_512\n      tag_255\n      jump\t// in\n    tag_512:\n        /* \"#utility.yul\":22924:23027   */\n    tag_511:\n        /* \"#utility.yul\":23054:23055   */\n      0x01\n        /* \"#utility.yul\":23047:23052   */\n      dup3\n        /* \"#utility.yul\":23043:23056   */\n      add\n        /* \"#utility.yul\":23036:23056   */\n      swap1\n      pop\n        /* \"#utility.yul\":22829:23062   */\n      swap2\n      swap1\n      pop\n      jump\t// out\n        /* \"#utility.yul\":23068:23235   */\n    tag_256:\n        /* \"#utility.yul\":23208:23227   */\n      0x596f7520616c726561647920766f746564000000000000000000000000000000\n        /* \"#utility.yul\":23204:23205   */\n      0x00\n        /* \"#utility.yul\":23196:23202   */\n      dup3\n        /* \"#utility.yul\":23192:23206   */\n      add\n        /* \"#utility.yul\":23185:23228   */\n      mstore\n        /* \"#utility.yul\":23068:23235   */\n      pop\n      jump\t// out\n        /* \"#utility.yul\":23241:23607   */\n    tag_257:\n        /* \"#utility.yul\":23383:23386   */\n      0x00\n        /* \"#utility.yul\":23404:23471   */\n      tag_515\n        /* \"#utility.yul\":23468:23470   */\n      0x11\n        /* \"#utility.yul\":23463:23466   */\n      dup4\n        /* \"#utility.yul\":23404:23471   */\n      tag_214\n      jump\t// in\n    tag_515:\n        /* \"#utility.yul\":23397:23471   */\n      swap2\n      pop\n        /* \"#utility.yul\":23480:23573   */\n      tag_516\n        /* \"#utility.yul\":23569:23572   */\n      dup3\n        /* \"#utility.yul\":23480:23573   */\n      tag_256\n      jump\t// in\n    tag_516:\n        /* \"#utility.yul\":23598:23600   */\n      0x20\n        /* \"#utility.yul\":23593:23596   */\n      dup3\n        /* \"#utility.yul\":23589:23601   */\n      add\n        /* \"#utility.yul\":23582:23601   */\n      swap1\n      pop\n        /* \"#utility.yul\":23241:23607   */\n      swap2\n      swap1\n      pop\n      jump\t// out\n        /* \"#utility.yul\":23613:24032   */\n    tag_109:\n        /* \"#utility.yul\":23779:23783   */\n      0x00\n        /* \"#utility.yul\":23817:23819   */\n      0x20\n        /* \"#utility.yul\":23806:23815   */\n      dup3\n        /* \"#utility.yul\":23802:23820   */\n      add\n        /* \"#utility.yul\":23794:23820   */\n      swap1\n      pop\n        /* \"#utility.yul\":23866:23875   */\n      dup2\n        /* \"#utility.yul\":23860:23864   */\n      dup2\n        /* \"#utility.yul\":23856:23876   */\n      sub\n        /* \"#utility.yul\":23852:23853   */\n      0x00\n        /* \"#utility.yul\":23841:23850   */\n      dup4\n        /* \"#utility.yul\":23837:23854   */\n      add\n        /* \"#utility.yul\":23830:23877   */\n      mstore\n        /* \"#utility.yul\":23894:24025   */\n      tag_518\n        /* \"#utility.yul\":24020:24024   */\n      dup2\n        /* \"#utility.yul\":23894:24025   */\n      tag_257\n      jump\t// in\n    tag_518:\n        /* \"#utility.yul\":23886:24025   */\n      swap1\n      pop\n        /* \"#utility.yul\":23613:24032   */\n      swap2\n      swap1\n      pop\n      jump\t// out\n        /* \"#utility.yul\":24038:24358   */\n    tag_113:\n        /* \"#utility.yul\":24153:24157   */\n      0x00\n        /* \"#utility.yul\":24191:24193   */\n      0x40\n        /* \"#utility.yul\":24180:24189   */\n      dup3\n        /* \"#utility.yul\":24176:24194   */\n      add\n        /* \"#utility.yul\":24168:24194   */\n      swap1\n      pop\n        /* \"#utility.yul\":24204:24275   */\n      tag_520\n        /* \"#utility.yul\":24272:24273   */\n      0x00\n        /* \"#utility.yul\":24261:24270   */\n      dup4\n        /* \"#utility.yul\":24257:24274   */\n      add\n        /* \"#utility.yul\":24248:24254   */\n      dup6\n        /* \"#utility.yul\":24204:24275   */\n      tag_228\n      jump\t// in\n    tag_520:\n        /* \"#utility.yul\":24285:24351   */\n      tag_521\n        /* \"#utility.yul\":24347:24349   */\n      0x20\n        /* \"#utility.yul\":24336:24345   */\n      dup4\n        /* \"#utility.yul\":24332:24350   */\n      add\n        /* \"#utility.yul\":24323:24329   */\n      dup5\n        /* \"#utility.yul\":24285:24351   */\n      tag_233\n      jump\t// in\n    tag_521:\n        /* \"#utility.yul\":24038:24358   */\n      swap4\n      swap3\n      pop\n      pop\n      pop\n      jump\t// out\n        /* \"#utility.yul\":24364:24529   */\n    tag_258:\n        /* \"#utility.yul\":24504:24521   */\n      0x4e6f20706f6c6c20637265617465640000000000000000000000000000000000\n        /* \"#utility.yul\":24500:24501   */\n      0x00\n        /* \"#utility.yul\":24492:24498   */\n      dup3\n        /* \"#utility.yul\":24488:24502   */\n      add\n        /* \"#utility.yul\":24481:24522   */\n      mstore\n        /* \"#utility.yul\":24364:24529   */\n      pop\n      jump\t// out\n        /* \"#utility.yul\":24535:24901   */\n    tag_259:\n        /* \"#utility.yul\":24677:24680   */\n      0x00\n        /* \"#utility.yul\":24698:24765   */\n      tag_524\n        /* \"#utility.yul\":24762:24764   */\n      0x0f\n        /* \"#utility.yul\":24757:24760   */\n      dup4\n        /* \"#utility.yul\":24698:24765   */\n      tag_214\n      jump\t// in\n    tag_524:\n        /* \"#utility.yul\":24691:24765   */\n      swap2\n      pop\n        /* \"#utility.yul\":24774:24867   */\n      tag_525\n        /* \"#utility.yul\":24863:24866   */\n      dup3\n        /* \"#utility.yul\":24774:24867   */\n      tag_258\n      jump\t// in\n    tag_525:\n        /* \"#utility.yul\":24892:24894   */\n      0x20\n        /* \"#utility.yul\":24887:24890   */\n      dup3\n        /* \"#utility.yul\":24883:24895   */\n      add\n        /* \"#utility.yul\":24876:24895   */\n      swap1\n      pop\n        /* \"#utility.yul\":24535:24901   */\n      swap2\n      swap1\n      pop\n      jump\t// out\n        /* \"#utility.yul\":24907:25326   */\n    tag_118:\n        /* \"#utility.yul\":25073:25077   */\n      0x00\n        /* \"#utility.yul\":25111:25113   */\n      0x20\n        /* \"#utility.yul\":25100:25109   */\n      dup3\n        /* \"#utility.yul\":25096:25114   */\n      add\n        /* \"#utility.yul\":25088:25114   */\n      swap1\n      pop\n        /* \"#utility.yul\":25160:25169   */\n      dup2\n        /* \"#utility.yul\":25154:25158   */\n      dup2\n        /* \"#utility.yul\":25150:25170   */\n      sub\n        /* \"#utility.yul\":25146:25147   */\n      0x00\n        /* \"#utility.yul\":25135:25144   */\n      dup4\n        /* \"#utility.yul\":25131:25148   */\n      add\n        /* \"#utility.yul\":25124:25171   */\n      mstore\n        /* \"#utility.yul\":25188:25319   */\n      tag_527\n        /* \"#utility.yul\":25314:25318   */\n      dup2\n        /* \"#utility.yul\":25188:25319   */\n      tag_259\n      jump\t// in\n    tag_527:\n        /* \"#utility.yul\":25180:25319   */\n      swap1\n      pop\n        /* \"#utility.yul\":24907:25326   */\n      swap2\n      swap1\n      pop\n      jump\t// out\n        /* \"#utility.yul\":25332:25512   */\n    tag_128:\n        /* \"#utility.yul\":25380:25457   */\n      0x4e487b7100000000000000000000000000000000000000000000000000000000\n        /* \"#utility.yul\":25377:25378   */\n      0x00\n        /* \"#utility.yul\":25370:25458   */\n      mstore\n        /* \"#utility.yul\":25477:25481   */\n      0x32\n        /* \"#utility.yul\":25474:25475   */\n      0x04\n        /* \"#utility.yul\":25467:25482   */\n      mstore\n        /* \"#utility.yul\":25501:25505   */\n      0x24\n        /* \"#utility.yul\":25498:25499   */\n      0x00\n        /* \"#utility.yul\":25491:25506   */\n      revert\n        /* \"#utility.yul\":25518:25688   */\n    tag_260:\n        /* \"#utility.yul\":25658:25680   */\n      0x79657420746f20637265617465206120706f6c6c000000000000000000000000\n        /* \"#utility.yul\":25654:25655   */\n      0x00\n        /* \"#utility.yul\":25646:25652   */\n      dup3\n        /* \"#utility.yul\":25642:25656   */\n      add\n        /* \"#utility.yul\":25635:25681   */\n      mstore\n        /* \"#utility.yul\":25518:25688   */\n      pop\n      jump\t// out\n        /* \"#utility.yul\":25694:26060   */\n    tag_261:\n        /* \"#utility.yul\":25836:25839   */\n      0x00\n        /* \"#utility.yul\":25857:25924   */\n      tag_531\n        /* \"#utility.yul\":25921:25923   */\n      0x14\n        /* \"#utility.yul\":25916:25919   */\n      dup4\n        /* \"#utility.yul\":25857:25924   */\n      tag_214\n      jump\t// in\n    tag_531:\n        /* \"#utility.yul\":25850:25924   */\n      swap2\n      pop\n        /* \"#utility.yul\":25933:26026   */\n      tag_532\n        /* \"#utility.yul\":26022:26025   */\n      dup3\n        /* \"#utility.yul\":25933:26026   */\n      tag_260\n      jump\t// in\n    tag_532:\n        /* \"#utility.yul\":26051:26053   */\n      0x20\n        /* \"#utility.yul\":26046:26049   */\n      dup3\n        /* \"#utility.yul\":26042:26054   */\n      add\n        /* \"#utility.yul\":26035:26054   */\n      swap1\n      pop\n        /* \"#utility.yul\":25694:26060   */\n      swap2\n      swap1\n      pop\n      jump\t// out\n        /* \"#utility.yul\":26066:26485   */\n    tag_144:\n        /* \"#utility.yul\":26232:26236   */\n      0x00\n        /* \"#utility.yul\":26270:26272   */\n      0x20\n        /* \"#utility.yul\":26259:26268   */\n      dup3\n        /* \"#utility.yul\":26255:26273   */\n      add\n        /* \"#utility.yul\":26247:26273   */\n      swap1\n      pop\n        /* \"#utility.yul\":26319:26328   */\n      dup2\n        /* \"#utility.yul\":26313:26317   */\n      dup2\n        /* \"#utility.yul\":26309:26329   */\n      sub\n        /* \"#utility.yul\":26305:26306   */\n      0x00\n        /* \"#utility.yul\":26294:26303   */\n      dup4\n        /* \"#utility.yul\":26290:26307   */\n      add\n        /* \"#utility.yul\":26283:26330   */\n      mstore\n        /* \"#utility.yul\":26347:26478   */\n      tag_534\n        /* \"#utility.yul\":26473:26477   */\n      dup2\n        /* \"#utility.yul\":26347:26478   */\n      tag_261\n      jump\t// in\n    tag_534:\n        /* \"#utility.yul\":26339:26478   */\n      swap1\n      pop\n        /* \"#utility.yul\":26066:26485   */\n      swap2\n      swap1\n      pop\n      jump\t// out\n        /* \"#utility.yul\":26491:26671   */\n    tag_147:\n        /* \"#utility.yul\":26539:26616   */\n      0x4e487b7100000000000000000000000000000000000000000000000000000000\n        /* \"#utility.yul\":26536:26537   */\n      0x00\n        /* \"#utility.yul\":26529:26617   */\n      mstore\n        /* \"#utility.yul\":26636:26640   */\n      0x01\n        /* \"#utility.yul\":26633:26634   */\n      0x04\n        /* \"#utility.yul\":26626:26641   */\n      mstore\n        /* \"#utility.yul\":26660:26664   */\n      0x24\n        /* \"#utility.yul\":26657:26658   */\n      0x00\n        /* \"#utility.yul\":26650:26665   */\n      revert\n        /* \"#utility.yul\":26677:26910   */\n    tag_262:\n        /* \"#utility.yul\":26817:26851   */\n      0x6d6178696d756d206e6f206f662063616e646964617465207065722073657373\n        /* \"#utility.yul\":26813:26814   */\n      0x00\n        /* \"#utility.yul\":26805:26811   */\n      dup3\n        /* \"#utility.yul\":26801:26815   */\n      add\n        /* \"#utility.yul\":26794:26852   */\n      mstore\n        /* \"#utility.yul\":26886:26902   */\n      0x696f6e2072656769737465726564000000000000000000000000000000000000\n        /* \"#utility.yul\":26881:26883   */\n      0x20\n        /* \"#utility.yul\":26873:26879   */\n      dup3\n        /* \"#utility.yul\":26869:26884   */\n      add\n        /* \"#utility.yul\":26862:26903   */\n      mstore\n        /* \"#utility.yul\":26677:26910   */\n      pop\n      jump\t// out\n        /* \"#utility.yul\":26916:27282   */\n    tag_263:\n        /* \"#utility.yul\":27058:27061   */\n      0x00\n        /* \"#utility.yul\":27079:27146   */\n      tag_538\n        /* \"#utility.yul\":27143:27145   */\n      0x2e\n        /* \"#utility.yul\":27138:27141   */\n      dup4\n        /* \"#utility.yul\":27079:27146   */\n      tag_214\n      jump\t// in\n    tag_538:\n        /* \"#utility.yul\":27072:27146   */\n      swap2\n      pop\n        /* \"#utility.yul\":27155:27248   */\n      tag_539\n        /* \"#utility.yul\":27244:27247   */\n      dup3\n        /* \"#utility.yul\":27155:27248   */\n      tag_262\n      jump\t// in\n    tag_539:\n        /* \"#utility.yul\":27273:27275   */\n      0x40\n        /* \"#utility.yul\":27268:27271   */\n      dup3\n        /* \"#utility.yul\":27264:27276   */\n      add\n        /* \"#utility.yul\":27257:27276   */\n      swap1\n      pop\n        /* \"#utility.yul\":26916:27282   */\n      swap2\n      swap1\n      pop\n      jump\t// out\n        /* \"#utility.yul\":27288:27707   */\n    tag_150:\n        /* \"#utility.yul\":27454:27458   */\n      0x00\n        /* \"#utility.yul\":27492:27494   */\n      0x20\n        /* \"#utility.yul\":27481:27490   */\n      dup3\n        /* \"#utility.yul\":27477:27495   */\n      add\n        /* \"#utility.yul\":27469:27495   */\n      swap1\n      pop\n        /* \"#utility.yul\":27541:27550   */\n      dup2\n        /* \"#utility.yul\":27535:27539   */\n      dup2\n        /* \"#utility.yul\":27531:27551   */\n      sub\n        /* \"#utility.yul\":27527:27528   */\n      0x00\n        /* \"#utility.yul\":27516:27525   */\n      dup4\n        /* \"#utility.yul\":27512:27529   */\n      add\n        /* \"#utility.yul\":27505:27552   */\n      mstore\n        /* \"#utility.yul\":27569:27700   */\n      tag_541\n        /* \"#utility.yul\":27695:27699   */\n      dup2\n        /* \"#utility.yul\":27569:27700   */\n      tag_263\n      jump\t// in\n    tag_541:\n        /* \"#utility.yul\":27561:27700   */\n      swap1\n      pop\n        /* \"#utility.yul\":27288:27707   */\n      swap2\n      swap1\n      pop\n      jump\t// out\n        /* \"#utility.yul\":27713:27884   */\n    tag_153:\n        /* \"#utility.yul\":27751:27754   */\n      0x00\n        /* \"#utility.yul\":27774:27797   */\n      tag_543\n        /* \"#utility.yul\":27791:27796   */\n      dup3\n        /* \"#utility.yul\":27774:27797   */\n      tag_210\n      jump\t// in\n    tag_543:\n        /* \"#utility.yul\":27765:27797   */\n      swap2\n      pop\n        /* \"#utility.yul\":27819:27825   */\n      0xffff\n        /* \"#utility.yul\":27812:27817   */\n      dup3\n        /* \"#utility.yul\":27809:27826   */\n      eq\n        /* \"#utility.yul\":27806:27849   */\n      iszero\n      tag_544\n      jumpi\n        /* \"#utility.yul\":27829:27847   */\n      tag_545\n      tag_255\n      jump\t// in\n    tag_545:\n        /* \"#utility.yul\":27806:27849   */\n    tag_544:\n        /* \"#utility.yul\":27876:27877   */\n      0x01\n        /* \"#utility.yul\":27869:27874   */\n      dup3\n        /* \"#utility.yul\":27865:27878   */\n      add\n        /* \"#utility.yul\":27858:27878   */\n      swap1\n      pop\n        /* \"#utility.yul\":27713:27884   */\n      swap2\n      swap1\n      pop\n      jump\t// out\n        /* \"#utility.yul\":27890:28112   */\n    tag_155:\n        /* \"#utility.yul\":27983:27987   */\n      0x00\n        /* \"#utility.yul\":28021:28023   */\n      0x20\n        /* \"#utility.yul\":28010:28019   */\n      dup3\n        /* \"#utility.yul\":28006:28024   */\n      add\n        /* \"#utility.yul\":27998:28024   */\n      swap1\n      pop\n        /* \"#utility.yul\":28034:28105   */\n      tag_547\n        /* \"#utility.yul\":28102:28103   */\n      0x00\n        /* \"#utility.yul\":28091:28100   */\n      dup4\n        /* \"#utility.yul\":28087:28104   */\n      add\n        /* \"#utility.yul\":28078:28084   */\n      dup5\n        /* \"#utility.yul\":28034:28105   */\n      tag_228\n      jump\t// in\n    tag_547:\n        /* \"#utility.yul\":27890:28112   */\n      swap3\n      swap2\n      pop\n      pop\n      jump\t// out\n        /* \"#utility.yul\":28118:28284   */\n    tag_264:\n        /* \"#utility.yul\":28258:28276   */\n      0x6e6f74207468652063686169726d616e00000000000000000000000000000000\n        /* \"#utility.yul\":28254:28255   */\n      0x00\n        /* \"#utility.yul\":28246:28252   */\n      dup3\n        /* \"#utility.yul\":28242:28256   */\n      add\n        /* \"#utility.yul\":28235:28277   */\n      mstore\n        /* \"#utility.yul\":28118:28284   */\n      pop\n      jump\t// out\n        /* \"#utility.yul\":28290:28656   */\n    tag_265:\n        /* \"#utility.yul\":28432:28435   */\n      0x00\n        /* \"#utility.yul\":28453:28520   */\n      tag_550\n        /* \"#utility.yul\":28517:28519   */\n      0x10\n        /* \"#utility.yul\":28512:28515   */\n      dup4\n        /* \"#utility.yul\":28453:28520   */\n      tag_214\n      jump\t// in\n    tag_550:\n        /* \"#utility.yul\":28446:28520   */\n      swap2\n      pop\n        /* \"#utility.yul\":28529:28622   */\n      tag_551\n        /* \"#utility.yul\":28618:28621   */\n      dup3\n        /* \"#utility.yul\":28529:28622   */\n      tag_264\n      jump\t// in\n    tag_551:\n        /* \"#utility.yul\":28647:28649   */\n      0x20\n        /* \"#utility.yul\":28642:28645   */\n      dup3\n        /* \"#utility.yul\":28638:28650   */\n      add\n        /* \"#utility.yul\":28631:28650   */\n      swap1\n      pop\n        /* \"#utility.yul\":28290:28656   */\n      swap2\n      swap1\n      pop\n      jump\t// out\n        /* \"#utility.yul\":28662:29081   */\n    tag_171:\n        /* \"#utility.yul\":28828:28832   */\n      0x00\n        /* \"#utility.yul\":28866:28868   */\n      0x20\n        /* \"#utility.yul\":28855:28864   */\n      dup3\n        /* \"#utility.yul\":28851:28869   */\n      add\n        /* \"#utility.yul\":28843:28869   */\n      swap1\n      pop\n        /* \"#utility.yul\":28915:28924   */\n      dup2\n        /* \"#utility.yul\":28909:28913   */\n      dup2\n        /* \"#utility.yul\":28905:28925   */\n      sub\n        /* \"#utility.yul\":28901:28902   */\n      0x00\n        /* \"#utility.yul\":28890:28899   */\n      dup4\n        /* \"#utility.yul\":28886:28903   */\n      add\n        /* \"#utility.yul\":28879:28926   */\n      mstore\n        /* \"#utility.yul\":28943:29074   */\n      tag_553\n        /* \"#utility.yul\":29069:29073   */\n      dup2\n        /* \"#utility.yul\":28943:29074   */\n      tag_265\n      jump\t// in\n    tag_553:\n        /* \"#utility.yul\":28935:29074   */\n      swap1\n      pop\n        /* \"#utility.yul\":28662:29081   */\n      swap2\n      swap1\n      pop\n      jump\t// out\n        /* \"#utility.yul\":29087:29173   */\n    tag_266:\n        /* \"#utility.yul\":29122:29129   */\n      0x00\n        /* \"#utility.yul\":29162:29166   */\n      0xff\n        /* \"#utility.yul\":29155:29160   */\n      dup3\n        /* \"#utility.yul\":29151:29167   */\n      and\n        /* \"#utility.yul\":29140:29167   */\n      swap1\n      pop\n        /* \"#utility.yul\":29087:29173   */\n      swap2\n      swap1\n      pop\n      jump\t// out\n        /* \"#utility.yul\":29179:29416   */\n    tag_176:\n        /* \"#utility.yul\":29217:29220   */\n      0x00\n        /* \"#utility.yul\":29236:29254   */\n      tag_556\n        /* \"#utility.yul\":29252:29253   */\n      dup3\n        /* \"#utility.yul\":29236:29254   */\n      tag_266\n      jump\t// in\n    tag_556:\n        /* \"#utility.yul\":29231:29254   */\n      swap2\n      pop\n        /* \"#utility.yul\":29268:29286   */\n      tag_557\n        /* \"#utility.yul\":29284:29285   */\n      dup4\n        /* \"#utility.yul\":29268:29286   */\n      tag_266\n      jump\t// in\n    tag_557:\n        /* \"#utility.yul\":29263:29286   */\n      swap3\n      pop\n        /* \"#utility.yul\":29358:29359   */\n      dup3\n        /* \"#utility.yul\":29352:29356   */\n      0xff\n        /* \"#utility.yul\":29348:29360   */\n      sub\n        /* \"#utility.yul\":29345:29346   */\n      dup3\n        /* \"#utility.yul\":29342:29361   */\n      gt\n        /* \"#utility.yul\":29339:29384   */\n      iszero\n      tag_558\n      jumpi\n        /* \"#utility.yul\":29364:29382   */\n      tag_559\n      tag_255\n      jump\t// in\n    tag_559:\n        /* \"#utility.yul\":29339:29384   */\n    tag_558:\n        /* \"#utility.yul\":29408:29409   */\n      dup3\n        /* \"#utility.yul\":29405:29406   */\n      dup3\n        /* \"#utility.yul\":29401:29410   */\n      add\n        /* \"#utility.yul\":29394:29410   */\n      swap1\n      pop\n        /* \"#utility.yul\":29179:29416   */\n      swap3\n      swap2\n      pop\n      pop\n      jump\t// out\n        /* \"#utility.yul\":29422:29636   */\n    tag_267:\n        /* \"#utility.yul\":29562:29628   */\n      0x19457468657265756d205369676e6564204d6573736167653a0a333200000000\n        /* \"#utility.yul\":29558:29559   */\n      0x00\n        /* \"#utility.yul\":29550:29556   */\n      dup3\n        /* \"#utility.yul\":29546:29560   */\n      add\n        /* \"#utility.yul\":29539:29629   */\n      mstore\n        /* \"#utility.yul\":29422:29636   */\n      pop\n      jump\t// out\n        /* \"#utility.yul\":29642:30044   */\n    tag_268:\n        /* \"#utility.yul\":29802:29805   */\n      0x00\n        /* \"#utility.yul\":29823:29908   */\n      tag_562\n        /* \"#utility.yul\":29905:29907   */\n      0x1c\n        /* \"#utility.yul\":29900:29903   */\n      dup4\n        /* \"#utility.yul\":29823:29908   */\n      tag_245\n      jump\t// in\n    tag_562:\n        /* \"#utility.yul\":29816:29908   */\n      swap2\n      pop\n        /* \"#utility.yul\":29917:30010   */\n      tag_563\n        /* \"#utility.yul\":30006:30009   */\n      dup3\n        /* \"#utility.yul\":29917:30010   */\n      tag_267\n      jump\t// in\n    tag_563:\n        /* \"#utility.yul\":30035:30037   */\n      0x1c\n        /* \"#utility.yul\":30030:30033   */\n      dup3\n        /* \"#utility.yul\":30026:30038   */\n      add\n        /* \"#utility.yul\":30019:30038   */\n      swap1\n      pop\n        /* \"#utility.yul\":29642:30044   */\n      swap2\n      swap1\n      pop\n      jump\t// out\n        /* \"#utility.yul\":30050:30129   */\n    tag_269:\n        /* \"#utility.yul\":30089:30096   */\n      0x00\n        /* \"#utility.yul\":30118:30123   */\n      dup2\n        /* \"#utility.yul\":30107:30123   */\n      swap1\n      pop\n        /* \"#utility.yul\":30050:30129   */\n      swap2\n      swap1\n      pop\n      jump\t// out\n        /* \"#utility.yul\":30135:30292   */\n    tag_270:\n        /* \"#utility.yul\":30240:30285   */\n      tag_566\n        /* \"#utility.yul\":30260:30284   */\n      tag_567\n        /* \"#utility.yul\":30278:30283   */\n      dup3\n        /* \"#utility.yul\":30260:30284   */\n      tag_208\n      jump\t// in\n    tag_567:\n        /* \"#utility.yul\":30240:30285   */\n      tag_269\n      jump\t// in\n    tag_566:\n        /* \"#utility.yul\":30235:30238   */\n      dup3\n        /* \"#utility.yul\":30228:30286   */\n      mstore\n        /* \"#utility.yul\":30135:30292   */\n      pop\n      pop\n      jump\t// out\n        /* \"#utility.yul\":30298:30820   */\n    tag_181:\n        /* \"#utility.yul\":30511:30514   */\n      0x00\n        /* \"#utility.yul\":30533:30681   */\n      tag_569\n        /* \"#utility.yul\":30677:30680   */\n      dup3\n        /* \"#utility.yul\":30533:30681   */\n      tag_268\n      jump\t// in\n    tag_569:\n        /* \"#utility.yul\":30526:30681   */\n      swap2\n      pop\n        /* \"#utility.yul\":30691:30766   */\n      tag_570\n        /* \"#utility.yul\":30762:30765   */\n      dup3\n        /* \"#utility.yul\":30753:30759   */\n      dup5\n        /* \"#utility.yul\":30691:30766   */\n      tag_270\n      jump\t// in\n    tag_570:\n        /* \"#utility.yul\":30791:30793   */\n      0x20\n        /* \"#utility.yul\":30786:30789   */\n      dup3\n        /* \"#utility.yul\":30782:30794   */\n      add\n        /* \"#utility.yul\":30775:30794   */\n      swap2\n      pop\n        /* \"#utility.yul\":30811:30814   */\n      dup2\n        /* \"#utility.yul\":30804:30814   */\n      swap1\n      pop\n        /* \"#utility.yul\":30298:30820   */\n      swap3\n      swap2\n      pop\n      pop\n      jump\t// out\n        /* \"#utility.yul\":30826:30938   */\n    tag_271:\n        /* \"#utility.yul\":30909:30931   */\n      tag_572\n        /* \"#utility.yul\":30925:30930   */\n      dup2\n        /* \"#utility.yul\":30909:30931   */\n      tag_266\n      jump\t// in\n    tag_572:\n        /* \"#utility.yul\":30904:30907   */\n      dup3\n        /* \"#utility.yul\":30897:30932   */\n      mstore\n        /* \"#utility.yul\":30826:30938   */\n      pop\n      pop\n      jump\t// out\n        /* \"#utility.yul\":30944:31489   */\n    tag_183:\n        /* \"#utility.yul\":31117:31121   */\n      0x00\n        /* \"#utility.yul\":31155:31158   */\n      0x80\n        /* \"#utility.yul\":31144:31153   */\n      dup3\n        /* \"#utility.yul\":31140:31159   */\n      add\n        /* \"#utility.yul\":31132:31159   */\n      swap1\n      pop\n        /* \"#utility.yul\":31169:31240   */\n      tag_574\n        /* \"#utility.yul\":31237:31238   */\n      0x00\n        /* \"#utility.yul\":31226:31235   */\n      dup4\n        /* \"#utility.yul\":31222:31239   */\n      add\n        /* \"#utility.yul\":31213:31219   */\n      dup8\n        /* \"#utility.yul\":31169:31240   */\n      tag_209\n      jump\t// in\n    tag_574:\n        /* \"#utility.yul\":31250:31318   */\n      tag_575\n        /* \"#utility.yul\":31314:31316   */\n      0x20\n        /* \"#utility.yul\":31303:31312   */\n      dup4\n        /* \"#utility.yul\":31299:31317   */\n      add\n        /* \"#utility.yul\":31290:31296   */\n      dup7\n        /* \"#utility.yul\":31250:31318   */\n      tag_271\n      jump\t// in\n    tag_575:\n        /* \"#utility.yul\":31328:31400   */\n      tag_576\n        /* \"#utility.yul\":31396:31398   */\n      0x40\n        /* \"#utility.yul\":31385:31394   */\n      dup4\n        /* \"#utility.yul\":31381:31399   */\n      add\n        /* \"#utility.yul\":31372:31378   */\n      dup6\n        /* \"#utility.yul\":31328:31400   */\n      tag_209\n      jump\t// in\n    tag_576:\n        /* \"#utility.yul\":31410:31482   */\n      tag_577\n        /* \"#utility.yul\":31478:31480   */\n      0x60\n        /* \"#utility.yul\":31467:31476   */\n      dup4\n        /* \"#utility.yul\":31463:31481   */\n      add\n        /* \"#utility.yul\":31454:31460   */\n      dup5\n        /* \"#utility.yul\":31410:31482   */\n      tag_209\n      jump\t// in\n    tag_577:\n        /* \"#utility.yul\":30944:31489   */\n      swap6\n      swap5\n      pop\n      pop\n      pop\n      pop\n      pop\n      jump\t// out\n\n    auxdata: 0xa26469706673582212200910ab343202daaac93e039ff6dcbd569273dd9d30f29c00d4da846b47c2d5e564736f6c634300080a0033\n}\n",
				"bytecode": {
					"linkReferences": {},
					"object": "608060405234801561001057600080fd5b50612248806100206000396000f3fe6080604052600436106100a05760003560e01c806363ee965a1161006457806363ee965a146101b857806367d407df146101f85780638579cacd14610235578063af7cbc0d14610272578063bd807c6c146102af578063f0e4de22146102ec576100a7565b806301ff993b146100ac5780630968d4b1146100e957806312f0da4b146101275780634fcf1f391461015057806357f539671461018f576100a7565b366100a757005b600080fd5b3480156100b857600080fd5b506100d360048036038101906100ce91906113de565b610315565b6040516100e0919061147a565b60405180910390f35b3480156100f557600080fd5b50610110600480360381019061010b91906114cf565b610350565b60405161011e9291906115c2565b60405180910390f35b34801561013357600080fd5b5061014e60048036038101906101499190611693565b6103f4565b005b34801561015c57600080fd5b5061017760048036038101906101729190611732565b610728565b60405161018693929190611848565b60405180910390f35b34801561019b57600080fd5b506101b660048036038101906101b19190611886565b6109e6565b005b3480156101c457600080fd5b506101df60048036038101906101da9190611732565b610ca5565b6040516101ef949392919061192b565b60405180910390f35b34801561020457600080fd5b5061021f600480360381019061021a9190611970565b610d36565b60405161022c919061199d565b60405180910390f35b34801561024157600080fd5b5061025c60048036038101906102579190611732565b610d4e565b604051610269919061199d565b60405180910390f35b34801561027e57600080fd5b5061029960048036038101906102949190611732565b610d90565b6040516102a69190611a76565b60405180910390f35b3480156102bb57600080fd5b506102d660048036038101906102d19190611a98565b610e44565b6040516102e3919061199d565b60405180910390f35b3480156102f857600080fd5b50610313600480360381019061030e9190611732565b610ef2565b005b60003085858585604051602001610330959493929190611be5565b604051602081830303815290604052805190602001209050949350505050565b60606000806000856040516103659190611c4b565b90815260200160405180910390209050338160000160006101000a81548173ffffffffffffffffffffffffffffffffffffffff021916908373ffffffffffffffffffffffffffffffffffffffff1602179055508361ffff168160020160006101000a81548163ffffffff021916908363ffffffff16021790555084848061ffff16905092509250509250929050565b8383600080826040516104079190611c4b565b90815260200160405180910390209050600115158160030160008573ffffffffffffffffffffffffffffffffffffffff1673ffffffffffffffffffffffffffffffffffffffff16815260200190815260200160002060009054906101000a900460ff161515146104ac576040517f08c379a00000000000000000000000000000000000000000000000000000000081526004016104a390611cd4565b60405180910390fd5b85600080826040516104be9190611c4b565b90815260200160405180910390209050600115158160020160069054906101000a900460ff16151514610526576040517f08c379a000000000000000000000000000000000000000000000000000000000815260040161051d90611d40565b60405180910390fd5b60006105348a8a8a42610315565b905060006105428289610fd7565b9050600073ffffffffffffffffffffffffffffffffffffffff168173ffffffffffffffffffffffffffffffffffffffff16141561057e57600080fd5b600160008273ffffffffffffffffffffffffffffffffffffffff1673ffffffffffffffffffffffffffffffffffffffff1681526020019081526020016000205489146105c957600080fd5b600160008273ffffffffffffffffffffffffffffffffffffffff1673ffffffffffffffffffffffffffffffffffffffff168152602001908152602001600020600081548092919061061990611d8f565b91905055506000808b60405161062f9190611c4b565b90815260200160405180910390209050600015158160040160003373ffffffffffffffffffffffffffffffffffffffff1673ffffffffffffffffffffffffffffffffffffffff16815260200190815260200160002060009054906101000a900460ff161515146106d4576040517f08c379a00000000000000000000000000000000000000000000000000000000081526004016106cb90611e24565b60405180910390fd5b6106df8c8c336110d0565b507ff3f16a15f074b71c5138107dfc7c63b80524d5411cb967caa97d8d9f12b2fd6b8c6001604051610712929190611e44565b60405180910390a1505050505050505050505050565b60606000806000808560405161073e9190611c4b565b90815260200160405180910390209050600073ffffffffffffffffffffffffffffffffffffffff168160000160009054906101000a900473ffffffffffffffffffffffffffffffffffffffff1673ffffffffffffffffffffffffffffffffffffffff1614156107e2576040517f08c379a00000000000000000000000000000000000000000000000000000000081526004016107d990611eb9565b60405180910390fd5b806001018054905067ffffffffffffffff8111156108035761080261127d565b5b6040519080825280602002602001820160405280156108315781602001602082028036833780820191505090505b50935060008060005b836001018054905081116109d257600084600501600086600101848154811061086657610865611ed9565b5b9060005260206000200160009054906101000a900473ffffffffffffffffffffffffffffffffffffffff1673ffffffffffffffffffffffffffffffffffffffff1673ffffffffffffffffffffffffffffffffffffffff1681526020019081526020016000205490508381111561091d578093508460010182815481106108ef576108ee611ed9565b5b9060005260206000200160009054906101000a900473ffffffffffffffffffffffffffffffffffffffff1692505b84600501600086600101848154811061093957610938611ed9565b5b9060005260206000200160009054906101000a900473ffffffffffffffffffffffffffffffffffffffff1673ffffffffffffffffffffffffffffffffffffffff1673ffffffffffffffffffffffffffffffffffffffff168152602001908152602001600020548883815181106109b2576109b1611ed9565b5b6020026020010181815250505080806109ca90611d8f565b91505061083a565b508581839550955095505050509193909250565b600080826040516109f79190611c4b565b90815260200160405180910390209050600073ffffffffffffffffffffffffffffffffffffffff168160000160009054906101000a900473ffffffffffffffffffffffffffffffffffffffff1673ffffffffffffffffffffffffffffffffffffffff161415610a9b576040517f08c379a0000000000000000000000000000000000000000000000000000000008152600401610a9290611f54565b60405180910390fd5b3373ffffffffffffffffffffffffffffffffffffffff168160000160009054906101000a900473ffffffffffffffffffffffffffffffffffffffff1673ffffffffffffffffffffffffffffffffffffffff1614610afb57610afa611f74565b5b8060020160009054906101000a900463ffffffff1663ffffffff168160020160049054906101000a900461ffff1661ffff1610610b6d576040517f08c379a0000000000000000000000000000000000000000000000000000000008152600401610b6490612015565b60405180910390fd5b60018160030160008573ffffffffffffffffffffffffffffffffffffffff1673ffffffffffffffffffffffffffffffffffffffff16815260200190815260200160002060006101000a81548160ff02191690831515021790555080600101839080600181540180825580915050600190039060005260206000200160009091909190916101000a81548173ffffffffffffffffffffffffffffffffffffffff021916908373ffffffffffffffffffffffffffffffffffffffff16021790555080600201600481819054906101000a900461ffff1680929190610c4e90612035565b91906101000a81548161ffff021916908361ffff160217905550507fc19c59aa93348e8fc54764bc642eca975e2639f44cc683ef8f027e1529cbda3283604051610c989190612060565b60405180910390a1505050565b6000818051602081018201805184825260208301602085012081835280955050505050506000915090508060000160009054906101000a900473ffffffffffffffffffffffffffffffffffffffff16908060020160009054906101000a900463ffffffff16908060020160049054906101000a900461ffff16908060020160069054906101000a900460ff16905084565b60016020528060005260406000206000915090505481565b600080600083604051610d619190611c4b565b908152602001604051809103902090508060020160049054906101000a900461ffff1661ffff16915050919050565b606060008083604051610da39190611c4b565b9081526020016040518091039020905080600101805480602002602001604051908101604052809291908181526020018280548015610e3757602002820191906000526020600020905b8160009054906101000a900473ffffffffffffffffffffffffffffffffffffffff1673ffffffffffffffffffffffffffffffffffffffff1681526020019060010190808311610ded575b5050505050915050919050565b600080600084604051610e579190611c4b565b90815260200160405180910390209050806005016000826001018581548110610e8357610e82611ed9565b5b9060005260206000200160009054906101000a900473ffffffffffffffffffffffffffffffffffffffff1673ffffffffffffffffffffffffffffffffffffffff1673ffffffffffffffffffffffffffffffffffffffff1681526020019081526020016000205491505092915050565b60008082604051610f039190611c4b565b908152602001604051809103902090503373ffffffffffffffffffffffffffffffffffffffff168160000160009054906101000a900473ffffffffffffffffffffffffffffffffffffffff1673ffffffffffffffffffffffffffffffffffffffff1614610fa5576040517f08c379a0000000000000000000000000000000000000000000000000000000008152600401610f9c906120c7565b60405180910390fd5b8060020160069054906101000a900460ff16158160020160066101000a81548160ff0219169083151502179055505050565b6000806000806041855114610ff257600093505050506110ca565b6020850151925060408501519150606085015160001a9050601b8160ff16101561102657601b8161102391906120f4565b90505b601b8160ff161415801561103e5750601c8160ff1614155b1561104f57600093505050506110ca565b6001866040516020016110629190612198565b604051602081830303815290604052805190602001208285856040516000815260200160405260405161109894939291906121cd565b6020604051602081039080840390855afa1580156110ba573d6000803e3d6000fd5b5050506020604051035193505050505b92915050565b6000806000846040516110e39190611c4b565b9081526020016040518091039020905060018160040160008573ffffffffffffffffffffffffffffffffffffffff1673ffffffffffffffffffffffffffffffffffffffff16815260200190815260200160002060006101000a81548160ff0219169083151502179055508060050160008673ffffffffffffffffffffffffffffffffffffffff1673ffffffffffffffffffffffffffffffffffffffff168152602001908152602001600020600081548092919061119f90611d8f565b91905055508060050160008673ffffffffffffffffffffffffffffffffffffffff1673ffffffffffffffffffffffffffffffffffffffff168152602001908152602001600020549150509392505050565b6000604051905090565b600080fd5b600080fd5b600073ffffffffffffffffffffffffffffffffffffffff82169050919050565b600061122f82611204565b9050919050565b61123f81611224565b811461124a57600080fd5b50565b60008135905061125c81611236565b92915050565b600080fd5b600080fd5b6000601f19601f8301169050919050565b7f4e487b7100000000000000000000000000000000000000000000000000000000600052604160045260246000fd5b6112b58261126c565b810181811067ffffffffffffffff821117156112d4576112d361127d565b5b80604052505050565b60006112e76111f0565b90506112f382826112ac565b919050565b600067ffffffffffffffff8211156113135761131261127d565b5b61131c8261126c565b9050602081019050919050565b82818337600083830152505050565b600061134b611346846112f8565b6112dd565b90508281526020810184848401111561136757611366611267565b5b611372848285611329565b509392505050565b600082601f83011261138f5761138e611262565b5b813561139f848260208601611338565b91505092915050565b6000819050919050565b6113bb816113a8565b81146113c657600080fd5b50565b6000813590506113d8816113b2565b92915050565b600080600080608085870312156113f8576113f76111fa565b5b60006114068782880161124d565b945050602085013567ffffffffffffffff811115611427576114266111ff565b5b6114338782880161137a565b9350506040611444878288016113c9565b9250506060611455878288016113c9565b91505092959194509250565b6000819050919050565b61147481611461565b82525050565b600060208201905061148f600083018461146b565b92915050565b600061ffff82169050919050565b6114ac81611495565b81146114b757600080fd5b50565b6000813590506114c9816114a3565b92915050565b600080604083850312156114e6576114e56111fa565b5b600083013567ffffffffffffffff811115611504576115036111ff565b5b6115108582860161137a565b9250506020611521858286016114ba565b9150509250929050565b600081519050919050565b600082825260208201905092915050565b60005b8381101561156557808201518184015260208101905061154a565b83811115611574576000848401525b50505050565b60006115858261152b565b61158f8185611536565b935061159f818560208601611547565b6115a88161126c565b840191505092915050565b6115bc816113a8565b82525050565b600060408201905081810360008301526115dc818561157a565b90506115eb60208301846115b3565b9392505050565b600067ffffffffffffffff82111561160d5761160c61127d565b5b6116168261126c565b9050602081019050919050565b6000611636611631846115f2565b6112dd565b90508281526020810184848401111561165257611651611267565b5b61165d848285611329565b509392505050565b600082601f83011261167a57611679611262565b5b813561168a848260208601611623565b91505092915050565b600080600080608085870312156116ad576116ac6111fa565b5b60006116bb8782880161124d565b945050602085013567ffffffffffffffff8111156116dc576116db6111ff565b5b6116e88782880161137a565b93505060406116f9878288016113c9565b925050606085013567ffffffffffffffff81111561171a576117196111ff565b5b61172687828801611665565b91505092959194509250565b600060208284031215611748576117476111fa565b5b600082013567ffffffffffffffff811115611766576117656111ff565b5b6117728482850161137a565b91505092915050565b600081519050919050565b600082825260208201905092915050565b6000819050602082019050919050565b6117b0816113a8565b82525050565b60006117c283836117a7565b60208301905092915050565b6000602082019050919050565b60006117e68261177b565b6117f08185611786565b93506117fb83611797565b8060005b8381101561182c57815161181388826117b6565b975061181e836117ce565b9250506001810190506117ff565b5085935050505092915050565b61184281611224565b82525050565b6000606082019050818103600083015261186281866117db565b90506118716020830185611839565b61187e60408301846115b3565b949350505050565b6000806040838503121561189d5761189c6111fa565b5b60006118ab8582860161124d565b925050602083013567ffffffffffffffff8111156118cc576118cb6111ff565b5b6118d88582860161137a565b9150509250929050565b600063ffffffff82169050919050565b6118fb816118e2565b82525050565b61190a81611495565b82525050565b60008115159050919050565b61192581611910565b82525050565b60006080820190506119406000830187611839565b61194d60208301866118f2565b61195a6040830185611901565b611967606083018461191c565b95945050505050565b600060208284031215611986576119856111fa565b5b60006119948482850161124d565b91505092915050565b60006020820190506119b260008301846115b3565b92915050565b600081519050919050565b600082825260208201905092915050565b6000819050602082019050919050565b6119ed81611224565b82525050565b60006119ff83836119e4565b60208301905092915050565b6000602082019050919050565b6000611a23826119b8565b611a2d81856119c3565b9350611a38836119d4565b8060005b83811015611a69578151611a5088826119f3565b9750611a5b83611a0b565b925050600181019050611a3c565b5085935050505092915050565b60006020820190508181036000830152611a908184611a18565b905092915050565b60008060408385031215611aaf57611aae6111fa565b5b600083013567ffffffffffffffff811115611acd57611acc6111ff565b5b611ad98582860161137a565b9250506020611aea858286016113c9565b9150509250929050565b60008160601b9050919050565b6000611b0c82611af4565b9050919050565b6000611b1e82611b01565b9050919050565b611b36611b3182611224565b611b13565b82525050565b600081905092915050565b7f6d6574617472616e73616374696f6e20566f74696e6720000000000000000000600082015250565b6000611b7d601783611b3c565b9150611b8882611b47565b601782019050919050565b6000611b9e8261152b565b611ba88185611b3c565b9350611bb8818560208601611547565b80840191505092915050565b6000819050919050565b611bdf611bda826113a8565b611bc4565b82525050565b6000611bf18288611b25565b601482019150611c0082611b70565b9150611c0c8287611b25565b601482019150611c1c8286611b93565b9150611c288285611bce565b602082019150611c388284611bce565b6020820191508190509695505050505050565b6000611c578284611b93565b915081905092915050565b7f54686973206164647265737320646f6573206e6f74206578697374206173206160008201527f2063616e64696461746500000000000000000000000000000000000000000000602082015250565b6000611cbe602a83611536565b9150611cc982611c62565b604082019050919050565b60006020820190508181036000830152611ced81611cb1565b9050919050565b7f766f74696e672068617320656e64656400000000000000000000000000000000600082015250565b6000611d2a601083611536565b9150611d3582611cf4565b602082019050919050565b60006020820190508181036000830152611d5981611d1d565b9050919050565b7f4e487b7100000000000000000000000000000000000000000000000000000000600052601160045260246000fd5b6000611d9a826113a8565b91507fffffffffffffffffffffffffffffffffffffffffffffffffffffffffffffffff821415611dcd57611dcc611d60565b5b600182019050919050565b7f596f7520616c726561647920766f746564000000000000000000000000000000600082015250565b6000611e0e601183611536565b9150611e1982611dd8565b602082019050919050565b60006020820190508181036000830152611e3d81611e01565b9050919050565b6000604082019050611e596000830185611839565b611e66602083018461191c565b9392505050565b7f4e6f20706f6c6c20637265617465640000000000000000000000000000000000600082015250565b6000611ea3600f83611536565b9150611eae82611e6d565b602082019050919050565b60006020820190508181036000830152611ed281611e96565b9050919050565b7f4e487b7100000000000000000000000000000000000000000000000000000000600052603260045260246000fd5b7f79657420746f20637265617465206120706f6c6c000000000000000000000000600082015250565b6000611f3e601483611536565b9150611f4982611f08565b602082019050919050565b60006020820190508181036000830152611f6d81611f31565b9050919050565b7f4e487b7100000000000000000000000000000000000000000000000000000000600052600160045260246000fd5b7f6d6178696d756d206e6f206f662063616e64696461746520706572207365737360008201527f696f6e2072656769737465726564000000000000000000000000000000000000602082015250565b6000611fff602e83611536565b915061200a82611fa3565b604082019050919050565b6000602082019050818103600083015261202e81611ff2565b9050919050565b600061204082611495565b915061ffff82141561205557612054611d60565b5b600182019050919050565b60006020820190506120756000830184611839565b92915050565b7f6e6f74207468652063686169726d616e00000000000000000000000000000000600082015250565b60006120b1601083611536565b91506120bc8261207b565b602082019050919050565b600060208201905081810360008301526120e0816120a4565b9050919050565b600060ff82169050919050565b60006120ff826120e7565b915061210a836120e7565b92508260ff038211156121205761211f611d60565b5b828201905092915050565b7f19457468657265756d205369676e6564204d6573736167653a0a333200000000600082015250565b6000612161601c83611b3c565b915061216c8261212b565b601c82019050919050565b6000819050919050565b61219261218d82611461565b612177565b82525050565b60006121a382612154565b91506121af8284612181565b60208201915081905092915050565b6121c7816120e7565b82525050565b60006080820190506121e2600083018761146b565b6121ef60208301866121be565b6121fc604083018561146b565b612209606083018461146b565b9594505050505056fea26469706673582212200910ab343202daaac93e039ff6dcbd569273dd9d30f29c00d4da846b47c2d5e564736f6c634300080a0033",
					"opcodes": "PUSH1 0x80 PUSH1 0x40 MSTORE CALLVALUE DUP1 ISZERO PUSH2 0x10 JUMPI PUSH1 0x0 DUP1 REVERT JUMPDEST POP PUSH2 0x2248 DUP1 PUSH2 0x20 PUSH1 0x0 CODECOPY PUSH1 0x0 RETURN INVALID PUSH1 0x80 PUSH1 0x40 MSTORE PUSH1 0x4 CALLDATASIZE LT PUSH2 0xA0 JUMPI PUSH1 0x0 CALLDATALOAD PUSH1 0xE0 SHR DUP1 PUSH4 0x63EE965A GT PUSH2 0x64 JUMPI DUP1 PUSH4 0x63EE965A EQ PUSH2 0x1B8 JUMPI DUP1 PUSH4 0x67D407DF EQ PUSH2 0x1F8 JUMPI DUP1 PUSH4 0x8579CACD EQ PUSH2 0x235 JUMPI DUP1 PUSH4 0xAF7CBC0D EQ PUSH2 0x272 JUMPI DUP1 PUSH4 0xBD807C6C EQ PUSH2 0x2AF JUMPI DUP1 PUSH4 0xF0E4DE22 EQ PUSH2 0x2EC JUMPI PUSH2 0xA7 JUMP JUMPDEST DUP1 PUSH4 0x1FF993B EQ PUSH2 0xAC JUMPI DUP1 PUSH4 0x968D4B1 EQ PUSH2 0xE9 JUMPI DUP1 PUSH4 0x12F0DA4B EQ PUSH2 0x127 JUMPI DUP1 PUSH4 0x4FCF1F39 EQ PUSH2 0x150 JUMPI DUP1 PUSH4 0x57F53967 EQ PUSH2 0x18F JUMPI PUSH2 0xA7 JUMP JUMPDEST CALLDATASIZE PUSH2 0xA7 JUMPI STOP JUMPDEST PUSH1 0x0 DUP1 REVERT JUMPDEST CALLVALUE DUP1 ISZERO PUSH2 0xB8 JUMPI PUSH1 0x0 DUP1 REVERT JUMPDEST POP PUSH2 0xD3 PUSH1 0x4 DUP1 CALLDATASIZE SUB DUP2 ADD SWAP1 PUSH2 0xCE SWAP2 SWAP1 PUSH2 0x13DE JUMP JUMPDEST PUSH2 0x315 JUMP JUMPDEST PUSH1 0x40 MLOAD PUSH2 0xE0 SWAP2 SWAP1 PUSH2 0x147A JUMP JUMPDEST PUSH1 0x40 MLOAD DUP1 SWAP2 SUB SWAP1 RETURN JUMPDEST CALLVALUE DUP1 ISZERO PUSH2 0xF5 JUMPI PUSH1 0x0 DUP1 REVERT JUMPDEST POP PUSH2 0x110 PUSH1 0x4 DUP1 CALLDATASIZE SUB DUP2 ADD SWAP1 PUSH2 0x10B SWAP2 SWAP1 PUSH2 0x14CF JUMP JUMPDEST PUSH2 0x350 JUMP JUMPDEST PUSH1 0x40 MLOAD PUSH2 0x11E SWAP3 SWAP2 SWAP1 PUSH2 0x15C2 JUMP JUMPDEST PUSH1 0x40 MLOAD DUP1 SWAP2 SUB SWAP1 RETURN JUMPDEST CALLVALUE DUP1 ISZERO PUSH2 0x133 JUMPI PUSH1 0x0 DUP1 REVERT JUMPDEST POP PUSH2 0x14E PUSH1 0x4 DUP1 CALLDATASIZE SUB DUP2 ADD SWAP1 PUSH2 0x149 SWAP2 SWAP1 PUSH2 0x1693 JUMP JUMPDEST PUSH2 0x3F4 JUMP JUMPDEST STOP JUMPDEST CALLVALUE DUP1 ISZERO PUSH2 0x15C JUMPI PUSH1 0x0 DUP1 REVERT JUMPDEST POP PUSH2 0x177 PUSH1 0x4 DUP1 CALLDATASIZE SUB DUP2 ADD SWAP1 PUSH2 0x172 SWAP2 SWAP1 PUSH2 0x1732 JUMP JUMPDEST PUSH2 0x728 JUMP JUMPDEST PUSH1 0x40 MLOAD PUSH2 0x186 SWAP4 SWAP3 SWAP2 SWAP1 PUSH2 0x1848 JUMP JUMPDEST PUSH1 0x40 MLOAD DUP1 SWAP2 SUB SWAP1 RETURN JUMPDEST CALLVALUE DUP1 ISZERO PUSH2 0x19B JUMPI PUSH1 0x0 DUP1 REVERT JUMPDEST POP PUSH2 0x1B6 PUSH1 0x4 DUP1 CALLDATASIZE SUB DUP2 ADD SWAP1 PUSH2 0x1B1 SWAP2 SWAP1 PUSH2 0x1886 JUMP JUMPDEST PUSH2 0x9E6 JUMP JUMPDEST STOP JUMPDEST CALLVALUE DUP1 ISZERO PUSH2 0x1C4 JUMPI PUSH1 0x0 DUP1 REVERT JUMPDEST POP PUSH2 0x1DF PUSH1 0x4 DUP1 CALLDATASIZE SUB DUP2 ADD SWAP1 PUSH2 0x1DA SWAP2 SWAP1 PUSH2 0x1732 JUMP JUMPDEST PUSH2 0xCA5 JUMP JUMPDEST PUSH1 0x40 MLOAD PUSH2 0x1EF SWAP5 SWAP4 SWAP3 SWAP2 SWAP1 PUSH2 0x192B JUMP JUMPDEST PUSH1 0x40 MLOAD DUP1 SWAP2 SUB SWAP1 RETURN JUMPDEST CALLVALUE DUP1 ISZERO PUSH2 0x204 JUMPI PUSH1 0x0 DUP1 REVERT JUMPDEST POP PUSH2 0x21F PUSH1 0x4 DUP1 CALLDATASIZE SUB DUP2 ADD SWAP1 PUSH2 0x21A SWAP2 SWAP1 PUSH2 0x1970 JUMP JUMPDEST PUSH2 0xD36 JUMP JUMPDEST PUSH1 0x40 MLOAD PUSH2 0x22C SWAP2 SWAP1 PUSH2 0x199D JUMP JUMPDEST PUSH1 0x40 MLOAD DUP1 SWAP2 SUB SWAP1 RETURN JUMPDEST CALLVALUE DUP1 ISZERO PUSH2 0x241 JUMPI PUSH1 0x0 DUP1 REVERT JUMPDEST POP PUSH2 0x25C PUSH1 0x4 DUP1 CALLDATASIZE SUB DUP2 ADD SWAP1 PUSH2 0x257 SWAP2 SWAP1 PUSH2 0x1732 JUMP JUMPDEST PUSH2 0xD4E JUMP JUMPDEST PUSH1 0x40 MLOAD PUSH2 0x269 SWAP2 SWAP1 PUSH2 0x199D JUMP JUMPDEST PUSH1 0x40 MLOAD DUP1 SWAP2 SUB SWAP1 RETURN JUMPDEST CALLVALUE DUP1 ISZERO PUSH2 0x27E JUMPI PUSH1 0x0 DUP1 REVERT JUMPDEST POP PUSH2 0x299 PUSH1 0x4 DUP1 CALLDATASIZE SUB DUP2 ADD SWAP1 PUSH2 0x294 SWAP2 SWAP1 PUSH2 0x1732 JUMP JUMPDEST PUSH2 0xD90 JUMP JUMPDEST PUSH1 0x40 MLOAD PUSH2 0x2A6 SWAP2 SWAP1 PUSH2 0x1A76 JUMP JUMPDEST PUSH1 0x40 MLOAD DUP1 SWAP2 SUB SWAP1 RETURN JUMPDEST CALLVALUE DUP1 ISZERO PUSH2 0x2BB JUMPI PUSH1 0x0 DUP1 REVERT JUMPDEST POP PUSH2 0x2D6 PUSH1 0x4 DUP1 CALLDATASIZE SUB DUP2 ADD SWAP1 PUSH2 0x2D1 SWAP2 SWAP1 PUSH2 0x1A98 JUMP JUMPDEST PUSH2 0xE44 JUMP JUMPDEST PUSH1 0x40 MLOAD PUSH2 0x2E3 SWAP2 SWAP1 PUSH2 0x199D JUMP JUMPDEST PUSH1 0x40 MLOAD DUP1 SWAP2 SUB SWAP1 RETURN JUMPDEST CALLVALUE DUP1 ISZERO PUSH2 0x2F8 JUMPI PUSH1 0x0 DUP1 REVERT JUMPDEST POP PUSH2 0x313 PUSH1 0x4 DUP1 CALLDATASIZE SUB DUP2 ADD SWAP1 PUSH2 0x30E SWAP2 SWAP1 PUSH2 0x1732 JUMP JUMPDEST PUSH2 0xEF2 JUMP JUMPDEST STOP JUMPDEST PUSH1 0x0 ADDRESS DUP6 DUP6 DUP6 DUP6 PUSH1 0x40 MLOAD PUSH1 0x20 ADD PUSH2 0x330 SWAP6 SWAP5 SWAP4 SWAP3 SWAP2 SWAP1 PUSH2 0x1BE5 JUMP JUMPDEST PUSH1 0x40 MLOAD PUSH1 0x20 DUP2 DUP4 SUB SUB DUP2 MSTORE SWAP1 PUSH1 0x40 MSTORE DUP1 MLOAD SWAP1 PUSH1 0x20 ADD KECCAK256 SWAP1 POP SWAP5 SWAP4 POP POP POP POP JUMP JUMPDEST PUSH1 0x60 PUSH1 0x0 DUP1 PUSH1 0x0 DUP6 PUSH1 0x40 MLOAD PUSH2 0x365 SWAP2 SWAP1 PUSH2 0x1C4B JUMP JUMPDEST SWAP1 DUP2 MSTORE PUSH1 0x20 ADD PUSH1 0x40 MLOAD DUP1 SWAP2 SUB SWAP1 KECCAK256 SWAP1 POP CALLER DUP2 PUSH1 0x0 ADD PUSH1 0x0 PUSH2 0x100 EXP DUP2 SLOAD DUP2 PUSH20 0xFFFFFFFFFFFFFFFFFFFFFFFFFFFFFFFFFFFFFFFF MUL NOT AND SWAP1 DUP4 PUSH20 0xFFFFFFFFFFFFFFFFFFFFFFFFFFFFFFFFFFFFFFFF AND MUL OR SWAP1 SSTORE POP DUP4 PUSH2 0xFFFF AND DUP2 PUSH1 0x2 ADD PUSH1 0x0 PUSH2 0x100 EXP DUP2 SLOAD DUP2 PUSH4 0xFFFFFFFF MUL NOT AND SWAP1 DUP4 PUSH4 0xFFFFFFFF AND MUL OR SWAP1 SSTORE POP DUP5 DUP5 DUP1 PUSH2 0xFFFF AND SWAP1 POP SWAP3 POP SWAP3 POP POP SWAP3 POP SWAP3 SWAP1 POP JUMP JUMPDEST DUP4 DUP4 PUSH1 0x0 DUP1 DUP3 PUSH1 0x40 MLOAD PUSH2 0x407 SWAP2 SWAP1 PUSH2 0x1C4B JUMP JUMPDEST SWAP1 DUP2 MSTORE PUSH1 0x20 ADD PUSH1 0x40 MLOAD DUP1 SWAP2 SUB SWAP1 KECCAK256 SWAP1 POP PUSH1 0x1 ISZERO ISZERO DUP2 PUSH1 0x3 ADD PUSH1 0x0 DUP6 PUSH20 0xFFFFFFFFFFFFFFFFFFFFFFFFFFFFFFFFFFFFFFFF AND PUSH20 0xFFFFFFFFFFFFFFFFFFFFFFFFFFFFFFFFFFFFFFFF AND DUP2 MSTORE PUSH1 0x20 ADD SWAP1 DUP2 MSTORE PUSH1 0x20 ADD PUSH1 0x0 KECCAK256 PUSH1 0x0 SWAP1 SLOAD SWAP1 PUSH2 0x100 EXP SWAP1 DIV PUSH1 0xFF AND ISZERO ISZERO EQ PUSH2 0x4AC JUMPI PUSH1 0x40 MLOAD PUSH32 0x8C379A000000000000000000000000000000000000000000000000000000000 DUP2 MSTORE PUSH1 0x4 ADD PUSH2 0x4A3 SWAP1 PUSH2 0x1CD4 JUMP JUMPDEST PUSH1 0x40 MLOAD DUP1 SWAP2 SUB SWAP1 REVERT JUMPDEST DUP6 PUSH1 0x0 DUP1 DUP3 PUSH1 0x40 MLOAD PUSH2 0x4BE SWAP2 SWAP1 PUSH2 0x1C4B JUMP JUMPDEST SWAP1 DUP2 MSTORE PUSH1 0x20 ADD PUSH1 0x40 MLOAD DUP1 SWAP2 SUB SWAP1 KECCAK256 SWAP1 POP PUSH1 0x1 ISZERO ISZERO DUP2 PUSH1 0x2 ADD PUSH1 0x6 SWAP1 SLOAD SWAP1 PUSH2 0x100 EXP SWAP1 DIV PUSH1 0xFF AND ISZERO ISZERO EQ PUSH2 0x526 JUMPI PUSH1 0x40 MLOAD PUSH32 0x8C379A000000000000000000000000000000000000000000000000000000000 DUP2 MSTORE PUSH1 0x4 ADD PUSH2 0x51D SWAP1 PUSH2 0x1D40 JUMP JUMPDEST PUSH1 0x40 MLOAD DUP1 SWAP2 SUB SWAP1 REVERT JUMPDEST PUSH1 0x0 PUSH2 0x534 DUP11 DUP11 DUP11 TIMESTAMP PUSH2 0x315 JUMP JUMPDEST SWAP1 POP PUSH1 0x0 PUSH2 0x542 DUP3 DUP10 PUSH2 0xFD7 JUMP JUMPDEST SWAP1 POP PUSH1 0x0 PUSH20 0xFFFFFFFFFFFFFFFFFFFFFFFFFFFFFFFFFFFFFFFF AND DUP2 PUSH20 0xFFFFFFFFFFFFFFFFFFFFFFFFFFFFFFFFFFFFFFFF AND EQ ISZERO PUSH2 0x57E JUMPI PUSH1 0x0 DUP1 REVERT JUMPDEST PUSH1 0x1 PUSH1 0x0 DUP3 PUSH20 0xFFFFFFFFFFFFFFFFFFFFFFFFFFFFFFFFFFFFFFFF AND PUSH20 0xFFFFFFFFFFFFFFFFFFFFFFFFFFFFFFFFFFFFFFFF AND DUP2 MSTORE PUSH1 0x20 ADD SWAP1 DUP2 MSTORE PUSH1 0x20 ADD PUSH1 0x0 KECCAK256 SLOAD DUP10 EQ PUSH2 0x5C9 JUMPI PUSH1 0x0 DUP1 REVERT JUMPDEST PUSH1 0x1 PUSH1 0x0 DUP3 PUSH20 0xFFFFFFFFFFFFFFFFFFFFFFFFFFFFFFFFFFFFFFFF AND PUSH20 0xFFFFFFFFFFFFFFFFFFFFFFFFFFFFFFFFFFFFFFFF AND DUP2 MSTORE PUSH1 0x20 ADD SWAP1 DUP2 MSTORE PUSH1 0x20 ADD PUSH1 0x0 KECCAK256 PUSH1 0x0 DUP2 SLOAD DUP1 SWAP3 SWAP2 SWAP1 PUSH2 0x619 SWAP1 PUSH2 0x1D8F JUMP JUMPDEST SWAP2 SWAP1 POP SSTORE POP PUSH1 0x0 DUP1 DUP12 PUSH1 0x40 MLOAD PUSH2 0x62F SWAP2 SWAP1 PUSH2 0x1C4B JUMP JUMPDEST SWAP1 DUP2 MSTORE PUSH1 0x20 ADD PUSH1 0x40 MLOAD DUP1 SWAP2 SUB SWAP1 KECCAK256 SWAP1 POP PUSH1 0x0 ISZERO ISZERO DUP2 PUSH1 0x4 ADD PUSH1 0x0 CALLER PUSH20 0xFFFFFFFFFFFFFFFFFFFFFFFFFFFFFFFFFFFFFFFF AND PUSH20 0xFFFFFFFFFFFFFFFFFFFFFFFFFFFFFFFFFFFFFFFF AND DUP2 MSTORE PUSH1 0x20 ADD SWAP1 DUP2 MSTORE PUSH1 0x20 ADD PUSH1 0x0 KECCAK256 PUSH1 0x0 SWAP1 SLOAD SWAP1 PUSH2 0x100 EXP SWAP1 DIV PUSH1 0xFF AND ISZERO ISZERO EQ PUSH2 0x6D4 JUMPI PUSH1 0x40 MLOAD PUSH32 0x8C379A000000000000000000000000000000000000000000000000000000000 DUP2 MSTORE PUSH1 0x4 ADD PUSH2 0x6CB SWAP1 PUSH2 0x1E24 JUMP JUMPDEST PUSH1 0x40 MLOAD DUP1 SWAP2 SUB SWAP1 REVERT JUMPDEST PUSH2 0x6DF DUP13 DUP13 CALLER PUSH2 0x10D0 JUMP JUMPDEST POP PUSH32 0xF3F16A15F074B71C5138107DFC7C63B80524D5411CB967CAA97D8D9F12B2FD6B DUP13 PUSH1 0x1 PUSH1 0x40 MLOAD PUSH2 0x712 SWAP3 SWAP2 SWAP1 PUSH2 0x1E44 JUMP JUMPDEST PUSH1 0x40 MLOAD DUP1 SWAP2 SUB SWAP1 LOG1 POP POP POP POP POP POP POP POP POP POP POP POP JUMP JUMPDEST PUSH1 0x60 PUSH1 0x0 DUP1 PUSH1 0x0 DUP1 DUP6 PUSH1 0x40 MLOAD PUSH2 0x73E SWAP2 SWAP1 PUSH2 0x1C4B JUMP JUMPDEST SWAP1 DUP2 MSTORE PUSH1 0x20 ADD PUSH1 0x40 MLOAD DUP1 SWAP2 SUB SWAP1 KECCAK256 SWAP1 POP PUSH1 0x0 PUSH20 0xFFFFFFFFFFFFFFFFFFFFFFFFFFFFFFFFFFFFFFFF AND DUP2 PUSH1 0x0 ADD PUSH1 0x0 SWAP1 SLOAD SWAP1 PUSH2 0x100 EXP SWAP1 DIV PUSH20 0xFFFFFFFFFFFFFFFFFFFFFFFFFFFFFFFFFFFFFFFF AND PUSH20 0xFFFFFFFFFFFFFFFFFFFFFFFFFFFFFFFFFFFFFFFF AND EQ ISZERO PUSH2 0x7E2 JUMPI PUSH1 0x40 MLOAD PUSH32 0x8C379A000000000000000000000000000000000000000000000000000000000 DUP2 MSTORE PUSH1 0x4 ADD PUSH2 0x7D9 SWAP1 PUSH2 0x1EB9 JUMP JUMPDEST PUSH1 0x40 MLOAD DUP1 SWAP2 SUB SWAP1 REVERT JUMPDEST DUP1 PUSH1 0x1 ADD DUP1 SLOAD SWAP1 POP PUSH8 0xFFFFFFFFFFFFFFFF DUP2 GT ISZERO PUSH2 0x803 JUMPI PUSH2 0x802 PUSH2 0x127D JUMP JUMPDEST JUMPDEST PUSH1 0x40 MLOAD SWAP1 DUP1 DUP3 MSTORE DUP1 PUSH1 0x20 MUL PUSH1 0x20 ADD DUP3 ADD PUSH1 0x40 MSTORE DUP1 ISZERO PUSH2 0x831 JUMPI DUP2 PUSH1 0x20 ADD PUSH1 0x20 DUP3 MUL DUP1 CALLDATASIZE DUP4 CALLDATACOPY DUP1 DUP3 ADD SWAP2 POP POP SWAP1 POP JUMPDEST POP SWAP4 POP PUSH1 0x0 DUP1 PUSH1 0x0 JUMPDEST DUP4 PUSH1 0x1 ADD DUP1 SLOAD SWAP1 POP DUP2 GT PUSH2 0x9D2 JUMPI PUSH1 0x0 DUP5 PUSH1 0x5 ADD PUSH1 0x0 DUP7 PUSH1 0x1 ADD DUP5 DUP2 SLOAD DUP2 LT PUSH2 0x866 JUMPI PUSH2 0x865 PUSH2 0x1ED9 JUMP JUMPDEST JUMPDEST SWAP1 PUSH1 0x0 MSTORE PUSH1 0x20 PUSH1 0x0 KECCAK256 ADD PUSH1 0x0 SWAP1 SLOAD SWAP1 PUSH2 0x100 EXP SWAP1 DIV PUSH20 0xFFFFFFFFFFFFFFFFFFFFFFFFFFFFFFFFFFFFFFFF AND PUSH20 0xFFFFFFFFFFFFFFFFFFFFFFFFFFFFFFFFFFFFFFFF AND PUSH20 0xFFFFFFFFFFFFFFFFFFFFFFFFFFFFFFFFFFFFFFFF AND DUP2 MSTORE PUSH1 0x20 ADD SWAP1 DUP2 MSTORE PUSH1 0x20 ADD PUSH1 0x0 KECCAK256 SLOAD SWAP1 POP DUP4 DUP2 GT ISZERO PUSH2 0x91D JUMPI DUP1 SWAP4 POP DUP5 PUSH1 0x1 ADD DUP3 DUP2 SLOAD DUP2 LT PUSH2 0x8EF JUMPI PUSH2 0x8EE PUSH2 0x1ED9 JUMP JUMPDEST JUMPDEST SWAP1 PUSH1 0x0 MSTORE PUSH1 0x20 PUSH1 0x0 KECCAK256 ADD PUSH1 0x0 SWAP1 SLOAD SWAP1 PUSH2 0x100 EXP SWAP1 DIV PUSH20 0xFFFFFFFFFFFFFFFFFFFFFFFFFFFFFFFFFFFFFFFF AND SWAP3 POP JUMPDEST DUP5 PUSH1 0x5 ADD PUSH1 0x0 DUP7 PUSH1 0x1 ADD DUP5 DUP2 SLOAD DUP2 LT PUSH2 0x939 JUMPI PUSH2 0x938 PUSH2 0x1ED9 JUMP JUMPDEST JUMPDEST SWAP1 PUSH1 0x0 MSTORE PUSH1 0x20 PUSH1 0x0 KECCAK256 ADD PUSH1 0x0 SWAP1 SLOAD SWAP1 PUSH2 0x100 EXP SWAP1 DIV PUSH20 0xFFFFFFFFFFFFFFFFFFFFFFFFFFFFFFFFFFFFFFFF AND PUSH20 0xFFFFFFFFFFFFFFFFFFFFFFFFFFFFFFFFFFFFFFFF AND PUSH20 0xFFFFFFFFFFFFFFFFFFFFFFFFFFFFFFFFFFFFFFFF AND DUP2 MSTORE PUSH1 0x20 ADD SWAP1 DUP2 MSTORE PUSH1 0x20 ADD PUSH1 0x0 KECCAK256 SLOAD DUP9 DUP4 DUP2 MLOAD DUP2 LT PUSH2 0x9B2 JUMPI PUSH2 0x9B1 PUSH2 0x1ED9 JUMP JUMPDEST JUMPDEST PUSH1 0x20 MUL PUSH1 0x20 ADD ADD DUP2 DUP2 MSTORE POP POP POP DUP1 DUP1 PUSH2 0x9CA SWAP1 PUSH2 0x1D8F JUMP JUMPDEST SWAP2 POP POP PUSH2 0x83A JUMP JUMPDEST POP DUP6 DUP2 DUP4 SWAP6 POP SWAP6 POP SWAP6 POP POP POP POP SWAP2 SWAP4 SWAP1 SWAP3 POP JUMP JUMPDEST PUSH1 0x0 DUP1 DUP3 PUSH1 0x40 MLOAD PUSH2 0x9F7 SWAP2 SWAP1 PUSH2 0x1C4B JUMP JUMPDEST SWAP1 DUP2 MSTORE PUSH1 0x20 ADD PUSH1 0x40 MLOAD DUP1 SWAP2 SUB SWAP1 KECCAK256 SWAP1 POP PUSH1 0x0 PUSH20 0xFFFFFFFFFFFFFFFFFFFFFFFFFFFFFFFFFFFFFFFF AND DUP2 PUSH1 0x0 ADD PUSH1 0x0 SWAP1 SLOAD SWAP1 PUSH2 0x100 EXP SWAP1 DIV PUSH20 0xFFFFFFFFFFFFFFFFFFFFFFFFFFFFFFFFFFFFFFFF AND PUSH20 0xFFFFFFFFFFFFFFFFFFFFFFFFFFFFFFFFFFFFFFFF AND EQ ISZERO PUSH2 0xA9B JUMPI PUSH1 0x40 MLOAD PUSH32 0x8C379A000000000000000000000000000000000000000000000000000000000 DUP2 MSTORE PUSH1 0x4 ADD PUSH2 0xA92 SWAP1 PUSH2 0x1F54 JUMP JUMPDEST PUSH1 0x40 MLOAD DUP1 SWAP2 SUB SWAP1 REVERT JUMPDEST CALLER PUSH20 0xFFFFFFFFFFFFFFFFFFFFFFFFFFFFFFFFFFFFFFFF AND DUP2 PUSH1 0x0 ADD PUSH1 0x0 SWAP1 SLOAD SWAP1 PUSH2 0x100 EXP SWAP1 DIV PUSH20 0xFFFFFFFFFFFFFFFFFFFFFFFFFFFFFFFFFFFFFFFF AND PUSH20 0xFFFFFFFFFFFFFFFFFFFFFFFFFFFFFFFFFFFFFFFF AND EQ PUSH2 0xAFB JUMPI PUSH2 0xAFA PUSH2 0x1F74 JUMP JUMPDEST JUMPDEST DUP1 PUSH1 0x2 ADD PUSH1 0x0 SWAP1 SLOAD SWAP1 PUSH2 0x100 EXP SWAP1 DIV PUSH4 0xFFFFFFFF AND PUSH4 0xFFFFFFFF AND DUP2 PUSH1 0x2 ADD PUSH1 0x4 SWAP1 SLOAD SWAP1 PUSH2 0x100 EXP SWAP1 DIV PUSH2 0xFFFF AND PUSH2 0xFFFF AND LT PUSH2 0xB6D JUMPI PUSH1 0x40 MLOAD PUSH32 0x8C379A000000000000000000000000000000000000000000000000000000000 DUP2 MSTORE PUSH1 0x4 ADD PUSH2 0xB64 SWAP1 PUSH2 0x2015 JUMP JUMPDEST PUSH1 0x40 MLOAD DUP1 SWAP2 SUB SWAP1 REVERT JUMPDEST PUSH1 0x1 DUP2 PUSH1 0x3 ADD PUSH1 0x0 DUP6 PUSH20 0xFFFFFFFFFFFFFFFFFFFFFFFFFFFFFFFFFFFFFFFF AND PUSH20 0xFFFFFFFFFFFFFFFFFFFFFFFFFFFFFFFFFFFFFFFF AND DUP2 MSTORE PUSH1 0x20 ADD SWAP1 DUP2 MSTORE PUSH1 0x20 ADD PUSH1 0x0 KECCAK256 PUSH1 0x0 PUSH2 0x100 EXP DUP2 SLOAD DUP2 PUSH1 0xFF MUL NOT AND SWAP1 DUP4 ISZERO ISZERO MUL OR SWAP1 SSTORE POP DUP1 PUSH1 0x1 ADD DUP4 SWAP1 DUP1 PUSH1 0x1 DUP2 SLOAD ADD DUP1 DUP3 SSTORE DUP1 SWAP2 POP POP PUSH1 0x1 SWAP1 SUB SWAP1 PUSH1 0x0 MSTORE PUSH1 0x20 PUSH1 0x0 KECCAK256 ADD PUSH1 0x0 SWAP1 SWAP2 SWAP1 SWAP2 SWAP1 SWAP2 PUSH2 0x100 EXP DUP2 SLOAD DUP2 PUSH20 0xFFFFFFFFFFFFFFFFFFFFFFFFFFFFFFFFFFFFFFFF MUL NOT AND SWAP1 DUP4 PUSH20 0xFFFFFFFFFFFFFFFFFFFFFFFFFFFFFFFFFFFFFFFF AND MUL OR SWAP1 SSTORE POP DUP1 PUSH1 0x2 ADD PUSH1 0x4 DUP2 DUP2 SWAP1 SLOAD SWAP1 PUSH2 0x100 EXP SWAP1 DIV PUSH2 0xFFFF AND DUP1 SWAP3 SWAP2 SWAP1 PUSH2 0xC4E SWAP1 PUSH2 0x2035 JUMP JUMPDEST SWAP2 SWAP1 PUSH2 0x100 EXP DUP2 SLOAD DUP2 PUSH2 0xFFFF MUL NOT AND SWAP1 DUP4 PUSH2 0xFFFF AND MUL OR SWAP1 SSTORE POP POP PUSH32 0xC19C59AA93348E8FC54764BC642ECA975E2639F44CC683EF8F027E1529CBDA32 DUP4 PUSH1 0x40 MLOAD PUSH2 0xC98 SWAP2 SWAP1 PUSH2 0x2060 JUMP JUMPDEST PUSH1 0x40 MLOAD DUP1 SWAP2 SUB SWAP1 LOG1 POP POP POP JUMP JUMPDEST PUSH1 0x0 DUP2 DUP1 MLOAD PUSH1 0x20 DUP2 ADD DUP3 ADD DUP1 MLOAD DUP5 DUP3 MSTORE PUSH1 0x20 DUP4 ADD PUSH1 0x20 DUP6 ADD KECCAK256 DUP2 DUP4 MSTORE DUP1 SWAP6 POP POP POP POP POP POP PUSH1 0x0 SWAP2 POP SWAP1 POP DUP1 PUSH1 0x0 ADD PUSH1 0x0 SWAP1 SLOAD SWAP1 PUSH2 0x100 EXP SWAP1 DIV PUSH20 0xFFFFFFFFFFFFFFFFFFFFFFFFFFFFFFFFFFFFFFFF AND SWAP1 DUP1 PUSH1 0x2 ADD PUSH1 0x0 SWAP1 SLOAD SWAP1 PUSH2 0x100 EXP SWAP1 DIV PUSH4 0xFFFFFFFF AND SWAP1 DUP1 PUSH1 0x2 ADD PUSH1 0x4 SWAP1 SLOAD SWAP1 PUSH2 0x100 EXP SWAP1 DIV PUSH2 0xFFFF AND SWAP1 DUP1 PUSH1 0x2 ADD PUSH1 0x6 SWAP1 SLOAD SWAP1 PUSH2 0x100 EXP SWAP1 DIV PUSH1 0xFF AND SWAP1 POP DUP5 JUMP JUMPDEST PUSH1 0x1 PUSH1 0x20 MSTORE DUP1 PUSH1 0x0 MSTORE PUSH1 0x40 PUSH1 0x0 KECCAK256 PUSH1 0x0 SWAP2 POP SWAP1 POP SLOAD DUP2 JUMP JUMPDEST PUSH1 0x0 DUP1 PUSH1 0x0 DUP4 PUSH1 0x40 MLOAD PUSH2 0xD61 SWAP2 SWAP1 PUSH2 0x1C4B JUMP JUMPDEST SWAP1 DUP2 MSTORE PUSH1 0x20 ADD PUSH1 0x40 MLOAD DUP1 SWAP2 SUB SWAP1 KECCAK256 SWAP1 POP DUP1 PUSH1 0x2 ADD PUSH1 0x4 SWAP1 SLOAD SWAP1 PUSH2 0x100 EXP SWAP1 DIV PUSH2 0xFFFF AND PUSH2 0xFFFF AND SWAP2 POP POP SWAP2 SWAP1 POP JUMP JUMPDEST PUSH1 0x60 PUSH1 0x0 DUP1 DUP4 PUSH1 0x40 MLOAD PUSH2 0xDA3 SWAP2 SWAP1 PUSH2 0x1C4B JUMP JUMPDEST SWAP1 DUP2 MSTORE PUSH1 0x20 ADD PUSH1 0x40 MLOAD DUP1 SWAP2 SUB SWAP1 KECCAK256 SWAP1 POP DUP1 PUSH1 0x1 ADD DUP1 SLOAD DUP1 PUSH1 0x20 MUL PUSH1 0x20 ADD PUSH1 0x40 MLOAD SWAP1 DUP2 ADD PUSH1 0x40 MSTORE DUP1 SWAP3 SWAP2 SWAP1 DUP2 DUP2 MSTORE PUSH1 0x20 ADD DUP3 DUP1 SLOAD DUP1 ISZERO PUSH2 0xE37 JUMPI PUSH1 0x20 MUL DUP3 ADD SWAP2 SWAP1 PUSH1 0x0 MSTORE PUSH1 0x20 PUSH1 0x0 KECCAK256 SWAP1 JUMPDEST DUP2 PUSH1 0x0 SWAP1 SLOAD SWAP1 PUSH2 0x100 EXP SWAP1 DIV PUSH20 0xFFFFFFFFFFFFFFFFFFFFFFFFFFFFFFFFFFFFFFFF AND PUSH20 0xFFFFFFFFFFFFFFFFFFFFFFFFFFFFFFFFFFFFFFFF AND DUP2 MSTORE PUSH1 0x20 ADD SWAP1 PUSH1 0x1 ADD SWAP1 DUP1 DUP4 GT PUSH2 0xDED JUMPI JUMPDEST POP POP POP POP POP SWAP2 POP POP SWAP2 SWAP1 POP JUMP JUMPDEST PUSH1 0x0 DUP1 PUSH1 0x0 DUP5 PUSH1 0x40 MLOAD PUSH2 0xE57 SWAP2 SWAP1 PUSH2 0x1C4B JUMP JUMPDEST SWAP1 DUP2 MSTORE PUSH1 0x20 ADD PUSH1 0x40 MLOAD DUP1 SWAP2 SUB SWAP1 KECCAK256 SWAP1 POP DUP1 PUSH1 0x5 ADD PUSH1 0x0 DUP3 PUSH1 0x1 ADD DUP6 DUP2 SLOAD DUP2 LT PUSH2 0xE83 JUMPI PUSH2 0xE82 PUSH2 0x1ED9 JUMP JUMPDEST JUMPDEST SWAP1 PUSH1 0x0 MSTORE PUSH1 0x20 PUSH1 0x0 KECCAK256 ADD PUSH1 0x0 SWAP1 SLOAD SWAP1 PUSH2 0x100 EXP SWAP1 DIV PUSH20 0xFFFFFFFFFFFFFFFFFFFFFFFFFFFFFFFFFFFFFFFF AND PUSH20 0xFFFFFFFFFFFFFFFFFFFFFFFFFFFFFFFFFFFFFFFF AND PUSH20 0xFFFFFFFFFFFFFFFFFFFFFFFFFFFFFFFFFFFFFFFF AND DUP2 MSTORE PUSH1 0x20 ADD SWAP1 DUP2 MSTORE PUSH1 0x20 ADD PUSH1 0x0 KECCAK256 SLOAD SWAP2 POP POP SWAP3 SWAP2 POP POP JUMP JUMPDEST PUSH1 0x0 DUP1 DUP3 PUSH1 0x40 MLOAD PUSH2 0xF03 SWAP2 SWAP1 PUSH2 0x1C4B JUMP JUMPDEST SWAP1 DUP2 MSTORE PUSH1 0x20 ADD PUSH1 0x40 MLOAD DUP1 SWAP2 SUB SWAP1 KECCAK256 SWAP1 POP CALLER PUSH20 0xFFFFFFFFFFFFFFFFFFFFFFFFFFFFFFFFFFFFFFFF AND DUP2 PUSH1 0x0 ADD PUSH1 0x0 SWAP1 SLOAD SWAP1 PUSH2 0x100 EXP SWAP1 DIV PUSH20 0xFFFFFFFFFFFFFFFFFFFFFFFFFFFFFFFFFFFFFFFF AND PUSH20 0xFFFFFFFFFFFFFFFFFFFFFFFFFFFFFFFFFFFFFFFF AND EQ PUSH2 0xFA5 JUMPI PUSH1 0x40 MLOAD PUSH32 0x8C379A000000000000000000000000000000000000000000000000000000000 DUP2 MSTORE PUSH1 0x4 ADD PUSH2 0xF9C SWAP1 PUSH2 0x20C7 JUMP JUMPDEST PUSH1 0x40 MLOAD DUP1 SWAP2 SUB SWAP1 REVERT JUMPDEST DUP1 PUSH1 0x2 ADD PUSH1 0x6 SWAP1 SLOAD SWAP1 PUSH2 0x100 EXP SWAP1 DIV PUSH1 0xFF AND ISZERO DUP2 PUSH1 0x2 ADD PUSH1 0x6 PUSH2 0x100 EXP DUP2 SLOAD DUP2 PUSH1 0xFF MUL NOT AND SWAP1 DUP4 ISZERO ISZERO MUL OR SWAP1 SSTORE POP POP POP JUMP JUMPDEST PUSH1 0x0 DUP1 PUSH1 0x0 DUP1 PUSH1 0x41 DUP6 MLOAD EQ PUSH2 0xFF2 JUMPI PUSH1 0x0 SWAP4 POP POP POP POP PUSH2 0x10CA JUMP JUMPDEST PUSH1 0x20 DUP6 ADD MLOAD SWAP3 POP PUSH1 0x40 DUP6 ADD MLOAD SWAP2 POP PUSH1 0x60 DUP6 ADD MLOAD PUSH1 0x0 BYTE SWAP1 POP PUSH1 0x1B DUP2 PUSH1 0xFF AND LT ISZERO PUSH2 0x1026 JUMPI PUSH1 0x1B DUP2 PUSH2 0x1023 SWAP2 SWAP1 PUSH2 0x20F4 JUMP JUMPDEST SWAP1 POP JUMPDEST PUSH1 0x1B DUP2 PUSH1 0xFF AND EQ ISZERO DUP1 ISZERO PUSH2 0x103E JUMPI POP PUSH1 0x1C DUP2 PUSH1 0xFF AND EQ ISZERO JUMPDEST ISZERO PUSH2 0x104F JUMPI PUSH1 0x0 SWAP4 POP POP POP POP PUSH2 0x10CA JUMP JUMPDEST PUSH1 0x1 DUP7 PUSH1 0x40 MLOAD PUSH1 0x20 ADD PUSH2 0x1062 SWAP2 SWAP1 PUSH2 0x2198 JUMP JUMPDEST PUSH1 0x40 MLOAD PUSH1 0x20 DUP2 DUP4 SUB SUB DUP2 MSTORE SWAP1 PUSH1 0x40 MSTORE DUP1 MLOAD SWAP1 PUSH1 0x20 ADD KECCAK256 DUP3 DUP6 DUP6 PUSH1 0x40 MLOAD PUSH1 0x0 DUP2 MSTORE PUSH1 0x20 ADD PUSH1 0x40 MSTORE PUSH1 0x40 MLOAD PUSH2 0x1098 SWAP5 SWAP4 SWAP3 SWAP2 SWAP1 PUSH2 0x21CD JUMP JUMPDEST PUSH1 0x20 PUSH1 0x40 MLOAD PUSH1 0x20 DUP2 SUB SWAP1 DUP1 DUP5 SUB SWAP1 DUP6 GAS STATICCALL ISZERO DUP1 ISZERO PUSH2 0x10BA JUMPI RETURNDATASIZE PUSH1 0x0 DUP1 RETURNDATACOPY RETURNDATASIZE PUSH1 0x0 REVERT JUMPDEST POP POP POP PUSH1 0x20 PUSH1 0x40 MLOAD SUB MLOAD SWAP4 POP POP POP POP JUMPDEST SWAP3 SWAP2 POP POP JUMP JUMPDEST PUSH1 0x0 DUP1 PUSH1 0x0 DUP5 PUSH1 0x40 MLOAD PUSH2 0x10E3 SWAP2 SWAP1 PUSH2 0x1C4B JUMP JUMPDEST SWAP1 DUP2 MSTORE PUSH1 0x20 ADD PUSH1 0x40 MLOAD DUP1 SWAP2 SUB SWAP1 KECCAK256 SWAP1 POP PUSH1 0x1 DUP2 PUSH1 0x4 ADD PUSH1 0x0 DUP6 PUSH20 0xFFFFFFFFFFFFFFFFFFFFFFFFFFFFFFFFFFFFFFFF AND PUSH20 0xFFFFFFFFFFFFFFFFFFFFFFFFFFFFFFFFFFFFFFFF AND DUP2 MSTORE PUSH1 0x20 ADD SWAP1 DUP2 MSTORE PUSH1 0x20 ADD PUSH1 0x0 KECCAK256 PUSH1 0x0 PUSH2 0x100 EXP DUP2 SLOAD DUP2 PUSH1 0xFF MUL NOT AND SWAP1 DUP4 ISZERO ISZERO MUL OR SWAP1 SSTORE POP DUP1 PUSH1 0x5 ADD PUSH1 0x0 DUP7 PUSH20 0xFFFFFFFFFFFFFFFFFFFFFFFFFFFFFFFFFFFFFFFF AND PUSH20 0xFFFFFFFFFFFFFFFFFFFFFFFFFFFFFFFFFFFFFFFF AND DUP2 MSTORE PUSH1 0x20 ADD SWAP1 DUP2 MSTORE PUSH1 0x20 ADD PUSH1 0x0 KECCAK256 PUSH1 0x0 DUP2 SLOAD DUP1 SWAP3 SWAP2 SWAP1 PUSH2 0x119F SWAP1 PUSH2 0x1D8F JUMP JUMPDEST SWAP2 SWAP1 POP SSTORE POP DUP1 PUSH1 0x5 ADD PUSH1 0x0 DUP7 PUSH20 0xFFFFFFFFFFFFFFFFFFFFFFFFFFFFFFFFFFFFFFFF AND PUSH20 0xFFFFFFFFFFFFFFFFFFFFFFFFFFFFFFFFFFFFFFFF AND DUP2 MSTORE PUSH1 0x20 ADD SWAP1 DUP2 MSTORE PUSH1 0x20 ADD PUSH1 0x0 KECCAK256 SLOAD SWAP2 POP POP SWAP4 SWAP3 POP POP POP JUMP JUMPDEST PUSH1 0x0 PUSH1 0x40 MLOAD SWAP1 POP SWAP1 JUMP JUMPDEST PUSH1 0x0 DUP1 REVERT JUMPDEST PUSH1 0x0 DUP1 REVERT JUMPDEST PUSH1 0x0 PUSH20 0xFFFFFFFFFFFFFFFFFFFFFFFFFFFFFFFFFFFFFFFF DUP3 AND SWAP1 POP SWAP2 SWAP1 POP JUMP JUMPDEST PUSH1 0x0 PUSH2 0x122F DUP3 PUSH2 0x1204 JUMP JUMPDEST SWAP1 POP SWAP2 SWAP1 POP JUMP JUMPDEST PUSH2 0x123F DUP2 PUSH2 0x1224 JUMP JUMPDEST DUP2 EQ PUSH2 0x124A JUMPI PUSH1 0x0 DUP1 REVERT JUMPDEST POP JUMP JUMPDEST PUSH1 0x0 DUP2 CALLDATALOAD SWAP1 POP PUSH2 0x125C DUP2 PUSH2 0x1236 JUMP JUMPDEST SWAP3 SWAP2 POP POP JUMP JUMPDEST PUSH1 0x0 DUP1 REVERT JUMPDEST PUSH1 0x0 DUP1 REVERT JUMPDEST PUSH1 0x0 PUSH1 0x1F NOT PUSH1 0x1F DUP4 ADD AND SWAP1 POP SWAP2 SWAP1 POP JUMP JUMPDEST PUSH32 0x4E487B7100000000000000000000000000000000000000000000000000000000 PUSH1 0x0 MSTORE PUSH1 0x41 PUSH1 0x4 MSTORE PUSH1 0x24 PUSH1 0x0 REVERT JUMPDEST PUSH2 0x12B5 DUP3 PUSH2 0x126C JUMP JUMPDEST DUP2 ADD DUP2 DUP2 LT PUSH8 0xFFFFFFFFFFFFFFFF DUP3 GT OR ISZERO PUSH2 0x12D4 JUMPI PUSH2 0x12D3 PUSH2 0x127D JUMP JUMPDEST JUMPDEST DUP1 PUSH1 0x40 MSTORE POP POP POP JUMP JUMPDEST PUSH1 0x0 PUSH2 0x12E7 PUSH2 0x11F0 JUMP JUMPDEST SWAP1 POP PUSH2 0x12F3 DUP3 DUP3 PUSH2 0x12AC JUMP JUMPDEST SWAP2 SWAP1 POP JUMP JUMPDEST PUSH1 0x0 PUSH8 0xFFFFFFFFFFFFFFFF DUP3 GT ISZERO PUSH2 0x1313 JUMPI PUSH2 0x1312 PUSH2 0x127D JUMP JUMPDEST JUMPDEST PUSH2 0x131C DUP3 PUSH2 0x126C JUMP JUMPDEST SWAP1 POP PUSH1 0x20 DUP2 ADD SWAP1 POP SWAP2 SWAP1 POP JUMP JUMPDEST DUP3 DUP2 DUP4 CALLDATACOPY PUSH1 0x0 DUP4 DUP4 ADD MSTORE POP POP POP JUMP JUMPDEST PUSH1 0x0 PUSH2 0x134B PUSH2 0x1346 DUP5 PUSH2 0x12F8 JUMP JUMPDEST PUSH2 0x12DD JUMP JUMPDEST SWAP1 POP DUP3 DUP2 MSTORE PUSH1 0x20 DUP2 ADD DUP5 DUP5 DUP5 ADD GT ISZERO PUSH2 0x1367 JUMPI PUSH2 0x1366 PUSH2 0x1267 JUMP JUMPDEST JUMPDEST PUSH2 0x1372 DUP5 DUP3 DUP6 PUSH2 0x1329 JUMP JUMPDEST POP SWAP4 SWAP3 POP POP POP JUMP JUMPDEST PUSH1 0x0 DUP3 PUSH1 0x1F DUP4 ADD SLT PUSH2 0x138F JUMPI PUSH2 0x138E PUSH2 0x1262 JUMP JUMPDEST JUMPDEST DUP2 CALLDATALOAD PUSH2 0x139F DUP5 DUP3 PUSH1 0x20 DUP7 ADD PUSH2 0x1338 JUMP JUMPDEST SWAP2 POP POP SWAP3 SWAP2 POP POP JUMP JUMPDEST PUSH1 0x0 DUP2 SWAP1 POP SWAP2 SWAP1 POP JUMP JUMPDEST PUSH2 0x13BB DUP2 PUSH2 0x13A8 JUMP JUMPDEST DUP2 EQ PUSH2 0x13C6 JUMPI PUSH1 0x0 DUP1 REVERT JUMPDEST POP JUMP JUMPDEST PUSH1 0x0 DUP2 CALLDATALOAD SWAP1 POP PUSH2 0x13D8 DUP2 PUSH2 0x13B2 JUMP JUMPDEST SWAP3 SWAP2 POP POP JUMP JUMPDEST PUSH1 0x0 DUP1 PUSH1 0x0 DUP1 PUSH1 0x80 DUP6 DUP8 SUB SLT ISZERO PUSH2 0x13F8 JUMPI PUSH2 0x13F7 PUSH2 0x11FA JUMP JUMPDEST JUMPDEST PUSH1 0x0 PUSH2 0x1406 DUP8 DUP3 DUP9 ADD PUSH2 0x124D JUMP JUMPDEST SWAP5 POP POP PUSH1 0x20 DUP6 ADD CALLDATALOAD PUSH8 0xFFFFFFFFFFFFFFFF DUP2 GT ISZERO PUSH2 0x1427 JUMPI PUSH2 0x1426 PUSH2 0x11FF JUMP JUMPDEST JUMPDEST PUSH2 0x1433 DUP8 DUP3 DUP9 ADD PUSH2 0x137A JUMP JUMPDEST SWAP4 POP POP PUSH1 0x40 PUSH2 0x1444 DUP8 DUP3 DUP9 ADD PUSH2 0x13C9 JUMP JUMPDEST SWAP3 POP POP PUSH1 0x60 PUSH2 0x1455 DUP8 DUP3 DUP9 ADD PUSH2 0x13C9 JUMP JUMPDEST SWAP2 POP POP SWAP3 SWAP6 SWAP2 SWAP5 POP SWAP3 POP JUMP JUMPDEST PUSH1 0x0 DUP2 SWAP1 POP SWAP2 SWAP1 POP JUMP JUMPDEST PUSH2 0x1474 DUP2 PUSH2 0x1461 JUMP JUMPDEST DUP3 MSTORE POP POP JUMP JUMPDEST PUSH1 0x0 PUSH1 0x20 DUP3 ADD SWAP1 POP PUSH2 0x148F PUSH1 0x0 DUP4 ADD DUP5 PUSH2 0x146B JUMP JUMPDEST SWAP3 SWAP2 POP POP JUMP JUMPDEST PUSH1 0x0 PUSH2 0xFFFF DUP3 AND SWAP1 POP SWAP2 SWAP1 POP JUMP JUMPDEST PUSH2 0x14AC DUP2 PUSH2 0x1495 JUMP JUMPDEST DUP2 EQ PUSH2 0x14B7 JUMPI PUSH1 0x0 DUP1 REVERT JUMPDEST POP JUMP JUMPDEST PUSH1 0x0 DUP2 CALLDATALOAD SWAP1 POP PUSH2 0x14C9 DUP2 PUSH2 0x14A3 JUMP JUMPDEST SWAP3 SWAP2 POP POP JUMP JUMPDEST PUSH1 0x0 DUP1 PUSH1 0x40 DUP4 DUP6 SUB SLT ISZERO PUSH2 0x14E6 JUMPI PUSH2 0x14E5 PUSH2 0x11FA JUMP JUMPDEST JUMPDEST PUSH1 0x0 DUP4 ADD CALLDATALOAD PUSH8 0xFFFFFFFFFFFFFFFF DUP2 GT ISZERO PUSH2 0x1504 JUMPI PUSH2 0x1503 PUSH2 0x11FF JUMP JUMPDEST JUMPDEST PUSH2 0x1510 DUP6 DUP3 DUP7 ADD PUSH2 0x137A JUMP JUMPDEST SWAP3 POP POP PUSH1 0x20 PUSH2 0x1521 DUP6 DUP3 DUP7 ADD PUSH2 0x14BA JUMP JUMPDEST SWAP2 POP POP SWAP3 POP SWAP3 SWAP1 POP JUMP JUMPDEST PUSH1 0x0 DUP2 MLOAD SWAP1 POP SWAP2 SWAP1 POP JUMP JUMPDEST PUSH1 0x0 DUP3 DUP3 MSTORE PUSH1 0x20 DUP3 ADD SWAP1 POP SWAP3 SWAP2 POP POP JUMP JUMPDEST PUSH1 0x0 JUMPDEST DUP4 DUP2 LT ISZERO PUSH2 0x1565 JUMPI DUP1 DUP3 ADD MLOAD DUP2 DUP5 ADD MSTORE PUSH1 0x20 DUP2 ADD SWAP1 POP PUSH2 0x154A JUMP JUMPDEST DUP4 DUP2 GT ISZERO PUSH2 0x1574 JUMPI PUSH1 0x0 DUP5 DUP5 ADD MSTORE JUMPDEST POP POP POP POP JUMP JUMPDEST PUSH1 0x0 PUSH2 0x1585 DUP3 PUSH2 0x152B JUMP JUMPDEST PUSH2 0x158F DUP2 DUP6 PUSH2 0x1536 JUMP JUMPDEST SWAP4 POP PUSH2 0x159F DUP2 DUP6 PUSH1 0x20 DUP7 ADD PUSH2 0x1547 JUMP JUMPDEST PUSH2 0x15A8 DUP2 PUSH2 0x126C JUMP JUMPDEST DUP5 ADD SWAP2 POP POP SWAP3 SWAP2 POP POP JUMP JUMPDEST PUSH2 0x15BC DUP2 PUSH2 0x13A8 JUMP JUMPDEST DUP3 MSTORE POP POP JUMP JUMPDEST PUSH1 0x0 PUSH1 0x40 DUP3 ADD SWAP1 POP DUP2 DUP2 SUB PUSH1 0x0 DUP4 ADD MSTORE PUSH2 0x15DC DUP2 DUP6 PUSH2 0x157A JUMP JUMPDEST SWAP1 POP PUSH2 0x15EB PUSH1 0x20 DUP4 ADD DUP5 PUSH2 0x15B3 JUMP JUMPDEST SWAP4 SWAP3 POP POP POP JUMP JUMPDEST PUSH1 0x0 PUSH8 0xFFFFFFFFFFFFFFFF DUP3 GT ISZERO PUSH2 0x160D JUMPI PUSH2 0x160C PUSH2 0x127D JUMP JUMPDEST JUMPDEST PUSH2 0x1616 DUP3 PUSH2 0x126C JUMP JUMPDEST SWAP1 POP PUSH1 0x20 DUP2 ADD SWAP1 POP SWAP2 SWAP1 POP JUMP JUMPDEST PUSH1 0x0 PUSH2 0x1636 PUSH2 0x1631 DUP5 PUSH2 0x15F2 JUMP JUMPDEST PUSH2 0x12DD JUMP JUMPDEST SWAP1 POP DUP3 DUP2 MSTORE PUSH1 0x20 DUP2 ADD DUP5 DUP5 DUP5 ADD GT ISZERO PUSH2 0x1652 JUMPI PUSH2 0x1651 PUSH2 0x1267 JUMP JUMPDEST JUMPDEST PUSH2 0x165D DUP5 DUP3 DUP6 PUSH2 0x1329 JUMP JUMPDEST POP SWAP4 SWAP3 POP POP POP JUMP JUMPDEST PUSH1 0x0 DUP3 PUSH1 0x1F DUP4 ADD SLT PUSH2 0x167A JUMPI PUSH2 0x1679 PUSH2 0x1262 JUMP JUMPDEST JUMPDEST DUP2 CALLDATALOAD PUSH2 0x168A DUP5 DUP3 PUSH1 0x20 DUP7 ADD PUSH2 0x1623 JUMP JUMPDEST SWAP2 POP POP SWAP3 SWAP2 POP POP JUMP JUMPDEST PUSH1 0x0 DUP1 PUSH1 0x0 DUP1 PUSH1 0x80 DUP6 DUP8 SUB SLT ISZERO PUSH2 0x16AD JUMPI PUSH2 0x16AC PUSH2 0x11FA JUMP JUMPDEST JUMPDEST PUSH1 0x0 PUSH2 0x16BB DUP8 DUP3 DUP9 ADD PUSH2 0x124D JUMP JUMPDEST SWAP5 POP POP PUSH1 0x20 DUP6 ADD CALLDATALOAD PUSH8 0xFFFFFFFFFFFFFFFF DUP2 GT ISZERO PUSH2 0x16DC JUMPI PUSH2 0x16DB PUSH2 0x11FF JUMP JUMPDEST JUMPDEST PUSH2 0x16E8 DUP8 DUP3 DUP9 ADD PUSH2 0x137A JUMP JUMPDEST SWAP4 POP POP PUSH1 0x40 PUSH2 0x16F9 DUP8 DUP3 DUP9 ADD PUSH2 0x13C9 JUMP JUMPDEST SWAP3 POP POP PUSH1 0x60 DUP6 ADD CALLDATALOAD PUSH8 0xFFFFFFFFFFFFFFFF DUP2 GT ISZERO PUSH2 0x171A JUMPI PUSH2 0x1719 PUSH2 0x11FF JUMP JUMPDEST JUMPDEST PUSH2 0x1726 DUP8 DUP3 DUP9 ADD PUSH2 0x1665 JUMP JUMPDEST SWAP2 POP POP SWAP3 SWAP6 SWAP2 SWAP5 POP SWAP3 POP JUMP JUMPDEST PUSH1 0x0 PUSH1 0x20 DUP3 DUP5 SUB SLT ISZERO PUSH2 0x1748 JUMPI PUSH2 0x1747 PUSH2 0x11FA JUMP JUMPDEST JUMPDEST PUSH1 0x0 DUP3 ADD CALLDATALOAD PUSH8 0xFFFFFFFFFFFFFFFF DUP2 GT ISZERO PUSH2 0x1766 JUMPI PUSH2 0x1765 PUSH2 0x11FF JUMP JUMPDEST JUMPDEST PUSH2 0x1772 DUP5 DUP3 DUP6 ADD PUSH2 0x137A JUMP JUMPDEST SWAP2 POP POP SWAP3 SWAP2 POP POP JUMP JUMPDEST PUSH1 0x0 DUP2 MLOAD SWAP1 POP SWAP2 SWAP1 POP JUMP JUMPDEST PUSH1 0x0 DUP3 DUP3 MSTORE PUSH1 0x20 DUP3 ADD SWAP1 POP SWAP3 SWAP2 POP POP JUMP JUMPDEST PUSH1 0x0 DUP2 SWAP1 POP PUSH1 0x20 DUP3 ADD SWAP1 POP SWAP2 SWAP1 POP JUMP JUMPDEST PUSH2 0x17B0 DUP2 PUSH2 0x13A8 JUMP JUMPDEST DUP3 MSTORE POP POP JUMP JUMPDEST PUSH1 0x0 PUSH2 0x17C2 DUP4 DUP4 PUSH2 0x17A7 JUMP JUMPDEST PUSH1 0x20 DUP4 ADD SWAP1 POP SWAP3 SWAP2 POP POP JUMP JUMPDEST PUSH1 0x0 PUSH1 0x20 DUP3 ADD SWAP1 POP SWAP2 SWAP1 POP JUMP JUMPDEST PUSH1 0x0 PUSH2 0x17E6 DUP3 PUSH2 0x177B JUMP JUMPDEST PUSH2 0x17F0 DUP2 DUP6 PUSH2 0x1786 JUMP JUMPDEST SWAP4 POP PUSH2 0x17FB DUP4 PUSH2 0x1797 JUMP JUMPDEST DUP1 PUSH1 0x0 JUMPDEST DUP4 DUP2 LT ISZERO PUSH2 0x182C JUMPI DUP2 MLOAD PUSH2 0x1813 DUP9 DUP3 PUSH2 0x17B6 JUMP JUMPDEST SWAP8 POP PUSH2 0x181E DUP4 PUSH2 0x17CE JUMP JUMPDEST SWAP3 POP POP PUSH1 0x1 DUP2 ADD SWAP1 POP PUSH2 0x17FF JUMP JUMPDEST POP DUP6 SWAP4 POP POP POP POP SWAP3 SWAP2 POP POP JUMP JUMPDEST PUSH2 0x1842 DUP2 PUSH2 0x1224 JUMP JUMPDEST DUP3 MSTORE POP POP JUMP JUMPDEST PUSH1 0x0 PUSH1 0x60 DUP3 ADD SWAP1 POP DUP2 DUP2 SUB PUSH1 0x0 DUP4 ADD MSTORE PUSH2 0x1862 DUP2 DUP7 PUSH2 0x17DB JUMP JUMPDEST SWAP1 POP PUSH2 0x1871 PUSH1 0x20 DUP4 ADD DUP6 PUSH2 0x1839 JUMP JUMPDEST PUSH2 0x187E PUSH1 0x40 DUP4 ADD DUP5 PUSH2 0x15B3 JUMP JUMPDEST SWAP5 SWAP4 POP POP POP POP JUMP JUMPDEST PUSH1 0x0 DUP1 PUSH1 0x40 DUP4 DUP6 SUB SLT ISZERO PUSH2 0x189D JUMPI PUSH2 0x189C PUSH2 0x11FA JUMP JUMPDEST JUMPDEST PUSH1 0x0 PUSH2 0x18AB DUP6 DUP3 DUP7 ADD PUSH2 0x124D JUMP JUMPDEST SWAP3 POP POP PUSH1 0x20 DUP4 ADD CALLDATALOAD PUSH8 0xFFFFFFFFFFFFFFFF DUP2 GT ISZERO PUSH2 0x18CC JUMPI PUSH2 0x18CB PUSH2 0x11FF JUMP JUMPDEST JUMPDEST PUSH2 0x18D8 DUP6 DUP3 DUP7 ADD PUSH2 0x137A JUMP JUMPDEST SWAP2 POP POP SWAP3 POP SWAP3 SWAP1 POP JUMP JUMPDEST PUSH1 0x0 PUSH4 0xFFFFFFFF DUP3 AND SWAP1 POP SWAP2 SWAP1 POP JUMP JUMPDEST PUSH2 0x18FB DUP2 PUSH2 0x18E2 JUMP JUMPDEST DUP3 MSTORE POP POP JUMP JUMPDEST PUSH2 0x190A DUP2 PUSH2 0x1495 JUMP JUMPDEST DUP3 MSTORE POP POP JUMP JUMPDEST PUSH1 0x0 DUP2 ISZERO ISZERO SWAP1 POP SWAP2 SWAP1 POP JUMP JUMPDEST PUSH2 0x1925 DUP2 PUSH2 0x1910 JUMP JUMPDEST DUP3 MSTORE POP POP JUMP JUMPDEST PUSH1 0x0 PUSH1 0x80 DUP3 ADD SWAP1 POP PUSH2 0x1940 PUSH1 0x0 DUP4 ADD DUP8 PUSH2 0x1839 JUMP JUMPDEST PUSH2 0x194D PUSH1 0x20 DUP4 ADD DUP7 PUSH2 0x18F2 JUMP JUMPDEST PUSH2 0x195A PUSH1 0x40 DUP4 ADD DUP6 PUSH2 0x1901 JUMP JUMPDEST PUSH2 0x1967 PUSH1 0x60 DUP4 ADD DUP5 PUSH2 0x191C JUMP JUMPDEST SWAP6 SWAP5 POP POP POP POP POP JUMP JUMPDEST PUSH1 0x0 PUSH1 0x20 DUP3 DUP5 SUB SLT ISZERO PUSH2 0x1986 JUMPI PUSH2 0x1985 PUSH2 0x11FA JUMP JUMPDEST JUMPDEST PUSH1 0x0 PUSH2 0x1994 DUP5 DUP3 DUP6 ADD PUSH2 0x124D JUMP JUMPDEST SWAP2 POP POP SWAP3 SWAP2 POP POP JUMP JUMPDEST PUSH1 0x0 PUSH1 0x20 DUP3 ADD SWAP1 POP PUSH2 0x19B2 PUSH1 0x0 DUP4 ADD DUP5 PUSH2 0x15B3 JUMP JUMPDEST SWAP3 SWAP2 POP POP JUMP JUMPDEST PUSH1 0x0 DUP2 MLOAD SWAP1 POP SWAP2 SWAP1 POP JUMP JUMPDEST PUSH1 0x0 DUP3 DUP3 MSTORE PUSH1 0x20 DUP3 ADD SWAP1 POP SWAP3 SWAP2 POP POP JUMP JUMPDEST PUSH1 0x0 DUP2 SWAP1 POP PUSH1 0x20 DUP3 ADD SWAP1 POP SWAP2 SWAP1 POP JUMP JUMPDEST PUSH2 0x19ED DUP2 PUSH2 0x1224 JUMP JUMPDEST DUP3 MSTORE POP POP JUMP JUMPDEST PUSH1 0x0 PUSH2 0x19FF DUP4 DUP4 PUSH2 0x19E4 JUMP JUMPDEST PUSH1 0x20 DUP4 ADD SWAP1 POP SWAP3 SWAP2 POP POP JUMP JUMPDEST PUSH1 0x0 PUSH1 0x20 DUP3 ADD SWAP1 POP SWAP2 SWAP1 POP JUMP JUMPDEST PUSH1 0x0 PUSH2 0x1A23 DUP3 PUSH2 0x19B8 JUMP JUMPDEST PUSH2 0x1A2D DUP2 DUP6 PUSH2 0x19C3 JUMP JUMPDEST SWAP4 POP PUSH2 0x1A38 DUP4 PUSH2 0x19D4 JUMP JUMPDEST DUP1 PUSH1 0x0 JUMPDEST DUP4 DUP2 LT ISZERO PUSH2 0x1A69 JUMPI DUP2 MLOAD PUSH2 0x1A50 DUP9 DUP3 PUSH2 0x19F3 JUMP JUMPDEST SWAP8 POP PUSH2 0x1A5B DUP4 PUSH2 0x1A0B JUMP JUMPDEST SWAP3 POP POP PUSH1 0x1 DUP2 ADD SWAP1 POP PUSH2 0x1A3C JUMP JUMPDEST POP DUP6 SWAP4 POP POP POP POP SWAP3 SWAP2 POP POP JUMP JUMPDEST PUSH1 0x0 PUSH1 0x20 DUP3 ADD SWAP1 POP DUP2 DUP2 SUB PUSH1 0x0 DUP4 ADD MSTORE PUSH2 0x1A90 DUP2 DUP5 PUSH2 0x1A18 JUMP JUMPDEST SWAP1 POP SWAP3 SWAP2 POP POP JUMP JUMPDEST PUSH1 0x0 DUP1 PUSH1 0x40 DUP4 DUP6 SUB SLT ISZERO PUSH2 0x1AAF JUMPI PUSH2 0x1AAE PUSH2 0x11FA JUMP JUMPDEST JUMPDEST PUSH1 0x0 DUP4 ADD CALLDATALOAD PUSH8 0xFFFFFFFFFFFFFFFF DUP2 GT ISZERO PUSH2 0x1ACD JUMPI PUSH2 0x1ACC PUSH2 0x11FF JUMP JUMPDEST JUMPDEST PUSH2 0x1AD9 DUP6 DUP3 DUP7 ADD PUSH2 0x137A JUMP JUMPDEST SWAP3 POP POP PUSH1 0x20 PUSH2 0x1AEA DUP6 DUP3 DUP7 ADD PUSH2 0x13C9 JUMP JUMPDEST SWAP2 POP POP SWAP3 POP SWAP3 SWAP1 POP JUMP JUMPDEST PUSH1 0x0 DUP2 PUSH1 0x60 SHL SWAP1 POP SWAP2 SWAP1 POP JUMP JUMPDEST PUSH1 0x0 PUSH2 0x1B0C DUP3 PUSH2 0x1AF4 JUMP JUMPDEST SWAP1 POP SWAP2 SWAP1 POP JUMP JUMPDEST PUSH1 0x0 PUSH2 0x1B1E DUP3 PUSH2 0x1B01 JUMP JUMPDEST SWAP1 POP SWAP2 SWAP1 POP JUMP JUMPDEST PUSH2 0x1B36 PUSH2 0x1B31 DUP3 PUSH2 0x1224 JUMP JUMPDEST PUSH2 0x1B13 JUMP JUMPDEST DUP3 MSTORE POP POP JUMP JUMPDEST PUSH1 0x0 DUP2 SWAP1 POP SWAP3 SWAP2 POP POP JUMP JUMPDEST PUSH32 0x6D6574617472616E73616374696F6E20566F74696E6720000000000000000000 PUSH1 0x0 DUP3 ADD MSTORE POP JUMP JUMPDEST PUSH1 0x0 PUSH2 0x1B7D PUSH1 0x17 DUP4 PUSH2 0x1B3C JUMP JUMPDEST SWAP2 POP PUSH2 0x1B88 DUP3 PUSH2 0x1B47 JUMP JUMPDEST PUSH1 0x17 DUP3 ADD SWAP1 POP SWAP2 SWAP1 POP JUMP JUMPDEST PUSH1 0x0 PUSH2 0x1B9E DUP3 PUSH2 0x152B JUMP JUMPDEST PUSH2 0x1BA8 DUP2 DUP6 PUSH2 0x1B3C JUMP JUMPDEST SWAP4 POP PUSH2 0x1BB8 DUP2 DUP6 PUSH1 0x20 DUP7 ADD PUSH2 0x1547 JUMP JUMPDEST DUP1 DUP5 ADD SWAP2 POP POP SWAP3 SWAP2 POP POP JUMP JUMPDEST PUSH1 0x0 DUP2 SWAP1 POP SWAP2 SWAP1 POP JUMP JUMPDEST PUSH2 0x1BDF PUSH2 0x1BDA DUP3 PUSH2 0x13A8 JUMP JUMPDEST PUSH2 0x1BC4 JUMP JUMPDEST DUP3 MSTORE POP POP JUMP JUMPDEST PUSH1 0x0 PUSH2 0x1BF1 DUP3 DUP9 PUSH2 0x1B25 JUMP JUMPDEST PUSH1 0x14 DUP3 ADD SWAP2 POP PUSH2 0x1C00 DUP3 PUSH2 0x1B70 JUMP JUMPDEST SWAP2 POP PUSH2 0x1C0C DUP3 DUP8 PUSH2 0x1B25 JUMP JUMPDEST PUSH1 0x14 DUP3 ADD SWAP2 POP PUSH2 0x1C1C DUP3 DUP7 PUSH2 0x1B93 JUMP JUMPDEST SWAP2 POP PUSH2 0x1C28 DUP3 DUP6 PUSH2 0x1BCE JUMP JUMPDEST PUSH1 0x20 DUP3 ADD SWAP2 POP PUSH2 0x1C38 DUP3 DUP5 PUSH2 0x1BCE JUMP JUMPDEST PUSH1 0x20 DUP3 ADD SWAP2 POP DUP2 SWAP1 POP SWAP7 SWAP6 POP POP POP POP POP POP JUMP JUMPDEST PUSH1 0x0 PUSH2 0x1C57 DUP3 DUP5 PUSH2 0x1B93 JUMP JUMPDEST SWAP2 POP DUP2 SWAP1 POP SWAP3 SWAP2 POP POP JUMP JUMPDEST PUSH32 0x54686973206164647265737320646F6573206E6F742065786973742061732061 PUSH1 0x0 DUP3 ADD MSTORE PUSH32 0x2063616E64696461746500000000000000000000000000000000000000000000 PUSH1 0x20 DUP3 ADD MSTORE POP JUMP JUMPDEST PUSH1 0x0 PUSH2 0x1CBE PUSH1 0x2A DUP4 PUSH2 0x1536 JUMP JUMPDEST SWAP2 POP PUSH2 0x1CC9 DUP3 PUSH2 0x1C62 JUMP JUMPDEST PUSH1 0x40 DUP3 ADD SWAP1 POP SWAP2 SWAP1 POP JUMP JUMPDEST PUSH1 0x0 PUSH1 0x20 DUP3 ADD SWAP1 POP DUP2 DUP2 SUB PUSH1 0x0 DUP4 ADD MSTORE PUSH2 0x1CED DUP2 PUSH2 0x1CB1 JUMP JUMPDEST SWAP1 POP SWAP2 SWAP1 POP JUMP JUMPDEST PUSH32 0x766F74696E672068617320656E64656400000000000000000000000000000000 PUSH1 0x0 DUP3 ADD MSTORE POP JUMP JUMPDEST PUSH1 0x0 PUSH2 0x1D2A PUSH1 0x10 DUP4 PUSH2 0x1536 JUMP JUMPDEST SWAP2 POP PUSH2 0x1D35 DUP3 PUSH2 0x1CF4 JUMP JUMPDEST PUSH1 0x20 DUP3 ADD SWAP1 POP SWAP2 SWAP1 POP JUMP JUMPDEST PUSH1 0x0 PUSH1 0x20 DUP3 ADD SWAP1 POP DUP2 DUP2 SUB PUSH1 0x0 DUP4 ADD MSTORE PUSH2 0x1D59 DUP2 PUSH2 0x1D1D JUMP JUMPDEST SWAP1 POP SWAP2 SWAP1 POP JUMP JUMPDEST PUSH32 0x4E487B7100000000000000000000000000000000000000000000000000000000 PUSH1 0x0 MSTORE PUSH1 0x11 PUSH1 0x4 MSTORE PUSH1 0x24 PUSH1 0x0 REVERT JUMPDEST PUSH1 0x0 PUSH2 0x1D9A DUP3 PUSH2 0x13A8 JUMP JUMPDEST SWAP2 POP PUSH32 0xFFFFFFFFFFFFFFFFFFFFFFFFFFFFFFFFFFFFFFFFFFFFFFFFFFFFFFFFFFFFFFFF DUP3 EQ ISZERO PUSH2 0x1DCD JUMPI PUSH2 0x1DCC PUSH2 0x1D60 JUMP JUMPDEST JUMPDEST PUSH1 0x1 DUP3 ADD SWAP1 POP SWAP2 SWAP1 POP JUMP JUMPDEST PUSH32 0x596F7520616C726561647920766F746564000000000000000000000000000000 PUSH1 0x0 DUP3 ADD MSTORE POP JUMP JUMPDEST PUSH1 0x0 PUSH2 0x1E0E PUSH1 0x11 DUP4 PUSH2 0x1536 JUMP JUMPDEST SWAP2 POP PUSH2 0x1E19 DUP3 PUSH2 0x1DD8 JUMP JUMPDEST PUSH1 0x20 DUP3 ADD SWAP1 POP SWAP2 SWAP1 POP JUMP JUMPDEST PUSH1 0x0 PUSH1 0x20 DUP3 ADD SWAP1 POP DUP2 DUP2 SUB PUSH1 0x0 DUP4 ADD MSTORE PUSH2 0x1E3D DUP2 PUSH2 0x1E01 JUMP JUMPDEST SWAP1 POP SWAP2 SWAP1 POP JUMP JUMPDEST PUSH1 0x0 PUSH1 0x40 DUP3 ADD SWAP1 POP PUSH2 0x1E59 PUSH1 0x0 DUP4 ADD DUP6 PUSH2 0x1839 JUMP JUMPDEST PUSH2 0x1E66 PUSH1 0x20 DUP4 ADD DUP5 PUSH2 0x191C JUMP JUMPDEST SWAP4 SWAP3 POP POP POP JUMP JUMPDEST PUSH32 0x4E6F20706F6C6C20637265617465640000000000000000000000000000000000 PUSH1 0x0 DUP3 ADD MSTORE POP JUMP JUMPDEST PUSH1 0x0 PUSH2 0x1EA3 PUSH1 0xF DUP4 PUSH2 0x1536 JUMP JUMPDEST SWAP2 POP PUSH2 0x1EAE DUP3 PUSH2 0x1E6D JUMP JUMPDEST PUSH1 0x20 DUP3 ADD SWAP1 POP SWAP2 SWAP1 POP JUMP JUMPDEST PUSH1 0x0 PUSH1 0x20 DUP3 ADD SWAP1 POP DUP2 DUP2 SUB PUSH1 0x0 DUP4 ADD MSTORE PUSH2 0x1ED2 DUP2 PUSH2 0x1E96 JUMP JUMPDEST SWAP1 POP SWAP2 SWAP1 POP JUMP JUMPDEST PUSH32 0x4E487B7100000000000000000000000000000000000000000000000000000000 PUSH1 0x0 MSTORE PUSH1 0x32 PUSH1 0x4 MSTORE PUSH1 0x24 PUSH1 0x0 REVERT JUMPDEST PUSH32 0x79657420746F20637265617465206120706F6C6C000000000000000000000000 PUSH1 0x0 DUP3 ADD MSTORE POP JUMP JUMPDEST PUSH1 0x0 PUSH2 0x1F3E PUSH1 0x14 DUP4 PUSH2 0x1536 JUMP JUMPDEST SWAP2 POP PUSH2 0x1F49 DUP3 PUSH2 0x1F08 JUMP JUMPDEST PUSH1 0x20 DUP3 ADD SWAP1 POP SWAP2 SWAP1 POP JUMP JUMPDEST PUSH1 0x0 PUSH1 0x20 DUP3 ADD SWAP1 POP DUP2 DUP2 SUB PUSH1 0x0 DUP4 ADD MSTORE PUSH2 0x1F6D DUP2 PUSH2 0x1F31 JUMP JUMPDEST SWAP1 POP SWAP2 SWAP1 POP JUMP JUMPDEST PUSH32 0x4E487B7100000000000000000000000000000000000000000000000000000000 PUSH1 0x0 MSTORE PUSH1 0x1 PUSH1 0x4 MSTORE PUSH1 0x24 PUSH1 0x0 REVERT JUMPDEST PUSH32 0x6D6178696D756D206E6F206F662063616E646964617465207065722073657373 PUSH1 0x0 DUP3 ADD MSTORE PUSH32 0x696F6E2072656769737465726564000000000000000000000000000000000000 PUSH1 0x20 DUP3 ADD MSTORE POP JUMP JUMPDEST PUSH1 0x0 PUSH2 0x1FFF PUSH1 0x2E DUP4 PUSH2 0x1536 JUMP JUMPDEST SWAP2 POP PUSH2 0x200A DUP3 PUSH2 0x1FA3 JUMP JUMPDEST PUSH1 0x40 DUP3 ADD SWAP1 POP SWAP2 SWAP1 POP JUMP JUMPDEST PUSH1 0x0 PUSH1 0x20 DUP3 ADD SWAP1 POP DUP2 DUP2 SUB PUSH1 0x0 DUP4 ADD MSTORE PUSH2 0x202E DUP2 PUSH2 0x1FF2 JUMP JUMPDEST SWAP1 POP SWAP2 SWAP1 POP JUMP JUMPDEST PUSH1 0x0 PUSH2 0x2040 DUP3 PUSH2 0x1495 JUMP JUMPDEST SWAP2 POP PUSH2 0xFFFF DUP3 EQ ISZERO PUSH2 0x2055 JUMPI PUSH2 0x2054 PUSH2 0x1D60 JUMP JUMPDEST JUMPDEST PUSH1 0x1 DUP3 ADD SWAP1 POP SWAP2 SWAP1 POP JUMP JUMPDEST PUSH1 0x0 PUSH1 0x20 DUP3 ADD SWAP1 POP PUSH2 0x2075 PUSH1 0x0 DUP4 ADD DUP5 PUSH2 0x1839 JUMP JUMPDEST SWAP3 SWAP2 POP POP JUMP JUMPDEST PUSH32 0x6E6F74207468652063686169726D616E00000000000000000000000000000000 PUSH1 0x0 DUP3 ADD MSTORE POP JUMP JUMPDEST PUSH1 0x0 PUSH2 0x20B1 PUSH1 0x10 DUP4 PUSH2 0x1536 JUMP JUMPDEST SWAP2 POP PUSH2 0x20BC DUP3 PUSH2 0x207B JUMP JUMPDEST PUSH1 0x20 DUP3 ADD SWAP1 POP SWAP2 SWAP1 POP JUMP JUMPDEST PUSH1 0x0 PUSH1 0x20 DUP3 ADD SWAP1 POP DUP2 DUP2 SUB PUSH1 0x0 DUP4 ADD MSTORE PUSH2 0x20E0 DUP2 PUSH2 0x20A4 JUMP JUMPDEST SWAP1 POP SWAP2 SWAP1 POP JUMP JUMPDEST PUSH1 0x0 PUSH1 0xFF DUP3 AND SWAP1 POP SWAP2 SWAP1 POP JUMP JUMPDEST PUSH1 0x0 PUSH2 0x20FF DUP3 PUSH2 0x20E7 JUMP JUMPDEST SWAP2 POP PUSH2 0x210A DUP4 PUSH2 0x20E7 JUMP JUMPDEST SWAP3 POP DUP3 PUSH1 0xFF SUB DUP3 GT ISZERO PUSH2 0x2120 JUMPI PUSH2 0x211F PUSH2 0x1D60 JUMP JUMPDEST JUMPDEST DUP3 DUP3 ADD SWAP1 POP SWAP3 SWAP2 POP POP JUMP JUMPDEST PUSH32 0x19457468657265756D205369676E6564204D6573736167653A0A333200000000 PUSH1 0x0 DUP3 ADD MSTORE POP JUMP JUMPDEST PUSH1 0x0 PUSH2 0x2161 PUSH1 0x1C DUP4 PUSH2 0x1B3C JUMP JUMPDEST SWAP2 POP PUSH2 0x216C DUP3 PUSH2 0x212B JUMP JUMPDEST PUSH1 0x1C DUP3 ADD SWAP1 POP SWAP2 SWAP1 POP JUMP JUMPDEST PUSH1 0x0 DUP2 SWAP1 POP SWAP2 SWAP1 POP JUMP JUMPDEST PUSH2 0x2192 PUSH2 0x218D DUP3 PUSH2 0x1461 JUMP JUMPDEST PUSH2 0x2177 JUMP JUMPDEST DUP3 MSTORE POP POP JUMP JUMPDEST PUSH1 0x0 PUSH2 0x21A3 DUP3 PUSH2 0x2154 JUMP JUMPDEST SWAP2 POP PUSH2 0x21AF DUP3 DUP5 PUSH2 0x2181 JUMP JUMPDEST PUSH1 0x20 DUP3 ADD SWAP2 POP DUP2 SWAP1 POP SWAP3 SWAP2 POP POP JUMP JUMPDEST PUSH2 0x21C7 DUP2 PUSH2 0x20E7 JUMP JUMPDEST DUP3 MSTORE POP POP JUMP JUMPDEST PUSH1 0x0 PUSH1 0x80 DUP3 ADD SWAP1 POP PUSH2 0x21E2 PUSH1 0x0 DUP4 ADD DUP8 PUSH2 0x146B JUMP JUMPDEST PUSH2 0x21EF PUSH1 0x20 DUP4 ADD DUP7 PUSH2 0x21BE JUMP JUMPDEST PUSH2 0x21FC PUSH1 0x40 DUP4 ADD DUP6 PUSH2 0x146B JUMP JUMPDEST PUSH2 0x2209 PUSH1 0x60 DUP4 ADD DUP5 PUSH2 0x146B JUMP JUMPDEST SWAP6 SWAP5 POP POP POP POP POP JUMP INVALID LOG2 PUSH5 0x6970667358 0x22 SLT KECCAK256 MULMOD LT 0xAB CALLVALUE ORIGIN MUL 0xDA 0xAA 0xC9 RETURNDATACOPY SUB SWAP16 0xF6 0xDC 0xBD JUMP SWAP3 PUSH20 0xDD9D30F29C00D4DA846B47C2D5E564736F6C6343 STOP ADDMOD EXP STOP CALLER "
				},
				"gasEstimates": {
					"creation": {
						"codeDepositCost": "1755200",
						"executionCost": "1848",
						"totalCost": "1757048"
					},
					"external": {
						"AddCandidate(address,string)": "infinite",
						"AllCandidates(string)": "infinite",
						"NoOfRegisteredCandidates(string)": "infinite",
						"createPoll(string,uint16)": "infinite",
						"getUint(string,uint256)": "infinite",
						"metaVotingHash(address,string,uint256,uint256)": "infinite",
						"replayNonce(address)": "2836",
						"revealWinner(string)": "infinite",
						"setVotingState(string)": "infinite",
						"vote(address,string,uint256,bytes)": "infinite",
						"votingPoll(string)": "infinite"
					},
					"internal": {
						"countVote(address,string memory,address)": "infinite",
						"getSigner(bytes32,bytes memory)": "infinite"
					}
				},
				"methodIdentifiers": {
					"AddCandidate(address,string)": "57f53967",
					"AllCandidates(string)": "af7cbc0d",
					"NoOfRegisteredCandidates(string)": "8579cacd",
					"createPoll(string,uint16)": "0968d4b1",
					"getUint(string,uint256)": "bd807c6c",
					"metaVotingHash(address,string,uint256,uint256)": "01ff993b",
					"replayNonce(address)": "67d407df",
					"revealWinner(string)": "4fcf1f39",
					"setVotingState(string)": "f0e4de22",
					"vote(address,string,uint256,bytes)": "12f0da4b",
					"votingPoll(string)": "63ee965a"
				}
			},
			"storageLayout": {
				"storage": [
					{
						"astId": 30,
						"contract": "src/voting.sol:Voting",
						"label": "votingPoll",
						"offset": 0,
						"slot": "0",
						"type": "t_mapping(t_string_memory_ptr,t_struct(VotingPoll)25_storage)"
					},
					{
						"astId": 34,
						"contract": "src/voting.sol:Voting",
						"label": "replayNonce",
						"offset": 0,
						"slot": "1",
						"type": "t_mapping(t_address,t_uint256)"
					}
				],
				"types": {
					"t_address": {
						"encoding": "inplace",
						"label": "address",
						"numberOfBytes": "20"
					},
					"t_array(t_address)dyn_storage": {
						"base": "t_address",
						"encoding": "dynamic_array",
						"label": "address[]",
						"numberOfBytes": "32"
					},
					"t_bool": {
						"encoding": "inplace",
						"label": "bool",
						"numberOfBytes": "1"
					},
					"t_mapping(t_address,t_bool)": {
						"encoding": "mapping",
						"key": "t_address",
						"label": "mapping(address => bool)",
						"numberOfBytes": "32",
						"value": "t_bool"
					},
					"t_mapping(t_address,t_uint256)": {
						"encoding": "mapping",
						"key": "t_address",
						"label": "mapping(address => uint256)",
						"numberOfBytes": "32",
						"value": "t_uint256"
					},
					"t_mapping(t_string_memory_ptr,t_struct(VotingPoll)25_storage)": {
						"encoding": "mapping",
						"key": "t_string_memory_ptr",
						"label": "mapping(string => struct Voting.VotingPoll)",
						"numberOfBytes": "32",
						"value": "t_struct(VotingPoll)25_storage"
					},
					"t_string_memory_ptr": {
						"encoding": "bytes",
						"label": "string",
						"numberOfBytes": "32"
					},
					"t_struct(VotingPoll)25_storage": {
						"encoding": "inplace",
						"label": "struct Voting.VotingPoll",
						"members": [
							{
								"astId": 3,
								"contract": "src/voting.sol:Voting",
								"label": "chairman",
								"offset": 0,
								"slot": "0",
								"type": "t_address"
							},
							{
								"astId": 6,
								"contract": "src/voting.sol:Voting",
								"label": "candidates",
								"offset": 0,
								"slot": "1",
								"type": "t_array(t_address)dyn_storage"
							},
							{
								"astId": 8,
								"contract": "src/voting.sol:Voting",
								"label": "maxNoOfCandidates",
								"offset": 0,
								"slot": "2",
								"type": "t_uint32"
							},
							{
								"astId": 10,
								"contract": "src/voting.sol:Voting",
								"label": "currentNoOfCandidates",
								"offset": 4,
								"slot": "2",
								"type": "t_uint16"
							},
							{
								"astId": 12,
								"contract": "src/voting.sol:Voting",
								"label": "voting",
								"offset": 6,
								"slot": "2",
								"type": "t_bool"
							},
							{
								"astId": 16,
								"contract": "src/voting.sol:Voting",
								"label": "CandidateStatus",
								"offset": 0,
								"slot": "3",
								"type": "t_mapping(t_address,t_bool)"
							},
							{
								"astId": 20,
								"contract": "src/voting.sol:Voting",
								"label": "hasVoted",
								"offset": 0,
								"slot": "4",
								"type": "t_mapping(t_address,t_bool)"
							},
							{
								"astId": 24,
								"contract": "src/voting.sol:Voting",
								"label": "CandidateVote",
								"offset": 0,
								"slot": "5",
								"type": "t_mapping(t_address,t_uint256)"
							}
						],
						"numberOfBytes": "192"
					},
					"t_uint16": {
						"encoding": "inplace",
						"label": "uint16",
						"numberOfBytes": "2"
					},
					"t_uint256": {
						"encoding": "inplace",
						"label": "uint256",
						"numberOfBytes": "32"
					},
					"t_uint32": {
						"encoding": "inplace",
						"label": "uint32",
						"numberOfBytes": "4"
					}
				}
			},
			"userdoc": {
				"kind": "user",
				"methods": {},
				"version": 1
			}
		}
	}
}