{
	"src/voting.sol": {
		"Voting": {
			"abi": [
				{
					"anonymous": false,
					"inputs": [
						{
							"indexed": false,
							"internalType": "address",
							"name": "NewCandidate",
							"type": "address"
						}
					],
					"name": "becameCandidate",
					"type": "event"
				},
				{
					"anonymous": false,
					"inputs": [
						{
							"indexed": false,
							"internalType": "address",
							"name": "_candidate",
							"type": "address"
						},
						{
							"indexed": false,
							"internalType": "bool",
							"name": "status",
							"type": "bool"
						}
					],
					"name": "voted",
					"type": "event"
				},
				{
					"inputs": [
						{
							"internalType": "address",
							"name": "_newCandidate",
							"type": "address"
						},
						{
							"internalType": "string",
							"name": "_name",
							"type": "string"
						}
					],
					"name": "AddCandidate",
					"outputs": [],
					"stateMutability": "nonpayable",
					"type": "function"
				},
				{
					"inputs": [
						{
							"internalType": "string",
							"name": "_name",
							"type": "string"
						}
					],
					"name": "AllCandidates",
					"outputs": [
						{
							"internalType": "address[]",
							"name": "_candidates",
							"type": "address[]"
						}
					],
					"stateMutability": "view",
					"type": "function"
				},
				{
					"inputs": [
						{
							"internalType": "string",
							"name": "_name",
							"type": "string"
						}
					],
					"name": "NoOfRegisteredCandidates",
					"outputs": [
						{
							"internalType": "uint256",
							"name": "",
							"type": "uint256"
						}
					],
					"stateMutability": "view",
					"type": "function"
				},
				{
					"inputs": [
						{
							"internalType": "string",
							"name": "_name",
							"type": "string"
						},
						{
							"internalType": "uint16",
							"name": "ExpectedNoOfCandidate",
							"type": "uint16"
						}
					],
					"name": "createPoll",
					"outputs": [
						{
							"internalType": "string",
							"name": "",
							"type": "string"
						},
						{
							"internalType": "uint256",
							"name": "Candidate",
							"type": "uint256"
						}
					],
					"stateMutability": "nonpayable",
					"type": "function"
				},
				{
					"inputs": [
						{
							"internalType": "address",
							"name": "Cand",
							"type": "address"
						},
						{
							"internalType": "string",
							"name": "_name",
							"type": "string"
						},
						{
							"internalType": "uint256",
							"name": "nonce",
							"type": "uint256"
						},
						{
							"internalType": "uint256",
							"name": "time",
							"type": "uint256"
						}
					],
					"name": "metaVotingHash",
					"outputs": [
						{
							"internalType": "bytes32",
							"name": "",
							"type": "bytes32"
						}
					],
					"stateMutability": "view",
					"type": "function"
				},
				{
					"inputs": [
						{
							"internalType": "address",
							"name": "",
							"type": "address"
						}
					],
					"name": "replayNonce",
					"outputs": [
						{
							"internalType": "uint256",
							"name": "",
							"type": "uint256"
						}
					],
					"stateMutability": "view",
					"type": "function"
				},
				{
					"inputs": [
						{
							"internalType": "string",
							"name": "_name",
							"type": "string"
						}
					],
					"name": "revealWinner",
					"outputs": [
						{
							"internalType": "uint256[]",
							"name": "CV",
							"type": "uint256[]"
						},
						{
							"internalType": "address",
							"name": "",
							"type": "address"
						},
						{
							"internalType": "uint256",
							"name": "",
							"type": "uint256"
						}
					],
					"stateMutability": "view",
					"type": "function"
				},
				{
					"inputs": [
						{
							"internalType": "string",
							"name": "_name",
							"type": "string"
						}
					],
					"name": "setVotingState",
					"outputs": [],
					"stateMutability": "nonpayable",
					"type": "function"
				},
				{
					"inputs": [
						{
							"internalType": "address",
							"name": "Cand",
							"type": "address"
						},
						{
							"internalType": "string",
							"name": "_name",
							"type": "string"
						},
						{
							"internalType": "uint256",
							"name": "nonce",
							"type": "uint256"
						},
						{
							"internalType": "bytes",
							"name": "signature",
							"type": "bytes"
						}
					],
					"name": "vote",
					"outputs": [],
					"stateMutability": "nonpayable",
					"type": "function"
				},
				{
					"inputs": [
						{
							"internalType": "string",
							"name": "",
							"type": "string"
						}
					],
					"name": "votingPoll",
					"outputs": [
						{
							"internalType": "address",
							"name": "chairman",
							"type": "address"
						},
						{
							"internalType": "uint32",
							"name": "maxNoOfCandidates",
							"type": "uint32"
						},
						{
							"internalType": "uint16",
							"name": "currentNoOfCandidates",
							"type": "uint16"
						},
						{
							"internalType": "bool",
							"name": "voting",
							"type": "bool"
						}
					],
					"stateMutability": "view",
					"type": "function"
				},
				{
					"stateMutability": "payable",
					"type": "receive"
				}
			],
			"devdoc": {
				"kind": "dev",
				"methods": {},
				"version": 1
			},
			"evm": {
				"assembly": "    /* \"src/voting.sol\":63:5236  contract Voting{... */\n  mstore(0x40, 0x80)\n  callvalue\n  dup1\n  iszero\n  tag_1\n  jumpi\n  0x00\n  dup1\n  revert\ntag_1:\n  pop\n  dataSize(sub_0)\n  dup1\n  dataOffset(sub_0)\n  0x00\n  codecopy\n  0x00\n  return\nstop\n\nsub_0: assembly {\n        /* \"src/voting.sol\":63:5236  contract Voting{... */\n      mstore(0x40, 0x80)\n      jumpi(tag_1, lt(calldatasize, 0x04))\n      shr(0xe0, calldataload(0x00))\n      dup1\n      0x63ee965a\n      gt\n      tag_13\n      jumpi\n      dup1\n      0x63ee965a\n      eq\n      tag_8\n      jumpi\n      dup1\n      0x67d407df\n      eq\n      tag_9\n      jumpi\n      dup1\n      0x8579cacd\n      eq\n      tag_10\n      jumpi\n      dup1\n      0xaf7cbc0d\n      eq\n      tag_11\n      jumpi\n      dup1\n      0xf0e4de22\n      eq\n      tag_12\n      jumpi\n      jump(tag_2)\n    tag_13:\n      dup1\n      0x01ff993b\n      eq\n      tag_3\n      jumpi\n      dup1\n      0x0968d4b1\n      eq\n      tag_4\n      jumpi\n      dup1\n      0x12f0da4b\n      eq\n      tag_5\n      jumpi\n      dup1\n      0x4fcf1f39\n      eq\n      tag_6\n      jumpi\n      dup1\n      0x57f53967\n      eq\n      tag_7\n      jumpi\n      jump(tag_2)\n    tag_1:\n      jumpi(tag_2, calldatasize)\n      stop\n    tag_2:\n      0x00\n      dup1\n      revert\n        /* \"src/voting.sol\":4387:4615  function metaVotingHash(address Cand, string memory _name, uint256 nonce, uint256 time) public view returns(bytes32){... */\n    tag_3:\n      callvalue\n      dup1\n      iszero\n      tag_16\n      jumpi\n      0x00\n      dup1\n      revert\n    tag_16:\n      pop\n      tag_17\n      0x04\n      dup1\n      calldatasize\n      sub\n      dup2\n      add\n      swap1\n      tag_18\n      swap2\n      swap1\n      tag_19\n      jump\t// in\n    tag_18:\n      tag_20\n      jump\t// in\n    tag_17:\n      mload(0x40)\n      tag_21\n      swap2\n      swap1\n      tag_22\n      jump\t// in\n    tag_21:\n      mload(0x40)\n      dup1\n      swap2\n      sub\n      swap1\n      return\n        /* \"src/voting.sol\":1433:1722  function createPoll(string memory _name, uint16 ExpectedNoOfCandidate) external returns(string memory, uint Candidate){... */\n    tag_4:\n      callvalue\n      dup1\n      iszero\n      tag_23\n      jumpi\n      0x00\n      dup1\n      revert\n    tag_23:\n      pop\n      tag_24\n      0x04\n      dup1\n      calldatasize\n      sub\n      dup2\n      add\n      swap1\n      tag_25\n      swap2\n      swap1\n      tag_26\n      jump\t// in\n    tag_25:\n      tag_27\n      jump\t// in\n    tag_24:\n      mload(0x40)\n      tag_28\n      swap3\n      swap2\n      swap1\n      tag_29\n      jump\t// in\n    tag_28:\n      mload(0x40)\n      dup1\n      swap2\n      sub\n      swap1\n      return\n        /* \"src/voting.sol\":2241:2799  function vote(address Cand, string memory _name , uint256 nonce, bytes memory signature) external  isCandidate(Cand, _name) StillVoting(_name){... */\n    tag_5:\n      callvalue\n      dup1\n      iszero\n      tag_30\n      jumpi\n      0x00\n      dup1\n      revert\n    tag_30:\n      pop\n      tag_31\n      0x04\n      dup1\n      calldatasize\n      sub\n      dup2\n      add\n      swap1\n      tag_32\n      swap2\n      swap1\n      tag_33\n      jump\t// in\n    tag_32:\n      tag_34\n      jump\t// in\n    tag_31:\n      stop\n        /* \"src/voting.sol\":3405:3993  function revealWinner( string memory _name) external view returns ( uint[] memory CV, address, uint){... */\n    tag_6:\n      callvalue\n      dup1\n      iszero\n      tag_35\n      jumpi\n      0x00\n      dup1\n      revert\n    tag_35:\n      pop\n      tag_36\n      0x04\n      dup1\n      calldatasize\n      sub\n      dup2\n      add\n      swap1\n      tag_37\n      swap2\n      swap1\n      tag_38\n      jump\t// in\n    tag_37:\n      tag_39\n      jump\t// in\n    tag_36:\n      mload(0x40)\n      tag_40\n      swap4\n      swap3\n      swap2\n      swap1\n      tag_41\n      jump\t// in\n    tag_40:\n      mload(0x40)\n      dup1\n      swap2\n      sub\n      swap1\n      return\n        /* \"src/voting.sol\":1726:2238  function AddCandidate(address _newCandidate, string memory _name) external{... */\n    tag_7:\n      callvalue\n      dup1\n      iszero\n      tag_42\n      jumpi\n      0x00\n      dup1\n      revert\n    tag_42:\n      pop\n      tag_43\n      0x04\n      dup1\n      calldatasize\n      sub\n      dup2\n      add\n      swap1\n      tag_44\n      swap2\n      swap1\n      tag_45\n      jump\t// in\n    tag_44:\n      tag_46\n      jump\t// in\n    tag_43:\n      stop\n        /* \"src/voting.sol\":621:668  mapping(string => VotingPoll) public votingPoll */\n    tag_8:\n      callvalue\n      dup1\n      iszero\n      tag_47\n      jumpi\n      0x00\n      dup1\n      revert\n    tag_47:\n      pop\n      tag_48\n      0x04\n      dup1\n      calldatasize\n      sub\n      dup2\n      add\n      swap1\n      tag_49\n      swap2\n      swap1\n      tag_38\n      jump\t// in\n    tag_49:\n      tag_50\n      jump\t// in\n    tag_48:\n      mload(0x40)\n      tag_51\n      swap5\n      swap4\n      swap3\n      swap2\n      swap1\n      tag_52\n      jump\t// in\n    tag_51:\n      mload(0x40)\n      dup1\n      swap2\n      sub\n      swap1\n      return\n        /* \"src/voting.sol\":674:721  mapping (address => uint256) public replayNonce */\n    tag_9:\n      callvalue\n      dup1\n      iszero\n      tag_53\n      jumpi\n      0x00\n      dup1\n      revert\n    tag_53:\n      pop\n      tag_54\n      0x04\n      dup1\n      calldatasize\n      sub\n      dup2\n      add\n      swap1\n      tag_55\n      swap2\n      swap1\n      tag_56\n      jump\t// in\n    tag_55:\n      tag_57\n      jump\t// in\n    tag_54:\n      mload(0x40)\n      tag_58\n      swap2\n      swap1\n      tag_59\n      jump\t// in\n    tag_58:\n      mload(0x40)\n      dup1\n      swap2\n      sub\n      swap1\n      return\n        /* \"src/voting.sol\":3050:3221  function NoOfRegisteredCandidates( string memory _name) public view returns(uint){... */\n    tag_10:\n      callvalue\n      dup1\n      iszero\n      tag_60\n      jumpi\n      0x00\n      dup1\n      revert\n    tag_60:\n      pop\n      tag_61\n      0x04\n      dup1\n      calldatasize\n      sub\n      dup2\n      add\n      swap1\n      tag_62\n      swap2\n      swap1\n      tag_38\n      jump\t// in\n    tag_62:\n      tag_63\n      jump\t// in\n    tag_61:\n      mload(0x40)\n      tag_64\n      swap2\n      swap1\n      tag_59\n      jump\t// in\n    tag_64:\n      mload(0x40)\n      dup1\n      swap2\n      sub\n      swap1\n      return\n        /* \"src/voting.sol\":3229:3402  function AllCandidates( string memory _name) public view returns(address[] memory _candidates){... */\n    tag_11:\n      callvalue\n      dup1\n      iszero\n      tag_65\n      jumpi\n      0x00\n      dup1\n      revert\n    tag_65:\n      pop\n      tag_66\n      0x04\n      dup1\n      calldatasize\n      sub\n      dup2\n      add\n      swap1\n      tag_67\n      swap2\n      swap1\n      tag_38\n      jump\t// in\n    tag_67:\n      tag_68\n      jump\t// in\n    tag_66:\n      mload(0x40)\n      tag_69\n      swap2\n      swap1\n      tag_70\n      jump\t// in\n    tag_69:\n      mload(0x40)\n      dup1\n      swap2\n      sub\n      swap1\n      return\n        /* \"src/voting.sol\":3996:4198  function setVotingState( string memory _name) external {... */\n    tag_12:\n      callvalue\n      dup1\n      iszero\n      tag_71\n      jumpi\n      0x00\n      dup1\n      revert\n    tag_71:\n      pop\n      tag_72\n      0x04\n      dup1\n      calldatasize\n      sub\n      dup2\n      add\n      swap1\n      tag_73\n      swap2\n      swap1\n      tag_38\n      jump\t// in\n    tag_73:\n      tag_74\n      jump\t// in\n    tag_72:\n      stop\n        /* \"src/voting.sol\":4387:4615  function metaVotingHash(address Cand, string memory _name, uint256 nonce, uint256 time) public view returns(bytes32){... */\n    tag_20:\n        /* \"src/voting.sol\":4495:4502  bytes32 */\n      0x00\n        /* \"src/voting.sol\":4551:4555  this */\n      address\n        /* \"src/voting.sol\":4584:4588  Cand */\n      dup6\n        /* \"src/voting.sol\":4590:4595  _name */\n      dup6\n        /* \"src/voting.sol\":4597:4602  nonce */\n      dup6\n        /* \"src/voting.sol\":4604:4608  time */\n      dup6\n        /* \"src/voting.sol\":4526:4609  abi.encodePacked(address(this),\"metatransaction Voting \", Cand, _name, nonce, time) */\n      add(0x20, mload(0x40))\n      tag_76\n      swap6\n      swap5\n      swap4\n      swap3\n      swap2\n      swap1\n      tag_77\n      jump\t// in\n    tag_76:\n      mload(0x40)\n      0x20\n      dup2\n      dup4\n      sub\n      sub\n      dup2\n      mstore\n      swap1\n      0x40\n      mstore\n        /* \"src/voting.sol\":4516:4610  keccak256(abi.encodePacked(address(this),\"metatransaction Voting \", Cand, _name, nonce, time)) */\n      dup1\n      mload\n      swap1\n      0x20\n      add\n      keccak256\n        /* \"src/voting.sol\":4509:4610  return keccak256(abi.encodePacked(address(this),\"metatransaction Voting \", Cand, _name, nonce, time)) */\n      swap1\n      pop\n        /* \"src/voting.sol\":4387:4615  function metaVotingHash(address Cand, string memory _name, uint256 nonce, uint256 time) public view returns(bytes32){... */\n      swap5\n      swap4\n      pop\n      pop\n      pop\n      pop\n      jump\t// out\n        /* \"src/voting.sol\":1433:1722  function createPoll(string memory _name, uint16 ExpectedNoOfCandidate) external returns(string memory, uint Candidate){... */\n    tag_27:\n        /* \"src/voting.sol\":1521:1534  string memory */\n      0x60\n        /* \"src/voting.sol\":1536:1550  uint Candidate */\n      0x00\n        /* \"src/voting.sol\":1557:1578  VotingPoll storage VP */\n      dup1\n        /* \"src/voting.sol\":1581:1591  votingPoll */\n      0x00\n        /* \"src/voting.sol\":1592:1597  _name */\n      dup6\n        /* \"src/voting.sol\":1581:1598  votingPoll[_name] */\n      mload(0x40)\n      tag_79\n      swap2\n      swap1\n      tag_80\n      jump\t// in\n    tag_79:\n      swap1\n      dup2\n      mstore\n      0x20\n      add\n      mload(0x40)\n      dup1\n      swap2\n      sub\n      swap1\n      keccak256\n        /* \"src/voting.sol\":1557:1598  VotingPoll storage VP = votingPoll[_name] */\n      swap1\n      pop\n        /* \"src/voting.sol\":1618:1628  msg.sender */\n      caller\n        /* \"src/voting.sol\":1604:1606  VP */\n      dup2\n        /* \"src/voting.sol\":1604:1615  VP.chairman */\n      0x00\n      add\n      0x00\n        /* \"src/voting.sol\":1604:1628  VP.chairman = msg.sender */\n      0x0100\n      exp\n      dup2\n      sload\n      dup2\n      0xffffffffffffffffffffffffffffffffffffffff\n      mul\n      not\n      and\n      swap1\n      dup4\n      0xffffffffffffffffffffffffffffffffffffffff\n      and\n      mul\n      or\n      swap1\n      sstore\n      pop\n        /* \"src/voting.sol\":1656:1677  ExpectedNoOfCandidate */\n      dup4\n        /* \"src/voting.sol\":1634:1677  VP.maxNoOfCandidates =ExpectedNoOfCandidate */\n      0xffff\n      and\n        /* \"src/voting.sol\":1634:1636  VP */\n      dup2\n        /* \"src/voting.sol\":1634:1654  VP.maxNoOfCandidates */\n      0x02\n      add\n      0x00\n        /* \"src/voting.sol\":1634:1677  VP.maxNoOfCandidates =ExpectedNoOfCandidate */\n      0x0100\n      exp\n      dup2\n      sload\n      dup2\n      0xffffffff\n      mul\n      not\n      and\n      swap1\n      dup4\n      0xffffffff\n      and\n      mul\n      or\n      swap1\n      sstore\n      pop\n        /* \"src/voting.sol\":1690:1695  _name */\n      dup5\n        /* \"src/voting.sol\":1697:1718  ExpectedNoOfCandidate */\n      dup5\n        /* \"src/voting.sol\":1683:1719  return(_name, ExpectedNoOfCandidate) */\n      dup1\n      0xffff\n      and\n      swap1\n      pop\n      swap3\n      pop\n      swap3\n      pop\n      pop\n        /* \"src/voting.sol\":1433:1722  function createPoll(string memory _name, uint16 ExpectedNoOfCandidate) external returns(string memory, uint Candidate){... */\n      swap3\n      pop\n      swap3\n      swap1\n      pop\n      jump\t// out\n        /* \"src/voting.sol\":2241:2799  function vote(address Cand, string memory _name , uint256 nonce, bytes memory signature) external  isCandidate(Cand, _name) StillVoting(_name){... */\n    tag_34:\n        /* \"src/voting.sol\":2352:2356  Cand */\n      dup4\n        /* \"src/voting.sol\":2358:2363  _name */\n      dup4\n        /* \"src/voting.sol\":1001:1022  VotingPoll storage VP */\n      0x00\n        /* \"src/voting.sol\":1025:1035  votingPoll */\n      dup1\n        /* \"src/voting.sol\":1036:1041  _name */\n      dup3\n        /* \"src/voting.sol\":1025:1042  votingPoll[_name] */\n      mload(0x40)\n      tag_82\n      swap2\n      swap1\n      tag_80\n      jump\t// in\n    tag_82:\n      swap1\n      dup2\n      mstore\n      0x20\n      add\n      mload(0x40)\n      dup1\n      swap2\n      sub\n      swap1\n      keccak256\n        /* \"src/voting.sol\":1001:1042  VotingPoll storage VP = votingPoll[_name] */\n      swap1\n      pop\n        /* \"src/voting.sol\":1082:1086  true */\n      0x01\n        /* \"src/voting.sol\":1056:1086  VP.CandidateStatus[Cand]==true */\n      iszero\n      iszero\n        /* \"src/voting.sol\":1056:1058  VP */\n      dup2\n        /* \"src/voting.sol\":1056:1074  VP.CandidateStatus */\n      0x03\n      add\n        /* \"src/voting.sol\":1056:1080  VP.CandidateStatus[Cand] */\n      0x00\n        /* \"src/voting.sol\":1075:1079  Cand */\n      dup6\n        /* \"src/voting.sol\":1056:1080  VP.CandidateStatus[Cand] */\n      0xffffffffffffffffffffffffffffffffffffffff\n      and\n      0xffffffffffffffffffffffffffffffffffffffff\n      and\n      dup2\n      mstore\n      0x20\n      add\n      swap1\n      dup2\n      mstore\n      0x20\n      add\n      0x00\n      keccak256\n      0x00\n      swap1\n      sload\n      swap1\n      0x0100\n      exp\n      swap1\n      div\n      0xff\n      and\n        /* \"src/voting.sol\":1056:1086  VP.CandidateStatus[Cand]==true */\n      iszero\n      iszero\n      eq\n        /* \"src/voting.sol\":1048:1132  require(VP.CandidateStatus[Cand]==true,'This address does not exist as a candidate') */\n      tag_83\n      jumpi\n      mload(0x40)\n      0x08c379a000000000000000000000000000000000000000000000000000000000\n      dup2\n      mstore\n      0x04\n      add\n      tag_84\n      swap1\n      tag_85\n      jump\t// in\n    tag_84:\n      mload(0x40)\n      dup1\n      swap2\n      sub\n      swap1\n      revert\n    tag_83:\n        /* \"src/voting.sol\":2377:2382  _name */\n      dup6\n        /* \"src/voting.sol\":1193:1214  VotingPoll storage VP */\n      0x00\n        /* \"src/voting.sol\":1217:1227  votingPoll */\n      dup1\n        /* \"src/voting.sol\":1228:1233  _name */\n      dup3\n        /* \"src/voting.sol\":1217:1234  votingPoll[_name] */\n      mload(0x40)\n      tag_87\n      swap2\n      swap1\n      tag_80\n      jump\t// in\n    tag_87:\n      swap1\n      dup2\n      mstore\n      0x20\n      add\n      mload(0x40)\n      dup1\n      swap2\n      sub\n      swap1\n      keccak256\n        /* \"src/voting.sol\":1193:1234  VotingPoll storage VP = votingPoll[_name] */\n      swap1\n      pop\n        /* \"src/voting.sol\":1261:1265  true */\n      0x01\n        /* \"src/voting.sol\":1248:1265  VP.voting == true */\n      iszero\n      iszero\n        /* \"src/voting.sol\":1248:1250  VP */\n      dup2\n        /* \"src/voting.sol\":1248:1257  VP.voting */\n      0x06\n      add\n      0x00\n      swap1\n      sload\n      swap1\n      0x0100\n      exp\n      swap1\n      div\n      0xff\n      and\n        /* \"src/voting.sol\":1248:1265  VP.voting == true */\n      iszero\n      iszero\n      eq\n        /* \"src/voting.sol\":1240:1286  require(VP.voting == true, \"voting has ended\") */\n      tag_88\n      jumpi\n      mload(0x40)\n      0x08c379a000000000000000000000000000000000000000000000000000000000\n      dup2\n      mstore\n      0x04\n      add\n      tag_89\n      swap1\n      tag_90\n      jump\t// in\n    tag_89:\n      mload(0x40)\n      dup1\n      swap2\n      sub\n      swap1\n      revert\n    tag_88:\n        /* \"src/voting.sol\":2390:2406  bytes32 metaHash */\n      0x00\n        /* \"src/voting.sol\":2409:2457  metaVotingHash(Cand,_name,nonce,block.timestamp) */\n      tag_92\n        /* \"src/voting.sol\":2424:2428  Cand */\n      dup11\n        /* \"src/voting.sol\":2429:2434  _name */\n      dup11\n        /* \"src/voting.sol\":2435:2440  nonce */\n      dup11\n        /* \"src/voting.sol\":2441:2456  block.timestamp */\n      timestamp\n        /* \"src/voting.sol\":2409:2423  metaVotingHash */\n      tag_20\n        /* \"src/voting.sol\":2409:2457  metaVotingHash(Cand,_name,nonce,block.timestamp) */\n      jump\t// in\n    tag_92:\n        /* \"src/voting.sol\":2390:2457  bytes32 metaHash = metaVotingHash(Cand,_name,nonce,block.timestamp) */\n      swap1\n      pop\n        /* \"src/voting.sol\":2464:2478  address signer */\n      0x00\n        /* \"src/voting.sol\":2481:2510  getSigner(metaHash,signature) */\n      tag_93\n        /* \"src/voting.sol\":2491:2499  metaHash */\n      dup3\n        /* \"src/voting.sol\":2500:2509  signature */\n      dup10\n        /* \"src/voting.sol\":2481:2490  getSigner */\n      tag_94\n        /* \"src/voting.sol\":2481:2510  getSigner(metaHash,signature) */\n      jump\t// in\n    tag_93:\n        /* \"src/voting.sol\":2464:2510  address signer = getSigner(metaHash,signature) */\n      swap1\n      pop\n        /* \"src/voting.sol\":2541:2542  0 */\n      0x00\n        /* \"src/voting.sol\":2525:2543  signer!=address(0) */\n      0xffffffffffffffffffffffffffffffffffffffff\n      and\n        /* \"src/voting.sol\":2525:2531  signer */\n      dup2\n        /* \"src/voting.sol\":2525:2543  signer!=address(0) */\n      0xffffffffffffffffffffffffffffffffffffffff\n      and\n      eq\n      iszero\n        /* \"src/voting.sol\":2517:2544  require(signer!=address(0)) */\n      tag_95\n      jumpi\n      0x00\n      dup1\n      revert\n    tag_95:\n        /* \"src/voting.sol\":2567:2578  replayNonce */\n      0x01\n        /* \"src/voting.sol\":2567:2586  replayNonce[signer] */\n      0x00\n        /* \"src/voting.sol\":2579:2585  signer */\n      dup3\n        /* \"src/voting.sol\":2567:2586  replayNonce[signer] */\n      0xffffffffffffffffffffffffffffffffffffffff\n      and\n      0xffffffffffffffffffffffffffffffffffffffff\n      and\n      dup2\n      mstore\n      0x20\n      add\n      swap1\n      dup2\n      mstore\n      0x20\n      add\n      0x00\n      keccak256\n      sload\n        /* \"src/voting.sol\":2558:2563  nonce */\n      dup10\n        /* \"src/voting.sol\":2558:2586  nonce == replayNonce[signer] */\n      eq\n        /* \"src/voting.sol\":2550:2587  require(nonce == replayNonce[signer]) */\n      tag_96\n      jumpi\n      0x00\n      dup1\n      revert\n    tag_96:\n        /* \"src/voting.sol\":2593:2604  replayNonce */\n      0x01\n        /* \"src/voting.sol\":2593:2612  replayNonce[signer] */\n      0x00\n        /* \"src/voting.sol\":2605:2611  signer */\n      dup3\n        /* \"src/voting.sol\":2593:2612  replayNonce[signer] */\n      0xffffffffffffffffffffffffffffffffffffffff\n      and\n      0xffffffffffffffffffffffffffffffffffffffff\n      and\n      dup2\n      mstore\n      0x20\n      add\n      swap1\n      dup2\n      mstore\n      0x20\n      add\n      0x00\n      keccak256\n      0x00\n        /* \"src/voting.sol\":2593:2614  replayNonce[signer]++ */\n      dup2\n      sload\n      dup1\n      swap3\n      swap2\n      swap1\n      tag_97\n      swap1\n      tag_98\n      jump\t// in\n    tag_97:\n      swap2\n      swap1\n      pop\n      sstore\n      pop\n        /* \"src/voting.sol\":2621:2642  VotingPoll storage VP */\n      0x00\n        /* \"src/voting.sol\":2645:2655  votingPoll */\n      dup1\n        /* \"src/voting.sol\":2656:2661  _name */\n      dup12\n        /* \"src/voting.sol\":2645:2662  votingPoll[_name] */\n      mload(0x40)\n      tag_99\n      swap2\n      swap1\n      tag_80\n      jump\t// in\n    tag_99:\n      swap1\n      dup2\n      mstore\n      0x20\n      add\n      mload(0x40)\n      dup1\n      swap2\n      sub\n      swap1\n      keccak256\n        /* \"src/voting.sol\":2621:2662  VotingPoll storage VP = votingPoll[_name] */\n      swap1\n      pop\n        /* \"src/voting.sol\":2700:2705  false */\n      0x00\n        /* \"src/voting.sol\":2677:2705  VP.hasVoted[signer] == false */\n      iszero\n      iszero\n        /* \"src/voting.sol\":2677:2679  VP */\n      dup2\n        /* \"src/voting.sol\":2677:2688  VP.hasVoted */\n      0x04\n      add\n        /* \"src/voting.sol\":2677:2696  VP.hasVoted[signer] */\n      0x00\n        /* \"src/voting.sol\":2689:2695  signer */\n      dup5\n        /* \"src/voting.sol\":2677:2696  VP.hasVoted[signer] */\n      0xffffffffffffffffffffffffffffffffffffffff\n      and\n      0xffffffffffffffffffffffffffffffffffffffff\n      and\n      dup2\n      mstore\n      0x20\n      add\n      swap1\n      dup2\n      mstore\n      0x20\n      add\n      0x00\n      keccak256\n      0x00\n      swap1\n      sload\n      swap1\n      0x0100\n      exp\n      swap1\n      div\n      0xff\n      and\n        /* \"src/voting.sol\":2677:2705  VP.hasVoted[signer] == false */\n      iszero\n      iszero\n      eq\n        /* \"src/voting.sol\":2669:2727  require(VP.hasVoted[signer] == false, \"You already voted\") */\n      tag_100\n      jumpi\n      mload(0x40)\n      0x08c379a000000000000000000000000000000000000000000000000000000000\n      dup2\n      mstore\n      0x04\n      add\n      tag_101\n      swap1\n      tag_102\n      jump\t// in\n    tag_101:\n      mload(0x40)\n      dup1\n      swap2\n      sub\n      swap1\n      revert\n    tag_100:\n        /* \"src/voting.sol\":2735:2765  countVote(Cand, _name, signer) */\n      tag_103\n        /* \"src/voting.sol\":2745:2749  Cand */\n      dup13\n        /* \"src/voting.sol\":2751:2756  _name */\n      dup13\n        /* \"src/voting.sol\":2758:2764  signer */\n      dup5\n        /* \"src/voting.sol\":2735:2744  countVote */\n      tag_104\n        /* \"src/voting.sol\":2735:2765  countVote(Cand, _name, signer) */\n      jump\t// in\n    tag_103:\n      pop\n        /* \"src/voting.sol\":2777:2794  voted(Cand, true) */\n      0xf3f16a15f074b71c5138107dfc7c63b80524d5411cb967caa97d8d9f12b2fd6b\n        /* \"src/voting.sol\":2783:2787  Cand */\n      dup13\n        /* \"src/voting.sol\":2789:2793  true */\n      0x01\n        /* \"src/voting.sol\":2777:2794  voted(Cand, true) */\n      mload(0x40)\n      tag_105\n      swap3\n      swap2\n      swap1\n      tag_106\n      jump\t// in\n    tag_105:\n      mload(0x40)\n      dup1\n      swap2\n      sub\n      swap1\n      log1\n        /* \"src/voting.sol\":2383:2799  {... */\n      pop\n      pop\n      pop\n        /* \"src/voting.sol\":1187:1297  {... */\n      pop\n        /* \"src/voting.sol\":1138:1139  _ */\n      pop\n        /* \"src/voting.sol\":995:1142  {... */\n      pop\n        /* \"src/voting.sol\":2241:2799  function vote(address Cand, string memory _name , uint256 nonce, bytes memory signature) external  isCandidate(Cand, _name) StillVoting(_name){... */\n      pop\n      pop\n      pop\n      pop\n      pop\n      pop\n      jump\t// out\n        /* \"src/voting.sol\":3405:3993  function revealWinner( string memory _name) external view returns ( uint[] memory CV, address, uint){... */\n    tag_39:\n        /* \"src/voting.sol\":3473:3489  uint[] memory CV */\n      0x60\n        /* \"src/voting.sol\":3491:3498  address */\n      0x00\n        /* \"src/voting.sol\":3500:3504  uint */\n      dup1\n        /* \"src/voting.sol\":3512:3533  VotingPoll storage VP */\n      0x00\n        /* \"src/voting.sol\":3536:3546  votingPoll */\n      dup1\n        /* \"src/voting.sol\":3547:3552  _name */\n      dup6\n        /* \"src/voting.sol\":3536:3553  votingPoll[_name] */\n      mload(0x40)\n      tag_108\n      swap2\n      swap1\n      tag_80\n      jump\t// in\n    tag_108:\n      swap1\n      dup2\n      mstore\n      0x20\n      add\n      mload(0x40)\n      dup1\n      swap2\n      sub\n      swap1\n      keccak256\n        /* \"src/voting.sol\":3512:3553  VotingPoll storage VP = votingPoll[_name] */\n      swap1\n      pop\n        /* \"src/voting.sol\":3591:3592  0 */\n      0x00\n        /* \"src/voting.sol\":3568:3593  VP.chairman != address(0) */\n      0xffffffffffffffffffffffffffffffffffffffff\n      and\n        /* \"src/voting.sol\":3568:3570  VP */\n      dup2\n        /* \"src/voting.sol\":3568:3579  VP.chairman */\n      0x00\n      add\n      0x00\n      swap1\n      sload\n      swap1\n      0x0100\n      exp\n      swap1\n      div\n      0xffffffffffffffffffffffffffffffffffffffff\n      and\n        /* \"src/voting.sol\":3568:3593  VP.chairman != address(0) */\n      0xffffffffffffffffffffffffffffffffffffffff\n      and\n      eq\n      iszero\n        /* \"src/voting.sol\":3560:3613  require(VP.chairman != address(0), \"No poll created\") */\n      tag_109\n      jumpi\n      mload(0x40)\n      0x08c379a000000000000000000000000000000000000000000000000000000000\n      dup2\n      mstore\n      0x04\n      add\n      tag_110\n      swap1\n      tag_111\n      jump\t// in\n    tag_110:\n      mload(0x40)\n      dup1\n      swap2\n      sub\n      swap1\n      revert\n    tag_109:\n        /* \"src/voting.sol\":3636:3638  VP */\n      dup1\n        /* \"src/voting.sol\":3636:3649  VP.candidates */\n      0x01\n      add\n        /* \"src/voting.sol\":3636:3656  VP.candidates.length */\n      dup1\n      sload\n      swap1\n      pop\n        /* \"src/voting.sol\":3625:3657  new uint[](VP.candidates.length) */\n      0xffffffffffffffff\n      dup2\n      gt\n      iszero\n      tag_112\n      jumpi\n      tag_113\n      tag_114\n      jump\t// in\n    tag_113:\n    tag_112:\n      mload(0x40)\n      swap1\n      dup1\n      dup3\n      mstore\n      dup1\n      0x20\n      mul\n      0x20\n      add\n      dup3\n      add\n      0x40\n      mstore\n      dup1\n      iszero\n      tag_115\n      jumpi\n      dup2\n      0x20\n      add\n      0x20\n      dup3\n      mul\n      dup1\n      calldatasize\n      dup4\n      calldatacopy\n      dup1\n      dup3\n      add\n      swap2\n      pop\n      pop\n      swap1\n      pop\n    tag_115:\n      pop\n        /* \"src/voting.sol\":3620:3657  CV = new uint[](VP.candidates.length) */\n      swap4\n      pop\n        /* \"src/voting.sol\":3664:3680  uint highestVote */\n      0x00\n        /* \"src/voting.sol\":3687:3701  address winner */\n      dup1\n        /* \"src/voting.sol\":3713:3719  uint i */\n      0x00\n        /* \"src/voting.sol\":3708:3951  for (uint i =0; i <= VP.candidates.length; i++){... */\n    tag_116:\n        /* \"src/voting.sol\":3729:3731  VP */\n      dup4\n        /* \"src/voting.sol\":3729:3742  VP.candidates */\n      0x01\n      add\n        /* \"src/voting.sol\":3729:3749  VP.candidates.length */\n      dup1\n      sload\n      swap1\n      pop\n        /* \"src/voting.sol\":3724:3725  i */\n      dup2\n        /* \"src/voting.sol\":3724:3749  i <= VP.candidates.length */\n      gt\n        /* \"src/voting.sol\":3708:3951  for (uint i =0; i <= VP.candidates.length; i++){... */\n      tag_117\n      jumpi\n        /* \"src/voting.sol\":3764:3772  uint val */\n      0x00\n        /* \"src/voting.sol\":3775:3791  getUint(_name,i) */\n      tag_119\n        /* \"src/voting.sol\":3783:3788  _name */\n      dup10\n        /* \"src/voting.sol\":3789:3790  i */\n      dup4\n        /* \"src/voting.sol\":3775:3782  getUint */\n      tag_120\n        /* \"src/voting.sol\":3775:3791  getUint(_name,i) */\n      jump\t// in\n    tag_119:\n        /* \"src/voting.sol\":3764:3791  uint val = getUint(_name,i) */\n      swap1\n      pop\n        /* \"src/voting.sol\":3807:3818  highestVote */\n      dup4\n        /* \"src/voting.sol\":3801:3804  val */\n      dup2\n        /* \"src/voting.sol\":3801:3818  val > highestVote */\n      gt\n        /* \"src/voting.sol\":3798:3892  if(val > highestVote){... */\n      iszero\n      tag_121\n      jumpi\n        /* \"src/voting.sol\":3844:3847  val */\n      dup1\n        /* \"src/voting.sol\":3830:3847  highestVote = val */\n      swap4\n      pop\n        /* \"src/voting.sol\":3868:3870  VP */\n      dup5\n        /* \"src/voting.sol\":3868:3881  VP.candidates */\n      0x01\n      add\n        /* \"src/voting.sol\":3882:3883  i */\n      dup3\n        /* \"src/voting.sol\":3868:3884  VP.candidates[i] */\n      dup2\n      sload\n      dup2\n      lt\n      tag_122\n      jumpi\n      tag_123\n      tag_124\n      jump\t// in\n    tag_123:\n    tag_122:\n      swap1\n      0x00\n      mstore\n      keccak256(0x00, 0x20)\n      add\n      0x00\n      swap1\n      sload\n      swap1\n      0x0100\n      exp\n      swap1\n      div\n      0xffffffffffffffffffffffffffffffffffffffff\n      and\n        /* \"src/voting.sol\":3859:3884  winner = VP.candidates[i] */\n      swap3\n      pop\n        /* \"src/voting.sol\":3798:3892  if(val > highestVote){... */\n    tag_121:\n        /* \"src/voting.sol\":3907:3909  VP */\n      dup5\n        /* \"src/voting.sol\":3907:3923  VP.CandidateVote */\n      0x05\n      add\n        /* \"src/voting.sol\":3907:3941  VP.CandidateVote[VP.candidates[i]] */\n      0x00\n        /* \"src/voting.sol\":3924:3926  VP */\n      dup7\n        /* \"src/voting.sol\":3924:3937  VP.candidates */\n      0x01\n      add\n        /* \"src/voting.sol\":3938:3939  i */\n      dup5\n        /* \"src/voting.sol\":3924:3940  VP.candidates[i] */\n      dup2\n      sload\n      dup2\n      lt\n      tag_126\n      jumpi\n      tag_127\n      tag_124\n      jump\t// in\n    tag_127:\n    tag_126:\n      swap1\n      0x00\n      mstore\n      keccak256(0x00, 0x20)\n      add\n      0x00\n      swap1\n      sload\n      swap1\n      0x0100\n      exp\n      swap1\n      div\n      0xffffffffffffffffffffffffffffffffffffffff\n      and\n        /* \"src/voting.sol\":3907:3941  VP.CandidateVote[VP.candidates[i]] */\n      0xffffffffffffffffffffffffffffffffffffffff\n      and\n      0xffffffffffffffffffffffffffffffffffffffff\n      and\n      dup2\n      mstore\n      0x20\n      add\n      swap1\n      dup2\n      mstore\n      0x20\n      add\n      0x00\n      keccak256\n      sload\n        /* \"src/voting.sol\":3898:3900  CV */\n      dup9\n        /* \"src/voting.sol\":3901:3902  i */\n      dup4\n        /* \"src/voting.sol\":3898:3903  CV[i] */\n      dup2\n      mload\n      dup2\n      lt\n      tag_129\n      jumpi\n      tag_130\n      tag_124\n      jump\t// in\n    tag_130:\n    tag_129:\n      0x20\n      mul\n      0x20\n      add\n      add\n        /* \"src/voting.sol\":3898:3942  CV[i] = (VP.CandidateVote[VP.candidates[i]]) */\n      dup2\n      dup2\n      mstore\n      pop\n      pop\n        /* \"src/voting.sol\":3755:3951  {... */\n      pop\n        /* \"src/voting.sol\":3751:3754  i++ */\n      dup1\n      dup1\n      tag_131\n      swap1\n      tag_98\n      jump\t// in\n    tag_131:\n      swap2\n      pop\n      pop\n        /* \"src/voting.sol\":3708:3951  for (uint i =0; i <= VP.candidates.length; i++){... */\n      jump(tag_116)\n    tag_117:\n      pop\n        /* \"src/voting.sol\":3965:3967  CV */\n      dup6\n        /* \"src/voting.sol\":3969:3975  winner */\n      dup2\n        /* \"src/voting.sol\":3977:3988  highestVote */\n      dup4\n        /* \"src/voting.sol\":3957:3989  return (CV, winner, highestVote) */\n      swap6\n      pop\n      swap6\n      pop\n      swap6\n      pop\n      pop\n      pop\n      pop\n        /* \"src/voting.sol\":3405:3993  function revealWinner( string memory _name) external view returns ( uint[] memory CV, address, uint){... */\n      swap2\n      swap4\n      swap1\n      swap3\n      pop\n      jump\t// out\n        /* \"src/voting.sol\":1726:2238  function AddCandidate(address _newCandidate, string memory _name) external{... */\n    tag_46:\n        /* \"src/voting.sol\":1807:1828  VotingPoll storage VP */\n      0x00\n        /* \"src/voting.sol\":1831:1841  votingPoll */\n      dup1\n        /* \"src/voting.sol\":1842:1847  _name */\n      dup3\n        /* \"src/voting.sol\":1831:1848  votingPoll[_name] */\n      mload(0x40)\n      tag_133\n      swap2\n      swap1\n      tag_80\n      jump\t// in\n    tag_133:\n      swap1\n      dup2\n      mstore\n      0x20\n      add\n      mload(0x40)\n      dup1\n      swap2\n      sub\n      swap1\n      keccak256\n        /* \"src/voting.sol\":1807:1848  VotingPoll storage VP = votingPoll[_name] */\n      swap1\n      pop\n        /* \"src/voting.sol\":1887:1888  0 */\n      0x00\n        /* \"src/voting.sol\":1864:1889  VP.chairman != address(0) */\n      0xffffffffffffffffffffffffffffffffffffffff\n      and\n        /* \"src/voting.sol\":1864:1866  VP */\n      dup2\n        /* \"src/voting.sol\":1864:1875  VP.chairman */\n      0x00\n      add\n      0x00\n      swap1\n      sload\n      swap1\n      0x0100\n      exp\n      swap1\n      div\n      0xffffffffffffffffffffffffffffffffffffffff\n      and\n        /* \"src/voting.sol\":1864:1889  VP.chairman != address(0) */\n      0xffffffffffffffffffffffffffffffffffffffff\n      and\n      eq\n      iszero\n        /* \"src/voting.sol\":1855:1915  require (VP.chairman != address(0) , \"yet to create a poll\") */\n      tag_134\n      jumpi\n      mload(0x40)\n      0x08c379a000000000000000000000000000000000000000000000000000000000\n      dup2\n      mstore\n      0x04\n      add\n      tag_135\n      swap1\n      tag_136\n      jump\t// in\n    tag_135:\n      mload(0x40)\n      dup1\n      swap2\n      sub\n      swap1\n      revert\n    tag_134:\n        /* \"src/voting.sol\":1946:1956  msg.sender */\n      caller\n        /* \"src/voting.sol\":1931:1956  VP.chairman == msg.sender */\n      0xffffffffffffffffffffffffffffffffffffffff\n      and\n        /* \"src/voting.sol\":1931:1933  VP */\n      dup2\n        /* \"src/voting.sol\":1931:1942  VP.chairman */\n      0x00\n      add\n      0x00\n      swap1\n      sload\n      swap1\n      0x0100\n      exp\n      swap1\n      div\n      0xffffffffffffffffffffffffffffffffffffffff\n      and\n        /* \"src/voting.sol\":1931:1956  VP.chairman == msg.sender */\n      0xffffffffffffffffffffffffffffffffffffffff\n      and\n      eq\n        /* \"src/voting.sol\":1924:1957  assert(VP.chairman == msg.sender) */\n      tag_137\n      jumpi\n      tag_138\n      tag_139\n      jump\t// in\n    tag_138:\n    tag_137:\n        /* \"src/voting.sol\":1999:2001  VP */\n      dup1\n        /* \"src/voting.sol\":1999:2019  VP.maxNoOfCandidates */\n      0x02\n      add\n      0x00\n      swap1\n      sload\n      swap1\n      0x0100\n      exp\n      swap1\n      div\n      0xffffffff\n      and\n        /* \"src/voting.sol\":1972:2019  VP.currentNoOfCandidates < VP.maxNoOfCandidates */\n      0xffffffff\n      and\n        /* \"src/voting.sol\":1972:1974  VP */\n      dup2\n        /* \"src/voting.sol\":1972:1996  VP.currentNoOfCandidates */\n      0x02\n      add\n      0x04\n      swap1\n      sload\n      swap1\n      0x0100\n      exp\n      swap1\n      div\n      0xffff\n      and\n        /* \"src/voting.sol\":1972:2019  VP.currentNoOfCandidates < VP.maxNoOfCandidates */\n      0xffff\n      and\n      lt\n        /* \"src/voting.sol\":1964:2070  require(VP.currentNoOfCandidates < VP.maxNoOfCandidates, \"maximum no of candidate per session registered\") */\n      tag_140\n      jumpi\n      mload(0x40)\n      0x08c379a000000000000000000000000000000000000000000000000000000000\n      dup2\n      mstore\n      0x04\n      add\n      tag_141\n      swap1\n      tag_142\n      jump\t// in\n    tag_141:\n      mload(0x40)\n      dup1\n      swap2\n      sub\n      swap1\n      revert\n    tag_140:\n        /* \"src/voting.sol\":2113:2117  true */\n      0x01\n        /* \"src/voting.sol\":2077:2079  VP */\n      dup2\n        /* \"src/voting.sol\":2077:2095  VP.CandidateStatus */\n      0x03\n      add\n        /* \"src/voting.sol\":2077:2110  VP.CandidateStatus[_newCandidate] */\n      0x00\n        /* \"src/voting.sol\":2096:2109  _newCandidate */\n      dup6\n        /* \"src/voting.sol\":2077:2110  VP.CandidateStatus[_newCandidate] */\n      0xffffffffffffffffffffffffffffffffffffffff\n      and\n      0xffffffffffffffffffffffffffffffffffffffff\n      and\n      dup2\n      mstore\n      0x20\n      add\n      swap1\n      dup2\n      mstore\n      0x20\n      add\n      0x00\n      keccak256\n      0x00\n        /* \"src/voting.sol\":2077:2117  VP.CandidateStatus[_newCandidate] = true */\n      0x0100\n      exp\n      dup2\n      sload\n      dup2\n      0xff\n      mul\n      not\n      and\n      swap1\n      dup4\n      iszero\n      iszero\n      mul\n      or\n      swap1\n      sstore\n      pop\n        /* \"src/voting.sol\":2125:2127  VP */\n      dup1\n        /* \"src/voting.sol\":2125:2138  VP.candidates */\n      0x01\n      add\n        /* \"src/voting.sol\":2144:2157  _newCandidate */\n      dup4\n        /* \"src/voting.sol\":2125:2158  VP.candidates.push(_newCandidate) */\n      swap1\n      dup1\n      0x01\n      dup2\n      sload\n      add\n      dup1\n      dup3\n      sstore\n      dup1\n      swap2\n      pop\n      pop\n      0x01\n      swap1\n      sub\n      swap1\n      0x00\n      mstore\n      keccak256(0x00, 0x20)\n      add\n      0x00\n      swap1\n      swap2\n      swap1\n      swap2\n      swap1\n      swap2\n      0x0100\n      exp\n      dup2\n      sload\n      dup2\n      0xffffffffffffffffffffffffffffffffffffffff\n      mul\n      not\n      and\n      swap1\n      dup4\n      0xffffffffffffffffffffffffffffffffffffffff\n      and\n      mul\n      or\n      swap1\n      sstore\n      pop\n        /* \"src/voting.sol\":2166:2168  VP */\n      dup1\n        /* \"src/voting.sol\":2166:2190  VP.currentNoOfCandidates */\n      0x02\n      add\n      0x04\n        /* \"src/voting.sol\":2166:2192  VP.currentNoOfCandidates++ */\n      dup2\n      dup2\n      swap1\n      sload\n      swap1\n      0x0100\n      exp\n      swap1\n      div\n      0xffff\n      and\n      dup1\n      swap3\n      swap2\n      swap1\n      tag_144\n      swap1\n      tag_145\n      jump\t// in\n    tag_144:\n      swap2\n      swap1\n      0x0100\n      exp\n      dup2\n      sload\n      dup2\n      0xffff\n      mul\n      not\n      and\n      swap1\n      dup4\n      0xffff\n      and\n      mul\n      or\n      swap1\n      sstore\n      pop\n      pop\n        /* \"src/voting.sol\":2204:2234  becameCandidate(_newCandidate) */\n      0xc19c59aa93348e8fc54764bc642eca975e2639f44cc683ef8f027e1529cbda32\n        /* \"src/voting.sol\":2220:2233  _newCandidate */\n      dup4\n        /* \"src/voting.sol\":2204:2234  becameCandidate(_newCandidate) */\n      mload(0x40)\n      tag_146\n      swap2\n      swap1\n      tag_147\n      jump\t// in\n    tag_146:\n      mload(0x40)\n      dup1\n      swap2\n      sub\n      swap1\n      log1\n        /* \"src/voting.sol\":1800:2238  {... */\n      pop\n        /* \"src/voting.sol\":1726:2238  function AddCandidate(address _newCandidate, string memory _name) external{... */\n      pop\n      pop\n      jump\t// out\n        /* \"src/voting.sol\":621:668  mapping(string => VotingPoll) public votingPoll */\n    tag_50:\n      0x00\n      dup2\n      dup1\n      mload\n      0x20\n      dup2\n      add\n      dup3\n      add\n      dup1\n      mload\n      dup5\n      dup3\n      mstore\n      0x20\n      dup4\n      add\n      0x20\n      dup6\n      add\n      keccak256\n      dup2\n      dup4\n      mstore\n      dup1\n      swap6\n      pop\n      pop\n      pop\n      pop\n      pop\n      pop\n      0x00\n      swap2\n      pop\n      swap1\n      pop\n      dup1\n      0x00\n      add\n      0x00\n      swap1\n      sload\n      swap1\n      0x0100\n      exp\n      swap1\n      div\n      0xffffffffffffffffffffffffffffffffffffffff\n      and\n      swap1\n      dup1\n      0x02\n      add\n      0x00\n      swap1\n      sload\n      swap1\n      0x0100\n      exp\n      swap1\n      div\n      0xffffffff\n      and\n      swap1\n      dup1\n      0x02\n      add\n      0x04\n      swap1\n      sload\n      swap1\n      0x0100\n      exp\n      swap1\n      div\n      0xffff\n      and\n      swap1\n      dup1\n      0x06\n      add\n      0x00\n      swap1\n      sload\n      swap1\n      0x0100\n      exp\n      swap1\n      div\n      0xff\n      and\n      swap1\n      pop\n      dup5\n      jump\t// out\n        /* \"src/voting.sol\":674:721  mapping (address => uint256) public replayNonce */\n    tag_57:\n      mstore(0x20, 0x01)\n      dup1\n      0x00\n      mstore\n      keccak256(0x00, 0x40)\n      0x00\n      swap2\n      pop\n      swap1\n      pop\n      sload\n      dup2\n      jump\t// out\n        /* \"src/voting.sol\":3050:3221  function NoOfRegisteredCandidates( string memory _name) public view returns(uint){... */\n    tag_63:\n        /* \"src/voting.sol\":3126:3130  uint */\n      0x00\n        /* \"src/voting.sol\":3138:3159  VotingPoll storage VP */\n      dup1\n        /* \"src/voting.sol\":3162:3172  votingPoll */\n      0x00\n        /* \"src/voting.sol\":3173:3178  _name */\n      dup4\n        /* \"src/voting.sol\":3162:3179  votingPoll[_name] */\n      mload(0x40)\n      tag_149\n      swap2\n      swap1\n      tag_80\n      jump\t// in\n    tag_149:\n      swap1\n      dup2\n      mstore\n      0x20\n      add\n      mload(0x40)\n      dup1\n      swap2\n      sub\n      swap1\n      keccak256\n        /* \"src/voting.sol\":3138:3179  VotingPoll storage VP = votingPoll[_name] */\n      swap1\n      pop\n        /* \"src/voting.sol\":3193:3195  VP */\n      dup1\n        /* \"src/voting.sol\":3193:3217  VP.currentNoOfCandidates */\n      0x02\n      add\n      0x04\n      swap1\n      sload\n      swap1\n      0x0100\n      exp\n      swap1\n      div\n      0xffff\n      and\n        /* \"src/voting.sol\":3186:3217  return VP.currentNoOfCandidates */\n      0xffff\n      and\n      swap2\n      pop\n      pop\n        /* \"src/voting.sol\":3050:3221  function NoOfRegisteredCandidates( string memory _name) public view returns(uint){... */\n      swap2\n      swap1\n      pop\n      jump\t// out\n        /* \"src/voting.sol\":3229:3402  function AllCandidates( string memory _name) public view returns(address[] memory _candidates){... */\n    tag_68:\n        /* \"src/voting.sol\":3294:3322  address[] memory _candidates */\n      0x60\n        /* \"src/voting.sol\":3330:3351  VotingPoll storage VP */\n      0x00\n        /* \"src/voting.sol\":3354:3364  votingPoll */\n      dup1\n        /* \"src/voting.sol\":3365:3370  _name */\n      dup4\n        /* \"src/voting.sol\":3354:3371  votingPoll[_name] */\n      mload(0x40)\n      tag_151\n      swap2\n      swap1\n      tag_80\n      jump\t// in\n    tag_151:\n      swap1\n      dup2\n      mstore\n      0x20\n      add\n      mload(0x40)\n      dup1\n      swap2\n      sub\n      swap1\n      keccak256\n        /* \"src/voting.sol\":3330:3371  VotingPoll storage VP = votingPoll[_name] */\n      swap1\n      pop\n        /* \"src/voting.sol\":3385:3387  VP */\n      dup1\n        /* \"src/voting.sol\":3385:3398  VP.candidates */\n      0x01\n      add\n        /* \"src/voting.sol\":3378:3398  return VP.candidates */\n      dup1\n      sload\n      dup1\n      0x20\n      mul\n      0x20\n      add\n      mload(0x40)\n      swap1\n      dup2\n      add\n      0x40\n      mstore\n      dup1\n      swap3\n      swap2\n      swap1\n      dup2\n      dup2\n      mstore\n      0x20\n      add\n      dup3\n      dup1\n      sload\n      dup1\n      iszero\n      tag_152\n      jumpi\n      0x20\n      mul\n      dup3\n      add\n      swap2\n      swap1\n      0x00\n      mstore\n      keccak256(0x00, 0x20)\n      swap1\n    tag_153:\n      dup2\n      0x00\n      swap1\n      sload\n      swap1\n      0x0100\n      exp\n      swap1\n      div\n      0xffffffffffffffffffffffffffffffffffffffff\n      and\n      0xffffffffffffffffffffffffffffffffffffffff\n      and\n      dup2\n      mstore\n      0x20\n      add\n      swap1\n      0x01\n      add\n      swap1\n      dup1\n      dup4\n      gt\n      tag_153\n      jumpi\n    tag_152:\n      pop\n      pop\n      pop\n      pop\n      pop\n      swap2\n      pop\n      pop\n        /* \"src/voting.sol\":3229:3402  function AllCandidates( string memory _name) public view returns(address[] memory _candidates){... */\n      swap2\n      swap1\n      pop\n      jump\t// out\n        /* \"src/voting.sol\":3996:4198  function setVotingState( string memory _name) external {... */\n    tag_74:\n        /* \"src/voting.sol\":4057:4078  VotingPoll storage VP */\n      0x00\n        /* \"src/voting.sol\":4081:4091  votingPoll */\n      dup1\n        /* \"src/voting.sol\":4092:4097  _name */\n      dup3\n        /* \"src/voting.sol\":4081:4098  votingPoll[_name] */\n      mload(0x40)\n      tag_155\n      swap2\n      swap1\n      tag_80\n      jump\t// in\n    tag_155:\n      swap1\n      dup2\n      mstore\n      0x20\n      add\n      mload(0x40)\n      dup1\n      swap2\n      sub\n      swap1\n      keccak256\n        /* \"src/voting.sol\":4057:4098  VotingPoll storage VP = votingPoll[_name] */\n      swap1\n      pop\n        /* \"src/voting.sol\":4127:4137  msg.sender */\n      caller\n        /* \"src/voting.sol\":4112:4137  VP.chairman == msg.sender */\n      0xffffffffffffffffffffffffffffffffffffffff\n      and\n        /* \"src/voting.sol\":4112:4114  VP */\n      dup2\n        /* \"src/voting.sol\":4112:4123  VP.chairman */\n      0x00\n      add\n      0x00\n      swap1\n      sload\n      swap1\n      0x0100\n      exp\n      swap1\n      div\n      0xffffffffffffffffffffffffffffffffffffffff\n      and\n        /* \"src/voting.sol\":4112:4137  VP.chairman == msg.sender */\n      0xffffffffffffffffffffffffffffffffffffffff\n      and\n      eq\n        /* \"src/voting.sol\":4104:4158  require(VP.chairman == msg.sender, \"not the chairman\") */\n      tag_156\n      jumpi\n      mload(0x40)\n      0x08c379a000000000000000000000000000000000000000000000000000000000\n      dup2\n      mstore\n      0x04\n      add\n      tag_157\n      swap1\n      tag_158\n      jump\t// in\n    tag_157:\n      mload(0x40)\n      dup1\n      swap2\n      sub\n      swap1\n      revert\n    tag_156:\n        /* \"src/voting.sol\":4184:4186  VP */\n      dup1\n        /* \"src/voting.sol\":4184:4193  VP.voting */\n      0x06\n      add\n      0x00\n      swap1\n      sload\n      swap1\n      0x0100\n      exp\n      swap1\n      div\n      0xff\n      and\n        /* \"src/voting.sol\":4182:4194  !(VP.voting) */\n      iszero\n        /* \"src/voting.sol\":4170:4172  VP */\n      dup2\n        /* \"src/voting.sol\":4170:4179  VP.voting */\n      0x06\n      add\n      0x00\n        /* \"src/voting.sol\":4170:4194  VP.voting = !(VP.voting) */\n      0x0100\n      exp\n      dup2\n      sload\n      dup2\n      0xff\n      mul\n      not\n      and\n      swap1\n      dup4\n      iszero\n      iszero\n      mul\n      or\n      swap1\n      sstore\n      pop\n        /* \"src/voting.sol\":4051:4198  {... */\n      pop\n        /* \"src/voting.sol\":3996:4198  function setVotingState( string memory _name) external {... */\n      pop\n      jump\t// out\n        /* \"src/voting.sol\":4619:5201  function getSigner(bytes32 _hash, bytes memory _signature) internal pure returns (address){... */\n    tag_94:\n        /* \"src/voting.sol\":4701:4708  address */\n      0x00\n        /* \"src/voting.sol\":4715:4724  bytes32 r */\n      dup1\n        /* \"src/voting.sol\":4730:4739  bytes32 s */\n      0x00\n        /* \"src/voting.sol\":4745:4752  uint8 v */\n      dup1\n        /* \"src/voting.sol\":4783:4785  65 */\n      0x41\n        /* \"src/voting.sol\":4762:4772  _signature */\n      dup6\n        /* \"src/voting.sol\":4762:4779  _signature.length */\n      mload\n        /* \"src/voting.sol\":4762:4785  _signature.length != 65 */\n      eq\n        /* \"src/voting.sol\":4758:4819  if (_signature.length != 65) {... */\n      tag_160\n      jumpi\n        /* \"src/voting.sol\":4810:4811  0 */\n      0x00\n        /* \"src/voting.sol\":4795:4812  return address(0) */\n      swap4\n      pop\n      pop\n      pop\n      pop\n      jump(tag_159)\n        /* \"src/voting.sol\":4758:4819  if (_signature.length != 65) {... */\n    tag_160:\n        /* \"src/voting.sol\":4868:4870  32 */\n      0x20\n        /* \"src/voting.sol\":4856:4866  _signature */\n      dup6\n        /* \"src/voting.sol\":4852:4871  add(_signature, 32) */\n      add\n        /* \"src/voting.sol\":4846:4872  mload(add(_signature, 32)) */\n      mload\n        /* \"src/voting.sol\":4841:4872  r := mload(add(_signature, 32)) */\n      swap3\n      pop\n        /* \"src/voting.sol\":4906:4908  64 */\n      0x40\n        /* \"src/voting.sol\":4894:4904  _signature */\n      dup6\n        /* \"src/voting.sol\":4890:4909  add(_signature, 64) */\n      add\n        /* \"src/voting.sol\":4884:4910  mload(add(_signature, 64)) */\n      mload\n        /* \"src/voting.sol\":4879:4910  s := mload(add(_signature, 64)) */\n      swap2\n      pop\n        /* \"src/voting.sol\":4952:4954  96 */\n      0x60\n        /* \"src/voting.sol\":4940:4950  _signature */\n      dup6\n        /* \"src/voting.sol\":4936:4955  add(_signature, 96) */\n      add\n        /* \"src/voting.sol\":4930:4956  mload(add(_signature, 96)) */\n      mload\n        /* \"src/voting.sol\":4927:4928  0 */\n      0x00\n        /* \"src/voting.sol\":4922:4957  byte(0, mload(add(_signature, 96))) */\n      byte\n        /* \"src/voting.sol\":4917:4957  v := byte(0, mload(add(_signature, 96))) */\n      swap1\n      pop\n        /* \"src/voting.sol\":4976:4978  27 */\n      0x1b\n        /* \"src/voting.sol\":4972:4973  v */\n      dup2\n        /* \"src/voting.sol\":4972:4978  v < 27 */\n      0xff\n      and\n      lt\n        /* \"src/voting.sol\":4968:5002  if (v < 27) {... */\n      iszero\n      tag_161\n      jumpi\n        /* \"src/voting.sol\":4993:4995  27 */\n      0x1b\n        /* \"src/voting.sol\":4988:4995  v += 27 */\n      dup2\n      tag_162\n      swap2\n      swap1\n      tag_163\n      jump\t// in\n    tag_162:\n      swap1\n      pop\n        /* \"src/voting.sol\":4968:5002  if (v < 27) {... */\n    tag_161:\n        /* \"src/voting.sol\":5016:5018  27 */\n      0x1b\n        /* \"src/voting.sol\":5011:5012  v */\n      dup2\n        /* \"src/voting.sol\":5011:5018  v != 27 */\n      0xff\n      and\n      eq\n      iszero\n        /* \"src/voting.sol\":5011:5029  v != 27 && v != 28 */\n      dup1\n      iszero\n      tag_164\n      jumpi\n      pop\n        /* \"src/voting.sol\":5027:5029  28 */\n      0x1c\n        /* \"src/voting.sol\":5022:5023  v */\n      dup2\n        /* \"src/voting.sol\":5022:5029  v != 28 */\n      0xff\n      and\n      eq\n      iszero\n        /* \"src/voting.sol\":5011:5029  v != 27 && v != 28 */\n    tag_164:\n        /* \"src/voting.sol\":5007:5197  if (v != 27 && v != 28) {... */\n      iszero\n      tag_165\n      jumpi\n        /* \"src/voting.sol\":5054:5055  0 */\n      0x00\n        /* \"src/voting.sol\":5039:5056  return address(0) */\n      swap4\n      pop\n      pop\n      pop\n      pop\n      jump(tag_159)\n        /* \"src/voting.sol\":5007:5197  if (v != 27 && v != 28) {... */\n    tag_165:\n        /* \"src/voting.sol\":5084:5190  ecrecover(keccak256(... */\n      0x01\n        /* \"src/voting.sol\":5166:5171  _hash */\n      dup7\n        /* \"src/voting.sol\":5113:5172  abi.encodePacked(\"\\x19Ethereum Signed Message:\\n32\", _hash) */\n      add(0x20, mload(0x40))\n      tag_167\n      swap2\n      swap1\n      tag_168\n      jump\t// in\n    tag_167:\n      mload(0x40)\n      0x20\n      dup2\n      dup4\n      sub\n      sub\n      dup2\n      mstore\n      swap1\n      0x40\n      mstore\n        /* \"src/voting.sol\":5094:5180  keccak256(... */\n      dup1\n      mload\n      swap1\n      0x20\n      add\n      keccak256\n        /* \"src/voting.sol\":5182:5183  v */\n      dup3\n        /* \"src/voting.sol\":5185:5186  r */\n      dup6\n        /* \"src/voting.sol\":5188:5189  s */\n      dup6\n        /* \"src/voting.sol\":5084:5190  ecrecover(keccak256(... */\n      mload(0x40)\n      0x00\n      dup2\n      mstore\n      0x20\n      add\n      0x40\n      mstore\n      mload(0x40)\n      tag_169\n      swap5\n      swap4\n      swap3\n      swap2\n      swap1\n      tag_170\n      jump\t// in\n    tag_169:\n      0x20\n      mload(0x40)\n      0x20\n      dup2\n      sub\n      swap1\n      dup1\n      dup5\n      sub\n      swap1\n      dup6\n      gas\n      staticcall\n      iszero\n      dup1\n      iszero\n      tag_172\n      jumpi\n      returndatasize\n      0x00\n      dup1\n      returndatacopy\n      revert(0x00, returndatasize)\n    tag_172:\n      pop\n      pop\n      pop\n      mload(sub(mload(0x40), 0x20))\n        /* \"src/voting.sol\":5077:5190  return ecrecover(keccak256(... */\n      swap4\n      pop\n      pop\n      pop\n      pop\n        /* \"src/voting.sol\":4619:5201  function getSigner(bytes32 _hash, bytes memory _signature) internal pure returns (address){... */\n    tag_159:\n      swap3\n      swap2\n      pop\n      pop\n      jump\t// out\n        /* \"src/voting.sol\":2802:3047  function countVote(address Cand, string memory _name, address signer) internal returns(uint){... */\n    tag_104:\n        /* \"src/voting.sol\":2889:2893  uint */\n      0x00\n        /* \"src/voting.sol\":2901:2922  VotingPoll storage VP */\n      dup1\n        /* \"src/voting.sol\":2925:2935  votingPoll */\n      0x00\n        /* \"src/voting.sol\":2936:2941  _name */\n      dup5\n        /* \"src/voting.sol\":2925:2942  votingPoll[_name] */\n      mload(0x40)\n      tag_174\n      swap2\n      swap1\n      tag_80\n      jump\t// in\n    tag_174:\n      swap1\n      dup2\n      mstore\n      0x20\n      add\n      mload(0x40)\n      dup1\n      swap2\n      sub\n      swap1\n      keccak256\n        /* \"src/voting.sol\":2901:2942  VotingPoll storage VP = votingPoll[_name] */\n      swap1\n      pop\n        /* \"src/voting.sol\":2971:2975  true */\n      0x01\n        /* \"src/voting.sol\":2949:2951  VP */\n      dup2\n        /* \"src/voting.sol\":2949:2960  VP.hasVoted */\n      0x04\n      add\n        /* \"src/voting.sol\":2949:2968  VP.hasVoted[signer] */\n      0x00\n        /* \"src/voting.sol\":2961:2967  signer */\n      dup6\n        /* \"src/voting.sol\":2949:2968  VP.hasVoted[signer] */\n      0xffffffffffffffffffffffffffffffffffffffff\n      and\n      0xffffffffffffffffffffffffffffffffffffffff\n      and\n      dup2\n      mstore\n      0x20\n      add\n      swap1\n      dup2\n      mstore\n      0x20\n      add\n      0x00\n      keccak256\n      0x00\n        /* \"src/voting.sol\":2949:2975  VP.hasVoted[signer] = true */\n      0x0100\n      exp\n      dup2\n      sload\n      dup2\n      0xff\n      mul\n      not\n      and\n      swap1\n      dup4\n      iszero\n      iszero\n      mul\n      or\n      swap1\n      sstore\n      pop\n        /* \"src/voting.sol\":2982:2984  VP */\n      dup1\n        /* \"src/voting.sol\":2982:2998  VP.CandidateVote */\n      0x05\n      add\n        /* \"src/voting.sol\":2982:3004  VP.CandidateVote[Cand] */\n      0x00\n        /* \"src/voting.sol\":2999:3003  Cand */\n      dup7\n        /* \"src/voting.sol\":2982:3004  VP.CandidateVote[Cand] */\n      0xffffffffffffffffffffffffffffffffffffffff\n      and\n      0xffffffffffffffffffffffffffffffffffffffff\n      and\n      dup2\n      mstore\n      0x20\n      add\n      swap1\n      dup2\n      mstore\n      0x20\n      add\n      0x00\n      keccak256\n      0x00\n        /* \"src/voting.sol\":2982:3006  VP.CandidateVote[Cand]++ */\n      dup2\n      sload\n      dup1\n      swap3\n      swap2\n      swap1\n      tag_175\n      swap1\n      tag_98\n      jump\t// in\n    tag_175:\n      swap2\n      swap1\n      pop\n      sstore\n      pop\n        /* \"src/voting.sol\":3020:3022  VP */\n      dup1\n        /* \"src/voting.sol\":3020:3036  VP.CandidateVote */\n      0x05\n      add\n        /* \"src/voting.sol\":3020:3042  VP.CandidateVote[Cand] */\n      0x00\n        /* \"src/voting.sol\":3037:3041  Cand */\n      dup7\n        /* \"src/voting.sol\":3020:3042  VP.CandidateVote[Cand] */\n      0xffffffffffffffffffffffffffffffffffffffff\n      and\n      0xffffffffffffffffffffffffffffffffffffffff\n      and\n      dup2\n      mstore\n      0x20\n      add\n      swap1\n      dup2\n      mstore\n      0x20\n      add\n      0x00\n      keccak256\n      sload\n        /* \"src/voting.sol\":3013:3042  return VP.CandidateVote[Cand] */\n      swap2\n      pop\n      pop\n        /* \"src/voting.sol\":2802:3047  function countVote(address Cand, string memory _name, address signer) internal returns(uint){... */\n      swap4\n      swap3\n      pop\n      pop\n      pop\n      jump\t// out\n        /* \"src/voting.sol\":4201:4380  function getUint( string memory _name, uint i) internal view returns(uint val){... */\n    tag_120:\n        /* \"src/voting.sol\":4270:4278  uint val */\n      0x00\n        /* \"src/voting.sol\":4286:4307  VotingPoll storage VP */\n      dup1\n        /* \"src/voting.sol\":4310:4320  votingPoll */\n      0x00\n        /* \"src/voting.sol\":4321:4326  _name */\n      dup5\n        /* \"src/voting.sol\":4310:4327  votingPoll[_name] */\n      mload(0x40)\n      tag_177\n      swap2\n      swap1\n      tag_80\n      jump\t// in\n    tag_177:\n      swap1\n      dup2\n      mstore\n      0x20\n      add\n      mload(0x40)\n      dup1\n      swap2\n      sub\n      swap1\n      keccak256\n        /* \"src/voting.sol\":4286:4327  VotingPoll storage VP = votingPoll[_name] */\n      swap1\n      pop\n        /* \"src/voting.sol\":4342:4344  VP */\n      dup1\n        /* \"src/voting.sol\":4342:4358  VP.CandidateVote */\n      0x05\n      add\n        /* \"src/voting.sol\":4342:4376  VP.CandidateVote[VP.candidates[i]] */\n      0x00\n        /* \"src/voting.sol\":4359:4361  VP */\n      dup3\n        /* \"src/voting.sol\":4359:4372  VP.candidates */\n      0x01\n      add\n        /* \"src/voting.sol\":4373:4374  i */\n      dup6\n        /* \"src/voting.sol\":4359:4375  VP.candidates[i] */\n      dup2\n      sload\n      dup2\n      lt\n      tag_178\n      jumpi\n      tag_179\n      tag_124\n      jump\t// in\n    tag_179:\n    tag_178:\n      swap1\n      0x00\n      mstore\n      keccak256(0x00, 0x20)\n      add\n      0x00\n      swap1\n      sload\n      swap1\n      0x0100\n      exp\n      swap1\n      div\n      0xffffffffffffffffffffffffffffffffffffffff\n      and\n        /* \"src/voting.sol\":4342:4376  VP.CandidateVote[VP.candidates[i]] */\n      0xffffffffffffffffffffffffffffffffffffffff\n      and\n      0xffffffffffffffffffffffffffffffffffffffff\n      and\n      dup2\n      mstore\n      0x20\n      add\n      swap1\n      dup2\n      mstore\n      0x20\n      add\n      0x00\n      keccak256\n      sload\n        /* \"src/voting.sol\":4336:4376  val = VP.CandidateVote[VP.candidates[i]] */\n      swap2\n      pop\n        /* \"src/voting.sol\":4279:4380  {... */\n      pop\n        /* \"src/voting.sol\":4201:4380  function getUint( string memory _name, uint i) internal view returns(uint val){... */\n      swap3\n      swap2\n      pop\n      pop\n      jump\t// out\n        /* \"#utility.yul\":7:82   */\n    tag_181:\n        /* \"#utility.yul\":40:46   */\n      0x00\n        /* \"#utility.yul\":73:75   */\n      0x40\n        /* \"#utility.yul\":67:76   */\n      mload\n        /* \"#utility.yul\":57:76   */\n      swap1\n      pop\n        /* \"#utility.yul\":7:82   */\n      swap1\n      jump\t// out\n        /* \"#utility.yul\":88:205   */\n    tag_182:\n        /* \"#utility.yul\":197:198   */\n      0x00\n        /* \"#utility.yul\":194:195   */\n      dup1\n        /* \"#utility.yul\":187:199   */\n      revert\n        /* \"#utility.yul\":211:328   */\n    tag_183:\n        /* \"#utility.yul\":320:321   */\n      0x00\n        /* \"#utility.yul\":317:318   */\n      dup1\n        /* \"#utility.yul\":310:322   */\n      revert\n        /* \"#utility.yul\":334:460   */\n    tag_184:\n        /* \"#utility.yul\":371:378   */\n      0x00\n        /* \"#utility.yul\":411:453   */\n      0xffffffffffffffffffffffffffffffffffffffff\n        /* \"#utility.yul\":404:409   */\n      dup3\n        /* \"#utility.yul\":400:454   */\n      and\n        /* \"#utility.yul\":389:454   */\n      swap1\n      pop\n        /* \"#utility.yul\":334:460   */\n      swap2\n      swap1\n      pop\n      jump\t// out\n        /* \"#utility.yul\":466:562   */\n    tag_185:\n        /* \"#utility.yul\":503:510   */\n      0x00\n        /* \"#utility.yul\":532:556   */\n      tag_270\n        /* \"#utility.yul\":550:555   */\n      dup3\n        /* \"#utility.yul\":532:556   */\n      tag_184\n      jump\t// in\n    tag_270:\n        /* \"#utility.yul\":521:556   */\n      swap1\n      pop\n        /* \"#utility.yul\":466:562   */\n      swap2\n      swap1\n      pop\n      jump\t// out\n        /* \"#utility.yul\":568:690   */\n    tag_186:\n        /* \"#utility.yul\":641:665   */\n      tag_272\n        /* \"#utility.yul\":659:664   */\n      dup2\n        /* \"#utility.yul\":641:665   */\n      tag_185\n      jump\t// in\n    tag_272:\n        /* \"#utility.yul\":634:639   */\n      dup2\n        /* \"#utility.yul\":631:666   */\n      eq\n        /* \"#utility.yul\":621:684   */\n      tag_273\n      jumpi\n        /* \"#utility.yul\":680:681   */\n      0x00\n        /* \"#utility.yul\":677:678   */\n      dup1\n        /* \"#utility.yul\":670:682   */\n      revert\n        /* \"#utility.yul\":621:684   */\n    tag_273:\n        /* \"#utility.yul\":568:690   */\n      pop\n      jump\t// out\n        /* \"#utility.yul\":696:835   */\n    tag_187:\n        /* \"#utility.yul\":742:747   */\n      0x00\n        /* \"#utility.yul\":780:786   */\n      dup2\n        /* \"#utility.yul\":767:787   */\n      calldataload\n        /* \"#utility.yul\":758:787   */\n      swap1\n      pop\n        /* \"#utility.yul\":796:829   */\n      tag_275\n        /* \"#utility.yul\":823:828   */\n      dup2\n        /* \"#utility.yul\":796:829   */\n      tag_186\n      jump\t// in\n    tag_275:\n        /* \"#utility.yul\":696:835   */\n      swap3\n      swap2\n      pop\n      pop\n      jump\t// out\n        /* \"#utility.yul\":841:958   */\n    tag_188:\n        /* \"#utility.yul\":950:951   */\n      0x00\n        /* \"#utility.yul\":947:948   */\n      dup1\n        /* \"#utility.yul\":940:952   */\n      revert\n        /* \"#utility.yul\":964:1081   */\n    tag_189:\n        /* \"#utility.yul\":1073:1074   */\n      0x00\n        /* \"#utility.yul\":1070:1071   */\n      dup1\n        /* \"#utility.yul\":1063:1075   */\n      revert\n        /* \"#utility.yul\":1087:1189   */\n    tag_190:\n        /* \"#utility.yul\":1128:1134   */\n      0x00\n        /* \"#utility.yul\":1179:1181   */\n      0x1f\n        /* \"#utility.yul\":1175:1182   */\n      not\n        /* \"#utility.yul\":1170:1172   */\n      0x1f\n        /* \"#utility.yul\":1163:1168   */\n      dup4\n        /* \"#utility.yul\":1159:1173   */\n      add\n        /* \"#utility.yul\":1155:1183   */\n      and\n        /* \"#utility.yul\":1145:1183   */\n      swap1\n      pop\n        /* \"#utility.yul\":1087:1189   */\n      swap2\n      swap1\n      pop\n      jump\t// out\n        /* \"#utility.yul\":1195:1375   */\n    tag_114:\n        /* \"#utility.yul\":1243:1320   */\n      0x4e487b7100000000000000000000000000000000000000000000000000000000\n        /* \"#utility.yul\":1240:1241   */\n      0x00\n        /* \"#utility.yul\":1233:1321   */\n      mstore\n        /* \"#utility.yul\":1340:1344   */\n      0x41\n        /* \"#utility.yul\":1337:1338   */\n      0x04\n        /* \"#utility.yul\":1330:1345   */\n      mstore\n        /* \"#utility.yul\":1364:1368   */\n      0x24\n        /* \"#utility.yul\":1361:1362   */\n      0x00\n        /* \"#utility.yul\":1354:1369   */\n      revert\n        /* \"#utility.yul\":1381:1662   */\n    tag_191:\n        /* \"#utility.yul\":1464:1491   */\n      tag_281\n        /* \"#utility.yul\":1486:1490   */\n      dup3\n        /* \"#utility.yul\":1464:1491   */\n      tag_190\n      jump\t// in\n    tag_281:\n        /* \"#utility.yul\":1456:1462   */\n      dup2\n        /* \"#utility.yul\":1452:1492   */\n      add\n        /* \"#utility.yul\":1594:1600   */\n      dup2\n        /* \"#utility.yul\":1582:1592   */\n      dup2\n        /* \"#utility.yul\":1579:1601   */\n      lt\n        /* \"#utility.yul\":1558:1576   */\n      0xffffffffffffffff\n        /* \"#utility.yul\":1546:1556   */\n      dup3\n        /* \"#utility.yul\":1543:1577   */\n      gt\n        /* \"#utility.yul\":1540:1602   */\n      or\n        /* \"#utility.yul\":1537:1625   */\n      iszero\n      tag_282\n      jumpi\n        /* \"#utility.yul\":1605:1623   */\n      tag_283\n      tag_114\n      jump\t// in\n    tag_283:\n        /* \"#utility.yul\":1537:1625   */\n    tag_282:\n        /* \"#utility.yul\":1645:1655   */\n      dup1\n        /* \"#utility.yul\":1641:1643   */\n      0x40\n        /* \"#utility.yul\":1634:1656   */\n      mstore\n        /* \"#utility.yul\":1424:1662   */\n      pop\n        /* \"#utility.yul\":1381:1662   */\n      pop\n      pop\n      jump\t// out\n        /* \"#utility.yul\":1668:1797   */\n    tag_192:\n        /* \"#utility.yul\":1702:1708   */\n      0x00\n        /* \"#utility.yul\":1729:1749   */\n      tag_285\n      tag_181\n      jump\t// in\n    tag_285:\n        /* \"#utility.yul\":1719:1749   */\n      swap1\n      pop\n        /* \"#utility.yul\":1758:1791   */\n      tag_286\n        /* \"#utility.yul\":1786:1790   */\n      dup3\n        /* \"#utility.yul\":1778:1784   */\n      dup3\n        /* \"#utility.yul\":1758:1791   */\n      tag_191\n      jump\t// in\n    tag_286:\n        /* \"#utility.yul\":1668:1797   */\n      swap2\n      swap1\n      pop\n      jump\t// out\n        /* \"#utility.yul\":1803:2111   */\n    tag_193:\n        /* \"#utility.yul\":1865:1869   */\n      0x00\n        /* \"#utility.yul\":1955:1973   */\n      0xffffffffffffffff\n        /* \"#utility.yul\":1947:1953   */\n      dup3\n        /* \"#utility.yul\":1944:1974   */\n      gt\n        /* \"#utility.yul\":1941:1997   */\n      iszero\n      tag_288\n      jumpi\n        /* \"#utility.yul\":1977:1995   */\n      tag_289\n      tag_114\n      jump\t// in\n    tag_289:\n        /* \"#utility.yul\":1941:1997   */\n    tag_288:\n        /* \"#utility.yul\":2015:2044   */\n      tag_290\n        /* \"#utility.yul\":2037:2043   */\n      dup3\n        /* \"#utility.yul\":2015:2044   */\n      tag_190\n      jump\t// in\n    tag_290:\n        /* \"#utility.yul\":2007:2044   */\n      swap1\n      pop\n        /* \"#utility.yul\":2099:2103   */\n      0x20\n        /* \"#utility.yul\":2093:2097   */\n      dup2\n        /* \"#utility.yul\":2089:2104   */\n      add\n        /* \"#utility.yul\":2081:2104   */\n      swap1\n      pop\n        /* \"#utility.yul\":1803:2111   */\n      swap2\n      swap1\n      pop\n      jump\t// out\n        /* \"#utility.yul\":2117:2271   */\n    tag_194:\n        /* \"#utility.yul\":2201:2207   */\n      dup3\n        /* \"#utility.yul\":2196:2199   */\n      dup2\n        /* \"#utility.yul\":2191:2194   */\n      dup4\n        /* \"#utility.yul\":2178:2208   */\n      calldatacopy\n        /* \"#utility.yul\":2263:2264   */\n      0x00\n        /* \"#utility.yul\":2254:2260   */\n      dup4\n        /* \"#utility.yul\":2249:2252   */\n      dup4\n        /* \"#utility.yul\":2245:2261   */\n      add\n        /* \"#utility.yul\":2238:2265   */\n      mstore\n        /* \"#utility.yul\":2117:2271   */\n      pop\n      pop\n      pop\n      jump\t// out\n        /* \"#utility.yul\":2277:2689   */\n    tag_195:\n        /* \"#utility.yul\":2355:2360   */\n      0x00\n        /* \"#utility.yul\":2380:2446   */\n      tag_293\n        /* \"#utility.yul\":2396:2445   */\n      tag_294\n        /* \"#utility.yul\":2438:2444   */\n      dup5\n        /* \"#utility.yul\":2396:2445   */\n      tag_193\n      jump\t// in\n    tag_294:\n        /* \"#utility.yul\":2380:2446   */\n      tag_192\n      jump\t// in\n    tag_293:\n        /* \"#utility.yul\":2371:2446   */\n      swap1\n      pop\n        /* \"#utility.yul\":2469:2475   */\n      dup3\n        /* \"#utility.yul\":2462:2467   */\n      dup2\n        /* \"#utility.yul\":2455:2476   */\n      mstore\n        /* \"#utility.yul\":2507:2511   */\n      0x20\n        /* \"#utility.yul\":2500:2505   */\n      dup2\n        /* \"#utility.yul\":2496:2512   */\n      add\n        /* \"#utility.yul\":2545:2548   */\n      dup5\n        /* \"#utility.yul\":2536:2542   */\n      dup5\n        /* \"#utility.yul\":2531:2534   */\n      dup5\n        /* \"#utility.yul\":2527:2543   */\n      add\n        /* \"#utility.yul\":2524:2549   */\n      gt\n        /* \"#utility.yul\":2521:2633   */\n      iszero\n      tag_295\n      jumpi\n        /* \"#utility.yul\":2552:2631   */\n      tag_296\n      tag_189\n      jump\t// in\n    tag_296:\n        /* \"#utility.yul\":2521:2633   */\n    tag_295:\n        /* \"#utility.yul\":2642:2683   */\n      tag_297\n        /* \"#utility.yul\":2676:2682   */\n      dup5\n        /* \"#utility.yul\":2671:2674   */\n      dup3\n        /* \"#utility.yul\":2666:2669   */\n      dup6\n        /* \"#utility.yul\":2642:2683   */\n      tag_194\n      jump\t// in\n    tag_297:\n        /* \"#utility.yul\":2361:2689   */\n      pop\n        /* \"#utility.yul\":2277:2689   */\n      swap4\n      swap3\n      pop\n      pop\n      pop\n      jump\t// out\n        /* \"#utility.yul\":2709:3049   */\n    tag_196:\n        /* \"#utility.yul\":2765:2770   */\n      0x00\n        /* \"#utility.yul\":2814:2817   */\n      dup3\n        /* \"#utility.yul\":2807:2811   */\n      0x1f\n        /* \"#utility.yul\":2799:2805   */\n      dup4\n        /* \"#utility.yul\":2795:2812   */\n      add\n        /* \"#utility.yul\":2791:2818   */\n      slt\n        /* \"#utility.yul\":2781:2903   */\n      tag_299\n      jumpi\n        /* \"#utility.yul\":2822:2901   */\n      tag_300\n      tag_188\n      jump\t// in\n    tag_300:\n        /* \"#utility.yul\":2781:2903   */\n    tag_299:\n        /* \"#utility.yul\":2939:2945   */\n      dup2\n        /* \"#utility.yul\":2926:2946   */\n      calldataload\n        /* \"#utility.yul\":2964:3043   */\n      tag_301\n        /* \"#utility.yul\":3039:3042   */\n      dup5\n        /* \"#utility.yul\":3031:3037   */\n      dup3\n        /* \"#utility.yul\":3024:3028   */\n      0x20\n        /* \"#utility.yul\":3016:3022   */\n      dup7\n        /* \"#utility.yul\":3012:3029   */\n      add\n        /* \"#utility.yul\":2964:3043   */\n      tag_195\n      jump\t// in\n    tag_301:\n        /* \"#utility.yul\":2955:3043   */\n      swap2\n      pop\n        /* \"#utility.yul\":2771:3049   */\n      pop\n        /* \"#utility.yul\":2709:3049   */\n      swap3\n      swap2\n      pop\n      pop\n      jump\t// out\n        /* \"#utility.yul\":3055:3132   */\n    tag_197:\n        /* \"#utility.yul\":3092:3099   */\n      0x00\n        /* \"#utility.yul\":3121:3126   */\n      dup2\n        /* \"#utility.yul\":3110:3126   */\n      swap1\n      pop\n        /* \"#utility.yul\":3055:3132   */\n      swap2\n      swap1\n      pop\n      jump\t// out\n        /* \"#utility.yul\":3138:3260   */\n    tag_198:\n        /* \"#utility.yul\":3211:3235   */\n      tag_304\n        /* \"#utility.yul\":3229:3234   */\n      dup2\n        /* \"#utility.yul\":3211:3235   */\n      tag_197\n      jump\t// in\n    tag_304:\n        /* \"#utility.yul\":3204:3209   */\n      dup2\n        /* \"#utility.yul\":3201:3236   */\n      eq\n        /* \"#utility.yul\":3191:3254   */\n      tag_305\n      jumpi\n        /* \"#utility.yul\":3250:3251   */\n      0x00\n        /* \"#utility.yul\":3247:3248   */\n      dup1\n        /* \"#utility.yul\":3240:3252   */\n      revert\n        /* \"#utility.yul\":3191:3254   */\n    tag_305:\n        /* \"#utility.yul\":3138:3260   */\n      pop\n      jump\t// out\n        /* \"#utility.yul\":3266:3405   */\n    tag_199:\n        /* \"#utility.yul\":3312:3317   */\n      0x00\n        /* \"#utility.yul\":3350:3356   */\n      dup2\n        /* \"#utility.yul\":3337:3357   */\n      calldataload\n        /* \"#utility.yul\":3328:3357   */\n      swap1\n      pop\n        /* \"#utility.yul\":3366:3399   */\n      tag_307\n        /* \"#utility.yul\":3393:3398   */\n      dup2\n        /* \"#utility.yul\":3366:3399   */\n      tag_198\n      jump\t// in\n    tag_307:\n        /* \"#utility.yul\":3266:3405   */\n      swap3\n      swap2\n      pop\n      pop\n      jump\t// out\n        /* \"#utility.yul\":3411:4356   */\n    tag_19:\n        /* \"#utility.yul\":3507:3513   */\n      0x00\n        /* \"#utility.yul\":3515:3521   */\n      dup1\n        /* \"#utility.yul\":3523:3529   */\n      0x00\n        /* \"#utility.yul\":3531:3537   */\n      dup1\n        /* \"#utility.yul\":3580:3583   */\n      0x80\n        /* \"#utility.yul\":3568:3577   */\n      dup6\n        /* \"#utility.yul\":3559:3566   */\n      dup8\n        /* \"#utility.yul\":3555:3578   */\n      sub\n        /* \"#utility.yul\":3551:3584   */\n      slt\n        /* \"#utility.yul\":3548:3668   */\n      iszero\n      tag_309\n      jumpi\n        /* \"#utility.yul\":3587:3666   */\n      tag_310\n      tag_182\n      jump\t// in\n    tag_310:\n        /* \"#utility.yul\":3548:3668   */\n    tag_309:\n        /* \"#utility.yul\":3707:3708   */\n      0x00\n        /* \"#utility.yul\":3732:3785   */\n      tag_311\n        /* \"#utility.yul\":3777:3784   */\n      dup8\n        /* \"#utility.yul\":3768:3774   */\n      dup3\n        /* \"#utility.yul\":3757:3766   */\n      dup9\n        /* \"#utility.yul\":3753:3775   */\n      add\n        /* \"#utility.yul\":3732:3785   */\n      tag_187\n      jump\t// in\n    tag_311:\n        /* \"#utility.yul\":3722:3785   */\n      swap5\n      pop\n        /* \"#utility.yul\":3678:3795   */\n      pop\n        /* \"#utility.yul\":3862:3864   */\n      0x20\n        /* \"#utility.yul\":3851:3860   */\n      dup6\n        /* \"#utility.yul\":3847:3865   */\n      add\n        /* \"#utility.yul\":3834:3866   */\n      calldataload\n        /* \"#utility.yul\":3893:3911   */\n      0xffffffffffffffff\n        /* \"#utility.yul\":3885:3891   */\n      dup2\n        /* \"#utility.yul\":3882:3912   */\n      gt\n        /* \"#utility.yul\":3879:3996   */\n      iszero\n      tag_312\n      jumpi\n        /* \"#utility.yul\":3915:3994   */\n      tag_313\n      tag_183\n      jump\t// in\n    tag_313:\n        /* \"#utility.yul\":3879:3996   */\n    tag_312:\n        /* \"#utility.yul\":4020:4083   */\n      tag_314\n        /* \"#utility.yul\":4075:4082   */\n      dup8\n        /* \"#utility.yul\":4066:4072   */\n      dup3\n        /* \"#utility.yul\":4055:4064   */\n      dup9\n        /* \"#utility.yul\":4051:4073   */\n      add\n        /* \"#utility.yul\":4020:4083   */\n      tag_196\n      jump\t// in\n    tag_314:\n        /* \"#utility.yul\":4010:4083   */\n      swap4\n      pop\n        /* \"#utility.yul\":3805:4093   */\n      pop\n        /* \"#utility.yul\":4132:4134   */\n      0x40\n        /* \"#utility.yul\":4158:4211   */\n      tag_315\n        /* \"#utility.yul\":4203:4210   */\n      dup8\n        /* \"#utility.yul\":4194:4200   */\n      dup3\n        /* \"#utility.yul\":4183:4192   */\n      dup9\n        /* \"#utility.yul\":4179:4201   */\n      add\n        /* \"#utility.yul\":4158:4211   */\n      tag_199\n      jump\t// in\n    tag_315:\n        /* \"#utility.yul\":4148:4211   */\n      swap3\n      pop\n        /* \"#utility.yul\":4103:4221   */\n      pop\n        /* \"#utility.yul\":4260:4262   */\n      0x60\n        /* \"#utility.yul\":4286:4339   */\n      tag_316\n        /* \"#utility.yul\":4331:4338   */\n      dup8\n        /* \"#utility.yul\":4322:4328   */\n      dup3\n        /* \"#utility.yul\":4311:4320   */\n      dup9\n        /* \"#utility.yul\":4307:4329   */\n      add\n        /* \"#utility.yul\":4286:4339   */\n      tag_199\n      jump\t// in\n    tag_316:\n        /* \"#utility.yul\":4276:4339   */\n      swap2\n      pop\n        /* \"#utility.yul\":4231:4349   */\n      pop\n        /* \"#utility.yul\":3411:4356   */\n      swap3\n      swap6\n      swap2\n      swap5\n      pop\n      swap3\n      pop\n      jump\t// out\n        /* \"#utility.yul\":4362:4439   */\n    tag_200:\n        /* \"#utility.yul\":4399:4406   */\n      0x00\n        /* \"#utility.yul\":4428:4433   */\n      dup2\n        /* \"#utility.yul\":4417:4433   */\n      swap1\n      pop\n        /* \"#utility.yul\":4362:4439   */\n      swap2\n      swap1\n      pop\n      jump\t// out\n        /* \"#utility.yul\":4445:4563   */\n    tag_201:\n        /* \"#utility.yul\":4532:4556   */\n      tag_319\n        /* \"#utility.yul\":4550:4555   */\n      dup2\n        /* \"#utility.yul\":4532:4556   */\n      tag_200\n      jump\t// in\n    tag_319:\n        /* \"#utility.yul\":4527:4530   */\n      dup3\n        /* \"#utility.yul\":4520:4557   */\n      mstore\n        /* \"#utility.yul\":4445:4563   */\n      pop\n      pop\n      jump\t// out\n        /* \"#utility.yul\":4569:4791   */\n    tag_22:\n        /* \"#utility.yul\":4662:4666   */\n      0x00\n        /* \"#utility.yul\":4700:4702   */\n      0x20\n        /* \"#utility.yul\":4689:4698   */\n      dup3\n        /* \"#utility.yul\":4685:4703   */\n      add\n        /* \"#utility.yul\":4677:4703   */\n      swap1\n      pop\n        /* \"#utility.yul\":4713:4784   */\n      tag_321\n        /* \"#utility.yul\":4781:4782   */\n      0x00\n        /* \"#utility.yul\":4770:4779   */\n      dup4\n        /* \"#utility.yul\":4766:4783   */\n      add\n        /* \"#utility.yul\":4757:4763   */\n      dup5\n        /* \"#utility.yul\":4713:4784   */\n      tag_201\n      jump\t// in\n    tag_321:\n        /* \"#utility.yul\":4569:4791   */\n      swap3\n      swap2\n      pop\n      pop\n      jump\t// out\n        /* \"#utility.yul\":4797:4886   */\n    tag_202:\n        /* \"#utility.yul\":4833:4840   */\n      0x00\n        /* \"#utility.yul\":4873:4879   */\n      0xffff\n        /* \"#utility.yul\":4866:4871   */\n      dup3\n        /* \"#utility.yul\":4862:4880   */\n      and\n        /* \"#utility.yul\":4851:4880   */\n      swap1\n      pop\n        /* \"#utility.yul\":4797:4886   */\n      swap2\n      swap1\n      pop\n      jump\t// out\n        /* \"#utility.yul\":4892:5012   */\n    tag_203:\n        /* \"#utility.yul\":4964:4987   */\n      tag_324\n        /* \"#utility.yul\":4981:4986   */\n      dup2\n        /* \"#utility.yul\":4964:4987   */\n      tag_202\n      jump\t// in\n    tag_324:\n        /* \"#utility.yul\":4957:4962   */\n      dup2\n        /* \"#utility.yul\":4954:4988   */\n      eq\n        /* \"#utility.yul\":4944:5006   */\n      tag_325\n      jumpi\n        /* \"#utility.yul\":5002:5003   */\n      0x00\n        /* \"#utility.yul\":4999:5000   */\n      dup1\n        /* \"#utility.yul\":4992:5004   */\n      revert\n        /* \"#utility.yul\":4944:5006   */\n    tag_325:\n        /* \"#utility.yul\":4892:5012   */\n      pop\n      jump\t// out\n        /* \"#utility.yul\":5018:5155   */\n    tag_204:\n        /* \"#utility.yul\":5063:5068   */\n      0x00\n        /* \"#utility.yul\":5101:5107   */\n      dup2\n        /* \"#utility.yul\":5088:5108   */\n      calldataload\n        /* \"#utility.yul\":5079:5108   */\n      swap1\n      pop\n        /* \"#utility.yul\":5117:5149   */\n      tag_327\n        /* \"#utility.yul\":5143:5148   */\n      dup2\n        /* \"#utility.yul\":5117:5149   */\n      tag_203\n      jump\t// in\n    tag_327:\n        /* \"#utility.yul\":5018:5155   */\n      swap3\n      swap2\n      pop\n      pop\n      jump\t// out\n        /* \"#utility.yul\":5161:5813   */\n    tag_26:\n        /* \"#utility.yul\":5238:5244   */\n      0x00\n        /* \"#utility.yul\":5246:5252   */\n      dup1\n        /* \"#utility.yul\":5295:5297   */\n      0x40\n        /* \"#utility.yul\":5283:5292   */\n      dup4\n        /* \"#utility.yul\":5274:5281   */\n      dup6\n        /* \"#utility.yul\":5270:5293   */\n      sub\n        /* \"#utility.yul\":5266:5298   */\n      slt\n        /* \"#utility.yul\":5263:5382   */\n      iszero\n      tag_329\n      jumpi\n        /* \"#utility.yul\":5301:5380   */\n      tag_330\n      tag_182\n      jump\t// in\n    tag_330:\n        /* \"#utility.yul\":5263:5382   */\n    tag_329:\n        /* \"#utility.yul\":5449:5450   */\n      0x00\n        /* \"#utility.yul\":5438:5447   */\n      dup4\n        /* \"#utility.yul\":5434:5451   */\n      add\n        /* \"#utility.yul\":5421:5452   */\n      calldataload\n        /* \"#utility.yul\":5479:5497   */\n      0xffffffffffffffff\n        /* \"#utility.yul\":5471:5477   */\n      dup2\n        /* \"#utility.yul\":5468:5498   */\n      gt\n        /* \"#utility.yul\":5465:5582   */\n      iszero\n      tag_331\n      jumpi\n        /* \"#utility.yul\":5501:5580   */\n      tag_332\n      tag_183\n      jump\t// in\n    tag_332:\n        /* \"#utility.yul\":5465:5582   */\n    tag_331:\n        /* \"#utility.yul\":5606:5669   */\n      tag_333\n        /* \"#utility.yul\":5661:5668   */\n      dup6\n        /* \"#utility.yul\":5652:5658   */\n      dup3\n        /* \"#utility.yul\":5641:5650   */\n      dup7\n        /* \"#utility.yul\":5637:5659   */\n      add\n        /* \"#utility.yul\":5606:5669   */\n      tag_196\n      jump\t// in\n    tag_333:\n        /* \"#utility.yul\":5596:5669   */\n      swap3\n      pop\n        /* \"#utility.yul\":5392:5679   */\n      pop\n        /* \"#utility.yul\":5718:5720   */\n      0x20\n        /* \"#utility.yul\":5744:5796   */\n      tag_334\n        /* \"#utility.yul\":5788:5795   */\n      dup6\n        /* \"#utility.yul\":5779:5785   */\n      dup3\n        /* \"#utility.yul\":5768:5777   */\n      dup7\n        /* \"#utility.yul\":5764:5786   */\n      add\n        /* \"#utility.yul\":5744:5796   */\n      tag_204\n      jump\t// in\n    tag_334:\n        /* \"#utility.yul\":5734:5796   */\n      swap2\n      pop\n        /* \"#utility.yul\":5689:5806   */\n      pop\n        /* \"#utility.yul\":5161:5813   */\n      swap3\n      pop\n      swap3\n      swap1\n      pop\n      jump\t// out\n        /* \"#utility.yul\":5819:5918   */\n    tag_205:\n        /* \"#utility.yul\":5871:5877   */\n      0x00\n        /* \"#utility.yul\":5905:5910   */\n      dup2\n        /* \"#utility.yul\":5899:5911   */\n      mload\n        /* \"#utility.yul\":5889:5911   */\n      swap1\n      pop\n        /* \"#utility.yul\":5819:5918   */\n      swap2\n      swap1\n      pop\n      jump\t// out\n        /* \"#utility.yul\":5924:6093   */\n    tag_206:\n        /* \"#utility.yul\":6008:6019   */\n      0x00\n        /* \"#utility.yul\":6042:6048   */\n      dup3\n        /* \"#utility.yul\":6037:6040   */\n      dup3\n        /* \"#utility.yul\":6030:6049   */\n      mstore\n        /* \"#utility.yul\":6082:6086   */\n      0x20\n        /* \"#utility.yul\":6077:6080   */\n      dup3\n        /* \"#utility.yul\":6073:6087   */\n      add\n        /* \"#utility.yul\":6058:6087   */\n      swap1\n      pop\n        /* \"#utility.yul\":5924:6093   */\n      swap3\n      swap2\n      pop\n      pop\n      jump\t// out\n        /* \"#utility.yul\":6099:6406   */\n    tag_207:\n        /* \"#utility.yul\":6167:6168   */\n      0x00\n        /* \"#utility.yul\":6177:6290   */\n    tag_338:\n        /* \"#utility.yul\":6191:6197   */\n      dup4\n        /* \"#utility.yul\":6188:6189   */\n      dup2\n        /* \"#utility.yul\":6185:6198   */\n      lt\n        /* \"#utility.yul\":6177:6290   */\n      iszero\n      tag_340\n      jumpi\n        /* \"#utility.yul\":6276:6277   */\n      dup1\n        /* \"#utility.yul\":6271:6274   */\n      dup3\n        /* \"#utility.yul\":6267:6278   */\n      add\n        /* \"#utility.yul\":6261:6279   */\n      mload\n        /* \"#utility.yul\":6257:6258   */\n      dup2\n        /* \"#utility.yul\":6252:6255   */\n      dup5\n        /* \"#utility.yul\":6248:6259   */\n      add\n        /* \"#utility.yul\":6241:6280   */\n      mstore\n        /* \"#utility.yul\":6213:6215   */\n      0x20\n        /* \"#utility.yul\":6210:6211   */\n      dup2\n        /* \"#utility.yul\":6206:6216   */\n      add\n        /* \"#utility.yul\":6201:6216   */\n      swap1\n      pop\n        /* \"#utility.yul\":6177:6290   */\n      jump(tag_338)\n    tag_340:\n        /* \"#utility.yul\":6308:6314   */\n      dup4\n        /* \"#utility.yul\":6305:6306   */\n      dup2\n        /* \"#utility.yul\":6302:6315   */\n      gt\n        /* \"#utility.yul\":6299:6400   */\n      iszero\n      tag_341\n      jumpi\n        /* \"#utility.yul\":6388:6389   */\n      0x00\n        /* \"#utility.yul\":6379:6385   */\n      dup5\n        /* \"#utility.yul\":6374:6377   */\n      dup5\n        /* \"#utility.yul\":6370:6386   */\n      add\n        /* \"#utility.yul\":6363:6390   */\n      mstore\n        /* \"#utility.yul\":6299:6400   */\n    tag_341:\n        /* \"#utility.yul\":6148:6406   */\n      pop\n        /* \"#utility.yul\":6099:6406   */\n      pop\n      pop\n      pop\n      jump\t// out\n        /* \"#utility.yul\":6412:6776   */\n    tag_208:\n        /* \"#utility.yul\":6500:6503   */\n      0x00\n        /* \"#utility.yul\":6528:6567   */\n      tag_343\n        /* \"#utility.yul\":6561:6566   */\n      dup3\n        /* \"#utility.yul\":6528:6567   */\n      tag_205\n      jump\t// in\n    tag_343:\n        /* \"#utility.yul\":6583:6654   */\n      tag_344\n        /* \"#utility.yul\":6647:6653   */\n      dup2\n        /* \"#utility.yul\":6642:6645   */\n      dup6\n        /* \"#utility.yul\":6583:6654   */\n      tag_206\n      jump\t// in\n    tag_344:\n        /* \"#utility.yul\":6576:6654   */\n      swap4\n      pop\n        /* \"#utility.yul\":6663:6715   */\n      tag_345\n        /* \"#utility.yul\":6708:6714   */\n      dup2\n        /* \"#utility.yul\":6703:6706   */\n      dup6\n        /* \"#utility.yul\":6696:6700   */\n      0x20\n        /* \"#utility.yul\":6689:6694   */\n      dup7\n        /* \"#utility.yul\":6685:6701   */\n      add\n        /* \"#utility.yul\":6663:6715   */\n      tag_207\n      jump\t// in\n    tag_345:\n        /* \"#utility.yul\":6740:6769   */\n      tag_346\n        /* \"#utility.yul\":6762:6768   */\n      dup2\n        /* \"#utility.yul\":6740:6769   */\n      tag_190\n      jump\t// in\n    tag_346:\n        /* \"#utility.yul\":6735:6738   */\n      dup5\n        /* \"#utility.yul\":6731:6770   */\n      add\n        /* \"#utility.yul\":6724:6770   */\n      swap2\n      pop\n        /* \"#utility.yul\":6504:6776   */\n      pop\n        /* \"#utility.yul\":6412:6776   */\n      swap3\n      swap2\n      pop\n      pop\n      jump\t// out\n        /* \"#utility.yul\":6782:6900   */\n    tag_209:\n        /* \"#utility.yul\":6869:6893   */\n      tag_348\n        /* \"#utility.yul\":6887:6892   */\n      dup2\n        /* \"#utility.yul\":6869:6893   */\n      tag_197\n      jump\t// in\n    tag_348:\n        /* \"#utility.yul\":6864:6867   */\n      dup3\n        /* \"#utility.yul\":6857:6894   */\n      mstore\n        /* \"#utility.yul\":6782:6900   */\n      pop\n      pop\n      jump\t// out\n        /* \"#utility.yul\":6906:7329   */\n    tag_29:\n        /* \"#utility.yul\":7047:7051   */\n      0x00\n        /* \"#utility.yul\":7085:7087   */\n      0x40\n        /* \"#utility.yul\":7074:7083   */\n      dup3\n        /* \"#utility.yul\":7070:7088   */\n      add\n        /* \"#utility.yul\":7062:7088   */\n      swap1\n      pop\n        /* \"#utility.yul\":7134:7143   */\n      dup2\n        /* \"#utility.yul\":7128:7132   */\n      dup2\n        /* \"#utility.yul\":7124:7144   */\n      sub\n        /* \"#utility.yul\":7120:7121   */\n      0x00\n        /* \"#utility.yul\":7109:7118   */\n      dup4\n        /* \"#utility.yul\":7105:7122   */\n      add\n        /* \"#utility.yul\":7098:7145   */\n      mstore\n        /* \"#utility.yul\":7162:7240   */\n      tag_350\n        /* \"#utility.yul\":7235:7239   */\n      dup2\n        /* \"#utility.yul\":7226:7232   */\n      dup6\n        /* \"#utility.yul\":7162:7240   */\n      tag_208\n      jump\t// in\n    tag_350:\n        /* \"#utility.yul\":7154:7240   */\n      swap1\n      pop\n        /* \"#utility.yul\":7250:7322   */\n      tag_351\n        /* \"#utility.yul\":7318:7320   */\n      0x20\n        /* \"#utility.yul\":7307:7316   */\n      dup4\n        /* \"#utility.yul\":7303:7321   */\n      add\n        /* \"#utility.yul\":7294:7300   */\n      dup5\n        /* \"#utility.yul\":7250:7322   */\n      tag_209\n      jump\t// in\n    tag_351:\n        /* \"#utility.yul\":6906:7329   */\n      swap4\n      swap3\n      pop\n      pop\n      pop\n      jump\t// out\n        /* \"#utility.yul\":7335:7642   */\n    tag_210:\n        /* \"#utility.yul\":7396:7400   */\n      0x00\n        /* \"#utility.yul\":7486:7504   */\n      0xffffffffffffffff\n        /* \"#utility.yul\":7478:7484   */\n      dup3\n        /* \"#utility.yul\":7475:7505   */\n      gt\n        /* \"#utility.yul\":7472:7528   */\n      iszero\n      tag_353\n      jumpi\n        /* \"#utility.yul\":7508:7526   */\n      tag_354\n      tag_114\n      jump\t// in\n    tag_354:\n        /* \"#utility.yul\":7472:7528   */\n    tag_353:\n        /* \"#utility.yul\":7546:7575   */\n      tag_355\n        /* \"#utility.yul\":7568:7574   */\n      dup3\n        /* \"#utility.yul\":7546:7575   */\n      tag_190\n      jump\t// in\n    tag_355:\n        /* \"#utility.yul\":7538:7575   */\n      swap1\n      pop\n        /* \"#utility.yul\":7630:7634   */\n      0x20\n        /* \"#utility.yul\":7624:7628   */\n      dup2\n        /* \"#utility.yul\":7620:7635   */\n      add\n        /* \"#utility.yul\":7612:7635   */\n      swap1\n      pop\n        /* \"#utility.yul\":7335:7642   */\n      swap2\n      swap1\n      pop\n      jump\t// out\n        /* \"#utility.yul\":7648:8058   */\n    tag_211:\n        /* \"#utility.yul\":7725:7730   */\n      0x00\n        /* \"#utility.yul\":7750:7815   */\n      tag_357\n        /* \"#utility.yul\":7766:7814   */\n      tag_358\n        /* \"#utility.yul\":7807:7813   */\n      dup5\n        /* \"#utility.yul\":7766:7814   */\n      tag_210\n      jump\t// in\n    tag_358:\n        /* \"#utility.yul\":7750:7815   */\n      tag_192\n      jump\t// in\n    tag_357:\n        /* \"#utility.yul\":7741:7815   */\n      swap1\n      pop\n        /* \"#utility.yul\":7838:7844   */\n      dup3\n        /* \"#utility.yul\":7831:7836   */\n      dup2\n        /* \"#utility.yul\":7824:7845   */\n      mstore\n        /* \"#utility.yul\":7876:7880   */\n      0x20\n        /* \"#utility.yul\":7869:7874   */\n      dup2\n        /* \"#utility.yul\":7865:7881   */\n      add\n        /* \"#utility.yul\":7914:7917   */\n      dup5\n        /* \"#utility.yul\":7905:7911   */\n      dup5\n        /* \"#utility.yul\":7900:7903   */\n      dup5\n        /* \"#utility.yul\":7896:7912   */\n      add\n        /* \"#utility.yul\":7893:7918   */\n      gt\n        /* \"#utility.yul\":7890:8002   */\n      iszero\n      tag_359\n      jumpi\n        /* \"#utility.yul\":7921:8000   */\n      tag_360\n      tag_189\n      jump\t// in\n    tag_360:\n        /* \"#utility.yul\":7890:8002   */\n    tag_359:\n        /* \"#utility.yul\":8011:8052   */\n      tag_361\n        /* \"#utility.yul\":8045:8051   */\n      dup5\n        /* \"#utility.yul\":8040:8043   */\n      dup3\n        /* \"#utility.yul\":8035:8038   */\n      dup6\n        /* \"#utility.yul\":8011:8052   */\n      tag_194\n      jump\t// in\n    tag_361:\n        /* \"#utility.yul\":7731:8058   */\n      pop\n        /* \"#utility.yul\":7648:8058   */\n      swap4\n      swap3\n      pop\n      pop\n      pop\n      jump\t// out\n        /* \"#utility.yul\":8077:8415   */\n    tag_212:\n        /* \"#utility.yul\":8132:8137   */\n      0x00\n        /* \"#utility.yul\":8181:8184   */\n      dup3\n        /* \"#utility.yul\":8174:8178   */\n      0x1f\n        /* \"#utility.yul\":8166:8172   */\n      dup4\n        /* \"#utility.yul\":8162:8179   */\n      add\n        /* \"#utility.yul\":8158:8185   */\n      slt\n        /* \"#utility.yul\":8148:8270   */\n      tag_363\n      jumpi\n        /* \"#utility.yul\":8189:8268   */\n      tag_364\n      tag_188\n      jump\t// in\n    tag_364:\n        /* \"#utility.yul\":8148:8270   */\n    tag_363:\n        /* \"#utility.yul\":8306:8312   */\n      dup2\n        /* \"#utility.yul\":8293:8313   */\n      calldataload\n        /* \"#utility.yul\":8331:8409   */\n      tag_365\n        /* \"#utility.yul\":8405:8408   */\n      dup5\n        /* \"#utility.yul\":8397:8403   */\n      dup3\n        /* \"#utility.yul\":8390:8394   */\n      0x20\n        /* \"#utility.yul\":8382:8388   */\n      dup7\n        /* \"#utility.yul\":8378:8395   */\n      add\n        /* \"#utility.yul\":8331:8409   */\n      tag_211\n      jump\t// in\n    tag_365:\n        /* \"#utility.yul\":8322:8409   */\n      swap2\n      pop\n        /* \"#utility.yul\":8138:8415   */\n      pop\n        /* \"#utility.yul\":8077:8415   */\n      swap3\n      swap2\n      pop\n      pop\n      jump\t// out\n        /* \"#utility.yul\":8421:9544   */\n    tag_33:\n        /* \"#utility.yul\":8526:8532   */\n      0x00\n        /* \"#utility.yul\":8534:8540   */\n      dup1\n        /* \"#utility.yul\":8542:8548   */\n      0x00\n        /* \"#utility.yul\":8550:8556   */\n      dup1\n        /* \"#utility.yul\":8599:8602   */\n      0x80\n        /* \"#utility.yul\":8587:8596   */\n      dup6\n        /* \"#utility.yul\":8578:8585   */\n      dup8\n        /* \"#utility.yul\":8574:8597   */\n      sub\n        /* \"#utility.yul\":8570:8603   */\n      slt\n        /* \"#utility.yul\":8567:8687   */\n      iszero\n      tag_367\n      jumpi\n        /* \"#utility.yul\":8606:8685   */\n      tag_368\n      tag_182\n      jump\t// in\n    tag_368:\n        /* \"#utility.yul\":8567:8687   */\n    tag_367:\n        /* \"#utility.yul\":8726:8727   */\n      0x00\n        /* \"#utility.yul\":8751:8804   */\n      tag_369\n        /* \"#utility.yul\":8796:8803   */\n      dup8\n        /* \"#utility.yul\":8787:8793   */\n      dup3\n        /* \"#utility.yul\":8776:8785   */\n      dup9\n        /* \"#utility.yul\":8772:8794   */\n      add\n        /* \"#utility.yul\":8751:8804   */\n      tag_187\n      jump\t// in\n    tag_369:\n        /* \"#utility.yul\":8741:8804   */\n      swap5\n      pop\n        /* \"#utility.yul\":8697:8814   */\n      pop\n        /* \"#utility.yul\":8881:8883   */\n      0x20\n        /* \"#utility.yul\":8870:8879   */\n      dup6\n        /* \"#utility.yul\":8866:8884   */\n      add\n        /* \"#utility.yul\":8853:8885   */\n      calldataload\n        /* \"#utility.yul\":8912:8930   */\n      0xffffffffffffffff\n        /* \"#utility.yul\":8904:8910   */\n      dup2\n        /* \"#utility.yul\":8901:8931   */\n      gt\n        /* \"#utility.yul\":8898:9015   */\n      iszero\n      tag_370\n      jumpi\n        /* \"#utility.yul\":8934:9013   */\n      tag_371\n      tag_183\n      jump\t// in\n    tag_371:\n        /* \"#utility.yul\":8898:9015   */\n    tag_370:\n        /* \"#utility.yul\":9039:9102   */\n      tag_372\n        /* \"#utility.yul\":9094:9101   */\n      dup8\n        /* \"#utility.yul\":9085:9091   */\n      dup3\n        /* \"#utility.yul\":9074:9083   */\n      dup9\n        /* \"#utility.yul\":9070:9092   */\n      add\n        /* \"#utility.yul\":9039:9102   */\n      tag_196\n      jump\t// in\n    tag_372:\n        /* \"#utility.yul\":9029:9102   */\n      swap4\n      pop\n        /* \"#utility.yul\":8824:9112   */\n      pop\n        /* \"#utility.yul\":9151:9153   */\n      0x40\n        /* \"#utility.yul\":9177:9230   */\n      tag_373\n        /* \"#utility.yul\":9222:9229   */\n      dup8\n        /* \"#utility.yul\":9213:9219   */\n      dup3\n        /* \"#utility.yul\":9202:9211   */\n      dup9\n        /* \"#utility.yul\":9198:9220   */\n      add\n        /* \"#utility.yul\":9177:9230   */\n      tag_199\n      jump\t// in\n    tag_373:\n        /* \"#utility.yul\":9167:9230   */\n      swap3\n      pop\n        /* \"#utility.yul\":9122:9240   */\n      pop\n        /* \"#utility.yul\":9307:9309   */\n      0x60\n        /* \"#utility.yul\":9296:9305   */\n      dup6\n        /* \"#utility.yul\":9292:9310   */\n      add\n        /* \"#utility.yul\":9279:9311   */\n      calldataload\n        /* \"#utility.yul\":9338:9356   */\n      0xffffffffffffffff\n        /* \"#utility.yul\":9330:9336   */\n      dup2\n        /* \"#utility.yul\":9327:9357   */\n      gt\n        /* \"#utility.yul\":9324:9441   */\n      iszero\n      tag_374\n      jumpi\n        /* \"#utility.yul\":9360:9439   */\n      tag_375\n      tag_183\n      jump\t// in\n    tag_375:\n        /* \"#utility.yul\":9324:9441   */\n    tag_374:\n        /* \"#utility.yul\":9465:9527   */\n      tag_376\n        /* \"#utility.yul\":9519:9526   */\n      dup8\n        /* \"#utility.yul\":9510:9516   */\n      dup3\n        /* \"#utility.yul\":9499:9508   */\n      dup9\n        /* \"#utility.yul\":9495:9517   */\n      add\n        /* \"#utility.yul\":9465:9527   */\n      tag_212\n      jump\t// in\n    tag_376:\n        /* \"#utility.yul\":9455:9527   */\n      swap2\n      pop\n        /* \"#utility.yul\":9250:9537   */\n      pop\n        /* \"#utility.yul\":8421:9544   */\n      swap3\n      swap6\n      swap2\n      swap5\n      pop\n      swap3\n      pop\n      jump\t// out\n        /* \"#utility.yul\":9550:10059   */\n    tag_38:\n        /* \"#utility.yul\":9619:9625   */\n      0x00\n        /* \"#utility.yul\":9668:9670   */\n      0x20\n        /* \"#utility.yul\":9656:9665   */\n      dup3\n        /* \"#utility.yul\":9647:9654   */\n      dup5\n        /* \"#utility.yul\":9643:9666   */\n      sub\n        /* \"#utility.yul\":9639:9671   */\n      slt\n        /* \"#utility.yul\":9636:9755   */\n      iszero\n      tag_378\n      jumpi\n        /* \"#utility.yul\":9674:9753   */\n      tag_379\n      tag_182\n      jump\t// in\n    tag_379:\n        /* \"#utility.yul\":9636:9755   */\n    tag_378:\n        /* \"#utility.yul\":9822:9823   */\n      0x00\n        /* \"#utility.yul\":9811:9820   */\n      dup3\n        /* \"#utility.yul\":9807:9824   */\n      add\n        /* \"#utility.yul\":9794:9825   */\n      calldataload\n        /* \"#utility.yul\":9852:9870   */\n      0xffffffffffffffff\n        /* \"#utility.yul\":9844:9850   */\n      dup2\n        /* \"#utility.yul\":9841:9871   */\n      gt\n        /* \"#utility.yul\":9838:9955   */\n      iszero\n      tag_380\n      jumpi\n        /* \"#utility.yul\":9874:9953   */\n      tag_381\n      tag_183\n      jump\t// in\n    tag_381:\n        /* \"#utility.yul\":9838:9955   */\n    tag_380:\n        /* \"#utility.yul\":9979:10042   */\n      tag_382\n        /* \"#utility.yul\":10034:10041   */\n      dup5\n        /* \"#utility.yul\":10025:10031   */\n      dup3\n        /* \"#utility.yul\":10014:10023   */\n      dup6\n        /* \"#utility.yul\":10010:10032   */\n      add\n        /* \"#utility.yul\":9979:10042   */\n      tag_196\n      jump\t// in\n    tag_382:\n        /* \"#utility.yul\":9969:10042   */\n      swap2\n      pop\n        /* \"#utility.yul\":9765:10052   */\n      pop\n        /* \"#utility.yul\":9550:10059   */\n      swap3\n      swap2\n      pop\n      pop\n      jump\t// out\n        /* \"#utility.yul\":10065:10179   */\n    tag_213:\n        /* \"#utility.yul\":10132:10138   */\n      0x00\n        /* \"#utility.yul\":10166:10171   */\n      dup2\n        /* \"#utility.yul\":10160:10172   */\n      mload\n        /* \"#utility.yul\":10150:10172   */\n      swap1\n      pop\n        /* \"#utility.yul\":10065:10179   */\n      swap2\n      swap1\n      pop\n      jump\t// out\n        /* \"#utility.yul\":10185:10369   */\n    tag_214:\n        /* \"#utility.yul\":10284:10295   */\n      0x00\n        /* \"#utility.yul\":10318:10324   */\n      dup3\n        /* \"#utility.yul\":10313:10316   */\n      dup3\n        /* \"#utility.yul\":10306:10325   */\n      mstore\n        /* \"#utility.yul\":10358:10362   */\n      0x20\n        /* \"#utility.yul\":10353:10356   */\n      dup3\n        /* \"#utility.yul\":10349:10363   */\n      add\n        /* \"#utility.yul\":10334:10363   */\n      swap1\n      pop\n        /* \"#utility.yul\":10185:10369   */\n      swap3\n      swap2\n      pop\n      pop\n      jump\t// out\n        /* \"#utility.yul\":10375:10507   */\n    tag_215:\n        /* \"#utility.yul\":10442:10446   */\n      0x00\n        /* \"#utility.yul\":10465:10468   */\n      dup2\n        /* \"#utility.yul\":10457:10468   */\n      swap1\n      pop\n        /* \"#utility.yul\":10495:10499   */\n      0x20\n        /* \"#utility.yul\":10490:10493   */\n      dup3\n        /* \"#utility.yul\":10486:10500   */\n      add\n        /* \"#utility.yul\":10478:10500   */\n      swap1\n      pop\n        /* \"#utility.yul\":10375:10507   */\n      swap2\n      swap1\n      pop\n      jump\t// out\n        /* \"#utility.yul\":10513:10621   */\n    tag_216:\n        /* \"#utility.yul\":10590:10614   */\n      tag_387\n        /* \"#utility.yul\":10608:10613   */\n      dup2\n        /* \"#utility.yul\":10590:10614   */\n      tag_197\n      jump\t// in\n    tag_387:\n        /* \"#utility.yul\":10585:10588   */\n      dup3\n        /* \"#utility.yul\":10578:10615   */\n      mstore\n        /* \"#utility.yul\":10513:10621   */\n      pop\n      pop\n      jump\t// out\n        /* \"#utility.yul\":10627:10806   */\n    tag_217:\n        /* \"#utility.yul\":10696:10706   */\n      0x00\n        /* \"#utility.yul\":10717:10763   */\n      tag_389\n        /* \"#utility.yul\":10759:10762   */\n      dup4\n        /* \"#utility.yul\":10751:10757   */\n      dup4\n        /* \"#utility.yul\":10717:10763   */\n      tag_216\n      jump\t// in\n    tag_389:\n        /* \"#utility.yul\":10795:10799   */\n      0x20\n        /* \"#utility.yul\":10790:10793   */\n      dup4\n        /* \"#utility.yul\":10786:10800   */\n      add\n        /* \"#utility.yul\":10772:10800   */\n      swap1\n      pop\n        /* \"#utility.yul\":10627:10806   */\n      swap3\n      swap2\n      pop\n      pop\n      jump\t// out\n        /* \"#utility.yul\":10812:10925   */\n    tag_218:\n        /* \"#utility.yul\":10882:10886   */\n      0x00\n        /* \"#utility.yul\":10914:10918   */\n      0x20\n        /* \"#utility.yul\":10909:10912   */\n      dup3\n        /* \"#utility.yul\":10905:10919   */\n      add\n        /* \"#utility.yul\":10897:10919   */\n      swap1\n      pop\n        /* \"#utility.yul\":10812:10925   */\n      swap2\n      swap1\n      pop\n      jump\t// out\n        /* \"#utility.yul\":10961:11693   */\n    tag_219:\n        /* \"#utility.yul\":11080:11083   */\n      0x00\n        /* \"#utility.yul\":11109:11163   */\n      tag_392\n        /* \"#utility.yul\":11157:11162   */\n      dup3\n        /* \"#utility.yul\":11109:11163   */\n      tag_213\n      jump\t// in\n    tag_392:\n        /* \"#utility.yul\":11179:11265   */\n      tag_393\n        /* \"#utility.yul\":11258:11264   */\n      dup2\n        /* \"#utility.yul\":11253:11256   */\n      dup6\n        /* \"#utility.yul\":11179:11265   */\n      tag_214\n      jump\t// in\n    tag_393:\n        /* \"#utility.yul\":11172:11265   */\n      swap4\n      pop\n        /* \"#utility.yul\":11289:11345   */\n      tag_394\n        /* \"#utility.yul\":11339:11344   */\n      dup4\n        /* \"#utility.yul\":11289:11345   */\n      tag_215\n      jump\t// in\n    tag_394:\n        /* \"#utility.yul\":11368:11375   */\n      dup1\n        /* \"#utility.yul\":11399:11400   */\n      0x00\n        /* \"#utility.yul\":11384:11668   */\n    tag_395:\n        /* \"#utility.yul\":11409:11415   */\n      dup4\n        /* \"#utility.yul\":11406:11407   */\n      dup2\n        /* \"#utility.yul\":11403:11416   */\n      lt\n        /* \"#utility.yul\":11384:11668   */\n      iszero\n      tag_397\n      jumpi\n        /* \"#utility.yul\":11485:11491   */\n      dup2\n        /* \"#utility.yul\":11479:11492   */\n      mload\n        /* \"#utility.yul\":11512:11575   */\n      tag_398\n        /* \"#utility.yul\":11571:11574   */\n      dup9\n        /* \"#utility.yul\":11556:11569   */\n      dup3\n        /* \"#utility.yul\":11512:11575   */\n      tag_217\n      jump\t// in\n    tag_398:\n        /* \"#utility.yul\":11505:11575   */\n      swap8\n      pop\n        /* \"#utility.yul\":11598:11658   */\n      tag_399\n        /* \"#utility.yul\":11651:11657   */\n      dup4\n        /* \"#utility.yul\":11598:11658   */\n      tag_218\n      jump\t// in\n    tag_399:\n        /* \"#utility.yul\":11588:11658   */\n      swap3\n      pop\n        /* \"#utility.yul\":11444:11668   */\n      pop\n        /* \"#utility.yul\":11431:11432   */\n      0x01\n        /* \"#utility.yul\":11428:11429   */\n      dup2\n        /* \"#utility.yul\":11424:11433   */\n      add\n        /* \"#utility.yul\":11419:11433   */\n      swap1\n      pop\n        /* \"#utility.yul\":11384:11668   */\n      jump(tag_395)\n    tag_397:\n        /* \"#utility.yul\":11388:11402   */\n      pop\n        /* \"#utility.yul\":11684:11687   */\n      dup6\n        /* \"#utility.yul\":11677:11687   */\n      swap4\n      pop\n        /* \"#utility.yul\":11085:11693   */\n      pop\n      pop\n      pop\n        /* \"#utility.yul\":10961:11693   */\n      swap3\n      swap2\n      pop\n      pop\n      jump\t// out\n        /* \"#utility.yul\":11699:11817   */\n    tag_220:\n        /* \"#utility.yul\":11786:11810   */\n      tag_401\n        /* \"#utility.yul\":11804:11809   */\n      dup2\n        /* \"#utility.yul\":11786:11810   */\n      tag_185\n      jump\t// in\n    tag_401:\n        /* \"#utility.yul\":11781:11784   */\n      dup3\n        /* \"#utility.yul\":11774:11811   */\n      mstore\n        /* \"#utility.yul\":11699:11817   */\n      pop\n      pop\n      jump\t// out\n        /* \"#utility.yul\":11823:12416   */\n    tag_41:\n        /* \"#utility.yul\":12022:12026   */\n      0x00\n        /* \"#utility.yul\":12060:12062   */\n      0x60\n        /* \"#utility.yul\":12049:12058   */\n      dup3\n        /* \"#utility.yul\":12045:12063   */\n      add\n        /* \"#utility.yul\":12037:12063   */\n      swap1\n      pop\n        /* \"#utility.yul\":12109:12118   */\n      dup2\n        /* \"#utility.yul\":12103:12107   */\n      dup2\n        /* \"#utility.yul\":12099:12119   */\n      sub\n        /* \"#utility.yul\":12095:12096   */\n      0x00\n        /* \"#utility.yul\":12084:12093   */\n      dup4\n        /* \"#utility.yul\":12080:12097   */\n      add\n        /* \"#utility.yul\":12073:12120   */\n      mstore\n        /* \"#utility.yul\":12137:12245   */\n      tag_403\n        /* \"#utility.yul\":12240:12244   */\n      dup2\n        /* \"#utility.yul\":12231:12237   */\n      dup7\n        /* \"#utility.yul\":12137:12245   */\n      tag_219\n      jump\t// in\n    tag_403:\n        /* \"#utility.yul\":12129:12245   */\n      swap1\n      pop\n        /* \"#utility.yul\":12255:12327   */\n      tag_404\n        /* \"#utility.yul\":12323:12325   */\n      0x20\n        /* \"#utility.yul\":12312:12321   */\n      dup4\n        /* \"#utility.yul\":12308:12326   */\n      add\n        /* \"#utility.yul\":12299:12305   */\n      dup6\n        /* \"#utility.yul\":12255:12327   */\n      tag_220\n      jump\t// in\n    tag_404:\n        /* \"#utility.yul\":12337:12409   */\n      tag_405\n        /* \"#utility.yul\":12405:12407   */\n      0x40\n        /* \"#utility.yul\":12394:12403   */\n      dup4\n        /* \"#utility.yul\":12390:12408   */\n      add\n        /* \"#utility.yul\":12381:12387   */\n      dup5\n        /* \"#utility.yul\":12337:12409   */\n      tag_209\n      jump\t// in\n    tag_405:\n        /* \"#utility.yul\":11823:12416   */\n      swap5\n      swap4\n      pop\n      pop\n      pop\n      pop\n      jump\t// out\n        /* \"#utility.yul\":12422:13076   */\n    tag_45:\n        /* \"#utility.yul\":12500:12506   */\n      0x00\n        /* \"#utility.yul\":12508:12514   */\n      dup1\n        /* \"#utility.yul\":12557:12559   */\n      0x40\n        /* \"#utility.yul\":12545:12554   */\n      dup4\n        /* \"#utility.yul\":12536:12543   */\n      dup6\n        /* \"#utility.yul\":12532:12555   */\n      sub\n        /* \"#utility.yul\":12528:12560   */\n      slt\n        /* \"#utility.yul\":12525:12644   */\n      iszero\n      tag_407\n      jumpi\n        /* \"#utility.yul\":12563:12642   */\n      tag_408\n      tag_182\n      jump\t// in\n    tag_408:\n        /* \"#utility.yul\":12525:12644   */\n    tag_407:\n        /* \"#utility.yul\":12683:12684   */\n      0x00\n        /* \"#utility.yul\":12708:12761   */\n      tag_409\n        /* \"#utility.yul\":12753:12760   */\n      dup6\n        /* \"#utility.yul\":12744:12750   */\n      dup3\n        /* \"#utility.yul\":12733:12742   */\n      dup7\n        /* \"#utility.yul\":12729:12751   */\n      add\n        /* \"#utility.yul\":12708:12761   */\n      tag_187\n      jump\t// in\n    tag_409:\n        /* \"#utility.yul\":12698:12761   */\n      swap3\n      pop\n        /* \"#utility.yul\":12654:12771   */\n      pop\n        /* \"#utility.yul\":12838:12840   */\n      0x20\n        /* \"#utility.yul\":12827:12836   */\n      dup4\n        /* \"#utility.yul\":12823:12841   */\n      add\n        /* \"#utility.yul\":12810:12842   */\n      calldataload\n        /* \"#utility.yul\":12869:12887   */\n      0xffffffffffffffff\n        /* \"#utility.yul\":12861:12867   */\n      dup2\n        /* \"#utility.yul\":12858:12888   */\n      gt\n        /* \"#utility.yul\":12855:12972   */\n      iszero\n      tag_410\n      jumpi\n        /* \"#utility.yul\":12891:12970   */\n      tag_411\n      tag_183\n      jump\t// in\n    tag_411:\n        /* \"#utility.yul\":12855:12972   */\n    tag_410:\n        /* \"#utility.yul\":12996:13059   */\n      tag_412\n        /* \"#utility.yul\":13051:13058   */\n      dup6\n        /* \"#utility.yul\":13042:13048   */\n      dup3\n        /* \"#utility.yul\":13031:13040   */\n      dup7\n        /* \"#utility.yul\":13027:13049   */\n      add\n        /* \"#utility.yul\":12996:13059   */\n      tag_196\n      jump\t// in\n    tag_412:\n        /* \"#utility.yul\":12986:13059   */\n      swap2\n      pop\n        /* \"#utility.yul\":12781:13069   */\n      pop\n        /* \"#utility.yul\":12422:13076   */\n      swap3\n      pop\n      swap3\n      swap1\n      pop\n      jump\t// out\n        /* \"#utility.yul\":13082:13175   */\n    tag_221:\n        /* \"#utility.yul\":13118:13125   */\n      0x00\n        /* \"#utility.yul\":13158:13168   */\n      0xffffffff\n        /* \"#utility.yul\":13151:13156   */\n      dup3\n        /* \"#utility.yul\":13147:13169   */\n      and\n        /* \"#utility.yul\":13136:13169   */\n      swap1\n      pop\n        /* \"#utility.yul\":13082:13175   */\n      swap2\n      swap1\n      pop\n      jump\t// out\n        /* \"#utility.yul\":13181:13296   */\n    tag_222:\n        /* \"#utility.yul\":13266:13289   */\n      tag_415\n        /* \"#utility.yul\":13283:13288   */\n      dup2\n        /* \"#utility.yul\":13266:13289   */\n      tag_221\n      jump\t// in\n    tag_415:\n        /* \"#utility.yul\":13261:13264   */\n      dup3\n        /* \"#utility.yul\":13254:13290   */\n      mstore\n        /* \"#utility.yul\":13181:13296   */\n      pop\n      pop\n      jump\t// out\n        /* \"#utility.yul\":13302:13417   */\n    tag_223:\n        /* \"#utility.yul\":13387:13410   */\n      tag_417\n        /* \"#utility.yul\":13404:13409   */\n      dup2\n        /* \"#utility.yul\":13387:13410   */\n      tag_202\n      jump\t// in\n    tag_417:\n        /* \"#utility.yul\":13382:13385   */\n      dup3\n        /* \"#utility.yul\":13375:13411   */\n      mstore\n        /* \"#utility.yul\":13302:13417   */\n      pop\n      pop\n      jump\t// out\n        /* \"#utility.yul\":13423:13513   */\n    tag_224:\n        /* \"#utility.yul\":13457:13464   */\n      0x00\n        /* \"#utility.yul\":13500:13505   */\n      dup2\n        /* \"#utility.yul\":13493:13506   */\n      iszero\n        /* \"#utility.yul\":13486:13507   */\n      iszero\n        /* \"#utility.yul\":13475:13507   */\n      swap1\n      pop\n        /* \"#utility.yul\":13423:13513   */\n      swap2\n      swap1\n      pop\n      jump\t// out\n        /* \"#utility.yul\":13519:13628   */\n    tag_225:\n        /* \"#utility.yul\":13600:13621   */\n      tag_420\n        /* \"#utility.yul\":13615:13620   */\n      dup2\n        /* \"#utility.yul\":13600:13621   */\n      tag_224\n      jump\t// in\n    tag_420:\n        /* \"#utility.yul\":13595:13598   */\n      dup3\n        /* \"#utility.yul\":13588:13622   */\n      mstore\n        /* \"#utility.yul\":13519:13628   */\n      pop\n      pop\n      jump\t// out\n        /* \"#utility.yul\":13634:14167   */\n    tag_52:\n        /* \"#utility.yul\":13801:13805   */\n      0x00\n        /* \"#utility.yul\":13839:13842   */\n      0x80\n        /* \"#utility.yul\":13828:13837   */\n      dup3\n        /* \"#utility.yul\":13824:13843   */\n      add\n        /* \"#utility.yul\":13816:13843   */\n      swap1\n      pop\n        /* \"#utility.yul\":13853:13924   */\n      tag_422\n        /* \"#utility.yul\":13921:13922   */\n      0x00\n        /* \"#utility.yul\":13910:13919   */\n      dup4\n        /* \"#utility.yul\":13906:13923   */\n      add\n        /* \"#utility.yul\":13897:13903   */\n      dup8\n        /* \"#utility.yul\":13853:13924   */\n      tag_220\n      jump\t// in\n    tag_422:\n        /* \"#utility.yul\":13934:14004   */\n      tag_423\n        /* \"#utility.yul\":14000:14002   */\n      0x20\n        /* \"#utility.yul\":13989:13998   */\n      dup4\n        /* \"#utility.yul\":13985:14003   */\n      add\n        /* \"#utility.yul\":13976:13982   */\n      dup7\n        /* \"#utility.yul\":13934:14004   */\n      tag_222\n      jump\t// in\n    tag_423:\n        /* \"#utility.yul\":14014:14084   */\n      tag_424\n        /* \"#utility.yul\":14080:14082   */\n      0x40\n        /* \"#utility.yul\":14069:14078   */\n      dup4\n        /* \"#utility.yul\":14065:14083   */\n      add\n        /* \"#utility.yul\":14056:14062   */\n      dup6\n        /* \"#utility.yul\":14014:14084   */\n      tag_223\n      jump\t// in\n    tag_424:\n        /* \"#utility.yul\":14094:14160   */\n      tag_425\n        /* \"#utility.yul\":14156:14158   */\n      0x60\n        /* \"#utility.yul\":14145:14154   */\n      dup4\n        /* \"#utility.yul\":14141:14159   */\n      add\n        /* \"#utility.yul\":14132:14138   */\n      dup5\n        /* \"#utility.yul\":14094:14160   */\n      tag_225\n      jump\t// in\n    tag_425:\n        /* \"#utility.yul\":13634:14167   */\n      swap6\n      swap5\n      pop\n      pop\n      pop\n      pop\n      pop\n      jump\t// out\n        /* \"#utility.yul\":14173:14502   */\n    tag_56:\n        /* \"#utility.yul\":14232:14238   */\n      0x00\n        /* \"#utility.yul\":14281:14283   */\n      0x20\n        /* \"#utility.yul\":14269:14278   */\n      dup3\n        /* \"#utility.yul\":14260:14267   */\n      dup5\n        /* \"#utility.yul\":14256:14279   */\n      sub\n        /* \"#utility.yul\":14252:14284   */\n      slt\n        /* \"#utility.yul\":14249:14368   */\n      iszero\n      tag_427\n      jumpi\n        /* \"#utility.yul\":14287:14366   */\n      tag_428\n      tag_182\n      jump\t// in\n    tag_428:\n        /* \"#utility.yul\":14249:14368   */\n    tag_427:\n        /* \"#utility.yul\":14407:14408   */\n      0x00\n        /* \"#utility.yul\":14432:14485   */\n      tag_429\n        /* \"#utility.yul\":14477:14484   */\n      dup5\n        /* \"#utility.yul\":14468:14474   */\n      dup3\n        /* \"#utility.yul\":14457:14466   */\n      dup6\n        /* \"#utility.yul\":14453:14475   */\n      add\n        /* \"#utility.yul\":14432:14485   */\n      tag_187\n      jump\t// in\n    tag_429:\n        /* \"#utility.yul\":14422:14485   */\n      swap2\n      pop\n        /* \"#utility.yul\":14378:14495   */\n      pop\n        /* \"#utility.yul\":14173:14502   */\n      swap3\n      swap2\n      pop\n      pop\n      jump\t// out\n        /* \"#utility.yul\":14508:14730   */\n    tag_59:\n        /* \"#utility.yul\":14601:14605   */\n      0x00\n        /* \"#utility.yul\":14639:14641   */\n      0x20\n        /* \"#utility.yul\":14628:14637   */\n      dup3\n        /* \"#utility.yul\":14624:14642   */\n      add\n        /* \"#utility.yul\":14616:14642   */\n      swap1\n      pop\n        /* \"#utility.yul\":14652:14723   */\n      tag_431\n        /* \"#utility.yul\":14720:14721   */\n      0x00\n        /* \"#utility.yul\":14709:14718   */\n      dup4\n        /* \"#utility.yul\":14705:14722   */\n      add\n        /* \"#utility.yul\":14696:14702   */\n      dup5\n        /* \"#utility.yul\":14652:14723   */\n      tag_209\n      jump\t// in\n    tag_431:\n        /* \"#utility.yul\":14508:14730   */\n      swap3\n      swap2\n      pop\n      pop\n      jump\t// out\n        /* \"#utility.yul\":14736:14850   */\n    tag_226:\n        /* \"#utility.yul\":14803:14809   */\n      0x00\n        /* \"#utility.yul\":14837:14842   */\n      dup2\n        /* \"#utility.yul\":14831:14843   */\n      mload\n        /* \"#utility.yul\":14821:14843   */\n      swap1\n      pop\n        /* \"#utility.yul\":14736:14850   */\n      swap2\n      swap1\n      pop\n      jump\t// out\n        /* \"#utility.yul\":14856:15040   */\n    tag_227:\n        /* \"#utility.yul\":14955:14966   */\n      0x00\n        /* \"#utility.yul\":14989:14995   */\n      dup3\n        /* \"#utility.yul\":14984:14987   */\n      dup3\n        /* \"#utility.yul\":14977:14996   */\n      mstore\n        /* \"#utility.yul\":15029:15033   */\n      0x20\n        /* \"#utility.yul\":15024:15027   */\n      dup3\n        /* \"#utility.yul\":15020:15034   */\n      add\n        /* \"#utility.yul\":15005:15034   */\n      swap1\n      pop\n        /* \"#utility.yul\":14856:15040   */\n      swap3\n      swap2\n      pop\n      pop\n      jump\t// out\n        /* \"#utility.yul\":15046:15178   */\n    tag_228:\n        /* \"#utility.yul\":15113:15117   */\n      0x00\n        /* \"#utility.yul\":15136:15139   */\n      dup2\n        /* \"#utility.yul\":15128:15139   */\n      swap1\n      pop\n        /* \"#utility.yul\":15166:15170   */\n      0x20\n        /* \"#utility.yul\":15161:15164   */\n      dup3\n        /* \"#utility.yul\":15157:15171   */\n      add\n        /* \"#utility.yul\":15149:15171   */\n      swap1\n      pop\n        /* \"#utility.yul\":15046:15178   */\n      swap2\n      swap1\n      pop\n      jump\t// out\n        /* \"#utility.yul\":15184:15292   */\n    tag_229:\n        /* \"#utility.yul\":15261:15285   */\n      tag_436\n        /* \"#utility.yul\":15279:15284   */\n      dup2\n        /* \"#utility.yul\":15261:15285   */\n      tag_185\n      jump\t// in\n    tag_436:\n        /* \"#utility.yul\":15256:15259   */\n      dup3\n        /* \"#utility.yul\":15249:15286   */\n      mstore\n        /* \"#utility.yul\":15184:15292   */\n      pop\n      pop\n      jump\t// out\n        /* \"#utility.yul\":15298:15477   */\n    tag_230:\n        /* \"#utility.yul\":15367:15377   */\n      0x00\n        /* \"#utility.yul\":15388:15434   */\n      tag_438\n        /* \"#utility.yul\":15430:15433   */\n      dup4\n        /* \"#utility.yul\":15422:15428   */\n      dup4\n        /* \"#utility.yul\":15388:15434   */\n      tag_229\n      jump\t// in\n    tag_438:\n        /* \"#utility.yul\":15466:15470   */\n      0x20\n        /* \"#utility.yul\":15461:15464   */\n      dup4\n        /* \"#utility.yul\":15457:15471   */\n      add\n        /* \"#utility.yul\":15443:15471   */\n      swap1\n      pop\n        /* \"#utility.yul\":15298:15477   */\n      swap3\n      swap2\n      pop\n      pop\n      jump\t// out\n        /* \"#utility.yul\":15483:15596   */\n    tag_231:\n        /* \"#utility.yul\":15553:15557   */\n      0x00\n        /* \"#utility.yul\":15585:15589   */\n      0x20\n        /* \"#utility.yul\":15580:15583   */\n      dup3\n        /* \"#utility.yul\":15576:15590   */\n      add\n        /* \"#utility.yul\":15568:15590   */\n      swap1\n      pop\n        /* \"#utility.yul\":15483:15596   */\n      swap2\n      swap1\n      pop\n      jump\t// out\n        /* \"#utility.yul\":15632:16364   */\n    tag_232:\n        /* \"#utility.yul\":15751:15754   */\n      0x00\n        /* \"#utility.yul\":15780:15834   */\n      tag_441\n        /* \"#utility.yul\":15828:15833   */\n      dup3\n        /* \"#utility.yul\":15780:15834   */\n      tag_226\n      jump\t// in\n    tag_441:\n        /* \"#utility.yul\":15850:15936   */\n      tag_442\n        /* \"#utility.yul\":15929:15935   */\n      dup2\n        /* \"#utility.yul\":15924:15927   */\n      dup6\n        /* \"#utility.yul\":15850:15936   */\n      tag_227\n      jump\t// in\n    tag_442:\n        /* \"#utility.yul\":15843:15936   */\n      swap4\n      pop\n        /* \"#utility.yul\":15960:16016   */\n      tag_443\n        /* \"#utility.yul\":16010:16015   */\n      dup4\n        /* \"#utility.yul\":15960:16016   */\n      tag_228\n      jump\t// in\n    tag_443:\n        /* \"#utility.yul\":16039:16046   */\n      dup1\n        /* \"#utility.yul\":16070:16071   */\n      0x00\n        /* \"#utility.yul\":16055:16339   */\n    tag_444:\n        /* \"#utility.yul\":16080:16086   */\n      dup4\n        /* \"#utility.yul\":16077:16078   */\n      dup2\n        /* \"#utility.yul\":16074:16087   */\n      lt\n        /* \"#utility.yul\":16055:16339   */\n      iszero\n      tag_446\n      jumpi\n        /* \"#utility.yul\":16156:16162   */\n      dup2\n        /* \"#utility.yul\":16150:16163   */\n      mload\n        /* \"#utility.yul\":16183:16246   */\n      tag_447\n        /* \"#utility.yul\":16242:16245   */\n      dup9\n        /* \"#utility.yul\":16227:16240   */\n      dup3\n        /* \"#utility.yul\":16183:16246   */\n      tag_230\n      jump\t// in\n    tag_447:\n        /* \"#utility.yul\":16176:16246   */\n      swap8\n      pop\n        /* \"#utility.yul\":16269:16329   */\n      tag_448\n        /* \"#utility.yul\":16322:16328   */\n      dup4\n        /* \"#utility.yul\":16269:16329   */\n      tag_231\n      jump\t// in\n    tag_448:\n        /* \"#utility.yul\":16259:16329   */\n      swap3\n      pop\n        /* \"#utility.yul\":16115:16339   */\n      pop\n        /* \"#utility.yul\":16102:16103   */\n      0x01\n        /* \"#utility.yul\":16099:16100   */\n      dup2\n        /* \"#utility.yul\":16095:16104   */\n      add\n        /* \"#utility.yul\":16090:16104   */\n      swap1\n      pop\n        /* \"#utility.yul\":16055:16339   */\n      jump(tag_444)\n    tag_446:\n        /* \"#utility.yul\":16059:16073   */\n      pop\n        /* \"#utility.yul\":16355:16358   */\n      dup6\n        /* \"#utility.yul\":16348:16358   */\n      swap4\n      pop\n        /* \"#utility.yul\":15756:16364   */\n      pop\n      pop\n      pop\n        /* \"#utility.yul\":15632:16364   */\n      swap3\n      swap2\n      pop\n      pop\n      jump\t// out\n        /* \"#utility.yul\":16370:16743   */\n    tag_70:\n        /* \"#utility.yul\":16513:16517   */\n      0x00\n        /* \"#utility.yul\":16551:16553   */\n      0x20\n        /* \"#utility.yul\":16540:16549   */\n      dup3\n        /* \"#utility.yul\":16536:16554   */\n      add\n        /* \"#utility.yul\":16528:16554   */\n      swap1\n      pop\n        /* \"#utility.yul\":16600:16609   */\n      dup2\n        /* \"#utility.yul\":16594:16598   */\n      dup2\n        /* \"#utility.yul\":16590:16610   */\n      sub\n        /* \"#utility.yul\":16586:16587   */\n      0x00\n        /* \"#utility.yul\":16575:16584   */\n      dup4\n        /* \"#utility.yul\":16571:16588   */\n      add\n        /* \"#utility.yul\":16564:16611   */\n      mstore\n        /* \"#utility.yul\":16628:16736   */\n      tag_450\n        /* \"#utility.yul\":16731:16735   */\n      dup2\n        /* \"#utility.yul\":16722:16728   */\n      dup5\n        /* \"#utility.yul\":16628:16736   */\n      tag_232\n      jump\t// in\n    tag_450:\n        /* \"#utility.yul\":16620:16736   */\n      swap1\n      pop\n        /* \"#utility.yul\":16370:16743   */\n      swap3\n      swap2\n      pop\n      pop\n      jump\t// out\n        /* \"#utility.yul\":16749:16843   */\n    tag_233:\n        /* \"#utility.yul\":16782:16790   */\n      0x00\n        /* \"#utility.yul\":16830:16835   */\n      dup2\n        /* \"#utility.yul\":16826:16828   */\n      0x60\n        /* \"#utility.yul\":16822:16836   */\n      shl\n        /* \"#utility.yul\":16801:16836   */\n      swap1\n      pop\n        /* \"#utility.yul\":16749:16843   */\n      swap2\n      swap1\n      pop\n      jump\t// out\n        /* \"#utility.yul\":16849:16943   */\n    tag_234:\n        /* \"#utility.yul\":16888:16895   */\n      0x00\n        /* \"#utility.yul\":16917:16937   */\n      tag_453\n        /* \"#utility.yul\":16931:16936   */\n      dup3\n        /* \"#utility.yul\":16917:16937   */\n      tag_233\n      jump\t// in\n    tag_453:\n        /* \"#utility.yul\":16906:16937   */\n      swap1\n      pop\n        /* \"#utility.yul\":16849:16943   */\n      swap2\n      swap1\n      pop\n      jump\t// out\n        /* \"#utility.yul\":16949:17049   */\n    tag_235:\n        /* \"#utility.yul\":16988:16995   */\n      0x00\n        /* \"#utility.yul\":17017:17043   */\n      tag_455\n        /* \"#utility.yul\":17037:17042   */\n      dup3\n        /* \"#utility.yul\":17017:17043   */\n      tag_234\n      jump\t// in\n    tag_455:\n        /* \"#utility.yul\":17006:17043   */\n      swap1\n      pop\n        /* \"#utility.yul\":16949:17049   */\n      swap2\n      swap1\n      pop\n      jump\t// out\n        /* \"#utility.yul\":17055:17212   */\n    tag_236:\n        /* \"#utility.yul\":17160:17205   */\n      tag_457\n        /* \"#utility.yul\":17180:17204   */\n      tag_458\n        /* \"#utility.yul\":17198:17203   */\n      dup3\n        /* \"#utility.yul\":17180:17204   */\n      tag_185\n      jump\t// in\n    tag_458:\n        /* \"#utility.yul\":17160:17205   */\n      tag_235\n      jump\t// in\n    tag_457:\n        /* \"#utility.yul\":17155:17158   */\n      dup3\n        /* \"#utility.yul\":17148:17206   */\n      mstore\n        /* \"#utility.yul\":17055:17212   */\n      pop\n      pop\n      jump\t// out\n        /* \"#utility.yul\":17218:17366   */\n    tag_237:\n        /* \"#utility.yul\":17320:17331   */\n      0x00\n        /* \"#utility.yul\":17357:17360   */\n      dup2\n        /* \"#utility.yul\":17342:17360   */\n      swap1\n      pop\n        /* \"#utility.yul\":17218:17366   */\n      swap3\n      swap2\n      pop\n      pop\n      jump\t// out\n        /* \"#utility.yul\":17372:17545   */\n    tag_238:\n        /* \"#utility.yul\":17512:17537   */\n      0x6d6574617472616e73616374696f6e20566f74696e6720000000000000000000\n        /* \"#utility.yul\":17508:17509   */\n      0x00\n        /* \"#utility.yul\":17500:17506   */\n      dup3\n        /* \"#utility.yul\":17496:17510   */\n      add\n        /* \"#utility.yul\":17489:17538   */\n      mstore\n        /* \"#utility.yul\":17372:17545   */\n      pop\n      jump\t// out\n        /* \"#utility.yul\":17551:17953   */\n    tag_239:\n        /* \"#utility.yul\":17711:17714   */\n      0x00\n        /* \"#utility.yul\":17732:17817   */\n      tag_462\n        /* \"#utility.yul\":17814:17816   */\n      0x17\n        /* \"#utility.yul\":17809:17812   */\n      dup4\n        /* \"#utility.yul\":17732:17817   */\n      tag_237\n      jump\t// in\n    tag_462:\n        /* \"#utility.yul\":17725:17817   */\n      swap2\n      pop\n        /* \"#utility.yul\":17826:17919   */\n      tag_463\n        /* \"#utility.yul\":17915:17918   */\n      dup3\n        /* \"#utility.yul\":17826:17919   */\n      tag_238\n      jump\t// in\n    tag_463:\n        /* \"#utility.yul\":17944:17946   */\n      0x17\n        /* \"#utility.yul\":17939:17942   */\n      dup3\n        /* \"#utility.yul\":17935:17947   */\n      add\n        /* \"#utility.yul\":17928:17947   */\n      swap1\n      pop\n        /* \"#utility.yul\":17551:17953   */\n      swap2\n      swap1\n      pop\n      jump\t// out\n        /* \"#utility.yul\":17959:18336   */\n    tag_240:\n        /* \"#utility.yul\":18065:18068   */\n      0x00\n        /* \"#utility.yul\":18093:18132   */\n      tag_465\n        /* \"#utility.yul\":18126:18131   */\n      dup3\n        /* \"#utility.yul\":18093:18132   */\n      tag_205\n      jump\t// in\n    tag_465:\n        /* \"#utility.yul\":18148:18237   */\n      tag_466\n        /* \"#utility.yul\":18230:18236   */\n      dup2\n        /* \"#utility.yul\":18225:18228   */\n      dup6\n        /* \"#utility.yul\":18148:18237   */\n      tag_237\n      jump\t// in\n    tag_466:\n        /* \"#utility.yul\":18141:18237   */\n      swap4\n      pop\n        /* \"#utility.yul\":18246:18298   */\n      tag_467\n        /* \"#utility.yul\":18291:18297   */\n      dup2\n        /* \"#utility.yul\":18286:18289   */\n      dup6\n        /* \"#utility.yul\":18279:18283   */\n      0x20\n        /* \"#utility.yul\":18272:18277   */\n      dup7\n        /* \"#utility.yul\":18268:18284   */\n      add\n        /* \"#utility.yul\":18246:18298   */\n      tag_207\n      jump\t// in\n    tag_467:\n        /* \"#utility.yul\":18323:18329   */\n      dup1\n        /* \"#utility.yul\":18318:18321   */\n      dup5\n        /* \"#utility.yul\":18314:18330   */\n      add\n        /* \"#utility.yul\":18307:18330   */\n      swap2\n      pop\n        /* \"#utility.yul\":18069:18336   */\n      pop\n        /* \"#utility.yul\":17959:18336   */\n      swap3\n      swap2\n      pop\n      pop\n      jump\t// out\n        /* \"#utility.yul\":18342:18421   */\n    tag_241:\n        /* \"#utility.yul\":18381:18388   */\n      0x00\n        /* \"#utility.yul\":18410:18415   */\n      dup2\n        /* \"#utility.yul\":18399:18415   */\n      swap1\n      pop\n        /* \"#utility.yul\":18342:18421   */\n      swap2\n      swap1\n      pop\n      jump\t// out\n        /* \"#utility.yul\":18427:18584   */\n    tag_242:\n        /* \"#utility.yul\":18532:18577   */\n      tag_470\n        /* \"#utility.yul\":18552:18576   */\n      tag_471\n        /* \"#utility.yul\":18570:18575   */\n      dup3\n        /* \"#utility.yul\":18552:18576   */\n      tag_197\n      jump\t// in\n    tag_471:\n        /* \"#utility.yul\":18532:18577   */\n      tag_241\n      jump\t// in\n    tag_470:\n        /* \"#utility.yul\":18527:18530   */\n      dup3\n        /* \"#utility.yul\":18520:18578   */\n      mstore\n        /* \"#utility.yul\":18427:18584   */\n      pop\n      pop\n      jump\t// out\n        /* \"#utility.yul\":18590:19695   */\n    tag_77:\n        /* \"#utility.yul\":18935:18938   */\n      0x00\n        /* \"#utility.yul\":18950:19025   */\n      tag_473\n        /* \"#utility.yul\":19021:19024   */\n      dup3\n        /* \"#utility.yul\":19012:19018   */\n      dup9\n        /* \"#utility.yul\":18950:19025   */\n      tag_236\n      jump\t// in\n    tag_473:\n        /* \"#utility.yul\":19050:19052   */\n      0x14\n        /* \"#utility.yul\":19045:19048   */\n      dup3\n        /* \"#utility.yul\":19041:19053   */\n      add\n        /* \"#utility.yul\":19034:19053   */\n      swap2\n      pop\n        /* \"#utility.yul\":19070:19218   */\n      tag_474\n        /* \"#utility.yul\":19214:19217   */\n      dup3\n        /* \"#utility.yul\":19070:19218   */\n      tag_239\n      jump\t// in\n    tag_474:\n        /* \"#utility.yul\":19063:19218   */\n      swap2\n      pop\n        /* \"#utility.yul\":19228:19303   */\n      tag_475\n        /* \"#utility.yul\":19299:19302   */\n      dup3\n        /* \"#utility.yul\":19290:19296   */\n      dup8\n        /* \"#utility.yul\":19228:19303   */\n      tag_236\n      jump\t// in\n    tag_475:\n        /* \"#utility.yul\":19328:19330   */\n      0x14\n        /* \"#utility.yul\":19323:19326   */\n      dup3\n        /* \"#utility.yul\":19319:19331   */\n      add\n        /* \"#utility.yul\":19312:19331   */\n      swap2\n      pop\n        /* \"#utility.yul\":19348:19443   */\n      tag_476\n        /* \"#utility.yul\":19439:19442   */\n      dup3\n        /* \"#utility.yul\":19430:19436   */\n      dup7\n        /* \"#utility.yul\":19348:19443   */\n      tag_240\n      jump\t// in\n    tag_476:\n        /* \"#utility.yul\":19341:19443   */\n      swap2\n      pop\n        /* \"#utility.yul\":19453:19528   */\n      tag_477\n        /* \"#utility.yul\":19524:19527   */\n      dup3\n        /* \"#utility.yul\":19515:19521   */\n      dup6\n        /* \"#utility.yul\":19453:19528   */\n      tag_242\n      jump\t// in\n    tag_477:\n        /* \"#utility.yul\":19553:19555   */\n      0x20\n        /* \"#utility.yul\":19548:19551   */\n      dup3\n        /* \"#utility.yul\":19544:19556   */\n      add\n        /* \"#utility.yul\":19537:19556   */\n      swap2\n      pop\n        /* \"#utility.yul\":19566:19641   */\n      tag_478\n        /* \"#utility.yul\":19637:19640   */\n      dup3\n        /* \"#utility.yul\":19628:19634   */\n      dup5\n        /* \"#utility.yul\":19566:19641   */\n      tag_242\n      jump\t// in\n    tag_478:\n        /* \"#utility.yul\":19666:19668   */\n      0x20\n        /* \"#utility.yul\":19661:19664   */\n      dup3\n        /* \"#utility.yul\":19657:19669   */\n      add\n        /* \"#utility.yul\":19650:19669   */\n      swap2\n      pop\n        /* \"#utility.yul\":19686:19689   */\n      dup2\n        /* \"#utility.yul\":19679:19689   */\n      swap1\n      pop\n        /* \"#utility.yul\":18590:19695   */\n      swap7\n      swap6\n      pop\n      pop\n      pop\n      pop\n      pop\n      pop\n      jump\t// out\n        /* \"#utility.yul\":19701:19976   */\n    tag_80:\n        /* \"#utility.yul\":19833:19836   */\n      0x00\n        /* \"#utility.yul\":19855:19950   */\n      tag_480\n        /* \"#utility.yul\":19946:19949   */\n      dup3\n        /* \"#utility.yul\":19937:19943   */\n      dup5\n        /* \"#utility.yul\":19855:19950   */\n      tag_240\n      jump\t// in\n    tag_480:\n        /* \"#utility.yul\":19848:19950   */\n      swap2\n      pop\n        /* \"#utility.yul\":19967:19970   */\n      dup2\n        /* \"#utility.yul\":19960:19970   */\n      swap1\n      pop\n        /* \"#utility.yul\":19701:19976   */\n      swap3\n      swap2\n      pop\n      pop\n      jump\t// out\n        /* \"#utility.yul\":19982:20211   */\n    tag_243:\n        /* \"#utility.yul\":20122:20156   */\n      0x54686973206164647265737320646f6573206e6f742065786973742061732061\n        /* \"#utility.yul\":20118:20119   */\n      0x00\n        /* \"#utility.yul\":20110:20116   */\n      dup3\n        /* \"#utility.yul\":20106:20120   */\n      add\n        /* \"#utility.yul\":20099:20157   */\n      mstore\n        /* \"#utility.yul\":20191:20203   */\n      0x2063616e64696461746500000000000000000000000000000000000000000000\n        /* \"#utility.yul\":20186:20188   */\n      0x20\n        /* \"#utility.yul\":20178:20184   */\n      dup3\n        /* \"#utility.yul\":20174:20189   */\n      add\n        /* \"#utility.yul\":20167:20204   */\n      mstore\n        /* \"#utility.yul\":19982:20211   */\n      pop\n      jump\t// out\n        /* \"#utility.yul\":20217:20583   */\n    tag_244:\n        /* \"#utility.yul\":20359:20362   */\n      0x00\n        /* \"#utility.yul\":20380:20447   */\n      tag_483\n        /* \"#utility.yul\":20444:20446   */\n      0x2a\n        /* \"#utility.yul\":20439:20442   */\n      dup4\n        /* \"#utility.yul\":20380:20447   */\n      tag_206\n      jump\t// in\n    tag_483:\n        /* \"#utility.yul\":20373:20447   */\n      swap2\n      pop\n        /* \"#utility.yul\":20456:20549   */\n      tag_484\n        /* \"#utility.yul\":20545:20548   */\n      dup3\n        /* \"#utility.yul\":20456:20549   */\n      tag_243\n      jump\t// in\n    tag_484:\n        /* \"#utility.yul\":20574:20576   */\n      0x40\n        /* \"#utility.yul\":20569:20572   */\n      dup3\n        /* \"#utility.yul\":20565:20577   */\n      add\n        /* \"#utility.yul\":20558:20577   */\n      swap1\n      pop\n        /* \"#utility.yul\":20217:20583   */\n      swap2\n      swap1\n      pop\n      jump\t// out\n        /* \"#utility.yul\":20589:21008   */\n    tag_85:\n        /* \"#utility.yul\":20755:20759   */\n      0x00\n        /* \"#utility.yul\":20793:20795   */\n      0x20\n        /* \"#utility.yul\":20782:20791   */\n      dup3\n        /* \"#utility.yul\":20778:20796   */\n      add\n        /* \"#utility.yul\":20770:20796   */\n      swap1\n      pop\n        /* \"#utility.yul\":20842:20851   */\n      dup2\n        /* \"#utility.yul\":20836:20840   */\n      dup2\n        /* \"#utility.yul\":20832:20852   */\n      sub\n        /* \"#utility.yul\":20828:20829   */\n      0x00\n        /* \"#utility.yul\":20817:20826   */\n      dup4\n        /* \"#utility.yul\":20813:20830   */\n      add\n        /* \"#utility.yul\":20806:20853   */\n      mstore\n        /* \"#utility.yul\":20870:21001   */\n      tag_486\n        /* \"#utility.yul\":20996:21000   */\n      dup2\n        /* \"#utility.yul\":20870:21001   */\n      tag_244\n      jump\t// in\n    tag_486:\n        /* \"#utility.yul\":20862:21001   */\n      swap1\n      pop\n        /* \"#utility.yul\":20589:21008   */\n      swap2\n      swap1\n      pop\n      jump\t// out\n        /* \"#utility.yul\":21014:21180   */\n    tag_245:\n        /* \"#utility.yul\":21154:21172   */\n      0x766f74696e672068617320656e64656400000000000000000000000000000000\n        /* \"#utility.yul\":21150:21151   */\n      0x00\n        /* \"#utility.yul\":21142:21148   */\n      dup3\n        /* \"#utility.yul\":21138:21152   */\n      add\n        /* \"#utility.yul\":21131:21173   */\n      mstore\n        /* \"#utility.yul\":21014:21180   */\n      pop\n      jump\t// out\n        /* \"#utility.yul\":21186:21552   */\n    tag_246:\n        /* \"#utility.yul\":21328:21331   */\n      0x00\n        /* \"#utility.yul\":21349:21416   */\n      tag_489\n        /* \"#utility.yul\":21413:21415   */\n      0x10\n        /* \"#utility.yul\":21408:21411   */\n      dup4\n        /* \"#utility.yul\":21349:21416   */\n      tag_206\n      jump\t// in\n    tag_489:\n        /* \"#utility.yul\":21342:21416   */\n      swap2\n      pop\n        /* \"#utility.yul\":21425:21518   */\n      tag_490\n        /* \"#utility.yul\":21514:21517   */\n      dup3\n        /* \"#utility.yul\":21425:21518   */\n      tag_245\n      jump\t// in\n    tag_490:\n        /* \"#utility.yul\":21543:21545   */\n      0x20\n        /* \"#utility.yul\":21538:21541   */\n      dup3\n        /* \"#utility.yul\":21534:21546   */\n      add\n        /* \"#utility.yul\":21527:21546   */\n      swap1\n      pop\n        /* \"#utility.yul\":21186:21552   */\n      swap2\n      swap1\n      pop\n      jump\t// out\n        /* \"#utility.yul\":21558:21977   */\n    tag_90:\n        /* \"#utility.yul\":21724:21728   */\n      0x00\n        /* \"#utility.yul\":21762:21764   */\n      0x20\n        /* \"#utility.yul\":21751:21760   */\n      dup3\n        /* \"#utility.yul\":21747:21765   */\n      add\n        /* \"#utility.yul\":21739:21765   */\n      swap1\n      pop\n        /* \"#utility.yul\":21811:21820   */\n      dup2\n        /* \"#utility.yul\":21805:21809   */\n      dup2\n        /* \"#utility.yul\":21801:21821   */\n      sub\n        /* \"#utility.yul\":21797:21798   */\n      0x00\n        /* \"#utility.yul\":21786:21795   */\n      dup4\n        /* \"#utility.yul\":21782:21799   */\n      add\n        /* \"#utility.yul\":21775:21822   */\n      mstore\n        /* \"#utility.yul\":21839:21970   */\n      tag_492\n        /* \"#utility.yul\":21965:21969   */\n      dup2\n        /* \"#utility.yul\":21839:21970   */\n      tag_246\n      jump\t// in\n    tag_492:\n        /* \"#utility.yul\":21831:21970   */\n      swap1\n      pop\n        /* \"#utility.yul\":21558:21977   */\n      swap2\n      swap1\n      pop\n      jump\t// out\n        /* \"#utility.yul\":21983:22163   */\n    tag_247:\n        /* \"#utility.yul\":22031:22108   */\n      0x4e487b7100000000000000000000000000000000000000000000000000000000\n        /* \"#utility.yul\":22028:22029   */\n      0x00\n        /* \"#utility.yul\":22021:22109   */\n      mstore\n        /* \"#utility.yul\":22128:22132   */\n      0x11\n        /* \"#utility.yul\":22125:22126   */\n      0x04\n        /* \"#utility.yul\":22118:22133   */\n      mstore\n        /* \"#utility.yul\":22152:22156   */\n      0x24\n        /* \"#utility.yul\":22149:22150   */\n      0x00\n        /* \"#utility.yul\":22142:22157   */\n      revert\n        /* \"#utility.yul\":22169:22402   */\n    tag_98:\n        /* \"#utility.yul\":22208:22211   */\n      0x00\n        /* \"#utility.yul\":22231:22255   */\n      tag_495\n        /* \"#utility.yul\":22249:22254   */\n      dup3\n        /* \"#utility.yul\":22231:22255   */\n      tag_197\n      jump\t// in\n    tag_495:\n        /* \"#utility.yul\":22222:22255   */\n      swap2\n      pop\n        /* \"#utility.yul\":22277:22343   */\n      0xffffffffffffffffffffffffffffffffffffffffffffffffffffffffffffffff\n        /* \"#utility.yul\":22270:22275   */\n      dup3\n        /* \"#utility.yul\":22267:22344   */\n      eq\n        /* \"#utility.yul\":22264:22367   */\n      iszero\n      tag_496\n      jumpi\n        /* \"#utility.yul\":22347:22365   */\n      tag_497\n      tag_247\n      jump\t// in\n    tag_497:\n        /* \"#utility.yul\":22264:22367   */\n    tag_496:\n        /* \"#utility.yul\":22394:22395   */\n      0x01\n        /* \"#utility.yul\":22387:22392   */\n      dup3\n        /* \"#utility.yul\":22383:22396   */\n      add\n        /* \"#utility.yul\":22376:22396   */\n      swap1\n      pop\n        /* \"#utility.yul\":22169:22402   */\n      swap2\n      swap1\n      pop\n      jump\t// out\n        /* \"#utility.yul\":22408:22575   */\n    tag_248:\n        /* \"#utility.yul\":22548:22567   */\n      0x596f7520616c726561647920766f746564000000000000000000000000000000\n        /* \"#utility.yul\":22544:22545   */\n      0x00\n        /* \"#utility.yul\":22536:22542   */\n      dup3\n        /* \"#utility.yul\":22532:22546   */\n      add\n        /* \"#utility.yul\":22525:22568   */\n      mstore\n        /* \"#utility.yul\":22408:22575   */\n      pop\n      jump\t// out\n        /* \"#utility.yul\":22581:22947   */\n    tag_249:\n        /* \"#utility.yul\":22723:22726   */\n      0x00\n        /* \"#utility.yul\":22744:22811   */\n      tag_500\n        /* \"#utility.yul\":22808:22810   */\n      0x11\n        /* \"#utility.yul\":22803:22806   */\n      dup4\n        /* \"#utility.yul\":22744:22811   */\n      tag_206\n      jump\t// in\n    tag_500:\n        /* \"#utility.yul\":22737:22811   */\n      swap2\n      pop\n        /* \"#utility.yul\":22820:22913   */\n      tag_501\n        /* \"#utility.yul\":22909:22912   */\n      dup3\n        /* \"#utility.yul\":22820:22913   */\n      tag_248\n      jump\t// in\n    tag_501:\n        /* \"#utility.yul\":22938:22940   */\n      0x20\n        /* \"#utility.yul\":22933:22936   */\n      dup3\n        /* \"#utility.yul\":22929:22941   */\n      add\n        /* \"#utility.yul\":22922:22941   */\n      swap1\n      pop\n        /* \"#utility.yul\":22581:22947   */\n      swap2\n      swap1\n      pop\n      jump\t// out\n        /* \"#utility.yul\":22953:23372   */\n    tag_102:\n        /* \"#utility.yul\":23119:23123   */\n      0x00\n        /* \"#utility.yul\":23157:23159   */\n      0x20\n        /* \"#utility.yul\":23146:23155   */\n      dup3\n        /* \"#utility.yul\":23142:23160   */\n      add\n        /* \"#utility.yul\":23134:23160   */\n      swap1\n      pop\n        /* \"#utility.yul\":23206:23215   */\n      dup2\n        /* \"#utility.yul\":23200:23204   */\n      dup2\n        /* \"#utility.yul\":23196:23216   */\n      sub\n        /* \"#utility.yul\":23192:23193   */\n      0x00\n        /* \"#utility.yul\":23181:23190   */\n      dup4\n        /* \"#utility.yul\":23177:23194   */\n      add\n        /* \"#utility.yul\":23170:23217   */\n      mstore\n        /* \"#utility.yul\":23234:23365   */\n      tag_503\n        /* \"#utility.yul\":23360:23364   */\n      dup2\n        /* \"#utility.yul\":23234:23365   */\n      tag_249\n      jump\t// in\n    tag_503:\n        /* \"#utility.yul\":23226:23365   */\n      swap1\n      pop\n        /* \"#utility.yul\":22953:23372   */\n      swap2\n      swap1\n      pop\n      jump\t// out\n        /* \"#utility.yul\":23378:23698   */\n    tag_106:\n        /* \"#utility.yul\":23493:23497   */\n      0x00\n        /* \"#utility.yul\":23531:23533   */\n      0x40\n        /* \"#utility.yul\":23520:23529   */\n      dup3\n        /* \"#utility.yul\":23516:23534   */\n      add\n        /* \"#utility.yul\":23508:23534   */\n      swap1\n      pop\n        /* \"#utility.yul\":23544:23615   */\n      tag_505\n        /* \"#utility.yul\":23612:23613   */\n      0x00\n        /* \"#utility.yul\":23601:23610   */\n      dup4\n        /* \"#utility.yul\":23597:23614   */\n      add\n        /* \"#utility.yul\":23588:23594   */\n      dup6\n        /* \"#utility.yul\":23544:23615   */\n      tag_220\n      jump\t// in\n    tag_505:\n        /* \"#utility.yul\":23625:23691   */\n      tag_506\n        /* \"#utility.yul\":23687:23689   */\n      0x20\n        /* \"#utility.yul\":23676:23685   */\n      dup4\n        /* \"#utility.yul\":23672:23690   */\n      add\n        /* \"#utility.yul\":23663:23669   */\n      dup5\n        /* \"#utility.yul\":23625:23691   */\n      tag_225\n      jump\t// in\n    tag_506:\n        /* \"#utility.yul\":23378:23698   */\n      swap4\n      swap3\n      pop\n      pop\n      pop\n      jump\t// out\n        /* \"#utility.yul\":23704:23869   */\n    tag_250:\n        /* \"#utility.yul\":23844:23861   */\n      0x4e6f20706f6c6c20637265617465640000000000000000000000000000000000\n        /* \"#utility.yul\":23840:23841   */\n      0x00\n        /* \"#utility.yul\":23832:23838   */\n      dup3\n        /* \"#utility.yul\":23828:23842   */\n      add\n        /* \"#utility.yul\":23821:23862   */\n      mstore\n        /* \"#utility.yul\":23704:23869   */\n      pop\n      jump\t// out\n        /* \"#utility.yul\":23875:24241   */\n    tag_251:\n        /* \"#utility.yul\":24017:24020   */\n      0x00\n        /* \"#utility.yul\":24038:24105   */\n      tag_509\n        /* \"#utility.yul\":24102:24104   */\n      0x0f\n        /* \"#utility.yul\":24097:24100   */\n      dup4\n        /* \"#utility.yul\":24038:24105   */\n      tag_206\n      jump\t// in\n    tag_509:\n        /* \"#utility.yul\":24031:24105   */\n      swap2\n      pop\n        /* \"#utility.yul\":24114:24207   */\n      tag_510\n        /* \"#utility.yul\":24203:24206   */\n      dup3\n        /* \"#utility.yul\":24114:24207   */\n      tag_250\n      jump\t// in\n    tag_510:\n        /* \"#utility.yul\":24232:24234   */\n      0x20\n        /* \"#utility.yul\":24227:24230   */\n      dup3\n        /* \"#utility.yul\":24223:24235   */\n      add\n        /* \"#utility.yul\":24216:24235   */\n      swap1\n      pop\n        /* \"#utility.yul\":23875:24241   */\n      swap2\n      swap1\n      pop\n      jump\t// out\n        /* \"#utility.yul\":24247:24666   */\n    tag_111:\n        /* \"#utility.yul\":24413:24417   */\n      0x00\n        /* \"#utility.yul\":24451:24453   */\n      0x20\n        /* \"#utility.yul\":24440:24449   */\n      dup3\n        /* \"#utility.yul\":24436:24454   */\n      add\n        /* \"#utility.yul\":24428:24454   */\n      swap1\n      pop\n        /* \"#utility.yul\":24500:24509   */\n      dup2\n        /* \"#utility.yul\":24494:24498   */\n      dup2\n        /* \"#utility.yul\":24490:24510   */\n      sub\n        /* \"#utility.yul\":24486:24487   */\n      0x00\n        /* \"#utility.yul\":24475:24484   */\n      dup4\n        /* \"#utility.yul\":24471:24488   */\n      add\n        /* \"#utility.yul\":24464:24511   */\n      mstore\n        /* \"#utility.yul\":24528:24659   */\n      tag_512\n        /* \"#utility.yul\":24654:24658   */\n      dup2\n        /* \"#utility.yul\":24528:24659   */\n      tag_251\n      jump\t// in\n    tag_512:\n        /* \"#utility.yul\":24520:24659   */\n      swap1\n      pop\n        /* \"#utility.yul\":24247:24666   */\n      swap2\n      swap1\n      pop\n      jump\t// out\n        /* \"#utility.yul\":24672:24852   */\n    tag_124:\n        /* \"#utility.yul\":24720:24797   */\n      0x4e487b7100000000000000000000000000000000000000000000000000000000\n        /* \"#utility.yul\":24717:24718   */\n      0x00\n        /* \"#utility.yul\":24710:24798   */\n      mstore\n        /* \"#utility.yul\":24817:24821   */\n      0x32\n        /* \"#utility.yul\":24814:24815   */\n      0x04\n        /* \"#utility.yul\":24807:24822   */\n      mstore\n        /* \"#utility.yul\":24841:24845   */\n      0x24\n        /* \"#utility.yul\":24838:24839   */\n      0x00\n        /* \"#utility.yul\":24831:24846   */\n      revert\n        /* \"#utility.yul\":24858:25028   */\n    tag_252:\n        /* \"#utility.yul\":24998:25020   */\n      0x79657420746f20637265617465206120706f6c6c000000000000000000000000\n        /* \"#utility.yul\":24994:24995   */\n      0x00\n        /* \"#utility.yul\":24986:24992   */\n      dup3\n        /* \"#utility.yul\":24982:24996   */\n      add\n        /* \"#utility.yul\":24975:25021   */\n      mstore\n        /* \"#utility.yul\":24858:25028   */\n      pop\n      jump\t// out\n        /* \"#utility.yul\":25034:25400   */\n    tag_253:\n        /* \"#utility.yul\":25176:25179   */\n      0x00\n        /* \"#utility.yul\":25197:25264   */\n      tag_516\n        /* \"#utility.yul\":25261:25263   */\n      0x14\n        /* \"#utility.yul\":25256:25259   */\n      dup4\n        /* \"#utility.yul\":25197:25264   */\n      tag_206\n      jump\t// in\n    tag_516:\n        /* \"#utility.yul\":25190:25264   */\n      swap2\n      pop\n        /* \"#utility.yul\":25273:25366   */\n      tag_517\n        /* \"#utility.yul\":25362:25365   */\n      dup3\n        /* \"#utility.yul\":25273:25366   */\n      tag_252\n      jump\t// in\n    tag_517:\n        /* \"#utility.yul\":25391:25393   */\n      0x20\n        /* \"#utility.yul\":25386:25389   */\n      dup3\n        /* \"#utility.yul\":25382:25394   */\n      add\n        /* \"#utility.yul\":25375:25394   */\n      swap1\n      pop\n        /* \"#utility.yul\":25034:25400   */\n      swap2\n      swap1\n      pop\n      jump\t// out\n        /* \"#utility.yul\":25406:25825   */\n    tag_136:\n        /* \"#utility.yul\":25572:25576   */\n      0x00\n        /* \"#utility.yul\":25610:25612   */\n      0x20\n        /* \"#utility.yul\":25599:25608   */\n      dup3\n        /* \"#utility.yul\":25595:25613   */\n      add\n        /* \"#utility.yul\":25587:25613   */\n      swap1\n      pop\n        /* \"#utility.yul\":25659:25668   */\n      dup2\n        /* \"#utility.yul\":25653:25657   */\n      dup2\n        /* \"#utility.yul\":25649:25669   */\n      sub\n        /* \"#utility.yul\":25645:25646   */\n      0x00\n        /* \"#utility.yul\":25634:25643   */\n      dup4\n        /* \"#utility.yul\":25630:25647   */\n      add\n        /* \"#utility.yul\":25623:25670   */\n      mstore\n        /* \"#utility.yul\":25687:25818   */\n      tag_519\n        /* \"#utility.yul\":25813:25817   */\n      dup2\n        /* \"#utility.yul\":25687:25818   */\n      tag_253\n      jump\t// in\n    tag_519:\n        /* \"#utility.yul\":25679:25818   */\n      swap1\n      pop\n        /* \"#utility.yul\":25406:25825   */\n      swap2\n      swap1\n      pop\n      jump\t// out\n        /* \"#utility.yul\":25831:26011   */\n    tag_139:\n        /* \"#utility.yul\":25879:25956   */\n      0x4e487b7100000000000000000000000000000000000000000000000000000000\n        /* \"#utility.yul\":25876:25877   */\n      0x00\n        /* \"#utility.yul\":25869:25957   */\n      mstore\n        /* \"#utility.yul\":25976:25980   */\n      0x01\n        /* \"#utility.yul\":25973:25974   */\n      0x04\n        /* \"#utility.yul\":25966:25981   */\n      mstore\n        /* \"#utility.yul\":26000:26004   */\n      0x24\n        /* \"#utility.yul\":25997:25998   */\n      0x00\n        /* \"#utility.yul\":25990:26005   */\n      revert\n        /* \"#utility.yul\":26017:26250   */\n    tag_254:\n        /* \"#utility.yul\":26157:26191   */\n      0x6d6178696d756d206e6f206f662063616e646964617465207065722073657373\n        /* \"#utility.yul\":26153:26154   */\n      0x00\n        /* \"#utility.yul\":26145:26151   */\n      dup3\n        /* \"#utility.yul\":26141:26155   */\n      add\n        /* \"#utility.yul\":26134:26192   */\n      mstore\n        /* \"#utility.yul\":26226:26242   */\n      0x696f6e2072656769737465726564000000000000000000000000000000000000\n        /* \"#utility.yul\":26221:26223   */\n      0x20\n        /* \"#utility.yul\":26213:26219   */\n      dup3\n        /* \"#utility.yul\":26209:26224   */\n      add\n        /* \"#utility.yul\":26202:26243   */\n      mstore\n        /* \"#utility.yul\":26017:26250   */\n      pop\n      jump\t// out\n        /* \"#utility.yul\":26256:26622   */\n    tag_255:\n        /* \"#utility.yul\":26398:26401   */\n      0x00\n        /* \"#utility.yul\":26419:26486   */\n      tag_523\n        /* \"#utility.yul\":26483:26485   */\n      0x2e\n        /* \"#utility.yul\":26478:26481   */\n      dup4\n        /* \"#utility.yul\":26419:26486   */\n      tag_206\n      jump\t// in\n    tag_523:\n        /* \"#utility.yul\":26412:26486   */\n      swap2\n      pop\n        /* \"#utility.yul\":26495:26588   */\n      tag_524\n        /* \"#utility.yul\":26584:26587   */\n      dup3\n        /* \"#utility.yul\":26495:26588   */\n      tag_254\n      jump\t// in\n    tag_524:\n        /* \"#utility.yul\":26613:26615   */\n      0x40\n        /* \"#utility.yul\":26608:26611   */\n      dup3\n        /* \"#utility.yul\":26604:26616   */\n      add\n        /* \"#utility.yul\":26597:26616   */\n      swap1\n      pop\n        /* \"#utility.yul\":26256:26622   */\n      swap2\n      swap1\n      pop\n      jump\t// out\n        /* \"#utility.yul\":26628:27047   */\n    tag_142:\n        /* \"#utility.yul\":26794:26798   */\n      0x00\n        /* \"#utility.yul\":26832:26834   */\n      0x20\n        /* \"#utility.yul\":26821:26830   */\n      dup3\n        /* \"#utility.yul\":26817:26835   */\n      add\n        /* \"#utility.yul\":26809:26835   */\n      swap1\n      pop\n        /* \"#utility.yul\":26881:26890   */\n      dup2\n        /* \"#utility.yul\":26875:26879   */\n      dup2\n        /* \"#utility.yul\":26871:26891   */\n      sub\n        /* \"#utility.yul\":26867:26868   */\n      0x00\n        /* \"#utility.yul\":26856:26865   */\n      dup4\n        /* \"#utility.yul\":26852:26869   */\n      add\n        /* \"#utility.yul\":26845:26892   */\n      mstore\n        /* \"#utility.yul\":26909:27040   */\n      tag_526\n        /* \"#utility.yul\":27035:27039   */\n      dup2\n        /* \"#utility.yul\":26909:27040   */\n      tag_255\n      jump\t// in\n    tag_526:\n        /* \"#utility.yul\":26901:27040   */\n      swap1\n      pop\n        /* \"#utility.yul\":26628:27047   */\n      swap2\n      swap1\n      pop\n      jump\t// out\n        /* \"#utility.yul\":27053:27224   */\n    tag_145:\n        /* \"#utility.yul\":27091:27094   */\n      0x00\n        /* \"#utility.yul\":27114:27137   */\n      tag_528\n        /* \"#utility.yul\":27131:27136   */\n      dup3\n        /* \"#utility.yul\":27114:27137   */\n      tag_202\n      jump\t// in\n    tag_528:\n        /* \"#utility.yul\":27105:27137   */\n      swap2\n      pop\n        /* \"#utility.yul\":27159:27165   */\n      0xffff\n        /* \"#utility.yul\":27152:27157   */\n      dup3\n        /* \"#utility.yul\":27149:27166   */\n      eq\n        /* \"#utility.yul\":27146:27189   */\n      iszero\n      tag_529\n      jumpi\n        /* \"#utility.yul\":27169:27187   */\n      tag_530\n      tag_247\n      jump\t// in\n    tag_530:\n        /* \"#utility.yul\":27146:27189   */\n    tag_529:\n        /* \"#utility.yul\":27216:27217   */\n      0x01\n        /* \"#utility.yul\":27209:27214   */\n      dup3\n        /* \"#utility.yul\":27205:27218   */\n      add\n        /* \"#utility.yul\":27198:27218   */\n      swap1\n      pop\n        /* \"#utility.yul\":27053:27224   */\n      swap2\n      swap1\n      pop\n      jump\t// out\n        /* \"#utility.yul\":27230:27452   */\n    tag_147:\n        /* \"#utility.yul\":27323:27327   */\n      0x00\n        /* \"#utility.yul\":27361:27363   */\n      0x20\n        /* \"#utility.yul\":27350:27359   */\n      dup3\n        /* \"#utility.yul\":27346:27364   */\n      add\n        /* \"#utility.yul\":27338:27364   */\n      swap1\n      pop\n        /* \"#utility.yul\":27374:27445   */\n      tag_532\n        /* \"#utility.yul\":27442:27443   */\n      0x00\n        /* \"#utility.yul\":27431:27440   */\n      dup4\n        /* \"#utility.yul\":27427:27444   */\n      add\n        /* \"#utility.yul\":27418:27424   */\n      dup5\n        /* \"#utility.yul\":27374:27445   */\n      tag_220\n      jump\t// in\n    tag_532:\n        /* \"#utility.yul\":27230:27452   */\n      swap3\n      swap2\n      pop\n      pop\n      jump\t// out\n        /* \"#utility.yul\":27458:27624   */\n    tag_256:\n        /* \"#utility.yul\":27598:27616   */\n      0x6e6f74207468652063686169726d616e00000000000000000000000000000000\n        /* \"#utility.yul\":27594:27595   */\n      0x00\n        /* \"#utility.yul\":27586:27592   */\n      dup3\n        /* \"#utility.yul\":27582:27596   */\n      add\n        /* \"#utility.yul\":27575:27617   */\n      mstore\n        /* \"#utility.yul\":27458:27624   */\n      pop\n      jump\t// out\n        /* \"#utility.yul\":27630:27996   */\n    tag_257:\n        /* \"#utility.yul\":27772:27775   */\n      0x00\n        /* \"#utility.yul\":27793:27860   */\n      tag_535\n        /* \"#utility.yul\":27857:27859   */\n      0x10\n        /* \"#utility.yul\":27852:27855   */\n      dup4\n        /* \"#utility.yul\":27793:27860   */\n      tag_206\n      jump\t// in\n    tag_535:\n        /* \"#utility.yul\":27786:27860   */\n      swap2\n      pop\n        /* \"#utility.yul\":27869:27962   */\n      tag_536\n        /* \"#utility.yul\":27958:27961   */\n      dup3\n        /* \"#utility.yul\":27869:27962   */\n      tag_256\n      jump\t// in\n    tag_536:\n        /* \"#utility.yul\":27987:27989   */\n      0x20\n        /* \"#utility.yul\":27982:27985   */\n      dup3\n        /* \"#utility.yul\":27978:27990   */\n      add\n        /* \"#utility.yul\":27971:27990   */\n      swap1\n      pop\n        /* \"#utility.yul\":27630:27996   */\n      swap2\n      swap1\n      pop\n      jump\t// out\n        /* \"#utility.yul\":28002:28421   */\n    tag_158:\n        /* \"#utility.yul\":28168:28172   */\n      0x00\n        /* \"#utility.yul\":28206:28208   */\n      0x20\n        /* \"#utility.yul\":28195:28204   */\n      dup3\n        /* \"#utility.yul\":28191:28209   */\n      add\n        /* \"#utility.yul\":28183:28209   */\n      swap1\n      pop\n        /* \"#utility.yul\":28255:28264   */\n      dup2\n        /* \"#utility.yul\":28249:28253   */\n      dup2\n        /* \"#utility.yul\":28245:28265   */\n      sub\n        /* \"#utility.yul\":28241:28242   */\n      0x00\n        /* \"#utility.yul\":28230:28239   */\n      dup4\n        /* \"#utility.yul\":28226:28243   */\n      add\n        /* \"#utility.yul\":28219:28266   */\n      mstore\n        /* \"#utility.yul\":28283:28414   */\n      tag_538\n        /* \"#utility.yul\":28409:28413   */\n      dup2\n        /* \"#utility.yul\":28283:28414   */\n      tag_257\n      jump\t// in\n    tag_538:\n        /* \"#utility.yul\":28275:28414   */\n      swap1\n      pop\n        /* \"#utility.yul\":28002:28421   */\n      swap2\n      swap1\n      pop\n      jump\t// out\n        /* \"#utility.yul\":28427:28513   */\n    tag_258:\n        /* \"#utility.yul\":28462:28469   */\n      0x00\n        /* \"#utility.yul\":28502:28506   */\n      0xff\n        /* \"#utility.yul\":28495:28500   */\n      dup3\n        /* \"#utility.yul\":28491:28507   */\n      and\n        /* \"#utility.yul\":28480:28507   */\n      swap1\n      pop\n        /* \"#utility.yul\":28427:28513   */\n      swap2\n      swap1\n      pop\n      jump\t// out\n        /* \"#utility.yul\":28519:28756   */\n    tag_163:\n        /* \"#utility.yul\":28557:28560   */\n      0x00\n        /* \"#utility.yul\":28576:28594   */\n      tag_541\n        /* \"#utility.yul\":28592:28593   */\n      dup3\n        /* \"#utility.yul\":28576:28594   */\n      tag_258\n      jump\t// in\n    tag_541:\n        /* \"#utility.yul\":28571:28594   */\n      swap2\n      pop\n        /* \"#utility.yul\":28608:28626   */\n      tag_542\n        /* \"#utility.yul\":28624:28625   */\n      dup4\n        /* \"#utility.yul\":28608:28626   */\n      tag_258\n      jump\t// in\n    tag_542:\n        /* \"#utility.yul\":28603:28626   */\n      swap3\n      pop\n        /* \"#utility.yul\":28698:28699   */\n      dup3\n        /* \"#utility.yul\":28692:28696   */\n      0xff\n        /* \"#utility.yul\":28688:28700   */\n      sub\n        /* \"#utility.yul\":28685:28686   */\n      dup3\n        /* \"#utility.yul\":28682:28701   */\n      gt\n        /* \"#utility.yul\":28679:28724   */\n      iszero\n      tag_543\n      jumpi\n        /* \"#utility.yul\":28704:28722   */\n      tag_544\n      tag_247\n      jump\t// in\n    tag_544:\n        /* \"#utility.yul\":28679:28724   */\n    tag_543:\n        /* \"#utility.yul\":28748:28749   */\n      dup3\n        /* \"#utility.yul\":28745:28746   */\n      dup3\n        /* \"#utility.yul\":28741:28750   */\n      add\n        /* \"#utility.yul\":28734:28750   */\n      swap1\n      pop\n        /* \"#utility.yul\":28519:28756   */\n      swap3\n      swap2\n      pop\n      pop\n      jump\t// out\n        /* \"#utility.yul\":28762:28976   */\n    tag_259:\n        /* \"#utility.yul\":28902:28968   */\n      0x19457468657265756d205369676e6564204d6573736167653a0a333200000000\n        /* \"#utility.yul\":28898:28899   */\n      0x00\n        /* \"#utility.yul\":28890:28896   */\n      dup3\n        /* \"#utility.yul\":28886:28900   */\n      add\n        /* \"#utility.yul\":28879:28969   */\n      mstore\n        /* \"#utility.yul\":28762:28976   */\n      pop\n      jump\t// out\n        /* \"#utility.yul\":28982:29384   */\n    tag_260:\n        /* \"#utility.yul\":29142:29145   */\n      0x00\n        /* \"#utility.yul\":29163:29248   */\n      tag_547\n        /* \"#utility.yul\":29245:29247   */\n      0x1c\n        /* \"#utility.yul\":29240:29243   */\n      dup4\n        /* \"#utility.yul\":29163:29248   */\n      tag_237\n      jump\t// in\n    tag_547:\n        /* \"#utility.yul\":29156:29248   */\n      swap2\n      pop\n        /* \"#utility.yul\":29257:29350   */\n      tag_548\n        /* \"#utility.yul\":29346:29349   */\n      dup3\n        /* \"#utility.yul\":29257:29350   */\n      tag_259\n      jump\t// in\n    tag_548:\n        /* \"#utility.yul\":29375:29377   */\n      0x1c\n        /* \"#utility.yul\":29370:29373   */\n      dup3\n        /* \"#utility.yul\":29366:29378   */\n      add\n        /* \"#utility.yul\":29359:29378   */\n      swap1\n      pop\n        /* \"#utility.yul\":28982:29384   */\n      swap2\n      swap1\n      pop\n      jump\t// out\n        /* \"#utility.yul\":29390:29469   */\n    tag_261:\n        /* \"#utility.yul\":29429:29436   */\n      0x00\n        /* \"#utility.yul\":29458:29463   */\n      dup2\n        /* \"#utility.yul\":29447:29463   */\n      swap1\n      pop\n        /* \"#utility.yul\":29390:29469   */\n      swap2\n      swap1\n      pop\n      jump\t// out\n        /* \"#utility.yul\":29475:29632   */\n    tag_262:\n        /* \"#utility.yul\":29580:29625   */\n      tag_551\n        /* \"#utility.yul\":29600:29624   */\n      tag_552\n        /* \"#utility.yul\":29618:29623   */\n      dup3\n        /* \"#utility.yul\":29600:29624   */\n      tag_200\n      jump\t// in\n    tag_552:\n        /* \"#utility.yul\":29580:29625   */\n      tag_261\n      jump\t// in\n    tag_551:\n        /* \"#utility.yul\":29575:29578   */\n      dup3\n        /* \"#utility.yul\":29568:29626   */\n      mstore\n        /* \"#utility.yul\":29475:29632   */\n      pop\n      pop\n      jump\t// out\n        /* \"#utility.yul\":29638:30160   */\n    tag_168:\n        /* \"#utility.yul\":29851:29854   */\n      0x00\n        /* \"#utility.yul\":29873:30021   */\n      tag_554\n        /* \"#utility.yul\":30017:30020   */\n      dup3\n        /* \"#utility.yul\":29873:30021   */\n      tag_260\n      jump\t// in\n    tag_554:\n        /* \"#utility.yul\":29866:30021   */\n      swap2\n      pop\n        /* \"#utility.yul\":30031:30106   */\n      tag_555\n        /* \"#utility.yul\":30102:30105   */\n      dup3\n        /* \"#utility.yul\":30093:30099   */\n      dup5\n        /* \"#utility.yul\":30031:30106   */\n      tag_262\n      jump\t// in\n    tag_555:\n        /* \"#utility.yul\":30131:30133   */\n      0x20\n        /* \"#utility.yul\":30126:30129   */\n      dup3\n        /* \"#utility.yul\":30122:30134   */\n      add\n        /* \"#utility.yul\":30115:30134   */\n      swap2\n      pop\n        /* \"#utility.yul\":30151:30154   */\n      dup2\n        /* \"#utility.yul\":30144:30154   */\n      swap1\n      pop\n        /* \"#utility.yul\":29638:30160   */\n      swap3\n      swap2\n      pop\n      pop\n      jump\t// out\n        /* \"#utility.yul\":30166:30278   */\n    tag_263:\n        /* \"#utility.yul\":30249:30271   */\n      tag_557\n        /* \"#utility.yul\":30265:30270   */\n      dup2\n        /* \"#utility.yul\":30249:30271   */\n      tag_258\n      jump\t// in\n    tag_557:\n        /* \"#utility.yul\":30244:30247   */\n      dup3\n        /* \"#utility.yul\":30237:30272   */\n      mstore\n        /* \"#utility.yul\":30166:30278   */\n      pop\n      pop\n      jump\t// out\n        /* \"#utility.yul\":30284:30829   */\n    tag_170:\n        /* \"#utility.yul\":30457:30461   */\n      0x00\n        /* \"#utility.yul\":30495:30498   */\n      0x80\n        /* \"#utility.yul\":30484:30493   */\n      dup3\n        /* \"#utility.yul\":30480:30499   */\n      add\n        /* \"#utility.yul\":30472:30499   */\n      swap1\n      pop\n        /* \"#utility.yul\":30509:30580   */\n      tag_559\n        /* \"#utility.yul\":30577:30578   */\n      0x00\n        /* \"#utility.yul\":30566:30575   */\n      dup4\n        /* \"#utility.yul\":30562:30579   */\n      add\n        /* \"#utility.yul\":30553:30559   */\n      dup8\n        /* \"#utility.yul\":30509:30580   */\n      tag_201\n      jump\t// in\n    tag_559:\n        /* \"#utility.yul\":30590:30658   */\n      tag_560\n        /* \"#utility.yul\":30654:30656   */\n      0x20\n        /* \"#utility.yul\":30643:30652   */\n      dup4\n        /* \"#utility.yul\":30639:30657   */\n      add\n        /* \"#utility.yul\":30630:30636   */\n      dup7\n        /* \"#utility.yul\":30590:30658   */\n      tag_263\n      jump\t// in\n    tag_560:\n        /* \"#utility.yul\":30668:30740   */\n      tag_561\n        /* \"#utility.yul\":30736:30738   */\n      0x40\n        /* \"#utility.yul\":30725:30734   */\n      dup4\n        /* \"#utility.yul\":30721:30739   */\n      add\n        /* \"#utility.yul\":30712:30718   */\n      dup6\n        /* \"#utility.yul\":30668:30740   */\n      tag_201\n      jump\t// in\n    tag_561:\n        /* \"#utility.yul\":30750:30822   */\n      tag_562\n        /* \"#utility.yul\":30818:30820   */\n      0x60\n        /* \"#utility.yul\":30807:30816   */\n      dup4\n        /* \"#utility.yul\":30803:30821   */\n      add\n        /* \"#utility.yul\":30794:30800   */\n      dup5\n        /* \"#utility.yul\":30750:30822   */\n      tag_201\n      jump\t// in\n    tag_562:\n        /* \"#utility.yul\":30284:30829   */\n      swap6\n      swap5\n      pop\n      pop\n      pop\n      pop\n      pop\n      jump\t// out\n\n    auxdata: 0xa2646970667358221220148f7daf6f81046ab13b3ad80051cf41615e679e151f89acf2c7449a6e19bdbb64736f6c634300080a0033\n}\n",
				"bytecode": {
					"linkReferences": {},
					"object": "608060405234801561001057600080fd5b5061212c806100206000396000f3fe6080604052600436106100955760003560e01c806363ee965a1161005957806363ee965a146101ad57806367d407df146101ed5780638579cacd1461022a578063af7cbc0d14610267578063f0e4de22146102a45761009c565b806301ff993b146100a15780630968d4b1146100de57806312f0da4b1461011c5780634fcf1f391461014557806357f53967146101845761009c565b3661009c57005b600080fd5b3480156100ad57600080fd5b506100c860048036038101906100c3919061131e565b6102cd565b6040516100d591906113ba565b60405180910390f35b3480156100ea57600080fd5b506101056004803603810190610100919061140f565b610308565b604051610113929190611502565b60405180910390f35b34801561012857600080fd5b50610143600480360381019061013e91906115d3565b6103ac565b005b34801561015157600080fd5b5061016c60048036038101906101679190611672565b6106e0565b60405161017b93929190611788565b60405180910390f35b34801561019057600080fd5b506101ab60048036038101906101a691906117c6565b610926565b005b3480156101b957600080fd5b506101d460048036038101906101cf9190611672565b610be5565b6040516101e4949392919061186b565b60405180910390f35b3480156101f957600080fd5b50610214600480360381019061020f91906118b0565b610c76565b60405161022191906118dd565b60405180910390f35b34801561023657600080fd5b50610251600480360381019061024c9190611672565b610c8e565b60405161025e91906118dd565b60405180910390f35b34801561027357600080fd5b5061028e60048036038101906102899190611672565b610cd0565b60405161029b91906119b6565b60405180910390f35b3480156102b057600080fd5b506102cb60048036038101906102c69190611672565b610d84565b005b600030858585856040516020016102e8959493929190611ac9565b604051602081830303815290604052805190602001209050949350505050565b606060008060008560405161031d9190611b2f565b90815260200160405180910390209050338160000160006101000a81548173ffffffffffffffffffffffffffffffffffffffff021916908373ffffffffffffffffffffffffffffffffffffffff1602179055508361ffff168160020160006101000a81548163ffffffff021916908363ffffffff16021790555084848061ffff16905092509250509250929050565b8383600080826040516103bf9190611b2f565b90815260200160405180910390209050600115158160030160008573ffffffffffffffffffffffffffffffffffffffff1673ffffffffffffffffffffffffffffffffffffffff16815260200190815260200160002060009054906101000a900460ff16151514610464576040517f08c379a000000000000000000000000000000000000000000000000000000000815260040161045b90611bb8565b60405180910390fd5b85600080826040516104769190611b2f565b90815260200160405180910390209050600115158160060160009054906101000a900460ff161515146104de576040517f08c379a00000000000000000000000000000000000000000000000000000000081526004016104d590611c24565b60405180910390fd5b60006104ec8a8a8a426102cd565b905060006104fa8289610e69565b9050600073ffffffffffffffffffffffffffffffffffffffff168173ffffffffffffffffffffffffffffffffffffffff16141561053657600080fd5b600160008273ffffffffffffffffffffffffffffffffffffffff1673ffffffffffffffffffffffffffffffffffffffff16815260200190815260200160002054891461058157600080fd5b600160008273ffffffffffffffffffffffffffffffffffffffff1673ffffffffffffffffffffffffffffffffffffffff16815260200190815260200160002060008154809291906105d190611c73565b91905055506000808b6040516105e79190611b2f565b90815260200160405180910390209050600015158160040160008473ffffffffffffffffffffffffffffffffffffffff1673ffffffffffffffffffffffffffffffffffffffff16815260200190815260200160002060009054906101000a900460ff1615151461068c576040517f08c379a000000000000000000000000000000000000000000000000000000000815260040161068390611d08565b60405180910390fd5b6106978c8c84610f62565b507ff3f16a15f074b71c5138107dfc7c63b80524d5411cb967caa97d8d9f12b2fd6b8c60016040516106ca929190611d28565b60405180910390a1505050505050505050505050565b6060600080600080856040516106f69190611b2f565b90815260200160405180910390209050600073ffffffffffffffffffffffffffffffffffffffff168160000160009054906101000a900473ffffffffffffffffffffffffffffffffffffffff1673ffffffffffffffffffffffffffffffffffffffff16141561079a576040517f08c379a000000000000000000000000000000000000000000000000000000000815260040161079190611d9d565b60405180910390fd5b806001018054905067ffffffffffffffff8111156107bb576107ba6111bd565b5b6040519080825280602002602001820160405280156107e95781602001602082028036833780820191505090505b50935060008060005b8360010180549050811161091257600061080c8983611082565b90508381111561085d5780935084600101828154811061082f5761082e611dbd565b5b9060005260206000200160009054906101000a900473ffffffffffffffffffffffffffffffffffffffff1692505b84600501600086600101848154811061087957610878611dbd565b5b9060005260206000200160009054906101000a900473ffffffffffffffffffffffffffffffffffffffff1673ffffffffffffffffffffffffffffffffffffffff1673ffffffffffffffffffffffffffffffffffffffff168152602001908152602001600020548883815181106108f2576108f1611dbd565b5b60200260200101818152505050808061090a90611c73565b9150506107f2565b508581839550955095505050509193909250565b600080826040516109379190611b2f565b90815260200160405180910390209050600073ffffffffffffffffffffffffffffffffffffffff168160000160009054906101000a900473ffffffffffffffffffffffffffffffffffffffff1673ffffffffffffffffffffffffffffffffffffffff1614156109db576040517f08c379a00000000000000000000000000000000000000000000000000000000081526004016109d290611e38565b60405180910390fd5b3373ffffffffffffffffffffffffffffffffffffffff168160000160009054906101000a900473ffffffffffffffffffffffffffffffffffffffff1673ffffffffffffffffffffffffffffffffffffffff1614610a3b57610a3a611e58565b5b8060020160009054906101000a900463ffffffff1663ffffffff168160020160049054906101000a900461ffff1661ffff1610610aad576040517f08c379a0000000000000000000000000000000000000000000000000000000008152600401610aa490611ef9565b60405180910390fd5b60018160030160008573ffffffffffffffffffffffffffffffffffffffff1673ffffffffffffffffffffffffffffffffffffffff16815260200190815260200160002060006101000a81548160ff02191690831515021790555080600101839080600181540180825580915050600190039060005260206000200160009091909190916101000a81548173ffffffffffffffffffffffffffffffffffffffff021916908373ffffffffffffffffffffffffffffffffffffffff16021790555080600201600481819054906101000a900461ffff1680929190610b8e90611f19565b91906101000a81548161ffff021916908361ffff160217905550507fc19c59aa93348e8fc54764bc642eca975e2639f44cc683ef8f027e1529cbda3283604051610bd89190611f44565b60405180910390a1505050565b6000818051602081018201805184825260208301602085012081835280955050505050506000915090508060000160009054906101000a900473ffffffffffffffffffffffffffffffffffffffff16908060020160009054906101000a900463ffffffff16908060020160049054906101000a900461ffff16908060060160009054906101000a900460ff16905084565b60016020528060005260406000206000915090505481565b600080600083604051610ca19190611b2f565b908152602001604051809103902090508060020160049054906101000a900461ffff1661ffff16915050919050565b606060008083604051610ce39190611b2f565b9081526020016040518091039020905080600101805480602002602001604051908101604052809291908181526020018280548015610d7757602002820191906000526020600020905b8160009054906101000a900473ffffffffffffffffffffffffffffffffffffffff1673ffffffffffffffffffffffffffffffffffffffff1681526020019060010190808311610d2d575b5050505050915050919050565b60008082604051610d959190611b2f565b908152602001604051809103902090503373ffffffffffffffffffffffffffffffffffffffff168160000160009054906101000a900473ffffffffffffffffffffffffffffffffffffffff1673ffffffffffffffffffffffffffffffffffffffff1614610e37576040517f08c379a0000000000000000000000000000000000000000000000000000000008152600401610e2e90611fab565b60405180910390fd5b8060060160009054906101000a900460ff16158160060160006101000a81548160ff0219169083151502179055505050565b6000806000806041855114610e845760009350505050610f5c565b6020850151925060408501519150606085015160001a9050601b8160ff161015610eb857601b81610eb59190611fd8565b90505b601b8160ff1614158015610ed05750601c8160ff1614155b15610ee15760009350505050610f5c565b600186604051602001610ef4919061207c565b6040516020818303038152906040528051906020012082858560405160008152602001604052604051610f2a94939291906120b1565b6020604051602081039080840390855afa158015610f4c573d6000803e3d6000fd5b5050506020604051035193505050505b92915050565b600080600084604051610f759190611b2f565b9081526020016040518091039020905060018160040160008573ffffffffffffffffffffffffffffffffffffffff1673ffffffffffffffffffffffffffffffffffffffff16815260200190815260200160002060006101000a81548160ff0219169083151502179055508060050160008673ffffffffffffffffffffffffffffffffffffffff1673ffffffffffffffffffffffffffffffffffffffff168152602001908152602001600020600081548092919061103190611c73565b91905055508060050160008673ffffffffffffffffffffffffffffffffffffffff1673ffffffffffffffffffffffffffffffffffffffff168152602001908152602001600020549150509392505050565b6000806000846040516110959190611b2f565b908152602001604051809103902090508060050160008260010185815481106110c1576110c0611dbd565b5b9060005260206000200160009054906101000a900473ffffffffffffffffffffffffffffffffffffffff1673ffffffffffffffffffffffffffffffffffffffff1673ffffffffffffffffffffffffffffffffffffffff1681526020019081526020016000205491505092915050565b6000604051905090565b600080fd5b600080fd5b600073ffffffffffffffffffffffffffffffffffffffff82169050919050565b600061116f82611144565b9050919050565b61117f81611164565b811461118a57600080fd5b50565b60008135905061119c81611176565b92915050565b600080fd5b600080fd5b6000601f19601f8301169050919050565b7f4e487b7100000000000000000000000000000000000000000000000000000000600052604160045260246000fd5b6111f5826111ac565b810181811067ffffffffffffffff82111715611214576112136111bd565b5b80604052505050565b6000611227611130565b905061123382826111ec565b919050565b600067ffffffffffffffff821115611253576112526111bd565b5b61125c826111ac565b9050602081019050919050565b82818337600083830152505050565b600061128b61128684611238565b61121d565b9050828152602081018484840111156112a7576112a66111a7565b5b6112b2848285611269565b509392505050565b600082601f8301126112cf576112ce6111a2565b5b81356112df848260208601611278565b91505092915050565b6000819050919050565b6112fb816112e8565b811461130657600080fd5b50565b600081359050611318816112f2565b92915050565b600080600080608085870312156113385761133761113a565b5b60006113468782880161118d565b945050602085013567ffffffffffffffff8111156113675761136661113f565b5b611373878288016112ba565b935050604061138487828801611309565b925050606061139587828801611309565b91505092959194509250565b6000819050919050565b6113b4816113a1565b82525050565b60006020820190506113cf60008301846113ab565b92915050565b600061ffff82169050919050565b6113ec816113d5565b81146113f757600080fd5b50565b600081359050611409816113e3565b92915050565b600080604083850312156114265761142561113a565b5b600083013567ffffffffffffffff8111156114445761144361113f565b5b611450858286016112ba565b9250506020611461858286016113fa565b9150509250929050565b600081519050919050565b600082825260208201905092915050565b60005b838110156114a557808201518184015260208101905061148a565b838111156114b4576000848401525b50505050565b60006114c58261146b565b6114cf8185611476565b93506114df818560208601611487565b6114e8816111ac565b840191505092915050565b6114fc816112e8565b82525050565b6000604082019050818103600083015261151c81856114ba565b905061152b60208301846114f3565b9392505050565b600067ffffffffffffffff82111561154d5761154c6111bd565b5b611556826111ac565b9050602081019050919050565b600061157661157184611532565b61121d565b905082815260208101848484011115611592576115916111a7565b5b61159d848285611269565b509392505050565b600082601f8301126115ba576115b96111a2565b5b81356115ca848260208601611563565b91505092915050565b600080600080608085870312156115ed576115ec61113a565b5b60006115fb8782880161118d565b945050602085013567ffffffffffffffff81111561161c5761161b61113f565b5b611628878288016112ba565b935050604061163987828801611309565b925050606085013567ffffffffffffffff81111561165a5761165961113f565b5b611666878288016115a5565b91505092959194509250565b6000602082840312156116885761168761113a565b5b600082013567ffffffffffffffff8111156116a6576116a561113f565b5b6116b2848285016112ba565b91505092915050565b600081519050919050565b600082825260208201905092915050565b6000819050602082019050919050565b6116f0816112e8565b82525050565b600061170283836116e7565b60208301905092915050565b6000602082019050919050565b6000611726826116bb565b61173081856116c6565b935061173b836116d7565b8060005b8381101561176c57815161175388826116f6565b975061175e8361170e565b92505060018101905061173f565b5085935050505092915050565b61178281611164565b82525050565b600060608201905081810360008301526117a2818661171b565b90506117b16020830185611779565b6117be60408301846114f3565b949350505050565b600080604083850312156117dd576117dc61113a565b5b60006117eb8582860161118d565b925050602083013567ffffffffffffffff81111561180c5761180b61113f565b5b611818858286016112ba565b9150509250929050565b600063ffffffff82169050919050565b61183b81611822565b82525050565b61184a816113d5565b82525050565b60008115159050919050565b61186581611850565b82525050565b60006080820190506118806000830187611779565b61188d6020830186611832565b61189a6040830185611841565b6118a7606083018461185c565b95945050505050565b6000602082840312156118c6576118c561113a565b5b60006118d48482850161118d565b91505092915050565b60006020820190506118f260008301846114f3565b92915050565b600081519050919050565b600082825260208201905092915050565b6000819050602082019050919050565b61192d81611164565b82525050565b600061193f8383611924565b60208301905092915050565b6000602082019050919050565b6000611963826118f8565b61196d8185611903565b935061197883611914565b8060005b838110156119a95781516119908882611933565b975061199b8361194b565b92505060018101905061197c565b5085935050505092915050565b600060208201905081810360008301526119d08184611958565b905092915050565b60008160601b9050919050565b60006119f0826119d8565b9050919050565b6000611a02826119e5565b9050919050565b611a1a611a1582611164565b6119f7565b82525050565b600081905092915050565b7f6d6574617472616e73616374696f6e20566f74696e6720000000000000000000600082015250565b6000611a61601783611a20565b9150611a6c82611a2b565b601782019050919050565b6000611a828261146b565b611a8c8185611a20565b9350611a9c818560208601611487565b80840191505092915050565b6000819050919050565b611ac3611abe826112e8565b611aa8565b82525050565b6000611ad58288611a09565b601482019150611ae482611a54565b9150611af08287611a09565b601482019150611b008286611a77565b9150611b0c8285611ab2565b602082019150611b1c8284611ab2565b6020820191508190509695505050505050565b6000611b3b8284611a77565b915081905092915050565b7f54686973206164647265737320646f6573206e6f74206578697374206173206160008201527f2063616e64696461746500000000000000000000000000000000000000000000602082015250565b6000611ba2602a83611476565b9150611bad82611b46565b604082019050919050565b60006020820190508181036000830152611bd181611b95565b9050919050565b7f766f74696e672068617320656e64656400000000000000000000000000000000600082015250565b6000611c0e601083611476565b9150611c1982611bd8565b602082019050919050565b60006020820190508181036000830152611c3d81611c01565b9050919050565b7f4e487b7100000000000000000000000000000000000000000000000000000000600052601160045260246000fd5b6000611c7e826112e8565b91507fffffffffffffffffffffffffffffffffffffffffffffffffffffffffffffffff821415611cb157611cb0611c44565b5b600182019050919050565b7f596f7520616c726561647920766f746564000000000000000000000000000000600082015250565b6000611cf2601183611476565b9150611cfd82611cbc565b602082019050919050565b60006020820190508181036000830152611d2181611ce5565b9050919050565b6000604082019050611d3d6000830185611779565b611d4a602083018461185c565b9392505050565b7f4e6f20706f6c6c20637265617465640000000000000000000000000000000000600082015250565b6000611d87600f83611476565b9150611d9282611d51565b602082019050919050565b60006020820190508181036000830152611db681611d7a565b9050919050565b7f4e487b7100000000000000000000000000000000000000000000000000000000600052603260045260246000fd5b7f79657420746f20637265617465206120706f6c6c000000000000000000000000600082015250565b6000611e22601483611476565b9150611e2d82611dec565b602082019050919050565b60006020820190508181036000830152611e5181611e15565b9050919050565b7f4e487b7100000000000000000000000000000000000000000000000000000000600052600160045260246000fd5b7f6d6178696d756d206e6f206f662063616e64696461746520706572207365737360008201527f696f6e2072656769737465726564000000000000000000000000000000000000602082015250565b6000611ee3602e83611476565b9150611eee82611e87565b604082019050919050565b60006020820190508181036000830152611f1281611ed6565b9050919050565b6000611f24826113d5565b915061ffff821415611f3957611f38611c44565b5b600182019050919050565b6000602082019050611f596000830184611779565b92915050565b7f6e6f74207468652063686169726d616e00000000000000000000000000000000600082015250565b6000611f95601083611476565b9150611fa082611f5f565b602082019050919050565b60006020820190508181036000830152611fc481611f88565b9050919050565b600060ff82169050919050565b6000611fe382611fcb565b9150611fee83611fcb565b92508260ff0382111561200457612003611c44565b5b828201905092915050565b7f19457468657265756d205369676e6564204d6573736167653a0a333200000000600082015250565b6000612045601c83611a20565b91506120508261200f565b601c82019050919050565b6000819050919050565b612076612071826113a1565b61205b565b82525050565b600061208782612038565b91506120938284612065565b60208201915081905092915050565b6120ab81611fcb565b82525050565b60006080820190506120c660008301876113ab565b6120d360208301866120a2565b6120e060408301856113ab565b6120ed60608301846113ab565b9594505050505056fea2646970667358221220148f7daf6f81046ab13b3ad80051cf41615e679e151f89acf2c7449a6e19bdbb64736f6c634300080a0033",
					"opcodes": "PUSH1 0x80 PUSH1 0x40 MSTORE CALLVALUE DUP1 ISZERO PUSH2 0x10 JUMPI PUSH1 0x0 DUP1 REVERT JUMPDEST POP PUSH2 0x212C DUP1 PUSH2 0x20 PUSH1 0x0 CODECOPY PUSH1 0x0 RETURN INVALID PUSH1 0x80 PUSH1 0x40 MSTORE PUSH1 0x4 CALLDATASIZE LT PUSH2 0x95 JUMPI PUSH1 0x0 CALLDATALOAD PUSH1 0xE0 SHR DUP1 PUSH4 0x63EE965A GT PUSH2 0x59 JUMPI DUP1 PUSH4 0x63EE965A EQ PUSH2 0x1AD JUMPI DUP1 PUSH4 0x67D407DF EQ PUSH2 0x1ED JUMPI DUP1 PUSH4 0x8579CACD EQ PUSH2 0x22A JUMPI DUP1 PUSH4 0xAF7CBC0D EQ PUSH2 0x267 JUMPI DUP1 PUSH4 0xF0E4DE22 EQ PUSH2 0x2A4 JUMPI PUSH2 0x9C JUMP JUMPDEST DUP1 PUSH4 0x1FF993B EQ PUSH2 0xA1 JUMPI DUP1 PUSH4 0x968D4B1 EQ PUSH2 0xDE JUMPI DUP1 PUSH4 0x12F0DA4B EQ PUSH2 0x11C JUMPI DUP1 PUSH4 0x4FCF1F39 EQ PUSH2 0x145 JUMPI DUP1 PUSH4 0x57F53967 EQ PUSH2 0x184 JUMPI PUSH2 0x9C JUMP JUMPDEST CALLDATASIZE PUSH2 0x9C JUMPI STOP JUMPDEST PUSH1 0x0 DUP1 REVERT JUMPDEST CALLVALUE DUP1 ISZERO PUSH2 0xAD JUMPI PUSH1 0x0 DUP1 REVERT JUMPDEST POP PUSH2 0xC8 PUSH1 0x4 DUP1 CALLDATASIZE SUB DUP2 ADD SWAP1 PUSH2 0xC3 SWAP2 SWAP1 PUSH2 0x131E JUMP JUMPDEST PUSH2 0x2CD JUMP JUMPDEST PUSH1 0x40 MLOAD PUSH2 0xD5 SWAP2 SWAP1 PUSH2 0x13BA JUMP JUMPDEST PUSH1 0x40 MLOAD DUP1 SWAP2 SUB SWAP1 RETURN JUMPDEST CALLVALUE DUP1 ISZERO PUSH2 0xEA JUMPI PUSH1 0x0 DUP1 REVERT JUMPDEST POP PUSH2 0x105 PUSH1 0x4 DUP1 CALLDATASIZE SUB DUP2 ADD SWAP1 PUSH2 0x100 SWAP2 SWAP1 PUSH2 0x140F JUMP JUMPDEST PUSH2 0x308 JUMP JUMPDEST PUSH1 0x40 MLOAD PUSH2 0x113 SWAP3 SWAP2 SWAP1 PUSH2 0x1502 JUMP JUMPDEST PUSH1 0x40 MLOAD DUP1 SWAP2 SUB SWAP1 RETURN JUMPDEST CALLVALUE DUP1 ISZERO PUSH2 0x128 JUMPI PUSH1 0x0 DUP1 REVERT JUMPDEST POP PUSH2 0x143 PUSH1 0x4 DUP1 CALLDATASIZE SUB DUP2 ADD SWAP1 PUSH2 0x13E SWAP2 SWAP1 PUSH2 0x15D3 JUMP JUMPDEST PUSH2 0x3AC JUMP JUMPDEST STOP JUMPDEST CALLVALUE DUP1 ISZERO PUSH2 0x151 JUMPI PUSH1 0x0 DUP1 REVERT JUMPDEST POP PUSH2 0x16C PUSH1 0x4 DUP1 CALLDATASIZE SUB DUP2 ADD SWAP1 PUSH2 0x167 SWAP2 SWAP1 PUSH2 0x1672 JUMP JUMPDEST PUSH2 0x6E0 JUMP JUMPDEST PUSH1 0x40 MLOAD PUSH2 0x17B SWAP4 SWAP3 SWAP2 SWAP1 PUSH2 0x1788 JUMP JUMPDEST PUSH1 0x40 MLOAD DUP1 SWAP2 SUB SWAP1 RETURN JUMPDEST CALLVALUE DUP1 ISZERO PUSH2 0x190 JUMPI PUSH1 0x0 DUP1 REVERT JUMPDEST POP PUSH2 0x1AB PUSH1 0x4 DUP1 CALLDATASIZE SUB DUP2 ADD SWAP1 PUSH2 0x1A6 SWAP2 SWAP1 PUSH2 0x17C6 JUMP JUMPDEST PUSH2 0x926 JUMP JUMPDEST STOP JUMPDEST CALLVALUE DUP1 ISZERO PUSH2 0x1B9 JUMPI PUSH1 0x0 DUP1 REVERT JUMPDEST POP PUSH2 0x1D4 PUSH1 0x4 DUP1 CALLDATASIZE SUB DUP2 ADD SWAP1 PUSH2 0x1CF SWAP2 SWAP1 PUSH2 0x1672 JUMP JUMPDEST PUSH2 0xBE5 JUMP JUMPDEST PUSH1 0x40 MLOAD PUSH2 0x1E4 SWAP5 SWAP4 SWAP3 SWAP2 SWAP1 PUSH2 0x186B JUMP JUMPDEST PUSH1 0x40 MLOAD DUP1 SWAP2 SUB SWAP1 RETURN JUMPDEST CALLVALUE DUP1 ISZERO PUSH2 0x1F9 JUMPI PUSH1 0x0 DUP1 REVERT JUMPDEST POP PUSH2 0x214 PUSH1 0x4 DUP1 CALLDATASIZE SUB DUP2 ADD SWAP1 PUSH2 0x20F SWAP2 SWAP1 PUSH2 0x18B0 JUMP JUMPDEST PUSH2 0xC76 JUMP JUMPDEST PUSH1 0x40 MLOAD PUSH2 0x221 SWAP2 SWAP1 PUSH2 0x18DD JUMP JUMPDEST PUSH1 0x40 MLOAD DUP1 SWAP2 SUB SWAP1 RETURN JUMPDEST CALLVALUE DUP1 ISZERO PUSH2 0x236 JUMPI PUSH1 0x0 DUP1 REVERT JUMPDEST POP PUSH2 0x251 PUSH1 0x4 DUP1 CALLDATASIZE SUB DUP2 ADD SWAP1 PUSH2 0x24C SWAP2 SWAP1 PUSH2 0x1672 JUMP JUMPDEST PUSH2 0xC8E JUMP JUMPDEST PUSH1 0x40 MLOAD PUSH2 0x25E SWAP2 SWAP1 PUSH2 0x18DD JUMP JUMPDEST PUSH1 0x40 MLOAD DUP1 SWAP2 SUB SWAP1 RETURN JUMPDEST CALLVALUE DUP1 ISZERO PUSH2 0x273 JUMPI PUSH1 0x0 DUP1 REVERT JUMPDEST POP PUSH2 0x28E PUSH1 0x4 DUP1 CALLDATASIZE SUB DUP2 ADD SWAP1 PUSH2 0x289 SWAP2 SWAP1 PUSH2 0x1672 JUMP JUMPDEST PUSH2 0xCD0 JUMP JUMPDEST PUSH1 0x40 MLOAD PUSH2 0x29B SWAP2 SWAP1 PUSH2 0x19B6 JUMP JUMPDEST PUSH1 0x40 MLOAD DUP1 SWAP2 SUB SWAP1 RETURN JUMPDEST CALLVALUE DUP1 ISZERO PUSH2 0x2B0 JUMPI PUSH1 0x0 DUP1 REVERT JUMPDEST POP PUSH2 0x2CB PUSH1 0x4 DUP1 CALLDATASIZE SUB DUP2 ADD SWAP1 PUSH2 0x2C6 SWAP2 SWAP1 PUSH2 0x1672 JUMP JUMPDEST PUSH2 0xD84 JUMP JUMPDEST STOP JUMPDEST PUSH1 0x0 ADDRESS DUP6 DUP6 DUP6 DUP6 PUSH1 0x40 MLOAD PUSH1 0x20 ADD PUSH2 0x2E8 SWAP6 SWAP5 SWAP4 SWAP3 SWAP2 SWAP1 PUSH2 0x1AC9 JUMP JUMPDEST PUSH1 0x40 MLOAD PUSH1 0x20 DUP2 DUP4 SUB SUB DUP2 MSTORE SWAP1 PUSH1 0x40 MSTORE DUP1 MLOAD SWAP1 PUSH1 0x20 ADD KECCAK256 SWAP1 POP SWAP5 SWAP4 POP POP POP POP JUMP JUMPDEST PUSH1 0x60 PUSH1 0x0 DUP1 PUSH1 0x0 DUP6 PUSH1 0x40 MLOAD PUSH2 0x31D SWAP2 SWAP1 PUSH2 0x1B2F JUMP JUMPDEST SWAP1 DUP2 MSTORE PUSH1 0x20 ADD PUSH1 0x40 MLOAD DUP1 SWAP2 SUB SWAP1 KECCAK256 SWAP1 POP CALLER DUP2 PUSH1 0x0 ADD PUSH1 0x0 PUSH2 0x100 EXP DUP2 SLOAD DUP2 PUSH20 0xFFFFFFFFFFFFFFFFFFFFFFFFFFFFFFFFFFFFFFFF MUL NOT AND SWAP1 DUP4 PUSH20 0xFFFFFFFFFFFFFFFFFFFFFFFFFFFFFFFFFFFFFFFF AND MUL OR SWAP1 SSTORE POP DUP4 PUSH2 0xFFFF AND DUP2 PUSH1 0x2 ADD PUSH1 0x0 PUSH2 0x100 EXP DUP2 SLOAD DUP2 PUSH4 0xFFFFFFFF MUL NOT AND SWAP1 DUP4 PUSH4 0xFFFFFFFF AND MUL OR SWAP1 SSTORE POP DUP5 DUP5 DUP1 PUSH2 0xFFFF AND SWAP1 POP SWAP3 POP SWAP3 POP POP SWAP3 POP SWAP3 SWAP1 POP JUMP JUMPDEST DUP4 DUP4 PUSH1 0x0 DUP1 DUP3 PUSH1 0x40 MLOAD PUSH2 0x3BF SWAP2 SWAP1 PUSH2 0x1B2F JUMP JUMPDEST SWAP1 DUP2 MSTORE PUSH1 0x20 ADD PUSH1 0x40 MLOAD DUP1 SWAP2 SUB SWAP1 KECCAK256 SWAP1 POP PUSH1 0x1 ISZERO ISZERO DUP2 PUSH1 0x3 ADD PUSH1 0x0 DUP6 PUSH20 0xFFFFFFFFFFFFFFFFFFFFFFFFFFFFFFFFFFFFFFFF AND PUSH20 0xFFFFFFFFFFFFFFFFFFFFFFFFFFFFFFFFFFFFFFFF AND DUP2 MSTORE PUSH1 0x20 ADD SWAP1 DUP2 MSTORE PUSH1 0x20 ADD PUSH1 0x0 KECCAK256 PUSH1 0x0 SWAP1 SLOAD SWAP1 PUSH2 0x100 EXP SWAP1 DIV PUSH1 0xFF AND ISZERO ISZERO EQ PUSH2 0x464 JUMPI PUSH1 0x40 MLOAD PUSH32 0x8C379A000000000000000000000000000000000000000000000000000000000 DUP2 MSTORE PUSH1 0x4 ADD PUSH2 0x45B SWAP1 PUSH2 0x1BB8 JUMP JUMPDEST PUSH1 0x40 MLOAD DUP1 SWAP2 SUB SWAP1 REVERT JUMPDEST DUP6 PUSH1 0x0 DUP1 DUP3 PUSH1 0x40 MLOAD PUSH2 0x476 SWAP2 SWAP1 PUSH2 0x1B2F JUMP JUMPDEST SWAP1 DUP2 MSTORE PUSH1 0x20 ADD PUSH1 0x40 MLOAD DUP1 SWAP2 SUB SWAP1 KECCAK256 SWAP1 POP PUSH1 0x1 ISZERO ISZERO DUP2 PUSH1 0x6 ADD PUSH1 0x0 SWAP1 SLOAD SWAP1 PUSH2 0x100 EXP SWAP1 DIV PUSH1 0xFF AND ISZERO ISZERO EQ PUSH2 0x4DE JUMPI PUSH1 0x40 MLOAD PUSH32 0x8C379A000000000000000000000000000000000000000000000000000000000 DUP2 MSTORE PUSH1 0x4 ADD PUSH2 0x4D5 SWAP1 PUSH2 0x1C24 JUMP JUMPDEST PUSH1 0x40 MLOAD DUP1 SWAP2 SUB SWAP1 REVERT JUMPDEST PUSH1 0x0 PUSH2 0x4EC DUP11 DUP11 DUP11 TIMESTAMP PUSH2 0x2CD JUMP JUMPDEST SWAP1 POP PUSH1 0x0 PUSH2 0x4FA DUP3 DUP10 PUSH2 0xE69 JUMP JUMPDEST SWAP1 POP PUSH1 0x0 PUSH20 0xFFFFFFFFFFFFFFFFFFFFFFFFFFFFFFFFFFFFFFFF AND DUP2 PUSH20 0xFFFFFFFFFFFFFFFFFFFFFFFFFFFFFFFFFFFFFFFF AND EQ ISZERO PUSH2 0x536 JUMPI PUSH1 0x0 DUP1 REVERT JUMPDEST PUSH1 0x1 PUSH1 0x0 DUP3 PUSH20 0xFFFFFFFFFFFFFFFFFFFFFFFFFFFFFFFFFFFFFFFF AND PUSH20 0xFFFFFFFFFFFFFFFFFFFFFFFFFFFFFFFFFFFFFFFF AND DUP2 MSTORE PUSH1 0x20 ADD SWAP1 DUP2 MSTORE PUSH1 0x20 ADD PUSH1 0x0 KECCAK256 SLOAD DUP10 EQ PUSH2 0x581 JUMPI PUSH1 0x0 DUP1 REVERT JUMPDEST PUSH1 0x1 PUSH1 0x0 DUP3 PUSH20 0xFFFFFFFFFFFFFFFFFFFFFFFFFFFFFFFFFFFFFFFF AND PUSH20 0xFFFFFFFFFFFFFFFFFFFFFFFFFFFFFFFFFFFFFFFF AND DUP2 MSTORE PUSH1 0x20 ADD SWAP1 DUP2 MSTORE PUSH1 0x20 ADD PUSH1 0x0 KECCAK256 PUSH1 0x0 DUP2 SLOAD DUP1 SWAP3 SWAP2 SWAP1 PUSH2 0x5D1 SWAP1 PUSH2 0x1C73 JUMP JUMPDEST SWAP2 SWAP1 POP SSTORE POP PUSH1 0x0 DUP1 DUP12 PUSH1 0x40 MLOAD PUSH2 0x5E7 SWAP2 SWAP1 PUSH2 0x1B2F JUMP JUMPDEST SWAP1 DUP2 MSTORE PUSH1 0x20 ADD PUSH1 0x40 MLOAD DUP1 SWAP2 SUB SWAP1 KECCAK256 SWAP1 POP PUSH1 0x0 ISZERO ISZERO DUP2 PUSH1 0x4 ADD PUSH1 0x0 DUP5 PUSH20 0xFFFFFFFFFFFFFFFFFFFFFFFFFFFFFFFFFFFFFFFF AND PUSH20 0xFFFFFFFFFFFFFFFFFFFFFFFFFFFFFFFFFFFFFFFF AND DUP2 MSTORE PUSH1 0x20 ADD SWAP1 DUP2 MSTORE PUSH1 0x20 ADD PUSH1 0x0 KECCAK256 PUSH1 0x0 SWAP1 SLOAD SWAP1 PUSH2 0x100 EXP SWAP1 DIV PUSH1 0xFF AND ISZERO ISZERO EQ PUSH2 0x68C JUMPI PUSH1 0x40 MLOAD PUSH32 0x8C379A000000000000000000000000000000000000000000000000000000000 DUP2 MSTORE PUSH1 0x4 ADD PUSH2 0x683 SWAP1 PUSH2 0x1D08 JUMP JUMPDEST PUSH1 0x40 MLOAD DUP1 SWAP2 SUB SWAP1 REVERT JUMPDEST PUSH2 0x697 DUP13 DUP13 DUP5 PUSH2 0xF62 JUMP JUMPDEST POP PUSH32 0xF3F16A15F074B71C5138107DFC7C63B80524D5411CB967CAA97D8D9F12B2FD6B DUP13 PUSH1 0x1 PUSH1 0x40 MLOAD PUSH2 0x6CA SWAP3 SWAP2 SWAP1 PUSH2 0x1D28 JUMP JUMPDEST PUSH1 0x40 MLOAD DUP1 SWAP2 SUB SWAP1 LOG1 POP POP POP POP POP POP POP POP POP POP POP POP JUMP JUMPDEST PUSH1 0x60 PUSH1 0x0 DUP1 PUSH1 0x0 DUP1 DUP6 PUSH1 0x40 MLOAD PUSH2 0x6F6 SWAP2 SWAP1 PUSH2 0x1B2F JUMP JUMPDEST SWAP1 DUP2 MSTORE PUSH1 0x20 ADD PUSH1 0x40 MLOAD DUP1 SWAP2 SUB SWAP1 KECCAK256 SWAP1 POP PUSH1 0x0 PUSH20 0xFFFFFFFFFFFFFFFFFFFFFFFFFFFFFFFFFFFFFFFF AND DUP2 PUSH1 0x0 ADD PUSH1 0x0 SWAP1 SLOAD SWAP1 PUSH2 0x100 EXP SWAP1 DIV PUSH20 0xFFFFFFFFFFFFFFFFFFFFFFFFFFFFFFFFFFFFFFFF AND PUSH20 0xFFFFFFFFFFFFFFFFFFFFFFFFFFFFFFFFFFFFFFFF AND EQ ISZERO PUSH2 0x79A JUMPI PUSH1 0x40 MLOAD PUSH32 0x8C379A000000000000000000000000000000000000000000000000000000000 DUP2 MSTORE PUSH1 0x4 ADD PUSH2 0x791 SWAP1 PUSH2 0x1D9D JUMP JUMPDEST PUSH1 0x40 MLOAD DUP1 SWAP2 SUB SWAP1 REVERT JUMPDEST DUP1 PUSH1 0x1 ADD DUP1 SLOAD SWAP1 POP PUSH8 0xFFFFFFFFFFFFFFFF DUP2 GT ISZERO PUSH2 0x7BB JUMPI PUSH2 0x7BA PUSH2 0x11BD JUMP JUMPDEST JUMPDEST PUSH1 0x40 MLOAD SWAP1 DUP1 DUP3 MSTORE DUP1 PUSH1 0x20 MUL PUSH1 0x20 ADD DUP3 ADD PUSH1 0x40 MSTORE DUP1 ISZERO PUSH2 0x7E9 JUMPI DUP2 PUSH1 0x20 ADD PUSH1 0x20 DUP3 MUL DUP1 CALLDATASIZE DUP4 CALLDATACOPY DUP1 DUP3 ADD SWAP2 POP POP SWAP1 POP JUMPDEST POP SWAP4 POP PUSH1 0x0 DUP1 PUSH1 0x0 JUMPDEST DUP4 PUSH1 0x1 ADD DUP1 SLOAD SWAP1 POP DUP2 GT PUSH2 0x912 JUMPI PUSH1 0x0 PUSH2 0x80C DUP10 DUP4 PUSH2 0x1082 JUMP JUMPDEST SWAP1 POP DUP4 DUP2 GT ISZERO PUSH2 0x85D JUMPI DUP1 SWAP4 POP DUP5 PUSH1 0x1 ADD DUP3 DUP2 SLOAD DUP2 LT PUSH2 0x82F JUMPI PUSH2 0x82E PUSH2 0x1DBD JUMP JUMPDEST JUMPDEST SWAP1 PUSH1 0x0 MSTORE PUSH1 0x20 PUSH1 0x0 KECCAK256 ADD PUSH1 0x0 SWAP1 SLOAD SWAP1 PUSH2 0x100 EXP SWAP1 DIV PUSH20 0xFFFFFFFFFFFFFFFFFFFFFFFFFFFFFFFFFFFFFFFF AND SWAP3 POP JUMPDEST DUP5 PUSH1 0x5 ADD PUSH1 0x0 DUP7 PUSH1 0x1 ADD DUP5 DUP2 SLOAD DUP2 LT PUSH2 0x879 JUMPI PUSH2 0x878 PUSH2 0x1DBD JUMP JUMPDEST JUMPDEST SWAP1 PUSH1 0x0 MSTORE PUSH1 0x20 PUSH1 0x0 KECCAK256 ADD PUSH1 0x0 SWAP1 SLOAD SWAP1 PUSH2 0x100 EXP SWAP1 DIV PUSH20 0xFFFFFFFFFFFFFFFFFFFFFFFFFFFFFFFFFFFFFFFF AND PUSH20 0xFFFFFFFFFFFFFFFFFFFFFFFFFFFFFFFFFFFFFFFF AND PUSH20 0xFFFFFFFFFFFFFFFFFFFFFFFFFFFFFFFFFFFFFFFF AND DUP2 MSTORE PUSH1 0x20 ADD SWAP1 DUP2 MSTORE PUSH1 0x20 ADD PUSH1 0x0 KECCAK256 SLOAD DUP9 DUP4 DUP2 MLOAD DUP2 LT PUSH2 0x8F2 JUMPI PUSH2 0x8F1 PUSH2 0x1DBD JUMP JUMPDEST JUMPDEST PUSH1 0x20 MUL PUSH1 0x20 ADD ADD DUP2 DUP2 MSTORE POP POP POP DUP1 DUP1 PUSH2 0x90A SWAP1 PUSH2 0x1C73 JUMP JUMPDEST SWAP2 POP POP PUSH2 0x7F2 JUMP JUMPDEST POP DUP6 DUP2 DUP4 SWAP6 POP SWAP6 POP SWAP6 POP POP POP POP SWAP2 SWAP4 SWAP1 SWAP3 POP JUMP JUMPDEST PUSH1 0x0 DUP1 DUP3 PUSH1 0x40 MLOAD PUSH2 0x937 SWAP2 SWAP1 PUSH2 0x1B2F JUMP JUMPDEST SWAP1 DUP2 MSTORE PUSH1 0x20 ADD PUSH1 0x40 MLOAD DUP1 SWAP2 SUB SWAP1 KECCAK256 SWAP1 POP PUSH1 0x0 PUSH20 0xFFFFFFFFFFFFFFFFFFFFFFFFFFFFFFFFFFFFFFFF AND DUP2 PUSH1 0x0 ADD PUSH1 0x0 SWAP1 SLOAD SWAP1 PUSH2 0x100 EXP SWAP1 DIV PUSH20 0xFFFFFFFFFFFFFFFFFFFFFFFFFFFFFFFFFFFFFFFF AND PUSH20 0xFFFFFFFFFFFFFFFFFFFFFFFFFFFFFFFFFFFFFFFF AND EQ ISZERO PUSH2 0x9DB JUMPI PUSH1 0x40 MLOAD PUSH32 0x8C379A000000000000000000000000000000000000000000000000000000000 DUP2 MSTORE PUSH1 0x4 ADD PUSH2 0x9D2 SWAP1 PUSH2 0x1E38 JUMP JUMPDEST PUSH1 0x40 MLOAD DUP1 SWAP2 SUB SWAP1 REVERT JUMPDEST CALLER PUSH20 0xFFFFFFFFFFFFFFFFFFFFFFFFFFFFFFFFFFFFFFFF AND DUP2 PUSH1 0x0 ADD PUSH1 0x0 SWAP1 SLOAD SWAP1 PUSH2 0x100 EXP SWAP1 DIV PUSH20 0xFFFFFFFFFFFFFFFFFFFFFFFFFFFFFFFFFFFFFFFF AND PUSH20 0xFFFFFFFFFFFFFFFFFFFFFFFFFFFFFFFFFFFFFFFF AND EQ PUSH2 0xA3B JUMPI PUSH2 0xA3A PUSH2 0x1E58 JUMP JUMPDEST JUMPDEST DUP1 PUSH1 0x2 ADD PUSH1 0x0 SWAP1 SLOAD SWAP1 PUSH2 0x100 EXP SWAP1 DIV PUSH4 0xFFFFFFFF AND PUSH4 0xFFFFFFFF AND DUP2 PUSH1 0x2 ADD PUSH1 0x4 SWAP1 SLOAD SWAP1 PUSH2 0x100 EXP SWAP1 DIV PUSH2 0xFFFF AND PUSH2 0xFFFF AND LT PUSH2 0xAAD JUMPI PUSH1 0x40 MLOAD PUSH32 0x8C379A000000000000000000000000000000000000000000000000000000000 DUP2 MSTORE PUSH1 0x4 ADD PUSH2 0xAA4 SWAP1 PUSH2 0x1EF9 JUMP JUMPDEST PUSH1 0x40 MLOAD DUP1 SWAP2 SUB SWAP1 REVERT JUMPDEST PUSH1 0x1 DUP2 PUSH1 0x3 ADD PUSH1 0x0 DUP6 PUSH20 0xFFFFFFFFFFFFFFFFFFFFFFFFFFFFFFFFFFFFFFFF AND PUSH20 0xFFFFFFFFFFFFFFFFFFFFFFFFFFFFFFFFFFFFFFFF AND DUP2 MSTORE PUSH1 0x20 ADD SWAP1 DUP2 MSTORE PUSH1 0x20 ADD PUSH1 0x0 KECCAK256 PUSH1 0x0 PUSH2 0x100 EXP DUP2 SLOAD DUP2 PUSH1 0xFF MUL NOT AND SWAP1 DUP4 ISZERO ISZERO MUL OR SWAP1 SSTORE POP DUP1 PUSH1 0x1 ADD DUP4 SWAP1 DUP1 PUSH1 0x1 DUP2 SLOAD ADD DUP1 DUP3 SSTORE DUP1 SWAP2 POP POP PUSH1 0x1 SWAP1 SUB SWAP1 PUSH1 0x0 MSTORE PUSH1 0x20 PUSH1 0x0 KECCAK256 ADD PUSH1 0x0 SWAP1 SWAP2 SWAP1 SWAP2 SWAP1 SWAP2 PUSH2 0x100 EXP DUP2 SLOAD DUP2 PUSH20 0xFFFFFFFFFFFFFFFFFFFFFFFFFFFFFFFFFFFFFFFF MUL NOT AND SWAP1 DUP4 PUSH20 0xFFFFFFFFFFFFFFFFFFFFFFFFFFFFFFFFFFFFFFFF AND MUL OR SWAP1 SSTORE POP DUP1 PUSH1 0x2 ADD PUSH1 0x4 DUP2 DUP2 SWAP1 SLOAD SWAP1 PUSH2 0x100 EXP SWAP1 DIV PUSH2 0xFFFF AND DUP1 SWAP3 SWAP2 SWAP1 PUSH2 0xB8E SWAP1 PUSH2 0x1F19 JUMP JUMPDEST SWAP2 SWAP1 PUSH2 0x100 EXP DUP2 SLOAD DUP2 PUSH2 0xFFFF MUL NOT AND SWAP1 DUP4 PUSH2 0xFFFF AND MUL OR SWAP1 SSTORE POP POP PUSH32 0xC19C59AA93348E8FC54764BC642ECA975E2639F44CC683EF8F027E1529CBDA32 DUP4 PUSH1 0x40 MLOAD PUSH2 0xBD8 SWAP2 SWAP1 PUSH2 0x1F44 JUMP JUMPDEST PUSH1 0x40 MLOAD DUP1 SWAP2 SUB SWAP1 LOG1 POP POP POP JUMP JUMPDEST PUSH1 0x0 DUP2 DUP1 MLOAD PUSH1 0x20 DUP2 ADD DUP3 ADD DUP1 MLOAD DUP5 DUP3 MSTORE PUSH1 0x20 DUP4 ADD PUSH1 0x20 DUP6 ADD KECCAK256 DUP2 DUP4 MSTORE DUP1 SWAP6 POP POP POP POP POP POP PUSH1 0x0 SWAP2 POP SWAP1 POP DUP1 PUSH1 0x0 ADD PUSH1 0x0 SWAP1 SLOAD SWAP1 PUSH2 0x100 EXP SWAP1 DIV PUSH20 0xFFFFFFFFFFFFFFFFFFFFFFFFFFFFFFFFFFFFFFFF AND SWAP1 DUP1 PUSH1 0x2 ADD PUSH1 0x0 SWAP1 SLOAD SWAP1 PUSH2 0x100 EXP SWAP1 DIV PUSH4 0xFFFFFFFF AND SWAP1 DUP1 PUSH1 0x2 ADD PUSH1 0x4 SWAP1 SLOAD SWAP1 PUSH2 0x100 EXP SWAP1 DIV PUSH2 0xFFFF AND SWAP1 DUP1 PUSH1 0x6 ADD PUSH1 0x0 SWAP1 SLOAD SWAP1 PUSH2 0x100 EXP SWAP1 DIV PUSH1 0xFF AND SWAP1 POP DUP5 JUMP JUMPDEST PUSH1 0x1 PUSH1 0x20 MSTORE DUP1 PUSH1 0x0 MSTORE PUSH1 0x40 PUSH1 0x0 KECCAK256 PUSH1 0x0 SWAP2 POP SWAP1 POP SLOAD DUP2 JUMP JUMPDEST PUSH1 0x0 DUP1 PUSH1 0x0 DUP4 PUSH1 0x40 MLOAD PUSH2 0xCA1 SWAP2 SWAP1 PUSH2 0x1B2F JUMP JUMPDEST SWAP1 DUP2 MSTORE PUSH1 0x20 ADD PUSH1 0x40 MLOAD DUP1 SWAP2 SUB SWAP1 KECCAK256 SWAP1 POP DUP1 PUSH1 0x2 ADD PUSH1 0x4 SWAP1 SLOAD SWAP1 PUSH2 0x100 EXP SWAP1 DIV PUSH2 0xFFFF AND PUSH2 0xFFFF AND SWAP2 POP POP SWAP2 SWAP1 POP JUMP JUMPDEST PUSH1 0x60 PUSH1 0x0 DUP1 DUP4 PUSH1 0x40 MLOAD PUSH2 0xCE3 SWAP2 SWAP1 PUSH2 0x1B2F JUMP JUMPDEST SWAP1 DUP2 MSTORE PUSH1 0x20 ADD PUSH1 0x40 MLOAD DUP1 SWAP2 SUB SWAP1 KECCAK256 SWAP1 POP DUP1 PUSH1 0x1 ADD DUP1 SLOAD DUP1 PUSH1 0x20 MUL PUSH1 0x20 ADD PUSH1 0x40 MLOAD SWAP1 DUP2 ADD PUSH1 0x40 MSTORE DUP1 SWAP3 SWAP2 SWAP1 DUP2 DUP2 MSTORE PUSH1 0x20 ADD DUP3 DUP1 SLOAD DUP1 ISZERO PUSH2 0xD77 JUMPI PUSH1 0x20 MUL DUP3 ADD SWAP2 SWAP1 PUSH1 0x0 MSTORE PUSH1 0x20 PUSH1 0x0 KECCAK256 SWAP1 JUMPDEST DUP2 PUSH1 0x0 SWAP1 SLOAD SWAP1 PUSH2 0x100 EXP SWAP1 DIV PUSH20 0xFFFFFFFFFFFFFFFFFFFFFFFFFFFFFFFFFFFFFFFF AND PUSH20 0xFFFFFFFFFFFFFFFFFFFFFFFFFFFFFFFFFFFFFFFF AND DUP2 MSTORE PUSH1 0x20 ADD SWAP1 PUSH1 0x1 ADD SWAP1 DUP1 DUP4 GT PUSH2 0xD2D JUMPI JUMPDEST POP POP POP POP POP SWAP2 POP POP SWAP2 SWAP1 POP JUMP JUMPDEST PUSH1 0x0 DUP1 DUP3 PUSH1 0x40 MLOAD PUSH2 0xD95 SWAP2 SWAP1 PUSH2 0x1B2F JUMP JUMPDEST SWAP1 DUP2 MSTORE PUSH1 0x20 ADD PUSH1 0x40 MLOAD DUP1 SWAP2 SUB SWAP1 KECCAK256 SWAP1 POP CALLER PUSH20 0xFFFFFFFFFFFFFFFFFFFFFFFFFFFFFFFFFFFFFFFF AND DUP2 PUSH1 0x0 ADD PUSH1 0x0 SWAP1 SLOAD SWAP1 PUSH2 0x100 EXP SWAP1 DIV PUSH20 0xFFFFFFFFFFFFFFFFFFFFFFFFFFFFFFFFFFFFFFFF AND PUSH20 0xFFFFFFFFFFFFFFFFFFFFFFFFFFFFFFFFFFFFFFFF AND EQ PUSH2 0xE37 JUMPI PUSH1 0x40 MLOAD PUSH32 0x8C379A000000000000000000000000000000000000000000000000000000000 DUP2 MSTORE PUSH1 0x4 ADD PUSH2 0xE2E SWAP1 PUSH2 0x1FAB JUMP JUMPDEST PUSH1 0x40 MLOAD DUP1 SWAP2 SUB SWAP1 REVERT JUMPDEST DUP1 PUSH1 0x6 ADD PUSH1 0x0 SWAP1 SLOAD SWAP1 PUSH2 0x100 EXP SWAP1 DIV PUSH1 0xFF AND ISZERO DUP2 PUSH1 0x6 ADD PUSH1 0x0 PUSH2 0x100 EXP DUP2 SLOAD DUP2 PUSH1 0xFF MUL NOT AND SWAP1 DUP4 ISZERO ISZERO MUL OR SWAP1 SSTORE POP POP POP JUMP JUMPDEST PUSH1 0x0 DUP1 PUSH1 0x0 DUP1 PUSH1 0x41 DUP6 MLOAD EQ PUSH2 0xE84 JUMPI PUSH1 0x0 SWAP4 POP POP POP POP PUSH2 0xF5C JUMP JUMPDEST PUSH1 0x20 DUP6 ADD MLOAD SWAP3 POP PUSH1 0x40 DUP6 ADD MLOAD SWAP2 POP PUSH1 0x60 DUP6 ADD MLOAD PUSH1 0x0 BYTE SWAP1 POP PUSH1 0x1B DUP2 PUSH1 0xFF AND LT ISZERO PUSH2 0xEB8 JUMPI PUSH1 0x1B DUP2 PUSH2 0xEB5 SWAP2 SWAP1 PUSH2 0x1FD8 JUMP JUMPDEST SWAP1 POP JUMPDEST PUSH1 0x1B DUP2 PUSH1 0xFF AND EQ ISZERO DUP1 ISZERO PUSH2 0xED0 JUMPI POP PUSH1 0x1C DUP2 PUSH1 0xFF AND EQ ISZERO JUMPDEST ISZERO PUSH2 0xEE1 JUMPI PUSH1 0x0 SWAP4 POP POP POP POP PUSH2 0xF5C JUMP JUMPDEST PUSH1 0x1 DUP7 PUSH1 0x40 MLOAD PUSH1 0x20 ADD PUSH2 0xEF4 SWAP2 SWAP1 PUSH2 0x207C JUMP JUMPDEST PUSH1 0x40 MLOAD PUSH1 0x20 DUP2 DUP4 SUB SUB DUP2 MSTORE SWAP1 PUSH1 0x40 MSTORE DUP1 MLOAD SWAP1 PUSH1 0x20 ADD KECCAK256 DUP3 DUP6 DUP6 PUSH1 0x40 MLOAD PUSH1 0x0 DUP2 MSTORE PUSH1 0x20 ADD PUSH1 0x40 MSTORE PUSH1 0x40 MLOAD PUSH2 0xF2A SWAP5 SWAP4 SWAP3 SWAP2 SWAP1 PUSH2 0x20B1 JUMP JUMPDEST PUSH1 0x20 PUSH1 0x40 MLOAD PUSH1 0x20 DUP2 SUB SWAP1 DUP1 DUP5 SUB SWAP1 DUP6 GAS STATICCALL ISZERO DUP1 ISZERO PUSH2 0xF4C JUMPI RETURNDATASIZE PUSH1 0x0 DUP1 RETURNDATACOPY RETURNDATASIZE PUSH1 0x0 REVERT JUMPDEST POP POP POP PUSH1 0x20 PUSH1 0x40 MLOAD SUB MLOAD SWAP4 POP POP POP POP JUMPDEST SWAP3 SWAP2 POP POP JUMP JUMPDEST PUSH1 0x0 DUP1 PUSH1 0x0 DUP5 PUSH1 0x40 MLOAD PUSH2 0xF75 SWAP2 SWAP1 PUSH2 0x1B2F JUMP JUMPDEST SWAP1 DUP2 MSTORE PUSH1 0x20 ADD PUSH1 0x40 MLOAD DUP1 SWAP2 SUB SWAP1 KECCAK256 SWAP1 POP PUSH1 0x1 DUP2 PUSH1 0x4 ADD PUSH1 0x0 DUP6 PUSH20 0xFFFFFFFFFFFFFFFFFFFFFFFFFFFFFFFFFFFFFFFF AND PUSH20 0xFFFFFFFFFFFFFFFFFFFFFFFFFFFFFFFFFFFFFFFF AND DUP2 MSTORE PUSH1 0x20 ADD SWAP1 DUP2 MSTORE PUSH1 0x20 ADD PUSH1 0x0 KECCAK256 PUSH1 0x0 PUSH2 0x100 EXP DUP2 SLOAD DUP2 PUSH1 0xFF MUL NOT AND SWAP1 DUP4 ISZERO ISZERO MUL OR SWAP1 SSTORE POP DUP1 PUSH1 0x5 ADD PUSH1 0x0 DUP7 PUSH20 0xFFFFFFFFFFFFFFFFFFFFFFFFFFFFFFFFFFFFFFFF AND PUSH20 0xFFFFFFFFFFFFFFFFFFFFFFFFFFFFFFFFFFFFFFFF AND DUP2 MSTORE PUSH1 0x20 ADD SWAP1 DUP2 MSTORE PUSH1 0x20 ADD PUSH1 0x0 KECCAK256 PUSH1 0x0 DUP2 SLOAD DUP1 SWAP3 SWAP2 SWAP1 PUSH2 0x1031 SWAP1 PUSH2 0x1C73 JUMP JUMPDEST SWAP2 SWAP1 POP SSTORE POP DUP1 PUSH1 0x5 ADD PUSH1 0x0 DUP7 PUSH20 0xFFFFFFFFFFFFFFFFFFFFFFFFFFFFFFFFFFFFFFFF AND PUSH20 0xFFFFFFFFFFFFFFFFFFFFFFFFFFFFFFFFFFFFFFFF AND DUP2 MSTORE PUSH1 0x20 ADD SWAP1 DUP2 MSTORE PUSH1 0x20 ADD PUSH1 0x0 KECCAK256 SLOAD SWAP2 POP POP SWAP4 SWAP3 POP POP POP JUMP JUMPDEST PUSH1 0x0 DUP1 PUSH1 0x0 DUP5 PUSH1 0x40 MLOAD PUSH2 0x1095 SWAP2 SWAP1 PUSH2 0x1B2F JUMP JUMPDEST SWAP1 DUP2 MSTORE PUSH1 0x20 ADD PUSH1 0x40 MLOAD DUP1 SWAP2 SUB SWAP1 KECCAK256 SWAP1 POP DUP1 PUSH1 0x5 ADD PUSH1 0x0 DUP3 PUSH1 0x1 ADD DUP6 DUP2 SLOAD DUP2 LT PUSH2 0x10C1 JUMPI PUSH2 0x10C0 PUSH2 0x1DBD JUMP JUMPDEST JUMPDEST SWAP1 PUSH1 0x0 MSTORE PUSH1 0x20 PUSH1 0x0 KECCAK256 ADD PUSH1 0x0 SWAP1 SLOAD SWAP1 PUSH2 0x100 EXP SWAP1 DIV PUSH20 0xFFFFFFFFFFFFFFFFFFFFFFFFFFFFFFFFFFFFFFFF AND PUSH20 0xFFFFFFFFFFFFFFFFFFFFFFFFFFFFFFFFFFFFFFFF AND PUSH20 0xFFFFFFFFFFFFFFFFFFFFFFFFFFFFFFFFFFFFFFFF AND DUP2 MSTORE PUSH1 0x20 ADD SWAP1 DUP2 MSTORE PUSH1 0x20 ADD PUSH1 0x0 KECCAK256 SLOAD SWAP2 POP POP SWAP3 SWAP2 POP POP JUMP JUMPDEST PUSH1 0x0 PUSH1 0x40 MLOAD SWAP1 POP SWAP1 JUMP JUMPDEST PUSH1 0x0 DUP1 REVERT JUMPDEST PUSH1 0x0 DUP1 REVERT JUMPDEST PUSH1 0x0 PUSH20 0xFFFFFFFFFFFFFFFFFFFFFFFFFFFFFFFFFFFFFFFF DUP3 AND SWAP1 POP SWAP2 SWAP1 POP JUMP JUMPDEST PUSH1 0x0 PUSH2 0x116F DUP3 PUSH2 0x1144 JUMP JUMPDEST SWAP1 POP SWAP2 SWAP1 POP JUMP JUMPDEST PUSH2 0x117F DUP2 PUSH2 0x1164 JUMP JUMPDEST DUP2 EQ PUSH2 0x118A JUMPI PUSH1 0x0 DUP1 REVERT JUMPDEST POP JUMP JUMPDEST PUSH1 0x0 DUP2 CALLDATALOAD SWAP1 POP PUSH2 0x119C DUP2 PUSH2 0x1176 JUMP JUMPDEST SWAP3 SWAP2 POP POP JUMP JUMPDEST PUSH1 0x0 DUP1 REVERT JUMPDEST PUSH1 0x0 DUP1 REVERT JUMPDEST PUSH1 0x0 PUSH1 0x1F NOT PUSH1 0x1F DUP4 ADD AND SWAP1 POP SWAP2 SWAP1 POP JUMP JUMPDEST PUSH32 0x4E487B7100000000000000000000000000000000000000000000000000000000 PUSH1 0x0 MSTORE PUSH1 0x41 PUSH1 0x4 MSTORE PUSH1 0x24 PUSH1 0x0 REVERT JUMPDEST PUSH2 0x11F5 DUP3 PUSH2 0x11AC JUMP JUMPDEST DUP2 ADD DUP2 DUP2 LT PUSH8 0xFFFFFFFFFFFFFFFF DUP3 GT OR ISZERO PUSH2 0x1214 JUMPI PUSH2 0x1213 PUSH2 0x11BD JUMP JUMPDEST JUMPDEST DUP1 PUSH1 0x40 MSTORE POP POP POP JUMP JUMPDEST PUSH1 0x0 PUSH2 0x1227 PUSH2 0x1130 JUMP JUMPDEST SWAP1 POP PUSH2 0x1233 DUP3 DUP3 PUSH2 0x11EC JUMP JUMPDEST SWAP2 SWAP1 POP JUMP JUMPDEST PUSH1 0x0 PUSH8 0xFFFFFFFFFFFFFFFF DUP3 GT ISZERO PUSH2 0x1253 JUMPI PUSH2 0x1252 PUSH2 0x11BD JUMP JUMPDEST JUMPDEST PUSH2 0x125C DUP3 PUSH2 0x11AC JUMP JUMPDEST SWAP1 POP PUSH1 0x20 DUP2 ADD SWAP1 POP SWAP2 SWAP1 POP JUMP JUMPDEST DUP3 DUP2 DUP4 CALLDATACOPY PUSH1 0x0 DUP4 DUP4 ADD MSTORE POP POP POP JUMP JUMPDEST PUSH1 0x0 PUSH2 0x128B PUSH2 0x1286 DUP5 PUSH2 0x1238 JUMP JUMPDEST PUSH2 0x121D JUMP JUMPDEST SWAP1 POP DUP3 DUP2 MSTORE PUSH1 0x20 DUP2 ADD DUP5 DUP5 DUP5 ADD GT ISZERO PUSH2 0x12A7 JUMPI PUSH2 0x12A6 PUSH2 0x11A7 JUMP JUMPDEST JUMPDEST PUSH2 0x12B2 DUP5 DUP3 DUP6 PUSH2 0x1269 JUMP JUMPDEST POP SWAP4 SWAP3 POP POP POP JUMP JUMPDEST PUSH1 0x0 DUP3 PUSH1 0x1F DUP4 ADD SLT PUSH2 0x12CF JUMPI PUSH2 0x12CE PUSH2 0x11A2 JUMP JUMPDEST JUMPDEST DUP2 CALLDATALOAD PUSH2 0x12DF DUP5 DUP3 PUSH1 0x20 DUP7 ADD PUSH2 0x1278 JUMP JUMPDEST SWAP2 POP POP SWAP3 SWAP2 POP POP JUMP JUMPDEST PUSH1 0x0 DUP2 SWAP1 POP SWAP2 SWAP1 POP JUMP JUMPDEST PUSH2 0x12FB DUP2 PUSH2 0x12E8 JUMP JUMPDEST DUP2 EQ PUSH2 0x1306 JUMPI PUSH1 0x0 DUP1 REVERT JUMPDEST POP JUMP JUMPDEST PUSH1 0x0 DUP2 CALLDATALOAD SWAP1 POP PUSH2 0x1318 DUP2 PUSH2 0x12F2 JUMP JUMPDEST SWAP3 SWAP2 POP POP JUMP JUMPDEST PUSH1 0x0 DUP1 PUSH1 0x0 DUP1 PUSH1 0x80 DUP6 DUP8 SUB SLT ISZERO PUSH2 0x1338 JUMPI PUSH2 0x1337 PUSH2 0x113A JUMP JUMPDEST JUMPDEST PUSH1 0x0 PUSH2 0x1346 DUP8 DUP3 DUP9 ADD PUSH2 0x118D JUMP JUMPDEST SWAP5 POP POP PUSH1 0x20 DUP6 ADD CALLDATALOAD PUSH8 0xFFFFFFFFFFFFFFFF DUP2 GT ISZERO PUSH2 0x1367 JUMPI PUSH2 0x1366 PUSH2 0x113F JUMP JUMPDEST JUMPDEST PUSH2 0x1373 DUP8 DUP3 DUP9 ADD PUSH2 0x12BA JUMP JUMPDEST SWAP4 POP POP PUSH1 0x40 PUSH2 0x1384 DUP8 DUP3 DUP9 ADD PUSH2 0x1309 JUMP JUMPDEST SWAP3 POP POP PUSH1 0x60 PUSH2 0x1395 DUP8 DUP3 DUP9 ADD PUSH2 0x1309 JUMP JUMPDEST SWAP2 POP POP SWAP3 SWAP6 SWAP2 SWAP5 POP SWAP3 POP JUMP JUMPDEST PUSH1 0x0 DUP2 SWAP1 POP SWAP2 SWAP1 POP JUMP JUMPDEST PUSH2 0x13B4 DUP2 PUSH2 0x13A1 JUMP JUMPDEST DUP3 MSTORE POP POP JUMP JUMPDEST PUSH1 0x0 PUSH1 0x20 DUP3 ADD SWAP1 POP PUSH2 0x13CF PUSH1 0x0 DUP4 ADD DUP5 PUSH2 0x13AB JUMP JUMPDEST SWAP3 SWAP2 POP POP JUMP JUMPDEST PUSH1 0x0 PUSH2 0xFFFF DUP3 AND SWAP1 POP SWAP2 SWAP1 POP JUMP JUMPDEST PUSH2 0x13EC DUP2 PUSH2 0x13D5 JUMP JUMPDEST DUP2 EQ PUSH2 0x13F7 JUMPI PUSH1 0x0 DUP1 REVERT JUMPDEST POP JUMP JUMPDEST PUSH1 0x0 DUP2 CALLDATALOAD SWAP1 POP PUSH2 0x1409 DUP2 PUSH2 0x13E3 JUMP JUMPDEST SWAP3 SWAP2 POP POP JUMP JUMPDEST PUSH1 0x0 DUP1 PUSH1 0x40 DUP4 DUP6 SUB SLT ISZERO PUSH2 0x1426 JUMPI PUSH2 0x1425 PUSH2 0x113A JUMP JUMPDEST JUMPDEST PUSH1 0x0 DUP4 ADD CALLDATALOAD PUSH8 0xFFFFFFFFFFFFFFFF DUP2 GT ISZERO PUSH2 0x1444 JUMPI PUSH2 0x1443 PUSH2 0x113F JUMP JUMPDEST JUMPDEST PUSH2 0x1450 DUP6 DUP3 DUP7 ADD PUSH2 0x12BA JUMP JUMPDEST SWAP3 POP POP PUSH1 0x20 PUSH2 0x1461 DUP6 DUP3 DUP7 ADD PUSH2 0x13FA JUMP JUMPDEST SWAP2 POP POP SWAP3 POP SWAP3 SWAP1 POP JUMP JUMPDEST PUSH1 0x0 DUP2 MLOAD SWAP1 POP SWAP2 SWAP1 POP JUMP JUMPDEST PUSH1 0x0 DUP3 DUP3 MSTORE PUSH1 0x20 DUP3 ADD SWAP1 POP SWAP3 SWAP2 POP POP JUMP JUMPDEST PUSH1 0x0 JUMPDEST DUP4 DUP2 LT ISZERO PUSH2 0x14A5 JUMPI DUP1 DUP3 ADD MLOAD DUP2 DUP5 ADD MSTORE PUSH1 0x20 DUP2 ADD SWAP1 POP PUSH2 0x148A JUMP JUMPDEST DUP4 DUP2 GT ISZERO PUSH2 0x14B4 JUMPI PUSH1 0x0 DUP5 DUP5 ADD MSTORE JUMPDEST POP POP POP POP JUMP JUMPDEST PUSH1 0x0 PUSH2 0x14C5 DUP3 PUSH2 0x146B JUMP JUMPDEST PUSH2 0x14CF DUP2 DUP6 PUSH2 0x1476 JUMP JUMPDEST SWAP4 POP PUSH2 0x14DF DUP2 DUP6 PUSH1 0x20 DUP7 ADD PUSH2 0x1487 JUMP JUMPDEST PUSH2 0x14E8 DUP2 PUSH2 0x11AC JUMP JUMPDEST DUP5 ADD SWAP2 POP POP SWAP3 SWAP2 POP POP JUMP JUMPDEST PUSH2 0x14FC DUP2 PUSH2 0x12E8 JUMP JUMPDEST DUP3 MSTORE POP POP JUMP JUMPDEST PUSH1 0x0 PUSH1 0x40 DUP3 ADD SWAP1 POP DUP2 DUP2 SUB PUSH1 0x0 DUP4 ADD MSTORE PUSH2 0x151C DUP2 DUP6 PUSH2 0x14BA JUMP JUMPDEST SWAP1 POP PUSH2 0x152B PUSH1 0x20 DUP4 ADD DUP5 PUSH2 0x14F3 JUMP JUMPDEST SWAP4 SWAP3 POP POP POP JUMP JUMPDEST PUSH1 0x0 PUSH8 0xFFFFFFFFFFFFFFFF DUP3 GT ISZERO PUSH2 0x154D JUMPI PUSH2 0x154C PUSH2 0x11BD JUMP JUMPDEST JUMPDEST PUSH2 0x1556 DUP3 PUSH2 0x11AC JUMP JUMPDEST SWAP1 POP PUSH1 0x20 DUP2 ADD SWAP1 POP SWAP2 SWAP1 POP JUMP JUMPDEST PUSH1 0x0 PUSH2 0x1576 PUSH2 0x1571 DUP5 PUSH2 0x1532 JUMP JUMPDEST PUSH2 0x121D JUMP JUMPDEST SWAP1 POP DUP3 DUP2 MSTORE PUSH1 0x20 DUP2 ADD DUP5 DUP5 DUP5 ADD GT ISZERO PUSH2 0x1592 JUMPI PUSH2 0x1591 PUSH2 0x11A7 JUMP JUMPDEST JUMPDEST PUSH2 0x159D DUP5 DUP3 DUP6 PUSH2 0x1269 JUMP JUMPDEST POP SWAP4 SWAP3 POP POP POP JUMP JUMPDEST PUSH1 0x0 DUP3 PUSH1 0x1F DUP4 ADD SLT PUSH2 0x15BA JUMPI PUSH2 0x15B9 PUSH2 0x11A2 JUMP JUMPDEST JUMPDEST DUP2 CALLDATALOAD PUSH2 0x15CA DUP5 DUP3 PUSH1 0x20 DUP7 ADD PUSH2 0x1563 JUMP JUMPDEST SWAP2 POP POP SWAP3 SWAP2 POP POP JUMP JUMPDEST PUSH1 0x0 DUP1 PUSH1 0x0 DUP1 PUSH1 0x80 DUP6 DUP8 SUB SLT ISZERO PUSH2 0x15ED JUMPI PUSH2 0x15EC PUSH2 0x113A JUMP JUMPDEST JUMPDEST PUSH1 0x0 PUSH2 0x15FB DUP8 DUP3 DUP9 ADD PUSH2 0x118D JUMP JUMPDEST SWAP5 POP POP PUSH1 0x20 DUP6 ADD CALLDATALOAD PUSH8 0xFFFFFFFFFFFFFFFF DUP2 GT ISZERO PUSH2 0x161C JUMPI PUSH2 0x161B PUSH2 0x113F JUMP JUMPDEST JUMPDEST PUSH2 0x1628 DUP8 DUP3 DUP9 ADD PUSH2 0x12BA JUMP JUMPDEST SWAP4 POP POP PUSH1 0x40 PUSH2 0x1639 DUP8 DUP3 DUP9 ADD PUSH2 0x1309 JUMP JUMPDEST SWAP3 POP POP PUSH1 0x60 DUP6 ADD CALLDATALOAD PUSH8 0xFFFFFFFFFFFFFFFF DUP2 GT ISZERO PUSH2 0x165A JUMPI PUSH2 0x1659 PUSH2 0x113F JUMP JUMPDEST JUMPDEST PUSH2 0x1666 DUP8 DUP3 DUP9 ADD PUSH2 0x15A5 JUMP JUMPDEST SWAP2 POP POP SWAP3 SWAP6 SWAP2 SWAP5 POP SWAP3 POP JUMP JUMPDEST PUSH1 0x0 PUSH1 0x20 DUP3 DUP5 SUB SLT ISZERO PUSH2 0x1688 JUMPI PUSH2 0x1687 PUSH2 0x113A JUMP JUMPDEST JUMPDEST PUSH1 0x0 DUP3 ADD CALLDATALOAD PUSH8 0xFFFFFFFFFFFFFFFF DUP2 GT ISZERO PUSH2 0x16A6 JUMPI PUSH2 0x16A5 PUSH2 0x113F JUMP JUMPDEST JUMPDEST PUSH2 0x16B2 DUP5 DUP3 DUP6 ADD PUSH2 0x12BA JUMP JUMPDEST SWAP2 POP POP SWAP3 SWAP2 POP POP JUMP JUMPDEST PUSH1 0x0 DUP2 MLOAD SWAP1 POP SWAP2 SWAP1 POP JUMP JUMPDEST PUSH1 0x0 DUP3 DUP3 MSTORE PUSH1 0x20 DUP3 ADD SWAP1 POP SWAP3 SWAP2 POP POP JUMP JUMPDEST PUSH1 0x0 DUP2 SWAP1 POP PUSH1 0x20 DUP3 ADD SWAP1 POP SWAP2 SWAP1 POP JUMP JUMPDEST PUSH2 0x16F0 DUP2 PUSH2 0x12E8 JUMP JUMPDEST DUP3 MSTORE POP POP JUMP JUMPDEST PUSH1 0x0 PUSH2 0x1702 DUP4 DUP4 PUSH2 0x16E7 JUMP JUMPDEST PUSH1 0x20 DUP4 ADD SWAP1 POP SWAP3 SWAP2 POP POP JUMP JUMPDEST PUSH1 0x0 PUSH1 0x20 DUP3 ADD SWAP1 POP SWAP2 SWAP1 POP JUMP JUMPDEST PUSH1 0x0 PUSH2 0x1726 DUP3 PUSH2 0x16BB JUMP JUMPDEST PUSH2 0x1730 DUP2 DUP6 PUSH2 0x16C6 JUMP JUMPDEST SWAP4 POP PUSH2 0x173B DUP4 PUSH2 0x16D7 JUMP JUMPDEST DUP1 PUSH1 0x0 JUMPDEST DUP4 DUP2 LT ISZERO PUSH2 0x176C JUMPI DUP2 MLOAD PUSH2 0x1753 DUP9 DUP3 PUSH2 0x16F6 JUMP JUMPDEST SWAP8 POP PUSH2 0x175E DUP4 PUSH2 0x170E JUMP JUMPDEST SWAP3 POP POP PUSH1 0x1 DUP2 ADD SWAP1 POP PUSH2 0x173F JUMP JUMPDEST POP DUP6 SWAP4 POP POP POP POP SWAP3 SWAP2 POP POP JUMP JUMPDEST PUSH2 0x1782 DUP2 PUSH2 0x1164 JUMP JUMPDEST DUP3 MSTORE POP POP JUMP JUMPDEST PUSH1 0x0 PUSH1 0x60 DUP3 ADD SWAP1 POP DUP2 DUP2 SUB PUSH1 0x0 DUP4 ADD MSTORE PUSH2 0x17A2 DUP2 DUP7 PUSH2 0x171B JUMP JUMPDEST SWAP1 POP PUSH2 0x17B1 PUSH1 0x20 DUP4 ADD DUP6 PUSH2 0x1779 JUMP JUMPDEST PUSH2 0x17BE PUSH1 0x40 DUP4 ADD DUP5 PUSH2 0x14F3 JUMP JUMPDEST SWAP5 SWAP4 POP POP POP POP JUMP JUMPDEST PUSH1 0x0 DUP1 PUSH1 0x40 DUP4 DUP6 SUB SLT ISZERO PUSH2 0x17DD JUMPI PUSH2 0x17DC PUSH2 0x113A JUMP JUMPDEST JUMPDEST PUSH1 0x0 PUSH2 0x17EB DUP6 DUP3 DUP7 ADD PUSH2 0x118D JUMP JUMPDEST SWAP3 POP POP PUSH1 0x20 DUP4 ADD CALLDATALOAD PUSH8 0xFFFFFFFFFFFFFFFF DUP2 GT ISZERO PUSH2 0x180C JUMPI PUSH2 0x180B PUSH2 0x113F JUMP JUMPDEST JUMPDEST PUSH2 0x1818 DUP6 DUP3 DUP7 ADD PUSH2 0x12BA JUMP JUMPDEST SWAP2 POP POP SWAP3 POP SWAP3 SWAP1 POP JUMP JUMPDEST PUSH1 0x0 PUSH4 0xFFFFFFFF DUP3 AND SWAP1 POP SWAP2 SWAP1 POP JUMP JUMPDEST PUSH2 0x183B DUP2 PUSH2 0x1822 JUMP JUMPDEST DUP3 MSTORE POP POP JUMP JUMPDEST PUSH2 0x184A DUP2 PUSH2 0x13D5 JUMP JUMPDEST DUP3 MSTORE POP POP JUMP JUMPDEST PUSH1 0x0 DUP2 ISZERO ISZERO SWAP1 POP SWAP2 SWAP1 POP JUMP JUMPDEST PUSH2 0x1865 DUP2 PUSH2 0x1850 JUMP JUMPDEST DUP3 MSTORE POP POP JUMP JUMPDEST PUSH1 0x0 PUSH1 0x80 DUP3 ADD SWAP1 POP PUSH2 0x1880 PUSH1 0x0 DUP4 ADD DUP8 PUSH2 0x1779 JUMP JUMPDEST PUSH2 0x188D PUSH1 0x20 DUP4 ADD DUP7 PUSH2 0x1832 JUMP JUMPDEST PUSH2 0x189A PUSH1 0x40 DUP4 ADD DUP6 PUSH2 0x1841 JUMP JUMPDEST PUSH2 0x18A7 PUSH1 0x60 DUP4 ADD DUP5 PUSH2 0x185C JUMP JUMPDEST SWAP6 SWAP5 POP POP POP POP POP JUMP JUMPDEST PUSH1 0x0 PUSH1 0x20 DUP3 DUP5 SUB SLT ISZERO PUSH2 0x18C6 JUMPI PUSH2 0x18C5 PUSH2 0x113A JUMP JUMPDEST JUMPDEST PUSH1 0x0 PUSH2 0x18D4 DUP5 DUP3 DUP6 ADD PUSH2 0x118D JUMP JUMPDEST SWAP2 POP POP SWAP3 SWAP2 POP POP JUMP JUMPDEST PUSH1 0x0 PUSH1 0x20 DUP3 ADD SWAP1 POP PUSH2 0x18F2 PUSH1 0x0 DUP4 ADD DUP5 PUSH2 0x14F3 JUMP JUMPDEST SWAP3 SWAP2 POP POP JUMP JUMPDEST PUSH1 0x0 DUP2 MLOAD SWAP1 POP SWAP2 SWAP1 POP JUMP JUMPDEST PUSH1 0x0 DUP3 DUP3 MSTORE PUSH1 0x20 DUP3 ADD SWAP1 POP SWAP3 SWAP2 POP POP JUMP JUMPDEST PUSH1 0x0 DUP2 SWAP1 POP PUSH1 0x20 DUP3 ADD SWAP1 POP SWAP2 SWAP1 POP JUMP JUMPDEST PUSH2 0x192D DUP2 PUSH2 0x1164 JUMP JUMPDEST DUP3 MSTORE POP POP JUMP JUMPDEST PUSH1 0x0 PUSH2 0x193F DUP4 DUP4 PUSH2 0x1924 JUMP JUMPDEST PUSH1 0x20 DUP4 ADD SWAP1 POP SWAP3 SWAP2 POP POP JUMP JUMPDEST PUSH1 0x0 PUSH1 0x20 DUP3 ADD SWAP1 POP SWAP2 SWAP1 POP JUMP JUMPDEST PUSH1 0x0 PUSH2 0x1963 DUP3 PUSH2 0x18F8 JUMP JUMPDEST PUSH2 0x196D DUP2 DUP6 PUSH2 0x1903 JUMP JUMPDEST SWAP4 POP PUSH2 0x1978 DUP4 PUSH2 0x1914 JUMP JUMPDEST DUP1 PUSH1 0x0 JUMPDEST DUP4 DUP2 LT ISZERO PUSH2 0x19A9 JUMPI DUP2 MLOAD PUSH2 0x1990 DUP9 DUP3 PUSH2 0x1933 JUMP JUMPDEST SWAP8 POP PUSH2 0x199B DUP4 PUSH2 0x194B JUMP JUMPDEST SWAP3 POP POP PUSH1 0x1 DUP2 ADD SWAP1 POP PUSH2 0x197C JUMP JUMPDEST POP DUP6 SWAP4 POP POP POP POP SWAP3 SWAP2 POP POP JUMP JUMPDEST PUSH1 0x0 PUSH1 0x20 DUP3 ADD SWAP1 POP DUP2 DUP2 SUB PUSH1 0x0 DUP4 ADD MSTORE PUSH2 0x19D0 DUP2 DUP5 PUSH2 0x1958 JUMP JUMPDEST SWAP1 POP SWAP3 SWAP2 POP POP JUMP JUMPDEST PUSH1 0x0 DUP2 PUSH1 0x60 SHL SWAP1 POP SWAP2 SWAP1 POP JUMP JUMPDEST PUSH1 0x0 PUSH2 0x19F0 DUP3 PUSH2 0x19D8 JUMP JUMPDEST SWAP1 POP SWAP2 SWAP1 POP JUMP JUMPDEST PUSH1 0x0 PUSH2 0x1A02 DUP3 PUSH2 0x19E5 JUMP JUMPDEST SWAP1 POP SWAP2 SWAP1 POP JUMP JUMPDEST PUSH2 0x1A1A PUSH2 0x1A15 DUP3 PUSH2 0x1164 JUMP JUMPDEST PUSH2 0x19F7 JUMP JUMPDEST DUP3 MSTORE POP POP JUMP JUMPDEST PUSH1 0x0 DUP2 SWAP1 POP SWAP3 SWAP2 POP POP JUMP JUMPDEST PUSH32 0x6D6574617472616E73616374696F6E20566F74696E6720000000000000000000 PUSH1 0x0 DUP3 ADD MSTORE POP JUMP JUMPDEST PUSH1 0x0 PUSH2 0x1A61 PUSH1 0x17 DUP4 PUSH2 0x1A20 JUMP JUMPDEST SWAP2 POP PUSH2 0x1A6C DUP3 PUSH2 0x1A2B JUMP JUMPDEST PUSH1 0x17 DUP3 ADD SWAP1 POP SWAP2 SWAP1 POP JUMP JUMPDEST PUSH1 0x0 PUSH2 0x1A82 DUP3 PUSH2 0x146B JUMP JUMPDEST PUSH2 0x1A8C DUP2 DUP6 PUSH2 0x1A20 JUMP JUMPDEST SWAP4 POP PUSH2 0x1A9C DUP2 DUP6 PUSH1 0x20 DUP7 ADD PUSH2 0x1487 JUMP JUMPDEST DUP1 DUP5 ADD SWAP2 POP POP SWAP3 SWAP2 POP POP JUMP JUMPDEST PUSH1 0x0 DUP2 SWAP1 POP SWAP2 SWAP1 POP JUMP JUMPDEST PUSH2 0x1AC3 PUSH2 0x1ABE DUP3 PUSH2 0x12E8 JUMP JUMPDEST PUSH2 0x1AA8 JUMP JUMPDEST DUP3 MSTORE POP POP JUMP JUMPDEST PUSH1 0x0 PUSH2 0x1AD5 DUP3 DUP9 PUSH2 0x1A09 JUMP JUMPDEST PUSH1 0x14 DUP3 ADD SWAP2 POP PUSH2 0x1AE4 DUP3 PUSH2 0x1A54 JUMP JUMPDEST SWAP2 POP PUSH2 0x1AF0 DUP3 DUP8 PUSH2 0x1A09 JUMP JUMPDEST PUSH1 0x14 DUP3 ADD SWAP2 POP PUSH2 0x1B00 DUP3 DUP7 PUSH2 0x1A77 JUMP JUMPDEST SWAP2 POP PUSH2 0x1B0C DUP3 DUP6 PUSH2 0x1AB2 JUMP JUMPDEST PUSH1 0x20 DUP3 ADD SWAP2 POP PUSH2 0x1B1C DUP3 DUP5 PUSH2 0x1AB2 JUMP JUMPDEST PUSH1 0x20 DUP3 ADD SWAP2 POP DUP2 SWAP1 POP SWAP7 SWAP6 POP POP POP POP POP POP JUMP JUMPDEST PUSH1 0x0 PUSH2 0x1B3B DUP3 DUP5 PUSH2 0x1A77 JUMP JUMPDEST SWAP2 POP DUP2 SWAP1 POP SWAP3 SWAP2 POP POP JUMP JUMPDEST PUSH32 0x54686973206164647265737320646F6573206E6F742065786973742061732061 PUSH1 0x0 DUP3 ADD MSTORE PUSH32 0x2063616E64696461746500000000000000000000000000000000000000000000 PUSH1 0x20 DUP3 ADD MSTORE POP JUMP JUMPDEST PUSH1 0x0 PUSH2 0x1BA2 PUSH1 0x2A DUP4 PUSH2 0x1476 JUMP JUMPDEST SWAP2 POP PUSH2 0x1BAD DUP3 PUSH2 0x1B46 JUMP JUMPDEST PUSH1 0x40 DUP3 ADD SWAP1 POP SWAP2 SWAP1 POP JUMP JUMPDEST PUSH1 0x0 PUSH1 0x20 DUP3 ADD SWAP1 POP DUP2 DUP2 SUB PUSH1 0x0 DUP4 ADD MSTORE PUSH2 0x1BD1 DUP2 PUSH2 0x1B95 JUMP JUMPDEST SWAP1 POP SWAP2 SWAP1 POP JUMP JUMPDEST PUSH32 0x766F74696E672068617320656E64656400000000000000000000000000000000 PUSH1 0x0 DUP3 ADD MSTORE POP JUMP JUMPDEST PUSH1 0x0 PUSH2 0x1C0E PUSH1 0x10 DUP4 PUSH2 0x1476 JUMP JUMPDEST SWAP2 POP PUSH2 0x1C19 DUP3 PUSH2 0x1BD8 JUMP JUMPDEST PUSH1 0x20 DUP3 ADD SWAP1 POP SWAP2 SWAP1 POP JUMP JUMPDEST PUSH1 0x0 PUSH1 0x20 DUP3 ADD SWAP1 POP DUP2 DUP2 SUB PUSH1 0x0 DUP4 ADD MSTORE PUSH2 0x1C3D DUP2 PUSH2 0x1C01 JUMP JUMPDEST SWAP1 POP SWAP2 SWAP1 POP JUMP JUMPDEST PUSH32 0x4E487B7100000000000000000000000000000000000000000000000000000000 PUSH1 0x0 MSTORE PUSH1 0x11 PUSH1 0x4 MSTORE PUSH1 0x24 PUSH1 0x0 REVERT JUMPDEST PUSH1 0x0 PUSH2 0x1C7E DUP3 PUSH2 0x12E8 JUMP JUMPDEST SWAP2 POP PUSH32 0xFFFFFFFFFFFFFFFFFFFFFFFFFFFFFFFFFFFFFFFFFFFFFFFFFFFFFFFFFFFFFFFF DUP3 EQ ISZERO PUSH2 0x1CB1 JUMPI PUSH2 0x1CB0 PUSH2 0x1C44 JUMP JUMPDEST JUMPDEST PUSH1 0x1 DUP3 ADD SWAP1 POP SWAP2 SWAP1 POP JUMP JUMPDEST PUSH32 0x596F7520616C726561647920766F746564000000000000000000000000000000 PUSH1 0x0 DUP3 ADD MSTORE POP JUMP JUMPDEST PUSH1 0x0 PUSH2 0x1CF2 PUSH1 0x11 DUP4 PUSH2 0x1476 JUMP JUMPDEST SWAP2 POP PUSH2 0x1CFD DUP3 PUSH2 0x1CBC JUMP JUMPDEST PUSH1 0x20 DUP3 ADD SWAP1 POP SWAP2 SWAP1 POP JUMP JUMPDEST PUSH1 0x0 PUSH1 0x20 DUP3 ADD SWAP1 POP DUP2 DUP2 SUB PUSH1 0x0 DUP4 ADD MSTORE PUSH2 0x1D21 DUP2 PUSH2 0x1CE5 JUMP JUMPDEST SWAP1 POP SWAP2 SWAP1 POP JUMP JUMPDEST PUSH1 0x0 PUSH1 0x40 DUP3 ADD SWAP1 POP PUSH2 0x1D3D PUSH1 0x0 DUP4 ADD DUP6 PUSH2 0x1779 JUMP JUMPDEST PUSH2 0x1D4A PUSH1 0x20 DUP4 ADD DUP5 PUSH2 0x185C JUMP JUMPDEST SWAP4 SWAP3 POP POP POP JUMP JUMPDEST PUSH32 0x4E6F20706F6C6C20637265617465640000000000000000000000000000000000 PUSH1 0x0 DUP3 ADD MSTORE POP JUMP JUMPDEST PUSH1 0x0 PUSH2 0x1D87 PUSH1 0xF DUP4 PUSH2 0x1476 JUMP JUMPDEST SWAP2 POP PUSH2 0x1D92 DUP3 PUSH2 0x1D51 JUMP JUMPDEST PUSH1 0x20 DUP3 ADD SWAP1 POP SWAP2 SWAP1 POP JUMP JUMPDEST PUSH1 0x0 PUSH1 0x20 DUP3 ADD SWAP1 POP DUP2 DUP2 SUB PUSH1 0x0 DUP4 ADD MSTORE PUSH2 0x1DB6 DUP2 PUSH2 0x1D7A JUMP JUMPDEST SWAP1 POP SWAP2 SWAP1 POP JUMP JUMPDEST PUSH32 0x4E487B7100000000000000000000000000000000000000000000000000000000 PUSH1 0x0 MSTORE PUSH1 0x32 PUSH1 0x4 MSTORE PUSH1 0x24 PUSH1 0x0 REVERT JUMPDEST PUSH32 0x79657420746F20637265617465206120706F6C6C000000000000000000000000 PUSH1 0x0 DUP3 ADD MSTORE POP JUMP JUMPDEST PUSH1 0x0 PUSH2 0x1E22 PUSH1 0x14 DUP4 PUSH2 0x1476 JUMP JUMPDEST SWAP2 POP PUSH2 0x1E2D DUP3 PUSH2 0x1DEC JUMP JUMPDEST PUSH1 0x20 DUP3 ADD SWAP1 POP SWAP2 SWAP1 POP JUMP JUMPDEST PUSH1 0x0 PUSH1 0x20 DUP3 ADD SWAP1 POP DUP2 DUP2 SUB PUSH1 0x0 DUP4 ADD MSTORE PUSH2 0x1E51 DUP2 PUSH2 0x1E15 JUMP JUMPDEST SWAP1 POP SWAP2 SWAP1 POP JUMP JUMPDEST PUSH32 0x4E487B7100000000000000000000000000000000000000000000000000000000 PUSH1 0x0 MSTORE PUSH1 0x1 PUSH1 0x4 MSTORE PUSH1 0x24 PUSH1 0x0 REVERT JUMPDEST PUSH32 0x6D6178696D756D206E6F206F662063616E646964617465207065722073657373 PUSH1 0x0 DUP3 ADD MSTORE PUSH32 0x696F6E2072656769737465726564000000000000000000000000000000000000 PUSH1 0x20 DUP3 ADD MSTORE POP JUMP JUMPDEST PUSH1 0x0 PUSH2 0x1EE3 PUSH1 0x2E DUP4 PUSH2 0x1476 JUMP JUMPDEST SWAP2 POP PUSH2 0x1EEE DUP3 PUSH2 0x1E87 JUMP JUMPDEST PUSH1 0x40 DUP3 ADD SWAP1 POP SWAP2 SWAP1 POP JUMP JUMPDEST PUSH1 0x0 PUSH1 0x20 DUP3 ADD SWAP1 POP DUP2 DUP2 SUB PUSH1 0x0 DUP4 ADD MSTORE PUSH2 0x1F12 DUP2 PUSH2 0x1ED6 JUMP JUMPDEST SWAP1 POP SWAP2 SWAP1 POP JUMP JUMPDEST PUSH1 0x0 PUSH2 0x1F24 DUP3 PUSH2 0x13D5 JUMP JUMPDEST SWAP2 POP PUSH2 0xFFFF DUP3 EQ ISZERO PUSH2 0x1F39 JUMPI PUSH2 0x1F38 PUSH2 0x1C44 JUMP JUMPDEST JUMPDEST PUSH1 0x1 DUP3 ADD SWAP1 POP SWAP2 SWAP1 POP JUMP JUMPDEST PUSH1 0x0 PUSH1 0x20 DUP3 ADD SWAP1 POP PUSH2 0x1F59 PUSH1 0x0 DUP4 ADD DUP5 PUSH2 0x1779 JUMP JUMPDEST SWAP3 SWAP2 POP POP JUMP JUMPDEST PUSH32 0x6E6F74207468652063686169726D616E00000000000000000000000000000000 PUSH1 0x0 DUP3 ADD MSTORE POP JUMP JUMPDEST PUSH1 0x0 PUSH2 0x1F95 PUSH1 0x10 DUP4 PUSH2 0x1476 JUMP JUMPDEST SWAP2 POP PUSH2 0x1FA0 DUP3 PUSH2 0x1F5F JUMP JUMPDEST PUSH1 0x20 DUP3 ADD SWAP1 POP SWAP2 SWAP1 POP JUMP JUMPDEST PUSH1 0x0 PUSH1 0x20 DUP3 ADD SWAP1 POP DUP2 DUP2 SUB PUSH1 0x0 DUP4 ADD MSTORE PUSH2 0x1FC4 DUP2 PUSH2 0x1F88 JUMP JUMPDEST SWAP1 POP SWAP2 SWAP1 POP JUMP JUMPDEST PUSH1 0x0 PUSH1 0xFF DUP3 AND SWAP1 POP SWAP2 SWAP1 POP JUMP JUMPDEST PUSH1 0x0 PUSH2 0x1FE3 DUP3 PUSH2 0x1FCB JUMP JUMPDEST SWAP2 POP PUSH2 0x1FEE DUP4 PUSH2 0x1FCB JUMP JUMPDEST SWAP3 POP DUP3 PUSH1 0xFF SUB DUP3 GT ISZERO PUSH2 0x2004 JUMPI PUSH2 0x2003 PUSH2 0x1C44 JUMP JUMPDEST JUMPDEST DUP3 DUP3 ADD SWAP1 POP SWAP3 SWAP2 POP POP JUMP JUMPDEST PUSH32 0x19457468657265756D205369676E6564204D6573736167653A0A333200000000 PUSH1 0x0 DUP3 ADD MSTORE POP JUMP JUMPDEST PUSH1 0x0 PUSH2 0x2045 PUSH1 0x1C DUP4 PUSH2 0x1A20 JUMP JUMPDEST SWAP2 POP PUSH2 0x2050 DUP3 PUSH2 0x200F JUMP JUMPDEST PUSH1 0x1C DUP3 ADD SWAP1 POP SWAP2 SWAP1 POP JUMP JUMPDEST PUSH1 0x0 DUP2 SWAP1 POP SWAP2 SWAP1 POP JUMP JUMPDEST PUSH2 0x2076 PUSH2 0x2071 DUP3 PUSH2 0x13A1 JUMP JUMPDEST PUSH2 0x205B JUMP JUMPDEST DUP3 MSTORE POP POP JUMP JUMPDEST PUSH1 0x0 PUSH2 0x2087 DUP3 PUSH2 0x2038 JUMP JUMPDEST SWAP2 POP PUSH2 0x2093 DUP3 DUP5 PUSH2 0x2065 JUMP JUMPDEST PUSH1 0x20 DUP3 ADD SWAP2 POP DUP2 SWAP1 POP SWAP3 SWAP2 POP POP JUMP JUMPDEST PUSH2 0x20AB DUP2 PUSH2 0x1FCB JUMP JUMPDEST DUP3 MSTORE POP POP JUMP JUMPDEST PUSH1 0x0 PUSH1 0x80 DUP3 ADD SWAP1 POP PUSH2 0x20C6 PUSH1 0x0 DUP4 ADD DUP8 PUSH2 0x13AB JUMP JUMPDEST PUSH2 0x20D3 PUSH1 0x20 DUP4 ADD DUP7 PUSH2 0x20A2 JUMP JUMPDEST PUSH2 0x20E0 PUSH1 0x40 DUP4 ADD DUP6 PUSH2 0x13AB JUMP JUMPDEST PUSH2 0x20ED PUSH1 0x60 DUP4 ADD DUP5 PUSH2 0x13AB JUMP JUMPDEST SWAP6 SWAP5 POP POP POP POP POP JUMP INVALID LOG2 PUSH5 0x6970667358 0x22 SLT KECCAK256 EQ DUP16 PUSH30 0xAF6F81046AB13B3AD80051CF41615E679E151F89ACF2C7449A6E19BDBB64 PUSH20 0x6F6C634300080A00330000000000000000000000 "
				},
				"gasEstimates": {
					"creation": {
						"codeDepositCost": "1698400",
						"executionCost": "1785",
						"totalCost": "1700185"
					},
					"external": {
						"AddCandidate(address,string)": "infinite",
						"AllCandidates(string)": "infinite",
						"NoOfRegisteredCandidates(string)": "infinite",
						"createPoll(string,uint16)": "infinite",
						"metaVotingHash(address,string,uint256,uint256)": "infinite",
						"replayNonce(address)": "2836",
						"revealWinner(string)": "infinite",
						"setVotingState(string)": "infinite",
						"vote(address,string,uint256,bytes)": "infinite",
						"votingPoll(string)": "infinite"
					},
					"internal": {
						"countVote(address,string memory,address)": "infinite",
						"getSigner(bytes32,bytes memory)": "infinite",
						"getUint(string memory,uint256)": "infinite"
					}
				},
				"methodIdentifiers": {
					"AddCandidate(address,string)": "57f53967",
					"AllCandidates(string)": "af7cbc0d",
					"NoOfRegisteredCandidates(string)": "8579cacd",
					"createPoll(string,uint16)": "0968d4b1",
					"metaVotingHash(address,string,uint256,uint256)": "01ff993b",
					"replayNonce(address)": "67d407df",
					"revealWinner(string)": "4fcf1f39",
					"setVotingState(string)": "f0e4de22",
					"vote(address,string,uint256,bytes)": "12f0da4b",
					"votingPoll(string)": "63ee965a"
				}
			},
			"storageLayout": {
				"storage": [
					{
						"astId": 30,
						"contract": "src/voting.sol:Voting",
						"label": "votingPoll",
						"offset": 0,
						"slot": "0",
						"type": "t_mapping(t_string_memory_ptr,t_struct(VotingPoll)25_storage)"
					},
					{
						"astId": 34,
						"contract": "src/voting.sol:Voting",
						"label": "replayNonce",
						"offset": 0,
						"slot": "1",
						"type": "t_mapping(t_address,t_uint256)"
					}
				],
				"types": {
					"t_address": {
						"encoding": "inplace",
						"label": "address",
						"numberOfBytes": "20"
					},
					"t_array(t_address)dyn_storage": {
						"base": "t_address",
						"encoding": "dynamic_array",
						"label": "address[]",
						"numberOfBytes": "32"
					},
					"t_bool": {
						"encoding": "inplace",
						"label": "bool",
						"numberOfBytes": "1"
					},
					"t_mapping(t_address,t_bool)": {
						"encoding": "mapping",
						"key": "t_address",
						"label": "mapping(address => bool)",
						"numberOfBytes": "32",
						"value": "t_bool"
					},
					"t_mapping(t_address,t_uint256)": {
						"encoding": "mapping",
						"key": "t_address",
						"label": "mapping(address => uint256)",
						"numberOfBytes": "32",
						"value": "t_uint256"
					},
					"t_mapping(t_string_memory_ptr,t_struct(VotingPoll)25_storage)": {
						"encoding": "mapping",
						"key": "t_string_memory_ptr",
						"label": "mapping(string => struct Voting.VotingPoll)",
						"numberOfBytes": "32",
						"value": "t_struct(VotingPoll)25_storage"
					},
					"t_string_memory_ptr": {
						"encoding": "bytes",
						"label": "string",
						"numberOfBytes": "32"
					},
					"t_struct(VotingPoll)25_storage": {
						"encoding": "inplace",
						"label": "struct Voting.VotingPoll",
						"members": [
							{
								"astId": 3,
								"contract": "src/voting.sol:Voting",
								"label": "chairman",
								"offset": 0,
								"slot": "0",
								"type": "t_address"
							},
							{
								"astId": 6,
								"contract": "src/voting.sol:Voting",
								"label": "candidates",
								"offset": 0,
								"slot": "1",
								"type": "t_array(t_address)dyn_storage"
							},
							{
								"astId": 8,
								"contract": "src/voting.sol:Voting",
								"label": "maxNoOfCandidates",
								"offset": 0,
								"slot": "2",
								"type": "t_uint32"
							},
							{
								"astId": 10,
								"contract": "src/voting.sol:Voting",
								"label": "currentNoOfCandidates",
								"offset": 4,
								"slot": "2",
								"type": "t_uint16"
							},
							{
								"astId": 14,
								"contract": "src/voting.sol:Voting",
								"label": "CandidateStatus",
								"offset": 0,
								"slot": "3",
								"type": "t_mapping(t_address,t_bool)"
							},
							{
								"astId": 18,
								"contract": "src/voting.sol:Voting",
								"label": "hasVoted",
								"offset": 0,
								"slot": "4",
								"type": "t_mapping(t_address,t_bool)"
							},
							{
								"astId": 22,
								"contract": "src/voting.sol:Voting",
								"label": "CandidateVote",
								"offset": 0,
								"slot": "5",
								"type": "t_mapping(t_address,t_uint256)"
							},
							{
								"astId": 24,
								"contract": "src/voting.sol:Voting",
								"label": "voting",
								"offset": 0,
								"slot": "6",
								"type": "t_bool"
							}
						],
						"numberOfBytes": "224"
					},
					"t_uint16": {
						"encoding": "inplace",
						"label": "uint16",
						"numberOfBytes": "2"
					},
					"t_uint256": {
						"encoding": "inplace",
						"label": "uint256",
						"numberOfBytes": "32"
					},
					"t_uint32": {
						"encoding": "inplace",
						"label": "uint32",
						"numberOfBytes": "4"
					}
				}
			},
			"userdoc": {
				"kind": "user",
				"methods": {},
				"version": 1
			}
		}
	}
}