{
	"src/voting.sol": {
		"Voting": {
			"abi": [
				{
					"anonymous": false,
					"inputs": [
						{
							"indexed": false,
							"internalType": "address",
							"name": "NewCandidate",
							"type": "address"
						}
					],
					"name": "becameCandidate",
					"type": "event"
				},
				{
					"anonymous": false,
					"inputs": [
						{
							"indexed": false,
							"internalType": "address",
							"name": "_candidate",
							"type": "address"
						},
						{
							"indexed": false,
							"internalType": "bool",
							"name": "status",
							"type": "bool"
						}
					],
					"name": "voted",
					"type": "event"
				},
				{
					"inputs": [
						{
							"internalType": "address",
							"name": "_newCandidate",
							"type": "address"
						},
						{
							"internalType": "string",
							"name": "_name",
							"type": "string"
						}
					],
					"name": "AddCandidate",
					"outputs": [],
					"stateMutability": "nonpayable",
					"type": "function"
				},
				{
					"inputs": [
						{
							"internalType": "string",
							"name": "_name",
							"type": "string"
						}
					],
					"name": "AllCandidates",
					"outputs": [
						{
							"internalType": "address[]",
							"name": "_candidates",
							"type": "address[]"
						}
					],
					"stateMutability": "view",
					"type": "function"
				},
				{
					"inputs": [
						{
							"internalType": "string",
							"name": "_name",
							"type": "string"
						}
					],
					"name": "NoOfRegisteredCandidates",
					"outputs": [
						{
							"internalType": "uint256",
							"name": "",
							"type": "uint256"
						}
					],
					"stateMutability": "view",
					"type": "function"
				},
				{
					"inputs": [
						{
							"internalType": "string",
							"name": "_name",
							"type": "string"
						},
						{
							"internalType": "uint16",
							"name": "ExpectedNoOfCandidate",
							"type": "uint16"
						}
					],
					"name": "createPoll",
					"outputs": [
						{
							"internalType": "string",
							"name": "",
							"type": "string"
						},
						{
							"internalType": "uint256",
							"name": "Candidate",
							"type": "uint256"
						}
					],
					"stateMutability": "nonpayable",
					"type": "function"
				},
				{
					"inputs": [],
					"name": "getUint",
					"outputs": [
						{
							"internalType": "uint256",
							"name": "",
							"type": "uint256"
						}
					],
					"stateMutability": "nonpayable",
					"type": "function"
				},
				{
					"inputs": [
						{
							"internalType": "address",
							"name": "Cand",
							"type": "address"
						},
						{
							"internalType": "string",
							"name": "_name",
							"type": "string"
						},
						{
							"internalType": "uint256",
							"name": "nonce",
							"type": "uint256"
						},
						{
							"internalType": "uint256",
							"name": "time",
							"type": "uint256"
						}
					],
					"name": "metaVotingHash",
					"outputs": [
						{
							"internalType": "bytes32",
							"name": "",
							"type": "bytes32"
						}
					],
					"stateMutability": "view",
					"type": "function"
				},
				{
					"inputs": [
						{
							"internalType": "address",
							"name": "",
							"type": "address"
						}
					],
					"name": "replayNonce",
					"outputs": [
						{
							"internalType": "uint256",
							"name": "",
							"type": "uint256"
						}
					],
					"stateMutability": "view",
					"type": "function"
				},
				{
					"inputs": [
						{
							"internalType": "string",
							"name": "_name",
							"type": "string"
						}
					],
					"name": "revealWinner",
					"outputs": [
						{
							"internalType": "uint256[]",
							"name": "CV",
							"type": "uint256[]"
						},
						{
							"internalType": "address",
							"name": "",
							"type": "address"
						},
						{
							"internalType": "uint256",
							"name": "",
							"type": "uint256"
						}
					],
					"stateMutability": "view",
					"type": "function"
				},
				{
					"inputs": [
						{
							"internalType": "string",
							"name": "_name",
							"type": "string"
						}
					],
					"name": "setVotingState",
					"outputs": [],
					"stateMutability": "nonpayable",
					"type": "function"
				},
				{
					"inputs": [
						{
							"internalType": "address",
							"name": "Cand",
							"type": "address"
						},
						{
							"internalType": "string",
							"name": "_name",
							"type": "string"
						}
					],
					"name": "vote",
					"outputs": [],
					"stateMutability": "nonpayable",
					"type": "function"
				},
				{
					"inputs": [
						{
							"internalType": "string",
							"name": "",
							"type": "string"
						}
					],
					"name": "votingPoll",
					"outputs": [
						{
							"internalType": "address",
							"name": "chairman",
							"type": "address"
						},
						{
							"internalType": "uint32",
							"name": "maxNoOfCandidates",
							"type": "uint32"
						},
						{
							"internalType": "uint64",
							"name": "startTime",
							"type": "uint64"
						},
						{
							"internalType": "uint64",
							"name": "amountGenerated",
							"type": "uint64"
						},
						{
							"internalType": "uint16",
							"name": "currentNoOfCandidates",
							"type": "uint16"
						},
						{
							"internalType": "bool",
							"name": "voting",
							"type": "bool"
						}
					],
					"stateMutability": "view",
					"type": "function"
				},
				{
					"stateMutability": "payable",
					"type": "receive"
				}
			],
			"devdoc": {
				"kind": "dev",
				"methods": {},
				"version": 1
			},
			"evm": {
				"assembly": "    /* \"src/voting.sol\":63:5200  contract Voting{... */\n  mstore(0x40, 0x80)\n  callvalue\n  dup1\n  iszero\n  tag_1\n  jumpi\n  0x00\n  dup1\n  revert\ntag_1:\n  pop\n  dataSize(sub_0)\n  dup1\n  dataOffset(sub_0)\n  0x00\n  codecopy\n  0x00\n  return\nstop\n\nsub_0: assembly {\n        /* \"src/voting.sol\":63:5200  contract Voting{... */\n      mstore(0x40, 0x80)\n      jumpi(tag_1, lt(calldatasize, 0x04))\n      shr(0xe0, calldataload(0x00))\n      dup1\n      0x57f53967\n      gt\n      tag_14\n      jumpi\n      dup1\n      0x57f53967\n      eq\n      tag_8\n      jumpi\n      dup1\n      0x63ee965a\n      eq\n      tag_9\n      jumpi\n      dup1\n      0x67d407df\n      eq\n      tag_10\n      jumpi\n      dup1\n      0x8579cacd\n      eq\n      tag_11\n      jumpi\n      dup1\n      0xaf7cbc0d\n      eq\n      tag_12\n      jumpi\n      dup1\n      0xf0e4de22\n      eq\n      tag_13\n      jumpi\n      jump(tag_2)\n    tag_14:\n      dup1\n      0x0267a4\n      eq\n      tag_3\n      jumpi\n      dup1\n      0x01ff993b\n      eq\n      tag_4\n      jumpi\n      dup1\n      0x0968d4b1\n      eq\n      tag_5\n      jumpi\n      dup1\n      0x1bf533a4\n      eq\n      tag_6\n      jumpi\n      dup1\n      0x4fcf1f39\n      eq\n      tag_7\n      jumpi\n      jump(tag_2)\n    tag_1:\n      jumpi(tag_2, calldatasize)\n      stop\n    tag_2:\n      0x00\n      dup1\n      revert\n        /* \"src/voting.sol\":4295:4344  function getUint() external returns(uint){... */\n    tag_3:\n      callvalue\n      dup1\n      iszero\n      tag_17\n      jumpi\n      0x00\n      dup1\n      revert\n    tag_17:\n      pop\n      tag_18\n      tag_19\n      jump\t// in\n    tag_18:\n      mload(0x40)\n      tag_20\n      swap2\n      swap1\n      tag_21\n      jump\t// in\n    tag_20:\n      mload(0x40)\n      dup1\n      swap2\n      sub\n      swap1\n      return\n        /* \"src/voting.sol\":4351:4579  function metaVotingHash(address Cand, string memory _name, uint256 nonce, uint256 time) public view returns(bytes32){... */\n    tag_4:\n      callvalue\n      dup1\n      iszero\n      tag_22\n      jumpi\n      0x00\n      dup1\n      revert\n    tag_22:\n      pop\n      tag_23\n      0x04\n      dup1\n      calldatasize\n      sub\n      dup2\n      add\n      swap1\n      tag_24\n      swap2\n      swap1\n      tag_25\n      jump\t// in\n    tag_24:\n      tag_26\n      jump\t// in\n    tag_23:\n      mload(0x40)\n      tag_27\n      swap2\n      swap1\n      tag_28\n      jump\t// in\n    tag_27:\n      mload(0x40)\n      dup1\n      swap2\n      sub\n      swap1\n      return\n        /* \"src/voting.sol\":1482:1771  function createPoll(string memory _name, uint16 ExpectedNoOfCandidate) external returns(string memory, uint Candidate){... */\n    tag_5:\n      callvalue\n      dup1\n      iszero\n      tag_29\n      jumpi\n      0x00\n      dup1\n      revert\n    tag_29:\n      pop\n      tag_30\n      0x04\n      dup1\n      calldatasize\n      sub\n      dup2\n      add\n      swap1\n      tag_31\n      swap2\n      swap1\n      tag_32\n      jump\t// in\n    tag_31:\n      tag_33\n      jump\t// in\n    tag_30:\n      mload(0x40)\n      tag_34\n      swap3\n      swap2\n      swap1\n      tag_35\n      jump\t// in\n    tag_34:\n      mload(0x40)\n      dup1\n      swap2\n      sub\n      swap1\n      return\n        /* \"src/voting.sol\":2290:2875  function vote(address Cand, string memory _name /*, uint256 nonce, bytes memory signature*/) external  isCandidate(Cand, _name) StillVoting(_name){... */\n    tag_6:\n      callvalue\n      dup1\n      iszero\n      tag_36\n      jumpi\n      0x00\n      dup1\n      revert\n    tag_36:\n      pop\n      tag_37\n      0x04\n      dup1\n      calldatasize\n      sub\n      dup2\n      add\n      swap1\n      tag_38\n      swap2\n      swap1\n      tag_39\n      jump\t// in\n    tag_38:\n      tag_40\n      jump\t// in\n    tag_37:\n      stop\n        /* \"src/voting.sol\":3481:4087  function revealWinner( string memory _name) external view returns ( uint[] memory CV, address, uint){... */\n    tag_7:\n      callvalue\n      dup1\n      iszero\n      tag_41\n      jumpi\n      0x00\n      dup1\n      revert\n    tag_41:\n      pop\n      tag_42\n      0x04\n      dup1\n      calldatasize\n      sub\n      dup2\n      add\n      swap1\n      tag_43\n      swap2\n      swap1\n      tag_44\n      jump\t// in\n    tag_43:\n      tag_45\n      jump\t// in\n    tag_42:\n      mload(0x40)\n      tag_46\n      swap4\n      swap3\n      swap2\n      swap1\n      tag_47\n      jump\t// in\n    tag_46:\n      mload(0x40)\n      dup1\n      swap2\n      sub\n      swap1\n      return\n        /* \"src/voting.sol\":1775:2287  function AddCandidate(address _newCandidate, string memory _name) external{... */\n    tag_8:\n      callvalue\n      dup1\n      iszero\n      tag_48\n      jumpi\n      0x00\n      dup1\n      revert\n    tag_48:\n      pop\n      tag_49\n      0x04\n      dup1\n      calldatasize\n      sub\n      dup2\n      add\n      swap1\n      tag_50\n      swap2\n      swap1\n      tag_39\n      jump\t// in\n    tag_50:\n      tag_51\n      jump\t// in\n    tag_49:\n      stop\n        /* \"src/voting.sol\":670:717  mapping(string => VotingPoll) public votingPoll */\n    tag_9:\n      callvalue\n      dup1\n      iszero\n      tag_52\n      jumpi\n      0x00\n      dup1\n      revert\n    tag_52:\n      pop\n      tag_53\n      0x04\n      dup1\n      calldatasize\n      sub\n      dup2\n      add\n      swap1\n      tag_54\n      swap2\n      swap1\n      tag_44\n      jump\t// in\n    tag_54:\n      tag_55\n      jump\t// in\n    tag_53:\n      mload(0x40)\n      tag_56\n      swap7\n      swap6\n      swap5\n      swap4\n      swap3\n      swap2\n      swap1\n      tag_57\n      jump\t// in\n    tag_56:\n      mload(0x40)\n      dup1\n      swap2\n      sub\n      swap1\n      return\n        /* \"src/voting.sol\":723:770  mapping (address => uint256) public replayNonce */\n    tag_10:\n      callvalue\n      dup1\n      iszero\n      tag_58\n      jumpi\n      0x00\n      dup1\n      revert\n    tag_58:\n      pop\n      tag_59\n      0x04\n      dup1\n      calldatasize\n      sub\n      dup2\n      add\n      swap1\n      tag_60\n      swap2\n      swap1\n      tag_61\n      jump\t// in\n    tag_60:\n      tag_62\n      jump\t// in\n    tag_59:\n      mload(0x40)\n      tag_63\n      swap2\n      swap1\n      tag_21\n      jump\t// in\n    tag_63:\n      mload(0x40)\n      dup1\n      swap2\n      sub\n      swap1\n      return\n        /* \"src/voting.sol\":3126:3297  function NoOfRegisteredCandidates( string memory _name) public view returns(uint){... */\n    tag_11:\n      callvalue\n      dup1\n      iszero\n      tag_64\n      jumpi\n      0x00\n      dup1\n      revert\n    tag_64:\n      pop\n      tag_65\n      0x04\n      dup1\n      calldatasize\n      sub\n      dup2\n      add\n      swap1\n      tag_66\n      swap2\n      swap1\n      tag_44\n      jump\t// in\n    tag_66:\n      tag_67\n      jump\t// in\n    tag_65:\n      mload(0x40)\n      tag_68\n      swap2\n      swap1\n      tag_21\n      jump\t// in\n    tag_68:\n      mload(0x40)\n      dup1\n      swap2\n      sub\n      swap1\n      return\n        /* \"src/voting.sol\":3305:3478  function AllCandidates( string memory _name) public view returns(address[] memory _candidates){... */\n    tag_12:\n      callvalue\n      dup1\n      iszero\n      tag_69\n      jumpi\n      0x00\n      dup1\n      revert\n    tag_69:\n      pop\n      tag_70\n      0x04\n      dup1\n      calldatasize\n      sub\n      dup2\n      add\n      swap1\n      tag_71\n      swap2\n      swap1\n      tag_44\n      jump\t// in\n    tag_71:\n      tag_72\n      jump\t// in\n    tag_70:\n      mload(0x40)\n      tag_73\n      swap2\n      swap1\n      tag_74\n      jump\t// in\n    tag_73:\n      mload(0x40)\n      dup1\n      swap2\n      sub\n      swap1\n      return\n        /* \"src/voting.sol\":4090:4292  function setVotingState( string memory _name) external {... */\n    tag_13:\n      callvalue\n      dup1\n      iszero\n      tag_75\n      jumpi\n      0x00\n      dup1\n      revert\n    tag_75:\n      pop\n      tag_76\n      0x04\n      dup1\n      calldatasize\n      sub\n      dup2\n      add\n      swap1\n      tag_77\n      swap2\n      swap1\n      tag_44\n      jump\t// in\n    tag_77:\n      tag_78\n      jump\t// in\n    tag_76:\n      stop\n        /* \"src/voting.sol\":4295:4344  function getUint() external returns(uint){... */\n    tag_19:\n        /* \"src/voting.sol\":4331:4335  uint */\n      0x00\n        /* \"src/voting.sol\":4295:4344  function getUint() external returns(uint){... */\n      swap1\n      jump\t// out\n        /* \"src/voting.sol\":4351:4579  function metaVotingHash(address Cand, string memory _name, uint256 nonce, uint256 time) public view returns(bytes32){... */\n    tag_26:\n        /* \"src/voting.sol\":4459:4466  bytes32 */\n      0x00\n        /* \"src/voting.sol\":4515:4519  this */\n      address\n        /* \"src/voting.sol\":4548:4552  Cand */\n      dup6\n        /* \"src/voting.sol\":4554:4559  _name */\n      dup6\n        /* \"src/voting.sol\":4561:4566  nonce */\n      dup6\n        /* \"src/voting.sol\":4568:4572  time */\n      dup6\n        /* \"src/voting.sol\":4490:4573  abi.encodePacked(address(this),\"metatransaction Voting \", Cand, _name, nonce, time) */\n      add(0x20, mload(0x40))\n      tag_81\n      swap6\n      swap5\n      swap4\n      swap3\n      swap2\n      swap1\n      tag_82\n      jump\t// in\n    tag_81:\n      mload(0x40)\n      0x20\n      dup2\n      dup4\n      sub\n      sub\n      dup2\n      mstore\n      swap1\n      0x40\n      mstore\n        /* \"src/voting.sol\":4480:4574  keccak256(abi.encodePacked(address(this),\"metatransaction Voting \", Cand, _name, nonce, time)) */\n      dup1\n      mload\n      swap1\n      0x20\n      add\n      keccak256\n        /* \"src/voting.sol\":4473:4574  return keccak256(abi.encodePacked(address(this),\"metatransaction Voting \", Cand, _name, nonce, time)) */\n      swap1\n      pop\n        /* \"src/voting.sol\":4351:4579  function metaVotingHash(address Cand, string memory _name, uint256 nonce, uint256 time) public view returns(bytes32){... */\n      swap5\n      swap4\n      pop\n      pop\n      pop\n      pop\n      jump\t// out\n        /* \"src/voting.sol\":1482:1771  function createPoll(string memory _name, uint16 ExpectedNoOfCandidate) external returns(string memory, uint Candidate){... */\n    tag_33:\n        /* \"src/voting.sol\":1570:1583  string memory */\n      0x60\n        /* \"src/voting.sol\":1585:1599  uint Candidate */\n      0x00\n        /* \"src/voting.sol\":1606:1627  VotingPoll storage VP */\n      dup1\n        /* \"src/voting.sol\":1630:1640  votingPoll */\n      0x00\n        /* \"src/voting.sol\":1641:1646  _name */\n      dup6\n        /* \"src/voting.sol\":1630:1647  votingPoll[_name] */\n      mload(0x40)\n      tag_84\n      swap2\n      swap1\n      tag_85\n      jump\t// in\n    tag_84:\n      swap1\n      dup2\n      mstore\n      0x20\n      add\n      mload(0x40)\n      dup1\n      swap2\n      sub\n      swap1\n      keccak256\n        /* \"src/voting.sol\":1606:1647  VotingPoll storage VP = votingPoll[_name] */\n      swap1\n      pop\n        /* \"src/voting.sol\":1667:1677  msg.sender */\n      caller\n        /* \"src/voting.sol\":1653:1655  VP */\n      dup2\n        /* \"src/voting.sol\":1653:1664  VP.chairman */\n      0x00\n      add\n      0x00\n        /* \"src/voting.sol\":1653:1677  VP.chairman = msg.sender */\n      0x0100\n      exp\n      dup2\n      sload\n      dup2\n      0xffffffffffffffffffffffffffffffffffffffff\n      mul\n      not\n      and\n      swap1\n      dup4\n      0xffffffffffffffffffffffffffffffffffffffff\n      and\n      mul\n      or\n      swap1\n      sstore\n      pop\n        /* \"src/voting.sol\":1705:1726  ExpectedNoOfCandidate */\n      dup4\n        /* \"src/voting.sol\":1683:1726  VP.maxNoOfCandidates =ExpectedNoOfCandidate */\n      0xffff\n      and\n        /* \"src/voting.sol\":1683:1685  VP */\n      dup2\n        /* \"src/voting.sol\":1683:1703  VP.maxNoOfCandidates */\n      0x02\n      add\n      0x00\n        /* \"src/voting.sol\":1683:1726  VP.maxNoOfCandidates =ExpectedNoOfCandidate */\n      0x0100\n      exp\n      dup2\n      sload\n      dup2\n      0xffffffff\n      mul\n      not\n      and\n      swap1\n      dup4\n      0xffffffff\n      and\n      mul\n      or\n      swap1\n      sstore\n      pop\n        /* \"src/voting.sol\":1739:1744  _name */\n      dup5\n        /* \"src/voting.sol\":1746:1767  ExpectedNoOfCandidate */\n      dup5\n        /* \"src/voting.sol\":1732:1768  return(_name, ExpectedNoOfCandidate) */\n      dup1\n      0xffff\n      and\n      swap1\n      pop\n      swap3\n      pop\n      swap3\n      pop\n      pop\n        /* \"src/voting.sol\":1482:1771  function createPoll(string memory _name, uint16 ExpectedNoOfCandidate) external returns(string memory, uint Candidate){... */\n      swap3\n      pop\n      swap3\n      swap1\n      pop\n      jump\t// out\n        /* \"src/voting.sol\":2290:2875  function vote(address Cand, string memory _name /*, uint256 nonce, bytes memory signature*/) external  isCandidate(Cand, _name) StillVoting(_name){... */\n    tag_40:\n        /* \"src/voting.sol\":2405:2409  Cand */\n      dup2\n        /* \"src/voting.sol\":2411:2416  _name */\n      dup2\n        /* \"src/voting.sol\":1050:1071  VotingPoll storage VP */\n      0x00\n        /* \"src/voting.sol\":1074:1084  votingPoll */\n      dup1\n        /* \"src/voting.sol\":1085:1090  _name */\n      dup3\n        /* \"src/voting.sol\":1074:1091  votingPoll[_name] */\n      mload(0x40)\n      tag_87\n      swap2\n      swap1\n      tag_85\n      jump\t// in\n    tag_87:\n      swap1\n      dup2\n      mstore\n      0x20\n      add\n      mload(0x40)\n      dup1\n      swap2\n      sub\n      swap1\n      keccak256\n        /* \"src/voting.sol\":1050:1091  VotingPoll storage VP = votingPoll[_name] */\n      swap1\n      pop\n        /* \"src/voting.sol\":1131:1135  true */\n      0x01\n        /* \"src/voting.sol\":1105:1135  VP.CandidateStatus[Cand]==true */\n      iszero\n      iszero\n        /* \"src/voting.sol\":1105:1107  VP */\n      dup2\n        /* \"src/voting.sol\":1105:1123  VP.CandidateStatus */\n      0x03\n      add\n        /* \"src/voting.sol\":1105:1129  VP.CandidateStatus[Cand] */\n      0x00\n        /* \"src/voting.sol\":1124:1128  Cand */\n      dup6\n        /* \"src/voting.sol\":1105:1129  VP.CandidateStatus[Cand] */\n      0xffffffffffffffffffffffffffffffffffffffff\n      and\n      0xffffffffffffffffffffffffffffffffffffffff\n      and\n      dup2\n      mstore\n      0x20\n      add\n      swap1\n      dup2\n      mstore\n      0x20\n      add\n      0x00\n      keccak256\n      0x00\n      swap1\n      sload\n      swap1\n      0x0100\n      exp\n      swap1\n      div\n      0xff\n      and\n        /* \"src/voting.sol\":1105:1135  VP.CandidateStatus[Cand]==true */\n      iszero\n      iszero\n      eq\n        /* \"src/voting.sol\":1097:1181  require(VP.CandidateStatus[Cand]==true,'This address does not exist as a candidate') */\n      tag_88\n      jumpi\n      mload(0x40)\n      0x08c379a000000000000000000000000000000000000000000000000000000000\n      dup2\n      mstore\n      0x04\n      add\n      tag_89\n      swap1\n      tag_90\n      jump\t// in\n    tag_89:\n      mload(0x40)\n      dup1\n      swap2\n      sub\n      swap1\n      revert\n    tag_88:\n        /* \"src/voting.sol\":2430:2435  _name */\n      dup4\n        /* \"src/voting.sol\":1242:1263  VotingPoll storage VP */\n      0x00\n        /* \"src/voting.sol\":1266:1276  votingPoll */\n      dup1\n        /* \"src/voting.sol\":1277:1282  _name */\n      dup3\n        /* \"src/voting.sol\":1266:1283  votingPoll[_name] */\n      mload(0x40)\n      tag_92\n      swap2\n      swap1\n      tag_85\n      jump\t// in\n    tag_92:\n      swap1\n      dup2\n      mstore\n      0x20\n      add\n      mload(0x40)\n      dup1\n      swap2\n      sub\n      swap1\n      keccak256\n        /* \"src/voting.sol\":1242:1283  VotingPoll storage VP = votingPoll[_name] */\n      swap1\n      pop\n        /* \"src/voting.sol\":1310:1314  true */\n      0x01\n        /* \"src/voting.sol\":1297:1314  VP.voting == true */\n      iszero\n      iszero\n        /* \"src/voting.sol\":1297:1299  VP */\n      dup2\n        /* \"src/voting.sol\":1297:1306  VP.voting */\n      0x02\n      add\n      0x16\n      swap1\n      sload\n      swap1\n      0x0100\n      exp\n      swap1\n      div\n      0xff\n      and\n        /* \"src/voting.sol\":1297:1314  VP.voting == true */\n      iszero\n      iszero\n      eq\n        /* \"src/voting.sol\":1289:1335  require(VP.voting == true, \"voting has ended\") */\n      tag_93\n      jumpi\n      mload(0x40)\n      0x08c379a000000000000000000000000000000000000000000000000000000000\n      dup2\n      mstore\n      0x04\n      add\n      tag_94\n      swap1\n      tag_95\n      jump\t// in\n    tag_94:\n      mload(0x40)\n      dup1\n      swap2\n      sub\n      swap1\n      revert\n    tag_93:\n        /* \"src/voting.sol\":2689:2710  VotingPoll storage VP */\n      0x00\n        /* \"src/voting.sol\":2713:2723  votingPoll */\n      dup1\n        /* \"src/voting.sol\":2724:2729  _name */\n      dup8\n        /* \"src/voting.sol\":2713:2730  votingPoll[_name] */\n      mload(0x40)\n      tag_97\n      swap2\n      swap1\n      tag_85\n      jump\t// in\n    tag_97:\n      swap1\n      dup2\n      mstore\n      0x20\n      add\n      mload(0x40)\n      dup1\n      swap2\n      sub\n      swap1\n      keccak256\n        /* \"src/voting.sol\":2689:2730  VotingPoll storage VP = votingPoll[_name] */\n      swap1\n      pop\n        /* \"src/voting.sol\":2772:2777  false */\n      0x00\n        /* \"src/voting.sol\":2745:2777  VP.hasVoted[msg.sender] == false */\n      iszero\n      iszero\n        /* \"src/voting.sol\":2745:2747  VP */\n      dup2\n        /* \"src/voting.sol\":2745:2756  VP.hasVoted */\n      0x04\n      add\n        /* \"src/voting.sol\":2745:2768  VP.hasVoted[msg.sender] */\n      0x00\n        /* \"src/voting.sol\":2757:2767  msg.sender */\n      caller\n        /* \"src/voting.sol\":2745:2768  VP.hasVoted[msg.sender] */\n      0xffffffffffffffffffffffffffffffffffffffff\n      and\n      0xffffffffffffffffffffffffffffffffffffffff\n      and\n      dup2\n      mstore\n      0x20\n      add\n      swap1\n      dup2\n      mstore\n      0x20\n      add\n      0x00\n      keccak256\n      0x00\n      swap1\n      sload\n      swap1\n      0x0100\n      exp\n      swap1\n      div\n      0xff\n      and\n        /* \"src/voting.sol\":2745:2777  VP.hasVoted[msg.sender] == false */\n      iszero\n      iszero\n      eq\n        /* \"src/voting.sol\":2737:2799  require(VP.hasVoted[msg.sender] == false, \"You already voted\") */\n      tag_98\n      jumpi\n      mload(0x40)\n      0x08c379a000000000000000000000000000000000000000000000000000000000\n      dup2\n      mstore\n      0x04\n      add\n      tag_99\n      swap1\n      tag_100\n      jump\t// in\n    tag_99:\n      mload(0x40)\n      dup1\n      swap2\n      sub\n      swap1\n      revert\n    tag_98:\n        /* \"src/voting.sol\":2807:2841  countVote(Cand, _name, msg.sender) */\n      tag_101\n        /* \"src/voting.sol\":2817:2821  Cand */\n      dup9\n        /* \"src/voting.sol\":2823:2828  _name */\n      dup9\n        /* \"src/voting.sol\":2830:2840  msg.sender */\n      caller\n        /* \"src/voting.sol\":2807:2816  countVote */\n      tag_102\n        /* \"src/voting.sol\":2807:2841  countVote(Cand, _name, msg.sender) */\n      jump\t// in\n    tag_101:\n      pop\n        /* \"src/voting.sol\":2853:2870  voted(Cand, true) */\n      0xf3f16a15f074b71c5138107dfc7c63b80524d5411cb967caa97d8d9f12b2fd6b\n        /* \"src/voting.sol\":2859:2863  Cand */\n      dup9\n        /* \"src/voting.sol\":2865:2869  true */\n      0x01\n        /* \"src/voting.sol\":2853:2870  voted(Cand, true) */\n      mload(0x40)\n      tag_103\n      swap3\n      swap2\n      swap1\n      tag_104\n      jump\t// in\n    tag_103:\n      mload(0x40)\n      dup1\n      swap2\n      sub\n      swap1\n      log1\n        /* \"src/voting.sol\":2436:2875  {... */\n      pop\n        /* \"src/voting.sol\":1236:1346  {... */\n      pop\n        /* \"src/voting.sol\":1187:1188  _ */\n      pop\n        /* \"src/voting.sol\":1044:1191  {... */\n      pop\n        /* \"src/voting.sol\":2290:2875  function vote(address Cand, string memory _name /*, uint256 nonce, bytes memory signature*/) external  isCandidate(Cand, _name) StillVoting(_name){... */\n      pop\n      pop\n      pop\n      pop\n      jump\t// out\n        /* \"src/voting.sol\":3481:4087  function revealWinner( string memory _name) external view returns ( uint[] memory CV, address, uint){... */\n    tag_45:\n        /* \"src/voting.sol\":3549:3565  uint[] memory CV */\n      0x60\n        /* \"src/voting.sol\":3567:3574  address */\n      0x00\n        /* \"src/voting.sol\":3576:3580  uint */\n      dup1\n        /* \"src/voting.sol\":3588:3609  VotingPoll storage VP */\n      0x00\n        /* \"src/voting.sol\":3612:3622  votingPoll */\n      dup1\n        /* \"src/voting.sol\":3623:3628  _name */\n      dup6\n        /* \"src/voting.sol\":3612:3629  votingPoll[_name] */\n      mload(0x40)\n      tag_106\n      swap2\n      swap1\n      tag_85\n      jump\t// in\n    tag_106:\n      swap1\n      dup2\n      mstore\n      0x20\n      add\n      mload(0x40)\n      dup1\n      swap2\n      sub\n      swap1\n      keccak256\n        /* \"src/voting.sol\":3588:3629  VotingPoll storage VP = votingPoll[_name] */\n      swap1\n      pop\n        /* \"src/voting.sol\":3667:3668  0 */\n      0x00\n        /* \"src/voting.sol\":3644:3669  VP.chairman != address(0) */\n      0xffffffffffffffffffffffffffffffffffffffff\n      and\n        /* \"src/voting.sol\":3644:3646  VP */\n      dup2\n        /* \"src/voting.sol\":3644:3655  VP.chairman */\n      0x00\n      add\n      0x00\n      swap1\n      sload\n      swap1\n      0x0100\n      exp\n      swap1\n      div\n      0xffffffffffffffffffffffffffffffffffffffff\n      and\n        /* \"src/voting.sol\":3644:3669  VP.chairman != address(0) */\n      0xffffffffffffffffffffffffffffffffffffffff\n      and\n      eq\n      iszero\n        /* \"src/voting.sol\":3636:3689  require(VP.chairman != address(0), \"No poll created\") */\n      tag_107\n      jumpi\n      mload(0x40)\n      0x08c379a000000000000000000000000000000000000000000000000000000000\n      dup2\n      mstore\n      0x04\n      add\n      tag_108\n      swap1\n      tag_109\n      jump\t// in\n    tag_108:\n      mload(0x40)\n      dup1\n      swap2\n      sub\n      swap1\n      revert\n    tag_107:\n        /* \"src/voting.sol\":3712:3714  VP */\n      dup1\n        /* \"src/voting.sol\":3712:3725  VP.candidates */\n      0x01\n      add\n        /* \"src/voting.sol\":3712:3732  VP.candidates.length */\n      dup1\n      sload\n      swap1\n      pop\n        /* \"src/voting.sol\":3701:3733  new uint[](VP.candidates.length) */\n      0xffffffffffffffff\n      dup2\n      gt\n      iszero\n      tag_110\n      jumpi\n      tag_111\n      tag_112\n      jump\t// in\n    tag_111:\n    tag_110:\n      mload(0x40)\n      swap1\n      dup1\n      dup3\n      mstore\n      dup1\n      0x20\n      mul\n      0x20\n      add\n      dup3\n      add\n      0x40\n      mstore\n      dup1\n      iszero\n      tag_113\n      jumpi\n      dup2\n      0x20\n      add\n      0x20\n      dup3\n      mul\n      dup1\n      calldatasize\n      dup4\n      calldatacopy\n      dup1\n      dup3\n      add\n      swap2\n      pop\n      pop\n      swap1\n      pop\n    tag_113:\n      pop\n        /* \"src/voting.sol\":3696:3733  CV = new uint[](VP.candidates.length) */\n      swap4\n      pop\n        /* \"src/voting.sol\":3740:3756  uint highestVote */\n      0x00\n        /* \"src/voting.sol\":3763:3777  address winner */\n      dup1\n        /* \"src/voting.sol\":3789:3795  uint i */\n      0x00\n        /* \"src/voting.sol\":3784:4045  for (uint i =0; i <= VP.candidates.length; i++){... */\n    tag_114:\n        /* \"src/voting.sol\":3805:3807  VP */\n      dup4\n        /* \"src/voting.sol\":3805:3818  VP.candidates */\n      0x01\n      add\n        /* \"src/voting.sol\":3805:3825  VP.candidates.length */\n      dup1\n      sload\n      swap1\n      pop\n        /* \"src/voting.sol\":3800:3801  i */\n      dup2\n        /* \"src/voting.sol\":3800:3825  i <= VP.candidates.length */\n      gt\n        /* \"src/voting.sol\":3784:4045  for (uint i =0; i <= VP.candidates.length; i++){... */\n      tag_115\n      jumpi\n        /* \"src/voting.sol\":3840:3848  uint val */\n      0x00\n        /* \"src/voting.sol\":3851:3853  VP */\n      dup5\n        /* \"src/voting.sol\":3851:3867  VP.CandidateVote */\n      0x05\n      add\n        /* \"src/voting.sol\":3851:3885  VP.CandidateVote[VP.candidates[i]] */\n      0x00\n        /* \"src/voting.sol\":3868:3870  VP */\n      dup7\n        /* \"src/voting.sol\":3868:3881  VP.candidates */\n      0x01\n      add\n        /* \"src/voting.sol\":3882:3883  i */\n      dup5\n        /* \"src/voting.sol\":3868:3884  VP.candidates[i] */\n      dup2\n      sload\n      dup2\n      lt\n      tag_117\n      jumpi\n      tag_118\n      tag_119\n      jump\t// in\n    tag_118:\n    tag_117:\n      swap1\n      0x00\n      mstore\n      keccak256(0x00, 0x20)\n      add\n      0x00\n      swap1\n      sload\n      swap1\n      0x0100\n      exp\n      swap1\n      div\n      0xffffffffffffffffffffffffffffffffffffffff\n      and\n        /* \"src/voting.sol\":3851:3885  VP.CandidateVote[VP.candidates[i]] */\n      0xffffffffffffffffffffffffffffffffffffffff\n      and\n      0xffffffffffffffffffffffffffffffffffffffff\n      and\n      dup2\n      mstore\n      0x20\n      add\n      swap1\n      dup2\n      mstore\n      0x20\n      add\n      0x00\n      keccak256\n      sload\n        /* \"src/voting.sol\":3840:3885  uint val = VP.CandidateVote[VP.candidates[i]] */\n      swap1\n      pop\n        /* \"src/voting.sol\":3901:3912  highestVote */\n      dup4\n        /* \"src/voting.sol\":3895:3898  val */\n      dup2\n        /* \"src/voting.sol\":3895:3912  val > highestVote */\n      gt\n        /* \"src/voting.sol\":3892:3986  if(val > highestVote){... */\n      iszero\n      tag_121\n      jumpi\n        /* \"src/voting.sol\":3938:3941  val */\n      dup1\n        /* \"src/voting.sol\":3924:3941  highestVote = val */\n      swap4\n      pop\n        /* \"src/voting.sol\":3962:3964  VP */\n      dup5\n        /* \"src/voting.sol\":3962:3975  VP.candidates */\n      0x01\n      add\n        /* \"src/voting.sol\":3976:3977  i */\n      dup3\n        /* \"src/voting.sol\":3962:3978  VP.candidates[i] */\n      dup2\n      sload\n      dup2\n      lt\n      tag_122\n      jumpi\n      tag_123\n      tag_119\n      jump\t// in\n    tag_123:\n    tag_122:\n      swap1\n      0x00\n      mstore\n      keccak256(0x00, 0x20)\n      add\n      0x00\n      swap1\n      sload\n      swap1\n      0x0100\n      exp\n      swap1\n      div\n      0xffffffffffffffffffffffffffffffffffffffff\n      and\n        /* \"src/voting.sol\":3953:3978  winner = VP.candidates[i] */\n      swap3\n      pop\n        /* \"src/voting.sol\":3892:3986  if(val > highestVote){... */\n    tag_121:\n        /* \"src/voting.sol\":4001:4003  VP */\n      dup5\n        /* \"src/voting.sol\":4001:4017  VP.CandidateVote */\n      0x05\n      add\n        /* \"src/voting.sol\":4001:4035  VP.CandidateVote[VP.candidates[i]] */\n      0x00\n        /* \"src/voting.sol\":4018:4020  VP */\n      dup7\n        /* \"src/voting.sol\":4018:4031  VP.candidates */\n      0x01\n      add\n        /* \"src/voting.sol\":4032:4033  i */\n      dup5\n        /* \"src/voting.sol\":4018:4034  VP.candidates[i] */\n      dup2\n      sload\n      dup2\n      lt\n      tag_125\n      jumpi\n      tag_126\n      tag_119\n      jump\t// in\n    tag_126:\n    tag_125:\n      swap1\n      0x00\n      mstore\n      keccak256(0x00, 0x20)\n      add\n      0x00\n      swap1\n      sload\n      swap1\n      0x0100\n      exp\n      swap1\n      div\n      0xffffffffffffffffffffffffffffffffffffffff\n      and\n        /* \"src/voting.sol\":4001:4035  VP.CandidateVote[VP.candidates[i]] */\n      0xffffffffffffffffffffffffffffffffffffffff\n      and\n      0xffffffffffffffffffffffffffffffffffffffff\n      and\n      dup2\n      mstore\n      0x20\n      add\n      swap1\n      dup2\n      mstore\n      0x20\n      add\n      0x00\n      keccak256\n      sload\n        /* \"src/voting.sol\":3992:3994  CV */\n      dup9\n        /* \"src/voting.sol\":3995:3996  i */\n      dup4\n        /* \"src/voting.sol\":3992:3997  CV[i] */\n      dup2\n      mload\n      dup2\n      lt\n      tag_128\n      jumpi\n      tag_129\n      tag_119\n      jump\t// in\n    tag_129:\n    tag_128:\n      0x20\n      mul\n      0x20\n      add\n      add\n        /* \"src/voting.sol\":3992:4036  CV[i] = (VP.CandidateVote[VP.candidates[i]]) */\n      dup2\n      dup2\n      mstore\n      pop\n      pop\n        /* \"src/voting.sol\":3831:4045  {... */\n      pop\n        /* \"src/voting.sol\":3827:3830  i++ */\n      dup1\n      dup1\n      tag_130\n      swap1\n      tag_131\n      jump\t// in\n    tag_130:\n      swap2\n      pop\n      pop\n        /* \"src/voting.sol\":3784:4045  for (uint i =0; i <= VP.candidates.length; i++){... */\n      jump(tag_114)\n    tag_115:\n      pop\n        /* \"src/voting.sol\":4059:4061  CV */\n      dup6\n        /* \"src/voting.sol\":4063:4069  winner */\n      dup2\n        /* \"src/voting.sol\":4071:4082  highestVote */\n      dup4\n        /* \"src/voting.sol\":4051:4083  return (CV, winner, highestVote) */\n      swap6\n      pop\n      swap6\n      pop\n      swap6\n      pop\n      pop\n      pop\n      pop\n        /* \"src/voting.sol\":3481:4087  function revealWinner( string memory _name) external view returns ( uint[] memory CV, address, uint){... */\n      swap2\n      swap4\n      swap1\n      swap3\n      pop\n      jump\t// out\n        /* \"src/voting.sol\":1775:2287  function AddCandidate(address _newCandidate, string memory _name) external{... */\n    tag_51:\n        /* \"src/voting.sol\":1856:1877  VotingPoll storage VP */\n      0x00\n        /* \"src/voting.sol\":1880:1890  votingPoll */\n      dup1\n        /* \"src/voting.sol\":1891:1896  _name */\n      dup3\n        /* \"src/voting.sol\":1880:1897  votingPoll[_name] */\n      mload(0x40)\n      tag_133\n      swap2\n      swap1\n      tag_85\n      jump\t// in\n    tag_133:\n      swap1\n      dup2\n      mstore\n      0x20\n      add\n      mload(0x40)\n      dup1\n      swap2\n      sub\n      swap1\n      keccak256\n        /* \"src/voting.sol\":1856:1897  VotingPoll storage VP = votingPoll[_name] */\n      swap1\n      pop\n        /* \"src/voting.sol\":1936:1937  0 */\n      0x00\n        /* \"src/voting.sol\":1913:1938  VP.chairman != address(0) */\n      0xffffffffffffffffffffffffffffffffffffffff\n      and\n        /* \"src/voting.sol\":1913:1915  VP */\n      dup2\n        /* \"src/voting.sol\":1913:1924  VP.chairman */\n      0x00\n      add\n      0x00\n      swap1\n      sload\n      swap1\n      0x0100\n      exp\n      swap1\n      div\n      0xffffffffffffffffffffffffffffffffffffffff\n      and\n        /* \"src/voting.sol\":1913:1938  VP.chairman != address(0) */\n      0xffffffffffffffffffffffffffffffffffffffff\n      and\n      eq\n      iszero\n        /* \"src/voting.sol\":1904:1964  require (VP.chairman != address(0) , \"yet to create a poll\") */\n      tag_134\n      jumpi\n      mload(0x40)\n      0x08c379a000000000000000000000000000000000000000000000000000000000\n      dup2\n      mstore\n      0x04\n      add\n      tag_135\n      swap1\n      tag_136\n      jump\t// in\n    tag_135:\n      mload(0x40)\n      dup1\n      swap2\n      sub\n      swap1\n      revert\n    tag_134:\n        /* \"src/voting.sol\":1995:2005  msg.sender */\n      caller\n        /* \"src/voting.sol\":1980:2005  VP.chairman == msg.sender */\n      0xffffffffffffffffffffffffffffffffffffffff\n      and\n        /* \"src/voting.sol\":1980:1982  VP */\n      dup2\n        /* \"src/voting.sol\":1980:1991  VP.chairman */\n      0x00\n      add\n      0x00\n      swap1\n      sload\n      swap1\n      0x0100\n      exp\n      swap1\n      div\n      0xffffffffffffffffffffffffffffffffffffffff\n      and\n        /* \"src/voting.sol\":1980:2005  VP.chairman == msg.sender */\n      0xffffffffffffffffffffffffffffffffffffffff\n      and\n      eq\n        /* \"src/voting.sol\":1973:2006  assert(VP.chairman == msg.sender) */\n      tag_137\n      jumpi\n      tag_138\n      tag_139\n      jump\t// in\n    tag_138:\n    tag_137:\n        /* \"src/voting.sol\":2048:2050  VP */\n      dup1\n        /* \"src/voting.sol\":2048:2068  VP.maxNoOfCandidates */\n      0x02\n      add\n      0x00\n      swap1\n      sload\n      swap1\n      0x0100\n      exp\n      swap1\n      div\n      0xffffffff\n      and\n        /* \"src/voting.sol\":2021:2068  VP.currentNoOfCandidates < VP.maxNoOfCandidates */\n      0xffffffff\n      and\n        /* \"src/voting.sol\":2021:2023  VP */\n      dup2\n        /* \"src/voting.sol\":2021:2045  VP.currentNoOfCandidates */\n      0x02\n      add\n      0x14\n      swap1\n      sload\n      swap1\n      0x0100\n      exp\n      swap1\n      div\n      0xffff\n      and\n        /* \"src/voting.sol\":2021:2068  VP.currentNoOfCandidates < VP.maxNoOfCandidates */\n      0xffff\n      and\n      lt\n        /* \"src/voting.sol\":2013:2119  require(VP.currentNoOfCandidates < VP.maxNoOfCandidates, \"maximum no of candidate per session registered\") */\n      tag_140\n      jumpi\n      mload(0x40)\n      0x08c379a000000000000000000000000000000000000000000000000000000000\n      dup2\n      mstore\n      0x04\n      add\n      tag_141\n      swap1\n      tag_142\n      jump\t// in\n    tag_141:\n      mload(0x40)\n      dup1\n      swap2\n      sub\n      swap1\n      revert\n    tag_140:\n        /* \"src/voting.sol\":2162:2166  true */\n      0x01\n        /* \"src/voting.sol\":2126:2128  VP */\n      dup2\n        /* \"src/voting.sol\":2126:2144  VP.CandidateStatus */\n      0x03\n      add\n        /* \"src/voting.sol\":2126:2159  VP.CandidateStatus[_newCandidate] */\n      0x00\n        /* \"src/voting.sol\":2145:2158  _newCandidate */\n      dup6\n        /* \"src/voting.sol\":2126:2159  VP.CandidateStatus[_newCandidate] */\n      0xffffffffffffffffffffffffffffffffffffffff\n      and\n      0xffffffffffffffffffffffffffffffffffffffff\n      and\n      dup2\n      mstore\n      0x20\n      add\n      swap1\n      dup2\n      mstore\n      0x20\n      add\n      0x00\n      keccak256\n      0x00\n        /* \"src/voting.sol\":2126:2166  VP.CandidateStatus[_newCandidate] = true */\n      0x0100\n      exp\n      dup2\n      sload\n      dup2\n      0xff\n      mul\n      not\n      and\n      swap1\n      dup4\n      iszero\n      iszero\n      mul\n      or\n      swap1\n      sstore\n      pop\n        /* \"src/voting.sol\":2174:2176  VP */\n      dup1\n        /* \"src/voting.sol\":2174:2187  VP.candidates */\n      0x01\n      add\n        /* \"src/voting.sol\":2193:2206  _newCandidate */\n      dup4\n        /* \"src/voting.sol\":2174:2207  VP.candidates.push(_newCandidate) */\n      swap1\n      dup1\n      0x01\n      dup2\n      sload\n      add\n      dup1\n      dup3\n      sstore\n      dup1\n      swap2\n      pop\n      pop\n      0x01\n      swap1\n      sub\n      swap1\n      0x00\n      mstore\n      keccak256(0x00, 0x20)\n      add\n      0x00\n      swap1\n      swap2\n      swap1\n      swap2\n      swap1\n      swap2\n      0x0100\n      exp\n      dup2\n      sload\n      dup2\n      0xffffffffffffffffffffffffffffffffffffffff\n      mul\n      not\n      and\n      swap1\n      dup4\n      0xffffffffffffffffffffffffffffffffffffffff\n      and\n      mul\n      or\n      swap1\n      sstore\n      pop\n        /* \"src/voting.sol\":2215:2217  VP */\n      dup1\n        /* \"src/voting.sol\":2215:2239  VP.currentNoOfCandidates */\n      0x02\n      add\n      0x14\n        /* \"src/voting.sol\":2215:2241  VP.currentNoOfCandidates++ */\n      dup2\n      dup2\n      swap1\n      sload\n      swap1\n      0x0100\n      exp\n      swap1\n      div\n      0xffff\n      and\n      dup1\n      swap3\n      swap2\n      swap1\n      tag_144\n      swap1\n      tag_145\n      jump\t// in\n    tag_144:\n      swap2\n      swap1\n      0x0100\n      exp\n      dup2\n      sload\n      dup2\n      0xffff\n      mul\n      not\n      and\n      swap1\n      dup4\n      0xffff\n      and\n      mul\n      or\n      swap1\n      sstore\n      pop\n      pop\n        /* \"src/voting.sol\":2253:2283  becameCandidate(_newCandidate) */\n      0xc19c59aa93348e8fc54764bc642eca975e2639f44cc683ef8f027e1529cbda32\n        /* \"src/voting.sol\":2269:2282  _newCandidate */\n      dup4\n        /* \"src/voting.sol\":2253:2283  becameCandidate(_newCandidate) */\n      mload(0x40)\n      tag_146\n      swap2\n      swap1\n      tag_147\n      jump\t// in\n    tag_146:\n      mload(0x40)\n      dup1\n      swap2\n      sub\n      swap1\n      log1\n        /* \"src/voting.sol\":1849:2287  {... */\n      pop\n        /* \"src/voting.sol\":1775:2287  function AddCandidate(address _newCandidate, string memory _name) external{... */\n      pop\n      pop\n      jump\t// out\n        /* \"src/voting.sol\":670:717  mapping(string => VotingPoll) public votingPoll */\n    tag_55:\n      0x00\n      dup2\n      dup1\n      mload\n      0x20\n      dup2\n      add\n      dup3\n      add\n      dup1\n      mload\n      dup5\n      dup3\n      mstore\n      0x20\n      dup4\n      add\n      0x20\n      dup6\n      add\n      keccak256\n      dup2\n      dup4\n      mstore\n      dup1\n      swap6\n      pop\n      pop\n      pop\n      pop\n      pop\n      pop\n      0x00\n      swap2\n      pop\n      swap1\n      pop\n      dup1\n      0x00\n      add\n      0x00\n      swap1\n      sload\n      swap1\n      0x0100\n      exp\n      swap1\n      div\n      0xffffffffffffffffffffffffffffffffffffffff\n      and\n      swap1\n      dup1\n      0x02\n      add\n      0x00\n      swap1\n      sload\n      swap1\n      0x0100\n      exp\n      swap1\n      div\n      0xffffffff\n      and\n      swap1\n      dup1\n      0x02\n      add\n      0x04\n      swap1\n      sload\n      swap1\n      0x0100\n      exp\n      swap1\n      div\n      0xffffffffffffffff\n      and\n      swap1\n      dup1\n      0x02\n      add\n      0x0c\n      swap1\n      sload\n      swap1\n      0x0100\n      exp\n      swap1\n      div\n      0xffffffffffffffff\n      and\n      swap1\n      dup1\n      0x02\n      add\n      0x14\n      swap1\n      sload\n      swap1\n      0x0100\n      exp\n      swap1\n      div\n      0xffff\n      and\n      swap1\n      dup1\n      0x02\n      add\n      0x16\n      swap1\n      sload\n      swap1\n      0x0100\n      exp\n      swap1\n      div\n      0xff\n      and\n      swap1\n      pop\n      dup7\n      jump\t// out\n        /* \"src/voting.sol\":723:770  mapping (address => uint256) public replayNonce */\n    tag_62:\n      mstore(0x20, 0x01)\n      dup1\n      0x00\n      mstore\n      keccak256(0x00, 0x40)\n      0x00\n      swap2\n      pop\n      swap1\n      pop\n      sload\n      dup2\n      jump\t// out\n        /* \"src/voting.sol\":3126:3297  function NoOfRegisteredCandidates( string memory _name) public view returns(uint){... */\n    tag_67:\n        /* \"src/voting.sol\":3202:3206  uint */\n      0x00\n        /* \"src/voting.sol\":3214:3235  VotingPoll storage VP */\n      dup1\n        /* \"src/voting.sol\":3238:3248  votingPoll */\n      0x00\n        /* \"src/voting.sol\":3249:3254  _name */\n      dup4\n        /* \"src/voting.sol\":3238:3255  votingPoll[_name] */\n      mload(0x40)\n      tag_149\n      swap2\n      swap1\n      tag_85\n      jump\t// in\n    tag_149:\n      swap1\n      dup2\n      mstore\n      0x20\n      add\n      mload(0x40)\n      dup1\n      swap2\n      sub\n      swap1\n      keccak256\n        /* \"src/voting.sol\":3214:3255  VotingPoll storage VP = votingPoll[_name] */\n      swap1\n      pop\n        /* \"src/voting.sol\":3269:3271  VP */\n      dup1\n        /* \"src/voting.sol\":3269:3293  VP.currentNoOfCandidates */\n      0x02\n      add\n      0x14\n      swap1\n      sload\n      swap1\n      0x0100\n      exp\n      swap1\n      div\n      0xffff\n      and\n        /* \"src/voting.sol\":3262:3293  return VP.currentNoOfCandidates */\n      0xffff\n      and\n      swap2\n      pop\n      pop\n        /* \"src/voting.sol\":3126:3297  function NoOfRegisteredCandidates( string memory _name) public view returns(uint){... */\n      swap2\n      swap1\n      pop\n      jump\t// out\n        /* \"src/voting.sol\":3305:3478  function AllCandidates( string memory _name) public view returns(address[] memory _candidates){... */\n    tag_72:\n        /* \"src/voting.sol\":3370:3398  address[] memory _candidates */\n      0x60\n        /* \"src/voting.sol\":3406:3427  VotingPoll storage VP */\n      0x00\n        /* \"src/voting.sol\":3430:3440  votingPoll */\n      dup1\n        /* \"src/voting.sol\":3441:3446  _name */\n      dup4\n        /* \"src/voting.sol\":3430:3447  votingPoll[_name] */\n      mload(0x40)\n      tag_151\n      swap2\n      swap1\n      tag_85\n      jump\t// in\n    tag_151:\n      swap1\n      dup2\n      mstore\n      0x20\n      add\n      mload(0x40)\n      dup1\n      swap2\n      sub\n      swap1\n      keccak256\n        /* \"src/voting.sol\":3406:3447  VotingPoll storage VP = votingPoll[_name] */\n      swap1\n      pop\n        /* \"src/voting.sol\":3461:3463  VP */\n      dup1\n        /* \"src/voting.sol\":3461:3474  VP.candidates */\n      0x01\n      add\n        /* \"src/voting.sol\":3454:3474  return VP.candidates */\n      dup1\n      sload\n      dup1\n      0x20\n      mul\n      0x20\n      add\n      mload(0x40)\n      swap1\n      dup2\n      add\n      0x40\n      mstore\n      dup1\n      swap3\n      swap2\n      swap1\n      dup2\n      dup2\n      mstore\n      0x20\n      add\n      dup3\n      dup1\n      sload\n      dup1\n      iszero\n      tag_152\n      jumpi\n      0x20\n      mul\n      dup3\n      add\n      swap2\n      swap1\n      0x00\n      mstore\n      keccak256(0x00, 0x20)\n      swap1\n    tag_153:\n      dup2\n      0x00\n      swap1\n      sload\n      swap1\n      0x0100\n      exp\n      swap1\n      div\n      0xffffffffffffffffffffffffffffffffffffffff\n      and\n      0xffffffffffffffffffffffffffffffffffffffff\n      and\n      dup2\n      mstore\n      0x20\n      add\n      swap1\n      0x01\n      add\n      swap1\n      dup1\n      dup4\n      gt\n      tag_153\n      jumpi\n    tag_152:\n      pop\n      pop\n      pop\n      pop\n      pop\n      swap2\n      pop\n      pop\n        /* \"src/voting.sol\":3305:3478  function AllCandidates( string memory _name) public view returns(address[] memory _candidates){... */\n      swap2\n      swap1\n      pop\n      jump\t// out\n        /* \"src/voting.sol\":4090:4292  function setVotingState( string memory _name) external {... */\n    tag_78:\n        /* \"src/voting.sol\":4151:4172  VotingPoll storage VP */\n      0x00\n        /* \"src/voting.sol\":4175:4185  votingPoll */\n      dup1\n        /* \"src/voting.sol\":4186:4191  _name */\n      dup3\n        /* \"src/voting.sol\":4175:4192  votingPoll[_name] */\n      mload(0x40)\n      tag_155\n      swap2\n      swap1\n      tag_85\n      jump\t// in\n    tag_155:\n      swap1\n      dup2\n      mstore\n      0x20\n      add\n      mload(0x40)\n      dup1\n      swap2\n      sub\n      swap1\n      keccak256\n        /* \"src/voting.sol\":4151:4192  VotingPoll storage VP = votingPoll[_name] */\n      swap1\n      pop\n        /* \"src/voting.sol\":4221:4231  msg.sender */\n      caller\n        /* \"src/voting.sol\":4206:4231  VP.chairman == msg.sender */\n      0xffffffffffffffffffffffffffffffffffffffff\n      and\n        /* \"src/voting.sol\":4206:4208  VP */\n      dup2\n        /* \"src/voting.sol\":4206:4217  VP.chairman */\n      0x00\n      add\n      0x00\n      swap1\n      sload\n      swap1\n      0x0100\n      exp\n      swap1\n      div\n      0xffffffffffffffffffffffffffffffffffffffff\n      and\n        /* \"src/voting.sol\":4206:4231  VP.chairman == msg.sender */\n      0xffffffffffffffffffffffffffffffffffffffff\n      and\n      eq\n        /* \"src/voting.sol\":4198:4252  require(VP.chairman == msg.sender, \"not the chairman\") */\n      tag_156\n      jumpi\n      mload(0x40)\n      0x08c379a000000000000000000000000000000000000000000000000000000000\n      dup2\n      mstore\n      0x04\n      add\n      tag_157\n      swap1\n      tag_158\n      jump\t// in\n    tag_157:\n      mload(0x40)\n      dup1\n      swap2\n      sub\n      swap1\n      revert\n    tag_156:\n        /* \"src/voting.sol\":4278:4280  VP */\n      dup1\n        /* \"src/voting.sol\":4278:4287  VP.voting */\n      0x02\n      add\n      0x16\n      swap1\n      sload\n      swap1\n      0x0100\n      exp\n      swap1\n      div\n      0xff\n      and\n        /* \"src/voting.sol\":4276:4288  !(VP.voting) */\n      iszero\n        /* \"src/voting.sol\":4264:4266  VP */\n      dup2\n        /* \"src/voting.sol\":4264:4273  VP.voting */\n      0x02\n      add\n      0x16\n        /* \"src/voting.sol\":4264:4288  VP.voting = !(VP.voting) */\n      0x0100\n      exp\n      dup2\n      sload\n      dup2\n      0xff\n      mul\n      not\n      and\n      swap1\n      dup4\n      iszero\n      iszero\n      mul\n      or\n      swap1\n      sstore\n      pop\n        /* \"src/voting.sol\":4145:4292  {... */\n      pop\n        /* \"src/voting.sol\":4090:4292  function setVotingState( string memory _name) external {... */\n      pop\n      jump\t// out\n        /* \"src/voting.sol\":2878:3123  function countVote(address Cand, string memory _name, address signer) internal returns(uint){... */\n    tag_102:\n        /* \"src/voting.sol\":2965:2969  uint */\n      0x00\n        /* \"src/voting.sol\":2977:2998  VotingPoll storage VP */\n      dup1\n        /* \"src/voting.sol\":3001:3011  votingPoll */\n      0x00\n        /* \"src/voting.sol\":3012:3017  _name */\n      dup5\n        /* \"src/voting.sol\":3001:3018  votingPoll[_name] */\n      mload(0x40)\n      tag_160\n      swap2\n      swap1\n      tag_85\n      jump\t// in\n    tag_160:\n      swap1\n      dup2\n      mstore\n      0x20\n      add\n      mload(0x40)\n      dup1\n      swap2\n      sub\n      swap1\n      keccak256\n        /* \"src/voting.sol\":2977:3018  VotingPoll storage VP = votingPoll[_name] */\n      swap1\n      pop\n        /* \"src/voting.sol\":3047:3051  true */\n      0x01\n        /* \"src/voting.sol\":3025:3027  VP */\n      dup2\n        /* \"src/voting.sol\":3025:3036  VP.hasVoted */\n      0x04\n      add\n        /* \"src/voting.sol\":3025:3044  VP.hasVoted[signer] */\n      0x00\n        /* \"src/voting.sol\":3037:3043  signer */\n      dup6\n        /* \"src/voting.sol\":3025:3044  VP.hasVoted[signer] */\n      0xffffffffffffffffffffffffffffffffffffffff\n      and\n      0xffffffffffffffffffffffffffffffffffffffff\n      and\n      dup2\n      mstore\n      0x20\n      add\n      swap1\n      dup2\n      mstore\n      0x20\n      add\n      0x00\n      keccak256\n      0x00\n        /* \"src/voting.sol\":3025:3051  VP.hasVoted[signer] = true */\n      0x0100\n      exp\n      dup2\n      sload\n      dup2\n      0xff\n      mul\n      not\n      and\n      swap1\n      dup4\n      iszero\n      iszero\n      mul\n      or\n      swap1\n      sstore\n      pop\n        /* \"src/voting.sol\":3058:3060  VP */\n      dup1\n        /* \"src/voting.sol\":3058:3074  VP.CandidateVote */\n      0x05\n      add\n        /* \"src/voting.sol\":3058:3080  VP.CandidateVote[Cand] */\n      0x00\n        /* \"src/voting.sol\":3075:3079  Cand */\n      dup7\n        /* \"src/voting.sol\":3058:3080  VP.CandidateVote[Cand] */\n      0xffffffffffffffffffffffffffffffffffffffff\n      and\n      0xffffffffffffffffffffffffffffffffffffffff\n      and\n      dup2\n      mstore\n      0x20\n      add\n      swap1\n      dup2\n      mstore\n      0x20\n      add\n      0x00\n      keccak256\n      0x00\n        /* \"src/voting.sol\":3058:3082  VP.CandidateVote[Cand]++ */\n      dup2\n      sload\n      dup1\n      swap3\n      swap2\n      swap1\n      tag_161\n      swap1\n      tag_131\n      jump\t// in\n    tag_161:\n      swap2\n      swap1\n      pop\n      sstore\n      pop\n        /* \"src/voting.sol\":3096:3098  VP */\n      dup1\n        /* \"src/voting.sol\":3096:3112  VP.CandidateVote */\n      0x05\n      add\n        /* \"src/voting.sol\":3096:3118  VP.CandidateVote[Cand] */\n      0x00\n        /* \"src/voting.sol\":3113:3117  Cand */\n      dup7\n        /* \"src/voting.sol\":3096:3118  VP.CandidateVote[Cand] */\n      0xffffffffffffffffffffffffffffffffffffffff\n      and\n      0xffffffffffffffffffffffffffffffffffffffff\n      and\n      dup2\n      mstore\n      0x20\n      add\n      swap1\n      dup2\n      mstore\n      0x20\n      add\n      0x00\n      keccak256\n      sload\n        /* \"src/voting.sol\":3089:3118  return VP.CandidateVote[Cand] */\n      swap2\n      pop\n      pop\n        /* \"src/voting.sol\":2878:3123  function countVote(address Cand, string memory _name, address signer) internal returns(uint){... */\n      swap4\n      swap3\n      pop\n      pop\n      pop\n      jump\t// out\n        /* \"#utility.yul\":7:84   */\n    tag_162:\n        /* \"#utility.yul\":44:51   */\n      0x00\n        /* \"#utility.yul\":73:78   */\n      dup2\n        /* \"#utility.yul\":62:78   */\n      swap1\n      pop\n        /* \"#utility.yul\":7:84   */\n      swap2\n      swap1\n      pop\n      jump\t// out\n        /* \"#utility.yul\":90:208   */\n    tag_163:\n        /* \"#utility.yul\":177:201   */\n      tag_241\n        /* \"#utility.yul\":195:200   */\n      dup2\n        /* \"#utility.yul\":177:201   */\n      tag_162\n      jump\t// in\n    tag_241:\n        /* \"#utility.yul\":172:175   */\n      dup3\n        /* \"#utility.yul\":165:202   */\n      mstore\n        /* \"#utility.yul\":90:208   */\n      pop\n      pop\n      jump\t// out\n        /* \"#utility.yul\":214:436   */\n    tag_21:\n        /* \"#utility.yul\":307:311   */\n      0x00\n        /* \"#utility.yul\":345:347   */\n      0x20\n        /* \"#utility.yul\":334:343   */\n      dup3\n        /* \"#utility.yul\":330:348   */\n      add\n        /* \"#utility.yul\":322:348   */\n      swap1\n      pop\n        /* \"#utility.yul\":358:429   */\n      tag_243\n        /* \"#utility.yul\":426:427   */\n      0x00\n        /* \"#utility.yul\":415:424   */\n      dup4\n        /* \"#utility.yul\":411:428   */\n      add\n        /* \"#utility.yul\":402:408   */\n      dup5\n        /* \"#utility.yul\":358:429   */\n      tag_163\n      jump\t// in\n    tag_243:\n        /* \"#utility.yul\":214:436   */\n      swap3\n      swap2\n      pop\n      pop\n      jump\t// out\n        /* \"#utility.yul\":442:517   */\n    tag_164:\n        /* \"#utility.yul\":475:481   */\n      0x00\n        /* \"#utility.yul\":508:510   */\n      0x40\n        /* \"#utility.yul\":502:511   */\n      mload\n        /* \"#utility.yul\":492:511   */\n      swap1\n      pop\n        /* \"#utility.yul\":442:517   */\n      swap1\n      jump\t// out\n        /* \"#utility.yul\":523:640   */\n    tag_165:\n        /* \"#utility.yul\":632:633   */\n      0x00\n        /* \"#utility.yul\":629:630   */\n      dup1\n        /* \"#utility.yul\":622:634   */\n      revert\n        /* \"#utility.yul\":646:763   */\n    tag_166:\n        /* \"#utility.yul\":755:756   */\n      0x00\n        /* \"#utility.yul\":752:753   */\n      dup1\n        /* \"#utility.yul\":745:757   */\n      revert\n        /* \"#utility.yul\":769:895   */\n    tag_167:\n        /* \"#utility.yul\":806:813   */\n      0x00\n        /* \"#utility.yul\":846:888   */\n      0xffffffffffffffffffffffffffffffffffffffff\n        /* \"#utility.yul\":839:844   */\n      dup3\n        /* \"#utility.yul\":835:889   */\n      and\n        /* \"#utility.yul\":824:889   */\n      swap1\n      pop\n        /* \"#utility.yul\":769:895   */\n      swap2\n      swap1\n      pop\n      jump\t// out\n        /* \"#utility.yul\":901:997   */\n    tag_168:\n        /* \"#utility.yul\":938:945   */\n      0x00\n        /* \"#utility.yul\":967:991   */\n      tag_249\n        /* \"#utility.yul\":985:990   */\n      dup3\n        /* \"#utility.yul\":967:991   */\n      tag_167\n      jump\t// in\n    tag_249:\n        /* \"#utility.yul\":956:991   */\n      swap1\n      pop\n        /* \"#utility.yul\":901:997   */\n      swap2\n      swap1\n      pop\n      jump\t// out\n        /* \"#utility.yul\":1003:1125   */\n    tag_169:\n        /* \"#utility.yul\":1076:1100   */\n      tag_251\n        /* \"#utility.yul\":1094:1099   */\n      dup2\n        /* \"#utility.yul\":1076:1100   */\n      tag_168\n      jump\t// in\n    tag_251:\n        /* \"#utility.yul\":1069:1074   */\n      dup2\n        /* \"#utility.yul\":1066:1101   */\n      eq\n        /* \"#utility.yul\":1056:1119   */\n      tag_252\n      jumpi\n        /* \"#utility.yul\":1115:1116   */\n      0x00\n        /* \"#utility.yul\":1112:1113   */\n      dup1\n        /* \"#utility.yul\":1105:1117   */\n      revert\n        /* \"#utility.yul\":1056:1119   */\n    tag_252:\n        /* \"#utility.yul\":1003:1125   */\n      pop\n      jump\t// out\n        /* \"#utility.yul\":1131:1270   */\n    tag_170:\n        /* \"#utility.yul\":1177:1182   */\n      0x00\n        /* \"#utility.yul\":1215:1221   */\n      dup2\n        /* \"#utility.yul\":1202:1222   */\n      calldataload\n        /* \"#utility.yul\":1193:1222   */\n      swap1\n      pop\n        /* \"#utility.yul\":1231:1264   */\n      tag_254\n        /* \"#utility.yul\":1258:1263   */\n      dup2\n        /* \"#utility.yul\":1231:1264   */\n      tag_169\n      jump\t// in\n    tag_254:\n        /* \"#utility.yul\":1131:1270   */\n      swap3\n      swap2\n      pop\n      pop\n      jump\t// out\n        /* \"#utility.yul\":1276:1393   */\n    tag_171:\n        /* \"#utility.yul\":1385:1386   */\n      0x00\n        /* \"#utility.yul\":1382:1383   */\n      dup1\n        /* \"#utility.yul\":1375:1387   */\n      revert\n        /* \"#utility.yul\":1399:1516   */\n    tag_172:\n        /* \"#utility.yul\":1508:1509   */\n      0x00\n        /* \"#utility.yul\":1505:1506   */\n      dup1\n        /* \"#utility.yul\":1498:1510   */\n      revert\n        /* \"#utility.yul\":1522:1624   */\n    tag_173:\n        /* \"#utility.yul\":1563:1569   */\n      0x00\n        /* \"#utility.yul\":1614:1616   */\n      0x1f\n        /* \"#utility.yul\":1610:1617   */\n      not\n        /* \"#utility.yul\":1605:1607   */\n      0x1f\n        /* \"#utility.yul\":1598:1603   */\n      dup4\n        /* \"#utility.yul\":1594:1608   */\n      add\n        /* \"#utility.yul\":1590:1618   */\n      and\n        /* \"#utility.yul\":1580:1618   */\n      swap1\n      pop\n        /* \"#utility.yul\":1522:1624   */\n      swap2\n      swap1\n      pop\n      jump\t// out\n        /* \"#utility.yul\":1630:1810   */\n    tag_112:\n        /* \"#utility.yul\":1678:1755   */\n      0x4e487b7100000000000000000000000000000000000000000000000000000000\n        /* \"#utility.yul\":1675:1676   */\n      0x00\n        /* \"#utility.yul\":1668:1756   */\n      mstore\n        /* \"#utility.yul\":1775:1779   */\n      0x41\n        /* \"#utility.yul\":1772:1773   */\n      0x04\n        /* \"#utility.yul\":1765:1780   */\n      mstore\n        /* \"#utility.yul\":1799:1803   */\n      0x24\n        /* \"#utility.yul\":1796:1797   */\n      0x00\n        /* \"#utility.yul\":1789:1804   */\n      revert\n        /* \"#utility.yul\":1816:2097   */\n    tag_174:\n        /* \"#utility.yul\":1899:1926   */\n      tag_260\n        /* \"#utility.yul\":1921:1925   */\n      dup3\n        /* \"#utility.yul\":1899:1926   */\n      tag_173\n      jump\t// in\n    tag_260:\n        /* \"#utility.yul\":1891:1897   */\n      dup2\n        /* \"#utility.yul\":1887:1927   */\n      add\n        /* \"#utility.yul\":2029:2035   */\n      dup2\n        /* \"#utility.yul\":2017:2027   */\n      dup2\n        /* \"#utility.yul\":2014:2036   */\n      lt\n        /* \"#utility.yul\":1993:2011   */\n      0xffffffffffffffff\n        /* \"#utility.yul\":1981:1991   */\n      dup3\n        /* \"#utility.yul\":1978:2012   */\n      gt\n        /* \"#utility.yul\":1975:2037   */\n      or\n        /* \"#utility.yul\":1972:2060   */\n      iszero\n      tag_261\n      jumpi\n        /* \"#utility.yul\":2040:2058   */\n      tag_262\n      tag_112\n      jump\t// in\n    tag_262:\n        /* \"#utility.yul\":1972:2060   */\n    tag_261:\n        /* \"#utility.yul\":2080:2090   */\n      dup1\n        /* \"#utility.yul\":2076:2078   */\n      0x40\n        /* \"#utility.yul\":2069:2091   */\n      mstore\n        /* \"#utility.yul\":1859:2097   */\n      pop\n        /* \"#utility.yul\":1816:2097   */\n      pop\n      pop\n      jump\t// out\n        /* \"#utility.yul\":2103:2232   */\n    tag_175:\n        /* \"#utility.yul\":2137:2143   */\n      0x00\n        /* \"#utility.yul\":2164:2184   */\n      tag_264\n      tag_164\n      jump\t// in\n    tag_264:\n        /* \"#utility.yul\":2154:2184   */\n      swap1\n      pop\n        /* \"#utility.yul\":2193:2226   */\n      tag_265\n        /* \"#utility.yul\":2221:2225   */\n      dup3\n        /* \"#utility.yul\":2213:2219   */\n      dup3\n        /* \"#utility.yul\":2193:2226   */\n      tag_174\n      jump\t// in\n    tag_265:\n        /* \"#utility.yul\":2103:2232   */\n      swap2\n      swap1\n      pop\n      jump\t// out\n        /* \"#utility.yul\":2238:2546   */\n    tag_176:\n        /* \"#utility.yul\":2300:2304   */\n      0x00\n        /* \"#utility.yul\":2390:2408   */\n      0xffffffffffffffff\n        /* \"#utility.yul\":2382:2388   */\n      dup3\n        /* \"#utility.yul\":2379:2409   */\n      gt\n        /* \"#utility.yul\":2376:2432   */\n      iszero\n      tag_267\n      jumpi\n        /* \"#utility.yul\":2412:2430   */\n      tag_268\n      tag_112\n      jump\t// in\n    tag_268:\n        /* \"#utility.yul\":2376:2432   */\n    tag_267:\n        /* \"#utility.yul\":2450:2479   */\n      tag_269\n        /* \"#utility.yul\":2472:2478   */\n      dup3\n        /* \"#utility.yul\":2450:2479   */\n      tag_173\n      jump\t// in\n    tag_269:\n        /* \"#utility.yul\":2442:2479   */\n      swap1\n      pop\n        /* \"#utility.yul\":2534:2538   */\n      0x20\n        /* \"#utility.yul\":2528:2532   */\n      dup2\n        /* \"#utility.yul\":2524:2539   */\n      add\n        /* \"#utility.yul\":2516:2539   */\n      swap1\n      pop\n        /* \"#utility.yul\":2238:2546   */\n      swap2\n      swap1\n      pop\n      jump\t// out\n        /* \"#utility.yul\":2552:2706   */\n    tag_177:\n        /* \"#utility.yul\":2636:2642   */\n      dup3\n        /* \"#utility.yul\":2631:2634   */\n      dup2\n        /* \"#utility.yul\":2626:2629   */\n      dup4\n        /* \"#utility.yul\":2613:2643   */\n      calldatacopy\n        /* \"#utility.yul\":2698:2699   */\n      0x00\n        /* \"#utility.yul\":2689:2695   */\n      dup4\n        /* \"#utility.yul\":2684:2687   */\n      dup4\n        /* \"#utility.yul\":2680:2696   */\n      add\n        /* \"#utility.yul\":2673:2700   */\n      mstore\n        /* \"#utility.yul\":2552:2706   */\n      pop\n      pop\n      pop\n      jump\t// out\n        /* \"#utility.yul\":2712:3124   */\n    tag_178:\n        /* \"#utility.yul\":2790:2795   */\n      0x00\n        /* \"#utility.yul\":2815:2881   */\n      tag_272\n        /* \"#utility.yul\":2831:2880   */\n      tag_273\n        /* \"#utility.yul\":2873:2879   */\n      dup5\n        /* \"#utility.yul\":2831:2880   */\n      tag_176\n      jump\t// in\n    tag_273:\n        /* \"#utility.yul\":2815:2881   */\n      tag_175\n      jump\t// in\n    tag_272:\n        /* \"#utility.yul\":2806:2881   */\n      swap1\n      pop\n        /* \"#utility.yul\":2904:2910   */\n      dup3\n        /* \"#utility.yul\":2897:2902   */\n      dup2\n        /* \"#utility.yul\":2890:2911   */\n      mstore\n        /* \"#utility.yul\":2942:2946   */\n      0x20\n        /* \"#utility.yul\":2935:2940   */\n      dup2\n        /* \"#utility.yul\":2931:2947   */\n      add\n        /* \"#utility.yul\":2980:2983   */\n      dup5\n        /* \"#utility.yul\":2971:2977   */\n      dup5\n        /* \"#utility.yul\":2966:2969   */\n      dup5\n        /* \"#utility.yul\":2962:2978   */\n      add\n        /* \"#utility.yul\":2959:2984   */\n      gt\n        /* \"#utility.yul\":2956:3068   */\n      iszero\n      tag_274\n      jumpi\n        /* \"#utility.yul\":2987:3066   */\n      tag_275\n      tag_172\n      jump\t// in\n    tag_275:\n        /* \"#utility.yul\":2956:3068   */\n    tag_274:\n        /* \"#utility.yul\":3077:3118   */\n      tag_276\n        /* \"#utility.yul\":3111:3117   */\n      dup5\n        /* \"#utility.yul\":3106:3109   */\n      dup3\n        /* \"#utility.yul\":3101:3104   */\n      dup6\n        /* \"#utility.yul\":3077:3118   */\n      tag_177\n      jump\t// in\n    tag_276:\n        /* \"#utility.yul\":2796:3124   */\n      pop\n        /* \"#utility.yul\":2712:3124   */\n      swap4\n      swap3\n      pop\n      pop\n      pop\n      jump\t// out\n        /* \"#utility.yul\":3144:3484   */\n    tag_179:\n        /* \"#utility.yul\":3200:3205   */\n      0x00\n        /* \"#utility.yul\":3249:3252   */\n      dup3\n        /* \"#utility.yul\":3242:3246   */\n      0x1f\n        /* \"#utility.yul\":3234:3240   */\n      dup4\n        /* \"#utility.yul\":3230:3247   */\n      add\n        /* \"#utility.yul\":3226:3253   */\n      slt\n        /* \"#utility.yul\":3216:3338   */\n      tag_278\n      jumpi\n        /* \"#utility.yul\":3257:3336   */\n      tag_279\n      tag_171\n      jump\t// in\n    tag_279:\n        /* \"#utility.yul\":3216:3338   */\n    tag_278:\n        /* \"#utility.yul\":3374:3380   */\n      dup2\n        /* \"#utility.yul\":3361:3381   */\n      calldataload\n        /* \"#utility.yul\":3399:3478   */\n      tag_280\n        /* \"#utility.yul\":3474:3477   */\n      dup5\n        /* \"#utility.yul\":3466:3472   */\n      dup3\n        /* \"#utility.yul\":3459:3463   */\n      0x20\n        /* \"#utility.yul\":3451:3457   */\n      dup7\n        /* \"#utility.yul\":3447:3464   */\n      add\n        /* \"#utility.yul\":3399:3478   */\n      tag_178\n      jump\t// in\n    tag_280:\n        /* \"#utility.yul\":3390:3478   */\n      swap2\n      pop\n        /* \"#utility.yul\":3206:3484   */\n      pop\n        /* \"#utility.yul\":3144:3484   */\n      swap3\n      swap2\n      pop\n      pop\n      jump\t// out\n        /* \"#utility.yul\":3490:3612   */\n    tag_180:\n        /* \"#utility.yul\":3563:3587   */\n      tag_282\n        /* \"#utility.yul\":3581:3586   */\n      dup2\n        /* \"#utility.yul\":3563:3587   */\n      tag_162\n      jump\t// in\n    tag_282:\n        /* \"#utility.yul\":3556:3561   */\n      dup2\n        /* \"#utility.yul\":3553:3588   */\n      eq\n        /* \"#utility.yul\":3543:3606   */\n      tag_283\n      jumpi\n        /* \"#utility.yul\":3602:3603   */\n      0x00\n        /* \"#utility.yul\":3599:3600   */\n      dup1\n        /* \"#utility.yul\":3592:3604   */\n      revert\n        /* \"#utility.yul\":3543:3606   */\n    tag_283:\n        /* \"#utility.yul\":3490:3612   */\n      pop\n      jump\t// out\n        /* \"#utility.yul\":3618:3757   */\n    tag_181:\n        /* \"#utility.yul\":3664:3669   */\n      0x00\n        /* \"#utility.yul\":3702:3708   */\n      dup2\n        /* \"#utility.yul\":3689:3709   */\n      calldataload\n        /* \"#utility.yul\":3680:3709   */\n      swap1\n      pop\n        /* \"#utility.yul\":3718:3751   */\n      tag_285\n        /* \"#utility.yul\":3745:3750   */\n      dup2\n        /* \"#utility.yul\":3718:3751   */\n      tag_180\n      jump\t// in\n    tag_285:\n        /* \"#utility.yul\":3618:3757   */\n      swap3\n      swap2\n      pop\n      pop\n      jump\t// out\n        /* \"#utility.yul\":3763:4708   */\n    tag_25:\n        /* \"#utility.yul\":3859:3865   */\n      0x00\n        /* \"#utility.yul\":3867:3873   */\n      dup1\n        /* \"#utility.yul\":3875:3881   */\n      0x00\n        /* \"#utility.yul\":3883:3889   */\n      dup1\n        /* \"#utility.yul\":3932:3935   */\n      0x80\n        /* \"#utility.yul\":3920:3929   */\n      dup6\n        /* \"#utility.yul\":3911:3918   */\n      dup8\n        /* \"#utility.yul\":3907:3930   */\n      sub\n        /* \"#utility.yul\":3903:3936   */\n      slt\n        /* \"#utility.yul\":3900:4020   */\n      iszero\n      tag_287\n      jumpi\n        /* \"#utility.yul\":3939:4018   */\n      tag_288\n      tag_165\n      jump\t// in\n    tag_288:\n        /* \"#utility.yul\":3900:4020   */\n    tag_287:\n        /* \"#utility.yul\":4059:4060   */\n      0x00\n        /* \"#utility.yul\":4084:4137   */\n      tag_289\n        /* \"#utility.yul\":4129:4136   */\n      dup8\n        /* \"#utility.yul\":4120:4126   */\n      dup3\n        /* \"#utility.yul\":4109:4118   */\n      dup9\n        /* \"#utility.yul\":4105:4127   */\n      add\n        /* \"#utility.yul\":4084:4137   */\n      tag_170\n      jump\t// in\n    tag_289:\n        /* \"#utility.yul\":4074:4137   */\n      swap5\n      pop\n        /* \"#utility.yul\":4030:4147   */\n      pop\n        /* \"#utility.yul\":4214:4216   */\n      0x20\n        /* \"#utility.yul\":4203:4212   */\n      dup6\n        /* \"#utility.yul\":4199:4217   */\n      add\n        /* \"#utility.yul\":4186:4218   */\n      calldataload\n        /* \"#utility.yul\":4245:4263   */\n      0xffffffffffffffff\n        /* \"#utility.yul\":4237:4243   */\n      dup2\n        /* \"#utility.yul\":4234:4264   */\n      gt\n        /* \"#utility.yul\":4231:4348   */\n      iszero\n      tag_290\n      jumpi\n        /* \"#utility.yul\":4267:4346   */\n      tag_291\n      tag_166\n      jump\t// in\n    tag_291:\n        /* \"#utility.yul\":4231:4348   */\n    tag_290:\n        /* \"#utility.yul\":4372:4435   */\n      tag_292\n        /* \"#utility.yul\":4427:4434   */\n      dup8\n        /* \"#utility.yul\":4418:4424   */\n      dup3\n        /* \"#utility.yul\":4407:4416   */\n      dup9\n        /* \"#utility.yul\":4403:4425   */\n      add\n        /* \"#utility.yul\":4372:4435   */\n      tag_179\n      jump\t// in\n    tag_292:\n        /* \"#utility.yul\":4362:4435   */\n      swap4\n      pop\n        /* \"#utility.yul\":4157:4445   */\n      pop\n        /* \"#utility.yul\":4484:4486   */\n      0x40\n        /* \"#utility.yul\":4510:4563   */\n      tag_293\n        /* \"#utility.yul\":4555:4562   */\n      dup8\n        /* \"#utility.yul\":4546:4552   */\n      dup3\n        /* \"#utility.yul\":4535:4544   */\n      dup9\n        /* \"#utility.yul\":4531:4553   */\n      add\n        /* \"#utility.yul\":4510:4563   */\n      tag_181\n      jump\t// in\n    tag_293:\n        /* \"#utility.yul\":4500:4563   */\n      swap3\n      pop\n        /* \"#utility.yul\":4455:4573   */\n      pop\n        /* \"#utility.yul\":4612:4614   */\n      0x60\n        /* \"#utility.yul\":4638:4691   */\n      tag_294\n        /* \"#utility.yul\":4683:4690   */\n      dup8\n        /* \"#utility.yul\":4674:4680   */\n      dup3\n        /* \"#utility.yul\":4663:4672   */\n      dup9\n        /* \"#utility.yul\":4659:4681   */\n      add\n        /* \"#utility.yul\":4638:4691   */\n      tag_181\n      jump\t// in\n    tag_294:\n        /* \"#utility.yul\":4628:4691   */\n      swap2\n      pop\n        /* \"#utility.yul\":4583:4701   */\n      pop\n        /* \"#utility.yul\":3763:4708   */\n      swap3\n      swap6\n      swap2\n      swap5\n      pop\n      swap3\n      pop\n      jump\t// out\n        /* \"#utility.yul\":4714:4791   */\n    tag_182:\n        /* \"#utility.yul\":4751:4758   */\n      0x00\n        /* \"#utility.yul\":4780:4785   */\n      dup2\n        /* \"#utility.yul\":4769:4785   */\n      swap1\n      pop\n        /* \"#utility.yul\":4714:4791   */\n      swap2\n      swap1\n      pop\n      jump\t// out\n        /* \"#utility.yul\":4797:4915   */\n    tag_183:\n        /* \"#utility.yul\":4884:4908   */\n      tag_297\n        /* \"#utility.yul\":4902:4907   */\n      dup2\n        /* \"#utility.yul\":4884:4908   */\n      tag_182\n      jump\t// in\n    tag_297:\n        /* \"#utility.yul\":4879:4882   */\n      dup3\n        /* \"#utility.yul\":4872:4909   */\n      mstore\n        /* \"#utility.yul\":4797:4915   */\n      pop\n      pop\n      jump\t// out\n        /* \"#utility.yul\":4921:5143   */\n    tag_28:\n        /* \"#utility.yul\":5014:5018   */\n      0x00\n        /* \"#utility.yul\":5052:5054   */\n      0x20\n        /* \"#utility.yul\":5041:5050   */\n      dup3\n        /* \"#utility.yul\":5037:5055   */\n      add\n        /* \"#utility.yul\":5029:5055   */\n      swap1\n      pop\n        /* \"#utility.yul\":5065:5136   */\n      tag_299\n        /* \"#utility.yul\":5133:5134   */\n      0x00\n        /* \"#utility.yul\":5122:5131   */\n      dup4\n        /* \"#utility.yul\":5118:5135   */\n      add\n        /* \"#utility.yul\":5109:5115   */\n      dup5\n        /* \"#utility.yul\":5065:5136   */\n      tag_183\n      jump\t// in\n    tag_299:\n        /* \"#utility.yul\":4921:5143   */\n      swap3\n      swap2\n      pop\n      pop\n      jump\t// out\n        /* \"#utility.yul\":5149:5238   */\n    tag_184:\n        /* \"#utility.yul\":5185:5192   */\n      0x00\n        /* \"#utility.yul\":5225:5231   */\n      0xffff\n        /* \"#utility.yul\":5218:5223   */\n      dup3\n        /* \"#utility.yul\":5214:5232   */\n      and\n        /* \"#utility.yul\":5203:5232   */\n      swap1\n      pop\n        /* \"#utility.yul\":5149:5238   */\n      swap2\n      swap1\n      pop\n      jump\t// out\n        /* \"#utility.yul\":5244:5364   */\n    tag_185:\n        /* \"#utility.yul\":5316:5339   */\n      tag_302\n        /* \"#utility.yul\":5333:5338   */\n      dup2\n        /* \"#utility.yul\":5316:5339   */\n      tag_184\n      jump\t// in\n    tag_302:\n        /* \"#utility.yul\":5309:5314   */\n      dup2\n        /* \"#utility.yul\":5306:5340   */\n      eq\n        /* \"#utility.yul\":5296:5358   */\n      tag_303\n      jumpi\n        /* \"#utility.yul\":5354:5355   */\n      0x00\n        /* \"#utility.yul\":5351:5352   */\n      dup1\n        /* \"#utility.yul\":5344:5356   */\n      revert\n        /* \"#utility.yul\":5296:5358   */\n    tag_303:\n        /* \"#utility.yul\":5244:5364   */\n      pop\n      jump\t// out\n        /* \"#utility.yul\":5370:5507   */\n    tag_186:\n        /* \"#utility.yul\":5415:5420   */\n      0x00\n        /* \"#utility.yul\":5453:5459   */\n      dup2\n        /* \"#utility.yul\":5440:5460   */\n      calldataload\n        /* \"#utility.yul\":5431:5460   */\n      swap1\n      pop\n        /* \"#utility.yul\":5469:5501   */\n      tag_305\n        /* \"#utility.yul\":5495:5500   */\n      dup2\n        /* \"#utility.yul\":5469:5501   */\n      tag_185\n      jump\t// in\n    tag_305:\n        /* \"#utility.yul\":5370:5507   */\n      swap3\n      swap2\n      pop\n      pop\n      jump\t// out\n        /* \"#utility.yul\":5513:6165   */\n    tag_32:\n        /* \"#utility.yul\":5590:5596   */\n      0x00\n        /* \"#utility.yul\":5598:5604   */\n      dup1\n        /* \"#utility.yul\":5647:5649   */\n      0x40\n        /* \"#utility.yul\":5635:5644   */\n      dup4\n        /* \"#utility.yul\":5626:5633   */\n      dup6\n        /* \"#utility.yul\":5622:5645   */\n      sub\n        /* \"#utility.yul\":5618:5650   */\n      slt\n        /* \"#utility.yul\":5615:5734   */\n      iszero\n      tag_307\n      jumpi\n        /* \"#utility.yul\":5653:5732   */\n      tag_308\n      tag_165\n      jump\t// in\n    tag_308:\n        /* \"#utility.yul\":5615:5734   */\n    tag_307:\n        /* \"#utility.yul\":5801:5802   */\n      0x00\n        /* \"#utility.yul\":5790:5799   */\n      dup4\n        /* \"#utility.yul\":5786:5803   */\n      add\n        /* \"#utility.yul\":5773:5804   */\n      calldataload\n        /* \"#utility.yul\":5831:5849   */\n      0xffffffffffffffff\n        /* \"#utility.yul\":5823:5829   */\n      dup2\n        /* \"#utility.yul\":5820:5850   */\n      gt\n        /* \"#utility.yul\":5817:5934   */\n      iszero\n      tag_309\n      jumpi\n        /* \"#utility.yul\":5853:5932   */\n      tag_310\n      tag_166\n      jump\t// in\n    tag_310:\n        /* \"#utility.yul\":5817:5934   */\n    tag_309:\n        /* \"#utility.yul\":5958:6021   */\n      tag_311\n        /* \"#utility.yul\":6013:6020   */\n      dup6\n        /* \"#utility.yul\":6004:6010   */\n      dup3\n        /* \"#utility.yul\":5993:6002   */\n      dup7\n        /* \"#utility.yul\":5989:6011   */\n      add\n        /* \"#utility.yul\":5958:6021   */\n      tag_179\n      jump\t// in\n    tag_311:\n        /* \"#utility.yul\":5948:6021   */\n      swap3\n      pop\n        /* \"#utility.yul\":5744:6031   */\n      pop\n        /* \"#utility.yul\":6070:6072   */\n      0x20\n        /* \"#utility.yul\":6096:6148   */\n      tag_312\n        /* \"#utility.yul\":6140:6147   */\n      dup6\n        /* \"#utility.yul\":6131:6137   */\n      dup3\n        /* \"#utility.yul\":6120:6129   */\n      dup7\n        /* \"#utility.yul\":6116:6138   */\n      add\n        /* \"#utility.yul\":6096:6148   */\n      tag_186\n      jump\t// in\n    tag_312:\n        /* \"#utility.yul\":6086:6148   */\n      swap2\n      pop\n        /* \"#utility.yul\":6041:6158   */\n      pop\n        /* \"#utility.yul\":5513:6165   */\n      swap3\n      pop\n      swap3\n      swap1\n      pop\n      jump\t// out\n        /* \"#utility.yul\":6171:6270   */\n    tag_187:\n        /* \"#utility.yul\":6223:6229   */\n      0x00\n        /* \"#utility.yul\":6257:6262   */\n      dup2\n        /* \"#utility.yul\":6251:6263   */\n      mload\n        /* \"#utility.yul\":6241:6263   */\n      swap1\n      pop\n        /* \"#utility.yul\":6171:6270   */\n      swap2\n      swap1\n      pop\n      jump\t// out\n        /* \"#utility.yul\":6276:6445   */\n    tag_188:\n        /* \"#utility.yul\":6360:6371   */\n      0x00\n        /* \"#utility.yul\":6394:6400   */\n      dup3\n        /* \"#utility.yul\":6389:6392   */\n      dup3\n        /* \"#utility.yul\":6382:6401   */\n      mstore\n        /* \"#utility.yul\":6434:6438   */\n      0x20\n        /* \"#utility.yul\":6429:6432   */\n      dup3\n        /* \"#utility.yul\":6425:6439   */\n      add\n        /* \"#utility.yul\":6410:6439   */\n      swap1\n      pop\n        /* \"#utility.yul\":6276:6445   */\n      swap3\n      swap2\n      pop\n      pop\n      jump\t// out\n        /* \"#utility.yul\":6451:6758   */\n    tag_189:\n        /* \"#utility.yul\":6519:6520   */\n      0x00\n        /* \"#utility.yul\":6529:6642   */\n    tag_316:\n        /* \"#utility.yul\":6543:6549   */\n      dup4\n        /* \"#utility.yul\":6540:6541   */\n      dup2\n        /* \"#utility.yul\":6537:6550   */\n      lt\n        /* \"#utility.yul\":6529:6642   */\n      iszero\n      tag_318\n      jumpi\n        /* \"#utility.yul\":6628:6629   */\n      dup1\n        /* \"#utility.yul\":6623:6626   */\n      dup3\n        /* \"#utility.yul\":6619:6630   */\n      add\n        /* \"#utility.yul\":6613:6631   */\n      mload\n        /* \"#utility.yul\":6609:6610   */\n      dup2\n        /* \"#utility.yul\":6604:6607   */\n      dup5\n        /* \"#utility.yul\":6600:6611   */\n      add\n        /* \"#utility.yul\":6593:6632   */\n      mstore\n        /* \"#utility.yul\":6565:6567   */\n      0x20\n        /* \"#utility.yul\":6562:6563   */\n      dup2\n        /* \"#utility.yul\":6558:6568   */\n      add\n        /* \"#utility.yul\":6553:6568   */\n      swap1\n      pop\n        /* \"#utility.yul\":6529:6642   */\n      jump(tag_316)\n    tag_318:\n        /* \"#utility.yul\":6660:6666   */\n      dup4\n        /* \"#utility.yul\":6657:6658   */\n      dup2\n        /* \"#utility.yul\":6654:6667   */\n      gt\n        /* \"#utility.yul\":6651:6752   */\n      iszero\n      tag_319\n      jumpi\n        /* \"#utility.yul\":6740:6741   */\n      0x00\n        /* \"#utility.yul\":6731:6737   */\n      dup5\n        /* \"#utility.yul\":6726:6729   */\n      dup5\n        /* \"#utility.yul\":6722:6738   */\n      add\n        /* \"#utility.yul\":6715:6742   */\n      mstore\n        /* \"#utility.yul\":6651:6752   */\n    tag_319:\n        /* \"#utility.yul\":6500:6758   */\n      pop\n        /* \"#utility.yul\":6451:6758   */\n      pop\n      pop\n      pop\n      jump\t// out\n        /* \"#utility.yul\":6764:7128   */\n    tag_190:\n        /* \"#utility.yul\":6852:6855   */\n      0x00\n        /* \"#utility.yul\":6880:6919   */\n      tag_321\n        /* \"#utility.yul\":6913:6918   */\n      dup3\n        /* \"#utility.yul\":6880:6919   */\n      tag_187\n      jump\t// in\n    tag_321:\n        /* \"#utility.yul\":6935:7006   */\n      tag_322\n        /* \"#utility.yul\":6999:7005   */\n      dup2\n        /* \"#utility.yul\":6994:6997   */\n      dup6\n        /* \"#utility.yul\":6935:7006   */\n      tag_188\n      jump\t// in\n    tag_322:\n        /* \"#utility.yul\":6928:7006   */\n      swap4\n      pop\n        /* \"#utility.yul\":7015:7067   */\n      tag_323\n        /* \"#utility.yul\":7060:7066   */\n      dup2\n        /* \"#utility.yul\":7055:7058   */\n      dup6\n        /* \"#utility.yul\":7048:7052   */\n      0x20\n        /* \"#utility.yul\":7041:7046   */\n      dup7\n        /* \"#utility.yul\":7037:7053   */\n      add\n        /* \"#utility.yul\":7015:7067   */\n      tag_189\n      jump\t// in\n    tag_323:\n        /* \"#utility.yul\":7092:7121   */\n      tag_324\n        /* \"#utility.yul\":7114:7120   */\n      dup2\n        /* \"#utility.yul\":7092:7121   */\n      tag_173\n      jump\t// in\n    tag_324:\n        /* \"#utility.yul\":7087:7090   */\n      dup5\n        /* \"#utility.yul\":7083:7122   */\n      add\n        /* \"#utility.yul\":7076:7122   */\n      swap2\n      pop\n        /* \"#utility.yul\":6856:7128   */\n      pop\n        /* \"#utility.yul\":6764:7128   */\n      swap3\n      swap2\n      pop\n      pop\n      jump\t// out\n        /* \"#utility.yul\":7134:7557   */\n    tag_35:\n        /* \"#utility.yul\":7275:7279   */\n      0x00\n        /* \"#utility.yul\":7313:7315   */\n      0x40\n        /* \"#utility.yul\":7302:7311   */\n      dup3\n        /* \"#utility.yul\":7298:7316   */\n      add\n        /* \"#utility.yul\":7290:7316   */\n      swap1\n      pop\n        /* \"#utility.yul\":7362:7371   */\n      dup2\n        /* \"#utility.yul\":7356:7360   */\n      dup2\n        /* \"#utility.yul\":7352:7372   */\n      sub\n        /* \"#utility.yul\":7348:7349   */\n      0x00\n        /* \"#utility.yul\":7337:7346   */\n      dup4\n        /* \"#utility.yul\":7333:7350   */\n      add\n        /* \"#utility.yul\":7326:7373   */\n      mstore\n        /* \"#utility.yul\":7390:7468   */\n      tag_326\n        /* \"#utility.yul\":7463:7467   */\n      dup2\n        /* \"#utility.yul\":7454:7460   */\n      dup6\n        /* \"#utility.yul\":7390:7468   */\n      tag_190\n      jump\t// in\n    tag_326:\n        /* \"#utility.yul\":7382:7468   */\n      swap1\n      pop\n        /* \"#utility.yul\":7478:7550   */\n      tag_327\n        /* \"#utility.yul\":7546:7548   */\n      0x20\n        /* \"#utility.yul\":7535:7544   */\n      dup4\n        /* \"#utility.yul\":7531:7549   */\n      add\n        /* \"#utility.yul\":7522:7528   */\n      dup5\n        /* \"#utility.yul\":7478:7550   */\n      tag_163\n      jump\t// in\n    tag_327:\n        /* \"#utility.yul\":7134:7557   */\n      swap4\n      swap3\n      pop\n      pop\n      pop\n      jump\t// out\n        /* \"#utility.yul\":7563:8217   */\n    tag_39:\n        /* \"#utility.yul\":7641:7647   */\n      0x00\n        /* \"#utility.yul\":7649:7655   */\n      dup1\n        /* \"#utility.yul\":7698:7700   */\n      0x40\n        /* \"#utility.yul\":7686:7695   */\n      dup4\n        /* \"#utility.yul\":7677:7684   */\n      dup6\n        /* \"#utility.yul\":7673:7696   */\n      sub\n        /* \"#utility.yul\":7669:7701   */\n      slt\n        /* \"#utility.yul\":7666:7785   */\n      iszero\n      tag_329\n      jumpi\n        /* \"#utility.yul\":7704:7783   */\n      tag_330\n      tag_165\n      jump\t// in\n    tag_330:\n        /* \"#utility.yul\":7666:7785   */\n    tag_329:\n        /* \"#utility.yul\":7824:7825   */\n      0x00\n        /* \"#utility.yul\":7849:7902   */\n      tag_331\n        /* \"#utility.yul\":7894:7901   */\n      dup6\n        /* \"#utility.yul\":7885:7891   */\n      dup3\n        /* \"#utility.yul\":7874:7883   */\n      dup7\n        /* \"#utility.yul\":7870:7892   */\n      add\n        /* \"#utility.yul\":7849:7902   */\n      tag_170\n      jump\t// in\n    tag_331:\n        /* \"#utility.yul\":7839:7902   */\n      swap3\n      pop\n        /* \"#utility.yul\":7795:7912   */\n      pop\n        /* \"#utility.yul\":7979:7981   */\n      0x20\n        /* \"#utility.yul\":7968:7977   */\n      dup4\n        /* \"#utility.yul\":7964:7982   */\n      add\n        /* \"#utility.yul\":7951:7983   */\n      calldataload\n        /* \"#utility.yul\":8010:8028   */\n      0xffffffffffffffff\n        /* \"#utility.yul\":8002:8008   */\n      dup2\n        /* \"#utility.yul\":7999:8029   */\n      gt\n        /* \"#utility.yul\":7996:8113   */\n      iszero\n      tag_332\n      jumpi\n        /* \"#utility.yul\":8032:8111   */\n      tag_333\n      tag_166\n      jump\t// in\n    tag_333:\n        /* \"#utility.yul\":7996:8113   */\n    tag_332:\n        /* \"#utility.yul\":8137:8200   */\n      tag_334\n        /* \"#utility.yul\":8192:8199   */\n      dup6\n        /* \"#utility.yul\":8183:8189   */\n      dup3\n        /* \"#utility.yul\":8172:8181   */\n      dup7\n        /* \"#utility.yul\":8168:8190   */\n      add\n        /* \"#utility.yul\":8137:8200   */\n      tag_179\n      jump\t// in\n    tag_334:\n        /* \"#utility.yul\":8127:8200   */\n      swap2\n      pop\n        /* \"#utility.yul\":7922:8210   */\n      pop\n        /* \"#utility.yul\":7563:8217   */\n      swap3\n      pop\n      swap3\n      swap1\n      pop\n      jump\t// out\n        /* \"#utility.yul\":8223:8732   */\n    tag_44:\n        /* \"#utility.yul\":8292:8298   */\n      0x00\n        /* \"#utility.yul\":8341:8343   */\n      0x20\n        /* \"#utility.yul\":8329:8338   */\n      dup3\n        /* \"#utility.yul\":8320:8327   */\n      dup5\n        /* \"#utility.yul\":8316:8339   */\n      sub\n        /* \"#utility.yul\":8312:8344   */\n      slt\n        /* \"#utility.yul\":8309:8428   */\n      iszero\n      tag_336\n      jumpi\n        /* \"#utility.yul\":8347:8426   */\n      tag_337\n      tag_165\n      jump\t// in\n    tag_337:\n        /* \"#utility.yul\":8309:8428   */\n    tag_336:\n        /* \"#utility.yul\":8495:8496   */\n      0x00\n        /* \"#utility.yul\":8484:8493   */\n      dup3\n        /* \"#utility.yul\":8480:8497   */\n      add\n        /* \"#utility.yul\":8467:8498   */\n      calldataload\n        /* \"#utility.yul\":8525:8543   */\n      0xffffffffffffffff\n        /* \"#utility.yul\":8517:8523   */\n      dup2\n        /* \"#utility.yul\":8514:8544   */\n      gt\n        /* \"#utility.yul\":8511:8628   */\n      iszero\n      tag_338\n      jumpi\n        /* \"#utility.yul\":8547:8626   */\n      tag_339\n      tag_166\n      jump\t// in\n    tag_339:\n        /* \"#utility.yul\":8511:8628   */\n    tag_338:\n        /* \"#utility.yul\":8652:8715   */\n      tag_340\n        /* \"#utility.yul\":8707:8714   */\n      dup5\n        /* \"#utility.yul\":8698:8704   */\n      dup3\n        /* \"#utility.yul\":8687:8696   */\n      dup6\n        /* \"#utility.yul\":8683:8705   */\n      add\n        /* \"#utility.yul\":8652:8715   */\n      tag_179\n      jump\t// in\n    tag_340:\n        /* \"#utility.yul\":8642:8715   */\n      swap2\n      pop\n        /* \"#utility.yul\":8438:8725   */\n      pop\n        /* \"#utility.yul\":8223:8732   */\n      swap3\n      swap2\n      pop\n      pop\n      jump\t// out\n        /* \"#utility.yul\":8738:8852   */\n    tag_191:\n        /* \"#utility.yul\":8805:8811   */\n      0x00\n        /* \"#utility.yul\":8839:8844   */\n      dup2\n        /* \"#utility.yul\":8833:8845   */\n      mload\n        /* \"#utility.yul\":8823:8845   */\n      swap1\n      pop\n        /* \"#utility.yul\":8738:8852   */\n      swap2\n      swap1\n      pop\n      jump\t// out\n        /* \"#utility.yul\":8858:9042   */\n    tag_192:\n        /* \"#utility.yul\":8957:8968   */\n      0x00\n        /* \"#utility.yul\":8991:8997   */\n      dup3\n        /* \"#utility.yul\":8986:8989   */\n      dup3\n        /* \"#utility.yul\":8979:8998   */\n      mstore\n        /* \"#utility.yul\":9031:9035   */\n      0x20\n        /* \"#utility.yul\":9026:9029   */\n      dup3\n        /* \"#utility.yul\":9022:9036   */\n      add\n        /* \"#utility.yul\":9007:9036   */\n      swap1\n      pop\n        /* \"#utility.yul\":8858:9042   */\n      swap3\n      swap2\n      pop\n      pop\n      jump\t// out\n        /* \"#utility.yul\":9048:9180   */\n    tag_193:\n        /* \"#utility.yul\":9115:9119   */\n      0x00\n        /* \"#utility.yul\":9138:9141   */\n      dup2\n        /* \"#utility.yul\":9130:9141   */\n      swap1\n      pop\n        /* \"#utility.yul\":9168:9172   */\n      0x20\n        /* \"#utility.yul\":9163:9166   */\n      dup3\n        /* \"#utility.yul\":9159:9173   */\n      add\n        /* \"#utility.yul\":9151:9173   */\n      swap1\n      pop\n        /* \"#utility.yul\":9048:9180   */\n      swap2\n      swap1\n      pop\n      jump\t// out\n        /* \"#utility.yul\":9186:9294   */\n    tag_194:\n        /* \"#utility.yul\":9263:9287   */\n      tag_345\n        /* \"#utility.yul\":9281:9286   */\n      dup2\n        /* \"#utility.yul\":9263:9287   */\n      tag_162\n      jump\t// in\n    tag_345:\n        /* \"#utility.yul\":9258:9261   */\n      dup3\n        /* \"#utility.yul\":9251:9288   */\n      mstore\n        /* \"#utility.yul\":9186:9294   */\n      pop\n      pop\n      jump\t// out\n        /* \"#utility.yul\":9300:9479   */\n    tag_195:\n        /* \"#utility.yul\":9369:9379   */\n      0x00\n        /* \"#utility.yul\":9390:9436   */\n      tag_347\n        /* \"#utility.yul\":9432:9435   */\n      dup4\n        /* \"#utility.yul\":9424:9430   */\n      dup4\n        /* \"#utility.yul\":9390:9436   */\n      tag_194\n      jump\t// in\n    tag_347:\n        /* \"#utility.yul\":9468:9472   */\n      0x20\n        /* \"#utility.yul\":9463:9466   */\n      dup4\n        /* \"#utility.yul\":9459:9473   */\n      add\n        /* \"#utility.yul\":9445:9473   */\n      swap1\n      pop\n        /* \"#utility.yul\":9300:9479   */\n      swap3\n      swap2\n      pop\n      pop\n      jump\t// out\n        /* \"#utility.yul\":9485:9598   */\n    tag_196:\n        /* \"#utility.yul\":9555:9559   */\n      0x00\n        /* \"#utility.yul\":9587:9591   */\n      0x20\n        /* \"#utility.yul\":9582:9585   */\n      dup3\n        /* \"#utility.yul\":9578:9592   */\n      add\n        /* \"#utility.yul\":9570:9592   */\n      swap1\n      pop\n        /* \"#utility.yul\":9485:9598   */\n      swap2\n      swap1\n      pop\n      jump\t// out\n        /* \"#utility.yul\":9634:10366   */\n    tag_197:\n        /* \"#utility.yul\":9753:9756   */\n      0x00\n        /* \"#utility.yul\":9782:9836   */\n      tag_350\n        /* \"#utility.yul\":9830:9835   */\n      dup3\n        /* \"#utility.yul\":9782:9836   */\n      tag_191\n      jump\t// in\n    tag_350:\n        /* \"#utility.yul\":9852:9938   */\n      tag_351\n        /* \"#utility.yul\":9931:9937   */\n      dup2\n        /* \"#utility.yul\":9926:9929   */\n      dup6\n        /* \"#utility.yul\":9852:9938   */\n      tag_192\n      jump\t// in\n    tag_351:\n        /* \"#utility.yul\":9845:9938   */\n      swap4\n      pop\n        /* \"#utility.yul\":9962:10018   */\n      tag_352\n        /* \"#utility.yul\":10012:10017   */\n      dup4\n        /* \"#utility.yul\":9962:10018   */\n      tag_193\n      jump\t// in\n    tag_352:\n        /* \"#utility.yul\":10041:10048   */\n      dup1\n        /* \"#utility.yul\":10072:10073   */\n      0x00\n        /* \"#utility.yul\":10057:10341   */\n    tag_353:\n        /* \"#utility.yul\":10082:10088   */\n      dup4\n        /* \"#utility.yul\":10079:10080   */\n      dup2\n        /* \"#utility.yul\":10076:10089   */\n      lt\n        /* \"#utility.yul\":10057:10341   */\n      iszero\n      tag_355\n      jumpi\n        /* \"#utility.yul\":10158:10164   */\n      dup2\n        /* \"#utility.yul\":10152:10165   */\n      mload\n        /* \"#utility.yul\":10185:10248   */\n      tag_356\n        /* \"#utility.yul\":10244:10247   */\n      dup9\n        /* \"#utility.yul\":10229:10242   */\n      dup3\n        /* \"#utility.yul\":10185:10248   */\n      tag_195\n      jump\t// in\n    tag_356:\n        /* \"#utility.yul\":10178:10248   */\n      swap8\n      pop\n        /* \"#utility.yul\":10271:10331   */\n      tag_357\n        /* \"#utility.yul\":10324:10330   */\n      dup4\n        /* \"#utility.yul\":10271:10331   */\n      tag_196\n      jump\t// in\n    tag_357:\n        /* \"#utility.yul\":10261:10331   */\n      swap3\n      pop\n        /* \"#utility.yul\":10117:10341   */\n      pop\n        /* \"#utility.yul\":10104:10105   */\n      0x01\n        /* \"#utility.yul\":10101:10102   */\n      dup2\n        /* \"#utility.yul\":10097:10106   */\n      add\n        /* \"#utility.yul\":10092:10106   */\n      swap1\n      pop\n        /* \"#utility.yul\":10057:10341   */\n      jump(tag_353)\n    tag_355:\n        /* \"#utility.yul\":10061:10075   */\n      pop\n        /* \"#utility.yul\":10357:10360   */\n      dup6\n        /* \"#utility.yul\":10350:10360   */\n      swap4\n      pop\n        /* \"#utility.yul\":9758:10366   */\n      pop\n      pop\n      pop\n        /* \"#utility.yul\":9634:10366   */\n      swap3\n      swap2\n      pop\n      pop\n      jump\t// out\n        /* \"#utility.yul\":10372:10490   */\n    tag_198:\n        /* \"#utility.yul\":10459:10483   */\n      tag_359\n        /* \"#utility.yul\":10477:10482   */\n      dup2\n        /* \"#utility.yul\":10459:10483   */\n      tag_168\n      jump\t// in\n    tag_359:\n        /* \"#utility.yul\":10454:10457   */\n      dup3\n        /* \"#utility.yul\":10447:10484   */\n      mstore\n        /* \"#utility.yul\":10372:10490   */\n      pop\n      pop\n      jump\t// out\n        /* \"#utility.yul\":10496:11089   */\n    tag_47:\n        /* \"#utility.yul\":10695:10699   */\n      0x00\n        /* \"#utility.yul\":10733:10735   */\n      0x60\n        /* \"#utility.yul\":10722:10731   */\n      dup3\n        /* \"#utility.yul\":10718:10736   */\n      add\n        /* \"#utility.yul\":10710:10736   */\n      swap1\n      pop\n        /* \"#utility.yul\":10782:10791   */\n      dup2\n        /* \"#utility.yul\":10776:10780   */\n      dup2\n        /* \"#utility.yul\":10772:10792   */\n      sub\n        /* \"#utility.yul\":10768:10769   */\n      0x00\n        /* \"#utility.yul\":10757:10766   */\n      dup4\n        /* \"#utility.yul\":10753:10770   */\n      add\n        /* \"#utility.yul\":10746:10793   */\n      mstore\n        /* \"#utility.yul\":10810:10918   */\n      tag_361\n        /* \"#utility.yul\":10913:10917   */\n      dup2\n        /* \"#utility.yul\":10904:10910   */\n      dup7\n        /* \"#utility.yul\":10810:10918   */\n      tag_197\n      jump\t// in\n    tag_361:\n        /* \"#utility.yul\":10802:10918   */\n      swap1\n      pop\n        /* \"#utility.yul\":10928:11000   */\n      tag_362\n        /* \"#utility.yul\":10996:10998   */\n      0x20\n        /* \"#utility.yul\":10985:10994   */\n      dup4\n        /* \"#utility.yul\":10981:10999   */\n      add\n        /* \"#utility.yul\":10972:10978   */\n      dup6\n        /* \"#utility.yul\":10928:11000   */\n      tag_198\n      jump\t// in\n    tag_362:\n        /* \"#utility.yul\":11010:11082   */\n      tag_363\n        /* \"#utility.yul\":11078:11080   */\n      0x40\n        /* \"#utility.yul\":11067:11076   */\n      dup4\n        /* \"#utility.yul\":11063:11081   */\n      add\n        /* \"#utility.yul\":11054:11060   */\n      dup5\n        /* \"#utility.yul\":11010:11082   */\n      tag_163\n      jump\t// in\n    tag_363:\n        /* \"#utility.yul\":10496:11089   */\n      swap5\n      swap4\n      pop\n      pop\n      pop\n      pop\n      jump\t// out\n        /* \"#utility.yul\":11095:11188   */\n    tag_199:\n        /* \"#utility.yul\":11131:11138   */\n      0x00\n        /* \"#utility.yul\":11171:11181   */\n      0xffffffff\n        /* \"#utility.yul\":11164:11169   */\n      dup3\n        /* \"#utility.yul\":11160:11182   */\n      and\n        /* \"#utility.yul\":11149:11182   */\n      swap1\n      pop\n        /* \"#utility.yul\":11095:11188   */\n      swap2\n      swap1\n      pop\n      jump\t// out\n        /* \"#utility.yul\":11194:11309   */\n    tag_200:\n        /* \"#utility.yul\":11279:11302   */\n      tag_366\n        /* \"#utility.yul\":11296:11301   */\n      dup2\n        /* \"#utility.yul\":11279:11302   */\n      tag_199\n      jump\t// in\n    tag_366:\n        /* \"#utility.yul\":11274:11277   */\n      dup3\n        /* \"#utility.yul\":11267:11303   */\n      mstore\n        /* \"#utility.yul\":11194:11309   */\n      pop\n      pop\n      jump\t// out\n        /* \"#utility.yul\":11315:11416   */\n    tag_201:\n        /* \"#utility.yul\":11351:11358   */\n      0x00\n        /* \"#utility.yul\":11391:11409   */\n      0xffffffffffffffff\n        /* \"#utility.yul\":11384:11389   */\n      dup3\n        /* \"#utility.yul\":11380:11410   */\n      and\n        /* \"#utility.yul\":11369:11410   */\n      swap1\n      pop\n        /* \"#utility.yul\":11315:11416   */\n      swap2\n      swap1\n      pop\n      jump\t// out\n        /* \"#utility.yul\":11422:11537   */\n    tag_202:\n        /* \"#utility.yul\":11507:11530   */\n      tag_369\n        /* \"#utility.yul\":11524:11529   */\n      dup2\n        /* \"#utility.yul\":11507:11530   */\n      tag_201\n      jump\t// in\n    tag_369:\n        /* \"#utility.yul\":11502:11505   */\n      dup3\n        /* \"#utility.yul\":11495:11531   */\n      mstore\n        /* \"#utility.yul\":11422:11537   */\n      pop\n      pop\n      jump\t// out\n        /* \"#utility.yul\":11543:11658   */\n    tag_203:\n        /* \"#utility.yul\":11628:11651   */\n      tag_371\n        /* \"#utility.yul\":11645:11650   */\n      dup2\n        /* \"#utility.yul\":11628:11651   */\n      tag_184\n      jump\t// in\n    tag_371:\n        /* \"#utility.yul\":11623:11626   */\n      dup3\n        /* \"#utility.yul\":11616:11652   */\n      mstore\n        /* \"#utility.yul\":11543:11658   */\n      pop\n      pop\n      jump\t// out\n        /* \"#utility.yul\":11664:11754   */\n    tag_204:\n        /* \"#utility.yul\":11698:11705   */\n      0x00\n        /* \"#utility.yul\":11741:11746   */\n      dup2\n        /* \"#utility.yul\":11734:11747   */\n      iszero\n        /* \"#utility.yul\":11727:11748   */\n      iszero\n        /* \"#utility.yul\":11716:11748   */\n      swap1\n      pop\n        /* \"#utility.yul\":11664:11754   */\n      swap2\n      swap1\n      pop\n      jump\t// out\n        /* \"#utility.yul\":11760:11869   */\n    tag_205:\n        /* \"#utility.yul\":11841:11862   */\n      tag_374\n        /* \"#utility.yul\":11856:11861   */\n      dup2\n        /* \"#utility.yul\":11841:11862   */\n      tag_204\n      jump\t// in\n    tag_374:\n        /* \"#utility.yul\":11836:11839   */\n      dup3\n        /* \"#utility.yul\":11829:11863   */\n      mstore\n        /* \"#utility.yul\":11760:11869   */\n      pop\n      pop\n      jump\t// out\n        /* \"#utility.yul\":11875:12622   */\n    tag_57:\n        /* \"#utility.yul\":12094:12098   */\n      0x00\n        /* \"#utility.yul\":12132:12135   */\n      0xc0\n        /* \"#utility.yul\":12121:12130   */\n      dup3\n        /* \"#utility.yul\":12117:12136   */\n      add\n        /* \"#utility.yul\":12109:12136   */\n      swap1\n      pop\n        /* \"#utility.yul\":12146:12217   */\n      tag_376\n        /* \"#utility.yul\":12214:12215   */\n      0x00\n        /* \"#utility.yul\":12203:12212   */\n      dup4\n        /* \"#utility.yul\":12199:12216   */\n      add\n        /* \"#utility.yul\":12190:12196   */\n      dup10\n        /* \"#utility.yul\":12146:12217   */\n      tag_198\n      jump\t// in\n    tag_376:\n        /* \"#utility.yul\":12227:12297   */\n      tag_377\n        /* \"#utility.yul\":12293:12295   */\n      0x20\n        /* \"#utility.yul\":12282:12291   */\n      dup4\n        /* \"#utility.yul\":12278:12296   */\n      add\n        /* \"#utility.yul\":12269:12275   */\n      dup9\n        /* \"#utility.yul\":12227:12297   */\n      tag_200\n      jump\t// in\n    tag_377:\n        /* \"#utility.yul\":12307:12377   */\n      tag_378\n        /* \"#utility.yul\":12373:12375   */\n      0x40\n        /* \"#utility.yul\":12362:12371   */\n      dup4\n        /* \"#utility.yul\":12358:12376   */\n      add\n        /* \"#utility.yul\":12349:12355   */\n      dup8\n        /* \"#utility.yul\":12307:12377   */\n      tag_202\n      jump\t// in\n    tag_378:\n        /* \"#utility.yul\":12387:12457   */\n      tag_379\n        /* \"#utility.yul\":12453:12455   */\n      0x60\n        /* \"#utility.yul\":12442:12451   */\n      dup4\n        /* \"#utility.yul\":12438:12456   */\n      add\n        /* \"#utility.yul\":12429:12435   */\n      dup7\n        /* \"#utility.yul\":12387:12457   */\n      tag_202\n      jump\t// in\n    tag_379:\n        /* \"#utility.yul\":12467:12538   */\n      tag_380\n        /* \"#utility.yul\":12533:12536   */\n      0x80\n        /* \"#utility.yul\":12522:12531   */\n      dup4\n        /* \"#utility.yul\":12518:12537   */\n      add\n        /* \"#utility.yul\":12509:12515   */\n      dup6\n        /* \"#utility.yul\":12467:12538   */\n      tag_203\n      jump\t// in\n    tag_380:\n        /* \"#utility.yul\":12548:12615   */\n      tag_381\n        /* \"#utility.yul\":12610:12613   */\n      0xa0\n        /* \"#utility.yul\":12599:12608   */\n      dup4\n        /* \"#utility.yul\":12595:12614   */\n      add\n        /* \"#utility.yul\":12586:12592   */\n      dup5\n        /* \"#utility.yul\":12548:12615   */\n      tag_205\n      jump\t// in\n    tag_381:\n        /* \"#utility.yul\":11875:12622   */\n      swap8\n      swap7\n      pop\n      pop\n      pop\n      pop\n      pop\n      pop\n      pop\n      jump\t// out\n        /* \"#utility.yul\":12628:12957   */\n    tag_61:\n        /* \"#utility.yul\":12687:12693   */\n      0x00\n        /* \"#utility.yul\":12736:12738   */\n      0x20\n        /* \"#utility.yul\":12724:12733   */\n      dup3\n        /* \"#utility.yul\":12715:12722   */\n      dup5\n        /* \"#utility.yul\":12711:12734   */\n      sub\n        /* \"#utility.yul\":12707:12739   */\n      slt\n        /* \"#utility.yul\":12704:12823   */\n      iszero\n      tag_383\n      jumpi\n        /* \"#utility.yul\":12742:12821   */\n      tag_384\n      tag_165\n      jump\t// in\n    tag_384:\n        /* \"#utility.yul\":12704:12823   */\n    tag_383:\n        /* \"#utility.yul\":12862:12863   */\n      0x00\n        /* \"#utility.yul\":12887:12940   */\n      tag_385\n        /* \"#utility.yul\":12932:12939   */\n      dup5\n        /* \"#utility.yul\":12923:12929   */\n      dup3\n        /* \"#utility.yul\":12912:12921   */\n      dup6\n        /* \"#utility.yul\":12908:12930   */\n      add\n        /* \"#utility.yul\":12887:12940   */\n      tag_170\n      jump\t// in\n    tag_385:\n        /* \"#utility.yul\":12877:12940   */\n      swap2\n      pop\n        /* \"#utility.yul\":12833:12950   */\n      pop\n        /* \"#utility.yul\":12628:12957   */\n      swap3\n      swap2\n      pop\n      pop\n      jump\t// out\n        /* \"#utility.yul\":12963:13077   */\n    tag_206:\n        /* \"#utility.yul\":13030:13036   */\n      0x00\n        /* \"#utility.yul\":13064:13069   */\n      dup2\n        /* \"#utility.yul\":13058:13070   */\n      mload\n        /* \"#utility.yul\":13048:13070   */\n      swap1\n      pop\n        /* \"#utility.yul\":12963:13077   */\n      swap2\n      swap1\n      pop\n      jump\t// out\n        /* \"#utility.yul\":13083:13267   */\n    tag_207:\n        /* \"#utility.yul\":13182:13193   */\n      0x00\n        /* \"#utility.yul\":13216:13222   */\n      dup3\n        /* \"#utility.yul\":13211:13214   */\n      dup3\n        /* \"#utility.yul\":13204:13223   */\n      mstore\n        /* \"#utility.yul\":13256:13260   */\n      0x20\n        /* \"#utility.yul\":13251:13254   */\n      dup3\n        /* \"#utility.yul\":13247:13261   */\n      add\n        /* \"#utility.yul\":13232:13261   */\n      swap1\n      pop\n        /* \"#utility.yul\":13083:13267   */\n      swap3\n      swap2\n      pop\n      pop\n      jump\t// out\n        /* \"#utility.yul\":13273:13405   */\n    tag_208:\n        /* \"#utility.yul\":13340:13344   */\n      0x00\n        /* \"#utility.yul\":13363:13366   */\n      dup2\n        /* \"#utility.yul\":13355:13366   */\n      swap1\n      pop\n        /* \"#utility.yul\":13393:13397   */\n      0x20\n        /* \"#utility.yul\":13388:13391   */\n      dup3\n        /* \"#utility.yul\":13384:13398   */\n      add\n        /* \"#utility.yul\":13376:13398   */\n      swap1\n      pop\n        /* \"#utility.yul\":13273:13405   */\n      swap2\n      swap1\n      pop\n      jump\t// out\n        /* \"#utility.yul\":13411:13519   */\n    tag_209:\n        /* \"#utility.yul\":13488:13512   */\n      tag_390\n        /* \"#utility.yul\":13506:13511   */\n      dup2\n        /* \"#utility.yul\":13488:13512   */\n      tag_168\n      jump\t// in\n    tag_390:\n        /* \"#utility.yul\":13483:13486   */\n      dup3\n        /* \"#utility.yul\":13476:13513   */\n      mstore\n        /* \"#utility.yul\":13411:13519   */\n      pop\n      pop\n      jump\t// out\n        /* \"#utility.yul\":13525:13704   */\n    tag_210:\n        /* \"#utility.yul\":13594:13604   */\n      0x00\n        /* \"#utility.yul\":13615:13661   */\n      tag_392\n        /* \"#utility.yul\":13657:13660   */\n      dup4\n        /* \"#utility.yul\":13649:13655   */\n      dup4\n        /* \"#utility.yul\":13615:13661   */\n      tag_209\n      jump\t// in\n    tag_392:\n        /* \"#utility.yul\":13693:13697   */\n      0x20\n        /* \"#utility.yul\":13688:13691   */\n      dup4\n        /* \"#utility.yul\":13684:13698   */\n      add\n        /* \"#utility.yul\":13670:13698   */\n      swap1\n      pop\n        /* \"#utility.yul\":13525:13704   */\n      swap3\n      swap2\n      pop\n      pop\n      jump\t// out\n        /* \"#utility.yul\":13710:13823   */\n    tag_211:\n        /* \"#utility.yul\":13780:13784   */\n      0x00\n        /* \"#utility.yul\":13812:13816   */\n      0x20\n        /* \"#utility.yul\":13807:13810   */\n      dup3\n        /* \"#utility.yul\":13803:13817   */\n      add\n        /* \"#utility.yul\":13795:13817   */\n      swap1\n      pop\n        /* \"#utility.yul\":13710:13823   */\n      swap2\n      swap1\n      pop\n      jump\t// out\n        /* \"#utility.yul\":13859:14591   */\n    tag_212:\n        /* \"#utility.yul\":13978:13981   */\n      0x00\n        /* \"#utility.yul\":14007:14061   */\n      tag_395\n        /* \"#utility.yul\":14055:14060   */\n      dup3\n        /* \"#utility.yul\":14007:14061   */\n      tag_206\n      jump\t// in\n    tag_395:\n        /* \"#utility.yul\":14077:14163   */\n      tag_396\n        /* \"#utility.yul\":14156:14162   */\n      dup2\n        /* \"#utility.yul\":14151:14154   */\n      dup6\n        /* \"#utility.yul\":14077:14163   */\n      tag_207\n      jump\t// in\n    tag_396:\n        /* \"#utility.yul\":14070:14163   */\n      swap4\n      pop\n        /* \"#utility.yul\":14187:14243   */\n      tag_397\n        /* \"#utility.yul\":14237:14242   */\n      dup4\n        /* \"#utility.yul\":14187:14243   */\n      tag_208\n      jump\t// in\n    tag_397:\n        /* \"#utility.yul\":14266:14273   */\n      dup1\n        /* \"#utility.yul\":14297:14298   */\n      0x00\n        /* \"#utility.yul\":14282:14566   */\n    tag_398:\n        /* \"#utility.yul\":14307:14313   */\n      dup4\n        /* \"#utility.yul\":14304:14305   */\n      dup2\n        /* \"#utility.yul\":14301:14314   */\n      lt\n        /* \"#utility.yul\":14282:14566   */\n      iszero\n      tag_400\n      jumpi\n        /* \"#utility.yul\":14383:14389   */\n      dup2\n        /* \"#utility.yul\":14377:14390   */\n      mload\n        /* \"#utility.yul\":14410:14473   */\n      tag_401\n        /* \"#utility.yul\":14469:14472   */\n      dup9\n        /* \"#utility.yul\":14454:14467   */\n      dup3\n        /* \"#utility.yul\":14410:14473   */\n      tag_210\n      jump\t// in\n    tag_401:\n        /* \"#utility.yul\":14403:14473   */\n      swap8\n      pop\n        /* \"#utility.yul\":14496:14556   */\n      tag_402\n        /* \"#utility.yul\":14549:14555   */\n      dup4\n        /* \"#utility.yul\":14496:14556   */\n      tag_211\n      jump\t// in\n    tag_402:\n        /* \"#utility.yul\":14486:14556   */\n      swap3\n      pop\n        /* \"#utility.yul\":14342:14566   */\n      pop\n        /* \"#utility.yul\":14329:14330   */\n      0x01\n        /* \"#utility.yul\":14326:14327   */\n      dup2\n        /* \"#utility.yul\":14322:14331   */\n      add\n        /* \"#utility.yul\":14317:14331   */\n      swap1\n      pop\n        /* \"#utility.yul\":14282:14566   */\n      jump(tag_398)\n    tag_400:\n        /* \"#utility.yul\":14286:14300   */\n      pop\n        /* \"#utility.yul\":14582:14585   */\n      dup6\n        /* \"#utility.yul\":14575:14585   */\n      swap4\n      pop\n        /* \"#utility.yul\":13983:14591   */\n      pop\n      pop\n      pop\n        /* \"#utility.yul\":13859:14591   */\n      swap3\n      swap2\n      pop\n      pop\n      jump\t// out\n        /* \"#utility.yul\":14597:14970   */\n    tag_74:\n        /* \"#utility.yul\":14740:14744   */\n      0x00\n        /* \"#utility.yul\":14778:14780   */\n      0x20\n        /* \"#utility.yul\":14767:14776   */\n      dup3\n        /* \"#utility.yul\":14763:14781   */\n      add\n        /* \"#utility.yul\":14755:14781   */\n      swap1\n      pop\n        /* \"#utility.yul\":14827:14836   */\n      dup2\n        /* \"#utility.yul\":14821:14825   */\n      dup2\n        /* \"#utility.yul\":14817:14837   */\n      sub\n        /* \"#utility.yul\":14813:14814   */\n      0x00\n        /* \"#utility.yul\":14802:14811   */\n      dup4\n        /* \"#utility.yul\":14798:14815   */\n      add\n        /* \"#utility.yul\":14791:14838   */\n      mstore\n        /* \"#utility.yul\":14855:14963   */\n      tag_404\n        /* \"#utility.yul\":14958:14962   */\n      dup2\n        /* \"#utility.yul\":14949:14955   */\n      dup5\n        /* \"#utility.yul\":14855:14963   */\n      tag_212\n      jump\t// in\n    tag_404:\n        /* \"#utility.yul\":14847:14963   */\n      swap1\n      pop\n        /* \"#utility.yul\":14597:14970   */\n      swap3\n      swap2\n      pop\n      pop\n      jump\t// out\n        /* \"#utility.yul\":14976:15070   */\n    tag_213:\n        /* \"#utility.yul\":15009:15017   */\n      0x00\n        /* \"#utility.yul\":15057:15062   */\n      dup2\n        /* \"#utility.yul\":15053:15055   */\n      0x60\n        /* \"#utility.yul\":15049:15063   */\n      shl\n        /* \"#utility.yul\":15028:15063   */\n      swap1\n      pop\n        /* \"#utility.yul\":14976:15070   */\n      swap2\n      swap1\n      pop\n      jump\t// out\n        /* \"#utility.yul\":15076:15170   */\n    tag_214:\n        /* \"#utility.yul\":15115:15122   */\n      0x00\n        /* \"#utility.yul\":15144:15164   */\n      tag_407\n        /* \"#utility.yul\":15158:15163   */\n      dup3\n        /* \"#utility.yul\":15144:15164   */\n      tag_213\n      jump\t// in\n    tag_407:\n        /* \"#utility.yul\":15133:15164   */\n      swap1\n      pop\n        /* \"#utility.yul\":15076:15170   */\n      swap2\n      swap1\n      pop\n      jump\t// out\n        /* \"#utility.yul\":15176:15276   */\n    tag_215:\n        /* \"#utility.yul\":15215:15222   */\n      0x00\n        /* \"#utility.yul\":15244:15270   */\n      tag_409\n        /* \"#utility.yul\":15264:15269   */\n      dup3\n        /* \"#utility.yul\":15244:15270   */\n      tag_214\n      jump\t// in\n    tag_409:\n        /* \"#utility.yul\":15233:15270   */\n      swap1\n      pop\n        /* \"#utility.yul\":15176:15276   */\n      swap2\n      swap1\n      pop\n      jump\t// out\n        /* \"#utility.yul\":15282:15439   */\n    tag_216:\n        /* \"#utility.yul\":15387:15432   */\n      tag_411\n        /* \"#utility.yul\":15407:15431   */\n      tag_412\n        /* \"#utility.yul\":15425:15430   */\n      dup3\n        /* \"#utility.yul\":15407:15431   */\n      tag_168\n      jump\t// in\n    tag_412:\n        /* \"#utility.yul\":15387:15432   */\n      tag_215\n      jump\t// in\n    tag_411:\n        /* \"#utility.yul\":15382:15385   */\n      dup3\n        /* \"#utility.yul\":15375:15433   */\n      mstore\n        /* \"#utility.yul\":15282:15439   */\n      pop\n      pop\n      jump\t// out\n        /* \"#utility.yul\":15445:15593   */\n    tag_217:\n        /* \"#utility.yul\":15547:15558   */\n      0x00\n        /* \"#utility.yul\":15584:15587   */\n      dup2\n        /* \"#utility.yul\":15569:15587   */\n      swap1\n      pop\n        /* \"#utility.yul\":15445:15593   */\n      swap3\n      swap2\n      pop\n      pop\n      jump\t// out\n        /* \"#utility.yul\":15599:15772   */\n    tag_218:\n        /* \"#utility.yul\":15739:15764   */\n      0x6d6574617472616e73616374696f6e20566f74696e6720000000000000000000\n        /* \"#utility.yul\":15735:15736   */\n      0x00\n        /* \"#utility.yul\":15727:15733   */\n      dup3\n        /* \"#utility.yul\":15723:15737   */\n      add\n        /* \"#utility.yul\":15716:15765   */\n      mstore\n        /* \"#utility.yul\":15599:15772   */\n      pop\n      jump\t// out\n        /* \"#utility.yul\":15778:16180   */\n    tag_219:\n        /* \"#utility.yul\":15938:15941   */\n      0x00\n        /* \"#utility.yul\":15959:16044   */\n      tag_416\n        /* \"#utility.yul\":16041:16043   */\n      0x17\n        /* \"#utility.yul\":16036:16039   */\n      dup4\n        /* \"#utility.yul\":15959:16044   */\n      tag_217\n      jump\t// in\n    tag_416:\n        /* \"#utility.yul\":15952:16044   */\n      swap2\n      pop\n        /* \"#utility.yul\":16053:16146   */\n      tag_417\n        /* \"#utility.yul\":16142:16145   */\n      dup3\n        /* \"#utility.yul\":16053:16146   */\n      tag_218\n      jump\t// in\n    tag_417:\n        /* \"#utility.yul\":16171:16173   */\n      0x17\n        /* \"#utility.yul\":16166:16169   */\n      dup3\n        /* \"#utility.yul\":16162:16174   */\n      add\n        /* \"#utility.yul\":16155:16174   */\n      swap1\n      pop\n        /* \"#utility.yul\":15778:16180   */\n      swap2\n      swap1\n      pop\n      jump\t// out\n        /* \"#utility.yul\":16186:16563   */\n    tag_220:\n        /* \"#utility.yul\":16292:16295   */\n      0x00\n        /* \"#utility.yul\":16320:16359   */\n      tag_419\n        /* \"#utility.yul\":16353:16358   */\n      dup3\n        /* \"#utility.yul\":16320:16359   */\n      tag_187\n      jump\t// in\n    tag_419:\n        /* \"#utility.yul\":16375:16464   */\n      tag_420\n        /* \"#utility.yul\":16457:16463   */\n      dup2\n        /* \"#utility.yul\":16452:16455   */\n      dup6\n        /* \"#utility.yul\":16375:16464   */\n      tag_217\n      jump\t// in\n    tag_420:\n        /* \"#utility.yul\":16368:16464   */\n      swap4\n      pop\n        /* \"#utility.yul\":16473:16525   */\n      tag_421\n        /* \"#utility.yul\":16518:16524   */\n      dup2\n        /* \"#utility.yul\":16513:16516   */\n      dup6\n        /* \"#utility.yul\":16506:16510   */\n      0x20\n        /* \"#utility.yul\":16499:16504   */\n      dup7\n        /* \"#utility.yul\":16495:16511   */\n      add\n        /* \"#utility.yul\":16473:16525   */\n      tag_189\n      jump\t// in\n    tag_421:\n        /* \"#utility.yul\":16550:16556   */\n      dup1\n        /* \"#utility.yul\":16545:16548   */\n      dup5\n        /* \"#utility.yul\":16541:16557   */\n      add\n        /* \"#utility.yul\":16534:16557   */\n      swap2\n      pop\n        /* \"#utility.yul\":16296:16563   */\n      pop\n        /* \"#utility.yul\":16186:16563   */\n      swap3\n      swap2\n      pop\n      pop\n      jump\t// out\n        /* \"#utility.yul\":16569:16648   */\n    tag_221:\n        /* \"#utility.yul\":16608:16615   */\n      0x00\n        /* \"#utility.yul\":16637:16642   */\n      dup2\n        /* \"#utility.yul\":16626:16642   */\n      swap1\n      pop\n        /* \"#utility.yul\":16569:16648   */\n      swap2\n      swap1\n      pop\n      jump\t// out\n        /* \"#utility.yul\":16654:16811   */\n    tag_222:\n        /* \"#utility.yul\":16759:16804   */\n      tag_424\n        /* \"#utility.yul\":16779:16803   */\n      tag_425\n        /* \"#utility.yul\":16797:16802   */\n      dup3\n        /* \"#utility.yul\":16779:16803   */\n      tag_162\n      jump\t// in\n    tag_425:\n        /* \"#utility.yul\":16759:16804   */\n      tag_221\n      jump\t// in\n    tag_424:\n        /* \"#utility.yul\":16754:16757   */\n      dup3\n        /* \"#utility.yul\":16747:16805   */\n      mstore\n        /* \"#utility.yul\":16654:16811   */\n      pop\n      pop\n      jump\t// out\n        /* \"#utility.yul\":16817:17922   */\n    tag_82:\n        /* \"#utility.yul\":17162:17165   */\n      0x00\n        /* \"#utility.yul\":17177:17252   */\n      tag_427\n        /* \"#utility.yul\":17248:17251   */\n      dup3\n        /* \"#utility.yul\":17239:17245   */\n      dup9\n        /* \"#utility.yul\":17177:17252   */\n      tag_216\n      jump\t// in\n    tag_427:\n        /* \"#utility.yul\":17277:17279   */\n      0x14\n        /* \"#utility.yul\":17272:17275   */\n      dup3\n        /* \"#utility.yul\":17268:17280   */\n      add\n        /* \"#utility.yul\":17261:17280   */\n      swap2\n      pop\n        /* \"#utility.yul\":17297:17445   */\n      tag_428\n        /* \"#utility.yul\":17441:17444   */\n      dup3\n        /* \"#utility.yul\":17297:17445   */\n      tag_219\n      jump\t// in\n    tag_428:\n        /* \"#utility.yul\":17290:17445   */\n      swap2\n      pop\n        /* \"#utility.yul\":17455:17530   */\n      tag_429\n        /* \"#utility.yul\":17526:17529   */\n      dup3\n        /* \"#utility.yul\":17517:17523   */\n      dup8\n        /* \"#utility.yul\":17455:17530   */\n      tag_216\n      jump\t// in\n    tag_429:\n        /* \"#utility.yul\":17555:17557   */\n      0x14\n        /* \"#utility.yul\":17550:17553   */\n      dup3\n        /* \"#utility.yul\":17546:17558   */\n      add\n        /* \"#utility.yul\":17539:17558   */\n      swap2\n      pop\n        /* \"#utility.yul\":17575:17670   */\n      tag_430\n        /* \"#utility.yul\":17666:17669   */\n      dup3\n        /* \"#utility.yul\":17657:17663   */\n      dup7\n        /* \"#utility.yul\":17575:17670   */\n      tag_220\n      jump\t// in\n    tag_430:\n        /* \"#utility.yul\":17568:17670   */\n      swap2\n      pop\n        /* \"#utility.yul\":17680:17755   */\n      tag_431\n        /* \"#utility.yul\":17751:17754   */\n      dup3\n        /* \"#utility.yul\":17742:17748   */\n      dup6\n        /* \"#utility.yul\":17680:17755   */\n      tag_222\n      jump\t// in\n    tag_431:\n        /* \"#utility.yul\":17780:17782   */\n      0x20\n        /* \"#utility.yul\":17775:17778   */\n      dup3\n        /* \"#utility.yul\":17771:17783   */\n      add\n        /* \"#utility.yul\":17764:17783   */\n      swap2\n      pop\n        /* \"#utility.yul\":17793:17868   */\n      tag_432\n        /* \"#utility.yul\":17864:17867   */\n      dup3\n        /* \"#utility.yul\":17855:17861   */\n      dup5\n        /* \"#utility.yul\":17793:17868   */\n      tag_222\n      jump\t// in\n    tag_432:\n        /* \"#utility.yul\":17893:17895   */\n      0x20\n        /* \"#utility.yul\":17888:17891   */\n      dup3\n        /* \"#utility.yul\":17884:17896   */\n      add\n        /* \"#utility.yul\":17877:17896   */\n      swap2\n      pop\n        /* \"#utility.yul\":17913:17916   */\n      dup2\n        /* \"#utility.yul\":17906:17916   */\n      swap1\n      pop\n        /* \"#utility.yul\":16817:17922   */\n      swap7\n      swap6\n      pop\n      pop\n      pop\n      pop\n      pop\n      pop\n      jump\t// out\n        /* \"#utility.yul\":17928:18203   */\n    tag_85:\n        /* \"#utility.yul\":18060:18063   */\n      0x00\n        /* \"#utility.yul\":18082:18177   */\n      tag_434\n        /* \"#utility.yul\":18173:18176   */\n      dup3\n        /* \"#utility.yul\":18164:18170   */\n      dup5\n        /* \"#utility.yul\":18082:18177   */\n      tag_220\n      jump\t// in\n    tag_434:\n        /* \"#utility.yul\":18075:18177   */\n      swap2\n      pop\n        /* \"#utility.yul\":18194:18197   */\n      dup2\n        /* \"#utility.yul\":18187:18197   */\n      swap1\n      pop\n        /* \"#utility.yul\":17928:18203   */\n      swap3\n      swap2\n      pop\n      pop\n      jump\t// out\n        /* \"#utility.yul\":18209:18438   */\n    tag_223:\n        /* \"#utility.yul\":18349:18383   */\n      0x54686973206164647265737320646f6573206e6f742065786973742061732061\n        /* \"#utility.yul\":18345:18346   */\n      0x00\n        /* \"#utility.yul\":18337:18343   */\n      dup3\n        /* \"#utility.yul\":18333:18347   */\n      add\n        /* \"#utility.yul\":18326:18384   */\n      mstore\n        /* \"#utility.yul\":18418:18430   */\n      0x2063616e64696461746500000000000000000000000000000000000000000000\n        /* \"#utility.yul\":18413:18415   */\n      0x20\n        /* \"#utility.yul\":18405:18411   */\n      dup3\n        /* \"#utility.yul\":18401:18416   */\n      add\n        /* \"#utility.yul\":18394:18431   */\n      mstore\n        /* \"#utility.yul\":18209:18438   */\n      pop\n      jump\t// out\n        /* \"#utility.yul\":18444:18810   */\n    tag_224:\n        /* \"#utility.yul\":18586:18589   */\n      0x00\n        /* \"#utility.yul\":18607:18674   */\n      tag_437\n        /* \"#utility.yul\":18671:18673   */\n      0x2a\n        /* \"#utility.yul\":18666:18669   */\n      dup4\n        /* \"#utility.yul\":18607:18674   */\n      tag_188\n      jump\t// in\n    tag_437:\n        /* \"#utility.yul\":18600:18674   */\n      swap2\n      pop\n        /* \"#utility.yul\":18683:18776   */\n      tag_438\n        /* \"#utility.yul\":18772:18775   */\n      dup3\n        /* \"#utility.yul\":18683:18776   */\n      tag_223\n      jump\t// in\n    tag_438:\n        /* \"#utility.yul\":18801:18803   */\n      0x40\n        /* \"#utility.yul\":18796:18799   */\n      dup3\n        /* \"#utility.yul\":18792:18804   */\n      add\n        /* \"#utility.yul\":18785:18804   */\n      swap1\n      pop\n        /* \"#utility.yul\":18444:18810   */\n      swap2\n      swap1\n      pop\n      jump\t// out\n        /* \"#utility.yul\":18816:19235   */\n    tag_90:\n        /* \"#utility.yul\":18982:18986   */\n      0x00\n        /* \"#utility.yul\":19020:19022   */\n      0x20\n        /* \"#utility.yul\":19009:19018   */\n      dup3\n        /* \"#utility.yul\":19005:19023   */\n      add\n        /* \"#utility.yul\":18997:19023   */\n      swap1\n      pop\n        /* \"#utility.yul\":19069:19078   */\n      dup2\n        /* \"#utility.yul\":19063:19067   */\n      dup2\n        /* \"#utility.yul\":19059:19079   */\n      sub\n        /* \"#utility.yul\":19055:19056   */\n      0x00\n        /* \"#utility.yul\":19044:19053   */\n      dup4\n        /* \"#utility.yul\":19040:19057   */\n      add\n        /* \"#utility.yul\":19033:19080   */\n      mstore\n        /* \"#utility.yul\":19097:19228   */\n      tag_440\n        /* \"#utility.yul\":19223:19227   */\n      dup2\n        /* \"#utility.yul\":19097:19228   */\n      tag_224\n      jump\t// in\n    tag_440:\n        /* \"#utility.yul\":19089:19228   */\n      swap1\n      pop\n        /* \"#utility.yul\":18816:19235   */\n      swap2\n      swap1\n      pop\n      jump\t// out\n        /* \"#utility.yul\":19241:19407   */\n    tag_225:\n        /* \"#utility.yul\":19381:19399   */\n      0x766f74696e672068617320656e64656400000000000000000000000000000000\n        /* \"#utility.yul\":19377:19378   */\n      0x00\n        /* \"#utility.yul\":19369:19375   */\n      dup3\n        /* \"#utility.yul\":19365:19379   */\n      add\n        /* \"#utility.yul\":19358:19400   */\n      mstore\n        /* \"#utility.yul\":19241:19407   */\n      pop\n      jump\t// out\n        /* \"#utility.yul\":19413:19779   */\n    tag_226:\n        /* \"#utility.yul\":19555:19558   */\n      0x00\n        /* \"#utility.yul\":19576:19643   */\n      tag_443\n        /* \"#utility.yul\":19640:19642   */\n      0x10\n        /* \"#utility.yul\":19635:19638   */\n      dup4\n        /* \"#utility.yul\":19576:19643   */\n      tag_188\n      jump\t// in\n    tag_443:\n        /* \"#utility.yul\":19569:19643   */\n      swap2\n      pop\n        /* \"#utility.yul\":19652:19745   */\n      tag_444\n        /* \"#utility.yul\":19741:19744   */\n      dup3\n        /* \"#utility.yul\":19652:19745   */\n      tag_225\n      jump\t// in\n    tag_444:\n        /* \"#utility.yul\":19770:19772   */\n      0x20\n        /* \"#utility.yul\":19765:19768   */\n      dup3\n        /* \"#utility.yul\":19761:19773   */\n      add\n        /* \"#utility.yul\":19754:19773   */\n      swap1\n      pop\n        /* \"#utility.yul\":19413:19779   */\n      swap2\n      swap1\n      pop\n      jump\t// out\n        /* \"#utility.yul\":19785:20204   */\n    tag_95:\n        /* \"#utility.yul\":19951:19955   */\n      0x00\n        /* \"#utility.yul\":19989:19991   */\n      0x20\n        /* \"#utility.yul\":19978:19987   */\n      dup3\n        /* \"#utility.yul\":19974:19992   */\n      add\n        /* \"#utility.yul\":19966:19992   */\n      swap1\n      pop\n        /* \"#utility.yul\":20038:20047   */\n      dup2\n        /* \"#utility.yul\":20032:20036   */\n      dup2\n        /* \"#utility.yul\":20028:20048   */\n      sub\n        /* \"#utility.yul\":20024:20025   */\n      0x00\n        /* \"#utility.yul\":20013:20022   */\n      dup4\n        /* \"#utility.yul\":20009:20026   */\n      add\n        /* \"#utility.yul\":20002:20049   */\n      mstore\n        /* \"#utility.yul\":20066:20197   */\n      tag_446\n        /* \"#utility.yul\":20192:20196   */\n      dup2\n        /* \"#utility.yul\":20066:20197   */\n      tag_226\n      jump\t// in\n    tag_446:\n        /* \"#utility.yul\":20058:20197   */\n      swap1\n      pop\n        /* \"#utility.yul\":19785:20204   */\n      swap2\n      swap1\n      pop\n      jump\t// out\n        /* \"#utility.yul\":20210:20377   */\n    tag_227:\n        /* \"#utility.yul\":20350:20369   */\n      0x596f7520616c726561647920766f746564000000000000000000000000000000\n        /* \"#utility.yul\":20346:20347   */\n      0x00\n        /* \"#utility.yul\":20338:20344   */\n      dup3\n        /* \"#utility.yul\":20334:20348   */\n      add\n        /* \"#utility.yul\":20327:20370   */\n      mstore\n        /* \"#utility.yul\":20210:20377   */\n      pop\n      jump\t// out\n        /* \"#utility.yul\":20383:20749   */\n    tag_228:\n        /* \"#utility.yul\":20525:20528   */\n      0x00\n        /* \"#utility.yul\":20546:20613   */\n      tag_449\n        /* \"#utility.yul\":20610:20612   */\n      0x11\n        /* \"#utility.yul\":20605:20608   */\n      dup4\n        /* \"#utility.yul\":20546:20613   */\n      tag_188\n      jump\t// in\n    tag_449:\n        /* \"#utility.yul\":20539:20613   */\n      swap2\n      pop\n        /* \"#utility.yul\":20622:20715   */\n      tag_450\n        /* \"#utility.yul\":20711:20714   */\n      dup3\n        /* \"#utility.yul\":20622:20715   */\n      tag_227\n      jump\t// in\n    tag_450:\n        /* \"#utility.yul\":20740:20742   */\n      0x20\n        /* \"#utility.yul\":20735:20738   */\n      dup3\n        /* \"#utility.yul\":20731:20743   */\n      add\n        /* \"#utility.yul\":20724:20743   */\n      swap1\n      pop\n        /* \"#utility.yul\":20383:20749   */\n      swap2\n      swap1\n      pop\n      jump\t// out\n        /* \"#utility.yul\":20755:21174   */\n    tag_100:\n        /* \"#utility.yul\":20921:20925   */\n      0x00\n        /* \"#utility.yul\":20959:20961   */\n      0x20\n        /* \"#utility.yul\":20948:20957   */\n      dup3\n        /* \"#utility.yul\":20944:20962   */\n      add\n        /* \"#utility.yul\":20936:20962   */\n      swap1\n      pop\n        /* \"#utility.yul\":21008:21017   */\n      dup2\n        /* \"#utility.yul\":21002:21006   */\n      dup2\n        /* \"#utility.yul\":20998:21018   */\n      sub\n        /* \"#utility.yul\":20994:20995   */\n      0x00\n        /* \"#utility.yul\":20983:20992   */\n      dup4\n        /* \"#utility.yul\":20979:20996   */\n      add\n        /* \"#utility.yul\":20972:21019   */\n      mstore\n        /* \"#utility.yul\":21036:21167   */\n      tag_452\n        /* \"#utility.yul\":21162:21166   */\n      dup2\n        /* \"#utility.yul\":21036:21167   */\n      tag_228\n      jump\t// in\n    tag_452:\n        /* \"#utility.yul\":21028:21167   */\n      swap1\n      pop\n        /* \"#utility.yul\":20755:21174   */\n      swap2\n      swap1\n      pop\n      jump\t// out\n        /* \"#utility.yul\":21180:21500   */\n    tag_104:\n        /* \"#utility.yul\":21295:21299   */\n      0x00\n        /* \"#utility.yul\":21333:21335   */\n      0x40\n        /* \"#utility.yul\":21322:21331   */\n      dup3\n        /* \"#utility.yul\":21318:21336   */\n      add\n        /* \"#utility.yul\":21310:21336   */\n      swap1\n      pop\n        /* \"#utility.yul\":21346:21417   */\n      tag_454\n        /* \"#utility.yul\":21414:21415   */\n      0x00\n        /* \"#utility.yul\":21403:21412   */\n      dup4\n        /* \"#utility.yul\":21399:21416   */\n      add\n        /* \"#utility.yul\":21390:21396   */\n      dup6\n        /* \"#utility.yul\":21346:21417   */\n      tag_198\n      jump\t// in\n    tag_454:\n        /* \"#utility.yul\":21427:21493   */\n      tag_455\n        /* \"#utility.yul\":21489:21491   */\n      0x20\n        /* \"#utility.yul\":21478:21487   */\n      dup4\n        /* \"#utility.yul\":21474:21492   */\n      add\n        /* \"#utility.yul\":21465:21471   */\n      dup5\n        /* \"#utility.yul\":21427:21493   */\n      tag_205\n      jump\t// in\n    tag_455:\n        /* \"#utility.yul\":21180:21500   */\n      swap4\n      swap3\n      pop\n      pop\n      pop\n      jump\t// out\n        /* \"#utility.yul\":21506:21671   */\n    tag_229:\n        /* \"#utility.yul\":21646:21663   */\n      0x4e6f20706f6c6c20637265617465640000000000000000000000000000000000\n        /* \"#utility.yul\":21642:21643   */\n      0x00\n        /* \"#utility.yul\":21634:21640   */\n      dup3\n        /* \"#utility.yul\":21630:21644   */\n      add\n        /* \"#utility.yul\":21623:21664   */\n      mstore\n        /* \"#utility.yul\":21506:21671   */\n      pop\n      jump\t// out\n        /* \"#utility.yul\":21677:22043   */\n    tag_230:\n        /* \"#utility.yul\":21819:21822   */\n      0x00\n        /* \"#utility.yul\":21840:21907   */\n      tag_458\n        /* \"#utility.yul\":21904:21906   */\n      0x0f\n        /* \"#utility.yul\":21899:21902   */\n      dup4\n        /* \"#utility.yul\":21840:21907   */\n      tag_188\n      jump\t// in\n    tag_458:\n        /* \"#utility.yul\":21833:21907   */\n      swap2\n      pop\n        /* \"#utility.yul\":21916:22009   */\n      tag_459\n        /* \"#utility.yul\":22005:22008   */\n      dup3\n        /* \"#utility.yul\":21916:22009   */\n      tag_229\n      jump\t// in\n    tag_459:\n        /* \"#utility.yul\":22034:22036   */\n      0x20\n        /* \"#utility.yul\":22029:22032   */\n      dup3\n        /* \"#utility.yul\":22025:22037   */\n      add\n        /* \"#utility.yul\":22018:22037   */\n      swap1\n      pop\n        /* \"#utility.yul\":21677:22043   */\n      swap2\n      swap1\n      pop\n      jump\t// out\n        /* \"#utility.yul\":22049:22468   */\n    tag_109:\n        /* \"#utility.yul\":22215:22219   */\n      0x00\n        /* \"#utility.yul\":22253:22255   */\n      0x20\n        /* \"#utility.yul\":22242:22251   */\n      dup3\n        /* \"#utility.yul\":22238:22256   */\n      add\n        /* \"#utility.yul\":22230:22256   */\n      swap1\n      pop\n        /* \"#utility.yul\":22302:22311   */\n      dup2\n        /* \"#utility.yul\":22296:22300   */\n      dup2\n        /* \"#utility.yul\":22292:22312   */\n      sub\n        /* \"#utility.yul\":22288:22289   */\n      0x00\n        /* \"#utility.yul\":22277:22286   */\n      dup4\n        /* \"#utility.yul\":22273:22290   */\n      add\n        /* \"#utility.yul\":22266:22313   */\n      mstore\n        /* \"#utility.yul\":22330:22461   */\n      tag_461\n        /* \"#utility.yul\":22456:22460   */\n      dup2\n        /* \"#utility.yul\":22330:22461   */\n      tag_230\n      jump\t// in\n    tag_461:\n        /* \"#utility.yul\":22322:22461   */\n      swap1\n      pop\n        /* \"#utility.yul\":22049:22468   */\n      swap2\n      swap1\n      pop\n      jump\t// out\n        /* \"#utility.yul\":22474:22654   */\n    tag_119:\n        /* \"#utility.yul\":22522:22599   */\n      0x4e487b7100000000000000000000000000000000000000000000000000000000\n        /* \"#utility.yul\":22519:22520   */\n      0x00\n        /* \"#utility.yul\":22512:22600   */\n      mstore\n        /* \"#utility.yul\":22619:22623   */\n      0x32\n        /* \"#utility.yul\":22616:22617   */\n      0x04\n        /* \"#utility.yul\":22609:22624   */\n      mstore\n        /* \"#utility.yul\":22643:22647   */\n      0x24\n        /* \"#utility.yul\":22640:22641   */\n      0x00\n        /* \"#utility.yul\":22633:22648   */\n      revert\n        /* \"#utility.yul\":22660:22840   */\n    tag_231:\n        /* \"#utility.yul\":22708:22785   */\n      0x4e487b7100000000000000000000000000000000000000000000000000000000\n        /* \"#utility.yul\":22705:22706   */\n      0x00\n        /* \"#utility.yul\":22698:22786   */\n      mstore\n        /* \"#utility.yul\":22805:22809   */\n      0x11\n        /* \"#utility.yul\":22802:22803   */\n      0x04\n        /* \"#utility.yul\":22795:22810   */\n      mstore\n        /* \"#utility.yul\":22829:22833   */\n      0x24\n        /* \"#utility.yul\":22826:22827   */\n      0x00\n        /* \"#utility.yul\":22819:22834   */\n      revert\n        /* \"#utility.yul\":22846:23079   */\n    tag_131:\n        /* \"#utility.yul\":22885:22888   */\n      0x00\n        /* \"#utility.yul\":22908:22932   */\n      tag_465\n        /* \"#utility.yul\":22926:22931   */\n      dup3\n        /* \"#utility.yul\":22908:22932   */\n      tag_162\n      jump\t// in\n    tag_465:\n        /* \"#utility.yul\":22899:22932   */\n      swap2\n      pop\n        /* \"#utility.yul\":22954:23020   */\n      0xffffffffffffffffffffffffffffffffffffffffffffffffffffffffffffffff\n        /* \"#utility.yul\":22947:22952   */\n      dup3\n        /* \"#utility.yul\":22944:23021   */\n      eq\n        /* \"#utility.yul\":22941:23044   */\n      iszero\n      tag_466\n      jumpi\n        /* \"#utility.yul\":23024:23042   */\n      tag_467\n      tag_231\n      jump\t// in\n    tag_467:\n        /* \"#utility.yul\":22941:23044   */\n    tag_466:\n        /* \"#utility.yul\":23071:23072   */\n      0x01\n        /* \"#utility.yul\":23064:23069   */\n      dup3\n        /* \"#utility.yul\":23060:23073   */\n      add\n        /* \"#utility.yul\":23053:23073   */\n      swap1\n      pop\n        /* \"#utility.yul\":22846:23079   */\n      swap2\n      swap1\n      pop\n      jump\t// out\n        /* \"#utility.yul\":23085:23255   */\n    tag_232:\n        /* \"#utility.yul\":23225:23247   */\n      0x79657420746f20637265617465206120706f6c6c000000000000000000000000\n        /* \"#utility.yul\":23221:23222   */\n      0x00\n        /* \"#utility.yul\":23213:23219   */\n      dup3\n        /* \"#utility.yul\":23209:23223   */\n      add\n        /* \"#utility.yul\":23202:23248   */\n      mstore\n        /* \"#utility.yul\":23085:23255   */\n      pop\n      jump\t// out\n        /* \"#utility.yul\":23261:23627   */\n    tag_233:\n        /* \"#utility.yul\":23403:23406   */\n      0x00\n        /* \"#utility.yul\":23424:23491   */\n      tag_470\n        /* \"#utility.yul\":23488:23490   */\n      0x14\n        /* \"#utility.yul\":23483:23486   */\n      dup4\n        /* \"#utility.yul\":23424:23491   */\n      tag_188\n      jump\t// in\n    tag_470:\n        /* \"#utility.yul\":23417:23491   */\n      swap2\n      pop\n        /* \"#utility.yul\":23500:23593   */\n      tag_471\n        /* \"#utility.yul\":23589:23592   */\n      dup3\n        /* \"#utility.yul\":23500:23593   */\n      tag_232\n      jump\t// in\n    tag_471:\n        /* \"#utility.yul\":23618:23620   */\n      0x20\n        /* \"#utility.yul\":23613:23616   */\n      dup3\n        /* \"#utility.yul\":23609:23621   */\n      add\n        /* \"#utility.yul\":23602:23621   */\n      swap1\n      pop\n        /* \"#utility.yul\":23261:23627   */\n      swap2\n      swap1\n      pop\n      jump\t// out\n        /* \"#utility.yul\":23633:24052   */\n    tag_136:\n        /* \"#utility.yul\":23799:23803   */\n      0x00\n        /* \"#utility.yul\":23837:23839   */\n      0x20\n        /* \"#utility.yul\":23826:23835   */\n      dup3\n        /* \"#utility.yul\":23822:23840   */\n      add\n        /* \"#utility.yul\":23814:23840   */\n      swap1\n      pop\n        /* \"#utility.yul\":23886:23895   */\n      dup2\n        /* \"#utility.yul\":23880:23884   */\n      dup2\n        /* \"#utility.yul\":23876:23896   */\n      sub\n        /* \"#utility.yul\":23872:23873   */\n      0x00\n        /* \"#utility.yul\":23861:23870   */\n      dup4\n        /* \"#utility.yul\":23857:23874   */\n      add\n        /* \"#utility.yul\":23850:23897   */\n      mstore\n        /* \"#utility.yul\":23914:24045   */\n      tag_473\n        /* \"#utility.yul\":24040:24044   */\n      dup2\n        /* \"#utility.yul\":23914:24045   */\n      tag_233\n      jump\t// in\n    tag_473:\n        /* \"#utility.yul\":23906:24045   */\n      swap1\n      pop\n        /* \"#utility.yul\":23633:24052   */\n      swap2\n      swap1\n      pop\n      jump\t// out\n        /* \"#utility.yul\":24058:24238   */\n    tag_139:\n        /* \"#utility.yul\":24106:24183   */\n      0x4e487b7100000000000000000000000000000000000000000000000000000000\n        /* \"#utility.yul\":24103:24104   */\n      0x00\n        /* \"#utility.yul\":24096:24184   */\n      mstore\n        /* \"#utility.yul\":24203:24207   */\n      0x01\n        /* \"#utility.yul\":24200:24201   */\n      0x04\n        /* \"#utility.yul\":24193:24208   */\n      mstore\n        /* \"#utility.yul\":24227:24231   */\n      0x24\n        /* \"#utility.yul\":24224:24225   */\n      0x00\n        /* \"#utility.yul\":24217:24232   */\n      revert\n        /* \"#utility.yul\":24244:24477   */\n    tag_234:\n        /* \"#utility.yul\":24384:24418   */\n      0x6d6178696d756d206e6f206f662063616e646964617465207065722073657373\n        /* \"#utility.yul\":24380:24381   */\n      0x00\n        /* \"#utility.yul\":24372:24378   */\n      dup3\n        /* \"#utility.yul\":24368:24382   */\n      add\n        /* \"#utility.yul\":24361:24419   */\n      mstore\n        /* \"#utility.yul\":24453:24469   */\n      0x696f6e2072656769737465726564000000000000000000000000000000000000\n        /* \"#utility.yul\":24448:24450   */\n      0x20\n        /* \"#utility.yul\":24440:24446   */\n      dup3\n        /* \"#utility.yul\":24436:24451   */\n      add\n        /* \"#utility.yul\":24429:24470   */\n      mstore\n        /* \"#utility.yul\":24244:24477   */\n      pop\n      jump\t// out\n        /* \"#utility.yul\":24483:24849   */\n    tag_235:\n        /* \"#utility.yul\":24625:24628   */\n      0x00\n        /* \"#utility.yul\":24646:24713   */\n      tag_477\n        /* \"#utility.yul\":24710:24712   */\n      0x2e\n        /* \"#utility.yul\":24705:24708   */\n      dup4\n        /* \"#utility.yul\":24646:24713   */\n      tag_188\n      jump\t// in\n    tag_477:\n        /* \"#utility.yul\":24639:24713   */\n      swap2\n      pop\n        /* \"#utility.yul\":24722:24815   */\n      tag_478\n        /* \"#utility.yul\":24811:24814   */\n      dup3\n        /* \"#utility.yul\":24722:24815   */\n      tag_234\n      jump\t// in\n    tag_478:\n        /* \"#utility.yul\":24840:24842   */\n      0x40\n        /* \"#utility.yul\":24835:24838   */\n      dup3\n        /* \"#utility.yul\":24831:24843   */\n      add\n        /* \"#utility.yul\":24824:24843   */\n      swap1\n      pop\n        /* \"#utility.yul\":24483:24849   */\n      swap2\n      swap1\n      pop\n      jump\t// out\n        /* \"#utility.yul\":24855:25274   */\n    tag_142:\n        /* \"#utility.yul\":25021:25025   */\n      0x00\n        /* \"#utility.yul\":25059:25061   */\n      0x20\n        /* \"#utility.yul\":25048:25057   */\n      dup3\n        /* \"#utility.yul\":25044:25062   */\n      add\n        /* \"#utility.yul\":25036:25062   */\n      swap1\n      pop\n        /* \"#utility.yul\":25108:25117   */\n      dup2\n        /* \"#utility.yul\":25102:25106   */\n      dup2\n        /* \"#utility.yul\":25098:25118   */\n      sub\n        /* \"#utility.yul\":25094:25095   */\n      0x00\n        /* \"#utility.yul\":25083:25092   */\n      dup4\n        /* \"#utility.yul\":25079:25096   */\n      add\n        /* \"#utility.yul\":25072:25119   */\n      mstore\n        /* \"#utility.yul\":25136:25267   */\n      tag_480\n        /* \"#utility.yul\":25262:25266   */\n      dup2\n        /* \"#utility.yul\":25136:25267   */\n      tag_235\n      jump\t// in\n    tag_480:\n        /* \"#utility.yul\":25128:25267   */\n      swap1\n      pop\n        /* \"#utility.yul\":24855:25274   */\n      swap2\n      swap1\n      pop\n      jump\t// out\n        /* \"#utility.yul\":25280:25451   */\n    tag_145:\n        /* \"#utility.yul\":25318:25321   */\n      0x00\n        /* \"#utility.yul\":25341:25364   */\n      tag_482\n        /* \"#utility.yul\":25358:25363   */\n      dup3\n        /* \"#utility.yul\":25341:25364   */\n      tag_184\n      jump\t// in\n    tag_482:\n        /* \"#utility.yul\":25332:25364   */\n      swap2\n      pop\n        /* \"#utility.yul\":25386:25392   */\n      0xffff\n        /* \"#utility.yul\":25379:25384   */\n      dup3\n        /* \"#utility.yul\":25376:25393   */\n      eq\n        /* \"#utility.yul\":25373:25416   */\n      iszero\n      tag_483\n      jumpi\n        /* \"#utility.yul\":25396:25414   */\n      tag_484\n      tag_231\n      jump\t// in\n    tag_484:\n        /* \"#utility.yul\":25373:25416   */\n    tag_483:\n        /* \"#utility.yul\":25443:25444   */\n      0x01\n        /* \"#utility.yul\":25436:25441   */\n      dup3\n        /* \"#utility.yul\":25432:25445   */\n      add\n        /* \"#utility.yul\":25425:25445   */\n      swap1\n      pop\n        /* \"#utility.yul\":25280:25451   */\n      swap2\n      swap1\n      pop\n      jump\t// out\n        /* \"#utility.yul\":25457:25679   */\n    tag_147:\n        /* \"#utility.yul\":25550:25554   */\n      0x00\n        /* \"#utility.yul\":25588:25590   */\n      0x20\n        /* \"#utility.yul\":25577:25586   */\n      dup3\n        /* \"#utility.yul\":25573:25591   */\n      add\n        /* \"#utility.yul\":25565:25591   */\n      swap1\n      pop\n        /* \"#utility.yul\":25601:25672   */\n      tag_486\n        /* \"#utility.yul\":25669:25670   */\n      0x00\n        /* \"#utility.yul\":25658:25667   */\n      dup4\n        /* \"#utility.yul\":25654:25671   */\n      add\n        /* \"#utility.yul\":25645:25651   */\n      dup5\n        /* \"#utility.yul\":25601:25672   */\n      tag_198\n      jump\t// in\n    tag_486:\n        /* \"#utility.yul\":25457:25679   */\n      swap3\n      swap2\n      pop\n      pop\n      jump\t// out\n        /* \"#utility.yul\":25685:25851   */\n    tag_236:\n        /* \"#utility.yul\":25825:25843   */\n      0x6e6f74207468652063686169726d616e00000000000000000000000000000000\n        /* \"#utility.yul\":25821:25822   */\n      0x00\n        /* \"#utility.yul\":25813:25819   */\n      dup3\n        /* \"#utility.yul\":25809:25823   */\n      add\n        /* \"#utility.yul\":25802:25844   */\n      mstore\n        /* \"#utility.yul\":25685:25851   */\n      pop\n      jump\t// out\n        /* \"#utility.yul\":25857:26223   */\n    tag_237:\n        /* \"#utility.yul\":25999:26002   */\n      0x00\n        /* \"#utility.yul\":26020:26087   */\n      tag_489\n        /* \"#utility.yul\":26084:26086   */\n      0x10\n        /* \"#utility.yul\":26079:26082   */\n      dup4\n        /* \"#utility.yul\":26020:26087   */\n      tag_188\n      jump\t// in\n    tag_489:\n        /* \"#utility.yul\":26013:26087   */\n      swap2\n      pop\n        /* \"#utility.yul\":26096:26189   */\n      tag_490\n        /* \"#utility.yul\":26185:26188   */\n      dup3\n        /* \"#utility.yul\":26096:26189   */\n      tag_236\n      jump\t// in\n    tag_490:\n        /* \"#utility.yul\":26214:26216   */\n      0x20\n        /* \"#utility.yul\":26209:26212   */\n      dup3\n        /* \"#utility.yul\":26205:26217   */\n      add\n        /* \"#utility.yul\":26198:26217   */\n      swap1\n      pop\n        /* \"#utility.yul\":25857:26223   */\n      swap2\n      swap1\n      pop\n      jump\t// out\n        /* \"#utility.yul\":26229:26648   */\n    tag_158:\n        /* \"#utility.yul\":26395:26399   */\n      0x00\n        /* \"#utility.yul\":26433:26435   */\n      0x20\n        /* \"#utility.yul\":26422:26431   */\n      dup3\n        /* \"#utility.yul\":26418:26436   */\n      add\n        /* \"#utility.yul\":26410:26436   */\n      swap1\n      pop\n        /* \"#utility.yul\":26482:26491   */\n      dup2\n        /* \"#utility.yul\":26476:26480   */\n      dup2\n        /* \"#utility.yul\":26472:26492   */\n      sub\n        /* \"#utility.yul\":26468:26469   */\n      0x00\n        /* \"#utility.yul\":26457:26466   */\n      dup4\n        /* \"#utility.yul\":26453:26470   */\n      add\n        /* \"#utility.yul\":26446:26493   */\n      mstore\n        /* \"#utility.yul\":26510:26641   */\n      tag_492\n        /* \"#utility.yul\":26636:26640   */\n      dup2\n        /* \"#utility.yul\":26510:26641   */\n      tag_237\n      jump\t// in\n    tag_492:\n        /* \"#utility.yul\":26502:26641   */\n      swap1\n      pop\n        /* \"#utility.yul\":26229:26648   */\n      swap2\n      swap1\n      pop\n      jump\t// out\n\n    auxdata: 0xa2646970667358221220511a45d8ed3ef7a44d080840b177376af4e59c76bf81d0c4629b010f43d0c3ca64736f6c634300080a0033\n}\n",
				"bytecode": {
					"linkReferences": {},
					"object": "608060405234801561001057600080fd5b50611d45806100206000396000f3fe60806040526004361061009f5760003560e01c806357f539671161006457806357f53967146101b957806363ee965a146101e257806367d407df146102245780638579cacd14610261578063af7cbc0d1461029e578063f0e4de22146102db576100a6565b80620267a4146100ab57806301ff993b146100d65780630968d4b1146101135780631bf533a4146101515780634fcf1f391461017a576100a6565b366100a657005b600080fd5b3480156100b757600080fd5b506100c0610304565b6040516100cd9190610f8e565b60405180910390f35b3480156100e257600080fd5b506100fd60048036038101906100f8919061118d565b610309565b60405161010a9190611229565b60405180910390f35b34801561011f57600080fd5b5061013a6004803603810190610135919061127e565b610344565b604051610148929190611362565b60405180910390f35b34801561015d57600080fd5b5061017860048036038101906101739190611392565b6103e8565b005b34801561018657600080fd5b506101a1600480360381019061019c91906113ee565b610620565b6040516101b093929190611504565b60405180910390f35b3480156101c557600080fd5b506101e060048036038101906101db9190611392565b6108de565b005b3480156101ee57600080fd5b50610209600480360381019061020491906113ee565b610b9d565b60405161021b969594939291906115ae565b60405180910390f35b34801561023057600080fd5b5061024b6004803603810190610246919061160f565b610c62565b6040516102589190610f8e565b60405180910390f35b34801561026d57600080fd5b50610288600480360381019061028391906113ee565b610c7a565b6040516102959190610f8e565b60405180910390f35b3480156102aa57600080fd5b506102c560048036038101906102c091906113ee565b610cbc565b6040516102d291906116fa565b60405180910390f35b3480156102e757600080fd5b5061030260048036038101906102fd91906113ee565b610d70565b005b600090565b6000308585858560405160200161032495949392919061180d565b604051602081830303815290604052805190602001209050949350505050565b60606000806000856040516103599190611873565b90815260200160405180910390209050338160000160006101000a81548173ffffffffffffffffffffffffffffffffffffffff021916908373ffffffffffffffffffffffffffffffffffffffff1602179055508361ffff168160020160006101000a81548163ffffffff021916908363ffffffff16021790555084848061ffff16905092509250509250929050565b8181600080826040516103fb9190611873565b90815260200160405180910390209050600115158160030160008573ffffffffffffffffffffffffffffffffffffffff1673ffffffffffffffffffffffffffffffffffffffff16815260200190815260200160002060009054906101000a900460ff161515146104a0576040517f08c379a0000000000000000000000000000000000000000000000000000000008152600401610497906118fc565b60405180910390fd5b83600080826040516104b29190611873565b90815260200160405180910390209050600115158160020160169054906101000a900460ff1615151461051a576040517f08c379a000000000000000000000000000000000000000000000000000000000815260040161051190611968565b60405180910390fd5b6000808760405161052b9190611873565b90815260200160405180910390209050600015158160040160003373ffffffffffffffffffffffffffffffffffffffff1673ffffffffffffffffffffffffffffffffffffffff16815260200190815260200160002060009054906101000a900460ff161515146105d0576040517f08c379a00000000000000000000000000000000000000000000000000000000081526004016105c7906119d4565b60405180910390fd5b6105db888833610e55565b507ff3f16a15f074b71c5138107dfc7c63b80524d5411cb967caa97d8d9f12b2fd6b88600160405161060e9291906119f4565b60405180910390a15050505050505050565b6060600080600080856040516106369190611873565b90815260200160405180910390209050600073ffffffffffffffffffffffffffffffffffffffff168160000160009054906101000a900473ffffffffffffffffffffffffffffffffffffffff1673ffffffffffffffffffffffffffffffffffffffff1614156106da576040517f08c379a00000000000000000000000000000000000000000000000000000000081526004016106d190611a69565b60405180910390fd5b806001018054905067ffffffffffffffff8111156106fb576106fa611036565b5b6040519080825280602002602001820160405280156107295781602001602082028036833780820191505090505b50935060008060005b836001018054905081116108ca57600084600501600086600101848154811061075e5761075d611a89565b5b9060005260206000200160009054906101000a900473ffffffffffffffffffffffffffffffffffffffff1673ffffffffffffffffffffffffffffffffffffffff1673ffffffffffffffffffffffffffffffffffffffff16815260200190815260200160002054905083811115610815578093508460010182815481106107e7576107e6611a89565b5b9060005260206000200160009054906101000a900473ffffffffffffffffffffffffffffffffffffffff1692505b84600501600086600101848154811061083157610830611a89565b5b9060005260206000200160009054906101000a900473ffffffffffffffffffffffffffffffffffffffff1673ffffffffffffffffffffffffffffffffffffffff1673ffffffffffffffffffffffffffffffffffffffff168152602001908152602001600020548883815181106108aa576108a9611a89565b5b6020026020010181815250505080806108c290611ae7565b915050610732565b508581839550955095505050509193909250565b600080826040516108ef9190611873565b90815260200160405180910390209050600073ffffffffffffffffffffffffffffffffffffffff168160000160009054906101000a900473ffffffffffffffffffffffffffffffffffffffff1673ffffffffffffffffffffffffffffffffffffffff161415610993576040517f08c379a000000000000000000000000000000000000000000000000000000000815260040161098a90611b7c565b60405180910390fd5b3373ffffffffffffffffffffffffffffffffffffffff168160000160009054906101000a900473ffffffffffffffffffffffffffffffffffffffff1673ffffffffffffffffffffffffffffffffffffffff16146109f3576109f2611b9c565b5b8060020160009054906101000a900463ffffffff1663ffffffff168160020160149054906101000a900461ffff1661ffff1610610a65576040517f08c379a0000000000000000000000000000000000000000000000000000000008152600401610a5c90611c3d565b60405180910390fd5b60018160030160008573ffffffffffffffffffffffffffffffffffffffff1673ffffffffffffffffffffffffffffffffffffffff16815260200190815260200160002060006101000a81548160ff02191690831515021790555080600101839080600181540180825580915050600190039060005260206000200160009091909190916101000a81548173ffffffffffffffffffffffffffffffffffffffff021916908373ffffffffffffffffffffffffffffffffffffffff16021790555080600201601481819054906101000a900461ffff1680929190610b4690611c5d565b91906101000a81548161ffff021916908361ffff160217905550507fc19c59aa93348e8fc54764bc642eca975e2639f44cc683ef8f027e1529cbda3283604051610b909190611c88565b60405180910390a1505050565b6000818051602081018201805184825260208301602085012081835280955050505050506000915090508060000160009054906101000a900473ffffffffffffffffffffffffffffffffffffffff16908060020160009054906101000a900463ffffffff16908060020160049054906101000a900467ffffffffffffffff169080600201600c9054906101000a900467ffffffffffffffff16908060020160149054906101000a900461ffff16908060020160169054906101000a900460ff16905086565b60016020528060005260406000206000915090505481565b600080600083604051610c8d9190611873565b908152602001604051809103902090508060020160149054906101000a900461ffff1661ffff16915050919050565b606060008083604051610ccf9190611873565b9081526020016040518091039020905080600101805480602002602001604051908101604052809291908181526020018280548015610d6357602002820191906000526020600020905b8160009054906101000a900473ffffffffffffffffffffffffffffffffffffffff1673ffffffffffffffffffffffffffffffffffffffff1681526020019060010190808311610d19575b5050505050915050919050565b60008082604051610d819190611873565b908152602001604051809103902090503373ffffffffffffffffffffffffffffffffffffffff168160000160009054906101000a900473ffffffffffffffffffffffffffffffffffffffff1673ffffffffffffffffffffffffffffffffffffffff1614610e23576040517f08c379a0000000000000000000000000000000000000000000000000000000008152600401610e1a90611cef565b60405180910390fd5b8060020160169054906101000a900460ff16158160020160166101000a81548160ff0219169083151502179055505050565b600080600084604051610e689190611873565b9081526020016040518091039020905060018160040160008573ffffffffffffffffffffffffffffffffffffffff1673ffffffffffffffffffffffffffffffffffffffff16815260200190815260200160002060006101000a81548160ff0219169083151502179055508060050160008673ffffffffffffffffffffffffffffffffffffffff1673ffffffffffffffffffffffffffffffffffffffff1681526020019081526020016000206000815480929190610f2490611ae7565b91905055508060050160008673ffffffffffffffffffffffffffffffffffffffff1673ffffffffffffffffffffffffffffffffffffffff168152602001908152602001600020549150509392505050565b6000819050919050565b610f8881610f75565b82525050565b6000602082019050610fa36000830184610f7f565b92915050565b6000604051905090565b600080fd5b600080fd5b600073ffffffffffffffffffffffffffffffffffffffff82169050919050565b6000610fe882610fbd565b9050919050565b610ff881610fdd565b811461100357600080fd5b50565b60008135905061101581610fef565b92915050565b600080fd5b600080fd5b6000601f19601f8301169050919050565b7f4e487b7100000000000000000000000000000000000000000000000000000000600052604160045260246000fd5b61106e82611025565b810181811067ffffffffffffffff8211171561108d5761108c611036565b5b80604052505050565b60006110a0610fa9565b90506110ac8282611065565b919050565b600067ffffffffffffffff8211156110cc576110cb611036565b5b6110d582611025565b9050602081019050919050565b82818337600083830152505050565b60006111046110ff846110b1565b611096565b9050828152602081018484840111156111205761111f611020565b5b61112b8482856110e2565b509392505050565b600082601f8301126111485761114761101b565b5b81356111588482602086016110f1565b91505092915050565b61116a81610f75565b811461117557600080fd5b50565b60008135905061118781611161565b92915050565b600080600080608085870312156111a7576111a6610fb3565b5b60006111b587828801611006565b945050602085013567ffffffffffffffff8111156111d6576111d5610fb8565b5b6111e287828801611133565b93505060406111f387828801611178565b925050606061120487828801611178565b91505092959194509250565b6000819050919050565b61122381611210565b82525050565b600060208201905061123e600083018461121a565b92915050565b600061ffff82169050919050565b61125b81611244565b811461126657600080fd5b50565b60008135905061127881611252565b92915050565b6000806040838503121561129557611294610fb3565b5b600083013567ffffffffffffffff8111156112b3576112b2610fb8565b5b6112bf85828601611133565b92505060206112d085828601611269565b9150509250929050565b600081519050919050565b600082825260208201905092915050565b60005b838110156113145780820151818401526020810190506112f9565b83811115611323576000848401525b50505050565b6000611334826112da565b61133e81856112e5565b935061134e8185602086016112f6565b61135781611025565b840191505092915050565b6000604082019050818103600083015261137c8185611329565b905061138b6020830184610f7f565b9392505050565b600080604083850312156113a9576113a8610fb3565b5b60006113b785828601611006565b925050602083013567ffffffffffffffff8111156113d8576113d7610fb8565b5b6113e485828601611133565b9150509250929050565b60006020828403121561140457611403610fb3565b5b600082013567ffffffffffffffff81111561142257611421610fb8565b5b61142e84828501611133565b91505092915050565b600081519050919050565b600082825260208201905092915050565b6000819050602082019050919050565b61146c81610f75565b82525050565b600061147e8383611463565b60208301905092915050565b6000602082019050919050565b60006114a282611437565b6114ac8185611442565b93506114b783611453565b8060005b838110156114e85781516114cf8882611472565b97506114da8361148a565b9250506001810190506114bb565b5085935050505092915050565b6114fe81610fdd565b82525050565b6000606082019050818103600083015261151e8186611497565b905061152d60208301856114f5565b61153a6040830184610f7f565b949350505050565b600063ffffffff82169050919050565b61155b81611542565b82525050565b600067ffffffffffffffff82169050919050565b61157e81611561565b82525050565b61158d81611244565b82525050565b60008115159050919050565b6115a881611593565b82525050565b600060c0820190506115c360008301896114f5565b6115d06020830188611552565b6115dd6040830187611575565b6115ea6060830186611575565b6115f76080830185611584565b61160460a083018461159f565b979650505050505050565b60006020828403121561162557611624610fb3565b5b600061163384828501611006565b91505092915050565b600081519050919050565b600082825260208201905092915050565b6000819050602082019050919050565b61167181610fdd565b82525050565b60006116838383611668565b60208301905092915050565b6000602082019050919050565b60006116a78261163c565b6116b18185611647565b93506116bc83611658565b8060005b838110156116ed5781516116d48882611677565b97506116df8361168f565b9250506001810190506116c0565b5085935050505092915050565b60006020820190508181036000830152611714818461169c565b905092915050565b60008160601b9050919050565b60006117348261171c565b9050919050565b600061174682611729565b9050919050565b61175e61175982610fdd565b61173b565b82525050565b600081905092915050565b7f6d6574617472616e73616374696f6e20566f74696e6720000000000000000000600082015250565b60006117a5601783611764565b91506117b08261176f565b601782019050919050565b60006117c6826112da565b6117d08185611764565b93506117e08185602086016112f6565b80840191505092915050565b6000819050919050565b61180761180282610f75565b6117ec565b82525050565b6000611819828861174d565b60148201915061182882611798565b9150611834828761174d565b60148201915061184482866117bb565b915061185082856117f6565b60208201915061186082846117f6565b6020820191508190509695505050505050565b600061187f82846117bb565b915081905092915050565b7f54686973206164647265737320646f6573206e6f74206578697374206173206160008201527f2063616e64696461746500000000000000000000000000000000000000000000602082015250565b60006118e6602a836112e5565b91506118f18261188a565b604082019050919050565b60006020820190508181036000830152611915816118d9565b9050919050565b7f766f74696e672068617320656e64656400000000000000000000000000000000600082015250565b60006119526010836112e5565b915061195d8261191c565b602082019050919050565b6000602082019050818103600083015261198181611945565b9050919050565b7f596f7520616c726561647920766f746564000000000000000000000000000000600082015250565b60006119be6011836112e5565b91506119c982611988565b602082019050919050565b600060208201905081810360008301526119ed816119b1565b9050919050565b6000604082019050611a0960008301856114f5565b611a16602083018461159f565b9392505050565b7f4e6f20706f6c6c20637265617465640000000000000000000000000000000000600082015250565b6000611a53600f836112e5565b9150611a5e82611a1d565b602082019050919050565b60006020820190508181036000830152611a8281611a46565b9050919050565b7f4e487b7100000000000000000000000000000000000000000000000000000000600052603260045260246000fd5b7f4e487b7100000000000000000000000000000000000000000000000000000000600052601160045260246000fd5b6000611af282610f75565b91507fffffffffffffffffffffffffffffffffffffffffffffffffffffffffffffffff821415611b2557611b24611ab8565b5b600182019050919050565b7f79657420746f20637265617465206120706f6c6c000000000000000000000000600082015250565b6000611b666014836112e5565b9150611b7182611b30565b602082019050919050565b60006020820190508181036000830152611b9581611b59565b9050919050565b7f4e487b7100000000000000000000000000000000000000000000000000000000600052600160045260246000fd5b7f6d6178696d756d206e6f206f662063616e64696461746520706572207365737360008201527f696f6e2072656769737465726564000000000000000000000000000000000000602082015250565b6000611c27602e836112e5565b9150611c3282611bcb565b604082019050919050565b60006020820190508181036000830152611c5681611c1a565b9050919050565b6000611c6882611244565b915061ffff821415611c7d57611c7c611ab8565b5b600182019050919050565b6000602082019050611c9d60008301846114f5565b92915050565b7f6e6f74207468652063686169726d616e00000000000000000000000000000000600082015250565b6000611cd96010836112e5565b9150611ce482611ca3565b602082019050919050565b60006020820190508181036000830152611d0881611ccc565b905091905056fea2646970667358221220511a45d8ed3ef7a44d080840b177376af4e59c76bf81d0c4629b010f43d0c3ca64736f6c634300080a0033",
					"opcodes": "PUSH1 0x80 PUSH1 0x40 MSTORE CALLVALUE DUP1 ISZERO PUSH2 0x10 JUMPI PUSH1 0x0 DUP1 REVERT JUMPDEST POP PUSH2 0x1D45 DUP1 PUSH2 0x20 PUSH1 0x0 CODECOPY PUSH1 0x0 RETURN INVALID PUSH1 0x80 PUSH1 0x40 MSTORE PUSH1 0x4 CALLDATASIZE LT PUSH2 0x9F JUMPI PUSH1 0x0 CALLDATALOAD PUSH1 0xE0 SHR DUP1 PUSH4 0x57F53967 GT PUSH2 0x64 JUMPI DUP1 PUSH4 0x57F53967 EQ PUSH2 0x1B9 JUMPI DUP1 PUSH4 0x63EE965A EQ PUSH2 0x1E2 JUMPI DUP1 PUSH4 0x67D407DF EQ PUSH2 0x224 JUMPI DUP1 PUSH4 0x8579CACD EQ PUSH2 0x261 JUMPI DUP1 PUSH4 0xAF7CBC0D EQ PUSH2 0x29E JUMPI DUP1 PUSH4 0xF0E4DE22 EQ PUSH2 0x2DB JUMPI PUSH2 0xA6 JUMP JUMPDEST DUP1 PUSH3 0x267A4 EQ PUSH2 0xAB JUMPI DUP1 PUSH4 0x1FF993B EQ PUSH2 0xD6 JUMPI DUP1 PUSH4 0x968D4B1 EQ PUSH2 0x113 JUMPI DUP1 PUSH4 0x1BF533A4 EQ PUSH2 0x151 JUMPI DUP1 PUSH4 0x4FCF1F39 EQ PUSH2 0x17A JUMPI PUSH2 0xA6 JUMP JUMPDEST CALLDATASIZE PUSH2 0xA6 JUMPI STOP JUMPDEST PUSH1 0x0 DUP1 REVERT JUMPDEST CALLVALUE DUP1 ISZERO PUSH2 0xB7 JUMPI PUSH1 0x0 DUP1 REVERT JUMPDEST POP PUSH2 0xC0 PUSH2 0x304 JUMP JUMPDEST PUSH1 0x40 MLOAD PUSH2 0xCD SWAP2 SWAP1 PUSH2 0xF8E JUMP JUMPDEST PUSH1 0x40 MLOAD DUP1 SWAP2 SUB SWAP1 RETURN JUMPDEST CALLVALUE DUP1 ISZERO PUSH2 0xE2 JUMPI PUSH1 0x0 DUP1 REVERT JUMPDEST POP PUSH2 0xFD PUSH1 0x4 DUP1 CALLDATASIZE SUB DUP2 ADD SWAP1 PUSH2 0xF8 SWAP2 SWAP1 PUSH2 0x118D JUMP JUMPDEST PUSH2 0x309 JUMP JUMPDEST PUSH1 0x40 MLOAD PUSH2 0x10A SWAP2 SWAP1 PUSH2 0x1229 JUMP JUMPDEST PUSH1 0x40 MLOAD DUP1 SWAP2 SUB SWAP1 RETURN JUMPDEST CALLVALUE DUP1 ISZERO PUSH2 0x11F JUMPI PUSH1 0x0 DUP1 REVERT JUMPDEST POP PUSH2 0x13A PUSH1 0x4 DUP1 CALLDATASIZE SUB DUP2 ADD SWAP1 PUSH2 0x135 SWAP2 SWAP1 PUSH2 0x127E JUMP JUMPDEST PUSH2 0x344 JUMP JUMPDEST PUSH1 0x40 MLOAD PUSH2 0x148 SWAP3 SWAP2 SWAP1 PUSH2 0x1362 JUMP JUMPDEST PUSH1 0x40 MLOAD DUP1 SWAP2 SUB SWAP1 RETURN JUMPDEST CALLVALUE DUP1 ISZERO PUSH2 0x15D JUMPI PUSH1 0x0 DUP1 REVERT JUMPDEST POP PUSH2 0x178 PUSH1 0x4 DUP1 CALLDATASIZE SUB DUP2 ADD SWAP1 PUSH2 0x173 SWAP2 SWAP1 PUSH2 0x1392 JUMP JUMPDEST PUSH2 0x3E8 JUMP JUMPDEST STOP JUMPDEST CALLVALUE DUP1 ISZERO PUSH2 0x186 JUMPI PUSH1 0x0 DUP1 REVERT JUMPDEST POP PUSH2 0x1A1 PUSH1 0x4 DUP1 CALLDATASIZE SUB DUP2 ADD SWAP1 PUSH2 0x19C SWAP2 SWAP1 PUSH2 0x13EE JUMP JUMPDEST PUSH2 0x620 JUMP JUMPDEST PUSH1 0x40 MLOAD PUSH2 0x1B0 SWAP4 SWAP3 SWAP2 SWAP1 PUSH2 0x1504 JUMP JUMPDEST PUSH1 0x40 MLOAD DUP1 SWAP2 SUB SWAP1 RETURN JUMPDEST CALLVALUE DUP1 ISZERO PUSH2 0x1C5 JUMPI PUSH1 0x0 DUP1 REVERT JUMPDEST POP PUSH2 0x1E0 PUSH1 0x4 DUP1 CALLDATASIZE SUB DUP2 ADD SWAP1 PUSH2 0x1DB SWAP2 SWAP1 PUSH2 0x1392 JUMP JUMPDEST PUSH2 0x8DE JUMP JUMPDEST STOP JUMPDEST CALLVALUE DUP1 ISZERO PUSH2 0x1EE JUMPI PUSH1 0x0 DUP1 REVERT JUMPDEST POP PUSH2 0x209 PUSH1 0x4 DUP1 CALLDATASIZE SUB DUP2 ADD SWAP1 PUSH2 0x204 SWAP2 SWAP1 PUSH2 0x13EE JUMP JUMPDEST PUSH2 0xB9D JUMP JUMPDEST PUSH1 0x40 MLOAD PUSH2 0x21B SWAP7 SWAP6 SWAP5 SWAP4 SWAP3 SWAP2 SWAP1 PUSH2 0x15AE JUMP JUMPDEST PUSH1 0x40 MLOAD DUP1 SWAP2 SUB SWAP1 RETURN JUMPDEST CALLVALUE DUP1 ISZERO PUSH2 0x230 JUMPI PUSH1 0x0 DUP1 REVERT JUMPDEST POP PUSH2 0x24B PUSH1 0x4 DUP1 CALLDATASIZE SUB DUP2 ADD SWAP1 PUSH2 0x246 SWAP2 SWAP1 PUSH2 0x160F JUMP JUMPDEST PUSH2 0xC62 JUMP JUMPDEST PUSH1 0x40 MLOAD PUSH2 0x258 SWAP2 SWAP1 PUSH2 0xF8E JUMP JUMPDEST PUSH1 0x40 MLOAD DUP1 SWAP2 SUB SWAP1 RETURN JUMPDEST CALLVALUE DUP1 ISZERO PUSH2 0x26D JUMPI PUSH1 0x0 DUP1 REVERT JUMPDEST POP PUSH2 0x288 PUSH1 0x4 DUP1 CALLDATASIZE SUB DUP2 ADD SWAP1 PUSH2 0x283 SWAP2 SWAP1 PUSH2 0x13EE JUMP JUMPDEST PUSH2 0xC7A JUMP JUMPDEST PUSH1 0x40 MLOAD PUSH2 0x295 SWAP2 SWAP1 PUSH2 0xF8E JUMP JUMPDEST PUSH1 0x40 MLOAD DUP1 SWAP2 SUB SWAP1 RETURN JUMPDEST CALLVALUE DUP1 ISZERO PUSH2 0x2AA JUMPI PUSH1 0x0 DUP1 REVERT JUMPDEST POP PUSH2 0x2C5 PUSH1 0x4 DUP1 CALLDATASIZE SUB DUP2 ADD SWAP1 PUSH2 0x2C0 SWAP2 SWAP1 PUSH2 0x13EE JUMP JUMPDEST PUSH2 0xCBC JUMP JUMPDEST PUSH1 0x40 MLOAD PUSH2 0x2D2 SWAP2 SWAP1 PUSH2 0x16FA JUMP JUMPDEST PUSH1 0x40 MLOAD DUP1 SWAP2 SUB SWAP1 RETURN JUMPDEST CALLVALUE DUP1 ISZERO PUSH2 0x2E7 JUMPI PUSH1 0x0 DUP1 REVERT JUMPDEST POP PUSH2 0x302 PUSH1 0x4 DUP1 CALLDATASIZE SUB DUP2 ADD SWAP1 PUSH2 0x2FD SWAP2 SWAP1 PUSH2 0x13EE JUMP JUMPDEST PUSH2 0xD70 JUMP JUMPDEST STOP JUMPDEST PUSH1 0x0 SWAP1 JUMP JUMPDEST PUSH1 0x0 ADDRESS DUP6 DUP6 DUP6 DUP6 PUSH1 0x40 MLOAD PUSH1 0x20 ADD PUSH2 0x324 SWAP6 SWAP5 SWAP4 SWAP3 SWAP2 SWAP1 PUSH2 0x180D JUMP JUMPDEST PUSH1 0x40 MLOAD PUSH1 0x20 DUP2 DUP4 SUB SUB DUP2 MSTORE SWAP1 PUSH1 0x40 MSTORE DUP1 MLOAD SWAP1 PUSH1 0x20 ADD KECCAK256 SWAP1 POP SWAP5 SWAP4 POP POP POP POP JUMP JUMPDEST PUSH1 0x60 PUSH1 0x0 DUP1 PUSH1 0x0 DUP6 PUSH1 0x40 MLOAD PUSH2 0x359 SWAP2 SWAP1 PUSH2 0x1873 JUMP JUMPDEST SWAP1 DUP2 MSTORE PUSH1 0x20 ADD PUSH1 0x40 MLOAD DUP1 SWAP2 SUB SWAP1 KECCAK256 SWAP1 POP CALLER DUP2 PUSH1 0x0 ADD PUSH1 0x0 PUSH2 0x100 EXP DUP2 SLOAD DUP2 PUSH20 0xFFFFFFFFFFFFFFFFFFFFFFFFFFFFFFFFFFFFFFFF MUL NOT AND SWAP1 DUP4 PUSH20 0xFFFFFFFFFFFFFFFFFFFFFFFFFFFFFFFFFFFFFFFF AND MUL OR SWAP1 SSTORE POP DUP4 PUSH2 0xFFFF AND DUP2 PUSH1 0x2 ADD PUSH1 0x0 PUSH2 0x100 EXP DUP2 SLOAD DUP2 PUSH4 0xFFFFFFFF MUL NOT AND SWAP1 DUP4 PUSH4 0xFFFFFFFF AND MUL OR SWAP1 SSTORE POP DUP5 DUP5 DUP1 PUSH2 0xFFFF AND SWAP1 POP SWAP3 POP SWAP3 POP POP SWAP3 POP SWAP3 SWAP1 POP JUMP JUMPDEST DUP2 DUP2 PUSH1 0x0 DUP1 DUP3 PUSH1 0x40 MLOAD PUSH2 0x3FB SWAP2 SWAP1 PUSH2 0x1873 JUMP JUMPDEST SWAP1 DUP2 MSTORE PUSH1 0x20 ADD PUSH1 0x40 MLOAD DUP1 SWAP2 SUB SWAP1 KECCAK256 SWAP1 POP PUSH1 0x1 ISZERO ISZERO DUP2 PUSH1 0x3 ADD PUSH1 0x0 DUP6 PUSH20 0xFFFFFFFFFFFFFFFFFFFFFFFFFFFFFFFFFFFFFFFF AND PUSH20 0xFFFFFFFFFFFFFFFFFFFFFFFFFFFFFFFFFFFFFFFF AND DUP2 MSTORE PUSH1 0x20 ADD SWAP1 DUP2 MSTORE PUSH1 0x20 ADD PUSH1 0x0 KECCAK256 PUSH1 0x0 SWAP1 SLOAD SWAP1 PUSH2 0x100 EXP SWAP1 DIV PUSH1 0xFF AND ISZERO ISZERO EQ PUSH2 0x4A0 JUMPI PUSH1 0x40 MLOAD PUSH32 0x8C379A000000000000000000000000000000000000000000000000000000000 DUP2 MSTORE PUSH1 0x4 ADD PUSH2 0x497 SWAP1 PUSH2 0x18FC JUMP JUMPDEST PUSH1 0x40 MLOAD DUP1 SWAP2 SUB SWAP1 REVERT JUMPDEST DUP4 PUSH1 0x0 DUP1 DUP3 PUSH1 0x40 MLOAD PUSH2 0x4B2 SWAP2 SWAP1 PUSH2 0x1873 JUMP JUMPDEST SWAP1 DUP2 MSTORE PUSH1 0x20 ADD PUSH1 0x40 MLOAD DUP1 SWAP2 SUB SWAP1 KECCAK256 SWAP1 POP PUSH1 0x1 ISZERO ISZERO DUP2 PUSH1 0x2 ADD PUSH1 0x16 SWAP1 SLOAD SWAP1 PUSH2 0x100 EXP SWAP1 DIV PUSH1 0xFF AND ISZERO ISZERO EQ PUSH2 0x51A JUMPI PUSH1 0x40 MLOAD PUSH32 0x8C379A000000000000000000000000000000000000000000000000000000000 DUP2 MSTORE PUSH1 0x4 ADD PUSH2 0x511 SWAP1 PUSH2 0x1968 JUMP JUMPDEST PUSH1 0x40 MLOAD DUP1 SWAP2 SUB SWAP1 REVERT JUMPDEST PUSH1 0x0 DUP1 DUP8 PUSH1 0x40 MLOAD PUSH2 0x52B SWAP2 SWAP1 PUSH2 0x1873 JUMP JUMPDEST SWAP1 DUP2 MSTORE PUSH1 0x20 ADD PUSH1 0x40 MLOAD DUP1 SWAP2 SUB SWAP1 KECCAK256 SWAP1 POP PUSH1 0x0 ISZERO ISZERO DUP2 PUSH1 0x4 ADD PUSH1 0x0 CALLER PUSH20 0xFFFFFFFFFFFFFFFFFFFFFFFFFFFFFFFFFFFFFFFF AND PUSH20 0xFFFFFFFFFFFFFFFFFFFFFFFFFFFFFFFFFFFFFFFF AND DUP2 MSTORE PUSH1 0x20 ADD SWAP1 DUP2 MSTORE PUSH1 0x20 ADD PUSH1 0x0 KECCAK256 PUSH1 0x0 SWAP1 SLOAD SWAP1 PUSH2 0x100 EXP SWAP1 DIV PUSH1 0xFF AND ISZERO ISZERO EQ PUSH2 0x5D0 JUMPI PUSH1 0x40 MLOAD PUSH32 0x8C379A000000000000000000000000000000000000000000000000000000000 DUP2 MSTORE PUSH1 0x4 ADD PUSH2 0x5C7 SWAP1 PUSH2 0x19D4 JUMP JUMPDEST PUSH1 0x40 MLOAD DUP1 SWAP2 SUB SWAP1 REVERT JUMPDEST PUSH2 0x5DB DUP9 DUP9 CALLER PUSH2 0xE55 JUMP JUMPDEST POP PUSH32 0xF3F16A15F074B71C5138107DFC7C63B80524D5411CB967CAA97D8D9F12B2FD6B DUP9 PUSH1 0x1 PUSH1 0x40 MLOAD PUSH2 0x60E SWAP3 SWAP2 SWAP1 PUSH2 0x19F4 JUMP JUMPDEST PUSH1 0x40 MLOAD DUP1 SWAP2 SUB SWAP1 LOG1 POP POP POP POP POP POP POP POP JUMP JUMPDEST PUSH1 0x60 PUSH1 0x0 DUP1 PUSH1 0x0 DUP1 DUP6 PUSH1 0x40 MLOAD PUSH2 0x636 SWAP2 SWAP1 PUSH2 0x1873 JUMP JUMPDEST SWAP1 DUP2 MSTORE PUSH1 0x20 ADD PUSH1 0x40 MLOAD DUP1 SWAP2 SUB SWAP1 KECCAK256 SWAP1 POP PUSH1 0x0 PUSH20 0xFFFFFFFFFFFFFFFFFFFFFFFFFFFFFFFFFFFFFFFF AND DUP2 PUSH1 0x0 ADD PUSH1 0x0 SWAP1 SLOAD SWAP1 PUSH2 0x100 EXP SWAP1 DIV PUSH20 0xFFFFFFFFFFFFFFFFFFFFFFFFFFFFFFFFFFFFFFFF AND PUSH20 0xFFFFFFFFFFFFFFFFFFFFFFFFFFFFFFFFFFFFFFFF AND EQ ISZERO PUSH2 0x6DA JUMPI PUSH1 0x40 MLOAD PUSH32 0x8C379A000000000000000000000000000000000000000000000000000000000 DUP2 MSTORE PUSH1 0x4 ADD PUSH2 0x6D1 SWAP1 PUSH2 0x1A69 JUMP JUMPDEST PUSH1 0x40 MLOAD DUP1 SWAP2 SUB SWAP1 REVERT JUMPDEST DUP1 PUSH1 0x1 ADD DUP1 SLOAD SWAP1 POP PUSH8 0xFFFFFFFFFFFFFFFF DUP2 GT ISZERO PUSH2 0x6FB JUMPI PUSH2 0x6FA PUSH2 0x1036 JUMP JUMPDEST JUMPDEST PUSH1 0x40 MLOAD SWAP1 DUP1 DUP3 MSTORE DUP1 PUSH1 0x20 MUL PUSH1 0x20 ADD DUP3 ADD PUSH1 0x40 MSTORE DUP1 ISZERO PUSH2 0x729 JUMPI DUP2 PUSH1 0x20 ADD PUSH1 0x20 DUP3 MUL DUP1 CALLDATASIZE DUP4 CALLDATACOPY DUP1 DUP3 ADD SWAP2 POP POP SWAP1 POP JUMPDEST POP SWAP4 POP PUSH1 0x0 DUP1 PUSH1 0x0 JUMPDEST DUP4 PUSH1 0x1 ADD DUP1 SLOAD SWAP1 POP DUP2 GT PUSH2 0x8CA JUMPI PUSH1 0x0 DUP5 PUSH1 0x5 ADD PUSH1 0x0 DUP7 PUSH1 0x1 ADD DUP5 DUP2 SLOAD DUP2 LT PUSH2 0x75E JUMPI PUSH2 0x75D PUSH2 0x1A89 JUMP JUMPDEST JUMPDEST SWAP1 PUSH1 0x0 MSTORE PUSH1 0x20 PUSH1 0x0 KECCAK256 ADD PUSH1 0x0 SWAP1 SLOAD SWAP1 PUSH2 0x100 EXP SWAP1 DIV PUSH20 0xFFFFFFFFFFFFFFFFFFFFFFFFFFFFFFFFFFFFFFFF AND PUSH20 0xFFFFFFFFFFFFFFFFFFFFFFFFFFFFFFFFFFFFFFFF AND PUSH20 0xFFFFFFFFFFFFFFFFFFFFFFFFFFFFFFFFFFFFFFFF AND DUP2 MSTORE PUSH1 0x20 ADD SWAP1 DUP2 MSTORE PUSH1 0x20 ADD PUSH1 0x0 KECCAK256 SLOAD SWAP1 POP DUP4 DUP2 GT ISZERO PUSH2 0x815 JUMPI DUP1 SWAP4 POP DUP5 PUSH1 0x1 ADD DUP3 DUP2 SLOAD DUP2 LT PUSH2 0x7E7 JUMPI PUSH2 0x7E6 PUSH2 0x1A89 JUMP JUMPDEST JUMPDEST SWAP1 PUSH1 0x0 MSTORE PUSH1 0x20 PUSH1 0x0 KECCAK256 ADD PUSH1 0x0 SWAP1 SLOAD SWAP1 PUSH2 0x100 EXP SWAP1 DIV PUSH20 0xFFFFFFFFFFFFFFFFFFFFFFFFFFFFFFFFFFFFFFFF AND SWAP3 POP JUMPDEST DUP5 PUSH1 0x5 ADD PUSH1 0x0 DUP7 PUSH1 0x1 ADD DUP5 DUP2 SLOAD DUP2 LT PUSH2 0x831 JUMPI PUSH2 0x830 PUSH2 0x1A89 JUMP JUMPDEST JUMPDEST SWAP1 PUSH1 0x0 MSTORE PUSH1 0x20 PUSH1 0x0 KECCAK256 ADD PUSH1 0x0 SWAP1 SLOAD SWAP1 PUSH2 0x100 EXP SWAP1 DIV PUSH20 0xFFFFFFFFFFFFFFFFFFFFFFFFFFFFFFFFFFFFFFFF AND PUSH20 0xFFFFFFFFFFFFFFFFFFFFFFFFFFFFFFFFFFFFFFFF AND PUSH20 0xFFFFFFFFFFFFFFFFFFFFFFFFFFFFFFFFFFFFFFFF AND DUP2 MSTORE PUSH1 0x20 ADD SWAP1 DUP2 MSTORE PUSH1 0x20 ADD PUSH1 0x0 KECCAK256 SLOAD DUP9 DUP4 DUP2 MLOAD DUP2 LT PUSH2 0x8AA JUMPI PUSH2 0x8A9 PUSH2 0x1A89 JUMP JUMPDEST JUMPDEST PUSH1 0x20 MUL PUSH1 0x20 ADD ADD DUP2 DUP2 MSTORE POP POP POP DUP1 DUP1 PUSH2 0x8C2 SWAP1 PUSH2 0x1AE7 JUMP JUMPDEST SWAP2 POP POP PUSH2 0x732 JUMP JUMPDEST POP DUP6 DUP2 DUP4 SWAP6 POP SWAP6 POP SWAP6 POP POP POP POP SWAP2 SWAP4 SWAP1 SWAP3 POP JUMP JUMPDEST PUSH1 0x0 DUP1 DUP3 PUSH1 0x40 MLOAD PUSH2 0x8EF SWAP2 SWAP1 PUSH2 0x1873 JUMP JUMPDEST SWAP1 DUP2 MSTORE PUSH1 0x20 ADD PUSH1 0x40 MLOAD DUP1 SWAP2 SUB SWAP1 KECCAK256 SWAP1 POP PUSH1 0x0 PUSH20 0xFFFFFFFFFFFFFFFFFFFFFFFFFFFFFFFFFFFFFFFF AND DUP2 PUSH1 0x0 ADD PUSH1 0x0 SWAP1 SLOAD SWAP1 PUSH2 0x100 EXP SWAP1 DIV PUSH20 0xFFFFFFFFFFFFFFFFFFFFFFFFFFFFFFFFFFFFFFFF AND PUSH20 0xFFFFFFFFFFFFFFFFFFFFFFFFFFFFFFFFFFFFFFFF AND EQ ISZERO PUSH2 0x993 JUMPI PUSH1 0x40 MLOAD PUSH32 0x8C379A000000000000000000000000000000000000000000000000000000000 DUP2 MSTORE PUSH1 0x4 ADD PUSH2 0x98A SWAP1 PUSH2 0x1B7C JUMP JUMPDEST PUSH1 0x40 MLOAD DUP1 SWAP2 SUB SWAP1 REVERT JUMPDEST CALLER PUSH20 0xFFFFFFFFFFFFFFFFFFFFFFFFFFFFFFFFFFFFFFFF AND DUP2 PUSH1 0x0 ADD PUSH1 0x0 SWAP1 SLOAD SWAP1 PUSH2 0x100 EXP SWAP1 DIV PUSH20 0xFFFFFFFFFFFFFFFFFFFFFFFFFFFFFFFFFFFFFFFF AND PUSH20 0xFFFFFFFFFFFFFFFFFFFFFFFFFFFFFFFFFFFFFFFF AND EQ PUSH2 0x9F3 JUMPI PUSH2 0x9F2 PUSH2 0x1B9C JUMP JUMPDEST JUMPDEST DUP1 PUSH1 0x2 ADD PUSH1 0x0 SWAP1 SLOAD SWAP1 PUSH2 0x100 EXP SWAP1 DIV PUSH4 0xFFFFFFFF AND PUSH4 0xFFFFFFFF AND DUP2 PUSH1 0x2 ADD PUSH1 0x14 SWAP1 SLOAD SWAP1 PUSH2 0x100 EXP SWAP1 DIV PUSH2 0xFFFF AND PUSH2 0xFFFF AND LT PUSH2 0xA65 JUMPI PUSH1 0x40 MLOAD PUSH32 0x8C379A000000000000000000000000000000000000000000000000000000000 DUP2 MSTORE PUSH1 0x4 ADD PUSH2 0xA5C SWAP1 PUSH2 0x1C3D JUMP JUMPDEST PUSH1 0x40 MLOAD DUP1 SWAP2 SUB SWAP1 REVERT JUMPDEST PUSH1 0x1 DUP2 PUSH1 0x3 ADD PUSH1 0x0 DUP6 PUSH20 0xFFFFFFFFFFFFFFFFFFFFFFFFFFFFFFFFFFFFFFFF AND PUSH20 0xFFFFFFFFFFFFFFFFFFFFFFFFFFFFFFFFFFFFFFFF AND DUP2 MSTORE PUSH1 0x20 ADD SWAP1 DUP2 MSTORE PUSH1 0x20 ADD PUSH1 0x0 KECCAK256 PUSH1 0x0 PUSH2 0x100 EXP DUP2 SLOAD DUP2 PUSH1 0xFF MUL NOT AND SWAP1 DUP4 ISZERO ISZERO MUL OR SWAP1 SSTORE POP DUP1 PUSH1 0x1 ADD DUP4 SWAP1 DUP1 PUSH1 0x1 DUP2 SLOAD ADD DUP1 DUP3 SSTORE DUP1 SWAP2 POP POP PUSH1 0x1 SWAP1 SUB SWAP1 PUSH1 0x0 MSTORE PUSH1 0x20 PUSH1 0x0 KECCAK256 ADD PUSH1 0x0 SWAP1 SWAP2 SWAP1 SWAP2 SWAP1 SWAP2 PUSH2 0x100 EXP DUP2 SLOAD DUP2 PUSH20 0xFFFFFFFFFFFFFFFFFFFFFFFFFFFFFFFFFFFFFFFF MUL NOT AND SWAP1 DUP4 PUSH20 0xFFFFFFFFFFFFFFFFFFFFFFFFFFFFFFFFFFFFFFFF AND MUL OR SWAP1 SSTORE POP DUP1 PUSH1 0x2 ADD PUSH1 0x14 DUP2 DUP2 SWAP1 SLOAD SWAP1 PUSH2 0x100 EXP SWAP1 DIV PUSH2 0xFFFF AND DUP1 SWAP3 SWAP2 SWAP1 PUSH2 0xB46 SWAP1 PUSH2 0x1C5D JUMP JUMPDEST SWAP2 SWAP1 PUSH2 0x100 EXP DUP2 SLOAD DUP2 PUSH2 0xFFFF MUL NOT AND SWAP1 DUP4 PUSH2 0xFFFF AND MUL OR SWAP1 SSTORE POP POP PUSH32 0xC19C59AA93348E8FC54764BC642ECA975E2639F44CC683EF8F027E1529CBDA32 DUP4 PUSH1 0x40 MLOAD PUSH2 0xB90 SWAP2 SWAP1 PUSH2 0x1C88 JUMP JUMPDEST PUSH1 0x40 MLOAD DUP1 SWAP2 SUB SWAP1 LOG1 POP POP POP JUMP JUMPDEST PUSH1 0x0 DUP2 DUP1 MLOAD PUSH1 0x20 DUP2 ADD DUP3 ADD DUP1 MLOAD DUP5 DUP3 MSTORE PUSH1 0x20 DUP4 ADD PUSH1 0x20 DUP6 ADD KECCAK256 DUP2 DUP4 MSTORE DUP1 SWAP6 POP POP POP POP POP POP PUSH1 0x0 SWAP2 POP SWAP1 POP DUP1 PUSH1 0x0 ADD PUSH1 0x0 SWAP1 SLOAD SWAP1 PUSH2 0x100 EXP SWAP1 DIV PUSH20 0xFFFFFFFFFFFFFFFFFFFFFFFFFFFFFFFFFFFFFFFF AND SWAP1 DUP1 PUSH1 0x2 ADD PUSH1 0x0 SWAP1 SLOAD SWAP1 PUSH2 0x100 EXP SWAP1 DIV PUSH4 0xFFFFFFFF AND SWAP1 DUP1 PUSH1 0x2 ADD PUSH1 0x4 SWAP1 SLOAD SWAP1 PUSH2 0x100 EXP SWAP1 DIV PUSH8 0xFFFFFFFFFFFFFFFF AND SWAP1 DUP1 PUSH1 0x2 ADD PUSH1 0xC SWAP1 SLOAD SWAP1 PUSH2 0x100 EXP SWAP1 DIV PUSH8 0xFFFFFFFFFFFFFFFF AND SWAP1 DUP1 PUSH1 0x2 ADD PUSH1 0x14 SWAP1 SLOAD SWAP1 PUSH2 0x100 EXP SWAP1 DIV PUSH2 0xFFFF AND SWAP1 DUP1 PUSH1 0x2 ADD PUSH1 0x16 SWAP1 SLOAD SWAP1 PUSH2 0x100 EXP SWAP1 DIV PUSH1 0xFF AND SWAP1 POP DUP7 JUMP JUMPDEST PUSH1 0x1 PUSH1 0x20 MSTORE DUP1 PUSH1 0x0 MSTORE PUSH1 0x40 PUSH1 0x0 KECCAK256 PUSH1 0x0 SWAP2 POP SWAP1 POP SLOAD DUP2 JUMP JUMPDEST PUSH1 0x0 DUP1 PUSH1 0x0 DUP4 PUSH1 0x40 MLOAD PUSH2 0xC8D SWAP2 SWAP1 PUSH2 0x1873 JUMP JUMPDEST SWAP1 DUP2 MSTORE PUSH1 0x20 ADD PUSH1 0x40 MLOAD DUP1 SWAP2 SUB SWAP1 KECCAK256 SWAP1 POP DUP1 PUSH1 0x2 ADD PUSH1 0x14 SWAP1 SLOAD SWAP1 PUSH2 0x100 EXP SWAP1 DIV PUSH2 0xFFFF AND PUSH2 0xFFFF AND SWAP2 POP POP SWAP2 SWAP1 POP JUMP JUMPDEST PUSH1 0x60 PUSH1 0x0 DUP1 DUP4 PUSH1 0x40 MLOAD PUSH2 0xCCF SWAP2 SWAP1 PUSH2 0x1873 JUMP JUMPDEST SWAP1 DUP2 MSTORE PUSH1 0x20 ADD PUSH1 0x40 MLOAD DUP1 SWAP2 SUB SWAP1 KECCAK256 SWAP1 POP DUP1 PUSH1 0x1 ADD DUP1 SLOAD DUP1 PUSH1 0x20 MUL PUSH1 0x20 ADD PUSH1 0x40 MLOAD SWAP1 DUP2 ADD PUSH1 0x40 MSTORE DUP1 SWAP3 SWAP2 SWAP1 DUP2 DUP2 MSTORE PUSH1 0x20 ADD DUP3 DUP1 SLOAD DUP1 ISZERO PUSH2 0xD63 JUMPI PUSH1 0x20 MUL DUP3 ADD SWAP2 SWAP1 PUSH1 0x0 MSTORE PUSH1 0x20 PUSH1 0x0 KECCAK256 SWAP1 JUMPDEST DUP2 PUSH1 0x0 SWAP1 SLOAD SWAP1 PUSH2 0x100 EXP SWAP1 DIV PUSH20 0xFFFFFFFFFFFFFFFFFFFFFFFFFFFFFFFFFFFFFFFF AND PUSH20 0xFFFFFFFFFFFFFFFFFFFFFFFFFFFFFFFFFFFFFFFF AND DUP2 MSTORE PUSH1 0x20 ADD SWAP1 PUSH1 0x1 ADD SWAP1 DUP1 DUP4 GT PUSH2 0xD19 JUMPI JUMPDEST POP POP POP POP POP SWAP2 POP POP SWAP2 SWAP1 POP JUMP JUMPDEST PUSH1 0x0 DUP1 DUP3 PUSH1 0x40 MLOAD PUSH2 0xD81 SWAP2 SWAP1 PUSH2 0x1873 JUMP JUMPDEST SWAP1 DUP2 MSTORE PUSH1 0x20 ADD PUSH1 0x40 MLOAD DUP1 SWAP2 SUB SWAP1 KECCAK256 SWAP1 POP CALLER PUSH20 0xFFFFFFFFFFFFFFFFFFFFFFFFFFFFFFFFFFFFFFFF AND DUP2 PUSH1 0x0 ADD PUSH1 0x0 SWAP1 SLOAD SWAP1 PUSH2 0x100 EXP SWAP1 DIV PUSH20 0xFFFFFFFFFFFFFFFFFFFFFFFFFFFFFFFFFFFFFFFF AND PUSH20 0xFFFFFFFFFFFFFFFFFFFFFFFFFFFFFFFFFFFFFFFF AND EQ PUSH2 0xE23 JUMPI PUSH1 0x40 MLOAD PUSH32 0x8C379A000000000000000000000000000000000000000000000000000000000 DUP2 MSTORE PUSH1 0x4 ADD PUSH2 0xE1A SWAP1 PUSH2 0x1CEF JUMP JUMPDEST PUSH1 0x40 MLOAD DUP1 SWAP2 SUB SWAP1 REVERT JUMPDEST DUP1 PUSH1 0x2 ADD PUSH1 0x16 SWAP1 SLOAD SWAP1 PUSH2 0x100 EXP SWAP1 DIV PUSH1 0xFF AND ISZERO DUP2 PUSH1 0x2 ADD PUSH1 0x16 PUSH2 0x100 EXP DUP2 SLOAD DUP2 PUSH1 0xFF MUL NOT AND SWAP1 DUP4 ISZERO ISZERO MUL OR SWAP1 SSTORE POP POP POP JUMP JUMPDEST PUSH1 0x0 DUP1 PUSH1 0x0 DUP5 PUSH1 0x40 MLOAD PUSH2 0xE68 SWAP2 SWAP1 PUSH2 0x1873 JUMP JUMPDEST SWAP1 DUP2 MSTORE PUSH1 0x20 ADD PUSH1 0x40 MLOAD DUP1 SWAP2 SUB SWAP1 KECCAK256 SWAP1 POP PUSH1 0x1 DUP2 PUSH1 0x4 ADD PUSH1 0x0 DUP6 PUSH20 0xFFFFFFFFFFFFFFFFFFFFFFFFFFFFFFFFFFFFFFFF AND PUSH20 0xFFFFFFFFFFFFFFFFFFFFFFFFFFFFFFFFFFFFFFFF AND DUP2 MSTORE PUSH1 0x20 ADD SWAP1 DUP2 MSTORE PUSH1 0x20 ADD PUSH1 0x0 KECCAK256 PUSH1 0x0 PUSH2 0x100 EXP DUP2 SLOAD DUP2 PUSH1 0xFF MUL NOT AND SWAP1 DUP4 ISZERO ISZERO MUL OR SWAP1 SSTORE POP DUP1 PUSH1 0x5 ADD PUSH1 0x0 DUP7 PUSH20 0xFFFFFFFFFFFFFFFFFFFFFFFFFFFFFFFFFFFFFFFF AND PUSH20 0xFFFFFFFFFFFFFFFFFFFFFFFFFFFFFFFFFFFFFFFF AND DUP2 MSTORE PUSH1 0x20 ADD SWAP1 DUP2 MSTORE PUSH1 0x20 ADD PUSH1 0x0 KECCAK256 PUSH1 0x0 DUP2 SLOAD DUP1 SWAP3 SWAP2 SWAP1 PUSH2 0xF24 SWAP1 PUSH2 0x1AE7 JUMP JUMPDEST SWAP2 SWAP1 POP SSTORE POP DUP1 PUSH1 0x5 ADD PUSH1 0x0 DUP7 PUSH20 0xFFFFFFFFFFFFFFFFFFFFFFFFFFFFFFFFFFFFFFFF AND PUSH20 0xFFFFFFFFFFFFFFFFFFFFFFFFFFFFFFFFFFFFFFFF AND DUP2 MSTORE PUSH1 0x20 ADD SWAP1 DUP2 MSTORE PUSH1 0x20 ADD PUSH1 0x0 KECCAK256 SLOAD SWAP2 POP POP SWAP4 SWAP3 POP POP POP JUMP JUMPDEST PUSH1 0x0 DUP2 SWAP1 POP SWAP2 SWAP1 POP JUMP JUMPDEST PUSH2 0xF88 DUP2 PUSH2 0xF75 JUMP JUMPDEST DUP3 MSTORE POP POP JUMP JUMPDEST PUSH1 0x0 PUSH1 0x20 DUP3 ADD SWAP1 POP PUSH2 0xFA3 PUSH1 0x0 DUP4 ADD DUP5 PUSH2 0xF7F JUMP JUMPDEST SWAP3 SWAP2 POP POP JUMP JUMPDEST PUSH1 0x0 PUSH1 0x40 MLOAD SWAP1 POP SWAP1 JUMP JUMPDEST PUSH1 0x0 DUP1 REVERT JUMPDEST PUSH1 0x0 DUP1 REVERT JUMPDEST PUSH1 0x0 PUSH20 0xFFFFFFFFFFFFFFFFFFFFFFFFFFFFFFFFFFFFFFFF DUP3 AND SWAP1 POP SWAP2 SWAP1 POP JUMP JUMPDEST PUSH1 0x0 PUSH2 0xFE8 DUP3 PUSH2 0xFBD JUMP JUMPDEST SWAP1 POP SWAP2 SWAP1 POP JUMP JUMPDEST PUSH2 0xFF8 DUP2 PUSH2 0xFDD JUMP JUMPDEST DUP2 EQ PUSH2 0x1003 JUMPI PUSH1 0x0 DUP1 REVERT JUMPDEST POP JUMP JUMPDEST PUSH1 0x0 DUP2 CALLDATALOAD SWAP1 POP PUSH2 0x1015 DUP2 PUSH2 0xFEF JUMP JUMPDEST SWAP3 SWAP2 POP POP JUMP JUMPDEST PUSH1 0x0 DUP1 REVERT JUMPDEST PUSH1 0x0 DUP1 REVERT JUMPDEST PUSH1 0x0 PUSH1 0x1F NOT PUSH1 0x1F DUP4 ADD AND SWAP1 POP SWAP2 SWAP1 POP JUMP JUMPDEST PUSH32 0x4E487B7100000000000000000000000000000000000000000000000000000000 PUSH1 0x0 MSTORE PUSH1 0x41 PUSH1 0x4 MSTORE PUSH1 0x24 PUSH1 0x0 REVERT JUMPDEST PUSH2 0x106E DUP3 PUSH2 0x1025 JUMP JUMPDEST DUP2 ADD DUP2 DUP2 LT PUSH8 0xFFFFFFFFFFFFFFFF DUP3 GT OR ISZERO PUSH2 0x108D JUMPI PUSH2 0x108C PUSH2 0x1036 JUMP JUMPDEST JUMPDEST DUP1 PUSH1 0x40 MSTORE POP POP POP JUMP JUMPDEST PUSH1 0x0 PUSH2 0x10A0 PUSH2 0xFA9 JUMP JUMPDEST SWAP1 POP PUSH2 0x10AC DUP3 DUP3 PUSH2 0x1065 JUMP JUMPDEST SWAP2 SWAP1 POP JUMP JUMPDEST PUSH1 0x0 PUSH8 0xFFFFFFFFFFFFFFFF DUP3 GT ISZERO PUSH2 0x10CC JUMPI PUSH2 0x10CB PUSH2 0x1036 JUMP JUMPDEST JUMPDEST PUSH2 0x10D5 DUP3 PUSH2 0x1025 JUMP JUMPDEST SWAP1 POP PUSH1 0x20 DUP2 ADD SWAP1 POP SWAP2 SWAP1 POP JUMP JUMPDEST DUP3 DUP2 DUP4 CALLDATACOPY PUSH1 0x0 DUP4 DUP4 ADD MSTORE POP POP POP JUMP JUMPDEST PUSH1 0x0 PUSH2 0x1104 PUSH2 0x10FF DUP5 PUSH2 0x10B1 JUMP JUMPDEST PUSH2 0x1096 JUMP JUMPDEST SWAP1 POP DUP3 DUP2 MSTORE PUSH1 0x20 DUP2 ADD DUP5 DUP5 DUP5 ADD GT ISZERO PUSH2 0x1120 JUMPI PUSH2 0x111F PUSH2 0x1020 JUMP JUMPDEST JUMPDEST PUSH2 0x112B DUP5 DUP3 DUP6 PUSH2 0x10E2 JUMP JUMPDEST POP SWAP4 SWAP3 POP POP POP JUMP JUMPDEST PUSH1 0x0 DUP3 PUSH1 0x1F DUP4 ADD SLT PUSH2 0x1148 JUMPI PUSH2 0x1147 PUSH2 0x101B JUMP JUMPDEST JUMPDEST DUP2 CALLDATALOAD PUSH2 0x1158 DUP5 DUP3 PUSH1 0x20 DUP7 ADD PUSH2 0x10F1 JUMP JUMPDEST SWAP2 POP POP SWAP3 SWAP2 POP POP JUMP JUMPDEST PUSH2 0x116A DUP2 PUSH2 0xF75 JUMP JUMPDEST DUP2 EQ PUSH2 0x1175 JUMPI PUSH1 0x0 DUP1 REVERT JUMPDEST POP JUMP JUMPDEST PUSH1 0x0 DUP2 CALLDATALOAD SWAP1 POP PUSH2 0x1187 DUP2 PUSH2 0x1161 JUMP JUMPDEST SWAP3 SWAP2 POP POP JUMP JUMPDEST PUSH1 0x0 DUP1 PUSH1 0x0 DUP1 PUSH1 0x80 DUP6 DUP8 SUB SLT ISZERO PUSH2 0x11A7 JUMPI PUSH2 0x11A6 PUSH2 0xFB3 JUMP JUMPDEST JUMPDEST PUSH1 0x0 PUSH2 0x11B5 DUP8 DUP3 DUP9 ADD PUSH2 0x1006 JUMP JUMPDEST SWAP5 POP POP PUSH1 0x20 DUP6 ADD CALLDATALOAD PUSH8 0xFFFFFFFFFFFFFFFF DUP2 GT ISZERO PUSH2 0x11D6 JUMPI PUSH2 0x11D5 PUSH2 0xFB8 JUMP JUMPDEST JUMPDEST PUSH2 0x11E2 DUP8 DUP3 DUP9 ADD PUSH2 0x1133 JUMP JUMPDEST SWAP4 POP POP PUSH1 0x40 PUSH2 0x11F3 DUP8 DUP3 DUP9 ADD PUSH2 0x1178 JUMP JUMPDEST SWAP3 POP POP PUSH1 0x60 PUSH2 0x1204 DUP8 DUP3 DUP9 ADD PUSH2 0x1178 JUMP JUMPDEST SWAP2 POP POP SWAP3 SWAP6 SWAP2 SWAP5 POP SWAP3 POP JUMP JUMPDEST PUSH1 0x0 DUP2 SWAP1 POP SWAP2 SWAP1 POP JUMP JUMPDEST PUSH2 0x1223 DUP2 PUSH2 0x1210 JUMP JUMPDEST DUP3 MSTORE POP POP JUMP JUMPDEST PUSH1 0x0 PUSH1 0x20 DUP3 ADD SWAP1 POP PUSH2 0x123E PUSH1 0x0 DUP4 ADD DUP5 PUSH2 0x121A JUMP JUMPDEST SWAP3 SWAP2 POP POP JUMP JUMPDEST PUSH1 0x0 PUSH2 0xFFFF DUP3 AND SWAP1 POP SWAP2 SWAP1 POP JUMP JUMPDEST PUSH2 0x125B DUP2 PUSH2 0x1244 JUMP JUMPDEST DUP2 EQ PUSH2 0x1266 JUMPI PUSH1 0x0 DUP1 REVERT JUMPDEST POP JUMP JUMPDEST PUSH1 0x0 DUP2 CALLDATALOAD SWAP1 POP PUSH2 0x1278 DUP2 PUSH2 0x1252 JUMP JUMPDEST SWAP3 SWAP2 POP POP JUMP JUMPDEST PUSH1 0x0 DUP1 PUSH1 0x40 DUP4 DUP6 SUB SLT ISZERO PUSH2 0x1295 JUMPI PUSH2 0x1294 PUSH2 0xFB3 JUMP JUMPDEST JUMPDEST PUSH1 0x0 DUP4 ADD CALLDATALOAD PUSH8 0xFFFFFFFFFFFFFFFF DUP2 GT ISZERO PUSH2 0x12B3 JUMPI PUSH2 0x12B2 PUSH2 0xFB8 JUMP JUMPDEST JUMPDEST PUSH2 0x12BF DUP6 DUP3 DUP7 ADD PUSH2 0x1133 JUMP JUMPDEST SWAP3 POP POP PUSH1 0x20 PUSH2 0x12D0 DUP6 DUP3 DUP7 ADD PUSH2 0x1269 JUMP JUMPDEST SWAP2 POP POP SWAP3 POP SWAP3 SWAP1 POP JUMP JUMPDEST PUSH1 0x0 DUP2 MLOAD SWAP1 POP SWAP2 SWAP1 POP JUMP JUMPDEST PUSH1 0x0 DUP3 DUP3 MSTORE PUSH1 0x20 DUP3 ADD SWAP1 POP SWAP3 SWAP2 POP POP JUMP JUMPDEST PUSH1 0x0 JUMPDEST DUP4 DUP2 LT ISZERO PUSH2 0x1314 JUMPI DUP1 DUP3 ADD MLOAD DUP2 DUP5 ADD MSTORE PUSH1 0x20 DUP2 ADD SWAP1 POP PUSH2 0x12F9 JUMP JUMPDEST DUP4 DUP2 GT ISZERO PUSH2 0x1323 JUMPI PUSH1 0x0 DUP5 DUP5 ADD MSTORE JUMPDEST POP POP POP POP JUMP JUMPDEST PUSH1 0x0 PUSH2 0x1334 DUP3 PUSH2 0x12DA JUMP JUMPDEST PUSH2 0x133E DUP2 DUP6 PUSH2 0x12E5 JUMP JUMPDEST SWAP4 POP PUSH2 0x134E DUP2 DUP6 PUSH1 0x20 DUP7 ADD PUSH2 0x12F6 JUMP JUMPDEST PUSH2 0x1357 DUP2 PUSH2 0x1025 JUMP JUMPDEST DUP5 ADD SWAP2 POP POP SWAP3 SWAP2 POP POP JUMP JUMPDEST PUSH1 0x0 PUSH1 0x40 DUP3 ADD SWAP1 POP DUP2 DUP2 SUB PUSH1 0x0 DUP4 ADD MSTORE PUSH2 0x137C DUP2 DUP6 PUSH2 0x1329 JUMP JUMPDEST SWAP1 POP PUSH2 0x138B PUSH1 0x20 DUP4 ADD DUP5 PUSH2 0xF7F JUMP JUMPDEST SWAP4 SWAP3 POP POP POP JUMP JUMPDEST PUSH1 0x0 DUP1 PUSH1 0x40 DUP4 DUP6 SUB SLT ISZERO PUSH2 0x13A9 JUMPI PUSH2 0x13A8 PUSH2 0xFB3 JUMP JUMPDEST JUMPDEST PUSH1 0x0 PUSH2 0x13B7 DUP6 DUP3 DUP7 ADD PUSH2 0x1006 JUMP JUMPDEST SWAP3 POP POP PUSH1 0x20 DUP4 ADD CALLDATALOAD PUSH8 0xFFFFFFFFFFFFFFFF DUP2 GT ISZERO PUSH2 0x13D8 JUMPI PUSH2 0x13D7 PUSH2 0xFB8 JUMP JUMPDEST JUMPDEST PUSH2 0x13E4 DUP6 DUP3 DUP7 ADD PUSH2 0x1133 JUMP JUMPDEST SWAP2 POP POP SWAP3 POP SWAP3 SWAP1 POP JUMP JUMPDEST PUSH1 0x0 PUSH1 0x20 DUP3 DUP5 SUB SLT ISZERO PUSH2 0x1404 JUMPI PUSH2 0x1403 PUSH2 0xFB3 JUMP JUMPDEST JUMPDEST PUSH1 0x0 DUP3 ADD CALLDATALOAD PUSH8 0xFFFFFFFFFFFFFFFF DUP2 GT ISZERO PUSH2 0x1422 JUMPI PUSH2 0x1421 PUSH2 0xFB8 JUMP JUMPDEST JUMPDEST PUSH2 0x142E DUP5 DUP3 DUP6 ADD PUSH2 0x1133 JUMP JUMPDEST SWAP2 POP POP SWAP3 SWAP2 POP POP JUMP JUMPDEST PUSH1 0x0 DUP2 MLOAD SWAP1 POP SWAP2 SWAP1 POP JUMP JUMPDEST PUSH1 0x0 DUP3 DUP3 MSTORE PUSH1 0x20 DUP3 ADD SWAP1 POP SWAP3 SWAP2 POP POP JUMP JUMPDEST PUSH1 0x0 DUP2 SWAP1 POP PUSH1 0x20 DUP3 ADD SWAP1 POP SWAP2 SWAP1 POP JUMP JUMPDEST PUSH2 0x146C DUP2 PUSH2 0xF75 JUMP JUMPDEST DUP3 MSTORE POP POP JUMP JUMPDEST PUSH1 0x0 PUSH2 0x147E DUP4 DUP4 PUSH2 0x1463 JUMP JUMPDEST PUSH1 0x20 DUP4 ADD SWAP1 POP SWAP3 SWAP2 POP POP JUMP JUMPDEST PUSH1 0x0 PUSH1 0x20 DUP3 ADD SWAP1 POP SWAP2 SWAP1 POP JUMP JUMPDEST PUSH1 0x0 PUSH2 0x14A2 DUP3 PUSH2 0x1437 JUMP JUMPDEST PUSH2 0x14AC DUP2 DUP6 PUSH2 0x1442 JUMP JUMPDEST SWAP4 POP PUSH2 0x14B7 DUP4 PUSH2 0x1453 JUMP JUMPDEST DUP1 PUSH1 0x0 JUMPDEST DUP4 DUP2 LT ISZERO PUSH2 0x14E8 JUMPI DUP2 MLOAD PUSH2 0x14CF DUP9 DUP3 PUSH2 0x1472 JUMP JUMPDEST SWAP8 POP PUSH2 0x14DA DUP4 PUSH2 0x148A JUMP JUMPDEST SWAP3 POP POP PUSH1 0x1 DUP2 ADD SWAP1 POP PUSH2 0x14BB JUMP JUMPDEST POP DUP6 SWAP4 POP POP POP POP SWAP3 SWAP2 POP POP JUMP JUMPDEST PUSH2 0x14FE DUP2 PUSH2 0xFDD JUMP JUMPDEST DUP3 MSTORE POP POP JUMP JUMPDEST PUSH1 0x0 PUSH1 0x60 DUP3 ADD SWAP1 POP DUP2 DUP2 SUB PUSH1 0x0 DUP4 ADD MSTORE PUSH2 0x151E DUP2 DUP7 PUSH2 0x1497 JUMP JUMPDEST SWAP1 POP PUSH2 0x152D PUSH1 0x20 DUP4 ADD DUP6 PUSH2 0x14F5 JUMP JUMPDEST PUSH2 0x153A PUSH1 0x40 DUP4 ADD DUP5 PUSH2 0xF7F JUMP JUMPDEST SWAP5 SWAP4 POP POP POP POP JUMP JUMPDEST PUSH1 0x0 PUSH4 0xFFFFFFFF DUP3 AND SWAP1 POP SWAP2 SWAP1 POP JUMP JUMPDEST PUSH2 0x155B DUP2 PUSH2 0x1542 JUMP JUMPDEST DUP3 MSTORE POP POP JUMP JUMPDEST PUSH1 0x0 PUSH8 0xFFFFFFFFFFFFFFFF DUP3 AND SWAP1 POP SWAP2 SWAP1 POP JUMP JUMPDEST PUSH2 0x157E DUP2 PUSH2 0x1561 JUMP JUMPDEST DUP3 MSTORE POP POP JUMP JUMPDEST PUSH2 0x158D DUP2 PUSH2 0x1244 JUMP JUMPDEST DUP3 MSTORE POP POP JUMP JUMPDEST PUSH1 0x0 DUP2 ISZERO ISZERO SWAP1 POP SWAP2 SWAP1 POP JUMP JUMPDEST PUSH2 0x15A8 DUP2 PUSH2 0x1593 JUMP JUMPDEST DUP3 MSTORE POP POP JUMP JUMPDEST PUSH1 0x0 PUSH1 0xC0 DUP3 ADD SWAP1 POP PUSH2 0x15C3 PUSH1 0x0 DUP4 ADD DUP10 PUSH2 0x14F5 JUMP JUMPDEST PUSH2 0x15D0 PUSH1 0x20 DUP4 ADD DUP9 PUSH2 0x1552 JUMP JUMPDEST PUSH2 0x15DD PUSH1 0x40 DUP4 ADD DUP8 PUSH2 0x1575 JUMP JUMPDEST PUSH2 0x15EA PUSH1 0x60 DUP4 ADD DUP7 PUSH2 0x1575 JUMP JUMPDEST PUSH2 0x15F7 PUSH1 0x80 DUP4 ADD DUP6 PUSH2 0x1584 JUMP JUMPDEST PUSH2 0x1604 PUSH1 0xA0 DUP4 ADD DUP5 PUSH2 0x159F JUMP JUMPDEST SWAP8 SWAP7 POP POP POP POP POP POP POP JUMP JUMPDEST PUSH1 0x0 PUSH1 0x20 DUP3 DUP5 SUB SLT ISZERO PUSH2 0x1625 JUMPI PUSH2 0x1624 PUSH2 0xFB3 JUMP JUMPDEST JUMPDEST PUSH1 0x0 PUSH2 0x1633 DUP5 DUP3 DUP6 ADD PUSH2 0x1006 JUMP JUMPDEST SWAP2 POP POP SWAP3 SWAP2 POP POP JUMP JUMPDEST PUSH1 0x0 DUP2 MLOAD SWAP1 POP SWAP2 SWAP1 POP JUMP JUMPDEST PUSH1 0x0 DUP3 DUP3 MSTORE PUSH1 0x20 DUP3 ADD SWAP1 POP SWAP3 SWAP2 POP POP JUMP JUMPDEST PUSH1 0x0 DUP2 SWAP1 POP PUSH1 0x20 DUP3 ADD SWAP1 POP SWAP2 SWAP1 POP JUMP JUMPDEST PUSH2 0x1671 DUP2 PUSH2 0xFDD JUMP JUMPDEST DUP3 MSTORE POP POP JUMP JUMPDEST PUSH1 0x0 PUSH2 0x1683 DUP4 DUP4 PUSH2 0x1668 JUMP JUMPDEST PUSH1 0x20 DUP4 ADD SWAP1 POP SWAP3 SWAP2 POP POP JUMP JUMPDEST PUSH1 0x0 PUSH1 0x20 DUP3 ADD SWAP1 POP SWAP2 SWAP1 POP JUMP JUMPDEST PUSH1 0x0 PUSH2 0x16A7 DUP3 PUSH2 0x163C JUMP JUMPDEST PUSH2 0x16B1 DUP2 DUP6 PUSH2 0x1647 JUMP JUMPDEST SWAP4 POP PUSH2 0x16BC DUP4 PUSH2 0x1658 JUMP JUMPDEST DUP1 PUSH1 0x0 JUMPDEST DUP4 DUP2 LT ISZERO PUSH2 0x16ED JUMPI DUP2 MLOAD PUSH2 0x16D4 DUP9 DUP3 PUSH2 0x1677 JUMP JUMPDEST SWAP8 POP PUSH2 0x16DF DUP4 PUSH2 0x168F JUMP JUMPDEST SWAP3 POP POP PUSH1 0x1 DUP2 ADD SWAP1 POP PUSH2 0x16C0 JUMP JUMPDEST POP DUP6 SWAP4 POP POP POP POP SWAP3 SWAP2 POP POP JUMP JUMPDEST PUSH1 0x0 PUSH1 0x20 DUP3 ADD SWAP1 POP DUP2 DUP2 SUB PUSH1 0x0 DUP4 ADD MSTORE PUSH2 0x1714 DUP2 DUP5 PUSH2 0x169C JUMP JUMPDEST SWAP1 POP SWAP3 SWAP2 POP POP JUMP JUMPDEST PUSH1 0x0 DUP2 PUSH1 0x60 SHL SWAP1 POP SWAP2 SWAP1 POP JUMP JUMPDEST PUSH1 0x0 PUSH2 0x1734 DUP3 PUSH2 0x171C JUMP JUMPDEST SWAP1 POP SWAP2 SWAP1 POP JUMP JUMPDEST PUSH1 0x0 PUSH2 0x1746 DUP3 PUSH2 0x1729 JUMP JUMPDEST SWAP1 POP SWAP2 SWAP1 POP JUMP JUMPDEST PUSH2 0x175E PUSH2 0x1759 DUP3 PUSH2 0xFDD JUMP JUMPDEST PUSH2 0x173B JUMP JUMPDEST DUP3 MSTORE POP POP JUMP JUMPDEST PUSH1 0x0 DUP2 SWAP1 POP SWAP3 SWAP2 POP POP JUMP JUMPDEST PUSH32 0x6D6574617472616E73616374696F6E20566F74696E6720000000000000000000 PUSH1 0x0 DUP3 ADD MSTORE POP JUMP JUMPDEST PUSH1 0x0 PUSH2 0x17A5 PUSH1 0x17 DUP4 PUSH2 0x1764 JUMP JUMPDEST SWAP2 POP PUSH2 0x17B0 DUP3 PUSH2 0x176F JUMP JUMPDEST PUSH1 0x17 DUP3 ADD SWAP1 POP SWAP2 SWAP1 POP JUMP JUMPDEST PUSH1 0x0 PUSH2 0x17C6 DUP3 PUSH2 0x12DA JUMP JUMPDEST PUSH2 0x17D0 DUP2 DUP6 PUSH2 0x1764 JUMP JUMPDEST SWAP4 POP PUSH2 0x17E0 DUP2 DUP6 PUSH1 0x20 DUP7 ADD PUSH2 0x12F6 JUMP JUMPDEST DUP1 DUP5 ADD SWAP2 POP POP SWAP3 SWAP2 POP POP JUMP JUMPDEST PUSH1 0x0 DUP2 SWAP1 POP SWAP2 SWAP1 POP JUMP JUMPDEST PUSH2 0x1807 PUSH2 0x1802 DUP3 PUSH2 0xF75 JUMP JUMPDEST PUSH2 0x17EC JUMP JUMPDEST DUP3 MSTORE POP POP JUMP JUMPDEST PUSH1 0x0 PUSH2 0x1819 DUP3 DUP9 PUSH2 0x174D JUMP JUMPDEST PUSH1 0x14 DUP3 ADD SWAP2 POP PUSH2 0x1828 DUP3 PUSH2 0x1798 JUMP JUMPDEST SWAP2 POP PUSH2 0x1834 DUP3 DUP8 PUSH2 0x174D JUMP JUMPDEST PUSH1 0x14 DUP3 ADD SWAP2 POP PUSH2 0x1844 DUP3 DUP7 PUSH2 0x17BB JUMP JUMPDEST SWAP2 POP PUSH2 0x1850 DUP3 DUP6 PUSH2 0x17F6 JUMP JUMPDEST PUSH1 0x20 DUP3 ADD SWAP2 POP PUSH2 0x1860 DUP3 DUP5 PUSH2 0x17F6 JUMP JUMPDEST PUSH1 0x20 DUP3 ADD SWAP2 POP DUP2 SWAP1 POP SWAP7 SWAP6 POP POP POP POP POP POP JUMP JUMPDEST PUSH1 0x0 PUSH2 0x187F DUP3 DUP5 PUSH2 0x17BB JUMP JUMPDEST SWAP2 POP DUP2 SWAP1 POP SWAP3 SWAP2 POP POP JUMP JUMPDEST PUSH32 0x54686973206164647265737320646F6573206E6F742065786973742061732061 PUSH1 0x0 DUP3 ADD MSTORE PUSH32 0x2063616E64696461746500000000000000000000000000000000000000000000 PUSH1 0x20 DUP3 ADD MSTORE POP JUMP JUMPDEST PUSH1 0x0 PUSH2 0x18E6 PUSH1 0x2A DUP4 PUSH2 0x12E5 JUMP JUMPDEST SWAP2 POP PUSH2 0x18F1 DUP3 PUSH2 0x188A JUMP JUMPDEST PUSH1 0x40 DUP3 ADD SWAP1 POP SWAP2 SWAP1 POP JUMP JUMPDEST PUSH1 0x0 PUSH1 0x20 DUP3 ADD SWAP1 POP DUP2 DUP2 SUB PUSH1 0x0 DUP4 ADD MSTORE PUSH2 0x1915 DUP2 PUSH2 0x18D9 JUMP JUMPDEST SWAP1 POP SWAP2 SWAP1 POP JUMP JUMPDEST PUSH32 0x766F74696E672068617320656E64656400000000000000000000000000000000 PUSH1 0x0 DUP3 ADD MSTORE POP JUMP JUMPDEST PUSH1 0x0 PUSH2 0x1952 PUSH1 0x10 DUP4 PUSH2 0x12E5 JUMP JUMPDEST SWAP2 POP PUSH2 0x195D DUP3 PUSH2 0x191C JUMP JUMPDEST PUSH1 0x20 DUP3 ADD SWAP1 POP SWAP2 SWAP1 POP JUMP JUMPDEST PUSH1 0x0 PUSH1 0x20 DUP3 ADD SWAP1 POP DUP2 DUP2 SUB PUSH1 0x0 DUP4 ADD MSTORE PUSH2 0x1981 DUP2 PUSH2 0x1945 JUMP JUMPDEST SWAP1 POP SWAP2 SWAP1 POP JUMP JUMPDEST PUSH32 0x596F7520616C726561647920766F746564000000000000000000000000000000 PUSH1 0x0 DUP3 ADD MSTORE POP JUMP JUMPDEST PUSH1 0x0 PUSH2 0x19BE PUSH1 0x11 DUP4 PUSH2 0x12E5 JUMP JUMPDEST SWAP2 POP PUSH2 0x19C9 DUP3 PUSH2 0x1988 JUMP JUMPDEST PUSH1 0x20 DUP3 ADD SWAP1 POP SWAP2 SWAP1 POP JUMP JUMPDEST PUSH1 0x0 PUSH1 0x20 DUP3 ADD SWAP1 POP DUP2 DUP2 SUB PUSH1 0x0 DUP4 ADD MSTORE PUSH2 0x19ED DUP2 PUSH2 0x19B1 JUMP JUMPDEST SWAP1 POP SWAP2 SWAP1 POP JUMP JUMPDEST PUSH1 0x0 PUSH1 0x40 DUP3 ADD SWAP1 POP PUSH2 0x1A09 PUSH1 0x0 DUP4 ADD DUP6 PUSH2 0x14F5 JUMP JUMPDEST PUSH2 0x1A16 PUSH1 0x20 DUP4 ADD DUP5 PUSH2 0x159F JUMP JUMPDEST SWAP4 SWAP3 POP POP POP JUMP JUMPDEST PUSH32 0x4E6F20706F6C6C20637265617465640000000000000000000000000000000000 PUSH1 0x0 DUP3 ADD MSTORE POP JUMP JUMPDEST PUSH1 0x0 PUSH2 0x1A53 PUSH1 0xF DUP4 PUSH2 0x12E5 JUMP JUMPDEST SWAP2 POP PUSH2 0x1A5E DUP3 PUSH2 0x1A1D JUMP JUMPDEST PUSH1 0x20 DUP3 ADD SWAP1 POP SWAP2 SWAP1 POP JUMP JUMPDEST PUSH1 0x0 PUSH1 0x20 DUP3 ADD SWAP1 POP DUP2 DUP2 SUB PUSH1 0x0 DUP4 ADD MSTORE PUSH2 0x1A82 DUP2 PUSH2 0x1A46 JUMP JUMPDEST SWAP1 POP SWAP2 SWAP1 POP JUMP JUMPDEST PUSH32 0x4E487B7100000000000000000000000000000000000000000000000000000000 PUSH1 0x0 MSTORE PUSH1 0x32 PUSH1 0x4 MSTORE PUSH1 0x24 PUSH1 0x0 REVERT JUMPDEST PUSH32 0x4E487B7100000000000000000000000000000000000000000000000000000000 PUSH1 0x0 MSTORE PUSH1 0x11 PUSH1 0x4 MSTORE PUSH1 0x24 PUSH1 0x0 REVERT JUMPDEST PUSH1 0x0 PUSH2 0x1AF2 DUP3 PUSH2 0xF75 JUMP JUMPDEST SWAP2 POP PUSH32 0xFFFFFFFFFFFFFFFFFFFFFFFFFFFFFFFFFFFFFFFFFFFFFFFFFFFFFFFFFFFFFFFF DUP3 EQ ISZERO PUSH2 0x1B25 JUMPI PUSH2 0x1B24 PUSH2 0x1AB8 JUMP JUMPDEST JUMPDEST PUSH1 0x1 DUP3 ADD SWAP1 POP SWAP2 SWAP1 POP JUMP JUMPDEST PUSH32 0x79657420746F20637265617465206120706F6C6C000000000000000000000000 PUSH1 0x0 DUP3 ADD MSTORE POP JUMP JUMPDEST PUSH1 0x0 PUSH2 0x1B66 PUSH1 0x14 DUP4 PUSH2 0x12E5 JUMP JUMPDEST SWAP2 POP PUSH2 0x1B71 DUP3 PUSH2 0x1B30 JUMP JUMPDEST PUSH1 0x20 DUP3 ADD SWAP1 POP SWAP2 SWAP1 POP JUMP JUMPDEST PUSH1 0x0 PUSH1 0x20 DUP3 ADD SWAP1 POP DUP2 DUP2 SUB PUSH1 0x0 DUP4 ADD MSTORE PUSH2 0x1B95 DUP2 PUSH2 0x1B59 JUMP JUMPDEST SWAP1 POP SWAP2 SWAP1 POP JUMP JUMPDEST PUSH32 0x4E487B7100000000000000000000000000000000000000000000000000000000 PUSH1 0x0 MSTORE PUSH1 0x1 PUSH1 0x4 MSTORE PUSH1 0x24 PUSH1 0x0 REVERT JUMPDEST PUSH32 0x6D6178696D756D206E6F206F662063616E646964617465207065722073657373 PUSH1 0x0 DUP3 ADD MSTORE PUSH32 0x696F6E2072656769737465726564000000000000000000000000000000000000 PUSH1 0x20 DUP3 ADD MSTORE POP JUMP JUMPDEST PUSH1 0x0 PUSH2 0x1C27 PUSH1 0x2E DUP4 PUSH2 0x12E5 JUMP JUMPDEST SWAP2 POP PUSH2 0x1C32 DUP3 PUSH2 0x1BCB JUMP JUMPDEST PUSH1 0x40 DUP3 ADD SWAP1 POP SWAP2 SWAP1 POP JUMP JUMPDEST PUSH1 0x0 PUSH1 0x20 DUP3 ADD SWAP1 POP DUP2 DUP2 SUB PUSH1 0x0 DUP4 ADD MSTORE PUSH2 0x1C56 DUP2 PUSH2 0x1C1A JUMP JUMPDEST SWAP1 POP SWAP2 SWAP1 POP JUMP JUMPDEST PUSH1 0x0 PUSH2 0x1C68 DUP3 PUSH2 0x1244 JUMP JUMPDEST SWAP2 POP PUSH2 0xFFFF DUP3 EQ ISZERO PUSH2 0x1C7D JUMPI PUSH2 0x1C7C PUSH2 0x1AB8 JUMP JUMPDEST JUMPDEST PUSH1 0x1 DUP3 ADD SWAP1 POP SWAP2 SWAP1 POP JUMP JUMPDEST PUSH1 0x0 PUSH1 0x20 DUP3 ADD SWAP1 POP PUSH2 0x1C9D PUSH1 0x0 DUP4 ADD DUP5 PUSH2 0x14F5 JUMP JUMPDEST SWAP3 SWAP2 POP POP JUMP JUMPDEST PUSH32 0x6E6F74207468652063686169726D616E00000000000000000000000000000000 PUSH1 0x0 DUP3 ADD MSTORE POP JUMP JUMPDEST PUSH1 0x0 PUSH2 0x1CD9 PUSH1 0x10 DUP4 PUSH2 0x12E5 JUMP JUMPDEST SWAP2 POP PUSH2 0x1CE4 DUP3 PUSH2 0x1CA3 JUMP JUMPDEST PUSH1 0x20 DUP3 ADD SWAP1 POP SWAP2 SWAP1 POP JUMP JUMPDEST PUSH1 0x0 PUSH1 0x20 DUP3 ADD SWAP1 POP DUP2 DUP2 SUB PUSH1 0x0 DUP4 ADD MSTORE PUSH2 0x1D08 DUP2 PUSH2 0x1CCC JUMP JUMPDEST SWAP1 POP SWAP2 SWAP1 POP JUMP INVALID LOG2 PUSH5 0x6970667358 0x22 SLT KECCAK256 MLOAD BYTE GASLIMIT 0xD8 0xED RETURNDATACOPY 0xF7 LOG4 0x4D ADDMOD ADDMOD BLOCKHASH 0xB1 PUSH24 0x376AF4E59C76BF81D0C4629B010F43D0C3CA64736F6C6343 STOP ADDMOD EXP STOP CALLER "
				},
				"gasEstimates": {
					"creation": {
						"codeDepositCost": "1498600",
						"executionCost": "1568",
						"totalCost": "1500168"
					},
					"external": {
						"AddCandidate(address,string)": "infinite",
						"AllCandidates(string)": "infinite",
						"NoOfRegisteredCandidates(string)": "infinite",
						"createPoll(string,uint16)": "infinite",
						"getUint()": "330",
						"metaVotingHash(address,string,uint256,uint256)": "infinite",
						"replayNonce(address)": "2858",
						"revealWinner(string)": "infinite",
						"setVotingState(string)": "infinite",
						"vote(address,string)": "infinite",
						"votingPoll(string)": "infinite"
					},
					"internal": {
						"countVote(address,string memory,address)": "infinite",
						"getSigner(bytes32,bytes memory)": "infinite"
					}
				},
				"methodIdentifiers": {
					"AddCandidate(address,string)": "57f53967",
					"AllCandidates(string)": "af7cbc0d",
					"NoOfRegisteredCandidates(string)": "8579cacd",
					"createPoll(string,uint16)": "0968d4b1",
					"getUint()": "000267a4",
					"metaVotingHash(address,string,uint256,uint256)": "01ff993b",
					"replayNonce(address)": "67d407df",
					"revealWinner(string)": "4fcf1f39",
					"setVotingState(string)": "f0e4de22",
					"vote(address,string)": "1bf533a4",
					"votingPoll(string)": "63ee965a"
				}
			},
			"storageLayout": {
				"storage": [
					{
						"astId": 34,
						"contract": "src/voting.sol:Voting",
						"label": "votingPoll",
						"offset": 0,
						"slot": "0",
						"type": "t_mapping(t_string_memory_ptr,t_struct(VotingPoll)29_storage)"
					},
					{
						"astId": 38,
						"contract": "src/voting.sol:Voting",
						"label": "replayNonce",
						"offset": 0,
						"slot": "1",
						"type": "t_mapping(t_address,t_uint256)"
					}
				],
				"types": {
					"t_address": {
						"encoding": "inplace",
						"label": "address",
						"numberOfBytes": "20"
					},
					"t_array(t_address)dyn_storage": {
						"base": "t_address",
						"encoding": "dynamic_array",
						"label": "address[]",
						"numberOfBytes": "32"
					},
					"t_bool": {
						"encoding": "inplace",
						"label": "bool",
						"numberOfBytes": "1"
					},
					"t_mapping(t_address,t_bool)": {
						"encoding": "mapping",
						"key": "t_address",
						"label": "mapping(address => bool)",
						"numberOfBytes": "32",
						"value": "t_bool"
					},
					"t_mapping(t_address,t_uint256)": {
						"encoding": "mapping",
						"key": "t_address",
						"label": "mapping(address => uint256)",
						"numberOfBytes": "32",
						"value": "t_uint256"
					},
					"t_mapping(t_string_memory_ptr,t_struct(VotingPoll)29_storage)": {
						"encoding": "mapping",
						"key": "t_string_memory_ptr",
						"label": "mapping(string => struct Voting.VotingPoll)",
						"numberOfBytes": "32",
						"value": "t_struct(VotingPoll)29_storage"
					},
					"t_string_memory_ptr": {
						"encoding": "bytes",
						"label": "string",
						"numberOfBytes": "32"
					},
					"t_struct(VotingPoll)29_storage": {
						"encoding": "inplace",
						"label": "struct Voting.VotingPoll",
						"members": [
							{
								"astId": 3,
								"contract": "src/voting.sol:Voting",
								"label": "chairman",
								"offset": 0,
								"slot": "0",
								"type": "t_address"
							},
							{
								"astId": 6,
								"contract": "src/voting.sol:Voting",
								"label": "candidates",
								"offset": 0,
								"slot": "1",
								"type": "t_array(t_address)dyn_storage"
							},
							{
								"astId": 8,
								"contract": "src/voting.sol:Voting",
								"label": "maxNoOfCandidates",
								"offset": 0,
								"slot": "2",
								"type": "t_uint32"
							},
							{
								"astId": 10,
								"contract": "src/voting.sol:Voting",
								"label": "startTime",
								"offset": 4,
								"slot": "2",
								"type": "t_uint64"
							},
							{
								"astId": 12,
								"contract": "src/voting.sol:Voting",
								"label": "amountGenerated",
								"offset": 12,
								"slot": "2",
								"type": "t_uint64"
							},
							{
								"astId": 14,
								"contract": "src/voting.sol:Voting",
								"label": "currentNoOfCandidates",
								"offset": 20,
								"slot": "2",
								"type": "t_uint16"
							},
							{
								"astId": 16,
								"contract": "src/voting.sol:Voting",
								"label": "voting",
								"offset": 22,
								"slot": "2",
								"type": "t_bool"
							},
							{
								"astId": 20,
								"contract": "src/voting.sol:Voting",
								"label": "CandidateStatus",
								"offset": 0,
								"slot": "3",
								"type": "t_mapping(t_address,t_bool)"
							},
							{
								"astId": 24,
								"contract": "src/voting.sol:Voting",
								"label": "hasVoted",
								"offset": 0,
								"slot": "4",
								"type": "t_mapping(t_address,t_bool)"
							},
							{
								"astId": 28,
								"contract": "src/voting.sol:Voting",
								"label": "CandidateVote",
								"offset": 0,
								"slot": "5",
								"type": "t_mapping(t_address,t_uint256)"
							}
						],
						"numberOfBytes": "192"
					},
					"t_uint16": {
						"encoding": "inplace",
						"label": "uint16",
						"numberOfBytes": "2"
					},
					"t_uint256": {
						"encoding": "inplace",
						"label": "uint256",
						"numberOfBytes": "32"
					},
					"t_uint32": {
						"encoding": "inplace",
						"label": "uint32",
						"numberOfBytes": "4"
					},
					"t_uint64": {
						"encoding": "inplace",
						"label": "uint64",
						"numberOfBytes": "8"
					}
				}
			},
			"userdoc": {
				"kind": "user",
				"methods": {},
				"version": 1
			}
		}
	}
}