{
	"src/voting.sol": {
		"Voting": {
			"abi": [
				{
					"anonymous": false,
					"inputs": [
						{
							"indexed": false,
							"internalType": "address",
							"name": "NewCandidate",
							"type": "address"
						}
					],
					"name": "becameCandidate",
					"type": "event"
				},
				{
					"anonymous": false,
					"inputs": [
						{
							"indexed": true,
							"internalType": "string",
							"name": "_name",
							"type": "string"
						},
						{
							"indexed": true,
							"internalType": "uint32",
							"name": "ExpectedNoOfCandidate",
							"type": "uint32"
						},
						{
							"indexed": true,
							"internalType": "uint256",
							"name": "_id",
							"type": "uint256"
						}
					],
					"name": "pollCreated",
					"type": "event"
				},
				{
					"anonymous": false,
					"inputs": [
						{
							"indexed": true,
							"internalType": "bool",
							"name": "status",
							"type": "bool"
						}
					],
					"name": "voteStatus",
					"type": "event"
				},
				{
					"anonymous": false,
					"inputs": [
						{
							"indexed": false,
							"internalType": "address",
							"name": "_candidate",
							"type": "address"
						},
						{
							"indexed": false,
							"internalType": "bool",
							"name": "status",
							"type": "bool"
						}
					],
					"name": "voted",
					"type": "event"
				},
				{
					"inputs": [
						{
							"internalType": "address",
							"name": "_newCandidate",
							"type": "address"
						},
						{
							"internalType": "uint256",
							"name": "_id",
							"type": "uint256"
						}
					],
					"name": "AddCandidate",
					"outputs": [],
					"stateMutability": "nonpayable",
					"type": "function"
				},
				{
					"inputs": [
						{
							"internalType": "uint256",
							"name": "_id",
							"type": "uint256"
						}
					],
					"name": "AllCandidates",
					"outputs": [
						{
							"internalType": "address[]",
							"name": "_candidates",
							"type": "address[]"
						}
					],
					"stateMutability": "view",
					"type": "function"
				},
				{
					"inputs": [
						{
							"internalType": "uint256",
							"name": "_id",
							"type": "uint256"
						}
					],
					"name": "NoOfRegisteredCandidates",
					"outputs": [
						{
							"internalType": "uint256",
							"name": "",
							"type": "uint256"
						}
					],
					"stateMutability": "view",
					"type": "function"
				},
				{
					"inputs": [
						{
							"internalType": "uint256",
							"name": "",
							"type": "uint256"
						}
					],
					"name": "VotingKey",
					"outputs": [
						{
							"internalType": "uint256",
							"name": "",
							"type": "uint256"
						}
					],
					"stateMutability": "view",
					"type": "function"
				},
				{
					"inputs": [
						{
							"internalType": "uint256",
							"name": "",
							"type": "uint256"
						}
					],
					"name": "VotingStruct",
					"outputs": [
						{
							"internalType": "string",
							"name": "name",
							"type": "string"
						},
						{
							"internalType": "address",
							"name": "chairman",
							"type": "address"
						},
						{
							"internalType": "uint32",
							"name": "maxNoOfCandidates",
							"type": "uint32"
						},
						{
							"internalType": "uint32",
							"name": "currentNoOfCandidates",
							"type": "uint32"
						},
						{
							"internalType": "bool",
							"name": "voting",
							"type": "bool"
						}
					],
					"stateMutability": "view",
					"type": "function"
				},
				{
					"inputs": [],
					"name": "arrayOfStruct",
					"outputs": [
						{
							"components": [
								{
									"internalType": "string",
									"name": "name",
									"type": "string"
								},
								{
									"internalType": "address",
									"name": "chairman",
									"type": "address"
								},
								{
									"internalType": "address[]",
									"name": "candidates",
									"type": "address[]"
								},
								{
									"internalType": "uint32",
									"name": "maxNoOfCandidates",
									"type": "uint32"
								},
								{
									"internalType": "uint32",
									"name": "currentNoOfCandidates",
									"type": "uint32"
								},
								{
									"internalType": "bool",
									"name": "voting",
									"type": "bool"
								}
							],
							"internalType": "struct Voting.VotingPoll[]",
							"name": "VP",
							"type": "tuple[]"
						}
					],
					"stateMutability": "nonpayable",
					"type": "function"
				},
				{
					"inputs": [
						{
							"internalType": "string",
							"name": "_name",
							"type": "string"
						},
						{
							"internalType": "uint32",
							"name": "ExpectedNoOfCandidate",
							"type": "uint32"
						}
					],
					"name": "createPoll",
					"outputs": [],
					"stateMutability": "nonpayable",
					"type": "function"
				},
				{
					"inputs": [
						{
							"internalType": "uint256",
							"name": "_id",
							"type": "uint256"
						}
					],
					"name": "getVotePollProps",
					"outputs": [
						{
							"components": [
								{
									"internalType": "string",
									"name": "name",
									"type": "string"
								},
								{
									"internalType": "address",
									"name": "chairman",
									"type": "address"
								},
								{
									"internalType": "address[]",
									"name": "candidates",
									"type": "address[]"
								},
								{
									"internalType": "uint32",
									"name": "maxNoOfCandidates",
									"type": "uint32"
								},
								{
									"internalType": "uint32",
									"name": "currentNoOfCandidates",
									"type": "uint32"
								},
								{
									"internalType": "bool",
									"name": "voting",
									"type": "bool"
								}
							],
							"internalType": "struct Voting.VotingPoll",
							"name": "",
							"type": "tuple"
						}
					],
					"stateMutability": "view",
					"type": "function"
				},
				{
					"inputs": [
						{
							"internalType": "address",
							"name": "Cand",
							"type": "address"
						},
						{
							"internalType": "uint256",
							"name": "_id",
							"type": "uint256"
						},
						{
							"internalType": "uint256",
							"name": "nonce",
							"type": "uint256"
						},
						{
							"internalType": "uint256",
							"name": "time",
							"type": "uint256"
						}
					],
					"name": "metaVotingHash",
					"outputs": [
						{
							"internalType": "bytes32",
							"name": "",
							"type": "bytes32"
						}
					],
					"stateMutability": "view",
					"type": "function"
				},
				{
					"inputs": [
						{
							"internalType": "address",
							"name": "",
							"type": "address"
						}
					],
					"name": "replayNonce",
					"outputs": [
						{
							"internalType": "uint256",
							"name": "",
							"type": "uint256"
						}
					],
					"stateMutability": "view",
					"type": "function"
				},
				{
					"inputs": [
						{
							"internalType": "uint256",
							"name": "_id",
							"type": "uint256"
						}
					],
					"name": "revealWinner",
					"outputs": [
						{
							"internalType": "uint256[]",
							"name": "CV",
							"type": "uint256[]"
						},
						{
							"internalType": "address",
							"name": "",
							"type": "address"
						},
						{
							"internalType": "uint256",
							"name": "",
							"type": "uint256"
						}
					],
					"stateMutability": "view",
					"type": "function"
				},
				{
					"inputs": [
						{
							"internalType": "uint256",
							"name": "_id",
							"type": "uint256"
						}
					],
					"name": "setVotingState",
					"outputs": [],
					"stateMutability": "nonpayable",
					"type": "function"
				},
				{
					"inputs": [
						{
							"internalType": "address",
							"name": "Cand",
							"type": "address"
						},
						{
							"internalType": "uint256",
							"name": "_id",
							"type": "uint256"
						},
						{
							"internalType": "uint256",
							"name": "nonce",
							"type": "uint256"
						},
						{
							"internalType": "bytes",
							"name": "signature",
							"type": "bytes"
						}
					],
					"name": "vote",
					"outputs": [],
					"stateMutability": "nonpayable",
					"type": "function"
				},
				{
					"inputs": [
						{
							"internalType": "uint256",
							"name": "",
							"type": "uint256"
						}
					],
					"name": "votingPoll",
					"outputs": [
						{
							"internalType": "string",
							"name": "name",
							"type": "string"
						},
						{
							"internalType": "address",
							"name": "chairman",
							"type": "address"
						},
						{
							"internalType": "uint32",
							"name": "maxNoOfCandidates",
							"type": "uint32"
						},
						{
							"internalType": "uint32",
							"name": "currentNoOfCandidates",
							"type": "uint32"
						},
						{
							"internalType": "bool",
							"name": "voting",
							"type": "bool"
						}
					],
					"stateMutability": "view",
					"type": "function"
				}
			],
			"devdoc": {
				"kind": "dev",
				"methods": {},
				"version": 1
			},
			"evm": {
				"assembly": "    /* \"src/voting.sol\":63:5550  contract Voting{... */\n  mstore(0x40, 0x80)\n    /* \"src/voting.sol\":159:160  1 */\n  0x01\n    /* \"src/voting.sol\":149:160  uint id = 1 */\n  0x00\n  sstore\n    /* \"src/voting.sol\":63:5550  contract Voting{... */\n  callvalue\n  dup1\n  iszero\n  tag_1\n  jumpi\n  0x00\n  dup1\n  revert\ntag_1:\n  pop\n  dataSize(sub_0)\n  dup1\n  dataOffset(sub_0)\n  0x00\n  codecopy\n  0x00\n  return\nstop\n\nsub_0: assembly {\n        /* \"src/voting.sol\":63:5550  contract Voting{... */\n      mstore(0x40, 0x80)\n      callvalue\n      dup1\n      iszero\n      tag_1\n      jumpi\n      0x00\n      dup1\n      revert\n    tag_1:\n      pop\n      jumpi(tag_2, lt(calldatasize, 0x04))\n      shr(0xe0, calldataload(0x00))\n      dup1\n      0xae928e3e\n      gt\n      tag_17\n      jumpi\n      dup1\n      0xc57003cc\n      gt\n      tag_18\n      jumpi\n      dup1\n      0xc57003cc\n      eq\n      tag_13\n      jumpi\n      dup1\n      0xe615f104\n      eq\n      tag_14\n      jumpi\n      dup1\n      0xf762f4c0\n      eq\n      tag_15\n      jumpi\n      dup1\n      0xfa4c5173\n      eq\n      tag_16\n      jumpi\n      jump(tag_2)\n    tag_18:\n      dup1\n      0xae928e3e\n      eq\n      tag_10\n      jumpi\n      dup1\n      0xbfe2e25d\n      eq\n      tag_11\n      jumpi\n      dup1\n      0xc10d6cec\n      eq\n      tag_12\n      jumpi\n      jump(tag_2)\n    tag_17:\n      dup1\n      0x67d407df\n      gt\n      tag_19\n      jumpi\n      dup1\n      0x67d407df\n      eq\n      tag_6\n      jumpi\n      dup1\n      0x8321f397\n      eq\n      tag_7\n      jumpi\n      dup1\n      0x8ac3c3c2\n      eq\n      tag_8\n      jumpi\n      dup1\n      0x8ccb59e8\n      eq\n      tag_9\n      jumpi\n      jump(tag_2)\n    tag_19:\n      dup1\n      0x049d1c8b\n      eq\n      tag_3\n      jumpi\n      dup1\n      0x278e2c90\n      eq\n      tag_4\n      jumpi\n      dup1\n      0x66c5343b\n      eq\n      tag_5\n      jumpi\n    tag_2:\n      0x00\n      dup1\n      revert\n        /* \"src/voting.sol\":1950:2451  function AddCandidate(address _newCandidate, uint _id) external{... */\n    tag_3:\n      tag_20\n      0x04\n      dup1\n      calldatasize\n      sub\n      dup2\n      add\n      swap1\n      tag_21\n      swap2\n      swap1\n      tag_22\n      jump\t// in\n    tag_21:\n      tag_23\n      jump\t// in\n    tag_20:\n      stop\n        /* \"src/voting.sol\":4458:4565  function getVotePollProps(uint _id) external view returns(VotingPoll memory){... */\n    tag_4:\n      tag_24\n      0x04\n      dup1\n      calldatasize\n      sub\n      dup2\n      add\n      swap1\n      tag_25\n      swap2\n      swap1\n      tag_26\n      jump\t// in\n    tag_25:\n      tag_27\n      jump\t// in\n    tag_24:\n      mload(0x40)\n      tag_28\n      swap2\n      swap1\n      tag_29\n      jump\t// in\n    tag_28:\n      mload(0x40)\n      dup1\n      swap2\n      sub\n      swap1\n      return\n        /* \"src/voting.sol\":3369:3527  function NoOfRegisteredCandidates( uint _id) public view returns(uint){... */\n    tag_5:\n      tag_30\n      0x04\n      dup1\n      calldatasize\n      sub\n      dup2\n      add\n      swap1\n      tag_31\n      swap2\n      swap1\n      tag_26\n      jump\t// in\n    tag_31:\n      tag_32\n      jump\t// in\n    tag_30:\n      mload(0x40)\n      tag_33\n      swap2\n      swap1\n      tag_34\n      jump\t// in\n    tag_33:\n      mload(0x40)\n      dup1\n      swap2\n      sub\n      swap1\n      return\n        /* \"src/voting.sol\":627:674  mapping (address => uint256) public replayNonce */\n    tag_6:\n      tag_35\n      0x04\n      dup1\n      calldatasize\n      sub\n      dup2\n      add\n      swap1\n      tag_36\n      swap2\n      swap1\n      tag_37\n      jump\t// in\n    tag_36:\n      tag_38\n      jump\t// in\n    tag_35:\n      mload(0x40)\n      tag_39\n      swap2\n      swap1\n      tag_34\n      jump\t// in\n    tag_39:\n      mload(0x40)\n      dup1\n      swap2\n      sub\n      swap1\n      return\n        /* \"src/voting.sol\":484:516  VotingPoll[] public VotingStruct */\n    tag_7:\n      tag_40\n      0x04\n      dup1\n      calldatasize\n      sub\n      dup2\n      add\n      swap1\n      tag_41\n      swap2\n      swap1\n      tag_26\n      jump\t// in\n    tag_41:\n      tag_42\n      jump\t// in\n    tag_40:\n      mload(0x40)\n      tag_43\n      swap6\n      swap5\n      swap4\n      swap3\n      swap2\n      swap1\n      tag_44\n      jump\t// in\n    tag_43:\n      mload(0x40)\n      dup1\n      swap2\n      sub\n      swap1\n      return\n        /* \"src/voting.sol\":3532:3692  function AllCandidates( uint _id) public view returns(address[] memory _candidates){... */\n    tag_8:\n      tag_45\n      0x04\n      dup1\n      calldatasize\n      sub\n      dup2\n      add\n      swap1\n      tag_46\n      swap2\n      swap1\n      tag_26\n      jump\t// in\n    tag_46:\n      tag_47\n      jump\t// in\n    tag_45:\n      mload(0x40)\n      tag_48\n      swap2\n      swap1\n      tag_49\n      jump\t// in\n    tag_48:\n      mload(0x40)\n      dup1\n      swap2\n      sub\n      swap1\n      return\n        /* \"src/voting.sol\":3695:4274  function revealWinner( uint _id) external view returns ( uint[] memory CV, address, uint){... */\n    tag_9:\n      tag_50\n      0x04\n      dup1\n      calldatasize\n      sub\n      dup2\n      add\n      swap1\n      tag_51\n      swap2\n      swap1\n      tag_26\n      jump\t// in\n    tag_51:\n      tag_52\n      jump\t// in\n    tag_50:\n      mload(0x40)\n      tag_53\n      swap4\n      swap3\n      swap2\n      swap1\n      tag_54\n      jump\t// in\n    tag_53:\n      mload(0x40)\n      dup1\n      swap2\n      sub\n      swap1\n      return\n        /* \"src/voting.sol\":459:482  uint[] public VotingKey */\n    tag_10:\n      tag_55\n      0x04\n      dup1\n      calldatasize\n      sub\n      dup2\n      add\n      swap1\n      tag_56\n      swap2\n      swap1\n      tag_26\n      jump\t// in\n    tag_56:\n      tag_57\n      jump\t// in\n    tag_55:\n      mload(0x40)\n      tag_58\n      swap2\n      swap1\n      tag_34\n      jump\t// in\n    tag_58:\n      mload(0x40)\n      dup1\n      swap2\n      sub\n      swap1\n      return\n        /* \"src/voting.sol\":4745:4960  function metaVotingHash(address Cand, uint _id, uint256 nonce, uint256 time) public view returns(bytes32){... */\n    tag_11:\n      tag_59\n      0x04\n      dup1\n      calldatasize\n      sub\n      dup2\n      add\n      swap1\n      tag_60\n      swap2\n      swap1\n      tag_61\n      jump\t// in\n    tag_60:\n      tag_62\n      jump\t// in\n    tag_59:\n      mload(0x40)\n      tag_63\n      swap2\n      swap1\n      tag_64\n      jump\t// in\n    tag_63:\n      mload(0x40)\n      dup1\n      swap2\n      sub\n      swap1\n      return\n        /* \"src/voting.sol\":2454:2945  function vote(address Cand, uint _id, uint256 nonce, bytes memory signature) external  isCandidate(Cand, _id) StillVoting(_id){... */\n    tag_12:\n      tag_65\n      0x04\n      dup1\n      calldatasize\n      sub\n      dup2\n      add\n      swap1\n      tag_66\n      swap2\n      swap1\n      tag_67\n      jump\t// in\n    tag_66:\n      tag_68\n      jump\t// in\n    tag_65:\n      stop\n        /* \"src/voting.sol\":3144:3366  function setVotingState( uint _id) external {... */\n    tag_13:\n      tag_69\n      0x04\n      dup1\n      calldatasize\n      sub\n      dup2\n      add\n      swap1\n      tag_70\n      swap2\n      swap1\n      tag_26\n      jump\t// in\n    tag_70:\n      tag_71\n      jump\t// in\n    tag_69:\n      stop\n        /* \"src/voting.sol\":580:625  mapping(uint => VotingPoll) public votingPoll */\n    tag_14:\n      tag_72\n      0x04\n      dup1\n      calldatasize\n      sub\n      dup2\n      add\n      swap1\n      tag_73\n      swap2\n      swap1\n      tag_26\n      jump\t// in\n    tag_73:\n      tag_74\n      jump\t// in\n    tag_72:\n      mload(0x40)\n      tag_75\n      swap6\n      swap5\n      swap4\n      swap3\n      swap2\n      swap1\n      tag_44\n      jump\t// in\n    tag_75:\n      mload(0x40)\n      dup1\n      swap2\n      sub\n      swap1\n      return\n        /* \"src/voting.sol\":1627:1946  function createPoll(string memory _name, uint32 ExpectedNoOfCandidate) external {... */\n    tag_15:\n      tag_76\n      0x04\n      dup1\n      calldatasize\n      sub\n      dup2\n      add\n      swap1\n      tag_77\n      swap2\n      swap1\n      tag_78\n      jump\t// in\n    tag_77:\n      tag_79\n      jump\t// in\n    tag_76:\n      stop\n        /* \"src/voting.sol\":4568:4740  function arrayOfStruct() external returns(VotingPoll[] memory VP){... */\n    tag_16:\n      tag_80\n      tag_81\n      jump\t// in\n    tag_80:\n      mload(0x40)\n      tag_82\n      swap2\n      swap1\n      tag_83\n      jump\t// in\n    tag_82:\n      mload(0x40)\n      dup1\n      swap2\n      sub\n      swap1\n      return\n        /* \"src/voting.sol\":1950:2451  function AddCandidate(address _newCandidate, uint _id) external{... */\n    tag_23:\n        /* \"src/voting.sol\":2020:2041  VotingPoll storage VP */\n      0x00\n        /* \"src/voting.sol\":2044:2054  votingPoll */\n      0x03\n        /* \"src/voting.sol\":2044:2059  votingPoll[_id] */\n      0x00\n        /* \"src/voting.sol\":2055:2058  _id */\n      dup4\n        /* \"src/voting.sol\":2044:2059  votingPoll[_id] */\n      dup2\n      mstore\n      0x20\n      add\n      swap1\n      dup2\n      mstore\n      0x20\n      add\n      0x00\n      keccak256\n        /* \"src/voting.sol\":2020:2059  VotingPoll storage VP = votingPoll[_id] */\n      swap1\n      pop\n        /* \"src/voting.sol\":2098:2099  0 */\n      0x00\n        /* \"src/voting.sol\":2075:2100  VP.chairman != address(0) */\n      0xffffffffffffffffffffffffffffffffffffffff\n      and\n        /* \"src/voting.sol\":2075:2077  VP */\n      dup2\n        /* \"src/voting.sol\":2075:2086  VP.chairman */\n      0x01\n      add\n      0x00\n      swap1\n      sload\n      swap1\n      0x0100\n      exp\n      swap1\n      div\n      0xffffffffffffffffffffffffffffffffffffffff\n      and\n        /* \"src/voting.sol\":2075:2100  VP.chairman != address(0) */\n      0xffffffffffffffffffffffffffffffffffffffff\n      and\n      eq\n      iszero\n        /* \"src/voting.sol\":2066:2126  require (VP.chairman != address(0) , \"yet to create a poll\") */\n      tag_85\n      jumpi\n      mload(0x40)\n      0x08c379a000000000000000000000000000000000000000000000000000000000\n      dup2\n      mstore\n      0x04\n      add\n      tag_86\n      swap1\n      tag_87\n      jump\t// in\n    tag_86:\n      mload(0x40)\n      dup1\n      swap2\n      sub\n      swap1\n      revert\n    tag_85:\n        /* \"src/voting.sol\":2157:2167  msg.sender */\n      caller\n        /* \"src/voting.sol\":2142:2167  VP.chairman == msg.sender */\n      0xffffffffffffffffffffffffffffffffffffffff\n      and\n        /* \"src/voting.sol\":2142:2144  VP */\n      dup2\n        /* \"src/voting.sol\":2142:2153  VP.chairman */\n      0x01\n      add\n      0x00\n      swap1\n      sload\n      swap1\n      0x0100\n      exp\n      swap1\n      div\n      0xffffffffffffffffffffffffffffffffffffffff\n      and\n        /* \"src/voting.sol\":2142:2167  VP.chairman == msg.sender */\n      0xffffffffffffffffffffffffffffffffffffffff\n      and\n      eq\n        /* \"src/voting.sol\":2135:2168  assert(VP.chairman == msg.sender) */\n      tag_88\n      jumpi\n      tag_89\n      tag_90\n      jump\t// in\n    tag_89:\n    tag_88:\n        /* \"src/voting.sol\":2210:2212  VP */\n      dup1\n        /* \"src/voting.sol\":2210:2230  VP.maxNoOfCandidates */\n      0x03\n      add\n      0x00\n      swap1\n      sload\n      swap1\n      0x0100\n      exp\n      swap1\n      div\n      0xffffffff\n      and\n        /* \"src/voting.sol\":2183:2230  VP.currentNoOfCandidates < VP.maxNoOfCandidates */\n      0xffffffff\n      and\n        /* \"src/voting.sol\":2183:2185  VP */\n      dup2\n        /* \"src/voting.sol\":2183:2207  VP.currentNoOfCandidates */\n      0x03\n      add\n      0x04\n      swap1\n      sload\n      swap1\n      0x0100\n      exp\n      swap1\n      div\n      0xffffffff\n      and\n        /* \"src/voting.sol\":2183:2230  VP.currentNoOfCandidates < VP.maxNoOfCandidates */\n      0xffffffff\n      and\n      lt\n        /* \"src/voting.sol\":2175:2281  require(VP.currentNoOfCandidates < VP.maxNoOfCandidates, \"maximum no of candidate per session registered\") */\n      tag_91\n      jumpi\n      mload(0x40)\n      0x08c379a000000000000000000000000000000000000000000000000000000000\n      dup2\n      mstore\n      0x04\n      add\n      tag_92\n      swap1\n      tag_93\n      jump\t// in\n    tag_92:\n      mload(0x40)\n      dup1\n      swap2\n      sub\n      swap1\n      revert\n    tag_91:\n        /* \"src/voting.sol\":2326:2330  true */\n      0x01\n        /* \"src/voting.sol\":2288:2303  CandidateStatus */\n      0x05\n        /* \"src/voting.sol\":2288:2308  CandidateStatus[_id] */\n      0x00\n        /* \"src/voting.sol\":2304:2307  _id */\n      dup5\n        /* \"src/voting.sol\":2288:2308  CandidateStatus[_id] */\n      dup2\n      mstore\n      0x20\n      add\n      swap1\n      dup2\n      mstore\n      0x20\n      add\n      0x00\n      keccak256\n        /* \"src/voting.sol\":2288:2323  CandidateStatus[_id][_newCandidate] */\n      0x00\n        /* \"src/voting.sol\":2309:2322  _newCandidate */\n      dup6\n        /* \"src/voting.sol\":2288:2323  CandidateStatus[_id][_newCandidate] */\n      0xffffffffffffffffffffffffffffffffffffffff\n      and\n      0xffffffffffffffffffffffffffffffffffffffff\n      and\n      dup2\n      mstore\n      0x20\n      add\n      swap1\n      dup2\n      mstore\n      0x20\n      add\n      0x00\n      keccak256\n      0x00\n        /* \"src/voting.sol\":2288:2330  CandidateStatus[_id][_newCandidate] = true */\n      0x0100\n      exp\n      dup2\n      sload\n      dup2\n      0xff\n      mul\n      not\n      and\n      swap1\n      dup4\n      iszero\n      iszero\n      mul\n      or\n      swap1\n      sstore\n      pop\n        /* \"src/voting.sol\":2338:2340  VP */\n      dup1\n        /* \"src/voting.sol\":2338:2351  VP.candidates */\n      0x02\n      add\n        /* \"src/voting.sol\":2357:2370  _newCandidate */\n      dup4\n        /* \"src/voting.sol\":2338:2371  VP.candidates.push(_newCandidate) */\n      swap1\n      dup1\n      0x01\n      dup2\n      sload\n      add\n      dup1\n      dup3\n      sstore\n      dup1\n      swap2\n      pop\n      pop\n      0x01\n      swap1\n      sub\n      swap1\n      0x00\n      mstore\n      keccak256(0x00, 0x20)\n      add\n      0x00\n      swap1\n      swap2\n      swap1\n      swap2\n      swap1\n      swap2\n      0x0100\n      exp\n      dup2\n      sload\n      dup2\n      0xffffffffffffffffffffffffffffffffffffffff\n      mul\n      not\n      and\n      swap1\n      dup4\n      0xffffffffffffffffffffffffffffffffffffffff\n      and\n      mul\n      or\n      swap1\n      sstore\n      pop\n        /* \"src/voting.sol\":2379:2381  VP */\n      dup1\n        /* \"src/voting.sol\":2379:2403  VP.currentNoOfCandidates */\n      0x03\n      add\n      0x04\n        /* \"src/voting.sol\":2379:2405  VP.currentNoOfCandidates++ */\n      dup2\n      dup2\n      swap1\n      sload\n      swap1\n      0x0100\n      exp\n      swap1\n      div\n      0xffffffff\n      and\n      dup1\n      swap3\n      swap2\n      swap1\n      tag_95\n      swap1\n      tag_96\n      jump\t// in\n    tag_95:\n      swap2\n      swap1\n      0x0100\n      exp\n      dup2\n      sload\n      dup2\n      0xffffffff\n      mul\n      not\n      and\n      swap1\n      dup4\n      0xffffffff\n      and\n      mul\n      or\n      swap1\n      sstore\n      pop\n      pop\n        /* \"src/voting.sol\":2417:2447  becameCandidate(_newCandidate) */\n      0xc19c59aa93348e8fc54764bc642eca975e2639f44cc683ef8f027e1529cbda32\n        /* \"src/voting.sol\":2433:2446  _newCandidate */\n      dup4\n        /* \"src/voting.sol\":2417:2447  becameCandidate(_newCandidate) */\n      mload(0x40)\n      tag_97\n      swap2\n      swap1\n      tag_98\n      jump\t// in\n    tag_97:\n      mload(0x40)\n      dup1\n      swap2\n      sub\n      swap1\n      log1\n        /* \"src/voting.sol\":2013:2451  {... */\n      pop\n        /* \"src/voting.sol\":1950:2451  function AddCandidate(address _newCandidate, uint _id) external{... */\n      pop\n      pop\n      jump\t// out\n        /* \"src/voting.sol\":4458:4565  function getVotePollProps(uint _id) external view returns(VotingPoll memory){... */\n    tag_27:\n        /* \"src/voting.sol\":4516:4533  VotingPoll memory */\n      tag_99\n      tag_100\n      jump\t// in\n    tag_99:\n        /* \"src/voting.sol\":4546:4556  votingPoll */\n      0x03\n        /* \"src/voting.sol\":4546:4561  votingPoll[_id] */\n      0x00\n        /* \"src/voting.sol\":4557:4560  _id */\n      dup4\n        /* \"src/voting.sol\":4546:4561  votingPoll[_id] */\n      dup2\n      mstore\n      0x20\n      add\n      swap1\n      dup2\n      mstore\n      0x20\n      add\n      0x00\n      keccak256\n        /* \"src/voting.sol\":4539:4561  return votingPoll[_id] */\n      mload(0x40)\n      dup1\n      0xc0\n      add\n      0x40\n      mstore\n      swap1\n      dup2\n      0x00\n      dup3\n      add\n      dup1\n      sload\n      tag_102\n      swap1\n      tag_103\n      jump\t// in\n    tag_102:\n      dup1\n      0x1f\n      add\n      0x20\n      dup1\n      swap2\n      div\n      mul\n      0x20\n      add\n      mload(0x40)\n      swap1\n      dup2\n      add\n      0x40\n      mstore\n      dup1\n      swap3\n      swap2\n      swap1\n      dup2\n      dup2\n      mstore\n      0x20\n      add\n      dup3\n      dup1\n      sload\n      tag_104\n      swap1\n      tag_103\n      jump\t// in\n    tag_104:\n      dup1\n      iszero\n      tag_105\n      jumpi\n      dup1\n      0x1f\n      lt\n      tag_106\n      jumpi\n      0x0100\n      dup1\n      dup4\n      sload\n      div\n      mul\n      dup4\n      mstore\n      swap2\n      0x20\n      add\n      swap2\n      jump(tag_105)\n    tag_106:\n      dup3\n      add\n      swap2\n      swap1\n      0x00\n      mstore\n      keccak256(0x00, 0x20)\n      swap1\n    tag_107:\n      dup2\n      sload\n      dup2\n      mstore\n      swap1\n      0x01\n      add\n      swap1\n      0x20\n      add\n      dup1\n      dup4\n      gt\n      tag_107\n      jumpi\n      dup3\n      swap1\n      sub\n      0x1f\n      and\n      dup3\n      add\n      swap2\n    tag_105:\n      pop\n      pop\n      pop\n      pop\n      pop\n      dup2\n      mstore\n      0x20\n      add\n      0x01\n      dup3\n      add\n      0x00\n      swap1\n      sload\n      swap1\n      0x0100\n      exp\n      swap1\n      div\n      0xffffffffffffffffffffffffffffffffffffffff\n      and\n      0xffffffffffffffffffffffffffffffffffffffff\n      and\n      0xffffffffffffffffffffffffffffffffffffffff\n      and\n      dup2\n      mstore\n      0x20\n      add\n      0x02\n      dup3\n      add\n      dup1\n      sload\n      dup1\n      0x20\n      mul\n      0x20\n      add\n      mload(0x40)\n      swap1\n      dup2\n      add\n      0x40\n      mstore\n      dup1\n      swap3\n      swap2\n      swap1\n      dup2\n      dup2\n      mstore\n      0x20\n      add\n      dup3\n      dup1\n      sload\n      dup1\n      iszero\n      tag_108\n      jumpi\n      0x20\n      mul\n      dup3\n      add\n      swap2\n      swap1\n      0x00\n      mstore\n      keccak256(0x00, 0x20)\n      swap1\n    tag_109:\n      dup2\n      0x00\n      swap1\n      sload\n      swap1\n      0x0100\n      exp\n      swap1\n      div\n      0xffffffffffffffffffffffffffffffffffffffff\n      and\n      0xffffffffffffffffffffffffffffffffffffffff\n      and\n      dup2\n      mstore\n      0x20\n      add\n      swap1\n      0x01\n      add\n      swap1\n      dup1\n      dup4\n      gt\n      tag_109\n      jumpi\n    tag_108:\n      pop\n      pop\n      pop\n      pop\n      pop\n      dup2\n      mstore\n      0x20\n      add\n      0x03\n      dup3\n      add\n      0x00\n      swap1\n      sload\n      swap1\n      0x0100\n      exp\n      swap1\n      div\n      0xffffffff\n      and\n      0xffffffff\n      and\n      0xffffffff\n      and\n      dup2\n      mstore\n      0x20\n      add\n      0x03\n      dup3\n      add\n      0x04\n      swap1\n      sload\n      swap1\n      0x0100\n      exp\n      swap1\n      div\n      0xffffffff\n      and\n      0xffffffff\n      and\n      0xffffffff\n      and\n      dup2\n      mstore\n      0x20\n      add\n      0x03\n      dup3\n      add\n      0x08\n      swap1\n      sload\n      swap1\n      0x0100\n      exp\n      swap1\n      div\n      0xff\n      and\n      iszero\n      iszero\n      iszero\n      iszero\n      dup2\n      mstore\n      pop\n      pop\n      swap1\n      pop\n        /* \"src/voting.sol\":4458:4565  function getVotePollProps(uint _id) external view returns(VotingPoll memory){... */\n      swap2\n      swap1\n      pop\n      jump\t// out\n        /* \"src/voting.sol\":3369:3527  function NoOfRegisteredCandidates( uint _id) public view returns(uint){... */\n    tag_32:\n        /* \"src/voting.sol\":3434:3438  uint */\n      0x00\n        /* \"src/voting.sol\":3446:3467  VotingPoll storage VP */\n      dup1\n        /* \"src/voting.sol\":3470:3480  votingPoll */\n      0x03\n        /* \"src/voting.sol\":3470:3485  votingPoll[_id] */\n      0x00\n        /* \"src/voting.sol\":3481:3484  _id */\n      dup5\n        /* \"src/voting.sol\":3470:3485  votingPoll[_id] */\n      dup2\n      mstore\n      0x20\n      add\n      swap1\n      dup2\n      mstore\n      0x20\n      add\n      0x00\n      keccak256\n        /* \"src/voting.sol\":3446:3485  VotingPoll storage VP = votingPoll[_id] */\n      swap1\n      pop\n        /* \"src/voting.sol\":3499:3501  VP */\n      dup1\n        /* \"src/voting.sol\":3499:3523  VP.currentNoOfCandidates */\n      0x03\n      add\n      0x04\n      swap1\n      sload\n      swap1\n      0x0100\n      exp\n      swap1\n      div\n      0xffffffff\n      and\n        /* \"src/voting.sol\":3492:3523  return VP.currentNoOfCandidates */\n      0xffffffff\n      and\n      swap2\n      pop\n      pop\n        /* \"src/voting.sol\":3369:3527  function NoOfRegisteredCandidates( uint _id) public view returns(uint){... */\n      swap2\n      swap1\n      pop\n      jump\t// out\n        /* \"src/voting.sol\":627:674  mapping (address => uint256) public replayNonce */\n    tag_38:\n      mstore(0x20, 0x04)\n      dup1\n      0x00\n      mstore\n      keccak256(0x00, 0x40)\n      0x00\n      swap2\n      pop\n      swap1\n      pop\n      sload\n      dup2\n      jump\t// out\n        /* \"src/voting.sol\":484:516  VotingPoll[] public VotingStruct */\n    tag_42:\n      0x02\n      dup2\n      dup2\n      sload\n      dup2\n      lt\n      tag_111\n      jumpi\n      0x00\n      dup1\n      revert\n    tag_111:\n      swap1\n      0x00\n      mstore\n      keccak256(0x00, 0x20)\n      swap1\n      0x04\n      mul\n      add\n      0x00\n      swap2\n      pop\n      swap1\n      pop\n      dup1\n      0x00\n      add\n      dup1\n      sload\n      tag_113\n      swap1\n      tag_103\n      jump\t// in\n    tag_113:\n      dup1\n      0x1f\n      add\n      0x20\n      dup1\n      swap2\n      div\n      mul\n      0x20\n      add\n      mload(0x40)\n      swap1\n      dup2\n      add\n      0x40\n      mstore\n      dup1\n      swap3\n      swap2\n      swap1\n      dup2\n      dup2\n      mstore\n      0x20\n      add\n      dup3\n      dup1\n      sload\n      tag_114\n      swap1\n      tag_103\n      jump\t// in\n    tag_114:\n      dup1\n      iszero\n      tag_115\n      jumpi\n      dup1\n      0x1f\n      lt\n      tag_116\n      jumpi\n      0x0100\n      dup1\n      dup4\n      sload\n      div\n      mul\n      dup4\n      mstore\n      swap2\n      0x20\n      add\n      swap2\n      jump(tag_115)\n    tag_116:\n      dup3\n      add\n      swap2\n      swap1\n      0x00\n      mstore\n      keccak256(0x00, 0x20)\n      swap1\n    tag_117:\n      dup2\n      sload\n      dup2\n      mstore\n      swap1\n      0x01\n      add\n      swap1\n      0x20\n      add\n      dup1\n      dup4\n      gt\n      tag_117\n      jumpi\n      dup3\n      swap1\n      sub\n      0x1f\n      and\n      dup3\n      add\n      swap2\n    tag_115:\n      pop\n      pop\n      pop\n      pop\n      pop\n      swap1\n      dup1\n      0x01\n      add\n      0x00\n      swap1\n      sload\n      swap1\n      0x0100\n      exp\n      swap1\n      div\n      0xffffffffffffffffffffffffffffffffffffffff\n      and\n      swap1\n      dup1\n      0x03\n      add\n      0x00\n      swap1\n      sload\n      swap1\n      0x0100\n      exp\n      swap1\n      div\n      0xffffffff\n      and\n      swap1\n      dup1\n      0x03\n      add\n      0x04\n      swap1\n      sload\n      swap1\n      0x0100\n      exp\n      swap1\n      div\n      0xffffffff\n      and\n      swap1\n      dup1\n      0x03\n      add\n      0x08\n      swap1\n      sload\n      swap1\n      0x0100\n      exp\n      swap1\n      div\n      0xff\n      and\n      swap1\n      pop\n      dup6\n      jump\t// out\n        /* \"src/voting.sol\":3532:3692  function AllCandidates( uint _id) public view returns(address[] memory _candidates){... */\n    tag_47:\n        /* \"src/voting.sol\":3586:3614  address[] memory _candidates */\n      0x60\n        /* \"src/voting.sol\":3622:3643  VotingPoll storage VP */\n      0x00\n        /* \"src/voting.sol\":3646:3656  votingPoll */\n      0x03\n        /* \"src/voting.sol\":3646:3661  votingPoll[_id] */\n      0x00\n        /* \"src/voting.sol\":3657:3660  _id */\n      dup5\n        /* \"src/voting.sol\":3646:3661  votingPoll[_id] */\n      dup2\n      mstore\n      0x20\n      add\n      swap1\n      dup2\n      mstore\n      0x20\n      add\n      0x00\n      keccak256\n        /* \"src/voting.sol\":3622:3661  VotingPoll storage VP = votingPoll[_id] */\n      swap1\n      pop\n        /* \"src/voting.sol\":3675:3677  VP */\n      dup1\n        /* \"src/voting.sol\":3675:3688  VP.candidates */\n      0x02\n      add\n        /* \"src/voting.sol\":3668:3688  return VP.candidates */\n      dup1\n      sload\n      dup1\n      0x20\n      mul\n      0x20\n      add\n      mload(0x40)\n      swap1\n      dup2\n      add\n      0x40\n      mstore\n      dup1\n      swap3\n      swap2\n      swap1\n      dup2\n      dup2\n      mstore\n      0x20\n      add\n      dup3\n      dup1\n      sload\n      dup1\n      iszero\n      tag_119\n      jumpi\n      0x20\n      mul\n      dup3\n      add\n      swap2\n      swap1\n      0x00\n      mstore\n      keccak256(0x00, 0x20)\n      swap1\n    tag_120:\n      dup2\n      0x00\n      swap1\n      sload\n      swap1\n      0x0100\n      exp\n      swap1\n      div\n      0xffffffffffffffffffffffffffffffffffffffff\n      and\n      0xffffffffffffffffffffffffffffffffffffffff\n      and\n      dup2\n      mstore\n      0x20\n      add\n      swap1\n      0x01\n      add\n      swap1\n      dup1\n      dup4\n      gt\n      tag_120\n      jumpi\n    tag_119:\n      pop\n      pop\n      pop\n      pop\n      pop\n      swap2\n      pop\n      pop\n        /* \"src/voting.sol\":3532:3692  function AllCandidates( uint _id) public view returns(address[] memory _candidates){... */\n      swap2\n      swap1\n      pop\n      jump\t// out\n        /* \"src/voting.sol\":3695:4274  function revealWinner( uint _id) external view returns ( uint[] memory CV, address, uint){... */\n    tag_52:\n        /* \"src/voting.sol\":3752:3768  uint[] memory CV */\n      0x60\n        /* \"src/voting.sol\":3770:3777  address */\n      0x00\n        /* \"src/voting.sol\":3779:3783  uint */\n      dup1\n        /* \"src/voting.sol\":3791:3812  VotingPoll storage VP */\n      0x00\n        /* \"src/voting.sol\":3815:3825  votingPoll */\n      0x03\n        /* \"src/voting.sol\":3815:3830  votingPoll[_id] */\n      0x00\n        /* \"src/voting.sol\":3826:3829  _id */\n      dup7\n        /* \"src/voting.sol\":3815:3830  votingPoll[_id] */\n      dup2\n      mstore\n      0x20\n      add\n      swap1\n      dup2\n      mstore\n      0x20\n      add\n      0x00\n      keccak256\n        /* \"src/voting.sol\":3791:3830  VotingPoll storage VP = votingPoll[_id] */\n      swap1\n      pop\n        /* \"src/voting.sol\":3868:3869  0 */\n      0x00\n        /* \"src/voting.sol\":3845:3870  VP.chairman != address(0) */\n      0xffffffffffffffffffffffffffffffffffffffff\n      and\n        /* \"src/voting.sol\":3845:3847  VP */\n      dup2\n        /* \"src/voting.sol\":3845:3856  VP.chairman */\n      0x01\n      add\n      0x00\n      swap1\n      sload\n      swap1\n      0x0100\n      exp\n      swap1\n      div\n      0xffffffffffffffffffffffffffffffffffffffff\n      and\n        /* \"src/voting.sol\":3845:3870  VP.chairman != address(0) */\n      0xffffffffffffffffffffffffffffffffffffffff\n      and\n      eq\n      iszero\n        /* \"src/voting.sol\":3837:3890  require(VP.chairman != address(0), \"No poll created\") */\n      tag_122\n      jumpi\n      mload(0x40)\n      0x08c379a000000000000000000000000000000000000000000000000000000000\n      dup2\n      mstore\n      0x04\n      add\n      tag_123\n      swap1\n      tag_124\n      jump\t// in\n    tag_123:\n      mload(0x40)\n      dup1\n      swap2\n      sub\n      swap1\n      revert\n    tag_122:\n        /* \"src/voting.sol\":3913:3915  VP */\n      dup1\n        /* \"src/voting.sol\":3913:3926  VP.candidates */\n      0x02\n      add\n        /* \"src/voting.sol\":3913:3933  VP.candidates.length */\n      dup1\n      sload\n      swap1\n      pop\n        /* \"src/voting.sol\":3902:3934  new uint[](VP.candidates.length) */\n      0xffffffffffffffff\n      dup2\n      gt\n      iszero\n      tag_125\n      jumpi\n      tag_126\n      tag_127\n      jump\t// in\n    tag_126:\n    tag_125:\n      mload(0x40)\n      swap1\n      dup1\n      dup3\n      mstore\n      dup1\n      0x20\n      mul\n      0x20\n      add\n      dup3\n      add\n      0x40\n      mstore\n      dup1\n      iszero\n      tag_128\n      jumpi\n      dup2\n      0x20\n      add\n      0x20\n      dup3\n      mul\n      dup1\n      calldatasize\n      dup4\n      calldatacopy\n      dup1\n      dup3\n      add\n      swap2\n      pop\n      pop\n      swap1\n      pop\n    tag_128:\n      pop\n        /* \"src/voting.sol\":3897:3934  CV = new uint[](VP.candidates.length) */\n      swap4\n      pop\n        /* \"src/voting.sol\":3941:3957  uint highestVote */\n      0x00\n        /* \"src/voting.sol\":3964:3978  address winner */\n      dup1\n        /* \"src/voting.sol\":3990:3996  uint i */\n      0x00\n        /* \"src/voting.sol\":3985:4232  for (uint i = 0; i < VP.candidates.length; i++){... */\n    tag_129:\n        /* \"src/voting.sol\":4006:4008  VP */\n      dup4\n        /* \"src/voting.sol\":4006:4019  VP.candidates */\n      0x02\n      add\n        /* \"src/voting.sol\":4006:4026  VP.candidates.length */\n      dup1\n      sload\n      swap1\n      pop\n        /* \"src/voting.sol\":4002:4003  i */\n      dup2\n        /* \"src/voting.sol\":4002:4026  i < VP.candidates.length */\n      lt\n        /* \"src/voting.sol\":3985:4232  for (uint i = 0; i < VP.candidates.length; i++){... */\n      iszero\n      tag_130\n      jumpi\n        /* \"src/voting.sol\":4041:4049  uint val */\n      0x00\n        /* \"src/voting.sol\":4052:4070  getPosition(_id,i) */\n      tag_132\n        /* \"src/voting.sol\":4064:4067  _id */\n      dup10\n        /* \"src/voting.sol\":4068:4069  i */\n      dup4\n        /* \"src/voting.sol\":4052:4063  getPosition */\n      tag_133\n        /* \"src/voting.sol\":4052:4070  getPosition(_id,i) */\n      jump\t// in\n    tag_132:\n        /* \"src/voting.sol\":4041:4070  uint val = getPosition(_id,i) */\n      swap1\n      pop\n        /* \"src/voting.sol\":4086:4097  highestVote */\n      dup4\n        /* \"src/voting.sol\":4080:4083  val */\n      dup2\n        /* \"src/voting.sol\":4080:4097  val > highestVote */\n      gt\n        /* \"src/voting.sol\":4077:4171  if(val > highestVote){... */\n      iszero\n      tag_134\n      jumpi\n        /* \"src/voting.sol\":4123:4126  val */\n      dup1\n        /* \"src/voting.sol\":4109:4126  highestVote = val */\n      swap4\n      pop\n        /* \"src/voting.sol\":4147:4149  VP */\n      dup5\n        /* \"src/voting.sol\":4147:4160  VP.candidates */\n      0x02\n      add\n        /* \"src/voting.sol\":4161:4162  i */\n      dup3\n        /* \"src/voting.sol\":4147:4163  VP.candidates[i] */\n      dup2\n      sload\n      dup2\n      lt\n      tag_135\n      jumpi\n      tag_136\n      tag_137\n      jump\t// in\n    tag_136:\n    tag_135:\n      swap1\n      0x00\n      mstore\n      keccak256(0x00, 0x20)\n      add\n      0x00\n      swap1\n      sload\n      swap1\n      0x0100\n      exp\n      swap1\n      div\n      0xffffffffffffffffffffffffffffffffffffffff\n      and\n        /* \"src/voting.sol\":4138:4163  winner = VP.candidates[i] */\n      swap3\n      pop\n        /* \"src/voting.sol\":4077:4171  if(val > highestVote){... */\n    tag_134:\n        /* \"src/voting.sol\":4186:4199  CandidateVote */\n      0x06\n        /* \"src/voting.sol\":4186:4204  CandidateVote[_id] */\n      0x00\n        /* \"src/voting.sol\":4200:4203  _id */\n      dup11\n        /* \"src/voting.sol\":4186:4204  CandidateVote[_id] */\n      dup2\n      mstore\n      0x20\n      add\n      swap1\n      dup2\n      mstore\n      0x20\n      add\n      0x00\n      keccak256\n        /* \"src/voting.sol\":4186:4222  CandidateVote[_id][VP.candidates[i]] */\n      0x00\n        /* \"src/voting.sol\":4205:4207  VP */\n      dup7\n        /* \"src/voting.sol\":4205:4218  VP.candidates */\n      0x02\n      add\n        /* \"src/voting.sol\":4219:4220  i */\n      dup5\n        /* \"src/voting.sol\":4205:4221  VP.candidates[i] */\n      dup2\n      sload\n      dup2\n      lt\n      tag_139\n      jumpi\n      tag_140\n      tag_137\n      jump\t// in\n    tag_140:\n    tag_139:\n      swap1\n      0x00\n      mstore\n      keccak256(0x00, 0x20)\n      add\n      0x00\n      swap1\n      sload\n      swap1\n      0x0100\n      exp\n      swap1\n      div\n      0xffffffffffffffffffffffffffffffffffffffff\n      and\n        /* \"src/voting.sol\":4186:4222  CandidateVote[_id][VP.candidates[i]] */\n      0xffffffffffffffffffffffffffffffffffffffff\n      and\n      0xffffffffffffffffffffffffffffffffffffffff\n      and\n      dup2\n      mstore\n      0x20\n      add\n      swap1\n      dup2\n      mstore\n      0x20\n      add\n      0x00\n      keccak256\n      sload\n        /* \"src/voting.sol\":4177:4179  CV */\n      dup9\n        /* \"src/voting.sol\":4180:4181  i */\n      dup4\n        /* \"src/voting.sol\":4177:4182  CV[i] */\n      dup2\n      mload\n      dup2\n      lt\n      tag_142\n      jumpi\n      tag_143\n      tag_137\n      jump\t// in\n    tag_143:\n    tag_142:\n      0x20\n      mul\n      0x20\n      add\n      add\n        /* \"src/voting.sol\":4177:4223  CV[i] = (CandidateVote[_id][VP.candidates[i]]) */\n      dup2\n      dup2\n      mstore\n      pop\n      pop\n        /* \"src/voting.sol\":4032:4232  {... */\n      pop\n        /* \"src/voting.sol\":4028:4031  i++ */\n      dup1\n      dup1\n      tag_144\n      swap1\n      tag_145\n      jump\t// in\n    tag_144:\n      swap2\n      pop\n      pop\n        /* \"src/voting.sol\":3985:4232  for (uint i = 0; i < VP.candidates.length; i++){... */\n      jump(tag_129)\n    tag_130:\n      pop\n        /* \"src/voting.sol\":4246:4248  CV */\n      dup6\n        /* \"src/voting.sol\":4250:4256  winner */\n      dup2\n        /* \"src/voting.sol\":4258:4269  highestVote */\n      dup4\n        /* \"src/voting.sol\":4238:4270  return (CV, winner, highestVote) */\n      swap6\n      pop\n      swap6\n      pop\n      swap6\n      pop\n      pop\n      pop\n      pop\n        /* \"src/voting.sol\":3695:4274  function revealWinner( uint _id) external view returns ( uint[] memory CV, address, uint){... */\n      swap2\n      swap4\n      swap1\n      swap3\n      pop\n      jump\t// out\n        /* \"src/voting.sol\":459:482  uint[] public VotingKey */\n    tag_57:\n      0x01\n      dup2\n      dup2\n      sload\n      dup2\n      lt\n      tag_146\n      jumpi\n      0x00\n      dup1\n      revert\n    tag_146:\n      swap1\n      0x00\n      mstore\n      keccak256(0x00, 0x20)\n      add\n      0x00\n      swap2\n      pop\n      swap1\n      pop\n      sload\n      dup2\n      jump\t// out\n        /* \"src/voting.sol\":4745:4960  function metaVotingHash(address Cand, uint _id, uint256 nonce, uint256 time) public view returns(bytes32){... */\n    tag_62:\n        /* \"src/voting.sol\":4842:4849  bytes32 */\n      0x00\n        /* \"src/voting.sol\":4898:4902  this */\n      address\n        /* \"src/voting.sol\":4931:4935  Cand */\n      dup6\n        /* \"src/voting.sol\":4937:4940  _id */\n      dup6\n        /* \"src/voting.sol\":4942:4947  nonce */\n      dup6\n        /* \"src/voting.sol\":4949:4953  time */\n      dup6\n        /* \"src/voting.sol\":4873:4954  abi.encodePacked(address(this),\"metatransaction Voting \", Cand, _id, nonce, time) */\n      add(0x20, mload(0x40))\n      tag_149\n      swap6\n      swap5\n      swap4\n      swap3\n      swap2\n      swap1\n      tag_150\n      jump\t// in\n    tag_149:\n      mload(0x40)\n      0x20\n      dup2\n      dup4\n      sub\n      sub\n      dup2\n      mstore\n      swap1\n      0x40\n      mstore\n        /* \"src/voting.sol\":4863:4955  keccak256(abi.encodePacked(address(this),\"metatransaction Voting \", Cand, _id, nonce, time)) */\n      dup1\n      mload\n      swap1\n      0x20\n      add\n      keccak256\n        /* \"src/voting.sol\":4856:4955  return keccak256(abi.encodePacked(address(this),\"metatransaction Voting \", Cand, _id, nonce, time)) */\n      swap1\n      pop\n        /* \"src/voting.sol\":4745:4960  function metaVotingHash(address Cand, uint _id, uint256 nonce, uint256 time) public view returns(bytes32){... */\n      swap5\n      swap4\n      pop\n      pop\n      pop\n      pop\n      jump\t// out\n        /* \"src/voting.sol\":2454:2945  function vote(address Cand, uint _id, uint256 nonce, bytes memory signature) external  isCandidate(Cand, _id) StillVoting(_id){... */\n    tag_68:\n        /* \"src/voting.sol\":2553:2557  Cand */\n      dup4\n        /* \"src/voting.sol\":2559:2562  _id */\n      dup4\n        /* \"src/voting.sol\":1289:1293  true */\n      0x01\n        /* \"src/voting.sol\":1261:1293  CandidateStatus[_id][Cand]==true */\n      iszero\n      iszero\n        /* \"src/voting.sol\":1261:1276  CandidateStatus */\n      0x05\n        /* \"src/voting.sol\":1261:1281  CandidateStatus[_id] */\n      0x00\n        /* \"src/voting.sol\":1277:1280  _id */\n      dup4\n        /* \"src/voting.sol\":1261:1281  CandidateStatus[_id] */\n      dup2\n      mstore\n      0x20\n      add\n      swap1\n      dup2\n      mstore\n      0x20\n      add\n      0x00\n      keccak256\n        /* \"src/voting.sol\":1261:1287  CandidateStatus[_id][Cand] */\n      0x00\n        /* \"src/voting.sol\":1282:1286  Cand */\n      dup5\n        /* \"src/voting.sol\":1261:1287  CandidateStatus[_id][Cand] */\n      0xffffffffffffffffffffffffffffffffffffffff\n      and\n      0xffffffffffffffffffffffffffffffffffffffff\n      and\n      dup2\n      mstore\n      0x20\n      add\n      swap1\n      dup2\n      mstore\n      0x20\n      add\n      0x00\n      keccak256\n      0x00\n      swap1\n      sload\n      swap1\n      0x0100\n      exp\n      swap1\n      div\n      0xff\n      and\n        /* \"src/voting.sol\":1261:1293  CandidateStatus[_id][Cand]==true */\n      iszero\n      iszero\n      eq\n        /* \"src/voting.sol\":1253:1339  require(CandidateStatus[_id][Cand]==true,'This address does not exist as a candidate') */\n      tag_152\n      jumpi\n      mload(0x40)\n      0x08c379a000000000000000000000000000000000000000000000000000000000\n      dup2\n      mstore\n      0x04\n      add\n      tag_153\n      swap1\n      tag_154\n      jump\t// in\n    tag_153:\n      mload(0x40)\n      dup1\n      swap2\n      sub\n      swap1\n      revert\n    tag_152:\n        /* \"src/voting.sol\":2576:2579  _id */\n      dup5\n        /* \"src/voting.sol\":1389:1410  VotingPoll storage VP */\n      0x00\n        /* \"src/voting.sol\":1413:1423  votingPoll */\n      0x03\n        /* \"src/voting.sol\":1413:1428  votingPoll[_id] */\n      0x00\n        /* \"src/voting.sol\":1424:1427  _id */\n      dup4\n        /* \"src/voting.sol\":1413:1428  votingPoll[_id] */\n      dup2\n      mstore\n      0x20\n      add\n      swap1\n      dup2\n      mstore\n      0x20\n      add\n      0x00\n      keccak256\n        /* \"src/voting.sol\":1389:1428  VotingPoll storage VP = votingPoll[_id] */\n      swap1\n      pop\n        /* \"src/voting.sol\":1455:1459  true */\n      0x01\n        /* \"src/voting.sol\":1442:1459  VP.voting == true */\n      iszero\n      iszero\n        /* \"src/voting.sol\":1442:1444  VP */\n      dup2\n        /* \"src/voting.sol\":1442:1451  VP.voting */\n      0x03\n      add\n      0x08\n      swap1\n      sload\n      swap1\n      0x0100\n      exp\n      swap1\n      div\n      0xff\n      and\n        /* \"src/voting.sol\":1442:1459  VP.voting == true */\n      iszero\n      iszero\n      eq\n        /* \"src/voting.sol\":1434:1480  require(VP.voting == true, \"voting has ended\") */\n      tag_156\n      jumpi\n      mload(0x40)\n      0x08c379a000000000000000000000000000000000000000000000000000000000\n      dup2\n      mstore\n      0x04\n      add\n      tag_157\n      swap1\n      tag_158\n      jump\t// in\n    tag_157:\n      mload(0x40)\n      dup1\n      swap2\n      sub\n      swap1\n      revert\n    tag_156:\n        /* \"src/voting.sol\":2587:2603  bytes32 metaHash */\n      0x00\n        /* \"src/voting.sol\":2606:2652  metaVotingHash(Cand,_id,nonce,block.timestamp) */\n      tag_160\n        /* \"src/voting.sol\":2621:2625  Cand */\n      dup10\n        /* \"src/voting.sol\":2626:2629  _id */\n      dup10\n        /* \"src/voting.sol\":2630:2635  nonce */\n      dup10\n        /* \"src/voting.sol\":2636:2651  block.timestamp */\n      timestamp\n        /* \"src/voting.sol\":2606:2620  metaVotingHash */\n      tag_62\n        /* \"src/voting.sol\":2606:2652  metaVotingHash(Cand,_id,nonce,block.timestamp) */\n      jump\t// in\n    tag_160:\n        /* \"src/voting.sol\":2587:2652  bytes32 metaHash = metaVotingHash(Cand,_id,nonce,block.timestamp) */\n      swap1\n      pop\n        /* \"src/voting.sol\":2659:2673  address signer */\n      0x00\n        /* \"src/voting.sol\":2676:2705  getSigner(metaHash,signature) */\n      tag_161\n        /* \"src/voting.sol\":2686:2694  metaHash */\n      dup3\n        /* \"src/voting.sol\":2695:2704  signature */\n      dup9\n        /* \"src/voting.sol\":2676:2685  getSigner */\n      tag_162\n        /* \"src/voting.sol\":2676:2705  getSigner(metaHash,signature) */\n      jump\t// in\n    tag_161:\n        /* \"src/voting.sol\":2659:2705  address signer = getSigner(metaHash,signature) */\n      swap1\n      pop\n        /* \"src/voting.sol\":2736:2737  0 */\n      0x00\n        /* \"src/voting.sol\":2720:2738  signer!=address(0) */\n      0xffffffffffffffffffffffffffffffffffffffff\n      and\n        /* \"src/voting.sol\":2720:2726  signer */\n      dup2\n        /* \"src/voting.sol\":2720:2738  signer!=address(0) */\n      0xffffffffffffffffffffffffffffffffffffffff\n      and\n      eq\n      iszero\n        /* \"src/voting.sol\":2712:2739  require(signer!=address(0)) */\n      tag_163\n      jumpi\n      0x00\n      dup1\n      revert\n    tag_163:\n        /* \"src/voting.sol\":2762:2773  replayNonce */\n      0x04\n        /* \"src/voting.sol\":2762:2781  replayNonce[signer] */\n      0x00\n        /* \"src/voting.sol\":2774:2780  signer */\n      dup3\n        /* \"src/voting.sol\":2762:2781  replayNonce[signer] */\n      0xffffffffffffffffffffffffffffffffffffffff\n      and\n      0xffffffffffffffffffffffffffffffffffffffff\n      and\n      dup2\n      mstore\n      0x20\n      add\n      swap1\n      dup2\n      mstore\n      0x20\n      add\n      0x00\n      keccak256\n      sload\n        /* \"src/voting.sol\":2753:2758  nonce */\n      dup9\n        /* \"src/voting.sol\":2753:2781  nonce == replayNonce[signer] */\n      eq\n        /* \"src/voting.sol\":2745:2782  require(nonce == replayNonce[signer]) */\n      tag_164\n      jumpi\n      0x00\n      dup1\n      revert\n    tag_164:\n        /* \"src/voting.sol\":2788:2799  replayNonce */\n      0x04\n        /* \"src/voting.sol\":2788:2807  replayNonce[signer] */\n      0x00\n        /* \"src/voting.sol\":2800:2806  signer */\n      dup3\n        /* \"src/voting.sol\":2788:2807  replayNonce[signer] */\n      0xffffffffffffffffffffffffffffffffffffffff\n      and\n      0xffffffffffffffffffffffffffffffffffffffff\n      and\n      dup2\n      mstore\n      0x20\n      add\n      swap1\n      dup2\n      mstore\n      0x20\n      add\n      0x00\n      keccak256\n      0x00\n        /* \"src/voting.sol\":2788:2809  replayNonce[signer]++ */\n      dup2\n      sload\n      dup1\n      swap3\n      swap2\n      swap1\n      tag_165\n      swap1\n      tag_145\n      jump\t// in\n    tag_165:\n      swap2\n      swap1\n      pop\n      sstore\n      pop\n        /* \"src/voting.sol\":2849:2854  false */\n      0x00\n        /* \"src/voting.sol\":2824:2854  hasVoted[_id][signer] == false */\n      iszero\n      iszero\n        /* \"src/voting.sol\":2824:2832  hasVoted */\n      0x07\n        /* \"src/voting.sol\":2824:2837  hasVoted[_id] */\n      0x00\n        /* \"src/voting.sol\":2833:2836  _id */\n      dup12\n        /* \"src/voting.sol\":2824:2837  hasVoted[_id] */\n      dup2\n      mstore\n      0x20\n      add\n      swap1\n      dup2\n      mstore\n      0x20\n      add\n      0x00\n      keccak256\n        /* \"src/voting.sol\":2824:2845  hasVoted[_id][signer] */\n      0x00\n        /* \"src/voting.sol\":2838:2844  signer */\n      dup4\n        /* \"src/voting.sol\":2824:2845  hasVoted[_id][signer] */\n      0xffffffffffffffffffffffffffffffffffffffff\n      and\n      0xffffffffffffffffffffffffffffffffffffffff\n      and\n      dup2\n      mstore\n      0x20\n      add\n      swap1\n      dup2\n      mstore\n      0x20\n      add\n      0x00\n      keccak256\n      0x00\n      swap1\n      sload\n      swap1\n      0x0100\n      exp\n      swap1\n      div\n      0xff\n      and\n        /* \"src/voting.sol\":2824:2854  hasVoted[_id][signer] == false */\n      iszero\n      iszero\n      eq\n        /* \"src/voting.sol\":2816:2876  require(hasVoted[_id][signer] == false, \"You already voted\") */\n      tag_166\n      jumpi\n      mload(0x40)\n      0x08c379a000000000000000000000000000000000000000000000000000000000\n      dup2\n      mstore\n      0x04\n      add\n      tag_167\n      swap1\n      tag_168\n      jump\t// in\n    tag_167:\n      mload(0x40)\n      dup1\n      swap2\n      sub\n      swap1\n      revert\n    tag_166:\n        /* \"src/voting.sol\":2883:2911  countVote(Cand, _id, signer) */\n      tag_169\n        /* \"src/voting.sol\":2893:2897  Cand */\n      dup11\n        /* \"src/voting.sol\":2899:2902  _id */\n      dup11\n        /* \"src/voting.sol\":2904:2910  signer */\n      dup4\n        /* \"src/voting.sol\":2883:2892  countVote */\n      tag_170\n        /* \"src/voting.sol\":2883:2911  countVote(Cand, _id, signer) */\n      jump\t// in\n    tag_169:\n      pop\n        /* \"src/voting.sol\":2923:2940  voted(Cand, true) */\n      0xf3f16a15f074b71c5138107dfc7c63b80524d5411cb967caa97d8d9f12b2fd6b\n        /* \"src/voting.sol\":2929:2933  Cand */\n      dup11\n        /* \"src/voting.sol\":2935:2939  true */\n      0x01\n        /* \"src/voting.sol\":2923:2940  voted(Cand, true) */\n      mload(0x40)\n      tag_171\n      swap3\n      swap2\n      swap1\n      tag_172\n      jump\t// in\n    tag_171:\n      mload(0x40)\n      dup1\n      swap2\n      sub\n      swap1\n      log1\n        /* \"src/voting.sol\":2580:2945  {... */\n      pop\n      pop\n        /* \"src/voting.sol\":1383:1491  {... */\n      pop\n        /* \"src/voting.sol\":1345:1346  _ */\n      pop\n        /* \"src/voting.sol\":2454:2945  function vote(address Cand, uint _id, uint256 nonce, bytes memory signature) external  isCandidate(Cand, _id) StillVoting(_id){... */\n      pop\n      pop\n      pop\n      pop\n      pop\n      pop\n      jump\t// out\n        /* \"src/voting.sol\":3144:3366  function setVotingState( uint _id) external {... */\n    tag_71:\n        /* \"src/voting.sol\":3194:3215  VotingPoll storage VP */\n      0x00\n        /* \"src/voting.sol\":3218:3228  votingPoll */\n      0x03\n        /* \"src/voting.sol\":3218:3233  votingPoll[_id] */\n      0x00\n        /* \"src/voting.sol\":3229:3232  _id */\n      dup4\n        /* \"src/voting.sol\":3218:3233  votingPoll[_id] */\n      dup2\n      mstore\n      0x20\n      add\n      swap1\n      dup2\n      mstore\n      0x20\n      add\n      0x00\n      keccak256\n        /* \"src/voting.sol\":3194:3233  VotingPoll storage VP = votingPoll[_id] */\n      swap1\n      pop\n        /* \"src/voting.sol\":3262:3272  msg.sender */\n      caller\n        /* \"src/voting.sol\":3247:3272  VP.chairman == msg.sender */\n      0xffffffffffffffffffffffffffffffffffffffff\n      and\n        /* \"src/voting.sol\":3247:3249  VP */\n      dup2\n        /* \"src/voting.sol\":3247:3258  VP.chairman */\n      0x01\n      add\n      0x00\n      swap1\n      sload\n      swap1\n      0x0100\n      exp\n      swap1\n      div\n      0xffffffffffffffffffffffffffffffffffffffff\n      and\n        /* \"src/voting.sol\":3247:3272  VP.chairman == msg.sender */\n      0xffffffffffffffffffffffffffffffffffffffff\n      and\n      eq\n        /* \"src/voting.sol\":3239:3293  require(VP.chairman == msg.sender, \"not the chairman\") */\n      tag_174\n      jumpi\n      mload(0x40)\n      0x08c379a000000000000000000000000000000000000000000000000000000000\n      dup2\n      mstore\n      0x04\n      add\n      tag_175\n      swap1\n      tag_176\n      jump\t// in\n    tag_175:\n      mload(0x40)\n      dup1\n      swap2\n      sub\n      swap1\n      revert\n    tag_174:\n        /* \"src/voting.sol\":3319:3321  VP */\n      dup1\n        /* \"src/voting.sol\":3319:3328  VP.voting */\n      0x03\n      add\n      0x08\n      swap1\n      sload\n      swap1\n      0x0100\n      exp\n      swap1\n      div\n      0xff\n      and\n        /* \"src/voting.sol\":3317:3329  !(VP.voting) */\n      iszero\n        /* \"src/voting.sol\":3305:3307  VP */\n      dup2\n        /* \"src/voting.sol\":3305:3314  VP.voting */\n      0x03\n      add\n      0x08\n        /* \"src/voting.sol\":3305:3329  VP.voting = !(VP.voting) */\n      0x0100\n      exp\n      dup2\n      sload\n      dup2\n      0xff\n      mul\n      not\n      and\n      swap1\n      dup4\n      iszero\n      iszero\n      mul\n      or\n      swap1\n      sstore\n      pop\n        /* \"src/voting.sol\":3352:3354  VP */\n      dup1\n        /* \"src/voting.sol\":3352:3361  VP.voting */\n      0x03\n      add\n      0x08\n      swap1\n      sload\n      swap1\n      0x0100\n      exp\n      swap1\n      div\n      0xff\n      and\n        /* \"src/voting.sol\":3341:3362  voteStatus(VP.voting) */\n      iszero\n      iszero\n      0x7b224db641892626dca6975b376f464e9ac52ccfa180436175170c009b94dcd7\n      mload(0x40)\n      mload(0x40)\n      dup1\n      swap2\n      sub\n      swap1\n      log2\n        /* \"src/voting.sol\":3188:3366  {... */\n      pop\n        /* \"src/voting.sol\":3144:3366  function setVotingState( uint _id) external {... */\n      pop\n      jump\t// out\n        /* \"src/voting.sol\":580:625  mapping(uint => VotingPoll) public votingPoll */\n    tag_74:\n      mstore(0x20, 0x03)\n      dup1\n      0x00\n      mstore\n      keccak256(0x00, 0x40)\n      0x00\n      swap2\n      pop\n      swap1\n      pop\n      dup1\n      0x00\n      add\n      dup1\n      sload\n      tag_177\n      swap1\n      tag_103\n      jump\t// in\n    tag_177:\n      dup1\n      0x1f\n      add\n      0x20\n      dup1\n      swap2\n      div\n      mul\n      0x20\n      add\n      mload(0x40)\n      swap1\n      dup2\n      add\n      0x40\n      mstore\n      dup1\n      swap3\n      swap2\n      swap1\n      dup2\n      dup2\n      mstore\n      0x20\n      add\n      dup3\n      dup1\n      sload\n      tag_178\n      swap1\n      tag_103\n      jump\t// in\n    tag_178:\n      dup1\n      iszero\n      tag_179\n      jumpi\n      dup1\n      0x1f\n      lt\n      tag_180\n      jumpi\n      0x0100\n      dup1\n      dup4\n      sload\n      div\n      mul\n      dup4\n      mstore\n      swap2\n      0x20\n      add\n      swap2\n      jump(tag_179)\n    tag_180:\n      dup3\n      add\n      swap2\n      swap1\n      0x00\n      mstore\n      keccak256(0x00, 0x20)\n      swap1\n    tag_181:\n      dup2\n      sload\n      dup2\n      mstore\n      swap1\n      0x01\n      add\n      swap1\n      0x20\n      add\n      dup1\n      dup4\n      gt\n      tag_181\n      jumpi\n      dup3\n      swap1\n      sub\n      0x1f\n      and\n      dup3\n      add\n      swap2\n    tag_179:\n      pop\n      pop\n      pop\n      pop\n      pop\n      swap1\n      dup1\n      0x01\n      add\n      0x00\n      swap1\n      sload\n      swap1\n      0x0100\n      exp\n      swap1\n      div\n      0xffffffffffffffffffffffffffffffffffffffff\n      and\n      swap1\n      dup1\n      0x03\n      add\n      0x00\n      swap1\n      sload\n      swap1\n      0x0100\n      exp\n      swap1\n      div\n      0xffffffff\n      and\n      swap1\n      dup1\n      0x03\n      add\n      0x04\n      swap1\n      sload\n      swap1\n      0x0100\n      exp\n      swap1\n      div\n      0xffffffff\n      and\n      swap1\n      dup1\n      0x03\n      add\n      0x08\n      swap1\n      sload\n      swap1\n      0x0100\n      exp\n      swap1\n      div\n      0xff\n      and\n      swap1\n      pop\n      dup6\n      jump\t// out\n        /* \"src/voting.sol\":1627:1946  function createPoll(string memory _name, uint32 ExpectedNoOfCandidate) external {... */\n    tag_79:\n        /* \"src/voting.sol\":1713:1734  VotingPoll storage VP */\n      0x00\n        /* \"src/voting.sol\":1737:1747  votingPoll */\n      0x03\n        /* \"src/voting.sol\":1737:1751  votingPoll[id] */\n      0x00\n        /* \"src/voting.sol\":1748:1750  id */\n      dup1\n      sload\n        /* \"src/voting.sol\":1737:1751  votingPoll[id] */\n      dup2\n      mstore\n      0x20\n      add\n      swap1\n      dup2\n      mstore\n      0x20\n      add\n      0x00\n      keccak256\n        /* \"src/voting.sol\":1713:1751  VotingPoll storage VP = votingPoll[id] */\n      swap1\n      pop\n        /* \"src/voting.sol\":1767:1772  _name */\n      dup3\n        /* \"src/voting.sol\":1757:1759  VP */\n      dup2\n        /* \"src/voting.sol\":1757:1764  VP.name */\n      0x00\n      add\n        /* \"src/voting.sol\":1757:1772  VP.name = _name */\n      swap1\n      dup1\n      mload\n      swap1\n      0x20\n      add\n      swap1\n      tag_183\n      swap3\n      swap2\n      swap1\n      tag_184\n      jump\t// in\n    tag_183:\n      pop\n        /* \"src/voting.sol\":1792:1802  msg.sender */\n      caller\n        /* \"src/voting.sol\":1778:1780  VP */\n      dup2\n        /* \"src/voting.sol\":1778:1789  VP.chairman */\n      0x01\n      add\n      0x00\n        /* \"src/voting.sol\":1778:1802  VP.chairman = msg.sender */\n      0x0100\n      exp\n      dup2\n      sload\n      dup2\n      0xffffffffffffffffffffffffffffffffffffffff\n      mul\n      not\n      and\n      swap1\n      dup4\n      0xffffffffffffffffffffffffffffffffffffffff\n      and\n      mul\n      or\n      swap1\n      sstore\n      pop\n        /* \"src/voting.sol\":1830:1851  ExpectedNoOfCandidate */\n      dup2\n        /* \"src/voting.sol\":1808:1810  VP */\n      dup2\n        /* \"src/voting.sol\":1808:1828  VP.maxNoOfCandidates */\n      0x03\n      add\n      0x00\n        /* \"src/voting.sol\":1808:1851  VP.maxNoOfCandidates =ExpectedNoOfCandidate */\n      0x0100\n      exp\n      dup2\n      sload\n      dup2\n      0xffffffff\n      mul\n      not\n      and\n      swap1\n      dup4\n      0xffffffff\n      and\n      mul\n      or\n      swap1\n      sstore\n      pop\n        /* \"src/voting.sol\":1857:1866  VotingKey */\n      0x01\n        /* \"src/voting.sol\":1872:1874  id */\n      sload(0x00)\n        /* \"src/voting.sol\":1857:1875  VotingKey.push(id) */\n      swap1\n      dup1\n      0x01\n      dup2\n      sload\n      add\n      dup1\n      dup3\n      sstore\n      dup1\n      swap2\n      pop\n      pop\n      0x01\n      swap1\n      sub\n      swap1\n      0x00\n      mstore\n      keccak256(0x00, 0x20)\n      add\n      0x00\n      swap1\n      swap2\n      swap1\n      swap2\n      swap1\n      swap2\n      pop\n      sstore\n        /* \"src/voting.sol\":1928:1930  id */\n      sload(0x00)\n        /* \"src/voting.sol\":1906:1908  VP */\n      dup2\n        /* \"src/voting.sol\":1906:1926  VP.maxNoOfCandidates */\n      0x03\n      add\n      0x00\n      swap1\n      sload\n      swap1\n      0x0100\n      exp\n      swap1\n      div\n      0xffffffff\n      and\n        /* \"src/voting.sol\":1886:1931  pollCreated( _name, VP.maxNoOfCandidates, id) */\n      0xffffffff\n      and\n        /* \"src/voting.sol\":1899:1904  _name */\n      dup5\n        /* \"src/voting.sol\":1886:1931  pollCreated( _name, VP.maxNoOfCandidates, id) */\n      mload(0x40)\n      tag_186\n      swap2\n      swap1\n      tag_187\n      jump\t// in\n    tag_186:\n      mload(0x40)\n      dup1\n      swap2\n      sub\n      swap1\n      keccak256\n      0xd4d0d9a1ef7f13069f1bade752fda515713d747eb14a8c30ae461c52916bf1c7\n      mload(0x40)\n      mload(0x40)\n      dup1\n      swap2\n      sub\n      swap1\n      log4\n        /* \"src/voting.sol\":1938:1940  id */\n      0x00\n      dup1\n        /* \"src/voting.sol\":1938:1942  id++ */\n      dup2\n      sload\n      dup1\n      swap3\n      swap2\n      swap1\n      tag_188\n      swap1\n      tag_145\n      jump\t// in\n    tag_188:\n      swap2\n      swap1\n      pop\n      sstore\n      pop\n        /* \"src/voting.sol\":1707:1946  {... */\n      pop\n        /* \"src/voting.sol\":1627:1946  function createPoll(string memory _name, uint32 ExpectedNoOfCandidate) external {... */\n      pop\n      pop\n      jump\t// out\n        /* \"src/voting.sol\":4568:4740  function arrayOfStruct() external returns(VotingPoll[] memory VP){... */\n    tag_81:\n        /* \"src/voting.sol\":4610:4632  VotingPoll[] memory VP */\n      0x60\n        /* \"src/voting.sol\":4660:4669  VotingKey */\n      0x01\n        /* \"src/voting.sol\":4660:4676  VotingKey.length */\n      dup1\n      sload\n      swap1\n      pop\n        /* \"src/voting.sol\":4643:4677  new VotingPoll[](VotingKey.length) */\n      0xffffffffffffffff\n      dup2\n      gt\n      iszero\n      tag_190\n      jumpi\n      tag_191\n      tag_127\n      jump\t// in\n    tag_191:\n    tag_190:\n      mload(0x40)\n      swap1\n      dup1\n      dup3\n      mstore\n      dup1\n      0x20\n      mul\n      0x20\n      add\n      dup3\n      add\n      0x40\n      mstore\n      dup1\n      iszero\n      tag_192\n      jumpi\n      dup2\n      0x20\n      add\n    tag_193:\n      tag_194\n      tag_100\n      jump\t// in\n    tag_194:\n      dup2\n      mstore\n      0x20\n      add\n      swap1\n      0x01\n      swap1\n      sub\n      swap1\n      dup2\n      tag_193\n      jumpi\n      swap1\n      pop\n    tag_192:\n      pop\n        /* \"src/voting.sol\":4638:4677  VP = new VotingPoll[](VotingKey.length) */\n      swap1\n      pop\n        /* \"src/voting.sol\":4686:4692  uint i */\n      0x00\n        /* \"src/voting.sol\":4682:4735  for(uint i =0; i < VotingKey.length; i++){... */\n    tag_195:\n        /* \"src/voting.sol\":4701:4710  VotingKey */\n      0x01\n        /* \"src/voting.sol\":4701:4717  VotingKey.length */\n      dup1\n      sload\n      swap1\n      pop\n        /* \"src/voting.sol\":4697:4698  i */\n      dup2\n        /* \"src/voting.sol\":4697:4717  i < VotingKey.length */\n      lt\n        /* \"src/voting.sol\":4682:4735  for(uint i =0; i < VotingKey.length; i++){... */\n      iszero\n      tag_196\n      jumpi\n        /* \"src/voting.sol\":4719:4722  i++ */\n      dup1\n      dup1\n      tag_198\n      swap1\n      tag_145\n      jump\t// in\n    tag_198:\n      swap2\n      pop\n      pop\n        /* \"src/voting.sol\":4682:4735  for(uint i =0; i < VotingKey.length; i++){... */\n      jump(tag_195)\n    tag_196:\n      pop\n        /* \"src/voting.sol\":4568:4740  function arrayOfStruct() external returns(VotingPoll[] memory VP){... */\n      swap1\n      jump\t// out\n        /* \"src/voting.sol\":4280:4452  function getPosition( uint _id, uint i) internal view returns(uint val){... */\n    tag_133:\n        /* \"src/voting.sol\":4342:4350  uint val */\n      0x00\n        /* \"src/voting.sol\":4358:4379  VotingPoll storage VP */\n      dup1\n        /* \"src/voting.sol\":4382:4392  votingPoll */\n      0x03\n        /* \"src/voting.sol\":4382:4397  votingPoll[_id] */\n      0x00\n        /* \"src/voting.sol\":4393:4396  _id */\n      dup6\n        /* \"src/voting.sol\":4382:4397  votingPoll[_id] */\n      dup2\n      mstore\n      0x20\n      add\n      swap1\n      dup2\n      mstore\n      0x20\n      add\n      0x00\n      keccak256\n        /* \"src/voting.sol\":4358:4397  VotingPoll storage VP = votingPoll[_id] */\n      swap1\n      pop\n        /* \"src/voting.sol\":4412:4425  CandidateVote */\n      0x06\n        /* \"src/voting.sol\":4412:4430  CandidateVote[_id] */\n      0x00\n        /* \"src/voting.sol\":4426:4429  _id */\n      dup6\n        /* \"src/voting.sol\":4412:4430  CandidateVote[_id] */\n      dup2\n      mstore\n      0x20\n      add\n      swap1\n      dup2\n      mstore\n      0x20\n      add\n      0x00\n      keccak256\n        /* \"src/voting.sol\":4412:4448  CandidateVote[_id][VP.candidates[i]] */\n      0x00\n        /* \"src/voting.sol\":4431:4433  VP */\n      dup3\n        /* \"src/voting.sol\":4431:4444  VP.candidates */\n      0x02\n      add\n        /* \"src/voting.sol\":4445:4446  i */\n      dup6\n        /* \"src/voting.sol\":4431:4447  VP.candidates[i] */\n      dup2\n      sload\n      dup2\n      lt\n      tag_200\n      jumpi\n      tag_201\n      tag_137\n      jump\t// in\n    tag_201:\n    tag_200:\n      swap1\n      0x00\n      mstore\n      keccak256(0x00, 0x20)\n      add\n      0x00\n      swap1\n      sload\n      swap1\n      0x0100\n      exp\n      swap1\n      div\n      0xffffffffffffffffffffffffffffffffffffffff\n      and\n        /* \"src/voting.sol\":4412:4448  CandidateVote[_id][VP.candidates[i]] */\n      0xffffffffffffffffffffffffffffffffffffffff\n      and\n      0xffffffffffffffffffffffffffffffffffffffff\n      and\n      dup2\n      mstore\n      0x20\n      add\n      swap1\n      dup2\n      mstore\n      0x20\n      add\n      0x00\n      keccak256\n      sload\n        /* \"src/voting.sol\":4406:4448  val = CandidateVote[_id][VP.candidates[i]] */\n      swap2\n      pop\n        /* \"src/voting.sol\":4351:4452  {... */\n      pop\n        /* \"src/voting.sol\":4280:4452  function getPosition( uint _id, uint i) internal view returns(uint val){... */\n      swap3\n      swap2\n      pop\n      pop\n      jump\t// out\n        /* \"src/voting.sol\":4964:5546  function getSigner(bytes32 _hash, bytes memory _signature) internal pure returns (address){... */\n    tag_162:\n        /* \"src/voting.sol\":5046:5053  address */\n      0x00\n        /* \"src/voting.sol\":5060:5069  bytes32 r */\n      dup1\n        /* \"src/voting.sol\":5075:5084  bytes32 s */\n      0x00\n        /* \"src/voting.sol\":5090:5097  uint8 v */\n      dup1\n        /* \"src/voting.sol\":5128:5130  65 */\n      0x41\n        /* \"src/voting.sol\":5107:5117  _signature */\n      dup6\n        /* \"src/voting.sol\":5107:5124  _signature.length */\n      mload\n        /* \"src/voting.sol\":5107:5130  _signature.length != 65 */\n      eq\n        /* \"src/voting.sol\":5103:5164  if (_signature.length != 65) {... */\n      tag_204\n      jumpi\n        /* \"src/voting.sol\":5155:5156  0 */\n      0x00\n        /* \"src/voting.sol\":5140:5157  return address(0) */\n      swap4\n      pop\n      pop\n      pop\n      pop\n      jump(tag_203)\n        /* \"src/voting.sol\":5103:5164  if (_signature.length != 65) {... */\n    tag_204:\n        /* \"src/voting.sol\":5213:5215  32 */\n      0x20\n        /* \"src/voting.sol\":5201:5211  _signature */\n      dup6\n        /* \"src/voting.sol\":5197:5216  add(_signature, 32) */\n      add\n        /* \"src/voting.sol\":5191:5217  mload(add(_signature, 32)) */\n      mload\n        /* \"src/voting.sol\":5186:5217  r := mload(add(_signature, 32)) */\n      swap3\n      pop\n        /* \"src/voting.sol\":5251:5253  64 */\n      0x40\n        /* \"src/voting.sol\":5239:5249  _signature */\n      dup6\n        /* \"src/voting.sol\":5235:5254  add(_signature, 64) */\n      add\n        /* \"src/voting.sol\":5229:5255  mload(add(_signature, 64)) */\n      mload\n        /* \"src/voting.sol\":5224:5255  s := mload(add(_signature, 64)) */\n      swap2\n      pop\n        /* \"src/voting.sol\":5297:5299  96 */\n      0x60\n        /* \"src/voting.sol\":5285:5295  _signature */\n      dup6\n        /* \"src/voting.sol\":5281:5300  add(_signature, 96) */\n      add\n        /* \"src/voting.sol\":5275:5301  mload(add(_signature, 96)) */\n      mload\n        /* \"src/voting.sol\":5272:5273  0 */\n      0x00\n        /* \"src/voting.sol\":5267:5302  byte(0, mload(add(_signature, 96))) */\n      byte\n        /* \"src/voting.sol\":5262:5302  v := byte(0, mload(add(_signature, 96))) */\n      swap1\n      pop\n        /* \"src/voting.sol\":5321:5323  27 */\n      0x1b\n        /* \"src/voting.sol\":5317:5318  v */\n      dup2\n        /* \"src/voting.sol\":5317:5323  v < 27 */\n      0xff\n      and\n      lt\n        /* \"src/voting.sol\":5313:5347  if (v < 27) {... */\n      iszero\n      tag_205\n      jumpi\n        /* \"src/voting.sol\":5338:5340  27 */\n      0x1b\n        /* \"src/voting.sol\":5333:5340  v += 27 */\n      dup2\n      tag_206\n      swap2\n      swap1\n      tag_207\n      jump\t// in\n    tag_206:\n      swap1\n      pop\n        /* \"src/voting.sol\":5313:5347  if (v < 27) {... */\n    tag_205:\n        /* \"src/voting.sol\":5361:5363  27 */\n      0x1b\n        /* \"src/voting.sol\":5356:5357  v */\n      dup2\n        /* \"src/voting.sol\":5356:5363  v != 27 */\n      0xff\n      and\n      eq\n      iszero\n        /* \"src/voting.sol\":5356:5374  v != 27 && v != 28 */\n      dup1\n      iszero\n      tag_208\n      jumpi\n      pop\n        /* \"src/voting.sol\":5372:5374  28 */\n      0x1c\n        /* \"src/voting.sol\":5367:5368  v */\n      dup2\n        /* \"src/voting.sol\":5367:5374  v != 28 */\n      0xff\n      and\n      eq\n      iszero\n        /* \"src/voting.sol\":5356:5374  v != 27 && v != 28 */\n    tag_208:\n        /* \"src/voting.sol\":5352:5542  if (v != 27 && v != 28) {... */\n      iszero\n      tag_209\n      jumpi\n        /* \"src/voting.sol\":5399:5400  0 */\n      0x00\n        /* \"src/voting.sol\":5384:5401  return address(0) */\n      swap4\n      pop\n      pop\n      pop\n      pop\n      jump(tag_203)\n        /* \"src/voting.sol\":5352:5542  if (v != 27 && v != 28) {... */\n    tag_209:\n        /* \"src/voting.sol\":5429:5535  ecrecover(keccak256(... */\n      0x01\n        /* \"src/voting.sol\":5511:5516  _hash */\n      dup7\n        /* \"src/voting.sol\":5458:5517  abi.encodePacked(\"\\x19Ethereum Signed Message:\\n32\", _hash) */\n      add(0x20, mload(0x40))\n      tag_211\n      swap2\n      swap1\n      tag_212\n      jump\t// in\n    tag_211:\n      mload(0x40)\n      0x20\n      dup2\n      dup4\n      sub\n      sub\n      dup2\n      mstore\n      swap1\n      0x40\n      mstore\n        /* \"src/voting.sol\":5439:5525  keccak256(... */\n      dup1\n      mload\n      swap1\n      0x20\n      add\n      keccak256\n        /* \"src/voting.sol\":5527:5528  v */\n      dup3\n        /* \"src/voting.sol\":5530:5531  r */\n      dup6\n        /* \"src/voting.sol\":5533:5534  s */\n      dup6\n        /* \"src/voting.sol\":5429:5535  ecrecover(keccak256(... */\n      mload(0x40)\n      0x00\n      dup2\n      mstore\n      0x20\n      add\n      0x40\n      mstore\n      mload(0x40)\n      tag_213\n      swap5\n      swap4\n      swap3\n      swap2\n      swap1\n      tag_214\n      jump\t// in\n    tag_213:\n      0x20\n      mload(0x40)\n      0x20\n      dup2\n      sub\n      swap1\n      dup1\n      dup5\n      sub\n      swap1\n      dup6\n      gas\n      staticcall\n      iszero\n      dup1\n      iszero\n      tag_216\n      jumpi\n      returndatasize\n      0x00\n      dup1\n      returndatacopy\n      revert(0x00, returndatasize)\n    tag_216:\n      pop\n      pop\n      pop\n      mload(sub(mload(0x40), 0x20))\n        /* \"src/voting.sol\":5422:5535  return ecrecover(keccak256(... */\n      swap4\n      pop\n      pop\n      pop\n      pop\n        /* \"src/voting.sol\":4964:5546  function getSigner(bytes32 _hash, bytes memory _signature) internal pure returns (address){... */\n    tag_203:\n      swap3\n      swap2\n      pop\n      pop\n      jump\t// out\n        /* \"src/voting.sol\":2948:3140  function countVote(address Cand, uint _id, address signer) internal returns(uint){... */\n    tag_170:\n        /* \"src/voting.sol\":3024:3028  uint */\n      0x00\n        /* \"src/voting.sol\":3060:3064  true */\n      0x01\n        /* \"src/voting.sol\":3036:3044  hasVoted */\n      0x07\n        /* \"src/voting.sol\":3036:3049  hasVoted[_id] */\n      0x00\n        /* \"src/voting.sol\":3045:3048  _id */\n      dup6\n        /* \"src/voting.sol\":3036:3049  hasVoted[_id] */\n      dup2\n      mstore\n      0x20\n      add\n      swap1\n      dup2\n      mstore\n      0x20\n      add\n      0x00\n      keccak256\n        /* \"src/voting.sol\":3036:3057  hasVoted[_id][signer] */\n      0x00\n        /* \"src/voting.sol\":3050:3056  signer */\n      dup5\n        /* \"src/voting.sol\":3036:3057  hasVoted[_id][signer] */\n      0xffffffffffffffffffffffffffffffffffffffff\n      and\n      0xffffffffffffffffffffffffffffffffffffffff\n      and\n      dup2\n      mstore\n      0x20\n      add\n      swap1\n      dup2\n      mstore\n      0x20\n      add\n      0x00\n      keccak256\n      0x00\n        /* \"src/voting.sol\":3036:3064  hasVoted[_id][signer] = true */\n      0x0100\n      exp\n      dup2\n      sload\n      dup2\n      0xff\n      mul\n      not\n      and\n      swap1\n      dup4\n      iszero\n      iszero\n      mul\n      or\n      swap1\n      sstore\n      pop\n        /* \"src/voting.sol\":3071:3084  CandidateVote */\n      0x06\n        /* \"src/voting.sol\":3071:3089  CandidateVote[_id] */\n      0x00\n        /* \"src/voting.sol\":3085:3088  _id */\n      dup5\n        /* \"src/voting.sol\":3071:3089  CandidateVote[_id] */\n      dup2\n      mstore\n      0x20\n      add\n      swap1\n      dup2\n      mstore\n      0x20\n      add\n      0x00\n      keccak256\n        /* \"src/voting.sol\":3071:3095  CandidateVote[_id][Cand] */\n      0x00\n        /* \"src/voting.sol\":3090:3094  Cand */\n      dup6\n        /* \"src/voting.sol\":3071:3095  CandidateVote[_id][Cand] */\n      0xffffffffffffffffffffffffffffffffffffffff\n      and\n      0xffffffffffffffffffffffffffffffffffffffff\n      and\n      dup2\n      mstore\n      0x20\n      add\n      swap1\n      dup2\n      mstore\n      0x20\n      add\n      0x00\n      keccak256\n      0x00\n        /* \"src/voting.sol\":3071:3097  CandidateVote[_id][Cand]++ */\n      dup2\n      sload\n      dup1\n      swap3\n      swap2\n      swap1\n      tag_218\n      swap1\n      tag_145\n      jump\t// in\n    tag_218:\n      swap2\n      swap1\n      pop\n      sstore\n      pop\n        /* \"src/voting.sol\":3111:3124  CandidateVote */\n      0x06\n        /* \"src/voting.sol\":3111:3129  CandidateVote[_id] */\n      0x00\n        /* \"src/voting.sol\":3125:3128  _id */\n      dup5\n        /* \"src/voting.sol\":3111:3129  CandidateVote[_id] */\n      dup2\n      mstore\n      0x20\n      add\n      swap1\n      dup2\n      mstore\n      0x20\n      add\n      0x00\n      keccak256\n        /* \"src/voting.sol\":3111:3135  CandidateVote[_id][Cand] */\n      0x00\n        /* \"src/voting.sol\":3130:3134  Cand */\n      dup6\n        /* \"src/voting.sol\":3111:3135  CandidateVote[_id][Cand] */\n      0xffffffffffffffffffffffffffffffffffffffff\n      and\n      0xffffffffffffffffffffffffffffffffffffffff\n      and\n      dup2\n      mstore\n      0x20\n      add\n      swap1\n      dup2\n      mstore\n      0x20\n      add\n      0x00\n      keccak256\n      sload\n        /* \"src/voting.sol\":3104:3135  return CandidateVote[_id][Cand] */\n      swap1\n      pop\n        /* \"src/voting.sol\":2948:3140  function countVote(address Cand, uint _id, address signer) internal returns(uint){... */\n      swap4\n      swap3\n      pop\n      pop\n      pop\n      jump\t// out\n    tag_100:\n      mload(0x40)\n      dup1\n      0xc0\n      add\n      0x40\n      mstore\n      dup1\n      0x60\n      dup2\n      mstore\n      0x20\n      add\n      and(0xffffffffffffffffffffffffffffffffffffffff, 0x00)\n      dup2\n      mstore\n      0x20\n      add\n      0x60\n      dup2\n      mstore\n      0x20\n      add\n      and(0xffffffff, 0x00)\n      dup2\n      mstore\n      0x20\n      add\n      and(0xffffffff, 0x00)\n      dup2\n      mstore\n      0x20\n      add\n      iszero(iszero(0x00))\n      dup2\n      mstore\n      pop\n      swap1\n      jump\t// out\n    tag_184:\n      dup3\n      dup1\n      sload\n      tag_219\n      swap1\n      tag_103\n      jump\t// in\n    tag_219:\n      swap1\n      0x00\n      mstore\n      keccak256(0x00, 0x20)\n      swap1\n      0x1f\n      add\n      0x20\n      swap1\n      div\n      dup2\n      add\n      swap3\n      dup3\n      tag_221\n      jumpi\n      0x00\n      dup6\n      sstore\n      jump(tag_220)\n    tag_221:\n      dup3\n      0x1f\n      lt\n      tag_222\n      jumpi\n      dup1\n      mload\n      not(0xff)\n      and\n      dup4\n      dup1\n      add\n      or\n      dup6\n      sstore\n      jump(tag_220)\n    tag_222:\n      dup3\n      dup1\n      add\n      0x01\n      add\n      dup6\n      sstore\n      dup3\n      iszero\n      tag_220\n      jumpi\n      swap2\n      dup3\n      add\n    tag_223:\n      dup3\n      dup2\n      gt\n      iszero\n      tag_224\n      jumpi\n      dup3\n      mload\n      dup3\n      sstore\n      swap2\n      0x20\n      add\n      swap2\n      swap1\n      0x01\n      add\n      swap1\n      jump(tag_223)\n    tag_224:\n    tag_220:\n      pop\n      swap1\n      pop\n      tag_225\n      swap2\n      swap1\n      tag_226\n      jump\t// in\n    tag_225:\n      pop\n      swap1\n      jump\t// out\n    tag_226:\n    tag_227:\n      dup1\n      dup3\n      gt\n      iszero\n      tag_228\n      jumpi\n      0x00\n      dup2\n      0x00\n      swap1\n      sstore\n      pop\n      0x01\n      add\n      jump(tag_227)\n    tag_228:\n      pop\n      swap1\n      jump\t// out\n        /* \"#utility.yul\":7:82   */\n    tag_229:\n        /* \"#utility.yul\":40:46   */\n      0x00\n        /* \"#utility.yul\":73:75   */\n      0x40\n        /* \"#utility.yul\":67:76   */\n      mload\n        /* \"#utility.yul\":57:76   */\n      swap1\n      pop\n        /* \"#utility.yul\":7:82   */\n      swap1\n      jump\t// out\n        /* \"#utility.yul\":88:205   */\n    tag_230:\n        /* \"#utility.yul\":197:198   */\n      0x00\n        /* \"#utility.yul\":194:195   */\n      dup1\n        /* \"#utility.yul\":187:199   */\n      revert\n        /* \"#utility.yul\":211:328   */\n    tag_231:\n        /* \"#utility.yul\":320:321   */\n      0x00\n        /* \"#utility.yul\":317:318   */\n      dup1\n        /* \"#utility.yul\":310:322   */\n      revert\n        /* \"#utility.yul\":334:460   */\n    tag_232:\n        /* \"#utility.yul\":371:378   */\n      0x00\n        /* \"#utility.yul\":411:453   */\n      0xffffffffffffffffffffffffffffffffffffffff\n        /* \"#utility.yul\":404:409   */\n      dup3\n        /* \"#utility.yul\":400:454   */\n      and\n        /* \"#utility.yul\":389:454   */\n      swap1\n      pop\n        /* \"#utility.yul\":334:460   */\n      swap2\n      swap1\n      pop\n      jump\t// out\n        /* \"#utility.yul\":466:562   */\n    tag_233:\n        /* \"#utility.yul\":503:510   */\n      0x00\n        /* \"#utility.yul\":532:556   */\n      tag_331\n        /* \"#utility.yul\":550:555   */\n      dup3\n        /* \"#utility.yul\":532:556   */\n      tag_232\n      jump\t// in\n    tag_331:\n        /* \"#utility.yul\":521:556   */\n      swap1\n      pop\n        /* \"#utility.yul\":466:562   */\n      swap2\n      swap1\n      pop\n      jump\t// out\n        /* \"#utility.yul\":568:690   */\n    tag_234:\n        /* \"#utility.yul\":641:665   */\n      tag_333\n        /* \"#utility.yul\":659:664   */\n      dup2\n        /* \"#utility.yul\":641:665   */\n      tag_233\n      jump\t// in\n    tag_333:\n        /* \"#utility.yul\":634:639   */\n      dup2\n        /* \"#utility.yul\":631:666   */\n      eq\n        /* \"#utility.yul\":621:684   */\n      tag_334\n      jumpi\n        /* \"#utility.yul\":680:681   */\n      0x00\n        /* \"#utility.yul\":677:678   */\n      dup1\n        /* \"#utility.yul\":670:682   */\n      revert\n        /* \"#utility.yul\":621:684   */\n    tag_334:\n        /* \"#utility.yul\":568:690   */\n      pop\n      jump\t// out\n        /* \"#utility.yul\":696:835   */\n    tag_235:\n        /* \"#utility.yul\":742:747   */\n      0x00\n        /* \"#utility.yul\":780:786   */\n      dup2\n        /* \"#utility.yul\":767:787   */\n      calldataload\n        /* \"#utility.yul\":758:787   */\n      swap1\n      pop\n        /* \"#utility.yul\":796:829   */\n      tag_336\n        /* \"#utility.yul\":823:828   */\n      dup2\n        /* \"#utility.yul\":796:829   */\n      tag_234\n      jump\t// in\n    tag_336:\n        /* \"#utility.yul\":696:835   */\n      swap3\n      swap2\n      pop\n      pop\n      jump\t// out\n        /* \"#utility.yul\":841:918   */\n    tag_236:\n        /* \"#utility.yul\":878:885   */\n      0x00\n        /* \"#utility.yul\":907:912   */\n      dup2\n        /* \"#utility.yul\":896:912   */\n      swap1\n      pop\n        /* \"#utility.yul\":841:918   */\n      swap2\n      swap1\n      pop\n      jump\t// out\n        /* \"#utility.yul\":924:1046   */\n    tag_237:\n        /* \"#utility.yul\":997:1021   */\n      tag_339\n        /* \"#utility.yul\":1015:1020   */\n      dup2\n        /* \"#utility.yul\":997:1021   */\n      tag_236\n      jump\t// in\n    tag_339:\n        /* \"#utility.yul\":990:995   */\n      dup2\n        /* \"#utility.yul\":987:1022   */\n      eq\n        /* \"#utility.yul\":977:1040   */\n      tag_340\n      jumpi\n        /* \"#utility.yul\":1036:1037   */\n      0x00\n        /* \"#utility.yul\":1033:1034   */\n      dup1\n        /* \"#utility.yul\":1026:1038   */\n      revert\n        /* \"#utility.yul\":977:1040   */\n    tag_340:\n        /* \"#utility.yul\":924:1046   */\n      pop\n      jump\t// out\n        /* \"#utility.yul\":1052:1191   */\n    tag_238:\n        /* \"#utility.yul\":1098:1103   */\n      0x00\n        /* \"#utility.yul\":1136:1142   */\n      dup2\n        /* \"#utility.yul\":1123:1143   */\n      calldataload\n        /* \"#utility.yul\":1114:1143   */\n      swap1\n      pop\n        /* \"#utility.yul\":1152:1185   */\n      tag_342\n        /* \"#utility.yul\":1179:1184   */\n      dup2\n        /* \"#utility.yul\":1152:1185   */\n      tag_237\n      jump\t// in\n    tag_342:\n        /* \"#utility.yul\":1052:1191   */\n      swap3\n      swap2\n      pop\n      pop\n      jump\t// out\n        /* \"#utility.yul\":1197:1671   */\n    tag_22:\n        /* \"#utility.yul\":1265:1271   */\n      0x00\n        /* \"#utility.yul\":1273:1279   */\n      dup1\n        /* \"#utility.yul\":1322:1324   */\n      0x40\n        /* \"#utility.yul\":1310:1319   */\n      dup4\n        /* \"#utility.yul\":1301:1308   */\n      dup6\n        /* \"#utility.yul\":1297:1320   */\n      sub\n        /* \"#utility.yul\":1293:1325   */\n      slt\n        /* \"#utility.yul\":1290:1409   */\n      iszero\n      tag_344\n      jumpi\n        /* \"#utility.yul\":1328:1407   */\n      tag_345\n      tag_230\n      jump\t// in\n    tag_345:\n        /* \"#utility.yul\":1290:1409   */\n    tag_344:\n        /* \"#utility.yul\":1448:1449   */\n      0x00\n        /* \"#utility.yul\":1473:1526   */\n      tag_346\n        /* \"#utility.yul\":1518:1525   */\n      dup6\n        /* \"#utility.yul\":1509:1515   */\n      dup3\n        /* \"#utility.yul\":1498:1507   */\n      dup7\n        /* \"#utility.yul\":1494:1516   */\n      add\n        /* \"#utility.yul\":1473:1526   */\n      tag_235\n      jump\t// in\n    tag_346:\n        /* \"#utility.yul\":1463:1526   */\n      swap3\n      pop\n        /* \"#utility.yul\":1419:1536   */\n      pop\n        /* \"#utility.yul\":1575:1577   */\n      0x20\n        /* \"#utility.yul\":1601:1654   */\n      tag_347\n        /* \"#utility.yul\":1646:1653   */\n      dup6\n        /* \"#utility.yul\":1637:1643   */\n      dup3\n        /* \"#utility.yul\":1626:1635   */\n      dup7\n        /* \"#utility.yul\":1622:1644   */\n      add\n        /* \"#utility.yul\":1601:1654   */\n      tag_238\n      jump\t// in\n    tag_347:\n        /* \"#utility.yul\":1591:1654   */\n      swap2\n      pop\n        /* \"#utility.yul\":1546:1664   */\n      pop\n        /* \"#utility.yul\":1197:1671   */\n      swap3\n      pop\n      swap3\n      swap1\n      pop\n      jump\t// out\n        /* \"#utility.yul\":1677:2006   */\n    tag_26:\n        /* \"#utility.yul\":1736:1742   */\n      0x00\n        /* \"#utility.yul\":1785:1787   */\n      0x20\n        /* \"#utility.yul\":1773:1782   */\n      dup3\n        /* \"#utility.yul\":1764:1771   */\n      dup5\n        /* \"#utility.yul\":1760:1783   */\n      sub\n        /* \"#utility.yul\":1756:1788   */\n      slt\n        /* \"#utility.yul\":1753:1872   */\n      iszero\n      tag_349\n      jumpi\n        /* \"#utility.yul\":1791:1870   */\n      tag_350\n      tag_230\n      jump\t// in\n    tag_350:\n        /* \"#utility.yul\":1753:1872   */\n    tag_349:\n        /* \"#utility.yul\":1911:1912   */\n      0x00\n        /* \"#utility.yul\":1936:1989   */\n      tag_351\n        /* \"#utility.yul\":1981:1988   */\n      dup5\n        /* \"#utility.yul\":1972:1978   */\n      dup3\n        /* \"#utility.yul\":1961:1970   */\n      dup6\n        /* \"#utility.yul\":1957:1979   */\n      add\n        /* \"#utility.yul\":1936:1989   */\n      tag_238\n      jump\t// in\n    tag_351:\n        /* \"#utility.yul\":1926:1989   */\n      swap2\n      pop\n        /* \"#utility.yul\":1882:1999   */\n      pop\n        /* \"#utility.yul\":1677:2006   */\n      swap3\n      swap2\n      pop\n      pop\n      jump\t// out\n        /* \"#utility.yul\":2012:2111   */\n    tag_239:\n        /* \"#utility.yul\":2064:2070   */\n      0x00\n        /* \"#utility.yul\":2098:2103   */\n      dup2\n        /* \"#utility.yul\":2092:2104   */\n      mload\n        /* \"#utility.yul\":2082:2104   */\n      swap1\n      pop\n        /* \"#utility.yul\":2012:2111   */\n      swap2\n      swap1\n      pop\n      jump\t// out\n        /* \"#utility.yul\":2117:2276   */\n    tag_240:\n        /* \"#utility.yul\":2191:2202   */\n      0x00\n        /* \"#utility.yul\":2225:2231   */\n      dup3\n        /* \"#utility.yul\":2220:2223   */\n      dup3\n        /* \"#utility.yul\":2213:2232   */\n      mstore\n        /* \"#utility.yul\":2265:2269   */\n      0x20\n        /* \"#utility.yul\":2260:2263   */\n      dup3\n        /* \"#utility.yul\":2256:2270   */\n      add\n        /* \"#utility.yul\":2241:2270   */\n      swap1\n      pop\n        /* \"#utility.yul\":2117:2276   */\n      swap3\n      swap2\n      pop\n      pop\n      jump\t// out\n        /* \"#utility.yul\":2282:2589   */\n    tag_241:\n        /* \"#utility.yul\":2350:2351   */\n      0x00\n        /* \"#utility.yul\":2360:2473   */\n    tag_355:\n        /* \"#utility.yul\":2374:2380   */\n      dup4\n        /* \"#utility.yul\":2371:2372   */\n      dup2\n        /* \"#utility.yul\":2368:2381   */\n      lt\n        /* \"#utility.yul\":2360:2473   */\n      iszero\n      tag_357\n      jumpi\n        /* \"#utility.yul\":2459:2460   */\n      dup1\n        /* \"#utility.yul\":2454:2457   */\n      dup3\n        /* \"#utility.yul\":2450:2461   */\n      add\n        /* \"#utility.yul\":2444:2462   */\n      mload\n        /* \"#utility.yul\":2440:2441   */\n      dup2\n        /* \"#utility.yul\":2435:2438   */\n      dup5\n        /* \"#utility.yul\":2431:2442   */\n      add\n        /* \"#utility.yul\":2424:2463   */\n      mstore\n        /* \"#utility.yul\":2396:2398   */\n      0x20\n        /* \"#utility.yul\":2393:2394   */\n      dup2\n        /* \"#utility.yul\":2389:2399   */\n      add\n        /* \"#utility.yul\":2384:2399   */\n      swap1\n      pop\n        /* \"#utility.yul\":2360:2473   */\n      jump(tag_355)\n    tag_357:\n        /* \"#utility.yul\":2491:2497   */\n      dup4\n        /* \"#utility.yul\":2488:2489   */\n      dup2\n        /* \"#utility.yul\":2485:2498   */\n      gt\n        /* \"#utility.yul\":2482:2583   */\n      iszero\n      tag_358\n      jumpi\n        /* \"#utility.yul\":2571:2572   */\n      0x00\n        /* \"#utility.yul\":2562:2568   */\n      dup5\n        /* \"#utility.yul\":2557:2560   */\n      dup5\n        /* \"#utility.yul\":2553:2569   */\n      add\n        /* \"#utility.yul\":2546:2573   */\n      mstore\n        /* \"#utility.yul\":2482:2583   */\n    tag_358:\n        /* \"#utility.yul\":2331:2589   */\n      pop\n        /* \"#utility.yul\":2282:2589   */\n      pop\n      pop\n      pop\n      jump\t// out\n        /* \"#utility.yul\":2595:2697   */\n    tag_242:\n        /* \"#utility.yul\":2636:2642   */\n      0x00\n        /* \"#utility.yul\":2687:2689   */\n      0x1f\n        /* \"#utility.yul\":2683:2690   */\n      not\n        /* \"#utility.yul\":2678:2680   */\n      0x1f\n        /* \"#utility.yul\":2671:2676   */\n      dup4\n        /* \"#utility.yul\":2667:2681   */\n      add\n        /* \"#utility.yul\":2663:2691   */\n      and\n        /* \"#utility.yul\":2653:2691   */\n      swap1\n      pop\n        /* \"#utility.yul\":2595:2697   */\n      swap2\n      swap1\n      pop\n      jump\t// out\n        /* \"#utility.yul\":2703:3047   */\n    tag_243:\n        /* \"#utility.yul\":2781:2784   */\n      0x00\n        /* \"#utility.yul\":2809:2848   */\n      tag_361\n        /* \"#utility.yul\":2842:2847   */\n      dup3\n        /* \"#utility.yul\":2809:2848   */\n      tag_239\n      jump\t// in\n    tag_361:\n        /* \"#utility.yul\":2864:2925   */\n      tag_362\n        /* \"#utility.yul\":2918:2924   */\n      dup2\n        /* \"#utility.yul\":2913:2916   */\n      dup6\n        /* \"#utility.yul\":2864:2925   */\n      tag_240\n      jump\t// in\n    tag_362:\n        /* \"#utility.yul\":2857:2925   */\n      swap4\n      pop\n        /* \"#utility.yul\":2934:2986   */\n      tag_363\n        /* \"#utility.yul\":2979:2985   */\n      dup2\n        /* \"#utility.yul\":2974:2977   */\n      dup6\n        /* \"#utility.yul\":2967:2971   */\n      0x20\n        /* \"#utility.yul\":2960:2965   */\n      dup7\n        /* \"#utility.yul\":2956:2972   */\n      add\n        /* \"#utility.yul\":2934:2986   */\n      tag_241\n      jump\t// in\n    tag_363:\n        /* \"#utility.yul\":3011:3040   */\n      tag_364\n        /* \"#utility.yul\":3033:3039   */\n      dup2\n        /* \"#utility.yul\":3011:3040   */\n      tag_242\n      jump\t// in\n    tag_364:\n        /* \"#utility.yul\":3006:3009   */\n      dup5\n        /* \"#utility.yul\":3002:3041   */\n      add\n        /* \"#utility.yul\":2995:3041   */\n      swap2\n      pop\n        /* \"#utility.yul\":2785:3047   */\n      pop\n        /* \"#utility.yul\":2703:3047   */\n      swap3\n      swap2\n      pop\n      pop\n      jump\t// out\n        /* \"#utility.yul\":3053:3161   */\n    tag_244:\n        /* \"#utility.yul\":3130:3154   */\n      tag_366\n        /* \"#utility.yul\":3148:3153   */\n      dup2\n        /* \"#utility.yul\":3130:3154   */\n      tag_233\n      jump\t// in\n    tag_366:\n        /* \"#utility.yul\":3125:3128   */\n      dup3\n        /* \"#utility.yul\":3118:3155   */\n      mstore\n        /* \"#utility.yul\":3053:3161   */\n      pop\n      pop\n      jump\t// out\n        /* \"#utility.yul\":3167:3281   */\n    tag_245:\n        /* \"#utility.yul\":3234:3240   */\n      0x00\n        /* \"#utility.yul\":3268:3273   */\n      dup2\n        /* \"#utility.yul\":3262:3274   */\n      mload\n        /* \"#utility.yul\":3252:3274   */\n      swap1\n      pop\n        /* \"#utility.yul\":3167:3281   */\n      swap2\n      swap1\n      pop\n      jump\t// out\n        /* \"#utility.yul\":3287:3461   */\n    tag_246:\n        /* \"#utility.yul\":3376:3387   */\n      0x00\n        /* \"#utility.yul\":3410:3416   */\n      dup3\n        /* \"#utility.yul\":3405:3408   */\n      dup3\n        /* \"#utility.yul\":3398:3417   */\n      mstore\n        /* \"#utility.yul\":3450:3454   */\n      0x20\n        /* \"#utility.yul\":3445:3448   */\n      dup3\n        /* \"#utility.yul\":3441:3455   */\n      add\n        /* \"#utility.yul\":3426:3455   */\n      swap1\n      pop\n        /* \"#utility.yul\":3287:3461   */\n      swap3\n      swap2\n      pop\n      pop\n      jump\t// out\n        /* \"#utility.yul\":3467:3599   */\n    tag_247:\n        /* \"#utility.yul\":3534:3538   */\n      0x00\n        /* \"#utility.yul\":3557:3560   */\n      dup2\n        /* \"#utility.yul\":3549:3560   */\n      swap1\n      pop\n        /* \"#utility.yul\":3587:3591   */\n      0x20\n        /* \"#utility.yul\":3582:3585   */\n      dup3\n        /* \"#utility.yul\":3578:3592   */\n      add\n        /* \"#utility.yul\":3570:3592   */\n      swap1\n      pop\n        /* \"#utility.yul\":3467:3599   */\n      swap2\n      swap1\n      pop\n      jump\t// out\n        /* \"#utility.yul\":3605:3784   */\n    tag_248:\n        /* \"#utility.yul\":3674:3684   */\n      0x00\n        /* \"#utility.yul\":3695:3741   */\n      tag_371\n        /* \"#utility.yul\":3737:3740   */\n      dup4\n        /* \"#utility.yul\":3729:3735   */\n      dup4\n        /* \"#utility.yul\":3695:3741   */\n      tag_244\n      jump\t// in\n    tag_371:\n        /* \"#utility.yul\":3773:3777   */\n      0x20\n        /* \"#utility.yul\":3768:3771   */\n      dup4\n        /* \"#utility.yul\":3764:3778   */\n      add\n        /* \"#utility.yul\":3750:3778   */\n      swap1\n      pop\n        /* \"#utility.yul\":3605:3784   */\n      swap3\n      swap2\n      pop\n      pop\n      jump\t// out\n        /* \"#utility.yul\":3790:3903   */\n    tag_249:\n        /* \"#utility.yul\":3860:3864   */\n      0x00\n        /* \"#utility.yul\":3892:3896   */\n      0x20\n        /* \"#utility.yul\":3887:3890   */\n      dup3\n        /* \"#utility.yul\":3883:3897   */\n      add\n        /* \"#utility.yul\":3875:3897   */\n      swap1\n      pop\n        /* \"#utility.yul\":3790:3903   */\n      swap2\n      swap1\n      pop\n      jump\t// out\n        /* \"#utility.yul\":3939:4651   */\n    tag_250:\n        /* \"#utility.yul\":4048:4051   */\n      0x00\n        /* \"#utility.yul\":4077:4131   */\n      tag_374\n        /* \"#utility.yul\":4125:4130   */\n      dup3\n        /* \"#utility.yul\":4077:4131   */\n      tag_245\n      jump\t// in\n    tag_374:\n        /* \"#utility.yul\":4147:4223   */\n      tag_375\n        /* \"#utility.yul\":4216:4222   */\n      dup2\n        /* \"#utility.yul\":4211:4214   */\n      dup6\n        /* \"#utility.yul\":4147:4223   */\n      tag_246\n      jump\t// in\n    tag_375:\n        /* \"#utility.yul\":4140:4223   */\n      swap4\n      pop\n        /* \"#utility.yul\":4247:4303   */\n      tag_376\n        /* \"#utility.yul\":4297:4302   */\n      dup4\n        /* \"#utility.yul\":4247:4303   */\n      tag_247\n      jump\t// in\n    tag_376:\n        /* \"#utility.yul\":4326:4333   */\n      dup1\n        /* \"#utility.yul\":4357:4358   */\n      0x00\n        /* \"#utility.yul\":4342:4626   */\n    tag_377:\n        /* \"#utility.yul\":4367:4373   */\n      dup4\n        /* \"#utility.yul\":4364:4365   */\n      dup2\n        /* \"#utility.yul\":4361:4374   */\n      lt\n        /* \"#utility.yul\":4342:4626   */\n      iszero\n      tag_379\n      jumpi\n        /* \"#utility.yul\":4443:4449   */\n      dup2\n        /* \"#utility.yul\":4437:4450   */\n      mload\n        /* \"#utility.yul\":4470:4533   */\n      tag_380\n        /* \"#utility.yul\":4529:4532   */\n      dup9\n        /* \"#utility.yul\":4514:4527   */\n      dup3\n        /* \"#utility.yul\":4470:4533   */\n      tag_248\n      jump\t// in\n    tag_380:\n        /* \"#utility.yul\":4463:4533   */\n      swap8\n      pop\n        /* \"#utility.yul\":4556:4616   */\n      tag_381\n        /* \"#utility.yul\":4609:4615   */\n      dup4\n        /* \"#utility.yul\":4556:4616   */\n      tag_249\n      jump\t// in\n    tag_381:\n        /* \"#utility.yul\":4546:4616   */\n      swap3\n      pop\n        /* \"#utility.yul\":4402:4626   */\n      pop\n        /* \"#utility.yul\":4389:4390   */\n      0x01\n        /* \"#utility.yul\":4386:4387   */\n      dup2\n        /* \"#utility.yul\":4382:4391   */\n      add\n        /* \"#utility.yul\":4377:4391   */\n      swap1\n      pop\n        /* \"#utility.yul\":4342:4626   */\n      jump(tag_377)\n    tag_379:\n        /* \"#utility.yul\":4346:4360   */\n      pop\n        /* \"#utility.yul\":4642:4645   */\n      dup6\n        /* \"#utility.yul\":4635:4645   */\n      swap4\n      pop\n        /* \"#utility.yul\":4053:4651   */\n      pop\n      pop\n      pop\n        /* \"#utility.yul\":3939:4651   */\n      swap3\n      swap2\n      pop\n      pop\n      jump\t// out\n        /* \"#utility.yul\":4657:4750   */\n    tag_251:\n        /* \"#utility.yul\":4693:4700   */\n      0x00\n        /* \"#utility.yul\":4733:4743   */\n      0xffffffff\n        /* \"#utility.yul\":4726:4731   */\n      dup3\n        /* \"#utility.yul\":4722:4744   */\n      and\n        /* \"#utility.yul\":4711:4744   */\n      swap1\n      pop\n        /* \"#utility.yul\":4657:4750   */\n      swap2\n      swap1\n      pop\n      jump\t// out\n        /* \"#utility.yul\":4756:4861   */\n    tag_252:\n        /* \"#utility.yul\":4831:4854   */\n      tag_384\n        /* \"#utility.yul\":4848:4853   */\n      dup2\n        /* \"#utility.yul\":4831:4854   */\n      tag_251\n      jump\t// in\n    tag_384:\n        /* \"#utility.yul\":4826:4829   */\n      dup3\n        /* \"#utility.yul\":4819:4855   */\n      mstore\n        /* \"#utility.yul\":4756:4861   */\n      pop\n      pop\n      jump\t// out\n        /* \"#utility.yul\":4867:4957   */\n    tag_253:\n        /* \"#utility.yul\":4901:4908   */\n      0x00\n        /* \"#utility.yul\":4944:4949   */\n      dup2\n        /* \"#utility.yul\":4937:4950   */\n      iszero\n        /* \"#utility.yul\":4930:4951   */\n      iszero\n        /* \"#utility.yul\":4919:4951   */\n      swap1\n      pop\n        /* \"#utility.yul\":4867:4957   */\n      swap2\n      swap1\n      pop\n      jump\t// out\n        /* \"#utility.yul\":4963:5062   */\n    tag_254:\n        /* \"#utility.yul\":5034:5055   */\n      tag_387\n        /* \"#utility.yul\":5049:5054   */\n      dup2\n        /* \"#utility.yul\":5034:5055   */\n      tag_253\n      jump\t// in\n    tag_387:\n        /* \"#utility.yul\":5029:5032   */\n      dup3\n        /* \"#utility.yul\":5022:5056   */\n      mstore\n        /* \"#utility.yul\":4963:5062   */\n      pop\n      pop\n      jump\t// out\n        /* \"#utility.yul\":5128:6565   */\n    tag_255:\n        /* \"#utility.yul\":5249:5252   */\n      0x00\n        /* \"#utility.yul\":5285:5289   */\n      0xc0\n        /* \"#utility.yul\":5280:5283   */\n      dup4\n        /* \"#utility.yul\":5276:5290   */\n      add\n        /* \"#utility.yul\":5372:5376   */\n      0x00\n        /* \"#utility.yul\":5365:5370   */\n      dup4\n        /* \"#utility.yul\":5361:5377   */\n      add\n        /* \"#utility.yul\":5355:5378   */\n      mload\n        /* \"#utility.yul\":5425:5428   */\n      dup5\n        /* \"#utility.yul\":5419:5423   */\n      dup3\n        /* \"#utility.yul\":5415:5429   */\n      sub\n        /* \"#utility.yul\":5408:5412   */\n      0x00\n        /* \"#utility.yul\":5403:5406   */\n      dup7\n        /* \"#utility.yul\":5399:5413   */\n      add\n        /* \"#utility.yul\":5392:5430   */\n      mstore\n        /* \"#utility.yul\":5451:5524   */\n      tag_389\n        /* \"#utility.yul\":5519:5523   */\n      dup3\n        /* \"#utility.yul\":5505:5517   */\n      dup3\n        /* \"#utility.yul\":5451:5524   */\n      tag_243\n      jump\t// in\n    tag_389:\n        /* \"#utility.yul\":5443:5524   */\n      swap2\n      pop\n        /* \"#utility.yul\":5300:5535   */\n      pop\n        /* \"#utility.yul\":5621:5625   */\n      0x20\n        /* \"#utility.yul\":5614:5619   */\n      dup4\n        /* \"#utility.yul\":5610:5626   */\n      add\n        /* \"#utility.yul\":5604:5627   */\n      mload\n        /* \"#utility.yul\":5640:5703   */\n      tag_390\n        /* \"#utility.yul\":5697:5701   */\n      0x20\n        /* \"#utility.yul\":5692:5695   */\n      dup7\n        /* \"#utility.yul\":5688:5702   */\n      add\n        /* \"#utility.yul\":5674:5686   */\n      dup3\n        /* \"#utility.yul\":5640:5703   */\n      tag_244\n      jump\t// in\n    tag_390:\n        /* \"#utility.yul\":5545:5713   */\n      pop\n        /* \"#utility.yul\":5801:5805   */\n      0x40\n        /* \"#utility.yul\":5794:5799   */\n      dup4\n        /* \"#utility.yul\":5790:5806   */\n      add\n        /* \"#utility.yul\":5784:5807   */\n      mload\n        /* \"#utility.yul\":5854:5857   */\n      dup5\n        /* \"#utility.yul\":5848:5852   */\n      dup3\n        /* \"#utility.yul\":5844:5858   */\n      sub\n        /* \"#utility.yul\":5837:5841   */\n      0x40\n        /* \"#utility.yul\":5832:5835   */\n      dup7\n        /* \"#utility.yul\":5828:5842   */\n      add\n        /* \"#utility.yul\":5821:5859   */\n      mstore\n        /* \"#utility.yul\":5880:5983   */\n      tag_391\n        /* \"#utility.yul\":5978:5982   */\n      dup3\n        /* \"#utility.yul\":5964:5976   */\n      dup3\n        /* \"#utility.yul\":5880:5983   */\n      tag_250\n      jump\t// in\n    tag_391:\n        /* \"#utility.yul\":5872:5983   */\n      swap2\n      pop\n        /* \"#utility.yul\":5723:5994   */\n      pop\n        /* \"#utility.yul\":6089:6093   */\n      0x60\n        /* \"#utility.yul\":6082:6087   */\n      dup4\n        /* \"#utility.yul\":6078:6094   */\n      add\n        /* \"#utility.yul\":6072:6095   */\n      mload\n        /* \"#utility.yul\":6108:6169   */\n      tag_392\n        /* \"#utility.yul\":6163:6167   */\n      0x60\n        /* \"#utility.yul\":6158:6161   */\n      dup7\n        /* \"#utility.yul\":6154:6168   */\n      add\n        /* \"#utility.yul\":6140:6152   */\n      dup3\n        /* \"#utility.yul\":6108:6169   */\n      tag_252\n      jump\t// in\n    tag_392:\n        /* \"#utility.yul\":6004:6179   */\n      pop\n        /* \"#utility.yul\":6278:6282   */\n      0x80\n        /* \"#utility.yul\":6271:6276   */\n      dup4\n        /* \"#utility.yul\":6267:6283   */\n      add\n        /* \"#utility.yul\":6261:6284   */\n      mload\n        /* \"#utility.yul\":6297:6358   */\n      tag_393\n        /* \"#utility.yul\":6352:6356   */\n      0x80\n        /* \"#utility.yul\":6347:6350   */\n      dup7\n        /* \"#utility.yul\":6343:6357   */\n      add\n        /* \"#utility.yul\":6329:6341   */\n      dup3\n        /* \"#utility.yul\":6297:6358   */\n      tag_252\n      jump\t// in\n    tag_393:\n        /* \"#utility.yul\":6189:6368   */\n      pop\n        /* \"#utility.yul\":6452:6456   */\n      0xa0\n        /* \"#utility.yul\":6445:6450   */\n      dup4\n        /* \"#utility.yul\":6441:6457   */\n      add\n        /* \"#utility.yul\":6435:6458   */\n      mload\n        /* \"#utility.yul\":6471:6528   */\n      tag_394\n        /* \"#utility.yul\":6522:6526   */\n      0xa0\n        /* \"#utility.yul\":6517:6520   */\n      dup7\n        /* \"#utility.yul\":6513:6527   */\n      add\n        /* \"#utility.yul\":6499:6511   */\n      dup3\n        /* \"#utility.yul\":6471:6528   */\n      tag_254\n      jump\t// in\n    tag_394:\n        /* \"#utility.yul\":6378:6538   */\n      pop\n        /* \"#utility.yul\":6555:6559   */\n      dup1\n        /* \"#utility.yul\":6548:6559   */\n      swap2\n      pop\n        /* \"#utility.yul\":5254:6565   */\n      pop\n        /* \"#utility.yul\":5128:6565   */\n      swap3\n      swap2\n      pop\n      pop\n      jump\t// out\n        /* \"#utility.yul\":6571:6948   */\n    tag_29:\n        /* \"#utility.yul\":6716:6720   */\n      0x00\n        /* \"#utility.yul\":6754:6756   */\n      0x20\n        /* \"#utility.yul\":6743:6752   */\n      dup3\n        /* \"#utility.yul\":6739:6757   */\n      add\n        /* \"#utility.yul\":6731:6757   */\n      swap1\n      pop\n        /* \"#utility.yul\":6803:6812   */\n      dup2\n        /* \"#utility.yul\":6797:6801   */\n      dup2\n        /* \"#utility.yul\":6793:6813   */\n      sub\n        /* \"#utility.yul\":6789:6790   */\n      0x00\n        /* \"#utility.yul\":6778:6787   */\n      dup4\n        /* \"#utility.yul\":6774:6791   */\n      add\n        /* \"#utility.yul\":6767:6814   */\n      mstore\n        /* \"#utility.yul\":6831:6941   */\n      tag_396\n        /* \"#utility.yul\":6936:6940   */\n      dup2\n        /* \"#utility.yul\":6927:6933   */\n      dup5\n        /* \"#utility.yul\":6831:6941   */\n      tag_255\n      jump\t// in\n    tag_396:\n        /* \"#utility.yul\":6823:6941   */\n      swap1\n      pop\n        /* \"#utility.yul\":6571:6948   */\n      swap3\n      swap2\n      pop\n      pop\n      jump\t// out\n        /* \"#utility.yul\":6954:7072   */\n    tag_256:\n        /* \"#utility.yul\":7041:7065   */\n      tag_398\n        /* \"#utility.yul\":7059:7064   */\n      dup2\n        /* \"#utility.yul\":7041:7065   */\n      tag_236\n      jump\t// in\n    tag_398:\n        /* \"#utility.yul\":7036:7039   */\n      dup3\n        /* \"#utility.yul\":7029:7066   */\n      mstore\n        /* \"#utility.yul\":6954:7072   */\n      pop\n      pop\n      jump\t// out\n        /* \"#utility.yul\":7078:7300   */\n    tag_34:\n        /* \"#utility.yul\":7171:7175   */\n      0x00\n        /* \"#utility.yul\":7209:7211   */\n      0x20\n        /* \"#utility.yul\":7198:7207   */\n      dup3\n        /* \"#utility.yul\":7194:7212   */\n      add\n        /* \"#utility.yul\":7186:7212   */\n      swap1\n      pop\n        /* \"#utility.yul\":7222:7293   */\n      tag_400\n        /* \"#utility.yul\":7290:7291   */\n      0x00\n        /* \"#utility.yul\":7279:7288   */\n      dup4\n        /* \"#utility.yul\":7275:7292   */\n      add\n        /* \"#utility.yul\":7266:7272   */\n      dup5\n        /* \"#utility.yul\":7222:7293   */\n      tag_256\n      jump\t// in\n    tag_400:\n        /* \"#utility.yul\":7078:7300   */\n      swap3\n      swap2\n      pop\n      pop\n      jump\t// out\n        /* \"#utility.yul\":7306:7635   */\n    tag_37:\n        /* \"#utility.yul\":7365:7371   */\n      0x00\n        /* \"#utility.yul\":7414:7416   */\n      0x20\n        /* \"#utility.yul\":7402:7411   */\n      dup3\n        /* \"#utility.yul\":7393:7400   */\n      dup5\n        /* \"#utility.yul\":7389:7412   */\n      sub\n        /* \"#utility.yul\":7385:7417   */\n      slt\n        /* \"#utility.yul\":7382:7501   */\n      iszero\n      tag_402\n      jumpi\n        /* \"#utility.yul\":7420:7499   */\n      tag_403\n      tag_230\n      jump\t// in\n    tag_403:\n        /* \"#utility.yul\":7382:7501   */\n    tag_402:\n        /* \"#utility.yul\":7540:7541   */\n      0x00\n        /* \"#utility.yul\":7565:7618   */\n      tag_404\n        /* \"#utility.yul\":7610:7617   */\n      dup5\n        /* \"#utility.yul\":7601:7607   */\n      dup3\n        /* \"#utility.yul\":7590:7599   */\n      dup6\n        /* \"#utility.yul\":7586:7608   */\n      add\n        /* \"#utility.yul\":7565:7618   */\n      tag_235\n      jump\t// in\n    tag_404:\n        /* \"#utility.yul\":7555:7618   */\n      swap2\n      pop\n        /* \"#utility.yul\":7511:7628   */\n      pop\n        /* \"#utility.yul\":7306:7635   */\n      swap3\n      swap2\n      pop\n      pop\n      jump\t// out\n        /* \"#utility.yul\":7641:7810   */\n    tag_257:\n        /* \"#utility.yul\":7725:7736   */\n      0x00\n        /* \"#utility.yul\":7759:7765   */\n      dup3\n        /* \"#utility.yul\":7754:7757   */\n      dup3\n        /* \"#utility.yul\":7747:7766   */\n      mstore\n        /* \"#utility.yul\":7799:7803   */\n      0x20\n        /* \"#utility.yul\":7794:7797   */\n      dup3\n        /* \"#utility.yul\":7790:7804   */\n      add\n        /* \"#utility.yul\":7775:7804   */\n      swap1\n      pop\n        /* \"#utility.yul\":7641:7810   */\n      swap3\n      swap2\n      pop\n      pop\n      jump\t// out\n        /* \"#utility.yul\":7816:8180   */\n    tag_258:\n        /* \"#utility.yul\":7904:7907   */\n      0x00\n        /* \"#utility.yul\":7932:7971   */\n      tag_407\n        /* \"#utility.yul\":7965:7970   */\n      dup3\n        /* \"#utility.yul\":7932:7971   */\n      tag_239\n      jump\t// in\n    tag_407:\n        /* \"#utility.yul\":7987:8058   */\n      tag_408\n        /* \"#utility.yul\":8051:8057   */\n      dup2\n        /* \"#utility.yul\":8046:8049   */\n      dup6\n        /* \"#utility.yul\":7987:8058   */\n      tag_257\n      jump\t// in\n    tag_408:\n        /* \"#utility.yul\":7980:8058   */\n      swap4\n      pop\n        /* \"#utility.yul\":8067:8119   */\n      tag_409\n        /* \"#utility.yul\":8112:8118   */\n      dup2\n        /* \"#utility.yul\":8107:8110   */\n      dup6\n        /* \"#utility.yul\":8100:8104   */\n      0x20\n        /* \"#utility.yul\":8093:8098   */\n      dup7\n        /* \"#utility.yul\":8089:8105   */\n      add\n        /* \"#utility.yul\":8067:8119   */\n      tag_241\n      jump\t// in\n    tag_409:\n        /* \"#utility.yul\":8144:8173   */\n      tag_410\n        /* \"#utility.yul\":8166:8172   */\n      dup2\n        /* \"#utility.yul\":8144:8173   */\n      tag_242\n      jump\t// in\n    tag_410:\n        /* \"#utility.yul\":8139:8142   */\n      dup5\n        /* \"#utility.yul\":8135:8174   */\n      add\n        /* \"#utility.yul\":8128:8174   */\n      swap2\n      pop\n        /* \"#utility.yul\":7908:8180   */\n      pop\n        /* \"#utility.yul\":7816:8180   */\n      swap3\n      swap2\n      pop\n      pop\n      jump\t// out\n        /* \"#utility.yul\":8186:8304   */\n    tag_259:\n        /* \"#utility.yul\":8273:8297   */\n      tag_412\n        /* \"#utility.yul\":8291:8296   */\n      dup2\n        /* \"#utility.yul\":8273:8297   */\n      tag_233\n      jump\t// in\n    tag_412:\n        /* \"#utility.yul\":8268:8271   */\n      dup3\n        /* \"#utility.yul\":8261:8298   */\n      mstore\n        /* \"#utility.yul\":8186:8304   */\n      pop\n      pop\n      jump\t// out\n        /* \"#utility.yul\":8310:8425   */\n    tag_260:\n        /* \"#utility.yul\":8395:8418   */\n      tag_414\n        /* \"#utility.yul\":8412:8417   */\n      dup2\n        /* \"#utility.yul\":8395:8418   */\n      tag_251\n      jump\t// in\n    tag_414:\n        /* \"#utility.yul\":8390:8393   */\n      dup3\n        /* \"#utility.yul\":8383:8419   */\n      mstore\n        /* \"#utility.yul\":8310:8425   */\n      pop\n      pop\n      jump\t// out\n        /* \"#utility.yul\":8431:8540   */\n    tag_261:\n        /* \"#utility.yul\":8512:8533   */\n      tag_416\n        /* \"#utility.yul\":8527:8532   */\n      dup2\n        /* \"#utility.yul\":8512:8533   */\n      tag_253\n      jump\t// in\n    tag_416:\n        /* \"#utility.yul\":8507:8510   */\n      dup3\n        /* \"#utility.yul\":8500:8534   */\n      mstore\n        /* \"#utility.yul\":8431:8540   */\n      pop\n      pop\n      jump\t// out\n        /* \"#utility.yul\":8546:9281   */\n    tag_44:\n        /* \"#utility.yul\":8761:8765   */\n      0x00\n        /* \"#utility.yul\":8799:8802   */\n      0xa0\n        /* \"#utility.yul\":8788:8797   */\n      dup3\n        /* \"#utility.yul\":8784:8803   */\n      add\n        /* \"#utility.yul\":8776:8803   */\n      swap1\n      pop\n        /* \"#utility.yul\":8849:8858   */\n      dup2\n        /* \"#utility.yul\":8843:8847   */\n      dup2\n        /* \"#utility.yul\":8839:8859   */\n      sub\n        /* \"#utility.yul\":8835:8836   */\n      0x00\n        /* \"#utility.yul\":8824:8833   */\n      dup4\n        /* \"#utility.yul\":8820:8837   */\n      add\n        /* \"#utility.yul\":8813:8860   */\n      mstore\n        /* \"#utility.yul\":8877:8955   */\n      tag_418\n        /* \"#utility.yul\":8950:8954   */\n      dup2\n        /* \"#utility.yul\":8941:8947   */\n      dup9\n        /* \"#utility.yul\":8877:8955   */\n      tag_258\n      jump\t// in\n    tag_418:\n        /* \"#utility.yul\":8869:8955   */\n      swap1\n      pop\n        /* \"#utility.yul\":8965:9037   */\n      tag_419\n        /* \"#utility.yul\":9033:9035   */\n      0x20\n        /* \"#utility.yul\":9022:9031   */\n      dup4\n        /* \"#utility.yul\":9018:9036   */\n      add\n        /* \"#utility.yul\":9009:9015   */\n      dup8\n        /* \"#utility.yul\":8965:9037   */\n      tag_259\n      jump\t// in\n    tag_419:\n        /* \"#utility.yul\":9047:9117   */\n      tag_420\n        /* \"#utility.yul\":9113:9115   */\n      0x40\n        /* \"#utility.yul\":9102:9111   */\n      dup4\n        /* \"#utility.yul\":9098:9116   */\n      add\n        /* \"#utility.yul\":9089:9095   */\n      dup7\n        /* \"#utility.yul\":9047:9117   */\n      tag_260\n      jump\t// in\n    tag_420:\n        /* \"#utility.yul\":9127:9197   */\n      tag_421\n        /* \"#utility.yul\":9193:9195   */\n      0x60\n        /* \"#utility.yul\":9182:9191   */\n      dup4\n        /* \"#utility.yul\":9178:9196   */\n      add\n        /* \"#utility.yul\":9169:9175   */\n      dup6\n        /* \"#utility.yul\":9127:9197   */\n      tag_260\n      jump\t// in\n    tag_421:\n        /* \"#utility.yul\":9207:9274   */\n      tag_422\n        /* \"#utility.yul\":9269:9272   */\n      0x80\n        /* \"#utility.yul\":9258:9267   */\n      dup4\n        /* \"#utility.yul\":9254:9273   */\n      add\n        /* \"#utility.yul\":9245:9251   */\n      dup5\n        /* \"#utility.yul\":9207:9274   */\n      tag_261\n      jump\t// in\n    tag_422:\n        /* \"#utility.yul\":8546:9281   */\n      swap7\n      swap6\n      pop\n      pop\n      pop\n      pop\n      pop\n      pop\n      jump\t// out\n        /* \"#utility.yul\":9287:9471   */\n    tag_262:\n        /* \"#utility.yul\":9386:9397   */\n      0x00\n        /* \"#utility.yul\":9420:9426   */\n      dup3\n        /* \"#utility.yul\":9415:9418   */\n      dup3\n        /* \"#utility.yul\":9408:9427   */\n      mstore\n        /* \"#utility.yul\":9460:9464   */\n      0x20\n        /* \"#utility.yul\":9455:9458   */\n      dup3\n        /* \"#utility.yul\":9451:9465   */\n      add\n        /* \"#utility.yul\":9436:9465   */\n      swap1\n      pop\n        /* \"#utility.yul\":9287:9471   */\n      swap3\n      swap2\n      pop\n      pop\n      jump\t// out\n        /* \"#utility.yul\":9507:10239   */\n    tag_263:\n        /* \"#utility.yul\":9626:9629   */\n      0x00\n        /* \"#utility.yul\":9655:9709   */\n      tag_425\n        /* \"#utility.yul\":9703:9708   */\n      dup3\n        /* \"#utility.yul\":9655:9709   */\n      tag_245\n      jump\t// in\n    tag_425:\n        /* \"#utility.yul\":9725:9811   */\n      tag_426\n        /* \"#utility.yul\":9804:9810   */\n      dup2\n        /* \"#utility.yul\":9799:9802   */\n      dup6\n        /* \"#utility.yul\":9725:9811   */\n      tag_262\n      jump\t// in\n    tag_426:\n        /* \"#utility.yul\":9718:9811   */\n      swap4\n      pop\n        /* \"#utility.yul\":9835:9891   */\n      tag_427\n        /* \"#utility.yul\":9885:9890   */\n      dup4\n        /* \"#utility.yul\":9835:9891   */\n      tag_247\n      jump\t// in\n    tag_427:\n        /* \"#utility.yul\":9914:9921   */\n      dup1\n        /* \"#utility.yul\":9945:9946   */\n      0x00\n        /* \"#utility.yul\":9930:10214   */\n    tag_428:\n        /* \"#utility.yul\":9955:9961   */\n      dup4\n        /* \"#utility.yul\":9952:9953   */\n      dup2\n        /* \"#utility.yul\":9949:9962   */\n      lt\n        /* \"#utility.yul\":9930:10214   */\n      iszero\n      tag_430\n      jumpi\n        /* \"#utility.yul\":10031:10037   */\n      dup2\n        /* \"#utility.yul\":10025:10038   */\n      mload\n        /* \"#utility.yul\":10058:10121   */\n      tag_431\n        /* \"#utility.yul\":10117:10120   */\n      dup9\n        /* \"#utility.yul\":10102:10115   */\n      dup3\n        /* \"#utility.yul\":10058:10121   */\n      tag_248\n      jump\t// in\n    tag_431:\n        /* \"#utility.yul\":10051:10121   */\n      swap8\n      pop\n        /* \"#utility.yul\":10144:10204   */\n      tag_432\n        /* \"#utility.yul\":10197:10203   */\n      dup4\n        /* \"#utility.yul\":10144:10204   */\n      tag_249\n      jump\t// in\n    tag_432:\n        /* \"#utility.yul\":10134:10204   */\n      swap3\n      pop\n        /* \"#utility.yul\":9990:10214   */\n      pop\n        /* \"#utility.yul\":9977:9978   */\n      0x01\n        /* \"#utility.yul\":9974:9975   */\n      dup2\n        /* \"#utility.yul\":9970:9979   */\n      add\n        /* \"#utility.yul\":9965:9979   */\n      swap1\n      pop\n        /* \"#utility.yul\":9930:10214   */\n      jump(tag_428)\n    tag_430:\n        /* \"#utility.yul\":9934:9948   */\n      pop\n        /* \"#utility.yul\":10230:10233   */\n      dup6\n        /* \"#utility.yul\":10223:10233   */\n      swap4\n      pop\n        /* \"#utility.yul\":9631:10239   */\n      pop\n      pop\n      pop\n        /* \"#utility.yul\":9507:10239   */\n      swap3\n      swap2\n      pop\n      pop\n      jump\t// out\n        /* \"#utility.yul\":10245:10618   */\n    tag_49:\n        /* \"#utility.yul\":10388:10392   */\n      0x00\n        /* \"#utility.yul\":10426:10428   */\n      0x20\n        /* \"#utility.yul\":10415:10424   */\n      dup3\n        /* \"#utility.yul\":10411:10429   */\n      add\n        /* \"#utility.yul\":10403:10429   */\n      swap1\n      pop\n        /* \"#utility.yul\":10475:10484   */\n      dup2\n        /* \"#utility.yul\":10469:10473   */\n      dup2\n        /* \"#utility.yul\":10465:10485   */\n      sub\n        /* \"#utility.yul\":10461:10462   */\n      0x00\n        /* \"#utility.yul\":10450:10459   */\n      dup4\n        /* \"#utility.yul\":10446:10463   */\n      add\n        /* \"#utility.yul\":10439:10486   */\n      mstore\n        /* \"#utility.yul\":10503:10611   */\n      tag_434\n        /* \"#utility.yul\":10606:10610   */\n      dup2\n        /* \"#utility.yul\":10597:10603   */\n      dup5\n        /* \"#utility.yul\":10503:10611   */\n      tag_263\n      jump\t// in\n    tag_434:\n        /* \"#utility.yul\":10495:10611   */\n      swap1\n      pop\n        /* \"#utility.yul\":10245:10618   */\n      swap3\n      swap2\n      pop\n      pop\n      jump\t// out\n        /* \"#utility.yul\":10624:10738   */\n    tag_264:\n        /* \"#utility.yul\":10691:10697   */\n      0x00\n        /* \"#utility.yul\":10725:10730   */\n      dup2\n        /* \"#utility.yul\":10719:10731   */\n      mload\n        /* \"#utility.yul\":10709:10731   */\n      swap1\n      pop\n        /* \"#utility.yul\":10624:10738   */\n      swap2\n      swap1\n      pop\n      jump\t// out\n        /* \"#utility.yul\":10744:10928   */\n    tag_265:\n        /* \"#utility.yul\":10843:10854   */\n      0x00\n        /* \"#utility.yul\":10877:10883   */\n      dup3\n        /* \"#utility.yul\":10872:10875   */\n      dup3\n        /* \"#utility.yul\":10865:10884   */\n      mstore\n        /* \"#utility.yul\":10917:10921   */\n      0x20\n        /* \"#utility.yul\":10912:10915   */\n      dup3\n        /* \"#utility.yul\":10908:10922   */\n      add\n        /* \"#utility.yul\":10893:10922   */\n      swap1\n      pop\n        /* \"#utility.yul\":10744:10928   */\n      swap3\n      swap2\n      pop\n      pop\n      jump\t// out\n        /* \"#utility.yul\":10934:11066   */\n    tag_266:\n        /* \"#utility.yul\":11001:11005   */\n      0x00\n        /* \"#utility.yul\":11024:11027   */\n      dup2\n        /* \"#utility.yul\":11016:11027   */\n      swap1\n      pop\n        /* \"#utility.yul\":11054:11058   */\n      0x20\n        /* \"#utility.yul\":11049:11052   */\n      dup3\n        /* \"#utility.yul\":11045:11059   */\n      add\n        /* \"#utility.yul\":11037:11059   */\n      swap1\n      pop\n        /* \"#utility.yul\":10934:11066   */\n      swap2\n      swap1\n      pop\n      jump\t// out\n        /* \"#utility.yul\":11072:11180   */\n    tag_267:\n        /* \"#utility.yul\":11149:11173   */\n      tag_439\n        /* \"#utility.yul\":11167:11172   */\n      dup2\n        /* \"#utility.yul\":11149:11173   */\n      tag_236\n      jump\t// in\n    tag_439:\n        /* \"#utility.yul\":11144:11147   */\n      dup3\n        /* \"#utility.yul\":11137:11174   */\n      mstore\n        /* \"#utility.yul\":11072:11180   */\n      pop\n      pop\n      jump\t// out\n        /* \"#utility.yul\":11186:11365   */\n    tag_268:\n        /* \"#utility.yul\":11255:11265   */\n      0x00\n        /* \"#utility.yul\":11276:11322   */\n      tag_441\n        /* \"#utility.yul\":11318:11321   */\n      dup4\n        /* \"#utility.yul\":11310:11316   */\n      dup4\n        /* \"#utility.yul\":11276:11322   */\n      tag_267\n      jump\t// in\n    tag_441:\n        /* \"#utility.yul\":11354:11358   */\n      0x20\n        /* \"#utility.yul\":11349:11352   */\n      dup4\n        /* \"#utility.yul\":11345:11359   */\n      add\n        /* \"#utility.yul\":11331:11359   */\n      swap1\n      pop\n        /* \"#utility.yul\":11186:11365   */\n      swap3\n      swap2\n      pop\n      pop\n      jump\t// out\n        /* \"#utility.yul\":11371:11484   */\n    tag_269:\n        /* \"#utility.yul\":11441:11445   */\n      0x00\n        /* \"#utility.yul\":11473:11477   */\n      0x20\n        /* \"#utility.yul\":11468:11471   */\n      dup3\n        /* \"#utility.yul\":11464:11478   */\n      add\n        /* \"#utility.yul\":11456:11478   */\n      swap1\n      pop\n        /* \"#utility.yul\":11371:11484   */\n      swap2\n      swap1\n      pop\n      jump\t// out\n        /* \"#utility.yul\":11520:12252   */\n    tag_270:\n        /* \"#utility.yul\":11639:11642   */\n      0x00\n        /* \"#utility.yul\":11668:11722   */\n      tag_444\n        /* \"#utility.yul\":11716:11721   */\n      dup3\n        /* \"#utility.yul\":11668:11722   */\n      tag_264\n      jump\t// in\n    tag_444:\n        /* \"#utility.yul\":11738:11824   */\n      tag_445\n        /* \"#utility.yul\":11817:11823   */\n      dup2\n        /* \"#utility.yul\":11812:11815   */\n      dup6\n        /* \"#utility.yul\":11738:11824   */\n      tag_265\n      jump\t// in\n    tag_445:\n        /* \"#utility.yul\":11731:11824   */\n      swap4\n      pop\n        /* \"#utility.yul\":11848:11904   */\n      tag_446\n        /* \"#utility.yul\":11898:11903   */\n      dup4\n        /* \"#utility.yul\":11848:11904   */\n      tag_266\n      jump\t// in\n    tag_446:\n        /* \"#utility.yul\":11927:11934   */\n      dup1\n        /* \"#utility.yul\":11958:11959   */\n      0x00\n        /* \"#utility.yul\":11943:12227   */\n    tag_447:\n        /* \"#utility.yul\":11968:11974   */\n      dup4\n        /* \"#utility.yul\":11965:11966   */\n      dup2\n        /* \"#utility.yul\":11962:11975   */\n      lt\n        /* \"#utility.yul\":11943:12227   */\n      iszero\n      tag_449\n      jumpi\n        /* \"#utility.yul\":12044:12050   */\n      dup2\n        /* \"#utility.yul\":12038:12051   */\n      mload\n        /* \"#utility.yul\":12071:12134   */\n      tag_450\n        /* \"#utility.yul\":12130:12133   */\n      dup9\n        /* \"#utility.yul\":12115:12128   */\n      dup3\n        /* \"#utility.yul\":12071:12134   */\n      tag_268\n      jump\t// in\n    tag_450:\n        /* \"#utility.yul\":12064:12134   */\n      swap8\n      pop\n        /* \"#utility.yul\":12157:12217   */\n      tag_451\n        /* \"#utility.yul\":12210:12216   */\n      dup4\n        /* \"#utility.yul\":12157:12217   */\n      tag_269\n      jump\t// in\n    tag_451:\n        /* \"#utility.yul\":12147:12217   */\n      swap3\n      pop\n        /* \"#utility.yul\":12003:12227   */\n      pop\n        /* \"#utility.yul\":11990:11991   */\n      0x01\n        /* \"#utility.yul\":11987:11988   */\n      dup2\n        /* \"#utility.yul\":11983:11992   */\n      add\n        /* \"#utility.yul\":11978:11992   */\n      swap1\n      pop\n        /* \"#utility.yul\":11943:12227   */\n      jump(tag_447)\n    tag_449:\n        /* \"#utility.yul\":11947:11961   */\n      pop\n        /* \"#utility.yul\":12243:12246   */\n      dup6\n        /* \"#utility.yul\":12236:12246   */\n      swap4\n      pop\n        /* \"#utility.yul\":11644:12252   */\n      pop\n      pop\n      pop\n        /* \"#utility.yul\":11520:12252   */\n      swap3\n      swap2\n      pop\n      pop\n      jump\t// out\n        /* \"#utility.yul\":12258:12851   */\n    tag_54:\n        /* \"#utility.yul\":12457:12461   */\n      0x00\n        /* \"#utility.yul\":12495:12497   */\n      0x60\n        /* \"#utility.yul\":12484:12493   */\n      dup3\n        /* \"#utility.yul\":12480:12498   */\n      add\n        /* \"#utility.yul\":12472:12498   */\n      swap1\n      pop\n        /* \"#utility.yul\":12544:12553   */\n      dup2\n        /* \"#utility.yul\":12538:12542   */\n      dup2\n        /* \"#utility.yul\":12534:12554   */\n      sub\n        /* \"#utility.yul\":12530:12531   */\n      0x00\n        /* \"#utility.yul\":12519:12528   */\n      dup4\n        /* \"#utility.yul\":12515:12532   */\n      add\n        /* \"#utility.yul\":12508:12555   */\n      mstore\n        /* \"#utility.yul\":12572:12680   */\n      tag_453\n        /* \"#utility.yul\":12675:12679   */\n      dup2\n        /* \"#utility.yul\":12666:12672   */\n      dup7\n        /* \"#utility.yul\":12572:12680   */\n      tag_270\n      jump\t// in\n    tag_453:\n        /* \"#utility.yul\":12564:12680   */\n      swap1\n      pop\n        /* \"#utility.yul\":12690:12762   */\n      tag_454\n        /* \"#utility.yul\":12758:12760   */\n      0x20\n        /* \"#utility.yul\":12747:12756   */\n      dup4\n        /* \"#utility.yul\":12743:12761   */\n      add\n        /* \"#utility.yul\":12734:12740   */\n      dup6\n        /* \"#utility.yul\":12690:12762   */\n      tag_259\n      jump\t// in\n    tag_454:\n        /* \"#utility.yul\":12772:12844   */\n      tag_455\n        /* \"#utility.yul\":12840:12842   */\n      0x40\n        /* \"#utility.yul\":12829:12838   */\n      dup4\n        /* \"#utility.yul\":12825:12843   */\n      add\n        /* \"#utility.yul\":12816:12822   */\n      dup5\n        /* \"#utility.yul\":12772:12844   */\n      tag_256\n      jump\t// in\n    tag_455:\n        /* \"#utility.yul\":12258:12851   */\n      swap5\n      swap4\n      pop\n      pop\n      pop\n      pop\n      jump\t// out\n        /* \"#utility.yul\":12857:13622   */\n    tag_61:\n        /* \"#utility.yul\":12943:12949   */\n      0x00\n        /* \"#utility.yul\":12951:12957   */\n      dup1\n        /* \"#utility.yul\":12959:12965   */\n      0x00\n        /* \"#utility.yul\":12967:12973   */\n      dup1\n        /* \"#utility.yul\":13016:13019   */\n      0x80\n        /* \"#utility.yul\":13004:13013   */\n      dup6\n        /* \"#utility.yul\":12995:13002   */\n      dup8\n        /* \"#utility.yul\":12991:13014   */\n      sub\n        /* \"#utility.yul\":12987:13020   */\n      slt\n        /* \"#utility.yul\":12984:13104   */\n      iszero\n      tag_457\n      jumpi\n        /* \"#utility.yul\":13023:13102   */\n      tag_458\n      tag_230\n      jump\t// in\n    tag_458:\n        /* \"#utility.yul\":12984:13104   */\n    tag_457:\n        /* \"#utility.yul\":13143:13144   */\n      0x00\n        /* \"#utility.yul\":13168:13221   */\n      tag_459\n        /* \"#utility.yul\":13213:13220   */\n      dup8\n        /* \"#utility.yul\":13204:13210   */\n      dup3\n        /* \"#utility.yul\":13193:13202   */\n      dup9\n        /* \"#utility.yul\":13189:13211   */\n      add\n        /* \"#utility.yul\":13168:13221   */\n      tag_235\n      jump\t// in\n    tag_459:\n        /* \"#utility.yul\":13158:13221   */\n      swap5\n      pop\n        /* \"#utility.yul\":13114:13231   */\n      pop\n        /* \"#utility.yul\":13270:13272   */\n      0x20\n        /* \"#utility.yul\":13296:13349   */\n      tag_460\n        /* \"#utility.yul\":13341:13348   */\n      dup8\n        /* \"#utility.yul\":13332:13338   */\n      dup3\n        /* \"#utility.yul\":13321:13330   */\n      dup9\n        /* \"#utility.yul\":13317:13339   */\n      add\n        /* \"#utility.yul\":13296:13349   */\n      tag_238\n      jump\t// in\n    tag_460:\n        /* \"#utility.yul\":13286:13349   */\n      swap4\n      pop\n        /* \"#utility.yul\":13241:13359   */\n      pop\n        /* \"#utility.yul\":13398:13400   */\n      0x40\n        /* \"#utility.yul\":13424:13477   */\n      tag_461\n        /* \"#utility.yul\":13469:13476   */\n      dup8\n        /* \"#utility.yul\":13460:13466   */\n      dup3\n        /* \"#utility.yul\":13449:13458   */\n      dup9\n        /* \"#utility.yul\":13445:13467   */\n      add\n        /* \"#utility.yul\":13424:13477   */\n      tag_238\n      jump\t// in\n    tag_461:\n        /* \"#utility.yul\":13414:13477   */\n      swap3\n      pop\n        /* \"#utility.yul\":13369:13487   */\n      pop\n        /* \"#utility.yul\":13526:13528   */\n      0x60\n        /* \"#utility.yul\":13552:13605   */\n      tag_462\n        /* \"#utility.yul\":13597:13604   */\n      dup8\n        /* \"#utility.yul\":13588:13594   */\n      dup3\n        /* \"#utility.yul\":13577:13586   */\n      dup9\n        /* \"#utility.yul\":13573:13595   */\n      add\n        /* \"#utility.yul\":13552:13605   */\n      tag_238\n      jump\t// in\n    tag_462:\n        /* \"#utility.yul\":13542:13605   */\n      swap2\n      pop\n        /* \"#utility.yul\":13497:13615   */\n      pop\n        /* \"#utility.yul\":12857:13622   */\n      swap3\n      swap6\n      swap2\n      swap5\n      pop\n      swap3\n      pop\n      jump\t// out\n        /* \"#utility.yul\":13628:13705   */\n    tag_271:\n        /* \"#utility.yul\":13665:13672   */\n      0x00\n        /* \"#utility.yul\":13694:13699   */\n      dup2\n        /* \"#utility.yul\":13683:13699   */\n      swap1\n      pop\n        /* \"#utility.yul\":13628:13705   */\n      swap2\n      swap1\n      pop\n      jump\t// out\n        /* \"#utility.yul\":13711:13829   */\n    tag_272:\n        /* \"#utility.yul\":13798:13822   */\n      tag_465\n        /* \"#utility.yul\":13816:13821   */\n      dup2\n        /* \"#utility.yul\":13798:13822   */\n      tag_271\n      jump\t// in\n    tag_465:\n        /* \"#utility.yul\":13793:13796   */\n      dup3\n        /* \"#utility.yul\":13786:13823   */\n      mstore\n        /* \"#utility.yul\":13711:13829   */\n      pop\n      pop\n      jump\t// out\n        /* \"#utility.yul\":13835:14057   */\n    tag_64:\n        /* \"#utility.yul\":13928:13932   */\n      0x00\n        /* \"#utility.yul\":13966:13968   */\n      0x20\n        /* \"#utility.yul\":13955:13964   */\n      dup3\n        /* \"#utility.yul\":13951:13969   */\n      add\n        /* \"#utility.yul\":13943:13969   */\n      swap1\n      pop\n        /* \"#utility.yul\":13979:14050   */\n      tag_467\n        /* \"#utility.yul\":14047:14048   */\n      0x00\n        /* \"#utility.yul\":14036:14045   */\n      dup4\n        /* \"#utility.yul\":14032:14049   */\n      add\n        /* \"#utility.yul\":14023:14029   */\n      dup5\n        /* \"#utility.yul\":13979:14050   */\n      tag_272\n      jump\t// in\n    tag_467:\n        /* \"#utility.yul\":13835:14057   */\n      swap3\n      swap2\n      pop\n      pop\n      jump\t// out\n        /* \"#utility.yul\":14063:14180   */\n    tag_273:\n        /* \"#utility.yul\":14172:14173   */\n      0x00\n        /* \"#utility.yul\":14169:14170   */\n      dup1\n        /* \"#utility.yul\":14162:14174   */\n      revert\n        /* \"#utility.yul\":14186:14303   */\n    tag_274:\n        /* \"#utility.yul\":14295:14296   */\n      0x00\n        /* \"#utility.yul\":14292:14293   */\n      dup1\n        /* \"#utility.yul\":14285:14297   */\n      revert\n        /* \"#utility.yul\":14309:14489   */\n    tag_127:\n        /* \"#utility.yul\":14357:14434   */\n      0x4e487b7100000000000000000000000000000000000000000000000000000000\n        /* \"#utility.yul\":14354:14355   */\n      0x00\n        /* \"#utility.yul\":14347:14435   */\n      mstore\n        /* \"#utility.yul\":14454:14458   */\n      0x41\n        /* \"#utility.yul\":14451:14452   */\n      0x04\n        /* \"#utility.yul\":14444:14459   */\n      mstore\n        /* \"#utility.yul\":14478:14482   */\n      0x24\n        /* \"#utility.yul\":14475:14476   */\n      0x00\n        /* \"#utility.yul\":14468:14483   */\n      revert\n        /* \"#utility.yul\":14495:14776   */\n    tag_275:\n        /* \"#utility.yul\":14578:14605   */\n      tag_472\n        /* \"#utility.yul\":14600:14604   */\n      dup3\n        /* \"#utility.yul\":14578:14605   */\n      tag_242\n      jump\t// in\n    tag_472:\n        /* \"#utility.yul\":14570:14576   */\n      dup2\n        /* \"#utility.yul\":14566:14606   */\n      add\n        /* \"#utility.yul\":14708:14714   */\n      dup2\n        /* \"#utility.yul\":14696:14706   */\n      dup2\n        /* \"#utility.yul\":14693:14715   */\n      lt\n        /* \"#utility.yul\":14672:14690   */\n      0xffffffffffffffff\n        /* \"#utility.yul\":14660:14670   */\n      dup3\n        /* \"#utility.yul\":14657:14691   */\n      gt\n        /* \"#utility.yul\":14654:14716   */\n      or\n        /* \"#utility.yul\":14651:14739   */\n      iszero\n      tag_473\n      jumpi\n        /* \"#utility.yul\":14719:14737   */\n      tag_474\n      tag_127\n      jump\t// in\n    tag_474:\n        /* \"#utility.yul\":14651:14739   */\n    tag_473:\n        /* \"#utility.yul\":14759:14769   */\n      dup1\n        /* \"#utility.yul\":14755:14757   */\n      0x40\n        /* \"#utility.yul\":14748:14770   */\n      mstore\n        /* \"#utility.yul\":14538:14776   */\n      pop\n        /* \"#utility.yul\":14495:14776   */\n      pop\n      pop\n      jump\t// out\n        /* \"#utility.yul\":14782:14911   */\n    tag_276:\n        /* \"#utility.yul\":14816:14822   */\n      0x00\n        /* \"#utility.yul\":14843:14863   */\n      tag_476\n      tag_229\n      jump\t// in\n    tag_476:\n        /* \"#utility.yul\":14833:14863   */\n      swap1\n      pop\n        /* \"#utility.yul\":14872:14905   */\n      tag_477\n        /* \"#utility.yul\":14900:14904   */\n      dup3\n        /* \"#utility.yul\":14892:14898   */\n      dup3\n        /* \"#utility.yul\":14872:14905   */\n      tag_275\n      jump\t// in\n    tag_477:\n        /* \"#utility.yul\":14782:14911   */\n      swap2\n      swap1\n      pop\n      jump\t// out\n        /* \"#utility.yul\":14917:15224   */\n    tag_277:\n        /* \"#utility.yul\":14978:14982   */\n      0x00\n        /* \"#utility.yul\":15068:15086   */\n      0xffffffffffffffff\n        /* \"#utility.yul\":15060:15066   */\n      dup3\n        /* \"#utility.yul\":15057:15087   */\n      gt\n        /* \"#utility.yul\":15054:15110   */\n      iszero\n      tag_479\n      jumpi\n        /* \"#utility.yul\":15090:15108   */\n      tag_480\n      tag_127\n      jump\t// in\n    tag_480:\n        /* \"#utility.yul\":15054:15110   */\n    tag_479:\n        /* \"#utility.yul\":15128:15157   */\n      tag_481\n        /* \"#utility.yul\":15150:15156   */\n      dup3\n        /* \"#utility.yul\":15128:15157   */\n      tag_242\n      jump\t// in\n    tag_481:\n        /* \"#utility.yul\":15120:15157   */\n      swap1\n      pop\n        /* \"#utility.yul\":15212:15216   */\n      0x20\n        /* \"#utility.yul\":15206:15210   */\n      dup2\n        /* \"#utility.yul\":15202:15217   */\n      add\n        /* \"#utility.yul\":15194:15217   */\n      swap1\n      pop\n        /* \"#utility.yul\":14917:15224   */\n      swap2\n      swap1\n      pop\n      jump\t// out\n        /* \"#utility.yul\":15230:15384   */\n    tag_278:\n        /* \"#utility.yul\":15314:15320   */\n      dup3\n        /* \"#utility.yul\":15309:15312   */\n      dup2\n        /* \"#utility.yul\":15304:15307   */\n      dup4\n        /* \"#utility.yul\":15291:15321   */\n      calldatacopy\n        /* \"#utility.yul\":15376:15377   */\n      0x00\n        /* \"#utility.yul\":15367:15373   */\n      dup4\n        /* \"#utility.yul\":15362:15365   */\n      dup4\n        /* \"#utility.yul\":15358:15374   */\n      add\n        /* \"#utility.yul\":15351:15378   */\n      mstore\n        /* \"#utility.yul\":15230:15384   */\n      pop\n      pop\n      pop\n      jump\t// out\n        /* \"#utility.yul\":15390:15800   */\n    tag_279:\n        /* \"#utility.yul\":15467:15472   */\n      0x00\n        /* \"#utility.yul\":15492:15557   */\n      tag_484\n        /* \"#utility.yul\":15508:15556   */\n      tag_485\n        /* \"#utility.yul\":15549:15555   */\n      dup5\n        /* \"#utility.yul\":15508:15556   */\n      tag_277\n      jump\t// in\n    tag_485:\n        /* \"#utility.yul\":15492:15557   */\n      tag_276\n      jump\t// in\n    tag_484:\n        /* \"#utility.yul\":15483:15557   */\n      swap1\n      pop\n        /* \"#utility.yul\":15580:15586   */\n      dup3\n        /* \"#utility.yul\":15573:15578   */\n      dup2\n        /* \"#utility.yul\":15566:15587   */\n      mstore\n        /* \"#utility.yul\":15618:15622   */\n      0x20\n        /* \"#utility.yul\":15611:15616   */\n      dup2\n        /* \"#utility.yul\":15607:15623   */\n      add\n        /* \"#utility.yul\":15656:15659   */\n      dup5\n        /* \"#utility.yul\":15647:15653   */\n      dup5\n        /* \"#utility.yul\":15642:15645   */\n      dup5\n        /* \"#utility.yul\":15638:15654   */\n      add\n        /* \"#utility.yul\":15635:15660   */\n      gt\n        /* \"#utility.yul\":15632:15744   */\n      iszero\n      tag_486\n      jumpi\n        /* \"#utility.yul\":15663:15742   */\n      tag_487\n      tag_274\n      jump\t// in\n    tag_487:\n        /* \"#utility.yul\":15632:15744   */\n    tag_486:\n        /* \"#utility.yul\":15753:15794   */\n      tag_488\n        /* \"#utility.yul\":15787:15793   */\n      dup5\n        /* \"#utility.yul\":15782:15785   */\n      dup3\n        /* \"#utility.yul\":15777:15780   */\n      dup6\n        /* \"#utility.yul\":15753:15794   */\n      tag_278\n      jump\t// in\n    tag_488:\n        /* \"#utility.yul\":15473:15800   */\n      pop\n        /* \"#utility.yul\":15390:15800   */\n      swap4\n      swap3\n      pop\n      pop\n      pop\n      jump\t// out\n        /* \"#utility.yul\":15819:16157   */\n    tag_280:\n        /* \"#utility.yul\":15874:15879   */\n      0x00\n        /* \"#utility.yul\":15923:15926   */\n      dup3\n        /* \"#utility.yul\":15916:15920   */\n      0x1f\n        /* \"#utility.yul\":15908:15914   */\n      dup4\n        /* \"#utility.yul\":15904:15921   */\n      add\n        /* \"#utility.yul\":15900:15927   */\n      slt\n        /* \"#utility.yul\":15890:16012   */\n      tag_490\n      jumpi\n        /* \"#utility.yul\":15931:16010   */\n      tag_491\n      tag_273\n      jump\t// in\n    tag_491:\n        /* \"#utility.yul\":15890:16012   */\n    tag_490:\n        /* \"#utility.yul\":16048:16054   */\n      dup2\n        /* \"#utility.yul\":16035:16055   */\n      calldataload\n        /* \"#utility.yul\":16073:16151   */\n      tag_492\n        /* \"#utility.yul\":16147:16150   */\n      dup5\n        /* \"#utility.yul\":16139:16145   */\n      dup3\n        /* \"#utility.yul\":16132:16136   */\n      0x20\n        /* \"#utility.yul\":16124:16130   */\n      dup7\n        /* \"#utility.yul\":16120:16137   */\n      add\n        /* \"#utility.yul\":16073:16151   */\n      tag_279\n      jump\t// in\n    tag_492:\n        /* \"#utility.yul\":16064:16151   */\n      swap2\n      pop\n        /* \"#utility.yul\":15880:16157   */\n      pop\n        /* \"#utility.yul\":15819:16157   */\n      swap3\n      swap2\n      pop\n      pop\n      jump\t// out\n        /* \"#utility.yul\":16163:17106   */\n    tag_67:\n        /* \"#utility.yul\":16258:16264   */\n      0x00\n        /* \"#utility.yul\":16266:16272   */\n      dup1\n        /* \"#utility.yul\":16274:16280   */\n      0x00\n        /* \"#utility.yul\":16282:16288   */\n      dup1\n        /* \"#utility.yul\":16331:16334   */\n      0x80\n        /* \"#utility.yul\":16319:16328   */\n      dup6\n        /* \"#utility.yul\":16310:16317   */\n      dup8\n        /* \"#utility.yul\":16306:16329   */\n      sub\n        /* \"#utility.yul\":16302:16335   */\n      slt\n        /* \"#utility.yul\":16299:16419   */\n      iszero\n      tag_494\n      jumpi\n        /* \"#utility.yul\":16338:16417   */\n      tag_495\n      tag_230\n      jump\t// in\n    tag_495:\n        /* \"#utility.yul\":16299:16419   */\n    tag_494:\n        /* \"#utility.yul\":16458:16459   */\n      0x00\n        /* \"#utility.yul\":16483:16536   */\n      tag_496\n        /* \"#utility.yul\":16528:16535   */\n      dup8\n        /* \"#utility.yul\":16519:16525   */\n      dup3\n        /* \"#utility.yul\":16508:16517   */\n      dup9\n        /* \"#utility.yul\":16504:16526   */\n      add\n        /* \"#utility.yul\":16483:16536   */\n      tag_235\n      jump\t// in\n    tag_496:\n        /* \"#utility.yul\":16473:16536   */\n      swap5\n      pop\n        /* \"#utility.yul\":16429:16546   */\n      pop\n        /* \"#utility.yul\":16585:16587   */\n      0x20\n        /* \"#utility.yul\":16611:16664   */\n      tag_497\n        /* \"#utility.yul\":16656:16663   */\n      dup8\n        /* \"#utility.yul\":16647:16653   */\n      dup3\n        /* \"#utility.yul\":16636:16645   */\n      dup9\n        /* \"#utility.yul\":16632:16654   */\n      add\n        /* \"#utility.yul\":16611:16664   */\n      tag_238\n      jump\t// in\n    tag_497:\n        /* \"#utility.yul\":16601:16664   */\n      swap4\n      pop\n        /* \"#utility.yul\":16556:16674   */\n      pop\n        /* \"#utility.yul\":16713:16715   */\n      0x40\n        /* \"#utility.yul\":16739:16792   */\n      tag_498\n        /* \"#utility.yul\":16784:16791   */\n      dup8\n        /* \"#utility.yul\":16775:16781   */\n      dup3\n        /* \"#utility.yul\":16764:16773   */\n      dup9\n        /* \"#utility.yul\":16760:16782   */\n      add\n        /* \"#utility.yul\":16739:16792   */\n      tag_238\n      jump\t// in\n    tag_498:\n        /* \"#utility.yul\":16729:16792   */\n      swap3\n      pop\n        /* \"#utility.yul\":16684:16802   */\n      pop\n        /* \"#utility.yul\":16869:16871   */\n      0x60\n        /* \"#utility.yul\":16858:16867   */\n      dup6\n        /* \"#utility.yul\":16854:16872   */\n      add\n        /* \"#utility.yul\":16841:16873   */\n      calldataload\n        /* \"#utility.yul\":16900:16918   */\n      0xffffffffffffffff\n        /* \"#utility.yul\":16892:16898   */\n      dup2\n        /* \"#utility.yul\":16889:16919   */\n      gt\n        /* \"#utility.yul\":16886:17003   */\n      iszero\n      tag_499\n      jumpi\n        /* \"#utility.yul\":16922:17001   */\n      tag_500\n      tag_231\n      jump\t// in\n    tag_500:\n        /* \"#utility.yul\":16886:17003   */\n    tag_499:\n        /* \"#utility.yul\":17027:17089   */\n      tag_501\n        /* \"#utility.yul\":17081:17088   */\n      dup8\n        /* \"#utility.yul\":17072:17078   */\n      dup3\n        /* \"#utility.yul\":17061:17070   */\n      dup9\n        /* \"#utility.yul\":17057:17079   */\n      add\n        /* \"#utility.yul\":17027:17089   */\n      tag_280\n      jump\t// in\n    tag_501:\n        /* \"#utility.yul\":17017:17089   */\n      swap2\n      pop\n        /* \"#utility.yul\":16812:17099   */\n      pop\n        /* \"#utility.yul\":16163:17106   */\n      swap3\n      swap6\n      swap2\n      swap5\n      pop\n      swap3\n      pop\n      jump\t// out\n        /* \"#utility.yul\":17112:17420   */\n    tag_281:\n        /* \"#utility.yul\":17174:17178   */\n      0x00\n        /* \"#utility.yul\":17264:17282   */\n      0xffffffffffffffff\n        /* \"#utility.yul\":17256:17262   */\n      dup3\n        /* \"#utility.yul\":17253:17283   */\n      gt\n        /* \"#utility.yul\":17250:17306   */\n      iszero\n      tag_503\n      jumpi\n        /* \"#utility.yul\":17286:17304   */\n      tag_504\n      tag_127\n      jump\t// in\n    tag_504:\n        /* \"#utility.yul\":17250:17306   */\n    tag_503:\n        /* \"#utility.yul\":17324:17353   */\n      tag_505\n        /* \"#utility.yul\":17346:17352   */\n      dup3\n        /* \"#utility.yul\":17324:17353   */\n      tag_242\n      jump\t// in\n    tag_505:\n        /* \"#utility.yul\":17316:17353   */\n      swap1\n      pop\n        /* \"#utility.yul\":17408:17412   */\n      0x20\n        /* \"#utility.yul\":17402:17406   */\n      dup2\n        /* \"#utility.yul\":17398:17413   */\n      add\n        /* \"#utility.yul\":17390:17413   */\n      swap1\n      pop\n        /* \"#utility.yul\":17112:17420   */\n      swap2\n      swap1\n      pop\n      jump\t// out\n        /* \"#utility.yul\":17426:17838   */\n    tag_282:\n        /* \"#utility.yul\":17504:17509   */\n      0x00\n        /* \"#utility.yul\":17529:17595   */\n      tag_507\n        /* \"#utility.yul\":17545:17594   */\n      tag_508\n        /* \"#utility.yul\":17587:17593   */\n      dup5\n        /* \"#utility.yul\":17545:17594   */\n      tag_281\n      jump\t// in\n    tag_508:\n        /* \"#utility.yul\":17529:17595   */\n      tag_276\n      jump\t// in\n    tag_507:\n        /* \"#utility.yul\":17520:17595   */\n      swap1\n      pop\n        /* \"#utility.yul\":17618:17624   */\n      dup3\n        /* \"#utility.yul\":17611:17616   */\n      dup2\n        /* \"#utility.yul\":17604:17625   */\n      mstore\n        /* \"#utility.yul\":17656:17660   */\n      0x20\n        /* \"#utility.yul\":17649:17654   */\n      dup2\n        /* \"#utility.yul\":17645:17661   */\n      add\n        /* \"#utility.yul\":17694:17697   */\n      dup5\n        /* \"#utility.yul\":17685:17691   */\n      dup5\n        /* \"#utility.yul\":17680:17683   */\n      dup5\n        /* \"#utility.yul\":17676:17692   */\n      add\n        /* \"#utility.yul\":17673:17698   */\n      gt\n        /* \"#utility.yul\":17670:17782   */\n      iszero\n      tag_509\n      jumpi\n        /* \"#utility.yul\":17701:17780   */\n      tag_510\n      tag_274\n      jump\t// in\n    tag_510:\n        /* \"#utility.yul\":17670:17782   */\n    tag_509:\n        /* \"#utility.yul\":17791:17832   */\n      tag_511\n        /* \"#utility.yul\":17825:17831   */\n      dup5\n        /* \"#utility.yul\":17820:17823   */\n      dup3\n        /* \"#utility.yul\":17815:17818   */\n      dup6\n        /* \"#utility.yul\":17791:17832   */\n      tag_278\n      jump\t// in\n    tag_511:\n        /* \"#utility.yul\":17510:17838   */\n      pop\n        /* \"#utility.yul\":17426:17838   */\n      swap4\n      swap3\n      pop\n      pop\n      pop\n      jump\t// out\n        /* \"#utility.yul\":17858:18198   */\n    tag_283:\n        /* \"#utility.yul\":17914:17919   */\n      0x00\n        /* \"#utility.yul\":17963:17966   */\n      dup3\n        /* \"#utility.yul\":17956:17960   */\n      0x1f\n        /* \"#utility.yul\":17948:17954   */\n      dup4\n        /* \"#utility.yul\":17944:17961   */\n      add\n        /* \"#utility.yul\":17940:17967   */\n      slt\n        /* \"#utility.yul\":17930:18052   */\n      tag_513\n      jumpi\n        /* \"#utility.yul\":17971:18050   */\n      tag_514\n      tag_273\n      jump\t// in\n    tag_514:\n        /* \"#utility.yul\":17930:18052   */\n    tag_513:\n        /* \"#utility.yul\":18088:18094   */\n      dup2\n        /* \"#utility.yul\":18075:18095   */\n      calldataload\n        /* \"#utility.yul\":18113:18192   */\n      tag_515\n        /* \"#utility.yul\":18188:18191   */\n      dup5\n        /* \"#utility.yul\":18180:18186   */\n      dup3\n        /* \"#utility.yul\":18173:18177   */\n      0x20\n        /* \"#utility.yul\":18165:18171   */\n      dup7\n        /* \"#utility.yul\":18161:18178   */\n      add\n        /* \"#utility.yul\":18113:18192   */\n      tag_282\n      jump\t// in\n    tag_515:\n        /* \"#utility.yul\":18104:18192   */\n      swap2\n      pop\n        /* \"#utility.yul\":17920:18198   */\n      pop\n        /* \"#utility.yul\":17858:18198   */\n      swap3\n      swap2\n      pop\n      pop\n      jump\t// out\n        /* \"#utility.yul\":18204:18324   */\n    tag_284:\n        /* \"#utility.yul\":18276:18299   */\n      tag_517\n        /* \"#utility.yul\":18293:18298   */\n      dup2\n        /* \"#utility.yul\":18276:18299   */\n      tag_251\n      jump\t// in\n    tag_517:\n        /* \"#utility.yul\":18269:18274   */\n      dup2\n        /* \"#utility.yul\":18266:18300   */\n      eq\n        /* \"#utility.yul\":18256:18318   */\n      tag_518\n      jumpi\n        /* \"#utility.yul\":18314:18315   */\n      0x00\n        /* \"#utility.yul\":18311:18312   */\n      dup1\n        /* \"#utility.yul\":18304:18316   */\n      revert\n        /* \"#utility.yul\":18256:18318   */\n    tag_518:\n        /* \"#utility.yul\":18204:18324   */\n      pop\n      jump\t// out\n        /* \"#utility.yul\":18330:18467   */\n    tag_285:\n        /* \"#utility.yul\":18375:18380   */\n      0x00\n        /* \"#utility.yul\":18413:18419   */\n      dup2\n        /* \"#utility.yul\":18400:18420   */\n      calldataload\n        /* \"#utility.yul\":18391:18420   */\n      swap1\n      pop\n        /* \"#utility.yul\":18429:18461   */\n      tag_520\n        /* \"#utility.yul\":18455:18460   */\n      dup2\n        /* \"#utility.yul\":18429:18461   */\n      tag_284\n      jump\t// in\n    tag_520:\n        /* \"#utility.yul\":18330:18467   */\n      swap3\n      swap2\n      pop\n      pop\n      jump\t// out\n        /* \"#utility.yul\":18473:19125   */\n    tag_78:\n        /* \"#utility.yul\":18550:18556   */\n      0x00\n        /* \"#utility.yul\":18558:18564   */\n      dup1\n        /* \"#utility.yul\":18607:18609   */\n      0x40\n        /* \"#utility.yul\":18595:18604   */\n      dup4\n        /* \"#utility.yul\":18586:18593   */\n      dup6\n        /* \"#utility.yul\":18582:18605   */\n      sub\n        /* \"#utility.yul\":18578:18610   */\n      slt\n        /* \"#utility.yul\":18575:18694   */\n      iszero\n      tag_522\n      jumpi\n        /* \"#utility.yul\":18613:18692   */\n      tag_523\n      tag_230\n      jump\t// in\n    tag_523:\n        /* \"#utility.yul\":18575:18694   */\n    tag_522:\n        /* \"#utility.yul\":18761:18762   */\n      0x00\n        /* \"#utility.yul\":18750:18759   */\n      dup4\n        /* \"#utility.yul\":18746:18763   */\n      add\n        /* \"#utility.yul\":18733:18764   */\n      calldataload\n        /* \"#utility.yul\":18791:18809   */\n      0xffffffffffffffff\n        /* \"#utility.yul\":18783:18789   */\n      dup2\n        /* \"#utility.yul\":18780:18810   */\n      gt\n        /* \"#utility.yul\":18777:18894   */\n      iszero\n      tag_524\n      jumpi\n        /* \"#utility.yul\":18813:18892   */\n      tag_525\n      tag_231\n      jump\t// in\n    tag_525:\n        /* \"#utility.yul\":18777:18894   */\n    tag_524:\n        /* \"#utility.yul\":18918:18981   */\n      tag_526\n        /* \"#utility.yul\":18973:18980   */\n      dup6\n        /* \"#utility.yul\":18964:18970   */\n      dup3\n        /* \"#utility.yul\":18953:18962   */\n      dup7\n        /* \"#utility.yul\":18949:18971   */\n      add\n        /* \"#utility.yul\":18918:18981   */\n      tag_283\n      jump\t// in\n    tag_526:\n        /* \"#utility.yul\":18908:18981   */\n      swap3\n      pop\n        /* \"#utility.yul\":18704:18991   */\n      pop\n        /* \"#utility.yul\":19030:19032   */\n      0x20\n        /* \"#utility.yul\":19056:19108   */\n      tag_527\n        /* \"#utility.yul\":19100:19107   */\n      dup6\n        /* \"#utility.yul\":19091:19097   */\n      dup3\n        /* \"#utility.yul\":19080:19089   */\n      dup7\n        /* \"#utility.yul\":19076:19098   */\n      add\n        /* \"#utility.yul\":19056:19108   */\n      tag_285\n      jump\t// in\n    tag_527:\n        /* \"#utility.yul\":19046:19108   */\n      swap2\n      pop\n        /* \"#utility.yul\":19001:19118   */\n      pop\n        /* \"#utility.yul\":18473:19125   */\n      swap3\n      pop\n      swap3\n      swap1\n      pop\n      jump\t// out\n        /* \"#utility.yul\":19131:19271   */\n    tag_286:\n        /* \"#utility.yul\":19224:19230   */\n      0x00\n        /* \"#utility.yul\":19258:19263   */\n      dup2\n        /* \"#utility.yul\":19252:19264   */\n      mload\n        /* \"#utility.yul\":19242:19264   */\n      swap1\n      pop\n        /* \"#utility.yul\":19131:19271   */\n      swap2\n      swap1\n      pop\n      jump\t// out\n        /* \"#utility.yul\":19277:19487   */\n    tag_287:\n        /* \"#utility.yul\":19402:19413   */\n      0x00\n        /* \"#utility.yul\":19436:19442   */\n      dup3\n        /* \"#utility.yul\":19431:19434   */\n      dup3\n        /* \"#utility.yul\":19424:19443   */\n      mstore\n        /* \"#utility.yul\":19476:19480   */\n      0x20\n        /* \"#utility.yul\":19471:19474   */\n      dup3\n        /* \"#utility.yul\":19467:19481   */\n      add\n        /* \"#utility.yul\":19452:19481   */\n      swap1\n      pop\n        /* \"#utility.yul\":19277:19487   */\n      swap3\n      swap2\n      pop\n      pop\n      jump\t// out\n        /* \"#utility.yul\":19493:19651   */\n    tag_288:\n        /* \"#utility.yul\":19586:19590   */\n      0x00\n        /* \"#utility.yul\":19609:19612   */\n      dup2\n        /* \"#utility.yul\":19601:19612   */\n      swap1\n      pop\n        /* \"#utility.yul\":19639:19643   */\n      0x20\n        /* \"#utility.yul\":19634:19637   */\n      dup3\n        /* \"#utility.yul\":19630:19644   */\n      add\n        /* \"#utility.yul\":19622:19644   */\n      swap1\n      pop\n        /* \"#utility.yul\":19493:19651   */\n      swap2\n      swap1\n      pop\n      jump\t// out\n        /* \"#utility.yul\":19717:21144   */\n    tag_289:\n        /* \"#utility.yul\":19828:19831   */\n      0x00\n        /* \"#utility.yul\":19864:19868   */\n      0xc0\n        /* \"#utility.yul\":19859:19862   */\n      dup4\n        /* \"#utility.yul\":19855:19869   */\n      add\n        /* \"#utility.yul\":19951:19955   */\n      0x00\n        /* \"#utility.yul\":19944:19949   */\n      dup4\n        /* \"#utility.yul\":19940:19956   */\n      add\n        /* \"#utility.yul\":19934:19957   */\n      mload\n        /* \"#utility.yul\":20004:20007   */\n      dup5\n        /* \"#utility.yul\":19998:20002   */\n      dup3\n        /* \"#utility.yul\":19994:20008   */\n      sub\n        /* \"#utility.yul\":19987:19991   */\n      0x00\n        /* \"#utility.yul\":19982:19985   */\n      dup7\n        /* \"#utility.yul\":19978:19992   */\n      add\n        /* \"#utility.yul\":19971:20009   */\n      mstore\n        /* \"#utility.yul\":20030:20103   */\n      tag_532\n        /* \"#utility.yul\":20098:20102   */\n      dup3\n        /* \"#utility.yul\":20084:20096   */\n      dup3\n        /* \"#utility.yul\":20030:20103   */\n      tag_243\n      jump\t// in\n    tag_532:\n        /* \"#utility.yul\":20022:20103   */\n      swap2\n      pop\n        /* \"#utility.yul\":19879:20114   */\n      pop\n        /* \"#utility.yul\":20200:20204   */\n      0x20\n        /* \"#utility.yul\":20193:20198   */\n      dup4\n        /* \"#utility.yul\":20189:20205   */\n      add\n        /* \"#utility.yul\":20183:20206   */\n      mload\n        /* \"#utility.yul\":20219:20282   */\n      tag_533\n        /* \"#utility.yul\":20276:20280   */\n      0x20\n        /* \"#utility.yul\":20271:20274   */\n      dup7\n        /* \"#utility.yul\":20267:20281   */\n      add\n        /* \"#utility.yul\":20253:20265   */\n      dup3\n        /* \"#utility.yul\":20219:20282   */\n      tag_244\n      jump\t// in\n    tag_533:\n        /* \"#utility.yul\":20124:20292   */\n      pop\n        /* \"#utility.yul\":20380:20384   */\n      0x40\n        /* \"#utility.yul\":20373:20378   */\n      dup4\n        /* \"#utility.yul\":20369:20385   */\n      add\n        /* \"#utility.yul\":20363:20386   */\n      mload\n        /* \"#utility.yul\":20433:20436   */\n      dup5\n        /* \"#utility.yul\":20427:20431   */\n      dup3\n        /* \"#utility.yul\":20423:20437   */\n      sub\n        /* \"#utility.yul\":20416:20420   */\n      0x40\n        /* \"#utility.yul\":20411:20414   */\n      dup7\n        /* \"#utility.yul\":20407:20421   */\n      add\n        /* \"#utility.yul\":20400:20438   */\n      mstore\n        /* \"#utility.yul\":20459:20562   */\n      tag_534\n        /* \"#utility.yul\":20557:20561   */\n      dup3\n        /* \"#utility.yul\":20543:20555   */\n      dup3\n        /* \"#utility.yul\":20459:20562   */\n      tag_250\n      jump\t// in\n    tag_534:\n        /* \"#utility.yul\":20451:20562   */\n      swap2\n      pop\n        /* \"#utility.yul\":20302:20573   */\n      pop\n        /* \"#utility.yul\":20668:20672   */\n      0x60\n        /* \"#utility.yul\":20661:20666   */\n      dup4\n        /* \"#utility.yul\":20657:20673   */\n      add\n        /* \"#utility.yul\":20651:20674   */\n      mload\n        /* \"#utility.yul\":20687:20748   */\n      tag_535\n        /* \"#utility.yul\":20742:20746   */\n      0x60\n        /* \"#utility.yul\":20737:20740   */\n      dup7\n        /* \"#utility.yul\":20733:20747   */\n      add\n        /* \"#utility.yul\":20719:20731   */\n      dup3\n        /* \"#utility.yul\":20687:20748   */\n      tag_252\n      jump\t// in\n    tag_535:\n        /* \"#utility.yul\":20583:20758   */\n      pop\n        /* \"#utility.yul\":20857:20861   */\n      0x80\n        /* \"#utility.yul\":20850:20855   */\n      dup4\n        /* \"#utility.yul\":20846:20862   */\n      add\n        /* \"#utility.yul\":20840:20863   */\n      mload\n        /* \"#utility.yul\":20876:20937   */\n      tag_536\n        /* \"#utility.yul\":20931:20935   */\n      0x80\n        /* \"#utility.yul\":20926:20929   */\n      dup7\n        /* \"#utility.yul\":20922:20936   */\n      add\n        /* \"#utility.yul\":20908:20920   */\n      dup3\n        /* \"#utility.yul\":20876:20937   */\n      tag_252\n      jump\t// in\n    tag_536:\n        /* \"#utility.yul\":20768:20947   */\n      pop\n        /* \"#utility.yul\":21031:21035   */\n      0xa0\n        /* \"#utility.yul\":21024:21029   */\n      dup4\n        /* \"#utility.yul\":21020:21036   */\n      add\n        /* \"#utility.yul\":21014:21037   */\n      mload\n        /* \"#utility.yul\":21050:21107   */\n      tag_537\n        /* \"#utility.yul\":21101:21105   */\n      0xa0\n        /* \"#utility.yul\":21096:21099   */\n      dup7\n        /* \"#utility.yul\":21092:21106   */\n      add\n        /* \"#utility.yul\":21078:21090   */\n      dup3\n        /* \"#utility.yul\":21050:21107   */\n      tag_254\n      jump\t// in\n    tag_537:\n        /* \"#utility.yul\":20957:21117   */\n      pop\n        /* \"#utility.yul\":21134:21138   */\n      dup1\n        /* \"#utility.yul\":21127:21138   */\n      swap2\n      pop\n        /* \"#utility.yul\":19833:21144   */\n      pop\n        /* \"#utility.yul\":19717:21144   */\n      swap3\n      swap2\n      pop\n      pop\n      jump\t// out\n        /* \"#utility.yul\":21150:21410   */\n    tag_290:\n        /* \"#utility.yul\":21271:21281   */\n      0x00\n        /* \"#utility.yul\":21306:21404   */\n      tag_539\n        /* \"#utility.yul\":21400:21403   */\n      dup4\n        /* \"#utility.yul\":21392:21398   */\n      dup4\n        /* \"#utility.yul\":21306:21404   */\n      tag_289\n      jump\t// in\n    tag_539:\n        /* \"#utility.yul\":21292:21404   */\n      swap1\n      pop\n        /* \"#utility.yul\":21150:21410   */\n      swap3\n      swap2\n      pop\n      pop\n      jump\t// out\n        /* \"#utility.yul\":21416:21555   */\n    tag_291:\n        /* \"#utility.yul\":21512:21516   */\n      0x00\n        /* \"#utility.yul\":21544:21548   */\n      0x20\n        /* \"#utility.yul\":21539:21542   */\n      dup3\n        /* \"#utility.yul\":21535:21549   */\n      add\n        /* \"#utility.yul\":21527:21549   */\n      swap1\n      pop\n        /* \"#utility.yul\":21416:21555   */\n      swap2\n      swap1\n      pop\n      jump\t// out\n        /* \"#utility.yul\":21625:22744   */\n    tag_292:\n        /* \"#utility.yul\":21796:21799   */\n      0x00\n        /* \"#utility.yul\":21825:21905   */\n      tag_542\n        /* \"#utility.yul\":21899:21904   */\n      dup3\n        /* \"#utility.yul\":21825:21905   */\n      tag_286\n      jump\t// in\n    tag_542:\n        /* \"#utility.yul\":21921:22033   */\n      tag_543\n        /* \"#utility.yul\":22026:22032   */\n      dup2\n        /* \"#utility.yul\":22021:22024   */\n      dup6\n        /* \"#utility.yul\":21921:22033   */\n      tag_287\n      jump\t// in\n    tag_543:\n        /* \"#utility.yul\":21914:22033   */\n      swap4\n      pop\n        /* \"#utility.yul\":22059:22062   */\n      dup4\n        /* \"#utility.yul\":22104:22108   */\n      0x20\n        /* \"#utility.yul\":22096:22102   */\n      dup3\n        /* \"#utility.yul\":22092:22109   */\n      mul\n        /* \"#utility.yul\":22087:22090   */\n      dup6\n        /* \"#utility.yul\":22083:22110   */\n      add\n        /* \"#utility.yul\":22134:22216   */\n      tag_544\n        /* \"#utility.yul\":22210:22215   */\n      dup6\n        /* \"#utility.yul\":22134:22216   */\n      tag_288\n      jump\t// in\n    tag_544:\n        /* \"#utility.yul\":22239:22246   */\n      dup1\n        /* \"#utility.yul\":22270:22271   */\n      0x00\n        /* \"#utility.yul\":22255:22699   */\n    tag_545:\n        /* \"#utility.yul\":22280:22286   */\n      dup6\n        /* \"#utility.yul\":22277:22278   */\n      dup2\n        /* \"#utility.yul\":22274:22287   */\n      lt\n        /* \"#utility.yul\":22255:22699   */\n      iszero\n      tag_547\n      jumpi\n        /* \"#utility.yul\":22351:22360   */\n      dup5\n        /* \"#utility.yul\":22345:22349   */\n      dup5\n        /* \"#utility.yul\":22341:22361   */\n      sub\n        /* \"#utility.yul\":22336:22339   */\n      dup10\n        /* \"#utility.yul\":22329:22362   */\n      mstore\n        /* \"#utility.yul\":22402:22408   */\n      dup2\n        /* \"#utility.yul\":22396:22409   */\n      mload\n        /* \"#utility.yul\":22430:22546   */\n      tag_548\n        /* \"#utility.yul\":22541:22545   */\n      dup6\n        /* \"#utility.yul\":22526:22539   */\n      dup3\n        /* \"#utility.yul\":22430:22546   */\n      tag_290\n      jump\t// in\n    tag_548:\n        /* \"#utility.yul\":22422:22546   */\n      swap5\n      pop\n        /* \"#utility.yul\":22569:22655   */\n      tag_549\n        /* \"#utility.yul\":22648:22654   */\n      dup4\n        /* \"#utility.yul\":22569:22655   */\n      tag_291\n      jump\t// in\n    tag_549:\n        /* \"#utility.yul\":22559:22655   */\n      swap3\n      pop\n        /* \"#utility.yul\":22684:22688   */\n      0x20\n        /* \"#utility.yul\":22679:22682   */\n      dup11\n        /* \"#utility.yul\":22675:22689   */\n      add\n        /* \"#utility.yul\":22668:22689   */\n      swap10\n      pop\n        /* \"#utility.yul\":22315:22699   */\n      pop\n        /* \"#utility.yul\":22302:22303   */\n      0x01\n        /* \"#utility.yul\":22299:22300   */\n      dup2\n        /* \"#utility.yul\":22295:22304   */\n      add\n        /* \"#utility.yul\":22290:22304   */\n      swap1\n      pop\n        /* \"#utility.yul\":22255:22699   */\n      jump(tag_545)\n    tag_547:\n        /* \"#utility.yul\":22259:22273   */\n      pop\n        /* \"#utility.yul\":22715:22719   */\n      dup3\n        /* \"#utility.yul\":22708:22719   */\n      swap8\n      pop\n        /* \"#utility.yul\":22735:22738   */\n      dup8\n        /* \"#utility.yul\":22728:22738   */\n      swap6\n      pop\n        /* \"#utility.yul\":21801:22744   */\n      pop\n      pop\n      pop\n      pop\n      pop\n        /* \"#utility.yul\":21625:22744   */\n      swap3\n      swap2\n      pop\n      pop\n      jump\t// out\n        /* \"#utility.yul\":22750:23227   */\n    tag_83:\n        /* \"#utility.yul\":22945:22949   */\n      0x00\n        /* \"#utility.yul\":22983:22985   */\n      0x20\n        /* \"#utility.yul\":22972:22981   */\n      dup3\n        /* \"#utility.yul\":22968:22986   */\n      add\n        /* \"#utility.yul\":22960:22986   */\n      swap1\n      pop\n        /* \"#utility.yul\":23032:23041   */\n      dup2\n        /* \"#utility.yul\":23026:23030   */\n      dup2\n        /* \"#utility.yul\":23022:23042   */\n      sub\n        /* \"#utility.yul\":23018:23019   */\n      0x00\n        /* \"#utility.yul\":23007:23016   */\n      dup4\n        /* \"#utility.yul\":23003:23020   */\n      add\n        /* \"#utility.yul\":22996:23043   */\n      mstore\n        /* \"#utility.yul\":23060:23220   */\n      tag_551\n        /* \"#utility.yul\":23215:23219   */\n      dup2\n        /* \"#utility.yul\":23206:23212   */\n      dup5\n        /* \"#utility.yul\":23060:23220   */\n      tag_292\n      jump\t// in\n    tag_551:\n        /* \"#utility.yul\":23052:23220   */\n      swap1\n      pop\n        /* \"#utility.yul\":22750:23227   */\n      swap3\n      swap2\n      pop\n      pop\n      jump\t// out\n        /* \"#utility.yul\":23233:23403   */\n    tag_293:\n        /* \"#utility.yul\":23373:23395   */\n      0x79657420746f20637265617465206120706f6c6c000000000000000000000000\n        /* \"#utility.yul\":23369:23370   */\n      0x00\n        /* \"#utility.yul\":23361:23367   */\n      dup3\n        /* \"#utility.yul\":23357:23371   */\n      add\n        /* \"#utility.yul\":23350:23396   */\n      mstore\n        /* \"#utility.yul\":23233:23403   */\n      pop\n      jump\t// out\n        /* \"#utility.yul\":23409:23775   */\n    tag_294:\n        /* \"#utility.yul\":23551:23554   */\n      0x00\n        /* \"#utility.yul\":23572:23639   */\n      tag_554\n        /* \"#utility.yul\":23636:23638   */\n      0x14\n        /* \"#utility.yul\":23631:23634   */\n      dup4\n        /* \"#utility.yul\":23572:23639   */\n      tag_257\n      jump\t// in\n    tag_554:\n        /* \"#utility.yul\":23565:23639   */\n      swap2\n      pop\n        /* \"#utility.yul\":23648:23741   */\n      tag_555\n        /* \"#utility.yul\":23737:23740   */\n      dup3\n        /* \"#utility.yul\":23648:23741   */\n      tag_293\n      jump\t// in\n    tag_555:\n        /* \"#utility.yul\":23766:23768   */\n      0x20\n        /* \"#utility.yul\":23761:23764   */\n      dup3\n        /* \"#utility.yul\":23757:23769   */\n      add\n        /* \"#utility.yul\":23750:23769   */\n      swap1\n      pop\n        /* \"#utility.yul\":23409:23775   */\n      swap2\n      swap1\n      pop\n      jump\t// out\n        /* \"#utility.yul\":23781:24200   */\n    tag_87:\n        /* \"#utility.yul\":23947:23951   */\n      0x00\n        /* \"#utility.yul\":23985:23987   */\n      0x20\n        /* \"#utility.yul\":23974:23983   */\n      dup3\n        /* \"#utility.yul\":23970:23988   */\n      add\n        /* \"#utility.yul\":23962:23988   */\n      swap1\n      pop\n        /* \"#utility.yul\":24034:24043   */\n      dup2\n        /* \"#utility.yul\":24028:24032   */\n      dup2\n        /* \"#utility.yul\":24024:24044   */\n      sub\n        /* \"#utility.yul\":24020:24021   */\n      0x00\n        /* \"#utility.yul\":24009:24018   */\n      dup4\n        /* \"#utility.yul\":24005:24022   */\n      add\n        /* \"#utility.yul\":23998:24045   */\n      mstore\n        /* \"#utility.yul\":24062:24193   */\n      tag_557\n        /* \"#utility.yul\":24188:24192   */\n      dup2\n        /* \"#utility.yul\":24062:24193   */\n      tag_294\n      jump\t// in\n    tag_557:\n        /* \"#utility.yul\":24054:24193   */\n      swap1\n      pop\n        /* \"#utility.yul\":23781:24200   */\n      swap2\n      swap1\n      pop\n      jump\t// out\n        /* \"#utility.yul\":24206:24386   */\n    tag_90:\n        /* \"#utility.yul\":24254:24331   */\n      0x4e487b7100000000000000000000000000000000000000000000000000000000\n        /* \"#utility.yul\":24251:24252   */\n      0x00\n        /* \"#utility.yul\":24244:24332   */\n      mstore\n        /* \"#utility.yul\":24351:24355   */\n      0x01\n        /* \"#utility.yul\":24348:24349   */\n      0x04\n        /* \"#utility.yul\":24341:24356   */\n      mstore\n        /* \"#utility.yul\":24375:24379   */\n      0x24\n        /* \"#utility.yul\":24372:24373   */\n      0x00\n        /* \"#utility.yul\":24365:24380   */\n      revert\n        /* \"#utility.yul\":24392:24625   */\n    tag_295:\n        /* \"#utility.yul\":24532:24566   */\n      0x6d6178696d756d206e6f206f662063616e646964617465207065722073657373\n        /* \"#utility.yul\":24528:24529   */\n      0x00\n        /* \"#utility.yul\":24520:24526   */\n      dup3\n        /* \"#utility.yul\":24516:24530   */\n      add\n        /* \"#utility.yul\":24509:24567   */\n      mstore\n        /* \"#utility.yul\":24601:24617   */\n      0x696f6e2072656769737465726564000000000000000000000000000000000000\n        /* \"#utility.yul\":24596:24598   */\n      0x20\n        /* \"#utility.yul\":24588:24594   */\n      dup3\n        /* \"#utility.yul\":24584:24599   */\n      add\n        /* \"#utility.yul\":24577:24618   */\n      mstore\n        /* \"#utility.yul\":24392:24625   */\n      pop\n      jump\t// out\n        /* \"#utility.yul\":24631:24997   */\n    tag_296:\n        /* \"#utility.yul\":24773:24776   */\n      0x00\n        /* \"#utility.yul\":24794:24861   */\n      tag_561\n        /* \"#utility.yul\":24858:24860   */\n      0x2e\n        /* \"#utility.yul\":24853:24856   */\n      dup4\n        /* \"#utility.yul\":24794:24861   */\n      tag_257\n      jump\t// in\n    tag_561:\n        /* \"#utility.yul\":24787:24861   */\n      swap2\n      pop\n        /* \"#utility.yul\":24870:24963   */\n      tag_562\n        /* \"#utility.yul\":24959:24962   */\n      dup3\n        /* \"#utility.yul\":24870:24963   */\n      tag_295\n      jump\t// in\n    tag_562:\n        /* \"#utility.yul\":24988:24990   */\n      0x40\n        /* \"#utility.yul\":24983:24986   */\n      dup3\n        /* \"#utility.yul\":24979:24991   */\n      add\n        /* \"#utility.yul\":24972:24991   */\n      swap1\n      pop\n        /* \"#utility.yul\":24631:24997   */\n      swap2\n      swap1\n      pop\n      jump\t// out\n        /* \"#utility.yul\":25003:25422   */\n    tag_93:\n        /* \"#utility.yul\":25169:25173   */\n      0x00\n        /* \"#utility.yul\":25207:25209   */\n      0x20\n        /* \"#utility.yul\":25196:25205   */\n      dup3\n        /* \"#utility.yul\":25192:25210   */\n      add\n        /* \"#utility.yul\":25184:25210   */\n      swap1\n      pop\n        /* \"#utility.yul\":25256:25265   */\n      dup2\n        /* \"#utility.yul\":25250:25254   */\n      dup2\n        /* \"#utility.yul\":25246:25266   */\n      sub\n        /* \"#utility.yul\":25242:25243   */\n      0x00\n        /* \"#utility.yul\":25231:25240   */\n      dup4\n        /* \"#utility.yul\":25227:25244   */\n      add\n        /* \"#utility.yul\":25220:25267   */\n      mstore\n        /* \"#utility.yul\":25284:25415   */\n      tag_564\n        /* \"#utility.yul\":25410:25414   */\n      dup2\n        /* \"#utility.yul\":25284:25415   */\n      tag_296\n      jump\t// in\n    tag_564:\n        /* \"#utility.yul\":25276:25415   */\n      swap1\n      pop\n        /* \"#utility.yul\":25003:25422   */\n      swap2\n      swap1\n      pop\n      jump\t// out\n        /* \"#utility.yul\":25428:25608   */\n    tag_297:\n        /* \"#utility.yul\":25476:25553   */\n      0x4e487b7100000000000000000000000000000000000000000000000000000000\n        /* \"#utility.yul\":25473:25474   */\n      0x00\n        /* \"#utility.yul\":25466:25554   */\n      mstore\n        /* \"#utility.yul\":25573:25577   */\n      0x11\n        /* \"#utility.yul\":25570:25571   */\n      0x04\n        /* \"#utility.yul\":25563:25578   */\n      mstore\n        /* \"#utility.yul\":25597:25601   */\n      0x24\n        /* \"#utility.yul\":25594:25595   */\n      0x00\n        /* \"#utility.yul\":25587:25602   */\n      revert\n        /* \"#utility.yul\":25614:25789   */\n    tag_96:\n        /* \"#utility.yul\":25652:25655   */\n      0x00\n        /* \"#utility.yul\":25675:25698   */\n      tag_567\n        /* \"#utility.yul\":25692:25697   */\n      dup3\n        /* \"#utility.yul\":25675:25698   */\n      tag_251\n      jump\t// in\n    tag_567:\n        /* \"#utility.yul\":25666:25698   */\n      swap2\n      pop\n        /* \"#utility.yul\":25720:25730   */\n      0xffffffff\n        /* \"#utility.yul\":25713:25718   */\n      dup3\n        /* \"#utility.yul\":25710:25731   */\n      eq\n        /* \"#utility.yul\":25707:25754   */\n      iszero\n      tag_568\n      jumpi\n        /* \"#utility.yul\":25734:25752   */\n      tag_569\n      tag_297\n      jump\t// in\n    tag_569:\n        /* \"#utility.yul\":25707:25754   */\n    tag_568:\n        /* \"#utility.yul\":25781:25782   */\n      0x01\n        /* \"#utility.yul\":25774:25779   */\n      dup3\n        /* \"#utility.yul\":25770:25783   */\n      add\n        /* \"#utility.yul\":25763:25783   */\n      swap1\n      pop\n        /* \"#utility.yul\":25614:25789   */\n      swap2\n      swap1\n      pop\n      jump\t// out\n        /* \"#utility.yul\":25795:26017   */\n    tag_98:\n        /* \"#utility.yul\":25888:25892   */\n      0x00\n        /* \"#utility.yul\":25926:25928   */\n      0x20\n        /* \"#utility.yul\":25915:25924   */\n      dup3\n        /* \"#utility.yul\":25911:25929   */\n      add\n        /* \"#utility.yul\":25903:25929   */\n      swap1\n      pop\n        /* \"#utility.yul\":25939:26010   */\n      tag_571\n        /* \"#utility.yul\":26007:26008   */\n      0x00\n        /* \"#utility.yul\":25996:26005   */\n      dup4\n        /* \"#utility.yul\":25992:26009   */\n      add\n        /* \"#utility.yul\":25983:25989   */\n      dup5\n        /* \"#utility.yul\":25939:26010   */\n      tag_259\n      jump\t// in\n    tag_571:\n        /* \"#utility.yul\":25795:26017   */\n      swap3\n      swap2\n      pop\n      pop\n      jump\t// out\n        /* \"#utility.yul\":26023:26203   */\n    tag_298:\n        /* \"#utility.yul\":26071:26148   */\n      0x4e487b7100000000000000000000000000000000000000000000000000000000\n        /* \"#utility.yul\":26068:26069   */\n      0x00\n        /* \"#utility.yul\":26061:26149   */\n      mstore\n        /* \"#utility.yul\":26168:26172   */\n      0x22\n        /* \"#utility.yul\":26165:26166   */\n      0x04\n        /* \"#utility.yul\":26158:26173   */\n      mstore\n        /* \"#utility.yul\":26192:26196   */\n      0x24\n        /* \"#utility.yul\":26189:26190   */\n      0x00\n        /* \"#utility.yul\":26182:26197   */\n      revert\n        /* \"#utility.yul\":26209:26529   */\n    tag_103:\n        /* \"#utility.yul\":26253:26259   */\n      0x00\n        /* \"#utility.yul\":26290:26291   */\n      0x02\n        /* \"#utility.yul\":26284:26288   */\n      dup3\n        /* \"#utility.yul\":26280:26292   */\n      div\n        /* \"#utility.yul\":26270:26292   */\n      swap1\n      pop\n        /* \"#utility.yul\":26337:26338   */\n      0x01\n        /* \"#utility.yul\":26331:26335   */\n      dup3\n        /* \"#utility.yul\":26327:26339   */\n      and\n        /* \"#utility.yul\":26358:26376   */\n      dup1\n        /* \"#utility.yul\":26348:26429   */\n      tag_574\n      jumpi\n        /* \"#utility.yul\":26414:26418   */\n      0x7f\n        /* \"#utility.yul\":26406:26412   */\n      dup3\n        /* \"#utility.yul\":26402:26419   */\n      and\n        /* \"#utility.yul\":26392:26419   */\n      swap2\n      pop\n        /* \"#utility.yul\":26348:26429   */\n    tag_574:\n        /* \"#utility.yul\":26476:26478   */\n      0x20\n        /* \"#utility.yul\":26468:26474   */\n      dup3\n        /* \"#utility.yul\":26465:26479   */\n      lt\n        /* \"#utility.yul\":26445:26463   */\n      dup2\n        /* \"#utility.yul\":26442:26480   */\n      eq\n        /* \"#utility.yul\":26439:26523   */\n      iszero\n      tag_575\n      jumpi\n        /* \"#utility.yul\":26495:26513   */\n      tag_576\n      tag_298\n      jump\t// in\n    tag_576:\n        /* \"#utility.yul\":26439:26523   */\n    tag_575:\n        /* \"#utility.yul\":26260:26529   */\n      pop\n        /* \"#utility.yul\":26209:26529   */\n      swap2\n      swap1\n      pop\n      jump\t// out\n        /* \"#utility.yul\":26535:26700   */\n    tag_299:\n        /* \"#utility.yul\":26675:26692   */\n      0x4e6f20706f6c6c20637265617465640000000000000000000000000000000000\n        /* \"#utility.yul\":26671:26672   */\n      0x00\n        /* \"#utility.yul\":26663:26669   */\n      dup3\n        /* \"#utility.yul\":26659:26673   */\n      add\n        /* \"#utility.yul\":26652:26693   */\n      mstore\n        /* \"#utility.yul\":26535:26700   */\n      pop\n      jump\t// out\n        /* \"#utility.yul\":26706:27072   */\n    tag_300:\n        /* \"#utility.yul\":26848:26851   */\n      0x00\n        /* \"#utility.yul\":26869:26936   */\n      tag_579\n        /* \"#utility.yul\":26933:26935   */\n      0x0f\n        /* \"#utility.yul\":26928:26931   */\n      dup4\n        /* \"#utility.yul\":26869:26936   */\n      tag_257\n      jump\t// in\n    tag_579:\n        /* \"#utility.yul\":26862:26936   */\n      swap2\n      pop\n        /* \"#utility.yul\":26945:27038   */\n      tag_580\n        /* \"#utility.yul\":27034:27037   */\n      dup3\n        /* \"#utility.yul\":26945:27038   */\n      tag_299\n      jump\t// in\n    tag_580:\n        /* \"#utility.yul\":27063:27065   */\n      0x20\n        /* \"#utility.yul\":27058:27061   */\n      dup3\n        /* \"#utility.yul\":27054:27066   */\n      add\n        /* \"#utility.yul\":27047:27066   */\n      swap1\n      pop\n        /* \"#utility.yul\":26706:27072   */\n      swap2\n      swap1\n      pop\n      jump\t// out\n        /* \"#utility.yul\":27078:27497   */\n    tag_124:\n        /* \"#utility.yul\":27244:27248   */\n      0x00\n        /* \"#utility.yul\":27282:27284   */\n      0x20\n        /* \"#utility.yul\":27271:27280   */\n      dup3\n        /* \"#utility.yul\":27267:27285   */\n      add\n        /* \"#utility.yul\":27259:27285   */\n      swap1\n      pop\n        /* \"#utility.yul\":27331:27340   */\n      dup2\n        /* \"#utility.yul\":27325:27329   */\n      dup2\n        /* \"#utility.yul\":27321:27341   */\n      sub\n        /* \"#utility.yul\":27317:27318   */\n      0x00\n        /* \"#utility.yul\":27306:27315   */\n      dup4\n        /* \"#utility.yul\":27302:27319   */\n      add\n        /* \"#utility.yul\":27295:27342   */\n      mstore\n        /* \"#utility.yul\":27359:27490   */\n      tag_582\n        /* \"#utility.yul\":27485:27489   */\n      dup2\n        /* \"#utility.yul\":27359:27490   */\n      tag_300\n      jump\t// in\n    tag_582:\n        /* \"#utility.yul\":27351:27490   */\n      swap1\n      pop\n        /* \"#utility.yul\":27078:27497   */\n      swap2\n      swap1\n      pop\n      jump\t// out\n        /* \"#utility.yul\":27503:27683   */\n    tag_137:\n        /* \"#utility.yul\":27551:27628   */\n      0x4e487b7100000000000000000000000000000000000000000000000000000000\n        /* \"#utility.yul\":27548:27549   */\n      0x00\n        /* \"#utility.yul\":27541:27629   */\n      mstore\n        /* \"#utility.yul\":27648:27652   */\n      0x32\n        /* \"#utility.yul\":27645:27646   */\n      0x04\n        /* \"#utility.yul\":27638:27653   */\n      mstore\n        /* \"#utility.yul\":27672:27676   */\n      0x24\n        /* \"#utility.yul\":27669:27670   */\n      0x00\n        /* \"#utility.yul\":27662:27677   */\n      revert\n        /* \"#utility.yul\":27689:27922   */\n    tag_145:\n        /* \"#utility.yul\":27728:27731   */\n      0x00\n        /* \"#utility.yul\":27751:27775   */\n      tag_585\n        /* \"#utility.yul\":27769:27774   */\n      dup3\n        /* \"#utility.yul\":27751:27775   */\n      tag_236\n      jump\t// in\n    tag_585:\n        /* \"#utility.yul\":27742:27775   */\n      swap2\n      pop\n        /* \"#utility.yul\":27797:27863   */\n      0xffffffffffffffffffffffffffffffffffffffffffffffffffffffffffffffff\n        /* \"#utility.yul\":27790:27795   */\n      dup3\n        /* \"#utility.yul\":27787:27864   */\n      eq\n        /* \"#utility.yul\":27784:27887   */\n      iszero\n      tag_586\n      jumpi\n        /* \"#utility.yul\":27867:27885   */\n      tag_587\n      tag_297\n      jump\t// in\n    tag_587:\n        /* \"#utility.yul\":27784:27887   */\n    tag_586:\n        /* \"#utility.yul\":27914:27915   */\n      0x01\n        /* \"#utility.yul\":27907:27912   */\n      dup3\n        /* \"#utility.yul\":27903:27916   */\n      add\n        /* \"#utility.yul\":27896:27916   */\n      swap1\n      pop\n        /* \"#utility.yul\":27689:27922   */\n      swap2\n      swap1\n      pop\n      jump\t// out\n        /* \"#utility.yul\":27928:28022   */\n    tag_301:\n        /* \"#utility.yul\":27961:27969   */\n      0x00\n        /* \"#utility.yul\":28009:28014   */\n      dup2\n        /* \"#utility.yul\":28005:28007   */\n      0x60\n        /* \"#utility.yul\":28001:28015   */\n      shl\n        /* \"#utility.yul\":27980:28015   */\n      swap1\n      pop\n        /* \"#utility.yul\":27928:28022   */\n      swap2\n      swap1\n      pop\n      jump\t// out\n        /* \"#utility.yul\":28028:28122   */\n    tag_302:\n        /* \"#utility.yul\":28067:28074   */\n      0x00\n        /* \"#utility.yul\":28096:28116   */\n      tag_590\n        /* \"#utility.yul\":28110:28115   */\n      dup3\n        /* \"#utility.yul\":28096:28116   */\n      tag_301\n      jump\t// in\n    tag_590:\n        /* \"#utility.yul\":28085:28116   */\n      swap1\n      pop\n        /* \"#utility.yul\":28028:28122   */\n      swap2\n      swap1\n      pop\n      jump\t// out\n        /* \"#utility.yul\":28128:28228   */\n    tag_303:\n        /* \"#utility.yul\":28167:28174   */\n      0x00\n        /* \"#utility.yul\":28196:28222   */\n      tag_592\n        /* \"#utility.yul\":28216:28221   */\n      dup3\n        /* \"#utility.yul\":28196:28222   */\n      tag_302\n      jump\t// in\n    tag_592:\n        /* \"#utility.yul\":28185:28222   */\n      swap1\n      pop\n        /* \"#utility.yul\":28128:28228   */\n      swap2\n      swap1\n      pop\n      jump\t// out\n        /* \"#utility.yul\":28234:28391   */\n    tag_304:\n        /* \"#utility.yul\":28339:28384   */\n      tag_594\n        /* \"#utility.yul\":28359:28383   */\n      tag_595\n        /* \"#utility.yul\":28377:28382   */\n      dup3\n        /* \"#utility.yul\":28359:28383   */\n      tag_233\n      jump\t// in\n    tag_595:\n        /* \"#utility.yul\":28339:28384   */\n      tag_303\n      jump\t// in\n    tag_594:\n        /* \"#utility.yul\":28334:28337   */\n      dup3\n        /* \"#utility.yul\":28327:28385   */\n      mstore\n        /* \"#utility.yul\":28234:28391   */\n      pop\n      pop\n      jump\t// out\n        /* \"#utility.yul\":28397:28545   */\n    tag_305:\n        /* \"#utility.yul\":28499:28510   */\n      0x00\n        /* \"#utility.yul\":28536:28539   */\n      dup2\n        /* \"#utility.yul\":28521:28539   */\n      swap1\n      pop\n        /* \"#utility.yul\":28397:28545   */\n      swap3\n      swap2\n      pop\n      pop\n      jump\t// out\n        /* \"#utility.yul\":28551:28724   */\n    tag_306:\n        /* \"#utility.yul\":28691:28716   */\n      0x6d6574617472616e73616374696f6e20566f74696e6720000000000000000000\n        /* \"#utility.yul\":28687:28688   */\n      0x00\n        /* \"#utility.yul\":28679:28685   */\n      dup3\n        /* \"#utility.yul\":28675:28689   */\n      add\n        /* \"#utility.yul\":28668:28717   */\n      mstore\n        /* \"#utility.yul\":28551:28724   */\n      pop\n      jump\t// out\n        /* \"#utility.yul\":28730:29132   */\n    tag_307:\n        /* \"#utility.yul\":28890:28893   */\n      0x00\n        /* \"#utility.yul\":28911:28996   */\n      tag_599\n        /* \"#utility.yul\":28993:28995   */\n      0x17\n        /* \"#utility.yul\":28988:28991   */\n      dup4\n        /* \"#utility.yul\":28911:28996   */\n      tag_305\n      jump\t// in\n    tag_599:\n        /* \"#utility.yul\":28904:28996   */\n      swap2\n      pop\n        /* \"#utility.yul\":29005:29098   */\n      tag_600\n        /* \"#utility.yul\":29094:29097   */\n      dup3\n        /* \"#utility.yul\":29005:29098   */\n      tag_306\n      jump\t// in\n    tag_600:\n        /* \"#utility.yul\":29123:29125   */\n      0x17\n        /* \"#utility.yul\":29118:29121   */\n      dup3\n        /* \"#utility.yul\":29114:29126   */\n      add\n        /* \"#utility.yul\":29107:29126   */\n      swap1\n      pop\n        /* \"#utility.yul\":28730:29132   */\n      swap2\n      swap1\n      pop\n      jump\t// out\n        /* \"#utility.yul\":29138:29217   */\n    tag_308:\n        /* \"#utility.yul\":29177:29184   */\n      0x00\n        /* \"#utility.yul\":29206:29211   */\n      dup2\n        /* \"#utility.yul\":29195:29211   */\n      swap1\n      pop\n        /* \"#utility.yul\":29138:29217   */\n      swap2\n      swap1\n      pop\n      jump\t// out\n        /* \"#utility.yul\":29223:29380   */\n    tag_309:\n        /* \"#utility.yul\":29328:29373   */\n      tag_603\n        /* \"#utility.yul\":29348:29372   */\n      tag_604\n        /* \"#utility.yul\":29366:29371   */\n      dup3\n        /* \"#utility.yul\":29348:29372   */\n      tag_236\n      jump\t// in\n    tag_604:\n        /* \"#utility.yul\":29328:29373   */\n      tag_308\n      jump\t// in\n    tag_603:\n        /* \"#utility.yul\":29323:29326   */\n      dup3\n        /* \"#utility.yul\":29316:29374   */\n      mstore\n        /* \"#utility.yul\":29223:29380   */\n      pop\n      pop\n      jump\t// out\n        /* \"#utility.yul\":29386:30472   */\n    tag_150:\n        /* \"#utility.yul\":29711:29714   */\n      0x00\n        /* \"#utility.yul\":29726:29801   */\n      tag_606\n        /* \"#utility.yul\":29797:29800   */\n      dup3\n        /* \"#utility.yul\":29788:29794   */\n      dup9\n        /* \"#utility.yul\":29726:29801   */\n      tag_304\n      jump\t// in\n    tag_606:\n        /* \"#utility.yul\":29826:29828   */\n      0x14\n        /* \"#utility.yul\":29821:29824   */\n      dup3\n        /* \"#utility.yul\":29817:29829   */\n      add\n        /* \"#utility.yul\":29810:29829   */\n      swap2\n      pop\n        /* \"#utility.yul\":29846:29994   */\n      tag_607\n        /* \"#utility.yul\":29990:29993   */\n      dup3\n        /* \"#utility.yul\":29846:29994   */\n      tag_307\n      jump\t// in\n    tag_607:\n        /* \"#utility.yul\":29839:29994   */\n      swap2\n      pop\n        /* \"#utility.yul\":30004:30079   */\n      tag_608\n        /* \"#utility.yul\":30075:30078   */\n      dup3\n        /* \"#utility.yul\":30066:30072   */\n      dup8\n        /* \"#utility.yul\":30004:30079   */\n      tag_304\n      jump\t// in\n    tag_608:\n        /* \"#utility.yul\":30104:30106   */\n      0x14\n        /* \"#utility.yul\":30099:30102   */\n      dup3\n        /* \"#utility.yul\":30095:30107   */\n      add\n        /* \"#utility.yul\":30088:30107   */\n      swap2\n      pop\n        /* \"#utility.yul\":30117:30192   */\n      tag_609\n        /* \"#utility.yul\":30188:30191   */\n      dup3\n        /* \"#utility.yul\":30179:30185   */\n      dup7\n        /* \"#utility.yul\":30117:30192   */\n      tag_309\n      jump\t// in\n    tag_609:\n        /* \"#utility.yul\":30217:30219   */\n      0x20\n        /* \"#utility.yul\":30212:30215   */\n      dup3\n        /* \"#utility.yul\":30208:30220   */\n      add\n        /* \"#utility.yul\":30201:30220   */\n      swap2\n      pop\n        /* \"#utility.yul\":30230:30305   */\n      tag_610\n        /* \"#utility.yul\":30301:30304   */\n      dup3\n        /* \"#utility.yul\":30292:30298   */\n      dup6\n        /* \"#utility.yul\":30230:30305   */\n      tag_309\n      jump\t// in\n    tag_610:\n        /* \"#utility.yul\":30330:30332   */\n      0x20\n        /* \"#utility.yul\":30325:30328   */\n      dup3\n        /* \"#utility.yul\":30321:30333   */\n      add\n        /* \"#utility.yul\":30314:30333   */\n      swap2\n      pop\n        /* \"#utility.yul\":30343:30418   */\n      tag_611\n        /* \"#utility.yul\":30414:30417   */\n      dup3\n        /* \"#utility.yul\":30405:30411   */\n      dup5\n        /* \"#utility.yul\":30343:30418   */\n      tag_309\n      jump\t// in\n    tag_611:\n        /* \"#utility.yul\":30443:30445   */\n      0x20\n        /* \"#utility.yul\":30438:30441   */\n      dup3\n        /* \"#utility.yul\":30434:30446   */\n      add\n        /* \"#utility.yul\":30427:30446   */\n      swap2\n      pop\n        /* \"#utility.yul\":30463:30466   */\n      dup2\n        /* \"#utility.yul\":30456:30466   */\n      swap1\n      pop\n        /* \"#utility.yul\":29386:30472   */\n      swap7\n      swap6\n      pop\n      pop\n      pop\n      pop\n      pop\n      pop\n      jump\t// out\n        /* \"#utility.yul\":30478:30707   */\n    tag_310:\n        /* \"#utility.yul\":30618:30652   */\n      0x54686973206164647265737320646f6573206e6f742065786973742061732061\n        /* \"#utility.yul\":30614:30615   */\n      0x00\n        /* \"#utility.yul\":30606:30612   */\n      dup3\n        /* \"#utility.yul\":30602:30616   */\n      add\n        /* \"#utility.yul\":30595:30653   */\n      mstore\n        /* \"#utility.yul\":30687:30699   */\n      0x2063616e64696461746500000000000000000000000000000000000000000000\n        /* \"#utility.yul\":30682:30684   */\n      0x20\n        /* \"#utility.yul\":30674:30680   */\n      dup3\n        /* \"#utility.yul\":30670:30685   */\n      add\n        /* \"#utility.yul\":30663:30700   */\n      mstore\n        /* \"#utility.yul\":30478:30707   */\n      pop\n      jump\t// out\n        /* \"#utility.yul\":30713:31079   */\n    tag_311:\n        /* \"#utility.yul\":30855:30858   */\n      0x00\n        /* \"#utility.yul\":30876:30943   */\n      tag_614\n        /* \"#utility.yul\":30940:30942   */\n      0x2a\n        /* \"#utility.yul\":30935:30938   */\n      dup4\n        /* \"#utility.yul\":30876:30943   */\n      tag_257\n      jump\t// in\n    tag_614:\n        /* \"#utility.yul\":30869:30943   */\n      swap2\n      pop\n        /* \"#utility.yul\":30952:31045   */\n      tag_615\n        /* \"#utility.yul\":31041:31044   */\n      dup3\n        /* \"#utility.yul\":30952:31045   */\n      tag_310\n      jump\t// in\n    tag_615:\n        /* \"#utility.yul\":31070:31072   */\n      0x40\n        /* \"#utility.yul\":31065:31068   */\n      dup3\n        /* \"#utility.yul\":31061:31073   */\n      add\n        /* \"#utility.yul\":31054:31073   */\n      swap1\n      pop\n        /* \"#utility.yul\":30713:31079   */\n      swap2\n      swap1\n      pop\n      jump\t// out\n        /* \"#utility.yul\":31085:31504   */\n    tag_154:\n        /* \"#utility.yul\":31251:31255   */\n      0x00\n        /* \"#utility.yul\":31289:31291   */\n      0x20\n        /* \"#utility.yul\":31278:31287   */\n      dup3\n        /* \"#utility.yul\":31274:31292   */\n      add\n        /* \"#utility.yul\":31266:31292   */\n      swap1\n      pop\n        /* \"#utility.yul\":31338:31347   */\n      dup2\n        /* \"#utility.yul\":31332:31336   */\n      dup2\n        /* \"#utility.yul\":31328:31348   */\n      sub\n        /* \"#utility.yul\":31324:31325   */\n      0x00\n        /* \"#utility.yul\":31313:31322   */\n      dup4\n        /* \"#utility.yul\":31309:31326   */\n      add\n        /* \"#utility.yul\":31302:31349   */\n      mstore\n        /* \"#utility.yul\":31366:31497   */\n      tag_617\n        /* \"#utility.yul\":31492:31496   */\n      dup2\n        /* \"#utility.yul\":31366:31497   */\n      tag_311\n      jump\t// in\n    tag_617:\n        /* \"#utility.yul\":31358:31497   */\n      swap1\n      pop\n        /* \"#utility.yul\":31085:31504   */\n      swap2\n      swap1\n      pop\n      jump\t// out\n        /* \"#utility.yul\":31510:31676   */\n    tag_312:\n        /* \"#utility.yul\":31650:31668   */\n      0x766f74696e672068617320656e64656400000000000000000000000000000000\n        /* \"#utility.yul\":31646:31647   */\n      0x00\n        /* \"#utility.yul\":31638:31644   */\n      dup3\n        /* \"#utility.yul\":31634:31648   */\n      add\n        /* \"#utility.yul\":31627:31669   */\n      mstore\n        /* \"#utility.yul\":31510:31676   */\n      pop\n      jump\t// out\n        /* \"#utility.yul\":31682:32048   */\n    tag_313:\n        /* \"#utility.yul\":31824:31827   */\n      0x00\n        /* \"#utility.yul\":31845:31912   */\n      tag_620\n        /* \"#utility.yul\":31909:31911   */\n      0x10\n        /* \"#utility.yul\":31904:31907   */\n      dup4\n        /* \"#utility.yul\":31845:31912   */\n      tag_257\n      jump\t// in\n    tag_620:\n        /* \"#utility.yul\":31838:31912   */\n      swap2\n      pop\n        /* \"#utility.yul\":31921:32014   */\n      tag_621\n        /* \"#utility.yul\":32010:32013   */\n      dup3\n        /* \"#utility.yul\":31921:32014   */\n      tag_312\n      jump\t// in\n    tag_621:\n        /* \"#utility.yul\":32039:32041   */\n      0x20\n        /* \"#utility.yul\":32034:32037   */\n      dup3\n        /* \"#utility.yul\":32030:32042   */\n      add\n        /* \"#utility.yul\":32023:32042   */\n      swap1\n      pop\n        /* \"#utility.yul\":31682:32048   */\n      swap2\n      swap1\n      pop\n      jump\t// out\n        /* \"#utility.yul\":32054:32473   */\n    tag_158:\n        /* \"#utility.yul\":32220:32224   */\n      0x00\n        /* \"#utility.yul\":32258:32260   */\n      0x20\n        /* \"#utility.yul\":32247:32256   */\n      dup3\n        /* \"#utility.yul\":32243:32261   */\n      add\n        /* \"#utility.yul\":32235:32261   */\n      swap1\n      pop\n        /* \"#utility.yul\":32307:32316   */\n      dup2\n        /* \"#utility.yul\":32301:32305   */\n      dup2\n        /* \"#utility.yul\":32297:32317   */\n      sub\n        /* \"#utility.yul\":32293:32294   */\n      0x00\n        /* \"#utility.yul\":32282:32291   */\n      dup4\n        /* \"#utility.yul\":32278:32295   */\n      add\n        /* \"#utility.yul\":32271:32318   */\n      mstore\n        /* \"#utility.yul\":32335:32466   */\n      tag_623\n        /* \"#utility.yul\":32461:32465   */\n      dup2\n        /* \"#utility.yul\":32335:32466   */\n      tag_313\n      jump\t// in\n    tag_623:\n        /* \"#utility.yul\":32327:32466   */\n      swap1\n      pop\n        /* \"#utility.yul\":32054:32473   */\n      swap2\n      swap1\n      pop\n      jump\t// out\n        /* \"#utility.yul\":32479:32646   */\n    tag_314:\n        /* \"#utility.yul\":32619:32638   */\n      0x596f7520616c726561647920766f746564000000000000000000000000000000\n        /* \"#utility.yul\":32615:32616   */\n      0x00\n        /* \"#utility.yul\":32607:32613   */\n      dup3\n        /* \"#utility.yul\":32603:32617   */\n      add\n        /* \"#utility.yul\":32596:32639   */\n      mstore\n        /* \"#utility.yul\":32479:32646   */\n      pop\n      jump\t// out\n        /* \"#utility.yul\":32652:33018   */\n    tag_315:\n        /* \"#utility.yul\":32794:32797   */\n      0x00\n        /* \"#utility.yul\":32815:32882   */\n      tag_626\n        /* \"#utility.yul\":32879:32881   */\n      0x11\n        /* \"#utility.yul\":32874:32877   */\n      dup4\n        /* \"#utility.yul\":32815:32882   */\n      tag_257\n      jump\t// in\n    tag_626:\n        /* \"#utility.yul\":32808:32882   */\n      swap2\n      pop\n        /* \"#utility.yul\":32891:32984   */\n      tag_627\n        /* \"#utility.yul\":32980:32983   */\n      dup3\n        /* \"#utility.yul\":32891:32984   */\n      tag_314\n      jump\t// in\n    tag_627:\n        /* \"#utility.yul\":33009:33011   */\n      0x20\n        /* \"#utility.yul\":33004:33007   */\n      dup3\n        /* \"#utility.yul\":33000:33012   */\n      add\n        /* \"#utility.yul\":32993:33012   */\n      swap1\n      pop\n        /* \"#utility.yul\":32652:33018   */\n      swap2\n      swap1\n      pop\n      jump\t// out\n        /* \"#utility.yul\":33024:33443   */\n    tag_168:\n        /* \"#utility.yul\":33190:33194   */\n      0x00\n        /* \"#utility.yul\":33228:33230   */\n      0x20\n        /* \"#utility.yul\":33217:33226   */\n      dup3\n        /* \"#utility.yul\":33213:33231   */\n      add\n        /* \"#utility.yul\":33205:33231   */\n      swap1\n      pop\n        /* \"#utility.yul\":33277:33286   */\n      dup2\n        /* \"#utility.yul\":33271:33275   */\n      dup2\n        /* \"#utility.yul\":33267:33287   */\n      sub\n        /* \"#utility.yul\":33263:33264   */\n      0x00\n        /* \"#utility.yul\":33252:33261   */\n      dup4\n        /* \"#utility.yul\":33248:33265   */\n      add\n        /* \"#utility.yul\":33241:33288   */\n      mstore\n        /* \"#utility.yul\":33305:33436   */\n      tag_629\n        /* \"#utility.yul\":33431:33435   */\n      dup2\n        /* \"#utility.yul\":33305:33436   */\n      tag_315\n      jump\t// in\n    tag_629:\n        /* \"#utility.yul\":33297:33436   */\n      swap1\n      pop\n        /* \"#utility.yul\":33024:33443   */\n      swap2\n      swap1\n      pop\n      jump\t// out\n        /* \"#utility.yul\":33449:33769   */\n    tag_172:\n        /* \"#utility.yul\":33564:33568   */\n      0x00\n        /* \"#utility.yul\":33602:33604   */\n      0x40\n        /* \"#utility.yul\":33591:33600   */\n      dup3\n        /* \"#utility.yul\":33587:33605   */\n      add\n        /* \"#utility.yul\":33579:33605   */\n      swap1\n      pop\n        /* \"#utility.yul\":33615:33686   */\n      tag_631\n        /* \"#utility.yul\":33683:33684   */\n      0x00\n        /* \"#utility.yul\":33672:33681   */\n      dup4\n        /* \"#utility.yul\":33668:33685   */\n      add\n        /* \"#utility.yul\":33659:33665   */\n      dup6\n        /* \"#utility.yul\":33615:33686   */\n      tag_259\n      jump\t// in\n    tag_631:\n        /* \"#utility.yul\":33696:33762   */\n      tag_632\n        /* \"#utility.yul\":33758:33760   */\n      0x20\n        /* \"#utility.yul\":33747:33756   */\n      dup4\n        /* \"#utility.yul\":33743:33761   */\n      add\n        /* \"#utility.yul\":33734:33740   */\n      dup5\n        /* \"#utility.yul\":33696:33762   */\n      tag_261\n      jump\t// in\n    tag_632:\n        /* \"#utility.yul\":33449:33769   */\n      swap4\n      swap3\n      pop\n      pop\n      pop\n      jump\t// out\n        /* \"#utility.yul\":33775:33941   */\n    tag_316:\n        /* \"#utility.yul\":33915:33933   */\n      0x6e6f74207468652063686169726d616e00000000000000000000000000000000\n        /* \"#utility.yul\":33911:33912   */\n      0x00\n        /* \"#utility.yul\":33903:33909   */\n      dup3\n        /* \"#utility.yul\":33899:33913   */\n      add\n        /* \"#utility.yul\":33892:33934   */\n      mstore\n        /* \"#utility.yul\":33775:33941   */\n      pop\n      jump\t// out\n        /* \"#utility.yul\":33947:34313   */\n    tag_317:\n        /* \"#utility.yul\":34089:34092   */\n      0x00\n        /* \"#utility.yul\":34110:34177   */\n      tag_635\n        /* \"#utility.yul\":34174:34176   */\n      0x10\n        /* \"#utility.yul\":34169:34172   */\n      dup4\n        /* \"#utility.yul\":34110:34177   */\n      tag_257\n      jump\t// in\n    tag_635:\n        /* \"#utility.yul\":34103:34177   */\n      swap2\n      pop\n        /* \"#utility.yul\":34186:34279   */\n      tag_636\n        /* \"#utility.yul\":34275:34278   */\n      dup3\n        /* \"#utility.yul\":34186:34279   */\n      tag_316\n      jump\t// in\n    tag_636:\n        /* \"#utility.yul\":34304:34306   */\n      0x20\n        /* \"#utility.yul\":34299:34302   */\n      dup3\n        /* \"#utility.yul\":34295:34307   */\n      add\n        /* \"#utility.yul\":34288:34307   */\n      swap1\n      pop\n        /* \"#utility.yul\":33947:34313   */\n      swap2\n      swap1\n      pop\n      jump\t// out\n        /* \"#utility.yul\":34319:34738   */\n    tag_176:\n        /* \"#utility.yul\":34485:34489   */\n      0x00\n        /* \"#utility.yul\":34523:34525   */\n      0x20\n        /* \"#utility.yul\":34512:34521   */\n      dup3\n        /* \"#utility.yul\":34508:34526   */\n      add\n        /* \"#utility.yul\":34500:34526   */\n      swap1\n      pop\n        /* \"#utility.yul\":34572:34581   */\n      dup2\n        /* \"#utility.yul\":34566:34570   */\n      dup2\n        /* \"#utility.yul\":34562:34582   */\n      sub\n        /* \"#utility.yul\":34558:34559   */\n      0x00\n        /* \"#utility.yul\":34547:34556   */\n      dup4\n        /* \"#utility.yul\":34543:34560   */\n      add\n        /* \"#utility.yul\":34536:34583   */\n      mstore\n        /* \"#utility.yul\":34600:34731   */\n      tag_638\n        /* \"#utility.yul\":34726:34730   */\n      dup2\n        /* \"#utility.yul\":34600:34731   */\n      tag_317\n      jump\t// in\n    tag_638:\n        /* \"#utility.yul\":34592:34731   */\n      swap1\n      pop\n        /* \"#utility.yul\":34319:34738   */\n      swap2\n      swap1\n      pop\n      jump\t// out\n        /* \"#utility.yul\":34744:35121   */\n    tag_318:\n        /* \"#utility.yul\":34850:34853   */\n      0x00\n        /* \"#utility.yul\":34878:34917   */\n      tag_640\n        /* \"#utility.yul\":34911:34916   */\n      dup3\n        /* \"#utility.yul\":34878:34917   */\n      tag_239\n      jump\t// in\n    tag_640:\n        /* \"#utility.yul\":34933:35022   */\n      tag_641\n        /* \"#utility.yul\":35015:35021   */\n      dup2\n        /* \"#utility.yul\":35010:35013   */\n      dup6\n        /* \"#utility.yul\":34933:35022   */\n      tag_305\n      jump\t// in\n    tag_641:\n        /* \"#utility.yul\":34926:35022   */\n      swap4\n      pop\n        /* \"#utility.yul\":35031:35083   */\n      tag_642\n        /* \"#utility.yul\":35076:35082   */\n      dup2\n        /* \"#utility.yul\":35071:35074   */\n      dup6\n        /* \"#utility.yul\":35064:35068   */\n      0x20\n        /* \"#utility.yul\":35057:35062   */\n      dup7\n        /* \"#utility.yul\":35053:35069   */\n      add\n        /* \"#utility.yul\":35031:35083   */\n      tag_241\n      jump\t// in\n    tag_642:\n        /* \"#utility.yul\":35108:35114   */\n      dup1\n        /* \"#utility.yul\":35103:35106   */\n      dup5\n        /* \"#utility.yul\":35099:35115   */\n      add\n        /* \"#utility.yul\":35092:35115   */\n      swap2\n      pop\n        /* \"#utility.yul\":34854:35121   */\n      pop\n        /* \"#utility.yul\":34744:35121   */\n      swap3\n      swap2\n      pop\n      pop\n      jump\t// out\n        /* \"#utility.yul\":35127:35402   */\n    tag_187:\n        /* \"#utility.yul\":35259:35262   */\n      0x00\n        /* \"#utility.yul\":35281:35376   */\n      tag_644\n        /* \"#utility.yul\":35372:35375   */\n      dup3\n        /* \"#utility.yul\":35363:35369   */\n      dup5\n        /* \"#utility.yul\":35281:35376   */\n      tag_318\n      jump\t// in\n    tag_644:\n        /* \"#utility.yul\":35274:35376   */\n      swap2\n      pop\n        /* \"#utility.yul\":35393:35396   */\n      dup2\n        /* \"#utility.yul\":35386:35396   */\n      swap1\n      pop\n        /* \"#utility.yul\":35127:35402   */\n      swap3\n      swap2\n      pop\n      pop\n      jump\t// out\n        /* \"#utility.yul\":35408:35494   */\n    tag_319:\n        /* \"#utility.yul\":35443:35450   */\n      0x00\n        /* \"#utility.yul\":35483:35487   */\n      0xff\n        /* \"#utility.yul\":35476:35481   */\n      dup3\n        /* \"#utility.yul\":35472:35488   */\n      and\n        /* \"#utility.yul\":35461:35488   */\n      swap1\n      pop\n        /* \"#utility.yul\":35408:35494   */\n      swap2\n      swap1\n      pop\n      jump\t// out\n        /* \"#utility.yul\":35500:35737   */\n    tag_207:\n        /* \"#utility.yul\":35538:35541   */\n      0x00\n        /* \"#utility.yul\":35557:35575   */\n      tag_647\n        /* \"#utility.yul\":35573:35574   */\n      dup3\n        /* \"#utility.yul\":35557:35575   */\n      tag_319\n      jump\t// in\n    tag_647:\n        /* \"#utility.yul\":35552:35575   */\n      swap2\n      pop\n        /* \"#utility.yul\":35589:35607   */\n      tag_648\n        /* \"#utility.yul\":35605:35606   */\n      dup4\n        /* \"#utility.yul\":35589:35607   */\n      tag_319\n      jump\t// in\n    tag_648:\n        /* \"#utility.yul\":35584:35607   */\n      swap3\n      pop\n        /* \"#utility.yul\":35679:35680   */\n      dup3\n        /* \"#utility.yul\":35673:35677   */\n      0xff\n        /* \"#utility.yul\":35669:35681   */\n      sub\n        /* \"#utility.yul\":35666:35667   */\n      dup3\n        /* \"#utility.yul\":35663:35682   */\n      gt\n        /* \"#utility.yul\":35660:35705   */\n      iszero\n      tag_649\n      jumpi\n        /* \"#utility.yul\":35685:35703   */\n      tag_650\n      tag_297\n      jump\t// in\n    tag_650:\n        /* \"#utility.yul\":35660:35705   */\n    tag_649:\n        /* \"#utility.yul\":35729:35730   */\n      dup3\n        /* \"#utility.yul\":35726:35727   */\n      dup3\n        /* \"#utility.yul\":35722:35731   */\n      add\n        /* \"#utility.yul\":35715:35731   */\n      swap1\n      pop\n        /* \"#utility.yul\":35500:35737   */\n      swap3\n      swap2\n      pop\n      pop\n      jump\t// out\n        /* \"#utility.yul\":35743:35957   */\n    tag_320:\n        /* \"#utility.yul\":35883:35949   */\n      0x19457468657265756d205369676e6564204d6573736167653a0a333200000000\n        /* \"#utility.yul\":35879:35880   */\n      0x00\n        /* \"#utility.yul\":35871:35877   */\n      dup3\n        /* \"#utility.yul\":35867:35881   */\n      add\n        /* \"#utility.yul\":35860:35950   */\n      mstore\n        /* \"#utility.yul\":35743:35957   */\n      pop\n      jump\t// out\n        /* \"#utility.yul\":35963:36365   */\n    tag_321:\n        /* \"#utility.yul\":36123:36126   */\n      0x00\n        /* \"#utility.yul\":36144:36229   */\n      tag_653\n        /* \"#utility.yul\":36226:36228   */\n      0x1c\n        /* \"#utility.yul\":36221:36224   */\n      dup4\n        /* \"#utility.yul\":36144:36229   */\n      tag_305\n      jump\t// in\n    tag_653:\n        /* \"#utility.yul\":36137:36229   */\n      swap2\n      pop\n        /* \"#utility.yul\":36238:36331   */\n      tag_654\n        /* \"#utility.yul\":36327:36330   */\n      dup3\n        /* \"#utility.yul\":36238:36331   */\n      tag_320\n      jump\t// in\n    tag_654:\n        /* \"#utility.yul\":36356:36358   */\n      0x1c\n        /* \"#utility.yul\":36351:36354   */\n      dup3\n        /* \"#utility.yul\":36347:36359   */\n      add\n        /* \"#utility.yul\":36340:36359   */\n      swap1\n      pop\n        /* \"#utility.yul\":35963:36365   */\n      swap2\n      swap1\n      pop\n      jump\t// out\n        /* \"#utility.yul\":36371:36450   */\n    tag_322:\n        /* \"#utility.yul\":36410:36417   */\n      0x00\n        /* \"#utility.yul\":36439:36444   */\n      dup2\n        /* \"#utility.yul\":36428:36444   */\n      swap1\n      pop\n        /* \"#utility.yul\":36371:36450   */\n      swap2\n      swap1\n      pop\n      jump\t// out\n        /* \"#utility.yul\":36456:36613   */\n    tag_323:\n        /* \"#utility.yul\":36561:36606   */\n      tag_657\n        /* \"#utility.yul\":36581:36605   */\n      tag_658\n        /* \"#utility.yul\":36599:36604   */\n      dup3\n        /* \"#utility.yul\":36581:36605   */\n      tag_271\n      jump\t// in\n    tag_658:\n        /* \"#utility.yul\":36561:36606   */\n      tag_322\n      jump\t// in\n    tag_657:\n        /* \"#utility.yul\":36556:36559   */\n      dup3\n        /* \"#utility.yul\":36549:36607   */\n      mstore\n        /* \"#utility.yul\":36456:36613   */\n      pop\n      pop\n      jump\t// out\n        /* \"#utility.yul\":36619:37141   */\n    tag_212:\n        /* \"#utility.yul\":36832:36835   */\n      0x00\n        /* \"#utility.yul\":36854:37002   */\n      tag_660\n        /* \"#utility.yul\":36998:37001   */\n      dup3\n        /* \"#utility.yul\":36854:37002   */\n      tag_321\n      jump\t// in\n    tag_660:\n        /* \"#utility.yul\":36847:37002   */\n      swap2\n      pop\n        /* \"#utility.yul\":37012:37087   */\n      tag_661\n        /* \"#utility.yul\":37083:37086   */\n      dup3\n        /* \"#utility.yul\":37074:37080   */\n      dup5\n        /* \"#utility.yul\":37012:37087   */\n      tag_323\n      jump\t// in\n    tag_661:\n        /* \"#utility.yul\":37112:37114   */\n      0x20\n        /* \"#utility.yul\":37107:37110   */\n      dup3\n        /* \"#utility.yul\":37103:37115   */\n      add\n        /* \"#utility.yul\":37096:37115   */\n      swap2\n      pop\n        /* \"#utility.yul\":37132:37135   */\n      dup2\n        /* \"#utility.yul\":37125:37135   */\n      swap1\n      pop\n        /* \"#utility.yul\":36619:37141   */\n      swap3\n      swap2\n      pop\n      pop\n      jump\t// out\n        /* \"#utility.yul\":37147:37259   */\n    tag_324:\n        /* \"#utility.yul\":37230:37252   */\n      tag_663\n        /* \"#utility.yul\":37246:37251   */\n      dup2\n        /* \"#utility.yul\":37230:37252   */\n      tag_319\n      jump\t// in\n    tag_663:\n        /* \"#utility.yul\":37225:37228   */\n      dup3\n        /* \"#utility.yul\":37218:37253   */\n      mstore\n        /* \"#utility.yul\":37147:37259   */\n      pop\n      pop\n      jump\t// out\n        /* \"#utility.yul\":37265:37810   */\n    tag_214:\n        /* \"#utility.yul\":37438:37442   */\n      0x00\n        /* \"#utility.yul\":37476:37479   */\n      0x80\n        /* \"#utility.yul\":37465:37474   */\n      dup3\n        /* \"#utility.yul\":37461:37480   */\n      add\n        /* \"#utility.yul\":37453:37480   */\n      swap1\n      pop\n        /* \"#utility.yul\":37490:37561   */\n      tag_665\n        /* \"#utility.yul\":37558:37559   */\n      0x00\n        /* \"#utility.yul\":37547:37556   */\n      dup4\n        /* \"#utility.yul\":37543:37560   */\n      add\n        /* \"#utility.yul\":37534:37540   */\n      dup8\n        /* \"#utility.yul\":37490:37561   */\n      tag_272\n      jump\t// in\n    tag_665:\n        /* \"#utility.yul\":37571:37639   */\n      tag_666\n        /* \"#utility.yul\":37635:37637   */\n      0x20\n        /* \"#utility.yul\":37624:37633   */\n      dup4\n        /* \"#utility.yul\":37620:37638   */\n      add\n        /* \"#utility.yul\":37611:37617   */\n      dup7\n        /* \"#utility.yul\":37571:37639   */\n      tag_324\n      jump\t// in\n    tag_666:\n        /* \"#utility.yul\":37649:37721   */\n      tag_667\n        /* \"#utility.yul\":37717:37719   */\n      0x40\n        /* \"#utility.yul\":37706:37715   */\n      dup4\n        /* \"#utility.yul\":37702:37720   */\n      add\n        /* \"#utility.yul\":37693:37699   */\n      dup6\n        /* \"#utility.yul\":37649:37721   */\n      tag_272\n      jump\t// in\n    tag_667:\n        /* \"#utility.yul\":37731:37803   */\n      tag_668\n        /* \"#utility.yul\":37799:37801   */\n      0x60\n        /* \"#utility.yul\":37788:37797   */\n      dup4\n        /* \"#utility.yul\":37784:37802   */\n      add\n        /* \"#utility.yul\":37775:37781   */\n      dup5\n        /* \"#utility.yul\":37731:37803   */\n      tag_272\n      jump\t// in\n    tag_668:\n        /* \"#utility.yul\":37265:37810   */\n      swap6\n      swap5\n      pop\n      pop\n      pop\n      pop\n      pop\n      jump\t// out\n\n    auxdata: 0xa26469706673582212205c4876c10c058a56f429075e191594aa542264109dbe51a73ef85bd5ff5b58b064736f6c634300080a0033\n}\n",
				"bytecode": {
					"linkReferences": {},
					"object": "6080604052600160005534801561001557600080fd5b50612a49806100256000396000f3fe608060405234801561001057600080fd5b50600436106100ea5760003560e01c8063ae928e3e1161008c578063c57003cc11610066578063c57003cc146102ad578063e615f104146102c9578063f762f4c0146102fd578063fa4c517314610319576100ea565b8063ae928e3e14610231578063bfe2e25d14610261578063c10d6cec14610291576100ea565b806367d407df116100c857806367d407df1461016b5780638321f3971461019b5780638ac3c3c2146101cf5780638ccb59e8146101ff576100ea565b8063049d1c8b146100ef578063278e2c901461010b57806366c5343b1461013b575b600080fd5b61010960048036038101906101049190611839565b610337565b005b61012560048036038101906101209190611879565b610605565b6040516101329190611ac7565b60405180910390f35b61015560048036038101906101509190611879565b61080f565b6040516101629190611af8565b60405180910390f35b61018560048036038101906101809190611b13565b61084a565b6040516101929190611af8565b60405180910390f35b6101b560048036038101906101b09190611879565b610862565b6040516101c6959493929190611bb7565b60405180910390f35b6101e960048036038101906101e49190611879565b61097d565b6040516101f69190611c80565b60405180910390f35b61021960048036038101906102149190611879565b610a27565b60405161022893929190611d60565b60405180910390f35b61024b60048036038101906102469190611879565b610c73565b6040516102589190611af8565b60405180910390f35b61027b60048036038101906102769190611d9e565b610c97565b6040516102889190611e1e565b60405180910390f35b6102ab60048036038101906102a69190611f6e565b610cd2565b005b6102c760048036038101906102c29190611879565b610fd6565b005b6102e360048036038101906102de9190611879565b6110f1565b6040516102f4959493929190611bb7565b60405180910390f35b610317600480360381019061031291906120be565b6111fc565b005b61032161133a565b60405161032e919061226c565b60405180910390f35b6000600360008381526020019081526020016000209050600073ffffffffffffffffffffffffffffffffffffffff168160010160009054906101000a900473ffffffffffffffffffffffffffffffffffffffff1673ffffffffffffffffffffffffffffffffffffffff1614156103e2576040517f08c379a00000000000000000000000000000000000000000000000000000000081526004016103d9906122da565b60405180910390fd5b3373ffffffffffffffffffffffffffffffffffffffff168160010160009054906101000a900473ffffffffffffffffffffffffffffffffffffffff1673ffffffffffffffffffffffffffffffffffffffff1614610442576104416122fa565b5b8060030160009054906101000a900463ffffffff1663ffffffff168160030160049054906101000a900463ffffffff1663ffffffff16106104b8576040517f08c379a00000000000000000000000000000000000000000000000000000000081526004016104af9061239b565b60405180910390fd5b60016005600084815260200190815260200160002060008573ffffffffffffffffffffffffffffffffffffffff1673ffffffffffffffffffffffffffffffffffffffff16815260200190815260200160002060006101000a81548160ff02191690831515021790555080600201839080600181540180825580915050600190039060005260206000200160009091909190916101000a81548173ffffffffffffffffffffffffffffffffffffffff021916908373ffffffffffffffffffffffffffffffffffffffff16021790555080600301600481819054906101000a900463ffffffff16809291906105aa906123ea565b91906101000a81548163ffffffff021916908363ffffffff160217905550507fc19c59aa93348e8fc54764bc642eca975e2639f44cc683ef8f027e1529cbda32836040516105f89190612417565b60405180910390a1505050565b61060d611694565b600360008381526020019081526020016000206040518060c001604052908160008201805461063b90612461565b80601f016020809104026020016040519081016040528092919081815260200182805461066790612461565b80156106b45780601f10610689576101008083540402835291602001916106b4565b820191906000526020600020905b81548152906001019060200180831161069757829003601f168201915b505050505081526020016001820160009054906101000a900473ffffffffffffffffffffffffffffffffffffffff1673ffffffffffffffffffffffffffffffffffffffff1673ffffffffffffffffffffffffffffffffffffffff1681526020016002820180548060200260200160405190810160405280929190818152602001828054801561079857602002820191906000526020600020905b8160009054906101000a900473ffffffffffffffffffffffffffffffffffffffff1673ffffffffffffffffffffffffffffffffffffffff168152602001906001019080831161074e575b505050505081526020016003820160009054906101000a900463ffffffff1663ffffffff1663ffffffff1681526020016003820160049054906101000a900463ffffffff1663ffffffff1663ffffffff1681526020016003820160089054906101000a900460ff1615151515815250509050919050565b6000806003600084815260200190815260200160002090508060030160049054906101000a900463ffffffff1663ffffffff16915050919050565b60046020528060005260406000206000915090505481565b6002818154811061087257600080fd5b906000526020600020906004020160009150905080600001805461089590612461565b80601f01602080910402602001604051908101604052809291908181526020018280546108c190612461565b801561090e5780601f106108e35761010080835404028352916020019161090e565b820191906000526020600020905b8154815290600101906020018083116108f157829003601f168201915b5050505050908060010160009054906101000a900473ffffffffffffffffffffffffffffffffffffffff16908060030160009054906101000a900463ffffffff16908060030160049054906101000a900463ffffffff16908060030160089054906101000a900460ff16905085565b6060600060036000848152602001908152602001600020905080600201805480602002602001604051908101604052809291908181526020018280548015610a1a57602002820191906000526020600020905b8160009054906101000a900473ffffffffffffffffffffffffffffffffffffffff1673ffffffffffffffffffffffffffffffffffffffff16815260200190600101908083116109d0575b5050505050915050919050565b60606000806000600360008681526020019081526020016000209050600073ffffffffffffffffffffffffffffffffffffffff168160010160009054906101000a900473ffffffffffffffffffffffffffffffffffffffff1673ffffffffffffffffffffffffffffffffffffffff161415610ad7576040517f08c379a0000000000000000000000000000000000000000000000000000000008152600401610ace906124df565b60405180910390fd5b806002018054905067ffffffffffffffff811115610af857610af7611e43565b5b604051908082528060200260200182016040528015610b265781602001602082028036833780820191505090505b50935060008060005b8360020180549050811015610c5f576000610b4a89836113be565b905083811115610b9b57809350846002018281548110610b6d57610b6c6124ff565b5b9060005260206000200160009054906101000a900473ffffffffffffffffffffffffffffffffffffffff1692505b600660008a81526020019081526020016000206000866002018481548110610bc657610bc56124ff565b5b9060005260206000200160009054906101000a900473ffffffffffffffffffffffffffffffffffffffff1673ffffffffffffffffffffffffffffffffffffffff1673ffffffffffffffffffffffffffffffffffffffff16815260200190815260200160002054888381518110610c3f57610c3e6124ff565b5b602002602001018181525050508080610c579061252e565b915050610b2f565b508581839550955095505050509193909250565b60018181548110610c8357600080fd5b906000526020600020016000915090505481565b60003085858585604051602001610cb2959493929190612637565b604051602081830303815290604052805190602001209050949350505050565b8383600115156005600083815260200190815260200160002060008473ffffffffffffffffffffffffffffffffffffffff1673ffffffffffffffffffffffffffffffffffffffff16815260200190815260200160002060009054906101000a900460ff16151514610d78576040517f08c379a0000000000000000000000000000000000000000000000000000000008152600401610d6f90612713565b60405180910390fd5b846000600360008381526020019081526020016000209050600115158160030160089054906101000a900460ff16151514610de8576040517f08c379a0000000000000000000000000000000000000000000000000000000008152600401610ddf9061277f565b60405180910390fd5b6000610df689898942610c97565b90506000610e048288611470565b9050600073ffffffffffffffffffffffffffffffffffffffff168173ffffffffffffffffffffffffffffffffffffffff161415610e4057600080fd5b600460008273ffffffffffffffffffffffffffffffffffffffff1673ffffffffffffffffffffffffffffffffffffffff168152602001908152602001600020548814610e8b57600080fd5b600460008273ffffffffffffffffffffffffffffffffffffffff1673ffffffffffffffffffffffffffffffffffffffff1681526020019081526020016000206000815480929190610edb9061252e565b919050555060001515600760008b815260200190815260200160002060008373ffffffffffffffffffffffffffffffffffffffff1673ffffffffffffffffffffffffffffffffffffffff16815260200190815260200160002060009054906101000a900460ff16151514610f84576040517f08c379a0000000000000000000000000000000000000000000000000000000008152600401610f7b906127eb565b60405180910390fd5b610f8f8a8a83611569565b507ff3f16a15f074b71c5138107dfc7c63b80524d5411cb967caa97d8d9f12b2fd6b8a6001604051610fc292919061280b565b60405180910390a150505050505050505050565b60006003600083815260200190815260200160002090503373ffffffffffffffffffffffffffffffffffffffff168160010160009054906101000a900473ffffffffffffffffffffffffffffffffffffffff1673ffffffffffffffffffffffffffffffffffffffff161461107f576040517f08c379a000000000000000000000000000000000000000000000000000000000815260040161107690612880565b60405180910390fd5b8060030160089054906101000a900460ff16158160030160086101000a81548160ff0219169083151502179055508060030160089054906101000a900460ff1615157f7b224db641892626dca6975b376f464e9ac52ccfa180436175170c009b94dcd760405160405180910390a25050565b600360205280600052604060002060009150905080600001805461111490612461565b80601f016020809104026020016040519081016040528092919081815260200182805461114090612461565b801561118d5780601f106111625761010080835404028352916020019161118d565b820191906000526020600020905b81548152906001019060200180831161117057829003601f168201915b5050505050908060010160009054906101000a900473ffffffffffffffffffffffffffffffffffffffff16908060030160009054906101000a900463ffffffff16908060030160049054906101000a900463ffffffff16908060030160089054906101000a900460ff16905085565b6000600360008054815260200190815260200160002090508281600001908051906020019061122c9291906116ee565b50338160010160006101000a81548173ffffffffffffffffffffffffffffffffffffffff021916908373ffffffffffffffffffffffffffffffffffffffff160217905550818160030160006101000a81548163ffffffff021916908363ffffffff160217905550600160005490806001815401808255809150506001900390600052602060002001600090919091909150556000548160030160009054906101000a900463ffffffff1663ffffffff16846040516112ea91906128d1565b60405180910390207fd4d0d9a1ef7f13069f1bade752fda515713d747eb14a8c30ae461c52916bf1c760405160405180910390a46000808154809291906113309061252e565b9190505550505050565b606060018054905067ffffffffffffffff81111561135b5761135a611e43565b5b60405190808252806020026020018201604052801561139457816020015b611381611694565b8152602001906001900390816113795790505b50905060005b6001805490508110156113ba5780806113b29061252e565b91505061139a565b5090565b600080600360008581526020019081526020016000209050600660008581526020019081526020016000206000826002018581548110611401576114006124ff565b5b9060005260206000200160009054906101000a900473ffffffffffffffffffffffffffffffffffffffff1673ffffffffffffffffffffffffffffffffffffffff1673ffffffffffffffffffffffffffffffffffffffff1681526020019081526020016000205491505092915050565b600080600080604185511461148b5760009350505050611563565b6020850151925060408501519150606085015160001a9050601b8160ff1610156114bf57601b816114bc91906128f5565b90505b601b8160ff16141580156114d75750601c8160ff1614155b156114e85760009350505050611563565b6001866040516020016114fb9190612999565b604051602081830303815290604052805190602001208285856040516000815260200160405260405161153194939291906129ce565b6020604051602081039080840390855afa158015611553573d6000803e3d6000fd5b5050506020604051035193505050505b92915050565b600060016007600085815260200190815260200160002060008473ffffffffffffffffffffffffffffffffffffffff1673ffffffffffffffffffffffffffffffffffffffff16815260200190815260200160002060006101000a81548160ff0219169083151502179055506006600084815260200190815260200160002060008573ffffffffffffffffffffffffffffffffffffffff1673ffffffffffffffffffffffffffffffffffffffff16815260200190815260200160002060008154809291906116359061252e565b91905055506006600084815260200190815260200160002060008573ffffffffffffffffffffffffffffffffffffffff1673ffffffffffffffffffffffffffffffffffffffff1681526020019081526020016000205490509392505050565b6040518060c0016040528060608152602001600073ffffffffffffffffffffffffffffffffffffffff16815260200160608152602001600063ffffffff168152602001600063ffffffff1681526020016000151581525090565b8280546116fa90612461565b90600052602060002090601f01602090048101928261171c5760008555611763565b82601f1061173557805160ff1916838001178555611763565b82800160010185558215611763579182015b82811115611762578251825591602001919060010190611747565b5b5090506117709190611774565b5090565b5b8082111561178d576000816000905550600101611775565b5090565b6000604051905090565b600080fd5b600080fd5b600073ffffffffffffffffffffffffffffffffffffffff82169050919050565b60006117d0826117a5565b9050919050565b6117e0816117c5565b81146117eb57600080fd5b50565b6000813590506117fd816117d7565b92915050565b6000819050919050565b61181681611803565b811461182157600080fd5b50565b6000813590506118338161180d565b92915050565b600080604083850312156118505761184f61179b565b5b600061185e858286016117ee565b925050602061186f85828601611824565b9150509250929050565b60006020828403121561188f5761188e61179b565b5b600061189d84828501611824565b91505092915050565b600081519050919050565b600082825260208201905092915050565b60005b838110156118e05780820151818401526020810190506118c5565b838111156118ef576000848401525b50505050565b6000601f19601f8301169050919050565b6000611911826118a6565b61191b81856118b1565b935061192b8185602086016118c2565b611934816118f5565b840191505092915050565b611948816117c5565b82525050565b600081519050919050565b600082825260208201905092915050565b6000819050602082019050919050565b6000611986838361193f565b60208301905092915050565b6000602082019050919050565b60006119aa8261194e565b6119b48185611959565b93506119bf8361196a565b8060005b838110156119f05781516119d7888261197a565b97506119e283611992565b9250506001810190506119c3565b5085935050505092915050565b600063ffffffff82169050919050565b611a16816119fd565b82525050565b60008115159050919050565b611a3181611a1c565b82525050565b600060c0830160008301518482036000860152611a548282611906565b9150506020830151611a69602086018261193f565b5060408301518482036040860152611a81828261199f565b9150506060830151611a966060860182611a0d565b506080830151611aa96080860182611a0d565b5060a0830151611abc60a0860182611a28565b508091505092915050565b60006020820190508181036000830152611ae18184611a37565b905092915050565b611af281611803565b82525050565b6000602082019050611b0d6000830184611ae9565b92915050565b600060208284031215611b2957611b2861179b565b5b6000611b37848285016117ee565b91505092915050565b600082825260208201905092915050565b6000611b5c826118a6565b611b668185611b40565b9350611b768185602086016118c2565b611b7f816118f5565b840191505092915050565b611b93816117c5565b82525050565b611ba2816119fd565b82525050565b611bb181611a1c565b82525050565b600060a0820190508181036000830152611bd18188611b51565b9050611be06020830187611b8a565b611bed6040830186611b99565b611bfa6060830185611b99565b611c076080830184611ba8565b9695505050505050565b600082825260208201905092915050565b6000611c2d8261194e565b611c378185611c11565b9350611c428361196a565b8060005b83811015611c73578151611c5a888261197a565b9750611c6583611992565b925050600181019050611c46565b5085935050505092915050565b60006020820190508181036000830152611c9a8184611c22565b905092915050565b600081519050919050565b600082825260208201905092915050565b6000819050602082019050919050565b611cd781611803565b82525050565b6000611ce98383611cce565b60208301905092915050565b6000602082019050919050565b6000611d0d82611ca2565b611d178185611cad565b9350611d2283611cbe565b8060005b83811015611d53578151611d3a8882611cdd565b9750611d4583611cf5565b925050600181019050611d26565b5085935050505092915050565b60006060820190508181036000830152611d7a8186611d02565b9050611d896020830185611b8a565b611d966040830184611ae9565b949350505050565b60008060008060808587031215611db857611db761179b565b5b6000611dc6878288016117ee565b9450506020611dd787828801611824565b9350506040611de887828801611824565b9250506060611df987828801611824565b91505092959194509250565b6000819050919050565b611e1881611e05565b82525050565b6000602082019050611e336000830184611e0f565b92915050565b600080fd5b600080fd5b7f4e487b7100000000000000000000000000000000000000000000000000000000600052604160045260246000fd5b611e7b826118f5565b810181811067ffffffffffffffff82111715611e9a57611e99611e43565b5b80604052505050565b6000611ead611791565b9050611eb98282611e72565b919050565b600067ffffffffffffffff821115611ed957611ed8611e43565b5b611ee2826118f5565b9050602081019050919050565b82818337600083830152505050565b6000611f11611f0c84611ebe565b611ea3565b905082815260208101848484011115611f2d57611f2c611e3e565b5b611f38848285611eef565b509392505050565b600082601f830112611f5557611f54611e39565b5b8135611f65848260208601611efe565b91505092915050565b60008060008060808587031215611f8857611f8761179b565b5b6000611f96878288016117ee565b9450506020611fa787828801611824565b9350506040611fb887828801611824565b925050606085013567ffffffffffffffff811115611fd957611fd86117a0565b5b611fe587828801611f40565b91505092959194509250565b600067ffffffffffffffff82111561200c5761200b611e43565b5b612015826118f5565b9050602081019050919050565b600061203561203084611ff1565b611ea3565b90508281526020810184848401111561205157612050611e3e565b5b61205c848285611eef565b509392505050565b600082601f83011261207957612078611e39565b5b8135612089848260208601612022565b91505092915050565b61209b816119fd565b81146120a657600080fd5b50565b6000813590506120b881612092565b92915050565b600080604083850312156120d5576120d461179b565b5b600083013567ffffffffffffffff8111156120f3576120f26117a0565b5b6120ff85828601612064565b9250506020612110858286016120a9565b9150509250929050565b600081519050919050565b600082825260208201905092915050565b6000819050602082019050919050565b600060c08301600083015184820360008601526121638282611906565b9150506020830151612178602086018261193f565b5060408301518482036040860152612190828261199f565b91505060608301516121a56060860182611a0d565b5060808301516121b86080860182611a0d565b5060a08301516121cb60a0860182611a28565b508091505092915050565b60006121e28383612146565b905092915050565b6000602082019050919050565b60006122028261211a565b61220c8185612125565b93508360208202850161221e85612136565b8060005b8581101561225a578484038952815161223b85826121d6565b9450612246836121ea565b925060208a01995050600181019050612222565b50829750879550505050505092915050565b6000602082019050818103600083015261228681846121f7565b905092915050565b7f79657420746f20637265617465206120706f6c6c000000000000000000000000600082015250565b60006122c4601483611b40565b91506122cf8261228e565b602082019050919050565b600060208201905081810360008301526122f3816122b7565b9050919050565b7f4e487b7100000000000000000000000000000000000000000000000000000000600052600160045260246000fd5b7f6d6178696d756d206e6f206f662063616e64696461746520706572207365737360008201527f696f6e2072656769737465726564000000000000000000000000000000000000602082015250565b6000612385602e83611b40565b915061239082612329565b604082019050919050565b600060208201905081810360008301526123b481612378565b9050919050565b7f4e487b7100000000000000000000000000000000000000000000000000000000600052601160045260246000fd5b60006123f5826119fd565b915063ffffffff82141561240c5761240b6123bb565b5b600182019050919050565b600060208201905061242c6000830184611b8a565b92915050565b7f4e487b7100000000000000000000000000000000000000000000000000000000600052602260045260246000fd5b6000600282049050600182168061247957607f821691505b6020821081141561248d5761248c612432565b5b50919050565b7f4e6f20706f6c6c20637265617465640000000000000000000000000000000000600082015250565b60006124c9600f83611b40565b91506124d482612493565b602082019050919050565b600060208201905081810360008301526124f8816124bc565b9050919050565b7f4e487b7100000000000000000000000000000000000000000000000000000000600052603260045260246000fd5b600061253982611803565b91507fffffffffffffffffffffffffffffffffffffffffffffffffffffffffffffffff82141561256c5761256b6123bb565b5b600182019050919050565b60008160601b9050919050565b600061258f82612577565b9050919050565b60006125a182612584565b9050919050565b6125b96125b4826117c5565b612596565b82525050565b600081905092915050565b7f6d6574617472616e73616374696f6e20566f74696e6720000000000000000000600082015250565b60006126006017836125bf565b915061260b826125ca565b601782019050919050565b6000819050919050565b61263161262c82611803565b612616565b82525050565b600061264382886125a8565b601482019150612652826125f3565b915061265e82876125a8565b60148201915061266e8286612620565b60208201915061267e8285612620565b60208201915061268e8284612620565b6020820191508190509695505050505050565b7f54686973206164647265737320646f6573206e6f74206578697374206173206160008201527f2063616e64696461746500000000000000000000000000000000000000000000602082015250565b60006126fd602a83611b40565b9150612708826126a1565b604082019050919050565b6000602082019050818103600083015261272c816126f0565b9050919050565b7f766f74696e672068617320656e64656400000000000000000000000000000000600082015250565b6000612769601083611b40565b915061277482612733565b602082019050919050565b600060208201905081810360008301526127988161275c565b9050919050565b7f596f7520616c726561647920766f746564000000000000000000000000000000600082015250565b60006127d5601183611b40565b91506127e08261279f565b602082019050919050565b60006020820190508181036000830152612804816127c8565b9050919050565b60006040820190506128206000830185611b8a565b61282d6020830184611ba8565b9392505050565b7f6e6f74207468652063686169726d616e00000000000000000000000000000000600082015250565b600061286a601083611b40565b915061287582612834565b602082019050919050565b600060208201905081810360008301526128998161285d565b9050919050565b60006128ab826118a6565b6128b581856125bf565b93506128c58185602086016118c2565b80840191505092915050565b60006128dd82846128a0565b915081905092915050565b600060ff82169050919050565b6000612900826128e8565b915061290b836128e8565b92508260ff03821115612921576129206123bb565b5b828201905092915050565b7f19457468657265756d205369676e6564204d6573736167653a0a333200000000600082015250565b6000612962601c836125bf565b915061296d8261292c565b601c82019050919050565b6000819050919050565b61299361298e82611e05565b612978565b82525050565b60006129a482612955565b91506129b08284612982565b60208201915081905092915050565b6129c8816128e8565b82525050565b60006080820190506129e36000830187611e0f565b6129f060208301866129bf565b6129fd6040830185611e0f565b612a0a6060830184611e0f565b9594505050505056fea26469706673582212205c4876c10c058a56f429075e191594aa542264109dbe51a73ef85bd5ff5b58b064736f6c634300080a0033",
					"opcodes": "PUSH1 0x80 PUSH1 0x40 MSTORE PUSH1 0x1 PUSH1 0x0 SSTORE CALLVALUE DUP1 ISZERO PUSH2 0x15 JUMPI PUSH1 0x0 DUP1 REVERT JUMPDEST POP PUSH2 0x2A49 DUP1 PUSH2 0x25 PUSH1 0x0 CODECOPY PUSH1 0x0 RETURN INVALID PUSH1 0x80 PUSH1 0x40 MSTORE CALLVALUE DUP1 ISZERO PUSH2 0x10 JUMPI PUSH1 0x0 DUP1 REVERT JUMPDEST POP PUSH1 0x4 CALLDATASIZE LT PUSH2 0xEA JUMPI PUSH1 0x0 CALLDATALOAD PUSH1 0xE0 SHR DUP1 PUSH4 0xAE928E3E GT PUSH2 0x8C JUMPI DUP1 PUSH4 0xC57003CC GT PUSH2 0x66 JUMPI DUP1 PUSH4 0xC57003CC EQ PUSH2 0x2AD JUMPI DUP1 PUSH4 0xE615F104 EQ PUSH2 0x2C9 JUMPI DUP1 PUSH4 0xF762F4C0 EQ PUSH2 0x2FD JUMPI DUP1 PUSH4 0xFA4C5173 EQ PUSH2 0x319 JUMPI PUSH2 0xEA JUMP JUMPDEST DUP1 PUSH4 0xAE928E3E EQ PUSH2 0x231 JUMPI DUP1 PUSH4 0xBFE2E25D EQ PUSH2 0x261 JUMPI DUP1 PUSH4 0xC10D6CEC EQ PUSH2 0x291 JUMPI PUSH2 0xEA JUMP JUMPDEST DUP1 PUSH4 0x67D407DF GT PUSH2 0xC8 JUMPI DUP1 PUSH4 0x67D407DF EQ PUSH2 0x16B JUMPI DUP1 PUSH4 0x8321F397 EQ PUSH2 0x19B JUMPI DUP1 PUSH4 0x8AC3C3C2 EQ PUSH2 0x1CF JUMPI DUP1 PUSH4 0x8CCB59E8 EQ PUSH2 0x1FF JUMPI PUSH2 0xEA JUMP JUMPDEST DUP1 PUSH4 0x49D1C8B EQ PUSH2 0xEF JUMPI DUP1 PUSH4 0x278E2C90 EQ PUSH2 0x10B JUMPI DUP1 PUSH4 0x66C5343B EQ PUSH2 0x13B JUMPI JUMPDEST PUSH1 0x0 DUP1 REVERT JUMPDEST PUSH2 0x109 PUSH1 0x4 DUP1 CALLDATASIZE SUB DUP2 ADD SWAP1 PUSH2 0x104 SWAP2 SWAP1 PUSH2 0x1839 JUMP JUMPDEST PUSH2 0x337 JUMP JUMPDEST STOP JUMPDEST PUSH2 0x125 PUSH1 0x4 DUP1 CALLDATASIZE SUB DUP2 ADD SWAP1 PUSH2 0x120 SWAP2 SWAP1 PUSH2 0x1879 JUMP JUMPDEST PUSH2 0x605 JUMP JUMPDEST PUSH1 0x40 MLOAD PUSH2 0x132 SWAP2 SWAP1 PUSH2 0x1AC7 JUMP JUMPDEST PUSH1 0x40 MLOAD DUP1 SWAP2 SUB SWAP1 RETURN JUMPDEST PUSH2 0x155 PUSH1 0x4 DUP1 CALLDATASIZE SUB DUP2 ADD SWAP1 PUSH2 0x150 SWAP2 SWAP1 PUSH2 0x1879 JUMP JUMPDEST PUSH2 0x80F JUMP JUMPDEST PUSH1 0x40 MLOAD PUSH2 0x162 SWAP2 SWAP1 PUSH2 0x1AF8 JUMP JUMPDEST PUSH1 0x40 MLOAD DUP1 SWAP2 SUB SWAP1 RETURN JUMPDEST PUSH2 0x185 PUSH1 0x4 DUP1 CALLDATASIZE SUB DUP2 ADD SWAP1 PUSH2 0x180 SWAP2 SWAP1 PUSH2 0x1B13 JUMP JUMPDEST PUSH2 0x84A JUMP JUMPDEST PUSH1 0x40 MLOAD PUSH2 0x192 SWAP2 SWAP1 PUSH2 0x1AF8 JUMP JUMPDEST PUSH1 0x40 MLOAD DUP1 SWAP2 SUB SWAP1 RETURN JUMPDEST PUSH2 0x1B5 PUSH1 0x4 DUP1 CALLDATASIZE SUB DUP2 ADD SWAP1 PUSH2 0x1B0 SWAP2 SWAP1 PUSH2 0x1879 JUMP JUMPDEST PUSH2 0x862 JUMP JUMPDEST PUSH1 0x40 MLOAD PUSH2 0x1C6 SWAP6 SWAP5 SWAP4 SWAP3 SWAP2 SWAP1 PUSH2 0x1BB7 JUMP JUMPDEST PUSH1 0x40 MLOAD DUP1 SWAP2 SUB SWAP1 RETURN JUMPDEST PUSH2 0x1E9 PUSH1 0x4 DUP1 CALLDATASIZE SUB DUP2 ADD SWAP1 PUSH2 0x1E4 SWAP2 SWAP1 PUSH2 0x1879 JUMP JUMPDEST PUSH2 0x97D JUMP JUMPDEST PUSH1 0x40 MLOAD PUSH2 0x1F6 SWAP2 SWAP1 PUSH2 0x1C80 JUMP JUMPDEST PUSH1 0x40 MLOAD DUP1 SWAP2 SUB SWAP1 RETURN JUMPDEST PUSH2 0x219 PUSH1 0x4 DUP1 CALLDATASIZE SUB DUP2 ADD SWAP1 PUSH2 0x214 SWAP2 SWAP1 PUSH2 0x1879 JUMP JUMPDEST PUSH2 0xA27 JUMP JUMPDEST PUSH1 0x40 MLOAD PUSH2 0x228 SWAP4 SWAP3 SWAP2 SWAP1 PUSH2 0x1D60 JUMP JUMPDEST PUSH1 0x40 MLOAD DUP1 SWAP2 SUB SWAP1 RETURN JUMPDEST PUSH2 0x24B PUSH1 0x4 DUP1 CALLDATASIZE SUB DUP2 ADD SWAP1 PUSH2 0x246 SWAP2 SWAP1 PUSH2 0x1879 JUMP JUMPDEST PUSH2 0xC73 JUMP JUMPDEST PUSH1 0x40 MLOAD PUSH2 0x258 SWAP2 SWAP1 PUSH2 0x1AF8 JUMP JUMPDEST PUSH1 0x40 MLOAD DUP1 SWAP2 SUB SWAP1 RETURN JUMPDEST PUSH2 0x27B PUSH1 0x4 DUP1 CALLDATASIZE SUB DUP2 ADD SWAP1 PUSH2 0x276 SWAP2 SWAP1 PUSH2 0x1D9E JUMP JUMPDEST PUSH2 0xC97 JUMP JUMPDEST PUSH1 0x40 MLOAD PUSH2 0x288 SWAP2 SWAP1 PUSH2 0x1E1E JUMP JUMPDEST PUSH1 0x40 MLOAD DUP1 SWAP2 SUB SWAP1 RETURN JUMPDEST PUSH2 0x2AB PUSH1 0x4 DUP1 CALLDATASIZE SUB DUP2 ADD SWAP1 PUSH2 0x2A6 SWAP2 SWAP1 PUSH2 0x1F6E JUMP JUMPDEST PUSH2 0xCD2 JUMP JUMPDEST STOP JUMPDEST PUSH2 0x2C7 PUSH1 0x4 DUP1 CALLDATASIZE SUB DUP2 ADD SWAP1 PUSH2 0x2C2 SWAP2 SWAP1 PUSH2 0x1879 JUMP JUMPDEST PUSH2 0xFD6 JUMP JUMPDEST STOP JUMPDEST PUSH2 0x2E3 PUSH1 0x4 DUP1 CALLDATASIZE SUB DUP2 ADD SWAP1 PUSH2 0x2DE SWAP2 SWAP1 PUSH2 0x1879 JUMP JUMPDEST PUSH2 0x10F1 JUMP JUMPDEST PUSH1 0x40 MLOAD PUSH2 0x2F4 SWAP6 SWAP5 SWAP4 SWAP3 SWAP2 SWAP1 PUSH2 0x1BB7 JUMP JUMPDEST PUSH1 0x40 MLOAD DUP1 SWAP2 SUB SWAP1 RETURN JUMPDEST PUSH2 0x317 PUSH1 0x4 DUP1 CALLDATASIZE SUB DUP2 ADD SWAP1 PUSH2 0x312 SWAP2 SWAP1 PUSH2 0x20BE JUMP JUMPDEST PUSH2 0x11FC JUMP JUMPDEST STOP JUMPDEST PUSH2 0x321 PUSH2 0x133A JUMP JUMPDEST PUSH1 0x40 MLOAD PUSH2 0x32E SWAP2 SWAP1 PUSH2 0x226C JUMP JUMPDEST PUSH1 0x40 MLOAD DUP1 SWAP2 SUB SWAP1 RETURN JUMPDEST PUSH1 0x0 PUSH1 0x3 PUSH1 0x0 DUP4 DUP2 MSTORE PUSH1 0x20 ADD SWAP1 DUP2 MSTORE PUSH1 0x20 ADD PUSH1 0x0 KECCAK256 SWAP1 POP PUSH1 0x0 PUSH20 0xFFFFFFFFFFFFFFFFFFFFFFFFFFFFFFFFFFFFFFFF AND DUP2 PUSH1 0x1 ADD PUSH1 0x0 SWAP1 SLOAD SWAP1 PUSH2 0x100 EXP SWAP1 DIV PUSH20 0xFFFFFFFFFFFFFFFFFFFFFFFFFFFFFFFFFFFFFFFF AND PUSH20 0xFFFFFFFFFFFFFFFFFFFFFFFFFFFFFFFFFFFFFFFF AND EQ ISZERO PUSH2 0x3E2 JUMPI PUSH1 0x40 MLOAD PUSH32 0x8C379A000000000000000000000000000000000000000000000000000000000 DUP2 MSTORE PUSH1 0x4 ADD PUSH2 0x3D9 SWAP1 PUSH2 0x22DA JUMP JUMPDEST PUSH1 0x40 MLOAD DUP1 SWAP2 SUB SWAP1 REVERT JUMPDEST CALLER PUSH20 0xFFFFFFFFFFFFFFFFFFFFFFFFFFFFFFFFFFFFFFFF AND DUP2 PUSH1 0x1 ADD PUSH1 0x0 SWAP1 SLOAD SWAP1 PUSH2 0x100 EXP SWAP1 DIV PUSH20 0xFFFFFFFFFFFFFFFFFFFFFFFFFFFFFFFFFFFFFFFF AND PUSH20 0xFFFFFFFFFFFFFFFFFFFFFFFFFFFFFFFFFFFFFFFF AND EQ PUSH2 0x442 JUMPI PUSH2 0x441 PUSH2 0x22FA JUMP JUMPDEST JUMPDEST DUP1 PUSH1 0x3 ADD PUSH1 0x0 SWAP1 SLOAD SWAP1 PUSH2 0x100 EXP SWAP1 DIV PUSH4 0xFFFFFFFF AND PUSH4 0xFFFFFFFF AND DUP2 PUSH1 0x3 ADD PUSH1 0x4 SWAP1 SLOAD SWAP1 PUSH2 0x100 EXP SWAP1 DIV PUSH4 0xFFFFFFFF AND PUSH4 0xFFFFFFFF AND LT PUSH2 0x4B8 JUMPI PUSH1 0x40 MLOAD PUSH32 0x8C379A000000000000000000000000000000000000000000000000000000000 DUP2 MSTORE PUSH1 0x4 ADD PUSH2 0x4AF SWAP1 PUSH2 0x239B JUMP JUMPDEST PUSH1 0x40 MLOAD DUP1 SWAP2 SUB SWAP1 REVERT JUMPDEST PUSH1 0x1 PUSH1 0x5 PUSH1 0x0 DUP5 DUP2 MSTORE PUSH1 0x20 ADD SWAP1 DUP2 MSTORE PUSH1 0x20 ADD PUSH1 0x0 KECCAK256 PUSH1 0x0 DUP6 PUSH20 0xFFFFFFFFFFFFFFFFFFFFFFFFFFFFFFFFFFFFFFFF AND PUSH20 0xFFFFFFFFFFFFFFFFFFFFFFFFFFFFFFFFFFFFFFFF AND DUP2 MSTORE PUSH1 0x20 ADD SWAP1 DUP2 MSTORE PUSH1 0x20 ADD PUSH1 0x0 KECCAK256 PUSH1 0x0 PUSH2 0x100 EXP DUP2 SLOAD DUP2 PUSH1 0xFF MUL NOT AND SWAP1 DUP4 ISZERO ISZERO MUL OR SWAP1 SSTORE POP DUP1 PUSH1 0x2 ADD DUP4 SWAP1 DUP1 PUSH1 0x1 DUP2 SLOAD ADD DUP1 DUP3 SSTORE DUP1 SWAP2 POP POP PUSH1 0x1 SWAP1 SUB SWAP1 PUSH1 0x0 MSTORE PUSH1 0x20 PUSH1 0x0 KECCAK256 ADD PUSH1 0x0 SWAP1 SWAP2 SWAP1 SWAP2 SWAP1 SWAP2 PUSH2 0x100 EXP DUP2 SLOAD DUP2 PUSH20 0xFFFFFFFFFFFFFFFFFFFFFFFFFFFFFFFFFFFFFFFF MUL NOT AND SWAP1 DUP4 PUSH20 0xFFFFFFFFFFFFFFFFFFFFFFFFFFFFFFFFFFFFFFFF AND MUL OR SWAP1 SSTORE POP DUP1 PUSH1 0x3 ADD PUSH1 0x4 DUP2 DUP2 SWAP1 SLOAD SWAP1 PUSH2 0x100 EXP SWAP1 DIV PUSH4 0xFFFFFFFF AND DUP1 SWAP3 SWAP2 SWAP1 PUSH2 0x5AA SWAP1 PUSH2 0x23EA JUMP JUMPDEST SWAP2 SWAP1 PUSH2 0x100 EXP DUP2 SLOAD DUP2 PUSH4 0xFFFFFFFF MUL NOT AND SWAP1 DUP4 PUSH4 0xFFFFFFFF AND MUL OR SWAP1 SSTORE POP POP PUSH32 0xC19C59AA93348E8FC54764BC642ECA975E2639F44CC683EF8F027E1529CBDA32 DUP4 PUSH1 0x40 MLOAD PUSH2 0x5F8 SWAP2 SWAP1 PUSH2 0x2417 JUMP JUMPDEST PUSH1 0x40 MLOAD DUP1 SWAP2 SUB SWAP1 LOG1 POP POP POP JUMP JUMPDEST PUSH2 0x60D PUSH2 0x1694 JUMP JUMPDEST PUSH1 0x3 PUSH1 0x0 DUP4 DUP2 MSTORE PUSH1 0x20 ADD SWAP1 DUP2 MSTORE PUSH1 0x20 ADD PUSH1 0x0 KECCAK256 PUSH1 0x40 MLOAD DUP1 PUSH1 0xC0 ADD PUSH1 0x40 MSTORE SWAP1 DUP2 PUSH1 0x0 DUP3 ADD DUP1 SLOAD PUSH2 0x63B SWAP1 PUSH2 0x2461 JUMP JUMPDEST DUP1 PUSH1 0x1F ADD PUSH1 0x20 DUP1 SWAP2 DIV MUL PUSH1 0x20 ADD PUSH1 0x40 MLOAD SWAP1 DUP2 ADD PUSH1 0x40 MSTORE DUP1 SWAP3 SWAP2 SWAP1 DUP2 DUP2 MSTORE PUSH1 0x20 ADD DUP3 DUP1 SLOAD PUSH2 0x667 SWAP1 PUSH2 0x2461 JUMP JUMPDEST DUP1 ISZERO PUSH2 0x6B4 JUMPI DUP1 PUSH1 0x1F LT PUSH2 0x689 JUMPI PUSH2 0x100 DUP1 DUP4 SLOAD DIV MUL DUP4 MSTORE SWAP2 PUSH1 0x20 ADD SWAP2 PUSH2 0x6B4 JUMP JUMPDEST DUP3 ADD SWAP2 SWAP1 PUSH1 0x0 MSTORE PUSH1 0x20 PUSH1 0x0 KECCAK256 SWAP1 JUMPDEST DUP2 SLOAD DUP2 MSTORE SWAP1 PUSH1 0x1 ADD SWAP1 PUSH1 0x20 ADD DUP1 DUP4 GT PUSH2 0x697 JUMPI DUP3 SWAP1 SUB PUSH1 0x1F AND DUP3 ADD SWAP2 JUMPDEST POP POP POP POP POP DUP2 MSTORE PUSH1 0x20 ADD PUSH1 0x1 DUP3 ADD PUSH1 0x0 SWAP1 SLOAD SWAP1 PUSH2 0x100 EXP SWAP1 DIV PUSH20 0xFFFFFFFFFFFFFFFFFFFFFFFFFFFFFFFFFFFFFFFF AND PUSH20 0xFFFFFFFFFFFFFFFFFFFFFFFFFFFFFFFFFFFFFFFF AND PUSH20 0xFFFFFFFFFFFFFFFFFFFFFFFFFFFFFFFFFFFFFFFF AND DUP2 MSTORE PUSH1 0x20 ADD PUSH1 0x2 DUP3 ADD DUP1 SLOAD DUP1 PUSH1 0x20 MUL PUSH1 0x20 ADD PUSH1 0x40 MLOAD SWAP1 DUP2 ADD PUSH1 0x40 MSTORE DUP1 SWAP3 SWAP2 SWAP1 DUP2 DUP2 MSTORE PUSH1 0x20 ADD DUP3 DUP1 SLOAD DUP1 ISZERO PUSH2 0x798 JUMPI PUSH1 0x20 MUL DUP3 ADD SWAP2 SWAP1 PUSH1 0x0 MSTORE PUSH1 0x20 PUSH1 0x0 KECCAK256 SWAP1 JUMPDEST DUP2 PUSH1 0x0 SWAP1 SLOAD SWAP1 PUSH2 0x100 EXP SWAP1 DIV PUSH20 0xFFFFFFFFFFFFFFFFFFFFFFFFFFFFFFFFFFFFFFFF AND PUSH20 0xFFFFFFFFFFFFFFFFFFFFFFFFFFFFFFFFFFFFFFFF AND DUP2 MSTORE PUSH1 0x20 ADD SWAP1 PUSH1 0x1 ADD SWAP1 DUP1 DUP4 GT PUSH2 0x74E JUMPI JUMPDEST POP POP POP POP POP DUP2 MSTORE PUSH1 0x20 ADD PUSH1 0x3 DUP3 ADD PUSH1 0x0 SWAP1 SLOAD SWAP1 PUSH2 0x100 EXP SWAP1 DIV PUSH4 0xFFFFFFFF AND PUSH4 0xFFFFFFFF AND PUSH4 0xFFFFFFFF AND DUP2 MSTORE PUSH1 0x20 ADD PUSH1 0x3 DUP3 ADD PUSH1 0x4 SWAP1 SLOAD SWAP1 PUSH2 0x100 EXP SWAP1 DIV PUSH4 0xFFFFFFFF AND PUSH4 0xFFFFFFFF AND PUSH4 0xFFFFFFFF AND DUP2 MSTORE PUSH1 0x20 ADD PUSH1 0x3 DUP3 ADD PUSH1 0x8 SWAP1 SLOAD SWAP1 PUSH2 0x100 EXP SWAP1 DIV PUSH1 0xFF AND ISZERO ISZERO ISZERO ISZERO DUP2 MSTORE POP POP SWAP1 POP SWAP2 SWAP1 POP JUMP JUMPDEST PUSH1 0x0 DUP1 PUSH1 0x3 PUSH1 0x0 DUP5 DUP2 MSTORE PUSH1 0x20 ADD SWAP1 DUP2 MSTORE PUSH1 0x20 ADD PUSH1 0x0 KECCAK256 SWAP1 POP DUP1 PUSH1 0x3 ADD PUSH1 0x4 SWAP1 SLOAD SWAP1 PUSH2 0x100 EXP SWAP1 DIV PUSH4 0xFFFFFFFF AND PUSH4 0xFFFFFFFF AND SWAP2 POP POP SWAP2 SWAP1 POP JUMP JUMPDEST PUSH1 0x4 PUSH1 0x20 MSTORE DUP1 PUSH1 0x0 MSTORE PUSH1 0x40 PUSH1 0x0 KECCAK256 PUSH1 0x0 SWAP2 POP SWAP1 POP SLOAD DUP2 JUMP JUMPDEST PUSH1 0x2 DUP2 DUP2 SLOAD DUP2 LT PUSH2 0x872 JUMPI PUSH1 0x0 DUP1 REVERT JUMPDEST SWAP1 PUSH1 0x0 MSTORE PUSH1 0x20 PUSH1 0x0 KECCAK256 SWAP1 PUSH1 0x4 MUL ADD PUSH1 0x0 SWAP2 POP SWAP1 POP DUP1 PUSH1 0x0 ADD DUP1 SLOAD PUSH2 0x895 SWAP1 PUSH2 0x2461 JUMP JUMPDEST DUP1 PUSH1 0x1F ADD PUSH1 0x20 DUP1 SWAP2 DIV MUL PUSH1 0x20 ADD PUSH1 0x40 MLOAD SWAP1 DUP2 ADD PUSH1 0x40 MSTORE DUP1 SWAP3 SWAP2 SWAP1 DUP2 DUP2 MSTORE PUSH1 0x20 ADD DUP3 DUP1 SLOAD PUSH2 0x8C1 SWAP1 PUSH2 0x2461 JUMP JUMPDEST DUP1 ISZERO PUSH2 0x90E JUMPI DUP1 PUSH1 0x1F LT PUSH2 0x8E3 JUMPI PUSH2 0x100 DUP1 DUP4 SLOAD DIV MUL DUP4 MSTORE SWAP2 PUSH1 0x20 ADD SWAP2 PUSH2 0x90E JUMP JUMPDEST DUP3 ADD SWAP2 SWAP1 PUSH1 0x0 MSTORE PUSH1 0x20 PUSH1 0x0 KECCAK256 SWAP1 JUMPDEST DUP2 SLOAD DUP2 MSTORE SWAP1 PUSH1 0x1 ADD SWAP1 PUSH1 0x20 ADD DUP1 DUP4 GT PUSH2 0x8F1 JUMPI DUP3 SWAP1 SUB PUSH1 0x1F AND DUP3 ADD SWAP2 JUMPDEST POP POP POP POP POP SWAP1 DUP1 PUSH1 0x1 ADD PUSH1 0x0 SWAP1 SLOAD SWAP1 PUSH2 0x100 EXP SWAP1 DIV PUSH20 0xFFFFFFFFFFFFFFFFFFFFFFFFFFFFFFFFFFFFFFFF AND SWAP1 DUP1 PUSH1 0x3 ADD PUSH1 0x0 SWAP1 SLOAD SWAP1 PUSH2 0x100 EXP SWAP1 DIV PUSH4 0xFFFFFFFF AND SWAP1 DUP1 PUSH1 0x3 ADD PUSH1 0x4 SWAP1 SLOAD SWAP1 PUSH2 0x100 EXP SWAP1 DIV PUSH4 0xFFFFFFFF AND SWAP1 DUP1 PUSH1 0x3 ADD PUSH1 0x8 SWAP1 SLOAD SWAP1 PUSH2 0x100 EXP SWAP1 DIV PUSH1 0xFF AND SWAP1 POP DUP6 JUMP JUMPDEST PUSH1 0x60 PUSH1 0x0 PUSH1 0x3 PUSH1 0x0 DUP5 DUP2 MSTORE PUSH1 0x20 ADD SWAP1 DUP2 MSTORE PUSH1 0x20 ADD PUSH1 0x0 KECCAK256 SWAP1 POP DUP1 PUSH1 0x2 ADD DUP1 SLOAD DUP1 PUSH1 0x20 MUL PUSH1 0x20 ADD PUSH1 0x40 MLOAD SWAP1 DUP2 ADD PUSH1 0x40 MSTORE DUP1 SWAP3 SWAP2 SWAP1 DUP2 DUP2 MSTORE PUSH1 0x20 ADD DUP3 DUP1 SLOAD DUP1 ISZERO PUSH2 0xA1A JUMPI PUSH1 0x20 MUL DUP3 ADD SWAP2 SWAP1 PUSH1 0x0 MSTORE PUSH1 0x20 PUSH1 0x0 KECCAK256 SWAP1 JUMPDEST DUP2 PUSH1 0x0 SWAP1 SLOAD SWAP1 PUSH2 0x100 EXP SWAP1 DIV PUSH20 0xFFFFFFFFFFFFFFFFFFFFFFFFFFFFFFFFFFFFFFFF AND PUSH20 0xFFFFFFFFFFFFFFFFFFFFFFFFFFFFFFFFFFFFFFFF AND DUP2 MSTORE PUSH1 0x20 ADD SWAP1 PUSH1 0x1 ADD SWAP1 DUP1 DUP4 GT PUSH2 0x9D0 JUMPI JUMPDEST POP POP POP POP POP SWAP2 POP POP SWAP2 SWAP1 POP JUMP JUMPDEST PUSH1 0x60 PUSH1 0x0 DUP1 PUSH1 0x0 PUSH1 0x3 PUSH1 0x0 DUP7 DUP2 MSTORE PUSH1 0x20 ADD SWAP1 DUP2 MSTORE PUSH1 0x20 ADD PUSH1 0x0 KECCAK256 SWAP1 POP PUSH1 0x0 PUSH20 0xFFFFFFFFFFFFFFFFFFFFFFFFFFFFFFFFFFFFFFFF AND DUP2 PUSH1 0x1 ADD PUSH1 0x0 SWAP1 SLOAD SWAP1 PUSH2 0x100 EXP SWAP1 DIV PUSH20 0xFFFFFFFFFFFFFFFFFFFFFFFFFFFFFFFFFFFFFFFF AND PUSH20 0xFFFFFFFFFFFFFFFFFFFFFFFFFFFFFFFFFFFFFFFF AND EQ ISZERO PUSH2 0xAD7 JUMPI PUSH1 0x40 MLOAD PUSH32 0x8C379A000000000000000000000000000000000000000000000000000000000 DUP2 MSTORE PUSH1 0x4 ADD PUSH2 0xACE SWAP1 PUSH2 0x24DF JUMP JUMPDEST PUSH1 0x40 MLOAD DUP1 SWAP2 SUB SWAP1 REVERT JUMPDEST DUP1 PUSH1 0x2 ADD DUP1 SLOAD SWAP1 POP PUSH8 0xFFFFFFFFFFFFFFFF DUP2 GT ISZERO PUSH2 0xAF8 JUMPI PUSH2 0xAF7 PUSH2 0x1E43 JUMP JUMPDEST JUMPDEST PUSH1 0x40 MLOAD SWAP1 DUP1 DUP3 MSTORE DUP1 PUSH1 0x20 MUL PUSH1 0x20 ADD DUP3 ADD PUSH1 0x40 MSTORE DUP1 ISZERO PUSH2 0xB26 JUMPI DUP2 PUSH1 0x20 ADD PUSH1 0x20 DUP3 MUL DUP1 CALLDATASIZE DUP4 CALLDATACOPY DUP1 DUP3 ADD SWAP2 POP POP SWAP1 POP JUMPDEST POP SWAP4 POP PUSH1 0x0 DUP1 PUSH1 0x0 JUMPDEST DUP4 PUSH1 0x2 ADD DUP1 SLOAD SWAP1 POP DUP2 LT ISZERO PUSH2 0xC5F JUMPI PUSH1 0x0 PUSH2 0xB4A DUP10 DUP4 PUSH2 0x13BE JUMP JUMPDEST SWAP1 POP DUP4 DUP2 GT ISZERO PUSH2 0xB9B JUMPI DUP1 SWAP4 POP DUP5 PUSH1 0x2 ADD DUP3 DUP2 SLOAD DUP2 LT PUSH2 0xB6D JUMPI PUSH2 0xB6C PUSH2 0x24FF JUMP JUMPDEST JUMPDEST SWAP1 PUSH1 0x0 MSTORE PUSH1 0x20 PUSH1 0x0 KECCAK256 ADD PUSH1 0x0 SWAP1 SLOAD SWAP1 PUSH2 0x100 EXP SWAP1 DIV PUSH20 0xFFFFFFFFFFFFFFFFFFFFFFFFFFFFFFFFFFFFFFFF AND SWAP3 POP JUMPDEST PUSH1 0x6 PUSH1 0x0 DUP11 DUP2 MSTORE PUSH1 0x20 ADD SWAP1 DUP2 MSTORE PUSH1 0x20 ADD PUSH1 0x0 KECCAK256 PUSH1 0x0 DUP7 PUSH1 0x2 ADD DUP5 DUP2 SLOAD DUP2 LT PUSH2 0xBC6 JUMPI PUSH2 0xBC5 PUSH2 0x24FF JUMP JUMPDEST JUMPDEST SWAP1 PUSH1 0x0 MSTORE PUSH1 0x20 PUSH1 0x0 KECCAK256 ADD PUSH1 0x0 SWAP1 SLOAD SWAP1 PUSH2 0x100 EXP SWAP1 DIV PUSH20 0xFFFFFFFFFFFFFFFFFFFFFFFFFFFFFFFFFFFFFFFF AND PUSH20 0xFFFFFFFFFFFFFFFFFFFFFFFFFFFFFFFFFFFFFFFF AND PUSH20 0xFFFFFFFFFFFFFFFFFFFFFFFFFFFFFFFFFFFFFFFF AND DUP2 MSTORE PUSH1 0x20 ADD SWAP1 DUP2 MSTORE PUSH1 0x20 ADD PUSH1 0x0 KECCAK256 SLOAD DUP9 DUP4 DUP2 MLOAD DUP2 LT PUSH2 0xC3F JUMPI PUSH2 0xC3E PUSH2 0x24FF JUMP JUMPDEST JUMPDEST PUSH1 0x20 MUL PUSH1 0x20 ADD ADD DUP2 DUP2 MSTORE POP POP POP DUP1 DUP1 PUSH2 0xC57 SWAP1 PUSH2 0x252E JUMP JUMPDEST SWAP2 POP POP PUSH2 0xB2F JUMP JUMPDEST POP DUP6 DUP2 DUP4 SWAP6 POP SWAP6 POP SWAP6 POP POP POP POP SWAP2 SWAP4 SWAP1 SWAP3 POP JUMP JUMPDEST PUSH1 0x1 DUP2 DUP2 SLOAD DUP2 LT PUSH2 0xC83 JUMPI PUSH1 0x0 DUP1 REVERT JUMPDEST SWAP1 PUSH1 0x0 MSTORE PUSH1 0x20 PUSH1 0x0 KECCAK256 ADD PUSH1 0x0 SWAP2 POP SWAP1 POP SLOAD DUP2 JUMP JUMPDEST PUSH1 0x0 ADDRESS DUP6 DUP6 DUP6 DUP6 PUSH1 0x40 MLOAD PUSH1 0x20 ADD PUSH2 0xCB2 SWAP6 SWAP5 SWAP4 SWAP3 SWAP2 SWAP1 PUSH2 0x2637 JUMP JUMPDEST PUSH1 0x40 MLOAD PUSH1 0x20 DUP2 DUP4 SUB SUB DUP2 MSTORE SWAP1 PUSH1 0x40 MSTORE DUP1 MLOAD SWAP1 PUSH1 0x20 ADD KECCAK256 SWAP1 POP SWAP5 SWAP4 POP POP POP POP JUMP JUMPDEST DUP4 DUP4 PUSH1 0x1 ISZERO ISZERO PUSH1 0x5 PUSH1 0x0 DUP4 DUP2 MSTORE PUSH1 0x20 ADD SWAP1 DUP2 MSTORE PUSH1 0x20 ADD PUSH1 0x0 KECCAK256 PUSH1 0x0 DUP5 PUSH20 0xFFFFFFFFFFFFFFFFFFFFFFFFFFFFFFFFFFFFFFFF AND PUSH20 0xFFFFFFFFFFFFFFFFFFFFFFFFFFFFFFFFFFFFFFFF AND DUP2 MSTORE PUSH1 0x20 ADD SWAP1 DUP2 MSTORE PUSH1 0x20 ADD PUSH1 0x0 KECCAK256 PUSH1 0x0 SWAP1 SLOAD SWAP1 PUSH2 0x100 EXP SWAP1 DIV PUSH1 0xFF AND ISZERO ISZERO EQ PUSH2 0xD78 JUMPI PUSH1 0x40 MLOAD PUSH32 0x8C379A000000000000000000000000000000000000000000000000000000000 DUP2 MSTORE PUSH1 0x4 ADD PUSH2 0xD6F SWAP1 PUSH2 0x2713 JUMP JUMPDEST PUSH1 0x40 MLOAD DUP1 SWAP2 SUB SWAP1 REVERT JUMPDEST DUP5 PUSH1 0x0 PUSH1 0x3 PUSH1 0x0 DUP4 DUP2 MSTORE PUSH1 0x20 ADD SWAP1 DUP2 MSTORE PUSH1 0x20 ADD PUSH1 0x0 KECCAK256 SWAP1 POP PUSH1 0x1 ISZERO ISZERO DUP2 PUSH1 0x3 ADD PUSH1 0x8 SWAP1 SLOAD SWAP1 PUSH2 0x100 EXP SWAP1 DIV PUSH1 0xFF AND ISZERO ISZERO EQ PUSH2 0xDE8 JUMPI PUSH1 0x40 MLOAD PUSH32 0x8C379A000000000000000000000000000000000000000000000000000000000 DUP2 MSTORE PUSH1 0x4 ADD PUSH2 0xDDF SWAP1 PUSH2 0x277F JUMP JUMPDEST PUSH1 0x40 MLOAD DUP1 SWAP2 SUB SWAP1 REVERT JUMPDEST PUSH1 0x0 PUSH2 0xDF6 DUP10 DUP10 DUP10 TIMESTAMP PUSH2 0xC97 JUMP JUMPDEST SWAP1 POP PUSH1 0x0 PUSH2 0xE04 DUP3 DUP9 PUSH2 0x1470 JUMP JUMPDEST SWAP1 POP PUSH1 0x0 PUSH20 0xFFFFFFFFFFFFFFFFFFFFFFFFFFFFFFFFFFFFFFFF AND DUP2 PUSH20 0xFFFFFFFFFFFFFFFFFFFFFFFFFFFFFFFFFFFFFFFF AND EQ ISZERO PUSH2 0xE40 JUMPI PUSH1 0x0 DUP1 REVERT JUMPDEST PUSH1 0x4 PUSH1 0x0 DUP3 PUSH20 0xFFFFFFFFFFFFFFFFFFFFFFFFFFFFFFFFFFFFFFFF AND PUSH20 0xFFFFFFFFFFFFFFFFFFFFFFFFFFFFFFFFFFFFFFFF AND DUP2 MSTORE PUSH1 0x20 ADD SWAP1 DUP2 MSTORE PUSH1 0x20 ADD PUSH1 0x0 KECCAK256 SLOAD DUP9 EQ PUSH2 0xE8B JUMPI PUSH1 0x0 DUP1 REVERT JUMPDEST PUSH1 0x4 PUSH1 0x0 DUP3 PUSH20 0xFFFFFFFFFFFFFFFFFFFFFFFFFFFFFFFFFFFFFFFF AND PUSH20 0xFFFFFFFFFFFFFFFFFFFFFFFFFFFFFFFFFFFFFFFF AND DUP2 MSTORE PUSH1 0x20 ADD SWAP1 DUP2 MSTORE PUSH1 0x20 ADD PUSH1 0x0 KECCAK256 PUSH1 0x0 DUP2 SLOAD DUP1 SWAP3 SWAP2 SWAP1 PUSH2 0xEDB SWAP1 PUSH2 0x252E JUMP JUMPDEST SWAP2 SWAP1 POP SSTORE POP PUSH1 0x0 ISZERO ISZERO PUSH1 0x7 PUSH1 0x0 DUP12 DUP2 MSTORE PUSH1 0x20 ADD SWAP1 DUP2 MSTORE PUSH1 0x20 ADD PUSH1 0x0 KECCAK256 PUSH1 0x0 DUP4 PUSH20 0xFFFFFFFFFFFFFFFFFFFFFFFFFFFFFFFFFFFFFFFF AND PUSH20 0xFFFFFFFFFFFFFFFFFFFFFFFFFFFFFFFFFFFFFFFF AND DUP2 MSTORE PUSH1 0x20 ADD SWAP1 DUP2 MSTORE PUSH1 0x20 ADD PUSH1 0x0 KECCAK256 PUSH1 0x0 SWAP1 SLOAD SWAP1 PUSH2 0x100 EXP SWAP1 DIV PUSH1 0xFF AND ISZERO ISZERO EQ PUSH2 0xF84 JUMPI PUSH1 0x40 MLOAD PUSH32 0x8C379A000000000000000000000000000000000000000000000000000000000 DUP2 MSTORE PUSH1 0x4 ADD PUSH2 0xF7B SWAP1 PUSH2 0x27EB JUMP JUMPDEST PUSH1 0x40 MLOAD DUP1 SWAP2 SUB SWAP1 REVERT JUMPDEST PUSH2 0xF8F DUP11 DUP11 DUP4 PUSH2 0x1569 JUMP JUMPDEST POP PUSH32 0xF3F16A15F074B71C5138107DFC7C63B80524D5411CB967CAA97D8D9F12B2FD6B DUP11 PUSH1 0x1 PUSH1 0x40 MLOAD PUSH2 0xFC2 SWAP3 SWAP2 SWAP1 PUSH2 0x280B JUMP JUMPDEST PUSH1 0x40 MLOAD DUP1 SWAP2 SUB SWAP1 LOG1 POP POP POP POP POP POP POP POP POP POP JUMP JUMPDEST PUSH1 0x0 PUSH1 0x3 PUSH1 0x0 DUP4 DUP2 MSTORE PUSH1 0x20 ADD SWAP1 DUP2 MSTORE PUSH1 0x20 ADD PUSH1 0x0 KECCAK256 SWAP1 POP CALLER PUSH20 0xFFFFFFFFFFFFFFFFFFFFFFFFFFFFFFFFFFFFFFFF AND DUP2 PUSH1 0x1 ADD PUSH1 0x0 SWAP1 SLOAD SWAP1 PUSH2 0x100 EXP SWAP1 DIV PUSH20 0xFFFFFFFFFFFFFFFFFFFFFFFFFFFFFFFFFFFFFFFF AND PUSH20 0xFFFFFFFFFFFFFFFFFFFFFFFFFFFFFFFFFFFFFFFF AND EQ PUSH2 0x107F JUMPI PUSH1 0x40 MLOAD PUSH32 0x8C379A000000000000000000000000000000000000000000000000000000000 DUP2 MSTORE PUSH1 0x4 ADD PUSH2 0x1076 SWAP1 PUSH2 0x2880 JUMP JUMPDEST PUSH1 0x40 MLOAD DUP1 SWAP2 SUB SWAP1 REVERT JUMPDEST DUP1 PUSH1 0x3 ADD PUSH1 0x8 SWAP1 SLOAD SWAP1 PUSH2 0x100 EXP SWAP1 DIV PUSH1 0xFF AND ISZERO DUP2 PUSH1 0x3 ADD PUSH1 0x8 PUSH2 0x100 EXP DUP2 SLOAD DUP2 PUSH1 0xFF MUL NOT AND SWAP1 DUP4 ISZERO ISZERO MUL OR SWAP1 SSTORE POP DUP1 PUSH1 0x3 ADD PUSH1 0x8 SWAP1 SLOAD SWAP1 PUSH2 0x100 EXP SWAP1 DIV PUSH1 0xFF AND ISZERO ISZERO PUSH32 0x7B224DB641892626DCA6975B376F464E9AC52CCFA180436175170C009B94DCD7 PUSH1 0x40 MLOAD PUSH1 0x40 MLOAD DUP1 SWAP2 SUB SWAP1 LOG2 POP POP JUMP JUMPDEST PUSH1 0x3 PUSH1 0x20 MSTORE DUP1 PUSH1 0x0 MSTORE PUSH1 0x40 PUSH1 0x0 KECCAK256 PUSH1 0x0 SWAP2 POP SWAP1 POP DUP1 PUSH1 0x0 ADD DUP1 SLOAD PUSH2 0x1114 SWAP1 PUSH2 0x2461 JUMP JUMPDEST DUP1 PUSH1 0x1F ADD PUSH1 0x20 DUP1 SWAP2 DIV MUL PUSH1 0x20 ADD PUSH1 0x40 MLOAD SWAP1 DUP2 ADD PUSH1 0x40 MSTORE DUP1 SWAP3 SWAP2 SWAP1 DUP2 DUP2 MSTORE PUSH1 0x20 ADD DUP3 DUP1 SLOAD PUSH2 0x1140 SWAP1 PUSH2 0x2461 JUMP JUMPDEST DUP1 ISZERO PUSH2 0x118D JUMPI DUP1 PUSH1 0x1F LT PUSH2 0x1162 JUMPI PUSH2 0x100 DUP1 DUP4 SLOAD DIV MUL DUP4 MSTORE SWAP2 PUSH1 0x20 ADD SWAP2 PUSH2 0x118D JUMP JUMPDEST DUP3 ADD SWAP2 SWAP1 PUSH1 0x0 MSTORE PUSH1 0x20 PUSH1 0x0 KECCAK256 SWAP1 JUMPDEST DUP2 SLOAD DUP2 MSTORE SWAP1 PUSH1 0x1 ADD SWAP1 PUSH1 0x20 ADD DUP1 DUP4 GT PUSH2 0x1170 JUMPI DUP3 SWAP1 SUB PUSH1 0x1F AND DUP3 ADD SWAP2 JUMPDEST POP POP POP POP POP SWAP1 DUP1 PUSH1 0x1 ADD PUSH1 0x0 SWAP1 SLOAD SWAP1 PUSH2 0x100 EXP SWAP1 DIV PUSH20 0xFFFFFFFFFFFFFFFFFFFFFFFFFFFFFFFFFFFFFFFF AND SWAP1 DUP1 PUSH1 0x3 ADD PUSH1 0x0 SWAP1 SLOAD SWAP1 PUSH2 0x100 EXP SWAP1 DIV PUSH4 0xFFFFFFFF AND SWAP1 DUP1 PUSH1 0x3 ADD PUSH1 0x4 SWAP1 SLOAD SWAP1 PUSH2 0x100 EXP SWAP1 DIV PUSH4 0xFFFFFFFF AND SWAP1 DUP1 PUSH1 0x3 ADD PUSH1 0x8 SWAP1 SLOAD SWAP1 PUSH2 0x100 EXP SWAP1 DIV PUSH1 0xFF AND SWAP1 POP DUP6 JUMP JUMPDEST PUSH1 0x0 PUSH1 0x3 PUSH1 0x0 DUP1 SLOAD DUP2 MSTORE PUSH1 0x20 ADD SWAP1 DUP2 MSTORE PUSH1 0x20 ADD PUSH1 0x0 KECCAK256 SWAP1 POP DUP3 DUP2 PUSH1 0x0 ADD SWAP1 DUP1 MLOAD SWAP1 PUSH1 0x20 ADD SWAP1 PUSH2 0x122C SWAP3 SWAP2 SWAP1 PUSH2 0x16EE JUMP JUMPDEST POP CALLER DUP2 PUSH1 0x1 ADD PUSH1 0x0 PUSH2 0x100 EXP DUP2 SLOAD DUP2 PUSH20 0xFFFFFFFFFFFFFFFFFFFFFFFFFFFFFFFFFFFFFFFF MUL NOT AND SWAP1 DUP4 PUSH20 0xFFFFFFFFFFFFFFFFFFFFFFFFFFFFFFFFFFFFFFFF AND MUL OR SWAP1 SSTORE POP DUP2 DUP2 PUSH1 0x3 ADD PUSH1 0x0 PUSH2 0x100 EXP DUP2 SLOAD DUP2 PUSH4 0xFFFFFFFF MUL NOT AND SWAP1 DUP4 PUSH4 0xFFFFFFFF AND MUL OR SWAP1 SSTORE POP PUSH1 0x1 PUSH1 0x0 SLOAD SWAP1 DUP1 PUSH1 0x1 DUP2 SLOAD ADD DUP1 DUP3 SSTORE DUP1 SWAP2 POP POP PUSH1 0x1 SWAP1 SUB SWAP1 PUSH1 0x0 MSTORE PUSH1 0x20 PUSH1 0x0 KECCAK256 ADD PUSH1 0x0 SWAP1 SWAP2 SWAP1 SWAP2 SWAP1 SWAP2 POP SSTORE PUSH1 0x0 SLOAD DUP2 PUSH1 0x3 ADD PUSH1 0x0 SWAP1 SLOAD SWAP1 PUSH2 0x100 EXP SWAP1 DIV PUSH4 0xFFFFFFFF AND PUSH4 0xFFFFFFFF AND DUP5 PUSH1 0x40 MLOAD PUSH2 0x12EA SWAP2 SWAP1 PUSH2 0x28D1 JUMP JUMPDEST PUSH1 0x40 MLOAD DUP1 SWAP2 SUB SWAP1 KECCAK256 PUSH32 0xD4D0D9A1EF7F13069F1BADE752FDA515713D747EB14A8C30AE461C52916BF1C7 PUSH1 0x40 MLOAD PUSH1 0x40 MLOAD DUP1 SWAP2 SUB SWAP1 LOG4 PUSH1 0x0 DUP1 DUP2 SLOAD DUP1 SWAP3 SWAP2 SWAP1 PUSH2 0x1330 SWAP1 PUSH2 0x252E JUMP JUMPDEST SWAP2 SWAP1 POP SSTORE POP POP POP POP JUMP JUMPDEST PUSH1 0x60 PUSH1 0x1 DUP1 SLOAD SWAP1 POP PUSH8 0xFFFFFFFFFFFFFFFF DUP2 GT ISZERO PUSH2 0x135B JUMPI PUSH2 0x135A PUSH2 0x1E43 JUMP JUMPDEST JUMPDEST PUSH1 0x40 MLOAD SWAP1 DUP1 DUP3 MSTORE DUP1 PUSH1 0x20 MUL PUSH1 0x20 ADD DUP3 ADD PUSH1 0x40 MSTORE DUP1 ISZERO PUSH2 0x1394 JUMPI DUP2 PUSH1 0x20 ADD JUMPDEST PUSH2 0x1381 PUSH2 0x1694 JUMP JUMPDEST DUP2 MSTORE PUSH1 0x20 ADD SWAP1 PUSH1 0x1 SWAP1 SUB SWAP1 DUP2 PUSH2 0x1379 JUMPI SWAP1 POP JUMPDEST POP SWAP1 POP PUSH1 0x0 JUMPDEST PUSH1 0x1 DUP1 SLOAD SWAP1 POP DUP2 LT ISZERO PUSH2 0x13BA JUMPI DUP1 DUP1 PUSH2 0x13B2 SWAP1 PUSH2 0x252E JUMP JUMPDEST SWAP2 POP POP PUSH2 0x139A JUMP JUMPDEST POP SWAP1 JUMP JUMPDEST PUSH1 0x0 DUP1 PUSH1 0x3 PUSH1 0x0 DUP6 DUP2 MSTORE PUSH1 0x20 ADD SWAP1 DUP2 MSTORE PUSH1 0x20 ADD PUSH1 0x0 KECCAK256 SWAP1 POP PUSH1 0x6 PUSH1 0x0 DUP6 DUP2 MSTORE PUSH1 0x20 ADD SWAP1 DUP2 MSTORE PUSH1 0x20 ADD PUSH1 0x0 KECCAK256 PUSH1 0x0 DUP3 PUSH1 0x2 ADD DUP6 DUP2 SLOAD DUP2 LT PUSH2 0x1401 JUMPI PUSH2 0x1400 PUSH2 0x24FF JUMP JUMPDEST JUMPDEST SWAP1 PUSH1 0x0 MSTORE PUSH1 0x20 PUSH1 0x0 KECCAK256 ADD PUSH1 0x0 SWAP1 SLOAD SWAP1 PUSH2 0x100 EXP SWAP1 DIV PUSH20 0xFFFFFFFFFFFFFFFFFFFFFFFFFFFFFFFFFFFFFFFF AND PUSH20 0xFFFFFFFFFFFFFFFFFFFFFFFFFFFFFFFFFFFFFFFF AND PUSH20 0xFFFFFFFFFFFFFFFFFFFFFFFFFFFFFFFFFFFFFFFF AND DUP2 MSTORE PUSH1 0x20 ADD SWAP1 DUP2 MSTORE PUSH1 0x20 ADD PUSH1 0x0 KECCAK256 SLOAD SWAP2 POP POP SWAP3 SWAP2 POP POP JUMP JUMPDEST PUSH1 0x0 DUP1 PUSH1 0x0 DUP1 PUSH1 0x41 DUP6 MLOAD EQ PUSH2 0x148B JUMPI PUSH1 0x0 SWAP4 POP POP POP POP PUSH2 0x1563 JUMP JUMPDEST PUSH1 0x20 DUP6 ADD MLOAD SWAP3 POP PUSH1 0x40 DUP6 ADD MLOAD SWAP2 POP PUSH1 0x60 DUP6 ADD MLOAD PUSH1 0x0 BYTE SWAP1 POP PUSH1 0x1B DUP2 PUSH1 0xFF AND LT ISZERO PUSH2 0x14BF JUMPI PUSH1 0x1B DUP2 PUSH2 0x14BC SWAP2 SWAP1 PUSH2 0x28F5 JUMP JUMPDEST SWAP1 POP JUMPDEST PUSH1 0x1B DUP2 PUSH1 0xFF AND EQ ISZERO DUP1 ISZERO PUSH2 0x14D7 JUMPI POP PUSH1 0x1C DUP2 PUSH1 0xFF AND EQ ISZERO JUMPDEST ISZERO PUSH2 0x14E8 JUMPI PUSH1 0x0 SWAP4 POP POP POP POP PUSH2 0x1563 JUMP JUMPDEST PUSH1 0x1 DUP7 PUSH1 0x40 MLOAD PUSH1 0x20 ADD PUSH2 0x14FB SWAP2 SWAP1 PUSH2 0x2999 JUMP JUMPDEST PUSH1 0x40 MLOAD PUSH1 0x20 DUP2 DUP4 SUB SUB DUP2 MSTORE SWAP1 PUSH1 0x40 MSTORE DUP1 MLOAD SWAP1 PUSH1 0x20 ADD KECCAK256 DUP3 DUP6 DUP6 PUSH1 0x40 MLOAD PUSH1 0x0 DUP2 MSTORE PUSH1 0x20 ADD PUSH1 0x40 MSTORE PUSH1 0x40 MLOAD PUSH2 0x1531 SWAP5 SWAP4 SWAP3 SWAP2 SWAP1 PUSH2 0x29CE JUMP JUMPDEST PUSH1 0x20 PUSH1 0x40 MLOAD PUSH1 0x20 DUP2 SUB SWAP1 DUP1 DUP5 SUB SWAP1 DUP6 GAS STATICCALL ISZERO DUP1 ISZERO PUSH2 0x1553 JUMPI RETURNDATASIZE PUSH1 0x0 DUP1 RETURNDATACOPY RETURNDATASIZE PUSH1 0x0 REVERT JUMPDEST POP POP POP PUSH1 0x20 PUSH1 0x40 MLOAD SUB MLOAD SWAP4 POP POP POP POP JUMPDEST SWAP3 SWAP2 POP POP JUMP JUMPDEST PUSH1 0x0 PUSH1 0x1 PUSH1 0x7 PUSH1 0x0 DUP6 DUP2 MSTORE PUSH1 0x20 ADD SWAP1 DUP2 MSTORE PUSH1 0x20 ADD PUSH1 0x0 KECCAK256 PUSH1 0x0 DUP5 PUSH20 0xFFFFFFFFFFFFFFFFFFFFFFFFFFFFFFFFFFFFFFFF AND PUSH20 0xFFFFFFFFFFFFFFFFFFFFFFFFFFFFFFFFFFFFFFFF AND DUP2 MSTORE PUSH1 0x20 ADD SWAP1 DUP2 MSTORE PUSH1 0x20 ADD PUSH1 0x0 KECCAK256 PUSH1 0x0 PUSH2 0x100 EXP DUP2 SLOAD DUP2 PUSH1 0xFF MUL NOT AND SWAP1 DUP4 ISZERO ISZERO MUL OR SWAP1 SSTORE POP PUSH1 0x6 PUSH1 0x0 DUP5 DUP2 MSTORE PUSH1 0x20 ADD SWAP1 DUP2 MSTORE PUSH1 0x20 ADD PUSH1 0x0 KECCAK256 PUSH1 0x0 DUP6 PUSH20 0xFFFFFFFFFFFFFFFFFFFFFFFFFFFFFFFFFFFFFFFF AND PUSH20 0xFFFFFFFFFFFFFFFFFFFFFFFFFFFFFFFFFFFFFFFF AND DUP2 MSTORE PUSH1 0x20 ADD SWAP1 DUP2 MSTORE PUSH1 0x20 ADD PUSH1 0x0 KECCAK256 PUSH1 0x0 DUP2 SLOAD DUP1 SWAP3 SWAP2 SWAP1 PUSH2 0x1635 SWAP1 PUSH2 0x252E JUMP JUMPDEST SWAP2 SWAP1 POP SSTORE POP PUSH1 0x6 PUSH1 0x0 DUP5 DUP2 MSTORE PUSH1 0x20 ADD SWAP1 DUP2 MSTORE PUSH1 0x20 ADD PUSH1 0x0 KECCAK256 PUSH1 0x0 DUP6 PUSH20 0xFFFFFFFFFFFFFFFFFFFFFFFFFFFFFFFFFFFFFFFF AND PUSH20 0xFFFFFFFFFFFFFFFFFFFFFFFFFFFFFFFFFFFFFFFF AND DUP2 MSTORE PUSH1 0x20 ADD SWAP1 DUP2 MSTORE PUSH1 0x20 ADD PUSH1 0x0 KECCAK256 SLOAD SWAP1 POP SWAP4 SWAP3 POP POP POP JUMP JUMPDEST PUSH1 0x40 MLOAD DUP1 PUSH1 0xC0 ADD PUSH1 0x40 MSTORE DUP1 PUSH1 0x60 DUP2 MSTORE PUSH1 0x20 ADD PUSH1 0x0 PUSH20 0xFFFFFFFFFFFFFFFFFFFFFFFFFFFFFFFFFFFFFFFF AND DUP2 MSTORE PUSH1 0x20 ADD PUSH1 0x60 DUP2 MSTORE PUSH1 0x20 ADD PUSH1 0x0 PUSH4 0xFFFFFFFF AND DUP2 MSTORE PUSH1 0x20 ADD PUSH1 0x0 PUSH4 0xFFFFFFFF AND DUP2 MSTORE PUSH1 0x20 ADD PUSH1 0x0 ISZERO ISZERO DUP2 MSTORE POP SWAP1 JUMP JUMPDEST DUP3 DUP1 SLOAD PUSH2 0x16FA SWAP1 PUSH2 0x2461 JUMP JUMPDEST SWAP1 PUSH1 0x0 MSTORE PUSH1 0x20 PUSH1 0x0 KECCAK256 SWAP1 PUSH1 0x1F ADD PUSH1 0x20 SWAP1 DIV DUP2 ADD SWAP3 DUP3 PUSH2 0x171C JUMPI PUSH1 0x0 DUP6 SSTORE PUSH2 0x1763 JUMP JUMPDEST DUP3 PUSH1 0x1F LT PUSH2 0x1735 JUMPI DUP1 MLOAD PUSH1 0xFF NOT AND DUP4 DUP1 ADD OR DUP6 SSTORE PUSH2 0x1763 JUMP JUMPDEST DUP3 DUP1 ADD PUSH1 0x1 ADD DUP6 SSTORE DUP3 ISZERO PUSH2 0x1763 JUMPI SWAP2 DUP3 ADD JUMPDEST DUP3 DUP2 GT ISZERO PUSH2 0x1762 JUMPI DUP3 MLOAD DUP3 SSTORE SWAP2 PUSH1 0x20 ADD SWAP2 SWAP1 PUSH1 0x1 ADD SWAP1 PUSH2 0x1747 JUMP JUMPDEST JUMPDEST POP SWAP1 POP PUSH2 0x1770 SWAP2 SWAP1 PUSH2 0x1774 JUMP JUMPDEST POP SWAP1 JUMP JUMPDEST JUMPDEST DUP1 DUP3 GT ISZERO PUSH2 0x178D JUMPI PUSH1 0x0 DUP2 PUSH1 0x0 SWAP1 SSTORE POP PUSH1 0x1 ADD PUSH2 0x1775 JUMP JUMPDEST POP SWAP1 JUMP JUMPDEST PUSH1 0x0 PUSH1 0x40 MLOAD SWAP1 POP SWAP1 JUMP JUMPDEST PUSH1 0x0 DUP1 REVERT JUMPDEST PUSH1 0x0 DUP1 REVERT JUMPDEST PUSH1 0x0 PUSH20 0xFFFFFFFFFFFFFFFFFFFFFFFFFFFFFFFFFFFFFFFF DUP3 AND SWAP1 POP SWAP2 SWAP1 POP JUMP JUMPDEST PUSH1 0x0 PUSH2 0x17D0 DUP3 PUSH2 0x17A5 JUMP JUMPDEST SWAP1 POP SWAP2 SWAP1 POP JUMP JUMPDEST PUSH2 0x17E0 DUP2 PUSH2 0x17C5 JUMP JUMPDEST DUP2 EQ PUSH2 0x17EB JUMPI PUSH1 0x0 DUP1 REVERT JUMPDEST POP JUMP JUMPDEST PUSH1 0x0 DUP2 CALLDATALOAD SWAP1 POP PUSH2 0x17FD DUP2 PUSH2 0x17D7 JUMP JUMPDEST SWAP3 SWAP2 POP POP JUMP JUMPDEST PUSH1 0x0 DUP2 SWAP1 POP SWAP2 SWAP1 POP JUMP JUMPDEST PUSH2 0x1816 DUP2 PUSH2 0x1803 JUMP JUMPDEST DUP2 EQ PUSH2 0x1821 JUMPI PUSH1 0x0 DUP1 REVERT JUMPDEST POP JUMP JUMPDEST PUSH1 0x0 DUP2 CALLDATALOAD SWAP1 POP PUSH2 0x1833 DUP2 PUSH2 0x180D JUMP JUMPDEST SWAP3 SWAP2 POP POP JUMP JUMPDEST PUSH1 0x0 DUP1 PUSH1 0x40 DUP4 DUP6 SUB SLT ISZERO PUSH2 0x1850 JUMPI PUSH2 0x184F PUSH2 0x179B JUMP JUMPDEST JUMPDEST PUSH1 0x0 PUSH2 0x185E DUP6 DUP3 DUP7 ADD PUSH2 0x17EE JUMP JUMPDEST SWAP3 POP POP PUSH1 0x20 PUSH2 0x186F DUP6 DUP3 DUP7 ADD PUSH2 0x1824 JUMP JUMPDEST SWAP2 POP POP SWAP3 POP SWAP3 SWAP1 POP JUMP JUMPDEST PUSH1 0x0 PUSH1 0x20 DUP3 DUP5 SUB SLT ISZERO PUSH2 0x188F JUMPI PUSH2 0x188E PUSH2 0x179B JUMP JUMPDEST JUMPDEST PUSH1 0x0 PUSH2 0x189D DUP5 DUP3 DUP6 ADD PUSH2 0x1824 JUMP JUMPDEST SWAP2 POP POP SWAP3 SWAP2 POP POP JUMP JUMPDEST PUSH1 0x0 DUP2 MLOAD SWAP1 POP SWAP2 SWAP1 POP JUMP JUMPDEST PUSH1 0x0 DUP3 DUP3 MSTORE PUSH1 0x20 DUP3 ADD SWAP1 POP SWAP3 SWAP2 POP POP JUMP JUMPDEST PUSH1 0x0 JUMPDEST DUP4 DUP2 LT ISZERO PUSH2 0x18E0 JUMPI DUP1 DUP3 ADD MLOAD DUP2 DUP5 ADD MSTORE PUSH1 0x20 DUP2 ADD SWAP1 POP PUSH2 0x18C5 JUMP JUMPDEST DUP4 DUP2 GT ISZERO PUSH2 0x18EF JUMPI PUSH1 0x0 DUP5 DUP5 ADD MSTORE JUMPDEST POP POP POP POP JUMP JUMPDEST PUSH1 0x0 PUSH1 0x1F NOT PUSH1 0x1F DUP4 ADD AND SWAP1 POP SWAP2 SWAP1 POP JUMP JUMPDEST PUSH1 0x0 PUSH2 0x1911 DUP3 PUSH2 0x18A6 JUMP JUMPDEST PUSH2 0x191B DUP2 DUP6 PUSH2 0x18B1 JUMP JUMPDEST SWAP4 POP PUSH2 0x192B DUP2 DUP6 PUSH1 0x20 DUP7 ADD PUSH2 0x18C2 JUMP JUMPDEST PUSH2 0x1934 DUP2 PUSH2 0x18F5 JUMP JUMPDEST DUP5 ADD SWAP2 POP POP SWAP3 SWAP2 POP POP JUMP JUMPDEST PUSH2 0x1948 DUP2 PUSH2 0x17C5 JUMP JUMPDEST DUP3 MSTORE POP POP JUMP JUMPDEST PUSH1 0x0 DUP2 MLOAD SWAP1 POP SWAP2 SWAP1 POP JUMP JUMPDEST PUSH1 0x0 DUP3 DUP3 MSTORE PUSH1 0x20 DUP3 ADD SWAP1 POP SWAP3 SWAP2 POP POP JUMP JUMPDEST PUSH1 0x0 DUP2 SWAP1 POP PUSH1 0x20 DUP3 ADD SWAP1 POP SWAP2 SWAP1 POP JUMP JUMPDEST PUSH1 0x0 PUSH2 0x1986 DUP4 DUP4 PUSH2 0x193F JUMP JUMPDEST PUSH1 0x20 DUP4 ADD SWAP1 POP SWAP3 SWAP2 POP POP JUMP JUMPDEST PUSH1 0x0 PUSH1 0x20 DUP3 ADD SWAP1 POP SWAP2 SWAP1 POP JUMP JUMPDEST PUSH1 0x0 PUSH2 0x19AA DUP3 PUSH2 0x194E JUMP JUMPDEST PUSH2 0x19B4 DUP2 DUP6 PUSH2 0x1959 JUMP JUMPDEST SWAP4 POP PUSH2 0x19BF DUP4 PUSH2 0x196A JUMP JUMPDEST DUP1 PUSH1 0x0 JUMPDEST DUP4 DUP2 LT ISZERO PUSH2 0x19F0 JUMPI DUP2 MLOAD PUSH2 0x19D7 DUP9 DUP3 PUSH2 0x197A JUMP JUMPDEST SWAP8 POP PUSH2 0x19E2 DUP4 PUSH2 0x1992 JUMP JUMPDEST SWAP3 POP POP PUSH1 0x1 DUP2 ADD SWAP1 POP PUSH2 0x19C3 JUMP JUMPDEST POP DUP6 SWAP4 POP POP POP POP SWAP3 SWAP2 POP POP JUMP JUMPDEST PUSH1 0x0 PUSH4 0xFFFFFFFF DUP3 AND SWAP1 POP SWAP2 SWAP1 POP JUMP JUMPDEST PUSH2 0x1A16 DUP2 PUSH2 0x19FD JUMP JUMPDEST DUP3 MSTORE POP POP JUMP JUMPDEST PUSH1 0x0 DUP2 ISZERO ISZERO SWAP1 POP SWAP2 SWAP1 POP JUMP JUMPDEST PUSH2 0x1A31 DUP2 PUSH2 0x1A1C JUMP JUMPDEST DUP3 MSTORE POP POP JUMP JUMPDEST PUSH1 0x0 PUSH1 0xC0 DUP4 ADD PUSH1 0x0 DUP4 ADD MLOAD DUP5 DUP3 SUB PUSH1 0x0 DUP7 ADD MSTORE PUSH2 0x1A54 DUP3 DUP3 PUSH2 0x1906 JUMP JUMPDEST SWAP2 POP POP PUSH1 0x20 DUP4 ADD MLOAD PUSH2 0x1A69 PUSH1 0x20 DUP7 ADD DUP3 PUSH2 0x193F JUMP JUMPDEST POP PUSH1 0x40 DUP4 ADD MLOAD DUP5 DUP3 SUB PUSH1 0x40 DUP7 ADD MSTORE PUSH2 0x1A81 DUP3 DUP3 PUSH2 0x199F JUMP JUMPDEST SWAP2 POP POP PUSH1 0x60 DUP4 ADD MLOAD PUSH2 0x1A96 PUSH1 0x60 DUP7 ADD DUP3 PUSH2 0x1A0D JUMP JUMPDEST POP PUSH1 0x80 DUP4 ADD MLOAD PUSH2 0x1AA9 PUSH1 0x80 DUP7 ADD DUP3 PUSH2 0x1A0D JUMP JUMPDEST POP PUSH1 0xA0 DUP4 ADD MLOAD PUSH2 0x1ABC PUSH1 0xA0 DUP7 ADD DUP3 PUSH2 0x1A28 JUMP JUMPDEST POP DUP1 SWAP2 POP POP SWAP3 SWAP2 POP POP JUMP JUMPDEST PUSH1 0x0 PUSH1 0x20 DUP3 ADD SWAP1 POP DUP2 DUP2 SUB PUSH1 0x0 DUP4 ADD MSTORE PUSH2 0x1AE1 DUP2 DUP5 PUSH2 0x1A37 JUMP JUMPDEST SWAP1 POP SWAP3 SWAP2 POP POP JUMP JUMPDEST PUSH2 0x1AF2 DUP2 PUSH2 0x1803 JUMP JUMPDEST DUP3 MSTORE POP POP JUMP JUMPDEST PUSH1 0x0 PUSH1 0x20 DUP3 ADD SWAP1 POP PUSH2 0x1B0D PUSH1 0x0 DUP4 ADD DUP5 PUSH2 0x1AE9 JUMP JUMPDEST SWAP3 SWAP2 POP POP JUMP JUMPDEST PUSH1 0x0 PUSH1 0x20 DUP3 DUP5 SUB SLT ISZERO PUSH2 0x1B29 JUMPI PUSH2 0x1B28 PUSH2 0x179B JUMP JUMPDEST JUMPDEST PUSH1 0x0 PUSH2 0x1B37 DUP5 DUP3 DUP6 ADD PUSH2 0x17EE JUMP JUMPDEST SWAP2 POP POP SWAP3 SWAP2 POP POP JUMP JUMPDEST PUSH1 0x0 DUP3 DUP3 MSTORE PUSH1 0x20 DUP3 ADD SWAP1 POP SWAP3 SWAP2 POP POP JUMP JUMPDEST PUSH1 0x0 PUSH2 0x1B5C DUP3 PUSH2 0x18A6 JUMP JUMPDEST PUSH2 0x1B66 DUP2 DUP6 PUSH2 0x1B40 JUMP JUMPDEST SWAP4 POP PUSH2 0x1B76 DUP2 DUP6 PUSH1 0x20 DUP7 ADD PUSH2 0x18C2 JUMP JUMPDEST PUSH2 0x1B7F DUP2 PUSH2 0x18F5 JUMP JUMPDEST DUP5 ADD SWAP2 POP POP SWAP3 SWAP2 POP POP JUMP JUMPDEST PUSH2 0x1B93 DUP2 PUSH2 0x17C5 JUMP JUMPDEST DUP3 MSTORE POP POP JUMP JUMPDEST PUSH2 0x1BA2 DUP2 PUSH2 0x19FD JUMP JUMPDEST DUP3 MSTORE POP POP JUMP JUMPDEST PUSH2 0x1BB1 DUP2 PUSH2 0x1A1C JUMP JUMPDEST DUP3 MSTORE POP POP JUMP JUMPDEST PUSH1 0x0 PUSH1 0xA0 DUP3 ADD SWAP1 POP DUP2 DUP2 SUB PUSH1 0x0 DUP4 ADD MSTORE PUSH2 0x1BD1 DUP2 DUP9 PUSH2 0x1B51 JUMP JUMPDEST SWAP1 POP PUSH2 0x1BE0 PUSH1 0x20 DUP4 ADD DUP8 PUSH2 0x1B8A JUMP JUMPDEST PUSH2 0x1BED PUSH1 0x40 DUP4 ADD DUP7 PUSH2 0x1B99 JUMP JUMPDEST PUSH2 0x1BFA PUSH1 0x60 DUP4 ADD DUP6 PUSH2 0x1B99 JUMP JUMPDEST PUSH2 0x1C07 PUSH1 0x80 DUP4 ADD DUP5 PUSH2 0x1BA8 JUMP JUMPDEST SWAP7 SWAP6 POP POP POP POP POP POP JUMP JUMPDEST PUSH1 0x0 DUP3 DUP3 MSTORE PUSH1 0x20 DUP3 ADD SWAP1 POP SWAP3 SWAP2 POP POP JUMP JUMPDEST PUSH1 0x0 PUSH2 0x1C2D DUP3 PUSH2 0x194E JUMP JUMPDEST PUSH2 0x1C37 DUP2 DUP6 PUSH2 0x1C11 JUMP JUMPDEST SWAP4 POP PUSH2 0x1C42 DUP4 PUSH2 0x196A JUMP JUMPDEST DUP1 PUSH1 0x0 JUMPDEST DUP4 DUP2 LT ISZERO PUSH2 0x1C73 JUMPI DUP2 MLOAD PUSH2 0x1C5A DUP9 DUP3 PUSH2 0x197A JUMP JUMPDEST SWAP8 POP PUSH2 0x1C65 DUP4 PUSH2 0x1992 JUMP JUMPDEST SWAP3 POP POP PUSH1 0x1 DUP2 ADD SWAP1 POP PUSH2 0x1C46 JUMP JUMPDEST POP DUP6 SWAP4 POP POP POP POP SWAP3 SWAP2 POP POP JUMP JUMPDEST PUSH1 0x0 PUSH1 0x20 DUP3 ADD SWAP1 POP DUP2 DUP2 SUB PUSH1 0x0 DUP4 ADD MSTORE PUSH2 0x1C9A DUP2 DUP5 PUSH2 0x1C22 JUMP JUMPDEST SWAP1 POP SWAP3 SWAP2 POP POP JUMP JUMPDEST PUSH1 0x0 DUP2 MLOAD SWAP1 POP SWAP2 SWAP1 POP JUMP JUMPDEST PUSH1 0x0 DUP3 DUP3 MSTORE PUSH1 0x20 DUP3 ADD SWAP1 POP SWAP3 SWAP2 POP POP JUMP JUMPDEST PUSH1 0x0 DUP2 SWAP1 POP PUSH1 0x20 DUP3 ADD SWAP1 POP SWAP2 SWAP1 POP JUMP JUMPDEST PUSH2 0x1CD7 DUP2 PUSH2 0x1803 JUMP JUMPDEST DUP3 MSTORE POP POP JUMP JUMPDEST PUSH1 0x0 PUSH2 0x1CE9 DUP4 DUP4 PUSH2 0x1CCE JUMP JUMPDEST PUSH1 0x20 DUP4 ADD SWAP1 POP SWAP3 SWAP2 POP POP JUMP JUMPDEST PUSH1 0x0 PUSH1 0x20 DUP3 ADD SWAP1 POP SWAP2 SWAP1 POP JUMP JUMPDEST PUSH1 0x0 PUSH2 0x1D0D DUP3 PUSH2 0x1CA2 JUMP JUMPDEST PUSH2 0x1D17 DUP2 DUP6 PUSH2 0x1CAD JUMP JUMPDEST SWAP4 POP PUSH2 0x1D22 DUP4 PUSH2 0x1CBE JUMP JUMPDEST DUP1 PUSH1 0x0 JUMPDEST DUP4 DUP2 LT ISZERO PUSH2 0x1D53 JUMPI DUP2 MLOAD PUSH2 0x1D3A DUP9 DUP3 PUSH2 0x1CDD JUMP JUMPDEST SWAP8 POP PUSH2 0x1D45 DUP4 PUSH2 0x1CF5 JUMP JUMPDEST SWAP3 POP POP PUSH1 0x1 DUP2 ADD SWAP1 POP PUSH2 0x1D26 JUMP JUMPDEST POP DUP6 SWAP4 POP POP POP POP SWAP3 SWAP2 POP POP JUMP JUMPDEST PUSH1 0x0 PUSH1 0x60 DUP3 ADD SWAP1 POP DUP2 DUP2 SUB PUSH1 0x0 DUP4 ADD MSTORE PUSH2 0x1D7A DUP2 DUP7 PUSH2 0x1D02 JUMP JUMPDEST SWAP1 POP PUSH2 0x1D89 PUSH1 0x20 DUP4 ADD DUP6 PUSH2 0x1B8A JUMP JUMPDEST PUSH2 0x1D96 PUSH1 0x40 DUP4 ADD DUP5 PUSH2 0x1AE9 JUMP JUMPDEST SWAP5 SWAP4 POP POP POP POP JUMP JUMPDEST PUSH1 0x0 DUP1 PUSH1 0x0 DUP1 PUSH1 0x80 DUP6 DUP8 SUB SLT ISZERO PUSH2 0x1DB8 JUMPI PUSH2 0x1DB7 PUSH2 0x179B JUMP JUMPDEST JUMPDEST PUSH1 0x0 PUSH2 0x1DC6 DUP8 DUP3 DUP9 ADD PUSH2 0x17EE JUMP JUMPDEST SWAP5 POP POP PUSH1 0x20 PUSH2 0x1DD7 DUP8 DUP3 DUP9 ADD PUSH2 0x1824 JUMP JUMPDEST SWAP4 POP POP PUSH1 0x40 PUSH2 0x1DE8 DUP8 DUP3 DUP9 ADD PUSH2 0x1824 JUMP JUMPDEST SWAP3 POP POP PUSH1 0x60 PUSH2 0x1DF9 DUP8 DUP3 DUP9 ADD PUSH2 0x1824 JUMP JUMPDEST SWAP2 POP POP SWAP3 SWAP6 SWAP2 SWAP5 POP SWAP3 POP JUMP JUMPDEST PUSH1 0x0 DUP2 SWAP1 POP SWAP2 SWAP1 POP JUMP JUMPDEST PUSH2 0x1E18 DUP2 PUSH2 0x1E05 JUMP JUMPDEST DUP3 MSTORE POP POP JUMP JUMPDEST PUSH1 0x0 PUSH1 0x20 DUP3 ADD SWAP1 POP PUSH2 0x1E33 PUSH1 0x0 DUP4 ADD DUP5 PUSH2 0x1E0F JUMP JUMPDEST SWAP3 SWAP2 POP POP JUMP JUMPDEST PUSH1 0x0 DUP1 REVERT JUMPDEST PUSH1 0x0 DUP1 REVERT JUMPDEST PUSH32 0x4E487B7100000000000000000000000000000000000000000000000000000000 PUSH1 0x0 MSTORE PUSH1 0x41 PUSH1 0x4 MSTORE PUSH1 0x24 PUSH1 0x0 REVERT JUMPDEST PUSH2 0x1E7B DUP3 PUSH2 0x18F5 JUMP JUMPDEST DUP2 ADD DUP2 DUP2 LT PUSH8 0xFFFFFFFFFFFFFFFF DUP3 GT OR ISZERO PUSH2 0x1E9A JUMPI PUSH2 0x1E99 PUSH2 0x1E43 JUMP JUMPDEST JUMPDEST DUP1 PUSH1 0x40 MSTORE POP POP POP JUMP JUMPDEST PUSH1 0x0 PUSH2 0x1EAD PUSH2 0x1791 JUMP JUMPDEST SWAP1 POP PUSH2 0x1EB9 DUP3 DUP3 PUSH2 0x1E72 JUMP JUMPDEST SWAP2 SWAP1 POP JUMP JUMPDEST PUSH1 0x0 PUSH8 0xFFFFFFFFFFFFFFFF DUP3 GT ISZERO PUSH2 0x1ED9 JUMPI PUSH2 0x1ED8 PUSH2 0x1E43 JUMP JUMPDEST JUMPDEST PUSH2 0x1EE2 DUP3 PUSH2 0x18F5 JUMP JUMPDEST SWAP1 POP PUSH1 0x20 DUP2 ADD SWAP1 POP SWAP2 SWAP1 POP JUMP JUMPDEST DUP3 DUP2 DUP4 CALLDATACOPY PUSH1 0x0 DUP4 DUP4 ADD MSTORE POP POP POP JUMP JUMPDEST PUSH1 0x0 PUSH2 0x1F11 PUSH2 0x1F0C DUP5 PUSH2 0x1EBE JUMP JUMPDEST PUSH2 0x1EA3 JUMP JUMPDEST SWAP1 POP DUP3 DUP2 MSTORE PUSH1 0x20 DUP2 ADD DUP5 DUP5 DUP5 ADD GT ISZERO PUSH2 0x1F2D JUMPI PUSH2 0x1F2C PUSH2 0x1E3E JUMP JUMPDEST JUMPDEST PUSH2 0x1F38 DUP5 DUP3 DUP6 PUSH2 0x1EEF JUMP JUMPDEST POP SWAP4 SWAP3 POP POP POP JUMP JUMPDEST PUSH1 0x0 DUP3 PUSH1 0x1F DUP4 ADD SLT PUSH2 0x1F55 JUMPI PUSH2 0x1F54 PUSH2 0x1E39 JUMP JUMPDEST JUMPDEST DUP2 CALLDATALOAD PUSH2 0x1F65 DUP5 DUP3 PUSH1 0x20 DUP7 ADD PUSH2 0x1EFE JUMP JUMPDEST SWAP2 POP POP SWAP3 SWAP2 POP POP JUMP JUMPDEST PUSH1 0x0 DUP1 PUSH1 0x0 DUP1 PUSH1 0x80 DUP6 DUP8 SUB SLT ISZERO PUSH2 0x1F88 JUMPI PUSH2 0x1F87 PUSH2 0x179B JUMP JUMPDEST JUMPDEST PUSH1 0x0 PUSH2 0x1F96 DUP8 DUP3 DUP9 ADD PUSH2 0x17EE JUMP JUMPDEST SWAP5 POP POP PUSH1 0x20 PUSH2 0x1FA7 DUP8 DUP3 DUP9 ADD PUSH2 0x1824 JUMP JUMPDEST SWAP4 POP POP PUSH1 0x40 PUSH2 0x1FB8 DUP8 DUP3 DUP9 ADD PUSH2 0x1824 JUMP JUMPDEST SWAP3 POP POP PUSH1 0x60 DUP6 ADD CALLDATALOAD PUSH8 0xFFFFFFFFFFFFFFFF DUP2 GT ISZERO PUSH2 0x1FD9 JUMPI PUSH2 0x1FD8 PUSH2 0x17A0 JUMP JUMPDEST JUMPDEST PUSH2 0x1FE5 DUP8 DUP3 DUP9 ADD PUSH2 0x1F40 JUMP JUMPDEST SWAP2 POP POP SWAP3 SWAP6 SWAP2 SWAP5 POP SWAP3 POP JUMP JUMPDEST PUSH1 0x0 PUSH8 0xFFFFFFFFFFFFFFFF DUP3 GT ISZERO PUSH2 0x200C JUMPI PUSH2 0x200B PUSH2 0x1E43 JUMP JUMPDEST JUMPDEST PUSH2 0x2015 DUP3 PUSH2 0x18F5 JUMP JUMPDEST SWAP1 POP PUSH1 0x20 DUP2 ADD SWAP1 POP SWAP2 SWAP1 POP JUMP JUMPDEST PUSH1 0x0 PUSH2 0x2035 PUSH2 0x2030 DUP5 PUSH2 0x1FF1 JUMP JUMPDEST PUSH2 0x1EA3 JUMP JUMPDEST SWAP1 POP DUP3 DUP2 MSTORE PUSH1 0x20 DUP2 ADD DUP5 DUP5 DUP5 ADD GT ISZERO PUSH2 0x2051 JUMPI PUSH2 0x2050 PUSH2 0x1E3E JUMP JUMPDEST JUMPDEST PUSH2 0x205C DUP5 DUP3 DUP6 PUSH2 0x1EEF JUMP JUMPDEST POP SWAP4 SWAP3 POP POP POP JUMP JUMPDEST PUSH1 0x0 DUP3 PUSH1 0x1F DUP4 ADD SLT PUSH2 0x2079 JUMPI PUSH2 0x2078 PUSH2 0x1E39 JUMP JUMPDEST JUMPDEST DUP2 CALLDATALOAD PUSH2 0x2089 DUP5 DUP3 PUSH1 0x20 DUP7 ADD PUSH2 0x2022 JUMP JUMPDEST SWAP2 POP POP SWAP3 SWAP2 POP POP JUMP JUMPDEST PUSH2 0x209B DUP2 PUSH2 0x19FD JUMP JUMPDEST DUP2 EQ PUSH2 0x20A6 JUMPI PUSH1 0x0 DUP1 REVERT JUMPDEST POP JUMP JUMPDEST PUSH1 0x0 DUP2 CALLDATALOAD SWAP1 POP PUSH2 0x20B8 DUP2 PUSH2 0x2092 JUMP JUMPDEST SWAP3 SWAP2 POP POP JUMP JUMPDEST PUSH1 0x0 DUP1 PUSH1 0x40 DUP4 DUP6 SUB SLT ISZERO PUSH2 0x20D5 JUMPI PUSH2 0x20D4 PUSH2 0x179B JUMP JUMPDEST JUMPDEST PUSH1 0x0 DUP4 ADD CALLDATALOAD PUSH8 0xFFFFFFFFFFFFFFFF DUP2 GT ISZERO PUSH2 0x20F3 JUMPI PUSH2 0x20F2 PUSH2 0x17A0 JUMP JUMPDEST JUMPDEST PUSH2 0x20FF DUP6 DUP3 DUP7 ADD PUSH2 0x2064 JUMP JUMPDEST SWAP3 POP POP PUSH1 0x20 PUSH2 0x2110 DUP6 DUP3 DUP7 ADD PUSH2 0x20A9 JUMP JUMPDEST SWAP2 POP POP SWAP3 POP SWAP3 SWAP1 POP JUMP JUMPDEST PUSH1 0x0 DUP2 MLOAD SWAP1 POP SWAP2 SWAP1 POP JUMP JUMPDEST PUSH1 0x0 DUP3 DUP3 MSTORE PUSH1 0x20 DUP3 ADD SWAP1 POP SWAP3 SWAP2 POP POP JUMP JUMPDEST PUSH1 0x0 DUP2 SWAP1 POP PUSH1 0x20 DUP3 ADD SWAP1 POP SWAP2 SWAP1 POP JUMP JUMPDEST PUSH1 0x0 PUSH1 0xC0 DUP4 ADD PUSH1 0x0 DUP4 ADD MLOAD DUP5 DUP3 SUB PUSH1 0x0 DUP7 ADD MSTORE PUSH2 0x2163 DUP3 DUP3 PUSH2 0x1906 JUMP JUMPDEST SWAP2 POP POP PUSH1 0x20 DUP4 ADD MLOAD PUSH2 0x2178 PUSH1 0x20 DUP7 ADD DUP3 PUSH2 0x193F JUMP JUMPDEST POP PUSH1 0x40 DUP4 ADD MLOAD DUP5 DUP3 SUB PUSH1 0x40 DUP7 ADD MSTORE PUSH2 0x2190 DUP3 DUP3 PUSH2 0x199F JUMP JUMPDEST SWAP2 POP POP PUSH1 0x60 DUP4 ADD MLOAD PUSH2 0x21A5 PUSH1 0x60 DUP7 ADD DUP3 PUSH2 0x1A0D JUMP JUMPDEST POP PUSH1 0x80 DUP4 ADD MLOAD PUSH2 0x21B8 PUSH1 0x80 DUP7 ADD DUP3 PUSH2 0x1A0D JUMP JUMPDEST POP PUSH1 0xA0 DUP4 ADD MLOAD PUSH2 0x21CB PUSH1 0xA0 DUP7 ADD DUP3 PUSH2 0x1A28 JUMP JUMPDEST POP DUP1 SWAP2 POP POP SWAP3 SWAP2 POP POP JUMP JUMPDEST PUSH1 0x0 PUSH2 0x21E2 DUP4 DUP4 PUSH2 0x2146 JUMP JUMPDEST SWAP1 POP SWAP3 SWAP2 POP POP JUMP JUMPDEST PUSH1 0x0 PUSH1 0x20 DUP3 ADD SWAP1 POP SWAP2 SWAP1 POP JUMP JUMPDEST PUSH1 0x0 PUSH2 0x2202 DUP3 PUSH2 0x211A JUMP JUMPDEST PUSH2 0x220C DUP2 DUP6 PUSH2 0x2125 JUMP JUMPDEST SWAP4 POP DUP4 PUSH1 0x20 DUP3 MUL DUP6 ADD PUSH2 0x221E DUP6 PUSH2 0x2136 JUMP JUMPDEST DUP1 PUSH1 0x0 JUMPDEST DUP6 DUP2 LT ISZERO PUSH2 0x225A JUMPI DUP5 DUP5 SUB DUP10 MSTORE DUP2 MLOAD PUSH2 0x223B DUP6 DUP3 PUSH2 0x21D6 JUMP JUMPDEST SWAP5 POP PUSH2 0x2246 DUP4 PUSH2 0x21EA JUMP JUMPDEST SWAP3 POP PUSH1 0x20 DUP11 ADD SWAP10 POP POP PUSH1 0x1 DUP2 ADD SWAP1 POP PUSH2 0x2222 JUMP JUMPDEST POP DUP3 SWAP8 POP DUP8 SWAP6 POP POP POP POP POP POP SWAP3 SWAP2 POP POP JUMP JUMPDEST PUSH1 0x0 PUSH1 0x20 DUP3 ADD SWAP1 POP DUP2 DUP2 SUB PUSH1 0x0 DUP4 ADD MSTORE PUSH2 0x2286 DUP2 DUP5 PUSH2 0x21F7 JUMP JUMPDEST SWAP1 POP SWAP3 SWAP2 POP POP JUMP JUMPDEST PUSH32 0x79657420746F20637265617465206120706F6C6C000000000000000000000000 PUSH1 0x0 DUP3 ADD MSTORE POP JUMP JUMPDEST PUSH1 0x0 PUSH2 0x22C4 PUSH1 0x14 DUP4 PUSH2 0x1B40 JUMP JUMPDEST SWAP2 POP PUSH2 0x22CF DUP3 PUSH2 0x228E JUMP JUMPDEST PUSH1 0x20 DUP3 ADD SWAP1 POP SWAP2 SWAP1 POP JUMP JUMPDEST PUSH1 0x0 PUSH1 0x20 DUP3 ADD SWAP1 POP DUP2 DUP2 SUB PUSH1 0x0 DUP4 ADD MSTORE PUSH2 0x22F3 DUP2 PUSH2 0x22B7 JUMP JUMPDEST SWAP1 POP SWAP2 SWAP1 POP JUMP JUMPDEST PUSH32 0x4E487B7100000000000000000000000000000000000000000000000000000000 PUSH1 0x0 MSTORE PUSH1 0x1 PUSH1 0x4 MSTORE PUSH1 0x24 PUSH1 0x0 REVERT JUMPDEST PUSH32 0x6D6178696D756D206E6F206F662063616E646964617465207065722073657373 PUSH1 0x0 DUP3 ADD MSTORE PUSH32 0x696F6E2072656769737465726564000000000000000000000000000000000000 PUSH1 0x20 DUP3 ADD MSTORE POP JUMP JUMPDEST PUSH1 0x0 PUSH2 0x2385 PUSH1 0x2E DUP4 PUSH2 0x1B40 JUMP JUMPDEST SWAP2 POP PUSH2 0x2390 DUP3 PUSH2 0x2329 JUMP JUMPDEST PUSH1 0x40 DUP3 ADD SWAP1 POP SWAP2 SWAP1 POP JUMP JUMPDEST PUSH1 0x0 PUSH1 0x20 DUP3 ADD SWAP1 POP DUP2 DUP2 SUB PUSH1 0x0 DUP4 ADD MSTORE PUSH2 0x23B4 DUP2 PUSH2 0x2378 JUMP JUMPDEST SWAP1 POP SWAP2 SWAP1 POP JUMP JUMPDEST PUSH32 0x4E487B7100000000000000000000000000000000000000000000000000000000 PUSH1 0x0 MSTORE PUSH1 0x11 PUSH1 0x4 MSTORE PUSH1 0x24 PUSH1 0x0 REVERT JUMPDEST PUSH1 0x0 PUSH2 0x23F5 DUP3 PUSH2 0x19FD JUMP JUMPDEST SWAP2 POP PUSH4 0xFFFFFFFF DUP3 EQ ISZERO PUSH2 0x240C JUMPI PUSH2 0x240B PUSH2 0x23BB JUMP JUMPDEST JUMPDEST PUSH1 0x1 DUP3 ADD SWAP1 POP SWAP2 SWAP1 POP JUMP JUMPDEST PUSH1 0x0 PUSH1 0x20 DUP3 ADD SWAP1 POP PUSH2 0x242C PUSH1 0x0 DUP4 ADD DUP5 PUSH2 0x1B8A JUMP JUMPDEST SWAP3 SWAP2 POP POP JUMP JUMPDEST PUSH32 0x4E487B7100000000000000000000000000000000000000000000000000000000 PUSH1 0x0 MSTORE PUSH1 0x22 PUSH1 0x4 MSTORE PUSH1 0x24 PUSH1 0x0 REVERT JUMPDEST PUSH1 0x0 PUSH1 0x2 DUP3 DIV SWAP1 POP PUSH1 0x1 DUP3 AND DUP1 PUSH2 0x2479 JUMPI PUSH1 0x7F DUP3 AND SWAP2 POP JUMPDEST PUSH1 0x20 DUP3 LT DUP2 EQ ISZERO PUSH2 0x248D JUMPI PUSH2 0x248C PUSH2 0x2432 JUMP JUMPDEST JUMPDEST POP SWAP2 SWAP1 POP JUMP JUMPDEST PUSH32 0x4E6F20706F6C6C20637265617465640000000000000000000000000000000000 PUSH1 0x0 DUP3 ADD MSTORE POP JUMP JUMPDEST PUSH1 0x0 PUSH2 0x24C9 PUSH1 0xF DUP4 PUSH2 0x1B40 JUMP JUMPDEST SWAP2 POP PUSH2 0x24D4 DUP3 PUSH2 0x2493 JUMP JUMPDEST PUSH1 0x20 DUP3 ADD SWAP1 POP SWAP2 SWAP1 POP JUMP JUMPDEST PUSH1 0x0 PUSH1 0x20 DUP3 ADD SWAP1 POP DUP2 DUP2 SUB PUSH1 0x0 DUP4 ADD MSTORE PUSH2 0x24F8 DUP2 PUSH2 0x24BC JUMP JUMPDEST SWAP1 POP SWAP2 SWAP1 POP JUMP JUMPDEST PUSH32 0x4E487B7100000000000000000000000000000000000000000000000000000000 PUSH1 0x0 MSTORE PUSH1 0x32 PUSH1 0x4 MSTORE PUSH1 0x24 PUSH1 0x0 REVERT JUMPDEST PUSH1 0x0 PUSH2 0x2539 DUP3 PUSH2 0x1803 JUMP JUMPDEST SWAP2 POP PUSH32 0xFFFFFFFFFFFFFFFFFFFFFFFFFFFFFFFFFFFFFFFFFFFFFFFFFFFFFFFFFFFFFFFF DUP3 EQ ISZERO PUSH2 0x256C JUMPI PUSH2 0x256B PUSH2 0x23BB JUMP JUMPDEST JUMPDEST PUSH1 0x1 DUP3 ADD SWAP1 POP SWAP2 SWAP1 POP JUMP JUMPDEST PUSH1 0x0 DUP2 PUSH1 0x60 SHL SWAP1 POP SWAP2 SWAP1 POP JUMP JUMPDEST PUSH1 0x0 PUSH2 0x258F DUP3 PUSH2 0x2577 JUMP JUMPDEST SWAP1 POP SWAP2 SWAP1 POP JUMP JUMPDEST PUSH1 0x0 PUSH2 0x25A1 DUP3 PUSH2 0x2584 JUMP JUMPDEST SWAP1 POP SWAP2 SWAP1 POP JUMP JUMPDEST PUSH2 0x25B9 PUSH2 0x25B4 DUP3 PUSH2 0x17C5 JUMP JUMPDEST PUSH2 0x2596 JUMP JUMPDEST DUP3 MSTORE POP POP JUMP JUMPDEST PUSH1 0x0 DUP2 SWAP1 POP SWAP3 SWAP2 POP POP JUMP JUMPDEST PUSH32 0x6D6574617472616E73616374696F6E20566F74696E6720000000000000000000 PUSH1 0x0 DUP3 ADD MSTORE POP JUMP JUMPDEST PUSH1 0x0 PUSH2 0x2600 PUSH1 0x17 DUP4 PUSH2 0x25BF JUMP JUMPDEST SWAP2 POP PUSH2 0x260B DUP3 PUSH2 0x25CA JUMP JUMPDEST PUSH1 0x17 DUP3 ADD SWAP1 POP SWAP2 SWAP1 POP JUMP JUMPDEST PUSH1 0x0 DUP2 SWAP1 POP SWAP2 SWAP1 POP JUMP JUMPDEST PUSH2 0x2631 PUSH2 0x262C DUP3 PUSH2 0x1803 JUMP JUMPDEST PUSH2 0x2616 JUMP JUMPDEST DUP3 MSTORE POP POP JUMP JUMPDEST PUSH1 0x0 PUSH2 0x2643 DUP3 DUP9 PUSH2 0x25A8 JUMP JUMPDEST PUSH1 0x14 DUP3 ADD SWAP2 POP PUSH2 0x2652 DUP3 PUSH2 0x25F3 JUMP JUMPDEST SWAP2 POP PUSH2 0x265E DUP3 DUP8 PUSH2 0x25A8 JUMP JUMPDEST PUSH1 0x14 DUP3 ADD SWAP2 POP PUSH2 0x266E DUP3 DUP7 PUSH2 0x2620 JUMP JUMPDEST PUSH1 0x20 DUP3 ADD SWAP2 POP PUSH2 0x267E DUP3 DUP6 PUSH2 0x2620 JUMP JUMPDEST PUSH1 0x20 DUP3 ADD SWAP2 POP PUSH2 0x268E DUP3 DUP5 PUSH2 0x2620 JUMP JUMPDEST PUSH1 0x20 DUP3 ADD SWAP2 POP DUP2 SWAP1 POP SWAP7 SWAP6 POP POP POP POP POP POP JUMP JUMPDEST PUSH32 0x54686973206164647265737320646F6573206E6F742065786973742061732061 PUSH1 0x0 DUP3 ADD MSTORE PUSH32 0x2063616E64696461746500000000000000000000000000000000000000000000 PUSH1 0x20 DUP3 ADD MSTORE POP JUMP JUMPDEST PUSH1 0x0 PUSH2 0x26FD PUSH1 0x2A DUP4 PUSH2 0x1B40 JUMP JUMPDEST SWAP2 POP PUSH2 0x2708 DUP3 PUSH2 0x26A1 JUMP JUMPDEST PUSH1 0x40 DUP3 ADD SWAP1 POP SWAP2 SWAP1 POP JUMP JUMPDEST PUSH1 0x0 PUSH1 0x20 DUP3 ADD SWAP1 POP DUP2 DUP2 SUB PUSH1 0x0 DUP4 ADD MSTORE PUSH2 0x272C DUP2 PUSH2 0x26F0 JUMP JUMPDEST SWAP1 POP SWAP2 SWAP1 POP JUMP JUMPDEST PUSH32 0x766F74696E672068617320656E64656400000000000000000000000000000000 PUSH1 0x0 DUP3 ADD MSTORE POP JUMP JUMPDEST PUSH1 0x0 PUSH2 0x2769 PUSH1 0x10 DUP4 PUSH2 0x1B40 JUMP JUMPDEST SWAP2 POP PUSH2 0x2774 DUP3 PUSH2 0x2733 JUMP JUMPDEST PUSH1 0x20 DUP3 ADD SWAP1 POP SWAP2 SWAP1 POP JUMP JUMPDEST PUSH1 0x0 PUSH1 0x20 DUP3 ADD SWAP1 POP DUP2 DUP2 SUB PUSH1 0x0 DUP4 ADD MSTORE PUSH2 0x2798 DUP2 PUSH2 0x275C JUMP JUMPDEST SWAP1 POP SWAP2 SWAP1 POP JUMP JUMPDEST PUSH32 0x596F7520616C726561647920766F746564000000000000000000000000000000 PUSH1 0x0 DUP3 ADD MSTORE POP JUMP JUMPDEST PUSH1 0x0 PUSH2 0x27D5 PUSH1 0x11 DUP4 PUSH2 0x1B40 JUMP JUMPDEST SWAP2 POP PUSH2 0x27E0 DUP3 PUSH2 0x279F JUMP JUMPDEST PUSH1 0x20 DUP3 ADD SWAP1 POP SWAP2 SWAP1 POP JUMP JUMPDEST PUSH1 0x0 PUSH1 0x20 DUP3 ADD SWAP1 POP DUP2 DUP2 SUB PUSH1 0x0 DUP4 ADD MSTORE PUSH2 0x2804 DUP2 PUSH2 0x27C8 JUMP JUMPDEST SWAP1 POP SWAP2 SWAP1 POP JUMP JUMPDEST PUSH1 0x0 PUSH1 0x40 DUP3 ADD SWAP1 POP PUSH2 0x2820 PUSH1 0x0 DUP4 ADD DUP6 PUSH2 0x1B8A JUMP JUMPDEST PUSH2 0x282D PUSH1 0x20 DUP4 ADD DUP5 PUSH2 0x1BA8 JUMP JUMPDEST SWAP4 SWAP3 POP POP POP JUMP JUMPDEST PUSH32 0x6E6F74207468652063686169726D616E00000000000000000000000000000000 PUSH1 0x0 DUP3 ADD MSTORE POP JUMP JUMPDEST PUSH1 0x0 PUSH2 0x286A PUSH1 0x10 DUP4 PUSH2 0x1B40 JUMP JUMPDEST SWAP2 POP PUSH2 0x2875 DUP3 PUSH2 0x2834 JUMP JUMPDEST PUSH1 0x20 DUP3 ADD SWAP1 POP SWAP2 SWAP1 POP JUMP JUMPDEST PUSH1 0x0 PUSH1 0x20 DUP3 ADD SWAP1 POP DUP2 DUP2 SUB PUSH1 0x0 DUP4 ADD MSTORE PUSH2 0x2899 DUP2 PUSH2 0x285D JUMP JUMPDEST SWAP1 POP SWAP2 SWAP1 POP JUMP JUMPDEST PUSH1 0x0 PUSH2 0x28AB DUP3 PUSH2 0x18A6 JUMP JUMPDEST PUSH2 0x28B5 DUP2 DUP6 PUSH2 0x25BF JUMP JUMPDEST SWAP4 POP PUSH2 0x28C5 DUP2 DUP6 PUSH1 0x20 DUP7 ADD PUSH2 0x18C2 JUMP JUMPDEST DUP1 DUP5 ADD SWAP2 POP POP SWAP3 SWAP2 POP POP JUMP JUMPDEST PUSH1 0x0 PUSH2 0x28DD DUP3 DUP5 PUSH2 0x28A0 JUMP JUMPDEST SWAP2 POP DUP2 SWAP1 POP SWAP3 SWAP2 POP POP JUMP JUMPDEST PUSH1 0x0 PUSH1 0xFF DUP3 AND SWAP1 POP SWAP2 SWAP1 POP JUMP JUMPDEST PUSH1 0x0 PUSH2 0x2900 DUP3 PUSH2 0x28E8 JUMP JUMPDEST SWAP2 POP PUSH2 0x290B DUP4 PUSH2 0x28E8 JUMP JUMPDEST SWAP3 POP DUP3 PUSH1 0xFF SUB DUP3 GT ISZERO PUSH2 0x2921 JUMPI PUSH2 0x2920 PUSH2 0x23BB JUMP JUMPDEST JUMPDEST DUP3 DUP3 ADD SWAP1 POP SWAP3 SWAP2 POP POP JUMP JUMPDEST PUSH32 0x19457468657265756D205369676E6564204D6573736167653A0A333200000000 PUSH1 0x0 DUP3 ADD MSTORE POP JUMP JUMPDEST PUSH1 0x0 PUSH2 0x2962 PUSH1 0x1C DUP4 PUSH2 0x25BF JUMP JUMPDEST SWAP2 POP PUSH2 0x296D DUP3 PUSH2 0x292C JUMP JUMPDEST PUSH1 0x1C DUP3 ADD SWAP1 POP SWAP2 SWAP1 POP JUMP JUMPDEST PUSH1 0x0 DUP2 SWAP1 POP SWAP2 SWAP1 POP JUMP JUMPDEST PUSH2 0x2993 PUSH2 0x298E DUP3 PUSH2 0x1E05 JUMP JUMPDEST PUSH2 0x2978 JUMP JUMPDEST DUP3 MSTORE POP POP JUMP JUMPDEST PUSH1 0x0 PUSH2 0x29A4 DUP3 PUSH2 0x2955 JUMP JUMPDEST SWAP2 POP PUSH2 0x29B0 DUP3 DUP5 PUSH2 0x2982 JUMP JUMPDEST PUSH1 0x20 DUP3 ADD SWAP2 POP DUP2 SWAP1 POP SWAP3 SWAP2 POP POP JUMP JUMPDEST PUSH2 0x29C8 DUP2 PUSH2 0x28E8 JUMP JUMPDEST DUP3 MSTORE POP POP JUMP JUMPDEST PUSH1 0x0 PUSH1 0x80 DUP3 ADD SWAP1 POP PUSH2 0x29E3 PUSH1 0x0 DUP4 ADD DUP8 PUSH2 0x1E0F JUMP JUMPDEST PUSH2 0x29F0 PUSH1 0x20 DUP4 ADD DUP7 PUSH2 0x29BF JUMP JUMPDEST PUSH2 0x29FD PUSH1 0x40 DUP4 ADD DUP6 PUSH2 0x1E0F JUMP JUMPDEST PUSH2 0x2A0A PUSH1 0x60 DUP4 ADD DUP5 PUSH2 0x1E0F JUMP JUMPDEST SWAP6 SWAP5 POP POP POP POP POP JUMP INVALID LOG2 PUSH5 0x6970667358 0x22 SLT KECCAK256 0x5C BASEFEE PUSH23 0xC10C058A56F429075E191594AA542264109DBE51A73EF8 JUMPDEST 0xD5 SELFDESTRUCT JUMPDEST PC 0xB0 PUSH5 0x736F6C6343 STOP ADDMOD EXP STOP CALLER "
				},
				"gasEstimates": {
					"creation": {
						"codeDepositCost": "2165000",
						"executionCost": "24415",
						"totalCost": "2189415"
					},
					"external": {
						"AddCandidate(address,uint256)": "infinite",
						"AllCandidates(uint256)": "infinite",
						"NoOfRegisteredCandidates(uint256)": "infinite",
						"VotingKey(uint256)": "infinite",
						"VotingStruct(uint256)": "infinite",
						"arrayOfStruct()": "infinite",
						"createPoll(string,uint32)": "infinite",
						"getVotePollProps(uint256)": "infinite",
						"metaVotingHash(address,uint256,uint256,uint256)": "infinite",
						"replayNonce(address)": "2837",
						"revealWinner(uint256)": "infinite",
						"setVotingState(uint256)": "32566",
						"vote(address,uint256,uint256,bytes)": "infinite",
						"votingPoll(uint256)": "infinite"
					},
					"internal": {
						"countVote(address,uint256,address)": "51269",
						"getPosition(uint256,uint256)": "6717",
						"getSigner(bytes32,bytes memory)": "infinite"
					}
				},
				"methodIdentifiers": {
					"AddCandidate(address,uint256)": "049d1c8b",
					"AllCandidates(uint256)": "8ac3c3c2",
					"NoOfRegisteredCandidates(uint256)": "66c5343b",
					"VotingKey(uint256)": "ae928e3e",
					"VotingStruct(uint256)": "8321f397",
					"arrayOfStruct()": "fa4c5173",
					"createPoll(string,uint32)": "f762f4c0",
					"getVotePollProps(uint256)": "278e2c90",
					"metaVotingHash(address,uint256,uint256,uint256)": "bfe2e25d",
					"replayNonce(address)": "67d407df",
					"revealWinner(uint256)": "8ccb59e8",
					"setVotingState(uint256)": "c57003cc",
					"vote(address,uint256,uint256,bytes)": "c10d6cec",
					"votingPoll(uint256)": "e615f104"
				}
			},
			"storageLayout": {
				"storage": [
					{
						"astId": 4,
						"contract": "src/voting.sol:Voting",
						"label": "id",
						"offset": 0,
						"slot": "0",
						"type": "t_uint256"
					},
					{
						"astId": 21,
						"contract": "src/voting.sol:Voting",
						"label": "VotingKey",
						"offset": 0,
						"slot": "1",
						"type": "t_array(t_uint256)dyn_storage"
					},
					{
						"astId": 25,
						"contract": "src/voting.sol:Voting",
						"label": "VotingStruct",
						"offset": 0,
						"slot": "2",
						"type": "t_array(t_struct(VotingPoll)18_storage)dyn_storage"
					},
					{
						"astId": 30,
						"contract": "src/voting.sol:Voting",
						"label": "votingPoll",
						"offset": 0,
						"slot": "3",
						"type": "t_mapping(t_uint256,t_struct(VotingPoll)18_storage)"
					},
					{
						"astId": 34,
						"contract": "src/voting.sol:Voting",
						"label": "replayNonce",
						"offset": 0,
						"slot": "4",
						"type": "t_mapping(t_address,t_uint256)"
					},
					{
						"astId": 40,
						"contract": "src/voting.sol:Voting",
						"label": "CandidateStatus",
						"offset": 0,
						"slot": "5",
						"type": "t_mapping(t_uint256,t_mapping(t_address,t_bool))"
					},
					{
						"astId": 46,
						"contract": "src/voting.sol:Voting",
						"label": "CandidateVote",
						"offset": 0,
						"slot": "6",
						"type": "t_mapping(t_uint256,t_mapping(t_address,t_uint256))"
					},
					{
						"astId": 52,
						"contract": "src/voting.sol:Voting",
						"label": "hasVoted",
						"offset": 0,
						"slot": "7",
						"type": "t_mapping(t_uint256,t_mapping(t_address,t_bool))"
					}
				],
				"types": {
					"t_address": {
						"encoding": "inplace",
						"label": "address",
						"numberOfBytes": "20"
					},
					"t_array(t_address)dyn_storage": {
						"base": "t_address",
						"encoding": "dynamic_array",
						"label": "address[]",
						"numberOfBytes": "32"
					},
					"t_array(t_struct(VotingPoll)18_storage)dyn_storage": {
						"base": "t_struct(VotingPoll)18_storage",
						"encoding": "dynamic_array",
						"label": "struct Voting.VotingPoll[]",
						"numberOfBytes": "32"
					},
					"t_array(t_uint256)dyn_storage": {
						"base": "t_uint256",
						"encoding": "dynamic_array",
						"label": "uint256[]",
						"numberOfBytes": "32"
					},
					"t_bool": {
						"encoding": "inplace",
						"label": "bool",
						"numberOfBytes": "1"
					},
					"t_mapping(t_address,t_bool)": {
						"encoding": "mapping",
						"key": "t_address",
						"label": "mapping(address => bool)",
						"numberOfBytes": "32",
						"value": "t_bool"
					},
					"t_mapping(t_address,t_uint256)": {
						"encoding": "mapping",
						"key": "t_address",
						"label": "mapping(address => uint256)",
						"numberOfBytes": "32",
						"value": "t_uint256"
					},
					"t_mapping(t_uint256,t_mapping(t_address,t_bool))": {
						"encoding": "mapping",
						"key": "t_uint256",
						"label": "mapping(uint256 => mapping(address => bool))",
						"numberOfBytes": "32",
						"value": "t_mapping(t_address,t_bool)"
					},
					"t_mapping(t_uint256,t_mapping(t_address,t_uint256))": {
						"encoding": "mapping",
						"key": "t_uint256",
						"label": "mapping(uint256 => mapping(address => uint256))",
						"numberOfBytes": "32",
						"value": "t_mapping(t_address,t_uint256)"
					},
					"t_mapping(t_uint256,t_struct(VotingPoll)18_storage)": {
						"encoding": "mapping",
						"key": "t_uint256",
						"label": "mapping(uint256 => struct Voting.VotingPoll)",
						"numberOfBytes": "32",
						"value": "t_struct(VotingPoll)18_storage"
					},
					"t_string_storage": {
						"encoding": "bytes",
						"label": "string",
						"numberOfBytes": "32"
					},
					"t_struct(VotingPoll)18_storage": {
						"encoding": "inplace",
						"label": "struct Voting.VotingPoll",
						"members": [
							{
								"astId": 6,
								"contract": "src/voting.sol:Voting",
								"label": "name",
								"offset": 0,
								"slot": "0",
								"type": "t_string_storage"
							},
							{
								"astId": 8,
								"contract": "src/voting.sol:Voting",
								"label": "chairman",
								"offset": 0,
								"slot": "1",
								"type": "t_address"
							},
							{
								"astId": 11,
								"contract": "src/voting.sol:Voting",
								"label": "candidates",
								"offset": 0,
								"slot": "2",
								"type": "t_array(t_address)dyn_storage"
							},
							{
								"astId": 13,
								"contract": "src/voting.sol:Voting",
								"label": "maxNoOfCandidates",
								"offset": 0,
								"slot": "3",
								"type": "t_uint32"
							},
							{
								"astId": 15,
								"contract": "src/voting.sol:Voting",
								"label": "currentNoOfCandidates",
								"offset": 4,
								"slot": "3",
								"type": "t_uint32"
							},
							{
								"astId": 17,
								"contract": "src/voting.sol:Voting",
								"label": "voting",
								"offset": 8,
								"slot": "3",
								"type": "t_bool"
							}
						],
						"numberOfBytes": "128"
					},
					"t_uint256": {
						"encoding": "inplace",
						"label": "uint256",
						"numberOfBytes": "32"
					},
					"t_uint32": {
						"encoding": "inplace",
						"label": "uint32",
						"numberOfBytes": "4"
					}
				}
			},
			"userdoc": {
				"kind": "user",
				"methods": {},
				"version": 1
			}
		}
	}
}