{
	"src/voting.sol": {
		"Voting": {
			"abi": [
				{
					"anonymous": false,
					"inputs": [
						{
							"indexed": false,
							"internalType": "address",
							"name": "NewCandidate",
							"type": "address"
						}
					],
					"name": "becameCandidate",
					"type": "event"
				},
				{
					"anonymous": false,
					"inputs": [
						{
							"indexed": true,
							"internalType": "string",
							"name": "_name",
							"type": "string"
						},
						{
							"indexed": true,
							"internalType": "uint32",
							"name": "ExpectedNoOfCandidate",
							"type": "uint32"
						},
						{
							"indexed": true,
							"internalType": "address",
							"name": "chairman",
							"type": "address"
						}
					],
					"name": "pollCreated",
					"type": "event"
				},
				{
					"anonymous": false,
					"inputs": [
						{
							"indexed": true,
							"internalType": "bool",
							"name": "status",
							"type": "bool"
						}
					],
					"name": "voteStatus",
					"type": "event"
				},
				{
					"anonymous": false,
					"inputs": [
						{
							"indexed": false,
							"internalType": "address",
							"name": "_candidate",
							"type": "address"
						},
						{
							"indexed": false,
							"internalType": "bool",
							"name": "status",
							"type": "bool"
						}
					],
					"name": "voted",
					"type": "event"
				},
				{
					"inputs": [
						{
							"internalType": "address",
							"name": "_newCandidate",
							"type": "address"
						},
						{
							"internalType": "uint256",
							"name": "_id",
							"type": "uint256"
						}
					],
					"name": "AddCandidate",
					"outputs": [],
					"stateMutability": "nonpayable",
					"type": "function"
				},
				{
					"inputs": [
						{
							"internalType": "uint256",
							"name": "_id",
							"type": "uint256"
						}
					],
					"name": "AllCandidates",
					"outputs": [
						{
							"internalType": "address[]",
							"name": "_candidates",
							"type": "address[]"
						}
					],
					"stateMutability": "view",
					"type": "function"
				},
				{
					"inputs": [
						{
							"internalType": "uint256",
							"name": "_id",
							"type": "uint256"
						}
					],
					"name": "NoOfRegisteredCandidates",
					"outputs": [
						{
							"internalType": "uint256",
							"name": "",
							"type": "uint256"
						}
					],
					"stateMutability": "view",
					"type": "function"
				},
				{
					"inputs": [
						{
							"internalType": "uint256",
							"name": "",
							"type": "uint256"
						}
					],
					"name": "VotingKey",
					"outputs": [
						{
							"internalType": "string",
							"name": "name",
							"type": "string"
						},
						{
							"internalType": "address",
							"name": "chairman",
							"type": "address"
						},
						{
							"internalType": "uint32",
							"name": "maxNoOfCandidates",
							"type": "uint32"
						},
						{
							"internalType": "uint32",
							"name": "currentNoOfCandidates",
							"type": "uint32"
						},
						{
							"internalType": "bool",
							"name": "voting",
							"type": "bool"
						}
					],
					"stateMutability": "view",
					"type": "function"
				},
				{
					"inputs": [
						{
							"internalType": "string",
							"name": "_name",
							"type": "string"
						},
						{
							"internalType": "uint32",
							"name": "ExpectedNoOfCandidate",
							"type": "uint32"
						}
					],
					"name": "createPoll",
					"outputs": [
						{
							"components": [
								{
									"internalType": "string",
									"name": "name",
									"type": "string"
								},
								{
									"internalType": "address",
									"name": "chairman",
									"type": "address"
								},
								{
									"internalType": "address[]",
									"name": "candidates",
									"type": "address[]"
								},
								{
									"internalType": "uint32",
									"name": "maxNoOfCandidates",
									"type": "uint32"
								},
								{
									"internalType": "uint32",
									"name": "currentNoOfCandidates",
									"type": "uint32"
								},
								{
									"internalType": "bool",
									"name": "voting",
									"type": "bool"
								}
							],
							"internalType": "struct Voting.VotingPoll[]",
							"name": "",
							"type": "tuple[]"
						}
					],
					"stateMutability": "nonpayable",
					"type": "function"
				},
				{
					"inputs": [
						{
							"internalType": "uint256",
							"name": "_id",
							"type": "uint256"
						}
					],
					"name": "getVotePollProps",
					"outputs": [
						{
							"components": [
								{
									"internalType": "string",
									"name": "name",
									"type": "string"
								},
								{
									"internalType": "address",
									"name": "chairman",
									"type": "address"
								},
								{
									"internalType": "address[]",
									"name": "candidates",
									"type": "address[]"
								},
								{
									"internalType": "uint32",
									"name": "maxNoOfCandidates",
									"type": "uint32"
								},
								{
									"internalType": "uint32",
									"name": "currentNoOfCandidates",
									"type": "uint32"
								},
								{
									"internalType": "bool",
									"name": "voting",
									"type": "bool"
								}
							],
							"internalType": "struct Voting.VotingPoll",
							"name": "",
							"type": "tuple"
						}
					],
					"stateMutability": "view",
					"type": "function"
				},
				{
					"inputs": [
						{
							"internalType": "address",
							"name": "Cand",
							"type": "address"
						},
						{
							"internalType": "uint256",
							"name": "_id",
							"type": "uint256"
						},
						{
							"internalType": "uint256",
							"name": "nonce",
							"type": "uint256"
						},
						{
							"internalType": "uint256",
							"name": "time",
							"type": "uint256"
						}
					],
					"name": "metaVotingHash",
					"outputs": [
						{
							"internalType": "bytes32",
							"name": "",
							"type": "bytes32"
						}
					],
					"stateMutability": "view",
					"type": "function"
				},
				{
					"inputs": [
						{
							"internalType": "address",
							"name": "",
							"type": "address"
						}
					],
					"name": "replayNonce",
					"outputs": [
						{
							"internalType": "uint256",
							"name": "",
							"type": "uint256"
						}
					],
					"stateMutability": "view",
					"type": "function"
				},
				{
					"inputs": [
						{
							"internalType": "uint256",
							"name": "_id",
							"type": "uint256"
						}
					],
					"name": "revealWinner",
					"outputs": [
						{
							"internalType": "uint256[]",
							"name": "CV",
							"type": "uint256[]"
						},
						{
							"internalType": "address",
							"name": "",
							"type": "address"
						},
						{
							"internalType": "uint256",
							"name": "",
							"type": "uint256"
						}
					],
					"stateMutability": "view",
					"type": "function"
				},
				{
					"inputs": [
						{
							"internalType": "uint256",
							"name": "_id",
							"type": "uint256"
						}
					],
					"name": "setVotingState",
					"outputs": [],
					"stateMutability": "nonpayable",
					"type": "function"
				},
				{
					"inputs": [
						{
							"internalType": "address",
							"name": "Cand",
							"type": "address"
						},
						{
							"internalType": "uint256",
							"name": "_id",
							"type": "uint256"
						},
						{
							"internalType": "uint256",
							"name": "nonce",
							"type": "uint256"
						},
						{
							"internalType": "bytes",
							"name": "signature",
							"type": "bytes"
						}
					],
					"name": "vote",
					"outputs": [],
					"stateMutability": "nonpayable",
					"type": "function"
				},
				{
					"inputs": [
						{
							"internalType": "uint256",
							"name": "",
							"type": "uint256"
						}
					],
					"name": "votingPoll",
					"outputs": [
						{
							"internalType": "string",
							"name": "name",
							"type": "string"
						},
						{
							"internalType": "address",
							"name": "chairman",
							"type": "address"
						},
						{
							"internalType": "uint32",
							"name": "maxNoOfCandidates",
							"type": "uint32"
						},
						{
							"internalType": "uint32",
							"name": "currentNoOfCandidates",
							"type": "uint32"
						},
						{
							"internalType": "bool",
							"name": "voting",
							"type": "bool"
						}
					],
					"stateMutability": "view",
					"type": "function"
				}
			],
			"devdoc": {
				"kind": "dev",
				"methods": {},
				"version": 1
			},
			"evm": {
				"assembly": "    /* \"src/voting.sol\":63:5422  contract Voting{... */\n  mstore(0x40, 0x80)\n    /* \"src/voting.sol\":159:160  1 */\n  0x01\n    /* \"src/voting.sol\":149:160  uint id = 1 */\n  0x00\n  sstore\n    /* \"src/voting.sol\":63:5422  contract Voting{... */\n  callvalue\n  dup1\n  iszero\n  tag_1\n  jumpi\n  0x00\n  dup1\n  revert\ntag_1:\n  pop\n  dataSize(sub_0)\n  dup1\n  dataOffset(sub_0)\n  0x00\n  codecopy\n  0x00\n  return\nstop\n\nsub_0: assembly {\n        /* \"src/voting.sol\":63:5422  contract Voting{... */\n      mstore(0x40, 0x80)\n      callvalue\n      dup1\n      iszero\n      tag_1\n      jumpi\n      0x00\n      dup1\n      revert\n    tag_1:\n      pop\n      jumpi(tag_2, lt(calldatasize, 0x04))\n      shr(0xe0, calldataload(0x00))\n      dup1\n      0xae928e3e\n      gt\n      tag_15\n      jumpi\n      dup1\n      0xae928e3e\n      eq\n      tag_9\n      jumpi\n      dup1\n      0xbfe2e25d\n      eq\n      tag_10\n      jumpi\n      dup1\n      0xc10d6cec\n      eq\n      tag_11\n      jumpi\n      dup1\n      0xc57003cc\n      eq\n      tag_12\n      jumpi\n      dup1\n      0xe615f104\n      eq\n      tag_13\n      jumpi\n      dup1\n      0xf762f4c0\n      eq\n      tag_14\n      jumpi\n      jump(tag_2)\n    tag_15:\n      dup1\n      0x049d1c8b\n      eq\n      tag_3\n      jumpi\n      dup1\n      0x278e2c90\n      eq\n      tag_4\n      jumpi\n      dup1\n      0x66c5343b\n      eq\n      tag_5\n      jumpi\n      dup1\n      0x67d407df\n      eq\n      tag_6\n      jumpi\n      dup1\n      0x8ac3c3c2\n      eq\n      tag_7\n      jumpi\n      dup1\n      0x8ccb59e8\n      eq\n      tag_8\n      jumpi\n    tag_2:\n      0x00\n      dup1\n      revert\n        /* \"src/voting.sol\":1990:2491  function AddCandidate(address _newCandidate, uint _id) external{... */\n    tag_3:\n      tag_16\n      0x04\n      dup1\n      calldatasize\n      sub\n      dup2\n      add\n      swap1\n      tag_17\n      swap2\n      swap1\n      tag_18\n      jump\t// in\n    tag_17:\n      tag_19\n      jump\t// in\n    tag_16:\n      stop\n        /* \"src/voting.sol\":4502:4612  function getVotePollProps(uint _id) external view returns(VotingPoll memory){... */\n    tag_4:\n      tag_20\n      0x04\n      dup1\n      calldatasize\n      sub\n      dup2\n      add\n      swap1\n      tag_21\n      swap2\n      swap1\n      tag_22\n      jump\t// in\n    tag_21:\n      tag_23\n      jump\t// in\n    tag_20:\n      mload(0x40)\n      tag_24\n      swap2\n      swap1\n      tag_25\n      jump\t// in\n    tag_24:\n      mload(0x40)\n      dup1\n      swap2\n      sub\n      swap1\n      return\n        /* \"src/voting.sol\":3410:3568  function NoOfRegisteredCandidates( uint _id) public view returns(uint){... */\n    tag_5:\n      tag_26\n      0x04\n      dup1\n      calldatasize\n      sub\n      dup2\n      add\n      swap1\n      tag_27\n      swap2\n      swap1\n      tag_22\n      jump\t// in\n    tag_27:\n      tag_28\n      jump\t// in\n    tag_26:\n      mload(0x40)\n      tag_29\n      swap2\n      swap1\n      tag_30\n      jump\t// in\n    tag_29:\n      mload(0x40)\n      dup1\n      swap2\n      sub\n      swap1\n      return\n        /* \"src/voting.sol\":599:646  mapping (address => uint256) public replayNonce */\n    tag_6:\n      tag_31\n      0x04\n      dup1\n      calldatasize\n      sub\n      dup2\n      add\n      swap1\n      tag_32\n      swap2\n      swap1\n      tag_33\n      jump\t// in\n    tag_32:\n      tag_34\n      jump\t// in\n    tag_31:\n      mload(0x40)\n      tag_35\n      swap2\n      swap1\n      tag_30\n      jump\t// in\n    tag_35:\n      mload(0x40)\n      dup1\n      swap2\n      sub\n      swap1\n      return\n        /* \"src/voting.sol\":3576:3736  function AllCandidates( uint _id) public view returns(address[] memory _candidates){... */\n    tag_7:\n      tag_36\n      0x04\n      dup1\n      calldatasize\n      sub\n      dup2\n      add\n      swap1\n      tag_37\n      swap2\n      swap1\n      tag_22\n      jump\t// in\n    tag_37:\n      tag_38\n      jump\t// in\n    tag_36:\n      mload(0x40)\n      tag_39\n      swap2\n      swap1\n      tag_40\n      jump\t// in\n    tag_39:\n      mload(0x40)\n      dup1\n      swap2\n      sub\n      swap1\n      return\n        /* \"src/voting.sol\":3739:4318  function revealWinner( uint _id) external view returns ( uint[] memory CV, address, uint){... */\n    tag_8:\n      tag_41\n      0x04\n      dup1\n      calldatasize\n      sub\n      dup2\n      add\n      swap1\n      tag_42\n      swap2\n      swap1\n      tag_22\n      jump\t// in\n    tag_42:\n      tag_43\n      jump\t// in\n    tag_41:\n      mload(0x40)\n      tag_44\n      swap4\n      swap3\n      swap2\n      swap1\n      tag_45\n      jump\t// in\n    tag_44:\n      mload(0x40)\n      dup1\n      swap2\n      sub\n      swap1\n      return\n        /* \"src/voting.sol\":459:488  VotingPoll[] public VotingKey */\n    tag_9:\n      tag_46\n      0x04\n      dup1\n      calldatasize\n      sub\n      dup2\n      add\n      swap1\n      tag_47\n      swap2\n      swap1\n      tag_22\n      jump\t// in\n    tag_47:\n      tag_48\n      jump\t// in\n    tag_46:\n      mload(0x40)\n      tag_49\n      swap6\n      swap5\n      swap4\n      swap3\n      swap2\n      swap1\n      tag_50\n      jump\t// in\n    tag_49:\n      mload(0x40)\n      dup1\n      swap2\n      sub\n      swap1\n      return\n        /* \"src/voting.sol\":4617:4832  function metaVotingHash(address Cand, uint _id, uint256 nonce, uint256 time) public view returns(bytes32){... */\n    tag_10:\n      tag_51\n      0x04\n      dup1\n      calldatasize\n      sub\n      dup2\n      add\n      swap1\n      tag_52\n      swap2\n      swap1\n      tag_53\n      jump\t// in\n    tag_52:\n      tag_54\n      jump\t// in\n    tag_51:\n      mload(0x40)\n      tag_55\n      swap2\n      swap1\n      tag_56\n      jump\t// in\n    tag_55:\n      mload(0x40)\n      dup1\n      swap2\n      sub\n      swap1\n      return\n        /* \"src/voting.sol\":2494:2986  function vote(address Cand, uint _id, uint256 nonce, bytes memory signature) external  isCandidate(Cand, _id) StillVoting(_id){... */\n    tag_11:\n      tag_57\n      0x04\n      dup1\n      calldatasize\n      sub\n      dup2\n      add\n      swap1\n      tag_58\n      swap2\n      swap1\n      tag_59\n      jump\t// in\n    tag_58:\n      tag_60\n      jump\t// in\n    tag_57:\n      stop\n        /* \"src/voting.sol\":3185:3407  function setVotingState( uint _id) external {... */\n    tag_12:\n      tag_61\n      0x04\n      dup1\n      calldatasize\n      sub\n      dup2\n      add\n      swap1\n      tag_62\n      swap2\n      swap1\n      tag_22\n      jump\t// in\n    tag_62:\n      tag_63\n      jump\t// in\n    tag_61:\n      stop\n        /* \"src/voting.sol\":552:597  mapping(uint => VotingPoll) public votingPoll */\n    tag_13:\n      tag_64\n      0x04\n      dup1\n      calldatasize\n      sub\n      dup2\n      add\n      swap1\n      tag_65\n      swap2\n      swap1\n      tag_22\n      jump\t// in\n    tag_65:\n      tag_66\n      jump\t// in\n    tag_64:\n      mload(0x40)\n      tag_67\n      swap6\n      swap5\n      swap4\n      swap3\n      swap2\n      swap1\n      tag_50\n      jump\t// in\n    tag_67:\n      mload(0x40)\n      dup1\n      swap2\n      sub\n      swap1\n      return\n        /* \"src/voting.sol\":1607:1986  function createPoll(string memory _name, uint32 ExpectedNoOfCandidate) external returns(VotingPoll[] memory ){... */\n    tag_14:\n      tag_68\n      0x04\n      dup1\n      calldatasize\n      sub\n      dup2\n      add\n      swap1\n      tag_69\n      swap2\n      swap1\n      tag_70\n      jump\t// in\n    tag_69:\n      tag_71\n      jump\t// in\n    tag_68:\n      mload(0x40)\n      tag_72\n      swap2\n      swap1\n      tag_73\n      jump\t// in\n    tag_72:\n      mload(0x40)\n      dup1\n      swap2\n      sub\n      swap1\n      return\n        /* \"src/voting.sol\":1990:2491  function AddCandidate(address _newCandidate, uint _id) external{... */\n    tag_19:\n        /* \"src/voting.sol\":2060:2081  VotingPoll storage VP */\n      0x00\n        /* \"src/voting.sol\":2084:2094  votingPoll */\n      0x02\n        /* \"src/voting.sol\":2084:2099  votingPoll[_id] */\n      0x00\n        /* \"src/voting.sol\":2095:2098  _id */\n      dup4\n        /* \"src/voting.sol\":2084:2099  votingPoll[_id] */\n      dup2\n      mstore\n      0x20\n      add\n      swap1\n      dup2\n      mstore\n      0x20\n      add\n      0x00\n      keccak256\n        /* \"src/voting.sol\":2060:2099  VotingPoll storage VP = votingPoll[_id] */\n      swap1\n      pop\n        /* \"src/voting.sol\":2138:2139  0 */\n      0x00\n        /* \"src/voting.sol\":2115:2140  VP.chairman != address(0) */\n      0xffffffffffffffffffffffffffffffffffffffff\n      and\n        /* \"src/voting.sol\":2115:2117  VP */\n      dup2\n        /* \"src/voting.sol\":2115:2126  VP.chairman */\n      0x01\n      add\n      0x00\n      swap1\n      sload\n      swap1\n      0x0100\n      exp\n      swap1\n      div\n      0xffffffffffffffffffffffffffffffffffffffff\n      and\n        /* \"src/voting.sol\":2115:2140  VP.chairman != address(0) */\n      0xffffffffffffffffffffffffffffffffffffffff\n      and\n      eq\n      iszero\n        /* \"src/voting.sol\":2106:2166  require (VP.chairman != address(0) , \"yet to create a poll\") */\n      tag_75\n      jumpi\n      mload(0x40)\n      0x08c379a000000000000000000000000000000000000000000000000000000000\n      dup2\n      mstore\n      0x04\n      add\n      tag_76\n      swap1\n      tag_77\n      jump\t// in\n    tag_76:\n      mload(0x40)\n      dup1\n      swap2\n      sub\n      swap1\n      revert\n    tag_75:\n        /* \"src/voting.sol\":2197:2207  msg.sender */\n      caller\n        /* \"src/voting.sol\":2182:2207  VP.chairman == msg.sender */\n      0xffffffffffffffffffffffffffffffffffffffff\n      and\n        /* \"src/voting.sol\":2182:2184  VP */\n      dup2\n        /* \"src/voting.sol\":2182:2193  VP.chairman */\n      0x01\n      add\n      0x00\n      swap1\n      sload\n      swap1\n      0x0100\n      exp\n      swap1\n      div\n      0xffffffffffffffffffffffffffffffffffffffff\n      and\n        /* \"src/voting.sol\":2182:2207  VP.chairman == msg.sender */\n      0xffffffffffffffffffffffffffffffffffffffff\n      and\n      eq\n        /* \"src/voting.sol\":2175:2208  assert(VP.chairman == msg.sender) */\n      tag_78\n      jumpi\n      tag_79\n      tag_80\n      jump\t// in\n    tag_79:\n    tag_78:\n        /* \"src/voting.sol\":2250:2252  VP */\n      dup1\n        /* \"src/voting.sol\":2250:2270  VP.maxNoOfCandidates */\n      0x03\n      add\n      0x00\n      swap1\n      sload\n      swap1\n      0x0100\n      exp\n      swap1\n      div\n      0xffffffff\n      and\n        /* \"src/voting.sol\":2223:2270  VP.currentNoOfCandidates < VP.maxNoOfCandidates */\n      0xffffffff\n      and\n        /* \"src/voting.sol\":2223:2225  VP */\n      dup2\n        /* \"src/voting.sol\":2223:2247  VP.currentNoOfCandidates */\n      0x03\n      add\n      0x04\n      swap1\n      sload\n      swap1\n      0x0100\n      exp\n      swap1\n      div\n      0xffffffff\n      and\n        /* \"src/voting.sol\":2223:2270  VP.currentNoOfCandidates < VP.maxNoOfCandidates */\n      0xffffffff\n      and\n      lt\n        /* \"src/voting.sol\":2215:2321  require(VP.currentNoOfCandidates < VP.maxNoOfCandidates, \"maximum no of candidate per session registered\") */\n      tag_81\n      jumpi\n      mload(0x40)\n      0x08c379a000000000000000000000000000000000000000000000000000000000\n      dup2\n      mstore\n      0x04\n      add\n      tag_82\n      swap1\n      tag_83\n      jump\t// in\n    tag_82:\n      mload(0x40)\n      dup1\n      swap2\n      sub\n      swap1\n      revert\n    tag_81:\n        /* \"src/voting.sol\":2366:2370  true */\n      0x01\n        /* \"src/voting.sol\":2328:2343  CandidateStatus */\n      0x04\n        /* \"src/voting.sol\":2328:2348  CandidateStatus[_id] */\n      0x00\n        /* \"src/voting.sol\":2344:2347  _id */\n      dup5\n        /* \"src/voting.sol\":2328:2348  CandidateStatus[_id] */\n      dup2\n      mstore\n      0x20\n      add\n      swap1\n      dup2\n      mstore\n      0x20\n      add\n      0x00\n      keccak256\n        /* \"src/voting.sol\":2328:2363  CandidateStatus[_id][_newCandidate] */\n      0x00\n        /* \"src/voting.sol\":2349:2362  _newCandidate */\n      dup6\n        /* \"src/voting.sol\":2328:2363  CandidateStatus[_id][_newCandidate] */\n      0xffffffffffffffffffffffffffffffffffffffff\n      and\n      0xffffffffffffffffffffffffffffffffffffffff\n      and\n      dup2\n      mstore\n      0x20\n      add\n      swap1\n      dup2\n      mstore\n      0x20\n      add\n      0x00\n      keccak256\n      0x00\n        /* \"src/voting.sol\":2328:2370  CandidateStatus[_id][_newCandidate] = true */\n      0x0100\n      exp\n      dup2\n      sload\n      dup2\n      0xff\n      mul\n      not\n      and\n      swap1\n      dup4\n      iszero\n      iszero\n      mul\n      or\n      swap1\n      sstore\n      pop\n        /* \"src/voting.sol\":2378:2380  VP */\n      dup1\n        /* \"src/voting.sol\":2378:2391  VP.candidates */\n      0x02\n      add\n        /* \"src/voting.sol\":2397:2410  _newCandidate */\n      dup4\n        /* \"src/voting.sol\":2378:2411  VP.candidates.push(_newCandidate) */\n      swap1\n      dup1\n      0x01\n      dup2\n      sload\n      add\n      dup1\n      dup3\n      sstore\n      dup1\n      swap2\n      pop\n      pop\n      0x01\n      swap1\n      sub\n      swap1\n      0x00\n      mstore\n      keccak256(0x00, 0x20)\n      add\n      0x00\n      swap1\n      swap2\n      swap1\n      swap2\n      swap1\n      swap2\n      0x0100\n      exp\n      dup2\n      sload\n      dup2\n      0xffffffffffffffffffffffffffffffffffffffff\n      mul\n      not\n      and\n      swap1\n      dup4\n      0xffffffffffffffffffffffffffffffffffffffff\n      and\n      mul\n      or\n      swap1\n      sstore\n      pop\n        /* \"src/voting.sol\":2419:2421  VP */\n      dup1\n        /* \"src/voting.sol\":2419:2443  VP.currentNoOfCandidates */\n      0x03\n      add\n      0x04\n        /* \"src/voting.sol\":2419:2445  VP.currentNoOfCandidates++ */\n      dup2\n      dup2\n      swap1\n      sload\n      swap1\n      0x0100\n      exp\n      swap1\n      div\n      0xffffffff\n      and\n      dup1\n      swap3\n      swap2\n      swap1\n      tag_85\n      swap1\n      tag_86\n      jump\t// in\n    tag_85:\n      swap2\n      swap1\n      0x0100\n      exp\n      dup2\n      sload\n      dup2\n      0xffffffff\n      mul\n      not\n      and\n      swap1\n      dup4\n      0xffffffff\n      and\n      mul\n      or\n      swap1\n      sstore\n      pop\n      pop\n        /* \"src/voting.sol\":2457:2487  becameCandidate(_newCandidate) */\n      0xc19c59aa93348e8fc54764bc642eca975e2639f44cc683ef8f027e1529cbda32\n        /* \"src/voting.sol\":2473:2486  _newCandidate */\n      dup4\n        /* \"src/voting.sol\":2457:2487  becameCandidate(_newCandidate) */\n      mload(0x40)\n      tag_87\n      swap2\n      swap1\n      tag_88\n      jump\t// in\n    tag_87:\n      mload(0x40)\n      dup1\n      swap2\n      sub\n      swap1\n      log1\n        /* \"src/voting.sol\":2053:2491  {... */\n      pop\n        /* \"src/voting.sol\":1990:2491  function AddCandidate(address _newCandidate, uint _id) external{... */\n      pop\n      pop\n      jump\t// out\n        /* \"src/voting.sol\":4502:4612  function getVotePollProps(uint _id) external view returns(VotingPoll memory){... */\n    tag_23:\n        /* \"src/voting.sol\":4560:4577  VotingPoll memory */\n      tag_89\n      tag_90\n      jump\t// in\n    tag_89:\n        /* \"src/voting.sol\":4502:4612  function getVotePollProps(uint _id) external view returns(VotingPoll memory){... */\n      swap2\n      swap1\n      pop\n      jump\t// out\n        /* \"src/voting.sol\":3410:3568  function NoOfRegisteredCandidates( uint _id) public view returns(uint){... */\n    tag_28:\n        /* \"src/voting.sol\":3475:3479  uint */\n      0x00\n        /* \"src/voting.sol\":3487:3508  VotingPoll storage VP */\n      dup1\n        /* \"src/voting.sol\":3511:3521  votingPoll */\n      0x02\n        /* \"src/voting.sol\":3511:3526  votingPoll[_id] */\n      0x00\n        /* \"src/voting.sol\":3522:3525  _id */\n      dup5\n        /* \"src/voting.sol\":3511:3526  votingPoll[_id] */\n      dup2\n      mstore\n      0x20\n      add\n      swap1\n      dup2\n      mstore\n      0x20\n      add\n      0x00\n      keccak256\n        /* \"src/voting.sol\":3487:3526  VotingPoll storage VP = votingPoll[_id] */\n      swap1\n      pop\n        /* \"src/voting.sol\":3540:3542  VP */\n      dup1\n        /* \"src/voting.sol\":3540:3564  VP.currentNoOfCandidates */\n      0x03\n      add\n      0x04\n      swap1\n      sload\n      swap1\n      0x0100\n      exp\n      swap1\n      div\n      0xffffffff\n      and\n        /* \"src/voting.sol\":3533:3564  return VP.currentNoOfCandidates */\n      0xffffffff\n      and\n      swap2\n      pop\n      pop\n        /* \"src/voting.sol\":3410:3568  function NoOfRegisteredCandidates( uint _id) public view returns(uint){... */\n      swap2\n      swap1\n      pop\n      jump\t// out\n        /* \"src/voting.sol\":599:646  mapping (address => uint256) public replayNonce */\n    tag_34:\n      mstore(0x20, 0x03)\n      dup1\n      0x00\n      mstore\n      keccak256(0x00, 0x40)\n      0x00\n      swap2\n      pop\n      swap1\n      pop\n      sload\n      dup2\n      jump\t// out\n        /* \"src/voting.sol\":3576:3736  function AllCandidates( uint _id) public view returns(address[] memory _candidates){... */\n    tag_38:\n        /* \"src/voting.sol\":3630:3658  address[] memory _candidates */\n      0x60\n        /* \"src/voting.sol\":3666:3687  VotingPoll storage VP */\n      0x00\n        /* \"src/voting.sol\":3690:3700  votingPoll */\n      0x02\n        /* \"src/voting.sol\":3690:3705  votingPoll[_id] */\n      0x00\n        /* \"src/voting.sol\":3701:3704  _id */\n      dup5\n        /* \"src/voting.sol\":3690:3705  votingPoll[_id] */\n      dup2\n      mstore\n      0x20\n      add\n      swap1\n      dup2\n      mstore\n      0x20\n      add\n      0x00\n      keccak256\n        /* \"src/voting.sol\":3666:3705  VotingPoll storage VP = votingPoll[_id] */\n      swap1\n      pop\n        /* \"src/voting.sol\":3719:3721  VP */\n      dup1\n        /* \"src/voting.sol\":3719:3732  VP.candidates */\n      0x02\n      add\n        /* \"src/voting.sol\":3712:3732  return VP.candidates */\n      dup1\n      sload\n      dup1\n      0x20\n      mul\n      0x20\n      add\n      mload(0x40)\n      swap1\n      dup2\n      add\n      0x40\n      mstore\n      dup1\n      swap3\n      swap2\n      swap1\n      dup2\n      dup2\n      mstore\n      0x20\n      add\n      dup3\n      dup1\n      sload\n      dup1\n      iszero\n      tag_94\n      jumpi\n      0x20\n      mul\n      dup3\n      add\n      swap2\n      swap1\n      0x00\n      mstore\n      keccak256(0x00, 0x20)\n      swap1\n    tag_95:\n      dup2\n      0x00\n      swap1\n      sload\n      swap1\n      0x0100\n      exp\n      swap1\n      div\n      0xffffffffffffffffffffffffffffffffffffffff\n      and\n      0xffffffffffffffffffffffffffffffffffffffff\n      and\n      dup2\n      mstore\n      0x20\n      add\n      swap1\n      0x01\n      add\n      swap1\n      dup1\n      dup4\n      gt\n      tag_95\n      jumpi\n    tag_94:\n      pop\n      pop\n      pop\n      pop\n      pop\n      swap2\n      pop\n      pop\n        /* \"src/voting.sol\":3576:3736  function AllCandidates( uint _id) public view returns(address[] memory _candidates){... */\n      swap2\n      swap1\n      pop\n      jump\t// out\n        /* \"src/voting.sol\":3739:4318  function revealWinner( uint _id) external view returns ( uint[] memory CV, address, uint){... */\n    tag_43:\n        /* \"src/voting.sol\":3796:3812  uint[] memory CV */\n      0x60\n        /* \"src/voting.sol\":3814:3821  address */\n      0x00\n        /* \"src/voting.sol\":3823:3827  uint */\n      dup1\n        /* \"src/voting.sol\":3835:3856  VotingPoll storage VP */\n      0x00\n        /* \"src/voting.sol\":3859:3869  votingPoll */\n      0x02\n        /* \"src/voting.sol\":3859:3874  votingPoll[_id] */\n      0x00\n        /* \"src/voting.sol\":3870:3873  _id */\n      dup7\n        /* \"src/voting.sol\":3859:3874  votingPoll[_id] */\n      dup2\n      mstore\n      0x20\n      add\n      swap1\n      dup2\n      mstore\n      0x20\n      add\n      0x00\n      keccak256\n        /* \"src/voting.sol\":3835:3874  VotingPoll storage VP = votingPoll[_id] */\n      swap1\n      pop\n        /* \"src/voting.sol\":3912:3913  0 */\n      0x00\n        /* \"src/voting.sol\":3889:3914  VP.chairman != address(0) */\n      0xffffffffffffffffffffffffffffffffffffffff\n      and\n        /* \"src/voting.sol\":3889:3891  VP */\n      dup2\n        /* \"src/voting.sol\":3889:3900  VP.chairman */\n      0x01\n      add\n      0x00\n      swap1\n      sload\n      swap1\n      0x0100\n      exp\n      swap1\n      div\n      0xffffffffffffffffffffffffffffffffffffffff\n      and\n        /* \"src/voting.sol\":3889:3914  VP.chairman != address(0) */\n      0xffffffffffffffffffffffffffffffffffffffff\n      and\n      eq\n      iszero\n        /* \"src/voting.sol\":3881:3934  require(VP.chairman != address(0), \"No poll created\") */\n      tag_97\n      jumpi\n      mload(0x40)\n      0x08c379a000000000000000000000000000000000000000000000000000000000\n      dup2\n      mstore\n      0x04\n      add\n      tag_98\n      swap1\n      tag_99\n      jump\t// in\n    tag_98:\n      mload(0x40)\n      dup1\n      swap2\n      sub\n      swap1\n      revert\n    tag_97:\n        /* \"src/voting.sol\":3957:3959  VP */\n      dup1\n        /* \"src/voting.sol\":3957:3970  VP.candidates */\n      0x02\n      add\n        /* \"src/voting.sol\":3957:3977  VP.candidates.length */\n      dup1\n      sload\n      swap1\n      pop\n        /* \"src/voting.sol\":3946:3978  new uint[](VP.candidates.length) */\n      0xffffffffffffffff\n      dup2\n      gt\n      iszero\n      tag_100\n      jumpi\n      tag_101\n      tag_102\n      jump\t// in\n    tag_101:\n    tag_100:\n      mload(0x40)\n      swap1\n      dup1\n      dup3\n      mstore\n      dup1\n      0x20\n      mul\n      0x20\n      add\n      dup3\n      add\n      0x40\n      mstore\n      dup1\n      iszero\n      tag_103\n      jumpi\n      dup2\n      0x20\n      add\n      0x20\n      dup3\n      mul\n      dup1\n      calldatasize\n      dup4\n      calldatacopy\n      dup1\n      dup3\n      add\n      swap2\n      pop\n      pop\n      swap1\n      pop\n    tag_103:\n      pop\n        /* \"src/voting.sol\":3941:3978  CV = new uint[](VP.candidates.length) */\n      swap4\n      pop\n        /* \"src/voting.sol\":3985:4001  uint highestVote */\n      0x00\n        /* \"src/voting.sol\":4008:4022  address winner */\n      dup1\n        /* \"src/voting.sol\":4034:4040  uint i */\n      0x00\n        /* \"src/voting.sol\":4029:4276  for (uint i =0; i <= VP.candidates.length; i++){... */\n    tag_104:\n        /* \"src/voting.sol\":4050:4052  VP */\n      dup4\n        /* \"src/voting.sol\":4050:4063  VP.candidates */\n      0x02\n      add\n        /* \"src/voting.sol\":4050:4070  VP.candidates.length */\n      dup1\n      sload\n      swap1\n      pop\n        /* \"src/voting.sol\":4045:4046  i */\n      dup2\n        /* \"src/voting.sol\":4045:4070  i <= VP.candidates.length */\n      gt\n        /* \"src/voting.sol\":4029:4276  for (uint i =0; i <= VP.candidates.length; i++){... */\n      tag_105\n      jumpi\n        /* \"src/voting.sol\":4085:4093  uint val */\n      0x00\n        /* \"src/voting.sol\":4096:4114  getPosition(_id,i) */\n      tag_107\n        /* \"src/voting.sol\":4108:4111  _id */\n      dup10\n        /* \"src/voting.sol\":4112:4113  i */\n      dup4\n        /* \"src/voting.sol\":4096:4107  getPosition */\n      tag_108\n        /* \"src/voting.sol\":4096:4114  getPosition(_id,i) */\n      jump\t// in\n    tag_107:\n        /* \"src/voting.sol\":4085:4114  uint val = getPosition(_id,i) */\n      swap1\n      pop\n        /* \"src/voting.sol\":4130:4141  highestVote */\n      dup4\n        /* \"src/voting.sol\":4124:4127  val */\n      dup2\n        /* \"src/voting.sol\":4124:4141  val > highestVote */\n      gt\n        /* \"src/voting.sol\":4121:4215  if(val > highestVote){... */\n      iszero\n      tag_109\n      jumpi\n        /* \"src/voting.sol\":4167:4170  val */\n      dup1\n        /* \"src/voting.sol\":4153:4170  highestVote = val */\n      swap4\n      pop\n        /* \"src/voting.sol\":4191:4193  VP */\n      dup5\n        /* \"src/voting.sol\":4191:4204  VP.candidates */\n      0x02\n      add\n        /* \"src/voting.sol\":4205:4206  i */\n      dup3\n        /* \"src/voting.sol\":4191:4207  VP.candidates[i] */\n      dup2\n      sload\n      dup2\n      lt\n      tag_110\n      jumpi\n      tag_111\n      tag_112\n      jump\t// in\n    tag_111:\n    tag_110:\n      swap1\n      0x00\n      mstore\n      keccak256(0x00, 0x20)\n      add\n      0x00\n      swap1\n      sload\n      swap1\n      0x0100\n      exp\n      swap1\n      div\n      0xffffffffffffffffffffffffffffffffffffffff\n      and\n        /* \"src/voting.sol\":4182:4207  winner = VP.candidates[i] */\n      swap3\n      pop\n        /* \"src/voting.sol\":4121:4215  if(val > highestVote){... */\n    tag_109:\n        /* \"src/voting.sol\":4230:4243  CandidateVote */\n      0x05\n        /* \"src/voting.sol\":4230:4248  CandidateVote[_id] */\n      0x00\n        /* \"src/voting.sol\":4244:4247  _id */\n      dup11\n        /* \"src/voting.sol\":4230:4248  CandidateVote[_id] */\n      dup2\n      mstore\n      0x20\n      add\n      swap1\n      dup2\n      mstore\n      0x20\n      add\n      0x00\n      keccak256\n        /* \"src/voting.sol\":4230:4266  CandidateVote[_id][VP.candidates[i]] */\n      0x00\n        /* \"src/voting.sol\":4249:4251  VP */\n      dup7\n        /* \"src/voting.sol\":4249:4262  VP.candidates */\n      0x02\n      add\n        /* \"src/voting.sol\":4263:4264  i */\n      dup5\n        /* \"src/voting.sol\":4249:4265  VP.candidates[i] */\n      dup2\n      sload\n      dup2\n      lt\n      tag_114\n      jumpi\n      tag_115\n      tag_112\n      jump\t// in\n    tag_115:\n    tag_114:\n      swap1\n      0x00\n      mstore\n      keccak256(0x00, 0x20)\n      add\n      0x00\n      swap1\n      sload\n      swap1\n      0x0100\n      exp\n      swap1\n      div\n      0xffffffffffffffffffffffffffffffffffffffff\n      and\n        /* \"src/voting.sol\":4230:4266  CandidateVote[_id][VP.candidates[i]] */\n      0xffffffffffffffffffffffffffffffffffffffff\n      and\n      0xffffffffffffffffffffffffffffffffffffffff\n      and\n      dup2\n      mstore\n      0x20\n      add\n      swap1\n      dup2\n      mstore\n      0x20\n      add\n      0x00\n      keccak256\n      sload\n        /* \"src/voting.sol\":4221:4223  CV */\n      dup9\n        /* \"src/voting.sol\":4224:4225  i */\n      dup4\n        /* \"src/voting.sol\":4221:4226  CV[i] */\n      dup2\n      mload\n      dup2\n      lt\n      tag_117\n      jumpi\n      tag_118\n      tag_112\n      jump\t// in\n    tag_118:\n    tag_117:\n      0x20\n      mul\n      0x20\n      add\n      add\n        /* \"src/voting.sol\":4221:4267  CV[i] = (CandidateVote[_id][VP.candidates[i]]) */\n      dup2\n      dup2\n      mstore\n      pop\n      pop\n        /* \"src/voting.sol\":4076:4276  {... */\n      pop\n        /* \"src/voting.sol\":4072:4075  i++ */\n      dup1\n      dup1\n      tag_119\n      swap1\n      tag_120\n      jump\t// in\n    tag_119:\n      swap2\n      pop\n      pop\n        /* \"src/voting.sol\":4029:4276  for (uint i =0; i <= VP.candidates.length; i++){... */\n      jump(tag_104)\n    tag_105:\n      pop\n        /* \"src/voting.sol\":4290:4292  CV */\n      dup6\n        /* \"src/voting.sol\":4294:4300  winner */\n      dup2\n        /* \"src/voting.sol\":4302:4313  highestVote */\n      dup4\n        /* \"src/voting.sol\":4282:4314  return (CV, winner, highestVote) */\n      swap6\n      pop\n      swap6\n      pop\n      swap6\n      pop\n      pop\n      pop\n      pop\n        /* \"src/voting.sol\":3739:4318  function revealWinner( uint _id) external view returns ( uint[] memory CV, address, uint){... */\n      swap2\n      swap4\n      swap1\n      swap3\n      pop\n      jump\t// out\n        /* \"src/voting.sol\":459:488  VotingPoll[] public VotingKey */\n    tag_48:\n      0x01\n      dup2\n      dup2\n      sload\n      dup2\n      lt\n      tag_121\n      jumpi\n      0x00\n      dup1\n      revert\n    tag_121:\n      swap1\n      0x00\n      mstore\n      keccak256(0x00, 0x20)\n      swap1\n      0x04\n      mul\n      add\n      0x00\n      swap2\n      pop\n      swap1\n      pop\n      dup1\n      0x00\n      add\n      dup1\n      sload\n      tag_123\n      swap1\n      tag_124\n      jump\t// in\n    tag_123:\n      dup1\n      0x1f\n      add\n      0x20\n      dup1\n      swap2\n      div\n      mul\n      0x20\n      add\n      mload(0x40)\n      swap1\n      dup2\n      add\n      0x40\n      mstore\n      dup1\n      swap3\n      swap2\n      swap1\n      dup2\n      dup2\n      mstore\n      0x20\n      add\n      dup3\n      dup1\n      sload\n      tag_125\n      swap1\n      tag_124\n      jump\t// in\n    tag_125:\n      dup1\n      iszero\n      tag_126\n      jumpi\n      dup1\n      0x1f\n      lt\n      tag_127\n      jumpi\n      0x0100\n      dup1\n      dup4\n      sload\n      div\n      mul\n      dup4\n      mstore\n      swap2\n      0x20\n      add\n      swap2\n      jump(tag_126)\n    tag_127:\n      dup3\n      add\n      swap2\n      swap1\n      0x00\n      mstore\n      keccak256(0x00, 0x20)\n      swap1\n    tag_128:\n      dup2\n      sload\n      dup2\n      mstore\n      swap1\n      0x01\n      add\n      swap1\n      0x20\n      add\n      dup1\n      dup4\n      gt\n      tag_128\n      jumpi\n      dup3\n      swap1\n      sub\n      0x1f\n      and\n      dup3\n      add\n      swap2\n    tag_126:\n      pop\n      pop\n      pop\n      pop\n      pop\n      swap1\n      dup1\n      0x01\n      add\n      0x00\n      swap1\n      sload\n      swap1\n      0x0100\n      exp\n      swap1\n      div\n      0xffffffffffffffffffffffffffffffffffffffff\n      and\n      swap1\n      dup1\n      0x03\n      add\n      0x00\n      swap1\n      sload\n      swap1\n      0x0100\n      exp\n      swap1\n      div\n      0xffffffff\n      and\n      swap1\n      dup1\n      0x03\n      add\n      0x04\n      swap1\n      sload\n      swap1\n      0x0100\n      exp\n      swap1\n      div\n      0xffffffff\n      and\n      swap1\n      dup1\n      0x03\n      add\n      0x08\n      swap1\n      sload\n      swap1\n      0x0100\n      exp\n      swap1\n      div\n      0xff\n      and\n      swap1\n      pop\n      dup6\n      jump\t// out\n        /* \"src/voting.sol\":4617:4832  function metaVotingHash(address Cand, uint _id, uint256 nonce, uint256 time) public view returns(bytes32){... */\n    tag_54:\n        /* \"src/voting.sol\":4714:4721  bytes32 */\n      0x00\n        /* \"src/voting.sol\":4770:4774  this */\n      address\n        /* \"src/voting.sol\":4803:4807  Cand */\n      dup6\n        /* \"src/voting.sol\":4809:4812  _id */\n      dup6\n        /* \"src/voting.sol\":4814:4819  nonce */\n      dup6\n        /* \"src/voting.sol\":4821:4825  time */\n      dup6\n        /* \"src/voting.sol\":4745:4826  abi.encodePacked(address(this),\"metatransaction Voting \", Cand, _id, nonce, time) */\n      add(0x20, mload(0x40))\n      tag_130\n      swap6\n      swap5\n      swap4\n      swap3\n      swap2\n      swap1\n      tag_131\n      jump\t// in\n    tag_130:\n      mload(0x40)\n      0x20\n      dup2\n      dup4\n      sub\n      sub\n      dup2\n      mstore\n      swap1\n      0x40\n      mstore\n        /* \"src/voting.sol\":4735:4827  keccak256(abi.encodePacked(address(this),\"metatransaction Voting \", Cand, _id, nonce, time)) */\n      dup1\n      mload\n      swap1\n      0x20\n      add\n      keccak256\n        /* \"src/voting.sol\":4728:4827  return keccak256(abi.encodePacked(address(this),\"metatransaction Voting \", Cand, _id, nonce, time)) */\n      swap1\n      pop\n        /* \"src/voting.sol\":4617:4832  function metaVotingHash(address Cand, uint _id, uint256 nonce, uint256 time) public view returns(bytes32){... */\n      swap5\n      swap4\n      pop\n      pop\n      pop\n      pop\n      jump\t// out\n        /* \"src/voting.sol\":2494:2986  function vote(address Cand, uint _id, uint256 nonce, bytes memory signature) external  isCandidate(Cand, _id) StillVoting(_id){... */\n    tag_60:\n        /* \"src/voting.sol\":2593:2597  Cand */\n      dup4\n        /* \"src/voting.sol\":2599:2602  _id */\n      dup4\n        /* \"src/voting.sol\":1269:1273  true */\n      0x01\n        /* \"src/voting.sol\":1241:1273  CandidateStatus[_id][Cand]==true */\n      iszero\n      iszero\n        /* \"src/voting.sol\":1241:1256  CandidateStatus */\n      0x04\n        /* \"src/voting.sol\":1241:1261  CandidateStatus[_id] */\n      0x00\n        /* \"src/voting.sol\":1257:1260  _id */\n      dup4\n        /* \"src/voting.sol\":1241:1261  CandidateStatus[_id] */\n      dup2\n      mstore\n      0x20\n      add\n      swap1\n      dup2\n      mstore\n      0x20\n      add\n      0x00\n      keccak256\n        /* \"src/voting.sol\":1241:1267  CandidateStatus[_id][Cand] */\n      0x00\n        /* \"src/voting.sol\":1262:1266  Cand */\n      dup5\n        /* \"src/voting.sol\":1241:1267  CandidateStatus[_id][Cand] */\n      0xffffffffffffffffffffffffffffffffffffffff\n      and\n      0xffffffffffffffffffffffffffffffffffffffff\n      and\n      dup2\n      mstore\n      0x20\n      add\n      swap1\n      dup2\n      mstore\n      0x20\n      add\n      0x00\n      keccak256\n      0x00\n      swap1\n      sload\n      swap1\n      0x0100\n      exp\n      swap1\n      div\n      0xff\n      and\n        /* \"src/voting.sol\":1241:1273  CandidateStatus[_id][Cand]==true */\n      iszero\n      iszero\n      eq\n        /* \"src/voting.sol\":1233:1319  require(CandidateStatus[_id][Cand]==true,'This address does not exist as a candidate') */\n      tag_133\n      jumpi\n      mload(0x40)\n      0x08c379a000000000000000000000000000000000000000000000000000000000\n      dup2\n      mstore\n      0x04\n      add\n      tag_134\n      swap1\n      tag_135\n      jump\t// in\n    tag_134:\n      mload(0x40)\n      dup1\n      swap2\n      sub\n      swap1\n      revert\n    tag_133:\n        /* \"src/voting.sol\":2616:2619  _id */\n      dup5\n        /* \"src/voting.sol\":1369:1390  VotingPoll storage VP */\n      0x00\n        /* \"src/voting.sol\":1393:1403  votingPoll */\n      0x02\n        /* \"src/voting.sol\":1393:1408  votingPoll[_id] */\n      0x00\n        /* \"src/voting.sol\":1404:1407  _id */\n      dup4\n        /* \"src/voting.sol\":1393:1408  votingPoll[_id] */\n      dup2\n      mstore\n      0x20\n      add\n      swap1\n      dup2\n      mstore\n      0x20\n      add\n      0x00\n      keccak256\n        /* \"src/voting.sol\":1369:1408  VotingPoll storage VP = votingPoll[_id] */\n      swap1\n      pop\n        /* \"src/voting.sol\":1435:1439  true */\n      0x01\n        /* \"src/voting.sol\":1422:1439  VP.voting == true */\n      iszero\n      iszero\n        /* \"src/voting.sol\":1422:1424  VP */\n      dup2\n        /* \"src/voting.sol\":1422:1431  VP.voting */\n      0x03\n      add\n      0x08\n      swap1\n      sload\n      swap1\n      0x0100\n      exp\n      swap1\n      div\n      0xff\n      and\n        /* \"src/voting.sol\":1422:1439  VP.voting == true */\n      iszero\n      iszero\n      eq\n        /* \"src/voting.sol\":1414:1460  require(VP.voting == true, \"voting has ended\") */\n      tag_137\n      jumpi\n      mload(0x40)\n      0x08c379a000000000000000000000000000000000000000000000000000000000\n      dup2\n      mstore\n      0x04\n      add\n      tag_138\n      swap1\n      tag_139\n      jump\t// in\n    tag_138:\n      mload(0x40)\n      dup1\n      swap2\n      sub\n      swap1\n      revert\n    tag_137:\n        /* \"src/voting.sol\":2627:2643  bytes32 metaHash */\n      0x00\n        /* \"src/voting.sol\":2646:2692  metaVotingHash(Cand,_id,nonce,block.timestamp) */\n      tag_141\n        /* \"src/voting.sol\":2661:2665  Cand */\n      dup10\n        /* \"src/voting.sol\":2666:2669  _id */\n      dup10\n        /* \"src/voting.sol\":2670:2675  nonce */\n      dup10\n        /* \"src/voting.sol\":2676:2691  block.timestamp */\n      timestamp\n        /* \"src/voting.sol\":2646:2660  metaVotingHash */\n      tag_54\n        /* \"src/voting.sol\":2646:2692  metaVotingHash(Cand,_id,nonce,block.timestamp) */\n      jump\t// in\n    tag_141:\n        /* \"src/voting.sol\":2627:2692  bytes32 metaHash = metaVotingHash(Cand,_id,nonce,block.timestamp) */\n      swap1\n      pop\n        /* \"src/voting.sol\":2699:2713  address signer */\n      0x00\n        /* \"src/voting.sol\":2716:2745  getSigner(metaHash,signature) */\n      tag_142\n        /* \"src/voting.sol\":2726:2734  metaHash */\n      dup3\n        /* \"src/voting.sol\":2735:2744  signature */\n      dup9\n        /* \"src/voting.sol\":2716:2725  getSigner */\n      tag_143\n        /* \"src/voting.sol\":2716:2745  getSigner(metaHash,signature) */\n      jump\t// in\n    tag_142:\n        /* \"src/voting.sol\":2699:2745  address signer = getSigner(metaHash,signature) */\n      swap1\n      pop\n        /* \"src/voting.sol\":2776:2777  0 */\n      0x00\n        /* \"src/voting.sol\":2760:2778  signer!=address(0) */\n      0xffffffffffffffffffffffffffffffffffffffff\n      and\n        /* \"src/voting.sol\":2760:2766  signer */\n      dup2\n        /* \"src/voting.sol\":2760:2778  signer!=address(0) */\n      0xffffffffffffffffffffffffffffffffffffffff\n      and\n      eq\n      iszero\n        /* \"src/voting.sol\":2752:2779  require(signer!=address(0)) */\n      tag_144\n      jumpi\n      0x00\n      dup1\n      revert\n    tag_144:\n        /* \"src/voting.sol\":2802:2813  replayNonce */\n      0x03\n        /* \"src/voting.sol\":2802:2821  replayNonce[signer] */\n      0x00\n        /* \"src/voting.sol\":2814:2820  signer */\n      dup3\n        /* \"src/voting.sol\":2802:2821  replayNonce[signer] */\n      0xffffffffffffffffffffffffffffffffffffffff\n      and\n      0xffffffffffffffffffffffffffffffffffffffff\n      and\n      dup2\n      mstore\n      0x20\n      add\n      swap1\n      dup2\n      mstore\n      0x20\n      add\n      0x00\n      keccak256\n      sload\n        /* \"src/voting.sol\":2793:2798  nonce */\n      dup9\n        /* \"src/voting.sol\":2793:2821  nonce == replayNonce[signer] */\n      eq\n        /* \"src/voting.sol\":2785:2822  require(nonce == replayNonce[signer]) */\n      tag_145\n      jumpi\n      0x00\n      dup1\n      revert\n    tag_145:\n        /* \"src/voting.sol\":2828:2839  replayNonce */\n      0x03\n        /* \"src/voting.sol\":2828:2847  replayNonce[signer] */\n      0x00\n        /* \"src/voting.sol\":2840:2846  signer */\n      dup3\n        /* \"src/voting.sol\":2828:2847  replayNonce[signer] */\n      0xffffffffffffffffffffffffffffffffffffffff\n      and\n      0xffffffffffffffffffffffffffffffffffffffff\n      and\n      dup2\n      mstore\n      0x20\n      add\n      swap1\n      dup2\n      mstore\n      0x20\n      add\n      0x00\n      keccak256\n      0x00\n        /* \"src/voting.sol\":2828:2849  replayNonce[signer]++ */\n      dup2\n      sload\n      dup1\n      swap3\n      swap2\n      swap1\n      tag_146\n      swap1\n      tag_120\n      jump\t// in\n    tag_146:\n      swap2\n      swap1\n      pop\n      sstore\n      pop\n        /* \"src/voting.sol\":2889:2894  false */\n      0x00\n        /* \"src/voting.sol\":2864:2894  hasVoted[_id][signer] == false */\n      iszero\n      iszero\n        /* \"src/voting.sol\":2864:2872  hasVoted */\n      0x06\n        /* \"src/voting.sol\":2864:2877  hasVoted[_id] */\n      0x00\n        /* \"src/voting.sol\":2873:2876  _id */\n      dup12\n        /* \"src/voting.sol\":2864:2877  hasVoted[_id] */\n      dup2\n      mstore\n      0x20\n      add\n      swap1\n      dup2\n      mstore\n      0x20\n      add\n      0x00\n      keccak256\n        /* \"src/voting.sol\":2864:2885  hasVoted[_id][signer] */\n      0x00\n        /* \"src/voting.sol\":2878:2884  signer */\n      dup4\n        /* \"src/voting.sol\":2864:2885  hasVoted[_id][signer] */\n      0xffffffffffffffffffffffffffffffffffffffff\n      and\n      0xffffffffffffffffffffffffffffffffffffffff\n      and\n      dup2\n      mstore\n      0x20\n      add\n      swap1\n      dup2\n      mstore\n      0x20\n      add\n      0x00\n      keccak256\n      0x00\n      swap1\n      sload\n      swap1\n      0x0100\n      exp\n      swap1\n      div\n      0xff\n      and\n        /* \"src/voting.sol\":2864:2894  hasVoted[_id][signer] == false */\n      iszero\n      iszero\n      eq\n        /* \"src/voting.sol\":2856:2916  require(hasVoted[_id][signer] == false, \"You already voted\") */\n      tag_147\n      jumpi\n      mload(0x40)\n      0x08c379a000000000000000000000000000000000000000000000000000000000\n      dup2\n      mstore\n      0x04\n      add\n      tag_148\n      swap1\n      tag_149\n      jump\t// in\n    tag_148:\n      mload(0x40)\n      dup1\n      swap2\n      sub\n      swap1\n      revert\n    tag_147:\n        /* \"src/voting.sol\":2924:2952  countVote(Cand, _id, signer) */\n      tag_150\n        /* \"src/voting.sol\":2934:2938  Cand */\n      dup11\n        /* \"src/voting.sol\":2940:2943  _id */\n      dup11\n        /* \"src/voting.sol\":2945:2951  signer */\n      dup4\n        /* \"src/voting.sol\":2924:2933  countVote */\n      tag_151\n        /* \"src/voting.sol\":2924:2952  countVote(Cand, _id, signer) */\n      jump\t// in\n    tag_150:\n      pop\n        /* \"src/voting.sol\":2964:2981  voted(Cand, true) */\n      0xf3f16a15f074b71c5138107dfc7c63b80524d5411cb967caa97d8d9f12b2fd6b\n        /* \"src/voting.sol\":2970:2974  Cand */\n      dup11\n        /* \"src/voting.sol\":2976:2980  true */\n      0x01\n        /* \"src/voting.sol\":2964:2981  voted(Cand, true) */\n      mload(0x40)\n      tag_152\n      swap3\n      swap2\n      swap1\n      tag_153\n      jump\t// in\n    tag_152:\n      mload(0x40)\n      dup1\n      swap2\n      sub\n      swap1\n      log1\n        /* \"src/voting.sol\":2620:2986  {... */\n      pop\n      pop\n        /* \"src/voting.sol\":1363:1471  {... */\n      pop\n        /* \"src/voting.sol\":1325:1326  _ */\n      pop\n        /* \"src/voting.sol\":2494:2986  function vote(address Cand, uint _id, uint256 nonce, bytes memory signature) external  isCandidate(Cand, _id) StillVoting(_id){... */\n      pop\n      pop\n      pop\n      pop\n      pop\n      pop\n      jump\t// out\n        /* \"src/voting.sol\":3185:3407  function setVotingState( uint _id) external {... */\n    tag_63:\n        /* \"src/voting.sol\":3235:3256  VotingPoll storage VP */\n      0x00\n        /* \"src/voting.sol\":3259:3269  votingPoll */\n      0x02\n        /* \"src/voting.sol\":3259:3274  votingPoll[_id] */\n      0x00\n        /* \"src/voting.sol\":3270:3273  _id */\n      dup4\n        /* \"src/voting.sol\":3259:3274  votingPoll[_id] */\n      dup2\n      mstore\n      0x20\n      add\n      swap1\n      dup2\n      mstore\n      0x20\n      add\n      0x00\n      keccak256\n        /* \"src/voting.sol\":3235:3274  VotingPoll storage VP = votingPoll[_id] */\n      swap1\n      pop\n        /* \"src/voting.sol\":3303:3313  msg.sender */\n      caller\n        /* \"src/voting.sol\":3288:3313  VP.chairman == msg.sender */\n      0xffffffffffffffffffffffffffffffffffffffff\n      and\n        /* \"src/voting.sol\":3288:3290  VP */\n      dup2\n        /* \"src/voting.sol\":3288:3299  VP.chairman */\n      0x01\n      add\n      0x00\n      swap1\n      sload\n      swap1\n      0x0100\n      exp\n      swap1\n      div\n      0xffffffffffffffffffffffffffffffffffffffff\n      and\n        /* \"src/voting.sol\":3288:3313  VP.chairman == msg.sender */\n      0xffffffffffffffffffffffffffffffffffffffff\n      and\n      eq\n        /* \"src/voting.sol\":3280:3334  require(VP.chairman == msg.sender, \"not the chairman\") */\n      tag_155\n      jumpi\n      mload(0x40)\n      0x08c379a000000000000000000000000000000000000000000000000000000000\n      dup2\n      mstore\n      0x04\n      add\n      tag_156\n      swap1\n      tag_157\n      jump\t// in\n    tag_156:\n      mload(0x40)\n      dup1\n      swap2\n      sub\n      swap1\n      revert\n    tag_155:\n        /* \"src/voting.sol\":3360:3362  VP */\n      dup1\n        /* \"src/voting.sol\":3360:3369  VP.voting */\n      0x03\n      add\n      0x08\n      swap1\n      sload\n      swap1\n      0x0100\n      exp\n      swap1\n      div\n      0xff\n      and\n        /* \"src/voting.sol\":3358:3370  !(VP.voting) */\n      iszero\n        /* \"src/voting.sol\":3346:3348  VP */\n      dup2\n        /* \"src/voting.sol\":3346:3355  VP.voting */\n      0x03\n      add\n      0x08\n        /* \"src/voting.sol\":3346:3370  VP.voting = !(VP.voting) */\n      0x0100\n      exp\n      dup2\n      sload\n      dup2\n      0xff\n      mul\n      not\n      and\n      swap1\n      dup4\n      iszero\n      iszero\n      mul\n      or\n      swap1\n      sstore\n      pop\n        /* \"src/voting.sol\":3393:3395  VP */\n      dup1\n        /* \"src/voting.sol\":3393:3402  VP.voting */\n      0x03\n      add\n      0x08\n      swap1\n      sload\n      swap1\n      0x0100\n      exp\n      swap1\n      div\n      0xff\n      and\n        /* \"src/voting.sol\":3382:3403  voteStatus(VP.voting) */\n      iszero\n      iszero\n      0x7b224db641892626dca6975b376f464e9ac52ccfa180436175170c009b94dcd7\n      mload(0x40)\n      mload(0x40)\n      dup1\n      swap2\n      sub\n      swap1\n      log2\n        /* \"src/voting.sol\":3229:3407  {... */\n      pop\n        /* \"src/voting.sol\":3185:3407  function setVotingState( uint _id) external {... */\n      pop\n      jump\t// out\n        /* \"src/voting.sol\":552:597  mapping(uint => VotingPoll) public votingPoll */\n    tag_66:\n      mstore(0x20, 0x02)\n      dup1\n      0x00\n      mstore\n      keccak256(0x00, 0x40)\n      0x00\n      swap2\n      pop\n      swap1\n      pop\n      dup1\n      0x00\n      add\n      dup1\n      sload\n      tag_158\n      swap1\n      tag_124\n      jump\t// in\n    tag_158:\n      dup1\n      0x1f\n      add\n      0x20\n      dup1\n      swap2\n      div\n      mul\n      0x20\n      add\n      mload(0x40)\n      swap1\n      dup2\n      add\n      0x40\n      mstore\n      dup1\n      swap3\n      swap2\n      swap1\n      dup2\n      dup2\n      mstore\n      0x20\n      add\n      dup3\n      dup1\n      sload\n      tag_159\n      swap1\n      tag_124\n      jump\t// in\n    tag_159:\n      dup1\n      iszero\n      tag_160\n      jumpi\n      dup1\n      0x1f\n      lt\n      tag_161\n      jumpi\n      0x0100\n      dup1\n      dup4\n      sload\n      div\n      mul\n      dup4\n      mstore\n      swap2\n      0x20\n      add\n      swap2\n      jump(tag_160)\n    tag_161:\n      dup3\n      add\n      swap2\n      swap1\n      0x00\n      mstore\n      keccak256(0x00, 0x20)\n      swap1\n    tag_162:\n      dup2\n      sload\n      dup2\n      mstore\n      swap1\n      0x01\n      add\n      swap1\n      0x20\n      add\n      dup1\n      dup4\n      gt\n      tag_162\n      jumpi\n      dup3\n      swap1\n      sub\n      0x1f\n      and\n      dup3\n      add\n      swap2\n    tag_160:\n      pop\n      pop\n      pop\n      pop\n      pop\n      swap1\n      dup1\n      0x01\n      add\n      0x00\n      swap1\n      sload\n      swap1\n      0x0100\n      exp\n      swap1\n      div\n      0xffffffffffffffffffffffffffffffffffffffff\n      and\n      swap1\n      dup1\n      0x03\n      add\n      0x00\n      swap1\n      sload\n      swap1\n      0x0100\n      exp\n      swap1\n      div\n      0xffffffff\n      and\n      swap1\n      dup1\n      0x03\n      add\n      0x04\n      swap1\n      sload\n      swap1\n      0x0100\n      exp\n      swap1\n      div\n      0xffffffff\n      and\n      swap1\n      dup1\n      0x03\n      add\n      0x08\n      swap1\n      sload\n      swap1\n      0x0100\n      exp\n      swap1\n      div\n      0xff\n      and\n      swap1\n      pop\n      dup6\n      jump\t// out\n        /* \"src/voting.sol\":1607:1986  function createPoll(string memory _name, uint32 ExpectedNoOfCandidate) external returns(VotingPoll[] memory ){... */\n    tag_71:\n        /* \"src/voting.sol\":1695:1714  VotingPoll[] memory */\n      0x60\n        /* \"src/voting.sol\":1722:1743  VotingPoll storage VP */\n      0x00\n        /* \"src/voting.sol\":1746:1756  votingPoll */\n      0x02\n        /* \"src/voting.sol\":1746:1760  votingPoll[id] */\n      0x00\n        /* \"src/voting.sol\":1757:1759  id */\n      dup1\n      sload\n        /* \"src/voting.sol\":1746:1760  votingPoll[id] */\n      dup2\n      mstore\n      0x20\n      add\n      swap1\n      dup2\n      mstore\n      0x20\n      add\n      0x00\n      keccak256\n        /* \"src/voting.sol\":1722:1760  VotingPoll storage VP = votingPoll[id] */\n      swap1\n      pop\n        /* \"src/voting.sol\":1776:1781  _name */\n      dup4\n        /* \"src/voting.sol\":1766:1768  VP */\n      dup2\n        /* \"src/voting.sol\":1766:1773  VP.name */\n      0x00\n      add\n        /* \"src/voting.sol\":1766:1781  VP.name = _name */\n      swap1\n      dup1\n      mload\n      swap1\n      0x20\n      add\n      swap1\n      tag_164\n      swap3\n      swap2\n      swap1\n      tag_165\n      jump\t// in\n    tag_164:\n      pop\n        /* \"src/voting.sol\":1801:1811  msg.sender */\n      caller\n        /* \"src/voting.sol\":1787:1789  VP */\n      dup2\n        /* \"src/voting.sol\":1787:1798  VP.chairman */\n      0x01\n      add\n      0x00\n        /* \"src/voting.sol\":1787:1811  VP.chairman = msg.sender */\n      0x0100\n      exp\n      dup2\n      sload\n      dup2\n      0xffffffffffffffffffffffffffffffffffffffff\n      mul\n      not\n      and\n      swap1\n      dup4\n      0xffffffffffffffffffffffffffffffffffffffff\n      and\n      mul\n      or\n      swap1\n      sstore\n      pop\n        /* \"src/voting.sol\":1839:1860  ExpectedNoOfCandidate */\n      dup3\n        /* \"src/voting.sol\":1817:1819  VP */\n      dup2\n        /* \"src/voting.sol\":1817:1837  VP.maxNoOfCandidates */\n      0x03\n      add\n      0x00\n        /* \"src/voting.sol\":1817:1860  VP.maxNoOfCandidates =ExpectedNoOfCandidate */\n      0x0100\n      exp\n      dup2\n      sload\n      dup2\n      0xffffffff\n      mul\n      not\n      and\n      swap1\n      dup4\n      0xffffffff\n      and\n      mul\n      or\n      swap1\n      sstore\n      pop\n        /* \"src/voting.sol\":1866:1875  VotingKey */\n      0x01\n        /* \"src/voting.sol\":1881:1883  VP */\n      dup2\n        /* \"src/voting.sol\":1866:1884  VotingKey.push(VP) */\n      swap1\n      dup1\n      0x01\n      dup2\n      sload\n      add\n      dup1\n      dup3\n      sstore\n      dup1\n      swap2\n      pop\n      pop\n      0x01\n      swap1\n      sub\n      swap1\n      0x00\n      mstore\n      keccak256(0x00, 0x20)\n      swap1\n      0x04\n      mul\n      add\n      0x00\n      swap1\n      swap2\n      swap1\n      swap2\n      swap1\n      swap2\n      pop\n      0x00\n      dup3\n      add\n      dup2\n      0x00\n      add\n      swap1\n      dup1\n      sload\n      tag_167\n      swap1\n      tag_124\n      jump\t// in\n    tag_167:\n      tag_168\n      swap3\n      swap2\n      swap1\n      tag_169\n      jump\t// in\n    tag_168:\n      pop\n      0x01\n      dup3\n      add\n      0x00\n      swap1\n      sload\n      swap1\n      0x0100\n      exp\n      swap1\n      div\n      0xffffffffffffffffffffffffffffffffffffffff\n      and\n      dup2\n      0x01\n      add\n      exp(0x0100, 0x00)\n      dup2\n      sload\n      dup2\n      0xffffffffffffffffffffffffffffffffffffffff\n      mul\n      not\n      and\n      swap1\n      dup4\n      0xffffffffffffffffffffffffffffffffffffffff\n      and\n      mul\n      or\n      swap1\n      sstore\n      pop\n      0x02\n      dup3\n      add\n      dup2\n      0x02\n      add\n      swap1\n      dup1\n      sload\n      tag_170\n      swap3\n      swap2\n      swap1\n      tag_171\n      jump\t// in\n    tag_170:\n      pop\n      0x03\n      dup3\n      add\n      0x00\n      swap1\n      sload\n      swap1\n      0x0100\n      exp\n      swap1\n      div\n      0xffffffff\n      and\n      dup2\n      0x03\n      add\n      exp(0x0100, 0x00)\n      dup2\n      sload\n      dup2\n      0xffffffff\n      mul\n      not\n      and\n      swap1\n      dup4\n      0xffffffff\n      and\n      mul\n      or\n      swap1\n      sstore\n      pop\n      0x03\n      dup3\n      add\n      0x04\n      swap1\n      sload\n      swap1\n      0x0100\n      exp\n      swap1\n      div\n      0xffffffff\n      and\n      dup2\n      0x03\n      add\n      exp(0x0100, 0x04)\n      dup2\n      sload\n      dup2\n      0xffffffff\n      mul\n      not\n      and\n      swap1\n      dup4\n      0xffffffff\n      and\n      mul\n      or\n      swap1\n      sstore\n      pop\n      0x03\n      dup3\n      add\n      0x08\n      swap1\n      sload\n      swap1\n      0x0100\n      exp\n      swap1\n      div\n      0xff\n      and\n      dup2\n      0x03\n      add\n      exp(0x0100, 0x08)\n      dup2\n      sload\n      dup2\n      0xff\n      mul\n      not\n      and\n      swap1\n      dup4\n      iszero\n      iszero\n      mul\n      or\n      swap1\n      sstore\n      pop\n      pop\n      pop\n        /* \"src/voting.sol\":1890:1892  id */\n      0x00\n      dup1\n        /* \"src/voting.sol\":1890:1894  id++ */\n      dup2\n      sload\n      dup1\n      swap3\n      swap2\n      swap1\n      tag_172\n      swap1\n      tag_120\n      jump\t// in\n    tag_172:\n      swap2\n      swap1\n      pop\n      sstore\n      pop\n        /* \"src/voting.sol\":1947:1949  VP */\n      dup1\n        /* \"src/voting.sol\":1947:1958  VP.chairman */\n      0x01\n      add\n      0x00\n      swap1\n      sload\n      swap1\n      0x0100\n      exp\n      swap1\n      div\n      0xffffffffffffffffffffffffffffffffffffffff\n      and\n        /* \"src/voting.sol\":1905:1959  pollCreated( _name, VP.maxNoOfCandidates, VP.chairman) */\n      0xffffffffffffffffffffffffffffffffffffffff\n      and\n        /* \"src/voting.sol\":1925:1927  VP */\n      dup2\n        /* \"src/voting.sol\":1925:1945  VP.maxNoOfCandidates */\n      0x03\n      add\n      0x00\n      swap1\n      sload\n      swap1\n      0x0100\n      exp\n      swap1\n      div\n      0xffffffff\n      and\n        /* \"src/voting.sol\":1905:1959  pollCreated( _name, VP.maxNoOfCandidates, VP.chairman) */\n      0xffffffff\n      and\n        /* \"src/voting.sol\":1918:1923  _name */\n      dup6\n        /* \"src/voting.sol\":1905:1959  pollCreated( _name, VP.maxNoOfCandidates, VP.chairman) */\n      mload(0x40)\n      tag_173\n      swap2\n      swap1\n      tag_174\n      jump\t// in\n    tag_173:\n      mload(0x40)\n      dup1\n      swap2\n      sub\n      swap1\n      keccak256\n      0x4b35e5cf01446aa899a8d21082ebf23b7497d38f2466ad49836bd1006a8d059e\n      mload(0x40)\n      mload(0x40)\n      dup1\n      swap2\n      sub\n      swap1\n      log4\n        /* \"src/voting.sol\":1973:1982  VotingKey */\n      0x01\n        /* \"src/voting.sol\":1966:1983  return(VotingKey) */\n      dup1\n      sload\n      dup1\n      0x20\n      mul\n      0x20\n      add\n      mload(0x40)\n      swap1\n      dup2\n      add\n      0x40\n      mstore\n      dup1\n      swap3\n      swap2\n      swap1\n      dup2\n      dup2\n      mstore\n      0x20\n      add\n      0x00\n      swap1\n    tag_175:\n      dup3\n      dup3\n      lt\n      iszero\n      tag_176\n      jumpi\n      dup4\n      dup3\n      swap1\n      0x00\n      mstore\n      keccak256(0x00, 0x20)\n      swap1\n      0x04\n      mul\n      add\n      mload(0x40)\n      dup1\n      0xc0\n      add\n      0x40\n      mstore\n      swap1\n      dup2\n      0x00\n      dup3\n      add\n      dup1\n      sload\n      tag_178\n      swap1\n      tag_124\n      jump\t// in\n    tag_178:\n      dup1\n      0x1f\n      add\n      0x20\n      dup1\n      swap2\n      div\n      mul\n      0x20\n      add\n      mload(0x40)\n      swap1\n      dup2\n      add\n      0x40\n      mstore\n      dup1\n      swap3\n      swap2\n      swap1\n      dup2\n      dup2\n      mstore\n      0x20\n      add\n      dup3\n      dup1\n      sload\n      tag_179\n      swap1\n      tag_124\n      jump\t// in\n    tag_179:\n      dup1\n      iszero\n      tag_180\n      jumpi\n      dup1\n      0x1f\n      lt\n      tag_181\n      jumpi\n      0x0100\n      dup1\n      dup4\n      sload\n      div\n      mul\n      dup4\n      mstore\n      swap2\n      0x20\n      add\n      swap2\n      jump(tag_180)\n    tag_181:\n      dup3\n      add\n      swap2\n      swap1\n      0x00\n      mstore\n      keccak256(0x00, 0x20)\n      swap1\n    tag_182:\n      dup2\n      sload\n      dup2\n      mstore\n      swap1\n      0x01\n      add\n      swap1\n      0x20\n      add\n      dup1\n      dup4\n      gt\n      tag_182\n      jumpi\n      dup3\n      swap1\n      sub\n      0x1f\n      and\n      dup3\n      add\n      swap2\n    tag_180:\n      pop\n      pop\n      pop\n      pop\n      pop\n      dup2\n      mstore\n      0x20\n      add\n      0x01\n      dup3\n      add\n      0x00\n      swap1\n      sload\n      swap1\n      0x0100\n      exp\n      swap1\n      div\n      0xffffffffffffffffffffffffffffffffffffffff\n      and\n      0xffffffffffffffffffffffffffffffffffffffff\n      and\n      0xffffffffffffffffffffffffffffffffffffffff\n      and\n      dup2\n      mstore\n      0x20\n      add\n      0x02\n      dup3\n      add\n      dup1\n      sload\n      dup1\n      0x20\n      mul\n      0x20\n      add\n      mload(0x40)\n      swap1\n      dup2\n      add\n      0x40\n      mstore\n      dup1\n      swap3\n      swap2\n      swap1\n      dup2\n      dup2\n      mstore\n      0x20\n      add\n      dup3\n      dup1\n      sload\n      dup1\n      iszero\n      tag_183\n      jumpi\n      0x20\n      mul\n      dup3\n      add\n      swap2\n      swap1\n      0x00\n      mstore\n      keccak256(0x00, 0x20)\n      swap1\n    tag_184:\n      dup2\n      0x00\n      swap1\n      sload\n      swap1\n      0x0100\n      exp\n      swap1\n      div\n      0xffffffffffffffffffffffffffffffffffffffff\n      and\n      0xffffffffffffffffffffffffffffffffffffffff\n      and\n      dup2\n      mstore\n      0x20\n      add\n      swap1\n      0x01\n      add\n      swap1\n      dup1\n      dup4\n      gt\n      tag_184\n      jumpi\n    tag_183:\n      pop\n      pop\n      pop\n      pop\n      pop\n      dup2\n      mstore\n      0x20\n      add\n      0x03\n      dup3\n      add\n      0x00\n      swap1\n      sload\n      swap1\n      0x0100\n      exp\n      swap1\n      div\n      0xffffffff\n      and\n      0xffffffff\n      and\n      0xffffffff\n      and\n      dup2\n      mstore\n      0x20\n      add\n      0x03\n      dup3\n      add\n      0x04\n      swap1\n      sload\n      swap1\n      0x0100\n      exp\n      swap1\n      div\n      0xffffffff\n      and\n      0xffffffff\n      and\n      0xffffffff\n      and\n      dup2\n      mstore\n      0x20\n      add\n      0x03\n      dup3\n      add\n      0x08\n      swap1\n      sload\n      swap1\n      0x0100\n      exp\n      swap1\n      div\n      0xff\n      and\n      iszero\n      iszero\n      iszero\n      iszero\n      dup2\n      mstore\n      pop\n      pop\n      dup2\n      mstore\n      0x20\n      add\n      swap1\n      0x01\n      add\n      swap1\n      jump(tag_175)\n    tag_176:\n      pop\n      pop\n      pop\n      pop\n      swap2\n      pop\n      pop\n        /* \"src/voting.sol\":1607:1986  function createPoll(string memory _name, uint32 ExpectedNoOfCandidate) external returns(VotingPoll[] memory ){... */\n      swap3\n      swap2\n      pop\n      pop\n      jump\t// out\n        /* \"src/voting.sol\":4324:4496  function getPosition( uint _id, uint i) internal view returns(uint val){... */\n    tag_108:\n        /* \"src/voting.sol\":4386:4394  uint val */\n      0x00\n        /* \"src/voting.sol\":4402:4423  VotingPoll storage VP */\n      dup1\n        /* \"src/voting.sol\":4426:4436  votingPoll */\n      0x02\n        /* \"src/voting.sol\":4426:4441  votingPoll[_id] */\n      0x00\n        /* \"src/voting.sol\":4437:4440  _id */\n      dup6\n        /* \"src/voting.sol\":4426:4441  votingPoll[_id] */\n      dup2\n      mstore\n      0x20\n      add\n      swap1\n      dup2\n      mstore\n      0x20\n      add\n      0x00\n      keccak256\n        /* \"src/voting.sol\":4402:4441  VotingPoll storage VP = votingPoll[_id] */\n      swap1\n      pop\n        /* \"src/voting.sol\":4456:4469  CandidateVote */\n      0x05\n        /* \"src/voting.sol\":4456:4474  CandidateVote[_id] */\n      0x00\n        /* \"src/voting.sol\":4470:4473  _id */\n      dup6\n        /* \"src/voting.sol\":4456:4474  CandidateVote[_id] */\n      dup2\n      mstore\n      0x20\n      add\n      swap1\n      dup2\n      mstore\n      0x20\n      add\n      0x00\n      keccak256\n        /* \"src/voting.sol\":4456:4492  CandidateVote[_id][VP.candidates[i]] */\n      0x00\n        /* \"src/voting.sol\":4475:4477  VP */\n      dup3\n        /* \"src/voting.sol\":4475:4488  VP.candidates */\n      0x02\n      add\n        /* \"src/voting.sol\":4489:4490  i */\n      dup6\n        /* \"src/voting.sol\":4475:4491  VP.candidates[i] */\n      dup2\n      sload\n      dup2\n      lt\n      tag_186\n      jumpi\n      tag_187\n      tag_112\n      jump\t// in\n    tag_187:\n    tag_186:\n      swap1\n      0x00\n      mstore\n      keccak256(0x00, 0x20)\n      add\n      0x00\n      swap1\n      sload\n      swap1\n      0x0100\n      exp\n      swap1\n      div\n      0xffffffffffffffffffffffffffffffffffffffff\n      and\n        /* \"src/voting.sol\":4456:4492  CandidateVote[_id][VP.candidates[i]] */\n      0xffffffffffffffffffffffffffffffffffffffff\n      and\n      0xffffffffffffffffffffffffffffffffffffffff\n      and\n      dup2\n      mstore\n      0x20\n      add\n      swap1\n      dup2\n      mstore\n      0x20\n      add\n      0x00\n      keccak256\n      sload\n        /* \"src/voting.sol\":4450:4492  val = CandidateVote[_id][VP.candidates[i]] */\n      swap2\n      pop\n        /* \"src/voting.sol\":4395:4496  {... */\n      pop\n        /* \"src/voting.sol\":4324:4496  function getPosition( uint _id, uint i) internal view returns(uint val){... */\n      swap3\n      swap2\n      pop\n      pop\n      jump\t// out\n        /* \"src/voting.sol\":4836:5418  function getSigner(bytes32 _hash, bytes memory _signature) internal pure returns (address){... */\n    tag_143:\n        /* \"src/voting.sol\":4918:4925  address */\n      0x00\n        /* \"src/voting.sol\":4932:4941  bytes32 r */\n      dup1\n        /* \"src/voting.sol\":4947:4956  bytes32 s */\n      0x00\n        /* \"src/voting.sol\":4962:4969  uint8 v */\n      dup1\n        /* \"src/voting.sol\":5000:5002  65 */\n      0x41\n        /* \"src/voting.sol\":4979:4989  _signature */\n      dup6\n        /* \"src/voting.sol\":4979:4996  _signature.length */\n      mload\n        /* \"src/voting.sol\":4979:5002  _signature.length != 65 */\n      eq\n        /* \"src/voting.sol\":4975:5036  if (_signature.length != 65) {... */\n      tag_190\n      jumpi\n        /* \"src/voting.sol\":5027:5028  0 */\n      0x00\n        /* \"src/voting.sol\":5012:5029  return address(0) */\n      swap4\n      pop\n      pop\n      pop\n      pop\n      jump(tag_189)\n        /* \"src/voting.sol\":4975:5036  if (_signature.length != 65) {... */\n    tag_190:\n        /* \"src/voting.sol\":5085:5087  32 */\n      0x20\n        /* \"src/voting.sol\":5073:5083  _signature */\n      dup6\n        /* \"src/voting.sol\":5069:5088  add(_signature, 32) */\n      add\n        /* \"src/voting.sol\":5063:5089  mload(add(_signature, 32)) */\n      mload\n        /* \"src/voting.sol\":5058:5089  r := mload(add(_signature, 32)) */\n      swap3\n      pop\n        /* \"src/voting.sol\":5123:5125  64 */\n      0x40\n        /* \"src/voting.sol\":5111:5121  _signature */\n      dup6\n        /* \"src/voting.sol\":5107:5126  add(_signature, 64) */\n      add\n        /* \"src/voting.sol\":5101:5127  mload(add(_signature, 64)) */\n      mload\n        /* \"src/voting.sol\":5096:5127  s := mload(add(_signature, 64)) */\n      swap2\n      pop\n        /* \"src/voting.sol\":5169:5171  96 */\n      0x60\n        /* \"src/voting.sol\":5157:5167  _signature */\n      dup6\n        /* \"src/voting.sol\":5153:5172  add(_signature, 96) */\n      add\n        /* \"src/voting.sol\":5147:5173  mload(add(_signature, 96)) */\n      mload\n        /* \"src/voting.sol\":5144:5145  0 */\n      0x00\n        /* \"src/voting.sol\":5139:5174  byte(0, mload(add(_signature, 96))) */\n      byte\n        /* \"src/voting.sol\":5134:5174  v := byte(0, mload(add(_signature, 96))) */\n      swap1\n      pop\n        /* \"src/voting.sol\":5193:5195  27 */\n      0x1b\n        /* \"src/voting.sol\":5189:5190  v */\n      dup2\n        /* \"src/voting.sol\":5189:5195  v < 27 */\n      0xff\n      and\n      lt\n        /* \"src/voting.sol\":5185:5219  if (v < 27) {... */\n      iszero\n      tag_191\n      jumpi\n        /* \"src/voting.sol\":5210:5212  27 */\n      0x1b\n        /* \"src/voting.sol\":5205:5212  v += 27 */\n      dup2\n      tag_192\n      swap2\n      swap1\n      tag_193\n      jump\t// in\n    tag_192:\n      swap1\n      pop\n        /* \"src/voting.sol\":5185:5219  if (v < 27) {... */\n    tag_191:\n        /* \"src/voting.sol\":5233:5235  27 */\n      0x1b\n        /* \"src/voting.sol\":5228:5229  v */\n      dup2\n        /* \"src/voting.sol\":5228:5235  v != 27 */\n      0xff\n      and\n      eq\n      iszero\n        /* \"src/voting.sol\":5228:5246  v != 27 && v != 28 */\n      dup1\n      iszero\n      tag_194\n      jumpi\n      pop\n        /* \"src/voting.sol\":5244:5246  28 */\n      0x1c\n        /* \"src/voting.sol\":5239:5240  v */\n      dup2\n        /* \"src/voting.sol\":5239:5246  v != 28 */\n      0xff\n      and\n      eq\n      iszero\n        /* \"src/voting.sol\":5228:5246  v != 27 && v != 28 */\n    tag_194:\n        /* \"src/voting.sol\":5224:5414  if (v != 27 && v != 28) {... */\n      iszero\n      tag_195\n      jumpi\n        /* \"src/voting.sol\":5271:5272  0 */\n      0x00\n        /* \"src/voting.sol\":5256:5273  return address(0) */\n      swap4\n      pop\n      pop\n      pop\n      pop\n      jump(tag_189)\n        /* \"src/voting.sol\":5224:5414  if (v != 27 && v != 28) {... */\n    tag_195:\n        /* \"src/voting.sol\":5301:5407  ecrecover(keccak256(... */\n      0x01\n        /* \"src/voting.sol\":5383:5388  _hash */\n      dup7\n        /* \"src/voting.sol\":5330:5389  abi.encodePacked(\"\\x19Ethereum Signed Message:\\n32\", _hash) */\n      add(0x20, mload(0x40))\n      tag_197\n      swap2\n      swap1\n      tag_198\n      jump\t// in\n    tag_197:\n      mload(0x40)\n      0x20\n      dup2\n      dup4\n      sub\n      sub\n      dup2\n      mstore\n      swap1\n      0x40\n      mstore\n        /* \"src/voting.sol\":5311:5397  keccak256(... */\n      dup1\n      mload\n      swap1\n      0x20\n      add\n      keccak256\n        /* \"src/voting.sol\":5399:5400  v */\n      dup3\n        /* \"src/voting.sol\":5402:5403  r */\n      dup6\n        /* \"src/voting.sol\":5405:5406  s */\n      dup6\n        /* \"src/voting.sol\":5301:5407  ecrecover(keccak256(... */\n      mload(0x40)\n      0x00\n      dup2\n      mstore\n      0x20\n      add\n      0x40\n      mstore\n      mload(0x40)\n      tag_199\n      swap5\n      swap4\n      swap3\n      swap2\n      swap1\n      tag_200\n      jump\t// in\n    tag_199:\n      0x20\n      mload(0x40)\n      0x20\n      dup2\n      sub\n      swap1\n      dup1\n      dup5\n      sub\n      swap1\n      dup6\n      gas\n      staticcall\n      iszero\n      dup1\n      iszero\n      tag_202\n      jumpi\n      returndatasize\n      0x00\n      dup1\n      returndatacopy\n      revert(0x00, returndatasize)\n    tag_202:\n      pop\n      pop\n      pop\n      mload(sub(mload(0x40), 0x20))\n        /* \"src/voting.sol\":5294:5407  return ecrecover(keccak256(... */\n      swap4\n      pop\n      pop\n      pop\n      pop\n        /* \"src/voting.sol\":4836:5418  function getSigner(bytes32 _hash, bytes memory _signature) internal pure returns (address){... */\n    tag_189:\n      swap3\n      swap2\n      pop\n      pop\n      jump\t// out\n        /* \"src/voting.sol\":2989:3181  function countVote(address Cand, uint _id, address signer) internal returns(uint){... */\n    tag_151:\n        /* \"src/voting.sol\":3065:3069  uint */\n      0x00\n        /* \"src/voting.sol\":3101:3105  true */\n      0x01\n        /* \"src/voting.sol\":3077:3085  hasVoted */\n      0x06\n        /* \"src/voting.sol\":3077:3090  hasVoted[_id] */\n      0x00\n        /* \"src/voting.sol\":3086:3089  _id */\n      dup6\n        /* \"src/voting.sol\":3077:3090  hasVoted[_id] */\n      dup2\n      mstore\n      0x20\n      add\n      swap1\n      dup2\n      mstore\n      0x20\n      add\n      0x00\n      keccak256\n        /* \"src/voting.sol\":3077:3098  hasVoted[_id][signer] */\n      0x00\n        /* \"src/voting.sol\":3091:3097  signer */\n      dup5\n        /* \"src/voting.sol\":3077:3098  hasVoted[_id][signer] */\n      0xffffffffffffffffffffffffffffffffffffffff\n      and\n      0xffffffffffffffffffffffffffffffffffffffff\n      and\n      dup2\n      mstore\n      0x20\n      add\n      swap1\n      dup2\n      mstore\n      0x20\n      add\n      0x00\n      keccak256\n      0x00\n        /* \"src/voting.sol\":3077:3105  hasVoted[_id][signer] = true */\n      0x0100\n      exp\n      dup2\n      sload\n      dup2\n      0xff\n      mul\n      not\n      and\n      swap1\n      dup4\n      iszero\n      iszero\n      mul\n      or\n      swap1\n      sstore\n      pop\n        /* \"src/voting.sol\":3112:3125  CandidateVote */\n      0x05\n        /* \"src/voting.sol\":3112:3130  CandidateVote[_id] */\n      0x00\n        /* \"src/voting.sol\":3126:3129  _id */\n      dup5\n        /* \"src/voting.sol\":3112:3130  CandidateVote[_id] */\n      dup2\n      mstore\n      0x20\n      add\n      swap1\n      dup2\n      mstore\n      0x20\n      add\n      0x00\n      keccak256\n        /* \"src/voting.sol\":3112:3136  CandidateVote[_id][Cand] */\n      0x00\n        /* \"src/voting.sol\":3131:3135  Cand */\n      dup6\n        /* \"src/voting.sol\":3112:3136  CandidateVote[_id][Cand] */\n      0xffffffffffffffffffffffffffffffffffffffff\n      and\n      0xffffffffffffffffffffffffffffffffffffffff\n      and\n      dup2\n      mstore\n      0x20\n      add\n      swap1\n      dup2\n      mstore\n      0x20\n      add\n      0x00\n      keccak256\n      0x00\n        /* \"src/voting.sol\":3112:3138  CandidateVote[_id][Cand]++ */\n      dup2\n      sload\n      dup1\n      swap3\n      swap2\n      swap1\n      tag_204\n      swap1\n      tag_120\n      jump\t// in\n    tag_204:\n      swap2\n      swap1\n      pop\n      sstore\n      pop\n        /* \"src/voting.sol\":3152:3165  CandidateVote */\n      0x05\n        /* \"src/voting.sol\":3152:3170  CandidateVote[_id] */\n      0x00\n        /* \"src/voting.sol\":3166:3169  _id */\n      dup5\n        /* \"src/voting.sol\":3152:3170  CandidateVote[_id] */\n      dup2\n      mstore\n      0x20\n      add\n      swap1\n      dup2\n      mstore\n      0x20\n      add\n      0x00\n      keccak256\n        /* \"src/voting.sol\":3152:3176  CandidateVote[_id][Cand] */\n      0x00\n        /* \"src/voting.sol\":3171:3175  Cand */\n      dup6\n        /* \"src/voting.sol\":3152:3176  CandidateVote[_id][Cand] */\n      0xffffffffffffffffffffffffffffffffffffffff\n      and\n      0xffffffffffffffffffffffffffffffffffffffff\n      and\n      dup2\n      mstore\n      0x20\n      add\n      swap1\n      dup2\n      mstore\n      0x20\n      add\n      0x00\n      keccak256\n      sload\n        /* \"src/voting.sol\":3145:3176  return CandidateVote[_id][Cand] */\n      swap1\n      pop\n        /* \"src/voting.sol\":2989:3181  function countVote(address Cand, uint _id, address signer) internal returns(uint){... */\n      swap4\n      swap3\n      pop\n      pop\n      pop\n      jump\t// out\n    tag_90:\n      mload(0x40)\n      dup1\n      0xc0\n      add\n      0x40\n      mstore\n      dup1\n      0x60\n      dup2\n      mstore\n      0x20\n      add\n      and(0xffffffffffffffffffffffffffffffffffffffff, 0x00)\n      dup2\n      mstore\n      0x20\n      add\n      0x60\n      dup2\n      mstore\n      0x20\n      add\n      and(0xffffffff, 0x00)\n      dup2\n      mstore\n      0x20\n      add\n      and(0xffffffff, 0x00)\n      dup2\n      mstore\n      0x20\n      add\n      iszero(iszero(0x00))\n      dup2\n      mstore\n      pop\n      swap1\n      jump\t// out\n    tag_165:\n      dup3\n      dup1\n      sload\n      tag_205\n      swap1\n      tag_124\n      jump\t// in\n    tag_205:\n      swap1\n      0x00\n      mstore\n      keccak256(0x00, 0x20)\n      swap1\n      0x1f\n      add\n      0x20\n      swap1\n      div\n      dup2\n      add\n      swap3\n      dup3\n      tag_207\n      jumpi\n      0x00\n      dup6\n      sstore\n      jump(tag_206)\n    tag_207:\n      dup3\n      0x1f\n      lt\n      tag_208\n      jumpi\n      dup1\n      mload\n      not(0xff)\n      and\n      dup4\n      dup1\n      add\n      or\n      dup6\n      sstore\n      jump(tag_206)\n    tag_208:\n      dup3\n      dup1\n      add\n      0x01\n      add\n      dup6\n      sstore\n      dup3\n      iszero\n      tag_206\n      jumpi\n      swap2\n      dup3\n      add\n    tag_209:\n      dup3\n      dup2\n      gt\n      iszero\n      tag_210\n      jumpi\n      dup3\n      mload\n      dup3\n      sstore\n      swap2\n      0x20\n      add\n      swap2\n      swap1\n      0x01\n      add\n      swap1\n      jump(tag_209)\n    tag_210:\n    tag_206:\n      pop\n      swap1\n      pop\n      tag_211\n      swap2\n      swap1\n      tag_212\n      jump\t// in\n    tag_211:\n      pop\n      swap1\n      jump\t// out\n    tag_169:\n      dup3\n      dup1\n      sload\n      tag_213\n      swap1\n      tag_124\n      jump\t// in\n    tag_213:\n      swap1\n      0x00\n      mstore\n      keccak256(0x00, 0x20)\n      swap1\n      0x1f\n      add\n      0x20\n      swap1\n      div\n      dup2\n      add\n      swap3\n      dup3\n      tag_215\n      jumpi\n      0x00\n      dup6\n      sstore\n      jump(tag_214)\n    tag_215:\n      dup3\n      0x1f\n      lt\n      tag_216\n      jumpi\n      dup1\n      sload\n      dup6\n      sstore\n      jump(tag_214)\n    tag_216:\n      dup3\n      dup1\n      add\n      0x01\n      add\n      dup6\n      sstore\n      dup3\n      iszero\n      tag_214\n      jumpi\n      0x00\n      mstore\n      keccak256(0x00, 0x20)\n      swap2\n      0x1f\n      add\n      0x20\n      swap1\n      div\n      dup3\n      add\n    tag_217:\n      dup3\n      dup2\n      gt\n      iszero\n      tag_218\n      jumpi\n      dup3\n      sload\n      dup3\n      sstore\n      swap2\n      0x01\n      add\n      swap2\n      swap1\n      0x01\n      add\n      swap1\n      jump(tag_217)\n    tag_218:\n    tag_214:\n      pop\n      swap1\n      pop\n      tag_219\n      swap2\n      swap1\n      tag_212\n      jump\t// in\n    tag_219:\n      pop\n      swap1\n      jump\t// out\n    tag_171:\n      dup3\n      dup1\n      sload\n      dup3\n      dup3\n      sstore\n      swap1\n      0x00\n      mstore\n      keccak256(0x00, 0x20)\n      swap1\n      dup2\n      add\n      swap3\n      dup3\n      iszero\n      tag_220\n      jumpi\n      0x00\n      mstore\n      keccak256(0x00, 0x20)\n      swap2\n      dup3\n      add\n    tag_221:\n      dup3\n      dup2\n      gt\n      iszero\n      tag_222\n      jumpi\n      dup3\n      sload\n      dup3\n      sstore\n      swap2\n      0x01\n      add\n      swap2\n      swap1\n      0x01\n      add\n      swap1\n      jump(tag_221)\n    tag_222:\n    tag_220:\n      pop\n      swap1\n      pop\n      tag_223\n      swap2\n      swap1\n      tag_212\n      jump\t// in\n    tag_223:\n      pop\n      swap1\n      jump\t// out\n    tag_212:\n    tag_224:\n      dup1\n      dup3\n      gt\n      iszero\n      tag_225\n      jumpi\n      0x00\n      dup2\n      0x00\n      swap1\n      sstore\n      pop\n      0x01\n      add\n      jump(tag_224)\n    tag_225:\n      pop\n      swap1\n      jump\t// out\n        /* \"#utility.yul\":7:82   */\n    tag_226:\n        /* \"#utility.yul\":40:46   */\n      0x00\n        /* \"#utility.yul\":73:75   */\n      0x40\n        /* \"#utility.yul\":67:76   */\n      mload\n        /* \"#utility.yul\":57:76   */\n      swap1\n      pop\n        /* \"#utility.yul\":7:82   */\n      swap1\n      jump\t// out\n        /* \"#utility.yul\":88:205   */\n    tag_227:\n        /* \"#utility.yul\":197:198   */\n      0x00\n        /* \"#utility.yul\":194:195   */\n      dup1\n        /* \"#utility.yul\":187:199   */\n      revert\n        /* \"#utility.yul\":211:328   */\n    tag_228:\n        /* \"#utility.yul\":320:321   */\n      0x00\n        /* \"#utility.yul\":317:318   */\n      dup1\n        /* \"#utility.yul\":310:322   */\n      revert\n        /* \"#utility.yul\":334:460   */\n    tag_229:\n        /* \"#utility.yul\":371:378   */\n      0x00\n        /* \"#utility.yul\":411:453   */\n      0xffffffffffffffffffffffffffffffffffffffff\n        /* \"#utility.yul\":404:409   */\n      dup3\n        /* \"#utility.yul\":400:454   */\n      and\n        /* \"#utility.yul\":389:454   */\n      swap1\n      pop\n        /* \"#utility.yul\":334:460   */\n      swap2\n      swap1\n      pop\n      jump\t// out\n        /* \"#utility.yul\":466:562   */\n    tag_230:\n        /* \"#utility.yul\":503:510   */\n      0x00\n        /* \"#utility.yul\":532:556   */\n      tag_328\n        /* \"#utility.yul\":550:555   */\n      dup3\n        /* \"#utility.yul\":532:556   */\n      tag_229\n      jump\t// in\n    tag_328:\n        /* \"#utility.yul\":521:556   */\n      swap1\n      pop\n        /* \"#utility.yul\":466:562   */\n      swap2\n      swap1\n      pop\n      jump\t// out\n        /* \"#utility.yul\":568:690   */\n    tag_231:\n        /* \"#utility.yul\":641:665   */\n      tag_330\n        /* \"#utility.yul\":659:664   */\n      dup2\n        /* \"#utility.yul\":641:665   */\n      tag_230\n      jump\t// in\n    tag_330:\n        /* \"#utility.yul\":634:639   */\n      dup2\n        /* \"#utility.yul\":631:666   */\n      eq\n        /* \"#utility.yul\":621:684   */\n      tag_331\n      jumpi\n        /* \"#utility.yul\":680:681   */\n      0x00\n        /* \"#utility.yul\":677:678   */\n      dup1\n        /* \"#utility.yul\":670:682   */\n      revert\n        /* \"#utility.yul\":621:684   */\n    tag_331:\n        /* \"#utility.yul\":568:690   */\n      pop\n      jump\t// out\n        /* \"#utility.yul\":696:835   */\n    tag_232:\n        /* \"#utility.yul\":742:747   */\n      0x00\n        /* \"#utility.yul\":780:786   */\n      dup2\n        /* \"#utility.yul\":767:787   */\n      calldataload\n        /* \"#utility.yul\":758:787   */\n      swap1\n      pop\n        /* \"#utility.yul\":796:829   */\n      tag_333\n        /* \"#utility.yul\":823:828   */\n      dup2\n        /* \"#utility.yul\":796:829   */\n      tag_231\n      jump\t// in\n    tag_333:\n        /* \"#utility.yul\":696:835   */\n      swap3\n      swap2\n      pop\n      pop\n      jump\t// out\n        /* \"#utility.yul\":841:918   */\n    tag_233:\n        /* \"#utility.yul\":878:885   */\n      0x00\n        /* \"#utility.yul\":907:912   */\n      dup2\n        /* \"#utility.yul\":896:912   */\n      swap1\n      pop\n        /* \"#utility.yul\":841:918   */\n      swap2\n      swap1\n      pop\n      jump\t// out\n        /* \"#utility.yul\":924:1046   */\n    tag_234:\n        /* \"#utility.yul\":997:1021   */\n      tag_336\n        /* \"#utility.yul\":1015:1020   */\n      dup2\n        /* \"#utility.yul\":997:1021   */\n      tag_233\n      jump\t// in\n    tag_336:\n        /* \"#utility.yul\":990:995   */\n      dup2\n        /* \"#utility.yul\":987:1022   */\n      eq\n        /* \"#utility.yul\":977:1040   */\n      tag_337\n      jumpi\n        /* \"#utility.yul\":1036:1037   */\n      0x00\n        /* \"#utility.yul\":1033:1034   */\n      dup1\n        /* \"#utility.yul\":1026:1038   */\n      revert\n        /* \"#utility.yul\":977:1040   */\n    tag_337:\n        /* \"#utility.yul\":924:1046   */\n      pop\n      jump\t// out\n        /* \"#utility.yul\":1052:1191   */\n    tag_235:\n        /* \"#utility.yul\":1098:1103   */\n      0x00\n        /* \"#utility.yul\":1136:1142   */\n      dup2\n        /* \"#utility.yul\":1123:1143   */\n      calldataload\n        /* \"#utility.yul\":1114:1143   */\n      swap1\n      pop\n        /* \"#utility.yul\":1152:1185   */\n      tag_339\n        /* \"#utility.yul\":1179:1184   */\n      dup2\n        /* \"#utility.yul\":1152:1185   */\n      tag_234\n      jump\t// in\n    tag_339:\n        /* \"#utility.yul\":1052:1191   */\n      swap3\n      swap2\n      pop\n      pop\n      jump\t// out\n        /* \"#utility.yul\":1197:1671   */\n    tag_18:\n        /* \"#utility.yul\":1265:1271   */\n      0x00\n        /* \"#utility.yul\":1273:1279   */\n      dup1\n        /* \"#utility.yul\":1322:1324   */\n      0x40\n        /* \"#utility.yul\":1310:1319   */\n      dup4\n        /* \"#utility.yul\":1301:1308   */\n      dup6\n        /* \"#utility.yul\":1297:1320   */\n      sub\n        /* \"#utility.yul\":1293:1325   */\n      slt\n        /* \"#utility.yul\":1290:1409   */\n      iszero\n      tag_341\n      jumpi\n        /* \"#utility.yul\":1328:1407   */\n      tag_342\n      tag_227\n      jump\t// in\n    tag_342:\n        /* \"#utility.yul\":1290:1409   */\n    tag_341:\n        /* \"#utility.yul\":1448:1449   */\n      0x00\n        /* \"#utility.yul\":1473:1526   */\n      tag_343\n        /* \"#utility.yul\":1518:1525   */\n      dup6\n        /* \"#utility.yul\":1509:1515   */\n      dup3\n        /* \"#utility.yul\":1498:1507   */\n      dup7\n        /* \"#utility.yul\":1494:1516   */\n      add\n        /* \"#utility.yul\":1473:1526   */\n      tag_232\n      jump\t// in\n    tag_343:\n        /* \"#utility.yul\":1463:1526   */\n      swap3\n      pop\n        /* \"#utility.yul\":1419:1536   */\n      pop\n        /* \"#utility.yul\":1575:1577   */\n      0x20\n        /* \"#utility.yul\":1601:1654   */\n      tag_344\n        /* \"#utility.yul\":1646:1653   */\n      dup6\n        /* \"#utility.yul\":1637:1643   */\n      dup3\n        /* \"#utility.yul\":1626:1635   */\n      dup7\n        /* \"#utility.yul\":1622:1644   */\n      add\n        /* \"#utility.yul\":1601:1654   */\n      tag_235\n      jump\t// in\n    tag_344:\n        /* \"#utility.yul\":1591:1654   */\n      swap2\n      pop\n        /* \"#utility.yul\":1546:1664   */\n      pop\n        /* \"#utility.yul\":1197:1671   */\n      swap3\n      pop\n      swap3\n      swap1\n      pop\n      jump\t// out\n        /* \"#utility.yul\":1677:2006   */\n    tag_22:\n        /* \"#utility.yul\":1736:1742   */\n      0x00\n        /* \"#utility.yul\":1785:1787   */\n      0x20\n        /* \"#utility.yul\":1773:1782   */\n      dup3\n        /* \"#utility.yul\":1764:1771   */\n      dup5\n        /* \"#utility.yul\":1760:1783   */\n      sub\n        /* \"#utility.yul\":1756:1788   */\n      slt\n        /* \"#utility.yul\":1753:1872   */\n      iszero\n      tag_346\n      jumpi\n        /* \"#utility.yul\":1791:1870   */\n      tag_347\n      tag_227\n      jump\t// in\n    tag_347:\n        /* \"#utility.yul\":1753:1872   */\n    tag_346:\n        /* \"#utility.yul\":1911:1912   */\n      0x00\n        /* \"#utility.yul\":1936:1989   */\n      tag_348\n        /* \"#utility.yul\":1981:1988   */\n      dup5\n        /* \"#utility.yul\":1972:1978   */\n      dup3\n        /* \"#utility.yul\":1961:1970   */\n      dup6\n        /* \"#utility.yul\":1957:1979   */\n      add\n        /* \"#utility.yul\":1936:1989   */\n      tag_235\n      jump\t// in\n    tag_348:\n        /* \"#utility.yul\":1926:1989   */\n      swap2\n      pop\n        /* \"#utility.yul\":1882:1999   */\n      pop\n        /* \"#utility.yul\":1677:2006   */\n      swap3\n      swap2\n      pop\n      pop\n      jump\t// out\n        /* \"#utility.yul\":2012:2111   */\n    tag_236:\n        /* \"#utility.yul\":2064:2070   */\n      0x00\n        /* \"#utility.yul\":2098:2103   */\n      dup2\n        /* \"#utility.yul\":2092:2104   */\n      mload\n        /* \"#utility.yul\":2082:2104   */\n      swap1\n      pop\n        /* \"#utility.yul\":2012:2111   */\n      swap2\n      swap1\n      pop\n      jump\t// out\n        /* \"#utility.yul\":2117:2276   */\n    tag_237:\n        /* \"#utility.yul\":2191:2202   */\n      0x00\n        /* \"#utility.yul\":2225:2231   */\n      dup3\n        /* \"#utility.yul\":2220:2223   */\n      dup3\n        /* \"#utility.yul\":2213:2232   */\n      mstore\n        /* \"#utility.yul\":2265:2269   */\n      0x20\n        /* \"#utility.yul\":2260:2263   */\n      dup3\n        /* \"#utility.yul\":2256:2270   */\n      add\n        /* \"#utility.yul\":2241:2270   */\n      swap1\n      pop\n        /* \"#utility.yul\":2117:2276   */\n      swap3\n      swap2\n      pop\n      pop\n      jump\t// out\n        /* \"#utility.yul\":2282:2589   */\n    tag_238:\n        /* \"#utility.yul\":2350:2351   */\n      0x00\n        /* \"#utility.yul\":2360:2473   */\n    tag_352:\n        /* \"#utility.yul\":2374:2380   */\n      dup4\n        /* \"#utility.yul\":2371:2372   */\n      dup2\n        /* \"#utility.yul\":2368:2381   */\n      lt\n        /* \"#utility.yul\":2360:2473   */\n      iszero\n      tag_354\n      jumpi\n        /* \"#utility.yul\":2459:2460   */\n      dup1\n        /* \"#utility.yul\":2454:2457   */\n      dup3\n        /* \"#utility.yul\":2450:2461   */\n      add\n        /* \"#utility.yul\":2444:2462   */\n      mload\n        /* \"#utility.yul\":2440:2441   */\n      dup2\n        /* \"#utility.yul\":2435:2438   */\n      dup5\n        /* \"#utility.yul\":2431:2442   */\n      add\n        /* \"#utility.yul\":2424:2463   */\n      mstore\n        /* \"#utility.yul\":2396:2398   */\n      0x20\n        /* \"#utility.yul\":2393:2394   */\n      dup2\n        /* \"#utility.yul\":2389:2399   */\n      add\n        /* \"#utility.yul\":2384:2399   */\n      swap1\n      pop\n        /* \"#utility.yul\":2360:2473   */\n      jump(tag_352)\n    tag_354:\n        /* \"#utility.yul\":2491:2497   */\n      dup4\n        /* \"#utility.yul\":2488:2489   */\n      dup2\n        /* \"#utility.yul\":2485:2498   */\n      gt\n        /* \"#utility.yul\":2482:2583   */\n      iszero\n      tag_355\n      jumpi\n        /* \"#utility.yul\":2571:2572   */\n      0x00\n        /* \"#utility.yul\":2562:2568   */\n      dup5\n        /* \"#utility.yul\":2557:2560   */\n      dup5\n        /* \"#utility.yul\":2553:2569   */\n      add\n        /* \"#utility.yul\":2546:2573   */\n      mstore\n        /* \"#utility.yul\":2482:2583   */\n    tag_355:\n        /* \"#utility.yul\":2331:2589   */\n      pop\n        /* \"#utility.yul\":2282:2589   */\n      pop\n      pop\n      pop\n      jump\t// out\n        /* \"#utility.yul\":2595:2697   */\n    tag_239:\n        /* \"#utility.yul\":2636:2642   */\n      0x00\n        /* \"#utility.yul\":2687:2689   */\n      0x1f\n        /* \"#utility.yul\":2683:2690   */\n      not\n        /* \"#utility.yul\":2678:2680   */\n      0x1f\n        /* \"#utility.yul\":2671:2676   */\n      dup4\n        /* \"#utility.yul\":2667:2681   */\n      add\n        /* \"#utility.yul\":2663:2691   */\n      and\n        /* \"#utility.yul\":2653:2691   */\n      swap1\n      pop\n        /* \"#utility.yul\":2595:2697   */\n      swap2\n      swap1\n      pop\n      jump\t// out\n        /* \"#utility.yul\":2703:3047   */\n    tag_240:\n        /* \"#utility.yul\":2781:2784   */\n      0x00\n        /* \"#utility.yul\":2809:2848   */\n      tag_358\n        /* \"#utility.yul\":2842:2847   */\n      dup3\n        /* \"#utility.yul\":2809:2848   */\n      tag_236\n      jump\t// in\n    tag_358:\n        /* \"#utility.yul\":2864:2925   */\n      tag_359\n        /* \"#utility.yul\":2918:2924   */\n      dup2\n        /* \"#utility.yul\":2913:2916   */\n      dup6\n        /* \"#utility.yul\":2864:2925   */\n      tag_237\n      jump\t// in\n    tag_359:\n        /* \"#utility.yul\":2857:2925   */\n      swap4\n      pop\n        /* \"#utility.yul\":2934:2986   */\n      tag_360\n        /* \"#utility.yul\":2979:2985   */\n      dup2\n        /* \"#utility.yul\":2974:2977   */\n      dup6\n        /* \"#utility.yul\":2967:2971   */\n      0x20\n        /* \"#utility.yul\":2960:2965   */\n      dup7\n        /* \"#utility.yul\":2956:2972   */\n      add\n        /* \"#utility.yul\":2934:2986   */\n      tag_238\n      jump\t// in\n    tag_360:\n        /* \"#utility.yul\":3011:3040   */\n      tag_361\n        /* \"#utility.yul\":3033:3039   */\n      dup2\n        /* \"#utility.yul\":3011:3040   */\n      tag_239\n      jump\t// in\n    tag_361:\n        /* \"#utility.yul\":3006:3009   */\n      dup5\n        /* \"#utility.yul\":3002:3041   */\n      add\n        /* \"#utility.yul\":2995:3041   */\n      swap2\n      pop\n        /* \"#utility.yul\":2785:3047   */\n      pop\n        /* \"#utility.yul\":2703:3047   */\n      swap3\n      swap2\n      pop\n      pop\n      jump\t// out\n        /* \"#utility.yul\":3053:3161   */\n    tag_241:\n        /* \"#utility.yul\":3130:3154   */\n      tag_363\n        /* \"#utility.yul\":3148:3153   */\n      dup2\n        /* \"#utility.yul\":3130:3154   */\n      tag_230\n      jump\t// in\n    tag_363:\n        /* \"#utility.yul\":3125:3128   */\n      dup3\n        /* \"#utility.yul\":3118:3155   */\n      mstore\n        /* \"#utility.yul\":3053:3161   */\n      pop\n      pop\n      jump\t// out\n        /* \"#utility.yul\":3167:3281   */\n    tag_242:\n        /* \"#utility.yul\":3234:3240   */\n      0x00\n        /* \"#utility.yul\":3268:3273   */\n      dup2\n        /* \"#utility.yul\":3262:3274   */\n      mload\n        /* \"#utility.yul\":3252:3274   */\n      swap1\n      pop\n        /* \"#utility.yul\":3167:3281   */\n      swap2\n      swap1\n      pop\n      jump\t// out\n        /* \"#utility.yul\":3287:3461   */\n    tag_243:\n        /* \"#utility.yul\":3376:3387   */\n      0x00\n        /* \"#utility.yul\":3410:3416   */\n      dup3\n        /* \"#utility.yul\":3405:3408   */\n      dup3\n        /* \"#utility.yul\":3398:3417   */\n      mstore\n        /* \"#utility.yul\":3450:3454   */\n      0x20\n        /* \"#utility.yul\":3445:3448   */\n      dup3\n        /* \"#utility.yul\":3441:3455   */\n      add\n        /* \"#utility.yul\":3426:3455   */\n      swap1\n      pop\n        /* \"#utility.yul\":3287:3461   */\n      swap3\n      swap2\n      pop\n      pop\n      jump\t// out\n        /* \"#utility.yul\":3467:3599   */\n    tag_244:\n        /* \"#utility.yul\":3534:3538   */\n      0x00\n        /* \"#utility.yul\":3557:3560   */\n      dup2\n        /* \"#utility.yul\":3549:3560   */\n      swap1\n      pop\n        /* \"#utility.yul\":3587:3591   */\n      0x20\n        /* \"#utility.yul\":3582:3585   */\n      dup3\n        /* \"#utility.yul\":3578:3592   */\n      add\n        /* \"#utility.yul\":3570:3592   */\n      swap1\n      pop\n        /* \"#utility.yul\":3467:3599   */\n      swap2\n      swap1\n      pop\n      jump\t// out\n        /* \"#utility.yul\":3605:3784   */\n    tag_245:\n        /* \"#utility.yul\":3674:3684   */\n      0x00\n        /* \"#utility.yul\":3695:3741   */\n      tag_368\n        /* \"#utility.yul\":3737:3740   */\n      dup4\n        /* \"#utility.yul\":3729:3735   */\n      dup4\n        /* \"#utility.yul\":3695:3741   */\n      tag_241\n      jump\t// in\n    tag_368:\n        /* \"#utility.yul\":3773:3777   */\n      0x20\n        /* \"#utility.yul\":3768:3771   */\n      dup4\n        /* \"#utility.yul\":3764:3778   */\n      add\n        /* \"#utility.yul\":3750:3778   */\n      swap1\n      pop\n        /* \"#utility.yul\":3605:3784   */\n      swap3\n      swap2\n      pop\n      pop\n      jump\t// out\n        /* \"#utility.yul\":3790:3903   */\n    tag_246:\n        /* \"#utility.yul\":3860:3864   */\n      0x00\n        /* \"#utility.yul\":3892:3896   */\n      0x20\n        /* \"#utility.yul\":3887:3890   */\n      dup3\n        /* \"#utility.yul\":3883:3897   */\n      add\n        /* \"#utility.yul\":3875:3897   */\n      swap1\n      pop\n        /* \"#utility.yul\":3790:3903   */\n      swap2\n      swap1\n      pop\n      jump\t// out\n        /* \"#utility.yul\":3939:4651   */\n    tag_247:\n        /* \"#utility.yul\":4048:4051   */\n      0x00\n        /* \"#utility.yul\":4077:4131   */\n      tag_371\n        /* \"#utility.yul\":4125:4130   */\n      dup3\n        /* \"#utility.yul\":4077:4131   */\n      tag_242\n      jump\t// in\n    tag_371:\n        /* \"#utility.yul\":4147:4223   */\n      tag_372\n        /* \"#utility.yul\":4216:4222   */\n      dup2\n        /* \"#utility.yul\":4211:4214   */\n      dup6\n        /* \"#utility.yul\":4147:4223   */\n      tag_243\n      jump\t// in\n    tag_372:\n        /* \"#utility.yul\":4140:4223   */\n      swap4\n      pop\n        /* \"#utility.yul\":4247:4303   */\n      tag_373\n        /* \"#utility.yul\":4297:4302   */\n      dup4\n        /* \"#utility.yul\":4247:4303   */\n      tag_244\n      jump\t// in\n    tag_373:\n        /* \"#utility.yul\":4326:4333   */\n      dup1\n        /* \"#utility.yul\":4357:4358   */\n      0x00\n        /* \"#utility.yul\":4342:4626   */\n    tag_374:\n        /* \"#utility.yul\":4367:4373   */\n      dup4\n        /* \"#utility.yul\":4364:4365   */\n      dup2\n        /* \"#utility.yul\":4361:4374   */\n      lt\n        /* \"#utility.yul\":4342:4626   */\n      iszero\n      tag_376\n      jumpi\n        /* \"#utility.yul\":4443:4449   */\n      dup2\n        /* \"#utility.yul\":4437:4450   */\n      mload\n        /* \"#utility.yul\":4470:4533   */\n      tag_377\n        /* \"#utility.yul\":4529:4532   */\n      dup9\n        /* \"#utility.yul\":4514:4527   */\n      dup3\n        /* \"#utility.yul\":4470:4533   */\n      tag_245\n      jump\t// in\n    tag_377:\n        /* \"#utility.yul\":4463:4533   */\n      swap8\n      pop\n        /* \"#utility.yul\":4556:4616   */\n      tag_378\n        /* \"#utility.yul\":4609:4615   */\n      dup4\n        /* \"#utility.yul\":4556:4616   */\n      tag_246\n      jump\t// in\n    tag_378:\n        /* \"#utility.yul\":4546:4616   */\n      swap3\n      pop\n        /* \"#utility.yul\":4402:4626   */\n      pop\n        /* \"#utility.yul\":4389:4390   */\n      0x01\n        /* \"#utility.yul\":4386:4387   */\n      dup2\n        /* \"#utility.yul\":4382:4391   */\n      add\n        /* \"#utility.yul\":4377:4391   */\n      swap1\n      pop\n        /* \"#utility.yul\":4342:4626   */\n      jump(tag_374)\n    tag_376:\n        /* \"#utility.yul\":4346:4360   */\n      pop\n        /* \"#utility.yul\":4642:4645   */\n      dup6\n        /* \"#utility.yul\":4635:4645   */\n      swap4\n      pop\n        /* \"#utility.yul\":4053:4651   */\n      pop\n      pop\n      pop\n        /* \"#utility.yul\":3939:4651   */\n      swap3\n      swap2\n      pop\n      pop\n      jump\t// out\n        /* \"#utility.yul\":4657:4750   */\n    tag_248:\n        /* \"#utility.yul\":4693:4700   */\n      0x00\n        /* \"#utility.yul\":4733:4743   */\n      0xffffffff\n        /* \"#utility.yul\":4726:4731   */\n      dup3\n        /* \"#utility.yul\":4722:4744   */\n      and\n        /* \"#utility.yul\":4711:4744   */\n      swap1\n      pop\n        /* \"#utility.yul\":4657:4750   */\n      swap2\n      swap1\n      pop\n      jump\t// out\n        /* \"#utility.yul\":4756:4861   */\n    tag_249:\n        /* \"#utility.yul\":4831:4854   */\n      tag_381\n        /* \"#utility.yul\":4848:4853   */\n      dup2\n        /* \"#utility.yul\":4831:4854   */\n      tag_248\n      jump\t// in\n    tag_381:\n        /* \"#utility.yul\":4826:4829   */\n      dup3\n        /* \"#utility.yul\":4819:4855   */\n      mstore\n        /* \"#utility.yul\":4756:4861   */\n      pop\n      pop\n      jump\t// out\n        /* \"#utility.yul\":4867:4957   */\n    tag_250:\n        /* \"#utility.yul\":4901:4908   */\n      0x00\n        /* \"#utility.yul\":4944:4949   */\n      dup2\n        /* \"#utility.yul\":4937:4950   */\n      iszero\n        /* \"#utility.yul\":4930:4951   */\n      iszero\n        /* \"#utility.yul\":4919:4951   */\n      swap1\n      pop\n        /* \"#utility.yul\":4867:4957   */\n      swap2\n      swap1\n      pop\n      jump\t// out\n        /* \"#utility.yul\":4963:5062   */\n    tag_251:\n        /* \"#utility.yul\":5034:5055   */\n      tag_384\n        /* \"#utility.yul\":5049:5054   */\n      dup2\n        /* \"#utility.yul\":5034:5055   */\n      tag_250\n      jump\t// in\n    tag_384:\n        /* \"#utility.yul\":5029:5032   */\n      dup3\n        /* \"#utility.yul\":5022:5056   */\n      mstore\n        /* \"#utility.yul\":4963:5062   */\n      pop\n      pop\n      jump\t// out\n        /* \"#utility.yul\":5128:6565   */\n    tag_252:\n        /* \"#utility.yul\":5249:5252   */\n      0x00\n        /* \"#utility.yul\":5285:5289   */\n      0xc0\n        /* \"#utility.yul\":5280:5283   */\n      dup4\n        /* \"#utility.yul\":5276:5290   */\n      add\n        /* \"#utility.yul\":5372:5376   */\n      0x00\n        /* \"#utility.yul\":5365:5370   */\n      dup4\n        /* \"#utility.yul\":5361:5377   */\n      add\n        /* \"#utility.yul\":5355:5378   */\n      mload\n        /* \"#utility.yul\":5425:5428   */\n      dup5\n        /* \"#utility.yul\":5419:5423   */\n      dup3\n        /* \"#utility.yul\":5415:5429   */\n      sub\n        /* \"#utility.yul\":5408:5412   */\n      0x00\n        /* \"#utility.yul\":5403:5406   */\n      dup7\n        /* \"#utility.yul\":5399:5413   */\n      add\n        /* \"#utility.yul\":5392:5430   */\n      mstore\n        /* \"#utility.yul\":5451:5524   */\n      tag_386\n        /* \"#utility.yul\":5519:5523   */\n      dup3\n        /* \"#utility.yul\":5505:5517   */\n      dup3\n        /* \"#utility.yul\":5451:5524   */\n      tag_240\n      jump\t// in\n    tag_386:\n        /* \"#utility.yul\":5443:5524   */\n      swap2\n      pop\n        /* \"#utility.yul\":5300:5535   */\n      pop\n        /* \"#utility.yul\":5621:5625   */\n      0x20\n        /* \"#utility.yul\":5614:5619   */\n      dup4\n        /* \"#utility.yul\":5610:5626   */\n      add\n        /* \"#utility.yul\":5604:5627   */\n      mload\n        /* \"#utility.yul\":5640:5703   */\n      tag_387\n        /* \"#utility.yul\":5697:5701   */\n      0x20\n        /* \"#utility.yul\":5692:5695   */\n      dup7\n        /* \"#utility.yul\":5688:5702   */\n      add\n        /* \"#utility.yul\":5674:5686   */\n      dup3\n        /* \"#utility.yul\":5640:5703   */\n      tag_241\n      jump\t// in\n    tag_387:\n        /* \"#utility.yul\":5545:5713   */\n      pop\n        /* \"#utility.yul\":5801:5805   */\n      0x40\n        /* \"#utility.yul\":5794:5799   */\n      dup4\n        /* \"#utility.yul\":5790:5806   */\n      add\n        /* \"#utility.yul\":5784:5807   */\n      mload\n        /* \"#utility.yul\":5854:5857   */\n      dup5\n        /* \"#utility.yul\":5848:5852   */\n      dup3\n        /* \"#utility.yul\":5844:5858   */\n      sub\n        /* \"#utility.yul\":5837:5841   */\n      0x40\n        /* \"#utility.yul\":5832:5835   */\n      dup7\n        /* \"#utility.yul\":5828:5842   */\n      add\n        /* \"#utility.yul\":5821:5859   */\n      mstore\n        /* \"#utility.yul\":5880:5983   */\n      tag_388\n        /* \"#utility.yul\":5978:5982   */\n      dup3\n        /* \"#utility.yul\":5964:5976   */\n      dup3\n        /* \"#utility.yul\":5880:5983   */\n      tag_247\n      jump\t// in\n    tag_388:\n        /* \"#utility.yul\":5872:5983   */\n      swap2\n      pop\n        /* \"#utility.yul\":5723:5994   */\n      pop\n        /* \"#utility.yul\":6089:6093   */\n      0x60\n        /* \"#utility.yul\":6082:6087   */\n      dup4\n        /* \"#utility.yul\":6078:6094   */\n      add\n        /* \"#utility.yul\":6072:6095   */\n      mload\n        /* \"#utility.yul\":6108:6169   */\n      tag_389\n        /* \"#utility.yul\":6163:6167   */\n      0x60\n        /* \"#utility.yul\":6158:6161   */\n      dup7\n        /* \"#utility.yul\":6154:6168   */\n      add\n        /* \"#utility.yul\":6140:6152   */\n      dup3\n        /* \"#utility.yul\":6108:6169   */\n      tag_249\n      jump\t// in\n    tag_389:\n        /* \"#utility.yul\":6004:6179   */\n      pop\n        /* \"#utility.yul\":6278:6282   */\n      0x80\n        /* \"#utility.yul\":6271:6276   */\n      dup4\n        /* \"#utility.yul\":6267:6283   */\n      add\n        /* \"#utility.yul\":6261:6284   */\n      mload\n        /* \"#utility.yul\":6297:6358   */\n      tag_390\n        /* \"#utility.yul\":6352:6356   */\n      0x80\n        /* \"#utility.yul\":6347:6350   */\n      dup7\n        /* \"#utility.yul\":6343:6357   */\n      add\n        /* \"#utility.yul\":6329:6341   */\n      dup3\n        /* \"#utility.yul\":6297:6358   */\n      tag_249\n      jump\t// in\n    tag_390:\n        /* \"#utility.yul\":6189:6368   */\n      pop\n        /* \"#utility.yul\":6452:6456   */\n      0xa0\n        /* \"#utility.yul\":6445:6450   */\n      dup4\n        /* \"#utility.yul\":6441:6457   */\n      add\n        /* \"#utility.yul\":6435:6458   */\n      mload\n        /* \"#utility.yul\":6471:6528   */\n      tag_391\n        /* \"#utility.yul\":6522:6526   */\n      0xa0\n        /* \"#utility.yul\":6517:6520   */\n      dup7\n        /* \"#utility.yul\":6513:6527   */\n      add\n        /* \"#utility.yul\":6499:6511   */\n      dup3\n        /* \"#utility.yul\":6471:6528   */\n      tag_251\n      jump\t// in\n    tag_391:\n        /* \"#utility.yul\":6378:6538   */\n      pop\n        /* \"#utility.yul\":6555:6559   */\n      dup1\n        /* \"#utility.yul\":6548:6559   */\n      swap2\n      pop\n        /* \"#utility.yul\":5254:6565   */\n      pop\n        /* \"#utility.yul\":5128:6565   */\n      swap3\n      swap2\n      pop\n      pop\n      jump\t// out\n        /* \"#utility.yul\":6571:6948   */\n    tag_25:\n        /* \"#utility.yul\":6716:6720   */\n      0x00\n        /* \"#utility.yul\":6754:6756   */\n      0x20\n        /* \"#utility.yul\":6743:6752   */\n      dup3\n        /* \"#utility.yul\":6739:6757   */\n      add\n        /* \"#utility.yul\":6731:6757   */\n      swap1\n      pop\n        /* \"#utility.yul\":6803:6812   */\n      dup2\n        /* \"#utility.yul\":6797:6801   */\n      dup2\n        /* \"#utility.yul\":6793:6813   */\n      sub\n        /* \"#utility.yul\":6789:6790   */\n      0x00\n        /* \"#utility.yul\":6778:6787   */\n      dup4\n        /* \"#utility.yul\":6774:6791   */\n      add\n        /* \"#utility.yul\":6767:6814   */\n      mstore\n        /* \"#utility.yul\":6831:6941   */\n      tag_393\n        /* \"#utility.yul\":6936:6940   */\n      dup2\n        /* \"#utility.yul\":6927:6933   */\n      dup5\n        /* \"#utility.yul\":6831:6941   */\n      tag_252\n      jump\t// in\n    tag_393:\n        /* \"#utility.yul\":6823:6941   */\n      swap1\n      pop\n        /* \"#utility.yul\":6571:6948   */\n      swap3\n      swap2\n      pop\n      pop\n      jump\t// out\n        /* \"#utility.yul\":6954:7072   */\n    tag_253:\n        /* \"#utility.yul\":7041:7065   */\n      tag_395\n        /* \"#utility.yul\":7059:7064   */\n      dup2\n        /* \"#utility.yul\":7041:7065   */\n      tag_233\n      jump\t// in\n    tag_395:\n        /* \"#utility.yul\":7036:7039   */\n      dup3\n        /* \"#utility.yul\":7029:7066   */\n      mstore\n        /* \"#utility.yul\":6954:7072   */\n      pop\n      pop\n      jump\t// out\n        /* \"#utility.yul\":7078:7300   */\n    tag_30:\n        /* \"#utility.yul\":7171:7175   */\n      0x00\n        /* \"#utility.yul\":7209:7211   */\n      0x20\n        /* \"#utility.yul\":7198:7207   */\n      dup3\n        /* \"#utility.yul\":7194:7212   */\n      add\n        /* \"#utility.yul\":7186:7212   */\n      swap1\n      pop\n        /* \"#utility.yul\":7222:7293   */\n      tag_397\n        /* \"#utility.yul\":7290:7291   */\n      0x00\n        /* \"#utility.yul\":7279:7288   */\n      dup4\n        /* \"#utility.yul\":7275:7292   */\n      add\n        /* \"#utility.yul\":7266:7272   */\n      dup5\n        /* \"#utility.yul\":7222:7293   */\n      tag_253\n      jump\t// in\n    tag_397:\n        /* \"#utility.yul\":7078:7300   */\n      swap3\n      swap2\n      pop\n      pop\n      jump\t// out\n        /* \"#utility.yul\":7306:7635   */\n    tag_33:\n        /* \"#utility.yul\":7365:7371   */\n      0x00\n        /* \"#utility.yul\":7414:7416   */\n      0x20\n        /* \"#utility.yul\":7402:7411   */\n      dup3\n        /* \"#utility.yul\":7393:7400   */\n      dup5\n        /* \"#utility.yul\":7389:7412   */\n      sub\n        /* \"#utility.yul\":7385:7417   */\n      slt\n        /* \"#utility.yul\":7382:7501   */\n      iszero\n      tag_399\n      jumpi\n        /* \"#utility.yul\":7420:7499   */\n      tag_400\n      tag_227\n      jump\t// in\n    tag_400:\n        /* \"#utility.yul\":7382:7501   */\n    tag_399:\n        /* \"#utility.yul\":7540:7541   */\n      0x00\n        /* \"#utility.yul\":7565:7618   */\n      tag_401\n        /* \"#utility.yul\":7610:7617   */\n      dup5\n        /* \"#utility.yul\":7601:7607   */\n      dup3\n        /* \"#utility.yul\":7590:7599   */\n      dup6\n        /* \"#utility.yul\":7586:7608   */\n      add\n        /* \"#utility.yul\":7565:7618   */\n      tag_232\n      jump\t// in\n    tag_401:\n        /* \"#utility.yul\":7555:7618   */\n      swap2\n      pop\n        /* \"#utility.yul\":7511:7628   */\n      pop\n        /* \"#utility.yul\":7306:7635   */\n      swap3\n      swap2\n      pop\n      pop\n      jump\t// out\n        /* \"#utility.yul\":7641:7825   */\n    tag_254:\n        /* \"#utility.yul\":7740:7751   */\n      0x00\n        /* \"#utility.yul\":7774:7780   */\n      dup3\n        /* \"#utility.yul\":7769:7772   */\n      dup3\n        /* \"#utility.yul\":7762:7781   */\n      mstore\n        /* \"#utility.yul\":7814:7818   */\n      0x20\n        /* \"#utility.yul\":7809:7812   */\n      dup3\n        /* \"#utility.yul\":7805:7819   */\n      add\n        /* \"#utility.yul\":7790:7819   */\n      swap1\n      pop\n        /* \"#utility.yul\":7641:7825   */\n      swap3\n      swap2\n      pop\n      pop\n      jump\t// out\n        /* \"#utility.yul\":7861:8593   */\n    tag_255:\n        /* \"#utility.yul\":7980:7983   */\n      0x00\n        /* \"#utility.yul\":8009:8063   */\n      tag_404\n        /* \"#utility.yul\":8057:8062   */\n      dup3\n        /* \"#utility.yul\":8009:8063   */\n      tag_242\n      jump\t// in\n    tag_404:\n        /* \"#utility.yul\":8079:8165   */\n      tag_405\n        /* \"#utility.yul\":8158:8164   */\n      dup2\n        /* \"#utility.yul\":8153:8156   */\n      dup6\n        /* \"#utility.yul\":8079:8165   */\n      tag_254\n      jump\t// in\n    tag_405:\n        /* \"#utility.yul\":8072:8165   */\n      swap4\n      pop\n        /* \"#utility.yul\":8189:8245   */\n      tag_406\n        /* \"#utility.yul\":8239:8244   */\n      dup4\n        /* \"#utility.yul\":8189:8245   */\n      tag_244\n      jump\t// in\n    tag_406:\n        /* \"#utility.yul\":8268:8275   */\n      dup1\n        /* \"#utility.yul\":8299:8300   */\n      0x00\n        /* \"#utility.yul\":8284:8568   */\n    tag_407:\n        /* \"#utility.yul\":8309:8315   */\n      dup4\n        /* \"#utility.yul\":8306:8307   */\n      dup2\n        /* \"#utility.yul\":8303:8316   */\n      lt\n        /* \"#utility.yul\":8284:8568   */\n      iszero\n      tag_409\n      jumpi\n        /* \"#utility.yul\":8385:8391   */\n      dup2\n        /* \"#utility.yul\":8379:8392   */\n      mload\n        /* \"#utility.yul\":8412:8475   */\n      tag_410\n        /* \"#utility.yul\":8471:8474   */\n      dup9\n        /* \"#utility.yul\":8456:8469   */\n      dup3\n        /* \"#utility.yul\":8412:8475   */\n      tag_245\n      jump\t// in\n    tag_410:\n        /* \"#utility.yul\":8405:8475   */\n      swap8\n      pop\n        /* \"#utility.yul\":8498:8558   */\n      tag_411\n        /* \"#utility.yul\":8551:8557   */\n      dup4\n        /* \"#utility.yul\":8498:8558   */\n      tag_246\n      jump\t// in\n    tag_411:\n        /* \"#utility.yul\":8488:8558   */\n      swap3\n      pop\n        /* \"#utility.yul\":8344:8568   */\n      pop\n        /* \"#utility.yul\":8331:8332   */\n      0x01\n        /* \"#utility.yul\":8328:8329   */\n      dup2\n        /* \"#utility.yul\":8324:8333   */\n      add\n        /* \"#utility.yul\":8319:8333   */\n      swap1\n      pop\n        /* \"#utility.yul\":8284:8568   */\n      jump(tag_407)\n    tag_409:\n        /* \"#utility.yul\":8288:8302   */\n      pop\n        /* \"#utility.yul\":8584:8587   */\n      dup6\n        /* \"#utility.yul\":8577:8587   */\n      swap4\n      pop\n        /* \"#utility.yul\":7985:8593   */\n      pop\n      pop\n      pop\n        /* \"#utility.yul\":7861:8593   */\n      swap3\n      swap2\n      pop\n      pop\n      jump\t// out\n        /* \"#utility.yul\":8599:8972   */\n    tag_40:\n        /* \"#utility.yul\":8742:8746   */\n      0x00\n        /* \"#utility.yul\":8780:8782   */\n      0x20\n        /* \"#utility.yul\":8769:8778   */\n      dup3\n        /* \"#utility.yul\":8765:8783   */\n      add\n        /* \"#utility.yul\":8757:8783   */\n      swap1\n      pop\n        /* \"#utility.yul\":8829:8838   */\n      dup2\n        /* \"#utility.yul\":8823:8827   */\n      dup2\n        /* \"#utility.yul\":8819:8839   */\n      sub\n        /* \"#utility.yul\":8815:8816   */\n      0x00\n        /* \"#utility.yul\":8804:8813   */\n      dup4\n        /* \"#utility.yul\":8800:8817   */\n      add\n        /* \"#utility.yul\":8793:8840   */\n      mstore\n        /* \"#utility.yul\":8857:8965   */\n      tag_413\n        /* \"#utility.yul\":8960:8964   */\n      dup2\n        /* \"#utility.yul\":8951:8957   */\n      dup5\n        /* \"#utility.yul\":8857:8965   */\n      tag_255\n      jump\t// in\n    tag_413:\n        /* \"#utility.yul\":8849:8965   */\n      swap1\n      pop\n        /* \"#utility.yul\":8599:8972   */\n      swap3\n      swap2\n      pop\n      pop\n      jump\t// out\n        /* \"#utility.yul\":8978:9092   */\n    tag_256:\n        /* \"#utility.yul\":9045:9051   */\n      0x00\n        /* \"#utility.yul\":9079:9084   */\n      dup2\n        /* \"#utility.yul\":9073:9085   */\n      mload\n        /* \"#utility.yul\":9063:9085   */\n      swap1\n      pop\n        /* \"#utility.yul\":8978:9092   */\n      swap2\n      swap1\n      pop\n      jump\t// out\n        /* \"#utility.yul\":9098:9282   */\n    tag_257:\n        /* \"#utility.yul\":9197:9208   */\n      0x00\n        /* \"#utility.yul\":9231:9237   */\n      dup3\n        /* \"#utility.yul\":9226:9229   */\n      dup3\n        /* \"#utility.yul\":9219:9238   */\n      mstore\n        /* \"#utility.yul\":9271:9275   */\n      0x20\n        /* \"#utility.yul\":9266:9269   */\n      dup3\n        /* \"#utility.yul\":9262:9276   */\n      add\n        /* \"#utility.yul\":9247:9276   */\n      swap1\n      pop\n        /* \"#utility.yul\":9098:9282   */\n      swap3\n      swap2\n      pop\n      pop\n      jump\t// out\n        /* \"#utility.yul\":9288:9420   */\n    tag_258:\n        /* \"#utility.yul\":9355:9359   */\n      0x00\n        /* \"#utility.yul\":9378:9381   */\n      dup2\n        /* \"#utility.yul\":9370:9381   */\n      swap1\n      pop\n        /* \"#utility.yul\":9408:9412   */\n      0x20\n        /* \"#utility.yul\":9403:9406   */\n      dup3\n        /* \"#utility.yul\":9399:9413   */\n      add\n        /* \"#utility.yul\":9391:9413   */\n      swap1\n      pop\n        /* \"#utility.yul\":9288:9420   */\n      swap2\n      swap1\n      pop\n      jump\t// out\n        /* \"#utility.yul\":9426:9534   */\n    tag_259:\n        /* \"#utility.yul\":9503:9527   */\n      tag_418\n        /* \"#utility.yul\":9521:9526   */\n      dup2\n        /* \"#utility.yul\":9503:9527   */\n      tag_233\n      jump\t// in\n    tag_418:\n        /* \"#utility.yul\":9498:9501   */\n      dup3\n        /* \"#utility.yul\":9491:9528   */\n      mstore\n        /* \"#utility.yul\":9426:9534   */\n      pop\n      pop\n      jump\t// out\n        /* \"#utility.yul\":9540:9719   */\n    tag_260:\n        /* \"#utility.yul\":9609:9619   */\n      0x00\n        /* \"#utility.yul\":9630:9676   */\n      tag_420\n        /* \"#utility.yul\":9672:9675   */\n      dup4\n        /* \"#utility.yul\":9664:9670   */\n      dup4\n        /* \"#utility.yul\":9630:9676   */\n      tag_259\n      jump\t// in\n    tag_420:\n        /* \"#utility.yul\":9708:9712   */\n      0x20\n        /* \"#utility.yul\":9703:9706   */\n      dup4\n        /* \"#utility.yul\":9699:9713   */\n      add\n        /* \"#utility.yul\":9685:9713   */\n      swap1\n      pop\n        /* \"#utility.yul\":9540:9719   */\n      swap3\n      swap2\n      pop\n      pop\n      jump\t// out\n        /* \"#utility.yul\":9725:9838   */\n    tag_261:\n        /* \"#utility.yul\":9795:9799   */\n      0x00\n        /* \"#utility.yul\":9827:9831   */\n      0x20\n        /* \"#utility.yul\":9822:9825   */\n      dup3\n        /* \"#utility.yul\":9818:9832   */\n      add\n        /* \"#utility.yul\":9810:9832   */\n      swap1\n      pop\n        /* \"#utility.yul\":9725:9838   */\n      swap2\n      swap1\n      pop\n      jump\t// out\n        /* \"#utility.yul\":9874:10606   */\n    tag_262:\n        /* \"#utility.yul\":9993:9996   */\n      0x00\n        /* \"#utility.yul\":10022:10076   */\n      tag_423\n        /* \"#utility.yul\":10070:10075   */\n      dup3\n        /* \"#utility.yul\":10022:10076   */\n      tag_256\n      jump\t// in\n    tag_423:\n        /* \"#utility.yul\":10092:10178   */\n      tag_424\n        /* \"#utility.yul\":10171:10177   */\n      dup2\n        /* \"#utility.yul\":10166:10169   */\n      dup6\n        /* \"#utility.yul\":10092:10178   */\n      tag_257\n      jump\t// in\n    tag_424:\n        /* \"#utility.yul\":10085:10178   */\n      swap4\n      pop\n        /* \"#utility.yul\":10202:10258   */\n      tag_425\n        /* \"#utility.yul\":10252:10257   */\n      dup4\n        /* \"#utility.yul\":10202:10258   */\n      tag_258\n      jump\t// in\n    tag_425:\n        /* \"#utility.yul\":10281:10288   */\n      dup1\n        /* \"#utility.yul\":10312:10313   */\n      0x00\n        /* \"#utility.yul\":10297:10581   */\n    tag_426:\n        /* \"#utility.yul\":10322:10328   */\n      dup4\n        /* \"#utility.yul\":10319:10320   */\n      dup2\n        /* \"#utility.yul\":10316:10329   */\n      lt\n        /* \"#utility.yul\":10297:10581   */\n      iszero\n      tag_428\n      jumpi\n        /* \"#utility.yul\":10398:10404   */\n      dup2\n        /* \"#utility.yul\":10392:10405   */\n      mload\n        /* \"#utility.yul\":10425:10488   */\n      tag_429\n        /* \"#utility.yul\":10484:10487   */\n      dup9\n        /* \"#utility.yul\":10469:10482   */\n      dup3\n        /* \"#utility.yul\":10425:10488   */\n      tag_260\n      jump\t// in\n    tag_429:\n        /* \"#utility.yul\":10418:10488   */\n      swap8\n      pop\n        /* \"#utility.yul\":10511:10571   */\n      tag_430\n        /* \"#utility.yul\":10564:10570   */\n      dup4\n        /* \"#utility.yul\":10511:10571   */\n      tag_261\n      jump\t// in\n    tag_430:\n        /* \"#utility.yul\":10501:10571   */\n      swap3\n      pop\n        /* \"#utility.yul\":10357:10581   */\n      pop\n        /* \"#utility.yul\":10344:10345   */\n      0x01\n        /* \"#utility.yul\":10341:10342   */\n      dup2\n        /* \"#utility.yul\":10337:10346   */\n      add\n        /* \"#utility.yul\":10332:10346   */\n      swap1\n      pop\n        /* \"#utility.yul\":10297:10581   */\n      jump(tag_426)\n    tag_428:\n        /* \"#utility.yul\":10301:10315   */\n      pop\n        /* \"#utility.yul\":10597:10600   */\n      dup6\n        /* \"#utility.yul\":10590:10600   */\n      swap4\n      pop\n        /* \"#utility.yul\":9998:10606   */\n      pop\n      pop\n      pop\n        /* \"#utility.yul\":9874:10606   */\n      swap3\n      swap2\n      pop\n      pop\n      jump\t// out\n        /* \"#utility.yul\":10612:10730   */\n    tag_263:\n        /* \"#utility.yul\":10699:10723   */\n      tag_432\n        /* \"#utility.yul\":10717:10722   */\n      dup2\n        /* \"#utility.yul\":10699:10723   */\n      tag_230\n      jump\t// in\n    tag_432:\n        /* \"#utility.yul\":10694:10697   */\n      dup3\n        /* \"#utility.yul\":10687:10724   */\n      mstore\n        /* \"#utility.yul\":10612:10730   */\n      pop\n      pop\n      jump\t// out\n        /* \"#utility.yul\":10736:11329   */\n    tag_45:\n        /* \"#utility.yul\":10935:10939   */\n      0x00\n        /* \"#utility.yul\":10973:10975   */\n      0x60\n        /* \"#utility.yul\":10962:10971   */\n      dup3\n        /* \"#utility.yul\":10958:10976   */\n      add\n        /* \"#utility.yul\":10950:10976   */\n      swap1\n      pop\n        /* \"#utility.yul\":11022:11031   */\n      dup2\n        /* \"#utility.yul\":11016:11020   */\n      dup2\n        /* \"#utility.yul\":11012:11032   */\n      sub\n        /* \"#utility.yul\":11008:11009   */\n      0x00\n        /* \"#utility.yul\":10997:11006   */\n      dup4\n        /* \"#utility.yul\":10993:11010   */\n      add\n        /* \"#utility.yul\":10986:11033   */\n      mstore\n        /* \"#utility.yul\":11050:11158   */\n      tag_434\n        /* \"#utility.yul\":11153:11157   */\n      dup2\n        /* \"#utility.yul\":11144:11150   */\n      dup7\n        /* \"#utility.yul\":11050:11158   */\n      tag_262\n      jump\t// in\n    tag_434:\n        /* \"#utility.yul\":11042:11158   */\n      swap1\n      pop\n        /* \"#utility.yul\":11168:11240   */\n      tag_435\n        /* \"#utility.yul\":11236:11238   */\n      0x20\n        /* \"#utility.yul\":11225:11234   */\n      dup4\n        /* \"#utility.yul\":11221:11239   */\n      add\n        /* \"#utility.yul\":11212:11218   */\n      dup6\n        /* \"#utility.yul\":11168:11240   */\n      tag_263\n      jump\t// in\n    tag_435:\n        /* \"#utility.yul\":11250:11322   */\n      tag_436\n        /* \"#utility.yul\":11318:11320   */\n      0x40\n        /* \"#utility.yul\":11307:11316   */\n      dup4\n        /* \"#utility.yul\":11303:11321   */\n      add\n        /* \"#utility.yul\":11294:11300   */\n      dup5\n        /* \"#utility.yul\":11250:11322   */\n      tag_253\n      jump\t// in\n    tag_436:\n        /* \"#utility.yul\":10736:11329   */\n      swap5\n      swap4\n      pop\n      pop\n      pop\n      pop\n      jump\t// out\n        /* \"#utility.yul\":11335:11504   */\n    tag_264:\n        /* \"#utility.yul\":11419:11430   */\n      0x00\n        /* \"#utility.yul\":11453:11459   */\n      dup3\n        /* \"#utility.yul\":11448:11451   */\n      dup3\n        /* \"#utility.yul\":11441:11460   */\n      mstore\n        /* \"#utility.yul\":11493:11497   */\n      0x20\n        /* \"#utility.yul\":11488:11491   */\n      dup3\n        /* \"#utility.yul\":11484:11498   */\n      add\n        /* \"#utility.yul\":11469:11498   */\n      swap1\n      pop\n        /* \"#utility.yul\":11335:11504   */\n      swap3\n      swap2\n      pop\n      pop\n      jump\t// out\n        /* \"#utility.yul\":11510:11874   */\n    tag_265:\n        /* \"#utility.yul\":11598:11601   */\n      0x00\n        /* \"#utility.yul\":11626:11665   */\n      tag_439\n        /* \"#utility.yul\":11659:11664   */\n      dup3\n        /* \"#utility.yul\":11626:11665   */\n      tag_236\n      jump\t// in\n    tag_439:\n        /* \"#utility.yul\":11681:11752   */\n      tag_440\n        /* \"#utility.yul\":11745:11751   */\n      dup2\n        /* \"#utility.yul\":11740:11743   */\n      dup6\n        /* \"#utility.yul\":11681:11752   */\n      tag_264\n      jump\t// in\n    tag_440:\n        /* \"#utility.yul\":11674:11752   */\n      swap4\n      pop\n        /* \"#utility.yul\":11761:11813   */\n      tag_441\n        /* \"#utility.yul\":11806:11812   */\n      dup2\n        /* \"#utility.yul\":11801:11804   */\n      dup6\n        /* \"#utility.yul\":11794:11798   */\n      0x20\n        /* \"#utility.yul\":11787:11792   */\n      dup7\n        /* \"#utility.yul\":11783:11799   */\n      add\n        /* \"#utility.yul\":11761:11813   */\n      tag_238\n      jump\t// in\n    tag_441:\n        /* \"#utility.yul\":11838:11867   */\n      tag_442\n        /* \"#utility.yul\":11860:11866   */\n      dup2\n        /* \"#utility.yul\":11838:11867   */\n      tag_239\n      jump\t// in\n    tag_442:\n        /* \"#utility.yul\":11833:11836   */\n      dup5\n        /* \"#utility.yul\":11829:11868   */\n      add\n        /* \"#utility.yul\":11822:11868   */\n      swap2\n      pop\n        /* \"#utility.yul\":11602:11874   */\n      pop\n        /* \"#utility.yul\":11510:11874   */\n      swap3\n      swap2\n      pop\n      pop\n      jump\t// out\n        /* \"#utility.yul\":11880:11995   */\n    tag_266:\n        /* \"#utility.yul\":11965:11988   */\n      tag_444\n        /* \"#utility.yul\":11982:11987   */\n      dup2\n        /* \"#utility.yul\":11965:11988   */\n      tag_248\n      jump\t// in\n    tag_444:\n        /* \"#utility.yul\":11960:11963   */\n      dup3\n        /* \"#utility.yul\":11953:11989   */\n      mstore\n        /* \"#utility.yul\":11880:11995   */\n      pop\n      pop\n      jump\t// out\n        /* \"#utility.yul\":12001:12110   */\n    tag_267:\n        /* \"#utility.yul\":12082:12103   */\n      tag_446\n        /* \"#utility.yul\":12097:12102   */\n      dup2\n        /* \"#utility.yul\":12082:12103   */\n      tag_250\n      jump\t// in\n    tag_446:\n        /* \"#utility.yul\":12077:12080   */\n      dup3\n        /* \"#utility.yul\":12070:12104   */\n      mstore\n        /* \"#utility.yul\":12001:12110   */\n      pop\n      pop\n      jump\t// out\n        /* \"#utility.yul\":12116:12851   */\n    tag_50:\n        /* \"#utility.yul\":12331:12335   */\n      0x00\n        /* \"#utility.yul\":12369:12372   */\n      0xa0\n        /* \"#utility.yul\":12358:12367   */\n      dup3\n        /* \"#utility.yul\":12354:12373   */\n      add\n        /* \"#utility.yul\":12346:12373   */\n      swap1\n      pop\n        /* \"#utility.yul\":12419:12428   */\n      dup2\n        /* \"#utility.yul\":12413:12417   */\n      dup2\n        /* \"#utility.yul\":12409:12429   */\n      sub\n        /* \"#utility.yul\":12405:12406   */\n      0x00\n        /* \"#utility.yul\":12394:12403   */\n      dup4\n        /* \"#utility.yul\":12390:12407   */\n      add\n        /* \"#utility.yul\":12383:12430   */\n      mstore\n        /* \"#utility.yul\":12447:12525   */\n      tag_448\n        /* \"#utility.yul\":12520:12524   */\n      dup2\n        /* \"#utility.yul\":12511:12517   */\n      dup9\n        /* \"#utility.yul\":12447:12525   */\n      tag_265\n      jump\t// in\n    tag_448:\n        /* \"#utility.yul\":12439:12525   */\n      swap1\n      pop\n        /* \"#utility.yul\":12535:12607   */\n      tag_449\n        /* \"#utility.yul\":12603:12605   */\n      0x20\n        /* \"#utility.yul\":12592:12601   */\n      dup4\n        /* \"#utility.yul\":12588:12606   */\n      add\n        /* \"#utility.yul\":12579:12585   */\n      dup8\n        /* \"#utility.yul\":12535:12607   */\n      tag_263\n      jump\t// in\n    tag_449:\n        /* \"#utility.yul\":12617:12687   */\n      tag_450\n        /* \"#utility.yul\":12683:12685   */\n      0x40\n        /* \"#utility.yul\":12672:12681   */\n      dup4\n        /* \"#utility.yul\":12668:12686   */\n      add\n        /* \"#utility.yul\":12659:12665   */\n      dup7\n        /* \"#utility.yul\":12617:12687   */\n      tag_266\n      jump\t// in\n    tag_450:\n        /* \"#utility.yul\":12697:12767   */\n      tag_451\n        /* \"#utility.yul\":12763:12765   */\n      0x60\n        /* \"#utility.yul\":12752:12761   */\n      dup4\n        /* \"#utility.yul\":12748:12766   */\n      add\n        /* \"#utility.yul\":12739:12745   */\n      dup6\n        /* \"#utility.yul\":12697:12767   */\n      tag_266\n      jump\t// in\n    tag_451:\n        /* \"#utility.yul\":12777:12844   */\n      tag_452\n        /* \"#utility.yul\":12839:12842   */\n      0x80\n        /* \"#utility.yul\":12828:12837   */\n      dup4\n        /* \"#utility.yul\":12824:12843   */\n      add\n        /* \"#utility.yul\":12815:12821   */\n      dup5\n        /* \"#utility.yul\":12777:12844   */\n      tag_267\n      jump\t// in\n    tag_452:\n        /* \"#utility.yul\":12116:12851   */\n      swap7\n      swap6\n      pop\n      pop\n      pop\n      pop\n      pop\n      pop\n      jump\t// out\n        /* \"#utility.yul\":12857:13622   */\n    tag_53:\n        /* \"#utility.yul\":12943:12949   */\n      0x00\n        /* \"#utility.yul\":12951:12957   */\n      dup1\n        /* \"#utility.yul\":12959:12965   */\n      0x00\n        /* \"#utility.yul\":12967:12973   */\n      dup1\n        /* \"#utility.yul\":13016:13019   */\n      0x80\n        /* \"#utility.yul\":13004:13013   */\n      dup6\n        /* \"#utility.yul\":12995:13002   */\n      dup8\n        /* \"#utility.yul\":12991:13014   */\n      sub\n        /* \"#utility.yul\":12987:13020   */\n      slt\n        /* \"#utility.yul\":12984:13104   */\n      iszero\n      tag_454\n      jumpi\n        /* \"#utility.yul\":13023:13102   */\n      tag_455\n      tag_227\n      jump\t// in\n    tag_455:\n        /* \"#utility.yul\":12984:13104   */\n    tag_454:\n        /* \"#utility.yul\":13143:13144   */\n      0x00\n        /* \"#utility.yul\":13168:13221   */\n      tag_456\n        /* \"#utility.yul\":13213:13220   */\n      dup8\n        /* \"#utility.yul\":13204:13210   */\n      dup3\n        /* \"#utility.yul\":13193:13202   */\n      dup9\n        /* \"#utility.yul\":13189:13211   */\n      add\n        /* \"#utility.yul\":13168:13221   */\n      tag_232\n      jump\t// in\n    tag_456:\n        /* \"#utility.yul\":13158:13221   */\n      swap5\n      pop\n        /* \"#utility.yul\":13114:13231   */\n      pop\n        /* \"#utility.yul\":13270:13272   */\n      0x20\n        /* \"#utility.yul\":13296:13349   */\n      tag_457\n        /* \"#utility.yul\":13341:13348   */\n      dup8\n        /* \"#utility.yul\":13332:13338   */\n      dup3\n        /* \"#utility.yul\":13321:13330   */\n      dup9\n        /* \"#utility.yul\":13317:13339   */\n      add\n        /* \"#utility.yul\":13296:13349   */\n      tag_235\n      jump\t// in\n    tag_457:\n        /* \"#utility.yul\":13286:13349   */\n      swap4\n      pop\n        /* \"#utility.yul\":13241:13359   */\n      pop\n        /* \"#utility.yul\":13398:13400   */\n      0x40\n        /* \"#utility.yul\":13424:13477   */\n      tag_458\n        /* \"#utility.yul\":13469:13476   */\n      dup8\n        /* \"#utility.yul\":13460:13466   */\n      dup3\n        /* \"#utility.yul\":13449:13458   */\n      dup9\n        /* \"#utility.yul\":13445:13467   */\n      add\n        /* \"#utility.yul\":13424:13477   */\n      tag_235\n      jump\t// in\n    tag_458:\n        /* \"#utility.yul\":13414:13477   */\n      swap3\n      pop\n        /* \"#utility.yul\":13369:13487   */\n      pop\n        /* \"#utility.yul\":13526:13528   */\n      0x60\n        /* \"#utility.yul\":13552:13605   */\n      tag_459\n        /* \"#utility.yul\":13597:13604   */\n      dup8\n        /* \"#utility.yul\":13588:13594   */\n      dup3\n        /* \"#utility.yul\":13577:13586   */\n      dup9\n        /* \"#utility.yul\":13573:13595   */\n      add\n        /* \"#utility.yul\":13552:13605   */\n      tag_235\n      jump\t// in\n    tag_459:\n        /* \"#utility.yul\":13542:13605   */\n      swap2\n      pop\n        /* \"#utility.yul\":13497:13615   */\n      pop\n        /* \"#utility.yul\":12857:13622   */\n      swap3\n      swap6\n      swap2\n      swap5\n      pop\n      swap3\n      pop\n      jump\t// out\n        /* \"#utility.yul\":13628:13705   */\n    tag_268:\n        /* \"#utility.yul\":13665:13672   */\n      0x00\n        /* \"#utility.yul\":13694:13699   */\n      dup2\n        /* \"#utility.yul\":13683:13699   */\n      swap1\n      pop\n        /* \"#utility.yul\":13628:13705   */\n      swap2\n      swap1\n      pop\n      jump\t// out\n        /* \"#utility.yul\":13711:13829   */\n    tag_269:\n        /* \"#utility.yul\":13798:13822   */\n      tag_462\n        /* \"#utility.yul\":13816:13821   */\n      dup2\n        /* \"#utility.yul\":13798:13822   */\n      tag_268\n      jump\t// in\n    tag_462:\n        /* \"#utility.yul\":13793:13796   */\n      dup3\n        /* \"#utility.yul\":13786:13823   */\n      mstore\n        /* \"#utility.yul\":13711:13829   */\n      pop\n      pop\n      jump\t// out\n        /* \"#utility.yul\":13835:14057   */\n    tag_56:\n        /* \"#utility.yul\":13928:13932   */\n      0x00\n        /* \"#utility.yul\":13966:13968   */\n      0x20\n        /* \"#utility.yul\":13955:13964   */\n      dup3\n        /* \"#utility.yul\":13951:13969   */\n      add\n        /* \"#utility.yul\":13943:13969   */\n      swap1\n      pop\n        /* \"#utility.yul\":13979:14050   */\n      tag_464\n        /* \"#utility.yul\":14047:14048   */\n      0x00\n        /* \"#utility.yul\":14036:14045   */\n      dup4\n        /* \"#utility.yul\":14032:14049   */\n      add\n        /* \"#utility.yul\":14023:14029   */\n      dup5\n        /* \"#utility.yul\":13979:14050   */\n      tag_269\n      jump\t// in\n    tag_464:\n        /* \"#utility.yul\":13835:14057   */\n      swap3\n      swap2\n      pop\n      pop\n      jump\t// out\n        /* \"#utility.yul\":14063:14180   */\n    tag_270:\n        /* \"#utility.yul\":14172:14173   */\n      0x00\n        /* \"#utility.yul\":14169:14170   */\n      dup1\n        /* \"#utility.yul\":14162:14174   */\n      revert\n        /* \"#utility.yul\":14186:14303   */\n    tag_271:\n        /* \"#utility.yul\":14295:14296   */\n      0x00\n        /* \"#utility.yul\":14292:14293   */\n      dup1\n        /* \"#utility.yul\":14285:14297   */\n      revert\n        /* \"#utility.yul\":14309:14489   */\n    tag_102:\n        /* \"#utility.yul\":14357:14434   */\n      0x4e487b7100000000000000000000000000000000000000000000000000000000\n        /* \"#utility.yul\":14354:14355   */\n      0x00\n        /* \"#utility.yul\":14347:14435   */\n      mstore\n        /* \"#utility.yul\":14454:14458   */\n      0x41\n        /* \"#utility.yul\":14451:14452   */\n      0x04\n        /* \"#utility.yul\":14444:14459   */\n      mstore\n        /* \"#utility.yul\":14478:14482   */\n      0x24\n        /* \"#utility.yul\":14475:14476   */\n      0x00\n        /* \"#utility.yul\":14468:14483   */\n      revert\n        /* \"#utility.yul\":14495:14776   */\n    tag_272:\n        /* \"#utility.yul\":14578:14605   */\n      tag_469\n        /* \"#utility.yul\":14600:14604   */\n      dup3\n        /* \"#utility.yul\":14578:14605   */\n      tag_239\n      jump\t// in\n    tag_469:\n        /* \"#utility.yul\":14570:14576   */\n      dup2\n        /* \"#utility.yul\":14566:14606   */\n      add\n        /* \"#utility.yul\":14708:14714   */\n      dup2\n        /* \"#utility.yul\":14696:14706   */\n      dup2\n        /* \"#utility.yul\":14693:14715   */\n      lt\n        /* \"#utility.yul\":14672:14690   */\n      0xffffffffffffffff\n        /* \"#utility.yul\":14660:14670   */\n      dup3\n        /* \"#utility.yul\":14657:14691   */\n      gt\n        /* \"#utility.yul\":14654:14716   */\n      or\n        /* \"#utility.yul\":14651:14739   */\n      iszero\n      tag_470\n      jumpi\n        /* \"#utility.yul\":14719:14737   */\n      tag_471\n      tag_102\n      jump\t// in\n    tag_471:\n        /* \"#utility.yul\":14651:14739   */\n    tag_470:\n        /* \"#utility.yul\":14759:14769   */\n      dup1\n        /* \"#utility.yul\":14755:14757   */\n      0x40\n        /* \"#utility.yul\":14748:14770   */\n      mstore\n        /* \"#utility.yul\":14538:14776   */\n      pop\n        /* \"#utility.yul\":14495:14776   */\n      pop\n      pop\n      jump\t// out\n        /* \"#utility.yul\":14782:14911   */\n    tag_273:\n        /* \"#utility.yul\":14816:14822   */\n      0x00\n        /* \"#utility.yul\":14843:14863   */\n      tag_473\n      tag_226\n      jump\t// in\n    tag_473:\n        /* \"#utility.yul\":14833:14863   */\n      swap1\n      pop\n        /* \"#utility.yul\":14872:14905   */\n      tag_474\n        /* \"#utility.yul\":14900:14904   */\n      dup3\n        /* \"#utility.yul\":14892:14898   */\n      dup3\n        /* \"#utility.yul\":14872:14905   */\n      tag_272\n      jump\t// in\n    tag_474:\n        /* \"#utility.yul\":14782:14911   */\n      swap2\n      swap1\n      pop\n      jump\t// out\n        /* \"#utility.yul\":14917:15224   */\n    tag_274:\n        /* \"#utility.yul\":14978:14982   */\n      0x00\n        /* \"#utility.yul\":15068:15086   */\n      0xffffffffffffffff\n        /* \"#utility.yul\":15060:15066   */\n      dup3\n        /* \"#utility.yul\":15057:15087   */\n      gt\n        /* \"#utility.yul\":15054:15110   */\n      iszero\n      tag_476\n      jumpi\n        /* \"#utility.yul\":15090:15108   */\n      tag_477\n      tag_102\n      jump\t// in\n    tag_477:\n        /* \"#utility.yul\":15054:15110   */\n    tag_476:\n        /* \"#utility.yul\":15128:15157   */\n      tag_478\n        /* \"#utility.yul\":15150:15156   */\n      dup3\n        /* \"#utility.yul\":15128:15157   */\n      tag_239\n      jump\t// in\n    tag_478:\n        /* \"#utility.yul\":15120:15157   */\n      swap1\n      pop\n        /* \"#utility.yul\":15212:15216   */\n      0x20\n        /* \"#utility.yul\":15206:15210   */\n      dup2\n        /* \"#utility.yul\":15202:15217   */\n      add\n        /* \"#utility.yul\":15194:15217   */\n      swap1\n      pop\n        /* \"#utility.yul\":14917:15224   */\n      swap2\n      swap1\n      pop\n      jump\t// out\n        /* \"#utility.yul\":15230:15384   */\n    tag_275:\n        /* \"#utility.yul\":15314:15320   */\n      dup3\n        /* \"#utility.yul\":15309:15312   */\n      dup2\n        /* \"#utility.yul\":15304:15307   */\n      dup4\n        /* \"#utility.yul\":15291:15321   */\n      calldatacopy\n        /* \"#utility.yul\":15376:15377   */\n      0x00\n        /* \"#utility.yul\":15367:15373   */\n      dup4\n        /* \"#utility.yul\":15362:15365   */\n      dup4\n        /* \"#utility.yul\":15358:15374   */\n      add\n        /* \"#utility.yul\":15351:15378   */\n      mstore\n        /* \"#utility.yul\":15230:15384   */\n      pop\n      pop\n      pop\n      jump\t// out\n        /* \"#utility.yul\":15390:15800   */\n    tag_276:\n        /* \"#utility.yul\":15467:15472   */\n      0x00\n        /* \"#utility.yul\":15492:15557   */\n      tag_481\n        /* \"#utility.yul\":15508:15556   */\n      tag_482\n        /* \"#utility.yul\":15549:15555   */\n      dup5\n        /* \"#utility.yul\":15508:15556   */\n      tag_274\n      jump\t// in\n    tag_482:\n        /* \"#utility.yul\":15492:15557   */\n      tag_273\n      jump\t// in\n    tag_481:\n        /* \"#utility.yul\":15483:15557   */\n      swap1\n      pop\n        /* \"#utility.yul\":15580:15586   */\n      dup3\n        /* \"#utility.yul\":15573:15578   */\n      dup2\n        /* \"#utility.yul\":15566:15587   */\n      mstore\n        /* \"#utility.yul\":15618:15622   */\n      0x20\n        /* \"#utility.yul\":15611:15616   */\n      dup2\n        /* \"#utility.yul\":15607:15623   */\n      add\n        /* \"#utility.yul\":15656:15659   */\n      dup5\n        /* \"#utility.yul\":15647:15653   */\n      dup5\n        /* \"#utility.yul\":15642:15645   */\n      dup5\n        /* \"#utility.yul\":15638:15654   */\n      add\n        /* \"#utility.yul\":15635:15660   */\n      gt\n        /* \"#utility.yul\":15632:15744   */\n      iszero\n      tag_483\n      jumpi\n        /* \"#utility.yul\":15663:15742   */\n      tag_484\n      tag_271\n      jump\t// in\n    tag_484:\n        /* \"#utility.yul\":15632:15744   */\n    tag_483:\n        /* \"#utility.yul\":15753:15794   */\n      tag_485\n        /* \"#utility.yul\":15787:15793   */\n      dup5\n        /* \"#utility.yul\":15782:15785   */\n      dup3\n        /* \"#utility.yul\":15777:15780   */\n      dup6\n        /* \"#utility.yul\":15753:15794   */\n      tag_275\n      jump\t// in\n    tag_485:\n        /* \"#utility.yul\":15473:15800   */\n      pop\n        /* \"#utility.yul\":15390:15800   */\n      swap4\n      swap3\n      pop\n      pop\n      pop\n      jump\t// out\n        /* \"#utility.yul\":15819:16157   */\n    tag_277:\n        /* \"#utility.yul\":15874:15879   */\n      0x00\n        /* \"#utility.yul\":15923:15926   */\n      dup3\n        /* \"#utility.yul\":15916:15920   */\n      0x1f\n        /* \"#utility.yul\":15908:15914   */\n      dup4\n        /* \"#utility.yul\":15904:15921   */\n      add\n        /* \"#utility.yul\":15900:15927   */\n      slt\n        /* \"#utility.yul\":15890:16012   */\n      tag_487\n      jumpi\n        /* \"#utility.yul\":15931:16010   */\n      tag_488\n      tag_270\n      jump\t// in\n    tag_488:\n        /* \"#utility.yul\":15890:16012   */\n    tag_487:\n        /* \"#utility.yul\":16048:16054   */\n      dup2\n        /* \"#utility.yul\":16035:16055   */\n      calldataload\n        /* \"#utility.yul\":16073:16151   */\n      tag_489\n        /* \"#utility.yul\":16147:16150   */\n      dup5\n        /* \"#utility.yul\":16139:16145   */\n      dup3\n        /* \"#utility.yul\":16132:16136   */\n      0x20\n        /* \"#utility.yul\":16124:16130   */\n      dup7\n        /* \"#utility.yul\":16120:16137   */\n      add\n        /* \"#utility.yul\":16073:16151   */\n      tag_276\n      jump\t// in\n    tag_489:\n        /* \"#utility.yul\":16064:16151   */\n      swap2\n      pop\n        /* \"#utility.yul\":15880:16157   */\n      pop\n        /* \"#utility.yul\":15819:16157   */\n      swap3\n      swap2\n      pop\n      pop\n      jump\t// out\n        /* \"#utility.yul\":16163:17106   */\n    tag_59:\n        /* \"#utility.yul\":16258:16264   */\n      0x00\n        /* \"#utility.yul\":16266:16272   */\n      dup1\n        /* \"#utility.yul\":16274:16280   */\n      0x00\n        /* \"#utility.yul\":16282:16288   */\n      dup1\n        /* \"#utility.yul\":16331:16334   */\n      0x80\n        /* \"#utility.yul\":16319:16328   */\n      dup6\n        /* \"#utility.yul\":16310:16317   */\n      dup8\n        /* \"#utility.yul\":16306:16329   */\n      sub\n        /* \"#utility.yul\":16302:16335   */\n      slt\n        /* \"#utility.yul\":16299:16419   */\n      iszero\n      tag_491\n      jumpi\n        /* \"#utility.yul\":16338:16417   */\n      tag_492\n      tag_227\n      jump\t// in\n    tag_492:\n        /* \"#utility.yul\":16299:16419   */\n    tag_491:\n        /* \"#utility.yul\":16458:16459   */\n      0x00\n        /* \"#utility.yul\":16483:16536   */\n      tag_493\n        /* \"#utility.yul\":16528:16535   */\n      dup8\n        /* \"#utility.yul\":16519:16525   */\n      dup3\n        /* \"#utility.yul\":16508:16517   */\n      dup9\n        /* \"#utility.yul\":16504:16526   */\n      add\n        /* \"#utility.yul\":16483:16536   */\n      tag_232\n      jump\t// in\n    tag_493:\n        /* \"#utility.yul\":16473:16536   */\n      swap5\n      pop\n        /* \"#utility.yul\":16429:16546   */\n      pop\n        /* \"#utility.yul\":16585:16587   */\n      0x20\n        /* \"#utility.yul\":16611:16664   */\n      tag_494\n        /* \"#utility.yul\":16656:16663   */\n      dup8\n        /* \"#utility.yul\":16647:16653   */\n      dup3\n        /* \"#utility.yul\":16636:16645   */\n      dup9\n        /* \"#utility.yul\":16632:16654   */\n      add\n        /* \"#utility.yul\":16611:16664   */\n      tag_235\n      jump\t// in\n    tag_494:\n        /* \"#utility.yul\":16601:16664   */\n      swap4\n      pop\n        /* \"#utility.yul\":16556:16674   */\n      pop\n        /* \"#utility.yul\":16713:16715   */\n      0x40\n        /* \"#utility.yul\":16739:16792   */\n      tag_495\n        /* \"#utility.yul\":16784:16791   */\n      dup8\n        /* \"#utility.yul\":16775:16781   */\n      dup3\n        /* \"#utility.yul\":16764:16773   */\n      dup9\n        /* \"#utility.yul\":16760:16782   */\n      add\n        /* \"#utility.yul\":16739:16792   */\n      tag_235\n      jump\t// in\n    tag_495:\n        /* \"#utility.yul\":16729:16792   */\n      swap3\n      pop\n        /* \"#utility.yul\":16684:16802   */\n      pop\n        /* \"#utility.yul\":16869:16871   */\n      0x60\n        /* \"#utility.yul\":16858:16867   */\n      dup6\n        /* \"#utility.yul\":16854:16872   */\n      add\n        /* \"#utility.yul\":16841:16873   */\n      calldataload\n        /* \"#utility.yul\":16900:16918   */\n      0xffffffffffffffff\n        /* \"#utility.yul\":16892:16898   */\n      dup2\n        /* \"#utility.yul\":16889:16919   */\n      gt\n        /* \"#utility.yul\":16886:17003   */\n      iszero\n      tag_496\n      jumpi\n        /* \"#utility.yul\":16922:17001   */\n      tag_497\n      tag_228\n      jump\t// in\n    tag_497:\n        /* \"#utility.yul\":16886:17003   */\n    tag_496:\n        /* \"#utility.yul\":17027:17089   */\n      tag_498\n        /* \"#utility.yul\":17081:17088   */\n      dup8\n        /* \"#utility.yul\":17072:17078   */\n      dup3\n        /* \"#utility.yul\":17061:17070   */\n      dup9\n        /* \"#utility.yul\":17057:17079   */\n      add\n        /* \"#utility.yul\":17027:17089   */\n      tag_277\n      jump\t// in\n    tag_498:\n        /* \"#utility.yul\":17017:17089   */\n      swap2\n      pop\n        /* \"#utility.yul\":16812:17099   */\n      pop\n        /* \"#utility.yul\":16163:17106   */\n      swap3\n      swap6\n      swap2\n      swap5\n      pop\n      swap3\n      pop\n      jump\t// out\n        /* \"#utility.yul\":17112:17420   */\n    tag_278:\n        /* \"#utility.yul\":17174:17178   */\n      0x00\n        /* \"#utility.yul\":17264:17282   */\n      0xffffffffffffffff\n        /* \"#utility.yul\":17256:17262   */\n      dup3\n        /* \"#utility.yul\":17253:17283   */\n      gt\n        /* \"#utility.yul\":17250:17306   */\n      iszero\n      tag_500\n      jumpi\n        /* \"#utility.yul\":17286:17304   */\n      tag_501\n      tag_102\n      jump\t// in\n    tag_501:\n        /* \"#utility.yul\":17250:17306   */\n    tag_500:\n        /* \"#utility.yul\":17324:17353   */\n      tag_502\n        /* \"#utility.yul\":17346:17352   */\n      dup3\n        /* \"#utility.yul\":17324:17353   */\n      tag_239\n      jump\t// in\n    tag_502:\n        /* \"#utility.yul\":17316:17353   */\n      swap1\n      pop\n        /* \"#utility.yul\":17408:17412   */\n      0x20\n        /* \"#utility.yul\":17402:17406   */\n      dup2\n        /* \"#utility.yul\":17398:17413   */\n      add\n        /* \"#utility.yul\":17390:17413   */\n      swap1\n      pop\n        /* \"#utility.yul\":17112:17420   */\n      swap2\n      swap1\n      pop\n      jump\t// out\n        /* \"#utility.yul\":17426:17838   */\n    tag_279:\n        /* \"#utility.yul\":17504:17509   */\n      0x00\n        /* \"#utility.yul\":17529:17595   */\n      tag_504\n        /* \"#utility.yul\":17545:17594   */\n      tag_505\n        /* \"#utility.yul\":17587:17593   */\n      dup5\n        /* \"#utility.yul\":17545:17594   */\n      tag_278\n      jump\t// in\n    tag_505:\n        /* \"#utility.yul\":17529:17595   */\n      tag_273\n      jump\t// in\n    tag_504:\n        /* \"#utility.yul\":17520:17595   */\n      swap1\n      pop\n        /* \"#utility.yul\":17618:17624   */\n      dup3\n        /* \"#utility.yul\":17611:17616   */\n      dup2\n        /* \"#utility.yul\":17604:17625   */\n      mstore\n        /* \"#utility.yul\":17656:17660   */\n      0x20\n        /* \"#utility.yul\":17649:17654   */\n      dup2\n        /* \"#utility.yul\":17645:17661   */\n      add\n        /* \"#utility.yul\":17694:17697   */\n      dup5\n        /* \"#utility.yul\":17685:17691   */\n      dup5\n        /* \"#utility.yul\":17680:17683   */\n      dup5\n        /* \"#utility.yul\":17676:17692   */\n      add\n        /* \"#utility.yul\":17673:17698   */\n      gt\n        /* \"#utility.yul\":17670:17782   */\n      iszero\n      tag_506\n      jumpi\n        /* \"#utility.yul\":17701:17780   */\n      tag_507\n      tag_271\n      jump\t// in\n    tag_507:\n        /* \"#utility.yul\":17670:17782   */\n    tag_506:\n        /* \"#utility.yul\":17791:17832   */\n      tag_508\n        /* \"#utility.yul\":17825:17831   */\n      dup5\n        /* \"#utility.yul\":17820:17823   */\n      dup3\n        /* \"#utility.yul\":17815:17818   */\n      dup6\n        /* \"#utility.yul\":17791:17832   */\n      tag_275\n      jump\t// in\n    tag_508:\n        /* \"#utility.yul\":17510:17838   */\n      pop\n        /* \"#utility.yul\":17426:17838   */\n      swap4\n      swap3\n      pop\n      pop\n      pop\n      jump\t// out\n        /* \"#utility.yul\":17858:18198   */\n    tag_280:\n        /* \"#utility.yul\":17914:17919   */\n      0x00\n        /* \"#utility.yul\":17963:17966   */\n      dup3\n        /* \"#utility.yul\":17956:17960   */\n      0x1f\n        /* \"#utility.yul\":17948:17954   */\n      dup4\n        /* \"#utility.yul\":17944:17961   */\n      add\n        /* \"#utility.yul\":17940:17967   */\n      slt\n        /* \"#utility.yul\":17930:18052   */\n      tag_510\n      jumpi\n        /* \"#utility.yul\":17971:18050   */\n      tag_511\n      tag_270\n      jump\t// in\n    tag_511:\n        /* \"#utility.yul\":17930:18052   */\n    tag_510:\n        /* \"#utility.yul\":18088:18094   */\n      dup2\n        /* \"#utility.yul\":18075:18095   */\n      calldataload\n        /* \"#utility.yul\":18113:18192   */\n      tag_512\n        /* \"#utility.yul\":18188:18191   */\n      dup5\n        /* \"#utility.yul\":18180:18186   */\n      dup3\n        /* \"#utility.yul\":18173:18177   */\n      0x20\n        /* \"#utility.yul\":18165:18171   */\n      dup7\n        /* \"#utility.yul\":18161:18178   */\n      add\n        /* \"#utility.yul\":18113:18192   */\n      tag_279\n      jump\t// in\n    tag_512:\n        /* \"#utility.yul\":18104:18192   */\n      swap2\n      pop\n        /* \"#utility.yul\":17920:18198   */\n      pop\n        /* \"#utility.yul\":17858:18198   */\n      swap3\n      swap2\n      pop\n      pop\n      jump\t// out\n        /* \"#utility.yul\":18204:18324   */\n    tag_281:\n        /* \"#utility.yul\":18276:18299   */\n      tag_514\n        /* \"#utility.yul\":18293:18298   */\n      dup2\n        /* \"#utility.yul\":18276:18299   */\n      tag_248\n      jump\t// in\n    tag_514:\n        /* \"#utility.yul\":18269:18274   */\n      dup2\n        /* \"#utility.yul\":18266:18300   */\n      eq\n        /* \"#utility.yul\":18256:18318   */\n      tag_515\n      jumpi\n        /* \"#utility.yul\":18314:18315   */\n      0x00\n        /* \"#utility.yul\":18311:18312   */\n      dup1\n        /* \"#utility.yul\":18304:18316   */\n      revert\n        /* \"#utility.yul\":18256:18318   */\n    tag_515:\n        /* \"#utility.yul\":18204:18324   */\n      pop\n      jump\t// out\n        /* \"#utility.yul\":18330:18467   */\n    tag_282:\n        /* \"#utility.yul\":18375:18380   */\n      0x00\n        /* \"#utility.yul\":18413:18419   */\n      dup2\n        /* \"#utility.yul\":18400:18420   */\n      calldataload\n        /* \"#utility.yul\":18391:18420   */\n      swap1\n      pop\n        /* \"#utility.yul\":18429:18461   */\n      tag_517\n        /* \"#utility.yul\":18455:18460   */\n      dup2\n        /* \"#utility.yul\":18429:18461   */\n      tag_281\n      jump\t// in\n    tag_517:\n        /* \"#utility.yul\":18330:18467   */\n      swap3\n      swap2\n      pop\n      pop\n      jump\t// out\n        /* \"#utility.yul\":18473:19125   */\n    tag_70:\n        /* \"#utility.yul\":18550:18556   */\n      0x00\n        /* \"#utility.yul\":18558:18564   */\n      dup1\n        /* \"#utility.yul\":18607:18609   */\n      0x40\n        /* \"#utility.yul\":18595:18604   */\n      dup4\n        /* \"#utility.yul\":18586:18593   */\n      dup6\n        /* \"#utility.yul\":18582:18605   */\n      sub\n        /* \"#utility.yul\":18578:18610   */\n      slt\n        /* \"#utility.yul\":18575:18694   */\n      iszero\n      tag_519\n      jumpi\n        /* \"#utility.yul\":18613:18692   */\n      tag_520\n      tag_227\n      jump\t// in\n    tag_520:\n        /* \"#utility.yul\":18575:18694   */\n    tag_519:\n        /* \"#utility.yul\":18761:18762   */\n      0x00\n        /* \"#utility.yul\":18750:18759   */\n      dup4\n        /* \"#utility.yul\":18746:18763   */\n      add\n        /* \"#utility.yul\":18733:18764   */\n      calldataload\n        /* \"#utility.yul\":18791:18809   */\n      0xffffffffffffffff\n        /* \"#utility.yul\":18783:18789   */\n      dup2\n        /* \"#utility.yul\":18780:18810   */\n      gt\n        /* \"#utility.yul\":18777:18894   */\n      iszero\n      tag_521\n      jumpi\n        /* \"#utility.yul\":18813:18892   */\n      tag_522\n      tag_228\n      jump\t// in\n    tag_522:\n        /* \"#utility.yul\":18777:18894   */\n    tag_521:\n        /* \"#utility.yul\":18918:18981   */\n      tag_523\n        /* \"#utility.yul\":18973:18980   */\n      dup6\n        /* \"#utility.yul\":18964:18970   */\n      dup3\n        /* \"#utility.yul\":18953:18962   */\n      dup7\n        /* \"#utility.yul\":18949:18971   */\n      add\n        /* \"#utility.yul\":18918:18981   */\n      tag_280\n      jump\t// in\n    tag_523:\n        /* \"#utility.yul\":18908:18981   */\n      swap3\n      pop\n        /* \"#utility.yul\":18704:18991   */\n      pop\n        /* \"#utility.yul\":19030:19032   */\n      0x20\n        /* \"#utility.yul\":19056:19108   */\n      tag_524\n        /* \"#utility.yul\":19100:19107   */\n      dup6\n        /* \"#utility.yul\":19091:19097   */\n      dup3\n        /* \"#utility.yul\":19080:19089   */\n      dup7\n        /* \"#utility.yul\":19076:19098   */\n      add\n        /* \"#utility.yul\":19056:19108   */\n      tag_282\n      jump\t// in\n    tag_524:\n        /* \"#utility.yul\":19046:19108   */\n      swap2\n      pop\n        /* \"#utility.yul\":19001:19118   */\n      pop\n        /* \"#utility.yul\":18473:19125   */\n      swap3\n      pop\n      swap3\n      swap1\n      pop\n      jump\t// out\n        /* \"#utility.yul\":19131:19271   */\n    tag_283:\n        /* \"#utility.yul\":19224:19230   */\n      0x00\n        /* \"#utility.yul\":19258:19263   */\n      dup2\n        /* \"#utility.yul\":19252:19264   */\n      mload\n        /* \"#utility.yul\":19242:19264   */\n      swap1\n      pop\n        /* \"#utility.yul\":19131:19271   */\n      swap2\n      swap1\n      pop\n      jump\t// out\n        /* \"#utility.yul\":19277:19487   */\n    tag_284:\n        /* \"#utility.yul\":19402:19413   */\n      0x00\n        /* \"#utility.yul\":19436:19442   */\n      dup3\n        /* \"#utility.yul\":19431:19434   */\n      dup3\n        /* \"#utility.yul\":19424:19443   */\n      mstore\n        /* \"#utility.yul\":19476:19480   */\n      0x20\n        /* \"#utility.yul\":19471:19474   */\n      dup3\n        /* \"#utility.yul\":19467:19481   */\n      add\n        /* \"#utility.yul\":19452:19481   */\n      swap1\n      pop\n        /* \"#utility.yul\":19277:19487   */\n      swap3\n      swap2\n      pop\n      pop\n      jump\t// out\n        /* \"#utility.yul\":19493:19651   */\n    tag_285:\n        /* \"#utility.yul\":19586:19590   */\n      0x00\n        /* \"#utility.yul\":19609:19612   */\n      dup2\n        /* \"#utility.yul\":19601:19612   */\n      swap1\n      pop\n        /* \"#utility.yul\":19639:19643   */\n      0x20\n        /* \"#utility.yul\":19634:19637   */\n      dup3\n        /* \"#utility.yul\":19630:19644   */\n      add\n        /* \"#utility.yul\":19622:19644   */\n      swap1\n      pop\n        /* \"#utility.yul\":19493:19651   */\n      swap2\n      swap1\n      pop\n      jump\t// out\n        /* \"#utility.yul\":19717:21144   */\n    tag_286:\n        /* \"#utility.yul\":19828:19831   */\n      0x00\n        /* \"#utility.yul\":19864:19868   */\n      0xc0\n        /* \"#utility.yul\":19859:19862   */\n      dup4\n        /* \"#utility.yul\":19855:19869   */\n      add\n        /* \"#utility.yul\":19951:19955   */\n      0x00\n        /* \"#utility.yul\":19944:19949   */\n      dup4\n        /* \"#utility.yul\":19940:19956   */\n      add\n        /* \"#utility.yul\":19934:19957   */\n      mload\n        /* \"#utility.yul\":20004:20007   */\n      dup5\n        /* \"#utility.yul\":19998:20002   */\n      dup3\n        /* \"#utility.yul\":19994:20008   */\n      sub\n        /* \"#utility.yul\":19987:19991   */\n      0x00\n        /* \"#utility.yul\":19982:19985   */\n      dup7\n        /* \"#utility.yul\":19978:19992   */\n      add\n        /* \"#utility.yul\":19971:20009   */\n      mstore\n        /* \"#utility.yul\":20030:20103   */\n      tag_529\n        /* \"#utility.yul\":20098:20102   */\n      dup3\n        /* \"#utility.yul\":20084:20096   */\n      dup3\n        /* \"#utility.yul\":20030:20103   */\n      tag_240\n      jump\t// in\n    tag_529:\n        /* \"#utility.yul\":20022:20103   */\n      swap2\n      pop\n        /* \"#utility.yul\":19879:20114   */\n      pop\n        /* \"#utility.yul\":20200:20204   */\n      0x20\n        /* \"#utility.yul\":20193:20198   */\n      dup4\n        /* \"#utility.yul\":20189:20205   */\n      add\n        /* \"#utility.yul\":20183:20206   */\n      mload\n        /* \"#utility.yul\":20219:20282   */\n      tag_530\n        /* \"#utility.yul\":20276:20280   */\n      0x20\n        /* \"#utility.yul\":20271:20274   */\n      dup7\n        /* \"#utility.yul\":20267:20281   */\n      add\n        /* \"#utility.yul\":20253:20265   */\n      dup3\n        /* \"#utility.yul\":20219:20282   */\n      tag_241\n      jump\t// in\n    tag_530:\n        /* \"#utility.yul\":20124:20292   */\n      pop\n        /* \"#utility.yul\":20380:20384   */\n      0x40\n        /* \"#utility.yul\":20373:20378   */\n      dup4\n        /* \"#utility.yul\":20369:20385   */\n      add\n        /* \"#utility.yul\":20363:20386   */\n      mload\n        /* \"#utility.yul\":20433:20436   */\n      dup5\n        /* \"#utility.yul\":20427:20431   */\n      dup3\n        /* \"#utility.yul\":20423:20437   */\n      sub\n        /* \"#utility.yul\":20416:20420   */\n      0x40\n        /* \"#utility.yul\":20411:20414   */\n      dup7\n        /* \"#utility.yul\":20407:20421   */\n      add\n        /* \"#utility.yul\":20400:20438   */\n      mstore\n        /* \"#utility.yul\":20459:20562   */\n      tag_531\n        /* \"#utility.yul\":20557:20561   */\n      dup3\n        /* \"#utility.yul\":20543:20555   */\n      dup3\n        /* \"#utility.yul\":20459:20562   */\n      tag_247\n      jump\t// in\n    tag_531:\n        /* \"#utility.yul\":20451:20562   */\n      swap2\n      pop\n        /* \"#utility.yul\":20302:20573   */\n      pop\n        /* \"#utility.yul\":20668:20672   */\n      0x60\n        /* \"#utility.yul\":20661:20666   */\n      dup4\n        /* \"#utility.yul\":20657:20673   */\n      add\n        /* \"#utility.yul\":20651:20674   */\n      mload\n        /* \"#utility.yul\":20687:20748   */\n      tag_532\n        /* \"#utility.yul\":20742:20746   */\n      0x60\n        /* \"#utility.yul\":20737:20740   */\n      dup7\n        /* \"#utility.yul\":20733:20747   */\n      add\n        /* \"#utility.yul\":20719:20731   */\n      dup3\n        /* \"#utility.yul\":20687:20748   */\n      tag_249\n      jump\t// in\n    tag_532:\n        /* \"#utility.yul\":20583:20758   */\n      pop\n        /* \"#utility.yul\":20857:20861   */\n      0x80\n        /* \"#utility.yul\":20850:20855   */\n      dup4\n        /* \"#utility.yul\":20846:20862   */\n      add\n        /* \"#utility.yul\":20840:20863   */\n      mload\n        /* \"#utility.yul\":20876:20937   */\n      tag_533\n        /* \"#utility.yul\":20931:20935   */\n      0x80\n        /* \"#utility.yul\":20926:20929   */\n      dup7\n        /* \"#utility.yul\":20922:20936   */\n      add\n        /* \"#utility.yul\":20908:20920   */\n      dup3\n        /* \"#utility.yul\":20876:20937   */\n      tag_249\n      jump\t// in\n    tag_533:\n        /* \"#utility.yul\":20768:20947   */\n      pop\n        /* \"#utility.yul\":21031:21035   */\n      0xa0\n        /* \"#utility.yul\":21024:21029   */\n      dup4\n        /* \"#utility.yul\":21020:21036   */\n      add\n        /* \"#utility.yul\":21014:21037   */\n      mload\n        /* \"#utility.yul\":21050:21107   */\n      tag_534\n        /* \"#utility.yul\":21101:21105   */\n      0xa0\n        /* \"#utility.yul\":21096:21099   */\n      dup7\n        /* \"#utility.yul\":21092:21106   */\n      add\n        /* \"#utility.yul\":21078:21090   */\n      dup3\n        /* \"#utility.yul\":21050:21107   */\n      tag_251\n      jump\t// in\n    tag_534:\n        /* \"#utility.yul\":20957:21117   */\n      pop\n        /* \"#utility.yul\":21134:21138   */\n      dup1\n        /* \"#utility.yul\":21127:21138   */\n      swap2\n      pop\n        /* \"#utility.yul\":19833:21144   */\n      pop\n        /* \"#utility.yul\":19717:21144   */\n      swap3\n      swap2\n      pop\n      pop\n      jump\t// out\n        /* \"#utility.yul\":21150:21410   */\n    tag_287:\n        /* \"#utility.yul\":21271:21281   */\n      0x00\n        /* \"#utility.yul\":21306:21404   */\n      tag_536\n        /* \"#utility.yul\":21400:21403   */\n      dup4\n        /* \"#utility.yul\":21392:21398   */\n      dup4\n        /* \"#utility.yul\":21306:21404   */\n      tag_286\n      jump\t// in\n    tag_536:\n        /* \"#utility.yul\":21292:21404   */\n      swap1\n      pop\n        /* \"#utility.yul\":21150:21410   */\n      swap3\n      swap2\n      pop\n      pop\n      jump\t// out\n        /* \"#utility.yul\":21416:21555   */\n    tag_288:\n        /* \"#utility.yul\":21512:21516   */\n      0x00\n        /* \"#utility.yul\":21544:21548   */\n      0x20\n        /* \"#utility.yul\":21539:21542   */\n      dup3\n        /* \"#utility.yul\":21535:21549   */\n      add\n        /* \"#utility.yul\":21527:21549   */\n      swap1\n      pop\n        /* \"#utility.yul\":21416:21555   */\n      swap2\n      swap1\n      pop\n      jump\t// out\n        /* \"#utility.yul\":21625:22744   */\n    tag_289:\n        /* \"#utility.yul\":21796:21799   */\n      0x00\n        /* \"#utility.yul\":21825:21905   */\n      tag_539\n        /* \"#utility.yul\":21899:21904   */\n      dup3\n        /* \"#utility.yul\":21825:21905   */\n      tag_283\n      jump\t// in\n    tag_539:\n        /* \"#utility.yul\":21921:22033   */\n      tag_540\n        /* \"#utility.yul\":22026:22032   */\n      dup2\n        /* \"#utility.yul\":22021:22024   */\n      dup6\n        /* \"#utility.yul\":21921:22033   */\n      tag_284\n      jump\t// in\n    tag_540:\n        /* \"#utility.yul\":21914:22033   */\n      swap4\n      pop\n        /* \"#utility.yul\":22059:22062   */\n      dup4\n        /* \"#utility.yul\":22104:22108   */\n      0x20\n        /* \"#utility.yul\":22096:22102   */\n      dup3\n        /* \"#utility.yul\":22092:22109   */\n      mul\n        /* \"#utility.yul\":22087:22090   */\n      dup6\n        /* \"#utility.yul\":22083:22110   */\n      add\n        /* \"#utility.yul\":22134:22216   */\n      tag_541\n        /* \"#utility.yul\":22210:22215   */\n      dup6\n        /* \"#utility.yul\":22134:22216   */\n      tag_285\n      jump\t// in\n    tag_541:\n        /* \"#utility.yul\":22239:22246   */\n      dup1\n        /* \"#utility.yul\":22270:22271   */\n      0x00\n        /* \"#utility.yul\":22255:22699   */\n    tag_542:\n        /* \"#utility.yul\":22280:22286   */\n      dup6\n        /* \"#utility.yul\":22277:22278   */\n      dup2\n        /* \"#utility.yul\":22274:22287   */\n      lt\n        /* \"#utility.yul\":22255:22699   */\n      iszero\n      tag_544\n      jumpi\n        /* \"#utility.yul\":22351:22360   */\n      dup5\n        /* \"#utility.yul\":22345:22349   */\n      dup5\n        /* \"#utility.yul\":22341:22361   */\n      sub\n        /* \"#utility.yul\":22336:22339   */\n      dup10\n        /* \"#utility.yul\":22329:22362   */\n      mstore\n        /* \"#utility.yul\":22402:22408   */\n      dup2\n        /* \"#utility.yul\":22396:22409   */\n      mload\n        /* \"#utility.yul\":22430:22546   */\n      tag_545\n        /* \"#utility.yul\":22541:22545   */\n      dup6\n        /* \"#utility.yul\":22526:22539   */\n      dup3\n        /* \"#utility.yul\":22430:22546   */\n      tag_287\n      jump\t// in\n    tag_545:\n        /* \"#utility.yul\":22422:22546   */\n      swap5\n      pop\n        /* \"#utility.yul\":22569:22655   */\n      tag_546\n        /* \"#utility.yul\":22648:22654   */\n      dup4\n        /* \"#utility.yul\":22569:22655   */\n      tag_288\n      jump\t// in\n    tag_546:\n        /* \"#utility.yul\":22559:22655   */\n      swap3\n      pop\n        /* \"#utility.yul\":22684:22688   */\n      0x20\n        /* \"#utility.yul\":22679:22682   */\n      dup11\n        /* \"#utility.yul\":22675:22689   */\n      add\n        /* \"#utility.yul\":22668:22689   */\n      swap10\n      pop\n        /* \"#utility.yul\":22315:22699   */\n      pop\n        /* \"#utility.yul\":22302:22303   */\n      0x01\n        /* \"#utility.yul\":22299:22300   */\n      dup2\n        /* \"#utility.yul\":22295:22304   */\n      add\n        /* \"#utility.yul\":22290:22304   */\n      swap1\n      pop\n        /* \"#utility.yul\":22255:22699   */\n      jump(tag_542)\n    tag_544:\n        /* \"#utility.yul\":22259:22273   */\n      pop\n        /* \"#utility.yul\":22715:22719   */\n      dup3\n        /* \"#utility.yul\":22708:22719   */\n      swap8\n      pop\n        /* \"#utility.yul\":22735:22738   */\n      dup8\n        /* \"#utility.yul\":22728:22738   */\n      swap6\n      pop\n        /* \"#utility.yul\":21801:22744   */\n      pop\n      pop\n      pop\n      pop\n      pop\n        /* \"#utility.yul\":21625:22744   */\n      swap3\n      swap2\n      pop\n      pop\n      jump\t// out\n        /* \"#utility.yul\":22750:23227   */\n    tag_73:\n        /* \"#utility.yul\":22945:22949   */\n      0x00\n        /* \"#utility.yul\":22983:22985   */\n      0x20\n        /* \"#utility.yul\":22972:22981   */\n      dup3\n        /* \"#utility.yul\":22968:22986   */\n      add\n        /* \"#utility.yul\":22960:22986   */\n      swap1\n      pop\n        /* \"#utility.yul\":23032:23041   */\n      dup2\n        /* \"#utility.yul\":23026:23030   */\n      dup2\n        /* \"#utility.yul\":23022:23042   */\n      sub\n        /* \"#utility.yul\":23018:23019   */\n      0x00\n        /* \"#utility.yul\":23007:23016   */\n      dup4\n        /* \"#utility.yul\":23003:23020   */\n      add\n        /* \"#utility.yul\":22996:23043   */\n      mstore\n        /* \"#utility.yul\":23060:23220   */\n      tag_548\n        /* \"#utility.yul\":23215:23219   */\n      dup2\n        /* \"#utility.yul\":23206:23212   */\n      dup5\n        /* \"#utility.yul\":23060:23220   */\n      tag_289\n      jump\t// in\n    tag_548:\n        /* \"#utility.yul\":23052:23220   */\n      swap1\n      pop\n        /* \"#utility.yul\":22750:23227   */\n      swap3\n      swap2\n      pop\n      pop\n      jump\t// out\n        /* \"#utility.yul\":23233:23403   */\n    tag_290:\n        /* \"#utility.yul\":23373:23395   */\n      0x79657420746f20637265617465206120706f6c6c000000000000000000000000\n        /* \"#utility.yul\":23369:23370   */\n      0x00\n        /* \"#utility.yul\":23361:23367   */\n      dup3\n        /* \"#utility.yul\":23357:23371   */\n      add\n        /* \"#utility.yul\":23350:23396   */\n      mstore\n        /* \"#utility.yul\":23233:23403   */\n      pop\n      jump\t// out\n        /* \"#utility.yul\":23409:23775   */\n    tag_291:\n        /* \"#utility.yul\":23551:23554   */\n      0x00\n        /* \"#utility.yul\":23572:23639   */\n      tag_551\n        /* \"#utility.yul\":23636:23638   */\n      0x14\n        /* \"#utility.yul\":23631:23634   */\n      dup4\n        /* \"#utility.yul\":23572:23639   */\n      tag_264\n      jump\t// in\n    tag_551:\n        /* \"#utility.yul\":23565:23639   */\n      swap2\n      pop\n        /* \"#utility.yul\":23648:23741   */\n      tag_552\n        /* \"#utility.yul\":23737:23740   */\n      dup3\n        /* \"#utility.yul\":23648:23741   */\n      tag_290\n      jump\t// in\n    tag_552:\n        /* \"#utility.yul\":23766:23768   */\n      0x20\n        /* \"#utility.yul\":23761:23764   */\n      dup3\n        /* \"#utility.yul\":23757:23769   */\n      add\n        /* \"#utility.yul\":23750:23769   */\n      swap1\n      pop\n        /* \"#utility.yul\":23409:23775   */\n      swap2\n      swap1\n      pop\n      jump\t// out\n        /* \"#utility.yul\":23781:24200   */\n    tag_77:\n        /* \"#utility.yul\":23947:23951   */\n      0x00\n        /* \"#utility.yul\":23985:23987   */\n      0x20\n        /* \"#utility.yul\":23974:23983   */\n      dup3\n        /* \"#utility.yul\":23970:23988   */\n      add\n        /* \"#utility.yul\":23962:23988   */\n      swap1\n      pop\n        /* \"#utility.yul\":24034:24043   */\n      dup2\n        /* \"#utility.yul\":24028:24032   */\n      dup2\n        /* \"#utility.yul\":24024:24044   */\n      sub\n        /* \"#utility.yul\":24020:24021   */\n      0x00\n        /* \"#utility.yul\":24009:24018   */\n      dup4\n        /* \"#utility.yul\":24005:24022   */\n      add\n        /* \"#utility.yul\":23998:24045   */\n      mstore\n        /* \"#utility.yul\":24062:24193   */\n      tag_554\n        /* \"#utility.yul\":24188:24192   */\n      dup2\n        /* \"#utility.yul\":24062:24193   */\n      tag_291\n      jump\t// in\n    tag_554:\n        /* \"#utility.yul\":24054:24193   */\n      swap1\n      pop\n        /* \"#utility.yul\":23781:24200   */\n      swap2\n      swap1\n      pop\n      jump\t// out\n        /* \"#utility.yul\":24206:24386   */\n    tag_80:\n        /* \"#utility.yul\":24254:24331   */\n      0x4e487b7100000000000000000000000000000000000000000000000000000000\n        /* \"#utility.yul\":24251:24252   */\n      0x00\n        /* \"#utility.yul\":24244:24332   */\n      mstore\n        /* \"#utility.yul\":24351:24355   */\n      0x01\n        /* \"#utility.yul\":24348:24349   */\n      0x04\n        /* \"#utility.yul\":24341:24356   */\n      mstore\n        /* \"#utility.yul\":24375:24379   */\n      0x24\n        /* \"#utility.yul\":24372:24373   */\n      0x00\n        /* \"#utility.yul\":24365:24380   */\n      revert\n        /* \"#utility.yul\":24392:24625   */\n    tag_292:\n        /* \"#utility.yul\":24532:24566   */\n      0x6d6178696d756d206e6f206f662063616e646964617465207065722073657373\n        /* \"#utility.yul\":24528:24529   */\n      0x00\n        /* \"#utility.yul\":24520:24526   */\n      dup3\n        /* \"#utility.yul\":24516:24530   */\n      add\n        /* \"#utility.yul\":24509:24567   */\n      mstore\n        /* \"#utility.yul\":24601:24617   */\n      0x696f6e2072656769737465726564000000000000000000000000000000000000\n        /* \"#utility.yul\":24596:24598   */\n      0x20\n        /* \"#utility.yul\":24588:24594   */\n      dup3\n        /* \"#utility.yul\":24584:24599   */\n      add\n        /* \"#utility.yul\":24577:24618   */\n      mstore\n        /* \"#utility.yul\":24392:24625   */\n      pop\n      jump\t// out\n        /* \"#utility.yul\":24631:24997   */\n    tag_293:\n        /* \"#utility.yul\":24773:24776   */\n      0x00\n        /* \"#utility.yul\":24794:24861   */\n      tag_558\n        /* \"#utility.yul\":24858:24860   */\n      0x2e\n        /* \"#utility.yul\":24853:24856   */\n      dup4\n        /* \"#utility.yul\":24794:24861   */\n      tag_264\n      jump\t// in\n    tag_558:\n        /* \"#utility.yul\":24787:24861   */\n      swap2\n      pop\n        /* \"#utility.yul\":24870:24963   */\n      tag_559\n        /* \"#utility.yul\":24959:24962   */\n      dup3\n        /* \"#utility.yul\":24870:24963   */\n      tag_292\n      jump\t// in\n    tag_559:\n        /* \"#utility.yul\":24988:24990   */\n      0x40\n        /* \"#utility.yul\":24983:24986   */\n      dup3\n        /* \"#utility.yul\":24979:24991   */\n      add\n        /* \"#utility.yul\":24972:24991   */\n      swap1\n      pop\n        /* \"#utility.yul\":24631:24997   */\n      swap2\n      swap1\n      pop\n      jump\t// out\n        /* \"#utility.yul\":25003:25422   */\n    tag_83:\n        /* \"#utility.yul\":25169:25173   */\n      0x00\n        /* \"#utility.yul\":25207:25209   */\n      0x20\n        /* \"#utility.yul\":25196:25205   */\n      dup3\n        /* \"#utility.yul\":25192:25210   */\n      add\n        /* \"#utility.yul\":25184:25210   */\n      swap1\n      pop\n        /* \"#utility.yul\":25256:25265   */\n      dup2\n        /* \"#utility.yul\":25250:25254   */\n      dup2\n        /* \"#utility.yul\":25246:25266   */\n      sub\n        /* \"#utility.yul\":25242:25243   */\n      0x00\n        /* \"#utility.yul\":25231:25240   */\n      dup4\n        /* \"#utility.yul\":25227:25244   */\n      add\n        /* \"#utility.yul\":25220:25267   */\n      mstore\n        /* \"#utility.yul\":25284:25415   */\n      tag_561\n        /* \"#utility.yul\":25410:25414   */\n      dup2\n        /* \"#utility.yul\":25284:25415   */\n      tag_293\n      jump\t// in\n    tag_561:\n        /* \"#utility.yul\":25276:25415   */\n      swap1\n      pop\n        /* \"#utility.yul\":25003:25422   */\n      swap2\n      swap1\n      pop\n      jump\t// out\n        /* \"#utility.yul\":25428:25608   */\n    tag_294:\n        /* \"#utility.yul\":25476:25553   */\n      0x4e487b7100000000000000000000000000000000000000000000000000000000\n        /* \"#utility.yul\":25473:25474   */\n      0x00\n        /* \"#utility.yul\":25466:25554   */\n      mstore\n        /* \"#utility.yul\":25573:25577   */\n      0x11\n        /* \"#utility.yul\":25570:25571   */\n      0x04\n        /* \"#utility.yul\":25563:25578   */\n      mstore\n        /* \"#utility.yul\":25597:25601   */\n      0x24\n        /* \"#utility.yul\":25594:25595   */\n      0x00\n        /* \"#utility.yul\":25587:25602   */\n      revert\n        /* \"#utility.yul\":25614:25789   */\n    tag_86:\n        /* \"#utility.yul\":25652:25655   */\n      0x00\n        /* \"#utility.yul\":25675:25698   */\n      tag_564\n        /* \"#utility.yul\":25692:25697   */\n      dup3\n        /* \"#utility.yul\":25675:25698   */\n      tag_248\n      jump\t// in\n    tag_564:\n        /* \"#utility.yul\":25666:25698   */\n      swap2\n      pop\n        /* \"#utility.yul\":25720:25730   */\n      0xffffffff\n        /* \"#utility.yul\":25713:25718   */\n      dup3\n        /* \"#utility.yul\":25710:25731   */\n      eq\n        /* \"#utility.yul\":25707:25754   */\n      iszero\n      tag_565\n      jumpi\n        /* \"#utility.yul\":25734:25752   */\n      tag_566\n      tag_294\n      jump\t// in\n    tag_566:\n        /* \"#utility.yul\":25707:25754   */\n    tag_565:\n        /* \"#utility.yul\":25781:25782   */\n      0x01\n        /* \"#utility.yul\":25774:25779   */\n      dup3\n        /* \"#utility.yul\":25770:25783   */\n      add\n        /* \"#utility.yul\":25763:25783   */\n      swap1\n      pop\n        /* \"#utility.yul\":25614:25789   */\n      swap2\n      swap1\n      pop\n      jump\t// out\n        /* \"#utility.yul\":25795:26017   */\n    tag_88:\n        /* \"#utility.yul\":25888:25892   */\n      0x00\n        /* \"#utility.yul\":25926:25928   */\n      0x20\n        /* \"#utility.yul\":25915:25924   */\n      dup3\n        /* \"#utility.yul\":25911:25929   */\n      add\n        /* \"#utility.yul\":25903:25929   */\n      swap1\n      pop\n        /* \"#utility.yul\":25939:26010   */\n      tag_568\n        /* \"#utility.yul\":26007:26008   */\n      0x00\n        /* \"#utility.yul\":25996:26005   */\n      dup4\n        /* \"#utility.yul\":25992:26009   */\n      add\n        /* \"#utility.yul\":25983:25989   */\n      dup5\n        /* \"#utility.yul\":25939:26010   */\n      tag_263\n      jump\t// in\n    tag_568:\n        /* \"#utility.yul\":25795:26017   */\n      swap3\n      swap2\n      pop\n      pop\n      jump\t// out\n        /* \"#utility.yul\":26023:26188   */\n    tag_295:\n        /* \"#utility.yul\":26163:26180   */\n      0x4e6f20706f6c6c20637265617465640000000000000000000000000000000000\n        /* \"#utility.yul\":26159:26160   */\n      0x00\n        /* \"#utility.yul\":26151:26157   */\n      dup3\n        /* \"#utility.yul\":26147:26161   */\n      add\n        /* \"#utility.yul\":26140:26181   */\n      mstore\n        /* \"#utility.yul\":26023:26188   */\n      pop\n      jump\t// out\n        /* \"#utility.yul\":26194:26560   */\n    tag_296:\n        /* \"#utility.yul\":26336:26339   */\n      0x00\n        /* \"#utility.yul\":26357:26424   */\n      tag_571\n        /* \"#utility.yul\":26421:26423   */\n      0x0f\n        /* \"#utility.yul\":26416:26419   */\n      dup4\n        /* \"#utility.yul\":26357:26424   */\n      tag_264\n      jump\t// in\n    tag_571:\n        /* \"#utility.yul\":26350:26424   */\n      swap2\n      pop\n        /* \"#utility.yul\":26433:26526   */\n      tag_572\n        /* \"#utility.yul\":26522:26525   */\n      dup3\n        /* \"#utility.yul\":26433:26526   */\n      tag_295\n      jump\t// in\n    tag_572:\n        /* \"#utility.yul\":26551:26553   */\n      0x20\n        /* \"#utility.yul\":26546:26549   */\n      dup3\n        /* \"#utility.yul\":26542:26554   */\n      add\n        /* \"#utility.yul\":26535:26554   */\n      swap1\n      pop\n        /* \"#utility.yul\":26194:26560   */\n      swap2\n      swap1\n      pop\n      jump\t// out\n        /* \"#utility.yul\":26566:26985   */\n    tag_99:\n        /* \"#utility.yul\":26732:26736   */\n      0x00\n        /* \"#utility.yul\":26770:26772   */\n      0x20\n        /* \"#utility.yul\":26759:26768   */\n      dup3\n        /* \"#utility.yul\":26755:26773   */\n      add\n        /* \"#utility.yul\":26747:26773   */\n      swap1\n      pop\n        /* \"#utility.yul\":26819:26828   */\n      dup2\n        /* \"#utility.yul\":26813:26817   */\n      dup2\n        /* \"#utility.yul\":26809:26829   */\n      sub\n        /* \"#utility.yul\":26805:26806   */\n      0x00\n        /* \"#utility.yul\":26794:26803   */\n      dup4\n        /* \"#utility.yul\":26790:26807   */\n      add\n        /* \"#utility.yul\":26783:26830   */\n      mstore\n        /* \"#utility.yul\":26847:26978   */\n      tag_574\n        /* \"#utility.yul\":26973:26977   */\n      dup2\n        /* \"#utility.yul\":26847:26978   */\n      tag_296\n      jump\t// in\n    tag_574:\n        /* \"#utility.yul\":26839:26978   */\n      swap1\n      pop\n        /* \"#utility.yul\":26566:26985   */\n      swap2\n      swap1\n      pop\n      jump\t// out\n        /* \"#utility.yul\":26991:27171   */\n    tag_112:\n        /* \"#utility.yul\":27039:27116   */\n      0x4e487b7100000000000000000000000000000000000000000000000000000000\n        /* \"#utility.yul\":27036:27037   */\n      0x00\n        /* \"#utility.yul\":27029:27117   */\n      mstore\n        /* \"#utility.yul\":27136:27140   */\n      0x32\n        /* \"#utility.yul\":27133:27134   */\n      0x04\n        /* \"#utility.yul\":27126:27141   */\n      mstore\n        /* \"#utility.yul\":27160:27164   */\n      0x24\n        /* \"#utility.yul\":27157:27158   */\n      0x00\n        /* \"#utility.yul\":27150:27165   */\n      revert\n        /* \"#utility.yul\":27177:27410   */\n    tag_120:\n        /* \"#utility.yul\":27216:27219   */\n      0x00\n        /* \"#utility.yul\":27239:27263   */\n      tag_577\n        /* \"#utility.yul\":27257:27262   */\n      dup3\n        /* \"#utility.yul\":27239:27263   */\n      tag_233\n      jump\t// in\n    tag_577:\n        /* \"#utility.yul\":27230:27263   */\n      swap2\n      pop\n        /* \"#utility.yul\":27285:27351   */\n      0xffffffffffffffffffffffffffffffffffffffffffffffffffffffffffffffff\n        /* \"#utility.yul\":27278:27283   */\n      dup3\n        /* \"#utility.yul\":27275:27352   */\n      eq\n        /* \"#utility.yul\":27272:27375   */\n      iszero\n      tag_578\n      jumpi\n        /* \"#utility.yul\":27355:27373   */\n      tag_579\n      tag_294\n      jump\t// in\n    tag_579:\n        /* \"#utility.yul\":27272:27375   */\n    tag_578:\n        /* \"#utility.yul\":27402:27403   */\n      0x01\n        /* \"#utility.yul\":27395:27400   */\n      dup3\n        /* \"#utility.yul\":27391:27404   */\n      add\n        /* \"#utility.yul\":27384:27404   */\n      swap1\n      pop\n        /* \"#utility.yul\":27177:27410   */\n      swap2\n      swap1\n      pop\n      jump\t// out\n        /* \"#utility.yul\":27416:27596   */\n    tag_297:\n        /* \"#utility.yul\":27464:27541   */\n      0x4e487b7100000000000000000000000000000000000000000000000000000000\n        /* \"#utility.yul\":27461:27462   */\n      0x00\n        /* \"#utility.yul\":27454:27542   */\n      mstore\n        /* \"#utility.yul\":27561:27565   */\n      0x22\n        /* \"#utility.yul\":27558:27559   */\n      0x04\n        /* \"#utility.yul\":27551:27566   */\n      mstore\n        /* \"#utility.yul\":27585:27589   */\n      0x24\n        /* \"#utility.yul\":27582:27583   */\n      0x00\n        /* \"#utility.yul\":27575:27590   */\n      revert\n        /* \"#utility.yul\":27602:27922   */\n    tag_124:\n        /* \"#utility.yul\":27646:27652   */\n      0x00\n        /* \"#utility.yul\":27683:27684   */\n      0x02\n        /* \"#utility.yul\":27677:27681   */\n      dup3\n        /* \"#utility.yul\":27673:27685   */\n      div\n        /* \"#utility.yul\":27663:27685   */\n      swap1\n      pop\n        /* \"#utility.yul\":27730:27731   */\n      0x01\n        /* \"#utility.yul\":27724:27728   */\n      dup3\n        /* \"#utility.yul\":27720:27732   */\n      and\n        /* \"#utility.yul\":27751:27769   */\n      dup1\n        /* \"#utility.yul\":27741:27822   */\n      tag_582\n      jumpi\n        /* \"#utility.yul\":27807:27811   */\n      0x7f\n        /* \"#utility.yul\":27799:27805   */\n      dup3\n        /* \"#utility.yul\":27795:27812   */\n      and\n        /* \"#utility.yul\":27785:27812   */\n      swap2\n      pop\n        /* \"#utility.yul\":27741:27822   */\n    tag_582:\n        /* \"#utility.yul\":27869:27871   */\n      0x20\n        /* \"#utility.yul\":27861:27867   */\n      dup3\n        /* \"#utility.yul\":27858:27872   */\n      lt\n        /* \"#utility.yul\":27838:27856   */\n      dup2\n        /* \"#utility.yul\":27835:27873   */\n      eq\n        /* \"#utility.yul\":27832:27916   */\n      iszero\n      tag_583\n      jumpi\n        /* \"#utility.yul\":27888:27906   */\n      tag_584\n      tag_297\n      jump\t// in\n    tag_584:\n        /* \"#utility.yul\":27832:27916   */\n    tag_583:\n        /* \"#utility.yul\":27653:27922   */\n      pop\n        /* \"#utility.yul\":27602:27922   */\n      swap2\n      swap1\n      pop\n      jump\t// out\n        /* \"#utility.yul\":27928:28022   */\n    tag_298:\n        /* \"#utility.yul\":27961:27969   */\n      0x00\n        /* \"#utility.yul\":28009:28014   */\n      dup2\n        /* \"#utility.yul\":28005:28007   */\n      0x60\n        /* \"#utility.yul\":28001:28015   */\n      shl\n        /* \"#utility.yul\":27980:28015   */\n      swap1\n      pop\n        /* \"#utility.yul\":27928:28022   */\n      swap2\n      swap1\n      pop\n      jump\t// out\n        /* \"#utility.yul\":28028:28122   */\n    tag_299:\n        /* \"#utility.yul\":28067:28074   */\n      0x00\n        /* \"#utility.yul\":28096:28116   */\n      tag_587\n        /* \"#utility.yul\":28110:28115   */\n      dup3\n        /* \"#utility.yul\":28096:28116   */\n      tag_298\n      jump\t// in\n    tag_587:\n        /* \"#utility.yul\":28085:28116   */\n      swap1\n      pop\n        /* \"#utility.yul\":28028:28122   */\n      swap2\n      swap1\n      pop\n      jump\t// out\n        /* \"#utility.yul\":28128:28228   */\n    tag_300:\n        /* \"#utility.yul\":28167:28174   */\n      0x00\n        /* \"#utility.yul\":28196:28222   */\n      tag_589\n        /* \"#utility.yul\":28216:28221   */\n      dup3\n        /* \"#utility.yul\":28196:28222   */\n      tag_299\n      jump\t// in\n    tag_589:\n        /* \"#utility.yul\":28185:28222   */\n      swap1\n      pop\n        /* \"#utility.yul\":28128:28228   */\n      swap2\n      swap1\n      pop\n      jump\t// out\n        /* \"#utility.yul\":28234:28391   */\n    tag_301:\n        /* \"#utility.yul\":28339:28384   */\n      tag_591\n        /* \"#utility.yul\":28359:28383   */\n      tag_592\n        /* \"#utility.yul\":28377:28382   */\n      dup3\n        /* \"#utility.yul\":28359:28383   */\n      tag_230\n      jump\t// in\n    tag_592:\n        /* \"#utility.yul\":28339:28384   */\n      tag_300\n      jump\t// in\n    tag_591:\n        /* \"#utility.yul\":28334:28337   */\n      dup3\n        /* \"#utility.yul\":28327:28385   */\n      mstore\n        /* \"#utility.yul\":28234:28391   */\n      pop\n      pop\n      jump\t// out\n        /* \"#utility.yul\":28397:28545   */\n    tag_302:\n        /* \"#utility.yul\":28499:28510   */\n      0x00\n        /* \"#utility.yul\":28536:28539   */\n      dup2\n        /* \"#utility.yul\":28521:28539   */\n      swap1\n      pop\n        /* \"#utility.yul\":28397:28545   */\n      swap3\n      swap2\n      pop\n      pop\n      jump\t// out\n        /* \"#utility.yul\":28551:28724   */\n    tag_303:\n        /* \"#utility.yul\":28691:28716   */\n      0x6d6574617472616e73616374696f6e20566f74696e6720000000000000000000\n        /* \"#utility.yul\":28687:28688   */\n      0x00\n        /* \"#utility.yul\":28679:28685   */\n      dup3\n        /* \"#utility.yul\":28675:28689   */\n      add\n        /* \"#utility.yul\":28668:28717   */\n      mstore\n        /* \"#utility.yul\":28551:28724   */\n      pop\n      jump\t// out\n        /* \"#utility.yul\":28730:29132   */\n    tag_304:\n        /* \"#utility.yul\":28890:28893   */\n      0x00\n        /* \"#utility.yul\":28911:28996   */\n      tag_596\n        /* \"#utility.yul\":28993:28995   */\n      0x17\n        /* \"#utility.yul\":28988:28991   */\n      dup4\n        /* \"#utility.yul\":28911:28996   */\n      tag_302\n      jump\t// in\n    tag_596:\n        /* \"#utility.yul\":28904:28996   */\n      swap2\n      pop\n        /* \"#utility.yul\":29005:29098   */\n      tag_597\n        /* \"#utility.yul\":29094:29097   */\n      dup3\n        /* \"#utility.yul\":29005:29098   */\n      tag_303\n      jump\t// in\n    tag_597:\n        /* \"#utility.yul\":29123:29125   */\n      0x17\n        /* \"#utility.yul\":29118:29121   */\n      dup3\n        /* \"#utility.yul\":29114:29126   */\n      add\n        /* \"#utility.yul\":29107:29126   */\n      swap1\n      pop\n        /* \"#utility.yul\":28730:29132   */\n      swap2\n      swap1\n      pop\n      jump\t// out\n        /* \"#utility.yul\":29138:29217   */\n    tag_305:\n        /* \"#utility.yul\":29177:29184   */\n      0x00\n        /* \"#utility.yul\":29206:29211   */\n      dup2\n        /* \"#utility.yul\":29195:29211   */\n      swap1\n      pop\n        /* \"#utility.yul\":29138:29217   */\n      swap2\n      swap1\n      pop\n      jump\t// out\n        /* \"#utility.yul\":29223:29380   */\n    tag_306:\n        /* \"#utility.yul\":29328:29373   */\n      tag_600\n        /* \"#utility.yul\":29348:29372   */\n      tag_601\n        /* \"#utility.yul\":29366:29371   */\n      dup3\n        /* \"#utility.yul\":29348:29372   */\n      tag_233\n      jump\t// in\n    tag_601:\n        /* \"#utility.yul\":29328:29373   */\n      tag_305\n      jump\t// in\n    tag_600:\n        /* \"#utility.yul\":29323:29326   */\n      dup3\n        /* \"#utility.yul\":29316:29374   */\n      mstore\n        /* \"#utility.yul\":29223:29380   */\n      pop\n      pop\n      jump\t// out\n        /* \"#utility.yul\":29386:30472   */\n    tag_131:\n        /* \"#utility.yul\":29711:29714   */\n      0x00\n        /* \"#utility.yul\":29726:29801   */\n      tag_603\n        /* \"#utility.yul\":29797:29800   */\n      dup3\n        /* \"#utility.yul\":29788:29794   */\n      dup9\n        /* \"#utility.yul\":29726:29801   */\n      tag_301\n      jump\t// in\n    tag_603:\n        /* \"#utility.yul\":29826:29828   */\n      0x14\n        /* \"#utility.yul\":29821:29824   */\n      dup3\n        /* \"#utility.yul\":29817:29829   */\n      add\n        /* \"#utility.yul\":29810:29829   */\n      swap2\n      pop\n        /* \"#utility.yul\":29846:29994   */\n      tag_604\n        /* \"#utility.yul\":29990:29993   */\n      dup3\n        /* \"#utility.yul\":29846:29994   */\n      tag_304\n      jump\t// in\n    tag_604:\n        /* \"#utility.yul\":29839:29994   */\n      swap2\n      pop\n        /* \"#utility.yul\":30004:30079   */\n      tag_605\n        /* \"#utility.yul\":30075:30078   */\n      dup3\n        /* \"#utility.yul\":30066:30072   */\n      dup8\n        /* \"#utility.yul\":30004:30079   */\n      tag_301\n      jump\t// in\n    tag_605:\n        /* \"#utility.yul\":30104:30106   */\n      0x14\n        /* \"#utility.yul\":30099:30102   */\n      dup3\n        /* \"#utility.yul\":30095:30107   */\n      add\n        /* \"#utility.yul\":30088:30107   */\n      swap2\n      pop\n        /* \"#utility.yul\":30117:30192   */\n      tag_606\n        /* \"#utility.yul\":30188:30191   */\n      dup3\n        /* \"#utility.yul\":30179:30185   */\n      dup7\n        /* \"#utility.yul\":30117:30192   */\n      tag_306\n      jump\t// in\n    tag_606:\n        /* \"#utility.yul\":30217:30219   */\n      0x20\n        /* \"#utility.yul\":30212:30215   */\n      dup3\n        /* \"#utility.yul\":30208:30220   */\n      add\n        /* \"#utility.yul\":30201:30220   */\n      swap2\n      pop\n        /* \"#utility.yul\":30230:30305   */\n      tag_607\n        /* \"#utility.yul\":30301:30304   */\n      dup3\n        /* \"#utility.yul\":30292:30298   */\n      dup6\n        /* \"#utility.yul\":30230:30305   */\n      tag_306\n      jump\t// in\n    tag_607:\n        /* \"#utility.yul\":30330:30332   */\n      0x20\n        /* \"#utility.yul\":30325:30328   */\n      dup3\n        /* \"#utility.yul\":30321:30333   */\n      add\n        /* \"#utility.yul\":30314:30333   */\n      swap2\n      pop\n        /* \"#utility.yul\":30343:30418   */\n      tag_608\n        /* \"#utility.yul\":30414:30417   */\n      dup3\n        /* \"#utility.yul\":30405:30411   */\n      dup5\n        /* \"#utility.yul\":30343:30418   */\n      tag_306\n      jump\t// in\n    tag_608:\n        /* \"#utility.yul\":30443:30445   */\n      0x20\n        /* \"#utility.yul\":30438:30441   */\n      dup3\n        /* \"#utility.yul\":30434:30446   */\n      add\n        /* \"#utility.yul\":30427:30446   */\n      swap2\n      pop\n        /* \"#utility.yul\":30463:30466   */\n      dup2\n        /* \"#utility.yul\":30456:30466   */\n      swap1\n      pop\n        /* \"#utility.yul\":29386:30472   */\n      swap7\n      swap6\n      pop\n      pop\n      pop\n      pop\n      pop\n      pop\n      jump\t// out\n        /* \"#utility.yul\":30478:30707   */\n    tag_307:\n        /* \"#utility.yul\":30618:30652   */\n      0x54686973206164647265737320646f6573206e6f742065786973742061732061\n        /* \"#utility.yul\":30614:30615   */\n      0x00\n        /* \"#utility.yul\":30606:30612   */\n      dup3\n        /* \"#utility.yul\":30602:30616   */\n      add\n        /* \"#utility.yul\":30595:30653   */\n      mstore\n        /* \"#utility.yul\":30687:30699   */\n      0x2063616e64696461746500000000000000000000000000000000000000000000\n        /* \"#utility.yul\":30682:30684   */\n      0x20\n        /* \"#utility.yul\":30674:30680   */\n      dup3\n        /* \"#utility.yul\":30670:30685   */\n      add\n        /* \"#utility.yul\":30663:30700   */\n      mstore\n        /* \"#utility.yul\":30478:30707   */\n      pop\n      jump\t// out\n        /* \"#utility.yul\":30713:31079   */\n    tag_308:\n        /* \"#utility.yul\":30855:30858   */\n      0x00\n        /* \"#utility.yul\":30876:30943   */\n      tag_611\n        /* \"#utility.yul\":30940:30942   */\n      0x2a\n        /* \"#utility.yul\":30935:30938   */\n      dup4\n        /* \"#utility.yul\":30876:30943   */\n      tag_264\n      jump\t// in\n    tag_611:\n        /* \"#utility.yul\":30869:30943   */\n      swap2\n      pop\n        /* \"#utility.yul\":30952:31045   */\n      tag_612\n        /* \"#utility.yul\":31041:31044   */\n      dup3\n        /* \"#utility.yul\":30952:31045   */\n      tag_307\n      jump\t// in\n    tag_612:\n        /* \"#utility.yul\":31070:31072   */\n      0x40\n        /* \"#utility.yul\":31065:31068   */\n      dup3\n        /* \"#utility.yul\":31061:31073   */\n      add\n        /* \"#utility.yul\":31054:31073   */\n      swap1\n      pop\n        /* \"#utility.yul\":30713:31079   */\n      swap2\n      swap1\n      pop\n      jump\t// out\n        /* \"#utility.yul\":31085:31504   */\n    tag_135:\n        /* \"#utility.yul\":31251:31255   */\n      0x00\n        /* \"#utility.yul\":31289:31291   */\n      0x20\n        /* \"#utility.yul\":31278:31287   */\n      dup3\n        /* \"#utility.yul\":31274:31292   */\n      add\n        /* \"#utility.yul\":31266:31292   */\n      swap1\n      pop\n        /* \"#utility.yul\":31338:31347   */\n      dup2\n        /* \"#utility.yul\":31332:31336   */\n      dup2\n        /* \"#utility.yul\":31328:31348   */\n      sub\n        /* \"#utility.yul\":31324:31325   */\n      0x00\n        /* \"#utility.yul\":31313:31322   */\n      dup4\n        /* \"#utility.yul\":31309:31326   */\n      add\n        /* \"#utility.yul\":31302:31349   */\n      mstore\n        /* \"#utility.yul\":31366:31497   */\n      tag_614\n        /* \"#utility.yul\":31492:31496   */\n      dup2\n        /* \"#utility.yul\":31366:31497   */\n      tag_308\n      jump\t// in\n    tag_614:\n        /* \"#utility.yul\":31358:31497   */\n      swap1\n      pop\n        /* \"#utility.yul\":31085:31504   */\n      swap2\n      swap1\n      pop\n      jump\t// out\n        /* \"#utility.yul\":31510:31676   */\n    tag_309:\n        /* \"#utility.yul\":31650:31668   */\n      0x766f74696e672068617320656e64656400000000000000000000000000000000\n        /* \"#utility.yul\":31646:31647   */\n      0x00\n        /* \"#utility.yul\":31638:31644   */\n      dup3\n        /* \"#utility.yul\":31634:31648   */\n      add\n        /* \"#utility.yul\":31627:31669   */\n      mstore\n        /* \"#utility.yul\":31510:31676   */\n      pop\n      jump\t// out\n        /* \"#utility.yul\":31682:32048   */\n    tag_310:\n        /* \"#utility.yul\":31824:31827   */\n      0x00\n        /* \"#utility.yul\":31845:31912   */\n      tag_617\n        /* \"#utility.yul\":31909:31911   */\n      0x10\n        /* \"#utility.yul\":31904:31907   */\n      dup4\n        /* \"#utility.yul\":31845:31912   */\n      tag_264\n      jump\t// in\n    tag_617:\n        /* \"#utility.yul\":31838:31912   */\n      swap2\n      pop\n        /* \"#utility.yul\":31921:32014   */\n      tag_618\n        /* \"#utility.yul\":32010:32013   */\n      dup3\n        /* \"#utility.yul\":31921:32014   */\n      tag_309\n      jump\t// in\n    tag_618:\n        /* \"#utility.yul\":32039:32041   */\n      0x20\n        /* \"#utility.yul\":32034:32037   */\n      dup3\n        /* \"#utility.yul\":32030:32042   */\n      add\n        /* \"#utility.yul\":32023:32042   */\n      swap1\n      pop\n        /* \"#utility.yul\":31682:32048   */\n      swap2\n      swap1\n      pop\n      jump\t// out\n        /* \"#utility.yul\":32054:32473   */\n    tag_139:\n        /* \"#utility.yul\":32220:32224   */\n      0x00\n        /* \"#utility.yul\":32258:32260   */\n      0x20\n        /* \"#utility.yul\":32247:32256   */\n      dup3\n        /* \"#utility.yul\":32243:32261   */\n      add\n        /* \"#utility.yul\":32235:32261   */\n      swap1\n      pop\n        /* \"#utility.yul\":32307:32316   */\n      dup2\n        /* \"#utility.yul\":32301:32305   */\n      dup2\n        /* \"#utility.yul\":32297:32317   */\n      sub\n        /* \"#utility.yul\":32293:32294   */\n      0x00\n        /* \"#utility.yul\":32282:32291   */\n      dup4\n        /* \"#utility.yul\":32278:32295   */\n      add\n        /* \"#utility.yul\":32271:32318   */\n      mstore\n        /* \"#utility.yul\":32335:32466   */\n      tag_620\n        /* \"#utility.yul\":32461:32465   */\n      dup2\n        /* \"#utility.yul\":32335:32466   */\n      tag_310\n      jump\t// in\n    tag_620:\n        /* \"#utility.yul\":32327:32466   */\n      swap1\n      pop\n        /* \"#utility.yul\":32054:32473   */\n      swap2\n      swap1\n      pop\n      jump\t// out\n        /* \"#utility.yul\":32479:32646   */\n    tag_311:\n        /* \"#utility.yul\":32619:32638   */\n      0x596f7520616c726561647920766f746564000000000000000000000000000000\n        /* \"#utility.yul\":32615:32616   */\n      0x00\n        /* \"#utility.yul\":32607:32613   */\n      dup3\n        /* \"#utility.yul\":32603:32617   */\n      add\n        /* \"#utility.yul\":32596:32639   */\n      mstore\n        /* \"#utility.yul\":32479:32646   */\n      pop\n      jump\t// out\n        /* \"#utility.yul\":32652:33018   */\n    tag_312:\n        /* \"#utility.yul\":32794:32797   */\n      0x00\n        /* \"#utility.yul\":32815:32882   */\n      tag_623\n        /* \"#utility.yul\":32879:32881   */\n      0x11\n        /* \"#utility.yul\":32874:32877   */\n      dup4\n        /* \"#utility.yul\":32815:32882   */\n      tag_264\n      jump\t// in\n    tag_623:\n        /* \"#utility.yul\":32808:32882   */\n      swap2\n      pop\n        /* \"#utility.yul\":32891:32984   */\n      tag_624\n        /* \"#utility.yul\":32980:32983   */\n      dup3\n        /* \"#utility.yul\":32891:32984   */\n      tag_311\n      jump\t// in\n    tag_624:\n        /* \"#utility.yul\":33009:33011   */\n      0x20\n        /* \"#utility.yul\":33004:33007   */\n      dup3\n        /* \"#utility.yul\":33000:33012   */\n      add\n        /* \"#utility.yul\":32993:33012   */\n      swap1\n      pop\n        /* \"#utility.yul\":32652:33018   */\n      swap2\n      swap1\n      pop\n      jump\t// out\n        /* \"#utility.yul\":33024:33443   */\n    tag_149:\n        /* \"#utility.yul\":33190:33194   */\n      0x00\n        /* \"#utility.yul\":33228:33230   */\n      0x20\n        /* \"#utility.yul\":33217:33226   */\n      dup3\n        /* \"#utility.yul\":33213:33231   */\n      add\n        /* \"#utility.yul\":33205:33231   */\n      swap1\n      pop\n        /* \"#utility.yul\":33277:33286   */\n      dup2\n        /* \"#utility.yul\":33271:33275   */\n      dup2\n        /* \"#utility.yul\":33267:33287   */\n      sub\n        /* \"#utility.yul\":33263:33264   */\n      0x00\n        /* \"#utility.yul\":33252:33261   */\n      dup4\n        /* \"#utility.yul\":33248:33265   */\n      add\n        /* \"#utility.yul\":33241:33288   */\n      mstore\n        /* \"#utility.yul\":33305:33436   */\n      tag_626\n        /* \"#utility.yul\":33431:33435   */\n      dup2\n        /* \"#utility.yul\":33305:33436   */\n      tag_312\n      jump\t// in\n    tag_626:\n        /* \"#utility.yul\":33297:33436   */\n      swap1\n      pop\n        /* \"#utility.yul\":33024:33443   */\n      swap2\n      swap1\n      pop\n      jump\t// out\n        /* \"#utility.yul\":33449:33769   */\n    tag_153:\n        /* \"#utility.yul\":33564:33568   */\n      0x00\n        /* \"#utility.yul\":33602:33604   */\n      0x40\n        /* \"#utility.yul\":33591:33600   */\n      dup3\n        /* \"#utility.yul\":33587:33605   */\n      add\n        /* \"#utility.yul\":33579:33605   */\n      swap1\n      pop\n        /* \"#utility.yul\":33615:33686   */\n      tag_628\n        /* \"#utility.yul\":33683:33684   */\n      0x00\n        /* \"#utility.yul\":33672:33681   */\n      dup4\n        /* \"#utility.yul\":33668:33685   */\n      add\n        /* \"#utility.yul\":33659:33665   */\n      dup6\n        /* \"#utility.yul\":33615:33686   */\n      tag_263\n      jump\t// in\n    tag_628:\n        /* \"#utility.yul\":33696:33762   */\n      tag_629\n        /* \"#utility.yul\":33758:33760   */\n      0x20\n        /* \"#utility.yul\":33747:33756   */\n      dup4\n        /* \"#utility.yul\":33743:33761   */\n      add\n        /* \"#utility.yul\":33734:33740   */\n      dup5\n        /* \"#utility.yul\":33696:33762   */\n      tag_267\n      jump\t// in\n    tag_629:\n        /* \"#utility.yul\":33449:33769   */\n      swap4\n      swap3\n      pop\n      pop\n      pop\n      jump\t// out\n        /* \"#utility.yul\":33775:33941   */\n    tag_313:\n        /* \"#utility.yul\":33915:33933   */\n      0x6e6f74207468652063686169726d616e00000000000000000000000000000000\n        /* \"#utility.yul\":33911:33912   */\n      0x00\n        /* \"#utility.yul\":33903:33909   */\n      dup3\n        /* \"#utility.yul\":33899:33913   */\n      add\n        /* \"#utility.yul\":33892:33934   */\n      mstore\n        /* \"#utility.yul\":33775:33941   */\n      pop\n      jump\t// out\n        /* \"#utility.yul\":33947:34313   */\n    tag_314:\n        /* \"#utility.yul\":34089:34092   */\n      0x00\n        /* \"#utility.yul\":34110:34177   */\n      tag_632\n        /* \"#utility.yul\":34174:34176   */\n      0x10\n        /* \"#utility.yul\":34169:34172   */\n      dup4\n        /* \"#utility.yul\":34110:34177   */\n      tag_264\n      jump\t// in\n    tag_632:\n        /* \"#utility.yul\":34103:34177   */\n      swap2\n      pop\n        /* \"#utility.yul\":34186:34279   */\n      tag_633\n        /* \"#utility.yul\":34275:34278   */\n      dup3\n        /* \"#utility.yul\":34186:34279   */\n      tag_313\n      jump\t// in\n    tag_633:\n        /* \"#utility.yul\":34304:34306   */\n      0x20\n        /* \"#utility.yul\":34299:34302   */\n      dup3\n        /* \"#utility.yul\":34295:34307   */\n      add\n        /* \"#utility.yul\":34288:34307   */\n      swap1\n      pop\n        /* \"#utility.yul\":33947:34313   */\n      swap2\n      swap1\n      pop\n      jump\t// out\n        /* \"#utility.yul\":34319:34738   */\n    tag_157:\n        /* \"#utility.yul\":34485:34489   */\n      0x00\n        /* \"#utility.yul\":34523:34525   */\n      0x20\n        /* \"#utility.yul\":34512:34521   */\n      dup3\n        /* \"#utility.yul\":34508:34526   */\n      add\n        /* \"#utility.yul\":34500:34526   */\n      swap1\n      pop\n        /* \"#utility.yul\":34572:34581   */\n      dup2\n        /* \"#utility.yul\":34566:34570   */\n      dup2\n        /* \"#utility.yul\":34562:34582   */\n      sub\n        /* \"#utility.yul\":34558:34559   */\n      0x00\n        /* \"#utility.yul\":34547:34556   */\n      dup4\n        /* \"#utility.yul\":34543:34560   */\n      add\n        /* \"#utility.yul\":34536:34583   */\n      mstore\n        /* \"#utility.yul\":34600:34731   */\n      tag_635\n        /* \"#utility.yul\":34726:34730   */\n      dup2\n        /* \"#utility.yul\":34600:34731   */\n      tag_314\n      jump\t// in\n    tag_635:\n        /* \"#utility.yul\":34592:34731   */\n      swap1\n      pop\n        /* \"#utility.yul\":34319:34738   */\n      swap2\n      swap1\n      pop\n      jump\t// out\n        /* \"#utility.yul\":34744:35121   */\n    tag_315:\n        /* \"#utility.yul\":34850:34853   */\n      0x00\n        /* \"#utility.yul\":34878:34917   */\n      tag_637\n        /* \"#utility.yul\":34911:34916   */\n      dup3\n        /* \"#utility.yul\":34878:34917   */\n      tag_236\n      jump\t// in\n    tag_637:\n        /* \"#utility.yul\":34933:35022   */\n      tag_638\n        /* \"#utility.yul\":35015:35021   */\n      dup2\n        /* \"#utility.yul\":35010:35013   */\n      dup6\n        /* \"#utility.yul\":34933:35022   */\n      tag_302\n      jump\t// in\n    tag_638:\n        /* \"#utility.yul\":34926:35022   */\n      swap4\n      pop\n        /* \"#utility.yul\":35031:35083   */\n      tag_639\n        /* \"#utility.yul\":35076:35082   */\n      dup2\n        /* \"#utility.yul\":35071:35074   */\n      dup6\n        /* \"#utility.yul\":35064:35068   */\n      0x20\n        /* \"#utility.yul\":35057:35062   */\n      dup7\n        /* \"#utility.yul\":35053:35069   */\n      add\n        /* \"#utility.yul\":35031:35083   */\n      tag_238\n      jump\t// in\n    tag_639:\n        /* \"#utility.yul\":35108:35114   */\n      dup1\n        /* \"#utility.yul\":35103:35106   */\n      dup5\n        /* \"#utility.yul\":35099:35115   */\n      add\n        /* \"#utility.yul\":35092:35115   */\n      swap2\n      pop\n        /* \"#utility.yul\":34854:35121   */\n      pop\n        /* \"#utility.yul\":34744:35121   */\n      swap3\n      swap2\n      pop\n      pop\n      jump\t// out\n        /* \"#utility.yul\":35127:35402   */\n    tag_174:\n        /* \"#utility.yul\":35259:35262   */\n      0x00\n        /* \"#utility.yul\":35281:35376   */\n      tag_641\n        /* \"#utility.yul\":35372:35375   */\n      dup3\n        /* \"#utility.yul\":35363:35369   */\n      dup5\n        /* \"#utility.yul\":35281:35376   */\n      tag_315\n      jump\t// in\n    tag_641:\n        /* \"#utility.yul\":35274:35376   */\n      swap2\n      pop\n        /* \"#utility.yul\":35393:35396   */\n      dup2\n        /* \"#utility.yul\":35386:35396   */\n      swap1\n      pop\n        /* \"#utility.yul\":35127:35402   */\n      swap3\n      swap2\n      pop\n      pop\n      jump\t// out\n        /* \"#utility.yul\":35408:35494   */\n    tag_316:\n        /* \"#utility.yul\":35443:35450   */\n      0x00\n        /* \"#utility.yul\":35483:35487   */\n      0xff\n        /* \"#utility.yul\":35476:35481   */\n      dup3\n        /* \"#utility.yul\":35472:35488   */\n      and\n        /* \"#utility.yul\":35461:35488   */\n      swap1\n      pop\n        /* \"#utility.yul\":35408:35494   */\n      swap2\n      swap1\n      pop\n      jump\t// out\n        /* \"#utility.yul\":35500:35737   */\n    tag_193:\n        /* \"#utility.yul\":35538:35541   */\n      0x00\n        /* \"#utility.yul\":35557:35575   */\n      tag_644\n        /* \"#utility.yul\":35573:35574   */\n      dup3\n        /* \"#utility.yul\":35557:35575   */\n      tag_316\n      jump\t// in\n    tag_644:\n        /* \"#utility.yul\":35552:35575   */\n      swap2\n      pop\n        /* \"#utility.yul\":35589:35607   */\n      tag_645\n        /* \"#utility.yul\":35605:35606   */\n      dup4\n        /* \"#utility.yul\":35589:35607   */\n      tag_316\n      jump\t// in\n    tag_645:\n        /* \"#utility.yul\":35584:35607   */\n      swap3\n      pop\n        /* \"#utility.yul\":35679:35680   */\n      dup3\n        /* \"#utility.yul\":35673:35677   */\n      0xff\n        /* \"#utility.yul\":35669:35681   */\n      sub\n        /* \"#utility.yul\":35666:35667   */\n      dup3\n        /* \"#utility.yul\":35663:35682   */\n      gt\n        /* \"#utility.yul\":35660:35705   */\n      iszero\n      tag_646\n      jumpi\n        /* \"#utility.yul\":35685:35703   */\n      tag_647\n      tag_294\n      jump\t// in\n    tag_647:\n        /* \"#utility.yul\":35660:35705   */\n    tag_646:\n        /* \"#utility.yul\":35729:35730   */\n      dup3\n        /* \"#utility.yul\":35726:35727   */\n      dup3\n        /* \"#utility.yul\":35722:35731   */\n      add\n        /* \"#utility.yul\":35715:35731   */\n      swap1\n      pop\n        /* \"#utility.yul\":35500:35737   */\n      swap3\n      swap2\n      pop\n      pop\n      jump\t// out\n        /* \"#utility.yul\":35743:35957   */\n    tag_317:\n        /* \"#utility.yul\":35883:35949   */\n      0x19457468657265756d205369676e6564204d6573736167653a0a333200000000\n        /* \"#utility.yul\":35879:35880   */\n      0x00\n        /* \"#utility.yul\":35871:35877   */\n      dup3\n        /* \"#utility.yul\":35867:35881   */\n      add\n        /* \"#utility.yul\":35860:35950   */\n      mstore\n        /* \"#utility.yul\":35743:35957   */\n      pop\n      jump\t// out\n        /* \"#utility.yul\":35963:36365   */\n    tag_318:\n        /* \"#utility.yul\":36123:36126   */\n      0x00\n        /* \"#utility.yul\":36144:36229   */\n      tag_650\n        /* \"#utility.yul\":36226:36228   */\n      0x1c\n        /* \"#utility.yul\":36221:36224   */\n      dup4\n        /* \"#utility.yul\":36144:36229   */\n      tag_302\n      jump\t// in\n    tag_650:\n        /* \"#utility.yul\":36137:36229   */\n      swap2\n      pop\n        /* \"#utility.yul\":36238:36331   */\n      tag_651\n        /* \"#utility.yul\":36327:36330   */\n      dup3\n        /* \"#utility.yul\":36238:36331   */\n      tag_317\n      jump\t// in\n    tag_651:\n        /* \"#utility.yul\":36356:36358   */\n      0x1c\n        /* \"#utility.yul\":36351:36354   */\n      dup3\n        /* \"#utility.yul\":36347:36359   */\n      add\n        /* \"#utility.yul\":36340:36359   */\n      swap1\n      pop\n        /* \"#utility.yul\":35963:36365   */\n      swap2\n      swap1\n      pop\n      jump\t// out\n        /* \"#utility.yul\":36371:36450   */\n    tag_319:\n        /* \"#utility.yul\":36410:36417   */\n      0x00\n        /* \"#utility.yul\":36439:36444   */\n      dup2\n        /* \"#utility.yul\":36428:36444   */\n      swap1\n      pop\n        /* \"#utility.yul\":36371:36450   */\n      swap2\n      swap1\n      pop\n      jump\t// out\n        /* \"#utility.yul\":36456:36613   */\n    tag_320:\n        /* \"#utility.yul\":36561:36606   */\n      tag_654\n        /* \"#utility.yul\":36581:36605   */\n      tag_655\n        /* \"#utility.yul\":36599:36604   */\n      dup3\n        /* \"#utility.yul\":36581:36605   */\n      tag_268\n      jump\t// in\n    tag_655:\n        /* \"#utility.yul\":36561:36606   */\n      tag_319\n      jump\t// in\n    tag_654:\n        /* \"#utility.yul\":36556:36559   */\n      dup3\n        /* \"#utility.yul\":36549:36607   */\n      mstore\n        /* \"#utility.yul\":36456:36613   */\n      pop\n      pop\n      jump\t// out\n        /* \"#utility.yul\":36619:37141   */\n    tag_198:\n        /* \"#utility.yul\":36832:36835   */\n      0x00\n        /* \"#utility.yul\":36854:37002   */\n      tag_657\n        /* \"#utility.yul\":36998:37001   */\n      dup3\n        /* \"#utility.yul\":36854:37002   */\n      tag_318\n      jump\t// in\n    tag_657:\n        /* \"#utility.yul\":36847:37002   */\n      swap2\n      pop\n        /* \"#utility.yul\":37012:37087   */\n      tag_658\n        /* \"#utility.yul\":37083:37086   */\n      dup3\n        /* \"#utility.yul\":37074:37080   */\n      dup5\n        /* \"#utility.yul\":37012:37087   */\n      tag_320\n      jump\t// in\n    tag_658:\n        /* \"#utility.yul\":37112:37114   */\n      0x20\n        /* \"#utility.yul\":37107:37110   */\n      dup3\n        /* \"#utility.yul\":37103:37115   */\n      add\n        /* \"#utility.yul\":37096:37115   */\n      swap2\n      pop\n        /* \"#utility.yul\":37132:37135   */\n      dup2\n        /* \"#utility.yul\":37125:37135   */\n      swap1\n      pop\n        /* \"#utility.yul\":36619:37141   */\n      swap3\n      swap2\n      pop\n      pop\n      jump\t// out\n        /* \"#utility.yul\":37147:37259   */\n    tag_321:\n        /* \"#utility.yul\":37230:37252   */\n      tag_660\n        /* \"#utility.yul\":37246:37251   */\n      dup2\n        /* \"#utility.yul\":37230:37252   */\n      tag_316\n      jump\t// in\n    tag_660:\n        /* \"#utility.yul\":37225:37228   */\n      dup3\n        /* \"#utility.yul\":37218:37253   */\n      mstore\n        /* \"#utility.yul\":37147:37259   */\n      pop\n      pop\n      jump\t// out\n        /* \"#utility.yul\":37265:37810   */\n    tag_200:\n        /* \"#utility.yul\":37438:37442   */\n      0x00\n        /* \"#utility.yul\":37476:37479   */\n      0x80\n        /* \"#utility.yul\":37465:37474   */\n      dup3\n        /* \"#utility.yul\":37461:37480   */\n      add\n        /* \"#utility.yul\":37453:37480   */\n      swap1\n      pop\n        /* \"#utility.yul\":37490:37561   */\n      tag_662\n        /* \"#utility.yul\":37558:37559   */\n      0x00\n        /* \"#utility.yul\":37547:37556   */\n      dup4\n        /* \"#utility.yul\":37543:37560   */\n      add\n        /* \"#utility.yul\":37534:37540   */\n      dup8\n        /* \"#utility.yul\":37490:37561   */\n      tag_269\n      jump\t// in\n    tag_662:\n        /* \"#utility.yul\":37571:37639   */\n      tag_663\n        /* \"#utility.yul\":37635:37637   */\n      0x20\n        /* \"#utility.yul\":37624:37633   */\n      dup4\n        /* \"#utility.yul\":37620:37638   */\n      add\n        /* \"#utility.yul\":37611:37617   */\n      dup7\n        /* \"#utility.yul\":37571:37639   */\n      tag_321\n      jump\t// in\n    tag_663:\n        /* \"#utility.yul\":37649:37721   */\n      tag_664\n        /* \"#utility.yul\":37717:37719   */\n      0x40\n        /* \"#utility.yul\":37706:37715   */\n      dup4\n        /* \"#utility.yul\":37702:37720   */\n      add\n        /* \"#utility.yul\":37693:37699   */\n      dup6\n        /* \"#utility.yul\":37649:37721   */\n      tag_269\n      jump\t// in\n    tag_664:\n        /* \"#utility.yul\":37731:37803   */\n      tag_665\n        /* \"#utility.yul\":37799:37801   */\n      0x60\n        /* \"#utility.yul\":37788:37797   */\n      dup4\n        /* \"#utility.yul\":37784:37802   */\n      add\n        /* \"#utility.yul\":37775:37781   */\n      dup5\n        /* \"#utility.yul\":37731:37803   */\n      tag_269\n      jump\t// in\n    tag_665:\n        /* \"#utility.yul\":37265:37810   */\n      swap6\n      swap5\n      pop\n      pop\n      pop\n      pop\n      pop\n      jump\t// out\n\n    auxdata: 0xa264697066735822122091126cf50d6237e9623a9bc5b0b84a79a65597a246ee0c3625a6d9f4a10f4f3264736f6c634300080a0033\n}\n",
				"bytecode": {
					"linkReferences": {},
					"object": "6080604052600160005534801561001557600080fd5b50612bc1806100256000396000f3fe608060405234801561001057600080fd5b50600436106100b45760003560e01c8063ae928e3e11610071578063ae928e3e146101c7578063bfe2e25d146101fb578063c10d6cec1461022b578063c57003cc14610247578063e615f10414610263578063f762f4c014610297576100b4565b8063049d1c8b146100b9578063278e2c90146100d557806366c5343b1461010557806367d407df146101355780638ac3c3c2146101655780638ccb59e814610195575b600080fd5b6100d360048036038101906100ce91906119b1565b6102c7565b005b6100ef60048036038101906100ea91906119f1565b610595565b6040516100fc9190611c3f565b60405180910390f35b61011f600480360381019061011a91906119f1565b6105a2565b60405161012c9190611c70565b60405180910390f35b61014f600480360381019061014a9190611c8b565b6105dd565b60405161015c9190611c70565b60405180910390f35b61017f600480360381019061017a91906119f1565b6105f5565b60405161018c9190611d27565b60405180910390f35b6101af60048036038101906101aa91906119f1565b61069f565b6040516101be93929190611e16565b60405180910390f35b6101e160048036038101906101dc91906119f1565b6108ea565b6040516101f2959493929190611ebc565b60405180910390f35b61021560048036038101906102109190611f16565b610a05565b6040516102229190611f96565b60405180910390f35b610245600480360381019061024091906120e6565b610a40565b005b610261600480360381019061025c91906119f1565b610d44565b005b61027d600480360381019061027891906119f1565b610e5f565b60405161028e959493929190611ebc565b60405180910390f35b6102b160048036038101906102ac9190612236565b610f6a565b6040516102be91906123e4565b60405180910390f35b6000600260008381526020019081526020016000209050600073ffffffffffffffffffffffffffffffffffffffff168160010160009054906101000a900473ffffffffffffffffffffffffffffffffffffffff1673ffffffffffffffffffffffffffffffffffffffff161415610372576040517f08c379a000000000000000000000000000000000000000000000000000000000815260040161036990612452565b60405180910390fd5b3373ffffffffffffffffffffffffffffffffffffffff168160010160009054906101000a900473ffffffffffffffffffffffffffffffffffffffff1673ffffffffffffffffffffffffffffffffffffffff16146103d2576103d1612472565b5b8060030160009054906101000a900463ffffffff1663ffffffff168160030160049054906101000a900463ffffffff1663ffffffff1610610448576040517f08c379a000000000000000000000000000000000000000000000000000000000815260040161043f90612513565b60405180910390fd5b60016004600084815260200190815260200160002060008573ffffffffffffffffffffffffffffffffffffffff1673ffffffffffffffffffffffffffffffffffffffff16815260200190815260200160002060006101000a81548160ff02191690831515021790555080600201839080600181540180825580915050600190039060005260206000200160009091909190916101000a81548173ffffffffffffffffffffffffffffffffffffffff021916908373ffffffffffffffffffffffffffffffffffffffff16021790555080600301600481819054906101000a900463ffffffff168092919061053a90612562565b91906101000a81548163ffffffff021916908363ffffffff160217905550507fc19c59aa93348e8fc54764bc642eca975e2639f44cc683ef8f027e1529cbda3283604051610588919061258f565b60405180910390a1505050565b61059d61172d565b919050565b6000806002600084815260200190815260200160002090508060030160049054906101000a900463ffffffff1663ffffffff16915050919050565b60036020528060005260406000206000915090505481565b606060006002600084815260200190815260200160002090508060020180548060200260200160405190810160405280929190818152602001828054801561069257602002820191906000526020600020905b8160009054906101000a900473ffffffffffffffffffffffffffffffffffffffff1673ffffffffffffffffffffffffffffffffffffffff1681526020019060010190808311610648575b5050505050915050919050565b60606000806000600260008681526020019081526020016000209050600073ffffffffffffffffffffffffffffffffffffffff168160010160009054906101000a900473ffffffffffffffffffffffffffffffffffffffff1673ffffffffffffffffffffffffffffffffffffffff16141561074f576040517f08c379a0000000000000000000000000000000000000000000000000000000008152600401610746906125f6565b60405180910390fd5b806002018054905067ffffffffffffffff8111156107705761076f611fbb565b5b60405190808252806020026020018201604052801561079e5781602001602082028036833780820191505090505b50935060008060005b836002018054905081116108d65760006107c18983611457565b905083811115610812578093508460020182815481106107e4576107e3612616565b5b9060005260206000200160009054906101000a900473ffffffffffffffffffffffffffffffffffffffff1692505b600560008a8152602001908152602001600020600086600201848154811061083d5761083c612616565b5b9060005260206000200160009054906101000a900473ffffffffffffffffffffffffffffffffffffffff1673ffffffffffffffffffffffffffffffffffffffff1673ffffffffffffffffffffffffffffffffffffffff168152602001908152602001600020548883815181106108b6576108b5612616565b5b6020026020010181815250505080806108ce90612645565b9150506107a7565b508581839550955095505050509193909250565b600181815481106108fa57600080fd5b906000526020600020906004020160009150905080600001805461091d906126bd565b80601f0160208091040260200160405190810160405280929190818152602001828054610949906126bd565b80156109965780601f1061096b57610100808354040283529160200191610996565b820191906000526020600020905b81548152906001019060200180831161097957829003601f168201915b5050505050908060010160009054906101000a900473ffffffffffffffffffffffffffffffffffffffff16908060030160009054906101000a900463ffffffff16908060030160049054906101000a900463ffffffff16908060030160089054906101000a900460ff16905085565b60003085858585604051602001610a209594939291906127af565b604051602081830303815290604052805190602001209050949350505050565b8383600115156004600083815260200190815260200160002060008473ffffffffffffffffffffffffffffffffffffffff1673ffffffffffffffffffffffffffffffffffffffff16815260200190815260200160002060009054906101000a900460ff16151514610ae6576040517f08c379a0000000000000000000000000000000000000000000000000000000008152600401610add9061288b565b60405180910390fd5b846000600260008381526020019081526020016000209050600115158160030160089054906101000a900460ff16151514610b56576040517f08c379a0000000000000000000000000000000000000000000000000000000008152600401610b4d906128f7565b60405180910390fd5b6000610b6489898942610a05565b90506000610b728288611509565b9050600073ffffffffffffffffffffffffffffffffffffffff168173ffffffffffffffffffffffffffffffffffffffff161415610bae57600080fd5b600360008273ffffffffffffffffffffffffffffffffffffffff1673ffffffffffffffffffffffffffffffffffffffff168152602001908152602001600020548814610bf957600080fd5b600360008273ffffffffffffffffffffffffffffffffffffffff1673ffffffffffffffffffffffffffffffffffffffff1681526020019081526020016000206000815480929190610c4990612645565b919050555060001515600660008b815260200190815260200160002060008373ffffffffffffffffffffffffffffffffffffffff1673ffffffffffffffffffffffffffffffffffffffff16815260200190815260200160002060009054906101000a900460ff16151514610cf2576040517f08c379a0000000000000000000000000000000000000000000000000000000008152600401610ce990612963565b60405180910390fd5b610cfd8a8a83611602565b507ff3f16a15f074b71c5138107dfc7c63b80524d5411cb967caa97d8d9f12b2fd6b8a6001604051610d30929190612983565b60405180910390a150505050505050505050565b60006002600083815260200190815260200160002090503373ffffffffffffffffffffffffffffffffffffffff168160010160009054906101000a900473ffffffffffffffffffffffffffffffffffffffff1673ffffffffffffffffffffffffffffffffffffffff1614610ded576040517f08c379a0000000000000000000000000000000000000000000000000000000008152600401610de4906129f8565b60405180910390fd5b8060030160089054906101000a900460ff16158160030160086101000a81548160ff0219169083151502179055508060030160089054906101000a900460ff1615157f7b224db641892626dca6975b376f464e9ac52ccfa180436175170c009b94dcd760405160405180910390a25050565b6002602052806000526040600020600091509050806000018054610e82906126bd565b80601f0160208091040260200160405190810160405280929190818152602001828054610eae906126bd565b8015610efb5780601f10610ed057610100808354040283529160200191610efb565b820191906000526020600020905b815481529060010190602001808311610ede57829003601f168201915b5050505050908060010160009054906101000a900473ffffffffffffffffffffffffffffffffffffffff16908060030160009054906101000a900463ffffffff16908060030160049054906101000a900463ffffffff16908060030160089054906101000a900460ff16905085565b606060006002600080548152602001908152602001600020905083816000019080519060200190610f9c929190611787565b50338160010160006101000a81548173ffffffffffffffffffffffffffffffffffffffff021916908373ffffffffffffffffffffffffffffffffffffffff160217905550828160030160006101000a81548163ffffffff021916908363ffffffff16021790555060018190806001815401808255809150506001900390600052602060002090600402016000909190919091506000820181600001908054611043906126bd565b61104e92919061180d565b506001820160009054906101000a900473ffffffffffffffffffffffffffffffffffffffff168160010160006101000a81548173ffffffffffffffffffffffffffffffffffffffff021916908373ffffffffffffffffffffffffffffffffffffffff16021790555060028201816002019080546110cc92919061189a565b506003820160009054906101000a900463ffffffff168160030160006101000a81548163ffffffff021916908363ffffffff1602179055506003820160049054906101000a900463ffffffff168160030160046101000a81548163ffffffff021916908363ffffffff1602179055506003820160089054906101000a900460ff168160030160086101000a81548160ff021916908315150217905550505060008081548092919061117c90612645565b91905055508060010160009054906101000a900473ffffffffffffffffffffffffffffffffffffffff1673ffffffffffffffffffffffffffffffffffffffff168160030160009054906101000a900463ffffffff1663ffffffff16856040516111e59190612a49565b60405180910390207f4b35e5cf01446aa899a8d21082ebf23b7497d38f2466ad49836bd1006a8d059e60405160405180910390a46001805480602002602001604051908101604052809291908181526020016000905b8282101561144a57838290600052602060002090600402016040518060c001604052908160008201805461126e906126bd565b80601f016020809104026020016040519081016040528092919081815260200182805461129a906126bd565b80156112e75780601f106112bc576101008083540402835291602001916112e7565b820191906000526020600020905b8154815290600101906020018083116112ca57829003601f168201915b505050505081526020016001820160009054906101000a900473ffffffffffffffffffffffffffffffffffffffff1673ffffffffffffffffffffffffffffffffffffffff1673ffffffffffffffffffffffffffffffffffffffff168152602001600282018054806020026020016040519081016040528092919081815260200182805480156113cb57602002820191906000526020600020905b8160009054906101000a900473ffffffffffffffffffffffffffffffffffffffff1673ffffffffffffffffffffffffffffffffffffffff1681526020019060010190808311611381575b505050505081526020016003820160009054906101000a900463ffffffff1663ffffffff1663ffffffff1681526020016003820160049054906101000a900463ffffffff1663ffffffff1663ffffffff1681526020016003820160089054906101000a900460ff1615151515815250508152602001906001019061123b565b5050505091505092915050565b60008060026000858152602001908152602001600020905060056000858152602001908152602001600020600082600201858154811061149a57611499612616565b5b9060005260206000200160009054906101000a900473ffffffffffffffffffffffffffffffffffffffff1673ffffffffffffffffffffffffffffffffffffffff1673ffffffffffffffffffffffffffffffffffffffff1681526020019081526020016000205491505092915050565b600080600080604185511461152457600093505050506115fc565b6020850151925060408501519150606085015160001a9050601b8160ff16101561155857601b816115559190612a6d565b90505b601b8160ff16141580156115705750601c8160ff1614155b1561158157600093505050506115fc565b6001866040516020016115949190612b11565b60405160208183030381529060405280519060200120828585604051600081526020016040526040516115ca9493929190612b46565b6020604051602081039080840390855afa1580156115ec573d6000803e3d6000fd5b5050506020604051035193505050505b92915050565b600060016006600085815260200190815260200160002060008473ffffffffffffffffffffffffffffffffffffffff1673ffffffffffffffffffffffffffffffffffffffff16815260200190815260200160002060006101000a81548160ff0219169083151502179055506005600084815260200190815260200160002060008573ffffffffffffffffffffffffffffffffffffffff1673ffffffffffffffffffffffffffffffffffffffff16815260200190815260200160002060008154809291906116ce90612645565b91905055506005600084815260200190815260200160002060008573ffffffffffffffffffffffffffffffffffffffff1673ffffffffffffffffffffffffffffffffffffffff1681526020019081526020016000205490509392505050565b6040518060c0016040528060608152602001600073ffffffffffffffffffffffffffffffffffffffff16815260200160608152602001600063ffffffff168152602001600063ffffffff1681526020016000151581525090565b828054611793906126bd565b90600052602060002090601f0160209004810192826117b557600085556117fc565b82601f106117ce57805160ff19168380011785556117fc565b828001600101855582156117fc579182015b828111156117fb5782518255916020019190600101906117e0565b5b50905061180991906118ec565b5090565b828054611819906126bd565b90600052602060002090601f01602090048101928261183b5760008555611889565b82601f1061184c5780548555611889565b8280016001018555821561188957600052602060002091601f016020900482015b8281111561188857825482559160010191906001019061186d565b5b50905061189691906118ec565b5090565b8280548282559060005260206000209081019282156118db5760005260206000209182015b828111156118da5782548255916001019190600101906118bf565b5b5090506118e891906118ec565b5090565b5b808211156119055760008160009055506001016118ed565b5090565b6000604051905090565b600080fd5b600080fd5b600073ffffffffffffffffffffffffffffffffffffffff82169050919050565b60006119488261191d565b9050919050565b6119588161193d565b811461196357600080fd5b50565b6000813590506119758161194f565b92915050565b6000819050919050565b61198e8161197b565b811461199957600080fd5b50565b6000813590506119ab81611985565b92915050565b600080604083850312156119c8576119c7611913565b5b60006119d685828601611966565b92505060206119e78582860161199c565b9150509250929050565b600060208284031215611a0757611a06611913565b5b6000611a158482850161199c565b91505092915050565b600081519050919050565b600082825260208201905092915050565b60005b83811015611a58578082015181840152602081019050611a3d565b83811115611a67576000848401525b50505050565b6000601f19601f8301169050919050565b6000611a8982611a1e565b611a938185611a29565b9350611aa3818560208601611a3a565b611aac81611a6d565b840191505092915050565b611ac08161193d565b82525050565b600081519050919050565b600082825260208201905092915050565b6000819050602082019050919050565b6000611afe8383611ab7565b60208301905092915050565b6000602082019050919050565b6000611b2282611ac6565b611b2c8185611ad1565b9350611b3783611ae2565b8060005b83811015611b68578151611b4f8882611af2565b9750611b5a83611b0a565b925050600181019050611b3b565b5085935050505092915050565b600063ffffffff82169050919050565b611b8e81611b75565b82525050565b60008115159050919050565b611ba981611b94565b82525050565b600060c0830160008301518482036000860152611bcc8282611a7e565b9150506020830151611be16020860182611ab7565b5060408301518482036040860152611bf98282611b17565b9150506060830151611c0e6060860182611b85565b506080830151611c216080860182611b85565b5060a0830151611c3460a0860182611ba0565b508091505092915050565b60006020820190508181036000830152611c598184611baf565b905092915050565b611c6a8161197b565b82525050565b6000602082019050611c856000830184611c61565b92915050565b600060208284031215611ca157611ca0611913565b5b6000611caf84828501611966565b91505092915050565b600082825260208201905092915050565b6000611cd482611ac6565b611cde8185611cb8565b9350611ce983611ae2565b8060005b83811015611d1a578151611d018882611af2565b9750611d0c83611b0a565b925050600181019050611ced565b5085935050505092915050565b60006020820190508181036000830152611d418184611cc9565b905092915050565b600081519050919050565b600082825260208201905092915050565b6000819050602082019050919050565b611d7e8161197b565b82525050565b6000611d908383611d75565b60208301905092915050565b6000602082019050919050565b6000611db482611d49565b611dbe8185611d54565b9350611dc983611d65565b8060005b83811015611dfa578151611de18882611d84565b9750611dec83611d9c565b925050600181019050611dcd565b5085935050505092915050565b611e108161193d565b82525050565b60006060820190508181036000830152611e308186611da9565b9050611e3f6020830185611e07565b611e4c6040830184611c61565b949350505050565b600082825260208201905092915050565b6000611e7082611a1e565b611e7a8185611e54565b9350611e8a818560208601611a3a565b611e9381611a6d565b840191505092915050565b611ea781611b75565b82525050565b611eb681611b94565b82525050565b600060a0820190508181036000830152611ed68188611e65565b9050611ee56020830187611e07565b611ef26040830186611e9e565b611eff6060830185611e9e565b611f0c6080830184611ead565b9695505050505050565b60008060008060808587031215611f3057611f2f611913565b5b6000611f3e87828801611966565b9450506020611f4f8782880161199c565b9350506040611f608782880161199c565b9250506060611f718782880161199c565b91505092959194509250565b6000819050919050565b611f9081611f7d565b82525050565b6000602082019050611fab6000830184611f87565b92915050565b600080fd5b600080fd5b7f4e487b7100000000000000000000000000000000000000000000000000000000600052604160045260246000fd5b611ff382611a6d565b810181811067ffffffffffffffff8211171561201257612011611fbb565b5b80604052505050565b6000612025611909565b90506120318282611fea565b919050565b600067ffffffffffffffff82111561205157612050611fbb565b5b61205a82611a6d565b9050602081019050919050565b82818337600083830152505050565b600061208961208484612036565b61201b565b9050828152602081018484840111156120a5576120a4611fb6565b5b6120b0848285612067565b509392505050565b600082601f8301126120cd576120cc611fb1565b5b81356120dd848260208601612076565b91505092915050565b60008060008060808587031215612100576120ff611913565b5b600061210e87828801611966565b945050602061211f8782880161199c565b93505060406121308782880161199c565b925050606085013567ffffffffffffffff81111561215157612150611918565b5b61215d878288016120b8565b91505092959194509250565b600067ffffffffffffffff82111561218457612183611fbb565b5b61218d82611a6d565b9050602081019050919050565b60006121ad6121a884612169565b61201b565b9050828152602081018484840111156121c9576121c8611fb6565b5b6121d4848285612067565b509392505050565b600082601f8301126121f1576121f0611fb1565b5b813561220184826020860161219a565b91505092915050565b61221381611b75565b811461221e57600080fd5b50565b6000813590506122308161220a565b92915050565b6000806040838503121561224d5761224c611913565b5b600083013567ffffffffffffffff81111561226b5761226a611918565b5b612277858286016121dc565b925050602061228885828601612221565b9150509250929050565b600081519050919050565b600082825260208201905092915050565b6000819050602082019050919050565b600060c08301600083015184820360008601526122db8282611a7e565b91505060208301516122f06020860182611ab7565b50604083015184820360408601526123088282611b17565b915050606083015161231d6060860182611b85565b5060808301516123306080860182611b85565b5060a083015161234360a0860182611ba0565b508091505092915050565b600061235a83836122be565b905092915050565b6000602082019050919050565b600061237a82612292565b612384818561229d565b935083602082028501612396856122ae565b8060005b858110156123d257848403895281516123b3858261234e565b94506123be83612362565b925060208a0199505060018101905061239a565b50829750879550505050505092915050565b600060208201905081810360008301526123fe818461236f565b905092915050565b7f79657420746f20637265617465206120706f6c6c000000000000000000000000600082015250565b600061243c601483611e54565b915061244782612406565b602082019050919050565b6000602082019050818103600083015261246b8161242f565b9050919050565b7f4e487b7100000000000000000000000000000000000000000000000000000000600052600160045260246000fd5b7f6d6178696d756d206e6f206f662063616e64696461746520706572207365737360008201527f696f6e2072656769737465726564000000000000000000000000000000000000602082015250565b60006124fd602e83611e54565b9150612508826124a1565b604082019050919050565b6000602082019050818103600083015261252c816124f0565b9050919050565b7f4e487b7100000000000000000000000000000000000000000000000000000000600052601160045260246000fd5b600061256d82611b75565b915063ffffffff82141561258457612583612533565b5b600182019050919050565b60006020820190506125a46000830184611e07565b92915050565b7f4e6f20706f6c6c20637265617465640000000000000000000000000000000000600082015250565b60006125e0600f83611e54565b91506125eb826125aa565b602082019050919050565b6000602082019050818103600083015261260f816125d3565b9050919050565b7f4e487b7100000000000000000000000000000000000000000000000000000000600052603260045260246000fd5b60006126508261197b565b91507fffffffffffffffffffffffffffffffffffffffffffffffffffffffffffffffff82141561268357612682612533565b5b600182019050919050565b7f4e487b7100000000000000000000000000000000000000000000000000000000600052602260045260246000fd5b600060028204905060018216806126d557607f821691505b602082108114156126e9576126e861268e565b5b50919050565b60008160601b9050919050565b6000612707826126ef565b9050919050565b6000612719826126fc565b9050919050565b61273161272c8261193d565b61270e565b82525050565b600081905092915050565b7f6d6574617472616e73616374696f6e20566f74696e6720000000000000000000600082015250565b6000612778601783612737565b915061278382612742565b601782019050919050565b6000819050919050565b6127a96127a48261197b565b61278e565b82525050565b60006127bb8288612720565b6014820191506127ca8261276b565b91506127d68287612720565b6014820191506127e68286612798565b6020820191506127f68285612798565b6020820191506128068284612798565b6020820191508190509695505050505050565b7f54686973206164647265737320646f6573206e6f74206578697374206173206160008201527f2063616e64696461746500000000000000000000000000000000000000000000602082015250565b6000612875602a83611e54565b915061288082612819565b604082019050919050565b600060208201905081810360008301526128a481612868565b9050919050565b7f766f74696e672068617320656e64656400000000000000000000000000000000600082015250565b60006128e1601083611e54565b91506128ec826128ab565b602082019050919050565b60006020820190508181036000830152612910816128d4565b9050919050565b7f596f7520616c726561647920766f746564000000000000000000000000000000600082015250565b600061294d601183611e54565b915061295882612917565b602082019050919050565b6000602082019050818103600083015261297c81612940565b9050919050565b60006040820190506129986000830185611e07565b6129a56020830184611ead565b9392505050565b7f6e6f74207468652063686169726d616e00000000000000000000000000000000600082015250565b60006129e2601083611e54565b91506129ed826129ac565b602082019050919050565b60006020820190508181036000830152612a11816129d5565b9050919050565b6000612a2382611a1e565b612a2d8185612737565b9350612a3d818560208601611a3a565b80840191505092915050565b6000612a558284612a18565b915081905092915050565b600060ff82169050919050565b6000612a7882612a60565b9150612a8383612a60565b92508260ff03821115612a9957612a98612533565b5b828201905092915050565b7f19457468657265756d205369676e6564204d6573736167653a0a333200000000600082015250565b6000612ada601c83612737565b9150612ae582612aa4565b601c82019050919050565b6000819050919050565b612b0b612b0682611f7d565b612af0565b82525050565b6000612b1c82612acd565b9150612b288284612afa565b60208201915081905092915050565b612b4081612a60565b82525050565b6000608082019050612b5b6000830187611f87565b612b686020830186612b37565b612b756040830185611f87565b612b826060830184611f87565b9594505050505056fea264697066735822122091126cf50d6237e9623a9bc5b0b84a79a65597a246ee0c3625a6d9f4a10f4f3264736f6c634300080a0033",
					"opcodes": "PUSH1 0x80 PUSH1 0x40 MSTORE PUSH1 0x1 PUSH1 0x0 SSTORE CALLVALUE DUP1 ISZERO PUSH2 0x15 JUMPI PUSH1 0x0 DUP1 REVERT JUMPDEST POP PUSH2 0x2BC1 DUP1 PUSH2 0x25 PUSH1 0x0 CODECOPY PUSH1 0x0 RETURN INVALID PUSH1 0x80 PUSH1 0x40 MSTORE CALLVALUE DUP1 ISZERO PUSH2 0x10 JUMPI PUSH1 0x0 DUP1 REVERT JUMPDEST POP PUSH1 0x4 CALLDATASIZE LT PUSH2 0xB4 JUMPI PUSH1 0x0 CALLDATALOAD PUSH1 0xE0 SHR DUP1 PUSH4 0xAE928E3E GT PUSH2 0x71 JUMPI DUP1 PUSH4 0xAE928E3E EQ PUSH2 0x1C7 JUMPI DUP1 PUSH4 0xBFE2E25D EQ PUSH2 0x1FB JUMPI DUP1 PUSH4 0xC10D6CEC EQ PUSH2 0x22B JUMPI DUP1 PUSH4 0xC57003CC EQ PUSH2 0x247 JUMPI DUP1 PUSH4 0xE615F104 EQ PUSH2 0x263 JUMPI DUP1 PUSH4 0xF762F4C0 EQ PUSH2 0x297 JUMPI PUSH2 0xB4 JUMP JUMPDEST DUP1 PUSH4 0x49D1C8B EQ PUSH2 0xB9 JUMPI DUP1 PUSH4 0x278E2C90 EQ PUSH2 0xD5 JUMPI DUP1 PUSH4 0x66C5343B EQ PUSH2 0x105 JUMPI DUP1 PUSH4 0x67D407DF EQ PUSH2 0x135 JUMPI DUP1 PUSH4 0x8AC3C3C2 EQ PUSH2 0x165 JUMPI DUP1 PUSH4 0x8CCB59E8 EQ PUSH2 0x195 JUMPI JUMPDEST PUSH1 0x0 DUP1 REVERT JUMPDEST PUSH2 0xD3 PUSH1 0x4 DUP1 CALLDATASIZE SUB DUP2 ADD SWAP1 PUSH2 0xCE SWAP2 SWAP1 PUSH2 0x19B1 JUMP JUMPDEST PUSH2 0x2C7 JUMP JUMPDEST STOP JUMPDEST PUSH2 0xEF PUSH1 0x4 DUP1 CALLDATASIZE SUB DUP2 ADD SWAP1 PUSH2 0xEA SWAP2 SWAP1 PUSH2 0x19F1 JUMP JUMPDEST PUSH2 0x595 JUMP JUMPDEST PUSH1 0x40 MLOAD PUSH2 0xFC SWAP2 SWAP1 PUSH2 0x1C3F JUMP JUMPDEST PUSH1 0x40 MLOAD DUP1 SWAP2 SUB SWAP1 RETURN JUMPDEST PUSH2 0x11F PUSH1 0x4 DUP1 CALLDATASIZE SUB DUP2 ADD SWAP1 PUSH2 0x11A SWAP2 SWAP1 PUSH2 0x19F1 JUMP JUMPDEST PUSH2 0x5A2 JUMP JUMPDEST PUSH1 0x40 MLOAD PUSH2 0x12C SWAP2 SWAP1 PUSH2 0x1C70 JUMP JUMPDEST PUSH1 0x40 MLOAD DUP1 SWAP2 SUB SWAP1 RETURN JUMPDEST PUSH2 0x14F PUSH1 0x4 DUP1 CALLDATASIZE SUB DUP2 ADD SWAP1 PUSH2 0x14A SWAP2 SWAP1 PUSH2 0x1C8B JUMP JUMPDEST PUSH2 0x5DD JUMP JUMPDEST PUSH1 0x40 MLOAD PUSH2 0x15C SWAP2 SWAP1 PUSH2 0x1C70 JUMP JUMPDEST PUSH1 0x40 MLOAD DUP1 SWAP2 SUB SWAP1 RETURN JUMPDEST PUSH2 0x17F PUSH1 0x4 DUP1 CALLDATASIZE SUB DUP2 ADD SWAP1 PUSH2 0x17A SWAP2 SWAP1 PUSH2 0x19F1 JUMP JUMPDEST PUSH2 0x5F5 JUMP JUMPDEST PUSH1 0x40 MLOAD PUSH2 0x18C SWAP2 SWAP1 PUSH2 0x1D27 JUMP JUMPDEST PUSH1 0x40 MLOAD DUP1 SWAP2 SUB SWAP1 RETURN JUMPDEST PUSH2 0x1AF PUSH1 0x4 DUP1 CALLDATASIZE SUB DUP2 ADD SWAP1 PUSH2 0x1AA SWAP2 SWAP1 PUSH2 0x19F1 JUMP JUMPDEST PUSH2 0x69F JUMP JUMPDEST PUSH1 0x40 MLOAD PUSH2 0x1BE SWAP4 SWAP3 SWAP2 SWAP1 PUSH2 0x1E16 JUMP JUMPDEST PUSH1 0x40 MLOAD DUP1 SWAP2 SUB SWAP1 RETURN JUMPDEST PUSH2 0x1E1 PUSH1 0x4 DUP1 CALLDATASIZE SUB DUP2 ADD SWAP1 PUSH2 0x1DC SWAP2 SWAP1 PUSH2 0x19F1 JUMP JUMPDEST PUSH2 0x8EA JUMP JUMPDEST PUSH1 0x40 MLOAD PUSH2 0x1F2 SWAP6 SWAP5 SWAP4 SWAP3 SWAP2 SWAP1 PUSH2 0x1EBC JUMP JUMPDEST PUSH1 0x40 MLOAD DUP1 SWAP2 SUB SWAP1 RETURN JUMPDEST PUSH2 0x215 PUSH1 0x4 DUP1 CALLDATASIZE SUB DUP2 ADD SWAP1 PUSH2 0x210 SWAP2 SWAP1 PUSH2 0x1F16 JUMP JUMPDEST PUSH2 0xA05 JUMP JUMPDEST PUSH1 0x40 MLOAD PUSH2 0x222 SWAP2 SWAP1 PUSH2 0x1F96 JUMP JUMPDEST PUSH1 0x40 MLOAD DUP1 SWAP2 SUB SWAP1 RETURN JUMPDEST PUSH2 0x245 PUSH1 0x4 DUP1 CALLDATASIZE SUB DUP2 ADD SWAP1 PUSH2 0x240 SWAP2 SWAP1 PUSH2 0x20E6 JUMP JUMPDEST PUSH2 0xA40 JUMP JUMPDEST STOP JUMPDEST PUSH2 0x261 PUSH1 0x4 DUP1 CALLDATASIZE SUB DUP2 ADD SWAP1 PUSH2 0x25C SWAP2 SWAP1 PUSH2 0x19F1 JUMP JUMPDEST PUSH2 0xD44 JUMP JUMPDEST STOP JUMPDEST PUSH2 0x27D PUSH1 0x4 DUP1 CALLDATASIZE SUB DUP2 ADD SWAP1 PUSH2 0x278 SWAP2 SWAP1 PUSH2 0x19F1 JUMP JUMPDEST PUSH2 0xE5F JUMP JUMPDEST PUSH1 0x40 MLOAD PUSH2 0x28E SWAP6 SWAP5 SWAP4 SWAP3 SWAP2 SWAP1 PUSH2 0x1EBC JUMP JUMPDEST PUSH1 0x40 MLOAD DUP1 SWAP2 SUB SWAP1 RETURN JUMPDEST PUSH2 0x2B1 PUSH1 0x4 DUP1 CALLDATASIZE SUB DUP2 ADD SWAP1 PUSH2 0x2AC SWAP2 SWAP1 PUSH2 0x2236 JUMP JUMPDEST PUSH2 0xF6A JUMP JUMPDEST PUSH1 0x40 MLOAD PUSH2 0x2BE SWAP2 SWAP1 PUSH2 0x23E4 JUMP JUMPDEST PUSH1 0x40 MLOAD DUP1 SWAP2 SUB SWAP1 RETURN JUMPDEST PUSH1 0x0 PUSH1 0x2 PUSH1 0x0 DUP4 DUP2 MSTORE PUSH1 0x20 ADD SWAP1 DUP2 MSTORE PUSH1 0x20 ADD PUSH1 0x0 KECCAK256 SWAP1 POP PUSH1 0x0 PUSH20 0xFFFFFFFFFFFFFFFFFFFFFFFFFFFFFFFFFFFFFFFF AND DUP2 PUSH1 0x1 ADD PUSH1 0x0 SWAP1 SLOAD SWAP1 PUSH2 0x100 EXP SWAP1 DIV PUSH20 0xFFFFFFFFFFFFFFFFFFFFFFFFFFFFFFFFFFFFFFFF AND PUSH20 0xFFFFFFFFFFFFFFFFFFFFFFFFFFFFFFFFFFFFFFFF AND EQ ISZERO PUSH2 0x372 JUMPI PUSH1 0x40 MLOAD PUSH32 0x8C379A000000000000000000000000000000000000000000000000000000000 DUP2 MSTORE PUSH1 0x4 ADD PUSH2 0x369 SWAP1 PUSH2 0x2452 JUMP JUMPDEST PUSH1 0x40 MLOAD DUP1 SWAP2 SUB SWAP1 REVERT JUMPDEST CALLER PUSH20 0xFFFFFFFFFFFFFFFFFFFFFFFFFFFFFFFFFFFFFFFF AND DUP2 PUSH1 0x1 ADD PUSH1 0x0 SWAP1 SLOAD SWAP1 PUSH2 0x100 EXP SWAP1 DIV PUSH20 0xFFFFFFFFFFFFFFFFFFFFFFFFFFFFFFFFFFFFFFFF AND PUSH20 0xFFFFFFFFFFFFFFFFFFFFFFFFFFFFFFFFFFFFFFFF AND EQ PUSH2 0x3D2 JUMPI PUSH2 0x3D1 PUSH2 0x2472 JUMP JUMPDEST JUMPDEST DUP1 PUSH1 0x3 ADD PUSH1 0x0 SWAP1 SLOAD SWAP1 PUSH2 0x100 EXP SWAP1 DIV PUSH4 0xFFFFFFFF AND PUSH4 0xFFFFFFFF AND DUP2 PUSH1 0x3 ADD PUSH1 0x4 SWAP1 SLOAD SWAP1 PUSH2 0x100 EXP SWAP1 DIV PUSH4 0xFFFFFFFF AND PUSH4 0xFFFFFFFF AND LT PUSH2 0x448 JUMPI PUSH1 0x40 MLOAD PUSH32 0x8C379A000000000000000000000000000000000000000000000000000000000 DUP2 MSTORE PUSH1 0x4 ADD PUSH2 0x43F SWAP1 PUSH2 0x2513 JUMP JUMPDEST PUSH1 0x40 MLOAD DUP1 SWAP2 SUB SWAP1 REVERT JUMPDEST PUSH1 0x1 PUSH1 0x4 PUSH1 0x0 DUP5 DUP2 MSTORE PUSH1 0x20 ADD SWAP1 DUP2 MSTORE PUSH1 0x20 ADD PUSH1 0x0 KECCAK256 PUSH1 0x0 DUP6 PUSH20 0xFFFFFFFFFFFFFFFFFFFFFFFFFFFFFFFFFFFFFFFF AND PUSH20 0xFFFFFFFFFFFFFFFFFFFFFFFFFFFFFFFFFFFFFFFF AND DUP2 MSTORE PUSH1 0x20 ADD SWAP1 DUP2 MSTORE PUSH1 0x20 ADD PUSH1 0x0 KECCAK256 PUSH1 0x0 PUSH2 0x100 EXP DUP2 SLOAD DUP2 PUSH1 0xFF MUL NOT AND SWAP1 DUP4 ISZERO ISZERO MUL OR SWAP1 SSTORE POP DUP1 PUSH1 0x2 ADD DUP4 SWAP1 DUP1 PUSH1 0x1 DUP2 SLOAD ADD DUP1 DUP3 SSTORE DUP1 SWAP2 POP POP PUSH1 0x1 SWAP1 SUB SWAP1 PUSH1 0x0 MSTORE PUSH1 0x20 PUSH1 0x0 KECCAK256 ADD PUSH1 0x0 SWAP1 SWAP2 SWAP1 SWAP2 SWAP1 SWAP2 PUSH2 0x100 EXP DUP2 SLOAD DUP2 PUSH20 0xFFFFFFFFFFFFFFFFFFFFFFFFFFFFFFFFFFFFFFFF MUL NOT AND SWAP1 DUP4 PUSH20 0xFFFFFFFFFFFFFFFFFFFFFFFFFFFFFFFFFFFFFFFF AND MUL OR SWAP1 SSTORE POP DUP1 PUSH1 0x3 ADD PUSH1 0x4 DUP2 DUP2 SWAP1 SLOAD SWAP1 PUSH2 0x100 EXP SWAP1 DIV PUSH4 0xFFFFFFFF AND DUP1 SWAP3 SWAP2 SWAP1 PUSH2 0x53A SWAP1 PUSH2 0x2562 JUMP JUMPDEST SWAP2 SWAP1 PUSH2 0x100 EXP DUP2 SLOAD DUP2 PUSH4 0xFFFFFFFF MUL NOT AND SWAP1 DUP4 PUSH4 0xFFFFFFFF AND MUL OR SWAP1 SSTORE POP POP PUSH32 0xC19C59AA93348E8FC54764BC642ECA975E2639F44CC683EF8F027E1529CBDA32 DUP4 PUSH1 0x40 MLOAD PUSH2 0x588 SWAP2 SWAP1 PUSH2 0x258F JUMP JUMPDEST PUSH1 0x40 MLOAD DUP1 SWAP2 SUB SWAP1 LOG1 POP POP POP JUMP JUMPDEST PUSH2 0x59D PUSH2 0x172D JUMP JUMPDEST SWAP2 SWAP1 POP JUMP JUMPDEST PUSH1 0x0 DUP1 PUSH1 0x2 PUSH1 0x0 DUP5 DUP2 MSTORE PUSH1 0x20 ADD SWAP1 DUP2 MSTORE PUSH1 0x20 ADD PUSH1 0x0 KECCAK256 SWAP1 POP DUP1 PUSH1 0x3 ADD PUSH1 0x4 SWAP1 SLOAD SWAP1 PUSH2 0x100 EXP SWAP1 DIV PUSH4 0xFFFFFFFF AND PUSH4 0xFFFFFFFF AND SWAP2 POP POP SWAP2 SWAP1 POP JUMP JUMPDEST PUSH1 0x3 PUSH1 0x20 MSTORE DUP1 PUSH1 0x0 MSTORE PUSH1 0x40 PUSH1 0x0 KECCAK256 PUSH1 0x0 SWAP2 POP SWAP1 POP SLOAD DUP2 JUMP JUMPDEST PUSH1 0x60 PUSH1 0x0 PUSH1 0x2 PUSH1 0x0 DUP5 DUP2 MSTORE PUSH1 0x20 ADD SWAP1 DUP2 MSTORE PUSH1 0x20 ADD PUSH1 0x0 KECCAK256 SWAP1 POP DUP1 PUSH1 0x2 ADD DUP1 SLOAD DUP1 PUSH1 0x20 MUL PUSH1 0x20 ADD PUSH1 0x40 MLOAD SWAP1 DUP2 ADD PUSH1 0x40 MSTORE DUP1 SWAP3 SWAP2 SWAP1 DUP2 DUP2 MSTORE PUSH1 0x20 ADD DUP3 DUP1 SLOAD DUP1 ISZERO PUSH2 0x692 JUMPI PUSH1 0x20 MUL DUP3 ADD SWAP2 SWAP1 PUSH1 0x0 MSTORE PUSH1 0x20 PUSH1 0x0 KECCAK256 SWAP1 JUMPDEST DUP2 PUSH1 0x0 SWAP1 SLOAD SWAP1 PUSH2 0x100 EXP SWAP1 DIV PUSH20 0xFFFFFFFFFFFFFFFFFFFFFFFFFFFFFFFFFFFFFFFF AND PUSH20 0xFFFFFFFFFFFFFFFFFFFFFFFFFFFFFFFFFFFFFFFF AND DUP2 MSTORE PUSH1 0x20 ADD SWAP1 PUSH1 0x1 ADD SWAP1 DUP1 DUP4 GT PUSH2 0x648 JUMPI JUMPDEST POP POP POP POP POP SWAP2 POP POP SWAP2 SWAP1 POP JUMP JUMPDEST PUSH1 0x60 PUSH1 0x0 DUP1 PUSH1 0x0 PUSH1 0x2 PUSH1 0x0 DUP7 DUP2 MSTORE PUSH1 0x20 ADD SWAP1 DUP2 MSTORE PUSH1 0x20 ADD PUSH1 0x0 KECCAK256 SWAP1 POP PUSH1 0x0 PUSH20 0xFFFFFFFFFFFFFFFFFFFFFFFFFFFFFFFFFFFFFFFF AND DUP2 PUSH1 0x1 ADD PUSH1 0x0 SWAP1 SLOAD SWAP1 PUSH2 0x100 EXP SWAP1 DIV PUSH20 0xFFFFFFFFFFFFFFFFFFFFFFFFFFFFFFFFFFFFFFFF AND PUSH20 0xFFFFFFFFFFFFFFFFFFFFFFFFFFFFFFFFFFFFFFFF AND EQ ISZERO PUSH2 0x74F JUMPI PUSH1 0x40 MLOAD PUSH32 0x8C379A000000000000000000000000000000000000000000000000000000000 DUP2 MSTORE PUSH1 0x4 ADD PUSH2 0x746 SWAP1 PUSH2 0x25F6 JUMP JUMPDEST PUSH1 0x40 MLOAD DUP1 SWAP2 SUB SWAP1 REVERT JUMPDEST DUP1 PUSH1 0x2 ADD DUP1 SLOAD SWAP1 POP PUSH8 0xFFFFFFFFFFFFFFFF DUP2 GT ISZERO PUSH2 0x770 JUMPI PUSH2 0x76F PUSH2 0x1FBB JUMP JUMPDEST JUMPDEST PUSH1 0x40 MLOAD SWAP1 DUP1 DUP3 MSTORE DUP1 PUSH1 0x20 MUL PUSH1 0x20 ADD DUP3 ADD PUSH1 0x40 MSTORE DUP1 ISZERO PUSH2 0x79E JUMPI DUP2 PUSH1 0x20 ADD PUSH1 0x20 DUP3 MUL DUP1 CALLDATASIZE DUP4 CALLDATACOPY DUP1 DUP3 ADD SWAP2 POP POP SWAP1 POP JUMPDEST POP SWAP4 POP PUSH1 0x0 DUP1 PUSH1 0x0 JUMPDEST DUP4 PUSH1 0x2 ADD DUP1 SLOAD SWAP1 POP DUP2 GT PUSH2 0x8D6 JUMPI PUSH1 0x0 PUSH2 0x7C1 DUP10 DUP4 PUSH2 0x1457 JUMP JUMPDEST SWAP1 POP DUP4 DUP2 GT ISZERO PUSH2 0x812 JUMPI DUP1 SWAP4 POP DUP5 PUSH1 0x2 ADD DUP3 DUP2 SLOAD DUP2 LT PUSH2 0x7E4 JUMPI PUSH2 0x7E3 PUSH2 0x2616 JUMP JUMPDEST JUMPDEST SWAP1 PUSH1 0x0 MSTORE PUSH1 0x20 PUSH1 0x0 KECCAK256 ADD PUSH1 0x0 SWAP1 SLOAD SWAP1 PUSH2 0x100 EXP SWAP1 DIV PUSH20 0xFFFFFFFFFFFFFFFFFFFFFFFFFFFFFFFFFFFFFFFF AND SWAP3 POP JUMPDEST PUSH1 0x5 PUSH1 0x0 DUP11 DUP2 MSTORE PUSH1 0x20 ADD SWAP1 DUP2 MSTORE PUSH1 0x20 ADD PUSH1 0x0 KECCAK256 PUSH1 0x0 DUP7 PUSH1 0x2 ADD DUP5 DUP2 SLOAD DUP2 LT PUSH2 0x83D JUMPI PUSH2 0x83C PUSH2 0x2616 JUMP JUMPDEST JUMPDEST SWAP1 PUSH1 0x0 MSTORE PUSH1 0x20 PUSH1 0x0 KECCAK256 ADD PUSH1 0x0 SWAP1 SLOAD SWAP1 PUSH2 0x100 EXP SWAP1 DIV PUSH20 0xFFFFFFFFFFFFFFFFFFFFFFFFFFFFFFFFFFFFFFFF AND PUSH20 0xFFFFFFFFFFFFFFFFFFFFFFFFFFFFFFFFFFFFFFFF AND PUSH20 0xFFFFFFFFFFFFFFFFFFFFFFFFFFFFFFFFFFFFFFFF AND DUP2 MSTORE PUSH1 0x20 ADD SWAP1 DUP2 MSTORE PUSH1 0x20 ADD PUSH1 0x0 KECCAK256 SLOAD DUP9 DUP4 DUP2 MLOAD DUP2 LT PUSH2 0x8B6 JUMPI PUSH2 0x8B5 PUSH2 0x2616 JUMP JUMPDEST JUMPDEST PUSH1 0x20 MUL PUSH1 0x20 ADD ADD DUP2 DUP2 MSTORE POP POP POP DUP1 DUP1 PUSH2 0x8CE SWAP1 PUSH2 0x2645 JUMP JUMPDEST SWAP2 POP POP PUSH2 0x7A7 JUMP JUMPDEST POP DUP6 DUP2 DUP4 SWAP6 POP SWAP6 POP SWAP6 POP POP POP POP SWAP2 SWAP4 SWAP1 SWAP3 POP JUMP JUMPDEST PUSH1 0x1 DUP2 DUP2 SLOAD DUP2 LT PUSH2 0x8FA JUMPI PUSH1 0x0 DUP1 REVERT JUMPDEST SWAP1 PUSH1 0x0 MSTORE PUSH1 0x20 PUSH1 0x0 KECCAK256 SWAP1 PUSH1 0x4 MUL ADD PUSH1 0x0 SWAP2 POP SWAP1 POP DUP1 PUSH1 0x0 ADD DUP1 SLOAD PUSH2 0x91D SWAP1 PUSH2 0x26BD JUMP JUMPDEST DUP1 PUSH1 0x1F ADD PUSH1 0x20 DUP1 SWAP2 DIV MUL PUSH1 0x20 ADD PUSH1 0x40 MLOAD SWAP1 DUP2 ADD PUSH1 0x40 MSTORE DUP1 SWAP3 SWAP2 SWAP1 DUP2 DUP2 MSTORE PUSH1 0x20 ADD DUP3 DUP1 SLOAD PUSH2 0x949 SWAP1 PUSH2 0x26BD JUMP JUMPDEST DUP1 ISZERO PUSH2 0x996 JUMPI DUP1 PUSH1 0x1F LT PUSH2 0x96B JUMPI PUSH2 0x100 DUP1 DUP4 SLOAD DIV MUL DUP4 MSTORE SWAP2 PUSH1 0x20 ADD SWAP2 PUSH2 0x996 JUMP JUMPDEST DUP3 ADD SWAP2 SWAP1 PUSH1 0x0 MSTORE PUSH1 0x20 PUSH1 0x0 KECCAK256 SWAP1 JUMPDEST DUP2 SLOAD DUP2 MSTORE SWAP1 PUSH1 0x1 ADD SWAP1 PUSH1 0x20 ADD DUP1 DUP4 GT PUSH2 0x979 JUMPI DUP3 SWAP1 SUB PUSH1 0x1F AND DUP3 ADD SWAP2 JUMPDEST POP POP POP POP POP SWAP1 DUP1 PUSH1 0x1 ADD PUSH1 0x0 SWAP1 SLOAD SWAP1 PUSH2 0x100 EXP SWAP1 DIV PUSH20 0xFFFFFFFFFFFFFFFFFFFFFFFFFFFFFFFFFFFFFFFF AND SWAP1 DUP1 PUSH1 0x3 ADD PUSH1 0x0 SWAP1 SLOAD SWAP1 PUSH2 0x100 EXP SWAP1 DIV PUSH4 0xFFFFFFFF AND SWAP1 DUP1 PUSH1 0x3 ADD PUSH1 0x4 SWAP1 SLOAD SWAP1 PUSH2 0x100 EXP SWAP1 DIV PUSH4 0xFFFFFFFF AND SWAP1 DUP1 PUSH1 0x3 ADD PUSH1 0x8 SWAP1 SLOAD SWAP1 PUSH2 0x100 EXP SWAP1 DIV PUSH1 0xFF AND SWAP1 POP DUP6 JUMP JUMPDEST PUSH1 0x0 ADDRESS DUP6 DUP6 DUP6 DUP6 PUSH1 0x40 MLOAD PUSH1 0x20 ADD PUSH2 0xA20 SWAP6 SWAP5 SWAP4 SWAP3 SWAP2 SWAP1 PUSH2 0x27AF JUMP JUMPDEST PUSH1 0x40 MLOAD PUSH1 0x20 DUP2 DUP4 SUB SUB DUP2 MSTORE SWAP1 PUSH1 0x40 MSTORE DUP1 MLOAD SWAP1 PUSH1 0x20 ADD KECCAK256 SWAP1 POP SWAP5 SWAP4 POP POP POP POP JUMP JUMPDEST DUP4 DUP4 PUSH1 0x1 ISZERO ISZERO PUSH1 0x4 PUSH1 0x0 DUP4 DUP2 MSTORE PUSH1 0x20 ADD SWAP1 DUP2 MSTORE PUSH1 0x20 ADD PUSH1 0x0 KECCAK256 PUSH1 0x0 DUP5 PUSH20 0xFFFFFFFFFFFFFFFFFFFFFFFFFFFFFFFFFFFFFFFF AND PUSH20 0xFFFFFFFFFFFFFFFFFFFFFFFFFFFFFFFFFFFFFFFF AND DUP2 MSTORE PUSH1 0x20 ADD SWAP1 DUP2 MSTORE PUSH1 0x20 ADD PUSH1 0x0 KECCAK256 PUSH1 0x0 SWAP1 SLOAD SWAP1 PUSH2 0x100 EXP SWAP1 DIV PUSH1 0xFF AND ISZERO ISZERO EQ PUSH2 0xAE6 JUMPI PUSH1 0x40 MLOAD PUSH32 0x8C379A000000000000000000000000000000000000000000000000000000000 DUP2 MSTORE PUSH1 0x4 ADD PUSH2 0xADD SWAP1 PUSH2 0x288B JUMP JUMPDEST PUSH1 0x40 MLOAD DUP1 SWAP2 SUB SWAP1 REVERT JUMPDEST DUP5 PUSH1 0x0 PUSH1 0x2 PUSH1 0x0 DUP4 DUP2 MSTORE PUSH1 0x20 ADD SWAP1 DUP2 MSTORE PUSH1 0x20 ADD PUSH1 0x0 KECCAK256 SWAP1 POP PUSH1 0x1 ISZERO ISZERO DUP2 PUSH1 0x3 ADD PUSH1 0x8 SWAP1 SLOAD SWAP1 PUSH2 0x100 EXP SWAP1 DIV PUSH1 0xFF AND ISZERO ISZERO EQ PUSH2 0xB56 JUMPI PUSH1 0x40 MLOAD PUSH32 0x8C379A000000000000000000000000000000000000000000000000000000000 DUP2 MSTORE PUSH1 0x4 ADD PUSH2 0xB4D SWAP1 PUSH2 0x28F7 JUMP JUMPDEST PUSH1 0x40 MLOAD DUP1 SWAP2 SUB SWAP1 REVERT JUMPDEST PUSH1 0x0 PUSH2 0xB64 DUP10 DUP10 DUP10 TIMESTAMP PUSH2 0xA05 JUMP JUMPDEST SWAP1 POP PUSH1 0x0 PUSH2 0xB72 DUP3 DUP9 PUSH2 0x1509 JUMP JUMPDEST SWAP1 POP PUSH1 0x0 PUSH20 0xFFFFFFFFFFFFFFFFFFFFFFFFFFFFFFFFFFFFFFFF AND DUP2 PUSH20 0xFFFFFFFFFFFFFFFFFFFFFFFFFFFFFFFFFFFFFFFF AND EQ ISZERO PUSH2 0xBAE JUMPI PUSH1 0x0 DUP1 REVERT JUMPDEST PUSH1 0x3 PUSH1 0x0 DUP3 PUSH20 0xFFFFFFFFFFFFFFFFFFFFFFFFFFFFFFFFFFFFFFFF AND PUSH20 0xFFFFFFFFFFFFFFFFFFFFFFFFFFFFFFFFFFFFFFFF AND DUP2 MSTORE PUSH1 0x20 ADD SWAP1 DUP2 MSTORE PUSH1 0x20 ADD PUSH1 0x0 KECCAK256 SLOAD DUP9 EQ PUSH2 0xBF9 JUMPI PUSH1 0x0 DUP1 REVERT JUMPDEST PUSH1 0x3 PUSH1 0x0 DUP3 PUSH20 0xFFFFFFFFFFFFFFFFFFFFFFFFFFFFFFFFFFFFFFFF AND PUSH20 0xFFFFFFFFFFFFFFFFFFFFFFFFFFFFFFFFFFFFFFFF AND DUP2 MSTORE PUSH1 0x20 ADD SWAP1 DUP2 MSTORE PUSH1 0x20 ADD PUSH1 0x0 KECCAK256 PUSH1 0x0 DUP2 SLOAD DUP1 SWAP3 SWAP2 SWAP1 PUSH2 0xC49 SWAP1 PUSH2 0x2645 JUMP JUMPDEST SWAP2 SWAP1 POP SSTORE POP PUSH1 0x0 ISZERO ISZERO PUSH1 0x6 PUSH1 0x0 DUP12 DUP2 MSTORE PUSH1 0x20 ADD SWAP1 DUP2 MSTORE PUSH1 0x20 ADD PUSH1 0x0 KECCAK256 PUSH1 0x0 DUP4 PUSH20 0xFFFFFFFFFFFFFFFFFFFFFFFFFFFFFFFFFFFFFFFF AND PUSH20 0xFFFFFFFFFFFFFFFFFFFFFFFFFFFFFFFFFFFFFFFF AND DUP2 MSTORE PUSH1 0x20 ADD SWAP1 DUP2 MSTORE PUSH1 0x20 ADD PUSH1 0x0 KECCAK256 PUSH1 0x0 SWAP1 SLOAD SWAP1 PUSH2 0x100 EXP SWAP1 DIV PUSH1 0xFF AND ISZERO ISZERO EQ PUSH2 0xCF2 JUMPI PUSH1 0x40 MLOAD PUSH32 0x8C379A000000000000000000000000000000000000000000000000000000000 DUP2 MSTORE PUSH1 0x4 ADD PUSH2 0xCE9 SWAP1 PUSH2 0x2963 JUMP JUMPDEST PUSH1 0x40 MLOAD DUP1 SWAP2 SUB SWAP1 REVERT JUMPDEST PUSH2 0xCFD DUP11 DUP11 DUP4 PUSH2 0x1602 JUMP JUMPDEST POP PUSH32 0xF3F16A15F074B71C5138107DFC7C63B80524D5411CB967CAA97D8D9F12B2FD6B DUP11 PUSH1 0x1 PUSH1 0x40 MLOAD PUSH2 0xD30 SWAP3 SWAP2 SWAP1 PUSH2 0x2983 JUMP JUMPDEST PUSH1 0x40 MLOAD DUP1 SWAP2 SUB SWAP1 LOG1 POP POP POP POP POP POP POP POP POP POP JUMP JUMPDEST PUSH1 0x0 PUSH1 0x2 PUSH1 0x0 DUP4 DUP2 MSTORE PUSH1 0x20 ADD SWAP1 DUP2 MSTORE PUSH1 0x20 ADD PUSH1 0x0 KECCAK256 SWAP1 POP CALLER PUSH20 0xFFFFFFFFFFFFFFFFFFFFFFFFFFFFFFFFFFFFFFFF AND DUP2 PUSH1 0x1 ADD PUSH1 0x0 SWAP1 SLOAD SWAP1 PUSH2 0x100 EXP SWAP1 DIV PUSH20 0xFFFFFFFFFFFFFFFFFFFFFFFFFFFFFFFFFFFFFFFF AND PUSH20 0xFFFFFFFFFFFFFFFFFFFFFFFFFFFFFFFFFFFFFFFF AND EQ PUSH2 0xDED JUMPI PUSH1 0x40 MLOAD PUSH32 0x8C379A000000000000000000000000000000000000000000000000000000000 DUP2 MSTORE PUSH1 0x4 ADD PUSH2 0xDE4 SWAP1 PUSH2 0x29F8 JUMP JUMPDEST PUSH1 0x40 MLOAD DUP1 SWAP2 SUB SWAP1 REVERT JUMPDEST DUP1 PUSH1 0x3 ADD PUSH1 0x8 SWAP1 SLOAD SWAP1 PUSH2 0x100 EXP SWAP1 DIV PUSH1 0xFF AND ISZERO DUP2 PUSH1 0x3 ADD PUSH1 0x8 PUSH2 0x100 EXP DUP2 SLOAD DUP2 PUSH1 0xFF MUL NOT AND SWAP1 DUP4 ISZERO ISZERO MUL OR SWAP1 SSTORE POP DUP1 PUSH1 0x3 ADD PUSH1 0x8 SWAP1 SLOAD SWAP1 PUSH2 0x100 EXP SWAP1 DIV PUSH1 0xFF AND ISZERO ISZERO PUSH32 0x7B224DB641892626DCA6975B376F464E9AC52CCFA180436175170C009B94DCD7 PUSH1 0x40 MLOAD PUSH1 0x40 MLOAD DUP1 SWAP2 SUB SWAP1 LOG2 POP POP JUMP JUMPDEST PUSH1 0x2 PUSH1 0x20 MSTORE DUP1 PUSH1 0x0 MSTORE PUSH1 0x40 PUSH1 0x0 KECCAK256 PUSH1 0x0 SWAP2 POP SWAP1 POP DUP1 PUSH1 0x0 ADD DUP1 SLOAD PUSH2 0xE82 SWAP1 PUSH2 0x26BD JUMP JUMPDEST DUP1 PUSH1 0x1F ADD PUSH1 0x20 DUP1 SWAP2 DIV MUL PUSH1 0x20 ADD PUSH1 0x40 MLOAD SWAP1 DUP2 ADD PUSH1 0x40 MSTORE DUP1 SWAP3 SWAP2 SWAP1 DUP2 DUP2 MSTORE PUSH1 0x20 ADD DUP3 DUP1 SLOAD PUSH2 0xEAE SWAP1 PUSH2 0x26BD JUMP JUMPDEST DUP1 ISZERO PUSH2 0xEFB JUMPI DUP1 PUSH1 0x1F LT PUSH2 0xED0 JUMPI PUSH2 0x100 DUP1 DUP4 SLOAD DIV MUL DUP4 MSTORE SWAP2 PUSH1 0x20 ADD SWAP2 PUSH2 0xEFB JUMP JUMPDEST DUP3 ADD SWAP2 SWAP1 PUSH1 0x0 MSTORE PUSH1 0x20 PUSH1 0x0 KECCAK256 SWAP1 JUMPDEST DUP2 SLOAD DUP2 MSTORE SWAP1 PUSH1 0x1 ADD SWAP1 PUSH1 0x20 ADD DUP1 DUP4 GT PUSH2 0xEDE JUMPI DUP3 SWAP1 SUB PUSH1 0x1F AND DUP3 ADD SWAP2 JUMPDEST POP POP POP POP POP SWAP1 DUP1 PUSH1 0x1 ADD PUSH1 0x0 SWAP1 SLOAD SWAP1 PUSH2 0x100 EXP SWAP1 DIV PUSH20 0xFFFFFFFFFFFFFFFFFFFFFFFFFFFFFFFFFFFFFFFF AND SWAP1 DUP1 PUSH1 0x3 ADD PUSH1 0x0 SWAP1 SLOAD SWAP1 PUSH2 0x100 EXP SWAP1 DIV PUSH4 0xFFFFFFFF AND SWAP1 DUP1 PUSH1 0x3 ADD PUSH1 0x4 SWAP1 SLOAD SWAP1 PUSH2 0x100 EXP SWAP1 DIV PUSH4 0xFFFFFFFF AND SWAP1 DUP1 PUSH1 0x3 ADD PUSH1 0x8 SWAP1 SLOAD SWAP1 PUSH2 0x100 EXP SWAP1 DIV PUSH1 0xFF AND SWAP1 POP DUP6 JUMP JUMPDEST PUSH1 0x60 PUSH1 0x0 PUSH1 0x2 PUSH1 0x0 DUP1 SLOAD DUP2 MSTORE PUSH1 0x20 ADD SWAP1 DUP2 MSTORE PUSH1 0x20 ADD PUSH1 0x0 KECCAK256 SWAP1 POP DUP4 DUP2 PUSH1 0x0 ADD SWAP1 DUP1 MLOAD SWAP1 PUSH1 0x20 ADD SWAP1 PUSH2 0xF9C SWAP3 SWAP2 SWAP1 PUSH2 0x1787 JUMP JUMPDEST POP CALLER DUP2 PUSH1 0x1 ADD PUSH1 0x0 PUSH2 0x100 EXP DUP2 SLOAD DUP2 PUSH20 0xFFFFFFFFFFFFFFFFFFFFFFFFFFFFFFFFFFFFFFFF MUL NOT AND SWAP1 DUP4 PUSH20 0xFFFFFFFFFFFFFFFFFFFFFFFFFFFFFFFFFFFFFFFF AND MUL OR SWAP1 SSTORE POP DUP3 DUP2 PUSH1 0x3 ADD PUSH1 0x0 PUSH2 0x100 EXP DUP2 SLOAD DUP2 PUSH4 0xFFFFFFFF MUL NOT AND SWAP1 DUP4 PUSH4 0xFFFFFFFF AND MUL OR SWAP1 SSTORE POP PUSH1 0x1 DUP2 SWAP1 DUP1 PUSH1 0x1 DUP2 SLOAD ADD DUP1 DUP3 SSTORE DUP1 SWAP2 POP POP PUSH1 0x1 SWAP1 SUB SWAP1 PUSH1 0x0 MSTORE PUSH1 0x20 PUSH1 0x0 KECCAK256 SWAP1 PUSH1 0x4 MUL ADD PUSH1 0x0 SWAP1 SWAP2 SWAP1 SWAP2 SWAP1 SWAP2 POP PUSH1 0x0 DUP3 ADD DUP2 PUSH1 0x0 ADD SWAP1 DUP1 SLOAD PUSH2 0x1043 SWAP1 PUSH2 0x26BD JUMP JUMPDEST PUSH2 0x104E SWAP3 SWAP2 SWAP1 PUSH2 0x180D JUMP JUMPDEST POP PUSH1 0x1 DUP3 ADD PUSH1 0x0 SWAP1 SLOAD SWAP1 PUSH2 0x100 EXP SWAP1 DIV PUSH20 0xFFFFFFFFFFFFFFFFFFFFFFFFFFFFFFFFFFFFFFFF AND DUP2 PUSH1 0x1 ADD PUSH1 0x0 PUSH2 0x100 EXP DUP2 SLOAD DUP2 PUSH20 0xFFFFFFFFFFFFFFFFFFFFFFFFFFFFFFFFFFFFFFFF MUL NOT AND SWAP1 DUP4 PUSH20 0xFFFFFFFFFFFFFFFFFFFFFFFFFFFFFFFFFFFFFFFF AND MUL OR SWAP1 SSTORE POP PUSH1 0x2 DUP3 ADD DUP2 PUSH1 0x2 ADD SWAP1 DUP1 SLOAD PUSH2 0x10CC SWAP3 SWAP2 SWAP1 PUSH2 0x189A JUMP JUMPDEST POP PUSH1 0x3 DUP3 ADD PUSH1 0x0 SWAP1 SLOAD SWAP1 PUSH2 0x100 EXP SWAP1 DIV PUSH4 0xFFFFFFFF AND DUP2 PUSH1 0x3 ADD PUSH1 0x0 PUSH2 0x100 EXP DUP2 SLOAD DUP2 PUSH4 0xFFFFFFFF MUL NOT AND SWAP1 DUP4 PUSH4 0xFFFFFFFF AND MUL OR SWAP1 SSTORE POP PUSH1 0x3 DUP3 ADD PUSH1 0x4 SWAP1 SLOAD SWAP1 PUSH2 0x100 EXP SWAP1 DIV PUSH4 0xFFFFFFFF AND DUP2 PUSH1 0x3 ADD PUSH1 0x4 PUSH2 0x100 EXP DUP2 SLOAD DUP2 PUSH4 0xFFFFFFFF MUL NOT AND SWAP1 DUP4 PUSH4 0xFFFFFFFF AND MUL OR SWAP1 SSTORE POP PUSH1 0x3 DUP3 ADD PUSH1 0x8 SWAP1 SLOAD SWAP1 PUSH2 0x100 EXP SWAP1 DIV PUSH1 0xFF AND DUP2 PUSH1 0x3 ADD PUSH1 0x8 PUSH2 0x100 EXP DUP2 SLOAD DUP2 PUSH1 0xFF MUL NOT AND SWAP1 DUP4 ISZERO ISZERO MUL OR SWAP1 SSTORE POP POP POP PUSH1 0x0 DUP1 DUP2 SLOAD DUP1 SWAP3 SWAP2 SWAP1 PUSH2 0x117C SWAP1 PUSH2 0x2645 JUMP JUMPDEST SWAP2 SWAP1 POP SSTORE POP DUP1 PUSH1 0x1 ADD PUSH1 0x0 SWAP1 SLOAD SWAP1 PUSH2 0x100 EXP SWAP1 DIV PUSH20 0xFFFFFFFFFFFFFFFFFFFFFFFFFFFFFFFFFFFFFFFF AND PUSH20 0xFFFFFFFFFFFFFFFFFFFFFFFFFFFFFFFFFFFFFFFF AND DUP2 PUSH1 0x3 ADD PUSH1 0x0 SWAP1 SLOAD SWAP1 PUSH2 0x100 EXP SWAP1 DIV PUSH4 0xFFFFFFFF AND PUSH4 0xFFFFFFFF AND DUP6 PUSH1 0x40 MLOAD PUSH2 0x11E5 SWAP2 SWAP1 PUSH2 0x2A49 JUMP JUMPDEST PUSH1 0x40 MLOAD DUP1 SWAP2 SUB SWAP1 KECCAK256 PUSH32 0x4B35E5CF01446AA899A8D21082EBF23B7497D38F2466AD49836BD1006A8D059E PUSH1 0x40 MLOAD PUSH1 0x40 MLOAD DUP1 SWAP2 SUB SWAP1 LOG4 PUSH1 0x1 DUP1 SLOAD DUP1 PUSH1 0x20 MUL PUSH1 0x20 ADD PUSH1 0x40 MLOAD SWAP1 DUP2 ADD PUSH1 0x40 MSTORE DUP1 SWAP3 SWAP2 SWAP1 DUP2 DUP2 MSTORE PUSH1 0x20 ADD PUSH1 0x0 SWAP1 JUMPDEST DUP3 DUP3 LT ISZERO PUSH2 0x144A JUMPI DUP4 DUP3 SWAP1 PUSH1 0x0 MSTORE PUSH1 0x20 PUSH1 0x0 KECCAK256 SWAP1 PUSH1 0x4 MUL ADD PUSH1 0x40 MLOAD DUP1 PUSH1 0xC0 ADD PUSH1 0x40 MSTORE SWAP1 DUP2 PUSH1 0x0 DUP3 ADD DUP1 SLOAD PUSH2 0x126E SWAP1 PUSH2 0x26BD JUMP JUMPDEST DUP1 PUSH1 0x1F ADD PUSH1 0x20 DUP1 SWAP2 DIV MUL PUSH1 0x20 ADD PUSH1 0x40 MLOAD SWAP1 DUP2 ADD PUSH1 0x40 MSTORE DUP1 SWAP3 SWAP2 SWAP1 DUP2 DUP2 MSTORE PUSH1 0x20 ADD DUP3 DUP1 SLOAD PUSH2 0x129A SWAP1 PUSH2 0x26BD JUMP JUMPDEST DUP1 ISZERO PUSH2 0x12E7 JUMPI DUP1 PUSH1 0x1F LT PUSH2 0x12BC JUMPI PUSH2 0x100 DUP1 DUP4 SLOAD DIV MUL DUP4 MSTORE SWAP2 PUSH1 0x20 ADD SWAP2 PUSH2 0x12E7 JUMP JUMPDEST DUP3 ADD SWAP2 SWAP1 PUSH1 0x0 MSTORE PUSH1 0x20 PUSH1 0x0 KECCAK256 SWAP1 JUMPDEST DUP2 SLOAD DUP2 MSTORE SWAP1 PUSH1 0x1 ADD SWAP1 PUSH1 0x20 ADD DUP1 DUP4 GT PUSH2 0x12CA JUMPI DUP3 SWAP1 SUB PUSH1 0x1F AND DUP3 ADD SWAP2 JUMPDEST POP POP POP POP POP DUP2 MSTORE PUSH1 0x20 ADD PUSH1 0x1 DUP3 ADD PUSH1 0x0 SWAP1 SLOAD SWAP1 PUSH2 0x100 EXP SWAP1 DIV PUSH20 0xFFFFFFFFFFFFFFFFFFFFFFFFFFFFFFFFFFFFFFFF AND PUSH20 0xFFFFFFFFFFFFFFFFFFFFFFFFFFFFFFFFFFFFFFFF AND PUSH20 0xFFFFFFFFFFFFFFFFFFFFFFFFFFFFFFFFFFFFFFFF AND DUP2 MSTORE PUSH1 0x20 ADD PUSH1 0x2 DUP3 ADD DUP1 SLOAD DUP1 PUSH1 0x20 MUL PUSH1 0x20 ADD PUSH1 0x40 MLOAD SWAP1 DUP2 ADD PUSH1 0x40 MSTORE DUP1 SWAP3 SWAP2 SWAP1 DUP2 DUP2 MSTORE PUSH1 0x20 ADD DUP3 DUP1 SLOAD DUP1 ISZERO PUSH2 0x13CB JUMPI PUSH1 0x20 MUL DUP3 ADD SWAP2 SWAP1 PUSH1 0x0 MSTORE PUSH1 0x20 PUSH1 0x0 KECCAK256 SWAP1 JUMPDEST DUP2 PUSH1 0x0 SWAP1 SLOAD SWAP1 PUSH2 0x100 EXP SWAP1 DIV PUSH20 0xFFFFFFFFFFFFFFFFFFFFFFFFFFFFFFFFFFFFFFFF AND PUSH20 0xFFFFFFFFFFFFFFFFFFFFFFFFFFFFFFFFFFFFFFFF AND DUP2 MSTORE PUSH1 0x20 ADD SWAP1 PUSH1 0x1 ADD SWAP1 DUP1 DUP4 GT PUSH2 0x1381 JUMPI JUMPDEST POP POP POP POP POP DUP2 MSTORE PUSH1 0x20 ADD PUSH1 0x3 DUP3 ADD PUSH1 0x0 SWAP1 SLOAD SWAP1 PUSH2 0x100 EXP SWAP1 DIV PUSH4 0xFFFFFFFF AND PUSH4 0xFFFFFFFF AND PUSH4 0xFFFFFFFF AND DUP2 MSTORE PUSH1 0x20 ADD PUSH1 0x3 DUP3 ADD PUSH1 0x4 SWAP1 SLOAD SWAP1 PUSH2 0x100 EXP SWAP1 DIV PUSH4 0xFFFFFFFF AND PUSH4 0xFFFFFFFF AND PUSH4 0xFFFFFFFF AND DUP2 MSTORE PUSH1 0x20 ADD PUSH1 0x3 DUP3 ADD PUSH1 0x8 SWAP1 SLOAD SWAP1 PUSH2 0x100 EXP SWAP1 DIV PUSH1 0xFF AND ISZERO ISZERO ISZERO ISZERO DUP2 MSTORE POP POP DUP2 MSTORE PUSH1 0x20 ADD SWAP1 PUSH1 0x1 ADD SWAP1 PUSH2 0x123B JUMP JUMPDEST POP POP POP POP SWAP2 POP POP SWAP3 SWAP2 POP POP JUMP JUMPDEST PUSH1 0x0 DUP1 PUSH1 0x2 PUSH1 0x0 DUP6 DUP2 MSTORE PUSH1 0x20 ADD SWAP1 DUP2 MSTORE PUSH1 0x20 ADD PUSH1 0x0 KECCAK256 SWAP1 POP PUSH1 0x5 PUSH1 0x0 DUP6 DUP2 MSTORE PUSH1 0x20 ADD SWAP1 DUP2 MSTORE PUSH1 0x20 ADD PUSH1 0x0 KECCAK256 PUSH1 0x0 DUP3 PUSH1 0x2 ADD DUP6 DUP2 SLOAD DUP2 LT PUSH2 0x149A JUMPI PUSH2 0x1499 PUSH2 0x2616 JUMP JUMPDEST JUMPDEST SWAP1 PUSH1 0x0 MSTORE PUSH1 0x20 PUSH1 0x0 KECCAK256 ADD PUSH1 0x0 SWAP1 SLOAD SWAP1 PUSH2 0x100 EXP SWAP1 DIV PUSH20 0xFFFFFFFFFFFFFFFFFFFFFFFFFFFFFFFFFFFFFFFF AND PUSH20 0xFFFFFFFFFFFFFFFFFFFFFFFFFFFFFFFFFFFFFFFF AND PUSH20 0xFFFFFFFFFFFFFFFFFFFFFFFFFFFFFFFFFFFFFFFF AND DUP2 MSTORE PUSH1 0x20 ADD SWAP1 DUP2 MSTORE PUSH1 0x20 ADD PUSH1 0x0 KECCAK256 SLOAD SWAP2 POP POP SWAP3 SWAP2 POP POP JUMP JUMPDEST PUSH1 0x0 DUP1 PUSH1 0x0 DUP1 PUSH1 0x41 DUP6 MLOAD EQ PUSH2 0x1524 JUMPI PUSH1 0x0 SWAP4 POP POP POP POP PUSH2 0x15FC JUMP JUMPDEST PUSH1 0x20 DUP6 ADD MLOAD SWAP3 POP PUSH1 0x40 DUP6 ADD MLOAD SWAP2 POP PUSH1 0x60 DUP6 ADD MLOAD PUSH1 0x0 BYTE SWAP1 POP PUSH1 0x1B DUP2 PUSH1 0xFF AND LT ISZERO PUSH2 0x1558 JUMPI PUSH1 0x1B DUP2 PUSH2 0x1555 SWAP2 SWAP1 PUSH2 0x2A6D JUMP JUMPDEST SWAP1 POP JUMPDEST PUSH1 0x1B DUP2 PUSH1 0xFF AND EQ ISZERO DUP1 ISZERO PUSH2 0x1570 JUMPI POP PUSH1 0x1C DUP2 PUSH1 0xFF AND EQ ISZERO JUMPDEST ISZERO PUSH2 0x1581 JUMPI PUSH1 0x0 SWAP4 POP POP POP POP PUSH2 0x15FC JUMP JUMPDEST PUSH1 0x1 DUP7 PUSH1 0x40 MLOAD PUSH1 0x20 ADD PUSH2 0x1594 SWAP2 SWAP1 PUSH2 0x2B11 JUMP JUMPDEST PUSH1 0x40 MLOAD PUSH1 0x20 DUP2 DUP4 SUB SUB DUP2 MSTORE SWAP1 PUSH1 0x40 MSTORE DUP1 MLOAD SWAP1 PUSH1 0x20 ADD KECCAK256 DUP3 DUP6 DUP6 PUSH1 0x40 MLOAD PUSH1 0x0 DUP2 MSTORE PUSH1 0x20 ADD PUSH1 0x40 MSTORE PUSH1 0x40 MLOAD PUSH2 0x15CA SWAP5 SWAP4 SWAP3 SWAP2 SWAP1 PUSH2 0x2B46 JUMP JUMPDEST PUSH1 0x20 PUSH1 0x40 MLOAD PUSH1 0x20 DUP2 SUB SWAP1 DUP1 DUP5 SUB SWAP1 DUP6 GAS STATICCALL ISZERO DUP1 ISZERO PUSH2 0x15EC JUMPI RETURNDATASIZE PUSH1 0x0 DUP1 RETURNDATACOPY RETURNDATASIZE PUSH1 0x0 REVERT JUMPDEST POP POP POP PUSH1 0x20 PUSH1 0x40 MLOAD SUB MLOAD SWAP4 POP POP POP POP JUMPDEST SWAP3 SWAP2 POP POP JUMP JUMPDEST PUSH1 0x0 PUSH1 0x1 PUSH1 0x6 PUSH1 0x0 DUP6 DUP2 MSTORE PUSH1 0x20 ADD SWAP1 DUP2 MSTORE PUSH1 0x20 ADD PUSH1 0x0 KECCAK256 PUSH1 0x0 DUP5 PUSH20 0xFFFFFFFFFFFFFFFFFFFFFFFFFFFFFFFFFFFFFFFF AND PUSH20 0xFFFFFFFFFFFFFFFFFFFFFFFFFFFFFFFFFFFFFFFF AND DUP2 MSTORE PUSH1 0x20 ADD SWAP1 DUP2 MSTORE PUSH1 0x20 ADD PUSH1 0x0 KECCAK256 PUSH1 0x0 PUSH2 0x100 EXP DUP2 SLOAD DUP2 PUSH1 0xFF MUL NOT AND SWAP1 DUP4 ISZERO ISZERO MUL OR SWAP1 SSTORE POP PUSH1 0x5 PUSH1 0x0 DUP5 DUP2 MSTORE PUSH1 0x20 ADD SWAP1 DUP2 MSTORE PUSH1 0x20 ADD PUSH1 0x0 KECCAK256 PUSH1 0x0 DUP6 PUSH20 0xFFFFFFFFFFFFFFFFFFFFFFFFFFFFFFFFFFFFFFFF AND PUSH20 0xFFFFFFFFFFFFFFFFFFFFFFFFFFFFFFFFFFFFFFFF AND DUP2 MSTORE PUSH1 0x20 ADD SWAP1 DUP2 MSTORE PUSH1 0x20 ADD PUSH1 0x0 KECCAK256 PUSH1 0x0 DUP2 SLOAD DUP1 SWAP3 SWAP2 SWAP1 PUSH2 0x16CE SWAP1 PUSH2 0x2645 JUMP JUMPDEST SWAP2 SWAP1 POP SSTORE POP PUSH1 0x5 PUSH1 0x0 DUP5 DUP2 MSTORE PUSH1 0x20 ADD SWAP1 DUP2 MSTORE PUSH1 0x20 ADD PUSH1 0x0 KECCAK256 PUSH1 0x0 DUP6 PUSH20 0xFFFFFFFFFFFFFFFFFFFFFFFFFFFFFFFFFFFFFFFF AND PUSH20 0xFFFFFFFFFFFFFFFFFFFFFFFFFFFFFFFFFFFFFFFF AND DUP2 MSTORE PUSH1 0x20 ADD SWAP1 DUP2 MSTORE PUSH1 0x20 ADD PUSH1 0x0 KECCAK256 SLOAD SWAP1 POP SWAP4 SWAP3 POP POP POP JUMP JUMPDEST PUSH1 0x40 MLOAD DUP1 PUSH1 0xC0 ADD PUSH1 0x40 MSTORE DUP1 PUSH1 0x60 DUP2 MSTORE PUSH1 0x20 ADD PUSH1 0x0 PUSH20 0xFFFFFFFFFFFFFFFFFFFFFFFFFFFFFFFFFFFFFFFF AND DUP2 MSTORE PUSH1 0x20 ADD PUSH1 0x60 DUP2 MSTORE PUSH1 0x20 ADD PUSH1 0x0 PUSH4 0xFFFFFFFF AND DUP2 MSTORE PUSH1 0x20 ADD PUSH1 0x0 PUSH4 0xFFFFFFFF AND DUP2 MSTORE PUSH1 0x20 ADD PUSH1 0x0 ISZERO ISZERO DUP2 MSTORE POP SWAP1 JUMP JUMPDEST DUP3 DUP1 SLOAD PUSH2 0x1793 SWAP1 PUSH2 0x26BD JUMP JUMPDEST SWAP1 PUSH1 0x0 MSTORE PUSH1 0x20 PUSH1 0x0 KECCAK256 SWAP1 PUSH1 0x1F ADD PUSH1 0x20 SWAP1 DIV DUP2 ADD SWAP3 DUP3 PUSH2 0x17B5 JUMPI PUSH1 0x0 DUP6 SSTORE PUSH2 0x17FC JUMP JUMPDEST DUP3 PUSH1 0x1F LT PUSH2 0x17CE JUMPI DUP1 MLOAD PUSH1 0xFF NOT AND DUP4 DUP1 ADD OR DUP6 SSTORE PUSH2 0x17FC JUMP JUMPDEST DUP3 DUP1 ADD PUSH1 0x1 ADD DUP6 SSTORE DUP3 ISZERO PUSH2 0x17FC JUMPI SWAP2 DUP3 ADD JUMPDEST DUP3 DUP2 GT ISZERO PUSH2 0x17FB JUMPI DUP3 MLOAD DUP3 SSTORE SWAP2 PUSH1 0x20 ADD SWAP2 SWAP1 PUSH1 0x1 ADD SWAP1 PUSH2 0x17E0 JUMP JUMPDEST JUMPDEST POP SWAP1 POP PUSH2 0x1809 SWAP2 SWAP1 PUSH2 0x18EC JUMP JUMPDEST POP SWAP1 JUMP JUMPDEST DUP3 DUP1 SLOAD PUSH2 0x1819 SWAP1 PUSH2 0x26BD JUMP JUMPDEST SWAP1 PUSH1 0x0 MSTORE PUSH1 0x20 PUSH1 0x0 KECCAK256 SWAP1 PUSH1 0x1F ADD PUSH1 0x20 SWAP1 DIV DUP2 ADD SWAP3 DUP3 PUSH2 0x183B JUMPI PUSH1 0x0 DUP6 SSTORE PUSH2 0x1889 JUMP JUMPDEST DUP3 PUSH1 0x1F LT PUSH2 0x184C JUMPI DUP1 SLOAD DUP6 SSTORE PUSH2 0x1889 JUMP JUMPDEST DUP3 DUP1 ADD PUSH1 0x1 ADD DUP6 SSTORE DUP3 ISZERO PUSH2 0x1889 JUMPI PUSH1 0x0 MSTORE PUSH1 0x20 PUSH1 0x0 KECCAK256 SWAP2 PUSH1 0x1F ADD PUSH1 0x20 SWAP1 DIV DUP3 ADD JUMPDEST DUP3 DUP2 GT ISZERO PUSH2 0x1888 JUMPI DUP3 SLOAD DUP3 SSTORE SWAP2 PUSH1 0x1 ADD SWAP2 SWAP1 PUSH1 0x1 ADD SWAP1 PUSH2 0x186D JUMP JUMPDEST JUMPDEST POP SWAP1 POP PUSH2 0x1896 SWAP2 SWAP1 PUSH2 0x18EC JUMP JUMPDEST POP SWAP1 JUMP JUMPDEST DUP3 DUP1 SLOAD DUP3 DUP3 SSTORE SWAP1 PUSH1 0x0 MSTORE PUSH1 0x20 PUSH1 0x0 KECCAK256 SWAP1 DUP2 ADD SWAP3 DUP3 ISZERO PUSH2 0x18DB JUMPI PUSH1 0x0 MSTORE PUSH1 0x20 PUSH1 0x0 KECCAK256 SWAP2 DUP3 ADD JUMPDEST DUP3 DUP2 GT ISZERO PUSH2 0x18DA JUMPI DUP3 SLOAD DUP3 SSTORE SWAP2 PUSH1 0x1 ADD SWAP2 SWAP1 PUSH1 0x1 ADD SWAP1 PUSH2 0x18BF JUMP JUMPDEST JUMPDEST POP SWAP1 POP PUSH2 0x18E8 SWAP2 SWAP1 PUSH2 0x18EC JUMP JUMPDEST POP SWAP1 JUMP JUMPDEST JUMPDEST DUP1 DUP3 GT ISZERO PUSH2 0x1905 JUMPI PUSH1 0x0 DUP2 PUSH1 0x0 SWAP1 SSTORE POP PUSH1 0x1 ADD PUSH2 0x18ED JUMP JUMPDEST POP SWAP1 JUMP JUMPDEST PUSH1 0x0 PUSH1 0x40 MLOAD SWAP1 POP SWAP1 JUMP JUMPDEST PUSH1 0x0 DUP1 REVERT JUMPDEST PUSH1 0x0 DUP1 REVERT JUMPDEST PUSH1 0x0 PUSH20 0xFFFFFFFFFFFFFFFFFFFFFFFFFFFFFFFFFFFFFFFF DUP3 AND SWAP1 POP SWAP2 SWAP1 POP JUMP JUMPDEST PUSH1 0x0 PUSH2 0x1948 DUP3 PUSH2 0x191D JUMP JUMPDEST SWAP1 POP SWAP2 SWAP1 POP JUMP JUMPDEST PUSH2 0x1958 DUP2 PUSH2 0x193D JUMP JUMPDEST DUP2 EQ PUSH2 0x1963 JUMPI PUSH1 0x0 DUP1 REVERT JUMPDEST POP JUMP JUMPDEST PUSH1 0x0 DUP2 CALLDATALOAD SWAP1 POP PUSH2 0x1975 DUP2 PUSH2 0x194F JUMP JUMPDEST SWAP3 SWAP2 POP POP JUMP JUMPDEST PUSH1 0x0 DUP2 SWAP1 POP SWAP2 SWAP1 POP JUMP JUMPDEST PUSH2 0x198E DUP2 PUSH2 0x197B JUMP JUMPDEST DUP2 EQ PUSH2 0x1999 JUMPI PUSH1 0x0 DUP1 REVERT JUMPDEST POP JUMP JUMPDEST PUSH1 0x0 DUP2 CALLDATALOAD SWAP1 POP PUSH2 0x19AB DUP2 PUSH2 0x1985 JUMP JUMPDEST SWAP3 SWAP2 POP POP JUMP JUMPDEST PUSH1 0x0 DUP1 PUSH1 0x40 DUP4 DUP6 SUB SLT ISZERO PUSH2 0x19C8 JUMPI PUSH2 0x19C7 PUSH2 0x1913 JUMP JUMPDEST JUMPDEST PUSH1 0x0 PUSH2 0x19D6 DUP6 DUP3 DUP7 ADD PUSH2 0x1966 JUMP JUMPDEST SWAP3 POP POP PUSH1 0x20 PUSH2 0x19E7 DUP6 DUP3 DUP7 ADD PUSH2 0x199C JUMP JUMPDEST SWAP2 POP POP SWAP3 POP SWAP3 SWAP1 POP JUMP JUMPDEST PUSH1 0x0 PUSH1 0x20 DUP3 DUP5 SUB SLT ISZERO PUSH2 0x1A07 JUMPI PUSH2 0x1A06 PUSH2 0x1913 JUMP JUMPDEST JUMPDEST PUSH1 0x0 PUSH2 0x1A15 DUP5 DUP3 DUP6 ADD PUSH2 0x199C JUMP JUMPDEST SWAP2 POP POP SWAP3 SWAP2 POP POP JUMP JUMPDEST PUSH1 0x0 DUP2 MLOAD SWAP1 POP SWAP2 SWAP1 POP JUMP JUMPDEST PUSH1 0x0 DUP3 DUP3 MSTORE PUSH1 0x20 DUP3 ADD SWAP1 POP SWAP3 SWAP2 POP POP JUMP JUMPDEST PUSH1 0x0 JUMPDEST DUP4 DUP2 LT ISZERO PUSH2 0x1A58 JUMPI DUP1 DUP3 ADD MLOAD DUP2 DUP5 ADD MSTORE PUSH1 0x20 DUP2 ADD SWAP1 POP PUSH2 0x1A3D JUMP JUMPDEST DUP4 DUP2 GT ISZERO PUSH2 0x1A67 JUMPI PUSH1 0x0 DUP5 DUP5 ADD MSTORE JUMPDEST POP POP POP POP JUMP JUMPDEST PUSH1 0x0 PUSH1 0x1F NOT PUSH1 0x1F DUP4 ADD AND SWAP1 POP SWAP2 SWAP1 POP JUMP JUMPDEST PUSH1 0x0 PUSH2 0x1A89 DUP3 PUSH2 0x1A1E JUMP JUMPDEST PUSH2 0x1A93 DUP2 DUP6 PUSH2 0x1A29 JUMP JUMPDEST SWAP4 POP PUSH2 0x1AA3 DUP2 DUP6 PUSH1 0x20 DUP7 ADD PUSH2 0x1A3A JUMP JUMPDEST PUSH2 0x1AAC DUP2 PUSH2 0x1A6D JUMP JUMPDEST DUP5 ADD SWAP2 POP POP SWAP3 SWAP2 POP POP JUMP JUMPDEST PUSH2 0x1AC0 DUP2 PUSH2 0x193D JUMP JUMPDEST DUP3 MSTORE POP POP JUMP JUMPDEST PUSH1 0x0 DUP2 MLOAD SWAP1 POP SWAP2 SWAP1 POP JUMP JUMPDEST PUSH1 0x0 DUP3 DUP3 MSTORE PUSH1 0x20 DUP3 ADD SWAP1 POP SWAP3 SWAP2 POP POP JUMP JUMPDEST PUSH1 0x0 DUP2 SWAP1 POP PUSH1 0x20 DUP3 ADD SWAP1 POP SWAP2 SWAP1 POP JUMP JUMPDEST PUSH1 0x0 PUSH2 0x1AFE DUP4 DUP4 PUSH2 0x1AB7 JUMP JUMPDEST PUSH1 0x20 DUP4 ADD SWAP1 POP SWAP3 SWAP2 POP POP JUMP JUMPDEST PUSH1 0x0 PUSH1 0x20 DUP3 ADD SWAP1 POP SWAP2 SWAP1 POP JUMP JUMPDEST PUSH1 0x0 PUSH2 0x1B22 DUP3 PUSH2 0x1AC6 JUMP JUMPDEST PUSH2 0x1B2C DUP2 DUP6 PUSH2 0x1AD1 JUMP JUMPDEST SWAP4 POP PUSH2 0x1B37 DUP4 PUSH2 0x1AE2 JUMP JUMPDEST DUP1 PUSH1 0x0 JUMPDEST DUP4 DUP2 LT ISZERO PUSH2 0x1B68 JUMPI DUP2 MLOAD PUSH2 0x1B4F DUP9 DUP3 PUSH2 0x1AF2 JUMP JUMPDEST SWAP8 POP PUSH2 0x1B5A DUP4 PUSH2 0x1B0A JUMP JUMPDEST SWAP3 POP POP PUSH1 0x1 DUP2 ADD SWAP1 POP PUSH2 0x1B3B JUMP JUMPDEST POP DUP6 SWAP4 POP POP POP POP SWAP3 SWAP2 POP POP JUMP JUMPDEST PUSH1 0x0 PUSH4 0xFFFFFFFF DUP3 AND SWAP1 POP SWAP2 SWAP1 POP JUMP JUMPDEST PUSH2 0x1B8E DUP2 PUSH2 0x1B75 JUMP JUMPDEST DUP3 MSTORE POP POP JUMP JUMPDEST PUSH1 0x0 DUP2 ISZERO ISZERO SWAP1 POP SWAP2 SWAP1 POP JUMP JUMPDEST PUSH2 0x1BA9 DUP2 PUSH2 0x1B94 JUMP JUMPDEST DUP3 MSTORE POP POP JUMP JUMPDEST PUSH1 0x0 PUSH1 0xC0 DUP4 ADD PUSH1 0x0 DUP4 ADD MLOAD DUP5 DUP3 SUB PUSH1 0x0 DUP7 ADD MSTORE PUSH2 0x1BCC DUP3 DUP3 PUSH2 0x1A7E JUMP JUMPDEST SWAP2 POP POP PUSH1 0x20 DUP4 ADD MLOAD PUSH2 0x1BE1 PUSH1 0x20 DUP7 ADD DUP3 PUSH2 0x1AB7 JUMP JUMPDEST POP PUSH1 0x40 DUP4 ADD MLOAD DUP5 DUP3 SUB PUSH1 0x40 DUP7 ADD MSTORE PUSH2 0x1BF9 DUP3 DUP3 PUSH2 0x1B17 JUMP JUMPDEST SWAP2 POP POP PUSH1 0x60 DUP4 ADD MLOAD PUSH2 0x1C0E PUSH1 0x60 DUP7 ADD DUP3 PUSH2 0x1B85 JUMP JUMPDEST POP PUSH1 0x80 DUP4 ADD MLOAD PUSH2 0x1C21 PUSH1 0x80 DUP7 ADD DUP3 PUSH2 0x1B85 JUMP JUMPDEST POP PUSH1 0xA0 DUP4 ADD MLOAD PUSH2 0x1C34 PUSH1 0xA0 DUP7 ADD DUP3 PUSH2 0x1BA0 JUMP JUMPDEST POP DUP1 SWAP2 POP POP SWAP3 SWAP2 POP POP JUMP JUMPDEST PUSH1 0x0 PUSH1 0x20 DUP3 ADD SWAP1 POP DUP2 DUP2 SUB PUSH1 0x0 DUP4 ADD MSTORE PUSH2 0x1C59 DUP2 DUP5 PUSH2 0x1BAF JUMP JUMPDEST SWAP1 POP SWAP3 SWAP2 POP POP JUMP JUMPDEST PUSH2 0x1C6A DUP2 PUSH2 0x197B JUMP JUMPDEST DUP3 MSTORE POP POP JUMP JUMPDEST PUSH1 0x0 PUSH1 0x20 DUP3 ADD SWAP1 POP PUSH2 0x1C85 PUSH1 0x0 DUP4 ADD DUP5 PUSH2 0x1C61 JUMP JUMPDEST SWAP3 SWAP2 POP POP JUMP JUMPDEST PUSH1 0x0 PUSH1 0x20 DUP3 DUP5 SUB SLT ISZERO PUSH2 0x1CA1 JUMPI PUSH2 0x1CA0 PUSH2 0x1913 JUMP JUMPDEST JUMPDEST PUSH1 0x0 PUSH2 0x1CAF DUP5 DUP3 DUP6 ADD PUSH2 0x1966 JUMP JUMPDEST SWAP2 POP POP SWAP3 SWAP2 POP POP JUMP JUMPDEST PUSH1 0x0 DUP3 DUP3 MSTORE PUSH1 0x20 DUP3 ADD SWAP1 POP SWAP3 SWAP2 POP POP JUMP JUMPDEST PUSH1 0x0 PUSH2 0x1CD4 DUP3 PUSH2 0x1AC6 JUMP JUMPDEST PUSH2 0x1CDE DUP2 DUP6 PUSH2 0x1CB8 JUMP JUMPDEST SWAP4 POP PUSH2 0x1CE9 DUP4 PUSH2 0x1AE2 JUMP JUMPDEST DUP1 PUSH1 0x0 JUMPDEST DUP4 DUP2 LT ISZERO PUSH2 0x1D1A JUMPI DUP2 MLOAD PUSH2 0x1D01 DUP9 DUP3 PUSH2 0x1AF2 JUMP JUMPDEST SWAP8 POP PUSH2 0x1D0C DUP4 PUSH2 0x1B0A JUMP JUMPDEST SWAP3 POP POP PUSH1 0x1 DUP2 ADD SWAP1 POP PUSH2 0x1CED JUMP JUMPDEST POP DUP6 SWAP4 POP POP POP POP SWAP3 SWAP2 POP POP JUMP JUMPDEST PUSH1 0x0 PUSH1 0x20 DUP3 ADD SWAP1 POP DUP2 DUP2 SUB PUSH1 0x0 DUP4 ADD MSTORE PUSH2 0x1D41 DUP2 DUP5 PUSH2 0x1CC9 JUMP JUMPDEST SWAP1 POP SWAP3 SWAP2 POP POP JUMP JUMPDEST PUSH1 0x0 DUP2 MLOAD SWAP1 POP SWAP2 SWAP1 POP JUMP JUMPDEST PUSH1 0x0 DUP3 DUP3 MSTORE PUSH1 0x20 DUP3 ADD SWAP1 POP SWAP3 SWAP2 POP POP JUMP JUMPDEST PUSH1 0x0 DUP2 SWAP1 POP PUSH1 0x20 DUP3 ADD SWAP1 POP SWAP2 SWAP1 POP JUMP JUMPDEST PUSH2 0x1D7E DUP2 PUSH2 0x197B JUMP JUMPDEST DUP3 MSTORE POP POP JUMP JUMPDEST PUSH1 0x0 PUSH2 0x1D90 DUP4 DUP4 PUSH2 0x1D75 JUMP JUMPDEST PUSH1 0x20 DUP4 ADD SWAP1 POP SWAP3 SWAP2 POP POP JUMP JUMPDEST PUSH1 0x0 PUSH1 0x20 DUP3 ADD SWAP1 POP SWAP2 SWAP1 POP JUMP JUMPDEST PUSH1 0x0 PUSH2 0x1DB4 DUP3 PUSH2 0x1D49 JUMP JUMPDEST PUSH2 0x1DBE DUP2 DUP6 PUSH2 0x1D54 JUMP JUMPDEST SWAP4 POP PUSH2 0x1DC9 DUP4 PUSH2 0x1D65 JUMP JUMPDEST DUP1 PUSH1 0x0 JUMPDEST DUP4 DUP2 LT ISZERO PUSH2 0x1DFA JUMPI DUP2 MLOAD PUSH2 0x1DE1 DUP9 DUP3 PUSH2 0x1D84 JUMP JUMPDEST SWAP8 POP PUSH2 0x1DEC DUP4 PUSH2 0x1D9C JUMP JUMPDEST SWAP3 POP POP PUSH1 0x1 DUP2 ADD SWAP1 POP PUSH2 0x1DCD JUMP JUMPDEST POP DUP6 SWAP4 POP POP POP POP SWAP3 SWAP2 POP POP JUMP JUMPDEST PUSH2 0x1E10 DUP2 PUSH2 0x193D JUMP JUMPDEST DUP3 MSTORE POP POP JUMP JUMPDEST PUSH1 0x0 PUSH1 0x60 DUP3 ADD SWAP1 POP DUP2 DUP2 SUB PUSH1 0x0 DUP4 ADD MSTORE PUSH2 0x1E30 DUP2 DUP7 PUSH2 0x1DA9 JUMP JUMPDEST SWAP1 POP PUSH2 0x1E3F PUSH1 0x20 DUP4 ADD DUP6 PUSH2 0x1E07 JUMP JUMPDEST PUSH2 0x1E4C PUSH1 0x40 DUP4 ADD DUP5 PUSH2 0x1C61 JUMP JUMPDEST SWAP5 SWAP4 POP POP POP POP JUMP JUMPDEST PUSH1 0x0 DUP3 DUP3 MSTORE PUSH1 0x20 DUP3 ADD SWAP1 POP SWAP3 SWAP2 POP POP JUMP JUMPDEST PUSH1 0x0 PUSH2 0x1E70 DUP3 PUSH2 0x1A1E JUMP JUMPDEST PUSH2 0x1E7A DUP2 DUP6 PUSH2 0x1E54 JUMP JUMPDEST SWAP4 POP PUSH2 0x1E8A DUP2 DUP6 PUSH1 0x20 DUP7 ADD PUSH2 0x1A3A JUMP JUMPDEST PUSH2 0x1E93 DUP2 PUSH2 0x1A6D JUMP JUMPDEST DUP5 ADD SWAP2 POP POP SWAP3 SWAP2 POP POP JUMP JUMPDEST PUSH2 0x1EA7 DUP2 PUSH2 0x1B75 JUMP JUMPDEST DUP3 MSTORE POP POP JUMP JUMPDEST PUSH2 0x1EB6 DUP2 PUSH2 0x1B94 JUMP JUMPDEST DUP3 MSTORE POP POP JUMP JUMPDEST PUSH1 0x0 PUSH1 0xA0 DUP3 ADD SWAP1 POP DUP2 DUP2 SUB PUSH1 0x0 DUP4 ADD MSTORE PUSH2 0x1ED6 DUP2 DUP9 PUSH2 0x1E65 JUMP JUMPDEST SWAP1 POP PUSH2 0x1EE5 PUSH1 0x20 DUP4 ADD DUP8 PUSH2 0x1E07 JUMP JUMPDEST PUSH2 0x1EF2 PUSH1 0x40 DUP4 ADD DUP7 PUSH2 0x1E9E JUMP JUMPDEST PUSH2 0x1EFF PUSH1 0x60 DUP4 ADD DUP6 PUSH2 0x1E9E JUMP JUMPDEST PUSH2 0x1F0C PUSH1 0x80 DUP4 ADD DUP5 PUSH2 0x1EAD JUMP JUMPDEST SWAP7 SWAP6 POP POP POP POP POP POP JUMP JUMPDEST PUSH1 0x0 DUP1 PUSH1 0x0 DUP1 PUSH1 0x80 DUP6 DUP8 SUB SLT ISZERO PUSH2 0x1F30 JUMPI PUSH2 0x1F2F PUSH2 0x1913 JUMP JUMPDEST JUMPDEST PUSH1 0x0 PUSH2 0x1F3E DUP8 DUP3 DUP9 ADD PUSH2 0x1966 JUMP JUMPDEST SWAP5 POP POP PUSH1 0x20 PUSH2 0x1F4F DUP8 DUP3 DUP9 ADD PUSH2 0x199C JUMP JUMPDEST SWAP4 POP POP PUSH1 0x40 PUSH2 0x1F60 DUP8 DUP3 DUP9 ADD PUSH2 0x199C JUMP JUMPDEST SWAP3 POP POP PUSH1 0x60 PUSH2 0x1F71 DUP8 DUP3 DUP9 ADD PUSH2 0x199C JUMP JUMPDEST SWAP2 POP POP SWAP3 SWAP6 SWAP2 SWAP5 POP SWAP3 POP JUMP JUMPDEST PUSH1 0x0 DUP2 SWAP1 POP SWAP2 SWAP1 POP JUMP JUMPDEST PUSH2 0x1F90 DUP2 PUSH2 0x1F7D JUMP JUMPDEST DUP3 MSTORE POP POP JUMP JUMPDEST PUSH1 0x0 PUSH1 0x20 DUP3 ADD SWAP1 POP PUSH2 0x1FAB PUSH1 0x0 DUP4 ADD DUP5 PUSH2 0x1F87 JUMP JUMPDEST SWAP3 SWAP2 POP POP JUMP JUMPDEST PUSH1 0x0 DUP1 REVERT JUMPDEST PUSH1 0x0 DUP1 REVERT JUMPDEST PUSH32 0x4E487B7100000000000000000000000000000000000000000000000000000000 PUSH1 0x0 MSTORE PUSH1 0x41 PUSH1 0x4 MSTORE PUSH1 0x24 PUSH1 0x0 REVERT JUMPDEST PUSH2 0x1FF3 DUP3 PUSH2 0x1A6D JUMP JUMPDEST DUP2 ADD DUP2 DUP2 LT PUSH8 0xFFFFFFFFFFFFFFFF DUP3 GT OR ISZERO PUSH2 0x2012 JUMPI PUSH2 0x2011 PUSH2 0x1FBB JUMP JUMPDEST JUMPDEST DUP1 PUSH1 0x40 MSTORE POP POP POP JUMP JUMPDEST PUSH1 0x0 PUSH2 0x2025 PUSH2 0x1909 JUMP JUMPDEST SWAP1 POP PUSH2 0x2031 DUP3 DUP3 PUSH2 0x1FEA JUMP JUMPDEST SWAP2 SWAP1 POP JUMP JUMPDEST PUSH1 0x0 PUSH8 0xFFFFFFFFFFFFFFFF DUP3 GT ISZERO PUSH2 0x2051 JUMPI PUSH2 0x2050 PUSH2 0x1FBB JUMP JUMPDEST JUMPDEST PUSH2 0x205A DUP3 PUSH2 0x1A6D JUMP JUMPDEST SWAP1 POP PUSH1 0x20 DUP2 ADD SWAP1 POP SWAP2 SWAP1 POP JUMP JUMPDEST DUP3 DUP2 DUP4 CALLDATACOPY PUSH1 0x0 DUP4 DUP4 ADD MSTORE POP POP POP JUMP JUMPDEST PUSH1 0x0 PUSH2 0x2089 PUSH2 0x2084 DUP5 PUSH2 0x2036 JUMP JUMPDEST PUSH2 0x201B JUMP JUMPDEST SWAP1 POP DUP3 DUP2 MSTORE PUSH1 0x20 DUP2 ADD DUP5 DUP5 DUP5 ADD GT ISZERO PUSH2 0x20A5 JUMPI PUSH2 0x20A4 PUSH2 0x1FB6 JUMP JUMPDEST JUMPDEST PUSH2 0x20B0 DUP5 DUP3 DUP6 PUSH2 0x2067 JUMP JUMPDEST POP SWAP4 SWAP3 POP POP POP JUMP JUMPDEST PUSH1 0x0 DUP3 PUSH1 0x1F DUP4 ADD SLT PUSH2 0x20CD JUMPI PUSH2 0x20CC PUSH2 0x1FB1 JUMP JUMPDEST JUMPDEST DUP2 CALLDATALOAD PUSH2 0x20DD DUP5 DUP3 PUSH1 0x20 DUP7 ADD PUSH2 0x2076 JUMP JUMPDEST SWAP2 POP POP SWAP3 SWAP2 POP POP JUMP JUMPDEST PUSH1 0x0 DUP1 PUSH1 0x0 DUP1 PUSH1 0x80 DUP6 DUP8 SUB SLT ISZERO PUSH2 0x2100 JUMPI PUSH2 0x20FF PUSH2 0x1913 JUMP JUMPDEST JUMPDEST PUSH1 0x0 PUSH2 0x210E DUP8 DUP3 DUP9 ADD PUSH2 0x1966 JUMP JUMPDEST SWAP5 POP POP PUSH1 0x20 PUSH2 0x211F DUP8 DUP3 DUP9 ADD PUSH2 0x199C JUMP JUMPDEST SWAP4 POP POP PUSH1 0x40 PUSH2 0x2130 DUP8 DUP3 DUP9 ADD PUSH2 0x199C JUMP JUMPDEST SWAP3 POP POP PUSH1 0x60 DUP6 ADD CALLDATALOAD PUSH8 0xFFFFFFFFFFFFFFFF DUP2 GT ISZERO PUSH2 0x2151 JUMPI PUSH2 0x2150 PUSH2 0x1918 JUMP JUMPDEST JUMPDEST PUSH2 0x215D DUP8 DUP3 DUP9 ADD PUSH2 0x20B8 JUMP JUMPDEST SWAP2 POP POP SWAP3 SWAP6 SWAP2 SWAP5 POP SWAP3 POP JUMP JUMPDEST PUSH1 0x0 PUSH8 0xFFFFFFFFFFFFFFFF DUP3 GT ISZERO PUSH2 0x2184 JUMPI PUSH2 0x2183 PUSH2 0x1FBB JUMP JUMPDEST JUMPDEST PUSH2 0x218D DUP3 PUSH2 0x1A6D JUMP JUMPDEST SWAP1 POP PUSH1 0x20 DUP2 ADD SWAP1 POP SWAP2 SWAP1 POP JUMP JUMPDEST PUSH1 0x0 PUSH2 0x21AD PUSH2 0x21A8 DUP5 PUSH2 0x2169 JUMP JUMPDEST PUSH2 0x201B JUMP JUMPDEST SWAP1 POP DUP3 DUP2 MSTORE PUSH1 0x20 DUP2 ADD DUP5 DUP5 DUP5 ADD GT ISZERO PUSH2 0x21C9 JUMPI PUSH2 0x21C8 PUSH2 0x1FB6 JUMP JUMPDEST JUMPDEST PUSH2 0x21D4 DUP5 DUP3 DUP6 PUSH2 0x2067 JUMP JUMPDEST POP SWAP4 SWAP3 POP POP POP JUMP JUMPDEST PUSH1 0x0 DUP3 PUSH1 0x1F DUP4 ADD SLT PUSH2 0x21F1 JUMPI PUSH2 0x21F0 PUSH2 0x1FB1 JUMP JUMPDEST JUMPDEST DUP2 CALLDATALOAD PUSH2 0x2201 DUP5 DUP3 PUSH1 0x20 DUP7 ADD PUSH2 0x219A JUMP JUMPDEST SWAP2 POP POP SWAP3 SWAP2 POP POP JUMP JUMPDEST PUSH2 0x2213 DUP2 PUSH2 0x1B75 JUMP JUMPDEST DUP2 EQ PUSH2 0x221E JUMPI PUSH1 0x0 DUP1 REVERT JUMPDEST POP JUMP JUMPDEST PUSH1 0x0 DUP2 CALLDATALOAD SWAP1 POP PUSH2 0x2230 DUP2 PUSH2 0x220A JUMP JUMPDEST SWAP3 SWAP2 POP POP JUMP JUMPDEST PUSH1 0x0 DUP1 PUSH1 0x40 DUP4 DUP6 SUB SLT ISZERO PUSH2 0x224D JUMPI PUSH2 0x224C PUSH2 0x1913 JUMP JUMPDEST JUMPDEST PUSH1 0x0 DUP4 ADD CALLDATALOAD PUSH8 0xFFFFFFFFFFFFFFFF DUP2 GT ISZERO PUSH2 0x226B JUMPI PUSH2 0x226A PUSH2 0x1918 JUMP JUMPDEST JUMPDEST PUSH2 0x2277 DUP6 DUP3 DUP7 ADD PUSH2 0x21DC JUMP JUMPDEST SWAP3 POP POP PUSH1 0x20 PUSH2 0x2288 DUP6 DUP3 DUP7 ADD PUSH2 0x2221 JUMP JUMPDEST SWAP2 POP POP SWAP3 POP SWAP3 SWAP1 POP JUMP JUMPDEST PUSH1 0x0 DUP2 MLOAD SWAP1 POP SWAP2 SWAP1 POP JUMP JUMPDEST PUSH1 0x0 DUP3 DUP3 MSTORE PUSH1 0x20 DUP3 ADD SWAP1 POP SWAP3 SWAP2 POP POP JUMP JUMPDEST PUSH1 0x0 DUP2 SWAP1 POP PUSH1 0x20 DUP3 ADD SWAP1 POP SWAP2 SWAP1 POP JUMP JUMPDEST PUSH1 0x0 PUSH1 0xC0 DUP4 ADD PUSH1 0x0 DUP4 ADD MLOAD DUP5 DUP3 SUB PUSH1 0x0 DUP7 ADD MSTORE PUSH2 0x22DB DUP3 DUP3 PUSH2 0x1A7E JUMP JUMPDEST SWAP2 POP POP PUSH1 0x20 DUP4 ADD MLOAD PUSH2 0x22F0 PUSH1 0x20 DUP7 ADD DUP3 PUSH2 0x1AB7 JUMP JUMPDEST POP PUSH1 0x40 DUP4 ADD MLOAD DUP5 DUP3 SUB PUSH1 0x40 DUP7 ADD MSTORE PUSH2 0x2308 DUP3 DUP3 PUSH2 0x1B17 JUMP JUMPDEST SWAP2 POP POP PUSH1 0x60 DUP4 ADD MLOAD PUSH2 0x231D PUSH1 0x60 DUP7 ADD DUP3 PUSH2 0x1B85 JUMP JUMPDEST POP PUSH1 0x80 DUP4 ADD MLOAD PUSH2 0x2330 PUSH1 0x80 DUP7 ADD DUP3 PUSH2 0x1B85 JUMP JUMPDEST POP PUSH1 0xA0 DUP4 ADD MLOAD PUSH2 0x2343 PUSH1 0xA0 DUP7 ADD DUP3 PUSH2 0x1BA0 JUMP JUMPDEST POP DUP1 SWAP2 POP POP SWAP3 SWAP2 POP POP JUMP JUMPDEST PUSH1 0x0 PUSH2 0x235A DUP4 DUP4 PUSH2 0x22BE JUMP JUMPDEST SWAP1 POP SWAP3 SWAP2 POP POP JUMP JUMPDEST PUSH1 0x0 PUSH1 0x20 DUP3 ADD SWAP1 POP SWAP2 SWAP1 POP JUMP JUMPDEST PUSH1 0x0 PUSH2 0x237A DUP3 PUSH2 0x2292 JUMP JUMPDEST PUSH2 0x2384 DUP2 DUP6 PUSH2 0x229D JUMP JUMPDEST SWAP4 POP DUP4 PUSH1 0x20 DUP3 MUL DUP6 ADD PUSH2 0x2396 DUP6 PUSH2 0x22AE JUMP JUMPDEST DUP1 PUSH1 0x0 JUMPDEST DUP6 DUP2 LT ISZERO PUSH2 0x23D2 JUMPI DUP5 DUP5 SUB DUP10 MSTORE DUP2 MLOAD PUSH2 0x23B3 DUP6 DUP3 PUSH2 0x234E JUMP JUMPDEST SWAP5 POP PUSH2 0x23BE DUP4 PUSH2 0x2362 JUMP JUMPDEST SWAP3 POP PUSH1 0x20 DUP11 ADD SWAP10 POP POP PUSH1 0x1 DUP2 ADD SWAP1 POP PUSH2 0x239A JUMP JUMPDEST POP DUP3 SWAP8 POP DUP8 SWAP6 POP POP POP POP POP POP SWAP3 SWAP2 POP POP JUMP JUMPDEST PUSH1 0x0 PUSH1 0x20 DUP3 ADD SWAP1 POP DUP2 DUP2 SUB PUSH1 0x0 DUP4 ADD MSTORE PUSH2 0x23FE DUP2 DUP5 PUSH2 0x236F JUMP JUMPDEST SWAP1 POP SWAP3 SWAP2 POP POP JUMP JUMPDEST PUSH32 0x79657420746F20637265617465206120706F6C6C000000000000000000000000 PUSH1 0x0 DUP3 ADD MSTORE POP JUMP JUMPDEST PUSH1 0x0 PUSH2 0x243C PUSH1 0x14 DUP4 PUSH2 0x1E54 JUMP JUMPDEST SWAP2 POP PUSH2 0x2447 DUP3 PUSH2 0x2406 JUMP JUMPDEST PUSH1 0x20 DUP3 ADD SWAP1 POP SWAP2 SWAP1 POP JUMP JUMPDEST PUSH1 0x0 PUSH1 0x20 DUP3 ADD SWAP1 POP DUP2 DUP2 SUB PUSH1 0x0 DUP4 ADD MSTORE PUSH2 0x246B DUP2 PUSH2 0x242F JUMP JUMPDEST SWAP1 POP SWAP2 SWAP1 POP JUMP JUMPDEST PUSH32 0x4E487B7100000000000000000000000000000000000000000000000000000000 PUSH1 0x0 MSTORE PUSH1 0x1 PUSH1 0x4 MSTORE PUSH1 0x24 PUSH1 0x0 REVERT JUMPDEST PUSH32 0x6D6178696D756D206E6F206F662063616E646964617465207065722073657373 PUSH1 0x0 DUP3 ADD MSTORE PUSH32 0x696F6E2072656769737465726564000000000000000000000000000000000000 PUSH1 0x20 DUP3 ADD MSTORE POP JUMP JUMPDEST PUSH1 0x0 PUSH2 0x24FD PUSH1 0x2E DUP4 PUSH2 0x1E54 JUMP JUMPDEST SWAP2 POP PUSH2 0x2508 DUP3 PUSH2 0x24A1 JUMP JUMPDEST PUSH1 0x40 DUP3 ADD SWAP1 POP SWAP2 SWAP1 POP JUMP JUMPDEST PUSH1 0x0 PUSH1 0x20 DUP3 ADD SWAP1 POP DUP2 DUP2 SUB PUSH1 0x0 DUP4 ADD MSTORE PUSH2 0x252C DUP2 PUSH2 0x24F0 JUMP JUMPDEST SWAP1 POP SWAP2 SWAP1 POP JUMP JUMPDEST PUSH32 0x4E487B7100000000000000000000000000000000000000000000000000000000 PUSH1 0x0 MSTORE PUSH1 0x11 PUSH1 0x4 MSTORE PUSH1 0x24 PUSH1 0x0 REVERT JUMPDEST PUSH1 0x0 PUSH2 0x256D DUP3 PUSH2 0x1B75 JUMP JUMPDEST SWAP2 POP PUSH4 0xFFFFFFFF DUP3 EQ ISZERO PUSH2 0x2584 JUMPI PUSH2 0x2583 PUSH2 0x2533 JUMP JUMPDEST JUMPDEST PUSH1 0x1 DUP3 ADD SWAP1 POP SWAP2 SWAP1 POP JUMP JUMPDEST PUSH1 0x0 PUSH1 0x20 DUP3 ADD SWAP1 POP PUSH2 0x25A4 PUSH1 0x0 DUP4 ADD DUP5 PUSH2 0x1E07 JUMP JUMPDEST SWAP3 SWAP2 POP POP JUMP JUMPDEST PUSH32 0x4E6F20706F6C6C20637265617465640000000000000000000000000000000000 PUSH1 0x0 DUP3 ADD MSTORE POP JUMP JUMPDEST PUSH1 0x0 PUSH2 0x25E0 PUSH1 0xF DUP4 PUSH2 0x1E54 JUMP JUMPDEST SWAP2 POP PUSH2 0x25EB DUP3 PUSH2 0x25AA JUMP JUMPDEST PUSH1 0x20 DUP3 ADD SWAP1 POP SWAP2 SWAP1 POP JUMP JUMPDEST PUSH1 0x0 PUSH1 0x20 DUP3 ADD SWAP1 POP DUP2 DUP2 SUB PUSH1 0x0 DUP4 ADD MSTORE PUSH2 0x260F DUP2 PUSH2 0x25D3 JUMP JUMPDEST SWAP1 POP SWAP2 SWAP1 POP JUMP JUMPDEST PUSH32 0x4E487B7100000000000000000000000000000000000000000000000000000000 PUSH1 0x0 MSTORE PUSH1 0x32 PUSH1 0x4 MSTORE PUSH1 0x24 PUSH1 0x0 REVERT JUMPDEST PUSH1 0x0 PUSH2 0x2650 DUP3 PUSH2 0x197B JUMP JUMPDEST SWAP2 POP PUSH32 0xFFFFFFFFFFFFFFFFFFFFFFFFFFFFFFFFFFFFFFFFFFFFFFFFFFFFFFFFFFFFFFFF DUP3 EQ ISZERO PUSH2 0x2683 JUMPI PUSH2 0x2682 PUSH2 0x2533 JUMP JUMPDEST JUMPDEST PUSH1 0x1 DUP3 ADD SWAP1 POP SWAP2 SWAP1 POP JUMP JUMPDEST PUSH32 0x4E487B7100000000000000000000000000000000000000000000000000000000 PUSH1 0x0 MSTORE PUSH1 0x22 PUSH1 0x4 MSTORE PUSH1 0x24 PUSH1 0x0 REVERT JUMPDEST PUSH1 0x0 PUSH1 0x2 DUP3 DIV SWAP1 POP PUSH1 0x1 DUP3 AND DUP1 PUSH2 0x26D5 JUMPI PUSH1 0x7F DUP3 AND SWAP2 POP JUMPDEST PUSH1 0x20 DUP3 LT DUP2 EQ ISZERO PUSH2 0x26E9 JUMPI PUSH2 0x26E8 PUSH2 0x268E JUMP JUMPDEST JUMPDEST POP SWAP2 SWAP1 POP JUMP JUMPDEST PUSH1 0x0 DUP2 PUSH1 0x60 SHL SWAP1 POP SWAP2 SWAP1 POP JUMP JUMPDEST PUSH1 0x0 PUSH2 0x2707 DUP3 PUSH2 0x26EF JUMP JUMPDEST SWAP1 POP SWAP2 SWAP1 POP JUMP JUMPDEST PUSH1 0x0 PUSH2 0x2719 DUP3 PUSH2 0x26FC JUMP JUMPDEST SWAP1 POP SWAP2 SWAP1 POP JUMP JUMPDEST PUSH2 0x2731 PUSH2 0x272C DUP3 PUSH2 0x193D JUMP JUMPDEST PUSH2 0x270E JUMP JUMPDEST DUP3 MSTORE POP POP JUMP JUMPDEST PUSH1 0x0 DUP2 SWAP1 POP SWAP3 SWAP2 POP POP JUMP JUMPDEST PUSH32 0x6D6574617472616E73616374696F6E20566F74696E6720000000000000000000 PUSH1 0x0 DUP3 ADD MSTORE POP JUMP JUMPDEST PUSH1 0x0 PUSH2 0x2778 PUSH1 0x17 DUP4 PUSH2 0x2737 JUMP JUMPDEST SWAP2 POP PUSH2 0x2783 DUP3 PUSH2 0x2742 JUMP JUMPDEST PUSH1 0x17 DUP3 ADD SWAP1 POP SWAP2 SWAP1 POP JUMP JUMPDEST PUSH1 0x0 DUP2 SWAP1 POP SWAP2 SWAP1 POP JUMP JUMPDEST PUSH2 0x27A9 PUSH2 0x27A4 DUP3 PUSH2 0x197B JUMP JUMPDEST PUSH2 0x278E JUMP JUMPDEST DUP3 MSTORE POP POP JUMP JUMPDEST PUSH1 0x0 PUSH2 0x27BB DUP3 DUP9 PUSH2 0x2720 JUMP JUMPDEST PUSH1 0x14 DUP3 ADD SWAP2 POP PUSH2 0x27CA DUP3 PUSH2 0x276B JUMP JUMPDEST SWAP2 POP PUSH2 0x27D6 DUP3 DUP8 PUSH2 0x2720 JUMP JUMPDEST PUSH1 0x14 DUP3 ADD SWAP2 POP PUSH2 0x27E6 DUP3 DUP7 PUSH2 0x2798 JUMP JUMPDEST PUSH1 0x20 DUP3 ADD SWAP2 POP PUSH2 0x27F6 DUP3 DUP6 PUSH2 0x2798 JUMP JUMPDEST PUSH1 0x20 DUP3 ADD SWAP2 POP PUSH2 0x2806 DUP3 DUP5 PUSH2 0x2798 JUMP JUMPDEST PUSH1 0x20 DUP3 ADD SWAP2 POP DUP2 SWAP1 POP SWAP7 SWAP6 POP POP POP POP POP POP JUMP JUMPDEST PUSH32 0x54686973206164647265737320646F6573206E6F742065786973742061732061 PUSH1 0x0 DUP3 ADD MSTORE PUSH32 0x2063616E64696461746500000000000000000000000000000000000000000000 PUSH1 0x20 DUP3 ADD MSTORE POP JUMP JUMPDEST PUSH1 0x0 PUSH2 0x2875 PUSH1 0x2A DUP4 PUSH2 0x1E54 JUMP JUMPDEST SWAP2 POP PUSH2 0x2880 DUP3 PUSH2 0x2819 JUMP JUMPDEST PUSH1 0x40 DUP3 ADD SWAP1 POP SWAP2 SWAP1 POP JUMP JUMPDEST PUSH1 0x0 PUSH1 0x20 DUP3 ADD SWAP1 POP DUP2 DUP2 SUB PUSH1 0x0 DUP4 ADD MSTORE PUSH2 0x28A4 DUP2 PUSH2 0x2868 JUMP JUMPDEST SWAP1 POP SWAP2 SWAP1 POP JUMP JUMPDEST PUSH32 0x766F74696E672068617320656E64656400000000000000000000000000000000 PUSH1 0x0 DUP3 ADD MSTORE POP JUMP JUMPDEST PUSH1 0x0 PUSH2 0x28E1 PUSH1 0x10 DUP4 PUSH2 0x1E54 JUMP JUMPDEST SWAP2 POP PUSH2 0x28EC DUP3 PUSH2 0x28AB JUMP JUMPDEST PUSH1 0x20 DUP3 ADD SWAP1 POP SWAP2 SWAP1 POP JUMP JUMPDEST PUSH1 0x0 PUSH1 0x20 DUP3 ADD SWAP1 POP DUP2 DUP2 SUB PUSH1 0x0 DUP4 ADD MSTORE PUSH2 0x2910 DUP2 PUSH2 0x28D4 JUMP JUMPDEST SWAP1 POP SWAP2 SWAP1 POP JUMP JUMPDEST PUSH32 0x596F7520616C726561647920766F746564000000000000000000000000000000 PUSH1 0x0 DUP3 ADD MSTORE POP JUMP JUMPDEST PUSH1 0x0 PUSH2 0x294D PUSH1 0x11 DUP4 PUSH2 0x1E54 JUMP JUMPDEST SWAP2 POP PUSH2 0x2958 DUP3 PUSH2 0x2917 JUMP JUMPDEST PUSH1 0x20 DUP3 ADD SWAP1 POP SWAP2 SWAP1 POP JUMP JUMPDEST PUSH1 0x0 PUSH1 0x20 DUP3 ADD SWAP1 POP DUP2 DUP2 SUB PUSH1 0x0 DUP4 ADD MSTORE PUSH2 0x297C DUP2 PUSH2 0x2940 JUMP JUMPDEST SWAP1 POP SWAP2 SWAP1 POP JUMP JUMPDEST PUSH1 0x0 PUSH1 0x40 DUP3 ADD SWAP1 POP PUSH2 0x2998 PUSH1 0x0 DUP4 ADD DUP6 PUSH2 0x1E07 JUMP JUMPDEST PUSH2 0x29A5 PUSH1 0x20 DUP4 ADD DUP5 PUSH2 0x1EAD JUMP JUMPDEST SWAP4 SWAP3 POP POP POP JUMP JUMPDEST PUSH32 0x6E6F74207468652063686169726D616E00000000000000000000000000000000 PUSH1 0x0 DUP3 ADD MSTORE POP JUMP JUMPDEST PUSH1 0x0 PUSH2 0x29E2 PUSH1 0x10 DUP4 PUSH2 0x1E54 JUMP JUMPDEST SWAP2 POP PUSH2 0x29ED DUP3 PUSH2 0x29AC JUMP JUMPDEST PUSH1 0x20 DUP3 ADD SWAP1 POP SWAP2 SWAP1 POP JUMP JUMPDEST PUSH1 0x0 PUSH1 0x20 DUP3 ADD SWAP1 POP DUP2 DUP2 SUB PUSH1 0x0 DUP4 ADD MSTORE PUSH2 0x2A11 DUP2 PUSH2 0x29D5 JUMP JUMPDEST SWAP1 POP SWAP2 SWAP1 POP JUMP JUMPDEST PUSH1 0x0 PUSH2 0x2A23 DUP3 PUSH2 0x1A1E JUMP JUMPDEST PUSH2 0x2A2D DUP2 DUP6 PUSH2 0x2737 JUMP JUMPDEST SWAP4 POP PUSH2 0x2A3D DUP2 DUP6 PUSH1 0x20 DUP7 ADD PUSH2 0x1A3A JUMP JUMPDEST DUP1 DUP5 ADD SWAP2 POP POP SWAP3 SWAP2 POP POP JUMP JUMPDEST PUSH1 0x0 PUSH2 0x2A55 DUP3 DUP5 PUSH2 0x2A18 JUMP JUMPDEST SWAP2 POP DUP2 SWAP1 POP SWAP3 SWAP2 POP POP JUMP JUMPDEST PUSH1 0x0 PUSH1 0xFF DUP3 AND SWAP1 POP SWAP2 SWAP1 POP JUMP JUMPDEST PUSH1 0x0 PUSH2 0x2A78 DUP3 PUSH2 0x2A60 JUMP JUMPDEST SWAP2 POP PUSH2 0x2A83 DUP4 PUSH2 0x2A60 JUMP JUMPDEST SWAP3 POP DUP3 PUSH1 0xFF SUB DUP3 GT ISZERO PUSH2 0x2A99 JUMPI PUSH2 0x2A98 PUSH2 0x2533 JUMP JUMPDEST JUMPDEST DUP3 DUP3 ADD SWAP1 POP SWAP3 SWAP2 POP POP JUMP JUMPDEST PUSH32 0x19457468657265756D205369676E6564204D6573736167653A0A333200000000 PUSH1 0x0 DUP3 ADD MSTORE POP JUMP JUMPDEST PUSH1 0x0 PUSH2 0x2ADA PUSH1 0x1C DUP4 PUSH2 0x2737 JUMP JUMPDEST SWAP2 POP PUSH2 0x2AE5 DUP3 PUSH2 0x2AA4 JUMP JUMPDEST PUSH1 0x1C DUP3 ADD SWAP1 POP SWAP2 SWAP1 POP JUMP JUMPDEST PUSH1 0x0 DUP2 SWAP1 POP SWAP2 SWAP1 POP JUMP JUMPDEST PUSH2 0x2B0B PUSH2 0x2B06 DUP3 PUSH2 0x1F7D JUMP JUMPDEST PUSH2 0x2AF0 JUMP JUMPDEST DUP3 MSTORE POP POP JUMP JUMPDEST PUSH1 0x0 PUSH2 0x2B1C DUP3 PUSH2 0x2ACD JUMP JUMPDEST SWAP2 POP PUSH2 0x2B28 DUP3 DUP5 PUSH2 0x2AFA JUMP JUMPDEST PUSH1 0x20 DUP3 ADD SWAP2 POP DUP2 SWAP1 POP SWAP3 SWAP2 POP POP JUMP JUMPDEST PUSH2 0x2B40 DUP2 PUSH2 0x2A60 JUMP JUMPDEST DUP3 MSTORE POP POP JUMP JUMPDEST PUSH1 0x0 PUSH1 0x80 DUP3 ADD SWAP1 POP PUSH2 0x2B5B PUSH1 0x0 DUP4 ADD DUP8 PUSH2 0x1F87 JUMP JUMPDEST PUSH2 0x2B68 PUSH1 0x20 DUP4 ADD DUP7 PUSH2 0x2B37 JUMP JUMPDEST PUSH2 0x2B75 PUSH1 0x40 DUP4 ADD DUP6 PUSH2 0x1F87 JUMP JUMPDEST PUSH2 0x2B82 PUSH1 0x60 DUP4 ADD DUP5 PUSH2 0x1F87 JUMP JUMPDEST SWAP6 SWAP5 POP POP POP POP POP JUMP INVALID LOG2 PUSH5 0x6970667358 0x22 SLT KECCAK256 SWAP2 SLT PUSH13 0xF50D6237E9623A9BC5B0B84A79 0xA6 SSTORE SWAP8 LOG2 CHAINID 0xEE 0xC CALLDATASIZE 0x25 0xA6 0xD9 DELEGATECALL LOG1 0xF 0x4F ORIGIN PUSH5 0x736F6C6343 STOP ADDMOD EXP STOP CALLER "
				},
				"gasEstimates": {
					"creation": {
						"codeDepositCost": "2240200",
						"executionCost": "24503",
						"totalCost": "2264703"
					},
					"external": {
						"AddCandidate(address,uint256)": "infinite",
						"AllCandidates(uint256)": "infinite",
						"NoOfRegisteredCandidates(uint256)": "infinite",
						"VotingKey(uint256)": "infinite",
						"createPoll(string,uint32)": "infinite",
						"getVotePollProps(uint256)": "infinite",
						"metaVotingHash(address,uint256,uint256,uint256)": "infinite",
						"replayNonce(address)": "2881",
						"revealWinner(uint256)": "infinite",
						"setVotingState(uint256)": "32610",
						"vote(address,uint256,uint256,bytes)": "infinite",
						"votingPoll(uint256)": "infinite"
					},
					"internal": {
						"countVote(address,uint256,address)": "51269",
						"getPosition(uint256,uint256)": "6717",
						"getSigner(bytes32,bytes memory)": "infinite"
					}
				},
				"methodIdentifiers": {
					"AddCandidate(address,uint256)": "049d1c8b",
					"AllCandidates(uint256)": "8ac3c3c2",
					"NoOfRegisteredCandidates(uint256)": "66c5343b",
					"VotingKey(uint256)": "ae928e3e",
					"createPoll(string,uint32)": "f762f4c0",
					"getVotePollProps(uint256)": "278e2c90",
					"metaVotingHash(address,uint256,uint256,uint256)": "bfe2e25d",
					"replayNonce(address)": "67d407df",
					"revealWinner(uint256)": "8ccb59e8",
					"setVotingState(uint256)": "c57003cc",
					"vote(address,uint256,uint256,bytes)": "c10d6cec",
					"votingPoll(uint256)": "e615f104"
				}
			},
			"storageLayout": {
				"storage": [
					{
						"astId": 4,
						"contract": "src/voting.sol:Voting",
						"label": "id",
						"offset": 0,
						"slot": "0",
						"type": "t_uint256"
					},
					{
						"astId": 22,
						"contract": "src/voting.sol:Voting",
						"label": "VotingKey",
						"offset": 0,
						"slot": "1",
						"type": "t_array(t_struct(VotingPoll)18_storage)dyn_storage"
					},
					{
						"astId": 27,
						"contract": "src/voting.sol:Voting",
						"label": "votingPoll",
						"offset": 0,
						"slot": "2",
						"type": "t_mapping(t_uint256,t_struct(VotingPoll)18_storage)"
					},
					{
						"astId": 31,
						"contract": "src/voting.sol:Voting",
						"label": "replayNonce",
						"offset": 0,
						"slot": "3",
						"type": "t_mapping(t_address,t_uint256)"
					},
					{
						"astId": 37,
						"contract": "src/voting.sol:Voting",
						"label": "CandidateStatus",
						"offset": 0,
						"slot": "4",
						"type": "t_mapping(t_uint256,t_mapping(t_address,t_bool))"
					},
					{
						"astId": 43,
						"contract": "src/voting.sol:Voting",
						"label": "CandidateVote",
						"offset": 0,
						"slot": "5",
						"type": "t_mapping(t_uint256,t_mapping(t_address,t_uint256))"
					},
					{
						"astId": 49,
						"contract": "src/voting.sol:Voting",
						"label": "hasVoted",
						"offset": 0,
						"slot": "6",
						"type": "t_mapping(t_uint256,t_mapping(t_address,t_bool))"
					}
				],
				"types": {
					"t_address": {
						"encoding": "inplace",
						"label": "address",
						"numberOfBytes": "20"
					},
					"t_array(t_address)dyn_storage": {
						"base": "t_address",
						"encoding": "dynamic_array",
						"label": "address[]",
						"numberOfBytes": "32"
					},
					"t_array(t_struct(VotingPoll)18_storage)dyn_storage": {
						"base": "t_struct(VotingPoll)18_storage",
						"encoding": "dynamic_array",
						"label": "struct Voting.VotingPoll[]",
						"numberOfBytes": "32"
					},
					"t_bool": {
						"encoding": "inplace",
						"label": "bool",
						"numberOfBytes": "1"
					},
					"t_mapping(t_address,t_bool)": {
						"encoding": "mapping",
						"key": "t_address",
						"label": "mapping(address => bool)",
						"numberOfBytes": "32",
						"value": "t_bool"
					},
					"t_mapping(t_address,t_uint256)": {
						"encoding": "mapping",
						"key": "t_address",
						"label": "mapping(address => uint256)",
						"numberOfBytes": "32",
						"value": "t_uint256"
					},
					"t_mapping(t_uint256,t_mapping(t_address,t_bool))": {
						"encoding": "mapping",
						"key": "t_uint256",
						"label": "mapping(uint256 => mapping(address => bool))",
						"numberOfBytes": "32",
						"value": "t_mapping(t_address,t_bool)"
					},
					"t_mapping(t_uint256,t_mapping(t_address,t_uint256))": {
						"encoding": "mapping",
						"key": "t_uint256",
						"label": "mapping(uint256 => mapping(address => uint256))",
						"numberOfBytes": "32",
						"value": "t_mapping(t_address,t_uint256)"
					},
					"t_mapping(t_uint256,t_struct(VotingPoll)18_storage)": {
						"encoding": "mapping",
						"key": "t_uint256",
						"label": "mapping(uint256 => struct Voting.VotingPoll)",
						"numberOfBytes": "32",
						"value": "t_struct(VotingPoll)18_storage"
					},
					"t_string_storage": {
						"encoding": "bytes",
						"label": "string",
						"numberOfBytes": "32"
					},
					"t_struct(VotingPoll)18_storage": {
						"encoding": "inplace",
						"label": "struct Voting.VotingPoll",
						"members": [
							{
								"astId": 6,
								"contract": "src/voting.sol:Voting",
								"label": "name",
								"offset": 0,
								"slot": "0",
								"type": "t_string_storage"
							},
							{
								"astId": 8,
								"contract": "src/voting.sol:Voting",
								"label": "chairman",
								"offset": 0,
								"slot": "1",
								"type": "t_address"
							},
							{
								"astId": 11,
								"contract": "src/voting.sol:Voting",
								"label": "candidates",
								"offset": 0,
								"slot": "2",
								"type": "t_array(t_address)dyn_storage"
							},
							{
								"astId": 13,
								"contract": "src/voting.sol:Voting",
								"label": "maxNoOfCandidates",
								"offset": 0,
								"slot": "3",
								"type": "t_uint32"
							},
							{
								"astId": 15,
								"contract": "src/voting.sol:Voting",
								"label": "currentNoOfCandidates",
								"offset": 4,
								"slot": "3",
								"type": "t_uint32"
							},
							{
								"astId": 17,
								"contract": "src/voting.sol:Voting",
								"label": "voting",
								"offset": 8,
								"slot": "3",
								"type": "t_bool"
							}
						],
						"numberOfBytes": "128"
					},
					"t_uint256": {
						"encoding": "inplace",
						"label": "uint256",
						"numberOfBytes": "32"
					},
					"t_uint32": {
						"encoding": "inplace",
						"label": "uint32",
						"numberOfBytes": "4"
					}
				}
			},
			"userdoc": {
				"kind": "user",
				"methods": {},
				"version": 1
			}
		}
	}
}