{
	"src/voting.sol": {
		"Voting": {
			"abi": [
				{
					"anonymous": false,
					"inputs": [
						{
							"indexed": false,
							"internalType": "address",
							"name": "NewCandidate",
							"type": "address"
						}
					],
					"name": "becameCandidate",
					"type": "event"
				},
				{
					"anonymous": false,
					"inputs": [
						{
							"indexed": false,
							"internalType": "address",
							"name": "_candidate",
							"type": "address"
						},
						{
							"indexed": false,
							"internalType": "bool",
							"name": "status",
							"type": "bool"
						}
					],
					"name": "voted",
					"type": "event"
				},
				{
					"inputs": [
						{
							"internalType": "address",
							"name": "_newCandidate",
							"type": "address"
						},
						{
							"internalType": "string",
							"name": "_name",
							"type": "string"
						}
					],
					"name": "AddCandidate",
					"outputs": [],
					"stateMutability": "nonpayable",
					"type": "function"
				},
				{
					"inputs": [
						{
							"internalType": "string",
							"name": "_name",
							"type": "string"
						}
					],
					"name": "AllCandidates",
					"outputs": [
						{
							"internalType": "address[]",
							"name": "_candidates",
							"type": "address[]"
						}
					],
					"stateMutability": "view",
					"type": "function"
				},
				{
					"inputs": [
						{
							"internalType": "string",
							"name": "_name",
							"type": "string"
						}
					],
					"name": "NoOfRegisteredCandidates",
					"outputs": [
						{
							"internalType": "uint256",
							"name": "",
							"type": "uint256"
						}
					],
					"stateMutability": "view",
					"type": "function"
				},
				{
					"inputs": [
						{
							"internalType": "string",
							"name": "_name",
							"type": "string"
						},
						{
							"internalType": "uint16",
							"name": "ExpectedNoOfCandidate",
							"type": "uint16"
						}
					],
					"name": "createPoll",
					"outputs": [
						{
							"internalType": "string",
							"name": "",
							"type": "string"
						},
						{
							"internalType": "uint256",
							"name": "Candidate",
							"type": "uint256"
						}
					],
					"stateMutability": "nonpayable",
					"type": "function"
				},
				{
					"inputs": [
						{
							"internalType": "string",
							"name": "_name",
							"type": "string"
						}
					],
					"name": "getUint",
					"outputs": [
						{
							"internalType": "uint256",
							"name": "val",
							"type": "uint256"
						}
					],
					"stateMutability": "view",
					"type": "function"
				},
				{
					"inputs": [
						{
							"internalType": "address",
							"name": "Cand",
							"type": "address"
						},
						{
							"internalType": "string",
							"name": "_name",
							"type": "string"
						},
						{
							"internalType": "uint256",
							"name": "nonce",
							"type": "uint256"
						},
						{
							"internalType": "uint256",
							"name": "time",
							"type": "uint256"
						}
					],
					"name": "metaVotingHash",
					"outputs": [
						{
							"internalType": "bytes32",
							"name": "",
							"type": "bytes32"
						}
					],
					"stateMutability": "view",
					"type": "function"
				},
				{
					"inputs": [
						{
							"internalType": "address",
							"name": "",
							"type": "address"
						}
					],
					"name": "replayNonce",
					"outputs": [
						{
							"internalType": "uint256",
							"name": "",
							"type": "uint256"
						}
					],
					"stateMutability": "view",
					"type": "function"
				},
				{
					"inputs": [
						{
							"internalType": "string",
							"name": "_name",
							"type": "string"
						}
					],
					"name": "revealWinner",
					"outputs": [
						{
							"internalType": "uint256[]",
							"name": "CV",
							"type": "uint256[]"
						},
						{
							"internalType": "address",
							"name": "",
							"type": "address"
						},
						{
							"internalType": "uint256",
							"name": "",
							"type": "uint256"
						}
					],
					"stateMutability": "view",
					"type": "function"
				},
				{
					"inputs": [
						{
							"internalType": "string",
							"name": "_name",
							"type": "string"
						}
					],
					"name": "setVotingState",
					"outputs": [],
					"stateMutability": "nonpayable",
					"type": "function"
				},
				{
					"inputs": [
						{
							"internalType": "address",
							"name": "Cand",
							"type": "address"
						},
						{
							"internalType": "string",
							"name": "_name",
							"type": "string"
						}
					],
					"name": "vote",
					"outputs": [],
					"stateMutability": "nonpayable",
					"type": "function"
				},
				{
					"inputs": [
						{
							"internalType": "string",
							"name": "",
							"type": "string"
						}
					],
					"name": "votingPoll",
					"outputs": [
						{
							"internalType": "address",
							"name": "chairman",
							"type": "address"
						},
						{
							"internalType": "uint32",
							"name": "maxNoOfCandidates",
							"type": "uint32"
						},
						{
							"internalType": "uint64",
							"name": "startTime",
							"type": "uint64"
						},
						{
							"internalType": "uint64",
							"name": "amountGenerated",
							"type": "uint64"
						},
						{
							"internalType": "uint16",
							"name": "currentNoOfCandidates",
							"type": "uint16"
						},
						{
							"internalType": "bool",
							"name": "voting",
							"type": "bool"
						}
					],
					"stateMutability": "view",
					"type": "function"
				},
				{
					"stateMutability": "payable",
					"type": "receive"
				}
			],
			"devdoc": {
				"kind": "dev",
				"methods": {},
				"version": 1
			},
			"evm": {
				"assembly": "    /* \"src/voting.sol\":63:5324  contract Voting{... */\n  mstore(0x40, 0x80)\n  callvalue\n  dup1\n  iszero\n  tag_1\n  jumpi\n  0x00\n  dup1\n  revert\ntag_1:\n  pop\n  dataSize(sub_0)\n  dup1\n  dataOffset(sub_0)\n  0x00\n  codecopy\n  0x00\n  return\nstop\n\nsub_0: assembly {\n        /* \"src/voting.sol\":63:5324  contract Voting{... */\n      mstore(0x40, 0x80)\n      jumpi(tag_1, lt(calldatasize, 0x04))\n      shr(0xe0, calldataload(0x00))\n      dup1\n      0x57f53967\n      gt\n      tag_14\n      jumpi\n      dup1\n      0x57f53967\n      eq\n      tag_8\n      jumpi\n      dup1\n      0x63ee965a\n      eq\n      tag_9\n      jumpi\n      dup1\n      0x67d407df\n      eq\n      tag_10\n      jumpi\n      dup1\n      0x8579cacd\n      eq\n      tag_11\n      jumpi\n      dup1\n      0xaf7cbc0d\n      eq\n      tag_12\n      jumpi\n      dup1\n      0xf0e4de22\n      eq\n      tag_13\n      jumpi\n      jump(tag_2)\n    tag_14:\n      dup1\n      0x01ff993b\n      eq\n      tag_3\n      jumpi\n      dup1\n      0x0968d4b1\n      eq\n      tag_4\n      jumpi\n      dup1\n      0x1bf533a4\n      eq\n      tag_5\n      jumpi\n      dup1\n      0x498bff00\n      eq\n      tag_6\n      jumpi\n      dup1\n      0x4fcf1f39\n      eq\n      tag_7\n      jumpi\n      jump(tag_2)\n    tag_1:\n      jumpi(tag_2, calldatasize)\n      stop\n    tag_2:\n      0x00\n      dup1\n      revert\n        /* \"src/voting.sol\":4475:4703  function metaVotingHash(address Cand, string memory _name, uint256 nonce, uint256 time) public view returns(bytes32){... */\n    tag_3:\n      callvalue\n      dup1\n      iszero\n      tag_17\n      jumpi\n      0x00\n      dup1\n      revert\n    tag_17:\n      pop\n      tag_18\n      0x04\n      dup1\n      calldatasize\n      sub\n      dup2\n      add\n      swap1\n      tag_19\n      swap2\n      swap1\n      tag_20\n      jump\t// in\n    tag_19:\n      tag_21\n      jump\t// in\n    tag_18:\n      mload(0x40)\n      tag_22\n      swap2\n      swap1\n      tag_23\n      jump\t// in\n    tag_22:\n      mload(0x40)\n      dup1\n      swap2\n      sub\n      swap1\n      return\n        /* \"src/voting.sol\":1482:1771  function createPoll(string memory _name, uint16 ExpectedNoOfCandidate) external returns(string memory, uint Candidate){... */\n    tag_4:\n      callvalue\n      dup1\n      iszero\n      tag_24\n      jumpi\n      0x00\n      dup1\n      revert\n    tag_24:\n      pop\n      tag_25\n      0x04\n      dup1\n      calldatasize\n      sub\n      dup2\n      add\n      swap1\n      tag_26\n      swap2\n      swap1\n      tag_27\n      jump\t// in\n    tag_26:\n      tag_28\n      jump\t// in\n    tag_25:\n      mload(0x40)\n      tag_29\n      swap3\n      swap2\n      swap1\n      tag_30\n      jump\t// in\n    tag_29:\n      mload(0x40)\n      dup1\n      swap2\n      sub\n      swap1\n      return\n        /* \"src/voting.sol\":2290:2875  function vote(address Cand, string memory _name /*, uint256 nonce, bytes memory signature*/) external  isCandidate(Cand, _name) StillVoting(_name){... */\n    tag_5:\n      callvalue\n      dup1\n      iszero\n      tag_31\n      jumpi\n      0x00\n      dup1\n      revert\n    tag_31:\n      pop\n      tag_32\n      0x04\n      dup1\n      calldatasize\n      sub\n      dup2\n      add\n      swap1\n      tag_33\n      swap2\n      swap1\n      tag_34\n      jump\t// in\n    tag_33:\n      tag_35\n      jump\t// in\n    tag_32:\n      stop\n        /* \"src/voting.sol\":4295:4468  function getUint( string memory _name) external view returns(uint val){... */\n    tag_6:\n      callvalue\n      dup1\n      iszero\n      tag_36\n      jumpi\n      0x00\n      dup1\n      revert\n    tag_36:\n      pop\n      tag_37\n      0x04\n      dup1\n      calldatasize\n      sub\n      dup2\n      add\n      swap1\n      tag_38\n      swap2\n      swap1\n      tag_39\n      jump\t// in\n    tag_38:\n      tag_40\n      jump\t// in\n    tag_37:\n      mload(0x40)\n      tag_41\n      swap2\n      swap1\n      tag_42\n      jump\t// in\n    tag_41:\n      mload(0x40)\n      dup1\n      swap2\n      sub\n      swap1\n      return\n        /* \"src/voting.sol\":3481:4087  function revealWinner( string memory _name) external view returns ( uint[] memory CV, address, uint){... */\n    tag_7:\n      callvalue\n      dup1\n      iszero\n      tag_43\n      jumpi\n      0x00\n      dup1\n      revert\n    tag_43:\n      pop\n      tag_44\n      0x04\n      dup1\n      calldatasize\n      sub\n      dup2\n      add\n      swap1\n      tag_45\n      swap2\n      swap1\n      tag_39\n      jump\t// in\n    tag_45:\n      tag_46\n      jump\t// in\n    tag_44:\n      mload(0x40)\n      tag_47\n      swap4\n      swap3\n      swap2\n      swap1\n      tag_48\n      jump\t// in\n    tag_47:\n      mload(0x40)\n      dup1\n      swap2\n      sub\n      swap1\n      return\n        /* \"src/voting.sol\":1775:2287  function AddCandidate(address _newCandidate, string memory _name) external{... */\n    tag_8:\n      callvalue\n      dup1\n      iszero\n      tag_49\n      jumpi\n      0x00\n      dup1\n      revert\n    tag_49:\n      pop\n      tag_50\n      0x04\n      dup1\n      calldatasize\n      sub\n      dup2\n      add\n      swap1\n      tag_51\n      swap2\n      swap1\n      tag_34\n      jump\t// in\n    tag_51:\n      tag_52\n      jump\t// in\n    tag_50:\n      stop\n        /* \"src/voting.sol\":670:717  mapping(string => VotingPoll) public votingPoll */\n    tag_9:\n      callvalue\n      dup1\n      iszero\n      tag_53\n      jumpi\n      0x00\n      dup1\n      revert\n    tag_53:\n      pop\n      tag_54\n      0x04\n      dup1\n      calldatasize\n      sub\n      dup2\n      add\n      swap1\n      tag_55\n      swap2\n      swap1\n      tag_39\n      jump\t// in\n    tag_55:\n      tag_56\n      jump\t// in\n    tag_54:\n      mload(0x40)\n      tag_57\n      swap7\n      swap6\n      swap5\n      swap4\n      swap3\n      swap2\n      swap1\n      tag_58\n      jump\t// in\n    tag_57:\n      mload(0x40)\n      dup1\n      swap2\n      sub\n      swap1\n      return\n        /* \"src/voting.sol\":723:770  mapping (address => uint256) public replayNonce */\n    tag_10:\n      callvalue\n      dup1\n      iszero\n      tag_59\n      jumpi\n      0x00\n      dup1\n      revert\n    tag_59:\n      pop\n      tag_60\n      0x04\n      dup1\n      calldatasize\n      sub\n      dup2\n      add\n      swap1\n      tag_61\n      swap2\n      swap1\n      tag_62\n      jump\t// in\n    tag_61:\n      tag_63\n      jump\t// in\n    tag_60:\n      mload(0x40)\n      tag_64\n      swap2\n      swap1\n      tag_42\n      jump\t// in\n    tag_64:\n      mload(0x40)\n      dup1\n      swap2\n      sub\n      swap1\n      return\n        /* \"src/voting.sol\":3126:3297  function NoOfRegisteredCandidates( string memory _name) public view returns(uint){... */\n    tag_11:\n      callvalue\n      dup1\n      iszero\n      tag_65\n      jumpi\n      0x00\n      dup1\n      revert\n    tag_65:\n      pop\n      tag_66\n      0x04\n      dup1\n      calldatasize\n      sub\n      dup2\n      add\n      swap1\n      tag_67\n      swap2\n      swap1\n      tag_39\n      jump\t// in\n    tag_67:\n      tag_68\n      jump\t// in\n    tag_66:\n      mload(0x40)\n      tag_69\n      swap2\n      swap1\n      tag_42\n      jump\t// in\n    tag_69:\n      mload(0x40)\n      dup1\n      swap2\n      sub\n      swap1\n      return\n        /* \"src/voting.sol\":3305:3478  function AllCandidates( string memory _name) public view returns(address[] memory _candidates){... */\n    tag_12:\n      callvalue\n      dup1\n      iszero\n      tag_70\n      jumpi\n      0x00\n      dup1\n      revert\n    tag_70:\n      pop\n      tag_71\n      0x04\n      dup1\n      calldatasize\n      sub\n      dup2\n      add\n      swap1\n      tag_72\n      swap2\n      swap1\n      tag_39\n      jump\t// in\n    tag_72:\n      tag_73\n      jump\t// in\n    tag_71:\n      mload(0x40)\n      tag_74\n      swap2\n      swap1\n      tag_75\n      jump\t// in\n    tag_74:\n      mload(0x40)\n      dup1\n      swap2\n      sub\n      swap1\n      return\n        /* \"src/voting.sol\":4090:4292  function setVotingState( string memory _name) external {... */\n    tag_13:\n      callvalue\n      dup1\n      iszero\n      tag_76\n      jumpi\n      0x00\n      dup1\n      revert\n    tag_76:\n      pop\n      tag_77\n      0x04\n      dup1\n      calldatasize\n      sub\n      dup2\n      add\n      swap1\n      tag_78\n      swap2\n      swap1\n      tag_39\n      jump\t// in\n    tag_78:\n      tag_79\n      jump\t// in\n    tag_77:\n      stop\n        /* \"src/voting.sol\":4475:4703  function metaVotingHash(address Cand, string memory _name, uint256 nonce, uint256 time) public view returns(bytes32){... */\n    tag_21:\n        /* \"src/voting.sol\":4583:4590  bytes32 */\n      0x00\n        /* \"src/voting.sol\":4639:4643  this */\n      address\n        /* \"src/voting.sol\":4672:4676  Cand */\n      dup6\n        /* \"src/voting.sol\":4678:4683  _name */\n      dup6\n        /* \"src/voting.sol\":4685:4690  nonce */\n      dup6\n        /* \"src/voting.sol\":4692:4696  time */\n      dup6\n        /* \"src/voting.sol\":4614:4697  abi.encodePacked(address(this),\"metatransaction Voting \", Cand, _name, nonce, time) */\n      add(0x20, mload(0x40))\n      tag_81\n      swap6\n      swap5\n      swap4\n      swap3\n      swap2\n      swap1\n      tag_82\n      jump\t// in\n    tag_81:\n      mload(0x40)\n      0x20\n      dup2\n      dup4\n      sub\n      sub\n      dup2\n      mstore\n      swap1\n      0x40\n      mstore\n        /* \"src/voting.sol\":4604:4698  keccak256(abi.encodePacked(address(this),\"metatransaction Voting \", Cand, _name, nonce, time)) */\n      dup1\n      mload\n      swap1\n      0x20\n      add\n      keccak256\n        /* \"src/voting.sol\":4597:4698  return keccak256(abi.encodePacked(address(this),\"metatransaction Voting \", Cand, _name, nonce, time)) */\n      swap1\n      pop\n        /* \"src/voting.sol\":4475:4703  function metaVotingHash(address Cand, string memory _name, uint256 nonce, uint256 time) public view returns(bytes32){... */\n      swap5\n      swap4\n      pop\n      pop\n      pop\n      pop\n      jump\t// out\n        /* \"src/voting.sol\":1482:1771  function createPoll(string memory _name, uint16 ExpectedNoOfCandidate) external returns(string memory, uint Candidate){... */\n    tag_28:\n        /* \"src/voting.sol\":1570:1583  string memory */\n      0x60\n        /* \"src/voting.sol\":1585:1599  uint Candidate */\n      0x00\n        /* \"src/voting.sol\":1606:1627  VotingPoll storage VP */\n      dup1\n        /* \"src/voting.sol\":1630:1640  votingPoll */\n      0x00\n        /* \"src/voting.sol\":1641:1646  _name */\n      dup6\n        /* \"src/voting.sol\":1630:1647  votingPoll[_name] */\n      mload(0x40)\n      tag_84\n      swap2\n      swap1\n      tag_85\n      jump\t// in\n    tag_84:\n      swap1\n      dup2\n      mstore\n      0x20\n      add\n      mload(0x40)\n      dup1\n      swap2\n      sub\n      swap1\n      keccak256\n        /* \"src/voting.sol\":1606:1647  VotingPoll storage VP = votingPoll[_name] */\n      swap1\n      pop\n        /* \"src/voting.sol\":1667:1677  msg.sender */\n      caller\n        /* \"src/voting.sol\":1653:1655  VP */\n      dup2\n        /* \"src/voting.sol\":1653:1664  VP.chairman */\n      0x00\n      add\n      0x00\n        /* \"src/voting.sol\":1653:1677  VP.chairman = msg.sender */\n      0x0100\n      exp\n      dup2\n      sload\n      dup2\n      0xffffffffffffffffffffffffffffffffffffffff\n      mul\n      not\n      and\n      swap1\n      dup4\n      0xffffffffffffffffffffffffffffffffffffffff\n      and\n      mul\n      or\n      swap1\n      sstore\n      pop\n        /* \"src/voting.sol\":1705:1726  ExpectedNoOfCandidate */\n      dup4\n        /* \"src/voting.sol\":1683:1726  VP.maxNoOfCandidates =ExpectedNoOfCandidate */\n      0xffff\n      and\n        /* \"src/voting.sol\":1683:1685  VP */\n      dup2\n        /* \"src/voting.sol\":1683:1703  VP.maxNoOfCandidates */\n      0x02\n      add\n      0x00\n        /* \"src/voting.sol\":1683:1726  VP.maxNoOfCandidates =ExpectedNoOfCandidate */\n      0x0100\n      exp\n      dup2\n      sload\n      dup2\n      0xffffffff\n      mul\n      not\n      and\n      swap1\n      dup4\n      0xffffffff\n      and\n      mul\n      or\n      swap1\n      sstore\n      pop\n        /* \"src/voting.sol\":1739:1744  _name */\n      dup5\n        /* \"src/voting.sol\":1746:1767  ExpectedNoOfCandidate */\n      dup5\n        /* \"src/voting.sol\":1732:1768  return(_name, ExpectedNoOfCandidate) */\n      dup1\n      0xffff\n      and\n      swap1\n      pop\n      swap3\n      pop\n      swap3\n      pop\n      pop\n        /* \"src/voting.sol\":1482:1771  function createPoll(string memory _name, uint16 ExpectedNoOfCandidate) external returns(string memory, uint Candidate){... */\n      swap3\n      pop\n      swap3\n      swap1\n      pop\n      jump\t// out\n        /* \"src/voting.sol\":2290:2875  function vote(address Cand, string memory _name /*, uint256 nonce, bytes memory signature*/) external  isCandidate(Cand, _name) StillVoting(_name){... */\n    tag_35:\n        /* \"src/voting.sol\":2405:2409  Cand */\n      dup2\n        /* \"src/voting.sol\":2411:2416  _name */\n      dup2\n        /* \"src/voting.sol\":1050:1071  VotingPoll storage VP */\n      0x00\n        /* \"src/voting.sol\":1074:1084  votingPoll */\n      dup1\n        /* \"src/voting.sol\":1085:1090  _name */\n      dup3\n        /* \"src/voting.sol\":1074:1091  votingPoll[_name] */\n      mload(0x40)\n      tag_87\n      swap2\n      swap1\n      tag_85\n      jump\t// in\n    tag_87:\n      swap1\n      dup2\n      mstore\n      0x20\n      add\n      mload(0x40)\n      dup1\n      swap2\n      sub\n      swap1\n      keccak256\n        /* \"src/voting.sol\":1050:1091  VotingPoll storage VP = votingPoll[_name] */\n      swap1\n      pop\n        /* \"src/voting.sol\":1131:1135  true */\n      0x01\n        /* \"src/voting.sol\":1105:1135  VP.CandidateStatus[Cand]==true */\n      iszero\n      iszero\n        /* \"src/voting.sol\":1105:1107  VP */\n      dup2\n        /* \"src/voting.sol\":1105:1123  VP.CandidateStatus */\n      0x03\n      add\n        /* \"src/voting.sol\":1105:1129  VP.CandidateStatus[Cand] */\n      0x00\n        /* \"src/voting.sol\":1124:1128  Cand */\n      dup6\n        /* \"src/voting.sol\":1105:1129  VP.CandidateStatus[Cand] */\n      0xffffffffffffffffffffffffffffffffffffffff\n      and\n      0xffffffffffffffffffffffffffffffffffffffff\n      and\n      dup2\n      mstore\n      0x20\n      add\n      swap1\n      dup2\n      mstore\n      0x20\n      add\n      0x00\n      keccak256\n      0x00\n      swap1\n      sload\n      swap1\n      0x0100\n      exp\n      swap1\n      div\n      0xff\n      and\n        /* \"src/voting.sol\":1105:1135  VP.CandidateStatus[Cand]==true */\n      iszero\n      iszero\n      eq\n        /* \"src/voting.sol\":1097:1181  require(VP.CandidateStatus[Cand]==true,'This address does not exist as a candidate') */\n      tag_88\n      jumpi\n      mload(0x40)\n      0x08c379a000000000000000000000000000000000000000000000000000000000\n      dup2\n      mstore\n      0x04\n      add\n      tag_89\n      swap1\n      tag_90\n      jump\t// in\n    tag_89:\n      mload(0x40)\n      dup1\n      swap2\n      sub\n      swap1\n      revert\n    tag_88:\n        /* \"src/voting.sol\":2430:2435  _name */\n      dup4\n        /* \"src/voting.sol\":1242:1263  VotingPoll storage VP */\n      0x00\n        /* \"src/voting.sol\":1266:1276  votingPoll */\n      dup1\n        /* \"src/voting.sol\":1277:1282  _name */\n      dup3\n        /* \"src/voting.sol\":1266:1283  votingPoll[_name] */\n      mload(0x40)\n      tag_92\n      swap2\n      swap1\n      tag_85\n      jump\t// in\n    tag_92:\n      swap1\n      dup2\n      mstore\n      0x20\n      add\n      mload(0x40)\n      dup1\n      swap2\n      sub\n      swap1\n      keccak256\n        /* \"src/voting.sol\":1242:1283  VotingPoll storage VP = votingPoll[_name] */\n      swap1\n      pop\n        /* \"src/voting.sol\":1310:1314  true */\n      0x01\n        /* \"src/voting.sol\":1297:1314  VP.voting == true */\n      iszero\n      iszero\n        /* \"src/voting.sol\":1297:1299  VP */\n      dup2\n        /* \"src/voting.sol\":1297:1306  VP.voting */\n      0x02\n      add\n      0x16\n      swap1\n      sload\n      swap1\n      0x0100\n      exp\n      swap1\n      div\n      0xff\n      and\n        /* \"src/voting.sol\":1297:1314  VP.voting == true */\n      iszero\n      iszero\n      eq\n        /* \"src/voting.sol\":1289:1335  require(VP.voting == true, \"voting has ended\") */\n      tag_93\n      jumpi\n      mload(0x40)\n      0x08c379a000000000000000000000000000000000000000000000000000000000\n      dup2\n      mstore\n      0x04\n      add\n      tag_94\n      swap1\n      tag_95\n      jump\t// in\n    tag_94:\n      mload(0x40)\n      dup1\n      swap2\n      sub\n      swap1\n      revert\n    tag_93:\n        /* \"src/voting.sol\":2689:2710  VotingPoll storage VP */\n      0x00\n        /* \"src/voting.sol\":2713:2723  votingPoll */\n      dup1\n        /* \"src/voting.sol\":2724:2729  _name */\n      dup8\n        /* \"src/voting.sol\":2713:2730  votingPoll[_name] */\n      mload(0x40)\n      tag_97\n      swap2\n      swap1\n      tag_85\n      jump\t// in\n    tag_97:\n      swap1\n      dup2\n      mstore\n      0x20\n      add\n      mload(0x40)\n      dup1\n      swap2\n      sub\n      swap1\n      keccak256\n        /* \"src/voting.sol\":2689:2730  VotingPoll storage VP = votingPoll[_name] */\n      swap1\n      pop\n        /* \"src/voting.sol\":2772:2777  false */\n      0x00\n        /* \"src/voting.sol\":2745:2777  VP.hasVoted[msg.sender] == false */\n      iszero\n      iszero\n        /* \"src/voting.sol\":2745:2747  VP */\n      dup2\n        /* \"src/voting.sol\":2745:2756  VP.hasVoted */\n      0x04\n      add\n        /* \"src/voting.sol\":2745:2768  VP.hasVoted[msg.sender] */\n      0x00\n        /* \"src/voting.sol\":2757:2767  msg.sender */\n      caller\n        /* \"src/voting.sol\":2745:2768  VP.hasVoted[msg.sender] */\n      0xffffffffffffffffffffffffffffffffffffffff\n      and\n      0xffffffffffffffffffffffffffffffffffffffff\n      and\n      dup2\n      mstore\n      0x20\n      add\n      swap1\n      dup2\n      mstore\n      0x20\n      add\n      0x00\n      keccak256\n      0x00\n      swap1\n      sload\n      swap1\n      0x0100\n      exp\n      swap1\n      div\n      0xff\n      and\n        /* \"src/voting.sol\":2745:2777  VP.hasVoted[msg.sender] == false */\n      iszero\n      iszero\n      eq\n        /* \"src/voting.sol\":2737:2799  require(VP.hasVoted[msg.sender] == false, \"You already voted\") */\n      tag_98\n      jumpi\n      mload(0x40)\n      0x08c379a000000000000000000000000000000000000000000000000000000000\n      dup2\n      mstore\n      0x04\n      add\n      tag_99\n      swap1\n      tag_100\n      jump\t// in\n    tag_99:\n      mload(0x40)\n      dup1\n      swap2\n      sub\n      swap1\n      revert\n    tag_98:\n        /* \"src/voting.sol\":2807:2841  countVote(Cand, _name, msg.sender) */\n      tag_101\n        /* \"src/voting.sol\":2817:2821  Cand */\n      dup9\n        /* \"src/voting.sol\":2823:2828  _name */\n      dup9\n        /* \"src/voting.sol\":2830:2840  msg.sender */\n      caller\n        /* \"src/voting.sol\":2807:2816  countVote */\n      tag_102\n        /* \"src/voting.sol\":2807:2841  countVote(Cand, _name, msg.sender) */\n      jump\t// in\n    tag_101:\n      pop\n        /* \"src/voting.sol\":2853:2870  voted(Cand, true) */\n      0xf3f16a15f074b71c5138107dfc7c63b80524d5411cb967caa97d8d9f12b2fd6b\n        /* \"src/voting.sol\":2859:2863  Cand */\n      dup9\n        /* \"src/voting.sol\":2865:2869  true */\n      0x01\n        /* \"src/voting.sol\":2853:2870  voted(Cand, true) */\n      mload(0x40)\n      tag_103\n      swap3\n      swap2\n      swap1\n      tag_104\n      jump\t// in\n    tag_103:\n      mload(0x40)\n      dup1\n      swap2\n      sub\n      swap1\n      log1\n        /* \"src/voting.sol\":2436:2875  {... */\n      pop\n        /* \"src/voting.sol\":1236:1346  {... */\n      pop\n        /* \"src/voting.sol\":1187:1188  _ */\n      pop\n        /* \"src/voting.sol\":1044:1191  {... */\n      pop\n        /* \"src/voting.sol\":2290:2875  function vote(address Cand, string memory _name /*, uint256 nonce, bytes memory signature*/) external  isCandidate(Cand, _name) StillVoting(_name){... */\n      pop\n      pop\n      pop\n      pop\n      jump\t// out\n        /* \"src/voting.sol\":4295:4468  function getUint( string memory _name) external view returns(uint val){... */\n    tag_40:\n        /* \"src/voting.sol\":4356:4364  uint val */\n      0x00\n        /* \"src/voting.sol\":4372:4393  VotingPoll storage VP */\n      dup1\n        /* \"src/voting.sol\":4396:4406  votingPoll */\n      0x00\n        /* \"src/voting.sol\":4407:4412  _name */\n      dup4\n        /* \"src/voting.sol\":4396:4413  votingPoll[_name] */\n      mload(0x40)\n      tag_106\n      swap2\n      swap1\n      tag_85\n      jump\t// in\n    tag_106:\n      swap1\n      dup2\n      mstore\n      0x20\n      add\n      mload(0x40)\n      dup1\n      swap2\n      sub\n      swap1\n      keccak256\n        /* \"src/voting.sol\":4372:4413  VotingPoll storage VP = votingPoll[_name] */\n      swap1\n      pop\n        /* \"src/voting.sol\":4428:4430  VP */\n      dup1\n        /* \"src/voting.sol\":4428:4444  VP.CandidateVote */\n      0x05\n      add\n        /* \"src/voting.sol\":4428:4462  VP.CandidateVote[VP.candidates[0]] */\n      0x00\n        /* \"src/voting.sol\":4445:4447  VP */\n      dup3\n        /* \"src/voting.sol\":4445:4458  VP.candidates */\n      0x01\n      add\n        /* \"src/voting.sol\":4459:4460  0 */\n      0x00\n        /* \"src/voting.sol\":4445:4461  VP.candidates[0] */\n      dup2\n      sload\n      dup2\n      lt\n      tag_107\n      jumpi\n      tag_108\n      tag_109\n      jump\t// in\n    tag_108:\n    tag_107:\n      swap1\n      0x00\n      mstore\n      keccak256(0x00, 0x20)\n      add\n      0x00\n      swap1\n      sload\n      swap1\n      0x0100\n      exp\n      swap1\n      div\n      0xffffffffffffffffffffffffffffffffffffffff\n      and\n        /* \"src/voting.sol\":4428:4462  VP.CandidateVote[VP.candidates[0]] */\n      0xffffffffffffffffffffffffffffffffffffffff\n      and\n      0xffffffffffffffffffffffffffffffffffffffff\n      and\n      dup2\n      mstore\n      0x20\n      add\n      swap1\n      dup2\n      mstore\n      0x20\n      add\n      0x00\n      keccak256\n      sload\n        /* \"src/voting.sol\":4422:4462  val = VP.CandidateVote[VP.candidates[0]] */\n      swap2\n      pop\n        /* \"src/voting.sol\":4365:4468  {... */\n      pop\n        /* \"src/voting.sol\":4295:4468  function getUint( string memory _name) external view returns(uint val){... */\n      swap2\n      swap1\n      pop\n      jump\t// out\n        /* \"src/voting.sol\":3481:4087  function revealWinner( string memory _name) external view returns ( uint[] memory CV, address, uint){... */\n    tag_46:\n        /* \"src/voting.sol\":3549:3565  uint[] memory CV */\n      0x60\n        /* \"src/voting.sol\":3567:3574  address */\n      0x00\n        /* \"src/voting.sol\":3576:3580  uint */\n      dup1\n        /* \"src/voting.sol\":3588:3609  VotingPoll storage VP */\n      0x00\n        /* \"src/voting.sol\":3612:3622  votingPoll */\n      dup1\n        /* \"src/voting.sol\":3623:3628  _name */\n      dup6\n        /* \"src/voting.sol\":3612:3629  votingPoll[_name] */\n      mload(0x40)\n      tag_112\n      swap2\n      swap1\n      tag_85\n      jump\t// in\n    tag_112:\n      swap1\n      dup2\n      mstore\n      0x20\n      add\n      mload(0x40)\n      dup1\n      swap2\n      sub\n      swap1\n      keccak256\n        /* \"src/voting.sol\":3588:3629  VotingPoll storage VP = votingPoll[_name] */\n      swap1\n      pop\n        /* \"src/voting.sol\":3667:3668  0 */\n      0x00\n        /* \"src/voting.sol\":3644:3669  VP.chairman != address(0) */\n      0xffffffffffffffffffffffffffffffffffffffff\n      and\n        /* \"src/voting.sol\":3644:3646  VP */\n      dup2\n        /* \"src/voting.sol\":3644:3655  VP.chairman */\n      0x00\n      add\n      0x00\n      swap1\n      sload\n      swap1\n      0x0100\n      exp\n      swap1\n      div\n      0xffffffffffffffffffffffffffffffffffffffff\n      and\n        /* \"src/voting.sol\":3644:3669  VP.chairman != address(0) */\n      0xffffffffffffffffffffffffffffffffffffffff\n      and\n      eq\n      iszero\n        /* \"src/voting.sol\":3636:3689  require(VP.chairman != address(0), \"No poll created\") */\n      tag_113\n      jumpi\n      mload(0x40)\n      0x08c379a000000000000000000000000000000000000000000000000000000000\n      dup2\n      mstore\n      0x04\n      add\n      tag_114\n      swap1\n      tag_115\n      jump\t// in\n    tag_114:\n      mload(0x40)\n      dup1\n      swap2\n      sub\n      swap1\n      revert\n    tag_113:\n        /* \"src/voting.sol\":3712:3714  VP */\n      dup1\n        /* \"src/voting.sol\":3712:3725  VP.candidates */\n      0x01\n      add\n        /* \"src/voting.sol\":3712:3732  VP.candidates.length */\n      dup1\n      sload\n      swap1\n      pop\n        /* \"src/voting.sol\":3701:3733  new uint[](VP.candidates.length) */\n      0xffffffffffffffff\n      dup2\n      gt\n      iszero\n      tag_116\n      jumpi\n      tag_117\n      tag_118\n      jump\t// in\n    tag_117:\n    tag_116:\n      mload(0x40)\n      swap1\n      dup1\n      dup3\n      mstore\n      dup1\n      0x20\n      mul\n      0x20\n      add\n      dup3\n      add\n      0x40\n      mstore\n      dup1\n      iszero\n      tag_119\n      jumpi\n      dup2\n      0x20\n      add\n      0x20\n      dup3\n      mul\n      dup1\n      calldatasize\n      dup4\n      calldatacopy\n      dup1\n      dup3\n      add\n      swap2\n      pop\n      pop\n      swap1\n      pop\n    tag_119:\n      pop\n        /* \"src/voting.sol\":3696:3733  CV = new uint[](VP.candidates.length) */\n      swap4\n      pop\n        /* \"src/voting.sol\":3740:3756  uint highestVote */\n      0x00\n        /* \"src/voting.sol\":3763:3777  address winner */\n      dup1\n        /* \"src/voting.sol\":3789:3795  uint i */\n      0x00\n        /* \"src/voting.sol\":3784:4045  for (uint i =0; i <= VP.candidates.length; i++){... */\n    tag_120:\n        /* \"src/voting.sol\":3805:3807  VP */\n      dup4\n        /* \"src/voting.sol\":3805:3818  VP.candidates */\n      0x01\n      add\n        /* \"src/voting.sol\":3805:3825  VP.candidates.length */\n      dup1\n      sload\n      swap1\n      pop\n        /* \"src/voting.sol\":3800:3801  i */\n      dup2\n        /* \"src/voting.sol\":3800:3825  i <= VP.candidates.length */\n      gt\n        /* \"src/voting.sol\":3784:4045  for (uint i =0; i <= VP.candidates.length; i++){... */\n      tag_121\n      jumpi\n        /* \"src/voting.sol\":3840:3848  uint val */\n      0x00\n        /* \"src/voting.sol\":3851:3853  VP */\n      dup5\n        /* \"src/voting.sol\":3851:3867  VP.CandidateVote */\n      0x05\n      add\n        /* \"src/voting.sol\":3851:3885  VP.CandidateVote[VP.candidates[i]] */\n      0x00\n        /* \"src/voting.sol\":3868:3870  VP */\n      dup7\n        /* \"src/voting.sol\":3868:3881  VP.candidates */\n      0x01\n      add\n        /* \"src/voting.sol\":3882:3883  i */\n      dup5\n        /* \"src/voting.sol\":3868:3884  VP.candidates[i] */\n      dup2\n      sload\n      dup2\n      lt\n      tag_123\n      jumpi\n      tag_124\n      tag_109\n      jump\t// in\n    tag_124:\n    tag_123:\n      swap1\n      0x00\n      mstore\n      keccak256(0x00, 0x20)\n      add\n      0x00\n      swap1\n      sload\n      swap1\n      0x0100\n      exp\n      swap1\n      div\n      0xffffffffffffffffffffffffffffffffffffffff\n      and\n        /* \"src/voting.sol\":3851:3885  VP.CandidateVote[VP.candidates[i]] */\n      0xffffffffffffffffffffffffffffffffffffffff\n      and\n      0xffffffffffffffffffffffffffffffffffffffff\n      and\n      dup2\n      mstore\n      0x20\n      add\n      swap1\n      dup2\n      mstore\n      0x20\n      add\n      0x00\n      keccak256\n      sload\n        /* \"src/voting.sol\":3840:3885  uint val = VP.CandidateVote[VP.candidates[i]] */\n      swap1\n      pop\n        /* \"src/voting.sol\":3901:3912  highestVote */\n      dup4\n        /* \"src/voting.sol\":3895:3898  val */\n      dup2\n        /* \"src/voting.sol\":3895:3912  val > highestVote */\n      gt\n        /* \"src/voting.sol\":3892:3986  if(val > highestVote){... */\n      iszero\n      tag_126\n      jumpi\n        /* \"src/voting.sol\":3938:3941  val */\n      dup1\n        /* \"src/voting.sol\":3924:3941  highestVote = val */\n      swap4\n      pop\n        /* \"src/voting.sol\":3962:3964  VP */\n      dup5\n        /* \"src/voting.sol\":3962:3975  VP.candidates */\n      0x01\n      add\n        /* \"src/voting.sol\":3976:3977  i */\n      dup3\n        /* \"src/voting.sol\":3962:3978  VP.candidates[i] */\n      dup2\n      sload\n      dup2\n      lt\n      tag_127\n      jumpi\n      tag_128\n      tag_109\n      jump\t// in\n    tag_128:\n    tag_127:\n      swap1\n      0x00\n      mstore\n      keccak256(0x00, 0x20)\n      add\n      0x00\n      swap1\n      sload\n      swap1\n      0x0100\n      exp\n      swap1\n      div\n      0xffffffffffffffffffffffffffffffffffffffff\n      and\n        /* \"src/voting.sol\":3953:3978  winner = VP.candidates[i] */\n      swap3\n      pop\n        /* \"src/voting.sol\":3892:3986  if(val > highestVote){... */\n    tag_126:\n        /* \"src/voting.sol\":4001:4003  VP */\n      dup5\n        /* \"src/voting.sol\":4001:4017  VP.CandidateVote */\n      0x05\n      add\n        /* \"src/voting.sol\":4001:4035  VP.CandidateVote[VP.candidates[i]] */\n      0x00\n        /* \"src/voting.sol\":4018:4020  VP */\n      dup7\n        /* \"src/voting.sol\":4018:4031  VP.candidates */\n      0x01\n      add\n        /* \"src/voting.sol\":4032:4033  i */\n      dup5\n        /* \"src/voting.sol\":4018:4034  VP.candidates[i] */\n      dup2\n      sload\n      dup2\n      lt\n      tag_130\n      jumpi\n      tag_131\n      tag_109\n      jump\t// in\n    tag_131:\n    tag_130:\n      swap1\n      0x00\n      mstore\n      keccak256(0x00, 0x20)\n      add\n      0x00\n      swap1\n      sload\n      swap1\n      0x0100\n      exp\n      swap1\n      div\n      0xffffffffffffffffffffffffffffffffffffffff\n      and\n        /* \"src/voting.sol\":4001:4035  VP.CandidateVote[VP.candidates[i]] */\n      0xffffffffffffffffffffffffffffffffffffffff\n      and\n      0xffffffffffffffffffffffffffffffffffffffff\n      and\n      dup2\n      mstore\n      0x20\n      add\n      swap1\n      dup2\n      mstore\n      0x20\n      add\n      0x00\n      keccak256\n      sload\n        /* \"src/voting.sol\":3992:3994  CV */\n      dup9\n        /* \"src/voting.sol\":3995:3996  i */\n      dup4\n        /* \"src/voting.sol\":3992:3997  CV[i] */\n      dup2\n      mload\n      dup2\n      lt\n      tag_133\n      jumpi\n      tag_134\n      tag_109\n      jump\t// in\n    tag_134:\n    tag_133:\n      0x20\n      mul\n      0x20\n      add\n      add\n        /* \"src/voting.sol\":3992:4036  CV[i] = (VP.CandidateVote[VP.candidates[i]]) */\n      dup2\n      dup2\n      mstore\n      pop\n      pop\n        /* \"src/voting.sol\":3831:4045  {... */\n      pop\n        /* \"src/voting.sol\":3827:3830  i++ */\n      dup1\n      dup1\n      tag_135\n      swap1\n      tag_136\n      jump\t// in\n    tag_135:\n      swap2\n      pop\n      pop\n        /* \"src/voting.sol\":3784:4045  for (uint i =0; i <= VP.candidates.length; i++){... */\n      jump(tag_120)\n    tag_121:\n      pop\n        /* \"src/voting.sol\":4059:4061  CV */\n      dup6\n        /* \"src/voting.sol\":4063:4069  winner */\n      dup2\n        /* \"src/voting.sol\":4071:4082  highestVote */\n      dup4\n        /* \"src/voting.sol\":4051:4083  return (CV, winner, highestVote) */\n      swap6\n      pop\n      swap6\n      pop\n      swap6\n      pop\n      pop\n      pop\n      pop\n        /* \"src/voting.sol\":3481:4087  function revealWinner( string memory _name) external view returns ( uint[] memory CV, address, uint){... */\n      swap2\n      swap4\n      swap1\n      swap3\n      pop\n      jump\t// out\n        /* \"src/voting.sol\":1775:2287  function AddCandidate(address _newCandidate, string memory _name) external{... */\n    tag_52:\n        /* \"src/voting.sol\":1856:1877  VotingPoll storage VP */\n      0x00\n        /* \"src/voting.sol\":1880:1890  votingPoll */\n      dup1\n        /* \"src/voting.sol\":1891:1896  _name */\n      dup3\n        /* \"src/voting.sol\":1880:1897  votingPoll[_name] */\n      mload(0x40)\n      tag_138\n      swap2\n      swap1\n      tag_85\n      jump\t// in\n    tag_138:\n      swap1\n      dup2\n      mstore\n      0x20\n      add\n      mload(0x40)\n      dup1\n      swap2\n      sub\n      swap1\n      keccak256\n        /* \"src/voting.sol\":1856:1897  VotingPoll storage VP = votingPoll[_name] */\n      swap1\n      pop\n        /* \"src/voting.sol\":1936:1937  0 */\n      0x00\n        /* \"src/voting.sol\":1913:1938  VP.chairman != address(0) */\n      0xffffffffffffffffffffffffffffffffffffffff\n      and\n        /* \"src/voting.sol\":1913:1915  VP */\n      dup2\n        /* \"src/voting.sol\":1913:1924  VP.chairman */\n      0x00\n      add\n      0x00\n      swap1\n      sload\n      swap1\n      0x0100\n      exp\n      swap1\n      div\n      0xffffffffffffffffffffffffffffffffffffffff\n      and\n        /* \"src/voting.sol\":1913:1938  VP.chairman != address(0) */\n      0xffffffffffffffffffffffffffffffffffffffff\n      and\n      eq\n      iszero\n        /* \"src/voting.sol\":1904:1964  require (VP.chairman != address(0) , \"yet to create a poll\") */\n      tag_139\n      jumpi\n      mload(0x40)\n      0x08c379a000000000000000000000000000000000000000000000000000000000\n      dup2\n      mstore\n      0x04\n      add\n      tag_140\n      swap1\n      tag_141\n      jump\t// in\n    tag_140:\n      mload(0x40)\n      dup1\n      swap2\n      sub\n      swap1\n      revert\n    tag_139:\n        /* \"src/voting.sol\":1995:2005  msg.sender */\n      caller\n        /* \"src/voting.sol\":1980:2005  VP.chairman == msg.sender */\n      0xffffffffffffffffffffffffffffffffffffffff\n      and\n        /* \"src/voting.sol\":1980:1982  VP */\n      dup2\n        /* \"src/voting.sol\":1980:1991  VP.chairman */\n      0x00\n      add\n      0x00\n      swap1\n      sload\n      swap1\n      0x0100\n      exp\n      swap1\n      div\n      0xffffffffffffffffffffffffffffffffffffffff\n      and\n        /* \"src/voting.sol\":1980:2005  VP.chairman == msg.sender */\n      0xffffffffffffffffffffffffffffffffffffffff\n      and\n      eq\n        /* \"src/voting.sol\":1973:2006  assert(VP.chairman == msg.sender) */\n      tag_142\n      jumpi\n      tag_143\n      tag_144\n      jump\t// in\n    tag_143:\n    tag_142:\n        /* \"src/voting.sol\":2048:2050  VP */\n      dup1\n        /* \"src/voting.sol\":2048:2068  VP.maxNoOfCandidates */\n      0x02\n      add\n      0x00\n      swap1\n      sload\n      swap1\n      0x0100\n      exp\n      swap1\n      div\n      0xffffffff\n      and\n        /* \"src/voting.sol\":2021:2068  VP.currentNoOfCandidates < VP.maxNoOfCandidates */\n      0xffffffff\n      and\n        /* \"src/voting.sol\":2021:2023  VP */\n      dup2\n        /* \"src/voting.sol\":2021:2045  VP.currentNoOfCandidates */\n      0x02\n      add\n      0x14\n      swap1\n      sload\n      swap1\n      0x0100\n      exp\n      swap1\n      div\n      0xffff\n      and\n        /* \"src/voting.sol\":2021:2068  VP.currentNoOfCandidates < VP.maxNoOfCandidates */\n      0xffff\n      and\n      lt\n        /* \"src/voting.sol\":2013:2119  require(VP.currentNoOfCandidates < VP.maxNoOfCandidates, \"maximum no of candidate per session registered\") */\n      tag_145\n      jumpi\n      mload(0x40)\n      0x08c379a000000000000000000000000000000000000000000000000000000000\n      dup2\n      mstore\n      0x04\n      add\n      tag_146\n      swap1\n      tag_147\n      jump\t// in\n    tag_146:\n      mload(0x40)\n      dup1\n      swap2\n      sub\n      swap1\n      revert\n    tag_145:\n        /* \"src/voting.sol\":2162:2166  true */\n      0x01\n        /* \"src/voting.sol\":2126:2128  VP */\n      dup2\n        /* \"src/voting.sol\":2126:2144  VP.CandidateStatus */\n      0x03\n      add\n        /* \"src/voting.sol\":2126:2159  VP.CandidateStatus[_newCandidate] */\n      0x00\n        /* \"src/voting.sol\":2145:2158  _newCandidate */\n      dup6\n        /* \"src/voting.sol\":2126:2159  VP.CandidateStatus[_newCandidate] */\n      0xffffffffffffffffffffffffffffffffffffffff\n      and\n      0xffffffffffffffffffffffffffffffffffffffff\n      and\n      dup2\n      mstore\n      0x20\n      add\n      swap1\n      dup2\n      mstore\n      0x20\n      add\n      0x00\n      keccak256\n      0x00\n        /* \"src/voting.sol\":2126:2166  VP.CandidateStatus[_newCandidate] = true */\n      0x0100\n      exp\n      dup2\n      sload\n      dup2\n      0xff\n      mul\n      not\n      and\n      swap1\n      dup4\n      iszero\n      iszero\n      mul\n      or\n      swap1\n      sstore\n      pop\n        /* \"src/voting.sol\":2174:2176  VP */\n      dup1\n        /* \"src/voting.sol\":2174:2187  VP.candidates */\n      0x01\n      add\n        /* \"src/voting.sol\":2193:2206  _newCandidate */\n      dup4\n        /* \"src/voting.sol\":2174:2207  VP.candidates.push(_newCandidate) */\n      swap1\n      dup1\n      0x01\n      dup2\n      sload\n      add\n      dup1\n      dup3\n      sstore\n      dup1\n      swap2\n      pop\n      pop\n      0x01\n      swap1\n      sub\n      swap1\n      0x00\n      mstore\n      keccak256(0x00, 0x20)\n      add\n      0x00\n      swap1\n      swap2\n      swap1\n      swap2\n      swap1\n      swap2\n      0x0100\n      exp\n      dup2\n      sload\n      dup2\n      0xffffffffffffffffffffffffffffffffffffffff\n      mul\n      not\n      and\n      swap1\n      dup4\n      0xffffffffffffffffffffffffffffffffffffffff\n      and\n      mul\n      or\n      swap1\n      sstore\n      pop\n        /* \"src/voting.sol\":2215:2217  VP */\n      dup1\n        /* \"src/voting.sol\":2215:2239  VP.currentNoOfCandidates */\n      0x02\n      add\n      0x14\n        /* \"src/voting.sol\":2215:2241  VP.currentNoOfCandidates++ */\n      dup2\n      dup2\n      swap1\n      sload\n      swap1\n      0x0100\n      exp\n      swap1\n      div\n      0xffff\n      and\n      dup1\n      swap3\n      swap2\n      swap1\n      tag_149\n      swap1\n      tag_150\n      jump\t// in\n    tag_149:\n      swap2\n      swap1\n      0x0100\n      exp\n      dup2\n      sload\n      dup2\n      0xffff\n      mul\n      not\n      and\n      swap1\n      dup4\n      0xffff\n      and\n      mul\n      or\n      swap1\n      sstore\n      pop\n      pop\n        /* \"src/voting.sol\":2253:2283  becameCandidate(_newCandidate) */\n      0xc19c59aa93348e8fc54764bc642eca975e2639f44cc683ef8f027e1529cbda32\n        /* \"src/voting.sol\":2269:2282  _newCandidate */\n      dup4\n        /* \"src/voting.sol\":2253:2283  becameCandidate(_newCandidate) */\n      mload(0x40)\n      tag_151\n      swap2\n      swap1\n      tag_152\n      jump\t// in\n    tag_151:\n      mload(0x40)\n      dup1\n      swap2\n      sub\n      swap1\n      log1\n        /* \"src/voting.sol\":1849:2287  {... */\n      pop\n        /* \"src/voting.sol\":1775:2287  function AddCandidate(address _newCandidate, string memory _name) external{... */\n      pop\n      pop\n      jump\t// out\n        /* \"src/voting.sol\":670:717  mapping(string => VotingPoll) public votingPoll */\n    tag_56:\n      0x00\n      dup2\n      dup1\n      mload\n      0x20\n      dup2\n      add\n      dup3\n      add\n      dup1\n      mload\n      dup5\n      dup3\n      mstore\n      0x20\n      dup4\n      add\n      0x20\n      dup6\n      add\n      keccak256\n      dup2\n      dup4\n      mstore\n      dup1\n      swap6\n      pop\n      pop\n      pop\n      pop\n      pop\n      pop\n      0x00\n      swap2\n      pop\n      swap1\n      pop\n      dup1\n      0x00\n      add\n      0x00\n      swap1\n      sload\n      swap1\n      0x0100\n      exp\n      swap1\n      div\n      0xffffffffffffffffffffffffffffffffffffffff\n      and\n      swap1\n      dup1\n      0x02\n      add\n      0x00\n      swap1\n      sload\n      swap1\n      0x0100\n      exp\n      swap1\n      div\n      0xffffffff\n      and\n      swap1\n      dup1\n      0x02\n      add\n      0x04\n      swap1\n      sload\n      swap1\n      0x0100\n      exp\n      swap1\n      div\n      0xffffffffffffffff\n      and\n      swap1\n      dup1\n      0x02\n      add\n      0x0c\n      swap1\n      sload\n      swap1\n      0x0100\n      exp\n      swap1\n      div\n      0xffffffffffffffff\n      and\n      swap1\n      dup1\n      0x02\n      add\n      0x14\n      swap1\n      sload\n      swap1\n      0x0100\n      exp\n      swap1\n      div\n      0xffff\n      and\n      swap1\n      dup1\n      0x02\n      add\n      0x16\n      swap1\n      sload\n      swap1\n      0x0100\n      exp\n      swap1\n      div\n      0xff\n      and\n      swap1\n      pop\n      dup7\n      jump\t// out\n        /* \"src/voting.sol\":723:770  mapping (address => uint256) public replayNonce */\n    tag_63:\n      mstore(0x20, 0x01)\n      dup1\n      0x00\n      mstore\n      keccak256(0x00, 0x40)\n      0x00\n      swap2\n      pop\n      swap1\n      pop\n      sload\n      dup2\n      jump\t// out\n        /* \"src/voting.sol\":3126:3297  function NoOfRegisteredCandidates( string memory _name) public view returns(uint){... */\n    tag_68:\n        /* \"src/voting.sol\":3202:3206  uint */\n      0x00\n        /* \"src/voting.sol\":3214:3235  VotingPoll storage VP */\n      dup1\n        /* \"src/voting.sol\":3238:3248  votingPoll */\n      0x00\n        /* \"src/voting.sol\":3249:3254  _name */\n      dup4\n        /* \"src/voting.sol\":3238:3255  votingPoll[_name] */\n      mload(0x40)\n      tag_154\n      swap2\n      swap1\n      tag_85\n      jump\t// in\n    tag_154:\n      swap1\n      dup2\n      mstore\n      0x20\n      add\n      mload(0x40)\n      dup1\n      swap2\n      sub\n      swap1\n      keccak256\n        /* \"src/voting.sol\":3214:3255  VotingPoll storage VP = votingPoll[_name] */\n      swap1\n      pop\n        /* \"src/voting.sol\":3269:3271  VP */\n      dup1\n        /* \"src/voting.sol\":3269:3293  VP.currentNoOfCandidates */\n      0x02\n      add\n      0x14\n      swap1\n      sload\n      swap1\n      0x0100\n      exp\n      swap1\n      div\n      0xffff\n      and\n        /* \"src/voting.sol\":3262:3293  return VP.currentNoOfCandidates */\n      0xffff\n      and\n      swap2\n      pop\n      pop\n        /* \"src/voting.sol\":3126:3297  function NoOfRegisteredCandidates( string memory _name) public view returns(uint){... */\n      swap2\n      swap1\n      pop\n      jump\t// out\n        /* \"src/voting.sol\":3305:3478  function AllCandidates( string memory _name) public view returns(address[] memory _candidates){... */\n    tag_73:\n        /* \"src/voting.sol\":3370:3398  address[] memory _candidates */\n      0x60\n        /* \"src/voting.sol\":3406:3427  VotingPoll storage VP */\n      0x00\n        /* \"src/voting.sol\":3430:3440  votingPoll */\n      dup1\n        /* \"src/voting.sol\":3441:3446  _name */\n      dup4\n        /* \"src/voting.sol\":3430:3447  votingPoll[_name] */\n      mload(0x40)\n      tag_156\n      swap2\n      swap1\n      tag_85\n      jump\t// in\n    tag_156:\n      swap1\n      dup2\n      mstore\n      0x20\n      add\n      mload(0x40)\n      dup1\n      swap2\n      sub\n      swap1\n      keccak256\n        /* \"src/voting.sol\":3406:3447  VotingPoll storage VP = votingPoll[_name] */\n      swap1\n      pop\n        /* \"src/voting.sol\":3461:3463  VP */\n      dup1\n        /* \"src/voting.sol\":3461:3474  VP.candidates */\n      0x01\n      add\n        /* \"src/voting.sol\":3454:3474  return VP.candidates */\n      dup1\n      sload\n      dup1\n      0x20\n      mul\n      0x20\n      add\n      mload(0x40)\n      swap1\n      dup2\n      add\n      0x40\n      mstore\n      dup1\n      swap3\n      swap2\n      swap1\n      dup2\n      dup2\n      mstore\n      0x20\n      add\n      dup3\n      dup1\n      sload\n      dup1\n      iszero\n      tag_157\n      jumpi\n      0x20\n      mul\n      dup3\n      add\n      swap2\n      swap1\n      0x00\n      mstore\n      keccak256(0x00, 0x20)\n      swap1\n    tag_158:\n      dup2\n      0x00\n      swap1\n      sload\n      swap1\n      0x0100\n      exp\n      swap1\n      div\n      0xffffffffffffffffffffffffffffffffffffffff\n      and\n      0xffffffffffffffffffffffffffffffffffffffff\n      and\n      dup2\n      mstore\n      0x20\n      add\n      swap1\n      0x01\n      add\n      swap1\n      dup1\n      dup4\n      gt\n      tag_158\n      jumpi\n    tag_157:\n      pop\n      pop\n      pop\n      pop\n      pop\n      swap2\n      pop\n      pop\n        /* \"src/voting.sol\":3305:3478  function AllCandidates( string memory _name) public view returns(address[] memory _candidates){... */\n      swap2\n      swap1\n      pop\n      jump\t// out\n        /* \"src/voting.sol\":4090:4292  function setVotingState( string memory _name) external {... */\n    tag_79:\n        /* \"src/voting.sol\":4151:4172  VotingPoll storage VP */\n      0x00\n        /* \"src/voting.sol\":4175:4185  votingPoll */\n      dup1\n        /* \"src/voting.sol\":4186:4191  _name */\n      dup3\n        /* \"src/voting.sol\":4175:4192  votingPoll[_name] */\n      mload(0x40)\n      tag_160\n      swap2\n      swap1\n      tag_85\n      jump\t// in\n    tag_160:\n      swap1\n      dup2\n      mstore\n      0x20\n      add\n      mload(0x40)\n      dup1\n      swap2\n      sub\n      swap1\n      keccak256\n        /* \"src/voting.sol\":4151:4192  VotingPoll storage VP = votingPoll[_name] */\n      swap1\n      pop\n        /* \"src/voting.sol\":4221:4231  msg.sender */\n      caller\n        /* \"src/voting.sol\":4206:4231  VP.chairman == msg.sender */\n      0xffffffffffffffffffffffffffffffffffffffff\n      and\n        /* \"src/voting.sol\":4206:4208  VP */\n      dup2\n        /* \"src/voting.sol\":4206:4217  VP.chairman */\n      0x00\n      add\n      0x00\n      swap1\n      sload\n      swap1\n      0x0100\n      exp\n      swap1\n      div\n      0xffffffffffffffffffffffffffffffffffffffff\n      and\n        /* \"src/voting.sol\":4206:4231  VP.chairman == msg.sender */\n      0xffffffffffffffffffffffffffffffffffffffff\n      and\n      eq\n        /* \"src/voting.sol\":4198:4252  require(VP.chairman == msg.sender, \"not the chairman\") */\n      tag_161\n      jumpi\n      mload(0x40)\n      0x08c379a000000000000000000000000000000000000000000000000000000000\n      dup2\n      mstore\n      0x04\n      add\n      tag_162\n      swap1\n      tag_163\n      jump\t// in\n    tag_162:\n      mload(0x40)\n      dup1\n      swap2\n      sub\n      swap1\n      revert\n    tag_161:\n        /* \"src/voting.sol\":4278:4280  VP */\n      dup1\n        /* \"src/voting.sol\":4278:4287  VP.voting */\n      0x02\n      add\n      0x16\n      swap1\n      sload\n      swap1\n      0x0100\n      exp\n      swap1\n      div\n      0xff\n      and\n        /* \"src/voting.sol\":4276:4288  !(VP.voting) */\n      iszero\n        /* \"src/voting.sol\":4264:4266  VP */\n      dup2\n        /* \"src/voting.sol\":4264:4273  VP.voting */\n      0x02\n      add\n      0x16\n        /* \"src/voting.sol\":4264:4288  VP.voting = !(VP.voting) */\n      0x0100\n      exp\n      dup2\n      sload\n      dup2\n      0xff\n      mul\n      not\n      and\n      swap1\n      dup4\n      iszero\n      iszero\n      mul\n      or\n      swap1\n      sstore\n      pop\n        /* \"src/voting.sol\":4145:4292  {... */\n      pop\n        /* \"src/voting.sol\":4090:4292  function setVotingState( string memory _name) external {... */\n      pop\n      jump\t// out\n        /* \"src/voting.sol\":2878:3123  function countVote(address Cand, string memory _name, address signer) internal returns(uint){... */\n    tag_102:\n        /* \"src/voting.sol\":2965:2969  uint */\n      0x00\n        /* \"src/voting.sol\":2977:2998  VotingPoll storage VP */\n      dup1\n        /* \"src/voting.sol\":3001:3011  votingPoll */\n      0x00\n        /* \"src/voting.sol\":3012:3017  _name */\n      dup5\n        /* \"src/voting.sol\":3001:3018  votingPoll[_name] */\n      mload(0x40)\n      tag_165\n      swap2\n      swap1\n      tag_85\n      jump\t// in\n    tag_165:\n      swap1\n      dup2\n      mstore\n      0x20\n      add\n      mload(0x40)\n      dup1\n      swap2\n      sub\n      swap1\n      keccak256\n        /* \"src/voting.sol\":2977:3018  VotingPoll storage VP = votingPoll[_name] */\n      swap1\n      pop\n        /* \"src/voting.sol\":3047:3051  true */\n      0x01\n        /* \"src/voting.sol\":3025:3027  VP */\n      dup2\n        /* \"src/voting.sol\":3025:3036  VP.hasVoted */\n      0x04\n      add\n        /* \"src/voting.sol\":3025:3044  VP.hasVoted[signer] */\n      0x00\n        /* \"src/voting.sol\":3037:3043  signer */\n      dup6\n        /* \"src/voting.sol\":3025:3044  VP.hasVoted[signer] */\n      0xffffffffffffffffffffffffffffffffffffffff\n      and\n      0xffffffffffffffffffffffffffffffffffffffff\n      and\n      dup2\n      mstore\n      0x20\n      add\n      swap1\n      dup2\n      mstore\n      0x20\n      add\n      0x00\n      keccak256\n      0x00\n        /* \"src/voting.sol\":3025:3051  VP.hasVoted[signer] = true */\n      0x0100\n      exp\n      dup2\n      sload\n      dup2\n      0xff\n      mul\n      not\n      and\n      swap1\n      dup4\n      iszero\n      iszero\n      mul\n      or\n      swap1\n      sstore\n      pop\n        /* \"src/voting.sol\":3058:3060  VP */\n      dup1\n        /* \"src/voting.sol\":3058:3074  VP.CandidateVote */\n      0x05\n      add\n        /* \"src/voting.sol\":3058:3080  VP.CandidateVote[Cand] */\n      0x00\n        /* \"src/voting.sol\":3075:3079  Cand */\n      dup7\n        /* \"src/voting.sol\":3058:3080  VP.CandidateVote[Cand] */\n      0xffffffffffffffffffffffffffffffffffffffff\n      and\n      0xffffffffffffffffffffffffffffffffffffffff\n      and\n      dup2\n      mstore\n      0x20\n      add\n      swap1\n      dup2\n      mstore\n      0x20\n      add\n      0x00\n      keccak256\n      0x00\n        /* \"src/voting.sol\":3058:3082  VP.CandidateVote[Cand]++ */\n      dup2\n      sload\n      dup1\n      swap3\n      swap2\n      swap1\n      tag_166\n      swap1\n      tag_136\n      jump\t// in\n    tag_166:\n      swap2\n      swap1\n      pop\n      sstore\n      pop\n        /* \"src/voting.sol\":3096:3098  VP */\n      dup1\n        /* \"src/voting.sol\":3096:3112  VP.CandidateVote */\n      0x05\n      add\n        /* \"src/voting.sol\":3096:3118  VP.CandidateVote[Cand] */\n      0x00\n        /* \"src/voting.sol\":3113:3117  Cand */\n      dup7\n        /* \"src/voting.sol\":3096:3118  VP.CandidateVote[Cand] */\n      0xffffffffffffffffffffffffffffffffffffffff\n      and\n      0xffffffffffffffffffffffffffffffffffffffff\n      and\n      dup2\n      mstore\n      0x20\n      add\n      swap1\n      dup2\n      mstore\n      0x20\n      add\n      0x00\n      keccak256\n      sload\n        /* \"src/voting.sol\":3089:3118  return VP.CandidateVote[Cand] */\n      swap2\n      pop\n      pop\n        /* \"src/voting.sol\":2878:3123  function countVote(address Cand, string memory _name, address signer) internal returns(uint){... */\n      swap4\n      swap3\n      pop\n      pop\n      pop\n      jump\t// out\n        /* \"#utility.yul\":7:82   */\n    tag_167:\n        /* \"#utility.yul\":40:46   */\n      0x00\n        /* \"#utility.yul\":73:75   */\n      0x40\n        /* \"#utility.yul\":67:76   */\n      mload\n        /* \"#utility.yul\":57:76   */\n      swap1\n      pop\n        /* \"#utility.yul\":7:82   */\n      swap1\n      jump\t// out\n        /* \"#utility.yul\":88:205   */\n    tag_168:\n        /* \"#utility.yul\":197:198   */\n      0x00\n        /* \"#utility.yul\":194:195   */\n      dup1\n        /* \"#utility.yul\":187:199   */\n      revert\n        /* \"#utility.yul\":211:328   */\n    tag_169:\n        /* \"#utility.yul\":320:321   */\n      0x00\n        /* \"#utility.yul\":317:318   */\n      dup1\n        /* \"#utility.yul\":310:322   */\n      revert\n        /* \"#utility.yul\":334:460   */\n    tag_170:\n        /* \"#utility.yul\":371:378   */\n      0x00\n        /* \"#utility.yul\":411:453   */\n      0xffffffffffffffffffffffffffffffffffffffff\n        /* \"#utility.yul\":404:409   */\n      dup3\n        /* \"#utility.yul\":400:454   */\n      and\n        /* \"#utility.yul\":389:454   */\n      swap1\n      pop\n        /* \"#utility.yul\":334:460   */\n      swap2\n      swap1\n      pop\n      jump\t// out\n        /* \"#utility.yul\":466:562   */\n    tag_171:\n        /* \"#utility.yul\":503:510   */\n      0x00\n        /* \"#utility.yul\":532:556   */\n      tag_249\n        /* \"#utility.yul\":550:555   */\n      dup3\n        /* \"#utility.yul\":532:556   */\n      tag_170\n      jump\t// in\n    tag_249:\n        /* \"#utility.yul\":521:556   */\n      swap1\n      pop\n        /* \"#utility.yul\":466:562   */\n      swap2\n      swap1\n      pop\n      jump\t// out\n        /* \"#utility.yul\":568:690   */\n    tag_172:\n        /* \"#utility.yul\":641:665   */\n      tag_251\n        /* \"#utility.yul\":659:664   */\n      dup2\n        /* \"#utility.yul\":641:665   */\n      tag_171\n      jump\t// in\n    tag_251:\n        /* \"#utility.yul\":634:639   */\n      dup2\n        /* \"#utility.yul\":631:666   */\n      eq\n        /* \"#utility.yul\":621:684   */\n      tag_252\n      jumpi\n        /* \"#utility.yul\":680:681   */\n      0x00\n        /* \"#utility.yul\":677:678   */\n      dup1\n        /* \"#utility.yul\":670:682   */\n      revert\n        /* \"#utility.yul\":621:684   */\n    tag_252:\n        /* \"#utility.yul\":568:690   */\n      pop\n      jump\t// out\n        /* \"#utility.yul\":696:835   */\n    tag_173:\n        /* \"#utility.yul\":742:747   */\n      0x00\n        /* \"#utility.yul\":780:786   */\n      dup2\n        /* \"#utility.yul\":767:787   */\n      calldataload\n        /* \"#utility.yul\":758:787   */\n      swap1\n      pop\n        /* \"#utility.yul\":796:829   */\n      tag_254\n        /* \"#utility.yul\":823:828   */\n      dup2\n        /* \"#utility.yul\":796:829   */\n      tag_172\n      jump\t// in\n    tag_254:\n        /* \"#utility.yul\":696:835   */\n      swap3\n      swap2\n      pop\n      pop\n      jump\t// out\n        /* \"#utility.yul\":841:958   */\n    tag_174:\n        /* \"#utility.yul\":950:951   */\n      0x00\n        /* \"#utility.yul\":947:948   */\n      dup1\n        /* \"#utility.yul\":940:952   */\n      revert\n        /* \"#utility.yul\":964:1081   */\n    tag_175:\n        /* \"#utility.yul\":1073:1074   */\n      0x00\n        /* \"#utility.yul\":1070:1071   */\n      dup1\n        /* \"#utility.yul\":1063:1075   */\n      revert\n        /* \"#utility.yul\":1087:1189   */\n    tag_176:\n        /* \"#utility.yul\":1128:1134   */\n      0x00\n        /* \"#utility.yul\":1179:1181   */\n      0x1f\n        /* \"#utility.yul\":1175:1182   */\n      not\n        /* \"#utility.yul\":1170:1172   */\n      0x1f\n        /* \"#utility.yul\":1163:1168   */\n      dup4\n        /* \"#utility.yul\":1159:1173   */\n      add\n        /* \"#utility.yul\":1155:1183   */\n      and\n        /* \"#utility.yul\":1145:1183   */\n      swap1\n      pop\n        /* \"#utility.yul\":1087:1189   */\n      swap2\n      swap1\n      pop\n      jump\t// out\n        /* \"#utility.yul\":1195:1375   */\n    tag_118:\n        /* \"#utility.yul\":1243:1320   */\n      0x4e487b7100000000000000000000000000000000000000000000000000000000\n        /* \"#utility.yul\":1240:1241   */\n      0x00\n        /* \"#utility.yul\":1233:1321   */\n      mstore\n        /* \"#utility.yul\":1340:1344   */\n      0x41\n        /* \"#utility.yul\":1337:1338   */\n      0x04\n        /* \"#utility.yul\":1330:1345   */\n      mstore\n        /* \"#utility.yul\":1364:1368   */\n      0x24\n        /* \"#utility.yul\":1361:1362   */\n      0x00\n        /* \"#utility.yul\":1354:1369   */\n      revert\n        /* \"#utility.yul\":1381:1662   */\n    tag_177:\n        /* \"#utility.yul\":1464:1491   */\n      tag_260\n        /* \"#utility.yul\":1486:1490   */\n      dup3\n        /* \"#utility.yul\":1464:1491   */\n      tag_176\n      jump\t// in\n    tag_260:\n        /* \"#utility.yul\":1456:1462   */\n      dup2\n        /* \"#utility.yul\":1452:1492   */\n      add\n        /* \"#utility.yul\":1594:1600   */\n      dup2\n        /* \"#utility.yul\":1582:1592   */\n      dup2\n        /* \"#utility.yul\":1579:1601   */\n      lt\n        /* \"#utility.yul\":1558:1576   */\n      0xffffffffffffffff\n        /* \"#utility.yul\":1546:1556   */\n      dup3\n        /* \"#utility.yul\":1543:1577   */\n      gt\n        /* \"#utility.yul\":1540:1602   */\n      or\n        /* \"#utility.yul\":1537:1625   */\n      iszero\n      tag_261\n      jumpi\n        /* \"#utility.yul\":1605:1623   */\n      tag_262\n      tag_118\n      jump\t// in\n    tag_262:\n        /* \"#utility.yul\":1537:1625   */\n    tag_261:\n        /* \"#utility.yul\":1645:1655   */\n      dup1\n        /* \"#utility.yul\":1641:1643   */\n      0x40\n        /* \"#utility.yul\":1634:1656   */\n      mstore\n        /* \"#utility.yul\":1424:1662   */\n      pop\n        /* \"#utility.yul\":1381:1662   */\n      pop\n      pop\n      jump\t// out\n        /* \"#utility.yul\":1668:1797   */\n    tag_178:\n        /* \"#utility.yul\":1702:1708   */\n      0x00\n        /* \"#utility.yul\":1729:1749   */\n      tag_264\n      tag_167\n      jump\t// in\n    tag_264:\n        /* \"#utility.yul\":1719:1749   */\n      swap1\n      pop\n        /* \"#utility.yul\":1758:1791   */\n      tag_265\n        /* \"#utility.yul\":1786:1790   */\n      dup3\n        /* \"#utility.yul\":1778:1784   */\n      dup3\n        /* \"#utility.yul\":1758:1791   */\n      tag_177\n      jump\t// in\n    tag_265:\n        /* \"#utility.yul\":1668:1797   */\n      swap2\n      swap1\n      pop\n      jump\t// out\n        /* \"#utility.yul\":1803:2111   */\n    tag_179:\n        /* \"#utility.yul\":1865:1869   */\n      0x00\n        /* \"#utility.yul\":1955:1973   */\n      0xffffffffffffffff\n        /* \"#utility.yul\":1947:1953   */\n      dup3\n        /* \"#utility.yul\":1944:1974   */\n      gt\n        /* \"#utility.yul\":1941:1997   */\n      iszero\n      tag_267\n      jumpi\n        /* \"#utility.yul\":1977:1995   */\n      tag_268\n      tag_118\n      jump\t// in\n    tag_268:\n        /* \"#utility.yul\":1941:1997   */\n    tag_267:\n        /* \"#utility.yul\":2015:2044   */\n      tag_269\n        /* \"#utility.yul\":2037:2043   */\n      dup3\n        /* \"#utility.yul\":2015:2044   */\n      tag_176\n      jump\t// in\n    tag_269:\n        /* \"#utility.yul\":2007:2044   */\n      swap1\n      pop\n        /* \"#utility.yul\":2099:2103   */\n      0x20\n        /* \"#utility.yul\":2093:2097   */\n      dup2\n        /* \"#utility.yul\":2089:2104   */\n      add\n        /* \"#utility.yul\":2081:2104   */\n      swap1\n      pop\n        /* \"#utility.yul\":1803:2111   */\n      swap2\n      swap1\n      pop\n      jump\t// out\n        /* \"#utility.yul\":2117:2271   */\n    tag_180:\n        /* \"#utility.yul\":2201:2207   */\n      dup3\n        /* \"#utility.yul\":2196:2199   */\n      dup2\n        /* \"#utility.yul\":2191:2194   */\n      dup4\n        /* \"#utility.yul\":2178:2208   */\n      calldatacopy\n        /* \"#utility.yul\":2263:2264   */\n      0x00\n        /* \"#utility.yul\":2254:2260   */\n      dup4\n        /* \"#utility.yul\":2249:2252   */\n      dup4\n        /* \"#utility.yul\":2245:2261   */\n      add\n        /* \"#utility.yul\":2238:2265   */\n      mstore\n        /* \"#utility.yul\":2117:2271   */\n      pop\n      pop\n      pop\n      jump\t// out\n        /* \"#utility.yul\":2277:2689   */\n    tag_181:\n        /* \"#utility.yul\":2355:2360   */\n      0x00\n        /* \"#utility.yul\":2380:2446   */\n      tag_272\n        /* \"#utility.yul\":2396:2445   */\n      tag_273\n        /* \"#utility.yul\":2438:2444   */\n      dup5\n        /* \"#utility.yul\":2396:2445   */\n      tag_179\n      jump\t// in\n    tag_273:\n        /* \"#utility.yul\":2380:2446   */\n      tag_178\n      jump\t// in\n    tag_272:\n        /* \"#utility.yul\":2371:2446   */\n      swap1\n      pop\n        /* \"#utility.yul\":2469:2475   */\n      dup3\n        /* \"#utility.yul\":2462:2467   */\n      dup2\n        /* \"#utility.yul\":2455:2476   */\n      mstore\n        /* \"#utility.yul\":2507:2511   */\n      0x20\n        /* \"#utility.yul\":2500:2505   */\n      dup2\n        /* \"#utility.yul\":2496:2512   */\n      add\n        /* \"#utility.yul\":2545:2548   */\n      dup5\n        /* \"#utility.yul\":2536:2542   */\n      dup5\n        /* \"#utility.yul\":2531:2534   */\n      dup5\n        /* \"#utility.yul\":2527:2543   */\n      add\n        /* \"#utility.yul\":2524:2549   */\n      gt\n        /* \"#utility.yul\":2521:2633   */\n      iszero\n      tag_274\n      jumpi\n        /* \"#utility.yul\":2552:2631   */\n      tag_275\n      tag_175\n      jump\t// in\n    tag_275:\n        /* \"#utility.yul\":2521:2633   */\n    tag_274:\n        /* \"#utility.yul\":2642:2683   */\n      tag_276\n        /* \"#utility.yul\":2676:2682   */\n      dup5\n        /* \"#utility.yul\":2671:2674   */\n      dup3\n        /* \"#utility.yul\":2666:2669   */\n      dup6\n        /* \"#utility.yul\":2642:2683   */\n      tag_180\n      jump\t// in\n    tag_276:\n        /* \"#utility.yul\":2361:2689   */\n      pop\n        /* \"#utility.yul\":2277:2689   */\n      swap4\n      swap3\n      pop\n      pop\n      pop\n      jump\t// out\n        /* \"#utility.yul\":2709:3049   */\n    tag_182:\n        /* \"#utility.yul\":2765:2770   */\n      0x00\n        /* \"#utility.yul\":2814:2817   */\n      dup3\n        /* \"#utility.yul\":2807:2811   */\n      0x1f\n        /* \"#utility.yul\":2799:2805   */\n      dup4\n        /* \"#utility.yul\":2795:2812   */\n      add\n        /* \"#utility.yul\":2791:2818   */\n      slt\n        /* \"#utility.yul\":2781:2903   */\n      tag_278\n      jumpi\n        /* \"#utility.yul\":2822:2901   */\n      tag_279\n      tag_174\n      jump\t// in\n    tag_279:\n        /* \"#utility.yul\":2781:2903   */\n    tag_278:\n        /* \"#utility.yul\":2939:2945   */\n      dup2\n        /* \"#utility.yul\":2926:2946   */\n      calldataload\n        /* \"#utility.yul\":2964:3043   */\n      tag_280\n        /* \"#utility.yul\":3039:3042   */\n      dup5\n        /* \"#utility.yul\":3031:3037   */\n      dup3\n        /* \"#utility.yul\":3024:3028   */\n      0x20\n        /* \"#utility.yul\":3016:3022   */\n      dup7\n        /* \"#utility.yul\":3012:3029   */\n      add\n        /* \"#utility.yul\":2964:3043   */\n      tag_181\n      jump\t// in\n    tag_280:\n        /* \"#utility.yul\":2955:3043   */\n      swap2\n      pop\n        /* \"#utility.yul\":2771:3049   */\n      pop\n        /* \"#utility.yul\":2709:3049   */\n      swap3\n      swap2\n      pop\n      pop\n      jump\t// out\n        /* \"#utility.yul\":3055:3132   */\n    tag_183:\n        /* \"#utility.yul\":3092:3099   */\n      0x00\n        /* \"#utility.yul\":3121:3126   */\n      dup2\n        /* \"#utility.yul\":3110:3126   */\n      swap1\n      pop\n        /* \"#utility.yul\":3055:3132   */\n      swap2\n      swap1\n      pop\n      jump\t// out\n        /* \"#utility.yul\":3138:3260   */\n    tag_184:\n        /* \"#utility.yul\":3211:3235   */\n      tag_283\n        /* \"#utility.yul\":3229:3234   */\n      dup2\n        /* \"#utility.yul\":3211:3235   */\n      tag_183\n      jump\t// in\n    tag_283:\n        /* \"#utility.yul\":3204:3209   */\n      dup2\n        /* \"#utility.yul\":3201:3236   */\n      eq\n        /* \"#utility.yul\":3191:3254   */\n      tag_284\n      jumpi\n        /* \"#utility.yul\":3250:3251   */\n      0x00\n        /* \"#utility.yul\":3247:3248   */\n      dup1\n        /* \"#utility.yul\":3240:3252   */\n      revert\n        /* \"#utility.yul\":3191:3254   */\n    tag_284:\n        /* \"#utility.yul\":3138:3260   */\n      pop\n      jump\t// out\n        /* \"#utility.yul\":3266:3405   */\n    tag_185:\n        /* \"#utility.yul\":3312:3317   */\n      0x00\n        /* \"#utility.yul\":3350:3356   */\n      dup2\n        /* \"#utility.yul\":3337:3357   */\n      calldataload\n        /* \"#utility.yul\":3328:3357   */\n      swap1\n      pop\n        /* \"#utility.yul\":3366:3399   */\n      tag_286\n        /* \"#utility.yul\":3393:3398   */\n      dup2\n        /* \"#utility.yul\":3366:3399   */\n      tag_184\n      jump\t// in\n    tag_286:\n        /* \"#utility.yul\":3266:3405   */\n      swap3\n      swap2\n      pop\n      pop\n      jump\t// out\n        /* \"#utility.yul\":3411:4356   */\n    tag_20:\n        /* \"#utility.yul\":3507:3513   */\n      0x00\n        /* \"#utility.yul\":3515:3521   */\n      dup1\n        /* \"#utility.yul\":3523:3529   */\n      0x00\n        /* \"#utility.yul\":3531:3537   */\n      dup1\n        /* \"#utility.yul\":3580:3583   */\n      0x80\n        /* \"#utility.yul\":3568:3577   */\n      dup6\n        /* \"#utility.yul\":3559:3566   */\n      dup8\n        /* \"#utility.yul\":3555:3578   */\n      sub\n        /* \"#utility.yul\":3551:3584   */\n      slt\n        /* \"#utility.yul\":3548:3668   */\n      iszero\n      tag_288\n      jumpi\n        /* \"#utility.yul\":3587:3666   */\n      tag_289\n      tag_168\n      jump\t// in\n    tag_289:\n        /* \"#utility.yul\":3548:3668   */\n    tag_288:\n        /* \"#utility.yul\":3707:3708   */\n      0x00\n        /* \"#utility.yul\":3732:3785   */\n      tag_290\n        /* \"#utility.yul\":3777:3784   */\n      dup8\n        /* \"#utility.yul\":3768:3774   */\n      dup3\n        /* \"#utility.yul\":3757:3766   */\n      dup9\n        /* \"#utility.yul\":3753:3775   */\n      add\n        /* \"#utility.yul\":3732:3785   */\n      tag_173\n      jump\t// in\n    tag_290:\n        /* \"#utility.yul\":3722:3785   */\n      swap5\n      pop\n        /* \"#utility.yul\":3678:3795   */\n      pop\n        /* \"#utility.yul\":3862:3864   */\n      0x20\n        /* \"#utility.yul\":3851:3860   */\n      dup6\n        /* \"#utility.yul\":3847:3865   */\n      add\n        /* \"#utility.yul\":3834:3866   */\n      calldataload\n        /* \"#utility.yul\":3893:3911   */\n      0xffffffffffffffff\n        /* \"#utility.yul\":3885:3891   */\n      dup2\n        /* \"#utility.yul\":3882:3912   */\n      gt\n        /* \"#utility.yul\":3879:3996   */\n      iszero\n      tag_291\n      jumpi\n        /* \"#utility.yul\":3915:3994   */\n      tag_292\n      tag_169\n      jump\t// in\n    tag_292:\n        /* \"#utility.yul\":3879:3996   */\n    tag_291:\n        /* \"#utility.yul\":4020:4083   */\n      tag_293\n        /* \"#utility.yul\":4075:4082   */\n      dup8\n        /* \"#utility.yul\":4066:4072   */\n      dup3\n        /* \"#utility.yul\":4055:4064   */\n      dup9\n        /* \"#utility.yul\":4051:4073   */\n      add\n        /* \"#utility.yul\":4020:4083   */\n      tag_182\n      jump\t// in\n    tag_293:\n        /* \"#utility.yul\":4010:4083   */\n      swap4\n      pop\n        /* \"#utility.yul\":3805:4093   */\n      pop\n        /* \"#utility.yul\":4132:4134   */\n      0x40\n        /* \"#utility.yul\":4158:4211   */\n      tag_294\n        /* \"#utility.yul\":4203:4210   */\n      dup8\n        /* \"#utility.yul\":4194:4200   */\n      dup3\n        /* \"#utility.yul\":4183:4192   */\n      dup9\n        /* \"#utility.yul\":4179:4201   */\n      add\n        /* \"#utility.yul\":4158:4211   */\n      tag_185\n      jump\t// in\n    tag_294:\n        /* \"#utility.yul\":4148:4211   */\n      swap3\n      pop\n        /* \"#utility.yul\":4103:4221   */\n      pop\n        /* \"#utility.yul\":4260:4262   */\n      0x60\n        /* \"#utility.yul\":4286:4339   */\n      tag_295\n        /* \"#utility.yul\":4331:4338   */\n      dup8\n        /* \"#utility.yul\":4322:4328   */\n      dup3\n        /* \"#utility.yul\":4311:4320   */\n      dup9\n        /* \"#utility.yul\":4307:4329   */\n      add\n        /* \"#utility.yul\":4286:4339   */\n      tag_185\n      jump\t// in\n    tag_295:\n        /* \"#utility.yul\":4276:4339   */\n      swap2\n      pop\n        /* \"#utility.yul\":4231:4349   */\n      pop\n        /* \"#utility.yul\":3411:4356   */\n      swap3\n      swap6\n      swap2\n      swap5\n      pop\n      swap3\n      pop\n      jump\t// out\n        /* \"#utility.yul\":4362:4439   */\n    tag_186:\n        /* \"#utility.yul\":4399:4406   */\n      0x00\n        /* \"#utility.yul\":4428:4433   */\n      dup2\n        /* \"#utility.yul\":4417:4433   */\n      swap1\n      pop\n        /* \"#utility.yul\":4362:4439   */\n      swap2\n      swap1\n      pop\n      jump\t// out\n        /* \"#utility.yul\":4445:4563   */\n    tag_187:\n        /* \"#utility.yul\":4532:4556   */\n      tag_298\n        /* \"#utility.yul\":4550:4555   */\n      dup2\n        /* \"#utility.yul\":4532:4556   */\n      tag_186\n      jump\t// in\n    tag_298:\n        /* \"#utility.yul\":4527:4530   */\n      dup3\n        /* \"#utility.yul\":4520:4557   */\n      mstore\n        /* \"#utility.yul\":4445:4563   */\n      pop\n      pop\n      jump\t// out\n        /* \"#utility.yul\":4569:4791   */\n    tag_23:\n        /* \"#utility.yul\":4662:4666   */\n      0x00\n        /* \"#utility.yul\":4700:4702   */\n      0x20\n        /* \"#utility.yul\":4689:4698   */\n      dup3\n        /* \"#utility.yul\":4685:4703   */\n      add\n        /* \"#utility.yul\":4677:4703   */\n      swap1\n      pop\n        /* \"#utility.yul\":4713:4784   */\n      tag_300\n        /* \"#utility.yul\":4781:4782   */\n      0x00\n        /* \"#utility.yul\":4770:4779   */\n      dup4\n        /* \"#utility.yul\":4766:4783   */\n      add\n        /* \"#utility.yul\":4757:4763   */\n      dup5\n        /* \"#utility.yul\":4713:4784   */\n      tag_187\n      jump\t// in\n    tag_300:\n        /* \"#utility.yul\":4569:4791   */\n      swap3\n      swap2\n      pop\n      pop\n      jump\t// out\n        /* \"#utility.yul\":4797:4886   */\n    tag_188:\n        /* \"#utility.yul\":4833:4840   */\n      0x00\n        /* \"#utility.yul\":4873:4879   */\n      0xffff\n        /* \"#utility.yul\":4866:4871   */\n      dup3\n        /* \"#utility.yul\":4862:4880   */\n      and\n        /* \"#utility.yul\":4851:4880   */\n      swap1\n      pop\n        /* \"#utility.yul\":4797:4886   */\n      swap2\n      swap1\n      pop\n      jump\t// out\n        /* \"#utility.yul\":4892:5012   */\n    tag_189:\n        /* \"#utility.yul\":4964:4987   */\n      tag_303\n        /* \"#utility.yul\":4981:4986   */\n      dup2\n        /* \"#utility.yul\":4964:4987   */\n      tag_188\n      jump\t// in\n    tag_303:\n        /* \"#utility.yul\":4957:4962   */\n      dup2\n        /* \"#utility.yul\":4954:4988   */\n      eq\n        /* \"#utility.yul\":4944:5006   */\n      tag_304\n      jumpi\n        /* \"#utility.yul\":5002:5003   */\n      0x00\n        /* \"#utility.yul\":4999:5000   */\n      dup1\n        /* \"#utility.yul\":4992:5004   */\n      revert\n        /* \"#utility.yul\":4944:5006   */\n    tag_304:\n        /* \"#utility.yul\":4892:5012   */\n      pop\n      jump\t// out\n        /* \"#utility.yul\":5018:5155   */\n    tag_190:\n        /* \"#utility.yul\":5063:5068   */\n      0x00\n        /* \"#utility.yul\":5101:5107   */\n      dup2\n        /* \"#utility.yul\":5088:5108   */\n      calldataload\n        /* \"#utility.yul\":5079:5108   */\n      swap1\n      pop\n        /* \"#utility.yul\":5117:5149   */\n      tag_306\n        /* \"#utility.yul\":5143:5148   */\n      dup2\n        /* \"#utility.yul\":5117:5149   */\n      tag_189\n      jump\t// in\n    tag_306:\n        /* \"#utility.yul\":5018:5155   */\n      swap3\n      swap2\n      pop\n      pop\n      jump\t// out\n        /* \"#utility.yul\":5161:5813   */\n    tag_27:\n        /* \"#utility.yul\":5238:5244   */\n      0x00\n        /* \"#utility.yul\":5246:5252   */\n      dup1\n        /* \"#utility.yul\":5295:5297   */\n      0x40\n        /* \"#utility.yul\":5283:5292   */\n      dup4\n        /* \"#utility.yul\":5274:5281   */\n      dup6\n        /* \"#utility.yul\":5270:5293   */\n      sub\n        /* \"#utility.yul\":5266:5298   */\n      slt\n        /* \"#utility.yul\":5263:5382   */\n      iszero\n      tag_308\n      jumpi\n        /* \"#utility.yul\":5301:5380   */\n      tag_309\n      tag_168\n      jump\t// in\n    tag_309:\n        /* \"#utility.yul\":5263:5382   */\n    tag_308:\n        /* \"#utility.yul\":5449:5450   */\n      0x00\n        /* \"#utility.yul\":5438:5447   */\n      dup4\n        /* \"#utility.yul\":5434:5451   */\n      add\n        /* \"#utility.yul\":5421:5452   */\n      calldataload\n        /* \"#utility.yul\":5479:5497   */\n      0xffffffffffffffff\n        /* \"#utility.yul\":5471:5477   */\n      dup2\n        /* \"#utility.yul\":5468:5498   */\n      gt\n        /* \"#utility.yul\":5465:5582   */\n      iszero\n      tag_310\n      jumpi\n        /* \"#utility.yul\":5501:5580   */\n      tag_311\n      tag_169\n      jump\t// in\n    tag_311:\n        /* \"#utility.yul\":5465:5582   */\n    tag_310:\n        /* \"#utility.yul\":5606:5669   */\n      tag_312\n        /* \"#utility.yul\":5661:5668   */\n      dup6\n        /* \"#utility.yul\":5652:5658   */\n      dup3\n        /* \"#utility.yul\":5641:5650   */\n      dup7\n        /* \"#utility.yul\":5637:5659   */\n      add\n        /* \"#utility.yul\":5606:5669   */\n      tag_182\n      jump\t// in\n    tag_312:\n        /* \"#utility.yul\":5596:5669   */\n      swap3\n      pop\n        /* \"#utility.yul\":5392:5679   */\n      pop\n        /* \"#utility.yul\":5718:5720   */\n      0x20\n        /* \"#utility.yul\":5744:5796   */\n      tag_313\n        /* \"#utility.yul\":5788:5795   */\n      dup6\n        /* \"#utility.yul\":5779:5785   */\n      dup3\n        /* \"#utility.yul\":5768:5777   */\n      dup7\n        /* \"#utility.yul\":5764:5786   */\n      add\n        /* \"#utility.yul\":5744:5796   */\n      tag_190\n      jump\t// in\n    tag_313:\n        /* \"#utility.yul\":5734:5796   */\n      swap2\n      pop\n        /* \"#utility.yul\":5689:5806   */\n      pop\n        /* \"#utility.yul\":5161:5813   */\n      swap3\n      pop\n      swap3\n      swap1\n      pop\n      jump\t// out\n        /* \"#utility.yul\":5819:5918   */\n    tag_191:\n        /* \"#utility.yul\":5871:5877   */\n      0x00\n        /* \"#utility.yul\":5905:5910   */\n      dup2\n        /* \"#utility.yul\":5899:5911   */\n      mload\n        /* \"#utility.yul\":5889:5911   */\n      swap1\n      pop\n        /* \"#utility.yul\":5819:5918   */\n      swap2\n      swap1\n      pop\n      jump\t// out\n        /* \"#utility.yul\":5924:6093   */\n    tag_192:\n        /* \"#utility.yul\":6008:6019   */\n      0x00\n        /* \"#utility.yul\":6042:6048   */\n      dup3\n        /* \"#utility.yul\":6037:6040   */\n      dup3\n        /* \"#utility.yul\":6030:6049   */\n      mstore\n        /* \"#utility.yul\":6082:6086   */\n      0x20\n        /* \"#utility.yul\":6077:6080   */\n      dup3\n        /* \"#utility.yul\":6073:6087   */\n      add\n        /* \"#utility.yul\":6058:6087   */\n      swap1\n      pop\n        /* \"#utility.yul\":5924:6093   */\n      swap3\n      swap2\n      pop\n      pop\n      jump\t// out\n        /* \"#utility.yul\":6099:6406   */\n    tag_193:\n        /* \"#utility.yul\":6167:6168   */\n      0x00\n        /* \"#utility.yul\":6177:6290   */\n    tag_317:\n        /* \"#utility.yul\":6191:6197   */\n      dup4\n        /* \"#utility.yul\":6188:6189   */\n      dup2\n        /* \"#utility.yul\":6185:6198   */\n      lt\n        /* \"#utility.yul\":6177:6290   */\n      iszero\n      tag_319\n      jumpi\n        /* \"#utility.yul\":6276:6277   */\n      dup1\n        /* \"#utility.yul\":6271:6274   */\n      dup3\n        /* \"#utility.yul\":6267:6278   */\n      add\n        /* \"#utility.yul\":6261:6279   */\n      mload\n        /* \"#utility.yul\":6257:6258   */\n      dup2\n        /* \"#utility.yul\":6252:6255   */\n      dup5\n        /* \"#utility.yul\":6248:6259   */\n      add\n        /* \"#utility.yul\":6241:6280   */\n      mstore\n        /* \"#utility.yul\":6213:6215   */\n      0x20\n        /* \"#utility.yul\":6210:6211   */\n      dup2\n        /* \"#utility.yul\":6206:6216   */\n      add\n        /* \"#utility.yul\":6201:6216   */\n      swap1\n      pop\n        /* \"#utility.yul\":6177:6290   */\n      jump(tag_317)\n    tag_319:\n        /* \"#utility.yul\":6308:6314   */\n      dup4\n        /* \"#utility.yul\":6305:6306   */\n      dup2\n        /* \"#utility.yul\":6302:6315   */\n      gt\n        /* \"#utility.yul\":6299:6400   */\n      iszero\n      tag_320\n      jumpi\n        /* \"#utility.yul\":6388:6389   */\n      0x00\n        /* \"#utility.yul\":6379:6385   */\n      dup5\n        /* \"#utility.yul\":6374:6377   */\n      dup5\n        /* \"#utility.yul\":6370:6386   */\n      add\n        /* \"#utility.yul\":6363:6390   */\n      mstore\n        /* \"#utility.yul\":6299:6400   */\n    tag_320:\n        /* \"#utility.yul\":6148:6406   */\n      pop\n        /* \"#utility.yul\":6099:6406   */\n      pop\n      pop\n      pop\n      jump\t// out\n        /* \"#utility.yul\":6412:6776   */\n    tag_194:\n        /* \"#utility.yul\":6500:6503   */\n      0x00\n        /* \"#utility.yul\":6528:6567   */\n      tag_322\n        /* \"#utility.yul\":6561:6566   */\n      dup3\n        /* \"#utility.yul\":6528:6567   */\n      tag_191\n      jump\t// in\n    tag_322:\n        /* \"#utility.yul\":6583:6654   */\n      tag_323\n        /* \"#utility.yul\":6647:6653   */\n      dup2\n        /* \"#utility.yul\":6642:6645   */\n      dup6\n        /* \"#utility.yul\":6583:6654   */\n      tag_192\n      jump\t// in\n    tag_323:\n        /* \"#utility.yul\":6576:6654   */\n      swap4\n      pop\n        /* \"#utility.yul\":6663:6715   */\n      tag_324\n        /* \"#utility.yul\":6708:6714   */\n      dup2\n        /* \"#utility.yul\":6703:6706   */\n      dup6\n        /* \"#utility.yul\":6696:6700   */\n      0x20\n        /* \"#utility.yul\":6689:6694   */\n      dup7\n        /* \"#utility.yul\":6685:6701   */\n      add\n        /* \"#utility.yul\":6663:6715   */\n      tag_193\n      jump\t// in\n    tag_324:\n        /* \"#utility.yul\":6740:6769   */\n      tag_325\n        /* \"#utility.yul\":6762:6768   */\n      dup2\n        /* \"#utility.yul\":6740:6769   */\n      tag_176\n      jump\t// in\n    tag_325:\n        /* \"#utility.yul\":6735:6738   */\n      dup5\n        /* \"#utility.yul\":6731:6770   */\n      add\n        /* \"#utility.yul\":6724:6770   */\n      swap2\n      pop\n        /* \"#utility.yul\":6504:6776   */\n      pop\n        /* \"#utility.yul\":6412:6776   */\n      swap3\n      swap2\n      pop\n      pop\n      jump\t// out\n        /* \"#utility.yul\":6782:6900   */\n    tag_195:\n        /* \"#utility.yul\":6869:6893   */\n      tag_327\n        /* \"#utility.yul\":6887:6892   */\n      dup2\n        /* \"#utility.yul\":6869:6893   */\n      tag_183\n      jump\t// in\n    tag_327:\n        /* \"#utility.yul\":6864:6867   */\n      dup3\n        /* \"#utility.yul\":6857:6894   */\n      mstore\n        /* \"#utility.yul\":6782:6900   */\n      pop\n      pop\n      jump\t// out\n        /* \"#utility.yul\":6906:7329   */\n    tag_30:\n        /* \"#utility.yul\":7047:7051   */\n      0x00\n        /* \"#utility.yul\":7085:7087   */\n      0x40\n        /* \"#utility.yul\":7074:7083   */\n      dup3\n        /* \"#utility.yul\":7070:7088   */\n      add\n        /* \"#utility.yul\":7062:7088   */\n      swap1\n      pop\n        /* \"#utility.yul\":7134:7143   */\n      dup2\n        /* \"#utility.yul\":7128:7132   */\n      dup2\n        /* \"#utility.yul\":7124:7144   */\n      sub\n        /* \"#utility.yul\":7120:7121   */\n      0x00\n        /* \"#utility.yul\":7109:7118   */\n      dup4\n        /* \"#utility.yul\":7105:7122   */\n      add\n        /* \"#utility.yul\":7098:7145   */\n      mstore\n        /* \"#utility.yul\":7162:7240   */\n      tag_329\n        /* \"#utility.yul\":7235:7239   */\n      dup2\n        /* \"#utility.yul\":7226:7232   */\n      dup6\n        /* \"#utility.yul\":7162:7240   */\n      tag_194\n      jump\t// in\n    tag_329:\n        /* \"#utility.yul\":7154:7240   */\n      swap1\n      pop\n        /* \"#utility.yul\":7250:7322   */\n      tag_330\n        /* \"#utility.yul\":7318:7320   */\n      0x20\n        /* \"#utility.yul\":7307:7316   */\n      dup4\n        /* \"#utility.yul\":7303:7321   */\n      add\n        /* \"#utility.yul\":7294:7300   */\n      dup5\n        /* \"#utility.yul\":7250:7322   */\n      tag_195\n      jump\t// in\n    tag_330:\n        /* \"#utility.yul\":6906:7329   */\n      swap4\n      swap3\n      pop\n      pop\n      pop\n      jump\t// out\n        /* \"#utility.yul\":7335:7989   */\n    tag_34:\n        /* \"#utility.yul\":7413:7419   */\n      0x00\n        /* \"#utility.yul\":7421:7427   */\n      dup1\n        /* \"#utility.yul\":7470:7472   */\n      0x40\n        /* \"#utility.yul\":7458:7467   */\n      dup4\n        /* \"#utility.yul\":7449:7456   */\n      dup6\n        /* \"#utility.yul\":7445:7468   */\n      sub\n        /* \"#utility.yul\":7441:7473   */\n      slt\n        /* \"#utility.yul\":7438:7557   */\n      iszero\n      tag_332\n      jumpi\n        /* \"#utility.yul\":7476:7555   */\n      tag_333\n      tag_168\n      jump\t// in\n    tag_333:\n        /* \"#utility.yul\":7438:7557   */\n    tag_332:\n        /* \"#utility.yul\":7596:7597   */\n      0x00\n        /* \"#utility.yul\":7621:7674   */\n      tag_334\n        /* \"#utility.yul\":7666:7673   */\n      dup6\n        /* \"#utility.yul\":7657:7663   */\n      dup3\n        /* \"#utility.yul\":7646:7655   */\n      dup7\n        /* \"#utility.yul\":7642:7664   */\n      add\n        /* \"#utility.yul\":7621:7674   */\n      tag_173\n      jump\t// in\n    tag_334:\n        /* \"#utility.yul\":7611:7674   */\n      swap3\n      pop\n        /* \"#utility.yul\":7567:7684   */\n      pop\n        /* \"#utility.yul\":7751:7753   */\n      0x20\n        /* \"#utility.yul\":7740:7749   */\n      dup4\n        /* \"#utility.yul\":7736:7754   */\n      add\n        /* \"#utility.yul\":7723:7755   */\n      calldataload\n        /* \"#utility.yul\":7782:7800   */\n      0xffffffffffffffff\n        /* \"#utility.yul\":7774:7780   */\n      dup2\n        /* \"#utility.yul\":7771:7801   */\n      gt\n        /* \"#utility.yul\":7768:7885   */\n      iszero\n      tag_335\n      jumpi\n        /* \"#utility.yul\":7804:7883   */\n      tag_336\n      tag_169\n      jump\t// in\n    tag_336:\n        /* \"#utility.yul\":7768:7885   */\n    tag_335:\n        /* \"#utility.yul\":7909:7972   */\n      tag_337\n        /* \"#utility.yul\":7964:7971   */\n      dup6\n        /* \"#utility.yul\":7955:7961   */\n      dup3\n        /* \"#utility.yul\":7944:7953   */\n      dup7\n        /* \"#utility.yul\":7940:7962   */\n      add\n        /* \"#utility.yul\":7909:7972   */\n      tag_182\n      jump\t// in\n    tag_337:\n        /* \"#utility.yul\":7899:7972   */\n      swap2\n      pop\n        /* \"#utility.yul\":7694:7982   */\n      pop\n        /* \"#utility.yul\":7335:7989   */\n      swap3\n      pop\n      swap3\n      swap1\n      pop\n      jump\t// out\n        /* \"#utility.yul\":7995:8504   */\n    tag_39:\n        /* \"#utility.yul\":8064:8070   */\n      0x00\n        /* \"#utility.yul\":8113:8115   */\n      0x20\n        /* \"#utility.yul\":8101:8110   */\n      dup3\n        /* \"#utility.yul\":8092:8099   */\n      dup5\n        /* \"#utility.yul\":8088:8111   */\n      sub\n        /* \"#utility.yul\":8084:8116   */\n      slt\n        /* \"#utility.yul\":8081:8200   */\n      iszero\n      tag_339\n      jumpi\n        /* \"#utility.yul\":8119:8198   */\n      tag_340\n      tag_168\n      jump\t// in\n    tag_340:\n        /* \"#utility.yul\":8081:8200   */\n    tag_339:\n        /* \"#utility.yul\":8267:8268   */\n      0x00\n        /* \"#utility.yul\":8256:8265   */\n      dup3\n        /* \"#utility.yul\":8252:8269   */\n      add\n        /* \"#utility.yul\":8239:8270   */\n      calldataload\n        /* \"#utility.yul\":8297:8315   */\n      0xffffffffffffffff\n        /* \"#utility.yul\":8289:8295   */\n      dup2\n        /* \"#utility.yul\":8286:8316   */\n      gt\n        /* \"#utility.yul\":8283:8400   */\n      iszero\n      tag_341\n      jumpi\n        /* \"#utility.yul\":8319:8398   */\n      tag_342\n      tag_169\n      jump\t// in\n    tag_342:\n        /* \"#utility.yul\":8283:8400   */\n    tag_341:\n        /* \"#utility.yul\":8424:8487   */\n      tag_343\n        /* \"#utility.yul\":8479:8486   */\n      dup5\n        /* \"#utility.yul\":8470:8476   */\n      dup3\n        /* \"#utility.yul\":8459:8468   */\n      dup6\n        /* \"#utility.yul\":8455:8477   */\n      add\n        /* \"#utility.yul\":8424:8487   */\n      tag_182\n      jump\t// in\n    tag_343:\n        /* \"#utility.yul\":8414:8487   */\n      swap2\n      pop\n        /* \"#utility.yul\":8210:8497   */\n      pop\n        /* \"#utility.yul\":7995:8504   */\n      swap3\n      swap2\n      pop\n      pop\n      jump\t// out\n        /* \"#utility.yul\":8510:8732   */\n    tag_42:\n        /* \"#utility.yul\":8603:8607   */\n      0x00\n        /* \"#utility.yul\":8641:8643   */\n      0x20\n        /* \"#utility.yul\":8630:8639   */\n      dup3\n        /* \"#utility.yul\":8626:8644   */\n      add\n        /* \"#utility.yul\":8618:8644   */\n      swap1\n      pop\n        /* \"#utility.yul\":8654:8725   */\n      tag_345\n        /* \"#utility.yul\":8722:8723   */\n      0x00\n        /* \"#utility.yul\":8711:8720   */\n      dup4\n        /* \"#utility.yul\":8707:8724   */\n      add\n        /* \"#utility.yul\":8698:8704   */\n      dup5\n        /* \"#utility.yul\":8654:8725   */\n      tag_195\n      jump\t// in\n    tag_345:\n        /* \"#utility.yul\":8510:8732   */\n      swap3\n      swap2\n      pop\n      pop\n      jump\t// out\n        /* \"#utility.yul\":8738:8852   */\n    tag_196:\n        /* \"#utility.yul\":8805:8811   */\n      0x00\n        /* \"#utility.yul\":8839:8844   */\n      dup2\n        /* \"#utility.yul\":8833:8845   */\n      mload\n        /* \"#utility.yul\":8823:8845   */\n      swap1\n      pop\n        /* \"#utility.yul\":8738:8852   */\n      swap2\n      swap1\n      pop\n      jump\t// out\n        /* \"#utility.yul\":8858:9042   */\n    tag_197:\n        /* \"#utility.yul\":8957:8968   */\n      0x00\n        /* \"#utility.yul\":8991:8997   */\n      dup3\n        /* \"#utility.yul\":8986:8989   */\n      dup3\n        /* \"#utility.yul\":8979:8998   */\n      mstore\n        /* \"#utility.yul\":9031:9035   */\n      0x20\n        /* \"#utility.yul\":9026:9029   */\n      dup3\n        /* \"#utility.yul\":9022:9036   */\n      add\n        /* \"#utility.yul\":9007:9036   */\n      swap1\n      pop\n        /* \"#utility.yul\":8858:9042   */\n      swap3\n      swap2\n      pop\n      pop\n      jump\t// out\n        /* \"#utility.yul\":9048:9180   */\n    tag_198:\n        /* \"#utility.yul\":9115:9119   */\n      0x00\n        /* \"#utility.yul\":9138:9141   */\n      dup2\n        /* \"#utility.yul\":9130:9141   */\n      swap1\n      pop\n        /* \"#utility.yul\":9168:9172   */\n      0x20\n        /* \"#utility.yul\":9163:9166   */\n      dup3\n        /* \"#utility.yul\":9159:9173   */\n      add\n        /* \"#utility.yul\":9151:9173   */\n      swap1\n      pop\n        /* \"#utility.yul\":9048:9180   */\n      swap2\n      swap1\n      pop\n      jump\t// out\n        /* \"#utility.yul\":9186:9294   */\n    tag_199:\n        /* \"#utility.yul\":9263:9287   */\n      tag_350\n        /* \"#utility.yul\":9281:9286   */\n      dup2\n        /* \"#utility.yul\":9263:9287   */\n      tag_183\n      jump\t// in\n    tag_350:\n        /* \"#utility.yul\":9258:9261   */\n      dup3\n        /* \"#utility.yul\":9251:9288   */\n      mstore\n        /* \"#utility.yul\":9186:9294   */\n      pop\n      pop\n      jump\t// out\n        /* \"#utility.yul\":9300:9479   */\n    tag_200:\n        /* \"#utility.yul\":9369:9379   */\n      0x00\n        /* \"#utility.yul\":9390:9436   */\n      tag_352\n        /* \"#utility.yul\":9432:9435   */\n      dup4\n        /* \"#utility.yul\":9424:9430   */\n      dup4\n        /* \"#utility.yul\":9390:9436   */\n      tag_199\n      jump\t// in\n    tag_352:\n        /* \"#utility.yul\":9468:9472   */\n      0x20\n        /* \"#utility.yul\":9463:9466   */\n      dup4\n        /* \"#utility.yul\":9459:9473   */\n      add\n        /* \"#utility.yul\":9445:9473   */\n      swap1\n      pop\n        /* \"#utility.yul\":9300:9479   */\n      swap3\n      swap2\n      pop\n      pop\n      jump\t// out\n        /* \"#utility.yul\":9485:9598   */\n    tag_201:\n        /* \"#utility.yul\":9555:9559   */\n      0x00\n        /* \"#utility.yul\":9587:9591   */\n      0x20\n        /* \"#utility.yul\":9582:9585   */\n      dup3\n        /* \"#utility.yul\":9578:9592   */\n      add\n        /* \"#utility.yul\":9570:9592   */\n      swap1\n      pop\n        /* \"#utility.yul\":9485:9598   */\n      swap2\n      swap1\n      pop\n      jump\t// out\n        /* \"#utility.yul\":9634:10366   */\n    tag_202:\n        /* \"#utility.yul\":9753:9756   */\n      0x00\n        /* \"#utility.yul\":9782:9836   */\n      tag_355\n        /* \"#utility.yul\":9830:9835   */\n      dup3\n        /* \"#utility.yul\":9782:9836   */\n      tag_196\n      jump\t// in\n    tag_355:\n        /* \"#utility.yul\":9852:9938   */\n      tag_356\n        /* \"#utility.yul\":9931:9937   */\n      dup2\n        /* \"#utility.yul\":9926:9929   */\n      dup6\n        /* \"#utility.yul\":9852:9938   */\n      tag_197\n      jump\t// in\n    tag_356:\n        /* \"#utility.yul\":9845:9938   */\n      swap4\n      pop\n        /* \"#utility.yul\":9962:10018   */\n      tag_357\n        /* \"#utility.yul\":10012:10017   */\n      dup4\n        /* \"#utility.yul\":9962:10018   */\n      tag_198\n      jump\t// in\n    tag_357:\n        /* \"#utility.yul\":10041:10048   */\n      dup1\n        /* \"#utility.yul\":10072:10073   */\n      0x00\n        /* \"#utility.yul\":10057:10341   */\n    tag_358:\n        /* \"#utility.yul\":10082:10088   */\n      dup4\n        /* \"#utility.yul\":10079:10080   */\n      dup2\n        /* \"#utility.yul\":10076:10089   */\n      lt\n        /* \"#utility.yul\":10057:10341   */\n      iszero\n      tag_360\n      jumpi\n        /* \"#utility.yul\":10158:10164   */\n      dup2\n        /* \"#utility.yul\":10152:10165   */\n      mload\n        /* \"#utility.yul\":10185:10248   */\n      tag_361\n        /* \"#utility.yul\":10244:10247   */\n      dup9\n        /* \"#utility.yul\":10229:10242   */\n      dup3\n        /* \"#utility.yul\":10185:10248   */\n      tag_200\n      jump\t// in\n    tag_361:\n        /* \"#utility.yul\":10178:10248   */\n      swap8\n      pop\n        /* \"#utility.yul\":10271:10331   */\n      tag_362\n        /* \"#utility.yul\":10324:10330   */\n      dup4\n        /* \"#utility.yul\":10271:10331   */\n      tag_201\n      jump\t// in\n    tag_362:\n        /* \"#utility.yul\":10261:10331   */\n      swap3\n      pop\n        /* \"#utility.yul\":10117:10341   */\n      pop\n        /* \"#utility.yul\":10104:10105   */\n      0x01\n        /* \"#utility.yul\":10101:10102   */\n      dup2\n        /* \"#utility.yul\":10097:10106   */\n      add\n        /* \"#utility.yul\":10092:10106   */\n      swap1\n      pop\n        /* \"#utility.yul\":10057:10341   */\n      jump(tag_358)\n    tag_360:\n        /* \"#utility.yul\":10061:10075   */\n      pop\n        /* \"#utility.yul\":10357:10360   */\n      dup6\n        /* \"#utility.yul\":10350:10360   */\n      swap4\n      pop\n        /* \"#utility.yul\":9758:10366   */\n      pop\n      pop\n      pop\n        /* \"#utility.yul\":9634:10366   */\n      swap3\n      swap2\n      pop\n      pop\n      jump\t// out\n        /* \"#utility.yul\":10372:10490   */\n    tag_203:\n        /* \"#utility.yul\":10459:10483   */\n      tag_364\n        /* \"#utility.yul\":10477:10482   */\n      dup2\n        /* \"#utility.yul\":10459:10483   */\n      tag_171\n      jump\t// in\n    tag_364:\n        /* \"#utility.yul\":10454:10457   */\n      dup3\n        /* \"#utility.yul\":10447:10484   */\n      mstore\n        /* \"#utility.yul\":10372:10490   */\n      pop\n      pop\n      jump\t// out\n        /* \"#utility.yul\":10496:11089   */\n    tag_48:\n        /* \"#utility.yul\":10695:10699   */\n      0x00\n        /* \"#utility.yul\":10733:10735   */\n      0x60\n        /* \"#utility.yul\":10722:10731   */\n      dup3\n        /* \"#utility.yul\":10718:10736   */\n      add\n        /* \"#utility.yul\":10710:10736   */\n      swap1\n      pop\n        /* \"#utility.yul\":10782:10791   */\n      dup2\n        /* \"#utility.yul\":10776:10780   */\n      dup2\n        /* \"#utility.yul\":10772:10792   */\n      sub\n        /* \"#utility.yul\":10768:10769   */\n      0x00\n        /* \"#utility.yul\":10757:10766   */\n      dup4\n        /* \"#utility.yul\":10753:10770   */\n      add\n        /* \"#utility.yul\":10746:10793   */\n      mstore\n        /* \"#utility.yul\":10810:10918   */\n      tag_366\n        /* \"#utility.yul\":10913:10917   */\n      dup2\n        /* \"#utility.yul\":10904:10910   */\n      dup7\n        /* \"#utility.yul\":10810:10918   */\n      tag_202\n      jump\t// in\n    tag_366:\n        /* \"#utility.yul\":10802:10918   */\n      swap1\n      pop\n        /* \"#utility.yul\":10928:11000   */\n      tag_367\n        /* \"#utility.yul\":10996:10998   */\n      0x20\n        /* \"#utility.yul\":10985:10994   */\n      dup4\n        /* \"#utility.yul\":10981:10999   */\n      add\n        /* \"#utility.yul\":10972:10978   */\n      dup6\n        /* \"#utility.yul\":10928:11000   */\n      tag_203\n      jump\t// in\n    tag_367:\n        /* \"#utility.yul\":11010:11082   */\n      tag_368\n        /* \"#utility.yul\":11078:11080   */\n      0x40\n        /* \"#utility.yul\":11067:11076   */\n      dup4\n        /* \"#utility.yul\":11063:11081   */\n      add\n        /* \"#utility.yul\":11054:11060   */\n      dup5\n        /* \"#utility.yul\":11010:11082   */\n      tag_195\n      jump\t// in\n    tag_368:\n        /* \"#utility.yul\":10496:11089   */\n      swap5\n      swap4\n      pop\n      pop\n      pop\n      pop\n      jump\t// out\n        /* \"#utility.yul\":11095:11188   */\n    tag_204:\n        /* \"#utility.yul\":11131:11138   */\n      0x00\n        /* \"#utility.yul\":11171:11181   */\n      0xffffffff\n        /* \"#utility.yul\":11164:11169   */\n      dup3\n        /* \"#utility.yul\":11160:11182   */\n      and\n        /* \"#utility.yul\":11149:11182   */\n      swap1\n      pop\n        /* \"#utility.yul\":11095:11188   */\n      swap2\n      swap1\n      pop\n      jump\t// out\n        /* \"#utility.yul\":11194:11309   */\n    tag_205:\n        /* \"#utility.yul\":11279:11302   */\n      tag_371\n        /* \"#utility.yul\":11296:11301   */\n      dup2\n        /* \"#utility.yul\":11279:11302   */\n      tag_204\n      jump\t// in\n    tag_371:\n        /* \"#utility.yul\":11274:11277   */\n      dup3\n        /* \"#utility.yul\":11267:11303   */\n      mstore\n        /* \"#utility.yul\":11194:11309   */\n      pop\n      pop\n      jump\t// out\n        /* \"#utility.yul\":11315:11416   */\n    tag_206:\n        /* \"#utility.yul\":11351:11358   */\n      0x00\n        /* \"#utility.yul\":11391:11409   */\n      0xffffffffffffffff\n        /* \"#utility.yul\":11384:11389   */\n      dup3\n        /* \"#utility.yul\":11380:11410   */\n      and\n        /* \"#utility.yul\":11369:11410   */\n      swap1\n      pop\n        /* \"#utility.yul\":11315:11416   */\n      swap2\n      swap1\n      pop\n      jump\t// out\n        /* \"#utility.yul\":11422:11537   */\n    tag_207:\n        /* \"#utility.yul\":11507:11530   */\n      tag_374\n        /* \"#utility.yul\":11524:11529   */\n      dup2\n        /* \"#utility.yul\":11507:11530   */\n      tag_206\n      jump\t// in\n    tag_374:\n        /* \"#utility.yul\":11502:11505   */\n      dup3\n        /* \"#utility.yul\":11495:11531   */\n      mstore\n        /* \"#utility.yul\":11422:11537   */\n      pop\n      pop\n      jump\t// out\n        /* \"#utility.yul\":11543:11658   */\n    tag_208:\n        /* \"#utility.yul\":11628:11651   */\n      tag_376\n        /* \"#utility.yul\":11645:11650   */\n      dup2\n        /* \"#utility.yul\":11628:11651   */\n      tag_188\n      jump\t// in\n    tag_376:\n        /* \"#utility.yul\":11623:11626   */\n      dup3\n        /* \"#utility.yul\":11616:11652   */\n      mstore\n        /* \"#utility.yul\":11543:11658   */\n      pop\n      pop\n      jump\t// out\n        /* \"#utility.yul\":11664:11754   */\n    tag_209:\n        /* \"#utility.yul\":11698:11705   */\n      0x00\n        /* \"#utility.yul\":11741:11746   */\n      dup2\n        /* \"#utility.yul\":11734:11747   */\n      iszero\n        /* \"#utility.yul\":11727:11748   */\n      iszero\n        /* \"#utility.yul\":11716:11748   */\n      swap1\n      pop\n        /* \"#utility.yul\":11664:11754   */\n      swap2\n      swap1\n      pop\n      jump\t// out\n        /* \"#utility.yul\":11760:11869   */\n    tag_210:\n        /* \"#utility.yul\":11841:11862   */\n      tag_379\n        /* \"#utility.yul\":11856:11861   */\n      dup2\n        /* \"#utility.yul\":11841:11862   */\n      tag_209\n      jump\t// in\n    tag_379:\n        /* \"#utility.yul\":11836:11839   */\n      dup3\n        /* \"#utility.yul\":11829:11863   */\n      mstore\n        /* \"#utility.yul\":11760:11869   */\n      pop\n      pop\n      jump\t// out\n        /* \"#utility.yul\":11875:12622   */\n    tag_58:\n        /* \"#utility.yul\":12094:12098   */\n      0x00\n        /* \"#utility.yul\":12132:12135   */\n      0xc0\n        /* \"#utility.yul\":12121:12130   */\n      dup3\n        /* \"#utility.yul\":12117:12136   */\n      add\n        /* \"#utility.yul\":12109:12136   */\n      swap1\n      pop\n        /* \"#utility.yul\":12146:12217   */\n      tag_381\n        /* \"#utility.yul\":12214:12215   */\n      0x00\n        /* \"#utility.yul\":12203:12212   */\n      dup4\n        /* \"#utility.yul\":12199:12216   */\n      add\n        /* \"#utility.yul\":12190:12196   */\n      dup10\n        /* \"#utility.yul\":12146:12217   */\n      tag_203\n      jump\t// in\n    tag_381:\n        /* \"#utility.yul\":12227:12297   */\n      tag_382\n        /* \"#utility.yul\":12293:12295   */\n      0x20\n        /* \"#utility.yul\":12282:12291   */\n      dup4\n        /* \"#utility.yul\":12278:12296   */\n      add\n        /* \"#utility.yul\":12269:12275   */\n      dup9\n        /* \"#utility.yul\":12227:12297   */\n      tag_205\n      jump\t// in\n    tag_382:\n        /* \"#utility.yul\":12307:12377   */\n      tag_383\n        /* \"#utility.yul\":12373:12375   */\n      0x40\n        /* \"#utility.yul\":12362:12371   */\n      dup4\n        /* \"#utility.yul\":12358:12376   */\n      add\n        /* \"#utility.yul\":12349:12355   */\n      dup8\n        /* \"#utility.yul\":12307:12377   */\n      tag_207\n      jump\t// in\n    tag_383:\n        /* \"#utility.yul\":12387:12457   */\n      tag_384\n        /* \"#utility.yul\":12453:12455   */\n      0x60\n        /* \"#utility.yul\":12442:12451   */\n      dup4\n        /* \"#utility.yul\":12438:12456   */\n      add\n        /* \"#utility.yul\":12429:12435   */\n      dup7\n        /* \"#utility.yul\":12387:12457   */\n      tag_207\n      jump\t// in\n    tag_384:\n        /* \"#utility.yul\":12467:12538   */\n      tag_385\n        /* \"#utility.yul\":12533:12536   */\n      0x80\n        /* \"#utility.yul\":12522:12531   */\n      dup4\n        /* \"#utility.yul\":12518:12537   */\n      add\n        /* \"#utility.yul\":12509:12515   */\n      dup6\n        /* \"#utility.yul\":12467:12538   */\n      tag_208\n      jump\t// in\n    tag_385:\n        /* \"#utility.yul\":12548:12615   */\n      tag_386\n        /* \"#utility.yul\":12610:12613   */\n      0xa0\n        /* \"#utility.yul\":12599:12608   */\n      dup4\n        /* \"#utility.yul\":12595:12614   */\n      add\n        /* \"#utility.yul\":12586:12592   */\n      dup5\n        /* \"#utility.yul\":12548:12615   */\n      tag_210\n      jump\t// in\n    tag_386:\n        /* \"#utility.yul\":11875:12622   */\n      swap8\n      swap7\n      pop\n      pop\n      pop\n      pop\n      pop\n      pop\n      pop\n      jump\t// out\n        /* \"#utility.yul\":12628:12957   */\n    tag_62:\n        /* \"#utility.yul\":12687:12693   */\n      0x00\n        /* \"#utility.yul\":12736:12738   */\n      0x20\n        /* \"#utility.yul\":12724:12733   */\n      dup3\n        /* \"#utility.yul\":12715:12722   */\n      dup5\n        /* \"#utility.yul\":12711:12734   */\n      sub\n        /* \"#utility.yul\":12707:12739   */\n      slt\n        /* \"#utility.yul\":12704:12823   */\n      iszero\n      tag_388\n      jumpi\n        /* \"#utility.yul\":12742:12821   */\n      tag_389\n      tag_168\n      jump\t// in\n    tag_389:\n        /* \"#utility.yul\":12704:12823   */\n    tag_388:\n        /* \"#utility.yul\":12862:12863   */\n      0x00\n        /* \"#utility.yul\":12887:12940   */\n      tag_390\n        /* \"#utility.yul\":12932:12939   */\n      dup5\n        /* \"#utility.yul\":12923:12929   */\n      dup3\n        /* \"#utility.yul\":12912:12921   */\n      dup6\n        /* \"#utility.yul\":12908:12930   */\n      add\n        /* \"#utility.yul\":12887:12940   */\n      tag_173\n      jump\t// in\n    tag_390:\n        /* \"#utility.yul\":12877:12940   */\n      swap2\n      pop\n        /* \"#utility.yul\":12833:12950   */\n      pop\n        /* \"#utility.yul\":12628:12957   */\n      swap3\n      swap2\n      pop\n      pop\n      jump\t// out\n        /* \"#utility.yul\":12963:13077   */\n    tag_211:\n        /* \"#utility.yul\":13030:13036   */\n      0x00\n        /* \"#utility.yul\":13064:13069   */\n      dup2\n        /* \"#utility.yul\":13058:13070   */\n      mload\n        /* \"#utility.yul\":13048:13070   */\n      swap1\n      pop\n        /* \"#utility.yul\":12963:13077   */\n      swap2\n      swap1\n      pop\n      jump\t// out\n        /* \"#utility.yul\":13083:13267   */\n    tag_212:\n        /* \"#utility.yul\":13182:13193   */\n      0x00\n        /* \"#utility.yul\":13216:13222   */\n      dup3\n        /* \"#utility.yul\":13211:13214   */\n      dup3\n        /* \"#utility.yul\":13204:13223   */\n      mstore\n        /* \"#utility.yul\":13256:13260   */\n      0x20\n        /* \"#utility.yul\":13251:13254   */\n      dup3\n        /* \"#utility.yul\":13247:13261   */\n      add\n        /* \"#utility.yul\":13232:13261   */\n      swap1\n      pop\n        /* \"#utility.yul\":13083:13267   */\n      swap3\n      swap2\n      pop\n      pop\n      jump\t// out\n        /* \"#utility.yul\":13273:13405   */\n    tag_213:\n        /* \"#utility.yul\":13340:13344   */\n      0x00\n        /* \"#utility.yul\":13363:13366   */\n      dup2\n        /* \"#utility.yul\":13355:13366   */\n      swap1\n      pop\n        /* \"#utility.yul\":13393:13397   */\n      0x20\n        /* \"#utility.yul\":13388:13391   */\n      dup3\n        /* \"#utility.yul\":13384:13398   */\n      add\n        /* \"#utility.yul\":13376:13398   */\n      swap1\n      pop\n        /* \"#utility.yul\":13273:13405   */\n      swap2\n      swap1\n      pop\n      jump\t// out\n        /* \"#utility.yul\":13411:13519   */\n    tag_214:\n        /* \"#utility.yul\":13488:13512   */\n      tag_395\n        /* \"#utility.yul\":13506:13511   */\n      dup2\n        /* \"#utility.yul\":13488:13512   */\n      tag_171\n      jump\t// in\n    tag_395:\n        /* \"#utility.yul\":13483:13486   */\n      dup3\n        /* \"#utility.yul\":13476:13513   */\n      mstore\n        /* \"#utility.yul\":13411:13519   */\n      pop\n      pop\n      jump\t// out\n        /* \"#utility.yul\":13525:13704   */\n    tag_215:\n        /* \"#utility.yul\":13594:13604   */\n      0x00\n        /* \"#utility.yul\":13615:13661   */\n      tag_397\n        /* \"#utility.yul\":13657:13660   */\n      dup4\n        /* \"#utility.yul\":13649:13655   */\n      dup4\n        /* \"#utility.yul\":13615:13661   */\n      tag_214\n      jump\t// in\n    tag_397:\n        /* \"#utility.yul\":13693:13697   */\n      0x20\n        /* \"#utility.yul\":13688:13691   */\n      dup4\n        /* \"#utility.yul\":13684:13698   */\n      add\n        /* \"#utility.yul\":13670:13698   */\n      swap1\n      pop\n        /* \"#utility.yul\":13525:13704   */\n      swap3\n      swap2\n      pop\n      pop\n      jump\t// out\n        /* \"#utility.yul\":13710:13823   */\n    tag_216:\n        /* \"#utility.yul\":13780:13784   */\n      0x00\n        /* \"#utility.yul\":13812:13816   */\n      0x20\n        /* \"#utility.yul\":13807:13810   */\n      dup3\n        /* \"#utility.yul\":13803:13817   */\n      add\n        /* \"#utility.yul\":13795:13817   */\n      swap1\n      pop\n        /* \"#utility.yul\":13710:13823   */\n      swap2\n      swap1\n      pop\n      jump\t// out\n        /* \"#utility.yul\":13859:14591   */\n    tag_217:\n        /* \"#utility.yul\":13978:13981   */\n      0x00\n        /* \"#utility.yul\":14007:14061   */\n      tag_400\n        /* \"#utility.yul\":14055:14060   */\n      dup3\n        /* \"#utility.yul\":14007:14061   */\n      tag_211\n      jump\t// in\n    tag_400:\n        /* \"#utility.yul\":14077:14163   */\n      tag_401\n        /* \"#utility.yul\":14156:14162   */\n      dup2\n        /* \"#utility.yul\":14151:14154   */\n      dup6\n        /* \"#utility.yul\":14077:14163   */\n      tag_212\n      jump\t// in\n    tag_401:\n        /* \"#utility.yul\":14070:14163   */\n      swap4\n      pop\n        /* \"#utility.yul\":14187:14243   */\n      tag_402\n        /* \"#utility.yul\":14237:14242   */\n      dup4\n        /* \"#utility.yul\":14187:14243   */\n      tag_213\n      jump\t// in\n    tag_402:\n        /* \"#utility.yul\":14266:14273   */\n      dup1\n        /* \"#utility.yul\":14297:14298   */\n      0x00\n        /* \"#utility.yul\":14282:14566   */\n    tag_403:\n        /* \"#utility.yul\":14307:14313   */\n      dup4\n        /* \"#utility.yul\":14304:14305   */\n      dup2\n        /* \"#utility.yul\":14301:14314   */\n      lt\n        /* \"#utility.yul\":14282:14566   */\n      iszero\n      tag_405\n      jumpi\n        /* \"#utility.yul\":14383:14389   */\n      dup2\n        /* \"#utility.yul\":14377:14390   */\n      mload\n        /* \"#utility.yul\":14410:14473   */\n      tag_406\n        /* \"#utility.yul\":14469:14472   */\n      dup9\n        /* \"#utility.yul\":14454:14467   */\n      dup3\n        /* \"#utility.yul\":14410:14473   */\n      tag_215\n      jump\t// in\n    tag_406:\n        /* \"#utility.yul\":14403:14473   */\n      swap8\n      pop\n        /* \"#utility.yul\":14496:14556   */\n      tag_407\n        /* \"#utility.yul\":14549:14555   */\n      dup4\n        /* \"#utility.yul\":14496:14556   */\n      tag_216\n      jump\t// in\n    tag_407:\n        /* \"#utility.yul\":14486:14556   */\n      swap3\n      pop\n        /* \"#utility.yul\":14342:14566   */\n      pop\n        /* \"#utility.yul\":14329:14330   */\n      0x01\n        /* \"#utility.yul\":14326:14327   */\n      dup2\n        /* \"#utility.yul\":14322:14331   */\n      add\n        /* \"#utility.yul\":14317:14331   */\n      swap1\n      pop\n        /* \"#utility.yul\":14282:14566   */\n      jump(tag_403)\n    tag_405:\n        /* \"#utility.yul\":14286:14300   */\n      pop\n        /* \"#utility.yul\":14582:14585   */\n      dup6\n        /* \"#utility.yul\":14575:14585   */\n      swap4\n      pop\n        /* \"#utility.yul\":13983:14591   */\n      pop\n      pop\n      pop\n        /* \"#utility.yul\":13859:14591   */\n      swap3\n      swap2\n      pop\n      pop\n      jump\t// out\n        /* \"#utility.yul\":14597:14970   */\n    tag_75:\n        /* \"#utility.yul\":14740:14744   */\n      0x00\n        /* \"#utility.yul\":14778:14780   */\n      0x20\n        /* \"#utility.yul\":14767:14776   */\n      dup3\n        /* \"#utility.yul\":14763:14781   */\n      add\n        /* \"#utility.yul\":14755:14781   */\n      swap1\n      pop\n        /* \"#utility.yul\":14827:14836   */\n      dup2\n        /* \"#utility.yul\":14821:14825   */\n      dup2\n        /* \"#utility.yul\":14817:14837   */\n      sub\n        /* \"#utility.yul\":14813:14814   */\n      0x00\n        /* \"#utility.yul\":14802:14811   */\n      dup4\n        /* \"#utility.yul\":14798:14815   */\n      add\n        /* \"#utility.yul\":14791:14838   */\n      mstore\n        /* \"#utility.yul\":14855:14963   */\n      tag_409\n        /* \"#utility.yul\":14958:14962   */\n      dup2\n        /* \"#utility.yul\":14949:14955   */\n      dup5\n        /* \"#utility.yul\":14855:14963   */\n      tag_217\n      jump\t// in\n    tag_409:\n        /* \"#utility.yul\":14847:14963   */\n      swap1\n      pop\n        /* \"#utility.yul\":14597:14970   */\n      swap3\n      swap2\n      pop\n      pop\n      jump\t// out\n        /* \"#utility.yul\":14976:15070   */\n    tag_218:\n        /* \"#utility.yul\":15009:15017   */\n      0x00\n        /* \"#utility.yul\":15057:15062   */\n      dup2\n        /* \"#utility.yul\":15053:15055   */\n      0x60\n        /* \"#utility.yul\":15049:15063   */\n      shl\n        /* \"#utility.yul\":15028:15063   */\n      swap1\n      pop\n        /* \"#utility.yul\":14976:15070   */\n      swap2\n      swap1\n      pop\n      jump\t// out\n        /* \"#utility.yul\":15076:15170   */\n    tag_219:\n        /* \"#utility.yul\":15115:15122   */\n      0x00\n        /* \"#utility.yul\":15144:15164   */\n      tag_412\n        /* \"#utility.yul\":15158:15163   */\n      dup3\n        /* \"#utility.yul\":15144:15164   */\n      tag_218\n      jump\t// in\n    tag_412:\n        /* \"#utility.yul\":15133:15164   */\n      swap1\n      pop\n        /* \"#utility.yul\":15076:15170   */\n      swap2\n      swap1\n      pop\n      jump\t// out\n        /* \"#utility.yul\":15176:15276   */\n    tag_220:\n        /* \"#utility.yul\":15215:15222   */\n      0x00\n        /* \"#utility.yul\":15244:15270   */\n      tag_414\n        /* \"#utility.yul\":15264:15269   */\n      dup3\n        /* \"#utility.yul\":15244:15270   */\n      tag_219\n      jump\t// in\n    tag_414:\n        /* \"#utility.yul\":15233:15270   */\n      swap1\n      pop\n        /* \"#utility.yul\":15176:15276   */\n      swap2\n      swap1\n      pop\n      jump\t// out\n        /* \"#utility.yul\":15282:15439   */\n    tag_221:\n        /* \"#utility.yul\":15387:15432   */\n      tag_416\n        /* \"#utility.yul\":15407:15431   */\n      tag_417\n        /* \"#utility.yul\":15425:15430   */\n      dup3\n        /* \"#utility.yul\":15407:15431   */\n      tag_171\n      jump\t// in\n    tag_417:\n        /* \"#utility.yul\":15387:15432   */\n      tag_220\n      jump\t// in\n    tag_416:\n        /* \"#utility.yul\":15382:15385   */\n      dup3\n        /* \"#utility.yul\":15375:15433   */\n      mstore\n        /* \"#utility.yul\":15282:15439   */\n      pop\n      pop\n      jump\t// out\n        /* \"#utility.yul\":15445:15593   */\n    tag_222:\n        /* \"#utility.yul\":15547:15558   */\n      0x00\n        /* \"#utility.yul\":15584:15587   */\n      dup2\n        /* \"#utility.yul\":15569:15587   */\n      swap1\n      pop\n        /* \"#utility.yul\":15445:15593   */\n      swap3\n      swap2\n      pop\n      pop\n      jump\t// out\n        /* \"#utility.yul\":15599:15772   */\n    tag_223:\n        /* \"#utility.yul\":15739:15764   */\n      0x6d6574617472616e73616374696f6e20566f74696e6720000000000000000000\n        /* \"#utility.yul\":15735:15736   */\n      0x00\n        /* \"#utility.yul\":15727:15733   */\n      dup3\n        /* \"#utility.yul\":15723:15737   */\n      add\n        /* \"#utility.yul\":15716:15765   */\n      mstore\n        /* \"#utility.yul\":15599:15772   */\n      pop\n      jump\t// out\n        /* \"#utility.yul\":15778:16180   */\n    tag_224:\n        /* \"#utility.yul\":15938:15941   */\n      0x00\n        /* \"#utility.yul\":15959:16044   */\n      tag_421\n        /* \"#utility.yul\":16041:16043   */\n      0x17\n        /* \"#utility.yul\":16036:16039   */\n      dup4\n        /* \"#utility.yul\":15959:16044   */\n      tag_222\n      jump\t// in\n    tag_421:\n        /* \"#utility.yul\":15952:16044   */\n      swap2\n      pop\n        /* \"#utility.yul\":16053:16146   */\n      tag_422\n        /* \"#utility.yul\":16142:16145   */\n      dup3\n        /* \"#utility.yul\":16053:16146   */\n      tag_223\n      jump\t// in\n    tag_422:\n        /* \"#utility.yul\":16171:16173   */\n      0x17\n        /* \"#utility.yul\":16166:16169   */\n      dup3\n        /* \"#utility.yul\":16162:16174   */\n      add\n        /* \"#utility.yul\":16155:16174   */\n      swap1\n      pop\n        /* \"#utility.yul\":15778:16180   */\n      swap2\n      swap1\n      pop\n      jump\t// out\n        /* \"#utility.yul\":16186:16563   */\n    tag_225:\n        /* \"#utility.yul\":16292:16295   */\n      0x00\n        /* \"#utility.yul\":16320:16359   */\n      tag_424\n        /* \"#utility.yul\":16353:16358   */\n      dup3\n        /* \"#utility.yul\":16320:16359   */\n      tag_191\n      jump\t// in\n    tag_424:\n        /* \"#utility.yul\":16375:16464   */\n      tag_425\n        /* \"#utility.yul\":16457:16463   */\n      dup2\n        /* \"#utility.yul\":16452:16455   */\n      dup6\n        /* \"#utility.yul\":16375:16464   */\n      tag_222\n      jump\t// in\n    tag_425:\n        /* \"#utility.yul\":16368:16464   */\n      swap4\n      pop\n        /* \"#utility.yul\":16473:16525   */\n      tag_426\n        /* \"#utility.yul\":16518:16524   */\n      dup2\n        /* \"#utility.yul\":16513:16516   */\n      dup6\n        /* \"#utility.yul\":16506:16510   */\n      0x20\n        /* \"#utility.yul\":16499:16504   */\n      dup7\n        /* \"#utility.yul\":16495:16511   */\n      add\n        /* \"#utility.yul\":16473:16525   */\n      tag_193\n      jump\t// in\n    tag_426:\n        /* \"#utility.yul\":16550:16556   */\n      dup1\n        /* \"#utility.yul\":16545:16548   */\n      dup5\n        /* \"#utility.yul\":16541:16557   */\n      add\n        /* \"#utility.yul\":16534:16557   */\n      swap2\n      pop\n        /* \"#utility.yul\":16296:16563   */\n      pop\n        /* \"#utility.yul\":16186:16563   */\n      swap3\n      swap2\n      pop\n      pop\n      jump\t// out\n        /* \"#utility.yul\":16569:16648   */\n    tag_226:\n        /* \"#utility.yul\":16608:16615   */\n      0x00\n        /* \"#utility.yul\":16637:16642   */\n      dup2\n        /* \"#utility.yul\":16626:16642   */\n      swap1\n      pop\n        /* \"#utility.yul\":16569:16648   */\n      swap2\n      swap1\n      pop\n      jump\t// out\n        /* \"#utility.yul\":16654:16811   */\n    tag_227:\n        /* \"#utility.yul\":16759:16804   */\n      tag_429\n        /* \"#utility.yul\":16779:16803   */\n      tag_430\n        /* \"#utility.yul\":16797:16802   */\n      dup3\n        /* \"#utility.yul\":16779:16803   */\n      tag_183\n      jump\t// in\n    tag_430:\n        /* \"#utility.yul\":16759:16804   */\n      tag_226\n      jump\t// in\n    tag_429:\n        /* \"#utility.yul\":16754:16757   */\n      dup3\n        /* \"#utility.yul\":16747:16805   */\n      mstore\n        /* \"#utility.yul\":16654:16811   */\n      pop\n      pop\n      jump\t// out\n        /* \"#utility.yul\":16817:17922   */\n    tag_82:\n        /* \"#utility.yul\":17162:17165   */\n      0x00\n        /* \"#utility.yul\":17177:17252   */\n      tag_432\n        /* \"#utility.yul\":17248:17251   */\n      dup3\n        /* \"#utility.yul\":17239:17245   */\n      dup9\n        /* \"#utility.yul\":17177:17252   */\n      tag_221\n      jump\t// in\n    tag_432:\n        /* \"#utility.yul\":17277:17279   */\n      0x14\n        /* \"#utility.yul\":17272:17275   */\n      dup3\n        /* \"#utility.yul\":17268:17280   */\n      add\n        /* \"#utility.yul\":17261:17280   */\n      swap2\n      pop\n        /* \"#utility.yul\":17297:17445   */\n      tag_433\n        /* \"#utility.yul\":17441:17444   */\n      dup3\n        /* \"#utility.yul\":17297:17445   */\n      tag_224\n      jump\t// in\n    tag_433:\n        /* \"#utility.yul\":17290:17445   */\n      swap2\n      pop\n        /* \"#utility.yul\":17455:17530   */\n      tag_434\n        /* \"#utility.yul\":17526:17529   */\n      dup3\n        /* \"#utility.yul\":17517:17523   */\n      dup8\n        /* \"#utility.yul\":17455:17530   */\n      tag_221\n      jump\t// in\n    tag_434:\n        /* \"#utility.yul\":17555:17557   */\n      0x14\n        /* \"#utility.yul\":17550:17553   */\n      dup3\n        /* \"#utility.yul\":17546:17558   */\n      add\n        /* \"#utility.yul\":17539:17558   */\n      swap2\n      pop\n        /* \"#utility.yul\":17575:17670   */\n      tag_435\n        /* \"#utility.yul\":17666:17669   */\n      dup3\n        /* \"#utility.yul\":17657:17663   */\n      dup7\n        /* \"#utility.yul\":17575:17670   */\n      tag_225\n      jump\t// in\n    tag_435:\n        /* \"#utility.yul\":17568:17670   */\n      swap2\n      pop\n        /* \"#utility.yul\":17680:17755   */\n      tag_436\n        /* \"#utility.yul\":17751:17754   */\n      dup3\n        /* \"#utility.yul\":17742:17748   */\n      dup6\n        /* \"#utility.yul\":17680:17755   */\n      tag_227\n      jump\t// in\n    tag_436:\n        /* \"#utility.yul\":17780:17782   */\n      0x20\n        /* \"#utility.yul\":17775:17778   */\n      dup3\n        /* \"#utility.yul\":17771:17783   */\n      add\n        /* \"#utility.yul\":17764:17783   */\n      swap2\n      pop\n        /* \"#utility.yul\":17793:17868   */\n      tag_437\n        /* \"#utility.yul\":17864:17867   */\n      dup3\n        /* \"#utility.yul\":17855:17861   */\n      dup5\n        /* \"#utility.yul\":17793:17868   */\n      tag_227\n      jump\t// in\n    tag_437:\n        /* \"#utility.yul\":17893:17895   */\n      0x20\n        /* \"#utility.yul\":17888:17891   */\n      dup3\n        /* \"#utility.yul\":17884:17896   */\n      add\n        /* \"#utility.yul\":17877:17896   */\n      swap2\n      pop\n        /* \"#utility.yul\":17913:17916   */\n      dup2\n        /* \"#utility.yul\":17906:17916   */\n      swap1\n      pop\n        /* \"#utility.yul\":16817:17922   */\n      swap7\n      swap6\n      pop\n      pop\n      pop\n      pop\n      pop\n      pop\n      jump\t// out\n        /* \"#utility.yul\":17928:18203   */\n    tag_85:\n        /* \"#utility.yul\":18060:18063   */\n      0x00\n        /* \"#utility.yul\":18082:18177   */\n      tag_439\n        /* \"#utility.yul\":18173:18176   */\n      dup3\n        /* \"#utility.yul\":18164:18170   */\n      dup5\n        /* \"#utility.yul\":18082:18177   */\n      tag_225\n      jump\t// in\n    tag_439:\n        /* \"#utility.yul\":18075:18177   */\n      swap2\n      pop\n        /* \"#utility.yul\":18194:18197   */\n      dup2\n        /* \"#utility.yul\":18187:18197   */\n      swap1\n      pop\n        /* \"#utility.yul\":17928:18203   */\n      swap3\n      swap2\n      pop\n      pop\n      jump\t// out\n        /* \"#utility.yul\":18209:18438   */\n    tag_228:\n        /* \"#utility.yul\":18349:18383   */\n      0x54686973206164647265737320646f6573206e6f742065786973742061732061\n        /* \"#utility.yul\":18345:18346   */\n      0x00\n        /* \"#utility.yul\":18337:18343   */\n      dup3\n        /* \"#utility.yul\":18333:18347   */\n      add\n        /* \"#utility.yul\":18326:18384   */\n      mstore\n        /* \"#utility.yul\":18418:18430   */\n      0x2063616e64696461746500000000000000000000000000000000000000000000\n        /* \"#utility.yul\":18413:18415   */\n      0x20\n        /* \"#utility.yul\":18405:18411   */\n      dup3\n        /* \"#utility.yul\":18401:18416   */\n      add\n        /* \"#utility.yul\":18394:18431   */\n      mstore\n        /* \"#utility.yul\":18209:18438   */\n      pop\n      jump\t// out\n        /* \"#utility.yul\":18444:18810   */\n    tag_229:\n        /* \"#utility.yul\":18586:18589   */\n      0x00\n        /* \"#utility.yul\":18607:18674   */\n      tag_442\n        /* \"#utility.yul\":18671:18673   */\n      0x2a\n        /* \"#utility.yul\":18666:18669   */\n      dup4\n        /* \"#utility.yul\":18607:18674   */\n      tag_192\n      jump\t// in\n    tag_442:\n        /* \"#utility.yul\":18600:18674   */\n      swap2\n      pop\n        /* \"#utility.yul\":18683:18776   */\n      tag_443\n        /* \"#utility.yul\":18772:18775   */\n      dup3\n        /* \"#utility.yul\":18683:18776   */\n      tag_228\n      jump\t// in\n    tag_443:\n        /* \"#utility.yul\":18801:18803   */\n      0x40\n        /* \"#utility.yul\":18796:18799   */\n      dup3\n        /* \"#utility.yul\":18792:18804   */\n      add\n        /* \"#utility.yul\":18785:18804   */\n      swap1\n      pop\n        /* \"#utility.yul\":18444:18810   */\n      swap2\n      swap1\n      pop\n      jump\t// out\n        /* \"#utility.yul\":18816:19235   */\n    tag_90:\n        /* \"#utility.yul\":18982:18986   */\n      0x00\n        /* \"#utility.yul\":19020:19022   */\n      0x20\n        /* \"#utility.yul\":19009:19018   */\n      dup3\n        /* \"#utility.yul\":19005:19023   */\n      add\n        /* \"#utility.yul\":18997:19023   */\n      swap1\n      pop\n        /* \"#utility.yul\":19069:19078   */\n      dup2\n        /* \"#utility.yul\":19063:19067   */\n      dup2\n        /* \"#utility.yul\":19059:19079   */\n      sub\n        /* \"#utility.yul\":19055:19056   */\n      0x00\n        /* \"#utility.yul\":19044:19053   */\n      dup4\n        /* \"#utility.yul\":19040:19057   */\n      add\n        /* \"#utility.yul\":19033:19080   */\n      mstore\n        /* \"#utility.yul\":19097:19228   */\n      tag_445\n        /* \"#utility.yul\":19223:19227   */\n      dup2\n        /* \"#utility.yul\":19097:19228   */\n      tag_229\n      jump\t// in\n    tag_445:\n        /* \"#utility.yul\":19089:19228   */\n      swap1\n      pop\n        /* \"#utility.yul\":18816:19235   */\n      swap2\n      swap1\n      pop\n      jump\t// out\n        /* \"#utility.yul\":19241:19407   */\n    tag_230:\n        /* \"#utility.yul\":19381:19399   */\n      0x766f74696e672068617320656e64656400000000000000000000000000000000\n        /* \"#utility.yul\":19377:19378   */\n      0x00\n        /* \"#utility.yul\":19369:19375   */\n      dup3\n        /* \"#utility.yul\":19365:19379   */\n      add\n        /* \"#utility.yul\":19358:19400   */\n      mstore\n        /* \"#utility.yul\":19241:19407   */\n      pop\n      jump\t// out\n        /* \"#utility.yul\":19413:19779   */\n    tag_231:\n        /* \"#utility.yul\":19555:19558   */\n      0x00\n        /* \"#utility.yul\":19576:19643   */\n      tag_448\n        /* \"#utility.yul\":19640:19642   */\n      0x10\n        /* \"#utility.yul\":19635:19638   */\n      dup4\n        /* \"#utility.yul\":19576:19643   */\n      tag_192\n      jump\t// in\n    tag_448:\n        /* \"#utility.yul\":19569:19643   */\n      swap2\n      pop\n        /* \"#utility.yul\":19652:19745   */\n      tag_449\n        /* \"#utility.yul\":19741:19744   */\n      dup3\n        /* \"#utility.yul\":19652:19745   */\n      tag_230\n      jump\t// in\n    tag_449:\n        /* \"#utility.yul\":19770:19772   */\n      0x20\n        /* \"#utility.yul\":19765:19768   */\n      dup3\n        /* \"#utility.yul\":19761:19773   */\n      add\n        /* \"#utility.yul\":19754:19773   */\n      swap1\n      pop\n        /* \"#utility.yul\":19413:19779   */\n      swap2\n      swap1\n      pop\n      jump\t// out\n        /* \"#utility.yul\":19785:20204   */\n    tag_95:\n        /* \"#utility.yul\":19951:19955   */\n      0x00\n        /* \"#utility.yul\":19989:19991   */\n      0x20\n        /* \"#utility.yul\":19978:19987   */\n      dup3\n        /* \"#utility.yul\":19974:19992   */\n      add\n        /* \"#utility.yul\":19966:19992   */\n      swap1\n      pop\n        /* \"#utility.yul\":20038:20047   */\n      dup2\n        /* \"#utility.yul\":20032:20036   */\n      dup2\n        /* \"#utility.yul\":20028:20048   */\n      sub\n        /* \"#utility.yul\":20024:20025   */\n      0x00\n        /* \"#utility.yul\":20013:20022   */\n      dup4\n        /* \"#utility.yul\":20009:20026   */\n      add\n        /* \"#utility.yul\":20002:20049   */\n      mstore\n        /* \"#utility.yul\":20066:20197   */\n      tag_451\n        /* \"#utility.yul\":20192:20196   */\n      dup2\n        /* \"#utility.yul\":20066:20197   */\n      tag_231\n      jump\t// in\n    tag_451:\n        /* \"#utility.yul\":20058:20197   */\n      swap1\n      pop\n        /* \"#utility.yul\":19785:20204   */\n      swap2\n      swap1\n      pop\n      jump\t// out\n        /* \"#utility.yul\":20210:20377   */\n    tag_232:\n        /* \"#utility.yul\":20350:20369   */\n      0x596f7520616c726561647920766f746564000000000000000000000000000000\n        /* \"#utility.yul\":20346:20347   */\n      0x00\n        /* \"#utility.yul\":20338:20344   */\n      dup3\n        /* \"#utility.yul\":20334:20348   */\n      add\n        /* \"#utility.yul\":20327:20370   */\n      mstore\n        /* \"#utility.yul\":20210:20377   */\n      pop\n      jump\t// out\n        /* \"#utility.yul\":20383:20749   */\n    tag_233:\n        /* \"#utility.yul\":20525:20528   */\n      0x00\n        /* \"#utility.yul\":20546:20613   */\n      tag_454\n        /* \"#utility.yul\":20610:20612   */\n      0x11\n        /* \"#utility.yul\":20605:20608   */\n      dup4\n        /* \"#utility.yul\":20546:20613   */\n      tag_192\n      jump\t// in\n    tag_454:\n        /* \"#utility.yul\":20539:20613   */\n      swap2\n      pop\n        /* \"#utility.yul\":20622:20715   */\n      tag_455\n        /* \"#utility.yul\":20711:20714   */\n      dup3\n        /* \"#utility.yul\":20622:20715   */\n      tag_232\n      jump\t// in\n    tag_455:\n        /* \"#utility.yul\":20740:20742   */\n      0x20\n        /* \"#utility.yul\":20735:20738   */\n      dup3\n        /* \"#utility.yul\":20731:20743   */\n      add\n        /* \"#utility.yul\":20724:20743   */\n      swap1\n      pop\n        /* \"#utility.yul\":20383:20749   */\n      swap2\n      swap1\n      pop\n      jump\t// out\n        /* \"#utility.yul\":20755:21174   */\n    tag_100:\n        /* \"#utility.yul\":20921:20925   */\n      0x00\n        /* \"#utility.yul\":20959:20961   */\n      0x20\n        /* \"#utility.yul\":20948:20957   */\n      dup3\n        /* \"#utility.yul\":20944:20962   */\n      add\n        /* \"#utility.yul\":20936:20962   */\n      swap1\n      pop\n        /* \"#utility.yul\":21008:21017   */\n      dup2\n        /* \"#utility.yul\":21002:21006   */\n      dup2\n        /* \"#utility.yul\":20998:21018   */\n      sub\n        /* \"#utility.yul\":20994:20995   */\n      0x00\n        /* \"#utility.yul\":20983:20992   */\n      dup4\n        /* \"#utility.yul\":20979:20996   */\n      add\n        /* \"#utility.yul\":20972:21019   */\n      mstore\n        /* \"#utility.yul\":21036:21167   */\n      tag_457\n        /* \"#utility.yul\":21162:21166   */\n      dup2\n        /* \"#utility.yul\":21036:21167   */\n      tag_233\n      jump\t// in\n    tag_457:\n        /* \"#utility.yul\":21028:21167   */\n      swap1\n      pop\n        /* \"#utility.yul\":20755:21174   */\n      swap2\n      swap1\n      pop\n      jump\t// out\n        /* \"#utility.yul\":21180:21500   */\n    tag_104:\n        /* \"#utility.yul\":21295:21299   */\n      0x00\n        /* \"#utility.yul\":21333:21335   */\n      0x40\n        /* \"#utility.yul\":21322:21331   */\n      dup3\n        /* \"#utility.yul\":21318:21336   */\n      add\n        /* \"#utility.yul\":21310:21336   */\n      swap1\n      pop\n        /* \"#utility.yul\":21346:21417   */\n      tag_459\n        /* \"#utility.yul\":21414:21415   */\n      0x00\n        /* \"#utility.yul\":21403:21412   */\n      dup4\n        /* \"#utility.yul\":21399:21416   */\n      add\n        /* \"#utility.yul\":21390:21396   */\n      dup6\n        /* \"#utility.yul\":21346:21417   */\n      tag_203\n      jump\t// in\n    tag_459:\n        /* \"#utility.yul\":21427:21493   */\n      tag_460\n        /* \"#utility.yul\":21489:21491   */\n      0x20\n        /* \"#utility.yul\":21478:21487   */\n      dup4\n        /* \"#utility.yul\":21474:21492   */\n      add\n        /* \"#utility.yul\":21465:21471   */\n      dup5\n        /* \"#utility.yul\":21427:21493   */\n      tag_210\n      jump\t// in\n    tag_460:\n        /* \"#utility.yul\":21180:21500   */\n      swap4\n      swap3\n      pop\n      pop\n      pop\n      jump\t// out\n        /* \"#utility.yul\":21506:21686   */\n    tag_109:\n        /* \"#utility.yul\":21554:21631   */\n      0x4e487b7100000000000000000000000000000000000000000000000000000000\n        /* \"#utility.yul\":21551:21552   */\n      0x00\n        /* \"#utility.yul\":21544:21632   */\n      mstore\n        /* \"#utility.yul\":21651:21655   */\n      0x32\n        /* \"#utility.yul\":21648:21649   */\n      0x04\n        /* \"#utility.yul\":21641:21656   */\n      mstore\n        /* \"#utility.yul\":21675:21679   */\n      0x24\n        /* \"#utility.yul\":21672:21673   */\n      0x00\n        /* \"#utility.yul\":21665:21680   */\n      revert\n        /* \"#utility.yul\":21692:21857   */\n    tag_234:\n        /* \"#utility.yul\":21832:21849   */\n      0x4e6f20706f6c6c20637265617465640000000000000000000000000000000000\n        /* \"#utility.yul\":21828:21829   */\n      0x00\n        /* \"#utility.yul\":21820:21826   */\n      dup3\n        /* \"#utility.yul\":21816:21830   */\n      add\n        /* \"#utility.yul\":21809:21850   */\n      mstore\n        /* \"#utility.yul\":21692:21857   */\n      pop\n      jump\t// out\n        /* \"#utility.yul\":21863:22229   */\n    tag_235:\n        /* \"#utility.yul\":22005:22008   */\n      0x00\n        /* \"#utility.yul\":22026:22093   */\n      tag_464\n        /* \"#utility.yul\":22090:22092   */\n      0x0f\n        /* \"#utility.yul\":22085:22088   */\n      dup4\n        /* \"#utility.yul\":22026:22093   */\n      tag_192\n      jump\t// in\n    tag_464:\n        /* \"#utility.yul\":22019:22093   */\n      swap2\n      pop\n        /* \"#utility.yul\":22102:22195   */\n      tag_465\n        /* \"#utility.yul\":22191:22194   */\n      dup3\n        /* \"#utility.yul\":22102:22195   */\n      tag_234\n      jump\t// in\n    tag_465:\n        /* \"#utility.yul\":22220:22222   */\n      0x20\n        /* \"#utility.yul\":22215:22218   */\n      dup3\n        /* \"#utility.yul\":22211:22223   */\n      add\n        /* \"#utility.yul\":22204:22223   */\n      swap1\n      pop\n        /* \"#utility.yul\":21863:22229   */\n      swap2\n      swap1\n      pop\n      jump\t// out\n        /* \"#utility.yul\":22235:22654   */\n    tag_115:\n        /* \"#utility.yul\":22401:22405   */\n      0x00\n        /* \"#utility.yul\":22439:22441   */\n      0x20\n        /* \"#utility.yul\":22428:22437   */\n      dup3\n        /* \"#utility.yul\":22424:22442   */\n      add\n        /* \"#utility.yul\":22416:22442   */\n      swap1\n      pop\n        /* \"#utility.yul\":22488:22497   */\n      dup2\n        /* \"#utility.yul\":22482:22486   */\n      dup2\n        /* \"#utility.yul\":22478:22498   */\n      sub\n        /* \"#utility.yul\":22474:22475   */\n      0x00\n        /* \"#utility.yul\":22463:22472   */\n      dup4\n        /* \"#utility.yul\":22459:22476   */\n      add\n        /* \"#utility.yul\":22452:22499   */\n      mstore\n        /* \"#utility.yul\":22516:22647   */\n      tag_467\n        /* \"#utility.yul\":22642:22646   */\n      dup2\n        /* \"#utility.yul\":22516:22647   */\n      tag_235\n      jump\t// in\n    tag_467:\n        /* \"#utility.yul\":22508:22647   */\n      swap1\n      pop\n        /* \"#utility.yul\":22235:22654   */\n      swap2\n      swap1\n      pop\n      jump\t// out\n        /* \"#utility.yul\":22660:22840   */\n    tag_236:\n        /* \"#utility.yul\":22708:22785   */\n      0x4e487b7100000000000000000000000000000000000000000000000000000000\n        /* \"#utility.yul\":22705:22706   */\n      0x00\n        /* \"#utility.yul\":22698:22786   */\n      mstore\n        /* \"#utility.yul\":22805:22809   */\n      0x11\n        /* \"#utility.yul\":22802:22803   */\n      0x04\n        /* \"#utility.yul\":22795:22810   */\n      mstore\n        /* \"#utility.yul\":22829:22833   */\n      0x24\n        /* \"#utility.yul\":22826:22827   */\n      0x00\n        /* \"#utility.yul\":22819:22834   */\n      revert\n        /* \"#utility.yul\":22846:23079   */\n    tag_136:\n        /* \"#utility.yul\":22885:22888   */\n      0x00\n        /* \"#utility.yul\":22908:22932   */\n      tag_470\n        /* \"#utility.yul\":22926:22931   */\n      dup3\n        /* \"#utility.yul\":22908:22932   */\n      tag_183\n      jump\t// in\n    tag_470:\n        /* \"#utility.yul\":22899:22932   */\n      swap2\n      pop\n        /* \"#utility.yul\":22954:23020   */\n      0xffffffffffffffffffffffffffffffffffffffffffffffffffffffffffffffff\n        /* \"#utility.yul\":22947:22952   */\n      dup3\n        /* \"#utility.yul\":22944:23021   */\n      eq\n        /* \"#utility.yul\":22941:23044   */\n      iszero\n      tag_471\n      jumpi\n        /* \"#utility.yul\":23024:23042   */\n      tag_472\n      tag_236\n      jump\t// in\n    tag_472:\n        /* \"#utility.yul\":22941:23044   */\n    tag_471:\n        /* \"#utility.yul\":23071:23072   */\n      0x01\n        /* \"#utility.yul\":23064:23069   */\n      dup3\n        /* \"#utility.yul\":23060:23073   */\n      add\n        /* \"#utility.yul\":23053:23073   */\n      swap1\n      pop\n        /* \"#utility.yul\":22846:23079   */\n      swap2\n      swap1\n      pop\n      jump\t// out\n        /* \"#utility.yul\":23085:23255   */\n    tag_237:\n        /* \"#utility.yul\":23225:23247   */\n      0x79657420746f20637265617465206120706f6c6c000000000000000000000000\n        /* \"#utility.yul\":23221:23222   */\n      0x00\n        /* \"#utility.yul\":23213:23219   */\n      dup3\n        /* \"#utility.yul\":23209:23223   */\n      add\n        /* \"#utility.yul\":23202:23248   */\n      mstore\n        /* \"#utility.yul\":23085:23255   */\n      pop\n      jump\t// out\n        /* \"#utility.yul\":23261:23627   */\n    tag_238:\n        /* \"#utility.yul\":23403:23406   */\n      0x00\n        /* \"#utility.yul\":23424:23491   */\n      tag_475\n        /* \"#utility.yul\":23488:23490   */\n      0x14\n        /* \"#utility.yul\":23483:23486   */\n      dup4\n        /* \"#utility.yul\":23424:23491   */\n      tag_192\n      jump\t// in\n    tag_475:\n        /* \"#utility.yul\":23417:23491   */\n      swap2\n      pop\n        /* \"#utility.yul\":23500:23593   */\n      tag_476\n        /* \"#utility.yul\":23589:23592   */\n      dup3\n        /* \"#utility.yul\":23500:23593   */\n      tag_237\n      jump\t// in\n    tag_476:\n        /* \"#utility.yul\":23618:23620   */\n      0x20\n        /* \"#utility.yul\":23613:23616   */\n      dup3\n        /* \"#utility.yul\":23609:23621   */\n      add\n        /* \"#utility.yul\":23602:23621   */\n      swap1\n      pop\n        /* \"#utility.yul\":23261:23627   */\n      swap2\n      swap1\n      pop\n      jump\t// out\n        /* \"#utility.yul\":23633:24052   */\n    tag_141:\n        /* \"#utility.yul\":23799:23803   */\n      0x00\n        /* \"#utility.yul\":23837:23839   */\n      0x20\n        /* \"#utility.yul\":23826:23835   */\n      dup3\n        /* \"#utility.yul\":23822:23840   */\n      add\n        /* \"#utility.yul\":23814:23840   */\n      swap1\n      pop\n        /* \"#utility.yul\":23886:23895   */\n      dup2\n        /* \"#utility.yul\":23880:23884   */\n      dup2\n        /* \"#utility.yul\":23876:23896   */\n      sub\n        /* \"#utility.yul\":23872:23873   */\n      0x00\n        /* \"#utility.yul\":23861:23870   */\n      dup4\n        /* \"#utility.yul\":23857:23874   */\n      add\n        /* \"#utility.yul\":23850:23897   */\n      mstore\n        /* \"#utility.yul\":23914:24045   */\n      tag_478\n        /* \"#utility.yul\":24040:24044   */\n      dup2\n        /* \"#utility.yul\":23914:24045   */\n      tag_238\n      jump\t// in\n    tag_478:\n        /* \"#utility.yul\":23906:24045   */\n      swap1\n      pop\n        /* \"#utility.yul\":23633:24052   */\n      swap2\n      swap1\n      pop\n      jump\t// out\n        /* \"#utility.yul\":24058:24238   */\n    tag_144:\n        /* \"#utility.yul\":24106:24183   */\n      0x4e487b7100000000000000000000000000000000000000000000000000000000\n        /* \"#utility.yul\":24103:24104   */\n      0x00\n        /* \"#utility.yul\":24096:24184   */\n      mstore\n        /* \"#utility.yul\":24203:24207   */\n      0x01\n        /* \"#utility.yul\":24200:24201   */\n      0x04\n        /* \"#utility.yul\":24193:24208   */\n      mstore\n        /* \"#utility.yul\":24227:24231   */\n      0x24\n        /* \"#utility.yul\":24224:24225   */\n      0x00\n        /* \"#utility.yul\":24217:24232   */\n      revert\n        /* \"#utility.yul\":24244:24477   */\n    tag_239:\n        /* \"#utility.yul\":24384:24418   */\n      0x6d6178696d756d206e6f206f662063616e646964617465207065722073657373\n        /* \"#utility.yul\":24380:24381   */\n      0x00\n        /* \"#utility.yul\":24372:24378   */\n      dup3\n        /* \"#utility.yul\":24368:24382   */\n      add\n        /* \"#utility.yul\":24361:24419   */\n      mstore\n        /* \"#utility.yul\":24453:24469   */\n      0x696f6e2072656769737465726564000000000000000000000000000000000000\n        /* \"#utility.yul\":24448:24450   */\n      0x20\n        /* \"#utility.yul\":24440:24446   */\n      dup3\n        /* \"#utility.yul\":24436:24451   */\n      add\n        /* \"#utility.yul\":24429:24470   */\n      mstore\n        /* \"#utility.yul\":24244:24477   */\n      pop\n      jump\t// out\n        /* \"#utility.yul\":24483:24849   */\n    tag_240:\n        /* \"#utility.yul\":24625:24628   */\n      0x00\n        /* \"#utility.yul\":24646:24713   */\n      tag_482\n        /* \"#utility.yul\":24710:24712   */\n      0x2e\n        /* \"#utility.yul\":24705:24708   */\n      dup4\n        /* \"#utility.yul\":24646:24713   */\n      tag_192\n      jump\t// in\n    tag_482:\n        /* \"#utility.yul\":24639:24713   */\n      swap2\n      pop\n        /* \"#utility.yul\":24722:24815   */\n      tag_483\n        /* \"#utility.yul\":24811:24814   */\n      dup3\n        /* \"#utility.yul\":24722:24815   */\n      tag_239\n      jump\t// in\n    tag_483:\n        /* \"#utility.yul\":24840:24842   */\n      0x40\n        /* \"#utility.yul\":24835:24838   */\n      dup3\n        /* \"#utility.yul\":24831:24843   */\n      add\n        /* \"#utility.yul\":24824:24843   */\n      swap1\n      pop\n        /* \"#utility.yul\":24483:24849   */\n      swap2\n      swap1\n      pop\n      jump\t// out\n        /* \"#utility.yul\":24855:25274   */\n    tag_147:\n        /* \"#utility.yul\":25021:25025   */\n      0x00\n        /* \"#utility.yul\":25059:25061   */\n      0x20\n        /* \"#utility.yul\":25048:25057   */\n      dup3\n        /* \"#utility.yul\":25044:25062   */\n      add\n        /* \"#utility.yul\":25036:25062   */\n      swap1\n      pop\n        /* \"#utility.yul\":25108:25117   */\n      dup2\n        /* \"#utility.yul\":25102:25106   */\n      dup2\n        /* \"#utility.yul\":25098:25118   */\n      sub\n        /* \"#utility.yul\":25094:25095   */\n      0x00\n        /* \"#utility.yul\":25083:25092   */\n      dup4\n        /* \"#utility.yul\":25079:25096   */\n      add\n        /* \"#utility.yul\":25072:25119   */\n      mstore\n        /* \"#utility.yul\":25136:25267   */\n      tag_485\n        /* \"#utility.yul\":25262:25266   */\n      dup2\n        /* \"#utility.yul\":25136:25267   */\n      tag_240\n      jump\t// in\n    tag_485:\n        /* \"#utility.yul\":25128:25267   */\n      swap1\n      pop\n        /* \"#utility.yul\":24855:25274   */\n      swap2\n      swap1\n      pop\n      jump\t// out\n        /* \"#utility.yul\":25280:25451   */\n    tag_150:\n        /* \"#utility.yul\":25318:25321   */\n      0x00\n        /* \"#utility.yul\":25341:25364   */\n      tag_487\n        /* \"#utility.yul\":25358:25363   */\n      dup3\n        /* \"#utility.yul\":25341:25364   */\n      tag_188\n      jump\t// in\n    tag_487:\n        /* \"#utility.yul\":25332:25364   */\n      swap2\n      pop\n        /* \"#utility.yul\":25386:25392   */\n      0xffff\n        /* \"#utility.yul\":25379:25384   */\n      dup3\n        /* \"#utility.yul\":25376:25393   */\n      eq\n        /* \"#utility.yul\":25373:25416   */\n      iszero\n      tag_488\n      jumpi\n        /* \"#utility.yul\":25396:25414   */\n      tag_489\n      tag_236\n      jump\t// in\n    tag_489:\n        /* \"#utility.yul\":25373:25416   */\n    tag_488:\n        /* \"#utility.yul\":25443:25444   */\n      0x01\n        /* \"#utility.yul\":25436:25441   */\n      dup3\n        /* \"#utility.yul\":25432:25445   */\n      add\n        /* \"#utility.yul\":25425:25445   */\n      swap1\n      pop\n        /* \"#utility.yul\":25280:25451   */\n      swap2\n      swap1\n      pop\n      jump\t// out\n        /* \"#utility.yul\":25457:25679   */\n    tag_152:\n        /* \"#utility.yul\":25550:25554   */\n      0x00\n        /* \"#utility.yul\":25588:25590   */\n      0x20\n        /* \"#utility.yul\":25577:25586   */\n      dup3\n        /* \"#utility.yul\":25573:25591   */\n      add\n        /* \"#utility.yul\":25565:25591   */\n      swap1\n      pop\n        /* \"#utility.yul\":25601:25672   */\n      tag_491\n        /* \"#utility.yul\":25669:25670   */\n      0x00\n        /* \"#utility.yul\":25658:25667   */\n      dup4\n        /* \"#utility.yul\":25654:25671   */\n      add\n        /* \"#utility.yul\":25645:25651   */\n      dup5\n        /* \"#utility.yul\":25601:25672   */\n      tag_203\n      jump\t// in\n    tag_491:\n        /* \"#utility.yul\":25457:25679   */\n      swap3\n      swap2\n      pop\n      pop\n      jump\t// out\n        /* \"#utility.yul\":25685:25851   */\n    tag_241:\n        /* \"#utility.yul\":25825:25843   */\n      0x6e6f74207468652063686169726d616e00000000000000000000000000000000\n        /* \"#utility.yul\":25821:25822   */\n      0x00\n        /* \"#utility.yul\":25813:25819   */\n      dup3\n        /* \"#utility.yul\":25809:25823   */\n      add\n        /* \"#utility.yul\":25802:25844   */\n      mstore\n        /* \"#utility.yul\":25685:25851   */\n      pop\n      jump\t// out\n        /* \"#utility.yul\":25857:26223   */\n    tag_242:\n        /* \"#utility.yul\":25999:26002   */\n      0x00\n        /* \"#utility.yul\":26020:26087   */\n      tag_494\n        /* \"#utility.yul\":26084:26086   */\n      0x10\n        /* \"#utility.yul\":26079:26082   */\n      dup4\n        /* \"#utility.yul\":26020:26087   */\n      tag_192\n      jump\t// in\n    tag_494:\n        /* \"#utility.yul\":26013:26087   */\n      swap2\n      pop\n        /* \"#utility.yul\":26096:26189   */\n      tag_495\n        /* \"#utility.yul\":26185:26188   */\n      dup3\n        /* \"#utility.yul\":26096:26189   */\n      tag_241\n      jump\t// in\n    tag_495:\n        /* \"#utility.yul\":26214:26216   */\n      0x20\n        /* \"#utility.yul\":26209:26212   */\n      dup3\n        /* \"#utility.yul\":26205:26217   */\n      add\n        /* \"#utility.yul\":26198:26217   */\n      swap1\n      pop\n        /* \"#utility.yul\":25857:26223   */\n      swap2\n      swap1\n      pop\n      jump\t// out\n        /* \"#utility.yul\":26229:26648   */\n    tag_163:\n        /* \"#utility.yul\":26395:26399   */\n      0x00\n        /* \"#utility.yul\":26433:26435   */\n      0x20\n        /* \"#utility.yul\":26422:26431   */\n      dup3\n        /* \"#utility.yul\":26418:26436   */\n      add\n        /* \"#utility.yul\":26410:26436   */\n      swap1\n      pop\n        /* \"#utility.yul\":26482:26491   */\n      dup2\n        /* \"#utility.yul\":26476:26480   */\n      dup2\n        /* \"#utility.yul\":26472:26492   */\n      sub\n        /* \"#utility.yul\":26468:26469   */\n      0x00\n        /* \"#utility.yul\":26457:26466   */\n      dup4\n        /* \"#utility.yul\":26453:26470   */\n      add\n        /* \"#utility.yul\":26446:26493   */\n      mstore\n        /* \"#utility.yul\":26510:26641   */\n      tag_497\n        /* \"#utility.yul\":26636:26640   */\n      dup2\n        /* \"#utility.yul\":26510:26641   */\n      tag_242\n      jump\t// in\n    tag_497:\n        /* \"#utility.yul\":26502:26641   */\n      swap1\n      pop\n        /* \"#utility.yul\":26229:26648   */\n      swap2\n      swap1\n      pop\n      jump\t// out\n\n    auxdata: 0xa26469706673582212204df929f12334983f8496e865daca65c1b40f0674520e69dc0249c3d262ac16da64736f6c634300080a0033\n}\n",
				"bytecode": {
					"linkReferences": {},
					"object": "608060405234801561001057600080fd5b50611e01806100206000396000f3fe6080604052600436106100a05760003560e01c806357f539671161006457806357f53967146101cc57806363ee965a146101f557806367d407df146102375780638579cacd14610274578063af7cbc0d146102b1578063f0e4de22146102ee576100a7565b806301ff993b146100ac5780630968d4b1146100e95780631bf533a414610127578063498bff00146101505780634fcf1f391461018d576100a7565b366100a757005b600080fd5b3480156100b857600080fd5b506100d360048036038101906100ce919061121f565b610317565b6040516100e091906112bb565b60405180910390f35b3480156100f557600080fd5b50610110600480360381019061010b9190611310565b610352565b60405161011e929190611403565b60405180910390f35b34801561013357600080fd5b5061014e60048036038101906101499190611433565b6103f6565b005b34801561015c57600080fd5b506101776004803603810190610172919061148f565b61062e565b60405161018491906114d8565b60405180910390f35b34801561019957600080fd5b506101b460048036038101906101af919061148f565b6106dc565b6040516101c3939291906115c0565b60405180910390f35b3480156101d857600080fd5b506101f360048036038101906101ee9190611433565b61099a565b005b34801561020157600080fd5b5061021c6004803603810190610217919061148f565b610c59565b60405161022e9695949392919061166a565b60405180910390f35b34801561024357600080fd5b5061025e600480360381019061025991906116cb565b610d1e565b60405161026b91906114d8565b60405180910390f35b34801561028057600080fd5b5061029b6004803603810190610296919061148f565b610d36565b6040516102a891906114d8565b60405180910390f35b3480156102bd57600080fd5b506102d860048036038101906102d3919061148f565b610d78565b6040516102e591906117b6565b60405180910390f35b3480156102fa57600080fd5b506103156004803603810190610310919061148f565b610e2c565b005b600030858585856040516020016103329594939291906118c9565b604051602081830303815290604052805190602001209050949350505050565b6060600080600085604051610367919061192f565b90815260200160405180910390209050338160000160006101000a81548173ffffffffffffffffffffffffffffffffffffffff021916908373ffffffffffffffffffffffffffffffffffffffff1602179055508361ffff168160020160006101000a81548163ffffffff021916908363ffffffff16021790555084848061ffff16905092509250509250929050565b818160008082604051610409919061192f565b90815260200160405180910390209050600115158160030160008573ffffffffffffffffffffffffffffffffffffffff1673ffffffffffffffffffffffffffffffffffffffff16815260200190815260200160002060009054906101000a900460ff161515146104ae576040517f08c379a00000000000000000000000000000000000000000000000000000000081526004016104a5906119b8565b60405180910390fd5b83600080826040516104c0919061192f565b90815260200160405180910390209050600115158160020160169054906101000a900460ff16151514610528576040517f08c379a000000000000000000000000000000000000000000000000000000000815260040161051f90611a24565b60405180910390fd5b60008087604051610539919061192f565b90815260200160405180910390209050600015158160040160003373ffffffffffffffffffffffffffffffffffffffff1673ffffffffffffffffffffffffffffffffffffffff16815260200190815260200160002060009054906101000a900460ff161515146105de576040517f08c379a00000000000000000000000000000000000000000000000000000000081526004016105d590611a90565b60405180910390fd5b6105e9888833610f11565b507ff3f16a15f074b71c5138107dfc7c63b80524d5411cb967caa97d8d9f12b2fd6b88600160405161061c929190611ab0565b60405180910390a15050505050505050565b600080600083604051610641919061192f565b908152602001604051809103902090508060050160008260010160008154811061066e5761066d611ad9565b5b9060005260206000200160009054906101000a900473ffffffffffffffffffffffffffffffffffffffff1673ffffffffffffffffffffffffffffffffffffffff1673ffffffffffffffffffffffffffffffffffffffff16815260200190815260200160002054915050919050565b6060600080600080856040516106f2919061192f565b90815260200160405180910390209050600073ffffffffffffffffffffffffffffffffffffffff168160000160009054906101000a900473ffffffffffffffffffffffffffffffffffffffff1673ffffffffffffffffffffffffffffffffffffffff161415610796576040517f08c379a000000000000000000000000000000000000000000000000000000000815260040161078d90611b54565b60405180910390fd5b806001018054905067ffffffffffffffff8111156107b7576107b66110be565b5b6040519080825280602002602001820160405280156107e55781602001602082028036833780820191505090505b50935060008060005b8360010180549050811161098657600084600501600086600101848154811061081a57610819611ad9565b5b9060005260206000200160009054906101000a900473ffffffffffffffffffffffffffffffffffffffff1673ffffffffffffffffffffffffffffffffffffffff1673ffffffffffffffffffffffffffffffffffffffff168152602001908152602001600020549050838111156108d1578093508460010182815481106108a3576108a2611ad9565b5b9060005260206000200160009054906101000a900473ffffffffffffffffffffffffffffffffffffffff1692505b8460050160008660010184815481106108ed576108ec611ad9565b5b9060005260206000200160009054906101000a900473ffffffffffffffffffffffffffffffffffffffff1673ffffffffffffffffffffffffffffffffffffffff1673ffffffffffffffffffffffffffffffffffffffff1681526020019081526020016000205488838151811061096657610965611ad9565b5b60200260200101818152505050808061097e90611ba3565b9150506107ee565b508581839550955095505050509193909250565b600080826040516109ab919061192f565b90815260200160405180910390209050600073ffffffffffffffffffffffffffffffffffffffff168160000160009054906101000a900473ffffffffffffffffffffffffffffffffffffffff1673ffffffffffffffffffffffffffffffffffffffff161415610a4f576040517f08c379a0000000000000000000000000000000000000000000000000000000008152600401610a4690611c38565b60405180910390fd5b3373ffffffffffffffffffffffffffffffffffffffff168160000160009054906101000a900473ffffffffffffffffffffffffffffffffffffffff1673ffffffffffffffffffffffffffffffffffffffff1614610aaf57610aae611c58565b5b8060020160009054906101000a900463ffffffff1663ffffffff168160020160149054906101000a900461ffff1661ffff1610610b21576040517f08c379a0000000000000000000000000000000000000000000000000000000008152600401610b1890611cf9565b60405180910390fd5b60018160030160008573ffffffffffffffffffffffffffffffffffffffff1673ffffffffffffffffffffffffffffffffffffffff16815260200190815260200160002060006101000a81548160ff02191690831515021790555080600101839080600181540180825580915050600190039060005260206000200160009091909190916101000a81548173ffffffffffffffffffffffffffffffffffffffff021916908373ffffffffffffffffffffffffffffffffffffffff16021790555080600201601481819054906101000a900461ffff1680929190610c0290611d19565b91906101000a81548161ffff021916908361ffff160217905550507fc19c59aa93348e8fc54764bc642eca975e2639f44cc683ef8f027e1529cbda3283604051610c4c9190611d44565b60405180910390a1505050565b6000818051602081018201805184825260208301602085012081835280955050505050506000915090508060000160009054906101000a900473ffffffffffffffffffffffffffffffffffffffff16908060020160009054906101000a900463ffffffff16908060020160049054906101000a900467ffffffffffffffff169080600201600c9054906101000a900467ffffffffffffffff16908060020160149054906101000a900461ffff16908060020160169054906101000a900460ff16905086565b60016020528060005260406000206000915090505481565b600080600083604051610d49919061192f565b908152602001604051809103902090508060020160149054906101000a900461ffff1661ffff16915050919050565b606060008083604051610d8b919061192f565b9081526020016040518091039020905080600101805480602002602001604051908101604052809291908181526020018280548015610e1f57602002820191906000526020600020905b8160009054906101000a900473ffffffffffffffffffffffffffffffffffffffff1673ffffffffffffffffffffffffffffffffffffffff1681526020019060010190808311610dd5575b5050505050915050919050565b60008082604051610e3d919061192f565b908152602001604051809103902090503373ffffffffffffffffffffffffffffffffffffffff168160000160009054906101000a900473ffffffffffffffffffffffffffffffffffffffff1673ffffffffffffffffffffffffffffffffffffffff1614610edf576040517f08c379a0000000000000000000000000000000000000000000000000000000008152600401610ed690611dab565b60405180910390fd5b8060020160169054906101000a900460ff16158160020160166101000a81548160ff0219169083151502179055505050565b600080600084604051610f24919061192f565b9081526020016040518091039020905060018160040160008573ffffffffffffffffffffffffffffffffffffffff1673ffffffffffffffffffffffffffffffffffffffff16815260200190815260200160002060006101000a81548160ff0219169083151502179055508060050160008673ffffffffffffffffffffffffffffffffffffffff1673ffffffffffffffffffffffffffffffffffffffff1681526020019081526020016000206000815480929190610fe090611ba3565b91905055508060050160008673ffffffffffffffffffffffffffffffffffffffff1673ffffffffffffffffffffffffffffffffffffffff168152602001908152602001600020549150509392505050565b6000604051905090565b600080fd5b600080fd5b600073ffffffffffffffffffffffffffffffffffffffff82169050919050565b600061107082611045565b9050919050565b61108081611065565b811461108b57600080fd5b50565b60008135905061109d81611077565b92915050565b600080fd5b600080fd5b6000601f19601f8301169050919050565b7f4e487b7100000000000000000000000000000000000000000000000000000000600052604160045260246000fd5b6110f6826110ad565b810181811067ffffffffffffffff82111715611115576111146110be565b5b80604052505050565b6000611128611031565b905061113482826110ed565b919050565b600067ffffffffffffffff821115611154576111536110be565b5b61115d826110ad565b9050602081019050919050565b82818337600083830152505050565b600061118c61118784611139565b61111e565b9050828152602081018484840111156111a8576111a76110a8565b5b6111b384828561116a565b509392505050565b600082601f8301126111d0576111cf6110a3565b5b81356111e0848260208601611179565b91505092915050565b6000819050919050565b6111fc816111e9565b811461120757600080fd5b50565b600081359050611219816111f3565b92915050565b600080600080608085870312156112395761123861103b565b5b60006112478782880161108e565b945050602085013567ffffffffffffffff81111561126857611267611040565b5b611274878288016111bb565b93505060406112858782880161120a565b92505060606112968782880161120a565b91505092959194509250565b6000819050919050565b6112b5816112a2565b82525050565b60006020820190506112d060008301846112ac565b92915050565b600061ffff82169050919050565b6112ed816112d6565b81146112f857600080fd5b50565b60008135905061130a816112e4565b92915050565b600080604083850312156113275761132661103b565b5b600083013567ffffffffffffffff81111561134557611344611040565b5b611351858286016111bb565b9250506020611362858286016112fb565b9150509250929050565b600081519050919050565b600082825260208201905092915050565b60005b838110156113a657808201518184015260208101905061138b565b838111156113b5576000848401525b50505050565b60006113c68261136c565b6113d08185611377565b93506113e0818560208601611388565b6113e9816110ad565b840191505092915050565b6113fd816111e9565b82525050565b6000604082019050818103600083015261141d81856113bb565b905061142c60208301846113f4565b9392505050565b6000806040838503121561144a5761144961103b565b5b60006114588582860161108e565b925050602083013567ffffffffffffffff81111561147957611478611040565b5b611485858286016111bb565b9150509250929050565b6000602082840312156114a5576114a461103b565b5b600082013567ffffffffffffffff8111156114c3576114c2611040565b5b6114cf848285016111bb565b91505092915050565b60006020820190506114ed60008301846113f4565b92915050565b600081519050919050565b600082825260208201905092915050565b6000819050602082019050919050565b611528816111e9565b82525050565b600061153a838361151f565b60208301905092915050565b6000602082019050919050565b600061155e826114f3565b61156881856114fe565b93506115738361150f565b8060005b838110156115a457815161158b888261152e565b975061159683611546565b925050600181019050611577565b5085935050505092915050565b6115ba81611065565b82525050565b600060608201905081810360008301526115da8186611553565b90506115e960208301856115b1565b6115f660408301846113f4565b949350505050565b600063ffffffff82169050919050565b611617816115fe565b82525050565b600067ffffffffffffffff82169050919050565b61163a8161161d565b82525050565b611649816112d6565b82525050565b60008115159050919050565b6116648161164f565b82525050565b600060c08201905061167f60008301896115b1565b61168c602083018861160e565b6116996040830187611631565b6116a66060830186611631565b6116b36080830185611640565b6116c060a083018461165b565b979650505050505050565b6000602082840312156116e1576116e061103b565b5b60006116ef8482850161108e565b91505092915050565b600081519050919050565b600082825260208201905092915050565b6000819050602082019050919050565b61172d81611065565b82525050565b600061173f8383611724565b60208301905092915050565b6000602082019050919050565b6000611763826116f8565b61176d8185611703565b935061177883611714565b8060005b838110156117a95781516117908882611733565b975061179b8361174b565b92505060018101905061177c565b5085935050505092915050565b600060208201905081810360008301526117d08184611758565b905092915050565b60008160601b9050919050565b60006117f0826117d8565b9050919050565b6000611802826117e5565b9050919050565b61181a61181582611065565b6117f7565b82525050565b600081905092915050565b7f6d6574617472616e73616374696f6e20566f74696e6720000000000000000000600082015250565b6000611861601783611820565b915061186c8261182b565b601782019050919050565b60006118828261136c565b61188c8185611820565b935061189c818560208601611388565b80840191505092915050565b6000819050919050565b6118c36118be826111e9565b6118a8565b82525050565b60006118d58288611809565b6014820191506118e482611854565b91506118f08287611809565b6014820191506119008286611877565b915061190c82856118b2565b60208201915061191c82846118b2565b6020820191508190509695505050505050565b600061193b8284611877565b915081905092915050565b7f54686973206164647265737320646f6573206e6f74206578697374206173206160008201527f2063616e64696461746500000000000000000000000000000000000000000000602082015250565b60006119a2602a83611377565b91506119ad82611946565b604082019050919050565b600060208201905081810360008301526119d181611995565b9050919050565b7f766f74696e672068617320656e64656400000000000000000000000000000000600082015250565b6000611a0e601083611377565b9150611a19826119d8565b602082019050919050565b60006020820190508181036000830152611a3d81611a01565b9050919050565b7f596f7520616c726561647920766f746564000000000000000000000000000000600082015250565b6000611a7a601183611377565b9150611a8582611a44565b602082019050919050565b60006020820190508181036000830152611aa981611a6d565b9050919050565b6000604082019050611ac560008301856115b1565b611ad2602083018461165b565b9392505050565b7f4e487b7100000000000000000000000000000000000000000000000000000000600052603260045260246000fd5b7f4e6f20706f6c6c20637265617465640000000000000000000000000000000000600082015250565b6000611b3e600f83611377565b9150611b4982611b08565b602082019050919050565b60006020820190508181036000830152611b6d81611b31565b9050919050565b7f4e487b7100000000000000000000000000000000000000000000000000000000600052601160045260246000fd5b6000611bae826111e9565b91507fffffffffffffffffffffffffffffffffffffffffffffffffffffffffffffffff821415611be157611be0611b74565b5b600182019050919050565b7f79657420746f20637265617465206120706f6c6c000000000000000000000000600082015250565b6000611c22601483611377565b9150611c2d82611bec565b602082019050919050565b60006020820190508181036000830152611c5181611c15565b9050919050565b7f4e487b7100000000000000000000000000000000000000000000000000000000600052600160045260246000fd5b7f6d6178696d756d206e6f206f662063616e64696461746520706572207365737360008201527f696f6e2072656769737465726564000000000000000000000000000000000000602082015250565b6000611ce3602e83611377565b9150611cee82611c87565b604082019050919050565b60006020820190508181036000830152611d1281611cd6565b9050919050565b6000611d24826112d6565b915061ffff821415611d3957611d38611b74565b5b600182019050919050565b6000602082019050611d5960008301846115b1565b92915050565b7f6e6f74207468652063686169726d616e00000000000000000000000000000000600082015250565b6000611d95601083611377565b9150611da082611d5f565b602082019050919050565b60006020820190508181036000830152611dc481611d88565b905091905056fea26469706673582212204df929f12334983f8496e865daca65c1b40f0674520e69dc0249c3d262ac16da64736f6c634300080a0033",
					"opcodes": "PUSH1 0x80 PUSH1 0x40 MSTORE CALLVALUE DUP1 ISZERO PUSH2 0x10 JUMPI PUSH1 0x0 DUP1 REVERT JUMPDEST POP PUSH2 0x1E01 DUP1 PUSH2 0x20 PUSH1 0x0 CODECOPY PUSH1 0x0 RETURN INVALID PUSH1 0x80 PUSH1 0x40 MSTORE PUSH1 0x4 CALLDATASIZE LT PUSH2 0xA0 JUMPI PUSH1 0x0 CALLDATALOAD PUSH1 0xE0 SHR DUP1 PUSH4 0x57F53967 GT PUSH2 0x64 JUMPI DUP1 PUSH4 0x57F53967 EQ PUSH2 0x1CC JUMPI DUP1 PUSH4 0x63EE965A EQ PUSH2 0x1F5 JUMPI DUP1 PUSH4 0x67D407DF EQ PUSH2 0x237 JUMPI DUP1 PUSH4 0x8579CACD EQ PUSH2 0x274 JUMPI DUP1 PUSH4 0xAF7CBC0D EQ PUSH2 0x2B1 JUMPI DUP1 PUSH4 0xF0E4DE22 EQ PUSH2 0x2EE JUMPI PUSH2 0xA7 JUMP JUMPDEST DUP1 PUSH4 0x1FF993B EQ PUSH2 0xAC JUMPI DUP1 PUSH4 0x968D4B1 EQ PUSH2 0xE9 JUMPI DUP1 PUSH4 0x1BF533A4 EQ PUSH2 0x127 JUMPI DUP1 PUSH4 0x498BFF00 EQ PUSH2 0x150 JUMPI DUP1 PUSH4 0x4FCF1F39 EQ PUSH2 0x18D JUMPI PUSH2 0xA7 JUMP JUMPDEST CALLDATASIZE PUSH2 0xA7 JUMPI STOP JUMPDEST PUSH1 0x0 DUP1 REVERT JUMPDEST CALLVALUE DUP1 ISZERO PUSH2 0xB8 JUMPI PUSH1 0x0 DUP1 REVERT JUMPDEST POP PUSH2 0xD3 PUSH1 0x4 DUP1 CALLDATASIZE SUB DUP2 ADD SWAP1 PUSH2 0xCE SWAP2 SWAP1 PUSH2 0x121F JUMP JUMPDEST PUSH2 0x317 JUMP JUMPDEST PUSH1 0x40 MLOAD PUSH2 0xE0 SWAP2 SWAP1 PUSH2 0x12BB JUMP JUMPDEST PUSH1 0x40 MLOAD DUP1 SWAP2 SUB SWAP1 RETURN JUMPDEST CALLVALUE DUP1 ISZERO PUSH2 0xF5 JUMPI PUSH1 0x0 DUP1 REVERT JUMPDEST POP PUSH2 0x110 PUSH1 0x4 DUP1 CALLDATASIZE SUB DUP2 ADD SWAP1 PUSH2 0x10B SWAP2 SWAP1 PUSH2 0x1310 JUMP JUMPDEST PUSH2 0x352 JUMP JUMPDEST PUSH1 0x40 MLOAD PUSH2 0x11E SWAP3 SWAP2 SWAP1 PUSH2 0x1403 JUMP JUMPDEST PUSH1 0x40 MLOAD DUP1 SWAP2 SUB SWAP1 RETURN JUMPDEST CALLVALUE DUP1 ISZERO PUSH2 0x133 JUMPI PUSH1 0x0 DUP1 REVERT JUMPDEST POP PUSH2 0x14E PUSH1 0x4 DUP1 CALLDATASIZE SUB DUP2 ADD SWAP1 PUSH2 0x149 SWAP2 SWAP1 PUSH2 0x1433 JUMP JUMPDEST PUSH2 0x3F6 JUMP JUMPDEST STOP JUMPDEST CALLVALUE DUP1 ISZERO PUSH2 0x15C JUMPI PUSH1 0x0 DUP1 REVERT JUMPDEST POP PUSH2 0x177 PUSH1 0x4 DUP1 CALLDATASIZE SUB DUP2 ADD SWAP1 PUSH2 0x172 SWAP2 SWAP1 PUSH2 0x148F JUMP JUMPDEST PUSH2 0x62E JUMP JUMPDEST PUSH1 0x40 MLOAD PUSH2 0x184 SWAP2 SWAP1 PUSH2 0x14D8 JUMP JUMPDEST PUSH1 0x40 MLOAD DUP1 SWAP2 SUB SWAP1 RETURN JUMPDEST CALLVALUE DUP1 ISZERO PUSH2 0x199 JUMPI PUSH1 0x0 DUP1 REVERT JUMPDEST POP PUSH2 0x1B4 PUSH1 0x4 DUP1 CALLDATASIZE SUB DUP2 ADD SWAP1 PUSH2 0x1AF SWAP2 SWAP1 PUSH2 0x148F JUMP JUMPDEST PUSH2 0x6DC JUMP JUMPDEST PUSH1 0x40 MLOAD PUSH2 0x1C3 SWAP4 SWAP3 SWAP2 SWAP1 PUSH2 0x15C0 JUMP JUMPDEST PUSH1 0x40 MLOAD DUP1 SWAP2 SUB SWAP1 RETURN JUMPDEST CALLVALUE DUP1 ISZERO PUSH2 0x1D8 JUMPI PUSH1 0x0 DUP1 REVERT JUMPDEST POP PUSH2 0x1F3 PUSH1 0x4 DUP1 CALLDATASIZE SUB DUP2 ADD SWAP1 PUSH2 0x1EE SWAP2 SWAP1 PUSH2 0x1433 JUMP JUMPDEST PUSH2 0x99A JUMP JUMPDEST STOP JUMPDEST CALLVALUE DUP1 ISZERO PUSH2 0x201 JUMPI PUSH1 0x0 DUP1 REVERT JUMPDEST POP PUSH2 0x21C PUSH1 0x4 DUP1 CALLDATASIZE SUB DUP2 ADD SWAP1 PUSH2 0x217 SWAP2 SWAP1 PUSH2 0x148F JUMP JUMPDEST PUSH2 0xC59 JUMP JUMPDEST PUSH1 0x40 MLOAD PUSH2 0x22E SWAP7 SWAP6 SWAP5 SWAP4 SWAP3 SWAP2 SWAP1 PUSH2 0x166A JUMP JUMPDEST PUSH1 0x40 MLOAD DUP1 SWAP2 SUB SWAP1 RETURN JUMPDEST CALLVALUE DUP1 ISZERO PUSH2 0x243 JUMPI PUSH1 0x0 DUP1 REVERT JUMPDEST POP PUSH2 0x25E PUSH1 0x4 DUP1 CALLDATASIZE SUB DUP2 ADD SWAP1 PUSH2 0x259 SWAP2 SWAP1 PUSH2 0x16CB JUMP JUMPDEST PUSH2 0xD1E JUMP JUMPDEST PUSH1 0x40 MLOAD PUSH2 0x26B SWAP2 SWAP1 PUSH2 0x14D8 JUMP JUMPDEST PUSH1 0x40 MLOAD DUP1 SWAP2 SUB SWAP1 RETURN JUMPDEST CALLVALUE DUP1 ISZERO PUSH2 0x280 JUMPI PUSH1 0x0 DUP1 REVERT JUMPDEST POP PUSH2 0x29B PUSH1 0x4 DUP1 CALLDATASIZE SUB DUP2 ADD SWAP1 PUSH2 0x296 SWAP2 SWAP1 PUSH2 0x148F JUMP JUMPDEST PUSH2 0xD36 JUMP JUMPDEST PUSH1 0x40 MLOAD PUSH2 0x2A8 SWAP2 SWAP1 PUSH2 0x14D8 JUMP JUMPDEST PUSH1 0x40 MLOAD DUP1 SWAP2 SUB SWAP1 RETURN JUMPDEST CALLVALUE DUP1 ISZERO PUSH2 0x2BD JUMPI PUSH1 0x0 DUP1 REVERT JUMPDEST POP PUSH2 0x2D8 PUSH1 0x4 DUP1 CALLDATASIZE SUB DUP2 ADD SWAP1 PUSH2 0x2D3 SWAP2 SWAP1 PUSH2 0x148F JUMP JUMPDEST PUSH2 0xD78 JUMP JUMPDEST PUSH1 0x40 MLOAD PUSH2 0x2E5 SWAP2 SWAP1 PUSH2 0x17B6 JUMP JUMPDEST PUSH1 0x40 MLOAD DUP1 SWAP2 SUB SWAP1 RETURN JUMPDEST CALLVALUE DUP1 ISZERO PUSH2 0x2FA JUMPI PUSH1 0x0 DUP1 REVERT JUMPDEST POP PUSH2 0x315 PUSH1 0x4 DUP1 CALLDATASIZE SUB DUP2 ADD SWAP1 PUSH2 0x310 SWAP2 SWAP1 PUSH2 0x148F JUMP JUMPDEST PUSH2 0xE2C JUMP JUMPDEST STOP JUMPDEST PUSH1 0x0 ADDRESS DUP6 DUP6 DUP6 DUP6 PUSH1 0x40 MLOAD PUSH1 0x20 ADD PUSH2 0x332 SWAP6 SWAP5 SWAP4 SWAP3 SWAP2 SWAP1 PUSH2 0x18C9 JUMP JUMPDEST PUSH1 0x40 MLOAD PUSH1 0x20 DUP2 DUP4 SUB SUB DUP2 MSTORE SWAP1 PUSH1 0x40 MSTORE DUP1 MLOAD SWAP1 PUSH1 0x20 ADD KECCAK256 SWAP1 POP SWAP5 SWAP4 POP POP POP POP JUMP JUMPDEST PUSH1 0x60 PUSH1 0x0 DUP1 PUSH1 0x0 DUP6 PUSH1 0x40 MLOAD PUSH2 0x367 SWAP2 SWAP1 PUSH2 0x192F JUMP JUMPDEST SWAP1 DUP2 MSTORE PUSH1 0x20 ADD PUSH1 0x40 MLOAD DUP1 SWAP2 SUB SWAP1 KECCAK256 SWAP1 POP CALLER DUP2 PUSH1 0x0 ADD PUSH1 0x0 PUSH2 0x100 EXP DUP2 SLOAD DUP2 PUSH20 0xFFFFFFFFFFFFFFFFFFFFFFFFFFFFFFFFFFFFFFFF MUL NOT AND SWAP1 DUP4 PUSH20 0xFFFFFFFFFFFFFFFFFFFFFFFFFFFFFFFFFFFFFFFF AND MUL OR SWAP1 SSTORE POP DUP4 PUSH2 0xFFFF AND DUP2 PUSH1 0x2 ADD PUSH1 0x0 PUSH2 0x100 EXP DUP2 SLOAD DUP2 PUSH4 0xFFFFFFFF MUL NOT AND SWAP1 DUP4 PUSH4 0xFFFFFFFF AND MUL OR SWAP1 SSTORE POP DUP5 DUP5 DUP1 PUSH2 0xFFFF AND SWAP1 POP SWAP3 POP SWAP3 POP POP SWAP3 POP SWAP3 SWAP1 POP JUMP JUMPDEST DUP2 DUP2 PUSH1 0x0 DUP1 DUP3 PUSH1 0x40 MLOAD PUSH2 0x409 SWAP2 SWAP1 PUSH2 0x192F JUMP JUMPDEST SWAP1 DUP2 MSTORE PUSH1 0x20 ADD PUSH1 0x40 MLOAD DUP1 SWAP2 SUB SWAP1 KECCAK256 SWAP1 POP PUSH1 0x1 ISZERO ISZERO DUP2 PUSH1 0x3 ADD PUSH1 0x0 DUP6 PUSH20 0xFFFFFFFFFFFFFFFFFFFFFFFFFFFFFFFFFFFFFFFF AND PUSH20 0xFFFFFFFFFFFFFFFFFFFFFFFFFFFFFFFFFFFFFFFF AND DUP2 MSTORE PUSH1 0x20 ADD SWAP1 DUP2 MSTORE PUSH1 0x20 ADD PUSH1 0x0 KECCAK256 PUSH1 0x0 SWAP1 SLOAD SWAP1 PUSH2 0x100 EXP SWAP1 DIV PUSH1 0xFF AND ISZERO ISZERO EQ PUSH2 0x4AE JUMPI PUSH1 0x40 MLOAD PUSH32 0x8C379A000000000000000000000000000000000000000000000000000000000 DUP2 MSTORE PUSH1 0x4 ADD PUSH2 0x4A5 SWAP1 PUSH2 0x19B8 JUMP JUMPDEST PUSH1 0x40 MLOAD DUP1 SWAP2 SUB SWAP1 REVERT JUMPDEST DUP4 PUSH1 0x0 DUP1 DUP3 PUSH1 0x40 MLOAD PUSH2 0x4C0 SWAP2 SWAP1 PUSH2 0x192F JUMP JUMPDEST SWAP1 DUP2 MSTORE PUSH1 0x20 ADD PUSH1 0x40 MLOAD DUP1 SWAP2 SUB SWAP1 KECCAK256 SWAP1 POP PUSH1 0x1 ISZERO ISZERO DUP2 PUSH1 0x2 ADD PUSH1 0x16 SWAP1 SLOAD SWAP1 PUSH2 0x100 EXP SWAP1 DIV PUSH1 0xFF AND ISZERO ISZERO EQ PUSH2 0x528 JUMPI PUSH1 0x40 MLOAD PUSH32 0x8C379A000000000000000000000000000000000000000000000000000000000 DUP2 MSTORE PUSH1 0x4 ADD PUSH2 0x51F SWAP1 PUSH2 0x1A24 JUMP JUMPDEST PUSH1 0x40 MLOAD DUP1 SWAP2 SUB SWAP1 REVERT JUMPDEST PUSH1 0x0 DUP1 DUP8 PUSH1 0x40 MLOAD PUSH2 0x539 SWAP2 SWAP1 PUSH2 0x192F JUMP JUMPDEST SWAP1 DUP2 MSTORE PUSH1 0x20 ADD PUSH1 0x40 MLOAD DUP1 SWAP2 SUB SWAP1 KECCAK256 SWAP1 POP PUSH1 0x0 ISZERO ISZERO DUP2 PUSH1 0x4 ADD PUSH1 0x0 CALLER PUSH20 0xFFFFFFFFFFFFFFFFFFFFFFFFFFFFFFFFFFFFFFFF AND PUSH20 0xFFFFFFFFFFFFFFFFFFFFFFFFFFFFFFFFFFFFFFFF AND DUP2 MSTORE PUSH1 0x20 ADD SWAP1 DUP2 MSTORE PUSH1 0x20 ADD PUSH1 0x0 KECCAK256 PUSH1 0x0 SWAP1 SLOAD SWAP1 PUSH2 0x100 EXP SWAP1 DIV PUSH1 0xFF AND ISZERO ISZERO EQ PUSH2 0x5DE JUMPI PUSH1 0x40 MLOAD PUSH32 0x8C379A000000000000000000000000000000000000000000000000000000000 DUP2 MSTORE PUSH1 0x4 ADD PUSH2 0x5D5 SWAP1 PUSH2 0x1A90 JUMP JUMPDEST PUSH1 0x40 MLOAD DUP1 SWAP2 SUB SWAP1 REVERT JUMPDEST PUSH2 0x5E9 DUP9 DUP9 CALLER PUSH2 0xF11 JUMP JUMPDEST POP PUSH32 0xF3F16A15F074B71C5138107DFC7C63B80524D5411CB967CAA97D8D9F12B2FD6B DUP9 PUSH1 0x1 PUSH1 0x40 MLOAD PUSH2 0x61C SWAP3 SWAP2 SWAP1 PUSH2 0x1AB0 JUMP JUMPDEST PUSH1 0x40 MLOAD DUP1 SWAP2 SUB SWAP1 LOG1 POP POP POP POP POP POP POP POP JUMP JUMPDEST PUSH1 0x0 DUP1 PUSH1 0x0 DUP4 PUSH1 0x40 MLOAD PUSH2 0x641 SWAP2 SWAP1 PUSH2 0x192F JUMP JUMPDEST SWAP1 DUP2 MSTORE PUSH1 0x20 ADD PUSH1 0x40 MLOAD DUP1 SWAP2 SUB SWAP1 KECCAK256 SWAP1 POP DUP1 PUSH1 0x5 ADD PUSH1 0x0 DUP3 PUSH1 0x1 ADD PUSH1 0x0 DUP2 SLOAD DUP2 LT PUSH2 0x66E JUMPI PUSH2 0x66D PUSH2 0x1AD9 JUMP JUMPDEST JUMPDEST SWAP1 PUSH1 0x0 MSTORE PUSH1 0x20 PUSH1 0x0 KECCAK256 ADD PUSH1 0x0 SWAP1 SLOAD SWAP1 PUSH2 0x100 EXP SWAP1 DIV PUSH20 0xFFFFFFFFFFFFFFFFFFFFFFFFFFFFFFFFFFFFFFFF AND PUSH20 0xFFFFFFFFFFFFFFFFFFFFFFFFFFFFFFFFFFFFFFFF AND PUSH20 0xFFFFFFFFFFFFFFFFFFFFFFFFFFFFFFFFFFFFFFFF AND DUP2 MSTORE PUSH1 0x20 ADD SWAP1 DUP2 MSTORE PUSH1 0x20 ADD PUSH1 0x0 KECCAK256 SLOAD SWAP2 POP POP SWAP2 SWAP1 POP JUMP JUMPDEST PUSH1 0x60 PUSH1 0x0 DUP1 PUSH1 0x0 DUP1 DUP6 PUSH1 0x40 MLOAD PUSH2 0x6F2 SWAP2 SWAP1 PUSH2 0x192F JUMP JUMPDEST SWAP1 DUP2 MSTORE PUSH1 0x20 ADD PUSH1 0x40 MLOAD DUP1 SWAP2 SUB SWAP1 KECCAK256 SWAP1 POP PUSH1 0x0 PUSH20 0xFFFFFFFFFFFFFFFFFFFFFFFFFFFFFFFFFFFFFFFF AND DUP2 PUSH1 0x0 ADD PUSH1 0x0 SWAP1 SLOAD SWAP1 PUSH2 0x100 EXP SWAP1 DIV PUSH20 0xFFFFFFFFFFFFFFFFFFFFFFFFFFFFFFFFFFFFFFFF AND PUSH20 0xFFFFFFFFFFFFFFFFFFFFFFFFFFFFFFFFFFFFFFFF AND EQ ISZERO PUSH2 0x796 JUMPI PUSH1 0x40 MLOAD PUSH32 0x8C379A000000000000000000000000000000000000000000000000000000000 DUP2 MSTORE PUSH1 0x4 ADD PUSH2 0x78D SWAP1 PUSH2 0x1B54 JUMP JUMPDEST PUSH1 0x40 MLOAD DUP1 SWAP2 SUB SWAP1 REVERT JUMPDEST DUP1 PUSH1 0x1 ADD DUP1 SLOAD SWAP1 POP PUSH8 0xFFFFFFFFFFFFFFFF DUP2 GT ISZERO PUSH2 0x7B7 JUMPI PUSH2 0x7B6 PUSH2 0x10BE JUMP JUMPDEST JUMPDEST PUSH1 0x40 MLOAD SWAP1 DUP1 DUP3 MSTORE DUP1 PUSH1 0x20 MUL PUSH1 0x20 ADD DUP3 ADD PUSH1 0x40 MSTORE DUP1 ISZERO PUSH2 0x7E5 JUMPI DUP2 PUSH1 0x20 ADD PUSH1 0x20 DUP3 MUL DUP1 CALLDATASIZE DUP4 CALLDATACOPY DUP1 DUP3 ADD SWAP2 POP POP SWAP1 POP JUMPDEST POP SWAP4 POP PUSH1 0x0 DUP1 PUSH1 0x0 JUMPDEST DUP4 PUSH1 0x1 ADD DUP1 SLOAD SWAP1 POP DUP2 GT PUSH2 0x986 JUMPI PUSH1 0x0 DUP5 PUSH1 0x5 ADD PUSH1 0x0 DUP7 PUSH1 0x1 ADD DUP5 DUP2 SLOAD DUP2 LT PUSH2 0x81A JUMPI PUSH2 0x819 PUSH2 0x1AD9 JUMP JUMPDEST JUMPDEST SWAP1 PUSH1 0x0 MSTORE PUSH1 0x20 PUSH1 0x0 KECCAK256 ADD PUSH1 0x0 SWAP1 SLOAD SWAP1 PUSH2 0x100 EXP SWAP1 DIV PUSH20 0xFFFFFFFFFFFFFFFFFFFFFFFFFFFFFFFFFFFFFFFF AND PUSH20 0xFFFFFFFFFFFFFFFFFFFFFFFFFFFFFFFFFFFFFFFF AND PUSH20 0xFFFFFFFFFFFFFFFFFFFFFFFFFFFFFFFFFFFFFFFF AND DUP2 MSTORE PUSH1 0x20 ADD SWAP1 DUP2 MSTORE PUSH1 0x20 ADD PUSH1 0x0 KECCAK256 SLOAD SWAP1 POP DUP4 DUP2 GT ISZERO PUSH2 0x8D1 JUMPI DUP1 SWAP4 POP DUP5 PUSH1 0x1 ADD DUP3 DUP2 SLOAD DUP2 LT PUSH2 0x8A3 JUMPI PUSH2 0x8A2 PUSH2 0x1AD9 JUMP JUMPDEST JUMPDEST SWAP1 PUSH1 0x0 MSTORE PUSH1 0x20 PUSH1 0x0 KECCAK256 ADD PUSH1 0x0 SWAP1 SLOAD SWAP1 PUSH2 0x100 EXP SWAP1 DIV PUSH20 0xFFFFFFFFFFFFFFFFFFFFFFFFFFFFFFFFFFFFFFFF AND SWAP3 POP JUMPDEST DUP5 PUSH1 0x5 ADD PUSH1 0x0 DUP7 PUSH1 0x1 ADD DUP5 DUP2 SLOAD DUP2 LT PUSH2 0x8ED JUMPI PUSH2 0x8EC PUSH2 0x1AD9 JUMP JUMPDEST JUMPDEST SWAP1 PUSH1 0x0 MSTORE PUSH1 0x20 PUSH1 0x0 KECCAK256 ADD PUSH1 0x0 SWAP1 SLOAD SWAP1 PUSH2 0x100 EXP SWAP1 DIV PUSH20 0xFFFFFFFFFFFFFFFFFFFFFFFFFFFFFFFFFFFFFFFF AND PUSH20 0xFFFFFFFFFFFFFFFFFFFFFFFFFFFFFFFFFFFFFFFF AND PUSH20 0xFFFFFFFFFFFFFFFFFFFFFFFFFFFFFFFFFFFFFFFF AND DUP2 MSTORE PUSH1 0x20 ADD SWAP1 DUP2 MSTORE PUSH1 0x20 ADD PUSH1 0x0 KECCAK256 SLOAD DUP9 DUP4 DUP2 MLOAD DUP2 LT PUSH2 0x966 JUMPI PUSH2 0x965 PUSH2 0x1AD9 JUMP JUMPDEST JUMPDEST PUSH1 0x20 MUL PUSH1 0x20 ADD ADD DUP2 DUP2 MSTORE POP POP POP DUP1 DUP1 PUSH2 0x97E SWAP1 PUSH2 0x1BA3 JUMP JUMPDEST SWAP2 POP POP PUSH2 0x7EE JUMP JUMPDEST POP DUP6 DUP2 DUP4 SWAP6 POP SWAP6 POP SWAP6 POP POP POP POP SWAP2 SWAP4 SWAP1 SWAP3 POP JUMP JUMPDEST PUSH1 0x0 DUP1 DUP3 PUSH1 0x40 MLOAD PUSH2 0x9AB SWAP2 SWAP1 PUSH2 0x192F JUMP JUMPDEST SWAP1 DUP2 MSTORE PUSH1 0x20 ADD PUSH1 0x40 MLOAD DUP1 SWAP2 SUB SWAP1 KECCAK256 SWAP1 POP PUSH1 0x0 PUSH20 0xFFFFFFFFFFFFFFFFFFFFFFFFFFFFFFFFFFFFFFFF AND DUP2 PUSH1 0x0 ADD PUSH1 0x0 SWAP1 SLOAD SWAP1 PUSH2 0x100 EXP SWAP1 DIV PUSH20 0xFFFFFFFFFFFFFFFFFFFFFFFFFFFFFFFFFFFFFFFF AND PUSH20 0xFFFFFFFFFFFFFFFFFFFFFFFFFFFFFFFFFFFFFFFF AND EQ ISZERO PUSH2 0xA4F JUMPI PUSH1 0x40 MLOAD PUSH32 0x8C379A000000000000000000000000000000000000000000000000000000000 DUP2 MSTORE PUSH1 0x4 ADD PUSH2 0xA46 SWAP1 PUSH2 0x1C38 JUMP JUMPDEST PUSH1 0x40 MLOAD DUP1 SWAP2 SUB SWAP1 REVERT JUMPDEST CALLER PUSH20 0xFFFFFFFFFFFFFFFFFFFFFFFFFFFFFFFFFFFFFFFF AND DUP2 PUSH1 0x0 ADD PUSH1 0x0 SWAP1 SLOAD SWAP1 PUSH2 0x100 EXP SWAP1 DIV PUSH20 0xFFFFFFFFFFFFFFFFFFFFFFFFFFFFFFFFFFFFFFFF AND PUSH20 0xFFFFFFFFFFFFFFFFFFFFFFFFFFFFFFFFFFFFFFFF AND EQ PUSH2 0xAAF JUMPI PUSH2 0xAAE PUSH2 0x1C58 JUMP JUMPDEST JUMPDEST DUP1 PUSH1 0x2 ADD PUSH1 0x0 SWAP1 SLOAD SWAP1 PUSH2 0x100 EXP SWAP1 DIV PUSH4 0xFFFFFFFF AND PUSH4 0xFFFFFFFF AND DUP2 PUSH1 0x2 ADD PUSH1 0x14 SWAP1 SLOAD SWAP1 PUSH2 0x100 EXP SWAP1 DIV PUSH2 0xFFFF AND PUSH2 0xFFFF AND LT PUSH2 0xB21 JUMPI PUSH1 0x40 MLOAD PUSH32 0x8C379A000000000000000000000000000000000000000000000000000000000 DUP2 MSTORE PUSH1 0x4 ADD PUSH2 0xB18 SWAP1 PUSH2 0x1CF9 JUMP JUMPDEST PUSH1 0x40 MLOAD DUP1 SWAP2 SUB SWAP1 REVERT JUMPDEST PUSH1 0x1 DUP2 PUSH1 0x3 ADD PUSH1 0x0 DUP6 PUSH20 0xFFFFFFFFFFFFFFFFFFFFFFFFFFFFFFFFFFFFFFFF AND PUSH20 0xFFFFFFFFFFFFFFFFFFFFFFFFFFFFFFFFFFFFFFFF AND DUP2 MSTORE PUSH1 0x20 ADD SWAP1 DUP2 MSTORE PUSH1 0x20 ADD PUSH1 0x0 KECCAK256 PUSH1 0x0 PUSH2 0x100 EXP DUP2 SLOAD DUP2 PUSH1 0xFF MUL NOT AND SWAP1 DUP4 ISZERO ISZERO MUL OR SWAP1 SSTORE POP DUP1 PUSH1 0x1 ADD DUP4 SWAP1 DUP1 PUSH1 0x1 DUP2 SLOAD ADD DUP1 DUP3 SSTORE DUP1 SWAP2 POP POP PUSH1 0x1 SWAP1 SUB SWAP1 PUSH1 0x0 MSTORE PUSH1 0x20 PUSH1 0x0 KECCAK256 ADD PUSH1 0x0 SWAP1 SWAP2 SWAP1 SWAP2 SWAP1 SWAP2 PUSH2 0x100 EXP DUP2 SLOAD DUP2 PUSH20 0xFFFFFFFFFFFFFFFFFFFFFFFFFFFFFFFFFFFFFFFF MUL NOT AND SWAP1 DUP4 PUSH20 0xFFFFFFFFFFFFFFFFFFFFFFFFFFFFFFFFFFFFFFFF AND MUL OR SWAP1 SSTORE POP DUP1 PUSH1 0x2 ADD PUSH1 0x14 DUP2 DUP2 SWAP1 SLOAD SWAP1 PUSH2 0x100 EXP SWAP1 DIV PUSH2 0xFFFF AND DUP1 SWAP3 SWAP2 SWAP1 PUSH2 0xC02 SWAP1 PUSH2 0x1D19 JUMP JUMPDEST SWAP2 SWAP1 PUSH2 0x100 EXP DUP2 SLOAD DUP2 PUSH2 0xFFFF MUL NOT AND SWAP1 DUP4 PUSH2 0xFFFF AND MUL OR SWAP1 SSTORE POP POP PUSH32 0xC19C59AA93348E8FC54764BC642ECA975E2639F44CC683EF8F027E1529CBDA32 DUP4 PUSH1 0x40 MLOAD PUSH2 0xC4C SWAP2 SWAP1 PUSH2 0x1D44 JUMP JUMPDEST PUSH1 0x40 MLOAD DUP1 SWAP2 SUB SWAP1 LOG1 POP POP POP JUMP JUMPDEST PUSH1 0x0 DUP2 DUP1 MLOAD PUSH1 0x20 DUP2 ADD DUP3 ADD DUP1 MLOAD DUP5 DUP3 MSTORE PUSH1 0x20 DUP4 ADD PUSH1 0x20 DUP6 ADD KECCAK256 DUP2 DUP4 MSTORE DUP1 SWAP6 POP POP POP POP POP POP PUSH1 0x0 SWAP2 POP SWAP1 POP DUP1 PUSH1 0x0 ADD PUSH1 0x0 SWAP1 SLOAD SWAP1 PUSH2 0x100 EXP SWAP1 DIV PUSH20 0xFFFFFFFFFFFFFFFFFFFFFFFFFFFFFFFFFFFFFFFF AND SWAP1 DUP1 PUSH1 0x2 ADD PUSH1 0x0 SWAP1 SLOAD SWAP1 PUSH2 0x100 EXP SWAP1 DIV PUSH4 0xFFFFFFFF AND SWAP1 DUP1 PUSH1 0x2 ADD PUSH1 0x4 SWAP1 SLOAD SWAP1 PUSH2 0x100 EXP SWAP1 DIV PUSH8 0xFFFFFFFFFFFFFFFF AND SWAP1 DUP1 PUSH1 0x2 ADD PUSH1 0xC SWAP1 SLOAD SWAP1 PUSH2 0x100 EXP SWAP1 DIV PUSH8 0xFFFFFFFFFFFFFFFF AND SWAP1 DUP1 PUSH1 0x2 ADD PUSH1 0x14 SWAP1 SLOAD SWAP1 PUSH2 0x100 EXP SWAP1 DIV PUSH2 0xFFFF AND SWAP1 DUP1 PUSH1 0x2 ADD PUSH1 0x16 SWAP1 SLOAD SWAP1 PUSH2 0x100 EXP SWAP1 DIV PUSH1 0xFF AND SWAP1 POP DUP7 JUMP JUMPDEST PUSH1 0x1 PUSH1 0x20 MSTORE DUP1 PUSH1 0x0 MSTORE PUSH1 0x40 PUSH1 0x0 KECCAK256 PUSH1 0x0 SWAP2 POP SWAP1 POP SLOAD DUP2 JUMP JUMPDEST PUSH1 0x0 DUP1 PUSH1 0x0 DUP4 PUSH1 0x40 MLOAD PUSH2 0xD49 SWAP2 SWAP1 PUSH2 0x192F JUMP JUMPDEST SWAP1 DUP2 MSTORE PUSH1 0x20 ADD PUSH1 0x40 MLOAD DUP1 SWAP2 SUB SWAP1 KECCAK256 SWAP1 POP DUP1 PUSH1 0x2 ADD PUSH1 0x14 SWAP1 SLOAD SWAP1 PUSH2 0x100 EXP SWAP1 DIV PUSH2 0xFFFF AND PUSH2 0xFFFF AND SWAP2 POP POP SWAP2 SWAP1 POP JUMP JUMPDEST PUSH1 0x60 PUSH1 0x0 DUP1 DUP4 PUSH1 0x40 MLOAD PUSH2 0xD8B SWAP2 SWAP1 PUSH2 0x192F JUMP JUMPDEST SWAP1 DUP2 MSTORE PUSH1 0x20 ADD PUSH1 0x40 MLOAD DUP1 SWAP2 SUB SWAP1 KECCAK256 SWAP1 POP DUP1 PUSH1 0x1 ADD DUP1 SLOAD DUP1 PUSH1 0x20 MUL PUSH1 0x20 ADD PUSH1 0x40 MLOAD SWAP1 DUP2 ADD PUSH1 0x40 MSTORE DUP1 SWAP3 SWAP2 SWAP1 DUP2 DUP2 MSTORE PUSH1 0x20 ADD DUP3 DUP1 SLOAD DUP1 ISZERO PUSH2 0xE1F JUMPI PUSH1 0x20 MUL DUP3 ADD SWAP2 SWAP1 PUSH1 0x0 MSTORE PUSH1 0x20 PUSH1 0x0 KECCAK256 SWAP1 JUMPDEST DUP2 PUSH1 0x0 SWAP1 SLOAD SWAP1 PUSH2 0x100 EXP SWAP1 DIV PUSH20 0xFFFFFFFFFFFFFFFFFFFFFFFFFFFFFFFFFFFFFFFF AND PUSH20 0xFFFFFFFFFFFFFFFFFFFFFFFFFFFFFFFFFFFFFFFF AND DUP2 MSTORE PUSH1 0x20 ADD SWAP1 PUSH1 0x1 ADD SWAP1 DUP1 DUP4 GT PUSH2 0xDD5 JUMPI JUMPDEST POP POP POP POP POP SWAP2 POP POP SWAP2 SWAP1 POP JUMP JUMPDEST PUSH1 0x0 DUP1 DUP3 PUSH1 0x40 MLOAD PUSH2 0xE3D SWAP2 SWAP1 PUSH2 0x192F JUMP JUMPDEST SWAP1 DUP2 MSTORE PUSH1 0x20 ADD PUSH1 0x40 MLOAD DUP1 SWAP2 SUB SWAP1 KECCAK256 SWAP1 POP CALLER PUSH20 0xFFFFFFFFFFFFFFFFFFFFFFFFFFFFFFFFFFFFFFFF AND DUP2 PUSH1 0x0 ADD PUSH1 0x0 SWAP1 SLOAD SWAP1 PUSH2 0x100 EXP SWAP1 DIV PUSH20 0xFFFFFFFFFFFFFFFFFFFFFFFFFFFFFFFFFFFFFFFF AND PUSH20 0xFFFFFFFFFFFFFFFFFFFFFFFFFFFFFFFFFFFFFFFF AND EQ PUSH2 0xEDF JUMPI PUSH1 0x40 MLOAD PUSH32 0x8C379A000000000000000000000000000000000000000000000000000000000 DUP2 MSTORE PUSH1 0x4 ADD PUSH2 0xED6 SWAP1 PUSH2 0x1DAB JUMP JUMPDEST PUSH1 0x40 MLOAD DUP1 SWAP2 SUB SWAP1 REVERT JUMPDEST DUP1 PUSH1 0x2 ADD PUSH1 0x16 SWAP1 SLOAD SWAP1 PUSH2 0x100 EXP SWAP1 DIV PUSH1 0xFF AND ISZERO DUP2 PUSH1 0x2 ADD PUSH1 0x16 PUSH2 0x100 EXP DUP2 SLOAD DUP2 PUSH1 0xFF MUL NOT AND SWAP1 DUP4 ISZERO ISZERO MUL OR SWAP1 SSTORE POP POP POP JUMP JUMPDEST PUSH1 0x0 DUP1 PUSH1 0x0 DUP5 PUSH1 0x40 MLOAD PUSH2 0xF24 SWAP2 SWAP1 PUSH2 0x192F JUMP JUMPDEST SWAP1 DUP2 MSTORE PUSH1 0x20 ADD PUSH1 0x40 MLOAD DUP1 SWAP2 SUB SWAP1 KECCAK256 SWAP1 POP PUSH1 0x1 DUP2 PUSH1 0x4 ADD PUSH1 0x0 DUP6 PUSH20 0xFFFFFFFFFFFFFFFFFFFFFFFFFFFFFFFFFFFFFFFF AND PUSH20 0xFFFFFFFFFFFFFFFFFFFFFFFFFFFFFFFFFFFFFFFF AND DUP2 MSTORE PUSH1 0x20 ADD SWAP1 DUP2 MSTORE PUSH1 0x20 ADD PUSH1 0x0 KECCAK256 PUSH1 0x0 PUSH2 0x100 EXP DUP2 SLOAD DUP2 PUSH1 0xFF MUL NOT AND SWAP1 DUP4 ISZERO ISZERO MUL OR SWAP1 SSTORE POP DUP1 PUSH1 0x5 ADD PUSH1 0x0 DUP7 PUSH20 0xFFFFFFFFFFFFFFFFFFFFFFFFFFFFFFFFFFFFFFFF AND PUSH20 0xFFFFFFFFFFFFFFFFFFFFFFFFFFFFFFFFFFFFFFFF AND DUP2 MSTORE PUSH1 0x20 ADD SWAP1 DUP2 MSTORE PUSH1 0x20 ADD PUSH1 0x0 KECCAK256 PUSH1 0x0 DUP2 SLOAD DUP1 SWAP3 SWAP2 SWAP1 PUSH2 0xFE0 SWAP1 PUSH2 0x1BA3 JUMP JUMPDEST SWAP2 SWAP1 POP SSTORE POP DUP1 PUSH1 0x5 ADD PUSH1 0x0 DUP7 PUSH20 0xFFFFFFFFFFFFFFFFFFFFFFFFFFFFFFFFFFFFFFFF AND PUSH20 0xFFFFFFFFFFFFFFFFFFFFFFFFFFFFFFFFFFFFFFFF AND DUP2 MSTORE PUSH1 0x20 ADD SWAP1 DUP2 MSTORE PUSH1 0x20 ADD PUSH1 0x0 KECCAK256 SLOAD SWAP2 POP POP SWAP4 SWAP3 POP POP POP JUMP JUMPDEST PUSH1 0x0 PUSH1 0x40 MLOAD SWAP1 POP SWAP1 JUMP JUMPDEST PUSH1 0x0 DUP1 REVERT JUMPDEST PUSH1 0x0 DUP1 REVERT JUMPDEST PUSH1 0x0 PUSH20 0xFFFFFFFFFFFFFFFFFFFFFFFFFFFFFFFFFFFFFFFF DUP3 AND SWAP1 POP SWAP2 SWAP1 POP JUMP JUMPDEST PUSH1 0x0 PUSH2 0x1070 DUP3 PUSH2 0x1045 JUMP JUMPDEST SWAP1 POP SWAP2 SWAP1 POP JUMP JUMPDEST PUSH2 0x1080 DUP2 PUSH2 0x1065 JUMP JUMPDEST DUP2 EQ PUSH2 0x108B JUMPI PUSH1 0x0 DUP1 REVERT JUMPDEST POP JUMP JUMPDEST PUSH1 0x0 DUP2 CALLDATALOAD SWAP1 POP PUSH2 0x109D DUP2 PUSH2 0x1077 JUMP JUMPDEST SWAP3 SWAP2 POP POP JUMP JUMPDEST PUSH1 0x0 DUP1 REVERT JUMPDEST PUSH1 0x0 DUP1 REVERT JUMPDEST PUSH1 0x0 PUSH1 0x1F NOT PUSH1 0x1F DUP4 ADD AND SWAP1 POP SWAP2 SWAP1 POP JUMP JUMPDEST PUSH32 0x4E487B7100000000000000000000000000000000000000000000000000000000 PUSH1 0x0 MSTORE PUSH1 0x41 PUSH1 0x4 MSTORE PUSH1 0x24 PUSH1 0x0 REVERT JUMPDEST PUSH2 0x10F6 DUP3 PUSH2 0x10AD JUMP JUMPDEST DUP2 ADD DUP2 DUP2 LT PUSH8 0xFFFFFFFFFFFFFFFF DUP3 GT OR ISZERO PUSH2 0x1115 JUMPI PUSH2 0x1114 PUSH2 0x10BE JUMP JUMPDEST JUMPDEST DUP1 PUSH1 0x40 MSTORE POP POP POP JUMP JUMPDEST PUSH1 0x0 PUSH2 0x1128 PUSH2 0x1031 JUMP JUMPDEST SWAP1 POP PUSH2 0x1134 DUP3 DUP3 PUSH2 0x10ED JUMP JUMPDEST SWAP2 SWAP1 POP JUMP JUMPDEST PUSH1 0x0 PUSH8 0xFFFFFFFFFFFFFFFF DUP3 GT ISZERO PUSH2 0x1154 JUMPI PUSH2 0x1153 PUSH2 0x10BE JUMP JUMPDEST JUMPDEST PUSH2 0x115D DUP3 PUSH2 0x10AD JUMP JUMPDEST SWAP1 POP PUSH1 0x20 DUP2 ADD SWAP1 POP SWAP2 SWAP1 POP JUMP JUMPDEST DUP3 DUP2 DUP4 CALLDATACOPY PUSH1 0x0 DUP4 DUP4 ADD MSTORE POP POP POP JUMP JUMPDEST PUSH1 0x0 PUSH2 0x118C PUSH2 0x1187 DUP5 PUSH2 0x1139 JUMP JUMPDEST PUSH2 0x111E JUMP JUMPDEST SWAP1 POP DUP3 DUP2 MSTORE PUSH1 0x20 DUP2 ADD DUP5 DUP5 DUP5 ADD GT ISZERO PUSH2 0x11A8 JUMPI PUSH2 0x11A7 PUSH2 0x10A8 JUMP JUMPDEST JUMPDEST PUSH2 0x11B3 DUP5 DUP3 DUP6 PUSH2 0x116A JUMP JUMPDEST POP SWAP4 SWAP3 POP POP POP JUMP JUMPDEST PUSH1 0x0 DUP3 PUSH1 0x1F DUP4 ADD SLT PUSH2 0x11D0 JUMPI PUSH2 0x11CF PUSH2 0x10A3 JUMP JUMPDEST JUMPDEST DUP2 CALLDATALOAD PUSH2 0x11E0 DUP5 DUP3 PUSH1 0x20 DUP7 ADD PUSH2 0x1179 JUMP JUMPDEST SWAP2 POP POP SWAP3 SWAP2 POP POP JUMP JUMPDEST PUSH1 0x0 DUP2 SWAP1 POP SWAP2 SWAP1 POP JUMP JUMPDEST PUSH2 0x11FC DUP2 PUSH2 0x11E9 JUMP JUMPDEST DUP2 EQ PUSH2 0x1207 JUMPI PUSH1 0x0 DUP1 REVERT JUMPDEST POP JUMP JUMPDEST PUSH1 0x0 DUP2 CALLDATALOAD SWAP1 POP PUSH2 0x1219 DUP2 PUSH2 0x11F3 JUMP JUMPDEST SWAP3 SWAP2 POP POP JUMP JUMPDEST PUSH1 0x0 DUP1 PUSH1 0x0 DUP1 PUSH1 0x80 DUP6 DUP8 SUB SLT ISZERO PUSH2 0x1239 JUMPI PUSH2 0x1238 PUSH2 0x103B JUMP JUMPDEST JUMPDEST PUSH1 0x0 PUSH2 0x1247 DUP8 DUP3 DUP9 ADD PUSH2 0x108E JUMP JUMPDEST SWAP5 POP POP PUSH1 0x20 DUP6 ADD CALLDATALOAD PUSH8 0xFFFFFFFFFFFFFFFF DUP2 GT ISZERO PUSH2 0x1268 JUMPI PUSH2 0x1267 PUSH2 0x1040 JUMP JUMPDEST JUMPDEST PUSH2 0x1274 DUP8 DUP3 DUP9 ADD PUSH2 0x11BB JUMP JUMPDEST SWAP4 POP POP PUSH1 0x40 PUSH2 0x1285 DUP8 DUP3 DUP9 ADD PUSH2 0x120A JUMP JUMPDEST SWAP3 POP POP PUSH1 0x60 PUSH2 0x1296 DUP8 DUP3 DUP9 ADD PUSH2 0x120A JUMP JUMPDEST SWAP2 POP POP SWAP3 SWAP6 SWAP2 SWAP5 POP SWAP3 POP JUMP JUMPDEST PUSH1 0x0 DUP2 SWAP1 POP SWAP2 SWAP1 POP JUMP JUMPDEST PUSH2 0x12B5 DUP2 PUSH2 0x12A2 JUMP JUMPDEST DUP3 MSTORE POP POP JUMP JUMPDEST PUSH1 0x0 PUSH1 0x20 DUP3 ADD SWAP1 POP PUSH2 0x12D0 PUSH1 0x0 DUP4 ADD DUP5 PUSH2 0x12AC JUMP JUMPDEST SWAP3 SWAP2 POP POP JUMP JUMPDEST PUSH1 0x0 PUSH2 0xFFFF DUP3 AND SWAP1 POP SWAP2 SWAP1 POP JUMP JUMPDEST PUSH2 0x12ED DUP2 PUSH2 0x12D6 JUMP JUMPDEST DUP2 EQ PUSH2 0x12F8 JUMPI PUSH1 0x0 DUP1 REVERT JUMPDEST POP JUMP JUMPDEST PUSH1 0x0 DUP2 CALLDATALOAD SWAP1 POP PUSH2 0x130A DUP2 PUSH2 0x12E4 JUMP JUMPDEST SWAP3 SWAP2 POP POP JUMP JUMPDEST PUSH1 0x0 DUP1 PUSH1 0x40 DUP4 DUP6 SUB SLT ISZERO PUSH2 0x1327 JUMPI PUSH2 0x1326 PUSH2 0x103B JUMP JUMPDEST JUMPDEST PUSH1 0x0 DUP4 ADD CALLDATALOAD PUSH8 0xFFFFFFFFFFFFFFFF DUP2 GT ISZERO PUSH2 0x1345 JUMPI PUSH2 0x1344 PUSH2 0x1040 JUMP JUMPDEST JUMPDEST PUSH2 0x1351 DUP6 DUP3 DUP7 ADD PUSH2 0x11BB JUMP JUMPDEST SWAP3 POP POP PUSH1 0x20 PUSH2 0x1362 DUP6 DUP3 DUP7 ADD PUSH2 0x12FB JUMP JUMPDEST SWAP2 POP POP SWAP3 POP SWAP3 SWAP1 POP JUMP JUMPDEST PUSH1 0x0 DUP2 MLOAD SWAP1 POP SWAP2 SWAP1 POP JUMP JUMPDEST PUSH1 0x0 DUP3 DUP3 MSTORE PUSH1 0x20 DUP3 ADD SWAP1 POP SWAP3 SWAP2 POP POP JUMP JUMPDEST PUSH1 0x0 JUMPDEST DUP4 DUP2 LT ISZERO PUSH2 0x13A6 JUMPI DUP1 DUP3 ADD MLOAD DUP2 DUP5 ADD MSTORE PUSH1 0x20 DUP2 ADD SWAP1 POP PUSH2 0x138B JUMP JUMPDEST DUP4 DUP2 GT ISZERO PUSH2 0x13B5 JUMPI PUSH1 0x0 DUP5 DUP5 ADD MSTORE JUMPDEST POP POP POP POP JUMP JUMPDEST PUSH1 0x0 PUSH2 0x13C6 DUP3 PUSH2 0x136C JUMP JUMPDEST PUSH2 0x13D0 DUP2 DUP6 PUSH2 0x1377 JUMP JUMPDEST SWAP4 POP PUSH2 0x13E0 DUP2 DUP6 PUSH1 0x20 DUP7 ADD PUSH2 0x1388 JUMP JUMPDEST PUSH2 0x13E9 DUP2 PUSH2 0x10AD JUMP JUMPDEST DUP5 ADD SWAP2 POP POP SWAP3 SWAP2 POP POP JUMP JUMPDEST PUSH2 0x13FD DUP2 PUSH2 0x11E9 JUMP JUMPDEST DUP3 MSTORE POP POP JUMP JUMPDEST PUSH1 0x0 PUSH1 0x40 DUP3 ADD SWAP1 POP DUP2 DUP2 SUB PUSH1 0x0 DUP4 ADD MSTORE PUSH2 0x141D DUP2 DUP6 PUSH2 0x13BB JUMP JUMPDEST SWAP1 POP PUSH2 0x142C PUSH1 0x20 DUP4 ADD DUP5 PUSH2 0x13F4 JUMP JUMPDEST SWAP4 SWAP3 POP POP POP JUMP JUMPDEST PUSH1 0x0 DUP1 PUSH1 0x40 DUP4 DUP6 SUB SLT ISZERO PUSH2 0x144A JUMPI PUSH2 0x1449 PUSH2 0x103B JUMP JUMPDEST JUMPDEST PUSH1 0x0 PUSH2 0x1458 DUP6 DUP3 DUP7 ADD PUSH2 0x108E JUMP JUMPDEST SWAP3 POP POP PUSH1 0x20 DUP4 ADD CALLDATALOAD PUSH8 0xFFFFFFFFFFFFFFFF DUP2 GT ISZERO PUSH2 0x1479 JUMPI PUSH2 0x1478 PUSH2 0x1040 JUMP JUMPDEST JUMPDEST PUSH2 0x1485 DUP6 DUP3 DUP7 ADD PUSH2 0x11BB JUMP JUMPDEST SWAP2 POP POP SWAP3 POP SWAP3 SWAP1 POP JUMP JUMPDEST PUSH1 0x0 PUSH1 0x20 DUP3 DUP5 SUB SLT ISZERO PUSH2 0x14A5 JUMPI PUSH2 0x14A4 PUSH2 0x103B JUMP JUMPDEST JUMPDEST PUSH1 0x0 DUP3 ADD CALLDATALOAD PUSH8 0xFFFFFFFFFFFFFFFF DUP2 GT ISZERO PUSH2 0x14C3 JUMPI PUSH2 0x14C2 PUSH2 0x1040 JUMP JUMPDEST JUMPDEST PUSH2 0x14CF DUP5 DUP3 DUP6 ADD PUSH2 0x11BB JUMP JUMPDEST SWAP2 POP POP SWAP3 SWAP2 POP POP JUMP JUMPDEST PUSH1 0x0 PUSH1 0x20 DUP3 ADD SWAP1 POP PUSH2 0x14ED PUSH1 0x0 DUP4 ADD DUP5 PUSH2 0x13F4 JUMP JUMPDEST SWAP3 SWAP2 POP POP JUMP JUMPDEST PUSH1 0x0 DUP2 MLOAD SWAP1 POP SWAP2 SWAP1 POP JUMP JUMPDEST PUSH1 0x0 DUP3 DUP3 MSTORE PUSH1 0x20 DUP3 ADD SWAP1 POP SWAP3 SWAP2 POP POP JUMP JUMPDEST PUSH1 0x0 DUP2 SWAP1 POP PUSH1 0x20 DUP3 ADD SWAP1 POP SWAP2 SWAP1 POP JUMP JUMPDEST PUSH2 0x1528 DUP2 PUSH2 0x11E9 JUMP JUMPDEST DUP3 MSTORE POP POP JUMP JUMPDEST PUSH1 0x0 PUSH2 0x153A DUP4 DUP4 PUSH2 0x151F JUMP JUMPDEST PUSH1 0x20 DUP4 ADD SWAP1 POP SWAP3 SWAP2 POP POP JUMP JUMPDEST PUSH1 0x0 PUSH1 0x20 DUP3 ADD SWAP1 POP SWAP2 SWAP1 POP JUMP JUMPDEST PUSH1 0x0 PUSH2 0x155E DUP3 PUSH2 0x14F3 JUMP JUMPDEST PUSH2 0x1568 DUP2 DUP6 PUSH2 0x14FE JUMP JUMPDEST SWAP4 POP PUSH2 0x1573 DUP4 PUSH2 0x150F JUMP JUMPDEST DUP1 PUSH1 0x0 JUMPDEST DUP4 DUP2 LT ISZERO PUSH2 0x15A4 JUMPI DUP2 MLOAD PUSH2 0x158B DUP9 DUP3 PUSH2 0x152E JUMP JUMPDEST SWAP8 POP PUSH2 0x1596 DUP4 PUSH2 0x1546 JUMP JUMPDEST SWAP3 POP POP PUSH1 0x1 DUP2 ADD SWAP1 POP PUSH2 0x1577 JUMP JUMPDEST POP DUP6 SWAP4 POP POP POP POP SWAP3 SWAP2 POP POP JUMP JUMPDEST PUSH2 0x15BA DUP2 PUSH2 0x1065 JUMP JUMPDEST DUP3 MSTORE POP POP JUMP JUMPDEST PUSH1 0x0 PUSH1 0x60 DUP3 ADD SWAP1 POP DUP2 DUP2 SUB PUSH1 0x0 DUP4 ADD MSTORE PUSH2 0x15DA DUP2 DUP7 PUSH2 0x1553 JUMP JUMPDEST SWAP1 POP PUSH2 0x15E9 PUSH1 0x20 DUP4 ADD DUP6 PUSH2 0x15B1 JUMP JUMPDEST PUSH2 0x15F6 PUSH1 0x40 DUP4 ADD DUP5 PUSH2 0x13F4 JUMP JUMPDEST SWAP5 SWAP4 POP POP POP POP JUMP JUMPDEST PUSH1 0x0 PUSH4 0xFFFFFFFF DUP3 AND SWAP1 POP SWAP2 SWAP1 POP JUMP JUMPDEST PUSH2 0x1617 DUP2 PUSH2 0x15FE JUMP JUMPDEST DUP3 MSTORE POP POP JUMP JUMPDEST PUSH1 0x0 PUSH8 0xFFFFFFFFFFFFFFFF DUP3 AND SWAP1 POP SWAP2 SWAP1 POP JUMP JUMPDEST PUSH2 0x163A DUP2 PUSH2 0x161D JUMP JUMPDEST DUP3 MSTORE POP POP JUMP JUMPDEST PUSH2 0x1649 DUP2 PUSH2 0x12D6 JUMP JUMPDEST DUP3 MSTORE POP POP JUMP JUMPDEST PUSH1 0x0 DUP2 ISZERO ISZERO SWAP1 POP SWAP2 SWAP1 POP JUMP JUMPDEST PUSH2 0x1664 DUP2 PUSH2 0x164F JUMP JUMPDEST DUP3 MSTORE POP POP JUMP JUMPDEST PUSH1 0x0 PUSH1 0xC0 DUP3 ADD SWAP1 POP PUSH2 0x167F PUSH1 0x0 DUP4 ADD DUP10 PUSH2 0x15B1 JUMP JUMPDEST PUSH2 0x168C PUSH1 0x20 DUP4 ADD DUP9 PUSH2 0x160E JUMP JUMPDEST PUSH2 0x1699 PUSH1 0x40 DUP4 ADD DUP8 PUSH2 0x1631 JUMP JUMPDEST PUSH2 0x16A6 PUSH1 0x60 DUP4 ADD DUP7 PUSH2 0x1631 JUMP JUMPDEST PUSH2 0x16B3 PUSH1 0x80 DUP4 ADD DUP6 PUSH2 0x1640 JUMP JUMPDEST PUSH2 0x16C0 PUSH1 0xA0 DUP4 ADD DUP5 PUSH2 0x165B JUMP JUMPDEST SWAP8 SWAP7 POP POP POP POP POP POP POP JUMP JUMPDEST PUSH1 0x0 PUSH1 0x20 DUP3 DUP5 SUB SLT ISZERO PUSH2 0x16E1 JUMPI PUSH2 0x16E0 PUSH2 0x103B JUMP JUMPDEST JUMPDEST PUSH1 0x0 PUSH2 0x16EF DUP5 DUP3 DUP6 ADD PUSH2 0x108E JUMP JUMPDEST SWAP2 POP POP SWAP3 SWAP2 POP POP JUMP JUMPDEST PUSH1 0x0 DUP2 MLOAD SWAP1 POP SWAP2 SWAP1 POP JUMP JUMPDEST PUSH1 0x0 DUP3 DUP3 MSTORE PUSH1 0x20 DUP3 ADD SWAP1 POP SWAP3 SWAP2 POP POP JUMP JUMPDEST PUSH1 0x0 DUP2 SWAP1 POP PUSH1 0x20 DUP3 ADD SWAP1 POP SWAP2 SWAP1 POP JUMP JUMPDEST PUSH2 0x172D DUP2 PUSH2 0x1065 JUMP JUMPDEST DUP3 MSTORE POP POP JUMP JUMPDEST PUSH1 0x0 PUSH2 0x173F DUP4 DUP4 PUSH2 0x1724 JUMP JUMPDEST PUSH1 0x20 DUP4 ADD SWAP1 POP SWAP3 SWAP2 POP POP JUMP JUMPDEST PUSH1 0x0 PUSH1 0x20 DUP3 ADD SWAP1 POP SWAP2 SWAP1 POP JUMP JUMPDEST PUSH1 0x0 PUSH2 0x1763 DUP3 PUSH2 0x16F8 JUMP JUMPDEST PUSH2 0x176D DUP2 DUP6 PUSH2 0x1703 JUMP JUMPDEST SWAP4 POP PUSH2 0x1778 DUP4 PUSH2 0x1714 JUMP JUMPDEST DUP1 PUSH1 0x0 JUMPDEST DUP4 DUP2 LT ISZERO PUSH2 0x17A9 JUMPI DUP2 MLOAD PUSH2 0x1790 DUP9 DUP3 PUSH2 0x1733 JUMP JUMPDEST SWAP8 POP PUSH2 0x179B DUP4 PUSH2 0x174B JUMP JUMPDEST SWAP3 POP POP PUSH1 0x1 DUP2 ADD SWAP1 POP PUSH2 0x177C JUMP JUMPDEST POP DUP6 SWAP4 POP POP POP POP SWAP3 SWAP2 POP POP JUMP JUMPDEST PUSH1 0x0 PUSH1 0x20 DUP3 ADD SWAP1 POP DUP2 DUP2 SUB PUSH1 0x0 DUP4 ADD MSTORE PUSH2 0x17D0 DUP2 DUP5 PUSH2 0x1758 JUMP JUMPDEST SWAP1 POP SWAP3 SWAP2 POP POP JUMP JUMPDEST PUSH1 0x0 DUP2 PUSH1 0x60 SHL SWAP1 POP SWAP2 SWAP1 POP JUMP JUMPDEST PUSH1 0x0 PUSH2 0x17F0 DUP3 PUSH2 0x17D8 JUMP JUMPDEST SWAP1 POP SWAP2 SWAP1 POP JUMP JUMPDEST PUSH1 0x0 PUSH2 0x1802 DUP3 PUSH2 0x17E5 JUMP JUMPDEST SWAP1 POP SWAP2 SWAP1 POP JUMP JUMPDEST PUSH2 0x181A PUSH2 0x1815 DUP3 PUSH2 0x1065 JUMP JUMPDEST PUSH2 0x17F7 JUMP JUMPDEST DUP3 MSTORE POP POP JUMP JUMPDEST PUSH1 0x0 DUP2 SWAP1 POP SWAP3 SWAP2 POP POP JUMP JUMPDEST PUSH32 0x6D6574617472616E73616374696F6E20566F74696E6720000000000000000000 PUSH1 0x0 DUP3 ADD MSTORE POP JUMP JUMPDEST PUSH1 0x0 PUSH2 0x1861 PUSH1 0x17 DUP4 PUSH2 0x1820 JUMP JUMPDEST SWAP2 POP PUSH2 0x186C DUP3 PUSH2 0x182B JUMP JUMPDEST PUSH1 0x17 DUP3 ADD SWAP1 POP SWAP2 SWAP1 POP JUMP JUMPDEST PUSH1 0x0 PUSH2 0x1882 DUP3 PUSH2 0x136C JUMP JUMPDEST PUSH2 0x188C DUP2 DUP6 PUSH2 0x1820 JUMP JUMPDEST SWAP4 POP PUSH2 0x189C DUP2 DUP6 PUSH1 0x20 DUP7 ADD PUSH2 0x1388 JUMP JUMPDEST DUP1 DUP5 ADD SWAP2 POP POP SWAP3 SWAP2 POP POP JUMP JUMPDEST PUSH1 0x0 DUP2 SWAP1 POP SWAP2 SWAP1 POP JUMP JUMPDEST PUSH2 0x18C3 PUSH2 0x18BE DUP3 PUSH2 0x11E9 JUMP JUMPDEST PUSH2 0x18A8 JUMP JUMPDEST DUP3 MSTORE POP POP JUMP JUMPDEST PUSH1 0x0 PUSH2 0x18D5 DUP3 DUP9 PUSH2 0x1809 JUMP JUMPDEST PUSH1 0x14 DUP3 ADD SWAP2 POP PUSH2 0x18E4 DUP3 PUSH2 0x1854 JUMP JUMPDEST SWAP2 POP PUSH2 0x18F0 DUP3 DUP8 PUSH2 0x1809 JUMP JUMPDEST PUSH1 0x14 DUP3 ADD SWAP2 POP PUSH2 0x1900 DUP3 DUP7 PUSH2 0x1877 JUMP JUMPDEST SWAP2 POP PUSH2 0x190C DUP3 DUP6 PUSH2 0x18B2 JUMP JUMPDEST PUSH1 0x20 DUP3 ADD SWAP2 POP PUSH2 0x191C DUP3 DUP5 PUSH2 0x18B2 JUMP JUMPDEST PUSH1 0x20 DUP3 ADD SWAP2 POP DUP2 SWAP1 POP SWAP7 SWAP6 POP POP POP POP POP POP JUMP JUMPDEST PUSH1 0x0 PUSH2 0x193B DUP3 DUP5 PUSH2 0x1877 JUMP JUMPDEST SWAP2 POP DUP2 SWAP1 POP SWAP3 SWAP2 POP POP JUMP JUMPDEST PUSH32 0x54686973206164647265737320646F6573206E6F742065786973742061732061 PUSH1 0x0 DUP3 ADD MSTORE PUSH32 0x2063616E64696461746500000000000000000000000000000000000000000000 PUSH1 0x20 DUP3 ADD MSTORE POP JUMP JUMPDEST PUSH1 0x0 PUSH2 0x19A2 PUSH1 0x2A DUP4 PUSH2 0x1377 JUMP JUMPDEST SWAP2 POP PUSH2 0x19AD DUP3 PUSH2 0x1946 JUMP JUMPDEST PUSH1 0x40 DUP3 ADD SWAP1 POP SWAP2 SWAP1 POP JUMP JUMPDEST PUSH1 0x0 PUSH1 0x20 DUP3 ADD SWAP1 POP DUP2 DUP2 SUB PUSH1 0x0 DUP4 ADD MSTORE PUSH2 0x19D1 DUP2 PUSH2 0x1995 JUMP JUMPDEST SWAP1 POP SWAP2 SWAP1 POP JUMP JUMPDEST PUSH32 0x766F74696E672068617320656E64656400000000000000000000000000000000 PUSH1 0x0 DUP3 ADD MSTORE POP JUMP JUMPDEST PUSH1 0x0 PUSH2 0x1A0E PUSH1 0x10 DUP4 PUSH2 0x1377 JUMP JUMPDEST SWAP2 POP PUSH2 0x1A19 DUP3 PUSH2 0x19D8 JUMP JUMPDEST PUSH1 0x20 DUP3 ADD SWAP1 POP SWAP2 SWAP1 POP JUMP JUMPDEST PUSH1 0x0 PUSH1 0x20 DUP3 ADD SWAP1 POP DUP2 DUP2 SUB PUSH1 0x0 DUP4 ADD MSTORE PUSH2 0x1A3D DUP2 PUSH2 0x1A01 JUMP JUMPDEST SWAP1 POP SWAP2 SWAP1 POP JUMP JUMPDEST PUSH32 0x596F7520616C726561647920766F746564000000000000000000000000000000 PUSH1 0x0 DUP3 ADD MSTORE POP JUMP JUMPDEST PUSH1 0x0 PUSH2 0x1A7A PUSH1 0x11 DUP4 PUSH2 0x1377 JUMP JUMPDEST SWAP2 POP PUSH2 0x1A85 DUP3 PUSH2 0x1A44 JUMP JUMPDEST PUSH1 0x20 DUP3 ADD SWAP1 POP SWAP2 SWAP1 POP JUMP JUMPDEST PUSH1 0x0 PUSH1 0x20 DUP3 ADD SWAP1 POP DUP2 DUP2 SUB PUSH1 0x0 DUP4 ADD MSTORE PUSH2 0x1AA9 DUP2 PUSH2 0x1A6D JUMP JUMPDEST SWAP1 POP SWAP2 SWAP1 POP JUMP JUMPDEST PUSH1 0x0 PUSH1 0x40 DUP3 ADD SWAP1 POP PUSH2 0x1AC5 PUSH1 0x0 DUP4 ADD DUP6 PUSH2 0x15B1 JUMP JUMPDEST PUSH2 0x1AD2 PUSH1 0x20 DUP4 ADD DUP5 PUSH2 0x165B JUMP JUMPDEST SWAP4 SWAP3 POP POP POP JUMP JUMPDEST PUSH32 0x4E487B7100000000000000000000000000000000000000000000000000000000 PUSH1 0x0 MSTORE PUSH1 0x32 PUSH1 0x4 MSTORE PUSH1 0x24 PUSH1 0x0 REVERT JUMPDEST PUSH32 0x4E6F20706F6C6C20637265617465640000000000000000000000000000000000 PUSH1 0x0 DUP3 ADD MSTORE POP JUMP JUMPDEST PUSH1 0x0 PUSH2 0x1B3E PUSH1 0xF DUP4 PUSH2 0x1377 JUMP JUMPDEST SWAP2 POP PUSH2 0x1B49 DUP3 PUSH2 0x1B08 JUMP JUMPDEST PUSH1 0x20 DUP3 ADD SWAP1 POP SWAP2 SWAP1 POP JUMP JUMPDEST PUSH1 0x0 PUSH1 0x20 DUP3 ADD SWAP1 POP DUP2 DUP2 SUB PUSH1 0x0 DUP4 ADD MSTORE PUSH2 0x1B6D DUP2 PUSH2 0x1B31 JUMP JUMPDEST SWAP1 POP SWAP2 SWAP1 POP JUMP JUMPDEST PUSH32 0x4E487B7100000000000000000000000000000000000000000000000000000000 PUSH1 0x0 MSTORE PUSH1 0x11 PUSH1 0x4 MSTORE PUSH1 0x24 PUSH1 0x0 REVERT JUMPDEST PUSH1 0x0 PUSH2 0x1BAE DUP3 PUSH2 0x11E9 JUMP JUMPDEST SWAP2 POP PUSH32 0xFFFFFFFFFFFFFFFFFFFFFFFFFFFFFFFFFFFFFFFFFFFFFFFFFFFFFFFFFFFFFFFF DUP3 EQ ISZERO PUSH2 0x1BE1 JUMPI PUSH2 0x1BE0 PUSH2 0x1B74 JUMP JUMPDEST JUMPDEST PUSH1 0x1 DUP3 ADD SWAP1 POP SWAP2 SWAP1 POP JUMP JUMPDEST PUSH32 0x79657420746F20637265617465206120706F6C6C000000000000000000000000 PUSH1 0x0 DUP3 ADD MSTORE POP JUMP JUMPDEST PUSH1 0x0 PUSH2 0x1C22 PUSH1 0x14 DUP4 PUSH2 0x1377 JUMP JUMPDEST SWAP2 POP PUSH2 0x1C2D DUP3 PUSH2 0x1BEC JUMP JUMPDEST PUSH1 0x20 DUP3 ADD SWAP1 POP SWAP2 SWAP1 POP JUMP JUMPDEST PUSH1 0x0 PUSH1 0x20 DUP3 ADD SWAP1 POP DUP2 DUP2 SUB PUSH1 0x0 DUP4 ADD MSTORE PUSH2 0x1C51 DUP2 PUSH2 0x1C15 JUMP JUMPDEST SWAP1 POP SWAP2 SWAP1 POP JUMP JUMPDEST PUSH32 0x4E487B7100000000000000000000000000000000000000000000000000000000 PUSH1 0x0 MSTORE PUSH1 0x1 PUSH1 0x4 MSTORE PUSH1 0x24 PUSH1 0x0 REVERT JUMPDEST PUSH32 0x6D6178696D756D206E6F206F662063616E646964617465207065722073657373 PUSH1 0x0 DUP3 ADD MSTORE PUSH32 0x696F6E2072656769737465726564000000000000000000000000000000000000 PUSH1 0x20 DUP3 ADD MSTORE POP JUMP JUMPDEST PUSH1 0x0 PUSH2 0x1CE3 PUSH1 0x2E DUP4 PUSH2 0x1377 JUMP JUMPDEST SWAP2 POP PUSH2 0x1CEE DUP3 PUSH2 0x1C87 JUMP JUMPDEST PUSH1 0x40 DUP3 ADD SWAP1 POP SWAP2 SWAP1 POP JUMP JUMPDEST PUSH1 0x0 PUSH1 0x20 DUP3 ADD SWAP1 POP DUP2 DUP2 SUB PUSH1 0x0 DUP4 ADD MSTORE PUSH2 0x1D12 DUP2 PUSH2 0x1CD6 JUMP JUMPDEST SWAP1 POP SWAP2 SWAP1 POP JUMP JUMPDEST PUSH1 0x0 PUSH2 0x1D24 DUP3 PUSH2 0x12D6 JUMP JUMPDEST SWAP2 POP PUSH2 0xFFFF DUP3 EQ ISZERO PUSH2 0x1D39 JUMPI PUSH2 0x1D38 PUSH2 0x1B74 JUMP JUMPDEST JUMPDEST PUSH1 0x1 DUP3 ADD SWAP1 POP SWAP2 SWAP1 POP JUMP JUMPDEST PUSH1 0x0 PUSH1 0x20 DUP3 ADD SWAP1 POP PUSH2 0x1D59 PUSH1 0x0 DUP4 ADD DUP5 PUSH2 0x15B1 JUMP JUMPDEST SWAP3 SWAP2 POP POP JUMP JUMPDEST PUSH32 0x6E6F74207468652063686169726D616E00000000000000000000000000000000 PUSH1 0x0 DUP3 ADD MSTORE POP JUMP JUMPDEST PUSH1 0x0 PUSH2 0x1D95 PUSH1 0x10 DUP4 PUSH2 0x1377 JUMP JUMPDEST SWAP2 POP PUSH2 0x1DA0 DUP3 PUSH2 0x1D5F JUMP JUMPDEST PUSH1 0x20 DUP3 ADD SWAP1 POP SWAP2 SWAP1 POP JUMP JUMPDEST PUSH1 0x0 PUSH1 0x20 DUP3 ADD SWAP1 POP DUP2 DUP2 SUB PUSH1 0x0 DUP4 ADD MSTORE PUSH2 0x1DC4 DUP2 PUSH2 0x1D88 JUMP JUMPDEST SWAP1 POP SWAP2 SWAP1 POP JUMP INVALID LOG2 PUSH5 0x6970667358 0x22 SLT KECCAK256 0x4D 0xF9 0x29 CALL 0x23 CALLVALUE SWAP9 EXTCODEHASH DUP5 SWAP7 0xE8 PUSH6 0xDACA65C1B40F MOD PUSH21 0x520E69DC0249C3D262AC16DA64736F6C634300080A STOP CALLER "
				},
				"gasEstimates": {
					"creation": {
						"codeDepositCost": "1536200",
						"executionCost": "1610",
						"totalCost": "1537810"
					},
					"external": {
						"AddCandidate(address,string)": "infinite",
						"AllCandidates(string)": "infinite",
						"NoOfRegisteredCandidates(string)": "infinite",
						"createPoll(string,uint16)": "infinite",
						"getUint(string)": "infinite",
						"metaVotingHash(address,string,uint256,uint256)": "infinite",
						"replayNonce(address)": "2858",
						"revealWinner(string)": "infinite",
						"setVotingState(string)": "infinite",
						"vote(address,string)": "infinite",
						"votingPoll(string)": "infinite"
					},
					"internal": {
						"countVote(address,string memory,address)": "infinite",
						"getSigner(bytes32,bytes memory)": "infinite"
					}
				},
				"methodIdentifiers": {
					"AddCandidate(address,string)": "57f53967",
					"AllCandidates(string)": "af7cbc0d",
					"NoOfRegisteredCandidates(string)": "8579cacd",
					"createPoll(string,uint16)": "0968d4b1",
					"getUint(string)": "498bff00",
					"metaVotingHash(address,string,uint256,uint256)": "01ff993b",
					"replayNonce(address)": "67d407df",
					"revealWinner(string)": "4fcf1f39",
					"setVotingState(string)": "f0e4de22",
					"vote(address,string)": "1bf533a4",
					"votingPoll(string)": "63ee965a"
				}
			},
			"storageLayout": {
				"storage": [
					{
						"astId": 34,
						"contract": "src/voting.sol:Voting",
						"label": "votingPoll",
						"offset": 0,
						"slot": "0",
						"type": "t_mapping(t_string_memory_ptr,t_struct(VotingPoll)29_storage)"
					},
					{
						"astId": 38,
						"contract": "src/voting.sol:Voting",
						"label": "replayNonce",
						"offset": 0,
						"slot": "1",
						"type": "t_mapping(t_address,t_uint256)"
					}
				],
				"types": {
					"t_address": {
						"encoding": "inplace",
						"label": "address",
						"numberOfBytes": "20"
					},
					"t_array(t_address)dyn_storage": {
						"base": "t_address",
						"encoding": "dynamic_array",
						"label": "address[]",
						"numberOfBytes": "32"
					},
					"t_bool": {
						"encoding": "inplace",
						"label": "bool",
						"numberOfBytes": "1"
					},
					"t_mapping(t_address,t_bool)": {
						"encoding": "mapping",
						"key": "t_address",
						"label": "mapping(address => bool)",
						"numberOfBytes": "32",
						"value": "t_bool"
					},
					"t_mapping(t_address,t_uint256)": {
						"encoding": "mapping",
						"key": "t_address",
						"label": "mapping(address => uint256)",
						"numberOfBytes": "32",
						"value": "t_uint256"
					},
					"t_mapping(t_string_memory_ptr,t_struct(VotingPoll)29_storage)": {
						"encoding": "mapping",
						"key": "t_string_memory_ptr",
						"label": "mapping(string => struct Voting.VotingPoll)",
						"numberOfBytes": "32",
						"value": "t_struct(VotingPoll)29_storage"
					},
					"t_string_memory_ptr": {
						"encoding": "bytes",
						"label": "string",
						"numberOfBytes": "32"
					},
					"t_struct(VotingPoll)29_storage": {
						"encoding": "inplace",
						"label": "struct Voting.VotingPoll",
						"members": [
							{
								"astId": 3,
								"contract": "src/voting.sol:Voting",
								"label": "chairman",
								"offset": 0,
								"slot": "0",
								"type": "t_address"
							},
							{
								"astId": 6,
								"contract": "src/voting.sol:Voting",
								"label": "candidates",
								"offset": 0,
								"slot": "1",
								"type": "t_array(t_address)dyn_storage"
							},
							{
								"astId": 8,
								"contract": "src/voting.sol:Voting",
								"label": "maxNoOfCandidates",
								"offset": 0,
								"slot": "2",
								"type": "t_uint32"
							},
							{
								"astId": 10,
								"contract": "src/voting.sol:Voting",
								"label": "startTime",
								"offset": 4,
								"slot": "2",
								"type": "t_uint64"
							},
							{
								"astId": 12,
								"contract": "src/voting.sol:Voting",
								"label": "amountGenerated",
								"offset": 12,
								"slot": "2",
								"type": "t_uint64"
							},
							{
								"astId": 14,
								"contract": "src/voting.sol:Voting",
								"label": "currentNoOfCandidates",
								"offset": 20,
								"slot": "2",
								"type": "t_uint16"
							},
							{
								"astId": 16,
								"contract": "src/voting.sol:Voting",
								"label": "voting",
								"offset": 22,
								"slot": "2",
								"type": "t_bool"
							},
							{
								"astId": 20,
								"contract": "src/voting.sol:Voting",
								"label": "CandidateStatus",
								"offset": 0,
								"slot": "3",
								"type": "t_mapping(t_address,t_bool)"
							},
							{
								"astId": 24,
								"contract": "src/voting.sol:Voting",
								"label": "hasVoted",
								"offset": 0,
								"slot": "4",
								"type": "t_mapping(t_address,t_bool)"
							},
							{
								"astId": 28,
								"contract": "src/voting.sol:Voting",
								"label": "CandidateVote",
								"offset": 0,
								"slot": "5",
								"type": "t_mapping(t_address,t_uint256)"
							}
						],
						"numberOfBytes": "192"
					},
					"t_uint16": {
						"encoding": "inplace",
						"label": "uint16",
						"numberOfBytes": "2"
					},
					"t_uint256": {
						"encoding": "inplace",
						"label": "uint256",
						"numberOfBytes": "32"
					},
					"t_uint32": {
						"encoding": "inplace",
						"label": "uint32",
						"numberOfBytes": "4"
					},
					"t_uint64": {
						"encoding": "inplace",
						"label": "uint64",
						"numberOfBytes": "8"
					}
				}
			},
			"userdoc": {
				"kind": "user",
				"methods": {},
				"version": 1
			}
		}
	}
}