{
	"src/voting.sol": {
		"Voting": {
			"abi": [
				{
					"anonymous": false,
					"inputs": [
						{
							"indexed": false,
							"internalType": "address",
							"name": "NewCandidate",
							"type": "address"
						}
					],
					"name": "becameCandidate",
					"type": "event"
				},
				{
					"anonymous": false,
					"inputs": [
						{
							"indexed": true,
							"internalType": "string",
							"name": "_name",
							"type": "string"
						},
						{
							"indexed": true,
							"internalType": "uint32",
							"name": "ExpectedNoOfCandidate",
							"type": "uint32"
						},
						{
							"indexed": true,
							"internalType": "uint256",
							"name": "_id",
							"type": "uint256"
						}
					],
					"name": "pollCreated",
					"type": "event"
				},
				{
					"anonymous": false,
					"inputs": [
						{
							"indexed": true,
							"internalType": "bool",
							"name": "status",
							"type": "bool"
						}
					],
					"name": "voteStatus",
					"type": "event"
				},
				{
					"anonymous": false,
					"inputs": [
						{
							"indexed": false,
							"internalType": "address",
							"name": "_candidate",
							"type": "address"
						},
						{
							"indexed": false,
							"internalType": "bool",
							"name": "status",
							"type": "bool"
						}
					],
					"name": "voted",
					"type": "event"
				},
				{
					"inputs": [
						{
							"internalType": "address",
							"name": "_newCandidate",
							"type": "address"
						},
						{
							"internalType": "uint256",
							"name": "_id",
							"type": "uint256"
						}
					],
					"name": "AddCandidate",
					"outputs": [],
					"stateMutability": "nonpayable",
					"type": "function"
				},
				{
					"inputs": [
						{
							"internalType": "uint256",
							"name": "_id",
							"type": "uint256"
						}
					],
					"name": "AllCandidates",
					"outputs": [
						{
							"internalType": "address[]",
							"name": "_candidates",
							"type": "address[]"
						}
					],
					"stateMutability": "view",
					"type": "function"
				},
				{
					"inputs": [
						{
							"internalType": "uint256",
							"name": "_id",
							"type": "uint256"
						}
					],
					"name": "NoOfRegisteredCandidates",
					"outputs": [
						{
							"internalType": "uint256",
							"name": "",
							"type": "uint256"
						}
					],
					"stateMutability": "view",
					"type": "function"
				},
				{
					"inputs": [
						{
							"internalType": "uint256",
							"name": "",
							"type": "uint256"
						}
					],
					"name": "VotingKey",
					"outputs": [
						{
							"internalType": "uint256",
							"name": "",
							"type": "uint256"
						}
					],
					"stateMutability": "view",
					"type": "function"
				},
				{
					"inputs": [
						{
							"internalType": "uint256",
							"name": "",
							"type": "uint256"
						}
					],
					"name": "VotingStruct",
					"outputs": [
						{
							"internalType": "string",
							"name": "name",
							"type": "string"
						},
						{
							"internalType": "address",
							"name": "chairman",
							"type": "address"
						},
						{
							"internalType": "uint32",
							"name": "maxNoOfCandidates",
							"type": "uint32"
						},
						{
							"internalType": "uint32",
							"name": "currentNoOfCandidates",
							"type": "uint32"
						},
						{
							"internalType": "bool",
							"name": "voting",
							"type": "bool"
						}
					],
					"stateMutability": "view",
					"type": "function"
				},
				{
					"inputs": [],
					"name": "arrayOfStruct",
					"outputs": [
						{
							"components": [
								{
									"internalType": "string",
									"name": "name",
									"type": "string"
								},
								{
									"internalType": "address",
									"name": "chairman",
									"type": "address"
								},
								{
									"internalType": "address[]",
									"name": "candidates",
									"type": "address[]"
								},
								{
									"internalType": "uint32",
									"name": "maxNoOfCandidates",
									"type": "uint32"
								},
								{
									"internalType": "uint32",
									"name": "currentNoOfCandidates",
									"type": "uint32"
								},
								{
									"internalType": "bool",
									"name": "voting",
									"type": "bool"
								}
							],
							"internalType": "struct Voting.VotingPoll[]",
							"name": "VP",
							"type": "tuple[]"
						}
					],
					"stateMutability": "nonpayable",
					"type": "function"
				},
				{
					"inputs": [
						{
							"internalType": "string",
							"name": "_name",
							"type": "string"
						},
						{
							"internalType": "uint32",
							"name": "ExpectedNoOfCandidate",
							"type": "uint32"
						}
					],
					"name": "createPoll",
					"outputs": [],
					"stateMutability": "nonpayable",
					"type": "function"
				},
				{
					"inputs": [
						{
							"internalType": "address",
							"name": "Cand",
							"type": "address"
						},
						{
							"internalType": "uint256",
							"name": "_id",
							"type": "uint256"
						},
						{
							"internalType": "uint256",
							"name": "nonce",
							"type": "uint256"
						},
						{
							"internalType": "uint256",
							"name": "time",
							"type": "uint256"
						}
					],
					"name": "metaVotingHash",
					"outputs": [
						{
							"internalType": "bytes32",
							"name": "",
							"type": "bytes32"
						}
					],
					"stateMutability": "view",
					"type": "function"
				},
				{
					"inputs": [
						{
							"internalType": "address",
							"name": "",
							"type": "address"
						}
					],
					"name": "replayNonce",
					"outputs": [
						{
							"internalType": "uint256",
							"name": "",
							"type": "uint256"
						}
					],
					"stateMutability": "view",
					"type": "function"
				},
				{
					"inputs": [
						{
							"internalType": "uint256",
							"name": "_id",
							"type": "uint256"
						}
					],
					"name": "revealWinner",
					"outputs": [
						{
							"internalType": "uint256[]",
							"name": "CV",
							"type": "uint256[]"
						},
						{
							"internalType": "address",
							"name": "",
							"type": "address"
						},
						{
							"internalType": "uint256",
							"name": "",
							"type": "uint256"
						}
					],
					"stateMutability": "view",
					"type": "function"
				},
				{
					"inputs": [
						{
							"internalType": "uint256",
							"name": "_id",
							"type": "uint256"
						}
					],
					"name": "setVotingState",
					"outputs": [],
					"stateMutability": "nonpayable",
					"type": "function"
				},
				{
					"inputs": [
						{
							"internalType": "address",
							"name": "Cand",
							"type": "address"
						},
						{
							"internalType": "uint256",
							"name": "_id",
							"type": "uint256"
						},
						{
							"internalType": "uint256",
							"name": "nonce",
							"type": "uint256"
						},
						{
							"internalType": "bytes",
							"name": "signature",
							"type": "bytes"
						}
					],
					"name": "vote",
					"outputs": [],
					"stateMutability": "nonpayable",
					"type": "function"
				},
				{
					"inputs": [
						{
							"internalType": "uint256",
							"name": "",
							"type": "uint256"
						}
					],
					"name": "votingPoll",
					"outputs": [
						{
							"internalType": "string",
							"name": "name",
							"type": "string"
						},
						{
							"internalType": "address",
							"name": "chairman",
							"type": "address"
						},
						{
							"internalType": "uint32",
							"name": "maxNoOfCandidates",
							"type": "uint32"
						},
						{
							"internalType": "uint32",
							"name": "currentNoOfCandidates",
							"type": "uint32"
						},
						{
							"internalType": "bool",
							"name": "voting",
							"type": "bool"
						}
					],
					"stateMutability": "view",
					"type": "function"
				}
			],
			"devdoc": {
				"kind": "dev",
				"methods": {},
				"version": 1
			},
			"evm": {
				"assembly": "    /* \"src/voting.sol\":63:5580  contract Voting{... */\n  mstore(0x40, 0x80)\n    /* \"src/voting.sol\":159:160  1 */\n  0x01\n    /* \"src/voting.sol\":149:160  uint id = 1 */\n  0x00\n  sstore\n    /* \"src/voting.sol\":63:5580  contract Voting{... */\n  callvalue\n  dup1\n  iszero\n  tag_1\n  jumpi\n  0x00\n  dup1\n  revert\ntag_1:\n  pop\n  dataSize(sub_0)\n  dup1\n  dataOffset(sub_0)\n  0x00\n  codecopy\n  0x00\n  return\nstop\n\nsub_0: assembly {\n        /* \"src/voting.sol\":63:5580  contract Voting{... */\n      mstore(0x40, 0x80)\n      callvalue\n      dup1\n      iszero\n      tag_1\n      jumpi\n      0x00\n      dup1\n      revert\n    tag_1:\n      pop\n      jumpi(tag_2, lt(calldatasize, 0x04))\n      shr(0xe0, calldataload(0x00))\n      dup1\n      0xae928e3e\n      gt\n      tag_16\n      jumpi\n      dup1\n      0xc57003cc\n      gt\n      tag_17\n      jumpi\n      dup1\n      0xc57003cc\n      eq\n      tag_12\n      jumpi\n      dup1\n      0xe615f104\n      eq\n      tag_13\n      jumpi\n      dup1\n      0xf762f4c0\n      eq\n      tag_14\n      jumpi\n      dup1\n      0xfa4c5173\n      eq\n      tag_15\n      jumpi\n      jump(tag_2)\n    tag_17:\n      dup1\n      0xae928e3e\n      eq\n      tag_9\n      jumpi\n      dup1\n      0xbfe2e25d\n      eq\n      tag_10\n      jumpi\n      dup1\n      0xc10d6cec\n      eq\n      tag_11\n      jumpi\n      jump(tag_2)\n    tag_16:\n      dup1\n      0x049d1c8b\n      eq\n      tag_3\n      jumpi\n      dup1\n      0x66c5343b\n      eq\n      tag_4\n      jumpi\n      dup1\n      0x67d407df\n      eq\n      tag_5\n      jumpi\n      dup1\n      0x8321f397\n      eq\n      tag_6\n      jumpi\n      dup1\n      0x8ac3c3c2\n      eq\n      tag_7\n      jumpi\n      dup1\n      0x8ccb59e8\n      eq\n      tag_8\n      jumpi\n    tag_2:\n      0x00\n      dup1\n      revert\n        /* \"src/voting.sol\":1950:2451  function AddCandidate(address _newCandidate, uint _id) external{... */\n    tag_3:\n      tag_18\n      0x04\n      dup1\n      calldatasize\n      sub\n      dup2\n      add\n      swap1\n      tag_19\n      swap2\n      swap1\n      tag_20\n      jump\t// in\n    tag_19:\n      tag_21\n      jump\t// in\n    tag_18:\n      stop\n        /* \"src/voting.sol\":3369:3527  function NoOfRegisteredCandidates( uint _id) public view returns(uint){... */\n    tag_4:\n      tag_22\n      0x04\n      dup1\n      calldatasize\n      sub\n      dup2\n      add\n      swap1\n      tag_23\n      swap2\n      swap1\n      tag_24\n      jump\t// in\n    tag_23:\n      tag_25\n      jump\t// in\n    tag_22:\n      mload(0x40)\n      tag_26\n      swap2\n      swap1\n      tag_27\n      jump\t// in\n    tag_26:\n      mload(0x40)\n      dup1\n      swap2\n      sub\n      swap1\n      return\n        /* \"src/voting.sol\":627:674  mapping (address => uint256) public replayNonce */\n    tag_5:\n      tag_28\n      0x04\n      dup1\n      calldatasize\n      sub\n      dup2\n      add\n      swap1\n      tag_29\n      swap2\n      swap1\n      tag_30\n      jump\t// in\n    tag_29:\n      tag_31\n      jump\t// in\n    tag_28:\n      mload(0x40)\n      tag_32\n      swap2\n      swap1\n      tag_27\n      jump\t// in\n    tag_32:\n      mload(0x40)\n      dup1\n      swap2\n      sub\n      swap1\n      return\n        /* \"src/voting.sol\":484:516  VotingPoll[] public VotingStruct */\n    tag_6:\n      tag_33\n      0x04\n      dup1\n      calldatasize\n      sub\n      dup2\n      add\n      swap1\n      tag_34\n      swap2\n      swap1\n      tag_24\n      jump\t// in\n    tag_34:\n      tag_35\n      jump\t// in\n    tag_33:\n      mload(0x40)\n      tag_36\n      swap6\n      swap5\n      swap4\n      swap3\n      swap2\n      swap1\n      tag_37\n      jump\t// in\n    tag_36:\n      mload(0x40)\n      dup1\n      swap2\n      sub\n      swap1\n      return\n        /* \"src/voting.sol\":3532:3692  function AllCandidates( uint _id) public view returns(address[] memory _candidates){... */\n    tag_7:\n      tag_38\n      0x04\n      dup1\n      calldatasize\n      sub\n      dup2\n      add\n      swap1\n      tag_39\n      swap2\n      swap1\n      tag_24\n      jump\t// in\n    tag_39:\n      tag_40\n      jump\t// in\n    tag_38:\n      mload(0x40)\n      tag_41\n      swap2\n      swap1\n      tag_42\n      jump\t// in\n    tag_41:\n      mload(0x40)\n      dup1\n      swap2\n      sub\n      swap1\n      return\n        /* \"src/voting.sol\":3695:4274  function revealWinner( uint _id) external view returns ( uint[] memory CV, address, uint){... */\n    tag_8:\n      tag_43\n      0x04\n      dup1\n      calldatasize\n      sub\n      dup2\n      add\n      swap1\n      tag_44\n      swap2\n      swap1\n      tag_24\n      jump\t// in\n    tag_44:\n      tag_45\n      jump\t// in\n    tag_43:\n      mload(0x40)\n      tag_46\n      swap4\n      swap3\n      swap2\n      swap1\n      tag_47\n      jump\t// in\n    tag_46:\n      mload(0x40)\n      dup1\n      swap2\n      sub\n      swap1\n      return\n        /* \"src/voting.sol\":459:482  uint[] public VotingKey */\n    tag_9:\n      tag_48\n      0x04\n      dup1\n      calldatasize\n      sub\n      dup2\n      add\n      swap1\n      tag_49\n      swap2\n      swap1\n      tag_24\n      jump\t// in\n    tag_49:\n      tag_50\n      jump\t// in\n    tag_48:\n      mload(0x40)\n      tag_51\n      swap2\n      swap1\n      tag_27\n      jump\t// in\n    tag_51:\n      mload(0x40)\n      dup1\n      swap2\n      sub\n      swap1\n      return\n        /* \"src/voting.sol\":4775:4990  function metaVotingHash(address Cand, uint _id, uint256 nonce, uint256 time) public view returns(bytes32){... */\n    tag_10:\n      tag_52\n      0x04\n      dup1\n      calldatasize\n      sub\n      dup2\n      add\n      swap1\n      tag_53\n      swap2\n      swap1\n      tag_54\n      jump\t// in\n    tag_53:\n      tag_55\n      jump\t// in\n    tag_52:\n      mload(0x40)\n      tag_56\n      swap2\n      swap1\n      tag_57\n      jump\t// in\n    tag_56:\n      mload(0x40)\n      dup1\n      swap2\n      sub\n      swap1\n      return\n        /* \"src/voting.sol\":2454:2945  function vote(address Cand, uint _id, uint256 nonce, bytes memory signature) external  isCandidate(Cand, _id) StillVoting(_id){... */\n    tag_11:\n      tag_58\n      0x04\n      dup1\n      calldatasize\n      sub\n      dup2\n      add\n      swap1\n      tag_59\n      swap2\n      swap1\n      tag_60\n      jump\t// in\n    tag_59:\n      tag_61\n      jump\t// in\n    tag_58:\n      stop\n        /* \"src/voting.sol\":3144:3366  function setVotingState( uint _id) external {... */\n    tag_12:\n      tag_62\n      0x04\n      dup1\n      calldatasize\n      sub\n      dup2\n      add\n      swap1\n      tag_63\n      swap2\n      swap1\n      tag_24\n      jump\t// in\n    tag_63:\n      tag_64\n      jump\t// in\n    tag_62:\n      stop\n        /* \"src/voting.sol\":580:625  mapping(uint => VotingPoll) public votingPoll */\n    tag_13:\n      tag_65\n      0x04\n      dup1\n      calldatasize\n      sub\n      dup2\n      add\n      swap1\n      tag_66\n      swap2\n      swap1\n      tag_24\n      jump\t// in\n    tag_66:\n      tag_67\n      jump\t// in\n    tag_65:\n      mload(0x40)\n      tag_68\n      swap6\n      swap5\n      swap4\n      swap3\n      swap2\n      swap1\n      tag_37\n      jump\t// in\n    tag_68:\n      mload(0x40)\n      dup1\n      swap2\n      sub\n      swap1\n      return\n        /* \"src/voting.sol\":1627:1946  function createPoll(string memory _name, uint32 ExpectedNoOfCandidate) external {... */\n    tag_14:\n      tag_69\n      0x04\n      dup1\n      calldatasize\n      sub\n      dup2\n      add\n      swap1\n      tag_70\n      swap2\n      swap1\n      tag_71\n      jump\t// in\n    tag_70:\n      tag_72\n      jump\t// in\n    tag_69:\n      stop\n        /* \"src/voting.sol\":4568:4770  function arrayOfStruct() external returns(VotingPoll[] memory VP){... */\n    tag_15:\n      tag_73\n      tag_74\n      jump\t// in\n    tag_73:\n      mload(0x40)\n      tag_75\n      swap2\n      swap1\n      tag_76\n      jump\t// in\n    tag_75:\n      mload(0x40)\n      dup1\n      swap2\n      sub\n      swap1\n      return\n        /* \"src/voting.sol\":1950:2451  function AddCandidate(address _newCandidate, uint _id) external{... */\n    tag_21:\n        /* \"src/voting.sol\":2020:2041  VotingPoll storage VP */\n      0x00\n        /* \"src/voting.sol\":2044:2054  votingPoll */\n      0x03\n        /* \"src/voting.sol\":2044:2059  votingPoll[_id] */\n      0x00\n        /* \"src/voting.sol\":2055:2058  _id */\n      dup4\n        /* \"src/voting.sol\":2044:2059  votingPoll[_id] */\n      dup2\n      mstore\n      0x20\n      add\n      swap1\n      dup2\n      mstore\n      0x20\n      add\n      0x00\n      keccak256\n        /* \"src/voting.sol\":2020:2059  VotingPoll storage VP = votingPoll[_id] */\n      swap1\n      pop\n        /* \"src/voting.sol\":2098:2099  0 */\n      0x00\n        /* \"src/voting.sol\":2075:2100  VP.chairman != address(0) */\n      0xffffffffffffffffffffffffffffffffffffffff\n      and\n        /* \"src/voting.sol\":2075:2077  VP */\n      dup2\n        /* \"src/voting.sol\":2075:2086  VP.chairman */\n      0x01\n      add\n      0x00\n      swap1\n      sload\n      swap1\n      0x0100\n      exp\n      swap1\n      div\n      0xffffffffffffffffffffffffffffffffffffffff\n      and\n        /* \"src/voting.sol\":2075:2100  VP.chairman != address(0) */\n      0xffffffffffffffffffffffffffffffffffffffff\n      and\n      eq\n      iszero\n        /* \"src/voting.sol\":2066:2126  require (VP.chairman != address(0) , \"yet to create a poll\") */\n      tag_78\n      jumpi\n      mload(0x40)\n      0x08c379a000000000000000000000000000000000000000000000000000000000\n      dup2\n      mstore\n      0x04\n      add\n      tag_79\n      swap1\n      tag_80\n      jump\t// in\n    tag_79:\n      mload(0x40)\n      dup1\n      swap2\n      sub\n      swap1\n      revert\n    tag_78:\n        /* \"src/voting.sol\":2157:2167  msg.sender */\n      caller\n        /* \"src/voting.sol\":2142:2167  VP.chairman == msg.sender */\n      0xffffffffffffffffffffffffffffffffffffffff\n      and\n        /* \"src/voting.sol\":2142:2144  VP */\n      dup2\n        /* \"src/voting.sol\":2142:2153  VP.chairman */\n      0x01\n      add\n      0x00\n      swap1\n      sload\n      swap1\n      0x0100\n      exp\n      swap1\n      div\n      0xffffffffffffffffffffffffffffffffffffffff\n      and\n        /* \"src/voting.sol\":2142:2167  VP.chairman == msg.sender */\n      0xffffffffffffffffffffffffffffffffffffffff\n      and\n      eq\n        /* \"src/voting.sol\":2135:2168  assert(VP.chairman == msg.sender) */\n      tag_81\n      jumpi\n      tag_82\n      tag_83\n      jump\t// in\n    tag_82:\n    tag_81:\n        /* \"src/voting.sol\":2210:2212  VP */\n      dup1\n        /* \"src/voting.sol\":2210:2230  VP.maxNoOfCandidates */\n      0x03\n      add\n      0x00\n      swap1\n      sload\n      swap1\n      0x0100\n      exp\n      swap1\n      div\n      0xffffffff\n      and\n        /* \"src/voting.sol\":2183:2230  VP.currentNoOfCandidates < VP.maxNoOfCandidates */\n      0xffffffff\n      and\n        /* \"src/voting.sol\":2183:2185  VP */\n      dup2\n        /* \"src/voting.sol\":2183:2207  VP.currentNoOfCandidates */\n      0x03\n      add\n      0x04\n      swap1\n      sload\n      swap1\n      0x0100\n      exp\n      swap1\n      div\n      0xffffffff\n      and\n        /* \"src/voting.sol\":2183:2230  VP.currentNoOfCandidates < VP.maxNoOfCandidates */\n      0xffffffff\n      and\n      lt\n        /* \"src/voting.sol\":2175:2281  require(VP.currentNoOfCandidates < VP.maxNoOfCandidates, \"maximum no of candidate per session registered\") */\n      tag_84\n      jumpi\n      mload(0x40)\n      0x08c379a000000000000000000000000000000000000000000000000000000000\n      dup2\n      mstore\n      0x04\n      add\n      tag_85\n      swap1\n      tag_86\n      jump\t// in\n    tag_85:\n      mload(0x40)\n      dup1\n      swap2\n      sub\n      swap1\n      revert\n    tag_84:\n        /* \"src/voting.sol\":2326:2330  true */\n      0x01\n        /* \"src/voting.sol\":2288:2303  CandidateStatus */\n      0x05\n        /* \"src/voting.sol\":2288:2308  CandidateStatus[_id] */\n      0x00\n        /* \"src/voting.sol\":2304:2307  _id */\n      dup5\n        /* \"src/voting.sol\":2288:2308  CandidateStatus[_id] */\n      dup2\n      mstore\n      0x20\n      add\n      swap1\n      dup2\n      mstore\n      0x20\n      add\n      0x00\n      keccak256\n        /* \"src/voting.sol\":2288:2323  CandidateStatus[_id][_newCandidate] */\n      0x00\n        /* \"src/voting.sol\":2309:2322  _newCandidate */\n      dup6\n        /* \"src/voting.sol\":2288:2323  CandidateStatus[_id][_newCandidate] */\n      0xffffffffffffffffffffffffffffffffffffffff\n      and\n      0xffffffffffffffffffffffffffffffffffffffff\n      and\n      dup2\n      mstore\n      0x20\n      add\n      swap1\n      dup2\n      mstore\n      0x20\n      add\n      0x00\n      keccak256\n      0x00\n        /* \"src/voting.sol\":2288:2330  CandidateStatus[_id][_newCandidate] = true */\n      0x0100\n      exp\n      dup2\n      sload\n      dup2\n      0xff\n      mul\n      not\n      and\n      swap1\n      dup4\n      iszero\n      iszero\n      mul\n      or\n      swap1\n      sstore\n      pop\n        /* \"src/voting.sol\":2338:2340  VP */\n      dup1\n        /* \"src/voting.sol\":2338:2351  VP.candidates */\n      0x02\n      add\n        /* \"src/voting.sol\":2357:2370  _newCandidate */\n      dup4\n        /* \"src/voting.sol\":2338:2371  VP.candidates.push(_newCandidate) */\n      swap1\n      dup1\n      0x01\n      dup2\n      sload\n      add\n      dup1\n      dup3\n      sstore\n      dup1\n      swap2\n      pop\n      pop\n      0x01\n      swap1\n      sub\n      swap1\n      0x00\n      mstore\n      keccak256(0x00, 0x20)\n      add\n      0x00\n      swap1\n      swap2\n      swap1\n      swap2\n      swap1\n      swap2\n      0x0100\n      exp\n      dup2\n      sload\n      dup2\n      0xffffffffffffffffffffffffffffffffffffffff\n      mul\n      not\n      and\n      swap1\n      dup4\n      0xffffffffffffffffffffffffffffffffffffffff\n      and\n      mul\n      or\n      swap1\n      sstore\n      pop\n        /* \"src/voting.sol\":2379:2381  VP */\n      dup1\n        /* \"src/voting.sol\":2379:2403  VP.currentNoOfCandidates */\n      0x03\n      add\n      0x04\n        /* \"src/voting.sol\":2379:2405  VP.currentNoOfCandidates++ */\n      dup2\n      dup2\n      swap1\n      sload\n      swap1\n      0x0100\n      exp\n      swap1\n      div\n      0xffffffff\n      and\n      dup1\n      swap3\n      swap2\n      swap1\n      tag_88\n      swap1\n      tag_89\n      jump\t// in\n    tag_88:\n      swap2\n      swap1\n      0x0100\n      exp\n      dup2\n      sload\n      dup2\n      0xffffffff\n      mul\n      not\n      and\n      swap1\n      dup4\n      0xffffffff\n      and\n      mul\n      or\n      swap1\n      sstore\n      pop\n      pop\n        /* \"src/voting.sol\":2417:2447  becameCandidate(_newCandidate) */\n      0xc19c59aa93348e8fc54764bc642eca975e2639f44cc683ef8f027e1529cbda32\n        /* \"src/voting.sol\":2433:2446  _newCandidate */\n      dup4\n        /* \"src/voting.sol\":2417:2447  becameCandidate(_newCandidate) */\n      mload(0x40)\n      tag_90\n      swap2\n      swap1\n      tag_91\n      jump\t// in\n    tag_90:\n      mload(0x40)\n      dup1\n      swap2\n      sub\n      swap1\n      log1\n        /* \"src/voting.sol\":2013:2451  {... */\n      pop\n        /* \"src/voting.sol\":1950:2451  function AddCandidate(address _newCandidate, uint _id) external{... */\n      pop\n      pop\n      jump\t// out\n        /* \"src/voting.sol\":3369:3527  function NoOfRegisteredCandidates( uint _id) public view returns(uint){... */\n    tag_25:\n        /* \"src/voting.sol\":3434:3438  uint */\n      0x00\n        /* \"src/voting.sol\":3446:3467  VotingPoll storage VP */\n      dup1\n        /* \"src/voting.sol\":3470:3480  votingPoll */\n      0x03\n        /* \"src/voting.sol\":3470:3485  votingPoll[_id] */\n      0x00\n        /* \"src/voting.sol\":3481:3484  _id */\n      dup5\n        /* \"src/voting.sol\":3470:3485  votingPoll[_id] */\n      dup2\n      mstore\n      0x20\n      add\n      swap1\n      dup2\n      mstore\n      0x20\n      add\n      0x00\n      keccak256\n        /* \"src/voting.sol\":3446:3485  VotingPoll storage VP = votingPoll[_id] */\n      swap1\n      pop\n        /* \"src/voting.sol\":3499:3501  VP */\n      dup1\n        /* \"src/voting.sol\":3499:3523  VP.currentNoOfCandidates */\n      0x03\n      add\n      0x04\n      swap1\n      sload\n      swap1\n      0x0100\n      exp\n      swap1\n      div\n      0xffffffff\n      and\n        /* \"src/voting.sol\":3492:3523  return VP.currentNoOfCandidates */\n      0xffffffff\n      and\n      swap2\n      pop\n      pop\n        /* \"src/voting.sol\":3369:3527  function NoOfRegisteredCandidates( uint _id) public view returns(uint){... */\n      swap2\n      swap1\n      pop\n      jump\t// out\n        /* \"src/voting.sol\":627:674  mapping (address => uint256) public replayNonce */\n    tag_31:\n      mstore(0x20, 0x04)\n      dup1\n      0x00\n      mstore\n      keccak256(0x00, 0x40)\n      0x00\n      swap2\n      pop\n      swap1\n      pop\n      sload\n      dup2\n      jump\t// out\n        /* \"src/voting.sol\":484:516  VotingPoll[] public VotingStruct */\n    tag_35:\n      0x02\n      dup2\n      dup2\n      sload\n      dup2\n      lt\n      tag_93\n      jumpi\n      0x00\n      dup1\n      revert\n    tag_93:\n      swap1\n      0x00\n      mstore\n      keccak256(0x00, 0x20)\n      swap1\n      0x04\n      mul\n      add\n      0x00\n      swap2\n      pop\n      swap1\n      pop\n      dup1\n      0x00\n      add\n      dup1\n      sload\n      tag_95\n      swap1\n      tag_96\n      jump\t// in\n    tag_95:\n      dup1\n      0x1f\n      add\n      0x20\n      dup1\n      swap2\n      div\n      mul\n      0x20\n      add\n      mload(0x40)\n      swap1\n      dup2\n      add\n      0x40\n      mstore\n      dup1\n      swap3\n      swap2\n      swap1\n      dup2\n      dup2\n      mstore\n      0x20\n      add\n      dup3\n      dup1\n      sload\n      tag_97\n      swap1\n      tag_96\n      jump\t// in\n    tag_97:\n      dup1\n      iszero\n      tag_98\n      jumpi\n      dup1\n      0x1f\n      lt\n      tag_99\n      jumpi\n      0x0100\n      dup1\n      dup4\n      sload\n      div\n      mul\n      dup4\n      mstore\n      swap2\n      0x20\n      add\n      swap2\n      jump(tag_98)\n    tag_99:\n      dup3\n      add\n      swap2\n      swap1\n      0x00\n      mstore\n      keccak256(0x00, 0x20)\n      swap1\n    tag_100:\n      dup2\n      sload\n      dup2\n      mstore\n      swap1\n      0x01\n      add\n      swap1\n      0x20\n      add\n      dup1\n      dup4\n      gt\n      tag_100\n      jumpi\n      dup3\n      swap1\n      sub\n      0x1f\n      and\n      dup3\n      add\n      swap2\n    tag_98:\n      pop\n      pop\n      pop\n      pop\n      pop\n      swap1\n      dup1\n      0x01\n      add\n      0x00\n      swap1\n      sload\n      swap1\n      0x0100\n      exp\n      swap1\n      div\n      0xffffffffffffffffffffffffffffffffffffffff\n      and\n      swap1\n      dup1\n      0x03\n      add\n      0x00\n      swap1\n      sload\n      swap1\n      0x0100\n      exp\n      swap1\n      div\n      0xffffffff\n      and\n      swap1\n      dup1\n      0x03\n      add\n      0x04\n      swap1\n      sload\n      swap1\n      0x0100\n      exp\n      swap1\n      div\n      0xffffffff\n      and\n      swap1\n      dup1\n      0x03\n      add\n      0x08\n      swap1\n      sload\n      swap1\n      0x0100\n      exp\n      swap1\n      div\n      0xff\n      and\n      swap1\n      pop\n      dup6\n      jump\t// out\n        /* \"src/voting.sol\":3532:3692  function AllCandidates( uint _id) public view returns(address[] memory _candidates){... */\n    tag_40:\n        /* \"src/voting.sol\":3586:3614  address[] memory _candidates */\n      0x60\n        /* \"src/voting.sol\":3622:3643  VotingPoll storage VP */\n      0x00\n        /* \"src/voting.sol\":3646:3656  votingPoll */\n      0x03\n        /* \"src/voting.sol\":3646:3661  votingPoll[_id] */\n      0x00\n        /* \"src/voting.sol\":3657:3660  _id */\n      dup5\n        /* \"src/voting.sol\":3646:3661  votingPoll[_id] */\n      dup2\n      mstore\n      0x20\n      add\n      swap1\n      dup2\n      mstore\n      0x20\n      add\n      0x00\n      keccak256\n        /* \"src/voting.sol\":3622:3661  VotingPoll storage VP = votingPoll[_id] */\n      swap1\n      pop\n        /* \"src/voting.sol\":3675:3677  VP */\n      dup1\n        /* \"src/voting.sol\":3675:3688  VP.candidates */\n      0x02\n      add\n        /* \"src/voting.sol\":3668:3688  return VP.candidates */\n      dup1\n      sload\n      dup1\n      0x20\n      mul\n      0x20\n      add\n      mload(0x40)\n      swap1\n      dup2\n      add\n      0x40\n      mstore\n      dup1\n      swap3\n      swap2\n      swap1\n      dup2\n      dup2\n      mstore\n      0x20\n      add\n      dup3\n      dup1\n      sload\n      dup1\n      iszero\n      tag_102\n      jumpi\n      0x20\n      mul\n      dup3\n      add\n      swap2\n      swap1\n      0x00\n      mstore\n      keccak256(0x00, 0x20)\n      swap1\n    tag_103:\n      dup2\n      0x00\n      swap1\n      sload\n      swap1\n      0x0100\n      exp\n      swap1\n      div\n      0xffffffffffffffffffffffffffffffffffffffff\n      and\n      0xffffffffffffffffffffffffffffffffffffffff\n      and\n      dup2\n      mstore\n      0x20\n      add\n      swap1\n      0x01\n      add\n      swap1\n      dup1\n      dup4\n      gt\n      tag_103\n      jumpi\n    tag_102:\n      pop\n      pop\n      pop\n      pop\n      pop\n      swap2\n      pop\n      pop\n        /* \"src/voting.sol\":3532:3692  function AllCandidates( uint _id) public view returns(address[] memory _candidates){... */\n      swap2\n      swap1\n      pop\n      jump\t// out\n        /* \"src/voting.sol\":3695:4274  function revealWinner( uint _id) external view returns ( uint[] memory CV, address, uint){... */\n    tag_45:\n        /* \"src/voting.sol\":3752:3768  uint[] memory CV */\n      0x60\n        /* \"src/voting.sol\":3770:3777  address */\n      0x00\n        /* \"src/voting.sol\":3779:3783  uint */\n      dup1\n        /* \"src/voting.sol\":3791:3812  VotingPoll storage VP */\n      0x00\n        /* \"src/voting.sol\":3815:3825  votingPoll */\n      0x03\n        /* \"src/voting.sol\":3815:3830  votingPoll[_id] */\n      0x00\n        /* \"src/voting.sol\":3826:3829  _id */\n      dup7\n        /* \"src/voting.sol\":3815:3830  votingPoll[_id] */\n      dup2\n      mstore\n      0x20\n      add\n      swap1\n      dup2\n      mstore\n      0x20\n      add\n      0x00\n      keccak256\n        /* \"src/voting.sol\":3791:3830  VotingPoll storage VP = votingPoll[_id] */\n      swap1\n      pop\n        /* \"src/voting.sol\":3868:3869  0 */\n      0x00\n        /* \"src/voting.sol\":3845:3870  VP.chairman != address(0) */\n      0xffffffffffffffffffffffffffffffffffffffff\n      and\n        /* \"src/voting.sol\":3845:3847  VP */\n      dup2\n        /* \"src/voting.sol\":3845:3856  VP.chairman */\n      0x01\n      add\n      0x00\n      swap1\n      sload\n      swap1\n      0x0100\n      exp\n      swap1\n      div\n      0xffffffffffffffffffffffffffffffffffffffff\n      and\n        /* \"src/voting.sol\":3845:3870  VP.chairman != address(0) */\n      0xffffffffffffffffffffffffffffffffffffffff\n      and\n      eq\n      iszero\n        /* \"src/voting.sol\":3837:3890  require(VP.chairman != address(0), \"No poll created\") */\n      tag_105\n      jumpi\n      mload(0x40)\n      0x08c379a000000000000000000000000000000000000000000000000000000000\n      dup2\n      mstore\n      0x04\n      add\n      tag_106\n      swap1\n      tag_107\n      jump\t// in\n    tag_106:\n      mload(0x40)\n      dup1\n      swap2\n      sub\n      swap1\n      revert\n    tag_105:\n        /* \"src/voting.sol\":3913:3915  VP */\n      dup1\n        /* \"src/voting.sol\":3913:3926  VP.candidates */\n      0x02\n      add\n        /* \"src/voting.sol\":3913:3933  VP.candidates.length */\n      dup1\n      sload\n      swap1\n      pop\n        /* \"src/voting.sol\":3902:3934  new uint[](VP.candidates.length) */\n      0xffffffffffffffff\n      dup2\n      gt\n      iszero\n      tag_108\n      jumpi\n      tag_109\n      tag_110\n      jump\t// in\n    tag_109:\n    tag_108:\n      mload(0x40)\n      swap1\n      dup1\n      dup3\n      mstore\n      dup1\n      0x20\n      mul\n      0x20\n      add\n      dup3\n      add\n      0x40\n      mstore\n      dup1\n      iszero\n      tag_111\n      jumpi\n      dup2\n      0x20\n      add\n      0x20\n      dup3\n      mul\n      dup1\n      calldatasize\n      dup4\n      calldatacopy\n      dup1\n      dup3\n      add\n      swap2\n      pop\n      pop\n      swap1\n      pop\n    tag_111:\n      pop\n        /* \"src/voting.sol\":3897:3934  CV = new uint[](VP.candidates.length) */\n      swap4\n      pop\n        /* \"src/voting.sol\":3941:3957  uint highestVote */\n      0x00\n        /* \"src/voting.sol\":3964:3978  address winner */\n      dup1\n        /* \"src/voting.sol\":3990:3996  uint i */\n      0x00\n        /* \"src/voting.sol\":3985:4232  for (uint i = 0; i < VP.candidates.length; i++){... */\n    tag_112:\n        /* \"src/voting.sol\":4006:4008  VP */\n      dup4\n        /* \"src/voting.sol\":4006:4019  VP.candidates */\n      0x02\n      add\n        /* \"src/voting.sol\":4006:4026  VP.candidates.length */\n      dup1\n      sload\n      swap1\n      pop\n        /* \"src/voting.sol\":4002:4003  i */\n      dup2\n        /* \"src/voting.sol\":4002:4026  i < VP.candidates.length */\n      lt\n        /* \"src/voting.sol\":3985:4232  for (uint i = 0; i < VP.candidates.length; i++){... */\n      iszero\n      tag_113\n      jumpi\n        /* \"src/voting.sol\":4041:4049  uint val */\n      0x00\n        /* \"src/voting.sol\":4052:4070  getPosition(_id,i) */\n      tag_115\n        /* \"src/voting.sol\":4064:4067  _id */\n      dup10\n        /* \"src/voting.sol\":4068:4069  i */\n      dup4\n        /* \"src/voting.sol\":4052:4063  getPosition */\n      tag_116\n        /* \"src/voting.sol\":4052:4070  getPosition(_id,i) */\n      jump\t// in\n    tag_115:\n        /* \"src/voting.sol\":4041:4070  uint val = getPosition(_id,i) */\n      swap1\n      pop\n        /* \"src/voting.sol\":4086:4097  highestVote */\n      dup4\n        /* \"src/voting.sol\":4080:4083  val */\n      dup2\n        /* \"src/voting.sol\":4080:4097  val > highestVote */\n      gt\n        /* \"src/voting.sol\":4077:4171  if(val > highestVote){... */\n      iszero\n      tag_117\n      jumpi\n        /* \"src/voting.sol\":4123:4126  val */\n      dup1\n        /* \"src/voting.sol\":4109:4126  highestVote = val */\n      swap4\n      pop\n        /* \"src/voting.sol\":4147:4149  VP */\n      dup5\n        /* \"src/voting.sol\":4147:4160  VP.candidates */\n      0x02\n      add\n        /* \"src/voting.sol\":4161:4162  i */\n      dup3\n        /* \"src/voting.sol\":4147:4163  VP.candidates[i] */\n      dup2\n      sload\n      dup2\n      lt\n      tag_118\n      jumpi\n      tag_119\n      tag_120\n      jump\t// in\n    tag_119:\n    tag_118:\n      swap1\n      0x00\n      mstore\n      keccak256(0x00, 0x20)\n      add\n      0x00\n      swap1\n      sload\n      swap1\n      0x0100\n      exp\n      swap1\n      div\n      0xffffffffffffffffffffffffffffffffffffffff\n      and\n        /* \"src/voting.sol\":4138:4163  winner = VP.candidates[i] */\n      swap3\n      pop\n        /* \"src/voting.sol\":4077:4171  if(val > highestVote){... */\n    tag_117:\n        /* \"src/voting.sol\":4186:4199  CandidateVote */\n      0x06\n        /* \"src/voting.sol\":4186:4204  CandidateVote[_id] */\n      0x00\n        /* \"src/voting.sol\":4200:4203  _id */\n      dup11\n        /* \"src/voting.sol\":4186:4204  CandidateVote[_id] */\n      dup2\n      mstore\n      0x20\n      add\n      swap1\n      dup2\n      mstore\n      0x20\n      add\n      0x00\n      keccak256\n        /* \"src/voting.sol\":4186:4222  CandidateVote[_id][VP.candidates[i]] */\n      0x00\n        /* \"src/voting.sol\":4205:4207  VP */\n      dup7\n        /* \"src/voting.sol\":4205:4218  VP.candidates */\n      0x02\n      add\n        /* \"src/voting.sol\":4219:4220  i */\n      dup5\n        /* \"src/voting.sol\":4205:4221  VP.candidates[i] */\n      dup2\n      sload\n      dup2\n      lt\n      tag_122\n      jumpi\n      tag_123\n      tag_120\n      jump\t// in\n    tag_123:\n    tag_122:\n      swap1\n      0x00\n      mstore\n      keccak256(0x00, 0x20)\n      add\n      0x00\n      swap1\n      sload\n      swap1\n      0x0100\n      exp\n      swap1\n      div\n      0xffffffffffffffffffffffffffffffffffffffff\n      and\n        /* \"src/voting.sol\":4186:4222  CandidateVote[_id][VP.candidates[i]] */\n      0xffffffffffffffffffffffffffffffffffffffff\n      and\n      0xffffffffffffffffffffffffffffffffffffffff\n      and\n      dup2\n      mstore\n      0x20\n      add\n      swap1\n      dup2\n      mstore\n      0x20\n      add\n      0x00\n      keccak256\n      sload\n        /* \"src/voting.sol\":4177:4179  CV */\n      dup9\n        /* \"src/voting.sol\":4180:4181  i */\n      dup4\n        /* \"src/voting.sol\":4177:4182  CV[i] */\n      dup2\n      mload\n      dup2\n      lt\n      tag_125\n      jumpi\n      tag_126\n      tag_120\n      jump\t// in\n    tag_126:\n    tag_125:\n      0x20\n      mul\n      0x20\n      add\n      add\n        /* \"src/voting.sol\":4177:4223  CV[i] = (CandidateVote[_id][VP.candidates[i]]) */\n      dup2\n      dup2\n      mstore\n      pop\n      pop\n        /* \"src/voting.sol\":4032:4232  {... */\n      pop\n        /* \"src/voting.sol\":4028:4031  i++ */\n      dup1\n      dup1\n      tag_127\n      swap1\n      tag_128\n      jump\t// in\n    tag_127:\n      swap2\n      pop\n      pop\n        /* \"src/voting.sol\":3985:4232  for (uint i = 0; i < VP.candidates.length; i++){... */\n      jump(tag_112)\n    tag_113:\n      pop\n        /* \"src/voting.sol\":4246:4248  CV */\n      dup6\n        /* \"src/voting.sol\":4250:4256  winner */\n      dup2\n        /* \"src/voting.sol\":4258:4269  highestVote */\n      dup4\n        /* \"src/voting.sol\":4238:4270  return (CV, winner, highestVote) */\n      swap6\n      pop\n      swap6\n      pop\n      swap6\n      pop\n      pop\n      pop\n      pop\n        /* \"src/voting.sol\":3695:4274  function revealWinner( uint _id) external view returns ( uint[] memory CV, address, uint){... */\n      swap2\n      swap4\n      swap1\n      swap3\n      pop\n      jump\t// out\n        /* \"src/voting.sol\":459:482  uint[] public VotingKey */\n    tag_50:\n      0x01\n      dup2\n      dup2\n      sload\n      dup2\n      lt\n      tag_129\n      jumpi\n      0x00\n      dup1\n      revert\n    tag_129:\n      swap1\n      0x00\n      mstore\n      keccak256(0x00, 0x20)\n      add\n      0x00\n      swap2\n      pop\n      swap1\n      pop\n      sload\n      dup2\n      jump\t// out\n        /* \"src/voting.sol\":4775:4990  function metaVotingHash(address Cand, uint _id, uint256 nonce, uint256 time) public view returns(bytes32){... */\n    tag_55:\n        /* \"src/voting.sol\":4872:4879  bytes32 */\n      0x00\n        /* \"src/voting.sol\":4928:4932  this */\n      address\n        /* \"src/voting.sol\":4961:4965  Cand */\n      dup6\n        /* \"src/voting.sol\":4967:4970  _id */\n      dup6\n        /* \"src/voting.sol\":4972:4977  nonce */\n      dup6\n        /* \"src/voting.sol\":4979:4983  time */\n      dup6\n        /* \"src/voting.sol\":4903:4984  abi.encodePacked(address(this),\"metatransaction Voting \", Cand, _id, nonce, time) */\n      add(0x20, mload(0x40))\n      tag_132\n      swap6\n      swap5\n      swap4\n      swap3\n      swap2\n      swap1\n      tag_133\n      jump\t// in\n    tag_132:\n      mload(0x40)\n      0x20\n      dup2\n      dup4\n      sub\n      sub\n      dup2\n      mstore\n      swap1\n      0x40\n      mstore\n        /* \"src/voting.sol\":4893:4985  keccak256(abi.encodePacked(address(this),\"metatransaction Voting \", Cand, _id, nonce, time)) */\n      dup1\n      mload\n      swap1\n      0x20\n      add\n      keccak256\n        /* \"src/voting.sol\":4886:4985  return keccak256(abi.encodePacked(address(this),\"metatransaction Voting \", Cand, _id, nonce, time)) */\n      swap1\n      pop\n        /* \"src/voting.sol\":4775:4990  function metaVotingHash(address Cand, uint _id, uint256 nonce, uint256 time) public view returns(bytes32){... */\n      swap5\n      swap4\n      pop\n      pop\n      pop\n      pop\n      jump\t// out\n        /* \"src/voting.sol\":2454:2945  function vote(address Cand, uint _id, uint256 nonce, bytes memory signature) external  isCandidate(Cand, _id) StillVoting(_id){... */\n    tag_61:\n        /* \"src/voting.sol\":2553:2557  Cand */\n      dup4\n        /* \"src/voting.sol\":2559:2562  _id */\n      dup4\n        /* \"src/voting.sol\":1289:1293  true */\n      0x01\n        /* \"src/voting.sol\":1261:1293  CandidateStatus[_id][Cand]==true */\n      iszero\n      iszero\n        /* \"src/voting.sol\":1261:1276  CandidateStatus */\n      0x05\n        /* \"src/voting.sol\":1261:1281  CandidateStatus[_id] */\n      0x00\n        /* \"src/voting.sol\":1277:1280  _id */\n      dup4\n        /* \"src/voting.sol\":1261:1281  CandidateStatus[_id] */\n      dup2\n      mstore\n      0x20\n      add\n      swap1\n      dup2\n      mstore\n      0x20\n      add\n      0x00\n      keccak256\n        /* \"src/voting.sol\":1261:1287  CandidateStatus[_id][Cand] */\n      0x00\n        /* \"src/voting.sol\":1282:1286  Cand */\n      dup5\n        /* \"src/voting.sol\":1261:1287  CandidateStatus[_id][Cand] */\n      0xffffffffffffffffffffffffffffffffffffffff\n      and\n      0xffffffffffffffffffffffffffffffffffffffff\n      and\n      dup2\n      mstore\n      0x20\n      add\n      swap1\n      dup2\n      mstore\n      0x20\n      add\n      0x00\n      keccak256\n      0x00\n      swap1\n      sload\n      swap1\n      0x0100\n      exp\n      swap1\n      div\n      0xff\n      and\n        /* \"src/voting.sol\":1261:1293  CandidateStatus[_id][Cand]==true */\n      iszero\n      iszero\n      eq\n        /* \"src/voting.sol\":1253:1339  require(CandidateStatus[_id][Cand]==true,'This address does not exist as a candidate') */\n      tag_135\n      jumpi\n      mload(0x40)\n      0x08c379a000000000000000000000000000000000000000000000000000000000\n      dup2\n      mstore\n      0x04\n      add\n      tag_136\n      swap1\n      tag_137\n      jump\t// in\n    tag_136:\n      mload(0x40)\n      dup1\n      swap2\n      sub\n      swap1\n      revert\n    tag_135:\n        /* \"src/voting.sol\":2576:2579  _id */\n      dup5\n        /* \"src/voting.sol\":1389:1410  VotingPoll storage VP */\n      0x00\n        /* \"src/voting.sol\":1413:1423  votingPoll */\n      0x03\n        /* \"src/voting.sol\":1413:1428  votingPoll[_id] */\n      0x00\n        /* \"src/voting.sol\":1424:1427  _id */\n      dup4\n        /* \"src/voting.sol\":1413:1428  votingPoll[_id] */\n      dup2\n      mstore\n      0x20\n      add\n      swap1\n      dup2\n      mstore\n      0x20\n      add\n      0x00\n      keccak256\n        /* \"src/voting.sol\":1389:1428  VotingPoll storage VP = votingPoll[_id] */\n      swap1\n      pop\n        /* \"src/voting.sol\":1455:1459  true */\n      0x01\n        /* \"src/voting.sol\":1442:1459  VP.voting == true */\n      iszero\n      iszero\n        /* \"src/voting.sol\":1442:1444  VP */\n      dup2\n        /* \"src/voting.sol\":1442:1451  VP.voting */\n      0x03\n      add\n      0x08\n      swap1\n      sload\n      swap1\n      0x0100\n      exp\n      swap1\n      div\n      0xff\n      and\n        /* \"src/voting.sol\":1442:1459  VP.voting == true */\n      iszero\n      iszero\n      eq\n        /* \"src/voting.sol\":1434:1480  require(VP.voting == true, \"voting has ended\") */\n      tag_139\n      jumpi\n      mload(0x40)\n      0x08c379a000000000000000000000000000000000000000000000000000000000\n      dup2\n      mstore\n      0x04\n      add\n      tag_140\n      swap1\n      tag_141\n      jump\t// in\n    tag_140:\n      mload(0x40)\n      dup1\n      swap2\n      sub\n      swap1\n      revert\n    tag_139:\n        /* \"src/voting.sol\":2587:2603  bytes32 metaHash */\n      0x00\n        /* \"src/voting.sol\":2606:2652  metaVotingHash(Cand,_id,nonce,block.timestamp) */\n      tag_143\n        /* \"src/voting.sol\":2621:2625  Cand */\n      dup10\n        /* \"src/voting.sol\":2626:2629  _id */\n      dup10\n        /* \"src/voting.sol\":2630:2635  nonce */\n      dup10\n        /* \"src/voting.sol\":2636:2651  block.timestamp */\n      timestamp\n        /* \"src/voting.sol\":2606:2620  metaVotingHash */\n      tag_55\n        /* \"src/voting.sol\":2606:2652  metaVotingHash(Cand,_id,nonce,block.timestamp) */\n      jump\t// in\n    tag_143:\n        /* \"src/voting.sol\":2587:2652  bytes32 metaHash = metaVotingHash(Cand,_id,nonce,block.timestamp) */\n      swap1\n      pop\n        /* \"src/voting.sol\":2659:2673  address signer */\n      0x00\n        /* \"src/voting.sol\":2676:2705  getSigner(metaHash,signature) */\n      tag_144\n        /* \"src/voting.sol\":2686:2694  metaHash */\n      dup3\n        /* \"src/voting.sol\":2695:2704  signature */\n      dup9\n        /* \"src/voting.sol\":2676:2685  getSigner */\n      tag_145\n        /* \"src/voting.sol\":2676:2705  getSigner(metaHash,signature) */\n      jump\t// in\n    tag_144:\n        /* \"src/voting.sol\":2659:2705  address signer = getSigner(metaHash,signature) */\n      swap1\n      pop\n        /* \"src/voting.sol\":2736:2737  0 */\n      0x00\n        /* \"src/voting.sol\":2720:2738  signer!=address(0) */\n      0xffffffffffffffffffffffffffffffffffffffff\n      and\n        /* \"src/voting.sol\":2720:2726  signer */\n      dup2\n        /* \"src/voting.sol\":2720:2738  signer!=address(0) */\n      0xffffffffffffffffffffffffffffffffffffffff\n      and\n      eq\n      iszero\n        /* \"src/voting.sol\":2712:2739  require(signer!=address(0)) */\n      tag_146\n      jumpi\n      0x00\n      dup1\n      revert\n    tag_146:\n        /* \"src/voting.sol\":2762:2773  replayNonce */\n      0x04\n        /* \"src/voting.sol\":2762:2781  replayNonce[signer] */\n      0x00\n        /* \"src/voting.sol\":2774:2780  signer */\n      dup3\n        /* \"src/voting.sol\":2762:2781  replayNonce[signer] */\n      0xffffffffffffffffffffffffffffffffffffffff\n      and\n      0xffffffffffffffffffffffffffffffffffffffff\n      and\n      dup2\n      mstore\n      0x20\n      add\n      swap1\n      dup2\n      mstore\n      0x20\n      add\n      0x00\n      keccak256\n      sload\n        /* \"src/voting.sol\":2753:2758  nonce */\n      dup9\n        /* \"src/voting.sol\":2753:2781  nonce == replayNonce[signer] */\n      eq\n        /* \"src/voting.sol\":2745:2782  require(nonce == replayNonce[signer]) */\n      tag_147\n      jumpi\n      0x00\n      dup1\n      revert\n    tag_147:\n        /* \"src/voting.sol\":2788:2799  replayNonce */\n      0x04\n        /* \"src/voting.sol\":2788:2807  replayNonce[signer] */\n      0x00\n        /* \"src/voting.sol\":2800:2806  signer */\n      dup3\n        /* \"src/voting.sol\":2788:2807  replayNonce[signer] */\n      0xffffffffffffffffffffffffffffffffffffffff\n      and\n      0xffffffffffffffffffffffffffffffffffffffff\n      and\n      dup2\n      mstore\n      0x20\n      add\n      swap1\n      dup2\n      mstore\n      0x20\n      add\n      0x00\n      keccak256\n      0x00\n        /* \"src/voting.sol\":2788:2809  replayNonce[signer]++ */\n      dup2\n      sload\n      dup1\n      swap3\n      swap2\n      swap1\n      tag_148\n      swap1\n      tag_128\n      jump\t// in\n    tag_148:\n      swap2\n      swap1\n      pop\n      sstore\n      pop\n        /* \"src/voting.sol\":2849:2854  false */\n      0x00\n        /* \"src/voting.sol\":2824:2854  hasVoted[_id][signer] == false */\n      iszero\n      iszero\n        /* \"src/voting.sol\":2824:2832  hasVoted */\n      0x07\n        /* \"src/voting.sol\":2824:2837  hasVoted[_id] */\n      0x00\n        /* \"src/voting.sol\":2833:2836  _id */\n      dup12\n        /* \"src/voting.sol\":2824:2837  hasVoted[_id] */\n      dup2\n      mstore\n      0x20\n      add\n      swap1\n      dup2\n      mstore\n      0x20\n      add\n      0x00\n      keccak256\n        /* \"src/voting.sol\":2824:2845  hasVoted[_id][signer] */\n      0x00\n        /* \"src/voting.sol\":2838:2844  signer */\n      dup4\n        /* \"src/voting.sol\":2824:2845  hasVoted[_id][signer] */\n      0xffffffffffffffffffffffffffffffffffffffff\n      and\n      0xffffffffffffffffffffffffffffffffffffffff\n      and\n      dup2\n      mstore\n      0x20\n      add\n      swap1\n      dup2\n      mstore\n      0x20\n      add\n      0x00\n      keccak256\n      0x00\n      swap1\n      sload\n      swap1\n      0x0100\n      exp\n      swap1\n      div\n      0xff\n      and\n        /* \"src/voting.sol\":2824:2854  hasVoted[_id][signer] == false */\n      iszero\n      iszero\n      eq\n        /* \"src/voting.sol\":2816:2876  require(hasVoted[_id][signer] == false, \"You already voted\") */\n      tag_149\n      jumpi\n      mload(0x40)\n      0x08c379a000000000000000000000000000000000000000000000000000000000\n      dup2\n      mstore\n      0x04\n      add\n      tag_150\n      swap1\n      tag_151\n      jump\t// in\n    tag_150:\n      mload(0x40)\n      dup1\n      swap2\n      sub\n      swap1\n      revert\n    tag_149:\n        /* \"src/voting.sol\":2883:2911  countVote(Cand, _id, signer) */\n      tag_152\n        /* \"src/voting.sol\":2893:2897  Cand */\n      dup11\n        /* \"src/voting.sol\":2899:2902  _id */\n      dup11\n        /* \"src/voting.sol\":2904:2910  signer */\n      dup4\n        /* \"src/voting.sol\":2883:2892  countVote */\n      tag_153\n        /* \"src/voting.sol\":2883:2911  countVote(Cand, _id, signer) */\n      jump\t// in\n    tag_152:\n      pop\n        /* \"src/voting.sol\":2923:2940  voted(Cand, true) */\n      0xf3f16a15f074b71c5138107dfc7c63b80524d5411cb967caa97d8d9f12b2fd6b\n        /* \"src/voting.sol\":2929:2933  Cand */\n      dup11\n        /* \"src/voting.sol\":2935:2939  true */\n      0x01\n        /* \"src/voting.sol\":2923:2940  voted(Cand, true) */\n      mload(0x40)\n      tag_154\n      swap3\n      swap2\n      swap1\n      tag_155\n      jump\t// in\n    tag_154:\n      mload(0x40)\n      dup1\n      swap2\n      sub\n      swap1\n      log1\n        /* \"src/voting.sol\":2580:2945  {... */\n      pop\n      pop\n        /* \"src/voting.sol\":1383:1491  {... */\n      pop\n        /* \"src/voting.sol\":1345:1346  _ */\n      pop\n        /* \"src/voting.sol\":2454:2945  function vote(address Cand, uint _id, uint256 nonce, bytes memory signature) external  isCandidate(Cand, _id) StillVoting(_id){... */\n      pop\n      pop\n      pop\n      pop\n      pop\n      pop\n      jump\t// out\n        /* \"src/voting.sol\":3144:3366  function setVotingState( uint _id) external {... */\n    tag_64:\n        /* \"src/voting.sol\":3194:3215  VotingPoll storage VP */\n      0x00\n        /* \"src/voting.sol\":3218:3228  votingPoll */\n      0x03\n        /* \"src/voting.sol\":3218:3233  votingPoll[_id] */\n      0x00\n        /* \"src/voting.sol\":3229:3232  _id */\n      dup4\n        /* \"src/voting.sol\":3218:3233  votingPoll[_id] */\n      dup2\n      mstore\n      0x20\n      add\n      swap1\n      dup2\n      mstore\n      0x20\n      add\n      0x00\n      keccak256\n        /* \"src/voting.sol\":3194:3233  VotingPoll storage VP = votingPoll[_id] */\n      swap1\n      pop\n        /* \"src/voting.sol\":3262:3272  msg.sender */\n      caller\n        /* \"src/voting.sol\":3247:3272  VP.chairman == msg.sender */\n      0xffffffffffffffffffffffffffffffffffffffff\n      and\n        /* \"src/voting.sol\":3247:3249  VP */\n      dup2\n        /* \"src/voting.sol\":3247:3258  VP.chairman */\n      0x01\n      add\n      0x00\n      swap1\n      sload\n      swap1\n      0x0100\n      exp\n      swap1\n      div\n      0xffffffffffffffffffffffffffffffffffffffff\n      and\n        /* \"src/voting.sol\":3247:3272  VP.chairman == msg.sender */\n      0xffffffffffffffffffffffffffffffffffffffff\n      and\n      eq\n        /* \"src/voting.sol\":3239:3293  require(VP.chairman == msg.sender, \"not the chairman\") */\n      tag_157\n      jumpi\n      mload(0x40)\n      0x08c379a000000000000000000000000000000000000000000000000000000000\n      dup2\n      mstore\n      0x04\n      add\n      tag_158\n      swap1\n      tag_159\n      jump\t// in\n    tag_158:\n      mload(0x40)\n      dup1\n      swap2\n      sub\n      swap1\n      revert\n    tag_157:\n        /* \"src/voting.sol\":3319:3321  VP */\n      dup1\n        /* \"src/voting.sol\":3319:3328  VP.voting */\n      0x03\n      add\n      0x08\n      swap1\n      sload\n      swap1\n      0x0100\n      exp\n      swap1\n      div\n      0xff\n      and\n        /* \"src/voting.sol\":3317:3329  !(VP.voting) */\n      iszero\n        /* \"src/voting.sol\":3305:3307  VP */\n      dup2\n        /* \"src/voting.sol\":3305:3314  VP.voting */\n      0x03\n      add\n      0x08\n        /* \"src/voting.sol\":3305:3329  VP.voting = !(VP.voting) */\n      0x0100\n      exp\n      dup2\n      sload\n      dup2\n      0xff\n      mul\n      not\n      and\n      swap1\n      dup4\n      iszero\n      iszero\n      mul\n      or\n      swap1\n      sstore\n      pop\n        /* \"src/voting.sol\":3352:3354  VP */\n      dup1\n        /* \"src/voting.sol\":3352:3361  VP.voting */\n      0x03\n      add\n      0x08\n      swap1\n      sload\n      swap1\n      0x0100\n      exp\n      swap1\n      div\n      0xff\n      and\n        /* \"src/voting.sol\":3341:3362  voteStatus(VP.voting) */\n      iszero\n      iszero\n      0x7b224db641892626dca6975b376f464e9ac52ccfa180436175170c009b94dcd7\n      mload(0x40)\n      mload(0x40)\n      dup1\n      swap2\n      sub\n      swap1\n      log2\n        /* \"src/voting.sol\":3188:3366  {... */\n      pop\n        /* \"src/voting.sol\":3144:3366  function setVotingState( uint _id) external {... */\n      pop\n      jump\t// out\n        /* \"src/voting.sol\":580:625  mapping(uint => VotingPoll) public votingPoll */\n    tag_67:\n      mstore(0x20, 0x03)\n      dup1\n      0x00\n      mstore\n      keccak256(0x00, 0x40)\n      0x00\n      swap2\n      pop\n      swap1\n      pop\n      dup1\n      0x00\n      add\n      dup1\n      sload\n      tag_160\n      swap1\n      tag_96\n      jump\t// in\n    tag_160:\n      dup1\n      0x1f\n      add\n      0x20\n      dup1\n      swap2\n      div\n      mul\n      0x20\n      add\n      mload(0x40)\n      swap1\n      dup2\n      add\n      0x40\n      mstore\n      dup1\n      swap3\n      swap2\n      swap1\n      dup2\n      dup2\n      mstore\n      0x20\n      add\n      dup3\n      dup1\n      sload\n      tag_161\n      swap1\n      tag_96\n      jump\t// in\n    tag_161:\n      dup1\n      iszero\n      tag_162\n      jumpi\n      dup1\n      0x1f\n      lt\n      tag_163\n      jumpi\n      0x0100\n      dup1\n      dup4\n      sload\n      div\n      mul\n      dup4\n      mstore\n      swap2\n      0x20\n      add\n      swap2\n      jump(tag_162)\n    tag_163:\n      dup3\n      add\n      swap2\n      swap1\n      0x00\n      mstore\n      keccak256(0x00, 0x20)\n      swap1\n    tag_164:\n      dup2\n      sload\n      dup2\n      mstore\n      swap1\n      0x01\n      add\n      swap1\n      0x20\n      add\n      dup1\n      dup4\n      gt\n      tag_164\n      jumpi\n      dup3\n      swap1\n      sub\n      0x1f\n      and\n      dup3\n      add\n      swap2\n    tag_162:\n      pop\n      pop\n      pop\n      pop\n      pop\n      swap1\n      dup1\n      0x01\n      add\n      0x00\n      swap1\n      sload\n      swap1\n      0x0100\n      exp\n      swap1\n      div\n      0xffffffffffffffffffffffffffffffffffffffff\n      and\n      swap1\n      dup1\n      0x03\n      add\n      0x00\n      swap1\n      sload\n      swap1\n      0x0100\n      exp\n      swap1\n      div\n      0xffffffff\n      and\n      swap1\n      dup1\n      0x03\n      add\n      0x04\n      swap1\n      sload\n      swap1\n      0x0100\n      exp\n      swap1\n      div\n      0xffffffff\n      and\n      swap1\n      dup1\n      0x03\n      add\n      0x08\n      swap1\n      sload\n      swap1\n      0x0100\n      exp\n      swap1\n      div\n      0xff\n      and\n      swap1\n      pop\n      dup6\n      jump\t// out\n        /* \"src/voting.sol\":1627:1946  function createPoll(string memory _name, uint32 ExpectedNoOfCandidate) external {... */\n    tag_72:\n        /* \"src/voting.sol\":1713:1734  VotingPoll storage VP */\n      0x00\n        /* \"src/voting.sol\":1737:1747  votingPoll */\n      0x03\n        /* \"src/voting.sol\":1737:1751  votingPoll[id] */\n      0x00\n        /* \"src/voting.sol\":1748:1750  id */\n      dup1\n      sload\n        /* \"src/voting.sol\":1737:1751  votingPoll[id] */\n      dup2\n      mstore\n      0x20\n      add\n      swap1\n      dup2\n      mstore\n      0x20\n      add\n      0x00\n      keccak256\n        /* \"src/voting.sol\":1713:1751  VotingPoll storage VP = votingPoll[id] */\n      swap1\n      pop\n        /* \"src/voting.sol\":1767:1772  _name */\n      dup3\n        /* \"src/voting.sol\":1757:1759  VP */\n      dup2\n        /* \"src/voting.sol\":1757:1764  VP.name */\n      0x00\n      add\n        /* \"src/voting.sol\":1757:1772  VP.name = _name */\n      swap1\n      dup1\n      mload\n      swap1\n      0x20\n      add\n      swap1\n      tag_166\n      swap3\n      swap2\n      swap1\n      tag_167\n      jump\t// in\n    tag_166:\n      pop\n        /* \"src/voting.sol\":1792:1802  msg.sender */\n      caller\n        /* \"src/voting.sol\":1778:1780  VP */\n      dup2\n        /* \"src/voting.sol\":1778:1789  VP.chairman */\n      0x01\n      add\n      0x00\n        /* \"src/voting.sol\":1778:1802  VP.chairman = msg.sender */\n      0x0100\n      exp\n      dup2\n      sload\n      dup2\n      0xffffffffffffffffffffffffffffffffffffffff\n      mul\n      not\n      and\n      swap1\n      dup4\n      0xffffffffffffffffffffffffffffffffffffffff\n      and\n      mul\n      or\n      swap1\n      sstore\n      pop\n        /* \"src/voting.sol\":1830:1851  ExpectedNoOfCandidate */\n      dup2\n        /* \"src/voting.sol\":1808:1810  VP */\n      dup2\n        /* \"src/voting.sol\":1808:1828  VP.maxNoOfCandidates */\n      0x03\n      add\n      0x00\n        /* \"src/voting.sol\":1808:1851  VP.maxNoOfCandidates =ExpectedNoOfCandidate */\n      0x0100\n      exp\n      dup2\n      sload\n      dup2\n      0xffffffff\n      mul\n      not\n      and\n      swap1\n      dup4\n      0xffffffff\n      and\n      mul\n      or\n      swap1\n      sstore\n      pop\n        /* \"src/voting.sol\":1857:1866  VotingKey */\n      0x01\n        /* \"src/voting.sol\":1872:1874  id */\n      sload(0x00)\n        /* \"src/voting.sol\":1857:1875  VotingKey.push(id) */\n      swap1\n      dup1\n      0x01\n      dup2\n      sload\n      add\n      dup1\n      dup3\n      sstore\n      dup1\n      swap2\n      pop\n      pop\n      0x01\n      swap1\n      sub\n      swap1\n      0x00\n      mstore\n      keccak256(0x00, 0x20)\n      add\n      0x00\n      swap1\n      swap2\n      swap1\n      swap2\n      swap1\n      swap2\n      pop\n      sstore\n        /* \"src/voting.sol\":1928:1930  id */\n      sload(0x00)\n        /* \"src/voting.sol\":1906:1908  VP */\n      dup2\n        /* \"src/voting.sol\":1906:1926  VP.maxNoOfCandidates */\n      0x03\n      add\n      0x00\n      swap1\n      sload\n      swap1\n      0x0100\n      exp\n      swap1\n      div\n      0xffffffff\n      and\n        /* \"src/voting.sol\":1886:1931  pollCreated( _name, VP.maxNoOfCandidates, id) */\n      0xffffffff\n      and\n        /* \"src/voting.sol\":1899:1904  _name */\n      dup5\n        /* \"src/voting.sol\":1886:1931  pollCreated( _name, VP.maxNoOfCandidates, id) */\n      mload(0x40)\n      tag_169\n      swap2\n      swap1\n      tag_170\n      jump\t// in\n    tag_169:\n      mload(0x40)\n      dup1\n      swap2\n      sub\n      swap1\n      keccak256\n      0xd4d0d9a1ef7f13069f1bade752fda515713d747eb14a8c30ae461c52916bf1c7\n      mload(0x40)\n      mload(0x40)\n      dup1\n      swap2\n      sub\n      swap1\n      log4\n        /* \"src/voting.sol\":1938:1940  id */\n      0x00\n      dup1\n        /* \"src/voting.sol\":1938:1942  id++ */\n      dup2\n      sload\n      dup1\n      swap3\n      swap2\n      swap1\n      tag_171\n      swap1\n      tag_128\n      jump\t// in\n    tag_171:\n      swap2\n      swap1\n      pop\n      sstore\n      pop\n        /* \"src/voting.sol\":1707:1946  {... */\n      pop\n        /* \"src/voting.sol\":1627:1946  function createPoll(string memory _name, uint32 ExpectedNoOfCandidate) external {... */\n      pop\n      pop\n      jump\t// out\n        /* \"src/voting.sol\":4568:4770  function arrayOfStruct() external returns(VotingPoll[] memory VP){... */\n    tag_74:\n        /* \"src/voting.sol\":4610:4632  VotingPoll[] memory VP */\n      0x60\n        /* \"src/voting.sol\":4660:4669  VotingKey */\n      0x01\n        /* \"src/voting.sol\":4660:4676  VotingKey.length */\n      dup1\n      sload\n      swap1\n      pop\n        /* \"src/voting.sol\":4643:4677  new VotingPoll[](VotingKey.length) */\n      0xffffffffffffffff\n      dup2\n      gt\n      iszero\n      tag_173\n      jumpi\n      tag_174\n      tag_110\n      jump\t// in\n    tag_174:\n    tag_173:\n      mload(0x40)\n      swap1\n      dup1\n      dup3\n      mstore\n      dup1\n      0x20\n      mul\n      0x20\n      add\n      dup3\n      add\n      0x40\n      mstore\n      dup1\n      iszero\n      tag_175\n      jumpi\n      dup2\n      0x20\n      add\n    tag_176:\n      tag_177\n      tag_178\n      jump\t// in\n    tag_177:\n      dup2\n      mstore\n      0x20\n      add\n      swap1\n      0x01\n      swap1\n      sub\n      swap1\n      dup2\n      tag_176\n      jumpi\n      swap1\n      pop\n    tag_175:\n      pop\n        /* \"src/voting.sol\":4638:4677  VP = new VotingPoll[](VotingKey.length) */\n      swap1\n      pop\n        /* \"src/voting.sol\":4686:4692  uint i */\n      0x00\n        /* \"src/voting.sol\":4682:4765  for(uint i =0; i < VotingKey.length; i++){... */\n    tag_179:\n        /* \"src/voting.sol\":4701:4710  VotingKey */\n      0x01\n        /* \"src/voting.sol\":4701:4717  VotingKey.length */\n      dup1\n      sload\n      swap1\n      pop\n        /* \"src/voting.sol\":4697:4698  i */\n      dup2\n        /* \"src/voting.sol\":4697:4717  i < VotingKey.length */\n      lt\n        /* \"src/voting.sol\":4682:4765  for(uint i =0; i < VotingKey.length; i++){... */\n      iszero\n      tag_180\n      jumpi\n        /* \"src/voting.sol\":4738:4759  getVotePollProps(i++) */\n      tag_182\n        /* \"src/voting.sol\":4755:4758  i++ */\n      dup2\n      dup1\n      tag_183\n      swap1\n      tag_128\n      jump\t// in\n    tag_183:\n      swap3\n      pop\n        /* \"src/voting.sol\":4738:4754  getVotePollProps */\n      tag_184\n        /* \"src/voting.sol\":4738:4759  getVotePollProps(i++) */\n      jump\t// in\n    tag_182:\n        /* \"src/voting.sol\":4730:4732  VP */\n      dup3\n        /* \"src/voting.sol\":4733:4734  i */\n      dup3\n        /* \"src/voting.sol\":4730:4735  VP[i] */\n      dup2\n      mload\n      dup2\n      lt\n      tag_185\n      jumpi\n      tag_186\n      tag_120\n      jump\t// in\n    tag_186:\n    tag_185:\n      0x20\n      mul\n      0x20\n      add\n      add\n        /* \"src/voting.sol\":4730:4759  VP[i] = getVotePollProps(i++) */\n      dup2\n      swap1\n      mstore\n      pop\n        /* \"src/voting.sol\":4719:4722  i++ */\n      dup1\n      dup1\n      tag_187\n      swap1\n      tag_128\n      jump\t// in\n    tag_187:\n      swap2\n      pop\n      pop\n        /* \"src/voting.sol\":4682:4765  for(uint i =0; i < VotingKey.length; i++){... */\n      jump(tag_179)\n    tag_180:\n      pop\n        /* \"src/voting.sol\":4568:4770  function arrayOfStruct() external returns(VotingPoll[] memory VP){... */\n      swap1\n      jump\t// out\n        /* \"src/voting.sol\":4280:4452  function getPosition( uint _id, uint i) internal view returns(uint val){... */\n    tag_116:\n        /* \"src/voting.sol\":4342:4350  uint val */\n      0x00\n        /* \"src/voting.sol\":4358:4379  VotingPoll storage VP */\n      dup1\n        /* \"src/voting.sol\":4382:4392  votingPoll */\n      0x03\n        /* \"src/voting.sol\":4382:4397  votingPoll[_id] */\n      0x00\n        /* \"src/voting.sol\":4393:4396  _id */\n      dup6\n        /* \"src/voting.sol\":4382:4397  votingPoll[_id] */\n      dup2\n      mstore\n      0x20\n      add\n      swap1\n      dup2\n      mstore\n      0x20\n      add\n      0x00\n      keccak256\n        /* \"src/voting.sol\":4358:4397  VotingPoll storage VP = votingPoll[_id] */\n      swap1\n      pop\n        /* \"src/voting.sol\":4412:4425  CandidateVote */\n      0x06\n        /* \"src/voting.sol\":4412:4430  CandidateVote[_id] */\n      0x00\n        /* \"src/voting.sol\":4426:4429  _id */\n      dup6\n        /* \"src/voting.sol\":4412:4430  CandidateVote[_id] */\n      dup2\n      mstore\n      0x20\n      add\n      swap1\n      dup2\n      mstore\n      0x20\n      add\n      0x00\n      keccak256\n        /* \"src/voting.sol\":4412:4448  CandidateVote[_id][VP.candidates[i]] */\n      0x00\n        /* \"src/voting.sol\":4431:4433  VP */\n      dup3\n        /* \"src/voting.sol\":4431:4444  VP.candidates */\n      0x02\n      add\n        /* \"src/voting.sol\":4445:4446  i */\n      dup6\n        /* \"src/voting.sol\":4431:4447  VP.candidates[i] */\n      dup2\n      sload\n      dup2\n      lt\n      tag_189\n      jumpi\n      tag_190\n      tag_120\n      jump\t// in\n    tag_190:\n    tag_189:\n      swap1\n      0x00\n      mstore\n      keccak256(0x00, 0x20)\n      add\n      0x00\n      swap1\n      sload\n      swap1\n      0x0100\n      exp\n      swap1\n      div\n      0xffffffffffffffffffffffffffffffffffffffff\n      and\n        /* \"src/voting.sol\":4412:4448  CandidateVote[_id][VP.candidates[i]] */\n      0xffffffffffffffffffffffffffffffffffffffff\n      and\n      0xffffffffffffffffffffffffffffffffffffffff\n      and\n      dup2\n      mstore\n      0x20\n      add\n      swap1\n      dup2\n      mstore\n      0x20\n      add\n      0x00\n      keccak256\n      sload\n        /* \"src/voting.sol\":4406:4448  val = CandidateVote[_id][VP.candidates[i]] */\n      swap2\n      pop\n        /* \"src/voting.sol\":4351:4452  {... */\n      pop\n        /* \"src/voting.sol\":4280:4452  function getPosition( uint _id, uint i) internal view returns(uint val){... */\n      swap3\n      swap2\n      pop\n      pop\n      jump\t// out\n        /* \"src/voting.sol\":4994:5576  function getSigner(bytes32 _hash, bytes memory _signature) internal pure returns (address){... */\n    tag_145:\n        /* \"src/voting.sol\":5076:5083  address */\n      0x00\n        /* \"src/voting.sol\":5090:5099  bytes32 r */\n      dup1\n        /* \"src/voting.sol\":5105:5114  bytes32 s */\n      0x00\n        /* \"src/voting.sol\":5120:5127  uint8 v */\n      dup1\n        /* \"src/voting.sol\":5158:5160  65 */\n      0x41\n        /* \"src/voting.sol\":5137:5147  _signature */\n      dup6\n        /* \"src/voting.sol\":5137:5154  _signature.length */\n      mload\n        /* \"src/voting.sol\":5137:5160  _signature.length != 65 */\n      eq\n        /* \"src/voting.sol\":5133:5194  if (_signature.length != 65) {... */\n      tag_193\n      jumpi\n        /* \"src/voting.sol\":5185:5186  0 */\n      0x00\n        /* \"src/voting.sol\":5170:5187  return address(0) */\n      swap4\n      pop\n      pop\n      pop\n      pop\n      jump(tag_192)\n        /* \"src/voting.sol\":5133:5194  if (_signature.length != 65) {... */\n    tag_193:\n        /* \"src/voting.sol\":5243:5245  32 */\n      0x20\n        /* \"src/voting.sol\":5231:5241  _signature */\n      dup6\n        /* \"src/voting.sol\":5227:5246  add(_signature, 32) */\n      add\n        /* \"src/voting.sol\":5221:5247  mload(add(_signature, 32)) */\n      mload\n        /* \"src/voting.sol\":5216:5247  r := mload(add(_signature, 32)) */\n      swap3\n      pop\n        /* \"src/voting.sol\":5281:5283  64 */\n      0x40\n        /* \"src/voting.sol\":5269:5279  _signature */\n      dup6\n        /* \"src/voting.sol\":5265:5284  add(_signature, 64) */\n      add\n        /* \"src/voting.sol\":5259:5285  mload(add(_signature, 64)) */\n      mload\n        /* \"src/voting.sol\":5254:5285  s := mload(add(_signature, 64)) */\n      swap2\n      pop\n        /* \"src/voting.sol\":5327:5329  96 */\n      0x60\n        /* \"src/voting.sol\":5315:5325  _signature */\n      dup6\n        /* \"src/voting.sol\":5311:5330  add(_signature, 96) */\n      add\n        /* \"src/voting.sol\":5305:5331  mload(add(_signature, 96)) */\n      mload\n        /* \"src/voting.sol\":5302:5303  0 */\n      0x00\n        /* \"src/voting.sol\":5297:5332  byte(0, mload(add(_signature, 96))) */\n      byte\n        /* \"src/voting.sol\":5292:5332  v := byte(0, mload(add(_signature, 96))) */\n      swap1\n      pop\n        /* \"src/voting.sol\":5351:5353  27 */\n      0x1b\n        /* \"src/voting.sol\":5347:5348  v */\n      dup2\n        /* \"src/voting.sol\":5347:5353  v < 27 */\n      0xff\n      and\n      lt\n        /* \"src/voting.sol\":5343:5377  if (v < 27) {... */\n      iszero\n      tag_194\n      jumpi\n        /* \"src/voting.sol\":5368:5370  27 */\n      0x1b\n        /* \"src/voting.sol\":5363:5370  v += 27 */\n      dup2\n      tag_195\n      swap2\n      swap1\n      tag_196\n      jump\t// in\n    tag_195:\n      swap1\n      pop\n        /* \"src/voting.sol\":5343:5377  if (v < 27) {... */\n    tag_194:\n        /* \"src/voting.sol\":5391:5393  27 */\n      0x1b\n        /* \"src/voting.sol\":5386:5387  v */\n      dup2\n        /* \"src/voting.sol\":5386:5393  v != 27 */\n      0xff\n      and\n      eq\n      iszero\n        /* \"src/voting.sol\":5386:5404  v != 27 && v != 28 */\n      dup1\n      iszero\n      tag_197\n      jumpi\n      pop\n        /* \"src/voting.sol\":5402:5404  28 */\n      0x1c\n        /* \"src/voting.sol\":5397:5398  v */\n      dup2\n        /* \"src/voting.sol\":5397:5404  v != 28 */\n      0xff\n      and\n      eq\n      iszero\n        /* \"src/voting.sol\":5386:5404  v != 27 && v != 28 */\n    tag_197:\n        /* \"src/voting.sol\":5382:5572  if (v != 27 && v != 28) {... */\n      iszero\n      tag_198\n      jumpi\n        /* \"src/voting.sol\":5429:5430  0 */\n      0x00\n        /* \"src/voting.sol\":5414:5431  return address(0) */\n      swap4\n      pop\n      pop\n      pop\n      pop\n      jump(tag_192)\n        /* \"src/voting.sol\":5382:5572  if (v != 27 && v != 28) {... */\n    tag_198:\n        /* \"src/voting.sol\":5459:5565  ecrecover(keccak256(... */\n      0x01\n        /* \"src/voting.sol\":5541:5546  _hash */\n      dup7\n        /* \"src/voting.sol\":5488:5547  abi.encodePacked(\"\\x19Ethereum Signed Message:\\n32\", _hash) */\n      add(0x20, mload(0x40))\n      tag_200\n      swap2\n      swap1\n      tag_201\n      jump\t// in\n    tag_200:\n      mload(0x40)\n      0x20\n      dup2\n      dup4\n      sub\n      sub\n      dup2\n      mstore\n      swap1\n      0x40\n      mstore\n        /* \"src/voting.sol\":5469:5555  keccak256(... */\n      dup1\n      mload\n      swap1\n      0x20\n      add\n      keccak256\n        /* \"src/voting.sol\":5557:5558  v */\n      dup3\n        /* \"src/voting.sol\":5560:5561  r */\n      dup6\n        /* \"src/voting.sol\":5563:5564  s */\n      dup6\n        /* \"src/voting.sol\":5459:5565  ecrecover(keccak256(... */\n      mload(0x40)\n      0x00\n      dup2\n      mstore\n      0x20\n      add\n      0x40\n      mstore\n      mload(0x40)\n      tag_202\n      swap5\n      swap4\n      swap3\n      swap2\n      swap1\n      tag_203\n      jump\t// in\n    tag_202:\n      0x20\n      mload(0x40)\n      0x20\n      dup2\n      sub\n      swap1\n      dup1\n      dup5\n      sub\n      swap1\n      dup6\n      gas\n      staticcall\n      iszero\n      dup1\n      iszero\n      tag_205\n      jumpi\n      returndatasize\n      0x00\n      dup1\n      returndatacopy\n      revert(0x00, returndatasize)\n    tag_205:\n      pop\n      pop\n      pop\n      mload(sub(mload(0x40), 0x20))\n        /* \"src/voting.sol\":5452:5565  return ecrecover(keccak256(... */\n      swap4\n      pop\n      pop\n      pop\n      pop\n        /* \"src/voting.sol\":4994:5576  function getSigner(bytes32 _hash, bytes memory _signature) internal pure returns (address){... */\n    tag_192:\n      swap3\n      swap2\n      pop\n      pop\n      jump\t// out\n        /* \"src/voting.sol\":2948:3140  function countVote(address Cand, uint _id, address signer) internal returns(uint){... */\n    tag_153:\n        /* \"src/voting.sol\":3024:3028  uint */\n      0x00\n        /* \"src/voting.sol\":3060:3064  true */\n      0x01\n        /* \"src/voting.sol\":3036:3044  hasVoted */\n      0x07\n        /* \"src/voting.sol\":3036:3049  hasVoted[_id] */\n      0x00\n        /* \"src/voting.sol\":3045:3048  _id */\n      dup6\n        /* \"src/voting.sol\":3036:3049  hasVoted[_id] */\n      dup2\n      mstore\n      0x20\n      add\n      swap1\n      dup2\n      mstore\n      0x20\n      add\n      0x00\n      keccak256\n        /* \"src/voting.sol\":3036:3057  hasVoted[_id][signer] */\n      0x00\n        /* \"src/voting.sol\":3050:3056  signer */\n      dup5\n        /* \"src/voting.sol\":3036:3057  hasVoted[_id][signer] */\n      0xffffffffffffffffffffffffffffffffffffffff\n      and\n      0xffffffffffffffffffffffffffffffffffffffff\n      and\n      dup2\n      mstore\n      0x20\n      add\n      swap1\n      dup2\n      mstore\n      0x20\n      add\n      0x00\n      keccak256\n      0x00\n        /* \"src/voting.sol\":3036:3064  hasVoted[_id][signer] = true */\n      0x0100\n      exp\n      dup2\n      sload\n      dup2\n      0xff\n      mul\n      not\n      and\n      swap1\n      dup4\n      iszero\n      iszero\n      mul\n      or\n      swap1\n      sstore\n      pop\n        /* \"src/voting.sol\":3071:3084  CandidateVote */\n      0x06\n        /* \"src/voting.sol\":3071:3089  CandidateVote[_id] */\n      0x00\n        /* \"src/voting.sol\":3085:3088  _id */\n      dup5\n        /* \"src/voting.sol\":3071:3089  CandidateVote[_id] */\n      dup2\n      mstore\n      0x20\n      add\n      swap1\n      dup2\n      mstore\n      0x20\n      add\n      0x00\n      keccak256\n        /* \"src/voting.sol\":3071:3095  CandidateVote[_id][Cand] */\n      0x00\n        /* \"src/voting.sol\":3090:3094  Cand */\n      dup6\n        /* \"src/voting.sol\":3071:3095  CandidateVote[_id][Cand] */\n      0xffffffffffffffffffffffffffffffffffffffff\n      and\n      0xffffffffffffffffffffffffffffffffffffffff\n      and\n      dup2\n      mstore\n      0x20\n      add\n      swap1\n      dup2\n      mstore\n      0x20\n      add\n      0x00\n      keccak256\n      0x00\n        /* \"src/voting.sol\":3071:3097  CandidateVote[_id][Cand]++ */\n      dup2\n      sload\n      dup1\n      swap3\n      swap2\n      swap1\n      tag_207\n      swap1\n      tag_128\n      jump\t// in\n    tag_207:\n      swap2\n      swap1\n      pop\n      sstore\n      pop\n        /* \"src/voting.sol\":3111:3124  CandidateVote */\n      0x06\n        /* \"src/voting.sol\":3111:3129  CandidateVote[_id] */\n      0x00\n        /* \"src/voting.sol\":3125:3128  _id */\n      dup5\n        /* \"src/voting.sol\":3111:3129  CandidateVote[_id] */\n      dup2\n      mstore\n      0x20\n      add\n      swap1\n      dup2\n      mstore\n      0x20\n      add\n      0x00\n      keccak256\n        /* \"src/voting.sol\":3111:3135  CandidateVote[_id][Cand] */\n      0x00\n        /* \"src/voting.sol\":3130:3134  Cand */\n      dup6\n        /* \"src/voting.sol\":3111:3135  CandidateVote[_id][Cand] */\n      0xffffffffffffffffffffffffffffffffffffffff\n      and\n      0xffffffffffffffffffffffffffffffffffffffff\n      and\n      dup2\n      mstore\n      0x20\n      add\n      swap1\n      dup2\n      mstore\n      0x20\n      add\n      0x00\n      keccak256\n      sload\n        /* \"src/voting.sol\":3104:3135  return CandidateVote[_id][Cand] */\n      swap1\n      pop\n        /* \"src/voting.sol\":2948:3140  function countVote(address Cand, uint _id, address signer) internal returns(uint){... */\n      swap4\n      swap3\n      pop\n      pop\n      pop\n      jump\t// out\n        /* \"src/voting.sol\":4458:4565  function getVotePollProps(uint _id) internal view returns(VotingPoll memory){... */\n    tag_184:\n        /* \"src/voting.sol\":4516:4533  VotingPoll memory */\n      tag_208\n      tag_178\n      jump\t// in\n    tag_208:\n        /* \"src/voting.sol\":4546:4556  votingPoll */\n      0x03\n        /* \"src/voting.sol\":4546:4561  votingPoll[_id] */\n      0x00\n        /* \"src/voting.sol\":4557:4560  _id */\n      dup4\n        /* \"src/voting.sol\":4546:4561  votingPoll[_id] */\n      dup2\n      mstore\n      0x20\n      add\n      swap1\n      dup2\n      mstore\n      0x20\n      add\n      0x00\n      keccak256\n        /* \"src/voting.sol\":4539:4561  return votingPoll[_id] */\n      mload(0x40)\n      dup1\n      0xc0\n      add\n      0x40\n      mstore\n      swap1\n      dup2\n      0x00\n      dup3\n      add\n      dup1\n      sload\n      tag_210\n      swap1\n      tag_96\n      jump\t// in\n    tag_210:\n      dup1\n      0x1f\n      add\n      0x20\n      dup1\n      swap2\n      div\n      mul\n      0x20\n      add\n      mload(0x40)\n      swap1\n      dup2\n      add\n      0x40\n      mstore\n      dup1\n      swap3\n      swap2\n      swap1\n      dup2\n      dup2\n      mstore\n      0x20\n      add\n      dup3\n      dup1\n      sload\n      tag_211\n      swap1\n      tag_96\n      jump\t// in\n    tag_211:\n      dup1\n      iszero\n      tag_212\n      jumpi\n      dup1\n      0x1f\n      lt\n      tag_213\n      jumpi\n      0x0100\n      dup1\n      dup4\n      sload\n      div\n      mul\n      dup4\n      mstore\n      swap2\n      0x20\n      add\n      swap2\n      jump(tag_212)\n    tag_213:\n      dup3\n      add\n      swap2\n      swap1\n      0x00\n      mstore\n      keccak256(0x00, 0x20)\n      swap1\n    tag_214:\n      dup2\n      sload\n      dup2\n      mstore\n      swap1\n      0x01\n      add\n      swap1\n      0x20\n      add\n      dup1\n      dup4\n      gt\n      tag_214\n      jumpi\n      dup3\n      swap1\n      sub\n      0x1f\n      and\n      dup3\n      add\n      swap2\n    tag_212:\n      pop\n      pop\n      pop\n      pop\n      pop\n      dup2\n      mstore\n      0x20\n      add\n      0x01\n      dup3\n      add\n      0x00\n      swap1\n      sload\n      swap1\n      0x0100\n      exp\n      swap1\n      div\n      0xffffffffffffffffffffffffffffffffffffffff\n      and\n      0xffffffffffffffffffffffffffffffffffffffff\n      and\n      0xffffffffffffffffffffffffffffffffffffffff\n      and\n      dup2\n      mstore\n      0x20\n      add\n      0x02\n      dup3\n      add\n      dup1\n      sload\n      dup1\n      0x20\n      mul\n      0x20\n      add\n      mload(0x40)\n      swap1\n      dup2\n      add\n      0x40\n      mstore\n      dup1\n      swap3\n      swap2\n      swap1\n      dup2\n      dup2\n      mstore\n      0x20\n      add\n      dup3\n      dup1\n      sload\n      dup1\n      iszero\n      tag_215\n      jumpi\n      0x20\n      mul\n      dup3\n      add\n      swap2\n      swap1\n      0x00\n      mstore\n      keccak256(0x00, 0x20)\n      swap1\n    tag_216:\n      dup2\n      0x00\n      swap1\n      sload\n      swap1\n      0x0100\n      exp\n      swap1\n      div\n      0xffffffffffffffffffffffffffffffffffffffff\n      and\n      0xffffffffffffffffffffffffffffffffffffffff\n      and\n      dup2\n      mstore\n      0x20\n      add\n      swap1\n      0x01\n      add\n      swap1\n      dup1\n      dup4\n      gt\n      tag_216\n      jumpi\n    tag_215:\n      pop\n      pop\n      pop\n      pop\n      pop\n      dup2\n      mstore\n      0x20\n      add\n      0x03\n      dup3\n      add\n      0x00\n      swap1\n      sload\n      swap1\n      0x0100\n      exp\n      swap1\n      div\n      0xffffffff\n      and\n      0xffffffff\n      and\n      0xffffffff\n      and\n      dup2\n      mstore\n      0x20\n      add\n      0x03\n      dup3\n      add\n      0x04\n      swap1\n      sload\n      swap1\n      0x0100\n      exp\n      swap1\n      div\n      0xffffffff\n      and\n      0xffffffff\n      and\n      0xffffffff\n      and\n      dup2\n      mstore\n      0x20\n      add\n      0x03\n      dup3\n      add\n      0x08\n      swap1\n      sload\n      swap1\n      0x0100\n      exp\n      swap1\n      div\n      0xff\n      and\n      iszero\n      iszero\n      iszero\n      iszero\n      dup2\n      mstore\n      pop\n      pop\n      swap1\n      pop\n        /* \"src/voting.sol\":4458:4565  function getVotePollProps(uint _id) internal view returns(VotingPoll memory){... */\n      swap2\n      swap1\n      pop\n      jump\t// out\n    tag_167:\n      dup3\n      dup1\n      sload\n      tag_217\n      swap1\n      tag_96\n      jump\t// in\n    tag_217:\n      swap1\n      0x00\n      mstore\n      keccak256(0x00, 0x20)\n      swap1\n      0x1f\n      add\n      0x20\n      swap1\n      div\n      dup2\n      add\n      swap3\n      dup3\n      tag_219\n      jumpi\n      0x00\n      dup6\n      sstore\n      jump(tag_218)\n    tag_219:\n      dup3\n      0x1f\n      lt\n      tag_220\n      jumpi\n      dup1\n      mload\n      not(0xff)\n      and\n      dup4\n      dup1\n      add\n      or\n      dup6\n      sstore\n      jump(tag_218)\n    tag_220:\n      dup3\n      dup1\n      add\n      0x01\n      add\n      dup6\n      sstore\n      dup3\n      iszero\n      tag_218\n      jumpi\n      swap2\n      dup3\n      add\n    tag_221:\n      dup3\n      dup2\n      gt\n      iszero\n      tag_222\n      jumpi\n      dup3\n      mload\n      dup3\n      sstore\n      swap2\n      0x20\n      add\n      swap2\n      swap1\n      0x01\n      add\n      swap1\n      jump(tag_221)\n    tag_222:\n    tag_218:\n      pop\n      swap1\n      pop\n      tag_223\n      swap2\n      swap1\n      tag_224\n      jump\t// in\n    tag_223:\n      pop\n      swap1\n      jump\t// out\n    tag_178:\n      mload(0x40)\n      dup1\n      0xc0\n      add\n      0x40\n      mstore\n      dup1\n      0x60\n      dup2\n      mstore\n      0x20\n      add\n      and(0xffffffffffffffffffffffffffffffffffffffff, 0x00)\n      dup2\n      mstore\n      0x20\n      add\n      0x60\n      dup2\n      mstore\n      0x20\n      add\n      and(0xffffffff, 0x00)\n      dup2\n      mstore\n      0x20\n      add\n      and(0xffffffff, 0x00)\n      dup2\n      mstore\n      0x20\n      add\n      iszero(iszero(0x00))\n      dup2\n      mstore\n      pop\n      swap1\n      jump\t// out\n    tag_224:\n    tag_225:\n      dup1\n      dup3\n      gt\n      iszero\n      tag_226\n      jumpi\n      0x00\n      dup2\n      0x00\n      swap1\n      sstore\n      pop\n      0x01\n      add\n      jump(tag_225)\n    tag_226:\n      pop\n      swap1\n      jump\t// out\n        /* \"#utility.yul\":7:82   */\n    tag_227:\n        /* \"#utility.yul\":40:46   */\n      0x00\n        /* \"#utility.yul\":73:75   */\n      0x40\n        /* \"#utility.yul\":67:76   */\n      mload\n        /* \"#utility.yul\":57:76   */\n      swap1\n      pop\n        /* \"#utility.yul\":7:82   */\n      swap1\n      jump\t// out\n        /* \"#utility.yul\":88:205   */\n    tag_228:\n        /* \"#utility.yul\":197:198   */\n      0x00\n        /* \"#utility.yul\":194:195   */\n      dup1\n        /* \"#utility.yul\":187:199   */\n      revert\n        /* \"#utility.yul\":211:328   */\n    tag_229:\n        /* \"#utility.yul\":320:321   */\n      0x00\n        /* \"#utility.yul\":317:318   */\n      dup1\n        /* \"#utility.yul\":310:322   */\n      revert\n        /* \"#utility.yul\":334:460   */\n    tag_230:\n        /* \"#utility.yul\":371:378   */\n      0x00\n        /* \"#utility.yul\":411:453   */\n      0xffffffffffffffffffffffffffffffffffffffff\n        /* \"#utility.yul\":404:409   */\n      dup3\n        /* \"#utility.yul\":400:454   */\n      and\n        /* \"#utility.yul\":389:454   */\n      swap1\n      pop\n        /* \"#utility.yul\":334:460   */\n      swap2\n      swap1\n      pop\n      jump\t// out\n        /* \"#utility.yul\":466:562   */\n    tag_231:\n        /* \"#utility.yul\":503:510   */\n      0x00\n        /* \"#utility.yul\":532:556   */\n      tag_328\n        /* \"#utility.yul\":550:555   */\n      dup3\n        /* \"#utility.yul\":532:556   */\n      tag_230\n      jump\t// in\n    tag_328:\n        /* \"#utility.yul\":521:556   */\n      swap1\n      pop\n        /* \"#utility.yul\":466:562   */\n      swap2\n      swap1\n      pop\n      jump\t// out\n        /* \"#utility.yul\":568:690   */\n    tag_232:\n        /* \"#utility.yul\":641:665   */\n      tag_330\n        /* \"#utility.yul\":659:664   */\n      dup2\n        /* \"#utility.yul\":641:665   */\n      tag_231\n      jump\t// in\n    tag_330:\n        /* \"#utility.yul\":634:639   */\n      dup2\n        /* \"#utility.yul\":631:666   */\n      eq\n        /* \"#utility.yul\":621:684   */\n      tag_331\n      jumpi\n        /* \"#utility.yul\":680:681   */\n      0x00\n        /* \"#utility.yul\":677:678   */\n      dup1\n        /* \"#utility.yul\":670:682   */\n      revert\n        /* \"#utility.yul\":621:684   */\n    tag_331:\n        /* \"#utility.yul\":568:690   */\n      pop\n      jump\t// out\n        /* \"#utility.yul\":696:835   */\n    tag_233:\n        /* \"#utility.yul\":742:747   */\n      0x00\n        /* \"#utility.yul\":780:786   */\n      dup2\n        /* \"#utility.yul\":767:787   */\n      calldataload\n        /* \"#utility.yul\":758:787   */\n      swap1\n      pop\n        /* \"#utility.yul\":796:829   */\n      tag_333\n        /* \"#utility.yul\":823:828   */\n      dup2\n        /* \"#utility.yul\":796:829   */\n      tag_232\n      jump\t// in\n    tag_333:\n        /* \"#utility.yul\":696:835   */\n      swap3\n      swap2\n      pop\n      pop\n      jump\t// out\n        /* \"#utility.yul\":841:918   */\n    tag_234:\n        /* \"#utility.yul\":878:885   */\n      0x00\n        /* \"#utility.yul\":907:912   */\n      dup2\n        /* \"#utility.yul\":896:912   */\n      swap1\n      pop\n        /* \"#utility.yul\":841:918   */\n      swap2\n      swap1\n      pop\n      jump\t// out\n        /* \"#utility.yul\":924:1046   */\n    tag_235:\n        /* \"#utility.yul\":997:1021   */\n      tag_336\n        /* \"#utility.yul\":1015:1020   */\n      dup2\n        /* \"#utility.yul\":997:1021   */\n      tag_234\n      jump\t// in\n    tag_336:\n        /* \"#utility.yul\":990:995   */\n      dup2\n        /* \"#utility.yul\":987:1022   */\n      eq\n        /* \"#utility.yul\":977:1040   */\n      tag_337\n      jumpi\n        /* \"#utility.yul\":1036:1037   */\n      0x00\n        /* \"#utility.yul\":1033:1034   */\n      dup1\n        /* \"#utility.yul\":1026:1038   */\n      revert\n        /* \"#utility.yul\":977:1040   */\n    tag_337:\n        /* \"#utility.yul\":924:1046   */\n      pop\n      jump\t// out\n        /* \"#utility.yul\":1052:1191   */\n    tag_236:\n        /* \"#utility.yul\":1098:1103   */\n      0x00\n        /* \"#utility.yul\":1136:1142   */\n      dup2\n        /* \"#utility.yul\":1123:1143   */\n      calldataload\n        /* \"#utility.yul\":1114:1143   */\n      swap1\n      pop\n        /* \"#utility.yul\":1152:1185   */\n      tag_339\n        /* \"#utility.yul\":1179:1184   */\n      dup2\n        /* \"#utility.yul\":1152:1185   */\n      tag_235\n      jump\t// in\n    tag_339:\n        /* \"#utility.yul\":1052:1191   */\n      swap3\n      swap2\n      pop\n      pop\n      jump\t// out\n        /* \"#utility.yul\":1197:1671   */\n    tag_20:\n        /* \"#utility.yul\":1265:1271   */\n      0x00\n        /* \"#utility.yul\":1273:1279   */\n      dup1\n        /* \"#utility.yul\":1322:1324   */\n      0x40\n        /* \"#utility.yul\":1310:1319   */\n      dup4\n        /* \"#utility.yul\":1301:1308   */\n      dup6\n        /* \"#utility.yul\":1297:1320   */\n      sub\n        /* \"#utility.yul\":1293:1325   */\n      slt\n        /* \"#utility.yul\":1290:1409   */\n      iszero\n      tag_341\n      jumpi\n        /* \"#utility.yul\":1328:1407   */\n      tag_342\n      tag_228\n      jump\t// in\n    tag_342:\n        /* \"#utility.yul\":1290:1409   */\n    tag_341:\n        /* \"#utility.yul\":1448:1449   */\n      0x00\n        /* \"#utility.yul\":1473:1526   */\n      tag_343\n        /* \"#utility.yul\":1518:1525   */\n      dup6\n        /* \"#utility.yul\":1509:1515   */\n      dup3\n        /* \"#utility.yul\":1498:1507   */\n      dup7\n        /* \"#utility.yul\":1494:1516   */\n      add\n        /* \"#utility.yul\":1473:1526   */\n      tag_233\n      jump\t// in\n    tag_343:\n        /* \"#utility.yul\":1463:1526   */\n      swap3\n      pop\n        /* \"#utility.yul\":1419:1536   */\n      pop\n        /* \"#utility.yul\":1575:1577   */\n      0x20\n        /* \"#utility.yul\":1601:1654   */\n      tag_344\n        /* \"#utility.yul\":1646:1653   */\n      dup6\n        /* \"#utility.yul\":1637:1643   */\n      dup3\n        /* \"#utility.yul\":1626:1635   */\n      dup7\n        /* \"#utility.yul\":1622:1644   */\n      add\n        /* \"#utility.yul\":1601:1654   */\n      tag_236\n      jump\t// in\n    tag_344:\n        /* \"#utility.yul\":1591:1654   */\n      swap2\n      pop\n        /* \"#utility.yul\":1546:1664   */\n      pop\n        /* \"#utility.yul\":1197:1671   */\n      swap3\n      pop\n      swap3\n      swap1\n      pop\n      jump\t// out\n        /* \"#utility.yul\":1677:2006   */\n    tag_24:\n        /* \"#utility.yul\":1736:1742   */\n      0x00\n        /* \"#utility.yul\":1785:1787   */\n      0x20\n        /* \"#utility.yul\":1773:1782   */\n      dup3\n        /* \"#utility.yul\":1764:1771   */\n      dup5\n        /* \"#utility.yul\":1760:1783   */\n      sub\n        /* \"#utility.yul\":1756:1788   */\n      slt\n        /* \"#utility.yul\":1753:1872   */\n      iszero\n      tag_346\n      jumpi\n        /* \"#utility.yul\":1791:1870   */\n      tag_347\n      tag_228\n      jump\t// in\n    tag_347:\n        /* \"#utility.yul\":1753:1872   */\n    tag_346:\n        /* \"#utility.yul\":1911:1912   */\n      0x00\n        /* \"#utility.yul\":1936:1989   */\n      tag_348\n        /* \"#utility.yul\":1981:1988   */\n      dup5\n        /* \"#utility.yul\":1972:1978   */\n      dup3\n        /* \"#utility.yul\":1961:1970   */\n      dup6\n        /* \"#utility.yul\":1957:1979   */\n      add\n        /* \"#utility.yul\":1936:1989   */\n      tag_236\n      jump\t// in\n    tag_348:\n        /* \"#utility.yul\":1926:1989   */\n      swap2\n      pop\n        /* \"#utility.yul\":1882:1999   */\n      pop\n        /* \"#utility.yul\":1677:2006   */\n      swap3\n      swap2\n      pop\n      pop\n      jump\t// out\n        /* \"#utility.yul\":2012:2130   */\n    tag_237:\n        /* \"#utility.yul\":2099:2123   */\n      tag_350\n        /* \"#utility.yul\":2117:2122   */\n      dup2\n        /* \"#utility.yul\":2099:2123   */\n      tag_234\n      jump\t// in\n    tag_350:\n        /* \"#utility.yul\":2094:2097   */\n      dup3\n        /* \"#utility.yul\":2087:2124   */\n      mstore\n        /* \"#utility.yul\":2012:2130   */\n      pop\n      pop\n      jump\t// out\n        /* \"#utility.yul\":2136:2358   */\n    tag_27:\n        /* \"#utility.yul\":2229:2233   */\n      0x00\n        /* \"#utility.yul\":2267:2269   */\n      0x20\n        /* \"#utility.yul\":2256:2265   */\n      dup3\n        /* \"#utility.yul\":2252:2270   */\n      add\n        /* \"#utility.yul\":2244:2270   */\n      swap1\n      pop\n        /* \"#utility.yul\":2280:2351   */\n      tag_352\n        /* \"#utility.yul\":2348:2349   */\n      0x00\n        /* \"#utility.yul\":2337:2346   */\n      dup4\n        /* \"#utility.yul\":2333:2350   */\n      add\n        /* \"#utility.yul\":2324:2330   */\n      dup5\n        /* \"#utility.yul\":2280:2351   */\n      tag_237\n      jump\t// in\n    tag_352:\n        /* \"#utility.yul\":2136:2358   */\n      swap3\n      swap2\n      pop\n      pop\n      jump\t// out\n        /* \"#utility.yul\":2364:2693   */\n    tag_30:\n        /* \"#utility.yul\":2423:2429   */\n      0x00\n        /* \"#utility.yul\":2472:2474   */\n      0x20\n        /* \"#utility.yul\":2460:2469   */\n      dup3\n        /* \"#utility.yul\":2451:2458   */\n      dup5\n        /* \"#utility.yul\":2447:2470   */\n      sub\n        /* \"#utility.yul\":2443:2475   */\n      slt\n        /* \"#utility.yul\":2440:2559   */\n      iszero\n      tag_354\n      jumpi\n        /* \"#utility.yul\":2478:2557   */\n      tag_355\n      tag_228\n      jump\t// in\n    tag_355:\n        /* \"#utility.yul\":2440:2559   */\n    tag_354:\n        /* \"#utility.yul\":2598:2599   */\n      0x00\n        /* \"#utility.yul\":2623:2676   */\n      tag_356\n        /* \"#utility.yul\":2668:2675   */\n      dup5\n        /* \"#utility.yul\":2659:2665   */\n      dup3\n        /* \"#utility.yul\":2648:2657   */\n      dup6\n        /* \"#utility.yul\":2644:2666   */\n      add\n        /* \"#utility.yul\":2623:2676   */\n      tag_233\n      jump\t// in\n    tag_356:\n        /* \"#utility.yul\":2613:2676   */\n      swap2\n      pop\n        /* \"#utility.yul\":2569:2686   */\n      pop\n        /* \"#utility.yul\":2364:2693   */\n      swap3\n      swap2\n      pop\n      pop\n      jump\t// out\n        /* \"#utility.yul\":2699:2798   */\n    tag_238:\n        /* \"#utility.yul\":2751:2757   */\n      0x00\n        /* \"#utility.yul\":2785:2790   */\n      dup2\n        /* \"#utility.yul\":2779:2791   */\n      mload\n        /* \"#utility.yul\":2769:2791   */\n      swap1\n      pop\n        /* \"#utility.yul\":2699:2798   */\n      swap2\n      swap1\n      pop\n      jump\t// out\n        /* \"#utility.yul\":2804:2973   */\n    tag_239:\n        /* \"#utility.yul\":2888:2899   */\n      0x00\n        /* \"#utility.yul\":2922:2928   */\n      dup3\n        /* \"#utility.yul\":2917:2920   */\n      dup3\n        /* \"#utility.yul\":2910:2929   */\n      mstore\n        /* \"#utility.yul\":2962:2966   */\n      0x20\n        /* \"#utility.yul\":2957:2960   */\n      dup3\n        /* \"#utility.yul\":2953:2967   */\n      add\n        /* \"#utility.yul\":2938:2967   */\n      swap1\n      pop\n        /* \"#utility.yul\":2804:2973   */\n      swap3\n      swap2\n      pop\n      pop\n      jump\t// out\n        /* \"#utility.yul\":2979:3286   */\n    tag_240:\n        /* \"#utility.yul\":3047:3048   */\n      0x00\n        /* \"#utility.yul\":3057:3170   */\n    tag_360:\n        /* \"#utility.yul\":3071:3077   */\n      dup4\n        /* \"#utility.yul\":3068:3069   */\n      dup2\n        /* \"#utility.yul\":3065:3078   */\n      lt\n        /* \"#utility.yul\":3057:3170   */\n      iszero\n      tag_362\n      jumpi\n        /* \"#utility.yul\":3156:3157   */\n      dup1\n        /* \"#utility.yul\":3151:3154   */\n      dup3\n        /* \"#utility.yul\":3147:3158   */\n      add\n        /* \"#utility.yul\":3141:3159   */\n      mload\n        /* \"#utility.yul\":3137:3138   */\n      dup2\n        /* \"#utility.yul\":3132:3135   */\n      dup5\n        /* \"#utility.yul\":3128:3139   */\n      add\n        /* \"#utility.yul\":3121:3160   */\n      mstore\n        /* \"#utility.yul\":3093:3095   */\n      0x20\n        /* \"#utility.yul\":3090:3091   */\n      dup2\n        /* \"#utility.yul\":3086:3096   */\n      add\n        /* \"#utility.yul\":3081:3096   */\n      swap1\n      pop\n        /* \"#utility.yul\":3057:3170   */\n      jump(tag_360)\n    tag_362:\n        /* \"#utility.yul\":3188:3194   */\n      dup4\n        /* \"#utility.yul\":3185:3186   */\n      dup2\n        /* \"#utility.yul\":3182:3195   */\n      gt\n        /* \"#utility.yul\":3179:3280   */\n      iszero\n      tag_363\n      jumpi\n        /* \"#utility.yul\":3268:3269   */\n      0x00\n        /* \"#utility.yul\":3259:3265   */\n      dup5\n        /* \"#utility.yul\":3254:3257   */\n      dup5\n        /* \"#utility.yul\":3250:3266   */\n      add\n        /* \"#utility.yul\":3243:3270   */\n      mstore\n        /* \"#utility.yul\":3179:3280   */\n    tag_363:\n        /* \"#utility.yul\":3028:3286   */\n      pop\n        /* \"#utility.yul\":2979:3286   */\n      pop\n      pop\n      pop\n      jump\t// out\n        /* \"#utility.yul\":3292:3394   */\n    tag_241:\n        /* \"#utility.yul\":3333:3339   */\n      0x00\n        /* \"#utility.yul\":3384:3386   */\n      0x1f\n        /* \"#utility.yul\":3380:3387   */\n      not\n        /* \"#utility.yul\":3375:3377   */\n      0x1f\n        /* \"#utility.yul\":3368:3373   */\n      dup4\n        /* \"#utility.yul\":3364:3378   */\n      add\n        /* \"#utility.yul\":3360:3388   */\n      and\n        /* \"#utility.yul\":3350:3388   */\n      swap1\n      pop\n        /* \"#utility.yul\":3292:3394   */\n      swap2\n      swap1\n      pop\n      jump\t// out\n        /* \"#utility.yul\":3400:3764   */\n    tag_242:\n        /* \"#utility.yul\":3488:3491   */\n      0x00\n        /* \"#utility.yul\":3516:3555   */\n      tag_366\n        /* \"#utility.yul\":3549:3554   */\n      dup3\n        /* \"#utility.yul\":3516:3555   */\n      tag_238\n      jump\t// in\n    tag_366:\n        /* \"#utility.yul\":3571:3642   */\n      tag_367\n        /* \"#utility.yul\":3635:3641   */\n      dup2\n        /* \"#utility.yul\":3630:3633   */\n      dup6\n        /* \"#utility.yul\":3571:3642   */\n      tag_239\n      jump\t// in\n    tag_367:\n        /* \"#utility.yul\":3564:3642   */\n      swap4\n      pop\n        /* \"#utility.yul\":3651:3703   */\n      tag_368\n        /* \"#utility.yul\":3696:3702   */\n      dup2\n        /* \"#utility.yul\":3691:3694   */\n      dup6\n        /* \"#utility.yul\":3684:3688   */\n      0x20\n        /* \"#utility.yul\":3677:3682   */\n      dup7\n        /* \"#utility.yul\":3673:3689   */\n      add\n        /* \"#utility.yul\":3651:3703   */\n      tag_240\n      jump\t// in\n    tag_368:\n        /* \"#utility.yul\":3728:3757   */\n      tag_369\n        /* \"#utility.yul\":3750:3756   */\n      dup2\n        /* \"#utility.yul\":3728:3757   */\n      tag_241\n      jump\t// in\n    tag_369:\n        /* \"#utility.yul\":3723:3726   */\n      dup5\n        /* \"#utility.yul\":3719:3758   */\n      add\n        /* \"#utility.yul\":3712:3758   */\n      swap2\n      pop\n        /* \"#utility.yul\":3492:3764   */\n      pop\n        /* \"#utility.yul\":3400:3764   */\n      swap3\n      swap2\n      pop\n      pop\n      jump\t// out\n        /* \"#utility.yul\":3770:3888   */\n    tag_243:\n        /* \"#utility.yul\":3857:3881   */\n      tag_371\n        /* \"#utility.yul\":3875:3880   */\n      dup2\n        /* \"#utility.yul\":3857:3881   */\n      tag_231\n      jump\t// in\n    tag_371:\n        /* \"#utility.yul\":3852:3855   */\n      dup3\n        /* \"#utility.yul\":3845:3882   */\n      mstore\n        /* \"#utility.yul\":3770:3888   */\n      pop\n      pop\n      jump\t// out\n        /* \"#utility.yul\":3894:3987   */\n    tag_244:\n        /* \"#utility.yul\":3930:3937   */\n      0x00\n        /* \"#utility.yul\":3970:3980   */\n      0xffffffff\n        /* \"#utility.yul\":3963:3968   */\n      dup3\n        /* \"#utility.yul\":3959:3981   */\n      and\n        /* \"#utility.yul\":3948:3981   */\n      swap1\n      pop\n        /* \"#utility.yul\":3894:3987   */\n      swap2\n      swap1\n      pop\n      jump\t// out\n        /* \"#utility.yul\":3993:4108   */\n    tag_245:\n        /* \"#utility.yul\":4078:4101   */\n      tag_374\n        /* \"#utility.yul\":4095:4100   */\n      dup2\n        /* \"#utility.yul\":4078:4101   */\n      tag_244\n      jump\t// in\n    tag_374:\n        /* \"#utility.yul\":4073:4076   */\n      dup3\n        /* \"#utility.yul\":4066:4102   */\n      mstore\n        /* \"#utility.yul\":3993:4108   */\n      pop\n      pop\n      jump\t// out\n        /* \"#utility.yul\":4114:4204   */\n    tag_246:\n        /* \"#utility.yul\":4148:4155   */\n      0x00\n        /* \"#utility.yul\":4191:4196   */\n      dup2\n        /* \"#utility.yul\":4184:4197   */\n      iszero\n        /* \"#utility.yul\":4177:4198   */\n      iszero\n        /* \"#utility.yul\":4166:4198   */\n      swap1\n      pop\n        /* \"#utility.yul\":4114:4204   */\n      swap2\n      swap1\n      pop\n      jump\t// out\n        /* \"#utility.yul\":4210:4319   */\n    tag_247:\n        /* \"#utility.yul\":4291:4312   */\n      tag_377\n        /* \"#utility.yul\":4306:4311   */\n      dup2\n        /* \"#utility.yul\":4291:4312   */\n      tag_246\n      jump\t// in\n    tag_377:\n        /* \"#utility.yul\":4286:4289   */\n      dup3\n        /* \"#utility.yul\":4279:4313   */\n      mstore\n        /* \"#utility.yul\":4210:4319   */\n      pop\n      pop\n      jump\t// out\n        /* \"#utility.yul\":4325:5060   */\n    tag_37:\n        /* \"#utility.yul\":4540:4544   */\n      0x00\n        /* \"#utility.yul\":4578:4581   */\n      0xa0\n        /* \"#utility.yul\":4567:4576   */\n      dup3\n        /* \"#utility.yul\":4563:4582   */\n      add\n        /* \"#utility.yul\":4555:4582   */\n      swap1\n      pop\n        /* \"#utility.yul\":4628:4637   */\n      dup2\n        /* \"#utility.yul\":4622:4626   */\n      dup2\n        /* \"#utility.yul\":4618:4638   */\n      sub\n        /* \"#utility.yul\":4614:4615   */\n      0x00\n        /* \"#utility.yul\":4603:4612   */\n      dup4\n        /* \"#utility.yul\":4599:4616   */\n      add\n        /* \"#utility.yul\":4592:4639   */\n      mstore\n        /* \"#utility.yul\":4656:4734   */\n      tag_379\n        /* \"#utility.yul\":4729:4733   */\n      dup2\n        /* \"#utility.yul\":4720:4726   */\n      dup9\n        /* \"#utility.yul\":4656:4734   */\n      tag_242\n      jump\t// in\n    tag_379:\n        /* \"#utility.yul\":4648:4734   */\n      swap1\n      pop\n        /* \"#utility.yul\":4744:4816   */\n      tag_380\n        /* \"#utility.yul\":4812:4814   */\n      0x20\n        /* \"#utility.yul\":4801:4810   */\n      dup4\n        /* \"#utility.yul\":4797:4815   */\n      add\n        /* \"#utility.yul\":4788:4794   */\n      dup8\n        /* \"#utility.yul\":4744:4816   */\n      tag_243\n      jump\t// in\n    tag_380:\n        /* \"#utility.yul\":4826:4896   */\n      tag_381\n        /* \"#utility.yul\":4892:4894   */\n      0x40\n        /* \"#utility.yul\":4881:4890   */\n      dup4\n        /* \"#utility.yul\":4877:4895   */\n      add\n        /* \"#utility.yul\":4868:4874   */\n      dup7\n        /* \"#utility.yul\":4826:4896   */\n      tag_245\n      jump\t// in\n    tag_381:\n        /* \"#utility.yul\":4906:4976   */\n      tag_382\n        /* \"#utility.yul\":4972:4974   */\n      0x60\n        /* \"#utility.yul\":4961:4970   */\n      dup4\n        /* \"#utility.yul\":4957:4975   */\n      add\n        /* \"#utility.yul\":4948:4954   */\n      dup6\n        /* \"#utility.yul\":4906:4976   */\n      tag_245\n      jump\t// in\n    tag_382:\n        /* \"#utility.yul\":4986:5053   */\n      tag_383\n        /* \"#utility.yul\":5048:5051   */\n      0x80\n        /* \"#utility.yul\":5037:5046   */\n      dup4\n        /* \"#utility.yul\":5033:5052   */\n      add\n        /* \"#utility.yul\":5024:5030   */\n      dup5\n        /* \"#utility.yul\":4986:5053   */\n      tag_247\n      jump\t// in\n    tag_383:\n        /* \"#utility.yul\":4325:5060   */\n      swap7\n      swap6\n      pop\n      pop\n      pop\n      pop\n      pop\n      pop\n      jump\t// out\n        /* \"#utility.yul\":5066:5180   */\n    tag_248:\n        /* \"#utility.yul\":5133:5139   */\n      0x00\n        /* \"#utility.yul\":5167:5172   */\n      dup2\n        /* \"#utility.yul\":5161:5173   */\n      mload\n        /* \"#utility.yul\":5151:5173   */\n      swap1\n      pop\n        /* \"#utility.yul\":5066:5180   */\n      swap2\n      swap1\n      pop\n      jump\t// out\n        /* \"#utility.yul\":5186:5370   */\n    tag_249:\n        /* \"#utility.yul\":5285:5296   */\n      0x00\n        /* \"#utility.yul\":5319:5325   */\n      dup3\n        /* \"#utility.yul\":5314:5317   */\n      dup3\n        /* \"#utility.yul\":5307:5326   */\n      mstore\n        /* \"#utility.yul\":5359:5363   */\n      0x20\n        /* \"#utility.yul\":5354:5357   */\n      dup3\n        /* \"#utility.yul\":5350:5364   */\n      add\n        /* \"#utility.yul\":5335:5364   */\n      swap1\n      pop\n        /* \"#utility.yul\":5186:5370   */\n      swap3\n      swap2\n      pop\n      pop\n      jump\t// out\n        /* \"#utility.yul\":5376:5508   */\n    tag_250:\n        /* \"#utility.yul\":5443:5447   */\n      0x00\n        /* \"#utility.yul\":5466:5469   */\n      dup2\n        /* \"#utility.yul\":5458:5469   */\n      swap1\n      pop\n        /* \"#utility.yul\":5496:5500   */\n      0x20\n        /* \"#utility.yul\":5491:5494   */\n      dup3\n        /* \"#utility.yul\":5487:5501   */\n      add\n        /* \"#utility.yul\":5479:5501   */\n      swap1\n      pop\n        /* \"#utility.yul\":5376:5508   */\n      swap2\n      swap1\n      pop\n      jump\t// out\n        /* \"#utility.yul\":5514:5622   */\n    tag_251:\n        /* \"#utility.yul\":5591:5615   */\n      tag_388\n        /* \"#utility.yul\":5609:5614   */\n      dup2\n        /* \"#utility.yul\":5591:5615   */\n      tag_231\n      jump\t// in\n    tag_388:\n        /* \"#utility.yul\":5586:5589   */\n      dup3\n        /* \"#utility.yul\":5579:5616   */\n      mstore\n        /* \"#utility.yul\":5514:5622   */\n      pop\n      pop\n      jump\t// out\n        /* \"#utility.yul\":5628:5807   */\n    tag_252:\n        /* \"#utility.yul\":5697:5707   */\n      0x00\n        /* \"#utility.yul\":5718:5764   */\n      tag_390\n        /* \"#utility.yul\":5760:5763   */\n      dup4\n        /* \"#utility.yul\":5752:5758   */\n      dup4\n        /* \"#utility.yul\":5718:5764   */\n      tag_251\n      jump\t// in\n    tag_390:\n        /* \"#utility.yul\":5796:5800   */\n      0x20\n        /* \"#utility.yul\":5791:5794   */\n      dup4\n        /* \"#utility.yul\":5787:5801   */\n      add\n        /* \"#utility.yul\":5773:5801   */\n      swap1\n      pop\n        /* \"#utility.yul\":5628:5807   */\n      swap3\n      swap2\n      pop\n      pop\n      jump\t// out\n        /* \"#utility.yul\":5813:5926   */\n    tag_253:\n        /* \"#utility.yul\":5883:5887   */\n      0x00\n        /* \"#utility.yul\":5915:5919   */\n      0x20\n        /* \"#utility.yul\":5910:5913   */\n      dup3\n        /* \"#utility.yul\":5906:5920   */\n      add\n        /* \"#utility.yul\":5898:5920   */\n      swap1\n      pop\n        /* \"#utility.yul\":5813:5926   */\n      swap2\n      swap1\n      pop\n      jump\t// out\n        /* \"#utility.yul\":5962:6694   */\n    tag_254:\n        /* \"#utility.yul\":6081:6084   */\n      0x00\n        /* \"#utility.yul\":6110:6164   */\n      tag_393\n        /* \"#utility.yul\":6158:6163   */\n      dup3\n        /* \"#utility.yul\":6110:6164   */\n      tag_248\n      jump\t// in\n    tag_393:\n        /* \"#utility.yul\":6180:6266   */\n      tag_394\n        /* \"#utility.yul\":6259:6265   */\n      dup2\n        /* \"#utility.yul\":6254:6257   */\n      dup6\n        /* \"#utility.yul\":6180:6266   */\n      tag_249\n      jump\t// in\n    tag_394:\n        /* \"#utility.yul\":6173:6266   */\n      swap4\n      pop\n        /* \"#utility.yul\":6290:6346   */\n      tag_395\n        /* \"#utility.yul\":6340:6345   */\n      dup4\n        /* \"#utility.yul\":6290:6346   */\n      tag_250\n      jump\t// in\n    tag_395:\n        /* \"#utility.yul\":6369:6376   */\n      dup1\n        /* \"#utility.yul\":6400:6401   */\n      0x00\n        /* \"#utility.yul\":6385:6669   */\n    tag_396:\n        /* \"#utility.yul\":6410:6416   */\n      dup4\n        /* \"#utility.yul\":6407:6408   */\n      dup2\n        /* \"#utility.yul\":6404:6417   */\n      lt\n        /* \"#utility.yul\":6385:6669   */\n      iszero\n      tag_398\n      jumpi\n        /* \"#utility.yul\":6486:6492   */\n      dup2\n        /* \"#utility.yul\":6480:6493   */\n      mload\n        /* \"#utility.yul\":6513:6576   */\n      tag_399\n        /* \"#utility.yul\":6572:6575   */\n      dup9\n        /* \"#utility.yul\":6557:6570   */\n      dup3\n        /* \"#utility.yul\":6513:6576   */\n      tag_252\n      jump\t// in\n    tag_399:\n        /* \"#utility.yul\":6506:6576   */\n      swap8\n      pop\n        /* \"#utility.yul\":6599:6659   */\n      tag_400\n        /* \"#utility.yul\":6652:6658   */\n      dup4\n        /* \"#utility.yul\":6599:6659   */\n      tag_253\n      jump\t// in\n    tag_400:\n        /* \"#utility.yul\":6589:6659   */\n      swap3\n      pop\n        /* \"#utility.yul\":6445:6669   */\n      pop\n        /* \"#utility.yul\":6432:6433   */\n      0x01\n        /* \"#utility.yul\":6429:6430   */\n      dup2\n        /* \"#utility.yul\":6425:6434   */\n      add\n        /* \"#utility.yul\":6420:6434   */\n      swap1\n      pop\n        /* \"#utility.yul\":6385:6669   */\n      jump(tag_396)\n    tag_398:\n        /* \"#utility.yul\":6389:6403   */\n      pop\n        /* \"#utility.yul\":6685:6688   */\n      dup6\n        /* \"#utility.yul\":6678:6688   */\n      swap4\n      pop\n        /* \"#utility.yul\":6086:6694   */\n      pop\n      pop\n      pop\n        /* \"#utility.yul\":5962:6694   */\n      swap3\n      swap2\n      pop\n      pop\n      jump\t// out\n        /* \"#utility.yul\":6700:7073   */\n    tag_42:\n        /* \"#utility.yul\":6843:6847   */\n      0x00\n        /* \"#utility.yul\":6881:6883   */\n      0x20\n        /* \"#utility.yul\":6870:6879   */\n      dup3\n        /* \"#utility.yul\":6866:6884   */\n      add\n        /* \"#utility.yul\":6858:6884   */\n      swap1\n      pop\n        /* \"#utility.yul\":6930:6939   */\n      dup2\n        /* \"#utility.yul\":6924:6928   */\n      dup2\n        /* \"#utility.yul\":6920:6940   */\n      sub\n        /* \"#utility.yul\":6916:6917   */\n      0x00\n        /* \"#utility.yul\":6905:6914   */\n      dup4\n        /* \"#utility.yul\":6901:6918   */\n      add\n        /* \"#utility.yul\":6894:6941   */\n      mstore\n        /* \"#utility.yul\":6958:7066   */\n      tag_402\n        /* \"#utility.yul\":7061:7065   */\n      dup2\n        /* \"#utility.yul\":7052:7058   */\n      dup5\n        /* \"#utility.yul\":6958:7066   */\n      tag_254\n      jump\t// in\n    tag_402:\n        /* \"#utility.yul\":6950:7066   */\n      swap1\n      pop\n        /* \"#utility.yul\":6700:7073   */\n      swap3\n      swap2\n      pop\n      pop\n      jump\t// out\n        /* \"#utility.yul\":7079:7193   */\n    tag_255:\n        /* \"#utility.yul\":7146:7152   */\n      0x00\n        /* \"#utility.yul\":7180:7185   */\n      dup2\n        /* \"#utility.yul\":7174:7186   */\n      mload\n        /* \"#utility.yul\":7164:7186   */\n      swap1\n      pop\n        /* \"#utility.yul\":7079:7193   */\n      swap2\n      swap1\n      pop\n      jump\t// out\n        /* \"#utility.yul\":7199:7383   */\n    tag_256:\n        /* \"#utility.yul\":7298:7309   */\n      0x00\n        /* \"#utility.yul\":7332:7338   */\n      dup3\n        /* \"#utility.yul\":7327:7330   */\n      dup3\n        /* \"#utility.yul\":7320:7339   */\n      mstore\n        /* \"#utility.yul\":7372:7376   */\n      0x20\n        /* \"#utility.yul\":7367:7370   */\n      dup3\n        /* \"#utility.yul\":7363:7377   */\n      add\n        /* \"#utility.yul\":7348:7377   */\n      swap1\n      pop\n        /* \"#utility.yul\":7199:7383   */\n      swap3\n      swap2\n      pop\n      pop\n      jump\t// out\n        /* \"#utility.yul\":7389:7521   */\n    tag_257:\n        /* \"#utility.yul\":7456:7460   */\n      0x00\n        /* \"#utility.yul\":7479:7482   */\n      dup2\n        /* \"#utility.yul\":7471:7482   */\n      swap1\n      pop\n        /* \"#utility.yul\":7509:7513   */\n      0x20\n        /* \"#utility.yul\":7504:7507   */\n      dup3\n        /* \"#utility.yul\":7500:7514   */\n      add\n        /* \"#utility.yul\":7492:7514   */\n      swap1\n      pop\n        /* \"#utility.yul\":7389:7521   */\n      swap2\n      swap1\n      pop\n      jump\t// out\n        /* \"#utility.yul\":7527:7635   */\n    tag_258:\n        /* \"#utility.yul\":7604:7628   */\n      tag_407\n        /* \"#utility.yul\":7622:7627   */\n      dup2\n        /* \"#utility.yul\":7604:7628   */\n      tag_234\n      jump\t// in\n    tag_407:\n        /* \"#utility.yul\":7599:7602   */\n      dup3\n        /* \"#utility.yul\":7592:7629   */\n      mstore\n        /* \"#utility.yul\":7527:7635   */\n      pop\n      pop\n      jump\t// out\n        /* \"#utility.yul\":7641:7820   */\n    tag_259:\n        /* \"#utility.yul\":7710:7720   */\n      0x00\n        /* \"#utility.yul\":7731:7777   */\n      tag_409\n        /* \"#utility.yul\":7773:7776   */\n      dup4\n        /* \"#utility.yul\":7765:7771   */\n      dup4\n        /* \"#utility.yul\":7731:7777   */\n      tag_258\n      jump\t// in\n    tag_409:\n        /* \"#utility.yul\":7809:7813   */\n      0x20\n        /* \"#utility.yul\":7804:7807   */\n      dup4\n        /* \"#utility.yul\":7800:7814   */\n      add\n        /* \"#utility.yul\":7786:7814   */\n      swap1\n      pop\n        /* \"#utility.yul\":7641:7820   */\n      swap3\n      swap2\n      pop\n      pop\n      jump\t// out\n        /* \"#utility.yul\":7826:7939   */\n    tag_260:\n        /* \"#utility.yul\":7896:7900   */\n      0x00\n        /* \"#utility.yul\":7928:7932   */\n      0x20\n        /* \"#utility.yul\":7923:7926   */\n      dup3\n        /* \"#utility.yul\":7919:7933   */\n      add\n        /* \"#utility.yul\":7911:7933   */\n      swap1\n      pop\n        /* \"#utility.yul\":7826:7939   */\n      swap2\n      swap1\n      pop\n      jump\t// out\n        /* \"#utility.yul\":7975:8707   */\n    tag_261:\n        /* \"#utility.yul\":8094:8097   */\n      0x00\n        /* \"#utility.yul\":8123:8177   */\n      tag_412\n        /* \"#utility.yul\":8171:8176   */\n      dup3\n        /* \"#utility.yul\":8123:8177   */\n      tag_255\n      jump\t// in\n    tag_412:\n        /* \"#utility.yul\":8193:8279   */\n      tag_413\n        /* \"#utility.yul\":8272:8278   */\n      dup2\n        /* \"#utility.yul\":8267:8270   */\n      dup6\n        /* \"#utility.yul\":8193:8279   */\n      tag_256\n      jump\t// in\n    tag_413:\n        /* \"#utility.yul\":8186:8279   */\n      swap4\n      pop\n        /* \"#utility.yul\":8303:8359   */\n      tag_414\n        /* \"#utility.yul\":8353:8358   */\n      dup4\n        /* \"#utility.yul\":8303:8359   */\n      tag_257\n      jump\t// in\n    tag_414:\n        /* \"#utility.yul\":8382:8389   */\n      dup1\n        /* \"#utility.yul\":8413:8414   */\n      0x00\n        /* \"#utility.yul\":8398:8682   */\n    tag_415:\n        /* \"#utility.yul\":8423:8429   */\n      dup4\n        /* \"#utility.yul\":8420:8421   */\n      dup2\n        /* \"#utility.yul\":8417:8430   */\n      lt\n        /* \"#utility.yul\":8398:8682   */\n      iszero\n      tag_417\n      jumpi\n        /* \"#utility.yul\":8499:8505   */\n      dup2\n        /* \"#utility.yul\":8493:8506   */\n      mload\n        /* \"#utility.yul\":8526:8589   */\n      tag_418\n        /* \"#utility.yul\":8585:8588   */\n      dup9\n        /* \"#utility.yul\":8570:8583   */\n      dup3\n        /* \"#utility.yul\":8526:8589   */\n      tag_259\n      jump\t// in\n    tag_418:\n        /* \"#utility.yul\":8519:8589   */\n      swap8\n      pop\n        /* \"#utility.yul\":8612:8672   */\n      tag_419\n        /* \"#utility.yul\":8665:8671   */\n      dup4\n        /* \"#utility.yul\":8612:8672   */\n      tag_260\n      jump\t// in\n    tag_419:\n        /* \"#utility.yul\":8602:8672   */\n      swap3\n      pop\n        /* \"#utility.yul\":8458:8682   */\n      pop\n        /* \"#utility.yul\":8445:8446   */\n      0x01\n        /* \"#utility.yul\":8442:8443   */\n      dup2\n        /* \"#utility.yul\":8438:8447   */\n      add\n        /* \"#utility.yul\":8433:8447   */\n      swap1\n      pop\n        /* \"#utility.yul\":8398:8682   */\n      jump(tag_415)\n    tag_417:\n        /* \"#utility.yul\":8402:8416   */\n      pop\n        /* \"#utility.yul\":8698:8701   */\n      dup6\n        /* \"#utility.yul\":8691:8701   */\n      swap4\n      pop\n        /* \"#utility.yul\":8099:8707   */\n      pop\n      pop\n      pop\n        /* \"#utility.yul\":7975:8707   */\n      swap3\n      swap2\n      pop\n      pop\n      jump\t// out\n        /* \"#utility.yul\":8713:9306   */\n    tag_47:\n        /* \"#utility.yul\":8912:8916   */\n      0x00\n        /* \"#utility.yul\":8950:8952   */\n      0x60\n        /* \"#utility.yul\":8939:8948   */\n      dup3\n        /* \"#utility.yul\":8935:8953   */\n      add\n        /* \"#utility.yul\":8927:8953   */\n      swap1\n      pop\n        /* \"#utility.yul\":8999:9008   */\n      dup2\n        /* \"#utility.yul\":8993:8997   */\n      dup2\n        /* \"#utility.yul\":8989:9009   */\n      sub\n        /* \"#utility.yul\":8985:8986   */\n      0x00\n        /* \"#utility.yul\":8974:8983   */\n      dup4\n        /* \"#utility.yul\":8970:8987   */\n      add\n        /* \"#utility.yul\":8963:9010   */\n      mstore\n        /* \"#utility.yul\":9027:9135   */\n      tag_421\n        /* \"#utility.yul\":9130:9134   */\n      dup2\n        /* \"#utility.yul\":9121:9127   */\n      dup7\n        /* \"#utility.yul\":9027:9135   */\n      tag_261\n      jump\t// in\n    tag_421:\n        /* \"#utility.yul\":9019:9135   */\n      swap1\n      pop\n        /* \"#utility.yul\":9145:9217   */\n      tag_422\n        /* \"#utility.yul\":9213:9215   */\n      0x20\n        /* \"#utility.yul\":9202:9211   */\n      dup4\n        /* \"#utility.yul\":9198:9216   */\n      add\n        /* \"#utility.yul\":9189:9195   */\n      dup6\n        /* \"#utility.yul\":9145:9217   */\n      tag_243\n      jump\t// in\n    tag_422:\n        /* \"#utility.yul\":9227:9299   */\n      tag_423\n        /* \"#utility.yul\":9295:9297   */\n      0x40\n        /* \"#utility.yul\":9284:9293   */\n      dup4\n        /* \"#utility.yul\":9280:9298   */\n      add\n        /* \"#utility.yul\":9271:9277   */\n      dup5\n        /* \"#utility.yul\":9227:9299   */\n      tag_237\n      jump\t// in\n    tag_423:\n        /* \"#utility.yul\":8713:9306   */\n      swap5\n      swap4\n      pop\n      pop\n      pop\n      pop\n      jump\t// out\n        /* \"#utility.yul\":9312:10077   */\n    tag_54:\n        /* \"#utility.yul\":9398:9404   */\n      0x00\n        /* \"#utility.yul\":9406:9412   */\n      dup1\n        /* \"#utility.yul\":9414:9420   */\n      0x00\n        /* \"#utility.yul\":9422:9428   */\n      dup1\n        /* \"#utility.yul\":9471:9474   */\n      0x80\n        /* \"#utility.yul\":9459:9468   */\n      dup6\n        /* \"#utility.yul\":9450:9457   */\n      dup8\n        /* \"#utility.yul\":9446:9469   */\n      sub\n        /* \"#utility.yul\":9442:9475   */\n      slt\n        /* \"#utility.yul\":9439:9559   */\n      iszero\n      tag_425\n      jumpi\n        /* \"#utility.yul\":9478:9557   */\n      tag_426\n      tag_228\n      jump\t// in\n    tag_426:\n        /* \"#utility.yul\":9439:9559   */\n    tag_425:\n        /* \"#utility.yul\":9598:9599   */\n      0x00\n        /* \"#utility.yul\":9623:9676   */\n      tag_427\n        /* \"#utility.yul\":9668:9675   */\n      dup8\n        /* \"#utility.yul\":9659:9665   */\n      dup3\n        /* \"#utility.yul\":9648:9657   */\n      dup9\n        /* \"#utility.yul\":9644:9666   */\n      add\n        /* \"#utility.yul\":9623:9676   */\n      tag_233\n      jump\t// in\n    tag_427:\n        /* \"#utility.yul\":9613:9676   */\n      swap5\n      pop\n        /* \"#utility.yul\":9569:9686   */\n      pop\n        /* \"#utility.yul\":9725:9727   */\n      0x20\n        /* \"#utility.yul\":9751:9804   */\n      tag_428\n        /* \"#utility.yul\":9796:9803   */\n      dup8\n        /* \"#utility.yul\":9787:9793   */\n      dup3\n        /* \"#utility.yul\":9776:9785   */\n      dup9\n        /* \"#utility.yul\":9772:9794   */\n      add\n        /* \"#utility.yul\":9751:9804   */\n      tag_236\n      jump\t// in\n    tag_428:\n        /* \"#utility.yul\":9741:9804   */\n      swap4\n      pop\n        /* \"#utility.yul\":9696:9814   */\n      pop\n        /* \"#utility.yul\":9853:9855   */\n      0x40\n        /* \"#utility.yul\":9879:9932   */\n      tag_429\n        /* \"#utility.yul\":9924:9931   */\n      dup8\n        /* \"#utility.yul\":9915:9921   */\n      dup3\n        /* \"#utility.yul\":9904:9913   */\n      dup9\n        /* \"#utility.yul\":9900:9922   */\n      add\n        /* \"#utility.yul\":9879:9932   */\n      tag_236\n      jump\t// in\n    tag_429:\n        /* \"#utility.yul\":9869:9932   */\n      swap3\n      pop\n        /* \"#utility.yul\":9824:9942   */\n      pop\n        /* \"#utility.yul\":9981:9983   */\n      0x60\n        /* \"#utility.yul\":10007:10060   */\n      tag_430\n        /* \"#utility.yul\":10052:10059   */\n      dup8\n        /* \"#utility.yul\":10043:10049   */\n      dup3\n        /* \"#utility.yul\":10032:10041   */\n      dup9\n        /* \"#utility.yul\":10028:10050   */\n      add\n        /* \"#utility.yul\":10007:10060   */\n      tag_236\n      jump\t// in\n    tag_430:\n        /* \"#utility.yul\":9997:10060   */\n      swap2\n      pop\n        /* \"#utility.yul\":9952:10070   */\n      pop\n        /* \"#utility.yul\":9312:10077   */\n      swap3\n      swap6\n      swap2\n      swap5\n      pop\n      swap3\n      pop\n      jump\t// out\n        /* \"#utility.yul\":10083:10160   */\n    tag_262:\n        /* \"#utility.yul\":10120:10127   */\n      0x00\n        /* \"#utility.yul\":10149:10154   */\n      dup2\n        /* \"#utility.yul\":10138:10154   */\n      swap1\n      pop\n        /* \"#utility.yul\":10083:10160   */\n      swap2\n      swap1\n      pop\n      jump\t// out\n        /* \"#utility.yul\":10166:10284   */\n    tag_263:\n        /* \"#utility.yul\":10253:10277   */\n      tag_433\n        /* \"#utility.yul\":10271:10276   */\n      dup2\n        /* \"#utility.yul\":10253:10277   */\n      tag_262\n      jump\t// in\n    tag_433:\n        /* \"#utility.yul\":10248:10251   */\n      dup3\n        /* \"#utility.yul\":10241:10278   */\n      mstore\n        /* \"#utility.yul\":10166:10284   */\n      pop\n      pop\n      jump\t// out\n        /* \"#utility.yul\":10290:10512   */\n    tag_57:\n        /* \"#utility.yul\":10383:10387   */\n      0x00\n        /* \"#utility.yul\":10421:10423   */\n      0x20\n        /* \"#utility.yul\":10410:10419   */\n      dup3\n        /* \"#utility.yul\":10406:10424   */\n      add\n        /* \"#utility.yul\":10398:10424   */\n      swap1\n      pop\n        /* \"#utility.yul\":10434:10505   */\n      tag_435\n        /* \"#utility.yul\":10502:10503   */\n      0x00\n        /* \"#utility.yul\":10491:10500   */\n      dup4\n        /* \"#utility.yul\":10487:10504   */\n      add\n        /* \"#utility.yul\":10478:10484   */\n      dup5\n        /* \"#utility.yul\":10434:10505   */\n      tag_263\n      jump\t// in\n    tag_435:\n        /* \"#utility.yul\":10290:10512   */\n      swap3\n      swap2\n      pop\n      pop\n      jump\t// out\n        /* \"#utility.yul\":10518:10635   */\n    tag_264:\n        /* \"#utility.yul\":10627:10628   */\n      0x00\n        /* \"#utility.yul\":10624:10625   */\n      dup1\n        /* \"#utility.yul\":10617:10629   */\n      revert\n        /* \"#utility.yul\":10641:10758   */\n    tag_265:\n        /* \"#utility.yul\":10750:10751   */\n      0x00\n        /* \"#utility.yul\":10747:10748   */\n      dup1\n        /* \"#utility.yul\":10740:10752   */\n      revert\n        /* \"#utility.yul\":10764:10944   */\n    tag_110:\n        /* \"#utility.yul\":10812:10889   */\n      0x4e487b7100000000000000000000000000000000000000000000000000000000\n        /* \"#utility.yul\":10809:10810   */\n      0x00\n        /* \"#utility.yul\":10802:10890   */\n      mstore\n        /* \"#utility.yul\":10909:10913   */\n      0x41\n        /* \"#utility.yul\":10906:10907   */\n      0x04\n        /* \"#utility.yul\":10899:10914   */\n      mstore\n        /* \"#utility.yul\":10933:10937   */\n      0x24\n        /* \"#utility.yul\":10930:10931   */\n      0x00\n        /* \"#utility.yul\":10923:10938   */\n      revert\n        /* \"#utility.yul\":10950:11231   */\n    tag_266:\n        /* \"#utility.yul\":11033:11060   */\n      tag_440\n        /* \"#utility.yul\":11055:11059   */\n      dup3\n        /* \"#utility.yul\":11033:11060   */\n      tag_241\n      jump\t// in\n    tag_440:\n        /* \"#utility.yul\":11025:11031   */\n      dup2\n        /* \"#utility.yul\":11021:11061   */\n      add\n        /* \"#utility.yul\":11163:11169   */\n      dup2\n        /* \"#utility.yul\":11151:11161   */\n      dup2\n        /* \"#utility.yul\":11148:11170   */\n      lt\n        /* \"#utility.yul\":11127:11145   */\n      0xffffffffffffffff\n        /* \"#utility.yul\":11115:11125   */\n      dup3\n        /* \"#utility.yul\":11112:11146   */\n      gt\n        /* \"#utility.yul\":11109:11171   */\n      or\n        /* \"#utility.yul\":11106:11194   */\n      iszero\n      tag_441\n      jumpi\n        /* \"#utility.yul\":11174:11192   */\n      tag_442\n      tag_110\n      jump\t// in\n    tag_442:\n        /* \"#utility.yul\":11106:11194   */\n    tag_441:\n        /* \"#utility.yul\":11214:11224   */\n      dup1\n        /* \"#utility.yul\":11210:11212   */\n      0x40\n        /* \"#utility.yul\":11203:11225   */\n      mstore\n        /* \"#utility.yul\":10993:11231   */\n      pop\n        /* \"#utility.yul\":10950:11231   */\n      pop\n      pop\n      jump\t// out\n        /* \"#utility.yul\":11237:11366   */\n    tag_267:\n        /* \"#utility.yul\":11271:11277   */\n      0x00\n        /* \"#utility.yul\":11298:11318   */\n      tag_444\n      tag_227\n      jump\t// in\n    tag_444:\n        /* \"#utility.yul\":11288:11318   */\n      swap1\n      pop\n        /* \"#utility.yul\":11327:11360   */\n      tag_445\n        /* \"#utility.yul\":11355:11359   */\n      dup3\n        /* \"#utility.yul\":11347:11353   */\n      dup3\n        /* \"#utility.yul\":11327:11360   */\n      tag_266\n      jump\t// in\n    tag_445:\n        /* \"#utility.yul\":11237:11366   */\n      swap2\n      swap1\n      pop\n      jump\t// out\n        /* \"#utility.yul\":11372:11679   */\n    tag_268:\n        /* \"#utility.yul\":11433:11437   */\n      0x00\n        /* \"#utility.yul\":11523:11541   */\n      0xffffffffffffffff\n        /* \"#utility.yul\":11515:11521   */\n      dup3\n        /* \"#utility.yul\":11512:11542   */\n      gt\n        /* \"#utility.yul\":11509:11565   */\n      iszero\n      tag_447\n      jumpi\n        /* \"#utility.yul\":11545:11563   */\n      tag_448\n      tag_110\n      jump\t// in\n    tag_448:\n        /* \"#utility.yul\":11509:11565   */\n    tag_447:\n        /* \"#utility.yul\":11583:11612   */\n      tag_449\n        /* \"#utility.yul\":11605:11611   */\n      dup3\n        /* \"#utility.yul\":11583:11612   */\n      tag_241\n      jump\t// in\n    tag_449:\n        /* \"#utility.yul\":11575:11612   */\n      swap1\n      pop\n        /* \"#utility.yul\":11667:11671   */\n      0x20\n        /* \"#utility.yul\":11661:11665   */\n      dup2\n        /* \"#utility.yul\":11657:11672   */\n      add\n        /* \"#utility.yul\":11649:11672   */\n      swap1\n      pop\n        /* \"#utility.yul\":11372:11679   */\n      swap2\n      swap1\n      pop\n      jump\t// out\n        /* \"#utility.yul\":11685:11839   */\n    tag_269:\n        /* \"#utility.yul\":11769:11775   */\n      dup3\n        /* \"#utility.yul\":11764:11767   */\n      dup2\n        /* \"#utility.yul\":11759:11762   */\n      dup4\n        /* \"#utility.yul\":11746:11776   */\n      calldatacopy\n        /* \"#utility.yul\":11831:11832   */\n      0x00\n        /* \"#utility.yul\":11822:11828   */\n      dup4\n        /* \"#utility.yul\":11817:11820   */\n      dup4\n        /* \"#utility.yul\":11813:11829   */\n      add\n        /* \"#utility.yul\":11806:11833   */\n      mstore\n        /* \"#utility.yul\":11685:11839   */\n      pop\n      pop\n      pop\n      jump\t// out\n        /* \"#utility.yul\":11845:12255   */\n    tag_270:\n        /* \"#utility.yul\":11922:11927   */\n      0x00\n        /* \"#utility.yul\":11947:12012   */\n      tag_452\n        /* \"#utility.yul\":11963:12011   */\n      tag_453\n        /* \"#utility.yul\":12004:12010   */\n      dup5\n        /* \"#utility.yul\":11963:12011   */\n      tag_268\n      jump\t// in\n    tag_453:\n        /* \"#utility.yul\":11947:12012   */\n      tag_267\n      jump\t// in\n    tag_452:\n        /* \"#utility.yul\":11938:12012   */\n      swap1\n      pop\n        /* \"#utility.yul\":12035:12041   */\n      dup3\n        /* \"#utility.yul\":12028:12033   */\n      dup2\n        /* \"#utility.yul\":12021:12042   */\n      mstore\n        /* \"#utility.yul\":12073:12077   */\n      0x20\n        /* \"#utility.yul\":12066:12071   */\n      dup2\n        /* \"#utility.yul\":12062:12078   */\n      add\n        /* \"#utility.yul\":12111:12114   */\n      dup5\n        /* \"#utility.yul\":12102:12108   */\n      dup5\n        /* \"#utility.yul\":12097:12100   */\n      dup5\n        /* \"#utility.yul\":12093:12109   */\n      add\n        /* \"#utility.yul\":12090:12115   */\n      gt\n        /* \"#utility.yul\":12087:12199   */\n      iszero\n      tag_454\n      jumpi\n        /* \"#utility.yul\":12118:12197   */\n      tag_455\n      tag_265\n      jump\t// in\n    tag_455:\n        /* \"#utility.yul\":12087:12199   */\n    tag_454:\n        /* \"#utility.yul\":12208:12249   */\n      tag_456\n        /* \"#utility.yul\":12242:12248   */\n      dup5\n        /* \"#utility.yul\":12237:12240   */\n      dup3\n        /* \"#utility.yul\":12232:12235   */\n      dup6\n        /* \"#utility.yul\":12208:12249   */\n      tag_269\n      jump\t// in\n    tag_456:\n        /* \"#utility.yul\":11928:12255   */\n      pop\n        /* \"#utility.yul\":11845:12255   */\n      swap4\n      swap3\n      pop\n      pop\n      pop\n      jump\t// out\n        /* \"#utility.yul\":12274:12612   */\n    tag_271:\n        /* \"#utility.yul\":12329:12334   */\n      0x00\n        /* \"#utility.yul\":12378:12381   */\n      dup3\n        /* \"#utility.yul\":12371:12375   */\n      0x1f\n        /* \"#utility.yul\":12363:12369   */\n      dup4\n        /* \"#utility.yul\":12359:12376   */\n      add\n        /* \"#utility.yul\":12355:12382   */\n      slt\n        /* \"#utility.yul\":12345:12467   */\n      tag_458\n      jumpi\n        /* \"#utility.yul\":12386:12465   */\n      tag_459\n      tag_264\n      jump\t// in\n    tag_459:\n        /* \"#utility.yul\":12345:12467   */\n    tag_458:\n        /* \"#utility.yul\":12503:12509   */\n      dup2\n        /* \"#utility.yul\":12490:12510   */\n      calldataload\n        /* \"#utility.yul\":12528:12606   */\n      tag_460\n        /* \"#utility.yul\":12602:12605   */\n      dup5\n        /* \"#utility.yul\":12594:12600   */\n      dup3\n        /* \"#utility.yul\":12587:12591   */\n      0x20\n        /* \"#utility.yul\":12579:12585   */\n      dup7\n        /* \"#utility.yul\":12575:12592   */\n      add\n        /* \"#utility.yul\":12528:12606   */\n      tag_270\n      jump\t// in\n    tag_460:\n        /* \"#utility.yul\":12519:12606   */\n      swap2\n      pop\n        /* \"#utility.yul\":12335:12612   */\n      pop\n        /* \"#utility.yul\":12274:12612   */\n      swap3\n      swap2\n      pop\n      pop\n      jump\t// out\n        /* \"#utility.yul\":12618:13561   */\n    tag_60:\n        /* \"#utility.yul\":12713:12719   */\n      0x00\n        /* \"#utility.yul\":12721:12727   */\n      dup1\n        /* \"#utility.yul\":12729:12735   */\n      0x00\n        /* \"#utility.yul\":12737:12743   */\n      dup1\n        /* \"#utility.yul\":12786:12789   */\n      0x80\n        /* \"#utility.yul\":12774:12783   */\n      dup6\n        /* \"#utility.yul\":12765:12772   */\n      dup8\n        /* \"#utility.yul\":12761:12784   */\n      sub\n        /* \"#utility.yul\":12757:12790   */\n      slt\n        /* \"#utility.yul\":12754:12874   */\n      iszero\n      tag_462\n      jumpi\n        /* \"#utility.yul\":12793:12872   */\n      tag_463\n      tag_228\n      jump\t// in\n    tag_463:\n        /* \"#utility.yul\":12754:12874   */\n    tag_462:\n        /* \"#utility.yul\":12913:12914   */\n      0x00\n        /* \"#utility.yul\":12938:12991   */\n      tag_464\n        /* \"#utility.yul\":12983:12990   */\n      dup8\n        /* \"#utility.yul\":12974:12980   */\n      dup3\n        /* \"#utility.yul\":12963:12972   */\n      dup9\n        /* \"#utility.yul\":12959:12981   */\n      add\n        /* \"#utility.yul\":12938:12991   */\n      tag_233\n      jump\t// in\n    tag_464:\n        /* \"#utility.yul\":12928:12991   */\n      swap5\n      pop\n        /* \"#utility.yul\":12884:13001   */\n      pop\n        /* \"#utility.yul\":13040:13042   */\n      0x20\n        /* \"#utility.yul\":13066:13119   */\n      tag_465\n        /* \"#utility.yul\":13111:13118   */\n      dup8\n        /* \"#utility.yul\":13102:13108   */\n      dup3\n        /* \"#utility.yul\":13091:13100   */\n      dup9\n        /* \"#utility.yul\":13087:13109   */\n      add\n        /* \"#utility.yul\":13066:13119   */\n      tag_236\n      jump\t// in\n    tag_465:\n        /* \"#utility.yul\":13056:13119   */\n      swap4\n      pop\n        /* \"#utility.yul\":13011:13129   */\n      pop\n        /* \"#utility.yul\":13168:13170   */\n      0x40\n        /* \"#utility.yul\":13194:13247   */\n      tag_466\n        /* \"#utility.yul\":13239:13246   */\n      dup8\n        /* \"#utility.yul\":13230:13236   */\n      dup3\n        /* \"#utility.yul\":13219:13228   */\n      dup9\n        /* \"#utility.yul\":13215:13237   */\n      add\n        /* \"#utility.yul\":13194:13247   */\n      tag_236\n      jump\t// in\n    tag_466:\n        /* \"#utility.yul\":13184:13247   */\n      swap3\n      pop\n        /* \"#utility.yul\":13139:13257   */\n      pop\n        /* \"#utility.yul\":13324:13326   */\n      0x60\n        /* \"#utility.yul\":13313:13322   */\n      dup6\n        /* \"#utility.yul\":13309:13327   */\n      add\n        /* \"#utility.yul\":13296:13328   */\n      calldataload\n        /* \"#utility.yul\":13355:13373   */\n      0xffffffffffffffff\n        /* \"#utility.yul\":13347:13353   */\n      dup2\n        /* \"#utility.yul\":13344:13374   */\n      gt\n        /* \"#utility.yul\":13341:13458   */\n      iszero\n      tag_467\n      jumpi\n        /* \"#utility.yul\":13377:13456   */\n      tag_468\n      tag_229\n      jump\t// in\n    tag_468:\n        /* \"#utility.yul\":13341:13458   */\n    tag_467:\n        /* \"#utility.yul\":13482:13544   */\n      tag_469\n        /* \"#utility.yul\":13536:13543   */\n      dup8\n        /* \"#utility.yul\":13527:13533   */\n      dup3\n        /* \"#utility.yul\":13516:13525   */\n      dup9\n        /* \"#utility.yul\":13512:13534   */\n      add\n        /* \"#utility.yul\":13482:13544   */\n      tag_271\n      jump\t// in\n    tag_469:\n        /* \"#utility.yul\":13472:13544   */\n      swap2\n      pop\n        /* \"#utility.yul\":13267:13554   */\n      pop\n        /* \"#utility.yul\":12618:13561   */\n      swap3\n      swap6\n      swap2\n      swap5\n      pop\n      swap3\n      pop\n      jump\t// out\n        /* \"#utility.yul\":13567:13875   */\n    tag_272:\n        /* \"#utility.yul\":13629:13633   */\n      0x00\n        /* \"#utility.yul\":13719:13737   */\n      0xffffffffffffffff\n        /* \"#utility.yul\":13711:13717   */\n      dup3\n        /* \"#utility.yul\":13708:13738   */\n      gt\n        /* \"#utility.yul\":13705:13761   */\n      iszero\n      tag_471\n      jumpi\n        /* \"#utility.yul\":13741:13759   */\n      tag_472\n      tag_110\n      jump\t// in\n    tag_472:\n        /* \"#utility.yul\":13705:13761   */\n    tag_471:\n        /* \"#utility.yul\":13779:13808   */\n      tag_473\n        /* \"#utility.yul\":13801:13807   */\n      dup3\n        /* \"#utility.yul\":13779:13808   */\n      tag_241\n      jump\t// in\n    tag_473:\n        /* \"#utility.yul\":13771:13808   */\n      swap1\n      pop\n        /* \"#utility.yul\":13863:13867   */\n      0x20\n        /* \"#utility.yul\":13857:13861   */\n      dup2\n        /* \"#utility.yul\":13853:13868   */\n      add\n        /* \"#utility.yul\":13845:13868   */\n      swap1\n      pop\n        /* \"#utility.yul\":13567:13875   */\n      swap2\n      swap1\n      pop\n      jump\t// out\n        /* \"#utility.yul\":13881:14293   */\n    tag_273:\n        /* \"#utility.yul\":13959:13964   */\n      0x00\n        /* \"#utility.yul\":13984:14050   */\n      tag_475\n        /* \"#utility.yul\":14000:14049   */\n      tag_476\n        /* \"#utility.yul\":14042:14048   */\n      dup5\n        /* \"#utility.yul\":14000:14049   */\n      tag_272\n      jump\t// in\n    tag_476:\n        /* \"#utility.yul\":13984:14050   */\n      tag_267\n      jump\t// in\n    tag_475:\n        /* \"#utility.yul\":13975:14050   */\n      swap1\n      pop\n        /* \"#utility.yul\":14073:14079   */\n      dup3\n        /* \"#utility.yul\":14066:14071   */\n      dup2\n        /* \"#utility.yul\":14059:14080   */\n      mstore\n        /* \"#utility.yul\":14111:14115   */\n      0x20\n        /* \"#utility.yul\":14104:14109   */\n      dup2\n        /* \"#utility.yul\":14100:14116   */\n      add\n        /* \"#utility.yul\":14149:14152   */\n      dup5\n        /* \"#utility.yul\":14140:14146   */\n      dup5\n        /* \"#utility.yul\":14135:14138   */\n      dup5\n        /* \"#utility.yul\":14131:14147   */\n      add\n        /* \"#utility.yul\":14128:14153   */\n      gt\n        /* \"#utility.yul\":14125:14237   */\n      iszero\n      tag_477\n      jumpi\n        /* \"#utility.yul\":14156:14235   */\n      tag_478\n      tag_265\n      jump\t// in\n    tag_478:\n        /* \"#utility.yul\":14125:14237   */\n    tag_477:\n        /* \"#utility.yul\":14246:14287   */\n      tag_479\n        /* \"#utility.yul\":14280:14286   */\n      dup5\n        /* \"#utility.yul\":14275:14278   */\n      dup3\n        /* \"#utility.yul\":14270:14273   */\n      dup6\n        /* \"#utility.yul\":14246:14287   */\n      tag_269\n      jump\t// in\n    tag_479:\n        /* \"#utility.yul\":13965:14293   */\n      pop\n        /* \"#utility.yul\":13881:14293   */\n      swap4\n      swap3\n      pop\n      pop\n      pop\n      jump\t// out\n        /* \"#utility.yul\":14313:14653   */\n    tag_274:\n        /* \"#utility.yul\":14369:14374   */\n      0x00\n        /* \"#utility.yul\":14418:14421   */\n      dup3\n        /* \"#utility.yul\":14411:14415   */\n      0x1f\n        /* \"#utility.yul\":14403:14409   */\n      dup4\n        /* \"#utility.yul\":14399:14416   */\n      add\n        /* \"#utility.yul\":14395:14422   */\n      slt\n        /* \"#utility.yul\":14385:14507   */\n      tag_481\n      jumpi\n        /* \"#utility.yul\":14426:14505   */\n      tag_482\n      tag_264\n      jump\t// in\n    tag_482:\n        /* \"#utility.yul\":14385:14507   */\n    tag_481:\n        /* \"#utility.yul\":14543:14549   */\n      dup2\n        /* \"#utility.yul\":14530:14550   */\n      calldataload\n        /* \"#utility.yul\":14568:14647   */\n      tag_483\n        /* \"#utility.yul\":14643:14646   */\n      dup5\n        /* \"#utility.yul\":14635:14641   */\n      dup3\n        /* \"#utility.yul\":14628:14632   */\n      0x20\n        /* \"#utility.yul\":14620:14626   */\n      dup7\n        /* \"#utility.yul\":14616:14633   */\n      add\n        /* \"#utility.yul\":14568:14647   */\n      tag_273\n      jump\t// in\n    tag_483:\n        /* \"#utility.yul\":14559:14647   */\n      swap2\n      pop\n        /* \"#utility.yul\":14375:14653   */\n      pop\n        /* \"#utility.yul\":14313:14653   */\n      swap3\n      swap2\n      pop\n      pop\n      jump\t// out\n        /* \"#utility.yul\":14659:14779   */\n    tag_275:\n        /* \"#utility.yul\":14731:14754   */\n      tag_485\n        /* \"#utility.yul\":14748:14753   */\n      dup2\n        /* \"#utility.yul\":14731:14754   */\n      tag_244\n      jump\t// in\n    tag_485:\n        /* \"#utility.yul\":14724:14729   */\n      dup2\n        /* \"#utility.yul\":14721:14755   */\n      eq\n        /* \"#utility.yul\":14711:14773   */\n      tag_486\n      jumpi\n        /* \"#utility.yul\":14769:14770   */\n      0x00\n        /* \"#utility.yul\":14766:14767   */\n      dup1\n        /* \"#utility.yul\":14759:14771   */\n      revert\n        /* \"#utility.yul\":14711:14773   */\n    tag_486:\n        /* \"#utility.yul\":14659:14779   */\n      pop\n      jump\t// out\n        /* \"#utility.yul\":14785:14922   */\n    tag_276:\n        /* \"#utility.yul\":14830:14835   */\n      0x00\n        /* \"#utility.yul\":14868:14874   */\n      dup2\n        /* \"#utility.yul\":14855:14875   */\n      calldataload\n        /* \"#utility.yul\":14846:14875   */\n      swap1\n      pop\n        /* \"#utility.yul\":14884:14916   */\n      tag_488\n        /* \"#utility.yul\":14910:14915   */\n      dup2\n        /* \"#utility.yul\":14884:14916   */\n      tag_275\n      jump\t// in\n    tag_488:\n        /* \"#utility.yul\":14785:14922   */\n      swap3\n      swap2\n      pop\n      pop\n      jump\t// out\n        /* \"#utility.yul\":14928:15580   */\n    tag_71:\n        /* \"#utility.yul\":15005:15011   */\n      0x00\n        /* \"#utility.yul\":15013:15019   */\n      dup1\n        /* \"#utility.yul\":15062:15064   */\n      0x40\n        /* \"#utility.yul\":15050:15059   */\n      dup4\n        /* \"#utility.yul\":15041:15048   */\n      dup6\n        /* \"#utility.yul\":15037:15060   */\n      sub\n        /* \"#utility.yul\":15033:15065   */\n      slt\n        /* \"#utility.yul\":15030:15149   */\n      iszero\n      tag_490\n      jumpi\n        /* \"#utility.yul\":15068:15147   */\n      tag_491\n      tag_228\n      jump\t// in\n    tag_491:\n        /* \"#utility.yul\":15030:15149   */\n    tag_490:\n        /* \"#utility.yul\":15216:15217   */\n      0x00\n        /* \"#utility.yul\":15205:15214   */\n      dup4\n        /* \"#utility.yul\":15201:15218   */\n      add\n        /* \"#utility.yul\":15188:15219   */\n      calldataload\n        /* \"#utility.yul\":15246:15264   */\n      0xffffffffffffffff\n        /* \"#utility.yul\":15238:15244   */\n      dup2\n        /* \"#utility.yul\":15235:15265   */\n      gt\n        /* \"#utility.yul\":15232:15349   */\n      iszero\n      tag_492\n      jumpi\n        /* \"#utility.yul\":15268:15347   */\n      tag_493\n      tag_229\n      jump\t// in\n    tag_493:\n        /* \"#utility.yul\":15232:15349   */\n    tag_492:\n        /* \"#utility.yul\":15373:15436   */\n      tag_494\n        /* \"#utility.yul\":15428:15435   */\n      dup6\n        /* \"#utility.yul\":15419:15425   */\n      dup3\n        /* \"#utility.yul\":15408:15417   */\n      dup7\n        /* \"#utility.yul\":15404:15426   */\n      add\n        /* \"#utility.yul\":15373:15436   */\n      tag_274\n      jump\t// in\n    tag_494:\n        /* \"#utility.yul\":15363:15436   */\n      swap3\n      pop\n        /* \"#utility.yul\":15159:15446   */\n      pop\n        /* \"#utility.yul\":15485:15487   */\n      0x20\n        /* \"#utility.yul\":15511:15563   */\n      tag_495\n        /* \"#utility.yul\":15555:15562   */\n      dup6\n        /* \"#utility.yul\":15546:15552   */\n      dup3\n        /* \"#utility.yul\":15535:15544   */\n      dup7\n        /* \"#utility.yul\":15531:15553   */\n      add\n        /* \"#utility.yul\":15511:15563   */\n      tag_276\n      jump\t// in\n    tag_495:\n        /* \"#utility.yul\":15501:15563   */\n      swap2\n      pop\n        /* \"#utility.yul\":15456:15573   */\n      pop\n        /* \"#utility.yul\":14928:15580   */\n      swap3\n      pop\n      swap3\n      swap1\n      pop\n      jump\t// out\n        /* \"#utility.yul\":15586:15726   */\n    tag_277:\n        /* \"#utility.yul\":15679:15685   */\n      0x00\n        /* \"#utility.yul\":15713:15718   */\n      dup2\n        /* \"#utility.yul\":15707:15719   */\n      mload\n        /* \"#utility.yul\":15697:15719   */\n      swap1\n      pop\n        /* \"#utility.yul\":15586:15726   */\n      swap2\n      swap1\n      pop\n      jump\t// out\n        /* \"#utility.yul\":15732:15942   */\n    tag_278:\n        /* \"#utility.yul\":15857:15868   */\n      0x00\n        /* \"#utility.yul\":15891:15897   */\n      dup3\n        /* \"#utility.yul\":15886:15889   */\n      dup3\n        /* \"#utility.yul\":15879:15898   */\n      mstore\n        /* \"#utility.yul\":15931:15935   */\n      0x20\n        /* \"#utility.yul\":15926:15929   */\n      dup3\n        /* \"#utility.yul\":15922:15936   */\n      add\n        /* \"#utility.yul\":15907:15936   */\n      swap1\n      pop\n        /* \"#utility.yul\":15732:15942   */\n      swap3\n      swap2\n      pop\n      pop\n      jump\t// out\n        /* \"#utility.yul\":15948:16106   */\n    tag_279:\n        /* \"#utility.yul\":16041:16045   */\n      0x00\n        /* \"#utility.yul\":16064:16067   */\n      dup2\n        /* \"#utility.yul\":16056:16067   */\n      swap1\n      pop\n        /* \"#utility.yul\":16094:16098   */\n      0x20\n        /* \"#utility.yul\":16089:16092   */\n      dup3\n        /* \"#utility.yul\":16085:16099   */\n      add\n        /* \"#utility.yul\":16077:16099   */\n      swap1\n      pop\n        /* \"#utility.yul\":15948:16106   */\n      swap2\n      swap1\n      pop\n      jump\t// out\n        /* \"#utility.yul\":16112:16271   */\n    tag_280:\n        /* \"#utility.yul\":16186:16197   */\n      0x00\n        /* \"#utility.yul\":16220:16226   */\n      dup3\n        /* \"#utility.yul\":16215:16218   */\n      dup3\n        /* \"#utility.yul\":16208:16227   */\n      mstore\n        /* \"#utility.yul\":16260:16264   */\n      0x20\n        /* \"#utility.yul\":16255:16258   */\n      dup3\n        /* \"#utility.yul\":16251:16265   */\n      add\n        /* \"#utility.yul\":16236:16265   */\n      swap1\n      pop\n        /* \"#utility.yul\":16112:16271   */\n      swap3\n      swap2\n      pop\n      pop\n      jump\t// out\n        /* \"#utility.yul\":16277:16621   */\n    tag_281:\n        /* \"#utility.yul\":16355:16358   */\n      0x00\n        /* \"#utility.yul\":16383:16422   */\n      tag_501\n        /* \"#utility.yul\":16416:16421   */\n      dup3\n        /* \"#utility.yul\":16383:16422   */\n      tag_238\n      jump\t// in\n    tag_501:\n        /* \"#utility.yul\":16438:16499   */\n      tag_502\n        /* \"#utility.yul\":16492:16498   */\n      dup2\n        /* \"#utility.yul\":16487:16490   */\n      dup6\n        /* \"#utility.yul\":16438:16499   */\n      tag_280\n      jump\t// in\n    tag_502:\n        /* \"#utility.yul\":16431:16499   */\n      swap4\n      pop\n        /* \"#utility.yul\":16508:16560   */\n      tag_503\n        /* \"#utility.yul\":16553:16559   */\n      dup2\n        /* \"#utility.yul\":16548:16551   */\n      dup6\n        /* \"#utility.yul\":16541:16545   */\n      0x20\n        /* \"#utility.yul\":16534:16539   */\n      dup7\n        /* \"#utility.yul\":16530:16546   */\n      add\n        /* \"#utility.yul\":16508:16560   */\n      tag_240\n      jump\t// in\n    tag_503:\n        /* \"#utility.yul\":16585:16614   */\n      tag_504\n        /* \"#utility.yul\":16607:16613   */\n      dup2\n        /* \"#utility.yul\":16585:16614   */\n      tag_241\n      jump\t// in\n    tag_504:\n        /* \"#utility.yul\":16580:16583   */\n      dup5\n        /* \"#utility.yul\":16576:16615   */\n      add\n        /* \"#utility.yul\":16569:16615   */\n      swap2\n      pop\n        /* \"#utility.yul\":16359:16621   */\n      pop\n        /* \"#utility.yul\":16277:16621   */\n      swap3\n      swap2\n      pop\n      pop\n      jump\t// out\n        /* \"#utility.yul\":16627:16801   */\n    tag_282:\n        /* \"#utility.yul\":16716:16727   */\n      0x00\n        /* \"#utility.yul\":16750:16756   */\n      dup3\n        /* \"#utility.yul\":16745:16748   */\n      dup3\n        /* \"#utility.yul\":16738:16757   */\n      mstore\n        /* \"#utility.yul\":16790:16794   */\n      0x20\n        /* \"#utility.yul\":16785:16788   */\n      dup3\n        /* \"#utility.yul\":16781:16795   */\n      add\n        /* \"#utility.yul\":16766:16795   */\n      swap1\n      pop\n        /* \"#utility.yul\":16627:16801   */\n      swap3\n      swap2\n      pop\n      pop\n      jump\t// out\n        /* \"#utility.yul\":16837:17549   */\n    tag_283:\n        /* \"#utility.yul\":16946:16949   */\n      0x00\n        /* \"#utility.yul\":16975:17029   */\n      tag_507\n        /* \"#utility.yul\":17023:17028   */\n      dup3\n        /* \"#utility.yul\":16975:17029   */\n      tag_248\n      jump\t// in\n    tag_507:\n        /* \"#utility.yul\":17045:17121   */\n      tag_508\n        /* \"#utility.yul\":17114:17120   */\n      dup2\n        /* \"#utility.yul\":17109:17112   */\n      dup6\n        /* \"#utility.yul\":17045:17121   */\n      tag_282\n      jump\t// in\n    tag_508:\n        /* \"#utility.yul\":17038:17121   */\n      swap4\n      pop\n        /* \"#utility.yul\":17145:17201   */\n      tag_509\n        /* \"#utility.yul\":17195:17200   */\n      dup4\n        /* \"#utility.yul\":17145:17201   */\n      tag_250\n      jump\t// in\n    tag_509:\n        /* \"#utility.yul\":17224:17231   */\n      dup1\n        /* \"#utility.yul\":17255:17256   */\n      0x00\n        /* \"#utility.yul\":17240:17524   */\n    tag_510:\n        /* \"#utility.yul\":17265:17271   */\n      dup4\n        /* \"#utility.yul\":17262:17263   */\n      dup2\n        /* \"#utility.yul\":17259:17272   */\n      lt\n        /* \"#utility.yul\":17240:17524   */\n      iszero\n      tag_512\n      jumpi\n        /* \"#utility.yul\":17341:17347   */\n      dup2\n        /* \"#utility.yul\":17335:17348   */\n      mload\n        /* \"#utility.yul\":17368:17431   */\n      tag_513\n        /* \"#utility.yul\":17427:17430   */\n      dup9\n        /* \"#utility.yul\":17412:17425   */\n      dup3\n        /* \"#utility.yul\":17368:17431   */\n      tag_252\n      jump\t// in\n    tag_513:\n        /* \"#utility.yul\":17361:17431   */\n      swap8\n      pop\n        /* \"#utility.yul\":17454:17514   */\n      tag_514\n        /* \"#utility.yul\":17507:17513   */\n      dup4\n        /* \"#utility.yul\":17454:17514   */\n      tag_253\n      jump\t// in\n    tag_514:\n        /* \"#utility.yul\":17444:17514   */\n      swap3\n      pop\n        /* \"#utility.yul\":17300:17524   */\n      pop\n        /* \"#utility.yul\":17287:17288   */\n      0x01\n        /* \"#utility.yul\":17284:17285   */\n      dup2\n        /* \"#utility.yul\":17280:17289   */\n      add\n        /* \"#utility.yul\":17275:17289   */\n      swap1\n      pop\n        /* \"#utility.yul\":17240:17524   */\n      jump(tag_510)\n    tag_512:\n        /* \"#utility.yul\":17244:17258   */\n      pop\n        /* \"#utility.yul\":17540:17543   */\n      dup6\n        /* \"#utility.yul\":17533:17543   */\n      swap4\n      pop\n        /* \"#utility.yul\":16951:17549   */\n      pop\n      pop\n      pop\n        /* \"#utility.yul\":16837:17549   */\n      swap3\n      swap2\n      pop\n      pop\n      jump\t// out\n        /* \"#utility.yul\":17555:17660   */\n    tag_284:\n        /* \"#utility.yul\":17630:17653   */\n      tag_516\n        /* \"#utility.yul\":17647:17652   */\n      dup2\n        /* \"#utility.yul\":17630:17653   */\n      tag_244\n      jump\t// in\n    tag_516:\n        /* \"#utility.yul\":17625:17628   */\n      dup3\n        /* \"#utility.yul\":17618:17654   */\n      mstore\n        /* \"#utility.yul\":17555:17660   */\n      pop\n      pop\n      jump\t// out\n        /* \"#utility.yul\":17666:17765   */\n    tag_285:\n        /* \"#utility.yul\":17737:17758   */\n      tag_518\n        /* \"#utility.yul\":17752:17757   */\n      dup2\n        /* \"#utility.yul\":17737:17758   */\n      tag_246\n      jump\t// in\n    tag_518:\n        /* \"#utility.yul\":17732:17735   */\n      dup3\n        /* \"#utility.yul\":17725:17759   */\n      mstore\n        /* \"#utility.yul\":17666:17765   */\n      pop\n      pop\n      jump\t// out\n        /* \"#utility.yul\":17831:19258   */\n    tag_286:\n        /* \"#utility.yul\":17942:17945   */\n      0x00\n        /* \"#utility.yul\":17978:17982   */\n      0xc0\n        /* \"#utility.yul\":17973:17976   */\n      dup4\n        /* \"#utility.yul\":17969:17983   */\n      add\n        /* \"#utility.yul\":18065:18069   */\n      0x00\n        /* \"#utility.yul\":18058:18063   */\n      dup4\n        /* \"#utility.yul\":18054:18070   */\n      add\n        /* \"#utility.yul\":18048:18071   */\n      mload\n        /* \"#utility.yul\":18118:18121   */\n      dup5\n        /* \"#utility.yul\":18112:18116   */\n      dup3\n        /* \"#utility.yul\":18108:18122   */\n      sub\n        /* \"#utility.yul\":18101:18105   */\n      0x00\n        /* \"#utility.yul\":18096:18099   */\n      dup7\n        /* \"#utility.yul\":18092:18106   */\n      add\n        /* \"#utility.yul\":18085:18123   */\n      mstore\n        /* \"#utility.yul\":18144:18217   */\n      tag_520\n        /* \"#utility.yul\":18212:18216   */\n      dup3\n        /* \"#utility.yul\":18198:18210   */\n      dup3\n        /* \"#utility.yul\":18144:18217   */\n      tag_281\n      jump\t// in\n    tag_520:\n        /* \"#utility.yul\":18136:18217   */\n      swap2\n      pop\n        /* \"#utility.yul\":17993:18228   */\n      pop\n        /* \"#utility.yul\":18314:18318   */\n      0x20\n        /* \"#utility.yul\":18307:18312   */\n      dup4\n        /* \"#utility.yul\":18303:18319   */\n      add\n        /* \"#utility.yul\":18297:18320   */\n      mload\n        /* \"#utility.yul\":18333:18396   */\n      tag_521\n        /* \"#utility.yul\":18390:18394   */\n      0x20\n        /* \"#utility.yul\":18385:18388   */\n      dup7\n        /* \"#utility.yul\":18381:18395   */\n      add\n        /* \"#utility.yul\":18367:18379   */\n      dup3\n        /* \"#utility.yul\":18333:18396   */\n      tag_251\n      jump\t// in\n    tag_521:\n        /* \"#utility.yul\":18238:18406   */\n      pop\n        /* \"#utility.yul\":18494:18498   */\n      0x40\n        /* \"#utility.yul\":18487:18492   */\n      dup4\n        /* \"#utility.yul\":18483:18499   */\n      add\n        /* \"#utility.yul\":18477:18500   */\n      mload\n        /* \"#utility.yul\":18547:18550   */\n      dup5\n        /* \"#utility.yul\":18541:18545   */\n      dup3\n        /* \"#utility.yul\":18537:18551   */\n      sub\n        /* \"#utility.yul\":18530:18534   */\n      0x40\n        /* \"#utility.yul\":18525:18528   */\n      dup7\n        /* \"#utility.yul\":18521:18535   */\n      add\n        /* \"#utility.yul\":18514:18552   */\n      mstore\n        /* \"#utility.yul\":18573:18676   */\n      tag_522\n        /* \"#utility.yul\":18671:18675   */\n      dup3\n        /* \"#utility.yul\":18657:18669   */\n      dup3\n        /* \"#utility.yul\":18573:18676   */\n      tag_283\n      jump\t// in\n    tag_522:\n        /* \"#utility.yul\":18565:18676   */\n      swap2\n      pop\n        /* \"#utility.yul\":18416:18687   */\n      pop\n        /* \"#utility.yul\":18782:18786   */\n      0x60\n        /* \"#utility.yul\":18775:18780   */\n      dup4\n        /* \"#utility.yul\":18771:18787   */\n      add\n        /* \"#utility.yul\":18765:18788   */\n      mload\n        /* \"#utility.yul\":18801:18862   */\n      tag_523\n        /* \"#utility.yul\":18856:18860   */\n      0x60\n        /* \"#utility.yul\":18851:18854   */\n      dup7\n        /* \"#utility.yul\":18847:18861   */\n      add\n        /* \"#utility.yul\":18833:18845   */\n      dup3\n        /* \"#utility.yul\":18801:18862   */\n      tag_284\n      jump\t// in\n    tag_523:\n        /* \"#utility.yul\":18697:18872   */\n      pop\n        /* \"#utility.yul\":18971:18975   */\n      0x80\n        /* \"#utility.yul\":18964:18969   */\n      dup4\n        /* \"#utility.yul\":18960:18976   */\n      add\n        /* \"#utility.yul\":18954:18977   */\n      mload\n        /* \"#utility.yul\":18990:19051   */\n      tag_524\n        /* \"#utility.yul\":19045:19049   */\n      0x80\n        /* \"#utility.yul\":19040:19043   */\n      dup7\n        /* \"#utility.yul\":19036:19050   */\n      add\n        /* \"#utility.yul\":19022:19034   */\n      dup3\n        /* \"#utility.yul\":18990:19051   */\n      tag_284\n      jump\t// in\n    tag_524:\n        /* \"#utility.yul\":18882:19061   */\n      pop\n        /* \"#utility.yul\":19145:19149   */\n      0xa0\n        /* \"#utility.yul\":19138:19143   */\n      dup4\n        /* \"#utility.yul\":19134:19150   */\n      add\n        /* \"#utility.yul\":19128:19151   */\n      mload\n        /* \"#utility.yul\":19164:19221   */\n      tag_525\n        /* \"#utility.yul\":19215:19219   */\n      0xa0\n        /* \"#utility.yul\":19210:19213   */\n      dup7\n        /* \"#utility.yul\":19206:19220   */\n      add\n        /* \"#utility.yul\":19192:19204   */\n      dup3\n        /* \"#utility.yul\":19164:19221   */\n      tag_285\n      jump\t// in\n    tag_525:\n        /* \"#utility.yul\":19071:19231   */\n      pop\n        /* \"#utility.yul\":19248:19252   */\n      dup1\n        /* \"#utility.yul\":19241:19252   */\n      swap2\n      pop\n        /* \"#utility.yul\":17947:19258   */\n      pop\n        /* \"#utility.yul\":17831:19258   */\n      swap3\n      swap2\n      pop\n      pop\n      jump\t// out\n        /* \"#utility.yul\":19264:19524   */\n    tag_287:\n        /* \"#utility.yul\":19385:19395   */\n      0x00\n        /* \"#utility.yul\":19420:19518   */\n      tag_527\n        /* \"#utility.yul\":19514:19517   */\n      dup4\n        /* \"#utility.yul\":19506:19512   */\n      dup4\n        /* \"#utility.yul\":19420:19518   */\n      tag_286\n      jump\t// in\n    tag_527:\n        /* \"#utility.yul\":19406:19518   */\n      swap1\n      pop\n        /* \"#utility.yul\":19264:19524   */\n      swap3\n      swap2\n      pop\n      pop\n      jump\t// out\n        /* \"#utility.yul\":19530:19669   */\n    tag_288:\n        /* \"#utility.yul\":19626:19630   */\n      0x00\n        /* \"#utility.yul\":19658:19662   */\n      0x20\n        /* \"#utility.yul\":19653:19656   */\n      dup3\n        /* \"#utility.yul\":19649:19663   */\n      add\n        /* \"#utility.yul\":19641:19663   */\n      swap1\n      pop\n        /* \"#utility.yul\":19530:19669   */\n      swap2\n      swap1\n      pop\n      jump\t// out\n        /* \"#utility.yul\":19739:20858   */\n    tag_289:\n        /* \"#utility.yul\":19910:19913   */\n      0x00\n        /* \"#utility.yul\":19939:20019   */\n      tag_530\n        /* \"#utility.yul\":20013:20018   */\n      dup3\n        /* \"#utility.yul\":19939:20019   */\n      tag_277\n      jump\t// in\n    tag_530:\n        /* \"#utility.yul\":20035:20147   */\n      tag_531\n        /* \"#utility.yul\":20140:20146   */\n      dup2\n        /* \"#utility.yul\":20135:20138   */\n      dup6\n        /* \"#utility.yul\":20035:20147   */\n      tag_278\n      jump\t// in\n    tag_531:\n        /* \"#utility.yul\":20028:20147   */\n      swap4\n      pop\n        /* \"#utility.yul\":20173:20176   */\n      dup4\n        /* \"#utility.yul\":20218:20222   */\n      0x20\n        /* \"#utility.yul\":20210:20216   */\n      dup3\n        /* \"#utility.yul\":20206:20223   */\n      mul\n        /* \"#utility.yul\":20201:20204   */\n      dup6\n        /* \"#utility.yul\":20197:20224   */\n      add\n        /* \"#utility.yul\":20248:20330   */\n      tag_532\n        /* \"#utility.yul\":20324:20329   */\n      dup6\n        /* \"#utility.yul\":20248:20330   */\n      tag_279\n      jump\t// in\n    tag_532:\n        /* \"#utility.yul\":20353:20360   */\n      dup1\n        /* \"#utility.yul\":20384:20385   */\n      0x00\n        /* \"#utility.yul\":20369:20813   */\n    tag_533:\n        /* \"#utility.yul\":20394:20400   */\n      dup6\n        /* \"#utility.yul\":20391:20392   */\n      dup2\n        /* \"#utility.yul\":20388:20401   */\n      lt\n        /* \"#utility.yul\":20369:20813   */\n      iszero\n      tag_535\n      jumpi\n        /* \"#utility.yul\":20465:20474   */\n      dup5\n        /* \"#utility.yul\":20459:20463   */\n      dup5\n        /* \"#utility.yul\":20455:20475   */\n      sub\n        /* \"#utility.yul\":20450:20453   */\n      dup10\n        /* \"#utility.yul\":20443:20476   */\n      mstore\n        /* \"#utility.yul\":20516:20522   */\n      dup2\n        /* \"#utility.yul\":20510:20523   */\n      mload\n        /* \"#utility.yul\":20544:20660   */\n      tag_536\n        /* \"#utility.yul\":20655:20659   */\n      dup6\n        /* \"#utility.yul\":20640:20653   */\n      dup3\n        /* \"#utility.yul\":20544:20660   */\n      tag_287\n      jump\t// in\n    tag_536:\n        /* \"#utility.yul\":20536:20660   */\n      swap5\n      pop\n        /* \"#utility.yul\":20683:20769   */\n      tag_537\n        /* \"#utility.yul\":20762:20768   */\n      dup4\n        /* \"#utility.yul\":20683:20769   */\n      tag_288\n      jump\t// in\n    tag_537:\n        /* \"#utility.yul\":20673:20769   */\n      swap3\n      pop\n        /* \"#utility.yul\":20798:20802   */\n      0x20\n        /* \"#utility.yul\":20793:20796   */\n      dup11\n        /* \"#utility.yul\":20789:20803   */\n      add\n        /* \"#utility.yul\":20782:20803   */\n      swap10\n      pop\n        /* \"#utility.yul\":20429:20813   */\n      pop\n        /* \"#utility.yul\":20416:20417   */\n      0x01\n        /* \"#utility.yul\":20413:20414   */\n      dup2\n        /* \"#utility.yul\":20409:20418   */\n      add\n        /* \"#utility.yul\":20404:20418   */\n      swap1\n      pop\n        /* \"#utility.yul\":20369:20813   */\n      jump(tag_533)\n    tag_535:\n        /* \"#utility.yul\":20373:20387   */\n      pop\n        /* \"#utility.yul\":20829:20833   */\n      dup3\n        /* \"#utility.yul\":20822:20833   */\n      swap8\n      pop\n        /* \"#utility.yul\":20849:20852   */\n      dup8\n        /* \"#utility.yul\":20842:20852   */\n      swap6\n      pop\n        /* \"#utility.yul\":19915:20858   */\n      pop\n      pop\n      pop\n      pop\n      pop\n        /* \"#utility.yul\":19739:20858   */\n      swap3\n      swap2\n      pop\n      pop\n      jump\t// out\n        /* \"#utility.yul\":20864:21341   */\n    tag_76:\n        /* \"#utility.yul\":21059:21063   */\n      0x00\n        /* \"#utility.yul\":21097:21099   */\n      0x20\n        /* \"#utility.yul\":21086:21095   */\n      dup3\n        /* \"#utility.yul\":21082:21100   */\n      add\n        /* \"#utility.yul\":21074:21100   */\n      swap1\n      pop\n        /* \"#utility.yul\":21146:21155   */\n      dup2\n        /* \"#utility.yul\":21140:21144   */\n      dup2\n        /* \"#utility.yul\":21136:21156   */\n      sub\n        /* \"#utility.yul\":21132:21133   */\n      0x00\n        /* \"#utility.yul\":21121:21130   */\n      dup4\n        /* \"#utility.yul\":21117:21134   */\n      add\n        /* \"#utility.yul\":21110:21157   */\n      mstore\n        /* \"#utility.yul\":21174:21334   */\n      tag_539\n        /* \"#utility.yul\":21329:21333   */\n      dup2\n        /* \"#utility.yul\":21320:21326   */\n      dup5\n        /* \"#utility.yul\":21174:21334   */\n      tag_289\n      jump\t// in\n    tag_539:\n        /* \"#utility.yul\":21166:21334   */\n      swap1\n      pop\n        /* \"#utility.yul\":20864:21341   */\n      swap3\n      swap2\n      pop\n      pop\n      jump\t// out\n        /* \"#utility.yul\":21347:21517   */\n    tag_290:\n        /* \"#utility.yul\":21487:21509   */\n      0x79657420746f20637265617465206120706f6c6c000000000000000000000000\n        /* \"#utility.yul\":21483:21484   */\n      0x00\n        /* \"#utility.yul\":21475:21481   */\n      dup3\n        /* \"#utility.yul\":21471:21485   */\n      add\n        /* \"#utility.yul\":21464:21510   */\n      mstore\n        /* \"#utility.yul\":21347:21517   */\n      pop\n      jump\t// out\n        /* \"#utility.yul\":21523:21889   */\n    tag_291:\n        /* \"#utility.yul\":21665:21668   */\n      0x00\n        /* \"#utility.yul\":21686:21753   */\n      tag_542\n        /* \"#utility.yul\":21750:21752   */\n      0x14\n        /* \"#utility.yul\":21745:21748   */\n      dup4\n        /* \"#utility.yul\":21686:21753   */\n      tag_239\n      jump\t// in\n    tag_542:\n        /* \"#utility.yul\":21679:21753   */\n      swap2\n      pop\n        /* \"#utility.yul\":21762:21855   */\n      tag_543\n        /* \"#utility.yul\":21851:21854   */\n      dup3\n        /* \"#utility.yul\":21762:21855   */\n      tag_290\n      jump\t// in\n    tag_543:\n        /* \"#utility.yul\":21880:21882   */\n      0x20\n        /* \"#utility.yul\":21875:21878   */\n      dup3\n        /* \"#utility.yul\":21871:21883   */\n      add\n        /* \"#utility.yul\":21864:21883   */\n      swap1\n      pop\n        /* \"#utility.yul\":21523:21889   */\n      swap2\n      swap1\n      pop\n      jump\t// out\n        /* \"#utility.yul\":21895:22314   */\n    tag_80:\n        /* \"#utility.yul\":22061:22065   */\n      0x00\n        /* \"#utility.yul\":22099:22101   */\n      0x20\n        /* \"#utility.yul\":22088:22097   */\n      dup3\n        /* \"#utility.yul\":22084:22102   */\n      add\n        /* \"#utility.yul\":22076:22102   */\n      swap1\n      pop\n        /* \"#utility.yul\":22148:22157   */\n      dup2\n        /* \"#utility.yul\":22142:22146   */\n      dup2\n        /* \"#utility.yul\":22138:22158   */\n      sub\n        /* \"#utility.yul\":22134:22135   */\n      0x00\n        /* \"#utility.yul\":22123:22132   */\n      dup4\n        /* \"#utility.yul\":22119:22136   */\n      add\n        /* \"#utility.yul\":22112:22159   */\n      mstore\n        /* \"#utility.yul\":22176:22307   */\n      tag_545\n        /* \"#utility.yul\":22302:22306   */\n      dup2\n        /* \"#utility.yul\":22176:22307   */\n      tag_291\n      jump\t// in\n    tag_545:\n        /* \"#utility.yul\":22168:22307   */\n      swap1\n      pop\n        /* \"#utility.yul\":21895:22314   */\n      swap2\n      swap1\n      pop\n      jump\t// out\n        /* \"#utility.yul\":22320:22500   */\n    tag_83:\n        /* \"#utility.yul\":22368:22445   */\n      0x4e487b7100000000000000000000000000000000000000000000000000000000\n        /* \"#utility.yul\":22365:22366   */\n      0x00\n        /* \"#utility.yul\":22358:22446   */\n      mstore\n        /* \"#utility.yul\":22465:22469   */\n      0x01\n        /* \"#utility.yul\":22462:22463   */\n      0x04\n        /* \"#utility.yul\":22455:22470   */\n      mstore\n        /* \"#utility.yul\":22489:22493   */\n      0x24\n        /* \"#utility.yul\":22486:22487   */\n      0x00\n        /* \"#utility.yul\":22479:22494   */\n      revert\n        /* \"#utility.yul\":22506:22739   */\n    tag_292:\n        /* \"#utility.yul\":22646:22680   */\n      0x6d6178696d756d206e6f206f662063616e646964617465207065722073657373\n        /* \"#utility.yul\":22642:22643   */\n      0x00\n        /* \"#utility.yul\":22634:22640   */\n      dup3\n        /* \"#utility.yul\":22630:22644   */\n      add\n        /* \"#utility.yul\":22623:22681   */\n      mstore\n        /* \"#utility.yul\":22715:22731   */\n      0x696f6e2072656769737465726564000000000000000000000000000000000000\n        /* \"#utility.yul\":22710:22712   */\n      0x20\n        /* \"#utility.yul\":22702:22708   */\n      dup3\n        /* \"#utility.yul\":22698:22713   */\n      add\n        /* \"#utility.yul\":22691:22732   */\n      mstore\n        /* \"#utility.yul\":22506:22739   */\n      pop\n      jump\t// out\n        /* \"#utility.yul\":22745:23111   */\n    tag_293:\n        /* \"#utility.yul\":22887:22890   */\n      0x00\n        /* \"#utility.yul\":22908:22975   */\n      tag_549\n        /* \"#utility.yul\":22972:22974   */\n      0x2e\n        /* \"#utility.yul\":22967:22970   */\n      dup4\n        /* \"#utility.yul\":22908:22975   */\n      tag_239\n      jump\t// in\n    tag_549:\n        /* \"#utility.yul\":22901:22975   */\n      swap2\n      pop\n        /* \"#utility.yul\":22984:23077   */\n      tag_550\n        /* \"#utility.yul\":23073:23076   */\n      dup3\n        /* \"#utility.yul\":22984:23077   */\n      tag_292\n      jump\t// in\n    tag_550:\n        /* \"#utility.yul\":23102:23104   */\n      0x40\n        /* \"#utility.yul\":23097:23100   */\n      dup3\n        /* \"#utility.yul\":23093:23105   */\n      add\n        /* \"#utility.yul\":23086:23105   */\n      swap1\n      pop\n        /* \"#utility.yul\":22745:23111   */\n      swap2\n      swap1\n      pop\n      jump\t// out\n        /* \"#utility.yul\":23117:23536   */\n    tag_86:\n        /* \"#utility.yul\":23283:23287   */\n      0x00\n        /* \"#utility.yul\":23321:23323   */\n      0x20\n        /* \"#utility.yul\":23310:23319   */\n      dup3\n        /* \"#utility.yul\":23306:23324   */\n      add\n        /* \"#utility.yul\":23298:23324   */\n      swap1\n      pop\n        /* \"#utility.yul\":23370:23379   */\n      dup2\n        /* \"#utility.yul\":23364:23368   */\n      dup2\n        /* \"#utility.yul\":23360:23380   */\n      sub\n        /* \"#utility.yul\":23356:23357   */\n      0x00\n        /* \"#utility.yul\":23345:23354   */\n      dup4\n        /* \"#utility.yul\":23341:23358   */\n      add\n        /* \"#utility.yul\":23334:23381   */\n      mstore\n        /* \"#utility.yul\":23398:23529   */\n      tag_552\n        /* \"#utility.yul\":23524:23528   */\n      dup2\n        /* \"#utility.yul\":23398:23529   */\n      tag_293\n      jump\t// in\n    tag_552:\n        /* \"#utility.yul\":23390:23529   */\n      swap1\n      pop\n        /* \"#utility.yul\":23117:23536   */\n      swap2\n      swap1\n      pop\n      jump\t// out\n        /* \"#utility.yul\":23542:23722   */\n    tag_294:\n        /* \"#utility.yul\":23590:23667   */\n      0x4e487b7100000000000000000000000000000000000000000000000000000000\n        /* \"#utility.yul\":23587:23588   */\n      0x00\n        /* \"#utility.yul\":23580:23668   */\n      mstore\n        /* \"#utility.yul\":23687:23691   */\n      0x11\n        /* \"#utility.yul\":23684:23685   */\n      0x04\n        /* \"#utility.yul\":23677:23692   */\n      mstore\n        /* \"#utility.yul\":23711:23715   */\n      0x24\n        /* \"#utility.yul\":23708:23709   */\n      0x00\n        /* \"#utility.yul\":23701:23716   */\n      revert\n        /* \"#utility.yul\":23728:23903   */\n    tag_89:\n        /* \"#utility.yul\":23766:23769   */\n      0x00\n        /* \"#utility.yul\":23789:23812   */\n      tag_555\n        /* \"#utility.yul\":23806:23811   */\n      dup3\n        /* \"#utility.yul\":23789:23812   */\n      tag_244\n      jump\t// in\n    tag_555:\n        /* \"#utility.yul\":23780:23812   */\n      swap2\n      pop\n        /* \"#utility.yul\":23834:23844   */\n      0xffffffff\n        /* \"#utility.yul\":23827:23832   */\n      dup3\n        /* \"#utility.yul\":23824:23845   */\n      eq\n        /* \"#utility.yul\":23821:23868   */\n      iszero\n      tag_556\n      jumpi\n        /* \"#utility.yul\":23848:23866   */\n      tag_557\n      tag_294\n      jump\t// in\n    tag_557:\n        /* \"#utility.yul\":23821:23868   */\n    tag_556:\n        /* \"#utility.yul\":23895:23896   */\n      0x01\n        /* \"#utility.yul\":23888:23893   */\n      dup3\n        /* \"#utility.yul\":23884:23897   */\n      add\n        /* \"#utility.yul\":23877:23897   */\n      swap1\n      pop\n        /* \"#utility.yul\":23728:23903   */\n      swap2\n      swap1\n      pop\n      jump\t// out\n        /* \"#utility.yul\":23909:24131   */\n    tag_91:\n        /* \"#utility.yul\":24002:24006   */\n      0x00\n        /* \"#utility.yul\":24040:24042   */\n      0x20\n        /* \"#utility.yul\":24029:24038   */\n      dup3\n        /* \"#utility.yul\":24025:24043   */\n      add\n        /* \"#utility.yul\":24017:24043   */\n      swap1\n      pop\n        /* \"#utility.yul\":24053:24124   */\n      tag_559\n        /* \"#utility.yul\":24121:24122   */\n      0x00\n        /* \"#utility.yul\":24110:24119   */\n      dup4\n        /* \"#utility.yul\":24106:24123   */\n      add\n        /* \"#utility.yul\":24097:24103   */\n      dup5\n        /* \"#utility.yul\":24053:24124   */\n      tag_243\n      jump\t// in\n    tag_559:\n        /* \"#utility.yul\":23909:24131   */\n      swap3\n      swap2\n      pop\n      pop\n      jump\t// out\n        /* \"#utility.yul\":24137:24317   */\n    tag_295:\n        /* \"#utility.yul\":24185:24262   */\n      0x4e487b7100000000000000000000000000000000000000000000000000000000\n        /* \"#utility.yul\":24182:24183   */\n      0x00\n        /* \"#utility.yul\":24175:24263   */\n      mstore\n        /* \"#utility.yul\":24282:24286   */\n      0x22\n        /* \"#utility.yul\":24279:24280   */\n      0x04\n        /* \"#utility.yul\":24272:24287   */\n      mstore\n        /* \"#utility.yul\":24306:24310   */\n      0x24\n        /* \"#utility.yul\":24303:24304   */\n      0x00\n        /* \"#utility.yul\":24296:24311   */\n      revert\n        /* \"#utility.yul\":24323:24643   */\n    tag_96:\n        /* \"#utility.yul\":24367:24373   */\n      0x00\n        /* \"#utility.yul\":24404:24405   */\n      0x02\n        /* \"#utility.yul\":24398:24402   */\n      dup3\n        /* \"#utility.yul\":24394:24406   */\n      div\n        /* \"#utility.yul\":24384:24406   */\n      swap1\n      pop\n        /* \"#utility.yul\":24451:24452   */\n      0x01\n        /* \"#utility.yul\":24445:24449   */\n      dup3\n        /* \"#utility.yul\":24441:24453   */\n      and\n        /* \"#utility.yul\":24472:24490   */\n      dup1\n        /* \"#utility.yul\":24462:24543   */\n      tag_562\n      jumpi\n        /* \"#utility.yul\":24528:24532   */\n      0x7f\n        /* \"#utility.yul\":24520:24526   */\n      dup3\n        /* \"#utility.yul\":24516:24533   */\n      and\n        /* \"#utility.yul\":24506:24533   */\n      swap2\n      pop\n        /* \"#utility.yul\":24462:24543   */\n    tag_562:\n        /* \"#utility.yul\":24590:24592   */\n      0x20\n        /* \"#utility.yul\":24582:24588   */\n      dup3\n        /* \"#utility.yul\":24579:24593   */\n      lt\n        /* \"#utility.yul\":24559:24577   */\n      dup2\n        /* \"#utility.yul\":24556:24594   */\n      eq\n        /* \"#utility.yul\":24553:24637   */\n      iszero\n      tag_563\n      jumpi\n        /* \"#utility.yul\":24609:24627   */\n      tag_564\n      tag_295\n      jump\t// in\n    tag_564:\n        /* \"#utility.yul\":24553:24637   */\n    tag_563:\n        /* \"#utility.yul\":24374:24643   */\n      pop\n        /* \"#utility.yul\":24323:24643   */\n      swap2\n      swap1\n      pop\n      jump\t// out\n        /* \"#utility.yul\":24649:24814   */\n    tag_296:\n        /* \"#utility.yul\":24789:24806   */\n      0x4e6f20706f6c6c20637265617465640000000000000000000000000000000000\n        /* \"#utility.yul\":24785:24786   */\n      0x00\n        /* \"#utility.yul\":24777:24783   */\n      dup3\n        /* \"#utility.yul\":24773:24787   */\n      add\n        /* \"#utility.yul\":24766:24807   */\n      mstore\n        /* \"#utility.yul\":24649:24814   */\n      pop\n      jump\t// out\n        /* \"#utility.yul\":24820:25186   */\n    tag_297:\n        /* \"#utility.yul\":24962:24965   */\n      0x00\n        /* \"#utility.yul\":24983:25050   */\n      tag_567\n        /* \"#utility.yul\":25047:25049   */\n      0x0f\n        /* \"#utility.yul\":25042:25045   */\n      dup4\n        /* \"#utility.yul\":24983:25050   */\n      tag_239\n      jump\t// in\n    tag_567:\n        /* \"#utility.yul\":24976:25050   */\n      swap2\n      pop\n        /* \"#utility.yul\":25059:25152   */\n      tag_568\n        /* \"#utility.yul\":25148:25151   */\n      dup3\n        /* \"#utility.yul\":25059:25152   */\n      tag_296\n      jump\t// in\n    tag_568:\n        /* \"#utility.yul\":25177:25179   */\n      0x20\n        /* \"#utility.yul\":25172:25175   */\n      dup3\n        /* \"#utility.yul\":25168:25180   */\n      add\n        /* \"#utility.yul\":25161:25180   */\n      swap1\n      pop\n        /* \"#utility.yul\":24820:25186   */\n      swap2\n      swap1\n      pop\n      jump\t// out\n        /* \"#utility.yul\":25192:25611   */\n    tag_107:\n        /* \"#utility.yul\":25358:25362   */\n      0x00\n        /* \"#utility.yul\":25396:25398   */\n      0x20\n        /* \"#utility.yul\":25385:25394   */\n      dup3\n        /* \"#utility.yul\":25381:25399   */\n      add\n        /* \"#utility.yul\":25373:25399   */\n      swap1\n      pop\n        /* \"#utility.yul\":25445:25454   */\n      dup2\n        /* \"#utility.yul\":25439:25443   */\n      dup2\n        /* \"#utility.yul\":25435:25455   */\n      sub\n        /* \"#utility.yul\":25431:25432   */\n      0x00\n        /* \"#utility.yul\":25420:25429   */\n      dup4\n        /* \"#utility.yul\":25416:25433   */\n      add\n        /* \"#utility.yul\":25409:25456   */\n      mstore\n        /* \"#utility.yul\":25473:25604   */\n      tag_570\n        /* \"#utility.yul\":25599:25603   */\n      dup2\n        /* \"#utility.yul\":25473:25604   */\n      tag_297\n      jump\t// in\n    tag_570:\n        /* \"#utility.yul\":25465:25604   */\n      swap1\n      pop\n        /* \"#utility.yul\":25192:25611   */\n      swap2\n      swap1\n      pop\n      jump\t// out\n        /* \"#utility.yul\":25617:25797   */\n    tag_120:\n        /* \"#utility.yul\":25665:25742   */\n      0x4e487b7100000000000000000000000000000000000000000000000000000000\n        /* \"#utility.yul\":25662:25663   */\n      0x00\n        /* \"#utility.yul\":25655:25743   */\n      mstore\n        /* \"#utility.yul\":25762:25766   */\n      0x32\n        /* \"#utility.yul\":25759:25760   */\n      0x04\n        /* \"#utility.yul\":25752:25767   */\n      mstore\n        /* \"#utility.yul\":25786:25790   */\n      0x24\n        /* \"#utility.yul\":25783:25784   */\n      0x00\n        /* \"#utility.yul\":25776:25791   */\n      revert\n        /* \"#utility.yul\":25803:26036   */\n    tag_128:\n        /* \"#utility.yul\":25842:25845   */\n      0x00\n        /* \"#utility.yul\":25865:25889   */\n      tag_573\n        /* \"#utility.yul\":25883:25888   */\n      dup3\n        /* \"#utility.yul\":25865:25889   */\n      tag_234\n      jump\t// in\n    tag_573:\n        /* \"#utility.yul\":25856:25889   */\n      swap2\n      pop\n        /* \"#utility.yul\":25911:25977   */\n      0xffffffffffffffffffffffffffffffffffffffffffffffffffffffffffffffff\n        /* \"#utility.yul\":25904:25909   */\n      dup3\n        /* \"#utility.yul\":25901:25978   */\n      eq\n        /* \"#utility.yul\":25898:26001   */\n      iszero\n      tag_574\n      jumpi\n        /* \"#utility.yul\":25981:25999   */\n      tag_575\n      tag_294\n      jump\t// in\n    tag_575:\n        /* \"#utility.yul\":25898:26001   */\n    tag_574:\n        /* \"#utility.yul\":26028:26029   */\n      0x01\n        /* \"#utility.yul\":26021:26026   */\n      dup3\n        /* \"#utility.yul\":26017:26030   */\n      add\n        /* \"#utility.yul\":26010:26030   */\n      swap1\n      pop\n        /* \"#utility.yul\":25803:26036   */\n      swap2\n      swap1\n      pop\n      jump\t// out\n        /* \"#utility.yul\":26042:26136   */\n    tag_298:\n        /* \"#utility.yul\":26075:26083   */\n      0x00\n        /* \"#utility.yul\":26123:26128   */\n      dup2\n        /* \"#utility.yul\":26119:26121   */\n      0x60\n        /* \"#utility.yul\":26115:26129   */\n      shl\n        /* \"#utility.yul\":26094:26129   */\n      swap1\n      pop\n        /* \"#utility.yul\":26042:26136   */\n      swap2\n      swap1\n      pop\n      jump\t// out\n        /* \"#utility.yul\":26142:26236   */\n    tag_299:\n        /* \"#utility.yul\":26181:26188   */\n      0x00\n        /* \"#utility.yul\":26210:26230   */\n      tag_578\n        /* \"#utility.yul\":26224:26229   */\n      dup3\n        /* \"#utility.yul\":26210:26230   */\n      tag_298\n      jump\t// in\n    tag_578:\n        /* \"#utility.yul\":26199:26230   */\n      swap1\n      pop\n        /* \"#utility.yul\":26142:26236   */\n      swap2\n      swap1\n      pop\n      jump\t// out\n        /* \"#utility.yul\":26242:26342   */\n    tag_300:\n        /* \"#utility.yul\":26281:26288   */\n      0x00\n        /* \"#utility.yul\":26310:26336   */\n      tag_580\n        /* \"#utility.yul\":26330:26335   */\n      dup3\n        /* \"#utility.yul\":26310:26336   */\n      tag_299\n      jump\t// in\n    tag_580:\n        /* \"#utility.yul\":26299:26336   */\n      swap1\n      pop\n        /* \"#utility.yul\":26242:26342   */\n      swap2\n      swap1\n      pop\n      jump\t// out\n        /* \"#utility.yul\":26348:26505   */\n    tag_301:\n        /* \"#utility.yul\":26453:26498   */\n      tag_582\n        /* \"#utility.yul\":26473:26497   */\n      tag_583\n        /* \"#utility.yul\":26491:26496   */\n      dup3\n        /* \"#utility.yul\":26473:26497   */\n      tag_231\n      jump\t// in\n    tag_583:\n        /* \"#utility.yul\":26453:26498   */\n      tag_300\n      jump\t// in\n    tag_582:\n        /* \"#utility.yul\":26448:26451   */\n      dup3\n        /* \"#utility.yul\":26441:26499   */\n      mstore\n        /* \"#utility.yul\":26348:26505   */\n      pop\n      pop\n      jump\t// out\n        /* \"#utility.yul\":26511:26659   */\n    tag_302:\n        /* \"#utility.yul\":26613:26624   */\n      0x00\n        /* \"#utility.yul\":26650:26653   */\n      dup2\n        /* \"#utility.yul\":26635:26653   */\n      swap1\n      pop\n        /* \"#utility.yul\":26511:26659   */\n      swap3\n      swap2\n      pop\n      pop\n      jump\t// out\n        /* \"#utility.yul\":26665:26838   */\n    tag_303:\n        /* \"#utility.yul\":26805:26830   */\n      0x6d6574617472616e73616374696f6e20566f74696e6720000000000000000000\n        /* \"#utility.yul\":26801:26802   */\n      0x00\n        /* \"#utility.yul\":26793:26799   */\n      dup3\n        /* \"#utility.yul\":26789:26803   */\n      add\n        /* \"#utility.yul\":26782:26831   */\n      mstore\n        /* \"#utility.yul\":26665:26838   */\n      pop\n      jump\t// out\n        /* \"#utility.yul\":26844:27246   */\n    tag_304:\n        /* \"#utility.yul\":27004:27007   */\n      0x00\n        /* \"#utility.yul\":27025:27110   */\n      tag_587\n        /* \"#utility.yul\":27107:27109   */\n      0x17\n        /* \"#utility.yul\":27102:27105   */\n      dup4\n        /* \"#utility.yul\":27025:27110   */\n      tag_302\n      jump\t// in\n    tag_587:\n        /* \"#utility.yul\":27018:27110   */\n      swap2\n      pop\n        /* \"#utility.yul\":27119:27212   */\n      tag_588\n        /* \"#utility.yul\":27208:27211   */\n      dup3\n        /* \"#utility.yul\":27119:27212   */\n      tag_303\n      jump\t// in\n    tag_588:\n        /* \"#utility.yul\":27237:27239   */\n      0x17\n        /* \"#utility.yul\":27232:27235   */\n      dup3\n        /* \"#utility.yul\":27228:27240   */\n      add\n        /* \"#utility.yul\":27221:27240   */\n      swap1\n      pop\n        /* \"#utility.yul\":26844:27246   */\n      swap2\n      swap1\n      pop\n      jump\t// out\n        /* \"#utility.yul\":27252:27331   */\n    tag_305:\n        /* \"#utility.yul\":27291:27298   */\n      0x00\n        /* \"#utility.yul\":27320:27325   */\n      dup2\n        /* \"#utility.yul\":27309:27325   */\n      swap1\n      pop\n        /* \"#utility.yul\":27252:27331   */\n      swap2\n      swap1\n      pop\n      jump\t// out\n        /* \"#utility.yul\":27337:27494   */\n    tag_306:\n        /* \"#utility.yul\":27442:27487   */\n      tag_591\n        /* \"#utility.yul\":27462:27486   */\n      tag_592\n        /* \"#utility.yul\":27480:27485   */\n      dup3\n        /* \"#utility.yul\":27462:27486   */\n      tag_234\n      jump\t// in\n    tag_592:\n        /* \"#utility.yul\":27442:27487   */\n      tag_305\n      jump\t// in\n    tag_591:\n        /* \"#utility.yul\":27437:27440   */\n      dup3\n        /* \"#utility.yul\":27430:27488   */\n      mstore\n        /* \"#utility.yul\":27337:27494   */\n      pop\n      pop\n      jump\t// out\n        /* \"#utility.yul\":27500:28586   */\n    tag_133:\n        /* \"#utility.yul\":27825:27828   */\n      0x00\n        /* \"#utility.yul\":27840:27915   */\n      tag_594\n        /* \"#utility.yul\":27911:27914   */\n      dup3\n        /* \"#utility.yul\":27902:27908   */\n      dup9\n        /* \"#utility.yul\":27840:27915   */\n      tag_301\n      jump\t// in\n    tag_594:\n        /* \"#utility.yul\":27940:27942   */\n      0x14\n        /* \"#utility.yul\":27935:27938   */\n      dup3\n        /* \"#utility.yul\":27931:27943   */\n      add\n        /* \"#utility.yul\":27924:27943   */\n      swap2\n      pop\n        /* \"#utility.yul\":27960:28108   */\n      tag_595\n        /* \"#utility.yul\":28104:28107   */\n      dup3\n        /* \"#utility.yul\":27960:28108   */\n      tag_304\n      jump\t// in\n    tag_595:\n        /* \"#utility.yul\":27953:28108   */\n      swap2\n      pop\n        /* \"#utility.yul\":28118:28193   */\n      tag_596\n        /* \"#utility.yul\":28189:28192   */\n      dup3\n        /* \"#utility.yul\":28180:28186   */\n      dup8\n        /* \"#utility.yul\":28118:28193   */\n      tag_301\n      jump\t// in\n    tag_596:\n        /* \"#utility.yul\":28218:28220   */\n      0x14\n        /* \"#utility.yul\":28213:28216   */\n      dup3\n        /* \"#utility.yul\":28209:28221   */\n      add\n        /* \"#utility.yul\":28202:28221   */\n      swap2\n      pop\n        /* \"#utility.yul\":28231:28306   */\n      tag_597\n        /* \"#utility.yul\":28302:28305   */\n      dup3\n        /* \"#utility.yul\":28293:28299   */\n      dup7\n        /* \"#utility.yul\":28231:28306   */\n      tag_306\n      jump\t// in\n    tag_597:\n        /* \"#utility.yul\":28331:28333   */\n      0x20\n        /* \"#utility.yul\":28326:28329   */\n      dup3\n        /* \"#utility.yul\":28322:28334   */\n      add\n        /* \"#utility.yul\":28315:28334   */\n      swap2\n      pop\n        /* \"#utility.yul\":28344:28419   */\n      tag_598\n        /* \"#utility.yul\":28415:28418   */\n      dup3\n        /* \"#utility.yul\":28406:28412   */\n      dup6\n        /* \"#utility.yul\":28344:28419   */\n      tag_306\n      jump\t// in\n    tag_598:\n        /* \"#utility.yul\":28444:28446   */\n      0x20\n        /* \"#utility.yul\":28439:28442   */\n      dup3\n        /* \"#utility.yul\":28435:28447   */\n      add\n        /* \"#utility.yul\":28428:28447   */\n      swap2\n      pop\n        /* \"#utility.yul\":28457:28532   */\n      tag_599\n        /* \"#utility.yul\":28528:28531   */\n      dup3\n        /* \"#utility.yul\":28519:28525   */\n      dup5\n        /* \"#utility.yul\":28457:28532   */\n      tag_306\n      jump\t// in\n    tag_599:\n        /* \"#utility.yul\":28557:28559   */\n      0x20\n        /* \"#utility.yul\":28552:28555   */\n      dup3\n        /* \"#utility.yul\":28548:28560   */\n      add\n        /* \"#utility.yul\":28541:28560   */\n      swap2\n      pop\n        /* \"#utility.yul\":28577:28580   */\n      dup2\n        /* \"#utility.yul\":28570:28580   */\n      swap1\n      pop\n        /* \"#utility.yul\":27500:28586   */\n      swap7\n      swap6\n      pop\n      pop\n      pop\n      pop\n      pop\n      pop\n      jump\t// out\n        /* \"#utility.yul\":28592:28821   */\n    tag_307:\n        /* \"#utility.yul\":28732:28766   */\n      0x54686973206164647265737320646f6573206e6f742065786973742061732061\n        /* \"#utility.yul\":28728:28729   */\n      0x00\n        /* \"#utility.yul\":28720:28726   */\n      dup3\n        /* \"#utility.yul\":28716:28730   */\n      add\n        /* \"#utility.yul\":28709:28767   */\n      mstore\n        /* \"#utility.yul\":28801:28813   */\n      0x2063616e64696461746500000000000000000000000000000000000000000000\n        /* \"#utility.yul\":28796:28798   */\n      0x20\n        /* \"#utility.yul\":28788:28794   */\n      dup3\n        /* \"#utility.yul\":28784:28799   */\n      add\n        /* \"#utility.yul\":28777:28814   */\n      mstore\n        /* \"#utility.yul\":28592:28821   */\n      pop\n      jump\t// out\n        /* \"#utility.yul\":28827:29193   */\n    tag_308:\n        /* \"#utility.yul\":28969:28972   */\n      0x00\n        /* \"#utility.yul\":28990:29057   */\n      tag_602\n        /* \"#utility.yul\":29054:29056   */\n      0x2a\n        /* \"#utility.yul\":29049:29052   */\n      dup4\n        /* \"#utility.yul\":28990:29057   */\n      tag_239\n      jump\t// in\n    tag_602:\n        /* \"#utility.yul\":28983:29057   */\n      swap2\n      pop\n        /* \"#utility.yul\":29066:29159   */\n      tag_603\n        /* \"#utility.yul\":29155:29158   */\n      dup3\n        /* \"#utility.yul\":29066:29159   */\n      tag_307\n      jump\t// in\n    tag_603:\n        /* \"#utility.yul\":29184:29186   */\n      0x40\n        /* \"#utility.yul\":29179:29182   */\n      dup3\n        /* \"#utility.yul\":29175:29187   */\n      add\n        /* \"#utility.yul\":29168:29187   */\n      swap1\n      pop\n        /* \"#utility.yul\":28827:29193   */\n      swap2\n      swap1\n      pop\n      jump\t// out\n        /* \"#utility.yul\":29199:29618   */\n    tag_137:\n        /* \"#utility.yul\":29365:29369   */\n      0x00\n        /* \"#utility.yul\":29403:29405   */\n      0x20\n        /* \"#utility.yul\":29392:29401   */\n      dup3\n        /* \"#utility.yul\":29388:29406   */\n      add\n        /* \"#utility.yul\":29380:29406   */\n      swap1\n      pop\n        /* \"#utility.yul\":29452:29461   */\n      dup2\n        /* \"#utility.yul\":29446:29450   */\n      dup2\n        /* \"#utility.yul\":29442:29462   */\n      sub\n        /* \"#utility.yul\":29438:29439   */\n      0x00\n        /* \"#utility.yul\":29427:29436   */\n      dup4\n        /* \"#utility.yul\":29423:29440   */\n      add\n        /* \"#utility.yul\":29416:29463   */\n      mstore\n        /* \"#utility.yul\":29480:29611   */\n      tag_605\n        /* \"#utility.yul\":29606:29610   */\n      dup2\n        /* \"#utility.yul\":29480:29611   */\n      tag_308\n      jump\t// in\n    tag_605:\n        /* \"#utility.yul\":29472:29611   */\n      swap1\n      pop\n        /* \"#utility.yul\":29199:29618   */\n      swap2\n      swap1\n      pop\n      jump\t// out\n        /* \"#utility.yul\":29624:29790   */\n    tag_309:\n        /* \"#utility.yul\":29764:29782   */\n      0x766f74696e672068617320656e64656400000000000000000000000000000000\n        /* \"#utility.yul\":29760:29761   */\n      0x00\n        /* \"#utility.yul\":29752:29758   */\n      dup3\n        /* \"#utility.yul\":29748:29762   */\n      add\n        /* \"#utility.yul\":29741:29783   */\n      mstore\n        /* \"#utility.yul\":29624:29790   */\n      pop\n      jump\t// out\n        /* \"#utility.yul\":29796:30162   */\n    tag_310:\n        /* \"#utility.yul\":29938:29941   */\n      0x00\n        /* \"#utility.yul\":29959:30026   */\n      tag_608\n        /* \"#utility.yul\":30023:30025   */\n      0x10\n        /* \"#utility.yul\":30018:30021   */\n      dup4\n        /* \"#utility.yul\":29959:30026   */\n      tag_239\n      jump\t// in\n    tag_608:\n        /* \"#utility.yul\":29952:30026   */\n      swap2\n      pop\n        /* \"#utility.yul\":30035:30128   */\n      tag_609\n        /* \"#utility.yul\":30124:30127   */\n      dup3\n        /* \"#utility.yul\":30035:30128   */\n      tag_309\n      jump\t// in\n    tag_609:\n        /* \"#utility.yul\":30153:30155   */\n      0x20\n        /* \"#utility.yul\":30148:30151   */\n      dup3\n        /* \"#utility.yul\":30144:30156   */\n      add\n        /* \"#utility.yul\":30137:30156   */\n      swap1\n      pop\n        /* \"#utility.yul\":29796:30162   */\n      swap2\n      swap1\n      pop\n      jump\t// out\n        /* \"#utility.yul\":30168:30587   */\n    tag_141:\n        /* \"#utility.yul\":30334:30338   */\n      0x00\n        /* \"#utility.yul\":30372:30374   */\n      0x20\n        /* \"#utility.yul\":30361:30370   */\n      dup3\n        /* \"#utility.yul\":30357:30375   */\n      add\n        /* \"#utility.yul\":30349:30375   */\n      swap1\n      pop\n        /* \"#utility.yul\":30421:30430   */\n      dup2\n        /* \"#utility.yul\":30415:30419   */\n      dup2\n        /* \"#utility.yul\":30411:30431   */\n      sub\n        /* \"#utility.yul\":30407:30408   */\n      0x00\n        /* \"#utility.yul\":30396:30405   */\n      dup4\n        /* \"#utility.yul\":30392:30409   */\n      add\n        /* \"#utility.yul\":30385:30432   */\n      mstore\n        /* \"#utility.yul\":30449:30580   */\n      tag_611\n        /* \"#utility.yul\":30575:30579   */\n      dup2\n        /* \"#utility.yul\":30449:30580   */\n      tag_310\n      jump\t// in\n    tag_611:\n        /* \"#utility.yul\":30441:30580   */\n      swap1\n      pop\n        /* \"#utility.yul\":30168:30587   */\n      swap2\n      swap1\n      pop\n      jump\t// out\n        /* \"#utility.yul\":30593:30760   */\n    tag_311:\n        /* \"#utility.yul\":30733:30752   */\n      0x596f7520616c726561647920766f746564000000000000000000000000000000\n        /* \"#utility.yul\":30729:30730   */\n      0x00\n        /* \"#utility.yul\":30721:30727   */\n      dup3\n        /* \"#utility.yul\":30717:30731   */\n      add\n        /* \"#utility.yul\":30710:30753   */\n      mstore\n        /* \"#utility.yul\":30593:30760   */\n      pop\n      jump\t// out\n        /* \"#utility.yul\":30766:31132   */\n    tag_312:\n        /* \"#utility.yul\":30908:30911   */\n      0x00\n        /* \"#utility.yul\":30929:30996   */\n      tag_614\n        /* \"#utility.yul\":30993:30995   */\n      0x11\n        /* \"#utility.yul\":30988:30991   */\n      dup4\n        /* \"#utility.yul\":30929:30996   */\n      tag_239\n      jump\t// in\n    tag_614:\n        /* \"#utility.yul\":30922:30996   */\n      swap2\n      pop\n        /* \"#utility.yul\":31005:31098   */\n      tag_615\n        /* \"#utility.yul\":31094:31097   */\n      dup3\n        /* \"#utility.yul\":31005:31098   */\n      tag_311\n      jump\t// in\n    tag_615:\n        /* \"#utility.yul\":31123:31125   */\n      0x20\n        /* \"#utility.yul\":31118:31121   */\n      dup3\n        /* \"#utility.yul\":31114:31126   */\n      add\n        /* \"#utility.yul\":31107:31126   */\n      swap1\n      pop\n        /* \"#utility.yul\":30766:31132   */\n      swap2\n      swap1\n      pop\n      jump\t// out\n        /* \"#utility.yul\":31138:31557   */\n    tag_151:\n        /* \"#utility.yul\":31304:31308   */\n      0x00\n        /* \"#utility.yul\":31342:31344   */\n      0x20\n        /* \"#utility.yul\":31331:31340   */\n      dup3\n        /* \"#utility.yul\":31327:31345   */\n      add\n        /* \"#utility.yul\":31319:31345   */\n      swap1\n      pop\n        /* \"#utility.yul\":31391:31400   */\n      dup2\n        /* \"#utility.yul\":31385:31389   */\n      dup2\n        /* \"#utility.yul\":31381:31401   */\n      sub\n        /* \"#utility.yul\":31377:31378   */\n      0x00\n        /* \"#utility.yul\":31366:31375   */\n      dup4\n        /* \"#utility.yul\":31362:31379   */\n      add\n        /* \"#utility.yul\":31355:31402   */\n      mstore\n        /* \"#utility.yul\":31419:31550   */\n      tag_617\n        /* \"#utility.yul\":31545:31549   */\n      dup2\n        /* \"#utility.yul\":31419:31550   */\n      tag_312\n      jump\t// in\n    tag_617:\n        /* \"#utility.yul\":31411:31550   */\n      swap1\n      pop\n        /* \"#utility.yul\":31138:31557   */\n      swap2\n      swap1\n      pop\n      jump\t// out\n        /* \"#utility.yul\":31563:31883   */\n    tag_155:\n        /* \"#utility.yul\":31678:31682   */\n      0x00\n        /* \"#utility.yul\":31716:31718   */\n      0x40\n        /* \"#utility.yul\":31705:31714   */\n      dup3\n        /* \"#utility.yul\":31701:31719   */\n      add\n        /* \"#utility.yul\":31693:31719   */\n      swap1\n      pop\n        /* \"#utility.yul\":31729:31800   */\n      tag_619\n        /* \"#utility.yul\":31797:31798   */\n      0x00\n        /* \"#utility.yul\":31786:31795   */\n      dup4\n        /* \"#utility.yul\":31782:31799   */\n      add\n        /* \"#utility.yul\":31773:31779   */\n      dup6\n        /* \"#utility.yul\":31729:31800   */\n      tag_243\n      jump\t// in\n    tag_619:\n        /* \"#utility.yul\":31810:31876   */\n      tag_620\n        /* \"#utility.yul\":31872:31874   */\n      0x20\n        /* \"#utility.yul\":31861:31870   */\n      dup4\n        /* \"#utility.yul\":31857:31875   */\n      add\n        /* \"#utility.yul\":31848:31854   */\n      dup5\n        /* \"#utility.yul\":31810:31876   */\n      tag_247\n      jump\t// in\n    tag_620:\n        /* \"#utility.yul\":31563:31883   */\n      swap4\n      swap3\n      pop\n      pop\n      pop\n      jump\t// out\n        /* \"#utility.yul\":31889:32055   */\n    tag_313:\n        /* \"#utility.yul\":32029:32047   */\n      0x6e6f74207468652063686169726d616e00000000000000000000000000000000\n        /* \"#utility.yul\":32025:32026   */\n      0x00\n        /* \"#utility.yul\":32017:32023   */\n      dup3\n        /* \"#utility.yul\":32013:32027   */\n      add\n        /* \"#utility.yul\":32006:32048   */\n      mstore\n        /* \"#utility.yul\":31889:32055   */\n      pop\n      jump\t// out\n        /* \"#utility.yul\":32061:32427   */\n    tag_314:\n        /* \"#utility.yul\":32203:32206   */\n      0x00\n        /* \"#utility.yul\":32224:32291   */\n      tag_623\n        /* \"#utility.yul\":32288:32290   */\n      0x10\n        /* \"#utility.yul\":32283:32286   */\n      dup4\n        /* \"#utility.yul\":32224:32291   */\n      tag_239\n      jump\t// in\n    tag_623:\n        /* \"#utility.yul\":32217:32291   */\n      swap2\n      pop\n        /* \"#utility.yul\":32300:32393   */\n      tag_624\n        /* \"#utility.yul\":32389:32392   */\n      dup3\n        /* \"#utility.yul\":32300:32393   */\n      tag_313\n      jump\t// in\n    tag_624:\n        /* \"#utility.yul\":32418:32420   */\n      0x20\n        /* \"#utility.yul\":32413:32416   */\n      dup3\n        /* \"#utility.yul\":32409:32421   */\n      add\n        /* \"#utility.yul\":32402:32421   */\n      swap1\n      pop\n        /* \"#utility.yul\":32061:32427   */\n      swap2\n      swap1\n      pop\n      jump\t// out\n        /* \"#utility.yul\":32433:32852   */\n    tag_159:\n        /* \"#utility.yul\":32599:32603   */\n      0x00\n        /* \"#utility.yul\":32637:32639   */\n      0x20\n        /* \"#utility.yul\":32626:32635   */\n      dup3\n        /* \"#utility.yul\":32622:32640   */\n      add\n        /* \"#utility.yul\":32614:32640   */\n      swap1\n      pop\n        /* \"#utility.yul\":32686:32695   */\n      dup2\n        /* \"#utility.yul\":32680:32684   */\n      dup2\n        /* \"#utility.yul\":32676:32696   */\n      sub\n        /* \"#utility.yul\":32672:32673   */\n      0x00\n        /* \"#utility.yul\":32661:32670   */\n      dup4\n        /* \"#utility.yul\":32657:32674   */\n      add\n        /* \"#utility.yul\":32650:32697   */\n      mstore\n        /* \"#utility.yul\":32714:32845   */\n      tag_626\n        /* \"#utility.yul\":32840:32844   */\n      dup2\n        /* \"#utility.yul\":32714:32845   */\n      tag_314\n      jump\t// in\n    tag_626:\n        /* \"#utility.yul\":32706:32845   */\n      swap1\n      pop\n        /* \"#utility.yul\":32433:32852   */\n      swap2\n      swap1\n      pop\n      jump\t// out\n        /* \"#utility.yul\":32858:33235   */\n    tag_315:\n        /* \"#utility.yul\":32964:32967   */\n      0x00\n        /* \"#utility.yul\":32992:33031   */\n      tag_628\n        /* \"#utility.yul\":33025:33030   */\n      dup3\n        /* \"#utility.yul\":32992:33031   */\n      tag_238\n      jump\t// in\n    tag_628:\n        /* \"#utility.yul\":33047:33136   */\n      tag_629\n        /* \"#utility.yul\":33129:33135   */\n      dup2\n        /* \"#utility.yul\":33124:33127   */\n      dup6\n        /* \"#utility.yul\":33047:33136   */\n      tag_302\n      jump\t// in\n    tag_629:\n        /* \"#utility.yul\":33040:33136   */\n      swap4\n      pop\n        /* \"#utility.yul\":33145:33197   */\n      tag_630\n        /* \"#utility.yul\":33190:33196   */\n      dup2\n        /* \"#utility.yul\":33185:33188   */\n      dup6\n        /* \"#utility.yul\":33178:33182   */\n      0x20\n        /* \"#utility.yul\":33171:33176   */\n      dup7\n        /* \"#utility.yul\":33167:33183   */\n      add\n        /* \"#utility.yul\":33145:33197   */\n      tag_240\n      jump\t// in\n    tag_630:\n        /* \"#utility.yul\":33222:33228   */\n      dup1\n        /* \"#utility.yul\":33217:33220   */\n      dup5\n        /* \"#utility.yul\":33213:33229   */\n      add\n        /* \"#utility.yul\":33206:33229   */\n      swap2\n      pop\n        /* \"#utility.yul\":32968:33235   */\n      pop\n        /* \"#utility.yul\":32858:33235   */\n      swap3\n      swap2\n      pop\n      pop\n      jump\t// out\n        /* \"#utility.yul\":33241:33516   */\n    tag_170:\n        /* \"#utility.yul\":33373:33376   */\n      0x00\n        /* \"#utility.yul\":33395:33490   */\n      tag_632\n        /* \"#utility.yul\":33486:33489   */\n      dup3\n        /* \"#utility.yul\":33477:33483   */\n      dup5\n        /* \"#utility.yul\":33395:33490   */\n      tag_315\n      jump\t// in\n    tag_632:\n        /* \"#utility.yul\":33388:33490   */\n      swap2\n      pop\n        /* \"#utility.yul\":33507:33510   */\n      dup2\n        /* \"#utility.yul\":33500:33510   */\n      swap1\n      pop\n        /* \"#utility.yul\":33241:33516   */\n      swap3\n      swap2\n      pop\n      pop\n      jump\t// out\n        /* \"#utility.yul\":33522:33608   */\n    tag_316:\n        /* \"#utility.yul\":33557:33564   */\n      0x00\n        /* \"#utility.yul\":33597:33601   */\n      0xff\n        /* \"#utility.yul\":33590:33595   */\n      dup3\n        /* \"#utility.yul\":33586:33602   */\n      and\n        /* \"#utility.yul\":33575:33602   */\n      swap1\n      pop\n        /* \"#utility.yul\":33522:33608   */\n      swap2\n      swap1\n      pop\n      jump\t// out\n        /* \"#utility.yul\":33614:33851   */\n    tag_196:\n        /* \"#utility.yul\":33652:33655   */\n      0x00\n        /* \"#utility.yul\":33671:33689   */\n      tag_635\n        /* \"#utility.yul\":33687:33688   */\n      dup3\n        /* \"#utility.yul\":33671:33689   */\n      tag_316\n      jump\t// in\n    tag_635:\n        /* \"#utility.yul\":33666:33689   */\n      swap2\n      pop\n        /* \"#utility.yul\":33703:33721   */\n      tag_636\n        /* \"#utility.yul\":33719:33720   */\n      dup4\n        /* \"#utility.yul\":33703:33721   */\n      tag_316\n      jump\t// in\n    tag_636:\n        /* \"#utility.yul\":33698:33721   */\n      swap3\n      pop\n        /* \"#utility.yul\":33793:33794   */\n      dup3\n        /* \"#utility.yul\":33787:33791   */\n      0xff\n        /* \"#utility.yul\":33783:33795   */\n      sub\n        /* \"#utility.yul\":33780:33781   */\n      dup3\n        /* \"#utility.yul\":33777:33796   */\n      gt\n        /* \"#utility.yul\":33774:33819   */\n      iszero\n      tag_637\n      jumpi\n        /* \"#utility.yul\":33799:33817   */\n      tag_638\n      tag_294\n      jump\t// in\n    tag_638:\n        /* \"#utility.yul\":33774:33819   */\n    tag_637:\n        /* \"#utility.yul\":33843:33844   */\n      dup3\n        /* \"#utility.yul\":33840:33841   */\n      dup3\n        /* \"#utility.yul\":33836:33845   */\n      add\n        /* \"#utility.yul\":33829:33845   */\n      swap1\n      pop\n        /* \"#utility.yul\":33614:33851   */\n      swap3\n      swap2\n      pop\n      pop\n      jump\t// out\n        /* \"#utility.yul\":33857:34071   */\n    tag_317:\n        /* \"#utility.yul\":33997:34063   */\n      0x19457468657265756d205369676e6564204d6573736167653a0a333200000000\n        /* \"#utility.yul\":33993:33994   */\n      0x00\n        /* \"#utility.yul\":33985:33991   */\n      dup3\n        /* \"#utility.yul\":33981:33995   */\n      add\n        /* \"#utility.yul\":33974:34064   */\n      mstore\n        /* \"#utility.yul\":33857:34071   */\n      pop\n      jump\t// out\n        /* \"#utility.yul\":34077:34479   */\n    tag_318:\n        /* \"#utility.yul\":34237:34240   */\n      0x00\n        /* \"#utility.yul\":34258:34343   */\n      tag_641\n        /* \"#utility.yul\":34340:34342   */\n      0x1c\n        /* \"#utility.yul\":34335:34338   */\n      dup4\n        /* \"#utility.yul\":34258:34343   */\n      tag_302\n      jump\t// in\n    tag_641:\n        /* \"#utility.yul\":34251:34343   */\n      swap2\n      pop\n        /* \"#utility.yul\":34352:34445   */\n      tag_642\n        /* \"#utility.yul\":34441:34444   */\n      dup3\n        /* \"#utility.yul\":34352:34445   */\n      tag_317\n      jump\t// in\n    tag_642:\n        /* \"#utility.yul\":34470:34472   */\n      0x1c\n        /* \"#utility.yul\":34465:34468   */\n      dup3\n        /* \"#utility.yul\":34461:34473   */\n      add\n        /* \"#utility.yul\":34454:34473   */\n      swap1\n      pop\n        /* \"#utility.yul\":34077:34479   */\n      swap2\n      swap1\n      pop\n      jump\t// out\n        /* \"#utility.yul\":34485:34564   */\n    tag_319:\n        /* \"#utility.yul\":34524:34531   */\n      0x00\n        /* \"#utility.yul\":34553:34558   */\n      dup2\n        /* \"#utility.yul\":34542:34558   */\n      swap1\n      pop\n        /* \"#utility.yul\":34485:34564   */\n      swap2\n      swap1\n      pop\n      jump\t// out\n        /* \"#utility.yul\":34570:34727   */\n    tag_320:\n        /* \"#utility.yul\":34675:34720   */\n      tag_645\n        /* \"#utility.yul\":34695:34719   */\n      tag_646\n        /* \"#utility.yul\":34713:34718   */\n      dup3\n        /* \"#utility.yul\":34695:34719   */\n      tag_262\n      jump\t// in\n    tag_646:\n        /* \"#utility.yul\":34675:34720   */\n      tag_319\n      jump\t// in\n    tag_645:\n        /* \"#utility.yul\":34670:34673   */\n      dup3\n        /* \"#utility.yul\":34663:34721   */\n      mstore\n        /* \"#utility.yul\":34570:34727   */\n      pop\n      pop\n      jump\t// out\n        /* \"#utility.yul\":34733:35255   */\n    tag_201:\n        /* \"#utility.yul\":34946:34949   */\n      0x00\n        /* \"#utility.yul\":34968:35116   */\n      tag_648\n        /* \"#utility.yul\":35112:35115   */\n      dup3\n        /* \"#utility.yul\":34968:35116   */\n      tag_318\n      jump\t// in\n    tag_648:\n        /* \"#utility.yul\":34961:35116   */\n      swap2\n      pop\n        /* \"#utility.yul\":35126:35201   */\n      tag_649\n        /* \"#utility.yul\":35197:35200   */\n      dup3\n        /* \"#utility.yul\":35188:35194   */\n      dup5\n        /* \"#utility.yul\":35126:35201   */\n      tag_320\n      jump\t// in\n    tag_649:\n        /* \"#utility.yul\":35226:35228   */\n      0x20\n        /* \"#utility.yul\":35221:35224   */\n      dup3\n        /* \"#utility.yul\":35217:35229   */\n      add\n        /* \"#utility.yul\":35210:35229   */\n      swap2\n      pop\n        /* \"#utility.yul\":35246:35249   */\n      dup2\n        /* \"#utility.yul\":35239:35249   */\n      swap1\n      pop\n        /* \"#utility.yul\":34733:35255   */\n      swap3\n      swap2\n      pop\n      pop\n      jump\t// out\n        /* \"#utility.yul\":35261:35373   */\n    tag_321:\n        /* \"#utility.yul\":35344:35366   */\n      tag_651\n        /* \"#utility.yul\":35360:35365   */\n      dup2\n        /* \"#utility.yul\":35344:35366   */\n      tag_316\n      jump\t// in\n    tag_651:\n        /* \"#utility.yul\":35339:35342   */\n      dup3\n        /* \"#utility.yul\":35332:35367   */\n      mstore\n        /* \"#utility.yul\":35261:35373   */\n      pop\n      pop\n      jump\t// out\n        /* \"#utility.yul\":35379:35924   */\n    tag_203:\n        /* \"#utility.yul\":35552:35556   */\n      0x00\n        /* \"#utility.yul\":35590:35593   */\n      0x80\n        /* \"#utility.yul\":35579:35588   */\n      dup3\n        /* \"#utility.yul\":35575:35594   */\n      add\n        /* \"#utility.yul\":35567:35594   */\n      swap1\n      pop\n        /* \"#utility.yul\":35604:35675   */\n      tag_653\n        /* \"#utility.yul\":35672:35673   */\n      0x00\n        /* \"#utility.yul\":35661:35670   */\n      dup4\n        /* \"#utility.yul\":35657:35674   */\n      add\n        /* \"#utility.yul\":35648:35654   */\n      dup8\n        /* \"#utility.yul\":35604:35675   */\n      tag_263\n      jump\t// in\n    tag_653:\n        /* \"#utility.yul\":35685:35753   */\n      tag_654\n        /* \"#utility.yul\":35749:35751   */\n      0x20\n        /* \"#utility.yul\":35738:35747   */\n      dup4\n        /* \"#utility.yul\":35734:35752   */\n      add\n        /* \"#utility.yul\":35725:35731   */\n      dup7\n        /* \"#utility.yul\":35685:35753   */\n      tag_321\n      jump\t// in\n    tag_654:\n        /* \"#utility.yul\":35763:35835   */\n      tag_655\n        /* \"#utility.yul\":35831:35833   */\n      0x40\n        /* \"#utility.yul\":35820:35829   */\n      dup4\n        /* \"#utility.yul\":35816:35834   */\n      add\n        /* \"#utility.yul\":35807:35813   */\n      dup6\n        /* \"#utility.yul\":35763:35835   */\n      tag_263\n      jump\t// in\n    tag_655:\n        /* \"#utility.yul\":35845:35917   */\n      tag_656\n        /* \"#utility.yul\":35913:35915   */\n      0x60\n        /* \"#utility.yul\":35902:35911   */\n      dup4\n        /* \"#utility.yul\":35898:35916   */\n      add\n        /* \"#utility.yul\":35889:35895   */\n      dup5\n        /* \"#utility.yul\":35845:35917   */\n      tag_263\n      jump\t// in\n    tag_656:\n        /* \"#utility.yul\":35379:35924   */\n      swap6\n      swap5\n      pop\n      pop\n      pop\n      pop\n      pop\n      jump\t// out\n\n    auxdata: 0xa2646970667358221220515ad46a757a6a0e67374ae2d0e48ca337fa2ada423341d0635cadf71ad3b2e964736f6c634300080a0033\n}\n",
				"bytecode": {
					"linkReferences": {},
					"object": "6080604052600160005534801561001557600080fd5b5061297f806100256000396000f3fe608060405234801561001057600080fd5b50600436106100cf5760003560e01c8063ae928e3e1161008c578063c57003cc11610066578063c57003cc14610262578063e615f1041461027e578063f762f4c0146102b2578063fa4c5173146102ce576100cf565b8063ae928e3e146101e6578063bfe2e25d14610216578063c10d6cec14610246576100cf565b8063049d1c8b146100d457806366c5343b146100f057806367d407df146101205780638321f397146101505780638ac3c3c2146101845780638ccb59e8146101b4575b600080fd5b6100ee60048036038101906100e99190611821565b6102ec565b005b61010a60048036038101906101059190611861565b6105ba565b604051610117919061189d565b60405180910390f35b61013a600480360381019061013591906118b8565b6105f5565b604051610147919061189d565b60405180910390f35b61016a60048036038101906101659190611861565b61060d565b60405161017b9594939291906119c7565b60405180910390f35b61019e60048036038101906101999190611861565b610728565b6040516101ab9190611adf565b60405180910390f35b6101ce60048036038101906101c99190611861565b6107d2565b6040516101dd93929190611bbf565b60405180910390f35b61020060048036038101906101fb9190611861565b610a1e565b60405161020d919061189d565b60405180910390f35b610230600480360381019061022b9190611bfd565b610a42565b60405161023d9190611c7d565b60405180910390f35b610260600480360381019061025b9190611dcd565b610a7d565b005b61027c60048036038101906102779190611861565b610d81565b005b61029860048036038101906102939190611861565b610e9c565b6040516102a99594939291906119c7565b60405180910390f35b6102cc60048036038101906102c79190611f1d565b610fa7565b005b6102d66110e5565b6040516102e391906121a2565b60405180910390f35b6000600360008381526020019081526020016000209050600073ffffffffffffffffffffffffffffffffffffffff168160010160009054906101000a900473ffffffffffffffffffffffffffffffffffffffff1673ffffffffffffffffffffffffffffffffffffffff161415610397576040517f08c379a000000000000000000000000000000000000000000000000000000000815260040161038e90612210565b60405180910390fd5b3373ffffffffffffffffffffffffffffffffffffffff168160010160009054906101000a900473ffffffffffffffffffffffffffffffffffffffff1673ffffffffffffffffffffffffffffffffffffffff16146103f7576103f6612230565b5b8060030160009054906101000a900463ffffffff1663ffffffff168160030160049054906101000a900463ffffffff1663ffffffff161061046d576040517f08c379a0000000000000000000000000000000000000000000000000000000008152600401610464906122d1565b60405180910390fd5b60016005600084815260200190815260200160002060008573ffffffffffffffffffffffffffffffffffffffff1673ffffffffffffffffffffffffffffffffffffffff16815260200190815260200160002060006101000a81548160ff02191690831515021790555080600201839080600181540180825580915050600190039060005260206000200160009091909190916101000a81548173ffffffffffffffffffffffffffffffffffffffff021916908373ffffffffffffffffffffffffffffffffffffffff16021790555080600301600481819054906101000a900463ffffffff168092919061055f90612320565b91906101000a81548163ffffffff021916908363ffffffff160217905550507fc19c59aa93348e8fc54764bc642eca975e2639f44cc683ef8f027e1529cbda32836040516105ad919061234d565b60405180910390a1505050565b6000806003600084815260200190815260200160002090508060030160049054906101000a900463ffffffff1663ffffffff16915050919050565b60046020528060005260406000206000915090505481565b6002818154811061061d57600080fd5b906000526020600020906004020160009150905080600001805461064090612397565b80601f016020809104026020016040519081016040528092919081815260200182805461066c90612397565b80156106b95780601f1061068e576101008083540402835291602001916106b9565b820191906000526020600020905b81548152906001019060200180831161069c57829003601f168201915b5050505050908060010160009054906101000a900473ffffffffffffffffffffffffffffffffffffffff16908060030160009054906101000a900463ffffffff16908060030160049054906101000a900463ffffffff16908060030160089054906101000a900460ff16905085565b60606000600360008481526020019081526020016000209050806002018054806020026020016040519081016040528092919081815260200182805480156107c557602002820191906000526020600020905b8160009054906101000a900473ffffffffffffffffffffffffffffffffffffffff1673ffffffffffffffffffffffffffffffffffffffff168152602001906001019080831161077b575b5050505050915050919050565b60606000806000600360008681526020019081526020016000209050600073ffffffffffffffffffffffffffffffffffffffff168160010160009054906101000a900473ffffffffffffffffffffffffffffffffffffffff1673ffffffffffffffffffffffffffffffffffffffff161415610882576040517f08c379a000000000000000000000000000000000000000000000000000000000815260040161087990612415565b60405180910390fd5b806002018054905067ffffffffffffffff8111156108a3576108a2611ca2565b5b6040519080825280602002602001820160405280156108d15781602001602082028036833780820191505090505b50935060008060005b8360020180549050811015610a0a5760006108f5898361119c565b9050838111156109465780935084600201828154811061091857610917612435565b5b9060005260206000200160009054906101000a900473ffffffffffffffffffffffffffffffffffffffff1692505b600660008a8152602001908152602001600020600086600201848154811061097157610970612435565b5b9060005260206000200160009054906101000a900473ffffffffffffffffffffffffffffffffffffffff1673ffffffffffffffffffffffffffffffffffffffff1673ffffffffffffffffffffffffffffffffffffffff168152602001908152602001600020548883815181106109ea576109e9612435565b5b602002602001018181525050508080610a0290612464565b9150506108da565b508581839550955095505050509193909250565b60018181548110610a2e57600080fd5b906000526020600020016000915090505481565b60003085858585604051602001610a5d95949392919061256d565b604051602081830303815290604052805190602001209050949350505050565b8383600115156005600083815260200190815260200160002060008473ffffffffffffffffffffffffffffffffffffffff1673ffffffffffffffffffffffffffffffffffffffff16815260200190815260200160002060009054906101000a900460ff16151514610b23576040517f08c379a0000000000000000000000000000000000000000000000000000000008152600401610b1a90612649565b60405180910390fd5b846000600360008381526020019081526020016000209050600115158160030160089054906101000a900460ff16151514610b93576040517f08c379a0000000000000000000000000000000000000000000000000000000008152600401610b8a906126b5565b60405180910390fd5b6000610ba189898942610a42565b90506000610baf828861124e565b9050600073ffffffffffffffffffffffffffffffffffffffff168173ffffffffffffffffffffffffffffffffffffffff161415610beb57600080fd5b600460008273ffffffffffffffffffffffffffffffffffffffff1673ffffffffffffffffffffffffffffffffffffffff168152602001908152602001600020548814610c3657600080fd5b600460008273ffffffffffffffffffffffffffffffffffffffff1673ffffffffffffffffffffffffffffffffffffffff1681526020019081526020016000206000815480929190610c8690612464565b919050555060001515600760008b815260200190815260200160002060008373ffffffffffffffffffffffffffffffffffffffff1673ffffffffffffffffffffffffffffffffffffffff16815260200190815260200160002060009054906101000a900460ff16151514610d2f576040517f08c379a0000000000000000000000000000000000000000000000000000000008152600401610d2690612721565b60405180910390fd5b610d3a8a8a83611347565b507ff3f16a15f074b71c5138107dfc7c63b80524d5411cb967caa97d8d9f12b2fd6b8a6001604051610d6d929190612741565b60405180910390a150505050505050505050565b60006003600083815260200190815260200160002090503373ffffffffffffffffffffffffffffffffffffffff168160010160009054906101000a900473ffffffffffffffffffffffffffffffffffffffff1673ffffffffffffffffffffffffffffffffffffffff1614610e2a576040517f08c379a0000000000000000000000000000000000000000000000000000000008152600401610e21906127b6565b60405180910390fd5b8060030160089054906101000a900460ff16158160030160086101000a81548160ff0219169083151502179055508060030160089054906101000a900460ff1615157f7b224db641892626dca6975b376f464e9ac52ccfa180436175170c009b94dcd760405160405180910390a25050565b6003602052806000526040600020600091509050806000018054610ebf90612397565b80601f0160208091040260200160405190810160405280929190818152602001828054610eeb90612397565b8015610f385780601f10610f0d57610100808354040283529160200191610f38565b820191906000526020600020905b815481529060010190602001808311610f1b57829003601f168201915b5050505050908060010160009054906101000a900473ffffffffffffffffffffffffffffffffffffffff16908060030160009054906101000a900463ffffffff16908060030160049054906101000a900463ffffffff16908060030160089054906101000a900460ff16905085565b60006003600080548152602001908152602001600020905082816000019080519060200190610fd792919061167c565b50338160010160006101000a81548173ffffffffffffffffffffffffffffffffffffffff021916908373ffffffffffffffffffffffffffffffffffffffff160217905550818160030160006101000a81548163ffffffff021916908363ffffffff160217905550600160005490806001815401808255809150506001900390600052602060002001600090919091909150556000548160030160009054906101000a900463ffffffff1663ffffffff16846040516110959190612807565b60405180910390207fd4d0d9a1ef7f13069f1bade752fda515713d747eb14a8c30ae461c52916bf1c760405160405180910390a46000808154809291906110db90612464565b9190505550505050565b606060018054905067ffffffffffffffff81111561110657611105611ca2565b5b60405190808252806020026020018201604052801561113f57816020015b61112c611702565b8152602001906001900390816111245790505b50905060005b60018054905081101561119857611167818061116090612464565b9250611472565b82828151811061117a57611179612435565b5b6020026020010181905250808061119090612464565b915050611145565b5090565b6000806003600085815260200190815260200160002090506006600085815260200190815260200160002060008260020185815481106111df576111de612435565b5b9060005260206000200160009054906101000a900473ffffffffffffffffffffffffffffffffffffffff1673ffffffffffffffffffffffffffffffffffffffff1673ffffffffffffffffffffffffffffffffffffffff1681526020019081526020016000205491505092915050565b60008060008060418551146112695760009350505050611341565b6020850151925060408501519150606085015160001a9050601b8160ff16101561129d57601b8161129a919061282b565b90505b601b8160ff16141580156112b55750601c8160ff1614155b156112c65760009350505050611341565b6001866040516020016112d991906128cf565b604051602081830303815290604052805190602001208285856040516000815260200160405260405161130f9493929190612904565b6020604051602081039080840390855afa158015611331573d6000803e3d6000fd5b5050506020604051035193505050505b92915050565b600060016007600085815260200190815260200160002060008473ffffffffffffffffffffffffffffffffffffffff1673ffffffffffffffffffffffffffffffffffffffff16815260200190815260200160002060006101000a81548160ff0219169083151502179055506006600084815260200190815260200160002060008573ffffffffffffffffffffffffffffffffffffffff1673ffffffffffffffffffffffffffffffffffffffff168152602001908152602001600020600081548092919061141390612464565b91905055506006600084815260200190815260200160002060008573ffffffffffffffffffffffffffffffffffffffff1673ffffffffffffffffffffffffffffffffffffffff1681526020019081526020016000205490509392505050565b61147a611702565b600360008381526020019081526020016000206040518060c00160405290816000820180546114a890612397565b80601f01602080910402602001604051908101604052809291908181526020018280546114d490612397565b80156115215780601f106114f657610100808354040283529160200191611521565b820191906000526020600020905b81548152906001019060200180831161150457829003601f168201915b505050505081526020016001820160009054906101000a900473ffffffffffffffffffffffffffffffffffffffff1673ffffffffffffffffffffffffffffffffffffffff1673ffffffffffffffffffffffffffffffffffffffff1681526020016002820180548060200260200160405190810160405280929190818152602001828054801561160557602002820191906000526020600020905b8160009054906101000a900473ffffffffffffffffffffffffffffffffffffffff1673ffffffffffffffffffffffffffffffffffffffff16815260200190600101908083116115bb575b505050505081526020016003820160009054906101000a900463ffffffff1663ffffffff1663ffffffff1681526020016003820160049054906101000a900463ffffffff1663ffffffff1663ffffffff1681526020016003820160089054906101000a900460ff1615151515815250509050919050565b82805461168890612397565b90600052602060002090601f0160209004810192826116aa57600085556116f1565b82601f106116c357805160ff19168380011785556116f1565b828001600101855582156116f1579182015b828111156116f05782518255916020019190600101906116d5565b5b5090506116fe919061175c565b5090565b6040518060c0016040528060608152602001600073ffffffffffffffffffffffffffffffffffffffff16815260200160608152602001600063ffffffff168152602001600063ffffffff1681526020016000151581525090565b5b8082111561177557600081600090555060010161175d565b5090565b6000604051905090565b600080fd5b600080fd5b600073ffffffffffffffffffffffffffffffffffffffff82169050919050565b60006117b88261178d565b9050919050565b6117c8816117ad565b81146117d357600080fd5b50565b6000813590506117e5816117bf565b92915050565b6000819050919050565b6117fe816117eb565b811461180957600080fd5b50565b60008135905061181b816117f5565b92915050565b6000806040838503121561183857611837611783565b5b6000611846858286016117d6565b92505060206118578582860161180c565b9150509250929050565b60006020828403121561187757611876611783565b5b60006118858482850161180c565b91505092915050565b611897816117eb565b82525050565b60006020820190506118b2600083018461188e565b92915050565b6000602082840312156118ce576118cd611783565b5b60006118dc848285016117d6565b91505092915050565b600081519050919050565b600082825260208201905092915050565b60005b8381101561191f578082015181840152602081019050611904565b8381111561192e576000848401525b50505050565b6000601f19601f8301169050919050565b6000611950826118e5565b61195a81856118f0565b935061196a818560208601611901565b61197381611934565b840191505092915050565b611987816117ad565b82525050565b600063ffffffff82169050919050565b6119a68161198d565b82525050565b60008115159050919050565b6119c1816119ac565b82525050565b600060a08201905081810360008301526119e18188611945565b90506119f0602083018761197e565b6119fd604083018661199d565b611a0a606083018561199d565b611a1760808301846119b8565b9695505050505050565b600081519050919050565b600082825260208201905092915050565b6000819050602082019050919050565b611a56816117ad565b82525050565b6000611a688383611a4d565b60208301905092915050565b6000602082019050919050565b6000611a8c82611a21565b611a968185611a2c565b9350611aa183611a3d565b8060005b83811015611ad2578151611ab98882611a5c565b9750611ac483611a74565b925050600181019050611aa5565b5085935050505092915050565b60006020820190508181036000830152611af98184611a81565b905092915050565b600081519050919050565b600082825260208201905092915050565b6000819050602082019050919050565b611b36816117eb565b82525050565b6000611b488383611b2d565b60208301905092915050565b6000602082019050919050565b6000611b6c82611b01565b611b768185611b0c565b9350611b8183611b1d565b8060005b83811015611bb2578151611b998882611b3c565b9750611ba483611b54565b925050600181019050611b85565b5085935050505092915050565b60006060820190508181036000830152611bd98186611b61565b9050611be8602083018561197e565b611bf5604083018461188e565b949350505050565b60008060008060808587031215611c1757611c16611783565b5b6000611c25878288016117d6565b9450506020611c368782880161180c565b9350506040611c478782880161180c565b9250506060611c588782880161180c565b91505092959194509250565b6000819050919050565b611c7781611c64565b82525050565b6000602082019050611c926000830184611c6e565b92915050565b600080fd5b600080fd5b7f4e487b7100000000000000000000000000000000000000000000000000000000600052604160045260246000fd5b611cda82611934565b810181811067ffffffffffffffff82111715611cf957611cf8611ca2565b5b80604052505050565b6000611d0c611779565b9050611d188282611cd1565b919050565b600067ffffffffffffffff821115611d3857611d37611ca2565b5b611d4182611934565b9050602081019050919050565b82818337600083830152505050565b6000611d70611d6b84611d1d565b611d02565b905082815260208101848484011115611d8c57611d8b611c9d565b5b611d97848285611d4e565b509392505050565b600082601f830112611db457611db3611c98565b5b8135611dc4848260208601611d5d565b91505092915050565b60008060008060808587031215611de757611de6611783565b5b6000611df5878288016117d6565b9450506020611e068782880161180c565b9350506040611e178782880161180c565b925050606085013567ffffffffffffffff811115611e3857611e37611788565b5b611e4487828801611d9f565b91505092959194509250565b600067ffffffffffffffff821115611e6b57611e6a611ca2565b5b611e7482611934565b9050602081019050919050565b6000611e94611e8f84611e50565b611d02565b905082815260208101848484011115611eb057611eaf611c9d565b5b611ebb848285611d4e565b509392505050565b600082601f830112611ed857611ed7611c98565b5b8135611ee8848260208601611e81565b91505092915050565b611efa8161198d565b8114611f0557600080fd5b50565b600081359050611f1781611ef1565b92915050565b60008060408385031215611f3457611f33611783565b5b600083013567ffffffffffffffff811115611f5257611f51611788565b5b611f5e85828601611ec3565b9250506020611f6f85828601611f08565b9150509250929050565b600081519050919050565b600082825260208201905092915050565b6000819050602082019050919050565b600082825260208201905092915050565b6000611fc1826118e5565b611fcb8185611fa5565b9350611fdb818560208601611901565b611fe481611934565b840191505092915050565b600082825260208201905092915050565b600061200b82611a21565b6120158185611fef565b935061202083611a3d565b8060005b838110156120515781516120388882611a5c565b975061204383611a74565b925050600181019050612024565b5085935050505092915050565b6120678161198d565b82525050565b612076816119ac565b82525050565b600060c08301600083015184820360008601526120998282611fb6565b91505060208301516120ae6020860182611a4d565b50604083015184820360408601526120c68282612000565b91505060608301516120db606086018261205e565b5060808301516120ee608086018261205e565b5060a083015161210160a086018261206d565b508091505092915050565b6000612118838361207c565b905092915050565b6000602082019050919050565b600061213882611f79565b6121428185611f84565b93508360208202850161215485611f95565b8060005b858110156121905784840389528151612171858261210c565b945061217c83612120565b925060208a01995050600181019050612158565b50829750879550505050505092915050565b600060208201905081810360008301526121bc818461212d565b905092915050565b7f79657420746f20637265617465206120706f6c6c000000000000000000000000600082015250565b60006121fa6014836118f0565b9150612205826121c4565b602082019050919050565b60006020820190508181036000830152612229816121ed565b9050919050565b7f4e487b7100000000000000000000000000000000000000000000000000000000600052600160045260246000fd5b7f6d6178696d756d206e6f206f662063616e64696461746520706572207365737360008201527f696f6e2072656769737465726564000000000000000000000000000000000000602082015250565b60006122bb602e836118f0565b91506122c68261225f565b604082019050919050565b600060208201905081810360008301526122ea816122ae565b9050919050565b7f4e487b7100000000000000000000000000000000000000000000000000000000600052601160045260246000fd5b600061232b8261198d565b915063ffffffff821415612342576123416122f1565b5b600182019050919050565b6000602082019050612362600083018461197e565b92915050565b7f4e487b7100000000000000000000000000000000000000000000000000000000600052602260045260246000fd5b600060028204905060018216806123af57607f821691505b602082108114156123c3576123c2612368565b5b50919050565b7f4e6f20706f6c6c20637265617465640000000000000000000000000000000000600082015250565b60006123ff600f836118f0565b915061240a826123c9565b602082019050919050565b6000602082019050818103600083015261242e816123f2565b9050919050565b7f4e487b7100000000000000000000000000000000000000000000000000000000600052603260045260246000fd5b600061246f826117eb565b91507fffffffffffffffffffffffffffffffffffffffffffffffffffffffffffffffff8214156124a2576124a16122f1565b5b600182019050919050565b60008160601b9050919050565b60006124c5826124ad565b9050919050565b60006124d7826124ba565b9050919050565b6124ef6124ea826117ad565b6124cc565b82525050565b600081905092915050565b7f6d6574617472616e73616374696f6e20566f74696e6720000000000000000000600082015250565b60006125366017836124f5565b915061254182612500565b601782019050919050565b6000819050919050565b612567612562826117eb565b61254c565b82525050565b600061257982886124de565b60148201915061258882612529565b915061259482876124de565b6014820191506125a48286612556565b6020820191506125b48285612556565b6020820191506125c48284612556565b6020820191508190509695505050505050565b7f54686973206164647265737320646f6573206e6f74206578697374206173206160008201527f2063616e64696461746500000000000000000000000000000000000000000000602082015250565b6000612633602a836118f0565b915061263e826125d7565b604082019050919050565b6000602082019050818103600083015261266281612626565b9050919050565b7f766f74696e672068617320656e64656400000000000000000000000000000000600082015250565b600061269f6010836118f0565b91506126aa82612669565b602082019050919050565b600060208201905081810360008301526126ce81612692565b9050919050565b7f596f7520616c726561647920766f746564000000000000000000000000000000600082015250565b600061270b6011836118f0565b9150612716826126d5565b602082019050919050565b6000602082019050818103600083015261273a816126fe565b9050919050565b6000604082019050612756600083018561197e565b61276360208301846119b8565b9392505050565b7f6e6f74207468652063686169726d616e00000000000000000000000000000000600082015250565b60006127a06010836118f0565b91506127ab8261276a565b602082019050919050565b600060208201905081810360008301526127cf81612793565b9050919050565b60006127e1826118e5565b6127eb81856124f5565b93506127fb818560208601611901565b80840191505092915050565b600061281382846127d6565b915081905092915050565b600060ff82169050919050565b60006128368261281e565b91506128418361281e565b92508260ff03821115612857576128566122f1565b5b828201905092915050565b7f19457468657265756d205369676e6564204d6573736167653a0a333200000000600082015250565b6000612898601c836124f5565b91506128a382612862565b601c82019050919050565b6000819050919050565b6128c96128c482611c64565b6128ae565b82525050565b60006128da8261288b565b91506128e682846128b8565b60208201915081905092915050565b6128fe8161281e565b82525050565b60006080820190506129196000830187611c6e565b61292660208301866128f5565b6129336040830185611c6e565b6129406060830184611c6e565b9594505050505056fea2646970667358221220515ad46a757a6a0e67374ae2d0e48ca337fa2ada423341d0635cadf71ad3b2e964736f6c634300080a0033",
					"opcodes": "PUSH1 0x80 PUSH1 0x40 MSTORE PUSH1 0x1 PUSH1 0x0 SSTORE CALLVALUE DUP1 ISZERO PUSH2 0x15 JUMPI PUSH1 0x0 DUP1 REVERT JUMPDEST POP PUSH2 0x297F DUP1 PUSH2 0x25 PUSH1 0x0 CODECOPY PUSH1 0x0 RETURN INVALID PUSH1 0x80 PUSH1 0x40 MSTORE CALLVALUE DUP1 ISZERO PUSH2 0x10 JUMPI PUSH1 0x0 DUP1 REVERT JUMPDEST POP PUSH1 0x4 CALLDATASIZE LT PUSH2 0xCF JUMPI PUSH1 0x0 CALLDATALOAD PUSH1 0xE0 SHR DUP1 PUSH4 0xAE928E3E GT PUSH2 0x8C JUMPI DUP1 PUSH4 0xC57003CC GT PUSH2 0x66 JUMPI DUP1 PUSH4 0xC57003CC EQ PUSH2 0x262 JUMPI DUP1 PUSH4 0xE615F104 EQ PUSH2 0x27E JUMPI DUP1 PUSH4 0xF762F4C0 EQ PUSH2 0x2B2 JUMPI DUP1 PUSH4 0xFA4C5173 EQ PUSH2 0x2CE JUMPI PUSH2 0xCF JUMP JUMPDEST DUP1 PUSH4 0xAE928E3E EQ PUSH2 0x1E6 JUMPI DUP1 PUSH4 0xBFE2E25D EQ PUSH2 0x216 JUMPI DUP1 PUSH4 0xC10D6CEC EQ PUSH2 0x246 JUMPI PUSH2 0xCF JUMP JUMPDEST DUP1 PUSH4 0x49D1C8B EQ PUSH2 0xD4 JUMPI DUP1 PUSH4 0x66C5343B EQ PUSH2 0xF0 JUMPI DUP1 PUSH4 0x67D407DF EQ PUSH2 0x120 JUMPI DUP1 PUSH4 0x8321F397 EQ PUSH2 0x150 JUMPI DUP1 PUSH4 0x8AC3C3C2 EQ PUSH2 0x184 JUMPI DUP1 PUSH4 0x8CCB59E8 EQ PUSH2 0x1B4 JUMPI JUMPDEST PUSH1 0x0 DUP1 REVERT JUMPDEST PUSH2 0xEE PUSH1 0x4 DUP1 CALLDATASIZE SUB DUP2 ADD SWAP1 PUSH2 0xE9 SWAP2 SWAP1 PUSH2 0x1821 JUMP JUMPDEST PUSH2 0x2EC JUMP JUMPDEST STOP JUMPDEST PUSH2 0x10A PUSH1 0x4 DUP1 CALLDATASIZE SUB DUP2 ADD SWAP1 PUSH2 0x105 SWAP2 SWAP1 PUSH2 0x1861 JUMP JUMPDEST PUSH2 0x5BA JUMP JUMPDEST PUSH1 0x40 MLOAD PUSH2 0x117 SWAP2 SWAP1 PUSH2 0x189D JUMP JUMPDEST PUSH1 0x40 MLOAD DUP1 SWAP2 SUB SWAP1 RETURN JUMPDEST PUSH2 0x13A PUSH1 0x4 DUP1 CALLDATASIZE SUB DUP2 ADD SWAP1 PUSH2 0x135 SWAP2 SWAP1 PUSH2 0x18B8 JUMP JUMPDEST PUSH2 0x5F5 JUMP JUMPDEST PUSH1 0x40 MLOAD PUSH2 0x147 SWAP2 SWAP1 PUSH2 0x189D JUMP JUMPDEST PUSH1 0x40 MLOAD DUP1 SWAP2 SUB SWAP1 RETURN JUMPDEST PUSH2 0x16A PUSH1 0x4 DUP1 CALLDATASIZE SUB DUP2 ADD SWAP1 PUSH2 0x165 SWAP2 SWAP1 PUSH2 0x1861 JUMP JUMPDEST PUSH2 0x60D JUMP JUMPDEST PUSH1 0x40 MLOAD PUSH2 0x17B SWAP6 SWAP5 SWAP4 SWAP3 SWAP2 SWAP1 PUSH2 0x19C7 JUMP JUMPDEST PUSH1 0x40 MLOAD DUP1 SWAP2 SUB SWAP1 RETURN JUMPDEST PUSH2 0x19E PUSH1 0x4 DUP1 CALLDATASIZE SUB DUP2 ADD SWAP1 PUSH2 0x199 SWAP2 SWAP1 PUSH2 0x1861 JUMP JUMPDEST PUSH2 0x728 JUMP JUMPDEST PUSH1 0x40 MLOAD PUSH2 0x1AB SWAP2 SWAP1 PUSH2 0x1ADF JUMP JUMPDEST PUSH1 0x40 MLOAD DUP1 SWAP2 SUB SWAP1 RETURN JUMPDEST PUSH2 0x1CE PUSH1 0x4 DUP1 CALLDATASIZE SUB DUP2 ADD SWAP1 PUSH2 0x1C9 SWAP2 SWAP1 PUSH2 0x1861 JUMP JUMPDEST PUSH2 0x7D2 JUMP JUMPDEST PUSH1 0x40 MLOAD PUSH2 0x1DD SWAP4 SWAP3 SWAP2 SWAP1 PUSH2 0x1BBF JUMP JUMPDEST PUSH1 0x40 MLOAD DUP1 SWAP2 SUB SWAP1 RETURN JUMPDEST PUSH2 0x200 PUSH1 0x4 DUP1 CALLDATASIZE SUB DUP2 ADD SWAP1 PUSH2 0x1FB SWAP2 SWAP1 PUSH2 0x1861 JUMP JUMPDEST PUSH2 0xA1E JUMP JUMPDEST PUSH1 0x40 MLOAD PUSH2 0x20D SWAP2 SWAP1 PUSH2 0x189D JUMP JUMPDEST PUSH1 0x40 MLOAD DUP1 SWAP2 SUB SWAP1 RETURN JUMPDEST PUSH2 0x230 PUSH1 0x4 DUP1 CALLDATASIZE SUB DUP2 ADD SWAP1 PUSH2 0x22B SWAP2 SWAP1 PUSH2 0x1BFD JUMP JUMPDEST PUSH2 0xA42 JUMP JUMPDEST PUSH1 0x40 MLOAD PUSH2 0x23D SWAP2 SWAP1 PUSH2 0x1C7D JUMP JUMPDEST PUSH1 0x40 MLOAD DUP1 SWAP2 SUB SWAP1 RETURN JUMPDEST PUSH2 0x260 PUSH1 0x4 DUP1 CALLDATASIZE SUB DUP2 ADD SWAP1 PUSH2 0x25B SWAP2 SWAP1 PUSH2 0x1DCD JUMP JUMPDEST PUSH2 0xA7D JUMP JUMPDEST STOP JUMPDEST PUSH2 0x27C PUSH1 0x4 DUP1 CALLDATASIZE SUB DUP2 ADD SWAP1 PUSH2 0x277 SWAP2 SWAP1 PUSH2 0x1861 JUMP JUMPDEST PUSH2 0xD81 JUMP JUMPDEST STOP JUMPDEST PUSH2 0x298 PUSH1 0x4 DUP1 CALLDATASIZE SUB DUP2 ADD SWAP1 PUSH2 0x293 SWAP2 SWAP1 PUSH2 0x1861 JUMP JUMPDEST PUSH2 0xE9C JUMP JUMPDEST PUSH1 0x40 MLOAD PUSH2 0x2A9 SWAP6 SWAP5 SWAP4 SWAP3 SWAP2 SWAP1 PUSH2 0x19C7 JUMP JUMPDEST PUSH1 0x40 MLOAD DUP1 SWAP2 SUB SWAP1 RETURN JUMPDEST PUSH2 0x2CC PUSH1 0x4 DUP1 CALLDATASIZE SUB DUP2 ADD SWAP1 PUSH2 0x2C7 SWAP2 SWAP1 PUSH2 0x1F1D JUMP JUMPDEST PUSH2 0xFA7 JUMP JUMPDEST STOP JUMPDEST PUSH2 0x2D6 PUSH2 0x10E5 JUMP JUMPDEST PUSH1 0x40 MLOAD PUSH2 0x2E3 SWAP2 SWAP1 PUSH2 0x21A2 JUMP JUMPDEST PUSH1 0x40 MLOAD DUP1 SWAP2 SUB SWAP1 RETURN JUMPDEST PUSH1 0x0 PUSH1 0x3 PUSH1 0x0 DUP4 DUP2 MSTORE PUSH1 0x20 ADD SWAP1 DUP2 MSTORE PUSH1 0x20 ADD PUSH1 0x0 KECCAK256 SWAP1 POP PUSH1 0x0 PUSH20 0xFFFFFFFFFFFFFFFFFFFFFFFFFFFFFFFFFFFFFFFF AND DUP2 PUSH1 0x1 ADD PUSH1 0x0 SWAP1 SLOAD SWAP1 PUSH2 0x100 EXP SWAP1 DIV PUSH20 0xFFFFFFFFFFFFFFFFFFFFFFFFFFFFFFFFFFFFFFFF AND PUSH20 0xFFFFFFFFFFFFFFFFFFFFFFFFFFFFFFFFFFFFFFFF AND EQ ISZERO PUSH2 0x397 JUMPI PUSH1 0x40 MLOAD PUSH32 0x8C379A000000000000000000000000000000000000000000000000000000000 DUP2 MSTORE PUSH1 0x4 ADD PUSH2 0x38E SWAP1 PUSH2 0x2210 JUMP JUMPDEST PUSH1 0x40 MLOAD DUP1 SWAP2 SUB SWAP1 REVERT JUMPDEST CALLER PUSH20 0xFFFFFFFFFFFFFFFFFFFFFFFFFFFFFFFFFFFFFFFF AND DUP2 PUSH1 0x1 ADD PUSH1 0x0 SWAP1 SLOAD SWAP1 PUSH2 0x100 EXP SWAP1 DIV PUSH20 0xFFFFFFFFFFFFFFFFFFFFFFFFFFFFFFFFFFFFFFFF AND PUSH20 0xFFFFFFFFFFFFFFFFFFFFFFFFFFFFFFFFFFFFFFFF AND EQ PUSH2 0x3F7 JUMPI PUSH2 0x3F6 PUSH2 0x2230 JUMP JUMPDEST JUMPDEST DUP1 PUSH1 0x3 ADD PUSH1 0x0 SWAP1 SLOAD SWAP1 PUSH2 0x100 EXP SWAP1 DIV PUSH4 0xFFFFFFFF AND PUSH4 0xFFFFFFFF AND DUP2 PUSH1 0x3 ADD PUSH1 0x4 SWAP1 SLOAD SWAP1 PUSH2 0x100 EXP SWAP1 DIV PUSH4 0xFFFFFFFF AND PUSH4 0xFFFFFFFF AND LT PUSH2 0x46D JUMPI PUSH1 0x40 MLOAD PUSH32 0x8C379A000000000000000000000000000000000000000000000000000000000 DUP2 MSTORE PUSH1 0x4 ADD PUSH2 0x464 SWAP1 PUSH2 0x22D1 JUMP JUMPDEST PUSH1 0x40 MLOAD DUP1 SWAP2 SUB SWAP1 REVERT JUMPDEST PUSH1 0x1 PUSH1 0x5 PUSH1 0x0 DUP5 DUP2 MSTORE PUSH1 0x20 ADD SWAP1 DUP2 MSTORE PUSH1 0x20 ADD PUSH1 0x0 KECCAK256 PUSH1 0x0 DUP6 PUSH20 0xFFFFFFFFFFFFFFFFFFFFFFFFFFFFFFFFFFFFFFFF AND PUSH20 0xFFFFFFFFFFFFFFFFFFFFFFFFFFFFFFFFFFFFFFFF AND DUP2 MSTORE PUSH1 0x20 ADD SWAP1 DUP2 MSTORE PUSH1 0x20 ADD PUSH1 0x0 KECCAK256 PUSH1 0x0 PUSH2 0x100 EXP DUP2 SLOAD DUP2 PUSH1 0xFF MUL NOT AND SWAP1 DUP4 ISZERO ISZERO MUL OR SWAP1 SSTORE POP DUP1 PUSH1 0x2 ADD DUP4 SWAP1 DUP1 PUSH1 0x1 DUP2 SLOAD ADD DUP1 DUP3 SSTORE DUP1 SWAP2 POP POP PUSH1 0x1 SWAP1 SUB SWAP1 PUSH1 0x0 MSTORE PUSH1 0x20 PUSH1 0x0 KECCAK256 ADD PUSH1 0x0 SWAP1 SWAP2 SWAP1 SWAP2 SWAP1 SWAP2 PUSH2 0x100 EXP DUP2 SLOAD DUP2 PUSH20 0xFFFFFFFFFFFFFFFFFFFFFFFFFFFFFFFFFFFFFFFF MUL NOT AND SWAP1 DUP4 PUSH20 0xFFFFFFFFFFFFFFFFFFFFFFFFFFFFFFFFFFFFFFFF AND MUL OR SWAP1 SSTORE POP DUP1 PUSH1 0x3 ADD PUSH1 0x4 DUP2 DUP2 SWAP1 SLOAD SWAP1 PUSH2 0x100 EXP SWAP1 DIV PUSH4 0xFFFFFFFF AND DUP1 SWAP3 SWAP2 SWAP1 PUSH2 0x55F SWAP1 PUSH2 0x2320 JUMP JUMPDEST SWAP2 SWAP1 PUSH2 0x100 EXP DUP2 SLOAD DUP2 PUSH4 0xFFFFFFFF MUL NOT AND SWAP1 DUP4 PUSH4 0xFFFFFFFF AND MUL OR SWAP1 SSTORE POP POP PUSH32 0xC19C59AA93348E8FC54764BC642ECA975E2639F44CC683EF8F027E1529CBDA32 DUP4 PUSH1 0x40 MLOAD PUSH2 0x5AD SWAP2 SWAP1 PUSH2 0x234D JUMP JUMPDEST PUSH1 0x40 MLOAD DUP1 SWAP2 SUB SWAP1 LOG1 POP POP POP JUMP JUMPDEST PUSH1 0x0 DUP1 PUSH1 0x3 PUSH1 0x0 DUP5 DUP2 MSTORE PUSH1 0x20 ADD SWAP1 DUP2 MSTORE PUSH1 0x20 ADD PUSH1 0x0 KECCAK256 SWAP1 POP DUP1 PUSH1 0x3 ADD PUSH1 0x4 SWAP1 SLOAD SWAP1 PUSH2 0x100 EXP SWAP1 DIV PUSH4 0xFFFFFFFF AND PUSH4 0xFFFFFFFF AND SWAP2 POP POP SWAP2 SWAP1 POP JUMP JUMPDEST PUSH1 0x4 PUSH1 0x20 MSTORE DUP1 PUSH1 0x0 MSTORE PUSH1 0x40 PUSH1 0x0 KECCAK256 PUSH1 0x0 SWAP2 POP SWAP1 POP SLOAD DUP2 JUMP JUMPDEST PUSH1 0x2 DUP2 DUP2 SLOAD DUP2 LT PUSH2 0x61D JUMPI PUSH1 0x0 DUP1 REVERT JUMPDEST SWAP1 PUSH1 0x0 MSTORE PUSH1 0x20 PUSH1 0x0 KECCAK256 SWAP1 PUSH1 0x4 MUL ADD PUSH1 0x0 SWAP2 POP SWAP1 POP DUP1 PUSH1 0x0 ADD DUP1 SLOAD PUSH2 0x640 SWAP1 PUSH2 0x2397 JUMP JUMPDEST DUP1 PUSH1 0x1F ADD PUSH1 0x20 DUP1 SWAP2 DIV MUL PUSH1 0x20 ADD PUSH1 0x40 MLOAD SWAP1 DUP2 ADD PUSH1 0x40 MSTORE DUP1 SWAP3 SWAP2 SWAP1 DUP2 DUP2 MSTORE PUSH1 0x20 ADD DUP3 DUP1 SLOAD PUSH2 0x66C SWAP1 PUSH2 0x2397 JUMP JUMPDEST DUP1 ISZERO PUSH2 0x6B9 JUMPI DUP1 PUSH1 0x1F LT PUSH2 0x68E JUMPI PUSH2 0x100 DUP1 DUP4 SLOAD DIV MUL DUP4 MSTORE SWAP2 PUSH1 0x20 ADD SWAP2 PUSH2 0x6B9 JUMP JUMPDEST DUP3 ADD SWAP2 SWAP1 PUSH1 0x0 MSTORE PUSH1 0x20 PUSH1 0x0 KECCAK256 SWAP1 JUMPDEST DUP2 SLOAD DUP2 MSTORE SWAP1 PUSH1 0x1 ADD SWAP1 PUSH1 0x20 ADD DUP1 DUP4 GT PUSH2 0x69C JUMPI DUP3 SWAP1 SUB PUSH1 0x1F AND DUP3 ADD SWAP2 JUMPDEST POP POP POP POP POP SWAP1 DUP1 PUSH1 0x1 ADD PUSH1 0x0 SWAP1 SLOAD SWAP1 PUSH2 0x100 EXP SWAP1 DIV PUSH20 0xFFFFFFFFFFFFFFFFFFFFFFFFFFFFFFFFFFFFFFFF AND SWAP1 DUP1 PUSH1 0x3 ADD PUSH1 0x0 SWAP1 SLOAD SWAP1 PUSH2 0x100 EXP SWAP1 DIV PUSH4 0xFFFFFFFF AND SWAP1 DUP1 PUSH1 0x3 ADD PUSH1 0x4 SWAP1 SLOAD SWAP1 PUSH2 0x100 EXP SWAP1 DIV PUSH4 0xFFFFFFFF AND SWAP1 DUP1 PUSH1 0x3 ADD PUSH1 0x8 SWAP1 SLOAD SWAP1 PUSH2 0x100 EXP SWAP1 DIV PUSH1 0xFF AND SWAP1 POP DUP6 JUMP JUMPDEST PUSH1 0x60 PUSH1 0x0 PUSH1 0x3 PUSH1 0x0 DUP5 DUP2 MSTORE PUSH1 0x20 ADD SWAP1 DUP2 MSTORE PUSH1 0x20 ADD PUSH1 0x0 KECCAK256 SWAP1 POP DUP1 PUSH1 0x2 ADD DUP1 SLOAD DUP1 PUSH1 0x20 MUL PUSH1 0x20 ADD PUSH1 0x40 MLOAD SWAP1 DUP2 ADD PUSH1 0x40 MSTORE DUP1 SWAP3 SWAP2 SWAP1 DUP2 DUP2 MSTORE PUSH1 0x20 ADD DUP3 DUP1 SLOAD DUP1 ISZERO PUSH2 0x7C5 JUMPI PUSH1 0x20 MUL DUP3 ADD SWAP2 SWAP1 PUSH1 0x0 MSTORE PUSH1 0x20 PUSH1 0x0 KECCAK256 SWAP1 JUMPDEST DUP2 PUSH1 0x0 SWAP1 SLOAD SWAP1 PUSH2 0x100 EXP SWAP1 DIV PUSH20 0xFFFFFFFFFFFFFFFFFFFFFFFFFFFFFFFFFFFFFFFF AND PUSH20 0xFFFFFFFFFFFFFFFFFFFFFFFFFFFFFFFFFFFFFFFF AND DUP2 MSTORE PUSH1 0x20 ADD SWAP1 PUSH1 0x1 ADD SWAP1 DUP1 DUP4 GT PUSH2 0x77B JUMPI JUMPDEST POP POP POP POP POP SWAP2 POP POP SWAP2 SWAP1 POP JUMP JUMPDEST PUSH1 0x60 PUSH1 0x0 DUP1 PUSH1 0x0 PUSH1 0x3 PUSH1 0x0 DUP7 DUP2 MSTORE PUSH1 0x20 ADD SWAP1 DUP2 MSTORE PUSH1 0x20 ADD PUSH1 0x0 KECCAK256 SWAP1 POP PUSH1 0x0 PUSH20 0xFFFFFFFFFFFFFFFFFFFFFFFFFFFFFFFFFFFFFFFF AND DUP2 PUSH1 0x1 ADD PUSH1 0x0 SWAP1 SLOAD SWAP1 PUSH2 0x100 EXP SWAP1 DIV PUSH20 0xFFFFFFFFFFFFFFFFFFFFFFFFFFFFFFFFFFFFFFFF AND PUSH20 0xFFFFFFFFFFFFFFFFFFFFFFFFFFFFFFFFFFFFFFFF AND EQ ISZERO PUSH2 0x882 JUMPI PUSH1 0x40 MLOAD PUSH32 0x8C379A000000000000000000000000000000000000000000000000000000000 DUP2 MSTORE PUSH1 0x4 ADD PUSH2 0x879 SWAP1 PUSH2 0x2415 JUMP JUMPDEST PUSH1 0x40 MLOAD DUP1 SWAP2 SUB SWAP1 REVERT JUMPDEST DUP1 PUSH1 0x2 ADD DUP1 SLOAD SWAP1 POP PUSH8 0xFFFFFFFFFFFFFFFF DUP2 GT ISZERO PUSH2 0x8A3 JUMPI PUSH2 0x8A2 PUSH2 0x1CA2 JUMP JUMPDEST JUMPDEST PUSH1 0x40 MLOAD SWAP1 DUP1 DUP3 MSTORE DUP1 PUSH1 0x20 MUL PUSH1 0x20 ADD DUP3 ADD PUSH1 0x40 MSTORE DUP1 ISZERO PUSH2 0x8D1 JUMPI DUP2 PUSH1 0x20 ADD PUSH1 0x20 DUP3 MUL DUP1 CALLDATASIZE DUP4 CALLDATACOPY DUP1 DUP3 ADD SWAP2 POP POP SWAP1 POP JUMPDEST POP SWAP4 POP PUSH1 0x0 DUP1 PUSH1 0x0 JUMPDEST DUP4 PUSH1 0x2 ADD DUP1 SLOAD SWAP1 POP DUP2 LT ISZERO PUSH2 0xA0A JUMPI PUSH1 0x0 PUSH2 0x8F5 DUP10 DUP4 PUSH2 0x119C JUMP JUMPDEST SWAP1 POP DUP4 DUP2 GT ISZERO PUSH2 0x946 JUMPI DUP1 SWAP4 POP DUP5 PUSH1 0x2 ADD DUP3 DUP2 SLOAD DUP2 LT PUSH2 0x918 JUMPI PUSH2 0x917 PUSH2 0x2435 JUMP JUMPDEST JUMPDEST SWAP1 PUSH1 0x0 MSTORE PUSH1 0x20 PUSH1 0x0 KECCAK256 ADD PUSH1 0x0 SWAP1 SLOAD SWAP1 PUSH2 0x100 EXP SWAP1 DIV PUSH20 0xFFFFFFFFFFFFFFFFFFFFFFFFFFFFFFFFFFFFFFFF AND SWAP3 POP JUMPDEST PUSH1 0x6 PUSH1 0x0 DUP11 DUP2 MSTORE PUSH1 0x20 ADD SWAP1 DUP2 MSTORE PUSH1 0x20 ADD PUSH1 0x0 KECCAK256 PUSH1 0x0 DUP7 PUSH1 0x2 ADD DUP5 DUP2 SLOAD DUP2 LT PUSH2 0x971 JUMPI PUSH2 0x970 PUSH2 0x2435 JUMP JUMPDEST JUMPDEST SWAP1 PUSH1 0x0 MSTORE PUSH1 0x20 PUSH1 0x0 KECCAK256 ADD PUSH1 0x0 SWAP1 SLOAD SWAP1 PUSH2 0x100 EXP SWAP1 DIV PUSH20 0xFFFFFFFFFFFFFFFFFFFFFFFFFFFFFFFFFFFFFFFF AND PUSH20 0xFFFFFFFFFFFFFFFFFFFFFFFFFFFFFFFFFFFFFFFF AND PUSH20 0xFFFFFFFFFFFFFFFFFFFFFFFFFFFFFFFFFFFFFFFF AND DUP2 MSTORE PUSH1 0x20 ADD SWAP1 DUP2 MSTORE PUSH1 0x20 ADD PUSH1 0x0 KECCAK256 SLOAD DUP9 DUP4 DUP2 MLOAD DUP2 LT PUSH2 0x9EA JUMPI PUSH2 0x9E9 PUSH2 0x2435 JUMP JUMPDEST JUMPDEST PUSH1 0x20 MUL PUSH1 0x20 ADD ADD DUP2 DUP2 MSTORE POP POP POP DUP1 DUP1 PUSH2 0xA02 SWAP1 PUSH2 0x2464 JUMP JUMPDEST SWAP2 POP POP PUSH2 0x8DA JUMP JUMPDEST POP DUP6 DUP2 DUP4 SWAP6 POP SWAP6 POP SWAP6 POP POP POP POP SWAP2 SWAP4 SWAP1 SWAP3 POP JUMP JUMPDEST PUSH1 0x1 DUP2 DUP2 SLOAD DUP2 LT PUSH2 0xA2E JUMPI PUSH1 0x0 DUP1 REVERT JUMPDEST SWAP1 PUSH1 0x0 MSTORE PUSH1 0x20 PUSH1 0x0 KECCAK256 ADD PUSH1 0x0 SWAP2 POP SWAP1 POP SLOAD DUP2 JUMP JUMPDEST PUSH1 0x0 ADDRESS DUP6 DUP6 DUP6 DUP6 PUSH1 0x40 MLOAD PUSH1 0x20 ADD PUSH2 0xA5D SWAP6 SWAP5 SWAP4 SWAP3 SWAP2 SWAP1 PUSH2 0x256D JUMP JUMPDEST PUSH1 0x40 MLOAD PUSH1 0x20 DUP2 DUP4 SUB SUB DUP2 MSTORE SWAP1 PUSH1 0x40 MSTORE DUP1 MLOAD SWAP1 PUSH1 0x20 ADD KECCAK256 SWAP1 POP SWAP5 SWAP4 POP POP POP POP JUMP JUMPDEST DUP4 DUP4 PUSH1 0x1 ISZERO ISZERO PUSH1 0x5 PUSH1 0x0 DUP4 DUP2 MSTORE PUSH1 0x20 ADD SWAP1 DUP2 MSTORE PUSH1 0x20 ADD PUSH1 0x0 KECCAK256 PUSH1 0x0 DUP5 PUSH20 0xFFFFFFFFFFFFFFFFFFFFFFFFFFFFFFFFFFFFFFFF AND PUSH20 0xFFFFFFFFFFFFFFFFFFFFFFFFFFFFFFFFFFFFFFFF AND DUP2 MSTORE PUSH1 0x20 ADD SWAP1 DUP2 MSTORE PUSH1 0x20 ADD PUSH1 0x0 KECCAK256 PUSH1 0x0 SWAP1 SLOAD SWAP1 PUSH2 0x100 EXP SWAP1 DIV PUSH1 0xFF AND ISZERO ISZERO EQ PUSH2 0xB23 JUMPI PUSH1 0x40 MLOAD PUSH32 0x8C379A000000000000000000000000000000000000000000000000000000000 DUP2 MSTORE PUSH1 0x4 ADD PUSH2 0xB1A SWAP1 PUSH2 0x2649 JUMP JUMPDEST PUSH1 0x40 MLOAD DUP1 SWAP2 SUB SWAP1 REVERT JUMPDEST DUP5 PUSH1 0x0 PUSH1 0x3 PUSH1 0x0 DUP4 DUP2 MSTORE PUSH1 0x20 ADD SWAP1 DUP2 MSTORE PUSH1 0x20 ADD PUSH1 0x0 KECCAK256 SWAP1 POP PUSH1 0x1 ISZERO ISZERO DUP2 PUSH1 0x3 ADD PUSH1 0x8 SWAP1 SLOAD SWAP1 PUSH2 0x100 EXP SWAP1 DIV PUSH1 0xFF AND ISZERO ISZERO EQ PUSH2 0xB93 JUMPI PUSH1 0x40 MLOAD PUSH32 0x8C379A000000000000000000000000000000000000000000000000000000000 DUP2 MSTORE PUSH1 0x4 ADD PUSH2 0xB8A SWAP1 PUSH2 0x26B5 JUMP JUMPDEST PUSH1 0x40 MLOAD DUP1 SWAP2 SUB SWAP1 REVERT JUMPDEST PUSH1 0x0 PUSH2 0xBA1 DUP10 DUP10 DUP10 TIMESTAMP PUSH2 0xA42 JUMP JUMPDEST SWAP1 POP PUSH1 0x0 PUSH2 0xBAF DUP3 DUP9 PUSH2 0x124E JUMP JUMPDEST SWAP1 POP PUSH1 0x0 PUSH20 0xFFFFFFFFFFFFFFFFFFFFFFFFFFFFFFFFFFFFFFFF AND DUP2 PUSH20 0xFFFFFFFFFFFFFFFFFFFFFFFFFFFFFFFFFFFFFFFF AND EQ ISZERO PUSH2 0xBEB JUMPI PUSH1 0x0 DUP1 REVERT JUMPDEST PUSH1 0x4 PUSH1 0x0 DUP3 PUSH20 0xFFFFFFFFFFFFFFFFFFFFFFFFFFFFFFFFFFFFFFFF AND PUSH20 0xFFFFFFFFFFFFFFFFFFFFFFFFFFFFFFFFFFFFFFFF AND DUP2 MSTORE PUSH1 0x20 ADD SWAP1 DUP2 MSTORE PUSH1 0x20 ADD PUSH1 0x0 KECCAK256 SLOAD DUP9 EQ PUSH2 0xC36 JUMPI PUSH1 0x0 DUP1 REVERT JUMPDEST PUSH1 0x4 PUSH1 0x0 DUP3 PUSH20 0xFFFFFFFFFFFFFFFFFFFFFFFFFFFFFFFFFFFFFFFF AND PUSH20 0xFFFFFFFFFFFFFFFFFFFFFFFFFFFFFFFFFFFFFFFF AND DUP2 MSTORE PUSH1 0x20 ADD SWAP1 DUP2 MSTORE PUSH1 0x20 ADD PUSH1 0x0 KECCAK256 PUSH1 0x0 DUP2 SLOAD DUP1 SWAP3 SWAP2 SWAP1 PUSH2 0xC86 SWAP1 PUSH2 0x2464 JUMP JUMPDEST SWAP2 SWAP1 POP SSTORE POP PUSH1 0x0 ISZERO ISZERO PUSH1 0x7 PUSH1 0x0 DUP12 DUP2 MSTORE PUSH1 0x20 ADD SWAP1 DUP2 MSTORE PUSH1 0x20 ADD PUSH1 0x0 KECCAK256 PUSH1 0x0 DUP4 PUSH20 0xFFFFFFFFFFFFFFFFFFFFFFFFFFFFFFFFFFFFFFFF AND PUSH20 0xFFFFFFFFFFFFFFFFFFFFFFFFFFFFFFFFFFFFFFFF AND DUP2 MSTORE PUSH1 0x20 ADD SWAP1 DUP2 MSTORE PUSH1 0x20 ADD PUSH1 0x0 KECCAK256 PUSH1 0x0 SWAP1 SLOAD SWAP1 PUSH2 0x100 EXP SWAP1 DIV PUSH1 0xFF AND ISZERO ISZERO EQ PUSH2 0xD2F JUMPI PUSH1 0x40 MLOAD PUSH32 0x8C379A000000000000000000000000000000000000000000000000000000000 DUP2 MSTORE PUSH1 0x4 ADD PUSH2 0xD26 SWAP1 PUSH2 0x2721 JUMP JUMPDEST PUSH1 0x40 MLOAD DUP1 SWAP2 SUB SWAP1 REVERT JUMPDEST PUSH2 0xD3A DUP11 DUP11 DUP4 PUSH2 0x1347 JUMP JUMPDEST POP PUSH32 0xF3F16A15F074B71C5138107DFC7C63B80524D5411CB967CAA97D8D9F12B2FD6B DUP11 PUSH1 0x1 PUSH1 0x40 MLOAD PUSH2 0xD6D SWAP3 SWAP2 SWAP1 PUSH2 0x2741 JUMP JUMPDEST PUSH1 0x40 MLOAD DUP1 SWAP2 SUB SWAP1 LOG1 POP POP POP POP POP POP POP POP POP POP JUMP JUMPDEST PUSH1 0x0 PUSH1 0x3 PUSH1 0x0 DUP4 DUP2 MSTORE PUSH1 0x20 ADD SWAP1 DUP2 MSTORE PUSH1 0x20 ADD PUSH1 0x0 KECCAK256 SWAP1 POP CALLER PUSH20 0xFFFFFFFFFFFFFFFFFFFFFFFFFFFFFFFFFFFFFFFF AND DUP2 PUSH1 0x1 ADD PUSH1 0x0 SWAP1 SLOAD SWAP1 PUSH2 0x100 EXP SWAP1 DIV PUSH20 0xFFFFFFFFFFFFFFFFFFFFFFFFFFFFFFFFFFFFFFFF AND PUSH20 0xFFFFFFFFFFFFFFFFFFFFFFFFFFFFFFFFFFFFFFFF AND EQ PUSH2 0xE2A JUMPI PUSH1 0x40 MLOAD PUSH32 0x8C379A000000000000000000000000000000000000000000000000000000000 DUP2 MSTORE PUSH1 0x4 ADD PUSH2 0xE21 SWAP1 PUSH2 0x27B6 JUMP JUMPDEST PUSH1 0x40 MLOAD DUP1 SWAP2 SUB SWAP1 REVERT JUMPDEST DUP1 PUSH1 0x3 ADD PUSH1 0x8 SWAP1 SLOAD SWAP1 PUSH2 0x100 EXP SWAP1 DIV PUSH1 0xFF AND ISZERO DUP2 PUSH1 0x3 ADD PUSH1 0x8 PUSH2 0x100 EXP DUP2 SLOAD DUP2 PUSH1 0xFF MUL NOT AND SWAP1 DUP4 ISZERO ISZERO MUL OR SWAP1 SSTORE POP DUP1 PUSH1 0x3 ADD PUSH1 0x8 SWAP1 SLOAD SWAP1 PUSH2 0x100 EXP SWAP1 DIV PUSH1 0xFF AND ISZERO ISZERO PUSH32 0x7B224DB641892626DCA6975B376F464E9AC52CCFA180436175170C009B94DCD7 PUSH1 0x40 MLOAD PUSH1 0x40 MLOAD DUP1 SWAP2 SUB SWAP1 LOG2 POP POP JUMP JUMPDEST PUSH1 0x3 PUSH1 0x20 MSTORE DUP1 PUSH1 0x0 MSTORE PUSH1 0x40 PUSH1 0x0 KECCAK256 PUSH1 0x0 SWAP2 POP SWAP1 POP DUP1 PUSH1 0x0 ADD DUP1 SLOAD PUSH2 0xEBF SWAP1 PUSH2 0x2397 JUMP JUMPDEST DUP1 PUSH1 0x1F ADD PUSH1 0x20 DUP1 SWAP2 DIV MUL PUSH1 0x20 ADD PUSH1 0x40 MLOAD SWAP1 DUP2 ADD PUSH1 0x40 MSTORE DUP1 SWAP3 SWAP2 SWAP1 DUP2 DUP2 MSTORE PUSH1 0x20 ADD DUP3 DUP1 SLOAD PUSH2 0xEEB SWAP1 PUSH2 0x2397 JUMP JUMPDEST DUP1 ISZERO PUSH2 0xF38 JUMPI DUP1 PUSH1 0x1F LT PUSH2 0xF0D JUMPI PUSH2 0x100 DUP1 DUP4 SLOAD DIV MUL DUP4 MSTORE SWAP2 PUSH1 0x20 ADD SWAP2 PUSH2 0xF38 JUMP JUMPDEST DUP3 ADD SWAP2 SWAP1 PUSH1 0x0 MSTORE PUSH1 0x20 PUSH1 0x0 KECCAK256 SWAP1 JUMPDEST DUP2 SLOAD DUP2 MSTORE SWAP1 PUSH1 0x1 ADD SWAP1 PUSH1 0x20 ADD DUP1 DUP4 GT PUSH2 0xF1B JUMPI DUP3 SWAP1 SUB PUSH1 0x1F AND DUP3 ADD SWAP2 JUMPDEST POP POP POP POP POP SWAP1 DUP1 PUSH1 0x1 ADD PUSH1 0x0 SWAP1 SLOAD SWAP1 PUSH2 0x100 EXP SWAP1 DIV PUSH20 0xFFFFFFFFFFFFFFFFFFFFFFFFFFFFFFFFFFFFFFFF AND SWAP1 DUP1 PUSH1 0x3 ADD PUSH1 0x0 SWAP1 SLOAD SWAP1 PUSH2 0x100 EXP SWAP1 DIV PUSH4 0xFFFFFFFF AND SWAP1 DUP1 PUSH1 0x3 ADD PUSH1 0x4 SWAP1 SLOAD SWAP1 PUSH2 0x100 EXP SWAP1 DIV PUSH4 0xFFFFFFFF AND SWAP1 DUP1 PUSH1 0x3 ADD PUSH1 0x8 SWAP1 SLOAD SWAP1 PUSH2 0x100 EXP SWAP1 DIV PUSH1 0xFF AND SWAP1 POP DUP6 JUMP JUMPDEST PUSH1 0x0 PUSH1 0x3 PUSH1 0x0 DUP1 SLOAD DUP2 MSTORE PUSH1 0x20 ADD SWAP1 DUP2 MSTORE PUSH1 0x20 ADD PUSH1 0x0 KECCAK256 SWAP1 POP DUP3 DUP2 PUSH1 0x0 ADD SWAP1 DUP1 MLOAD SWAP1 PUSH1 0x20 ADD SWAP1 PUSH2 0xFD7 SWAP3 SWAP2 SWAP1 PUSH2 0x167C JUMP JUMPDEST POP CALLER DUP2 PUSH1 0x1 ADD PUSH1 0x0 PUSH2 0x100 EXP DUP2 SLOAD DUP2 PUSH20 0xFFFFFFFFFFFFFFFFFFFFFFFFFFFFFFFFFFFFFFFF MUL NOT AND SWAP1 DUP4 PUSH20 0xFFFFFFFFFFFFFFFFFFFFFFFFFFFFFFFFFFFFFFFF AND MUL OR SWAP1 SSTORE POP DUP2 DUP2 PUSH1 0x3 ADD PUSH1 0x0 PUSH2 0x100 EXP DUP2 SLOAD DUP2 PUSH4 0xFFFFFFFF MUL NOT AND SWAP1 DUP4 PUSH4 0xFFFFFFFF AND MUL OR SWAP1 SSTORE POP PUSH1 0x1 PUSH1 0x0 SLOAD SWAP1 DUP1 PUSH1 0x1 DUP2 SLOAD ADD DUP1 DUP3 SSTORE DUP1 SWAP2 POP POP PUSH1 0x1 SWAP1 SUB SWAP1 PUSH1 0x0 MSTORE PUSH1 0x20 PUSH1 0x0 KECCAK256 ADD PUSH1 0x0 SWAP1 SWAP2 SWAP1 SWAP2 SWAP1 SWAP2 POP SSTORE PUSH1 0x0 SLOAD DUP2 PUSH1 0x3 ADD PUSH1 0x0 SWAP1 SLOAD SWAP1 PUSH2 0x100 EXP SWAP1 DIV PUSH4 0xFFFFFFFF AND PUSH4 0xFFFFFFFF AND DUP5 PUSH1 0x40 MLOAD PUSH2 0x1095 SWAP2 SWAP1 PUSH2 0x2807 JUMP JUMPDEST PUSH1 0x40 MLOAD DUP1 SWAP2 SUB SWAP1 KECCAK256 PUSH32 0xD4D0D9A1EF7F13069F1BADE752FDA515713D747EB14A8C30AE461C52916BF1C7 PUSH1 0x40 MLOAD PUSH1 0x40 MLOAD DUP1 SWAP2 SUB SWAP1 LOG4 PUSH1 0x0 DUP1 DUP2 SLOAD DUP1 SWAP3 SWAP2 SWAP1 PUSH2 0x10DB SWAP1 PUSH2 0x2464 JUMP JUMPDEST SWAP2 SWAP1 POP SSTORE POP POP POP POP JUMP JUMPDEST PUSH1 0x60 PUSH1 0x1 DUP1 SLOAD SWAP1 POP PUSH8 0xFFFFFFFFFFFFFFFF DUP2 GT ISZERO PUSH2 0x1106 JUMPI PUSH2 0x1105 PUSH2 0x1CA2 JUMP JUMPDEST JUMPDEST PUSH1 0x40 MLOAD SWAP1 DUP1 DUP3 MSTORE DUP1 PUSH1 0x20 MUL PUSH1 0x20 ADD DUP3 ADD PUSH1 0x40 MSTORE DUP1 ISZERO PUSH2 0x113F JUMPI DUP2 PUSH1 0x20 ADD JUMPDEST PUSH2 0x112C PUSH2 0x1702 JUMP JUMPDEST DUP2 MSTORE PUSH1 0x20 ADD SWAP1 PUSH1 0x1 SWAP1 SUB SWAP1 DUP2 PUSH2 0x1124 JUMPI SWAP1 POP JUMPDEST POP SWAP1 POP PUSH1 0x0 JUMPDEST PUSH1 0x1 DUP1 SLOAD SWAP1 POP DUP2 LT ISZERO PUSH2 0x1198 JUMPI PUSH2 0x1167 DUP2 DUP1 PUSH2 0x1160 SWAP1 PUSH2 0x2464 JUMP JUMPDEST SWAP3 POP PUSH2 0x1472 JUMP JUMPDEST DUP3 DUP3 DUP2 MLOAD DUP2 LT PUSH2 0x117A JUMPI PUSH2 0x1179 PUSH2 0x2435 JUMP JUMPDEST JUMPDEST PUSH1 0x20 MUL PUSH1 0x20 ADD ADD DUP2 SWAP1 MSTORE POP DUP1 DUP1 PUSH2 0x1190 SWAP1 PUSH2 0x2464 JUMP JUMPDEST SWAP2 POP POP PUSH2 0x1145 JUMP JUMPDEST POP SWAP1 JUMP JUMPDEST PUSH1 0x0 DUP1 PUSH1 0x3 PUSH1 0x0 DUP6 DUP2 MSTORE PUSH1 0x20 ADD SWAP1 DUP2 MSTORE PUSH1 0x20 ADD PUSH1 0x0 KECCAK256 SWAP1 POP PUSH1 0x6 PUSH1 0x0 DUP6 DUP2 MSTORE PUSH1 0x20 ADD SWAP1 DUP2 MSTORE PUSH1 0x20 ADD PUSH1 0x0 KECCAK256 PUSH1 0x0 DUP3 PUSH1 0x2 ADD DUP6 DUP2 SLOAD DUP2 LT PUSH2 0x11DF JUMPI PUSH2 0x11DE PUSH2 0x2435 JUMP JUMPDEST JUMPDEST SWAP1 PUSH1 0x0 MSTORE PUSH1 0x20 PUSH1 0x0 KECCAK256 ADD PUSH1 0x0 SWAP1 SLOAD SWAP1 PUSH2 0x100 EXP SWAP1 DIV PUSH20 0xFFFFFFFFFFFFFFFFFFFFFFFFFFFFFFFFFFFFFFFF AND PUSH20 0xFFFFFFFFFFFFFFFFFFFFFFFFFFFFFFFFFFFFFFFF AND PUSH20 0xFFFFFFFFFFFFFFFFFFFFFFFFFFFFFFFFFFFFFFFF AND DUP2 MSTORE PUSH1 0x20 ADD SWAP1 DUP2 MSTORE PUSH1 0x20 ADD PUSH1 0x0 KECCAK256 SLOAD SWAP2 POP POP SWAP3 SWAP2 POP POP JUMP JUMPDEST PUSH1 0x0 DUP1 PUSH1 0x0 DUP1 PUSH1 0x41 DUP6 MLOAD EQ PUSH2 0x1269 JUMPI PUSH1 0x0 SWAP4 POP POP POP POP PUSH2 0x1341 JUMP JUMPDEST PUSH1 0x20 DUP6 ADD MLOAD SWAP3 POP PUSH1 0x40 DUP6 ADD MLOAD SWAP2 POP PUSH1 0x60 DUP6 ADD MLOAD PUSH1 0x0 BYTE SWAP1 POP PUSH1 0x1B DUP2 PUSH1 0xFF AND LT ISZERO PUSH2 0x129D JUMPI PUSH1 0x1B DUP2 PUSH2 0x129A SWAP2 SWAP1 PUSH2 0x282B JUMP JUMPDEST SWAP1 POP JUMPDEST PUSH1 0x1B DUP2 PUSH1 0xFF AND EQ ISZERO DUP1 ISZERO PUSH2 0x12B5 JUMPI POP PUSH1 0x1C DUP2 PUSH1 0xFF AND EQ ISZERO JUMPDEST ISZERO PUSH2 0x12C6 JUMPI PUSH1 0x0 SWAP4 POP POP POP POP PUSH2 0x1341 JUMP JUMPDEST PUSH1 0x1 DUP7 PUSH1 0x40 MLOAD PUSH1 0x20 ADD PUSH2 0x12D9 SWAP2 SWAP1 PUSH2 0x28CF JUMP JUMPDEST PUSH1 0x40 MLOAD PUSH1 0x20 DUP2 DUP4 SUB SUB DUP2 MSTORE SWAP1 PUSH1 0x40 MSTORE DUP1 MLOAD SWAP1 PUSH1 0x20 ADD KECCAK256 DUP3 DUP6 DUP6 PUSH1 0x40 MLOAD PUSH1 0x0 DUP2 MSTORE PUSH1 0x20 ADD PUSH1 0x40 MSTORE PUSH1 0x40 MLOAD PUSH2 0x130F SWAP5 SWAP4 SWAP3 SWAP2 SWAP1 PUSH2 0x2904 JUMP JUMPDEST PUSH1 0x20 PUSH1 0x40 MLOAD PUSH1 0x20 DUP2 SUB SWAP1 DUP1 DUP5 SUB SWAP1 DUP6 GAS STATICCALL ISZERO DUP1 ISZERO PUSH2 0x1331 JUMPI RETURNDATASIZE PUSH1 0x0 DUP1 RETURNDATACOPY RETURNDATASIZE PUSH1 0x0 REVERT JUMPDEST POP POP POP PUSH1 0x20 PUSH1 0x40 MLOAD SUB MLOAD SWAP4 POP POP POP POP JUMPDEST SWAP3 SWAP2 POP POP JUMP JUMPDEST PUSH1 0x0 PUSH1 0x1 PUSH1 0x7 PUSH1 0x0 DUP6 DUP2 MSTORE PUSH1 0x20 ADD SWAP1 DUP2 MSTORE PUSH1 0x20 ADD PUSH1 0x0 KECCAK256 PUSH1 0x0 DUP5 PUSH20 0xFFFFFFFFFFFFFFFFFFFFFFFFFFFFFFFFFFFFFFFF AND PUSH20 0xFFFFFFFFFFFFFFFFFFFFFFFFFFFFFFFFFFFFFFFF AND DUP2 MSTORE PUSH1 0x20 ADD SWAP1 DUP2 MSTORE PUSH1 0x20 ADD PUSH1 0x0 KECCAK256 PUSH1 0x0 PUSH2 0x100 EXP DUP2 SLOAD DUP2 PUSH1 0xFF MUL NOT AND SWAP1 DUP4 ISZERO ISZERO MUL OR SWAP1 SSTORE POP PUSH1 0x6 PUSH1 0x0 DUP5 DUP2 MSTORE PUSH1 0x20 ADD SWAP1 DUP2 MSTORE PUSH1 0x20 ADD PUSH1 0x0 KECCAK256 PUSH1 0x0 DUP6 PUSH20 0xFFFFFFFFFFFFFFFFFFFFFFFFFFFFFFFFFFFFFFFF AND PUSH20 0xFFFFFFFFFFFFFFFFFFFFFFFFFFFFFFFFFFFFFFFF AND DUP2 MSTORE PUSH1 0x20 ADD SWAP1 DUP2 MSTORE PUSH1 0x20 ADD PUSH1 0x0 KECCAK256 PUSH1 0x0 DUP2 SLOAD DUP1 SWAP3 SWAP2 SWAP1 PUSH2 0x1413 SWAP1 PUSH2 0x2464 JUMP JUMPDEST SWAP2 SWAP1 POP SSTORE POP PUSH1 0x6 PUSH1 0x0 DUP5 DUP2 MSTORE PUSH1 0x20 ADD SWAP1 DUP2 MSTORE PUSH1 0x20 ADD PUSH1 0x0 KECCAK256 PUSH1 0x0 DUP6 PUSH20 0xFFFFFFFFFFFFFFFFFFFFFFFFFFFFFFFFFFFFFFFF AND PUSH20 0xFFFFFFFFFFFFFFFFFFFFFFFFFFFFFFFFFFFFFFFF AND DUP2 MSTORE PUSH1 0x20 ADD SWAP1 DUP2 MSTORE PUSH1 0x20 ADD PUSH1 0x0 KECCAK256 SLOAD SWAP1 POP SWAP4 SWAP3 POP POP POP JUMP JUMPDEST PUSH2 0x147A PUSH2 0x1702 JUMP JUMPDEST PUSH1 0x3 PUSH1 0x0 DUP4 DUP2 MSTORE PUSH1 0x20 ADD SWAP1 DUP2 MSTORE PUSH1 0x20 ADD PUSH1 0x0 KECCAK256 PUSH1 0x40 MLOAD DUP1 PUSH1 0xC0 ADD PUSH1 0x40 MSTORE SWAP1 DUP2 PUSH1 0x0 DUP3 ADD DUP1 SLOAD PUSH2 0x14A8 SWAP1 PUSH2 0x2397 JUMP JUMPDEST DUP1 PUSH1 0x1F ADD PUSH1 0x20 DUP1 SWAP2 DIV MUL PUSH1 0x20 ADD PUSH1 0x40 MLOAD SWAP1 DUP2 ADD PUSH1 0x40 MSTORE DUP1 SWAP3 SWAP2 SWAP1 DUP2 DUP2 MSTORE PUSH1 0x20 ADD DUP3 DUP1 SLOAD PUSH2 0x14D4 SWAP1 PUSH2 0x2397 JUMP JUMPDEST DUP1 ISZERO PUSH2 0x1521 JUMPI DUP1 PUSH1 0x1F LT PUSH2 0x14F6 JUMPI PUSH2 0x100 DUP1 DUP4 SLOAD DIV MUL DUP4 MSTORE SWAP2 PUSH1 0x20 ADD SWAP2 PUSH2 0x1521 JUMP JUMPDEST DUP3 ADD SWAP2 SWAP1 PUSH1 0x0 MSTORE PUSH1 0x20 PUSH1 0x0 KECCAK256 SWAP1 JUMPDEST DUP2 SLOAD DUP2 MSTORE SWAP1 PUSH1 0x1 ADD SWAP1 PUSH1 0x20 ADD DUP1 DUP4 GT PUSH2 0x1504 JUMPI DUP3 SWAP1 SUB PUSH1 0x1F AND DUP3 ADD SWAP2 JUMPDEST POP POP POP POP POP DUP2 MSTORE PUSH1 0x20 ADD PUSH1 0x1 DUP3 ADD PUSH1 0x0 SWAP1 SLOAD SWAP1 PUSH2 0x100 EXP SWAP1 DIV PUSH20 0xFFFFFFFFFFFFFFFFFFFFFFFFFFFFFFFFFFFFFFFF AND PUSH20 0xFFFFFFFFFFFFFFFFFFFFFFFFFFFFFFFFFFFFFFFF AND PUSH20 0xFFFFFFFFFFFFFFFFFFFFFFFFFFFFFFFFFFFFFFFF AND DUP2 MSTORE PUSH1 0x20 ADD PUSH1 0x2 DUP3 ADD DUP1 SLOAD DUP1 PUSH1 0x20 MUL PUSH1 0x20 ADD PUSH1 0x40 MLOAD SWAP1 DUP2 ADD PUSH1 0x40 MSTORE DUP1 SWAP3 SWAP2 SWAP1 DUP2 DUP2 MSTORE PUSH1 0x20 ADD DUP3 DUP1 SLOAD DUP1 ISZERO PUSH2 0x1605 JUMPI PUSH1 0x20 MUL DUP3 ADD SWAP2 SWAP1 PUSH1 0x0 MSTORE PUSH1 0x20 PUSH1 0x0 KECCAK256 SWAP1 JUMPDEST DUP2 PUSH1 0x0 SWAP1 SLOAD SWAP1 PUSH2 0x100 EXP SWAP1 DIV PUSH20 0xFFFFFFFFFFFFFFFFFFFFFFFFFFFFFFFFFFFFFFFF AND PUSH20 0xFFFFFFFFFFFFFFFFFFFFFFFFFFFFFFFFFFFFFFFF AND DUP2 MSTORE PUSH1 0x20 ADD SWAP1 PUSH1 0x1 ADD SWAP1 DUP1 DUP4 GT PUSH2 0x15BB JUMPI JUMPDEST POP POP POP POP POP DUP2 MSTORE PUSH1 0x20 ADD PUSH1 0x3 DUP3 ADD PUSH1 0x0 SWAP1 SLOAD SWAP1 PUSH2 0x100 EXP SWAP1 DIV PUSH4 0xFFFFFFFF AND PUSH4 0xFFFFFFFF AND PUSH4 0xFFFFFFFF AND DUP2 MSTORE PUSH1 0x20 ADD PUSH1 0x3 DUP3 ADD PUSH1 0x4 SWAP1 SLOAD SWAP1 PUSH2 0x100 EXP SWAP1 DIV PUSH4 0xFFFFFFFF AND PUSH4 0xFFFFFFFF AND PUSH4 0xFFFFFFFF AND DUP2 MSTORE PUSH1 0x20 ADD PUSH1 0x3 DUP3 ADD PUSH1 0x8 SWAP1 SLOAD SWAP1 PUSH2 0x100 EXP SWAP1 DIV PUSH1 0xFF AND ISZERO ISZERO ISZERO ISZERO DUP2 MSTORE POP POP SWAP1 POP SWAP2 SWAP1 POP JUMP JUMPDEST DUP3 DUP1 SLOAD PUSH2 0x1688 SWAP1 PUSH2 0x2397 JUMP JUMPDEST SWAP1 PUSH1 0x0 MSTORE PUSH1 0x20 PUSH1 0x0 KECCAK256 SWAP1 PUSH1 0x1F ADD PUSH1 0x20 SWAP1 DIV DUP2 ADD SWAP3 DUP3 PUSH2 0x16AA JUMPI PUSH1 0x0 DUP6 SSTORE PUSH2 0x16F1 JUMP JUMPDEST DUP3 PUSH1 0x1F LT PUSH2 0x16C3 JUMPI DUP1 MLOAD PUSH1 0xFF NOT AND DUP4 DUP1 ADD OR DUP6 SSTORE PUSH2 0x16F1 JUMP JUMPDEST DUP3 DUP1 ADD PUSH1 0x1 ADD DUP6 SSTORE DUP3 ISZERO PUSH2 0x16F1 JUMPI SWAP2 DUP3 ADD JUMPDEST DUP3 DUP2 GT ISZERO PUSH2 0x16F0 JUMPI DUP3 MLOAD DUP3 SSTORE SWAP2 PUSH1 0x20 ADD SWAP2 SWAP1 PUSH1 0x1 ADD SWAP1 PUSH2 0x16D5 JUMP JUMPDEST JUMPDEST POP SWAP1 POP PUSH2 0x16FE SWAP2 SWAP1 PUSH2 0x175C JUMP JUMPDEST POP SWAP1 JUMP JUMPDEST PUSH1 0x40 MLOAD DUP1 PUSH1 0xC0 ADD PUSH1 0x40 MSTORE DUP1 PUSH1 0x60 DUP2 MSTORE PUSH1 0x20 ADD PUSH1 0x0 PUSH20 0xFFFFFFFFFFFFFFFFFFFFFFFFFFFFFFFFFFFFFFFF AND DUP2 MSTORE PUSH1 0x20 ADD PUSH1 0x60 DUP2 MSTORE PUSH1 0x20 ADD PUSH1 0x0 PUSH4 0xFFFFFFFF AND DUP2 MSTORE PUSH1 0x20 ADD PUSH1 0x0 PUSH4 0xFFFFFFFF AND DUP2 MSTORE PUSH1 0x20 ADD PUSH1 0x0 ISZERO ISZERO DUP2 MSTORE POP SWAP1 JUMP JUMPDEST JUMPDEST DUP1 DUP3 GT ISZERO PUSH2 0x1775 JUMPI PUSH1 0x0 DUP2 PUSH1 0x0 SWAP1 SSTORE POP PUSH1 0x1 ADD PUSH2 0x175D JUMP JUMPDEST POP SWAP1 JUMP JUMPDEST PUSH1 0x0 PUSH1 0x40 MLOAD SWAP1 POP SWAP1 JUMP JUMPDEST PUSH1 0x0 DUP1 REVERT JUMPDEST PUSH1 0x0 DUP1 REVERT JUMPDEST PUSH1 0x0 PUSH20 0xFFFFFFFFFFFFFFFFFFFFFFFFFFFFFFFFFFFFFFFF DUP3 AND SWAP1 POP SWAP2 SWAP1 POP JUMP JUMPDEST PUSH1 0x0 PUSH2 0x17B8 DUP3 PUSH2 0x178D JUMP JUMPDEST SWAP1 POP SWAP2 SWAP1 POP JUMP JUMPDEST PUSH2 0x17C8 DUP2 PUSH2 0x17AD JUMP JUMPDEST DUP2 EQ PUSH2 0x17D3 JUMPI PUSH1 0x0 DUP1 REVERT JUMPDEST POP JUMP JUMPDEST PUSH1 0x0 DUP2 CALLDATALOAD SWAP1 POP PUSH2 0x17E5 DUP2 PUSH2 0x17BF JUMP JUMPDEST SWAP3 SWAP2 POP POP JUMP JUMPDEST PUSH1 0x0 DUP2 SWAP1 POP SWAP2 SWAP1 POP JUMP JUMPDEST PUSH2 0x17FE DUP2 PUSH2 0x17EB JUMP JUMPDEST DUP2 EQ PUSH2 0x1809 JUMPI PUSH1 0x0 DUP1 REVERT JUMPDEST POP JUMP JUMPDEST PUSH1 0x0 DUP2 CALLDATALOAD SWAP1 POP PUSH2 0x181B DUP2 PUSH2 0x17F5 JUMP JUMPDEST SWAP3 SWAP2 POP POP JUMP JUMPDEST PUSH1 0x0 DUP1 PUSH1 0x40 DUP4 DUP6 SUB SLT ISZERO PUSH2 0x1838 JUMPI PUSH2 0x1837 PUSH2 0x1783 JUMP JUMPDEST JUMPDEST PUSH1 0x0 PUSH2 0x1846 DUP6 DUP3 DUP7 ADD PUSH2 0x17D6 JUMP JUMPDEST SWAP3 POP POP PUSH1 0x20 PUSH2 0x1857 DUP6 DUP3 DUP7 ADD PUSH2 0x180C JUMP JUMPDEST SWAP2 POP POP SWAP3 POP SWAP3 SWAP1 POP JUMP JUMPDEST PUSH1 0x0 PUSH1 0x20 DUP3 DUP5 SUB SLT ISZERO PUSH2 0x1877 JUMPI PUSH2 0x1876 PUSH2 0x1783 JUMP JUMPDEST JUMPDEST PUSH1 0x0 PUSH2 0x1885 DUP5 DUP3 DUP6 ADD PUSH2 0x180C JUMP JUMPDEST SWAP2 POP POP SWAP3 SWAP2 POP POP JUMP JUMPDEST PUSH2 0x1897 DUP2 PUSH2 0x17EB JUMP JUMPDEST DUP3 MSTORE POP POP JUMP JUMPDEST PUSH1 0x0 PUSH1 0x20 DUP3 ADD SWAP1 POP PUSH2 0x18B2 PUSH1 0x0 DUP4 ADD DUP5 PUSH2 0x188E JUMP JUMPDEST SWAP3 SWAP2 POP POP JUMP JUMPDEST PUSH1 0x0 PUSH1 0x20 DUP3 DUP5 SUB SLT ISZERO PUSH2 0x18CE JUMPI PUSH2 0x18CD PUSH2 0x1783 JUMP JUMPDEST JUMPDEST PUSH1 0x0 PUSH2 0x18DC DUP5 DUP3 DUP6 ADD PUSH2 0x17D6 JUMP JUMPDEST SWAP2 POP POP SWAP3 SWAP2 POP POP JUMP JUMPDEST PUSH1 0x0 DUP2 MLOAD SWAP1 POP SWAP2 SWAP1 POP JUMP JUMPDEST PUSH1 0x0 DUP3 DUP3 MSTORE PUSH1 0x20 DUP3 ADD SWAP1 POP SWAP3 SWAP2 POP POP JUMP JUMPDEST PUSH1 0x0 JUMPDEST DUP4 DUP2 LT ISZERO PUSH2 0x191F JUMPI DUP1 DUP3 ADD MLOAD DUP2 DUP5 ADD MSTORE PUSH1 0x20 DUP2 ADD SWAP1 POP PUSH2 0x1904 JUMP JUMPDEST DUP4 DUP2 GT ISZERO PUSH2 0x192E JUMPI PUSH1 0x0 DUP5 DUP5 ADD MSTORE JUMPDEST POP POP POP POP JUMP JUMPDEST PUSH1 0x0 PUSH1 0x1F NOT PUSH1 0x1F DUP4 ADD AND SWAP1 POP SWAP2 SWAP1 POP JUMP JUMPDEST PUSH1 0x0 PUSH2 0x1950 DUP3 PUSH2 0x18E5 JUMP JUMPDEST PUSH2 0x195A DUP2 DUP6 PUSH2 0x18F0 JUMP JUMPDEST SWAP4 POP PUSH2 0x196A DUP2 DUP6 PUSH1 0x20 DUP7 ADD PUSH2 0x1901 JUMP JUMPDEST PUSH2 0x1973 DUP2 PUSH2 0x1934 JUMP JUMPDEST DUP5 ADD SWAP2 POP POP SWAP3 SWAP2 POP POP JUMP JUMPDEST PUSH2 0x1987 DUP2 PUSH2 0x17AD JUMP JUMPDEST DUP3 MSTORE POP POP JUMP JUMPDEST PUSH1 0x0 PUSH4 0xFFFFFFFF DUP3 AND SWAP1 POP SWAP2 SWAP1 POP JUMP JUMPDEST PUSH2 0x19A6 DUP2 PUSH2 0x198D JUMP JUMPDEST DUP3 MSTORE POP POP JUMP JUMPDEST PUSH1 0x0 DUP2 ISZERO ISZERO SWAP1 POP SWAP2 SWAP1 POP JUMP JUMPDEST PUSH2 0x19C1 DUP2 PUSH2 0x19AC JUMP JUMPDEST DUP3 MSTORE POP POP JUMP JUMPDEST PUSH1 0x0 PUSH1 0xA0 DUP3 ADD SWAP1 POP DUP2 DUP2 SUB PUSH1 0x0 DUP4 ADD MSTORE PUSH2 0x19E1 DUP2 DUP9 PUSH2 0x1945 JUMP JUMPDEST SWAP1 POP PUSH2 0x19F0 PUSH1 0x20 DUP4 ADD DUP8 PUSH2 0x197E JUMP JUMPDEST PUSH2 0x19FD PUSH1 0x40 DUP4 ADD DUP7 PUSH2 0x199D JUMP JUMPDEST PUSH2 0x1A0A PUSH1 0x60 DUP4 ADD DUP6 PUSH2 0x199D JUMP JUMPDEST PUSH2 0x1A17 PUSH1 0x80 DUP4 ADD DUP5 PUSH2 0x19B8 JUMP JUMPDEST SWAP7 SWAP6 POP POP POP POP POP POP JUMP JUMPDEST PUSH1 0x0 DUP2 MLOAD SWAP1 POP SWAP2 SWAP1 POP JUMP JUMPDEST PUSH1 0x0 DUP3 DUP3 MSTORE PUSH1 0x20 DUP3 ADD SWAP1 POP SWAP3 SWAP2 POP POP JUMP JUMPDEST PUSH1 0x0 DUP2 SWAP1 POP PUSH1 0x20 DUP3 ADD SWAP1 POP SWAP2 SWAP1 POP JUMP JUMPDEST PUSH2 0x1A56 DUP2 PUSH2 0x17AD JUMP JUMPDEST DUP3 MSTORE POP POP JUMP JUMPDEST PUSH1 0x0 PUSH2 0x1A68 DUP4 DUP4 PUSH2 0x1A4D JUMP JUMPDEST PUSH1 0x20 DUP4 ADD SWAP1 POP SWAP3 SWAP2 POP POP JUMP JUMPDEST PUSH1 0x0 PUSH1 0x20 DUP3 ADD SWAP1 POP SWAP2 SWAP1 POP JUMP JUMPDEST PUSH1 0x0 PUSH2 0x1A8C DUP3 PUSH2 0x1A21 JUMP JUMPDEST PUSH2 0x1A96 DUP2 DUP6 PUSH2 0x1A2C JUMP JUMPDEST SWAP4 POP PUSH2 0x1AA1 DUP4 PUSH2 0x1A3D JUMP JUMPDEST DUP1 PUSH1 0x0 JUMPDEST DUP4 DUP2 LT ISZERO PUSH2 0x1AD2 JUMPI DUP2 MLOAD PUSH2 0x1AB9 DUP9 DUP3 PUSH2 0x1A5C JUMP JUMPDEST SWAP8 POP PUSH2 0x1AC4 DUP4 PUSH2 0x1A74 JUMP JUMPDEST SWAP3 POP POP PUSH1 0x1 DUP2 ADD SWAP1 POP PUSH2 0x1AA5 JUMP JUMPDEST POP DUP6 SWAP4 POP POP POP POP SWAP3 SWAP2 POP POP JUMP JUMPDEST PUSH1 0x0 PUSH1 0x20 DUP3 ADD SWAP1 POP DUP2 DUP2 SUB PUSH1 0x0 DUP4 ADD MSTORE PUSH2 0x1AF9 DUP2 DUP5 PUSH2 0x1A81 JUMP JUMPDEST SWAP1 POP SWAP3 SWAP2 POP POP JUMP JUMPDEST PUSH1 0x0 DUP2 MLOAD SWAP1 POP SWAP2 SWAP1 POP JUMP JUMPDEST PUSH1 0x0 DUP3 DUP3 MSTORE PUSH1 0x20 DUP3 ADD SWAP1 POP SWAP3 SWAP2 POP POP JUMP JUMPDEST PUSH1 0x0 DUP2 SWAP1 POP PUSH1 0x20 DUP3 ADD SWAP1 POP SWAP2 SWAP1 POP JUMP JUMPDEST PUSH2 0x1B36 DUP2 PUSH2 0x17EB JUMP JUMPDEST DUP3 MSTORE POP POP JUMP JUMPDEST PUSH1 0x0 PUSH2 0x1B48 DUP4 DUP4 PUSH2 0x1B2D JUMP JUMPDEST PUSH1 0x20 DUP4 ADD SWAP1 POP SWAP3 SWAP2 POP POP JUMP JUMPDEST PUSH1 0x0 PUSH1 0x20 DUP3 ADD SWAP1 POP SWAP2 SWAP1 POP JUMP JUMPDEST PUSH1 0x0 PUSH2 0x1B6C DUP3 PUSH2 0x1B01 JUMP JUMPDEST PUSH2 0x1B76 DUP2 DUP6 PUSH2 0x1B0C JUMP JUMPDEST SWAP4 POP PUSH2 0x1B81 DUP4 PUSH2 0x1B1D JUMP JUMPDEST DUP1 PUSH1 0x0 JUMPDEST DUP4 DUP2 LT ISZERO PUSH2 0x1BB2 JUMPI DUP2 MLOAD PUSH2 0x1B99 DUP9 DUP3 PUSH2 0x1B3C JUMP JUMPDEST SWAP8 POP PUSH2 0x1BA4 DUP4 PUSH2 0x1B54 JUMP JUMPDEST SWAP3 POP POP PUSH1 0x1 DUP2 ADD SWAP1 POP PUSH2 0x1B85 JUMP JUMPDEST POP DUP6 SWAP4 POP POP POP POP SWAP3 SWAP2 POP POP JUMP JUMPDEST PUSH1 0x0 PUSH1 0x60 DUP3 ADD SWAP1 POP DUP2 DUP2 SUB PUSH1 0x0 DUP4 ADD MSTORE PUSH2 0x1BD9 DUP2 DUP7 PUSH2 0x1B61 JUMP JUMPDEST SWAP1 POP PUSH2 0x1BE8 PUSH1 0x20 DUP4 ADD DUP6 PUSH2 0x197E JUMP JUMPDEST PUSH2 0x1BF5 PUSH1 0x40 DUP4 ADD DUP5 PUSH2 0x188E JUMP JUMPDEST SWAP5 SWAP4 POP POP POP POP JUMP JUMPDEST PUSH1 0x0 DUP1 PUSH1 0x0 DUP1 PUSH1 0x80 DUP6 DUP8 SUB SLT ISZERO PUSH2 0x1C17 JUMPI PUSH2 0x1C16 PUSH2 0x1783 JUMP JUMPDEST JUMPDEST PUSH1 0x0 PUSH2 0x1C25 DUP8 DUP3 DUP9 ADD PUSH2 0x17D6 JUMP JUMPDEST SWAP5 POP POP PUSH1 0x20 PUSH2 0x1C36 DUP8 DUP3 DUP9 ADD PUSH2 0x180C JUMP JUMPDEST SWAP4 POP POP PUSH1 0x40 PUSH2 0x1C47 DUP8 DUP3 DUP9 ADD PUSH2 0x180C JUMP JUMPDEST SWAP3 POP POP PUSH1 0x60 PUSH2 0x1C58 DUP8 DUP3 DUP9 ADD PUSH2 0x180C JUMP JUMPDEST SWAP2 POP POP SWAP3 SWAP6 SWAP2 SWAP5 POP SWAP3 POP JUMP JUMPDEST PUSH1 0x0 DUP2 SWAP1 POP SWAP2 SWAP1 POP JUMP JUMPDEST PUSH2 0x1C77 DUP2 PUSH2 0x1C64 JUMP JUMPDEST DUP3 MSTORE POP POP JUMP JUMPDEST PUSH1 0x0 PUSH1 0x20 DUP3 ADD SWAP1 POP PUSH2 0x1C92 PUSH1 0x0 DUP4 ADD DUP5 PUSH2 0x1C6E JUMP JUMPDEST SWAP3 SWAP2 POP POP JUMP JUMPDEST PUSH1 0x0 DUP1 REVERT JUMPDEST PUSH1 0x0 DUP1 REVERT JUMPDEST PUSH32 0x4E487B7100000000000000000000000000000000000000000000000000000000 PUSH1 0x0 MSTORE PUSH1 0x41 PUSH1 0x4 MSTORE PUSH1 0x24 PUSH1 0x0 REVERT JUMPDEST PUSH2 0x1CDA DUP3 PUSH2 0x1934 JUMP JUMPDEST DUP2 ADD DUP2 DUP2 LT PUSH8 0xFFFFFFFFFFFFFFFF DUP3 GT OR ISZERO PUSH2 0x1CF9 JUMPI PUSH2 0x1CF8 PUSH2 0x1CA2 JUMP JUMPDEST JUMPDEST DUP1 PUSH1 0x40 MSTORE POP POP POP JUMP JUMPDEST PUSH1 0x0 PUSH2 0x1D0C PUSH2 0x1779 JUMP JUMPDEST SWAP1 POP PUSH2 0x1D18 DUP3 DUP3 PUSH2 0x1CD1 JUMP JUMPDEST SWAP2 SWAP1 POP JUMP JUMPDEST PUSH1 0x0 PUSH8 0xFFFFFFFFFFFFFFFF DUP3 GT ISZERO PUSH2 0x1D38 JUMPI PUSH2 0x1D37 PUSH2 0x1CA2 JUMP JUMPDEST JUMPDEST PUSH2 0x1D41 DUP3 PUSH2 0x1934 JUMP JUMPDEST SWAP1 POP PUSH1 0x20 DUP2 ADD SWAP1 POP SWAP2 SWAP1 POP JUMP JUMPDEST DUP3 DUP2 DUP4 CALLDATACOPY PUSH1 0x0 DUP4 DUP4 ADD MSTORE POP POP POP JUMP JUMPDEST PUSH1 0x0 PUSH2 0x1D70 PUSH2 0x1D6B DUP5 PUSH2 0x1D1D JUMP JUMPDEST PUSH2 0x1D02 JUMP JUMPDEST SWAP1 POP DUP3 DUP2 MSTORE PUSH1 0x20 DUP2 ADD DUP5 DUP5 DUP5 ADD GT ISZERO PUSH2 0x1D8C JUMPI PUSH2 0x1D8B PUSH2 0x1C9D JUMP JUMPDEST JUMPDEST PUSH2 0x1D97 DUP5 DUP3 DUP6 PUSH2 0x1D4E JUMP JUMPDEST POP SWAP4 SWAP3 POP POP POP JUMP JUMPDEST PUSH1 0x0 DUP3 PUSH1 0x1F DUP4 ADD SLT PUSH2 0x1DB4 JUMPI PUSH2 0x1DB3 PUSH2 0x1C98 JUMP JUMPDEST JUMPDEST DUP2 CALLDATALOAD PUSH2 0x1DC4 DUP5 DUP3 PUSH1 0x20 DUP7 ADD PUSH2 0x1D5D JUMP JUMPDEST SWAP2 POP POP SWAP3 SWAP2 POP POP JUMP JUMPDEST PUSH1 0x0 DUP1 PUSH1 0x0 DUP1 PUSH1 0x80 DUP6 DUP8 SUB SLT ISZERO PUSH2 0x1DE7 JUMPI PUSH2 0x1DE6 PUSH2 0x1783 JUMP JUMPDEST JUMPDEST PUSH1 0x0 PUSH2 0x1DF5 DUP8 DUP3 DUP9 ADD PUSH2 0x17D6 JUMP JUMPDEST SWAP5 POP POP PUSH1 0x20 PUSH2 0x1E06 DUP8 DUP3 DUP9 ADD PUSH2 0x180C JUMP JUMPDEST SWAP4 POP POP PUSH1 0x40 PUSH2 0x1E17 DUP8 DUP3 DUP9 ADD PUSH2 0x180C JUMP JUMPDEST SWAP3 POP POP PUSH1 0x60 DUP6 ADD CALLDATALOAD PUSH8 0xFFFFFFFFFFFFFFFF DUP2 GT ISZERO PUSH2 0x1E38 JUMPI PUSH2 0x1E37 PUSH2 0x1788 JUMP JUMPDEST JUMPDEST PUSH2 0x1E44 DUP8 DUP3 DUP9 ADD PUSH2 0x1D9F JUMP JUMPDEST SWAP2 POP POP SWAP3 SWAP6 SWAP2 SWAP5 POP SWAP3 POP JUMP JUMPDEST PUSH1 0x0 PUSH8 0xFFFFFFFFFFFFFFFF DUP3 GT ISZERO PUSH2 0x1E6B JUMPI PUSH2 0x1E6A PUSH2 0x1CA2 JUMP JUMPDEST JUMPDEST PUSH2 0x1E74 DUP3 PUSH2 0x1934 JUMP JUMPDEST SWAP1 POP PUSH1 0x20 DUP2 ADD SWAP1 POP SWAP2 SWAP1 POP JUMP JUMPDEST PUSH1 0x0 PUSH2 0x1E94 PUSH2 0x1E8F DUP5 PUSH2 0x1E50 JUMP JUMPDEST PUSH2 0x1D02 JUMP JUMPDEST SWAP1 POP DUP3 DUP2 MSTORE PUSH1 0x20 DUP2 ADD DUP5 DUP5 DUP5 ADD GT ISZERO PUSH2 0x1EB0 JUMPI PUSH2 0x1EAF PUSH2 0x1C9D JUMP JUMPDEST JUMPDEST PUSH2 0x1EBB DUP5 DUP3 DUP6 PUSH2 0x1D4E JUMP JUMPDEST POP SWAP4 SWAP3 POP POP POP JUMP JUMPDEST PUSH1 0x0 DUP3 PUSH1 0x1F DUP4 ADD SLT PUSH2 0x1ED8 JUMPI PUSH2 0x1ED7 PUSH2 0x1C98 JUMP JUMPDEST JUMPDEST DUP2 CALLDATALOAD PUSH2 0x1EE8 DUP5 DUP3 PUSH1 0x20 DUP7 ADD PUSH2 0x1E81 JUMP JUMPDEST SWAP2 POP POP SWAP3 SWAP2 POP POP JUMP JUMPDEST PUSH2 0x1EFA DUP2 PUSH2 0x198D JUMP JUMPDEST DUP2 EQ PUSH2 0x1F05 JUMPI PUSH1 0x0 DUP1 REVERT JUMPDEST POP JUMP JUMPDEST PUSH1 0x0 DUP2 CALLDATALOAD SWAP1 POP PUSH2 0x1F17 DUP2 PUSH2 0x1EF1 JUMP JUMPDEST SWAP3 SWAP2 POP POP JUMP JUMPDEST PUSH1 0x0 DUP1 PUSH1 0x40 DUP4 DUP6 SUB SLT ISZERO PUSH2 0x1F34 JUMPI PUSH2 0x1F33 PUSH2 0x1783 JUMP JUMPDEST JUMPDEST PUSH1 0x0 DUP4 ADD CALLDATALOAD PUSH8 0xFFFFFFFFFFFFFFFF DUP2 GT ISZERO PUSH2 0x1F52 JUMPI PUSH2 0x1F51 PUSH2 0x1788 JUMP JUMPDEST JUMPDEST PUSH2 0x1F5E DUP6 DUP3 DUP7 ADD PUSH2 0x1EC3 JUMP JUMPDEST SWAP3 POP POP PUSH1 0x20 PUSH2 0x1F6F DUP6 DUP3 DUP7 ADD PUSH2 0x1F08 JUMP JUMPDEST SWAP2 POP POP SWAP3 POP SWAP3 SWAP1 POP JUMP JUMPDEST PUSH1 0x0 DUP2 MLOAD SWAP1 POP SWAP2 SWAP1 POP JUMP JUMPDEST PUSH1 0x0 DUP3 DUP3 MSTORE PUSH1 0x20 DUP3 ADD SWAP1 POP SWAP3 SWAP2 POP POP JUMP JUMPDEST PUSH1 0x0 DUP2 SWAP1 POP PUSH1 0x20 DUP3 ADD SWAP1 POP SWAP2 SWAP1 POP JUMP JUMPDEST PUSH1 0x0 DUP3 DUP3 MSTORE PUSH1 0x20 DUP3 ADD SWAP1 POP SWAP3 SWAP2 POP POP JUMP JUMPDEST PUSH1 0x0 PUSH2 0x1FC1 DUP3 PUSH2 0x18E5 JUMP JUMPDEST PUSH2 0x1FCB DUP2 DUP6 PUSH2 0x1FA5 JUMP JUMPDEST SWAP4 POP PUSH2 0x1FDB DUP2 DUP6 PUSH1 0x20 DUP7 ADD PUSH2 0x1901 JUMP JUMPDEST PUSH2 0x1FE4 DUP2 PUSH2 0x1934 JUMP JUMPDEST DUP5 ADD SWAP2 POP POP SWAP3 SWAP2 POP POP JUMP JUMPDEST PUSH1 0x0 DUP3 DUP3 MSTORE PUSH1 0x20 DUP3 ADD SWAP1 POP SWAP3 SWAP2 POP POP JUMP JUMPDEST PUSH1 0x0 PUSH2 0x200B DUP3 PUSH2 0x1A21 JUMP JUMPDEST PUSH2 0x2015 DUP2 DUP6 PUSH2 0x1FEF JUMP JUMPDEST SWAP4 POP PUSH2 0x2020 DUP4 PUSH2 0x1A3D JUMP JUMPDEST DUP1 PUSH1 0x0 JUMPDEST DUP4 DUP2 LT ISZERO PUSH2 0x2051 JUMPI DUP2 MLOAD PUSH2 0x2038 DUP9 DUP3 PUSH2 0x1A5C JUMP JUMPDEST SWAP8 POP PUSH2 0x2043 DUP4 PUSH2 0x1A74 JUMP JUMPDEST SWAP3 POP POP PUSH1 0x1 DUP2 ADD SWAP1 POP PUSH2 0x2024 JUMP JUMPDEST POP DUP6 SWAP4 POP POP POP POP SWAP3 SWAP2 POP POP JUMP JUMPDEST PUSH2 0x2067 DUP2 PUSH2 0x198D JUMP JUMPDEST DUP3 MSTORE POP POP JUMP JUMPDEST PUSH2 0x2076 DUP2 PUSH2 0x19AC JUMP JUMPDEST DUP3 MSTORE POP POP JUMP JUMPDEST PUSH1 0x0 PUSH1 0xC0 DUP4 ADD PUSH1 0x0 DUP4 ADD MLOAD DUP5 DUP3 SUB PUSH1 0x0 DUP7 ADD MSTORE PUSH2 0x2099 DUP3 DUP3 PUSH2 0x1FB6 JUMP JUMPDEST SWAP2 POP POP PUSH1 0x20 DUP4 ADD MLOAD PUSH2 0x20AE PUSH1 0x20 DUP7 ADD DUP3 PUSH2 0x1A4D JUMP JUMPDEST POP PUSH1 0x40 DUP4 ADD MLOAD DUP5 DUP3 SUB PUSH1 0x40 DUP7 ADD MSTORE PUSH2 0x20C6 DUP3 DUP3 PUSH2 0x2000 JUMP JUMPDEST SWAP2 POP POP PUSH1 0x60 DUP4 ADD MLOAD PUSH2 0x20DB PUSH1 0x60 DUP7 ADD DUP3 PUSH2 0x205E JUMP JUMPDEST POP PUSH1 0x80 DUP4 ADD MLOAD PUSH2 0x20EE PUSH1 0x80 DUP7 ADD DUP3 PUSH2 0x205E JUMP JUMPDEST POP PUSH1 0xA0 DUP4 ADD MLOAD PUSH2 0x2101 PUSH1 0xA0 DUP7 ADD DUP3 PUSH2 0x206D JUMP JUMPDEST POP DUP1 SWAP2 POP POP SWAP3 SWAP2 POP POP JUMP JUMPDEST PUSH1 0x0 PUSH2 0x2118 DUP4 DUP4 PUSH2 0x207C JUMP JUMPDEST SWAP1 POP SWAP3 SWAP2 POP POP JUMP JUMPDEST PUSH1 0x0 PUSH1 0x20 DUP3 ADD SWAP1 POP SWAP2 SWAP1 POP JUMP JUMPDEST PUSH1 0x0 PUSH2 0x2138 DUP3 PUSH2 0x1F79 JUMP JUMPDEST PUSH2 0x2142 DUP2 DUP6 PUSH2 0x1F84 JUMP JUMPDEST SWAP4 POP DUP4 PUSH1 0x20 DUP3 MUL DUP6 ADD PUSH2 0x2154 DUP6 PUSH2 0x1F95 JUMP JUMPDEST DUP1 PUSH1 0x0 JUMPDEST DUP6 DUP2 LT ISZERO PUSH2 0x2190 JUMPI DUP5 DUP5 SUB DUP10 MSTORE DUP2 MLOAD PUSH2 0x2171 DUP6 DUP3 PUSH2 0x210C JUMP JUMPDEST SWAP5 POP PUSH2 0x217C DUP4 PUSH2 0x2120 JUMP JUMPDEST SWAP3 POP PUSH1 0x20 DUP11 ADD SWAP10 POP POP PUSH1 0x1 DUP2 ADD SWAP1 POP PUSH2 0x2158 JUMP JUMPDEST POP DUP3 SWAP8 POP DUP8 SWAP6 POP POP POP POP POP POP SWAP3 SWAP2 POP POP JUMP JUMPDEST PUSH1 0x0 PUSH1 0x20 DUP3 ADD SWAP1 POP DUP2 DUP2 SUB PUSH1 0x0 DUP4 ADD MSTORE PUSH2 0x21BC DUP2 DUP5 PUSH2 0x212D JUMP JUMPDEST SWAP1 POP SWAP3 SWAP2 POP POP JUMP JUMPDEST PUSH32 0x79657420746F20637265617465206120706F6C6C000000000000000000000000 PUSH1 0x0 DUP3 ADD MSTORE POP JUMP JUMPDEST PUSH1 0x0 PUSH2 0x21FA PUSH1 0x14 DUP4 PUSH2 0x18F0 JUMP JUMPDEST SWAP2 POP PUSH2 0x2205 DUP3 PUSH2 0x21C4 JUMP JUMPDEST PUSH1 0x20 DUP3 ADD SWAP1 POP SWAP2 SWAP1 POP JUMP JUMPDEST PUSH1 0x0 PUSH1 0x20 DUP3 ADD SWAP1 POP DUP2 DUP2 SUB PUSH1 0x0 DUP4 ADD MSTORE PUSH2 0x2229 DUP2 PUSH2 0x21ED JUMP JUMPDEST SWAP1 POP SWAP2 SWAP1 POP JUMP JUMPDEST PUSH32 0x4E487B7100000000000000000000000000000000000000000000000000000000 PUSH1 0x0 MSTORE PUSH1 0x1 PUSH1 0x4 MSTORE PUSH1 0x24 PUSH1 0x0 REVERT JUMPDEST PUSH32 0x6D6178696D756D206E6F206F662063616E646964617465207065722073657373 PUSH1 0x0 DUP3 ADD MSTORE PUSH32 0x696F6E2072656769737465726564000000000000000000000000000000000000 PUSH1 0x20 DUP3 ADD MSTORE POP JUMP JUMPDEST PUSH1 0x0 PUSH2 0x22BB PUSH1 0x2E DUP4 PUSH2 0x18F0 JUMP JUMPDEST SWAP2 POP PUSH2 0x22C6 DUP3 PUSH2 0x225F JUMP JUMPDEST PUSH1 0x40 DUP3 ADD SWAP1 POP SWAP2 SWAP1 POP JUMP JUMPDEST PUSH1 0x0 PUSH1 0x20 DUP3 ADD SWAP1 POP DUP2 DUP2 SUB PUSH1 0x0 DUP4 ADD MSTORE PUSH2 0x22EA DUP2 PUSH2 0x22AE JUMP JUMPDEST SWAP1 POP SWAP2 SWAP1 POP JUMP JUMPDEST PUSH32 0x4E487B7100000000000000000000000000000000000000000000000000000000 PUSH1 0x0 MSTORE PUSH1 0x11 PUSH1 0x4 MSTORE PUSH1 0x24 PUSH1 0x0 REVERT JUMPDEST PUSH1 0x0 PUSH2 0x232B DUP3 PUSH2 0x198D JUMP JUMPDEST SWAP2 POP PUSH4 0xFFFFFFFF DUP3 EQ ISZERO PUSH2 0x2342 JUMPI PUSH2 0x2341 PUSH2 0x22F1 JUMP JUMPDEST JUMPDEST PUSH1 0x1 DUP3 ADD SWAP1 POP SWAP2 SWAP1 POP JUMP JUMPDEST PUSH1 0x0 PUSH1 0x20 DUP3 ADD SWAP1 POP PUSH2 0x2362 PUSH1 0x0 DUP4 ADD DUP5 PUSH2 0x197E JUMP JUMPDEST SWAP3 SWAP2 POP POP JUMP JUMPDEST PUSH32 0x4E487B7100000000000000000000000000000000000000000000000000000000 PUSH1 0x0 MSTORE PUSH1 0x22 PUSH1 0x4 MSTORE PUSH1 0x24 PUSH1 0x0 REVERT JUMPDEST PUSH1 0x0 PUSH1 0x2 DUP3 DIV SWAP1 POP PUSH1 0x1 DUP3 AND DUP1 PUSH2 0x23AF JUMPI PUSH1 0x7F DUP3 AND SWAP2 POP JUMPDEST PUSH1 0x20 DUP3 LT DUP2 EQ ISZERO PUSH2 0x23C3 JUMPI PUSH2 0x23C2 PUSH2 0x2368 JUMP JUMPDEST JUMPDEST POP SWAP2 SWAP1 POP JUMP JUMPDEST PUSH32 0x4E6F20706F6C6C20637265617465640000000000000000000000000000000000 PUSH1 0x0 DUP3 ADD MSTORE POP JUMP JUMPDEST PUSH1 0x0 PUSH2 0x23FF PUSH1 0xF DUP4 PUSH2 0x18F0 JUMP JUMPDEST SWAP2 POP PUSH2 0x240A DUP3 PUSH2 0x23C9 JUMP JUMPDEST PUSH1 0x20 DUP3 ADD SWAP1 POP SWAP2 SWAP1 POP JUMP JUMPDEST PUSH1 0x0 PUSH1 0x20 DUP3 ADD SWAP1 POP DUP2 DUP2 SUB PUSH1 0x0 DUP4 ADD MSTORE PUSH2 0x242E DUP2 PUSH2 0x23F2 JUMP JUMPDEST SWAP1 POP SWAP2 SWAP1 POP JUMP JUMPDEST PUSH32 0x4E487B7100000000000000000000000000000000000000000000000000000000 PUSH1 0x0 MSTORE PUSH1 0x32 PUSH1 0x4 MSTORE PUSH1 0x24 PUSH1 0x0 REVERT JUMPDEST PUSH1 0x0 PUSH2 0x246F DUP3 PUSH2 0x17EB JUMP JUMPDEST SWAP2 POP PUSH32 0xFFFFFFFFFFFFFFFFFFFFFFFFFFFFFFFFFFFFFFFFFFFFFFFFFFFFFFFFFFFFFFFF DUP3 EQ ISZERO PUSH2 0x24A2 JUMPI PUSH2 0x24A1 PUSH2 0x22F1 JUMP JUMPDEST JUMPDEST PUSH1 0x1 DUP3 ADD SWAP1 POP SWAP2 SWAP1 POP JUMP JUMPDEST PUSH1 0x0 DUP2 PUSH1 0x60 SHL SWAP1 POP SWAP2 SWAP1 POP JUMP JUMPDEST PUSH1 0x0 PUSH2 0x24C5 DUP3 PUSH2 0x24AD JUMP JUMPDEST SWAP1 POP SWAP2 SWAP1 POP JUMP JUMPDEST PUSH1 0x0 PUSH2 0x24D7 DUP3 PUSH2 0x24BA JUMP JUMPDEST SWAP1 POP SWAP2 SWAP1 POP JUMP JUMPDEST PUSH2 0x24EF PUSH2 0x24EA DUP3 PUSH2 0x17AD JUMP JUMPDEST PUSH2 0x24CC JUMP JUMPDEST DUP3 MSTORE POP POP JUMP JUMPDEST PUSH1 0x0 DUP2 SWAP1 POP SWAP3 SWAP2 POP POP JUMP JUMPDEST PUSH32 0x6D6574617472616E73616374696F6E20566F74696E6720000000000000000000 PUSH1 0x0 DUP3 ADD MSTORE POP JUMP JUMPDEST PUSH1 0x0 PUSH2 0x2536 PUSH1 0x17 DUP4 PUSH2 0x24F5 JUMP JUMPDEST SWAP2 POP PUSH2 0x2541 DUP3 PUSH2 0x2500 JUMP JUMPDEST PUSH1 0x17 DUP3 ADD SWAP1 POP SWAP2 SWAP1 POP JUMP JUMPDEST PUSH1 0x0 DUP2 SWAP1 POP SWAP2 SWAP1 POP JUMP JUMPDEST PUSH2 0x2567 PUSH2 0x2562 DUP3 PUSH2 0x17EB JUMP JUMPDEST PUSH2 0x254C JUMP JUMPDEST DUP3 MSTORE POP POP JUMP JUMPDEST PUSH1 0x0 PUSH2 0x2579 DUP3 DUP9 PUSH2 0x24DE JUMP JUMPDEST PUSH1 0x14 DUP3 ADD SWAP2 POP PUSH2 0x2588 DUP3 PUSH2 0x2529 JUMP JUMPDEST SWAP2 POP PUSH2 0x2594 DUP3 DUP8 PUSH2 0x24DE JUMP JUMPDEST PUSH1 0x14 DUP3 ADD SWAP2 POP PUSH2 0x25A4 DUP3 DUP7 PUSH2 0x2556 JUMP JUMPDEST PUSH1 0x20 DUP3 ADD SWAP2 POP PUSH2 0x25B4 DUP3 DUP6 PUSH2 0x2556 JUMP JUMPDEST PUSH1 0x20 DUP3 ADD SWAP2 POP PUSH2 0x25C4 DUP3 DUP5 PUSH2 0x2556 JUMP JUMPDEST PUSH1 0x20 DUP3 ADD SWAP2 POP DUP2 SWAP1 POP SWAP7 SWAP6 POP POP POP POP POP POP JUMP JUMPDEST PUSH32 0x54686973206164647265737320646F6573206E6F742065786973742061732061 PUSH1 0x0 DUP3 ADD MSTORE PUSH32 0x2063616E64696461746500000000000000000000000000000000000000000000 PUSH1 0x20 DUP3 ADD MSTORE POP JUMP JUMPDEST PUSH1 0x0 PUSH2 0x2633 PUSH1 0x2A DUP4 PUSH2 0x18F0 JUMP JUMPDEST SWAP2 POP PUSH2 0x263E DUP3 PUSH2 0x25D7 JUMP JUMPDEST PUSH1 0x40 DUP3 ADD SWAP1 POP SWAP2 SWAP1 POP JUMP JUMPDEST PUSH1 0x0 PUSH1 0x20 DUP3 ADD SWAP1 POP DUP2 DUP2 SUB PUSH1 0x0 DUP4 ADD MSTORE PUSH2 0x2662 DUP2 PUSH2 0x2626 JUMP JUMPDEST SWAP1 POP SWAP2 SWAP1 POP JUMP JUMPDEST PUSH32 0x766F74696E672068617320656E64656400000000000000000000000000000000 PUSH1 0x0 DUP3 ADD MSTORE POP JUMP JUMPDEST PUSH1 0x0 PUSH2 0x269F PUSH1 0x10 DUP4 PUSH2 0x18F0 JUMP JUMPDEST SWAP2 POP PUSH2 0x26AA DUP3 PUSH2 0x2669 JUMP JUMPDEST PUSH1 0x20 DUP3 ADD SWAP1 POP SWAP2 SWAP1 POP JUMP JUMPDEST PUSH1 0x0 PUSH1 0x20 DUP3 ADD SWAP1 POP DUP2 DUP2 SUB PUSH1 0x0 DUP4 ADD MSTORE PUSH2 0x26CE DUP2 PUSH2 0x2692 JUMP JUMPDEST SWAP1 POP SWAP2 SWAP1 POP JUMP JUMPDEST PUSH32 0x596F7520616C726561647920766F746564000000000000000000000000000000 PUSH1 0x0 DUP3 ADD MSTORE POP JUMP JUMPDEST PUSH1 0x0 PUSH2 0x270B PUSH1 0x11 DUP4 PUSH2 0x18F0 JUMP JUMPDEST SWAP2 POP PUSH2 0x2716 DUP3 PUSH2 0x26D5 JUMP JUMPDEST PUSH1 0x20 DUP3 ADD SWAP1 POP SWAP2 SWAP1 POP JUMP JUMPDEST PUSH1 0x0 PUSH1 0x20 DUP3 ADD SWAP1 POP DUP2 DUP2 SUB PUSH1 0x0 DUP4 ADD MSTORE PUSH2 0x273A DUP2 PUSH2 0x26FE JUMP JUMPDEST SWAP1 POP SWAP2 SWAP1 POP JUMP JUMPDEST PUSH1 0x0 PUSH1 0x40 DUP3 ADD SWAP1 POP PUSH2 0x2756 PUSH1 0x0 DUP4 ADD DUP6 PUSH2 0x197E JUMP JUMPDEST PUSH2 0x2763 PUSH1 0x20 DUP4 ADD DUP5 PUSH2 0x19B8 JUMP JUMPDEST SWAP4 SWAP3 POP POP POP JUMP JUMPDEST PUSH32 0x6E6F74207468652063686169726D616E00000000000000000000000000000000 PUSH1 0x0 DUP3 ADD MSTORE POP JUMP JUMPDEST PUSH1 0x0 PUSH2 0x27A0 PUSH1 0x10 DUP4 PUSH2 0x18F0 JUMP JUMPDEST SWAP2 POP PUSH2 0x27AB DUP3 PUSH2 0x276A JUMP JUMPDEST PUSH1 0x20 DUP3 ADD SWAP1 POP SWAP2 SWAP1 POP JUMP JUMPDEST PUSH1 0x0 PUSH1 0x20 DUP3 ADD SWAP1 POP DUP2 DUP2 SUB PUSH1 0x0 DUP4 ADD MSTORE PUSH2 0x27CF DUP2 PUSH2 0x2793 JUMP JUMPDEST SWAP1 POP SWAP2 SWAP1 POP JUMP JUMPDEST PUSH1 0x0 PUSH2 0x27E1 DUP3 PUSH2 0x18E5 JUMP JUMPDEST PUSH2 0x27EB DUP2 DUP6 PUSH2 0x24F5 JUMP JUMPDEST SWAP4 POP PUSH2 0x27FB DUP2 DUP6 PUSH1 0x20 DUP7 ADD PUSH2 0x1901 JUMP JUMPDEST DUP1 DUP5 ADD SWAP2 POP POP SWAP3 SWAP2 POP POP JUMP JUMPDEST PUSH1 0x0 PUSH2 0x2813 DUP3 DUP5 PUSH2 0x27D6 JUMP JUMPDEST SWAP2 POP DUP2 SWAP1 POP SWAP3 SWAP2 POP POP JUMP JUMPDEST PUSH1 0x0 PUSH1 0xFF DUP3 AND SWAP1 POP SWAP2 SWAP1 POP JUMP JUMPDEST PUSH1 0x0 PUSH2 0x2836 DUP3 PUSH2 0x281E JUMP JUMPDEST SWAP2 POP PUSH2 0x2841 DUP4 PUSH2 0x281E JUMP JUMPDEST SWAP3 POP DUP3 PUSH1 0xFF SUB DUP3 GT ISZERO PUSH2 0x2857 JUMPI PUSH2 0x2856 PUSH2 0x22F1 JUMP JUMPDEST JUMPDEST DUP3 DUP3 ADD SWAP1 POP SWAP3 SWAP2 POP POP JUMP JUMPDEST PUSH32 0x19457468657265756D205369676E6564204D6573736167653A0A333200000000 PUSH1 0x0 DUP3 ADD MSTORE POP JUMP JUMPDEST PUSH1 0x0 PUSH2 0x2898 PUSH1 0x1C DUP4 PUSH2 0x24F5 JUMP JUMPDEST SWAP2 POP PUSH2 0x28A3 DUP3 PUSH2 0x2862 JUMP JUMPDEST PUSH1 0x1C DUP3 ADD SWAP1 POP SWAP2 SWAP1 POP JUMP JUMPDEST PUSH1 0x0 DUP2 SWAP1 POP SWAP2 SWAP1 POP JUMP JUMPDEST PUSH2 0x28C9 PUSH2 0x28C4 DUP3 PUSH2 0x1C64 JUMP JUMPDEST PUSH2 0x28AE JUMP JUMPDEST DUP3 MSTORE POP POP JUMP JUMPDEST PUSH1 0x0 PUSH2 0x28DA DUP3 PUSH2 0x288B JUMP JUMPDEST SWAP2 POP PUSH2 0x28E6 DUP3 DUP5 PUSH2 0x28B8 JUMP JUMPDEST PUSH1 0x20 DUP3 ADD SWAP2 POP DUP2 SWAP1 POP SWAP3 SWAP2 POP POP JUMP JUMPDEST PUSH2 0x28FE DUP2 PUSH2 0x281E JUMP JUMPDEST DUP3 MSTORE POP POP JUMP JUMPDEST PUSH1 0x0 PUSH1 0x80 DUP3 ADD SWAP1 POP PUSH2 0x2919 PUSH1 0x0 DUP4 ADD DUP8 PUSH2 0x1C6E JUMP JUMPDEST PUSH2 0x2926 PUSH1 0x20 DUP4 ADD DUP7 PUSH2 0x28F5 JUMP JUMPDEST PUSH2 0x2933 PUSH1 0x40 DUP4 ADD DUP6 PUSH2 0x1C6E JUMP JUMPDEST PUSH2 0x2940 PUSH1 0x60 DUP4 ADD DUP5 PUSH2 0x1C6E JUMP JUMPDEST SWAP6 SWAP5 POP POP POP POP POP JUMP INVALID LOG2 PUSH5 0x6970667358 0x22 SLT KECCAK256 MLOAD GAS 0xD4 PUSH11 0x757A6A0E67374AE2D0E48C LOG3 CALLDATACOPY STATICCALL 0x2A 0xDA TIMESTAMP CALLER COINBASE 0xD0 PUSH4 0x5CADF71A 0xD3 0xB2 0xE9 PUSH5 0x736F6C6343 STOP ADDMOD EXP STOP CALLER "
				},
				"gasEstimates": {
					"creation": {
						"codeDepositCost": "2124600",
						"executionCost": "24364",
						"totalCost": "2148964"
					},
					"external": {
						"AddCandidate(address,uint256)": "infinite",
						"AllCandidates(uint256)": "infinite",
						"NoOfRegisteredCandidates(uint256)": "infinite",
						"VotingKey(uint256)": "infinite",
						"VotingStruct(uint256)": "infinite",
						"arrayOfStruct()": "infinite",
						"createPoll(string,uint32)": "infinite",
						"metaVotingHash(address,uint256,uint256,uint256)": "infinite",
						"replayNonce(address)": "2859",
						"revealWinner(uint256)": "infinite",
						"setVotingState(uint256)": "32566",
						"vote(address,uint256,uint256,bytes)": "infinite",
						"votingPoll(uint256)": "infinite"
					},
					"internal": {
						"countVote(address,uint256,address)": "51269",
						"getPosition(uint256,uint256)": "6717",
						"getSigner(bytes32,bytes memory)": "infinite",
						"getVotePollProps(uint256)": "infinite"
					}
				},
				"methodIdentifiers": {
					"AddCandidate(address,uint256)": "049d1c8b",
					"AllCandidates(uint256)": "8ac3c3c2",
					"NoOfRegisteredCandidates(uint256)": "66c5343b",
					"VotingKey(uint256)": "ae928e3e",
					"VotingStruct(uint256)": "8321f397",
					"arrayOfStruct()": "fa4c5173",
					"createPoll(string,uint32)": "f762f4c0",
					"metaVotingHash(address,uint256,uint256,uint256)": "bfe2e25d",
					"replayNonce(address)": "67d407df",
					"revealWinner(uint256)": "8ccb59e8",
					"setVotingState(uint256)": "c57003cc",
					"vote(address,uint256,uint256,bytes)": "c10d6cec",
					"votingPoll(uint256)": "e615f104"
				}
			},
			"storageLayout": {
				"storage": [
					{
						"astId": 4,
						"contract": "src/voting.sol:Voting",
						"label": "id",
						"offset": 0,
						"slot": "0",
						"type": "t_uint256"
					},
					{
						"astId": 21,
						"contract": "src/voting.sol:Voting",
						"label": "VotingKey",
						"offset": 0,
						"slot": "1",
						"type": "t_array(t_uint256)dyn_storage"
					},
					{
						"astId": 25,
						"contract": "src/voting.sol:Voting",
						"label": "VotingStruct",
						"offset": 0,
						"slot": "2",
						"type": "t_array(t_struct(VotingPoll)18_storage)dyn_storage"
					},
					{
						"astId": 30,
						"contract": "src/voting.sol:Voting",
						"label": "votingPoll",
						"offset": 0,
						"slot": "3",
						"type": "t_mapping(t_uint256,t_struct(VotingPoll)18_storage)"
					},
					{
						"astId": 34,
						"contract": "src/voting.sol:Voting",
						"label": "replayNonce",
						"offset": 0,
						"slot": "4",
						"type": "t_mapping(t_address,t_uint256)"
					},
					{
						"astId": 40,
						"contract": "src/voting.sol:Voting",
						"label": "CandidateStatus",
						"offset": 0,
						"slot": "5",
						"type": "t_mapping(t_uint256,t_mapping(t_address,t_bool))"
					},
					{
						"astId": 46,
						"contract": "src/voting.sol:Voting",
						"label": "CandidateVote",
						"offset": 0,
						"slot": "6",
						"type": "t_mapping(t_uint256,t_mapping(t_address,t_uint256))"
					},
					{
						"astId": 52,
						"contract": "src/voting.sol:Voting",
						"label": "hasVoted",
						"offset": 0,
						"slot": "7",
						"type": "t_mapping(t_uint256,t_mapping(t_address,t_bool))"
					}
				],
				"types": {
					"t_address": {
						"encoding": "inplace",
						"label": "address",
						"numberOfBytes": "20"
					},
					"t_array(t_address)dyn_storage": {
						"base": "t_address",
						"encoding": "dynamic_array",
						"label": "address[]",
						"numberOfBytes": "32"
					},
					"t_array(t_struct(VotingPoll)18_storage)dyn_storage": {
						"base": "t_struct(VotingPoll)18_storage",
						"encoding": "dynamic_array",
						"label": "struct Voting.VotingPoll[]",
						"numberOfBytes": "32"
					},
					"t_array(t_uint256)dyn_storage": {
						"base": "t_uint256",
						"encoding": "dynamic_array",
						"label": "uint256[]",
						"numberOfBytes": "32"
					},
					"t_bool": {
						"encoding": "inplace",
						"label": "bool",
						"numberOfBytes": "1"
					},
					"t_mapping(t_address,t_bool)": {
						"encoding": "mapping",
						"key": "t_address",
						"label": "mapping(address => bool)",
						"numberOfBytes": "32",
						"value": "t_bool"
					},
					"t_mapping(t_address,t_uint256)": {
						"encoding": "mapping",
						"key": "t_address",
						"label": "mapping(address => uint256)",
						"numberOfBytes": "32",
						"value": "t_uint256"
					},
					"t_mapping(t_uint256,t_mapping(t_address,t_bool))": {
						"encoding": "mapping",
						"key": "t_uint256",
						"label": "mapping(uint256 => mapping(address => bool))",
						"numberOfBytes": "32",
						"value": "t_mapping(t_address,t_bool)"
					},
					"t_mapping(t_uint256,t_mapping(t_address,t_uint256))": {
						"encoding": "mapping",
						"key": "t_uint256",
						"label": "mapping(uint256 => mapping(address => uint256))",
						"numberOfBytes": "32",
						"value": "t_mapping(t_address,t_uint256)"
					},
					"t_mapping(t_uint256,t_struct(VotingPoll)18_storage)": {
						"encoding": "mapping",
						"key": "t_uint256",
						"label": "mapping(uint256 => struct Voting.VotingPoll)",
						"numberOfBytes": "32",
						"value": "t_struct(VotingPoll)18_storage"
					},
					"t_string_storage": {
						"encoding": "bytes",
						"label": "string",
						"numberOfBytes": "32"
					},
					"t_struct(VotingPoll)18_storage": {
						"encoding": "inplace",
						"label": "struct Voting.VotingPoll",
						"members": [
							{
								"astId": 6,
								"contract": "src/voting.sol:Voting",
								"label": "name",
								"offset": 0,
								"slot": "0",
								"type": "t_string_storage"
							},
							{
								"astId": 8,
								"contract": "src/voting.sol:Voting",
								"label": "chairman",
								"offset": 0,
								"slot": "1",
								"type": "t_address"
							},
							{
								"astId": 11,
								"contract": "src/voting.sol:Voting",
								"label": "candidates",
								"offset": 0,
								"slot": "2",
								"type": "t_array(t_address)dyn_storage"
							},
							{
								"astId": 13,
								"contract": "src/voting.sol:Voting",
								"label": "maxNoOfCandidates",
								"offset": 0,
								"slot": "3",
								"type": "t_uint32"
							},
							{
								"astId": 15,
								"contract": "src/voting.sol:Voting",
								"label": "currentNoOfCandidates",
								"offset": 4,
								"slot": "3",
								"type": "t_uint32"
							},
							{
								"astId": 17,
								"contract": "src/voting.sol:Voting",
								"label": "voting",
								"offset": 8,
								"slot": "3",
								"type": "t_bool"
							}
						],
						"numberOfBytes": "128"
					},
					"t_uint256": {
						"encoding": "inplace",
						"label": "uint256",
						"numberOfBytes": "32"
					},
					"t_uint32": {
						"encoding": "inplace",
						"label": "uint32",
						"numberOfBytes": "4"
					}
				}
			},
			"userdoc": {
				"kind": "user",
				"methods": {},
				"version": 1
			}
		}
	}
}