{
	"src/voting.sol": {
		"Voting": {
			"abi": [
				{
					"anonymous": false,
					"inputs": [
						{
							"indexed": false,
							"internalType": "address",
							"name": "NewCandidate",
							"type": "address"
						}
					],
					"name": "becameCandidate",
					"type": "event"
				},
				{
					"anonymous": false,
					"inputs": [
						{
							"indexed": true,
							"internalType": "string",
							"name": "_name",
							"type": "string"
						},
						{
							"indexed": true,
							"internalType": "uint32",
							"name": "ExpectedNoOfCandidate",
							"type": "uint32"
						},
						{
							"indexed": true,
							"internalType": "address",
							"name": "chairman",
							"type": "address"
						}
					],
					"name": "pollCreated",
					"type": "event"
				},
				{
					"anonymous": false,
					"inputs": [
						{
							"indexed": true,
							"internalType": "bool",
							"name": "status",
							"type": "bool"
						}
					],
					"name": "voteStatus",
					"type": "event"
				},
				{
					"anonymous": false,
					"inputs": [
						{
							"indexed": false,
							"internalType": "address",
							"name": "_candidate",
							"type": "address"
						},
						{
							"indexed": false,
							"internalType": "bool",
							"name": "status",
							"type": "bool"
						}
					],
					"name": "voted",
					"type": "event"
				},
				{
					"inputs": [
						{
							"internalType": "address",
							"name": "_newCandidate",
							"type": "address"
						},
						{
							"internalType": "string",
							"name": "_name",
							"type": "string"
						}
					],
					"name": "AddCandidate",
					"outputs": [],
					"stateMutability": "nonpayable",
					"type": "function"
				},
				{
					"inputs": [
						{
							"internalType": "string",
							"name": "_name",
							"type": "string"
						}
					],
					"name": "AllCandidates",
					"outputs": [
						{
							"internalType": "address[]",
							"name": "_candidates",
							"type": "address[]"
						}
					],
					"stateMutability": "view",
					"type": "function"
				},
				{
					"inputs": [
						{
							"internalType": "string",
							"name": "_name",
							"type": "string"
						}
					],
					"name": "NoOfRegisteredCandidates",
					"outputs": [
						{
							"internalType": "uint256",
							"name": "",
							"type": "uint256"
						}
					],
					"stateMutability": "view",
					"type": "function"
				},
				{
					"inputs": [
						{
							"internalType": "uint256",
							"name": "",
							"type": "uint256"
						}
					],
					"name": "VotingKey",
					"outputs": [
						{
							"internalType": "string",
							"name": "",
							"type": "string"
						}
					],
					"stateMutability": "view",
					"type": "function"
				},
				{
					"inputs": [
						{
							"internalType": "string",
							"name": "_name",
							"type": "string"
						},
						{
							"internalType": "uint32",
							"name": "ExpectedNoOfCandidate",
							"type": "uint32"
						}
					],
					"name": "createPoll",
					"outputs": [
						{
							"internalType": "string",
							"name": "",
							"type": "string"
						},
						{
							"internalType": "uint256",
							"name": "Candidate",
							"type": "uint256"
						}
					],
					"stateMutability": "nonpayable",
					"type": "function"
				},
				{
					"inputs": [],
					"name": "getStructProps",
					"outputs": [
						{
							"components": [
								{
									"internalType": "address",
									"name": "chairman",
									"type": "address"
								},
								{
									"internalType": "address[]",
									"name": "candidates",
									"type": "address[]"
								},
								{
									"internalType": "uint32",
									"name": "maxNoOfCandidates",
									"type": "uint32"
								},
								{
									"internalType": "uint32",
									"name": "currentNoOfCandidates",
									"type": "uint32"
								},
								{
									"internalType": "bool",
									"name": "voting",
									"type": "bool"
								}
							],
							"internalType": "struct Voting.retVotingPoll[]",
							"name": "RVP",
							"type": "tuple[]"
						}
					],
					"stateMutability": "view",
					"type": "function"
				},
				{
					"inputs": [
						{
							"internalType": "address",
							"name": "Cand",
							"type": "address"
						},
						{
							"internalType": "string",
							"name": "_name",
							"type": "string"
						},
						{
							"internalType": "uint256",
							"name": "nonce",
							"type": "uint256"
						},
						{
							"internalType": "uint256",
							"name": "time",
							"type": "uint256"
						}
					],
					"name": "metaVotingHash",
					"outputs": [
						{
							"internalType": "bytes32",
							"name": "",
							"type": "bytes32"
						}
					],
					"stateMutability": "view",
					"type": "function"
				},
				{
					"inputs": [
						{
							"internalType": "address",
							"name": "",
							"type": "address"
						}
					],
					"name": "replayNonce",
					"outputs": [
						{
							"internalType": "uint256",
							"name": "",
							"type": "uint256"
						}
					],
					"stateMutability": "view",
					"type": "function"
				},
				{
					"inputs": [
						{
							"internalType": "string",
							"name": "_name",
							"type": "string"
						}
					],
					"name": "revealWinner",
					"outputs": [
						{
							"internalType": "uint256[]",
							"name": "CV",
							"type": "uint256[]"
						},
						{
							"internalType": "address",
							"name": "",
							"type": "address"
						},
						{
							"internalType": "uint256",
							"name": "",
							"type": "uint256"
						}
					],
					"stateMutability": "view",
					"type": "function"
				},
				{
					"inputs": [
						{
							"internalType": "string",
							"name": "_name",
							"type": "string"
						}
					],
					"name": "setVotingState",
					"outputs": [],
					"stateMutability": "nonpayable",
					"type": "function"
				},
				{
					"inputs": [
						{
							"internalType": "address",
							"name": "Cand",
							"type": "address"
						},
						{
							"internalType": "string",
							"name": "_name",
							"type": "string"
						},
						{
							"internalType": "uint256",
							"name": "nonce",
							"type": "uint256"
						},
						{
							"internalType": "bytes",
							"name": "signature",
							"type": "bytes"
						}
					],
					"name": "vote",
					"outputs": [],
					"stateMutability": "nonpayable",
					"type": "function"
				},
				{
					"inputs": [
						{
							"internalType": "string",
							"name": "",
							"type": "string"
						}
					],
					"name": "votingPoll",
					"outputs": [
						{
							"internalType": "address",
							"name": "chairman",
							"type": "address"
						},
						{
							"internalType": "uint32",
							"name": "maxNoOfCandidates",
							"type": "uint32"
						},
						{
							"internalType": "uint32",
							"name": "currentNoOfCandidates",
							"type": "uint32"
						},
						{
							"internalType": "bool",
							"name": "voting",
							"type": "bool"
						}
					],
					"stateMutability": "view",
					"type": "function"
				}
			],
			"devdoc": {
				"kind": "dev",
				"methods": {},
				"version": 1
			},
			"evm": {
				"assembly": "    /* \"src/voting.sol\":63:6124  contract Voting{... */\n  mstore(0x40, 0x80)\n  callvalue\n  dup1\n  iszero\n  tag_1\n  jumpi\n  0x00\n  dup1\n  revert\ntag_1:\n  pop\n  dataSize(sub_0)\n  dup1\n  dataOffset(sub_0)\n  0x00\n  codecopy\n  0x00\n  return\nstop\n\nsub_0: assembly {\n        /* \"src/voting.sol\":63:6124  contract Voting{... */\n      mstore(0x40, 0x80)\n      callvalue\n      dup1\n      iszero\n      tag_1\n      jumpi\n      0x00\n      dup1\n      revert\n    tag_1:\n      pop\n      jumpi(tag_2, lt(calldatasize, 0x04))\n      shr(0xe0, calldataload(0x00))\n      dup1\n      0x8579cacd\n      gt\n      tag_15\n      jumpi\n      dup1\n      0x8579cacd\n      eq\n      tag_9\n      jumpi\n      dup1\n      0xae928e3e\n      eq\n      tag_10\n      jumpi\n      dup1\n      0xaf7cbc0d\n      eq\n      tag_11\n      jumpi\n      dup1\n      0xf0e4de22\n      eq\n      tag_12\n      jumpi\n      dup1\n      0xf762f4c0\n      eq\n      tag_13\n      jumpi\n      dup1\n      0xf8437061\n      eq\n      tag_14\n      jumpi\n      jump(tag_2)\n    tag_15:\n      dup1\n      0x01ff993b\n      eq\n      tag_3\n      jumpi\n      dup1\n      0x12f0da4b\n      eq\n      tag_4\n      jumpi\n      dup1\n      0x4fcf1f39\n      eq\n      tag_5\n      jumpi\n      dup1\n      0x57f53967\n      eq\n      tag_6\n      jumpi\n      dup1\n      0x63ee965a\n      eq\n      tag_7\n      jumpi\n      dup1\n      0x67d407df\n      eq\n      tag_8\n      jumpi\n    tag_2:\n      0x00\n      dup1\n      revert\n        /* \"src/voting.sol\":5306:5534  function metaVotingHash(address Cand, string memory _name, uint256 nonce, uint256 time) public view returns(bytes32){... */\n    tag_3:\n      tag_16\n      0x04\n      dup1\n      calldatasize\n      sub\n      dup2\n      add\n      swap1\n      tag_17\n      swap2\n      swap1\n      tag_18\n      jump\t// in\n    tag_17:\n      tag_19\n      jump\t// in\n    tag_16:\n      mload(0x40)\n      tag_20\n      swap2\n      swap1\n      tag_21\n      jump\t// in\n    tag_20:\n      mload(0x40)\n      dup1\n      swap2\n      sub\n      swap1\n      return\n        /* \"src/voting.sol\":2660:3218  function vote(address Cand, string memory _name , uint256 nonce, bytes memory signature) external  isCandidate(Cand, _name) StillVoting(_name){... */\n    tag_4:\n      tag_22\n      0x04\n      dup1\n      calldatasize\n      sub\n      dup2\n      add\n      swap1\n      tag_23\n      swap2\n      swap1\n      tag_24\n      jump\t// in\n    tag_23:\n      tag_25\n      jump\t// in\n    tag_22:\n      stop\n        /* \"src/voting.sol\":4063:4655  function revealWinner( string memory _name) external view returns ( uint[] memory CV, address, uint){... */\n    tag_5:\n      tag_26\n      0x04\n      dup1\n      calldatasize\n      sub\n      dup2\n      add\n      swap1\n      tag_27\n      swap2\n      swap1\n      tag_28\n      jump\t// in\n    tag_27:\n      tag_29\n      jump\t// in\n    tag_26:\n      mload(0x40)\n      tag_30\n      swap4\n      swap3\n      swap2\n      swap1\n      tag_31\n      jump\t// in\n    tag_30:\n      mload(0x40)\n      dup1\n      swap2\n      sub\n      swap1\n      return\n        /* \"src/voting.sol\":2145:2657  function AddCandidate(address _newCandidate, string memory _name) external{... */\n    tag_6:\n      tag_32\n      0x04\n      dup1\n      calldatasize\n      sub\n      dup2\n      add\n      swap1\n      tag_33\n      swap2\n      swap1\n      tag_34\n      jump\t// in\n    tag_33:\n      tag_35\n      jump\t// in\n    tag_32:\n      stop\n        /* \"src/voting.sol\":803:850  mapping(string => VotingPoll) public votingPoll */\n    tag_7:\n      tag_36\n      0x04\n      dup1\n      calldatasize\n      sub\n      dup2\n      add\n      swap1\n      tag_37\n      swap2\n      swap1\n      tag_28\n      jump\t// in\n    tag_37:\n      tag_38\n      jump\t// in\n    tag_36:\n      mload(0x40)\n      tag_39\n      swap5\n      swap4\n      swap3\n      swap2\n      swap1\n      tag_40\n      jump\t// in\n    tag_39:\n      mload(0x40)\n      dup1\n      swap2\n      sub\n      swap1\n      return\n        /* \"src/voting.sol\":856:903  mapping (address => uint256) public replayNonce */\n    tag_8:\n      tag_41\n      0x04\n      dup1\n      calldatasize\n      sub\n      dup2\n      add\n      swap1\n      tag_42\n      swap2\n      swap1\n      tag_43\n      jump\t// in\n    tag_42:\n      tag_44\n      jump\t// in\n    tag_41:\n      mload(0x40)\n      tag_45\n      swap2\n      swap1\n      tag_46\n      jump\t// in\n    tag_45:\n      mload(0x40)\n      dup1\n      swap2\n      sub\n      swap1\n      return\n        /* \"src/voting.sol\":3708:3879  function NoOfRegisteredCandidates( string memory _name) public view returns(uint){... */\n    tag_9:\n      tag_47\n      0x04\n      dup1\n      calldatasize\n      sub\n      dup2\n      add\n      swap1\n      tag_48\n      swap2\n      swap1\n      tag_28\n      jump\t// in\n    tag_48:\n      tag_49\n      jump\t// in\n    tag_47:\n      mload(0x40)\n      tag_50\n      swap2\n      swap1\n      tag_46\n      jump\t// in\n    tag_50:\n      mload(0x40)\n      dup1\n      swap2\n      sub\n      swap1\n      return\n        /* \"src/voting.sol\":714:739  string[] public VotingKey */\n    tag_10:\n      tag_51\n      0x04\n      dup1\n      calldatasize\n      sub\n      dup2\n      add\n      swap1\n      tag_52\n      swap2\n      swap1\n      tag_53\n      jump\t// in\n    tag_52:\n      tag_54\n      jump\t// in\n    tag_51:\n      mload(0x40)\n      tag_55\n      swap2\n      swap1\n      tag_56\n      jump\t// in\n    tag_55:\n      mload(0x40)\n      dup1\n      swap2\n      sub\n      swap1\n      return\n        /* \"src/voting.sol\":3887:4060  function AllCandidates( string memory _name) public view returns(address[] memory _candidates){... */\n    tag_11:\n      tag_57\n      0x04\n      dup1\n      calldatasize\n      sub\n      dup2\n      add\n      swap1\n      tag_58\n      swap2\n      swap1\n      tag_28\n      jump\t// in\n    tag_58:\n      tag_59\n      jump\t// in\n    tag_57:\n      mload(0x40)\n      tag_60\n      swap2\n      swap1\n      tag_61\n      jump\t// in\n    tag_60:\n      mload(0x40)\n      dup1\n      swap2\n      sub\n      swap1\n      return\n        /* \"src/voting.sol\":3470:3705  function setVotingState( string memory _name) external {... */\n    tag_12:\n      tag_62\n      0x04\n      dup1\n      calldatasize\n      sub\n      dup2\n      add\n      swap1\n      tag_63\n      swap2\n      swap1\n      tag_28\n      jump\t// in\n    tag_63:\n      tag_64\n      jump\t// in\n    tag_62:\n      stop\n        /* \"src/voting.sol\":1759:2141  function createPoll(string memory _name, uint32 ExpectedNoOfCandidate) external returns(string memory, uint Candidate){... */\n    tag_13:\n      tag_65\n      0x04\n      dup1\n      calldatasize\n      sub\n      dup2\n      add\n      swap1\n      tag_66\n      swap2\n      swap1\n      tag_67\n      jump\t// in\n    tag_66:\n      tag_68\n      jump\t// in\n    tag_65:\n      mload(0x40)\n      tag_69\n      swap3\n      swap2\n      swap1\n      tag_70\n      jump\t// in\n    tag_69:\n      mload(0x40)\n      dup1\n      swap2\n      sub\n      swap1\n      return\n        /* \"src/voting.sol\":4847:5301  function getStructProps() external view returns(retVotingPoll[] memory RVP){... */\n    tag_14:\n      tag_71\n      tag_72\n      jump\t// in\n    tag_71:\n      mload(0x40)\n      tag_73\n      swap2\n      swap1\n      tag_74\n      jump\t// in\n    tag_73:\n      mload(0x40)\n      dup1\n      swap2\n      sub\n      swap1\n      return\n        /* \"src/voting.sol\":5306:5534  function metaVotingHash(address Cand, string memory _name, uint256 nonce, uint256 time) public view returns(bytes32){... */\n    tag_19:\n        /* \"src/voting.sol\":5414:5421  bytes32 */\n      0x00\n        /* \"src/voting.sol\":5470:5474  this */\n      address\n        /* \"src/voting.sol\":5503:5507  Cand */\n      dup6\n        /* \"src/voting.sol\":5509:5514  _name */\n      dup6\n        /* \"src/voting.sol\":5516:5521  nonce */\n      dup6\n        /* \"src/voting.sol\":5523:5527  time */\n      dup6\n        /* \"src/voting.sol\":5445:5528  abi.encodePacked(address(this),\"metatransaction Voting \", Cand, _name, nonce, time) */\n      add(0x20, mload(0x40))\n      tag_76\n      swap6\n      swap5\n      swap4\n      swap3\n      swap2\n      swap1\n      tag_77\n      jump\t// in\n    tag_76:\n      mload(0x40)\n      0x20\n      dup2\n      dup4\n      sub\n      sub\n      dup2\n      mstore\n      swap1\n      0x40\n      mstore\n        /* \"src/voting.sol\":5435:5529  keccak256(abi.encodePacked(address(this),\"metatransaction Voting \", Cand, _name, nonce, time)) */\n      dup1\n      mload\n      swap1\n      0x20\n      add\n      keccak256\n        /* \"src/voting.sol\":5428:5529  return keccak256(abi.encodePacked(address(this),\"metatransaction Voting \", Cand, _name, nonce, time)) */\n      swap1\n      pop\n        /* \"src/voting.sol\":5306:5534  function metaVotingHash(address Cand, string memory _name, uint256 nonce, uint256 time) public view returns(bytes32){... */\n      swap5\n      swap4\n      pop\n      pop\n      pop\n      pop\n      jump\t// out\n        /* \"src/voting.sol\":2660:3218  function vote(address Cand, string memory _name , uint256 nonce, bytes memory signature) external  isCandidate(Cand, _name) StillVoting(_name){... */\n    tag_25:\n        /* \"src/voting.sol\":2771:2775  Cand */\n      dup4\n        /* \"src/voting.sol\":2777:2782  _name */\n      dup4\n        /* \"src/voting.sol\":1327:1348  VotingPoll storage VP */\n      0x00\n        /* \"src/voting.sol\":1351:1361  votingPoll */\n      0x01\n        /* \"src/voting.sol\":1362:1367  _name */\n      dup3\n        /* \"src/voting.sol\":1351:1368  votingPoll[_name] */\n      mload(0x40)\n      tag_79\n      swap2\n      swap1\n      tag_80\n      jump\t// in\n    tag_79:\n      swap1\n      dup2\n      mstore\n      0x20\n      add\n      mload(0x40)\n      dup1\n      swap2\n      sub\n      swap1\n      keccak256\n        /* \"src/voting.sol\":1327:1368  VotingPoll storage VP = votingPoll[_name] */\n      swap1\n      pop\n        /* \"src/voting.sol\":1408:1412  true */\n      0x01\n        /* \"src/voting.sol\":1382:1412  VP.CandidateStatus[Cand]==true */\n      iszero\n      iszero\n        /* \"src/voting.sol\":1382:1384  VP */\n      dup2\n        /* \"src/voting.sol\":1382:1400  VP.CandidateStatus */\n      0x03\n      add\n        /* \"src/voting.sol\":1382:1406  VP.CandidateStatus[Cand] */\n      0x00\n        /* \"src/voting.sol\":1401:1405  Cand */\n      dup6\n        /* \"src/voting.sol\":1382:1406  VP.CandidateStatus[Cand] */\n      0xffffffffffffffffffffffffffffffffffffffff\n      and\n      0xffffffffffffffffffffffffffffffffffffffff\n      and\n      dup2\n      mstore\n      0x20\n      add\n      swap1\n      dup2\n      mstore\n      0x20\n      add\n      0x00\n      keccak256\n      0x00\n      swap1\n      sload\n      swap1\n      0x0100\n      exp\n      swap1\n      div\n      0xff\n      and\n        /* \"src/voting.sol\":1382:1412  VP.CandidateStatus[Cand]==true */\n      iszero\n      iszero\n      eq\n        /* \"src/voting.sol\":1374:1458  require(VP.CandidateStatus[Cand]==true,'This address does not exist as a candidate') */\n      tag_81\n      jumpi\n      mload(0x40)\n      0x08c379a000000000000000000000000000000000000000000000000000000000\n      dup2\n      mstore\n      0x04\n      add\n      tag_82\n      swap1\n      tag_83\n      jump\t// in\n    tag_82:\n      mload(0x40)\n      dup1\n      swap2\n      sub\n      swap1\n      revert\n    tag_81:\n        /* \"src/voting.sol\":2796:2801  _name */\n      dup6\n        /* \"src/voting.sol\":1519:1540  VotingPoll storage VP */\n      0x00\n        /* \"src/voting.sol\":1543:1553  votingPoll */\n      0x01\n        /* \"src/voting.sol\":1554:1559  _name */\n      dup3\n        /* \"src/voting.sol\":1543:1560  votingPoll[_name] */\n      mload(0x40)\n      tag_85\n      swap2\n      swap1\n      tag_80\n      jump\t// in\n    tag_85:\n      swap1\n      dup2\n      mstore\n      0x20\n      add\n      mload(0x40)\n      dup1\n      swap2\n      sub\n      swap1\n      keccak256\n        /* \"src/voting.sol\":1519:1560  VotingPoll storage VP = votingPoll[_name] */\n      swap1\n      pop\n        /* \"src/voting.sol\":1587:1591  true */\n      0x01\n        /* \"src/voting.sol\":1574:1591  VP.voting == true */\n      iszero\n      iszero\n        /* \"src/voting.sol\":1574:1576  VP */\n      dup2\n        /* \"src/voting.sol\":1574:1583  VP.voting */\n      0x06\n      add\n      0x00\n      swap1\n      sload\n      swap1\n      0x0100\n      exp\n      swap1\n      div\n      0xff\n      and\n        /* \"src/voting.sol\":1574:1591  VP.voting == true */\n      iszero\n      iszero\n      eq\n        /* \"src/voting.sol\":1566:1612  require(VP.voting == true, \"voting has ended\") */\n      tag_86\n      jumpi\n      mload(0x40)\n      0x08c379a000000000000000000000000000000000000000000000000000000000\n      dup2\n      mstore\n      0x04\n      add\n      tag_87\n      swap1\n      tag_88\n      jump\t// in\n    tag_87:\n      mload(0x40)\n      dup1\n      swap2\n      sub\n      swap1\n      revert\n    tag_86:\n        /* \"src/voting.sol\":2809:2825  bytes32 metaHash */\n      0x00\n        /* \"src/voting.sol\":2828:2876  metaVotingHash(Cand,_name,nonce,block.timestamp) */\n      tag_90\n        /* \"src/voting.sol\":2843:2847  Cand */\n      dup11\n        /* \"src/voting.sol\":2848:2853  _name */\n      dup11\n        /* \"src/voting.sol\":2854:2859  nonce */\n      dup11\n        /* \"src/voting.sol\":2860:2875  block.timestamp */\n      timestamp\n        /* \"src/voting.sol\":2828:2842  metaVotingHash */\n      tag_19\n        /* \"src/voting.sol\":2828:2876  metaVotingHash(Cand,_name,nonce,block.timestamp) */\n      jump\t// in\n    tag_90:\n        /* \"src/voting.sol\":2809:2876  bytes32 metaHash = metaVotingHash(Cand,_name,nonce,block.timestamp) */\n      swap1\n      pop\n        /* \"src/voting.sol\":2883:2897  address signer */\n      0x00\n        /* \"src/voting.sol\":2900:2929  getSigner(metaHash,signature) */\n      tag_91\n        /* \"src/voting.sol\":2910:2918  metaHash */\n      dup3\n        /* \"src/voting.sol\":2919:2928  signature */\n      dup10\n        /* \"src/voting.sol\":2900:2909  getSigner */\n      tag_92\n        /* \"src/voting.sol\":2900:2929  getSigner(metaHash,signature) */\n      jump\t// in\n    tag_91:\n        /* \"src/voting.sol\":2883:2929  address signer = getSigner(metaHash,signature) */\n      swap1\n      pop\n        /* \"src/voting.sol\":2960:2961  0 */\n      0x00\n        /* \"src/voting.sol\":2944:2962  signer!=address(0) */\n      0xffffffffffffffffffffffffffffffffffffffff\n      and\n        /* \"src/voting.sol\":2944:2950  signer */\n      dup2\n        /* \"src/voting.sol\":2944:2962  signer!=address(0) */\n      0xffffffffffffffffffffffffffffffffffffffff\n      and\n      eq\n      iszero\n        /* \"src/voting.sol\":2936:2963  require(signer!=address(0)) */\n      tag_93\n      jumpi\n      0x00\n      dup1\n      revert\n    tag_93:\n        /* \"src/voting.sol\":2986:2997  replayNonce */\n      0x02\n        /* \"src/voting.sol\":2986:3005  replayNonce[signer] */\n      0x00\n        /* \"src/voting.sol\":2998:3004  signer */\n      dup3\n        /* \"src/voting.sol\":2986:3005  replayNonce[signer] */\n      0xffffffffffffffffffffffffffffffffffffffff\n      and\n      0xffffffffffffffffffffffffffffffffffffffff\n      and\n      dup2\n      mstore\n      0x20\n      add\n      swap1\n      dup2\n      mstore\n      0x20\n      add\n      0x00\n      keccak256\n      sload\n        /* \"src/voting.sol\":2977:2982  nonce */\n      dup10\n        /* \"src/voting.sol\":2977:3005  nonce == replayNonce[signer] */\n      eq\n        /* \"src/voting.sol\":2969:3006  require(nonce == replayNonce[signer]) */\n      tag_94\n      jumpi\n      0x00\n      dup1\n      revert\n    tag_94:\n        /* \"src/voting.sol\":3012:3023  replayNonce */\n      0x02\n        /* \"src/voting.sol\":3012:3031  replayNonce[signer] */\n      0x00\n        /* \"src/voting.sol\":3024:3030  signer */\n      dup3\n        /* \"src/voting.sol\":3012:3031  replayNonce[signer] */\n      0xffffffffffffffffffffffffffffffffffffffff\n      and\n      0xffffffffffffffffffffffffffffffffffffffff\n      and\n      dup2\n      mstore\n      0x20\n      add\n      swap1\n      dup2\n      mstore\n      0x20\n      add\n      0x00\n      keccak256\n      0x00\n        /* \"src/voting.sol\":3012:3033  replayNonce[signer]++ */\n      dup2\n      sload\n      dup1\n      swap3\n      swap2\n      swap1\n      tag_95\n      swap1\n      tag_96\n      jump\t// in\n    tag_95:\n      swap2\n      swap1\n      pop\n      sstore\n      pop\n        /* \"src/voting.sol\":3040:3061  VotingPoll storage VP */\n      0x00\n        /* \"src/voting.sol\":3064:3074  votingPoll */\n      0x01\n        /* \"src/voting.sol\":3075:3080  _name */\n      dup12\n        /* \"src/voting.sol\":3064:3081  votingPoll[_name] */\n      mload(0x40)\n      tag_97\n      swap2\n      swap1\n      tag_80\n      jump\t// in\n    tag_97:\n      swap1\n      dup2\n      mstore\n      0x20\n      add\n      mload(0x40)\n      dup1\n      swap2\n      sub\n      swap1\n      keccak256\n        /* \"src/voting.sol\":3040:3081  VotingPoll storage VP = votingPoll[_name] */\n      swap1\n      pop\n        /* \"src/voting.sol\":3119:3124  false */\n      0x00\n        /* \"src/voting.sol\":3096:3124  VP.hasVoted[signer] == false */\n      iszero\n      iszero\n        /* \"src/voting.sol\":3096:3098  VP */\n      dup2\n        /* \"src/voting.sol\":3096:3107  VP.hasVoted */\n      0x04\n      add\n        /* \"src/voting.sol\":3096:3115  VP.hasVoted[signer] */\n      0x00\n        /* \"src/voting.sol\":3108:3114  signer */\n      dup5\n        /* \"src/voting.sol\":3096:3115  VP.hasVoted[signer] */\n      0xffffffffffffffffffffffffffffffffffffffff\n      and\n      0xffffffffffffffffffffffffffffffffffffffff\n      and\n      dup2\n      mstore\n      0x20\n      add\n      swap1\n      dup2\n      mstore\n      0x20\n      add\n      0x00\n      keccak256\n      0x00\n      swap1\n      sload\n      swap1\n      0x0100\n      exp\n      swap1\n      div\n      0xff\n      and\n        /* \"src/voting.sol\":3096:3124  VP.hasVoted[signer] == false */\n      iszero\n      iszero\n      eq\n        /* \"src/voting.sol\":3088:3146  require(VP.hasVoted[signer] == false, \"You already voted\") */\n      tag_98\n      jumpi\n      mload(0x40)\n      0x08c379a000000000000000000000000000000000000000000000000000000000\n      dup2\n      mstore\n      0x04\n      add\n      tag_99\n      swap1\n      tag_100\n      jump\t// in\n    tag_99:\n      mload(0x40)\n      dup1\n      swap2\n      sub\n      swap1\n      revert\n    tag_98:\n        /* \"src/voting.sol\":3154:3184  countVote(Cand, _name, signer) */\n      tag_101\n        /* \"src/voting.sol\":3164:3168  Cand */\n      dup13\n        /* \"src/voting.sol\":3170:3175  _name */\n      dup13\n        /* \"src/voting.sol\":3177:3183  signer */\n      dup5\n        /* \"src/voting.sol\":3154:3163  countVote */\n      tag_102\n        /* \"src/voting.sol\":3154:3184  countVote(Cand, _name, signer) */\n      jump\t// in\n    tag_101:\n      pop\n        /* \"src/voting.sol\":3196:3213  voted(Cand, true) */\n      0xf3f16a15f074b71c5138107dfc7c63b80524d5411cb967caa97d8d9f12b2fd6b\n        /* \"src/voting.sol\":3202:3206  Cand */\n      dup13\n        /* \"src/voting.sol\":3208:3212  true */\n      0x01\n        /* \"src/voting.sol\":3196:3213  voted(Cand, true) */\n      mload(0x40)\n      tag_103\n      swap3\n      swap2\n      swap1\n      tag_104\n      jump\t// in\n    tag_103:\n      mload(0x40)\n      dup1\n      swap2\n      sub\n      swap1\n      log1\n        /* \"src/voting.sol\":2802:3218  {... */\n      pop\n      pop\n      pop\n        /* \"src/voting.sol\":1513:1623  {... */\n      pop\n        /* \"src/voting.sol\":1464:1465  _ */\n      pop\n        /* \"src/voting.sol\":1321:1468  {... */\n      pop\n        /* \"src/voting.sol\":2660:3218  function vote(address Cand, string memory _name , uint256 nonce, bytes memory signature) external  isCandidate(Cand, _name) StillVoting(_name){... */\n      pop\n      pop\n      pop\n      pop\n      pop\n      pop\n      jump\t// out\n        /* \"src/voting.sol\":4063:4655  function revealWinner( string memory _name) external view returns ( uint[] memory CV, address, uint){... */\n    tag_29:\n        /* \"src/voting.sol\":4131:4147  uint[] memory CV */\n      0x60\n        /* \"src/voting.sol\":4149:4156  address */\n      0x00\n        /* \"src/voting.sol\":4158:4162  uint */\n      dup1\n        /* \"src/voting.sol\":4170:4191  VotingPoll storage VP */\n      0x00\n        /* \"src/voting.sol\":4194:4204  votingPoll */\n      0x01\n        /* \"src/voting.sol\":4205:4210  _name */\n      dup6\n        /* \"src/voting.sol\":4194:4211  votingPoll[_name] */\n      mload(0x40)\n      tag_106\n      swap2\n      swap1\n      tag_80\n      jump\t// in\n    tag_106:\n      swap1\n      dup2\n      mstore\n      0x20\n      add\n      mload(0x40)\n      dup1\n      swap2\n      sub\n      swap1\n      keccak256\n        /* \"src/voting.sol\":4170:4211  VotingPoll storage VP = votingPoll[_name] */\n      swap1\n      pop\n        /* \"src/voting.sol\":4249:4250  0 */\n      0x00\n        /* \"src/voting.sol\":4226:4251  VP.chairman != address(0) */\n      0xffffffffffffffffffffffffffffffffffffffff\n      and\n        /* \"src/voting.sol\":4226:4228  VP */\n      dup2\n        /* \"src/voting.sol\":4226:4237  VP.chairman */\n      0x00\n      add\n      0x00\n      swap1\n      sload\n      swap1\n      0x0100\n      exp\n      swap1\n      div\n      0xffffffffffffffffffffffffffffffffffffffff\n      and\n        /* \"src/voting.sol\":4226:4251  VP.chairman != address(0) */\n      0xffffffffffffffffffffffffffffffffffffffff\n      and\n      eq\n      iszero\n        /* \"src/voting.sol\":4218:4271  require(VP.chairman != address(0), \"No poll created\") */\n      tag_107\n      jumpi\n      mload(0x40)\n      0x08c379a000000000000000000000000000000000000000000000000000000000\n      dup2\n      mstore\n      0x04\n      add\n      tag_108\n      swap1\n      tag_109\n      jump\t// in\n    tag_108:\n      mload(0x40)\n      dup1\n      swap2\n      sub\n      swap1\n      revert\n    tag_107:\n        /* \"src/voting.sol\":4294:4296  VP */\n      dup1\n        /* \"src/voting.sol\":4294:4307  VP.candidates */\n      0x01\n      add\n        /* \"src/voting.sol\":4294:4314  VP.candidates.length */\n      dup1\n      sload\n      swap1\n      pop\n        /* \"src/voting.sol\":4283:4315  new uint[](VP.candidates.length) */\n      0xffffffffffffffff\n      dup2\n      gt\n      iszero\n      tag_110\n      jumpi\n      tag_111\n      tag_112\n      jump\t// in\n    tag_111:\n    tag_110:\n      mload(0x40)\n      swap1\n      dup1\n      dup3\n      mstore\n      dup1\n      0x20\n      mul\n      0x20\n      add\n      dup3\n      add\n      0x40\n      mstore\n      dup1\n      iszero\n      tag_113\n      jumpi\n      dup2\n      0x20\n      add\n      0x20\n      dup3\n      mul\n      dup1\n      calldatasize\n      dup4\n      calldatacopy\n      dup1\n      dup3\n      add\n      swap2\n      pop\n      pop\n      swap1\n      pop\n    tag_113:\n      pop\n        /* \"src/voting.sol\":4278:4315  CV = new uint[](VP.candidates.length) */\n      swap4\n      pop\n        /* \"src/voting.sol\":4322:4338  uint highestVote */\n      0x00\n        /* \"src/voting.sol\":4345:4359  address winner */\n      dup1\n        /* \"src/voting.sol\":4371:4377  uint i */\n      0x00\n        /* \"src/voting.sol\":4366:4613  for (uint i =0; i <= VP.candidates.length; i++){... */\n    tag_114:\n        /* \"src/voting.sol\":4387:4389  VP */\n      dup4\n        /* \"src/voting.sol\":4387:4400  VP.candidates */\n      0x01\n      add\n        /* \"src/voting.sol\":4387:4407  VP.candidates.length */\n      dup1\n      sload\n      swap1\n      pop\n        /* \"src/voting.sol\":4382:4383  i */\n      dup2\n        /* \"src/voting.sol\":4382:4407  i <= VP.candidates.length */\n      gt\n        /* \"src/voting.sol\":4366:4613  for (uint i =0; i <= VP.candidates.length; i++){... */\n      tag_115\n      jumpi\n        /* \"src/voting.sol\":4422:4430  uint val */\n      0x00\n        /* \"src/voting.sol\":4433:4453  getPosition(_name,i) */\n      tag_117\n        /* \"src/voting.sol\":4445:4450  _name */\n      dup10\n        /* \"src/voting.sol\":4451:4452  i */\n      dup4\n        /* \"src/voting.sol\":4433:4444  getPosition */\n      tag_118\n        /* \"src/voting.sol\":4433:4453  getPosition(_name,i) */\n      jump\t// in\n    tag_117:\n        /* \"src/voting.sol\":4422:4453  uint val = getPosition(_name,i) */\n      swap1\n      pop\n        /* \"src/voting.sol\":4469:4480  highestVote */\n      dup4\n        /* \"src/voting.sol\":4463:4466  val */\n      dup2\n        /* \"src/voting.sol\":4463:4480  val > highestVote */\n      gt\n        /* \"src/voting.sol\":4460:4554  if(val > highestVote){... */\n      iszero\n      tag_119\n      jumpi\n        /* \"src/voting.sol\":4506:4509  val */\n      dup1\n        /* \"src/voting.sol\":4492:4509  highestVote = val */\n      swap4\n      pop\n        /* \"src/voting.sol\":4530:4532  VP */\n      dup5\n        /* \"src/voting.sol\":4530:4543  VP.candidates */\n      0x01\n      add\n        /* \"src/voting.sol\":4544:4545  i */\n      dup3\n        /* \"src/voting.sol\":4530:4546  VP.candidates[i] */\n      dup2\n      sload\n      dup2\n      lt\n      tag_120\n      jumpi\n      tag_121\n      tag_122\n      jump\t// in\n    tag_121:\n    tag_120:\n      swap1\n      0x00\n      mstore\n      keccak256(0x00, 0x20)\n      add\n      0x00\n      swap1\n      sload\n      swap1\n      0x0100\n      exp\n      swap1\n      div\n      0xffffffffffffffffffffffffffffffffffffffff\n      and\n        /* \"src/voting.sol\":4521:4546  winner = VP.candidates[i] */\n      swap3\n      pop\n        /* \"src/voting.sol\":4460:4554  if(val > highestVote){... */\n    tag_119:\n        /* \"src/voting.sol\":4569:4571  VP */\n      dup5\n        /* \"src/voting.sol\":4569:4585  VP.CandidateVote */\n      0x05\n      add\n        /* \"src/voting.sol\":4569:4603  VP.CandidateVote[VP.candidates[i]] */\n      0x00\n        /* \"src/voting.sol\":4586:4588  VP */\n      dup7\n        /* \"src/voting.sol\":4586:4599  VP.candidates */\n      0x01\n      add\n        /* \"src/voting.sol\":4600:4601  i */\n      dup5\n        /* \"src/voting.sol\":4586:4602  VP.candidates[i] */\n      dup2\n      sload\n      dup2\n      lt\n      tag_124\n      jumpi\n      tag_125\n      tag_122\n      jump\t// in\n    tag_125:\n    tag_124:\n      swap1\n      0x00\n      mstore\n      keccak256(0x00, 0x20)\n      add\n      0x00\n      swap1\n      sload\n      swap1\n      0x0100\n      exp\n      swap1\n      div\n      0xffffffffffffffffffffffffffffffffffffffff\n      and\n        /* \"src/voting.sol\":4569:4603  VP.CandidateVote[VP.candidates[i]] */\n      0xffffffffffffffffffffffffffffffffffffffff\n      and\n      0xffffffffffffffffffffffffffffffffffffffff\n      and\n      dup2\n      mstore\n      0x20\n      add\n      swap1\n      dup2\n      mstore\n      0x20\n      add\n      0x00\n      keccak256\n      sload\n        /* \"src/voting.sol\":4560:4562  CV */\n      dup9\n        /* \"src/voting.sol\":4563:4564  i */\n      dup4\n        /* \"src/voting.sol\":4560:4565  CV[i] */\n      dup2\n      mload\n      dup2\n      lt\n      tag_127\n      jumpi\n      tag_128\n      tag_122\n      jump\t// in\n    tag_128:\n    tag_127:\n      0x20\n      mul\n      0x20\n      add\n      add\n        /* \"src/voting.sol\":4560:4604  CV[i] = (VP.CandidateVote[VP.candidates[i]]) */\n      dup2\n      dup2\n      mstore\n      pop\n      pop\n        /* \"src/voting.sol\":4413:4613  {... */\n      pop\n        /* \"src/voting.sol\":4409:4412  i++ */\n      dup1\n      dup1\n      tag_129\n      swap1\n      tag_96\n      jump\t// in\n    tag_129:\n      swap2\n      pop\n      pop\n        /* \"src/voting.sol\":4366:4613  for (uint i =0; i <= VP.candidates.length; i++){... */\n      jump(tag_114)\n    tag_115:\n      pop\n        /* \"src/voting.sol\":4627:4629  CV */\n      dup6\n        /* \"src/voting.sol\":4631:4637  winner */\n      dup2\n        /* \"src/voting.sol\":4639:4650  highestVote */\n      dup4\n        /* \"src/voting.sol\":4619:4651  return (CV, winner, highestVote) */\n      swap6\n      pop\n      swap6\n      pop\n      swap6\n      pop\n      pop\n      pop\n      pop\n        /* \"src/voting.sol\":4063:4655  function revealWinner( string memory _name) external view returns ( uint[] memory CV, address, uint){... */\n      swap2\n      swap4\n      swap1\n      swap3\n      pop\n      jump\t// out\n        /* \"src/voting.sol\":2145:2657  function AddCandidate(address _newCandidate, string memory _name) external{... */\n    tag_35:\n        /* \"src/voting.sol\":2226:2247  VotingPoll storage VP */\n      0x00\n        /* \"src/voting.sol\":2250:2260  votingPoll */\n      0x01\n        /* \"src/voting.sol\":2261:2266  _name */\n      dup3\n        /* \"src/voting.sol\":2250:2267  votingPoll[_name] */\n      mload(0x40)\n      tag_131\n      swap2\n      swap1\n      tag_80\n      jump\t// in\n    tag_131:\n      swap1\n      dup2\n      mstore\n      0x20\n      add\n      mload(0x40)\n      dup1\n      swap2\n      sub\n      swap1\n      keccak256\n        /* \"src/voting.sol\":2226:2267  VotingPoll storage VP = votingPoll[_name] */\n      swap1\n      pop\n        /* \"src/voting.sol\":2306:2307  0 */\n      0x00\n        /* \"src/voting.sol\":2283:2308  VP.chairman != address(0) */\n      0xffffffffffffffffffffffffffffffffffffffff\n      and\n        /* \"src/voting.sol\":2283:2285  VP */\n      dup2\n        /* \"src/voting.sol\":2283:2294  VP.chairman */\n      0x00\n      add\n      0x00\n      swap1\n      sload\n      swap1\n      0x0100\n      exp\n      swap1\n      div\n      0xffffffffffffffffffffffffffffffffffffffff\n      and\n        /* \"src/voting.sol\":2283:2308  VP.chairman != address(0) */\n      0xffffffffffffffffffffffffffffffffffffffff\n      and\n      eq\n      iszero\n        /* \"src/voting.sol\":2274:2334  require (VP.chairman != address(0) , \"yet to create a poll\") */\n      tag_132\n      jumpi\n      mload(0x40)\n      0x08c379a000000000000000000000000000000000000000000000000000000000\n      dup2\n      mstore\n      0x04\n      add\n      tag_133\n      swap1\n      tag_134\n      jump\t// in\n    tag_133:\n      mload(0x40)\n      dup1\n      swap2\n      sub\n      swap1\n      revert\n    tag_132:\n        /* \"src/voting.sol\":2365:2375  msg.sender */\n      caller\n        /* \"src/voting.sol\":2350:2375  VP.chairman == msg.sender */\n      0xffffffffffffffffffffffffffffffffffffffff\n      and\n        /* \"src/voting.sol\":2350:2352  VP */\n      dup2\n        /* \"src/voting.sol\":2350:2361  VP.chairman */\n      0x00\n      add\n      0x00\n      swap1\n      sload\n      swap1\n      0x0100\n      exp\n      swap1\n      div\n      0xffffffffffffffffffffffffffffffffffffffff\n      and\n        /* \"src/voting.sol\":2350:2375  VP.chairman == msg.sender */\n      0xffffffffffffffffffffffffffffffffffffffff\n      and\n      eq\n        /* \"src/voting.sol\":2343:2376  assert(VP.chairman == msg.sender) */\n      tag_135\n      jumpi\n      tag_136\n      tag_137\n      jump\t// in\n    tag_136:\n    tag_135:\n        /* \"src/voting.sol\":2418:2420  VP */\n      dup1\n        /* \"src/voting.sol\":2418:2438  VP.maxNoOfCandidates */\n      0x02\n      add\n      0x00\n      swap1\n      sload\n      swap1\n      0x0100\n      exp\n      swap1\n      div\n      0xffffffff\n      and\n        /* \"src/voting.sol\":2391:2438  VP.currentNoOfCandidates < VP.maxNoOfCandidates */\n      0xffffffff\n      and\n        /* \"src/voting.sol\":2391:2393  VP */\n      dup2\n        /* \"src/voting.sol\":2391:2415  VP.currentNoOfCandidates */\n      0x02\n      add\n      0x04\n      swap1\n      sload\n      swap1\n      0x0100\n      exp\n      swap1\n      div\n      0xffffffff\n      and\n        /* \"src/voting.sol\":2391:2438  VP.currentNoOfCandidates < VP.maxNoOfCandidates */\n      0xffffffff\n      and\n      lt\n        /* \"src/voting.sol\":2383:2489  require(VP.currentNoOfCandidates < VP.maxNoOfCandidates, \"maximum no of candidate per session registered\") */\n      tag_138\n      jumpi\n      mload(0x40)\n      0x08c379a000000000000000000000000000000000000000000000000000000000\n      dup2\n      mstore\n      0x04\n      add\n      tag_139\n      swap1\n      tag_140\n      jump\t// in\n    tag_139:\n      mload(0x40)\n      dup1\n      swap2\n      sub\n      swap1\n      revert\n    tag_138:\n        /* \"src/voting.sol\":2532:2536  true */\n      0x01\n        /* \"src/voting.sol\":2496:2498  VP */\n      dup2\n        /* \"src/voting.sol\":2496:2514  VP.CandidateStatus */\n      0x03\n      add\n        /* \"src/voting.sol\":2496:2529  VP.CandidateStatus[_newCandidate] */\n      0x00\n        /* \"src/voting.sol\":2515:2528  _newCandidate */\n      dup6\n        /* \"src/voting.sol\":2496:2529  VP.CandidateStatus[_newCandidate] */\n      0xffffffffffffffffffffffffffffffffffffffff\n      and\n      0xffffffffffffffffffffffffffffffffffffffff\n      and\n      dup2\n      mstore\n      0x20\n      add\n      swap1\n      dup2\n      mstore\n      0x20\n      add\n      0x00\n      keccak256\n      0x00\n        /* \"src/voting.sol\":2496:2536  VP.CandidateStatus[_newCandidate] = true */\n      0x0100\n      exp\n      dup2\n      sload\n      dup2\n      0xff\n      mul\n      not\n      and\n      swap1\n      dup4\n      iszero\n      iszero\n      mul\n      or\n      swap1\n      sstore\n      pop\n        /* \"src/voting.sol\":2544:2546  VP */\n      dup1\n        /* \"src/voting.sol\":2544:2557  VP.candidates */\n      0x01\n      add\n        /* \"src/voting.sol\":2563:2576  _newCandidate */\n      dup4\n        /* \"src/voting.sol\":2544:2577  VP.candidates.push(_newCandidate) */\n      swap1\n      dup1\n      0x01\n      dup2\n      sload\n      add\n      dup1\n      dup3\n      sstore\n      dup1\n      swap2\n      pop\n      pop\n      0x01\n      swap1\n      sub\n      swap1\n      0x00\n      mstore\n      keccak256(0x00, 0x20)\n      add\n      0x00\n      swap1\n      swap2\n      swap1\n      swap2\n      swap1\n      swap2\n      0x0100\n      exp\n      dup2\n      sload\n      dup2\n      0xffffffffffffffffffffffffffffffffffffffff\n      mul\n      not\n      and\n      swap1\n      dup4\n      0xffffffffffffffffffffffffffffffffffffffff\n      and\n      mul\n      or\n      swap1\n      sstore\n      pop\n        /* \"src/voting.sol\":2585:2587  VP */\n      dup1\n        /* \"src/voting.sol\":2585:2609  VP.currentNoOfCandidates */\n      0x02\n      add\n      0x04\n        /* \"src/voting.sol\":2585:2611  VP.currentNoOfCandidates++ */\n      dup2\n      dup2\n      swap1\n      sload\n      swap1\n      0x0100\n      exp\n      swap1\n      div\n      0xffffffff\n      and\n      dup1\n      swap3\n      swap2\n      swap1\n      tag_142\n      swap1\n      tag_143\n      jump\t// in\n    tag_142:\n      swap2\n      swap1\n      0x0100\n      exp\n      dup2\n      sload\n      dup2\n      0xffffffff\n      mul\n      not\n      and\n      swap1\n      dup4\n      0xffffffff\n      and\n      mul\n      or\n      swap1\n      sstore\n      pop\n      pop\n        /* \"src/voting.sol\":2623:2653  becameCandidate(_newCandidate) */\n      0xc19c59aa93348e8fc54764bc642eca975e2639f44cc683ef8f027e1529cbda32\n        /* \"src/voting.sol\":2639:2652  _newCandidate */\n      dup4\n        /* \"src/voting.sol\":2623:2653  becameCandidate(_newCandidate) */\n      mload(0x40)\n      tag_144\n      swap2\n      swap1\n      tag_145\n      jump\t// in\n    tag_144:\n      mload(0x40)\n      dup1\n      swap2\n      sub\n      swap1\n      log1\n        /* \"src/voting.sol\":2219:2657  {... */\n      pop\n        /* \"src/voting.sol\":2145:2657  function AddCandidate(address _newCandidate, string memory _name) external{... */\n      pop\n      pop\n      jump\t// out\n        /* \"src/voting.sol\":803:850  mapping(string => VotingPoll) public votingPoll */\n    tag_38:\n      0x01\n      dup2\n      dup1\n      mload\n      0x20\n      dup2\n      add\n      dup3\n      add\n      dup1\n      mload\n      dup5\n      dup3\n      mstore\n      0x20\n      dup4\n      add\n      0x20\n      dup6\n      add\n      keccak256\n      dup2\n      dup4\n      mstore\n      dup1\n      swap6\n      pop\n      pop\n      pop\n      pop\n      pop\n      pop\n      0x00\n      swap2\n      pop\n      swap1\n      pop\n      dup1\n      0x00\n      add\n      0x00\n      swap1\n      sload\n      swap1\n      0x0100\n      exp\n      swap1\n      div\n      0xffffffffffffffffffffffffffffffffffffffff\n      and\n      swap1\n      dup1\n      0x02\n      add\n      0x00\n      swap1\n      sload\n      swap1\n      0x0100\n      exp\n      swap1\n      div\n      0xffffffff\n      and\n      swap1\n      dup1\n      0x02\n      add\n      0x04\n      swap1\n      sload\n      swap1\n      0x0100\n      exp\n      swap1\n      div\n      0xffffffff\n      and\n      swap1\n      dup1\n      0x06\n      add\n      0x00\n      swap1\n      sload\n      swap1\n      0x0100\n      exp\n      swap1\n      div\n      0xff\n      and\n      swap1\n      pop\n      dup5\n      jump\t// out\n        /* \"src/voting.sol\":856:903  mapping (address => uint256) public replayNonce */\n    tag_44:\n      mstore(0x20, 0x02)\n      dup1\n      0x00\n      mstore\n      keccak256(0x00, 0x40)\n      0x00\n      swap2\n      pop\n      swap1\n      pop\n      sload\n      dup2\n      jump\t// out\n        /* \"src/voting.sol\":3708:3879  function NoOfRegisteredCandidates( string memory _name) public view returns(uint){... */\n    tag_49:\n        /* \"src/voting.sol\":3784:3788  uint */\n      0x00\n        /* \"src/voting.sol\":3796:3817  VotingPoll storage VP */\n      dup1\n        /* \"src/voting.sol\":3820:3830  votingPoll */\n      0x01\n        /* \"src/voting.sol\":3831:3836  _name */\n      dup4\n        /* \"src/voting.sol\":3820:3837  votingPoll[_name] */\n      mload(0x40)\n      tag_147\n      swap2\n      swap1\n      tag_80\n      jump\t// in\n    tag_147:\n      swap1\n      dup2\n      mstore\n      0x20\n      add\n      mload(0x40)\n      dup1\n      swap2\n      sub\n      swap1\n      keccak256\n        /* \"src/voting.sol\":3796:3837  VotingPoll storage VP = votingPoll[_name] */\n      swap1\n      pop\n        /* \"src/voting.sol\":3851:3853  VP */\n      dup1\n        /* \"src/voting.sol\":3851:3875  VP.currentNoOfCandidates */\n      0x02\n      add\n      0x04\n      swap1\n      sload\n      swap1\n      0x0100\n      exp\n      swap1\n      div\n      0xffffffff\n      and\n        /* \"src/voting.sol\":3844:3875  return VP.currentNoOfCandidates */\n      0xffffffff\n      and\n      swap2\n      pop\n      pop\n        /* \"src/voting.sol\":3708:3879  function NoOfRegisteredCandidates( string memory _name) public view returns(uint){... */\n      swap2\n      swap1\n      pop\n      jump\t// out\n        /* \"src/voting.sol\":714:739  string[] public VotingKey */\n    tag_54:\n      0x00\n      dup2\n      dup2\n      sload\n      dup2\n      lt\n      tag_148\n      jumpi\n      0x00\n      dup1\n      revert\n    tag_148:\n      swap1\n      0x00\n      mstore\n      keccak256(0x00, 0x20)\n      add\n      0x00\n      swap2\n      pop\n      swap1\n      pop\n      dup1\n      sload\n      tag_150\n      swap1\n      tag_151\n      jump\t// in\n    tag_150:\n      dup1\n      0x1f\n      add\n      0x20\n      dup1\n      swap2\n      div\n      mul\n      0x20\n      add\n      mload(0x40)\n      swap1\n      dup2\n      add\n      0x40\n      mstore\n      dup1\n      swap3\n      swap2\n      swap1\n      dup2\n      dup2\n      mstore\n      0x20\n      add\n      dup3\n      dup1\n      sload\n      tag_152\n      swap1\n      tag_151\n      jump\t// in\n    tag_152:\n      dup1\n      iszero\n      tag_153\n      jumpi\n      dup1\n      0x1f\n      lt\n      tag_154\n      jumpi\n      0x0100\n      dup1\n      dup4\n      sload\n      div\n      mul\n      dup4\n      mstore\n      swap2\n      0x20\n      add\n      swap2\n      jump(tag_153)\n    tag_154:\n      dup3\n      add\n      swap2\n      swap1\n      0x00\n      mstore\n      keccak256(0x00, 0x20)\n      swap1\n    tag_155:\n      dup2\n      sload\n      dup2\n      mstore\n      swap1\n      0x01\n      add\n      swap1\n      0x20\n      add\n      dup1\n      dup4\n      gt\n      tag_155\n      jumpi\n      dup3\n      swap1\n      sub\n      0x1f\n      and\n      dup3\n      add\n      swap2\n    tag_153:\n      pop\n      pop\n      pop\n      pop\n      pop\n      dup2\n      jump\t// out\n        /* \"src/voting.sol\":3887:4060  function AllCandidates( string memory _name) public view returns(address[] memory _candidates){... */\n    tag_59:\n        /* \"src/voting.sol\":3952:3980  address[] memory _candidates */\n      0x60\n        /* \"src/voting.sol\":3988:4009  VotingPoll storage VP */\n      0x00\n        /* \"src/voting.sol\":4012:4022  votingPoll */\n      0x01\n        /* \"src/voting.sol\":4023:4028  _name */\n      dup4\n        /* \"src/voting.sol\":4012:4029  votingPoll[_name] */\n      mload(0x40)\n      tag_157\n      swap2\n      swap1\n      tag_80\n      jump\t// in\n    tag_157:\n      swap1\n      dup2\n      mstore\n      0x20\n      add\n      mload(0x40)\n      dup1\n      swap2\n      sub\n      swap1\n      keccak256\n        /* \"src/voting.sol\":3988:4029  VotingPoll storage VP = votingPoll[_name] */\n      swap1\n      pop\n        /* \"src/voting.sol\":4043:4045  VP */\n      dup1\n        /* \"src/voting.sol\":4043:4056  VP.candidates */\n      0x01\n      add\n        /* \"src/voting.sol\":4036:4056  return VP.candidates */\n      dup1\n      sload\n      dup1\n      0x20\n      mul\n      0x20\n      add\n      mload(0x40)\n      swap1\n      dup2\n      add\n      0x40\n      mstore\n      dup1\n      swap3\n      swap2\n      swap1\n      dup2\n      dup2\n      mstore\n      0x20\n      add\n      dup3\n      dup1\n      sload\n      dup1\n      iszero\n      tag_158\n      jumpi\n      0x20\n      mul\n      dup3\n      add\n      swap2\n      swap1\n      0x00\n      mstore\n      keccak256(0x00, 0x20)\n      swap1\n    tag_159:\n      dup2\n      0x00\n      swap1\n      sload\n      swap1\n      0x0100\n      exp\n      swap1\n      div\n      0xffffffffffffffffffffffffffffffffffffffff\n      and\n      0xffffffffffffffffffffffffffffffffffffffff\n      and\n      dup2\n      mstore\n      0x20\n      add\n      swap1\n      0x01\n      add\n      swap1\n      dup1\n      dup4\n      gt\n      tag_159\n      jumpi\n    tag_158:\n      pop\n      pop\n      pop\n      pop\n      pop\n      swap2\n      pop\n      pop\n        /* \"src/voting.sol\":3887:4060  function AllCandidates( string memory _name) public view returns(address[] memory _candidates){... */\n      swap2\n      swap1\n      pop\n      jump\t// out\n        /* \"src/voting.sol\":3470:3705  function setVotingState( string memory _name) external {... */\n    tag_64:\n        /* \"src/voting.sol\":3531:3552  VotingPoll storage VP */\n      0x00\n        /* \"src/voting.sol\":3555:3565  votingPoll */\n      0x01\n        /* \"src/voting.sol\":3566:3571  _name */\n      dup3\n        /* \"src/voting.sol\":3555:3572  votingPoll[_name] */\n      mload(0x40)\n      tag_161\n      swap2\n      swap1\n      tag_80\n      jump\t// in\n    tag_161:\n      swap1\n      dup2\n      mstore\n      0x20\n      add\n      mload(0x40)\n      dup1\n      swap2\n      sub\n      swap1\n      keccak256\n        /* \"src/voting.sol\":3531:3572  VotingPoll storage VP = votingPoll[_name] */\n      swap1\n      pop\n        /* \"src/voting.sol\":3601:3611  msg.sender */\n      caller\n        /* \"src/voting.sol\":3586:3611  VP.chairman == msg.sender */\n      0xffffffffffffffffffffffffffffffffffffffff\n      and\n        /* \"src/voting.sol\":3586:3588  VP */\n      dup2\n        /* \"src/voting.sol\":3586:3597  VP.chairman */\n      0x00\n      add\n      0x00\n      swap1\n      sload\n      swap1\n      0x0100\n      exp\n      swap1\n      div\n      0xffffffffffffffffffffffffffffffffffffffff\n      and\n        /* \"src/voting.sol\":3586:3611  VP.chairman == msg.sender */\n      0xffffffffffffffffffffffffffffffffffffffff\n      and\n      eq\n        /* \"src/voting.sol\":3578:3632  require(VP.chairman == msg.sender, \"not the chairman\") */\n      tag_162\n      jumpi\n      mload(0x40)\n      0x08c379a000000000000000000000000000000000000000000000000000000000\n      dup2\n      mstore\n      0x04\n      add\n      tag_163\n      swap1\n      tag_164\n      jump\t// in\n    tag_163:\n      mload(0x40)\n      dup1\n      swap2\n      sub\n      swap1\n      revert\n    tag_162:\n        /* \"src/voting.sol\":3658:3660  VP */\n      dup1\n        /* \"src/voting.sol\":3658:3667  VP.voting */\n      0x06\n      add\n      0x00\n      swap1\n      sload\n      swap1\n      0x0100\n      exp\n      swap1\n      div\n      0xff\n      and\n        /* \"src/voting.sol\":3656:3668  !(VP.voting) */\n      iszero\n        /* \"src/voting.sol\":3644:3646  VP */\n      dup2\n        /* \"src/voting.sol\":3644:3653  VP.voting */\n      0x06\n      add\n      0x00\n        /* \"src/voting.sol\":3644:3668  VP.voting = !(VP.voting) */\n      0x0100\n      exp\n      dup2\n      sload\n      dup2\n      0xff\n      mul\n      not\n      and\n      swap1\n      dup4\n      iszero\n      iszero\n      mul\n      or\n      swap1\n      sstore\n      pop\n        /* \"src/voting.sol\":3691:3693  VP */\n      dup1\n        /* \"src/voting.sol\":3691:3700  VP.voting */\n      0x06\n      add\n      0x00\n      swap1\n      sload\n      swap1\n      0x0100\n      exp\n      swap1\n      div\n      0xff\n      and\n        /* \"src/voting.sol\":3680:3701  voteStatus(VP.voting) */\n      iszero\n      iszero\n      0x7b224db641892626dca6975b376f464e9ac52ccfa180436175170c009b94dcd7\n      mload(0x40)\n      mload(0x40)\n      dup1\n      swap2\n      sub\n      swap1\n      log2\n        /* \"src/voting.sol\":3525:3705  {... */\n      pop\n        /* \"src/voting.sol\":3470:3705  function setVotingState( string memory _name) external {... */\n      pop\n      jump\t// out\n        /* \"src/voting.sol\":1759:2141  function createPoll(string memory _name, uint32 ExpectedNoOfCandidate) external returns(string memory, uint Candidate){... */\n    tag_68:\n        /* \"src/voting.sol\":1847:1860  string memory */\n      0x60\n        /* \"src/voting.sol\":1862:1876  uint Candidate */\n      0x00\n        /* \"src/voting.sol\":1883:1904  VotingPoll storage VP */\n      dup1\n        /* \"src/voting.sol\":1907:1917  votingPoll */\n      0x01\n        /* \"src/voting.sol\":1918:1923  _name */\n      dup6\n        /* \"src/voting.sol\":1907:1924  votingPoll[_name] */\n      mload(0x40)\n      tag_166\n      swap2\n      swap1\n      tag_80\n      jump\t// in\n    tag_166:\n      swap1\n      dup2\n      mstore\n      0x20\n      add\n      mload(0x40)\n      dup1\n      swap2\n      sub\n      swap1\n      keccak256\n        /* \"src/voting.sol\":1883:1924  VotingPoll storage VP = votingPoll[_name] */\n      swap1\n      pop\n        /* \"src/voting.sol\":1944:1954  msg.sender */\n      caller\n        /* \"src/voting.sol\":1930:1932  VP */\n      dup2\n        /* \"src/voting.sol\":1930:1941  VP.chairman */\n      0x00\n      add\n      0x00\n        /* \"src/voting.sol\":1930:1954  VP.chairman = msg.sender */\n      0x0100\n      exp\n      dup2\n      sload\n      dup2\n      0xffffffffffffffffffffffffffffffffffffffff\n      mul\n      not\n      and\n      swap1\n      dup4\n      0xffffffffffffffffffffffffffffffffffffffff\n      and\n      mul\n      or\n      swap1\n      sstore\n      pop\n        /* \"src/voting.sol\":1982:2003  ExpectedNoOfCandidate */\n      dup4\n        /* \"src/voting.sol\":1960:1962  VP */\n      dup2\n        /* \"src/voting.sol\":1960:1980  VP.maxNoOfCandidates */\n      0x02\n      add\n      0x00\n        /* \"src/voting.sol\":1960:2003  VP.maxNoOfCandidates =ExpectedNoOfCandidate */\n      0x0100\n      exp\n      dup2\n      sload\n      dup2\n      0xffffffff\n      mul\n      not\n      and\n      swap1\n      dup4\n      0xffffffff\n      and\n      mul\n      or\n      swap1\n      sstore\n      pop\n        /* \"src/voting.sol\":2009:2018  VotingKey */\n      0x00\n        /* \"src/voting.sol\":2024:2029  _name */\n      dup6\n        /* \"src/voting.sol\":2009:2030  VotingKey.push(_name) */\n      swap1\n      dup1\n      0x01\n      dup2\n      sload\n      add\n      dup1\n      dup3\n      sstore\n      dup1\n      swap2\n      pop\n      pop\n      0x01\n      swap1\n      sub\n      swap1\n      0x00\n      mstore\n      keccak256(0x00, 0x20)\n      add\n      0x00\n      swap1\n      swap2\n      swap1\n      swap2\n      swap1\n      swap2\n      pop\n      swap1\n      dup1\n      mload\n      swap1\n      0x20\n      add\n      swap1\n      tag_168\n      swap3\n      swap2\n      swap1\n      tag_169\n      jump\t// in\n    tag_168:\n      pop\n        /* \"src/voting.sol\":2083:2085  VP */\n      dup1\n        /* \"src/voting.sol\":2083:2094  VP.chairman */\n      0x00\n      add\n      0x00\n      swap1\n      sload\n      swap1\n      0x0100\n      exp\n      swap1\n      div\n      0xffffffffffffffffffffffffffffffffffffffff\n      and\n        /* \"src/voting.sol\":2041:2095  pollCreated( _name, VP.maxNoOfCandidates, VP.chairman) */\n      0xffffffffffffffffffffffffffffffffffffffff\n      and\n        /* \"src/voting.sol\":2061:2063  VP */\n      dup2\n        /* \"src/voting.sol\":2061:2081  VP.maxNoOfCandidates */\n      0x02\n      add\n      0x00\n      swap1\n      sload\n      swap1\n      0x0100\n      exp\n      swap1\n      div\n      0xffffffff\n      and\n        /* \"src/voting.sol\":2041:2095  pollCreated( _name, VP.maxNoOfCandidates, VP.chairman) */\n      0xffffffff\n      and\n        /* \"src/voting.sol\":2054:2059  _name */\n      dup7\n        /* \"src/voting.sol\":2041:2095  pollCreated( _name, VP.maxNoOfCandidates, VP.chairman) */\n      mload(0x40)\n      tag_170\n      swap2\n      swap1\n      tag_80\n      jump\t// in\n    tag_170:\n      mload(0x40)\n      dup1\n      swap2\n      sub\n      swap1\n      keccak256\n      0x4b35e5cf01446aa899a8d21082ebf23b7497d38f2466ad49836bd1006a8d059e\n      mload(0x40)\n      mload(0x40)\n      dup1\n      swap2\n      sub\n      swap1\n      log4\n        /* \"src/voting.sol\":2109:2114  _name */\n      dup5\n        /* \"src/voting.sol\":2116:2137  ExpectedNoOfCandidate */\n      dup5\n        /* \"src/voting.sol\":2102:2138  return(_name, ExpectedNoOfCandidate) */\n      dup1\n      0xffffffff\n      and\n      swap1\n      pop\n      swap3\n      pop\n      swap3\n      pop\n      pop\n        /* \"src/voting.sol\":1759:2141  function createPoll(string memory _name, uint32 ExpectedNoOfCandidate) external returns(string memory, uint Candidate){... */\n      swap3\n      pop\n      swap3\n      swap1\n      pop\n      jump\t// out\n        /* \"src/voting.sol\":4847:5301  function getStructProps() external view returns(retVotingPoll[] memory RVP){... */\n    tag_72:\n        /* \"src/voting.sol\":4895:4921  retVotingPoll[] memory RVP */\n      0x60\n        /* \"src/voting.sol\":4953:4962  VotingKey */\n      0x00\n        /* \"src/voting.sol\":4953:4969  VotingKey.length */\n      dup1\n      sload\n      swap1\n      pop\n        /* \"src/voting.sol\":4932:4970  new  retVotingPoll[](VotingKey.length) */\n      0xffffffffffffffff\n      dup2\n      gt\n      iszero\n      tag_172\n      jumpi\n      tag_173\n      tag_112\n      jump\t// in\n    tag_173:\n    tag_172:\n      mload(0x40)\n      swap1\n      dup1\n      dup3\n      mstore\n      dup1\n      0x20\n      mul\n      0x20\n      add\n      dup3\n      add\n      0x40\n      mstore\n      dup1\n      iszero\n      tag_174\n      jumpi\n      dup2\n      0x20\n      add\n    tag_175:\n      tag_176\n      tag_177\n      jump\t// in\n    tag_176:\n      dup2\n      mstore\n      0x20\n      add\n      swap1\n      0x01\n      swap1\n      sub\n      swap1\n      dup2\n      tag_175\n      jumpi\n      swap1\n      pop\n    tag_174:\n      pop\n        /* \"src/voting.sol\":4926:4970  RVP = new  retVotingPoll[](VotingKey.length) */\n      swap1\n      pop\n        /* \"src/voting.sol\":4979:4985  uint i */\n      0x00\n        /* \"src/voting.sol\":4974:5298  for (uint i; i >= VotingKey.length; i++){... */\n    tag_178:\n        /* \"src/voting.sol\":4992:5001  VotingKey */\n      0x00\n        /* \"src/voting.sol\":4992:5008  VotingKey.length */\n      dup1\n      sload\n      swap1\n      pop\n        /* \"src/voting.sol\":4987:4988  i */\n      dup2\n        /* \"src/voting.sol\":4987:5008  i >= VotingKey.length */\n      lt\n        /* \"src/voting.sol\":4974:5298  for (uint i; i >= VotingKey.length; i++){... */\n      tag_179\n      jumpi\n        /* \"src/voting.sol\":5020:5041  VotingPoll storage VP */\n      0x00\n        /* \"src/voting.sol\":5044:5054  votingPoll */\n      0x01\n        /* \"src/voting.sol\":5055:5064  VotingKey */\n      0x00\n        /* \"src/voting.sol\":5065:5066  i */\n      dup4\n        /* \"src/voting.sol\":5055:5067  VotingKey[i] */\n      dup2\n      sload\n      dup2\n      lt\n      tag_181\n      jumpi\n      tag_182\n      tag_122\n      jump\t// in\n    tag_182:\n    tag_181:\n      swap1\n      0x00\n      mstore\n      keccak256(0x00, 0x20)\n      add\n        /* \"src/voting.sol\":5044:5068  votingPoll[VotingKey[i]] */\n      mload(0x40)\n      tag_184\n      swap2\n      swap1\n      tag_185\n      jump\t// in\n    tag_184:\n      swap1\n      dup2\n      mstore\n      0x20\n      add\n      mload(0x40)\n      dup1\n      swap2\n      sub\n      swap1\n      keccak256\n        /* \"src/voting.sol\":5020:5068  VotingPoll storage VP = votingPoll[VotingKey[i]] */\n      swap1\n      pop\n        /* \"src/voting.sol\":5092:5094  VP */\n      dup1\n        /* \"src/voting.sol\":5092:5103  VP.chairman */\n      0x00\n      add\n      0x00\n      swap1\n      sload\n      swap1\n      0x0100\n      exp\n      swap1\n      div\n      0xffffffffffffffffffffffffffffffffffffffff\n      and\n        /* \"src/voting.sol\":5074:5077  RVP */\n      dup4\n        /* \"src/voting.sol\":5078:5079  i */\n      dup4\n        /* \"src/voting.sol\":5074:5080  RVP[i] */\n      dup2\n      mload\n      dup2\n      lt\n      tag_186\n      jumpi\n      tag_187\n      tag_122\n      jump\t// in\n    tag_187:\n    tag_186:\n      0x20\n      mul\n      0x20\n      add\n      add\n      mload\n        /* \"src/voting.sol\":5074:5089  RVP[i].chairman */\n      0x00\n      add\n        /* \"src/voting.sol\":5074:5103  RVP[i].chairman = VP.chairman */\n      swap1\n      0xffffffffffffffffffffffffffffffffffffffff\n      and\n      swap1\n      dup2\n      0xffffffffffffffffffffffffffffffffffffffff\n      and\n      dup2\n      mstore\n      pop\n      pop\n        /* \"src/voting.sol\":5136:5138  VP */\n      dup1\n        /* \"src/voting.sol\":5136:5156  VP.maxNoOfCandidates */\n      0x02\n      add\n      0x00\n      swap1\n      sload\n      swap1\n      0x0100\n      exp\n      swap1\n      div\n      0xffffffff\n      and\n        /* \"src/voting.sol\":5109:5112  RVP */\n      dup4\n        /* \"src/voting.sol\":5113:5114  i */\n      dup4\n        /* \"src/voting.sol\":5109:5115  RVP[i] */\n      dup2\n      mload\n      dup2\n      lt\n      tag_188\n      jumpi\n      tag_189\n      tag_122\n      jump\t// in\n    tag_189:\n    tag_188:\n      0x20\n      mul\n      0x20\n      add\n      add\n      mload\n        /* \"src/voting.sol\":5109:5133  RVP[i].maxNoOfCandidates */\n      0x40\n      add\n        /* \"src/voting.sol\":5109:5156  RVP[i].maxNoOfCandidates = VP.maxNoOfCandidates */\n      swap1\n      0xffffffff\n      and\n      swap1\n      dup2\n      0xffffffff\n      and\n      dup2\n      mstore\n      pop\n      pop\n        /* \"src/voting.sol\":5193:5203  votingPoll */\n      0x01\n        /* \"src/voting.sol\":5204:5213  VotingKey */\n      0x00\n        /* \"src/voting.sol\":5214:5215  i */\n      dup4\n        /* \"src/voting.sol\":5204:5216  VotingKey[i] */\n      dup2\n      sload\n      dup2\n      lt\n      tag_190\n      jumpi\n      tag_191\n      tag_122\n      jump\t// in\n    tag_191:\n    tag_190:\n      swap1\n      0x00\n      mstore\n      keccak256(0x00, 0x20)\n      add\n        /* \"src/voting.sol\":5193:5217  votingPoll[VotingKey[i]] */\n      mload(0x40)\n      tag_193\n      swap2\n      swap1\n      tag_185\n      jump\t// in\n    tag_193:\n      swap1\n      dup2\n      mstore\n      0x20\n      add\n      mload(0x40)\n      dup1\n      swap2\n      sub\n      swap1\n      keccak256\n        /* \"src/voting.sol\":5193:5239  votingPoll[VotingKey[i]].currentNoOfCandidates */\n      0x02\n      add\n      0x04\n      swap1\n      sload\n      swap1\n      0x0100\n      exp\n      swap1\n      div\n      0xffffffff\n      and\n        /* \"src/voting.sol\":5162:5165  RVP */\n      dup4\n        /* \"src/voting.sol\":5166:5167  i */\n      dup4\n        /* \"src/voting.sol\":5162:5168  RVP[i] */\n      dup2\n      mload\n      dup2\n      lt\n      tag_194\n      jumpi\n      tag_195\n      tag_122\n      jump\t// in\n    tag_195:\n    tag_194:\n      0x20\n      mul\n      0x20\n      add\n      add\n      mload\n        /* \"src/voting.sol\":5162:5190  RVP[i].currentNoOfCandidates */\n      0x60\n      add\n        /* \"src/voting.sol\":5162:5239  RVP[i].currentNoOfCandidates = votingPoll[VotingKey[i]].currentNoOfCandidates */\n      swap1\n      0xffffffff\n      and\n      swap1\n      dup2\n      0xffffffff\n      and\n      dup2\n      mstore\n      pop\n      pop\n        /* \"src/voting.sol\":5261:5271  votingPoll */\n      0x01\n        /* \"src/voting.sol\":5272:5281  VotingKey */\n      0x00\n        /* \"src/voting.sol\":5282:5283  i */\n      dup4\n        /* \"src/voting.sol\":5272:5284  VotingKey[i] */\n      dup2\n      sload\n      dup2\n      lt\n      tag_196\n      jumpi\n      tag_197\n      tag_122\n      jump\t// in\n    tag_197:\n    tag_196:\n      swap1\n      0x00\n      mstore\n      keccak256(0x00, 0x20)\n      add\n        /* \"src/voting.sol\":5261:5285  votingPoll[VotingKey[i]] */\n      mload(0x40)\n      tag_199\n      swap2\n      swap1\n      tag_185\n      jump\t// in\n    tag_199:\n      swap1\n      dup2\n      mstore\n      0x20\n      add\n      mload(0x40)\n      dup1\n      swap2\n      sub\n      swap1\n      keccak256\n        /* \"src/voting.sol\":5261:5292  votingPoll[VotingKey[i]].voting */\n      0x06\n      add\n      0x00\n      swap1\n      sload\n      swap1\n      0x0100\n      exp\n      swap1\n      div\n      0xff\n      and\n        /* \"src/voting.sol\":5245:5248  RVP */\n      dup4\n        /* \"src/voting.sol\":5249:5250  i */\n      dup4\n        /* \"src/voting.sol\":5245:5251  RVP[i] */\n      dup2\n      mload\n      dup2\n      lt\n      tag_200\n      jumpi\n      tag_201\n      tag_122\n      jump\t// in\n    tag_201:\n    tag_200:\n      0x20\n      mul\n      0x20\n      add\n      add\n      mload\n        /* \"src/voting.sol\":5245:5258  RVP[i].voting */\n      0x80\n      add\n        /* \"src/voting.sol\":5245:5292  RVP[i].voting = votingPoll[VotingKey[i]].voting */\n      swap1\n      iszero\n      iszero\n      swap1\n      dup2\n      iszero\n      iszero\n      dup2\n      mstore\n      pop\n      pop\n        /* \"src/voting.sol\":5014:5298  {... */\n      pop\n        /* \"src/voting.sol\":5010:5013  i++ */\n      dup1\n      dup1\n      tag_202\n      swap1\n      tag_96\n      jump\t// in\n    tag_202:\n      swap2\n      pop\n      pop\n        /* \"src/voting.sol\":4974:5298  for (uint i; i >= VotingKey.length; i++){... */\n      jump(tag_178)\n    tag_179:\n      pop\n        /* \"src/voting.sol\":4847:5301  function getStructProps() external view returns(retVotingPoll[] memory RVP){... */\n      swap1\n      jump\t// out\n        /* \"src/voting.sol\":5538:6120  function getSigner(bytes32 _hash, bytes memory _signature) internal pure returns (address){... */\n    tag_92:\n        /* \"src/voting.sol\":5620:5627  address */\n      0x00\n        /* \"src/voting.sol\":5634:5643  bytes32 r */\n      dup1\n        /* \"src/voting.sol\":5649:5658  bytes32 s */\n      0x00\n        /* \"src/voting.sol\":5664:5671  uint8 v */\n      dup1\n        /* \"src/voting.sol\":5702:5704  65 */\n      0x41\n        /* \"src/voting.sol\":5681:5691  _signature */\n      dup6\n        /* \"src/voting.sol\":5681:5698  _signature.length */\n      mload\n        /* \"src/voting.sol\":5681:5704  _signature.length != 65 */\n      eq\n        /* \"src/voting.sol\":5677:5738  if (_signature.length != 65) {... */\n      tag_204\n      jumpi\n        /* \"src/voting.sol\":5729:5730  0 */\n      0x00\n        /* \"src/voting.sol\":5714:5731  return address(0) */\n      swap4\n      pop\n      pop\n      pop\n      pop\n      jump(tag_203)\n        /* \"src/voting.sol\":5677:5738  if (_signature.length != 65) {... */\n    tag_204:\n        /* \"src/voting.sol\":5787:5789  32 */\n      0x20\n        /* \"src/voting.sol\":5775:5785  _signature */\n      dup6\n        /* \"src/voting.sol\":5771:5790  add(_signature, 32) */\n      add\n        /* \"src/voting.sol\":5765:5791  mload(add(_signature, 32)) */\n      mload\n        /* \"src/voting.sol\":5760:5791  r := mload(add(_signature, 32)) */\n      swap3\n      pop\n        /* \"src/voting.sol\":5825:5827  64 */\n      0x40\n        /* \"src/voting.sol\":5813:5823  _signature */\n      dup6\n        /* \"src/voting.sol\":5809:5828  add(_signature, 64) */\n      add\n        /* \"src/voting.sol\":5803:5829  mload(add(_signature, 64)) */\n      mload\n        /* \"src/voting.sol\":5798:5829  s := mload(add(_signature, 64)) */\n      swap2\n      pop\n        /* \"src/voting.sol\":5871:5873  96 */\n      0x60\n        /* \"src/voting.sol\":5859:5869  _signature */\n      dup6\n        /* \"src/voting.sol\":5855:5874  add(_signature, 96) */\n      add\n        /* \"src/voting.sol\":5849:5875  mload(add(_signature, 96)) */\n      mload\n        /* \"src/voting.sol\":5846:5847  0 */\n      0x00\n        /* \"src/voting.sol\":5841:5876  byte(0, mload(add(_signature, 96))) */\n      byte\n        /* \"src/voting.sol\":5836:5876  v := byte(0, mload(add(_signature, 96))) */\n      swap1\n      pop\n        /* \"src/voting.sol\":5895:5897  27 */\n      0x1b\n        /* \"src/voting.sol\":5891:5892  v */\n      dup2\n        /* \"src/voting.sol\":5891:5897  v < 27 */\n      0xff\n      and\n      lt\n        /* \"src/voting.sol\":5887:5921  if (v < 27) {... */\n      iszero\n      tag_205\n      jumpi\n        /* \"src/voting.sol\":5912:5914  27 */\n      0x1b\n        /* \"src/voting.sol\":5907:5914  v += 27 */\n      dup2\n      tag_206\n      swap2\n      swap1\n      tag_207\n      jump\t// in\n    tag_206:\n      swap1\n      pop\n        /* \"src/voting.sol\":5887:5921  if (v < 27) {... */\n    tag_205:\n        /* \"src/voting.sol\":5935:5937  27 */\n      0x1b\n        /* \"src/voting.sol\":5930:5931  v */\n      dup2\n        /* \"src/voting.sol\":5930:5937  v != 27 */\n      0xff\n      and\n      eq\n      iszero\n        /* \"src/voting.sol\":5930:5948  v != 27 && v != 28 */\n      dup1\n      iszero\n      tag_208\n      jumpi\n      pop\n        /* \"src/voting.sol\":5946:5948  28 */\n      0x1c\n        /* \"src/voting.sol\":5941:5942  v */\n      dup2\n        /* \"src/voting.sol\":5941:5948  v != 28 */\n      0xff\n      and\n      eq\n      iszero\n        /* \"src/voting.sol\":5930:5948  v != 27 && v != 28 */\n    tag_208:\n        /* \"src/voting.sol\":5926:6116  if (v != 27 && v != 28) {... */\n      iszero\n      tag_209\n      jumpi\n        /* \"src/voting.sol\":5973:5974  0 */\n      0x00\n        /* \"src/voting.sol\":5958:5975  return address(0) */\n      swap4\n      pop\n      pop\n      pop\n      pop\n      jump(tag_203)\n        /* \"src/voting.sol\":5926:6116  if (v != 27 && v != 28) {... */\n    tag_209:\n        /* \"src/voting.sol\":6003:6109  ecrecover(keccak256(... */\n      0x01\n        /* \"src/voting.sol\":6085:6090  _hash */\n      dup7\n        /* \"src/voting.sol\":6032:6091  abi.encodePacked(\"\\x19Ethereum Signed Message:\\n32\", _hash) */\n      add(0x20, mload(0x40))\n      tag_211\n      swap2\n      swap1\n      tag_212\n      jump\t// in\n    tag_211:\n      mload(0x40)\n      0x20\n      dup2\n      dup4\n      sub\n      sub\n      dup2\n      mstore\n      swap1\n      0x40\n      mstore\n        /* \"src/voting.sol\":6013:6099  keccak256(... */\n      dup1\n      mload\n      swap1\n      0x20\n      add\n      keccak256\n        /* \"src/voting.sol\":6101:6102  v */\n      dup3\n        /* \"src/voting.sol\":6104:6105  r */\n      dup6\n        /* \"src/voting.sol\":6107:6108  s */\n      dup6\n        /* \"src/voting.sol\":6003:6109  ecrecover(keccak256(... */\n      mload(0x40)\n      0x00\n      dup2\n      mstore\n      0x20\n      add\n      0x40\n      mstore\n      mload(0x40)\n      tag_213\n      swap5\n      swap4\n      swap3\n      swap2\n      swap1\n      tag_214\n      jump\t// in\n    tag_213:\n      0x20\n      mload(0x40)\n      0x20\n      dup2\n      sub\n      swap1\n      dup1\n      dup5\n      sub\n      swap1\n      dup6\n      gas\n      staticcall\n      iszero\n      dup1\n      iszero\n      tag_216\n      jumpi\n      returndatasize\n      0x00\n      dup1\n      returndatacopy\n      revert(0x00, returndatasize)\n    tag_216:\n      pop\n      pop\n      pop\n      mload(sub(mload(0x40), 0x20))\n        /* \"src/voting.sol\":5996:6109  return ecrecover(keccak256(... */\n      swap4\n      pop\n      pop\n      pop\n      pop\n        /* \"src/voting.sol\":5538:6120  function getSigner(bytes32 _hash, bytes memory _signature) internal pure returns (address){... */\n    tag_203:\n      swap3\n      swap2\n      pop\n      pop\n      jump\t// out\n        /* \"src/voting.sol\":3221:3466  function countVote(address Cand, string memory _name, address signer) internal returns(uint){... */\n    tag_102:\n        /* \"src/voting.sol\":3308:3312  uint */\n      0x00\n        /* \"src/voting.sol\":3320:3341  VotingPoll storage VP */\n      dup1\n        /* \"src/voting.sol\":3344:3354  votingPoll */\n      0x01\n        /* \"src/voting.sol\":3355:3360  _name */\n      dup5\n        /* \"src/voting.sol\":3344:3361  votingPoll[_name] */\n      mload(0x40)\n      tag_218\n      swap2\n      swap1\n      tag_80\n      jump\t// in\n    tag_218:\n      swap1\n      dup2\n      mstore\n      0x20\n      add\n      mload(0x40)\n      dup1\n      swap2\n      sub\n      swap1\n      keccak256\n        /* \"src/voting.sol\":3320:3361  VotingPoll storage VP = votingPoll[_name] */\n      swap1\n      pop\n        /* \"src/voting.sol\":3390:3394  true */\n      0x01\n        /* \"src/voting.sol\":3368:3370  VP */\n      dup2\n        /* \"src/voting.sol\":3368:3379  VP.hasVoted */\n      0x04\n      add\n        /* \"src/voting.sol\":3368:3387  VP.hasVoted[signer] */\n      0x00\n        /* \"src/voting.sol\":3380:3386  signer */\n      dup6\n        /* \"src/voting.sol\":3368:3387  VP.hasVoted[signer] */\n      0xffffffffffffffffffffffffffffffffffffffff\n      and\n      0xffffffffffffffffffffffffffffffffffffffff\n      and\n      dup2\n      mstore\n      0x20\n      add\n      swap1\n      dup2\n      mstore\n      0x20\n      add\n      0x00\n      keccak256\n      0x00\n        /* \"src/voting.sol\":3368:3394  VP.hasVoted[signer] = true */\n      0x0100\n      exp\n      dup2\n      sload\n      dup2\n      0xff\n      mul\n      not\n      and\n      swap1\n      dup4\n      iszero\n      iszero\n      mul\n      or\n      swap1\n      sstore\n      pop\n        /* \"src/voting.sol\":3401:3403  VP */\n      dup1\n        /* \"src/voting.sol\":3401:3417  VP.CandidateVote */\n      0x05\n      add\n        /* \"src/voting.sol\":3401:3423  VP.CandidateVote[Cand] */\n      0x00\n        /* \"src/voting.sol\":3418:3422  Cand */\n      dup7\n        /* \"src/voting.sol\":3401:3423  VP.CandidateVote[Cand] */\n      0xffffffffffffffffffffffffffffffffffffffff\n      and\n      0xffffffffffffffffffffffffffffffffffffffff\n      and\n      dup2\n      mstore\n      0x20\n      add\n      swap1\n      dup2\n      mstore\n      0x20\n      add\n      0x00\n      keccak256\n      0x00\n        /* \"src/voting.sol\":3401:3425  VP.CandidateVote[Cand]++ */\n      dup2\n      sload\n      dup1\n      swap3\n      swap2\n      swap1\n      tag_219\n      swap1\n      tag_96\n      jump\t// in\n    tag_219:\n      swap2\n      swap1\n      pop\n      sstore\n      pop\n        /* \"src/voting.sol\":3439:3441  VP */\n      dup1\n        /* \"src/voting.sol\":3439:3455  VP.CandidateVote */\n      0x05\n      add\n        /* \"src/voting.sol\":3439:3461  VP.CandidateVote[Cand] */\n      0x00\n        /* \"src/voting.sol\":3456:3460  Cand */\n      dup7\n        /* \"src/voting.sol\":3439:3461  VP.CandidateVote[Cand] */\n      0xffffffffffffffffffffffffffffffffffffffff\n      and\n      0xffffffffffffffffffffffffffffffffffffffff\n      and\n      dup2\n      mstore\n      0x20\n      add\n      swap1\n      dup2\n      mstore\n      0x20\n      add\n      0x00\n      keccak256\n      sload\n        /* \"src/voting.sol\":3432:3461  return VP.CandidateVote[Cand] */\n      swap2\n      pop\n      pop\n        /* \"src/voting.sol\":3221:3466  function countVote(address Cand, string memory _name, address signer) internal returns(uint){... */\n      swap4\n      swap3\n      pop\n      pop\n      pop\n      jump\t// out\n        /* \"src/voting.sol\":4661:4844  function getPosition( string memory _name, uint i) internal view returns(uint val){... */\n    tag_118:\n        /* \"src/voting.sol\":4734:4742  uint val */\n      0x00\n        /* \"src/voting.sol\":4750:4771  VotingPoll storage VP */\n      dup1\n        /* \"src/voting.sol\":4774:4784  votingPoll */\n      0x01\n        /* \"src/voting.sol\":4785:4790  _name */\n      dup5\n        /* \"src/voting.sol\":4774:4791  votingPoll[_name] */\n      mload(0x40)\n      tag_221\n      swap2\n      swap1\n      tag_80\n      jump\t// in\n    tag_221:\n      swap1\n      dup2\n      mstore\n      0x20\n      add\n      mload(0x40)\n      dup1\n      swap2\n      sub\n      swap1\n      keccak256\n        /* \"src/voting.sol\":4750:4791  VotingPoll storage VP = votingPoll[_name] */\n      swap1\n      pop\n        /* \"src/voting.sol\":4806:4808  VP */\n      dup1\n        /* \"src/voting.sol\":4806:4822  VP.CandidateVote */\n      0x05\n      add\n        /* \"src/voting.sol\":4806:4840  VP.CandidateVote[VP.candidates[i]] */\n      0x00\n        /* \"src/voting.sol\":4823:4825  VP */\n      dup3\n        /* \"src/voting.sol\":4823:4836  VP.candidates */\n      0x01\n      add\n        /* \"src/voting.sol\":4837:4838  i */\n      dup6\n        /* \"src/voting.sol\":4823:4839  VP.candidates[i] */\n      dup2\n      sload\n      dup2\n      lt\n      tag_222\n      jumpi\n      tag_223\n      tag_122\n      jump\t// in\n    tag_223:\n    tag_222:\n      swap1\n      0x00\n      mstore\n      keccak256(0x00, 0x20)\n      add\n      0x00\n      swap1\n      sload\n      swap1\n      0x0100\n      exp\n      swap1\n      div\n      0xffffffffffffffffffffffffffffffffffffffff\n      and\n        /* \"src/voting.sol\":4806:4840  VP.CandidateVote[VP.candidates[i]] */\n      0xffffffffffffffffffffffffffffffffffffffff\n      and\n      0xffffffffffffffffffffffffffffffffffffffff\n      and\n      dup2\n      mstore\n      0x20\n      add\n      swap1\n      dup2\n      mstore\n      0x20\n      add\n      0x00\n      keccak256\n      sload\n        /* \"src/voting.sol\":4800:4840  val = VP.CandidateVote[VP.candidates[i]] */\n      swap2\n      pop\n        /* \"src/voting.sol\":4743:4844  {... */\n      pop\n        /* \"src/voting.sol\":4661:4844  function getPosition( string memory _name, uint i) internal view returns(uint val){... */\n      swap3\n      swap2\n      pop\n      pop\n      jump\t// out\n    tag_169:\n      dup3\n      dup1\n      sload\n      tag_225\n      swap1\n      tag_151\n      jump\t// in\n    tag_225:\n      swap1\n      0x00\n      mstore\n      keccak256(0x00, 0x20)\n      swap1\n      0x1f\n      add\n      0x20\n      swap1\n      div\n      dup2\n      add\n      swap3\n      dup3\n      tag_227\n      jumpi\n      0x00\n      dup6\n      sstore\n      jump(tag_226)\n    tag_227:\n      dup3\n      0x1f\n      lt\n      tag_228\n      jumpi\n      dup1\n      mload\n      not(0xff)\n      and\n      dup4\n      dup1\n      add\n      or\n      dup6\n      sstore\n      jump(tag_226)\n    tag_228:\n      dup3\n      dup1\n      add\n      0x01\n      add\n      dup6\n      sstore\n      dup3\n      iszero\n      tag_226\n      jumpi\n      swap2\n      dup3\n      add\n    tag_229:\n      dup3\n      dup2\n      gt\n      iszero\n      tag_230\n      jumpi\n      dup3\n      mload\n      dup3\n      sstore\n      swap2\n      0x20\n      add\n      swap2\n      swap1\n      0x01\n      add\n      swap1\n      jump(tag_229)\n    tag_230:\n    tag_226:\n      pop\n      swap1\n      pop\n      tag_231\n      swap2\n      swap1\n      tag_232\n      jump\t// in\n    tag_231:\n      pop\n      swap1\n      jump\t// out\n    tag_177:\n      mload(0x40)\n      dup1\n      0xa0\n      add\n      0x40\n      mstore\n      dup1\n      and(0xffffffffffffffffffffffffffffffffffffffff, 0x00)\n      dup2\n      mstore\n      0x20\n      add\n      0x60\n      dup2\n      mstore\n      0x20\n      add\n      and(0xffffffff, 0x00)\n      dup2\n      mstore\n      0x20\n      add\n      and(0xffffffff, 0x00)\n      dup2\n      mstore\n      0x20\n      add\n      iszero(iszero(0x00))\n      dup2\n      mstore\n      pop\n      swap1\n      jump\t// out\n    tag_232:\n    tag_233:\n      dup1\n      dup3\n      gt\n      iszero\n      tag_234\n      jumpi\n      0x00\n      dup2\n      0x00\n      swap1\n      sstore\n      pop\n      0x01\n      add\n      jump(tag_233)\n    tag_234:\n      pop\n      swap1\n      jump\t// out\n        /* \"#utility.yul\":7:82   */\n    tag_235:\n        /* \"#utility.yul\":40:46   */\n      0x00\n        /* \"#utility.yul\":73:75   */\n      0x40\n        /* \"#utility.yul\":67:76   */\n      mload\n        /* \"#utility.yul\":57:76   */\n      swap1\n      pop\n        /* \"#utility.yul\":7:82   */\n      swap1\n      jump\t// out\n        /* \"#utility.yul\":88:205   */\n    tag_236:\n        /* \"#utility.yul\":197:198   */\n      0x00\n        /* \"#utility.yul\":194:195   */\n      dup1\n        /* \"#utility.yul\":187:199   */\n      revert\n        /* \"#utility.yul\":211:328   */\n    tag_237:\n        /* \"#utility.yul\":320:321   */\n      0x00\n        /* \"#utility.yul\":317:318   */\n      dup1\n        /* \"#utility.yul\":310:322   */\n      revert\n        /* \"#utility.yul\":334:460   */\n    tag_238:\n        /* \"#utility.yul\":371:378   */\n      0x00\n        /* \"#utility.yul\":411:453   */\n      0xffffffffffffffffffffffffffffffffffffffff\n        /* \"#utility.yul\":404:409   */\n      dup3\n        /* \"#utility.yul\":400:454   */\n      and\n        /* \"#utility.yul\":389:454   */\n      swap1\n      pop\n        /* \"#utility.yul\":334:460   */\n      swap2\n      swap1\n      pop\n      jump\t// out\n        /* \"#utility.yul\":466:562   */\n    tag_239:\n        /* \"#utility.yul\":503:510   */\n      0x00\n        /* \"#utility.yul\":532:556   */\n      tag_336\n        /* \"#utility.yul\":550:555   */\n      dup3\n        /* \"#utility.yul\":532:556   */\n      tag_238\n      jump\t// in\n    tag_336:\n        /* \"#utility.yul\":521:556   */\n      swap1\n      pop\n        /* \"#utility.yul\":466:562   */\n      swap2\n      swap1\n      pop\n      jump\t// out\n        /* \"#utility.yul\":568:690   */\n    tag_240:\n        /* \"#utility.yul\":641:665   */\n      tag_338\n        /* \"#utility.yul\":659:664   */\n      dup2\n        /* \"#utility.yul\":641:665   */\n      tag_239\n      jump\t// in\n    tag_338:\n        /* \"#utility.yul\":634:639   */\n      dup2\n        /* \"#utility.yul\":631:666   */\n      eq\n        /* \"#utility.yul\":621:684   */\n      tag_339\n      jumpi\n        /* \"#utility.yul\":680:681   */\n      0x00\n        /* \"#utility.yul\":677:678   */\n      dup1\n        /* \"#utility.yul\":670:682   */\n      revert\n        /* \"#utility.yul\":621:684   */\n    tag_339:\n        /* \"#utility.yul\":568:690   */\n      pop\n      jump\t// out\n        /* \"#utility.yul\":696:835   */\n    tag_241:\n        /* \"#utility.yul\":742:747   */\n      0x00\n        /* \"#utility.yul\":780:786   */\n      dup2\n        /* \"#utility.yul\":767:787   */\n      calldataload\n        /* \"#utility.yul\":758:787   */\n      swap1\n      pop\n        /* \"#utility.yul\":796:829   */\n      tag_341\n        /* \"#utility.yul\":823:828   */\n      dup2\n        /* \"#utility.yul\":796:829   */\n      tag_240\n      jump\t// in\n    tag_341:\n        /* \"#utility.yul\":696:835   */\n      swap3\n      swap2\n      pop\n      pop\n      jump\t// out\n        /* \"#utility.yul\":841:958   */\n    tag_242:\n        /* \"#utility.yul\":950:951   */\n      0x00\n        /* \"#utility.yul\":947:948   */\n      dup1\n        /* \"#utility.yul\":940:952   */\n      revert\n        /* \"#utility.yul\":964:1081   */\n    tag_243:\n        /* \"#utility.yul\":1073:1074   */\n      0x00\n        /* \"#utility.yul\":1070:1071   */\n      dup1\n        /* \"#utility.yul\":1063:1075   */\n      revert\n        /* \"#utility.yul\":1087:1189   */\n    tag_244:\n        /* \"#utility.yul\":1128:1134   */\n      0x00\n        /* \"#utility.yul\":1179:1181   */\n      0x1f\n        /* \"#utility.yul\":1175:1182   */\n      not\n        /* \"#utility.yul\":1170:1172   */\n      0x1f\n        /* \"#utility.yul\":1163:1168   */\n      dup4\n        /* \"#utility.yul\":1159:1173   */\n      add\n        /* \"#utility.yul\":1155:1183   */\n      and\n        /* \"#utility.yul\":1145:1183   */\n      swap1\n      pop\n        /* \"#utility.yul\":1087:1189   */\n      swap2\n      swap1\n      pop\n      jump\t// out\n        /* \"#utility.yul\":1195:1375   */\n    tag_112:\n        /* \"#utility.yul\":1243:1320   */\n      0x4e487b7100000000000000000000000000000000000000000000000000000000\n        /* \"#utility.yul\":1240:1241   */\n      0x00\n        /* \"#utility.yul\":1233:1321   */\n      mstore\n        /* \"#utility.yul\":1340:1344   */\n      0x41\n        /* \"#utility.yul\":1337:1338   */\n      0x04\n        /* \"#utility.yul\":1330:1345   */\n      mstore\n        /* \"#utility.yul\":1364:1368   */\n      0x24\n        /* \"#utility.yul\":1361:1362   */\n      0x00\n        /* \"#utility.yul\":1354:1369   */\n      revert\n        /* \"#utility.yul\":1381:1662   */\n    tag_245:\n        /* \"#utility.yul\":1464:1491   */\n      tag_347\n        /* \"#utility.yul\":1486:1490   */\n      dup3\n        /* \"#utility.yul\":1464:1491   */\n      tag_244\n      jump\t// in\n    tag_347:\n        /* \"#utility.yul\":1456:1462   */\n      dup2\n        /* \"#utility.yul\":1452:1492   */\n      add\n        /* \"#utility.yul\":1594:1600   */\n      dup2\n        /* \"#utility.yul\":1582:1592   */\n      dup2\n        /* \"#utility.yul\":1579:1601   */\n      lt\n        /* \"#utility.yul\":1558:1576   */\n      0xffffffffffffffff\n        /* \"#utility.yul\":1546:1556   */\n      dup3\n        /* \"#utility.yul\":1543:1577   */\n      gt\n        /* \"#utility.yul\":1540:1602   */\n      or\n        /* \"#utility.yul\":1537:1625   */\n      iszero\n      tag_348\n      jumpi\n        /* \"#utility.yul\":1605:1623   */\n      tag_349\n      tag_112\n      jump\t// in\n    tag_349:\n        /* \"#utility.yul\":1537:1625   */\n    tag_348:\n        /* \"#utility.yul\":1645:1655   */\n      dup1\n        /* \"#utility.yul\":1641:1643   */\n      0x40\n        /* \"#utility.yul\":1634:1656   */\n      mstore\n        /* \"#utility.yul\":1424:1662   */\n      pop\n        /* \"#utility.yul\":1381:1662   */\n      pop\n      pop\n      jump\t// out\n        /* \"#utility.yul\":1668:1797   */\n    tag_246:\n        /* \"#utility.yul\":1702:1708   */\n      0x00\n        /* \"#utility.yul\":1729:1749   */\n      tag_351\n      tag_235\n      jump\t// in\n    tag_351:\n        /* \"#utility.yul\":1719:1749   */\n      swap1\n      pop\n        /* \"#utility.yul\":1758:1791   */\n      tag_352\n        /* \"#utility.yul\":1786:1790   */\n      dup3\n        /* \"#utility.yul\":1778:1784   */\n      dup3\n        /* \"#utility.yul\":1758:1791   */\n      tag_245\n      jump\t// in\n    tag_352:\n        /* \"#utility.yul\":1668:1797   */\n      swap2\n      swap1\n      pop\n      jump\t// out\n        /* \"#utility.yul\":1803:2111   */\n    tag_247:\n        /* \"#utility.yul\":1865:1869   */\n      0x00\n        /* \"#utility.yul\":1955:1973   */\n      0xffffffffffffffff\n        /* \"#utility.yul\":1947:1953   */\n      dup3\n        /* \"#utility.yul\":1944:1974   */\n      gt\n        /* \"#utility.yul\":1941:1997   */\n      iszero\n      tag_354\n      jumpi\n        /* \"#utility.yul\":1977:1995   */\n      tag_355\n      tag_112\n      jump\t// in\n    tag_355:\n        /* \"#utility.yul\":1941:1997   */\n    tag_354:\n        /* \"#utility.yul\":2015:2044   */\n      tag_356\n        /* \"#utility.yul\":2037:2043   */\n      dup3\n        /* \"#utility.yul\":2015:2044   */\n      tag_244\n      jump\t// in\n    tag_356:\n        /* \"#utility.yul\":2007:2044   */\n      swap1\n      pop\n        /* \"#utility.yul\":2099:2103   */\n      0x20\n        /* \"#utility.yul\":2093:2097   */\n      dup2\n        /* \"#utility.yul\":2089:2104   */\n      add\n        /* \"#utility.yul\":2081:2104   */\n      swap1\n      pop\n        /* \"#utility.yul\":1803:2111   */\n      swap2\n      swap1\n      pop\n      jump\t// out\n        /* \"#utility.yul\":2117:2271   */\n    tag_248:\n        /* \"#utility.yul\":2201:2207   */\n      dup3\n        /* \"#utility.yul\":2196:2199   */\n      dup2\n        /* \"#utility.yul\":2191:2194   */\n      dup4\n        /* \"#utility.yul\":2178:2208   */\n      calldatacopy\n        /* \"#utility.yul\":2263:2264   */\n      0x00\n        /* \"#utility.yul\":2254:2260   */\n      dup4\n        /* \"#utility.yul\":2249:2252   */\n      dup4\n        /* \"#utility.yul\":2245:2261   */\n      add\n        /* \"#utility.yul\":2238:2265   */\n      mstore\n        /* \"#utility.yul\":2117:2271   */\n      pop\n      pop\n      pop\n      jump\t// out\n        /* \"#utility.yul\":2277:2689   */\n    tag_249:\n        /* \"#utility.yul\":2355:2360   */\n      0x00\n        /* \"#utility.yul\":2380:2446   */\n      tag_359\n        /* \"#utility.yul\":2396:2445   */\n      tag_360\n        /* \"#utility.yul\":2438:2444   */\n      dup5\n        /* \"#utility.yul\":2396:2445   */\n      tag_247\n      jump\t// in\n    tag_360:\n        /* \"#utility.yul\":2380:2446   */\n      tag_246\n      jump\t// in\n    tag_359:\n        /* \"#utility.yul\":2371:2446   */\n      swap1\n      pop\n        /* \"#utility.yul\":2469:2475   */\n      dup3\n        /* \"#utility.yul\":2462:2467   */\n      dup2\n        /* \"#utility.yul\":2455:2476   */\n      mstore\n        /* \"#utility.yul\":2507:2511   */\n      0x20\n        /* \"#utility.yul\":2500:2505   */\n      dup2\n        /* \"#utility.yul\":2496:2512   */\n      add\n        /* \"#utility.yul\":2545:2548   */\n      dup5\n        /* \"#utility.yul\":2536:2542   */\n      dup5\n        /* \"#utility.yul\":2531:2534   */\n      dup5\n        /* \"#utility.yul\":2527:2543   */\n      add\n        /* \"#utility.yul\":2524:2549   */\n      gt\n        /* \"#utility.yul\":2521:2633   */\n      iszero\n      tag_361\n      jumpi\n        /* \"#utility.yul\":2552:2631   */\n      tag_362\n      tag_243\n      jump\t// in\n    tag_362:\n        /* \"#utility.yul\":2521:2633   */\n    tag_361:\n        /* \"#utility.yul\":2642:2683   */\n      tag_363\n        /* \"#utility.yul\":2676:2682   */\n      dup5\n        /* \"#utility.yul\":2671:2674   */\n      dup3\n        /* \"#utility.yul\":2666:2669   */\n      dup6\n        /* \"#utility.yul\":2642:2683   */\n      tag_248\n      jump\t// in\n    tag_363:\n        /* \"#utility.yul\":2361:2689   */\n      pop\n        /* \"#utility.yul\":2277:2689   */\n      swap4\n      swap3\n      pop\n      pop\n      pop\n      jump\t// out\n        /* \"#utility.yul\":2709:3049   */\n    tag_250:\n        /* \"#utility.yul\":2765:2770   */\n      0x00\n        /* \"#utility.yul\":2814:2817   */\n      dup3\n        /* \"#utility.yul\":2807:2811   */\n      0x1f\n        /* \"#utility.yul\":2799:2805   */\n      dup4\n        /* \"#utility.yul\":2795:2812   */\n      add\n        /* \"#utility.yul\":2791:2818   */\n      slt\n        /* \"#utility.yul\":2781:2903   */\n      tag_365\n      jumpi\n        /* \"#utility.yul\":2822:2901   */\n      tag_366\n      tag_242\n      jump\t// in\n    tag_366:\n        /* \"#utility.yul\":2781:2903   */\n    tag_365:\n        /* \"#utility.yul\":2939:2945   */\n      dup2\n        /* \"#utility.yul\":2926:2946   */\n      calldataload\n        /* \"#utility.yul\":2964:3043   */\n      tag_367\n        /* \"#utility.yul\":3039:3042   */\n      dup5\n        /* \"#utility.yul\":3031:3037   */\n      dup3\n        /* \"#utility.yul\":3024:3028   */\n      0x20\n        /* \"#utility.yul\":3016:3022   */\n      dup7\n        /* \"#utility.yul\":3012:3029   */\n      add\n        /* \"#utility.yul\":2964:3043   */\n      tag_249\n      jump\t// in\n    tag_367:\n        /* \"#utility.yul\":2955:3043   */\n      swap2\n      pop\n        /* \"#utility.yul\":2771:3049   */\n      pop\n        /* \"#utility.yul\":2709:3049   */\n      swap3\n      swap2\n      pop\n      pop\n      jump\t// out\n        /* \"#utility.yul\":3055:3132   */\n    tag_251:\n        /* \"#utility.yul\":3092:3099   */\n      0x00\n        /* \"#utility.yul\":3121:3126   */\n      dup2\n        /* \"#utility.yul\":3110:3126   */\n      swap1\n      pop\n        /* \"#utility.yul\":3055:3132   */\n      swap2\n      swap1\n      pop\n      jump\t// out\n        /* \"#utility.yul\":3138:3260   */\n    tag_252:\n        /* \"#utility.yul\":3211:3235   */\n      tag_370\n        /* \"#utility.yul\":3229:3234   */\n      dup2\n        /* \"#utility.yul\":3211:3235   */\n      tag_251\n      jump\t// in\n    tag_370:\n        /* \"#utility.yul\":3204:3209   */\n      dup2\n        /* \"#utility.yul\":3201:3236   */\n      eq\n        /* \"#utility.yul\":3191:3254   */\n      tag_371\n      jumpi\n        /* \"#utility.yul\":3250:3251   */\n      0x00\n        /* \"#utility.yul\":3247:3248   */\n      dup1\n        /* \"#utility.yul\":3240:3252   */\n      revert\n        /* \"#utility.yul\":3191:3254   */\n    tag_371:\n        /* \"#utility.yul\":3138:3260   */\n      pop\n      jump\t// out\n        /* \"#utility.yul\":3266:3405   */\n    tag_253:\n        /* \"#utility.yul\":3312:3317   */\n      0x00\n        /* \"#utility.yul\":3350:3356   */\n      dup2\n        /* \"#utility.yul\":3337:3357   */\n      calldataload\n        /* \"#utility.yul\":3328:3357   */\n      swap1\n      pop\n        /* \"#utility.yul\":3366:3399   */\n      tag_373\n        /* \"#utility.yul\":3393:3398   */\n      dup2\n        /* \"#utility.yul\":3366:3399   */\n      tag_252\n      jump\t// in\n    tag_373:\n        /* \"#utility.yul\":3266:3405   */\n      swap3\n      swap2\n      pop\n      pop\n      jump\t// out\n        /* \"#utility.yul\":3411:4356   */\n    tag_18:\n        /* \"#utility.yul\":3507:3513   */\n      0x00\n        /* \"#utility.yul\":3515:3521   */\n      dup1\n        /* \"#utility.yul\":3523:3529   */\n      0x00\n        /* \"#utility.yul\":3531:3537   */\n      dup1\n        /* \"#utility.yul\":3580:3583   */\n      0x80\n        /* \"#utility.yul\":3568:3577   */\n      dup6\n        /* \"#utility.yul\":3559:3566   */\n      dup8\n        /* \"#utility.yul\":3555:3578   */\n      sub\n        /* \"#utility.yul\":3551:3584   */\n      slt\n        /* \"#utility.yul\":3548:3668   */\n      iszero\n      tag_375\n      jumpi\n        /* \"#utility.yul\":3587:3666   */\n      tag_376\n      tag_236\n      jump\t// in\n    tag_376:\n        /* \"#utility.yul\":3548:3668   */\n    tag_375:\n        /* \"#utility.yul\":3707:3708   */\n      0x00\n        /* \"#utility.yul\":3732:3785   */\n      tag_377\n        /* \"#utility.yul\":3777:3784   */\n      dup8\n        /* \"#utility.yul\":3768:3774   */\n      dup3\n        /* \"#utility.yul\":3757:3766   */\n      dup9\n        /* \"#utility.yul\":3753:3775   */\n      add\n        /* \"#utility.yul\":3732:3785   */\n      tag_241\n      jump\t// in\n    tag_377:\n        /* \"#utility.yul\":3722:3785   */\n      swap5\n      pop\n        /* \"#utility.yul\":3678:3795   */\n      pop\n        /* \"#utility.yul\":3862:3864   */\n      0x20\n        /* \"#utility.yul\":3851:3860   */\n      dup6\n        /* \"#utility.yul\":3847:3865   */\n      add\n        /* \"#utility.yul\":3834:3866   */\n      calldataload\n        /* \"#utility.yul\":3893:3911   */\n      0xffffffffffffffff\n        /* \"#utility.yul\":3885:3891   */\n      dup2\n        /* \"#utility.yul\":3882:3912   */\n      gt\n        /* \"#utility.yul\":3879:3996   */\n      iszero\n      tag_378\n      jumpi\n        /* \"#utility.yul\":3915:3994   */\n      tag_379\n      tag_237\n      jump\t// in\n    tag_379:\n        /* \"#utility.yul\":3879:3996   */\n    tag_378:\n        /* \"#utility.yul\":4020:4083   */\n      tag_380\n        /* \"#utility.yul\":4075:4082   */\n      dup8\n        /* \"#utility.yul\":4066:4072   */\n      dup3\n        /* \"#utility.yul\":4055:4064   */\n      dup9\n        /* \"#utility.yul\":4051:4073   */\n      add\n        /* \"#utility.yul\":4020:4083   */\n      tag_250\n      jump\t// in\n    tag_380:\n        /* \"#utility.yul\":4010:4083   */\n      swap4\n      pop\n        /* \"#utility.yul\":3805:4093   */\n      pop\n        /* \"#utility.yul\":4132:4134   */\n      0x40\n        /* \"#utility.yul\":4158:4211   */\n      tag_381\n        /* \"#utility.yul\":4203:4210   */\n      dup8\n        /* \"#utility.yul\":4194:4200   */\n      dup3\n        /* \"#utility.yul\":4183:4192   */\n      dup9\n        /* \"#utility.yul\":4179:4201   */\n      add\n        /* \"#utility.yul\":4158:4211   */\n      tag_253\n      jump\t// in\n    tag_381:\n        /* \"#utility.yul\":4148:4211   */\n      swap3\n      pop\n        /* \"#utility.yul\":4103:4221   */\n      pop\n        /* \"#utility.yul\":4260:4262   */\n      0x60\n        /* \"#utility.yul\":4286:4339   */\n      tag_382\n        /* \"#utility.yul\":4331:4338   */\n      dup8\n        /* \"#utility.yul\":4322:4328   */\n      dup3\n        /* \"#utility.yul\":4311:4320   */\n      dup9\n        /* \"#utility.yul\":4307:4329   */\n      add\n        /* \"#utility.yul\":4286:4339   */\n      tag_253\n      jump\t// in\n    tag_382:\n        /* \"#utility.yul\":4276:4339   */\n      swap2\n      pop\n        /* \"#utility.yul\":4231:4349   */\n      pop\n        /* \"#utility.yul\":3411:4356   */\n      swap3\n      swap6\n      swap2\n      swap5\n      pop\n      swap3\n      pop\n      jump\t// out\n        /* \"#utility.yul\":4362:4439   */\n    tag_254:\n        /* \"#utility.yul\":4399:4406   */\n      0x00\n        /* \"#utility.yul\":4428:4433   */\n      dup2\n        /* \"#utility.yul\":4417:4433   */\n      swap1\n      pop\n        /* \"#utility.yul\":4362:4439   */\n      swap2\n      swap1\n      pop\n      jump\t// out\n        /* \"#utility.yul\":4445:4563   */\n    tag_255:\n        /* \"#utility.yul\":4532:4556   */\n      tag_385\n        /* \"#utility.yul\":4550:4555   */\n      dup2\n        /* \"#utility.yul\":4532:4556   */\n      tag_254\n      jump\t// in\n    tag_385:\n        /* \"#utility.yul\":4527:4530   */\n      dup3\n        /* \"#utility.yul\":4520:4557   */\n      mstore\n        /* \"#utility.yul\":4445:4563   */\n      pop\n      pop\n      jump\t// out\n        /* \"#utility.yul\":4569:4791   */\n    tag_21:\n        /* \"#utility.yul\":4662:4666   */\n      0x00\n        /* \"#utility.yul\":4700:4702   */\n      0x20\n        /* \"#utility.yul\":4689:4698   */\n      dup3\n        /* \"#utility.yul\":4685:4703   */\n      add\n        /* \"#utility.yul\":4677:4703   */\n      swap1\n      pop\n        /* \"#utility.yul\":4713:4784   */\n      tag_387\n        /* \"#utility.yul\":4781:4782   */\n      0x00\n        /* \"#utility.yul\":4770:4779   */\n      dup4\n        /* \"#utility.yul\":4766:4783   */\n      add\n        /* \"#utility.yul\":4757:4763   */\n      dup5\n        /* \"#utility.yul\":4713:4784   */\n      tag_255\n      jump\t// in\n    tag_387:\n        /* \"#utility.yul\":4569:4791   */\n      swap3\n      swap2\n      pop\n      pop\n      jump\t// out\n        /* \"#utility.yul\":4797:5104   */\n    tag_256:\n        /* \"#utility.yul\":4858:4862   */\n      0x00\n        /* \"#utility.yul\":4948:4966   */\n      0xffffffffffffffff\n        /* \"#utility.yul\":4940:4946   */\n      dup3\n        /* \"#utility.yul\":4937:4967   */\n      gt\n        /* \"#utility.yul\":4934:4990   */\n      iszero\n      tag_389\n      jumpi\n        /* \"#utility.yul\":4970:4988   */\n      tag_390\n      tag_112\n      jump\t// in\n    tag_390:\n        /* \"#utility.yul\":4934:4990   */\n    tag_389:\n        /* \"#utility.yul\":5008:5037   */\n      tag_391\n        /* \"#utility.yul\":5030:5036   */\n      dup3\n        /* \"#utility.yul\":5008:5037   */\n      tag_244\n      jump\t// in\n    tag_391:\n        /* \"#utility.yul\":5000:5037   */\n      swap1\n      pop\n        /* \"#utility.yul\":5092:5096   */\n      0x20\n        /* \"#utility.yul\":5086:5090   */\n      dup2\n        /* \"#utility.yul\":5082:5097   */\n      add\n        /* \"#utility.yul\":5074:5097   */\n      swap1\n      pop\n        /* \"#utility.yul\":4797:5104   */\n      swap2\n      swap1\n      pop\n      jump\t// out\n        /* \"#utility.yul\":5110:5520   */\n    tag_257:\n        /* \"#utility.yul\":5187:5192   */\n      0x00\n        /* \"#utility.yul\":5212:5277   */\n      tag_393\n        /* \"#utility.yul\":5228:5276   */\n      tag_394\n        /* \"#utility.yul\":5269:5275   */\n      dup5\n        /* \"#utility.yul\":5228:5276   */\n      tag_256\n      jump\t// in\n    tag_394:\n        /* \"#utility.yul\":5212:5277   */\n      tag_246\n      jump\t// in\n    tag_393:\n        /* \"#utility.yul\":5203:5277   */\n      swap1\n      pop\n        /* \"#utility.yul\":5300:5306   */\n      dup3\n        /* \"#utility.yul\":5293:5298   */\n      dup2\n        /* \"#utility.yul\":5286:5307   */\n      mstore\n        /* \"#utility.yul\":5338:5342   */\n      0x20\n        /* \"#utility.yul\":5331:5336   */\n      dup2\n        /* \"#utility.yul\":5327:5343   */\n      add\n        /* \"#utility.yul\":5376:5379   */\n      dup5\n        /* \"#utility.yul\":5367:5373   */\n      dup5\n        /* \"#utility.yul\":5362:5365   */\n      dup5\n        /* \"#utility.yul\":5358:5374   */\n      add\n        /* \"#utility.yul\":5355:5380   */\n      gt\n        /* \"#utility.yul\":5352:5464   */\n      iszero\n      tag_395\n      jumpi\n        /* \"#utility.yul\":5383:5462   */\n      tag_396\n      tag_243\n      jump\t// in\n    tag_396:\n        /* \"#utility.yul\":5352:5464   */\n    tag_395:\n        /* \"#utility.yul\":5473:5514   */\n      tag_397\n        /* \"#utility.yul\":5507:5513   */\n      dup5\n        /* \"#utility.yul\":5502:5505   */\n      dup3\n        /* \"#utility.yul\":5497:5500   */\n      dup6\n        /* \"#utility.yul\":5473:5514   */\n      tag_248\n      jump\t// in\n    tag_397:\n        /* \"#utility.yul\":5193:5520   */\n      pop\n        /* \"#utility.yul\":5110:5520   */\n      swap4\n      swap3\n      pop\n      pop\n      pop\n      jump\t// out\n        /* \"#utility.yul\":5539:5877   */\n    tag_258:\n        /* \"#utility.yul\":5594:5599   */\n      0x00\n        /* \"#utility.yul\":5643:5646   */\n      dup3\n        /* \"#utility.yul\":5636:5640   */\n      0x1f\n        /* \"#utility.yul\":5628:5634   */\n      dup4\n        /* \"#utility.yul\":5624:5641   */\n      add\n        /* \"#utility.yul\":5620:5647   */\n      slt\n        /* \"#utility.yul\":5610:5732   */\n      tag_399\n      jumpi\n        /* \"#utility.yul\":5651:5730   */\n      tag_400\n      tag_242\n      jump\t// in\n    tag_400:\n        /* \"#utility.yul\":5610:5732   */\n    tag_399:\n        /* \"#utility.yul\":5768:5774   */\n      dup2\n        /* \"#utility.yul\":5755:5775   */\n      calldataload\n        /* \"#utility.yul\":5793:5871   */\n      tag_401\n        /* \"#utility.yul\":5867:5870   */\n      dup5\n        /* \"#utility.yul\":5859:5865   */\n      dup3\n        /* \"#utility.yul\":5852:5856   */\n      0x20\n        /* \"#utility.yul\":5844:5850   */\n      dup7\n        /* \"#utility.yul\":5840:5857   */\n      add\n        /* \"#utility.yul\":5793:5871   */\n      tag_257\n      jump\t// in\n    tag_401:\n        /* \"#utility.yul\":5784:5871   */\n      swap2\n      pop\n        /* \"#utility.yul\":5600:5877   */\n      pop\n        /* \"#utility.yul\":5539:5877   */\n      swap3\n      swap2\n      pop\n      pop\n      jump\t// out\n        /* \"#utility.yul\":5883:7006   */\n    tag_24:\n        /* \"#utility.yul\":5988:5994   */\n      0x00\n        /* \"#utility.yul\":5996:6002   */\n      dup1\n        /* \"#utility.yul\":6004:6010   */\n      0x00\n        /* \"#utility.yul\":6012:6018   */\n      dup1\n        /* \"#utility.yul\":6061:6064   */\n      0x80\n        /* \"#utility.yul\":6049:6058   */\n      dup6\n        /* \"#utility.yul\":6040:6047   */\n      dup8\n        /* \"#utility.yul\":6036:6059   */\n      sub\n        /* \"#utility.yul\":6032:6065   */\n      slt\n        /* \"#utility.yul\":6029:6149   */\n      iszero\n      tag_403\n      jumpi\n        /* \"#utility.yul\":6068:6147   */\n      tag_404\n      tag_236\n      jump\t// in\n    tag_404:\n        /* \"#utility.yul\":6029:6149   */\n    tag_403:\n        /* \"#utility.yul\":6188:6189   */\n      0x00\n        /* \"#utility.yul\":6213:6266   */\n      tag_405\n        /* \"#utility.yul\":6258:6265   */\n      dup8\n        /* \"#utility.yul\":6249:6255   */\n      dup3\n        /* \"#utility.yul\":6238:6247   */\n      dup9\n        /* \"#utility.yul\":6234:6256   */\n      add\n        /* \"#utility.yul\":6213:6266   */\n      tag_241\n      jump\t// in\n    tag_405:\n        /* \"#utility.yul\":6203:6266   */\n      swap5\n      pop\n        /* \"#utility.yul\":6159:6276   */\n      pop\n        /* \"#utility.yul\":6343:6345   */\n      0x20\n        /* \"#utility.yul\":6332:6341   */\n      dup6\n        /* \"#utility.yul\":6328:6346   */\n      add\n        /* \"#utility.yul\":6315:6347   */\n      calldataload\n        /* \"#utility.yul\":6374:6392   */\n      0xffffffffffffffff\n        /* \"#utility.yul\":6366:6372   */\n      dup2\n        /* \"#utility.yul\":6363:6393   */\n      gt\n        /* \"#utility.yul\":6360:6477   */\n      iszero\n      tag_406\n      jumpi\n        /* \"#utility.yul\":6396:6475   */\n      tag_407\n      tag_237\n      jump\t// in\n    tag_407:\n        /* \"#utility.yul\":6360:6477   */\n    tag_406:\n        /* \"#utility.yul\":6501:6564   */\n      tag_408\n        /* \"#utility.yul\":6556:6563   */\n      dup8\n        /* \"#utility.yul\":6547:6553   */\n      dup3\n        /* \"#utility.yul\":6536:6545   */\n      dup9\n        /* \"#utility.yul\":6532:6554   */\n      add\n        /* \"#utility.yul\":6501:6564   */\n      tag_250\n      jump\t// in\n    tag_408:\n        /* \"#utility.yul\":6491:6564   */\n      swap4\n      pop\n        /* \"#utility.yul\":6286:6574   */\n      pop\n        /* \"#utility.yul\":6613:6615   */\n      0x40\n        /* \"#utility.yul\":6639:6692   */\n      tag_409\n        /* \"#utility.yul\":6684:6691   */\n      dup8\n        /* \"#utility.yul\":6675:6681   */\n      dup3\n        /* \"#utility.yul\":6664:6673   */\n      dup9\n        /* \"#utility.yul\":6660:6682   */\n      add\n        /* \"#utility.yul\":6639:6692   */\n      tag_253\n      jump\t// in\n    tag_409:\n        /* \"#utility.yul\":6629:6692   */\n      swap3\n      pop\n        /* \"#utility.yul\":6584:6702   */\n      pop\n        /* \"#utility.yul\":6769:6771   */\n      0x60\n        /* \"#utility.yul\":6758:6767   */\n      dup6\n        /* \"#utility.yul\":6754:6772   */\n      add\n        /* \"#utility.yul\":6741:6773   */\n      calldataload\n        /* \"#utility.yul\":6800:6818   */\n      0xffffffffffffffff\n        /* \"#utility.yul\":6792:6798   */\n      dup2\n        /* \"#utility.yul\":6789:6819   */\n      gt\n        /* \"#utility.yul\":6786:6903   */\n      iszero\n      tag_410\n      jumpi\n        /* \"#utility.yul\":6822:6901   */\n      tag_411\n      tag_237\n      jump\t// in\n    tag_411:\n        /* \"#utility.yul\":6786:6903   */\n    tag_410:\n        /* \"#utility.yul\":6927:6989   */\n      tag_412\n        /* \"#utility.yul\":6981:6988   */\n      dup8\n        /* \"#utility.yul\":6972:6978   */\n      dup3\n        /* \"#utility.yul\":6961:6970   */\n      dup9\n        /* \"#utility.yul\":6957:6979   */\n      add\n        /* \"#utility.yul\":6927:6989   */\n      tag_258\n      jump\t// in\n    tag_412:\n        /* \"#utility.yul\":6917:6989   */\n      swap2\n      pop\n        /* \"#utility.yul\":6712:6999   */\n      pop\n        /* \"#utility.yul\":5883:7006   */\n      swap3\n      swap6\n      swap2\n      swap5\n      pop\n      swap3\n      pop\n      jump\t// out\n        /* \"#utility.yul\":7012:7521   */\n    tag_28:\n        /* \"#utility.yul\":7081:7087   */\n      0x00\n        /* \"#utility.yul\":7130:7132   */\n      0x20\n        /* \"#utility.yul\":7118:7127   */\n      dup3\n        /* \"#utility.yul\":7109:7116   */\n      dup5\n        /* \"#utility.yul\":7105:7128   */\n      sub\n        /* \"#utility.yul\":7101:7133   */\n      slt\n        /* \"#utility.yul\":7098:7217   */\n      iszero\n      tag_414\n      jumpi\n        /* \"#utility.yul\":7136:7215   */\n      tag_415\n      tag_236\n      jump\t// in\n    tag_415:\n        /* \"#utility.yul\":7098:7217   */\n    tag_414:\n        /* \"#utility.yul\":7284:7285   */\n      0x00\n        /* \"#utility.yul\":7273:7282   */\n      dup3\n        /* \"#utility.yul\":7269:7286   */\n      add\n        /* \"#utility.yul\":7256:7287   */\n      calldataload\n        /* \"#utility.yul\":7314:7332   */\n      0xffffffffffffffff\n        /* \"#utility.yul\":7306:7312   */\n      dup2\n        /* \"#utility.yul\":7303:7333   */\n      gt\n        /* \"#utility.yul\":7300:7417   */\n      iszero\n      tag_416\n      jumpi\n        /* \"#utility.yul\":7336:7415   */\n      tag_417\n      tag_237\n      jump\t// in\n    tag_417:\n        /* \"#utility.yul\":7300:7417   */\n    tag_416:\n        /* \"#utility.yul\":7441:7504   */\n      tag_418\n        /* \"#utility.yul\":7496:7503   */\n      dup5\n        /* \"#utility.yul\":7487:7493   */\n      dup3\n        /* \"#utility.yul\":7476:7485   */\n      dup6\n        /* \"#utility.yul\":7472:7494   */\n      add\n        /* \"#utility.yul\":7441:7504   */\n      tag_250\n      jump\t// in\n    tag_418:\n        /* \"#utility.yul\":7431:7504   */\n      swap2\n      pop\n        /* \"#utility.yul\":7227:7514   */\n      pop\n        /* \"#utility.yul\":7012:7521   */\n      swap3\n      swap2\n      pop\n      pop\n      jump\t// out\n        /* \"#utility.yul\":7527:7641   */\n    tag_259:\n        /* \"#utility.yul\":7594:7600   */\n      0x00\n        /* \"#utility.yul\":7628:7633   */\n      dup2\n        /* \"#utility.yul\":7622:7634   */\n      mload\n        /* \"#utility.yul\":7612:7634   */\n      swap1\n      pop\n        /* \"#utility.yul\":7527:7641   */\n      swap2\n      swap1\n      pop\n      jump\t// out\n        /* \"#utility.yul\":7647:7831   */\n    tag_260:\n        /* \"#utility.yul\":7746:7757   */\n      0x00\n        /* \"#utility.yul\":7780:7786   */\n      dup3\n        /* \"#utility.yul\":7775:7778   */\n      dup3\n        /* \"#utility.yul\":7768:7787   */\n      mstore\n        /* \"#utility.yul\":7820:7824   */\n      0x20\n        /* \"#utility.yul\":7815:7818   */\n      dup3\n        /* \"#utility.yul\":7811:7825   */\n      add\n        /* \"#utility.yul\":7796:7825   */\n      swap1\n      pop\n        /* \"#utility.yul\":7647:7831   */\n      swap3\n      swap2\n      pop\n      pop\n      jump\t// out\n        /* \"#utility.yul\":7837:7969   */\n    tag_261:\n        /* \"#utility.yul\":7904:7908   */\n      0x00\n        /* \"#utility.yul\":7927:7930   */\n      dup2\n        /* \"#utility.yul\":7919:7930   */\n      swap1\n      pop\n        /* \"#utility.yul\":7957:7961   */\n      0x20\n        /* \"#utility.yul\":7952:7955   */\n      dup3\n        /* \"#utility.yul\":7948:7962   */\n      add\n        /* \"#utility.yul\":7940:7962   */\n      swap1\n      pop\n        /* \"#utility.yul\":7837:7969   */\n      swap2\n      swap1\n      pop\n      jump\t// out\n        /* \"#utility.yul\":7975:8083   */\n    tag_262:\n        /* \"#utility.yul\":8052:8076   */\n      tag_423\n        /* \"#utility.yul\":8070:8075   */\n      dup2\n        /* \"#utility.yul\":8052:8076   */\n      tag_251\n      jump\t// in\n    tag_423:\n        /* \"#utility.yul\":8047:8050   */\n      dup3\n        /* \"#utility.yul\":8040:8077   */\n      mstore\n        /* \"#utility.yul\":7975:8083   */\n      pop\n      pop\n      jump\t// out\n        /* \"#utility.yul\":8089:8268   */\n    tag_263:\n        /* \"#utility.yul\":8158:8168   */\n      0x00\n        /* \"#utility.yul\":8179:8225   */\n      tag_425\n        /* \"#utility.yul\":8221:8224   */\n      dup4\n        /* \"#utility.yul\":8213:8219   */\n      dup4\n        /* \"#utility.yul\":8179:8225   */\n      tag_262\n      jump\t// in\n    tag_425:\n        /* \"#utility.yul\":8257:8261   */\n      0x20\n        /* \"#utility.yul\":8252:8255   */\n      dup4\n        /* \"#utility.yul\":8248:8262   */\n      add\n        /* \"#utility.yul\":8234:8262   */\n      swap1\n      pop\n        /* \"#utility.yul\":8089:8268   */\n      swap3\n      swap2\n      pop\n      pop\n      jump\t// out\n        /* \"#utility.yul\":8274:8387   */\n    tag_264:\n        /* \"#utility.yul\":8344:8348   */\n      0x00\n        /* \"#utility.yul\":8376:8380   */\n      0x20\n        /* \"#utility.yul\":8371:8374   */\n      dup3\n        /* \"#utility.yul\":8367:8381   */\n      add\n        /* \"#utility.yul\":8359:8381   */\n      swap1\n      pop\n        /* \"#utility.yul\":8274:8387   */\n      swap2\n      swap1\n      pop\n      jump\t// out\n        /* \"#utility.yul\":8423:9155   */\n    tag_265:\n        /* \"#utility.yul\":8542:8545   */\n      0x00\n        /* \"#utility.yul\":8571:8625   */\n      tag_428\n        /* \"#utility.yul\":8619:8624   */\n      dup3\n        /* \"#utility.yul\":8571:8625   */\n      tag_259\n      jump\t// in\n    tag_428:\n        /* \"#utility.yul\":8641:8727   */\n      tag_429\n        /* \"#utility.yul\":8720:8726   */\n      dup2\n        /* \"#utility.yul\":8715:8718   */\n      dup6\n        /* \"#utility.yul\":8641:8727   */\n      tag_260\n      jump\t// in\n    tag_429:\n        /* \"#utility.yul\":8634:8727   */\n      swap4\n      pop\n        /* \"#utility.yul\":8751:8807   */\n      tag_430\n        /* \"#utility.yul\":8801:8806   */\n      dup4\n        /* \"#utility.yul\":8751:8807   */\n      tag_261\n      jump\t// in\n    tag_430:\n        /* \"#utility.yul\":8830:8837   */\n      dup1\n        /* \"#utility.yul\":8861:8862   */\n      0x00\n        /* \"#utility.yul\":8846:9130   */\n    tag_431:\n        /* \"#utility.yul\":8871:8877   */\n      dup4\n        /* \"#utility.yul\":8868:8869   */\n      dup2\n        /* \"#utility.yul\":8865:8878   */\n      lt\n        /* \"#utility.yul\":8846:9130   */\n      iszero\n      tag_433\n      jumpi\n        /* \"#utility.yul\":8947:8953   */\n      dup2\n        /* \"#utility.yul\":8941:8954   */\n      mload\n        /* \"#utility.yul\":8974:9037   */\n      tag_434\n        /* \"#utility.yul\":9033:9036   */\n      dup9\n        /* \"#utility.yul\":9018:9031   */\n      dup3\n        /* \"#utility.yul\":8974:9037   */\n      tag_263\n      jump\t// in\n    tag_434:\n        /* \"#utility.yul\":8967:9037   */\n      swap8\n      pop\n        /* \"#utility.yul\":9060:9120   */\n      tag_435\n        /* \"#utility.yul\":9113:9119   */\n      dup4\n        /* \"#utility.yul\":9060:9120   */\n      tag_264\n      jump\t// in\n    tag_435:\n        /* \"#utility.yul\":9050:9120   */\n      swap3\n      pop\n        /* \"#utility.yul\":8906:9130   */\n      pop\n        /* \"#utility.yul\":8893:8894   */\n      0x01\n        /* \"#utility.yul\":8890:8891   */\n      dup2\n        /* \"#utility.yul\":8886:8895   */\n      add\n        /* \"#utility.yul\":8881:8895   */\n      swap1\n      pop\n        /* \"#utility.yul\":8846:9130   */\n      jump(tag_431)\n    tag_433:\n        /* \"#utility.yul\":8850:8864   */\n      pop\n        /* \"#utility.yul\":9146:9149   */\n      dup6\n        /* \"#utility.yul\":9139:9149   */\n      swap4\n      pop\n        /* \"#utility.yul\":8547:9155   */\n      pop\n      pop\n      pop\n        /* \"#utility.yul\":8423:9155   */\n      swap3\n      swap2\n      pop\n      pop\n      jump\t// out\n        /* \"#utility.yul\":9161:9279   */\n    tag_266:\n        /* \"#utility.yul\":9248:9272   */\n      tag_437\n        /* \"#utility.yul\":9266:9271   */\n      dup2\n        /* \"#utility.yul\":9248:9272   */\n      tag_239\n      jump\t// in\n    tag_437:\n        /* \"#utility.yul\":9243:9246   */\n      dup3\n        /* \"#utility.yul\":9236:9273   */\n      mstore\n        /* \"#utility.yul\":9161:9279   */\n      pop\n      pop\n      jump\t// out\n        /* \"#utility.yul\":9285:9403   */\n    tag_267:\n        /* \"#utility.yul\":9372:9396   */\n      tag_439\n        /* \"#utility.yul\":9390:9395   */\n      dup2\n        /* \"#utility.yul\":9372:9396   */\n      tag_251\n      jump\t// in\n    tag_439:\n        /* \"#utility.yul\":9367:9370   */\n      dup3\n        /* \"#utility.yul\":9360:9397   */\n      mstore\n        /* \"#utility.yul\":9285:9403   */\n      pop\n      pop\n      jump\t// out\n        /* \"#utility.yul\":9409:10002   */\n    tag_31:\n        /* \"#utility.yul\":9608:9612   */\n      0x00\n        /* \"#utility.yul\":9646:9648   */\n      0x60\n        /* \"#utility.yul\":9635:9644   */\n      dup3\n        /* \"#utility.yul\":9631:9649   */\n      add\n        /* \"#utility.yul\":9623:9649   */\n      swap1\n      pop\n        /* \"#utility.yul\":9695:9704   */\n      dup2\n        /* \"#utility.yul\":9689:9693   */\n      dup2\n        /* \"#utility.yul\":9685:9705   */\n      sub\n        /* \"#utility.yul\":9681:9682   */\n      0x00\n        /* \"#utility.yul\":9670:9679   */\n      dup4\n        /* \"#utility.yul\":9666:9683   */\n      add\n        /* \"#utility.yul\":9659:9706   */\n      mstore\n        /* \"#utility.yul\":9723:9831   */\n      tag_441\n        /* \"#utility.yul\":9826:9830   */\n      dup2\n        /* \"#utility.yul\":9817:9823   */\n      dup7\n        /* \"#utility.yul\":9723:9831   */\n      tag_265\n      jump\t// in\n    tag_441:\n        /* \"#utility.yul\":9715:9831   */\n      swap1\n      pop\n        /* \"#utility.yul\":9841:9913   */\n      tag_442\n        /* \"#utility.yul\":9909:9911   */\n      0x20\n        /* \"#utility.yul\":9898:9907   */\n      dup4\n        /* \"#utility.yul\":9894:9912   */\n      add\n        /* \"#utility.yul\":9885:9891   */\n      dup6\n        /* \"#utility.yul\":9841:9913   */\n      tag_266\n      jump\t// in\n    tag_442:\n        /* \"#utility.yul\":9923:9995   */\n      tag_443\n        /* \"#utility.yul\":9991:9993   */\n      0x40\n        /* \"#utility.yul\":9980:9989   */\n      dup4\n        /* \"#utility.yul\":9976:9994   */\n      add\n        /* \"#utility.yul\":9967:9973   */\n      dup5\n        /* \"#utility.yul\":9923:9995   */\n      tag_267\n      jump\t// in\n    tag_443:\n        /* \"#utility.yul\":9409:10002   */\n      swap5\n      swap4\n      pop\n      pop\n      pop\n      pop\n      jump\t// out\n        /* \"#utility.yul\":10008:10662   */\n    tag_34:\n        /* \"#utility.yul\":10086:10092   */\n      0x00\n        /* \"#utility.yul\":10094:10100   */\n      dup1\n        /* \"#utility.yul\":10143:10145   */\n      0x40\n        /* \"#utility.yul\":10131:10140   */\n      dup4\n        /* \"#utility.yul\":10122:10129   */\n      dup6\n        /* \"#utility.yul\":10118:10141   */\n      sub\n        /* \"#utility.yul\":10114:10146   */\n      slt\n        /* \"#utility.yul\":10111:10230   */\n      iszero\n      tag_445\n      jumpi\n        /* \"#utility.yul\":10149:10228   */\n      tag_446\n      tag_236\n      jump\t// in\n    tag_446:\n        /* \"#utility.yul\":10111:10230   */\n    tag_445:\n        /* \"#utility.yul\":10269:10270   */\n      0x00\n        /* \"#utility.yul\":10294:10347   */\n      tag_447\n        /* \"#utility.yul\":10339:10346   */\n      dup6\n        /* \"#utility.yul\":10330:10336   */\n      dup3\n        /* \"#utility.yul\":10319:10328   */\n      dup7\n        /* \"#utility.yul\":10315:10337   */\n      add\n        /* \"#utility.yul\":10294:10347   */\n      tag_241\n      jump\t// in\n    tag_447:\n        /* \"#utility.yul\":10284:10347   */\n      swap3\n      pop\n        /* \"#utility.yul\":10240:10357   */\n      pop\n        /* \"#utility.yul\":10424:10426   */\n      0x20\n        /* \"#utility.yul\":10413:10422   */\n      dup4\n        /* \"#utility.yul\":10409:10427   */\n      add\n        /* \"#utility.yul\":10396:10428   */\n      calldataload\n        /* \"#utility.yul\":10455:10473   */\n      0xffffffffffffffff\n        /* \"#utility.yul\":10447:10453   */\n      dup2\n        /* \"#utility.yul\":10444:10474   */\n      gt\n        /* \"#utility.yul\":10441:10558   */\n      iszero\n      tag_448\n      jumpi\n        /* \"#utility.yul\":10477:10556   */\n      tag_449\n      tag_237\n      jump\t// in\n    tag_449:\n        /* \"#utility.yul\":10441:10558   */\n    tag_448:\n        /* \"#utility.yul\":10582:10645   */\n      tag_450\n        /* \"#utility.yul\":10637:10644   */\n      dup6\n        /* \"#utility.yul\":10628:10634   */\n      dup3\n        /* \"#utility.yul\":10617:10626   */\n      dup7\n        /* \"#utility.yul\":10613:10635   */\n      add\n        /* \"#utility.yul\":10582:10645   */\n      tag_250\n      jump\t// in\n    tag_450:\n        /* \"#utility.yul\":10572:10645   */\n      swap2\n      pop\n        /* \"#utility.yul\":10367:10655   */\n      pop\n        /* \"#utility.yul\":10008:10662   */\n      swap3\n      pop\n      swap3\n      swap1\n      pop\n      jump\t// out\n        /* \"#utility.yul\":10668:10761   */\n    tag_268:\n        /* \"#utility.yul\":10704:10711   */\n      0x00\n        /* \"#utility.yul\":10744:10754   */\n      0xffffffff\n        /* \"#utility.yul\":10737:10742   */\n      dup3\n        /* \"#utility.yul\":10733:10755   */\n      and\n        /* \"#utility.yul\":10722:10755   */\n      swap1\n      pop\n        /* \"#utility.yul\":10668:10761   */\n      swap2\n      swap1\n      pop\n      jump\t// out\n        /* \"#utility.yul\":10767:10882   */\n    tag_269:\n        /* \"#utility.yul\":10852:10875   */\n      tag_453\n        /* \"#utility.yul\":10869:10874   */\n      dup2\n        /* \"#utility.yul\":10852:10875   */\n      tag_268\n      jump\t// in\n    tag_453:\n        /* \"#utility.yul\":10847:10850   */\n      dup3\n        /* \"#utility.yul\":10840:10876   */\n      mstore\n        /* \"#utility.yul\":10767:10882   */\n      pop\n      pop\n      jump\t// out\n        /* \"#utility.yul\":10888:10978   */\n    tag_270:\n        /* \"#utility.yul\":10922:10929   */\n      0x00\n        /* \"#utility.yul\":10965:10970   */\n      dup2\n        /* \"#utility.yul\":10958:10971   */\n      iszero\n        /* \"#utility.yul\":10951:10972   */\n      iszero\n        /* \"#utility.yul\":10940:10972   */\n      swap1\n      pop\n        /* \"#utility.yul\":10888:10978   */\n      swap2\n      swap1\n      pop\n      jump\t// out\n        /* \"#utility.yul\":10984:11093   */\n    tag_271:\n        /* \"#utility.yul\":11065:11086   */\n      tag_456\n        /* \"#utility.yul\":11080:11085   */\n      dup2\n        /* \"#utility.yul\":11065:11086   */\n      tag_270\n      jump\t// in\n    tag_456:\n        /* \"#utility.yul\":11060:11063   */\n      dup3\n        /* \"#utility.yul\":11053:11087   */\n      mstore\n        /* \"#utility.yul\":10984:11093   */\n      pop\n      pop\n      jump\t// out\n        /* \"#utility.yul\":11099:11632   */\n    tag_40:\n        /* \"#utility.yul\":11266:11270   */\n      0x00\n        /* \"#utility.yul\":11304:11307   */\n      0x80\n        /* \"#utility.yul\":11293:11302   */\n      dup3\n        /* \"#utility.yul\":11289:11308   */\n      add\n        /* \"#utility.yul\":11281:11308   */\n      swap1\n      pop\n        /* \"#utility.yul\":11318:11389   */\n      tag_458\n        /* \"#utility.yul\":11386:11387   */\n      0x00\n        /* \"#utility.yul\":11375:11384   */\n      dup4\n        /* \"#utility.yul\":11371:11388   */\n      add\n        /* \"#utility.yul\":11362:11368   */\n      dup8\n        /* \"#utility.yul\":11318:11389   */\n      tag_266\n      jump\t// in\n    tag_458:\n        /* \"#utility.yul\":11399:11469   */\n      tag_459\n        /* \"#utility.yul\":11465:11467   */\n      0x20\n        /* \"#utility.yul\":11454:11463   */\n      dup4\n        /* \"#utility.yul\":11450:11468   */\n      add\n        /* \"#utility.yul\":11441:11447   */\n      dup7\n        /* \"#utility.yul\":11399:11469   */\n      tag_269\n      jump\t// in\n    tag_459:\n        /* \"#utility.yul\":11479:11549   */\n      tag_460\n        /* \"#utility.yul\":11545:11547   */\n      0x40\n        /* \"#utility.yul\":11534:11543   */\n      dup4\n        /* \"#utility.yul\":11530:11548   */\n      add\n        /* \"#utility.yul\":11521:11527   */\n      dup6\n        /* \"#utility.yul\":11479:11549   */\n      tag_269\n      jump\t// in\n    tag_460:\n        /* \"#utility.yul\":11559:11625   */\n      tag_461\n        /* \"#utility.yul\":11621:11623   */\n      0x60\n        /* \"#utility.yul\":11610:11619   */\n      dup4\n        /* \"#utility.yul\":11606:11624   */\n      add\n        /* \"#utility.yul\":11597:11603   */\n      dup5\n        /* \"#utility.yul\":11559:11625   */\n      tag_271\n      jump\t// in\n    tag_461:\n        /* \"#utility.yul\":11099:11632   */\n      swap6\n      swap5\n      pop\n      pop\n      pop\n      pop\n      pop\n      jump\t// out\n        /* \"#utility.yul\":11638:11967   */\n    tag_43:\n        /* \"#utility.yul\":11697:11703   */\n      0x00\n        /* \"#utility.yul\":11746:11748   */\n      0x20\n        /* \"#utility.yul\":11734:11743   */\n      dup3\n        /* \"#utility.yul\":11725:11732   */\n      dup5\n        /* \"#utility.yul\":11721:11744   */\n      sub\n        /* \"#utility.yul\":11717:11749   */\n      slt\n        /* \"#utility.yul\":11714:11833   */\n      iszero\n      tag_463\n      jumpi\n        /* \"#utility.yul\":11752:11831   */\n      tag_464\n      tag_236\n      jump\t// in\n    tag_464:\n        /* \"#utility.yul\":11714:11833   */\n    tag_463:\n        /* \"#utility.yul\":11872:11873   */\n      0x00\n        /* \"#utility.yul\":11897:11950   */\n      tag_465\n        /* \"#utility.yul\":11942:11949   */\n      dup5\n        /* \"#utility.yul\":11933:11939   */\n      dup3\n        /* \"#utility.yul\":11922:11931   */\n      dup6\n        /* \"#utility.yul\":11918:11940   */\n      add\n        /* \"#utility.yul\":11897:11950   */\n      tag_241\n      jump\t// in\n    tag_465:\n        /* \"#utility.yul\":11887:11950   */\n      swap2\n      pop\n        /* \"#utility.yul\":11843:11960   */\n      pop\n        /* \"#utility.yul\":11638:11967   */\n      swap3\n      swap2\n      pop\n      pop\n      jump\t// out\n        /* \"#utility.yul\":11973:12195   */\n    tag_46:\n        /* \"#utility.yul\":12066:12070   */\n      0x00\n        /* \"#utility.yul\":12104:12106   */\n      0x20\n        /* \"#utility.yul\":12093:12102   */\n      dup3\n        /* \"#utility.yul\":12089:12107   */\n      add\n        /* \"#utility.yul\":12081:12107   */\n      swap1\n      pop\n        /* \"#utility.yul\":12117:12188   */\n      tag_467\n        /* \"#utility.yul\":12185:12186   */\n      0x00\n        /* \"#utility.yul\":12174:12183   */\n      dup4\n        /* \"#utility.yul\":12170:12187   */\n      add\n        /* \"#utility.yul\":12161:12167   */\n      dup5\n        /* \"#utility.yul\":12117:12188   */\n      tag_267\n      jump\t// in\n    tag_467:\n        /* \"#utility.yul\":11973:12195   */\n      swap3\n      swap2\n      pop\n      pop\n      jump\t// out\n        /* \"#utility.yul\":12201:12530   */\n    tag_53:\n        /* \"#utility.yul\":12260:12266   */\n      0x00\n        /* \"#utility.yul\":12309:12311   */\n      0x20\n        /* \"#utility.yul\":12297:12306   */\n      dup3\n        /* \"#utility.yul\":12288:12295   */\n      dup5\n        /* \"#utility.yul\":12284:12307   */\n      sub\n        /* \"#utility.yul\":12280:12312   */\n      slt\n        /* \"#utility.yul\":12277:12396   */\n      iszero\n      tag_469\n      jumpi\n        /* \"#utility.yul\":12315:12394   */\n      tag_470\n      tag_236\n      jump\t// in\n    tag_470:\n        /* \"#utility.yul\":12277:12396   */\n    tag_469:\n        /* \"#utility.yul\":12435:12436   */\n      0x00\n        /* \"#utility.yul\":12460:12513   */\n      tag_471\n        /* \"#utility.yul\":12505:12512   */\n      dup5\n        /* \"#utility.yul\":12496:12502   */\n      dup3\n        /* \"#utility.yul\":12485:12494   */\n      dup6\n        /* \"#utility.yul\":12481:12503   */\n      add\n        /* \"#utility.yul\":12460:12513   */\n      tag_253\n      jump\t// in\n    tag_471:\n        /* \"#utility.yul\":12450:12513   */\n      swap2\n      pop\n        /* \"#utility.yul\":12406:12523   */\n      pop\n        /* \"#utility.yul\":12201:12530   */\n      swap3\n      swap2\n      pop\n      pop\n      jump\t// out\n        /* \"#utility.yul\":12536:12635   */\n    tag_272:\n        /* \"#utility.yul\":12588:12594   */\n      0x00\n        /* \"#utility.yul\":12622:12627   */\n      dup2\n        /* \"#utility.yul\":12616:12628   */\n      mload\n        /* \"#utility.yul\":12606:12628   */\n      swap1\n      pop\n        /* \"#utility.yul\":12536:12635   */\n      swap2\n      swap1\n      pop\n      jump\t// out\n        /* \"#utility.yul\":12641:12810   */\n    tag_273:\n        /* \"#utility.yul\":12725:12736   */\n      0x00\n        /* \"#utility.yul\":12759:12765   */\n      dup3\n        /* \"#utility.yul\":12754:12757   */\n      dup3\n        /* \"#utility.yul\":12747:12766   */\n      mstore\n        /* \"#utility.yul\":12799:12803   */\n      0x20\n        /* \"#utility.yul\":12794:12797   */\n      dup3\n        /* \"#utility.yul\":12790:12804   */\n      add\n        /* \"#utility.yul\":12775:12804   */\n      swap1\n      pop\n        /* \"#utility.yul\":12641:12810   */\n      swap3\n      swap2\n      pop\n      pop\n      jump\t// out\n        /* \"#utility.yul\":12816:13123   */\n    tag_274:\n        /* \"#utility.yul\":12884:12885   */\n      0x00\n        /* \"#utility.yul\":12894:13007   */\n    tag_475:\n        /* \"#utility.yul\":12908:12914   */\n      dup4\n        /* \"#utility.yul\":12905:12906   */\n      dup2\n        /* \"#utility.yul\":12902:12915   */\n      lt\n        /* \"#utility.yul\":12894:13007   */\n      iszero\n      tag_477\n      jumpi\n        /* \"#utility.yul\":12993:12994   */\n      dup1\n        /* \"#utility.yul\":12988:12991   */\n      dup3\n        /* \"#utility.yul\":12984:12995   */\n      add\n        /* \"#utility.yul\":12978:12996   */\n      mload\n        /* \"#utility.yul\":12974:12975   */\n      dup2\n        /* \"#utility.yul\":12969:12972   */\n      dup5\n        /* \"#utility.yul\":12965:12976   */\n      add\n        /* \"#utility.yul\":12958:12997   */\n      mstore\n        /* \"#utility.yul\":12930:12932   */\n      0x20\n        /* \"#utility.yul\":12927:12928   */\n      dup2\n        /* \"#utility.yul\":12923:12933   */\n      add\n        /* \"#utility.yul\":12918:12933   */\n      swap1\n      pop\n        /* \"#utility.yul\":12894:13007   */\n      jump(tag_475)\n    tag_477:\n        /* \"#utility.yul\":13025:13031   */\n      dup4\n        /* \"#utility.yul\":13022:13023   */\n      dup2\n        /* \"#utility.yul\":13019:13032   */\n      gt\n        /* \"#utility.yul\":13016:13117   */\n      iszero\n      tag_478\n      jumpi\n        /* \"#utility.yul\":13105:13106   */\n      0x00\n        /* \"#utility.yul\":13096:13102   */\n      dup5\n        /* \"#utility.yul\":13091:13094   */\n      dup5\n        /* \"#utility.yul\":13087:13103   */\n      add\n        /* \"#utility.yul\":13080:13107   */\n      mstore\n        /* \"#utility.yul\":13016:13117   */\n    tag_478:\n        /* \"#utility.yul\":12865:13123   */\n      pop\n        /* \"#utility.yul\":12816:13123   */\n      pop\n      pop\n      pop\n      jump\t// out\n        /* \"#utility.yul\":13129:13493   */\n    tag_275:\n        /* \"#utility.yul\":13217:13220   */\n      0x00\n        /* \"#utility.yul\":13245:13284   */\n      tag_480\n        /* \"#utility.yul\":13278:13283   */\n      dup3\n        /* \"#utility.yul\":13245:13284   */\n      tag_272\n      jump\t// in\n    tag_480:\n        /* \"#utility.yul\":13300:13371   */\n      tag_481\n        /* \"#utility.yul\":13364:13370   */\n      dup2\n        /* \"#utility.yul\":13359:13362   */\n      dup6\n        /* \"#utility.yul\":13300:13371   */\n      tag_273\n      jump\t// in\n    tag_481:\n        /* \"#utility.yul\":13293:13371   */\n      swap4\n      pop\n        /* \"#utility.yul\":13380:13432   */\n      tag_482\n        /* \"#utility.yul\":13425:13431   */\n      dup2\n        /* \"#utility.yul\":13420:13423   */\n      dup6\n        /* \"#utility.yul\":13413:13417   */\n      0x20\n        /* \"#utility.yul\":13406:13411   */\n      dup7\n        /* \"#utility.yul\":13402:13418   */\n      add\n        /* \"#utility.yul\":13380:13432   */\n      tag_274\n      jump\t// in\n    tag_482:\n        /* \"#utility.yul\":13457:13486   */\n      tag_483\n        /* \"#utility.yul\":13479:13485   */\n      dup2\n        /* \"#utility.yul\":13457:13486   */\n      tag_244\n      jump\t// in\n    tag_483:\n        /* \"#utility.yul\":13452:13455   */\n      dup5\n        /* \"#utility.yul\":13448:13487   */\n      add\n        /* \"#utility.yul\":13441:13487   */\n      swap2\n      pop\n        /* \"#utility.yul\":13221:13493   */\n      pop\n        /* \"#utility.yul\":13129:13493   */\n      swap3\n      swap2\n      pop\n      pop\n      jump\t// out\n        /* \"#utility.yul\":13499:13812   */\n    tag_56:\n        /* \"#utility.yul\":13612:13616   */\n      0x00\n        /* \"#utility.yul\":13650:13652   */\n      0x20\n        /* \"#utility.yul\":13639:13648   */\n      dup3\n        /* \"#utility.yul\":13635:13653   */\n      add\n        /* \"#utility.yul\":13627:13653   */\n      swap1\n      pop\n        /* \"#utility.yul\":13699:13708   */\n      dup2\n        /* \"#utility.yul\":13693:13697   */\n      dup2\n        /* \"#utility.yul\":13689:13709   */\n      sub\n        /* \"#utility.yul\":13685:13686   */\n      0x00\n        /* \"#utility.yul\":13674:13683   */\n      dup4\n        /* \"#utility.yul\":13670:13687   */\n      add\n        /* \"#utility.yul\":13663:13710   */\n      mstore\n        /* \"#utility.yul\":13727:13805   */\n      tag_485\n        /* \"#utility.yul\":13800:13804   */\n      dup2\n        /* \"#utility.yul\":13791:13797   */\n      dup5\n        /* \"#utility.yul\":13727:13805   */\n      tag_275\n      jump\t// in\n    tag_485:\n        /* \"#utility.yul\":13719:13805   */\n      swap1\n      pop\n        /* \"#utility.yul\":13499:13812   */\n      swap3\n      swap2\n      pop\n      pop\n      jump\t// out\n        /* \"#utility.yul\":13818:13932   */\n    tag_276:\n        /* \"#utility.yul\":13885:13891   */\n      0x00\n        /* \"#utility.yul\":13919:13924   */\n      dup2\n        /* \"#utility.yul\":13913:13925   */\n      mload\n        /* \"#utility.yul\":13903:13925   */\n      swap1\n      pop\n        /* \"#utility.yul\":13818:13932   */\n      swap2\n      swap1\n      pop\n      jump\t// out\n        /* \"#utility.yul\":13938:14122   */\n    tag_277:\n        /* \"#utility.yul\":14037:14048   */\n      0x00\n        /* \"#utility.yul\":14071:14077   */\n      dup3\n        /* \"#utility.yul\":14066:14069   */\n      dup3\n        /* \"#utility.yul\":14059:14078   */\n      mstore\n        /* \"#utility.yul\":14111:14115   */\n      0x20\n        /* \"#utility.yul\":14106:14109   */\n      dup3\n        /* \"#utility.yul\":14102:14116   */\n      add\n        /* \"#utility.yul\":14087:14116   */\n      swap1\n      pop\n        /* \"#utility.yul\":13938:14122   */\n      swap3\n      swap2\n      pop\n      pop\n      jump\t// out\n        /* \"#utility.yul\":14128:14260   */\n    tag_278:\n        /* \"#utility.yul\":14195:14199   */\n      0x00\n        /* \"#utility.yul\":14218:14221   */\n      dup2\n        /* \"#utility.yul\":14210:14221   */\n      swap1\n      pop\n        /* \"#utility.yul\":14248:14252   */\n      0x20\n        /* \"#utility.yul\":14243:14246   */\n      dup3\n        /* \"#utility.yul\":14239:14253   */\n      add\n        /* \"#utility.yul\":14231:14253   */\n      swap1\n      pop\n        /* \"#utility.yul\":14128:14260   */\n      swap2\n      swap1\n      pop\n      jump\t// out\n        /* \"#utility.yul\":14266:14374   */\n    tag_279:\n        /* \"#utility.yul\":14343:14367   */\n      tag_490\n        /* \"#utility.yul\":14361:14366   */\n      dup2\n        /* \"#utility.yul\":14343:14367   */\n      tag_239\n      jump\t// in\n    tag_490:\n        /* \"#utility.yul\":14338:14341   */\n      dup3\n        /* \"#utility.yul\":14331:14368   */\n      mstore\n        /* \"#utility.yul\":14266:14374   */\n      pop\n      pop\n      jump\t// out\n        /* \"#utility.yul\":14380:14559   */\n    tag_280:\n        /* \"#utility.yul\":14449:14459   */\n      0x00\n        /* \"#utility.yul\":14470:14516   */\n      tag_492\n        /* \"#utility.yul\":14512:14515   */\n      dup4\n        /* \"#utility.yul\":14504:14510   */\n      dup4\n        /* \"#utility.yul\":14470:14516   */\n      tag_279\n      jump\t// in\n    tag_492:\n        /* \"#utility.yul\":14548:14552   */\n      0x20\n        /* \"#utility.yul\":14543:14546   */\n      dup4\n        /* \"#utility.yul\":14539:14553   */\n      add\n        /* \"#utility.yul\":14525:14553   */\n      swap1\n      pop\n        /* \"#utility.yul\":14380:14559   */\n      swap3\n      swap2\n      pop\n      pop\n      jump\t// out\n        /* \"#utility.yul\":14565:14678   */\n    tag_281:\n        /* \"#utility.yul\":14635:14639   */\n      0x00\n        /* \"#utility.yul\":14667:14671   */\n      0x20\n        /* \"#utility.yul\":14662:14665   */\n      dup3\n        /* \"#utility.yul\":14658:14672   */\n      add\n        /* \"#utility.yul\":14650:14672   */\n      swap1\n      pop\n        /* \"#utility.yul\":14565:14678   */\n      swap2\n      swap1\n      pop\n      jump\t// out\n        /* \"#utility.yul\":14714:15446   */\n    tag_282:\n        /* \"#utility.yul\":14833:14836   */\n      0x00\n        /* \"#utility.yul\":14862:14916   */\n      tag_495\n        /* \"#utility.yul\":14910:14915   */\n      dup3\n        /* \"#utility.yul\":14862:14916   */\n      tag_276\n      jump\t// in\n    tag_495:\n        /* \"#utility.yul\":14932:15018   */\n      tag_496\n        /* \"#utility.yul\":15011:15017   */\n      dup2\n        /* \"#utility.yul\":15006:15009   */\n      dup6\n        /* \"#utility.yul\":14932:15018   */\n      tag_277\n      jump\t// in\n    tag_496:\n        /* \"#utility.yul\":14925:15018   */\n      swap4\n      pop\n        /* \"#utility.yul\":15042:15098   */\n      tag_497\n        /* \"#utility.yul\":15092:15097   */\n      dup4\n        /* \"#utility.yul\":15042:15098   */\n      tag_278\n      jump\t// in\n    tag_497:\n        /* \"#utility.yul\":15121:15128   */\n      dup1\n        /* \"#utility.yul\":15152:15153   */\n      0x00\n        /* \"#utility.yul\":15137:15421   */\n    tag_498:\n        /* \"#utility.yul\":15162:15168   */\n      dup4\n        /* \"#utility.yul\":15159:15160   */\n      dup2\n        /* \"#utility.yul\":15156:15169   */\n      lt\n        /* \"#utility.yul\":15137:15421   */\n      iszero\n      tag_500\n      jumpi\n        /* \"#utility.yul\":15238:15244   */\n      dup2\n        /* \"#utility.yul\":15232:15245   */\n      mload\n        /* \"#utility.yul\":15265:15328   */\n      tag_501\n        /* \"#utility.yul\":15324:15327   */\n      dup9\n        /* \"#utility.yul\":15309:15322   */\n      dup3\n        /* \"#utility.yul\":15265:15328   */\n      tag_280\n      jump\t// in\n    tag_501:\n        /* \"#utility.yul\":15258:15328   */\n      swap8\n      pop\n        /* \"#utility.yul\":15351:15411   */\n      tag_502\n        /* \"#utility.yul\":15404:15410   */\n      dup4\n        /* \"#utility.yul\":15351:15411   */\n      tag_281\n      jump\t// in\n    tag_502:\n        /* \"#utility.yul\":15341:15411   */\n      swap3\n      pop\n        /* \"#utility.yul\":15197:15421   */\n      pop\n        /* \"#utility.yul\":15184:15185   */\n      0x01\n        /* \"#utility.yul\":15181:15182   */\n      dup2\n        /* \"#utility.yul\":15177:15186   */\n      add\n        /* \"#utility.yul\":15172:15186   */\n      swap1\n      pop\n        /* \"#utility.yul\":15137:15421   */\n      jump(tag_498)\n    tag_500:\n        /* \"#utility.yul\":15141:15155   */\n      pop\n        /* \"#utility.yul\":15437:15440   */\n      dup6\n        /* \"#utility.yul\":15430:15440   */\n      swap4\n      pop\n        /* \"#utility.yul\":14838:15446   */\n      pop\n      pop\n      pop\n        /* \"#utility.yul\":14714:15446   */\n      swap3\n      swap2\n      pop\n      pop\n      jump\t// out\n        /* \"#utility.yul\":15452:15825   */\n    tag_61:\n        /* \"#utility.yul\":15595:15599   */\n      0x00\n        /* \"#utility.yul\":15633:15635   */\n      0x20\n        /* \"#utility.yul\":15622:15631   */\n      dup3\n        /* \"#utility.yul\":15618:15636   */\n      add\n        /* \"#utility.yul\":15610:15636   */\n      swap1\n      pop\n        /* \"#utility.yul\":15682:15691   */\n      dup2\n        /* \"#utility.yul\":15676:15680   */\n      dup2\n        /* \"#utility.yul\":15672:15692   */\n      sub\n        /* \"#utility.yul\":15668:15669   */\n      0x00\n        /* \"#utility.yul\":15657:15666   */\n      dup4\n        /* \"#utility.yul\":15653:15670   */\n      add\n        /* \"#utility.yul\":15646:15693   */\n      mstore\n        /* \"#utility.yul\":15710:15818   */\n      tag_504\n        /* \"#utility.yul\":15813:15817   */\n      dup2\n        /* \"#utility.yul\":15804:15810   */\n      dup5\n        /* \"#utility.yul\":15710:15818   */\n      tag_282\n      jump\t// in\n    tag_504:\n        /* \"#utility.yul\":15702:15818   */\n      swap1\n      pop\n        /* \"#utility.yul\":15452:15825   */\n      swap3\n      swap2\n      pop\n      pop\n      jump\t// out\n        /* \"#utility.yul\":15831:15951   */\n    tag_283:\n        /* \"#utility.yul\":15903:15926   */\n      tag_506\n        /* \"#utility.yul\":15920:15925   */\n      dup2\n        /* \"#utility.yul\":15903:15926   */\n      tag_268\n      jump\t// in\n    tag_506:\n        /* \"#utility.yul\":15896:15901   */\n      dup2\n        /* \"#utility.yul\":15893:15927   */\n      eq\n        /* \"#utility.yul\":15883:15945   */\n      tag_507\n      jumpi\n        /* \"#utility.yul\":15941:15942   */\n      0x00\n        /* \"#utility.yul\":15938:15939   */\n      dup1\n        /* \"#utility.yul\":15931:15943   */\n      revert\n        /* \"#utility.yul\":15883:15945   */\n    tag_507:\n        /* \"#utility.yul\":15831:15951   */\n      pop\n      jump\t// out\n        /* \"#utility.yul\":15957:16094   */\n    tag_284:\n        /* \"#utility.yul\":16002:16007   */\n      0x00\n        /* \"#utility.yul\":16040:16046   */\n      dup2\n        /* \"#utility.yul\":16027:16047   */\n      calldataload\n        /* \"#utility.yul\":16018:16047   */\n      swap1\n      pop\n        /* \"#utility.yul\":16056:16088   */\n      tag_509\n        /* \"#utility.yul\":16082:16087   */\n      dup2\n        /* \"#utility.yul\":16056:16088   */\n      tag_283\n      jump\t// in\n    tag_509:\n        /* \"#utility.yul\":15957:16094   */\n      swap3\n      swap2\n      pop\n      pop\n      jump\t// out\n        /* \"#utility.yul\":16100:16752   */\n    tag_67:\n        /* \"#utility.yul\":16177:16183   */\n      0x00\n        /* \"#utility.yul\":16185:16191   */\n      dup1\n        /* \"#utility.yul\":16234:16236   */\n      0x40\n        /* \"#utility.yul\":16222:16231   */\n      dup4\n        /* \"#utility.yul\":16213:16220   */\n      dup6\n        /* \"#utility.yul\":16209:16232   */\n      sub\n        /* \"#utility.yul\":16205:16237   */\n      slt\n        /* \"#utility.yul\":16202:16321   */\n      iszero\n      tag_511\n      jumpi\n        /* \"#utility.yul\":16240:16319   */\n      tag_512\n      tag_236\n      jump\t// in\n    tag_512:\n        /* \"#utility.yul\":16202:16321   */\n    tag_511:\n        /* \"#utility.yul\":16388:16389   */\n      0x00\n        /* \"#utility.yul\":16377:16386   */\n      dup4\n        /* \"#utility.yul\":16373:16390   */\n      add\n        /* \"#utility.yul\":16360:16391   */\n      calldataload\n        /* \"#utility.yul\":16418:16436   */\n      0xffffffffffffffff\n        /* \"#utility.yul\":16410:16416   */\n      dup2\n        /* \"#utility.yul\":16407:16437   */\n      gt\n        /* \"#utility.yul\":16404:16521   */\n      iszero\n      tag_513\n      jumpi\n        /* \"#utility.yul\":16440:16519   */\n      tag_514\n      tag_237\n      jump\t// in\n    tag_514:\n        /* \"#utility.yul\":16404:16521   */\n    tag_513:\n        /* \"#utility.yul\":16545:16608   */\n      tag_515\n        /* \"#utility.yul\":16600:16607   */\n      dup6\n        /* \"#utility.yul\":16591:16597   */\n      dup3\n        /* \"#utility.yul\":16580:16589   */\n      dup7\n        /* \"#utility.yul\":16576:16598   */\n      add\n        /* \"#utility.yul\":16545:16608   */\n      tag_250\n      jump\t// in\n    tag_515:\n        /* \"#utility.yul\":16535:16608   */\n      swap3\n      pop\n        /* \"#utility.yul\":16331:16618   */\n      pop\n        /* \"#utility.yul\":16657:16659   */\n      0x20\n        /* \"#utility.yul\":16683:16735   */\n      tag_516\n        /* \"#utility.yul\":16727:16734   */\n      dup6\n        /* \"#utility.yul\":16718:16724   */\n      dup3\n        /* \"#utility.yul\":16707:16716   */\n      dup7\n        /* \"#utility.yul\":16703:16725   */\n      add\n        /* \"#utility.yul\":16683:16735   */\n      tag_284\n      jump\t// in\n    tag_516:\n        /* \"#utility.yul\":16673:16735   */\n      swap2\n      pop\n        /* \"#utility.yul\":16628:16745   */\n      pop\n        /* \"#utility.yul\":16100:16752   */\n      swap3\n      pop\n      swap3\n      swap1\n      pop\n      jump\t// out\n        /* \"#utility.yul\":16758:17181   */\n    tag_70:\n        /* \"#utility.yul\":16899:16903   */\n      0x00\n        /* \"#utility.yul\":16937:16939   */\n      0x40\n        /* \"#utility.yul\":16926:16935   */\n      dup3\n        /* \"#utility.yul\":16922:16940   */\n      add\n        /* \"#utility.yul\":16914:16940   */\n      swap1\n      pop\n        /* \"#utility.yul\":16986:16995   */\n      dup2\n        /* \"#utility.yul\":16980:16984   */\n      dup2\n        /* \"#utility.yul\":16976:16996   */\n      sub\n        /* \"#utility.yul\":16972:16973   */\n      0x00\n        /* \"#utility.yul\":16961:16970   */\n      dup4\n        /* \"#utility.yul\":16957:16974   */\n      add\n        /* \"#utility.yul\":16950:16997   */\n      mstore\n        /* \"#utility.yul\":17014:17092   */\n      tag_518\n        /* \"#utility.yul\":17087:17091   */\n      dup2\n        /* \"#utility.yul\":17078:17084   */\n      dup6\n        /* \"#utility.yul\":17014:17092   */\n      tag_275\n      jump\t// in\n    tag_518:\n        /* \"#utility.yul\":17006:17092   */\n      swap1\n      pop\n        /* \"#utility.yul\":17102:17174   */\n      tag_519\n        /* \"#utility.yul\":17170:17172   */\n      0x20\n        /* \"#utility.yul\":17159:17168   */\n      dup4\n        /* \"#utility.yul\":17155:17173   */\n      add\n        /* \"#utility.yul\":17146:17152   */\n      dup5\n        /* \"#utility.yul\":17102:17174   */\n      tag_267\n      jump\t// in\n    tag_519:\n        /* \"#utility.yul\":16758:17181   */\n      swap4\n      swap3\n      pop\n      pop\n      pop\n      jump\t// out\n        /* \"#utility.yul\":17187:17330   */\n    tag_285:\n        /* \"#utility.yul\":17283:17289   */\n      0x00\n        /* \"#utility.yul\":17317:17322   */\n      dup2\n        /* \"#utility.yul\":17311:17323   */\n      mload\n        /* \"#utility.yul\":17301:17323   */\n      swap1\n      pop\n        /* \"#utility.yul\":17187:17330   */\n      swap2\n      swap1\n      pop\n      jump\t// out\n        /* \"#utility.yul\":17336:17549   */\n    tag_286:\n        /* \"#utility.yul\":17464:17475   */\n      0x00\n        /* \"#utility.yul\":17498:17504   */\n      dup3\n        /* \"#utility.yul\":17493:17496   */\n      dup3\n        /* \"#utility.yul\":17486:17505   */\n      mstore\n        /* \"#utility.yul\":17538:17542   */\n      0x20\n        /* \"#utility.yul\":17533:17536   */\n      dup3\n        /* \"#utility.yul\":17529:17543   */\n      add\n        /* \"#utility.yul\":17514:17543   */\n      swap1\n      pop\n        /* \"#utility.yul\":17336:17549   */\n      swap3\n      swap2\n      pop\n      pop\n      jump\t// out\n        /* \"#utility.yul\":17555:17716   */\n    tag_287:\n        /* \"#utility.yul\":17651:17655   */\n      0x00\n        /* \"#utility.yul\":17674:17677   */\n      dup2\n        /* \"#utility.yul\":17666:17677   */\n      swap1\n      pop\n        /* \"#utility.yul\":17704:17708   */\n      0x20\n        /* \"#utility.yul\":17699:17702   */\n      dup3\n        /* \"#utility.yul\":17695:17709   */\n      add\n        /* \"#utility.yul\":17687:17709   */\n      swap1\n      pop\n        /* \"#utility.yul\":17555:17716   */\n      swap2\n      swap1\n      pop\n      jump\t// out\n        /* \"#utility.yul\":17722:17896   */\n    tag_288:\n        /* \"#utility.yul\":17811:17822   */\n      0x00\n        /* \"#utility.yul\":17845:17851   */\n      dup3\n        /* \"#utility.yul\":17840:17843   */\n      dup3\n        /* \"#utility.yul\":17833:17852   */\n      mstore\n        /* \"#utility.yul\":17885:17889   */\n      0x20\n        /* \"#utility.yul\":17880:17883   */\n      dup3\n        /* \"#utility.yul\":17876:17890   */\n      add\n        /* \"#utility.yul\":17861:17890   */\n      swap1\n      pop\n        /* \"#utility.yul\":17722:17896   */\n      swap3\n      swap2\n      pop\n      pop\n      jump\t// out\n        /* \"#utility.yul\":17932:18644   */\n    tag_289:\n        /* \"#utility.yul\":18041:18044   */\n      0x00\n        /* \"#utility.yul\":18070:18124   */\n      tag_525\n        /* \"#utility.yul\":18118:18123   */\n      dup3\n        /* \"#utility.yul\":18070:18124   */\n      tag_276\n      jump\t// in\n    tag_525:\n        /* \"#utility.yul\":18140:18216   */\n      tag_526\n        /* \"#utility.yul\":18209:18215   */\n      dup2\n        /* \"#utility.yul\":18204:18207   */\n      dup6\n        /* \"#utility.yul\":18140:18216   */\n      tag_288\n      jump\t// in\n    tag_526:\n        /* \"#utility.yul\":18133:18216   */\n      swap4\n      pop\n        /* \"#utility.yul\":18240:18296   */\n      tag_527\n        /* \"#utility.yul\":18290:18295   */\n      dup4\n        /* \"#utility.yul\":18240:18296   */\n      tag_278\n      jump\t// in\n    tag_527:\n        /* \"#utility.yul\":18319:18326   */\n      dup1\n        /* \"#utility.yul\":18350:18351   */\n      0x00\n        /* \"#utility.yul\":18335:18619   */\n    tag_528:\n        /* \"#utility.yul\":18360:18366   */\n      dup4\n        /* \"#utility.yul\":18357:18358   */\n      dup2\n        /* \"#utility.yul\":18354:18367   */\n      lt\n        /* \"#utility.yul\":18335:18619   */\n      iszero\n      tag_530\n      jumpi\n        /* \"#utility.yul\":18436:18442   */\n      dup2\n        /* \"#utility.yul\":18430:18443   */\n      mload\n        /* \"#utility.yul\":18463:18526   */\n      tag_531\n        /* \"#utility.yul\":18522:18525   */\n      dup9\n        /* \"#utility.yul\":18507:18520   */\n      dup3\n        /* \"#utility.yul\":18463:18526   */\n      tag_280\n      jump\t// in\n    tag_531:\n        /* \"#utility.yul\":18456:18526   */\n      swap8\n      pop\n        /* \"#utility.yul\":18549:18609   */\n      tag_532\n        /* \"#utility.yul\":18602:18608   */\n      dup4\n        /* \"#utility.yul\":18549:18609   */\n      tag_281\n      jump\t// in\n    tag_532:\n        /* \"#utility.yul\":18539:18609   */\n      swap3\n      pop\n        /* \"#utility.yul\":18395:18619   */\n      pop\n        /* \"#utility.yul\":18382:18383   */\n      0x01\n        /* \"#utility.yul\":18379:18380   */\n      dup2\n        /* \"#utility.yul\":18375:18384   */\n      add\n        /* \"#utility.yul\":18370:18384   */\n      swap1\n      pop\n        /* \"#utility.yul\":18335:18619   */\n      jump(tag_528)\n    tag_530:\n        /* \"#utility.yul\":18339:18353   */\n      pop\n        /* \"#utility.yul\":18635:18638   */\n      dup6\n        /* \"#utility.yul\":18628:18638   */\n      swap4\n      pop\n        /* \"#utility.yul\":18046:18644   */\n      pop\n      pop\n      pop\n        /* \"#utility.yul\":17932:18644   */\n      swap3\n      swap2\n      pop\n      pop\n      jump\t// out\n        /* \"#utility.yul\":18650:18755   */\n    tag_290:\n        /* \"#utility.yul\":18725:18748   */\n      tag_534\n        /* \"#utility.yul\":18742:18747   */\n      dup2\n        /* \"#utility.yul\":18725:18748   */\n      tag_268\n      jump\t// in\n    tag_534:\n        /* \"#utility.yul\":18720:18723   */\n      dup3\n        /* \"#utility.yul\":18713:18749   */\n      mstore\n        /* \"#utility.yul\":18650:18755   */\n      pop\n      pop\n      jump\t// out\n        /* \"#utility.yul\":18761:18860   */\n    tag_291:\n        /* \"#utility.yul\":18832:18853   */\n      tag_536\n        /* \"#utility.yul\":18847:18852   */\n      dup2\n        /* \"#utility.yul\":18832:18853   */\n      tag_270\n      jump\t// in\n    tag_536:\n        /* \"#utility.yul\":18827:18830   */\n      dup3\n        /* \"#utility.yul\":18820:18854   */\n      mstore\n        /* \"#utility.yul\":18761:18860   */\n      pop\n      pop\n      jump\t// out\n        /* \"#utility.yul\":18932:20120   */\n    tag_292:\n        /* \"#utility.yul\":19049:19052   */\n      0x00\n        /* \"#utility.yul\":19085:19089   */\n      0xa0\n        /* \"#utility.yul\":19080:19083   */\n      dup4\n        /* \"#utility.yul\":19076:19090   */\n      add\n        /* \"#utility.yul\":19176:19180   */\n      0x00\n        /* \"#utility.yul\":19169:19174   */\n      dup4\n        /* \"#utility.yul\":19165:19181   */\n      add\n        /* \"#utility.yul\":19159:19182   */\n      mload\n        /* \"#utility.yul\":19195:19258   */\n      tag_538\n        /* \"#utility.yul\":19252:19256   */\n      0x00\n        /* \"#utility.yul\":19247:19250   */\n      dup7\n        /* \"#utility.yul\":19243:19257   */\n      add\n        /* \"#utility.yul\":19229:19241   */\n      dup3\n        /* \"#utility.yul\":19195:19258   */\n      tag_279\n      jump\t// in\n    tag_538:\n        /* \"#utility.yul\":19100:19268   */\n      pop\n        /* \"#utility.yul\":19356:19360   */\n      0x20\n        /* \"#utility.yul\":19349:19354   */\n      dup4\n        /* \"#utility.yul\":19345:19361   */\n      add\n        /* \"#utility.yul\":19339:19362   */\n      mload\n        /* \"#utility.yul\":19409:19412   */\n      dup5\n        /* \"#utility.yul\":19403:19407   */\n      dup3\n        /* \"#utility.yul\":19399:19413   */\n      sub\n        /* \"#utility.yul\":19392:19396   */\n      0x20\n        /* \"#utility.yul\":19387:19390   */\n      dup7\n        /* \"#utility.yul\":19383:19397   */\n      add\n        /* \"#utility.yul\":19376:19414   */\n      mstore\n        /* \"#utility.yul\":19435:19538   */\n      tag_539\n        /* \"#utility.yul\":19533:19537   */\n      dup3\n        /* \"#utility.yul\":19519:19531   */\n      dup3\n        /* \"#utility.yul\":19435:19538   */\n      tag_289\n      jump\t// in\n    tag_539:\n        /* \"#utility.yul\":19427:19538   */\n      swap2\n      pop\n        /* \"#utility.yul\":19278:19549   */\n      pop\n        /* \"#utility.yul\":19644:19648   */\n      0x40\n        /* \"#utility.yul\":19637:19642   */\n      dup4\n        /* \"#utility.yul\":19633:19649   */\n      add\n        /* \"#utility.yul\":19627:19650   */\n      mload\n        /* \"#utility.yul\":19663:19724   */\n      tag_540\n        /* \"#utility.yul\":19718:19722   */\n      0x40\n        /* \"#utility.yul\":19713:19716   */\n      dup7\n        /* \"#utility.yul\":19709:19723   */\n      add\n        /* \"#utility.yul\":19695:19707   */\n      dup3\n        /* \"#utility.yul\":19663:19724   */\n      tag_290\n      jump\t// in\n    tag_540:\n        /* \"#utility.yul\":19559:19734   */\n      pop\n        /* \"#utility.yul\":19833:19837   */\n      0x60\n        /* \"#utility.yul\":19826:19831   */\n      dup4\n        /* \"#utility.yul\":19822:19838   */\n      add\n        /* \"#utility.yul\":19816:19839   */\n      mload\n        /* \"#utility.yul\":19852:19913   */\n      tag_541\n        /* \"#utility.yul\":19907:19911   */\n      0x60\n        /* \"#utility.yul\":19902:19905   */\n      dup7\n        /* \"#utility.yul\":19898:19912   */\n      add\n        /* \"#utility.yul\":19884:19896   */\n      dup3\n        /* \"#utility.yul\":19852:19913   */\n      tag_290\n      jump\t// in\n    tag_541:\n        /* \"#utility.yul\":19744:19923   */\n      pop\n        /* \"#utility.yul\":20007:20011   */\n      0x80\n        /* \"#utility.yul\":20000:20005   */\n      dup4\n        /* \"#utility.yul\":19996:20012   */\n      add\n        /* \"#utility.yul\":19990:20013   */\n      mload\n        /* \"#utility.yul\":20026:20083   */\n      tag_542\n        /* \"#utility.yul\":20077:20081   */\n      0x80\n        /* \"#utility.yul\":20072:20075   */\n      dup7\n        /* \"#utility.yul\":20068:20082   */\n      add\n        /* \"#utility.yul\":20054:20066   */\n      dup3\n        /* \"#utility.yul\":20026:20083   */\n      tag_291\n      jump\t// in\n    tag_542:\n        /* \"#utility.yul\":19933:20093   */\n      pop\n        /* \"#utility.yul\":20110:20114   */\n      dup1\n        /* \"#utility.yul\":20103:20114   */\n      swap2\n      pop\n        /* \"#utility.yul\":19054:20120   */\n      pop\n        /* \"#utility.yul\":18932:20120   */\n      swap3\n      swap2\n      pop\n      pop\n      jump\t// out\n        /* \"#utility.yul\":20126:20398   */\n    tag_293:\n        /* \"#utility.yul\":20253:20263   */\n      0x00\n        /* \"#utility.yul\":20288:20392   */\n      tag_544\n        /* \"#utility.yul\":20388:20391   */\n      dup4\n        /* \"#utility.yul\":20380:20386   */\n      dup4\n        /* \"#utility.yul\":20288:20392   */\n      tag_292\n      jump\t// in\n    tag_544:\n        /* \"#utility.yul\":20274:20392   */\n      swap1\n      pop\n        /* \"#utility.yul\":20126:20398   */\n      swap3\n      swap2\n      pop\n      pop\n      jump\t// out\n        /* \"#utility.yul\":20404:20546   */\n    tag_294:\n        /* \"#utility.yul\":20503:20507   */\n      0x00\n        /* \"#utility.yul\":20535:20539   */\n      0x20\n        /* \"#utility.yul\":20530:20533   */\n      dup3\n        /* \"#utility.yul\":20526:20540   */\n      add\n        /* \"#utility.yul\":20518:20540   */\n      swap1\n      pop\n        /* \"#utility.yul\":20404:20546   */\n      swap2\n      swap1\n      pop\n      jump\t// out\n        /* \"#utility.yul\":20622:21765   */\n    tag_295:\n        /* \"#utility.yul\":20799:20802   */\n      0x00\n        /* \"#utility.yul\":20828:20911   */\n      tag_547\n        /* \"#utility.yul\":20905:20910   */\n      dup3\n        /* \"#utility.yul\":20828:20911   */\n      tag_285\n      jump\t// in\n    tag_547:\n        /* \"#utility.yul\":20927:21042   */\n      tag_548\n        /* \"#utility.yul\":21035:21041   */\n      dup2\n        /* \"#utility.yul\":21030:21033   */\n      dup6\n        /* \"#utility.yul\":20927:21042   */\n      tag_286\n      jump\t// in\n    tag_548:\n        /* \"#utility.yul\":20920:21042   */\n      swap4\n      pop\n        /* \"#utility.yul\":21068:21071   */\n      dup4\n        /* \"#utility.yul\":21113:21117   */\n      0x20\n        /* \"#utility.yul\":21105:21111   */\n      dup3\n        /* \"#utility.yul\":21101:21118   */\n      mul\n        /* \"#utility.yul\":21096:21099   */\n      dup6\n        /* \"#utility.yul\":21092:21119   */\n      add\n        /* \"#utility.yul\":21143:21228   */\n      tag_549\n        /* \"#utility.yul\":21222:21227   */\n      dup6\n        /* \"#utility.yul\":21143:21228   */\n      tag_287\n      jump\t// in\n    tag_549:\n        /* \"#utility.yul\":21251:21258   */\n      dup1\n        /* \"#utility.yul\":21282:21283   */\n      0x00\n        /* \"#utility.yul\":21267:21720   */\n    tag_550:\n        /* \"#utility.yul\":21292:21298   */\n      dup6\n        /* \"#utility.yul\":21289:21290   */\n      dup2\n        /* \"#utility.yul\":21286:21299   */\n      lt\n        /* \"#utility.yul\":21267:21720   */\n      iszero\n      tag_552\n      jumpi\n        /* \"#utility.yul\":21363:21372   */\n      dup5\n        /* \"#utility.yul\":21357:21361   */\n      dup5\n        /* \"#utility.yul\":21353:21373   */\n      sub\n        /* \"#utility.yul\":21348:21351   */\n      dup10\n        /* \"#utility.yul\":21341:21374   */\n      mstore\n        /* \"#utility.yul\":21414:21420   */\n      dup2\n        /* \"#utility.yul\":21408:21421   */\n      mload\n        /* \"#utility.yul\":21442:21564   */\n      tag_553\n        /* \"#utility.yul\":21559:21563   */\n      dup6\n        /* \"#utility.yul\":21544:21557   */\n      dup3\n        /* \"#utility.yul\":21442:21564   */\n      tag_293\n      jump\t// in\n    tag_553:\n        /* \"#utility.yul\":21434:21564   */\n      swap5\n      pop\n        /* \"#utility.yul\":21587:21676   */\n      tag_554\n        /* \"#utility.yul\":21669:21675   */\n      dup4\n        /* \"#utility.yul\":21587:21676   */\n      tag_294\n      jump\t// in\n    tag_554:\n        /* \"#utility.yul\":21577:21676   */\n      swap3\n      pop\n        /* \"#utility.yul\":21705:21709   */\n      0x20\n        /* \"#utility.yul\":21700:21703   */\n      dup11\n        /* \"#utility.yul\":21696:21710   */\n      add\n        /* \"#utility.yul\":21689:21710   */\n      swap10\n      pop\n        /* \"#utility.yul\":21327:21720   */\n      pop\n        /* \"#utility.yul\":21314:21315   */\n      0x01\n        /* \"#utility.yul\":21311:21312   */\n      dup2\n        /* \"#utility.yul\":21307:21316   */\n      add\n        /* \"#utility.yul\":21302:21316   */\n      swap1\n      pop\n        /* \"#utility.yul\":21267:21720   */\n      jump(tag_550)\n    tag_552:\n        /* \"#utility.yul\":21271:21285   */\n      pop\n        /* \"#utility.yul\":21736:21740   */\n      dup3\n        /* \"#utility.yul\":21729:21740   */\n      swap8\n      pop\n        /* \"#utility.yul\":21756:21759   */\n      dup8\n        /* \"#utility.yul\":21749:21759   */\n      swap6\n      pop\n        /* \"#utility.yul\":20804:21765   */\n      pop\n      pop\n      pop\n      pop\n      pop\n        /* \"#utility.yul\":20622:21765   */\n      swap3\n      swap2\n      pop\n      pop\n      jump\t// out\n        /* \"#utility.yul\":21771:22260   */\n    tag_74:\n        /* \"#utility.yul\":21972:21976   */\n      0x00\n        /* \"#utility.yul\":22010:22012   */\n      0x20\n        /* \"#utility.yul\":21999:22008   */\n      dup3\n        /* \"#utility.yul\":21995:22013   */\n      add\n        /* \"#utility.yul\":21987:22013   */\n      swap1\n      pop\n        /* \"#utility.yul\":22059:22068   */\n      dup2\n        /* \"#utility.yul\":22053:22057   */\n      dup2\n        /* \"#utility.yul\":22049:22069   */\n      sub\n        /* \"#utility.yul\":22045:22046   */\n      0x00\n        /* \"#utility.yul\":22034:22043   */\n      dup4\n        /* \"#utility.yul\":22030:22047   */\n      add\n        /* \"#utility.yul\":22023:22070   */\n      mstore\n        /* \"#utility.yul\":22087:22253   */\n      tag_556\n        /* \"#utility.yul\":22248:22252   */\n      dup2\n        /* \"#utility.yul\":22239:22245   */\n      dup5\n        /* \"#utility.yul\":22087:22253   */\n      tag_295\n      jump\t// in\n    tag_556:\n        /* \"#utility.yul\":22079:22253   */\n      swap1\n      pop\n        /* \"#utility.yul\":21771:22260   */\n      swap3\n      swap2\n      pop\n      pop\n      jump\t// out\n        /* \"#utility.yul\":22266:22360   */\n    tag_296:\n        /* \"#utility.yul\":22299:22307   */\n      0x00\n        /* \"#utility.yul\":22347:22352   */\n      dup2\n        /* \"#utility.yul\":22343:22345   */\n      0x60\n        /* \"#utility.yul\":22339:22353   */\n      shl\n        /* \"#utility.yul\":22318:22353   */\n      swap1\n      pop\n        /* \"#utility.yul\":22266:22360   */\n      swap2\n      swap1\n      pop\n      jump\t// out\n        /* \"#utility.yul\":22366:22460   */\n    tag_297:\n        /* \"#utility.yul\":22405:22412   */\n      0x00\n        /* \"#utility.yul\":22434:22454   */\n      tag_559\n        /* \"#utility.yul\":22448:22453   */\n      dup3\n        /* \"#utility.yul\":22434:22454   */\n      tag_296\n      jump\t// in\n    tag_559:\n        /* \"#utility.yul\":22423:22454   */\n      swap1\n      pop\n        /* \"#utility.yul\":22366:22460   */\n      swap2\n      swap1\n      pop\n      jump\t// out\n        /* \"#utility.yul\":22466:22566   */\n    tag_298:\n        /* \"#utility.yul\":22505:22512   */\n      0x00\n        /* \"#utility.yul\":22534:22560   */\n      tag_561\n        /* \"#utility.yul\":22554:22559   */\n      dup3\n        /* \"#utility.yul\":22534:22560   */\n      tag_297\n      jump\t// in\n    tag_561:\n        /* \"#utility.yul\":22523:22560   */\n      swap1\n      pop\n        /* \"#utility.yul\":22466:22566   */\n      swap2\n      swap1\n      pop\n      jump\t// out\n        /* \"#utility.yul\":22572:22729   */\n    tag_299:\n        /* \"#utility.yul\":22677:22722   */\n      tag_563\n        /* \"#utility.yul\":22697:22721   */\n      tag_564\n        /* \"#utility.yul\":22715:22720   */\n      dup3\n        /* \"#utility.yul\":22697:22721   */\n      tag_239\n      jump\t// in\n    tag_564:\n        /* \"#utility.yul\":22677:22722   */\n      tag_298\n      jump\t// in\n    tag_563:\n        /* \"#utility.yul\":22672:22675   */\n      dup3\n        /* \"#utility.yul\":22665:22723   */\n      mstore\n        /* \"#utility.yul\":22572:22729   */\n      pop\n      pop\n      jump\t// out\n        /* \"#utility.yul\":22735:22883   */\n    tag_300:\n        /* \"#utility.yul\":22837:22848   */\n      0x00\n        /* \"#utility.yul\":22874:22877   */\n      dup2\n        /* \"#utility.yul\":22859:22877   */\n      swap1\n      pop\n        /* \"#utility.yul\":22735:22883   */\n      swap3\n      swap2\n      pop\n      pop\n      jump\t// out\n        /* \"#utility.yul\":22889:23062   */\n    tag_301:\n        /* \"#utility.yul\":23029:23054   */\n      0x6d6574617472616e73616374696f6e20566f74696e6720000000000000000000\n        /* \"#utility.yul\":23025:23026   */\n      0x00\n        /* \"#utility.yul\":23017:23023   */\n      dup3\n        /* \"#utility.yul\":23013:23027   */\n      add\n        /* \"#utility.yul\":23006:23055   */\n      mstore\n        /* \"#utility.yul\":22889:23062   */\n      pop\n      jump\t// out\n        /* \"#utility.yul\":23068:23470   */\n    tag_302:\n        /* \"#utility.yul\":23228:23231   */\n      0x00\n        /* \"#utility.yul\":23249:23334   */\n      tag_568\n        /* \"#utility.yul\":23331:23333   */\n      0x17\n        /* \"#utility.yul\":23326:23329   */\n      dup4\n        /* \"#utility.yul\":23249:23334   */\n      tag_300\n      jump\t// in\n    tag_568:\n        /* \"#utility.yul\":23242:23334   */\n      swap2\n      pop\n        /* \"#utility.yul\":23343:23436   */\n      tag_569\n        /* \"#utility.yul\":23432:23435   */\n      dup3\n        /* \"#utility.yul\":23343:23436   */\n      tag_301\n      jump\t// in\n    tag_569:\n        /* \"#utility.yul\":23461:23463   */\n      0x17\n        /* \"#utility.yul\":23456:23459   */\n      dup3\n        /* \"#utility.yul\":23452:23464   */\n      add\n        /* \"#utility.yul\":23445:23464   */\n      swap1\n      pop\n        /* \"#utility.yul\":23068:23470   */\n      swap2\n      swap1\n      pop\n      jump\t// out\n        /* \"#utility.yul\":23476:23853   */\n    tag_303:\n        /* \"#utility.yul\":23582:23585   */\n      0x00\n        /* \"#utility.yul\":23610:23649   */\n      tag_571\n        /* \"#utility.yul\":23643:23648   */\n      dup3\n        /* \"#utility.yul\":23610:23649   */\n      tag_272\n      jump\t// in\n    tag_571:\n        /* \"#utility.yul\":23665:23754   */\n      tag_572\n        /* \"#utility.yul\":23747:23753   */\n      dup2\n        /* \"#utility.yul\":23742:23745   */\n      dup6\n        /* \"#utility.yul\":23665:23754   */\n      tag_300\n      jump\t// in\n    tag_572:\n        /* \"#utility.yul\":23658:23754   */\n      swap4\n      pop\n        /* \"#utility.yul\":23763:23815   */\n      tag_573\n        /* \"#utility.yul\":23808:23814   */\n      dup2\n        /* \"#utility.yul\":23803:23806   */\n      dup6\n        /* \"#utility.yul\":23796:23800   */\n      0x20\n        /* \"#utility.yul\":23789:23794   */\n      dup7\n        /* \"#utility.yul\":23785:23801   */\n      add\n        /* \"#utility.yul\":23763:23815   */\n      tag_274\n      jump\t// in\n    tag_573:\n        /* \"#utility.yul\":23840:23846   */\n      dup1\n        /* \"#utility.yul\":23835:23838   */\n      dup5\n        /* \"#utility.yul\":23831:23847   */\n      add\n        /* \"#utility.yul\":23824:23847   */\n      swap2\n      pop\n        /* \"#utility.yul\":23586:23853   */\n      pop\n        /* \"#utility.yul\":23476:23853   */\n      swap3\n      swap2\n      pop\n      pop\n      jump\t// out\n        /* \"#utility.yul\":23859:23938   */\n    tag_304:\n        /* \"#utility.yul\":23898:23905   */\n      0x00\n        /* \"#utility.yul\":23927:23932   */\n      dup2\n        /* \"#utility.yul\":23916:23932   */\n      swap1\n      pop\n        /* \"#utility.yul\":23859:23938   */\n      swap2\n      swap1\n      pop\n      jump\t// out\n        /* \"#utility.yul\":23944:24101   */\n    tag_305:\n        /* \"#utility.yul\":24049:24094   */\n      tag_576\n        /* \"#utility.yul\":24069:24093   */\n      tag_577\n        /* \"#utility.yul\":24087:24092   */\n      dup3\n        /* \"#utility.yul\":24069:24093   */\n      tag_251\n      jump\t// in\n    tag_577:\n        /* \"#utility.yul\":24049:24094   */\n      tag_304\n      jump\t// in\n    tag_576:\n        /* \"#utility.yul\":24044:24047   */\n      dup3\n        /* \"#utility.yul\":24037:24095   */\n      mstore\n        /* \"#utility.yul\":23944:24101   */\n      pop\n      pop\n      jump\t// out\n        /* \"#utility.yul\":24107:25212   */\n    tag_77:\n        /* \"#utility.yul\":24452:24455   */\n      0x00\n        /* \"#utility.yul\":24467:24542   */\n      tag_579\n        /* \"#utility.yul\":24538:24541   */\n      dup3\n        /* \"#utility.yul\":24529:24535   */\n      dup9\n        /* \"#utility.yul\":24467:24542   */\n      tag_299\n      jump\t// in\n    tag_579:\n        /* \"#utility.yul\":24567:24569   */\n      0x14\n        /* \"#utility.yul\":24562:24565   */\n      dup3\n        /* \"#utility.yul\":24558:24570   */\n      add\n        /* \"#utility.yul\":24551:24570   */\n      swap2\n      pop\n        /* \"#utility.yul\":24587:24735   */\n      tag_580\n        /* \"#utility.yul\":24731:24734   */\n      dup3\n        /* \"#utility.yul\":24587:24735   */\n      tag_302\n      jump\t// in\n    tag_580:\n        /* \"#utility.yul\":24580:24735   */\n      swap2\n      pop\n        /* \"#utility.yul\":24745:24820   */\n      tag_581\n        /* \"#utility.yul\":24816:24819   */\n      dup3\n        /* \"#utility.yul\":24807:24813   */\n      dup8\n        /* \"#utility.yul\":24745:24820   */\n      tag_299\n      jump\t// in\n    tag_581:\n        /* \"#utility.yul\":24845:24847   */\n      0x14\n        /* \"#utility.yul\":24840:24843   */\n      dup3\n        /* \"#utility.yul\":24836:24848   */\n      add\n        /* \"#utility.yul\":24829:24848   */\n      swap2\n      pop\n        /* \"#utility.yul\":24865:24960   */\n      tag_582\n        /* \"#utility.yul\":24956:24959   */\n      dup3\n        /* \"#utility.yul\":24947:24953   */\n      dup7\n        /* \"#utility.yul\":24865:24960   */\n      tag_303\n      jump\t// in\n    tag_582:\n        /* \"#utility.yul\":24858:24960   */\n      swap2\n      pop\n        /* \"#utility.yul\":24970:25045   */\n      tag_583\n        /* \"#utility.yul\":25041:25044   */\n      dup3\n        /* \"#utility.yul\":25032:25038   */\n      dup6\n        /* \"#utility.yul\":24970:25045   */\n      tag_305\n      jump\t// in\n    tag_583:\n        /* \"#utility.yul\":25070:25072   */\n      0x20\n        /* \"#utility.yul\":25065:25068   */\n      dup3\n        /* \"#utility.yul\":25061:25073   */\n      add\n        /* \"#utility.yul\":25054:25073   */\n      swap2\n      pop\n        /* \"#utility.yul\":25083:25158   */\n      tag_584\n        /* \"#utility.yul\":25154:25157   */\n      dup3\n        /* \"#utility.yul\":25145:25151   */\n      dup5\n        /* \"#utility.yul\":25083:25158   */\n      tag_305\n      jump\t// in\n    tag_584:\n        /* \"#utility.yul\":25183:25185   */\n      0x20\n        /* \"#utility.yul\":25178:25181   */\n      dup3\n        /* \"#utility.yul\":25174:25186   */\n      add\n        /* \"#utility.yul\":25167:25186   */\n      swap2\n      pop\n        /* \"#utility.yul\":25203:25206   */\n      dup2\n        /* \"#utility.yul\":25196:25206   */\n      swap1\n      pop\n        /* \"#utility.yul\":24107:25212   */\n      swap7\n      swap6\n      pop\n      pop\n      pop\n      pop\n      pop\n      pop\n      jump\t// out\n        /* \"#utility.yul\":25218:25493   */\n    tag_80:\n        /* \"#utility.yul\":25350:25353   */\n      0x00\n        /* \"#utility.yul\":25372:25467   */\n      tag_586\n        /* \"#utility.yul\":25463:25466   */\n      dup3\n        /* \"#utility.yul\":25454:25460   */\n      dup5\n        /* \"#utility.yul\":25372:25467   */\n      tag_303\n      jump\t// in\n    tag_586:\n        /* \"#utility.yul\":25365:25467   */\n      swap2\n      pop\n        /* \"#utility.yul\":25484:25487   */\n      dup2\n        /* \"#utility.yul\":25477:25487   */\n      swap1\n      pop\n        /* \"#utility.yul\":25218:25493   */\n      swap3\n      swap2\n      pop\n      pop\n      jump\t// out\n        /* \"#utility.yul\":25499:25728   */\n    tag_306:\n        /* \"#utility.yul\":25639:25673   */\n      0x54686973206164647265737320646f6573206e6f742065786973742061732061\n        /* \"#utility.yul\":25635:25636   */\n      0x00\n        /* \"#utility.yul\":25627:25633   */\n      dup3\n        /* \"#utility.yul\":25623:25637   */\n      add\n        /* \"#utility.yul\":25616:25674   */\n      mstore\n        /* \"#utility.yul\":25708:25720   */\n      0x2063616e64696461746500000000000000000000000000000000000000000000\n        /* \"#utility.yul\":25703:25705   */\n      0x20\n        /* \"#utility.yul\":25695:25701   */\n      dup3\n        /* \"#utility.yul\":25691:25706   */\n      add\n        /* \"#utility.yul\":25684:25721   */\n      mstore\n        /* \"#utility.yul\":25499:25728   */\n      pop\n      jump\t// out\n        /* \"#utility.yul\":25734:26100   */\n    tag_307:\n        /* \"#utility.yul\":25876:25879   */\n      0x00\n        /* \"#utility.yul\":25897:25964   */\n      tag_589\n        /* \"#utility.yul\":25961:25963   */\n      0x2a\n        /* \"#utility.yul\":25956:25959   */\n      dup4\n        /* \"#utility.yul\":25897:25964   */\n      tag_273\n      jump\t// in\n    tag_589:\n        /* \"#utility.yul\":25890:25964   */\n      swap2\n      pop\n        /* \"#utility.yul\":25973:26066   */\n      tag_590\n        /* \"#utility.yul\":26062:26065   */\n      dup3\n        /* \"#utility.yul\":25973:26066   */\n      tag_306\n      jump\t// in\n    tag_590:\n        /* \"#utility.yul\":26091:26093   */\n      0x40\n        /* \"#utility.yul\":26086:26089   */\n      dup3\n        /* \"#utility.yul\":26082:26094   */\n      add\n        /* \"#utility.yul\":26075:26094   */\n      swap1\n      pop\n        /* \"#utility.yul\":25734:26100   */\n      swap2\n      swap1\n      pop\n      jump\t// out\n        /* \"#utility.yul\":26106:26525   */\n    tag_83:\n        /* \"#utility.yul\":26272:26276   */\n      0x00\n        /* \"#utility.yul\":26310:26312   */\n      0x20\n        /* \"#utility.yul\":26299:26308   */\n      dup3\n        /* \"#utility.yul\":26295:26313   */\n      add\n        /* \"#utility.yul\":26287:26313   */\n      swap1\n      pop\n        /* \"#utility.yul\":26359:26368   */\n      dup2\n        /* \"#utility.yul\":26353:26357   */\n      dup2\n        /* \"#utility.yul\":26349:26369   */\n      sub\n        /* \"#utility.yul\":26345:26346   */\n      0x00\n        /* \"#utility.yul\":26334:26343   */\n      dup4\n        /* \"#utility.yul\":26330:26347   */\n      add\n        /* \"#utility.yul\":26323:26370   */\n      mstore\n        /* \"#utility.yul\":26387:26518   */\n      tag_592\n        /* \"#utility.yul\":26513:26517   */\n      dup2\n        /* \"#utility.yul\":26387:26518   */\n      tag_307\n      jump\t// in\n    tag_592:\n        /* \"#utility.yul\":26379:26518   */\n      swap1\n      pop\n        /* \"#utility.yul\":26106:26525   */\n      swap2\n      swap1\n      pop\n      jump\t// out\n        /* \"#utility.yul\":26531:26697   */\n    tag_308:\n        /* \"#utility.yul\":26671:26689   */\n      0x766f74696e672068617320656e64656400000000000000000000000000000000\n        /* \"#utility.yul\":26667:26668   */\n      0x00\n        /* \"#utility.yul\":26659:26665   */\n      dup3\n        /* \"#utility.yul\":26655:26669   */\n      add\n        /* \"#utility.yul\":26648:26690   */\n      mstore\n        /* \"#utility.yul\":26531:26697   */\n      pop\n      jump\t// out\n        /* \"#utility.yul\":26703:27069   */\n    tag_309:\n        /* \"#utility.yul\":26845:26848   */\n      0x00\n        /* \"#utility.yul\":26866:26933   */\n      tag_595\n        /* \"#utility.yul\":26930:26932   */\n      0x10\n        /* \"#utility.yul\":26925:26928   */\n      dup4\n        /* \"#utility.yul\":26866:26933   */\n      tag_273\n      jump\t// in\n    tag_595:\n        /* \"#utility.yul\":26859:26933   */\n      swap2\n      pop\n        /* \"#utility.yul\":26942:27035   */\n      tag_596\n        /* \"#utility.yul\":27031:27034   */\n      dup3\n        /* \"#utility.yul\":26942:27035   */\n      tag_308\n      jump\t// in\n    tag_596:\n        /* \"#utility.yul\":27060:27062   */\n      0x20\n        /* \"#utility.yul\":27055:27058   */\n      dup3\n        /* \"#utility.yul\":27051:27063   */\n      add\n        /* \"#utility.yul\":27044:27063   */\n      swap1\n      pop\n        /* \"#utility.yul\":26703:27069   */\n      swap2\n      swap1\n      pop\n      jump\t// out\n        /* \"#utility.yul\":27075:27494   */\n    tag_88:\n        /* \"#utility.yul\":27241:27245   */\n      0x00\n        /* \"#utility.yul\":27279:27281   */\n      0x20\n        /* \"#utility.yul\":27268:27277   */\n      dup3\n        /* \"#utility.yul\":27264:27282   */\n      add\n        /* \"#utility.yul\":27256:27282   */\n      swap1\n      pop\n        /* \"#utility.yul\":27328:27337   */\n      dup2\n        /* \"#utility.yul\":27322:27326   */\n      dup2\n        /* \"#utility.yul\":27318:27338   */\n      sub\n        /* \"#utility.yul\":27314:27315   */\n      0x00\n        /* \"#utility.yul\":27303:27312   */\n      dup4\n        /* \"#utility.yul\":27299:27316   */\n      add\n        /* \"#utility.yul\":27292:27339   */\n      mstore\n        /* \"#utility.yul\":27356:27487   */\n      tag_598\n        /* \"#utility.yul\":27482:27486   */\n      dup2\n        /* \"#utility.yul\":27356:27487   */\n      tag_309\n      jump\t// in\n    tag_598:\n        /* \"#utility.yul\":27348:27487   */\n      swap1\n      pop\n        /* \"#utility.yul\":27075:27494   */\n      swap2\n      swap1\n      pop\n      jump\t// out\n        /* \"#utility.yul\":27500:27680   */\n    tag_310:\n        /* \"#utility.yul\":27548:27625   */\n      0x4e487b7100000000000000000000000000000000000000000000000000000000\n        /* \"#utility.yul\":27545:27546   */\n      0x00\n        /* \"#utility.yul\":27538:27626   */\n      mstore\n        /* \"#utility.yul\":27645:27649   */\n      0x11\n        /* \"#utility.yul\":27642:27643   */\n      0x04\n        /* \"#utility.yul\":27635:27650   */\n      mstore\n        /* \"#utility.yul\":27669:27673   */\n      0x24\n        /* \"#utility.yul\":27666:27667   */\n      0x00\n        /* \"#utility.yul\":27659:27674   */\n      revert\n        /* \"#utility.yul\":27686:27919   */\n    tag_96:\n        /* \"#utility.yul\":27725:27728   */\n      0x00\n        /* \"#utility.yul\":27748:27772   */\n      tag_601\n        /* \"#utility.yul\":27766:27771   */\n      dup3\n        /* \"#utility.yul\":27748:27772   */\n      tag_251\n      jump\t// in\n    tag_601:\n        /* \"#utility.yul\":27739:27772   */\n      swap2\n      pop\n        /* \"#utility.yul\":27794:27860   */\n      0xffffffffffffffffffffffffffffffffffffffffffffffffffffffffffffffff\n        /* \"#utility.yul\":27787:27792   */\n      dup3\n        /* \"#utility.yul\":27784:27861   */\n      eq\n        /* \"#utility.yul\":27781:27884   */\n      iszero\n      tag_602\n      jumpi\n        /* \"#utility.yul\":27864:27882   */\n      tag_603\n      tag_310\n      jump\t// in\n    tag_603:\n        /* \"#utility.yul\":27781:27884   */\n    tag_602:\n        /* \"#utility.yul\":27911:27912   */\n      0x01\n        /* \"#utility.yul\":27904:27909   */\n      dup3\n        /* \"#utility.yul\":27900:27913   */\n      add\n        /* \"#utility.yul\":27893:27913   */\n      swap1\n      pop\n        /* \"#utility.yul\":27686:27919   */\n      swap2\n      swap1\n      pop\n      jump\t// out\n        /* \"#utility.yul\":27925:28092   */\n    tag_311:\n        /* \"#utility.yul\":28065:28084   */\n      0x596f7520616c726561647920766f746564000000000000000000000000000000\n        /* \"#utility.yul\":28061:28062   */\n      0x00\n        /* \"#utility.yul\":28053:28059   */\n      dup3\n        /* \"#utility.yul\":28049:28063   */\n      add\n        /* \"#utility.yul\":28042:28085   */\n      mstore\n        /* \"#utility.yul\":27925:28092   */\n      pop\n      jump\t// out\n        /* \"#utility.yul\":28098:28464   */\n    tag_312:\n        /* \"#utility.yul\":28240:28243   */\n      0x00\n        /* \"#utility.yul\":28261:28328   */\n      tag_606\n        /* \"#utility.yul\":28325:28327   */\n      0x11\n        /* \"#utility.yul\":28320:28323   */\n      dup4\n        /* \"#utility.yul\":28261:28328   */\n      tag_273\n      jump\t// in\n    tag_606:\n        /* \"#utility.yul\":28254:28328   */\n      swap2\n      pop\n        /* \"#utility.yul\":28337:28430   */\n      tag_607\n        /* \"#utility.yul\":28426:28429   */\n      dup3\n        /* \"#utility.yul\":28337:28430   */\n      tag_311\n      jump\t// in\n    tag_607:\n        /* \"#utility.yul\":28455:28457   */\n      0x20\n        /* \"#utility.yul\":28450:28453   */\n      dup3\n        /* \"#utility.yul\":28446:28458   */\n      add\n        /* \"#utility.yul\":28439:28458   */\n      swap1\n      pop\n        /* \"#utility.yul\":28098:28464   */\n      swap2\n      swap1\n      pop\n      jump\t// out\n        /* \"#utility.yul\":28470:28889   */\n    tag_100:\n        /* \"#utility.yul\":28636:28640   */\n      0x00\n        /* \"#utility.yul\":28674:28676   */\n      0x20\n        /* \"#utility.yul\":28663:28672   */\n      dup3\n        /* \"#utility.yul\":28659:28677   */\n      add\n        /* \"#utility.yul\":28651:28677   */\n      swap1\n      pop\n        /* \"#utility.yul\":28723:28732   */\n      dup2\n        /* \"#utility.yul\":28717:28721   */\n      dup2\n        /* \"#utility.yul\":28713:28733   */\n      sub\n        /* \"#utility.yul\":28709:28710   */\n      0x00\n        /* \"#utility.yul\":28698:28707   */\n      dup4\n        /* \"#utility.yul\":28694:28711   */\n      add\n        /* \"#utility.yul\":28687:28734   */\n      mstore\n        /* \"#utility.yul\":28751:28882   */\n      tag_609\n        /* \"#utility.yul\":28877:28881   */\n      dup2\n        /* \"#utility.yul\":28751:28882   */\n      tag_312\n      jump\t// in\n    tag_609:\n        /* \"#utility.yul\":28743:28882   */\n      swap1\n      pop\n        /* \"#utility.yul\":28470:28889   */\n      swap2\n      swap1\n      pop\n      jump\t// out\n        /* \"#utility.yul\":28895:29215   */\n    tag_104:\n        /* \"#utility.yul\":29010:29014   */\n      0x00\n        /* \"#utility.yul\":29048:29050   */\n      0x40\n        /* \"#utility.yul\":29037:29046   */\n      dup3\n        /* \"#utility.yul\":29033:29051   */\n      add\n        /* \"#utility.yul\":29025:29051   */\n      swap1\n      pop\n        /* \"#utility.yul\":29061:29132   */\n      tag_611\n        /* \"#utility.yul\":29129:29130   */\n      0x00\n        /* \"#utility.yul\":29118:29127   */\n      dup4\n        /* \"#utility.yul\":29114:29131   */\n      add\n        /* \"#utility.yul\":29105:29111   */\n      dup6\n        /* \"#utility.yul\":29061:29132   */\n      tag_266\n      jump\t// in\n    tag_611:\n        /* \"#utility.yul\":29142:29208   */\n      tag_612\n        /* \"#utility.yul\":29204:29206   */\n      0x20\n        /* \"#utility.yul\":29193:29202   */\n      dup4\n        /* \"#utility.yul\":29189:29207   */\n      add\n        /* \"#utility.yul\":29180:29186   */\n      dup5\n        /* \"#utility.yul\":29142:29208   */\n      tag_271\n      jump\t// in\n    tag_612:\n        /* \"#utility.yul\":28895:29215   */\n      swap4\n      swap3\n      pop\n      pop\n      pop\n      jump\t// out\n        /* \"#utility.yul\":29221:29386   */\n    tag_313:\n        /* \"#utility.yul\":29361:29378   */\n      0x4e6f20706f6c6c20637265617465640000000000000000000000000000000000\n        /* \"#utility.yul\":29357:29358   */\n      0x00\n        /* \"#utility.yul\":29349:29355   */\n      dup3\n        /* \"#utility.yul\":29345:29359   */\n      add\n        /* \"#utility.yul\":29338:29379   */\n      mstore\n        /* \"#utility.yul\":29221:29386   */\n      pop\n      jump\t// out\n        /* \"#utility.yul\":29392:29758   */\n    tag_314:\n        /* \"#utility.yul\":29534:29537   */\n      0x00\n        /* \"#utility.yul\":29555:29622   */\n      tag_615\n        /* \"#utility.yul\":29619:29621   */\n      0x0f\n        /* \"#utility.yul\":29614:29617   */\n      dup4\n        /* \"#utility.yul\":29555:29622   */\n      tag_273\n      jump\t// in\n    tag_615:\n        /* \"#utility.yul\":29548:29622   */\n      swap2\n      pop\n        /* \"#utility.yul\":29631:29724   */\n      tag_616\n        /* \"#utility.yul\":29720:29723   */\n      dup3\n        /* \"#utility.yul\":29631:29724   */\n      tag_313\n      jump\t// in\n    tag_616:\n        /* \"#utility.yul\":29749:29751   */\n      0x20\n        /* \"#utility.yul\":29744:29747   */\n      dup3\n        /* \"#utility.yul\":29740:29752   */\n      add\n        /* \"#utility.yul\":29733:29752   */\n      swap1\n      pop\n        /* \"#utility.yul\":29392:29758   */\n      swap2\n      swap1\n      pop\n      jump\t// out\n        /* \"#utility.yul\":29764:30183   */\n    tag_109:\n        /* \"#utility.yul\":29930:29934   */\n      0x00\n        /* \"#utility.yul\":29968:29970   */\n      0x20\n        /* \"#utility.yul\":29957:29966   */\n      dup3\n        /* \"#utility.yul\":29953:29971   */\n      add\n        /* \"#utility.yul\":29945:29971   */\n      swap1\n      pop\n        /* \"#utility.yul\":30017:30026   */\n      dup2\n        /* \"#utility.yul\":30011:30015   */\n      dup2\n        /* \"#utility.yul\":30007:30027   */\n      sub\n        /* \"#utility.yul\":30003:30004   */\n      0x00\n        /* \"#utility.yul\":29992:30001   */\n      dup4\n        /* \"#utility.yul\":29988:30005   */\n      add\n        /* \"#utility.yul\":29981:30028   */\n      mstore\n        /* \"#utility.yul\":30045:30176   */\n      tag_618\n        /* \"#utility.yul\":30171:30175   */\n      dup2\n        /* \"#utility.yul\":30045:30176   */\n      tag_314\n      jump\t// in\n    tag_618:\n        /* \"#utility.yul\":30037:30176   */\n      swap1\n      pop\n        /* \"#utility.yul\":29764:30183   */\n      swap2\n      swap1\n      pop\n      jump\t// out\n        /* \"#utility.yul\":30189:30369   */\n    tag_122:\n        /* \"#utility.yul\":30237:30314   */\n      0x4e487b7100000000000000000000000000000000000000000000000000000000\n        /* \"#utility.yul\":30234:30235   */\n      0x00\n        /* \"#utility.yul\":30227:30315   */\n      mstore\n        /* \"#utility.yul\":30334:30338   */\n      0x32\n        /* \"#utility.yul\":30331:30332   */\n      0x04\n        /* \"#utility.yul\":30324:30339   */\n      mstore\n        /* \"#utility.yul\":30358:30362   */\n      0x24\n        /* \"#utility.yul\":30355:30356   */\n      0x00\n        /* \"#utility.yul\":30348:30363   */\n      revert\n        /* \"#utility.yul\":30375:30545   */\n    tag_315:\n        /* \"#utility.yul\":30515:30537   */\n      0x79657420746f20637265617465206120706f6c6c000000000000000000000000\n        /* \"#utility.yul\":30511:30512   */\n      0x00\n        /* \"#utility.yul\":30503:30509   */\n      dup3\n        /* \"#utility.yul\":30499:30513   */\n      add\n        /* \"#utility.yul\":30492:30538   */\n      mstore\n        /* \"#utility.yul\":30375:30545   */\n      pop\n      jump\t// out\n        /* \"#utility.yul\":30551:30917   */\n    tag_316:\n        /* \"#utility.yul\":30693:30696   */\n      0x00\n        /* \"#utility.yul\":30714:30781   */\n      tag_622\n        /* \"#utility.yul\":30778:30780   */\n      0x14\n        /* \"#utility.yul\":30773:30776   */\n      dup4\n        /* \"#utility.yul\":30714:30781   */\n      tag_273\n      jump\t// in\n    tag_622:\n        /* \"#utility.yul\":30707:30781   */\n      swap2\n      pop\n        /* \"#utility.yul\":30790:30883   */\n      tag_623\n        /* \"#utility.yul\":30879:30882   */\n      dup3\n        /* \"#utility.yul\":30790:30883   */\n      tag_315\n      jump\t// in\n    tag_623:\n        /* \"#utility.yul\":30908:30910   */\n      0x20\n        /* \"#utility.yul\":30903:30906   */\n      dup3\n        /* \"#utility.yul\":30899:30911   */\n      add\n        /* \"#utility.yul\":30892:30911   */\n      swap1\n      pop\n        /* \"#utility.yul\":30551:30917   */\n      swap2\n      swap1\n      pop\n      jump\t// out\n        /* \"#utility.yul\":30923:31342   */\n    tag_134:\n        /* \"#utility.yul\":31089:31093   */\n      0x00\n        /* \"#utility.yul\":31127:31129   */\n      0x20\n        /* \"#utility.yul\":31116:31125   */\n      dup3\n        /* \"#utility.yul\":31112:31130   */\n      add\n        /* \"#utility.yul\":31104:31130   */\n      swap1\n      pop\n        /* \"#utility.yul\":31176:31185   */\n      dup2\n        /* \"#utility.yul\":31170:31174   */\n      dup2\n        /* \"#utility.yul\":31166:31186   */\n      sub\n        /* \"#utility.yul\":31162:31163   */\n      0x00\n        /* \"#utility.yul\":31151:31160   */\n      dup4\n        /* \"#utility.yul\":31147:31164   */\n      add\n        /* \"#utility.yul\":31140:31187   */\n      mstore\n        /* \"#utility.yul\":31204:31335   */\n      tag_625\n        /* \"#utility.yul\":31330:31334   */\n      dup2\n        /* \"#utility.yul\":31204:31335   */\n      tag_316\n      jump\t// in\n    tag_625:\n        /* \"#utility.yul\":31196:31335   */\n      swap1\n      pop\n        /* \"#utility.yul\":30923:31342   */\n      swap2\n      swap1\n      pop\n      jump\t// out\n        /* \"#utility.yul\":31348:31528   */\n    tag_137:\n        /* \"#utility.yul\":31396:31473   */\n      0x4e487b7100000000000000000000000000000000000000000000000000000000\n        /* \"#utility.yul\":31393:31394   */\n      0x00\n        /* \"#utility.yul\":31386:31474   */\n      mstore\n        /* \"#utility.yul\":31493:31497   */\n      0x01\n        /* \"#utility.yul\":31490:31491   */\n      0x04\n        /* \"#utility.yul\":31483:31498   */\n      mstore\n        /* \"#utility.yul\":31517:31521   */\n      0x24\n        /* \"#utility.yul\":31514:31515   */\n      0x00\n        /* \"#utility.yul\":31507:31522   */\n      revert\n        /* \"#utility.yul\":31534:31767   */\n    tag_317:\n        /* \"#utility.yul\":31674:31708   */\n      0x6d6178696d756d206e6f206f662063616e646964617465207065722073657373\n        /* \"#utility.yul\":31670:31671   */\n      0x00\n        /* \"#utility.yul\":31662:31668   */\n      dup3\n        /* \"#utility.yul\":31658:31672   */\n      add\n        /* \"#utility.yul\":31651:31709   */\n      mstore\n        /* \"#utility.yul\":31743:31759   */\n      0x696f6e2072656769737465726564000000000000000000000000000000000000\n        /* \"#utility.yul\":31738:31740   */\n      0x20\n        /* \"#utility.yul\":31730:31736   */\n      dup3\n        /* \"#utility.yul\":31726:31741   */\n      add\n        /* \"#utility.yul\":31719:31760   */\n      mstore\n        /* \"#utility.yul\":31534:31767   */\n      pop\n      jump\t// out\n        /* \"#utility.yul\":31773:32139   */\n    tag_318:\n        /* \"#utility.yul\":31915:31918   */\n      0x00\n        /* \"#utility.yul\":31936:32003   */\n      tag_629\n        /* \"#utility.yul\":32000:32002   */\n      0x2e\n        /* \"#utility.yul\":31995:31998   */\n      dup4\n        /* \"#utility.yul\":31936:32003   */\n      tag_273\n      jump\t// in\n    tag_629:\n        /* \"#utility.yul\":31929:32003   */\n      swap2\n      pop\n        /* \"#utility.yul\":32012:32105   */\n      tag_630\n        /* \"#utility.yul\":32101:32104   */\n      dup3\n        /* \"#utility.yul\":32012:32105   */\n      tag_317\n      jump\t// in\n    tag_630:\n        /* \"#utility.yul\":32130:32132   */\n      0x40\n        /* \"#utility.yul\":32125:32128   */\n      dup3\n        /* \"#utility.yul\":32121:32133   */\n      add\n        /* \"#utility.yul\":32114:32133   */\n      swap1\n      pop\n        /* \"#utility.yul\":31773:32139   */\n      swap2\n      swap1\n      pop\n      jump\t// out\n        /* \"#utility.yul\":32145:32564   */\n    tag_140:\n        /* \"#utility.yul\":32311:32315   */\n      0x00\n        /* \"#utility.yul\":32349:32351   */\n      0x20\n        /* \"#utility.yul\":32338:32347   */\n      dup3\n        /* \"#utility.yul\":32334:32352   */\n      add\n        /* \"#utility.yul\":32326:32352   */\n      swap1\n      pop\n        /* \"#utility.yul\":32398:32407   */\n      dup2\n        /* \"#utility.yul\":32392:32396   */\n      dup2\n        /* \"#utility.yul\":32388:32408   */\n      sub\n        /* \"#utility.yul\":32384:32385   */\n      0x00\n        /* \"#utility.yul\":32373:32382   */\n      dup4\n        /* \"#utility.yul\":32369:32386   */\n      add\n        /* \"#utility.yul\":32362:32409   */\n      mstore\n        /* \"#utility.yul\":32426:32557   */\n      tag_632\n        /* \"#utility.yul\":32552:32556   */\n      dup2\n        /* \"#utility.yul\":32426:32557   */\n      tag_318\n      jump\t// in\n    tag_632:\n        /* \"#utility.yul\":32418:32557   */\n      swap1\n      pop\n        /* \"#utility.yul\":32145:32564   */\n      swap2\n      swap1\n      pop\n      jump\t// out\n        /* \"#utility.yul\":32570:32745   */\n    tag_143:\n        /* \"#utility.yul\":32608:32611   */\n      0x00\n        /* \"#utility.yul\":32631:32654   */\n      tag_634\n        /* \"#utility.yul\":32648:32653   */\n      dup3\n        /* \"#utility.yul\":32631:32654   */\n      tag_268\n      jump\t// in\n    tag_634:\n        /* \"#utility.yul\":32622:32654   */\n      swap2\n      pop\n        /* \"#utility.yul\":32676:32686   */\n      0xffffffff\n        /* \"#utility.yul\":32669:32674   */\n      dup3\n        /* \"#utility.yul\":32666:32687   */\n      eq\n        /* \"#utility.yul\":32663:32710   */\n      iszero\n      tag_635\n      jumpi\n        /* \"#utility.yul\":32690:32708   */\n      tag_636\n      tag_310\n      jump\t// in\n    tag_636:\n        /* \"#utility.yul\":32663:32710   */\n    tag_635:\n        /* \"#utility.yul\":32737:32738   */\n      0x01\n        /* \"#utility.yul\":32730:32735   */\n      dup3\n        /* \"#utility.yul\":32726:32739   */\n      add\n        /* \"#utility.yul\":32719:32739   */\n      swap1\n      pop\n        /* \"#utility.yul\":32570:32745   */\n      swap2\n      swap1\n      pop\n      jump\t// out\n        /* \"#utility.yul\":32751:32973   */\n    tag_145:\n        /* \"#utility.yul\":32844:32848   */\n      0x00\n        /* \"#utility.yul\":32882:32884   */\n      0x20\n        /* \"#utility.yul\":32871:32880   */\n      dup3\n        /* \"#utility.yul\":32867:32885   */\n      add\n        /* \"#utility.yul\":32859:32885   */\n      swap1\n      pop\n        /* \"#utility.yul\":32895:32966   */\n      tag_638\n        /* \"#utility.yul\":32963:32964   */\n      0x00\n        /* \"#utility.yul\":32952:32961   */\n      dup4\n        /* \"#utility.yul\":32948:32965   */\n      add\n        /* \"#utility.yul\":32939:32945   */\n      dup5\n        /* \"#utility.yul\":32895:32966   */\n      tag_266\n      jump\t// in\n    tag_638:\n        /* \"#utility.yul\":32751:32973   */\n      swap3\n      swap2\n      pop\n      pop\n      jump\t// out\n        /* \"#utility.yul\":32979:33159   */\n    tag_319:\n        /* \"#utility.yul\":33027:33104   */\n      0x4e487b7100000000000000000000000000000000000000000000000000000000\n        /* \"#utility.yul\":33024:33025   */\n      0x00\n        /* \"#utility.yul\":33017:33105   */\n      mstore\n        /* \"#utility.yul\":33124:33128   */\n      0x22\n        /* \"#utility.yul\":33121:33122   */\n      0x04\n        /* \"#utility.yul\":33114:33129   */\n      mstore\n        /* \"#utility.yul\":33148:33152   */\n      0x24\n        /* \"#utility.yul\":33145:33146   */\n      0x00\n        /* \"#utility.yul\":33138:33153   */\n      revert\n        /* \"#utility.yul\":33165:33485   */\n    tag_151:\n        /* \"#utility.yul\":33209:33215   */\n      0x00\n        /* \"#utility.yul\":33246:33247   */\n      0x02\n        /* \"#utility.yul\":33240:33244   */\n      dup3\n        /* \"#utility.yul\":33236:33248   */\n      div\n        /* \"#utility.yul\":33226:33248   */\n      swap1\n      pop\n        /* \"#utility.yul\":33293:33294   */\n      0x01\n        /* \"#utility.yul\":33287:33291   */\n      dup3\n        /* \"#utility.yul\":33283:33295   */\n      and\n        /* \"#utility.yul\":33314:33332   */\n      dup1\n        /* \"#utility.yul\":33304:33385   */\n      tag_641\n      jumpi\n        /* \"#utility.yul\":33370:33374   */\n      0x7f\n        /* \"#utility.yul\":33362:33368   */\n      dup3\n        /* \"#utility.yul\":33358:33375   */\n      and\n        /* \"#utility.yul\":33348:33375   */\n      swap2\n      pop\n        /* \"#utility.yul\":33304:33385   */\n    tag_641:\n        /* \"#utility.yul\":33432:33434   */\n      0x20\n        /* \"#utility.yul\":33424:33430   */\n      dup3\n        /* \"#utility.yul\":33421:33435   */\n      lt\n        /* \"#utility.yul\":33401:33419   */\n      dup2\n        /* \"#utility.yul\":33398:33436   */\n      eq\n        /* \"#utility.yul\":33395:33479   */\n      iszero\n      tag_642\n      jumpi\n        /* \"#utility.yul\":33451:33469   */\n      tag_643\n      tag_319\n      jump\t// in\n    tag_643:\n        /* \"#utility.yul\":33395:33479   */\n    tag_642:\n        /* \"#utility.yul\":33216:33485   */\n      pop\n        /* \"#utility.yul\":33165:33485   */\n      swap2\n      swap1\n      pop\n      jump\t// out\n        /* \"#utility.yul\":33491:33657   */\n    tag_320:\n        /* \"#utility.yul\":33631:33649   */\n      0x6e6f74207468652063686169726d616e00000000000000000000000000000000\n        /* \"#utility.yul\":33627:33628   */\n      0x00\n        /* \"#utility.yul\":33619:33625   */\n      dup3\n        /* \"#utility.yul\":33615:33629   */\n      add\n        /* \"#utility.yul\":33608:33650   */\n      mstore\n        /* \"#utility.yul\":33491:33657   */\n      pop\n      jump\t// out\n        /* \"#utility.yul\":33663:34029   */\n    tag_321:\n        /* \"#utility.yul\":33805:33808   */\n      0x00\n        /* \"#utility.yul\":33826:33893   */\n      tag_646\n        /* \"#utility.yul\":33890:33892   */\n      0x10\n        /* \"#utility.yul\":33885:33888   */\n      dup4\n        /* \"#utility.yul\":33826:33893   */\n      tag_273\n      jump\t// in\n    tag_646:\n        /* \"#utility.yul\":33819:33893   */\n      swap2\n      pop\n        /* \"#utility.yul\":33902:33995   */\n      tag_647\n        /* \"#utility.yul\":33991:33994   */\n      dup3\n        /* \"#utility.yul\":33902:33995   */\n      tag_320\n      jump\t// in\n    tag_647:\n        /* \"#utility.yul\":34020:34022   */\n      0x20\n        /* \"#utility.yul\":34015:34018   */\n      dup3\n        /* \"#utility.yul\":34011:34023   */\n      add\n        /* \"#utility.yul\":34004:34023   */\n      swap1\n      pop\n        /* \"#utility.yul\":33663:34029   */\n      swap2\n      swap1\n      pop\n      jump\t// out\n        /* \"#utility.yul\":34035:34454   */\n    tag_164:\n        /* \"#utility.yul\":34201:34205   */\n      0x00\n        /* \"#utility.yul\":34239:34241   */\n      0x20\n        /* \"#utility.yul\":34228:34237   */\n      dup3\n        /* \"#utility.yul\":34224:34242   */\n      add\n        /* \"#utility.yul\":34216:34242   */\n      swap1\n      pop\n        /* \"#utility.yul\":34288:34297   */\n      dup2\n        /* \"#utility.yul\":34282:34286   */\n      dup2\n        /* \"#utility.yul\":34278:34298   */\n      sub\n        /* \"#utility.yul\":34274:34275   */\n      0x00\n        /* \"#utility.yul\":34263:34272   */\n      dup4\n        /* \"#utility.yul\":34259:34276   */\n      add\n        /* \"#utility.yul\":34252:34299   */\n      mstore\n        /* \"#utility.yul\":34316:34447   */\n      tag_649\n        /* \"#utility.yul\":34442:34446   */\n      dup2\n        /* \"#utility.yul\":34316:34447   */\n      tag_321\n      jump\t// in\n    tag_649:\n        /* \"#utility.yul\":34308:34447   */\n      swap1\n      pop\n        /* \"#utility.yul\":34035:34454   */\n      swap2\n      swap1\n      pop\n      jump\t// out\n        /* \"#utility.yul\":34460:34601   */\n    tag_322:\n        /* \"#utility.yul\":34509:34513   */\n      0x00\n        /* \"#utility.yul\":34532:34535   */\n      dup2\n        /* \"#utility.yul\":34524:34535   */\n      swap1\n      pop\n        /* \"#utility.yul\":34555:34558   */\n      dup2\n        /* \"#utility.yul\":34552:34553   */\n      0x00\n        /* \"#utility.yul\":34545:34559   */\n      mstore\n        /* \"#utility.yul\":34589:34593   */\n      0x20\n        /* \"#utility.yul\":34586:34587   */\n      0x00\n        /* \"#utility.yul\":34576:34594   */\n      keccak256\n        /* \"#utility.yul\":34568:34594   */\n      swap1\n      pop\n        /* \"#utility.yul\":34460:34601   */\n      swap2\n      swap1\n      pop\n      jump\t// out\n        /* \"#utility.yul\":34631:35476   */\n    tag_323:\n        /* \"#utility.yul\":34734:34737   */\n      0x00\n        /* \"#utility.yul\":34771:34776   */\n      dup2\n        /* \"#utility.yul\":34765:34777   */\n      sload\n        /* \"#utility.yul\":34800:34836   */\n      tag_652\n        /* \"#utility.yul\":34826:34835   */\n      dup2\n        /* \"#utility.yul\":34800:34836   */\n      tag_151\n      jump\t// in\n    tag_652:\n        /* \"#utility.yul\":34852:34941   */\n      tag_653\n        /* \"#utility.yul\":34934:34940   */\n      dup2\n        /* \"#utility.yul\":34929:34932   */\n      dup7\n        /* \"#utility.yul\":34852:34941   */\n      tag_300\n      jump\t// in\n    tag_653:\n        /* \"#utility.yul\":34845:34941   */\n      swap5\n      pop\n        /* \"#utility.yul\":34972:34973   */\n      0x01\n        /* \"#utility.yul\":34961:34970   */\n      dup3\n        /* \"#utility.yul\":34957:34974   */\n      and\n        /* \"#utility.yul\":34988:34989   */\n      0x00\n        /* \"#utility.yul\":34983:35120   */\n      dup2\n      eq\n      tag_655\n      jumpi\n        /* \"#utility.yul\":35134:35135   */\n      0x01\n        /* \"#utility.yul\":35129:35470   */\n      dup2\n      eq\n      tag_656\n      jumpi\n        /* \"#utility.yul\":34950:35470   */\n      jump(tag_654)\n        /* \"#utility.yul\":34983:35120   */\n    tag_655:\n        /* \"#utility.yul\":35067:35071   */\n      0xff\n        /* \"#utility.yul\":35063:35072   */\n      not\n        /* \"#utility.yul\":35052:35061   */\n      dup4\n        /* \"#utility.yul\":35048:35073   */\n      and\n        /* \"#utility.yul\":35043:35046   */\n      dup7\n        /* \"#utility.yul\":35036:35074   */\n      mstore\n        /* \"#utility.yul\":35103:35109   */\n      dup2\n        /* \"#utility.yul\":35098:35101   */\n      dup7\n        /* \"#utility.yul\":35094:35110   */\n      add\n        /* \"#utility.yul\":35087:35110   */\n      swap4\n      pop\n        /* \"#utility.yul\":34983:35120   */\n      jump(tag_654)\n        /* \"#utility.yul\":35129:35470   */\n    tag_656:\n        /* \"#utility.yul\":35196:35234   */\n      tag_657\n        /* \"#utility.yul\":35228:35233   */\n      dup6\n        /* \"#utility.yul\":35196:35234   */\n      tag_322\n      jump\t// in\n    tag_657:\n        /* \"#utility.yul\":35256:35257   */\n      0x00\n        /* \"#utility.yul\":35270:35424   */\n    tag_658:\n        /* \"#utility.yul\":35284:35290   */\n      dup4\n        /* \"#utility.yul\":35281:35282   */\n      dup2\n        /* \"#utility.yul\":35278:35291   */\n      lt\n        /* \"#utility.yul\":35270:35424   */\n      iszero\n      tag_660\n      jumpi\n        /* \"#utility.yul\":35358:35365   */\n      dup2\n        /* \"#utility.yul\":35352:35366   */\n      sload\n        /* \"#utility.yul\":35348:35349   */\n      dup2\n        /* \"#utility.yul\":35343:35346   */\n      dup10\n        /* \"#utility.yul\":35339:35350   */\n      add\n        /* \"#utility.yul\":35332:35367   */\n      mstore\n        /* \"#utility.yul\":35408:35409   */\n      0x01\n        /* \"#utility.yul\":35399:35406   */\n      dup3\n        /* \"#utility.yul\":35395:35410   */\n      add\n        /* \"#utility.yul\":35384:35410   */\n      swap2\n      pop\n        /* \"#utility.yul\":35306:35310   */\n      0x20\n        /* \"#utility.yul\":35303:35304   */\n      dup2\n        /* \"#utility.yul\":35299:35311   */\n      add\n        /* \"#utility.yul\":35294:35311   */\n      swap1\n      pop\n        /* \"#utility.yul\":35270:35424   */\n      jump(tag_658)\n    tag_660:\n        /* \"#utility.yul\":35453:35459   */\n      dup4\n        /* \"#utility.yul\":35448:35451   */\n      dup9\n        /* \"#utility.yul\":35444:35460   */\n      add\n        /* \"#utility.yul\":35437:35460   */\n      swap6\n      pop\n        /* \"#utility.yul\":35136:35470   */\n      pop\n      pop\n        /* \"#utility.yul\":34950:35470   */\n    tag_654:\n      pop\n        /* \"#utility.yul\":34738:35476   */\n      pop\n      pop\n        /* \"#utility.yul\":34631:35476   */\n      swap3\n      swap2\n      pop\n      pop\n      jump\t// out\n        /* \"#utility.yul\":35482:35751   */\n    tag_185:\n        /* \"#utility.yul\":35611:35614   */\n      0x00\n        /* \"#utility.yul\":35633:35725   */\n      tag_662\n        /* \"#utility.yul\":35721:35724   */\n      dup3\n        /* \"#utility.yul\":35712:35718   */\n      dup5\n        /* \"#utility.yul\":35633:35725   */\n      tag_323\n      jump\t// in\n    tag_662:\n        /* \"#utility.yul\":35626:35725   */\n      swap2\n      pop\n        /* \"#utility.yul\":35742:35745   */\n      dup2\n        /* \"#utility.yul\":35735:35745   */\n      swap1\n      pop\n        /* \"#utility.yul\":35482:35751   */\n      swap3\n      swap2\n      pop\n      pop\n      jump\t// out\n        /* \"#utility.yul\":35757:35843   */\n    tag_324:\n        /* \"#utility.yul\":35792:35799   */\n      0x00\n        /* \"#utility.yul\":35832:35836   */\n      0xff\n        /* \"#utility.yul\":35825:35830   */\n      dup3\n        /* \"#utility.yul\":35821:35837   */\n      and\n        /* \"#utility.yul\":35810:35837   */\n      swap1\n      pop\n        /* \"#utility.yul\":35757:35843   */\n      swap2\n      swap1\n      pop\n      jump\t// out\n        /* \"#utility.yul\":35849:36086   */\n    tag_207:\n        /* \"#utility.yul\":35887:35890   */\n      0x00\n        /* \"#utility.yul\":35906:35924   */\n      tag_665\n        /* \"#utility.yul\":35922:35923   */\n      dup3\n        /* \"#utility.yul\":35906:35924   */\n      tag_324\n      jump\t// in\n    tag_665:\n        /* \"#utility.yul\":35901:35924   */\n      swap2\n      pop\n        /* \"#utility.yul\":35938:35956   */\n      tag_666\n        /* \"#utility.yul\":35954:35955   */\n      dup4\n        /* \"#utility.yul\":35938:35956   */\n      tag_324\n      jump\t// in\n    tag_666:\n        /* \"#utility.yul\":35933:35956   */\n      swap3\n      pop\n        /* \"#utility.yul\":36028:36029   */\n      dup3\n        /* \"#utility.yul\":36022:36026   */\n      0xff\n        /* \"#utility.yul\":36018:36030   */\n      sub\n        /* \"#utility.yul\":36015:36016   */\n      dup3\n        /* \"#utility.yul\":36012:36031   */\n      gt\n        /* \"#utility.yul\":36009:36054   */\n      iszero\n      tag_667\n      jumpi\n        /* \"#utility.yul\":36034:36052   */\n      tag_668\n      tag_310\n      jump\t// in\n    tag_668:\n        /* \"#utility.yul\":36009:36054   */\n    tag_667:\n        /* \"#utility.yul\":36078:36079   */\n      dup3\n        /* \"#utility.yul\":36075:36076   */\n      dup3\n        /* \"#utility.yul\":36071:36080   */\n      add\n        /* \"#utility.yul\":36064:36080   */\n      swap1\n      pop\n        /* \"#utility.yul\":35849:36086   */\n      swap3\n      swap2\n      pop\n      pop\n      jump\t// out\n        /* \"#utility.yul\":36092:36306   */\n    tag_325:\n        /* \"#utility.yul\":36232:36298   */\n      0x19457468657265756d205369676e6564204d6573736167653a0a333200000000\n        /* \"#utility.yul\":36228:36229   */\n      0x00\n        /* \"#utility.yul\":36220:36226   */\n      dup3\n        /* \"#utility.yul\":36216:36230   */\n      add\n        /* \"#utility.yul\":36209:36299   */\n      mstore\n        /* \"#utility.yul\":36092:36306   */\n      pop\n      jump\t// out\n        /* \"#utility.yul\":36312:36714   */\n    tag_326:\n        /* \"#utility.yul\":36472:36475   */\n      0x00\n        /* \"#utility.yul\":36493:36578   */\n      tag_671\n        /* \"#utility.yul\":36575:36577   */\n      0x1c\n        /* \"#utility.yul\":36570:36573   */\n      dup4\n        /* \"#utility.yul\":36493:36578   */\n      tag_300\n      jump\t// in\n    tag_671:\n        /* \"#utility.yul\":36486:36578   */\n      swap2\n      pop\n        /* \"#utility.yul\":36587:36680   */\n      tag_672\n        /* \"#utility.yul\":36676:36679   */\n      dup3\n        /* \"#utility.yul\":36587:36680   */\n      tag_325\n      jump\t// in\n    tag_672:\n        /* \"#utility.yul\":36705:36707   */\n      0x1c\n        /* \"#utility.yul\":36700:36703   */\n      dup3\n        /* \"#utility.yul\":36696:36708   */\n      add\n        /* \"#utility.yul\":36689:36708   */\n      swap1\n      pop\n        /* \"#utility.yul\":36312:36714   */\n      swap2\n      swap1\n      pop\n      jump\t// out\n        /* \"#utility.yul\":36720:36799   */\n    tag_327:\n        /* \"#utility.yul\":36759:36766   */\n      0x00\n        /* \"#utility.yul\":36788:36793   */\n      dup2\n        /* \"#utility.yul\":36777:36793   */\n      swap1\n      pop\n        /* \"#utility.yul\":36720:36799   */\n      swap2\n      swap1\n      pop\n      jump\t// out\n        /* \"#utility.yul\":36805:36962   */\n    tag_328:\n        /* \"#utility.yul\":36910:36955   */\n      tag_675\n        /* \"#utility.yul\":36930:36954   */\n      tag_676\n        /* \"#utility.yul\":36948:36953   */\n      dup3\n        /* \"#utility.yul\":36930:36954   */\n      tag_254\n      jump\t// in\n    tag_676:\n        /* \"#utility.yul\":36910:36955   */\n      tag_327\n      jump\t// in\n    tag_675:\n        /* \"#utility.yul\":36905:36908   */\n      dup3\n        /* \"#utility.yul\":36898:36956   */\n      mstore\n        /* \"#utility.yul\":36805:36962   */\n      pop\n      pop\n      jump\t// out\n        /* \"#utility.yul\":36968:37490   */\n    tag_212:\n        /* \"#utility.yul\":37181:37184   */\n      0x00\n        /* \"#utility.yul\":37203:37351   */\n      tag_678\n        /* \"#utility.yul\":37347:37350   */\n      dup3\n        /* \"#utility.yul\":37203:37351   */\n      tag_326\n      jump\t// in\n    tag_678:\n        /* \"#utility.yul\":37196:37351   */\n      swap2\n      pop\n        /* \"#utility.yul\":37361:37436   */\n      tag_679\n        /* \"#utility.yul\":37432:37435   */\n      dup3\n        /* \"#utility.yul\":37423:37429   */\n      dup5\n        /* \"#utility.yul\":37361:37436   */\n      tag_328\n      jump\t// in\n    tag_679:\n        /* \"#utility.yul\":37461:37463   */\n      0x20\n        /* \"#utility.yul\":37456:37459   */\n      dup3\n        /* \"#utility.yul\":37452:37464   */\n      add\n        /* \"#utility.yul\":37445:37464   */\n      swap2\n      pop\n        /* \"#utility.yul\":37481:37484   */\n      dup2\n        /* \"#utility.yul\":37474:37484   */\n      swap1\n      pop\n        /* \"#utility.yul\":36968:37490   */\n      swap3\n      swap2\n      pop\n      pop\n      jump\t// out\n        /* \"#utility.yul\":37496:37608   */\n    tag_329:\n        /* \"#utility.yul\":37579:37601   */\n      tag_681\n        /* \"#utility.yul\":37595:37600   */\n      dup2\n        /* \"#utility.yul\":37579:37601   */\n      tag_324\n      jump\t// in\n    tag_681:\n        /* \"#utility.yul\":37574:37577   */\n      dup3\n        /* \"#utility.yul\":37567:37602   */\n      mstore\n        /* \"#utility.yul\":37496:37608   */\n      pop\n      pop\n      jump\t// out\n        /* \"#utility.yul\":37614:38159   */\n    tag_214:\n        /* \"#utility.yul\":37787:37791   */\n      0x00\n        /* \"#utility.yul\":37825:37828   */\n      0x80\n        /* \"#utility.yul\":37814:37823   */\n      dup3\n        /* \"#utility.yul\":37810:37829   */\n      add\n        /* \"#utility.yul\":37802:37829   */\n      swap1\n      pop\n        /* \"#utility.yul\":37839:37910   */\n      tag_683\n        /* \"#utility.yul\":37907:37908   */\n      0x00\n        /* \"#utility.yul\":37896:37905   */\n      dup4\n        /* \"#utility.yul\":37892:37909   */\n      add\n        /* \"#utility.yul\":37883:37889   */\n      dup8\n        /* \"#utility.yul\":37839:37910   */\n      tag_255\n      jump\t// in\n    tag_683:\n        /* \"#utility.yul\":37920:37988   */\n      tag_684\n        /* \"#utility.yul\":37984:37986   */\n      0x20\n        /* \"#utility.yul\":37973:37982   */\n      dup4\n        /* \"#utility.yul\":37969:37987   */\n      add\n        /* \"#utility.yul\":37960:37966   */\n      dup7\n        /* \"#utility.yul\":37920:37988   */\n      tag_329\n      jump\t// in\n    tag_684:\n        /* \"#utility.yul\":37998:38070   */\n      tag_685\n        /* \"#utility.yul\":38066:38068   */\n      0x40\n        /* \"#utility.yul\":38055:38064   */\n      dup4\n        /* \"#utility.yul\":38051:38069   */\n      add\n        /* \"#utility.yul\":38042:38048   */\n      dup6\n        /* \"#utility.yul\":37998:38070   */\n      tag_255\n      jump\t// in\n    tag_685:\n        /* \"#utility.yul\":38080:38152   */\n      tag_686\n        /* \"#utility.yul\":38148:38150   */\n      0x60\n        /* \"#utility.yul\":38137:38146   */\n      dup4\n        /* \"#utility.yul\":38133:38151   */\n      add\n        /* \"#utility.yul\":38124:38130   */\n      dup5\n        /* \"#utility.yul\":38080:38152   */\n      tag_255\n      jump\t// in\n    tag_686:\n        /* \"#utility.yul\":37614:38159   */\n      swap6\n      swap5\n      pop\n      pop\n      pop\n      pop\n      pop\n      jump\t// out\n\n    auxdata: 0xa2646970667358221220ed4569b450be01902dd8645b73cb41899c5be92022664af8b9ed41fc99f384c164736f6c634300080a0033\n}\n",
				"bytecode": {
					"linkReferences": {},
					"object": "608060405234801561001057600080fd5b50612976806100206000396000f3fe608060405234801561001057600080fd5b50600436106100b45760003560e01c80638579cacd116100715780638579cacd146101b6578063ae928e3e146101e6578063af7cbc0d14610216578063f0e4de2214610246578063f762f4c014610262578063f843706114610293576100b4565b806301ff993b146100b957806312f0da4b146100e95780634fcf1f391461010557806357f539671461013757806363ee965a1461015357806367d407df14610186575b600080fd5b6100d360048036038101906100ce9190611841565b6102b1565b6040516100e091906118dd565b60405180910390f35b61010360048036038101906100fe9190611999565b6102ec565b005b61011f600480360381019061011a9190611a38565b610623565b60405161012e93929190611b5d565b60405180910390f35b610151600480360381019061014c9190611b9b565b61086a565b005b61016d60048036038101906101689190611a38565b610b34565b60405161017d9493929190611c31565b60405180910390f35b6101a0600480360381019061019b9190611c76565b610bc7565b6040516101ad9190611ca3565b60405180910390f35b6101d060048036038101906101cb9190611a38565b610bdf565b6040516101dd9190611ca3565b60405180910390f35b61020060048036038101906101fb9190611cbe565b610c25565b60405161020d9190611d73565b60405180910390f35b610230600480360381019061022b9190611a38565b610cd1565b60405161023d9190611e53565b60405180910390f35b610260600480360381019061025b9190611a38565b610d86565b005b61027c60048036038101906102779190611ea1565b610eac565b60405161028a929190611efd565b60405180910390f35b61029b611022565b6040516102a891906120f2565b60405180910390f35b600030858585856040516020016102cc959493929190612205565b604051602081830303815290604052805190602001209050949350505050565b83836000600182604051610300919061226b565b90815260200160405180910390209050600115158160030160008573ffffffffffffffffffffffffffffffffffffffff1673ffffffffffffffffffffffffffffffffffffffff16815260200190815260200160002060009054906101000a900460ff161515146103a5576040517f08c379a000000000000000000000000000000000000000000000000000000000815260040161039c906122f4565b60405180910390fd5b8560006001826040516103b8919061226b565b90815260200160405180910390209050600115158160060160009054906101000a900460ff16151514610420576040517f08c379a000000000000000000000000000000000000000000000000000000000815260040161041790612360565b60405180910390fd5b600061042e8a8a8a426102b1565b9050600061043c8289611296565b9050600073ffffffffffffffffffffffffffffffffffffffff168173ffffffffffffffffffffffffffffffffffffffff16141561047857600080fd5b600260008273ffffffffffffffffffffffffffffffffffffffff1673ffffffffffffffffffffffffffffffffffffffff1681526020019081526020016000205489146104c357600080fd5b600260008273ffffffffffffffffffffffffffffffffffffffff1673ffffffffffffffffffffffffffffffffffffffff1681526020019081526020016000206000815480929190610513906123af565b9190505550600060018b60405161052a919061226b565b90815260200160405180910390209050600015158160040160008473ffffffffffffffffffffffffffffffffffffffff1673ffffffffffffffffffffffffffffffffffffffff16815260200190815260200160002060009054906101000a900460ff161515146105cf576040517f08c379a00000000000000000000000000000000000000000000000000000000081526004016105c690612444565b60405180910390fd5b6105da8c8c8461138f565b507ff3f16a15f074b71c5138107dfc7c63b80524d5411cb967caa97d8d9f12b2fd6b8c600160405161060d929190612464565b60405180910390a1505050505050505050505050565b6060600080600060018560405161063a919061226b565b90815260200160405180910390209050600073ffffffffffffffffffffffffffffffffffffffff168160000160009054906101000a900473ffffffffffffffffffffffffffffffffffffffff1673ffffffffffffffffffffffffffffffffffffffff1614156106de576040517f08c379a00000000000000000000000000000000000000000000000000000000081526004016106d5906124d9565b60405180910390fd5b806001018054905067ffffffffffffffff8111156106ff576106fe6116e0565b5b60405190808252806020026020018201604052801561072d5781602001602082028036833780820191505090505b50935060008060005b8360010180549050811161085657600061075089836114af565b9050838111156107a157809350846001018281548110610773576107726124f9565b5b9060005260206000200160009054906101000a900473ffffffffffffffffffffffffffffffffffffffff1692505b8460050160008660010184815481106107bd576107bc6124f9565b5b9060005260206000200160009054906101000a900473ffffffffffffffffffffffffffffffffffffffff1673ffffffffffffffffffffffffffffffffffffffff1673ffffffffffffffffffffffffffffffffffffffff16815260200190815260200160002054888381518110610836576108356124f9565b5b60200260200101818152505050808061084e906123af565b915050610736565b508581839550955095505050509193909250565b600060018260405161087c919061226b565b90815260200160405180910390209050600073ffffffffffffffffffffffffffffffffffffffff168160000160009054906101000a900473ffffffffffffffffffffffffffffffffffffffff1673ffffffffffffffffffffffffffffffffffffffff161415610920576040517f08c379a000000000000000000000000000000000000000000000000000000000815260040161091790612574565b60405180910390fd5b3373ffffffffffffffffffffffffffffffffffffffff168160000160009054906101000a900473ffffffffffffffffffffffffffffffffffffffff1673ffffffffffffffffffffffffffffffffffffffff16146109805761097f612594565b5b8060020160009054906101000a900463ffffffff1663ffffffff168160020160049054906101000a900463ffffffff1663ffffffff16106109f6576040517f08c379a00000000000000000000000000000000000000000000000000000000081526004016109ed90612635565b60405180910390fd5b60018160030160008573ffffffffffffffffffffffffffffffffffffffff1673ffffffffffffffffffffffffffffffffffffffff16815260200190815260200160002060006101000a81548160ff02191690831515021790555080600101839080600181540180825580915050600190039060005260206000200160009091909190916101000a81548173ffffffffffffffffffffffffffffffffffffffff021916908373ffffffffffffffffffffffffffffffffffffffff16021790555080600201600481819054906101000a900463ffffffff1680929190610ad990612655565b91906101000a81548163ffffffff021916908363ffffffff160217905550507fc19c59aa93348e8fc54764bc642eca975e2639f44cc683ef8f027e1529cbda3283604051610b279190612682565b60405180910390a1505050565b6001818051602081018201805184825260208301602085012081835280955050505050506000915090508060000160009054906101000a900473ffffffffffffffffffffffffffffffffffffffff16908060020160009054906101000a900463ffffffff16908060020160049054906101000a900463ffffffff16908060060160009054906101000a900460ff16905084565b60026020528060005260406000206000915090505481565b600080600183604051610bf2919061226b565b908152602001604051809103902090508060020160049054906101000a900463ffffffff1663ffffffff16915050919050565b60008181548110610c3557600080fd5b906000526020600020016000915090508054610c50906126cc565b80601f0160208091040260200160405190810160405280929190818152602001828054610c7c906126cc565b8015610cc95780601f10610c9e57610100808354040283529160200191610cc9565b820191906000526020600020905b815481529060010190602001808311610cac57829003601f168201915b505050505081565b60606000600183604051610ce5919061226b565b9081526020016040518091039020905080600101805480602002602001604051908101604052809291908181526020018280548015610d7957602002820191906000526020600020905b8160009054906101000a900473ffffffffffffffffffffffffffffffffffffffff1673ffffffffffffffffffffffffffffffffffffffff1681526020019060010190808311610d2f575b5050505050915050919050565b6000600182604051610d98919061226b565b908152602001604051809103902090503373ffffffffffffffffffffffffffffffffffffffff168160000160009054906101000a900473ffffffffffffffffffffffffffffffffffffffff1673ffffffffffffffffffffffffffffffffffffffff1614610e3a576040517f08c379a0000000000000000000000000000000000000000000000000000000008152600401610e319061274a565b60405180910390fd5b8060060160009054906101000a900460ff16158160060160006101000a81548160ff0219169083151502179055508060060160009054906101000a900460ff1615157f7b224db641892626dca6975b376f464e9ac52ccfa180436175170c009b94dcd760405160405180910390a25050565b6060600080600185604051610ec1919061226b565b90815260200160405180910390209050338160000160006101000a81548173ffffffffffffffffffffffffffffffffffffffff021916908373ffffffffffffffffffffffffffffffffffffffff160217905550838160020160006101000a81548163ffffffff021916908363ffffffff160217905550600085908060018154018082558091505060019003906000526020600020016000909190919091509080519060200190610f7292919061155d565b508060000160009054906101000a900473ffffffffffffffffffffffffffffffffffffffff1673ffffffffffffffffffffffffffffffffffffffff168160020160009054906101000a900463ffffffff1663ffffffff1686604051610fd7919061226b565b60405180910390207f4b35e5cf01446aa899a8d21082ebf23b7497d38f2466ad49836bd1006a8d059e60405160405180910390a484848063ffffffff16905092509250509250929050565b606060008054905067ffffffffffffffff811115611043576110426116e0565b5b60405190808252806020026020018201604052801561107c57816020015b6110696115e3565b8152602001906001900390816110615790505b50905060005b60008054905081106112925760006001600083815481106110a6576110a56124f9565b5b906000526020600020016040516110bd91906127fe565b908152602001604051809103902090508060000160009054906101000a900473ffffffffffffffffffffffffffffffffffffffff16838381518110611105576111046124f9565b5b60200260200101516000019073ffffffffffffffffffffffffffffffffffffffff16908173ffffffffffffffffffffffffffffffffffffffff16815250508060020160009054906101000a900463ffffffff1683838151811061116b5761116a6124f9565b5b60200260200101516040019063ffffffff16908163ffffffff168152505060016000838154811061119f5761119e6124f9565b5b906000526020600020016040516111b691906127fe565b908152602001604051809103902060020160049054906101000a900463ffffffff168383815181106111eb576111ea6124f9565b5b60200260200101516060019063ffffffff16908163ffffffff168152505060016000838154811061121f5761121e6124f9565b5b9060005260206000200160405161123691906127fe565b908152602001604051809103902060060160009054906101000a900460ff16838381518110611268576112676124f9565b5b6020026020010151608001901515908115158152505050808061128a906123af565b915050611082565b5090565b60008060008060418551146112b15760009350505050611389565b6020850151925060408501519150606085015160001a9050601b8160ff1610156112e557601b816112e29190612822565b90505b601b8160ff16141580156112fd5750601c8160ff1614155b1561130e5760009350505050611389565b60018660405160200161132191906128c6565b604051602081830303815290604052805190602001208285856040516000815260200160405260405161135794939291906128fb565b6020604051602081039080840390855afa158015611379573d6000803e3d6000fd5b5050506020604051035193505050505b92915050565b6000806001846040516113a2919061226b565b9081526020016040518091039020905060018160040160008573ffffffffffffffffffffffffffffffffffffffff1673ffffffffffffffffffffffffffffffffffffffff16815260200190815260200160002060006101000a81548160ff0219169083151502179055508060050160008673ffffffffffffffffffffffffffffffffffffffff1673ffffffffffffffffffffffffffffffffffffffff168152602001908152602001600020600081548092919061145e906123af565b91905055508060050160008673ffffffffffffffffffffffffffffffffffffffff1673ffffffffffffffffffffffffffffffffffffffff168152602001908152602001600020549150509392505050565b6000806001846040516114c2919061226b565b908152602001604051809103902090508060050160008260010185815481106114ee576114ed6124f9565b5b9060005260206000200160009054906101000a900473ffffffffffffffffffffffffffffffffffffffff1673ffffffffffffffffffffffffffffffffffffffff1673ffffffffffffffffffffffffffffffffffffffff1681526020019081526020016000205491505092915050565b828054611569906126cc565b90600052602060002090601f01602090048101928261158b57600085556115d2565b82601f106115a457805160ff19168380011785556115d2565b828001600101855582156115d2579182015b828111156115d15782518255916020019190600101906115b6565b5b5090506115df9190611636565b5090565b6040518060a00160405280600073ffffffffffffffffffffffffffffffffffffffff16815260200160608152602001600063ffffffff168152602001600063ffffffff1681526020016000151581525090565b5b8082111561164f576000816000905550600101611637565b5090565b6000604051905090565b600080fd5b600080fd5b600073ffffffffffffffffffffffffffffffffffffffff82169050919050565b600061169282611667565b9050919050565b6116a281611687565b81146116ad57600080fd5b50565b6000813590506116bf81611699565b92915050565b600080fd5b600080fd5b6000601f19601f8301169050919050565b7f4e487b7100000000000000000000000000000000000000000000000000000000600052604160045260246000fd5b611718826116cf565b810181811067ffffffffffffffff82111715611737576117366116e0565b5b80604052505050565b600061174a611653565b9050611756828261170f565b919050565b600067ffffffffffffffff821115611776576117756116e0565b5b61177f826116cf565b9050602081019050919050565b82818337600083830152505050565b60006117ae6117a98461175b565b611740565b9050828152602081018484840111156117ca576117c96116ca565b5b6117d584828561178c565b509392505050565b600082601f8301126117f2576117f16116c5565b5b813561180284826020860161179b565b91505092915050565b6000819050919050565b61181e8161180b565b811461182957600080fd5b50565b60008135905061183b81611815565b92915050565b6000806000806080858703121561185b5761185a61165d565b5b6000611869878288016116b0565b945050602085013567ffffffffffffffff81111561188a57611889611662565b5b611896878288016117dd565b93505060406118a78782880161182c565b92505060606118b88782880161182c565b91505092959194509250565b6000819050919050565b6118d7816118c4565b82525050565b60006020820190506118f260008301846118ce565b92915050565b600067ffffffffffffffff821115611913576119126116e0565b5b61191c826116cf565b9050602081019050919050565b600061193c611937846118f8565b611740565b905082815260208101848484011115611958576119576116ca565b5b61196384828561178c565b509392505050565b600082601f8301126119805761197f6116c5565b5b8135611990848260208601611929565b91505092915050565b600080600080608085870312156119b3576119b261165d565b5b60006119c1878288016116b0565b945050602085013567ffffffffffffffff8111156119e2576119e1611662565b5b6119ee878288016117dd565b93505060406119ff8782880161182c565b925050606085013567ffffffffffffffff811115611a2057611a1f611662565b5b611a2c8782880161196b565b91505092959194509250565b600060208284031215611a4e57611a4d61165d565b5b600082013567ffffffffffffffff811115611a6c57611a6b611662565b5b611a78848285016117dd565b91505092915050565b600081519050919050565b600082825260208201905092915050565b6000819050602082019050919050565b611ab68161180b565b82525050565b6000611ac88383611aad565b60208301905092915050565b6000602082019050919050565b6000611aec82611a81565b611af68185611a8c565b9350611b0183611a9d565b8060005b83811015611b32578151611b198882611abc565b9750611b2483611ad4565b925050600181019050611b05565b5085935050505092915050565b611b4881611687565b82525050565b611b578161180b565b82525050565b60006060820190508181036000830152611b778186611ae1565b9050611b866020830185611b3f565b611b936040830184611b4e565b949350505050565b60008060408385031215611bb257611bb161165d565b5b6000611bc0858286016116b0565b925050602083013567ffffffffffffffff811115611be157611be0611662565b5b611bed858286016117dd565b9150509250929050565b600063ffffffff82169050919050565b611c1081611bf7565b82525050565b60008115159050919050565b611c2b81611c16565b82525050565b6000608082019050611c466000830187611b3f565b611c536020830186611c07565b611c606040830185611c07565b611c6d6060830184611c22565b95945050505050565b600060208284031215611c8c57611c8b61165d565b5b6000611c9a848285016116b0565b91505092915050565b6000602082019050611cb86000830184611b4e565b92915050565b600060208284031215611cd457611cd361165d565b5b6000611ce28482850161182c565b91505092915050565b600081519050919050565b600082825260208201905092915050565b60005b83811015611d25578082015181840152602081019050611d0a565b83811115611d34576000848401525b50505050565b6000611d4582611ceb565b611d4f8185611cf6565b9350611d5f818560208601611d07565b611d68816116cf565b840191505092915050565b60006020820190508181036000830152611d8d8184611d3a565b905092915050565b600081519050919050565b600082825260208201905092915050565b6000819050602082019050919050565b611dca81611687565b82525050565b6000611ddc8383611dc1565b60208301905092915050565b6000602082019050919050565b6000611e0082611d95565b611e0a8185611da0565b9350611e1583611db1565b8060005b83811015611e46578151611e2d8882611dd0565b9750611e3883611de8565b925050600181019050611e19565b5085935050505092915050565b60006020820190508181036000830152611e6d8184611df5565b905092915050565b611e7e81611bf7565b8114611e8957600080fd5b50565b600081359050611e9b81611e75565b92915050565b60008060408385031215611eb857611eb761165d565b5b600083013567ffffffffffffffff811115611ed657611ed5611662565b5b611ee2858286016117dd565b9250506020611ef385828601611e8c565b9150509250929050565b60006040820190508181036000830152611f178185611d3a565b9050611f266020830184611b4e565b9392505050565b600081519050919050565b600082825260208201905092915050565b6000819050602082019050919050565b600082825260208201905092915050565b6000611f7582611d95565b611f7f8185611f59565b9350611f8a83611db1565b8060005b83811015611fbb578151611fa28882611dd0565b9750611fad83611de8565b925050600181019050611f8e565b5085935050505092915050565b611fd181611bf7565b82525050565b611fe081611c16565b82525050565b600060a083016000830151611ffe6000860182611dc1565b50602083015184820360208601526120168282611f6a565b915050604083015161202b6040860182611fc8565b50606083015161203e6060860182611fc8565b5060808301516120516080860182611fd7565b508091505092915050565b60006120688383611fe6565b905092915050565b6000602082019050919050565b600061208882611f2d565b6120928185611f38565b9350836020820285016120a485611f49565b8060005b858110156120e057848403895281516120c1858261205c565b94506120cc83612070565b925060208a019950506001810190506120a8565b50829750879550505050505092915050565b6000602082019050818103600083015261210c818461207d565b905092915050565b60008160601b9050919050565b600061212c82612114565b9050919050565b600061213e82612121565b9050919050565b61215661215182611687565b612133565b82525050565b600081905092915050565b7f6d6574617472616e73616374696f6e20566f74696e6720000000000000000000600082015250565b600061219d60178361215c565b91506121a882612167565b601782019050919050565b60006121be82611ceb565b6121c8818561215c565b93506121d8818560208601611d07565b80840191505092915050565b6000819050919050565b6121ff6121fa8261180b565b6121e4565b82525050565b60006122118288612145565b60148201915061222082612190565b915061222c8287612145565b60148201915061223c82866121b3565b915061224882856121ee565b60208201915061225882846121ee565b6020820191508190509695505050505050565b600061227782846121b3565b915081905092915050565b7f54686973206164647265737320646f6573206e6f74206578697374206173206160008201527f2063616e64696461746500000000000000000000000000000000000000000000602082015250565b60006122de602a83611cf6565b91506122e982612282565b604082019050919050565b6000602082019050818103600083015261230d816122d1565b9050919050565b7f766f74696e672068617320656e64656400000000000000000000000000000000600082015250565b600061234a601083611cf6565b915061235582612314565b602082019050919050565b600060208201905081810360008301526123798161233d565b9050919050565b7f4e487b7100000000000000000000000000000000000000000000000000000000600052601160045260246000fd5b60006123ba8261180b565b91507fffffffffffffffffffffffffffffffffffffffffffffffffffffffffffffffff8214156123ed576123ec612380565b5b600182019050919050565b7f596f7520616c726561647920766f746564000000000000000000000000000000600082015250565b600061242e601183611cf6565b9150612439826123f8565b602082019050919050565b6000602082019050818103600083015261245d81612421565b9050919050565b60006040820190506124796000830185611b3f565b6124866020830184611c22565b9392505050565b7f4e6f20706f6c6c20637265617465640000000000000000000000000000000000600082015250565b60006124c3600f83611cf6565b91506124ce8261248d565b602082019050919050565b600060208201905081810360008301526124f2816124b6565b9050919050565b7f4e487b7100000000000000000000000000000000000000000000000000000000600052603260045260246000fd5b7f79657420746f20637265617465206120706f6c6c000000000000000000000000600082015250565b600061255e601483611cf6565b915061256982612528565b602082019050919050565b6000602082019050818103600083015261258d81612551565b9050919050565b7f4e487b7100000000000000000000000000000000000000000000000000000000600052600160045260246000fd5b7f6d6178696d756d206e6f206f662063616e64696461746520706572207365737360008201527f696f6e2072656769737465726564000000000000000000000000000000000000602082015250565b600061261f602e83611cf6565b915061262a826125c3565b604082019050919050565b6000602082019050818103600083015261264e81612612565b9050919050565b600061266082611bf7565b915063ffffffff82141561267757612676612380565b5b600182019050919050565b60006020820190506126976000830184611b3f565b92915050565b7f4e487b7100000000000000000000000000000000000000000000000000000000600052602260045260246000fd5b600060028204905060018216806126e457607f821691505b602082108114156126f8576126f761269d565b5b50919050565b7f6e6f74207468652063686169726d616e00000000000000000000000000000000600082015250565b6000612734601083611cf6565b915061273f826126fe565b602082019050919050565b6000602082019050818103600083015261276381612727565b9050919050565b60008190508160005260206000209050919050565b6000815461278c816126cc565b612796818661215c565b945060018216600081146127b157600181146127c2576127f5565b60ff198316865281860193506127f5565b6127cb8561276a565b60005b838110156127ed578154818901526001820191506020810190506127ce565b838801955050505b50505092915050565b600061280a828461277f565b915081905092915050565b600060ff82169050919050565b600061282d82612815565b915061283883612815565b92508260ff0382111561284e5761284d612380565b5b828201905092915050565b7f19457468657265756d205369676e6564204d6573736167653a0a333200000000600082015250565b600061288f601c8361215c565b915061289a82612859565b601c82019050919050565b6000819050919050565b6128c06128bb826118c4565b6128a5565b82525050565b60006128d182612882565b91506128dd82846128af565b60208201915081905092915050565b6128f581612815565b82525050565b600060808201905061291060008301876118ce565b61291d60208301866128ec565b61292a60408301856118ce565b61293760608301846118ce565b9594505050505056fea2646970667358221220ed4569b450be01902dd8645b73cb41899c5be92022664af8b9ed41fc99f384c164736f6c634300080a0033",
					"opcodes": "PUSH1 0x80 PUSH1 0x40 MSTORE CALLVALUE DUP1 ISZERO PUSH2 0x10 JUMPI PUSH1 0x0 DUP1 REVERT JUMPDEST POP PUSH2 0x2976 DUP1 PUSH2 0x20 PUSH1 0x0 CODECOPY PUSH1 0x0 RETURN INVALID PUSH1 0x80 PUSH1 0x40 MSTORE CALLVALUE DUP1 ISZERO PUSH2 0x10 JUMPI PUSH1 0x0 DUP1 REVERT JUMPDEST POP PUSH1 0x4 CALLDATASIZE LT PUSH2 0xB4 JUMPI PUSH1 0x0 CALLDATALOAD PUSH1 0xE0 SHR DUP1 PUSH4 0x8579CACD GT PUSH2 0x71 JUMPI DUP1 PUSH4 0x8579CACD EQ PUSH2 0x1B6 JUMPI DUP1 PUSH4 0xAE928E3E EQ PUSH2 0x1E6 JUMPI DUP1 PUSH4 0xAF7CBC0D EQ PUSH2 0x216 JUMPI DUP1 PUSH4 0xF0E4DE22 EQ PUSH2 0x246 JUMPI DUP1 PUSH4 0xF762F4C0 EQ PUSH2 0x262 JUMPI DUP1 PUSH4 0xF8437061 EQ PUSH2 0x293 JUMPI PUSH2 0xB4 JUMP JUMPDEST DUP1 PUSH4 0x1FF993B EQ PUSH2 0xB9 JUMPI DUP1 PUSH4 0x12F0DA4B EQ PUSH2 0xE9 JUMPI DUP1 PUSH4 0x4FCF1F39 EQ PUSH2 0x105 JUMPI DUP1 PUSH4 0x57F53967 EQ PUSH2 0x137 JUMPI DUP1 PUSH4 0x63EE965A EQ PUSH2 0x153 JUMPI DUP1 PUSH4 0x67D407DF EQ PUSH2 0x186 JUMPI JUMPDEST PUSH1 0x0 DUP1 REVERT JUMPDEST PUSH2 0xD3 PUSH1 0x4 DUP1 CALLDATASIZE SUB DUP2 ADD SWAP1 PUSH2 0xCE SWAP2 SWAP1 PUSH2 0x1841 JUMP JUMPDEST PUSH2 0x2B1 JUMP JUMPDEST PUSH1 0x40 MLOAD PUSH2 0xE0 SWAP2 SWAP1 PUSH2 0x18DD JUMP JUMPDEST PUSH1 0x40 MLOAD DUP1 SWAP2 SUB SWAP1 RETURN JUMPDEST PUSH2 0x103 PUSH1 0x4 DUP1 CALLDATASIZE SUB DUP2 ADD SWAP1 PUSH2 0xFE SWAP2 SWAP1 PUSH2 0x1999 JUMP JUMPDEST PUSH2 0x2EC JUMP JUMPDEST STOP JUMPDEST PUSH2 0x11F PUSH1 0x4 DUP1 CALLDATASIZE SUB DUP2 ADD SWAP1 PUSH2 0x11A SWAP2 SWAP1 PUSH2 0x1A38 JUMP JUMPDEST PUSH2 0x623 JUMP JUMPDEST PUSH1 0x40 MLOAD PUSH2 0x12E SWAP4 SWAP3 SWAP2 SWAP1 PUSH2 0x1B5D JUMP JUMPDEST PUSH1 0x40 MLOAD DUP1 SWAP2 SUB SWAP1 RETURN JUMPDEST PUSH2 0x151 PUSH1 0x4 DUP1 CALLDATASIZE SUB DUP2 ADD SWAP1 PUSH2 0x14C SWAP2 SWAP1 PUSH2 0x1B9B JUMP JUMPDEST PUSH2 0x86A JUMP JUMPDEST STOP JUMPDEST PUSH2 0x16D PUSH1 0x4 DUP1 CALLDATASIZE SUB DUP2 ADD SWAP1 PUSH2 0x168 SWAP2 SWAP1 PUSH2 0x1A38 JUMP JUMPDEST PUSH2 0xB34 JUMP JUMPDEST PUSH1 0x40 MLOAD PUSH2 0x17D SWAP5 SWAP4 SWAP3 SWAP2 SWAP1 PUSH2 0x1C31 JUMP JUMPDEST PUSH1 0x40 MLOAD DUP1 SWAP2 SUB SWAP1 RETURN JUMPDEST PUSH2 0x1A0 PUSH1 0x4 DUP1 CALLDATASIZE SUB DUP2 ADD SWAP1 PUSH2 0x19B SWAP2 SWAP1 PUSH2 0x1C76 JUMP JUMPDEST PUSH2 0xBC7 JUMP JUMPDEST PUSH1 0x40 MLOAD PUSH2 0x1AD SWAP2 SWAP1 PUSH2 0x1CA3 JUMP JUMPDEST PUSH1 0x40 MLOAD DUP1 SWAP2 SUB SWAP1 RETURN JUMPDEST PUSH2 0x1D0 PUSH1 0x4 DUP1 CALLDATASIZE SUB DUP2 ADD SWAP1 PUSH2 0x1CB SWAP2 SWAP1 PUSH2 0x1A38 JUMP JUMPDEST PUSH2 0xBDF JUMP JUMPDEST PUSH1 0x40 MLOAD PUSH2 0x1DD SWAP2 SWAP1 PUSH2 0x1CA3 JUMP JUMPDEST PUSH1 0x40 MLOAD DUP1 SWAP2 SUB SWAP1 RETURN JUMPDEST PUSH2 0x200 PUSH1 0x4 DUP1 CALLDATASIZE SUB DUP2 ADD SWAP1 PUSH2 0x1FB SWAP2 SWAP1 PUSH2 0x1CBE JUMP JUMPDEST PUSH2 0xC25 JUMP JUMPDEST PUSH1 0x40 MLOAD PUSH2 0x20D SWAP2 SWAP1 PUSH2 0x1D73 JUMP JUMPDEST PUSH1 0x40 MLOAD DUP1 SWAP2 SUB SWAP1 RETURN JUMPDEST PUSH2 0x230 PUSH1 0x4 DUP1 CALLDATASIZE SUB DUP2 ADD SWAP1 PUSH2 0x22B SWAP2 SWAP1 PUSH2 0x1A38 JUMP JUMPDEST PUSH2 0xCD1 JUMP JUMPDEST PUSH1 0x40 MLOAD PUSH2 0x23D SWAP2 SWAP1 PUSH2 0x1E53 JUMP JUMPDEST PUSH1 0x40 MLOAD DUP1 SWAP2 SUB SWAP1 RETURN JUMPDEST PUSH2 0x260 PUSH1 0x4 DUP1 CALLDATASIZE SUB DUP2 ADD SWAP1 PUSH2 0x25B SWAP2 SWAP1 PUSH2 0x1A38 JUMP JUMPDEST PUSH2 0xD86 JUMP JUMPDEST STOP JUMPDEST PUSH2 0x27C PUSH1 0x4 DUP1 CALLDATASIZE SUB DUP2 ADD SWAP1 PUSH2 0x277 SWAP2 SWAP1 PUSH2 0x1EA1 JUMP JUMPDEST PUSH2 0xEAC JUMP JUMPDEST PUSH1 0x40 MLOAD PUSH2 0x28A SWAP3 SWAP2 SWAP1 PUSH2 0x1EFD JUMP JUMPDEST PUSH1 0x40 MLOAD DUP1 SWAP2 SUB SWAP1 RETURN JUMPDEST PUSH2 0x29B PUSH2 0x1022 JUMP JUMPDEST PUSH1 0x40 MLOAD PUSH2 0x2A8 SWAP2 SWAP1 PUSH2 0x20F2 JUMP JUMPDEST PUSH1 0x40 MLOAD DUP1 SWAP2 SUB SWAP1 RETURN JUMPDEST PUSH1 0x0 ADDRESS DUP6 DUP6 DUP6 DUP6 PUSH1 0x40 MLOAD PUSH1 0x20 ADD PUSH2 0x2CC SWAP6 SWAP5 SWAP4 SWAP3 SWAP2 SWAP1 PUSH2 0x2205 JUMP JUMPDEST PUSH1 0x40 MLOAD PUSH1 0x20 DUP2 DUP4 SUB SUB DUP2 MSTORE SWAP1 PUSH1 0x40 MSTORE DUP1 MLOAD SWAP1 PUSH1 0x20 ADD KECCAK256 SWAP1 POP SWAP5 SWAP4 POP POP POP POP JUMP JUMPDEST DUP4 DUP4 PUSH1 0x0 PUSH1 0x1 DUP3 PUSH1 0x40 MLOAD PUSH2 0x300 SWAP2 SWAP1 PUSH2 0x226B JUMP JUMPDEST SWAP1 DUP2 MSTORE PUSH1 0x20 ADD PUSH1 0x40 MLOAD DUP1 SWAP2 SUB SWAP1 KECCAK256 SWAP1 POP PUSH1 0x1 ISZERO ISZERO DUP2 PUSH1 0x3 ADD PUSH1 0x0 DUP6 PUSH20 0xFFFFFFFFFFFFFFFFFFFFFFFFFFFFFFFFFFFFFFFF AND PUSH20 0xFFFFFFFFFFFFFFFFFFFFFFFFFFFFFFFFFFFFFFFF AND DUP2 MSTORE PUSH1 0x20 ADD SWAP1 DUP2 MSTORE PUSH1 0x20 ADD PUSH1 0x0 KECCAK256 PUSH1 0x0 SWAP1 SLOAD SWAP1 PUSH2 0x100 EXP SWAP1 DIV PUSH1 0xFF AND ISZERO ISZERO EQ PUSH2 0x3A5 JUMPI PUSH1 0x40 MLOAD PUSH32 0x8C379A000000000000000000000000000000000000000000000000000000000 DUP2 MSTORE PUSH1 0x4 ADD PUSH2 0x39C SWAP1 PUSH2 0x22F4 JUMP JUMPDEST PUSH1 0x40 MLOAD DUP1 SWAP2 SUB SWAP1 REVERT JUMPDEST DUP6 PUSH1 0x0 PUSH1 0x1 DUP3 PUSH1 0x40 MLOAD PUSH2 0x3B8 SWAP2 SWAP1 PUSH2 0x226B JUMP JUMPDEST SWAP1 DUP2 MSTORE PUSH1 0x20 ADD PUSH1 0x40 MLOAD DUP1 SWAP2 SUB SWAP1 KECCAK256 SWAP1 POP PUSH1 0x1 ISZERO ISZERO DUP2 PUSH1 0x6 ADD PUSH1 0x0 SWAP1 SLOAD SWAP1 PUSH2 0x100 EXP SWAP1 DIV PUSH1 0xFF AND ISZERO ISZERO EQ PUSH2 0x420 JUMPI PUSH1 0x40 MLOAD PUSH32 0x8C379A000000000000000000000000000000000000000000000000000000000 DUP2 MSTORE PUSH1 0x4 ADD PUSH2 0x417 SWAP1 PUSH2 0x2360 JUMP JUMPDEST PUSH1 0x40 MLOAD DUP1 SWAP2 SUB SWAP1 REVERT JUMPDEST PUSH1 0x0 PUSH2 0x42E DUP11 DUP11 DUP11 TIMESTAMP PUSH2 0x2B1 JUMP JUMPDEST SWAP1 POP PUSH1 0x0 PUSH2 0x43C DUP3 DUP10 PUSH2 0x1296 JUMP JUMPDEST SWAP1 POP PUSH1 0x0 PUSH20 0xFFFFFFFFFFFFFFFFFFFFFFFFFFFFFFFFFFFFFFFF AND DUP2 PUSH20 0xFFFFFFFFFFFFFFFFFFFFFFFFFFFFFFFFFFFFFFFF AND EQ ISZERO PUSH2 0x478 JUMPI PUSH1 0x0 DUP1 REVERT JUMPDEST PUSH1 0x2 PUSH1 0x0 DUP3 PUSH20 0xFFFFFFFFFFFFFFFFFFFFFFFFFFFFFFFFFFFFFFFF AND PUSH20 0xFFFFFFFFFFFFFFFFFFFFFFFFFFFFFFFFFFFFFFFF AND DUP2 MSTORE PUSH1 0x20 ADD SWAP1 DUP2 MSTORE PUSH1 0x20 ADD PUSH1 0x0 KECCAK256 SLOAD DUP10 EQ PUSH2 0x4C3 JUMPI PUSH1 0x0 DUP1 REVERT JUMPDEST PUSH1 0x2 PUSH1 0x0 DUP3 PUSH20 0xFFFFFFFFFFFFFFFFFFFFFFFFFFFFFFFFFFFFFFFF AND PUSH20 0xFFFFFFFFFFFFFFFFFFFFFFFFFFFFFFFFFFFFFFFF AND DUP2 MSTORE PUSH1 0x20 ADD SWAP1 DUP2 MSTORE PUSH1 0x20 ADD PUSH1 0x0 KECCAK256 PUSH1 0x0 DUP2 SLOAD DUP1 SWAP3 SWAP2 SWAP1 PUSH2 0x513 SWAP1 PUSH2 0x23AF JUMP JUMPDEST SWAP2 SWAP1 POP SSTORE POP PUSH1 0x0 PUSH1 0x1 DUP12 PUSH1 0x40 MLOAD PUSH2 0x52A SWAP2 SWAP1 PUSH2 0x226B JUMP JUMPDEST SWAP1 DUP2 MSTORE PUSH1 0x20 ADD PUSH1 0x40 MLOAD DUP1 SWAP2 SUB SWAP1 KECCAK256 SWAP1 POP PUSH1 0x0 ISZERO ISZERO DUP2 PUSH1 0x4 ADD PUSH1 0x0 DUP5 PUSH20 0xFFFFFFFFFFFFFFFFFFFFFFFFFFFFFFFFFFFFFFFF AND PUSH20 0xFFFFFFFFFFFFFFFFFFFFFFFFFFFFFFFFFFFFFFFF AND DUP2 MSTORE PUSH1 0x20 ADD SWAP1 DUP2 MSTORE PUSH1 0x20 ADD PUSH1 0x0 KECCAK256 PUSH1 0x0 SWAP1 SLOAD SWAP1 PUSH2 0x100 EXP SWAP1 DIV PUSH1 0xFF AND ISZERO ISZERO EQ PUSH2 0x5CF JUMPI PUSH1 0x40 MLOAD PUSH32 0x8C379A000000000000000000000000000000000000000000000000000000000 DUP2 MSTORE PUSH1 0x4 ADD PUSH2 0x5C6 SWAP1 PUSH2 0x2444 JUMP JUMPDEST PUSH1 0x40 MLOAD DUP1 SWAP2 SUB SWAP1 REVERT JUMPDEST PUSH2 0x5DA DUP13 DUP13 DUP5 PUSH2 0x138F JUMP JUMPDEST POP PUSH32 0xF3F16A15F074B71C5138107DFC7C63B80524D5411CB967CAA97D8D9F12B2FD6B DUP13 PUSH1 0x1 PUSH1 0x40 MLOAD PUSH2 0x60D SWAP3 SWAP2 SWAP1 PUSH2 0x2464 JUMP JUMPDEST PUSH1 0x40 MLOAD DUP1 SWAP2 SUB SWAP1 LOG1 POP POP POP POP POP POP POP POP POP POP POP POP JUMP JUMPDEST PUSH1 0x60 PUSH1 0x0 DUP1 PUSH1 0x0 PUSH1 0x1 DUP6 PUSH1 0x40 MLOAD PUSH2 0x63A SWAP2 SWAP1 PUSH2 0x226B JUMP JUMPDEST SWAP1 DUP2 MSTORE PUSH1 0x20 ADD PUSH1 0x40 MLOAD DUP1 SWAP2 SUB SWAP1 KECCAK256 SWAP1 POP PUSH1 0x0 PUSH20 0xFFFFFFFFFFFFFFFFFFFFFFFFFFFFFFFFFFFFFFFF AND DUP2 PUSH1 0x0 ADD PUSH1 0x0 SWAP1 SLOAD SWAP1 PUSH2 0x100 EXP SWAP1 DIV PUSH20 0xFFFFFFFFFFFFFFFFFFFFFFFFFFFFFFFFFFFFFFFF AND PUSH20 0xFFFFFFFFFFFFFFFFFFFFFFFFFFFFFFFFFFFFFFFF AND EQ ISZERO PUSH2 0x6DE JUMPI PUSH1 0x40 MLOAD PUSH32 0x8C379A000000000000000000000000000000000000000000000000000000000 DUP2 MSTORE PUSH1 0x4 ADD PUSH2 0x6D5 SWAP1 PUSH2 0x24D9 JUMP JUMPDEST PUSH1 0x40 MLOAD DUP1 SWAP2 SUB SWAP1 REVERT JUMPDEST DUP1 PUSH1 0x1 ADD DUP1 SLOAD SWAP1 POP PUSH8 0xFFFFFFFFFFFFFFFF DUP2 GT ISZERO PUSH2 0x6FF JUMPI PUSH2 0x6FE PUSH2 0x16E0 JUMP JUMPDEST JUMPDEST PUSH1 0x40 MLOAD SWAP1 DUP1 DUP3 MSTORE DUP1 PUSH1 0x20 MUL PUSH1 0x20 ADD DUP3 ADD PUSH1 0x40 MSTORE DUP1 ISZERO PUSH2 0x72D JUMPI DUP2 PUSH1 0x20 ADD PUSH1 0x20 DUP3 MUL DUP1 CALLDATASIZE DUP4 CALLDATACOPY DUP1 DUP3 ADD SWAP2 POP POP SWAP1 POP JUMPDEST POP SWAP4 POP PUSH1 0x0 DUP1 PUSH1 0x0 JUMPDEST DUP4 PUSH1 0x1 ADD DUP1 SLOAD SWAP1 POP DUP2 GT PUSH2 0x856 JUMPI PUSH1 0x0 PUSH2 0x750 DUP10 DUP4 PUSH2 0x14AF JUMP JUMPDEST SWAP1 POP DUP4 DUP2 GT ISZERO PUSH2 0x7A1 JUMPI DUP1 SWAP4 POP DUP5 PUSH1 0x1 ADD DUP3 DUP2 SLOAD DUP2 LT PUSH2 0x773 JUMPI PUSH2 0x772 PUSH2 0x24F9 JUMP JUMPDEST JUMPDEST SWAP1 PUSH1 0x0 MSTORE PUSH1 0x20 PUSH1 0x0 KECCAK256 ADD PUSH1 0x0 SWAP1 SLOAD SWAP1 PUSH2 0x100 EXP SWAP1 DIV PUSH20 0xFFFFFFFFFFFFFFFFFFFFFFFFFFFFFFFFFFFFFFFF AND SWAP3 POP JUMPDEST DUP5 PUSH1 0x5 ADD PUSH1 0x0 DUP7 PUSH1 0x1 ADD DUP5 DUP2 SLOAD DUP2 LT PUSH2 0x7BD JUMPI PUSH2 0x7BC PUSH2 0x24F9 JUMP JUMPDEST JUMPDEST SWAP1 PUSH1 0x0 MSTORE PUSH1 0x20 PUSH1 0x0 KECCAK256 ADD PUSH1 0x0 SWAP1 SLOAD SWAP1 PUSH2 0x100 EXP SWAP1 DIV PUSH20 0xFFFFFFFFFFFFFFFFFFFFFFFFFFFFFFFFFFFFFFFF AND PUSH20 0xFFFFFFFFFFFFFFFFFFFFFFFFFFFFFFFFFFFFFFFF AND PUSH20 0xFFFFFFFFFFFFFFFFFFFFFFFFFFFFFFFFFFFFFFFF AND DUP2 MSTORE PUSH1 0x20 ADD SWAP1 DUP2 MSTORE PUSH1 0x20 ADD PUSH1 0x0 KECCAK256 SLOAD DUP9 DUP4 DUP2 MLOAD DUP2 LT PUSH2 0x836 JUMPI PUSH2 0x835 PUSH2 0x24F9 JUMP JUMPDEST JUMPDEST PUSH1 0x20 MUL PUSH1 0x20 ADD ADD DUP2 DUP2 MSTORE POP POP POP DUP1 DUP1 PUSH2 0x84E SWAP1 PUSH2 0x23AF JUMP JUMPDEST SWAP2 POP POP PUSH2 0x736 JUMP JUMPDEST POP DUP6 DUP2 DUP4 SWAP6 POP SWAP6 POP SWAP6 POP POP POP POP SWAP2 SWAP4 SWAP1 SWAP3 POP JUMP JUMPDEST PUSH1 0x0 PUSH1 0x1 DUP3 PUSH1 0x40 MLOAD PUSH2 0x87C SWAP2 SWAP1 PUSH2 0x226B JUMP JUMPDEST SWAP1 DUP2 MSTORE PUSH1 0x20 ADD PUSH1 0x40 MLOAD DUP1 SWAP2 SUB SWAP1 KECCAK256 SWAP1 POP PUSH1 0x0 PUSH20 0xFFFFFFFFFFFFFFFFFFFFFFFFFFFFFFFFFFFFFFFF AND DUP2 PUSH1 0x0 ADD PUSH1 0x0 SWAP1 SLOAD SWAP1 PUSH2 0x100 EXP SWAP1 DIV PUSH20 0xFFFFFFFFFFFFFFFFFFFFFFFFFFFFFFFFFFFFFFFF AND PUSH20 0xFFFFFFFFFFFFFFFFFFFFFFFFFFFFFFFFFFFFFFFF AND EQ ISZERO PUSH2 0x920 JUMPI PUSH1 0x40 MLOAD PUSH32 0x8C379A000000000000000000000000000000000000000000000000000000000 DUP2 MSTORE PUSH1 0x4 ADD PUSH2 0x917 SWAP1 PUSH2 0x2574 JUMP JUMPDEST PUSH1 0x40 MLOAD DUP1 SWAP2 SUB SWAP1 REVERT JUMPDEST CALLER PUSH20 0xFFFFFFFFFFFFFFFFFFFFFFFFFFFFFFFFFFFFFFFF AND DUP2 PUSH1 0x0 ADD PUSH1 0x0 SWAP1 SLOAD SWAP1 PUSH2 0x100 EXP SWAP1 DIV PUSH20 0xFFFFFFFFFFFFFFFFFFFFFFFFFFFFFFFFFFFFFFFF AND PUSH20 0xFFFFFFFFFFFFFFFFFFFFFFFFFFFFFFFFFFFFFFFF AND EQ PUSH2 0x980 JUMPI PUSH2 0x97F PUSH2 0x2594 JUMP JUMPDEST JUMPDEST DUP1 PUSH1 0x2 ADD PUSH1 0x0 SWAP1 SLOAD SWAP1 PUSH2 0x100 EXP SWAP1 DIV PUSH4 0xFFFFFFFF AND PUSH4 0xFFFFFFFF AND DUP2 PUSH1 0x2 ADD PUSH1 0x4 SWAP1 SLOAD SWAP1 PUSH2 0x100 EXP SWAP1 DIV PUSH4 0xFFFFFFFF AND PUSH4 0xFFFFFFFF AND LT PUSH2 0x9F6 JUMPI PUSH1 0x40 MLOAD PUSH32 0x8C379A000000000000000000000000000000000000000000000000000000000 DUP2 MSTORE PUSH1 0x4 ADD PUSH2 0x9ED SWAP1 PUSH2 0x2635 JUMP JUMPDEST PUSH1 0x40 MLOAD DUP1 SWAP2 SUB SWAP1 REVERT JUMPDEST PUSH1 0x1 DUP2 PUSH1 0x3 ADD PUSH1 0x0 DUP6 PUSH20 0xFFFFFFFFFFFFFFFFFFFFFFFFFFFFFFFFFFFFFFFF AND PUSH20 0xFFFFFFFFFFFFFFFFFFFFFFFFFFFFFFFFFFFFFFFF AND DUP2 MSTORE PUSH1 0x20 ADD SWAP1 DUP2 MSTORE PUSH1 0x20 ADD PUSH1 0x0 KECCAK256 PUSH1 0x0 PUSH2 0x100 EXP DUP2 SLOAD DUP2 PUSH1 0xFF MUL NOT AND SWAP1 DUP4 ISZERO ISZERO MUL OR SWAP1 SSTORE POP DUP1 PUSH1 0x1 ADD DUP4 SWAP1 DUP1 PUSH1 0x1 DUP2 SLOAD ADD DUP1 DUP3 SSTORE DUP1 SWAP2 POP POP PUSH1 0x1 SWAP1 SUB SWAP1 PUSH1 0x0 MSTORE PUSH1 0x20 PUSH1 0x0 KECCAK256 ADD PUSH1 0x0 SWAP1 SWAP2 SWAP1 SWAP2 SWAP1 SWAP2 PUSH2 0x100 EXP DUP2 SLOAD DUP2 PUSH20 0xFFFFFFFFFFFFFFFFFFFFFFFFFFFFFFFFFFFFFFFF MUL NOT AND SWAP1 DUP4 PUSH20 0xFFFFFFFFFFFFFFFFFFFFFFFFFFFFFFFFFFFFFFFF AND MUL OR SWAP1 SSTORE POP DUP1 PUSH1 0x2 ADD PUSH1 0x4 DUP2 DUP2 SWAP1 SLOAD SWAP1 PUSH2 0x100 EXP SWAP1 DIV PUSH4 0xFFFFFFFF AND DUP1 SWAP3 SWAP2 SWAP1 PUSH2 0xAD9 SWAP1 PUSH2 0x2655 JUMP JUMPDEST SWAP2 SWAP1 PUSH2 0x100 EXP DUP2 SLOAD DUP2 PUSH4 0xFFFFFFFF MUL NOT AND SWAP1 DUP4 PUSH4 0xFFFFFFFF AND MUL OR SWAP1 SSTORE POP POP PUSH32 0xC19C59AA93348E8FC54764BC642ECA975E2639F44CC683EF8F027E1529CBDA32 DUP4 PUSH1 0x40 MLOAD PUSH2 0xB27 SWAP2 SWAP1 PUSH2 0x2682 JUMP JUMPDEST PUSH1 0x40 MLOAD DUP1 SWAP2 SUB SWAP1 LOG1 POP POP POP JUMP JUMPDEST PUSH1 0x1 DUP2 DUP1 MLOAD PUSH1 0x20 DUP2 ADD DUP3 ADD DUP1 MLOAD DUP5 DUP3 MSTORE PUSH1 0x20 DUP4 ADD PUSH1 0x20 DUP6 ADD KECCAK256 DUP2 DUP4 MSTORE DUP1 SWAP6 POP POP POP POP POP POP PUSH1 0x0 SWAP2 POP SWAP1 POP DUP1 PUSH1 0x0 ADD PUSH1 0x0 SWAP1 SLOAD SWAP1 PUSH2 0x100 EXP SWAP1 DIV PUSH20 0xFFFFFFFFFFFFFFFFFFFFFFFFFFFFFFFFFFFFFFFF AND SWAP1 DUP1 PUSH1 0x2 ADD PUSH1 0x0 SWAP1 SLOAD SWAP1 PUSH2 0x100 EXP SWAP1 DIV PUSH4 0xFFFFFFFF AND SWAP1 DUP1 PUSH1 0x2 ADD PUSH1 0x4 SWAP1 SLOAD SWAP1 PUSH2 0x100 EXP SWAP1 DIV PUSH4 0xFFFFFFFF AND SWAP1 DUP1 PUSH1 0x6 ADD PUSH1 0x0 SWAP1 SLOAD SWAP1 PUSH2 0x100 EXP SWAP1 DIV PUSH1 0xFF AND SWAP1 POP DUP5 JUMP JUMPDEST PUSH1 0x2 PUSH1 0x20 MSTORE DUP1 PUSH1 0x0 MSTORE PUSH1 0x40 PUSH1 0x0 KECCAK256 PUSH1 0x0 SWAP2 POP SWAP1 POP SLOAD DUP2 JUMP JUMPDEST PUSH1 0x0 DUP1 PUSH1 0x1 DUP4 PUSH1 0x40 MLOAD PUSH2 0xBF2 SWAP2 SWAP1 PUSH2 0x226B JUMP JUMPDEST SWAP1 DUP2 MSTORE PUSH1 0x20 ADD PUSH1 0x40 MLOAD DUP1 SWAP2 SUB SWAP1 KECCAK256 SWAP1 POP DUP1 PUSH1 0x2 ADD PUSH1 0x4 SWAP1 SLOAD SWAP1 PUSH2 0x100 EXP SWAP1 DIV PUSH4 0xFFFFFFFF AND PUSH4 0xFFFFFFFF AND SWAP2 POP POP SWAP2 SWAP1 POP JUMP JUMPDEST PUSH1 0x0 DUP2 DUP2 SLOAD DUP2 LT PUSH2 0xC35 JUMPI PUSH1 0x0 DUP1 REVERT JUMPDEST SWAP1 PUSH1 0x0 MSTORE PUSH1 0x20 PUSH1 0x0 KECCAK256 ADD PUSH1 0x0 SWAP2 POP SWAP1 POP DUP1 SLOAD PUSH2 0xC50 SWAP1 PUSH2 0x26CC JUMP JUMPDEST DUP1 PUSH1 0x1F ADD PUSH1 0x20 DUP1 SWAP2 DIV MUL PUSH1 0x20 ADD PUSH1 0x40 MLOAD SWAP1 DUP2 ADD PUSH1 0x40 MSTORE DUP1 SWAP3 SWAP2 SWAP1 DUP2 DUP2 MSTORE PUSH1 0x20 ADD DUP3 DUP1 SLOAD PUSH2 0xC7C SWAP1 PUSH2 0x26CC JUMP JUMPDEST DUP1 ISZERO PUSH2 0xCC9 JUMPI DUP1 PUSH1 0x1F LT PUSH2 0xC9E JUMPI PUSH2 0x100 DUP1 DUP4 SLOAD DIV MUL DUP4 MSTORE SWAP2 PUSH1 0x20 ADD SWAP2 PUSH2 0xCC9 JUMP JUMPDEST DUP3 ADD SWAP2 SWAP1 PUSH1 0x0 MSTORE PUSH1 0x20 PUSH1 0x0 KECCAK256 SWAP1 JUMPDEST DUP2 SLOAD DUP2 MSTORE SWAP1 PUSH1 0x1 ADD SWAP1 PUSH1 0x20 ADD DUP1 DUP4 GT PUSH2 0xCAC JUMPI DUP3 SWAP1 SUB PUSH1 0x1F AND DUP3 ADD SWAP2 JUMPDEST POP POP POP POP POP DUP2 JUMP JUMPDEST PUSH1 0x60 PUSH1 0x0 PUSH1 0x1 DUP4 PUSH1 0x40 MLOAD PUSH2 0xCE5 SWAP2 SWAP1 PUSH2 0x226B JUMP JUMPDEST SWAP1 DUP2 MSTORE PUSH1 0x20 ADD PUSH1 0x40 MLOAD DUP1 SWAP2 SUB SWAP1 KECCAK256 SWAP1 POP DUP1 PUSH1 0x1 ADD DUP1 SLOAD DUP1 PUSH1 0x20 MUL PUSH1 0x20 ADD PUSH1 0x40 MLOAD SWAP1 DUP2 ADD PUSH1 0x40 MSTORE DUP1 SWAP3 SWAP2 SWAP1 DUP2 DUP2 MSTORE PUSH1 0x20 ADD DUP3 DUP1 SLOAD DUP1 ISZERO PUSH2 0xD79 JUMPI PUSH1 0x20 MUL DUP3 ADD SWAP2 SWAP1 PUSH1 0x0 MSTORE PUSH1 0x20 PUSH1 0x0 KECCAK256 SWAP1 JUMPDEST DUP2 PUSH1 0x0 SWAP1 SLOAD SWAP1 PUSH2 0x100 EXP SWAP1 DIV PUSH20 0xFFFFFFFFFFFFFFFFFFFFFFFFFFFFFFFFFFFFFFFF AND PUSH20 0xFFFFFFFFFFFFFFFFFFFFFFFFFFFFFFFFFFFFFFFF AND DUP2 MSTORE PUSH1 0x20 ADD SWAP1 PUSH1 0x1 ADD SWAP1 DUP1 DUP4 GT PUSH2 0xD2F JUMPI JUMPDEST POP POP POP POP POP SWAP2 POP POP SWAP2 SWAP1 POP JUMP JUMPDEST PUSH1 0x0 PUSH1 0x1 DUP3 PUSH1 0x40 MLOAD PUSH2 0xD98 SWAP2 SWAP1 PUSH2 0x226B JUMP JUMPDEST SWAP1 DUP2 MSTORE PUSH1 0x20 ADD PUSH1 0x40 MLOAD DUP1 SWAP2 SUB SWAP1 KECCAK256 SWAP1 POP CALLER PUSH20 0xFFFFFFFFFFFFFFFFFFFFFFFFFFFFFFFFFFFFFFFF AND DUP2 PUSH1 0x0 ADD PUSH1 0x0 SWAP1 SLOAD SWAP1 PUSH2 0x100 EXP SWAP1 DIV PUSH20 0xFFFFFFFFFFFFFFFFFFFFFFFFFFFFFFFFFFFFFFFF AND PUSH20 0xFFFFFFFFFFFFFFFFFFFFFFFFFFFFFFFFFFFFFFFF AND EQ PUSH2 0xE3A JUMPI PUSH1 0x40 MLOAD PUSH32 0x8C379A000000000000000000000000000000000000000000000000000000000 DUP2 MSTORE PUSH1 0x4 ADD PUSH2 0xE31 SWAP1 PUSH2 0x274A JUMP JUMPDEST PUSH1 0x40 MLOAD DUP1 SWAP2 SUB SWAP1 REVERT JUMPDEST DUP1 PUSH1 0x6 ADD PUSH1 0x0 SWAP1 SLOAD SWAP1 PUSH2 0x100 EXP SWAP1 DIV PUSH1 0xFF AND ISZERO DUP2 PUSH1 0x6 ADD PUSH1 0x0 PUSH2 0x100 EXP DUP2 SLOAD DUP2 PUSH1 0xFF MUL NOT AND SWAP1 DUP4 ISZERO ISZERO MUL OR SWAP1 SSTORE POP DUP1 PUSH1 0x6 ADD PUSH1 0x0 SWAP1 SLOAD SWAP1 PUSH2 0x100 EXP SWAP1 DIV PUSH1 0xFF AND ISZERO ISZERO PUSH32 0x7B224DB641892626DCA6975B376F464E9AC52CCFA180436175170C009B94DCD7 PUSH1 0x40 MLOAD PUSH1 0x40 MLOAD DUP1 SWAP2 SUB SWAP1 LOG2 POP POP JUMP JUMPDEST PUSH1 0x60 PUSH1 0x0 DUP1 PUSH1 0x1 DUP6 PUSH1 0x40 MLOAD PUSH2 0xEC1 SWAP2 SWAP1 PUSH2 0x226B JUMP JUMPDEST SWAP1 DUP2 MSTORE PUSH1 0x20 ADD PUSH1 0x40 MLOAD DUP1 SWAP2 SUB SWAP1 KECCAK256 SWAP1 POP CALLER DUP2 PUSH1 0x0 ADD PUSH1 0x0 PUSH2 0x100 EXP DUP2 SLOAD DUP2 PUSH20 0xFFFFFFFFFFFFFFFFFFFFFFFFFFFFFFFFFFFFFFFF MUL NOT AND SWAP1 DUP4 PUSH20 0xFFFFFFFFFFFFFFFFFFFFFFFFFFFFFFFFFFFFFFFF AND MUL OR SWAP1 SSTORE POP DUP4 DUP2 PUSH1 0x2 ADD PUSH1 0x0 PUSH2 0x100 EXP DUP2 SLOAD DUP2 PUSH4 0xFFFFFFFF MUL NOT AND SWAP1 DUP4 PUSH4 0xFFFFFFFF AND MUL OR SWAP1 SSTORE POP PUSH1 0x0 DUP6 SWAP1 DUP1 PUSH1 0x1 DUP2 SLOAD ADD DUP1 DUP3 SSTORE DUP1 SWAP2 POP POP PUSH1 0x1 SWAP1 SUB SWAP1 PUSH1 0x0 MSTORE PUSH1 0x20 PUSH1 0x0 KECCAK256 ADD PUSH1 0x0 SWAP1 SWAP2 SWAP1 SWAP2 SWAP1 SWAP2 POP SWAP1 DUP1 MLOAD SWAP1 PUSH1 0x20 ADD SWAP1 PUSH2 0xF72 SWAP3 SWAP2 SWAP1 PUSH2 0x155D JUMP JUMPDEST POP DUP1 PUSH1 0x0 ADD PUSH1 0x0 SWAP1 SLOAD SWAP1 PUSH2 0x100 EXP SWAP1 DIV PUSH20 0xFFFFFFFFFFFFFFFFFFFFFFFFFFFFFFFFFFFFFFFF AND PUSH20 0xFFFFFFFFFFFFFFFFFFFFFFFFFFFFFFFFFFFFFFFF AND DUP2 PUSH1 0x2 ADD PUSH1 0x0 SWAP1 SLOAD SWAP1 PUSH2 0x100 EXP SWAP1 DIV PUSH4 0xFFFFFFFF AND PUSH4 0xFFFFFFFF AND DUP7 PUSH1 0x40 MLOAD PUSH2 0xFD7 SWAP2 SWAP1 PUSH2 0x226B JUMP JUMPDEST PUSH1 0x40 MLOAD DUP1 SWAP2 SUB SWAP1 KECCAK256 PUSH32 0x4B35E5CF01446AA899A8D21082EBF23B7497D38F2466AD49836BD1006A8D059E PUSH1 0x40 MLOAD PUSH1 0x40 MLOAD DUP1 SWAP2 SUB SWAP1 LOG4 DUP5 DUP5 DUP1 PUSH4 0xFFFFFFFF AND SWAP1 POP SWAP3 POP SWAP3 POP POP SWAP3 POP SWAP3 SWAP1 POP JUMP JUMPDEST PUSH1 0x60 PUSH1 0x0 DUP1 SLOAD SWAP1 POP PUSH8 0xFFFFFFFFFFFFFFFF DUP2 GT ISZERO PUSH2 0x1043 JUMPI PUSH2 0x1042 PUSH2 0x16E0 JUMP JUMPDEST JUMPDEST PUSH1 0x40 MLOAD SWAP1 DUP1 DUP3 MSTORE DUP1 PUSH1 0x20 MUL PUSH1 0x20 ADD DUP3 ADD PUSH1 0x40 MSTORE DUP1 ISZERO PUSH2 0x107C JUMPI DUP2 PUSH1 0x20 ADD JUMPDEST PUSH2 0x1069 PUSH2 0x15E3 JUMP JUMPDEST DUP2 MSTORE PUSH1 0x20 ADD SWAP1 PUSH1 0x1 SWAP1 SUB SWAP1 DUP2 PUSH2 0x1061 JUMPI SWAP1 POP JUMPDEST POP SWAP1 POP PUSH1 0x0 JUMPDEST PUSH1 0x0 DUP1 SLOAD SWAP1 POP DUP2 LT PUSH2 0x1292 JUMPI PUSH1 0x0 PUSH1 0x1 PUSH1 0x0 DUP4 DUP2 SLOAD DUP2 LT PUSH2 0x10A6 JUMPI PUSH2 0x10A5 PUSH2 0x24F9 JUMP JUMPDEST JUMPDEST SWAP1 PUSH1 0x0 MSTORE PUSH1 0x20 PUSH1 0x0 KECCAK256 ADD PUSH1 0x40 MLOAD PUSH2 0x10BD SWAP2 SWAP1 PUSH2 0x27FE JUMP JUMPDEST SWAP1 DUP2 MSTORE PUSH1 0x20 ADD PUSH1 0x40 MLOAD DUP1 SWAP2 SUB SWAP1 KECCAK256 SWAP1 POP DUP1 PUSH1 0x0 ADD PUSH1 0x0 SWAP1 SLOAD SWAP1 PUSH2 0x100 EXP SWAP1 DIV PUSH20 0xFFFFFFFFFFFFFFFFFFFFFFFFFFFFFFFFFFFFFFFF AND DUP4 DUP4 DUP2 MLOAD DUP2 LT PUSH2 0x1105 JUMPI PUSH2 0x1104 PUSH2 0x24F9 JUMP JUMPDEST JUMPDEST PUSH1 0x20 MUL PUSH1 0x20 ADD ADD MLOAD PUSH1 0x0 ADD SWAP1 PUSH20 0xFFFFFFFFFFFFFFFFFFFFFFFFFFFFFFFFFFFFFFFF AND SWAP1 DUP2 PUSH20 0xFFFFFFFFFFFFFFFFFFFFFFFFFFFFFFFFFFFFFFFF AND DUP2 MSTORE POP POP DUP1 PUSH1 0x2 ADD PUSH1 0x0 SWAP1 SLOAD SWAP1 PUSH2 0x100 EXP SWAP1 DIV PUSH4 0xFFFFFFFF AND DUP4 DUP4 DUP2 MLOAD DUP2 LT PUSH2 0x116B JUMPI PUSH2 0x116A PUSH2 0x24F9 JUMP JUMPDEST JUMPDEST PUSH1 0x20 MUL PUSH1 0x20 ADD ADD MLOAD PUSH1 0x40 ADD SWAP1 PUSH4 0xFFFFFFFF AND SWAP1 DUP2 PUSH4 0xFFFFFFFF AND DUP2 MSTORE POP POP PUSH1 0x1 PUSH1 0x0 DUP4 DUP2 SLOAD DUP2 LT PUSH2 0x119F JUMPI PUSH2 0x119E PUSH2 0x24F9 JUMP JUMPDEST JUMPDEST SWAP1 PUSH1 0x0 MSTORE PUSH1 0x20 PUSH1 0x0 KECCAK256 ADD PUSH1 0x40 MLOAD PUSH2 0x11B6 SWAP2 SWAP1 PUSH2 0x27FE JUMP JUMPDEST SWAP1 DUP2 MSTORE PUSH1 0x20 ADD PUSH1 0x40 MLOAD DUP1 SWAP2 SUB SWAP1 KECCAK256 PUSH1 0x2 ADD PUSH1 0x4 SWAP1 SLOAD SWAP1 PUSH2 0x100 EXP SWAP1 DIV PUSH4 0xFFFFFFFF AND DUP4 DUP4 DUP2 MLOAD DUP2 LT PUSH2 0x11EB JUMPI PUSH2 0x11EA PUSH2 0x24F9 JUMP JUMPDEST JUMPDEST PUSH1 0x20 MUL PUSH1 0x20 ADD ADD MLOAD PUSH1 0x60 ADD SWAP1 PUSH4 0xFFFFFFFF AND SWAP1 DUP2 PUSH4 0xFFFFFFFF AND DUP2 MSTORE POP POP PUSH1 0x1 PUSH1 0x0 DUP4 DUP2 SLOAD DUP2 LT PUSH2 0x121F JUMPI PUSH2 0x121E PUSH2 0x24F9 JUMP JUMPDEST JUMPDEST SWAP1 PUSH1 0x0 MSTORE PUSH1 0x20 PUSH1 0x0 KECCAK256 ADD PUSH1 0x40 MLOAD PUSH2 0x1236 SWAP2 SWAP1 PUSH2 0x27FE JUMP JUMPDEST SWAP1 DUP2 MSTORE PUSH1 0x20 ADD PUSH1 0x40 MLOAD DUP1 SWAP2 SUB SWAP1 KECCAK256 PUSH1 0x6 ADD PUSH1 0x0 SWAP1 SLOAD SWAP1 PUSH2 0x100 EXP SWAP1 DIV PUSH1 0xFF AND DUP4 DUP4 DUP2 MLOAD DUP2 LT PUSH2 0x1268 JUMPI PUSH2 0x1267 PUSH2 0x24F9 JUMP JUMPDEST JUMPDEST PUSH1 0x20 MUL PUSH1 0x20 ADD ADD MLOAD PUSH1 0x80 ADD SWAP1 ISZERO ISZERO SWAP1 DUP2 ISZERO ISZERO DUP2 MSTORE POP POP POP DUP1 DUP1 PUSH2 0x128A SWAP1 PUSH2 0x23AF JUMP JUMPDEST SWAP2 POP POP PUSH2 0x1082 JUMP JUMPDEST POP SWAP1 JUMP JUMPDEST PUSH1 0x0 DUP1 PUSH1 0x0 DUP1 PUSH1 0x41 DUP6 MLOAD EQ PUSH2 0x12B1 JUMPI PUSH1 0x0 SWAP4 POP POP POP POP PUSH2 0x1389 JUMP JUMPDEST PUSH1 0x20 DUP6 ADD MLOAD SWAP3 POP PUSH1 0x40 DUP6 ADD MLOAD SWAP2 POP PUSH1 0x60 DUP6 ADD MLOAD PUSH1 0x0 BYTE SWAP1 POP PUSH1 0x1B DUP2 PUSH1 0xFF AND LT ISZERO PUSH2 0x12E5 JUMPI PUSH1 0x1B DUP2 PUSH2 0x12E2 SWAP2 SWAP1 PUSH2 0x2822 JUMP JUMPDEST SWAP1 POP JUMPDEST PUSH1 0x1B DUP2 PUSH1 0xFF AND EQ ISZERO DUP1 ISZERO PUSH2 0x12FD JUMPI POP PUSH1 0x1C DUP2 PUSH1 0xFF AND EQ ISZERO JUMPDEST ISZERO PUSH2 0x130E JUMPI PUSH1 0x0 SWAP4 POP POP POP POP PUSH2 0x1389 JUMP JUMPDEST PUSH1 0x1 DUP7 PUSH1 0x40 MLOAD PUSH1 0x20 ADD PUSH2 0x1321 SWAP2 SWAP1 PUSH2 0x28C6 JUMP JUMPDEST PUSH1 0x40 MLOAD PUSH1 0x20 DUP2 DUP4 SUB SUB DUP2 MSTORE SWAP1 PUSH1 0x40 MSTORE DUP1 MLOAD SWAP1 PUSH1 0x20 ADD KECCAK256 DUP3 DUP6 DUP6 PUSH1 0x40 MLOAD PUSH1 0x0 DUP2 MSTORE PUSH1 0x20 ADD PUSH1 0x40 MSTORE PUSH1 0x40 MLOAD PUSH2 0x1357 SWAP5 SWAP4 SWAP3 SWAP2 SWAP1 PUSH2 0x28FB JUMP JUMPDEST PUSH1 0x20 PUSH1 0x40 MLOAD PUSH1 0x20 DUP2 SUB SWAP1 DUP1 DUP5 SUB SWAP1 DUP6 GAS STATICCALL ISZERO DUP1 ISZERO PUSH2 0x1379 JUMPI RETURNDATASIZE PUSH1 0x0 DUP1 RETURNDATACOPY RETURNDATASIZE PUSH1 0x0 REVERT JUMPDEST POP POP POP PUSH1 0x20 PUSH1 0x40 MLOAD SUB MLOAD SWAP4 POP POP POP POP JUMPDEST SWAP3 SWAP2 POP POP JUMP JUMPDEST PUSH1 0x0 DUP1 PUSH1 0x1 DUP5 PUSH1 0x40 MLOAD PUSH2 0x13A2 SWAP2 SWAP1 PUSH2 0x226B JUMP JUMPDEST SWAP1 DUP2 MSTORE PUSH1 0x20 ADD PUSH1 0x40 MLOAD DUP1 SWAP2 SUB SWAP1 KECCAK256 SWAP1 POP PUSH1 0x1 DUP2 PUSH1 0x4 ADD PUSH1 0x0 DUP6 PUSH20 0xFFFFFFFFFFFFFFFFFFFFFFFFFFFFFFFFFFFFFFFF AND PUSH20 0xFFFFFFFFFFFFFFFFFFFFFFFFFFFFFFFFFFFFFFFF AND DUP2 MSTORE PUSH1 0x20 ADD SWAP1 DUP2 MSTORE PUSH1 0x20 ADD PUSH1 0x0 KECCAK256 PUSH1 0x0 PUSH2 0x100 EXP DUP2 SLOAD DUP2 PUSH1 0xFF MUL NOT AND SWAP1 DUP4 ISZERO ISZERO MUL OR SWAP1 SSTORE POP DUP1 PUSH1 0x5 ADD PUSH1 0x0 DUP7 PUSH20 0xFFFFFFFFFFFFFFFFFFFFFFFFFFFFFFFFFFFFFFFF AND PUSH20 0xFFFFFFFFFFFFFFFFFFFFFFFFFFFFFFFFFFFFFFFF AND DUP2 MSTORE PUSH1 0x20 ADD SWAP1 DUP2 MSTORE PUSH1 0x20 ADD PUSH1 0x0 KECCAK256 PUSH1 0x0 DUP2 SLOAD DUP1 SWAP3 SWAP2 SWAP1 PUSH2 0x145E SWAP1 PUSH2 0x23AF JUMP JUMPDEST SWAP2 SWAP1 POP SSTORE POP DUP1 PUSH1 0x5 ADD PUSH1 0x0 DUP7 PUSH20 0xFFFFFFFFFFFFFFFFFFFFFFFFFFFFFFFFFFFFFFFF AND PUSH20 0xFFFFFFFFFFFFFFFFFFFFFFFFFFFFFFFFFFFFFFFF AND DUP2 MSTORE PUSH1 0x20 ADD SWAP1 DUP2 MSTORE PUSH1 0x20 ADD PUSH1 0x0 KECCAK256 SLOAD SWAP2 POP POP SWAP4 SWAP3 POP POP POP JUMP JUMPDEST PUSH1 0x0 DUP1 PUSH1 0x1 DUP5 PUSH1 0x40 MLOAD PUSH2 0x14C2 SWAP2 SWAP1 PUSH2 0x226B JUMP JUMPDEST SWAP1 DUP2 MSTORE PUSH1 0x20 ADD PUSH1 0x40 MLOAD DUP1 SWAP2 SUB SWAP1 KECCAK256 SWAP1 POP DUP1 PUSH1 0x5 ADD PUSH1 0x0 DUP3 PUSH1 0x1 ADD DUP6 DUP2 SLOAD DUP2 LT PUSH2 0x14EE JUMPI PUSH2 0x14ED PUSH2 0x24F9 JUMP JUMPDEST JUMPDEST SWAP1 PUSH1 0x0 MSTORE PUSH1 0x20 PUSH1 0x0 KECCAK256 ADD PUSH1 0x0 SWAP1 SLOAD SWAP1 PUSH2 0x100 EXP SWAP1 DIV PUSH20 0xFFFFFFFFFFFFFFFFFFFFFFFFFFFFFFFFFFFFFFFF AND PUSH20 0xFFFFFFFFFFFFFFFFFFFFFFFFFFFFFFFFFFFFFFFF AND PUSH20 0xFFFFFFFFFFFFFFFFFFFFFFFFFFFFFFFFFFFFFFFF AND DUP2 MSTORE PUSH1 0x20 ADD SWAP1 DUP2 MSTORE PUSH1 0x20 ADD PUSH1 0x0 KECCAK256 SLOAD SWAP2 POP POP SWAP3 SWAP2 POP POP JUMP JUMPDEST DUP3 DUP1 SLOAD PUSH2 0x1569 SWAP1 PUSH2 0x26CC JUMP JUMPDEST SWAP1 PUSH1 0x0 MSTORE PUSH1 0x20 PUSH1 0x0 KECCAK256 SWAP1 PUSH1 0x1F ADD PUSH1 0x20 SWAP1 DIV DUP2 ADD SWAP3 DUP3 PUSH2 0x158B JUMPI PUSH1 0x0 DUP6 SSTORE PUSH2 0x15D2 JUMP JUMPDEST DUP3 PUSH1 0x1F LT PUSH2 0x15A4 JUMPI DUP1 MLOAD PUSH1 0xFF NOT AND DUP4 DUP1 ADD OR DUP6 SSTORE PUSH2 0x15D2 JUMP JUMPDEST DUP3 DUP1 ADD PUSH1 0x1 ADD DUP6 SSTORE DUP3 ISZERO PUSH2 0x15D2 JUMPI SWAP2 DUP3 ADD JUMPDEST DUP3 DUP2 GT ISZERO PUSH2 0x15D1 JUMPI DUP3 MLOAD DUP3 SSTORE SWAP2 PUSH1 0x20 ADD SWAP2 SWAP1 PUSH1 0x1 ADD SWAP1 PUSH2 0x15B6 JUMP JUMPDEST JUMPDEST POP SWAP1 POP PUSH2 0x15DF SWAP2 SWAP1 PUSH2 0x1636 JUMP JUMPDEST POP SWAP1 JUMP JUMPDEST PUSH1 0x40 MLOAD DUP1 PUSH1 0xA0 ADD PUSH1 0x40 MSTORE DUP1 PUSH1 0x0 PUSH20 0xFFFFFFFFFFFFFFFFFFFFFFFFFFFFFFFFFFFFFFFF AND DUP2 MSTORE PUSH1 0x20 ADD PUSH1 0x60 DUP2 MSTORE PUSH1 0x20 ADD PUSH1 0x0 PUSH4 0xFFFFFFFF AND DUP2 MSTORE PUSH1 0x20 ADD PUSH1 0x0 PUSH4 0xFFFFFFFF AND DUP2 MSTORE PUSH1 0x20 ADD PUSH1 0x0 ISZERO ISZERO DUP2 MSTORE POP SWAP1 JUMP JUMPDEST JUMPDEST DUP1 DUP3 GT ISZERO PUSH2 0x164F JUMPI PUSH1 0x0 DUP2 PUSH1 0x0 SWAP1 SSTORE POP PUSH1 0x1 ADD PUSH2 0x1637 JUMP JUMPDEST POP SWAP1 JUMP JUMPDEST PUSH1 0x0 PUSH1 0x40 MLOAD SWAP1 POP SWAP1 JUMP JUMPDEST PUSH1 0x0 DUP1 REVERT JUMPDEST PUSH1 0x0 DUP1 REVERT JUMPDEST PUSH1 0x0 PUSH20 0xFFFFFFFFFFFFFFFFFFFFFFFFFFFFFFFFFFFFFFFF DUP3 AND SWAP1 POP SWAP2 SWAP1 POP JUMP JUMPDEST PUSH1 0x0 PUSH2 0x1692 DUP3 PUSH2 0x1667 JUMP JUMPDEST SWAP1 POP SWAP2 SWAP1 POP JUMP JUMPDEST PUSH2 0x16A2 DUP2 PUSH2 0x1687 JUMP JUMPDEST DUP2 EQ PUSH2 0x16AD JUMPI PUSH1 0x0 DUP1 REVERT JUMPDEST POP JUMP JUMPDEST PUSH1 0x0 DUP2 CALLDATALOAD SWAP1 POP PUSH2 0x16BF DUP2 PUSH2 0x1699 JUMP JUMPDEST SWAP3 SWAP2 POP POP JUMP JUMPDEST PUSH1 0x0 DUP1 REVERT JUMPDEST PUSH1 0x0 DUP1 REVERT JUMPDEST PUSH1 0x0 PUSH1 0x1F NOT PUSH1 0x1F DUP4 ADD AND SWAP1 POP SWAP2 SWAP1 POP JUMP JUMPDEST PUSH32 0x4E487B7100000000000000000000000000000000000000000000000000000000 PUSH1 0x0 MSTORE PUSH1 0x41 PUSH1 0x4 MSTORE PUSH1 0x24 PUSH1 0x0 REVERT JUMPDEST PUSH2 0x1718 DUP3 PUSH2 0x16CF JUMP JUMPDEST DUP2 ADD DUP2 DUP2 LT PUSH8 0xFFFFFFFFFFFFFFFF DUP3 GT OR ISZERO PUSH2 0x1737 JUMPI PUSH2 0x1736 PUSH2 0x16E0 JUMP JUMPDEST JUMPDEST DUP1 PUSH1 0x40 MSTORE POP POP POP JUMP JUMPDEST PUSH1 0x0 PUSH2 0x174A PUSH2 0x1653 JUMP JUMPDEST SWAP1 POP PUSH2 0x1756 DUP3 DUP3 PUSH2 0x170F JUMP JUMPDEST SWAP2 SWAP1 POP JUMP JUMPDEST PUSH1 0x0 PUSH8 0xFFFFFFFFFFFFFFFF DUP3 GT ISZERO PUSH2 0x1776 JUMPI PUSH2 0x1775 PUSH2 0x16E0 JUMP JUMPDEST JUMPDEST PUSH2 0x177F DUP3 PUSH2 0x16CF JUMP JUMPDEST SWAP1 POP PUSH1 0x20 DUP2 ADD SWAP1 POP SWAP2 SWAP1 POP JUMP JUMPDEST DUP3 DUP2 DUP4 CALLDATACOPY PUSH1 0x0 DUP4 DUP4 ADD MSTORE POP POP POP JUMP JUMPDEST PUSH1 0x0 PUSH2 0x17AE PUSH2 0x17A9 DUP5 PUSH2 0x175B JUMP JUMPDEST PUSH2 0x1740 JUMP JUMPDEST SWAP1 POP DUP3 DUP2 MSTORE PUSH1 0x20 DUP2 ADD DUP5 DUP5 DUP5 ADD GT ISZERO PUSH2 0x17CA JUMPI PUSH2 0x17C9 PUSH2 0x16CA JUMP JUMPDEST JUMPDEST PUSH2 0x17D5 DUP5 DUP3 DUP6 PUSH2 0x178C JUMP JUMPDEST POP SWAP4 SWAP3 POP POP POP JUMP JUMPDEST PUSH1 0x0 DUP3 PUSH1 0x1F DUP4 ADD SLT PUSH2 0x17F2 JUMPI PUSH2 0x17F1 PUSH2 0x16C5 JUMP JUMPDEST JUMPDEST DUP2 CALLDATALOAD PUSH2 0x1802 DUP5 DUP3 PUSH1 0x20 DUP7 ADD PUSH2 0x179B JUMP JUMPDEST SWAP2 POP POP SWAP3 SWAP2 POP POP JUMP JUMPDEST PUSH1 0x0 DUP2 SWAP1 POP SWAP2 SWAP1 POP JUMP JUMPDEST PUSH2 0x181E DUP2 PUSH2 0x180B JUMP JUMPDEST DUP2 EQ PUSH2 0x1829 JUMPI PUSH1 0x0 DUP1 REVERT JUMPDEST POP JUMP JUMPDEST PUSH1 0x0 DUP2 CALLDATALOAD SWAP1 POP PUSH2 0x183B DUP2 PUSH2 0x1815 JUMP JUMPDEST SWAP3 SWAP2 POP POP JUMP JUMPDEST PUSH1 0x0 DUP1 PUSH1 0x0 DUP1 PUSH1 0x80 DUP6 DUP8 SUB SLT ISZERO PUSH2 0x185B JUMPI PUSH2 0x185A PUSH2 0x165D JUMP JUMPDEST JUMPDEST PUSH1 0x0 PUSH2 0x1869 DUP8 DUP3 DUP9 ADD PUSH2 0x16B0 JUMP JUMPDEST SWAP5 POP POP PUSH1 0x20 DUP6 ADD CALLDATALOAD PUSH8 0xFFFFFFFFFFFFFFFF DUP2 GT ISZERO PUSH2 0x188A JUMPI PUSH2 0x1889 PUSH2 0x1662 JUMP JUMPDEST JUMPDEST PUSH2 0x1896 DUP8 DUP3 DUP9 ADD PUSH2 0x17DD JUMP JUMPDEST SWAP4 POP POP PUSH1 0x40 PUSH2 0x18A7 DUP8 DUP3 DUP9 ADD PUSH2 0x182C JUMP JUMPDEST SWAP3 POP POP PUSH1 0x60 PUSH2 0x18B8 DUP8 DUP3 DUP9 ADD PUSH2 0x182C JUMP JUMPDEST SWAP2 POP POP SWAP3 SWAP6 SWAP2 SWAP5 POP SWAP3 POP JUMP JUMPDEST PUSH1 0x0 DUP2 SWAP1 POP SWAP2 SWAP1 POP JUMP JUMPDEST PUSH2 0x18D7 DUP2 PUSH2 0x18C4 JUMP JUMPDEST DUP3 MSTORE POP POP JUMP JUMPDEST PUSH1 0x0 PUSH1 0x20 DUP3 ADD SWAP1 POP PUSH2 0x18F2 PUSH1 0x0 DUP4 ADD DUP5 PUSH2 0x18CE JUMP JUMPDEST SWAP3 SWAP2 POP POP JUMP JUMPDEST PUSH1 0x0 PUSH8 0xFFFFFFFFFFFFFFFF DUP3 GT ISZERO PUSH2 0x1913 JUMPI PUSH2 0x1912 PUSH2 0x16E0 JUMP JUMPDEST JUMPDEST PUSH2 0x191C DUP3 PUSH2 0x16CF JUMP JUMPDEST SWAP1 POP PUSH1 0x20 DUP2 ADD SWAP1 POP SWAP2 SWAP1 POP JUMP JUMPDEST PUSH1 0x0 PUSH2 0x193C PUSH2 0x1937 DUP5 PUSH2 0x18F8 JUMP JUMPDEST PUSH2 0x1740 JUMP JUMPDEST SWAP1 POP DUP3 DUP2 MSTORE PUSH1 0x20 DUP2 ADD DUP5 DUP5 DUP5 ADD GT ISZERO PUSH2 0x1958 JUMPI PUSH2 0x1957 PUSH2 0x16CA JUMP JUMPDEST JUMPDEST PUSH2 0x1963 DUP5 DUP3 DUP6 PUSH2 0x178C JUMP JUMPDEST POP SWAP4 SWAP3 POP POP POP JUMP JUMPDEST PUSH1 0x0 DUP3 PUSH1 0x1F DUP4 ADD SLT PUSH2 0x1980 JUMPI PUSH2 0x197F PUSH2 0x16C5 JUMP JUMPDEST JUMPDEST DUP2 CALLDATALOAD PUSH2 0x1990 DUP5 DUP3 PUSH1 0x20 DUP7 ADD PUSH2 0x1929 JUMP JUMPDEST SWAP2 POP POP SWAP3 SWAP2 POP POP JUMP JUMPDEST PUSH1 0x0 DUP1 PUSH1 0x0 DUP1 PUSH1 0x80 DUP6 DUP8 SUB SLT ISZERO PUSH2 0x19B3 JUMPI PUSH2 0x19B2 PUSH2 0x165D JUMP JUMPDEST JUMPDEST PUSH1 0x0 PUSH2 0x19C1 DUP8 DUP3 DUP9 ADD PUSH2 0x16B0 JUMP JUMPDEST SWAP5 POP POP PUSH1 0x20 DUP6 ADD CALLDATALOAD PUSH8 0xFFFFFFFFFFFFFFFF DUP2 GT ISZERO PUSH2 0x19E2 JUMPI PUSH2 0x19E1 PUSH2 0x1662 JUMP JUMPDEST JUMPDEST PUSH2 0x19EE DUP8 DUP3 DUP9 ADD PUSH2 0x17DD JUMP JUMPDEST SWAP4 POP POP PUSH1 0x40 PUSH2 0x19FF DUP8 DUP3 DUP9 ADD PUSH2 0x182C JUMP JUMPDEST SWAP3 POP POP PUSH1 0x60 DUP6 ADD CALLDATALOAD PUSH8 0xFFFFFFFFFFFFFFFF DUP2 GT ISZERO PUSH2 0x1A20 JUMPI PUSH2 0x1A1F PUSH2 0x1662 JUMP JUMPDEST JUMPDEST PUSH2 0x1A2C DUP8 DUP3 DUP9 ADD PUSH2 0x196B JUMP JUMPDEST SWAP2 POP POP SWAP3 SWAP6 SWAP2 SWAP5 POP SWAP3 POP JUMP JUMPDEST PUSH1 0x0 PUSH1 0x20 DUP3 DUP5 SUB SLT ISZERO PUSH2 0x1A4E JUMPI PUSH2 0x1A4D PUSH2 0x165D JUMP JUMPDEST JUMPDEST PUSH1 0x0 DUP3 ADD CALLDATALOAD PUSH8 0xFFFFFFFFFFFFFFFF DUP2 GT ISZERO PUSH2 0x1A6C JUMPI PUSH2 0x1A6B PUSH2 0x1662 JUMP JUMPDEST JUMPDEST PUSH2 0x1A78 DUP5 DUP3 DUP6 ADD PUSH2 0x17DD JUMP JUMPDEST SWAP2 POP POP SWAP3 SWAP2 POP POP JUMP JUMPDEST PUSH1 0x0 DUP2 MLOAD SWAP1 POP SWAP2 SWAP1 POP JUMP JUMPDEST PUSH1 0x0 DUP3 DUP3 MSTORE PUSH1 0x20 DUP3 ADD SWAP1 POP SWAP3 SWAP2 POP POP JUMP JUMPDEST PUSH1 0x0 DUP2 SWAP1 POP PUSH1 0x20 DUP3 ADD SWAP1 POP SWAP2 SWAP1 POP JUMP JUMPDEST PUSH2 0x1AB6 DUP2 PUSH2 0x180B JUMP JUMPDEST DUP3 MSTORE POP POP JUMP JUMPDEST PUSH1 0x0 PUSH2 0x1AC8 DUP4 DUP4 PUSH2 0x1AAD JUMP JUMPDEST PUSH1 0x20 DUP4 ADD SWAP1 POP SWAP3 SWAP2 POP POP JUMP JUMPDEST PUSH1 0x0 PUSH1 0x20 DUP3 ADD SWAP1 POP SWAP2 SWAP1 POP JUMP JUMPDEST PUSH1 0x0 PUSH2 0x1AEC DUP3 PUSH2 0x1A81 JUMP JUMPDEST PUSH2 0x1AF6 DUP2 DUP6 PUSH2 0x1A8C JUMP JUMPDEST SWAP4 POP PUSH2 0x1B01 DUP4 PUSH2 0x1A9D JUMP JUMPDEST DUP1 PUSH1 0x0 JUMPDEST DUP4 DUP2 LT ISZERO PUSH2 0x1B32 JUMPI DUP2 MLOAD PUSH2 0x1B19 DUP9 DUP3 PUSH2 0x1ABC JUMP JUMPDEST SWAP8 POP PUSH2 0x1B24 DUP4 PUSH2 0x1AD4 JUMP JUMPDEST SWAP3 POP POP PUSH1 0x1 DUP2 ADD SWAP1 POP PUSH2 0x1B05 JUMP JUMPDEST POP DUP6 SWAP4 POP POP POP POP SWAP3 SWAP2 POP POP JUMP JUMPDEST PUSH2 0x1B48 DUP2 PUSH2 0x1687 JUMP JUMPDEST DUP3 MSTORE POP POP JUMP JUMPDEST PUSH2 0x1B57 DUP2 PUSH2 0x180B JUMP JUMPDEST DUP3 MSTORE POP POP JUMP JUMPDEST PUSH1 0x0 PUSH1 0x60 DUP3 ADD SWAP1 POP DUP2 DUP2 SUB PUSH1 0x0 DUP4 ADD MSTORE PUSH2 0x1B77 DUP2 DUP7 PUSH2 0x1AE1 JUMP JUMPDEST SWAP1 POP PUSH2 0x1B86 PUSH1 0x20 DUP4 ADD DUP6 PUSH2 0x1B3F JUMP JUMPDEST PUSH2 0x1B93 PUSH1 0x40 DUP4 ADD DUP5 PUSH2 0x1B4E JUMP JUMPDEST SWAP5 SWAP4 POP POP POP POP JUMP JUMPDEST PUSH1 0x0 DUP1 PUSH1 0x40 DUP4 DUP6 SUB SLT ISZERO PUSH2 0x1BB2 JUMPI PUSH2 0x1BB1 PUSH2 0x165D JUMP JUMPDEST JUMPDEST PUSH1 0x0 PUSH2 0x1BC0 DUP6 DUP3 DUP7 ADD PUSH2 0x16B0 JUMP JUMPDEST SWAP3 POP POP PUSH1 0x20 DUP4 ADD CALLDATALOAD PUSH8 0xFFFFFFFFFFFFFFFF DUP2 GT ISZERO PUSH2 0x1BE1 JUMPI PUSH2 0x1BE0 PUSH2 0x1662 JUMP JUMPDEST JUMPDEST PUSH2 0x1BED DUP6 DUP3 DUP7 ADD PUSH2 0x17DD JUMP JUMPDEST SWAP2 POP POP SWAP3 POP SWAP3 SWAP1 POP JUMP JUMPDEST PUSH1 0x0 PUSH4 0xFFFFFFFF DUP3 AND SWAP1 POP SWAP2 SWAP1 POP JUMP JUMPDEST PUSH2 0x1C10 DUP2 PUSH2 0x1BF7 JUMP JUMPDEST DUP3 MSTORE POP POP JUMP JUMPDEST PUSH1 0x0 DUP2 ISZERO ISZERO SWAP1 POP SWAP2 SWAP1 POP JUMP JUMPDEST PUSH2 0x1C2B DUP2 PUSH2 0x1C16 JUMP JUMPDEST DUP3 MSTORE POP POP JUMP JUMPDEST PUSH1 0x0 PUSH1 0x80 DUP3 ADD SWAP1 POP PUSH2 0x1C46 PUSH1 0x0 DUP4 ADD DUP8 PUSH2 0x1B3F JUMP JUMPDEST PUSH2 0x1C53 PUSH1 0x20 DUP4 ADD DUP7 PUSH2 0x1C07 JUMP JUMPDEST PUSH2 0x1C60 PUSH1 0x40 DUP4 ADD DUP6 PUSH2 0x1C07 JUMP JUMPDEST PUSH2 0x1C6D PUSH1 0x60 DUP4 ADD DUP5 PUSH2 0x1C22 JUMP JUMPDEST SWAP6 SWAP5 POP POP POP POP POP JUMP JUMPDEST PUSH1 0x0 PUSH1 0x20 DUP3 DUP5 SUB SLT ISZERO PUSH2 0x1C8C JUMPI PUSH2 0x1C8B PUSH2 0x165D JUMP JUMPDEST JUMPDEST PUSH1 0x0 PUSH2 0x1C9A DUP5 DUP3 DUP6 ADD PUSH2 0x16B0 JUMP JUMPDEST SWAP2 POP POP SWAP3 SWAP2 POP POP JUMP JUMPDEST PUSH1 0x0 PUSH1 0x20 DUP3 ADD SWAP1 POP PUSH2 0x1CB8 PUSH1 0x0 DUP4 ADD DUP5 PUSH2 0x1B4E JUMP JUMPDEST SWAP3 SWAP2 POP POP JUMP JUMPDEST PUSH1 0x0 PUSH1 0x20 DUP3 DUP5 SUB SLT ISZERO PUSH2 0x1CD4 JUMPI PUSH2 0x1CD3 PUSH2 0x165D JUMP JUMPDEST JUMPDEST PUSH1 0x0 PUSH2 0x1CE2 DUP5 DUP3 DUP6 ADD PUSH2 0x182C JUMP JUMPDEST SWAP2 POP POP SWAP3 SWAP2 POP POP JUMP JUMPDEST PUSH1 0x0 DUP2 MLOAD SWAP1 POP SWAP2 SWAP1 POP JUMP JUMPDEST PUSH1 0x0 DUP3 DUP3 MSTORE PUSH1 0x20 DUP3 ADD SWAP1 POP SWAP3 SWAP2 POP POP JUMP JUMPDEST PUSH1 0x0 JUMPDEST DUP4 DUP2 LT ISZERO PUSH2 0x1D25 JUMPI DUP1 DUP3 ADD MLOAD DUP2 DUP5 ADD MSTORE PUSH1 0x20 DUP2 ADD SWAP1 POP PUSH2 0x1D0A JUMP JUMPDEST DUP4 DUP2 GT ISZERO PUSH2 0x1D34 JUMPI PUSH1 0x0 DUP5 DUP5 ADD MSTORE JUMPDEST POP POP POP POP JUMP JUMPDEST PUSH1 0x0 PUSH2 0x1D45 DUP3 PUSH2 0x1CEB JUMP JUMPDEST PUSH2 0x1D4F DUP2 DUP6 PUSH2 0x1CF6 JUMP JUMPDEST SWAP4 POP PUSH2 0x1D5F DUP2 DUP6 PUSH1 0x20 DUP7 ADD PUSH2 0x1D07 JUMP JUMPDEST PUSH2 0x1D68 DUP2 PUSH2 0x16CF JUMP JUMPDEST DUP5 ADD SWAP2 POP POP SWAP3 SWAP2 POP POP JUMP JUMPDEST PUSH1 0x0 PUSH1 0x20 DUP3 ADD SWAP1 POP DUP2 DUP2 SUB PUSH1 0x0 DUP4 ADD MSTORE PUSH2 0x1D8D DUP2 DUP5 PUSH2 0x1D3A JUMP JUMPDEST SWAP1 POP SWAP3 SWAP2 POP POP JUMP JUMPDEST PUSH1 0x0 DUP2 MLOAD SWAP1 POP SWAP2 SWAP1 POP JUMP JUMPDEST PUSH1 0x0 DUP3 DUP3 MSTORE PUSH1 0x20 DUP3 ADD SWAP1 POP SWAP3 SWAP2 POP POP JUMP JUMPDEST PUSH1 0x0 DUP2 SWAP1 POP PUSH1 0x20 DUP3 ADD SWAP1 POP SWAP2 SWAP1 POP JUMP JUMPDEST PUSH2 0x1DCA DUP2 PUSH2 0x1687 JUMP JUMPDEST DUP3 MSTORE POP POP JUMP JUMPDEST PUSH1 0x0 PUSH2 0x1DDC DUP4 DUP4 PUSH2 0x1DC1 JUMP JUMPDEST PUSH1 0x20 DUP4 ADD SWAP1 POP SWAP3 SWAP2 POP POP JUMP JUMPDEST PUSH1 0x0 PUSH1 0x20 DUP3 ADD SWAP1 POP SWAP2 SWAP1 POP JUMP JUMPDEST PUSH1 0x0 PUSH2 0x1E00 DUP3 PUSH2 0x1D95 JUMP JUMPDEST PUSH2 0x1E0A DUP2 DUP6 PUSH2 0x1DA0 JUMP JUMPDEST SWAP4 POP PUSH2 0x1E15 DUP4 PUSH2 0x1DB1 JUMP JUMPDEST DUP1 PUSH1 0x0 JUMPDEST DUP4 DUP2 LT ISZERO PUSH2 0x1E46 JUMPI DUP2 MLOAD PUSH2 0x1E2D DUP9 DUP3 PUSH2 0x1DD0 JUMP JUMPDEST SWAP8 POP PUSH2 0x1E38 DUP4 PUSH2 0x1DE8 JUMP JUMPDEST SWAP3 POP POP PUSH1 0x1 DUP2 ADD SWAP1 POP PUSH2 0x1E19 JUMP JUMPDEST POP DUP6 SWAP4 POP POP POP POP SWAP3 SWAP2 POP POP JUMP JUMPDEST PUSH1 0x0 PUSH1 0x20 DUP3 ADD SWAP1 POP DUP2 DUP2 SUB PUSH1 0x0 DUP4 ADD MSTORE PUSH2 0x1E6D DUP2 DUP5 PUSH2 0x1DF5 JUMP JUMPDEST SWAP1 POP SWAP3 SWAP2 POP POP JUMP JUMPDEST PUSH2 0x1E7E DUP2 PUSH2 0x1BF7 JUMP JUMPDEST DUP2 EQ PUSH2 0x1E89 JUMPI PUSH1 0x0 DUP1 REVERT JUMPDEST POP JUMP JUMPDEST PUSH1 0x0 DUP2 CALLDATALOAD SWAP1 POP PUSH2 0x1E9B DUP2 PUSH2 0x1E75 JUMP JUMPDEST SWAP3 SWAP2 POP POP JUMP JUMPDEST PUSH1 0x0 DUP1 PUSH1 0x40 DUP4 DUP6 SUB SLT ISZERO PUSH2 0x1EB8 JUMPI PUSH2 0x1EB7 PUSH2 0x165D JUMP JUMPDEST JUMPDEST PUSH1 0x0 DUP4 ADD CALLDATALOAD PUSH8 0xFFFFFFFFFFFFFFFF DUP2 GT ISZERO PUSH2 0x1ED6 JUMPI PUSH2 0x1ED5 PUSH2 0x1662 JUMP JUMPDEST JUMPDEST PUSH2 0x1EE2 DUP6 DUP3 DUP7 ADD PUSH2 0x17DD JUMP JUMPDEST SWAP3 POP POP PUSH1 0x20 PUSH2 0x1EF3 DUP6 DUP3 DUP7 ADD PUSH2 0x1E8C JUMP JUMPDEST SWAP2 POP POP SWAP3 POP SWAP3 SWAP1 POP JUMP JUMPDEST PUSH1 0x0 PUSH1 0x40 DUP3 ADD SWAP1 POP DUP2 DUP2 SUB PUSH1 0x0 DUP4 ADD MSTORE PUSH2 0x1F17 DUP2 DUP6 PUSH2 0x1D3A JUMP JUMPDEST SWAP1 POP PUSH2 0x1F26 PUSH1 0x20 DUP4 ADD DUP5 PUSH2 0x1B4E JUMP JUMPDEST SWAP4 SWAP3 POP POP POP JUMP JUMPDEST PUSH1 0x0 DUP2 MLOAD SWAP1 POP SWAP2 SWAP1 POP JUMP JUMPDEST PUSH1 0x0 DUP3 DUP3 MSTORE PUSH1 0x20 DUP3 ADD SWAP1 POP SWAP3 SWAP2 POP POP JUMP JUMPDEST PUSH1 0x0 DUP2 SWAP1 POP PUSH1 0x20 DUP3 ADD SWAP1 POP SWAP2 SWAP1 POP JUMP JUMPDEST PUSH1 0x0 DUP3 DUP3 MSTORE PUSH1 0x20 DUP3 ADD SWAP1 POP SWAP3 SWAP2 POP POP JUMP JUMPDEST PUSH1 0x0 PUSH2 0x1F75 DUP3 PUSH2 0x1D95 JUMP JUMPDEST PUSH2 0x1F7F DUP2 DUP6 PUSH2 0x1F59 JUMP JUMPDEST SWAP4 POP PUSH2 0x1F8A DUP4 PUSH2 0x1DB1 JUMP JUMPDEST DUP1 PUSH1 0x0 JUMPDEST DUP4 DUP2 LT ISZERO PUSH2 0x1FBB JUMPI DUP2 MLOAD PUSH2 0x1FA2 DUP9 DUP3 PUSH2 0x1DD0 JUMP JUMPDEST SWAP8 POP PUSH2 0x1FAD DUP4 PUSH2 0x1DE8 JUMP JUMPDEST SWAP3 POP POP PUSH1 0x1 DUP2 ADD SWAP1 POP PUSH2 0x1F8E JUMP JUMPDEST POP DUP6 SWAP4 POP POP POP POP SWAP3 SWAP2 POP POP JUMP JUMPDEST PUSH2 0x1FD1 DUP2 PUSH2 0x1BF7 JUMP JUMPDEST DUP3 MSTORE POP POP JUMP JUMPDEST PUSH2 0x1FE0 DUP2 PUSH2 0x1C16 JUMP JUMPDEST DUP3 MSTORE POP POP JUMP JUMPDEST PUSH1 0x0 PUSH1 0xA0 DUP4 ADD PUSH1 0x0 DUP4 ADD MLOAD PUSH2 0x1FFE PUSH1 0x0 DUP7 ADD DUP3 PUSH2 0x1DC1 JUMP JUMPDEST POP PUSH1 0x20 DUP4 ADD MLOAD DUP5 DUP3 SUB PUSH1 0x20 DUP7 ADD MSTORE PUSH2 0x2016 DUP3 DUP3 PUSH2 0x1F6A JUMP JUMPDEST SWAP2 POP POP PUSH1 0x40 DUP4 ADD MLOAD PUSH2 0x202B PUSH1 0x40 DUP7 ADD DUP3 PUSH2 0x1FC8 JUMP JUMPDEST POP PUSH1 0x60 DUP4 ADD MLOAD PUSH2 0x203E PUSH1 0x60 DUP7 ADD DUP3 PUSH2 0x1FC8 JUMP JUMPDEST POP PUSH1 0x80 DUP4 ADD MLOAD PUSH2 0x2051 PUSH1 0x80 DUP7 ADD DUP3 PUSH2 0x1FD7 JUMP JUMPDEST POP DUP1 SWAP2 POP POP SWAP3 SWAP2 POP POP JUMP JUMPDEST PUSH1 0x0 PUSH2 0x2068 DUP4 DUP4 PUSH2 0x1FE6 JUMP JUMPDEST SWAP1 POP SWAP3 SWAP2 POP POP JUMP JUMPDEST PUSH1 0x0 PUSH1 0x20 DUP3 ADD SWAP1 POP SWAP2 SWAP1 POP JUMP JUMPDEST PUSH1 0x0 PUSH2 0x2088 DUP3 PUSH2 0x1F2D JUMP JUMPDEST PUSH2 0x2092 DUP2 DUP6 PUSH2 0x1F38 JUMP JUMPDEST SWAP4 POP DUP4 PUSH1 0x20 DUP3 MUL DUP6 ADD PUSH2 0x20A4 DUP6 PUSH2 0x1F49 JUMP JUMPDEST DUP1 PUSH1 0x0 JUMPDEST DUP6 DUP2 LT ISZERO PUSH2 0x20E0 JUMPI DUP5 DUP5 SUB DUP10 MSTORE DUP2 MLOAD PUSH2 0x20C1 DUP6 DUP3 PUSH2 0x205C JUMP JUMPDEST SWAP5 POP PUSH2 0x20CC DUP4 PUSH2 0x2070 JUMP JUMPDEST SWAP3 POP PUSH1 0x20 DUP11 ADD SWAP10 POP POP PUSH1 0x1 DUP2 ADD SWAP1 POP PUSH2 0x20A8 JUMP JUMPDEST POP DUP3 SWAP8 POP DUP8 SWAP6 POP POP POP POP POP POP SWAP3 SWAP2 POP POP JUMP JUMPDEST PUSH1 0x0 PUSH1 0x20 DUP3 ADD SWAP1 POP DUP2 DUP2 SUB PUSH1 0x0 DUP4 ADD MSTORE PUSH2 0x210C DUP2 DUP5 PUSH2 0x207D JUMP JUMPDEST SWAP1 POP SWAP3 SWAP2 POP POP JUMP JUMPDEST PUSH1 0x0 DUP2 PUSH1 0x60 SHL SWAP1 POP SWAP2 SWAP1 POP JUMP JUMPDEST PUSH1 0x0 PUSH2 0x212C DUP3 PUSH2 0x2114 JUMP JUMPDEST SWAP1 POP SWAP2 SWAP1 POP JUMP JUMPDEST PUSH1 0x0 PUSH2 0x213E DUP3 PUSH2 0x2121 JUMP JUMPDEST SWAP1 POP SWAP2 SWAP1 POP JUMP JUMPDEST PUSH2 0x2156 PUSH2 0x2151 DUP3 PUSH2 0x1687 JUMP JUMPDEST PUSH2 0x2133 JUMP JUMPDEST DUP3 MSTORE POP POP JUMP JUMPDEST PUSH1 0x0 DUP2 SWAP1 POP SWAP3 SWAP2 POP POP JUMP JUMPDEST PUSH32 0x6D6574617472616E73616374696F6E20566F74696E6720000000000000000000 PUSH1 0x0 DUP3 ADD MSTORE POP JUMP JUMPDEST PUSH1 0x0 PUSH2 0x219D PUSH1 0x17 DUP4 PUSH2 0x215C JUMP JUMPDEST SWAP2 POP PUSH2 0x21A8 DUP3 PUSH2 0x2167 JUMP JUMPDEST PUSH1 0x17 DUP3 ADD SWAP1 POP SWAP2 SWAP1 POP JUMP JUMPDEST PUSH1 0x0 PUSH2 0x21BE DUP3 PUSH2 0x1CEB JUMP JUMPDEST PUSH2 0x21C8 DUP2 DUP6 PUSH2 0x215C JUMP JUMPDEST SWAP4 POP PUSH2 0x21D8 DUP2 DUP6 PUSH1 0x20 DUP7 ADD PUSH2 0x1D07 JUMP JUMPDEST DUP1 DUP5 ADD SWAP2 POP POP SWAP3 SWAP2 POP POP JUMP JUMPDEST PUSH1 0x0 DUP2 SWAP1 POP SWAP2 SWAP1 POP JUMP JUMPDEST PUSH2 0x21FF PUSH2 0x21FA DUP3 PUSH2 0x180B JUMP JUMPDEST PUSH2 0x21E4 JUMP JUMPDEST DUP3 MSTORE POP POP JUMP JUMPDEST PUSH1 0x0 PUSH2 0x2211 DUP3 DUP9 PUSH2 0x2145 JUMP JUMPDEST PUSH1 0x14 DUP3 ADD SWAP2 POP PUSH2 0x2220 DUP3 PUSH2 0x2190 JUMP JUMPDEST SWAP2 POP PUSH2 0x222C DUP3 DUP8 PUSH2 0x2145 JUMP JUMPDEST PUSH1 0x14 DUP3 ADD SWAP2 POP PUSH2 0x223C DUP3 DUP7 PUSH2 0x21B3 JUMP JUMPDEST SWAP2 POP PUSH2 0x2248 DUP3 DUP6 PUSH2 0x21EE JUMP JUMPDEST PUSH1 0x20 DUP3 ADD SWAP2 POP PUSH2 0x2258 DUP3 DUP5 PUSH2 0x21EE JUMP JUMPDEST PUSH1 0x20 DUP3 ADD SWAP2 POP DUP2 SWAP1 POP SWAP7 SWAP6 POP POP POP POP POP POP JUMP JUMPDEST PUSH1 0x0 PUSH2 0x2277 DUP3 DUP5 PUSH2 0x21B3 JUMP JUMPDEST SWAP2 POP DUP2 SWAP1 POP SWAP3 SWAP2 POP POP JUMP JUMPDEST PUSH32 0x54686973206164647265737320646F6573206E6F742065786973742061732061 PUSH1 0x0 DUP3 ADD MSTORE PUSH32 0x2063616E64696461746500000000000000000000000000000000000000000000 PUSH1 0x20 DUP3 ADD MSTORE POP JUMP JUMPDEST PUSH1 0x0 PUSH2 0x22DE PUSH1 0x2A DUP4 PUSH2 0x1CF6 JUMP JUMPDEST SWAP2 POP PUSH2 0x22E9 DUP3 PUSH2 0x2282 JUMP JUMPDEST PUSH1 0x40 DUP3 ADD SWAP1 POP SWAP2 SWAP1 POP JUMP JUMPDEST PUSH1 0x0 PUSH1 0x20 DUP3 ADD SWAP1 POP DUP2 DUP2 SUB PUSH1 0x0 DUP4 ADD MSTORE PUSH2 0x230D DUP2 PUSH2 0x22D1 JUMP JUMPDEST SWAP1 POP SWAP2 SWAP1 POP JUMP JUMPDEST PUSH32 0x766F74696E672068617320656E64656400000000000000000000000000000000 PUSH1 0x0 DUP3 ADD MSTORE POP JUMP JUMPDEST PUSH1 0x0 PUSH2 0x234A PUSH1 0x10 DUP4 PUSH2 0x1CF6 JUMP JUMPDEST SWAP2 POP PUSH2 0x2355 DUP3 PUSH2 0x2314 JUMP JUMPDEST PUSH1 0x20 DUP3 ADD SWAP1 POP SWAP2 SWAP1 POP JUMP JUMPDEST PUSH1 0x0 PUSH1 0x20 DUP3 ADD SWAP1 POP DUP2 DUP2 SUB PUSH1 0x0 DUP4 ADD MSTORE PUSH2 0x2379 DUP2 PUSH2 0x233D JUMP JUMPDEST SWAP1 POP SWAP2 SWAP1 POP JUMP JUMPDEST PUSH32 0x4E487B7100000000000000000000000000000000000000000000000000000000 PUSH1 0x0 MSTORE PUSH1 0x11 PUSH1 0x4 MSTORE PUSH1 0x24 PUSH1 0x0 REVERT JUMPDEST PUSH1 0x0 PUSH2 0x23BA DUP3 PUSH2 0x180B JUMP JUMPDEST SWAP2 POP PUSH32 0xFFFFFFFFFFFFFFFFFFFFFFFFFFFFFFFFFFFFFFFFFFFFFFFFFFFFFFFFFFFFFFFF DUP3 EQ ISZERO PUSH2 0x23ED JUMPI PUSH2 0x23EC PUSH2 0x2380 JUMP JUMPDEST JUMPDEST PUSH1 0x1 DUP3 ADD SWAP1 POP SWAP2 SWAP1 POP JUMP JUMPDEST PUSH32 0x596F7520616C726561647920766F746564000000000000000000000000000000 PUSH1 0x0 DUP3 ADD MSTORE POP JUMP JUMPDEST PUSH1 0x0 PUSH2 0x242E PUSH1 0x11 DUP4 PUSH2 0x1CF6 JUMP JUMPDEST SWAP2 POP PUSH2 0x2439 DUP3 PUSH2 0x23F8 JUMP JUMPDEST PUSH1 0x20 DUP3 ADD SWAP1 POP SWAP2 SWAP1 POP JUMP JUMPDEST PUSH1 0x0 PUSH1 0x20 DUP3 ADD SWAP1 POP DUP2 DUP2 SUB PUSH1 0x0 DUP4 ADD MSTORE PUSH2 0x245D DUP2 PUSH2 0x2421 JUMP JUMPDEST SWAP1 POP SWAP2 SWAP1 POP JUMP JUMPDEST PUSH1 0x0 PUSH1 0x40 DUP3 ADD SWAP1 POP PUSH2 0x2479 PUSH1 0x0 DUP4 ADD DUP6 PUSH2 0x1B3F JUMP JUMPDEST PUSH2 0x2486 PUSH1 0x20 DUP4 ADD DUP5 PUSH2 0x1C22 JUMP JUMPDEST SWAP4 SWAP3 POP POP POP JUMP JUMPDEST PUSH32 0x4E6F20706F6C6C20637265617465640000000000000000000000000000000000 PUSH1 0x0 DUP3 ADD MSTORE POP JUMP JUMPDEST PUSH1 0x0 PUSH2 0x24C3 PUSH1 0xF DUP4 PUSH2 0x1CF6 JUMP JUMPDEST SWAP2 POP PUSH2 0x24CE DUP3 PUSH2 0x248D JUMP JUMPDEST PUSH1 0x20 DUP3 ADD SWAP1 POP SWAP2 SWAP1 POP JUMP JUMPDEST PUSH1 0x0 PUSH1 0x20 DUP3 ADD SWAP1 POP DUP2 DUP2 SUB PUSH1 0x0 DUP4 ADD MSTORE PUSH2 0x24F2 DUP2 PUSH2 0x24B6 JUMP JUMPDEST SWAP1 POP SWAP2 SWAP1 POP JUMP JUMPDEST PUSH32 0x4E487B7100000000000000000000000000000000000000000000000000000000 PUSH1 0x0 MSTORE PUSH1 0x32 PUSH1 0x4 MSTORE PUSH1 0x24 PUSH1 0x0 REVERT JUMPDEST PUSH32 0x79657420746F20637265617465206120706F6C6C000000000000000000000000 PUSH1 0x0 DUP3 ADD MSTORE POP JUMP JUMPDEST PUSH1 0x0 PUSH2 0x255E PUSH1 0x14 DUP4 PUSH2 0x1CF6 JUMP JUMPDEST SWAP2 POP PUSH2 0x2569 DUP3 PUSH2 0x2528 JUMP JUMPDEST PUSH1 0x20 DUP3 ADD SWAP1 POP SWAP2 SWAP1 POP JUMP JUMPDEST PUSH1 0x0 PUSH1 0x20 DUP3 ADD SWAP1 POP DUP2 DUP2 SUB PUSH1 0x0 DUP4 ADD MSTORE PUSH2 0x258D DUP2 PUSH2 0x2551 JUMP JUMPDEST SWAP1 POP SWAP2 SWAP1 POP JUMP JUMPDEST PUSH32 0x4E487B7100000000000000000000000000000000000000000000000000000000 PUSH1 0x0 MSTORE PUSH1 0x1 PUSH1 0x4 MSTORE PUSH1 0x24 PUSH1 0x0 REVERT JUMPDEST PUSH32 0x6D6178696D756D206E6F206F662063616E646964617465207065722073657373 PUSH1 0x0 DUP3 ADD MSTORE PUSH32 0x696F6E2072656769737465726564000000000000000000000000000000000000 PUSH1 0x20 DUP3 ADD MSTORE POP JUMP JUMPDEST PUSH1 0x0 PUSH2 0x261F PUSH1 0x2E DUP4 PUSH2 0x1CF6 JUMP JUMPDEST SWAP2 POP PUSH2 0x262A DUP3 PUSH2 0x25C3 JUMP JUMPDEST PUSH1 0x40 DUP3 ADD SWAP1 POP SWAP2 SWAP1 POP JUMP JUMPDEST PUSH1 0x0 PUSH1 0x20 DUP3 ADD SWAP1 POP DUP2 DUP2 SUB PUSH1 0x0 DUP4 ADD MSTORE PUSH2 0x264E DUP2 PUSH2 0x2612 JUMP JUMPDEST SWAP1 POP SWAP2 SWAP1 POP JUMP JUMPDEST PUSH1 0x0 PUSH2 0x2660 DUP3 PUSH2 0x1BF7 JUMP JUMPDEST SWAP2 POP PUSH4 0xFFFFFFFF DUP3 EQ ISZERO PUSH2 0x2677 JUMPI PUSH2 0x2676 PUSH2 0x2380 JUMP JUMPDEST JUMPDEST PUSH1 0x1 DUP3 ADD SWAP1 POP SWAP2 SWAP1 POP JUMP JUMPDEST PUSH1 0x0 PUSH1 0x20 DUP3 ADD SWAP1 POP PUSH2 0x2697 PUSH1 0x0 DUP4 ADD DUP5 PUSH2 0x1B3F JUMP JUMPDEST SWAP3 SWAP2 POP POP JUMP JUMPDEST PUSH32 0x4E487B7100000000000000000000000000000000000000000000000000000000 PUSH1 0x0 MSTORE PUSH1 0x22 PUSH1 0x4 MSTORE PUSH1 0x24 PUSH1 0x0 REVERT JUMPDEST PUSH1 0x0 PUSH1 0x2 DUP3 DIV SWAP1 POP PUSH1 0x1 DUP3 AND DUP1 PUSH2 0x26E4 JUMPI PUSH1 0x7F DUP3 AND SWAP2 POP JUMPDEST PUSH1 0x20 DUP3 LT DUP2 EQ ISZERO PUSH2 0x26F8 JUMPI PUSH2 0x26F7 PUSH2 0x269D JUMP JUMPDEST JUMPDEST POP SWAP2 SWAP1 POP JUMP JUMPDEST PUSH32 0x6E6F74207468652063686169726D616E00000000000000000000000000000000 PUSH1 0x0 DUP3 ADD MSTORE POP JUMP JUMPDEST PUSH1 0x0 PUSH2 0x2734 PUSH1 0x10 DUP4 PUSH2 0x1CF6 JUMP JUMPDEST SWAP2 POP PUSH2 0x273F DUP3 PUSH2 0x26FE JUMP JUMPDEST PUSH1 0x20 DUP3 ADD SWAP1 POP SWAP2 SWAP1 POP JUMP JUMPDEST PUSH1 0x0 PUSH1 0x20 DUP3 ADD SWAP1 POP DUP2 DUP2 SUB PUSH1 0x0 DUP4 ADD MSTORE PUSH2 0x2763 DUP2 PUSH2 0x2727 JUMP JUMPDEST SWAP1 POP SWAP2 SWAP1 POP JUMP JUMPDEST PUSH1 0x0 DUP2 SWAP1 POP DUP2 PUSH1 0x0 MSTORE PUSH1 0x20 PUSH1 0x0 KECCAK256 SWAP1 POP SWAP2 SWAP1 POP JUMP JUMPDEST PUSH1 0x0 DUP2 SLOAD PUSH2 0x278C DUP2 PUSH2 0x26CC JUMP JUMPDEST PUSH2 0x2796 DUP2 DUP7 PUSH2 0x215C JUMP JUMPDEST SWAP5 POP PUSH1 0x1 DUP3 AND PUSH1 0x0 DUP2 EQ PUSH2 0x27B1 JUMPI PUSH1 0x1 DUP2 EQ PUSH2 0x27C2 JUMPI PUSH2 0x27F5 JUMP JUMPDEST PUSH1 0xFF NOT DUP4 AND DUP7 MSTORE DUP2 DUP7 ADD SWAP4 POP PUSH2 0x27F5 JUMP JUMPDEST PUSH2 0x27CB DUP6 PUSH2 0x276A JUMP JUMPDEST PUSH1 0x0 JUMPDEST DUP4 DUP2 LT ISZERO PUSH2 0x27ED JUMPI DUP2 SLOAD DUP2 DUP10 ADD MSTORE PUSH1 0x1 DUP3 ADD SWAP2 POP PUSH1 0x20 DUP2 ADD SWAP1 POP PUSH2 0x27CE JUMP JUMPDEST DUP4 DUP9 ADD SWAP6 POP POP POP JUMPDEST POP POP POP SWAP3 SWAP2 POP POP JUMP JUMPDEST PUSH1 0x0 PUSH2 0x280A DUP3 DUP5 PUSH2 0x277F JUMP JUMPDEST SWAP2 POP DUP2 SWAP1 POP SWAP3 SWAP2 POP POP JUMP JUMPDEST PUSH1 0x0 PUSH1 0xFF DUP3 AND SWAP1 POP SWAP2 SWAP1 POP JUMP JUMPDEST PUSH1 0x0 PUSH2 0x282D DUP3 PUSH2 0x2815 JUMP JUMPDEST SWAP2 POP PUSH2 0x2838 DUP4 PUSH2 0x2815 JUMP JUMPDEST SWAP3 POP DUP3 PUSH1 0xFF SUB DUP3 GT ISZERO PUSH2 0x284E JUMPI PUSH2 0x284D PUSH2 0x2380 JUMP JUMPDEST JUMPDEST DUP3 DUP3 ADD SWAP1 POP SWAP3 SWAP2 POP POP JUMP JUMPDEST PUSH32 0x19457468657265756D205369676E6564204D6573736167653A0A333200000000 PUSH1 0x0 DUP3 ADD MSTORE POP JUMP JUMPDEST PUSH1 0x0 PUSH2 0x288F PUSH1 0x1C DUP4 PUSH2 0x215C JUMP JUMPDEST SWAP2 POP PUSH2 0x289A DUP3 PUSH2 0x2859 JUMP JUMPDEST PUSH1 0x1C DUP3 ADD SWAP1 POP SWAP2 SWAP1 POP JUMP JUMPDEST PUSH1 0x0 DUP2 SWAP1 POP SWAP2 SWAP1 POP JUMP JUMPDEST PUSH2 0x28C0 PUSH2 0x28BB DUP3 PUSH2 0x18C4 JUMP JUMPDEST PUSH2 0x28A5 JUMP JUMPDEST DUP3 MSTORE POP POP JUMP JUMPDEST PUSH1 0x0 PUSH2 0x28D1 DUP3 PUSH2 0x2882 JUMP JUMPDEST SWAP2 POP PUSH2 0x28DD DUP3 DUP5 PUSH2 0x28AF JUMP JUMPDEST PUSH1 0x20 DUP3 ADD SWAP2 POP DUP2 SWAP1 POP SWAP3 SWAP2 POP POP JUMP JUMPDEST PUSH2 0x28F5 DUP2 PUSH2 0x2815 JUMP JUMPDEST DUP3 MSTORE POP POP JUMP JUMPDEST PUSH1 0x0 PUSH1 0x80 DUP3 ADD SWAP1 POP PUSH2 0x2910 PUSH1 0x0 DUP4 ADD DUP8 PUSH2 0x18CE JUMP JUMPDEST PUSH2 0x291D PUSH1 0x20 DUP4 ADD DUP7 PUSH2 0x28EC JUMP JUMPDEST PUSH2 0x292A PUSH1 0x40 DUP4 ADD DUP6 PUSH2 0x18CE JUMP JUMPDEST PUSH2 0x2937 PUSH1 0x60 DUP4 ADD DUP5 PUSH2 0x18CE JUMP JUMPDEST SWAP6 SWAP5 POP POP POP POP POP JUMP INVALID LOG2 PUSH5 0x6970667358 0x22 SLT KECCAK256 0xED GASLIMIT PUSH10 0xB450BE01902DD8645B73 0xCB COINBASE DUP10 SWAP13 JUMPDEST 0xE9 KECCAK256 0x22 PUSH7 0x4AF8B9ED41FC99 RETURN DUP5 0xC1 PUSH5 0x736F6C6343 STOP ADDMOD EXP STOP CALLER "
				},
				"gasEstimates": {
					"creation": {
						"codeDepositCost": "2122800",
						"executionCost": "2258",
						"totalCost": "2125058"
					},
					"external": {
						"AddCandidate(address,string)": "infinite",
						"AllCandidates(string)": "infinite",
						"NoOfRegisteredCandidates(string)": "infinite",
						"VotingKey(uint256)": "infinite",
						"createPoll(string,uint32)": "infinite",
						"getStructProps()": "infinite",
						"metaVotingHash(address,string,uint256,uint256)": "infinite",
						"replayNonce(address)": "2925",
						"revealWinner(string)": "infinite",
						"setVotingState(string)": "infinite",
						"vote(address,string,uint256,bytes)": "infinite",
						"votingPoll(string)": "infinite"
					},
					"internal": {
						"countVote(address,string memory,address)": "infinite",
						"getPosition(string memory,uint256)": "infinite",
						"getSigner(bytes32,bytes memory)": "infinite"
					}
				},
				"methodIdentifiers": {
					"AddCandidate(address,string)": "57f53967",
					"AllCandidates(string)": "af7cbc0d",
					"NoOfRegisteredCandidates(string)": "8579cacd",
					"VotingKey(uint256)": "ae928e3e",
					"createPoll(string,uint32)": "f762f4c0",
					"getStructProps()": "f8437061",
					"metaVotingHash(address,string,uint256,uint256)": "01ff993b",
					"replayNonce(address)": "67d407df",
					"revealWinner(string)": "4fcf1f39",
					"setVotingState(string)": "f0e4de22",
					"vote(address,string,uint256,bytes)": "12f0da4b",
					"votingPoll(string)": "63ee965a"
				}
			},
			"storageLayout": {
				"storage": [
					{
						"astId": 40,
						"contract": "src/voting.sol:Voting",
						"label": "VotingKey",
						"offset": 0,
						"slot": "0",
						"type": "t_array(t_string_storage)dyn_storage"
					},
					{
						"astId": 45,
						"contract": "src/voting.sol:Voting",
						"label": "votingPoll",
						"offset": 0,
						"slot": "1",
						"type": "t_mapping(t_string_memory_ptr,t_struct(VotingPoll)25_storage)"
					},
					{
						"astId": 49,
						"contract": "src/voting.sol:Voting",
						"label": "replayNonce",
						"offset": 0,
						"slot": "2",
						"type": "t_mapping(t_address,t_uint256)"
					}
				],
				"types": {
					"t_address": {
						"encoding": "inplace",
						"label": "address",
						"numberOfBytes": "20"
					},
					"t_array(t_address)dyn_storage": {
						"base": "t_address",
						"encoding": "dynamic_array",
						"label": "address[]",
						"numberOfBytes": "32"
					},
					"t_array(t_string_storage)dyn_storage": {
						"base": "t_string_storage",
						"encoding": "dynamic_array",
						"label": "string[]",
						"numberOfBytes": "32"
					},
					"t_bool": {
						"encoding": "inplace",
						"label": "bool",
						"numberOfBytes": "1"
					},
					"t_mapping(t_address,t_bool)": {
						"encoding": "mapping",
						"key": "t_address",
						"label": "mapping(address => bool)",
						"numberOfBytes": "32",
						"value": "t_bool"
					},
					"t_mapping(t_address,t_uint256)": {
						"encoding": "mapping",
						"key": "t_address",
						"label": "mapping(address => uint256)",
						"numberOfBytes": "32",
						"value": "t_uint256"
					},
					"t_mapping(t_string_memory_ptr,t_struct(VotingPoll)25_storage)": {
						"encoding": "mapping",
						"key": "t_string_memory_ptr",
						"label": "mapping(string => struct Voting.VotingPoll)",
						"numberOfBytes": "32",
						"value": "t_struct(VotingPoll)25_storage"
					},
					"t_string_memory_ptr": {
						"encoding": "bytes",
						"label": "string",
						"numberOfBytes": "32"
					},
					"t_string_storage": {
						"encoding": "bytes",
						"label": "string",
						"numberOfBytes": "32"
					},
					"t_struct(VotingPoll)25_storage": {
						"encoding": "inplace",
						"label": "struct Voting.VotingPoll",
						"members": [
							{
								"astId": 3,
								"contract": "src/voting.sol:Voting",
								"label": "chairman",
								"offset": 0,
								"slot": "0",
								"type": "t_address"
							},
							{
								"astId": 6,
								"contract": "src/voting.sol:Voting",
								"label": "candidates",
								"offset": 0,
								"slot": "1",
								"type": "t_array(t_address)dyn_storage"
							},
							{
								"astId": 8,
								"contract": "src/voting.sol:Voting",
								"label": "maxNoOfCandidates",
								"offset": 0,
								"slot": "2",
								"type": "t_uint32"
							},
							{
								"astId": 10,
								"contract": "src/voting.sol:Voting",
								"label": "currentNoOfCandidates",
								"offset": 4,
								"slot": "2",
								"type": "t_uint32"
							},
							{
								"astId": 14,
								"contract": "src/voting.sol:Voting",
								"label": "CandidateStatus",
								"offset": 0,
								"slot": "3",
								"type": "t_mapping(t_address,t_bool)"
							},
							{
								"astId": 18,
								"contract": "src/voting.sol:Voting",
								"label": "hasVoted",
								"offset": 0,
								"slot": "4",
								"type": "t_mapping(t_address,t_bool)"
							},
							{
								"astId": 22,
								"contract": "src/voting.sol:Voting",
								"label": "CandidateVote",
								"offset": 0,
								"slot": "5",
								"type": "t_mapping(t_address,t_uint256)"
							},
							{
								"astId": 24,
								"contract": "src/voting.sol:Voting",
								"label": "voting",
								"offset": 0,
								"slot": "6",
								"type": "t_bool"
							}
						],
						"numberOfBytes": "224"
					},
					"t_uint256": {
						"encoding": "inplace",
						"label": "uint256",
						"numberOfBytes": "32"
					},
					"t_uint32": {
						"encoding": "inplace",
						"label": "uint32",
						"numberOfBytes": "4"
					}
				}
			},
			"userdoc": {
				"kind": "user",
				"methods": {},
				"version": 1
			}
		}
	}
}