{
	"src/voting.sol": {
		"Voting": {
			"abi": [
				{
					"anonymous": false,
					"inputs": [
						{
							"indexed": false,
							"internalType": "address",
							"name": "NewCandidate",
							"type": "address"
						}
					],
					"name": "becameCandidate",
					"type": "event"
				},
				{
					"anonymous": false,
					"inputs": [
						{
							"indexed": true,
							"internalType": "string",
							"name": "_name",
							"type": "string"
						},
						{
							"indexed": true,
							"internalType": "uint32",
							"name": "ExpectedNoOfCandidate",
							"type": "uint32"
						},
						{
							"indexed": true,
							"internalType": "uint256",
							"name": "_id",
							"type": "uint256"
						}
					],
					"name": "pollCreated",
					"type": "event"
				},
				{
					"anonymous": false,
					"inputs": [
						{
							"indexed": true,
							"internalType": "bool",
							"name": "status",
							"type": "bool"
						}
					],
					"name": "voteStatus",
					"type": "event"
				},
				{
					"anonymous": false,
					"inputs": [
						{
							"indexed": false,
							"internalType": "address",
							"name": "_candidate",
							"type": "address"
						},
						{
							"indexed": false,
							"internalType": "bool",
							"name": "status",
							"type": "bool"
						}
					],
					"name": "voted",
					"type": "event"
				},
				{
					"inputs": [
						{
							"internalType": "address",
							"name": "_newCandidate",
							"type": "address"
						},
						{
							"internalType": "uint256",
							"name": "_id",
							"type": "uint256"
						}
					],
					"name": "AddCandidate",
					"outputs": [],
					"stateMutability": "nonpayable",
					"type": "function"
				},
				{
					"inputs": [
						{
							"internalType": "uint256",
							"name": "_id",
							"type": "uint256"
						}
					],
					"name": "AllCandidates",
					"outputs": [
						{
							"internalType": "address[]",
							"name": "_candidates",
							"type": "address[]"
						}
					],
					"stateMutability": "view",
					"type": "function"
				},
				{
					"inputs": [
						{
							"internalType": "uint256",
							"name": "_id",
							"type": "uint256"
						}
					],
					"name": "NoOfRegisteredCandidates",
					"outputs": [
						{
							"internalType": "uint256",
							"name": "",
							"type": "uint256"
						}
					],
					"stateMutability": "view",
					"type": "function"
				},
				{
					"inputs": [
						{
							"internalType": "uint256",
							"name": "",
							"type": "uint256"
						}
					],
					"name": "VotingKey",
					"outputs": [
						{
							"internalType": "uint256",
							"name": "",
							"type": "uint256"
						}
					],
					"stateMutability": "view",
					"type": "function"
				},
				{
					"inputs": [
						{
							"internalType": "string",
							"name": "_name",
							"type": "string"
						},
						{
							"internalType": "uint32",
							"name": "ExpectedNoOfCandidate",
							"type": "uint32"
						}
					],
					"name": "createPoll",
					"outputs": [],
					"stateMutability": "nonpayable",
					"type": "function"
				},
				{
					"inputs": [
						{
							"internalType": "uint256",
							"name": "_id",
							"type": "uint256"
						}
					],
					"name": "getVotePollProps",
					"outputs": [
						{
							"components": [
								{
									"internalType": "string",
									"name": "name",
									"type": "string"
								},
								{
									"internalType": "address",
									"name": "chairman",
									"type": "address"
								},
								{
									"internalType": "address[]",
									"name": "candidates",
									"type": "address[]"
								},
								{
									"internalType": "uint32",
									"name": "maxNoOfCandidates",
									"type": "uint32"
								},
								{
									"internalType": "uint32",
									"name": "currentNoOfCandidates",
									"type": "uint32"
								},
								{
									"internalType": "bool",
									"name": "voting",
									"type": "bool"
								}
							],
							"internalType": "struct Voting.VotingPoll",
							"name": "",
							"type": "tuple"
						}
					],
					"stateMutability": "view",
					"type": "function"
				},
				{
					"inputs": [
						{
							"internalType": "address",
							"name": "Cand",
							"type": "address"
						},
						{
							"internalType": "uint256",
							"name": "_id",
							"type": "uint256"
						},
						{
							"internalType": "uint256",
							"name": "nonce",
							"type": "uint256"
						},
						{
							"internalType": "uint256",
							"name": "time",
							"type": "uint256"
						}
					],
					"name": "metaVotingHash",
					"outputs": [
						{
							"internalType": "bytes32",
							"name": "",
							"type": "bytes32"
						}
					],
					"stateMutability": "view",
					"type": "function"
				},
				{
					"inputs": [
						{
							"internalType": "address",
							"name": "",
							"type": "address"
						}
					],
					"name": "replayNonce",
					"outputs": [
						{
							"internalType": "uint256",
							"name": "",
							"type": "uint256"
						}
					],
					"stateMutability": "view",
					"type": "function"
				},
				{
					"inputs": [
						{
							"internalType": "uint256",
							"name": "_id",
							"type": "uint256"
						}
					],
					"name": "revealWinner",
					"outputs": [
						{
							"internalType": "uint256[]",
							"name": "CV",
							"type": "uint256[]"
						},
						{
							"internalType": "address",
							"name": "",
							"type": "address"
						},
						{
							"internalType": "uint256",
							"name": "",
							"type": "uint256"
						}
					],
					"stateMutability": "view",
					"type": "function"
				},
				{
					"inputs": [
						{
							"internalType": "uint256",
							"name": "_id",
							"type": "uint256"
						}
					],
					"name": "setVotingState",
					"outputs": [],
					"stateMutability": "nonpayable",
					"type": "function"
				},
				{
					"inputs": [
						{
							"internalType": "address",
							"name": "Cand",
							"type": "address"
						},
						{
							"internalType": "uint256",
							"name": "_id",
							"type": "uint256"
						},
						{
							"internalType": "uint256",
							"name": "nonce",
							"type": "uint256"
						},
						{
							"internalType": "bytes",
							"name": "signature",
							"type": "bytes"
						}
					],
					"name": "vote",
					"outputs": [],
					"stateMutability": "nonpayable",
					"type": "function"
				},
				{
					"inputs": [
						{
							"internalType": "uint256",
							"name": "",
							"type": "uint256"
						}
					],
					"name": "votingPoll",
					"outputs": [
						{
							"internalType": "string",
							"name": "name",
							"type": "string"
						},
						{
							"internalType": "address",
							"name": "chairman",
							"type": "address"
						},
						{
							"internalType": "uint32",
							"name": "maxNoOfCandidates",
							"type": "uint32"
						},
						{
							"internalType": "uint32",
							"name": "currentNoOfCandidates",
							"type": "uint32"
						},
						{
							"internalType": "bool",
							"name": "voting",
							"type": "bool"
						}
					],
					"stateMutability": "view",
					"type": "function"
				}
			],
			"devdoc": {
				"kind": "dev",
				"methods": {},
				"version": 1
			},
			"evm": {
				"assembly": "    /* \"src/voting.sol\":63:5341  contract Voting{... */\n  mstore(0x40, 0x80)\n    /* \"src/voting.sol\":159:160  1 */\n  0x01\n    /* \"src/voting.sol\":149:160  uint id = 1 */\n  0x00\n  sstore\n    /* \"src/voting.sol\":63:5341  contract Voting{... */\n  callvalue\n  dup1\n  iszero\n  tag_1\n  jumpi\n  0x00\n  dup1\n  revert\ntag_1:\n  pop\n  dataSize(sub_0)\n  dup1\n  dataOffset(sub_0)\n  0x00\n  codecopy\n  0x00\n  return\nstop\n\nsub_0: assembly {\n        /* \"src/voting.sol\":63:5341  contract Voting{... */\n      mstore(0x40, 0x80)\n      callvalue\n      dup1\n      iszero\n      tag_1\n      jumpi\n      0x00\n      dup1\n      revert\n    tag_1:\n      pop\n      jumpi(tag_2, lt(calldatasize, 0x04))\n      shr(0xe0, calldataload(0x00))\n      dup1\n      0xae928e3e\n      gt\n      tag_15\n      jumpi\n      dup1\n      0xae928e3e\n      eq\n      tag_9\n      jumpi\n      dup1\n      0xbfe2e25d\n      eq\n      tag_10\n      jumpi\n      dup1\n      0xc10d6cec\n      eq\n      tag_11\n      jumpi\n      dup1\n      0xc57003cc\n      eq\n      tag_12\n      jumpi\n      dup1\n      0xe615f104\n      eq\n      tag_13\n      jumpi\n      dup1\n      0xf762f4c0\n      eq\n      tag_14\n      jumpi\n      jump(tag_2)\n    tag_15:\n      dup1\n      0x049d1c8b\n      eq\n      tag_3\n      jumpi\n      dup1\n      0x278e2c90\n      eq\n      tag_4\n      jumpi\n      dup1\n      0x66c5343b\n      eq\n      tag_5\n      jumpi\n      dup1\n      0x67d407df\n      eq\n      tag_6\n      jumpi\n      dup1\n      0x8ac3c3c2\n      eq\n      tag_7\n      jumpi\n      dup1\n      0x8ccb59e8\n      eq\n      tag_8\n      jumpi\n    tag_2:\n      0x00\n      dup1\n      revert\n        /* \"src/voting.sol\":1913:2414  function AddCandidate(address _newCandidate, uint _id) external{... */\n    tag_3:\n      tag_16\n      0x04\n      dup1\n      calldatasize\n      sub\n      dup2\n      add\n      swap1\n      tag_17\n      swap2\n      swap1\n      tag_18\n      jump\t// in\n    tag_17:\n      tag_19\n      jump\t// in\n    tag_16:\n      stop\n        /* \"src/voting.sol\":4420:4525  function getVotePollProps(uint _id) public view returns(VotingPoll memory){... */\n    tag_4:\n      tag_20\n      0x04\n      dup1\n      calldatasize\n      sub\n      dup2\n      add\n      swap1\n      tag_21\n      swap2\n      swap1\n      tag_22\n      jump\t// in\n    tag_21:\n      tag_23\n      jump\t// in\n    tag_20:\n      mload(0x40)\n      tag_24\n      swap2\n      swap1\n      tag_25\n      jump\t// in\n    tag_24:\n      mload(0x40)\n      dup1\n      swap2\n      sub\n      swap1\n      return\n        /* \"src/voting.sol\":3332:3490  function NoOfRegisteredCandidates( uint _id) public view returns(uint){... */\n    tag_5:\n      tag_26\n      0x04\n      dup1\n      calldatasize\n      sub\n      dup2\n      add\n      swap1\n      tag_27\n      swap2\n      swap1\n      tag_22\n      jump\t// in\n    tag_27:\n      tag_28\n      jump\t// in\n    tag_26:\n      mload(0x40)\n      tag_29\n      swap2\n      swap1\n      tag_30\n      jump\t// in\n    tag_29:\n      mload(0x40)\n      dup1\n      swap2\n      sub\n      swap1\n      return\n        /* \"src/voting.sol\":590:637  mapping (address => uint256) public replayNonce */\n    tag_6:\n      tag_31\n      0x04\n      dup1\n      calldatasize\n      sub\n      dup2\n      add\n      swap1\n      tag_32\n      swap2\n      swap1\n      tag_33\n      jump\t// in\n    tag_32:\n      tag_34\n      jump\t// in\n    tag_31:\n      mload(0x40)\n      tag_35\n      swap2\n      swap1\n      tag_30\n      jump\t// in\n    tag_35:\n      mload(0x40)\n      dup1\n      swap2\n      sub\n      swap1\n      return\n        /* \"src/voting.sol\":3495:3655  function AllCandidates( uint _id) public view returns(address[] memory _candidates){... */\n    tag_7:\n      tag_36\n      0x04\n      dup1\n      calldatasize\n      sub\n      dup2\n      add\n      swap1\n      tag_37\n      swap2\n      swap1\n      tag_22\n      jump\t// in\n    tag_37:\n      tag_38\n      jump\t// in\n    tag_36:\n      mload(0x40)\n      tag_39\n      swap2\n      swap1\n      tag_40\n      jump\t// in\n    tag_39:\n      mload(0x40)\n      dup1\n      swap2\n      sub\n      swap1\n      return\n        /* \"src/voting.sol\":3658:4237  function revealWinner( uint _id) external view returns ( uint[] memory CV, address, uint){... */\n    tag_8:\n      tag_41\n      0x04\n      dup1\n      calldatasize\n      sub\n      dup2\n      add\n      swap1\n      tag_42\n      swap2\n      swap1\n      tag_22\n      jump\t// in\n    tag_42:\n      tag_43\n      jump\t// in\n    tag_41:\n      mload(0x40)\n      tag_44\n      swap4\n      swap3\n      swap2\n      swap1\n      tag_45\n      jump\t// in\n    tag_44:\n      mload(0x40)\n      dup1\n      swap2\n      sub\n      swap1\n      return\n        /* \"src/voting.sol\":459:482  uint[] public VotingKey */\n    tag_9:\n      tag_46\n      0x04\n      dup1\n      calldatasize\n      sub\n      dup2\n      add\n      swap1\n      tag_47\n      swap2\n      swap1\n      tag_22\n      jump\t// in\n    tag_47:\n      tag_48\n      jump\t// in\n    tag_46:\n      mload(0x40)\n      tag_49\n      swap2\n      swap1\n      tag_30\n      jump\t// in\n    tag_49:\n      mload(0x40)\n      dup1\n      swap2\n      sub\n      swap1\n      return\n        /* \"src/voting.sol\":4536:4751  function metaVotingHash(address Cand, uint _id, uint256 nonce, uint256 time) public view returns(bytes32){... */\n    tag_10:\n      tag_50\n      0x04\n      dup1\n      calldatasize\n      sub\n      dup2\n      add\n      swap1\n      tag_51\n      swap2\n      swap1\n      tag_52\n      jump\t// in\n    tag_51:\n      tag_53\n      jump\t// in\n    tag_50:\n      mload(0x40)\n      tag_54\n      swap2\n      swap1\n      tag_55\n      jump\t// in\n    tag_54:\n      mload(0x40)\n      dup1\n      swap2\n      sub\n      swap1\n      return\n        /* \"src/voting.sol\":2417:2908  function vote(address Cand, uint _id, uint256 nonce, bytes memory signature) external  isCandidate(Cand, _id) StillVoting(_id){... */\n    tag_11:\n      tag_56\n      0x04\n      dup1\n      calldatasize\n      sub\n      dup2\n      add\n      swap1\n      tag_57\n      swap2\n      swap1\n      tag_58\n      jump\t// in\n    tag_57:\n      tag_59\n      jump\t// in\n    tag_56:\n      stop\n        /* \"src/voting.sol\":3107:3329  function setVotingState( uint _id) external {... */\n    tag_12:\n      tag_60\n      0x04\n      dup1\n      calldatasize\n      sub\n      dup2\n      add\n      swap1\n      tag_61\n      swap2\n      swap1\n      tag_22\n      jump\t// in\n    tag_61:\n      tag_62\n      jump\t// in\n    tag_60:\n      stop\n        /* \"src/voting.sol\":543:588  mapping(uint => VotingPoll) public votingPoll */\n    tag_13:\n      tag_63\n      0x04\n      dup1\n      calldatasize\n      sub\n      dup2\n      add\n      swap1\n      tag_64\n      swap2\n      swap1\n      tag_22\n      jump\t// in\n    tag_64:\n      tag_65\n      jump\t// in\n    tag_63:\n      mload(0x40)\n      tag_66\n      swap6\n      swap5\n      swap4\n      swap3\n      swap2\n      swap1\n      tag_67\n      jump\t// in\n    tag_66:\n      mload(0x40)\n      dup1\n      swap2\n      sub\n      swap1\n      return\n        /* \"src/voting.sol\":1590:1909  function createPoll(string memory _name, uint32 ExpectedNoOfCandidate) external {... */\n    tag_14:\n      tag_68\n      0x04\n      dup1\n      calldatasize\n      sub\n      dup2\n      add\n      swap1\n      tag_69\n      swap2\n      swap1\n      tag_70\n      jump\t// in\n    tag_69:\n      tag_71\n      jump\t// in\n    tag_68:\n      stop\n        /* \"src/voting.sol\":1913:2414  function AddCandidate(address _newCandidate, uint _id) external{... */\n    tag_19:\n        /* \"src/voting.sol\":1983:2004  VotingPoll storage VP */\n      0x00\n        /* \"src/voting.sol\":2007:2017  votingPoll */\n      0x02\n        /* \"src/voting.sol\":2007:2022  votingPoll[_id] */\n      0x00\n        /* \"src/voting.sol\":2018:2021  _id */\n      dup4\n        /* \"src/voting.sol\":2007:2022  votingPoll[_id] */\n      dup2\n      mstore\n      0x20\n      add\n      swap1\n      dup2\n      mstore\n      0x20\n      add\n      0x00\n      keccak256\n        /* \"src/voting.sol\":1983:2022  VotingPoll storage VP = votingPoll[_id] */\n      swap1\n      pop\n        /* \"src/voting.sol\":2061:2062  0 */\n      0x00\n        /* \"src/voting.sol\":2038:2063  VP.chairman != address(0) */\n      0xffffffffffffffffffffffffffffffffffffffff\n      and\n        /* \"src/voting.sol\":2038:2040  VP */\n      dup2\n        /* \"src/voting.sol\":2038:2049  VP.chairman */\n      0x01\n      add\n      0x00\n      swap1\n      sload\n      swap1\n      0x0100\n      exp\n      swap1\n      div\n      0xffffffffffffffffffffffffffffffffffffffff\n      and\n        /* \"src/voting.sol\":2038:2063  VP.chairman != address(0) */\n      0xffffffffffffffffffffffffffffffffffffffff\n      and\n      eq\n      iszero\n        /* \"src/voting.sol\":2029:2089  require (VP.chairman != address(0) , \"yet to create a poll\") */\n      tag_73\n      jumpi\n      mload(0x40)\n      0x08c379a000000000000000000000000000000000000000000000000000000000\n      dup2\n      mstore\n      0x04\n      add\n      tag_74\n      swap1\n      tag_75\n      jump\t// in\n    tag_74:\n      mload(0x40)\n      dup1\n      swap2\n      sub\n      swap1\n      revert\n    tag_73:\n        /* \"src/voting.sol\":2120:2130  msg.sender */\n      caller\n        /* \"src/voting.sol\":2105:2130  VP.chairman == msg.sender */\n      0xffffffffffffffffffffffffffffffffffffffff\n      and\n        /* \"src/voting.sol\":2105:2107  VP */\n      dup2\n        /* \"src/voting.sol\":2105:2116  VP.chairman */\n      0x01\n      add\n      0x00\n      swap1\n      sload\n      swap1\n      0x0100\n      exp\n      swap1\n      div\n      0xffffffffffffffffffffffffffffffffffffffff\n      and\n        /* \"src/voting.sol\":2105:2130  VP.chairman == msg.sender */\n      0xffffffffffffffffffffffffffffffffffffffff\n      and\n      eq\n        /* \"src/voting.sol\":2098:2131  assert(VP.chairman == msg.sender) */\n      tag_76\n      jumpi\n      tag_77\n      tag_78\n      jump\t// in\n    tag_77:\n    tag_76:\n        /* \"src/voting.sol\":2173:2175  VP */\n      dup1\n        /* \"src/voting.sol\":2173:2193  VP.maxNoOfCandidates */\n      0x03\n      add\n      0x00\n      swap1\n      sload\n      swap1\n      0x0100\n      exp\n      swap1\n      div\n      0xffffffff\n      and\n        /* \"src/voting.sol\":2146:2193  VP.currentNoOfCandidates < VP.maxNoOfCandidates */\n      0xffffffff\n      and\n        /* \"src/voting.sol\":2146:2148  VP */\n      dup2\n        /* \"src/voting.sol\":2146:2170  VP.currentNoOfCandidates */\n      0x03\n      add\n      0x04\n      swap1\n      sload\n      swap1\n      0x0100\n      exp\n      swap1\n      div\n      0xffffffff\n      and\n        /* \"src/voting.sol\":2146:2193  VP.currentNoOfCandidates < VP.maxNoOfCandidates */\n      0xffffffff\n      and\n      lt\n        /* \"src/voting.sol\":2138:2244  require(VP.currentNoOfCandidates < VP.maxNoOfCandidates, \"maximum no of candidate per session registered\") */\n      tag_79\n      jumpi\n      mload(0x40)\n      0x08c379a000000000000000000000000000000000000000000000000000000000\n      dup2\n      mstore\n      0x04\n      add\n      tag_80\n      swap1\n      tag_81\n      jump\t// in\n    tag_80:\n      mload(0x40)\n      dup1\n      swap2\n      sub\n      swap1\n      revert\n    tag_79:\n        /* \"src/voting.sol\":2289:2293  true */\n      0x01\n        /* \"src/voting.sol\":2251:2266  CandidateStatus */\n      0x04\n        /* \"src/voting.sol\":2251:2271  CandidateStatus[_id] */\n      0x00\n        /* \"src/voting.sol\":2267:2270  _id */\n      dup5\n        /* \"src/voting.sol\":2251:2271  CandidateStatus[_id] */\n      dup2\n      mstore\n      0x20\n      add\n      swap1\n      dup2\n      mstore\n      0x20\n      add\n      0x00\n      keccak256\n        /* \"src/voting.sol\":2251:2286  CandidateStatus[_id][_newCandidate] */\n      0x00\n        /* \"src/voting.sol\":2272:2285  _newCandidate */\n      dup6\n        /* \"src/voting.sol\":2251:2286  CandidateStatus[_id][_newCandidate] */\n      0xffffffffffffffffffffffffffffffffffffffff\n      and\n      0xffffffffffffffffffffffffffffffffffffffff\n      and\n      dup2\n      mstore\n      0x20\n      add\n      swap1\n      dup2\n      mstore\n      0x20\n      add\n      0x00\n      keccak256\n      0x00\n        /* \"src/voting.sol\":2251:2293  CandidateStatus[_id][_newCandidate] = true */\n      0x0100\n      exp\n      dup2\n      sload\n      dup2\n      0xff\n      mul\n      not\n      and\n      swap1\n      dup4\n      iszero\n      iszero\n      mul\n      or\n      swap1\n      sstore\n      pop\n        /* \"src/voting.sol\":2301:2303  VP */\n      dup1\n        /* \"src/voting.sol\":2301:2314  VP.candidates */\n      0x02\n      add\n        /* \"src/voting.sol\":2320:2333  _newCandidate */\n      dup4\n        /* \"src/voting.sol\":2301:2334  VP.candidates.push(_newCandidate) */\n      swap1\n      dup1\n      0x01\n      dup2\n      sload\n      add\n      dup1\n      dup3\n      sstore\n      dup1\n      swap2\n      pop\n      pop\n      0x01\n      swap1\n      sub\n      swap1\n      0x00\n      mstore\n      keccak256(0x00, 0x20)\n      add\n      0x00\n      swap1\n      swap2\n      swap1\n      swap2\n      swap1\n      swap2\n      0x0100\n      exp\n      dup2\n      sload\n      dup2\n      0xffffffffffffffffffffffffffffffffffffffff\n      mul\n      not\n      and\n      swap1\n      dup4\n      0xffffffffffffffffffffffffffffffffffffffff\n      and\n      mul\n      or\n      swap1\n      sstore\n      pop\n        /* \"src/voting.sol\":2342:2344  VP */\n      dup1\n        /* \"src/voting.sol\":2342:2366  VP.currentNoOfCandidates */\n      0x03\n      add\n      0x04\n        /* \"src/voting.sol\":2342:2368  VP.currentNoOfCandidates++ */\n      dup2\n      dup2\n      swap1\n      sload\n      swap1\n      0x0100\n      exp\n      swap1\n      div\n      0xffffffff\n      and\n      dup1\n      swap3\n      swap2\n      swap1\n      tag_83\n      swap1\n      tag_84\n      jump\t// in\n    tag_83:\n      swap2\n      swap1\n      0x0100\n      exp\n      dup2\n      sload\n      dup2\n      0xffffffff\n      mul\n      not\n      and\n      swap1\n      dup4\n      0xffffffff\n      and\n      mul\n      or\n      swap1\n      sstore\n      pop\n      pop\n        /* \"src/voting.sol\":2380:2410  becameCandidate(_newCandidate) */\n      0xc19c59aa93348e8fc54764bc642eca975e2639f44cc683ef8f027e1529cbda32\n        /* \"src/voting.sol\":2396:2409  _newCandidate */\n      dup4\n        /* \"src/voting.sol\":2380:2410  becameCandidate(_newCandidate) */\n      mload(0x40)\n      tag_85\n      swap2\n      swap1\n      tag_86\n      jump\t// in\n    tag_85:\n      mload(0x40)\n      dup1\n      swap2\n      sub\n      swap1\n      log1\n        /* \"src/voting.sol\":1976:2414  {... */\n      pop\n        /* \"src/voting.sol\":1913:2414  function AddCandidate(address _newCandidate, uint _id) external{... */\n      pop\n      pop\n      jump\t// out\n        /* \"src/voting.sol\":4420:4525  function getVotePollProps(uint _id) public view returns(VotingPoll memory){... */\n    tag_23:\n        /* \"src/voting.sol\":4476:4493  VotingPoll memory */\n      tag_87\n      tag_88\n      jump\t// in\n    tag_87:\n        /* \"src/voting.sol\":4506:4516  votingPoll */\n      0x02\n        /* \"src/voting.sol\":4506:4521  votingPoll[_id] */\n      0x00\n        /* \"src/voting.sol\":4517:4520  _id */\n      dup4\n        /* \"src/voting.sol\":4506:4521  votingPoll[_id] */\n      dup2\n      mstore\n      0x20\n      add\n      swap1\n      dup2\n      mstore\n      0x20\n      add\n      0x00\n      keccak256\n        /* \"src/voting.sol\":4499:4521  return votingPoll[_id] */\n      mload(0x40)\n      dup1\n      0xc0\n      add\n      0x40\n      mstore\n      swap1\n      dup2\n      0x00\n      dup3\n      add\n      dup1\n      sload\n      tag_90\n      swap1\n      tag_91\n      jump\t// in\n    tag_90:\n      dup1\n      0x1f\n      add\n      0x20\n      dup1\n      swap2\n      div\n      mul\n      0x20\n      add\n      mload(0x40)\n      swap1\n      dup2\n      add\n      0x40\n      mstore\n      dup1\n      swap3\n      swap2\n      swap1\n      dup2\n      dup2\n      mstore\n      0x20\n      add\n      dup3\n      dup1\n      sload\n      tag_92\n      swap1\n      tag_91\n      jump\t// in\n    tag_92:\n      dup1\n      iszero\n      tag_93\n      jumpi\n      dup1\n      0x1f\n      lt\n      tag_94\n      jumpi\n      0x0100\n      dup1\n      dup4\n      sload\n      div\n      mul\n      dup4\n      mstore\n      swap2\n      0x20\n      add\n      swap2\n      jump(tag_93)\n    tag_94:\n      dup3\n      add\n      swap2\n      swap1\n      0x00\n      mstore\n      keccak256(0x00, 0x20)\n      swap1\n    tag_95:\n      dup2\n      sload\n      dup2\n      mstore\n      swap1\n      0x01\n      add\n      swap1\n      0x20\n      add\n      dup1\n      dup4\n      gt\n      tag_95\n      jumpi\n      dup3\n      swap1\n      sub\n      0x1f\n      and\n      dup3\n      add\n      swap2\n    tag_93:\n      pop\n      pop\n      pop\n      pop\n      pop\n      dup2\n      mstore\n      0x20\n      add\n      0x01\n      dup3\n      add\n      0x00\n      swap1\n      sload\n      swap1\n      0x0100\n      exp\n      swap1\n      div\n      0xffffffffffffffffffffffffffffffffffffffff\n      and\n      0xffffffffffffffffffffffffffffffffffffffff\n      and\n      0xffffffffffffffffffffffffffffffffffffffff\n      and\n      dup2\n      mstore\n      0x20\n      add\n      0x02\n      dup3\n      add\n      dup1\n      sload\n      dup1\n      0x20\n      mul\n      0x20\n      add\n      mload(0x40)\n      swap1\n      dup2\n      add\n      0x40\n      mstore\n      dup1\n      swap3\n      swap2\n      swap1\n      dup2\n      dup2\n      mstore\n      0x20\n      add\n      dup3\n      dup1\n      sload\n      dup1\n      iszero\n      tag_96\n      jumpi\n      0x20\n      mul\n      dup3\n      add\n      swap2\n      swap1\n      0x00\n      mstore\n      keccak256(0x00, 0x20)\n      swap1\n    tag_97:\n      dup2\n      0x00\n      swap1\n      sload\n      swap1\n      0x0100\n      exp\n      swap1\n      div\n      0xffffffffffffffffffffffffffffffffffffffff\n      and\n      0xffffffffffffffffffffffffffffffffffffffff\n      and\n      dup2\n      mstore\n      0x20\n      add\n      swap1\n      0x01\n      add\n      swap1\n      dup1\n      dup4\n      gt\n      tag_97\n      jumpi\n    tag_96:\n      pop\n      pop\n      pop\n      pop\n      pop\n      dup2\n      mstore\n      0x20\n      add\n      0x03\n      dup3\n      add\n      0x00\n      swap1\n      sload\n      swap1\n      0x0100\n      exp\n      swap1\n      div\n      0xffffffff\n      and\n      0xffffffff\n      and\n      0xffffffff\n      and\n      dup2\n      mstore\n      0x20\n      add\n      0x03\n      dup3\n      add\n      0x04\n      swap1\n      sload\n      swap1\n      0x0100\n      exp\n      swap1\n      div\n      0xffffffff\n      and\n      0xffffffff\n      and\n      0xffffffff\n      and\n      dup2\n      mstore\n      0x20\n      add\n      0x03\n      dup3\n      add\n      0x08\n      swap1\n      sload\n      swap1\n      0x0100\n      exp\n      swap1\n      div\n      0xff\n      and\n      iszero\n      iszero\n      iszero\n      iszero\n      dup2\n      mstore\n      pop\n      pop\n      swap1\n      pop\n        /* \"src/voting.sol\":4420:4525  function getVotePollProps(uint _id) public view returns(VotingPoll memory){... */\n      swap2\n      swap1\n      pop\n      jump\t// out\n        /* \"src/voting.sol\":3332:3490  function NoOfRegisteredCandidates( uint _id) public view returns(uint){... */\n    tag_28:\n        /* \"src/voting.sol\":3397:3401  uint */\n      0x00\n        /* \"src/voting.sol\":3409:3430  VotingPoll storage VP */\n      dup1\n        /* \"src/voting.sol\":3433:3443  votingPoll */\n      0x02\n        /* \"src/voting.sol\":3433:3448  votingPoll[_id] */\n      0x00\n        /* \"src/voting.sol\":3444:3447  _id */\n      dup5\n        /* \"src/voting.sol\":3433:3448  votingPoll[_id] */\n      dup2\n      mstore\n      0x20\n      add\n      swap1\n      dup2\n      mstore\n      0x20\n      add\n      0x00\n      keccak256\n        /* \"src/voting.sol\":3409:3448  VotingPoll storage VP = votingPoll[_id] */\n      swap1\n      pop\n        /* \"src/voting.sol\":3462:3464  VP */\n      dup1\n        /* \"src/voting.sol\":3462:3486  VP.currentNoOfCandidates */\n      0x03\n      add\n      0x04\n      swap1\n      sload\n      swap1\n      0x0100\n      exp\n      swap1\n      div\n      0xffffffff\n      and\n        /* \"src/voting.sol\":3455:3486  return VP.currentNoOfCandidates */\n      0xffffffff\n      and\n      swap2\n      pop\n      pop\n        /* \"src/voting.sol\":3332:3490  function NoOfRegisteredCandidates( uint _id) public view returns(uint){... */\n      swap2\n      swap1\n      pop\n      jump\t// out\n        /* \"src/voting.sol\":590:637  mapping (address => uint256) public replayNonce */\n    tag_34:\n      mstore(0x20, 0x03)\n      dup1\n      0x00\n      mstore\n      keccak256(0x00, 0x40)\n      0x00\n      swap2\n      pop\n      swap1\n      pop\n      sload\n      dup2\n      jump\t// out\n        /* \"src/voting.sol\":3495:3655  function AllCandidates( uint _id) public view returns(address[] memory _candidates){... */\n    tag_38:\n        /* \"src/voting.sol\":3549:3577  address[] memory _candidates */\n      0x60\n        /* \"src/voting.sol\":3585:3606  VotingPoll storage VP */\n      0x00\n        /* \"src/voting.sol\":3609:3619  votingPoll */\n      0x02\n        /* \"src/voting.sol\":3609:3624  votingPoll[_id] */\n      0x00\n        /* \"src/voting.sol\":3620:3623  _id */\n      dup5\n        /* \"src/voting.sol\":3609:3624  votingPoll[_id] */\n      dup2\n      mstore\n      0x20\n      add\n      swap1\n      dup2\n      mstore\n      0x20\n      add\n      0x00\n      keccak256\n        /* \"src/voting.sol\":3585:3624  VotingPoll storage VP = votingPoll[_id] */\n      swap1\n      pop\n        /* \"src/voting.sol\":3638:3640  VP */\n      dup1\n        /* \"src/voting.sol\":3638:3651  VP.candidates */\n      0x02\n      add\n        /* \"src/voting.sol\":3631:3651  return VP.candidates */\n      dup1\n      sload\n      dup1\n      0x20\n      mul\n      0x20\n      add\n      mload(0x40)\n      swap1\n      dup2\n      add\n      0x40\n      mstore\n      dup1\n      swap3\n      swap2\n      swap1\n      dup2\n      dup2\n      mstore\n      0x20\n      add\n      dup3\n      dup1\n      sload\n      dup1\n      iszero\n      tag_100\n      jumpi\n      0x20\n      mul\n      dup3\n      add\n      swap2\n      swap1\n      0x00\n      mstore\n      keccak256(0x00, 0x20)\n      swap1\n    tag_101:\n      dup2\n      0x00\n      swap1\n      sload\n      swap1\n      0x0100\n      exp\n      swap1\n      div\n      0xffffffffffffffffffffffffffffffffffffffff\n      and\n      0xffffffffffffffffffffffffffffffffffffffff\n      and\n      dup2\n      mstore\n      0x20\n      add\n      swap1\n      0x01\n      add\n      swap1\n      dup1\n      dup4\n      gt\n      tag_101\n      jumpi\n    tag_100:\n      pop\n      pop\n      pop\n      pop\n      pop\n      swap2\n      pop\n      pop\n        /* \"src/voting.sol\":3495:3655  function AllCandidates( uint _id) public view returns(address[] memory _candidates){... */\n      swap2\n      swap1\n      pop\n      jump\t// out\n        /* \"src/voting.sol\":3658:4237  function revealWinner( uint _id) external view returns ( uint[] memory CV, address, uint){... */\n    tag_43:\n        /* \"src/voting.sol\":3715:3731  uint[] memory CV */\n      0x60\n        /* \"src/voting.sol\":3733:3740  address */\n      0x00\n        /* \"src/voting.sol\":3742:3746  uint */\n      dup1\n        /* \"src/voting.sol\":3754:3775  VotingPoll storage VP */\n      0x00\n        /* \"src/voting.sol\":3778:3788  votingPoll */\n      0x02\n        /* \"src/voting.sol\":3778:3793  votingPoll[_id] */\n      0x00\n        /* \"src/voting.sol\":3789:3792  _id */\n      dup7\n        /* \"src/voting.sol\":3778:3793  votingPoll[_id] */\n      dup2\n      mstore\n      0x20\n      add\n      swap1\n      dup2\n      mstore\n      0x20\n      add\n      0x00\n      keccak256\n        /* \"src/voting.sol\":3754:3793  VotingPoll storage VP = votingPoll[_id] */\n      swap1\n      pop\n        /* \"src/voting.sol\":3831:3832  0 */\n      0x00\n        /* \"src/voting.sol\":3808:3833  VP.chairman != address(0) */\n      0xffffffffffffffffffffffffffffffffffffffff\n      and\n        /* \"src/voting.sol\":3808:3810  VP */\n      dup2\n        /* \"src/voting.sol\":3808:3819  VP.chairman */\n      0x01\n      add\n      0x00\n      swap1\n      sload\n      swap1\n      0x0100\n      exp\n      swap1\n      div\n      0xffffffffffffffffffffffffffffffffffffffff\n      and\n        /* \"src/voting.sol\":3808:3833  VP.chairman != address(0) */\n      0xffffffffffffffffffffffffffffffffffffffff\n      and\n      eq\n      iszero\n        /* \"src/voting.sol\":3800:3853  require(VP.chairman != address(0), \"No poll created\") */\n      tag_103\n      jumpi\n      mload(0x40)\n      0x08c379a000000000000000000000000000000000000000000000000000000000\n      dup2\n      mstore\n      0x04\n      add\n      tag_104\n      swap1\n      tag_105\n      jump\t// in\n    tag_104:\n      mload(0x40)\n      dup1\n      swap2\n      sub\n      swap1\n      revert\n    tag_103:\n        /* \"src/voting.sol\":3876:3878  VP */\n      dup1\n        /* \"src/voting.sol\":3876:3889  VP.candidates */\n      0x02\n      add\n        /* \"src/voting.sol\":3876:3896  VP.candidates.length */\n      dup1\n      sload\n      swap1\n      pop\n        /* \"src/voting.sol\":3865:3897  new uint[](VP.candidates.length) */\n      0xffffffffffffffff\n      dup2\n      gt\n      iszero\n      tag_106\n      jumpi\n      tag_107\n      tag_108\n      jump\t// in\n    tag_107:\n    tag_106:\n      mload(0x40)\n      swap1\n      dup1\n      dup3\n      mstore\n      dup1\n      0x20\n      mul\n      0x20\n      add\n      dup3\n      add\n      0x40\n      mstore\n      dup1\n      iszero\n      tag_109\n      jumpi\n      dup2\n      0x20\n      add\n      0x20\n      dup3\n      mul\n      dup1\n      calldatasize\n      dup4\n      calldatacopy\n      dup1\n      dup3\n      add\n      swap2\n      pop\n      pop\n      swap1\n      pop\n    tag_109:\n      pop\n        /* \"src/voting.sol\":3860:3897  CV = new uint[](VP.candidates.length) */\n      swap4\n      pop\n        /* \"src/voting.sol\":3904:3920  uint highestVote */\n      0x00\n        /* \"src/voting.sol\":3927:3941  address winner */\n      dup1\n        /* \"src/voting.sol\":3953:3959  uint i */\n      0x00\n        /* \"src/voting.sol\":3948:4195  for (uint i = 0; i < VP.candidates.length; i++){... */\n    tag_110:\n        /* \"src/voting.sol\":3969:3971  VP */\n      dup4\n        /* \"src/voting.sol\":3969:3982  VP.candidates */\n      0x02\n      add\n        /* \"src/voting.sol\":3969:3989  VP.candidates.length */\n      dup1\n      sload\n      swap1\n      pop\n        /* \"src/voting.sol\":3965:3966  i */\n      dup2\n        /* \"src/voting.sol\":3965:3989  i < VP.candidates.length */\n      lt\n        /* \"src/voting.sol\":3948:4195  for (uint i = 0; i < VP.candidates.length; i++){... */\n      iszero\n      tag_111\n      jumpi\n        /* \"src/voting.sol\":4004:4012  uint val */\n      0x00\n        /* \"src/voting.sol\":4015:4033  getPosition(_id,i) */\n      tag_113\n        /* \"src/voting.sol\":4027:4030  _id */\n      dup10\n        /* \"src/voting.sol\":4031:4032  i */\n      dup4\n        /* \"src/voting.sol\":4015:4026  getPosition */\n      tag_114\n        /* \"src/voting.sol\":4015:4033  getPosition(_id,i) */\n      jump\t// in\n    tag_113:\n        /* \"src/voting.sol\":4004:4033  uint val = getPosition(_id,i) */\n      swap1\n      pop\n        /* \"src/voting.sol\":4049:4060  highestVote */\n      dup4\n        /* \"src/voting.sol\":4043:4046  val */\n      dup2\n        /* \"src/voting.sol\":4043:4060  val > highestVote */\n      gt\n        /* \"src/voting.sol\":4040:4134  if(val > highestVote){... */\n      iszero\n      tag_115\n      jumpi\n        /* \"src/voting.sol\":4086:4089  val */\n      dup1\n        /* \"src/voting.sol\":4072:4089  highestVote = val */\n      swap4\n      pop\n        /* \"src/voting.sol\":4110:4112  VP */\n      dup5\n        /* \"src/voting.sol\":4110:4123  VP.candidates */\n      0x02\n      add\n        /* \"src/voting.sol\":4124:4125  i */\n      dup3\n        /* \"src/voting.sol\":4110:4126  VP.candidates[i] */\n      dup2\n      sload\n      dup2\n      lt\n      tag_116\n      jumpi\n      tag_117\n      tag_118\n      jump\t// in\n    tag_117:\n    tag_116:\n      swap1\n      0x00\n      mstore\n      keccak256(0x00, 0x20)\n      add\n      0x00\n      swap1\n      sload\n      swap1\n      0x0100\n      exp\n      swap1\n      div\n      0xffffffffffffffffffffffffffffffffffffffff\n      and\n        /* \"src/voting.sol\":4101:4126  winner = VP.candidates[i] */\n      swap3\n      pop\n        /* \"src/voting.sol\":4040:4134  if(val > highestVote){... */\n    tag_115:\n        /* \"src/voting.sol\":4149:4162  CandidateVote */\n      0x05\n        /* \"src/voting.sol\":4149:4167  CandidateVote[_id] */\n      0x00\n        /* \"src/voting.sol\":4163:4166  _id */\n      dup11\n        /* \"src/voting.sol\":4149:4167  CandidateVote[_id] */\n      dup2\n      mstore\n      0x20\n      add\n      swap1\n      dup2\n      mstore\n      0x20\n      add\n      0x00\n      keccak256\n        /* \"src/voting.sol\":4149:4185  CandidateVote[_id][VP.candidates[i]] */\n      0x00\n        /* \"src/voting.sol\":4168:4170  VP */\n      dup7\n        /* \"src/voting.sol\":4168:4181  VP.candidates */\n      0x02\n      add\n        /* \"src/voting.sol\":4182:4183  i */\n      dup5\n        /* \"src/voting.sol\":4168:4184  VP.candidates[i] */\n      dup2\n      sload\n      dup2\n      lt\n      tag_120\n      jumpi\n      tag_121\n      tag_118\n      jump\t// in\n    tag_121:\n    tag_120:\n      swap1\n      0x00\n      mstore\n      keccak256(0x00, 0x20)\n      add\n      0x00\n      swap1\n      sload\n      swap1\n      0x0100\n      exp\n      swap1\n      div\n      0xffffffffffffffffffffffffffffffffffffffff\n      and\n        /* \"src/voting.sol\":4149:4185  CandidateVote[_id][VP.candidates[i]] */\n      0xffffffffffffffffffffffffffffffffffffffff\n      and\n      0xffffffffffffffffffffffffffffffffffffffff\n      and\n      dup2\n      mstore\n      0x20\n      add\n      swap1\n      dup2\n      mstore\n      0x20\n      add\n      0x00\n      keccak256\n      sload\n        /* \"src/voting.sol\":4140:4142  CV */\n      dup9\n        /* \"src/voting.sol\":4143:4144  i */\n      dup4\n        /* \"src/voting.sol\":4140:4145  CV[i] */\n      dup2\n      mload\n      dup2\n      lt\n      tag_123\n      jumpi\n      tag_124\n      tag_118\n      jump\t// in\n    tag_124:\n    tag_123:\n      0x20\n      mul\n      0x20\n      add\n      add\n        /* \"src/voting.sol\":4140:4186  CV[i] = (CandidateVote[_id][VP.candidates[i]]) */\n      dup2\n      dup2\n      mstore\n      pop\n      pop\n        /* \"src/voting.sol\":3995:4195  {... */\n      pop\n        /* \"src/voting.sol\":3991:3994  i++ */\n      dup1\n      dup1\n      tag_125\n      swap1\n      tag_126\n      jump\t// in\n    tag_125:\n      swap2\n      pop\n      pop\n        /* \"src/voting.sol\":3948:4195  for (uint i = 0; i < VP.candidates.length; i++){... */\n      jump(tag_110)\n    tag_111:\n      pop\n        /* \"src/voting.sol\":4209:4211  CV */\n      dup6\n        /* \"src/voting.sol\":4213:4219  winner */\n      dup2\n        /* \"src/voting.sol\":4221:4232  highestVote */\n      dup4\n        /* \"src/voting.sol\":4201:4233  return (CV, winner, highestVote) */\n      swap6\n      pop\n      swap6\n      pop\n      swap6\n      pop\n      pop\n      pop\n      pop\n        /* \"src/voting.sol\":3658:4237  function revealWinner( uint _id) external view returns ( uint[] memory CV, address, uint){... */\n      swap2\n      swap4\n      swap1\n      swap3\n      pop\n      jump\t// out\n        /* \"src/voting.sol\":459:482  uint[] public VotingKey */\n    tag_48:\n      0x01\n      dup2\n      dup2\n      sload\n      dup2\n      lt\n      tag_127\n      jumpi\n      0x00\n      dup1\n      revert\n    tag_127:\n      swap1\n      0x00\n      mstore\n      keccak256(0x00, 0x20)\n      add\n      0x00\n      swap2\n      pop\n      swap1\n      pop\n      sload\n      dup2\n      jump\t// out\n        /* \"src/voting.sol\":4536:4751  function metaVotingHash(address Cand, uint _id, uint256 nonce, uint256 time) public view returns(bytes32){... */\n    tag_53:\n        /* \"src/voting.sol\":4633:4640  bytes32 */\n      0x00\n        /* \"src/voting.sol\":4689:4693  this */\n      address\n        /* \"src/voting.sol\":4722:4726  Cand */\n      dup6\n        /* \"src/voting.sol\":4728:4731  _id */\n      dup6\n        /* \"src/voting.sol\":4733:4738  nonce */\n      dup6\n        /* \"src/voting.sol\":4740:4744  time */\n      dup6\n        /* \"src/voting.sol\":4664:4745  abi.encodePacked(address(this),\"metatransaction Voting \", Cand, _id, nonce, time) */\n      add(0x20, mload(0x40))\n      tag_130\n      swap6\n      swap5\n      swap4\n      swap3\n      swap2\n      swap1\n      tag_131\n      jump\t// in\n    tag_130:\n      mload(0x40)\n      0x20\n      dup2\n      dup4\n      sub\n      sub\n      dup2\n      mstore\n      swap1\n      0x40\n      mstore\n        /* \"src/voting.sol\":4654:4746  keccak256(abi.encodePacked(address(this),\"metatransaction Voting \", Cand, _id, nonce, time)) */\n      dup1\n      mload\n      swap1\n      0x20\n      add\n      keccak256\n        /* \"src/voting.sol\":4647:4746  return keccak256(abi.encodePacked(address(this),\"metatransaction Voting \", Cand, _id, nonce, time)) */\n      swap1\n      pop\n        /* \"src/voting.sol\":4536:4751  function metaVotingHash(address Cand, uint _id, uint256 nonce, uint256 time) public view returns(bytes32){... */\n      swap5\n      swap4\n      pop\n      pop\n      pop\n      pop\n      jump\t// out\n        /* \"src/voting.sol\":2417:2908  function vote(address Cand, uint _id, uint256 nonce, bytes memory signature) external  isCandidate(Cand, _id) StillVoting(_id){... */\n    tag_59:\n        /* \"src/voting.sol\":2516:2520  Cand */\n      dup4\n        /* \"src/voting.sol\":2522:2525  _id */\n      dup4\n        /* \"src/voting.sol\":1252:1256  true */\n      0x01\n        /* \"src/voting.sol\":1224:1256  CandidateStatus[_id][Cand]==true */\n      iszero\n      iszero\n        /* \"src/voting.sol\":1224:1239  CandidateStatus */\n      0x04\n        /* \"src/voting.sol\":1224:1244  CandidateStatus[_id] */\n      0x00\n        /* \"src/voting.sol\":1240:1243  _id */\n      dup4\n        /* \"src/voting.sol\":1224:1244  CandidateStatus[_id] */\n      dup2\n      mstore\n      0x20\n      add\n      swap1\n      dup2\n      mstore\n      0x20\n      add\n      0x00\n      keccak256\n        /* \"src/voting.sol\":1224:1250  CandidateStatus[_id][Cand] */\n      0x00\n        /* \"src/voting.sol\":1245:1249  Cand */\n      dup5\n        /* \"src/voting.sol\":1224:1250  CandidateStatus[_id][Cand] */\n      0xffffffffffffffffffffffffffffffffffffffff\n      and\n      0xffffffffffffffffffffffffffffffffffffffff\n      and\n      dup2\n      mstore\n      0x20\n      add\n      swap1\n      dup2\n      mstore\n      0x20\n      add\n      0x00\n      keccak256\n      0x00\n      swap1\n      sload\n      swap1\n      0x0100\n      exp\n      swap1\n      div\n      0xff\n      and\n        /* \"src/voting.sol\":1224:1256  CandidateStatus[_id][Cand]==true */\n      iszero\n      iszero\n      eq\n        /* \"src/voting.sol\":1216:1302  require(CandidateStatus[_id][Cand]==true,'This address does not exist as a candidate') */\n      tag_133\n      jumpi\n      mload(0x40)\n      0x08c379a000000000000000000000000000000000000000000000000000000000\n      dup2\n      mstore\n      0x04\n      add\n      tag_134\n      swap1\n      tag_135\n      jump\t// in\n    tag_134:\n      mload(0x40)\n      dup1\n      swap2\n      sub\n      swap1\n      revert\n    tag_133:\n        /* \"src/voting.sol\":2539:2542  _id */\n      dup5\n        /* \"src/voting.sol\":1352:1373  VotingPoll storage VP */\n      0x00\n        /* \"src/voting.sol\":1376:1386  votingPoll */\n      0x02\n        /* \"src/voting.sol\":1376:1391  votingPoll[_id] */\n      0x00\n        /* \"src/voting.sol\":1387:1390  _id */\n      dup4\n        /* \"src/voting.sol\":1376:1391  votingPoll[_id] */\n      dup2\n      mstore\n      0x20\n      add\n      swap1\n      dup2\n      mstore\n      0x20\n      add\n      0x00\n      keccak256\n        /* \"src/voting.sol\":1352:1391  VotingPoll storage VP = votingPoll[_id] */\n      swap1\n      pop\n        /* \"src/voting.sol\":1418:1422  true */\n      0x01\n        /* \"src/voting.sol\":1405:1422  VP.voting == true */\n      iszero\n      iszero\n        /* \"src/voting.sol\":1405:1407  VP */\n      dup2\n        /* \"src/voting.sol\":1405:1414  VP.voting */\n      0x03\n      add\n      0x08\n      swap1\n      sload\n      swap1\n      0x0100\n      exp\n      swap1\n      div\n      0xff\n      and\n        /* \"src/voting.sol\":1405:1422  VP.voting == true */\n      iszero\n      iszero\n      eq\n        /* \"src/voting.sol\":1397:1443  require(VP.voting == true, \"voting has ended\") */\n      tag_137\n      jumpi\n      mload(0x40)\n      0x08c379a000000000000000000000000000000000000000000000000000000000\n      dup2\n      mstore\n      0x04\n      add\n      tag_138\n      swap1\n      tag_139\n      jump\t// in\n    tag_138:\n      mload(0x40)\n      dup1\n      swap2\n      sub\n      swap1\n      revert\n    tag_137:\n        /* \"src/voting.sol\":2550:2566  bytes32 metaHash */\n      0x00\n        /* \"src/voting.sol\":2569:2615  metaVotingHash(Cand,_id,nonce,block.timestamp) */\n      tag_141\n        /* \"src/voting.sol\":2584:2588  Cand */\n      dup10\n        /* \"src/voting.sol\":2589:2592  _id */\n      dup10\n        /* \"src/voting.sol\":2593:2598  nonce */\n      dup10\n        /* \"src/voting.sol\":2599:2614  block.timestamp */\n      timestamp\n        /* \"src/voting.sol\":2569:2583  metaVotingHash */\n      tag_53\n        /* \"src/voting.sol\":2569:2615  metaVotingHash(Cand,_id,nonce,block.timestamp) */\n      jump\t// in\n    tag_141:\n        /* \"src/voting.sol\":2550:2615  bytes32 metaHash = metaVotingHash(Cand,_id,nonce,block.timestamp) */\n      swap1\n      pop\n        /* \"src/voting.sol\":2622:2636  address signer */\n      0x00\n        /* \"src/voting.sol\":2639:2668  getSigner(metaHash,signature) */\n      tag_142\n        /* \"src/voting.sol\":2649:2657  metaHash */\n      dup3\n        /* \"src/voting.sol\":2658:2667  signature */\n      dup9\n        /* \"src/voting.sol\":2639:2648  getSigner */\n      tag_143\n        /* \"src/voting.sol\":2639:2668  getSigner(metaHash,signature) */\n      jump\t// in\n    tag_142:\n        /* \"src/voting.sol\":2622:2668  address signer = getSigner(metaHash,signature) */\n      swap1\n      pop\n        /* \"src/voting.sol\":2699:2700  0 */\n      0x00\n        /* \"src/voting.sol\":2683:2701  signer!=address(0) */\n      0xffffffffffffffffffffffffffffffffffffffff\n      and\n        /* \"src/voting.sol\":2683:2689  signer */\n      dup2\n        /* \"src/voting.sol\":2683:2701  signer!=address(0) */\n      0xffffffffffffffffffffffffffffffffffffffff\n      and\n      eq\n      iszero\n        /* \"src/voting.sol\":2675:2702  require(signer!=address(0)) */\n      tag_144\n      jumpi\n      0x00\n      dup1\n      revert\n    tag_144:\n        /* \"src/voting.sol\":2725:2736  replayNonce */\n      0x03\n        /* \"src/voting.sol\":2725:2744  replayNonce[signer] */\n      0x00\n        /* \"src/voting.sol\":2737:2743  signer */\n      dup3\n        /* \"src/voting.sol\":2725:2744  replayNonce[signer] */\n      0xffffffffffffffffffffffffffffffffffffffff\n      and\n      0xffffffffffffffffffffffffffffffffffffffff\n      and\n      dup2\n      mstore\n      0x20\n      add\n      swap1\n      dup2\n      mstore\n      0x20\n      add\n      0x00\n      keccak256\n      sload\n        /* \"src/voting.sol\":2716:2721  nonce */\n      dup9\n        /* \"src/voting.sol\":2716:2744  nonce == replayNonce[signer] */\n      eq\n        /* \"src/voting.sol\":2708:2745  require(nonce == replayNonce[signer]) */\n      tag_145\n      jumpi\n      0x00\n      dup1\n      revert\n    tag_145:\n        /* \"src/voting.sol\":2751:2762  replayNonce */\n      0x03\n        /* \"src/voting.sol\":2751:2770  replayNonce[signer] */\n      0x00\n        /* \"src/voting.sol\":2763:2769  signer */\n      dup3\n        /* \"src/voting.sol\":2751:2770  replayNonce[signer] */\n      0xffffffffffffffffffffffffffffffffffffffff\n      and\n      0xffffffffffffffffffffffffffffffffffffffff\n      and\n      dup2\n      mstore\n      0x20\n      add\n      swap1\n      dup2\n      mstore\n      0x20\n      add\n      0x00\n      keccak256\n      0x00\n        /* \"src/voting.sol\":2751:2772  replayNonce[signer]++ */\n      dup2\n      sload\n      dup1\n      swap3\n      swap2\n      swap1\n      tag_146\n      swap1\n      tag_126\n      jump\t// in\n    tag_146:\n      swap2\n      swap1\n      pop\n      sstore\n      pop\n        /* \"src/voting.sol\":2812:2817  false */\n      0x00\n        /* \"src/voting.sol\":2787:2817  hasVoted[_id][signer] == false */\n      iszero\n      iszero\n        /* \"src/voting.sol\":2787:2795  hasVoted */\n      0x06\n        /* \"src/voting.sol\":2787:2800  hasVoted[_id] */\n      0x00\n        /* \"src/voting.sol\":2796:2799  _id */\n      dup12\n        /* \"src/voting.sol\":2787:2800  hasVoted[_id] */\n      dup2\n      mstore\n      0x20\n      add\n      swap1\n      dup2\n      mstore\n      0x20\n      add\n      0x00\n      keccak256\n        /* \"src/voting.sol\":2787:2808  hasVoted[_id][signer] */\n      0x00\n        /* \"src/voting.sol\":2801:2807  signer */\n      dup4\n        /* \"src/voting.sol\":2787:2808  hasVoted[_id][signer] */\n      0xffffffffffffffffffffffffffffffffffffffff\n      and\n      0xffffffffffffffffffffffffffffffffffffffff\n      and\n      dup2\n      mstore\n      0x20\n      add\n      swap1\n      dup2\n      mstore\n      0x20\n      add\n      0x00\n      keccak256\n      0x00\n      swap1\n      sload\n      swap1\n      0x0100\n      exp\n      swap1\n      div\n      0xff\n      and\n        /* \"src/voting.sol\":2787:2817  hasVoted[_id][signer] == false */\n      iszero\n      iszero\n      eq\n        /* \"src/voting.sol\":2779:2839  require(hasVoted[_id][signer] == false, \"You already voted\") */\n      tag_147\n      jumpi\n      mload(0x40)\n      0x08c379a000000000000000000000000000000000000000000000000000000000\n      dup2\n      mstore\n      0x04\n      add\n      tag_148\n      swap1\n      tag_149\n      jump\t// in\n    tag_148:\n      mload(0x40)\n      dup1\n      swap2\n      sub\n      swap1\n      revert\n    tag_147:\n        /* \"src/voting.sol\":2846:2874  countVote(Cand, _id, signer) */\n      tag_150\n        /* \"src/voting.sol\":2856:2860  Cand */\n      dup11\n        /* \"src/voting.sol\":2862:2865  _id */\n      dup11\n        /* \"src/voting.sol\":2867:2873  signer */\n      dup4\n        /* \"src/voting.sol\":2846:2855  countVote */\n      tag_151\n        /* \"src/voting.sol\":2846:2874  countVote(Cand, _id, signer) */\n      jump\t// in\n    tag_150:\n      pop\n        /* \"src/voting.sol\":2886:2903  voted(Cand, true) */\n      0xf3f16a15f074b71c5138107dfc7c63b80524d5411cb967caa97d8d9f12b2fd6b\n        /* \"src/voting.sol\":2892:2896  Cand */\n      dup11\n        /* \"src/voting.sol\":2898:2902  true */\n      0x01\n        /* \"src/voting.sol\":2886:2903  voted(Cand, true) */\n      mload(0x40)\n      tag_152\n      swap3\n      swap2\n      swap1\n      tag_153\n      jump\t// in\n    tag_152:\n      mload(0x40)\n      dup1\n      swap2\n      sub\n      swap1\n      log1\n        /* \"src/voting.sol\":2543:2908  {... */\n      pop\n      pop\n        /* \"src/voting.sol\":1346:1454  {... */\n      pop\n        /* \"src/voting.sol\":1308:1309  _ */\n      pop\n        /* \"src/voting.sol\":2417:2908  function vote(address Cand, uint _id, uint256 nonce, bytes memory signature) external  isCandidate(Cand, _id) StillVoting(_id){... */\n      pop\n      pop\n      pop\n      pop\n      pop\n      pop\n      jump\t// out\n        /* \"src/voting.sol\":3107:3329  function setVotingState( uint _id) external {... */\n    tag_62:\n        /* \"src/voting.sol\":3157:3178  VotingPoll storage VP */\n      0x00\n        /* \"src/voting.sol\":3181:3191  votingPoll */\n      0x02\n        /* \"src/voting.sol\":3181:3196  votingPoll[_id] */\n      0x00\n        /* \"src/voting.sol\":3192:3195  _id */\n      dup4\n        /* \"src/voting.sol\":3181:3196  votingPoll[_id] */\n      dup2\n      mstore\n      0x20\n      add\n      swap1\n      dup2\n      mstore\n      0x20\n      add\n      0x00\n      keccak256\n        /* \"src/voting.sol\":3157:3196  VotingPoll storage VP = votingPoll[_id] */\n      swap1\n      pop\n        /* \"src/voting.sol\":3225:3235  msg.sender */\n      caller\n        /* \"src/voting.sol\":3210:3235  VP.chairman == msg.sender */\n      0xffffffffffffffffffffffffffffffffffffffff\n      and\n        /* \"src/voting.sol\":3210:3212  VP */\n      dup2\n        /* \"src/voting.sol\":3210:3221  VP.chairman */\n      0x01\n      add\n      0x00\n      swap1\n      sload\n      swap1\n      0x0100\n      exp\n      swap1\n      div\n      0xffffffffffffffffffffffffffffffffffffffff\n      and\n        /* \"src/voting.sol\":3210:3235  VP.chairman == msg.sender */\n      0xffffffffffffffffffffffffffffffffffffffff\n      and\n      eq\n        /* \"src/voting.sol\":3202:3256  require(VP.chairman == msg.sender, \"not the chairman\") */\n      tag_155\n      jumpi\n      mload(0x40)\n      0x08c379a000000000000000000000000000000000000000000000000000000000\n      dup2\n      mstore\n      0x04\n      add\n      tag_156\n      swap1\n      tag_157\n      jump\t// in\n    tag_156:\n      mload(0x40)\n      dup1\n      swap2\n      sub\n      swap1\n      revert\n    tag_155:\n        /* \"src/voting.sol\":3282:3284  VP */\n      dup1\n        /* \"src/voting.sol\":3282:3291  VP.voting */\n      0x03\n      add\n      0x08\n      swap1\n      sload\n      swap1\n      0x0100\n      exp\n      swap1\n      div\n      0xff\n      and\n        /* \"src/voting.sol\":3280:3292  !(VP.voting) */\n      iszero\n        /* \"src/voting.sol\":3268:3270  VP */\n      dup2\n        /* \"src/voting.sol\":3268:3277  VP.voting */\n      0x03\n      add\n      0x08\n        /* \"src/voting.sol\":3268:3292  VP.voting = !(VP.voting) */\n      0x0100\n      exp\n      dup2\n      sload\n      dup2\n      0xff\n      mul\n      not\n      and\n      swap1\n      dup4\n      iszero\n      iszero\n      mul\n      or\n      swap1\n      sstore\n      pop\n        /* \"src/voting.sol\":3315:3317  VP */\n      dup1\n        /* \"src/voting.sol\":3315:3324  VP.voting */\n      0x03\n      add\n      0x08\n      swap1\n      sload\n      swap1\n      0x0100\n      exp\n      swap1\n      div\n      0xff\n      and\n        /* \"src/voting.sol\":3304:3325  voteStatus(VP.voting) */\n      iszero\n      iszero\n      0x7b224db641892626dca6975b376f464e9ac52ccfa180436175170c009b94dcd7\n      mload(0x40)\n      mload(0x40)\n      dup1\n      swap2\n      sub\n      swap1\n      log2\n        /* \"src/voting.sol\":3151:3329  {... */\n      pop\n        /* \"src/voting.sol\":3107:3329  function setVotingState( uint _id) external {... */\n      pop\n      jump\t// out\n        /* \"src/voting.sol\":543:588  mapping(uint => VotingPoll) public votingPoll */\n    tag_65:\n      mstore(0x20, 0x02)\n      dup1\n      0x00\n      mstore\n      keccak256(0x00, 0x40)\n      0x00\n      swap2\n      pop\n      swap1\n      pop\n      dup1\n      0x00\n      add\n      dup1\n      sload\n      tag_158\n      swap1\n      tag_91\n      jump\t// in\n    tag_158:\n      dup1\n      0x1f\n      add\n      0x20\n      dup1\n      swap2\n      div\n      mul\n      0x20\n      add\n      mload(0x40)\n      swap1\n      dup2\n      add\n      0x40\n      mstore\n      dup1\n      swap3\n      swap2\n      swap1\n      dup2\n      dup2\n      mstore\n      0x20\n      add\n      dup3\n      dup1\n      sload\n      tag_159\n      swap1\n      tag_91\n      jump\t// in\n    tag_159:\n      dup1\n      iszero\n      tag_160\n      jumpi\n      dup1\n      0x1f\n      lt\n      tag_161\n      jumpi\n      0x0100\n      dup1\n      dup4\n      sload\n      div\n      mul\n      dup4\n      mstore\n      swap2\n      0x20\n      add\n      swap2\n      jump(tag_160)\n    tag_161:\n      dup3\n      add\n      swap2\n      swap1\n      0x00\n      mstore\n      keccak256(0x00, 0x20)\n      swap1\n    tag_162:\n      dup2\n      sload\n      dup2\n      mstore\n      swap1\n      0x01\n      add\n      swap1\n      0x20\n      add\n      dup1\n      dup4\n      gt\n      tag_162\n      jumpi\n      dup3\n      swap1\n      sub\n      0x1f\n      and\n      dup3\n      add\n      swap2\n    tag_160:\n      pop\n      pop\n      pop\n      pop\n      pop\n      swap1\n      dup1\n      0x01\n      add\n      0x00\n      swap1\n      sload\n      swap1\n      0x0100\n      exp\n      swap1\n      div\n      0xffffffffffffffffffffffffffffffffffffffff\n      and\n      swap1\n      dup1\n      0x03\n      add\n      0x00\n      swap1\n      sload\n      swap1\n      0x0100\n      exp\n      swap1\n      div\n      0xffffffff\n      and\n      swap1\n      dup1\n      0x03\n      add\n      0x04\n      swap1\n      sload\n      swap1\n      0x0100\n      exp\n      swap1\n      div\n      0xffffffff\n      and\n      swap1\n      dup1\n      0x03\n      add\n      0x08\n      swap1\n      sload\n      swap1\n      0x0100\n      exp\n      swap1\n      div\n      0xff\n      and\n      swap1\n      pop\n      dup6\n      jump\t// out\n        /* \"src/voting.sol\":1590:1909  function createPoll(string memory _name, uint32 ExpectedNoOfCandidate) external {... */\n    tag_71:\n        /* \"src/voting.sol\":1676:1697  VotingPoll storage VP */\n      0x00\n        /* \"src/voting.sol\":1700:1710  votingPoll */\n      0x02\n        /* \"src/voting.sol\":1700:1714  votingPoll[id] */\n      0x00\n        /* \"src/voting.sol\":1711:1713  id */\n      dup1\n      sload\n        /* \"src/voting.sol\":1700:1714  votingPoll[id] */\n      dup2\n      mstore\n      0x20\n      add\n      swap1\n      dup2\n      mstore\n      0x20\n      add\n      0x00\n      keccak256\n        /* \"src/voting.sol\":1676:1714  VotingPoll storage VP = votingPoll[id] */\n      swap1\n      pop\n        /* \"src/voting.sol\":1730:1735  _name */\n      dup3\n        /* \"src/voting.sol\":1720:1722  VP */\n      dup2\n        /* \"src/voting.sol\":1720:1727  VP.name */\n      0x00\n      add\n        /* \"src/voting.sol\":1720:1735  VP.name = _name */\n      swap1\n      dup1\n      mload\n      swap1\n      0x20\n      add\n      swap1\n      tag_164\n      swap3\n      swap2\n      swap1\n      tag_165\n      jump\t// in\n    tag_164:\n      pop\n        /* \"src/voting.sol\":1755:1765  msg.sender */\n      caller\n        /* \"src/voting.sol\":1741:1743  VP */\n      dup2\n        /* \"src/voting.sol\":1741:1752  VP.chairman */\n      0x01\n      add\n      0x00\n        /* \"src/voting.sol\":1741:1765  VP.chairman = msg.sender */\n      0x0100\n      exp\n      dup2\n      sload\n      dup2\n      0xffffffffffffffffffffffffffffffffffffffff\n      mul\n      not\n      and\n      swap1\n      dup4\n      0xffffffffffffffffffffffffffffffffffffffff\n      and\n      mul\n      or\n      swap1\n      sstore\n      pop\n        /* \"src/voting.sol\":1793:1814  ExpectedNoOfCandidate */\n      dup2\n        /* \"src/voting.sol\":1771:1773  VP */\n      dup2\n        /* \"src/voting.sol\":1771:1791  VP.maxNoOfCandidates */\n      0x03\n      add\n      0x00\n        /* \"src/voting.sol\":1771:1814  VP.maxNoOfCandidates =ExpectedNoOfCandidate */\n      0x0100\n      exp\n      dup2\n      sload\n      dup2\n      0xffffffff\n      mul\n      not\n      and\n      swap1\n      dup4\n      0xffffffff\n      and\n      mul\n      or\n      swap1\n      sstore\n      pop\n        /* \"src/voting.sol\":1820:1829  VotingKey */\n      0x01\n        /* \"src/voting.sol\":1835:1837  id */\n      sload(0x00)\n        /* \"src/voting.sol\":1820:1838  VotingKey.push(id) */\n      swap1\n      dup1\n      0x01\n      dup2\n      sload\n      add\n      dup1\n      dup3\n      sstore\n      dup1\n      swap2\n      pop\n      pop\n      0x01\n      swap1\n      sub\n      swap1\n      0x00\n      mstore\n      keccak256(0x00, 0x20)\n      add\n      0x00\n      swap1\n      swap2\n      swap1\n      swap2\n      swap1\n      swap2\n      pop\n      sstore\n        /* \"src/voting.sol\":1891:1893  id */\n      sload(0x00)\n        /* \"src/voting.sol\":1869:1871  VP */\n      dup2\n        /* \"src/voting.sol\":1869:1889  VP.maxNoOfCandidates */\n      0x03\n      add\n      0x00\n      swap1\n      sload\n      swap1\n      0x0100\n      exp\n      swap1\n      div\n      0xffffffff\n      and\n        /* \"src/voting.sol\":1849:1894  pollCreated( _name, VP.maxNoOfCandidates, id) */\n      0xffffffff\n      and\n        /* \"src/voting.sol\":1862:1867  _name */\n      dup5\n        /* \"src/voting.sol\":1849:1894  pollCreated( _name, VP.maxNoOfCandidates, id) */\n      mload(0x40)\n      tag_167\n      swap2\n      swap1\n      tag_168\n      jump\t// in\n    tag_167:\n      mload(0x40)\n      dup1\n      swap2\n      sub\n      swap1\n      keccak256\n      0xd4d0d9a1ef7f13069f1bade752fda515713d747eb14a8c30ae461c52916bf1c7\n      mload(0x40)\n      mload(0x40)\n      dup1\n      swap2\n      sub\n      swap1\n      log4\n        /* \"src/voting.sol\":1901:1903  id */\n      0x00\n      dup1\n        /* \"src/voting.sol\":1901:1905  id++ */\n      dup2\n      sload\n      dup1\n      swap3\n      swap2\n      swap1\n      tag_169\n      swap1\n      tag_126\n      jump\t// in\n    tag_169:\n      swap2\n      swap1\n      pop\n      sstore\n      pop\n        /* \"src/voting.sol\":1670:1909  {... */\n      pop\n        /* \"src/voting.sol\":1590:1909  function createPoll(string memory _name, uint32 ExpectedNoOfCandidate) external {... */\n      pop\n      pop\n      jump\t// out\n        /* \"src/voting.sol\":4243:4414  function getPosition( uint _id, uint i) private view returns(uint val){... */\n    tag_114:\n        /* \"src/voting.sol\":4304:4312  uint val */\n      0x00\n        /* \"src/voting.sol\":4320:4341  VotingPoll storage VP */\n      dup1\n        /* \"src/voting.sol\":4344:4354  votingPoll */\n      0x02\n        /* \"src/voting.sol\":4344:4359  votingPoll[_id] */\n      0x00\n        /* \"src/voting.sol\":4355:4358  _id */\n      dup6\n        /* \"src/voting.sol\":4344:4359  votingPoll[_id] */\n      dup2\n      mstore\n      0x20\n      add\n      swap1\n      dup2\n      mstore\n      0x20\n      add\n      0x00\n      keccak256\n        /* \"src/voting.sol\":4320:4359  VotingPoll storage VP = votingPoll[_id] */\n      swap1\n      pop\n        /* \"src/voting.sol\":4374:4387  CandidateVote */\n      0x05\n        /* \"src/voting.sol\":4374:4392  CandidateVote[_id] */\n      0x00\n        /* \"src/voting.sol\":4388:4391  _id */\n      dup6\n        /* \"src/voting.sol\":4374:4392  CandidateVote[_id] */\n      dup2\n      mstore\n      0x20\n      add\n      swap1\n      dup2\n      mstore\n      0x20\n      add\n      0x00\n      keccak256\n        /* \"src/voting.sol\":4374:4410  CandidateVote[_id][VP.candidates[i]] */\n      0x00\n        /* \"src/voting.sol\":4393:4395  VP */\n      dup3\n        /* \"src/voting.sol\":4393:4406  VP.candidates */\n      0x02\n      add\n        /* \"src/voting.sol\":4407:4408  i */\n      dup6\n        /* \"src/voting.sol\":4393:4409  VP.candidates[i] */\n      dup2\n      sload\n      dup2\n      lt\n      tag_171\n      jumpi\n      tag_172\n      tag_118\n      jump\t// in\n    tag_172:\n    tag_171:\n      swap1\n      0x00\n      mstore\n      keccak256(0x00, 0x20)\n      add\n      0x00\n      swap1\n      sload\n      swap1\n      0x0100\n      exp\n      swap1\n      div\n      0xffffffffffffffffffffffffffffffffffffffff\n      and\n        /* \"src/voting.sol\":4374:4410  CandidateVote[_id][VP.candidates[i]] */\n      0xffffffffffffffffffffffffffffffffffffffff\n      and\n      0xffffffffffffffffffffffffffffffffffffffff\n      and\n      dup2\n      mstore\n      0x20\n      add\n      swap1\n      dup2\n      mstore\n      0x20\n      add\n      0x00\n      keccak256\n      sload\n        /* \"src/voting.sol\":4368:4410  val = CandidateVote[_id][VP.candidates[i]] */\n      swap2\n      pop\n        /* \"src/voting.sol\":4313:4414  {... */\n      pop\n        /* \"src/voting.sol\":4243:4414  function getPosition( uint _id, uint i) private view returns(uint val){... */\n      swap3\n      swap2\n      pop\n      pop\n      jump\t// out\n        /* \"src/voting.sol\":4755:5337  function getSigner(bytes32 _hash, bytes memory _signature) internal pure returns (address){... */\n    tag_143:\n        /* \"src/voting.sol\":4837:4844  address */\n      0x00\n        /* \"src/voting.sol\":4851:4860  bytes32 r */\n      dup1\n        /* \"src/voting.sol\":4866:4875  bytes32 s */\n      0x00\n        /* \"src/voting.sol\":4881:4888  uint8 v */\n      dup1\n        /* \"src/voting.sol\":4919:4921  65 */\n      0x41\n        /* \"src/voting.sol\":4898:4908  _signature */\n      dup6\n        /* \"src/voting.sol\":4898:4915  _signature.length */\n      mload\n        /* \"src/voting.sol\":4898:4921  _signature.length != 65 */\n      eq\n        /* \"src/voting.sol\":4894:4955  if (_signature.length != 65) {... */\n      tag_175\n      jumpi\n        /* \"src/voting.sol\":4946:4947  0 */\n      0x00\n        /* \"src/voting.sol\":4931:4948  return address(0) */\n      swap4\n      pop\n      pop\n      pop\n      pop\n      jump(tag_174)\n        /* \"src/voting.sol\":4894:4955  if (_signature.length != 65) {... */\n    tag_175:\n        /* \"src/voting.sol\":5004:5006  32 */\n      0x20\n        /* \"src/voting.sol\":4992:5002  _signature */\n      dup6\n        /* \"src/voting.sol\":4988:5007  add(_signature, 32) */\n      add\n        /* \"src/voting.sol\":4982:5008  mload(add(_signature, 32)) */\n      mload\n        /* \"src/voting.sol\":4977:5008  r := mload(add(_signature, 32)) */\n      swap3\n      pop\n        /* \"src/voting.sol\":5042:5044  64 */\n      0x40\n        /* \"src/voting.sol\":5030:5040  _signature */\n      dup6\n        /* \"src/voting.sol\":5026:5045  add(_signature, 64) */\n      add\n        /* \"src/voting.sol\":5020:5046  mload(add(_signature, 64)) */\n      mload\n        /* \"src/voting.sol\":5015:5046  s := mload(add(_signature, 64)) */\n      swap2\n      pop\n        /* \"src/voting.sol\":5088:5090  96 */\n      0x60\n        /* \"src/voting.sol\":5076:5086  _signature */\n      dup6\n        /* \"src/voting.sol\":5072:5091  add(_signature, 96) */\n      add\n        /* \"src/voting.sol\":5066:5092  mload(add(_signature, 96)) */\n      mload\n        /* \"src/voting.sol\":5063:5064  0 */\n      0x00\n        /* \"src/voting.sol\":5058:5093  byte(0, mload(add(_signature, 96))) */\n      byte\n        /* \"src/voting.sol\":5053:5093  v := byte(0, mload(add(_signature, 96))) */\n      swap1\n      pop\n        /* \"src/voting.sol\":5112:5114  27 */\n      0x1b\n        /* \"src/voting.sol\":5108:5109  v */\n      dup2\n        /* \"src/voting.sol\":5108:5114  v < 27 */\n      0xff\n      and\n      lt\n        /* \"src/voting.sol\":5104:5138  if (v < 27) {... */\n      iszero\n      tag_176\n      jumpi\n        /* \"src/voting.sol\":5129:5131  27 */\n      0x1b\n        /* \"src/voting.sol\":5124:5131  v += 27 */\n      dup2\n      tag_177\n      swap2\n      swap1\n      tag_178\n      jump\t// in\n    tag_177:\n      swap1\n      pop\n        /* \"src/voting.sol\":5104:5138  if (v < 27) {... */\n    tag_176:\n        /* \"src/voting.sol\":5152:5154  27 */\n      0x1b\n        /* \"src/voting.sol\":5147:5148  v */\n      dup2\n        /* \"src/voting.sol\":5147:5154  v != 27 */\n      0xff\n      and\n      eq\n      iszero\n        /* \"src/voting.sol\":5147:5165  v != 27 && v != 28 */\n      dup1\n      iszero\n      tag_179\n      jumpi\n      pop\n        /* \"src/voting.sol\":5163:5165  28 */\n      0x1c\n        /* \"src/voting.sol\":5158:5159  v */\n      dup2\n        /* \"src/voting.sol\":5158:5165  v != 28 */\n      0xff\n      and\n      eq\n      iszero\n        /* \"src/voting.sol\":5147:5165  v != 27 && v != 28 */\n    tag_179:\n        /* \"src/voting.sol\":5143:5333  if (v != 27 && v != 28) {... */\n      iszero\n      tag_180\n      jumpi\n        /* \"src/voting.sol\":5190:5191  0 */\n      0x00\n        /* \"src/voting.sol\":5175:5192  return address(0) */\n      swap4\n      pop\n      pop\n      pop\n      pop\n      jump(tag_174)\n        /* \"src/voting.sol\":5143:5333  if (v != 27 && v != 28) {... */\n    tag_180:\n        /* \"src/voting.sol\":5220:5326  ecrecover(keccak256(... */\n      0x01\n        /* \"src/voting.sol\":5302:5307  _hash */\n      dup7\n        /* \"src/voting.sol\":5249:5308  abi.encodePacked(\"\\x19Ethereum Signed Message:\\n32\", _hash) */\n      add(0x20, mload(0x40))\n      tag_182\n      swap2\n      swap1\n      tag_183\n      jump\t// in\n    tag_182:\n      mload(0x40)\n      0x20\n      dup2\n      dup4\n      sub\n      sub\n      dup2\n      mstore\n      swap1\n      0x40\n      mstore\n        /* \"src/voting.sol\":5230:5316  keccak256(... */\n      dup1\n      mload\n      swap1\n      0x20\n      add\n      keccak256\n        /* \"src/voting.sol\":5318:5319  v */\n      dup3\n        /* \"src/voting.sol\":5321:5322  r */\n      dup6\n        /* \"src/voting.sol\":5324:5325  s */\n      dup6\n        /* \"src/voting.sol\":5220:5326  ecrecover(keccak256(... */\n      mload(0x40)\n      0x00\n      dup2\n      mstore\n      0x20\n      add\n      0x40\n      mstore\n      mload(0x40)\n      tag_184\n      swap5\n      swap4\n      swap3\n      swap2\n      swap1\n      tag_185\n      jump\t// in\n    tag_184:\n      0x20\n      mload(0x40)\n      0x20\n      dup2\n      sub\n      swap1\n      dup1\n      dup5\n      sub\n      swap1\n      dup6\n      gas\n      staticcall\n      iszero\n      dup1\n      iszero\n      tag_187\n      jumpi\n      returndatasize\n      0x00\n      dup1\n      returndatacopy\n      revert(0x00, returndatasize)\n    tag_187:\n      pop\n      pop\n      pop\n      mload(sub(mload(0x40), 0x20))\n        /* \"src/voting.sol\":5213:5326  return ecrecover(keccak256(... */\n      swap4\n      pop\n      pop\n      pop\n      pop\n        /* \"src/voting.sol\":4755:5337  function getSigner(bytes32 _hash, bytes memory _signature) internal pure returns (address){... */\n    tag_174:\n      swap3\n      swap2\n      pop\n      pop\n      jump\t// out\n        /* \"src/voting.sol\":2911:3103  function countVote(address Cand, uint _id, address signer) internal returns(uint){... */\n    tag_151:\n        /* \"src/voting.sol\":2987:2991  uint */\n      0x00\n        /* \"src/voting.sol\":3023:3027  true */\n      0x01\n        /* \"src/voting.sol\":2999:3007  hasVoted */\n      0x06\n        /* \"src/voting.sol\":2999:3012  hasVoted[_id] */\n      0x00\n        /* \"src/voting.sol\":3008:3011  _id */\n      dup6\n        /* \"src/voting.sol\":2999:3012  hasVoted[_id] */\n      dup2\n      mstore\n      0x20\n      add\n      swap1\n      dup2\n      mstore\n      0x20\n      add\n      0x00\n      keccak256\n        /* \"src/voting.sol\":2999:3020  hasVoted[_id][signer] */\n      0x00\n        /* \"src/voting.sol\":3013:3019  signer */\n      dup5\n        /* \"src/voting.sol\":2999:3020  hasVoted[_id][signer] */\n      0xffffffffffffffffffffffffffffffffffffffff\n      and\n      0xffffffffffffffffffffffffffffffffffffffff\n      and\n      dup2\n      mstore\n      0x20\n      add\n      swap1\n      dup2\n      mstore\n      0x20\n      add\n      0x00\n      keccak256\n      0x00\n        /* \"src/voting.sol\":2999:3027  hasVoted[_id][signer] = true */\n      0x0100\n      exp\n      dup2\n      sload\n      dup2\n      0xff\n      mul\n      not\n      and\n      swap1\n      dup4\n      iszero\n      iszero\n      mul\n      or\n      swap1\n      sstore\n      pop\n        /* \"src/voting.sol\":3034:3047  CandidateVote */\n      0x05\n        /* \"src/voting.sol\":3034:3052  CandidateVote[_id] */\n      0x00\n        /* \"src/voting.sol\":3048:3051  _id */\n      dup5\n        /* \"src/voting.sol\":3034:3052  CandidateVote[_id] */\n      dup2\n      mstore\n      0x20\n      add\n      swap1\n      dup2\n      mstore\n      0x20\n      add\n      0x00\n      keccak256\n        /* \"src/voting.sol\":3034:3058  CandidateVote[_id][Cand] */\n      0x00\n        /* \"src/voting.sol\":3053:3057  Cand */\n      dup6\n        /* \"src/voting.sol\":3034:3058  CandidateVote[_id][Cand] */\n      0xffffffffffffffffffffffffffffffffffffffff\n      and\n      0xffffffffffffffffffffffffffffffffffffffff\n      and\n      dup2\n      mstore\n      0x20\n      add\n      swap1\n      dup2\n      mstore\n      0x20\n      add\n      0x00\n      keccak256\n      0x00\n        /* \"src/voting.sol\":3034:3060  CandidateVote[_id][Cand]++ */\n      dup2\n      sload\n      dup1\n      swap3\n      swap2\n      swap1\n      tag_189\n      swap1\n      tag_126\n      jump\t// in\n    tag_189:\n      swap2\n      swap1\n      pop\n      sstore\n      pop\n        /* \"src/voting.sol\":3074:3087  CandidateVote */\n      0x05\n        /* \"src/voting.sol\":3074:3092  CandidateVote[_id] */\n      0x00\n        /* \"src/voting.sol\":3088:3091  _id */\n      dup5\n        /* \"src/voting.sol\":3074:3092  CandidateVote[_id] */\n      dup2\n      mstore\n      0x20\n      add\n      swap1\n      dup2\n      mstore\n      0x20\n      add\n      0x00\n      keccak256\n        /* \"src/voting.sol\":3074:3098  CandidateVote[_id][Cand] */\n      0x00\n        /* \"src/voting.sol\":3093:3097  Cand */\n      dup6\n        /* \"src/voting.sol\":3074:3098  CandidateVote[_id][Cand] */\n      0xffffffffffffffffffffffffffffffffffffffff\n      and\n      0xffffffffffffffffffffffffffffffffffffffff\n      and\n      dup2\n      mstore\n      0x20\n      add\n      swap1\n      dup2\n      mstore\n      0x20\n      add\n      0x00\n      keccak256\n      sload\n        /* \"src/voting.sol\":3067:3098  return CandidateVote[_id][Cand] */\n      swap1\n      pop\n        /* \"src/voting.sol\":2911:3103  function countVote(address Cand, uint _id, address signer) internal returns(uint){... */\n      swap4\n      swap3\n      pop\n      pop\n      pop\n      jump\t// out\n    tag_88:\n      mload(0x40)\n      dup1\n      0xc0\n      add\n      0x40\n      mstore\n      dup1\n      0x60\n      dup2\n      mstore\n      0x20\n      add\n      and(0xffffffffffffffffffffffffffffffffffffffff, 0x00)\n      dup2\n      mstore\n      0x20\n      add\n      0x60\n      dup2\n      mstore\n      0x20\n      add\n      and(0xffffffff, 0x00)\n      dup2\n      mstore\n      0x20\n      add\n      and(0xffffffff, 0x00)\n      dup2\n      mstore\n      0x20\n      add\n      iszero(iszero(0x00))\n      dup2\n      mstore\n      pop\n      swap1\n      jump\t// out\n    tag_165:\n      dup3\n      dup1\n      sload\n      tag_190\n      swap1\n      tag_91\n      jump\t// in\n    tag_190:\n      swap1\n      0x00\n      mstore\n      keccak256(0x00, 0x20)\n      swap1\n      0x1f\n      add\n      0x20\n      swap1\n      div\n      dup2\n      add\n      swap3\n      dup3\n      tag_192\n      jumpi\n      0x00\n      dup6\n      sstore\n      jump(tag_191)\n    tag_192:\n      dup3\n      0x1f\n      lt\n      tag_193\n      jumpi\n      dup1\n      mload\n      not(0xff)\n      and\n      dup4\n      dup1\n      add\n      or\n      dup6\n      sstore\n      jump(tag_191)\n    tag_193:\n      dup3\n      dup1\n      add\n      0x01\n      add\n      dup6\n      sstore\n      dup3\n      iszero\n      tag_191\n      jumpi\n      swap2\n      dup3\n      add\n    tag_194:\n      dup3\n      dup2\n      gt\n      iszero\n      tag_195\n      jumpi\n      dup3\n      mload\n      dup3\n      sstore\n      swap2\n      0x20\n      add\n      swap2\n      swap1\n      0x01\n      add\n      swap1\n      jump(tag_194)\n    tag_195:\n    tag_191:\n      pop\n      swap1\n      pop\n      tag_196\n      swap2\n      swap1\n      tag_197\n      jump\t// in\n    tag_196:\n      pop\n      swap1\n      jump\t// out\n    tag_197:\n    tag_198:\n      dup1\n      dup3\n      gt\n      iszero\n      tag_199\n      jumpi\n      0x00\n      dup2\n      0x00\n      swap1\n      sstore\n      pop\n      0x01\n      add\n      jump(tag_198)\n    tag_199:\n      pop\n      swap1\n      jump\t// out\n        /* \"#utility.yul\":7:82   */\n    tag_200:\n        /* \"#utility.yul\":40:46   */\n      0x00\n        /* \"#utility.yul\":73:75   */\n      0x40\n        /* \"#utility.yul\":67:76   */\n      mload\n        /* \"#utility.yul\":57:76   */\n      swap1\n      pop\n        /* \"#utility.yul\":7:82   */\n      swap1\n      jump\t// out\n        /* \"#utility.yul\":88:205   */\n    tag_201:\n        /* \"#utility.yul\":197:198   */\n      0x00\n        /* \"#utility.yul\":194:195   */\n      dup1\n        /* \"#utility.yul\":187:199   */\n      revert\n        /* \"#utility.yul\":211:328   */\n    tag_202:\n        /* \"#utility.yul\":320:321   */\n      0x00\n        /* \"#utility.yul\":317:318   */\n      dup1\n        /* \"#utility.yul\":310:322   */\n      revert\n        /* \"#utility.yul\":334:460   */\n    tag_203:\n        /* \"#utility.yul\":371:378   */\n      0x00\n        /* \"#utility.yul\":411:453   */\n      0xffffffffffffffffffffffffffffffffffffffff\n        /* \"#utility.yul\":404:409   */\n      dup3\n        /* \"#utility.yul\":400:454   */\n      and\n        /* \"#utility.yul\":389:454   */\n      swap1\n      pop\n        /* \"#utility.yul\":334:460   */\n      swap2\n      swap1\n      pop\n      jump\t// out\n        /* \"#utility.yul\":466:562   */\n    tag_204:\n        /* \"#utility.yul\":503:510   */\n      0x00\n        /* \"#utility.yul\":532:556   */\n      tag_295\n        /* \"#utility.yul\":550:555   */\n      dup3\n        /* \"#utility.yul\":532:556   */\n      tag_203\n      jump\t// in\n    tag_295:\n        /* \"#utility.yul\":521:556   */\n      swap1\n      pop\n        /* \"#utility.yul\":466:562   */\n      swap2\n      swap1\n      pop\n      jump\t// out\n        /* \"#utility.yul\":568:690   */\n    tag_205:\n        /* \"#utility.yul\":641:665   */\n      tag_297\n        /* \"#utility.yul\":659:664   */\n      dup2\n        /* \"#utility.yul\":641:665   */\n      tag_204\n      jump\t// in\n    tag_297:\n        /* \"#utility.yul\":634:639   */\n      dup2\n        /* \"#utility.yul\":631:666   */\n      eq\n        /* \"#utility.yul\":621:684   */\n      tag_298\n      jumpi\n        /* \"#utility.yul\":680:681   */\n      0x00\n        /* \"#utility.yul\":677:678   */\n      dup1\n        /* \"#utility.yul\":670:682   */\n      revert\n        /* \"#utility.yul\":621:684   */\n    tag_298:\n        /* \"#utility.yul\":568:690   */\n      pop\n      jump\t// out\n        /* \"#utility.yul\":696:835   */\n    tag_206:\n        /* \"#utility.yul\":742:747   */\n      0x00\n        /* \"#utility.yul\":780:786   */\n      dup2\n        /* \"#utility.yul\":767:787   */\n      calldataload\n        /* \"#utility.yul\":758:787   */\n      swap1\n      pop\n        /* \"#utility.yul\":796:829   */\n      tag_300\n        /* \"#utility.yul\":823:828   */\n      dup2\n        /* \"#utility.yul\":796:829   */\n      tag_205\n      jump\t// in\n    tag_300:\n        /* \"#utility.yul\":696:835   */\n      swap3\n      swap2\n      pop\n      pop\n      jump\t// out\n        /* \"#utility.yul\":841:918   */\n    tag_207:\n        /* \"#utility.yul\":878:885   */\n      0x00\n        /* \"#utility.yul\":907:912   */\n      dup2\n        /* \"#utility.yul\":896:912   */\n      swap1\n      pop\n        /* \"#utility.yul\":841:918   */\n      swap2\n      swap1\n      pop\n      jump\t// out\n        /* \"#utility.yul\":924:1046   */\n    tag_208:\n        /* \"#utility.yul\":997:1021   */\n      tag_303\n        /* \"#utility.yul\":1015:1020   */\n      dup2\n        /* \"#utility.yul\":997:1021   */\n      tag_207\n      jump\t// in\n    tag_303:\n        /* \"#utility.yul\":990:995   */\n      dup2\n        /* \"#utility.yul\":987:1022   */\n      eq\n        /* \"#utility.yul\":977:1040   */\n      tag_304\n      jumpi\n        /* \"#utility.yul\":1036:1037   */\n      0x00\n        /* \"#utility.yul\":1033:1034   */\n      dup1\n        /* \"#utility.yul\":1026:1038   */\n      revert\n        /* \"#utility.yul\":977:1040   */\n    tag_304:\n        /* \"#utility.yul\":924:1046   */\n      pop\n      jump\t// out\n        /* \"#utility.yul\":1052:1191   */\n    tag_209:\n        /* \"#utility.yul\":1098:1103   */\n      0x00\n        /* \"#utility.yul\":1136:1142   */\n      dup2\n        /* \"#utility.yul\":1123:1143   */\n      calldataload\n        /* \"#utility.yul\":1114:1143   */\n      swap1\n      pop\n        /* \"#utility.yul\":1152:1185   */\n      tag_306\n        /* \"#utility.yul\":1179:1184   */\n      dup2\n        /* \"#utility.yul\":1152:1185   */\n      tag_208\n      jump\t// in\n    tag_306:\n        /* \"#utility.yul\":1052:1191   */\n      swap3\n      swap2\n      pop\n      pop\n      jump\t// out\n        /* \"#utility.yul\":1197:1671   */\n    tag_18:\n        /* \"#utility.yul\":1265:1271   */\n      0x00\n        /* \"#utility.yul\":1273:1279   */\n      dup1\n        /* \"#utility.yul\":1322:1324   */\n      0x40\n        /* \"#utility.yul\":1310:1319   */\n      dup4\n        /* \"#utility.yul\":1301:1308   */\n      dup6\n        /* \"#utility.yul\":1297:1320   */\n      sub\n        /* \"#utility.yul\":1293:1325   */\n      slt\n        /* \"#utility.yul\":1290:1409   */\n      iszero\n      tag_308\n      jumpi\n        /* \"#utility.yul\":1328:1407   */\n      tag_309\n      tag_201\n      jump\t// in\n    tag_309:\n        /* \"#utility.yul\":1290:1409   */\n    tag_308:\n        /* \"#utility.yul\":1448:1449   */\n      0x00\n        /* \"#utility.yul\":1473:1526   */\n      tag_310\n        /* \"#utility.yul\":1518:1525   */\n      dup6\n        /* \"#utility.yul\":1509:1515   */\n      dup3\n        /* \"#utility.yul\":1498:1507   */\n      dup7\n        /* \"#utility.yul\":1494:1516   */\n      add\n        /* \"#utility.yul\":1473:1526   */\n      tag_206\n      jump\t// in\n    tag_310:\n        /* \"#utility.yul\":1463:1526   */\n      swap3\n      pop\n        /* \"#utility.yul\":1419:1536   */\n      pop\n        /* \"#utility.yul\":1575:1577   */\n      0x20\n        /* \"#utility.yul\":1601:1654   */\n      tag_311\n        /* \"#utility.yul\":1646:1653   */\n      dup6\n        /* \"#utility.yul\":1637:1643   */\n      dup3\n        /* \"#utility.yul\":1626:1635   */\n      dup7\n        /* \"#utility.yul\":1622:1644   */\n      add\n        /* \"#utility.yul\":1601:1654   */\n      tag_209\n      jump\t// in\n    tag_311:\n        /* \"#utility.yul\":1591:1654   */\n      swap2\n      pop\n        /* \"#utility.yul\":1546:1664   */\n      pop\n        /* \"#utility.yul\":1197:1671   */\n      swap3\n      pop\n      swap3\n      swap1\n      pop\n      jump\t// out\n        /* \"#utility.yul\":1677:2006   */\n    tag_22:\n        /* \"#utility.yul\":1736:1742   */\n      0x00\n        /* \"#utility.yul\":1785:1787   */\n      0x20\n        /* \"#utility.yul\":1773:1782   */\n      dup3\n        /* \"#utility.yul\":1764:1771   */\n      dup5\n        /* \"#utility.yul\":1760:1783   */\n      sub\n        /* \"#utility.yul\":1756:1788   */\n      slt\n        /* \"#utility.yul\":1753:1872   */\n      iszero\n      tag_313\n      jumpi\n        /* \"#utility.yul\":1791:1870   */\n      tag_314\n      tag_201\n      jump\t// in\n    tag_314:\n        /* \"#utility.yul\":1753:1872   */\n    tag_313:\n        /* \"#utility.yul\":1911:1912   */\n      0x00\n        /* \"#utility.yul\":1936:1989   */\n      tag_315\n        /* \"#utility.yul\":1981:1988   */\n      dup5\n        /* \"#utility.yul\":1972:1978   */\n      dup3\n        /* \"#utility.yul\":1961:1970   */\n      dup6\n        /* \"#utility.yul\":1957:1979   */\n      add\n        /* \"#utility.yul\":1936:1989   */\n      tag_209\n      jump\t// in\n    tag_315:\n        /* \"#utility.yul\":1926:1989   */\n      swap2\n      pop\n        /* \"#utility.yul\":1882:1999   */\n      pop\n        /* \"#utility.yul\":1677:2006   */\n      swap3\n      swap2\n      pop\n      pop\n      jump\t// out\n        /* \"#utility.yul\":2012:2111   */\n    tag_210:\n        /* \"#utility.yul\":2064:2070   */\n      0x00\n        /* \"#utility.yul\":2098:2103   */\n      dup2\n        /* \"#utility.yul\":2092:2104   */\n      mload\n        /* \"#utility.yul\":2082:2104   */\n      swap1\n      pop\n        /* \"#utility.yul\":2012:2111   */\n      swap2\n      swap1\n      pop\n      jump\t// out\n        /* \"#utility.yul\":2117:2276   */\n    tag_211:\n        /* \"#utility.yul\":2191:2202   */\n      0x00\n        /* \"#utility.yul\":2225:2231   */\n      dup3\n        /* \"#utility.yul\":2220:2223   */\n      dup3\n        /* \"#utility.yul\":2213:2232   */\n      mstore\n        /* \"#utility.yul\":2265:2269   */\n      0x20\n        /* \"#utility.yul\":2260:2263   */\n      dup3\n        /* \"#utility.yul\":2256:2270   */\n      add\n        /* \"#utility.yul\":2241:2270   */\n      swap1\n      pop\n        /* \"#utility.yul\":2117:2276   */\n      swap3\n      swap2\n      pop\n      pop\n      jump\t// out\n        /* \"#utility.yul\":2282:2589   */\n    tag_212:\n        /* \"#utility.yul\":2350:2351   */\n      0x00\n        /* \"#utility.yul\":2360:2473   */\n    tag_319:\n        /* \"#utility.yul\":2374:2380   */\n      dup4\n        /* \"#utility.yul\":2371:2372   */\n      dup2\n        /* \"#utility.yul\":2368:2381   */\n      lt\n        /* \"#utility.yul\":2360:2473   */\n      iszero\n      tag_321\n      jumpi\n        /* \"#utility.yul\":2459:2460   */\n      dup1\n        /* \"#utility.yul\":2454:2457   */\n      dup3\n        /* \"#utility.yul\":2450:2461   */\n      add\n        /* \"#utility.yul\":2444:2462   */\n      mload\n        /* \"#utility.yul\":2440:2441   */\n      dup2\n        /* \"#utility.yul\":2435:2438   */\n      dup5\n        /* \"#utility.yul\":2431:2442   */\n      add\n        /* \"#utility.yul\":2424:2463   */\n      mstore\n        /* \"#utility.yul\":2396:2398   */\n      0x20\n        /* \"#utility.yul\":2393:2394   */\n      dup2\n        /* \"#utility.yul\":2389:2399   */\n      add\n        /* \"#utility.yul\":2384:2399   */\n      swap1\n      pop\n        /* \"#utility.yul\":2360:2473   */\n      jump(tag_319)\n    tag_321:\n        /* \"#utility.yul\":2491:2497   */\n      dup4\n        /* \"#utility.yul\":2488:2489   */\n      dup2\n        /* \"#utility.yul\":2485:2498   */\n      gt\n        /* \"#utility.yul\":2482:2583   */\n      iszero\n      tag_322\n      jumpi\n        /* \"#utility.yul\":2571:2572   */\n      0x00\n        /* \"#utility.yul\":2562:2568   */\n      dup5\n        /* \"#utility.yul\":2557:2560   */\n      dup5\n        /* \"#utility.yul\":2553:2569   */\n      add\n        /* \"#utility.yul\":2546:2573   */\n      mstore\n        /* \"#utility.yul\":2482:2583   */\n    tag_322:\n        /* \"#utility.yul\":2331:2589   */\n      pop\n        /* \"#utility.yul\":2282:2589   */\n      pop\n      pop\n      pop\n      jump\t// out\n        /* \"#utility.yul\":2595:2697   */\n    tag_213:\n        /* \"#utility.yul\":2636:2642   */\n      0x00\n        /* \"#utility.yul\":2687:2689   */\n      0x1f\n        /* \"#utility.yul\":2683:2690   */\n      not\n        /* \"#utility.yul\":2678:2680   */\n      0x1f\n        /* \"#utility.yul\":2671:2676   */\n      dup4\n        /* \"#utility.yul\":2667:2681   */\n      add\n        /* \"#utility.yul\":2663:2691   */\n      and\n        /* \"#utility.yul\":2653:2691   */\n      swap1\n      pop\n        /* \"#utility.yul\":2595:2697   */\n      swap2\n      swap1\n      pop\n      jump\t// out\n        /* \"#utility.yul\":2703:3047   */\n    tag_214:\n        /* \"#utility.yul\":2781:2784   */\n      0x00\n        /* \"#utility.yul\":2809:2848   */\n      tag_325\n        /* \"#utility.yul\":2842:2847   */\n      dup3\n        /* \"#utility.yul\":2809:2848   */\n      tag_210\n      jump\t// in\n    tag_325:\n        /* \"#utility.yul\":2864:2925   */\n      tag_326\n        /* \"#utility.yul\":2918:2924   */\n      dup2\n        /* \"#utility.yul\":2913:2916   */\n      dup6\n        /* \"#utility.yul\":2864:2925   */\n      tag_211\n      jump\t// in\n    tag_326:\n        /* \"#utility.yul\":2857:2925   */\n      swap4\n      pop\n        /* \"#utility.yul\":2934:2986   */\n      tag_327\n        /* \"#utility.yul\":2979:2985   */\n      dup2\n        /* \"#utility.yul\":2974:2977   */\n      dup6\n        /* \"#utility.yul\":2967:2971   */\n      0x20\n        /* \"#utility.yul\":2960:2965   */\n      dup7\n        /* \"#utility.yul\":2956:2972   */\n      add\n        /* \"#utility.yul\":2934:2986   */\n      tag_212\n      jump\t// in\n    tag_327:\n        /* \"#utility.yul\":3011:3040   */\n      tag_328\n        /* \"#utility.yul\":3033:3039   */\n      dup2\n        /* \"#utility.yul\":3011:3040   */\n      tag_213\n      jump\t// in\n    tag_328:\n        /* \"#utility.yul\":3006:3009   */\n      dup5\n        /* \"#utility.yul\":3002:3041   */\n      add\n        /* \"#utility.yul\":2995:3041   */\n      swap2\n      pop\n        /* \"#utility.yul\":2785:3047   */\n      pop\n        /* \"#utility.yul\":2703:3047   */\n      swap3\n      swap2\n      pop\n      pop\n      jump\t// out\n        /* \"#utility.yul\":3053:3161   */\n    tag_215:\n        /* \"#utility.yul\":3130:3154   */\n      tag_330\n        /* \"#utility.yul\":3148:3153   */\n      dup2\n        /* \"#utility.yul\":3130:3154   */\n      tag_204\n      jump\t// in\n    tag_330:\n        /* \"#utility.yul\":3125:3128   */\n      dup3\n        /* \"#utility.yul\":3118:3155   */\n      mstore\n        /* \"#utility.yul\":3053:3161   */\n      pop\n      pop\n      jump\t// out\n        /* \"#utility.yul\":3167:3281   */\n    tag_216:\n        /* \"#utility.yul\":3234:3240   */\n      0x00\n        /* \"#utility.yul\":3268:3273   */\n      dup2\n        /* \"#utility.yul\":3262:3274   */\n      mload\n        /* \"#utility.yul\":3252:3274   */\n      swap1\n      pop\n        /* \"#utility.yul\":3167:3281   */\n      swap2\n      swap1\n      pop\n      jump\t// out\n        /* \"#utility.yul\":3287:3461   */\n    tag_217:\n        /* \"#utility.yul\":3376:3387   */\n      0x00\n        /* \"#utility.yul\":3410:3416   */\n      dup3\n        /* \"#utility.yul\":3405:3408   */\n      dup3\n        /* \"#utility.yul\":3398:3417   */\n      mstore\n        /* \"#utility.yul\":3450:3454   */\n      0x20\n        /* \"#utility.yul\":3445:3448   */\n      dup3\n        /* \"#utility.yul\":3441:3455   */\n      add\n        /* \"#utility.yul\":3426:3455   */\n      swap1\n      pop\n        /* \"#utility.yul\":3287:3461   */\n      swap3\n      swap2\n      pop\n      pop\n      jump\t// out\n        /* \"#utility.yul\":3467:3599   */\n    tag_218:\n        /* \"#utility.yul\":3534:3538   */\n      0x00\n        /* \"#utility.yul\":3557:3560   */\n      dup2\n        /* \"#utility.yul\":3549:3560   */\n      swap1\n      pop\n        /* \"#utility.yul\":3587:3591   */\n      0x20\n        /* \"#utility.yul\":3582:3585   */\n      dup3\n        /* \"#utility.yul\":3578:3592   */\n      add\n        /* \"#utility.yul\":3570:3592   */\n      swap1\n      pop\n        /* \"#utility.yul\":3467:3599   */\n      swap2\n      swap1\n      pop\n      jump\t// out\n        /* \"#utility.yul\":3605:3784   */\n    tag_219:\n        /* \"#utility.yul\":3674:3684   */\n      0x00\n        /* \"#utility.yul\":3695:3741   */\n      tag_335\n        /* \"#utility.yul\":3737:3740   */\n      dup4\n        /* \"#utility.yul\":3729:3735   */\n      dup4\n        /* \"#utility.yul\":3695:3741   */\n      tag_215\n      jump\t// in\n    tag_335:\n        /* \"#utility.yul\":3773:3777   */\n      0x20\n        /* \"#utility.yul\":3768:3771   */\n      dup4\n        /* \"#utility.yul\":3764:3778   */\n      add\n        /* \"#utility.yul\":3750:3778   */\n      swap1\n      pop\n        /* \"#utility.yul\":3605:3784   */\n      swap3\n      swap2\n      pop\n      pop\n      jump\t// out\n        /* \"#utility.yul\":3790:3903   */\n    tag_220:\n        /* \"#utility.yul\":3860:3864   */\n      0x00\n        /* \"#utility.yul\":3892:3896   */\n      0x20\n        /* \"#utility.yul\":3887:3890   */\n      dup3\n        /* \"#utility.yul\":3883:3897   */\n      add\n        /* \"#utility.yul\":3875:3897   */\n      swap1\n      pop\n        /* \"#utility.yul\":3790:3903   */\n      swap2\n      swap1\n      pop\n      jump\t// out\n        /* \"#utility.yul\":3939:4651   */\n    tag_221:\n        /* \"#utility.yul\":4048:4051   */\n      0x00\n        /* \"#utility.yul\":4077:4131   */\n      tag_338\n        /* \"#utility.yul\":4125:4130   */\n      dup3\n        /* \"#utility.yul\":4077:4131   */\n      tag_216\n      jump\t// in\n    tag_338:\n        /* \"#utility.yul\":4147:4223   */\n      tag_339\n        /* \"#utility.yul\":4216:4222   */\n      dup2\n        /* \"#utility.yul\":4211:4214   */\n      dup6\n        /* \"#utility.yul\":4147:4223   */\n      tag_217\n      jump\t// in\n    tag_339:\n        /* \"#utility.yul\":4140:4223   */\n      swap4\n      pop\n        /* \"#utility.yul\":4247:4303   */\n      tag_340\n        /* \"#utility.yul\":4297:4302   */\n      dup4\n        /* \"#utility.yul\":4247:4303   */\n      tag_218\n      jump\t// in\n    tag_340:\n        /* \"#utility.yul\":4326:4333   */\n      dup1\n        /* \"#utility.yul\":4357:4358   */\n      0x00\n        /* \"#utility.yul\":4342:4626   */\n    tag_341:\n        /* \"#utility.yul\":4367:4373   */\n      dup4\n        /* \"#utility.yul\":4364:4365   */\n      dup2\n        /* \"#utility.yul\":4361:4374   */\n      lt\n        /* \"#utility.yul\":4342:4626   */\n      iszero\n      tag_343\n      jumpi\n        /* \"#utility.yul\":4443:4449   */\n      dup2\n        /* \"#utility.yul\":4437:4450   */\n      mload\n        /* \"#utility.yul\":4470:4533   */\n      tag_344\n        /* \"#utility.yul\":4529:4532   */\n      dup9\n        /* \"#utility.yul\":4514:4527   */\n      dup3\n        /* \"#utility.yul\":4470:4533   */\n      tag_219\n      jump\t// in\n    tag_344:\n        /* \"#utility.yul\":4463:4533   */\n      swap8\n      pop\n        /* \"#utility.yul\":4556:4616   */\n      tag_345\n        /* \"#utility.yul\":4609:4615   */\n      dup4\n        /* \"#utility.yul\":4556:4616   */\n      tag_220\n      jump\t// in\n    tag_345:\n        /* \"#utility.yul\":4546:4616   */\n      swap3\n      pop\n        /* \"#utility.yul\":4402:4626   */\n      pop\n        /* \"#utility.yul\":4389:4390   */\n      0x01\n        /* \"#utility.yul\":4386:4387   */\n      dup2\n        /* \"#utility.yul\":4382:4391   */\n      add\n        /* \"#utility.yul\":4377:4391   */\n      swap1\n      pop\n        /* \"#utility.yul\":4342:4626   */\n      jump(tag_341)\n    tag_343:\n        /* \"#utility.yul\":4346:4360   */\n      pop\n        /* \"#utility.yul\":4642:4645   */\n      dup6\n        /* \"#utility.yul\":4635:4645   */\n      swap4\n      pop\n        /* \"#utility.yul\":4053:4651   */\n      pop\n      pop\n      pop\n        /* \"#utility.yul\":3939:4651   */\n      swap3\n      swap2\n      pop\n      pop\n      jump\t// out\n        /* \"#utility.yul\":4657:4750   */\n    tag_222:\n        /* \"#utility.yul\":4693:4700   */\n      0x00\n        /* \"#utility.yul\":4733:4743   */\n      0xffffffff\n        /* \"#utility.yul\":4726:4731   */\n      dup3\n        /* \"#utility.yul\":4722:4744   */\n      and\n        /* \"#utility.yul\":4711:4744   */\n      swap1\n      pop\n        /* \"#utility.yul\":4657:4750   */\n      swap2\n      swap1\n      pop\n      jump\t// out\n        /* \"#utility.yul\":4756:4861   */\n    tag_223:\n        /* \"#utility.yul\":4831:4854   */\n      tag_348\n        /* \"#utility.yul\":4848:4853   */\n      dup2\n        /* \"#utility.yul\":4831:4854   */\n      tag_222\n      jump\t// in\n    tag_348:\n        /* \"#utility.yul\":4826:4829   */\n      dup3\n        /* \"#utility.yul\":4819:4855   */\n      mstore\n        /* \"#utility.yul\":4756:4861   */\n      pop\n      pop\n      jump\t// out\n        /* \"#utility.yul\":4867:4957   */\n    tag_224:\n        /* \"#utility.yul\":4901:4908   */\n      0x00\n        /* \"#utility.yul\":4944:4949   */\n      dup2\n        /* \"#utility.yul\":4937:4950   */\n      iszero\n        /* \"#utility.yul\":4930:4951   */\n      iszero\n        /* \"#utility.yul\":4919:4951   */\n      swap1\n      pop\n        /* \"#utility.yul\":4867:4957   */\n      swap2\n      swap1\n      pop\n      jump\t// out\n        /* \"#utility.yul\":4963:5062   */\n    tag_225:\n        /* \"#utility.yul\":5034:5055   */\n      tag_351\n        /* \"#utility.yul\":5049:5054   */\n      dup2\n        /* \"#utility.yul\":5034:5055   */\n      tag_224\n      jump\t// in\n    tag_351:\n        /* \"#utility.yul\":5029:5032   */\n      dup3\n        /* \"#utility.yul\":5022:5056   */\n      mstore\n        /* \"#utility.yul\":4963:5062   */\n      pop\n      pop\n      jump\t// out\n        /* \"#utility.yul\":5128:6565   */\n    tag_226:\n        /* \"#utility.yul\":5249:5252   */\n      0x00\n        /* \"#utility.yul\":5285:5289   */\n      0xc0\n        /* \"#utility.yul\":5280:5283   */\n      dup4\n        /* \"#utility.yul\":5276:5290   */\n      add\n        /* \"#utility.yul\":5372:5376   */\n      0x00\n        /* \"#utility.yul\":5365:5370   */\n      dup4\n        /* \"#utility.yul\":5361:5377   */\n      add\n        /* \"#utility.yul\":5355:5378   */\n      mload\n        /* \"#utility.yul\":5425:5428   */\n      dup5\n        /* \"#utility.yul\":5419:5423   */\n      dup3\n        /* \"#utility.yul\":5415:5429   */\n      sub\n        /* \"#utility.yul\":5408:5412   */\n      0x00\n        /* \"#utility.yul\":5403:5406   */\n      dup7\n        /* \"#utility.yul\":5399:5413   */\n      add\n        /* \"#utility.yul\":5392:5430   */\n      mstore\n        /* \"#utility.yul\":5451:5524   */\n      tag_353\n        /* \"#utility.yul\":5519:5523   */\n      dup3\n        /* \"#utility.yul\":5505:5517   */\n      dup3\n        /* \"#utility.yul\":5451:5524   */\n      tag_214\n      jump\t// in\n    tag_353:\n        /* \"#utility.yul\":5443:5524   */\n      swap2\n      pop\n        /* \"#utility.yul\":5300:5535   */\n      pop\n        /* \"#utility.yul\":5621:5625   */\n      0x20\n        /* \"#utility.yul\":5614:5619   */\n      dup4\n        /* \"#utility.yul\":5610:5626   */\n      add\n        /* \"#utility.yul\":5604:5627   */\n      mload\n        /* \"#utility.yul\":5640:5703   */\n      tag_354\n        /* \"#utility.yul\":5697:5701   */\n      0x20\n        /* \"#utility.yul\":5692:5695   */\n      dup7\n        /* \"#utility.yul\":5688:5702   */\n      add\n        /* \"#utility.yul\":5674:5686   */\n      dup3\n        /* \"#utility.yul\":5640:5703   */\n      tag_215\n      jump\t// in\n    tag_354:\n        /* \"#utility.yul\":5545:5713   */\n      pop\n        /* \"#utility.yul\":5801:5805   */\n      0x40\n        /* \"#utility.yul\":5794:5799   */\n      dup4\n        /* \"#utility.yul\":5790:5806   */\n      add\n        /* \"#utility.yul\":5784:5807   */\n      mload\n        /* \"#utility.yul\":5854:5857   */\n      dup5\n        /* \"#utility.yul\":5848:5852   */\n      dup3\n        /* \"#utility.yul\":5844:5858   */\n      sub\n        /* \"#utility.yul\":5837:5841   */\n      0x40\n        /* \"#utility.yul\":5832:5835   */\n      dup7\n        /* \"#utility.yul\":5828:5842   */\n      add\n        /* \"#utility.yul\":5821:5859   */\n      mstore\n        /* \"#utility.yul\":5880:5983   */\n      tag_355\n        /* \"#utility.yul\":5978:5982   */\n      dup3\n        /* \"#utility.yul\":5964:5976   */\n      dup3\n        /* \"#utility.yul\":5880:5983   */\n      tag_221\n      jump\t// in\n    tag_355:\n        /* \"#utility.yul\":5872:5983   */\n      swap2\n      pop\n        /* \"#utility.yul\":5723:5994   */\n      pop\n        /* \"#utility.yul\":6089:6093   */\n      0x60\n        /* \"#utility.yul\":6082:6087   */\n      dup4\n        /* \"#utility.yul\":6078:6094   */\n      add\n        /* \"#utility.yul\":6072:6095   */\n      mload\n        /* \"#utility.yul\":6108:6169   */\n      tag_356\n        /* \"#utility.yul\":6163:6167   */\n      0x60\n        /* \"#utility.yul\":6158:6161   */\n      dup7\n        /* \"#utility.yul\":6154:6168   */\n      add\n        /* \"#utility.yul\":6140:6152   */\n      dup3\n        /* \"#utility.yul\":6108:6169   */\n      tag_223\n      jump\t// in\n    tag_356:\n        /* \"#utility.yul\":6004:6179   */\n      pop\n        /* \"#utility.yul\":6278:6282   */\n      0x80\n        /* \"#utility.yul\":6271:6276   */\n      dup4\n        /* \"#utility.yul\":6267:6283   */\n      add\n        /* \"#utility.yul\":6261:6284   */\n      mload\n        /* \"#utility.yul\":6297:6358   */\n      tag_357\n        /* \"#utility.yul\":6352:6356   */\n      0x80\n        /* \"#utility.yul\":6347:6350   */\n      dup7\n        /* \"#utility.yul\":6343:6357   */\n      add\n        /* \"#utility.yul\":6329:6341   */\n      dup3\n        /* \"#utility.yul\":6297:6358   */\n      tag_223\n      jump\t// in\n    tag_357:\n        /* \"#utility.yul\":6189:6368   */\n      pop\n        /* \"#utility.yul\":6452:6456   */\n      0xa0\n        /* \"#utility.yul\":6445:6450   */\n      dup4\n        /* \"#utility.yul\":6441:6457   */\n      add\n        /* \"#utility.yul\":6435:6458   */\n      mload\n        /* \"#utility.yul\":6471:6528   */\n      tag_358\n        /* \"#utility.yul\":6522:6526   */\n      0xa0\n        /* \"#utility.yul\":6517:6520   */\n      dup7\n        /* \"#utility.yul\":6513:6527   */\n      add\n        /* \"#utility.yul\":6499:6511   */\n      dup3\n        /* \"#utility.yul\":6471:6528   */\n      tag_225\n      jump\t// in\n    tag_358:\n        /* \"#utility.yul\":6378:6538   */\n      pop\n        /* \"#utility.yul\":6555:6559   */\n      dup1\n        /* \"#utility.yul\":6548:6559   */\n      swap2\n      pop\n        /* \"#utility.yul\":5254:6565   */\n      pop\n        /* \"#utility.yul\":5128:6565   */\n      swap3\n      swap2\n      pop\n      pop\n      jump\t// out\n        /* \"#utility.yul\":6571:6948   */\n    tag_25:\n        /* \"#utility.yul\":6716:6720   */\n      0x00\n        /* \"#utility.yul\":6754:6756   */\n      0x20\n        /* \"#utility.yul\":6743:6752   */\n      dup3\n        /* \"#utility.yul\":6739:6757   */\n      add\n        /* \"#utility.yul\":6731:6757   */\n      swap1\n      pop\n        /* \"#utility.yul\":6803:6812   */\n      dup2\n        /* \"#utility.yul\":6797:6801   */\n      dup2\n        /* \"#utility.yul\":6793:6813   */\n      sub\n        /* \"#utility.yul\":6789:6790   */\n      0x00\n        /* \"#utility.yul\":6778:6787   */\n      dup4\n        /* \"#utility.yul\":6774:6791   */\n      add\n        /* \"#utility.yul\":6767:6814   */\n      mstore\n        /* \"#utility.yul\":6831:6941   */\n      tag_360\n        /* \"#utility.yul\":6936:6940   */\n      dup2\n        /* \"#utility.yul\":6927:6933   */\n      dup5\n        /* \"#utility.yul\":6831:6941   */\n      tag_226\n      jump\t// in\n    tag_360:\n        /* \"#utility.yul\":6823:6941   */\n      swap1\n      pop\n        /* \"#utility.yul\":6571:6948   */\n      swap3\n      swap2\n      pop\n      pop\n      jump\t// out\n        /* \"#utility.yul\":6954:7072   */\n    tag_227:\n        /* \"#utility.yul\":7041:7065   */\n      tag_362\n        /* \"#utility.yul\":7059:7064   */\n      dup2\n        /* \"#utility.yul\":7041:7065   */\n      tag_207\n      jump\t// in\n    tag_362:\n        /* \"#utility.yul\":7036:7039   */\n      dup3\n        /* \"#utility.yul\":7029:7066   */\n      mstore\n        /* \"#utility.yul\":6954:7072   */\n      pop\n      pop\n      jump\t// out\n        /* \"#utility.yul\":7078:7300   */\n    tag_30:\n        /* \"#utility.yul\":7171:7175   */\n      0x00\n        /* \"#utility.yul\":7209:7211   */\n      0x20\n        /* \"#utility.yul\":7198:7207   */\n      dup3\n        /* \"#utility.yul\":7194:7212   */\n      add\n        /* \"#utility.yul\":7186:7212   */\n      swap1\n      pop\n        /* \"#utility.yul\":7222:7293   */\n      tag_364\n        /* \"#utility.yul\":7290:7291   */\n      0x00\n        /* \"#utility.yul\":7279:7288   */\n      dup4\n        /* \"#utility.yul\":7275:7292   */\n      add\n        /* \"#utility.yul\":7266:7272   */\n      dup5\n        /* \"#utility.yul\":7222:7293   */\n      tag_227\n      jump\t// in\n    tag_364:\n        /* \"#utility.yul\":7078:7300   */\n      swap3\n      swap2\n      pop\n      pop\n      jump\t// out\n        /* \"#utility.yul\":7306:7635   */\n    tag_33:\n        /* \"#utility.yul\":7365:7371   */\n      0x00\n        /* \"#utility.yul\":7414:7416   */\n      0x20\n        /* \"#utility.yul\":7402:7411   */\n      dup3\n        /* \"#utility.yul\":7393:7400   */\n      dup5\n        /* \"#utility.yul\":7389:7412   */\n      sub\n        /* \"#utility.yul\":7385:7417   */\n      slt\n        /* \"#utility.yul\":7382:7501   */\n      iszero\n      tag_366\n      jumpi\n        /* \"#utility.yul\":7420:7499   */\n      tag_367\n      tag_201\n      jump\t// in\n    tag_367:\n        /* \"#utility.yul\":7382:7501   */\n    tag_366:\n        /* \"#utility.yul\":7540:7541   */\n      0x00\n        /* \"#utility.yul\":7565:7618   */\n      tag_368\n        /* \"#utility.yul\":7610:7617   */\n      dup5\n        /* \"#utility.yul\":7601:7607   */\n      dup3\n        /* \"#utility.yul\":7590:7599   */\n      dup6\n        /* \"#utility.yul\":7586:7608   */\n      add\n        /* \"#utility.yul\":7565:7618   */\n      tag_206\n      jump\t// in\n    tag_368:\n        /* \"#utility.yul\":7555:7618   */\n      swap2\n      pop\n        /* \"#utility.yul\":7511:7628   */\n      pop\n        /* \"#utility.yul\":7306:7635   */\n      swap3\n      swap2\n      pop\n      pop\n      jump\t// out\n        /* \"#utility.yul\":7641:7825   */\n    tag_228:\n        /* \"#utility.yul\":7740:7751   */\n      0x00\n        /* \"#utility.yul\":7774:7780   */\n      dup3\n        /* \"#utility.yul\":7769:7772   */\n      dup3\n        /* \"#utility.yul\":7762:7781   */\n      mstore\n        /* \"#utility.yul\":7814:7818   */\n      0x20\n        /* \"#utility.yul\":7809:7812   */\n      dup3\n        /* \"#utility.yul\":7805:7819   */\n      add\n        /* \"#utility.yul\":7790:7819   */\n      swap1\n      pop\n        /* \"#utility.yul\":7641:7825   */\n      swap3\n      swap2\n      pop\n      pop\n      jump\t// out\n        /* \"#utility.yul\":7861:8593   */\n    tag_229:\n        /* \"#utility.yul\":7980:7983   */\n      0x00\n        /* \"#utility.yul\":8009:8063   */\n      tag_371\n        /* \"#utility.yul\":8057:8062   */\n      dup3\n        /* \"#utility.yul\":8009:8063   */\n      tag_216\n      jump\t// in\n    tag_371:\n        /* \"#utility.yul\":8079:8165   */\n      tag_372\n        /* \"#utility.yul\":8158:8164   */\n      dup2\n        /* \"#utility.yul\":8153:8156   */\n      dup6\n        /* \"#utility.yul\":8079:8165   */\n      tag_228\n      jump\t// in\n    tag_372:\n        /* \"#utility.yul\":8072:8165   */\n      swap4\n      pop\n        /* \"#utility.yul\":8189:8245   */\n      tag_373\n        /* \"#utility.yul\":8239:8244   */\n      dup4\n        /* \"#utility.yul\":8189:8245   */\n      tag_218\n      jump\t// in\n    tag_373:\n        /* \"#utility.yul\":8268:8275   */\n      dup1\n        /* \"#utility.yul\":8299:8300   */\n      0x00\n        /* \"#utility.yul\":8284:8568   */\n    tag_374:\n        /* \"#utility.yul\":8309:8315   */\n      dup4\n        /* \"#utility.yul\":8306:8307   */\n      dup2\n        /* \"#utility.yul\":8303:8316   */\n      lt\n        /* \"#utility.yul\":8284:8568   */\n      iszero\n      tag_376\n      jumpi\n        /* \"#utility.yul\":8385:8391   */\n      dup2\n        /* \"#utility.yul\":8379:8392   */\n      mload\n        /* \"#utility.yul\":8412:8475   */\n      tag_377\n        /* \"#utility.yul\":8471:8474   */\n      dup9\n        /* \"#utility.yul\":8456:8469   */\n      dup3\n        /* \"#utility.yul\":8412:8475   */\n      tag_219\n      jump\t// in\n    tag_377:\n        /* \"#utility.yul\":8405:8475   */\n      swap8\n      pop\n        /* \"#utility.yul\":8498:8558   */\n      tag_378\n        /* \"#utility.yul\":8551:8557   */\n      dup4\n        /* \"#utility.yul\":8498:8558   */\n      tag_220\n      jump\t// in\n    tag_378:\n        /* \"#utility.yul\":8488:8558   */\n      swap3\n      pop\n        /* \"#utility.yul\":8344:8568   */\n      pop\n        /* \"#utility.yul\":8331:8332   */\n      0x01\n        /* \"#utility.yul\":8328:8329   */\n      dup2\n        /* \"#utility.yul\":8324:8333   */\n      add\n        /* \"#utility.yul\":8319:8333   */\n      swap1\n      pop\n        /* \"#utility.yul\":8284:8568   */\n      jump(tag_374)\n    tag_376:\n        /* \"#utility.yul\":8288:8302   */\n      pop\n        /* \"#utility.yul\":8584:8587   */\n      dup6\n        /* \"#utility.yul\":8577:8587   */\n      swap4\n      pop\n        /* \"#utility.yul\":7985:8593   */\n      pop\n      pop\n      pop\n        /* \"#utility.yul\":7861:8593   */\n      swap3\n      swap2\n      pop\n      pop\n      jump\t// out\n        /* \"#utility.yul\":8599:8972   */\n    tag_40:\n        /* \"#utility.yul\":8742:8746   */\n      0x00\n        /* \"#utility.yul\":8780:8782   */\n      0x20\n        /* \"#utility.yul\":8769:8778   */\n      dup3\n        /* \"#utility.yul\":8765:8783   */\n      add\n        /* \"#utility.yul\":8757:8783   */\n      swap1\n      pop\n        /* \"#utility.yul\":8829:8838   */\n      dup2\n        /* \"#utility.yul\":8823:8827   */\n      dup2\n        /* \"#utility.yul\":8819:8839   */\n      sub\n        /* \"#utility.yul\":8815:8816   */\n      0x00\n        /* \"#utility.yul\":8804:8813   */\n      dup4\n        /* \"#utility.yul\":8800:8817   */\n      add\n        /* \"#utility.yul\":8793:8840   */\n      mstore\n        /* \"#utility.yul\":8857:8965   */\n      tag_380\n        /* \"#utility.yul\":8960:8964   */\n      dup2\n        /* \"#utility.yul\":8951:8957   */\n      dup5\n        /* \"#utility.yul\":8857:8965   */\n      tag_229\n      jump\t// in\n    tag_380:\n        /* \"#utility.yul\":8849:8965   */\n      swap1\n      pop\n        /* \"#utility.yul\":8599:8972   */\n      swap3\n      swap2\n      pop\n      pop\n      jump\t// out\n        /* \"#utility.yul\":8978:9092   */\n    tag_230:\n        /* \"#utility.yul\":9045:9051   */\n      0x00\n        /* \"#utility.yul\":9079:9084   */\n      dup2\n        /* \"#utility.yul\":9073:9085   */\n      mload\n        /* \"#utility.yul\":9063:9085   */\n      swap1\n      pop\n        /* \"#utility.yul\":8978:9092   */\n      swap2\n      swap1\n      pop\n      jump\t// out\n        /* \"#utility.yul\":9098:9282   */\n    tag_231:\n        /* \"#utility.yul\":9197:9208   */\n      0x00\n        /* \"#utility.yul\":9231:9237   */\n      dup3\n        /* \"#utility.yul\":9226:9229   */\n      dup3\n        /* \"#utility.yul\":9219:9238   */\n      mstore\n        /* \"#utility.yul\":9271:9275   */\n      0x20\n        /* \"#utility.yul\":9266:9269   */\n      dup3\n        /* \"#utility.yul\":9262:9276   */\n      add\n        /* \"#utility.yul\":9247:9276   */\n      swap1\n      pop\n        /* \"#utility.yul\":9098:9282   */\n      swap3\n      swap2\n      pop\n      pop\n      jump\t// out\n        /* \"#utility.yul\":9288:9420   */\n    tag_232:\n        /* \"#utility.yul\":9355:9359   */\n      0x00\n        /* \"#utility.yul\":9378:9381   */\n      dup2\n        /* \"#utility.yul\":9370:9381   */\n      swap1\n      pop\n        /* \"#utility.yul\":9408:9412   */\n      0x20\n        /* \"#utility.yul\":9403:9406   */\n      dup3\n        /* \"#utility.yul\":9399:9413   */\n      add\n        /* \"#utility.yul\":9391:9413   */\n      swap1\n      pop\n        /* \"#utility.yul\":9288:9420   */\n      swap2\n      swap1\n      pop\n      jump\t// out\n        /* \"#utility.yul\":9426:9534   */\n    tag_233:\n        /* \"#utility.yul\":9503:9527   */\n      tag_385\n        /* \"#utility.yul\":9521:9526   */\n      dup2\n        /* \"#utility.yul\":9503:9527   */\n      tag_207\n      jump\t// in\n    tag_385:\n        /* \"#utility.yul\":9498:9501   */\n      dup3\n        /* \"#utility.yul\":9491:9528   */\n      mstore\n        /* \"#utility.yul\":9426:9534   */\n      pop\n      pop\n      jump\t// out\n        /* \"#utility.yul\":9540:9719   */\n    tag_234:\n        /* \"#utility.yul\":9609:9619   */\n      0x00\n        /* \"#utility.yul\":9630:9676   */\n      tag_387\n        /* \"#utility.yul\":9672:9675   */\n      dup4\n        /* \"#utility.yul\":9664:9670   */\n      dup4\n        /* \"#utility.yul\":9630:9676   */\n      tag_233\n      jump\t// in\n    tag_387:\n        /* \"#utility.yul\":9708:9712   */\n      0x20\n        /* \"#utility.yul\":9703:9706   */\n      dup4\n        /* \"#utility.yul\":9699:9713   */\n      add\n        /* \"#utility.yul\":9685:9713   */\n      swap1\n      pop\n        /* \"#utility.yul\":9540:9719   */\n      swap3\n      swap2\n      pop\n      pop\n      jump\t// out\n        /* \"#utility.yul\":9725:9838   */\n    tag_235:\n        /* \"#utility.yul\":9795:9799   */\n      0x00\n        /* \"#utility.yul\":9827:9831   */\n      0x20\n        /* \"#utility.yul\":9822:9825   */\n      dup3\n        /* \"#utility.yul\":9818:9832   */\n      add\n        /* \"#utility.yul\":9810:9832   */\n      swap1\n      pop\n        /* \"#utility.yul\":9725:9838   */\n      swap2\n      swap1\n      pop\n      jump\t// out\n        /* \"#utility.yul\":9874:10606   */\n    tag_236:\n        /* \"#utility.yul\":9993:9996   */\n      0x00\n        /* \"#utility.yul\":10022:10076   */\n      tag_390\n        /* \"#utility.yul\":10070:10075   */\n      dup3\n        /* \"#utility.yul\":10022:10076   */\n      tag_230\n      jump\t// in\n    tag_390:\n        /* \"#utility.yul\":10092:10178   */\n      tag_391\n        /* \"#utility.yul\":10171:10177   */\n      dup2\n        /* \"#utility.yul\":10166:10169   */\n      dup6\n        /* \"#utility.yul\":10092:10178   */\n      tag_231\n      jump\t// in\n    tag_391:\n        /* \"#utility.yul\":10085:10178   */\n      swap4\n      pop\n        /* \"#utility.yul\":10202:10258   */\n      tag_392\n        /* \"#utility.yul\":10252:10257   */\n      dup4\n        /* \"#utility.yul\":10202:10258   */\n      tag_232\n      jump\t// in\n    tag_392:\n        /* \"#utility.yul\":10281:10288   */\n      dup1\n        /* \"#utility.yul\":10312:10313   */\n      0x00\n        /* \"#utility.yul\":10297:10581   */\n    tag_393:\n        /* \"#utility.yul\":10322:10328   */\n      dup4\n        /* \"#utility.yul\":10319:10320   */\n      dup2\n        /* \"#utility.yul\":10316:10329   */\n      lt\n        /* \"#utility.yul\":10297:10581   */\n      iszero\n      tag_395\n      jumpi\n        /* \"#utility.yul\":10398:10404   */\n      dup2\n        /* \"#utility.yul\":10392:10405   */\n      mload\n        /* \"#utility.yul\":10425:10488   */\n      tag_396\n        /* \"#utility.yul\":10484:10487   */\n      dup9\n        /* \"#utility.yul\":10469:10482   */\n      dup3\n        /* \"#utility.yul\":10425:10488   */\n      tag_234\n      jump\t// in\n    tag_396:\n        /* \"#utility.yul\":10418:10488   */\n      swap8\n      pop\n        /* \"#utility.yul\":10511:10571   */\n      tag_397\n        /* \"#utility.yul\":10564:10570   */\n      dup4\n        /* \"#utility.yul\":10511:10571   */\n      tag_235\n      jump\t// in\n    tag_397:\n        /* \"#utility.yul\":10501:10571   */\n      swap3\n      pop\n        /* \"#utility.yul\":10357:10581   */\n      pop\n        /* \"#utility.yul\":10344:10345   */\n      0x01\n        /* \"#utility.yul\":10341:10342   */\n      dup2\n        /* \"#utility.yul\":10337:10346   */\n      add\n        /* \"#utility.yul\":10332:10346   */\n      swap1\n      pop\n        /* \"#utility.yul\":10297:10581   */\n      jump(tag_393)\n    tag_395:\n        /* \"#utility.yul\":10301:10315   */\n      pop\n        /* \"#utility.yul\":10597:10600   */\n      dup6\n        /* \"#utility.yul\":10590:10600   */\n      swap4\n      pop\n        /* \"#utility.yul\":9998:10606   */\n      pop\n      pop\n      pop\n        /* \"#utility.yul\":9874:10606   */\n      swap3\n      swap2\n      pop\n      pop\n      jump\t// out\n        /* \"#utility.yul\":10612:10730   */\n    tag_237:\n        /* \"#utility.yul\":10699:10723   */\n      tag_399\n        /* \"#utility.yul\":10717:10722   */\n      dup2\n        /* \"#utility.yul\":10699:10723   */\n      tag_204\n      jump\t// in\n    tag_399:\n        /* \"#utility.yul\":10694:10697   */\n      dup3\n        /* \"#utility.yul\":10687:10724   */\n      mstore\n        /* \"#utility.yul\":10612:10730   */\n      pop\n      pop\n      jump\t// out\n        /* \"#utility.yul\":10736:11329   */\n    tag_45:\n        /* \"#utility.yul\":10935:10939   */\n      0x00\n        /* \"#utility.yul\":10973:10975   */\n      0x60\n        /* \"#utility.yul\":10962:10971   */\n      dup3\n        /* \"#utility.yul\":10958:10976   */\n      add\n        /* \"#utility.yul\":10950:10976   */\n      swap1\n      pop\n        /* \"#utility.yul\":11022:11031   */\n      dup2\n        /* \"#utility.yul\":11016:11020   */\n      dup2\n        /* \"#utility.yul\":11012:11032   */\n      sub\n        /* \"#utility.yul\":11008:11009   */\n      0x00\n        /* \"#utility.yul\":10997:11006   */\n      dup4\n        /* \"#utility.yul\":10993:11010   */\n      add\n        /* \"#utility.yul\":10986:11033   */\n      mstore\n        /* \"#utility.yul\":11050:11158   */\n      tag_401\n        /* \"#utility.yul\":11153:11157   */\n      dup2\n        /* \"#utility.yul\":11144:11150   */\n      dup7\n        /* \"#utility.yul\":11050:11158   */\n      tag_236\n      jump\t// in\n    tag_401:\n        /* \"#utility.yul\":11042:11158   */\n      swap1\n      pop\n        /* \"#utility.yul\":11168:11240   */\n      tag_402\n        /* \"#utility.yul\":11236:11238   */\n      0x20\n        /* \"#utility.yul\":11225:11234   */\n      dup4\n        /* \"#utility.yul\":11221:11239   */\n      add\n        /* \"#utility.yul\":11212:11218   */\n      dup6\n        /* \"#utility.yul\":11168:11240   */\n      tag_237\n      jump\t// in\n    tag_402:\n        /* \"#utility.yul\":11250:11322   */\n      tag_403\n        /* \"#utility.yul\":11318:11320   */\n      0x40\n        /* \"#utility.yul\":11307:11316   */\n      dup4\n        /* \"#utility.yul\":11303:11321   */\n      add\n        /* \"#utility.yul\":11294:11300   */\n      dup5\n        /* \"#utility.yul\":11250:11322   */\n      tag_227\n      jump\t// in\n    tag_403:\n        /* \"#utility.yul\":10736:11329   */\n      swap5\n      swap4\n      pop\n      pop\n      pop\n      pop\n      jump\t// out\n        /* \"#utility.yul\":11335:12100   */\n    tag_52:\n        /* \"#utility.yul\":11421:11427   */\n      0x00\n        /* \"#utility.yul\":11429:11435   */\n      dup1\n        /* \"#utility.yul\":11437:11443   */\n      0x00\n        /* \"#utility.yul\":11445:11451   */\n      dup1\n        /* \"#utility.yul\":11494:11497   */\n      0x80\n        /* \"#utility.yul\":11482:11491   */\n      dup6\n        /* \"#utility.yul\":11473:11480   */\n      dup8\n        /* \"#utility.yul\":11469:11492   */\n      sub\n        /* \"#utility.yul\":11465:11498   */\n      slt\n        /* \"#utility.yul\":11462:11582   */\n      iszero\n      tag_405\n      jumpi\n        /* \"#utility.yul\":11501:11580   */\n      tag_406\n      tag_201\n      jump\t// in\n    tag_406:\n        /* \"#utility.yul\":11462:11582   */\n    tag_405:\n        /* \"#utility.yul\":11621:11622   */\n      0x00\n        /* \"#utility.yul\":11646:11699   */\n      tag_407\n        /* \"#utility.yul\":11691:11698   */\n      dup8\n        /* \"#utility.yul\":11682:11688   */\n      dup3\n        /* \"#utility.yul\":11671:11680   */\n      dup9\n        /* \"#utility.yul\":11667:11689   */\n      add\n        /* \"#utility.yul\":11646:11699   */\n      tag_206\n      jump\t// in\n    tag_407:\n        /* \"#utility.yul\":11636:11699   */\n      swap5\n      pop\n        /* \"#utility.yul\":11592:11709   */\n      pop\n        /* \"#utility.yul\":11748:11750   */\n      0x20\n        /* \"#utility.yul\":11774:11827   */\n      tag_408\n        /* \"#utility.yul\":11819:11826   */\n      dup8\n        /* \"#utility.yul\":11810:11816   */\n      dup3\n        /* \"#utility.yul\":11799:11808   */\n      dup9\n        /* \"#utility.yul\":11795:11817   */\n      add\n        /* \"#utility.yul\":11774:11827   */\n      tag_209\n      jump\t// in\n    tag_408:\n        /* \"#utility.yul\":11764:11827   */\n      swap4\n      pop\n        /* \"#utility.yul\":11719:11837   */\n      pop\n        /* \"#utility.yul\":11876:11878   */\n      0x40\n        /* \"#utility.yul\":11902:11955   */\n      tag_409\n        /* \"#utility.yul\":11947:11954   */\n      dup8\n        /* \"#utility.yul\":11938:11944   */\n      dup3\n        /* \"#utility.yul\":11927:11936   */\n      dup9\n        /* \"#utility.yul\":11923:11945   */\n      add\n        /* \"#utility.yul\":11902:11955   */\n      tag_209\n      jump\t// in\n    tag_409:\n        /* \"#utility.yul\":11892:11955   */\n      swap3\n      pop\n        /* \"#utility.yul\":11847:11965   */\n      pop\n        /* \"#utility.yul\":12004:12006   */\n      0x60\n        /* \"#utility.yul\":12030:12083   */\n      tag_410\n        /* \"#utility.yul\":12075:12082   */\n      dup8\n        /* \"#utility.yul\":12066:12072   */\n      dup3\n        /* \"#utility.yul\":12055:12064   */\n      dup9\n        /* \"#utility.yul\":12051:12073   */\n      add\n        /* \"#utility.yul\":12030:12083   */\n      tag_209\n      jump\t// in\n    tag_410:\n        /* \"#utility.yul\":12020:12083   */\n      swap2\n      pop\n        /* \"#utility.yul\":11975:12093   */\n      pop\n        /* \"#utility.yul\":11335:12100   */\n      swap3\n      swap6\n      swap2\n      swap5\n      pop\n      swap3\n      pop\n      jump\t// out\n        /* \"#utility.yul\":12106:12183   */\n    tag_238:\n        /* \"#utility.yul\":12143:12150   */\n      0x00\n        /* \"#utility.yul\":12172:12177   */\n      dup2\n        /* \"#utility.yul\":12161:12177   */\n      swap1\n      pop\n        /* \"#utility.yul\":12106:12183   */\n      swap2\n      swap1\n      pop\n      jump\t// out\n        /* \"#utility.yul\":12189:12307   */\n    tag_239:\n        /* \"#utility.yul\":12276:12300   */\n      tag_413\n        /* \"#utility.yul\":12294:12299   */\n      dup2\n        /* \"#utility.yul\":12276:12300   */\n      tag_238\n      jump\t// in\n    tag_413:\n        /* \"#utility.yul\":12271:12274   */\n      dup3\n        /* \"#utility.yul\":12264:12301   */\n      mstore\n        /* \"#utility.yul\":12189:12307   */\n      pop\n      pop\n      jump\t// out\n        /* \"#utility.yul\":12313:12535   */\n    tag_55:\n        /* \"#utility.yul\":12406:12410   */\n      0x00\n        /* \"#utility.yul\":12444:12446   */\n      0x20\n        /* \"#utility.yul\":12433:12442   */\n      dup3\n        /* \"#utility.yul\":12429:12447   */\n      add\n        /* \"#utility.yul\":12421:12447   */\n      swap1\n      pop\n        /* \"#utility.yul\":12457:12528   */\n      tag_415\n        /* \"#utility.yul\":12525:12526   */\n      0x00\n        /* \"#utility.yul\":12514:12523   */\n      dup4\n        /* \"#utility.yul\":12510:12527   */\n      add\n        /* \"#utility.yul\":12501:12507   */\n      dup5\n        /* \"#utility.yul\":12457:12528   */\n      tag_239\n      jump\t// in\n    tag_415:\n        /* \"#utility.yul\":12313:12535   */\n      swap3\n      swap2\n      pop\n      pop\n      jump\t// out\n        /* \"#utility.yul\":12541:12658   */\n    tag_240:\n        /* \"#utility.yul\":12650:12651   */\n      0x00\n        /* \"#utility.yul\":12647:12648   */\n      dup1\n        /* \"#utility.yul\":12640:12652   */\n      revert\n        /* \"#utility.yul\":12664:12781   */\n    tag_241:\n        /* \"#utility.yul\":12773:12774   */\n      0x00\n        /* \"#utility.yul\":12770:12771   */\n      dup1\n        /* \"#utility.yul\":12763:12775   */\n      revert\n        /* \"#utility.yul\":12787:12967   */\n    tag_108:\n        /* \"#utility.yul\":12835:12912   */\n      0x4e487b7100000000000000000000000000000000000000000000000000000000\n        /* \"#utility.yul\":12832:12833   */\n      0x00\n        /* \"#utility.yul\":12825:12913   */\n      mstore\n        /* \"#utility.yul\":12932:12936   */\n      0x41\n        /* \"#utility.yul\":12929:12930   */\n      0x04\n        /* \"#utility.yul\":12922:12937   */\n      mstore\n        /* \"#utility.yul\":12956:12960   */\n      0x24\n        /* \"#utility.yul\":12953:12954   */\n      0x00\n        /* \"#utility.yul\":12946:12961   */\n      revert\n        /* \"#utility.yul\":12973:13254   */\n    tag_242:\n        /* \"#utility.yul\":13056:13083   */\n      tag_420\n        /* \"#utility.yul\":13078:13082   */\n      dup3\n        /* \"#utility.yul\":13056:13083   */\n      tag_213\n      jump\t// in\n    tag_420:\n        /* \"#utility.yul\":13048:13054   */\n      dup2\n        /* \"#utility.yul\":13044:13084   */\n      add\n        /* \"#utility.yul\":13186:13192   */\n      dup2\n        /* \"#utility.yul\":13174:13184   */\n      dup2\n        /* \"#utility.yul\":13171:13193   */\n      lt\n        /* \"#utility.yul\":13150:13168   */\n      0xffffffffffffffff\n        /* \"#utility.yul\":13138:13148   */\n      dup3\n        /* \"#utility.yul\":13135:13169   */\n      gt\n        /* \"#utility.yul\":13132:13194   */\n      or\n        /* \"#utility.yul\":13129:13217   */\n      iszero\n      tag_421\n      jumpi\n        /* \"#utility.yul\":13197:13215   */\n      tag_422\n      tag_108\n      jump\t// in\n    tag_422:\n        /* \"#utility.yul\":13129:13217   */\n    tag_421:\n        /* \"#utility.yul\":13237:13247   */\n      dup1\n        /* \"#utility.yul\":13233:13235   */\n      0x40\n        /* \"#utility.yul\":13226:13248   */\n      mstore\n        /* \"#utility.yul\":13016:13254   */\n      pop\n        /* \"#utility.yul\":12973:13254   */\n      pop\n      pop\n      jump\t// out\n        /* \"#utility.yul\":13260:13389   */\n    tag_243:\n        /* \"#utility.yul\":13294:13300   */\n      0x00\n        /* \"#utility.yul\":13321:13341   */\n      tag_424\n      tag_200\n      jump\t// in\n    tag_424:\n        /* \"#utility.yul\":13311:13341   */\n      swap1\n      pop\n        /* \"#utility.yul\":13350:13383   */\n      tag_425\n        /* \"#utility.yul\":13378:13382   */\n      dup3\n        /* \"#utility.yul\":13370:13376   */\n      dup3\n        /* \"#utility.yul\":13350:13383   */\n      tag_242\n      jump\t// in\n    tag_425:\n        /* \"#utility.yul\":13260:13389   */\n      swap2\n      swap1\n      pop\n      jump\t// out\n        /* \"#utility.yul\":13395:13702   */\n    tag_244:\n        /* \"#utility.yul\":13456:13460   */\n      0x00\n        /* \"#utility.yul\":13546:13564   */\n      0xffffffffffffffff\n        /* \"#utility.yul\":13538:13544   */\n      dup3\n        /* \"#utility.yul\":13535:13565   */\n      gt\n        /* \"#utility.yul\":13532:13588   */\n      iszero\n      tag_427\n      jumpi\n        /* \"#utility.yul\":13568:13586   */\n      tag_428\n      tag_108\n      jump\t// in\n    tag_428:\n        /* \"#utility.yul\":13532:13588   */\n    tag_427:\n        /* \"#utility.yul\":13606:13635   */\n      tag_429\n        /* \"#utility.yul\":13628:13634   */\n      dup3\n        /* \"#utility.yul\":13606:13635   */\n      tag_213\n      jump\t// in\n    tag_429:\n        /* \"#utility.yul\":13598:13635   */\n      swap1\n      pop\n        /* \"#utility.yul\":13690:13694   */\n      0x20\n        /* \"#utility.yul\":13684:13688   */\n      dup2\n        /* \"#utility.yul\":13680:13695   */\n      add\n        /* \"#utility.yul\":13672:13695   */\n      swap1\n      pop\n        /* \"#utility.yul\":13395:13702   */\n      swap2\n      swap1\n      pop\n      jump\t// out\n        /* \"#utility.yul\":13708:13862   */\n    tag_245:\n        /* \"#utility.yul\":13792:13798   */\n      dup3\n        /* \"#utility.yul\":13787:13790   */\n      dup2\n        /* \"#utility.yul\":13782:13785   */\n      dup4\n        /* \"#utility.yul\":13769:13799   */\n      calldatacopy\n        /* \"#utility.yul\":13854:13855   */\n      0x00\n        /* \"#utility.yul\":13845:13851   */\n      dup4\n        /* \"#utility.yul\":13840:13843   */\n      dup4\n        /* \"#utility.yul\":13836:13852   */\n      add\n        /* \"#utility.yul\":13829:13856   */\n      mstore\n        /* \"#utility.yul\":13708:13862   */\n      pop\n      pop\n      pop\n      jump\t// out\n        /* \"#utility.yul\":13868:14278   */\n    tag_246:\n        /* \"#utility.yul\":13945:13950   */\n      0x00\n        /* \"#utility.yul\":13970:14035   */\n      tag_432\n        /* \"#utility.yul\":13986:14034   */\n      tag_433\n        /* \"#utility.yul\":14027:14033   */\n      dup5\n        /* \"#utility.yul\":13986:14034   */\n      tag_244\n      jump\t// in\n    tag_433:\n        /* \"#utility.yul\":13970:14035   */\n      tag_243\n      jump\t// in\n    tag_432:\n        /* \"#utility.yul\":13961:14035   */\n      swap1\n      pop\n        /* \"#utility.yul\":14058:14064   */\n      dup3\n        /* \"#utility.yul\":14051:14056   */\n      dup2\n        /* \"#utility.yul\":14044:14065   */\n      mstore\n        /* \"#utility.yul\":14096:14100   */\n      0x20\n        /* \"#utility.yul\":14089:14094   */\n      dup2\n        /* \"#utility.yul\":14085:14101   */\n      add\n        /* \"#utility.yul\":14134:14137   */\n      dup5\n        /* \"#utility.yul\":14125:14131   */\n      dup5\n        /* \"#utility.yul\":14120:14123   */\n      dup5\n        /* \"#utility.yul\":14116:14132   */\n      add\n        /* \"#utility.yul\":14113:14138   */\n      gt\n        /* \"#utility.yul\":14110:14222   */\n      iszero\n      tag_434\n      jumpi\n        /* \"#utility.yul\":14141:14220   */\n      tag_435\n      tag_241\n      jump\t// in\n    tag_435:\n        /* \"#utility.yul\":14110:14222   */\n    tag_434:\n        /* \"#utility.yul\":14231:14272   */\n      tag_436\n        /* \"#utility.yul\":14265:14271   */\n      dup5\n        /* \"#utility.yul\":14260:14263   */\n      dup3\n        /* \"#utility.yul\":14255:14258   */\n      dup6\n        /* \"#utility.yul\":14231:14272   */\n      tag_245\n      jump\t// in\n    tag_436:\n        /* \"#utility.yul\":13951:14278   */\n      pop\n        /* \"#utility.yul\":13868:14278   */\n      swap4\n      swap3\n      pop\n      pop\n      pop\n      jump\t// out\n        /* \"#utility.yul\":14297:14635   */\n    tag_247:\n        /* \"#utility.yul\":14352:14357   */\n      0x00\n        /* \"#utility.yul\":14401:14404   */\n      dup3\n        /* \"#utility.yul\":14394:14398   */\n      0x1f\n        /* \"#utility.yul\":14386:14392   */\n      dup4\n        /* \"#utility.yul\":14382:14399   */\n      add\n        /* \"#utility.yul\":14378:14405   */\n      slt\n        /* \"#utility.yul\":14368:14490   */\n      tag_438\n      jumpi\n        /* \"#utility.yul\":14409:14488   */\n      tag_439\n      tag_240\n      jump\t// in\n    tag_439:\n        /* \"#utility.yul\":14368:14490   */\n    tag_438:\n        /* \"#utility.yul\":14526:14532   */\n      dup2\n        /* \"#utility.yul\":14513:14533   */\n      calldataload\n        /* \"#utility.yul\":14551:14629   */\n      tag_440\n        /* \"#utility.yul\":14625:14628   */\n      dup5\n        /* \"#utility.yul\":14617:14623   */\n      dup3\n        /* \"#utility.yul\":14610:14614   */\n      0x20\n        /* \"#utility.yul\":14602:14608   */\n      dup7\n        /* \"#utility.yul\":14598:14615   */\n      add\n        /* \"#utility.yul\":14551:14629   */\n      tag_246\n      jump\t// in\n    tag_440:\n        /* \"#utility.yul\":14542:14629   */\n      swap2\n      pop\n        /* \"#utility.yul\":14358:14635   */\n      pop\n        /* \"#utility.yul\":14297:14635   */\n      swap3\n      swap2\n      pop\n      pop\n      jump\t// out\n        /* \"#utility.yul\":14641:15584   */\n    tag_58:\n        /* \"#utility.yul\":14736:14742   */\n      0x00\n        /* \"#utility.yul\":14744:14750   */\n      dup1\n        /* \"#utility.yul\":14752:14758   */\n      0x00\n        /* \"#utility.yul\":14760:14766   */\n      dup1\n        /* \"#utility.yul\":14809:14812   */\n      0x80\n        /* \"#utility.yul\":14797:14806   */\n      dup6\n        /* \"#utility.yul\":14788:14795   */\n      dup8\n        /* \"#utility.yul\":14784:14807   */\n      sub\n        /* \"#utility.yul\":14780:14813   */\n      slt\n        /* \"#utility.yul\":14777:14897   */\n      iszero\n      tag_442\n      jumpi\n        /* \"#utility.yul\":14816:14895   */\n      tag_443\n      tag_201\n      jump\t// in\n    tag_443:\n        /* \"#utility.yul\":14777:14897   */\n    tag_442:\n        /* \"#utility.yul\":14936:14937   */\n      0x00\n        /* \"#utility.yul\":14961:15014   */\n      tag_444\n        /* \"#utility.yul\":15006:15013   */\n      dup8\n        /* \"#utility.yul\":14997:15003   */\n      dup3\n        /* \"#utility.yul\":14986:14995   */\n      dup9\n        /* \"#utility.yul\":14982:15004   */\n      add\n        /* \"#utility.yul\":14961:15014   */\n      tag_206\n      jump\t// in\n    tag_444:\n        /* \"#utility.yul\":14951:15014   */\n      swap5\n      pop\n        /* \"#utility.yul\":14907:15024   */\n      pop\n        /* \"#utility.yul\":15063:15065   */\n      0x20\n        /* \"#utility.yul\":15089:15142   */\n      tag_445\n        /* \"#utility.yul\":15134:15141   */\n      dup8\n        /* \"#utility.yul\":15125:15131   */\n      dup3\n        /* \"#utility.yul\":15114:15123   */\n      dup9\n        /* \"#utility.yul\":15110:15132   */\n      add\n        /* \"#utility.yul\":15089:15142   */\n      tag_209\n      jump\t// in\n    tag_445:\n        /* \"#utility.yul\":15079:15142   */\n      swap4\n      pop\n        /* \"#utility.yul\":15034:15152   */\n      pop\n        /* \"#utility.yul\":15191:15193   */\n      0x40\n        /* \"#utility.yul\":15217:15270   */\n      tag_446\n        /* \"#utility.yul\":15262:15269   */\n      dup8\n        /* \"#utility.yul\":15253:15259   */\n      dup3\n        /* \"#utility.yul\":15242:15251   */\n      dup9\n        /* \"#utility.yul\":15238:15260   */\n      add\n        /* \"#utility.yul\":15217:15270   */\n      tag_209\n      jump\t// in\n    tag_446:\n        /* \"#utility.yul\":15207:15270   */\n      swap3\n      pop\n        /* \"#utility.yul\":15162:15280   */\n      pop\n        /* \"#utility.yul\":15347:15349   */\n      0x60\n        /* \"#utility.yul\":15336:15345   */\n      dup6\n        /* \"#utility.yul\":15332:15350   */\n      add\n        /* \"#utility.yul\":15319:15351   */\n      calldataload\n        /* \"#utility.yul\":15378:15396   */\n      0xffffffffffffffff\n        /* \"#utility.yul\":15370:15376   */\n      dup2\n        /* \"#utility.yul\":15367:15397   */\n      gt\n        /* \"#utility.yul\":15364:15481   */\n      iszero\n      tag_447\n      jumpi\n        /* \"#utility.yul\":15400:15479   */\n      tag_448\n      tag_202\n      jump\t// in\n    tag_448:\n        /* \"#utility.yul\":15364:15481   */\n    tag_447:\n        /* \"#utility.yul\":15505:15567   */\n      tag_449\n        /* \"#utility.yul\":15559:15566   */\n      dup8\n        /* \"#utility.yul\":15550:15556   */\n      dup3\n        /* \"#utility.yul\":15539:15548   */\n      dup9\n        /* \"#utility.yul\":15535:15557   */\n      add\n        /* \"#utility.yul\":15505:15567   */\n      tag_247\n      jump\t// in\n    tag_449:\n        /* \"#utility.yul\":15495:15567   */\n      swap2\n      pop\n        /* \"#utility.yul\":15290:15577   */\n      pop\n        /* \"#utility.yul\":14641:15584   */\n      swap3\n      swap6\n      swap2\n      swap5\n      pop\n      swap3\n      pop\n      jump\t// out\n        /* \"#utility.yul\":15590:15759   */\n    tag_248:\n        /* \"#utility.yul\":15674:15685   */\n      0x00\n        /* \"#utility.yul\":15708:15714   */\n      dup3\n        /* \"#utility.yul\":15703:15706   */\n      dup3\n        /* \"#utility.yul\":15696:15715   */\n      mstore\n        /* \"#utility.yul\":15748:15752   */\n      0x20\n        /* \"#utility.yul\":15743:15746   */\n      dup3\n        /* \"#utility.yul\":15739:15753   */\n      add\n        /* \"#utility.yul\":15724:15753   */\n      swap1\n      pop\n        /* \"#utility.yul\":15590:15759   */\n      swap3\n      swap2\n      pop\n      pop\n      jump\t// out\n        /* \"#utility.yul\":15765:16129   */\n    tag_249:\n        /* \"#utility.yul\":15853:15856   */\n      0x00\n        /* \"#utility.yul\":15881:15920   */\n      tag_452\n        /* \"#utility.yul\":15914:15919   */\n      dup3\n        /* \"#utility.yul\":15881:15920   */\n      tag_210\n      jump\t// in\n    tag_452:\n        /* \"#utility.yul\":15936:16007   */\n      tag_453\n        /* \"#utility.yul\":16000:16006   */\n      dup2\n        /* \"#utility.yul\":15995:15998   */\n      dup6\n        /* \"#utility.yul\":15936:16007   */\n      tag_248\n      jump\t// in\n    tag_453:\n        /* \"#utility.yul\":15929:16007   */\n      swap4\n      pop\n        /* \"#utility.yul\":16016:16068   */\n      tag_454\n        /* \"#utility.yul\":16061:16067   */\n      dup2\n        /* \"#utility.yul\":16056:16059   */\n      dup6\n        /* \"#utility.yul\":16049:16053   */\n      0x20\n        /* \"#utility.yul\":16042:16047   */\n      dup7\n        /* \"#utility.yul\":16038:16054   */\n      add\n        /* \"#utility.yul\":16016:16068   */\n      tag_212\n      jump\t// in\n    tag_454:\n        /* \"#utility.yul\":16093:16122   */\n      tag_455\n        /* \"#utility.yul\":16115:16121   */\n      dup2\n        /* \"#utility.yul\":16093:16122   */\n      tag_213\n      jump\t// in\n    tag_455:\n        /* \"#utility.yul\":16088:16091   */\n      dup5\n        /* \"#utility.yul\":16084:16123   */\n      add\n        /* \"#utility.yul\":16077:16123   */\n      swap2\n      pop\n        /* \"#utility.yul\":15857:16129   */\n      pop\n        /* \"#utility.yul\":15765:16129   */\n      swap3\n      swap2\n      pop\n      pop\n      jump\t// out\n        /* \"#utility.yul\":16135:16250   */\n    tag_250:\n        /* \"#utility.yul\":16220:16243   */\n      tag_457\n        /* \"#utility.yul\":16237:16242   */\n      dup2\n        /* \"#utility.yul\":16220:16243   */\n      tag_222\n      jump\t// in\n    tag_457:\n        /* \"#utility.yul\":16215:16218   */\n      dup3\n        /* \"#utility.yul\":16208:16244   */\n      mstore\n        /* \"#utility.yul\":16135:16250   */\n      pop\n      pop\n      jump\t// out\n        /* \"#utility.yul\":16256:16365   */\n    tag_251:\n        /* \"#utility.yul\":16337:16358   */\n      tag_459\n        /* \"#utility.yul\":16352:16357   */\n      dup2\n        /* \"#utility.yul\":16337:16358   */\n      tag_224\n      jump\t// in\n    tag_459:\n        /* \"#utility.yul\":16332:16335   */\n      dup3\n        /* \"#utility.yul\":16325:16359   */\n      mstore\n        /* \"#utility.yul\":16256:16365   */\n      pop\n      pop\n      jump\t// out\n        /* \"#utility.yul\":16371:17106   */\n    tag_67:\n        /* \"#utility.yul\":16586:16590   */\n      0x00\n        /* \"#utility.yul\":16624:16627   */\n      0xa0\n        /* \"#utility.yul\":16613:16622   */\n      dup3\n        /* \"#utility.yul\":16609:16628   */\n      add\n        /* \"#utility.yul\":16601:16628   */\n      swap1\n      pop\n        /* \"#utility.yul\":16674:16683   */\n      dup2\n        /* \"#utility.yul\":16668:16672   */\n      dup2\n        /* \"#utility.yul\":16664:16684   */\n      sub\n        /* \"#utility.yul\":16660:16661   */\n      0x00\n        /* \"#utility.yul\":16649:16658   */\n      dup4\n        /* \"#utility.yul\":16645:16662   */\n      add\n        /* \"#utility.yul\":16638:16685   */\n      mstore\n        /* \"#utility.yul\":16702:16780   */\n      tag_461\n        /* \"#utility.yul\":16775:16779   */\n      dup2\n        /* \"#utility.yul\":16766:16772   */\n      dup9\n        /* \"#utility.yul\":16702:16780   */\n      tag_249\n      jump\t// in\n    tag_461:\n        /* \"#utility.yul\":16694:16780   */\n      swap1\n      pop\n        /* \"#utility.yul\":16790:16862   */\n      tag_462\n        /* \"#utility.yul\":16858:16860   */\n      0x20\n        /* \"#utility.yul\":16847:16856   */\n      dup4\n        /* \"#utility.yul\":16843:16861   */\n      add\n        /* \"#utility.yul\":16834:16840   */\n      dup8\n        /* \"#utility.yul\":16790:16862   */\n      tag_237\n      jump\t// in\n    tag_462:\n        /* \"#utility.yul\":16872:16942   */\n      tag_463\n        /* \"#utility.yul\":16938:16940   */\n      0x40\n        /* \"#utility.yul\":16927:16936   */\n      dup4\n        /* \"#utility.yul\":16923:16941   */\n      add\n        /* \"#utility.yul\":16914:16920   */\n      dup7\n        /* \"#utility.yul\":16872:16942   */\n      tag_250\n      jump\t// in\n    tag_463:\n        /* \"#utility.yul\":16952:17022   */\n      tag_464\n        /* \"#utility.yul\":17018:17020   */\n      0x60\n        /* \"#utility.yul\":17007:17016   */\n      dup4\n        /* \"#utility.yul\":17003:17021   */\n      add\n        /* \"#utility.yul\":16994:17000   */\n      dup6\n        /* \"#utility.yul\":16952:17022   */\n      tag_250\n      jump\t// in\n    tag_464:\n        /* \"#utility.yul\":17032:17099   */\n      tag_465\n        /* \"#utility.yul\":17094:17097   */\n      0x80\n        /* \"#utility.yul\":17083:17092   */\n      dup4\n        /* \"#utility.yul\":17079:17098   */\n      add\n        /* \"#utility.yul\":17070:17076   */\n      dup5\n        /* \"#utility.yul\":17032:17099   */\n      tag_251\n      jump\t// in\n    tag_465:\n        /* \"#utility.yul\":16371:17106   */\n      swap7\n      swap6\n      pop\n      pop\n      pop\n      pop\n      pop\n      pop\n      jump\t// out\n        /* \"#utility.yul\":17112:17420   */\n    tag_252:\n        /* \"#utility.yul\":17174:17178   */\n      0x00\n        /* \"#utility.yul\":17264:17282   */\n      0xffffffffffffffff\n        /* \"#utility.yul\":17256:17262   */\n      dup3\n        /* \"#utility.yul\":17253:17283   */\n      gt\n        /* \"#utility.yul\":17250:17306   */\n      iszero\n      tag_467\n      jumpi\n        /* \"#utility.yul\":17286:17304   */\n      tag_468\n      tag_108\n      jump\t// in\n    tag_468:\n        /* \"#utility.yul\":17250:17306   */\n    tag_467:\n        /* \"#utility.yul\":17324:17353   */\n      tag_469\n        /* \"#utility.yul\":17346:17352   */\n      dup3\n        /* \"#utility.yul\":17324:17353   */\n      tag_213\n      jump\t// in\n    tag_469:\n        /* \"#utility.yul\":17316:17353   */\n      swap1\n      pop\n        /* \"#utility.yul\":17408:17412   */\n      0x20\n        /* \"#utility.yul\":17402:17406   */\n      dup2\n        /* \"#utility.yul\":17398:17413   */\n      add\n        /* \"#utility.yul\":17390:17413   */\n      swap1\n      pop\n        /* \"#utility.yul\":17112:17420   */\n      swap2\n      swap1\n      pop\n      jump\t// out\n        /* \"#utility.yul\":17426:17838   */\n    tag_253:\n        /* \"#utility.yul\":17504:17509   */\n      0x00\n        /* \"#utility.yul\":17529:17595   */\n      tag_471\n        /* \"#utility.yul\":17545:17594   */\n      tag_472\n        /* \"#utility.yul\":17587:17593   */\n      dup5\n        /* \"#utility.yul\":17545:17594   */\n      tag_252\n      jump\t// in\n    tag_472:\n        /* \"#utility.yul\":17529:17595   */\n      tag_243\n      jump\t// in\n    tag_471:\n        /* \"#utility.yul\":17520:17595   */\n      swap1\n      pop\n        /* \"#utility.yul\":17618:17624   */\n      dup3\n        /* \"#utility.yul\":17611:17616   */\n      dup2\n        /* \"#utility.yul\":17604:17625   */\n      mstore\n        /* \"#utility.yul\":17656:17660   */\n      0x20\n        /* \"#utility.yul\":17649:17654   */\n      dup2\n        /* \"#utility.yul\":17645:17661   */\n      add\n        /* \"#utility.yul\":17694:17697   */\n      dup5\n        /* \"#utility.yul\":17685:17691   */\n      dup5\n        /* \"#utility.yul\":17680:17683   */\n      dup5\n        /* \"#utility.yul\":17676:17692   */\n      add\n        /* \"#utility.yul\":17673:17698   */\n      gt\n        /* \"#utility.yul\":17670:17782   */\n      iszero\n      tag_473\n      jumpi\n        /* \"#utility.yul\":17701:17780   */\n      tag_474\n      tag_241\n      jump\t// in\n    tag_474:\n        /* \"#utility.yul\":17670:17782   */\n    tag_473:\n        /* \"#utility.yul\":17791:17832   */\n      tag_475\n        /* \"#utility.yul\":17825:17831   */\n      dup5\n        /* \"#utility.yul\":17820:17823   */\n      dup3\n        /* \"#utility.yul\":17815:17818   */\n      dup6\n        /* \"#utility.yul\":17791:17832   */\n      tag_245\n      jump\t// in\n    tag_475:\n        /* \"#utility.yul\":17510:17838   */\n      pop\n        /* \"#utility.yul\":17426:17838   */\n      swap4\n      swap3\n      pop\n      pop\n      pop\n      jump\t// out\n        /* \"#utility.yul\":17858:18198   */\n    tag_254:\n        /* \"#utility.yul\":17914:17919   */\n      0x00\n        /* \"#utility.yul\":17963:17966   */\n      dup3\n        /* \"#utility.yul\":17956:17960   */\n      0x1f\n        /* \"#utility.yul\":17948:17954   */\n      dup4\n        /* \"#utility.yul\":17944:17961   */\n      add\n        /* \"#utility.yul\":17940:17967   */\n      slt\n        /* \"#utility.yul\":17930:18052   */\n      tag_477\n      jumpi\n        /* \"#utility.yul\":17971:18050   */\n      tag_478\n      tag_240\n      jump\t// in\n    tag_478:\n        /* \"#utility.yul\":17930:18052   */\n    tag_477:\n        /* \"#utility.yul\":18088:18094   */\n      dup2\n        /* \"#utility.yul\":18075:18095   */\n      calldataload\n        /* \"#utility.yul\":18113:18192   */\n      tag_479\n        /* \"#utility.yul\":18188:18191   */\n      dup5\n        /* \"#utility.yul\":18180:18186   */\n      dup3\n        /* \"#utility.yul\":18173:18177   */\n      0x20\n        /* \"#utility.yul\":18165:18171   */\n      dup7\n        /* \"#utility.yul\":18161:18178   */\n      add\n        /* \"#utility.yul\":18113:18192   */\n      tag_253\n      jump\t// in\n    tag_479:\n        /* \"#utility.yul\":18104:18192   */\n      swap2\n      pop\n        /* \"#utility.yul\":17920:18198   */\n      pop\n        /* \"#utility.yul\":17858:18198   */\n      swap3\n      swap2\n      pop\n      pop\n      jump\t// out\n        /* \"#utility.yul\":18204:18324   */\n    tag_255:\n        /* \"#utility.yul\":18276:18299   */\n      tag_481\n        /* \"#utility.yul\":18293:18298   */\n      dup2\n        /* \"#utility.yul\":18276:18299   */\n      tag_222\n      jump\t// in\n    tag_481:\n        /* \"#utility.yul\":18269:18274   */\n      dup2\n        /* \"#utility.yul\":18266:18300   */\n      eq\n        /* \"#utility.yul\":18256:18318   */\n      tag_482\n      jumpi\n        /* \"#utility.yul\":18314:18315   */\n      0x00\n        /* \"#utility.yul\":18311:18312   */\n      dup1\n        /* \"#utility.yul\":18304:18316   */\n      revert\n        /* \"#utility.yul\":18256:18318   */\n    tag_482:\n        /* \"#utility.yul\":18204:18324   */\n      pop\n      jump\t// out\n        /* \"#utility.yul\":18330:18467   */\n    tag_256:\n        /* \"#utility.yul\":18375:18380   */\n      0x00\n        /* \"#utility.yul\":18413:18419   */\n      dup2\n        /* \"#utility.yul\":18400:18420   */\n      calldataload\n        /* \"#utility.yul\":18391:18420   */\n      swap1\n      pop\n        /* \"#utility.yul\":18429:18461   */\n      tag_484\n        /* \"#utility.yul\":18455:18460   */\n      dup2\n        /* \"#utility.yul\":18429:18461   */\n      tag_255\n      jump\t// in\n    tag_484:\n        /* \"#utility.yul\":18330:18467   */\n      swap3\n      swap2\n      pop\n      pop\n      jump\t// out\n        /* \"#utility.yul\":18473:19125   */\n    tag_70:\n        /* \"#utility.yul\":18550:18556   */\n      0x00\n        /* \"#utility.yul\":18558:18564   */\n      dup1\n        /* \"#utility.yul\":18607:18609   */\n      0x40\n        /* \"#utility.yul\":18595:18604   */\n      dup4\n        /* \"#utility.yul\":18586:18593   */\n      dup6\n        /* \"#utility.yul\":18582:18605   */\n      sub\n        /* \"#utility.yul\":18578:18610   */\n      slt\n        /* \"#utility.yul\":18575:18694   */\n      iszero\n      tag_486\n      jumpi\n        /* \"#utility.yul\":18613:18692   */\n      tag_487\n      tag_201\n      jump\t// in\n    tag_487:\n        /* \"#utility.yul\":18575:18694   */\n    tag_486:\n        /* \"#utility.yul\":18761:18762   */\n      0x00\n        /* \"#utility.yul\":18750:18759   */\n      dup4\n        /* \"#utility.yul\":18746:18763   */\n      add\n        /* \"#utility.yul\":18733:18764   */\n      calldataload\n        /* \"#utility.yul\":18791:18809   */\n      0xffffffffffffffff\n        /* \"#utility.yul\":18783:18789   */\n      dup2\n        /* \"#utility.yul\":18780:18810   */\n      gt\n        /* \"#utility.yul\":18777:18894   */\n      iszero\n      tag_488\n      jumpi\n        /* \"#utility.yul\":18813:18892   */\n      tag_489\n      tag_202\n      jump\t// in\n    tag_489:\n        /* \"#utility.yul\":18777:18894   */\n    tag_488:\n        /* \"#utility.yul\":18918:18981   */\n      tag_490\n        /* \"#utility.yul\":18973:18980   */\n      dup6\n        /* \"#utility.yul\":18964:18970   */\n      dup3\n        /* \"#utility.yul\":18953:18962   */\n      dup7\n        /* \"#utility.yul\":18949:18971   */\n      add\n        /* \"#utility.yul\":18918:18981   */\n      tag_254\n      jump\t// in\n    tag_490:\n        /* \"#utility.yul\":18908:18981   */\n      swap3\n      pop\n        /* \"#utility.yul\":18704:18991   */\n      pop\n        /* \"#utility.yul\":19030:19032   */\n      0x20\n        /* \"#utility.yul\":19056:19108   */\n      tag_491\n        /* \"#utility.yul\":19100:19107   */\n      dup6\n        /* \"#utility.yul\":19091:19097   */\n      dup3\n        /* \"#utility.yul\":19080:19089   */\n      dup7\n        /* \"#utility.yul\":19076:19098   */\n      add\n        /* \"#utility.yul\":19056:19108   */\n      tag_256\n      jump\t// in\n    tag_491:\n        /* \"#utility.yul\":19046:19108   */\n      swap2\n      pop\n        /* \"#utility.yul\":19001:19118   */\n      pop\n        /* \"#utility.yul\":18473:19125   */\n      swap3\n      pop\n      swap3\n      swap1\n      pop\n      jump\t// out\n        /* \"#utility.yul\":19131:19301   */\n    tag_257:\n        /* \"#utility.yul\":19271:19293   */\n      0x79657420746f20637265617465206120706f6c6c000000000000000000000000\n        /* \"#utility.yul\":19267:19268   */\n      0x00\n        /* \"#utility.yul\":19259:19265   */\n      dup3\n        /* \"#utility.yul\":19255:19269   */\n      add\n        /* \"#utility.yul\":19248:19294   */\n      mstore\n        /* \"#utility.yul\":19131:19301   */\n      pop\n      jump\t// out\n        /* \"#utility.yul\":19307:19673   */\n    tag_258:\n        /* \"#utility.yul\":19449:19452   */\n      0x00\n        /* \"#utility.yul\":19470:19537   */\n      tag_494\n        /* \"#utility.yul\":19534:19536   */\n      0x14\n        /* \"#utility.yul\":19529:19532   */\n      dup4\n        /* \"#utility.yul\":19470:19537   */\n      tag_248\n      jump\t// in\n    tag_494:\n        /* \"#utility.yul\":19463:19537   */\n      swap2\n      pop\n        /* \"#utility.yul\":19546:19639   */\n      tag_495\n        /* \"#utility.yul\":19635:19638   */\n      dup3\n        /* \"#utility.yul\":19546:19639   */\n      tag_257\n      jump\t// in\n    tag_495:\n        /* \"#utility.yul\":19664:19666   */\n      0x20\n        /* \"#utility.yul\":19659:19662   */\n      dup3\n        /* \"#utility.yul\":19655:19667   */\n      add\n        /* \"#utility.yul\":19648:19667   */\n      swap1\n      pop\n        /* \"#utility.yul\":19307:19673   */\n      swap2\n      swap1\n      pop\n      jump\t// out\n        /* \"#utility.yul\":19679:20098   */\n    tag_75:\n        /* \"#utility.yul\":19845:19849   */\n      0x00\n        /* \"#utility.yul\":19883:19885   */\n      0x20\n        /* \"#utility.yul\":19872:19881   */\n      dup3\n        /* \"#utility.yul\":19868:19886   */\n      add\n        /* \"#utility.yul\":19860:19886   */\n      swap1\n      pop\n        /* \"#utility.yul\":19932:19941   */\n      dup2\n        /* \"#utility.yul\":19926:19930   */\n      dup2\n        /* \"#utility.yul\":19922:19942   */\n      sub\n        /* \"#utility.yul\":19918:19919   */\n      0x00\n        /* \"#utility.yul\":19907:19916   */\n      dup4\n        /* \"#utility.yul\":19903:19920   */\n      add\n        /* \"#utility.yul\":19896:19943   */\n      mstore\n        /* \"#utility.yul\":19960:20091   */\n      tag_497\n        /* \"#utility.yul\":20086:20090   */\n      dup2\n        /* \"#utility.yul\":19960:20091   */\n      tag_258\n      jump\t// in\n    tag_497:\n        /* \"#utility.yul\":19952:20091   */\n      swap1\n      pop\n        /* \"#utility.yul\":19679:20098   */\n      swap2\n      swap1\n      pop\n      jump\t// out\n        /* \"#utility.yul\":20104:20284   */\n    tag_78:\n        /* \"#utility.yul\":20152:20229   */\n      0x4e487b7100000000000000000000000000000000000000000000000000000000\n        /* \"#utility.yul\":20149:20150   */\n      0x00\n        /* \"#utility.yul\":20142:20230   */\n      mstore\n        /* \"#utility.yul\":20249:20253   */\n      0x01\n        /* \"#utility.yul\":20246:20247   */\n      0x04\n        /* \"#utility.yul\":20239:20254   */\n      mstore\n        /* \"#utility.yul\":20273:20277   */\n      0x24\n        /* \"#utility.yul\":20270:20271   */\n      0x00\n        /* \"#utility.yul\":20263:20278   */\n      revert\n        /* \"#utility.yul\":20290:20523   */\n    tag_259:\n        /* \"#utility.yul\":20430:20464   */\n      0x6d6178696d756d206e6f206f662063616e646964617465207065722073657373\n        /* \"#utility.yul\":20426:20427   */\n      0x00\n        /* \"#utility.yul\":20418:20424   */\n      dup3\n        /* \"#utility.yul\":20414:20428   */\n      add\n        /* \"#utility.yul\":20407:20465   */\n      mstore\n        /* \"#utility.yul\":20499:20515   */\n      0x696f6e2072656769737465726564000000000000000000000000000000000000\n        /* \"#utility.yul\":20494:20496   */\n      0x20\n        /* \"#utility.yul\":20486:20492   */\n      dup3\n        /* \"#utility.yul\":20482:20497   */\n      add\n        /* \"#utility.yul\":20475:20516   */\n      mstore\n        /* \"#utility.yul\":20290:20523   */\n      pop\n      jump\t// out\n        /* \"#utility.yul\":20529:20895   */\n    tag_260:\n        /* \"#utility.yul\":20671:20674   */\n      0x00\n        /* \"#utility.yul\":20692:20759   */\n      tag_501\n        /* \"#utility.yul\":20756:20758   */\n      0x2e\n        /* \"#utility.yul\":20751:20754   */\n      dup4\n        /* \"#utility.yul\":20692:20759   */\n      tag_248\n      jump\t// in\n    tag_501:\n        /* \"#utility.yul\":20685:20759   */\n      swap2\n      pop\n        /* \"#utility.yul\":20768:20861   */\n      tag_502\n        /* \"#utility.yul\":20857:20860   */\n      dup3\n        /* \"#utility.yul\":20768:20861   */\n      tag_259\n      jump\t// in\n    tag_502:\n        /* \"#utility.yul\":20886:20888   */\n      0x40\n        /* \"#utility.yul\":20881:20884   */\n      dup3\n        /* \"#utility.yul\":20877:20889   */\n      add\n        /* \"#utility.yul\":20870:20889   */\n      swap1\n      pop\n        /* \"#utility.yul\":20529:20895   */\n      swap2\n      swap1\n      pop\n      jump\t// out\n        /* \"#utility.yul\":20901:21320   */\n    tag_81:\n        /* \"#utility.yul\":21067:21071   */\n      0x00\n        /* \"#utility.yul\":21105:21107   */\n      0x20\n        /* \"#utility.yul\":21094:21103   */\n      dup3\n        /* \"#utility.yul\":21090:21108   */\n      add\n        /* \"#utility.yul\":21082:21108   */\n      swap1\n      pop\n        /* \"#utility.yul\":21154:21163   */\n      dup2\n        /* \"#utility.yul\":21148:21152   */\n      dup2\n        /* \"#utility.yul\":21144:21164   */\n      sub\n        /* \"#utility.yul\":21140:21141   */\n      0x00\n        /* \"#utility.yul\":21129:21138   */\n      dup4\n        /* \"#utility.yul\":21125:21142   */\n      add\n        /* \"#utility.yul\":21118:21165   */\n      mstore\n        /* \"#utility.yul\":21182:21313   */\n      tag_504\n        /* \"#utility.yul\":21308:21312   */\n      dup2\n        /* \"#utility.yul\":21182:21313   */\n      tag_260\n      jump\t// in\n    tag_504:\n        /* \"#utility.yul\":21174:21313   */\n      swap1\n      pop\n        /* \"#utility.yul\":20901:21320   */\n      swap2\n      swap1\n      pop\n      jump\t// out\n        /* \"#utility.yul\":21326:21506   */\n    tag_261:\n        /* \"#utility.yul\":21374:21451   */\n      0x4e487b7100000000000000000000000000000000000000000000000000000000\n        /* \"#utility.yul\":21371:21372   */\n      0x00\n        /* \"#utility.yul\":21364:21452   */\n      mstore\n        /* \"#utility.yul\":21471:21475   */\n      0x11\n        /* \"#utility.yul\":21468:21469   */\n      0x04\n        /* \"#utility.yul\":21461:21476   */\n      mstore\n        /* \"#utility.yul\":21495:21499   */\n      0x24\n        /* \"#utility.yul\":21492:21493   */\n      0x00\n        /* \"#utility.yul\":21485:21500   */\n      revert\n        /* \"#utility.yul\":21512:21687   */\n    tag_84:\n        /* \"#utility.yul\":21550:21553   */\n      0x00\n        /* \"#utility.yul\":21573:21596   */\n      tag_507\n        /* \"#utility.yul\":21590:21595   */\n      dup3\n        /* \"#utility.yul\":21573:21596   */\n      tag_222\n      jump\t// in\n    tag_507:\n        /* \"#utility.yul\":21564:21596   */\n      swap2\n      pop\n        /* \"#utility.yul\":21618:21628   */\n      0xffffffff\n        /* \"#utility.yul\":21611:21616   */\n      dup3\n        /* \"#utility.yul\":21608:21629   */\n      eq\n        /* \"#utility.yul\":21605:21652   */\n      iszero\n      tag_508\n      jumpi\n        /* \"#utility.yul\":21632:21650   */\n      tag_509\n      tag_261\n      jump\t// in\n    tag_509:\n        /* \"#utility.yul\":21605:21652   */\n    tag_508:\n        /* \"#utility.yul\":21679:21680   */\n      0x01\n        /* \"#utility.yul\":21672:21677   */\n      dup3\n        /* \"#utility.yul\":21668:21681   */\n      add\n        /* \"#utility.yul\":21661:21681   */\n      swap1\n      pop\n        /* \"#utility.yul\":21512:21687   */\n      swap2\n      swap1\n      pop\n      jump\t// out\n        /* \"#utility.yul\":21693:21915   */\n    tag_86:\n        /* \"#utility.yul\":21786:21790   */\n      0x00\n        /* \"#utility.yul\":21824:21826   */\n      0x20\n        /* \"#utility.yul\":21813:21822   */\n      dup3\n        /* \"#utility.yul\":21809:21827   */\n      add\n        /* \"#utility.yul\":21801:21827   */\n      swap1\n      pop\n        /* \"#utility.yul\":21837:21908   */\n      tag_511\n        /* \"#utility.yul\":21905:21906   */\n      0x00\n        /* \"#utility.yul\":21894:21903   */\n      dup4\n        /* \"#utility.yul\":21890:21907   */\n      add\n        /* \"#utility.yul\":21881:21887   */\n      dup5\n        /* \"#utility.yul\":21837:21908   */\n      tag_237\n      jump\t// in\n    tag_511:\n        /* \"#utility.yul\":21693:21915   */\n      swap3\n      swap2\n      pop\n      pop\n      jump\t// out\n        /* \"#utility.yul\":21921:22101   */\n    tag_262:\n        /* \"#utility.yul\":21969:22046   */\n      0x4e487b7100000000000000000000000000000000000000000000000000000000\n        /* \"#utility.yul\":21966:21967   */\n      0x00\n        /* \"#utility.yul\":21959:22047   */\n      mstore\n        /* \"#utility.yul\":22066:22070   */\n      0x22\n        /* \"#utility.yul\":22063:22064   */\n      0x04\n        /* \"#utility.yul\":22056:22071   */\n      mstore\n        /* \"#utility.yul\":22090:22094   */\n      0x24\n        /* \"#utility.yul\":22087:22088   */\n      0x00\n        /* \"#utility.yul\":22080:22095   */\n      revert\n        /* \"#utility.yul\":22107:22427   */\n    tag_91:\n        /* \"#utility.yul\":22151:22157   */\n      0x00\n        /* \"#utility.yul\":22188:22189   */\n      0x02\n        /* \"#utility.yul\":22182:22186   */\n      dup3\n        /* \"#utility.yul\":22178:22190   */\n      div\n        /* \"#utility.yul\":22168:22190   */\n      swap1\n      pop\n        /* \"#utility.yul\":22235:22236   */\n      0x01\n        /* \"#utility.yul\":22229:22233   */\n      dup3\n        /* \"#utility.yul\":22225:22237   */\n      and\n        /* \"#utility.yul\":22256:22274   */\n      dup1\n        /* \"#utility.yul\":22246:22327   */\n      tag_514\n      jumpi\n        /* \"#utility.yul\":22312:22316   */\n      0x7f\n        /* \"#utility.yul\":22304:22310   */\n      dup3\n        /* \"#utility.yul\":22300:22317   */\n      and\n        /* \"#utility.yul\":22290:22317   */\n      swap2\n      pop\n        /* \"#utility.yul\":22246:22327   */\n    tag_514:\n        /* \"#utility.yul\":22374:22376   */\n      0x20\n        /* \"#utility.yul\":22366:22372   */\n      dup3\n        /* \"#utility.yul\":22363:22377   */\n      lt\n        /* \"#utility.yul\":22343:22361   */\n      dup2\n        /* \"#utility.yul\":22340:22378   */\n      eq\n        /* \"#utility.yul\":22337:22421   */\n      iszero\n      tag_515\n      jumpi\n        /* \"#utility.yul\":22393:22411   */\n      tag_516\n      tag_262\n      jump\t// in\n    tag_516:\n        /* \"#utility.yul\":22337:22421   */\n    tag_515:\n        /* \"#utility.yul\":22158:22427   */\n      pop\n        /* \"#utility.yul\":22107:22427   */\n      swap2\n      swap1\n      pop\n      jump\t// out\n        /* \"#utility.yul\":22433:22598   */\n    tag_263:\n        /* \"#utility.yul\":22573:22590   */\n      0x4e6f20706f6c6c20637265617465640000000000000000000000000000000000\n        /* \"#utility.yul\":22569:22570   */\n      0x00\n        /* \"#utility.yul\":22561:22567   */\n      dup3\n        /* \"#utility.yul\":22557:22571   */\n      add\n        /* \"#utility.yul\":22550:22591   */\n      mstore\n        /* \"#utility.yul\":22433:22598   */\n      pop\n      jump\t// out\n        /* \"#utility.yul\":22604:22970   */\n    tag_264:\n        /* \"#utility.yul\":22746:22749   */\n      0x00\n        /* \"#utility.yul\":22767:22834   */\n      tag_519\n        /* \"#utility.yul\":22831:22833   */\n      0x0f\n        /* \"#utility.yul\":22826:22829   */\n      dup4\n        /* \"#utility.yul\":22767:22834   */\n      tag_248\n      jump\t// in\n    tag_519:\n        /* \"#utility.yul\":22760:22834   */\n      swap2\n      pop\n        /* \"#utility.yul\":22843:22936   */\n      tag_520\n        /* \"#utility.yul\":22932:22935   */\n      dup3\n        /* \"#utility.yul\":22843:22936   */\n      tag_263\n      jump\t// in\n    tag_520:\n        /* \"#utility.yul\":22961:22963   */\n      0x20\n        /* \"#utility.yul\":22956:22959   */\n      dup3\n        /* \"#utility.yul\":22952:22964   */\n      add\n        /* \"#utility.yul\":22945:22964   */\n      swap1\n      pop\n        /* \"#utility.yul\":22604:22970   */\n      swap2\n      swap1\n      pop\n      jump\t// out\n        /* \"#utility.yul\":22976:23395   */\n    tag_105:\n        /* \"#utility.yul\":23142:23146   */\n      0x00\n        /* \"#utility.yul\":23180:23182   */\n      0x20\n        /* \"#utility.yul\":23169:23178   */\n      dup3\n        /* \"#utility.yul\":23165:23183   */\n      add\n        /* \"#utility.yul\":23157:23183   */\n      swap1\n      pop\n        /* \"#utility.yul\":23229:23238   */\n      dup2\n        /* \"#utility.yul\":23223:23227   */\n      dup2\n        /* \"#utility.yul\":23219:23239   */\n      sub\n        /* \"#utility.yul\":23215:23216   */\n      0x00\n        /* \"#utility.yul\":23204:23213   */\n      dup4\n        /* \"#utility.yul\":23200:23217   */\n      add\n        /* \"#utility.yul\":23193:23240   */\n      mstore\n        /* \"#utility.yul\":23257:23388   */\n      tag_522\n        /* \"#utility.yul\":23383:23387   */\n      dup2\n        /* \"#utility.yul\":23257:23388   */\n      tag_264\n      jump\t// in\n    tag_522:\n        /* \"#utility.yul\":23249:23388   */\n      swap1\n      pop\n        /* \"#utility.yul\":22976:23395   */\n      swap2\n      swap1\n      pop\n      jump\t// out\n        /* \"#utility.yul\":23401:23581   */\n    tag_118:\n        /* \"#utility.yul\":23449:23526   */\n      0x4e487b7100000000000000000000000000000000000000000000000000000000\n        /* \"#utility.yul\":23446:23447   */\n      0x00\n        /* \"#utility.yul\":23439:23527   */\n      mstore\n        /* \"#utility.yul\":23546:23550   */\n      0x32\n        /* \"#utility.yul\":23543:23544   */\n      0x04\n        /* \"#utility.yul\":23536:23551   */\n      mstore\n        /* \"#utility.yul\":23570:23574   */\n      0x24\n        /* \"#utility.yul\":23567:23568   */\n      0x00\n        /* \"#utility.yul\":23560:23575   */\n      revert\n        /* \"#utility.yul\":23587:23820   */\n    tag_126:\n        /* \"#utility.yul\":23626:23629   */\n      0x00\n        /* \"#utility.yul\":23649:23673   */\n      tag_525\n        /* \"#utility.yul\":23667:23672   */\n      dup3\n        /* \"#utility.yul\":23649:23673   */\n      tag_207\n      jump\t// in\n    tag_525:\n        /* \"#utility.yul\":23640:23673   */\n      swap2\n      pop\n        /* \"#utility.yul\":23695:23761   */\n      0xffffffffffffffffffffffffffffffffffffffffffffffffffffffffffffffff\n        /* \"#utility.yul\":23688:23693   */\n      dup3\n        /* \"#utility.yul\":23685:23762   */\n      eq\n        /* \"#utility.yul\":23682:23785   */\n      iszero\n      tag_526\n      jumpi\n        /* \"#utility.yul\":23765:23783   */\n      tag_527\n      tag_261\n      jump\t// in\n    tag_527:\n        /* \"#utility.yul\":23682:23785   */\n    tag_526:\n        /* \"#utility.yul\":23812:23813   */\n      0x01\n        /* \"#utility.yul\":23805:23810   */\n      dup3\n        /* \"#utility.yul\":23801:23814   */\n      add\n        /* \"#utility.yul\":23794:23814   */\n      swap1\n      pop\n        /* \"#utility.yul\":23587:23820   */\n      swap2\n      swap1\n      pop\n      jump\t// out\n        /* \"#utility.yul\":23826:23920   */\n    tag_265:\n        /* \"#utility.yul\":23859:23867   */\n      0x00\n        /* \"#utility.yul\":23907:23912   */\n      dup2\n        /* \"#utility.yul\":23903:23905   */\n      0x60\n        /* \"#utility.yul\":23899:23913   */\n      shl\n        /* \"#utility.yul\":23878:23913   */\n      swap1\n      pop\n        /* \"#utility.yul\":23826:23920   */\n      swap2\n      swap1\n      pop\n      jump\t// out\n        /* \"#utility.yul\":23926:24020   */\n    tag_266:\n        /* \"#utility.yul\":23965:23972   */\n      0x00\n        /* \"#utility.yul\":23994:24014   */\n      tag_530\n        /* \"#utility.yul\":24008:24013   */\n      dup3\n        /* \"#utility.yul\":23994:24014   */\n      tag_265\n      jump\t// in\n    tag_530:\n        /* \"#utility.yul\":23983:24014   */\n      swap1\n      pop\n        /* \"#utility.yul\":23926:24020   */\n      swap2\n      swap1\n      pop\n      jump\t// out\n        /* \"#utility.yul\":24026:24126   */\n    tag_267:\n        /* \"#utility.yul\":24065:24072   */\n      0x00\n        /* \"#utility.yul\":24094:24120   */\n      tag_532\n        /* \"#utility.yul\":24114:24119   */\n      dup3\n        /* \"#utility.yul\":24094:24120   */\n      tag_266\n      jump\t// in\n    tag_532:\n        /* \"#utility.yul\":24083:24120   */\n      swap1\n      pop\n        /* \"#utility.yul\":24026:24126   */\n      swap2\n      swap1\n      pop\n      jump\t// out\n        /* \"#utility.yul\":24132:24289   */\n    tag_268:\n        /* \"#utility.yul\":24237:24282   */\n      tag_534\n        /* \"#utility.yul\":24257:24281   */\n      tag_535\n        /* \"#utility.yul\":24275:24280   */\n      dup3\n        /* \"#utility.yul\":24257:24281   */\n      tag_204\n      jump\t// in\n    tag_535:\n        /* \"#utility.yul\":24237:24282   */\n      tag_267\n      jump\t// in\n    tag_534:\n        /* \"#utility.yul\":24232:24235   */\n      dup3\n        /* \"#utility.yul\":24225:24283   */\n      mstore\n        /* \"#utility.yul\":24132:24289   */\n      pop\n      pop\n      jump\t// out\n        /* \"#utility.yul\":24295:24443   */\n    tag_269:\n        /* \"#utility.yul\":24397:24408   */\n      0x00\n        /* \"#utility.yul\":24434:24437   */\n      dup2\n        /* \"#utility.yul\":24419:24437   */\n      swap1\n      pop\n        /* \"#utility.yul\":24295:24443   */\n      swap3\n      swap2\n      pop\n      pop\n      jump\t// out\n        /* \"#utility.yul\":24449:24622   */\n    tag_270:\n        /* \"#utility.yul\":24589:24614   */\n      0x6d6574617472616e73616374696f6e20566f74696e6720000000000000000000\n        /* \"#utility.yul\":24585:24586   */\n      0x00\n        /* \"#utility.yul\":24577:24583   */\n      dup3\n        /* \"#utility.yul\":24573:24587   */\n      add\n        /* \"#utility.yul\":24566:24615   */\n      mstore\n        /* \"#utility.yul\":24449:24622   */\n      pop\n      jump\t// out\n        /* \"#utility.yul\":24628:25030   */\n    tag_271:\n        /* \"#utility.yul\":24788:24791   */\n      0x00\n        /* \"#utility.yul\":24809:24894   */\n      tag_539\n        /* \"#utility.yul\":24891:24893   */\n      0x17\n        /* \"#utility.yul\":24886:24889   */\n      dup4\n        /* \"#utility.yul\":24809:24894   */\n      tag_269\n      jump\t// in\n    tag_539:\n        /* \"#utility.yul\":24802:24894   */\n      swap2\n      pop\n        /* \"#utility.yul\":24903:24996   */\n      tag_540\n        /* \"#utility.yul\":24992:24995   */\n      dup3\n        /* \"#utility.yul\":24903:24996   */\n      tag_270\n      jump\t// in\n    tag_540:\n        /* \"#utility.yul\":25021:25023   */\n      0x17\n        /* \"#utility.yul\":25016:25019   */\n      dup3\n        /* \"#utility.yul\":25012:25024   */\n      add\n        /* \"#utility.yul\":25005:25024   */\n      swap1\n      pop\n        /* \"#utility.yul\":24628:25030   */\n      swap2\n      swap1\n      pop\n      jump\t// out\n        /* \"#utility.yul\":25036:25115   */\n    tag_272:\n        /* \"#utility.yul\":25075:25082   */\n      0x00\n        /* \"#utility.yul\":25104:25109   */\n      dup2\n        /* \"#utility.yul\":25093:25109   */\n      swap1\n      pop\n        /* \"#utility.yul\":25036:25115   */\n      swap2\n      swap1\n      pop\n      jump\t// out\n        /* \"#utility.yul\":25121:25278   */\n    tag_273:\n        /* \"#utility.yul\":25226:25271   */\n      tag_543\n        /* \"#utility.yul\":25246:25270   */\n      tag_544\n        /* \"#utility.yul\":25264:25269   */\n      dup3\n        /* \"#utility.yul\":25246:25270   */\n      tag_207\n      jump\t// in\n    tag_544:\n        /* \"#utility.yul\":25226:25271   */\n      tag_272\n      jump\t// in\n    tag_543:\n        /* \"#utility.yul\":25221:25224   */\n      dup3\n        /* \"#utility.yul\":25214:25272   */\n      mstore\n        /* \"#utility.yul\":25121:25278   */\n      pop\n      pop\n      jump\t// out\n        /* \"#utility.yul\":25284:26370   */\n    tag_131:\n        /* \"#utility.yul\":25609:25612   */\n      0x00\n        /* \"#utility.yul\":25624:25699   */\n      tag_546\n        /* \"#utility.yul\":25695:25698   */\n      dup3\n        /* \"#utility.yul\":25686:25692   */\n      dup9\n        /* \"#utility.yul\":25624:25699   */\n      tag_268\n      jump\t// in\n    tag_546:\n        /* \"#utility.yul\":25724:25726   */\n      0x14\n        /* \"#utility.yul\":25719:25722   */\n      dup3\n        /* \"#utility.yul\":25715:25727   */\n      add\n        /* \"#utility.yul\":25708:25727   */\n      swap2\n      pop\n        /* \"#utility.yul\":25744:25892   */\n      tag_547\n        /* \"#utility.yul\":25888:25891   */\n      dup3\n        /* \"#utility.yul\":25744:25892   */\n      tag_271\n      jump\t// in\n    tag_547:\n        /* \"#utility.yul\":25737:25892   */\n      swap2\n      pop\n        /* \"#utility.yul\":25902:25977   */\n      tag_548\n        /* \"#utility.yul\":25973:25976   */\n      dup3\n        /* \"#utility.yul\":25964:25970   */\n      dup8\n        /* \"#utility.yul\":25902:25977   */\n      tag_268\n      jump\t// in\n    tag_548:\n        /* \"#utility.yul\":26002:26004   */\n      0x14\n        /* \"#utility.yul\":25997:26000   */\n      dup3\n        /* \"#utility.yul\":25993:26005   */\n      add\n        /* \"#utility.yul\":25986:26005   */\n      swap2\n      pop\n        /* \"#utility.yul\":26015:26090   */\n      tag_549\n        /* \"#utility.yul\":26086:26089   */\n      dup3\n        /* \"#utility.yul\":26077:26083   */\n      dup7\n        /* \"#utility.yul\":26015:26090   */\n      tag_273\n      jump\t// in\n    tag_549:\n        /* \"#utility.yul\":26115:26117   */\n      0x20\n        /* \"#utility.yul\":26110:26113   */\n      dup3\n        /* \"#utility.yul\":26106:26118   */\n      add\n        /* \"#utility.yul\":26099:26118   */\n      swap2\n      pop\n        /* \"#utility.yul\":26128:26203   */\n      tag_550\n        /* \"#utility.yul\":26199:26202   */\n      dup3\n        /* \"#utility.yul\":26190:26196   */\n      dup6\n        /* \"#utility.yul\":26128:26203   */\n      tag_273\n      jump\t// in\n    tag_550:\n        /* \"#utility.yul\":26228:26230   */\n      0x20\n        /* \"#utility.yul\":26223:26226   */\n      dup3\n        /* \"#utility.yul\":26219:26231   */\n      add\n        /* \"#utility.yul\":26212:26231   */\n      swap2\n      pop\n        /* \"#utility.yul\":26241:26316   */\n      tag_551\n        /* \"#utility.yul\":26312:26315   */\n      dup3\n        /* \"#utility.yul\":26303:26309   */\n      dup5\n        /* \"#utility.yul\":26241:26316   */\n      tag_273\n      jump\t// in\n    tag_551:\n        /* \"#utility.yul\":26341:26343   */\n      0x20\n        /* \"#utility.yul\":26336:26339   */\n      dup3\n        /* \"#utility.yul\":26332:26344   */\n      add\n        /* \"#utility.yul\":26325:26344   */\n      swap2\n      pop\n        /* \"#utility.yul\":26361:26364   */\n      dup2\n        /* \"#utility.yul\":26354:26364   */\n      swap1\n      pop\n        /* \"#utility.yul\":25284:26370   */\n      swap7\n      swap6\n      pop\n      pop\n      pop\n      pop\n      pop\n      pop\n      jump\t// out\n        /* \"#utility.yul\":26376:26605   */\n    tag_274:\n        /* \"#utility.yul\":26516:26550   */\n      0x54686973206164647265737320646f6573206e6f742065786973742061732061\n        /* \"#utility.yul\":26512:26513   */\n      0x00\n        /* \"#utility.yul\":26504:26510   */\n      dup3\n        /* \"#utility.yul\":26500:26514   */\n      add\n        /* \"#utility.yul\":26493:26551   */\n      mstore\n        /* \"#utility.yul\":26585:26597   */\n      0x2063616e64696461746500000000000000000000000000000000000000000000\n        /* \"#utility.yul\":26580:26582   */\n      0x20\n        /* \"#utility.yul\":26572:26578   */\n      dup3\n        /* \"#utility.yul\":26568:26583   */\n      add\n        /* \"#utility.yul\":26561:26598   */\n      mstore\n        /* \"#utility.yul\":26376:26605   */\n      pop\n      jump\t// out\n        /* \"#utility.yul\":26611:26977   */\n    tag_275:\n        /* \"#utility.yul\":26753:26756   */\n      0x00\n        /* \"#utility.yul\":26774:26841   */\n      tag_554\n        /* \"#utility.yul\":26838:26840   */\n      0x2a\n        /* \"#utility.yul\":26833:26836   */\n      dup4\n        /* \"#utility.yul\":26774:26841   */\n      tag_248\n      jump\t// in\n    tag_554:\n        /* \"#utility.yul\":26767:26841   */\n      swap2\n      pop\n        /* \"#utility.yul\":26850:26943   */\n      tag_555\n        /* \"#utility.yul\":26939:26942   */\n      dup3\n        /* \"#utility.yul\":26850:26943   */\n      tag_274\n      jump\t// in\n    tag_555:\n        /* \"#utility.yul\":26968:26970   */\n      0x40\n        /* \"#utility.yul\":26963:26966   */\n      dup3\n        /* \"#utility.yul\":26959:26971   */\n      add\n        /* \"#utility.yul\":26952:26971   */\n      swap1\n      pop\n        /* \"#utility.yul\":26611:26977   */\n      swap2\n      swap1\n      pop\n      jump\t// out\n        /* \"#utility.yul\":26983:27402   */\n    tag_135:\n        /* \"#utility.yul\":27149:27153   */\n      0x00\n        /* \"#utility.yul\":27187:27189   */\n      0x20\n        /* \"#utility.yul\":27176:27185   */\n      dup3\n        /* \"#utility.yul\":27172:27190   */\n      add\n        /* \"#utility.yul\":27164:27190   */\n      swap1\n      pop\n        /* \"#utility.yul\":27236:27245   */\n      dup2\n        /* \"#utility.yul\":27230:27234   */\n      dup2\n        /* \"#utility.yul\":27226:27246   */\n      sub\n        /* \"#utility.yul\":27222:27223   */\n      0x00\n        /* \"#utility.yul\":27211:27220   */\n      dup4\n        /* \"#utility.yul\":27207:27224   */\n      add\n        /* \"#utility.yul\":27200:27247   */\n      mstore\n        /* \"#utility.yul\":27264:27395   */\n      tag_557\n        /* \"#utility.yul\":27390:27394   */\n      dup2\n        /* \"#utility.yul\":27264:27395   */\n      tag_275\n      jump\t// in\n    tag_557:\n        /* \"#utility.yul\":27256:27395   */\n      swap1\n      pop\n        /* \"#utility.yul\":26983:27402   */\n      swap2\n      swap1\n      pop\n      jump\t// out\n        /* \"#utility.yul\":27408:27574   */\n    tag_276:\n        /* \"#utility.yul\":27548:27566   */\n      0x766f74696e672068617320656e64656400000000000000000000000000000000\n        /* \"#utility.yul\":27544:27545   */\n      0x00\n        /* \"#utility.yul\":27536:27542   */\n      dup3\n        /* \"#utility.yul\":27532:27546   */\n      add\n        /* \"#utility.yul\":27525:27567   */\n      mstore\n        /* \"#utility.yul\":27408:27574   */\n      pop\n      jump\t// out\n        /* \"#utility.yul\":27580:27946   */\n    tag_277:\n        /* \"#utility.yul\":27722:27725   */\n      0x00\n        /* \"#utility.yul\":27743:27810   */\n      tag_560\n        /* \"#utility.yul\":27807:27809   */\n      0x10\n        /* \"#utility.yul\":27802:27805   */\n      dup4\n        /* \"#utility.yul\":27743:27810   */\n      tag_248\n      jump\t// in\n    tag_560:\n        /* \"#utility.yul\":27736:27810   */\n      swap2\n      pop\n        /* \"#utility.yul\":27819:27912   */\n      tag_561\n        /* \"#utility.yul\":27908:27911   */\n      dup3\n        /* \"#utility.yul\":27819:27912   */\n      tag_276\n      jump\t// in\n    tag_561:\n        /* \"#utility.yul\":27937:27939   */\n      0x20\n        /* \"#utility.yul\":27932:27935   */\n      dup3\n        /* \"#utility.yul\":27928:27940   */\n      add\n        /* \"#utility.yul\":27921:27940   */\n      swap1\n      pop\n        /* \"#utility.yul\":27580:27946   */\n      swap2\n      swap1\n      pop\n      jump\t// out\n        /* \"#utility.yul\":27952:28371   */\n    tag_139:\n        /* \"#utility.yul\":28118:28122   */\n      0x00\n        /* \"#utility.yul\":28156:28158   */\n      0x20\n        /* \"#utility.yul\":28145:28154   */\n      dup3\n        /* \"#utility.yul\":28141:28159   */\n      add\n        /* \"#utility.yul\":28133:28159   */\n      swap1\n      pop\n        /* \"#utility.yul\":28205:28214   */\n      dup2\n        /* \"#utility.yul\":28199:28203   */\n      dup2\n        /* \"#utility.yul\":28195:28215   */\n      sub\n        /* \"#utility.yul\":28191:28192   */\n      0x00\n        /* \"#utility.yul\":28180:28189   */\n      dup4\n        /* \"#utility.yul\":28176:28193   */\n      add\n        /* \"#utility.yul\":28169:28216   */\n      mstore\n        /* \"#utility.yul\":28233:28364   */\n      tag_563\n        /* \"#utility.yul\":28359:28363   */\n      dup2\n        /* \"#utility.yul\":28233:28364   */\n      tag_277\n      jump\t// in\n    tag_563:\n        /* \"#utility.yul\":28225:28364   */\n      swap1\n      pop\n        /* \"#utility.yul\":27952:28371   */\n      swap2\n      swap1\n      pop\n      jump\t// out\n        /* \"#utility.yul\":28377:28544   */\n    tag_278:\n        /* \"#utility.yul\":28517:28536   */\n      0x596f7520616c726561647920766f746564000000000000000000000000000000\n        /* \"#utility.yul\":28513:28514   */\n      0x00\n        /* \"#utility.yul\":28505:28511   */\n      dup3\n        /* \"#utility.yul\":28501:28515   */\n      add\n        /* \"#utility.yul\":28494:28537   */\n      mstore\n        /* \"#utility.yul\":28377:28544   */\n      pop\n      jump\t// out\n        /* \"#utility.yul\":28550:28916   */\n    tag_279:\n        /* \"#utility.yul\":28692:28695   */\n      0x00\n        /* \"#utility.yul\":28713:28780   */\n      tag_566\n        /* \"#utility.yul\":28777:28779   */\n      0x11\n        /* \"#utility.yul\":28772:28775   */\n      dup4\n        /* \"#utility.yul\":28713:28780   */\n      tag_248\n      jump\t// in\n    tag_566:\n        /* \"#utility.yul\":28706:28780   */\n      swap2\n      pop\n        /* \"#utility.yul\":28789:28882   */\n      tag_567\n        /* \"#utility.yul\":28878:28881   */\n      dup3\n        /* \"#utility.yul\":28789:28882   */\n      tag_278\n      jump\t// in\n    tag_567:\n        /* \"#utility.yul\":28907:28909   */\n      0x20\n        /* \"#utility.yul\":28902:28905   */\n      dup3\n        /* \"#utility.yul\":28898:28910   */\n      add\n        /* \"#utility.yul\":28891:28910   */\n      swap1\n      pop\n        /* \"#utility.yul\":28550:28916   */\n      swap2\n      swap1\n      pop\n      jump\t// out\n        /* \"#utility.yul\":28922:29341   */\n    tag_149:\n        /* \"#utility.yul\":29088:29092   */\n      0x00\n        /* \"#utility.yul\":29126:29128   */\n      0x20\n        /* \"#utility.yul\":29115:29124   */\n      dup3\n        /* \"#utility.yul\":29111:29129   */\n      add\n        /* \"#utility.yul\":29103:29129   */\n      swap1\n      pop\n        /* \"#utility.yul\":29175:29184   */\n      dup2\n        /* \"#utility.yul\":29169:29173   */\n      dup2\n        /* \"#utility.yul\":29165:29185   */\n      sub\n        /* \"#utility.yul\":29161:29162   */\n      0x00\n        /* \"#utility.yul\":29150:29159   */\n      dup4\n        /* \"#utility.yul\":29146:29163   */\n      add\n        /* \"#utility.yul\":29139:29186   */\n      mstore\n        /* \"#utility.yul\":29203:29334   */\n      tag_569\n        /* \"#utility.yul\":29329:29333   */\n      dup2\n        /* \"#utility.yul\":29203:29334   */\n      tag_279\n      jump\t// in\n    tag_569:\n        /* \"#utility.yul\":29195:29334   */\n      swap1\n      pop\n        /* \"#utility.yul\":28922:29341   */\n      swap2\n      swap1\n      pop\n      jump\t// out\n        /* \"#utility.yul\":29347:29667   */\n    tag_153:\n        /* \"#utility.yul\":29462:29466   */\n      0x00\n        /* \"#utility.yul\":29500:29502   */\n      0x40\n        /* \"#utility.yul\":29489:29498   */\n      dup3\n        /* \"#utility.yul\":29485:29503   */\n      add\n        /* \"#utility.yul\":29477:29503   */\n      swap1\n      pop\n        /* \"#utility.yul\":29513:29584   */\n      tag_571\n        /* \"#utility.yul\":29581:29582   */\n      0x00\n        /* \"#utility.yul\":29570:29579   */\n      dup4\n        /* \"#utility.yul\":29566:29583   */\n      add\n        /* \"#utility.yul\":29557:29563   */\n      dup6\n        /* \"#utility.yul\":29513:29584   */\n      tag_237\n      jump\t// in\n    tag_571:\n        /* \"#utility.yul\":29594:29660   */\n      tag_572\n        /* \"#utility.yul\":29656:29658   */\n      0x20\n        /* \"#utility.yul\":29645:29654   */\n      dup4\n        /* \"#utility.yul\":29641:29659   */\n      add\n        /* \"#utility.yul\":29632:29638   */\n      dup5\n        /* \"#utility.yul\":29594:29660   */\n      tag_251\n      jump\t// in\n    tag_572:\n        /* \"#utility.yul\":29347:29667   */\n      swap4\n      swap3\n      pop\n      pop\n      pop\n      jump\t// out\n        /* \"#utility.yul\":29673:29839   */\n    tag_280:\n        /* \"#utility.yul\":29813:29831   */\n      0x6e6f74207468652063686169726d616e00000000000000000000000000000000\n        /* \"#utility.yul\":29809:29810   */\n      0x00\n        /* \"#utility.yul\":29801:29807   */\n      dup3\n        /* \"#utility.yul\":29797:29811   */\n      add\n        /* \"#utility.yul\":29790:29832   */\n      mstore\n        /* \"#utility.yul\":29673:29839   */\n      pop\n      jump\t// out\n        /* \"#utility.yul\":29845:30211   */\n    tag_281:\n        /* \"#utility.yul\":29987:29990   */\n      0x00\n        /* \"#utility.yul\":30008:30075   */\n      tag_575\n        /* \"#utility.yul\":30072:30074   */\n      0x10\n        /* \"#utility.yul\":30067:30070   */\n      dup4\n        /* \"#utility.yul\":30008:30075   */\n      tag_248\n      jump\t// in\n    tag_575:\n        /* \"#utility.yul\":30001:30075   */\n      swap2\n      pop\n        /* \"#utility.yul\":30084:30177   */\n      tag_576\n        /* \"#utility.yul\":30173:30176   */\n      dup3\n        /* \"#utility.yul\":30084:30177   */\n      tag_280\n      jump\t// in\n    tag_576:\n        /* \"#utility.yul\":30202:30204   */\n      0x20\n        /* \"#utility.yul\":30197:30200   */\n      dup3\n        /* \"#utility.yul\":30193:30205   */\n      add\n        /* \"#utility.yul\":30186:30205   */\n      swap1\n      pop\n        /* \"#utility.yul\":29845:30211   */\n      swap2\n      swap1\n      pop\n      jump\t// out\n        /* \"#utility.yul\":30217:30636   */\n    tag_157:\n        /* \"#utility.yul\":30383:30387   */\n      0x00\n        /* \"#utility.yul\":30421:30423   */\n      0x20\n        /* \"#utility.yul\":30410:30419   */\n      dup3\n        /* \"#utility.yul\":30406:30424   */\n      add\n        /* \"#utility.yul\":30398:30424   */\n      swap1\n      pop\n        /* \"#utility.yul\":30470:30479   */\n      dup2\n        /* \"#utility.yul\":30464:30468   */\n      dup2\n        /* \"#utility.yul\":30460:30480   */\n      sub\n        /* \"#utility.yul\":30456:30457   */\n      0x00\n        /* \"#utility.yul\":30445:30454   */\n      dup4\n        /* \"#utility.yul\":30441:30458   */\n      add\n        /* \"#utility.yul\":30434:30481   */\n      mstore\n        /* \"#utility.yul\":30498:30629   */\n      tag_578\n        /* \"#utility.yul\":30624:30628   */\n      dup2\n        /* \"#utility.yul\":30498:30629   */\n      tag_281\n      jump\t// in\n    tag_578:\n        /* \"#utility.yul\":30490:30629   */\n      swap1\n      pop\n        /* \"#utility.yul\":30217:30636   */\n      swap2\n      swap1\n      pop\n      jump\t// out\n        /* \"#utility.yul\":30642:31019   */\n    tag_282:\n        /* \"#utility.yul\":30748:30751   */\n      0x00\n        /* \"#utility.yul\":30776:30815   */\n      tag_580\n        /* \"#utility.yul\":30809:30814   */\n      dup3\n        /* \"#utility.yul\":30776:30815   */\n      tag_210\n      jump\t// in\n    tag_580:\n        /* \"#utility.yul\":30831:30920   */\n      tag_581\n        /* \"#utility.yul\":30913:30919   */\n      dup2\n        /* \"#utility.yul\":30908:30911   */\n      dup6\n        /* \"#utility.yul\":30831:30920   */\n      tag_269\n      jump\t// in\n    tag_581:\n        /* \"#utility.yul\":30824:30920   */\n      swap4\n      pop\n        /* \"#utility.yul\":30929:30981   */\n      tag_582\n        /* \"#utility.yul\":30974:30980   */\n      dup2\n        /* \"#utility.yul\":30969:30972   */\n      dup6\n        /* \"#utility.yul\":30962:30966   */\n      0x20\n        /* \"#utility.yul\":30955:30960   */\n      dup7\n        /* \"#utility.yul\":30951:30967   */\n      add\n        /* \"#utility.yul\":30929:30981   */\n      tag_212\n      jump\t// in\n    tag_582:\n        /* \"#utility.yul\":31006:31012   */\n      dup1\n        /* \"#utility.yul\":31001:31004   */\n      dup5\n        /* \"#utility.yul\":30997:31013   */\n      add\n        /* \"#utility.yul\":30990:31013   */\n      swap2\n      pop\n        /* \"#utility.yul\":30752:31019   */\n      pop\n        /* \"#utility.yul\":30642:31019   */\n      swap3\n      swap2\n      pop\n      pop\n      jump\t// out\n        /* \"#utility.yul\":31025:31300   */\n    tag_168:\n        /* \"#utility.yul\":31157:31160   */\n      0x00\n        /* \"#utility.yul\":31179:31274   */\n      tag_584\n        /* \"#utility.yul\":31270:31273   */\n      dup3\n        /* \"#utility.yul\":31261:31267   */\n      dup5\n        /* \"#utility.yul\":31179:31274   */\n      tag_282\n      jump\t// in\n    tag_584:\n        /* \"#utility.yul\":31172:31274   */\n      swap2\n      pop\n        /* \"#utility.yul\":31291:31294   */\n      dup2\n        /* \"#utility.yul\":31284:31294   */\n      swap1\n      pop\n        /* \"#utility.yul\":31025:31300   */\n      swap3\n      swap2\n      pop\n      pop\n      jump\t// out\n        /* \"#utility.yul\":31306:31392   */\n    tag_283:\n        /* \"#utility.yul\":31341:31348   */\n      0x00\n        /* \"#utility.yul\":31381:31385   */\n      0xff\n        /* \"#utility.yul\":31374:31379   */\n      dup3\n        /* \"#utility.yul\":31370:31386   */\n      and\n        /* \"#utility.yul\":31359:31386   */\n      swap1\n      pop\n        /* \"#utility.yul\":31306:31392   */\n      swap2\n      swap1\n      pop\n      jump\t// out\n        /* \"#utility.yul\":31398:31635   */\n    tag_178:\n        /* \"#utility.yul\":31436:31439   */\n      0x00\n        /* \"#utility.yul\":31455:31473   */\n      tag_587\n        /* \"#utility.yul\":31471:31472   */\n      dup3\n        /* \"#utility.yul\":31455:31473   */\n      tag_283\n      jump\t// in\n    tag_587:\n        /* \"#utility.yul\":31450:31473   */\n      swap2\n      pop\n        /* \"#utility.yul\":31487:31505   */\n      tag_588\n        /* \"#utility.yul\":31503:31504   */\n      dup4\n        /* \"#utility.yul\":31487:31505   */\n      tag_283\n      jump\t// in\n    tag_588:\n        /* \"#utility.yul\":31482:31505   */\n      swap3\n      pop\n        /* \"#utility.yul\":31577:31578   */\n      dup3\n        /* \"#utility.yul\":31571:31575   */\n      0xff\n        /* \"#utility.yul\":31567:31579   */\n      sub\n        /* \"#utility.yul\":31564:31565   */\n      dup3\n        /* \"#utility.yul\":31561:31580   */\n      gt\n        /* \"#utility.yul\":31558:31603   */\n      iszero\n      tag_589\n      jumpi\n        /* \"#utility.yul\":31583:31601   */\n      tag_590\n      tag_261\n      jump\t// in\n    tag_590:\n        /* \"#utility.yul\":31558:31603   */\n    tag_589:\n        /* \"#utility.yul\":31627:31628   */\n      dup3\n        /* \"#utility.yul\":31624:31625   */\n      dup3\n        /* \"#utility.yul\":31620:31629   */\n      add\n        /* \"#utility.yul\":31613:31629   */\n      swap1\n      pop\n        /* \"#utility.yul\":31398:31635   */\n      swap3\n      swap2\n      pop\n      pop\n      jump\t// out\n        /* \"#utility.yul\":31641:31855   */\n    tag_284:\n        /* \"#utility.yul\":31781:31847   */\n      0x19457468657265756d205369676e6564204d6573736167653a0a333200000000\n        /* \"#utility.yul\":31777:31778   */\n      0x00\n        /* \"#utility.yul\":31769:31775   */\n      dup3\n        /* \"#utility.yul\":31765:31779   */\n      add\n        /* \"#utility.yul\":31758:31848   */\n      mstore\n        /* \"#utility.yul\":31641:31855   */\n      pop\n      jump\t// out\n        /* \"#utility.yul\":31861:32263   */\n    tag_285:\n        /* \"#utility.yul\":32021:32024   */\n      0x00\n        /* \"#utility.yul\":32042:32127   */\n      tag_593\n        /* \"#utility.yul\":32124:32126   */\n      0x1c\n        /* \"#utility.yul\":32119:32122   */\n      dup4\n        /* \"#utility.yul\":32042:32127   */\n      tag_269\n      jump\t// in\n    tag_593:\n        /* \"#utility.yul\":32035:32127   */\n      swap2\n      pop\n        /* \"#utility.yul\":32136:32229   */\n      tag_594\n        /* \"#utility.yul\":32225:32228   */\n      dup3\n        /* \"#utility.yul\":32136:32229   */\n      tag_284\n      jump\t// in\n    tag_594:\n        /* \"#utility.yul\":32254:32256   */\n      0x1c\n        /* \"#utility.yul\":32249:32252   */\n      dup3\n        /* \"#utility.yul\":32245:32257   */\n      add\n        /* \"#utility.yul\":32238:32257   */\n      swap1\n      pop\n        /* \"#utility.yul\":31861:32263   */\n      swap2\n      swap1\n      pop\n      jump\t// out\n        /* \"#utility.yul\":32269:32348   */\n    tag_286:\n        /* \"#utility.yul\":32308:32315   */\n      0x00\n        /* \"#utility.yul\":32337:32342   */\n      dup2\n        /* \"#utility.yul\":32326:32342   */\n      swap1\n      pop\n        /* \"#utility.yul\":32269:32348   */\n      swap2\n      swap1\n      pop\n      jump\t// out\n        /* \"#utility.yul\":32354:32511   */\n    tag_287:\n        /* \"#utility.yul\":32459:32504   */\n      tag_597\n        /* \"#utility.yul\":32479:32503   */\n      tag_598\n        /* \"#utility.yul\":32497:32502   */\n      dup3\n        /* \"#utility.yul\":32479:32503   */\n      tag_238\n      jump\t// in\n    tag_598:\n        /* \"#utility.yul\":32459:32504   */\n      tag_286\n      jump\t// in\n    tag_597:\n        /* \"#utility.yul\":32454:32457   */\n      dup3\n        /* \"#utility.yul\":32447:32505   */\n      mstore\n        /* \"#utility.yul\":32354:32511   */\n      pop\n      pop\n      jump\t// out\n        /* \"#utility.yul\":32517:33039   */\n    tag_183:\n        /* \"#utility.yul\":32730:32733   */\n      0x00\n        /* \"#utility.yul\":32752:32900   */\n      tag_600\n        /* \"#utility.yul\":32896:32899   */\n      dup3\n        /* \"#utility.yul\":32752:32900   */\n      tag_285\n      jump\t// in\n    tag_600:\n        /* \"#utility.yul\":32745:32900   */\n      swap2\n      pop\n        /* \"#utility.yul\":32910:32985   */\n      tag_601\n        /* \"#utility.yul\":32981:32984   */\n      dup3\n        /* \"#utility.yul\":32972:32978   */\n      dup5\n        /* \"#utility.yul\":32910:32985   */\n      tag_287\n      jump\t// in\n    tag_601:\n        /* \"#utility.yul\":33010:33012   */\n      0x20\n        /* \"#utility.yul\":33005:33008   */\n      dup3\n        /* \"#utility.yul\":33001:33013   */\n      add\n        /* \"#utility.yul\":32994:33013   */\n      swap2\n      pop\n        /* \"#utility.yul\":33030:33033   */\n      dup2\n        /* \"#utility.yul\":33023:33033   */\n      swap1\n      pop\n        /* \"#utility.yul\":32517:33039   */\n      swap3\n      swap2\n      pop\n      pop\n      jump\t// out\n        /* \"#utility.yul\":33045:33157   */\n    tag_288:\n        /* \"#utility.yul\":33128:33150   */\n      tag_603\n        /* \"#utility.yul\":33144:33149   */\n      dup2\n        /* \"#utility.yul\":33128:33150   */\n      tag_283\n      jump\t// in\n    tag_603:\n        /* \"#utility.yul\":33123:33126   */\n      dup3\n        /* \"#utility.yul\":33116:33151   */\n      mstore\n        /* \"#utility.yul\":33045:33157   */\n      pop\n      pop\n      jump\t// out\n        /* \"#utility.yul\":33163:33708   */\n    tag_185:\n        /* \"#utility.yul\":33336:33340   */\n      0x00\n        /* \"#utility.yul\":33374:33377   */\n      0x80\n        /* \"#utility.yul\":33363:33372   */\n      dup3\n        /* \"#utility.yul\":33359:33378   */\n      add\n        /* \"#utility.yul\":33351:33378   */\n      swap1\n      pop\n        /* \"#utility.yul\":33388:33459   */\n      tag_605\n        /* \"#utility.yul\":33456:33457   */\n      0x00\n        /* \"#utility.yul\":33445:33454   */\n      dup4\n        /* \"#utility.yul\":33441:33458   */\n      add\n        /* \"#utility.yul\":33432:33438   */\n      dup8\n        /* \"#utility.yul\":33388:33459   */\n      tag_239\n      jump\t// in\n    tag_605:\n        /* \"#utility.yul\":33469:33537   */\n      tag_606\n        /* \"#utility.yul\":33533:33535   */\n      0x20\n        /* \"#utility.yul\":33522:33531   */\n      dup4\n        /* \"#utility.yul\":33518:33536   */\n      add\n        /* \"#utility.yul\":33509:33515   */\n      dup7\n        /* \"#utility.yul\":33469:33537   */\n      tag_288\n      jump\t// in\n    tag_606:\n        /* \"#utility.yul\":33547:33619   */\n      tag_607\n        /* \"#utility.yul\":33615:33617   */\n      0x40\n        /* \"#utility.yul\":33604:33613   */\n      dup4\n        /* \"#utility.yul\":33600:33618   */\n      add\n        /* \"#utility.yul\":33591:33597   */\n      dup6\n        /* \"#utility.yul\":33547:33619   */\n      tag_239\n      jump\t// in\n    tag_607:\n        /* \"#utility.yul\":33629:33701   */\n      tag_608\n        /* \"#utility.yul\":33697:33699   */\n      0x60\n        /* \"#utility.yul\":33686:33695   */\n      dup4\n        /* \"#utility.yul\":33682:33700   */\n      add\n        /* \"#utility.yul\":33673:33679   */\n      dup5\n        /* \"#utility.yul\":33629:33701   */\n      tag_239\n      jump\t// in\n    tag_608:\n        /* \"#utility.yul\":33163:33708   */\n      swap6\n      swap5\n      pop\n      pop\n      pop\n      pop\n      pop\n      jump\t// out\n\n    auxdata: 0xa2646970667358221220a817835c9d242cd74b7d17501a202b6ea8fe6506fb4169aada57be712ce896c164736f6c634300080a0033\n}\n",
				"bytecode": {
					"linkReferences": {},
					"object": "6080604052600160005534801561001557600080fd5b506126ae806100256000396000f3fe608060405234801561001057600080fd5b50600436106100b45760003560e01c8063ae928e3e11610071578063ae928e3e146101c7578063bfe2e25d146101f7578063c10d6cec14610227578063c57003cc14610243578063e615f1041461025f578063f762f4c014610293576100b4565b8063049d1c8b146100b9578063278e2c90146100d557806366c5343b1461010557806367d407df146101355780638ac3c3c2146101655780638ccb59e814610195575b600080fd5b6100d360048036038101906100ce9190611612565b6102af565b005b6100ef60048036038101906100ea9190611652565b61057d565b6040516100fc91906118a0565b60405180910390f35b61011f600480360381019061011a9190611652565b610787565b60405161012c91906118d1565b60405180910390f35b61014f600480360381019061014a91906118ec565b6107c2565b60405161015c91906118d1565b60405180910390f35b61017f600480360381019061017a9190611652565b6107da565b60405161018c9190611988565b60405180910390f35b6101af60048036038101906101aa9190611652565b610884565b6040516101be93929190611a77565b60405180910390f35b6101e160048036038101906101dc9190611652565b610ad0565b6040516101ee91906118d1565b60405180910390f35b610211600480360381019061020c9190611ab5565b610af4565b60405161021e9190611b35565b60405180910390f35b610241600480360381019061023c9190611c85565b610b2f565b005b61025d60048036038101906102589190611652565b610e33565b005b61027960048036038101906102749190611652565b610f4e565b60405161028a959493929190611d70565b60405180910390f35b6102ad60048036038101906102a89190611e97565b611059565b005b6000600260008381526020019081526020016000209050600073ffffffffffffffffffffffffffffffffffffffff168160010160009054906101000a900473ffffffffffffffffffffffffffffffffffffffff1673ffffffffffffffffffffffffffffffffffffffff16141561035a576040517f08c379a000000000000000000000000000000000000000000000000000000000815260040161035190611f3f565b60405180910390fd5b3373ffffffffffffffffffffffffffffffffffffffff168160010160009054906101000a900473ffffffffffffffffffffffffffffffffffffffff1673ffffffffffffffffffffffffffffffffffffffff16146103ba576103b9611f5f565b5b8060030160009054906101000a900463ffffffff1663ffffffff168160030160049054906101000a900463ffffffff1663ffffffff1610610430576040517f08c379a000000000000000000000000000000000000000000000000000000000815260040161042790612000565b60405180910390fd5b60016004600084815260200190815260200160002060008573ffffffffffffffffffffffffffffffffffffffff1673ffffffffffffffffffffffffffffffffffffffff16815260200190815260200160002060006101000a81548160ff02191690831515021790555080600201839080600181540180825580915050600190039060005260206000200160009091909190916101000a81548173ffffffffffffffffffffffffffffffffffffffff021916908373ffffffffffffffffffffffffffffffffffffffff16021790555080600301600481819054906101000a900463ffffffff16809291906105229061204f565b91906101000a81548163ffffffff021916908363ffffffff160217905550507fc19c59aa93348e8fc54764bc642eca975e2639f44cc683ef8f027e1529cbda3283604051610570919061207c565b60405180910390a1505050565b61058561146d565b600260008381526020019081526020016000206040518060c00160405290816000820180546105b3906120c6565b80601f01602080910402602001604051908101604052809291908181526020018280546105df906120c6565b801561062c5780601f106106015761010080835404028352916020019161062c565b820191906000526020600020905b81548152906001019060200180831161060f57829003601f168201915b505050505081526020016001820160009054906101000a900473ffffffffffffffffffffffffffffffffffffffff1673ffffffffffffffffffffffffffffffffffffffff1673ffffffffffffffffffffffffffffffffffffffff1681526020016002820180548060200260200160405190810160405280929190818152602001828054801561071057602002820191906000526020600020905b8160009054906101000a900473ffffffffffffffffffffffffffffffffffffffff1673ffffffffffffffffffffffffffffffffffffffff16815260200190600101908083116106c6575b505050505081526020016003820160009054906101000a900463ffffffff1663ffffffff1663ffffffff1681526020016003820160049054906101000a900463ffffffff1663ffffffff1663ffffffff1681526020016003820160089054906101000a900460ff1615151515815250509050919050565b6000806002600084815260200190815260200160002090508060030160049054906101000a900463ffffffff1663ffffffff16915050919050565b60036020528060005260406000206000915090505481565b606060006002600084815260200190815260200160002090508060020180548060200260200160405190810160405280929190818152602001828054801561087757602002820191906000526020600020905b8160009054906101000a900473ffffffffffffffffffffffffffffffffffffffff1673ffffffffffffffffffffffffffffffffffffffff168152602001906001019080831161082d575b5050505050915050919050565b60606000806000600260008681526020019081526020016000209050600073ffffffffffffffffffffffffffffffffffffffff168160010160009054906101000a900473ffffffffffffffffffffffffffffffffffffffff1673ffffffffffffffffffffffffffffffffffffffff161415610934576040517f08c379a000000000000000000000000000000000000000000000000000000000815260040161092b90612144565b60405180910390fd5b806002018054905067ffffffffffffffff81111561095557610954611b5a565b5b6040519080825280602002602001820160405280156109835781602001602082028036833780820191505090505b50935060008060005b8360020180549050811015610abc5760006109a78983611197565b9050838111156109f8578093508460020182815481106109ca576109c9612164565b5b9060005260206000200160009054906101000a900473ffffffffffffffffffffffffffffffffffffffff1692505b600560008a81526020019081526020016000206000866002018481548110610a2357610a22612164565b5b9060005260206000200160009054906101000a900473ffffffffffffffffffffffffffffffffffffffff1673ffffffffffffffffffffffffffffffffffffffff1673ffffffffffffffffffffffffffffffffffffffff16815260200190815260200160002054888381518110610a9c57610a9b612164565b5b602002602001018181525050508080610ab490612193565b91505061098c565b508581839550955095505050509193909250565b60018181548110610ae057600080fd5b906000526020600020016000915090505481565b60003085858585604051602001610b0f95949392919061229c565b604051602081830303815290604052805190602001209050949350505050565b8383600115156004600083815260200190815260200160002060008473ffffffffffffffffffffffffffffffffffffffff1673ffffffffffffffffffffffffffffffffffffffff16815260200190815260200160002060009054906101000a900460ff16151514610bd5576040517f08c379a0000000000000000000000000000000000000000000000000000000008152600401610bcc90612378565b60405180910390fd5b846000600260008381526020019081526020016000209050600115158160030160089054906101000a900460ff16151514610c45576040517f08c379a0000000000000000000000000000000000000000000000000000000008152600401610c3c906123e4565b60405180910390fd5b6000610c5389898942610af4565b90506000610c618288611249565b9050600073ffffffffffffffffffffffffffffffffffffffff168173ffffffffffffffffffffffffffffffffffffffff161415610c9d57600080fd5b600360008273ffffffffffffffffffffffffffffffffffffffff1673ffffffffffffffffffffffffffffffffffffffff168152602001908152602001600020548814610ce857600080fd5b600360008273ffffffffffffffffffffffffffffffffffffffff1673ffffffffffffffffffffffffffffffffffffffff1681526020019081526020016000206000815480929190610d3890612193565b919050555060001515600660008b815260200190815260200160002060008373ffffffffffffffffffffffffffffffffffffffff1673ffffffffffffffffffffffffffffffffffffffff16815260200190815260200160002060009054906101000a900460ff16151514610de1576040517f08c379a0000000000000000000000000000000000000000000000000000000008152600401610dd890612450565b60405180910390fd5b610dec8a8a83611342565b507ff3f16a15f074b71c5138107dfc7c63b80524d5411cb967caa97d8d9f12b2fd6b8a6001604051610e1f929190612470565b60405180910390a150505050505050505050565b60006002600083815260200190815260200160002090503373ffffffffffffffffffffffffffffffffffffffff168160010160009054906101000a900473ffffffffffffffffffffffffffffffffffffffff1673ffffffffffffffffffffffffffffffffffffffff1614610edc576040517f08c379a0000000000000000000000000000000000000000000000000000000008152600401610ed3906124e5565b60405180910390fd5b8060030160089054906101000a900460ff16158160030160086101000a81548160ff0219169083151502179055508060030160089054906101000a900460ff1615157f7b224db641892626dca6975b376f464e9ac52ccfa180436175170c009b94dcd760405160405180910390a25050565b6002602052806000526040600020600091509050806000018054610f71906120c6565b80601f0160208091040260200160405190810160405280929190818152602001828054610f9d906120c6565b8015610fea5780601f10610fbf57610100808354040283529160200191610fea565b820191906000526020600020905b815481529060010190602001808311610fcd57829003601f168201915b5050505050908060010160009054906101000a900473ffffffffffffffffffffffffffffffffffffffff16908060030160009054906101000a900463ffffffff16908060030160049054906101000a900463ffffffff16908060030160089054906101000a900460ff16905085565b600060026000805481526020019081526020016000209050828160000190805190602001906110899291906114c7565b50338160010160006101000a81548173ffffffffffffffffffffffffffffffffffffffff021916908373ffffffffffffffffffffffffffffffffffffffff160217905550818160030160006101000a81548163ffffffff021916908363ffffffff160217905550600160005490806001815401808255809150506001900390600052602060002001600090919091909150556000548160030160009054906101000a900463ffffffff1663ffffffff16846040516111479190612536565b60405180910390207fd4d0d9a1ef7f13069f1bade752fda515713d747eb14a8c30ae461c52916bf1c760405160405180910390a460008081548092919061118d90612193565b9190505550505050565b6000806002600085815260200190815260200160002090506005600085815260200190815260200160002060008260020185815481106111da576111d9612164565b5b9060005260206000200160009054906101000a900473ffffffffffffffffffffffffffffffffffffffff1673ffffffffffffffffffffffffffffffffffffffff1673ffffffffffffffffffffffffffffffffffffffff1681526020019081526020016000205491505092915050565b6000806000806041855114611264576000935050505061133c565b6020850151925060408501519150606085015160001a9050601b8160ff16101561129857601b81611295919061255a565b90505b601b8160ff16141580156112b05750601c8160ff1614155b156112c1576000935050505061133c565b6001866040516020016112d491906125fe565b604051602081830303815290604052805190602001208285856040516000815260200160405260405161130a9493929190612633565b6020604051602081039080840390855afa15801561132c573d6000803e3d6000fd5b5050506020604051035193505050505b92915050565b600060016006600085815260200190815260200160002060008473ffffffffffffffffffffffffffffffffffffffff1673ffffffffffffffffffffffffffffffffffffffff16815260200190815260200160002060006101000a81548160ff0219169083151502179055506005600084815260200190815260200160002060008573ffffffffffffffffffffffffffffffffffffffff1673ffffffffffffffffffffffffffffffffffffffff168152602001908152602001600020600081548092919061140e90612193565b91905055506005600084815260200190815260200160002060008573ffffffffffffffffffffffffffffffffffffffff1673ffffffffffffffffffffffffffffffffffffffff1681526020019081526020016000205490509392505050565b6040518060c0016040528060608152602001600073ffffffffffffffffffffffffffffffffffffffff16815260200160608152602001600063ffffffff168152602001600063ffffffff1681526020016000151581525090565b8280546114d3906120c6565b90600052602060002090601f0160209004810192826114f5576000855561153c565b82601f1061150e57805160ff191683800117855561153c565b8280016001018555821561153c579182015b8281111561153b578251825591602001919060010190611520565b5b509050611549919061154d565b5090565b5b8082111561156657600081600090555060010161154e565b5090565b6000604051905090565b600080fd5b600080fd5b600073ffffffffffffffffffffffffffffffffffffffff82169050919050565b60006115a98261157e565b9050919050565b6115b98161159e565b81146115c457600080fd5b50565b6000813590506115d6816115b0565b92915050565b6000819050919050565b6115ef816115dc565b81146115fa57600080fd5b50565b60008135905061160c816115e6565b92915050565b6000806040838503121561162957611628611574565b5b6000611637858286016115c7565b9250506020611648858286016115fd565b9150509250929050565b60006020828403121561166857611667611574565b5b6000611676848285016115fd565b91505092915050565b600081519050919050565b600082825260208201905092915050565b60005b838110156116b957808201518184015260208101905061169e565b838111156116c8576000848401525b50505050565b6000601f19601f8301169050919050565b60006116ea8261167f565b6116f4818561168a565b935061170481856020860161169b565b61170d816116ce565b840191505092915050565b6117218161159e565b82525050565b600081519050919050565b600082825260208201905092915050565b6000819050602082019050919050565b600061175f8383611718565b60208301905092915050565b6000602082019050919050565b600061178382611727565b61178d8185611732565b935061179883611743565b8060005b838110156117c95781516117b08882611753565b97506117bb8361176b565b92505060018101905061179c565b5085935050505092915050565b600063ffffffff82169050919050565b6117ef816117d6565b82525050565b60008115159050919050565b61180a816117f5565b82525050565b600060c083016000830151848203600086015261182d82826116df565b91505060208301516118426020860182611718565b506040830151848203604086015261185a8282611778565b915050606083015161186f60608601826117e6565b50608083015161188260808601826117e6565b5060a083015161189560a0860182611801565b508091505092915050565b600060208201905081810360008301526118ba8184611810565b905092915050565b6118cb816115dc565b82525050565b60006020820190506118e660008301846118c2565b92915050565b60006020828403121561190257611901611574565b5b6000611910848285016115c7565b91505092915050565b600082825260208201905092915050565b600061193582611727565b61193f8185611919565b935061194a83611743565b8060005b8381101561197b5781516119628882611753565b975061196d8361176b565b92505060018101905061194e565b5085935050505092915050565b600060208201905081810360008301526119a2818461192a565b905092915050565b600081519050919050565b600082825260208201905092915050565b6000819050602082019050919050565b6119df816115dc565b82525050565b60006119f183836119d6565b60208301905092915050565b6000602082019050919050565b6000611a15826119aa565b611a1f81856119b5565b9350611a2a836119c6565b8060005b83811015611a5b578151611a4288826119e5565b9750611a4d836119fd565b925050600181019050611a2e565b5085935050505092915050565b611a718161159e565b82525050565b60006060820190508181036000830152611a918186611a0a565b9050611aa06020830185611a68565b611aad60408301846118c2565b949350505050565b60008060008060808587031215611acf57611ace611574565b5b6000611add878288016115c7565b9450506020611aee878288016115fd565b9350506040611aff878288016115fd565b9250506060611b10878288016115fd565b91505092959194509250565b6000819050919050565b611b2f81611b1c565b82525050565b6000602082019050611b4a6000830184611b26565b92915050565b600080fd5b600080fd5b7f4e487b7100000000000000000000000000000000000000000000000000000000600052604160045260246000fd5b611b92826116ce565b810181811067ffffffffffffffff82111715611bb157611bb0611b5a565b5b80604052505050565b6000611bc461156a565b9050611bd08282611b89565b919050565b600067ffffffffffffffff821115611bf057611bef611b5a565b5b611bf9826116ce565b9050602081019050919050565b82818337600083830152505050565b6000611c28611c2384611bd5565b611bba565b905082815260208101848484011115611c4457611c43611b55565b5b611c4f848285611c06565b509392505050565b600082601f830112611c6c57611c6b611b50565b5b8135611c7c848260208601611c15565b91505092915050565b60008060008060808587031215611c9f57611c9e611574565b5b6000611cad878288016115c7565b9450506020611cbe878288016115fd565b9350506040611ccf878288016115fd565b925050606085013567ffffffffffffffff811115611cf057611cef611579565b5b611cfc87828801611c57565b91505092959194509250565b600082825260208201905092915050565b6000611d248261167f565b611d2e8185611d08565b9350611d3e81856020860161169b565b611d47816116ce565b840191505092915050565b611d5b816117d6565b82525050565b611d6a816117f5565b82525050565b600060a0820190508181036000830152611d8a8188611d19565b9050611d996020830187611a68565b611da66040830186611d52565b611db36060830185611d52565b611dc06080830184611d61565b9695505050505050565b600067ffffffffffffffff821115611de557611de4611b5a565b5b611dee826116ce565b9050602081019050919050565b6000611e0e611e0984611dca565b611bba565b905082815260208101848484011115611e2a57611e29611b55565b5b611e35848285611c06565b509392505050565b600082601f830112611e5257611e51611b50565b5b8135611e62848260208601611dfb565b91505092915050565b611e74816117d6565b8114611e7f57600080fd5b50565b600081359050611e9181611e6b565b92915050565b60008060408385031215611eae57611ead611574565b5b600083013567ffffffffffffffff811115611ecc57611ecb611579565b5b611ed885828601611e3d565b9250506020611ee985828601611e82565b9150509250929050565b7f79657420746f20637265617465206120706f6c6c000000000000000000000000600082015250565b6000611f29601483611d08565b9150611f3482611ef3565b602082019050919050565b60006020820190508181036000830152611f5881611f1c565b9050919050565b7f4e487b7100000000000000000000000000000000000000000000000000000000600052600160045260246000fd5b7f6d6178696d756d206e6f206f662063616e64696461746520706572207365737360008201527f696f6e2072656769737465726564000000000000000000000000000000000000602082015250565b6000611fea602e83611d08565b9150611ff582611f8e565b604082019050919050565b6000602082019050818103600083015261201981611fdd565b9050919050565b7f4e487b7100000000000000000000000000000000000000000000000000000000600052601160045260246000fd5b600061205a826117d6565b915063ffffffff82141561207157612070612020565b5b600182019050919050565b60006020820190506120916000830184611a68565b92915050565b7f4e487b7100000000000000000000000000000000000000000000000000000000600052602260045260246000fd5b600060028204905060018216806120de57607f821691505b602082108114156120f2576120f1612097565b5b50919050565b7f4e6f20706f6c6c20637265617465640000000000000000000000000000000000600082015250565b600061212e600f83611d08565b9150612139826120f8565b602082019050919050565b6000602082019050818103600083015261215d81612121565b9050919050565b7f4e487b7100000000000000000000000000000000000000000000000000000000600052603260045260246000fd5b600061219e826115dc565b91507fffffffffffffffffffffffffffffffffffffffffffffffffffffffffffffffff8214156121d1576121d0612020565b5b600182019050919050565b60008160601b9050919050565b60006121f4826121dc565b9050919050565b6000612206826121e9565b9050919050565b61221e6122198261159e565b6121fb565b82525050565b600081905092915050565b7f6d6574617472616e73616374696f6e20566f74696e6720000000000000000000600082015250565b6000612265601783612224565b91506122708261222f565b601782019050919050565b6000819050919050565b612296612291826115dc565b61227b565b82525050565b60006122a8828861220d565b6014820191506122b782612258565b91506122c3828761220d565b6014820191506122d38286612285565b6020820191506122e38285612285565b6020820191506122f38284612285565b6020820191508190509695505050505050565b7f54686973206164647265737320646f6573206e6f74206578697374206173206160008201527f2063616e64696461746500000000000000000000000000000000000000000000602082015250565b6000612362602a83611d08565b915061236d82612306565b604082019050919050565b6000602082019050818103600083015261239181612355565b9050919050565b7f766f74696e672068617320656e64656400000000000000000000000000000000600082015250565b60006123ce601083611d08565b91506123d982612398565b602082019050919050565b600060208201905081810360008301526123fd816123c1565b9050919050565b7f596f7520616c726561647920766f746564000000000000000000000000000000600082015250565b600061243a601183611d08565b915061244582612404565b602082019050919050565b600060208201905081810360008301526124698161242d565b9050919050565b60006040820190506124856000830185611a68565b6124926020830184611d61565b9392505050565b7f6e6f74207468652063686169726d616e00000000000000000000000000000000600082015250565b60006124cf601083611d08565b91506124da82612499565b602082019050919050565b600060208201905081810360008301526124fe816124c2565b9050919050565b60006125108261167f565b61251a8185612224565b935061252a81856020860161169b565b80840191505092915050565b60006125428284612505565b915081905092915050565b600060ff82169050919050565b60006125658261254d565b91506125708361254d565b92508260ff0382111561258657612585612020565b5b828201905092915050565b7f19457468657265756d205369676e6564204d6573736167653a0a333200000000600082015250565b60006125c7601c83612224565b91506125d282612591565b601c82019050919050565b6000819050919050565b6125f86125f382611b1c565b6125dd565b82525050565b6000612609826125ba565b915061261582846125e7565b60208201915081905092915050565b61262d8161254d565b82525050565b60006080820190506126486000830187611b26565b6126556020830186612624565b6126626040830185611b26565b61266f6060830184611b26565b9594505050505056fea2646970667358221220a817835c9d242cd74b7d17501a202b6ea8fe6506fb4169aada57be712ce896c164736f6c634300080a0033",
					"opcodes": "PUSH1 0x80 PUSH1 0x40 MSTORE PUSH1 0x1 PUSH1 0x0 SSTORE CALLVALUE DUP1 ISZERO PUSH2 0x15 JUMPI PUSH1 0x0 DUP1 REVERT JUMPDEST POP PUSH2 0x26AE DUP1 PUSH2 0x25 PUSH1 0x0 CODECOPY PUSH1 0x0 RETURN INVALID PUSH1 0x80 PUSH1 0x40 MSTORE CALLVALUE DUP1 ISZERO PUSH2 0x10 JUMPI PUSH1 0x0 DUP1 REVERT JUMPDEST POP PUSH1 0x4 CALLDATASIZE LT PUSH2 0xB4 JUMPI PUSH1 0x0 CALLDATALOAD PUSH1 0xE0 SHR DUP1 PUSH4 0xAE928E3E GT PUSH2 0x71 JUMPI DUP1 PUSH4 0xAE928E3E EQ PUSH2 0x1C7 JUMPI DUP1 PUSH4 0xBFE2E25D EQ PUSH2 0x1F7 JUMPI DUP1 PUSH4 0xC10D6CEC EQ PUSH2 0x227 JUMPI DUP1 PUSH4 0xC57003CC EQ PUSH2 0x243 JUMPI DUP1 PUSH4 0xE615F104 EQ PUSH2 0x25F JUMPI DUP1 PUSH4 0xF762F4C0 EQ PUSH2 0x293 JUMPI PUSH2 0xB4 JUMP JUMPDEST DUP1 PUSH4 0x49D1C8B EQ PUSH2 0xB9 JUMPI DUP1 PUSH4 0x278E2C90 EQ PUSH2 0xD5 JUMPI DUP1 PUSH4 0x66C5343B EQ PUSH2 0x105 JUMPI DUP1 PUSH4 0x67D407DF EQ PUSH2 0x135 JUMPI DUP1 PUSH4 0x8AC3C3C2 EQ PUSH2 0x165 JUMPI DUP1 PUSH4 0x8CCB59E8 EQ PUSH2 0x195 JUMPI JUMPDEST PUSH1 0x0 DUP1 REVERT JUMPDEST PUSH2 0xD3 PUSH1 0x4 DUP1 CALLDATASIZE SUB DUP2 ADD SWAP1 PUSH2 0xCE SWAP2 SWAP1 PUSH2 0x1612 JUMP JUMPDEST PUSH2 0x2AF JUMP JUMPDEST STOP JUMPDEST PUSH2 0xEF PUSH1 0x4 DUP1 CALLDATASIZE SUB DUP2 ADD SWAP1 PUSH2 0xEA SWAP2 SWAP1 PUSH2 0x1652 JUMP JUMPDEST PUSH2 0x57D JUMP JUMPDEST PUSH1 0x40 MLOAD PUSH2 0xFC SWAP2 SWAP1 PUSH2 0x18A0 JUMP JUMPDEST PUSH1 0x40 MLOAD DUP1 SWAP2 SUB SWAP1 RETURN JUMPDEST PUSH2 0x11F PUSH1 0x4 DUP1 CALLDATASIZE SUB DUP2 ADD SWAP1 PUSH2 0x11A SWAP2 SWAP1 PUSH2 0x1652 JUMP JUMPDEST PUSH2 0x787 JUMP JUMPDEST PUSH1 0x40 MLOAD PUSH2 0x12C SWAP2 SWAP1 PUSH2 0x18D1 JUMP JUMPDEST PUSH1 0x40 MLOAD DUP1 SWAP2 SUB SWAP1 RETURN JUMPDEST PUSH2 0x14F PUSH1 0x4 DUP1 CALLDATASIZE SUB DUP2 ADD SWAP1 PUSH2 0x14A SWAP2 SWAP1 PUSH2 0x18EC JUMP JUMPDEST PUSH2 0x7C2 JUMP JUMPDEST PUSH1 0x40 MLOAD PUSH2 0x15C SWAP2 SWAP1 PUSH2 0x18D1 JUMP JUMPDEST PUSH1 0x40 MLOAD DUP1 SWAP2 SUB SWAP1 RETURN JUMPDEST PUSH2 0x17F PUSH1 0x4 DUP1 CALLDATASIZE SUB DUP2 ADD SWAP1 PUSH2 0x17A SWAP2 SWAP1 PUSH2 0x1652 JUMP JUMPDEST PUSH2 0x7DA JUMP JUMPDEST PUSH1 0x40 MLOAD PUSH2 0x18C SWAP2 SWAP1 PUSH2 0x1988 JUMP JUMPDEST PUSH1 0x40 MLOAD DUP1 SWAP2 SUB SWAP1 RETURN JUMPDEST PUSH2 0x1AF PUSH1 0x4 DUP1 CALLDATASIZE SUB DUP2 ADD SWAP1 PUSH2 0x1AA SWAP2 SWAP1 PUSH2 0x1652 JUMP JUMPDEST PUSH2 0x884 JUMP JUMPDEST PUSH1 0x40 MLOAD PUSH2 0x1BE SWAP4 SWAP3 SWAP2 SWAP1 PUSH2 0x1A77 JUMP JUMPDEST PUSH1 0x40 MLOAD DUP1 SWAP2 SUB SWAP1 RETURN JUMPDEST PUSH2 0x1E1 PUSH1 0x4 DUP1 CALLDATASIZE SUB DUP2 ADD SWAP1 PUSH2 0x1DC SWAP2 SWAP1 PUSH2 0x1652 JUMP JUMPDEST PUSH2 0xAD0 JUMP JUMPDEST PUSH1 0x40 MLOAD PUSH2 0x1EE SWAP2 SWAP1 PUSH2 0x18D1 JUMP JUMPDEST PUSH1 0x40 MLOAD DUP1 SWAP2 SUB SWAP1 RETURN JUMPDEST PUSH2 0x211 PUSH1 0x4 DUP1 CALLDATASIZE SUB DUP2 ADD SWAP1 PUSH2 0x20C SWAP2 SWAP1 PUSH2 0x1AB5 JUMP JUMPDEST PUSH2 0xAF4 JUMP JUMPDEST PUSH1 0x40 MLOAD PUSH2 0x21E SWAP2 SWAP1 PUSH2 0x1B35 JUMP JUMPDEST PUSH1 0x40 MLOAD DUP1 SWAP2 SUB SWAP1 RETURN JUMPDEST PUSH2 0x241 PUSH1 0x4 DUP1 CALLDATASIZE SUB DUP2 ADD SWAP1 PUSH2 0x23C SWAP2 SWAP1 PUSH2 0x1C85 JUMP JUMPDEST PUSH2 0xB2F JUMP JUMPDEST STOP JUMPDEST PUSH2 0x25D PUSH1 0x4 DUP1 CALLDATASIZE SUB DUP2 ADD SWAP1 PUSH2 0x258 SWAP2 SWAP1 PUSH2 0x1652 JUMP JUMPDEST PUSH2 0xE33 JUMP JUMPDEST STOP JUMPDEST PUSH2 0x279 PUSH1 0x4 DUP1 CALLDATASIZE SUB DUP2 ADD SWAP1 PUSH2 0x274 SWAP2 SWAP1 PUSH2 0x1652 JUMP JUMPDEST PUSH2 0xF4E JUMP JUMPDEST PUSH1 0x40 MLOAD PUSH2 0x28A SWAP6 SWAP5 SWAP4 SWAP3 SWAP2 SWAP1 PUSH2 0x1D70 JUMP JUMPDEST PUSH1 0x40 MLOAD DUP1 SWAP2 SUB SWAP1 RETURN JUMPDEST PUSH2 0x2AD PUSH1 0x4 DUP1 CALLDATASIZE SUB DUP2 ADD SWAP1 PUSH2 0x2A8 SWAP2 SWAP1 PUSH2 0x1E97 JUMP JUMPDEST PUSH2 0x1059 JUMP JUMPDEST STOP JUMPDEST PUSH1 0x0 PUSH1 0x2 PUSH1 0x0 DUP4 DUP2 MSTORE PUSH1 0x20 ADD SWAP1 DUP2 MSTORE PUSH1 0x20 ADD PUSH1 0x0 KECCAK256 SWAP1 POP PUSH1 0x0 PUSH20 0xFFFFFFFFFFFFFFFFFFFFFFFFFFFFFFFFFFFFFFFF AND DUP2 PUSH1 0x1 ADD PUSH1 0x0 SWAP1 SLOAD SWAP1 PUSH2 0x100 EXP SWAP1 DIV PUSH20 0xFFFFFFFFFFFFFFFFFFFFFFFFFFFFFFFFFFFFFFFF AND PUSH20 0xFFFFFFFFFFFFFFFFFFFFFFFFFFFFFFFFFFFFFFFF AND EQ ISZERO PUSH2 0x35A JUMPI PUSH1 0x40 MLOAD PUSH32 0x8C379A000000000000000000000000000000000000000000000000000000000 DUP2 MSTORE PUSH1 0x4 ADD PUSH2 0x351 SWAP1 PUSH2 0x1F3F JUMP JUMPDEST PUSH1 0x40 MLOAD DUP1 SWAP2 SUB SWAP1 REVERT JUMPDEST CALLER PUSH20 0xFFFFFFFFFFFFFFFFFFFFFFFFFFFFFFFFFFFFFFFF AND DUP2 PUSH1 0x1 ADD PUSH1 0x0 SWAP1 SLOAD SWAP1 PUSH2 0x100 EXP SWAP1 DIV PUSH20 0xFFFFFFFFFFFFFFFFFFFFFFFFFFFFFFFFFFFFFFFF AND PUSH20 0xFFFFFFFFFFFFFFFFFFFFFFFFFFFFFFFFFFFFFFFF AND EQ PUSH2 0x3BA JUMPI PUSH2 0x3B9 PUSH2 0x1F5F JUMP JUMPDEST JUMPDEST DUP1 PUSH1 0x3 ADD PUSH1 0x0 SWAP1 SLOAD SWAP1 PUSH2 0x100 EXP SWAP1 DIV PUSH4 0xFFFFFFFF AND PUSH4 0xFFFFFFFF AND DUP2 PUSH1 0x3 ADD PUSH1 0x4 SWAP1 SLOAD SWAP1 PUSH2 0x100 EXP SWAP1 DIV PUSH4 0xFFFFFFFF AND PUSH4 0xFFFFFFFF AND LT PUSH2 0x430 JUMPI PUSH1 0x40 MLOAD PUSH32 0x8C379A000000000000000000000000000000000000000000000000000000000 DUP2 MSTORE PUSH1 0x4 ADD PUSH2 0x427 SWAP1 PUSH2 0x2000 JUMP JUMPDEST PUSH1 0x40 MLOAD DUP1 SWAP2 SUB SWAP1 REVERT JUMPDEST PUSH1 0x1 PUSH1 0x4 PUSH1 0x0 DUP5 DUP2 MSTORE PUSH1 0x20 ADD SWAP1 DUP2 MSTORE PUSH1 0x20 ADD PUSH1 0x0 KECCAK256 PUSH1 0x0 DUP6 PUSH20 0xFFFFFFFFFFFFFFFFFFFFFFFFFFFFFFFFFFFFFFFF AND PUSH20 0xFFFFFFFFFFFFFFFFFFFFFFFFFFFFFFFFFFFFFFFF AND DUP2 MSTORE PUSH1 0x20 ADD SWAP1 DUP2 MSTORE PUSH1 0x20 ADD PUSH1 0x0 KECCAK256 PUSH1 0x0 PUSH2 0x100 EXP DUP2 SLOAD DUP2 PUSH1 0xFF MUL NOT AND SWAP1 DUP4 ISZERO ISZERO MUL OR SWAP1 SSTORE POP DUP1 PUSH1 0x2 ADD DUP4 SWAP1 DUP1 PUSH1 0x1 DUP2 SLOAD ADD DUP1 DUP3 SSTORE DUP1 SWAP2 POP POP PUSH1 0x1 SWAP1 SUB SWAP1 PUSH1 0x0 MSTORE PUSH1 0x20 PUSH1 0x0 KECCAK256 ADD PUSH1 0x0 SWAP1 SWAP2 SWAP1 SWAP2 SWAP1 SWAP2 PUSH2 0x100 EXP DUP2 SLOAD DUP2 PUSH20 0xFFFFFFFFFFFFFFFFFFFFFFFFFFFFFFFFFFFFFFFF MUL NOT AND SWAP1 DUP4 PUSH20 0xFFFFFFFFFFFFFFFFFFFFFFFFFFFFFFFFFFFFFFFF AND MUL OR SWAP1 SSTORE POP DUP1 PUSH1 0x3 ADD PUSH1 0x4 DUP2 DUP2 SWAP1 SLOAD SWAP1 PUSH2 0x100 EXP SWAP1 DIV PUSH4 0xFFFFFFFF AND DUP1 SWAP3 SWAP2 SWAP1 PUSH2 0x522 SWAP1 PUSH2 0x204F JUMP JUMPDEST SWAP2 SWAP1 PUSH2 0x100 EXP DUP2 SLOAD DUP2 PUSH4 0xFFFFFFFF MUL NOT AND SWAP1 DUP4 PUSH4 0xFFFFFFFF AND MUL OR SWAP1 SSTORE POP POP PUSH32 0xC19C59AA93348E8FC54764BC642ECA975E2639F44CC683EF8F027E1529CBDA32 DUP4 PUSH1 0x40 MLOAD PUSH2 0x570 SWAP2 SWAP1 PUSH2 0x207C JUMP JUMPDEST PUSH1 0x40 MLOAD DUP1 SWAP2 SUB SWAP1 LOG1 POP POP POP JUMP JUMPDEST PUSH2 0x585 PUSH2 0x146D JUMP JUMPDEST PUSH1 0x2 PUSH1 0x0 DUP4 DUP2 MSTORE PUSH1 0x20 ADD SWAP1 DUP2 MSTORE PUSH1 0x20 ADD PUSH1 0x0 KECCAK256 PUSH1 0x40 MLOAD DUP1 PUSH1 0xC0 ADD PUSH1 0x40 MSTORE SWAP1 DUP2 PUSH1 0x0 DUP3 ADD DUP1 SLOAD PUSH2 0x5B3 SWAP1 PUSH2 0x20C6 JUMP JUMPDEST DUP1 PUSH1 0x1F ADD PUSH1 0x20 DUP1 SWAP2 DIV MUL PUSH1 0x20 ADD PUSH1 0x40 MLOAD SWAP1 DUP2 ADD PUSH1 0x40 MSTORE DUP1 SWAP3 SWAP2 SWAP1 DUP2 DUP2 MSTORE PUSH1 0x20 ADD DUP3 DUP1 SLOAD PUSH2 0x5DF SWAP1 PUSH2 0x20C6 JUMP JUMPDEST DUP1 ISZERO PUSH2 0x62C JUMPI DUP1 PUSH1 0x1F LT PUSH2 0x601 JUMPI PUSH2 0x100 DUP1 DUP4 SLOAD DIV MUL DUP4 MSTORE SWAP2 PUSH1 0x20 ADD SWAP2 PUSH2 0x62C JUMP JUMPDEST DUP3 ADD SWAP2 SWAP1 PUSH1 0x0 MSTORE PUSH1 0x20 PUSH1 0x0 KECCAK256 SWAP1 JUMPDEST DUP2 SLOAD DUP2 MSTORE SWAP1 PUSH1 0x1 ADD SWAP1 PUSH1 0x20 ADD DUP1 DUP4 GT PUSH2 0x60F JUMPI DUP3 SWAP1 SUB PUSH1 0x1F AND DUP3 ADD SWAP2 JUMPDEST POP POP POP POP POP DUP2 MSTORE PUSH1 0x20 ADD PUSH1 0x1 DUP3 ADD PUSH1 0x0 SWAP1 SLOAD SWAP1 PUSH2 0x100 EXP SWAP1 DIV PUSH20 0xFFFFFFFFFFFFFFFFFFFFFFFFFFFFFFFFFFFFFFFF AND PUSH20 0xFFFFFFFFFFFFFFFFFFFFFFFFFFFFFFFFFFFFFFFF AND PUSH20 0xFFFFFFFFFFFFFFFFFFFFFFFFFFFFFFFFFFFFFFFF AND DUP2 MSTORE PUSH1 0x20 ADD PUSH1 0x2 DUP3 ADD DUP1 SLOAD DUP1 PUSH1 0x20 MUL PUSH1 0x20 ADD PUSH1 0x40 MLOAD SWAP1 DUP2 ADD PUSH1 0x40 MSTORE DUP1 SWAP3 SWAP2 SWAP1 DUP2 DUP2 MSTORE PUSH1 0x20 ADD DUP3 DUP1 SLOAD DUP1 ISZERO PUSH2 0x710 JUMPI PUSH1 0x20 MUL DUP3 ADD SWAP2 SWAP1 PUSH1 0x0 MSTORE PUSH1 0x20 PUSH1 0x0 KECCAK256 SWAP1 JUMPDEST DUP2 PUSH1 0x0 SWAP1 SLOAD SWAP1 PUSH2 0x100 EXP SWAP1 DIV PUSH20 0xFFFFFFFFFFFFFFFFFFFFFFFFFFFFFFFFFFFFFFFF AND PUSH20 0xFFFFFFFFFFFFFFFFFFFFFFFFFFFFFFFFFFFFFFFF AND DUP2 MSTORE PUSH1 0x20 ADD SWAP1 PUSH1 0x1 ADD SWAP1 DUP1 DUP4 GT PUSH2 0x6C6 JUMPI JUMPDEST POP POP POP POP POP DUP2 MSTORE PUSH1 0x20 ADD PUSH1 0x3 DUP3 ADD PUSH1 0x0 SWAP1 SLOAD SWAP1 PUSH2 0x100 EXP SWAP1 DIV PUSH4 0xFFFFFFFF AND PUSH4 0xFFFFFFFF AND PUSH4 0xFFFFFFFF AND DUP2 MSTORE PUSH1 0x20 ADD PUSH1 0x3 DUP3 ADD PUSH1 0x4 SWAP1 SLOAD SWAP1 PUSH2 0x100 EXP SWAP1 DIV PUSH4 0xFFFFFFFF AND PUSH4 0xFFFFFFFF AND PUSH4 0xFFFFFFFF AND DUP2 MSTORE PUSH1 0x20 ADD PUSH1 0x3 DUP3 ADD PUSH1 0x8 SWAP1 SLOAD SWAP1 PUSH2 0x100 EXP SWAP1 DIV PUSH1 0xFF AND ISZERO ISZERO ISZERO ISZERO DUP2 MSTORE POP POP SWAP1 POP SWAP2 SWAP1 POP JUMP JUMPDEST PUSH1 0x0 DUP1 PUSH1 0x2 PUSH1 0x0 DUP5 DUP2 MSTORE PUSH1 0x20 ADD SWAP1 DUP2 MSTORE PUSH1 0x20 ADD PUSH1 0x0 KECCAK256 SWAP1 POP DUP1 PUSH1 0x3 ADD PUSH1 0x4 SWAP1 SLOAD SWAP1 PUSH2 0x100 EXP SWAP1 DIV PUSH4 0xFFFFFFFF AND PUSH4 0xFFFFFFFF AND SWAP2 POP POP SWAP2 SWAP1 POP JUMP JUMPDEST PUSH1 0x3 PUSH1 0x20 MSTORE DUP1 PUSH1 0x0 MSTORE PUSH1 0x40 PUSH1 0x0 KECCAK256 PUSH1 0x0 SWAP2 POP SWAP1 POP SLOAD DUP2 JUMP JUMPDEST PUSH1 0x60 PUSH1 0x0 PUSH1 0x2 PUSH1 0x0 DUP5 DUP2 MSTORE PUSH1 0x20 ADD SWAP1 DUP2 MSTORE PUSH1 0x20 ADD PUSH1 0x0 KECCAK256 SWAP1 POP DUP1 PUSH1 0x2 ADD DUP1 SLOAD DUP1 PUSH1 0x20 MUL PUSH1 0x20 ADD PUSH1 0x40 MLOAD SWAP1 DUP2 ADD PUSH1 0x40 MSTORE DUP1 SWAP3 SWAP2 SWAP1 DUP2 DUP2 MSTORE PUSH1 0x20 ADD DUP3 DUP1 SLOAD DUP1 ISZERO PUSH2 0x877 JUMPI PUSH1 0x20 MUL DUP3 ADD SWAP2 SWAP1 PUSH1 0x0 MSTORE PUSH1 0x20 PUSH1 0x0 KECCAK256 SWAP1 JUMPDEST DUP2 PUSH1 0x0 SWAP1 SLOAD SWAP1 PUSH2 0x100 EXP SWAP1 DIV PUSH20 0xFFFFFFFFFFFFFFFFFFFFFFFFFFFFFFFFFFFFFFFF AND PUSH20 0xFFFFFFFFFFFFFFFFFFFFFFFFFFFFFFFFFFFFFFFF AND DUP2 MSTORE PUSH1 0x20 ADD SWAP1 PUSH1 0x1 ADD SWAP1 DUP1 DUP4 GT PUSH2 0x82D JUMPI JUMPDEST POP POP POP POP POP SWAP2 POP POP SWAP2 SWAP1 POP JUMP JUMPDEST PUSH1 0x60 PUSH1 0x0 DUP1 PUSH1 0x0 PUSH1 0x2 PUSH1 0x0 DUP7 DUP2 MSTORE PUSH1 0x20 ADD SWAP1 DUP2 MSTORE PUSH1 0x20 ADD PUSH1 0x0 KECCAK256 SWAP1 POP PUSH1 0x0 PUSH20 0xFFFFFFFFFFFFFFFFFFFFFFFFFFFFFFFFFFFFFFFF AND DUP2 PUSH1 0x1 ADD PUSH1 0x0 SWAP1 SLOAD SWAP1 PUSH2 0x100 EXP SWAP1 DIV PUSH20 0xFFFFFFFFFFFFFFFFFFFFFFFFFFFFFFFFFFFFFFFF AND PUSH20 0xFFFFFFFFFFFFFFFFFFFFFFFFFFFFFFFFFFFFFFFF AND EQ ISZERO PUSH2 0x934 JUMPI PUSH1 0x40 MLOAD PUSH32 0x8C379A000000000000000000000000000000000000000000000000000000000 DUP2 MSTORE PUSH1 0x4 ADD PUSH2 0x92B SWAP1 PUSH2 0x2144 JUMP JUMPDEST PUSH1 0x40 MLOAD DUP1 SWAP2 SUB SWAP1 REVERT JUMPDEST DUP1 PUSH1 0x2 ADD DUP1 SLOAD SWAP1 POP PUSH8 0xFFFFFFFFFFFFFFFF DUP2 GT ISZERO PUSH2 0x955 JUMPI PUSH2 0x954 PUSH2 0x1B5A JUMP JUMPDEST JUMPDEST PUSH1 0x40 MLOAD SWAP1 DUP1 DUP3 MSTORE DUP1 PUSH1 0x20 MUL PUSH1 0x20 ADD DUP3 ADD PUSH1 0x40 MSTORE DUP1 ISZERO PUSH2 0x983 JUMPI DUP2 PUSH1 0x20 ADD PUSH1 0x20 DUP3 MUL DUP1 CALLDATASIZE DUP4 CALLDATACOPY DUP1 DUP3 ADD SWAP2 POP POP SWAP1 POP JUMPDEST POP SWAP4 POP PUSH1 0x0 DUP1 PUSH1 0x0 JUMPDEST DUP4 PUSH1 0x2 ADD DUP1 SLOAD SWAP1 POP DUP2 LT ISZERO PUSH2 0xABC JUMPI PUSH1 0x0 PUSH2 0x9A7 DUP10 DUP4 PUSH2 0x1197 JUMP JUMPDEST SWAP1 POP DUP4 DUP2 GT ISZERO PUSH2 0x9F8 JUMPI DUP1 SWAP4 POP DUP5 PUSH1 0x2 ADD DUP3 DUP2 SLOAD DUP2 LT PUSH2 0x9CA JUMPI PUSH2 0x9C9 PUSH2 0x2164 JUMP JUMPDEST JUMPDEST SWAP1 PUSH1 0x0 MSTORE PUSH1 0x20 PUSH1 0x0 KECCAK256 ADD PUSH1 0x0 SWAP1 SLOAD SWAP1 PUSH2 0x100 EXP SWAP1 DIV PUSH20 0xFFFFFFFFFFFFFFFFFFFFFFFFFFFFFFFFFFFFFFFF AND SWAP3 POP JUMPDEST PUSH1 0x5 PUSH1 0x0 DUP11 DUP2 MSTORE PUSH1 0x20 ADD SWAP1 DUP2 MSTORE PUSH1 0x20 ADD PUSH1 0x0 KECCAK256 PUSH1 0x0 DUP7 PUSH1 0x2 ADD DUP5 DUP2 SLOAD DUP2 LT PUSH2 0xA23 JUMPI PUSH2 0xA22 PUSH2 0x2164 JUMP JUMPDEST JUMPDEST SWAP1 PUSH1 0x0 MSTORE PUSH1 0x20 PUSH1 0x0 KECCAK256 ADD PUSH1 0x0 SWAP1 SLOAD SWAP1 PUSH2 0x100 EXP SWAP1 DIV PUSH20 0xFFFFFFFFFFFFFFFFFFFFFFFFFFFFFFFFFFFFFFFF AND PUSH20 0xFFFFFFFFFFFFFFFFFFFFFFFFFFFFFFFFFFFFFFFF AND PUSH20 0xFFFFFFFFFFFFFFFFFFFFFFFFFFFFFFFFFFFFFFFF AND DUP2 MSTORE PUSH1 0x20 ADD SWAP1 DUP2 MSTORE PUSH1 0x20 ADD PUSH1 0x0 KECCAK256 SLOAD DUP9 DUP4 DUP2 MLOAD DUP2 LT PUSH2 0xA9C JUMPI PUSH2 0xA9B PUSH2 0x2164 JUMP JUMPDEST JUMPDEST PUSH1 0x20 MUL PUSH1 0x20 ADD ADD DUP2 DUP2 MSTORE POP POP POP DUP1 DUP1 PUSH2 0xAB4 SWAP1 PUSH2 0x2193 JUMP JUMPDEST SWAP2 POP POP PUSH2 0x98C JUMP JUMPDEST POP DUP6 DUP2 DUP4 SWAP6 POP SWAP6 POP SWAP6 POP POP POP POP SWAP2 SWAP4 SWAP1 SWAP3 POP JUMP JUMPDEST PUSH1 0x1 DUP2 DUP2 SLOAD DUP2 LT PUSH2 0xAE0 JUMPI PUSH1 0x0 DUP1 REVERT JUMPDEST SWAP1 PUSH1 0x0 MSTORE PUSH1 0x20 PUSH1 0x0 KECCAK256 ADD PUSH1 0x0 SWAP2 POP SWAP1 POP SLOAD DUP2 JUMP JUMPDEST PUSH1 0x0 ADDRESS DUP6 DUP6 DUP6 DUP6 PUSH1 0x40 MLOAD PUSH1 0x20 ADD PUSH2 0xB0F SWAP6 SWAP5 SWAP4 SWAP3 SWAP2 SWAP1 PUSH2 0x229C JUMP JUMPDEST PUSH1 0x40 MLOAD PUSH1 0x20 DUP2 DUP4 SUB SUB DUP2 MSTORE SWAP1 PUSH1 0x40 MSTORE DUP1 MLOAD SWAP1 PUSH1 0x20 ADD KECCAK256 SWAP1 POP SWAP5 SWAP4 POP POP POP POP JUMP JUMPDEST DUP4 DUP4 PUSH1 0x1 ISZERO ISZERO PUSH1 0x4 PUSH1 0x0 DUP4 DUP2 MSTORE PUSH1 0x20 ADD SWAP1 DUP2 MSTORE PUSH1 0x20 ADD PUSH1 0x0 KECCAK256 PUSH1 0x0 DUP5 PUSH20 0xFFFFFFFFFFFFFFFFFFFFFFFFFFFFFFFFFFFFFFFF AND PUSH20 0xFFFFFFFFFFFFFFFFFFFFFFFFFFFFFFFFFFFFFFFF AND DUP2 MSTORE PUSH1 0x20 ADD SWAP1 DUP2 MSTORE PUSH1 0x20 ADD PUSH1 0x0 KECCAK256 PUSH1 0x0 SWAP1 SLOAD SWAP1 PUSH2 0x100 EXP SWAP1 DIV PUSH1 0xFF AND ISZERO ISZERO EQ PUSH2 0xBD5 JUMPI PUSH1 0x40 MLOAD PUSH32 0x8C379A000000000000000000000000000000000000000000000000000000000 DUP2 MSTORE PUSH1 0x4 ADD PUSH2 0xBCC SWAP1 PUSH2 0x2378 JUMP JUMPDEST PUSH1 0x40 MLOAD DUP1 SWAP2 SUB SWAP1 REVERT JUMPDEST DUP5 PUSH1 0x0 PUSH1 0x2 PUSH1 0x0 DUP4 DUP2 MSTORE PUSH1 0x20 ADD SWAP1 DUP2 MSTORE PUSH1 0x20 ADD PUSH1 0x0 KECCAK256 SWAP1 POP PUSH1 0x1 ISZERO ISZERO DUP2 PUSH1 0x3 ADD PUSH1 0x8 SWAP1 SLOAD SWAP1 PUSH2 0x100 EXP SWAP1 DIV PUSH1 0xFF AND ISZERO ISZERO EQ PUSH2 0xC45 JUMPI PUSH1 0x40 MLOAD PUSH32 0x8C379A000000000000000000000000000000000000000000000000000000000 DUP2 MSTORE PUSH1 0x4 ADD PUSH2 0xC3C SWAP1 PUSH2 0x23E4 JUMP JUMPDEST PUSH1 0x40 MLOAD DUP1 SWAP2 SUB SWAP1 REVERT JUMPDEST PUSH1 0x0 PUSH2 0xC53 DUP10 DUP10 DUP10 TIMESTAMP PUSH2 0xAF4 JUMP JUMPDEST SWAP1 POP PUSH1 0x0 PUSH2 0xC61 DUP3 DUP9 PUSH2 0x1249 JUMP JUMPDEST SWAP1 POP PUSH1 0x0 PUSH20 0xFFFFFFFFFFFFFFFFFFFFFFFFFFFFFFFFFFFFFFFF AND DUP2 PUSH20 0xFFFFFFFFFFFFFFFFFFFFFFFFFFFFFFFFFFFFFFFF AND EQ ISZERO PUSH2 0xC9D JUMPI PUSH1 0x0 DUP1 REVERT JUMPDEST PUSH1 0x3 PUSH1 0x0 DUP3 PUSH20 0xFFFFFFFFFFFFFFFFFFFFFFFFFFFFFFFFFFFFFFFF AND PUSH20 0xFFFFFFFFFFFFFFFFFFFFFFFFFFFFFFFFFFFFFFFF AND DUP2 MSTORE PUSH1 0x20 ADD SWAP1 DUP2 MSTORE PUSH1 0x20 ADD PUSH1 0x0 KECCAK256 SLOAD DUP9 EQ PUSH2 0xCE8 JUMPI PUSH1 0x0 DUP1 REVERT JUMPDEST PUSH1 0x3 PUSH1 0x0 DUP3 PUSH20 0xFFFFFFFFFFFFFFFFFFFFFFFFFFFFFFFFFFFFFFFF AND PUSH20 0xFFFFFFFFFFFFFFFFFFFFFFFFFFFFFFFFFFFFFFFF AND DUP2 MSTORE PUSH1 0x20 ADD SWAP1 DUP2 MSTORE PUSH1 0x20 ADD PUSH1 0x0 KECCAK256 PUSH1 0x0 DUP2 SLOAD DUP1 SWAP3 SWAP2 SWAP1 PUSH2 0xD38 SWAP1 PUSH2 0x2193 JUMP JUMPDEST SWAP2 SWAP1 POP SSTORE POP PUSH1 0x0 ISZERO ISZERO PUSH1 0x6 PUSH1 0x0 DUP12 DUP2 MSTORE PUSH1 0x20 ADD SWAP1 DUP2 MSTORE PUSH1 0x20 ADD PUSH1 0x0 KECCAK256 PUSH1 0x0 DUP4 PUSH20 0xFFFFFFFFFFFFFFFFFFFFFFFFFFFFFFFFFFFFFFFF AND PUSH20 0xFFFFFFFFFFFFFFFFFFFFFFFFFFFFFFFFFFFFFFFF AND DUP2 MSTORE PUSH1 0x20 ADD SWAP1 DUP2 MSTORE PUSH1 0x20 ADD PUSH1 0x0 KECCAK256 PUSH1 0x0 SWAP1 SLOAD SWAP1 PUSH2 0x100 EXP SWAP1 DIV PUSH1 0xFF AND ISZERO ISZERO EQ PUSH2 0xDE1 JUMPI PUSH1 0x40 MLOAD PUSH32 0x8C379A000000000000000000000000000000000000000000000000000000000 DUP2 MSTORE PUSH1 0x4 ADD PUSH2 0xDD8 SWAP1 PUSH2 0x2450 JUMP JUMPDEST PUSH1 0x40 MLOAD DUP1 SWAP2 SUB SWAP1 REVERT JUMPDEST PUSH2 0xDEC DUP11 DUP11 DUP4 PUSH2 0x1342 JUMP JUMPDEST POP PUSH32 0xF3F16A15F074B71C5138107DFC7C63B80524D5411CB967CAA97D8D9F12B2FD6B DUP11 PUSH1 0x1 PUSH1 0x40 MLOAD PUSH2 0xE1F SWAP3 SWAP2 SWAP1 PUSH2 0x2470 JUMP JUMPDEST PUSH1 0x40 MLOAD DUP1 SWAP2 SUB SWAP1 LOG1 POP POP POP POP POP POP POP POP POP POP JUMP JUMPDEST PUSH1 0x0 PUSH1 0x2 PUSH1 0x0 DUP4 DUP2 MSTORE PUSH1 0x20 ADD SWAP1 DUP2 MSTORE PUSH1 0x20 ADD PUSH1 0x0 KECCAK256 SWAP1 POP CALLER PUSH20 0xFFFFFFFFFFFFFFFFFFFFFFFFFFFFFFFFFFFFFFFF AND DUP2 PUSH1 0x1 ADD PUSH1 0x0 SWAP1 SLOAD SWAP1 PUSH2 0x100 EXP SWAP1 DIV PUSH20 0xFFFFFFFFFFFFFFFFFFFFFFFFFFFFFFFFFFFFFFFF AND PUSH20 0xFFFFFFFFFFFFFFFFFFFFFFFFFFFFFFFFFFFFFFFF AND EQ PUSH2 0xEDC JUMPI PUSH1 0x40 MLOAD PUSH32 0x8C379A000000000000000000000000000000000000000000000000000000000 DUP2 MSTORE PUSH1 0x4 ADD PUSH2 0xED3 SWAP1 PUSH2 0x24E5 JUMP JUMPDEST PUSH1 0x40 MLOAD DUP1 SWAP2 SUB SWAP1 REVERT JUMPDEST DUP1 PUSH1 0x3 ADD PUSH1 0x8 SWAP1 SLOAD SWAP1 PUSH2 0x100 EXP SWAP1 DIV PUSH1 0xFF AND ISZERO DUP2 PUSH1 0x3 ADD PUSH1 0x8 PUSH2 0x100 EXP DUP2 SLOAD DUP2 PUSH1 0xFF MUL NOT AND SWAP1 DUP4 ISZERO ISZERO MUL OR SWAP1 SSTORE POP DUP1 PUSH1 0x3 ADD PUSH1 0x8 SWAP1 SLOAD SWAP1 PUSH2 0x100 EXP SWAP1 DIV PUSH1 0xFF AND ISZERO ISZERO PUSH32 0x7B224DB641892626DCA6975B376F464E9AC52CCFA180436175170C009B94DCD7 PUSH1 0x40 MLOAD PUSH1 0x40 MLOAD DUP1 SWAP2 SUB SWAP1 LOG2 POP POP JUMP JUMPDEST PUSH1 0x2 PUSH1 0x20 MSTORE DUP1 PUSH1 0x0 MSTORE PUSH1 0x40 PUSH1 0x0 KECCAK256 PUSH1 0x0 SWAP2 POP SWAP1 POP DUP1 PUSH1 0x0 ADD DUP1 SLOAD PUSH2 0xF71 SWAP1 PUSH2 0x20C6 JUMP JUMPDEST DUP1 PUSH1 0x1F ADD PUSH1 0x20 DUP1 SWAP2 DIV MUL PUSH1 0x20 ADD PUSH1 0x40 MLOAD SWAP1 DUP2 ADD PUSH1 0x40 MSTORE DUP1 SWAP3 SWAP2 SWAP1 DUP2 DUP2 MSTORE PUSH1 0x20 ADD DUP3 DUP1 SLOAD PUSH2 0xF9D SWAP1 PUSH2 0x20C6 JUMP JUMPDEST DUP1 ISZERO PUSH2 0xFEA JUMPI DUP1 PUSH1 0x1F LT PUSH2 0xFBF JUMPI PUSH2 0x100 DUP1 DUP4 SLOAD DIV MUL DUP4 MSTORE SWAP2 PUSH1 0x20 ADD SWAP2 PUSH2 0xFEA JUMP JUMPDEST DUP3 ADD SWAP2 SWAP1 PUSH1 0x0 MSTORE PUSH1 0x20 PUSH1 0x0 KECCAK256 SWAP1 JUMPDEST DUP2 SLOAD DUP2 MSTORE SWAP1 PUSH1 0x1 ADD SWAP1 PUSH1 0x20 ADD DUP1 DUP4 GT PUSH2 0xFCD JUMPI DUP3 SWAP1 SUB PUSH1 0x1F AND DUP3 ADD SWAP2 JUMPDEST POP POP POP POP POP SWAP1 DUP1 PUSH1 0x1 ADD PUSH1 0x0 SWAP1 SLOAD SWAP1 PUSH2 0x100 EXP SWAP1 DIV PUSH20 0xFFFFFFFFFFFFFFFFFFFFFFFFFFFFFFFFFFFFFFFF AND SWAP1 DUP1 PUSH1 0x3 ADD PUSH1 0x0 SWAP1 SLOAD SWAP1 PUSH2 0x100 EXP SWAP1 DIV PUSH4 0xFFFFFFFF AND SWAP1 DUP1 PUSH1 0x3 ADD PUSH1 0x4 SWAP1 SLOAD SWAP1 PUSH2 0x100 EXP SWAP1 DIV PUSH4 0xFFFFFFFF AND SWAP1 DUP1 PUSH1 0x3 ADD PUSH1 0x8 SWAP1 SLOAD SWAP1 PUSH2 0x100 EXP SWAP1 DIV PUSH1 0xFF AND SWAP1 POP DUP6 JUMP JUMPDEST PUSH1 0x0 PUSH1 0x2 PUSH1 0x0 DUP1 SLOAD DUP2 MSTORE PUSH1 0x20 ADD SWAP1 DUP2 MSTORE PUSH1 0x20 ADD PUSH1 0x0 KECCAK256 SWAP1 POP DUP3 DUP2 PUSH1 0x0 ADD SWAP1 DUP1 MLOAD SWAP1 PUSH1 0x20 ADD SWAP1 PUSH2 0x1089 SWAP3 SWAP2 SWAP1 PUSH2 0x14C7 JUMP JUMPDEST POP CALLER DUP2 PUSH1 0x1 ADD PUSH1 0x0 PUSH2 0x100 EXP DUP2 SLOAD DUP2 PUSH20 0xFFFFFFFFFFFFFFFFFFFFFFFFFFFFFFFFFFFFFFFF MUL NOT AND SWAP1 DUP4 PUSH20 0xFFFFFFFFFFFFFFFFFFFFFFFFFFFFFFFFFFFFFFFF AND MUL OR SWAP1 SSTORE POP DUP2 DUP2 PUSH1 0x3 ADD PUSH1 0x0 PUSH2 0x100 EXP DUP2 SLOAD DUP2 PUSH4 0xFFFFFFFF MUL NOT AND SWAP1 DUP4 PUSH4 0xFFFFFFFF AND MUL OR SWAP1 SSTORE POP PUSH1 0x1 PUSH1 0x0 SLOAD SWAP1 DUP1 PUSH1 0x1 DUP2 SLOAD ADD DUP1 DUP3 SSTORE DUP1 SWAP2 POP POP PUSH1 0x1 SWAP1 SUB SWAP1 PUSH1 0x0 MSTORE PUSH1 0x20 PUSH1 0x0 KECCAK256 ADD PUSH1 0x0 SWAP1 SWAP2 SWAP1 SWAP2 SWAP1 SWAP2 POP SSTORE PUSH1 0x0 SLOAD DUP2 PUSH1 0x3 ADD PUSH1 0x0 SWAP1 SLOAD SWAP1 PUSH2 0x100 EXP SWAP1 DIV PUSH4 0xFFFFFFFF AND PUSH4 0xFFFFFFFF AND DUP5 PUSH1 0x40 MLOAD PUSH2 0x1147 SWAP2 SWAP1 PUSH2 0x2536 JUMP JUMPDEST PUSH1 0x40 MLOAD DUP1 SWAP2 SUB SWAP1 KECCAK256 PUSH32 0xD4D0D9A1EF7F13069F1BADE752FDA515713D747EB14A8C30AE461C52916BF1C7 PUSH1 0x40 MLOAD PUSH1 0x40 MLOAD DUP1 SWAP2 SUB SWAP1 LOG4 PUSH1 0x0 DUP1 DUP2 SLOAD DUP1 SWAP3 SWAP2 SWAP1 PUSH2 0x118D SWAP1 PUSH2 0x2193 JUMP JUMPDEST SWAP2 SWAP1 POP SSTORE POP POP POP POP JUMP JUMPDEST PUSH1 0x0 DUP1 PUSH1 0x2 PUSH1 0x0 DUP6 DUP2 MSTORE PUSH1 0x20 ADD SWAP1 DUP2 MSTORE PUSH1 0x20 ADD PUSH1 0x0 KECCAK256 SWAP1 POP PUSH1 0x5 PUSH1 0x0 DUP6 DUP2 MSTORE PUSH1 0x20 ADD SWAP1 DUP2 MSTORE PUSH1 0x20 ADD PUSH1 0x0 KECCAK256 PUSH1 0x0 DUP3 PUSH1 0x2 ADD DUP6 DUP2 SLOAD DUP2 LT PUSH2 0x11DA JUMPI PUSH2 0x11D9 PUSH2 0x2164 JUMP JUMPDEST JUMPDEST SWAP1 PUSH1 0x0 MSTORE PUSH1 0x20 PUSH1 0x0 KECCAK256 ADD PUSH1 0x0 SWAP1 SLOAD SWAP1 PUSH2 0x100 EXP SWAP1 DIV PUSH20 0xFFFFFFFFFFFFFFFFFFFFFFFFFFFFFFFFFFFFFFFF AND PUSH20 0xFFFFFFFFFFFFFFFFFFFFFFFFFFFFFFFFFFFFFFFF AND PUSH20 0xFFFFFFFFFFFFFFFFFFFFFFFFFFFFFFFFFFFFFFFF AND DUP2 MSTORE PUSH1 0x20 ADD SWAP1 DUP2 MSTORE PUSH1 0x20 ADD PUSH1 0x0 KECCAK256 SLOAD SWAP2 POP POP SWAP3 SWAP2 POP POP JUMP JUMPDEST PUSH1 0x0 DUP1 PUSH1 0x0 DUP1 PUSH1 0x41 DUP6 MLOAD EQ PUSH2 0x1264 JUMPI PUSH1 0x0 SWAP4 POP POP POP POP PUSH2 0x133C JUMP JUMPDEST PUSH1 0x20 DUP6 ADD MLOAD SWAP3 POP PUSH1 0x40 DUP6 ADD MLOAD SWAP2 POP PUSH1 0x60 DUP6 ADD MLOAD PUSH1 0x0 BYTE SWAP1 POP PUSH1 0x1B DUP2 PUSH1 0xFF AND LT ISZERO PUSH2 0x1298 JUMPI PUSH1 0x1B DUP2 PUSH2 0x1295 SWAP2 SWAP1 PUSH2 0x255A JUMP JUMPDEST SWAP1 POP JUMPDEST PUSH1 0x1B DUP2 PUSH1 0xFF AND EQ ISZERO DUP1 ISZERO PUSH2 0x12B0 JUMPI POP PUSH1 0x1C DUP2 PUSH1 0xFF AND EQ ISZERO JUMPDEST ISZERO PUSH2 0x12C1 JUMPI PUSH1 0x0 SWAP4 POP POP POP POP PUSH2 0x133C JUMP JUMPDEST PUSH1 0x1 DUP7 PUSH1 0x40 MLOAD PUSH1 0x20 ADD PUSH2 0x12D4 SWAP2 SWAP1 PUSH2 0x25FE JUMP JUMPDEST PUSH1 0x40 MLOAD PUSH1 0x20 DUP2 DUP4 SUB SUB DUP2 MSTORE SWAP1 PUSH1 0x40 MSTORE DUP1 MLOAD SWAP1 PUSH1 0x20 ADD KECCAK256 DUP3 DUP6 DUP6 PUSH1 0x40 MLOAD PUSH1 0x0 DUP2 MSTORE PUSH1 0x20 ADD PUSH1 0x40 MSTORE PUSH1 0x40 MLOAD PUSH2 0x130A SWAP5 SWAP4 SWAP3 SWAP2 SWAP1 PUSH2 0x2633 JUMP JUMPDEST PUSH1 0x20 PUSH1 0x40 MLOAD PUSH1 0x20 DUP2 SUB SWAP1 DUP1 DUP5 SUB SWAP1 DUP6 GAS STATICCALL ISZERO DUP1 ISZERO PUSH2 0x132C JUMPI RETURNDATASIZE PUSH1 0x0 DUP1 RETURNDATACOPY RETURNDATASIZE PUSH1 0x0 REVERT JUMPDEST POP POP POP PUSH1 0x20 PUSH1 0x40 MLOAD SUB MLOAD SWAP4 POP POP POP POP JUMPDEST SWAP3 SWAP2 POP POP JUMP JUMPDEST PUSH1 0x0 PUSH1 0x1 PUSH1 0x6 PUSH1 0x0 DUP6 DUP2 MSTORE PUSH1 0x20 ADD SWAP1 DUP2 MSTORE PUSH1 0x20 ADD PUSH1 0x0 KECCAK256 PUSH1 0x0 DUP5 PUSH20 0xFFFFFFFFFFFFFFFFFFFFFFFFFFFFFFFFFFFFFFFF AND PUSH20 0xFFFFFFFFFFFFFFFFFFFFFFFFFFFFFFFFFFFFFFFF AND DUP2 MSTORE PUSH1 0x20 ADD SWAP1 DUP2 MSTORE PUSH1 0x20 ADD PUSH1 0x0 KECCAK256 PUSH1 0x0 PUSH2 0x100 EXP DUP2 SLOAD DUP2 PUSH1 0xFF MUL NOT AND SWAP1 DUP4 ISZERO ISZERO MUL OR SWAP1 SSTORE POP PUSH1 0x5 PUSH1 0x0 DUP5 DUP2 MSTORE PUSH1 0x20 ADD SWAP1 DUP2 MSTORE PUSH1 0x20 ADD PUSH1 0x0 KECCAK256 PUSH1 0x0 DUP6 PUSH20 0xFFFFFFFFFFFFFFFFFFFFFFFFFFFFFFFFFFFFFFFF AND PUSH20 0xFFFFFFFFFFFFFFFFFFFFFFFFFFFFFFFFFFFFFFFF AND DUP2 MSTORE PUSH1 0x20 ADD SWAP1 DUP2 MSTORE PUSH1 0x20 ADD PUSH1 0x0 KECCAK256 PUSH1 0x0 DUP2 SLOAD DUP1 SWAP3 SWAP2 SWAP1 PUSH2 0x140E SWAP1 PUSH2 0x2193 JUMP JUMPDEST SWAP2 SWAP1 POP SSTORE POP PUSH1 0x5 PUSH1 0x0 DUP5 DUP2 MSTORE PUSH1 0x20 ADD SWAP1 DUP2 MSTORE PUSH1 0x20 ADD PUSH1 0x0 KECCAK256 PUSH1 0x0 DUP6 PUSH20 0xFFFFFFFFFFFFFFFFFFFFFFFFFFFFFFFFFFFFFFFF AND PUSH20 0xFFFFFFFFFFFFFFFFFFFFFFFFFFFFFFFFFFFFFFFF AND DUP2 MSTORE PUSH1 0x20 ADD SWAP1 DUP2 MSTORE PUSH1 0x20 ADD PUSH1 0x0 KECCAK256 SLOAD SWAP1 POP SWAP4 SWAP3 POP POP POP JUMP JUMPDEST PUSH1 0x40 MLOAD DUP1 PUSH1 0xC0 ADD PUSH1 0x40 MSTORE DUP1 PUSH1 0x60 DUP2 MSTORE PUSH1 0x20 ADD PUSH1 0x0 PUSH20 0xFFFFFFFFFFFFFFFFFFFFFFFFFFFFFFFFFFFFFFFF AND DUP2 MSTORE PUSH1 0x20 ADD PUSH1 0x60 DUP2 MSTORE PUSH1 0x20 ADD PUSH1 0x0 PUSH4 0xFFFFFFFF AND DUP2 MSTORE PUSH1 0x20 ADD PUSH1 0x0 PUSH4 0xFFFFFFFF AND DUP2 MSTORE PUSH1 0x20 ADD PUSH1 0x0 ISZERO ISZERO DUP2 MSTORE POP SWAP1 JUMP JUMPDEST DUP3 DUP1 SLOAD PUSH2 0x14D3 SWAP1 PUSH2 0x20C6 JUMP JUMPDEST SWAP1 PUSH1 0x0 MSTORE PUSH1 0x20 PUSH1 0x0 KECCAK256 SWAP1 PUSH1 0x1F ADD PUSH1 0x20 SWAP1 DIV DUP2 ADD SWAP3 DUP3 PUSH2 0x14F5 JUMPI PUSH1 0x0 DUP6 SSTORE PUSH2 0x153C JUMP JUMPDEST DUP3 PUSH1 0x1F LT PUSH2 0x150E JUMPI DUP1 MLOAD PUSH1 0xFF NOT AND DUP4 DUP1 ADD OR DUP6 SSTORE PUSH2 0x153C JUMP JUMPDEST DUP3 DUP1 ADD PUSH1 0x1 ADD DUP6 SSTORE DUP3 ISZERO PUSH2 0x153C JUMPI SWAP2 DUP3 ADD JUMPDEST DUP3 DUP2 GT ISZERO PUSH2 0x153B JUMPI DUP3 MLOAD DUP3 SSTORE SWAP2 PUSH1 0x20 ADD SWAP2 SWAP1 PUSH1 0x1 ADD SWAP1 PUSH2 0x1520 JUMP JUMPDEST JUMPDEST POP SWAP1 POP PUSH2 0x1549 SWAP2 SWAP1 PUSH2 0x154D JUMP JUMPDEST POP SWAP1 JUMP JUMPDEST JUMPDEST DUP1 DUP3 GT ISZERO PUSH2 0x1566 JUMPI PUSH1 0x0 DUP2 PUSH1 0x0 SWAP1 SSTORE POP PUSH1 0x1 ADD PUSH2 0x154E JUMP JUMPDEST POP SWAP1 JUMP JUMPDEST PUSH1 0x0 PUSH1 0x40 MLOAD SWAP1 POP SWAP1 JUMP JUMPDEST PUSH1 0x0 DUP1 REVERT JUMPDEST PUSH1 0x0 DUP1 REVERT JUMPDEST PUSH1 0x0 PUSH20 0xFFFFFFFFFFFFFFFFFFFFFFFFFFFFFFFFFFFFFFFF DUP3 AND SWAP1 POP SWAP2 SWAP1 POP JUMP JUMPDEST PUSH1 0x0 PUSH2 0x15A9 DUP3 PUSH2 0x157E JUMP JUMPDEST SWAP1 POP SWAP2 SWAP1 POP JUMP JUMPDEST PUSH2 0x15B9 DUP2 PUSH2 0x159E JUMP JUMPDEST DUP2 EQ PUSH2 0x15C4 JUMPI PUSH1 0x0 DUP1 REVERT JUMPDEST POP JUMP JUMPDEST PUSH1 0x0 DUP2 CALLDATALOAD SWAP1 POP PUSH2 0x15D6 DUP2 PUSH2 0x15B0 JUMP JUMPDEST SWAP3 SWAP2 POP POP JUMP JUMPDEST PUSH1 0x0 DUP2 SWAP1 POP SWAP2 SWAP1 POP JUMP JUMPDEST PUSH2 0x15EF DUP2 PUSH2 0x15DC JUMP JUMPDEST DUP2 EQ PUSH2 0x15FA JUMPI PUSH1 0x0 DUP1 REVERT JUMPDEST POP JUMP JUMPDEST PUSH1 0x0 DUP2 CALLDATALOAD SWAP1 POP PUSH2 0x160C DUP2 PUSH2 0x15E6 JUMP JUMPDEST SWAP3 SWAP2 POP POP JUMP JUMPDEST PUSH1 0x0 DUP1 PUSH1 0x40 DUP4 DUP6 SUB SLT ISZERO PUSH2 0x1629 JUMPI PUSH2 0x1628 PUSH2 0x1574 JUMP JUMPDEST JUMPDEST PUSH1 0x0 PUSH2 0x1637 DUP6 DUP3 DUP7 ADD PUSH2 0x15C7 JUMP JUMPDEST SWAP3 POP POP PUSH1 0x20 PUSH2 0x1648 DUP6 DUP3 DUP7 ADD PUSH2 0x15FD JUMP JUMPDEST SWAP2 POP POP SWAP3 POP SWAP3 SWAP1 POP JUMP JUMPDEST PUSH1 0x0 PUSH1 0x20 DUP3 DUP5 SUB SLT ISZERO PUSH2 0x1668 JUMPI PUSH2 0x1667 PUSH2 0x1574 JUMP JUMPDEST JUMPDEST PUSH1 0x0 PUSH2 0x1676 DUP5 DUP3 DUP6 ADD PUSH2 0x15FD JUMP JUMPDEST SWAP2 POP POP SWAP3 SWAP2 POP POP JUMP JUMPDEST PUSH1 0x0 DUP2 MLOAD SWAP1 POP SWAP2 SWAP1 POP JUMP JUMPDEST PUSH1 0x0 DUP3 DUP3 MSTORE PUSH1 0x20 DUP3 ADD SWAP1 POP SWAP3 SWAP2 POP POP JUMP JUMPDEST PUSH1 0x0 JUMPDEST DUP4 DUP2 LT ISZERO PUSH2 0x16B9 JUMPI DUP1 DUP3 ADD MLOAD DUP2 DUP5 ADD MSTORE PUSH1 0x20 DUP2 ADD SWAP1 POP PUSH2 0x169E JUMP JUMPDEST DUP4 DUP2 GT ISZERO PUSH2 0x16C8 JUMPI PUSH1 0x0 DUP5 DUP5 ADD MSTORE JUMPDEST POP POP POP POP JUMP JUMPDEST PUSH1 0x0 PUSH1 0x1F NOT PUSH1 0x1F DUP4 ADD AND SWAP1 POP SWAP2 SWAP1 POP JUMP JUMPDEST PUSH1 0x0 PUSH2 0x16EA DUP3 PUSH2 0x167F JUMP JUMPDEST PUSH2 0x16F4 DUP2 DUP6 PUSH2 0x168A JUMP JUMPDEST SWAP4 POP PUSH2 0x1704 DUP2 DUP6 PUSH1 0x20 DUP7 ADD PUSH2 0x169B JUMP JUMPDEST PUSH2 0x170D DUP2 PUSH2 0x16CE JUMP JUMPDEST DUP5 ADD SWAP2 POP POP SWAP3 SWAP2 POP POP JUMP JUMPDEST PUSH2 0x1721 DUP2 PUSH2 0x159E JUMP JUMPDEST DUP3 MSTORE POP POP JUMP JUMPDEST PUSH1 0x0 DUP2 MLOAD SWAP1 POP SWAP2 SWAP1 POP JUMP JUMPDEST PUSH1 0x0 DUP3 DUP3 MSTORE PUSH1 0x20 DUP3 ADD SWAP1 POP SWAP3 SWAP2 POP POP JUMP JUMPDEST PUSH1 0x0 DUP2 SWAP1 POP PUSH1 0x20 DUP3 ADD SWAP1 POP SWAP2 SWAP1 POP JUMP JUMPDEST PUSH1 0x0 PUSH2 0x175F DUP4 DUP4 PUSH2 0x1718 JUMP JUMPDEST PUSH1 0x20 DUP4 ADD SWAP1 POP SWAP3 SWAP2 POP POP JUMP JUMPDEST PUSH1 0x0 PUSH1 0x20 DUP3 ADD SWAP1 POP SWAP2 SWAP1 POP JUMP JUMPDEST PUSH1 0x0 PUSH2 0x1783 DUP3 PUSH2 0x1727 JUMP JUMPDEST PUSH2 0x178D DUP2 DUP6 PUSH2 0x1732 JUMP JUMPDEST SWAP4 POP PUSH2 0x1798 DUP4 PUSH2 0x1743 JUMP JUMPDEST DUP1 PUSH1 0x0 JUMPDEST DUP4 DUP2 LT ISZERO PUSH2 0x17C9 JUMPI DUP2 MLOAD PUSH2 0x17B0 DUP9 DUP3 PUSH2 0x1753 JUMP JUMPDEST SWAP8 POP PUSH2 0x17BB DUP4 PUSH2 0x176B JUMP JUMPDEST SWAP3 POP POP PUSH1 0x1 DUP2 ADD SWAP1 POP PUSH2 0x179C JUMP JUMPDEST POP DUP6 SWAP4 POP POP POP POP SWAP3 SWAP2 POP POP JUMP JUMPDEST PUSH1 0x0 PUSH4 0xFFFFFFFF DUP3 AND SWAP1 POP SWAP2 SWAP1 POP JUMP JUMPDEST PUSH2 0x17EF DUP2 PUSH2 0x17D6 JUMP JUMPDEST DUP3 MSTORE POP POP JUMP JUMPDEST PUSH1 0x0 DUP2 ISZERO ISZERO SWAP1 POP SWAP2 SWAP1 POP JUMP JUMPDEST PUSH2 0x180A DUP2 PUSH2 0x17F5 JUMP JUMPDEST DUP3 MSTORE POP POP JUMP JUMPDEST PUSH1 0x0 PUSH1 0xC0 DUP4 ADD PUSH1 0x0 DUP4 ADD MLOAD DUP5 DUP3 SUB PUSH1 0x0 DUP7 ADD MSTORE PUSH2 0x182D DUP3 DUP3 PUSH2 0x16DF JUMP JUMPDEST SWAP2 POP POP PUSH1 0x20 DUP4 ADD MLOAD PUSH2 0x1842 PUSH1 0x20 DUP7 ADD DUP3 PUSH2 0x1718 JUMP JUMPDEST POP PUSH1 0x40 DUP4 ADD MLOAD DUP5 DUP3 SUB PUSH1 0x40 DUP7 ADD MSTORE PUSH2 0x185A DUP3 DUP3 PUSH2 0x1778 JUMP JUMPDEST SWAP2 POP POP PUSH1 0x60 DUP4 ADD MLOAD PUSH2 0x186F PUSH1 0x60 DUP7 ADD DUP3 PUSH2 0x17E6 JUMP JUMPDEST POP PUSH1 0x80 DUP4 ADD MLOAD PUSH2 0x1882 PUSH1 0x80 DUP7 ADD DUP3 PUSH2 0x17E6 JUMP JUMPDEST POP PUSH1 0xA0 DUP4 ADD MLOAD PUSH2 0x1895 PUSH1 0xA0 DUP7 ADD DUP3 PUSH2 0x1801 JUMP JUMPDEST POP DUP1 SWAP2 POP POP SWAP3 SWAP2 POP POP JUMP JUMPDEST PUSH1 0x0 PUSH1 0x20 DUP3 ADD SWAP1 POP DUP2 DUP2 SUB PUSH1 0x0 DUP4 ADD MSTORE PUSH2 0x18BA DUP2 DUP5 PUSH2 0x1810 JUMP JUMPDEST SWAP1 POP SWAP3 SWAP2 POP POP JUMP JUMPDEST PUSH2 0x18CB DUP2 PUSH2 0x15DC JUMP JUMPDEST DUP3 MSTORE POP POP JUMP JUMPDEST PUSH1 0x0 PUSH1 0x20 DUP3 ADD SWAP1 POP PUSH2 0x18E6 PUSH1 0x0 DUP4 ADD DUP5 PUSH2 0x18C2 JUMP JUMPDEST SWAP3 SWAP2 POP POP JUMP JUMPDEST PUSH1 0x0 PUSH1 0x20 DUP3 DUP5 SUB SLT ISZERO PUSH2 0x1902 JUMPI PUSH2 0x1901 PUSH2 0x1574 JUMP JUMPDEST JUMPDEST PUSH1 0x0 PUSH2 0x1910 DUP5 DUP3 DUP6 ADD PUSH2 0x15C7 JUMP JUMPDEST SWAP2 POP POP SWAP3 SWAP2 POP POP JUMP JUMPDEST PUSH1 0x0 DUP3 DUP3 MSTORE PUSH1 0x20 DUP3 ADD SWAP1 POP SWAP3 SWAP2 POP POP JUMP JUMPDEST PUSH1 0x0 PUSH2 0x1935 DUP3 PUSH2 0x1727 JUMP JUMPDEST PUSH2 0x193F DUP2 DUP6 PUSH2 0x1919 JUMP JUMPDEST SWAP4 POP PUSH2 0x194A DUP4 PUSH2 0x1743 JUMP JUMPDEST DUP1 PUSH1 0x0 JUMPDEST DUP4 DUP2 LT ISZERO PUSH2 0x197B JUMPI DUP2 MLOAD PUSH2 0x1962 DUP9 DUP3 PUSH2 0x1753 JUMP JUMPDEST SWAP8 POP PUSH2 0x196D DUP4 PUSH2 0x176B JUMP JUMPDEST SWAP3 POP POP PUSH1 0x1 DUP2 ADD SWAP1 POP PUSH2 0x194E JUMP JUMPDEST POP DUP6 SWAP4 POP POP POP POP SWAP3 SWAP2 POP POP JUMP JUMPDEST PUSH1 0x0 PUSH1 0x20 DUP3 ADD SWAP1 POP DUP2 DUP2 SUB PUSH1 0x0 DUP4 ADD MSTORE PUSH2 0x19A2 DUP2 DUP5 PUSH2 0x192A JUMP JUMPDEST SWAP1 POP SWAP3 SWAP2 POP POP JUMP JUMPDEST PUSH1 0x0 DUP2 MLOAD SWAP1 POP SWAP2 SWAP1 POP JUMP JUMPDEST PUSH1 0x0 DUP3 DUP3 MSTORE PUSH1 0x20 DUP3 ADD SWAP1 POP SWAP3 SWAP2 POP POP JUMP JUMPDEST PUSH1 0x0 DUP2 SWAP1 POP PUSH1 0x20 DUP3 ADD SWAP1 POP SWAP2 SWAP1 POP JUMP JUMPDEST PUSH2 0x19DF DUP2 PUSH2 0x15DC JUMP JUMPDEST DUP3 MSTORE POP POP JUMP JUMPDEST PUSH1 0x0 PUSH2 0x19F1 DUP4 DUP4 PUSH2 0x19D6 JUMP JUMPDEST PUSH1 0x20 DUP4 ADD SWAP1 POP SWAP3 SWAP2 POP POP JUMP JUMPDEST PUSH1 0x0 PUSH1 0x20 DUP3 ADD SWAP1 POP SWAP2 SWAP1 POP JUMP JUMPDEST PUSH1 0x0 PUSH2 0x1A15 DUP3 PUSH2 0x19AA JUMP JUMPDEST PUSH2 0x1A1F DUP2 DUP6 PUSH2 0x19B5 JUMP JUMPDEST SWAP4 POP PUSH2 0x1A2A DUP4 PUSH2 0x19C6 JUMP JUMPDEST DUP1 PUSH1 0x0 JUMPDEST DUP4 DUP2 LT ISZERO PUSH2 0x1A5B JUMPI DUP2 MLOAD PUSH2 0x1A42 DUP9 DUP3 PUSH2 0x19E5 JUMP JUMPDEST SWAP8 POP PUSH2 0x1A4D DUP4 PUSH2 0x19FD JUMP JUMPDEST SWAP3 POP POP PUSH1 0x1 DUP2 ADD SWAP1 POP PUSH2 0x1A2E JUMP JUMPDEST POP DUP6 SWAP4 POP POP POP POP SWAP3 SWAP2 POP POP JUMP JUMPDEST PUSH2 0x1A71 DUP2 PUSH2 0x159E JUMP JUMPDEST DUP3 MSTORE POP POP JUMP JUMPDEST PUSH1 0x0 PUSH1 0x60 DUP3 ADD SWAP1 POP DUP2 DUP2 SUB PUSH1 0x0 DUP4 ADD MSTORE PUSH2 0x1A91 DUP2 DUP7 PUSH2 0x1A0A JUMP JUMPDEST SWAP1 POP PUSH2 0x1AA0 PUSH1 0x20 DUP4 ADD DUP6 PUSH2 0x1A68 JUMP JUMPDEST PUSH2 0x1AAD PUSH1 0x40 DUP4 ADD DUP5 PUSH2 0x18C2 JUMP JUMPDEST SWAP5 SWAP4 POP POP POP POP JUMP JUMPDEST PUSH1 0x0 DUP1 PUSH1 0x0 DUP1 PUSH1 0x80 DUP6 DUP8 SUB SLT ISZERO PUSH2 0x1ACF JUMPI PUSH2 0x1ACE PUSH2 0x1574 JUMP JUMPDEST JUMPDEST PUSH1 0x0 PUSH2 0x1ADD DUP8 DUP3 DUP9 ADD PUSH2 0x15C7 JUMP JUMPDEST SWAP5 POP POP PUSH1 0x20 PUSH2 0x1AEE DUP8 DUP3 DUP9 ADD PUSH2 0x15FD JUMP JUMPDEST SWAP4 POP POP PUSH1 0x40 PUSH2 0x1AFF DUP8 DUP3 DUP9 ADD PUSH2 0x15FD JUMP JUMPDEST SWAP3 POP POP PUSH1 0x60 PUSH2 0x1B10 DUP8 DUP3 DUP9 ADD PUSH2 0x15FD JUMP JUMPDEST SWAP2 POP POP SWAP3 SWAP6 SWAP2 SWAP5 POP SWAP3 POP JUMP JUMPDEST PUSH1 0x0 DUP2 SWAP1 POP SWAP2 SWAP1 POP JUMP JUMPDEST PUSH2 0x1B2F DUP2 PUSH2 0x1B1C JUMP JUMPDEST DUP3 MSTORE POP POP JUMP JUMPDEST PUSH1 0x0 PUSH1 0x20 DUP3 ADD SWAP1 POP PUSH2 0x1B4A PUSH1 0x0 DUP4 ADD DUP5 PUSH2 0x1B26 JUMP JUMPDEST SWAP3 SWAP2 POP POP JUMP JUMPDEST PUSH1 0x0 DUP1 REVERT JUMPDEST PUSH1 0x0 DUP1 REVERT JUMPDEST PUSH32 0x4E487B7100000000000000000000000000000000000000000000000000000000 PUSH1 0x0 MSTORE PUSH1 0x41 PUSH1 0x4 MSTORE PUSH1 0x24 PUSH1 0x0 REVERT JUMPDEST PUSH2 0x1B92 DUP3 PUSH2 0x16CE JUMP JUMPDEST DUP2 ADD DUP2 DUP2 LT PUSH8 0xFFFFFFFFFFFFFFFF DUP3 GT OR ISZERO PUSH2 0x1BB1 JUMPI PUSH2 0x1BB0 PUSH2 0x1B5A JUMP JUMPDEST JUMPDEST DUP1 PUSH1 0x40 MSTORE POP POP POP JUMP JUMPDEST PUSH1 0x0 PUSH2 0x1BC4 PUSH2 0x156A JUMP JUMPDEST SWAP1 POP PUSH2 0x1BD0 DUP3 DUP3 PUSH2 0x1B89 JUMP JUMPDEST SWAP2 SWAP1 POP JUMP JUMPDEST PUSH1 0x0 PUSH8 0xFFFFFFFFFFFFFFFF DUP3 GT ISZERO PUSH2 0x1BF0 JUMPI PUSH2 0x1BEF PUSH2 0x1B5A JUMP JUMPDEST JUMPDEST PUSH2 0x1BF9 DUP3 PUSH2 0x16CE JUMP JUMPDEST SWAP1 POP PUSH1 0x20 DUP2 ADD SWAP1 POP SWAP2 SWAP1 POP JUMP JUMPDEST DUP3 DUP2 DUP4 CALLDATACOPY PUSH1 0x0 DUP4 DUP4 ADD MSTORE POP POP POP JUMP JUMPDEST PUSH1 0x0 PUSH2 0x1C28 PUSH2 0x1C23 DUP5 PUSH2 0x1BD5 JUMP JUMPDEST PUSH2 0x1BBA JUMP JUMPDEST SWAP1 POP DUP3 DUP2 MSTORE PUSH1 0x20 DUP2 ADD DUP5 DUP5 DUP5 ADD GT ISZERO PUSH2 0x1C44 JUMPI PUSH2 0x1C43 PUSH2 0x1B55 JUMP JUMPDEST JUMPDEST PUSH2 0x1C4F DUP5 DUP3 DUP6 PUSH2 0x1C06 JUMP JUMPDEST POP SWAP4 SWAP3 POP POP POP JUMP JUMPDEST PUSH1 0x0 DUP3 PUSH1 0x1F DUP4 ADD SLT PUSH2 0x1C6C JUMPI PUSH2 0x1C6B PUSH2 0x1B50 JUMP JUMPDEST JUMPDEST DUP2 CALLDATALOAD PUSH2 0x1C7C DUP5 DUP3 PUSH1 0x20 DUP7 ADD PUSH2 0x1C15 JUMP JUMPDEST SWAP2 POP POP SWAP3 SWAP2 POP POP JUMP JUMPDEST PUSH1 0x0 DUP1 PUSH1 0x0 DUP1 PUSH1 0x80 DUP6 DUP8 SUB SLT ISZERO PUSH2 0x1C9F JUMPI PUSH2 0x1C9E PUSH2 0x1574 JUMP JUMPDEST JUMPDEST PUSH1 0x0 PUSH2 0x1CAD DUP8 DUP3 DUP9 ADD PUSH2 0x15C7 JUMP JUMPDEST SWAP5 POP POP PUSH1 0x20 PUSH2 0x1CBE DUP8 DUP3 DUP9 ADD PUSH2 0x15FD JUMP JUMPDEST SWAP4 POP POP PUSH1 0x40 PUSH2 0x1CCF DUP8 DUP3 DUP9 ADD PUSH2 0x15FD JUMP JUMPDEST SWAP3 POP POP PUSH1 0x60 DUP6 ADD CALLDATALOAD PUSH8 0xFFFFFFFFFFFFFFFF DUP2 GT ISZERO PUSH2 0x1CF0 JUMPI PUSH2 0x1CEF PUSH2 0x1579 JUMP JUMPDEST JUMPDEST PUSH2 0x1CFC DUP8 DUP3 DUP9 ADD PUSH2 0x1C57 JUMP JUMPDEST SWAP2 POP POP SWAP3 SWAP6 SWAP2 SWAP5 POP SWAP3 POP JUMP JUMPDEST PUSH1 0x0 DUP3 DUP3 MSTORE PUSH1 0x20 DUP3 ADD SWAP1 POP SWAP3 SWAP2 POP POP JUMP JUMPDEST PUSH1 0x0 PUSH2 0x1D24 DUP3 PUSH2 0x167F JUMP JUMPDEST PUSH2 0x1D2E DUP2 DUP6 PUSH2 0x1D08 JUMP JUMPDEST SWAP4 POP PUSH2 0x1D3E DUP2 DUP6 PUSH1 0x20 DUP7 ADD PUSH2 0x169B JUMP JUMPDEST PUSH2 0x1D47 DUP2 PUSH2 0x16CE JUMP JUMPDEST DUP5 ADD SWAP2 POP POP SWAP3 SWAP2 POP POP JUMP JUMPDEST PUSH2 0x1D5B DUP2 PUSH2 0x17D6 JUMP JUMPDEST DUP3 MSTORE POP POP JUMP JUMPDEST PUSH2 0x1D6A DUP2 PUSH2 0x17F5 JUMP JUMPDEST DUP3 MSTORE POP POP JUMP JUMPDEST PUSH1 0x0 PUSH1 0xA0 DUP3 ADD SWAP1 POP DUP2 DUP2 SUB PUSH1 0x0 DUP4 ADD MSTORE PUSH2 0x1D8A DUP2 DUP9 PUSH2 0x1D19 JUMP JUMPDEST SWAP1 POP PUSH2 0x1D99 PUSH1 0x20 DUP4 ADD DUP8 PUSH2 0x1A68 JUMP JUMPDEST PUSH2 0x1DA6 PUSH1 0x40 DUP4 ADD DUP7 PUSH2 0x1D52 JUMP JUMPDEST PUSH2 0x1DB3 PUSH1 0x60 DUP4 ADD DUP6 PUSH2 0x1D52 JUMP JUMPDEST PUSH2 0x1DC0 PUSH1 0x80 DUP4 ADD DUP5 PUSH2 0x1D61 JUMP JUMPDEST SWAP7 SWAP6 POP POP POP POP POP POP JUMP JUMPDEST PUSH1 0x0 PUSH8 0xFFFFFFFFFFFFFFFF DUP3 GT ISZERO PUSH2 0x1DE5 JUMPI PUSH2 0x1DE4 PUSH2 0x1B5A JUMP JUMPDEST JUMPDEST PUSH2 0x1DEE DUP3 PUSH2 0x16CE JUMP JUMPDEST SWAP1 POP PUSH1 0x20 DUP2 ADD SWAP1 POP SWAP2 SWAP1 POP JUMP JUMPDEST PUSH1 0x0 PUSH2 0x1E0E PUSH2 0x1E09 DUP5 PUSH2 0x1DCA JUMP JUMPDEST PUSH2 0x1BBA JUMP JUMPDEST SWAP1 POP DUP3 DUP2 MSTORE PUSH1 0x20 DUP2 ADD DUP5 DUP5 DUP5 ADD GT ISZERO PUSH2 0x1E2A JUMPI PUSH2 0x1E29 PUSH2 0x1B55 JUMP JUMPDEST JUMPDEST PUSH2 0x1E35 DUP5 DUP3 DUP6 PUSH2 0x1C06 JUMP JUMPDEST POP SWAP4 SWAP3 POP POP POP JUMP JUMPDEST PUSH1 0x0 DUP3 PUSH1 0x1F DUP4 ADD SLT PUSH2 0x1E52 JUMPI PUSH2 0x1E51 PUSH2 0x1B50 JUMP JUMPDEST JUMPDEST DUP2 CALLDATALOAD PUSH2 0x1E62 DUP5 DUP3 PUSH1 0x20 DUP7 ADD PUSH2 0x1DFB JUMP JUMPDEST SWAP2 POP POP SWAP3 SWAP2 POP POP JUMP JUMPDEST PUSH2 0x1E74 DUP2 PUSH2 0x17D6 JUMP JUMPDEST DUP2 EQ PUSH2 0x1E7F JUMPI PUSH1 0x0 DUP1 REVERT JUMPDEST POP JUMP JUMPDEST PUSH1 0x0 DUP2 CALLDATALOAD SWAP1 POP PUSH2 0x1E91 DUP2 PUSH2 0x1E6B JUMP JUMPDEST SWAP3 SWAP2 POP POP JUMP JUMPDEST PUSH1 0x0 DUP1 PUSH1 0x40 DUP4 DUP6 SUB SLT ISZERO PUSH2 0x1EAE JUMPI PUSH2 0x1EAD PUSH2 0x1574 JUMP JUMPDEST JUMPDEST PUSH1 0x0 DUP4 ADD CALLDATALOAD PUSH8 0xFFFFFFFFFFFFFFFF DUP2 GT ISZERO PUSH2 0x1ECC JUMPI PUSH2 0x1ECB PUSH2 0x1579 JUMP JUMPDEST JUMPDEST PUSH2 0x1ED8 DUP6 DUP3 DUP7 ADD PUSH2 0x1E3D JUMP JUMPDEST SWAP3 POP POP PUSH1 0x20 PUSH2 0x1EE9 DUP6 DUP3 DUP7 ADD PUSH2 0x1E82 JUMP JUMPDEST SWAP2 POP POP SWAP3 POP SWAP3 SWAP1 POP JUMP JUMPDEST PUSH32 0x79657420746F20637265617465206120706F6C6C000000000000000000000000 PUSH1 0x0 DUP3 ADD MSTORE POP JUMP JUMPDEST PUSH1 0x0 PUSH2 0x1F29 PUSH1 0x14 DUP4 PUSH2 0x1D08 JUMP JUMPDEST SWAP2 POP PUSH2 0x1F34 DUP3 PUSH2 0x1EF3 JUMP JUMPDEST PUSH1 0x20 DUP3 ADD SWAP1 POP SWAP2 SWAP1 POP JUMP JUMPDEST PUSH1 0x0 PUSH1 0x20 DUP3 ADD SWAP1 POP DUP2 DUP2 SUB PUSH1 0x0 DUP4 ADD MSTORE PUSH2 0x1F58 DUP2 PUSH2 0x1F1C JUMP JUMPDEST SWAP1 POP SWAP2 SWAP1 POP JUMP JUMPDEST PUSH32 0x4E487B7100000000000000000000000000000000000000000000000000000000 PUSH1 0x0 MSTORE PUSH1 0x1 PUSH1 0x4 MSTORE PUSH1 0x24 PUSH1 0x0 REVERT JUMPDEST PUSH32 0x6D6178696D756D206E6F206F662063616E646964617465207065722073657373 PUSH1 0x0 DUP3 ADD MSTORE PUSH32 0x696F6E2072656769737465726564000000000000000000000000000000000000 PUSH1 0x20 DUP3 ADD MSTORE POP JUMP JUMPDEST PUSH1 0x0 PUSH2 0x1FEA PUSH1 0x2E DUP4 PUSH2 0x1D08 JUMP JUMPDEST SWAP2 POP PUSH2 0x1FF5 DUP3 PUSH2 0x1F8E JUMP JUMPDEST PUSH1 0x40 DUP3 ADD SWAP1 POP SWAP2 SWAP1 POP JUMP JUMPDEST PUSH1 0x0 PUSH1 0x20 DUP3 ADD SWAP1 POP DUP2 DUP2 SUB PUSH1 0x0 DUP4 ADD MSTORE PUSH2 0x2019 DUP2 PUSH2 0x1FDD JUMP JUMPDEST SWAP1 POP SWAP2 SWAP1 POP JUMP JUMPDEST PUSH32 0x4E487B7100000000000000000000000000000000000000000000000000000000 PUSH1 0x0 MSTORE PUSH1 0x11 PUSH1 0x4 MSTORE PUSH1 0x24 PUSH1 0x0 REVERT JUMPDEST PUSH1 0x0 PUSH2 0x205A DUP3 PUSH2 0x17D6 JUMP JUMPDEST SWAP2 POP PUSH4 0xFFFFFFFF DUP3 EQ ISZERO PUSH2 0x2071 JUMPI PUSH2 0x2070 PUSH2 0x2020 JUMP JUMPDEST JUMPDEST PUSH1 0x1 DUP3 ADD SWAP1 POP SWAP2 SWAP1 POP JUMP JUMPDEST PUSH1 0x0 PUSH1 0x20 DUP3 ADD SWAP1 POP PUSH2 0x2091 PUSH1 0x0 DUP4 ADD DUP5 PUSH2 0x1A68 JUMP JUMPDEST SWAP3 SWAP2 POP POP JUMP JUMPDEST PUSH32 0x4E487B7100000000000000000000000000000000000000000000000000000000 PUSH1 0x0 MSTORE PUSH1 0x22 PUSH1 0x4 MSTORE PUSH1 0x24 PUSH1 0x0 REVERT JUMPDEST PUSH1 0x0 PUSH1 0x2 DUP3 DIV SWAP1 POP PUSH1 0x1 DUP3 AND DUP1 PUSH2 0x20DE JUMPI PUSH1 0x7F DUP3 AND SWAP2 POP JUMPDEST PUSH1 0x20 DUP3 LT DUP2 EQ ISZERO PUSH2 0x20F2 JUMPI PUSH2 0x20F1 PUSH2 0x2097 JUMP JUMPDEST JUMPDEST POP SWAP2 SWAP1 POP JUMP JUMPDEST PUSH32 0x4E6F20706F6C6C20637265617465640000000000000000000000000000000000 PUSH1 0x0 DUP3 ADD MSTORE POP JUMP JUMPDEST PUSH1 0x0 PUSH2 0x212E PUSH1 0xF DUP4 PUSH2 0x1D08 JUMP JUMPDEST SWAP2 POP PUSH2 0x2139 DUP3 PUSH2 0x20F8 JUMP JUMPDEST PUSH1 0x20 DUP3 ADD SWAP1 POP SWAP2 SWAP1 POP JUMP JUMPDEST PUSH1 0x0 PUSH1 0x20 DUP3 ADD SWAP1 POP DUP2 DUP2 SUB PUSH1 0x0 DUP4 ADD MSTORE PUSH2 0x215D DUP2 PUSH2 0x2121 JUMP JUMPDEST SWAP1 POP SWAP2 SWAP1 POP JUMP JUMPDEST PUSH32 0x4E487B7100000000000000000000000000000000000000000000000000000000 PUSH1 0x0 MSTORE PUSH1 0x32 PUSH1 0x4 MSTORE PUSH1 0x24 PUSH1 0x0 REVERT JUMPDEST PUSH1 0x0 PUSH2 0x219E DUP3 PUSH2 0x15DC JUMP JUMPDEST SWAP2 POP PUSH32 0xFFFFFFFFFFFFFFFFFFFFFFFFFFFFFFFFFFFFFFFFFFFFFFFFFFFFFFFFFFFFFFFF DUP3 EQ ISZERO PUSH2 0x21D1 JUMPI PUSH2 0x21D0 PUSH2 0x2020 JUMP JUMPDEST JUMPDEST PUSH1 0x1 DUP3 ADD SWAP1 POP SWAP2 SWAP1 POP JUMP JUMPDEST PUSH1 0x0 DUP2 PUSH1 0x60 SHL SWAP1 POP SWAP2 SWAP1 POP JUMP JUMPDEST PUSH1 0x0 PUSH2 0x21F4 DUP3 PUSH2 0x21DC JUMP JUMPDEST SWAP1 POP SWAP2 SWAP1 POP JUMP JUMPDEST PUSH1 0x0 PUSH2 0x2206 DUP3 PUSH2 0x21E9 JUMP JUMPDEST SWAP1 POP SWAP2 SWAP1 POP JUMP JUMPDEST PUSH2 0x221E PUSH2 0x2219 DUP3 PUSH2 0x159E JUMP JUMPDEST PUSH2 0x21FB JUMP JUMPDEST DUP3 MSTORE POP POP JUMP JUMPDEST PUSH1 0x0 DUP2 SWAP1 POP SWAP3 SWAP2 POP POP JUMP JUMPDEST PUSH32 0x6D6574617472616E73616374696F6E20566F74696E6720000000000000000000 PUSH1 0x0 DUP3 ADD MSTORE POP JUMP JUMPDEST PUSH1 0x0 PUSH2 0x2265 PUSH1 0x17 DUP4 PUSH2 0x2224 JUMP JUMPDEST SWAP2 POP PUSH2 0x2270 DUP3 PUSH2 0x222F JUMP JUMPDEST PUSH1 0x17 DUP3 ADD SWAP1 POP SWAP2 SWAP1 POP JUMP JUMPDEST PUSH1 0x0 DUP2 SWAP1 POP SWAP2 SWAP1 POP JUMP JUMPDEST PUSH2 0x2296 PUSH2 0x2291 DUP3 PUSH2 0x15DC JUMP JUMPDEST PUSH2 0x227B JUMP JUMPDEST DUP3 MSTORE POP POP JUMP JUMPDEST PUSH1 0x0 PUSH2 0x22A8 DUP3 DUP9 PUSH2 0x220D JUMP JUMPDEST PUSH1 0x14 DUP3 ADD SWAP2 POP PUSH2 0x22B7 DUP3 PUSH2 0x2258 JUMP JUMPDEST SWAP2 POP PUSH2 0x22C3 DUP3 DUP8 PUSH2 0x220D JUMP JUMPDEST PUSH1 0x14 DUP3 ADD SWAP2 POP PUSH2 0x22D3 DUP3 DUP7 PUSH2 0x2285 JUMP JUMPDEST PUSH1 0x20 DUP3 ADD SWAP2 POP PUSH2 0x22E3 DUP3 DUP6 PUSH2 0x2285 JUMP JUMPDEST PUSH1 0x20 DUP3 ADD SWAP2 POP PUSH2 0x22F3 DUP3 DUP5 PUSH2 0x2285 JUMP JUMPDEST PUSH1 0x20 DUP3 ADD SWAP2 POP DUP2 SWAP1 POP SWAP7 SWAP6 POP POP POP POP POP POP JUMP JUMPDEST PUSH32 0x54686973206164647265737320646F6573206E6F742065786973742061732061 PUSH1 0x0 DUP3 ADD MSTORE PUSH32 0x2063616E64696461746500000000000000000000000000000000000000000000 PUSH1 0x20 DUP3 ADD MSTORE POP JUMP JUMPDEST PUSH1 0x0 PUSH2 0x2362 PUSH1 0x2A DUP4 PUSH2 0x1D08 JUMP JUMPDEST SWAP2 POP PUSH2 0x236D DUP3 PUSH2 0x2306 JUMP JUMPDEST PUSH1 0x40 DUP3 ADD SWAP1 POP SWAP2 SWAP1 POP JUMP JUMPDEST PUSH1 0x0 PUSH1 0x20 DUP3 ADD SWAP1 POP DUP2 DUP2 SUB PUSH1 0x0 DUP4 ADD MSTORE PUSH2 0x2391 DUP2 PUSH2 0x2355 JUMP JUMPDEST SWAP1 POP SWAP2 SWAP1 POP JUMP JUMPDEST PUSH32 0x766F74696E672068617320656E64656400000000000000000000000000000000 PUSH1 0x0 DUP3 ADD MSTORE POP JUMP JUMPDEST PUSH1 0x0 PUSH2 0x23CE PUSH1 0x10 DUP4 PUSH2 0x1D08 JUMP JUMPDEST SWAP2 POP PUSH2 0x23D9 DUP3 PUSH2 0x2398 JUMP JUMPDEST PUSH1 0x20 DUP3 ADD SWAP1 POP SWAP2 SWAP1 POP JUMP JUMPDEST PUSH1 0x0 PUSH1 0x20 DUP3 ADD SWAP1 POP DUP2 DUP2 SUB PUSH1 0x0 DUP4 ADD MSTORE PUSH2 0x23FD DUP2 PUSH2 0x23C1 JUMP JUMPDEST SWAP1 POP SWAP2 SWAP1 POP JUMP JUMPDEST PUSH32 0x596F7520616C726561647920766F746564000000000000000000000000000000 PUSH1 0x0 DUP3 ADD MSTORE POP JUMP JUMPDEST PUSH1 0x0 PUSH2 0x243A PUSH1 0x11 DUP4 PUSH2 0x1D08 JUMP JUMPDEST SWAP2 POP PUSH2 0x2445 DUP3 PUSH2 0x2404 JUMP JUMPDEST PUSH1 0x20 DUP3 ADD SWAP1 POP SWAP2 SWAP1 POP JUMP JUMPDEST PUSH1 0x0 PUSH1 0x20 DUP3 ADD SWAP1 POP DUP2 DUP2 SUB PUSH1 0x0 DUP4 ADD MSTORE PUSH2 0x2469 DUP2 PUSH2 0x242D JUMP JUMPDEST SWAP1 POP SWAP2 SWAP1 POP JUMP JUMPDEST PUSH1 0x0 PUSH1 0x40 DUP3 ADD SWAP1 POP PUSH2 0x2485 PUSH1 0x0 DUP4 ADD DUP6 PUSH2 0x1A68 JUMP JUMPDEST PUSH2 0x2492 PUSH1 0x20 DUP4 ADD DUP5 PUSH2 0x1D61 JUMP JUMPDEST SWAP4 SWAP3 POP POP POP JUMP JUMPDEST PUSH32 0x6E6F74207468652063686169726D616E00000000000000000000000000000000 PUSH1 0x0 DUP3 ADD MSTORE POP JUMP JUMPDEST PUSH1 0x0 PUSH2 0x24CF PUSH1 0x10 DUP4 PUSH2 0x1D08 JUMP JUMPDEST SWAP2 POP PUSH2 0x24DA DUP3 PUSH2 0x2499 JUMP JUMPDEST PUSH1 0x20 DUP3 ADD SWAP1 POP SWAP2 SWAP1 POP JUMP JUMPDEST PUSH1 0x0 PUSH1 0x20 DUP3 ADD SWAP1 POP DUP2 DUP2 SUB PUSH1 0x0 DUP4 ADD MSTORE PUSH2 0x24FE DUP2 PUSH2 0x24C2 JUMP JUMPDEST SWAP1 POP SWAP2 SWAP1 POP JUMP JUMPDEST PUSH1 0x0 PUSH2 0x2510 DUP3 PUSH2 0x167F JUMP JUMPDEST PUSH2 0x251A DUP2 DUP6 PUSH2 0x2224 JUMP JUMPDEST SWAP4 POP PUSH2 0x252A DUP2 DUP6 PUSH1 0x20 DUP7 ADD PUSH2 0x169B JUMP JUMPDEST DUP1 DUP5 ADD SWAP2 POP POP SWAP3 SWAP2 POP POP JUMP JUMPDEST PUSH1 0x0 PUSH2 0x2542 DUP3 DUP5 PUSH2 0x2505 JUMP JUMPDEST SWAP2 POP DUP2 SWAP1 POP SWAP3 SWAP2 POP POP JUMP JUMPDEST PUSH1 0x0 PUSH1 0xFF DUP3 AND SWAP1 POP SWAP2 SWAP1 POP JUMP JUMPDEST PUSH1 0x0 PUSH2 0x2565 DUP3 PUSH2 0x254D JUMP JUMPDEST SWAP2 POP PUSH2 0x2570 DUP4 PUSH2 0x254D JUMP JUMPDEST SWAP3 POP DUP3 PUSH1 0xFF SUB DUP3 GT ISZERO PUSH2 0x2586 JUMPI PUSH2 0x2585 PUSH2 0x2020 JUMP JUMPDEST JUMPDEST DUP3 DUP3 ADD SWAP1 POP SWAP3 SWAP2 POP POP JUMP JUMPDEST PUSH32 0x19457468657265756D205369676E6564204D6573736167653A0A333200000000 PUSH1 0x0 DUP3 ADD MSTORE POP JUMP JUMPDEST PUSH1 0x0 PUSH2 0x25C7 PUSH1 0x1C DUP4 PUSH2 0x2224 JUMP JUMPDEST SWAP2 POP PUSH2 0x25D2 DUP3 PUSH2 0x2591 JUMP JUMPDEST PUSH1 0x1C DUP3 ADD SWAP1 POP SWAP2 SWAP1 POP JUMP JUMPDEST PUSH1 0x0 DUP2 SWAP1 POP SWAP2 SWAP1 POP JUMP JUMPDEST PUSH2 0x25F8 PUSH2 0x25F3 DUP3 PUSH2 0x1B1C JUMP JUMPDEST PUSH2 0x25DD JUMP JUMPDEST DUP3 MSTORE POP POP JUMP JUMPDEST PUSH1 0x0 PUSH2 0x2609 DUP3 PUSH2 0x25BA JUMP JUMPDEST SWAP2 POP PUSH2 0x2615 DUP3 DUP5 PUSH2 0x25E7 JUMP JUMPDEST PUSH1 0x20 DUP3 ADD SWAP2 POP DUP2 SWAP1 POP SWAP3 SWAP2 POP POP JUMP JUMPDEST PUSH2 0x262D DUP2 PUSH2 0x254D JUMP JUMPDEST DUP3 MSTORE POP POP JUMP JUMPDEST PUSH1 0x0 PUSH1 0x80 DUP3 ADD SWAP1 POP PUSH2 0x2648 PUSH1 0x0 DUP4 ADD DUP8 PUSH2 0x1B26 JUMP JUMPDEST PUSH2 0x2655 PUSH1 0x20 DUP4 ADD DUP7 PUSH2 0x2624 JUMP JUMPDEST PUSH2 0x2662 PUSH1 0x40 DUP4 ADD DUP6 PUSH2 0x1B26 JUMP JUMPDEST PUSH2 0x266F PUSH1 0x60 DUP4 ADD DUP5 PUSH2 0x1B26 JUMP JUMPDEST SWAP6 SWAP5 POP POP POP POP POP JUMP INVALID LOG2 PUSH5 0x6970667358 0x22 SLT KECCAK256 0xA8 OR DUP4 0x5C SWAP14 0x24 0x2C 0xD7 0x4B PUSH30 0x17501A202B6EA8FE6506FB4169AADA57BE712CE896C164736F6C63430008 EXP STOP CALLER "
				},
				"gasEstimates": {
					"creation": {
						"codeDepositCost": "1980400",
						"executionCost": "24204",
						"totalCost": "2004604"
					},
					"external": {
						"AddCandidate(address,uint256)": "infinite",
						"AllCandidates(uint256)": "infinite",
						"NoOfRegisteredCandidates(uint256)": "infinite",
						"VotingKey(uint256)": "infinite",
						"createPoll(string,uint32)": "infinite",
						"getVotePollProps(uint256)": "infinite",
						"metaVotingHash(address,uint256,uint256,uint256)": "infinite",
						"replayNonce(address)": "2881",
						"revealWinner(uint256)": "infinite",
						"setVotingState(uint256)": "32610",
						"vote(address,uint256,uint256,bytes)": "infinite",
						"votingPoll(uint256)": "infinite"
					},
					"internal": {
						"countVote(address,uint256,address)": "51269",
						"getPosition(uint256,uint256)": "6717",
						"getSigner(bytes32,bytes memory)": "infinite"
					}
				},
				"methodIdentifiers": {
					"AddCandidate(address,uint256)": "049d1c8b",
					"AllCandidates(uint256)": "8ac3c3c2",
					"NoOfRegisteredCandidates(uint256)": "66c5343b",
					"VotingKey(uint256)": "ae928e3e",
					"createPoll(string,uint32)": "f762f4c0",
					"getVotePollProps(uint256)": "278e2c90",
					"metaVotingHash(address,uint256,uint256,uint256)": "bfe2e25d",
					"replayNonce(address)": "67d407df",
					"revealWinner(uint256)": "8ccb59e8",
					"setVotingState(uint256)": "c57003cc",
					"vote(address,uint256,uint256,bytes)": "c10d6cec",
					"votingPoll(uint256)": "e615f104"
				}
			},
			"storageLayout": {
				"storage": [
					{
						"astId": 4,
						"contract": "src/voting.sol:Voting",
						"label": "id",
						"offset": 0,
						"slot": "0",
						"type": "t_uint256"
					},
					{
						"astId": 21,
						"contract": "src/voting.sol:Voting",
						"label": "VotingKey",
						"offset": 0,
						"slot": "1",
						"type": "t_array(t_uint256)dyn_storage"
					},
					{
						"astId": 26,
						"contract": "src/voting.sol:Voting",
						"label": "votingPoll",
						"offset": 0,
						"slot": "2",
						"type": "t_mapping(t_uint256,t_struct(VotingPoll)18_storage)"
					},
					{
						"astId": 30,
						"contract": "src/voting.sol:Voting",
						"label": "replayNonce",
						"offset": 0,
						"slot": "3",
						"type": "t_mapping(t_address,t_uint256)"
					},
					{
						"astId": 36,
						"contract": "src/voting.sol:Voting",
						"label": "CandidateStatus",
						"offset": 0,
						"slot": "4",
						"type": "t_mapping(t_uint256,t_mapping(t_address,t_bool))"
					},
					{
						"astId": 42,
						"contract": "src/voting.sol:Voting",
						"label": "CandidateVote",
						"offset": 0,
						"slot": "5",
						"type": "t_mapping(t_uint256,t_mapping(t_address,t_uint256))"
					},
					{
						"astId": 48,
						"contract": "src/voting.sol:Voting",
						"label": "hasVoted",
						"offset": 0,
						"slot": "6",
						"type": "t_mapping(t_uint256,t_mapping(t_address,t_bool))"
					}
				],
				"types": {
					"t_address": {
						"encoding": "inplace",
						"label": "address",
						"numberOfBytes": "20"
					},
					"t_array(t_address)dyn_storage": {
						"base": "t_address",
						"encoding": "dynamic_array",
						"label": "address[]",
						"numberOfBytes": "32"
					},
					"t_array(t_uint256)dyn_storage": {
						"base": "t_uint256",
						"encoding": "dynamic_array",
						"label": "uint256[]",
						"numberOfBytes": "32"
					},
					"t_bool": {
						"encoding": "inplace",
						"label": "bool",
						"numberOfBytes": "1"
					},
					"t_mapping(t_address,t_bool)": {
						"encoding": "mapping",
						"key": "t_address",
						"label": "mapping(address => bool)",
						"numberOfBytes": "32",
						"value": "t_bool"
					},
					"t_mapping(t_address,t_uint256)": {
						"encoding": "mapping",
						"key": "t_address",
						"label": "mapping(address => uint256)",
						"numberOfBytes": "32",
						"value": "t_uint256"
					},
					"t_mapping(t_uint256,t_mapping(t_address,t_bool))": {
						"encoding": "mapping",
						"key": "t_uint256",
						"label": "mapping(uint256 => mapping(address => bool))",
						"numberOfBytes": "32",
						"value": "t_mapping(t_address,t_bool)"
					},
					"t_mapping(t_uint256,t_mapping(t_address,t_uint256))": {
						"encoding": "mapping",
						"key": "t_uint256",
						"label": "mapping(uint256 => mapping(address => uint256))",
						"numberOfBytes": "32",
						"value": "t_mapping(t_address,t_uint256)"
					},
					"t_mapping(t_uint256,t_struct(VotingPoll)18_storage)": {
						"encoding": "mapping",
						"key": "t_uint256",
						"label": "mapping(uint256 => struct Voting.VotingPoll)",
						"numberOfBytes": "32",
						"value": "t_struct(VotingPoll)18_storage"
					},
					"t_string_storage": {
						"encoding": "bytes",
						"label": "string",
						"numberOfBytes": "32"
					},
					"t_struct(VotingPoll)18_storage": {
						"encoding": "inplace",
						"label": "struct Voting.VotingPoll",
						"members": [
							{
								"astId": 6,
								"contract": "src/voting.sol:Voting",
								"label": "name",
								"offset": 0,
								"slot": "0",
								"type": "t_string_storage"
							},
							{
								"astId": 8,
								"contract": "src/voting.sol:Voting",
								"label": "chairman",
								"offset": 0,
								"slot": "1",
								"type": "t_address"
							},
							{
								"astId": 11,
								"contract": "src/voting.sol:Voting",
								"label": "candidates",
								"offset": 0,
								"slot": "2",
								"type": "t_array(t_address)dyn_storage"
							},
							{
								"astId": 13,
								"contract": "src/voting.sol:Voting",
								"label": "maxNoOfCandidates",
								"offset": 0,
								"slot": "3",
								"type": "t_uint32"
							},
							{
								"astId": 15,
								"contract": "src/voting.sol:Voting",
								"label": "currentNoOfCandidates",
								"offset": 4,
								"slot": "3",
								"type": "t_uint32"
							},
							{
								"astId": 17,
								"contract": "src/voting.sol:Voting",
								"label": "voting",
								"offset": 8,
								"slot": "3",
								"type": "t_bool"
							}
						],
						"numberOfBytes": "128"
					},
					"t_uint256": {
						"encoding": "inplace",
						"label": "uint256",
						"numberOfBytes": "32"
					},
					"t_uint32": {
						"encoding": "inplace",
						"label": "uint32",
						"numberOfBytes": "4"
					}
				}
			},
			"userdoc": {
				"kind": "user",
				"methods": {},
				"version": 1
			}
		}
	}
}