{
	"src/voting.sol": {
		"Voting": {
			"abi": [
				{
					"anonymous": false,
					"inputs": [
						{
							"indexed": false,
							"internalType": "address",
							"name": "NewCandidate",
							"type": "address"
						}
					],
					"name": "becameCandidate",
					"type": "event"
				},
				{
					"anonymous": false,
					"inputs": [
						{
							"indexed": false,
							"internalType": "address",
							"name": "_candidate",
							"type": "address"
						},
						{
							"indexed": false,
							"internalType": "bool",
							"name": "status",
							"type": "bool"
						}
					],
					"name": "voted",
					"type": "event"
				},
				{
					"inputs": [
						{
							"internalType": "address",
							"name": "_newCandidate",
							"type": "address"
						},
						{
							"internalType": "string",
							"name": "_name",
							"type": "string"
						}
					],
					"name": "AddCandidate",
					"outputs": [],
					"stateMutability": "nonpayable",
					"type": "function"
				},
				{
					"inputs": [
						{
							"internalType": "string",
							"name": "_name",
							"type": "string"
						}
					],
					"name": "AllCandidates",
					"outputs": [
						{
							"internalType": "address[]",
							"name": "_candidates",
							"type": "address[]"
						}
					],
					"stateMutability": "view",
					"type": "function"
				},
				{
					"inputs": [
						{
							"internalType": "string",
							"name": "_name",
							"type": "string"
						}
					],
					"name": "NoOfRegisteredCandidates",
					"outputs": [
						{
							"internalType": "uint256",
							"name": "",
							"type": "uint256"
						}
					],
					"stateMutability": "view",
					"type": "function"
				},
				{
					"inputs": [
						{
							"internalType": "string",
							"name": "_name",
							"type": "string"
						},
						{
							"internalType": "uint16",
							"name": "ExpectedNoOfCandidate",
							"type": "uint16"
						}
					],
					"name": "createPoll",
					"outputs": [
						{
							"internalType": "string",
							"name": "",
							"type": "string"
						},
						{
							"internalType": "uint256",
							"name": "Candidate",
							"type": "uint256"
						}
					],
					"stateMutability": "nonpayable",
					"type": "function"
				},
				{
					"inputs": [
						{
							"internalType": "string",
							"name": "_name",
							"type": "string"
						},
						{
							"internalType": "uint256",
							"name": "i",
							"type": "uint256"
						}
					],
					"name": "getUint",
					"outputs": [
						{
							"internalType": "uint256",
							"name": "val",
							"type": "uint256"
						},
						{
							"internalType": "address",
							"name": "cand",
							"type": "address"
						}
					],
					"stateMutability": "view",
					"type": "function"
				},
				{
					"inputs": [
						{
							"internalType": "address",
							"name": "Cand",
							"type": "address"
						},
						{
							"internalType": "string",
							"name": "_name",
							"type": "string"
						},
						{
							"internalType": "uint256",
							"name": "nonce",
							"type": "uint256"
						},
						{
							"internalType": "uint256",
							"name": "time",
							"type": "uint256"
						}
					],
					"name": "metaVotingHash",
					"outputs": [
						{
							"internalType": "bytes32",
							"name": "",
							"type": "bytes32"
						}
					],
					"stateMutability": "view",
					"type": "function"
				},
				{
					"inputs": [
						{
							"internalType": "address",
							"name": "",
							"type": "address"
						}
					],
					"name": "replayNonce",
					"outputs": [
						{
							"internalType": "uint256",
							"name": "",
							"type": "uint256"
						}
					],
					"stateMutability": "view",
					"type": "function"
				},
				{
					"inputs": [
						{
							"internalType": "string",
							"name": "_name",
							"type": "string"
						}
					],
					"name": "revealWinner",
					"outputs": [
						{
							"internalType": "uint256[]",
							"name": "CV",
							"type": "uint256[]"
						},
						{
							"internalType": "address",
							"name": "",
							"type": "address"
						},
						{
							"internalType": "uint256",
							"name": "",
							"type": "uint256"
						}
					],
					"stateMutability": "view",
					"type": "function"
				},
				{
					"inputs": [
						{
							"internalType": "string",
							"name": "_name",
							"type": "string"
						}
					],
					"name": "setVotingState",
					"outputs": [],
					"stateMutability": "nonpayable",
					"type": "function"
				},
				{
					"inputs": [
						{
							"internalType": "address",
							"name": "Cand",
							"type": "address"
						},
						{
							"internalType": "string",
							"name": "_name",
							"type": "string"
						},
						{
							"internalType": "uint256",
							"name": "nonce",
							"type": "uint256"
						},
						{
							"internalType": "bytes",
							"name": "signature",
							"type": "bytes"
						}
					],
					"name": "vote",
					"outputs": [],
					"stateMutability": "nonpayable",
					"type": "function"
				},
				{
					"inputs": [
						{
							"internalType": "string",
							"name": "",
							"type": "string"
						}
					],
					"name": "votingPoll",
					"outputs": [
						{
							"internalType": "address",
							"name": "chairman",
							"type": "address"
						},
						{
							"internalType": "uint32",
							"name": "maxNoOfCandidates",
							"type": "uint32"
						},
						{
							"internalType": "uint16",
							"name": "currentNoOfCandidates",
							"type": "uint16"
						},
						{
							"internalType": "bool",
							"name": "voting",
							"type": "bool"
						}
					],
					"stateMutability": "view",
					"type": "function"
				},
				{
					"stateMutability": "payable",
					"type": "receive"
				}
			],
			"devdoc": {
				"kind": "dev",
				"methods": {},
				"version": 1
			},
			"evm": {
				"assembly": "    /* \"src/voting.sol\":63:5277  contract Voting{... */\n  mstore(0x40, 0x80)\n  callvalue\n  dup1\n  iszero\n  tag_1\n  jumpi\n  0x00\n  dup1\n  revert\ntag_1:\n  pop\n  dataSize(sub_0)\n  dup1\n  dataOffset(sub_0)\n  0x00\n  codecopy\n  0x00\n  return\nstop\n\nsub_0: assembly {\n        /* \"src/voting.sol\":63:5277  contract Voting{... */\n      mstore(0x40, 0x80)\n      jumpi(tag_1, lt(calldatasize, 0x04))\n      shr(0xe0, calldataload(0x00))\n      dup1\n      0x63ee965a\n      gt\n      tag_14\n      jumpi\n      dup1\n      0x63ee965a\n      eq\n      tag_8\n      jumpi\n      dup1\n      0x67d407df\n      eq\n      tag_9\n      jumpi\n      dup1\n      0x8579cacd\n      eq\n      tag_10\n      jumpi\n      dup1\n      0xaf7cbc0d\n      eq\n      tag_11\n      jumpi\n      dup1\n      0xbd807c6c\n      eq\n      tag_12\n      jumpi\n      dup1\n      0xf0e4de22\n      eq\n      tag_13\n      jumpi\n      jump(tag_2)\n    tag_14:\n      dup1\n      0x01ff993b\n      eq\n      tag_3\n      jumpi\n      dup1\n      0x0968d4b1\n      eq\n      tag_4\n      jumpi\n      dup1\n      0x12f0da4b\n      eq\n      tag_5\n      jumpi\n      dup1\n      0x4fcf1f39\n      eq\n      tag_6\n      jumpi\n      dup1\n      0x57f53967\n      eq\n      tag_7\n      jumpi\n      jump(tag_2)\n    tag_1:\n      jumpi(tag_2, calldatasize)\n      stop\n    tag_2:\n      0x00\n      dup1\n      revert\n        /* \"src/voting.sol\":4428:4656  function metaVotingHash(address Cand, string memory _name, uint256 nonce, uint256 time) public view returns(bytes32){... */\n    tag_3:\n      callvalue\n      dup1\n      iszero\n      tag_17\n      jumpi\n      0x00\n      dup1\n      revert\n    tag_17:\n      pop\n      tag_18\n      0x04\n      dup1\n      calldatasize\n      sub\n      dup2\n      add\n      swap1\n      tag_19\n      swap2\n      swap1\n      tag_20\n      jump\t// in\n    tag_19:\n      tag_21\n      jump\t// in\n    tag_18:\n      mload(0x40)\n      tag_22\n      swap2\n      swap1\n      tag_23\n      jump\t// in\n    tag_22:\n      mload(0x40)\n      dup1\n      swap2\n      sub\n      swap1\n      return\n        /* \"src/voting.sol\":1432:1721  function createPoll(string memory _name, uint16 ExpectedNoOfCandidate) external returns(string memory, uint Candidate){... */\n    tag_4:\n      callvalue\n      dup1\n      iszero\n      tag_24\n      jumpi\n      0x00\n      dup1\n      revert\n    tag_24:\n      pop\n      tag_25\n      0x04\n      dup1\n      calldatasize\n      sub\n      dup2\n      add\n      swap1\n      tag_26\n      swap2\n      swap1\n      tag_27\n      jump\t// in\n    tag_26:\n      tag_28\n      jump\t// in\n    tag_25:\n      mload(0x40)\n      tag_29\n      swap3\n      swap2\n      swap1\n      tag_30\n      jump\t// in\n    tag_29:\n      mload(0x40)\n      dup1\n      swap2\n      sub\n      swap1\n      return\n        /* \"src/voting.sol\":2240:2806  function vote(address Cand, string memory _name , uint256 nonce, bytes memory signature) external  isCandidate(Cand, _name) StillVoting(_name){... */\n    tag_5:\n      callvalue\n      dup1\n      iszero\n      tag_31\n      jumpi\n      0x00\n      dup1\n      revert\n    tag_31:\n      pop\n      tag_32\n      0x04\n      dup1\n      calldatasize\n      sub\n      dup2\n      add\n      swap1\n      tag_33\n      swap2\n      swap1\n      tag_34\n      jump\t// in\n    tag_33:\n      tag_35\n      jump\t// in\n    tag_32:\n      stop\n        /* \"src/voting.sol\":3412:4018  function revealWinner( string memory _name) external view returns ( uint[] memory CV, address, uint){... */\n    tag_6:\n      callvalue\n      dup1\n      iszero\n      tag_36\n      jumpi\n      0x00\n      dup1\n      revert\n    tag_36:\n      pop\n      tag_37\n      0x04\n      dup1\n      calldatasize\n      sub\n      dup2\n      add\n      swap1\n      tag_38\n      swap2\n      swap1\n      tag_39\n      jump\t// in\n    tag_38:\n      tag_40\n      jump\t// in\n    tag_37:\n      mload(0x40)\n      tag_41\n      swap4\n      swap3\n      swap2\n      swap1\n      tag_42\n      jump\t// in\n    tag_41:\n      mload(0x40)\n      dup1\n      swap2\n      sub\n      swap1\n      return\n        /* \"src/voting.sol\":1725:2237  function AddCandidate(address _newCandidate, string memory _name) external{... */\n    tag_7:\n      callvalue\n      dup1\n      iszero\n      tag_43\n      jumpi\n      0x00\n      dup1\n      revert\n    tag_43:\n      pop\n      tag_44\n      0x04\n      dup1\n      calldatasize\n      sub\n      dup2\n      add\n      swap1\n      tag_45\n      swap2\n      swap1\n      tag_46\n      jump\t// in\n    tag_45:\n      tag_47\n      jump\t// in\n    tag_44:\n      stop\n        /* \"src/voting.sol\":620:667  mapping(string => VotingPoll) public votingPoll */\n    tag_8:\n      callvalue\n      dup1\n      iszero\n      tag_48\n      jumpi\n      0x00\n      dup1\n      revert\n    tag_48:\n      pop\n      tag_49\n      0x04\n      dup1\n      calldatasize\n      sub\n      dup2\n      add\n      swap1\n      tag_50\n      swap2\n      swap1\n      tag_39\n      jump\t// in\n    tag_50:\n      tag_51\n      jump\t// in\n    tag_49:\n      mload(0x40)\n      tag_52\n      swap5\n      swap4\n      swap3\n      swap2\n      swap1\n      tag_53\n      jump\t// in\n    tag_52:\n      mload(0x40)\n      dup1\n      swap2\n      sub\n      swap1\n      return\n        /* \"src/voting.sol\":673:720  mapping (address => uint256) public replayNonce */\n    tag_9:\n      callvalue\n      dup1\n      iszero\n      tag_54\n      jumpi\n      0x00\n      dup1\n      revert\n    tag_54:\n      pop\n      tag_55\n      0x04\n      dup1\n      calldatasize\n      sub\n      dup2\n      add\n      swap1\n      tag_56\n      swap2\n      swap1\n      tag_57\n      jump\t// in\n    tag_56:\n      tag_58\n      jump\t// in\n    tag_55:\n      mload(0x40)\n      tag_59\n      swap2\n      swap1\n      tag_60\n      jump\t// in\n    tag_59:\n      mload(0x40)\n      dup1\n      swap2\n      sub\n      swap1\n      return\n        /* \"src/voting.sol\":3057:3228  function NoOfRegisteredCandidates( string memory _name) public view returns(uint){... */\n    tag_10:\n      callvalue\n      dup1\n      iszero\n      tag_61\n      jumpi\n      0x00\n      dup1\n      revert\n    tag_61:\n      pop\n      tag_62\n      0x04\n      dup1\n      calldatasize\n      sub\n      dup2\n      add\n      swap1\n      tag_63\n      swap2\n      swap1\n      tag_39\n      jump\t// in\n    tag_63:\n      tag_64\n      jump\t// in\n    tag_62:\n      mload(0x40)\n      tag_65\n      swap2\n      swap1\n      tag_60\n      jump\t// in\n    tag_65:\n      mload(0x40)\n      dup1\n      swap2\n      sub\n      swap1\n      return\n        /* \"src/voting.sol\":3236:3409  function AllCandidates( string memory _name) public view returns(address[] memory _candidates){... */\n    tag_11:\n      callvalue\n      dup1\n      iszero\n      tag_66\n      jumpi\n      0x00\n      dup1\n      revert\n    tag_66:\n      pop\n      tag_67\n      0x04\n      dup1\n      calldatasize\n      sub\n      dup2\n      add\n      swap1\n      tag_68\n      swap2\n      swap1\n      tag_39\n      jump\t// in\n    tag_68:\n      tag_69\n      jump\t// in\n    tag_67:\n      mload(0x40)\n      tag_70\n      swap2\n      swap1\n      tag_71\n      jump\t// in\n    tag_70:\n      mload(0x40)\n      dup1\n      swap2\n      sub\n      swap1\n      return\n        /* \"src/voting.sol\":4226:4421  function getUint( string memory _name, uint i) external view returns(uint val, address cand){... */\n    tag_12:\n      callvalue\n      dup1\n      iszero\n      tag_72\n      jumpi\n      0x00\n      dup1\n      revert\n    tag_72:\n      pop\n      tag_73\n      0x04\n      dup1\n      calldatasize\n      sub\n      dup2\n      add\n      swap1\n      tag_74\n      swap2\n      swap1\n      tag_75\n      jump\t// in\n    tag_74:\n      tag_76\n      jump\t// in\n    tag_73:\n      mload(0x40)\n      tag_77\n      swap3\n      swap2\n      swap1\n      tag_78\n      jump\t// in\n    tag_77:\n      mload(0x40)\n      dup1\n      swap2\n      sub\n      swap1\n      return\n        /* \"src/voting.sol\":4021:4223  function setVotingState( string memory _name) external {... */\n    tag_13:\n      callvalue\n      dup1\n      iszero\n      tag_79\n      jumpi\n      0x00\n      dup1\n      revert\n    tag_79:\n      pop\n      tag_80\n      0x04\n      dup1\n      calldatasize\n      sub\n      dup2\n      add\n      swap1\n      tag_81\n      swap2\n      swap1\n      tag_39\n      jump\t// in\n    tag_81:\n      tag_82\n      jump\t// in\n    tag_80:\n      stop\n        /* \"src/voting.sol\":4428:4656  function metaVotingHash(address Cand, string memory _name, uint256 nonce, uint256 time) public view returns(bytes32){... */\n    tag_21:\n        /* \"src/voting.sol\":4536:4543  bytes32 */\n      0x00\n        /* \"src/voting.sol\":4592:4596  this */\n      address\n        /* \"src/voting.sol\":4625:4629  Cand */\n      dup6\n        /* \"src/voting.sol\":4631:4636  _name */\n      dup6\n        /* \"src/voting.sol\":4638:4643  nonce */\n      dup6\n        /* \"src/voting.sol\":4645:4649  time */\n      dup6\n        /* \"src/voting.sol\":4567:4650  abi.encodePacked(address(this),\"metatransaction Voting \", Cand, _name, nonce, time) */\n      add(0x20, mload(0x40))\n      tag_84\n      swap6\n      swap5\n      swap4\n      swap3\n      swap2\n      swap1\n      tag_85\n      jump\t// in\n    tag_84:\n      mload(0x40)\n      0x20\n      dup2\n      dup4\n      sub\n      sub\n      dup2\n      mstore\n      swap1\n      0x40\n      mstore\n        /* \"src/voting.sol\":4557:4651  keccak256(abi.encodePacked(address(this),\"metatransaction Voting \", Cand, _name, nonce, time)) */\n      dup1\n      mload\n      swap1\n      0x20\n      add\n      keccak256\n        /* \"src/voting.sol\":4550:4651  return keccak256(abi.encodePacked(address(this),\"metatransaction Voting \", Cand, _name, nonce, time)) */\n      swap1\n      pop\n        /* \"src/voting.sol\":4428:4656  function metaVotingHash(address Cand, string memory _name, uint256 nonce, uint256 time) public view returns(bytes32){... */\n      swap5\n      swap4\n      pop\n      pop\n      pop\n      pop\n      jump\t// out\n        /* \"src/voting.sol\":1432:1721  function createPoll(string memory _name, uint16 ExpectedNoOfCandidate) external returns(string memory, uint Candidate){... */\n    tag_28:\n        /* \"src/voting.sol\":1520:1533  string memory */\n      0x60\n        /* \"src/voting.sol\":1535:1549  uint Candidate */\n      0x00\n        /* \"src/voting.sol\":1556:1577  VotingPoll storage VP */\n      dup1\n        /* \"src/voting.sol\":1580:1590  votingPoll */\n      0x00\n        /* \"src/voting.sol\":1591:1596  _name */\n      dup6\n        /* \"src/voting.sol\":1580:1597  votingPoll[_name] */\n      mload(0x40)\n      tag_87\n      swap2\n      swap1\n      tag_88\n      jump\t// in\n    tag_87:\n      swap1\n      dup2\n      mstore\n      0x20\n      add\n      mload(0x40)\n      dup1\n      swap2\n      sub\n      swap1\n      keccak256\n        /* \"src/voting.sol\":1556:1597  VotingPoll storage VP = votingPoll[_name] */\n      swap1\n      pop\n        /* \"src/voting.sol\":1617:1627  msg.sender */\n      caller\n        /* \"src/voting.sol\":1603:1605  VP */\n      dup2\n        /* \"src/voting.sol\":1603:1614  VP.chairman */\n      0x00\n      add\n      0x00\n        /* \"src/voting.sol\":1603:1627  VP.chairman = msg.sender */\n      0x0100\n      exp\n      dup2\n      sload\n      dup2\n      0xffffffffffffffffffffffffffffffffffffffff\n      mul\n      not\n      and\n      swap1\n      dup4\n      0xffffffffffffffffffffffffffffffffffffffff\n      and\n      mul\n      or\n      swap1\n      sstore\n      pop\n        /* \"src/voting.sol\":1655:1676  ExpectedNoOfCandidate */\n      dup4\n        /* \"src/voting.sol\":1633:1676  VP.maxNoOfCandidates =ExpectedNoOfCandidate */\n      0xffff\n      and\n        /* \"src/voting.sol\":1633:1635  VP */\n      dup2\n        /* \"src/voting.sol\":1633:1653  VP.maxNoOfCandidates */\n      0x02\n      add\n      0x00\n        /* \"src/voting.sol\":1633:1676  VP.maxNoOfCandidates =ExpectedNoOfCandidate */\n      0x0100\n      exp\n      dup2\n      sload\n      dup2\n      0xffffffff\n      mul\n      not\n      and\n      swap1\n      dup4\n      0xffffffff\n      and\n      mul\n      or\n      swap1\n      sstore\n      pop\n        /* \"src/voting.sol\":1689:1694  _name */\n      dup5\n        /* \"src/voting.sol\":1696:1717  ExpectedNoOfCandidate */\n      dup5\n        /* \"src/voting.sol\":1682:1718  return(_name, ExpectedNoOfCandidate) */\n      dup1\n      0xffff\n      and\n      swap1\n      pop\n      swap3\n      pop\n      swap3\n      pop\n      pop\n        /* \"src/voting.sol\":1432:1721  function createPoll(string memory _name, uint16 ExpectedNoOfCandidate) external returns(string memory, uint Candidate){... */\n      swap3\n      pop\n      swap3\n      swap1\n      pop\n      jump\t// out\n        /* \"src/voting.sol\":2240:2806  function vote(address Cand, string memory _name , uint256 nonce, bytes memory signature) external  isCandidate(Cand, _name) StillVoting(_name){... */\n    tag_35:\n        /* \"src/voting.sol\":2351:2355  Cand */\n      dup4\n        /* \"src/voting.sol\":2357:2362  _name */\n      dup4\n        /* \"src/voting.sol\":1000:1021  VotingPoll storage VP */\n      0x00\n        /* \"src/voting.sol\":1024:1034  votingPoll */\n      dup1\n        /* \"src/voting.sol\":1035:1040  _name */\n      dup3\n        /* \"src/voting.sol\":1024:1041  votingPoll[_name] */\n      mload(0x40)\n      tag_90\n      swap2\n      swap1\n      tag_88\n      jump\t// in\n    tag_90:\n      swap1\n      dup2\n      mstore\n      0x20\n      add\n      mload(0x40)\n      dup1\n      swap2\n      sub\n      swap1\n      keccak256\n        /* \"src/voting.sol\":1000:1041  VotingPoll storage VP = votingPoll[_name] */\n      swap1\n      pop\n        /* \"src/voting.sol\":1081:1085  true */\n      0x01\n        /* \"src/voting.sol\":1055:1085  VP.CandidateStatus[Cand]==true */\n      iszero\n      iszero\n        /* \"src/voting.sol\":1055:1057  VP */\n      dup2\n        /* \"src/voting.sol\":1055:1073  VP.CandidateStatus */\n      0x03\n      add\n        /* \"src/voting.sol\":1055:1079  VP.CandidateStatus[Cand] */\n      0x00\n        /* \"src/voting.sol\":1074:1078  Cand */\n      dup6\n        /* \"src/voting.sol\":1055:1079  VP.CandidateStatus[Cand] */\n      0xffffffffffffffffffffffffffffffffffffffff\n      and\n      0xffffffffffffffffffffffffffffffffffffffff\n      and\n      dup2\n      mstore\n      0x20\n      add\n      swap1\n      dup2\n      mstore\n      0x20\n      add\n      0x00\n      keccak256\n      0x00\n      swap1\n      sload\n      swap1\n      0x0100\n      exp\n      swap1\n      div\n      0xff\n      and\n        /* \"src/voting.sol\":1055:1085  VP.CandidateStatus[Cand]==true */\n      iszero\n      iszero\n      eq\n        /* \"src/voting.sol\":1047:1131  require(VP.CandidateStatus[Cand]==true,'This address does not exist as a candidate') */\n      tag_91\n      jumpi\n      mload(0x40)\n      0x08c379a000000000000000000000000000000000000000000000000000000000\n      dup2\n      mstore\n      0x04\n      add\n      tag_92\n      swap1\n      tag_93\n      jump\t// in\n    tag_92:\n      mload(0x40)\n      dup1\n      swap2\n      sub\n      swap1\n      revert\n    tag_91:\n        /* \"src/voting.sol\":2376:2381  _name */\n      dup6\n        /* \"src/voting.sol\":1192:1213  VotingPoll storage VP */\n      0x00\n        /* \"src/voting.sol\":1216:1226  votingPoll */\n      dup1\n        /* \"src/voting.sol\":1227:1232  _name */\n      dup3\n        /* \"src/voting.sol\":1216:1233  votingPoll[_name] */\n      mload(0x40)\n      tag_95\n      swap2\n      swap1\n      tag_88\n      jump\t// in\n    tag_95:\n      swap1\n      dup2\n      mstore\n      0x20\n      add\n      mload(0x40)\n      dup1\n      swap2\n      sub\n      swap1\n      keccak256\n        /* \"src/voting.sol\":1192:1233  VotingPoll storage VP = votingPoll[_name] */\n      swap1\n      pop\n        /* \"src/voting.sol\":1260:1264  true */\n      0x01\n        /* \"src/voting.sol\":1247:1264  VP.voting == true */\n      iszero\n      iszero\n        /* \"src/voting.sol\":1247:1249  VP */\n      dup2\n        /* \"src/voting.sol\":1247:1256  VP.voting */\n      0x02\n      add\n      0x06\n      swap1\n      sload\n      swap1\n      0x0100\n      exp\n      swap1\n      div\n      0xff\n      and\n        /* \"src/voting.sol\":1247:1264  VP.voting == true */\n      iszero\n      iszero\n      eq\n        /* \"src/voting.sol\":1239:1285  require(VP.voting == true, \"voting has ended\") */\n      tag_96\n      jumpi\n      mload(0x40)\n      0x08c379a000000000000000000000000000000000000000000000000000000000\n      dup2\n      mstore\n      0x04\n      add\n      tag_97\n      swap1\n      tag_98\n      jump\t// in\n    tag_97:\n      mload(0x40)\n      dup1\n      swap2\n      sub\n      swap1\n      revert\n    tag_96:\n        /* \"src/voting.sol\":2389:2405  bytes32 metaHash */\n      0x00\n        /* \"src/voting.sol\":2408:2456  metaVotingHash(Cand,_name,nonce,block.timestamp) */\n      tag_100\n        /* \"src/voting.sol\":2423:2427  Cand */\n      dup11\n        /* \"src/voting.sol\":2428:2433  _name */\n      dup11\n        /* \"src/voting.sol\":2434:2439  nonce */\n      dup11\n        /* \"src/voting.sol\":2440:2455  block.timestamp */\n      timestamp\n        /* \"src/voting.sol\":2408:2422  metaVotingHash */\n      tag_21\n        /* \"src/voting.sol\":2408:2456  metaVotingHash(Cand,_name,nonce,block.timestamp) */\n      jump\t// in\n    tag_100:\n        /* \"src/voting.sol\":2389:2456  bytes32 metaHash = metaVotingHash(Cand,_name,nonce,block.timestamp) */\n      swap1\n      pop\n        /* \"src/voting.sol\":2463:2477  address signer */\n      0x00\n        /* \"src/voting.sol\":2480:2509  getSigner(metaHash,signature) */\n      tag_101\n        /* \"src/voting.sol\":2490:2498  metaHash */\n      dup3\n        /* \"src/voting.sol\":2499:2508  signature */\n      dup10\n        /* \"src/voting.sol\":2480:2489  getSigner */\n      tag_102\n        /* \"src/voting.sol\":2480:2509  getSigner(metaHash,signature) */\n      jump\t// in\n    tag_101:\n        /* \"src/voting.sol\":2463:2509  address signer = getSigner(metaHash,signature) */\n      swap1\n      pop\n        /* \"src/voting.sol\":2540:2541  0 */\n      0x00\n        /* \"src/voting.sol\":2524:2542  signer!=address(0) */\n      0xffffffffffffffffffffffffffffffffffffffff\n      and\n        /* \"src/voting.sol\":2524:2530  signer */\n      dup2\n        /* \"src/voting.sol\":2524:2542  signer!=address(0) */\n      0xffffffffffffffffffffffffffffffffffffffff\n      and\n      eq\n      iszero\n        /* \"src/voting.sol\":2516:2543  require(signer!=address(0)) */\n      tag_103\n      jumpi\n      0x00\n      dup1\n      revert\n    tag_103:\n        /* \"src/voting.sol\":2566:2577  replayNonce */\n      0x01\n        /* \"src/voting.sol\":2566:2585  replayNonce[signer] */\n      0x00\n        /* \"src/voting.sol\":2578:2584  signer */\n      dup3\n        /* \"src/voting.sol\":2566:2585  replayNonce[signer] */\n      0xffffffffffffffffffffffffffffffffffffffff\n      and\n      0xffffffffffffffffffffffffffffffffffffffff\n      and\n      dup2\n      mstore\n      0x20\n      add\n      swap1\n      dup2\n      mstore\n      0x20\n      add\n      0x00\n      keccak256\n      sload\n        /* \"src/voting.sol\":2557:2562  nonce */\n      dup10\n        /* \"src/voting.sol\":2557:2585  nonce == replayNonce[signer] */\n      eq\n        /* \"src/voting.sol\":2549:2586  require(nonce == replayNonce[signer]) */\n      tag_104\n      jumpi\n      0x00\n      dup1\n      revert\n    tag_104:\n        /* \"src/voting.sol\":2592:2603  replayNonce */\n      0x01\n        /* \"src/voting.sol\":2592:2611  replayNonce[signer] */\n      0x00\n        /* \"src/voting.sol\":2604:2610  signer */\n      dup3\n        /* \"src/voting.sol\":2592:2611  replayNonce[signer] */\n      0xffffffffffffffffffffffffffffffffffffffff\n      and\n      0xffffffffffffffffffffffffffffffffffffffff\n      and\n      dup2\n      mstore\n      0x20\n      add\n      swap1\n      dup2\n      mstore\n      0x20\n      add\n      0x00\n      keccak256\n      0x00\n        /* \"src/voting.sol\":2592:2613  replayNonce[signer]++ */\n      dup2\n      sload\n      dup1\n      swap3\n      swap2\n      swap1\n      tag_105\n      swap1\n      tag_106\n      jump\t// in\n    tag_105:\n      swap2\n      swap1\n      pop\n      sstore\n      pop\n        /* \"src/voting.sol\":2620:2641  VotingPoll storage VP */\n      0x00\n        /* \"src/voting.sol\":2644:2654  votingPoll */\n      dup1\n        /* \"src/voting.sol\":2655:2660  _name */\n      dup12\n        /* \"src/voting.sol\":2644:2661  votingPoll[_name] */\n      mload(0x40)\n      tag_107\n      swap2\n      swap1\n      tag_88\n      jump\t// in\n    tag_107:\n      swap1\n      dup2\n      mstore\n      0x20\n      add\n      mload(0x40)\n      dup1\n      swap2\n      sub\n      swap1\n      keccak256\n        /* \"src/voting.sol\":2620:2661  VotingPoll storage VP = votingPoll[_name] */\n      swap1\n      pop\n        /* \"src/voting.sol\":2703:2708  false */\n      0x00\n        /* \"src/voting.sol\":2676:2708  VP.hasVoted[msg.sender] == false */\n      iszero\n      iszero\n        /* \"src/voting.sol\":2676:2678  VP */\n      dup2\n        /* \"src/voting.sol\":2676:2687  VP.hasVoted */\n      0x04\n      add\n        /* \"src/voting.sol\":2676:2699  VP.hasVoted[msg.sender] */\n      0x00\n        /* \"src/voting.sol\":2688:2698  msg.sender */\n      caller\n        /* \"src/voting.sol\":2676:2699  VP.hasVoted[msg.sender] */\n      0xffffffffffffffffffffffffffffffffffffffff\n      and\n      0xffffffffffffffffffffffffffffffffffffffff\n      and\n      dup2\n      mstore\n      0x20\n      add\n      swap1\n      dup2\n      mstore\n      0x20\n      add\n      0x00\n      keccak256\n      0x00\n      swap1\n      sload\n      swap1\n      0x0100\n      exp\n      swap1\n      div\n      0xff\n      and\n        /* \"src/voting.sol\":2676:2708  VP.hasVoted[msg.sender] == false */\n      iszero\n      iszero\n      eq\n        /* \"src/voting.sol\":2668:2730  require(VP.hasVoted[msg.sender] == false, \"You already voted\") */\n      tag_108\n      jumpi\n      mload(0x40)\n      0x08c379a000000000000000000000000000000000000000000000000000000000\n      dup2\n      mstore\n      0x04\n      add\n      tag_109\n      swap1\n      tag_110\n      jump\t// in\n    tag_109:\n      mload(0x40)\n      dup1\n      swap2\n      sub\n      swap1\n      revert\n    tag_108:\n        /* \"src/voting.sol\":2738:2772  countVote(Cand, _name, msg.sender) */\n      tag_111\n        /* \"src/voting.sol\":2748:2752  Cand */\n      dup13\n        /* \"src/voting.sol\":2754:2759  _name */\n      dup13\n        /* \"src/voting.sol\":2761:2771  msg.sender */\n      caller\n        /* \"src/voting.sol\":2738:2747  countVote */\n      tag_112\n        /* \"src/voting.sol\":2738:2772  countVote(Cand, _name, msg.sender) */\n      jump\t// in\n    tag_111:\n      pop\n        /* \"src/voting.sol\":2784:2801  voted(Cand, true) */\n      0xf3f16a15f074b71c5138107dfc7c63b80524d5411cb967caa97d8d9f12b2fd6b\n        /* \"src/voting.sol\":2790:2794  Cand */\n      dup13\n        /* \"src/voting.sol\":2796:2800  true */\n      0x01\n        /* \"src/voting.sol\":2784:2801  voted(Cand, true) */\n      mload(0x40)\n      tag_113\n      swap3\n      swap2\n      swap1\n      tag_114\n      jump\t// in\n    tag_113:\n      mload(0x40)\n      dup1\n      swap2\n      sub\n      swap1\n      log1\n        /* \"src/voting.sol\":2382:2806  {... */\n      pop\n      pop\n      pop\n        /* \"src/voting.sol\":1186:1296  {... */\n      pop\n        /* \"src/voting.sol\":1137:1138  _ */\n      pop\n        /* \"src/voting.sol\":994:1141  {... */\n      pop\n        /* \"src/voting.sol\":2240:2806  function vote(address Cand, string memory _name , uint256 nonce, bytes memory signature) external  isCandidate(Cand, _name) StillVoting(_name){... */\n      pop\n      pop\n      pop\n      pop\n      pop\n      pop\n      jump\t// out\n        /* \"src/voting.sol\":3412:4018  function revealWinner( string memory _name) external view returns ( uint[] memory CV, address, uint){... */\n    tag_40:\n        /* \"src/voting.sol\":3480:3496  uint[] memory CV */\n      0x60\n        /* \"src/voting.sol\":3498:3505  address */\n      0x00\n        /* \"src/voting.sol\":3507:3511  uint */\n      dup1\n        /* \"src/voting.sol\":3519:3540  VotingPoll storage VP */\n      0x00\n        /* \"src/voting.sol\":3543:3553  votingPoll */\n      dup1\n        /* \"src/voting.sol\":3554:3559  _name */\n      dup6\n        /* \"src/voting.sol\":3543:3560  votingPoll[_name] */\n      mload(0x40)\n      tag_116\n      swap2\n      swap1\n      tag_88\n      jump\t// in\n    tag_116:\n      swap1\n      dup2\n      mstore\n      0x20\n      add\n      mload(0x40)\n      dup1\n      swap2\n      sub\n      swap1\n      keccak256\n        /* \"src/voting.sol\":3519:3560  VotingPoll storage VP = votingPoll[_name] */\n      swap1\n      pop\n        /* \"src/voting.sol\":3598:3599  0 */\n      0x00\n        /* \"src/voting.sol\":3575:3600  VP.chairman != address(0) */\n      0xffffffffffffffffffffffffffffffffffffffff\n      and\n        /* \"src/voting.sol\":3575:3577  VP */\n      dup2\n        /* \"src/voting.sol\":3575:3586  VP.chairman */\n      0x00\n      add\n      0x00\n      swap1\n      sload\n      swap1\n      0x0100\n      exp\n      swap1\n      div\n      0xffffffffffffffffffffffffffffffffffffffff\n      and\n        /* \"src/voting.sol\":3575:3600  VP.chairman != address(0) */\n      0xffffffffffffffffffffffffffffffffffffffff\n      and\n      eq\n      iszero\n        /* \"src/voting.sol\":3567:3620  require(VP.chairman != address(0), \"No poll created\") */\n      tag_117\n      jumpi\n      mload(0x40)\n      0x08c379a000000000000000000000000000000000000000000000000000000000\n      dup2\n      mstore\n      0x04\n      add\n      tag_118\n      swap1\n      tag_119\n      jump\t// in\n    tag_118:\n      mload(0x40)\n      dup1\n      swap2\n      sub\n      swap1\n      revert\n    tag_117:\n        /* \"src/voting.sol\":3643:3645  VP */\n      dup1\n        /* \"src/voting.sol\":3643:3656  VP.candidates */\n      0x01\n      add\n        /* \"src/voting.sol\":3643:3663  VP.candidates.length */\n      dup1\n      sload\n      swap1\n      pop\n        /* \"src/voting.sol\":3632:3664  new uint[](VP.candidates.length) */\n      0xffffffffffffffff\n      dup2\n      gt\n      iszero\n      tag_120\n      jumpi\n      tag_121\n      tag_122\n      jump\t// in\n    tag_121:\n    tag_120:\n      mload(0x40)\n      swap1\n      dup1\n      dup3\n      mstore\n      dup1\n      0x20\n      mul\n      0x20\n      add\n      dup3\n      add\n      0x40\n      mstore\n      dup1\n      iszero\n      tag_123\n      jumpi\n      dup2\n      0x20\n      add\n      0x20\n      dup3\n      mul\n      dup1\n      calldatasize\n      dup4\n      calldatacopy\n      dup1\n      dup3\n      add\n      swap2\n      pop\n      pop\n      swap1\n      pop\n    tag_123:\n      pop\n        /* \"src/voting.sol\":3627:3664  CV = new uint[](VP.candidates.length) */\n      swap4\n      pop\n        /* \"src/voting.sol\":3671:3687  uint highestVote */\n      0x00\n        /* \"src/voting.sol\":3694:3708  address winner */\n      dup1\n        /* \"src/voting.sol\":3720:3726  uint i */\n      0x00\n        /* \"src/voting.sol\":3715:3976  for (uint i =0; i <= VP.candidates.length; i++){... */\n    tag_124:\n        /* \"src/voting.sol\":3736:3738  VP */\n      dup4\n        /* \"src/voting.sol\":3736:3749  VP.candidates */\n      0x01\n      add\n        /* \"src/voting.sol\":3736:3756  VP.candidates.length */\n      dup1\n      sload\n      swap1\n      pop\n        /* \"src/voting.sol\":3731:3732  i */\n      dup2\n        /* \"src/voting.sol\":3731:3756  i <= VP.candidates.length */\n      gt\n        /* \"src/voting.sol\":3715:3976  for (uint i =0; i <= VP.candidates.length; i++){... */\n      tag_125\n      jumpi\n        /* \"src/voting.sol\":3771:3779  uint val */\n      0x00\n        /* \"src/voting.sol\":3782:3784  VP */\n      dup5\n        /* \"src/voting.sol\":3782:3798  VP.CandidateVote */\n      0x05\n      add\n        /* \"src/voting.sol\":3782:3816  VP.CandidateVote[VP.candidates[i]] */\n      0x00\n        /* \"src/voting.sol\":3799:3801  VP */\n      dup7\n        /* \"src/voting.sol\":3799:3812  VP.candidates */\n      0x01\n      add\n        /* \"src/voting.sol\":3813:3814  i */\n      dup5\n        /* \"src/voting.sol\":3799:3815  VP.candidates[i] */\n      dup2\n      sload\n      dup2\n      lt\n      tag_127\n      jumpi\n      tag_128\n      tag_129\n      jump\t// in\n    tag_128:\n    tag_127:\n      swap1\n      0x00\n      mstore\n      keccak256(0x00, 0x20)\n      add\n      0x00\n      swap1\n      sload\n      swap1\n      0x0100\n      exp\n      swap1\n      div\n      0xffffffffffffffffffffffffffffffffffffffff\n      and\n        /* \"src/voting.sol\":3782:3816  VP.CandidateVote[VP.candidates[i]] */\n      0xffffffffffffffffffffffffffffffffffffffff\n      and\n      0xffffffffffffffffffffffffffffffffffffffff\n      and\n      dup2\n      mstore\n      0x20\n      add\n      swap1\n      dup2\n      mstore\n      0x20\n      add\n      0x00\n      keccak256\n      sload\n        /* \"src/voting.sol\":3771:3816  uint val = VP.CandidateVote[VP.candidates[i]] */\n      swap1\n      pop\n        /* \"src/voting.sol\":3832:3843  highestVote */\n      dup4\n        /* \"src/voting.sol\":3826:3829  val */\n      dup2\n        /* \"src/voting.sol\":3826:3843  val > highestVote */\n      gt\n        /* \"src/voting.sol\":3823:3917  if(val > highestVote){... */\n      iszero\n      tag_131\n      jumpi\n        /* \"src/voting.sol\":3869:3872  val */\n      dup1\n        /* \"src/voting.sol\":3855:3872  highestVote = val */\n      swap4\n      pop\n        /* \"src/voting.sol\":3893:3895  VP */\n      dup5\n        /* \"src/voting.sol\":3893:3906  VP.candidates */\n      0x01\n      add\n        /* \"src/voting.sol\":3907:3908  i */\n      dup3\n        /* \"src/voting.sol\":3893:3909  VP.candidates[i] */\n      dup2\n      sload\n      dup2\n      lt\n      tag_132\n      jumpi\n      tag_133\n      tag_129\n      jump\t// in\n    tag_133:\n    tag_132:\n      swap1\n      0x00\n      mstore\n      keccak256(0x00, 0x20)\n      add\n      0x00\n      swap1\n      sload\n      swap1\n      0x0100\n      exp\n      swap1\n      div\n      0xffffffffffffffffffffffffffffffffffffffff\n      and\n        /* \"src/voting.sol\":3884:3909  winner = VP.candidates[i] */\n      swap3\n      pop\n        /* \"src/voting.sol\":3823:3917  if(val > highestVote){... */\n    tag_131:\n        /* \"src/voting.sol\":3932:3934  VP */\n      dup5\n        /* \"src/voting.sol\":3932:3948  VP.CandidateVote */\n      0x05\n      add\n        /* \"src/voting.sol\":3932:3966  VP.CandidateVote[VP.candidates[i]] */\n      0x00\n        /* \"src/voting.sol\":3949:3951  VP */\n      dup7\n        /* \"src/voting.sol\":3949:3962  VP.candidates */\n      0x01\n      add\n        /* \"src/voting.sol\":3963:3964  i */\n      dup5\n        /* \"src/voting.sol\":3949:3965  VP.candidates[i] */\n      dup2\n      sload\n      dup2\n      lt\n      tag_135\n      jumpi\n      tag_136\n      tag_129\n      jump\t// in\n    tag_136:\n    tag_135:\n      swap1\n      0x00\n      mstore\n      keccak256(0x00, 0x20)\n      add\n      0x00\n      swap1\n      sload\n      swap1\n      0x0100\n      exp\n      swap1\n      div\n      0xffffffffffffffffffffffffffffffffffffffff\n      and\n        /* \"src/voting.sol\":3932:3966  VP.CandidateVote[VP.candidates[i]] */\n      0xffffffffffffffffffffffffffffffffffffffff\n      and\n      0xffffffffffffffffffffffffffffffffffffffff\n      and\n      dup2\n      mstore\n      0x20\n      add\n      swap1\n      dup2\n      mstore\n      0x20\n      add\n      0x00\n      keccak256\n      sload\n        /* \"src/voting.sol\":3923:3925  CV */\n      dup9\n        /* \"src/voting.sol\":3926:3927  i */\n      dup4\n        /* \"src/voting.sol\":3923:3928  CV[i] */\n      dup2\n      mload\n      dup2\n      lt\n      tag_138\n      jumpi\n      tag_139\n      tag_129\n      jump\t// in\n    tag_139:\n    tag_138:\n      0x20\n      mul\n      0x20\n      add\n      add\n        /* \"src/voting.sol\":3923:3967  CV[i] = (VP.CandidateVote[VP.candidates[i]]) */\n      dup2\n      dup2\n      mstore\n      pop\n      pop\n        /* \"src/voting.sol\":3762:3976  {... */\n      pop\n        /* \"src/voting.sol\":3758:3761  i++ */\n      dup1\n      dup1\n      tag_140\n      swap1\n      tag_106\n      jump\t// in\n    tag_140:\n      swap2\n      pop\n      pop\n        /* \"src/voting.sol\":3715:3976  for (uint i =0; i <= VP.candidates.length; i++){... */\n      jump(tag_124)\n    tag_125:\n      pop\n        /* \"src/voting.sol\":3990:3992  CV */\n      dup6\n        /* \"src/voting.sol\":3994:4000  winner */\n      dup2\n        /* \"src/voting.sol\":4002:4013  highestVote */\n      dup4\n        /* \"src/voting.sol\":3982:4014  return (CV, winner, highestVote) */\n      swap6\n      pop\n      swap6\n      pop\n      swap6\n      pop\n      pop\n      pop\n      pop\n        /* \"src/voting.sol\":3412:4018  function revealWinner( string memory _name) external view returns ( uint[] memory CV, address, uint){... */\n      swap2\n      swap4\n      swap1\n      swap3\n      pop\n      jump\t// out\n        /* \"src/voting.sol\":1725:2237  function AddCandidate(address _newCandidate, string memory _name) external{... */\n    tag_47:\n        /* \"src/voting.sol\":1806:1827  VotingPoll storage VP */\n      0x00\n        /* \"src/voting.sol\":1830:1840  votingPoll */\n      dup1\n        /* \"src/voting.sol\":1841:1846  _name */\n      dup3\n        /* \"src/voting.sol\":1830:1847  votingPoll[_name] */\n      mload(0x40)\n      tag_142\n      swap2\n      swap1\n      tag_88\n      jump\t// in\n    tag_142:\n      swap1\n      dup2\n      mstore\n      0x20\n      add\n      mload(0x40)\n      dup1\n      swap2\n      sub\n      swap1\n      keccak256\n        /* \"src/voting.sol\":1806:1847  VotingPoll storage VP = votingPoll[_name] */\n      swap1\n      pop\n        /* \"src/voting.sol\":1886:1887  0 */\n      0x00\n        /* \"src/voting.sol\":1863:1888  VP.chairman != address(0) */\n      0xffffffffffffffffffffffffffffffffffffffff\n      and\n        /* \"src/voting.sol\":1863:1865  VP */\n      dup2\n        /* \"src/voting.sol\":1863:1874  VP.chairman */\n      0x00\n      add\n      0x00\n      swap1\n      sload\n      swap1\n      0x0100\n      exp\n      swap1\n      div\n      0xffffffffffffffffffffffffffffffffffffffff\n      and\n        /* \"src/voting.sol\":1863:1888  VP.chairman != address(0) */\n      0xffffffffffffffffffffffffffffffffffffffff\n      and\n      eq\n      iszero\n        /* \"src/voting.sol\":1854:1914  require (VP.chairman != address(0) , \"yet to create a poll\") */\n      tag_143\n      jumpi\n      mload(0x40)\n      0x08c379a000000000000000000000000000000000000000000000000000000000\n      dup2\n      mstore\n      0x04\n      add\n      tag_144\n      swap1\n      tag_145\n      jump\t// in\n    tag_144:\n      mload(0x40)\n      dup1\n      swap2\n      sub\n      swap1\n      revert\n    tag_143:\n        /* \"src/voting.sol\":1945:1955  msg.sender */\n      caller\n        /* \"src/voting.sol\":1930:1955  VP.chairman == msg.sender */\n      0xffffffffffffffffffffffffffffffffffffffff\n      and\n        /* \"src/voting.sol\":1930:1932  VP */\n      dup2\n        /* \"src/voting.sol\":1930:1941  VP.chairman */\n      0x00\n      add\n      0x00\n      swap1\n      sload\n      swap1\n      0x0100\n      exp\n      swap1\n      div\n      0xffffffffffffffffffffffffffffffffffffffff\n      and\n        /* \"src/voting.sol\":1930:1955  VP.chairman == msg.sender */\n      0xffffffffffffffffffffffffffffffffffffffff\n      and\n      eq\n        /* \"src/voting.sol\":1923:1956  assert(VP.chairman == msg.sender) */\n      tag_146\n      jumpi\n      tag_147\n      tag_148\n      jump\t// in\n    tag_147:\n    tag_146:\n        /* \"src/voting.sol\":1998:2000  VP */\n      dup1\n        /* \"src/voting.sol\":1998:2018  VP.maxNoOfCandidates */\n      0x02\n      add\n      0x00\n      swap1\n      sload\n      swap1\n      0x0100\n      exp\n      swap1\n      div\n      0xffffffff\n      and\n        /* \"src/voting.sol\":1971:2018  VP.currentNoOfCandidates < VP.maxNoOfCandidates */\n      0xffffffff\n      and\n        /* \"src/voting.sol\":1971:1973  VP */\n      dup2\n        /* \"src/voting.sol\":1971:1995  VP.currentNoOfCandidates */\n      0x02\n      add\n      0x04\n      swap1\n      sload\n      swap1\n      0x0100\n      exp\n      swap1\n      div\n      0xffff\n      and\n        /* \"src/voting.sol\":1971:2018  VP.currentNoOfCandidates < VP.maxNoOfCandidates */\n      0xffff\n      and\n      lt\n        /* \"src/voting.sol\":1963:2069  require(VP.currentNoOfCandidates < VP.maxNoOfCandidates, \"maximum no of candidate per session registered\") */\n      tag_149\n      jumpi\n      mload(0x40)\n      0x08c379a000000000000000000000000000000000000000000000000000000000\n      dup2\n      mstore\n      0x04\n      add\n      tag_150\n      swap1\n      tag_151\n      jump\t// in\n    tag_150:\n      mload(0x40)\n      dup1\n      swap2\n      sub\n      swap1\n      revert\n    tag_149:\n        /* \"src/voting.sol\":2112:2116  true */\n      0x01\n        /* \"src/voting.sol\":2076:2078  VP */\n      dup2\n        /* \"src/voting.sol\":2076:2094  VP.CandidateStatus */\n      0x03\n      add\n        /* \"src/voting.sol\":2076:2109  VP.CandidateStatus[_newCandidate] */\n      0x00\n        /* \"src/voting.sol\":2095:2108  _newCandidate */\n      dup6\n        /* \"src/voting.sol\":2076:2109  VP.CandidateStatus[_newCandidate] */\n      0xffffffffffffffffffffffffffffffffffffffff\n      and\n      0xffffffffffffffffffffffffffffffffffffffff\n      and\n      dup2\n      mstore\n      0x20\n      add\n      swap1\n      dup2\n      mstore\n      0x20\n      add\n      0x00\n      keccak256\n      0x00\n        /* \"src/voting.sol\":2076:2116  VP.CandidateStatus[_newCandidate] = true */\n      0x0100\n      exp\n      dup2\n      sload\n      dup2\n      0xff\n      mul\n      not\n      and\n      swap1\n      dup4\n      iszero\n      iszero\n      mul\n      or\n      swap1\n      sstore\n      pop\n        /* \"src/voting.sol\":2124:2126  VP */\n      dup1\n        /* \"src/voting.sol\":2124:2137  VP.candidates */\n      0x01\n      add\n        /* \"src/voting.sol\":2143:2156  _newCandidate */\n      dup4\n        /* \"src/voting.sol\":2124:2157  VP.candidates.push(_newCandidate) */\n      swap1\n      dup1\n      0x01\n      dup2\n      sload\n      add\n      dup1\n      dup3\n      sstore\n      dup1\n      swap2\n      pop\n      pop\n      0x01\n      swap1\n      sub\n      swap1\n      0x00\n      mstore\n      keccak256(0x00, 0x20)\n      add\n      0x00\n      swap1\n      swap2\n      swap1\n      swap2\n      swap1\n      swap2\n      0x0100\n      exp\n      dup2\n      sload\n      dup2\n      0xffffffffffffffffffffffffffffffffffffffff\n      mul\n      not\n      and\n      swap1\n      dup4\n      0xffffffffffffffffffffffffffffffffffffffff\n      and\n      mul\n      or\n      swap1\n      sstore\n      pop\n        /* \"src/voting.sol\":2165:2167  VP */\n      dup1\n        /* \"src/voting.sol\":2165:2189  VP.currentNoOfCandidates */\n      0x02\n      add\n      0x04\n        /* \"src/voting.sol\":2165:2191  VP.currentNoOfCandidates++ */\n      dup2\n      dup2\n      swap1\n      sload\n      swap1\n      0x0100\n      exp\n      swap1\n      div\n      0xffff\n      and\n      dup1\n      swap3\n      swap2\n      swap1\n      tag_153\n      swap1\n      tag_154\n      jump\t// in\n    tag_153:\n      swap2\n      swap1\n      0x0100\n      exp\n      dup2\n      sload\n      dup2\n      0xffff\n      mul\n      not\n      and\n      swap1\n      dup4\n      0xffff\n      and\n      mul\n      or\n      swap1\n      sstore\n      pop\n      pop\n        /* \"src/voting.sol\":2203:2233  becameCandidate(_newCandidate) */\n      0xc19c59aa93348e8fc54764bc642eca975e2639f44cc683ef8f027e1529cbda32\n        /* \"src/voting.sol\":2219:2232  _newCandidate */\n      dup4\n        /* \"src/voting.sol\":2203:2233  becameCandidate(_newCandidate) */\n      mload(0x40)\n      tag_155\n      swap2\n      swap1\n      tag_156\n      jump\t// in\n    tag_155:\n      mload(0x40)\n      dup1\n      swap2\n      sub\n      swap1\n      log1\n        /* \"src/voting.sol\":1799:2237  {... */\n      pop\n        /* \"src/voting.sol\":1725:2237  function AddCandidate(address _newCandidate, string memory _name) external{... */\n      pop\n      pop\n      jump\t// out\n        /* \"src/voting.sol\":620:667  mapping(string => VotingPoll) public votingPoll */\n    tag_51:\n      0x00\n      dup2\n      dup1\n      mload\n      0x20\n      dup2\n      add\n      dup3\n      add\n      dup1\n      mload\n      dup5\n      dup3\n      mstore\n      0x20\n      dup4\n      add\n      0x20\n      dup6\n      add\n      keccak256\n      dup2\n      dup4\n      mstore\n      dup1\n      swap6\n      pop\n      pop\n      pop\n      pop\n      pop\n      pop\n      0x00\n      swap2\n      pop\n      swap1\n      pop\n      dup1\n      0x00\n      add\n      0x00\n      swap1\n      sload\n      swap1\n      0x0100\n      exp\n      swap1\n      div\n      0xffffffffffffffffffffffffffffffffffffffff\n      and\n      swap1\n      dup1\n      0x02\n      add\n      0x00\n      swap1\n      sload\n      swap1\n      0x0100\n      exp\n      swap1\n      div\n      0xffffffff\n      and\n      swap1\n      dup1\n      0x02\n      add\n      0x04\n      swap1\n      sload\n      swap1\n      0x0100\n      exp\n      swap1\n      div\n      0xffff\n      and\n      swap1\n      dup1\n      0x02\n      add\n      0x06\n      swap1\n      sload\n      swap1\n      0x0100\n      exp\n      swap1\n      div\n      0xff\n      and\n      swap1\n      pop\n      dup5\n      jump\t// out\n        /* \"src/voting.sol\":673:720  mapping (address => uint256) public replayNonce */\n    tag_58:\n      mstore(0x20, 0x01)\n      dup1\n      0x00\n      mstore\n      keccak256(0x00, 0x40)\n      0x00\n      swap2\n      pop\n      swap1\n      pop\n      sload\n      dup2\n      jump\t// out\n        /* \"src/voting.sol\":3057:3228  function NoOfRegisteredCandidates( string memory _name) public view returns(uint){... */\n    tag_64:\n        /* \"src/voting.sol\":3133:3137  uint */\n      0x00\n        /* \"src/voting.sol\":3145:3166  VotingPoll storage VP */\n      dup1\n        /* \"src/voting.sol\":3169:3179  votingPoll */\n      0x00\n        /* \"src/voting.sol\":3180:3185  _name */\n      dup4\n        /* \"src/voting.sol\":3169:3186  votingPoll[_name] */\n      mload(0x40)\n      tag_158\n      swap2\n      swap1\n      tag_88\n      jump\t// in\n    tag_158:\n      swap1\n      dup2\n      mstore\n      0x20\n      add\n      mload(0x40)\n      dup1\n      swap2\n      sub\n      swap1\n      keccak256\n        /* \"src/voting.sol\":3145:3186  VotingPoll storage VP = votingPoll[_name] */\n      swap1\n      pop\n        /* \"src/voting.sol\":3200:3202  VP */\n      dup1\n        /* \"src/voting.sol\":3200:3224  VP.currentNoOfCandidates */\n      0x02\n      add\n      0x04\n      swap1\n      sload\n      swap1\n      0x0100\n      exp\n      swap1\n      div\n      0xffff\n      and\n        /* \"src/voting.sol\":3193:3224  return VP.currentNoOfCandidates */\n      0xffff\n      and\n      swap2\n      pop\n      pop\n        /* \"src/voting.sol\":3057:3228  function NoOfRegisteredCandidates( string memory _name) public view returns(uint){... */\n      swap2\n      swap1\n      pop\n      jump\t// out\n        /* \"src/voting.sol\":3236:3409  function AllCandidates( string memory _name) public view returns(address[] memory _candidates){... */\n    tag_69:\n        /* \"src/voting.sol\":3301:3329  address[] memory _candidates */\n      0x60\n        /* \"src/voting.sol\":3337:3358  VotingPoll storage VP */\n      0x00\n        /* \"src/voting.sol\":3361:3371  votingPoll */\n      dup1\n        /* \"src/voting.sol\":3372:3377  _name */\n      dup4\n        /* \"src/voting.sol\":3361:3378  votingPoll[_name] */\n      mload(0x40)\n      tag_160\n      swap2\n      swap1\n      tag_88\n      jump\t// in\n    tag_160:\n      swap1\n      dup2\n      mstore\n      0x20\n      add\n      mload(0x40)\n      dup1\n      swap2\n      sub\n      swap1\n      keccak256\n        /* \"src/voting.sol\":3337:3378  VotingPoll storage VP = votingPoll[_name] */\n      swap1\n      pop\n        /* \"src/voting.sol\":3392:3394  VP */\n      dup1\n        /* \"src/voting.sol\":3392:3405  VP.candidates */\n      0x01\n      add\n        /* \"src/voting.sol\":3385:3405  return VP.candidates */\n      dup1\n      sload\n      dup1\n      0x20\n      mul\n      0x20\n      add\n      mload(0x40)\n      swap1\n      dup2\n      add\n      0x40\n      mstore\n      dup1\n      swap3\n      swap2\n      swap1\n      dup2\n      dup2\n      mstore\n      0x20\n      add\n      dup3\n      dup1\n      sload\n      dup1\n      iszero\n      tag_161\n      jumpi\n      0x20\n      mul\n      dup3\n      add\n      swap2\n      swap1\n      0x00\n      mstore\n      keccak256(0x00, 0x20)\n      swap1\n    tag_162:\n      dup2\n      0x00\n      swap1\n      sload\n      swap1\n      0x0100\n      exp\n      swap1\n      div\n      0xffffffffffffffffffffffffffffffffffffffff\n      and\n      0xffffffffffffffffffffffffffffffffffffffff\n      and\n      dup2\n      mstore\n      0x20\n      add\n      swap1\n      0x01\n      add\n      swap1\n      dup1\n      dup4\n      gt\n      tag_162\n      jumpi\n    tag_161:\n      pop\n      pop\n      pop\n      pop\n      pop\n      swap2\n      pop\n      pop\n        /* \"src/voting.sol\":3236:3409  function AllCandidates( string memory _name) public view returns(address[] memory _candidates){... */\n      swap2\n      swap1\n      pop\n      jump\t// out\n        /* \"src/voting.sol\":4226:4421  function getUint( string memory _name, uint i) external view returns(uint val, address cand){... */\n    tag_76:\n        /* \"src/voting.sol\":4295:4303  uint val */\n      0x00\n        /* \"src/voting.sol\":4305:4317  address cand */\n      dup1\n        /* \"src/voting.sol\":4325:4346  VotingPoll storage VP */\n      0x00\n        /* \"src/voting.sol\":4349:4359  votingPoll */\n      dup1\n        /* \"src/voting.sol\":4360:4365  _name */\n      dup6\n        /* \"src/voting.sol\":4349:4366  votingPoll[_name] */\n      mload(0x40)\n      tag_164\n      swap2\n      swap1\n      tag_88\n      jump\t// in\n    tag_164:\n      swap1\n      dup2\n      mstore\n      0x20\n      add\n      mload(0x40)\n      dup1\n      swap2\n      sub\n      swap1\n      keccak256\n        /* \"src/voting.sol\":4325:4366  VotingPoll storage VP = votingPoll[_name] */\n      swap1\n      pop\n        /* \"src/voting.sol\":4381:4383  VP */\n      dup1\n        /* \"src/voting.sol\":4381:4397  VP.CandidateVote */\n      0x05\n      add\n        /* \"src/voting.sol\":4381:4415  VP.CandidateVote[VP.candidates[i]] */\n      0x00\n        /* \"src/voting.sol\":4398:4400  VP */\n      dup3\n        /* \"src/voting.sol\":4398:4411  VP.candidates */\n      0x01\n      add\n        /* \"src/voting.sol\":4412:4413  i */\n      dup7\n        /* \"src/voting.sol\":4398:4414  VP.candidates[i] */\n      dup2\n      sload\n      dup2\n      lt\n      tag_165\n      jumpi\n      tag_166\n      tag_129\n      jump\t// in\n    tag_166:\n    tag_165:\n      swap1\n      0x00\n      mstore\n      keccak256(0x00, 0x20)\n      add\n      0x00\n      swap1\n      sload\n      swap1\n      0x0100\n      exp\n      swap1\n      div\n      0xffffffffffffffffffffffffffffffffffffffff\n      and\n        /* \"src/voting.sol\":4381:4415  VP.CandidateVote[VP.candidates[i]] */\n      0xffffffffffffffffffffffffffffffffffffffff\n      and\n      0xffffffffffffffffffffffffffffffffffffffff\n      and\n      dup2\n      mstore\n      0x20\n      add\n      swap1\n      dup2\n      mstore\n      0x20\n      add\n      0x00\n      keccak256\n      sload\n        /* \"src/voting.sol\":4375:4415  val = VP.CandidateVote[VP.candidates[i]] */\n      swap3\n      pop\n        /* \"src/voting.sol\":4318:4421  {... */\n      pop\n        /* \"src/voting.sol\":4226:4421  function getUint( string memory _name, uint i) external view returns(uint val, address cand){... */\n      swap3\n      pop\n      swap3\n      swap1\n      pop\n      jump\t// out\n        /* \"src/voting.sol\":4021:4223  function setVotingState( string memory _name) external {... */\n    tag_82:\n        /* \"src/voting.sol\":4082:4103  VotingPoll storage VP */\n      0x00\n        /* \"src/voting.sol\":4106:4116  votingPoll */\n      dup1\n        /* \"src/voting.sol\":4117:4122  _name */\n      dup3\n        /* \"src/voting.sol\":4106:4123  votingPoll[_name] */\n      mload(0x40)\n      tag_169\n      swap2\n      swap1\n      tag_88\n      jump\t// in\n    tag_169:\n      swap1\n      dup2\n      mstore\n      0x20\n      add\n      mload(0x40)\n      dup1\n      swap2\n      sub\n      swap1\n      keccak256\n        /* \"src/voting.sol\":4082:4123  VotingPoll storage VP = votingPoll[_name] */\n      swap1\n      pop\n        /* \"src/voting.sol\":4152:4162  msg.sender */\n      caller\n        /* \"src/voting.sol\":4137:4162  VP.chairman == msg.sender */\n      0xffffffffffffffffffffffffffffffffffffffff\n      and\n        /* \"src/voting.sol\":4137:4139  VP */\n      dup2\n        /* \"src/voting.sol\":4137:4148  VP.chairman */\n      0x00\n      add\n      0x00\n      swap1\n      sload\n      swap1\n      0x0100\n      exp\n      swap1\n      div\n      0xffffffffffffffffffffffffffffffffffffffff\n      and\n        /* \"src/voting.sol\":4137:4162  VP.chairman == msg.sender */\n      0xffffffffffffffffffffffffffffffffffffffff\n      and\n      eq\n        /* \"src/voting.sol\":4129:4183  require(VP.chairman == msg.sender, \"not the chairman\") */\n      tag_170\n      jumpi\n      mload(0x40)\n      0x08c379a000000000000000000000000000000000000000000000000000000000\n      dup2\n      mstore\n      0x04\n      add\n      tag_171\n      swap1\n      tag_172\n      jump\t// in\n    tag_171:\n      mload(0x40)\n      dup1\n      swap2\n      sub\n      swap1\n      revert\n    tag_170:\n        /* \"src/voting.sol\":4209:4211  VP */\n      dup1\n        /* \"src/voting.sol\":4209:4218  VP.voting */\n      0x02\n      add\n      0x06\n      swap1\n      sload\n      swap1\n      0x0100\n      exp\n      swap1\n      div\n      0xff\n      and\n        /* \"src/voting.sol\":4207:4219  !(VP.voting) */\n      iszero\n        /* \"src/voting.sol\":4195:4197  VP */\n      dup2\n        /* \"src/voting.sol\":4195:4204  VP.voting */\n      0x02\n      add\n      0x06\n        /* \"src/voting.sol\":4195:4219  VP.voting = !(VP.voting) */\n      0x0100\n      exp\n      dup2\n      sload\n      dup2\n      0xff\n      mul\n      not\n      and\n      swap1\n      dup4\n      iszero\n      iszero\n      mul\n      or\n      swap1\n      sstore\n      pop\n        /* \"src/voting.sol\":4076:4223  {... */\n      pop\n        /* \"src/voting.sol\":4021:4223  function setVotingState( string memory _name) external {... */\n      pop\n      jump\t// out\n        /* \"src/voting.sol\":4660:5242  function getSigner(bytes32 _hash, bytes memory _signature) internal pure returns (address){... */\n    tag_102:\n        /* \"src/voting.sol\":4742:4749  address */\n      0x00\n        /* \"src/voting.sol\":4756:4765  bytes32 r */\n      dup1\n        /* \"src/voting.sol\":4771:4780  bytes32 s */\n      0x00\n        /* \"src/voting.sol\":4786:4793  uint8 v */\n      dup1\n        /* \"src/voting.sol\":4824:4826  65 */\n      0x41\n        /* \"src/voting.sol\":4803:4813  _signature */\n      dup6\n        /* \"src/voting.sol\":4803:4820  _signature.length */\n      mload\n        /* \"src/voting.sol\":4803:4826  _signature.length != 65 */\n      eq\n        /* \"src/voting.sol\":4799:4860  if (_signature.length != 65) {... */\n      tag_174\n      jumpi\n        /* \"src/voting.sol\":4851:4852  0 */\n      0x00\n        /* \"src/voting.sol\":4836:4853  return address(0) */\n      swap4\n      pop\n      pop\n      pop\n      pop\n      jump(tag_173)\n        /* \"src/voting.sol\":4799:4860  if (_signature.length != 65) {... */\n    tag_174:\n        /* \"src/voting.sol\":4909:4911  32 */\n      0x20\n        /* \"src/voting.sol\":4897:4907  _signature */\n      dup6\n        /* \"src/voting.sol\":4893:4912  add(_signature, 32) */\n      add\n        /* \"src/voting.sol\":4887:4913  mload(add(_signature, 32)) */\n      mload\n        /* \"src/voting.sol\":4882:4913  r := mload(add(_signature, 32)) */\n      swap3\n      pop\n        /* \"src/voting.sol\":4947:4949  64 */\n      0x40\n        /* \"src/voting.sol\":4935:4945  _signature */\n      dup6\n        /* \"src/voting.sol\":4931:4950  add(_signature, 64) */\n      add\n        /* \"src/voting.sol\":4925:4951  mload(add(_signature, 64)) */\n      mload\n        /* \"src/voting.sol\":4920:4951  s := mload(add(_signature, 64)) */\n      swap2\n      pop\n        /* \"src/voting.sol\":4993:4995  96 */\n      0x60\n        /* \"src/voting.sol\":4981:4991  _signature */\n      dup6\n        /* \"src/voting.sol\":4977:4996  add(_signature, 96) */\n      add\n        /* \"src/voting.sol\":4971:4997  mload(add(_signature, 96)) */\n      mload\n        /* \"src/voting.sol\":4968:4969  0 */\n      0x00\n        /* \"src/voting.sol\":4963:4998  byte(0, mload(add(_signature, 96))) */\n      byte\n        /* \"src/voting.sol\":4958:4998  v := byte(0, mload(add(_signature, 96))) */\n      swap1\n      pop\n        /* \"src/voting.sol\":5017:5019  27 */\n      0x1b\n        /* \"src/voting.sol\":5013:5014  v */\n      dup2\n        /* \"src/voting.sol\":5013:5019  v < 27 */\n      0xff\n      and\n      lt\n        /* \"src/voting.sol\":5009:5043  if (v < 27) {... */\n      iszero\n      tag_175\n      jumpi\n        /* \"src/voting.sol\":5034:5036  27 */\n      0x1b\n        /* \"src/voting.sol\":5029:5036  v += 27 */\n      dup2\n      tag_176\n      swap2\n      swap1\n      tag_177\n      jump\t// in\n    tag_176:\n      swap1\n      pop\n        /* \"src/voting.sol\":5009:5043  if (v < 27) {... */\n    tag_175:\n        /* \"src/voting.sol\":5057:5059  27 */\n      0x1b\n        /* \"src/voting.sol\":5052:5053  v */\n      dup2\n        /* \"src/voting.sol\":5052:5059  v != 27 */\n      0xff\n      and\n      eq\n      iszero\n        /* \"src/voting.sol\":5052:5070  v != 27 && v != 28 */\n      dup1\n      iszero\n      tag_178\n      jumpi\n      pop\n        /* \"src/voting.sol\":5068:5070  28 */\n      0x1c\n        /* \"src/voting.sol\":5063:5064  v */\n      dup2\n        /* \"src/voting.sol\":5063:5070  v != 28 */\n      0xff\n      and\n      eq\n      iszero\n        /* \"src/voting.sol\":5052:5070  v != 27 && v != 28 */\n    tag_178:\n        /* \"src/voting.sol\":5048:5238  if (v != 27 && v != 28) {... */\n      iszero\n      tag_179\n      jumpi\n        /* \"src/voting.sol\":5095:5096  0 */\n      0x00\n        /* \"src/voting.sol\":5080:5097  return address(0) */\n      swap4\n      pop\n      pop\n      pop\n      pop\n      jump(tag_173)\n        /* \"src/voting.sol\":5048:5238  if (v != 27 && v != 28) {... */\n    tag_179:\n        /* \"src/voting.sol\":5125:5231  ecrecover(keccak256(... */\n      0x01\n        /* \"src/voting.sol\":5207:5212  _hash */\n      dup7\n        /* \"src/voting.sol\":5154:5213  abi.encodePacked(\"\\x19Ethereum Signed Message:\\n32\", _hash) */\n      add(0x20, mload(0x40))\n      tag_181\n      swap2\n      swap1\n      tag_182\n      jump\t// in\n    tag_181:\n      mload(0x40)\n      0x20\n      dup2\n      dup4\n      sub\n      sub\n      dup2\n      mstore\n      swap1\n      0x40\n      mstore\n        /* \"src/voting.sol\":5135:5221  keccak256(... */\n      dup1\n      mload\n      swap1\n      0x20\n      add\n      keccak256\n        /* \"src/voting.sol\":5223:5224  v */\n      dup3\n        /* \"src/voting.sol\":5226:5227  r */\n      dup6\n        /* \"src/voting.sol\":5229:5230  s */\n      dup6\n        /* \"src/voting.sol\":5125:5231  ecrecover(keccak256(... */\n      mload(0x40)\n      0x00\n      dup2\n      mstore\n      0x20\n      add\n      0x40\n      mstore\n      mload(0x40)\n      tag_183\n      swap5\n      swap4\n      swap3\n      swap2\n      swap1\n      tag_184\n      jump\t// in\n    tag_183:\n      0x20\n      mload(0x40)\n      0x20\n      dup2\n      sub\n      swap1\n      dup1\n      dup5\n      sub\n      swap1\n      dup6\n      gas\n      staticcall\n      iszero\n      dup1\n      iszero\n      tag_186\n      jumpi\n      returndatasize\n      0x00\n      dup1\n      returndatacopy\n      revert(0x00, returndatasize)\n    tag_186:\n      pop\n      pop\n      pop\n      mload(sub(mload(0x40), 0x20))\n        /* \"src/voting.sol\":5118:5231  return ecrecover(keccak256(... */\n      swap4\n      pop\n      pop\n      pop\n      pop\n        /* \"src/voting.sol\":4660:5242  function getSigner(bytes32 _hash, bytes memory _signature) internal pure returns (address){... */\n    tag_173:\n      swap3\n      swap2\n      pop\n      pop\n      jump\t// out\n        /* \"src/voting.sol\":2809:3054  function countVote(address Cand, string memory _name, address signer) internal returns(uint){... */\n    tag_112:\n        /* \"src/voting.sol\":2896:2900  uint */\n      0x00\n        /* \"src/voting.sol\":2908:2929  VotingPoll storage VP */\n      dup1\n        /* \"src/voting.sol\":2932:2942  votingPoll */\n      0x00\n        /* \"src/voting.sol\":2943:2948  _name */\n      dup5\n        /* \"src/voting.sol\":2932:2949  votingPoll[_name] */\n      mload(0x40)\n      tag_188\n      swap2\n      swap1\n      tag_88\n      jump\t// in\n    tag_188:\n      swap1\n      dup2\n      mstore\n      0x20\n      add\n      mload(0x40)\n      dup1\n      swap2\n      sub\n      swap1\n      keccak256\n        /* \"src/voting.sol\":2908:2949  VotingPoll storage VP = votingPoll[_name] */\n      swap1\n      pop\n        /* \"src/voting.sol\":2978:2982  true */\n      0x01\n        /* \"src/voting.sol\":2956:2958  VP */\n      dup2\n        /* \"src/voting.sol\":2956:2967  VP.hasVoted */\n      0x04\n      add\n        /* \"src/voting.sol\":2956:2975  VP.hasVoted[signer] */\n      0x00\n        /* \"src/voting.sol\":2968:2974  signer */\n      dup6\n        /* \"src/voting.sol\":2956:2975  VP.hasVoted[signer] */\n      0xffffffffffffffffffffffffffffffffffffffff\n      and\n      0xffffffffffffffffffffffffffffffffffffffff\n      and\n      dup2\n      mstore\n      0x20\n      add\n      swap1\n      dup2\n      mstore\n      0x20\n      add\n      0x00\n      keccak256\n      0x00\n        /* \"src/voting.sol\":2956:2982  VP.hasVoted[signer] = true */\n      0x0100\n      exp\n      dup2\n      sload\n      dup2\n      0xff\n      mul\n      not\n      and\n      swap1\n      dup4\n      iszero\n      iszero\n      mul\n      or\n      swap1\n      sstore\n      pop\n        /* \"src/voting.sol\":2989:2991  VP */\n      dup1\n        /* \"src/voting.sol\":2989:3005  VP.CandidateVote */\n      0x05\n      add\n        /* \"src/voting.sol\":2989:3011  VP.CandidateVote[Cand] */\n      0x00\n        /* \"src/voting.sol\":3006:3010  Cand */\n      dup7\n        /* \"src/voting.sol\":2989:3011  VP.CandidateVote[Cand] */\n      0xffffffffffffffffffffffffffffffffffffffff\n      and\n      0xffffffffffffffffffffffffffffffffffffffff\n      and\n      dup2\n      mstore\n      0x20\n      add\n      swap1\n      dup2\n      mstore\n      0x20\n      add\n      0x00\n      keccak256\n      0x00\n        /* \"src/voting.sol\":2989:3013  VP.CandidateVote[Cand]++ */\n      dup2\n      sload\n      dup1\n      swap3\n      swap2\n      swap1\n      tag_189\n      swap1\n      tag_106\n      jump\t// in\n    tag_189:\n      swap2\n      swap1\n      pop\n      sstore\n      pop\n        /* \"src/voting.sol\":3027:3029  VP */\n      dup1\n        /* \"src/voting.sol\":3027:3043  VP.CandidateVote */\n      0x05\n      add\n        /* \"src/voting.sol\":3027:3049  VP.CandidateVote[Cand] */\n      0x00\n        /* \"src/voting.sol\":3044:3048  Cand */\n      dup7\n        /* \"src/voting.sol\":3027:3049  VP.CandidateVote[Cand] */\n      0xffffffffffffffffffffffffffffffffffffffff\n      and\n      0xffffffffffffffffffffffffffffffffffffffff\n      and\n      dup2\n      mstore\n      0x20\n      add\n      swap1\n      dup2\n      mstore\n      0x20\n      add\n      0x00\n      keccak256\n      sload\n        /* \"src/voting.sol\":3020:3049  return VP.CandidateVote[Cand] */\n      swap2\n      pop\n      pop\n        /* \"src/voting.sol\":2809:3054  function countVote(address Cand, string memory _name, address signer) internal returns(uint){... */\n      swap4\n      swap3\n      pop\n      pop\n      pop\n      jump\t// out\n        /* \"#utility.yul\":7:82   */\n    tag_190:\n        /* \"#utility.yul\":40:46   */\n      0x00\n        /* \"#utility.yul\":73:75   */\n      0x40\n        /* \"#utility.yul\":67:76   */\n      mload\n        /* \"#utility.yul\":57:76   */\n      swap1\n      pop\n        /* \"#utility.yul\":7:82   */\n      swap1\n      jump\t// out\n        /* \"#utility.yul\":88:205   */\n    tag_191:\n        /* \"#utility.yul\":197:198   */\n      0x00\n        /* \"#utility.yul\":194:195   */\n      dup1\n        /* \"#utility.yul\":187:199   */\n      revert\n        /* \"#utility.yul\":211:328   */\n    tag_192:\n        /* \"#utility.yul\":320:321   */\n      0x00\n        /* \"#utility.yul\":317:318   */\n      dup1\n        /* \"#utility.yul\":310:322   */\n      revert\n        /* \"#utility.yul\":334:460   */\n    tag_193:\n        /* \"#utility.yul\":371:378   */\n      0x00\n        /* \"#utility.yul\":411:453   */\n      0xffffffffffffffffffffffffffffffffffffffff\n        /* \"#utility.yul\":404:409   */\n      dup3\n        /* \"#utility.yul\":400:454   */\n      and\n        /* \"#utility.yul\":389:454   */\n      swap1\n      pop\n        /* \"#utility.yul\":334:460   */\n      swap2\n      swap1\n      pop\n      jump\t// out\n        /* \"#utility.yul\":466:562   */\n    tag_194:\n        /* \"#utility.yul\":503:510   */\n      0x00\n        /* \"#utility.yul\":532:556   */\n      tag_279\n        /* \"#utility.yul\":550:555   */\n      dup3\n        /* \"#utility.yul\":532:556   */\n      tag_193\n      jump\t// in\n    tag_279:\n        /* \"#utility.yul\":521:556   */\n      swap1\n      pop\n        /* \"#utility.yul\":466:562   */\n      swap2\n      swap1\n      pop\n      jump\t// out\n        /* \"#utility.yul\":568:690   */\n    tag_195:\n        /* \"#utility.yul\":641:665   */\n      tag_281\n        /* \"#utility.yul\":659:664   */\n      dup2\n        /* \"#utility.yul\":641:665   */\n      tag_194\n      jump\t// in\n    tag_281:\n        /* \"#utility.yul\":634:639   */\n      dup2\n        /* \"#utility.yul\":631:666   */\n      eq\n        /* \"#utility.yul\":621:684   */\n      tag_282\n      jumpi\n        /* \"#utility.yul\":680:681   */\n      0x00\n        /* \"#utility.yul\":677:678   */\n      dup1\n        /* \"#utility.yul\":670:682   */\n      revert\n        /* \"#utility.yul\":621:684   */\n    tag_282:\n        /* \"#utility.yul\":568:690   */\n      pop\n      jump\t// out\n        /* \"#utility.yul\":696:835   */\n    tag_196:\n        /* \"#utility.yul\":742:747   */\n      0x00\n        /* \"#utility.yul\":780:786   */\n      dup2\n        /* \"#utility.yul\":767:787   */\n      calldataload\n        /* \"#utility.yul\":758:787   */\n      swap1\n      pop\n        /* \"#utility.yul\":796:829   */\n      tag_284\n        /* \"#utility.yul\":823:828   */\n      dup2\n        /* \"#utility.yul\":796:829   */\n      tag_195\n      jump\t// in\n    tag_284:\n        /* \"#utility.yul\":696:835   */\n      swap3\n      swap2\n      pop\n      pop\n      jump\t// out\n        /* \"#utility.yul\":841:958   */\n    tag_197:\n        /* \"#utility.yul\":950:951   */\n      0x00\n        /* \"#utility.yul\":947:948   */\n      dup1\n        /* \"#utility.yul\":940:952   */\n      revert\n        /* \"#utility.yul\":964:1081   */\n    tag_198:\n        /* \"#utility.yul\":1073:1074   */\n      0x00\n        /* \"#utility.yul\":1070:1071   */\n      dup1\n        /* \"#utility.yul\":1063:1075   */\n      revert\n        /* \"#utility.yul\":1087:1189   */\n    tag_199:\n        /* \"#utility.yul\":1128:1134   */\n      0x00\n        /* \"#utility.yul\":1179:1181   */\n      0x1f\n        /* \"#utility.yul\":1175:1182   */\n      not\n        /* \"#utility.yul\":1170:1172   */\n      0x1f\n        /* \"#utility.yul\":1163:1168   */\n      dup4\n        /* \"#utility.yul\":1159:1173   */\n      add\n        /* \"#utility.yul\":1155:1183   */\n      and\n        /* \"#utility.yul\":1145:1183   */\n      swap1\n      pop\n        /* \"#utility.yul\":1087:1189   */\n      swap2\n      swap1\n      pop\n      jump\t// out\n        /* \"#utility.yul\":1195:1375   */\n    tag_122:\n        /* \"#utility.yul\":1243:1320   */\n      0x4e487b7100000000000000000000000000000000000000000000000000000000\n        /* \"#utility.yul\":1240:1241   */\n      0x00\n        /* \"#utility.yul\":1233:1321   */\n      mstore\n        /* \"#utility.yul\":1340:1344   */\n      0x41\n        /* \"#utility.yul\":1337:1338   */\n      0x04\n        /* \"#utility.yul\":1330:1345   */\n      mstore\n        /* \"#utility.yul\":1364:1368   */\n      0x24\n        /* \"#utility.yul\":1361:1362   */\n      0x00\n        /* \"#utility.yul\":1354:1369   */\n      revert\n        /* \"#utility.yul\":1381:1662   */\n    tag_200:\n        /* \"#utility.yul\":1464:1491   */\n      tag_290\n        /* \"#utility.yul\":1486:1490   */\n      dup3\n        /* \"#utility.yul\":1464:1491   */\n      tag_199\n      jump\t// in\n    tag_290:\n        /* \"#utility.yul\":1456:1462   */\n      dup2\n        /* \"#utility.yul\":1452:1492   */\n      add\n        /* \"#utility.yul\":1594:1600   */\n      dup2\n        /* \"#utility.yul\":1582:1592   */\n      dup2\n        /* \"#utility.yul\":1579:1601   */\n      lt\n        /* \"#utility.yul\":1558:1576   */\n      0xffffffffffffffff\n        /* \"#utility.yul\":1546:1556   */\n      dup3\n        /* \"#utility.yul\":1543:1577   */\n      gt\n        /* \"#utility.yul\":1540:1602   */\n      or\n        /* \"#utility.yul\":1537:1625   */\n      iszero\n      tag_291\n      jumpi\n        /* \"#utility.yul\":1605:1623   */\n      tag_292\n      tag_122\n      jump\t// in\n    tag_292:\n        /* \"#utility.yul\":1537:1625   */\n    tag_291:\n        /* \"#utility.yul\":1645:1655   */\n      dup1\n        /* \"#utility.yul\":1641:1643   */\n      0x40\n        /* \"#utility.yul\":1634:1656   */\n      mstore\n        /* \"#utility.yul\":1424:1662   */\n      pop\n        /* \"#utility.yul\":1381:1662   */\n      pop\n      pop\n      jump\t// out\n        /* \"#utility.yul\":1668:1797   */\n    tag_201:\n        /* \"#utility.yul\":1702:1708   */\n      0x00\n        /* \"#utility.yul\":1729:1749   */\n      tag_294\n      tag_190\n      jump\t// in\n    tag_294:\n        /* \"#utility.yul\":1719:1749   */\n      swap1\n      pop\n        /* \"#utility.yul\":1758:1791   */\n      tag_295\n        /* \"#utility.yul\":1786:1790   */\n      dup3\n        /* \"#utility.yul\":1778:1784   */\n      dup3\n        /* \"#utility.yul\":1758:1791   */\n      tag_200\n      jump\t// in\n    tag_295:\n        /* \"#utility.yul\":1668:1797   */\n      swap2\n      swap1\n      pop\n      jump\t// out\n        /* \"#utility.yul\":1803:2111   */\n    tag_202:\n        /* \"#utility.yul\":1865:1869   */\n      0x00\n        /* \"#utility.yul\":1955:1973   */\n      0xffffffffffffffff\n        /* \"#utility.yul\":1947:1953   */\n      dup3\n        /* \"#utility.yul\":1944:1974   */\n      gt\n        /* \"#utility.yul\":1941:1997   */\n      iszero\n      tag_297\n      jumpi\n        /* \"#utility.yul\":1977:1995   */\n      tag_298\n      tag_122\n      jump\t// in\n    tag_298:\n        /* \"#utility.yul\":1941:1997   */\n    tag_297:\n        /* \"#utility.yul\":2015:2044   */\n      tag_299\n        /* \"#utility.yul\":2037:2043   */\n      dup3\n        /* \"#utility.yul\":2015:2044   */\n      tag_199\n      jump\t// in\n    tag_299:\n        /* \"#utility.yul\":2007:2044   */\n      swap1\n      pop\n        /* \"#utility.yul\":2099:2103   */\n      0x20\n        /* \"#utility.yul\":2093:2097   */\n      dup2\n        /* \"#utility.yul\":2089:2104   */\n      add\n        /* \"#utility.yul\":2081:2104   */\n      swap1\n      pop\n        /* \"#utility.yul\":1803:2111   */\n      swap2\n      swap1\n      pop\n      jump\t// out\n        /* \"#utility.yul\":2117:2271   */\n    tag_203:\n        /* \"#utility.yul\":2201:2207   */\n      dup3\n        /* \"#utility.yul\":2196:2199   */\n      dup2\n        /* \"#utility.yul\":2191:2194   */\n      dup4\n        /* \"#utility.yul\":2178:2208   */\n      calldatacopy\n        /* \"#utility.yul\":2263:2264   */\n      0x00\n        /* \"#utility.yul\":2254:2260   */\n      dup4\n        /* \"#utility.yul\":2249:2252   */\n      dup4\n        /* \"#utility.yul\":2245:2261   */\n      add\n        /* \"#utility.yul\":2238:2265   */\n      mstore\n        /* \"#utility.yul\":2117:2271   */\n      pop\n      pop\n      pop\n      jump\t// out\n        /* \"#utility.yul\":2277:2689   */\n    tag_204:\n        /* \"#utility.yul\":2355:2360   */\n      0x00\n        /* \"#utility.yul\":2380:2446   */\n      tag_302\n        /* \"#utility.yul\":2396:2445   */\n      tag_303\n        /* \"#utility.yul\":2438:2444   */\n      dup5\n        /* \"#utility.yul\":2396:2445   */\n      tag_202\n      jump\t// in\n    tag_303:\n        /* \"#utility.yul\":2380:2446   */\n      tag_201\n      jump\t// in\n    tag_302:\n        /* \"#utility.yul\":2371:2446   */\n      swap1\n      pop\n        /* \"#utility.yul\":2469:2475   */\n      dup3\n        /* \"#utility.yul\":2462:2467   */\n      dup2\n        /* \"#utility.yul\":2455:2476   */\n      mstore\n        /* \"#utility.yul\":2507:2511   */\n      0x20\n        /* \"#utility.yul\":2500:2505   */\n      dup2\n        /* \"#utility.yul\":2496:2512   */\n      add\n        /* \"#utility.yul\":2545:2548   */\n      dup5\n        /* \"#utility.yul\":2536:2542   */\n      dup5\n        /* \"#utility.yul\":2531:2534   */\n      dup5\n        /* \"#utility.yul\":2527:2543   */\n      add\n        /* \"#utility.yul\":2524:2549   */\n      gt\n        /* \"#utility.yul\":2521:2633   */\n      iszero\n      tag_304\n      jumpi\n        /* \"#utility.yul\":2552:2631   */\n      tag_305\n      tag_198\n      jump\t// in\n    tag_305:\n        /* \"#utility.yul\":2521:2633   */\n    tag_304:\n        /* \"#utility.yul\":2642:2683   */\n      tag_306\n        /* \"#utility.yul\":2676:2682   */\n      dup5\n        /* \"#utility.yul\":2671:2674   */\n      dup3\n        /* \"#utility.yul\":2666:2669   */\n      dup6\n        /* \"#utility.yul\":2642:2683   */\n      tag_203\n      jump\t// in\n    tag_306:\n        /* \"#utility.yul\":2361:2689   */\n      pop\n        /* \"#utility.yul\":2277:2689   */\n      swap4\n      swap3\n      pop\n      pop\n      pop\n      jump\t// out\n        /* \"#utility.yul\":2709:3049   */\n    tag_205:\n        /* \"#utility.yul\":2765:2770   */\n      0x00\n        /* \"#utility.yul\":2814:2817   */\n      dup3\n        /* \"#utility.yul\":2807:2811   */\n      0x1f\n        /* \"#utility.yul\":2799:2805   */\n      dup4\n        /* \"#utility.yul\":2795:2812   */\n      add\n        /* \"#utility.yul\":2791:2818   */\n      slt\n        /* \"#utility.yul\":2781:2903   */\n      tag_308\n      jumpi\n        /* \"#utility.yul\":2822:2901   */\n      tag_309\n      tag_197\n      jump\t// in\n    tag_309:\n        /* \"#utility.yul\":2781:2903   */\n    tag_308:\n        /* \"#utility.yul\":2939:2945   */\n      dup2\n        /* \"#utility.yul\":2926:2946   */\n      calldataload\n        /* \"#utility.yul\":2964:3043   */\n      tag_310\n        /* \"#utility.yul\":3039:3042   */\n      dup5\n        /* \"#utility.yul\":3031:3037   */\n      dup3\n        /* \"#utility.yul\":3024:3028   */\n      0x20\n        /* \"#utility.yul\":3016:3022   */\n      dup7\n        /* \"#utility.yul\":3012:3029   */\n      add\n        /* \"#utility.yul\":2964:3043   */\n      tag_204\n      jump\t// in\n    tag_310:\n        /* \"#utility.yul\":2955:3043   */\n      swap2\n      pop\n        /* \"#utility.yul\":2771:3049   */\n      pop\n        /* \"#utility.yul\":2709:3049   */\n      swap3\n      swap2\n      pop\n      pop\n      jump\t// out\n        /* \"#utility.yul\":3055:3132   */\n    tag_206:\n        /* \"#utility.yul\":3092:3099   */\n      0x00\n        /* \"#utility.yul\":3121:3126   */\n      dup2\n        /* \"#utility.yul\":3110:3126   */\n      swap1\n      pop\n        /* \"#utility.yul\":3055:3132   */\n      swap2\n      swap1\n      pop\n      jump\t// out\n        /* \"#utility.yul\":3138:3260   */\n    tag_207:\n        /* \"#utility.yul\":3211:3235   */\n      tag_313\n        /* \"#utility.yul\":3229:3234   */\n      dup2\n        /* \"#utility.yul\":3211:3235   */\n      tag_206\n      jump\t// in\n    tag_313:\n        /* \"#utility.yul\":3204:3209   */\n      dup2\n        /* \"#utility.yul\":3201:3236   */\n      eq\n        /* \"#utility.yul\":3191:3254   */\n      tag_314\n      jumpi\n        /* \"#utility.yul\":3250:3251   */\n      0x00\n        /* \"#utility.yul\":3247:3248   */\n      dup1\n        /* \"#utility.yul\":3240:3252   */\n      revert\n        /* \"#utility.yul\":3191:3254   */\n    tag_314:\n        /* \"#utility.yul\":3138:3260   */\n      pop\n      jump\t// out\n        /* \"#utility.yul\":3266:3405   */\n    tag_208:\n        /* \"#utility.yul\":3312:3317   */\n      0x00\n        /* \"#utility.yul\":3350:3356   */\n      dup2\n        /* \"#utility.yul\":3337:3357   */\n      calldataload\n        /* \"#utility.yul\":3328:3357   */\n      swap1\n      pop\n        /* \"#utility.yul\":3366:3399   */\n      tag_316\n        /* \"#utility.yul\":3393:3398   */\n      dup2\n        /* \"#utility.yul\":3366:3399   */\n      tag_207\n      jump\t// in\n    tag_316:\n        /* \"#utility.yul\":3266:3405   */\n      swap3\n      swap2\n      pop\n      pop\n      jump\t// out\n        /* \"#utility.yul\":3411:4356   */\n    tag_20:\n        /* \"#utility.yul\":3507:3513   */\n      0x00\n        /* \"#utility.yul\":3515:3521   */\n      dup1\n        /* \"#utility.yul\":3523:3529   */\n      0x00\n        /* \"#utility.yul\":3531:3537   */\n      dup1\n        /* \"#utility.yul\":3580:3583   */\n      0x80\n        /* \"#utility.yul\":3568:3577   */\n      dup6\n        /* \"#utility.yul\":3559:3566   */\n      dup8\n        /* \"#utility.yul\":3555:3578   */\n      sub\n        /* \"#utility.yul\":3551:3584   */\n      slt\n        /* \"#utility.yul\":3548:3668   */\n      iszero\n      tag_318\n      jumpi\n        /* \"#utility.yul\":3587:3666   */\n      tag_319\n      tag_191\n      jump\t// in\n    tag_319:\n        /* \"#utility.yul\":3548:3668   */\n    tag_318:\n        /* \"#utility.yul\":3707:3708   */\n      0x00\n        /* \"#utility.yul\":3732:3785   */\n      tag_320\n        /* \"#utility.yul\":3777:3784   */\n      dup8\n        /* \"#utility.yul\":3768:3774   */\n      dup3\n        /* \"#utility.yul\":3757:3766   */\n      dup9\n        /* \"#utility.yul\":3753:3775   */\n      add\n        /* \"#utility.yul\":3732:3785   */\n      tag_196\n      jump\t// in\n    tag_320:\n        /* \"#utility.yul\":3722:3785   */\n      swap5\n      pop\n        /* \"#utility.yul\":3678:3795   */\n      pop\n        /* \"#utility.yul\":3862:3864   */\n      0x20\n        /* \"#utility.yul\":3851:3860   */\n      dup6\n        /* \"#utility.yul\":3847:3865   */\n      add\n        /* \"#utility.yul\":3834:3866   */\n      calldataload\n        /* \"#utility.yul\":3893:3911   */\n      0xffffffffffffffff\n        /* \"#utility.yul\":3885:3891   */\n      dup2\n        /* \"#utility.yul\":3882:3912   */\n      gt\n        /* \"#utility.yul\":3879:3996   */\n      iszero\n      tag_321\n      jumpi\n        /* \"#utility.yul\":3915:3994   */\n      tag_322\n      tag_192\n      jump\t// in\n    tag_322:\n        /* \"#utility.yul\":3879:3996   */\n    tag_321:\n        /* \"#utility.yul\":4020:4083   */\n      tag_323\n        /* \"#utility.yul\":4075:4082   */\n      dup8\n        /* \"#utility.yul\":4066:4072   */\n      dup3\n        /* \"#utility.yul\":4055:4064   */\n      dup9\n        /* \"#utility.yul\":4051:4073   */\n      add\n        /* \"#utility.yul\":4020:4083   */\n      tag_205\n      jump\t// in\n    tag_323:\n        /* \"#utility.yul\":4010:4083   */\n      swap4\n      pop\n        /* \"#utility.yul\":3805:4093   */\n      pop\n        /* \"#utility.yul\":4132:4134   */\n      0x40\n        /* \"#utility.yul\":4158:4211   */\n      tag_324\n        /* \"#utility.yul\":4203:4210   */\n      dup8\n        /* \"#utility.yul\":4194:4200   */\n      dup3\n        /* \"#utility.yul\":4183:4192   */\n      dup9\n        /* \"#utility.yul\":4179:4201   */\n      add\n        /* \"#utility.yul\":4158:4211   */\n      tag_208\n      jump\t// in\n    tag_324:\n        /* \"#utility.yul\":4148:4211   */\n      swap3\n      pop\n        /* \"#utility.yul\":4103:4221   */\n      pop\n        /* \"#utility.yul\":4260:4262   */\n      0x60\n        /* \"#utility.yul\":4286:4339   */\n      tag_325\n        /* \"#utility.yul\":4331:4338   */\n      dup8\n        /* \"#utility.yul\":4322:4328   */\n      dup3\n        /* \"#utility.yul\":4311:4320   */\n      dup9\n        /* \"#utility.yul\":4307:4329   */\n      add\n        /* \"#utility.yul\":4286:4339   */\n      tag_208\n      jump\t// in\n    tag_325:\n        /* \"#utility.yul\":4276:4339   */\n      swap2\n      pop\n        /* \"#utility.yul\":4231:4349   */\n      pop\n        /* \"#utility.yul\":3411:4356   */\n      swap3\n      swap6\n      swap2\n      swap5\n      pop\n      swap3\n      pop\n      jump\t// out\n        /* \"#utility.yul\":4362:4439   */\n    tag_209:\n        /* \"#utility.yul\":4399:4406   */\n      0x00\n        /* \"#utility.yul\":4428:4433   */\n      dup2\n        /* \"#utility.yul\":4417:4433   */\n      swap1\n      pop\n        /* \"#utility.yul\":4362:4439   */\n      swap2\n      swap1\n      pop\n      jump\t// out\n        /* \"#utility.yul\":4445:4563   */\n    tag_210:\n        /* \"#utility.yul\":4532:4556   */\n      tag_328\n        /* \"#utility.yul\":4550:4555   */\n      dup2\n        /* \"#utility.yul\":4532:4556   */\n      tag_209\n      jump\t// in\n    tag_328:\n        /* \"#utility.yul\":4527:4530   */\n      dup3\n        /* \"#utility.yul\":4520:4557   */\n      mstore\n        /* \"#utility.yul\":4445:4563   */\n      pop\n      pop\n      jump\t// out\n        /* \"#utility.yul\":4569:4791   */\n    tag_23:\n        /* \"#utility.yul\":4662:4666   */\n      0x00\n        /* \"#utility.yul\":4700:4702   */\n      0x20\n        /* \"#utility.yul\":4689:4698   */\n      dup3\n        /* \"#utility.yul\":4685:4703   */\n      add\n        /* \"#utility.yul\":4677:4703   */\n      swap1\n      pop\n        /* \"#utility.yul\":4713:4784   */\n      tag_330\n        /* \"#utility.yul\":4781:4782   */\n      0x00\n        /* \"#utility.yul\":4770:4779   */\n      dup4\n        /* \"#utility.yul\":4766:4783   */\n      add\n        /* \"#utility.yul\":4757:4763   */\n      dup5\n        /* \"#utility.yul\":4713:4784   */\n      tag_210\n      jump\t// in\n    tag_330:\n        /* \"#utility.yul\":4569:4791   */\n      swap3\n      swap2\n      pop\n      pop\n      jump\t// out\n        /* \"#utility.yul\":4797:4886   */\n    tag_211:\n        /* \"#utility.yul\":4833:4840   */\n      0x00\n        /* \"#utility.yul\":4873:4879   */\n      0xffff\n        /* \"#utility.yul\":4866:4871   */\n      dup3\n        /* \"#utility.yul\":4862:4880   */\n      and\n        /* \"#utility.yul\":4851:4880   */\n      swap1\n      pop\n        /* \"#utility.yul\":4797:4886   */\n      swap2\n      swap1\n      pop\n      jump\t// out\n        /* \"#utility.yul\":4892:5012   */\n    tag_212:\n        /* \"#utility.yul\":4964:4987   */\n      tag_333\n        /* \"#utility.yul\":4981:4986   */\n      dup2\n        /* \"#utility.yul\":4964:4987   */\n      tag_211\n      jump\t// in\n    tag_333:\n        /* \"#utility.yul\":4957:4962   */\n      dup2\n        /* \"#utility.yul\":4954:4988   */\n      eq\n        /* \"#utility.yul\":4944:5006   */\n      tag_334\n      jumpi\n        /* \"#utility.yul\":5002:5003   */\n      0x00\n        /* \"#utility.yul\":4999:5000   */\n      dup1\n        /* \"#utility.yul\":4992:5004   */\n      revert\n        /* \"#utility.yul\":4944:5006   */\n    tag_334:\n        /* \"#utility.yul\":4892:5012   */\n      pop\n      jump\t// out\n        /* \"#utility.yul\":5018:5155   */\n    tag_213:\n        /* \"#utility.yul\":5063:5068   */\n      0x00\n        /* \"#utility.yul\":5101:5107   */\n      dup2\n        /* \"#utility.yul\":5088:5108   */\n      calldataload\n        /* \"#utility.yul\":5079:5108   */\n      swap1\n      pop\n        /* \"#utility.yul\":5117:5149   */\n      tag_336\n        /* \"#utility.yul\":5143:5148   */\n      dup2\n        /* \"#utility.yul\":5117:5149   */\n      tag_212\n      jump\t// in\n    tag_336:\n        /* \"#utility.yul\":5018:5155   */\n      swap3\n      swap2\n      pop\n      pop\n      jump\t// out\n        /* \"#utility.yul\":5161:5813   */\n    tag_27:\n        /* \"#utility.yul\":5238:5244   */\n      0x00\n        /* \"#utility.yul\":5246:5252   */\n      dup1\n        /* \"#utility.yul\":5295:5297   */\n      0x40\n        /* \"#utility.yul\":5283:5292   */\n      dup4\n        /* \"#utility.yul\":5274:5281   */\n      dup6\n        /* \"#utility.yul\":5270:5293   */\n      sub\n        /* \"#utility.yul\":5266:5298   */\n      slt\n        /* \"#utility.yul\":5263:5382   */\n      iszero\n      tag_338\n      jumpi\n        /* \"#utility.yul\":5301:5380   */\n      tag_339\n      tag_191\n      jump\t// in\n    tag_339:\n        /* \"#utility.yul\":5263:5382   */\n    tag_338:\n        /* \"#utility.yul\":5449:5450   */\n      0x00\n        /* \"#utility.yul\":5438:5447   */\n      dup4\n        /* \"#utility.yul\":5434:5451   */\n      add\n        /* \"#utility.yul\":5421:5452   */\n      calldataload\n        /* \"#utility.yul\":5479:5497   */\n      0xffffffffffffffff\n        /* \"#utility.yul\":5471:5477   */\n      dup2\n        /* \"#utility.yul\":5468:5498   */\n      gt\n        /* \"#utility.yul\":5465:5582   */\n      iszero\n      tag_340\n      jumpi\n        /* \"#utility.yul\":5501:5580   */\n      tag_341\n      tag_192\n      jump\t// in\n    tag_341:\n        /* \"#utility.yul\":5465:5582   */\n    tag_340:\n        /* \"#utility.yul\":5606:5669   */\n      tag_342\n        /* \"#utility.yul\":5661:5668   */\n      dup6\n        /* \"#utility.yul\":5652:5658   */\n      dup3\n        /* \"#utility.yul\":5641:5650   */\n      dup7\n        /* \"#utility.yul\":5637:5659   */\n      add\n        /* \"#utility.yul\":5606:5669   */\n      tag_205\n      jump\t// in\n    tag_342:\n        /* \"#utility.yul\":5596:5669   */\n      swap3\n      pop\n        /* \"#utility.yul\":5392:5679   */\n      pop\n        /* \"#utility.yul\":5718:5720   */\n      0x20\n        /* \"#utility.yul\":5744:5796   */\n      tag_343\n        /* \"#utility.yul\":5788:5795   */\n      dup6\n        /* \"#utility.yul\":5779:5785   */\n      dup3\n        /* \"#utility.yul\":5768:5777   */\n      dup7\n        /* \"#utility.yul\":5764:5786   */\n      add\n        /* \"#utility.yul\":5744:5796   */\n      tag_213\n      jump\t// in\n    tag_343:\n        /* \"#utility.yul\":5734:5796   */\n      swap2\n      pop\n        /* \"#utility.yul\":5689:5806   */\n      pop\n        /* \"#utility.yul\":5161:5813   */\n      swap3\n      pop\n      swap3\n      swap1\n      pop\n      jump\t// out\n        /* \"#utility.yul\":5819:5918   */\n    tag_214:\n        /* \"#utility.yul\":5871:5877   */\n      0x00\n        /* \"#utility.yul\":5905:5910   */\n      dup2\n        /* \"#utility.yul\":5899:5911   */\n      mload\n        /* \"#utility.yul\":5889:5911   */\n      swap1\n      pop\n        /* \"#utility.yul\":5819:5918   */\n      swap2\n      swap1\n      pop\n      jump\t// out\n        /* \"#utility.yul\":5924:6093   */\n    tag_215:\n        /* \"#utility.yul\":6008:6019   */\n      0x00\n        /* \"#utility.yul\":6042:6048   */\n      dup3\n        /* \"#utility.yul\":6037:6040   */\n      dup3\n        /* \"#utility.yul\":6030:6049   */\n      mstore\n        /* \"#utility.yul\":6082:6086   */\n      0x20\n        /* \"#utility.yul\":6077:6080   */\n      dup3\n        /* \"#utility.yul\":6073:6087   */\n      add\n        /* \"#utility.yul\":6058:6087   */\n      swap1\n      pop\n        /* \"#utility.yul\":5924:6093   */\n      swap3\n      swap2\n      pop\n      pop\n      jump\t// out\n        /* \"#utility.yul\":6099:6406   */\n    tag_216:\n        /* \"#utility.yul\":6167:6168   */\n      0x00\n        /* \"#utility.yul\":6177:6290   */\n    tag_347:\n        /* \"#utility.yul\":6191:6197   */\n      dup4\n        /* \"#utility.yul\":6188:6189   */\n      dup2\n        /* \"#utility.yul\":6185:6198   */\n      lt\n        /* \"#utility.yul\":6177:6290   */\n      iszero\n      tag_349\n      jumpi\n        /* \"#utility.yul\":6276:6277   */\n      dup1\n        /* \"#utility.yul\":6271:6274   */\n      dup3\n        /* \"#utility.yul\":6267:6278   */\n      add\n        /* \"#utility.yul\":6261:6279   */\n      mload\n        /* \"#utility.yul\":6257:6258   */\n      dup2\n        /* \"#utility.yul\":6252:6255   */\n      dup5\n        /* \"#utility.yul\":6248:6259   */\n      add\n        /* \"#utility.yul\":6241:6280   */\n      mstore\n        /* \"#utility.yul\":6213:6215   */\n      0x20\n        /* \"#utility.yul\":6210:6211   */\n      dup2\n        /* \"#utility.yul\":6206:6216   */\n      add\n        /* \"#utility.yul\":6201:6216   */\n      swap1\n      pop\n        /* \"#utility.yul\":6177:6290   */\n      jump(tag_347)\n    tag_349:\n        /* \"#utility.yul\":6308:6314   */\n      dup4\n        /* \"#utility.yul\":6305:6306   */\n      dup2\n        /* \"#utility.yul\":6302:6315   */\n      gt\n        /* \"#utility.yul\":6299:6400   */\n      iszero\n      tag_350\n      jumpi\n        /* \"#utility.yul\":6388:6389   */\n      0x00\n        /* \"#utility.yul\":6379:6385   */\n      dup5\n        /* \"#utility.yul\":6374:6377   */\n      dup5\n        /* \"#utility.yul\":6370:6386   */\n      add\n        /* \"#utility.yul\":6363:6390   */\n      mstore\n        /* \"#utility.yul\":6299:6400   */\n    tag_350:\n        /* \"#utility.yul\":6148:6406   */\n      pop\n        /* \"#utility.yul\":6099:6406   */\n      pop\n      pop\n      pop\n      jump\t// out\n        /* \"#utility.yul\":6412:6776   */\n    tag_217:\n        /* \"#utility.yul\":6500:6503   */\n      0x00\n        /* \"#utility.yul\":6528:6567   */\n      tag_352\n        /* \"#utility.yul\":6561:6566   */\n      dup3\n        /* \"#utility.yul\":6528:6567   */\n      tag_214\n      jump\t// in\n    tag_352:\n        /* \"#utility.yul\":6583:6654   */\n      tag_353\n        /* \"#utility.yul\":6647:6653   */\n      dup2\n        /* \"#utility.yul\":6642:6645   */\n      dup6\n        /* \"#utility.yul\":6583:6654   */\n      tag_215\n      jump\t// in\n    tag_353:\n        /* \"#utility.yul\":6576:6654   */\n      swap4\n      pop\n        /* \"#utility.yul\":6663:6715   */\n      tag_354\n        /* \"#utility.yul\":6708:6714   */\n      dup2\n        /* \"#utility.yul\":6703:6706   */\n      dup6\n        /* \"#utility.yul\":6696:6700   */\n      0x20\n        /* \"#utility.yul\":6689:6694   */\n      dup7\n        /* \"#utility.yul\":6685:6701   */\n      add\n        /* \"#utility.yul\":6663:6715   */\n      tag_216\n      jump\t// in\n    tag_354:\n        /* \"#utility.yul\":6740:6769   */\n      tag_355\n        /* \"#utility.yul\":6762:6768   */\n      dup2\n        /* \"#utility.yul\":6740:6769   */\n      tag_199\n      jump\t// in\n    tag_355:\n        /* \"#utility.yul\":6735:6738   */\n      dup5\n        /* \"#utility.yul\":6731:6770   */\n      add\n        /* \"#utility.yul\":6724:6770   */\n      swap2\n      pop\n        /* \"#utility.yul\":6504:6776   */\n      pop\n        /* \"#utility.yul\":6412:6776   */\n      swap3\n      swap2\n      pop\n      pop\n      jump\t// out\n        /* \"#utility.yul\":6782:6900   */\n    tag_218:\n        /* \"#utility.yul\":6869:6893   */\n      tag_357\n        /* \"#utility.yul\":6887:6892   */\n      dup2\n        /* \"#utility.yul\":6869:6893   */\n      tag_206\n      jump\t// in\n    tag_357:\n        /* \"#utility.yul\":6864:6867   */\n      dup3\n        /* \"#utility.yul\":6857:6894   */\n      mstore\n        /* \"#utility.yul\":6782:6900   */\n      pop\n      pop\n      jump\t// out\n        /* \"#utility.yul\":6906:7329   */\n    tag_30:\n        /* \"#utility.yul\":7047:7051   */\n      0x00\n        /* \"#utility.yul\":7085:7087   */\n      0x40\n        /* \"#utility.yul\":7074:7083   */\n      dup3\n        /* \"#utility.yul\":7070:7088   */\n      add\n        /* \"#utility.yul\":7062:7088   */\n      swap1\n      pop\n        /* \"#utility.yul\":7134:7143   */\n      dup2\n        /* \"#utility.yul\":7128:7132   */\n      dup2\n        /* \"#utility.yul\":7124:7144   */\n      sub\n        /* \"#utility.yul\":7120:7121   */\n      0x00\n        /* \"#utility.yul\":7109:7118   */\n      dup4\n        /* \"#utility.yul\":7105:7122   */\n      add\n        /* \"#utility.yul\":7098:7145   */\n      mstore\n        /* \"#utility.yul\":7162:7240   */\n      tag_359\n        /* \"#utility.yul\":7235:7239   */\n      dup2\n        /* \"#utility.yul\":7226:7232   */\n      dup6\n        /* \"#utility.yul\":7162:7240   */\n      tag_217\n      jump\t// in\n    tag_359:\n        /* \"#utility.yul\":7154:7240   */\n      swap1\n      pop\n        /* \"#utility.yul\":7250:7322   */\n      tag_360\n        /* \"#utility.yul\":7318:7320   */\n      0x20\n        /* \"#utility.yul\":7307:7316   */\n      dup4\n        /* \"#utility.yul\":7303:7321   */\n      add\n        /* \"#utility.yul\":7294:7300   */\n      dup5\n        /* \"#utility.yul\":7250:7322   */\n      tag_218\n      jump\t// in\n    tag_360:\n        /* \"#utility.yul\":6906:7329   */\n      swap4\n      swap3\n      pop\n      pop\n      pop\n      jump\t// out\n        /* \"#utility.yul\":7335:7642   */\n    tag_219:\n        /* \"#utility.yul\":7396:7400   */\n      0x00\n        /* \"#utility.yul\":7486:7504   */\n      0xffffffffffffffff\n        /* \"#utility.yul\":7478:7484   */\n      dup3\n        /* \"#utility.yul\":7475:7505   */\n      gt\n        /* \"#utility.yul\":7472:7528   */\n      iszero\n      tag_362\n      jumpi\n        /* \"#utility.yul\":7508:7526   */\n      tag_363\n      tag_122\n      jump\t// in\n    tag_363:\n        /* \"#utility.yul\":7472:7528   */\n    tag_362:\n        /* \"#utility.yul\":7546:7575   */\n      tag_364\n        /* \"#utility.yul\":7568:7574   */\n      dup3\n        /* \"#utility.yul\":7546:7575   */\n      tag_199\n      jump\t// in\n    tag_364:\n        /* \"#utility.yul\":7538:7575   */\n      swap1\n      pop\n        /* \"#utility.yul\":7630:7634   */\n      0x20\n        /* \"#utility.yul\":7624:7628   */\n      dup2\n        /* \"#utility.yul\":7620:7635   */\n      add\n        /* \"#utility.yul\":7612:7635   */\n      swap1\n      pop\n        /* \"#utility.yul\":7335:7642   */\n      swap2\n      swap1\n      pop\n      jump\t// out\n        /* \"#utility.yul\":7648:8058   */\n    tag_220:\n        /* \"#utility.yul\":7725:7730   */\n      0x00\n        /* \"#utility.yul\":7750:7815   */\n      tag_366\n        /* \"#utility.yul\":7766:7814   */\n      tag_367\n        /* \"#utility.yul\":7807:7813   */\n      dup5\n        /* \"#utility.yul\":7766:7814   */\n      tag_219\n      jump\t// in\n    tag_367:\n        /* \"#utility.yul\":7750:7815   */\n      tag_201\n      jump\t// in\n    tag_366:\n        /* \"#utility.yul\":7741:7815   */\n      swap1\n      pop\n        /* \"#utility.yul\":7838:7844   */\n      dup3\n        /* \"#utility.yul\":7831:7836   */\n      dup2\n        /* \"#utility.yul\":7824:7845   */\n      mstore\n        /* \"#utility.yul\":7876:7880   */\n      0x20\n        /* \"#utility.yul\":7869:7874   */\n      dup2\n        /* \"#utility.yul\":7865:7881   */\n      add\n        /* \"#utility.yul\":7914:7917   */\n      dup5\n        /* \"#utility.yul\":7905:7911   */\n      dup5\n        /* \"#utility.yul\":7900:7903   */\n      dup5\n        /* \"#utility.yul\":7896:7912   */\n      add\n        /* \"#utility.yul\":7893:7918   */\n      gt\n        /* \"#utility.yul\":7890:8002   */\n      iszero\n      tag_368\n      jumpi\n        /* \"#utility.yul\":7921:8000   */\n      tag_369\n      tag_198\n      jump\t// in\n    tag_369:\n        /* \"#utility.yul\":7890:8002   */\n    tag_368:\n        /* \"#utility.yul\":8011:8052   */\n      tag_370\n        /* \"#utility.yul\":8045:8051   */\n      dup5\n        /* \"#utility.yul\":8040:8043   */\n      dup3\n        /* \"#utility.yul\":8035:8038   */\n      dup6\n        /* \"#utility.yul\":8011:8052   */\n      tag_203\n      jump\t// in\n    tag_370:\n        /* \"#utility.yul\":7731:8058   */\n      pop\n        /* \"#utility.yul\":7648:8058   */\n      swap4\n      swap3\n      pop\n      pop\n      pop\n      jump\t// out\n        /* \"#utility.yul\":8077:8415   */\n    tag_221:\n        /* \"#utility.yul\":8132:8137   */\n      0x00\n        /* \"#utility.yul\":8181:8184   */\n      dup3\n        /* \"#utility.yul\":8174:8178   */\n      0x1f\n        /* \"#utility.yul\":8166:8172   */\n      dup4\n        /* \"#utility.yul\":8162:8179   */\n      add\n        /* \"#utility.yul\":8158:8185   */\n      slt\n        /* \"#utility.yul\":8148:8270   */\n      tag_372\n      jumpi\n        /* \"#utility.yul\":8189:8268   */\n      tag_373\n      tag_197\n      jump\t// in\n    tag_373:\n        /* \"#utility.yul\":8148:8270   */\n    tag_372:\n        /* \"#utility.yul\":8306:8312   */\n      dup2\n        /* \"#utility.yul\":8293:8313   */\n      calldataload\n        /* \"#utility.yul\":8331:8409   */\n      tag_374\n        /* \"#utility.yul\":8405:8408   */\n      dup5\n        /* \"#utility.yul\":8397:8403   */\n      dup3\n        /* \"#utility.yul\":8390:8394   */\n      0x20\n        /* \"#utility.yul\":8382:8388   */\n      dup7\n        /* \"#utility.yul\":8378:8395   */\n      add\n        /* \"#utility.yul\":8331:8409   */\n      tag_220\n      jump\t// in\n    tag_374:\n        /* \"#utility.yul\":8322:8409   */\n      swap2\n      pop\n        /* \"#utility.yul\":8138:8415   */\n      pop\n        /* \"#utility.yul\":8077:8415   */\n      swap3\n      swap2\n      pop\n      pop\n      jump\t// out\n        /* \"#utility.yul\":8421:9544   */\n    tag_34:\n        /* \"#utility.yul\":8526:8532   */\n      0x00\n        /* \"#utility.yul\":8534:8540   */\n      dup1\n        /* \"#utility.yul\":8542:8548   */\n      0x00\n        /* \"#utility.yul\":8550:8556   */\n      dup1\n        /* \"#utility.yul\":8599:8602   */\n      0x80\n        /* \"#utility.yul\":8587:8596   */\n      dup6\n        /* \"#utility.yul\":8578:8585   */\n      dup8\n        /* \"#utility.yul\":8574:8597   */\n      sub\n        /* \"#utility.yul\":8570:8603   */\n      slt\n        /* \"#utility.yul\":8567:8687   */\n      iszero\n      tag_376\n      jumpi\n        /* \"#utility.yul\":8606:8685   */\n      tag_377\n      tag_191\n      jump\t// in\n    tag_377:\n        /* \"#utility.yul\":8567:8687   */\n    tag_376:\n        /* \"#utility.yul\":8726:8727   */\n      0x00\n        /* \"#utility.yul\":8751:8804   */\n      tag_378\n        /* \"#utility.yul\":8796:8803   */\n      dup8\n        /* \"#utility.yul\":8787:8793   */\n      dup3\n        /* \"#utility.yul\":8776:8785   */\n      dup9\n        /* \"#utility.yul\":8772:8794   */\n      add\n        /* \"#utility.yul\":8751:8804   */\n      tag_196\n      jump\t// in\n    tag_378:\n        /* \"#utility.yul\":8741:8804   */\n      swap5\n      pop\n        /* \"#utility.yul\":8697:8814   */\n      pop\n        /* \"#utility.yul\":8881:8883   */\n      0x20\n        /* \"#utility.yul\":8870:8879   */\n      dup6\n        /* \"#utility.yul\":8866:8884   */\n      add\n        /* \"#utility.yul\":8853:8885   */\n      calldataload\n        /* \"#utility.yul\":8912:8930   */\n      0xffffffffffffffff\n        /* \"#utility.yul\":8904:8910   */\n      dup2\n        /* \"#utility.yul\":8901:8931   */\n      gt\n        /* \"#utility.yul\":8898:9015   */\n      iszero\n      tag_379\n      jumpi\n        /* \"#utility.yul\":8934:9013   */\n      tag_380\n      tag_192\n      jump\t// in\n    tag_380:\n        /* \"#utility.yul\":8898:9015   */\n    tag_379:\n        /* \"#utility.yul\":9039:9102   */\n      tag_381\n        /* \"#utility.yul\":9094:9101   */\n      dup8\n        /* \"#utility.yul\":9085:9091   */\n      dup3\n        /* \"#utility.yul\":9074:9083   */\n      dup9\n        /* \"#utility.yul\":9070:9092   */\n      add\n        /* \"#utility.yul\":9039:9102   */\n      tag_205\n      jump\t// in\n    tag_381:\n        /* \"#utility.yul\":9029:9102   */\n      swap4\n      pop\n        /* \"#utility.yul\":8824:9112   */\n      pop\n        /* \"#utility.yul\":9151:9153   */\n      0x40\n        /* \"#utility.yul\":9177:9230   */\n      tag_382\n        /* \"#utility.yul\":9222:9229   */\n      dup8\n        /* \"#utility.yul\":9213:9219   */\n      dup3\n        /* \"#utility.yul\":9202:9211   */\n      dup9\n        /* \"#utility.yul\":9198:9220   */\n      add\n        /* \"#utility.yul\":9177:9230   */\n      tag_208\n      jump\t// in\n    tag_382:\n        /* \"#utility.yul\":9167:9230   */\n      swap3\n      pop\n        /* \"#utility.yul\":9122:9240   */\n      pop\n        /* \"#utility.yul\":9307:9309   */\n      0x60\n        /* \"#utility.yul\":9296:9305   */\n      dup6\n        /* \"#utility.yul\":9292:9310   */\n      add\n        /* \"#utility.yul\":9279:9311   */\n      calldataload\n        /* \"#utility.yul\":9338:9356   */\n      0xffffffffffffffff\n        /* \"#utility.yul\":9330:9336   */\n      dup2\n        /* \"#utility.yul\":9327:9357   */\n      gt\n        /* \"#utility.yul\":9324:9441   */\n      iszero\n      tag_383\n      jumpi\n        /* \"#utility.yul\":9360:9439   */\n      tag_384\n      tag_192\n      jump\t// in\n    tag_384:\n        /* \"#utility.yul\":9324:9441   */\n    tag_383:\n        /* \"#utility.yul\":9465:9527   */\n      tag_385\n        /* \"#utility.yul\":9519:9526   */\n      dup8\n        /* \"#utility.yul\":9510:9516   */\n      dup3\n        /* \"#utility.yul\":9499:9508   */\n      dup9\n        /* \"#utility.yul\":9495:9517   */\n      add\n        /* \"#utility.yul\":9465:9527   */\n      tag_221\n      jump\t// in\n    tag_385:\n        /* \"#utility.yul\":9455:9527   */\n      swap2\n      pop\n        /* \"#utility.yul\":9250:9537   */\n      pop\n        /* \"#utility.yul\":8421:9544   */\n      swap3\n      swap6\n      swap2\n      swap5\n      pop\n      swap3\n      pop\n      jump\t// out\n        /* \"#utility.yul\":9550:10059   */\n    tag_39:\n        /* \"#utility.yul\":9619:9625   */\n      0x00\n        /* \"#utility.yul\":9668:9670   */\n      0x20\n        /* \"#utility.yul\":9656:9665   */\n      dup3\n        /* \"#utility.yul\":9647:9654   */\n      dup5\n        /* \"#utility.yul\":9643:9666   */\n      sub\n        /* \"#utility.yul\":9639:9671   */\n      slt\n        /* \"#utility.yul\":9636:9755   */\n      iszero\n      tag_387\n      jumpi\n        /* \"#utility.yul\":9674:9753   */\n      tag_388\n      tag_191\n      jump\t// in\n    tag_388:\n        /* \"#utility.yul\":9636:9755   */\n    tag_387:\n        /* \"#utility.yul\":9822:9823   */\n      0x00\n        /* \"#utility.yul\":9811:9820   */\n      dup3\n        /* \"#utility.yul\":9807:9824   */\n      add\n        /* \"#utility.yul\":9794:9825   */\n      calldataload\n        /* \"#utility.yul\":9852:9870   */\n      0xffffffffffffffff\n        /* \"#utility.yul\":9844:9850   */\n      dup2\n        /* \"#utility.yul\":9841:9871   */\n      gt\n        /* \"#utility.yul\":9838:9955   */\n      iszero\n      tag_389\n      jumpi\n        /* \"#utility.yul\":9874:9953   */\n      tag_390\n      tag_192\n      jump\t// in\n    tag_390:\n        /* \"#utility.yul\":9838:9955   */\n    tag_389:\n        /* \"#utility.yul\":9979:10042   */\n      tag_391\n        /* \"#utility.yul\":10034:10041   */\n      dup5\n        /* \"#utility.yul\":10025:10031   */\n      dup3\n        /* \"#utility.yul\":10014:10023   */\n      dup6\n        /* \"#utility.yul\":10010:10032   */\n      add\n        /* \"#utility.yul\":9979:10042   */\n      tag_205\n      jump\t// in\n    tag_391:\n        /* \"#utility.yul\":9969:10042   */\n      swap2\n      pop\n        /* \"#utility.yul\":9765:10052   */\n      pop\n        /* \"#utility.yul\":9550:10059   */\n      swap3\n      swap2\n      pop\n      pop\n      jump\t// out\n        /* \"#utility.yul\":10065:10179   */\n    tag_222:\n        /* \"#utility.yul\":10132:10138   */\n      0x00\n        /* \"#utility.yul\":10166:10171   */\n      dup2\n        /* \"#utility.yul\":10160:10172   */\n      mload\n        /* \"#utility.yul\":10150:10172   */\n      swap1\n      pop\n        /* \"#utility.yul\":10065:10179   */\n      swap2\n      swap1\n      pop\n      jump\t// out\n        /* \"#utility.yul\":10185:10369   */\n    tag_223:\n        /* \"#utility.yul\":10284:10295   */\n      0x00\n        /* \"#utility.yul\":10318:10324   */\n      dup3\n        /* \"#utility.yul\":10313:10316   */\n      dup3\n        /* \"#utility.yul\":10306:10325   */\n      mstore\n        /* \"#utility.yul\":10358:10362   */\n      0x20\n        /* \"#utility.yul\":10353:10356   */\n      dup3\n        /* \"#utility.yul\":10349:10363   */\n      add\n        /* \"#utility.yul\":10334:10363   */\n      swap1\n      pop\n        /* \"#utility.yul\":10185:10369   */\n      swap3\n      swap2\n      pop\n      pop\n      jump\t// out\n        /* \"#utility.yul\":10375:10507   */\n    tag_224:\n        /* \"#utility.yul\":10442:10446   */\n      0x00\n        /* \"#utility.yul\":10465:10468   */\n      dup2\n        /* \"#utility.yul\":10457:10468   */\n      swap1\n      pop\n        /* \"#utility.yul\":10495:10499   */\n      0x20\n        /* \"#utility.yul\":10490:10493   */\n      dup3\n        /* \"#utility.yul\":10486:10500   */\n      add\n        /* \"#utility.yul\":10478:10500   */\n      swap1\n      pop\n        /* \"#utility.yul\":10375:10507   */\n      swap2\n      swap1\n      pop\n      jump\t// out\n        /* \"#utility.yul\":10513:10621   */\n    tag_225:\n        /* \"#utility.yul\":10590:10614   */\n      tag_396\n        /* \"#utility.yul\":10608:10613   */\n      dup2\n        /* \"#utility.yul\":10590:10614   */\n      tag_206\n      jump\t// in\n    tag_396:\n        /* \"#utility.yul\":10585:10588   */\n      dup3\n        /* \"#utility.yul\":10578:10615   */\n      mstore\n        /* \"#utility.yul\":10513:10621   */\n      pop\n      pop\n      jump\t// out\n        /* \"#utility.yul\":10627:10806   */\n    tag_226:\n        /* \"#utility.yul\":10696:10706   */\n      0x00\n        /* \"#utility.yul\":10717:10763   */\n      tag_398\n        /* \"#utility.yul\":10759:10762   */\n      dup4\n        /* \"#utility.yul\":10751:10757   */\n      dup4\n        /* \"#utility.yul\":10717:10763   */\n      tag_225\n      jump\t// in\n    tag_398:\n        /* \"#utility.yul\":10795:10799   */\n      0x20\n        /* \"#utility.yul\":10790:10793   */\n      dup4\n        /* \"#utility.yul\":10786:10800   */\n      add\n        /* \"#utility.yul\":10772:10800   */\n      swap1\n      pop\n        /* \"#utility.yul\":10627:10806   */\n      swap3\n      swap2\n      pop\n      pop\n      jump\t// out\n        /* \"#utility.yul\":10812:10925   */\n    tag_227:\n        /* \"#utility.yul\":10882:10886   */\n      0x00\n        /* \"#utility.yul\":10914:10918   */\n      0x20\n        /* \"#utility.yul\":10909:10912   */\n      dup3\n        /* \"#utility.yul\":10905:10919   */\n      add\n        /* \"#utility.yul\":10897:10919   */\n      swap1\n      pop\n        /* \"#utility.yul\":10812:10925   */\n      swap2\n      swap1\n      pop\n      jump\t// out\n        /* \"#utility.yul\":10961:11693   */\n    tag_228:\n        /* \"#utility.yul\":11080:11083   */\n      0x00\n        /* \"#utility.yul\":11109:11163   */\n      tag_401\n        /* \"#utility.yul\":11157:11162   */\n      dup3\n        /* \"#utility.yul\":11109:11163   */\n      tag_222\n      jump\t// in\n    tag_401:\n        /* \"#utility.yul\":11179:11265   */\n      tag_402\n        /* \"#utility.yul\":11258:11264   */\n      dup2\n        /* \"#utility.yul\":11253:11256   */\n      dup6\n        /* \"#utility.yul\":11179:11265   */\n      tag_223\n      jump\t// in\n    tag_402:\n        /* \"#utility.yul\":11172:11265   */\n      swap4\n      pop\n        /* \"#utility.yul\":11289:11345   */\n      tag_403\n        /* \"#utility.yul\":11339:11344   */\n      dup4\n        /* \"#utility.yul\":11289:11345   */\n      tag_224\n      jump\t// in\n    tag_403:\n        /* \"#utility.yul\":11368:11375   */\n      dup1\n        /* \"#utility.yul\":11399:11400   */\n      0x00\n        /* \"#utility.yul\":11384:11668   */\n    tag_404:\n        /* \"#utility.yul\":11409:11415   */\n      dup4\n        /* \"#utility.yul\":11406:11407   */\n      dup2\n        /* \"#utility.yul\":11403:11416   */\n      lt\n        /* \"#utility.yul\":11384:11668   */\n      iszero\n      tag_406\n      jumpi\n        /* \"#utility.yul\":11485:11491   */\n      dup2\n        /* \"#utility.yul\":11479:11492   */\n      mload\n        /* \"#utility.yul\":11512:11575   */\n      tag_407\n        /* \"#utility.yul\":11571:11574   */\n      dup9\n        /* \"#utility.yul\":11556:11569   */\n      dup3\n        /* \"#utility.yul\":11512:11575   */\n      tag_226\n      jump\t// in\n    tag_407:\n        /* \"#utility.yul\":11505:11575   */\n      swap8\n      pop\n        /* \"#utility.yul\":11598:11658   */\n      tag_408\n        /* \"#utility.yul\":11651:11657   */\n      dup4\n        /* \"#utility.yul\":11598:11658   */\n      tag_227\n      jump\t// in\n    tag_408:\n        /* \"#utility.yul\":11588:11658   */\n      swap3\n      pop\n        /* \"#utility.yul\":11444:11668   */\n      pop\n        /* \"#utility.yul\":11431:11432   */\n      0x01\n        /* \"#utility.yul\":11428:11429   */\n      dup2\n        /* \"#utility.yul\":11424:11433   */\n      add\n        /* \"#utility.yul\":11419:11433   */\n      swap1\n      pop\n        /* \"#utility.yul\":11384:11668   */\n      jump(tag_404)\n    tag_406:\n        /* \"#utility.yul\":11388:11402   */\n      pop\n        /* \"#utility.yul\":11684:11687   */\n      dup6\n        /* \"#utility.yul\":11677:11687   */\n      swap4\n      pop\n        /* \"#utility.yul\":11085:11693   */\n      pop\n      pop\n      pop\n        /* \"#utility.yul\":10961:11693   */\n      swap3\n      swap2\n      pop\n      pop\n      jump\t// out\n        /* \"#utility.yul\":11699:11817   */\n    tag_229:\n        /* \"#utility.yul\":11786:11810   */\n      tag_410\n        /* \"#utility.yul\":11804:11809   */\n      dup2\n        /* \"#utility.yul\":11786:11810   */\n      tag_194\n      jump\t// in\n    tag_410:\n        /* \"#utility.yul\":11781:11784   */\n      dup3\n        /* \"#utility.yul\":11774:11811   */\n      mstore\n        /* \"#utility.yul\":11699:11817   */\n      pop\n      pop\n      jump\t// out\n        /* \"#utility.yul\":11823:12416   */\n    tag_42:\n        /* \"#utility.yul\":12022:12026   */\n      0x00\n        /* \"#utility.yul\":12060:12062   */\n      0x60\n        /* \"#utility.yul\":12049:12058   */\n      dup3\n        /* \"#utility.yul\":12045:12063   */\n      add\n        /* \"#utility.yul\":12037:12063   */\n      swap1\n      pop\n        /* \"#utility.yul\":12109:12118   */\n      dup2\n        /* \"#utility.yul\":12103:12107   */\n      dup2\n        /* \"#utility.yul\":12099:12119   */\n      sub\n        /* \"#utility.yul\":12095:12096   */\n      0x00\n        /* \"#utility.yul\":12084:12093   */\n      dup4\n        /* \"#utility.yul\":12080:12097   */\n      add\n        /* \"#utility.yul\":12073:12120   */\n      mstore\n        /* \"#utility.yul\":12137:12245   */\n      tag_412\n        /* \"#utility.yul\":12240:12244   */\n      dup2\n        /* \"#utility.yul\":12231:12237   */\n      dup7\n        /* \"#utility.yul\":12137:12245   */\n      tag_228\n      jump\t// in\n    tag_412:\n        /* \"#utility.yul\":12129:12245   */\n      swap1\n      pop\n        /* \"#utility.yul\":12255:12327   */\n      tag_413\n        /* \"#utility.yul\":12323:12325   */\n      0x20\n        /* \"#utility.yul\":12312:12321   */\n      dup4\n        /* \"#utility.yul\":12308:12326   */\n      add\n        /* \"#utility.yul\":12299:12305   */\n      dup6\n        /* \"#utility.yul\":12255:12327   */\n      tag_229\n      jump\t// in\n    tag_413:\n        /* \"#utility.yul\":12337:12409   */\n      tag_414\n        /* \"#utility.yul\":12405:12407   */\n      0x40\n        /* \"#utility.yul\":12394:12403   */\n      dup4\n        /* \"#utility.yul\":12390:12408   */\n      add\n        /* \"#utility.yul\":12381:12387   */\n      dup5\n        /* \"#utility.yul\":12337:12409   */\n      tag_218\n      jump\t// in\n    tag_414:\n        /* \"#utility.yul\":11823:12416   */\n      swap5\n      swap4\n      pop\n      pop\n      pop\n      pop\n      jump\t// out\n        /* \"#utility.yul\":12422:13076   */\n    tag_46:\n        /* \"#utility.yul\":12500:12506   */\n      0x00\n        /* \"#utility.yul\":12508:12514   */\n      dup1\n        /* \"#utility.yul\":12557:12559   */\n      0x40\n        /* \"#utility.yul\":12545:12554   */\n      dup4\n        /* \"#utility.yul\":12536:12543   */\n      dup6\n        /* \"#utility.yul\":12532:12555   */\n      sub\n        /* \"#utility.yul\":12528:12560   */\n      slt\n        /* \"#utility.yul\":12525:12644   */\n      iszero\n      tag_416\n      jumpi\n        /* \"#utility.yul\":12563:12642   */\n      tag_417\n      tag_191\n      jump\t// in\n    tag_417:\n        /* \"#utility.yul\":12525:12644   */\n    tag_416:\n        /* \"#utility.yul\":12683:12684   */\n      0x00\n        /* \"#utility.yul\":12708:12761   */\n      tag_418\n        /* \"#utility.yul\":12753:12760   */\n      dup6\n        /* \"#utility.yul\":12744:12750   */\n      dup3\n        /* \"#utility.yul\":12733:12742   */\n      dup7\n        /* \"#utility.yul\":12729:12751   */\n      add\n        /* \"#utility.yul\":12708:12761   */\n      tag_196\n      jump\t// in\n    tag_418:\n        /* \"#utility.yul\":12698:12761   */\n      swap3\n      pop\n        /* \"#utility.yul\":12654:12771   */\n      pop\n        /* \"#utility.yul\":12838:12840   */\n      0x20\n        /* \"#utility.yul\":12827:12836   */\n      dup4\n        /* \"#utility.yul\":12823:12841   */\n      add\n        /* \"#utility.yul\":12810:12842   */\n      calldataload\n        /* \"#utility.yul\":12869:12887   */\n      0xffffffffffffffff\n        /* \"#utility.yul\":12861:12867   */\n      dup2\n        /* \"#utility.yul\":12858:12888   */\n      gt\n        /* \"#utility.yul\":12855:12972   */\n      iszero\n      tag_419\n      jumpi\n        /* \"#utility.yul\":12891:12970   */\n      tag_420\n      tag_192\n      jump\t// in\n    tag_420:\n        /* \"#utility.yul\":12855:12972   */\n    tag_419:\n        /* \"#utility.yul\":12996:13059   */\n      tag_421\n        /* \"#utility.yul\":13051:13058   */\n      dup6\n        /* \"#utility.yul\":13042:13048   */\n      dup3\n        /* \"#utility.yul\":13031:13040   */\n      dup7\n        /* \"#utility.yul\":13027:13049   */\n      add\n        /* \"#utility.yul\":12996:13059   */\n      tag_205\n      jump\t// in\n    tag_421:\n        /* \"#utility.yul\":12986:13059   */\n      swap2\n      pop\n        /* \"#utility.yul\":12781:13069   */\n      pop\n        /* \"#utility.yul\":12422:13076   */\n      swap3\n      pop\n      swap3\n      swap1\n      pop\n      jump\t// out\n        /* \"#utility.yul\":13082:13175   */\n    tag_230:\n        /* \"#utility.yul\":13118:13125   */\n      0x00\n        /* \"#utility.yul\":13158:13168   */\n      0xffffffff\n        /* \"#utility.yul\":13151:13156   */\n      dup3\n        /* \"#utility.yul\":13147:13169   */\n      and\n        /* \"#utility.yul\":13136:13169   */\n      swap1\n      pop\n        /* \"#utility.yul\":13082:13175   */\n      swap2\n      swap1\n      pop\n      jump\t// out\n        /* \"#utility.yul\":13181:13296   */\n    tag_231:\n        /* \"#utility.yul\":13266:13289   */\n      tag_424\n        /* \"#utility.yul\":13283:13288   */\n      dup2\n        /* \"#utility.yul\":13266:13289   */\n      tag_230\n      jump\t// in\n    tag_424:\n        /* \"#utility.yul\":13261:13264   */\n      dup3\n        /* \"#utility.yul\":13254:13290   */\n      mstore\n        /* \"#utility.yul\":13181:13296   */\n      pop\n      pop\n      jump\t// out\n        /* \"#utility.yul\":13302:13417   */\n    tag_232:\n        /* \"#utility.yul\":13387:13410   */\n      tag_426\n        /* \"#utility.yul\":13404:13409   */\n      dup2\n        /* \"#utility.yul\":13387:13410   */\n      tag_211\n      jump\t// in\n    tag_426:\n        /* \"#utility.yul\":13382:13385   */\n      dup3\n        /* \"#utility.yul\":13375:13411   */\n      mstore\n        /* \"#utility.yul\":13302:13417   */\n      pop\n      pop\n      jump\t// out\n        /* \"#utility.yul\":13423:13513   */\n    tag_233:\n        /* \"#utility.yul\":13457:13464   */\n      0x00\n        /* \"#utility.yul\":13500:13505   */\n      dup2\n        /* \"#utility.yul\":13493:13506   */\n      iszero\n        /* \"#utility.yul\":13486:13507   */\n      iszero\n        /* \"#utility.yul\":13475:13507   */\n      swap1\n      pop\n        /* \"#utility.yul\":13423:13513   */\n      swap2\n      swap1\n      pop\n      jump\t// out\n        /* \"#utility.yul\":13519:13628   */\n    tag_234:\n        /* \"#utility.yul\":13600:13621   */\n      tag_429\n        /* \"#utility.yul\":13615:13620   */\n      dup2\n        /* \"#utility.yul\":13600:13621   */\n      tag_233\n      jump\t// in\n    tag_429:\n        /* \"#utility.yul\":13595:13598   */\n      dup3\n        /* \"#utility.yul\":13588:13622   */\n      mstore\n        /* \"#utility.yul\":13519:13628   */\n      pop\n      pop\n      jump\t// out\n        /* \"#utility.yul\":13634:14167   */\n    tag_53:\n        /* \"#utility.yul\":13801:13805   */\n      0x00\n        /* \"#utility.yul\":13839:13842   */\n      0x80\n        /* \"#utility.yul\":13828:13837   */\n      dup3\n        /* \"#utility.yul\":13824:13843   */\n      add\n        /* \"#utility.yul\":13816:13843   */\n      swap1\n      pop\n        /* \"#utility.yul\":13853:13924   */\n      tag_431\n        /* \"#utility.yul\":13921:13922   */\n      0x00\n        /* \"#utility.yul\":13910:13919   */\n      dup4\n        /* \"#utility.yul\":13906:13923   */\n      add\n        /* \"#utility.yul\":13897:13903   */\n      dup8\n        /* \"#utility.yul\":13853:13924   */\n      tag_229\n      jump\t// in\n    tag_431:\n        /* \"#utility.yul\":13934:14004   */\n      tag_432\n        /* \"#utility.yul\":14000:14002   */\n      0x20\n        /* \"#utility.yul\":13989:13998   */\n      dup4\n        /* \"#utility.yul\":13985:14003   */\n      add\n        /* \"#utility.yul\":13976:13982   */\n      dup7\n        /* \"#utility.yul\":13934:14004   */\n      tag_231\n      jump\t// in\n    tag_432:\n        /* \"#utility.yul\":14014:14084   */\n      tag_433\n        /* \"#utility.yul\":14080:14082   */\n      0x40\n        /* \"#utility.yul\":14069:14078   */\n      dup4\n        /* \"#utility.yul\":14065:14083   */\n      add\n        /* \"#utility.yul\":14056:14062   */\n      dup6\n        /* \"#utility.yul\":14014:14084   */\n      tag_232\n      jump\t// in\n    tag_433:\n        /* \"#utility.yul\":14094:14160   */\n      tag_434\n        /* \"#utility.yul\":14156:14158   */\n      0x60\n        /* \"#utility.yul\":14145:14154   */\n      dup4\n        /* \"#utility.yul\":14141:14159   */\n      add\n        /* \"#utility.yul\":14132:14138   */\n      dup5\n        /* \"#utility.yul\":14094:14160   */\n      tag_234\n      jump\t// in\n    tag_434:\n        /* \"#utility.yul\":13634:14167   */\n      swap6\n      swap5\n      pop\n      pop\n      pop\n      pop\n      pop\n      jump\t// out\n        /* \"#utility.yul\":14173:14502   */\n    tag_57:\n        /* \"#utility.yul\":14232:14238   */\n      0x00\n        /* \"#utility.yul\":14281:14283   */\n      0x20\n        /* \"#utility.yul\":14269:14278   */\n      dup3\n        /* \"#utility.yul\":14260:14267   */\n      dup5\n        /* \"#utility.yul\":14256:14279   */\n      sub\n        /* \"#utility.yul\":14252:14284   */\n      slt\n        /* \"#utility.yul\":14249:14368   */\n      iszero\n      tag_436\n      jumpi\n        /* \"#utility.yul\":14287:14366   */\n      tag_437\n      tag_191\n      jump\t// in\n    tag_437:\n        /* \"#utility.yul\":14249:14368   */\n    tag_436:\n        /* \"#utility.yul\":14407:14408   */\n      0x00\n        /* \"#utility.yul\":14432:14485   */\n      tag_438\n        /* \"#utility.yul\":14477:14484   */\n      dup5\n        /* \"#utility.yul\":14468:14474   */\n      dup3\n        /* \"#utility.yul\":14457:14466   */\n      dup6\n        /* \"#utility.yul\":14453:14475   */\n      add\n        /* \"#utility.yul\":14432:14485   */\n      tag_196\n      jump\t// in\n    tag_438:\n        /* \"#utility.yul\":14422:14485   */\n      swap2\n      pop\n        /* \"#utility.yul\":14378:14495   */\n      pop\n        /* \"#utility.yul\":14173:14502   */\n      swap3\n      swap2\n      pop\n      pop\n      jump\t// out\n        /* \"#utility.yul\":14508:14730   */\n    tag_60:\n        /* \"#utility.yul\":14601:14605   */\n      0x00\n        /* \"#utility.yul\":14639:14641   */\n      0x20\n        /* \"#utility.yul\":14628:14637   */\n      dup3\n        /* \"#utility.yul\":14624:14642   */\n      add\n        /* \"#utility.yul\":14616:14642   */\n      swap1\n      pop\n        /* \"#utility.yul\":14652:14723   */\n      tag_440\n        /* \"#utility.yul\":14720:14721   */\n      0x00\n        /* \"#utility.yul\":14709:14718   */\n      dup4\n        /* \"#utility.yul\":14705:14722   */\n      add\n        /* \"#utility.yul\":14696:14702   */\n      dup5\n        /* \"#utility.yul\":14652:14723   */\n      tag_218\n      jump\t// in\n    tag_440:\n        /* \"#utility.yul\":14508:14730   */\n      swap3\n      swap2\n      pop\n      pop\n      jump\t// out\n        /* \"#utility.yul\":14736:14850   */\n    tag_235:\n        /* \"#utility.yul\":14803:14809   */\n      0x00\n        /* \"#utility.yul\":14837:14842   */\n      dup2\n        /* \"#utility.yul\":14831:14843   */\n      mload\n        /* \"#utility.yul\":14821:14843   */\n      swap1\n      pop\n        /* \"#utility.yul\":14736:14850   */\n      swap2\n      swap1\n      pop\n      jump\t// out\n        /* \"#utility.yul\":14856:15040   */\n    tag_236:\n        /* \"#utility.yul\":14955:14966   */\n      0x00\n        /* \"#utility.yul\":14989:14995   */\n      dup3\n        /* \"#utility.yul\":14984:14987   */\n      dup3\n        /* \"#utility.yul\":14977:14996   */\n      mstore\n        /* \"#utility.yul\":15029:15033   */\n      0x20\n        /* \"#utility.yul\":15024:15027   */\n      dup3\n        /* \"#utility.yul\":15020:15034   */\n      add\n        /* \"#utility.yul\":15005:15034   */\n      swap1\n      pop\n        /* \"#utility.yul\":14856:15040   */\n      swap3\n      swap2\n      pop\n      pop\n      jump\t// out\n        /* \"#utility.yul\":15046:15178   */\n    tag_237:\n        /* \"#utility.yul\":15113:15117   */\n      0x00\n        /* \"#utility.yul\":15136:15139   */\n      dup2\n        /* \"#utility.yul\":15128:15139   */\n      swap1\n      pop\n        /* \"#utility.yul\":15166:15170   */\n      0x20\n        /* \"#utility.yul\":15161:15164   */\n      dup3\n        /* \"#utility.yul\":15157:15171   */\n      add\n        /* \"#utility.yul\":15149:15171   */\n      swap1\n      pop\n        /* \"#utility.yul\":15046:15178   */\n      swap2\n      swap1\n      pop\n      jump\t// out\n        /* \"#utility.yul\":15184:15292   */\n    tag_238:\n        /* \"#utility.yul\":15261:15285   */\n      tag_445\n        /* \"#utility.yul\":15279:15284   */\n      dup2\n        /* \"#utility.yul\":15261:15285   */\n      tag_194\n      jump\t// in\n    tag_445:\n        /* \"#utility.yul\":15256:15259   */\n      dup3\n        /* \"#utility.yul\":15249:15286   */\n      mstore\n        /* \"#utility.yul\":15184:15292   */\n      pop\n      pop\n      jump\t// out\n        /* \"#utility.yul\":15298:15477   */\n    tag_239:\n        /* \"#utility.yul\":15367:15377   */\n      0x00\n        /* \"#utility.yul\":15388:15434   */\n      tag_447\n        /* \"#utility.yul\":15430:15433   */\n      dup4\n        /* \"#utility.yul\":15422:15428   */\n      dup4\n        /* \"#utility.yul\":15388:15434   */\n      tag_238\n      jump\t// in\n    tag_447:\n        /* \"#utility.yul\":15466:15470   */\n      0x20\n        /* \"#utility.yul\":15461:15464   */\n      dup4\n        /* \"#utility.yul\":15457:15471   */\n      add\n        /* \"#utility.yul\":15443:15471   */\n      swap1\n      pop\n        /* \"#utility.yul\":15298:15477   */\n      swap3\n      swap2\n      pop\n      pop\n      jump\t// out\n        /* \"#utility.yul\":15483:15596   */\n    tag_240:\n        /* \"#utility.yul\":15553:15557   */\n      0x00\n        /* \"#utility.yul\":15585:15589   */\n      0x20\n        /* \"#utility.yul\":15580:15583   */\n      dup3\n        /* \"#utility.yul\":15576:15590   */\n      add\n        /* \"#utility.yul\":15568:15590   */\n      swap1\n      pop\n        /* \"#utility.yul\":15483:15596   */\n      swap2\n      swap1\n      pop\n      jump\t// out\n        /* \"#utility.yul\":15632:16364   */\n    tag_241:\n        /* \"#utility.yul\":15751:15754   */\n      0x00\n        /* \"#utility.yul\":15780:15834   */\n      tag_450\n        /* \"#utility.yul\":15828:15833   */\n      dup3\n        /* \"#utility.yul\":15780:15834   */\n      tag_235\n      jump\t// in\n    tag_450:\n        /* \"#utility.yul\":15850:15936   */\n      tag_451\n        /* \"#utility.yul\":15929:15935   */\n      dup2\n        /* \"#utility.yul\":15924:15927   */\n      dup6\n        /* \"#utility.yul\":15850:15936   */\n      tag_236\n      jump\t// in\n    tag_451:\n        /* \"#utility.yul\":15843:15936   */\n      swap4\n      pop\n        /* \"#utility.yul\":15960:16016   */\n      tag_452\n        /* \"#utility.yul\":16010:16015   */\n      dup4\n        /* \"#utility.yul\":15960:16016   */\n      tag_237\n      jump\t// in\n    tag_452:\n        /* \"#utility.yul\":16039:16046   */\n      dup1\n        /* \"#utility.yul\":16070:16071   */\n      0x00\n        /* \"#utility.yul\":16055:16339   */\n    tag_453:\n        /* \"#utility.yul\":16080:16086   */\n      dup4\n        /* \"#utility.yul\":16077:16078   */\n      dup2\n        /* \"#utility.yul\":16074:16087   */\n      lt\n        /* \"#utility.yul\":16055:16339   */\n      iszero\n      tag_455\n      jumpi\n        /* \"#utility.yul\":16156:16162   */\n      dup2\n        /* \"#utility.yul\":16150:16163   */\n      mload\n        /* \"#utility.yul\":16183:16246   */\n      tag_456\n        /* \"#utility.yul\":16242:16245   */\n      dup9\n        /* \"#utility.yul\":16227:16240   */\n      dup3\n        /* \"#utility.yul\":16183:16246   */\n      tag_239\n      jump\t// in\n    tag_456:\n        /* \"#utility.yul\":16176:16246   */\n      swap8\n      pop\n        /* \"#utility.yul\":16269:16329   */\n      tag_457\n        /* \"#utility.yul\":16322:16328   */\n      dup4\n        /* \"#utility.yul\":16269:16329   */\n      tag_240\n      jump\t// in\n    tag_457:\n        /* \"#utility.yul\":16259:16329   */\n      swap3\n      pop\n        /* \"#utility.yul\":16115:16339   */\n      pop\n        /* \"#utility.yul\":16102:16103   */\n      0x01\n        /* \"#utility.yul\":16099:16100   */\n      dup2\n        /* \"#utility.yul\":16095:16104   */\n      add\n        /* \"#utility.yul\":16090:16104   */\n      swap1\n      pop\n        /* \"#utility.yul\":16055:16339   */\n      jump(tag_453)\n    tag_455:\n        /* \"#utility.yul\":16059:16073   */\n      pop\n        /* \"#utility.yul\":16355:16358   */\n      dup6\n        /* \"#utility.yul\":16348:16358   */\n      swap4\n      pop\n        /* \"#utility.yul\":15756:16364   */\n      pop\n      pop\n      pop\n        /* \"#utility.yul\":15632:16364   */\n      swap3\n      swap2\n      pop\n      pop\n      jump\t// out\n        /* \"#utility.yul\":16370:16743   */\n    tag_71:\n        /* \"#utility.yul\":16513:16517   */\n      0x00\n        /* \"#utility.yul\":16551:16553   */\n      0x20\n        /* \"#utility.yul\":16540:16549   */\n      dup3\n        /* \"#utility.yul\":16536:16554   */\n      add\n        /* \"#utility.yul\":16528:16554   */\n      swap1\n      pop\n        /* \"#utility.yul\":16600:16609   */\n      dup2\n        /* \"#utility.yul\":16594:16598   */\n      dup2\n        /* \"#utility.yul\":16590:16610   */\n      sub\n        /* \"#utility.yul\":16586:16587   */\n      0x00\n        /* \"#utility.yul\":16575:16584   */\n      dup4\n        /* \"#utility.yul\":16571:16588   */\n      add\n        /* \"#utility.yul\":16564:16611   */\n      mstore\n        /* \"#utility.yul\":16628:16736   */\n      tag_459\n        /* \"#utility.yul\":16731:16735   */\n      dup2\n        /* \"#utility.yul\":16722:16728   */\n      dup5\n        /* \"#utility.yul\":16628:16736   */\n      tag_241\n      jump\t// in\n    tag_459:\n        /* \"#utility.yul\":16620:16736   */\n      swap1\n      pop\n        /* \"#utility.yul\":16370:16743   */\n      swap3\n      swap2\n      pop\n      pop\n      jump\t// out\n        /* \"#utility.yul\":16749:17403   */\n    tag_75:\n        /* \"#utility.yul\":16827:16833   */\n      0x00\n        /* \"#utility.yul\":16835:16841   */\n      dup1\n        /* \"#utility.yul\":16884:16886   */\n      0x40\n        /* \"#utility.yul\":16872:16881   */\n      dup4\n        /* \"#utility.yul\":16863:16870   */\n      dup6\n        /* \"#utility.yul\":16859:16882   */\n      sub\n        /* \"#utility.yul\":16855:16887   */\n      slt\n        /* \"#utility.yul\":16852:16971   */\n      iszero\n      tag_461\n      jumpi\n        /* \"#utility.yul\":16890:16969   */\n      tag_462\n      tag_191\n      jump\t// in\n    tag_462:\n        /* \"#utility.yul\":16852:16971   */\n    tag_461:\n        /* \"#utility.yul\":17038:17039   */\n      0x00\n        /* \"#utility.yul\":17027:17036   */\n      dup4\n        /* \"#utility.yul\":17023:17040   */\n      add\n        /* \"#utility.yul\":17010:17041   */\n      calldataload\n        /* \"#utility.yul\":17068:17086   */\n      0xffffffffffffffff\n        /* \"#utility.yul\":17060:17066   */\n      dup2\n        /* \"#utility.yul\":17057:17087   */\n      gt\n        /* \"#utility.yul\":17054:17171   */\n      iszero\n      tag_463\n      jumpi\n        /* \"#utility.yul\":17090:17169   */\n      tag_464\n      tag_192\n      jump\t// in\n    tag_464:\n        /* \"#utility.yul\":17054:17171   */\n    tag_463:\n        /* \"#utility.yul\":17195:17258   */\n      tag_465\n        /* \"#utility.yul\":17250:17257   */\n      dup6\n        /* \"#utility.yul\":17241:17247   */\n      dup3\n        /* \"#utility.yul\":17230:17239   */\n      dup7\n        /* \"#utility.yul\":17226:17248   */\n      add\n        /* \"#utility.yul\":17195:17258   */\n      tag_205\n      jump\t// in\n    tag_465:\n        /* \"#utility.yul\":17185:17258   */\n      swap3\n      pop\n        /* \"#utility.yul\":16981:17268   */\n      pop\n        /* \"#utility.yul\":17307:17309   */\n      0x20\n        /* \"#utility.yul\":17333:17386   */\n      tag_466\n        /* \"#utility.yul\":17378:17385   */\n      dup6\n        /* \"#utility.yul\":17369:17375   */\n      dup3\n        /* \"#utility.yul\":17358:17367   */\n      dup7\n        /* \"#utility.yul\":17354:17376   */\n      add\n        /* \"#utility.yul\":17333:17386   */\n      tag_208\n      jump\t// in\n    tag_466:\n        /* \"#utility.yul\":17323:17386   */\n      swap2\n      pop\n        /* \"#utility.yul\":17278:17396   */\n      pop\n        /* \"#utility.yul\":16749:17403   */\n      swap3\n      pop\n      swap3\n      swap1\n      pop\n      jump\t// out\n        /* \"#utility.yul\":17409:17741   */\n    tag_78:\n        /* \"#utility.yul\":17530:17534   */\n      0x00\n        /* \"#utility.yul\":17568:17570   */\n      0x40\n        /* \"#utility.yul\":17557:17566   */\n      dup3\n        /* \"#utility.yul\":17553:17571   */\n      add\n        /* \"#utility.yul\":17545:17571   */\n      swap1\n      pop\n        /* \"#utility.yul\":17581:17652   */\n      tag_468\n        /* \"#utility.yul\":17649:17650   */\n      0x00\n        /* \"#utility.yul\":17638:17647   */\n      dup4\n        /* \"#utility.yul\":17634:17651   */\n      add\n        /* \"#utility.yul\":17625:17631   */\n      dup6\n        /* \"#utility.yul\":17581:17652   */\n      tag_218\n      jump\t// in\n    tag_468:\n        /* \"#utility.yul\":17662:17734   */\n      tag_469\n        /* \"#utility.yul\":17730:17732   */\n      0x20\n        /* \"#utility.yul\":17719:17728   */\n      dup4\n        /* \"#utility.yul\":17715:17733   */\n      add\n        /* \"#utility.yul\":17706:17712   */\n      dup5\n        /* \"#utility.yul\":17662:17734   */\n      tag_229\n      jump\t// in\n    tag_469:\n        /* \"#utility.yul\":17409:17741   */\n      swap4\n      swap3\n      pop\n      pop\n      pop\n      jump\t// out\n        /* \"#utility.yul\":17747:17841   */\n    tag_242:\n        /* \"#utility.yul\":17780:17788   */\n      0x00\n        /* \"#utility.yul\":17828:17833   */\n      dup2\n        /* \"#utility.yul\":17824:17826   */\n      0x60\n        /* \"#utility.yul\":17820:17834   */\n      shl\n        /* \"#utility.yul\":17799:17834   */\n      swap1\n      pop\n        /* \"#utility.yul\":17747:17841   */\n      swap2\n      swap1\n      pop\n      jump\t// out\n        /* \"#utility.yul\":17847:17941   */\n    tag_243:\n        /* \"#utility.yul\":17886:17893   */\n      0x00\n        /* \"#utility.yul\":17915:17935   */\n      tag_472\n        /* \"#utility.yul\":17929:17934   */\n      dup3\n        /* \"#utility.yul\":17915:17935   */\n      tag_242\n      jump\t// in\n    tag_472:\n        /* \"#utility.yul\":17904:17935   */\n      swap1\n      pop\n        /* \"#utility.yul\":17847:17941   */\n      swap2\n      swap1\n      pop\n      jump\t// out\n        /* \"#utility.yul\":17947:18047   */\n    tag_244:\n        /* \"#utility.yul\":17986:17993   */\n      0x00\n        /* \"#utility.yul\":18015:18041   */\n      tag_474\n        /* \"#utility.yul\":18035:18040   */\n      dup3\n        /* \"#utility.yul\":18015:18041   */\n      tag_243\n      jump\t// in\n    tag_474:\n        /* \"#utility.yul\":18004:18041   */\n      swap1\n      pop\n        /* \"#utility.yul\":17947:18047   */\n      swap2\n      swap1\n      pop\n      jump\t// out\n        /* \"#utility.yul\":18053:18210   */\n    tag_245:\n        /* \"#utility.yul\":18158:18203   */\n      tag_476\n        /* \"#utility.yul\":18178:18202   */\n      tag_477\n        /* \"#utility.yul\":18196:18201   */\n      dup3\n        /* \"#utility.yul\":18178:18202   */\n      tag_194\n      jump\t// in\n    tag_477:\n        /* \"#utility.yul\":18158:18203   */\n      tag_244\n      jump\t// in\n    tag_476:\n        /* \"#utility.yul\":18153:18156   */\n      dup3\n        /* \"#utility.yul\":18146:18204   */\n      mstore\n        /* \"#utility.yul\":18053:18210   */\n      pop\n      pop\n      jump\t// out\n        /* \"#utility.yul\":18216:18364   */\n    tag_246:\n        /* \"#utility.yul\":18318:18329   */\n      0x00\n        /* \"#utility.yul\":18355:18358   */\n      dup2\n        /* \"#utility.yul\":18340:18358   */\n      swap1\n      pop\n        /* \"#utility.yul\":18216:18364   */\n      swap3\n      swap2\n      pop\n      pop\n      jump\t// out\n        /* \"#utility.yul\":18370:18543   */\n    tag_247:\n        /* \"#utility.yul\":18510:18535   */\n      0x6d6574617472616e73616374696f6e20566f74696e6720000000000000000000\n        /* \"#utility.yul\":18506:18507   */\n      0x00\n        /* \"#utility.yul\":18498:18504   */\n      dup3\n        /* \"#utility.yul\":18494:18508   */\n      add\n        /* \"#utility.yul\":18487:18536   */\n      mstore\n        /* \"#utility.yul\":18370:18543   */\n      pop\n      jump\t// out\n        /* \"#utility.yul\":18549:18951   */\n    tag_248:\n        /* \"#utility.yul\":18709:18712   */\n      0x00\n        /* \"#utility.yul\":18730:18815   */\n      tag_481\n        /* \"#utility.yul\":18812:18814   */\n      0x17\n        /* \"#utility.yul\":18807:18810   */\n      dup4\n        /* \"#utility.yul\":18730:18815   */\n      tag_246\n      jump\t// in\n    tag_481:\n        /* \"#utility.yul\":18723:18815   */\n      swap2\n      pop\n        /* \"#utility.yul\":18824:18917   */\n      tag_482\n        /* \"#utility.yul\":18913:18916   */\n      dup3\n        /* \"#utility.yul\":18824:18917   */\n      tag_247\n      jump\t// in\n    tag_482:\n        /* \"#utility.yul\":18942:18944   */\n      0x17\n        /* \"#utility.yul\":18937:18940   */\n      dup3\n        /* \"#utility.yul\":18933:18945   */\n      add\n        /* \"#utility.yul\":18926:18945   */\n      swap1\n      pop\n        /* \"#utility.yul\":18549:18951   */\n      swap2\n      swap1\n      pop\n      jump\t// out\n        /* \"#utility.yul\":18957:19334   */\n    tag_249:\n        /* \"#utility.yul\":19063:19066   */\n      0x00\n        /* \"#utility.yul\":19091:19130   */\n      tag_484\n        /* \"#utility.yul\":19124:19129   */\n      dup3\n        /* \"#utility.yul\":19091:19130   */\n      tag_214\n      jump\t// in\n    tag_484:\n        /* \"#utility.yul\":19146:19235   */\n      tag_485\n        /* \"#utility.yul\":19228:19234   */\n      dup2\n        /* \"#utility.yul\":19223:19226   */\n      dup6\n        /* \"#utility.yul\":19146:19235   */\n      tag_246\n      jump\t// in\n    tag_485:\n        /* \"#utility.yul\":19139:19235   */\n      swap4\n      pop\n        /* \"#utility.yul\":19244:19296   */\n      tag_486\n        /* \"#utility.yul\":19289:19295   */\n      dup2\n        /* \"#utility.yul\":19284:19287   */\n      dup6\n        /* \"#utility.yul\":19277:19281   */\n      0x20\n        /* \"#utility.yul\":19270:19275   */\n      dup7\n        /* \"#utility.yul\":19266:19282   */\n      add\n        /* \"#utility.yul\":19244:19296   */\n      tag_216\n      jump\t// in\n    tag_486:\n        /* \"#utility.yul\":19321:19327   */\n      dup1\n        /* \"#utility.yul\":19316:19319   */\n      dup5\n        /* \"#utility.yul\":19312:19328   */\n      add\n        /* \"#utility.yul\":19305:19328   */\n      swap2\n      pop\n        /* \"#utility.yul\":19067:19334   */\n      pop\n        /* \"#utility.yul\":18957:19334   */\n      swap3\n      swap2\n      pop\n      pop\n      jump\t// out\n        /* \"#utility.yul\":19340:19419   */\n    tag_250:\n        /* \"#utility.yul\":19379:19386   */\n      0x00\n        /* \"#utility.yul\":19408:19413   */\n      dup2\n        /* \"#utility.yul\":19397:19413   */\n      swap1\n      pop\n        /* \"#utility.yul\":19340:19419   */\n      swap2\n      swap1\n      pop\n      jump\t// out\n        /* \"#utility.yul\":19425:19582   */\n    tag_251:\n        /* \"#utility.yul\":19530:19575   */\n      tag_489\n        /* \"#utility.yul\":19550:19574   */\n      tag_490\n        /* \"#utility.yul\":19568:19573   */\n      dup3\n        /* \"#utility.yul\":19550:19574   */\n      tag_206\n      jump\t// in\n    tag_490:\n        /* \"#utility.yul\":19530:19575   */\n      tag_250\n      jump\t// in\n    tag_489:\n        /* \"#utility.yul\":19525:19528   */\n      dup3\n        /* \"#utility.yul\":19518:19576   */\n      mstore\n        /* \"#utility.yul\":19425:19582   */\n      pop\n      pop\n      jump\t// out\n        /* \"#utility.yul\":19588:20693   */\n    tag_85:\n        /* \"#utility.yul\":19933:19936   */\n      0x00\n        /* \"#utility.yul\":19948:20023   */\n      tag_492\n        /* \"#utility.yul\":20019:20022   */\n      dup3\n        /* \"#utility.yul\":20010:20016   */\n      dup9\n        /* \"#utility.yul\":19948:20023   */\n      tag_245\n      jump\t// in\n    tag_492:\n        /* \"#utility.yul\":20048:20050   */\n      0x14\n        /* \"#utility.yul\":20043:20046   */\n      dup3\n        /* \"#utility.yul\":20039:20051   */\n      add\n        /* \"#utility.yul\":20032:20051   */\n      swap2\n      pop\n        /* \"#utility.yul\":20068:20216   */\n      tag_493\n        /* \"#utility.yul\":20212:20215   */\n      dup3\n        /* \"#utility.yul\":20068:20216   */\n      tag_248\n      jump\t// in\n    tag_493:\n        /* \"#utility.yul\":20061:20216   */\n      swap2\n      pop\n        /* \"#utility.yul\":20226:20301   */\n      tag_494\n        /* \"#utility.yul\":20297:20300   */\n      dup3\n        /* \"#utility.yul\":20288:20294   */\n      dup8\n        /* \"#utility.yul\":20226:20301   */\n      tag_245\n      jump\t// in\n    tag_494:\n        /* \"#utility.yul\":20326:20328   */\n      0x14\n        /* \"#utility.yul\":20321:20324   */\n      dup3\n        /* \"#utility.yul\":20317:20329   */\n      add\n        /* \"#utility.yul\":20310:20329   */\n      swap2\n      pop\n        /* \"#utility.yul\":20346:20441   */\n      tag_495\n        /* \"#utility.yul\":20437:20440   */\n      dup3\n        /* \"#utility.yul\":20428:20434   */\n      dup7\n        /* \"#utility.yul\":20346:20441   */\n      tag_249\n      jump\t// in\n    tag_495:\n        /* \"#utility.yul\":20339:20441   */\n      swap2\n      pop\n        /* \"#utility.yul\":20451:20526   */\n      tag_496\n        /* \"#utility.yul\":20522:20525   */\n      dup3\n        /* \"#utility.yul\":20513:20519   */\n      dup6\n        /* \"#utility.yul\":20451:20526   */\n      tag_251\n      jump\t// in\n    tag_496:\n        /* \"#utility.yul\":20551:20553   */\n      0x20\n        /* \"#utility.yul\":20546:20549   */\n      dup3\n        /* \"#utility.yul\":20542:20554   */\n      add\n        /* \"#utility.yul\":20535:20554   */\n      swap2\n      pop\n        /* \"#utility.yul\":20564:20639   */\n      tag_497\n        /* \"#utility.yul\":20635:20638   */\n      dup3\n        /* \"#utility.yul\":20626:20632   */\n      dup5\n        /* \"#utility.yul\":20564:20639   */\n      tag_251\n      jump\t// in\n    tag_497:\n        /* \"#utility.yul\":20664:20666   */\n      0x20\n        /* \"#utility.yul\":20659:20662   */\n      dup3\n        /* \"#utility.yul\":20655:20667   */\n      add\n        /* \"#utility.yul\":20648:20667   */\n      swap2\n      pop\n        /* \"#utility.yul\":20684:20687   */\n      dup2\n        /* \"#utility.yul\":20677:20687   */\n      swap1\n      pop\n        /* \"#utility.yul\":19588:20693   */\n      swap7\n      swap6\n      pop\n      pop\n      pop\n      pop\n      pop\n      pop\n      jump\t// out\n        /* \"#utility.yul\":20699:20974   */\n    tag_88:\n        /* \"#utility.yul\":20831:20834   */\n      0x00\n        /* \"#utility.yul\":20853:20948   */\n      tag_499\n        /* \"#utility.yul\":20944:20947   */\n      dup3\n        /* \"#utility.yul\":20935:20941   */\n      dup5\n        /* \"#utility.yul\":20853:20948   */\n      tag_249\n      jump\t// in\n    tag_499:\n        /* \"#utility.yul\":20846:20948   */\n      swap2\n      pop\n        /* \"#utility.yul\":20965:20968   */\n      dup2\n        /* \"#utility.yul\":20958:20968   */\n      swap1\n      pop\n        /* \"#utility.yul\":20699:20974   */\n      swap3\n      swap2\n      pop\n      pop\n      jump\t// out\n        /* \"#utility.yul\":20980:21209   */\n    tag_252:\n        /* \"#utility.yul\":21120:21154   */\n      0x54686973206164647265737320646f6573206e6f742065786973742061732061\n        /* \"#utility.yul\":21116:21117   */\n      0x00\n        /* \"#utility.yul\":21108:21114   */\n      dup3\n        /* \"#utility.yul\":21104:21118   */\n      add\n        /* \"#utility.yul\":21097:21155   */\n      mstore\n        /* \"#utility.yul\":21189:21201   */\n      0x2063616e64696461746500000000000000000000000000000000000000000000\n        /* \"#utility.yul\":21184:21186   */\n      0x20\n        /* \"#utility.yul\":21176:21182   */\n      dup3\n        /* \"#utility.yul\":21172:21187   */\n      add\n        /* \"#utility.yul\":21165:21202   */\n      mstore\n        /* \"#utility.yul\":20980:21209   */\n      pop\n      jump\t// out\n        /* \"#utility.yul\":21215:21581   */\n    tag_253:\n        /* \"#utility.yul\":21357:21360   */\n      0x00\n        /* \"#utility.yul\":21378:21445   */\n      tag_502\n        /* \"#utility.yul\":21442:21444   */\n      0x2a\n        /* \"#utility.yul\":21437:21440   */\n      dup4\n        /* \"#utility.yul\":21378:21445   */\n      tag_215\n      jump\t// in\n    tag_502:\n        /* \"#utility.yul\":21371:21445   */\n      swap2\n      pop\n        /* \"#utility.yul\":21454:21547   */\n      tag_503\n        /* \"#utility.yul\":21543:21546   */\n      dup3\n        /* \"#utility.yul\":21454:21547   */\n      tag_252\n      jump\t// in\n    tag_503:\n        /* \"#utility.yul\":21572:21574   */\n      0x40\n        /* \"#utility.yul\":21567:21570   */\n      dup3\n        /* \"#utility.yul\":21563:21575   */\n      add\n        /* \"#utility.yul\":21556:21575   */\n      swap1\n      pop\n        /* \"#utility.yul\":21215:21581   */\n      swap2\n      swap1\n      pop\n      jump\t// out\n        /* \"#utility.yul\":21587:22006   */\n    tag_93:\n        /* \"#utility.yul\":21753:21757   */\n      0x00\n        /* \"#utility.yul\":21791:21793   */\n      0x20\n        /* \"#utility.yul\":21780:21789   */\n      dup3\n        /* \"#utility.yul\":21776:21794   */\n      add\n        /* \"#utility.yul\":21768:21794   */\n      swap1\n      pop\n        /* \"#utility.yul\":21840:21849   */\n      dup2\n        /* \"#utility.yul\":21834:21838   */\n      dup2\n        /* \"#utility.yul\":21830:21850   */\n      sub\n        /* \"#utility.yul\":21826:21827   */\n      0x00\n        /* \"#utility.yul\":21815:21824   */\n      dup4\n        /* \"#utility.yul\":21811:21828   */\n      add\n        /* \"#utility.yul\":21804:21851   */\n      mstore\n        /* \"#utility.yul\":21868:21999   */\n      tag_505\n        /* \"#utility.yul\":21994:21998   */\n      dup2\n        /* \"#utility.yul\":21868:21999   */\n      tag_253\n      jump\t// in\n    tag_505:\n        /* \"#utility.yul\":21860:21999   */\n      swap1\n      pop\n        /* \"#utility.yul\":21587:22006   */\n      swap2\n      swap1\n      pop\n      jump\t// out\n        /* \"#utility.yul\":22012:22178   */\n    tag_254:\n        /* \"#utility.yul\":22152:22170   */\n      0x766f74696e672068617320656e64656400000000000000000000000000000000\n        /* \"#utility.yul\":22148:22149   */\n      0x00\n        /* \"#utility.yul\":22140:22146   */\n      dup3\n        /* \"#utility.yul\":22136:22150   */\n      add\n        /* \"#utility.yul\":22129:22171   */\n      mstore\n        /* \"#utility.yul\":22012:22178   */\n      pop\n      jump\t// out\n        /* \"#utility.yul\":22184:22550   */\n    tag_255:\n        /* \"#utility.yul\":22326:22329   */\n      0x00\n        /* \"#utility.yul\":22347:22414   */\n      tag_508\n        /* \"#utility.yul\":22411:22413   */\n      0x10\n        /* \"#utility.yul\":22406:22409   */\n      dup4\n        /* \"#utility.yul\":22347:22414   */\n      tag_215\n      jump\t// in\n    tag_508:\n        /* \"#utility.yul\":22340:22414   */\n      swap2\n      pop\n        /* \"#utility.yul\":22423:22516   */\n      tag_509\n        /* \"#utility.yul\":22512:22515   */\n      dup3\n        /* \"#utility.yul\":22423:22516   */\n      tag_254\n      jump\t// in\n    tag_509:\n        /* \"#utility.yul\":22541:22543   */\n      0x20\n        /* \"#utility.yul\":22536:22539   */\n      dup3\n        /* \"#utility.yul\":22532:22544   */\n      add\n        /* \"#utility.yul\":22525:22544   */\n      swap1\n      pop\n        /* \"#utility.yul\":22184:22550   */\n      swap2\n      swap1\n      pop\n      jump\t// out\n        /* \"#utility.yul\":22556:22975   */\n    tag_98:\n        /* \"#utility.yul\":22722:22726   */\n      0x00\n        /* \"#utility.yul\":22760:22762   */\n      0x20\n        /* \"#utility.yul\":22749:22758   */\n      dup3\n        /* \"#utility.yul\":22745:22763   */\n      add\n        /* \"#utility.yul\":22737:22763   */\n      swap1\n      pop\n        /* \"#utility.yul\":22809:22818   */\n      dup2\n        /* \"#utility.yul\":22803:22807   */\n      dup2\n        /* \"#utility.yul\":22799:22819   */\n      sub\n        /* \"#utility.yul\":22795:22796   */\n      0x00\n        /* \"#utility.yul\":22784:22793   */\n      dup4\n        /* \"#utility.yul\":22780:22797   */\n      add\n        /* \"#utility.yul\":22773:22820   */\n      mstore\n        /* \"#utility.yul\":22837:22968   */\n      tag_511\n        /* \"#utility.yul\":22963:22967   */\n      dup2\n        /* \"#utility.yul\":22837:22968   */\n      tag_255\n      jump\t// in\n    tag_511:\n        /* \"#utility.yul\":22829:22968   */\n      swap1\n      pop\n        /* \"#utility.yul\":22556:22975   */\n      swap2\n      swap1\n      pop\n      jump\t// out\n        /* \"#utility.yul\":22981:23161   */\n    tag_256:\n        /* \"#utility.yul\":23029:23106   */\n      0x4e487b7100000000000000000000000000000000000000000000000000000000\n        /* \"#utility.yul\":23026:23027   */\n      0x00\n        /* \"#utility.yul\":23019:23107   */\n      mstore\n        /* \"#utility.yul\":23126:23130   */\n      0x11\n        /* \"#utility.yul\":23123:23124   */\n      0x04\n        /* \"#utility.yul\":23116:23131   */\n      mstore\n        /* \"#utility.yul\":23150:23154   */\n      0x24\n        /* \"#utility.yul\":23147:23148   */\n      0x00\n        /* \"#utility.yul\":23140:23155   */\n      revert\n        /* \"#utility.yul\":23167:23400   */\n    tag_106:\n        /* \"#utility.yul\":23206:23209   */\n      0x00\n        /* \"#utility.yul\":23229:23253   */\n      tag_514\n        /* \"#utility.yul\":23247:23252   */\n      dup3\n        /* \"#utility.yul\":23229:23253   */\n      tag_206\n      jump\t// in\n    tag_514:\n        /* \"#utility.yul\":23220:23253   */\n      swap2\n      pop\n        /* \"#utility.yul\":23275:23341   */\n      0xffffffffffffffffffffffffffffffffffffffffffffffffffffffffffffffff\n        /* \"#utility.yul\":23268:23273   */\n      dup3\n        /* \"#utility.yul\":23265:23342   */\n      eq\n        /* \"#utility.yul\":23262:23365   */\n      iszero\n      tag_515\n      jumpi\n        /* \"#utility.yul\":23345:23363   */\n      tag_516\n      tag_256\n      jump\t// in\n    tag_516:\n        /* \"#utility.yul\":23262:23365   */\n    tag_515:\n        /* \"#utility.yul\":23392:23393   */\n      0x01\n        /* \"#utility.yul\":23385:23390   */\n      dup3\n        /* \"#utility.yul\":23381:23394   */\n      add\n        /* \"#utility.yul\":23374:23394   */\n      swap1\n      pop\n        /* \"#utility.yul\":23167:23400   */\n      swap2\n      swap1\n      pop\n      jump\t// out\n        /* \"#utility.yul\":23406:23573   */\n    tag_257:\n        /* \"#utility.yul\":23546:23565   */\n      0x596f7520616c726561647920766f746564000000000000000000000000000000\n        /* \"#utility.yul\":23542:23543   */\n      0x00\n        /* \"#utility.yul\":23534:23540   */\n      dup3\n        /* \"#utility.yul\":23530:23544   */\n      add\n        /* \"#utility.yul\":23523:23566   */\n      mstore\n        /* \"#utility.yul\":23406:23573   */\n      pop\n      jump\t// out\n        /* \"#utility.yul\":23579:23945   */\n    tag_258:\n        /* \"#utility.yul\":23721:23724   */\n      0x00\n        /* \"#utility.yul\":23742:23809   */\n      tag_519\n        /* \"#utility.yul\":23806:23808   */\n      0x11\n        /* \"#utility.yul\":23801:23804   */\n      dup4\n        /* \"#utility.yul\":23742:23809   */\n      tag_215\n      jump\t// in\n    tag_519:\n        /* \"#utility.yul\":23735:23809   */\n      swap2\n      pop\n        /* \"#utility.yul\":23818:23911   */\n      tag_520\n        /* \"#utility.yul\":23907:23910   */\n      dup3\n        /* \"#utility.yul\":23818:23911   */\n      tag_257\n      jump\t// in\n    tag_520:\n        /* \"#utility.yul\":23936:23938   */\n      0x20\n        /* \"#utility.yul\":23931:23934   */\n      dup3\n        /* \"#utility.yul\":23927:23939   */\n      add\n        /* \"#utility.yul\":23920:23939   */\n      swap1\n      pop\n        /* \"#utility.yul\":23579:23945   */\n      swap2\n      swap1\n      pop\n      jump\t// out\n        /* \"#utility.yul\":23951:24370   */\n    tag_110:\n        /* \"#utility.yul\":24117:24121   */\n      0x00\n        /* \"#utility.yul\":24155:24157   */\n      0x20\n        /* \"#utility.yul\":24144:24153   */\n      dup3\n        /* \"#utility.yul\":24140:24158   */\n      add\n        /* \"#utility.yul\":24132:24158   */\n      swap1\n      pop\n        /* \"#utility.yul\":24204:24213   */\n      dup2\n        /* \"#utility.yul\":24198:24202   */\n      dup2\n        /* \"#utility.yul\":24194:24214   */\n      sub\n        /* \"#utility.yul\":24190:24191   */\n      0x00\n        /* \"#utility.yul\":24179:24188   */\n      dup4\n        /* \"#utility.yul\":24175:24192   */\n      add\n        /* \"#utility.yul\":24168:24215   */\n      mstore\n        /* \"#utility.yul\":24232:24363   */\n      tag_522\n        /* \"#utility.yul\":24358:24362   */\n      dup2\n        /* \"#utility.yul\":24232:24363   */\n      tag_258\n      jump\t// in\n    tag_522:\n        /* \"#utility.yul\":24224:24363   */\n      swap1\n      pop\n        /* \"#utility.yul\":23951:24370   */\n      swap2\n      swap1\n      pop\n      jump\t// out\n        /* \"#utility.yul\":24376:24696   */\n    tag_114:\n        /* \"#utility.yul\":24491:24495   */\n      0x00\n        /* \"#utility.yul\":24529:24531   */\n      0x40\n        /* \"#utility.yul\":24518:24527   */\n      dup3\n        /* \"#utility.yul\":24514:24532   */\n      add\n        /* \"#utility.yul\":24506:24532   */\n      swap1\n      pop\n        /* \"#utility.yul\":24542:24613   */\n      tag_524\n        /* \"#utility.yul\":24610:24611   */\n      0x00\n        /* \"#utility.yul\":24599:24608   */\n      dup4\n        /* \"#utility.yul\":24595:24612   */\n      add\n        /* \"#utility.yul\":24586:24592   */\n      dup6\n        /* \"#utility.yul\":24542:24613   */\n      tag_229\n      jump\t// in\n    tag_524:\n        /* \"#utility.yul\":24623:24689   */\n      tag_525\n        /* \"#utility.yul\":24685:24687   */\n      0x20\n        /* \"#utility.yul\":24674:24683   */\n      dup4\n        /* \"#utility.yul\":24670:24688   */\n      add\n        /* \"#utility.yul\":24661:24667   */\n      dup5\n        /* \"#utility.yul\":24623:24689   */\n      tag_234\n      jump\t// in\n    tag_525:\n        /* \"#utility.yul\":24376:24696   */\n      swap4\n      swap3\n      pop\n      pop\n      pop\n      jump\t// out\n        /* \"#utility.yul\":24702:24867   */\n    tag_259:\n        /* \"#utility.yul\":24842:24859   */\n      0x4e6f20706f6c6c20637265617465640000000000000000000000000000000000\n        /* \"#utility.yul\":24838:24839   */\n      0x00\n        /* \"#utility.yul\":24830:24836   */\n      dup3\n        /* \"#utility.yul\":24826:24840   */\n      add\n        /* \"#utility.yul\":24819:24860   */\n      mstore\n        /* \"#utility.yul\":24702:24867   */\n      pop\n      jump\t// out\n        /* \"#utility.yul\":24873:25239   */\n    tag_260:\n        /* \"#utility.yul\":25015:25018   */\n      0x00\n        /* \"#utility.yul\":25036:25103   */\n      tag_528\n        /* \"#utility.yul\":25100:25102   */\n      0x0f\n        /* \"#utility.yul\":25095:25098   */\n      dup4\n        /* \"#utility.yul\":25036:25103   */\n      tag_215\n      jump\t// in\n    tag_528:\n        /* \"#utility.yul\":25029:25103   */\n      swap2\n      pop\n        /* \"#utility.yul\":25112:25205   */\n      tag_529\n        /* \"#utility.yul\":25201:25204   */\n      dup3\n        /* \"#utility.yul\":25112:25205   */\n      tag_259\n      jump\t// in\n    tag_529:\n        /* \"#utility.yul\":25230:25232   */\n      0x20\n        /* \"#utility.yul\":25225:25228   */\n      dup3\n        /* \"#utility.yul\":25221:25233   */\n      add\n        /* \"#utility.yul\":25214:25233   */\n      swap1\n      pop\n        /* \"#utility.yul\":24873:25239   */\n      swap2\n      swap1\n      pop\n      jump\t// out\n        /* \"#utility.yul\":25245:25664   */\n    tag_119:\n        /* \"#utility.yul\":25411:25415   */\n      0x00\n        /* \"#utility.yul\":25449:25451   */\n      0x20\n        /* \"#utility.yul\":25438:25447   */\n      dup3\n        /* \"#utility.yul\":25434:25452   */\n      add\n        /* \"#utility.yul\":25426:25452   */\n      swap1\n      pop\n        /* \"#utility.yul\":25498:25507   */\n      dup2\n        /* \"#utility.yul\":25492:25496   */\n      dup2\n        /* \"#utility.yul\":25488:25508   */\n      sub\n        /* \"#utility.yul\":25484:25485   */\n      0x00\n        /* \"#utility.yul\":25473:25482   */\n      dup4\n        /* \"#utility.yul\":25469:25486   */\n      add\n        /* \"#utility.yul\":25462:25509   */\n      mstore\n        /* \"#utility.yul\":25526:25657   */\n      tag_531\n        /* \"#utility.yul\":25652:25656   */\n      dup2\n        /* \"#utility.yul\":25526:25657   */\n      tag_260\n      jump\t// in\n    tag_531:\n        /* \"#utility.yul\":25518:25657   */\n      swap1\n      pop\n        /* \"#utility.yul\":25245:25664   */\n      swap2\n      swap1\n      pop\n      jump\t// out\n        /* \"#utility.yul\":25670:25850   */\n    tag_129:\n        /* \"#utility.yul\":25718:25795   */\n      0x4e487b7100000000000000000000000000000000000000000000000000000000\n        /* \"#utility.yul\":25715:25716   */\n      0x00\n        /* \"#utility.yul\":25708:25796   */\n      mstore\n        /* \"#utility.yul\":25815:25819   */\n      0x32\n        /* \"#utility.yul\":25812:25813   */\n      0x04\n        /* \"#utility.yul\":25805:25820   */\n      mstore\n        /* \"#utility.yul\":25839:25843   */\n      0x24\n        /* \"#utility.yul\":25836:25837   */\n      0x00\n        /* \"#utility.yul\":25829:25844   */\n      revert\n        /* \"#utility.yul\":25856:26026   */\n    tag_261:\n        /* \"#utility.yul\":25996:26018   */\n      0x79657420746f20637265617465206120706f6c6c000000000000000000000000\n        /* \"#utility.yul\":25992:25993   */\n      0x00\n        /* \"#utility.yul\":25984:25990   */\n      dup3\n        /* \"#utility.yul\":25980:25994   */\n      add\n        /* \"#utility.yul\":25973:26019   */\n      mstore\n        /* \"#utility.yul\":25856:26026   */\n      pop\n      jump\t// out\n        /* \"#utility.yul\":26032:26398   */\n    tag_262:\n        /* \"#utility.yul\":26174:26177   */\n      0x00\n        /* \"#utility.yul\":26195:26262   */\n      tag_535\n        /* \"#utility.yul\":26259:26261   */\n      0x14\n        /* \"#utility.yul\":26254:26257   */\n      dup4\n        /* \"#utility.yul\":26195:26262   */\n      tag_215\n      jump\t// in\n    tag_535:\n        /* \"#utility.yul\":26188:26262   */\n      swap2\n      pop\n        /* \"#utility.yul\":26271:26364   */\n      tag_536\n        /* \"#utility.yul\":26360:26363   */\n      dup3\n        /* \"#utility.yul\":26271:26364   */\n      tag_261\n      jump\t// in\n    tag_536:\n        /* \"#utility.yul\":26389:26391   */\n      0x20\n        /* \"#utility.yul\":26384:26387   */\n      dup3\n        /* \"#utility.yul\":26380:26392   */\n      add\n        /* \"#utility.yul\":26373:26392   */\n      swap1\n      pop\n        /* \"#utility.yul\":26032:26398   */\n      swap2\n      swap1\n      pop\n      jump\t// out\n        /* \"#utility.yul\":26404:26823   */\n    tag_145:\n        /* \"#utility.yul\":26570:26574   */\n      0x00\n        /* \"#utility.yul\":26608:26610   */\n      0x20\n        /* \"#utility.yul\":26597:26606   */\n      dup3\n        /* \"#utility.yul\":26593:26611   */\n      add\n        /* \"#utility.yul\":26585:26611   */\n      swap1\n      pop\n        /* \"#utility.yul\":26657:26666   */\n      dup2\n        /* \"#utility.yul\":26651:26655   */\n      dup2\n        /* \"#utility.yul\":26647:26667   */\n      sub\n        /* \"#utility.yul\":26643:26644   */\n      0x00\n        /* \"#utility.yul\":26632:26641   */\n      dup4\n        /* \"#utility.yul\":26628:26645   */\n      add\n        /* \"#utility.yul\":26621:26668   */\n      mstore\n        /* \"#utility.yul\":26685:26816   */\n      tag_538\n        /* \"#utility.yul\":26811:26815   */\n      dup2\n        /* \"#utility.yul\":26685:26816   */\n      tag_262\n      jump\t// in\n    tag_538:\n        /* \"#utility.yul\":26677:26816   */\n      swap1\n      pop\n        /* \"#utility.yul\":26404:26823   */\n      swap2\n      swap1\n      pop\n      jump\t// out\n        /* \"#utility.yul\":26829:27009   */\n    tag_148:\n        /* \"#utility.yul\":26877:26954   */\n      0x4e487b7100000000000000000000000000000000000000000000000000000000\n        /* \"#utility.yul\":26874:26875   */\n      0x00\n        /* \"#utility.yul\":26867:26955   */\n      mstore\n        /* \"#utility.yul\":26974:26978   */\n      0x01\n        /* \"#utility.yul\":26971:26972   */\n      0x04\n        /* \"#utility.yul\":26964:26979   */\n      mstore\n        /* \"#utility.yul\":26998:27002   */\n      0x24\n        /* \"#utility.yul\":26995:26996   */\n      0x00\n        /* \"#utility.yul\":26988:27003   */\n      revert\n        /* \"#utility.yul\":27015:27248   */\n    tag_263:\n        /* \"#utility.yul\":27155:27189   */\n      0x6d6178696d756d206e6f206f662063616e646964617465207065722073657373\n        /* \"#utility.yul\":27151:27152   */\n      0x00\n        /* \"#utility.yul\":27143:27149   */\n      dup3\n        /* \"#utility.yul\":27139:27153   */\n      add\n        /* \"#utility.yul\":27132:27190   */\n      mstore\n        /* \"#utility.yul\":27224:27240   */\n      0x696f6e2072656769737465726564000000000000000000000000000000000000\n        /* \"#utility.yul\":27219:27221   */\n      0x20\n        /* \"#utility.yul\":27211:27217   */\n      dup3\n        /* \"#utility.yul\":27207:27222   */\n      add\n        /* \"#utility.yul\":27200:27241   */\n      mstore\n        /* \"#utility.yul\":27015:27248   */\n      pop\n      jump\t// out\n        /* \"#utility.yul\":27254:27620   */\n    tag_264:\n        /* \"#utility.yul\":27396:27399   */\n      0x00\n        /* \"#utility.yul\":27417:27484   */\n      tag_542\n        /* \"#utility.yul\":27481:27483   */\n      0x2e\n        /* \"#utility.yul\":27476:27479   */\n      dup4\n        /* \"#utility.yul\":27417:27484   */\n      tag_215\n      jump\t// in\n    tag_542:\n        /* \"#utility.yul\":27410:27484   */\n      swap2\n      pop\n        /* \"#utility.yul\":27493:27586   */\n      tag_543\n        /* \"#utility.yul\":27582:27585   */\n      dup3\n        /* \"#utility.yul\":27493:27586   */\n      tag_263\n      jump\t// in\n    tag_543:\n        /* \"#utility.yul\":27611:27613   */\n      0x40\n        /* \"#utility.yul\":27606:27609   */\n      dup3\n        /* \"#utility.yul\":27602:27614   */\n      add\n        /* \"#utility.yul\":27595:27614   */\n      swap1\n      pop\n        /* \"#utility.yul\":27254:27620   */\n      swap2\n      swap1\n      pop\n      jump\t// out\n        /* \"#utility.yul\":27626:28045   */\n    tag_151:\n        /* \"#utility.yul\":27792:27796   */\n      0x00\n        /* \"#utility.yul\":27830:27832   */\n      0x20\n        /* \"#utility.yul\":27819:27828   */\n      dup3\n        /* \"#utility.yul\":27815:27833   */\n      add\n        /* \"#utility.yul\":27807:27833   */\n      swap1\n      pop\n        /* \"#utility.yul\":27879:27888   */\n      dup2\n        /* \"#utility.yul\":27873:27877   */\n      dup2\n        /* \"#utility.yul\":27869:27889   */\n      sub\n        /* \"#utility.yul\":27865:27866   */\n      0x00\n        /* \"#utility.yul\":27854:27863   */\n      dup4\n        /* \"#utility.yul\":27850:27867   */\n      add\n        /* \"#utility.yul\":27843:27890   */\n      mstore\n        /* \"#utility.yul\":27907:28038   */\n      tag_545\n        /* \"#utility.yul\":28033:28037   */\n      dup2\n        /* \"#utility.yul\":27907:28038   */\n      tag_264\n      jump\t// in\n    tag_545:\n        /* \"#utility.yul\":27899:28038   */\n      swap1\n      pop\n        /* \"#utility.yul\":27626:28045   */\n      swap2\n      swap1\n      pop\n      jump\t// out\n        /* \"#utility.yul\":28051:28222   */\n    tag_154:\n        /* \"#utility.yul\":28089:28092   */\n      0x00\n        /* \"#utility.yul\":28112:28135   */\n      tag_547\n        /* \"#utility.yul\":28129:28134   */\n      dup3\n        /* \"#utility.yul\":28112:28135   */\n      tag_211\n      jump\t// in\n    tag_547:\n        /* \"#utility.yul\":28103:28135   */\n      swap2\n      pop\n        /* \"#utility.yul\":28157:28163   */\n      0xffff\n        /* \"#utility.yul\":28150:28155   */\n      dup3\n        /* \"#utility.yul\":28147:28164   */\n      eq\n        /* \"#utility.yul\":28144:28187   */\n      iszero\n      tag_548\n      jumpi\n        /* \"#utility.yul\":28167:28185   */\n      tag_549\n      tag_256\n      jump\t// in\n    tag_549:\n        /* \"#utility.yul\":28144:28187   */\n    tag_548:\n        /* \"#utility.yul\":28214:28215   */\n      0x01\n        /* \"#utility.yul\":28207:28212   */\n      dup3\n        /* \"#utility.yul\":28203:28216   */\n      add\n        /* \"#utility.yul\":28196:28216   */\n      swap1\n      pop\n        /* \"#utility.yul\":28051:28222   */\n      swap2\n      swap1\n      pop\n      jump\t// out\n        /* \"#utility.yul\":28228:28450   */\n    tag_156:\n        /* \"#utility.yul\":28321:28325   */\n      0x00\n        /* \"#utility.yul\":28359:28361   */\n      0x20\n        /* \"#utility.yul\":28348:28357   */\n      dup3\n        /* \"#utility.yul\":28344:28362   */\n      add\n        /* \"#utility.yul\":28336:28362   */\n      swap1\n      pop\n        /* \"#utility.yul\":28372:28443   */\n      tag_551\n        /* \"#utility.yul\":28440:28441   */\n      0x00\n        /* \"#utility.yul\":28429:28438   */\n      dup4\n        /* \"#utility.yul\":28425:28442   */\n      add\n        /* \"#utility.yul\":28416:28422   */\n      dup5\n        /* \"#utility.yul\":28372:28443   */\n      tag_229\n      jump\t// in\n    tag_551:\n        /* \"#utility.yul\":28228:28450   */\n      swap3\n      swap2\n      pop\n      pop\n      jump\t// out\n        /* \"#utility.yul\":28456:28622   */\n    tag_265:\n        /* \"#utility.yul\":28596:28614   */\n      0x6e6f74207468652063686169726d616e00000000000000000000000000000000\n        /* \"#utility.yul\":28592:28593   */\n      0x00\n        /* \"#utility.yul\":28584:28590   */\n      dup3\n        /* \"#utility.yul\":28580:28594   */\n      add\n        /* \"#utility.yul\":28573:28615   */\n      mstore\n        /* \"#utility.yul\":28456:28622   */\n      pop\n      jump\t// out\n        /* \"#utility.yul\":28628:28994   */\n    tag_266:\n        /* \"#utility.yul\":28770:28773   */\n      0x00\n        /* \"#utility.yul\":28791:28858   */\n      tag_554\n        /* \"#utility.yul\":28855:28857   */\n      0x10\n        /* \"#utility.yul\":28850:28853   */\n      dup4\n        /* \"#utility.yul\":28791:28858   */\n      tag_215\n      jump\t// in\n    tag_554:\n        /* \"#utility.yul\":28784:28858   */\n      swap2\n      pop\n        /* \"#utility.yul\":28867:28960   */\n      tag_555\n        /* \"#utility.yul\":28956:28959   */\n      dup3\n        /* \"#utility.yul\":28867:28960   */\n      tag_265\n      jump\t// in\n    tag_555:\n        /* \"#utility.yul\":28985:28987   */\n      0x20\n        /* \"#utility.yul\":28980:28983   */\n      dup3\n        /* \"#utility.yul\":28976:28988   */\n      add\n        /* \"#utility.yul\":28969:28988   */\n      swap1\n      pop\n        /* \"#utility.yul\":28628:28994   */\n      swap2\n      swap1\n      pop\n      jump\t// out\n        /* \"#utility.yul\":29000:29419   */\n    tag_172:\n        /* \"#utility.yul\":29166:29170   */\n      0x00\n        /* \"#utility.yul\":29204:29206   */\n      0x20\n        /* \"#utility.yul\":29193:29202   */\n      dup3\n        /* \"#utility.yul\":29189:29207   */\n      add\n        /* \"#utility.yul\":29181:29207   */\n      swap1\n      pop\n        /* \"#utility.yul\":29253:29262   */\n      dup2\n        /* \"#utility.yul\":29247:29251   */\n      dup2\n        /* \"#utility.yul\":29243:29263   */\n      sub\n        /* \"#utility.yul\":29239:29240   */\n      0x00\n        /* \"#utility.yul\":29228:29237   */\n      dup4\n        /* \"#utility.yul\":29224:29241   */\n      add\n        /* \"#utility.yul\":29217:29264   */\n      mstore\n        /* \"#utility.yul\":29281:29412   */\n      tag_557\n        /* \"#utility.yul\":29407:29411   */\n      dup2\n        /* \"#utility.yul\":29281:29412   */\n      tag_266\n      jump\t// in\n    tag_557:\n        /* \"#utility.yul\":29273:29412   */\n      swap1\n      pop\n        /* \"#utility.yul\":29000:29419   */\n      swap2\n      swap1\n      pop\n      jump\t// out\n        /* \"#utility.yul\":29425:29511   */\n    tag_267:\n        /* \"#utility.yul\":29460:29467   */\n      0x00\n        /* \"#utility.yul\":29500:29504   */\n      0xff\n        /* \"#utility.yul\":29493:29498   */\n      dup3\n        /* \"#utility.yul\":29489:29505   */\n      and\n        /* \"#utility.yul\":29478:29505   */\n      swap1\n      pop\n        /* \"#utility.yul\":29425:29511   */\n      swap2\n      swap1\n      pop\n      jump\t// out\n        /* \"#utility.yul\":29517:29754   */\n    tag_177:\n        /* \"#utility.yul\":29555:29558   */\n      0x00\n        /* \"#utility.yul\":29574:29592   */\n      tag_560\n        /* \"#utility.yul\":29590:29591   */\n      dup3\n        /* \"#utility.yul\":29574:29592   */\n      tag_267\n      jump\t// in\n    tag_560:\n        /* \"#utility.yul\":29569:29592   */\n      swap2\n      pop\n        /* \"#utility.yul\":29606:29624   */\n      tag_561\n        /* \"#utility.yul\":29622:29623   */\n      dup4\n        /* \"#utility.yul\":29606:29624   */\n      tag_267\n      jump\t// in\n    tag_561:\n        /* \"#utility.yul\":29601:29624   */\n      swap3\n      pop\n        /* \"#utility.yul\":29696:29697   */\n      dup3\n        /* \"#utility.yul\":29690:29694   */\n      0xff\n        /* \"#utility.yul\":29686:29698   */\n      sub\n        /* \"#utility.yul\":29683:29684   */\n      dup3\n        /* \"#utility.yul\":29680:29699   */\n      gt\n        /* \"#utility.yul\":29677:29722   */\n      iszero\n      tag_562\n      jumpi\n        /* \"#utility.yul\":29702:29720   */\n      tag_563\n      tag_256\n      jump\t// in\n    tag_563:\n        /* \"#utility.yul\":29677:29722   */\n    tag_562:\n        /* \"#utility.yul\":29746:29747   */\n      dup3\n        /* \"#utility.yul\":29743:29744   */\n      dup3\n        /* \"#utility.yul\":29739:29748   */\n      add\n        /* \"#utility.yul\":29732:29748   */\n      swap1\n      pop\n        /* \"#utility.yul\":29517:29754   */\n      swap3\n      swap2\n      pop\n      pop\n      jump\t// out\n        /* \"#utility.yul\":29760:29974   */\n    tag_268:\n        /* \"#utility.yul\":29900:29966   */\n      0x19457468657265756d205369676e6564204d6573736167653a0a333200000000\n        /* \"#utility.yul\":29896:29897   */\n      0x00\n        /* \"#utility.yul\":29888:29894   */\n      dup3\n        /* \"#utility.yul\":29884:29898   */\n      add\n        /* \"#utility.yul\":29877:29967   */\n      mstore\n        /* \"#utility.yul\":29760:29974   */\n      pop\n      jump\t// out\n        /* \"#utility.yul\":29980:30382   */\n    tag_269:\n        /* \"#utility.yul\":30140:30143   */\n      0x00\n        /* \"#utility.yul\":30161:30246   */\n      tag_566\n        /* \"#utility.yul\":30243:30245   */\n      0x1c\n        /* \"#utility.yul\":30238:30241   */\n      dup4\n        /* \"#utility.yul\":30161:30246   */\n      tag_246\n      jump\t// in\n    tag_566:\n        /* \"#utility.yul\":30154:30246   */\n      swap2\n      pop\n        /* \"#utility.yul\":30255:30348   */\n      tag_567\n        /* \"#utility.yul\":30344:30347   */\n      dup3\n        /* \"#utility.yul\":30255:30348   */\n      tag_268\n      jump\t// in\n    tag_567:\n        /* \"#utility.yul\":30373:30375   */\n      0x1c\n        /* \"#utility.yul\":30368:30371   */\n      dup3\n        /* \"#utility.yul\":30364:30376   */\n      add\n        /* \"#utility.yul\":30357:30376   */\n      swap1\n      pop\n        /* \"#utility.yul\":29980:30382   */\n      swap2\n      swap1\n      pop\n      jump\t// out\n        /* \"#utility.yul\":30388:30467   */\n    tag_270:\n        /* \"#utility.yul\":30427:30434   */\n      0x00\n        /* \"#utility.yul\":30456:30461   */\n      dup2\n        /* \"#utility.yul\":30445:30461   */\n      swap1\n      pop\n        /* \"#utility.yul\":30388:30467   */\n      swap2\n      swap1\n      pop\n      jump\t// out\n        /* \"#utility.yul\":30473:30630   */\n    tag_271:\n        /* \"#utility.yul\":30578:30623   */\n      tag_570\n        /* \"#utility.yul\":30598:30622   */\n      tag_571\n        /* \"#utility.yul\":30616:30621   */\n      dup3\n        /* \"#utility.yul\":30598:30622   */\n      tag_209\n      jump\t// in\n    tag_571:\n        /* \"#utility.yul\":30578:30623   */\n      tag_270\n      jump\t// in\n    tag_570:\n        /* \"#utility.yul\":30573:30576   */\n      dup3\n        /* \"#utility.yul\":30566:30624   */\n      mstore\n        /* \"#utility.yul\":30473:30630   */\n      pop\n      pop\n      jump\t// out\n        /* \"#utility.yul\":30636:31158   */\n    tag_182:\n        /* \"#utility.yul\":30849:30852   */\n      0x00\n        /* \"#utility.yul\":30871:31019   */\n      tag_573\n        /* \"#utility.yul\":31015:31018   */\n      dup3\n        /* \"#utility.yul\":30871:31019   */\n      tag_269\n      jump\t// in\n    tag_573:\n        /* \"#utility.yul\":30864:31019   */\n      swap2\n      pop\n        /* \"#utility.yul\":31029:31104   */\n      tag_574\n        /* \"#utility.yul\":31100:31103   */\n      dup3\n        /* \"#utility.yul\":31091:31097   */\n      dup5\n        /* \"#utility.yul\":31029:31104   */\n      tag_271\n      jump\t// in\n    tag_574:\n        /* \"#utility.yul\":31129:31131   */\n      0x20\n        /* \"#utility.yul\":31124:31127   */\n      dup3\n        /* \"#utility.yul\":31120:31132   */\n      add\n        /* \"#utility.yul\":31113:31132   */\n      swap2\n      pop\n        /* \"#utility.yul\":31149:31152   */\n      dup2\n        /* \"#utility.yul\":31142:31152   */\n      swap1\n      pop\n        /* \"#utility.yul\":30636:31158   */\n      swap3\n      swap2\n      pop\n      pop\n      jump\t// out\n        /* \"#utility.yul\":31164:31276   */\n    tag_272:\n        /* \"#utility.yul\":31247:31269   */\n      tag_576\n        /* \"#utility.yul\":31263:31268   */\n      dup2\n        /* \"#utility.yul\":31247:31269   */\n      tag_267\n      jump\t// in\n    tag_576:\n        /* \"#utility.yul\":31242:31245   */\n      dup3\n        /* \"#utility.yul\":31235:31270   */\n      mstore\n        /* \"#utility.yul\":31164:31276   */\n      pop\n      pop\n      jump\t// out\n        /* \"#utility.yul\":31282:31827   */\n    tag_184:\n        /* \"#utility.yul\":31455:31459   */\n      0x00\n        /* \"#utility.yul\":31493:31496   */\n      0x80\n        /* \"#utility.yul\":31482:31491   */\n      dup3\n        /* \"#utility.yul\":31478:31497   */\n      add\n        /* \"#utility.yul\":31470:31497   */\n      swap1\n      pop\n        /* \"#utility.yul\":31507:31578   */\n      tag_578\n        /* \"#utility.yul\":31575:31576   */\n      0x00\n        /* \"#utility.yul\":31564:31573   */\n      dup4\n        /* \"#utility.yul\":31560:31577   */\n      add\n        /* \"#utility.yul\":31551:31557   */\n      dup8\n        /* \"#utility.yul\":31507:31578   */\n      tag_210\n      jump\t// in\n    tag_578:\n        /* \"#utility.yul\":31588:31656   */\n      tag_579\n        /* \"#utility.yul\":31652:31654   */\n      0x20\n        /* \"#utility.yul\":31641:31650   */\n      dup4\n        /* \"#utility.yul\":31637:31655   */\n      add\n        /* \"#utility.yul\":31628:31634   */\n      dup7\n        /* \"#utility.yul\":31588:31656   */\n      tag_272\n      jump\t// in\n    tag_579:\n        /* \"#utility.yul\":31666:31738   */\n      tag_580\n        /* \"#utility.yul\":31734:31736   */\n      0x40\n        /* \"#utility.yul\":31723:31732   */\n      dup4\n        /* \"#utility.yul\":31719:31737   */\n      add\n        /* \"#utility.yul\":31710:31716   */\n      dup6\n        /* \"#utility.yul\":31666:31738   */\n      tag_210\n      jump\t// in\n    tag_580:\n        /* \"#utility.yul\":31748:31820   */\n      tag_581\n        /* \"#utility.yul\":31816:31818   */\n      0x60\n        /* \"#utility.yul\":31805:31814   */\n      dup4\n        /* \"#utility.yul\":31801:31819   */\n      add\n        /* \"#utility.yul\":31792:31798   */\n      dup5\n        /* \"#utility.yul\":31748:31820   */\n      tag_210\n      jump\t// in\n    tag_581:\n        /* \"#utility.yul\":31282:31827   */\n      swap6\n      swap5\n      pop\n      pop\n      pop\n      pop\n      pop\n      jump\t// out\n\n    auxdata: 0xa2646970667358221220e42c3e5d43bde23ddbda71418c15f03fad60d77b43f3c84a0e7d1b3508868fa164736f6c634300080a0033\n}\n",
				"bytecode": {
					"linkReferences": {},
					"object": "608060405234801561001057600080fd5b50612274806100206000396000f3fe6080604052600436106100a05760003560e01c806363ee965a1161006457806363ee965a146101b857806367d407df146101f85780638579cacd14610235578063af7cbc0d14610272578063bd807c6c146102af578063f0e4de22146102ed576100a7565b806301ff993b146100ac5780630968d4b1146100e957806312f0da4b146101275780634fcf1f391461015057806357f539671461018f576100a7565b366100a757005b600080fd5b3480156100b857600080fd5b506100d360048036038101906100ce91906113e1565b610316565b6040516100e0919061147d565b60405180910390f35b3480156100f557600080fd5b50610110600480360381019061010b91906114d2565b610351565b60405161011e9291906115c5565b60405180910390f35b34801561013357600080fd5b5061014e60048036038101906101499190611696565b6103f5565b005b34801561015c57600080fd5b5061017760048036038101906101729190611735565b610729565b6040516101869392919061184b565b60405180910390f35b34801561019b57600080fd5b506101b660048036038101906101b19190611889565b6109e7565b005b3480156101c457600080fd5b506101df60048036038101906101da9190611735565b610ca6565b6040516101ef949392919061192e565b60405180910390f35b34801561020457600080fd5b5061021f600480360381019061021a9190611973565b610d37565b60405161022c91906119a0565b60405180910390f35b34801561024157600080fd5b5061025c60048036038101906102579190611735565b610d4f565b60405161026991906119a0565b60405180910390f35b34801561027e57600080fd5b5061029960048036038101906102949190611735565b610d91565b6040516102a69190611a79565b60405180910390f35b3480156102bb57600080fd5b506102d660048036038101906102d19190611a9b565b610e45565b6040516102e4929190611af7565b60405180910390f35b3480156102f957600080fd5b50610314600480360381019061030f9190611735565b610ef5565b005b60003085858585604051602001610331959493929190611c11565b604051602081830303815290604052805190602001209050949350505050565b60606000806000856040516103669190611c77565b90815260200160405180910390209050338160000160006101000a81548173ffffffffffffffffffffffffffffffffffffffff021916908373ffffffffffffffffffffffffffffffffffffffff1602179055508361ffff168160020160006101000a81548163ffffffff021916908363ffffffff16021790555084848061ffff16905092509250509250929050565b8383600080826040516104089190611c77565b90815260200160405180910390209050600115158160030160008573ffffffffffffffffffffffffffffffffffffffff1673ffffffffffffffffffffffffffffffffffffffff16815260200190815260200160002060009054906101000a900460ff161515146104ad576040517f08c379a00000000000000000000000000000000000000000000000000000000081526004016104a490611d00565b60405180910390fd5b85600080826040516104bf9190611c77565b90815260200160405180910390209050600115158160020160069054906101000a900460ff16151514610527576040517f08c379a000000000000000000000000000000000000000000000000000000000815260040161051e90611d6c565b60405180910390fd5b60006105358a8a8a42610316565b905060006105438289610fda565b9050600073ffffffffffffffffffffffffffffffffffffffff168173ffffffffffffffffffffffffffffffffffffffff16141561057f57600080fd5b600160008273ffffffffffffffffffffffffffffffffffffffff1673ffffffffffffffffffffffffffffffffffffffff1681526020019081526020016000205489146105ca57600080fd5b600160008273ffffffffffffffffffffffffffffffffffffffff1673ffffffffffffffffffffffffffffffffffffffff168152602001908152602001600020600081548092919061061a90611dbb565b91905055506000808b6040516106309190611c77565b90815260200160405180910390209050600015158160040160003373ffffffffffffffffffffffffffffffffffffffff1673ffffffffffffffffffffffffffffffffffffffff16815260200190815260200160002060009054906101000a900460ff161515146106d5576040517f08c379a00000000000000000000000000000000000000000000000000000000081526004016106cc90611e50565b60405180910390fd5b6106e08c8c336110d3565b507ff3f16a15f074b71c5138107dfc7c63b80524d5411cb967caa97d8d9f12b2fd6b8c6001604051610713929190611e70565b60405180910390a1505050505050505050505050565b60606000806000808560405161073f9190611c77565b90815260200160405180910390209050600073ffffffffffffffffffffffffffffffffffffffff168160000160009054906101000a900473ffffffffffffffffffffffffffffffffffffffff1673ffffffffffffffffffffffffffffffffffffffff1614156107e3576040517f08c379a00000000000000000000000000000000000000000000000000000000081526004016107da90611ee5565b60405180910390fd5b806001018054905067ffffffffffffffff81111561080457610803611280565b5b6040519080825280602002602001820160405280156108325781602001602082028036833780820191505090505b50935060008060005b836001018054905081116109d357600084600501600086600101848154811061086757610866611f05565b5b9060005260206000200160009054906101000a900473ffffffffffffffffffffffffffffffffffffffff1673ffffffffffffffffffffffffffffffffffffffff1673ffffffffffffffffffffffffffffffffffffffff1681526020019081526020016000205490508381111561091e578093508460010182815481106108f0576108ef611f05565b5b9060005260206000200160009054906101000a900473ffffffffffffffffffffffffffffffffffffffff1692505b84600501600086600101848154811061093a57610939611f05565b5b9060005260206000200160009054906101000a900473ffffffffffffffffffffffffffffffffffffffff1673ffffffffffffffffffffffffffffffffffffffff1673ffffffffffffffffffffffffffffffffffffffff168152602001908152602001600020548883815181106109b3576109b2611f05565b5b6020026020010181815250505080806109cb90611dbb565b91505061083b565b508581839550955095505050509193909250565b600080826040516109f89190611c77565b90815260200160405180910390209050600073ffffffffffffffffffffffffffffffffffffffff168160000160009054906101000a900473ffffffffffffffffffffffffffffffffffffffff1673ffffffffffffffffffffffffffffffffffffffff161415610a9c576040517f08c379a0000000000000000000000000000000000000000000000000000000008152600401610a9390611f80565b60405180910390fd5b3373ffffffffffffffffffffffffffffffffffffffff168160000160009054906101000a900473ffffffffffffffffffffffffffffffffffffffff1673ffffffffffffffffffffffffffffffffffffffff1614610afc57610afb611fa0565b5b8060020160009054906101000a900463ffffffff1663ffffffff168160020160049054906101000a900461ffff1661ffff1610610b6e576040517f08c379a0000000000000000000000000000000000000000000000000000000008152600401610b6590612041565b60405180910390fd5b60018160030160008573ffffffffffffffffffffffffffffffffffffffff1673ffffffffffffffffffffffffffffffffffffffff16815260200190815260200160002060006101000a81548160ff02191690831515021790555080600101839080600181540180825580915050600190039060005260206000200160009091909190916101000a81548173ffffffffffffffffffffffffffffffffffffffff021916908373ffffffffffffffffffffffffffffffffffffffff16021790555080600201600481819054906101000a900461ffff1680929190610c4f90612061565b91906101000a81548161ffff021916908361ffff160217905550507fc19c59aa93348e8fc54764bc642eca975e2639f44cc683ef8f027e1529cbda3283604051610c99919061208c565b60405180910390a1505050565b6000818051602081018201805184825260208301602085012081835280955050505050506000915090508060000160009054906101000a900473ffffffffffffffffffffffffffffffffffffffff16908060020160009054906101000a900463ffffffff16908060020160049054906101000a900461ffff16908060020160069054906101000a900460ff16905084565b60016020528060005260406000206000915090505481565b600080600083604051610d629190611c77565b908152602001604051809103902090508060020160049054906101000a900461ffff1661ffff16915050919050565b606060008083604051610da49190611c77565b9081526020016040518091039020905080600101805480602002602001604051908101604052809291908181526020018280548015610e3857602002820191906000526020600020905b8160009054906101000a900473ffffffffffffffffffffffffffffffffffffffff1673ffffffffffffffffffffffffffffffffffffffff1681526020019060010190808311610dee575b5050505050915050919050565b60008060008085604051610e599190611c77565b90815260200160405180910390209050806005016000826001018681548110610e8557610e84611f05565b5b9060005260206000200160009054906101000a900473ffffffffffffffffffffffffffffffffffffffff1673ffffffffffffffffffffffffffffffffffffffff1673ffffffffffffffffffffffffffffffffffffffff168152602001908152602001600020549250509250929050565b60008082604051610f069190611c77565b908152602001604051809103902090503373ffffffffffffffffffffffffffffffffffffffff168160000160009054906101000a900473ffffffffffffffffffffffffffffffffffffffff1673ffffffffffffffffffffffffffffffffffffffff1614610fa8576040517f08c379a0000000000000000000000000000000000000000000000000000000008152600401610f9f906120f3565b60405180910390fd5b8060020160069054906101000a900460ff16158160020160066101000a81548160ff0219169083151502179055505050565b6000806000806041855114610ff557600093505050506110cd565b6020850151925060408501519150606085015160001a9050601b8160ff16101561102957601b816110269190612120565b90505b601b8160ff16141580156110415750601c8160ff1614155b1561105257600093505050506110cd565b60018660405160200161106591906121c4565b604051602081830303815290604052805190602001208285856040516000815260200160405260405161109b94939291906121f9565b6020604051602081039080840390855afa1580156110bd573d6000803e3d6000fd5b5050506020604051035193505050505b92915050565b6000806000846040516110e69190611c77565b9081526020016040518091039020905060018160040160008573ffffffffffffffffffffffffffffffffffffffff1673ffffffffffffffffffffffffffffffffffffffff16815260200190815260200160002060006101000a81548160ff0219169083151502179055508060050160008673ffffffffffffffffffffffffffffffffffffffff1673ffffffffffffffffffffffffffffffffffffffff16815260200190815260200160002060008154809291906111a290611dbb565b91905055508060050160008673ffffffffffffffffffffffffffffffffffffffff1673ffffffffffffffffffffffffffffffffffffffff168152602001908152602001600020549150509392505050565b6000604051905090565b600080fd5b600080fd5b600073ffffffffffffffffffffffffffffffffffffffff82169050919050565b600061123282611207565b9050919050565b61124281611227565b811461124d57600080fd5b50565b60008135905061125f81611239565b92915050565b600080fd5b600080fd5b6000601f19601f8301169050919050565b7f4e487b7100000000000000000000000000000000000000000000000000000000600052604160045260246000fd5b6112b88261126f565b810181811067ffffffffffffffff821117156112d7576112d6611280565b5b80604052505050565b60006112ea6111f3565b90506112f682826112af565b919050565b600067ffffffffffffffff82111561131657611315611280565b5b61131f8261126f565b9050602081019050919050565b82818337600083830152505050565b600061134e611349846112fb565b6112e0565b90508281526020810184848401111561136a5761136961126a565b5b61137584828561132c565b509392505050565b600082601f83011261139257611391611265565b5b81356113a284826020860161133b565b91505092915050565b6000819050919050565b6113be816113ab565b81146113c957600080fd5b50565b6000813590506113db816113b5565b92915050565b600080600080608085870312156113fb576113fa6111fd565b5b600061140987828801611250565b945050602085013567ffffffffffffffff81111561142a57611429611202565b5b6114368782880161137d565b9350506040611447878288016113cc565b9250506060611458878288016113cc565b91505092959194509250565b6000819050919050565b61147781611464565b82525050565b6000602082019050611492600083018461146e565b92915050565b600061ffff82169050919050565b6114af81611498565b81146114ba57600080fd5b50565b6000813590506114cc816114a6565b92915050565b600080604083850312156114e9576114e86111fd565b5b600083013567ffffffffffffffff81111561150757611506611202565b5b6115138582860161137d565b9250506020611524858286016114bd565b9150509250929050565b600081519050919050565b600082825260208201905092915050565b60005b8381101561156857808201518184015260208101905061154d565b83811115611577576000848401525b50505050565b60006115888261152e565b6115928185611539565b93506115a281856020860161154a565b6115ab8161126f565b840191505092915050565b6115bf816113ab565b82525050565b600060408201905081810360008301526115df818561157d565b90506115ee60208301846115b6565b9392505050565b600067ffffffffffffffff8211156116105761160f611280565b5b6116198261126f565b9050602081019050919050565b6000611639611634846115f5565b6112e0565b9050828152602081018484840111156116555761165461126a565b5b61166084828561132c565b509392505050565b600082601f83011261167d5761167c611265565b5b813561168d848260208601611626565b91505092915050565b600080600080608085870312156116b0576116af6111fd565b5b60006116be87828801611250565b945050602085013567ffffffffffffffff8111156116df576116de611202565b5b6116eb8782880161137d565b93505060406116fc878288016113cc565b925050606085013567ffffffffffffffff81111561171d5761171c611202565b5b61172987828801611668565b91505092959194509250565b60006020828403121561174b5761174a6111fd565b5b600082013567ffffffffffffffff81111561176957611768611202565b5b6117758482850161137d565b91505092915050565b600081519050919050565b600082825260208201905092915050565b6000819050602082019050919050565b6117b3816113ab565b82525050565b60006117c583836117aa565b60208301905092915050565b6000602082019050919050565b60006117e98261177e565b6117f38185611789565b93506117fe8361179a565b8060005b8381101561182f57815161181688826117b9565b9750611821836117d1565b925050600181019050611802565b5085935050505092915050565b61184581611227565b82525050565b6000606082019050818103600083015261186581866117de565b9050611874602083018561183c565b61188160408301846115b6565b949350505050565b600080604083850312156118a05761189f6111fd565b5b60006118ae85828601611250565b925050602083013567ffffffffffffffff8111156118cf576118ce611202565b5b6118db8582860161137d565b9150509250929050565b600063ffffffff82169050919050565b6118fe816118e5565b82525050565b61190d81611498565b82525050565b60008115159050919050565b61192881611913565b82525050565b6000608082019050611943600083018761183c565b61195060208301866118f5565b61195d6040830185611904565b61196a606083018461191f565b95945050505050565b600060208284031215611989576119886111fd565b5b600061199784828501611250565b91505092915050565b60006020820190506119b560008301846115b6565b92915050565b600081519050919050565b600082825260208201905092915050565b6000819050602082019050919050565b6119f081611227565b82525050565b6000611a0283836119e7565b60208301905092915050565b6000602082019050919050565b6000611a26826119bb565b611a3081856119c6565b9350611a3b836119d7565b8060005b83811015611a6c578151611a5388826119f6565b9750611a5e83611a0e565b925050600181019050611a3f565b5085935050505092915050565b60006020820190508181036000830152611a938184611a1b565b905092915050565b60008060408385031215611ab257611ab16111fd565b5b600083013567ffffffffffffffff811115611ad057611acf611202565b5b611adc8582860161137d565b9250506020611aed858286016113cc565b9150509250929050565b6000604082019050611b0c60008301856115b6565b611b19602083018461183c565b9392505050565b60008160601b9050919050565b6000611b3882611b20565b9050919050565b6000611b4a82611b2d565b9050919050565b611b62611b5d82611227565b611b3f565b82525050565b600081905092915050565b7f6d6574617472616e73616374696f6e20566f74696e6720000000000000000000600082015250565b6000611ba9601783611b68565b9150611bb482611b73565b601782019050919050565b6000611bca8261152e565b611bd48185611b68565b9350611be481856020860161154a565b80840191505092915050565b6000819050919050565b611c0b611c06826113ab565b611bf0565b82525050565b6000611c1d8288611b51565b601482019150611c2c82611b9c565b9150611c388287611b51565b601482019150611c488286611bbf565b9150611c548285611bfa565b602082019150611c648284611bfa565b6020820191508190509695505050505050565b6000611c838284611bbf565b915081905092915050565b7f54686973206164647265737320646f6573206e6f74206578697374206173206160008201527f2063616e64696461746500000000000000000000000000000000000000000000602082015250565b6000611cea602a83611539565b9150611cf582611c8e565b604082019050919050565b60006020820190508181036000830152611d1981611cdd565b9050919050565b7f766f74696e672068617320656e64656400000000000000000000000000000000600082015250565b6000611d56601083611539565b9150611d6182611d20565b602082019050919050565b60006020820190508181036000830152611d8581611d49565b9050919050565b7f4e487b7100000000000000000000000000000000000000000000000000000000600052601160045260246000fd5b6000611dc6826113ab565b91507fffffffffffffffffffffffffffffffffffffffffffffffffffffffffffffffff821415611df957611df8611d8c565b5b600182019050919050565b7f596f7520616c726561647920766f746564000000000000000000000000000000600082015250565b6000611e3a601183611539565b9150611e4582611e04565b602082019050919050565b60006020820190508181036000830152611e6981611e2d565b9050919050565b6000604082019050611e85600083018561183c565b611e92602083018461191f565b9392505050565b7f4e6f20706f6c6c20637265617465640000000000000000000000000000000000600082015250565b6000611ecf600f83611539565b9150611eda82611e99565b602082019050919050565b60006020820190508181036000830152611efe81611ec2565b9050919050565b7f4e487b7100000000000000000000000000000000000000000000000000000000600052603260045260246000fd5b7f79657420746f20637265617465206120706f6c6c000000000000000000000000600082015250565b6000611f6a601483611539565b9150611f7582611f34565b602082019050919050565b60006020820190508181036000830152611f9981611f5d565b9050919050565b7f4e487b7100000000000000000000000000000000000000000000000000000000600052600160045260246000fd5b7f6d6178696d756d206e6f206f662063616e64696461746520706572207365737360008201527f696f6e2072656769737465726564000000000000000000000000000000000000602082015250565b600061202b602e83611539565b915061203682611fcf565b604082019050919050565b6000602082019050818103600083015261205a8161201e565b9050919050565b600061206c82611498565b915061ffff82141561208157612080611d8c565b5b600182019050919050565b60006020820190506120a1600083018461183c565b92915050565b7f6e6f74207468652063686169726d616e00000000000000000000000000000000600082015250565b60006120dd601083611539565b91506120e8826120a7565b602082019050919050565b6000602082019050818103600083015261210c816120d0565b9050919050565b600060ff82169050919050565b600061212b82612113565b915061213683612113565b92508260ff0382111561214c5761214b611d8c565b5b828201905092915050565b7f19457468657265756d205369676e6564204d6573736167653a0a333200000000600082015250565b600061218d601c83611b68565b915061219882612157565b601c82019050919050565b6000819050919050565b6121be6121b982611464565b6121a3565b82525050565b60006121cf82612180565b91506121db82846121ad565b60208201915081905092915050565b6121f381612113565b82525050565b600060808201905061220e600083018761146e565b61221b60208301866121ea565b612228604083018561146e565b612235606083018461146e565b9594505050505056fea2646970667358221220e42c3e5d43bde23ddbda71418c15f03fad60d77b43f3c84a0e7d1b3508868fa164736f6c634300080a0033",
					"opcodes": "PUSH1 0x80 PUSH1 0x40 MSTORE CALLVALUE DUP1 ISZERO PUSH2 0x10 JUMPI PUSH1 0x0 DUP1 REVERT JUMPDEST POP PUSH2 0x2274 DUP1 PUSH2 0x20 PUSH1 0x0 CODECOPY PUSH1 0x0 RETURN INVALID PUSH1 0x80 PUSH1 0x40 MSTORE PUSH1 0x4 CALLDATASIZE LT PUSH2 0xA0 JUMPI PUSH1 0x0 CALLDATALOAD PUSH1 0xE0 SHR DUP1 PUSH4 0x63EE965A GT PUSH2 0x64 JUMPI DUP1 PUSH4 0x63EE965A EQ PUSH2 0x1B8 JUMPI DUP1 PUSH4 0x67D407DF EQ PUSH2 0x1F8 JUMPI DUP1 PUSH4 0x8579CACD EQ PUSH2 0x235 JUMPI DUP1 PUSH4 0xAF7CBC0D EQ PUSH2 0x272 JUMPI DUP1 PUSH4 0xBD807C6C EQ PUSH2 0x2AF JUMPI DUP1 PUSH4 0xF0E4DE22 EQ PUSH2 0x2ED JUMPI PUSH2 0xA7 JUMP JUMPDEST DUP1 PUSH4 0x1FF993B EQ PUSH2 0xAC JUMPI DUP1 PUSH4 0x968D4B1 EQ PUSH2 0xE9 JUMPI DUP1 PUSH4 0x12F0DA4B EQ PUSH2 0x127 JUMPI DUP1 PUSH4 0x4FCF1F39 EQ PUSH2 0x150 JUMPI DUP1 PUSH4 0x57F53967 EQ PUSH2 0x18F JUMPI PUSH2 0xA7 JUMP JUMPDEST CALLDATASIZE PUSH2 0xA7 JUMPI STOP JUMPDEST PUSH1 0x0 DUP1 REVERT JUMPDEST CALLVALUE DUP1 ISZERO PUSH2 0xB8 JUMPI PUSH1 0x0 DUP1 REVERT JUMPDEST POP PUSH2 0xD3 PUSH1 0x4 DUP1 CALLDATASIZE SUB DUP2 ADD SWAP1 PUSH2 0xCE SWAP2 SWAP1 PUSH2 0x13E1 JUMP JUMPDEST PUSH2 0x316 JUMP JUMPDEST PUSH1 0x40 MLOAD PUSH2 0xE0 SWAP2 SWAP1 PUSH2 0x147D JUMP JUMPDEST PUSH1 0x40 MLOAD DUP1 SWAP2 SUB SWAP1 RETURN JUMPDEST CALLVALUE DUP1 ISZERO PUSH2 0xF5 JUMPI PUSH1 0x0 DUP1 REVERT JUMPDEST POP PUSH2 0x110 PUSH1 0x4 DUP1 CALLDATASIZE SUB DUP2 ADD SWAP1 PUSH2 0x10B SWAP2 SWAP1 PUSH2 0x14D2 JUMP JUMPDEST PUSH2 0x351 JUMP JUMPDEST PUSH1 0x40 MLOAD PUSH2 0x11E SWAP3 SWAP2 SWAP1 PUSH2 0x15C5 JUMP JUMPDEST PUSH1 0x40 MLOAD DUP1 SWAP2 SUB SWAP1 RETURN JUMPDEST CALLVALUE DUP1 ISZERO PUSH2 0x133 JUMPI PUSH1 0x0 DUP1 REVERT JUMPDEST POP PUSH2 0x14E PUSH1 0x4 DUP1 CALLDATASIZE SUB DUP2 ADD SWAP1 PUSH2 0x149 SWAP2 SWAP1 PUSH2 0x1696 JUMP JUMPDEST PUSH2 0x3F5 JUMP JUMPDEST STOP JUMPDEST CALLVALUE DUP1 ISZERO PUSH2 0x15C JUMPI PUSH1 0x0 DUP1 REVERT JUMPDEST POP PUSH2 0x177 PUSH1 0x4 DUP1 CALLDATASIZE SUB DUP2 ADD SWAP1 PUSH2 0x172 SWAP2 SWAP1 PUSH2 0x1735 JUMP JUMPDEST PUSH2 0x729 JUMP JUMPDEST PUSH1 0x40 MLOAD PUSH2 0x186 SWAP4 SWAP3 SWAP2 SWAP1 PUSH2 0x184B JUMP JUMPDEST PUSH1 0x40 MLOAD DUP1 SWAP2 SUB SWAP1 RETURN JUMPDEST CALLVALUE DUP1 ISZERO PUSH2 0x19B JUMPI PUSH1 0x0 DUP1 REVERT JUMPDEST POP PUSH2 0x1B6 PUSH1 0x4 DUP1 CALLDATASIZE SUB DUP2 ADD SWAP1 PUSH2 0x1B1 SWAP2 SWAP1 PUSH2 0x1889 JUMP JUMPDEST PUSH2 0x9E7 JUMP JUMPDEST STOP JUMPDEST CALLVALUE DUP1 ISZERO PUSH2 0x1C4 JUMPI PUSH1 0x0 DUP1 REVERT JUMPDEST POP PUSH2 0x1DF PUSH1 0x4 DUP1 CALLDATASIZE SUB DUP2 ADD SWAP1 PUSH2 0x1DA SWAP2 SWAP1 PUSH2 0x1735 JUMP JUMPDEST PUSH2 0xCA6 JUMP JUMPDEST PUSH1 0x40 MLOAD PUSH2 0x1EF SWAP5 SWAP4 SWAP3 SWAP2 SWAP1 PUSH2 0x192E JUMP JUMPDEST PUSH1 0x40 MLOAD DUP1 SWAP2 SUB SWAP1 RETURN JUMPDEST CALLVALUE DUP1 ISZERO PUSH2 0x204 JUMPI PUSH1 0x0 DUP1 REVERT JUMPDEST POP PUSH2 0x21F PUSH1 0x4 DUP1 CALLDATASIZE SUB DUP2 ADD SWAP1 PUSH2 0x21A SWAP2 SWAP1 PUSH2 0x1973 JUMP JUMPDEST PUSH2 0xD37 JUMP JUMPDEST PUSH1 0x40 MLOAD PUSH2 0x22C SWAP2 SWAP1 PUSH2 0x19A0 JUMP JUMPDEST PUSH1 0x40 MLOAD DUP1 SWAP2 SUB SWAP1 RETURN JUMPDEST CALLVALUE DUP1 ISZERO PUSH2 0x241 JUMPI PUSH1 0x0 DUP1 REVERT JUMPDEST POP PUSH2 0x25C PUSH1 0x4 DUP1 CALLDATASIZE SUB DUP2 ADD SWAP1 PUSH2 0x257 SWAP2 SWAP1 PUSH2 0x1735 JUMP JUMPDEST PUSH2 0xD4F JUMP JUMPDEST PUSH1 0x40 MLOAD PUSH2 0x269 SWAP2 SWAP1 PUSH2 0x19A0 JUMP JUMPDEST PUSH1 0x40 MLOAD DUP1 SWAP2 SUB SWAP1 RETURN JUMPDEST CALLVALUE DUP1 ISZERO PUSH2 0x27E JUMPI PUSH1 0x0 DUP1 REVERT JUMPDEST POP PUSH2 0x299 PUSH1 0x4 DUP1 CALLDATASIZE SUB DUP2 ADD SWAP1 PUSH2 0x294 SWAP2 SWAP1 PUSH2 0x1735 JUMP JUMPDEST PUSH2 0xD91 JUMP JUMPDEST PUSH1 0x40 MLOAD PUSH2 0x2A6 SWAP2 SWAP1 PUSH2 0x1A79 JUMP JUMPDEST PUSH1 0x40 MLOAD DUP1 SWAP2 SUB SWAP1 RETURN JUMPDEST CALLVALUE DUP1 ISZERO PUSH2 0x2BB JUMPI PUSH1 0x0 DUP1 REVERT JUMPDEST POP PUSH2 0x2D6 PUSH1 0x4 DUP1 CALLDATASIZE SUB DUP2 ADD SWAP1 PUSH2 0x2D1 SWAP2 SWAP1 PUSH2 0x1A9B JUMP JUMPDEST PUSH2 0xE45 JUMP JUMPDEST PUSH1 0x40 MLOAD PUSH2 0x2E4 SWAP3 SWAP2 SWAP1 PUSH2 0x1AF7 JUMP JUMPDEST PUSH1 0x40 MLOAD DUP1 SWAP2 SUB SWAP1 RETURN JUMPDEST CALLVALUE DUP1 ISZERO PUSH2 0x2F9 JUMPI PUSH1 0x0 DUP1 REVERT JUMPDEST POP PUSH2 0x314 PUSH1 0x4 DUP1 CALLDATASIZE SUB DUP2 ADD SWAP1 PUSH2 0x30F SWAP2 SWAP1 PUSH2 0x1735 JUMP JUMPDEST PUSH2 0xEF5 JUMP JUMPDEST STOP JUMPDEST PUSH1 0x0 ADDRESS DUP6 DUP6 DUP6 DUP6 PUSH1 0x40 MLOAD PUSH1 0x20 ADD PUSH2 0x331 SWAP6 SWAP5 SWAP4 SWAP3 SWAP2 SWAP1 PUSH2 0x1C11 JUMP JUMPDEST PUSH1 0x40 MLOAD PUSH1 0x20 DUP2 DUP4 SUB SUB DUP2 MSTORE SWAP1 PUSH1 0x40 MSTORE DUP1 MLOAD SWAP1 PUSH1 0x20 ADD KECCAK256 SWAP1 POP SWAP5 SWAP4 POP POP POP POP JUMP JUMPDEST PUSH1 0x60 PUSH1 0x0 DUP1 PUSH1 0x0 DUP6 PUSH1 0x40 MLOAD PUSH2 0x366 SWAP2 SWAP1 PUSH2 0x1C77 JUMP JUMPDEST SWAP1 DUP2 MSTORE PUSH1 0x20 ADD PUSH1 0x40 MLOAD DUP1 SWAP2 SUB SWAP1 KECCAK256 SWAP1 POP CALLER DUP2 PUSH1 0x0 ADD PUSH1 0x0 PUSH2 0x100 EXP DUP2 SLOAD DUP2 PUSH20 0xFFFFFFFFFFFFFFFFFFFFFFFFFFFFFFFFFFFFFFFF MUL NOT AND SWAP1 DUP4 PUSH20 0xFFFFFFFFFFFFFFFFFFFFFFFFFFFFFFFFFFFFFFFF AND MUL OR SWAP1 SSTORE POP DUP4 PUSH2 0xFFFF AND DUP2 PUSH1 0x2 ADD PUSH1 0x0 PUSH2 0x100 EXP DUP2 SLOAD DUP2 PUSH4 0xFFFFFFFF MUL NOT AND SWAP1 DUP4 PUSH4 0xFFFFFFFF AND MUL OR SWAP1 SSTORE POP DUP5 DUP5 DUP1 PUSH2 0xFFFF AND SWAP1 POP SWAP3 POP SWAP3 POP POP SWAP3 POP SWAP3 SWAP1 POP JUMP JUMPDEST DUP4 DUP4 PUSH1 0x0 DUP1 DUP3 PUSH1 0x40 MLOAD PUSH2 0x408 SWAP2 SWAP1 PUSH2 0x1C77 JUMP JUMPDEST SWAP1 DUP2 MSTORE PUSH1 0x20 ADD PUSH1 0x40 MLOAD DUP1 SWAP2 SUB SWAP1 KECCAK256 SWAP1 POP PUSH1 0x1 ISZERO ISZERO DUP2 PUSH1 0x3 ADD PUSH1 0x0 DUP6 PUSH20 0xFFFFFFFFFFFFFFFFFFFFFFFFFFFFFFFFFFFFFFFF AND PUSH20 0xFFFFFFFFFFFFFFFFFFFFFFFFFFFFFFFFFFFFFFFF AND DUP2 MSTORE PUSH1 0x20 ADD SWAP1 DUP2 MSTORE PUSH1 0x20 ADD PUSH1 0x0 KECCAK256 PUSH1 0x0 SWAP1 SLOAD SWAP1 PUSH2 0x100 EXP SWAP1 DIV PUSH1 0xFF AND ISZERO ISZERO EQ PUSH2 0x4AD JUMPI PUSH1 0x40 MLOAD PUSH32 0x8C379A000000000000000000000000000000000000000000000000000000000 DUP2 MSTORE PUSH1 0x4 ADD PUSH2 0x4A4 SWAP1 PUSH2 0x1D00 JUMP JUMPDEST PUSH1 0x40 MLOAD DUP1 SWAP2 SUB SWAP1 REVERT JUMPDEST DUP6 PUSH1 0x0 DUP1 DUP3 PUSH1 0x40 MLOAD PUSH2 0x4BF SWAP2 SWAP1 PUSH2 0x1C77 JUMP JUMPDEST SWAP1 DUP2 MSTORE PUSH1 0x20 ADD PUSH1 0x40 MLOAD DUP1 SWAP2 SUB SWAP1 KECCAK256 SWAP1 POP PUSH1 0x1 ISZERO ISZERO DUP2 PUSH1 0x2 ADD PUSH1 0x6 SWAP1 SLOAD SWAP1 PUSH2 0x100 EXP SWAP1 DIV PUSH1 0xFF AND ISZERO ISZERO EQ PUSH2 0x527 JUMPI PUSH1 0x40 MLOAD PUSH32 0x8C379A000000000000000000000000000000000000000000000000000000000 DUP2 MSTORE PUSH1 0x4 ADD PUSH2 0x51E SWAP1 PUSH2 0x1D6C JUMP JUMPDEST PUSH1 0x40 MLOAD DUP1 SWAP2 SUB SWAP1 REVERT JUMPDEST PUSH1 0x0 PUSH2 0x535 DUP11 DUP11 DUP11 TIMESTAMP PUSH2 0x316 JUMP JUMPDEST SWAP1 POP PUSH1 0x0 PUSH2 0x543 DUP3 DUP10 PUSH2 0xFDA JUMP JUMPDEST SWAP1 POP PUSH1 0x0 PUSH20 0xFFFFFFFFFFFFFFFFFFFFFFFFFFFFFFFFFFFFFFFF AND DUP2 PUSH20 0xFFFFFFFFFFFFFFFFFFFFFFFFFFFFFFFFFFFFFFFF AND EQ ISZERO PUSH2 0x57F JUMPI PUSH1 0x0 DUP1 REVERT JUMPDEST PUSH1 0x1 PUSH1 0x0 DUP3 PUSH20 0xFFFFFFFFFFFFFFFFFFFFFFFFFFFFFFFFFFFFFFFF AND PUSH20 0xFFFFFFFFFFFFFFFFFFFFFFFFFFFFFFFFFFFFFFFF AND DUP2 MSTORE PUSH1 0x20 ADD SWAP1 DUP2 MSTORE PUSH1 0x20 ADD PUSH1 0x0 KECCAK256 SLOAD DUP10 EQ PUSH2 0x5CA JUMPI PUSH1 0x0 DUP1 REVERT JUMPDEST PUSH1 0x1 PUSH1 0x0 DUP3 PUSH20 0xFFFFFFFFFFFFFFFFFFFFFFFFFFFFFFFFFFFFFFFF AND PUSH20 0xFFFFFFFFFFFFFFFFFFFFFFFFFFFFFFFFFFFFFFFF AND DUP2 MSTORE PUSH1 0x20 ADD SWAP1 DUP2 MSTORE PUSH1 0x20 ADD PUSH1 0x0 KECCAK256 PUSH1 0x0 DUP2 SLOAD DUP1 SWAP3 SWAP2 SWAP1 PUSH2 0x61A SWAP1 PUSH2 0x1DBB JUMP JUMPDEST SWAP2 SWAP1 POP SSTORE POP PUSH1 0x0 DUP1 DUP12 PUSH1 0x40 MLOAD PUSH2 0x630 SWAP2 SWAP1 PUSH2 0x1C77 JUMP JUMPDEST SWAP1 DUP2 MSTORE PUSH1 0x20 ADD PUSH1 0x40 MLOAD DUP1 SWAP2 SUB SWAP1 KECCAK256 SWAP1 POP PUSH1 0x0 ISZERO ISZERO DUP2 PUSH1 0x4 ADD PUSH1 0x0 CALLER PUSH20 0xFFFFFFFFFFFFFFFFFFFFFFFFFFFFFFFFFFFFFFFF AND PUSH20 0xFFFFFFFFFFFFFFFFFFFFFFFFFFFFFFFFFFFFFFFF AND DUP2 MSTORE PUSH1 0x20 ADD SWAP1 DUP2 MSTORE PUSH1 0x20 ADD PUSH1 0x0 KECCAK256 PUSH1 0x0 SWAP1 SLOAD SWAP1 PUSH2 0x100 EXP SWAP1 DIV PUSH1 0xFF AND ISZERO ISZERO EQ PUSH2 0x6D5 JUMPI PUSH1 0x40 MLOAD PUSH32 0x8C379A000000000000000000000000000000000000000000000000000000000 DUP2 MSTORE PUSH1 0x4 ADD PUSH2 0x6CC SWAP1 PUSH2 0x1E50 JUMP JUMPDEST PUSH1 0x40 MLOAD DUP1 SWAP2 SUB SWAP1 REVERT JUMPDEST PUSH2 0x6E0 DUP13 DUP13 CALLER PUSH2 0x10D3 JUMP JUMPDEST POP PUSH32 0xF3F16A15F074B71C5138107DFC7C63B80524D5411CB967CAA97D8D9F12B2FD6B DUP13 PUSH1 0x1 PUSH1 0x40 MLOAD PUSH2 0x713 SWAP3 SWAP2 SWAP1 PUSH2 0x1E70 JUMP JUMPDEST PUSH1 0x40 MLOAD DUP1 SWAP2 SUB SWAP1 LOG1 POP POP POP POP POP POP POP POP POP POP POP POP JUMP JUMPDEST PUSH1 0x60 PUSH1 0x0 DUP1 PUSH1 0x0 DUP1 DUP6 PUSH1 0x40 MLOAD PUSH2 0x73F SWAP2 SWAP1 PUSH2 0x1C77 JUMP JUMPDEST SWAP1 DUP2 MSTORE PUSH1 0x20 ADD PUSH1 0x40 MLOAD DUP1 SWAP2 SUB SWAP1 KECCAK256 SWAP1 POP PUSH1 0x0 PUSH20 0xFFFFFFFFFFFFFFFFFFFFFFFFFFFFFFFFFFFFFFFF AND DUP2 PUSH1 0x0 ADD PUSH1 0x0 SWAP1 SLOAD SWAP1 PUSH2 0x100 EXP SWAP1 DIV PUSH20 0xFFFFFFFFFFFFFFFFFFFFFFFFFFFFFFFFFFFFFFFF AND PUSH20 0xFFFFFFFFFFFFFFFFFFFFFFFFFFFFFFFFFFFFFFFF AND EQ ISZERO PUSH2 0x7E3 JUMPI PUSH1 0x40 MLOAD PUSH32 0x8C379A000000000000000000000000000000000000000000000000000000000 DUP2 MSTORE PUSH1 0x4 ADD PUSH2 0x7DA SWAP1 PUSH2 0x1EE5 JUMP JUMPDEST PUSH1 0x40 MLOAD DUP1 SWAP2 SUB SWAP1 REVERT JUMPDEST DUP1 PUSH1 0x1 ADD DUP1 SLOAD SWAP1 POP PUSH8 0xFFFFFFFFFFFFFFFF DUP2 GT ISZERO PUSH2 0x804 JUMPI PUSH2 0x803 PUSH2 0x1280 JUMP JUMPDEST JUMPDEST PUSH1 0x40 MLOAD SWAP1 DUP1 DUP3 MSTORE DUP1 PUSH1 0x20 MUL PUSH1 0x20 ADD DUP3 ADD PUSH1 0x40 MSTORE DUP1 ISZERO PUSH2 0x832 JUMPI DUP2 PUSH1 0x20 ADD PUSH1 0x20 DUP3 MUL DUP1 CALLDATASIZE DUP4 CALLDATACOPY DUP1 DUP3 ADD SWAP2 POP POP SWAP1 POP JUMPDEST POP SWAP4 POP PUSH1 0x0 DUP1 PUSH1 0x0 JUMPDEST DUP4 PUSH1 0x1 ADD DUP1 SLOAD SWAP1 POP DUP2 GT PUSH2 0x9D3 JUMPI PUSH1 0x0 DUP5 PUSH1 0x5 ADD PUSH1 0x0 DUP7 PUSH1 0x1 ADD DUP5 DUP2 SLOAD DUP2 LT PUSH2 0x867 JUMPI PUSH2 0x866 PUSH2 0x1F05 JUMP JUMPDEST JUMPDEST SWAP1 PUSH1 0x0 MSTORE PUSH1 0x20 PUSH1 0x0 KECCAK256 ADD PUSH1 0x0 SWAP1 SLOAD SWAP1 PUSH2 0x100 EXP SWAP1 DIV PUSH20 0xFFFFFFFFFFFFFFFFFFFFFFFFFFFFFFFFFFFFFFFF AND PUSH20 0xFFFFFFFFFFFFFFFFFFFFFFFFFFFFFFFFFFFFFFFF AND PUSH20 0xFFFFFFFFFFFFFFFFFFFFFFFFFFFFFFFFFFFFFFFF AND DUP2 MSTORE PUSH1 0x20 ADD SWAP1 DUP2 MSTORE PUSH1 0x20 ADD PUSH1 0x0 KECCAK256 SLOAD SWAP1 POP DUP4 DUP2 GT ISZERO PUSH2 0x91E JUMPI DUP1 SWAP4 POP DUP5 PUSH1 0x1 ADD DUP3 DUP2 SLOAD DUP2 LT PUSH2 0x8F0 JUMPI PUSH2 0x8EF PUSH2 0x1F05 JUMP JUMPDEST JUMPDEST SWAP1 PUSH1 0x0 MSTORE PUSH1 0x20 PUSH1 0x0 KECCAK256 ADD PUSH1 0x0 SWAP1 SLOAD SWAP1 PUSH2 0x100 EXP SWAP1 DIV PUSH20 0xFFFFFFFFFFFFFFFFFFFFFFFFFFFFFFFFFFFFFFFF AND SWAP3 POP JUMPDEST DUP5 PUSH1 0x5 ADD PUSH1 0x0 DUP7 PUSH1 0x1 ADD DUP5 DUP2 SLOAD DUP2 LT PUSH2 0x93A JUMPI PUSH2 0x939 PUSH2 0x1F05 JUMP JUMPDEST JUMPDEST SWAP1 PUSH1 0x0 MSTORE PUSH1 0x20 PUSH1 0x0 KECCAK256 ADD PUSH1 0x0 SWAP1 SLOAD SWAP1 PUSH2 0x100 EXP SWAP1 DIV PUSH20 0xFFFFFFFFFFFFFFFFFFFFFFFFFFFFFFFFFFFFFFFF AND PUSH20 0xFFFFFFFFFFFFFFFFFFFFFFFFFFFFFFFFFFFFFFFF AND PUSH20 0xFFFFFFFFFFFFFFFFFFFFFFFFFFFFFFFFFFFFFFFF AND DUP2 MSTORE PUSH1 0x20 ADD SWAP1 DUP2 MSTORE PUSH1 0x20 ADD PUSH1 0x0 KECCAK256 SLOAD DUP9 DUP4 DUP2 MLOAD DUP2 LT PUSH2 0x9B3 JUMPI PUSH2 0x9B2 PUSH2 0x1F05 JUMP JUMPDEST JUMPDEST PUSH1 0x20 MUL PUSH1 0x20 ADD ADD DUP2 DUP2 MSTORE POP POP POP DUP1 DUP1 PUSH2 0x9CB SWAP1 PUSH2 0x1DBB JUMP JUMPDEST SWAP2 POP POP PUSH2 0x83B JUMP JUMPDEST POP DUP6 DUP2 DUP4 SWAP6 POP SWAP6 POP SWAP6 POP POP POP POP SWAP2 SWAP4 SWAP1 SWAP3 POP JUMP JUMPDEST PUSH1 0x0 DUP1 DUP3 PUSH1 0x40 MLOAD PUSH2 0x9F8 SWAP2 SWAP1 PUSH2 0x1C77 JUMP JUMPDEST SWAP1 DUP2 MSTORE PUSH1 0x20 ADD PUSH1 0x40 MLOAD DUP1 SWAP2 SUB SWAP1 KECCAK256 SWAP1 POP PUSH1 0x0 PUSH20 0xFFFFFFFFFFFFFFFFFFFFFFFFFFFFFFFFFFFFFFFF AND DUP2 PUSH1 0x0 ADD PUSH1 0x0 SWAP1 SLOAD SWAP1 PUSH2 0x100 EXP SWAP1 DIV PUSH20 0xFFFFFFFFFFFFFFFFFFFFFFFFFFFFFFFFFFFFFFFF AND PUSH20 0xFFFFFFFFFFFFFFFFFFFFFFFFFFFFFFFFFFFFFFFF AND EQ ISZERO PUSH2 0xA9C JUMPI PUSH1 0x40 MLOAD PUSH32 0x8C379A000000000000000000000000000000000000000000000000000000000 DUP2 MSTORE PUSH1 0x4 ADD PUSH2 0xA93 SWAP1 PUSH2 0x1F80 JUMP JUMPDEST PUSH1 0x40 MLOAD DUP1 SWAP2 SUB SWAP1 REVERT JUMPDEST CALLER PUSH20 0xFFFFFFFFFFFFFFFFFFFFFFFFFFFFFFFFFFFFFFFF AND DUP2 PUSH1 0x0 ADD PUSH1 0x0 SWAP1 SLOAD SWAP1 PUSH2 0x100 EXP SWAP1 DIV PUSH20 0xFFFFFFFFFFFFFFFFFFFFFFFFFFFFFFFFFFFFFFFF AND PUSH20 0xFFFFFFFFFFFFFFFFFFFFFFFFFFFFFFFFFFFFFFFF AND EQ PUSH2 0xAFC JUMPI PUSH2 0xAFB PUSH2 0x1FA0 JUMP JUMPDEST JUMPDEST DUP1 PUSH1 0x2 ADD PUSH1 0x0 SWAP1 SLOAD SWAP1 PUSH2 0x100 EXP SWAP1 DIV PUSH4 0xFFFFFFFF AND PUSH4 0xFFFFFFFF AND DUP2 PUSH1 0x2 ADD PUSH1 0x4 SWAP1 SLOAD SWAP1 PUSH2 0x100 EXP SWAP1 DIV PUSH2 0xFFFF AND PUSH2 0xFFFF AND LT PUSH2 0xB6E JUMPI PUSH1 0x40 MLOAD PUSH32 0x8C379A000000000000000000000000000000000000000000000000000000000 DUP2 MSTORE PUSH1 0x4 ADD PUSH2 0xB65 SWAP1 PUSH2 0x2041 JUMP JUMPDEST PUSH1 0x40 MLOAD DUP1 SWAP2 SUB SWAP1 REVERT JUMPDEST PUSH1 0x1 DUP2 PUSH1 0x3 ADD PUSH1 0x0 DUP6 PUSH20 0xFFFFFFFFFFFFFFFFFFFFFFFFFFFFFFFFFFFFFFFF AND PUSH20 0xFFFFFFFFFFFFFFFFFFFFFFFFFFFFFFFFFFFFFFFF AND DUP2 MSTORE PUSH1 0x20 ADD SWAP1 DUP2 MSTORE PUSH1 0x20 ADD PUSH1 0x0 KECCAK256 PUSH1 0x0 PUSH2 0x100 EXP DUP2 SLOAD DUP2 PUSH1 0xFF MUL NOT AND SWAP1 DUP4 ISZERO ISZERO MUL OR SWAP1 SSTORE POP DUP1 PUSH1 0x1 ADD DUP4 SWAP1 DUP1 PUSH1 0x1 DUP2 SLOAD ADD DUP1 DUP3 SSTORE DUP1 SWAP2 POP POP PUSH1 0x1 SWAP1 SUB SWAP1 PUSH1 0x0 MSTORE PUSH1 0x20 PUSH1 0x0 KECCAK256 ADD PUSH1 0x0 SWAP1 SWAP2 SWAP1 SWAP2 SWAP1 SWAP2 PUSH2 0x100 EXP DUP2 SLOAD DUP2 PUSH20 0xFFFFFFFFFFFFFFFFFFFFFFFFFFFFFFFFFFFFFFFF MUL NOT AND SWAP1 DUP4 PUSH20 0xFFFFFFFFFFFFFFFFFFFFFFFFFFFFFFFFFFFFFFFF AND MUL OR SWAP1 SSTORE POP DUP1 PUSH1 0x2 ADD PUSH1 0x4 DUP2 DUP2 SWAP1 SLOAD SWAP1 PUSH2 0x100 EXP SWAP1 DIV PUSH2 0xFFFF AND DUP1 SWAP3 SWAP2 SWAP1 PUSH2 0xC4F SWAP1 PUSH2 0x2061 JUMP JUMPDEST SWAP2 SWAP1 PUSH2 0x100 EXP DUP2 SLOAD DUP2 PUSH2 0xFFFF MUL NOT AND SWAP1 DUP4 PUSH2 0xFFFF AND MUL OR SWAP1 SSTORE POP POP PUSH32 0xC19C59AA93348E8FC54764BC642ECA975E2639F44CC683EF8F027E1529CBDA32 DUP4 PUSH1 0x40 MLOAD PUSH2 0xC99 SWAP2 SWAP1 PUSH2 0x208C JUMP JUMPDEST PUSH1 0x40 MLOAD DUP1 SWAP2 SUB SWAP1 LOG1 POP POP POP JUMP JUMPDEST PUSH1 0x0 DUP2 DUP1 MLOAD PUSH1 0x20 DUP2 ADD DUP3 ADD DUP1 MLOAD DUP5 DUP3 MSTORE PUSH1 0x20 DUP4 ADD PUSH1 0x20 DUP6 ADD KECCAK256 DUP2 DUP4 MSTORE DUP1 SWAP6 POP POP POP POP POP POP PUSH1 0x0 SWAP2 POP SWAP1 POP DUP1 PUSH1 0x0 ADD PUSH1 0x0 SWAP1 SLOAD SWAP1 PUSH2 0x100 EXP SWAP1 DIV PUSH20 0xFFFFFFFFFFFFFFFFFFFFFFFFFFFFFFFFFFFFFFFF AND SWAP1 DUP1 PUSH1 0x2 ADD PUSH1 0x0 SWAP1 SLOAD SWAP1 PUSH2 0x100 EXP SWAP1 DIV PUSH4 0xFFFFFFFF AND SWAP1 DUP1 PUSH1 0x2 ADD PUSH1 0x4 SWAP1 SLOAD SWAP1 PUSH2 0x100 EXP SWAP1 DIV PUSH2 0xFFFF AND SWAP1 DUP1 PUSH1 0x2 ADD PUSH1 0x6 SWAP1 SLOAD SWAP1 PUSH2 0x100 EXP SWAP1 DIV PUSH1 0xFF AND SWAP1 POP DUP5 JUMP JUMPDEST PUSH1 0x1 PUSH1 0x20 MSTORE DUP1 PUSH1 0x0 MSTORE PUSH1 0x40 PUSH1 0x0 KECCAK256 PUSH1 0x0 SWAP2 POP SWAP1 POP SLOAD DUP2 JUMP JUMPDEST PUSH1 0x0 DUP1 PUSH1 0x0 DUP4 PUSH1 0x40 MLOAD PUSH2 0xD62 SWAP2 SWAP1 PUSH2 0x1C77 JUMP JUMPDEST SWAP1 DUP2 MSTORE PUSH1 0x20 ADD PUSH1 0x40 MLOAD DUP1 SWAP2 SUB SWAP1 KECCAK256 SWAP1 POP DUP1 PUSH1 0x2 ADD PUSH1 0x4 SWAP1 SLOAD SWAP1 PUSH2 0x100 EXP SWAP1 DIV PUSH2 0xFFFF AND PUSH2 0xFFFF AND SWAP2 POP POP SWAP2 SWAP1 POP JUMP JUMPDEST PUSH1 0x60 PUSH1 0x0 DUP1 DUP4 PUSH1 0x40 MLOAD PUSH2 0xDA4 SWAP2 SWAP1 PUSH2 0x1C77 JUMP JUMPDEST SWAP1 DUP2 MSTORE PUSH1 0x20 ADD PUSH1 0x40 MLOAD DUP1 SWAP2 SUB SWAP1 KECCAK256 SWAP1 POP DUP1 PUSH1 0x1 ADD DUP1 SLOAD DUP1 PUSH1 0x20 MUL PUSH1 0x20 ADD PUSH1 0x40 MLOAD SWAP1 DUP2 ADD PUSH1 0x40 MSTORE DUP1 SWAP3 SWAP2 SWAP1 DUP2 DUP2 MSTORE PUSH1 0x20 ADD DUP3 DUP1 SLOAD DUP1 ISZERO PUSH2 0xE38 JUMPI PUSH1 0x20 MUL DUP3 ADD SWAP2 SWAP1 PUSH1 0x0 MSTORE PUSH1 0x20 PUSH1 0x0 KECCAK256 SWAP1 JUMPDEST DUP2 PUSH1 0x0 SWAP1 SLOAD SWAP1 PUSH2 0x100 EXP SWAP1 DIV PUSH20 0xFFFFFFFFFFFFFFFFFFFFFFFFFFFFFFFFFFFFFFFF AND PUSH20 0xFFFFFFFFFFFFFFFFFFFFFFFFFFFFFFFFFFFFFFFF AND DUP2 MSTORE PUSH1 0x20 ADD SWAP1 PUSH1 0x1 ADD SWAP1 DUP1 DUP4 GT PUSH2 0xDEE JUMPI JUMPDEST POP POP POP POP POP SWAP2 POP POP SWAP2 SWAP1 POP JUMP JUMPDEST PUSH1 0x0 DUP1 PUSH1 0x0 DUP1 DUP6 PUSH1 0x40 MLOAD PUSH2 0xE59 SWAP2 SWAP1 PUSH2 0x1C77 JUMP JUMPDEST SWAP1 DUP2 MSTORE PUSH1 0x20 ADD PUSH1 0x40 MLOAD DUP1 SWAP2 SUB SWAP1 KECCAK256 SWAP1 POP DUP1 PUSH1 0x5 ADD PUSH1 0x0 DUP3 PUSH1 0x1 ADD DUP7 DUP2 SLOAD DUP2 LT PUSH2 0xE85 JUMPI PUSH2 0xE84 PUSH2 0x1F05 JUMP JUMPDEST JUMPDEST SWAP1 PUSH1 0x0 MSTORE PUSH1 0x20 PUSH1 0x0 KECCAK256 ADD PUSH1 0x0 SWAP1 SLOAD SWAP1 PUSH2 0x100 EXP SWAP1 DIV PUSH20 0xFFFFFFFFFFFFFFFFFFFFFFFFFFFFFFFFFFFFFFFF AND PUSH20 0xFFFFFFFFFFFFFFFFFFFFFFFFFFFFFFFFFFFFFFFF AND PUSH20 0xFFFFFFFFFFFFFFFFFFFFFFFFFFFFFFFFFFFFFFFF AND DUP2 MSTORE PUSH1 0x20 ADD SWAP1 DUP2 MSTORE PUSH1 0x20 ADD PUSH1 0x0 KECCAK256 SLOAD SWAP3 POP POP SWAP3 POP SWAP3 SWAP1 POP JUMP JUMPDEST PUSH1 0x0 DUP1 DUP3 PUSH1 0x40 MLOAD PUSH2 0xF06 SWAP2 SWAP1 PUSH2 0x1C77 JUMP JUMPDEST SWAP1 DUP2 MSTORE PUSH1 0x20 ADD PUSH1 0x40 MLOAD DUP1 SWAP2 SUB SWAP1 KECCAK256 SWAP1 POP CALLER PUSH20 0xFFFFFFFFFFFFFFFFFFFFFFFFFFFFFFFFFFFFFFFF AND DUP2 PUSH1 0x0 ADD PUSH1 0x0 SWAP1 SLOAD SWAP1 PUSH2 0x100 EXP SWAP1 DIV PUSH20 0xFFFFFFFFFFFFFFFFFFFFFFFFFFFFFFFFFFFFFFFF AND PUSH20 0xFFFFFFFFFFFFFFFFFFFFFFFFFFFFFFFFFFFFFFFF AND EQ PUSH2 0xFA8 JUMPI PUSH1 0x40 MLOAD PUSH32 0x8C379A000000000000000000000000000000000000000000000000000000000 DUP2 MSTORE PUSH1 0x4 ADD PUSH2 0xF9F SWAP1 PUSH2 0x20F3 JUMP JUMPDEST PUSH1 0x40 MLOAD DUP1 SWAP2 SUB SWAP1 REVERT JUMPDEST DUP1 PUSH1 0x2 ADD PUSH1 0x6 SWAP1 SLOAD SWAP1 PUSH2 0x100 EXP SWAP1 DIV PUSH1 0xFF AND ISZERO DUP2 PUSH1 0x2 ADD PUSH1 0x6 PUSH2 0x100 EXP DUP2 SLOAD DUP2 PUSH1 0xFF MUL NOT AND SWAP1 DUP4 ISZERO ISZERO MUL OR SWAP1 SSTORE POP POP POP JUMP JUMPDEST PUSH1 0x0 DUP1 PUSH1 0x0 DUP1 PUSH1 0x41 DUP6 MLOAD EQ PUSH2 0xFF5 JUMPI PUSH1 0x0 SWAP4 POP POP POP POP PUSH2 0x10CD JUMP JUMPDEST PUSH1 0x20 DUP6 ADD MLOAD SWAP3 POP PUSH1 0x40 DUP6 ADD MLOAD SWAP2 POP PUSH1 0x60 DUP6 ADD MLOAD PUSH1 0x0 BYTE SWAP1 POP PUSH1 0x1B DUP2 PUSH1 0xFF AND LT ISZERO PUSH2 0x1029 JUMPI PUSH1 0x1B DUP2 PUSH2 0x1026 SWAP2 SWAP1 PUSH2 0x2120 JUMP JUMPDEST SWAP1 POP JUMPDEST PUSH1 0x1B DUP2 PUSH1 0xFF AND EQ ISZERO DUP1 ISZERO PUSH2 0x1041 JUMPI POP PUSH1 0x1C DUP2 PUSH1 0xFF AND EQ ISZERO JUMPDEST ISZERO PUSH2 0x1052 JUMPI PUSH1 0x0 SWAP4 POP POP POP POP PUSH2 0x10CD JUMP JUMPDEST PUSH1 0x1 DUP7 PUSH1 0x40 MLOAD PUSH1 0x20 ADD PUSH2 0x1065 SWAP2 SWAP1 PUSH2 0x21C4 JUMP JUMPDEST PUSH1 0x40 MLOAD PUSH1 0x20 DUP2 DUP4 SUB SUB DUP2 MSTORE SWAP1 PUSH1 0x40 MSTORE DUP1 MLOAD SWAP1 PUSH1 0x20 ADD KECCAK256 DUP3 DUP6 DUP6 PUSH1 0x40 MLOAD PUSH1 0x0 DUP2 MSTORE PUSH1 0x20 ADD PUSH1 0x40 MSTORE PUSH1 0x40 MLOAD PUSH2 0x109B SWAP5 SWAP4 SWAP3 SWAP2 SWAP1 PUSH2 0x21F9 JUMP JUMPDEST PUSH1 0x20 PUSH1 0x40 MLOAD PUSH1 0x20 DUP2 SUB SWAP1 DUP1 DUP5 SUB SWAP1 DUP6 GAS STATICCALL ISZERO DUP1 ISZERO PUSH2 0x10BD JUMPI RETURNDATASIZE PUSH1 0x0 DUP1 RETURNDATACOPY RETURNDATASIZE PUSH1 0x0 REVERT JUMPDEST POP POP POP PUSH1 0x20 PUSH1 0x40 MLOAD SUB MLOAD SWAP4 POP POP POP POP JUMPDEST SWAP3 SWAP2 POP POP JUMP JUMPDEST PUSH1 0x0 DUP1 PUSH1 0x0 DUP5 PUSH1 0x40 MLOAD PUSH2 0x10E6 SWAP2 SWAP1 PUSH2 0x1C77 JUMP JUMPDEST SWAP1 DUP2 MSTORE PUSH1 0x20 ADD PUSH1 0x40 MLOAD DUP1 SWAP2 SUB SWAP1 KECCAK256 SWAP1 POP PUSH1 0x1 DUP2 PUSH1 0x4 ADD PUSH1 0x0 DUP6 PUSH20 0xFFFFFFFFFFFFFFFFFFFFFFFFFFFFFFFFFFFFFFFF AND PUSH20 0xFFFFFFFFFFFFFFFFFFFFFFFFFFFFFFFFFFFFFFFF AND DUP2 MSTORE PUSH1 0x20 ADD SWAP1 DUP2 MSTORE PUSH1 0x20 ADD PUSH1 0x0 KECCAK256 PUSH1 0x0 PUSH2 0x100 EXP DUP2 SLOAD DUP2 PUSH1 0xFF MUL NOT AND SWAP1 DUP4 ISZERO ISZERO MUL OR SWAP1 SSTORE POP DUP1 PUSH1 0x5 ADD PUSH1 0x0 DUP7 PUSH20 0xFFFFFFFFFFFFFFFFFFFFFFFFFFFFFFFFFFFFFFFF AND PUSH20 0xFFFFFFFFFFFFFFFFFFFFFFFFFFFFFFFFFFFFFFFF AND DUP2 MSTORE PUSH1 0x20 ADD SWAP1 DUP2 MSTORE PUSH1 0x20 ADD PUSH1 0x0 KECCAK256 PUSH1 0x0 DUP2 SLOAD DUP1 SWAP3 SWAP2 SWAP1 PUSH2 0x11A2 SWAP1 PUSH2 0x1DBB JUMP JUMPDEST SWAP2 SWAP1 POP SSTORE POP DUP1 PUSH1 0x5 ADD PUSH1 0x0 DUP7 PUSH20 0xFFFFFFFFFFFFFFFFFFFFFFFFFFFFFFFFFFFFFFFF AND PUSH20 0xFFFFFFFFFFFFFFFFFFFFFFFFFFFFFFFFFFFFFFFF AND DUP2 MSTORE PUSH1 0x20 ADD SWAP1 DUP2 MSTORE PUSH1 0x20 ADD PUSH1 0x0 KECCAK256 SLOAD SWAP2 POP POP SWAP4 SWAP3 POP POP POP JUMP JUMPDEST PUSH1 0x0 PUSH1 0x40 MLOAD SWAP1 POP SWAP1 JUMP JUMPDEST PUSH1 0x0 DUP1 REVERT JUMPDEST PUSH1 0x0 DUP1 REVERT JUMPDEST PUSH1 0x0 PUSH20 0xFFFFFFFFFFFFFFFFFFFFFFFFFFFFFFFFFFFFFFFF DUP3 AND SWAP1 POP SWAP2 SWAP1 POP JUMP JUMPDEST PUSH1 0x0 PUSH2 0x1232 DUP3 PUSH2 0x1207 JUMP JUMPDEST SWAP1 POP SWAP2 SWAP1 POP JUMP JUMPDEST PUSH2 0x1242 DUP2 PUSH2 0x1227 JUMP JUMPDEST DUP2 EQ PUSH2 0x124D JUMPI PUSH1 0x0 DUP1 REVERT JUMPDEST POP JUMP JUMPDEST PUSH1 0x0 DUP2 CALLDATALOAD SWAP1 POP PUSH2 0x125F DUP2 PUSH2 0x1239 JUMP JUMPDEST SWAP3 SWAP2 POP POP JUMP JUMPDEST PUSH1 0x0 DUP1 REVERT JUMPDEST PUSH1 0x0 DUP1 REVERT JUMPDEST PUSH1 0x0 PUSH1 0x1F NOT PUSH1 0x1F DUP4 ADD AND SWAP1 POP SWAP2 SWAP1 POP JUMP JUMPDEST PUSH32 0x4E487B7100000000000000000000000000000000000000000000000000000000 PUSH1 0x0 MSTORE PUSH1 0x41 PUSH1 0x4 MSTORE PUSH1 0x24 PUSH1 0x0 REVERT JUMPDEST PUSH2 0x12B8 DUP3 PUSH2 0x126F JUMP JUMPDEST DUP2 ADD DUP2 DUP2 LT PUSH8 0xFFFFFFFFFFFFFFFF DUP3 GT OR ISZERO PUSH2 0x12D7 JUMPI PUSH2 0x12D6 PUSH2 0x1280 JUMP JUMPDEST JUMPDEST DUP1 PUSH1 0x40 MSTORE POP POP POP JUMP JUMPDEST PUSH1 0x0 PUSH2 0x12EA PUSH2 0x11F3 JUMP JUMPDEST SWAP1 POP PUSH2 0x12F6 DUP3 DUP3 PUSH2 0x12AF JUMP JUMPDEST SWAP2 SWAP1 POP JUMP JUMPDEST PUSH1 0x0 PUSH8 0xFFFFFFFFFFFFFFFF DUP3 GT ISZERO PUSH2 0x1316 JUMPI PUSH2 0x1315 PUSH2 0x1280 JUMP JUMPDEST JUMPDEST PUSH2 0x131F DUP3 PUSH2 0x126F JUMP JUMPDEST SWAP1 POP PUSH1 0x20 DUP2 ADD SWAP1 POP SWAP2 SWAP1 POP JUMP JUMPDEST DUP3 DUP2 DUP4 CALLDATACOPY PUSH1 0x0 DUP4 DUP4 ADD MSTORE POP POP POP JUMP JUMPDEST PUSH1 0x0 PUSH2 0x134E PUSH2 0x1349 DUP5 PUSH2 0x12FB JUMP JUMPDEST PUSH2 0x12E0 JUMP JUMPDEST SWAP1 POP DUP3 DUP2 MSTORE PUSH1 0x20 DUP2 ADD DUP5 DUP5 DUP5 ADD GT ISZERO PUSH2 0x136A JUMPI PUSH2 0x1369 PUSH2 0x126A JUMP JUMPDEST JUMPDEST PUSH2 0x1375 DUP5 DUP3 DUP6 PUSH2 0x132C JUMP JUMPDEST POP SWAP4 SWAP3 POP POP POP JUMP JUMPDEST PUSH1 0x0 DUP3 PUSH1 0x1F DUP4 ADD SLT PUSH2 0x1392 JUMPI PUSH2 0x1391 PUSH2 0x1265 JUMP JUMPDEST JUMPDEST DUP2 CALLDATALOAD PUSH2 0x13A2 DUP5 DUP3 PUSH1 0x20 DUP7 ADD PUSH2 0x133B JUMP JUMPDEST SWAP2 POP POP SWAP3 SWAP2 POP POP JUMP JUMPDEST PUSH1 0x0 DUP2 SWAP1 POP SWAP2 SWAP1 POP JUMP JUMPDEST PUSH2 0x13BE DUP2 PUSH2 0x13AB JUMP JUMPDEST DUP2 EQ PUSH2 0x13C9 JUMPI PUSH1 0x0 DUP1 REVERT JUMPDEST POP JUMP JUMPDEST PUSH1 0x0 DUP2 CALLDATALOAD SWAP1 POP PUSH2 0x13DB DUP2 PUSH2 0x13B5 JUMP JUMPDEST SWAP3 SWAP2 POP POP JUMP JUMPDEST PUSH1 0x0 DUP1 PUSH1 0x0 DUP1 PUSH1 0x80 DUP6 DUP8 SUB SLT ISZERO PUSH2 0x13FB JUMPI PUSH2 0x13FA PUSH2 0x11FD JUMP JUMPDEST JUMPDEST PUSH1 0x0 PUSH2 0x1409 DUP8 DUP3 DUP9 ADD PUSH2 0x1250 JUMP JUMPDEST SWAP5 POP POP PUSH1 0x20 DUP6 ADD CALLDATALOAD PUSH8 0xFFFFFFFFFFFFFFFF DUP2 GT ISZERO PUSH2 0x142A JUMPI PUSH2 0x1429 PUSH2 0x1202 JUMP JUMPDEST JUMPDEST PUSH2 0x1436 DUP8 DUP3 DUP9 ADD PUSH2 0x137D JUMP JUMPDEST SWAP4 POP POP PUSH1 0x40 PUSH2 0x1447 DUP8 DUP3 DUP9 ADD PUSH2 0x13CC JUMP JUMPDEST SWAP3 POP POP PUSH1 0x60 PUSH2 0x1458 DUP8 DUP3 DUP9 ADD PUSH2 0x13CC JUMP JUMPDEST SWAP2 POP POP SWAP3 SWAP6 SWAP2 SWAP5 POP SWAP3 POP JUMP JUMPDEST PUSH1 0x0 DUP2 SWAP1 POP SWAP2 SWAP1 POP JUMP JUMPDEST PUSH2 0x1477 DUP2 PUSH2 0x1464 JUMP JUMPDEST DUP3 MSTORE POP POP JUMP JUMPDEST PUSH1 0x0 PUSH1 0x20 DUP3 ADD SWAP1 POP PUSH2 0x1492 PUSH1 0x0 DUP4 ADD DUP5 PUSH2 0x146E JUMP JUMPDEST SWAP3 SWAP2 POP POP JUMP JUMPDEST PUSH1 0x0 PUSH2 0xFFFF DUP3 AND SWAP1 POP SWAP2 SWAP1 POP JUMP JUMPDEST PUSH2 0x14AF DUP2 PUSH2 0x1498 JUMP JUMPDEST DUP2 EQ PUSH2 0x14BA JUMPI PUSH1 0x0 DUP1 REVERT JUMPDEST POP JUMP JUMPDEST PUSH1 0x0 DUP2 CALLDATALOAD SWAP1 POP PUSH2 0x14CC DUP2 PUSH2 0x14A6 JUMP JUMPDEST SWAP3 SWAP2 POP POP JUMP JUMPDEST PUSH1 0x0 DUP1 PUSH1 0x40 DUP4 DUP6 SUB SLT ISZERO PUSH2 0x14E9 JUMPI PUSH2 0x14E8 PUSH2 0x11FD JUMP JUMPDEST JUMPDEST PUSH1 0x0 DUP4 ADD CALLDATALOAD PUSH8 0xFFFFFFFFFFFFFFFF DUP2 GT ISZERO PUSH2 0x1507 JUMPI PUSH2 0x1506 PUSH2 0x1202 JUMP JUMPDEST JUMPDEST PUSH2 0x1513 DUP6 DUP3 DUP7 ADD PUSH2 0x137D JUMP JUMPDEST SWAP3 POP POP PUSH1 0x20 PUSH2 0x1524 DUP6 DUP3 DUP7 ADD PUSH2 0x14BD JUMP JUMPDEST SWAP2 POP POP SWAP3 POP SWAP3 SWAP1 POP JUMP JUMPDEST PUSH1 0x0 DUP2 MLOAD SWAP1 POP SWAP2 SWAP1 POP JUMP JUMPDEST PUSH1 0x0 DUP3 DUP3 MSTORE PUSH1 0x20 DUP3 ADD SWAP1 POP SWAP3 SWAP2 POP POP JUMP JUMPDEST PUSH1 0x0 JUMPDEST DUP4 DUP2 LT ISZERO PUSH2 0x1568 JUMPI DUP1 DUP3 ADD MLOAD DUP2 DUP5 ADD MSTORE PUSH1 0x20 DUP2 ADD SWAP1 POP PUSH2 0x154D JUMP JUMPDEST DUP4 DUP2 GT ISZERO PUSH2 0x1577 JUMPI PUSH1 0x0 DUP5 DUP5 ADD MSTORE JUMPDEST POP POP POP POP JUMP JUMPDEST PUSH1 0x0 PUSH2 0x1588 DUP3 PUSH2 0x152E JUMP JUMPDEST PUSH2 0x1592 DUP2 DUP6 PUSH2 0x1539 JUMP JUMPDEST SWAP4 POP PUSH2 0x15A2 DUP2 DUP6 PUSH1 0x20 DUP7 ADD PUSH2 0x154A JUMP JUMPDEST PUSH2 0x15AB DUP2 PUSH2 0x126F JUMP JUMPDEST DUP5 ADD SWAP2 POP POP SWAP3 SWAP2 POP POP JUMP JUMPDEST PUSH2 0x15BF DUP2 PUSH2 0x13AB JUMP JUMPDEST DUP3 MSTORE POP POP JUMP JUMPDEST PUSH1 0x0 PUSH1 0x40 DUP3 ADD SWAP1 POP DUP2 DUP2 SUB PUSH1 0x0 DUP4 ADD MSTORE PUSH2 0x15DF DUP2 DUP6 PUSH2 0x157D JUMP JUMPDEST SWAP1 POP PUSH2 0x15EE PUSH1 0x20 DUP4 ADD DUP5 PUSH2 0x15B6 JUMP JUMPDEST SWAP4 SWAP3 POP POP POP JUMP JUMPDEST PUSH1 0x0 PUSH8 0xFFFFFFFFFFFFFFFF DUP3 GT ISZERO PUSH2 0x1610 JUMPI PUSH2 0x160F PUSH2 0x1280 JUMP JUMPDEST JUMPDEST PUSH2 0x1619 DUP3 PUSH2 0x126F JUMP JUMPDEST SWAP1 POP PUSH1 0x20 DUP2 ADD SWAP1 POP SWAP2 SWAP1 POP JUMP JUMPDEST PUSH1 0x0 PUSH2 0x1639 PUSH2 0x1634 DUP5 PUSH2 0x15F5 JUMP JUMPDEST PUSH2 0x12E0 JUMP JUMPDEST SWAP1 POP DUP3 DUP2 MSTORE PUSH1 0x20 DUP2 ADD DUP5 DUP5 DUP5 ADD GT ISZERO PUSH2 0x1655 JUMPI PUSH2 0x1654 PUSH2 0x126A JUMP JUMPDEST JUMPDEST PUSH2 0x1660 DUP5 DUP3 DUP6 PUSH2 0x132C JUMP JUMPDEST POP SWAP4 SWAP3 POP POP POP JUMP JUMPDEST PUSH1 0x0 DUP3 PUSH1 0x1F DUP4 ADD SLT PUSH2 0x167D JUMPI PUSH2 0x167C PUSH2 0x1265 JUMP JUMPDEST JUMPDEST DUP2 CALLDATALOAD PUSH2 0x168D DUP5 DUP3 PUSH1 0x20 DUP7 ADD PUSH2 0x1626 JUMP JUMPDEST SWAP2 POP POP SWAP3 SWAP2 POP POP JUMP JUMPDEST PUSH1 0x0 DUP1 PUSH1 0x0 DUP1 PUSH1 0x80 DUP6 DUP8 SUB SLT ISZERO PUSH2 0x16B0 JUMPI PUSH2 0x16AF PUSH2 0x11FD JUMP JUMPDEST JUMPDEST PUSH1 0x0 PUSH2 0x16BE DUP8 DUP3 DUP9 ADD PUSH2 0x1250 JUMP JUMPDEST SWAP5 POP POP PUSH1 0x20 DUP6 ADD CALLDATALOAD PUSH8 0xFFFFFFFFFFFFFFFF DUP2 GT ISZERO PUSH2 0x16DF JUMPI PUSH2 0x16DE PUSH2 0x1202 JUMP JUMPDEST JUMPDEST PUSH2 0x16EB DUP8 DUP3 DUP9 ADD PUSH2 0x137D JUMP JUMPDEST SWAP4 POP POP PUSH1 0x40 PUSH2 0x16FC DUP8 DUP3 DUP9 ADD PUSH2 0x13CC JUMP JUMPDEST SWAP3 POP POP PUSH1 0x60 DUP6 ADD CALLDATALOAD PUSH8 0xFFFFFFFFFFFFFFFF DUP2 GT ISZERO PUSH2 0x171D JUMPI PUSH2 0x171C PUSH2 0x1202 JUMP JUMPDEST JUMPDEST PUSH2 0x1729 DUP8 DUP3 DUP9 ADD PUSH2 0x1668 JUMP JUMPDEST SWAP2 POP POP SWAP3 SWAP6 SWAP2 SWAP5 POP SWAP3 POP JUMP JUMPDEST PUSH1 0x0 PUSH1 0x20 DUP3 DUP5 SUB SLT ISZERO PUSH2 0x174B JUMPI PUSH2 0x174A PUSH2 0x11FD JUMP JUMPDEST JUMPDEST PUSH1 0x0 DUP3 ADD CALLDATALOAD PUSH8 0xFFFFFFFFFFFFFFFF DUP2 GT ISZERO PUSH2 0x1769 JUMPI PUSH2 0x1768 PUSH2 0x1202 JUMP JUMPDEST JUMPDEST PUSH2 0x1775 DUP5 DUP3 DUP6 ADD PUSH2 0x137D JUMP JUMPDEST SWAP2 POP POP SWAP3 SWAP2 POP POP JUMP JUMPDEST PUSH1 0x0 DUP2 MLOAD SWAP1 POP SWAP2 SWAP1 POP JUMP JUMPDEST PUSH1 0x0 DUP3 DUP3 MSTORE PUSH1 0x20 DUP3 ADD SWAP1 POP SWAP3 SWAP2 POP POP JUMP JUMPDEST PUSH1 0x0 DUP2 SWAP1 POP PUSH1 0x20 DUP3 ADD SWAP1 POP SWAP2 SWAP1 POP JUMP JUMPDEST PUSH2 0x17B3 DUP2 PUSH2 0x13AB JUMP JUMPDEST DUP3 MSTORE POP POP JUMP JUMPDEST PUSH1 0x0 PUSH2 0x17C5 DUP4 DUP4 PUSH2 0x17AA JUMP JUMPDEST PUSH1 0x20 DUP4 ADD SWAP1 POP SWAP3 SWAP2 POP POP JUMP JUMPDEST PUSH1 0x0 PUSH1 0x20 DUP3 ADD SWAP1 POP SWAP2 SWAP1 POP JUMP JUMPDEST PUSH1 0x0 PUSH2 0x17E9 DUP3 PUSH2 0x177E JUMP JUMPDEST PUSH2 0x17F3 DUP2 DUP6 PUSH2 0x1789 JUMP JUMPDEST SWAP4 POP PUSH2 0x17FE DUP4 PUSH2 0x179A JUMP JUMPDEST DUP1 PUSH1 0x0 JUMPDEST DUP4 DUP2 LT ISZERO PUSH2 0x182F JUMPI DUP2 MLOAD PUSH2 0x1816 DUP9 DUP3 PUSH2 0x17B9 JUMP JUMPDEST SWAP8 POP PUSH2 0x1821 DUP4 PUSH2 0x17D1 JUMP JUMPDEST SWAP3 POP POP PUSH1 0x1 DUP2 ADD SWAP1 POP PUSH2 0x1802 JUMP JUMPDEST POP DUP6 SWAP4 POP POP POP POP SWAP3 SWAP2 POP POP JUMP JUMPDEST PUSH2 0x1845 DUP2 PUSH2 0x1227 JUMP JUMPDEST DUP3 MSTORE POP POP JUMP JUMPDEST PUSH1 0x0 PUSH1 0x60 DUP3 ADD SWAP1 POP DUP2 DUP2 SUB PUSH1 0x0 DUP4 ADD MSTORE PUSH2 0x1865 DUP2 DUP7 PUSH2 0x17DE JUMP JUMPDEST SWAP1 POP PUSH2 0x1874 PUSH1 0x20 DUP4 ADD DUP6 PUSH2 0x183C JUMP JUMPDEST PUSH2 0x1881 PUSH1 0x40 DUP4 ADD DUP5 PUSH2 0x15B6 JUMP JUMPDEST SWAP5 SWAP4 POP POP POP POP JUMP JUMPDEST PUSH1 0x0 DUP1 PUSH1 0x40 DUP4 DUP6 SUB SLT ISZERO PUSH2 0x18A0 JUMPI PUSH2 0x189F PUSH2 0x11FD JUMP JUMPDEST JUMPDEST PUSH1 0x0 PUSH2 0x18AE DUP6 DUP3 DUP7 ADD PUSH2 0x1250 JUMP JUMPDEST SWAP3 POP POP PUSH1 0x20 DUP4 ADD CALLDATALOAD PUSH8 0xFFFFFFFFFFFFFFFF DUP2 GT ISZERO PUSH2 0x18CF JUMPI PUSH2 0x18CE PUSH2 0x1202 JUMP JUMPDEST JUMPDEST PUSH2 0x18DB DUP6 DUP3 DUP7 ADD PUSH2 0x137D JUMP JUMPDEST SWAP2 POP POP SWAP3 POP SWAP3 SWAP1 POP JUMP JUMPDEST PUSH1 0x0 PUSH4 0xFFFFFFFF DUP3 AND SWAP1 POP SWAP2 SWAP1 POP JUMP JUMPDEST PUSH2 0x18FE DUP2 PUSH2 0x18E5 JUMP JUMPDEST DUP3 MSTORE POP POP JUMP JUMPDEST PUSH2 0x190D DUP2 PUSH2 0x1498 JUMP JUMPDEST DUP3 MSTORE POP POP JUMP JUMPDEST PUSH1 0x0 DUP2 ISZERO ISZERO SWAP1 POP SWAP2 SWAP1 POP JUMP JUMPDEST PUSH2 0x1928 DUP2 PUSH2 0x1913 JUMP JUMPDEST DUP3 MSTORE POP POP JUMP JUMPDEST PUSH1 0x0 PUSH1 0x80 DUP3 ADD SWAP1 POP PUSH2 0x1943 PUSH1 0x0 DUP4 ADD DUP8 PUSH2 0x183C JUMP JUMPDEST PUSH2 0x1950 PUSH1 0x20 DUP4 ADD DUP7 PUSH2 0x18F5 JUMP JUMPDEST PUSH2 0x195D PUSH1 0x40 DUP4 ADD DUP6 PUSH2 0x1904 JUMP JUMPDEST PUSH2 0x196A PUSH1 0x60 DUP4 ADD DUP5 PUSH2 0x191F JUMP JUMPDEST SWAP6 SWAP5 POP POP POP POP POP JUMP JUMPDEST PUSH1 0x0 PUSH1 0x20 DUP3 DUP5 SUB SLT ISZERO PUSH2 0x1989 JUMPI PUSH2 0x1988 PUSH2 0x11FD JUMP JUMPDEST JUMPDEST PUSH1 0x0 PUSH2 0x1997 DUP5 DUP3 DUP6 ADD PUSH2 0x1250 JUMP JUMPDEST SWAP2 POP POP SWAP3 SWAP2 POP POP JUMP JUMPDEST PUSH1 0x0 PUSH1 0x20 DUP3 ADD SWAP1 POP PUSH2 0x19B5 PUSH1 0x0 DUP4 ADD DUP5 PUSH2 0x15B6 JUMP JUMPDEST SWAP3 SWAP2 POP POP JUMP JUMPDEST PUSH1 0x0 DUP2 MLOAD SWAP1 POP SWAP2 SWAP1 POP JUMP JUMPDEST PUSH1 0x0 DUP3 DUP3 MSTORE PUSH1 0x20 DUP3 ADD SWAP1 POP SWAP3 SWAP2 POP POP JUMP JUMPDEST PUSH1 0x0 DUP2 SWAP1 POP PUSH1 0x20 DUP3 ADD SWAP1 POP SWAP2 SWAP1 POP JUMP JUMPDEST PUSH2 0x19F0 DUP2 PUSH2 0x1227 JUMP JUMPDEST DUP3 MSTORE POP POP JUMP JUMPDEST PUSH1 0x0 PUSH2 0x1A02 DUP4 DUP4 PUSH2 0x19E7 JUMP JUMPDEST PUSH1 0x20 DUP4 ADD SWAP1 POP SWAP3 SWAP2 POP POP JUMP JUMPDEST PUSH1 0x0 PUSH1 0x20 DUP3 ADD SWAP1 POP SWAP2 SWAP1 POP JUMP JUMPDEST PUSH1 0x0 PUSH2 0x1A26 DUP3 PUSH2 0x19BB JUMP JUMPDEST PUSH2 0x1A30 DUP2 DUP6 PUSH2 0x19C6 JUMP JUMPDEST SWAP4 POP PUSH2 0x1A3B DUP4 PUSH2 0x19D7 JUMP JUMPDEST DUP1 PUSH1 0x0 JUMPDEST DUP4 DUP2 LT ISZERO PUSH2 0x1A6C JUMPI DUP2 MLOAD PUSH2 0x1A53 DUP9 DUP3 PUSH2 0x19F6 JUMP JUMPDEST SWAP8 POP PUSH2 0x1A5E DUP4 PUSH2 0x1A0E JUMP JUMPDEST SWAP3 POP POP PUSH1 0x1 DUP2 ADD SWAP1 POP PUSH2 0x1A3F JUMP JUMPDEST POP DUP6 SWAP4 POP POP POP POP SWAP3 SWAP2 POP POP JUMP JUMPDEST PUSH1 0x0 PUSH1 0x20 DUP3 ADD SWAP1 POP DUP2 DUP2 SUB PUSH1 0x0 DUP4 ADD MSTORE PUSH2 0x1A93 DUP2 DUP5 PUSH2 0x1A1B JUMP JUMPDEST SWAP1 POP SWAP3 SWAP2 POP POP JUMP JUMPDEST PUSH1 0x0 DUP1 PUSH1 0x40 DUP4 DUP6 SUB SLT ISZERO PUSH2 0x1AB2 JUMPI PUSH2 0x1AB1 PUSH2 0x11FD JUMP JUMPDEST JUMPDEST PUSH1 0x0 DUP4 ADD CALLDATALOAD PUSH8 0xFFFFFFFFFFFFFFFF DUP2 GT ISZERO PUSH2 0x1AD0 JUMPI PUSH2 0x1ACF PUSH2 0x1202 JUMP JUMPDEST JUMPDEST PUSH2 0x1ADC DUP6 DUP3 DUP7 ADD PUSH2 0x137D JUMP JUMPDEST SWAP3 POP POP PUSH1 0x20 PUSH2 0x1AED DUP6 DUP3 DUP7 ADD PUSH2 0x13CC JUMP JUMPDEST SWAP2 POP POP SWAP3 POP SWAP3 SWAP1 POP JUMP JUMPDEST PUSH1 0x0 PUSH1 0x40 DUP3 ADD SWAP1 POP PUSH2 0x1B0C PUSH1 0x0 DUP4 ADD DUP6 PUSH2 0x15B6 JUMP JUMPDEST PUSH2 0x1B19 PUSH1 0x20 DUP4 ADD DUP5 PUSH2 0x183C JUMP JUMPDEST SWAP4 SWAP3 POP POP POP JUMP JUMPDEST PUSH1 0x0 DUP2 PUSH1 0x60 SHL SWAP1 POP SWAP2 SWAP1 POP JUMP JUMPDEST PUSH1 0x0 PUSH2 0x1B38 DUP3 PUSH2 0x1B20 JUMP JUMPDEST SWAP1 POP SWAP2 SWAP1 POP JUMP JUMPDEST PUSH1 0x0 PUSH2 0x1B4A DUP3 PUSH2 0x1B2D JUMP JUMPDEST SWAP1 POP SWAP2 SWAP1 POP JUMP JUMPDEST PUSH2 0x1B62 PUSH2 0x1B5D DUP3 PUSH2 0x1227 JUMP JUMPDEST PUSH2 0x1B3F JUMP JUMPDEST DUP3 MSTORE POP POP JUMP JUMPDEST PUSH1 0x0 DUP2 SWAP1 POP SWAP3 SWAP2 POP POP JUMP JUMPDEST PUSH32 0x6D6574617472616E73616374696F6E20566F74696E6720000000000000000000 PUSH1 0x0 DUP3 ADD MSTORE POP JUMP JUMPDEST PUSH1 0x0 PUSH2 0x1BA9 PUSH1 0x17 DUP4 PUSH2 0x1B68 JUMP JUMPDEST SWAP2 POP PUSH2 0x1BB4 DUP3 PUSH2 0x1B73 JUMP JUMPDEST PUSH1 0x17 DUP3 ADD SWAP1 POP SWAP2 SWAP1 POP JUMP JUMPDEST PUSH1 0x0 PUSH2 0x1BCA DUP3 PUSH2 0x152E JUMP JUMPDEST PUSH2 0x1BD4 DUP2 DUP6 PUSH2 0x1B68 JUMP JUMPDEST SWAP4 POP PUSH2 0x1BE4 DUP2 DUP6 PUSH1 0x20 DUP7 ADD PUSH2 0x154A JUMP JUMPDEST DUP1 DUP5 ADD SWAP2 POP POP SWAP3 SWAP2 POP POP JUMP JUMPDEST PUSH1 0x0 DUP2 SWAP1 POP SWAP2 SWAP1 POP JUMP JUMPDEST PUSH2 0x1C0B PUSH2 0x1C06 DUP3 PUSH2 0x13AB JUMP JUMPDEST PUSH2 0x1BF0 JUMP JUMPDEST DUP3 MSTORE POP POP JUMP JUMPDEST PUSH1 0x0 PUSH2 0x1C1D DUP3 DUP9 PUSH2 0x1B51 JUMP JUMPDEST PUSH1 0x14 DUP3 ADD SWAP2 POP PUSH2 0x1C2C DUP3 PUSH2 0x1B9C JUMP JUMPDEST SWAP2 POP PUSH2 0x1C38 DUP3 DUP8 PUSH2 0x1B51 JUMP JUMPDEST PUSH1 0x14 DUP3 ADD SWAP2 POP PUSH2 0x1C48 DUP3 DUP7 PUSH2 0x1BBF JUMP JUMPDEST SWAP2 POP PUSH2 0x1C54 DUP3 DUP6 PUSH2 0x1BFA JUMP JUMPDEST PUSH1 0x20 DUP3 ADD SWAP2 POP PUSH2 0x1C64 DUP3 DUP5 PUSH2 0x1BFA JUMP JUMPDEST PUSH1 0x20 DUP3 ADD SWAP2 POP DUP2 SWAP1 POP SWAP7 SWAP6 POP POP POP POP POP POP JUMP JUMPDEST PUSH1 0x0 PUSH2 0x1C83 DUP3 DUP5 PUSH2 0x1BBF JUMP JUMPDEST SWAP2 POP DUP2 SWAP1 POP SWAP3 SWAP2 POP POP JUMP JUMPDEST PUSH32 0x54686973206164647265737320646F6573206E6F742065786973742061732061 PUSH1 0x0 DUP3 ADD MSTORE PUSH32 0x2063616E64696461746500000000000000000000000000000000000000000000 PUSH1 0x20 DUP3 ADD MSTORE POP JUMP JUMPDEST PUSH1 0x0 PUSH2 0x1CEA PUSH1 0x2A DUP4 PUSH2 0x1539 JUMP JUMPDEST SWAP2 POP PUSH2 0x1CF5 DUP3 PUSH2 0x1C8E JUMP JUMPDEST PUSH1 0x40 DUP3 ADD SWAP1 POP SWAP2 SWAP1 POP JUMP JUMPDEST PUSH1 0x0 PUSH1 0x20 DUP3 ADD SWAP1 POP DUP2 DUP2 SUB PUSH1 0x0 DUP4 ADD MSTORE PUSH2 0x1D19 DUP2 PUSH2 0x1CDD JUMP JUMPDEST SWAP1 POP SWAP2 SWAP1 POP JUMP JUMPDEST PUSH32 0x766F74696E672068617320656E64656400000000000000000000000000000000 PUSH1 0x0 DUP3 ADD MSTORE POP JUMP JUMPDEST PUSH1 0x0 PUSH2 0x1D56 PUSH1 0x10 DUP4 PUSH2 0x1539 JUMP JUMPDEST SWAP2 POP PUSH2 0x1D61 DUP3 PUSH2 0x1D20 JUMP JUMPDEST PUSH1 0x20 DUP3 ADD SWAP1 POP SWAP2 SWAP1 POP JUMP JUMPDEST PUSH1 0x0 PUSH1 0x20 DUP3 ADD SWAP1 POP DUP2 DUP2 SUB PUSH1 0x0 DUP4 ADD MSTORE PUSH2 0x1D85 DUP2 PUSH2 0x1D49 JUMP JUMPDEST SWAP1 POP SWAP2 SWAP1 POP JUMP JUMPDEST PUSH32 0x4E487B7100000000000000000000000000000000000000000000000000000000 PUSH1 0x0 MSTORE PUSH1 0x11 PUSH1 0x4 MSTORE PUSH1 0x24 PUSH1 0x0 REVERT JUMPDEST PUSH1 0x0 PUSH2 0x1DC6 DUP3 PUSH2 0x13AB JUMP JUMPDEST SWAP2 POP PUSH32 0xFFFFFFFFFFFFFFFFFFFFFFFFFFFFFFFFFFFFFFFFFFFFFFFFFFFFFFFFFFFFFFFF DUP3 EQ ISZERO PUSH2 0x1DF9 JUMPI PUSH2 0x1DF8 PUSH2 0x1D8C JUMP JUMPDEST JUMPDEST PUSH1 0x1 DUP3 ADD SWAP1 POP SWAP2 SWAP1 POP JUMP JUMPDEST PUSH32 0x596F7520616C726561647920766F746564000000000000000000000000000000 PUSH1 0x0 DUP3 ADD MSTORE POP JUMP JUMPDEST PUSH1 0x0 PUSH2 0x1E3A PUSH1 0x11 DUP4 PUSH2 0x1539 JUMP JUMPDEST SWAP2 POP PUSH2 0x1E45 DUP3 PUSH2 0x1E04 JUMP JUMPDEST PUSH1 0x20 DUP3 ADD SWAP1 POP SWAP2 SWAP1 POP JUMP JUMPDEST PUSH1 0x0 PUSH1 0x20 DUP3 ADD SWAP1 POP DUP2 DUP2 SUB PUSH1 0x0 DUP4 ADD MSTORE PUSH2 0x1E69 DUP2 PUSH2 0x1E2D JUMP JUMPDEST SWAP1 POP SWAP2 SWAP1 POP JUMP JUMPDEST PUSH1 0x0 PUSH1 0x40 DUP3 ADD SWAP1 POP PUSH2 0x1E85 PUSH1 0x0 DUP4 ADD DUP6 PUSH2 0x183C JUMP JUMPDEST PUSH2 0x1E92 PUSH1 0x20 DUP4 ADD DUP5 PUSH2 0x191F JUMP JUMPDEST SWAP4 SWAP3 POP POP POP JUMP JUMPDEST PUSH32 0x4E6F20706F6C6C20637265617465640000000000000000000000000000000000 PUSH1 0x0 DUP3 ADD MSTORE POP JUMP JUMPDEST PUSH1 0x0 PUSH2 0x1ECF PUSH1 0xF DUP4 PUSH2 0x1539 JUMP JUMPDEST SWAP2 POP PUSH2 0x1EDA DUP3 PUSH2 0x1E99 JUMP JUMPDEST PUSH1 0x20 DUP3 ADD SWAP1 POP SWAP2 SWAP1 POP JUMP JUMPDEST PUSH1 0x0 PUSH1 0x20 DUP3 ADD SWAP1 POP DUP2 DUP2 SUB PUSH1 0x0 DUP4 ADD MSTORE PUSH2 0x1EFE DUP2 PUSH2 0x1EC2 JUMP JUMPDEST SWAP1 POP SWAP2 SWAP1 POP JUMP JUMPDEST PUSH32 0x4E487B7100000000000000000000000000000000000000000000000000000000 PUSH1 0x0 MSTORE PUSH1 0x32 PUSH1 0x4 MSTORE PUSH1 0x24 PUSH1 0x0 REVERT JUMPDEST PUSH32 0x79657420746F20637265617465206120706F6C6C000000000000000000000000 PUSH1 0x0 DUP3 ADD MSTORE POP JUMP JUMPDEST PUSH1 0x0 PUSH2 0x1F6A PUSH1 0x14 DUP4 PUSH2 0x1539 JUMP JUMPDEST SWAP2 POP PUSH2 0x1F75 DUP3 PUSH2 0x1F34 JUMP JUMPDEST PUSH1 0x20 DUP3 ADD SWAP1 POP SWAP2 SWAP1 POP JUMP JUMPDEST PUSH1 0x0 PUSH1 0x20 DUP3 ADD SWAP1 POP DUP2 DUP2 SUB PUSH1 0x0 DUP4 ADD MSTORE PUSH2 0x1F99 DUP2 PUSH2 0x1F5D JUMP JUMPDEST SWAP1 POP SWAP2 SWAP1 POP JUMP JUMPDEST PUSH32 0x4E487B7100000000000000000000000000000000000000000000000000000000 PUSH1 0x0 MSTORE PUSH1 0x1 PUSH1 0x4 MSTORE PUSH1 0x24 PUSH1 0x0 REVERT JUMPDEST PUSH32 0x6D6178696D756D206E6F206F662063616E646964617465207065722073657373 PUSH1 0x0 DUP3 ADD MSTORE PUSH32 0x696F6E2072656769737465726564000000000000000000000000000000000000 PUSH1 0x20 DUP3 ADD MSTORE POP JUMP JUMPDEST PUSH1 0x0 PUSH2 0x202B PUSH1 0x2E DUP4 PUSH2 0x1539 JUMP JUMPDEST SWAP2 POP PUSH2 0x2036 DUP3 PUSH2 0x1FCF JUMP JUMPDEST PUSH1 0x40 DUP3 ADD SWAP1 POP SWAP2 SWAP1 POP JUMP JUMPDEST PUSH1 0x0 PUSH1 0x20 DUP3 ADD SWAP1 POP DUP2 DUP2 SUB PUSH1 0x0 DUP4 ADD MSTORE PUSH2 0x205A DUP2 PUSH2 0x201E JUMP JUMPDEST SWAP1 POP SWAP2 SWAP1 POP JUMP JUMPDEST PUSH1 0x0 PUSH2 0x206C DUP3 PUSH2 0x1498 JUMP JUMPDEST SWAP2 POP PUSH2 0xFFFF DUP3 EQ ISZERO PUSH2 0x2081 JUMPI PUSH2 0x2080 PUSH2 0x1D8C JUMP JUMPDEST JUMPDEST PUSH1 0x1 DUP3 ADD SWAP1 POP SWAP2 SWAP1 POP JUMP JUMPDEST PUSH1 0x0 PUSH1 0x20 DUP3 ADD SWAP1 POP PUSH2 0x20A1 PUSH1 0x0 DUP4 ADD DUP5 PUSH2 0x183C JUMP JUMPDEST SWAP3 SWAP2 POP POP JUMP JUMPDEST PUSH32 0x6E6F74207468652063686169726D616E00000000000000000000000000000000 PUSH1 0x0 DUP3 ADD MSTORE POP JUMP JUMPDEST PUSH1 0x0 PUSH2 0x20DD PUSH1 0x10 DUP4 PUSH2 0x1539 JUMP JUMPDEST SWAP2 POP PUSH2 0x20E8 DUP3 PUSH2 0x20A7 JUMP JUMPDEST PUSH1 0x20 DUP3 ADD SWAP1 POP SWAP2 SWAP1 POP JUMP JUMPDEST PUSH1 0x0 PUSH1 0x20 DUP3 ADD SWAP1 POP DUP2 DUP2 SUB PUSH1 0x0 DUP4 ADD MSTORE PUSH2 0x210C DUP2 PUSH2 0x20D0 JUMP JUMPDEST SWAP1 POP SWAP2 SWAP1 POP JUMP JUMPDEST PUSH1 0x0 PUSH1 0xFF DUP3 AND SWAP1 POP SWAP2 SWAP1 POP JUMP JUMPDEST PUSH1 0x0 PUSH2 0x212B DUP3 PUSH2 0x2113 JUMP JUMPDEST SWAP2 POP PUSH2 0x2136 DUP4 PUSH2 0x2113 JUMP JUMPDEST SWAP3 POP DUP3 PUSH1 0xFF SUB DUP3 GT ISZERO PUSH2 0x214C JUMPI PUSH2 0x214B PUSH2 0x1D8C JUMP JUMPDEST JUMPDEST DUP3 DUP3 ADD SWAP1 POP SWAP3 SWAP2 POP POP JUMP JUMPDEST PUSH32 0x19457468657265756D205369676E6564204D6573736167653A0A333200000000 PUSH1 0x0 DUP3 ADD MSTORE POP JUMP JUMPDEST PUSH1 0x0 PUSH2 0x218D PUSH1 0x1C DUP4 PUSH2 0x1B68 JUMP JUMPDEST SWAP2 POP PUSH2 0x2198 DUP3 PUSH2 0x2157 JUMP JUMPDEST PUSH1 0x1C DUP3 ADD SWAP1 POP SWAP2 SWAP1 POP JUMP JUMPDEST PUSH1 0x0 DUP2 SWAP1 POP SWAP2 SWAP1 POP JUMP JUMPDEST PUSH2 0x21BE PUSH2 0x21B9 DUP3 PUSH2 0x1464 JUMP JUMPDEST PUSH2 0x21A3 JUMP JUMPDEST DUP3 MSTORE POP POP JUMP JUMPDEST PUSH1 0x0 PUSH2 0x21CF DUP3 PUSH2 0x2180 JUMP JUMPDEST SWAP2 POP PUSH2 0x21DB DUP3 DUP5 PUSH2 0x21AD JUMP JUMPDEST PUSH1 0x20 DUP3 ADD SWAP2 POP DUP2 SWAP1 POP SWAP3 SWAP2 POP POP JUMP JUMPDEST PUSH2 0x21F3 DUP2 PUSH2 0x2113 JUMP JUMPDEST DUP3 MSTORE POP POP JUMP JUMPDEST PUSH1 0x0 PUSH1 0x80 DUP3 ADD SWAP1 POP PUSH2 0x220E PUSH1 0x0 DUP4 ADD DUP8 PUSH2 0x146E JUMP JUMPDEST PUSH2 0x221B PUSH1 0x20 DUP4 ADD DUP7 PUSH2 0x21EA JUMP JUMPDEST PUSH2 0x2228 PUSH1 0x40 DUP4 ADD DUP6 PUSH2 0x146E JUMP JUMPDEST PUSH2 0x2235 PUSH1 0x60 DUP4 ADD DUP5 PUSH2 0x146E JUMP JUMPDEST SWAP6 SWAP5 POP POP POP POP POP JUMP INVALID LOG2 PUSH5 0x6970667358 0x22 SLT KECCAK256 0xE4 0x2C RETURNDATACOPY 0x5D NUMBER 0xBD 0xE2 RETURNDATASIZE 0xDB 0xDA PUSH18 0x418C15F03FAD60D77B43F3C84A0E7D1B3508 DUP7 DUP16 LOG1 PUSH5 0x736F6C6343 STOP ADDMOD EXP STOP CALLER "
				},
				"gasEstimates": {
					"creation": {
						"codeDepositCost": "1764000",
						"executionCost": "1855",
						"totalCost": "1765855"
					},
					"external": {
						"AddCandidate(address,string)": "infinite",
						"AllCandidates(string)": "infinite",
						"NoOfRegisteredCandidates(string)": "infinite",
						"createPoll(string,uint16)": "infinite",
						"getUint(string,uint256)": "infinite",
						"metaVotingHash(address,string,uint256,uint256)": "infinite",
						"replayNonce(address)": "2836",
						"revealWinner(string)": "infinite",
						"setVotingState(string)": "infinite",
						"vote(address,string,uint256,bytes)": "infinite",
						"votingPoll(string)": "infinite"
					},
					"internal": {
						"countVote(address,string memory,address)": "infinite",
						"getSigner(bytes32,bytes memory)": "infinite"
					}
				},
				"methodIdentifiers": {
					"AddCandidate(address,string)": "57f53967",
					"AllCandidates(string)": "af7cbc0d",
					"NoOfRegisteredCandidates(string)": "8579cacd",
					"createPoll(string,uint16)": "0968d4b1",
					"getUint(string,uint256)": "bd807c6c",
					"metaVotingHash(address,string,uint256,uint256)": "01ff993b",
					"replayNonce(address)": "67d407df",
					"revealWinner(string)": "4fcf1f39",
					"setVotingState(string)": "f0e4de22",
					"vote(address,string,uint256,bytes)": "12f0da4b",
					"votingPoll(string)": "63ee965a"
				}
			},
			"storageLayout": {
				"storage": [
					{
						"astId": 30,
						"contract": "src/voting.sol:Voting",
						"label": "votingPoll",
						"offset": 0,
						"slot": "0",
						"type": "t_mapping(t_string_memory_ptr,t_struct(VotingPoll)25_storage)"
					},
					{
						"astId": 34,
						"contract": "src/voting.sol:Voting",
						"label": "replayNonce",
						"offset": 0,
						"slot": "1",
						"type": "t_mapping(t_address,t_uint256)"
					}
				],
				"types": {
					"t_address": {
						"encoding": "inplace",
						"label": "address",
						"numberOfBytes": "20"
					},
					"t_array(t_address)dyn_storage": {
						"base": "t_address",
						"encoding": "dynamic_array",
						"label": "address[]",
						"numberOfBytes": "32"
					},
					"t_bool": {
						"encoding": "inplace",
						"label": "bool",
						"numberOfBytes": "1"
					},
					"t_mapping(t_address,t_bool)": {
						"encoding": "mapping",
						"key": "t_address",
						"label": "mapping(address => bool)",
						"numberOfBytes": "32",
						"value": "t_bool"
					},
					"t_mapping(t_address,t_uint256)": {
						"encoding": "mapping",
						"key": "t_address",
						"label": "mapping(address => uint256)",
						"numberOfBytes": "32",
						"value": "t_uint256"
					},
					"t_mapping(t_string_memory_ptr,t_struct(VotingPoll)25_storage)": {
						"encoding": "mapping",
						"key": "t_string_memory_ptr",
						"label": "mapping(string => struct Voting.VotingPoll)",
						"numberOfBytes": "32",
						"value": "t_struct(VotingPoll)25_storage"
					},
					"t_string_memory_ptr": {
						"encoding": "bytes",
						"label": "string",
						"numberOfBytes": "32"
					},
					"t_struct(VotingPoll)25_storage": {
						"encoding": "inplace",
						"label": "struct Voting.VotingPoll",
						"members": [
							{
								"astId": 3,
								"contract": "src/voting.sol:Voting",
								"label": "chairman",
								"offset": 0,
								"slot": "0",
								"type": "t_address"
							},
							{
								"astId": 6,
								"contract": "src/voting.sol:Voting",
								"label": "candidates",
								"offset": 0,
								"slot": "1",
								"type": "t_array(t_address)dyn_storage"
							},
							{
								"astId": 8,
								"contract": "src/voting.sol:Voting",
								"label": "maxNoOfCandidates",
								"offset": 0,
								"slot": "2",
								"type": "t_uint32"
							},
							{
								"astId": 10,
								"contract": "src/voting.sol:Voting",
								"label": "currentNoOfCandidates",
								"offset": 4,
								"slot": "2",
								"type": "t_uint16"
							},
							{
								"astId": 12,
								"contract": "src/voting.sol:Voting",
								"label": "voting",
								"offset": 6,
								"slot": "2",
								"type": "t_bool"
							},
							{
								"astId": 16,
								"contract": "src/voting.sol:Voting",
								"label": "CandidateStatus",
								"offset": 0,
								"slot": "3",
								"type": "t_mapping(t_address,t_bool)"
							},
							{
								"astId": 20,
								"contract": "src/voting.sol:Voting",
								"label": "hasVoted",
								"offset": 0,
								"slot": "4",
								"type": "t_mapping(t_address,t_bool)"
							},
							{
								"astId": 24,
								"contract": "src/voting.sol:Voting",
								"label": "CandidateVote",
								"offset": 0,
								"slot": "5",
								"type": "t_mapping(t_address,t_uint256)"
							}
						],
						"numberOfBytes": "192"
					},
					"t_uint16": {
						"encoding": "inplace",
						"label": "uint16",
						"numberOfBytes": "2"
					},
					"t_uint256": {
						"encoding": "inplace",
						"label": "uint256",
						"numberOfBytes": "32"
					},
					"t_uint32": {
						"encoding": "inplace",
						"label": "uint32",
						"numberOfBytes": "4"
					}
				}
			},
			"userdoc": {
				"kind": "user",
				"methods": {},
				"version": 1
			}
		}
	}
}