{
	"src/voting.sol": {
		"Voting": {
			"abi": [
				{
					"anonymous": false,
					"inputs": [
						{
							"indexed": false,
							"internalType": "address",
							"name": "NewCandidate",
							"type": "address"
						}
					],
					"name": "becameCandidate",
					"type": "event"
				},
				{
					"anonymous": false,
					"inputs": [
						{
							"indexed": true,
							"internalType": "string",
							"name": "_name",
							"type": "string"
						},
						{
							"indexed": true,
							"internalType": "uint32",
							"name": "ExpectedNoOfCandidate",
							"type": "uint32"
						},
						{
							"indexed": true,
							"internalType": "address",
							"name": "chairman",
							"type": "address"
						}
					],
					"name": "pollCreated",
					"type": "event"
				},
				{
					"anonymous": false,
					"inputs": [
						{
							"indexed": true,
							"internalType": "bool",
							"name": "status",
							"type": "bool"
						}
					],
					"name": "voteStatus",
					"type": "event"
				},
				{
					"anonymous": false,
					"inputs": [
						{
							"indexed": false,
							"internalType": "address",
							"name": "_candidate",
							"type": "address"
						},
						{
							"indexed": false,
							"internalType": "bool",
							"name": "status",
							"type": "bool"
						}
					],
					"name": "voted",
					"type": "event"
				},
				{
					"inputs": [
						{
							"internalType": "address",
							"name": "_newCandidate",
							"type": "address"
						},
						{
							"internalType": "uint256",
							"name": "_id",
							"type": "uint256"
						}
					],
					"name": "AddCandidate",
					"outputs": [],
					"stateMutability": "nonpayable",
					"type": "function"
				},
				{
					"inputs": [
						{
							"internalType": "uint256",
							"name": "_id",
							"type": "uint256"
						}
					],
					"name": "AllCandidates",
					"outputs": [
						{
							"internalType": "address[]",
							"name": "_candidates",
							"type": "address[]"
						}
					],
					"stateMutability": "view",
					"type": "function"
				},
				{
					"inputs": [
						{
							"internalType": "uint256",
							"name": "_id",
							"type": "uint256"
						}
					],
					"name": "NoOfRegisteredCandidates",
					"outputs": [
						{
							"internalType": "uint256",
							"name": "",
							"type": "uint256"
						}
					],
					"stateMutability": "view",
					"type": "function"
				},
				{
					"inputs": [
						{
							"internalType": "uint256",
							"name": "",
							"type": "uint256"
						}
					],
					"name": "VotingKey",
					"outputs": [
						{
							"internalType": "uint256",
							"name": "",
							"type": "uint256"
						}
					],
					"stateMutability": "view",
					"type": "function"
				},
				{
					"inputs": [
						{
							"internalType": "string",
							"name": "_name",
							"type": "string"
						},
						{
							"internalType": "uint32",
							"name": "ExpectedNoOfCandidate",
							"type": "uint32"
						}
					],
					"name": "createPoll",
					"outputs": [
						{
							"internalType": "string",
							"name": "",
							"type": "string"
						},
						{
							"internalType": "uint256",
							"name": "Candidate",
							"type": "uint256"
						}
					],
					"stateMutability": "nonpayable",
					"type": "function"
				},
				{
					"inputs": [],
					"name": "getStructProps",
					"outputs": [
						{
							"components": [
								{
									"internalType": "string",
									"name": "name",
									"type": "string"
								},
								{
									"internalType": "address",
									"name": "chairman",
									"type": "address"
								},
								{
									"internalType": "address[]",
									"name": "candidates",
									"type": "address[]"
								},
								{
									"internalType": "uint32",
									"name": "maxNoOfCandidates",
									"type": "uint32"
								},
								{
									"internalType": "uint32",
									"name": "currentNoOfCandidates",
									"type": "uint32"
								},
								{
									"internalType": "bool",
									"name": "voting",
									"type": "bool"
								}
							],
							"internalType": "struct Voting.retVotingPoll[]",
							"name": "RVP",
							"type": "tuple[]"
						}
					],
					"stateMutability": "view",
					"type": "function"
				},
				{
					"inputs": [
						{
							"internalType": "address",
							"name": "Cand",
							"type": "address"
						},
						{
							"internalType": "uint256",
							"name": "_id",
							"type": "uint256"
						},
						{
							"internalType": "uint256",
							"name": "nonce",
							"type": "uint256"
						},
						{
							"internalType": "uint256",
							"name": "time",
							"type": "uint256"
						}
					],
					"name": "metaVotingHash",
					"outputs": [
						{
							"internalType": "bytes32",
							"name": "",
							"type": "bytes32"
						}
					],
					"stateMutability": "view",
					"type": "function"
				},
				{
					"inputs": [
						{
							"internalType": "address",
							"name": "",
							"type": "address"
						}
					],
					"name": "replayNonce",
					"outputs": [
						{
							"internalType": "uint256",
							"name": "",
							"type": "uint256"
						}
					],
					"stateMutability": "view",
					"type": "function"
				},
				{
					"inputs": [
						{
							"internalType": "uint256",
							"name": "_id",
							"type": "uint256"
						}
					],
					"name": "revealWinner",
					"outputs": [
						{
							"internalType": "uint256[]",
							"name": "CV",
							"type": "uint256[]"
						},
						{
							"internalType": "address",
							"name": "",
							"type": "address"
						},
						{
							"internalType": "uint256",
							"name": "",
							"type": "uint256"
						}
					],
					"stateMutability": "view",
					"type": "function"
				},
				{
					"inputs": [
						{
							"internalType": "uint256",
							"name": "_id",
							"type": "uint256"
						}
					],
					"name": "setVotingState",
					"outputs": [],
					"stateMutability": "nonpayable",
					"type": "function"
				},
				{
					"inputs": [
						{
							"internalType": "address",
							"name": "Cand",
							"type": "address"
						},
						{
							"internalType": "uint256",
							"name": "_id",
							"type": "uint256"
						},
						{
							"internalType": "uint256",
							"name": "nonce",
							"type": "uint256"
						},
						{
							"internalType": "bytes",
							"name": "signature",
							"type": "bytes"
						}
					],
					"name": "vote",
					"outputs": [],
					"stateMutability": "nonpayable",
					"type": "function"
				},
				{
					"inputs": [
						{
							"internalType": "uint256",
							"name": "",
							"type": "uint256"
						}
					],
					"name": "votingPoll",
					"outputs": [
						{
							"internalType": "string",
							"name": "name",
							"type": "string"
						},
						{
							"internalType": "address",
							"name": "chairman",
							"type": "address"
						},
						{
							"internalType": "uint32",
							"name": "maxNoOfCandidates",
							"type": "uint32"
						},
						{
							"internalType": "uint32",
							"name": "currentNoOfCandidates",
							"type": "uint32"
						},
						{
							"internalType": "bool",
							"name": "voting",
							"type": "bool"
						}
					],
					"stateMutability": "view",
					"type": "function"
				}
			],
			"devdoc": {
				"kind": "dev",
				"methods": {},
				"version": 1
			},
			"evm": {
				"assembly": "    /* \"src/voting.sol\":63:6000  contract Voting{... */\n  mstore(0x40, 0x80)\n    /* \"src/voting.sol\":159:160  1 */\n  0x01\n    /* \"src/voting.sol\":149:160  uint id = 1 */\n  0x00\n  sstore\n    /* \"src/voting.sol\":63:6000  contract Voting{... */\n  callvalue\n  dup1\n  iszero\n  tag_1\n  jumpi\n  0x00\n  dup1\n  revert\ntag_1:\n  pop\n  dataSize(sub_0)\n  dup1\n  dataOffset(sub_0)\n  0x00\n  codecopy\n  0x00\n  return\nstop\n\nsub_0: assembly {\n        /* \"src/voting.sol\":63:6000  contract Voting{... */\n      mstore(0x40, 0x80)\n      callvalue\n      dup1\n      iszero\n      tag_1\n      jumpi\n      0x00\n      dup1\n      revert\n    tag_1:\n      pop\n      jumpi(tag_2, lt(calldatasize, 0x04))\n      shr(0xe0, calldataload(0x00))\n      dup1\n      0xbfe2e25d\n      gt\n      tag_15\n      jumpi\n      dup1\n      0xbfe2e25d\n      eq\n      tag_9\n      jumpi\n      dup1\n      0xc10d6cec\n      eq\n      tag_10\n      jumpi\n      dup1\n      0xc57003cc\n      eq\n      tag_11\n      jumpi\n      dup1\n      0xe615f104\n      eq\n      tag_12\n      jumpi\n      dup1\n      0xf762f4c0\n      eq\n      tag_13\n      jumpi\n      dup1\n      0xf8437061\n      eq\n      tag_14\n      jumpi\n      jump(tag_2)\n    tag_15:\n      dup1\n      0x049d1c8b\n      eq\n      tag_3\n      jumpi\n      dup1\n      0x66c5343b\n      eq\n      tag_4\n      jumpi\n      dup1\n      0x67d407df\n      eq\n      tag_5\n      jumpi\n      dup1\n      0x8ac3c3c2\n      eq\n      tag_6\n      jumpi\n      dup1\n      0x8ccb59e8\n      eq\n      tag_7\n      jumpi\n      dup1\n      0xae928e3e\n      eq\n      tag_8\n      jumpi\n    tag_2:\n      0x00\n      dup1\n      revert\n        /* \"src/voting.sol\":2199:2698  function AddCandidate(address _newCandidate, uint _id) external{... */\n    tag_3:\n      tag_16\n      0x04\n      dup1\n      calldatasize\n      sub\n      dup2\n      add\n      swap1\n      tag_17\n      swap2\n      swap1\n      tag_18\n      jump\t// in\n    tag_17:\n      tag_19\n      jump\t// in\n    tag_16:\n      stop\n        /* \"src/voting.sol\":3700:3858  function NoOfRegisteredCandidates( uint _id) public view returns(uint){... */\n    tag_4:\n      tag_20\n      0x04\n      dup1\n      calldatasize\n      sub\n      dup2\n      add\n      swap1\n      tag_21\n      swap2\n      swap1\n      tag_22\n      jump\t// in\n    tag_21:\n      tag_23\n      jump\t// in\n    tag_20:\n      mload(0x40)\n      tag_24\n      swap2\n      swap1\n      tag_25\n      jump\t// in\n    tag_24:\n      mload(0x40)\n      dup1\n      swap2\n      sub\n      swap1\n      return\n        /* \"src/voting.sol\":895:942  mapping (address => uint256) public replayNonce */\n    tag_5:\n      tag_26\n      0x04\n      dup1\n      calldatasize\n      sub\n      dup2\n      add\n      swap1\n      tag_27\n      swap2\n      swap1\n      tag_28\n      jump\t// in\n    tag_27:\n      tag_29\n      jump\t// in\n    tag_26:\n      mload(0x40)\n      tag_30\n      swap2\n      swap1\n      tag_25\n      jump\t// in\n    tag_30:\n      mload(0x40)\n      dup1\n      swap2\n      sub\n      swap1\n      return\n        /* \"src/voting.sol\":3866:4026  function AllCandidates( uint _id) public view returns(address[] memory _candidates){... */\n    tag_6:\n      tag_31\n      0x04\n      dup1\n      calldatasize\n      sub\n      dup2\n      add\n      swap1\n      tag_32\n      swap2\n      swap1\n      tag_22\n      jump\t// in\n    tag_32:\n      tag_33\n      jump\t// in\n    tag_31:\n      mload(0x40)\n      tag_34\n      swap2\n      swap1\n      tag_35\n      jump\t// in\n    tag_34:\n      mload(0x40)\n      dup1\n      swap2\n      sub\n      swap1\n      return\n        /* \"src/voting.sol\":4029:4606  function revealWinner( uint _id) external view returns ( uint[] memory CV, address, uint){... */\n    tag_7:\n      tag_36\n      0x04\n      dup1\n      calldatasize\n      sub\n      dup2\n      add\n      swap1\n      tag_37\n      swap2\n      swap1\n      tag_22\n      jump\t// in\n    tag_37:\n      tag_38\n      jump\t// in\n    tag_36:\n      mload(0x40)\n      tag_39\n      swap4\n      swap3\n      swap2\n      swap1\n      tag_40\n      jump\t// in\n    tag_39:\n      mload(0x40)\n      dup1\n      swap2\n      sub\n      swap1\n      return\n        /* \"src/voting.sol\":761:784  uint[] public VotingKey */\n    tag_8:\n      tag_41\n      0x04\n      dup1\n      calldatasize\n      sub\n      dup2\n      add\n      swap1\n      tag_42\n      swap2\n      swap1\n      tag_22\n      jump\t// in\n    tag_42:\n      tag_43\n      jump\t// in\n    tag_41:\n      mload(0x40)\n      tag_44\n      swap2\n      swap1\n      tag_25\n      jump\t// in\n    tag_44:\n      mload(0x40)\n      dup1\n      swap2\n      sub\n      swap1\n      return\n        /* \"src/voting.sol\":5195:5410  function metaVotingHash(address Cand, uint _id, uint256 nonce, uint256 time) public view returns(bytes32){... */\n    tag_9:\n      tag_45\n      0x04\n      dup1\n      calldatasize\n      sub\n      dup2\n      add\n      swap1\n      tag_46\n      swap2\n      swap1\n      tag_47\n      jump\t// in\n    tag_46:\n      tag_48\n      jump\t// in\n    tag_45:\n      mload(0x40)\n      tag_49\n      swap2\n      swap1\n      tag_50\n      jump\t// in\n    tag_49:\n      mload(0x40)\n      dup1\n      swap2\n      sub\n      swap1\n      return\n        /* \"src/voting.sol\":2701:3236  function vote(address Cand, uint _id, uint256 nonce, bytes memory signature) external  isCandidate(Cand, _id) StillVoting(_id){... */\n    tag_10:\n      tag_51\n      0x04\n      dup1\n      calldatasize\n      sub\n      dup2\n      add\n      swap1\n      tag_52\n      swap2\n      swap1\n      tag_53\n      jump\t// in\n    tag_52:\n      tag_54\n      jump\t// in\n    tag_51:\n      stop\n        /* \"src/voting.sol\":3475:3697  function setVotingState( uint _id) external {... */\n    tag_11:\n      tag_55\n      0x04\n      dup1\n      calldatasize\n      sub\n      dup2\n      add\n      swap1\n      tag_56\n      swap2\n      swap1\n      tag_22\n      jump\t// in\n    tag_56:\n      tag_57\n      jump\t// in\n    tag_55:\n      stop\n        /* \"src/voting.sol\":848:893  mapping(uint => VotingPoll) public votingPoll */\n    tag_12:\n      tag_58\n      0x04\n      dup1\n      calldatasize\n      sub\n      dup2\n      add\n      swap1\n      tag_59\n      swap2\n      swap1\n      tag_22\n      jump\t// in\n    tag_59:\n      tag_60\n      jump\t// in\n    tag_58:\n      mload(0x40)\n      tag_61\n      swap6\n      swap5\n      swap4\n      swap3\n      swap2\n      swap1\n      tag_62\n      jump\t// in\n    tag_61:\n      mload(0x40)\n      dup1\n      swap2\n      sub\n      swap1\n      return\n        /* \"src/voting.sol\":1788:2195  function createPoll(string memory _name, uint32 ExpectedNoOfCandidate) external returns(string memory, uint Candidate){... */\n    tag_13:\n      tag_63\n      0x04\n      dup1\n      calldatasize\n      sub\n      dup2\n      add\n      swap1\n      tag_64\n      swap2\n      swap1\n      tag_65\n      jump\t// in\n    tag_64:\n      tag_66\n      jump\t// in\n    tag_63:\n      mload(0x40)\n      tag_67\n      swap3\n      swap2\n      swap1\n      tag_68\n      jump\t// in\n    tag_67:\n      mload(0x40)\n      dup1\n      swap2\n      sub\n      swap1\n      return\n        /* \"src/voting.sol\":4785:5190  function getStructProps() external view returns(retVotingPoll[] memory RVP){... */\n    tag_14:\n      tag_69\n      tag_70\n      jump\t// in\n    tag_69:\n      mload(0x40)\n      tag_71\n      swap2\n      swap1\n      tag_72\n      jump\t// in\n    tag_71:\n      mload(0x40)\n      dup1\n      swap2\n      sub\n      swap1\n      return\n        /* \"src/voting.sol\":2199:2698  function AddCandidate(address _newCandidate, uint _id) external{... */\n    tag_19:\n        /* \"src/voting.sol\":2269:2290  VotingPoll storage VP */\n      0x00\n        /* \"src/voting.sol\":2293:2303  votingPoll */\n      0x02\n        /* \"src/voting.sol\":2293:2308  votingPoll[_id] */\n      0x00\n        /* \"src/voting.sol\":2304:2307  _id */\n      dup4\n        /* \"src/voting.sol\":2293:2308  votingPoll[_id] */\n      dup2\n      mstore\n      0x20\n      add\n      swap1\n      dup2\n      mstore\n      0x20\n      add\n      0x00\n      keccak256\n        /* \"src/voting.sol\":2269:2308  VotingPoll storage VP = votingPoll[_id] */\n      swap1\n      pop\n        /* \"src/voting.sol\":2347:2348  0 */\n      0x00\n        /* \"src/voting.sol\":2324:2349  VP.chairman != address(0) */\n      0xffffffffffffffffffffffffffffffffffffffff\n      and\n        /* \"src/voting.sol\":2324:2326  VP */\n      dup2\n        /* \"src/voting.sol\":2324:2335  VP.chairman */\n      0x01\n      add\n      0x00\n      swap1\n      sload\n      swap1\n      0x0100\n      exp\n      swap1\n      div\n      0xffffffffffffffffffffffffffffffffffffffff\n      and\n        /* \"src/voting.sol\":2324:2349  VP.chairman != address(0) */\n      0xffffffffffffffffffffffffffffffffffffffff\n      and\n      eq\n      iszero\n        /* \"src/voting.sol\":2315:2375  require (VP.chairman != address(0) , \"yet to create a poll\") */\n      tag_74\n      jumpi\n      mload(0x40)\n      0x08c379a000000000000000000000000000000000000000000000000000000000\n      dup2\n      mstore\n      0x04\n      add\n      tag_75\n      swap1\n      tag_76\n      jump\t// in\n    tag_75:\n      mload(0x40)\n      dup1\n      swap2\n      sub\n      swap1\n      revert\n    tag_74:\n        /* \"src/voting.sol\":2406:2416  msg.sender */\n      caller\n        /* \"src/voting.sol\":2391:2416  VP.chairman == msg.sender */\n      0xffffffffffffffffffffffffffffffffffffffff\n      and\n        /* \"src/voting.sol\":2391:2393  VP */\n      dup2\n        /* \"src/voting.sol\":2391:2402  VP.chairman */\n      0x01\n      add\n      0x00\n      swap1\n      sload\n      swap1\n      0x0100\n      exp\n      swap1\n      div\n      0xffffffffffffffffffffffffffffffffffffffff\n      and\n        /* \"src/voting.sol\":2391:2416  VP.chairman == msg.sender */\n      0xffffffffffffffffffffffffffffffffffffffff\n      and\n      eq\n        /* \"src/voting.sol\":2384:2417  assert(VP.chairman == msg.sender) */\n      tag_77\n      jumpi\n      tag_78\n      tag_79\n      jump\t// in\n    tag_78:\n    tag_77:\n        /* \"src/voting.sol\":2459:2461  VP */\n      dup1\n        /* \"src/voting.sol\":2459:2479  VP.maxNoOfCandidates */\n      0x03\n      add\n      0x00\n      swap1\n      sload\n      swap1\n      0x0100\n      exp\n      swap1\n      div\n      0xffffffff\n      and\n        /* \"src/voting.sol\":2432:2479  VP.currentNoOfCandidates < VP.maxNoOfCandidates */\n      0xffffffff\n      and\n        /* \"src/voting.sol\":2432:2434  VP */\n      dup2\n        /* \"src/voting.sol\":2432:2456  VP.currentNoOfCandidates */\n      0x03\n      add\n      0x04\n      swap1\n      sload\n      swap1\n      0x0100\n      exp\n      swap1\n      div\n      0xffffffff\n      and\n        /* \"src/voting.sol\":2432:2479  VP.currentNoOfCandidates < VP.maxNoOfCandidates */\n      0xffffffff\n      and\n      lt\n        /* \"src/voting.sol\":2424:2530  require(VP.currentNoOfCandidates < VP.maxNoOfCandidates, \"maximum no of candidate per session registered\") */\n      tag_80\n      jumpi\n      mload(0x40)\n      0x08c379a000000000000000000000000000000000000000000000000000000000\n      dup2\n      mstore\n      0x04\n      add\n      tag_81\n      swap1\n      tag_82\n      jump\t// in\n    tag_81:\n      mload(0x40)\n      dup1\n      swap2\n      sub\n      swap1\n      revert\n    tag_80:\n        /* \"src/voting.sol\":2573:2577  true */\n      0x01\n        /* \"src/voting.sol\":2537:2539  VP */\n      dup2\n        /* \"src/voting.sol\":2537:2555  VP.CandidateStatus */\n      0x04\n      add\n        /* \"src/voting.sol\":2537:2570  VP.CandidateStatus[_newCandidate] */\n      0x00\n        /* \"src/voting.sol\":2556:2569  _newCandidate */\n      dup6\n        /* \"src/voting.sol\":2537:2570  VP.CandidateStatus[_newCandidate] */\n      0xffffffffffffffffffffffffffffffffffffffff\n      and\n      0xffffffffffffffffffffffffffffffffffffffff\n      and\n      dup2\n      mstore\n      0x20\n      add\n      swap1\n      dup2\n      mstore\n      0x20\n      add\n      0x00\n      keccak256\n      0x00\n        /* \"src/voting.sol\":2537:2577  VP.CandidateStatus[_newCandidate] = true */\n      0x0100\n      exp\n      dup2\n      sload\n      dup2\n      0xff\n      mul\n      not\n      and\n      swap1\n      dup4\n      iszero\n      iszero\n      mul\n      or\n      swap1\n      sstore\n      pop\n        /* \"src/voting.sol\":2585:2587  VP */\n      dup1\n        /* \"src/voting.sol\":2585:2598  VP.candidates */\n      0x02\n      add\n        /* \"src/voting.sol\":2604:2617  _newCandidate */\n      dup4\n        /* \"src/voting.sol\":2585:2618  VP.candidates.push(_newCandidate) */\n      swap1\n      dup1\n      0x01\n      dup2\n      sload\n      add\n      dup1\n      dup3\n      sstore\n      dup1\n      swap2\n      pop\n      pop\n      0x01\n      swap1\n      sub\n      swap1\n      0x00\n      mstore\n      keccak256(0x00, 0x20)\n      add\n      0x00\n      swap1\n      swap2\n      swap1\n      swap2\n      swap1\n      swap2\n      0x0100\n      exp\n      dup2\n      sload\n      dup2\n      0xffffffffffffffffffffffffffffffffffffffff\n      mul\n      not\n      and\n      swap1\n      dup4\n      0xffffffffffffffffffffffffffffffffffffffff\n      and\n      mul\n      or\n      swap1\n      sstore\n      pop\n        /* \"src/voting.sol\":2626:2628  VP */\n      dup1\n        /* \"src/voting.sol\":2626:2650  VP.currentNoOfCandidates */\n      0x03\n      add\n      0x04\n        /* \"src/voting.sol\":2626:2652  VP.currentNoOfCandidates++ */\n      dup2\n      dup2\n      swap1\n      sload\n      swap1\n      0x0100\n      exp\n      swap1\n      div\n      0xffffffff\n      and\n      dup1\n      swap3\n      swap2\n      swap1\n      tag_84\n      swap1\n      tag_85\n      jump\t// in\n    tag_84:\n      swap2\n      swap1\n      0x0100\n      exp\n      dup2\n      sload\n      dup2\n      0xffffffff\n      mul\n      not\n      and\n      swap1\n      dup4\n      0xffffffff\n      and\n      mul\n      or\n      swap1\n      sstore\n      pop\n      pop\n        /* \"src/voting.sol\":2664:2694  becameCandidate(_newCandidate) */\n      0xc19c59aa93348e8fc54764bc642eca975e2639f44cc683ef8f027e1529cbda32\n        /* \"src/voting.sol\":2680:2693  _newCandidate */\n      dup4\n        /* \"src/voting.sol\":2664:2694  becameCandidate(_newCandidate) */\n      mload(0x40)\n      tag_86\n      swap2\n      swap1\n      tag_87\n      jump\t// in\n    tag_86:\n      mload(0x40)\n      dup1\n      swap2\n      sub\n      swap1\n      log1\n        /* \"src/voting.sol\":2262:2698  {... */\n      pop\n        /* \"src/voting.sol\":2199:2698  function AddCandidate(address _newCandidate, uint _id) external{... */\n      pop\n      pop\n      jump\t// out\n        /* \"src/voting.sol\":3700:3858  function NoOfRegisteredCandidates( uint _id) public view returns(uint){... */\n    tag_23:\n        /* \"src/voting.sol\":3765:3769  uint */\n      0x00\n        /* \"src/voting.sol\":3777:3798  VotingPoll storage VP */\n      dup1\n        /* \"src/voting.sol\":3801:3811  votingPoll */\n      0x02\n        /* \"src/voting.sol\":3801:3816  votingPoll[_id] */\n      0x00\n        /* \"src/voting.sol\":3812:3815  _id */\n      dup5\n        /* \"src/voting.sol\":3801:3816  votingPoll[_id] */\n      dup2\n      mstore\n      0x20\n      add\n      swap1\n      dup2\n      mstore\n      0x20\n      add\n      0x00\n      keccak256\n        /* \"src/voting.sol\":3777:3816  VotingPoll storage VP = votingPoll[_id] */\n      swap1\n      pop\n        /* \"src/voting.sol\":3830:3832  VP */\n      dup1\n        /* \"src/voting.sol\":3830:3854  VP.currentNoOfCandidates */\n      0x03\n      add\n      0x04\n      swap1\n      sload\n      swap1\n      0x0100\n      exp\n      swap1\n      div\n      0xffffffff\n      and\n        /* \"src/voting.sol\":3823:3854  return VP.currentNoOfCandidates */\n      0xffffffff\n      and\n      swap2\n      pop\n      pop\n        /* \"src/voting.sol\":3700:3858  function NoOfRegisteredCandidates( uint _id) public view returns(uint){... */\n      swap2\n      swap1\n      pop\n      jump\t// out\n        /* \"src/voting.sol\":895:942  mapping (address => uint256) public replayNonce */\n    tag_29:\n      mstore(0x20, 0x03)\n      dup1\n      0x00\n      mstore\n      keccak256(0x00, 0x40)\n      0x00\n      swap2\n      pop\n      swap1\n      pop\n      sload\n      dup2\n      jump\t// out\n        /* \"src/voting.sol\":3866:4026  function AllCandidates( uint _id) public view returns(address[] memory _candidates){... */\n    tag_33:\n        /* \"src/voting.sol\":3920:3948  address[] memory _candidates */\n      0x60\n        /* \"src/voting.sol\":3956:3977  VotingPoll storage VP */\n      0x00\n        /* \"src/voting.sol\":3980:3990  votingPoll */\n      0x02\n        /* \"src/voting.sol\":3980:3995  votingPoll[_id] */\n      0x00\n        /* \"src/voting.sol\":3991:3994  _id */\n      dup5\n        /* \"src/voting.sol\":3980:3995  votingPoll[_id] */\n      dup2\n      mstore\n      0x20\n      add\n      swap1\n      dup2\n      mstore\n      0x20\n      add\n      0x00\n      keccak256\n        /* \"src/voting.sol\":3956:3995  VotingPoll storage VP = votingPoll[_id] */\n      swap1\n      pop\n        /* \"src/voting.sol\":4009:4011  VP */\n      dup1\n        /* \"src/voting.sol\":4009:4022  VP.candidates */\n      0x02\n      add\n        /* \"src/voting.sol\":4002:4022  return VP.candidates */\n      dup1\n      sload\n      dup1\n      0x20\n      mul\n      0x20\n      add\n      mload(0x40)\n      swap1\n      dup2\n      add\n      0x40\n      mstore\n      dup1\n      swap3\n      swap2\n      swap1\n      dup2\n      dup2\n      mstore\n      0x20\n      add\n      dup3\n      dup1\n      sload\n      dup1\n      iszero\n      tag_90\n      jumpi\n      0x20\n      mul\n      dup3\n      add\n      swap2\n      swap1\n      0x00\n      mstore\n      keccak256(0x00, 0x20)\n      swap1\n    tag_91:\n      dup2\n      0x00\n      swap1\n      sload\n      swap1\n      0x0100\n      exp\n      swap1\n      div\n      0xffffffffffffffffffffffffffffffffffffffff\n      and\n      0xffffffffffffffffffffffffffffffffffffffff\n      and\n      dup2\n      mstore\n      0x20\n      add\n      swap1\n      0x01\n      add\n      swap1\n      dup1\n      dup4\n      gt\n      tag_91\n      jumpi\n    tag_90:\n      pop\n      pop\n      pop\n      pop\n      pop\n      swap2\n      pop\n      pop\n        /* \"src/voting.sol\":3866:4026  function AllCandidates( uint _id) public view returns(address[] memory _candidates){... */\n      swap2\n      swap1\n      pop\n      jump\t// out\n        /* \"src/voting.sol\":4029:4606  function revealWinner( uint _id) external view returns ( uint[] memory CV, address, uint){... */\n    tag_38:\n        /* \"src/voting.sol\":4086:4102  uint[] memory CV */\n      0x60\n        /* \"src/voting.sol\":4104:4111  address */\n      0x00\n        /* \"src/voting.sol\":4113:4117  uint */\n      dup1\n        /* \"src/voting.sol\":4125:4146  VotingPoll storage VP */\n      0x00\n        /* \"src/voting.sol\":4149:4159  votingPoll */\n      0x02\n        /* \"src/voting.sol\":4149:4164  votingPoll[_id] */\n      0x00\n        /* \"src/voting.sol\":4160:4163  _id */\n      dup7\n        /* \"src/voting.sol\":4149:4164  votingPoll[_id] */\n      dup2\n      mstore\n      0x20\n      add\n      swap1\n      dup2\n      mstore\n      0x20\n      add\n      0x00\n      keccak256\n        /* \"src/voting.sol\":4125:4164  VotingPoll storage VP = votingPoll[_id] */\n      swap1\n      pop\n        /* \"src/voting.sol\":4202:4203  0 */\n      0x00\n        /* \"src/voting.sol\":4179:4204  VP.chairman != address(0) */\n      0xffffffffffffffffffffffffffffffffffffffff\n      and\n        /* \"src/voting.sol\":4179:4181  VP */\n      dup2\n        /* \"src/voting.sol\":4179:4190  VP.chairman */\n      0x01\n      add\n      0x00\n      swap1\n      sload\n      swap1\n      0x0100\n      exp\n      swap1\n      div\n      0xffffffffffffffffffffffffffffffffffffffff\n      and\n        /* \"src/voting.sol\":4179:4204  VP.chairman != address(0) */\n      0xffffffffffffffffffffffffffffffffffffffff\n      and\n      eq\n      iszero\n        /* \"src/voting.sol\":4171:4224  require(VP.chairman != address(0), \"No poll created\") */\n      tag_93\n      jumpi\n      mload(0x40)\n      0x08c379a000000000000000000000000000000000000000000000000000000000\n      dup2\n      mstore\n      0x04\n      add\n      tag_94\n      swap1\n      tag_95\n      jump\t// in\n    tag_94:\n      mload(0x40)\n      dup1\n      swap2\n      sub\n      swap1\n      revert\n    tag_93:\n        /* \"src/voting.sol\":4247:4249  VP */\n      dup1\n        /* \"src/voting.sol\":4247:4260  VP.candidates */\n      0x02\n      add\n        /* \"src/voting.sol\":4247:4267  VP.candidates.length */\n      dup1\n      sload\n      swap1\n      pop\n        /* \"src/voting.sol\":4236:4268  new uint[](VP.candidates.length) */\n      0xffffffffffffffff\n      dup2\n      gt\n      iszero\n      tag_96\n      jumpi\n      tag_97\n      tag_98\n      jump\t// in\n    tag_97:\n    tag_96:\n      mload(0x40)\n      swap1\n      dup1\n      dup3\n      mstore\n      dup1\n      0x20\n      mul\n      0x20\n      add\n      dup3\n      add\n      0x40\n      mstore\n      dup1\n      iszero\n      tag_99\n      jumpi\n      dup2\n      0x20\n      add\n      0x20\n      dup3\n      mul\n      dup1\n      calldatasize\n      dup4\n      calldatacopy\n      dup1\n      dup3\n      add\n      swap2\n      pop\n      pop\n      swap1\n      pop\n    tag_99:\n      pop\n        /* \"src/voting.sol\":4231:4268  CV = new uint[](VP.candidates.length) */\n      swap4\n      pop\n        /* \"src/voting.sol\":4275:4291  uint highestVote */\n      0x00\n        /* \"src/voting.sol\":4298:4312  address winner */\n      dup1\n        /* \"src/voting.sol\":4324:4330  uint i */\n      0x00\n        /* \"src/voting.sol\":4319:4564  for (uint i =0; i <= VP.candidates.length; i++){... */\n    tag_100:\n        /* \"src/voting.sol\":4340:4342  VP */\n      dup4\n        /* \"src/voting.sol\":4340:4353  VP.candidates */\n      0x02\n      add\n        /* \"src/voting.sol\":4340:4360  VP.candidates.length */\n      dup1\n      sload\n      swap1\n      pop\n        /* \"src/voting.sol\":4335:4336  i */\n      dup2\n        /* \"src/voting.sol\":4335:4360  i <= VP.candidates.length */\n      gt\n        /* \"src/voting.sol\":4319:4564  for (uint i =0; i <= VP.candidates.length; i++){... */\n      tag_101\n      jumpi\n        /* \"src/voting.sol\":4375:4383  uint val */\n      0x00\n        /* \"src/voting.sol\":4386:4404  getPosition(_id,i) */\n      tag_103\n        /* \"src/voting.sol\":4398:4401  _id */\n      dup10\n        /* \"src/voting.sol\":4402:4403  i */\n      dup4\n        /* \"src/voting.sol\":4386:4397  getPosition */\n      tag_104\n        /* \"src/voting.sol\":4386:4404  getPosition(_id,i) */\n      jump\t// in\n    tag_103:\n        /* \"src/voting.sol\":4375:4404  uint val = getPosition(_id,i) */\n      swap1\n      pop\n        /* \"src/voting.sol\":4420:4431  highestVote */\n      dup4\n        /* \"src/voting.sol\":4414:4417  val */\n      dup2\n        /* \"src/voting.sol\":4414:4431  val > highestVote */\n      gt\n        /* \"src/voting.sol\":4411:4505  if(val > highestVote){... */\n      iszero\n      tag_105\n      jumpi\n        /* \"src/voting.sol\":4457:4460  val */\n      dup1\n        /* \"src/voting.sol\":4443:4460  highestVote = val */\n      swap4\n      pop\n        /* \"src/voting.sol\":4481:4483  VP */\n      dup5\n        /* \"src/voting.sol\":4481:4494  VP.candidates */\n      0x02\n      add\n        /* \"src/voting.sol\":4495:4496  i */\n      dup3\n        /* \"src/voting.sol\":4481:4497  VP.candidates[i] */\n      dup2\n      sload\n      dup2\n      lt\n      tag_106\n      jumpi\n      tag_107\n      tag_108\n      jump\t// in\n    tag_107:\n    tag_106:\n      swap1\n      0x00\n      mstore\n      keccak256(0x00, 0x20)\n      add\n      0x00\n      swap1\n      sload\n      swap1\n      0x0100\n      exp\n      swap1\n      div\n      0xffffffffffffffffffffffffffffffffffffffff\n      and\n        /* \"src/voting.sol\":4472:4497  winner = VP.candidates[i] */\n      swap3\n      pop\n        /* \"src/voting.sol\":4411:4505  if(val > highestVote){... */\n    tag_105:\n        /* \"src/voting.sol\":4520:4522  VP */\n      dup5\n        /* \"src/voting.sol\":4520:4536  VP.CandidateVote */\n      0x06\n      add\n        /* \"src/voting.sol\":4520:4554  VP.CandidateVote[VP.candidates[i]] */\n      0x00\n        /* \"src/voting.sol\":4537:4539  VP */\n      dup7\n        /* \"src/voting.sol\":4537:4550  VP.candidates */\n      0x02\n      add\n        /* \"src/voting.sol\":4551:4552  i */\n      dup5\n        /* \"src/voting.sol\":4537:4553  VP.candidates[i] */\n      dup2\n      sload\n      dup2\n      lt\n      tag_110\n      jumpi\n      tag_111\n      tag_108\n      jump\t// in\n    tag_111:\n    tag_110:\n      swap1\n      0x00\n      mstore\n      keccak256(0x00, 0x20)\n      add\n      0x00\n      swap1\n      sload\n      swap1\n      0x0100\n      exp\n      swap1\n      div\n      0xffffffffffffffffffffffffffffffffffffffff\n      and\n        /* \"src/voting.sol\":4520:4554  VP.CandidateVote[VP.candidates[i]] */\n      0xffffffffffffffffffffffffffffffffffffffff\n      and\n      0xffffffffffffffffffffffffffffffffffffffff\n      and\n      dup2\n      mstore\n      0x20\n      add\n      swap1\n      dup2\n      mstore\n      0x20\n      add\n      0x00\n      keccak256\n      sload\n        /* \"src/voting.sol\":4511:4513  CV */\n      dup9\n        /* \"src/voting.sol\":4514:4515  i */\n      dup4\n        /* \"src/voting.sol\":4511:4516  CV[i] */\n      dup2\n      mload\n      dup2\n      lt\n      tag_113\n      jumpi\n      tag_114\n      tag_108\n      jump\t// in\n    tag_114:\n    tag_113:\n      0x20\n      mul\n      0x20\n      add\n      add\n        /* \"src/voting.sol\":4511:4555  CV[i] = (VP.CandidateVote[VP.candidates[i]]) */\n      dup2\n      dup2\n      mstore\n      pop\n      pop\n        /* \"src/voting.sol\":4366:4564  {... */\n      pop\n        /* \"src/voting.sol\":4362:4365  i++ */\n      dup1\n      dup1\n      tag_115\n      swap1\n      tag_116\n      jump\t// in\n    tag_115:\n      swap2\n      pop\n      pop\n        /* \"src/voting.sol\":4319:4564  for (uint i =0; i <= VP.candidates.length; i++){... */\n      jump(tag_100)\n    tag_101:\n      pop\n        /* \"src/voting.sol\":4578:4580  CV */\n      dup6\n        /* \"src/voting.sol\":4582:4588  winner */\n      dup2\n        /* \"src/voting.sol\":4590:4601  highestVote */\n      dup4\n        /* \"src/voting.sol\":4570:4602  return (CV, winner, highestVote) */\n      swap6\n      pop\n      swap6\n      pop\n      swap6\n      pop\n      pop\n      pop\n      pop\n        /* \"src/voting.sol\":4029:4606  function revealWinner( uint _id) external view returns ( uint[] memory CV, address, uint){... */\n      swap2\n      swap4\n      swap1\n      swap3\n      pop\n      jump\t// out\n        /* \"src/voting.sol\":761:784  uint[] public VotingKey */\n    tag_43:\n      0x01\n      dup2\n      dup2\n      sload\n      dup2\n      lt\n      tag_117\n      jumpi\n      0x00\n      dup1\n      revert\n    tag_117:\n      swap1\n      0x00\n      mstore\n      keccak256(0x00, 0x20)\n      add\n      0x00\n      swap2\n      pop\n      swap1\n      pop\n      sload\n      dup2\n      jump\t// out\n        /* \"src/voting.sol\":5195:5410  function metaVotingHash(address Cand, uint _id, uint256 nonce, uint256 time) public view returns(bytes32){... */\n    tag_48:\n        /* \"src/voting.sol\":5292:5299  bytes32 */\n      0x00\n        /* \"src/voting.sol\":5348:5352  this */\n      address\n        /* \"src/voting.sol\":5381:5385  Cand */\n      dup6\n        /* \"src/voting.sol\":5387:5390  _id */\n      dup6\n        /* \"src/voting.sol\":5392:5397  nonce */\n      dup6\n        /* \"src/voting.sol\":5399:5403  time */\n      dup6\n        /* \"src/voting.sol\":5323:5404  abi.encodePacked(address(this),\"metatransaction Voting \", Cand, _id, nonce, time) */\n      add(0x20, mload(0x40))\n      tag_120\n      swap6\n      swap5\n      swap4\n      swap3\n      swap2\n      swap1\n      tag_121\n      jump\t// in\n    tag_120:\n      mload(0x40)\n      0x20\n      dup2\n      dup4\n      sub\n      sub\n      dup2\n      mstore\n      swap1\n      0x40\n      mstore\n        /* \"src/voting.sol\":5313:5405  keccak256(abi.encodePacked(address(this),\"metatransaction Voting \", Cand, _id, nonce, time)) */\n      dup1\n      mload\n      swap1\n      0x20\n      add\n      keccak256\n        /* \"src/voting.sol\":5306:5405  return keccak256(abi.encodePacked(address(this),\"metatransaction Voting \", Cand, _id, nonce, time)) */\n      swap1\n      pop\n        /* \"src/voting.sol\":5195:5410  function metaVotingHash(address Cand, uint _id, uint256 nonce, uint256 time) public view returns(bytes32){... */\n      swap5\n      swap4\n      pop\n      pop\n      pop\n      pop\n      jump\t// out\n        /* \"src/voting.sol\":2701:3236  function vote(address Cand, uint _id, uint256 nonce, bytes memory signature) external  isCandidate(Cand, _id) StillVoting(_id){... */\n    tag_54:\n        /* \"src/voting.sol\":2800:2804  Cand */\n      dup4\n        /* \"src/voting.sol\":2806:2809  _id */\n      dup4\n        /* \"src/voting.sol\":1450:1454  true */\n      0x01\n        /* \"src/voting.sol\":1422:1454  CandidateStatus[_id][Cand]==true */\n      iszero\n      iszero\n        /* \"src/voting.sol\":1422:1437  CandidateStatus */\n      0x04\n        /* \"src/voting.sol\":1422:1442  CandidateStatus[_id] */\n      0x00\n        /* \"src/voting.sol\":1438:1441  _id */\n      dup4\n        /* \"src/voting.sol\":1422:1442  CandidateStatus[_id] */\n      dup2\n      mstore\n      0x20\n      add\n      swap1\n      dup2\n      mstore\n      0x20\n      add\n      0x00\n      keccak256\n        /* \"src/voting.sol\":1422:1448  CandidateStatus[_id][Cand] */\n      0x00\n        /* \"src/voting.sol\":1443:1447  Cand */\n      dup5\n        /* \"src/voting.sol\":1422:1448  CandidateStatus[_id][Cand] */\n      0xffffffffffffffffffffffffffffffffffffffff\n      and\n      0xffffffffffffffffffffffffffffffffffffffff\n      and\n      dup2\n      mstore\n      0x20\n      add\n      swap1\n      dup2\n      mstore\n      0x20\n      add\n      0x00\n      keccak256\n      0x00\n      swap1\n      sload\n      swap1\n      0x0100\n      exp\n      swap1\n      div\n      0xff\n      and\n        /* \"src/voting.sol\":1422:1454  CandidateStatus[_id][Cand]==true */\n      iszero\n      iszero\n      eq\n        /* \"src/voting.sol\":1414:1500  require(CandidateStatus[_id][Cand]==true,'This address does not exist as a candidate') */\n      tag_123\n      jumpi\n      mload(0x40)\n      0x08c379a000000000000000000000000000000000000000000000000000000000\n      dup2\n      mstore\n      0x04\n      add\n      tag_124\n      swap1\n      tag_125\n      jump\t// in\n    tag_124:\n      mload(0x40)\n      dup1\n      swap2\n      sub\n      swap1\n      revert\n    tag_123:\n        /* \"src/voting.sol\":2823:2826  _id */\n      dup5\n        /* \"src/voting.sol\":1550:1571  VotingPoll storage VP */\n      0x00\n        /* \"src/voting.sol\":1574:1584  votingPoll */\n      0x02\n        /* \"src/voting.sol\":1574:1589  votingPoll[_id] */\n      0x00\n        /* \"src/voting.sol\":1585:1588  _id */\n      dup4\n        /* \"src/voting.sol\":1574:1589  votingPoll[_id] */\n      dup2\n      mstore\n      0x20\n      add\n      swap1\n      dup2\n      mstore\n      0x20\n      add\n      0x00\n      keccak256\n        /* \"src/voting.sol\":1550:1589  VotingPoll storage VP = votingPoll[_id] */\n      swap1\n      pop\n        /* \"src/voting.sol\":1616:1620  true */\n      0x01\n        /* \"src/voting.sol\":1603:1620  VP.voting == true */\n      iszero\n      iszero\n        /* \"src/voting.sol\":1603:1605  VP */\n      dup2\n        /* \"src/voting.sol\":1603:1612  VP.voting */\n      0x07\n      add\n      0x00\n      swap1\n      sload\n      swap1\n      0x0100\n      exp\n      swap1\n      div\n      0xff\n      and\n        /* \"src/voting.sol\":1603:1620  VP.voting == true */\n      iszero\n      iszero\n      eq\n        /* \"src/voting.sol\":1595:1641  require(VP.voting == true, \"voting has ended\") */\n      tag_127\n      jumpi\n      mload(0x40)\n      0x08c379a000000000000000000000000000000000000000000000000000000000\n      dup2\n      mstore\n      0x04\n      add\n      tag_128\n      swap1\n      tag_129\n      jump\t// in\n    tag_128:\n      mload(0x40)\n      dup1\n      swap2\n      sub\n      swap1\n      revert\n    tag_127:\n        /* \"src/voting.sol\":2834:2850  bytes32 metaHash */\n      0x00\n        /* \"src/voting.sol\":2853:2899  metaVotingHash(Cand,_id,nonce,block.timestamp) */\n      tag_131\n        /* \"src/voting.sol\":2868:2872  Cand */\n      dup10\n        /* \"src/voting.sol\":2873:2876  _id */\n      dup10\n        /* \"src/voting.sol\":2877:2882  nonce */\n      dup10\n        /* \"src/voting.sol\":2883:2898  block.timestamp */\n      timestamp\n        /* \"src/voting.sol\":2853:2867  metaVotingHash */\n      tag_48\n        /* \"src/voting.sol\":2853:2899  metaVotingHash(Cand,_id,nonce,block.timestamp) */\n      jump\t// in\n    tag_131:\n        /* \"src/voting.sol\":2834:2899  bytes32 metaHash = metaVotingHash(Cand,_id,nonce,block.timestamp) */\n      swap1\n      pop\n        /* \"src/voting.sol\":2906:2920  address signer */\n      0x00\n        /* \"src/voting.sol\":2923:2952  getSigner(metaHash,signature) */\n      tag_132\n        /* \"src/voting.sol\":2933:2941  metaHash */\n      dup3\n        /* \"src/voting.sol\":2942:2951  signature */\n      dup9\n        /* \"src/voting.sol\":2923:2932  getSigner */\n      tag_133\n        /* \"src/voting.sol\":2923:2952  getSigner(metaHash,signature) */\n      jump\t// in\n    tag_132:\n        /* \"src/voting.sol\":2906:2952  address signer = getSigner(metaHash,signature) */\n      swap1\n      pop\n        /* \"src/voting.sol\":2983:2984  0 */\n      0x00\n        /* \"src/voting.sol\":2967:2985  signer!=address(0) */\n      0xffffffffffffffffffffffffffffffffffffffff\n      and\n        /* \"src/voting.sol\":2967:2973  signer */\n      dup2\n        /* \"src/voting.sol\":2967:2985  signer!=address(0) */\n      0xffffffffffffffffffffffffffffffffffffffff\n      and\n      eq\n      iszero\n        /* \"src/voting.sol\":2959:2986  require(signer!=address(0)) */\n      tag_134\n      jumpi\n      0x00\n      dup1\n      revert\n    tag_134:\n        /* \"src/voting.sol\":3009:3020  replayNonce */\n      0x03\n        /* \"src/voting.sol\":3009:3028  replayNonce[signer] */\n      0x00\n        /* \"src/voting.sol\":3021:3027  signer */\n      dup3\n        /* \"src/voting.sol\":3009:3028  replayNonce[signer] */\n      0xffffffffffffffffffffffffffffffffffffffff\n      and\n      0xffffffffffffffffffffffffffffffffffffffff\n      and\n      dup2\n      mstore\n      0x20\n      add\n      swap1\n      dup2\n      mstore\n      0x20\n      add\n      0x00\n      keccak256\n      sload\n        /* \"src/voting.sol\":3000:3005  nonce */\n      dup9\n        /* \"src/voting.sol\":3000:3028  nonce == replayNonce[signer] */\n      eq\n        /* \"src/voting.sol\":2992:3029  require(nonce == replayNonce[signer]) */\n      tag_135\n      jumpi\n      0x00\n      dup1\n      revert\n    tag_135:\n        /* \"src/voting.sol\":3035:3046  replayNonce */\n      0x03\n        /* \"src/voting.sol\":3035:3054  replayNonce[signer] */\n      0x00\n        /* \"src/voting.sol\":3047:3053  signer */\n      dup3\n        /* \"src/voting.sol\":3035:3054  replayNonce[signer] */\n      0xffffffffffffffffffffffffffffffffffffffff\n      and\n      0xffffffffffffffffffffffffffffffffffffffff\n      and\n      dup2\n      mstore\n      0x20\n      add\n      swap1\n      dup2\n      mstore\n      0x20\n      add\n      0x00\n      keccak256\n      0x00\n        /* \"src/voting.sol\":3035:3056  replayNonce[signer]++ */\n      dup2\n      sload\n      dup1\n      swap3\n      swap2\n      swap1\n      tag_136\n      swap1\n      tag_116\n      jump\t// in\n    tag_136:\n      swap2\n      swap1\n      pop\n      sstore\n      pop\n        /* \"src/voting.sol\":3063:3084  VotingPoll storage VP */\n      0x00\n        /* \"src/voting.sol\":3087:3097  votingPoll */\n      0x02\n        /* \"src/voting.sol\":3087:3101  votingPoll[id] */\n      0x00\n        /* \"src/voting.sol\":3098:3100  id */\n      dup1\n      sload\n        /* \"src/voting.sol\":3087:3101  votingPoll[id] */\n      dup2\n      mstore\n      0x20\n      add\n      swap1\n      dup2\n      mstore\n      0x20\n      add\n      0x00\n      keccak256\n        /* \"src/voting.sol\":3063:3101  VotingPoll storage VP = votingPoll[id] */\n      swap1\n      pop\n        /* \"src/voting.sol\":3139:3144  false */\n      0x00\n        /* \"src/voting.sol\":3116:3144  VP.hasVoted[signer] == false */\n      iszero\n      iszero\n        /* \"src/voting.sol\":3116:3118  VP */\n      dup2\n        /* \"src/voting.sol\":3116:3127  VP.hasVoted */\n      0x05\n      add\n        /* \"src/voting.sol\":3116:3135  VP.hasVoted[signer] */\n      0x00\n        /* \"src/voting.sol\":3128:3134  signer */\n      dup5\n        /* \"src/voting.sol\":3116:3135  VP.hasVoted[signer] */\n      0xffffffffffffffffffffffffffffffffffffffff\n      and\n      0xffffffffffffffffffffffffffffffffffffffff\n      and\n      dup2\n      mstore\n      0x20\n      add\n      swap1\n      dup2\n      mstore\n      0x20\n      add\n      0x00\n      keccak256\n      0x00\n      swap1\n      sload\n      swap1\n      0x0100\n      exp\n      swap1\n      div\n      0xff\n      and\n        /* \"src/voting.sol\":3116:3144  VP.hasVoted[signer] == false */\n      iszero\n      iszero\n      eq\n        /* \"src/voting.sol\":3108:3166  require(VP.hasVoted[signer] == false, \"You already voted\") */\n      tag_137\n      jumpi\n      mload(0x40)\n      0x08c379a000000000000000000000000000000000000000000000000000000000\n      dup2\n      mstore\n      0x04\n      add\n      tag_138\n      swap1\n      tag_139\n      jump\t// in\n    tag_138:\n      mload(0x40)\n      dup1\n      swap2\n      sub\n      swap1\n      revert\n    tag_137:\n        /* \"src/voting.sol\":3174:3202  countVote(Cand, _id, signer) */\n      tag_140\n        /* \"src/voting.sol\":3184:3188  Cand */\n      dup12\n        /* \"src/voting.sol\":3190:3193  _id */\n      dup12\n        /* \"src/voting.sol\":3195:3201  signer */\n      dup5\n        /* \"src/voting.sol\":3174:3183  countVote */\n      tag_141\n        /* \"src/voting.sol\":3174:3202  countVote(Cand, _id, signer) */\n      jump\t// in\n    tag_140:\n      pop\n        /* \"src/voting.sol\":3214:3231  voted(Cand, true) */\n      0xf3f16a15f074b71c5138107dfc7c63b80524d5411cb967caa97d8d9f12b2fd6b\n        /* \"src/voting.sol\":3220:3224  Cand */\n      dup12\n        /* \"src/voting.sol\":3226:3230  true */\n      0x01\n        /* \"src/voting.sol\":3214:3231  voted(Cand, true) */\n      mload(0x40)\n      tag_142\n      swap3\n      swap2\n      swap1\n      tag_143\n      jump\t// in\n    tag_142:\n      mload(0x40)\n      dup1\n      swap2\n      sub\n      swap1\n      log1\n        /* \"src/voting.sol\":2827:3236  {... */\n      pop\n      pop\n      pop\n        /* \"src/voting.sol\":1544:1652  {... */\n      pop\n        /* \"src/voting.sol\":1506:1507  _ */\n      pop\n        /* \"src/voting.sol\":2701:3236  function vote(address Cand, uint _id, uint256 nonce, bytes memory signature) external  isCandidate(Cand, _id) StillVoting(_id){... */\n      pop\n      pop\n      pop\n      pop\n      pop\n      pop\n      jump\t// out\n        /* \"src/voting.sol\":3475:3697  function setVotingState( uint _id) external {... */\n    tag_57:\n        /* \"src/voting.sol\":3525:3546  VotingPoll storage VP */\n      0x00\n        /* \"src/voting.sol\":3549:3559  votingPoll */\n      0x02\n        /* \"src/voting.sol\":3549:3564  votingPoll[_id] */\n      0x00\n        /* \"src/voting.sol\":3560:3563  _id */\n      dup4\n        /* \"src/voting.sol\":3549:3564  votingPoll[_id] */\n      dup2\n      mstore\n      0x20\n      add\n      swap1\n      dup2\n      mstore\n      0x20\n      add\n      0x00\n      keccak256\n        /* \"src/voting.sol\":3525:3564  VotingPoll storage VP = votingPoll[_id] */\n      swap1\n      pop\n        /* \"src/voting.sol\":3593:3603  msg.sender */\n      caller\n        /* \"src/voting.sol\":3578:3603  VP.chairman == msg.sender */\n      0xffffffffffffffffffffffffffffffffffffffff\n      and\n        /* \"src/voting.sol\":3578:3580  VP */\n      dup2\n        /* \"src/voting.sol\":3578:3589  VP.chairman */\n      0x01\n      add\n      0x00\n      swap1\n      sload\n      swap1\n      0x0100\n      exp\n      swap1\n      div\n      0xffffffffffffffffffffffffffffffffffffffff\n      and\n        /* \"src/voting.sol\":3578:3603  VP.chairman == msg.sender */\n      0xffffffffffffffffffffffffffffffffffffffff\n      and\n      eq\n        /* \"src/voting.sol\":3570:3624  require(VP.chairman == msg.sender, \"not the chairman\") */\n      tag_145\n      jumpi\n      mload(0x40)\n      0x08c379a000000000000000000000000000000000000000000000000000000000\n      dup2\n      mstore\n      0x04\n      add\n      tag_146\n      swap1\n      tag_147\n      jump\t// in\n    tag_146:\n      mload(0x40)\n      dup1\n      swap2\n      sub\n      swap1\n      revert\n    tag_145:\n        /* \"src/voting.sol\":3650:3652  VP */\n      dup1\n        /* \"src/voting.sol\":3650:3659  VP.voting */\n      0x07\n      add\n      0x00\n      swap1\n      sload\n      swap1\n      0x0100\n      exp\n      swap1\n      div\n      0xff\n      and\n        /* \"src/voting.sol\":3648:3660  !(VP.voting) */\n      iszero\n        /* \"src/voting.sol\":3636:3638  VP */\n      dup2\n        /* \"src/voting.sol\":3636:3645  VP.voting */\n      0x07\n      add\n      0x00\n        /* \"src/voting.sol\":3636:3660  VP.voting = !(VP.voting) */\n      0x0100\n      exp\n      dup2\n      sload\n      dup2\n      0xff\n      mul\n      not\n      and\n      swap1\n      dup4\n      iszero\n      iszero\n      mul\n      or\n      swap1\n      sstore\n      pop\n        /* \"src/voting.sol\":3683:3685  VP */\n      dup1\n        /* \"src/voting.sol\":3683:3692  VP.voting */\n      0x07\n      add\n      0x00\n      swap1\n      sload\n      swap1\n      0x0100\n      exp\n      swap1\n      div\n      0xff\n      and\n        /* \"src/voting.sol\":3672:3693  voteStatus(VP.voting) */\n      iszero\n      iszero\n      0x7b224db641892626dca6975b376f464e9ac52ccfa180436175170c009b94dcd7\n      mload(0x40)\n      mload(0x40)\n      dup1\n      swap2\n      sub\n      swap1\n      log2\n        /* \"src/voting.sol\":3519:3697  {... */\n      pop\n        /* \"src/voting.sol\":3475:3697  function setVotingState( uint _id) external {... */\n      pop\n      jump\t// out\n        /* \"src/voting.sol\":848:893  mapping(uint => VotingPoll) public votingPoll */\n    tag_60:\n      mstore(0x20, 0x02)\n      dup1\n      0x00\n      mstore\n      keccak256(0x00, 0x40)\n      0x00\n      swap2\n      pop\n      swap1\n      pop\n      dup1\n      0x00\n      add\n      dup1\n      sload\n      tag_148\n      swap1\n      tag_149\n      jump\t// in\n    tag_148:\n      dup1\n      0x1f\n      add\n      0x20\n      dup1\n      swap2\n      div\n      mul\n      0x20\n      add\n      mload(0x40)\n      swap1\n      dup2\n      add\n      0x40\n      mstore\n      dup1\n      swap3\n      swap2\n      swap1\n      dup2\n      dup2\n      mstore\n      0x20\n      add\n      dup3\n      dup1\n      sload\n      tag_150\n      swap1\n      tag_149\n      jump\t// in\n    tag_150:\n      dup1\n      iszero\n      tag_151\n      jumpi\n      dup1\n      0x1f\n      lt\n      tag_152\n      jumpi\n      0x0100\n      dup1\n      dup4\n      sload\n      div\n      mul\n      dup4\n      mstore\n      swap2\n      0x20\n      add\n      swap2\n      jump(tag_151)\n    tag_152:\n      dup3\n      add\n      swap2\n      swap1\n      0x00\n      mstore\n      keccak256(0x00, 0x20)\n      swap1\n    tag_153:\n      dup2\n      sload\n      dup2\n      mstore\n      swap1\n      0x01\n      add\n      swap1\n      0x20\n      add\n      dup1\n      dup4\n      gt\n      tag_153\n      jumpi\n      dup3\n      swap1\n      sub\n      0x1f\n      and\n      dup3\n      add\n      swap2\n    tag_151:\n      pop\n      pop\n      pop\n      pop\n      pop\n      swap1\n      dup1\n      0x01\n      add\n      0x00\n      swap1\n      sload\n      swap1\n      0x0100\n      exp\n      swap1\n      div\n      0xffffffffffffffffffffffffffffffffffffffff\n      and\n      swap1\n      dup1\n      0x03\n      add\n      0x00\n      swap1\n      sload\n      swap1\n      0x0100\n      exp\n      swap1\n      div\n      0xffffffff\n      and\n      swap1\n      dup1\n      0x03\n      add\n      0x04\n      swap1\n      sload\n      swap1\n      0x0100\n      exp\n      swap1\n      div\n      0xffffffff\n      and\n      swap1\n      dup1\n      0x07\n      add\n      0x00\n      swap1\n      sload\n      swap1\n      0x0100\n      exp\n      swap1\n      div\n      0xff\n      and\n      swap1\n      pop\n      dup6\n      jump\t// out\n        /* \"src/voting.sol\":1788:2195  function createPoll(string memory _name, uint32 ExpectedNoOfCandidate) external returns(string memory, uint Candidate){... */\n    tag_66:\n        /* \"src/voting.sol\":1876:1889  string memory */\n      0x60\n        /* \"src/voting.sol\":1891:1905  uint Candidate */\n      0x00\n        /* \"src/voting.sol\":1912:1933  VotingPoll storage VP */\n      dup1\n        /* \"src/voting.sol\":1936:1946  votingPoll */\n      0x02\n        /* \"src/voting.sol\":1936:1950  votingPoll[id] */\n      0x00\n        /* \"src/voting.sol\":1947:1949  id */\n      dup1\n      sload\n        /* \"src/voting.sol\":1936:1950  votingPoll[id] */\n      dup2\n      mstore\n      0x20\n      add\n      swap1\n      dup2\n      mstore\n      0x20\n      add\n      0x00\n      keccak256\n        /* \"src/voting.sol\":1912:1950  VotingPoll storage VP = votingPoll[id] */\n      swap1\n      pop\n        /* \"src/voting.sol\":1966:1971  _name */\n      dup5\n        /* \"src/voting.sol\":1956:1958  VP */\n      dup2\n        /* \"src/voting.sol\":1956:1963  VP.name */\n      0x00\n      add\n        /* \"src/voting.sol\":1956:1971  VP.name = _name */\n      swap1\n      dup1\n      mload\n      swap1\n      0x20\n      add\n      swap1\n      tag_155\n      swap3\n      swap2\n      swap1\n      tag_156\n      jump\t// in\n    tag_155:\n      pop\n        /* \"src/voting.sol\":1991:2001  msg.sender */\n      caller\n        /* \"src/voting.sol\":1977:1979  VP */\n      dup2\n        /* \"src/voting.sol\":1977:1988  VP.chairman */\n      0x01\n      add\n      0x00\n        /* \"src/voting.sol\":1977:2001  VP.chairman = msg.sender */\n      0x0100\n      exp\n      dup2\n      sload\n      dup2\n      0xffffffffffffffffffffffffffffffffffffffff\n      mul\n      not\n      and\n      swap1\n      dup4\n      0xffffffffffffffffffffffffffffffffffffffff\n      and\n      mul\n      or\n      swap1\n      sstore\n      pop\n        /* \"src/voting.sol\":2029:2050  ExpectedNoOfCandidate */\n      dup4\n        /* \"src/voting.sol\":2007:2009  VP */\n      dup2\n        /* \"src/voting.sol\":2007:2027  VP.maxNoOfCandidates */\n      0x03\n      add\n      0x00\n        /* \"src/voting.sol\":2007:2050  VP.maxNoOfCandidates =ExpectedNoOfCandidate */\n      0x0100\n      exp\n      dup2\n      sload\n      dup2\n      0xffffffff\n      mul\n      not\n      and\n      swap1\n      dup4\n      0xffffffff\n      and\n      mul\n      or\n      swap1\n      sstore\n      pop\n        /* \"src/voting.sol\":2056:2065  VotingKey */\n      0x01\n        /* \"src/voting.sol\":2071:2073  id */\n      sload(0x00)\n        /* \"src/voting.sol\":2056:2074  VotingKey.push(id) */\n      swap1\n      dup1\n      0x01\n      dup2\n      sload\n      add\n      dup1\n      dup3\n      sstore\n      dup1\n      swap2\n      pop\n      pop\n      0x01\n      swap1\n      sub\n      swap1\n      0x00\n      mstore\n      keccak256(0x00, 0x20)\n      add\n      0x00\n      swap1\n      swap2\n      swap1\n      swap2\n      swap1\n      swap2\n      pop\n      sstore\n        /* \"src/voting.sol\":2080:2082  id */\n      0x00\n      dup1\n        /* \"src/voting.sol\":2080:2084  id++ */\n      dup2\n      sload\n      dup1\n      swap3\n      swap2\n      swap1\n      tag_158\n      swap1\n      tag_116\n      jump\t// in\n    tag_158:\n      swap2\n      swap1\n      pop\n      sstore\n      pop\n        /* \"src/voting.sol\":2137:2139  VP */\n      dup1\n        /* \"src/voting.sol\":2137:2148  VP.chairman */\n      0x01\n      add\n      0x00\n      swap1\n      sload\n      swap1\n      0x0100\n      exp\n      swap1\n      div\n      0xffffffffffffffffffffffffffffffffffffffff\n      and\n        /* \"src/voting.sol\":2095:2149  pollCreated( _name, VP.maxNoOfCandidates, VP.chairman) */\n      0xffffffffffffffffffffffffffffffffffffffff\n      and\n        /* \"src/voting.sol\":2115:2117  VP */\n      dup2\n        /* \"src/voting.sol\":2115:2135  VP.maxNoOfCandidates */\n      0x03\n      add\n      0x00\n      swap1\n      sload\n      swap1\n      0x0100\n      exp\n      swap1\n      div\n      0xffffffff\n      and\n        /* \"src/voting.sol\":2095:2149  pollCreated( _name, VP.maxNoOfCandidates, VP.chairman) */\n      0xffffffff\n      and\n        /* \"src/voting.sol\":2108:2113  _name */\n      dup7\n        /* \"src/voting.sol\":2095:2149  pollCreated( _name, VP.maxNoOfCandidates, VP.chairman) */\n      mload(0x40)\n      tag_159\n      swap2\n      swap1\n      tag_160\n      jump\t// in\n    tag_159:\n      mload(0x40)\n      dup1\n      swap2\n      sub\n      swap1\n      keccak256\n      0x4b35e5cf01446aa899a8d21082ebf23b7497d38f2466ad49836bd1006a8d059e\n      mload(0x40)\n      mload(0x40)\n      dup1\n      swap2\n      sub\n      swap1\n      log4\n        /* \"src/voting.sol\":2163:2168  _name */\n      dup5\n        /* \"src/voting.sol\":2170:2191  ExpectedNoOfCandidate */\n      dup5\n        /* \"src/voting.sol\":2156:2192  return(_name, ExpectedNoOfCandidate) */\n      dup1\n      0xffffffff\n      and\n      swap1\n      pop\n      swap3\n      pop\n      swap3\n      pop\n      pop\n        /* \"src/voting.sol\":1788:2195  function createPoll(string memory _name, uint32 ExpectedNoOfCandidate) external returns(string memory, uint Candidate){... */\n      swap3\n      pop\n      swap3\n      swap1\n      pop\n      jump\t// out\n        /* \"src/voting.sol\":4785:5190  function getStructProps() external view returns(retVotingPoll[] memory RVP){... */\n    tag_70:\n        /* \"src/voting.sol\":4833:4859  retVotingPoll[] memory RVP */\n      0x60\n        /* \"src/voting.sol\":4891:4900  VotingKey */\n      0x01\n        /* \"src/voting.sol\":4891:4907  VotingKey.length */\n      dup1\n      sload\n      swap1\n      pop\n        /* \"src/voting.sol\":4870:4908  new  retVotingPoll[](VotingKey.length) */\n      0xffffffffffffffff\n      dup2\n      gt\n      iszero\n      tag_162\n      jumpi\n      tag_163\n      tag_98\n      jump\t// in\n    tag_163:\n    tag_162:\n      mload(0x40)\n      swap1\n      dup1\n      dup3\n      mstore\n      dup1\n      0x20\n      mul\n      0x20\n      add\n      dup3\n      add\n      0x40\n      mstore\n      dup1\n      iszero\n      tag_164\n      jumpi\n      dup2\n      0x20\n      add\n    tag_165:\n      tag_166\n      tag_167\n      jump\t// in\n    tag_166:\n      dup2\n      mstore\n      0x20\n      add\n      swap1\n      0x01\n      swap1\n      sub\n      swap1\n      dup2\n      tag_165\n      jumpi\n      swap1\n      pop\n    tag_164:\n      pop\n        /* \"src/voting.sol\":4864:4908  RVP = new  retVotingPoll[](VotingKey.length) */\n      swap1\n      pop\n        /* \"src/voting.sol\":4917:4923  uint i */\n      0x00\n        /* \"src/voting.sol\":4912:5187  for (uint i = 0; i <= VotingKey.length; i++){... */\n    tag_168:\n        /* \"src/voting.sol\":4934:4943  VotingKey */\n      0x01\n        /* \"src/voting.sol\":4934:4950  VotingKey.length */\n      dup1\n      sload\n      swap1\n      pop\n        /* \"src/voting.sol\":4929:4930  i */\n      dup2\n        /* \"src/voting.sol\":4929:4950  i <= VotingKey.length */\n      gt\n        /* \"src/voting.sol\":4912:5187  for (uint i = 0; i <= VotingKey.length; i++){... */\n      tag_169\n      jumpi\n        /* \"src/voting.sol\":4962:4983  VotingPoll storage VP */\n      0x00\n        /* \"src/voting.sol\":4986:4996  votingPoll */\n      0x02\n        /* \"src/voting.sol\":4986:5001  votingPoll[i++] */\n      0x00\n        /* \"src/voting.sol\":4997:5000  i++ */\n      dup4\n      dup1\n      tag_171\n      swap1\n      tag_116\n      jump\t// in\n    tag_171:\n      swap5\n      pop\n        /* \"src/voting.sol\":4986:5001  votingPoll[i++] */\n      dup2\n      mstore\n      0x20\n      add\n      swap1\n      dup2\n      mstore\n      0x20\n      add\n      0x00\n      keccak256\n        /* \"src/voting.sol\":4962:5001  VotingPoll storage VP = votingPoll[i++] */\n      swap1\n      pop\n        /* \"src/voting.sol\":5025:5027  VP */\n      dup1\n        /* \"src/voting.sol\":5025:5036  VP.chairman */\n      0x01\n      add\n      0x00\n      swap1\n      sload\n      swap1\n      0x0100\n      exp\n      swap1\n      div\n      0xffffffffffffffffffffffffffffffffffffffff\n      and\n        /* \"src/voting.sol\":5007:5010  RVP */\n      dup4\n        /* \"src/voting.sol\":5011:5012  i */\n      dup4\n        /* \"src/voting.sol\":5007:5013  RVP[i] */\n      dup2\n      mload\n      dup2\n      lt\n      tag_172\n      jumpi\n      tag_173\n      tag_108\n      jump\t// in\n    tag_173:\n    tag_172:\n      0x20\n      mul\n      0x20\n      add\n      add\n      mload\n        /* \"src/voting.sol\":5007:5022  RVP[i].chairman */\n      0x20\n      add\n        /* \"src/voting.sol\":5007:5036  RVP[i].chairman = VP.chairman */\n      swap1\n      0xffffffffffffffffffffffffffffffffffffffff\n      and\n      swap1\n      dup2\n      0xffffffffffffffffffffffffffffffffffffffff\n      and\n      dup2\n      mstore\n      pop\n      pop\n        /* \"src/voting.sol\":5069:5071  VP */\n      dup1\n        /* \"src/voting.sol\":5069:5089  VP.maxNoOfCandidates */\n      0x03\n      add\n      0x00\n      swap1\n      sload\n      swap1\n      0x0100\n      exp\n      swap1\n      div\n      0xffffffff\n      and\n        /* \"src/voting.sol\":5042:5045  RVP */\n      dup4\n        /* \"src/voting.sol\":5046:5047  i */\n      dup4\n        /* \"src/voting.sol\":5042:5048  RVP[i] */\n      dup2\n      mload\n      dup2\n      lt\n      tag_174\n      jumpi\n      tag_175\n      tag_108\n      jump\t// in\n    tag_175:\n    tag_174:\n      0x20\n      mul\n      0x20\n      add\n      add\n      mload\n        /* \"src/voting.sol\":5042:5066  RVP[i].maxNoOfCandidates */\n      0x60\n      add\n        /* \"src/voting.sol\":5042:5089  RVP[i].maxNoOfCandidates = VP.maxNoOfCandidates */\n      swap1\n      0xffffffff\n      and\n      swap1\n      dup2\n      0xffffffff\n      and\n      dup2\n      mstore\n      pop\n      pop\n        /* \"src/voting.sol\":5126:5128  VP */\n      dup1\n        /* \"src/voting.sol\":5126:5150  VP.currentNoOfCandidates */\n      0x03\n      add\n      0x04\n      swap1\n      sload\n      swap1\n      0x0100\n      exp\n      swap1\n      div\n      0xffffffff\n      and\n        /* \"src/voting.sol\":5095:5098  RVP */\n      dup4\n        /* \"src/voting.sol\":5099:5100  i */\n      dup4\n        /* \"src/voting.sol\":5095:5101  RVP[i] */\n      dup2\n      mload\n      dup2\n      lt\n      tag_176\n      jumpi\n      tag_177\n      tag_108\n      jump\t// in\n    tag_177:\n    tag_176:\n      0x20\n      mul\n      0x20\n      add\n      add\n      mload\n        /* \"src/voting.sol\":5095:5123  RVP[i].currentNoOfCandidates */\n      0x80\n      add\n        /* \"src/voting.sol\":5095:5150  RVP[i].currentNoOfCandidates = VP.currentNoOfCandidates */\n      swap1\n      0xffffffff\n      and\n      swap1\n      dup2\n      0xffffffff\n      and\n      dup2\n      mstore\n      pop\n      pop\n        /* \"src/voting.sol\":5172:5174  VP */\n      dup1\n        /* \"src/voting.sol\":5172:5181  VP.voting */\n      0x07\n      add\n      0x00\n      swap1\n      sload\n      swap1\n      0x0100\n      exp\n      swap1\n      div\n      0xff\n      and\n        /* \"src/voting.sol\":5156:5159  RVP */\n      dup4\n        /* \"src/voting.sol\":5160:5161  i */\n      dup4\n        /* \"src/voting.sol\":5156:5162  RVP[i] */\n      dup2\n      mload\n      dup2\n      lt\n      tag_178\n      jumpi\n      tag_179\n      tag_108\n      jump\t// in\n    tag_179:\n    tag_178:\n      0x20\n      mul\n      0x20\n      add\n      add\n      mload\n        /* \"src/voting.sol\":5156:5169  RVP[i].voting */\n      0xa0\n      add\n        /* \"src/voting.sol\":5156:5181  RVP[i].voting = VP.voting */\n      swap1\n      iszero\n      iszero\n      swap1\n      dup2\n      iszero\n      iszero\n      dup2\n      mstore\n      pop\n      pop\n        /* \"src/voting.sol\":4956:5187  {... */\n      pop\n        /* \"src/voting.sol\":4952:4955  i++ */\n      dup1\n      dup1\n      tag_180\n      swap1\n      tag_116\n      jump\t// in\n    tag_180:\n      swap2\n      pop\n      pop\n        /* \"src/voting.sol\":4912:5187  for (uint i = 0; i <= VotingKey.length; i++){... */\n      jump(tag_168)\n    tag_169:\n      pop\n        /* \"src/voting.sol\":4785:5190  function getStructProps() external view returns(retVotingPoll[] memory RVP){... */\n      swap1\n      jump\t// out\n        /* \"src/voting.sol\":4612:4782  function getPosition( uint _id, uint i) internal view returns(uint val){... */\n    tag_104:\n        /* \"src/voting.sol\":4674:4682  uint val */\n      0x00\n        /* \"src/voting.sol\":4690:4711  VotingPoll storage VP */\n      dup1\n        /* \"src/voting.sol\":4714:4724  votingPoll */\n      0x02\n        /* \"src/voting.sol\":4714:4729  votingPoll[_id] */\n      0x00\n        /* \"src/voting.sol\":4725:4728  _id */\n      dup6\n        /* \"src/voting.sol\":4714:4729  votingPoll[_id] */\n      dup2\n      mstore\n      0x20\n      add\n      swap1\n      dup2\n      mstore\n      0x20\n      add\n      0x00\n      keccak256\n        /* \"src/voting.sol\":4690:4729  VotingPoll storage VP = votingPoll[_id] */\n      swap1\n      pop\n        /* \"src/voting.sol\":4744:4746  VP */\n      dup1\n        /* \"src/voting.sol\":4744:4760  VP.CandidateVote */\n      0x06\n      add\n        /* \"src/voting.sol\":4744:4778  VP.CandidateVote[VP.candidates[i]] */\n      0x00\n        /* \"src/voting.sol\":4761:4763  VP */\n      dup3\n        /* \"src/voting.sol\":4761:4774  VP.candidates */\n      0x02\n      add\n        /* \"src/voting.sol\":4775:4776  i */\n      dup6\n        /* \"src/voting.sol\":4761:4777  VP.candidates[i] */\n      dup2\n      sload\n      dup2\n      lt\n      tag_182\n      jumpi\n      tag_183\n      tag_108\n      jump\t// in\n    tag_183:\n    tag_182:\n      swap1\n      0x00\n      mstore\n      keccak256(0x00, 0x20)\n      add\n      0x00\n      swap1\n      sload\n      swap1\n      0x0100\n      exp\n      swap1\n      div\n      0xffffffffffffffffffffffffffffffffffffffff\n      and\n        /* \"src/voting.sol\":4744:4778  VP.CandidateVote[VP.candidates[i]] */\n      0xffffffffffffffffffffffffffffffffffffffff\n      and\n      0xffffffffffffffffffffffffffffffffffffffff\n      and\n      dup2\n      mstore\n      0x20\n      add\n      swap1\n      dup2\n      mstore\n      0x20\n      add\n      0x00\n      keccak256\n      sload\n        /* \"src/voting.sol\":4738:4778  val = VP.CandidateVote[VP.candidates[i]] */\n      swap2\n      pop\n        /* \"src/voting.sol\":4683:4782  {... */\n      pop\n        /* \"src/voting.sol\":4612:4782  function getPosition( uint _id, uint i) internal view returns(uint val){... */\n      swap3\n      swap2\n      pop\n      pop\n      jump\t// out\n        /* \"src/voting.sol\":5414:5996  function getSigner(bytes32 _hash, bytes memory _signature) internal pure returns (address){... */\n    tag_133:\n        /* \"src/voting.sol\":5496:5503  address */\n      0x00\n        /* \"src/voting.sol\":5510:5519  bytes32 r */\n      dup1\n        /* \"src/voting.sol\":5525:5534  bytes32 s */\n      0x00\n        /* \"src/voting.sol\":5540:5547  uint8 v */\n      dup1\n        /* \"src/voting.sol\":5578:5580  65 */\n      0x41\n        /* \"src/voting.sol\":5557:5567  _signature */\n      dup6\n        /* \"src/voting.sol\":5557:5574  _signature.length */\n      mload\n        /* \"src/voting.sol\":5557:5580  _signature.length != 65 */\n      eq\n        /* \"src/voting.sol\":5553:5614  if (_signature.length != 65) {... */\n      tag_186\n      jumpi\n        /* \"src/voting.sol\":5605:5606  0 */\n      0x00\n        /* \"src/voting.sol\":5590:5607  return address(0) */\n      swap4\n      pop\n      pop\n      pop\n      pop\n      jump(tag_185)\n        /* \"src/voting.sol\":5553:5614  if (_signature.length != 65) {... */\n    tag_186:\n        /* \"src/voting.sol\":5663:5665  32 */\n      0x20\n        /* \"src/voting.sol\":5651:5661  _signature */\n      dup6\n        /* \"src/voting.sol\":5647:5666  add(_signature, 32) */\n      add\n        /* \"src/voting.sol\":5641:5667  mload(add(_signature, 32)) */\n      mload\n        /* \"src/voting.sol\":5636:5667  r := mload(add(_signature, 32)) */\n      swap3\n      pop\n        /* \"src/voting.sol\":5701:5703  64 */\n      0x40\n        /* \"src/voting.sol\":5689:5699  _signature */\n      dup6\n        /* \"src/voting.sol\":5685:5704  add(_signature, 64) */\n      add\n        /* \"src/voting.sol\":5679:5705  mload(add(_signature, 64)) */\n      mload\n        /* \"src/voting.sol\":5674:5705  s := mload(add(_signature, 64)) */\n      swap2\n      pop\n        /* \"src/voting.sol\":5747:5749  96 */\n      0x60\n        /* \"src/voting.sol\":5735:5745  _signature */\n      dup6\n        /* \"src/voting.sol\":5731:5750  add(_signature, 96) */\n      add\n        /* \"src/voting.sol\":5725:5751  mload(add(_signature, 96)) */\n      mload\n        /* \"src/voting.sol\":5722:5723  0 */\n      0x00\n        /* \"src/voting.sol\":5717:5752  byte(0, mload(add(_signature, 96))) */\n      byte\n        /* \"src/voting.sol\":5712:5752  v := byte(0, mload(add(_signature, 96))) */\n      swap1\n      pop\n        /* \"src/voting.sol\":5771:5773  27 */\n      0x1b\n        /* \"src/voting.sol\":5767:5768  v */\n      dup2\n        /* \"src/voting.sol\":5767:5773  v < 27 */\n      0xff\n      and\n      lt\n        /* \"src/voting.sol\":5763:5797  if (v < 27) {... */\n      iszero\n      tag_187\n      jumpi\n        /* \"src/voting.sol\":5788:5790  27 */\n      0x1b\n        /* \"src/voting.sol\":5783:5790  v += 27 */\n      dup2\n      tag_188\n      swap2\n      swap1\n      tag_189\n      jump\t// in\n    tag_188:\n      swap1\n      pop\n        /* \"src/voting.sol\":5763:5797  if (v < 27) {... */\n    tag_187:\n        /* \"src/voting.sol\":5811:5813  27 */\n      0x1b\n        /* \"src/voting.sol\":5806:5807  v */\n      dup2\n        /* \"src/voting.sol\":5806:5813  v != 27 */\n      0xff\n      and\n      eq\n      iszero\n        /* \"src/voting.sol\":5806:5824  v != 27 && v != 28 */\n      dup1\n      iszero\n      tag_190\n      jumpi\n      pop\n        /* \"src/voting.sol\":5822:5824  28 */\n      0x1c\n        /* \"src/voting.sol\":5817:5818  v */\n      dup2\n        /* \"src/voting.sol\":5817:5824  v != 28 */\n      0xff\n      and\n      eq\n      iszero\n        /* \"src/voting.sol\":5806:5824  v != 27 && v != 28 */\n    tag_190:\n        /* \"src/voting.sol\":5802:5992  if (v != 27 && v != 28) {... */\n      iszero\n      tag_191\n      jumpi\n        /* \"src/voting.sol\":5849:5850  0 */\n      0x00\n        /* \"src/voting.sol\":5834:5851  return address(0) */\n      swap4\n      pop\n      pop\n      pop\n      pop\n      jump(tag_185)\n        /* \"src/voting.sol\":5802:5992  if (v != 27 && v != 28) {... */\n    tag_191:\n        /* \"src/voting.sol\":5879:5985  ecrecover(keccak256(... */\n      0x01\n        /* \"src/voting.sol\":5961:5966  _hash */\n      dup7\n        /* \"src/voting.sol\":5908:5967  abi.encodePacked(\"\\x19Ethereum Signed Message:\\n32\", _hash) */\n      add(0x20, mload(0x40))\n      tag_193\n      swap2\n      swap1\n      tag_194\n      jump\t// in\n    tag_193:\n      mload(0x40)\n      0x20\n      dup2\n      dup4\n      sub\n      sub\n      dup2\n      mstore\n      swap1\n      0x40\n      mstore\n        /* \"src/voting.sol\":5889:5975  keccak256(... */\n      dup1\n      mload\n      swap1\n      0x20\n      add\n      keccak256\n        /* \"src/voting.sol\":5977:5978  v */\n      dup3\n        /* \"src/voting.sol\":5980:5981  r */\n      dup6\n        /* \"src/voting.sol\":5983:5984  s */\n      dup6\n        /* \"src/voting.sol\":5879:5985  ecrecover(keccak256(... */\n      mload(0x40)\n      0x00\n      dup2\n      mstore\n      0x20\n      add\n      0x40\n      mstore\n      mload(0x40)\n      tag_195\n      swap5\n      swap4\n      swap3\n      swap2\n      swap1\n      tag_196\n      jump\t// in\n    tag_195:\n      0x20\n      mload(0x40)\n      0x20\n      dup2\n      sub\n      swap1\n      dup1\n      dup5\n      sub\n      swap1\n      dup6\n      gas\n      staticcall\n      iszero\n      dup1\n      iszero\n      tag_198\n      jumpi\n      returndatasize\n      0x00\n      dup1\n      returndatacopy\n      revert(0x00, returndatasize)\n    tag_198:\n      pop\n      pop\n      pop\n      mload(sub(mload(0x40), 0x20))\n        /* \"src/voting.sol\":5872:5985  return ecrecover(keccak256(... */\n      swap4\n      pop\n      pop\n      pop\n      pop\n        /* \"src/voting.sol\":5414:5996  function getSigner(bytes32 _hash, bytes memory _signature) internal pure returns (address){... */\n    tag_185:\n      swap3\n      swap2\n      pop\n      pop\n      jump\t// out\n        /* \"src/voting.sol\":3239:3471  function countVote(address Cand, uint _id, address signer) internal returns(uint){... */\n    tag_141:\n        /* \"src/voting.sol\":3315:3319  uint */\n      0x00\n        /* \"src/voting.sol\":3327:3348  VotingPoll storage VP */\n      dup1\n        /* \"src/voting.sol\":3351:3361  votingPoll */\n      0x02\n        /* \"src/voting.sol\":3351:3366  votingPoll[_id] */\n      0x00\n        /* \"src/voting.sol\":3362:3365  _id */\n      dup6\n        /* \"src/voting.sol\":3351:3366  votingPoll[_id] */\n      dup2\n      mstore\n      0x20\n      add\n      swap1\n      dup2\n      mstore\n      0x20\n      add\n      0x00\n      keccak256\n        /* \"src/voting.sol\":3327:3366  VotingPoll storage VP = votingPoll[_id] */\n      swap1\n      pop\n        /* \"src/voting.sol\":3395:3399  true */\n      0x01\n        /* \"src/voting.sol\":3373:3375  VP */\n      dup2\n        /* \"src/voting.sol\":3373:3384  VP.hasVoted */\n      0x05\n      add\n        /* \"src/voting.sol\":3373:3392  VP.hasVoted[signer] */\n      0x00\n        /* \"src/voting.sol\":3385:3391  signer */\n      dup6\n        /* \"src/voting.sol\":3373:3392  VP.hasVoted[signer] */\n      0xffffffffffffffffffffffffffffffffffffffff\n      and\n      0xffffffffffffffffffffffffffffffffffffffff\n      and\n      dup2\n      mstore\n      0x20\n      add\n      swap1\n      dup2\n      mstore\n      0x20\n      add\n      0x00\n      keccak256\n      0x00\n        /* \"src/voting.sol\":3373:3399  VP.hasVoted[signer] = true */\n      0x0100\n      exp\n      dup2\n      sload\n      dup2\n      0xff\n      mul\n      not\n      and\n      swap1\n      dup4\n      iszero\n      iszero\n      mul\n      or\n      swap1\n      sstore\n      pop\n        /* \"src/voting.sol\":3406:3408  VP */\n      dup1\n        /* \"src/voting.sol\":3406:3422  VP.CandidateVote */\n      0x06\n      add\n        /* \"src/voting.sol\":3406:3428  VP.CandidateVote[Cand] */\n      0x00\n        /* \"src/voting.sol\":3423:3427  Cand */\n      dup7\n        /* \"src/voting.sol\":3406:3428  VP.CandidateVote[Cand] */\n      0xffffffffffffffffffffffffffffffffffffffff\n      and\n      0xffffffffffffffffffffffffffffffffffffffff\n      and\n      dup2\n      mstore\n      0x20\n      add\n      swap1\n      dup2\n      mstore\n      0x20\n      add\n      0x00\n      keccak256\n      0x00\n        /* \"src/voting.sol\":3406:3430  VP.CandidateVote[Cand]++ */\n      dup2\n      sload\n      dup1\n      swap3\n      swap2\n      swap1\n      tag_200\n      swap1\n      tag_116\n      jump\t// in\n    tag_200:\n      swap2\n      swap1\n      pop\n      sstore\n      pop\n        /* \"src/voting.sol\":3444:3446  VP */\n      dup1\n        /* \"src/voting.sol\":3444:3460  VP.CandidateVote */\n      0x06\n      add\n        /* \"src/voting.sol\":3444:3466  VP.CandidateVote[Cand] */\n      0x00\n        /* \"src/voting.sol\":3461:3465  Cand */\n      dup7\n        /* \"src/voting.sol\":3444:3466  VP.CandidateVote[Cand] */\n      0xffffffffffffffffffffffffffffffffffffffff\n      and\n      0xffffffffffffffffffffffffffffffffffffffff\n      and\n      dup2\n      mstore\n      0x20\n      add\n      swap1\n      dup2\n      mstore\n      0x20\n      add\n      0x00\n      keccak256\n      sload\n        /* \"src/voting.sol\":3437:3466  return VP.CandidateVote[Cand] */\n      swap2\n      pop\n      pop\n        /* \"src/voting.sol\":3239:3471  function countVote(address Cand, uint _id, address signer) internal returns(uint){... */\n      swap4\n      swap3\n      pop\n      pop\n      pop\n      jump\t// out\n    tag_156:\n      dup3\n      dup1\n      sload\n      tag_201\n      swap1\n      tag_149\n      jump\t// in\n    tag_201:\n      swap1\n      0x00\n      mstore\n      keccak256(0x00, 0x20)\n      swap1\n      0x1f\n      add\n      0x20\n      swap1\n      div\n      dup2\n      add\n      swap3\n      dup3\n      tag_203\n      jumpi\n      0x00\n      dup6\n      sstore\n      jump(tag_202)\n    tag_203:\n      dup3\n      0x1f\n      lt\n      tag_204\n      jumpi\n      dup1\n      mload\n      not(0xff)\n      and\n      dup4\n      dup1\n      add\n      or\n      dup6\n      sstore\n      jump(tag_202)\n    tag_204:\n      dup3\n      dup1\n      add\n      0x01\n      add\n      dup6\n      sstore\n      dup3\n      iszero\n      tag_202\n      jumpi\n      swap2\n      dup3\n      add\n    tag_205:\n      dup3\n      dup2\n      gt\n      iszero\n      tag_206\n      jumpi\n      dup3\n      mload\n      dup3\n      sstore\n      swap2\n      0x20\n      add\n      swap2\n      swap1\n      0x01\n      add\n      swap1\n      jump(tag_205)\n    tag_206:\n    tag_202:\n      pop\n      swap1\n      pop\n      tag_207\n      swap2\n      swap1\n      tag_208\n      jump\t// in\n    tag_207:\n      pop\n      swap1\n      jump\t// out\n    tag_167:\n      mload(0x40)\n      dup1\n      0xc0\n      add\n      0x40\n      mstore\n      dup1\n      0x60\n      dup2\n      mstore\n      0x20\n      add\n      and(0xffffffffffffffffffffffffffffffffffffffff, 0x00)\n      dup2\n      mstore\n      0x20\n      add\n      0x60\n      dup2\n      mstore\n      0x20\n      add\n      and(0xffffffff, 0x00)\n      dup2\n      mstore\n      0x20\n      add\n      and(0xffffffff, 0x00)\n      dup2\n      mstore\n      0x20\n      add\n      iszero(iszero(0x00))\n      dup2\n      mstore\n      pop\n      swap1\n      jump\t// out\n    tag_208:\n    tag_209:\n      dup1\n      dup3\n      gt\n      iszero\n      tag_210\n      jumpi\n      0x00\n      dup2\n      0x00\n      swap1\n      sstore\n      pop\n      0x01\n      add\n      jump(tag_209)\n    tag_210:\n      pop\n      swap1\n      jump\t// out\n        /* \"#utility.yul\":7:82   */\n    tag_211:\n        /* \"#utility.yul\":40:46   */\n      0x00\n        /* \"#utility.yul\":73:75   */\n      0x40\n        /* \"#utility.yul\":67:76   */\n      mload\n        /* \"#utility.yul\":57:76   */\n      swap1\n      pop\n        /* \"#utility.yul\":7:82   */\n      swap1\n      jump\t// out\n        /* \"#utility.yul\":88:205   */\n    tag_212:\n        /* \"#utility.yul\":197:198   */\n      0x00\n        /* \"#utility.yul\":194:195   */\n      dup1\n        /* \"#utility.yul\":187:199   */\n      revert\n        /* \"#utility.yul\":211:328   */\n    tag_213:\n        /* \"#utility.yul\":320:321   */\n      0x00\n        /* \"#utility.yul\":317:318   */\n      dup1\n        /* \"#utility.yul\":310:322   */\n      revert\n        /* \"#utility.yul\":334:460   */\n    tag_214:\n        /* \"#utility.yul\":371:378   */\n      0x00\n        /* \"#utility.yul\":411:453   */\n      0xffffffffffffffffffffffffffffffffffffffff\n        /* \"#utility.yul\":404:409   */\n      dup3\n        /* \"#utility.yul\":400:454   */\n      and\n        /* \"#utility.yul\":389:454   */\n      swap1\n      pop\n        /* \"#utility.yul\":334:460   */\n      swap2\n      swap1\n      pop\n      jump\t// out\n        /* \"#utility.yul\":466:562   */\n    tag_215:\n        /* \"#utility.yul\":503:510   */\n      0x00\n        /* \"#utility.yul\":532:556   */\n      tag_312\n        /* \"#utility.yul\":550:555   */\n      dup3\n        /* \"#utility.yul\":532:556   */\n      tag_214\n      jump\t// in\n    tag_312:\n        /* \"#utility.yul\":521:556   */\n      swap1\n      pop\n        /* \"#utility.yul\":466:562   */\n      swap2\n      swap1\n      pop\n      jump\t// out\n        /* \"#utility.yul\":568:690   */\n    tag_216:\n        /* \"#utility.yul\":641:665   */\n      tag_314\n        /* \"#utility.yul\":659:664   */\n      dup2\n        /* \"#utility.yul\":641:665   */\n      tag_215\n      jump\t// in\n    tag_314:\n        /* \"#utility.yul\":634:639   */\n      dup2\n        /* \"#utility.yul\":631:666   */\n      eq\n        /* \"#utility.yul\":621:684   */\n      tag_315\n      jumpi\n        /* \"#utility.yul\":680:681   */\n      0x00\n        /* \"#utility.yul\":677:678   */\n      dup1\n        /* \"#utility.yul\":670:682   */\n      revert\n        /* \"#utility.yul\":621:684   */\n    tag_315:\n        /* \"#utility.yul\":568:690   */\n      pop\n      jump\t// out\n        /* \"#utility.yul\":696:835   */\n    tag_217:\n        /* \"#utility.yul\":742:747   */\n      0x00\n        /* \"#utility.yul\":780:786   */\n      dup2\n        /* \"#utility.yul\":767:787   */\n      calldataload\n        /* \"#utility.yul\":758:787   */\n      swap1\n      pop\n        /* \"#utility.yul\":796:829   */\n      tag_317\n        /* \"#utility.yul\":823:828   */\n      dup2\n        /* \"#utility.yul\":796:829   */\n      tag_216\n      jump\t// in\n    tag_317:\n        /* \"#utility.yul\":696:835   */\n      swap3\n      swap2\n      pop\n      pop\n      jump\t// out\n        /* \"#utility.yul\":841:918   */\n    tag_218:\n        /* \"#utility.yul\":878:885   */\n      0x00\n        /* \"#utility.yul\":907:912   */\n      dup2\n        /* \"#utility.yul\":896:912   */\n      swap1\n      pop\n        /* \"#utility.yul\":841:918   */\n      swap2\n      swap1\n      pop\n      jump\t// out\n        /* \"#utility.yul\":924:1046   */\n    tag_219:\n        /* \"#utility.yul\":997:1021   */\n      tag_320\n        /* \"#utility.yul\":1015:1020   */\n      dup2\n        /* \"#utility.yul\":997:1021   */\n      tag_218\n      jump\t// in\n    tag_320:\n        /* \"#utility.yul\":990:995   */\n      dup2\n        /* \"#utility.yul\":987:1022   */\n      eq\n        /* \"#utility.yul\":977:1040   */\n      tag_321\n      jumpi\n        /* \"#utility.yul\":1036:1037   */\n      0x00\n        /* \"#utility.yul\":1033:1034   */\n      dup1\n        /* \"#utility.yul\":1026:1038   */\n      revert\n        /* \"#utility.yul\":977:1040   */\n    tag_321:\n        /* \"#utility.yul\":924:1046   */\n      pop\n      jump\t// out\n        /* \"#utility.yul\":1052:1191   */\n    tag_220:\n        /* \"#utility.yul\":1098:1103   */\n      0x00\n        /* \"#utility.yul\":1136:1142   */\n      dup2\n        /* \"#utility.yul\":1123:1143   */\n      calldataload\n        /* \"#utility.yul\":1114:1143   */\n      swap1\n      pop\n        /* \"#utility.yul\":1152:1185   */\n      tag_323\n        /* \"#utility.yul\":1179:1184   */\n      dup2\n        /* \"#utility.yul\":1152:1185   */\n      tag_219\n      jump\t// in\n    tag_323:\n        /* \"#utility.yul\":1052:1191   */\n      swap3\n      swap2\n      pop\n      pop\n      jump\t// out\n        /* \"#utility.yul\":1197:1671   */\n    tag_18:\n        /* \"#utility.yul\":1265:1271   */\n      0x00\n        /* \"#utility.yul\":1273:1279   */\n      dup1\n        /* \"#utility.yul\":1322:1324   */\n      0x40\n        /* \"#utility.yul\":1310:1319   */\n      dup4\n        /* \"#utility.yul\":1301:1308   */\n      dup6\n        /* \"#utility.yul\":1297:1320   */\n      sub\n        /* \"#utility.yul\":1293:1325   */\n      slt\n        /* \"#utility.yul\":1290:1409   */\n      iszero\n      tag_325\n      jumpi\n        /* \"#utility.yul\":1328:1407   */\n      tag_326\n      tag_212\n      jump\t// in\n    tag_326:\n        /* \"#utility.yul\":1290:1409   */\n    tag_325:\n        /* \"#utility.yul\":1448:1449   */\n      0x00\n        /* \"#utility.yul\":1473:1526   */\n      tag_327\n        /* \"#utility.yul\":1518:1525   */\n      dup6\n        /* \"#utility.yul\":1509:1515   */\n      dup3\n        /* \"#utility.yul\":1498:1507   */\n      dup7\n        /* \"#utility.yul\":1494:1516   */\n      add\n        /* \"#utility.yul\":1473:1526   */\n      tag_217\n      jump\t// in\n    tag_327:\n        /* \"#utility.yul\":1463:1526   */\n      swap3\n      pop\n        /* \"#utility.yul\":1419:1536   */\n      pop\n        /* \"#utility.yul\":1575:1577   */\n      0x20\n        /* \"#utility.yul\":1601:1654   */\n      tag_328\n        /* \"#utility.yul\":1646:1653   */\n      dup6\n        /* \"#utility.yul\":1637:1643   */\n      dup3\n        /* \"#utility.yul\":1626:1635   */\n      dup7\n        /* \"#utility.yul\":1622:1644   */\n      add\n        /* \"#utility.yul\":1601:1654   */\n      tag_220\n      jump\t// in\n    tag_328:\n        /* \"#utility.yul\":1591:1654   */\n      swap2\n      pop\n        /* \"#utility.yul\":1546:1664   */\n      pop\n        /* \"#utility.yul\":1197:1671   */\n      swap3\n      pop\n      swap3\n      swap1\n      pop\n      jump\t// out\n        /* \"#utility.yul\":1677:2006   */\n    tag_22:\n        /* \"#utility.yul\":1736:1742   */\n      0x00\n        /* \"#utility.yul\":1785:1787   */\n      0x20\n        /* \"#utility.yul\":1773:1782   */\n      dup3\n        /* \"#utility.yul\":1764:1771   */\n      dup5\n        /* \"#utility.yul\":1760:1783   */\n      sub\n        /* \"#utility.yul\":1756:1788   */\n      slt\n        /* \"#utility.yul\":1753:1872   */\n      iszero\n      tag_330\n      jumpi\n        /* \"#utility.yul\":1791:1870   */\n      tag_331\n      tag_212\n      jump\t// in\n    tag_331:\n        /* \"#utility.yul\":1753:1872   */\n    tag_330:\n        /* \"#utility.yul\":1911:1912   */\n      0x00\n        /* \"#utility.yul\":1936:1989   */\n      tag_332\n        /* \"#utility.yul\":1981:1988   */\n      dup5\n        /* \"#utility.yul\":1972:1978   */\n      dup3\n        /* \"#utility.yul\":1961:1970   */\n      dup6\n        /* \"#utility.yul\":1957:1979   */\n      add\n        /* \"#utility.yul\":1936:1989   */\n      tag_220\n      jump\t// in\n    tag_332:\n        /* \"#utility.yul\":1926:1989   */\n      swap2\n      pop\n        /* \"#utility.yul\":1882:1999   */\n      pop\n        /* \"#utility.yul\":1677:2006   */\n      swap3\n      swap2\n      pop\n      pop\n      jump\t// out\n        /* \"#utility.yul\":2012:2130   */\n    tag_221:\n        /* \"#utility.yul\":2099:2123   */\n      tag_334\n        /* \"#utility.yul\":2117:2122   */\n      dup2\n        /* \"#utility.yul\":2099:2123   */\n      tag_218\n      jump\t// in\n    tag_334:\n        /* \"#utility.yul\":2094:2097   */\n      dup3\n        /* \"#utility.yul\":2087:2124   */\n      mstore\n        /* \"#utility.yul\":2012:2130   */\n      pop\n      pop\n      jump\t// out\n        /* \"#utility.yul\":2136:2358   */\n    tag_25:\n        /* \"#utility.yul\":2229:2233   */\n      0x00\n        /* \"#utility.yul\":2267:2269   */\n      0x20\n        /* \"#utility.yul\":2256:2265   */\n      dup3\n        /* \"#utility.yul\":2252:2270   */\n      add\n        /* \"#utility.yul\":2244:2270   */\n      swap1\n      pop\n        /* \"#utility.yul\":2280:2351   */\n      tag_336\n        /* \"#utility.yul\":2348:2349   */\n      0x00\n        /* \"#utility.yul\":2337:2346   */\n      dup4\n        /* \"#utility.yul\":2333:2350   */\n      add\n        /* \"#utility.yul\":2324:2330   */\n      dup5\n        /* \"#utility.yul\":2280:2351   */\n      tag_221\n      jump\t// in\n    tag_336:\n        /* \"#utility.yul\":2136:2358   */\n      swap3\n      swap2\n      pop\n      pop\n      jump\t// out\n        /* \"#utility.yul\":2364:2693   */\n    tag_28:\n        /* \"#utility.yul\":2423:2429   */\n      0x00\n        /* \"#utility.yul\":2472:2474   */\n      0x20\n        /* \"#utility.yul\":2460:2469   */\n      dup3\n        /* \"#utility.yul\":2451:2458   */\n      dup5\n        /* \"#utility.yul\":2447:2470   */\n      sub\n        /* \"#utility.yul\":2443:2475   */\n      slt\n        /* \"#utility.yul\":2440:2559   */\n      iszero\n      tag_338\n      jumpi\n        /* \"#utility.yul\":2478:2557   */\n      tag_339\n      tag_212\n      jump\t// in\n    tag_339:\n        /* \"#utility.yul\":2440:2559   */\n    tag_338:\n        /* \"#utility.yul\":2598:2599   */\n      0x00\n        /* \"#utility.yul\":2623:2676   */\n      tag_340\n        /* \"#utility.yul\":2668:2675   */\n      dup5\n        /* \"#utility.yul\":2659:2665   */\n      dup3\n        /* \"#utility.yul\":2648:2657   */\n      dup6\n        /* \"#utility.yul\":2644:2666   */\n      add\n        /* \"#utility.yul\":2623:2676   */\n      tag_217\n      jump\t// in\n    tag_340:\n        /* \"#utility.yul\":2613:2676   */\n      swap2\n      pop\n        /* \"#utility.yul\":2569:2686   */\n      pop\n        /* \"#utility.yul\":2364:2693   */\n      swap3\n      swap2\n      pop\n      pop\n      jump\t// out\n        /* \"#utility.yul\":2699:2813   */\n    tag_222:\n        /* \"#utility.yul\":2766:2772   */\n      0x00\n        /* \"#utility.yul\":2800:2805   */\n      dup2\n        /* \"#utility.yul\":2794:2806   */\n      mload\n        /* \"#utility.yul\":2784:2806   */\n      swap1\n      pop\n        /* \"#utility.yul\":2699:2813   */\n      swap2\n      swap1\n      pop\n      jump\t// out\n        /* \"#utility.yul\":2819:3003   */\n    tag_223:\n        /* \"#utility.yul\":2918:2929   */\n      0x00\n        /* \"#utility.yul\":2952:2958   */\n      dup3\n        /* \"#utility.yul\":2947:2950   */\n      dup3\n        /* \"#utility.yul\":2940:2959   */\n      mstore\n        /* \"#utility.yul\":2992:2996   */\n      0x20\n        /* \"#utility.yul\":2987:2990   */\n      dup3\n        /* \"#utility.yul\":2983:2997   */\n      add\n        /* \"#utility.yul\":2968:2997   */\n      swap1\n      pop\n        /* \"#utility.yul\":2819:3003   */\n      swap3\n      swap2\n      pop\n      pop\n      jump\t// out\n        /* \"#utility.yul\":3009:3141   */\n    tag_224:\n        /* \"#utility.yul\":3076:3080   */\n      0x00\n        /* \"#utility.yul\":3099:3102   */\n      dup2\n        /* \"#utility.yul\":3091:3102   */\n      swap1\n      pop\n        /* \"#utility.yul\":3129:3133   */\n      0x20\n        /* \"#utility.yul\":3124:3127   */\n      dup3\n        /* \"#utility.yul\":3120:3134   */\n      add\n        /* \"#utility.yul\":3112:3134   */\n      swap1\n      pop\n        /* \"#utility.yul\":3009:3141   */\n      swap2\n      swap1\n      pop\n      jump\t// out\n        /* \"#utility.yul\":3147:3255   */\n    tag_225:\n        /* \"#utility.yul\":3224:3248   */\n      tag_345\n        /* \"#utility.yul\":3242:3247   */\n      dup2\n        /* \"#utility.yul\":3224:3248   */\n      tag_215\n      jump\t// in\n    tag_345:\n        /* \"#utility.yul\":3219:3222   */\n      dup3\n        /* \"#utility.yul\":3212:3249   */\n      mstore\n        /* \"#utility.yul\":3147:3255   */\n      pop\n      pop\n      jump\t// out\n        /* \"#utility.yul\":3261:3440   */\n    tag_226:\n        /* \"#utility.yul\":3330:3340   */\n      0x00\n        /* \"#utility.yul\":3351:3397   */\n      tag_347\n        /* \"#utility.yul\":3393:3396   */\n      dup4\n        /* \"#utility.yul\":3385:3391   */\n      dup4\n        /* \"#utility.yul\":3351:3397   */\n      tag_225\n      jump\t// in\n    tag_347:\n        /* \"#utility.yul\":3429:3433   */\n      0x20\n        /* \"#utility.yul\":3424:3427   */\n      dup4\n        /* \"#utility.yul\":3420:3434   */\n      add\n        /* \"#utility.yul\":3406:3434   */\n      swap1\n      pop\n        /* \"#utility.yul\":3261:3440   */\n      swap3\n      swap2\n      pop\n      pop\n      jump\t// out\n        /* \"#utility.yul\":3446:3559   */\n    tag_227:\n        /* \"#utility.yul\":3516:3520   */\n      0x00\n        /* \"#utility.yul\":3548:3552   */\n      0x20\n        /* \"#utility.yul\":3543:3546   */\n      dup3\n        /* \"#utility.yul\":3539:3553   */\n      add\n        /* \"#utility.yul\":3531:3553   */\n      swap1\n      pop\n        /* \"#utility.yul\":3446:3559   */\n      swap2\n      swap1\n      pop\n      jump\t// out\n        /* \"#utility.yul\":3595:4327   */\n    tag_228:\n        /* \"#utility.yul\":3714:3717   */\n      0x00\n        /* \"#utility.yul\":3743:3797   */\n      tag_350\n        /* \"#utility.yul\":3791:3796   */\n      dup3\n        /* \"#utility.yul\":3743:3797   */\n      tag_222\n      jump\t// in\n    tag_350:\n        /* \"#utility.yul\":3813:3899   */\n      tag_351\n        /* \"#utility.yul\":3892:3898   */\n      dup2\n        /* \"#utility.yul\":3887:3890   */\n      dup6\n        /* \"#utility.yul\":3813:3899   */\n      tag_223\n      jump\t// in\n    tag_351:\n        /* \"#utility.yul\":3806:3899   */\n      swap4\n      pop\n        /* \"#utility.yul\":3923:3979   */\n      tag_352\n        /* \"#utility.yul\":3973:3978   */\n      dup4\n        /* \"#utility.yul\":3923:3979   */\n      tag_224\n      jump\t// in\n    tag_352:\n        /* \"#utility.yul\":4002:4009   */\n      dup1\n        /* \"#utility.yul\":4033:4034   */\n      0x00\n        /* \"#utility.yul\":4018:4302   */\n    tag_353:\n        /* \"#utility.yul\":4043:4049   */\n      dup4\n        /* \"#utility.yul\":4040:4041   */\n      dup2\n        /* \"#utility.yul\":4037:4050   */\n      lt\n        /* \"#utility.yul\":4018:4302   */\n      iszero\n      tag_355\n      jumpi\n        /* \"#utility.yul\":4119:4125   */\n      dup2\n        /* \"#utility.yul\":4113:4126   */\n      mload\n        /* \"#utility.yul\":4146:4209   */\n      tag_356\n        /* \"#utility.yul\":4205:4208   */\n      dup9\n        /* \"#utility.yul\":4190:4203   */\n      dup3\n        /* \"#utility.yul\":4146:4209   */\n      tag_226\n      jump\t// in\n    tag_356:\n        /* \"#utility.yul\":4139:4209   */\n      swap8\n      pop\n        /* \"#utility.yul\":4232:4292   */\n      tag_357\n        /* \"#utility.yul\":4285:4291   */\n      dup4\n        /* \"#utility.yul\":4232:4292   */\n      tag_227\n      jump\t// in\n    tag_357:\n        /* \"#utility.yul\":4222:4292   */\n      swap3\n      pop\n        /* \"#utility.yul\":4078:4302   */\n      pop\n        /* \"#utility.yul\":4065:4066   */\n      0x01\n        /* \"#utility.yul\":4062:4063   */\n      dup2\n        /* \"#utility.yul\":4058:4067   */\n      add\n        /* \"#utility.yul\":4053:4067   */\n      swap1\n      pop\n        /* \"#utility.yul\":4018:4302   */\n      jump(tag_353)\n    tag_355:\n        /* \"#utility.yul\":4022:4036   */\n      pop\n        /* \"#utility.yul\":4318:4321   */\n      dup6\n        /* \"#utility.yul\":4311:4321   */\n      swap4\n      pop\n        /* \"#utility.yul\":3719:4327   */\n      pop\n      pop\n      pop\n        /* \"#utility.yul\":3595:4327   */\n      swap3\n      swap2\n      pop\n      pop\n      jump\t// out\n        /* \"#utility.yul\":4333:4706   */\n    tag_35:\n        /* \"#utility.yul\":4476:4480   */\n      0x00\n        /* \"#utility.yul\":4514:4516   */\n      0x20\n        /* \"#utility.yul\":4503:4512   */\n      dup3\n        /* \"#utility.yul\":4499:4517   */\n      add\n        /* \"#utility.yul\":4491:4517   */\n      swap1\n      pop\n        /* \"#utility.yul\":4563:4572   */\n      dup2\n        /* \"#utility.yul\":4557:4561   */\n      dup2\n        /* \"#utility.yul\":4553:4573   */\n      sub\n        /* \"#utility.yul\":4549:4550   */\n      0x00\n        /* \"#utility.yul\":4538:4547   */\n      dup4\n        /* \"#utility.yul\":4534:4551   */\n      add\n        /* \"#utility.yul\":4527:4574   */\n      mstore\n        /* \"#utility.yul\":4591:4699   */\n      tag_359\n        /* \"#utility.yul\":4694:4698   */\n      dup2\n        /* \"#utility.yul\":4685:4691   */\n      dup5\n        /* \"#utility.yul\":4591:4699   */\n      tag_228\n      jump\t// in\n    tag_359:\n        /* \"#utility.yul\":4583:4699   */\n      swap1\n      pop\n        /* \"#utility.yul\":4333:4706   */\n      swap3\n      swap2\n      pop\n      pop\n      jump\t// out\n        /* \"#utility.yul\":4712:4826   */\n    tag_229:\n        /* \"#utility.yul\":4779:4785   */\n      0x00\n        /* \"#utility.yul\":4813:4818   */\n      dup2\n        /* \"#utility.yul\":4807:4819   */\n      mload\n        /* \"#utility.yul\":4797:4819   */\n      swap1\n      pop\n        /* \"#utility.yul\":4712:4826   */\n      swap2\n      swap1\n      pop\n      jump\t// out\n        /* \"#utility.yul\":4832:5016   */\n    tag_230:\n        /* \"#utility.yul\":4931:4942   */\n      0x00\n        /* \"#utility.yul\":4965:4971   */\n      dup3\n        /* \"#utility.yul\":4960:4963   */\n      dup3\n        /* \"#utility.yul\":4953:4972   */\n      mstore\n        /* \"#utility.yul\":5005:5009   */\n      0x20\n        /* \"#utility.yul\":5000:5003   */\n      dup3\n        /* \"#utility.yul\":4996:5010   */\n      add\n        /* \"#utility.yul\":4981:5010   */\n      swap1\n      pop\n        /* \"#utility.yul\":4832:5016   */\n      swap3\n      swap2\n      pop\n      pop\n      jump\t// out\n        /* \"#utility.yul\":5022:5154   */\n    tag_231:\n        /* \"#utility.yul\":5089:5093   */\n      0x00\n        /* \"#utility.yul\":5112:5115   */\n      dup2\n        /* \"#utility.yul\":5104:5115   */\n      swap1\n      pop\n        /* \"#utility.yul\":5142:5146   */\n      0x20\n        /* \"#utility.yul\":5137:5140   */\n      dup3\n        /* \"#utility.yul\":5133:5147   */\n      add\n        /* \"#utility.yul\":5125:5147   */\n      swap1\n      pop\n        /* \"#utility.yul\":5022:5154   */\n      swap2\n      swap1\n      pop\n      jump\t// out\n        /* \"#utility.yul\":5160:5268   */\n    tag_232:\n        /* \"#utility.yul\":5237:5261   */\n      tag_364\n        /* \"#utility.yul\":5255:5260   */\n      dup2\n        /* \"#utility.yul\":5237:5261   */\n      tag_218\n      jump\t// in\n    tag_364:\n        /* \"#utility.yul\":5232:5235   */\n      dup3\n        /* \"#utility.yul\":5225:5262   */\n      mstore\n        /* \"#utility.yul\":5160:5268   */\n      pop\n      pop\n      jump\t// out\n        /* \"#utility.yul\":5274:5453   */\n    tag_233:\n        /* \"#utility.yul\":5343:5353   */\n      0x00\n        /* \"#utility.yul\":5364:5410   */\n      tag_366\n        /* \"#utility.yul\":5406:5409   */\n      dup4\n        /* \"#utility.yul\":5398:5404   */\n      dup4\n        /* \"#utility.yul\":5364:5410   */\n      tag_232\n      jump\t// in\n    tag_366:\n        /* \"#utility.yul\":5442:5446   */\n      0x20\n        /* \"#utility.yul\":5437:5440   */\n      dup4\n        /* \"#utility.yul\":5433:5447   */\n      add\n        /* \"#utility.yul\":5419:5447   */\n      swap1\n      pop\n        /* \"#utility.yul\":5274:5453   */\n      swap3\n      swap2\n      pop\n      pop\n      jump\t// out\n        /* \"#utility.yul\":5459:5572   */\n    tag_234:\n        /* \"#utility.yul\":5529:5533   */\n      0x00\n        /* \"#utility.yul\":5561:5565   */\n      0x20\n        /* \"#utility.yul\":5556:5559   */\n      dup3\n        /* \"#utility.yul\":5552:5566   */\n      add\n        /* \"#utility.yul\":5544:5566   */\n      swap1\n      pop\n        /* \"#utility.yul\":5459:5572   */\n      swap2\n      swap1\n      pop\n      jump\t// out\n        /* \"#utility.yul\":5608:6340   */\n    tag_235:\n        /* \"#utility.yul\":5727:5730   */\n      0x00\n        /* \"#utility.yul\":5756:5810   */\n      tag_369\n        /* \"#utility.yul\":5804:5809   */\n      dup3\n        /* \"#utility.yul\":5756:5810   */\n      tag_229\n      jump\t// in\n    tag_369:\n        /* \"#utility.yul\":5826:5912   */\n      tag_370\n        /* \"#utility.yul\":5905:5911   */\n      dup2\n        /* \"#utility.yul\":5900:5903   */\n      dup6\n        /* \"#utility.yul\":5826:5912   */\n      tag_230\n      jump\t// in\n    tag_370:\n        /* \"#utility.yul\":5819:5912   */\n      swap4\n      pop\n        /* \"#utility.yul\":5936:5992   */\n      tag_371\n        /* \"#utility.yul\":5986:5991   */\n      dup4\n        /* \"#utility.yul\":5936:5992   */\n      tag_231\n      jump\t// in\n    tag_371:\n        /* \"#utility.yul\":6015:6022   */\n      dup1\n        /* \"#utility.yul\":6046:6047   */\n      0x00\n        /* \"#utility.yul\":6031:6315   */\n    tag_372:\n        /* \"#utility.yul\":6056:6062   */\n      dup4\n        /* \"#utility.yul\":6053:6054   */\n      dup2\n        /* \"#utility.yul\":6050:6063   */\n      lt\n        /* \"#utility.yul\":6031:6315   */\n      iszero\n      tag_374\n      jumpi\n        /* \"#utility.yul\":6132:6138   */\n      dup2\n        /* \"#utility.yul\":6126:6139   */\n      mload\n        /* \"#utility.yul\":6159:6222   */\n      tag_375\n        /* \"#utility.yul\":6218:6221   */\n      dup9\n        /* \"#utility.yul\":6203:6216   */\n      dup3\n        /* \"#utility.yul\":6159:6222   */\n      tag_233\n      jump\t// in\n    tag_375:\n        /* \"#utility.yul\":6152:6222   */\n      swap8\n      pop\n        /* \"#utility.yul\":6245:6305   */\n      tag_376\n        /* \"#utility.yul\":6298:6304   */\n      dup4\n        /* \"#utility.yul\":6245:6305   */\n      tag_234\n      jump\t// in\n    tag_376:\n        /* \"#utility.yul\":6235:6305   */\n      swap3\n      pop\n        /* \"#utility.yul\":6091:6315   */\n      pop\n        /* \"#utility.yul\":6078:6079   */\n      0x01\n        /* \"#utility.yul\":6075:6076   */\n      dup2\n        /* \"#utility.yul\":6071:6080   */\n      add\n        /* \"#utility.yul\":6066:6080   */\n      swap1\n      pop\n        /* \"#utility.yul\":6031:6315   */\n      jump(tag_372)\n    tag_374:\n        /* \"#utility.yul\":6035:6049   */\n      pop\n        /* \"#utility.yul\":6331:6334   */\n      dup6\n        /* \"#utility.yul\":6324:6334   */\n      swap4\n      pop\n        /* \"#utility.yul\":5732:6340   */\n      pop\n      pop\n      pop\n        /* \"#utility.yul\":5608:6340   */\n      swap3\n      swap2\n      pop\n      pop\n      jump\t// out\n        /* \"#utility.yul\":6346:6464   */\n    tag_236:\n        /* \"#utility.yul\":6433:6457   */\n      tag_378\n        /* \"#utility.yul\":6451:6456   */\n      dup2\n        /* \"#utility.yul\":6433:6457   */\n      tag_215\n      jump\t// in\n    tag_378:\n        /* \"#utility.yul\":6428:6431   */\n      dup3\n        /* \"#utility.yul\":6421:6458   */\n      mstore\n        /* \"#utility.yul\":6346:6464   */\n      pop\n      pop\n      jump\t// out\n        /* \"#utility.yul\":6470:7063   */\n    tag_40:\n        /* \"#utility.yul\":6669:6673   */\n      0x00\n        /* \"#utility.yul\":6707:6709   */\n      0x60\n        /* \"#utility.yul\":6696:6705   */\n      dup3\n        /* \"#utility.yul\":6692:6710   */\n      add\n        /* \"#utility.yul\":6684:6710   */\n      swap1\n      pop\n        /* \"#utility.yul\":6756:6765   */\n      dup2\n        /* \"#utility.yul\":6750:6754   */\n      dup2\n        /* \"#utility.yul\":6746:6766   */\n      sub\n        /* \"#utility.yul\":6742:6743   */\n      0x00\n        /* \"#utility.yul\":6731:6740   */\n      dup4\n        /* \"#utility.yul\":6727:6744   */\n      add\n        /* \"#utility.yul\":6720:6767   */\n      mstore\n        /* \"#utility.yul\":6784:6892   */\n      tag_380\n        /* \"#utility.yul\":6887:6891   */\n      dup2\n        /* \"#utility.yul\":6878:6884   */\n      dup7\n        /* \"#utility.yul\":6784:6892   */\n      tag_235\n      jump\t// in\n    tag_380:\n        /* \"#utility.yul\":6776:6892   */\n      swap1\n      pop\n        /* \"#utility.yul\":6902:6974   */\n      tag_381\n        /* \"#utility.yul\":6970:6972   */\n      0x20\n        /* \"#utility.yul\":6959:6968   */\n      dup4\n        /* \"#utility.yul\":6955:6973   */\n      add\n        /* \"#utility.yul\":6946:6952   */\n      dup6\n        /* \"#utility.yul\":6902:6974   */\n      tag_236\n      jump\t// in\n    tag_381:\n        /* \"#utility.yul\":6984:7056   */\n      tag_382\n        /* \"#utility.yul\":7052:7054   */\n      0x40\n        /* \"#utility.yul\":7041:7050   */\n      dup4\n        /* \"#utility.yul\":7037:7055   */\n      add\n        /* \"#utility.yul\":7028:7034   */\n      dup5\n        /* \"#utility.yul\":6984:7056   */\n      tag_221\n      jump\t// in\n    tag_382:\n        /* \"#utility.yul\":6470:7063   */\n      swap5\n      swap4\n      pop\n      pop\n      pop\n      pop\n      jump\t// out\n        /* \"#utility.yul\":7069:7834   */\n    tag_47:\n        /* \"#utility.yul\":7155:7161   */\n      0x00\n        /* \"#utility.yul\":7163:7169   */\n      dup1\n        /* \"#utility.yul\":7171:7177   */\n      0x00\n        /* \"#utility.yul\":7179:7185   */\n      dup1\n        /* \"#utility.yul\":7228:7231   */\n      0x80\n        /* \"#utility.yul\":7216:7225   */\n      dup6\n        /* \"#utility.yul\":7207:7214   */\n      dup8\n        /* \"#utility.yul\":7203:7226   */\n      sub\n        /* \"#utility.yul\":7199:7232   */\n      slt\n        /* \"#utility.yul\":7196:7316   */\n      iszero\n      tag_384\n      jumpi\n        /* \"#utility.yul\":7235:7314   */\n      tag_385\n      tag_212\n      jump\t// in\n    tag_385:\n        /* \"#utility.yul\":7196:7316   */\n    tag_384:\n        /* \"#utility.yul\":7355:7356   */\n      0x00\n        /* \"#utility.yul\":7380:7433   */\n      tag_386\n        /* \"#utility.yul\":7425:7432   */\n      dup8\n        /* \"#utility.yul\":7416:7422   */\n      dup3\n        /* \"#utility.yul\":7405:7414   */\n      dup9\n        /* \"#utility.yul\":7401:7423   */\n      add\n        /* \"#utility.yul\":7380:7433   */\n      tag_217\n      jump\t// in\n    tag_386:\n        /* \"#utility.yul\":7370:7433   */\n      swap5\n      pop\n        /* \"#utility.yul\":7326:7443   */\n      pop\n        /* \"#utility.yul\":7482:7484   */\n      0x20\n        /* \"#utility.yul\":7508:7561   */\n      tag_387\n        /* \"#utility.yul\":7553:7560   */\n      dup8\n        /* \"#utility.yul\":7544:7550   */\n      dup3\n        /* \"#utility.yul\":7533:7542   */\n      dup9\n        /* \"#utility.yul\":7529:7551   */\n      add\n        /* \"#utility.yul\":7508:7561   */\n      tag_220\n      jump\t// in\n    tag_387:\n        /* \"#utility.yul\":7498:7561   */\n      swap4\n      pop\n        /* \"#utility.yul\":7453:7571   */\n      pop\n        /* \"#utility.yul\":7610:7612   */\n      0x40\n        /* \"#utility.yul\":7636:7689   */\n      tag_388\n        /* \"#utility.yul\":7681:7688   */\n      dup8\n        /* \"#utility.yul\":7672:7678   */\n      dup3\n        /* \"#utility.yul\":7661:7670   */\n      dup9\n        /* \"#utility.yul\":7657:7679   */\n      add\n        /* \"#utility.yul\":7636:7689   */\n      tag_220\n      jump\t// in\n    tag_388:\n        /* \"#utility.yul\":7626:7689   */\n      swap3\n      pop\n        /* \"#utility.yul\":7581:7699   */\n      pop\n        /* \"#utility.yul\":7738:7740   */\n      0x60\n        /* \"#utility.yul\":7764:7817   */\n      tag_389\n        /* \"#utility.yul\":7809:7816   */\n      dup8\n        /* \"#utility.yul\":7800:7806   */\n      dup3\n        /* \"#utility.yul\":7789:7798   */\n      dup9\n        /* \"#utility.yul\":7785:7807   */\n      add\n        /* \"#utility.yul\":7764:7817   */\n      tag_220\n      jump\t// in\n    tag_389:\n        /* \"#utility.yul\":7754:7817   */\n      swap2\n      pop\n        /* \"#utility.yul\":7709:7827   */\n      pop\n        /* \"#utility.yul\":7069:7834   */\n      swap3\n      swap6\n      swap2\n      swap5\n      pop\n      swap3\n      pop\n      jump\t// out\n        /* \"#utility.yul\":7840:7917   */\n    tag_237:\n        /* \"#utility.yul\":7877:7884   */\n      0x00\n        /* \"#utility.yul\":7906:7911   */\n      dup2\n        /* \"#utility.yul\":7895:7911   */\n      swap1\n      pop\n        /* \"#utility.yul\":7840:7917   */\n      swap2\n      swap1\n      pop\n      jump\t// out\n        /* \"#utility.yul\":7923:8041   */\n    tag_238:\n        /* \"#utility.yul\":8010:8034   */\n      tag_392\n        /* \"#utility.yul\":8028:8033   */\n      dup2\n        /* \"#utility.yul\":8010:8034   */\n      tag_237\n      jump\t// in\n    tag_392:\n        /* \"#utility.yul\":8005:8008   */\n      dup3\n        /* \"#utility.yul\":7998:8035   */\n      mstore\n        /* \"#utility.yul\":7923:8041   */\n      pop\n      pop\n      jump\t// out\n        /* \"#utility.yul\":8047:8269   */\n    tag_50:\n        /* \"#utility.yul\":8140:8144   */\n      0x00\n        /* \"#utility.yul\":8178:8180   */\n      0x20\n        /* \"#utility.yul\":8167:8176   */\n      dup3\n        /* \"#utility.yul\":8163:8181   */\n      add\n        /* \"#utility.yul\":8155:8181   */\n      swap1\n      pop\n        /* \"#utility.yul\":8191:8262   */\n      tag_394\n        /* \"#utility.yul\":8259:8260   */\n      0x00\n        /* \"#utility.yul\":8248:8257   */\n      dup4\n        /* \"#utility.yul\":8244:8261   */\n      add\n        /* \"#utility.yul\":8235:8241   */\n      dup5\n        /* \"#utility.yul\":8191:8262   */\n      tag_238\n      jump\t// in\n    tag_394:\n        /* \"#utility.yul\":8047:8269   */\n      swap3\n      swap2\n      pop\n      pop\n      jump\t// out\n        /* \"#utility.yul\":8275:8392   */\n    tag_239:\n        /* \"#utility.yul\":8384:8385   */\n      0x00\n        /* \"#utility.yul\":8381:8382   */\n      dup1\n        /* \"#utility.yul\":8374:8386   */\n      revert\n        /* \"#utility.yul\":8398:8515   */\n    tag_240:\n        /* \"#utility.yul\":8507:8508   */\n      0x00\n        /* \"#utility.yul\":8504:8505   */\n      dup1\n        /* \"#utility.yul\":8497:8509   */\n      revert\n        /* \"#utility.yul\":8521:8623   */\n    tag_241:\n        /* \"#utility.yul\":8562:8568   */\n      0x00\n        /* \"#utility.yul\":8613:8615   */\n      0x1f\n        /* \"#utility.yul\":8609:8616   */\n      not\n        /* \"#utility.yul\":8604:8606   */\n      0x1f\n        /* \"#utility.yul\":8597:8602   */\n      dup4\n        /* \"#utility.yul\":8593:8607   */\n      add\n        /* \"#utility.yul\":8589:8617   */\n      and\n        /* \"#utility.yul\":8579:8617   */\n      swap1\n      pop\n        /* \"#utility.yul\":8521:8623   */\n      swap2\n      swap1\n      pop\n      jump\t// out\n        /* \"#utility.yul\":8629:8809   */\n    tag_98:\n        /* \"#utility.yul\":8677:8754   */\n      0x4e487b7100000000000000000000000000000000000000000000000000000000\n        /* \"#utility.yul\":8674:8675   */\n      0x00\n        /* \"#utility.yul\":8667:8755   */\n      mstore\n        /* \"#utility.yul\":8774:8778   */\n      0x41\n        /* \"#utility.yul\":8771:8772   */\n      0x04\n        /* \"#utility.yul\":8764:8779   */\n      mstore\n        /* \"#utility.yul\":8798:8802   */\n      0x24\n        /* \"#utility.yul\":8795:8796   */\n      0x00\n        /* \"#utility.yul\":8788:8803   */\n      revert\n        /* \"#utility.yul\":8815:9096   */\n    tag_242:\n        /* \"#utility.yul\":8898:8925   */\n      tag_400\n        /* \"#utility.yul\":8920:8924   */\n      dup3\n        /* \"#utility.yul\":8898:8925   */\n      tag_241\n      jump\t// in\n    tag_400:\n        /* \"#utility.yul\":8890:8896   */\n      dup2\n        /* \"#utility.yul\":8886:8926   */\n      add\n        /* \"#utility.yul\":9028:9034   */\n      dup2\n        /* \"#utility.yul\":9016:9026   */\n      dup2\n        /* \"#utility.yul\":9013:9035   */\n      lt\n        /* \"#utility.yul\":8992:9010   */\n      0xffffffffffffffff\n        /* \"#utility.yul\":8980:8990   */\n      dup3\n        /* \"#utility.yul\":8977:9011   */\n      gt\n        /* \"#utility.yul\":8974:9036   */\n      or\n        /* \"#utility.yul\":8971:9059   */\n      iszero\n      tag_401\n      jumpi\n        /* \"#utility.yul\":9039:9057   */\n      tag_402\n      tag_98\n      jump\t// in\n    tag_402:\n        /* \"#utility.yul\":8971:9059   */\n    tag_401:\n        /* \"#utility.yul\":9079:9089   */\n      dup1\n        /* \"#utility.yul\":9075:9077   */\n      0x40\n        /* \"#utility.yul\":9068:9090   */\n      mstore\n        /* \"#utility.yul\":8858:9096   */\n      pop\n        /* \"#utility.yul\":8815:9096   */\n      pop\n      pop\n      jump\t// out\n        /* \"#utility.yul\":9102:9231   */\n    tag_243:\n        /* \"#utility.yul\":9136:9142   */\n      0x00\n        /* \"#utility.yul\":9163:9183   */\n      tag_404\n      tag_211\n      jump\t// in\n    tag_404:\n        /* \"#utility.yul\":9153:9183   */\n      swap1\n      pop\n        /* \"#utility.yul\":9192:9225   */\n      tag_405\n        /* \"#utility.yul\":9220:9224   */\n      dup3\n        /* \"#utility.yul\":9212:9218   */\n      dup3\n        /* \"#utility.yul\":9192:9225   */\n      tag_242\n      jump\t// in\n    tag_405:\n        /* \"#utility.yul\":9102:9231   */\n      swap2\n      swap1\n      pop\n      jump\t// out\n        /* \"#utility.yul\":9237:9544   */\n    tag_244:\n        /* \"#utility.yul\":9298:9302   */\n      0x00\n        /* \"#utility.yul\":9388:9406   */\n      0xffffffffffffffff\n        /* \"#utility.yul\":9380:9386   */\n      dup3\n        /* \"#utility.yul\":9377:9407   */\n      gt\n        /* \"#utility.yul\":9374:9430   */\n      iszero\n      tag_407\n      jumpi\n        /* \"#utility.yul\":9410:9428   */\n      tag_408\n      tag_98\n      jump\t// in\n    tag_408:\n        /* \"#utility.yul\":9374:9430   */\n    tag_407:\n        /* \"#utility.yul\":9448:9477   */\n      tag_409\n        /* \"#utility.yul\":9470:9476   */\n      dup3\n        /* \"#utility.yul\":9448:9477   */\n      tag_241\n      jump\t// in\n    tag_409:\n        /* \"#utility.yul\":9440:9477   */\n      swap1\n      pop\n        /* \"#utility.yul\":9532:9536   */\n      0x20\n        /* \"#utility.yul\":9526:9530   */\n      dup2\n        /* \"#utility.yul\":9522:9537   */\n      add\n        /* \"#utility.yul\":9514:9537   */\n      swap1\n      pop\n        /* \"#utility.yul\":9237:9544   */\n      swap2\n      swap1\n      pop\n      jump\t// out\n        /* \"#utility.yul\":9550:9704   */\n    tag_245:\n        /* \"#utility.yul\":9634:9640   */\n      dup3\n        /* \"#utility.yul\":9629:9632   */\n      dup2\n        /* \"#utility.yul\":9624:9627   */\n      dup4\n        /* \"#utility.yul\":9611:9641   */\n      calldatacopy\n        /* \"#utility.yul\":9696:9697   */\n      0x00\n        /* \"#utility.yul\":9687:9693   */\n      dup4\n        /* \"#utility.yul\":9682:9685   */\n      dup4\n        /* \"#utility.yul\":9678:9694   */\n      add\n        /* \"#utility.yul\":9671:9698   */\n      mstore\n        /* \"#utility.yul\":9550:9704   */\n      pop\n      pop\n      pop\n      jump\t// out\n        /* \"#utility.yul\":9710:10120   */\n    tag_246:\n        /* \"#utility.yul\":9787:9792   */\n      0x00\n        /* \"#utility.yul\":9812:9877   */\n      tag_412\n        /* \"#utility.yul\":9828:9876   */\n      tag_413\n        /* \"#utility.yul\":9869:9875   */\n      dup5\n        /* \"#utility.yul\":9828:9876   */\n      tag_244\n      jump\t// in\n    tag_413:\n        /* \"#utility.yul\":9812:9877   */\n      tag_243\n      jump\t// in\n    tag_412:\n        /* \"#utility.yul\":9803:9877   */\n      swap1\n      pop\n        /* \"#utility.yul\":9900:9906   */\n      dup3\n        /* \"#utility.yul\":9893:9898   */\n      dup2\n        /* \"#utility.yul\":9886:9907   */\n      mstore\n        /* \"#utility.yul\":9938:9942   */\n      0x20\n        /* \"#utility.yul\":9931:9936   */\n      dup2\n        /* \"#utility.yul\":9927:9943   */\n      add\n        /* \"#utility.yul\":9976:9979   */\n      dup5\n        /* \"#utility.yul\":9967:9973   */\n      dup5\n        /* \"#utility.yul\":9962:9965   */\n      dup5\n        /* \"#utility.yul\":9958:9974   */\n      add\n        /* \"#utility.yul\":9955:9980   */\n      gt\n        /* \"#utility.yul\":9952:10064   */\n      iszero\n      tag_414\n      jumpi\n        /* \"#utility.yul\":9983:10062   */\n      tag_415\n      tag_240\n      jump\t// in\n    tag_415:\n        /* \"#utility.yul\":9952:10064   */\n    tag_414:\n        /* \"#utility.yul\":10073:10114   */\n      tag_416\n        /* \"#utility.yul\":10107:10113   */\n      dup5\n        /* \"#utility.yul\":10102:10105   */\n      dup3\n        /* \"#utility.yul\":10097:10100   */\n      dup6\n        /* \"#utility.yul\":10073:10114   */\n      tag_245\n      jump\t// in\n    tag_416:\n        /* \"#utility.yul\":9793:10120   */\n      pop\n        /* \"#utility.yul\":9710:10120   */\n      swap4\n      swap3\n      pop\n      pop\n      pop\n      jump\t// out\n        /* \"#utility.yul\":10139:10477   */\n    tag_247:\n        /* \"#utility.yul\":10194:10199   */\n      0x00\n        /* \"#utility.yul\":10243:10246   */\n      dup3\n        /* \"#utility.yul\":10236:10240   */\n      0x1f\n        /* \"#utility.yul\":10228:10234   */\n      dup4\n        /* \"#utility.yul\":10224:10241   */\n      add\n        /* \"#utility.yul\":10220:10247   */\n      slt\n        /* \"#utility.yul\":10210:10332   */\n      tag_418\n      jumpi\n        /* \"#utility.yul\":10251:10330   */\n      tag_419\n      tag_239\n      jump\t// in\n    tag_419:\n        /* \"#utility.yul\":10210:10332   */\n    tag_418:\n        /* \"#utility.yul\":10368:10374   */\n      dup2\n        /* \"#utility.yul\":10355:10375   */\n      calldataload\n        /* \"#utility.yul\":10393:10471   */\n      tag_420\n        /* \"#utility.yul\":10467:10470   */\n      dup5\n        /* \"#utility.yul\":10459:10465   */\n      dup3\n        /* \"#utility.yul\":10452:10456   */\n      0x20\n        /* \"#utility.yul\":10444:10450   */\n      dup7\n        /* \"#utility.yul\":10440:10457   */\n      add\n        /* \"#utility.yul\":10393:10471   */\n      tag_246\n      jump\t// in\n    tag_420:\n        /* \"#utility.yul\":10384:10471   */\n      swap2\n      pop\n        /* \"#utility.yul\":10200:10477   */\n      pop\n        /* \"#utility.yul\":10139:10477   */\n      swap3\n      swap2\n      pop\n      pop\n      jump\t// out\n        /* \"#utility.yul\":10483:11426   */\n    tag_53:\n        /* \"#utility.yul\":10578:10584   */\n      0x00\n        /* \"#utility.yul\":10586:10592   */\n      dup1\n        /* \"#utility.yul\":10594:10600   */\n      0x00\n        /* \"#utility.yul\":10602:10608   */\n      dup1\n        /* \"#utility.yul\":10651:10654   */\n      0x80\n        /* \"#utility.yul\":10639:10648   */\n      dup6\n        /* \"#utility.yul\":10630:10637   */\n      dup8\n        /* \"#utility.yul\":10626:10649   */\n      sub\n        /* \"#utility.yul\":10622:10655   */\n      slt\n        /* \"#utility.yul\":10619:10739   */\n      iszero\n      tag_422\n      jumpi\n        /* \"#utility.yul\":10658:10737   */\n      tag_423\n      tag_212\n      jump\t// in\n    tag_423:\n        /* \"#utility.yul\":10619:10739   */\n    tag_422:\n        /* \"#utility.yul\":10778:10779   */\n      0x00\n        /* \"#utility.yul\":10803:10856   */\n      tag_424\n        /* \"#utility.yul\":10848:10855   */\n      dup8\n        /* \"#utility.yul\":10839:10845   */\n      dup3\n        /* \"#utility.yul\":10828:10837   */\n      dup9\n        /* \"#utility.yul\":10824:10846   */\n      add\n        /* \"#utility.yul\":10803:10856   */\n      tag_217\n      jump\t// in\n    tag_424:\n        /* \"#utility.yul\":10793:10856   */\n      swap5\n      pop\n        /* \"#utility.yul\":10749:10866   */\n      pop\n        /* \"#utility.yul\":10905:10907   */\n      0x20\n        /* \"#utility.yul\":10931:10984   */\n      tag_425\n        /* \"#utility.yul\":10976:10983   */\n      dup8\n        /* \"#utility.yul\":10967:10973   */\n      dup3\n        /* \"#utility.yul\":10956:10965   */\n      dup9\n        /* \"#utility.yul\":10952:10974   */\n      add\n        /* \"#utility.yul\":10931:10984   */\n      tag_220\n      jump\t// in\n    tag_425:\n        /* \"#utility.yul\":10921:10984   */\n      swap4\n      pop\n        /* \"#utility.yul\":10876:10994   */\n      pop\n        /* \"#utility.yul\":11033:11035   */\n      0x40\n        /* \"#utility.yul\":11059:11112   */\n      tag_426\n        /* \"#utility.yul\":11104:11111   */\n      dup8\n        /* \"#utility.yul\":11095:11101   */\n      dup3\n        /* \"#utility.yul\":11084:11093   */\n      dup9\n        /* \"#utility.yul\":11080:11102   */\n      add\n        /* \"#utility.yul\":11059:11112   */\n      tag_220\n      jump\t// in\n    tag_426:\n        /* \"#utility.yul\":11049:11112   */\n      swap3\n      pop\n        /* \"#utility.yul\":11004:11122   */\n      pop\n        /* \"#utility.yul\":11189:11191   */\n      0x60\n        /* \"#utility.yul\":11178:11187   */\n      dup6\n        /* \"#utility.yul\":11174:11192   */\n      add\n        /* \"#utility.yul\":11161:11193   */\n      calldataload\n        /* \"#utility.yul\":11220:11238   */\n      0xffffffffffffffff\n        /* \"#utility.yul\":11212:11218   */\n      dup2\n        /* \"#utility.yul\":11209:11239   */\n      gt\n        /* \"#utility.yul\":11206:11323   */\n      iszero\n      tag_427\n      jumpi\n        /* \"#utility.yul\":11242:11321   */\n      tag_428\n      tag_213\n      jump\t// in\n    tag_428:\n        /* \"#utility.yul\":11206:11323   */\n    tag_427:\n        /* \"#utility.yul\":11347:11409   */\n      tag_429\n        /* \"#utility.yul\":11401:11408   */\n      dup8\n        /* \"#utility.yul\":11392:11398   */\n      dup3\n        /* \"#utility.yul\":11381:11390   */\n      dup9\n        /* \"#utility.yul\":11377:11399   */\n      add\n        /* \"#utility.yul\":11347:11409   */\n      tag_247\n      jump\t// in\n    tag_429:\n        /* \"#utility.yul\":11337:11409   */\n      swap2\n      pop\n        /* \"#utility.yul\":11132:11419   */\n      pop\n        /* \"#utility.yul\":10483:11426   */\n      swap3\n      swap6\n      swap2\n      swap5\n      pop\n      swap3\n      pop\n      jump\t// out\n        /* \"#utility.yul\":11432:11531   */\n    tag_248:\n        /* \"#utility.yul\":11484:11490   */\n      0x00\n        /* \"#utility.yul\":11518:11523   */\n      dup2\n        /* \"#utility.yul\":11512:11524   */\n      mload\n        /* \"#utility.yul\":11502:11524   */\n      swap1\n      pop\n        /* \"#utility.yul\":11432:11531   */\n      swap2\n      swap1\n      pop\n      jump\t// out\n        /* \"#utility.yul\":11537:11706   */\n    tag_249:\n        /* \"#utility.yul\":11621:11632   */\n      0x00\n        /* \"#utility.yul\":11655:11661   */\n      dup3\n        /* \"#utility.yul\":11650:11653   */\n      dup3\n        /* \"#utility.yul\":11643:11662   */\n      mstore\n        /* \"#utility.yul\":11695:11699   */\n      0x20\n        /* \"#utility.yul\":11690:11693   */\n      dup3\n        /* \"#utility.yul\":11686:11700   */\n      add\n        /* \"#utility.yul\":11671:11700   */\n      swap1\n      pop\n        /* \"#utility.yul\":11537:11706   */\n      swap3\n      swap2\n      pop\n      pop\n      jump\t// out\n        /* \"#utility.yul\":11712:12019   */\n    tag_250:\n        /* \"#utility.yul\":11780:11781   */\n      0x00\n        /* \"#utility.yul\":11790:11903   */\n    tag_433:\n        /* \"#utility.yul\":11804:11810   */\n      dup4\n        /* \"#utility.yul\":11801:11802   */\n      dup2\n        /* \"#utility.yul\":11798:11811   */\n      lt\n        /* \"#utility.yul\":11790:11903   */\n      iszero\n      tag_435\n      jumpi\n        /* \"#utility.yul\":11889:11890   */\n      dup1\n        /* \"#utility.yul\":11884:11887   */\n      dup3\n        /* \"#utility.yul\":11880:11891   */\n      add\n        /* \"#utility.yul\":11874:11892   */\n      mload\n        /* \"#utility.yul\":11870:11871   */\n      dup2\n        /* \"#utility.yul\":11865:11868   */\n      dup5\n        /* \"#utility.yul\":11861:11872   */\n      add\n        /* \"#utility.yul\":11854:11893   */\n      mstore\n        /* \"#utility.yul\":11826:11828   */\n      0x20\n        /* \"#utility.yul\":11823:11824   */\n      dup2\n        /* \"#utility.yul\":11819:11829   */\n      add\n        /* \"#utility.yul\":11814:11829   */\n      swap1\n      pop\n        /* \"#utility.yul\":11790:11903   */\n      jump(tag_433)\n    tag_435:\n        /* \"#utility.yul\":11921:11927   */\n      dup4\n        /* \"#utility.yul\":11918:11919   */\n      dup2\n        /* \"#utility.yul\":11915:11928   */\n      gt\n        /* \"#utility.yul\":11912:12013   */\n      iszero\n      tag_436\n      jumpi\n        /* \"#utility.yul\":12001:12002   */\n      0x00\n        /* \"#utility.yul\":11992:11998   */\n      dup5\n        /* \"#utility.yul\":11987:11990   */\n      dup5\n        /* \"#utility.yul\":11983:11999   */\n      add\n        /* \"#utility.yul\":11976:12003   */\n      mstore\n        /* \"#utility.yul\":11912:12013   */\n    tag_436:\n        /* \"#utility.yul\":11761:12019   */\n      pop\n        /* \"#utility.yul\":11712:12019   */\n      pop\n      pop\n      pop\n      jump\t// out\n        /* \"#utility.yul\":12025:12389   */\n    tag_251:\n        /* \"#utility.yul\":12113:12116   */\n      0x00\n        /* \"#utility.yul\":12141:12180   */\n      tag_438\n        /* \"#utility.yul\":12174:12179   */\n      dup3\n        /* \"#utility.yul\":12141:12180   */\n      tag_248\n      jump\t// in\n    tag_438:\n        /* \"#utility.yul\":12196:12267   */\n      tag_439\n        /* \"#utility.yul\":12260:12266   */\n      dup2\n        /* \"#utility.yul\":12255:12258   */\n      dup6\n        /* \"#utility.yul\":12196:12267   */\n      tag_249\n      jump\t// in\n    tag_439:\n        /* \"#utility.yul\":12189:12267   */\n      swap4\n      pop\n        /* \"#utility.yul\":12276:12328   */\n      tag_440\n        /* \"#utility.yul\":12321:12327   */\n      dup2\n        /* \"#utility.yul\":12316:12319   */\n      dup6\n        /* \"#utility.yul\":12309:12313   */\n      0x20\n        /* \"#utility.yul\":12302:12307   */\n      dup7\n        /* \"#utility.yul\":12298:12314   */\n      add\n        /* \"#utility.yul\":12276:12328   */\n      tag_250\n      jump\t// in\n    tag_440:\n        /* \"#utility.yul\":12353:12382   */\n      tag_441\n        /* \"#utility.yul\":12375:12381   */\n      dup2\n        /* \"#utility.yul\":12353:12382   */\n      tag_241\n      jump\t// in\n    tag_441:\n        /* \"#utility.yul\":12348:12351   */\n      dup5\n        /* \"#utility.yul\":12344:12383   */\n      add\n        /* \"#utility.yul\":12337:12383   */\n      swap2\n      pop\n        /* \"#utility.yul\":12117:12389   */\n      pop\n        /* \"#utility.yul\":12025:12389   */\n      swap3\n      swap2\n      pop\n      pop\n      jump\t// out\n        /* \"#utility.yul\":12395:12488   */\n    tag_252:\n        /* \"#utility.yul\":12431:12438   */\n      0x00\n        /* \"#utility.yul\":12471:12481   */\n      0xffffffff\n        /* \"#utility.yul\":12464:12469   */\n      dup3\n        /* \"#utility.yul\":12460:12482   */\n      and\n        /* \"#utility.yul\":12449:12482   */\n      swap1\n      pop\n        /* \"#utility.yul\":12395:12488   */\n      swap2\n      swap1\n      pop\n      jump\t// out\n        /* \"#utility.yul\":12494:12609   */\n    tag_253:\n        /* \"#utility.yul\":12579:12602   */\n      tag_444\n        /* \"#utility.yul\":12596:12601   */\n      dup2\n        /* \"#utility.yul\":12579:12602   */\n      tag_252\n      jump\t// in\n    tag_444:\n        /* \"#utility.yul\":12574:12577   */\n      dup3\n        /* \"#utility.yul\":12567:12603   */\n      mstore\n        /* \"#utility.yul\":12494:12609   */\n      pop\n      pop\n      jump\t// out\n        /* \"#utility.yul\":12615:12705   */\n    tag_254:\n        /* \"#utility.yul\":12649:12656   */\n      0x00\n        /* \"#utility.yul\":12692:12697   */\n      dup2\n        /* \"#utility.yul\":12685:12698   */\n      iszero\n        /* \"#utility.yul\":12678:12699   */\n      iszero\n        /* \"#utility.yul\":12667:12699   */\n      swap1\n      pop\n        /* \"#utility.yul\":12615:12705   */\n      swap2\n      swap1\n      pop\n      jump\t// out\n        /* \"#utility.yul\":12711:12820   */\n    tag_255:\n        /* \"#utility.yul\":12792:12813   */\n      tag_447\n        /* \"#utility.yul\":12807:12812   */\n      dup2\n        /* \"#utility.yul\":12792:12813   */\n      tag_254\n      jump\t// in\n    tag_447:\n        /* \"#utility.yul\":12787:12790   */\n      dup3\n        /* \"#utility.yul\":12780:12814   */\n      mstore\n        /* \"#utility.yul\":12711:12820   */\n      pop\n      pop\n      jump\t// out\n        /* \"#utility.yul\":12826:13561   */\n    tag_62:\n        /* \"#utility.yul\":13041:13045   */\n      0x00\n        /* \"#utility.yul\":13079:13082   */\n      0xa0\n        /* \"#utility.yul\":13068:13077   */\n      dup3\n        /* \"#utility.yul\":13064:13083   */\n      add\n        /* \"#utility.yul\":13056:13083   */\n      swap1\n      pop\n        /* \"#utility.yul\":13129:13138   */\n      dup2\n        /* \"#utility.yul\":13123:13127   */\n      dup2\n        /* \"#utility.yul\":13119:13139   */\n      sub\n        /* \"#utility.yul\":13115:13116   */\n      0x00\n        /* \"#utility.yul\":13104:13113   */\n      dup4\n        /* \"#utility.yul\":13100:13117   */\n      add\n        /* \"#utility.yul\":13093:13140   */\n      mstore\n        /* \"#utility.yul\":13157:13235   */\n      tag_449\n        /* \"#utility.yul\":13230:13234   */\n      dup2\n        /* \"#utility.yul\":13221:13227   */\n      dup9\n        /* \"#utility.yul\":13157:13235   */\n      tag_251\n      jump\t// in\n    tag_449:\n        /* \"#utility.yul\":13149:13235   */\n      swap1\n      pop\n        /* \"#utility.yul\":13245:13317   */\n      tag_450\n        /* \"#utility.yul\":13313:13315   */\n      0x20\n        /* \"#utility.yul\":13302:13311   */\n      dup4\n        /* \"#utility.yul\":13298:13316   */\n      add\n        /* \"#utility.yul\":13289:13295   */\n      dup8\n        /* \"#utility.yul\":13245:13317   */\n      tag_236\n      jump\t// in\n    tag_450:\n        /* \"#utility.yul\":13327:13397   */\n      tag_451\n        /* \"#utility.yul\":13393:13395   */\n      0x40\n        /* \"#utility.yul\":13382:13391   */\n      dup4\n        /* \"#utility.yul\":13378:13396   */\n      add\n        /* \"#utility.yul\":13369:13375   */\n      dup7\n        /* \"#utility.yul\":13327:13397   */\n      tag_253\n      jump\t// in\n    tag_451:\n        /* \"#utility.yul\":13407:13477   */\n      tag_452\n        /* \"#utility.yul\":13473:13475   */\n      0x60\n        /* \"#utility.yul\":13462:13471   */\n      dup4\n        /* \"#utility.yul\":13458:13476   */\n      add\n        /* \"#utility.yul\":13449:13455   */\n      dup6\n        /* \"#utility.yul\":13407:13477   */\n      tag_253\n      jump\t// in\n    tag_452:\n        /* \"#utility.yul\":13487:13554   */\n      tag_453\n        /* \"#utility.yul\":13549:13552   */\n      0x80\n        /* \"#utility.yul\":13538:13547   */\n      dup4\n        /* \"#utility.yul\":13534:13553   */\n      add\n        /* \"#utility.yul\":13525:13531   */\n      dup5\n        /* \"#utility.yul\":13487:13554   */\n      tag_255\n      jump\t// in\n    tag_453:\n        /* \"#utility.yul\":12826:13561   */\n      swap7\n      swap6\n      pop\n      pop\n      pop\n      pop\n      pop\n      pop\n      jump\t// out\n        /* \"#utility.yul\":13567:13875   */\n    tag_256:\n        /* \"#utility.yul\":13629:13633   */\n      0x00\n        /* \"#utility.yul\":13719:13737   */\n      0xffffffffffffffff\n        /* \"#utility.yul\":13711:13717   */\n      dup3\n        /* \"#utility.yul\":13708:13738   */\n      gt\n        /* \"#utility.yul\":13705:13761   */\n      iszero\n      tag_455\n      jumpi\n        /* \"#utility.yul\":13741:13759   */\n      tag_456\n      tag_98\n      jump\t// in\n    tag_456:\n        /* \"#utility.yul\":13705:13761   */\n    tag_455:\n        /* \"#utility.yul\":13779:13808   */\n      tag_457\n        /* \"#utility.yul\":13801:13807   */\n      dup3\n        /* \"#utility.yul\":13779:13808   */\n      tag_241\n      jump\t// in\n    tag_457:\n        /* \"#utility.yul\":13771:13808   */\n      swap1\n      pop\n        /* \"#utility.yul\":13863:13867   */\n      0x20\n        /* \"#utility.yul\":13857:13861   */\n      dup2\n        /* \"#utility.yul\":13853:13868   */\n      add\n        /* \"#utility.yul\":13845:13868   */\n      swap1\n      pop\n        /* \"#utility.yul\":13567:13875   */\n      swap2\n      swap1\n      pop\n      jump\t// out\n        /* \"#utility.yul\":13881:14293   */\n    tag_257:\n        /* \"#utility.yul\":13959:13964   */\n      0x00\n        /* \"#utility.yul\":13984:14050   */\n      tag_459\n        /* \"#utility.yul\":14000:14049   */\n      tag_460\n        /* \"#utility.yul\":14042:14048   */\n      dup5\n        /* \"#utility.yul\":14000:14049   */\n      tag_256\n      jump\t// in\n    tag_460:\n        /* \"#utility.yul\":13984:14050   */\n      tag_243\n      jump\t// in\n    tag_459:\n        /* \"#utility.yul\":13975:14050   */\n      swap1\n      pop\n        /* \"#utility.yul\":14073:14079   */\n      dup3\n        /* \"#utility.yul\":14066:14071   */\n      dup2\n        /* \"#utility.yul\":14059:14080   */\n      mstore\n        /* \"#utility.yul\":14111:14115   */\n      0x20\n        /* \"#utility.yul\":14104:14109   */\n      dup2\n        /* \"#utility.yul\":14100:14116   */\n      add\n        /* \"#utility.yul\":14149:14152   */\n      dup5\n        /* \"#utility.yul\":14140:14146   */\n      dup5\n        /* \"#utility.yul\":14135:14138   */\n      dup5\n        /* \"#utility.yul\":14131:14147   */\n      add\n        /* \"#utility.yul\":14128:14153   */\n      gt\n        /* \"#utility.yul\":14125:14237   */\n      iszero\n      tag_461\n      jumpi\n        /* \"#utility.yul\":14156:14235   */\n      tag_462\n      tag_240\n      jump\t// in\n    tag_462:\n        /* \"#utility.yul\":14125:14237   */\n    tag_461:\n        /* \"#utility.yul\":14246:14287   */\n      tag_463\n        /* \"#utility.yul\":14280:14286   */\n      dup5\n        /* \"#utility.yul\":14275:14278   */\n      dup3\n        /* \"#utility.yul\":14270:14273   */\n      dup6\n        /* \"#utility.yul\":14246:14287   */\n      tag_245\n      jump\t// in\n    tag_463:\n        /* \"#utility.yul\":13965:14293   */\n      pop\n        /* \"#utility.yul\":13881:14293   */\n      swap4\n      swap3\n      pop\n      pop\n      pop\n      jump\t// out\n        /* \"#utility.yul\":14313:14653   */\n    tag_258:\n        /* \"#utility.yul\":14369:14374   */\n      0x00\n        /* \"#utility.yul\":14418:14421   */\n      dup3\n        /* \"#utility.yul\":14411:14415   */\n      0x1f\n        /* \"#utility.yul\":14403:14409   */\n      dup4\n        /* \"#utility.yul\":14399:14416   */\n      add\n        /* \"#utility.yul\":14395:14422   */\n      slt\n        /* \"#utility.yul\":14385:14507   */\n      tag_465\n      jumpi\n        /* \"#utility.yul\":14426:14505   */\n      tag_466\n      tag_239\n      jump\t// in\n    tag_466:\n        /* \"#utility.yul\":14385:14507   */\n    tag_465:\n        /* \"#utility.yul\":14543:14549   */\n      dup2\n        /* \"#utility.yul\":14530:14550   */\n      calldataload\n        /* \"#utility.yul\":14568:14647   */\n      tag_467\n        /* \"#utility.yul\":14643:14646   */\n      dup5\n        /* \"#utility.yul\":14635:14641   */\n      dup3\n        /* \"#utility.yul\":14628:14632   */\n      0x20\n        /* \"#utility.yul\":14620:14626   */\n      dup7\n        /* \"#utility.yul\":14616:14633   */\n      add\n        /* \"#utility.yul\":14568:14647   */\n      tag_257\n      jump\t// in\n    tag_467:\n        /* \"#utility.yul\":14559:14647   */\n      swap2\n      pop\n        /* \"#utility.yul\":14375:14653   */\n      pop\n        /* \"#utility.yul\":14313:14653   */\n      swap3\n      swap2\n      pop\n      pop\n      jump\t// out\n        /* \"#utility.yul\":14659:14779   */\n    tag_259:\n        /* \"#utility.yul\":14731:14754   */\n      tag_469\n        /* \"#utility.yul\":14748:14753   */\n      dup2\n        /* \"#utility.yul\":14731:14754   */\n      tag_252\n      jump\t// in\n    tag_469:\n        /* \"#utility.yul\":14724:14729   */\n      dup2\n        /* \"#utility.yul\":14721:14755   */\n      eq\n        /* \"#utility.yul\":14711:14773   */\n      tag_470\n      jumpi\n        /* \"#utility.yul\":14769:14770   */\n      0x00\n        /* \"#utility.yul\":14766:14767   */\n      dup1\n        /* \"#utility.yul\":14759:14771   */\n      revert\n        /* \"#utility.yul\":14711:14773   */\n    tag_470:\n        /* \"#utility.yul\":14659:14779   */\n      pop\n      jump\t// out\n        /* \"#utility.yul\":14785:14922   */\n    tag_260:\n        /* \"#utility.yul\":14830:14835   */\n      0x00\n        /* \"#utility.yul\":14868:14874   */\n      dup2\n        /* \"#utility.yul\":14855:14875   */\n      calldataload\n        /* \"#utility.yul\":14846:14875   */\n      swap1\n      pop\n        /* \"#utility.yul\":14884:14916   */\n      tag_472\n        /* \"#utility.yul\":14910:14915   */\n      dup2\n        /* \"#utility.yul\":14884:14916   */\n      tag_259\n      jump\t// in\n    tag_472:\n        /* \"#utility.yul\":14785:14922   */\n      swap3\n      swap2\n      pop\n      pop\n      jump\t// out\n        /* \"#utility.yul\":14928:15580   */\n    tag_65:\n        /* \"#utility.yul\":15005:15011   */\n      0x00\n        /* \"#utility.yul\":15013:15019   */\n      dup1\n        /* \"#utility.yul\":15062:15064   */\n      0x40\n        /* \"#utility.yul\":15050:15059   */\n      dup4\n        /* \"#utility.yul\":15041:15048   */\n      dup6\n        /* \"#utility.yul\":15037:15060   */\n      sub\n        /* \"#utility.yul\":15033:15065   */\n      slt\n        /* \"#utility.yul\":15030:15149   */\n      iszero\n      tag_474\n      jumpi\n        /* \"#utility.yul\":15068:15147   */\n      tag_475\n      tag_212\n      jump\t// in\n    tag_475:\n        /* \"#utility.yul\":15030:15149   */\n    tag_474:\n        /* \"#utility.yul\":15216:15217   */\n      0x00\n        /* \"#utility.yul\":15205:15214   */\n      dup4\n        /* \"#utility.yul\":15201:15218   */\n      add\n        /* \"#utility.yul\":15188:15219   */\n      calldataload\n        /* \"#utility.yul\":15246:15264   */\n      0xffffffffffffffff\n        /* \"#utility.yul\":15238:15244   */\n      dup2\n        /* \"#utility.yul\":15235:15265   */\n      gt\n        /* \"#utility.yul\":15232:15349   */\n      iszero\n      tag_476\n      jumpi\n        /* \"#utility.yul\":15268:15347   */\n      tag_477\n      tag_213\n      jump\t// in\n    tag_477:\n        /* \"#utility.yul\":15232:15349   */\n    tag_476:\n        /* \"#utility.yul\":15373:15436   */\n      tag_478\n        /* \"#utility.yul\":15428:15435   */\n      dup6\n        /* \"#utility.yul\":15419:15425   */\n      dup3\n        /* \"#utility.yul\":15408:15417   */\n      dup7\n        /* \"#utility.yul\":15404:15426   */\n      add\n        /* \"#utility.yul\":15373:15436   */\n      tag_258\n      jump\t// in\n    tag_478:\n        /* \"#utility.yul\":15363:15436   */\n      swap3\n      pop\n        /* \"#utility.yul\":15159:15446   */\n      pop\n        /* \"#utility.yul\":15485:15487   */\n      0x20\n        /* \"#utility.yul\":15511:15563   */\n      tag_479\n        /* \"#utility.yul\":15555:15562   */\n      dup6\n        /* \"#utility.yul\":15546:15552   */\n      dup3\n        /* \"#utility.yul\":15535:15544   */\n      dup7\n        /* \"#utility.yul\":15531:15553   */\n      add\n        /* \"#utility.yul\":15511:15563   */\n      tag_260\n      jump\t// in\n    tag_479:\n        /* \"#utility.yul\":15501:15563   */\n      swap2\n      pop\n        /* \"#utility.yul\":15456:15573   */\n      pop\n        /* \"#utility.yul\":14928:15580   */\n      swap3\n      pop\n      swap3\n      swap1\n      pop\n      jump\t// out\n        /* \"#utility.yul\":15586:16009   */\n    tag_68:\n        /* \"#utility.yul\":15727:15731   */\n      0x00\n        /* \"#utility.yul\":15765:15767   */\n      0x40\n        /* \"#utility.yul\":15754:15763   */\n      dup3\n        /* \"#utility.yul\":15750:15768   */\n      add\n        /* \"#utility.yul\":15742:15768   */\n      swap1\n      pop\n        /* \"#utility.yul\":15814:15823   */\n      dup2\n        /* \"#utility.yul\":15808:15812   */\n      dup2\n        /* \"#utility.yul\":15804:15824   */\n      sub\n        /* \"#utility.yul\":15800:15801   */\n      0x00\n        /* \"#utility.yul\":15789:15798   */\n      dup4\n        /* \"#utility.yul\":15785:15802   */\n      add\n        /* \"#utility.yul\":15778:15825   */\n      mstore\n        /* \"#utility.yul\":15842:15920   */\n      tag_481\n        /* \"#utility.yul\":15915:15919   */\n      dup2\n        /* \"#utility.yul\":15906:15912   */\n      dup6\n        /* \"#utility.yul\":15842:15920   */\n      tag_251\n      jump\t// in\n    tag_481:\n        /* \"#utility.yul\":15834:15920   */\n      swap1\n      pop\n        /* \"#utility.yul\":15930:16002   */\n      tag_482\n        /* \"#utility.yul\":15998:16000   */\n      0x20\n        /* \"#utility.yul\":15987:15996   */\n      dup4\n        /* \"#utility.yul\":15983:16001   */\n      add\n        /* \"#utility.yul\":15974:15980   */\n      dup5\n        /* \"#utility.yul\":15930:16002   */\n      tag_221\n      jump\t// in\n    tag_482:\n        /* \"#utility.yul\":15586:16009   */\n      swap4\n      swap3\n      pop\n      pop\n      pop\n      jump\t// out\n        /* \"#utility.yul\":16015:16158   */\n    tag_261:\n        /* \"#utility.yul\":16111:16117   */\n      0x00\n        /* \"#utility.yul\":16145:16150   */\n      dup2\n        /* \"#utility.yul\":16139:16151   */\n      mload\n        /* \"#utility.yul\":16129:16151   */\n      swap1\n      pop\n        /* \"#utility.yul\":16015:16158   */\n      swap2\n      swap1\n      pop\n      jump\t// out\n        /* \"#utility.yul\":16164:16377   */\n    tag_262:\n        /* \"#utility.yul\":16292:16303   */\n      0x00\n        /* \"#utility.yul\":16326:16332   */\n      dup3\n        /* \"#utility.yul\":16321:16324   */\n      dup3\n        /* \"#utility.yul\":16314:16333   */\n      mstore\n        /* \"#utility.yul\":16366:16370   */\n      0x20\n        /* \"#utility.yul\":16361:16364   */\n      dup3\n        /* \"#utility.yul\":16357:16371   */\n      add\n        /* \"#utility.yul\":16342:16371   */\n      swap1\n      pop\n        /* \"#utility.yul\":16164:16377   */\n      swap3\n      swap2\n      pop\n      pop\n      jump\t// out\n        /* \"#utility.yul\":16383:16544   */\n    tag_263:\n        /* \"#utility.yul\":16479:16483   */\n      0x00\n        /* \"#utility.yul\":16502:16505   */\n      dup2\n        /* \"#utility.yul\":16494:16505   */\n      swap1\n      pop\n        /* \"#utility.yul\":16532:16536   */\n      0x20\n        /* \"#utility.yul\":16527:16530   */\n      dup3\n        /* \"#utility.yul\":16523:16537   */\n      add\n        /* \"#utility.yul\":16515:16537   */\n      swap1\n      pop\n        /* \"#utility.yul\":16383:16544   */\n      swap2\n      swap1\n      pop\n      jump\t// out\n        /* \"#utility.yul\":16550:16709   */\n    tag_264:\n        /* \"#utility.yul\":16624:16635   */\n      0x00\n        /* \"#utility.yul\":16658:16664   */\n      dup3\n        /* \"#utility.yul\":16653:16656   */\n      dup3\n        /* \"#utility.yul\":16646:16665   */\n      mstore\n        /* \"#utility.yul\":16698:16702   */\n      0x20\n        /* \"#utility.yul\":16693:16696   */\n      dup3\n        /* \"#utility.yul\":16689:16703   */\n      add\n        /* \"#utility.yul\":16674:16703   */\n      swap1\n      pop\n        /* \"#utility.yul\":16550:16709   */\n      swap3\n      swap2\n      pop\n      pop\n      jump\t// out\n        /* \"#utility.yul\":16715:17059   */\n    tag_265:\n        /* \"#utility.yul\":16793:16796   */\n      0x00\n        /* \"#utility.yul\":16821:16860   */\n      tag_488\n        /* \"#utility.yul\":16854:16859   */\n      dup3\n        /* \"#utility.yul\":16821:16860   */\n      tag_248\n      jump\t// in\n    tag_488:\n        /* \"#utility.yul\":16876:16937   */\n      tag_489\n        /* \"#utility.yul\":16930:16936   */\n      dup2\n        /* \"#utility.yul\":16925:16928   */\n      dup6\n        /* \"#utility.yul\":16876:16937   */\n      tag_264\n      jump\t// in\n    tag_489:\n        /* \"#utility.yul\":16869:16937   */\n      swap4\n      pop\n        /* \"#utility.yul\":16946:16998   */\n      tag_490\n        /* \"#utility.yul\":16991:16997   */\n      dup2\n        /* \"#utility.yul\":16986:16989   */\n      dup6\n        /* \"#utility.yul\":16979:16983   */\n      0x20\n        /* \"#utility.yul\":16972:16977   */\n      dup7\n        /* \"#utility.yul\":16968:16984   */\n      add\n        /* \"#utility.yul\":16946:16998   */\n      tag_250\n      jump\t// in\n    tag_490:\n        /* \"#utility.yul\":17023:17052   */\n      tag_491\n        /* \"#utility.yul\":17045:17051   */\n      dup2\n        /* \"#utility.yul\":17023:17052   */\n      tag_241\n      jump\t// in\n    tag_491:\n        /* \"#utility.yul\":17018:17021   */\n      dup5\n        /* \"#utility.yul\":17014:17053   */\n      add\n        /* \"#utility.yul\":17007:17053   */\n      swap2\n      pop\n        /* \"#utility.yul\":16797:17059   */\n      pop\n        /* \"#utility.yul\":16715:17059   */\n      swap3\n      swap2\n      pop\n      pop\n      jump\t// out\n        /* \"#utility.yul\":17065:17239   */\n    tag_266:\n        /* \"#utility.yul\":17154:17165   */\n      0x00\n        /* \"#utility.yul\":17188:17194   */\n      dup3\n        /* \"#utility.yul\":17183:17186   */\n      dup3\n        /* \"#utility.yul\":17176:17195   */\n      mstore\n        /* \"#utility.yul\":17228:17232   */\n      0x20\n        /* \"#utility.yul\":17223:17226   */\n      dup3\n        /* \"#utility.yul\":17219:17233   */\n      add\n        /* \"#utility.yul\":17204:17233   */\n      swap1\n      pop\n        /* \"#utility.yul\":17065:17239   */\n      swap3\n      swap2\n      pop\n      pop\n      jump\t// out\n        /* \"#utility.yul\":17275:17987   */\n    tag_267:\n        /* \"#utility.yul\":17384:17387   */\n      0x00\n        /* \"#utility.yul\":17413:17467   */\n      tag_494\n        /* \"#utility.yul\":17461:17466   */\n      dup3\n        /* \"#utility.yul\":17413:17467   */\n      tag_222\n      jump\t// in\n    tag_494:\n        /* \"#utility.yul\":17483:17559   */\n      tag_495\n        /* \"#utility.yul\":17552:17558   */\n      dup2\n        /* \"#utility.yul\":17547:17550   */\n      dup6\n        /* \"#utility.yul\":17483:17559   */\n      tag_266\n      jump\t// in\n    tag_495:\n        /* \"#utility.yul\":17476:17559   */\n      swap4\n      pop\n        /* \"#utility.yul\":17583:17639   */\n      tag_496\n        /* \"#utility.yul\":17633:17638   */\n      dup4\n        /* \"#utility.yul\":17583:17639   */\n      tag_224\n      jump\t// in\n    tag_496:\n        /* \"#utility.yul\":17662:17669   */\n      dup1\n        /* \"#utility.yul\":17693:17694   */\n      0x00\n        /* \"#utility.yul\":17678:17962   */\n    tag_497:\n        /* \"#utility.yul\":17703:17709   */\n      dup4\n        /* \"#utility.yul\":17700:17701   */\n      dup2\n        /* \"#utility.yul\":17697:17710   */\n      lt\n        /* \"#utility.yul\":17678:17962   */\n      iszero\n      tag_499\n      jumpi\n        /* \"#utility.yul\":17779:17785   */\n      dup2\n        /* \"#utility.yul\":17773:17786   */\n      mload\n        /* \"#utility.yul\":17806:17869   */\n      tag_500\n        /* \"#utility.yul\":17865:17868   */\n      dup9\n        /* \"#utility.yul\":17850:17863   */\n      dup3\n        /* \"#utility.yul\":17806:17869   */\n      tag_226\n      jump\t// in\n    tag_500:\n        /* \"#utility.yul\":17799:17869   */\n      swap8\n      pop\n        /* \"#utility.yul\":17892:17952   */\n      tag_501\n        /* \"#utility.yul\":17945:17951   */\n      dup4\n        /* \"#utility.yul\":17892:17952   */\n      tag_227\n      jump\t// in\n    tag_501:\n        /* \"#utility.yul\":17882:17952   */\n      swap3\n      pop\n        /* \"#utility.yul\":17738:17962   */\n      pop\n        /* \"#utility.yul\":17725:17726   */\n      0x01\n        /* \"#utility.yul\":17722:17723   */\n      dup2\n        /* \"#utility.yul\":17718:17727   */\n      add\n        /* \"#utility.yul\":17713:17727   */\n      swap1\n      pop\n        /* \"#utility.yul\":17678:17962   */\n      jump(tag_497)\n    tag_499:\n        /* \"#utility.yul\":17682:17696   */\n      pop\n        /* \"#utility.yul\":17978:17981   */\n      dup6\n        /* \"#utility.yul\":17971:17981   */\n      swap4\n      pop\n        /* \"#utility.yul\":17389:17987   */\n      pop\n      pop\n      pop\n        /* \"#utility.yul\":17275:17987   */\n      swap3\n      swap2\n      pop\n      pop\n      jump\t// out\n        /* \"#utility.yul\":17993:18098   */\n    tag_268:\n        /* \"#utility.yul\":18068:18091   */\n      tag_503\n        /* \"#utility.yul\":18085:18090   */\n      dup2\n        /* \"#utility.yul\":18068:18091   */\n      tag_252\n      jump\t// in\n    tag_503:\n        /* \"#utility.yul\":18063:18066   */\n      dup3\n        /* \"#utility.yul\":18056:18092   */\n      mstore\n        /* \"#utility.yul\":17993:18098   */\n      pop\n      pop\n      jump\t// out\n        /* \"#utility.yul\":18104:18203   */\n    tag_269:\n        /* \"#utility.yul\":18175:18196   */\n      tag_505\n        /* \"#utility.yul\":18190:18195   */\n      dup2\n        /* \"#utility.yul\":18175:18196   */\n      tag_254\n      jump\t// in\n    tag_505:\n        /* \"#utility.yul\":18170:18173   */\n      dup3\n        /* \"#utility.yul\":18163:18197   */\n      mstore\n        /* \"#utility.yul\":18104:18203   */\n      pop\n      pop\n      jump\t// out\n        /* \"#utility.yul\":18275:19708   */\n    tag_270:\n        /* \"#utility.yul\":18392:18395   */\n      0x00\n        /* \"#utility.yul\":18428:18432   */\n      0xc0\n        /* \"#utility.yul\":18423:18426   */\n      dup4\n        /* \"#utility.yul\":18419:18433   */\n      add\n        /* \"#utility.yul\":18515:18519   */\n      0x00\n        /* \"#utility.yul\":18508:18513   */\n      dup4\n        /* \"#utility.yul\":18504:18520   */\n      add\n        /* \"#utility.yul\":18498:18521   */\n      mload\n        /* \"#utility.yul\":18568:18571   */\n      dup5\n        /* \"#utility.yul\":18562:18566   */\n      dup3\n        /* \"#utility.yul\":18558:18572   */\n      sub\n        /* \"#utility.yul\":18551:18555   */\n      0x00\n        /* \"#utility.yul\":18546:18549   */\n      dup7\n        /* \"#utility.yul\":18542:18556   */\n      add\n        /* \"#utility.yul\":18535:18573   */\n      mstore\n        /* \"#utility.yul\":18594:18667   */\n      tag_507\n        /* \"#utility.yul\":18662:18666   */\n      dup3\n        /* \"#utility.yul\":18648:18660   */\n      dup3\n        /* \"#utility.yul\":18594:18667   */\n      tag_265\n      jump\t// in\n    tag_507:\n        /* \"#utility.yul\":18586:18667   */\n      swap2\n      pop\n        /* \"#utility.yul\":18443:18678   */\n      pop\n        /* \"#utility.yul\":18764:18768   */\n      0x20\n        /* \"#utility.yul\":18757:18762   */\n      dup4\n        /* \"#utility.yul\":18753:18769   */\n      add\n        /* \"#utility.yul\":18747:18770   */\n      mload\n        /* \"#utility.yul\":18783:18846   */\n      tag_508\n        /* \"#utility.yul\":18840:18844   */\n      0x20\n        /* \"#utility.yul\":18835:18838   */\n      dup7\n        /* \"#utility.yul\":18831:18845   */\n      add\n        /* \"#utility.yul\":18817:18829   */\n      dup3\n        /* \"#utility.yul\":18783:18846   */\n      tag_225\n      jump\t// in\n    tag_508:\n        /* \"#utility.yul\":18688:18856   */\n      pop\n        /* \"#utility.yul\":18944:18948   */\n      0x40\n        /* \"#utility.yul\":18937:18942   */\n      dup4\n        /* \"#utility.yul\":18933:18949   */\n      add\n        /* \"#utility.yul\":18927:18950   */\n      mload\n        /* \"#utility.yul\":18997:19000   */\n      dup5\n        /* \"#utility.yul\":18991:18995   */\n      dup3\n        /* \"#utility.yul\":18987:19001   */\n      sub\n        /* \"#utility.yul\":18980:18984   */\n      0x40\n        /* \"#utility.yul\":18975:18978   */\n      dup7\n        /* \"#utility.yul\":18971:18985   */\n      add\n        /* \"#utility.yul\":18964:19002   */\n      mstore\n        /* \"#utility.yul\":19023:19126   */\n      tag_509\n        /* \"#utility.yul\":19121:19125   */\n      dup3\n        /* \"#utility.yul\":19107:19119   */\n      dup3\n        /* \"#utility.yul\":19023:19126   */\n      tag_267\n      jump\t// in\n    tag_509:\n        /* \"#utility.yul\":19015:19126   */\n      swap2\n      pop\n        /* \"#utility.yul\":18866:19137   */\n      pop\n        /* \"#utility.yul\":19232:19236   */\n      0x60\n        /* \"#utility.yul\":19225:19230   */\n      dup4\n        /* \"#utility.yul\":19221:19237   */\n      add\n        /* \"#utility.yul\":19215:19238   */\n      mload\n        /* \"#utility.yul\":19251:19312   */\n      tag_510\n        /* \"#utility.yul\":19306:19310   */\n      0x60\n        /* \"#utility.yul\":19301:19304   */\n      dup7\n        /* \"#utility.yul\":19297:19311   */\n      add\n        /* \"#utility.yul\":19283:19295   */\n      dup3\n        /* \"#utility.yul\":19251:19312   */\n      tag_268\n      jump\t// in\n    tag_510:\n        /* \"#utility.yul\":19147:19322   */\n      pop\n        /* \"#utility.yul\":19421:19425   */\n      0x80\n        /* \"#utility.yul\":19414:19419   */\n      dup4\n        /* \"#utility.yul\":19410:19426   */\n      add\n        /* \"#utility.yul\":19404:19427   */\n      mload\n        /* \"#utility.yul\":19440:19501   */\n      tag_511\n        /* \"#utility.yul\":19495:19499   */\n      0x80\n        /* \"#utility.yul\":19490:19493   */\n      dup7\n        /* \"#utility.yul\":19486:19500   */\n      add\n        /* \"#utility.yul\":19472:19484   */\n      dup3\n        /* \"#utility.yul\":19440:19501   */\n      tag_268\n      jump\t// in\n    tag_511:\n        /* \"#utility.yul\":19332:19511   */\n      pop\n        /* \"#utility.yul\":19595:19599   */\n      0xa0\n        /* \"#utility.yul\":19588:19593   */\n      dup4\n        /* \"#utility.yul\":19584:19600   */\n      add\n        /* \"#utility.yul\":19578:19601   */\n      mload\n        /* \"#utility.yul\":19614:19671   */\n      tag_512\n        /* \"#utility.yul\":19665:19669   */\n      0xa0\n        /* \"#utility.yul\":19660:19663   */\n      dup7\n        /* \"#utility.yul\":19656:19670   */\n      add\n        /* \"#utility.yul\":19642:19654   */\n      dup3\n        /* \"#utility.yul\":19614:19671   */\n      tag_269\n      jump\t// in\n    tag_512:\n        /* \"#utility.yul\":19521:19681   */\n      pop\n        /* \"#utility.yul\":19698:19702   */\n      dup1\n        /* \"#utility.yul\":19691:19702   */\n      swap2\n      pop\n        /* \"#utility.yul\":18397:19708   */\n      pop\n        /* \"#utility.yul\":18275:19708   */\n      swap3\n      swap2\n      pop\n      pop\n      jump\t// out\n        /* \"#utility.yul\":19714:19986   */\n    tag_271:\n        /* \"#utility.yul\":19841:19851   */\n      0x00\n        /* \"#utility.yul\":19876:19980   */\n      tag_514\n        /* \"#utility.yul\":19976:19979   */\n      dup4\n        /* \"#utility.yul\":19968:19974   */\n      dup4\n        /* \"#utility.yul\":19876:19980   */\n      tag_270\n      jump\t// in\n    tag_514:\n        /* \"#utility.yul\":19862:19980   */\n      swap1\n      pop\n        /* \"#utility.yul\":19714:19986   */\n      swap3\n      swap2\n      pop\n      pop\n      jump\t// out\n        /* \"#utility.yul\":19992:20134   */\n    tag_272:\n        /* \"#utility.yul\":20091:20095   */\n      0x00\n        /* \"#utility.yul\":20123:20127   */\n      0x20\n        /* \"#utility.yul\":20118:20121   */\n      dup3\n        /* \"#utility.yul\":20114:20128   */\n      add\n        /* \"#utility.yul\":20106:20128   */\n      swap1\n      pop\n        /* \"#utility.yul\":19992:20134   */\n      swap2\n      swap1\n      pop\n      jump\t// out\n        /* \"#utility.yul\":20210:21353   */\n    tag_273:\n        /* \"#utility.yul\":20387:20390   */\n      0x00\n        /* \"#utility.yul\":20416:20499   */\n      tag_517\n        /* \"#utility.yul\":20493:20498   */\n      dup3\n        /* \"#utility.yul\":20416:20499   */\n      tag_261\n      jump\t// in\n    tag_517:\n        /* \"#utility.yul\":20515:20630   */\n      tag_518\n        /* \"#utility.yul\":20623:20629   */\n      dup2\n        /* \"#utility.yul\":20618:20621   */\n      dup6\n        /* \"#utility.yul\":20515:20630   */\n      tag_262\n      jump\t// in\n    tag_518:\n        /* \"#utility.yul\":20508:20630   */\n      swap4\n      pop\n        /* \"#utility.yul\":20656:20659   */\n      dup4\n        /* \"#utility.yul\":20701:20705   */\n      0x20\n        /* \"#utility.yul\":20693:20699   */\n      dup3\n        /* \"#utility.yul\":20689:20706   */\n      mul\n        /* \"#utility.yul\":20684:20687   */\n      dup6\n        /* \"#utility.yul\":20680:20707   */\n      add\n        /* \"#utility.yul\":20731:20816   */\n      tag_519\n        /* \"#utility.yul\":20810:20815   */\n      dup6\n        /* \"#utility.yul\":20731:20816   */\n      tag_263\n      jump\t// in\n    tag_519:\n        /* \"#utility.yul\":20839:20846   */\n      dup1\n        /* \"#utility.yul\":20870:20871   */\n      0x00\n        /* \"#utility.yul\":20855:21308   */\n    tag_520:\n        /* \"#utility.yul\":20880:20886   */\n      dup6\n        /* \"#utility.yul\":20877:20878   */\n      dup2\n        /* \"#utility.yul\":20874:20887   */\n      lt\n        /* \"#utility.yul\":20855:21308   */\n      iszero\n      tag_522\n      jumpi\n        /* \"#utility.yul\":20951:20960   */\n      dup5\n        /* \"#utility.yul\":20945:20949   */\n      dup5\n        /* \"#utility.yul\":20941:20961   */\n      sub\n        /* \"#utility.yul\":20936:20939   */\n      dup10\n        /* \"#utility.yul\":20929:20962   */\n      mstore\n        /* \"#utility.yul\":21002:21008   */\n      dup2\n        /* \"#utility.yul\":20996:21009   */\n      mload\n        /* \"#utility.yul\":21030:21152   */\n      tag_523\n        /* \"#utility.yul\":21147:21151   */\n      dup6\n        /* \"#utility.yul\":21132:21145   */\n      dup3\n        /* \"#utility.yul\":21030:21152   */\n      tag_271\n      jump\t// in\n    tag_523:\n        /* \"#utility.yul\":21022:21152   */\n      swap5\n      pop\n        /* \"#utility.yul\":21175:21264   */\n      tag_524\n        /* \"#utility.yul\":21257:21263   */\n      dup4\n        /* \"#utility.yul\":21175:21264   */\n      tag_272\n      jump\t// in\n    tag_524:\n        /* \"#utility.yul\":21165:21264   */\n      swap3\n      pop\n        /* \"#utility.yul\":21293:21297   */\n      0x20\n        /* \"#utility.yul\":21288:21291   */\n      dup11\n        /* \"#utility.yul\":21284:21298   */\n      add\n        /* \"#utility.yul\":21277:21298   */\n      swap10\n      pop\n        /* \"#utility.yul\":20915:21308   */\n      pop\n        /* \"#utility.yul\":20902:20903   */\n      0x01\n        /* \"#utility.yul\":20899:20900   */\n      dup2\n        /* \"#utility.yul\":20895:20904   */\n      add\n        /* \"#utility.yul\":20890:20904   */\n      swap1\n      pop\n        /* \"#utility.yul\":20855:21308   */\n      jump(tag_520)\n    tag_522:\n        /* \"#utility.yul\":20859:20873   */\n      pop\n        /* \"#utility.yul\":21324:21328   */\n      dup3\n        /* \"#utility.yul\":21317:21328   */\n      swap8\n      pop\n        /* \"#utility.yul\":21344:21347   */\n      dup8\n        /* \"#utility.yul\":21337:21347   */\n      swap6\n      pop\n        /* \"#utility.yul\":20392:21353   */\n      pop\n      pop\n      pop\n      pop\n      pop\n        /* \"#utility.yul\":20210:21353   */\n      swap3\n      swap2\n      pop\n      pop\n      jump\t// out\n        /* \"#utility.yul\":21359:21848   */\n    tag_72:\n        /* \"#utility.yul\":21560:21564   */\n      0x00\n        /* \"#utility.yul\":21598:21600   */\n      0x20\n        /* \"#utility.yul\":21587:21596   */\n      dup3\n        /* \"#utility.yul\":21583:21601   */\n      add\n        /* \"#utility.yul\":21575:21601   */\n      swap1\n      pop\n        /* \"#utility.yul\":21647:21656   */\n      dup2\n        /* \"#utility.yul\":21641:21645   */\n      dup2\n        /* \"#utility.yul\":21637:21657   */\n      sub\n        /* \"#utility.yul\":21633:21634   */\n      0x00\n        /* \"#utility.yul\":21622:21631   */\n      dup4\n        /* \"#utility.yul\":21618:21635   */\n      add\n        /* \"#utility.yul\":21611:21658   */\n      mstore\n        /* \"#utility.yul\":21675:21841   */\n      tag_526\n        /* \"#utility.yul\":21836:21840   */\n      dup2\n        /* \"#utility.yul\":21827:21833   */\n      dup5\n        /* \"#utility.yul\":21675:21841   */\n      tag_273\n      jump\t// in\n    tag_526:\n        /* \"#utility.yul\":21667:21841   */\n      swap1\n      pop\n        /* \"#utility.yul\":21359:21848   */\n      swap3\n      swap2\n      pop\n      pop\n      jump\t// out\n        /* \"#utility.yul\":21854:22024   */\n    tag_274:\n        /* \"#utility.yul\":21994:22016   */\n      0x79657420746f20637265617465206120706f6c6c000000000000000000000000\n        /* \"#utility.yul\":21990:21991   */\n      0x00\n        /* \"#utility.yul\":21982:21988   */\n      dup3\n        /* \"#utility.yul\":21978:21992   */\n      add\n        /* \"#utility.yul\":21971:22017   */\n      mstore\n        /* \"#utility.yul\":21854:22024   */\n      pop\n      jump\t// out\n        /* \"#utility.yul\":22030:22396   */\n    tag_275:\n        /* \"#utility.yul\":22172:22175   */\n      0x00\n        /* \"#utility.yul\":22193:22260   */\n      tag_529\n        /* \"#utility.yul\":22257:22259   */\n      0x14\n        /* \"#utility.yul\":22252:22255   */\n      dup4\n        /* \"#utility.yul\":22193:22260   */\n      tag_249\n      jump\t// in\n    tag_529:\n        /* \"#utility.yul\":22186:22260   */\n      swap2\n      pop\n        /* \"#utility.yul\":22269:22362   */\n      tag_530\n        /* \"#utility.yul\":22358:22361   */\n      dup3\n        /* \"#utility.yul\":22269:22362   */\n      tag_274\n      jump\t// in\n    tag_530:\n        /* \"#utility.yul\":22387:22389   */\n      0x20\n        /* \"#utility.yul\":22382:22385   */\n      dup3\n        /* \"#utility.yul\":22378:22390   */\n      add\n        /* \"#utility.yul\":22371:22390   */\n      swap1\n      pop\n        /* \"#utility.yul\":22030:22396   */\n      swap2\n      swap1\n      pop\n      jump\t// out\n        /* \"#utility.yul\":22402:22821   */\n    tag_76:\n        /* \"#utility.yul\":22568:22572   */\n      0x00\n        /* \"#utility.yul\":22606:22608   */\n      0x20\n        /* \"#utility.yul\":22595:22604   */\n      dup3\n        /* \"#utility.yul\":22591:22609   */\n      add\n        /* \"#utility.yul\":22583:22609   */\n      swap1\n      pop\n        /* \"#utility.yul\":22655:22664   */\n      dup2\n        /* \"#utility.yul\":22649:22653   */\n      dup2\n        /* \"#utility.yul\":22645:22665   */\n      sub\n        /* \"#utility.yul\":22641:22642   */\n      0x00\n        /* \"#utility.yul\":22630:22639   */\n      dup4\n        /* \"#utility.yul\":22626:22643   */\n      add\n        /* \"#utility.yul\":22619:22666   */\n      mstore\n        /* \"#utility.yul\":22683:22814   */\n      tag_532\n        /* \"#utility.yul\":22809:22813   */\n      dup2\n        /* \"#utility.yul\":22683:22814   */\n      tag_275\n      jump\t// in\n    tag_532:\n        /* \"#utility.yul\":22675:22814   */\n      swap1\n      pop\n        /* \"#utility.yul\":22402:22821   */\n      swap2\n      swap1\n      pop\n      jump\t// out\n        /* \"#utility.yul\":22827:23007   */\n    tag_79:\n        /* \"#utility.yul\":22875:22952   */\n      0x4e487b7100000000000000000000000000000000000000000000000000000000\n        /* \"#utility.yul\":22872:22873   */\n      0x00\n        /* \"#utility.yul\":22865:22953   */\n      mstore\n        /* \"#utility.yul\":22972:22976   */\n      0x01\n        /* \"#utility.yul\":22969:22970   */\n      0x04\n        /* \"#utility.yul\":22962:22977   */\n      mstore\n        /* \"#utility.yul\":22996:23000   */\n      0x24\n        /* \"#utility.yul\":22993:22994   */\n      0x00\n        /* \"#utility.yul\":22986:23001   */\n      revert\n        /* \"#utility.yul\":23013:23246   */\n    tag_276:\n        /* \"#utility.yul\":23153:23187   */\n      0x6d6178696d756d206e6f206f662063616e646964617465207065722073657373\n        /* \"#utility.yul\":23149:23150   */\n      0x00\n        /* \"#utility.yul\":23141:23147   */\n      dup3\n        /* \"#utility.yul\":23137:23151   */\n      add\n        /* \"#utility.yul\":23130:23188   */\n      mstore\n        /* \"#utility.yul\":23222:23238   */\n      0x696f6e2072656769737465726564000000000000000000000000000000000000\n        /* \"#utility.yul\":23217:23219   */\n      0x20\n        /* \"#utility.yul\":23209:23215   */\n      dup3\n        /* \"#utility.yul\":23205:23220   */\n      add\n        /* \"#utility.yul\":23198:23239   */\n      mstore\n        /* \"#utility.yul\":23013:23246   */\n      pop\n      jump\t// out\n        /* \"#utility.yul\":23252:23618   */\n    tag_277:\n        /* \"#utility.yul\":23394:23397   */\n      0x00\n        /* \"#utility.yul\":23415:23482   */\n      tag_536\n        /* \"#utility.yul\":23479:23481   */\n      0x2e\n        /* \"#utility.yul\":23474:23477   */\n      dup4\n        /* \"#utility.yul\":23415:23482   */\n      tag_249\n      jump\t// in\n    tag_536:\n        /* \"#utility.yul\":23408:23482   */\n      swap2\n      pop\n        /* \"#utility.yul\":23491:23584   */\n      tag_537\n        /* \"#utility.yul\":23580:23583   */\n      dup3\n        /* \"#utility.yul\":23491:23584   */\n      tag_276\n      jump\t// in\n    tag_537:\n        /* \"#utility.yul\":23609:23611   */\n      0x40\n        /* \"#utility.yul\":23604:23607   */\n      dup3\n        /* \"#utility.yul\":23600:23612   */\n      add\n        /* \"#utility.yul\":23593:23612   */\n      swap1\n      pop\n        /* \"#utility.yul\":23252:23618   */\n      swap2\n      swap1\n      pop\n      jump\t// out\n        /* \"#utility.yul\":23624:24043   */\n    tag_82:\n        /* \"#utility.yul\":23790:23794   */\n      0x00\n        /* \"#utility.yul\":23828:23830   */\n      0x20\n        /* \"#utility.yul\":23817:23826   */\n      dup3\n        /* \"#utility.yul\":23813:23831   */\n      add\n        /* \"#utility.yul\":23805:23831   */\n      swap1\n      pop\n        /* \"#utility.yul\":23877:23886   */\n      dup2\n        /* \"#utility.yul\":23871:23875   */\n      dup2\n        /* \"#utility.yul\":23867:23887   */\n      sub\n        /* \"#utility.yul\":23863:23864   */\n      0x00\n        /* \"#utility.yul\":23852:23861   */\n      dup4\n        /* \"#utility.yul\":23848:23865   */\n      add\n        /* \"#utility.yul\":23841:23888   */\n      mstore\n        /* \"#utility.yul\":23905:24036   */\n      tag_539\n        /* \"#utility.yul\":24031:24035   */\n      dup2\n        /* \"#utility.yul\":23905:24036   */\n      tag_277\n      jump\t// in\n    tag_539:\n        /* \"#utility.yul\":23897:24036   */\n      swap1\n      pop\n        /* \"#utility.yul\":23624:24043   */\n      swap2\n      swap1\n      pop\n      jump\t// out\n        /* \"#utility.yul\":24049:24229   */\n    tag_278:\n        /* \"#utility.yul\":24097:24174   */\n      0x4e487b7100000000000000000000000000000000000000000000000000000000\n        /* \"#utility.yul\":24094:24095   */\n      0x00\n        /* \"#utility.yul\":24087:24175   */\n      mstore\n        /* \"#utility.yul\":24194:24198   */\n      0x11\n        /* \"#utility.yul\":24191:24192   */\n      0x04\n        /* \"#utility.yul\":24184:24199   */\n      mstore\n        /* \"#utility.yul\":24218:24222   */\n      0x24\n        /* \"#utility.yul\":24215:24216   */\n      0x00\n        /* \"#utility.yul\":24208:24223   */\n      revert\n        /* \"#utility.yul\":24235:24410   */\n    tag_85:\n        /* \"#utility.yul\":24273:24276   */\n      0x00\n        /* \"#utility.yul\":24296:24319   */\n      tag_542\n        /* \"#utility.yul\":24313:24318   */\n      dup3\n        /* \"#utility.yul\":24296:24319   */\n      tag_252\n      jump\t// in\n    tag_542:\n        /* \"#utility.yul\":24287:24319   */\n      swap2\n      pop\n        /* \"#utility.yul\":24341:24351   */\n      0xffffffff\n        /* \"#utility.yul\":24334:24339   */\n      dup3\n        /* \"#utility.yul\":24331:24352   */\n      eq\n        /* \"#utility.yul\":24328:24375   */\n      iszero\n      tag_543\n      jumpi\n        /* \"#utility.yul\":24355:24373   */\n      tag_544\n      tag_278\n      jump\t// in\n    tag_544:\n        /* \"#utility.yul\":24328:24375   */\n    tag_543:\n        /* \"#utility.yul\":24402:24403   */\n      0x01\n        /* \"#utility.yul\":24395:24400   */\n      dup3\n        /* \"#utility.yul\":24391:24404   */\n      add\n        /* \"#utility.yul\":24384:24404   */\n      swap1\n      pop\n        /* \"#utility.yul\":24235:24410   */\n      swap2\n      swap1\n      pop\n      jump\t// out\n        /* \"#utility.yul\":24416:24638   */\n    tag_87:\n        /* \"#utility.yul\":24509:24513   */\n      0x00\n        /* \"#utility.yul\":24547:24549   */\n      0x20\n        /* \"#utility.yul\":24536:24545   */\n      dup3\n        /* \"#utility.yul\":24532:24550   */\n      add\n        /* \"#utility.yul\":24524:24550   */\n      swap1\n      pop\n        /* \"#utility.yul\":24560:24631   */\n      tag_546\n        /* \"#utility.yul\":24628:24629   */\n      0x00\n        /* \"#utility.yul\":24617:24626   */\n      dup4\n        /* \"#utility.yul\":24613:24630   */\n      add\n        /* \"#utility.yul\":24604:24610   */\n      dup5\n        /* \"#utility.yul\":24560:24631   */\n      tag_236\n      jump\t// in\n    tag_546:\n        /* \"#utility.yul\":24416:24638   */\n      swap3\n      swap2\n      pop\n      pop\n      jump\t// out\n        /* \"#utility.yul\":24644:24809   */\n    tag_279:\n        /* \"#utility.yul\":24784:24801   */\n      0x4e6f20706f6c6c20637265617465640000000000000000000000000000000000\n        /* \"#utility.yul\":24780:24781   */\n      0x00\n        /* \"#utility.yul\":24772:24778   */\n      dup3\n        /* \"#utility.yul\":24768:24782   */\n      add\n        /* \"#utility.yul\":24761:24802   */\n      mstore\n        /* \"#utility.yul\":24644:24809   */\n      pop\n      jump\t// out\n        /* \"#utility.yul\":24815:25181   */\n    tag_280:\n        /* \"#utility.yul\":24957:24960   */\n      0x00\n        /* \"#utility.yul\":24978:25045   */\n      tag_549\n        /* \"#utility.yul\":25042:25044   */\n      0x0f\n        /* \"#utility.yul\":25037:25040   */\n      dup4\n        /* \"#utility.yul\":24978:25045   */\n      tag_249\n      jump\t// in\n    tag_549:\n        /* \"#utility.yul\":24971:25045   */\n      swap2\n      pop\n        /* \"#utility.yul\":25054:25147   */\n      tag_550\n        /* \"#utility.yul\":25143:25146   */\n      dup3\n        /* \"#utility.yul\":25054:25147   */\n      tag_279\n      jump\t// in\n    tag_550:\n        /* \"#utility.yul\":25172:25174   */\n      0x20\n        /* \"#utility.yul\":25167:25170   */\n      dup3\n        /* \"#utility.yul\":25163:25175   */\n      add\n        /* \"#utility.yul\":25156:25175   */\n      swap1\n      pop\n        /* \"#utility.yul\":24815:25181   */\n      swap2\n      swap1\n      pop\n      jump\t// out\n        /* \"#utility.yul\":25187:25606   */\n    tag_95:\n        /* \"#utility.yul\":25353:25357   */\n      0x00\n        /* \"#utility.yul\":25391:25393   */\n      0x20\n        /* \"#utility.yul\":25380:25389   */\n      dup3\n        /* \"#utility.yul\":25376:25394   */\n      add\n        /* \"#utility.yul\":25368:25394   */\n      swap1\n      pop\n        /* \"#utility.yul\":25440:25449   */\n      dup2\n        /* \"#utility.yul\":25434:25438   */\n      dup2\n        /* \"#utility.yul\":25430:25450   */\n      sub\n        /* \"#utility.yul\":25426:25427   */\n      0x00\n        /* \"#utility.yul\":25415:25424   */\n      dup4\n        /* \"#utility.yul\":25411:25428   */\n      add\n        /* \"#utility.yul\":25404:25451   */\n      mstore\n        /* \"#utility.yul\":25468:25599   */\n      tag_552\n        /* \"#utility.yul\":25594:25598   */\n      dup2\n        /* \"#utility.yul\":25468:25599   */\n      tag_280\n      jump\t// in\n    tag_552:\n        /* \"#utility.yul\":25460:25599   */\n      swap1\n      pop\n        /* \"#utility.yul\":25187:25606   */\n      swap2\n      swap1\n      pop\n      jump\t// out\n        /* \"#utility.yul\":25612:25792   */\n    tag_108:\n        /* \"#utility.yul\":25660:25737   */\n      0x4e487b7100000000000000000000000000000000000000000000000000000000\n        /* \"#utility.yul\":25657:25658   */\n      0x00\n        /* \"#utility.yul\":25650:25738   */\n      mstore\n        /* \"#utility.yul\":25757:25761   */\n      0x32\n        /* \"#utility.yul\":25754:25755   */\n      0x04\n        /* \"#utility.yul\":25747:25762   */\n      mstore\n        /* \"#utility.yul\":25781:25785   */\n      0x24\n        /* \"#utility.yul\":25778:25779   */\n      0x00\n        /* \"#utility.yul\":25771:25786   */\n      revert\n        /* \"#utility.yul\":25798:26031   */\n    tag_116:\n        /* \"#utility.yul\":25837:25840   */\n      0x00\n        /* \"#utility.yul\":25860:25884   */\n      tag_555\n        /* \"#utility.yul\":25878:25883   */\n      dup3\n        /* \"#utility.yul\":25860:25884   */\n      tag_218\n      jump\t// in\n    tag_555:\n        /* \"#utility.yul\":25851:25884   */\n      swap2\n      pop\n        /* \"#utility.yul\":25906:25972   */\n      0xffffffffffffffffffffffffffffffffffffffffffffffffffffffffffffffff\n        /* \"#utility.yul\":25899:25904   */\n      dup3\n        /* \"#utility.yul\":25896:25973   */\n      eq\n        /* \"#utility.yul\":25893:25996   */\n      iszero\n      tag_556\n      jumpi\n        /* \"#utility.yul\":25976:25994   */\n      tag_557\n      tag_278\n      jump\t// in\n    tag_557:\n        /* \"#utility.yul\":25893:25996   */\n    tag_556:\n        /* \"#utility.yul\":26023:26024   */\n      0x01\n        /* \"#utility.yul\":26016:26021   */\n      dup3\n        /* \"#utility.yul\":26012:26025   */\n      add\n        /* \"#utility.yul\":26005:26025   */\n      swap1\n      pop\n        /* \"#utility.yul\":25798:26031   */\n      swap2\n      swap1\n      pop\n      jump\t// out\n        /* \"#utility.yul\":26037:26131   */\n    tag_281:\n        /* \"#utility.yul\":26070:26078   */\n      0x00\n        /* \"#utility.yul\":26118:26123   */\n      dup2\n        /* \"#utility.yul\":26114:26116   */\n      0x60\n        /* \"#utility.yul\":26110:26124   */\n      shl\n        /* \"#utility.yul\":26089:26124   */\n      swap1\n      pop\n        /* \"#utility.yul\":26037:26131   */\n      swap2\n      swap1\n      pop\n      jump\t// out\n        /* \"#utility.yul\":26137:26231   */\n    tag_282:\n        /* \"#utility.yul\":26176:26183   */\n      0x00\n        /* \"#utility.yul\":26205:26225   */\n      tag_560\n        /* \"#utility.yul\":26219:26224   */\n      dup3\n        /* \"#utility.yul\":26205:26225   */\n      tag_281\n      jump\t// in\n    tag_560:\n        /* \"#utility.yul\":26194:26225   */\n      swap1\n      pop\n        /* \"#utility.yul\":26137:26231   */\n      swap2\n      swap1\n      pop\n      jump\t// out\n        /* \"#utility.yul\":26237:26337   */\n    tag_283:\n        /* \"#utility.yul\":26276:26283   */\n      0x00\n        /* \"#utility.yul\":26305:26331   */\n      tag_562\n        /* \"#utility.yul\":26325:26330   */\n      dup3\n        /* \"#utility.yul\":26305:26331   */\n      tag_282\n      jump\t// in\n    tag_562:\n        /* \"#utility.yul\":26294:26331   */\n      swap1\n      pop\n        /* \"#utility.yul\":26237:26337   */\n      swap2\n      swap1\n      pop\n      jump\t// out\n        /* \"#utility.yul\":26343:26500   */\n    tag_284:\n        /* \"#utility.yul\":26448:26493   */\n      tag_564\n        /* \"#utility.yul\":26468:26492   */\n      tag_565\n        /* \"#utility.yul\":26486:26491   */\n      dup3\n        /* \"#utility.yul\":26468:26492   */\n      tag_215\n      jump\t// in\n    tag_565:\n        /* \"#utility.yul\":26448:26493   */\n      tag_283\n      jump\t// in\n    tag_564:\n        /* \"#utility.yul\":26443:26446   */\n      dup3\n        /* \"#utility.yul\":26436:26494   */\n      mstore\n        /* \"#utility.yul\":26343:26500   */\n      pop\n      pop\n      jump\t// out\n        /* \"#utility.yul\":26506:26654   */\n    tag_285:\n        /* \"#utility.yul\":26608:26619   */\n      0x00\n        /* \"#utility.yul\":26645:26648   */\n      dup2\n        /* \"#utility.yul\":26630:26648   */\n      swap1\n      pop\n        /* \"#utility.yul\":26506:26654   */\n      swap3\n      swap2\n      pop\n      pop\n      jump\t// out\n        /* \"#utility.yul\":26660:26833   */\n    tag_286:\n        /* \"#utility.yul\":26800:26825   */\n      0x6d6574617472616e73616374696f6e20566f74696e6720000000000000000000\n        /* \"#utility.yul\":26796:26797   */\n      0x00\n        /* \"#utility.yul\":26788:26794   */\n      dup3\n        /* \"#utility.yul\":26784:26798   */\n      add\n        /* \"#utility.yul\":26777:26826   */\n      mstore\n        /* \"#utility.yul\":26660:26833   */\n      pop\n      jump\t// out\n        /* \"#utility.yul\":26839:27241   */\n    tag_287:\n        /* \"#utility.yul\":26999:27002   */\n      0x00\n        /* \"#utility.yul\":27020:27105   */\n      tag_569\n        /* \"#utility.yul\":27102:27104   */\n      0x17\n        /* \"#utility.yul\":27097:27100   */\n      dup4\n        /* \"#utility.yul\":27020:27105   */\n      tag_285\n      jump\t// in\n    tag_569:\n        /* \"#utility.yul\":27013:27105   */\n      swap2\n      pop\n        /* \"#utility.yul\":27114:27207   */\n      tag_570\n        /* \"#utility.yul\":27203:27206   */\n      dup3\n        /* \"#utility.yul\":27114:27207   */\n      tag_286\n      jump\t// in\n    tag_570:\n        /* \"#utility.yul\":27232:27234   */\n      0x17\n        /* \"#utility.yul\":27227:27230   */\n      dup3\n        /* \"#utility.yul\":27223:27235   */\n      add\n        /* \"#utility.yul\":27216:27235   */\n      swap1\n      pop\n        /* \"#utility.yul\":26839:27241   */\n      swap2\n      swap1\n      pop\n      jump\t// out\n        /* \"#utility.yul\":27247:27326   */\n    tag_288:\n        /* \"#utility.yul\":27286:27293   */\n      0x00\n        /* \"#utility.yul\":27315:27320   */\n      dup2\n        /* \"#utility.yul\":27304:27320   */\n      swap1\n      pop\n        /* \"#utility.yul\":27247:27326   */\n      swap2\n      swap1\n      pop\n      jump\t// out\n        /* \"#utility.yul\":27332:27489   */\n    tag_289:\n        /* \"#utility.yul\":27437:27482   */\n      tag_573\n        /* \"#utility.yul\":27457:27481   */\n      tag_574\n        /* \"#utility.yul\":27475:27480   */\n      dup3\n        /* \"#utility.yul\":27457:27481   */\n      tag_218\n      jump\t// in\n    tag_574:\n        /* \"#utility.yul\":27437:27482   */\n      tag_288\n      jump\t// in\n    tag_573:\n        /* \"#utility.yul\":27432:27435   */\n      dup3\n        /* \"#utility.yul\":27425:27483   */\n      mstore\n        /* \"#utility.yul\":27332:27489   */\n      pop\n      pop\n      jump\t// out\n        /* \"#utility.yul\":27495:28581   */\n    tag_121:\n        /* \"#utility.yul\":27820:27823   */\n      0x00\n        /* \"#utility.yul\":27835:27910   */\n      tag_576\n        /* \"#utility.yul\":27906:27909   */\n      dup3\n        /* \"#utility.yul\":27897:27903   */\n      dup9\n        /* \"#utility.yul\":27835:27910   */\n      tag_284\n      jump\t// in\n    tag_576:\n        /* \"#utility.yul\":27935:27937   */\n      0x14\n        /* \"#utility.yul\":27930:27933   */\n      dup3\n        /* \"#utility.yul\":27926:27938   */\n      add\n        /* \"#utility.yul\":27919:27938   */\n      swap2\n      pop\n        /* \"#utility.yul\":27955:28103   */\n      tag_577\n        /* \"#utility.yul\":28099:28102   */\n      dup3\n        /* \"#utility.yul\":27955:28103   */\n      tag_287\n      jump\t// in\n    tag_577:\n        /* \"#utility.yul\":27948:28103   */\n      swap2\n      pop\n        /* \"#utility.yul\":28113:28188   */\n      tag_578\n        /* \"#utility.yul\":28184:28187   */\n      dup3\n        /* \"#utility.yul\":28175:28181   */\n      dup8\n        /* \"#utility.yul\":28113:28188   */\n      tag_284\n      jump\t// in\n    tag_578:\n        /* \"#utility.yul\":28213:28215   */\n      0x14\n        /* \"#utility.yul\":28208:28211   */\n      dup3\n        /* \"#utility.yul\":28204:28216   */\n      add\n        /* \"#utility.yul\":28197:28216   */\n      swap2\n      pop\n        /* \"#utility.yul\":28226:28301   */\n      tag_579\n        /* \"#utility.yul\":28297:28300   */\n      dup3\n        /* \"#utility.yul\":28288:28294   */\n      dup7\n        /* \"#utility.yul\":28226:28301   */\n      tag_289\n      jump\t// in\n    tag_579:\n        /* \"#utility.yul\":28326:28328   */\n      0x20\n        /* \"#utility.yul\":28321:28324   */\n      dup3\n        /* \"#utility.yul\":28317:28329   */\n      add\n        /* \"#utility.yul\":28310:28329   */\n      swap2\n      pop\n        /* \"#utility.yul\":28339:28414   */\n      tag_580\n        /* \"#utility.yul\":28410:28413   */\n      dup3\n        /* \"#utility.yul\":28401:28407   */\n      dup6\n        /* \"#utility.yul\":28339:28414   */\n      tag_289\n      jump\t// in\n    tag_580:\n        /* \"#utility.yul\":28439:28441   */\n      0x20\n        /* \"#utility.yul\":28434:28437   */\n      dup3\n        /* \"#utility.yul\":28430:28442   */\n      add\n        /* \"#utility.yul\":28423:28442   */\n      swap2\n      pop\n        /* \"#utility.yul\":28452:28527   */\n      tag_581\n        /* \"#utility.yul\":28523:28526   */\n      dup3\n        /* \"#utility.yul\":28514:28520   */\n      dup5\n        /* \"#utility.yul\":28452:28527   */\n      tag_289\n      jump\t// in\n    tag_581:\n        /* \"#utility.yul\":28552:28554   */\n      0x20\n        /* \"#utility.yul\":28547:28550   */\n      dup3\n        /* \"#utility.yul\":28543:28555   */\n      add\n        /* \"#utility.yul\":28536:28555   */\n      swap2\n      pop\n        /* \"#utility.yul\":28572:28575   */\n      dup2\n        /* \"#utility.yul\":28565:28575   */\n      swap1\n      pop\n        /* \"#utility.yul\":27495:28581   */\n      swap7\n      swap6\n      pop\n      pop\n      pop\n      pop\n      pop\n      pop\n      jump\t// out\n        /* \"#utility.yul\":28587:28816   */\n    tag_290:\n        /* \"#utility.yul\":28727:28761   */\n      0x54686973206164647265737320646f6573206e6f742065786973742061732061\n        /* \"#utility.yul\":28723:28724   */\n      0x00\n        /* \"#utility.yul\":28715:28721   */\n      dup3\n        /* \"#utility.yul\":28711:28725   */\n      add\n        /* \"#utility.yul\":28704:28762   */\n      mstore\n        /* \"#utility.yul\":28796:28808   */\n      0x2063616e64696461746500000000000000000000000000000000000000000000\n        /* \"#utility.yul\":28791:28793   */\n      0x20\n        /* \"#utility.yul\":28783:28789   */\n      dup3\n        /* \"#utility.yul\":28779:28794   */\n      add\n        /* \"#utility.yul\":28772:28809   */\n      mstore\n        /* \"#utility.yul\":28587:28816   */\n      pop\n      jump\t// out\n        /* \"#utility.yul\":28822:29188   */\n    tag_291:\n        /* \"#utility.yul\":28964:28967   */\n      0x00\n        /* \"#utility.yul\":28985:29052   */\n      tag_584\n        /* \"#utility.yul\":29049:29051   */\n      0x2a\n        /* \"#utility.yul\":29044:29047   */\n      dup4\n        /* \"#utility.yul\":28985:29052   */\n      tag_249\n      jump\t// in\n    tag_584:\n        /* \"#utility.yul\":28978:29052   */\n      swap2\n      pop\n        /* \"#utility.yul\":29061:29154   */\n      tag_585\n        /* \"#utility.yul\":29150:29153   */\n      dup3\n        /* \"#utility.yul\":29061:29154   */\n      tag_290\n      jump\t// in\n    tag_585:\n        /* \"#utility.yul\":29179:29181   */\n      0x40\n        /* \"#utility.yul\":29174:29177   */\n      dup3\n        /* \"#utility.yul\":29170:29182   */\n      add\n        /* \"#utility.yul\":29163:29182   */\n      swap1\n      pop\n        /* \"#utility.yul\":28822:29188   */\n      swap2\n      swap1\n      pop\n      jump\t// out\n        /* \"#utility.yul\":29194:29613   */\n    tag_125:\n        /* \"#utility.yul\":29360:29364   */\n      0x00\n        /* \"#utility.yul\":29398:29400   */\n      0x20\n        /* \"#utility.yul\":29387:29396   */\n      dup3\n        /* \"#utility.yul\":29383:29401   */\n      add\n        /* \"#utility.yul\":29375:29401   */\n      swap1\n      pop\n        /* \"#utility.yul\":29447:29456   */\n      dup2\n        /* \"#utility.yul\":29441:29445   */\n      dup2\n        /* \"#utility.yul\":29437:29457   */\n      sub\n        /* \"#utility.yul\":29433:29434   */\n      0x00\n        /* \"#utility.yul\":29422:29431   */\n      dup4\n        /* \"#utility.yul\":29418:29435   */\n      add\n        /* \"#utility.yul\":29411:29458   */\n      mstore\n        /* \"#utility.yul\":29475:29606   */\n      tag_587\n        /* \"#utility.yul\":29601:29605   */\n      dup2\n        /* \"#utility.yul\":29475:29606   */\n      tag_291\n      jump\t// in\n    tag_587:\n        /* \"#utility.yul\":29467:29606   */\n      swap1\n      pop\n        /* \"#utility.yul\":29194:29613   */\n      swap2\n      swap1\n      pop\n      jump\t// out\n        /* \"#utility.yul\":29619:29785   */\n    tag_292:\n        /* \"#utility.yul\":29759:29777   */\n      0x766f74696e672068617320656e64656400000000000000000000000000000000\n        /* \"#utility.yul\":29755:29756   */\n      0x00\n        /* \"#utility.yul\":29747:29753   */\n      dup3\n        /* \"#utility.yul\":29743:29757   */\n      add\n        /* \"#utility.yul\":29736:29778   */\n      mstore\n        /* \"#utility.yul\":29619:29785   */\n      pop\n      jump\t// out\n        /* \"#utility.yul\":29791:30157   */\n    tag_293:\n        /* \"#utility.yul\":29933:29936   */\n      0x00\n        /* \"#utility.yul\":29954:30021   */\n      tag_590\n        /* \"#utility.yul\":30018:30020   */\n      0x10\n        /* \"#utility.yul\":30013:30016   */\n      dup4\n        /* \"#utility.yul\":29954:30021   */\n      tag_249\n      jump\t// in\n    tag_590:\n        /* \"#utility.yul\":29947:30021   */\n      swap2\n      pop\n        /* \"#utility.yul\":30030:30123   */\n      tag_591\n        /* \"#utility.yul\":30119:30122   */\n      dup3\n        /* \"#utility.yul\":30030:30123   */\n      tag_292\n      jump\t// in\n    tag_591:\n        /* \"#utility.yul\":30148:30150   */\n      0x20\n        /* \"#utility.yul\":30143:30146   */\n      dup3\n        /* \"#utility.yul\":30139:30151   */\n      add\n        /* \"#utility.yul\":30132:30151   */\n      swap1\n      pop\n        /* \"#utility.yul\":29791:30157   */\n      swap2\n      swap1\n      pop\n      jump\t// out\n        /* \"#utility.yul\":30163:30582   */\n    tag_129:\n        /* \"#utility.yul\":30329:30333   */\n      0x00\n        /* \"#utility.yul\":30367:30369   */\n      0x20\n        /* \"#utility.yul\":30356:30365   */\n      dup3\n        /* \"#utility.yul\":30352:30370   */\n      add\n        /* \"#utility.yul\":30344:30370   */\n      swap1\n      pop\n        /* \"#utility.yul\":30416:30425   */\n      dup2\n        /* \"#utility.yul\":30410:30414   */\n      dup2\n        /* \"#utility.yul\":30406:30426   */\n      sub\n        /* \"#utility.yul\":30402:30403   */\n      0x00\n        /* \"#utility.yul\":30391:30400   */\n      dup4\n        /* \"#utility.yul\":30387:30404   */\n      add\n        /* \"#utility.yul\":30380:30427   */\n      mstore\n        /* \"#utility.yul\":30444:30575   */\n      tag_593\n        /* \"#utility.yul\":30570:30574   */\n      dup2\n        /* \"#utility.yul\":30444:30575   */\n      tag_293\n      jump\t// in\n    tag_593:\n        /* \"#utility.yul\":30436:30575   */\n      swap1\n      pop\n        /* \"#utility.yul\":30163:30582   */\n      swap2\n      swap1\n      pop\n      jump\t// out\n        /* \"#utility.yul\":30588:30755   */\n    tag_294:\n        /* \"#utility.yul\":30728:30747   */\n      0x596f7520616c726561647920766f746564000000000000000000000000000000\n        /* \"#utility.yul\":30724:30725   */\n      0x00\n        /* \"#utility.yul\":30716:30722   */\n      dup3\n        /* \"#utility.yul\":30712:30726   */\n      add\n        /* \"#utility.yul\":30705:30748   */\n      mstore\n        /* \"#utility.yul\":30588:30755   */\n      pop\n      jump\t// out\n        /* \"#utility.yul\":30761:31127   */\n    tag_295:\n        /* \"#utility.yul\":30903:30906   */\n      0x00\n        /* \"#utility.yul\":30924:30991   */\n      tag_596\n        /* \"#utility.yul\":30988:30990   */\n      0x11\n        /* \"#utility.yul\":30983:30986   */\n      dup4\n        /* \"#utility.yul\":30924:30991   */\n      tag_249\n      jump\t// in\n    tag_596:\n        /* \"#utility.yul\":30917:30991   */\n      swap2\n      pop\n        /* \"#utility.yul\":31000:31093   */\n      tag_597\n        /* \"#utility.yul\":31089:31092   */\n      dup3\n        /* \"#utility.yul\":31000:31093   */\n      tag_294\n      jump\t// in\n    tag_597:\n        /* \"#utility.yul\":31118:31120   */\n      0x20\n        /* \"#utility.yul\":31113:31116   */\n      dup3\n        /* \"#utility.yul\":31109:31121   */\n      add\n        /* \"#utility.yul\":31102:31121   */\n      swap1\n      pop\n        /* \"#utility.yul\":30761:31127   */\n      swap2\n      swap1\n      pop\n      jump\t// out\n        /* \"#utility.yul\":31133:31552   */\n    tag_139:\n        /* \"#utility.yul\":31299:31303   */\n      0x00\n        /* \"#utility.yul\":31337:31339   */\n      0x20\n        /* \"#utility.yul\":31326:31335   */\n      dup3\n        /* \"#utility.yul\":31322:31340   */\n      add\n        /* \"#utility.yul\":31314:31340   */\n      swap1\n      pop\n        /* \"#utility.yul\":31386:31395   */\n      dup2\n        /* \"#utility.yul\":31380:31384   */\n      dup2\n        /* \"#utility.yul\":31376:31396   */\n      sub\n        /* \"#utility.yul\":31372:31373   */\n      0x00\n        /* \"#utility.yul\":31361:31370   */\n      dup4\n        /* \"#utility.yul\":31357:31374   */\n      add\n        /* \"#utility.yul\":31350:31397   */\n      mstore\n        /* \"#utility.yul\":31414:31545   */\n      tag_599\n        /* \"#utility.yul\":31540:31544   */\n      dup2\n        /* \"#utility.yul\":31414:31545   */\n      tag_295\n      jump\t// in\n    tag_599:\n        /* \"#utility.yul\":31406:31545   */\n      swap1\n      pop\n        /* \"#utility.yul\":31133:31552   */\n      swap2\n      swap1\n      pop\n      jump\t// out\n        /* \"#utility.yul\":31558:31878   */\n    tag_143:\n        /* \"#utility.yul\":31673:31677   */\n      0x00\n        /* \"#utility.yul\":31711:31713   */\n      0x40\n        /* \"#utility.yul\":31700:31709   */\n      dup3\n        /* \"#utility.yul\":31696:31714   */\n      add\n        /* \"#utility.yul\":31688:31714   */\n      swap1\n      pop\n        /* \"#utility.yul\":31724:31795   */\n      tag_601\n        /* \"#utility.yul\":31792:31793   */\n      0x00\n        /* \"#utility.yul\":31781:31790   */\n      dup4\n        /* \"#utility.yul\":31777:31794   */\n      add\n        /* \"#utility.yul\":31768:31774   */\n      dup6\n        /* \"#utility.yul\":31724:31795   */\n      tag_236\n      jump\t// in\n    tag_601:\n        /* \"#utility.yul\":31805:31871   */\n      tag_602\n        /* \"#utility.yul\":31867:31869   */\n      0x20\n        /* \"#utility.yul\":31856:31865   */\n      dup4\n        /* \"#utility.yul\":31852:31870   */\n      add\n        /* \"#utility.yul\":31843:31849   */\n      dup5\n        /* \"#utility.yul\":31805:31871   */\n      tag_255\n      jump\t// in\n    tag_602:\n        /* \"#utility.yul\":31558:31878   */\n      swap4\n      swap3\n      pop\n      pop\n      pop\n      jump\t// out\n        /* \"#utility.yul\":31884:32050   */\n    tag_296:\n        /* \"#utility.yul\":32024:32042   */\n      0x6e6f74207468652063686169726d616e00000000000000000000000000000000\n        /* \"#utility.yul\":32020:32021   */\n      0x00\n        /* \"#utility.yul\":32012:32018   */\n      dup3\n        /* \"#utility.yul\":32008:32022   */\n      add\n        /* \"#utility.yul\":32001:32043   */\n      mstore\n        /* \"#utility.yul\":31884:32050   */\n      pop\n      jump\t// out\n        /* \"#utility.yul\":32056:32422   */\n    tag_297:\n        /* \"#utility.yul\":32198:32201   */\n      0x00\n        /* \"#utility.yul\":32219:32286   */\n      tag_605\n        /* \"#utility.yul\":32283:32285   */\n      0x10\n        /* \"#utility.yul\":32278:32281   */\n      dup4\n        /* \"#utility.yul\":32219:32286   */\n      tag_249\n      jump\t// in\n    tag_605:\n        /* \"#utility.yul\":32212:32286   */\n      swap2\n      pop\n        /* \"#utility.yul\":32295:32388   */\n      tag_606\n        /* \"#utility.yul\":32384:32387   */\n      dup3\n        /* \"#utility.yul\":32295:32388   */\n      tag_296\n      jump\t// in\n    tag_606:\n        /* \"#utility.yul\":32413:32415   */\n      0x20\n        /* \"#utility.yul\":32408:32411   */\n      dup3\n        /* \"#utility.yul\":32404:32416   */\n      add\n        /* \"#utility.yul\":32397:32416   */\n      swap1\n      pop\n        /* \"#utility.yul\":32056:32422   */\n      swap2\n      swap1\n      pop\n      jump\t// out\n        /* \"#utility.yul\":32428:32847   */\n    tag_147:\n        /* \"#utility.yul\":32594:32598   */\n      0x00\n        /* \"#utility.yul\":32632:32634   */\n      0x20\n        /* \"#utility.yul\":32621:32630   */\n      dup3\n        /* \"#utility.yul\":32617:32635   */\n      add\n        /* \"#utility.yul\":32609:32635   */\n      swap1\n      pop\n        /* \"#utility.yul\":32681:32690   */\n      dup2\n        /* \"#utility.yul\":32675:32679   */\n      dup2\n        /* \"#utility.yul\":32671:32691   */\n      sub\n        /* \"#utility.yul\":32667:32668   */\n      0x00\n        /* \"#utility.yul\":32656:32665   */\n      dup4\n        /* \"#utility.yul\":32652:32669   */\n      add\n        /* \"#utility.yul\":32645:32692   */\n      mstore\n        /* \"#utility.yul\":32709:32840   */\n      tag_608\n        /* \"#utility.yul\":32835:32839   */\n      dup2\n        /* \"#utility.yul\":32709:32840   */\n      tag_297\n      jump\t// in\n    tag_608:\n        /* \"#utility.yul\":32701:32840   */\n      swap1\n      pop\n        /* \"#utility.yul\":32428:32847   */\n      swap2\n      swap1\n      pop\n      jump\t// out\n        /* \"#utility.yul\":32853:33033   */\n    tag_298:\n        /* \"#utility.yul\":32901:32978   */\n      0x4e487b7100000000000000000000000000000000000000000000000000000000\n        /* \"#utility.yul\":32898:32899   */\n      0x00\n        /* \"#utility.yul\":32891:32979   */\n      mstore\n        /* \"#utility.yul\":32998:33002   */\n      0x22\n        /* \"#utility.yul\":32995:32996   */\n      0x04\n        /* \"#utility.yul\":32988:33003   */\n      mstore\n        /* \"#utility.yul\":33022:33026   */\n      0x24\n        /* \"#utility.yul\":33019:33020   */\n      0x00\n        /* \"#utility.yul\":33012:33027   */\n      revert\n        /* \"#utility.yul\":33039:33359   */\n    tag_149:\n        /* \"#utility.yul\":33083:33089   */\n      0x00\n        /* \"#utility.yul\":33120:33121   */\n      0x02\n        /* \"#utility.yul\":33114:33118   */\n      dup3\n        /* \"#utility.yul\":33110:33122   */\n      div\n        /* \"#utility.yul\":33100:33122   */\n      swap1\n      pop\n        /* \"#utility.yul\":33167:33168   */\n      0x01\n        /* \"#utility.yul\":33161:33165   */\n      dup3\n        /* \"#utility.yul\":33157:33169   */\n      and\n        /* \"#utility.yul\":33188:33206   */\n      dup1\n        /* \"#utility.yul\":33178:33259   */\n      tag_611\n      jumpi\n        /* \"#utility.yul\":33244:33248   */\n      0x7f\n        /* \"#utility.yul\":33236:33242   */\n      dup3\n        /* \"#utility.yul\":33232:33249   */\n      and\n        /* \"#utility.yul\":33222:33249   */\n      swap2\n      pop\n        /* \"#utility.yul\":33178:33259   */\n    tag_611:\n        /* \"#utility.yul\":33306:33308   */\n      0x20\n        /* \"#utility.yul\":33298:33304   */\n      dup3\n        /* \"#utility.yul\":33295:33309   */\n      lt\n        /* \"#utility.yul\":33275:33293   */\n      dup2\n        /* \"#utility.yul\":33272:33310   */\n      eq\n        /* \"#utility.yul\":33269:33353   */\n      iszero\n      tag_612\n      jumpi\n        /* \"#utility.yul\":33325:33343   */\n      tag_613\n      tag_298\n      jump\t// in\n    tag_613:\n        /* \"#utility.yul\":33269:33353   */\n    tag_612:\n        /* \"#utility.yul\":33090:33359   */\n      pop\n        /* \"#utility.yul\":33039:33359   */\n      swap2\n      swap1\n      pop\n      jump\t// out\n        /* \"#utility.yul\":33365:33742   */\n    tag_299:\n        /* \"#utility.yul\":33471:33474   */\n      0x00\n        /* \"#utility.yul\":33499:33538   */\n      tag_615\n        /* \"#utility.yul\":33532:33537   */\n      dup3\n        /* \"#utility.yul\":33499:33538   */\n      tag_248\n      jump\t// in\n    tag_615:\n        /* \"#utility.yul\":33554:33643   */\n      tag_616\n        /* \"#utility.yul\":33636:33642   */\n      dup2\n        /* \"#utility.yul\":33631:33634   */\n      dup6\n        /* \"#utility.yul\":33554:33643   */\n      tag_285\n      jump\t// in\n    tag_616:\n        /* \"#utility.yul\":33547:33643   */\n      swap4\n      pop\n        /* \"#utility.yul\":33652:33704   */\n      tag_617\n        /* \"#utility.yul\":33697:33703   */\n      dup2\n        /* \"#utility.yul\":33692:33695   */\n      dup6\n        /* \"#utility.yul\":33685:33689   */\n      0x20\n        /* \"#utility.yul\":33678:33683   */\n      dup7\n        /* \"#utility.yul\":33674:33690   */\n      add\n        /* \"#utility.yul\":33652:33704   */\n      tag_250\n      jump\t// in\n    tag_617:\n        /* \"#utility.yul\":33729:33735   */\n      dup1\n        /* \"#utility.yul\":33724:33727   */\n      dup5\n        /* \"#utility.yul\":33720:33736   */\n      add\n        /* \"#utility.yul\":33713:33736   */\n      swap2\n      pop\n        /* \"#utility.yul\":33475:33742   */\n      pop\n        /* \"#utility.yul\":33365:33742   */\n      swap3\n      swap2\n      pop\n      pop\n      jump\t// out\n        /* \"#utility.yul\":33748:34023   */\n    tag_160:\n        /* \"#utility.yul\":33880:33883   */\n      0x00\n        /* \"#utility.yul\":33902:33997   */\n      tag_619\n        /* \"#utility.yul\":33993:33996   */\n      dup3\n        /* \"#utility.yul\":33984:33990   */\n      dup5\n        /* \"#utility.yul\":33902:33997   */\n      tag_299\n      jump\t// in\n    tag_619:\n        /* \"#utility.yul\":33895:33997   */\n      swap2\n      pop\n        /* \"#utility.yul\":34014:34017   */\n      dup2\n        /* \"#utility.yul\":34007:34017   */\n      swap1\n      pop\n        /* \"#utility.yul\":33748:34023   */\n      swap3\n      swap2\n      pop\n      pop\n      jump\t// out\n        /* \"#utility.yul\":34029:34115   */\n    tag_300:\n        /* \"#utility.yul\":34064:34071   */\n      0x00\n        /* \"#utility.yul\":34104:34108   */\n      0xff\n        /* \"#utility.yul\":34097:34102   */\n      dup3\n        /* \"#utility.yul\":34093:34109   */\n      and\n        /* \"#utility.yul\":34082:34109   */\n      swap1\n      pop\n        /* \"#utility.yul\":34029:34115   */\n      swap2\n      swap1\n      pop\n      jump\t// out\n        /* \"#utility.yul\":34121:34358   */\n    tag_189:\n        /* \"#utility.yul\":34159:34162   */\n      0x00\n        /* \"#utility.yul\":34178:34196   */\n      tag_622\n        /* \"#utility.yul\":34194:34195   */\n      dup3\n        /* \"#utility.yul\":34178:34196   */\n      tag_300\n      jump\t// in\n    tag_622:\n        /* \"#utility.yul\":34173:34196   */\n      swap2\n      pop\n        /* \"#utility.yul\":34210:34228   */\n      tag_623\n        /* \"#utility.yul\":34226:34227   */\n      dup4\n        /* \"#utility.yul\":34210:34228   */\n      tag_300\n      jump\t// in\n    tag_623:\n        /* \"#utility.yul\":34205:34228   */\n      swap3\n      pop\n        /* \"#utility.yul\":34300:34301   */\n      dup3\n        /* \"#utility.yul\":34294:34298   */\n      0xff\n        /* \"#utility.yul\":34290:34302   */\n      sub\n        /* \"#utility.yul\":34287:34288   */\n      dup3\n        /* \"#utility.yul\":34284:34303   */\n      gt\n        /* \"#utility.yul\":34281:34326   */\n      iszero\n      tag_624\n      jumpi\n        /* \"#utility.yul\":34306:34324   */\n      tag_625\n      tag_278\n      jump\t// in\n    tag_625:\n        /* \"#utility.yul\":34281:34326   */\n    tag_624:\n        /* \"#utility.yul\":34350:34351   */\n      dup3\n        /* \"#utility.yul\":34347:34348   */\n      dup3\n        /* \"#utility.yul\":34343:34352   */\n      add\n        /* \"#utility.yul\":34336:34352   */\n      swap1\n      pop\n        /* \"#utility.yul\":34121:34358   */\n      swap3\n      swap2\n      pop\n      pop\n      jump\t// out\n        /* \"#utility.yul\":34364:34578   */\n    tag_301:\n        /* \"#utility.yul\":34504:34570   */\n      0x19457468657265756d205369676e6564204d6573736167653a0a333200000000\n        /* \"#utility.yul\":34500:34501   */\n      0x00\n        /* \"#utility.yul\":34492:34498   */\n      dup3\n        /* \"#utility.yul\":34488:34502   */\n      add\n        /* \"#utility.yul\":34481:34571   */\n      mstore\n        /* \"#utility.yul\":34364:34578   */\n      pop\n      jump\t// out\n        /* \"#utility.yul\":34584:34986   */\n    tag_302:\n        /* \"#utility.yul\":34744:34747   */\n      0x00\n        /* \"#utility.yul\":34765:34850   */\n      tag_628\n        /* \"#utility.yul\":34847:34849   */\n      0x1c\n        /* \"#utility.yul\":34842:34845   */\n      dup4\n        /* \"#utility.yul\":34765:34850   */\n      tag_285\n      jump\t// in\n    tag_628:\n        /* \"#utility.yul\":34758:34850   */\n      swap2\n      pop\n        /* \"#utility.yul\":34859:34952   */\n      tag_629\n        /* \"#utility.yul\":34948:34951   */\n      dup3\n        /* \"#utility.yul\":34859:34952   */\n      tag_301\n      jump\t// in\n    tag_629:\n        /* \"#utility.yul\":34977:34979   */\n      0x1c\n        /* \"#utility.yul\":34972:34975   */\n      dup3\n        /* \"#utility.yul\":34968:34980   */\n      add\n        /* \"#utility.yul\":34961:34980   */\n      swap1\n      pop\n        /* \"#utility.yul\":34584:34986   */\n      swap2\n      swap1\n      pop\n      jump\t// out\n        /* \"#utility.yul\":34992:35071   */\n    tag_303:\n        /* \"#utility.yul\":35031:35038   */\n      0x00\n        /* \"#utility.yul\":35060:35065   */\n      dup2\n        /* \"#utility.yul\":35049:35065   */\n      swap1\n      pop\n        /* \"#utility.yul\":34992:35071   */\n      swap2\n      swap1\n      pop\n      jump\t// out\n        /* \"#utility.yul\":35077:35234   */\n    tag_304:\n        /* \"#utility.yul\":35182:35227   */\n      tag_632\n        /* \"#utility.yul\":35202:35226   */\n      tag_633\n        /* \"#utility.yul\":35220:35225   */\n      dup3\n        /* \"#utility.yul\":35202:35226   */\n      tag_237\n      jump\t// in\n    tag_633:\n        /* \"#utility.yul\":35182:35227   */\n      tag_303\n      jump\t// in\n    tag_632:\n        /* \"#utility.yul\":35177:35180   */\n      dup3\n        /* \"#utility.yul\":35170:35228   */\n      mstore\n        /* \"#utility.yul\":35077:35234   */\n      pop\n      pop\n      jump\t// out\n        /* \"#utility.yul\":35240:35762   */\n    tag_194:\n        /* \"#utility.yul\":35453:35456   */\n      0x00\n        /* \"#utility.yul\":35475:35623   */\n      tag_635\n        /* \"#utility.yul\":35619:35622   */\n      dup3\n        /* \"#utility.yul\":35475:35623   */\n      tag_302\n      jump\t// in\n    tag_635:\n        /* \"#utility.yul\":35468:35623   */\n      swap2\n      pop\n        /* \"#utility.yul\":35633:35708   */\n      tag_636\n        /* \"#utility.yul\":35704:35707   */\n      dup3\n        /* \"#utility.yul\":35695:35701   */\n      dup5\n        /* \"#utility.yul\":35633:35708   */\n      tag_304\n      jump\t// in\n    tag_636:\n        /* \"#utility.yul\":35733:35735   */\n      0x20\n        /* \"#utility.yul\":35728:35731   */\n      dup3\n        /* \"#utility.yul\":35724:35736   */\n      add\n        /* \"#utility.yul\":35717:35736   */\n      swap2\n      pop\n        /* \"#utility.yul\":35753:35756   */\n      dup2\n        /* \"#utility.yul\":35746:35756   */\n      swap1\n      pop\n        /* \"#utility.yul\":35240:35762   */\n      swap3\n      swap2\n      pop\n      pop\n      jump\t// out\n        /* \"#utility.yul\":35768:35880   */\n    tag_305:\n        /* \"#utility.yul\":35851:35873   */\n      tag_638\n        /* \"#utility.yul\":35867:35872   */\n      dup2\n        /* \"#utility.yul\":35851:35873   */\n      tag_300\n      jump\t// in\n    tag_638:\n        /* \"#utility.yul\":35846:35849   */\n      dup3\n        /* \"#utility.yul\":35839:35874   */\n      mstore\n        /* \"#utility.yul\":35768:35880   */\n      pop\n      pop\n      jump\t// out\n        /* \"#utility.yul\":35886:36431   */\n    tag_196:\n        /* \"#utility.yul\":36059:36063   */\n      0x00\n        /* \"#utility.yul\":36097:36100   */\n      0x80\n        /* \"#utility.yul\":36086:36095   */\n      dup3\n        /* \"#utility.yul\":36082:36101   */\n      add\n        /* \"#utility.yul\":36074:36101   */\n      swap1\n      pop\n        /* \"#utility.yul\":36111:36182   */\n      tag_640\n        /* \"#utility.yul\":36179:36180   */\n      0x00\n        /* \"#utility.yul\":36168:36177   */\n      dup4\n        /* \"#utility.yul\":36164:36181   */\n      add\n        /* \"#utility.yul\":36155:36161   */\n      dup8\n        /* \"#utility.yul\":36111:36182   */\n      tag_238\n      jump\t// in\n    tag_640:\n        /* \"#utility.yul\":36192:36260   */\n      tag_641\n        /* \"#utility.yul\":36256:36258   */\n      0x20\n        /* \"#utility.yul\":36245:36254   */\n      dup4\n        /* \"#utility.yul\":36241:36259   */\n      add\n        /* \"#utility.yul\":36232:36238   */\n      dup7\n        /* \"#utility.yul\":36192:36260   */\n      tag_305\n      jump\t// in\n    tag_641:\n        /* \"#utility.yul\":36270:36342   */\n      tag_642\n        /* \"#utility.yul\":36338:36340   */\n      0x40\n        /* \"#utility.yul\":36327:36336   */\n      dup4\n        /* \"#utility.yul\":36323:36341   */\n      add\n        /* \"#utility.yul\":36314:36320   */\n      dup6\n        /* \"#utility.yul\":36270:36342   */\n      tag_238\n      jump\t// in\n    tag_642:\n        /* \"#utility.yul\":36352:36424   */\n      tag_643\n        /* \"#utility.yul\":36420:36422   */\n      0x60\n        /* \"#utility.yul\":36409:36418   */\n      dup4\n        /* \"#utility.yul\":36405:36423   */\n      add\n        /* \"#utility.yul\":36396:36402   */\n      dup5\n        /* \"#utility.yul\":36352:36424   */\n      tag_238\n      jump\t// in\n    tag_643:\n        /* \"#utility.yul\":35886:36431   */\n      swap6\n      swap5\n      pop\n      pop\n      pop\n      pop\n      pop\n      jump\t// out\n\n    auxdata: 0xa2646970667358221220ee08b172d7016a8f49928e95b4dadfca2f7cad5f6cb350ad1fd511b84e4a023c64736f6c634300080a0033\n}\n",
				"bytecode": {
					"linkReferences": {},
					"object": "6080604052600160005534801561001557600080fd5b50612790806100256000396000f3fe608060405234801561001057600080fd5b50600436106100b45760003560e01c8063bfe2e25d11610071578063bfe2e25d146101c7578063c10d6cec146101f7578063c57003cc14610213578063e615f1041461022f578063f762f4c014610263578063f843706114610294576100b4565b8063049d1c8b146100b957806366c5343b146100d557806367d407df146101055780638ac3c3c2146101355780638ccb59e814610165578063ae928e3e14610197575b600080fd5b6100d360048036038101906100ce9190611602565b6102b2565b005b6100ef60048036038101906100ea9190611642565b610571565b6040516100fc919061167e565b60405180910390f35b61011f600480360381019061011a9190611699565b6105ac565b60405161012c919061167e565b60405180910390f35b61014f600480360381019061014a9190611642565b6105c4565b60405161015c9190611784565b60405180910390f35b61017f600480360381019061017a9190611642565b61066e565b60405161018e93929190611873565b60405180910390f35b6101b160048036038101906101ac9190611642565b6108aa565b6040516101be919061167e565b60405180910390f35b6101e160048036038101906101dc91906118b1565b6108ce565b6040516101ee9190611931565b60405180910390f35b610211600480360381019061020c9190611a92565b610909565b005b61022d60048036038101906102289190611642565b610c17565b005b61024960048036038101906102449190611642565b610d32565b60405161025a959493929190611bd7565b60405180910390f35b61027d60048036038101906102789190611cfe565b610e3d565b60405161028b929190611d5a565b60405180910390f35b61029c610fc8565b6040516102a99190611fb3565b60405180910390f35b6000600260008381526020019081526020016000209050600073ffffffffffffffffffffffffffffffffffffffff168160010160009054906101000a900473ffffffffffffffffffffffffffffffffffffffff1673ffffffffffffffffffffffffffffffffffffffff16141561035d576040517f08c379a000000000000000000000000000000000000000000000000000000000815260040161035490612021565b60405180910390fd5b3373ffffffffffffffffffffffffffffffffffffffff168160010160009054906101000a900473ffffffffffffffffffffffffffffffffffffffff1673ffffffffffffffffffffffffffffffffffffffff16146103bd576103bc612041565b5b8060030160009054906101000a900463ffffffff1663ffffffff168160030160049054906101000a900463ffffffff1663ffffffff1610610433576040517f08c379a000000000000000000000000000000000000000000000000000000000815260040161042a906120e2565b60405180910390fd5b60018160040160008573ffffffffffffffffffffffffffffffffffffffff1673ffffffffffffffffffffffffffffffffffffffff16815260200190815260200160002060006101000a81548160ff02191690831515021790555080600201839080600181540180825580915050600190039060005260206000200160009091909190916101000a81548173ffffffffffffffffffffffffffffffffffffffff021916908373ffffffffffffffffffffffffffffffffffffffff16021790555080600301600481819054906101000a900463ffffffff168092919061051690612131565b91906101000a81548163ffffffff021916908363ffffffff160217905550507fc19c59aa93348e8fc54764bc642eca975e2639f44cc683ef8f027e1529cbda3283604051610564919061215e565b60405180910390a1505050565b6000806002600084815260200190815260200160002090508060030160049054906101000a900463ffffffff1663ffffffff16915050919050565b60036020528060005260406000206000915090505481565b606060006002600084815260200190815260200160002090508060020180548060200260200160405190810160405280929190818152602001828054801561066157602002820191906000526020600020905b8160009054906101000a900473ffffffffffffffffffffffffffffffffffffffff1673ffffffffffffffffffffffffffffffffffffffff1681526020019060010190808311610617575b5050505050915050919050565b60606000806000600260008681526020019081526020016000209050600073ffffffffffffffffffffffffffffffffffffffff168160010160009054906101000a900473ffffffffffffffffffffffffffffffffffffffff1673ffffffffffffffffffffffffffffffffffffffff16141561071e576040517f08c379a0000000000000000000000000000000000000000000000000000000008152600401610715906121c5565b60405180910390fd5b806002018054905067ffffffffffffffff81111561073f5761073e611967565b5b60405190808252806020026020018201604052801561076d5781602001602082028036833780820191505090505b50935060008060005b8360020180549050811161089657600061079089836111ac565b9050838111156107e1578093508460020182815481106107b3576107b26121e5565b5b9060005260206000200160009054906101000a900473ffffffffffffffffffffffffffffffffffffffff1692505b8460060160008660020184815481106107fd576107fc6121e5565b5b9060005260206000200160009054906101000a900473ffffffffffffffffffffffffffffffffffffffff1673ffffffffffffffffffffffffffffffffffffffff1673ffffffffffffffffffffffffffffffffffffffff16815260200190815260200160002054888381518110610876576108756121e5565b5b60200260200101818152505050808061088e90612214565b915050610776565b508581839550955095505050509193909250565b600181815481106108ba57600080fd5b906000526020600020016000915090505481565b600030858585856040516020016108e995949392919061231d565b604051602081830303815290604052805190602001209050949350505050565b8383600115156004600083815260200190815260200160002060008473ffffffffffffffffffffffffffffffffffffffff1673ffffffffffffffffffffffffffffffffffffffff16815260200190815260200160002060009054906101000a900460ff161515146109af576040517f08c379a00000000000000000000000000000000000000000000000000000000081526004016109a6906123f9565b60405180910390fd5b846000600260008381526020019081526020016000209050600115158160070160009054906101000a900460ff16151514610a1f576040517f08c379a0000000000000000000000000000000000000000000000000000000008152600401610a1690612465565b60405180910390fd5b6000610a2d898989426108ce565b90506000610a3b828861124f565b9050600073ffffffffffffffffffffffffffffffffffffffff168173ffffffffffffffffffffffffffffffffffffffff161415610a7757600080fd5b600360008273ffffffffffffffffffffffffffffffffffffffff1673ffffffffffffffffffffffffffffffffffffffff168152602001908152602001600020548814610ac257600080fd5b600360008273ffffffffffffffffffffffffffffffffffffffff1673ffffffffffffffffffffffffffffffffffffffff1681526020019081526020016000206000815480929190610b1290612214565b9190505550600060026000805481526020019081526020016000209050600015158160050160008473ffffffffffffffffffffffffffffffffffffffff1673ffffffffffffffffffffffffffffffffffffffff16815260200190815260200160002060009054906101000a900460ff16151514610bc4576040517f08c379a0000000000000000000000000000000000000000000000000000000008152600401610bbb906124d1565b60405180910390fd5b610bcf8b8b84611348565b507ff3f16a15f074b71c5138107dfc7c63b80524d5411cb967caa97d8d9f12b2fd6b8b6001604051610c029291906124f1565b60405180910390a15050505050505050505050565b60006002600083815260200190815260200160002090503373ffffffffffffffffffffffffffffffffffffffff168160010160009054906101000a900473ffffffffffffffffffffffffffffffffffffffff1673ffffffffffffffffffffffffffffffffffffffff1614610cc0576040517f08c379a0000000000000000000000000000000000000000000000000000000008152600401610cb790612566565b60405180910390fd5b8060070160009054906101000a900460ff16158160070160006101000a81548160ff0219169083151502179055508060070160009054906101000a900460ff1615157f7b224db641892626dca6975b376f464e9ac52ccfa180436175170c009b94dcd760405160405180910390a25050565b6002602052806000526040600020600091509050806000018054610d55906125b5565b80601f0160208091040260200160405190810160405280929190818152602001828054610d81906125b5565b8015610dce5780601f10610da357610100808354040283529160200191610dce565b820191906000526020600020905b815481529060010190602001808311610db157829003601f168201915b5050505050908060010160009054906101000a900473ffffffffffffffffffffffffffffffffffffffff16908060030160009054906101000a900463ffffffff16908060030160049054906101000a900463ffffffff16908060070160009054906101000a900460ff16905085565b60606000806002600080548152602001908152602001600020905084816000019080519060200190610e7092919061145d565b50338160010160006101000a81548173ffffffffffffffffffffffffffffffffffffffff021916908373ffffffffffffffffffffffffffffffffffffffff160217905550838160030160006101000a81548163ffffffff021916908363ffffffff16021790555060016000549080600181540180825580915050600190039060005260206000200160009091909190915055600080815480929190610f1490612214565b91905055508060010160009054906101000a900473ffffffffffffffffffffffffffffffffffffffff1673ffffffffffffffffffffffffffffffffffffffff168160030160009054906101000a900463ffffffff1663ffffffff1686604051610f7d9190612618565b60405180910390207f4b35e5cf01446aa899a8d21082ebf23b7497d38f2466ad49836bd1006a8d059e60405160405180910390a484848063ffffffff16905092509250509250929050565b606060018054905067ffffffffffffffff811115610fe957610fe8611967565b5b60405190808252806020026020018201604052801561102257816020015b61100f6114e3565b8152602001906001900390816110075790505b50905060005b60018054905081116111a857600060026000838061104590612214565b9450815260200190815260200160002090508060010160009054906101000a900473ffffffffffffffffffffffffffffffffffffffff1683838151811061108f5761108e6121e5565b5b60200260200101516020019073ffffffffffffffffffffffffffffffffffffffff16908173ffffffffffffffffffffffffffffffffffffffff16815250508060030160009054906101000a900463ffffffff168383815181106110f5576110f46121e5565b5b60200260200101516060019063ffffffff16908163ffffffff16815250508060030160049054906101000a900463ffffffff1683838151811061113b5761113a6121e5565b5b60200260200101516080019063ffffffff16908163ffffffff16815250508060070160009054906101000a900460ff1683838151811061117e5761117d6121e5565b5b602002602001015160a00190151590811515815250505080806111a090612214565b915050611028565b5090565b6000806002600085815260200190815260200160002090508060060160008260020185815481106111e0576111df6121e5565b5b9060005260206000200160009054906101000a900473ffffffffffffffffffffffffffffffffffffffff1673ffffffffffffffffffffffffffffffffffffffff1673ffffffffffffffffffffffffffffffffffffffff1681526020019081526020016000205491505092915050565b600080600080604185511461126a5760009350505050611342565b6020850151925060408501519150606085015160001a9050601b8160ff16101561129e57601b8161129b919061263c565b90505b601b8160ff16141580156112b65750601c8160ff1614155b156112c75760009350505050611342565b6001866040516020016112da91906126e0565b60405160208183030381529060405280519060200120828585604051600081526020016040526040516113109493929190612715565b6020604051602081039080840390855afa158015611332573d6000803e3d6000fd5b5050506020604051035193505050505b92915050565b60008060026000858152602001908152602001600020905060018160050160008573ffffffffffffffffffffffffffffffffffffffff1673ffffffffffffffffffffffffffffffffffffffff16815260200190815260200160002060006101000a81548160ff0219169083151502179055508060060160008673ffffffffffffffffffffffffffffffffffffffff1673ffffffffffffffffffffffffffffffffffffffff168152602001908152602001600020600081548092919061140c90612214565b91905055508060060160008673ffffffffffffffffffffffffffffffffffffffff1673ffffffffffffffffffffffffffffffffffffffff168152602001908152602001600020549150509392505050565b828054611469906125b5565b90600052602060002090601f01602090048101928261148b57600085556114d2565b82601f106114a457805160ff19168380011785556114d2565b828001600101855582156114d2579182015b828111156114d15782518255916020019190600101906114b6565b5b5090506114df919061153d565b5090565b6040518060c0016040528060608152602001600073ffffffffffffffffffffffffffffffffffffffff16815260200160608152602001600063ffffffff168152602001600063ffffffff1681526020016000151581525090565b5b8082111561155657600081600090555060010161153e565b5090565b6000604051905090565b600080fd5b600080fd5b600073ffffffffffffffffffffffffffffffffffffffff82169050919050565b60006115998261156e565b9050919050565b6115a98161158e565b81146115b457600080fd5b50565b6000813590506115c6816115a0565b92915050565b6000819050919050565b6115df816115cc565b81146115ea57600080fd5b50565b6000813590506115fc816115d6565b92915050565b6000806040838503121561161957611618611564565b5b6000611627858286016115b7565b9250506020611638858286016115ed565b9150509250929050565b60006020828403121561165857611657611564565b5b6000611666848285016115ed565b91505092915050565b611678816115cc565b82525050565b6000602082019050611693600083018461166f565b92915050565b6000602082840312156116af576116ae611564565b5b60006116bd848285016115b7565b91505092915050565b600081519050919050565b600082825260208201905092915050565b6000819050602082019050919050565b6116fb8161158e565b82525050565b600061170d83836116f2565b60208301905092915050565b6000602082019050919050565b6000611731826116c6565b61173b81856116d1565b9350611746836116e2565b8060005b8381101561177757815161175e8882611701565b975061176983611719565b92505060018101905061174a565b5085935050505092915050565b6000602082019050818103600083015261179e8184611726565b905092915050565b600081519050919050565b600082825260208201905092915050565b6000819050602082019050919050565b6117db816115cc565b82525050565b60006117ed83836117d2565b60208301905092915050565b6000602082019050919050565b6000611811826117a6565b61181b81856117b1565b9350611826836117c2565b8060005b8381101561185757815161183e88826117e1565b9750611849836117f9565b92505060018101905061182a565b5085935050505092915050565b61186d8161158e565b82525050565b6000606082019050818103600083015261188d8186611806565b905061189c6020830185611864565b6118a9604083018461166f565b949350505050565b600080600080608085870312156118cb576118ca611564565b5b60006118d9878288016115b7565b94505060206118ea878288016115ed565b93505060406118fb878288016115ed565b925050606061190c878288016115ed565b91505092959194509250565b6000819050919050565b61192b81611918565b82525050565b60006020820190506119466000830184611922565b92915050565b600080fd5b600080fd5b6000601f19601f8301169050919050565b7f4e487b7100000000000000000000000000000000000000000000000000000000600052604160045260246000fd5b61199f82611956565b810181811067ffffffffffffffff821117156119be576119bd611967565b5b80604052505050565b60006119d161155a565b90506119dd8282611996565b919050565b600067ffffffffffffffff8211156119fd576119fc611967565b5b611a0682611956565b9050602081019050919050565b82818337600083830152505050565b6000611a35611a30846119e2565b6119c7565b905082815260208101848484011115611a5157611a50611951565b5b611a5c848285611a13565b509392505050565b600082601f830112611a7957611a7861194c565b5b8135611a89848260208601611a22565b91505092915050565b60008060008060808587031215611aac57611aab611564565b5b6000611aba878288016115b7565b9450506020611acb878288016115ed565b9350506040611adc878288016115ed565b925050606085013567ffffffffffffffff811115611afd57611afc611569565b5b611b0987828801611a64565b91505092959194509250565b600081519050919050565b600082825260208201905092915050565b60005b83811015611b4f578082015181840152602081019050611b34565b83811115611b5e576000848401525b50505050565b6000611b6f82611b15565b611b798185611b20565b9350611b89818560208601611b31565b611b9281611956565b840191505092915050565b600063ffffffff82169050919050565b611bb681611b9d565b82525050565b60008115159050919050565b611bd181611bbc565b82525050565b600060a0820190508181036000830152611bf18188611b64565b9050611c006020830187611864565b611c0d6040830186611bad565b611c1a6060830185611bad565b611c276080830184611bc8565b9695505050505050565b600067ffffffffffffffff821115611c4c57611c4b611967565b5b611c5582611956565b9050602081019050919050565b6000611c75611c7084611c31565b6119c7565b905082815260208101848484011115611c9157611c90611951565b5b611c9c848285611a13565b509392505050565b600082601f830112611cb957611cb861194c565b5b8135611cc9848260208601611c62565b91505092915050565b611cdb81611b9d565b8114611ce657600080fd5b50565b600081359050611cf881611cd2565b92915050565b60008060408385031215611d1557611d14611564565b5b600083013567ffffffffffffffff811115611d3357611d32611569565b5b611d3f85828601611ca4565b9250506020611d5085828601611ce9565b9150509250929050565b60006040820190508181036000830152611d748185611b64565b9050611d83602083018461166f565b9392505050565b600081519050919050565b600082825260208201905092915050565b6000819050602082019050919050565b600082825260208201905092915050565b6000611dd282611b15565b611ddc8185611db6565b9350611dec818560208601611b31565b611df581611956565b840191505092915050565b600082825260208201905092915050565b6000611e1c826116c6565b611e268185611e00565b9350611e31836116e2565b8060005b83811015611e62578151611e498882611701565b9750611e5483611719565b925050600181019050611e35565b5085935050505092915050565b611e7881611b9d565b82525050565b611e8781611bbc565b82525050565b600060c0830160008301518482036000860152611eaa8282611dc7565b9150506020830151611ebf60208601826116f2565b5060408301518482036040860152611ed78282611e11565b9150506060830151611eec6060860182611e6f565b506080830151611eff6080860182611e6f565b5060a0830151611f1260a0860182611e7e565b508091505092915050565b6000611f298383611e8d565b905092915050565b6000602082019050919050565b6000611f4982611d8a565b611f538185611d95565b935083602082028501611f6585611da6565b8060005b85811015611fa15784840389528151611f828582611f1d565b9450611f8d83611f31565b925060208a01995050600181019050611f69565b50829750879550505050505092915050565b60006020820190508181036000830152611fcd8184611f3e565b905092915050565b7f79657420746f20637265617465206120706f6c6c000000000000000000000000600082015250565b600061200b601483611b20565b915061201682611fd5565b602082019050919050565b6000602082019050818103600083015261203a81611ffe565b9050919050565b7f4e487b7100000000000000000000000000000000000000000000000000000000600052600160045260246000fd5b7f6d6178696d756d206e6f206f662063616e64696461746520706572207365737360008201527f696f6e2072656769737465726564000000000000000000000000000000000000602082015250565b60006120cc602e83611b20565b91506120d782612070565b604082019050919050565b600060208201905081810360008301526120fb816120bf565b9050919050565b7f4e487b7100000000000000000000000000000000000000000000000000000000600052601160045260246000fd5b600061213c82611b9d565b915063ffffffff82141561215357612152612102565b5b600182019050919050565b60006020820190506121736000830184611864565b92915050565b7f4e6f20706f6c6c20637265617465640000000000000000000000000000000000600082015250565b60006121af600f83611b20565b91506121ba82612179565b602082019050919050565b600060208201905081810360008301526121de816121a2565b9050919050565b7f4e487b7100000000000000000000000000000000000000000000000000000000600052603260045260246000fd5b600061221f826115cc565b91507fffffffffffffffffffffffffffffffffffffffffffffffffffffffffffffffff82141561225257612251612102565b5b600182019050919050565b60008160601b9050919050565b60006122758261225d565b9050919050565b60006122878261226a565b9050919050565b61229f61229a8261158e565b61227c565b82525050565b600081905092915050565b7f6d6574617472616e73616374696f6e20566f74696e6720000000000000000000600082015250565b60006122e66017836122a5565b91506122f1826122b0565b601782019050919050565b6000819050919050565b612317612312826115cc565b6122fc565b82525050565b6000612329828861228e565b601482019150612338826122d9565b9150612344828761228e565b6014820191506123548286612306565b6020820191506123648285612306565b6020820191506123748284612306565b6020820191508190509695505050505050565b7f54686973206164647265737320646f6573206e6f74206578697374206173206160008201527f2063616e64696461746500000000000000000000000000000000000000000000602082015250565b60006123e3602a83611b20565b91506123ee82612387565b604082019050919050565b60006020820190508181036000830152612412816123d6565b9050919050565b7f766f74696e672068617320656e64656400000000000000000000000000000000600082015250565b600061244f601083611b20565b915061245a82612419565b602082019050919050565b6000602082019050818103600083015261247e81612442565b9050919050565b7f596f7520616c726561647920766f746564000000000000000000000000000000600082015250565b60006124bb601183611b20565b91506124c682612485565b602082019050919050565b600060208201905081810360008301526124ea816124ae565b9050919050565b60006040820190506125066000830185611864565b6125136020830184611bc8565b9392505050565b7f6e6f74207468652063686169726d616e00000000000000000000000000000000600082015250565b6000612550601083611b20565b915061255b8261251a565b602082019050919050565b6000602082019050818103600083015261257f81612543565b9050919050565b7f4e487b7100000000000000000000000000000000000000000000000000000000600052602260045260246000fd5b600060028204905060018216806125cd57607f821691505b602082108114156125e1576125e0612586565b5b50919050565b60006125f282611b15565b6125fc81856122a5565b935061260c818560208601611b31565b80840191505092915050565b600061262482846125e7565b915081905092915050565b600060ff82169050919050565b60006126478261262f565b91506126528361262f565b92508260ff0382111561266857612667612102565b5b828201905092915050565b7f19457468657265756d205369676e6564204d6573736167653a0a333200000000600082015250565b60006126a9601c836122a5565b91506126b482612673565b601c82019050919050565b6000819050919050565b6126da6126d582611918565b6126bf565b82525050565b60006126eb8261269c565b91506126f782846126c9565b60208201915081905092915050565b61270f8161262f565b82525050565b600060808201905061272a6000830187611922565b6127376020830186612706565b6127446040830185611922565b6127516060830184611922565b9594505050505056fea2646970667358221220ee08b172d7016a8f49928e95b4dadfca2f7cad5f6cb350ad1fd511b84e4a023c64736f6c634300080a0033",
					"opcodes": "PUSH1 0x80 PUSH1 0x40 MSTORE PUSH1 0x1 PUSH1 0x0 SSTORE CALLVALUE DUP1 ISZERO PUSH2 0x15 JUMPI PUSH1 0x0 DUP1 REVERT JUMPDEST POP PUSH2 0x2790 DUP1 PUSH2 0x25 PUSH1 0x0 CODECOPY PUSH1 0x0 RETURN INVALID PUSH1 0x80 PUSH1 0x40 MSTORE CALLVALUE DUP1 ISZERO PUSH2 0x10 JUMPI PUSH1 0x0 DUP1 REVERT JUMPDEST POP PUSH1 0x4 CALLDATASIZE LT PUSH2 0xB4 JUMPI PUSH1 0x0 CALLDATALOAD PUSH1 0xE0 SHR DUP1 PUSH4 0xBFE2E25D GT PUSH2 0x71 JUMPI DUP1 PUSH4 0xBFE2E25D EQ PUSH2 0x1C7 JUMPI DUP1 PUSH4 0xC10D6CEC EQ PUSH2 0x1F7 JUMPI DUP1 PUSH4 0xC57003CC EQ PUSH2 0x213 JUMPI DUP1 PUSH4 0xE615F104 EQ PUSH2 0x22F JUMPI DUP1 PUSH4 0xF762F4C0 EQ PUSH2 0x263 JUMPI DUP1 PUSH4 0xF8437061 EQ PUSH2 0x294 JUMPI PUSH2 0xB4 JUMP JUMPDEST DUP1 PUSH4 0x49D1C8B EQ PUSH2 0xB9 JUMPI DUP1 PUSH4 0x66C5343B EQ PUSH2 0xD5 JUMPI DUP1 PUSH4 0x67D407DF EQ PUSH2 0x105 JUMPI DUP1 PUSH4 0x8AC3C3C2 EQ PUSH2 0x135 JUMPI DUP1 PUSH4 0x8CCB59E8 EQ PUSH2 0x165 JUMPI DUP1 PUSH4 0xAE928E3E EQ PUSH2 0x197 JUMPI JUMPDEST PUSH1 0x0 DUP1 REVERT JUMPDEST PUSH2 0xD3 PUSH1 0x4 DUP1 CALLDATASIZE SUB DUP2 ADD SWAP1 PUSH2 0xCE SWAP2 SWAP1 PUSH2 0x1602 JUMP JUMPDEST PUSH2 0x2B2 JUMP JUMPDEST STOP JUMPDEST PUSH2 0xEF PUSH1 0x4 DUP1 CALLDATASIZE SUB DUP2 ADD SWAP1 PUSH2 0xEA SWAP2 SWAP1 PUSH2 0x1642 JUMP JUMPDEST PUSH2 0x571 JUMP JUMPDEST PUSH1 0x40 MLOAD PUSH2 0xFC SWAP2 SWAP1 PUSH2 0x167E JUMP JUMPDEST PUSH1 0x40 MLOAD DUP1 SWAP2 SUB SWAP1 RETURN JUMPDEST PUSH2 0x11F PUSH1 0x4 DUP1 CALLDATASIZE SUB DUP2 ADD SWAP1 PUSH2 0x11A SWAP2 SWAP1 PUSH2 0x1699 JUMP JUMPDEST PUSH2 0x5AC JUMP JUMPDEST PUSH1 0x40 MLOAD PUSH2 0x12C SWAP2 SWAP1 PUSH2 0x167E JUMP JUMPDEST PUSH1 0x40 MLOAD DUP1 SWAP2 SUB SWAP1 RETURN JUMPDEST PUSH2 0x14F PUSH1 0x4 DUP1 CALLDATASIZE SUB DUP2 ADD SWAP1 PUSH2 0x14A SWAP2 SWAP1 PUSH2 0x1642 JUMP JUMPDEST PUSH2 0x5C4 JUMP JUMPDEST PUSH1 0x40 MLOAD PUSH2 0x15C SWAP2 SWAP1 PUSH2 0x1784 JUMP JUMPDEST PUSH1 0x40 MLOAD DUP1 SWAP2 SUB SWAP1 RETURN JUMPDEST PUSH2 0x17F PUSH1 0x4 DUP1 CALLDATASIZE SUB DUP2 ADD SWAP1 PUSH2 0x17A SWAP2 SWAP1 PUSH2 0x1642 JUMP JUMPDEST PUSH2 0x66E JUMP JUMPDEST PUSH1 0x40 MLOAD PUSH2 0x18E SWAP4 SWAP3 SWAP2 SWAP1 PUSH2 0x1873 JUMP JUMPDEST PUSH1 0x40 MLOAD DUP1 SWAP2 SUB SWAP1 RETURN JUMPDEST PUSH2 0x1B1 PUSH1 0x4 DUP1 CALLDATASIZE SUB DUP2 ADD SWAP1 PUSH2 0x1AC SWAP2 SWAP1 PUSH2 0x1642 JUMP JUMPDEST PUSH2 0x8AA JUMP JUMPDEST PUSH1 0x40 MLOAD PUSH2 0x1BE SWAP2 SWAP1 PUSH2 0x167E JUMP JUMPDEST PUSH1 0x40 MLOAD DUP1 SWAP2 SUB SWAP1 RETURN JUMPDEST PUSH2 0x1E1 PUSH1 0x4 DUP1 CALLDATASIZE SUB DUP2 ADD SWAP1 PUSH2 0x1DC SWAP2 SWAP1 PUSH2 0x18B1 JUMP JUMPDEST PUSH2 0x8CE JUMP JUMPDEST PUSH1 0x40 MLOAD PUSH2 0x1EE SWAP2 SWAP1 PUSH2 0x1931 JUMP JUMPDEST PUSH1 0x40 MLOAD DUP1 SWAP2 SUB SWAP1 RETURN JUMPDEST PUSH2 0x211 PUSH1 0x4 DUP1 CALLDATASIZE SUB DUP2 ADD SWAP1 PUSH2 0x20C SWAP2 SWAP1 PUSH2 0x1A92 JUMP JUMPDEST PUSH2 0x909 JUMP JUMPDEST STOP JUMPDEST PUSH2 0x22D PUSH1 0x4 DUP1 CALLDATASIZE SUB DUP2 ADD SWAP1 PUSH2 0x228 SWAP2 SWAP1 PUSH2 0x1642 JUMP JUMPDEST PUSH2 0xC17 JUMP JUMPDEST STOP JUMPDEST PUSH2 0x249 PUSH1 0x4 DUP1 CALLDATASIZE SUB DUP2 ADD SWAP1 PUSH2 0x244 SWAP2 SWAP1 PUSH2 0x1642 JUMP JUMPDEST PUSH2 0xD32 JUMP JUMPDEST PUSH1 0x40 MLOAD PUSH2 0x25A SWAP6 SWAP5 SWAP4 SWAP3 SWAP2 SWAP1 PUSH2 0x1BD7 JUMP JUMPDEST PUSH1 0x40 MLOAD DUP1 SWAP2 SUB SWAP1 RETURN JUMPDEST PUSH2 0x27D PUSH1 0x4 DUP1 CALLDATASIZE SUB DUP2 ADD SWAP1 PUSH2 0x278 SWAP2 SWAP1 PUSH2 0x1CFE JUMP JUMPDEST PUSH2 0xE3D JUMP JUMPDEST PUSH1 0x40 MLOAD PUSH2 0x28B SWAP3 SWAP2 SWAP1 PUSH2 0x1D5A JUMP JUMPDEST PUSH1 0x40 MLOAD DUP1 SWAP2 SUB SWAP1 RETURN JUMPDEST PUSH2 0x29C PUSH2 0xFC8 JUMP JUMPDEST PUSH1 0x40 MLOAD PUSH2 0x2A9 SWAP2 SWAP1 PUSH2 0x1FB3 JUMP JUMPDEST PUSH1 0x40 MLOAD DUP1 SWAP2 SUB SWAP1 RETURN JUMPDEST PUSH1 0x0 PUSH1 0x2 PUSH1 0x0 DUP4 DUP2 MSTORE PUSH1 0x20 ADD SWAP1 DUP2 MSTORE PUSH1 0x20 ADD PUSH1 0x0 KECCAK256 SWAP1 POP PUSH1 0x0 PUSH20 0xFFFFFFFFFFFFFFFFFFFFFFFFFFFFFFFFFFFFFFFF AND DUP2 PUSH1 0x1 ADD PUSH1 0x0 SWAP1 SLOAD SWAP1 PUSH2 0x100 EXP SWAP1 DIV PUSH20 0xFFFFFFFFFFFFFFFFFFFFFFFFFFFFFFFFFFFFFFFF AND PUSH20 0xFFFFFFFFFFFFFFFFFFFFFFFFFFFFFFFFFFFFFFFF AND EQ ISZERO PUSH2 0x35D JUMPI PUSH1 0x40 MLOAD PUSH32 0x8C379A000000000000000000000000000000000000000000000000000000000 DUP2 MSTORE PUSH1 0x4 ADD PUSH2 0x354 SWAP1 PUSH2 0x2021 JUMP JUMPDEST PUSH1 0x40 MLOAD DUP1 SWAP2 SUB SWAP1 REVERT JUMPDEST CALLER PUSH20 0xFFFFFFFFFFFFFFFFFFFFFFFFFFFFFFFFFFFFFFFF AND DUP2 PUSH1 0x1 ADD PUSH1 0x0 SWAP1 SLOAD SWAP1 PUSH2 0x100 EXP SWAP1 DIV PUSH20 0xFFFFFFFFFFFFFFFFFFFFFFFFFFFFFFFFFFFFFFFF AND PUSH20 0xFFFFFFFFFFFFFFFFFFFFFFFFFFFFFFFFFFFFFFFF AND EQ PUSH2 0x3BD JUMPI PUSH2 0x3BC PUSH2 0x2041 JUMP JUMPDEST JUMPDEST DUP1 PUSH1 0x3 ADD PUSH1 0x0 SWAP1 SLOAD SWAP1 PUSH2 0x100 EXP SWAP1 DIV PUSH4 0xFFFFFFFF AND PUSH4 0xFFFFFFFF AND DUP2 PUSH1 0x3 ADD PUSH1 0x4 SWAP1 SLOAD SWAP1 PUSH2 0x100 EXP SWAP1 DIV PUSH4 0xFFFFFFFF AND PUSH4 0xFFFFFFFF AND LT PUSH2 0x433 JUMPI PUSH1 0x40 MLOAD PUSH32 0x8C379A000000000000000000000000000000000000000000000000000000000 DUP2 MSTORE PUSH1 0x4 ADD PUSH2 0x42A SWAP1 PUSH2 0x20E2 JUMP JUMPDEST PUSH1 0x40 MLOAD DUP1 SWAP2 SUB SWAP1 REVERT JUMPDEST PUSH1 0x1 DUP2 PUSH1 0x4 ADD PUSH1 0x0 DUP6 PUSH20 0xFFFFFFFFFFFFFFFFFFFFFFFFFFFFFFFFFFFFFFFF AND PUSH20 0xFFFFFFFFFFFFFFFFFFFFFFFFFFFFFFFFFFFFFFFF AND DUP2 MSTORE PUSH1 0x20 ADD SWAP1 DUP2 MSTORE PUSH1 0x20 ADD PUSH1 0x0 KECCAK256 PUSH1 0x0 PUSH2 0x100 EXP DUP2 SLOAD DUP2 PUSH1 0xFF MUL NOT AND SWAP1 DUP4 ISZERO ISZERO MUL OR SWAP1 SSTORE POP DUP1 PUSH1 0x2 ADD DUP4 SWAP1 DUP1 PUSH1 0x1 DUP2 SLOAD ADD DUP1 DUP3 SSTORE DUP1 SWAP2 POP POP PUSH1 0x1 SWAP1 SUB SWAP1 PUSH1 0x0 MSTORE PUSH1 0x20 PUSH1 0x0 KECCAK256 ADD PUSH1 0x0 SWAP1 SWAP2 SWAP1 SWAP2 SWAP1 SWAP2 PUSH2 0x100 EXP DUP2 SLOAD DUP2 PUSH20 0xFFFFFFFFFFFFFFFFFFFFFFFFFFFFFFFFFFFFFFFF MUL NOT AND SWAP1 DUP4 PUSH20 0xFFFFFFFFFFFFFFFFFFFFFFFFFFFFFFFFFFFFFFFF AND MUL OR SWAP1 SSTORE POP DUP1 PUSH1 0x3 ADD PUSH1 0x4 DUP2 DUP2 SWAP1 SLOAD SWAP1 PUSH2 0x100 EXP SWAP1 DIV PUSH4 0xFFFFFFFF AND DUP1 SWAP3 SWAP2 SWAP1 PUSH2 0x516 SWAP1 PUSH2 0x2131 JUMP JUMPDEST SWAP2 SWAP1 PUSH2 0x100 EXP DUP2 SLOAD DUP2 PUSH4 0xFFFFFFFF MUL NOT AND SWAP1 DUP4 PUSH4 0xFFFFFFFF AND MUL OR SWAP1 SSTORE POP POP PUSH32 0xC19C59AA93348E8FC54764BC642ECA975E2639F44CC683EF8F027E1529CBDA32 DUP4 PUSH1 0x40 MLOAD PUSH2 0x564 SWAP2 SWAP1 PUSH2 0x215E JUMP JUMPDEST PUSH1 0x40 MLOAD DUP1 SWAP2 SUB SWAP1 LOG1 POP POP POP JUMP JUMPDEST PUSH1 0x0 DUP1 PUSH1 0x2 PUSH1 0x0 DUP5 DUP2 MSTORE PUSH1 0x20 ADD SWAP1 DUP2 MSTORE PUSH1 0x20 ADD PUSH1 0x0 KECCAK256 SWAP1 POP DUP1 PUSH1 0x3 ADD PUSH1 0x4 SWAP1 SLOAD SWAP1 PUSH2 0x100 EXP SWAP1 DIV PUSH4 0xFFFFFFFF AND PUSH4 0xFFFFFFFF AND SWAP2 POP POP SWAP2 SWAP1 POP JUMP JUMPDEST PUSH1 0x3 PUSH1 0x20 MSTORE DUP1 PUSH1 0x0 MSTORE PUSH1 0x40 PUSH1 0x0 KECCAK256 PUSH1 0x0 SWAP2 POP SWAP1 POP SLOAD DUP2 JUMP JUMPDEST PUSH1 0x60 PUSH1 0x0 PUSH1 0x2 PUSH1 0x0 DUP5 DUP2 MSTORE PUSH1 0x20 ADD SWAP1 DUP2 MSTORE PUSH1 0x20 ADD PUSH1 0x0 KECCAK256 SWAP1 POP DUP1 PUSH1 0x2 ADD DUP1 SLOAD DUP1 PUSH1 0x20 MUL PUSH1 0x20 ADD PUSH1 0x40 MLOAD SWAP1 DUP2 ADD PUSH1 0x40 MSTORE DUP1 SWAP3 SWAP2 SWAP1 DUP2 DUP2 MSTORE PUSH1 0x20 ADD DUP3 DUP1 SLOAD DUP1 ISZERO PUSH2 0x661 JUMPI PUSH1 0x20 MUL DUP3 ADD SWAP2 SWAP1 PUSH1 0x0 MSTORE PUSH1 0x20 PUSH1 0x0 KECCAK256 SWAP1 JUMPDEST DUP2 PUSH1 0x0 SWAP1 SLOAD SWAP1 PUSH2 0x100 EXP SWAP1 DIV PUSH20 0xFFFFFFFFFFFFFFFFFFFFFFFFFFFFFFFFFFFFFFFF AND PUSH20 0xFFFFFFFFFFFFFFFFFFFFFFFFFFFFFFFFFFFFFFFF AND DUP2 MSTORE PUSH1 0x20 ADD SWAP1 PUSH1 0x1 ADD SWAP1 DUP1 DUP4 GT PUSH2 0x617 JUMPI JUMPDEST POP POP POP POP POP SWAP2 POP POP SWAP2 SWAP1 POP JUMP JUMPDEST PUSH1 0x60 PUSH1 0x0 DUP1 PUSH1 0x0 PUSH1 0x2 PUSH1 0x0 DUP7 DUP2 MSTORE PUSH1 0x20 ADD SWAP1 DUP2 MSTORE PUSH1 0x20 ADD PUSH1 0x0 KECCAK256 SWAP1 POP PUSH1 0x0 PUSH20 0xFFFFFFFFFFFFFFFFFFFFFFFFFFFFFFFFFFFFFFFF AND DUP2 PUSH1 0x1 ADD PUSH1 0x0 SWAP1 SLOAD SWAP1 PUSH2 0x100 EXP SWAP1 DIV PUSH20 0xFFFFFFFFFFFFFFFFFFFFFFFFFFFFFFFFFFFFFFFF AND PUSH20 0xFFFFFFFFFFFFFFFFFFFFFFFFFFFFFFFFFFFFFFFF AND EQ ISZERO PUSH2 0x71E JUMPI PUSH1 0x40 MLOAD PUSH32 0x8C379A000000000000000000000000000000000000000000000000000000000 DUP2 MSTORE PUSH1 0x4 ADD PUSH2 0x715 SWAP1 PUSH2 0x21C5 JUMP JUMPDEST PUSH1 0x40 MLOAD DUP1 SWAP2 SUB SWAP1 REVERT JUMPDEST DUP1 PUSH1 0x2 ADD DUP1 SLOAD SWAP1 POP PUSH8 0xFFFFFFFFFFFFFFFF DUP2 GT ISZERO PUSH2 0x73F JUMPI PUSH2 0x73E PUSH2 0x1967 JUMP JUMPDEST JUMPDEST PUSH1 0x40 MLOAD SWAP1 DUP1 DUP3 MSTORE DUP1 PUSH1 0x20 MUL PUSH1 0x20 ADD DUP3 ADD PUSH1 0x40 MSTORE DUP1 ISZERO PUSH2 0x76D JUMPI DUP2 PUSH1 0x20 ADD PUSH1 0x20 DUP3 MUL DUP1 CALLDATASIZE DUP4 CALLDATACOPY DUP1 DUP3 ADD SWAP2 POP POP SWAP1 POP JUMPDEST POP SWAP4 POP PUSH1 0x0 DUP1 PUSH1 0x0 JUMPDEST DUP4 PUSH1 0x2 ADD DUP1 SLOAD SWAP1 POP DUP2 GT PUSH2 0x896 JUMPI PUSH1 0x0 PUSH2 0x790 DUP10 DUP4 PUSH2 0x11AC JUMP JUMPDEST SWAP1 POP DUP4 DUP2 GT ISZERO PUSH2 0x7E1 JUMPI DUP1 SWAP4 POP DUP5 PUSH1 0x2 ADD DUP3 DUP2 SLOAD DUP2 LT PUSH2 0x7B3 JUMPI PUSH2 0x7B2 PUSH2 0x21E5 JUMP JUMPDEST JUMPDEST SWAP1 PUSH1 0x0 MSTORE PUSH1 0x20 PUSH1 0x0 KECCAK256 ADD PUSH1 0x0 SWAP1 SLOAD SWAP1 PUSH2 0x100 EXP SWAP1 DIV PUSH20 0xFFFFFFFFFFFFFFFFFFFFFFFFFFFFFFFFFFFFFFFF AND SWAP3 POP JUMPDEST DUP5 PUSH1 0x6 ADD PUSH1 0x0 DUP7 PUSH1 0x2 ADD DUP5 DUP2 SLOAD DUP2 LT PUSH2 0x7FD JUMPI PUSH2 0x7FC PUSH2 0x21E5 JUMP JUMPDEST JUMPDEST SWAP1 PUSH1 0x0 MSTORE PUSH1 0x20 PUSH1 0x0 KECCAK256 ADD PUSH1 0x0 SWAP1 SLOAD SWAP1 PUSH2 0x100 EXP SWAP1 DIV PUSH20 0xFFFFFFFFFFFFFFFFFFFFFFFFFFFFFFFFFFFFFFFF AND PUSH20 0xFFFFFFFFFFFFFFFFFFFFFFFFFFFFFFFFFFFFFFFF AND PUSH20 0xFFFFFFFFFFFFFFFFFFFFFFFFFFFFFFFFFFFFFFFF AND DUP2 MSTORE PUSH1 0x20 ADD SWAP1 DUP2 MSTORE PUSH1 0x20 ADD PUSH1 0x0 KECCAK256 SLOAD DUP9 DUP4 DUP2 MLOAD DUP2 LT PUSH2 0x876 JUMPI PUSH2 0x875 PUSH2 0x21E5 JUMP JUMPDEST JUMPDEST PUSH1 0x20 MUL PUSH1 0x20 ADD ADD DUP2 DUP2 MSTORE POP POP POP DUP1 DUP1 PUSH2 0x88E SWAP1 PUSH2 0x2214 JUMP JUMPDEST SWAP2 POP POP PUSH2 0x776 JUMP JUMPDEST POP DUP6 DUP2 DUP4 SWAP6 POP SWAP6 POP SWAP6 POP POP POP POP SWAP2 SWAP4 SWAP1 SWAP3 POP JUMP JUMPDEST PUSH1 0x1 DUP2 DUP2 SLOAD DUP2 LT PUSH2 0x8BA JUMPI PUSH1 0x0 DUP1 REVERT JUMPDEST SWAP1 PUSH1 0x0 MSTORE PUSH1 0x20 PUSH1 0x0 KECCAK256 ADD PUSH1 0x0 SWAP2 POP SWAP1 POP SLOAD DUP2 JUMP JUMPDEST PUSH1 0x0 ADDRESS DUP6 DUP6 DUP6 DUP6 PUSH1 0x40 MLOAD PUSH1 0x20 ADD PUSH2 0x8E9 SWAP6 SWAP5 SWAP4 SWAP3 SWAP2 SWAP1 PUSH2 0x231D JUMP JUMPDEST PUSH1 0x40 MLOAD PUSH1 0x20 DUP2 DUP4 SUB SUB DUP2 MSTORE SWAP1 PUSH1 0x40 MSTORE DUP1 MLOAD SWAP1 PUSH1 0x20 ADD KECCAK256 SWAP1 POP SWAP5 SWAP4 POP POP POP POP JUMP JUMPDEST DUP4 DUP4 PUSH1 0x1 ISZERO ISZERO PUSH1 0x4 PUSH1 0x0 DUP4 DUP2 MSTORE PUSH1 0x20 ADD SWAP1 DUP2 MSTORE PUSH1 0x20 ADD PUSH1 0x0 KECCAK256 PUSH1 0x0 DUP5 PUSH20 0xFFFFFFFFFFFFFFFFFFFFFFFFFFFFFFFFFFFFFFFF AND PUSH20 0xFFFFFFFFFFFFFFFFFFFFFFFFFFFFFFFFFFFFFFFF AND DUP2 MSTORE PUSH1 0x20 ADD SWAP1 DUP2 MSTORE PUSH1 0x20 ADD PUSH1 0x0 KECCAK256 PUSH1 0x0 SWAP1 SLOAD SWAP1 PUSH2 0x100 EXP SWAP1 DIV PUSH1 0xFF AND ISZERO ISZERO EQ PUSH2 0x9AF JUMPI PUSH1 0x40 MLOAD PUSH32 0x8C379A000000000000000000000000000000000000000000000000000000000 DUP2 MSTORE PUSH1 0x4 ADD PUSH2 0x9A6 SWAP1 PUSH2 0x23F9 JUMP JUMPDEST PUSH1 0x40 MLOAD DUP1 SWAP2 SUB SWAP1 REVERT JUMPDEST DUP5 PUSH1 0x0 PUSH1 0x2 PUSH1 0x0 DUP4 DUP2 MSTORE PUSH1 0x20 ADD SWAP1 DUP2 MSTORE PUSH1 0x20 ADD PUSH1 0x0 KECCAK256 SWAP1 POP PUSH1 0x1 ISZERO ISZERO DUP2 PUSH1 0x7 ADD PUSH1 0x0 SWAP1 SLOAD SWAP1 PUSH2 0x100 EXP SWAP1 DIV PUSH1 0xFF AND ISZERO ISZERO EQ PUSH2 0xA1F JUMPI PUSH1 0x40 MLOAD PUSH32 0x8C379A000000000000000000000000000000000000000000000000000000000 DUP2 MSTORE PUSH1 0x4 ADD PUSH2 0xA16 SWAP1 PUSH2 0x2465 JUMP JUMPDEST PUSH1 0x40 MLOAD DUP1 SWAP2 SUB SWAP1 REVERT JUMPDEST PUSH1 0x0 PUSH2 0xA2D DUP10 DUP10 DUP10 TIMESTAMP PUSH2 0x8CE JUMP JUMPDEST SWAP1 POP PUSH1 0x0 PUSH2 0xA3B DUP3 DUP9 PUSH2 0x124F JUMP JUMPDEST SWAP1 POP PUSH1 0x0 PUSH20 0xFFFFFFFFFFFFFFFFFFFFFFFFFFFFFFFFFFFFFFFF AND DUP2 PUSH20 0xFFFFFFFFFFFFFFFFFFFFFFFFFFFFFFFFFFFFFFFF AND EQ ISZERO PUSH2 0xA77 JUMPI PUSH1 0x0 DUP1 REVERT JUMPDEST PUSH1 0x3 PUSH1 0x0 DUP3 PUSH20 0xFFFFFFFFFFFFFFFFFFFFFFFFFFFFFFFFFFFFFFFF AND PUSH20 0xFFFFFFFFFFFFFFFFFFFFFFFFFFFFFFFFFFFFFFFF AND DUP2 MSTORE PUSH1 0x20 ADD SWAP1 DUP2 MSTORE PUSH1 0x20 ADD PUSH1 0x0 KECCAK256 SLOAD DUP9 EQ PUSH2 0xAC2 JUMPI PUSH1 0x0 DUP1 REVERT JUMPDEST PUSH1 0x3 PUSH1 0x0 DUP3 PUSH20 0xFFFFFFFFFFFFFFFFFFFFFFFFFFFFFFFFFFFFFFFF AND PUSH20 0xFFFFFFFFFFFFFFFFFFFFFFFFFFFFFFFFFFFFFFFF AND DUP2 MSTORE PUSH1 0x20 ADD SWAP1 DUP2 MSTORE PUSH1 0x20 ADD PUSH1 0x0 KECCAK256 PUSH1 0x0 DUP2 SLOAD DUP1 SWAP3 SWAP2 SWAP1 PUSH2 0xB12 SWAP1 PUSH2 0x2214 JUMP JUMPDEST SWAP2 SWAP1 POP SSTORE POP PUSH1 0x0 PUSH1 0x2 PUSH1 0x0 DUP1 SLOAD DUP2 MSTORE PUSH1 0x20 ADD SWAP1 DUP2 MSTORE PUSH1 0x20 ADD PUSH1 0x0 KECCAK256 SWAP1 POP PUSH1 0x0 ISZERO ISZERO DUP2 PUSH1 0x5 ADD PUSH1 0x0 DUP5 PUSH20 0xFFFFFFFFFFFFFFFFFFFFFFFFFFFFFFFFFFFFFFFF AND PUSH20 0xFFFFFFFFFFFFFFFFFFFFFFFFFFFFFFFFFFFFFFFF AND DUP2 MSTORE PUSH1 0x20 ADD SWAP1 DUP2 MSTORE PUSH1 0x20 ADD PUSH1 0x0 KECCAK256 PUSH1 0x0 SWAP1 SLOAD SWAP1 PUSH2 0x100 EXP SWAP1 DIV PUSH1 0xFF AND ISZERO ISZERO EQ PUSH2 0xBC4 JUMPI PUSH1 0x40 MLOAD PUSH32 0x8C379A000000000000000000000000000000000000000000000000000000000 DUP2 MSTORE PUSH1 0x4 ADD PUSH2 0xBBB SWAP1 PUSH2 0x24D1 JUMP JUMPDEST PUSH1 0x40 MLOAD DUP1 SWAP2 SUB SWAP1 REVERT JUMPDEST PUSH2 0xBCF DUP12 DUP12 DUP5 PUSH2 0x1348 JUMP JUMPDEST POP PUSH32 0xF3F16A15F074B71C5138107DFC7C63B80524D5411CB967CAA97D8D9F12B2FD6B DUP12 PUSH1 0x1 PUSH1 0x40 MLOAD PUSH2 0xC02 SWAP3 SWAP2 SWAP1 PUSH2 0x24F1 JUMP JUMPDEST PUSH1 0x40 MLOAD DUP1 SWAP2 SUB SWAP1 LOG1 POP POP POP POP POP POP POP POP POP POP POP JUMP JUMPDEST PUSH1 0x0 PUSH1 0x2 PUSH1 0x0 DUP4 DUP2 MSTORE PUSH1 0x20 ADD SWAP1 DUP2 MSTORE PUSH1 0x20 ADD PUSH1 0x0 KECCAK256 SWAP1 POP CALLER PUSH20 0xFFFFFFFFFFFFFFFFFFFFFFFFFFFFFFFFFFFFFFFF AND DUP2 PUSH1 0x1 ADD PUSH1 0x0 SWAP1 SLOAD SWAP1 PUSH2 0x100 EXP SWAP1 DIV PUSH20 0xFFFFFFFFFFFFFFFFFFFFFFFFFFFFFFFFFFFFFFFF AND PUSH20 0xFFFFFFFFFFFFFFFFFFFFFFFFFFFFFFFFFFFFFFFF AND EQ PUSH2 0xCC0 JUMPI PUSH1 0x40 MLOAD PUSH32 0x8C379A000000000000000000000000000000000000000000000000000000000 DUP2 MSTORE PUSH1 0x4 ADD PUSH2 0xCB7 SWAP1 PUSH2 0x2566 JUMP JUMPDEST PUSH1 0x40 MLOAD DUP1 SWAP2 SUB SWAP1 REVERT JUMPDEST DUP1 PUSH1 0x7 ADD PUSH1 0x0 SWAP1 SLOAD SWAP1 PUSH2 0x100 EXP SWAP1 DIV PUSH1 0xFF AND ISZERO DUP2 PUSH1 0x7 ADD PUSH1 0x0 PUSH2 0x100 EXP DUP2 SLOAD DUP2 PUSH1 0xFF MUL NOT AND SWAP1 DUP4 ISZERO ISZERO MUL OR SWAP1 SSTORE POP DUP1 PUSH1 0x7 ADD PUSH1 0x0 SWAP1 SLOAD SWAP1 PUSH2 0x100 EXP SWAP1 DIV PUSH1 0xFF AND ISZERO ISZERO PUSH32 0x7B224DB641892626DCA6975B376F464E9AC52CCFA180436175170C009B94DCD7 PUSH1 0x40 MLOAD PUSH1 0x40 MLOAD DUP1 SWAP2 SUB SWAP1 LOG2 POP POP JUMP JUMPDEST PUSH1 0x2 PUSH1 0x20 MSTORE DUP1 PUSH1 0x0 MSTORE PUSH1 0x40 PUSH1 0x0 KECCAK256 PUSH1 0x0 SWAP2 POP SWAP1 POP DUP1 PUSH1 0x0 ADD DUP1 SLOAD PUSH2 0xD55 SWAP1 PUSH2 0x25B5 JUMP JUMPDEST DUP1 PUSH1 0x1F ADD PUSH1 0x20 DUP1 SWAP2 DIV MUL PUSH1 0x20 ADD PUSH1 0x40 MLOAD SWAP1 DUP2 ADD PUSH1 0x40 MSTORE DUP1 SWAP3 SWAP2 SWAP1 DUP2 DUP2 MSTORE PUSH1 0x20 ADD DUP3 DUP1 SLOAD PUSH2 0xD81 SWAP1 PUSH2 0x25B5 JUMP JUMPDEST DUP1 ISZERO PUSH2 0xDCE JUMPI DUP1 PUSH1 0x1F LT PUSH2 0xDA3 JUMPI PUSH2 0x100 DUP1 DUP4 SLOAD DIV MUL DUP4 MSTORE SWAP2 PUSH1 0x20 ADD SWAP2 PUSH2 0xDCE JUMP JUMPDEST DUP3 ADD SWAP2 SWAP1 PUSH1 0x0 MSTORE PUSH1 0x20 PUSH1 0x0 KECCAK256 SWAP1 JUMPDEST DUP2 SLOAD DUP2 MSTORE SWAP1 PUSH1 0x1 ADD SWAP1 PUSH1 0x20 ADD DUP1 DUP4 GT PUSH2 0xDB1 JUMPI DUP3 SWAP1 SUB PUSH1 0x1F AND DUP3 ADD SWAP2 JUMPDEST POP POP POP POP POP SWAP1 DUP1 PUSH1 0x1 ADD PUSH1 0x0 SWAP1 SLOAD SWAP1 PUSH2 0x100 EXP SWAP1 DIV PUSH20 0xFFFFFFFFFFFFFFFFFFFFFFFFFFFFFFFFFFFFFFFF AND SWAP1 DUP1 PUSH1 0x3 ADD PUSH1 0x0 SWAP1 SLOAD SWAP1 PUSH2 0x100 EXP SWAP1 DIV PUSH4 0xFFFFFFFF AND SWAP1 DUP1 PUSH1 0x3 ADD PUSH1 0x4 SWAP1 SLOAD SWAP1 PUSH2 0x100 EXP SWAP1 DIV PUSH4 0xFFFFFFFF AND SWAP1 DUP1 PUSH1 0x7 ADD PUSH1 0x0 SWAP1 SLOAD SWAP1 PUSH2 0x100 EXP SWAP1 DIV PUSH1 0xFF AND SWAP1 POP DUP6 JUMP JUMPDEST PUSH1 0x60 PUSH1 0x0 DUP1 PUSH1 0x2 PUSH1 0x0 DUP1 SLOAD DUP2 MSTORE PUSH1 0x20 ADD SWAP1 DUP2 MSTORE PUSH1 0x20 ADD PUSH1 0x0 KECCAK256 SWAP1 POP DUP5 DUP2 PUSH1 0x0 ADD SWAP1 DUP1 MLOAD SWAP1 PUSH1 0x20 ADD SWAP1 PUSH2 0xE70 SWAP3 SWAP2 SWAP1 PUSH2 0x145D JUMP JUMPDEST POP CALLER DUP2 PUSH1 0x1 ADD PUSH1 0x0 PUSH2 0x100 EXP DUP2 SLOAD DUP2 PUSH20 0xFFFFFFFFFFFFFFFFFFFFFFFFFFFFFFFFFFFFFFFF MUL NOT AND SWAP1 DUP4 PUSH20 0xFFFFFFFFFFFFFFFFFFFFFFFFFFFFFFFFFFFFFFFF AND MUL OR SWAP1 SSTORE POP DUP4 DUP2 PUSH1 0x3 ADD PUSH1 0x0 PUSH2 0x100 EXP DUP2 SLOAD DUP2 PUSH4 0xFFFFFFFF MUL NOT AND SWAP1 DUP4 PUSH4 0xFFFFFFFF AND MUL OR SWAP1 SSTORE POP PUSH1 0x1 PUSH1 0x0 SLOAD SWAP1 DUP1 PUSH1 0x1 DUP2 SLOAD ADD DUP1 DUP3 SSTORE DUP1 SWAP2 POP POP PUSH1 0x1 SWAP1 SUB SWAP1 PUSH1 0x0 MSTORE PUSH1 0x20 PUSH1 0x0 KECCAK256 ADD PUSH1 0x0 SWAP1 SWAP2 SWAP1 SWAP2 SWAP1 SWAP2 POP SSTORE PUSH1 0x0 DUP1 DUP2 SLOAD DUP1 SWAP3 SWAP2 SWAP1 PUSH2 0xF14 SWAP1 PUSH2 0x2214 JUMP JUMPDEST SWAP2 SWAP1 POP SSTORE POP DUP1 PUSH1 0x1 ADD PUSH1 0x0 SWAP1 SLOAD SWAP1 PUSH2 0x100 EXP SWAP1 DIV PUSH20 0xFFFFFFFFFFFFFFFFFFFFFFFFFFFFFFFFFFFFFFFF AND PUSH20 0xFFFFFFFFFFFFFFFFFFFFFFFFFFFFFFFFFFFFFFFF AND DUP2 PUSH1 0x3 ADD PUSH1 0x0 SWAP1 SLOAD SWAP1 PUSH2 0x100 EXP SWAP1 DIV PUSH4 0xFFFFFFFF AND PUSH4 0xFFFFFFFF AND DUP7 PUSH1 0x40 MLOAD PUSH2 0xF7D SWAP2 SWAP1 PUSH2 0x2618 JUMP JUMPDEST PUSH1 0x40 MLOAD DUP1 SWAP2 SUB SWAP1 KECCAK256 PUSH32 0x4B35E5CF01446AA899A8D21082EBF23B7497D38F2466AD49836BD1006A8D059E PUSH1 0x40 MLOAD PUSH1 0x40 MLOAD DUP1 SWAP2 SUB SWAP1 LOG4 DUP5 DUP5 DUP1 PUSH4 0xFFFFFFFF AND SWAP1 POP SWAP3 POP SWAP3 POP POP SWAP3 POP SWAP3 SWAP1 POP JUMP JUMPDEST PUSH1 0x60 PUSH1 0x1 DUP1 SLOAD SWAP1 POP PUSH8 0xFFFFFFFFFFFFFFFF DUP2 GT ISZERO PUSH2 0xFE9 JUMPI PUSH2 0xFE8 PUSH2 0x1967 JUMP JUMPDEST JUMPDEST PUSH1 0x40 MLOAD SWAP1 DUP1 DUP3 MSTORE DUP1 PUSH1 0x20 MUL PUSH1 0x20 ADD DUP3 ADD PUSH1 0x40 MSTORE DUP1 ISZERO PUSH2 0x1022 JUMPI DUP2 PUSH1 0x20 ADD JUMPDEST PUSH2 0x100F PUSH2 0x14E3 JUMP JUMPDEST DUP2 MSTORE PUSH1 0x20 ADD SWAP1 PUSH1 0x1 SWAP1 SUB SWAP1 DUP2 PUSH2 0x1007 JUMPI SWAP1 POP JUMPDEST POP SWAP1 POP PUSH1 0x0 JUMPDEST PUSH1 0x1 DUP1 SLOAD SWAP1 POP DUP2 GT PUSH2 0x11A8 JUMPI PUSH1 0x0 PUSH1 0x2 PUSH1 0x0 DUP4 DUP1 PUSH2 0x1045 SWAP1 PUSH2 0x2214 JUMP JUMPDEST SWAP5 POP DUP2 MSTORE PUSH1 0x20 ADD SWAP1 DUP2 MSTORE PUSH1 0x20 ADD PUSH1 0x0 KECCAK256 SWAP1 POP DUP1 PUSH1 0x1 ADD PUSH1 0x0 SWAP1 SLOAD SWAP1 PUSH2 0x100 EXP SWAP1 DIV PUSH20 0xFFFFFFFFFFFFFFFFFFFFFFFFFFFFFFFFFFFFFFFF AND DUP4 DUP4 DUP2 MLOAD DUP2 LT PUSH2 0x108F JUMPI PUSH2 0x108E PUSH2 0x21E5 JUMP JUMPDEST JUMPDEST PUSH1 0x20 MUL PUSH1 0x20 ADD ADD MLOAD PUSH1 0x20 ADD SWAP1 PUSH20 0xFFFFFFFFFFFFFFFFFFFFFFFFFFFFFFFFFFFFFFFF AND SWAP1 DUP2 PUSH20 0xFFFFFFFFFFFFFFFFFFFFFFFFFFFFFFFFFFFFFFFF AND DUP2 MSTORE POP POP DUP1 PUSH1 0x3 ADD PUSH1 0x0 SWAP1 SLOAD SWAP1 PUSH2 0x100 EXP SWAP1 DIV PUSH4 0xFFFFFFFF AND DUP4 DUP4 DUP2 MLOAD DUP2 LT PUSH2 0x10F5 JUMPI PUSH2 0x10F4 PUSH2 0x21E5 JUMP JUMPDEST JUMPDEST PUSH1 0x20 MUL PUSH1 0x20 ADD ADD MLOAD PUSH1 0x60 ADD SWAP1 PUSH4 0xFFFFFFFF AND SWAP1 DUP2 PUSH4 0xFFFFFFFF AND DUP2 MSTORE POP POP DUP1 PUSH1 0x3 ADD PUSH1 0x4 SWAP1 SLOAD SWAP1 PUSH2 0x100 EXP SWAP1 DIV PUSH4 0xFFFFFFFF AND DUP4 DUP4 DUP2 MLOAD DUP2 LT PUSH2 0x113B JUMPI PUSH2 0x113A PUSH2 0x21E5 JUMP JUMPDEST JUMPDEST PUSH1 0x20 MUL PUSH1 0x20 ADD ADD MLOAD PUSH1 0x80 ADD SWAP1 PUSH4 0xFFFFFFFF AND SWAP1 DUP2 PUSH4 0xFFFFFFFF AND DUP2 MSTORE POP POP DUP1 PUSH1 0x7 ADD PUSH1 0x0 SWAP1 SLOAD SWAP1 PUSH2 0x100 EXP SWAP1 DIV PUSH1 0xFF AND DUP4 DUP4 DUP2 MLOAD DUP2 LT PUSH2 0x117E JUMPI PUSH2 0x117D PUSH2 0x21E5 JUMP JUMPDEST JUMPDEST PUSH1 0x20 MUL PUSH1 0x20 ADD ADD MLOAD PUSH1 0xA0 ADD SWAP1 ISZERO ISZERO SWAP1 DUP2 ISZERO ISZERO DUP2 MSTORE POP POP POP DUP1 DUP1 PUSH2 0x11A0 SWAP1 PUSH2 0x2214 JUMP JUMPDEST SWAP2 POP POP PUSH2 0x1028 JUMP JUMPDEST POP SWAP1 JUMP JUMPDEST PUSH1 0x0 DUP1 PUSH1 0x2 PUSH1 0x0 DUP6 DUP2 MSTORE PUSH1 0x20 ADD SWAP1 DUP2 MSTORE PUSH1 0x20 ADD PUSH1 0x0 KECCAK256 SWAP1 POP DUP1 PUSH1 0x6 ADD PUSH1 0x0 DUP3 PUSH1 0x2 ADD DUP6 DUP2 SLOAD DUP2 LT PUSH2 0x11E0 JUMPI PUSH2 0x11DF PUSH2 0x21E5 JUMP JUMPDEST JUMPDEST SWAP1 PUSH1 0x0 MSTORE PUSH1 0x20 PUSH1 0x0 KECCAK256 ADD PUSH1 0x0 SWAP1 SLOAD SWAP1 PUSH2 0x100 EXP SWAP1 DIV PUSH20 0xFFFFFFFFFFFFFFFFFFFFFFFFFFFFFFFFFFFFFFFF AND PUSH20 0xFFFFFFFFFFFFFFFFFFFFFFFFFFFFFFFFFFFFFFFF AND PUSH20 0xFFFFFFFFFFFFFFFFFFFFFFFFFFFFFFFFFFFFFFFF AND DUP2 MSTORE PUSH1 0x20 ADD SWAP1 DUP2 MSTORE PUSH1 0x20 ADD PUSH1 0x0 KECCAK256 SLOAD SWAP2 POP POP SWAP3 SWAP2 POP POP JUMP JUMPDEST PUSH1 0x0 DUP1 PUSH1 0x0 DUP1 PUSH1 0x41 DUP6 MLOAD EQ PUSH2 0x126A JUMPI PUSH1 0x0 SWAP4 POP POP POP POP PUSH2 0x1342 JUMP JUMPDEST PUSH1 0x20 DUP6 ADD MLOAD SWAP3 POP PUSH1 0x40 DUP6 ADD MLOAD SWAP2 POP PUSH1 0x60 DUP6 ADD MLOAD PUSH1 0x0 BYTE SWAP1 POP PUSH1 0x1B DUP2 PUSH1 0xFF AND LT ISZERO PUSH2 0x129E JUMPI PUSH1 0x1B DUP2 PUSH2 0x129B SWAP2 SWAP1 PUSH2 0x263C JUMP JUMPDEST SWAP1 POP JUMPDEST PUSH1 0x1B DUP2 PUSH1 0xFF AND EQ ISZERO DUP1 ISZERO PUSH2 0x12B6 JUMPI POP PUSH1 0x1C DUP2 PUSH1 0xFF AND EQ ISZERO JUMPDEST ISZERO PUSH2 0x12C7 JUMPI PUSH1 0x0 SWAP4 POP POP POP POP PUSH2 0x1342 JUMP JUMPDEST PUSH1 0x1 DUP7 PUSH1 0x40 MLOAD PUSH1 0x20 ADD PUSH2 0x12DA SWAP2 SWAP1 PUSH2 0x26E0 JUMP JUMPDEST PUSH1 0x40 MLOAD PUSH1 0x20 DUP2 DUP4 SUB SUB DUP2 MSTORE SWAP1 PUSH1 0x40 MSTORE DUP1 MLOAD SWAP1 PUSH1 0x20 ADD KECCAK256 DUP3 DUP6 DUP6 PUSH1 0x40 MLOAD PUSH1 0x0 DUP2 MSTORE PUSH1 0x20 ADD PUSH1 0x40 MSTORE PUSH1 0x40 MLOAD PUSH2 0x1310 SWAP5 SWAP4 SWAP3 SWAP2 SWAP1 PUSH2 0x2715 JUMP JUMPDEST PUSH1 0x20 PUSH1 0x40 MLOAD PUSH1 0x20 DUP2 SUB SWAP1 DUP1 DUP5 SUB SWAP1 DUP6 GAS STATICCALL ISZERO DUP1 ISZERO PUSH2 0x1332 JUMPI RETURNDATASIZE PUSH1 0x0 DUP1 RETURNDATACOPY RETURNDATASIZE PUSH1 0x0 REVERT JUMPDEST POP POP POP PUSH1 0x20 PUSH1 0x40 MLOAD SUB MLOAD SWAP4 POP POP POP POP JUMPDEST SWAP3 SWAP2 POP POP JUMP JUMPDEST PUSH1 0x0 DUP1 PUSH1 0x2 PUSH1 0x0 DUP6 DUP2 MSTORE PUSH1 0x20 ADD SWAP1 DUP2 MSTORE PUSH1 0x20 ADD PUSH1 0x0 KECCAK256 SWAP1 POP PUSH1 0x1 DUP2 PUSH1 0x5 ADD PUSH1 0x0 DUP6 PUSH20 0xFFFFFFFFFFFFFFFFFFFFFFFFFFFFFFFFFFFFFFFF AND PUSH20 0xFFFFFFFFFFFFFFFFFFFFFFFFFFFFFFFFFFFFFFFF AND DUP2 MSTORE PUSH1 0x20 ADD SWAP1 DUP2 MSTORE PUSH1 0x20 ADD PUSH1 0x0 KECCAK256 PUSH1 0x0 PUSH2 0x100 EXP DUP2 SLOAD DUP2 PUSH1 0xFF MUL NOT AND SWAP1 DUP4 ISZERO ISZERO MUL OR SWAP1 SSTORE POP DUP1 PUSH1 0x6 ADD PUSH1 0x0 DUP7 PUSH20 0xFFFFFFFFFFFFFFFFFFFFFFFFFFFFFFFFFFFFFFFF AND PUSH20 0xFFFFFFFFFFFFFFFFFFFFFFFFFFFFFFFFFFFFFFFF AND DUP2 MSTORE PUSH1 0x20 ADD SWAP1 DUP2 MSTORE PUSH1 0x20 ADD PUSH1 0x0 KECCAK256 PUSH1 0x0 DUP2 SLOAD DUP1 SWAP3 SWAP2 SWAP1 PUSH2 0x140C SWAP1 PUSH2 0x2214 JUMP JUMPDEST SWAP2 SWAP1 POP SSTORE POP DUP1 PUSH1 0x6 ADD PUSH1 0x0 DUP7 PUSH20 0xFFFFFFFFFFFFFFFFFFFFFFFFFFFFFFFFFFFFFFFF AND PUSH20 0xFFFFFFFFFFFFFFFFFFFFFFFFFFFFFFFFFFFFFFFF AND DUP2 MSTORE PUSH1 0x20 ADD SWAP1 DUP2 MSTORE PUSH1 0x20 ADD PUSH1 0x0 KECCAK256 SLOAD SWAP2 POP POP SWAP4 SWAP3 POP POP POP JUMP JUMPDEST DUP3 DUP1 SLOAD PUSH2 0x1469 SWAP1 PUSH2 0x25B5 JUMP JUMPDEST SWAP1 PUSH1 0x0 MSTORE PUSH1 0x20 PUSH1 0x0 KECCAK256 SWAP1 PUSH1 0x1F ADD PUSH1 0x20 SWAP1 DIV DUP2 ADD SWAP3 DUP3 PUSH2 0x148B JUMPI PUSH1 0x0 DUP6 SSTORE PUSH2 0x14D2 JUMP JUMPDEST DUP3 PUSH1 0x1F LT PUSH2 0x14A4 JUMPI DUP1 MLOAD PUSH1 0xFF NOT AND DUP4 DUP1 ADD OR DUP6 SSTORE PUSH2 0x14D2 JUMP JUMPDEST DUP3 DUP1 ADD PUSH1 0x1 ADD DUP6 SSTORE DUP3 ISZERO PUSH2 0x14D2 JUMPI SWAP2 DUP3 ADD JUMPDEST DUP3 DUP2 GT ISZERO PUSH2 0x14D1 JUMPI DUP3 MLOAD DUP3 SSTORE SWAP2 PUSH1 0x20 ADD SWAP2 SWAP1 PUSH1 0x1 ADD SWAP1 PUSH2 0x14B6 JUMP JUMPDEST JUMPDEST POP SWAP1 POP PUSH2 0x14DF SWAP2 SWAP1 PUSH2 0x153D JUMP JUMPDEST POP SWAP1 JUMP JUMPDEST PUSH1 0x40 MLOAD DUP1 PUSH1 0xC0 ADD PUSH1 0x40 MSTORE DUP1 PUSH1 0x60 DUP2 MSTORE PUSH1 0x20 ADD PUSH1 0x0 PUSH20 0xFFFFFFFFFFFFFFFFFFFFFFFFFFFFFFFFFFFFFFFF AND DUP2 MSTORE PUSH1 0x20 ADD PUSH1 0x60 DUP2 MSTORE PUSH1 0x20 ADD PUSH1 0x0 PUSH4 0xFFFFFFFF AND DUP2 MSTORE PUSH1 0x20 ADD PUSH1 0x0 PUSH4 0xFFFFFFFF AND DUP2 MSTORE PUSH1 0x20 ADD PUSH1 0x0 ISZERO ISZERO DUP2 MSTORE POP SWAP1 JUMP JUMPDEST JUMPDEST DUP1 DUP3 GT ISZERO PUSH2 0x1556 JUMPI PUSH1 0x0 DUP2 PUSH1 0x0 SWAP1 SSTORE POP PUSH1 0x1 ADD PUSH2 0x153E JUMP JUMPDEST POP SWAP1 JUMP JUMPDEST PUSH1 0x0 PUSH1 0x40 MLOAD SWAP1 POP SWAP1 JUMP JUMPDEST PUSH1 0x0 DUP1 REVERT JUMPDEST PUSH1 0x0 DUP1 REVERT JUMPDEST PUSH1 0x0 PUSH20 0xFFFFFFFFFFFFFFFFFFFFFFFFFFFFFFFFFFFFFFFF DUP3 AND SWAP1 POP SWAP2 SWAP1 POP JUMP JUMPDEST PUSH1 0x0 PUSH2 0x1599 DUP3 PUSH2 0x156E JUMP JUMPDEST SWAP1 POP SWAP2 SWAP1 POP JUMP JUMPDEST PUSH2 0x15A9 DUP2 PUSH2 0x158E JUMP JUMPDEST DUP2 EQ PUSH2 0x15B4 JUMPI PUSH1 0x0 DUP1 REVERT JUMPDEST POP JUMP JUMPDEST PUSH1 0x0 DUP2 CALLDATALOAD SWAP1 POP PUSH2 0x15C6 DUP2 PUSH2 0x15A0 JUMP JUMPDEST SWAP3 SWAP2 POP POP JUMP JUMPDEST PUSH1 0x0 DUP2 SWAP1 POP SWAP2 SWAP1 POP JUMP JUMPDEST PUSH2 0x15DF DUP2 PUSH2 0x15CC JUMP JUMPDEST DUP2 EQ PUSH2 0x15EA JUMPI PUSH1 0x0 DUP1 REVERT JUMPDEST POP JUMP JUMPDEST PUSH1 0x0 DUP2 CALLDATALOAD SWAP1 POP PUSH2 0x15FC DUP2 PUSH2 0x15D6 JUMP JUMPDEST SWAP3 SWAP2 POP POP JUMP JUMPDEST PUSH1 0x0 DUP1 PUSH1 0x40 DUP4 DUP6 SUB SLT ISZERO PUSH2 0x1619 JUMPI PUSH2 0x1618 PUSH2 0x1564 JUMP JUMPDEST JUMPDEST PUSH1 0x0 PUSH2 0x1627 DUP6 DUP3 DUP7 ADD PUSH2 0x15B7 JUMP JUMPDEST SWAP3 POP POP PUSH1 0x20 PUSH2 0x1638 DUP6 DUP3 DUP7 ADD PUSH2 0x15ED JUMP JUMPDEST SWAP2 POP POP SWAP3 POP SWAP3 SWAP1 POP JUMP JUMPDEST PUSH1 0x0 PUSH1 0x20 DUP3 DUP5 SUB SLT ISZERO PUSH2 0x1658 JUMPI PUSH2 0x1657 PUSH2 0x1564 JUMP JUMPDEST JUMPDEST PUSH1 0x0 PUSH2 0x1666 DUP5 DUP3 DUP6 ADD PUSH2 0x15ED JUMP JUMPDEST SWAP2 POP POP SWAP3 SWAP2 POP POP JUMP JUMPDEST PUSH2 0x1678 DUP2 PUSH2 0x15CC JUMP JUMPDEST DUP3 MSTORE POP POP JUMP JUMPDEST PUSH1 0x0 PUSH1 0x20 DUP3 ADD SWAP1 POP PUSH2 0x1693 PUSH1 0x0 DUP4 ADD DUP5 PUSH2 0x166F JUMP JUMPDEST SWAP3 SWAP2 POP POP JUMP JUMPDEST PUSH1 0x0 PUSH1 0x20 DUP3 DUP5 SUB SLT ISZERO PUSH2 0x16AF JUMPI PUSH2 0x16AE PUSH2 0x1564 JUMP JUMPDEST JUMPDEST PUSH1 0x0 PUSH2 0x16BD DUP5 DUP3 DUP6 ADD PUSH2 0x15B7 JUMP JUMPDEST SWAP2 POP POP SWAP3 SWAP2 POP POP JUMP JUMPDEST PUSH1 0x0 DUP2 MLOAD SWAP1 POP SWAP2 SWAP1 POP JUMP JUMPDEST PUSH1 0x0 DUP3 DUP3 MSTORE PUSH1 0x20 DUP3 ADD SWAP1 POP SWAP3 SWAP2 POP POP JUMP JUMPDEST PUSH1 0x0 DUP2 SWAP1 POP PUSH1 0x20 DUP3 ADD SWAP1 POP SWAP2 SWAP1 POP JUMP JUMPDEST PUSH2 0x16FB DUP2 PUSH2 0x158E JUMP JUMPDEST DUP3 MSTORE POP POP JUMP JUMPDEST PUSH1 0x0 PUSH2 0x170D DUP4 DUP4 PUSH2 0x16F2 JUMP JUMPDEST PUSH1 0x20 DUP4 ADD SWAP1 POP SWAP3 SWAP2 POP POP JUMP JUMPDEST PUSH1 0x0 PUSH1 0x20 DUP3 ADD SWAP1 POP SWAP2 SWAP1 POP JUMP JUMPDEST PUSH1 0x0 PUSH2 0x1731 DUP3 PUSH2 0x16C6 JUMP JUMPDEST PUSH2 0x173B DUP2 DUP6 PUSH2 0x16D1 JUMP JUMPDEST SWAP4 POP PUSH2 0x1746 DUP4 PUSH2 0x16E2 JUMP JUMPDEST DUP1 PUSH1 0x0 JUMPDEST DUP4 DUP2 LT ISZERO PUSH2 0x1777 JUMPI DUP2 MLOAD PUSH2 0x175E DUP9 DUP3 PUSH2 0x1701 JUMP JUMPDEST SWAP8 POP PUSH2 0x1769 DUP4 PUSH2 0x1719 JUMP JUMPDEST SWAP3 POP POP PUSH1 0x1 DUP2 ADD SWAP1 POP PUSH2 0x174A JUMP JUMPDEST POP DUP6 SWAP4 POP POP POP POP SWAP3 SWAP2 POP POP JUMP JUMPDEST PUSH1 0x0 PUSH1 0x20 DUP3 ADD SWAP1 POP DUP2 DUP2 SUB PUSH1 0x0 DUP4 ADD MSTORE PUSH2 0x179E DUP2 DUP5 PUSH2 0x1726 JUMP JUMPDEST SWAP1 POP SWAP3 SWAP2 POP POP JUMP JUMPDEST PUSH1 0x0 DUP2 MLOAD SWAP1 POP SWAP2 SWAP1 POP JUMP JUMPDEST PUSH1 0x0 DUP3 DUP3 MSTORE PUSH1 0x20 DUP3 ADD SWAP1 POP SWAP3 SWAP2 POP POP JUMP JUMPDEST PUSH1 0x0 DUP2 SWAP1 POP PUSH1 0x20 DUP3 ADD SWAP1 POP SWAP2 SWAP1 POP JUMP JUMPDEST PUSH2 0x17DB DUP2 PUSH2 0x15CC JUMP JUMPDEST DUP3 MSTORE POP POP JUMP JUMPDEST PUSH1 0x0 PUSH2 0x17ED DUP4 DUP4 PUSH2 0x17D2 JUMP JUMPDEST PUSH1 0x20 DUP4 ADD SWAP1 POP SWAP3 SWAP2 POP POP JUMP JUMPDEST PUSH1 0x0 PUSH1 0x20 DUP3 ADD SWAP1 POP SWAP2 SWAP1 POP JUMP JUMPDEST PUSH1 0x0 PUSH2 0x1811 DUP3 PUSH2 0x17A6 JUMP JUMPDEST PUSH2 0x181B DUP2 DUP6 PUSH2 0x17B1 JUMP JUMPDEST SWAP4 POP PUSH2 0x1826 DUP4 PUSH2 0x17C2 JUMP JUMPDEST DUP1 PUSH1 0x0 JUMPDEST DUP4 DUP2 LT ISZERO PUSH2 0x1857 JUMPI DUP2 MLOAD PUSH2 0x183E DUP9 DUP3 PUSH2 0x17E1 JUMP JUMPDEST SWAP8 POP PUSH2 0x1849 DUP4 PUSH2 0x17F9 JUMP JUMPDEST SWAP3 POP POP PUSH1 0x1 DUP2 ADD SWAP1 POP PUSH2 0x182A JUMP JUMPDEST POP DUP6 SWAP4 POP POP POP POP SWAP3 SWAP2 POP POP JUMP JUMPDEST PUSH2 0x186D DUP2 PUSH2 0x158E JUMP JUMPDEST DUP3 MSTORE POP POP JUMP JUMPDEST PUSH1 0x0 PUSH1 0x60 DUP3 ADD SWAP1 POP DUP2 DUP2 SUB PUSH1 0x0 DUP4 ADD MSTORE PUSH2 0x188D DUP2 DUP7 PUSH2 0x1806 JUMP JUMPDEST SWAP1 POP PUSH2 0x189C PUSH1 0x20 DUP4 ADD DUP6 PUSH2 0x1864 JUMP JUMPDEST PUSH2 0x18A9 PUSH1 0x40 DUP4 ADD DUP5 PUSH2 0x166F JUMP JUMPDEST SWAP5 SWAP4 POP POP POP POP JUMP JUMPDEST PUSH1 0x0 DUP1 PUSH1 0x0 DUP1 PUSH1 0x80 DUP6 DUP8 SUB SLT ISZERO PUSH2 0x18CB JUMPI PUSH2 0x18CA PUSH2 0x1564 JUMP JUMPDEST JUMPDEST PUSH1 0x0 PUSH2 0x18D9 DUP8 DUP3 DUP9 ADD PUSH2 0x15B7 JUMP JUMPDEST SWAP5 POP POP PUSH1 0x20 PUSH2 0x18EA DUP8 DUP3 DUP9 ADD PUSH2 0x15ED JUMP JUMPDEST SWAP4 POP POP PUSH1 0x40 PUSH2 0x18FB DUP8 DUP3 DUP9 ADD PUSH2 0x15ED JUMP JUMPDEST SWAP3 POP POP PUSH1 0x60 PUSH2 0x190C DUP8 DUP3 DUP9 ADD PUSH2 0x15ED JUMP JUMPDEST SWAP2 POP POP SWAP3 SWAP6 SWAP2 SWAP5 POP SWAP3 POP JUMP JUMPDEST PUSH1 0x0 DUP2 SWAP1 POP SWAP2 SWAP1 POP JUMP JUMPDEST PUSH2 0x192B DUP2 PUSH2 0x1918 JUMP JUMPDEST DUP3 MSTORE POP POP JUMP JUMPDEST PUSH1 0x0 PUSH1 0x20 DUP3 ADD SWAP1 POP PUSH2 0x1946 PUSH1 0x0 DUP4 ADD DUP5 PUSH2 0x1922 JUMP JUMPDEST SWAP3 SWAP2 POP POP JUMP JUMPDEST PUSH1 0x0 DUP1 REVERT JUMPDEST PUSH1 0x0 DUP1 REVERT JUMPDEST PUSH1 0x0 PUSH1 0x1F NOT PUSH1 0x1F DUP4 ADD AND SWAP1 POP SWAP2 SWAP1 POP JUMP JUMPDEST PUSH32 0x4E487B7100000000000000000000000000000000000000000000000000000000 PUSH1 0x0 MSTORE PUSH1 0x41 PUSH1 0x4 MSTORE PUSH1 0x24 PUSH1 0x0 REVERT JUMPDEST PUSH2 0x199F DUP3 PUSH2 0x1956 JUMP JUMPDEST DUP2 ADD DUP2 DUP2 LT PUSH8 0xFFFFFFFFFFFFFFFF DUP3 GT OR ISZERO PUSH2 0x19BE JUMPI PUSH2 0x19BD PUSH2 0x1967 JUMP JUMPDEST JUMPDEST DUP1 PUSH1 0x40 MSTORE POP POP POP JUMP JUMPDEST PUSH1 0x0 PUSH2 0x19D1 PUSH2 0x155A JUMP JUMPDEST SWAP1 POP PUSH2 0x19DD DUP3 DUP3 PUSH2 0x1996 JUMP JUMPDEST SWAP2 SWAP1 POP JUMP JUMPDEST PUSH1 0x0 PUSH8 0xFFFFFFFFFFFFFFFF DUP3 GT ISZERO PUSH2 0x19FD JUMPI PUSH2 0x19FC PUSH2 0x1967 JUMP JUMPDEST JUMPDEST PUSH2 0x1A06 DUP3 PUSH2 0x1956 JUMP JUMPDEST SWAP1 POP PUSH1 0x20 DUP2 ADD SWAP1 POP SWAP2 SWAP1 POP JUMP JUMPDEST DUP3 DUP2 DUP4 CALLDATACOPY PUSH1 0x0 DUP4 DUP4 ADD MSTORE POP POP POP JUMP JUMPDEST PUSH1 0x0 PUSH2 0x1A35 PUSH2 0x1A30 DUP5 PUSH2 0x19E2 JUMP JUMPDEST PUSH2 0x19C7 JUMP JUMPDEST SWAP1 POP DUP3 DUP2 MSTORE PUSH1 0x20 DUP2 ADD DUP5 DUP5 DUP5 ADD GT ISZERO PUSH2 0x1A51 JUMPI PUSH2 0x1A50 PUSH2 0x1951 JUMP JUMPDEST JUMPDEST PUSH2 0x1A5C DUP5 DUP3 DUP6 PUSH2 0x1A13 JUMP JUMPDEST POP SWAP4 SWAP3 POP POP POP JUMP JUMPDEST PUSH1 0x0 DUP3 PUSH1 0x1F DUP4 ADD SLT PUSH2 0x1A79 JUMPI PUSH2 0x1A78 PUSH2 0x194C JUMP JUMPDEST JUMPDEST DUP2 CALLDATALOAD PUSH2 0x1A89 DUP5 DUP3 PUSH1 0x20 DUP7 ADD PUSH2 0x1A22 JUMP JUMPDEST SWAP2 POP POP SWAP3 SWAP2 POP POP JUMP JUMPDEST PUSH1 0x0 DUP1 PUSH1 0x0 DUP1 PUSH1 0x80 DUP6 DUP8 SUB SLT ISZERO PUSH2 0x1AAC JUMPI PUSH2 0x1AAB PUSH2 0x1564 JUMP JUMPDEST JUMPDEST PUSH1 0x0 PUSH2 0x1ABA DUP8 DUP3 DUP9 ADD PUSH2 0x15B7 JUMP JUMPDEST SWAP5 POP POP PUSH1 0x20 PUSH2 0x1ACB DUP8 DUP3 DUP9 ADD PUSH2 0x15ED JUMP JUMPDEST SWAP4 POP POP PUSH1 0x40 PUSH2 0x1ADC DUP8 DUP3 DUP9 ADD PUSH2 0x15ED JUMP JUMPDEST SWAP3 POP POP PUSH1 0x60 DUP6 ADD CALLDATALOAD PUSH8 0xFFFFFFFFFFFFFFFF DUP2 GT ISZERO PUSH2 0x1AFD JUMPI PUSH2 0x1AFC PUSH2 0x1569 JUMP JUMPDEST JUMPDEST PUSH2 0x1B09 DUP8 DUP3 DUP9 ADD PUSH2 0x1A64 JUMP JUMPDEST SWAP2 POP POP SWAP3 SWAP6 SWAP2 SWAP5 POP SWAP3 POP JUMP JUMPDEST PUSH1 0x0 DUP2 MLOAD SWAP1 POP SWAP2 SWAP1 POP JUMP JUMPDEST PUSH1 0x0 DUP3 DUP3 MSTORE PUSH1 0x20 DUP3 ADD SWAP1 POP SWAP3 SWAP2 POP POP JUMP JUMPDEST PUSH1 0x0 JUMPDEST DUP4 DUP2 LT ISZERO PUSH2 0x1B4F JUMPI DUP1 DUP3 ADD MLOAD DUP2 DUP5 ADD MSTORE PUSH1 0x20 DUP2 ADD SWAP1 POP PUSH2 0x1B34 JUMP JUMPDEST DUP4 DUP2 GT ISZERO PUSH2 0x1B5E JUMPI PUSH1 0x0 DUP5 DUP5 ADD MSTORE JUMPDEST POP POP POP POP JUMP JUMPDEST PUSH1 0x0 PUSH2 0x1B6F DUP3 PUSH2 0x1B15 JUMP JUMPDEST PUSH2 0x1B79 DUP2 DUP6 PUSH2 0x1B20 JUMP JUMPDEST SWAP4 POP PUSH2 0x1B89 DUP2 DUP6 PUSH1 0x20 DUP7 ADD PUSH2 0x1B31 JUMP JUMPDEST PUSH2 0x1B92 DUP2 PUSH2 0x1956 JUMP JUMPDEST DUP5 ADD SWAP2 POP POP SWAP3 SWAP2 POP POP JUMP JUMPDEST PUSH1 0x0 PUSH4 0xFFFFFFFF DUP3 AND SWAP1 POP SWAP2 SWAP1 POP JUMP JUMPDEST PUSH2 0x1BB6 DUP2 PUSH2 0x1B9D JUMP JUMPDEST DUP3 MSTORE POP POP JUMP JUMPDEST PUSH1 0x0 DUP2 ISZERO ISZERO SWAP1 POP SWAP2 SWAP1 POP JUMP JUMPDEST PUSH2 0x1BD1 DUP2 PUSH2 0x1BBC JUMP JUMPDEST DUP3 MSTORE POP POP JUMP JUMPDEST PUSH1 0x0 PUSH1 0xA0 DUP3 ADD SWAP1 POP DUP2 DUP2 SUB PUSH1 0x0 DUP4 ADD MSTORE PUSH2 0x1BF1 DUP2 DUP9 PUSH2 0x1B64 JUMP JUMPDEST SWAP1 POP PUSH2 0x1C00 PUSH1 0x20 DUP4 ADD DUP8 PUSH2 0x1864 JUMP JUMPDEST PUSH2 0x1C0D PUSH1 0x40 DUP4 ADD DUP7 PUSH2 0x1BAD JUMP JUMPDEST PUSH2 0x1C1A PUSH1 0x60 DUP4 ADD DUP6 PUSH2 0x1BAD JUMP JUMPDEST PUSH2 0x1C27 PUSH1 0x80 DUP4 ADD DUP5 PUSH2 0x1BC8 JUMP JUMPDEST SWAP7 SWAP6 POP POP POP POP POP POP JUMP JUMPDEST PUSH1 0x0 PUSH8 0xFFFFFFFFFFFFFFFF DUP3 GT ISZERO PUSH2 0x1C4C JUMPI PUSH2 0x1C4B PUSH2 0x1967 JUMP JUMPDEST JUMPDEST PUSH2 0x1C55 DUP3 PUSH2 0x1956 JUMP JUMPDEST SWAP1 POP PUSH1 0x20 DUP2 ADD SWAP1 POP SWAP2 SWAP1 POP JUMP JUMPDEST PUSH1 0x0 PUSH2 0x1C75 PUSH2 0x1C70 DUP5 PUSH2 0x1C31 JUMP JUMPDEST PUSH2 0x19C7 JUMP JUMPDEST SWAP1 POP DUP3 DUP2 MSTORE PUSH1 0x20 DUP2 ADD DUP5 DUP5 DUP5 ADD GT ISZERO PUSH2 0x1C91 JUMPI PUSH2 0x1C90 PUSH2 0x1951 JUMP JUMPDEST JUMPDEST PUSH2 0x1C9C DUP5 DUP3 DUP6 PUSH2 0x1A13 JUMP JUMPDEST POP SWAP4 SWAP3 POP POP POP JUMP JUMPDEST PUSH1 0x0 DUP3 PUSH1 0x1F DUP4 ADD SLT PUSH2 0x1CB9 JUMPI PUSH2 0x1CB8 PUSH2 0x194C JUMP JUMPDEST JUMPDEST DUP2 CALLDATALOAD PUSH2 0x1CC9 DUP5 DUP3 PUSH1 0x20 DUP7 ADD PUSH2 0x1C62 JUMP JUMPDEST SWAP2 POP POP SWAP3 SWAP2 POP POP JUMP JUMPDEST PUSH2 0x1CDB DUP2 PUSH2 0x1B9D JUMP JUMPDEST DUP2 EQ PUSH2 0x1CE6 JUMPI PUSH1 0x0 DUP1 REVERT JUMPDEST POP JUMP JUMPDEST PUSH1 0x0 DUP2 CALLDATALOAD SWAP1 POP PUSH2 0x1CF8 DUP2 PUSH2 0x1CD2 JUMP JUMPDEST SWAP3 SWAP2 POP POP JUMP JUMPDEST PUSH1 0x0 DUP1 PUSH1 0x40 DUP4 DUP6 SUB SLT ISZERO PUSH2 0x1D15 JUMPI PUSH2 0x1D14 PUSH2 0x1564 JUMP JUMPDEST JUMPDEST PUSH1 0x0 DUP4 ADD CALLDATALOAD PUSH8 0xFFFFFFFFFFFFFFFF DUP2 GT ISZERO PUSH2 0x1D33 JUMPI PUSH2 0x1D32 PUSH2 0x1569 JUMP JUMPDEST JUMPDEST PUSH2 0x1D3F DUP6 DUP3 DUP7 ADD PUSH2 0x1CA4 JUMP JUMPDEST SWAP3 POP POP PUSH1 0x20 PUSH2 0x1D50 DUP6 DUP3 DUP7 ADD PUSH2 0x1CE9 JUMP JUMPDEST SWAP2 POP POP SWAP3 POP SWAP3 SWAP1 POP JUMP JUMPDEST PUSH1 0x0 PUSH1 0x40 DUP3 ADD SWAP1 POP DUP2 DUP2 SUB PUSH1 0x0 DUP4 ADD MSTORE PUSH2 0x1D74 DUP2 DUP6 PUSH2 0x1B64 JUMP JUMPDEST SWAP1 POP PUSH2 0x1D83 PUSH1 0x20 DUP4 ADD DUP5 PUSH2 0x166F JUMP JUMPDEST SWAP4 SWAP3 POP POP POP JUMP JUMPDEST PUSH1 0x0 DUP2 MLOAD SWAP1 POP SWAP2 SWAP1 POP JUMP JUMPDEST PUSH1 0x0 DUP3 DUP3 MSTORE PUSH1 0x20 DUP3 ADD SWAP1 POP SWAP3 SWAP2 POP POP JUMP JUMPDEST PUSH1 0x0 DUP2 SWAP1 POP PUSH1 0x20 DUP3 ADD SWAP1 POP SWAP2 SWAP1 POP JUMP JUMPDEST PUSH1 0x0 DUP3 DUP3 MSTORE PUSH1 0x20 DUP3 ADD SWAP1 POP SWAP3 SWAP2 POP POP JUMP JUMPDEST PUSH1 0x0 PUSH2 0x1DD2 DUP3 PUSH2 0x1B15 JUMP JUMPDEST PUSH2 0x1DDC DUP2 DUP6 PUSH2 0x1DB6 JUMP JUMPDEST SWAP4 POP PUSH2 0x1DEC DUP2 DUP6 PUSH1 0x20 DUP7 ADD PUSH2 0x1B31 JUMP JUMPDEST PUSH2 0x1DF5 DUP2 PUSH2 0x1956 JUMP JUMPDEST DUP5 ADD SWAP2 POP POP SWAP3 SWAP2 POP POP JUMP JUMPDEST PUSH1 0x0 DUP3 DUP3 MSTORE PUSH1 0x20 DUP3 ADD SWAP1 POP SWAP3 SWAP2 POP POP JUMP JUMPDEST PUSH1 0x0 PUSH2 0x1E1C DUP3 PUSH2 0x16C6 JUMP JUMPDEST PUSH2 0x1E26 DUP2 DUP6 PUSH2 0x1E00 JUMP JUMPDEST SWAP4 POP PUSH2 0x1E31 DUP4 PUSH2 0x16E2 JUMP JUMPDEST DUP1 PUSH1 0x0 JUMPDEST DUP4 DUP2 LT ISZERO PUSH2 0x1E62 JUMPI DUP2 MLOAD PUSH2 0x1E49 DUP9 DUP3 PUSH2 0x1701 JUMP JUMPDEST SWAP8 POP PUSH2 0x1E54 DUP4 PUSH2 0x1719 JUMP JUMPDEST SWAP3 POP POP PUSH1 0x1 DUP2 ADD SWAP1 POP PUSH2 0x1E35 JUMP JUMPDEST POP DUP6 SWAP4 POP POP POP POP SWAP3 SWAP2 POP POP JUMP JUMPDEST PUSH2 0x1E78 DUP2 PUSH2 0x1B9D JUMP JUMPDEST DUP3 MSTORE POP POP JUMP JUMPDEST PUSH2 0x1E87 DUP2 PUSH2 0x1BBC JUMP JUMPDEST DUP3 MSTORE POP POP JUMP JUMPDEST PUSH1 0x0 PUSH1 0xC0 DUP4 ADD PUSH1 0x0 DUP4 ADD MLOAD DUP5 DUP3 SUB PUSH1 0x0 DUP7 ADD MSTORE PUSH2 0x1EAA DUP3 DUP3 PUSH2 0x1DC7 JUMP JUMPDEST SWAP2 POP POP PUSH1 0x20 DUP4 ADD MLOAD PUSH2 0x1EBF PUSH1 0x20 DUP7 ADD DUP3 PUSH2 0x16F2 JUMP JUMPDEST POP PUSH1 0x40 DUP4 ADD MLOAD DUP5 DUP3 SUB PUSH1 0x40 DUP7 ADD MSTORE PUSH2 0x1ED7 DUP3 DUP3 PUSH2 0x1E11 JUMP JUMPDEST SWAP2 POP POP PUSH1 0x60 DUP4 ADD MLOAD PUSH2 0x1EEC PUSH1 0x60 DUP7 ADD DUP3 PUSH2 0x1E6F JUMP JUMPDEST POP PUSH1 0x80 DUP4 ADD MLOAD PUSH2 0x1EFF PUSH1 0x80 DUP7 ADD DUP3 PUSH2 0x1E6F JUMP JUMPDEST POP PUSH1 0xA0 DUP4 ADD MLOAD PUSH2 0x1F12 PUSH1 0xA0 DUP7 ADD DUP3 PUSH2 0x1E7E JUMP JUMPDEST POP DUP1 SWAP2 POP POP SWAP3 SWAP2 POP POP JUMP JUMPDEST PUSH1 0x0 PUSH2 0x1F29 DUP4 DUP4 PUSH2 0x1E8D JUMP JUMPDEST SWAP1 POP SWAP3 SWAP2 POP POP JUMP JUMPDEST PUSH1 0x0 PUSH1 0x20 DUP3 ADD SWAP1 POP SWAP2 SWAP1 POP JUMP JUMPDEST PUSH1 0x0 PUSH2 0x1F49 DUP3 PUSH2 0x1D8A JUMP JUMPDEST PUSH2 0x1F53 DUP2 DUP6 PUSH2 0x1D95 JUMP JUMPDEST SWAP4 POP DUP4 PUSH1 0x20 DUP3 MUL DUP6 ADD PUSH2 0x1F65 DUP6 PUSH2 0x1DA6 JUMP JUMPDEST DUP1 PUSH1 0x0 JUMPDEST DUP6 DUP2 LT ISZERO PUSH2 0x1FA1 JUMPI DUP5 DUP5 SUB DUP10 MSTORE DUP2 MLOAD PUSH2 0x1F82 DUP6 DUP3 PUSH2 0x1F1D JUMP JUMPDEST SWAP5 POP PUSH2 0x1F8D DUP4 PUSH2 0x1F31 JUMP JUMPDEST SWAP3 POP PUSH1 0x20 DUP11 ADD SWAP10 POP POP PUSH1 0x1 DUP2 ADD SWAP1 POP PUSH2 0x1F69 JUMP JUMPDEST POP DUP3 SWAP8 POP DUP8 SWAP6 POP POP POP POP POP POP SWAP3 SWAP2 POP POP JUMP JUMPDEST PUSH1 0x0 PUSH1 0x20 DUP3 ADD SWAP1 POP DUP2 DUP2 SUB PUSH1 0x0 DUP4 ADD MSTORE PUSH2 0x1FCD DUP2 DUP5 PUSH2 0x1F3E JUMP JUMPDEST SWAP1 POP SWAP3 SWAP2 POP POP JUMP JUMPDEST PUSH32 0x79657420746F20637265617465206120706F6C6C000000000000000000000000 PUSH1 0x0 DUP3 ADD MSTORE POP JUMP JUMPDEST PUSH1 0x0 PUSH2 0x200B PUSH1 0x14 DUP4 PUSH2 0x1B20 JUMP JUMPDEST SWAP2 POP PUSH2 0x2016 DUP3 PUSH2 0x1FD5 JUMP JUMPDEST PUSH1 0x20 DUP3 ADD SWAP1 POP SWAP2 SWAP1 POP JUMP JUMPDEST PUSH1 0x0 PUSH1 0x20 DUP3 ADD SWAP1 POP DUP2 DUP2 SUB PUSH1 0x0 DUP4 ADD MSTORE PUSH2 0x203A DUP2 PUSH2 0x1FFE JUMP JUMPDEST SWAP1 POP SWAP2 SWAP1 POP JUMP JUMPDEST PUSH32 0x4E487B7100000000000000000000000000000000000000000000000000000000 PUSH1 0x0 MSTORE PUSH1 0x1 PUSH1 0x4 MSTORE PUSH1 0x24 PUSH1 0x0 REVERT JUMPDEST PUSH32 0x6D6178696D756D206E6F206F662063616E646964617465207065722073657373 PUSH1 0x0 DUP3 ADD MSTORE PUSH32 0x696F6E2072656769737465726564000000000000000000000000000000000000 PUSH1 0x20 DUP3 ADD MSTORE POP JUMP JUMPDEST PUSH1 0x0 PUSH2 0x20CC PUSH1 0x2E DUP4 PUSH2 0x1B20 JUMP JUMPDEST SWAP2 POP PUSH2 0x20D7 DUP3 PUSH2 0x2070 JUMP JUMPDEST PUSH1 0x40 DUP3 ADD SWAP1 POP SWAP2 SWAP1 POP JUMP JUMPDEST PUSH1 0x0 PUSH1 0x20 DUP3 ADD SWAP1 POP DUP2 DUP2 SUB PUSH1 0x0 DUP4 ADD MSTORE PUSH2 0x20FB DUP2 PUSH2 0x20BF JUMP JUMPDEST SWAP1 POP SWAP2 SWAP1 POP JUMP JUMPDEST PUSH32 0x4E487B7100000000000000000000000000000000000000000000000000000000 PUSH1 0x0 MSTORE PUSH1 0x11 PUSH1 0x4 MSTORE PUSH1 0x24 PUSH1 0x0 REVERT JUMPDEST PUSH1 0x0 PUSH2 0x213C DUP3 PUSH2 0x1B9D JUMP JUMPDEST SWAP2 POP PUSH4 0xFFFFFFFF DUP3 EQ ISZERO PUSH2 0x2153 JUMPI PUSH2 0x2152 PUSH2 0x2102 JUMP JUMPDEST JUMPDEST PUSH1 0x1 DUP3 ADD SWAP1 POP SWAP2 SWAP1 POP JUMP JUMPDEST PUSH1 0x0 PUSH1 0x20 DUP3 ADD SWAP1 POP PUSH2 0x2173 PUSH1 0x0 DUP4 ADD DUP5 PUSH2 0x1864 JUMP JUMPDEST SWAP3 SWAP2 POP POP JUMP JUMPDEST PUSH32 0x4E6F20706F6C6C20637265617465640000000000000000000000000000000000 PUSH1 0x0 DUP3 ADD MSTORE POP JUMP JUMPDEST PUSH1 0x0 PUSH2 0x21AF PUSH1 0xF DUP4 PUSH2 0x1B20 JUMP JUMPDEST SWAP2 POP PUSH2 0x21BA DUP3 PUSH2 0x2179 JUMP JUMPDEST PUSH1 0x20 DUP3 ADD SWAP1 POP SWAP2 SWAP1 POP JUMP JUMPDEST PUSH1 0x0 PUSH1 0x20 DUP3 ADD SWAP1 POP DUP2 DUP2 SUB PUSH1 0x0 DUP4 ADD MSTORE PUSH2 0x21DE DUP2 PUSH2 0x21A2 JUMP JUMPDEST SWAP1 POP SWAP2 SWAP1 POP JUMP JUMPDEST PUSH32 0x4E487B7100000000000000000000000000000000000000000000000000000000 PUSH1 0x0 MSTORE PUSH1 0x32 PUSH1 0x4 MSTORE PUSH1 0x24 PUSH1 0x0 REVERT JUMPDEST PUSH1 0x0 PUSH2 0x221F DUP3 PUSH2 0x15CC JUMP JUMPDEST SWAP2 POP PUSH32 0xFFFFFFFFFFFFFFFFFFFFFFFFFFFFFFFFFFFFFFFFFFFFFFFFFFFFFFFFFFFFFFFF DUP3 EQ ISZERO PUSH2 0x2252 JUMPI PUSH2 0x2251 PUSH2 0x2102 JUMP JUMPDEST JUMPDEST PUSH1 0x1 DUP3 ADD SWAP1 POP SWAP2 SWAP1 POP JUMP JUMPDEST PUSH1 0x0 DUP2 PUSH1 0x60 SHL SWAP1 POP SWAP2 SWAP1 POP JUMP JUMPDEST PUSH1 0x0 PUSH2 0x2275 DUP3 PUSH2 0x225D JUMP JUMPDEST SWAP1 POP SWAP2 SWAP1 POP JUMP JUMPDEST PUSH1 0x0 PUSH2 0x2287 DUP3 PUSH2 0x226A JUMP JUMPDEST SWAP1 POP SWAP2 SWAP1 POP JUMP JUMPDEST PUSH2 0x229F PUSH2 0x229A DUP3 PUSH2 0x158E JUMP JUMPDEST PUSH2 0x227C JUMP JUMPDEST DUP3 MSTORE POP POP JUMP JUMPDEST PUSH1 0x0 DUP2 SWAP1 POP SWAP3 SWAP2 POP POP JUMP JUMPDEST PUSH32 0x6D6574617472616E73616374696F6E20566F74696E6720000000000000000000 PUSH1 0x0 DUP3 ADD MSTORE POP JUMP JUMPDEST PUSH1 0x0 PUSH2 0x22E6 PUSH1 0x17 DUP4 PUSH2 0x22A5 JUMP JUMPDEST SWAP2 POP PUSH2 0x22F1 DUP3 PUSH2 0x22B0 JUMP JUMPDEST PUSH1 0x17 DUP3 ADD SWAP1 POP SWAP2 SWAP1 POP JUMP JUMPDEST PUSH1 0x0 DUP2 SWAP1 POP SWAP2 SWAP1 POP JUMP JUMPDEST PUSH2 0x2317 PUSH2 0x2312 DUP3 PUSH2 0x15CC JUMP JUMPDEST PUSH2 0x22FC JUMP JUMPDEST DUP3 MSTORE POP POP JUMP JUMPDEST PUSH1 0x0 PUSH2 0x2329 DUP3 DUP9 PUSH2 0x228E JUMP JUMPDEST PUSH1 0x14 DUP3 ADD SWAP2 POP PUSH2 0x2338 DUP3 PUSH2 0x22D9 JUMP JUMPDEST SWAP2 POP PUSH2 0x2344 DUP3 DUP8 PUSH2 0x228E JUMP JUMPDEST PUSH1 0x14 DUP3 ADD SWAP2 POP PUSH2 0x2354 DUP3 DUP7 PUSH2 0x2306 JUMP JUMPDEST PUSH1 0x20 DUP3 ADD SWAP2 POP PUSH2 0x2364 DUP3 DUP6 PUSH2 0x2306 JUMP JUMPDEST PUSH1 0x20 DUP3 ADD SWAP2 POP PUSH2 0x2374 DUP3 DUP5 PUSH2 0x2306 JUMP JUMPDEST PUSH1 0x20 DUP3 ADD SWAP2 POP DUP2 SWAP1 POP SWAP7 SWAP6 POP POP POP POP POP POP JUMP JUMPDEST PUSH32 0x54686973206164647265737320646F6573206E6F742065786973742061732061 PUSH1 0x0 DUP3 ADD MSTORE PUSH32 0x2063616E64696461746500000000000000000000000000000000000000000000 PUSH1 0x20 DUP3 ADD MSTORE POP JUMP JUMPDEST PUSH1 0x0 PUSH2 0x23E3 PUSH1 0x2A DUP4 PUSH2 0x1B20 JUMP JUMPDEST SWAP2 POP PUSH2 0x23EE DUP3 PUSH2 0x2387 JUMP JUMPDEST PUSH1 0x40 DUP3 ADD SWAP1 POP SWAP2 SWAP1 POP JUMP JUMPDEST PUSH1 0x0 PUSH1 0x20 DUP3 ADD SWAP1 POP DUP2 DUP2 SUB PUSH1 0x0 DUP4 ADD MSTORE PUSH2 0x2412 DUP2 PUSH2 0x23D6 JUMP JUMPDEST SWAP1 POP SWAP2 SWAP1 POP JUMP JUMPDEST PUSH32 0x766F74696E672068617320656E64656400000000000000000000000000000000 PUSH1 0x0 DUP3 ADD MSTORE POP JUMP JUMPDEST PUSH1 0x0 PUSH2 0x244F PUSH1 0x10 DUP4 PUSH2 0x1B20 JUMP JUMPDEST SWAP2 POP PUSH2 0x245A DUP3 PUSH2 0x2419 JUMP JUMPDEST PUSH1 0x20 DUP3 ADD SWAP1 POP SWAP2 SWAP1 POP JUMP JUMPDEST PUSH1 0x0 PUSH1 0x20 DUP3 ADD SWAP1 POP DUP2 DUP2 SUB PUSH1 0x0 DUP4 ADD MSTORE PUSH2 0x247E DUP2 PUSH2 0x2442 JUMP JUMPDEST SWAP1 POP SWAP2 SWAP1 POP JUMP JUMPDEST PUSH32 0x596F7520616C726561647920766F746564000000000000000000000000000000 PUSH1 0x0 DUP3 ADD MSTORE POP JUMP JUMPDEST PUSH1 0x0 PUSH2 0x24BB PUSH1 0x11 DUP4 PUSH2 0x1B20 JUMP JUMPDEST SWAP2 POP PUSH2 0x24C6 DUP3 PUSH2 0x2485 JUMP JUMPDEST PUSH1 0x20 DUP3 ADD SWAP1 POP SWAP2 SWAP1 POP JUMP JUMPDEST PUSH1 0x0 PUSH1 0x20 DUP3 ADD SWAP1 POP DUP2 DUP2 SUB PUSH1 0x0 DUP4 ADD MSTORE PUSH2 0x24EA DUP2 PUSH2 0x24AE JUMP JUMPDEST SWAP1 POP SWAP2 SWAP1 POP JUMP JUMPDEST PUSH1 0x0 PUSH1 0x40 DUP3 ADD SWAP1 POP PUSH2 0x2506 PUSH1 0x0 DUP4 ADD DUP6 PUSH2 0x1864 JUMP JUMPDEST PUSH2 0x2513 PUSH1 0x20 DUP4 ADD DUP5 PUSH2 0x1BC8 JUMP JUMPDEST SWAP4 SWAP3 POP POP POP JUMP JUMPDEST PUSH32 0x6E6F74207468652063686169726D616E00000000000000000000000000000000 PUSH1 0x0 DUP3 ADD MSTORE POP JUMP JUMPDEST PUSH1 0x0 PUSH2 0x2550 PUSH1 0x10 DUP4 PUSH2 0x1B20 JUMP JUMPDEST SWAP2 POP PUSH2 0x255B DUP3 PUSH2 0x251A JUMP JUMPDEST PUSH1 0x20 DUP3 ADD SWAP1 POP SWAP2 SWAP1 POP JUMP JUMPDEST PUSH1 0x0 PUSH1 0x20 DUP3 ADD SWAP1 POP DUP2 DUP2 SUB PUSH1 0x0 DUP4 ADD MSTORE PUSH2 0x257F DUP2 PUSH2 0x2543 JUMP JUMPDEST SWAP1 POP SWAP2 SWAP1 POP JUMP JUMPDEST PUSH32 0x4E487B7100000000000000000000000000000000000000000000000000000000 PUSH1 0x0 MSTORE PUSH1 0x22 PUSH1 0x4 MSTORE PUSH1 0x24 PUSH1 0x0 REVERT JUMPDEST PUSH1 0x0 PUSH1 0x2 DUP3 DIV SWAP1 POP PUSH1 0x1 DUP3 AND DUP1 PUSH2 0x25CD JUMPI PUSH1 0x7F DUP3 AND SWAP2 POP JUMPDEST PUSH1 0x20 DUP3 LT DUP2 EQ ISZERO PUSH2 0x25E1 JUMPI PUSH2 0x25E0 PUSH2 0x2586 JUMP JUMPDEST JUMPDEST POP SWAP2 SWAP1 POP JUMP JUMPDEST PUSH1 0x0 PUSH2 0x25F2 DUP3 PUSH2 0x1B15 JUMP JUMPDEST PUSH2 0x25FC DUP2 DUP6 PUSH2 0x22A5 JUMP JUMPDEST SWAP4 POP PUSH2 0x260C DUP2 DUP6 PUSH1 0x20 DUP7 ADD PUSH2 0x1B31 JUMP JUMPDEST DUP1 DUP5 ADD SWAP2 POP POP SWAP3 SWAP2 POP POP JUMP JUMPDEST PUSH1 0x0 PUSH2 0x2624 DUP3 DUP5 PUSH2 0x25E7 JUMP JUMPDEST SWAP2 POP DUP2 SWAP1 POP SWAP3 SWAP2 POP POP JUMP JUMPDEST PUSH1 0x0 PUSH1 0xFF DUP3 AND SWAP1 POP SWAP2 SWAP1 POP JUMP JUMPDEST PUSH1 0x0 PUSH2 0x2647 DUP3 PUSH2 0x262F JUMP JUMPDEST SWAP2 POP PUSH2 0x2652 DUP4 PUSH2 0x262F JUMP JUMPDEST SWAP3 POP DUP3 PUSH1 0xFF SUB DUP3 GT ISZERO PUSH2 0x2668 JUMPI PUSH2 0x2667 PUSH2 0x2102 JUMP JUMPDEST JUMPDEST DUP3 DUP3 ADD SWAP1 POP SWAP3 SWAP2 POP POP JUMP JUMPDEST PUSH32 0x19457468657265756D205369676E6564204D6573736167653A0A333200000000 PUSH1 0x0 DUP3 ADD MSTORE POP JUMP JUMPDEST PUSH1 0x0 PUSH2 0x26A9 PUSH1 0x1C DUP4 PUSH2 0x22A5 JUMP JUMPDEST SWAP2 POP PUSH2 0x26B4 DUP3 PUSH2 0x2673 JUMP JUMPDEST PUSH1 0x1C DUP3 ADD SWAP1 POP SWAP2 SWAP1 POP JUMP JUMPDEST PUSH1 0x0 DUP2 SWAP1 POP SWAP2 SWAP1 POP JUMP JUMPDEST PUSH2 0x26DA PUSH2 0x26D5 DUP3 PUSH2 0x1918 JUMP JUMPDEST PUSH2 0x26BF JUMP JUMPDEST DUP3 MSTORE POP POP JUMP JUMPDEST PUSH1 0x0 PUSH2 0x26EB DUP3 PUSH2 0x269C JUMP JUMPDEST SWAP2 POP PUSH2 0x26F7 DUP3 DUP5 PUSH2 0x26C9 JUMP JUMPDEST PUSH1 0x20 DUP3 ADD SWAP2 POP DUP2 SWAP1 POP SWAP3 SWAP2 POP POP JUMP JUMPDEST PUSH2 0x270F DUP2 PUSH2 0x262F JUMP JUMPDEST DUP3 MSTORE POP POP JUMP JUMPDEST PUSH1 0x0 PUSH1 0x80 DUP3 ADD SWAP1 POP PUSH2 0x272A PUSH1 0x0 DUP4 ADD DUP8 PUSH2 0x1922 JUMP JUMPDEST PUSH2 0x2737 PUSH1 0x20 DUP4 ADD DUP7 PUSH2 0x2706 JUMP JUMPDEST PUSH2 0x2744 PUSH1 0x40 DUP4 ADD DUP6 PUSH2 0x1922 JUMP JUMPDEST PUSH2 0x2751 PUSH1 0x60 DUP4 ADD DUP5 PUSH2 0x1922 JUMP JUMPDEST SWAP6 SWAP5 POP POP POP POP POP JUMP INVALID LOG2 PUSH5 0x6970667358 0x22 SLT KECCAK256 0xEE ADDMOD 0xB1 PUSH19 0xD7016A8F49928E95B4DADFCA2F7CAD5F6CB350 0xAD 0x1F 0xD5 GT 0xB8 0x4E 0x4A MUL EXTCODECOPY PUSH5 0x736F6C6343 STOP ADDMOD EXP STOP CALLER "
				},
				"gasEstimates": {
					"creation": {
						"codeDepositCost": "2025600",
						"executionCost": "24255",
						"totalCost": "2049855"
					},
					"external": {
						"AddCandidate(address,uint256)": "infinite",
						"AllCandidates(uint256)": "infinite",
						"NoOfRegisteredCandidates(uint256)": "infinite",
						"VotingKey(uint256)": "infinite",
						"createPoll(string,uint32)": "infinite",
						"getStructProps()": "infinite",
						"metaVotingHash(address,uint256,uint256,uint256)": "infinite",
						"replayNonce(address)": "2859",
						"revealWinner(uint256)": "infinite",
						"setVotingState(uint256)": "32438",
						"vote(address,uint256,uint256,bytes)": "infinite",
						"votingPoll(uint256)": "infinite"
					},
					"internal": {
						"countVote(address,uint256,address)": "51144",
						"getPosition(uint256,uint256)": "6645",
						"getSigner(bytes32,bytes memory)": "infinite"
					}
				},
				"methodIdentifiers": {
					"AddCandidate(address,uint256)": "049d1c8b",
					"AllCandidates(uint256)": "8ac3c3c2",
					"NoOfRegisteredCandidates(uint256)": "66c5343b",
					"VotingKey(uint256)": "ae928e3e",
					"createPoll(string,uint32)": "f762f4c0",
					"getStructProps()": "f8437061",
					"metaVotingHash(address,uint256,uint256,uint256)": "bfe2e25d",
					"replayNonce(address)": "67d407df",
					"revealWinner(uint256)": "8ccb59e8",
					"setVotingState(uint256)": "c57003cc",
					"vote(address,uint256,uint256,bytes)": "c10d6cec",
					"votingPoll(uint256)": "e615f104"
				}
			},
			"storageLayout": {
				"storage": [
					{
						"astId": 4,
						"contract": "src/voting.sol:Voting",
						"label": "id",
						"offset": 0,
						"slot": "0",
						"type": "t_uint256"
					},
					{
						"astId": 47,
						"contract": "src/voting.sol:Voting",
						"label": "VotingKey",
						"offset": 0,
						"slot": "1",
						"type": "t_array(t_uint256)dyn_storage"
					},
					{
						"astId": 52,
						"contract": "src/voting.sol:Voting",
						"label": "votingPoll",
						"offset": 0,
						"slot": "2",
						"type": "t_mapping(t_uint256,t_struct(VotingPoll)30_storage)"
					},
					{
						"astId": 56,
						"contract": "src/voting.sol:Voting",
						"label": "replayNonce",
						"offset": 0,
						"slot": "3",
						"type": "t_mapping(t_address,t_uint256)"
					},
					{
						"astId": 62,
						"contract": "src/voting.sol:Voting",
						"label": "CandidateStatus",
						"offset": 0,
						"slot": "4",
						"type": "t_mapping(t_uint256,t_mapping(t_address,t_bool))"
					}
				],
				"types": {
					"t_address": {
						"encoding": "inplace",
						"label": "address",
						"numberOfBytes": "20"
					},
					"t_array(t_address)dyn_storage": {
						"base": "t_address",
						"encoding": "dynamic_array",
						"label": "address[]",
						"numberOfBytes": "32"
					},
					"t_array(t_uint256)dyn_storage": {
						"base": "t_uint256",
						"encoding": "dynamic_array",
						"label": "uint256[]",
						"numberOfBytes": "32"
					},
					"t_bool": {
						"encoding": "inplace",
						"label": "bool",
						"numberOfBytes": "1"
					},
					"t_mapping(t_address,t_bool)": {
						"encoding": "mapping",
						"key": "t_address",
						"label": "mapping(address => bool)",
						"numberOfBytes": "32",
						"value": "t_bool"
					},
					"t_mapping(t_address,t_uint256)": {
						"encoding": "mapping",
						"key": "t_address",
						"label": "mapping(address => uint256)",
						"numberOfBytes": "32",
						"value": "t_uint256"
					},
					"t_mapping(t_uint256,t_mapping(t_address,t_bool))": {
						"encoding": "mapping",
						"key": "t_uint256",
						"label": "mapping(uint256 => mapping(address => bool))",
						"numberOfBytes": "32",
						"value": "t_mapping(t_address,t_bool)"
					},
					"t_mapping(t_uint256,t_struct(VotingPoll)30_storage)": {
						"encoding": "mapping",
						"key": "t_uint256",
						"label": "mapping(uint256 => struct Voting.VotingPoll)",
						"numberOfBytes": "32",
						"value": "t_struct(VotingPoll)30_storage"
					},
					"t_string_storage": {
						"encoding": "bytes",
						"label": "string",
						"numberOfBytes": "32"
					},
					"t_struct(VotingPoll)30_storage": {
						"encoding": "inplace",
						"label": "struct Voting.VotingPoll",
						"members": [
							{
								"astId": 6,
								"contract": "src/voting.sol:Voting",
								"label": "name",
								"offset": 0,
								"slot": "0",
								"type": "t_string_storage"
							},
							{
								"astId": 8,
								"contract": "src/voting.sol:Voting",
								"label": "chairman",
								"offset": 0,
								"slot": "1",
								"type": "t_address"
							},
							{
								"astId": 11,
								"contract": "src/voting.sol:Voting",
								"label": "candidates",
								"offset": 0,
								"slot": "2",
								"type": "t_array(t_address)dyn_storage"
							},
							{
								"astId": 13,
								"contract": "src/voting.sol:Voting",
								"label": "maxNoOfCandidates",
								"offset": 0,
								"slot": "3",
								"type": "t_uint32"
							},
							{
								"astId": 15,
								"contract": "src/voting.sol:Voting",
								"label": "currentNoOfCandidates",
								"offset": 4,
								"slot": "3",
								"type": "t_uint32"
							},
							{
								"astId": 19,
								"contract": "src/voting.sol:Voting",
								"label": "CandidateStatus",
								"offset": 0,
								"slot": "4",
								"type": "t_mapping(t_address,t_bool)"
							},
							{
								"astId": 23,
								"contract": "src/voting.sol:Voting",
								"label": "hasVoted",
								"offset": 0,
								"slot": "5",
								"type": "t_mapping(t_address,t_bool)"
							},
							{
								"astId": 27,
								"contract": "src/voting.sol:Voting",
								"label": "CandidateVote",
								"offset": 0,
								"slot": "6",
								"type": "t_mapping(t_address,t_uint256)"
							},
							{
								"astId": 29,
								"contract": "src/voting.sol:Voting",
								"label": "voting",
								"offset": 0,
								"slot": "7",
								"type": "t_bool"
							}
						],
						"numberOfBytes": "256"
					},
					"t_uint256": {
						"encoding": "inplace",
						"label": "uint256",
						"numberOfBytes": "32"
					},
					"t_uint32": {
						"encoding": "inplace",
						"label": "uint32",
						"numberOfBytes": "4"
					}
				}
			},
			"userdoc": {
				"kind": "user",
				"methods": {},
				"version": 1
			}
		}
	}
}