{
	"src/voting.sol": {
		"Voting": {
			"abi": [
				{
					"anonymous": false,
					"inputs": [
						{
							"indexed": false,
							"internalType": "address",
							"name": "NewCandidate",
							"type": "address"
						}
					],
					"name": "becameCandidate",
					"type": "event"
				},
				{
					"anonymous": false,
					"inputs": [
						{
							"indexed": false,
							"internalType": "address",
							"name": "_candidate",
							"type": "address"
						},
						{
							"indexed": false,
							"internalType": "bool",
							"name": "status",
							"type": "bool"
						}
					],
					"name": "voted",
					"type": "event"
				},
				{
					"inputs": [
						{
							"internalType": "address",
							"name": "_newCandidate",
							"type": "address"
						},
						{
							"internalType": "string",
							"name": "_name",
							"type": "string"
						}
					],
					"name": "AddCandidate",
					"outputs": [],
					"stateMutability": "nonpayable",
					"type": "function"
				},
				{
					"inputs": [
						{
							"internalType": "string",
							"name": "_name",
							"type": "string"
						}
					],
					"name": "AllCandidates",
					"outputs": [
						{
							"internalType": "address[]",
							"name": "_candidates",
							"type": "address[]"
						}
					],
					"stateMutability": "view",
					"type": "function"
				},
				{
					"inputs": [
						{
							"internalType": "string",
							"name": "_name",
							"type": "string"
						}
					],
					"name": "NoOfRegisteredCandidates",
					"outputs": [
						{
							"internalType": "uint256",
							"name": "",
							"type": "uint256"
						}
					],
					"stateMutability": "view",
					"type": "function"
				},
				{
					"inputs": [
						{
							"internalType": "string",
							"name": "_name",
							"type": "string"
						},
						{
							"internalType": "uint16",
							"name": "ExpectedNoOfCandidate",
							"type": "uint16"
						}
					],
					"name": "createPoll",
					"outputs": [
						{
							"internalType": "string",
							"name": "",
							"type": "string"
						},
						{
							"internalType": "uint256",
							"name": "Candidate",
							"type": "uint256"
						}
					],
					"stateMutability": "nonpayable",
					"type": "function"
				},
				{
					"inputs": [
						{
							"internalType": "string",
							"name": "_name",
							"type": "string"
						}
					],
					"name": "getUint",
					"outputs": [
						{
							"internalType": "uint256",
							"name": "val",
							"type": "uint256"
						},
						{
							"internalType": "address",
							"name": "cand",
							"type": "address"
						}
					],
					"stateMutability": "view",
					"type": "function"
				},
				{
					"inputs": [
						{
							"internalType": "address",
							"name": "Cand",
							"type": "address"
						},
						{
							"internalType": "string",
							"name": "_name",
							"type": "string"
						},
						{
							"internalType": "uint256",
							"name": "nonce",
							"type": "uint256"
						},
						{
							"internalType": "uint256",
							"name": "time",
							"type": "uint256"
						}
					],
					"name": "metaVotingHash",
					"outputs": [
						{
							"internalType": "bytes32",
							"name": "",
							"type": "bytes32"
						}
					],
					"stateMutability": "view",
					"type": "function"
				},
				{
					"inputs": [
						{
							"internalType": "address",
							"name": "",
							"type": "address"
						}
					],
					"name": "replayNonce",
					"outputs": [
						{
							"internalType": "uint256",
							"name": "",
							"type": "uint256"
						}
					],
					"stateMutability": "view",
					"type": "function"
				},
				{
					"inputs": [
						{
							"internalType": "string",
							"name": "_name",
							"type": "string"
						}
					],
					"name": "revealWinner",
					"outputs": [
						{
							"internalType": "uint256[]",
							"name": "CV",
							"type": "uint256[]"
						},
						{
							"internalType": "address",
							"name": "",
							"type": "address"
						},
						{
							"internalType": "uint256",
							"name": "",
							"type": "uint256"
						}
					],
					"stateMutability": "view",
					"type": "function"
				},
				{
					"inputs": [
						{
							"internalType": "string",
							"name": "_name",
							"type": "string"
						}
					],
					"name": "setVotingState",
					"outputs": [],
					"stateMutability": "nonpayable",
					"type": "function"
				},
				{
					"inputs": [
						{
							"internalType": "address",
							"name": "Cand",
							"type": "address"
						},
						{
							"internalType": "string",
							"name": "_name",
							"type": "string"
						},
						{
							"internalType": "uint256",
							"name": "nonce",
							"type": "uint256"
						},
						{
							"internalType": "bytes",
							"name": "signature",
							"type": "bytes"
						}
					],
					"name": "vote",
					"outputs": [],
					"stateMutability": "nonpayable",
					"type": "function"
				},
				{
					"inputs": [
						{
							"internalType": "string",
							"name": "",
							"type": "string"
						}
					],
					"name": "votingPoll",
					"outputs": [
						{
							"internalType": "address",
							"name": "chairman",
							"type": "address"
						},
						{
							"internalType": "uint32",
							"name": "maxNoOfCandidates",
							"type": "uint32"
						},
						{
							"internalType": "uint16",
							"name": "currentNoOfCandidates",
							"type": "uint16"
						},
						{
							"internalType": "bool",
							"name": "voting",
							"type": "bool"
						}
					],
					"stateMutability": "view",
					"type": "function"
				},
				{
					"stateMutability": "payable",
					"type": "receive"
				}
			],
			"devdoc": {
				"kind": "dev",
				"methods": {},
				"version": 1
			},
			"evm": {
				"assembly": "    /* \"src/voting.sol\":63:5301  contract Voting{... */\n  mstore(0x40, 0x80)\n  callvalue\n  dup1\n  iszero\n  tag_1\n  jumpi\n  0x00\n  dup1\n  revert\ntag_1:\n  pop\n  dataSize(sub_0)\n  dup1\n  dataOffset(sub_0)\n  0x00\n  codecopy\n  0x00\n  return\nstop\n\nsub_0: assembly {\n        /* \"src/voting.sol\":63:5301  contract Voting{... */\n      mstore(0x40, 0x80)\n      jumpi(tag_1, lt(calldatasize, 0x04))\n      shr(0xe0, calldataload(0x00))\n      dup1\n      0x57f53967\n      gt\n      tag_14\n      jumpi\n      dup1\n      0x57f53967\n      eq\n      tag_8\n      jumpi\n      dup1\n      0x63ee965a\n      eq\n      tag_9\n      jumpi\n      dup1\n      0x67d407df\n      eq\n      tag_10\n      jumpi\n      dup1\n      0x8579cacd\n      eq\n      tag_11\n      jumpi\n      dup1\n      0xaf7cbc0d\n      eq\n      tag_12\n      jumpi\n      dup1\n      0xf0e4de22\n      eq\n      tag_13\n      jumpi\n      jump(tag_2)\n    tag_14:\n      dup1\n      0x01ff993b\n      eq\n      tag_3\n      jumpi\n      dup1\n      0x0968d4b1\n      eq\n      tag_4\n      jumpi\n      dup1\n      0x12f0da4b\n      eq\n      tag_5\n      jumpi\n      dup1\n      0x498bff00\n      eq\n      tag_6\n      jumpi\n      dup1\n      0x4fcf1f39\n      eq\n      tag_7\n      jumpi\n      jump(tag_2)\n    tag_1:\n      jumpi(tag_2, calldatasize)\n      stop\n    tag_2:\n      0x00\n      dup1\n      revert\n        /* \"src/voting.sol\":4452:4680  function metaVotingHash(address Cand, string memory _name, uint256 nonce, uint256 time) public view returns(bytes32){... */\n    tag_3:\n      callvalue\n      dup1\n      iszero\n      tag_17\n      jumpi\n      0x00\n      dup1\n      revert\n    tag_17:\n      pop\n      tag_18\n      0x04\n      dup1\n      calldatasize\n      sub\n      dup2\n      add\n      swap1\n      tag_19\n      swap2\n      swap1\n      tag_20\n      jump\t// in\n    tag_19:\n      tag_21\n      jump\t// in\n    tag_18:\n      mload(0x40)\n      tag_22\n      swap2\n      swap1\n      tag_23\n      jump\t// in\n    tag_22:\n      mload(0x40)\n      dup1\n      swap2\n      sub\n      swap1\n      return\n        /* \"src/voting.sol\":1432:1721  function createPoll(string memory _name, uint16 ExpectedNoOfCandidate) external returns(string memory, uint Candidate){... */\n    tag_4:\n      callvalue\n      dup1\n      iszero\n      tag_24\n      jumpi\n      0x00\n      dup1\n      revert\n    tag_24:\n      pop\n      tag_25\n      0x04\n      dup1\n      calldatasize\n      sub\n      dup2\n      add\n      swap1\n      tag_26\n      swap2\n      swap1\n      tag_27\n      jump\t// in\n    tag_26:\n      tag_28\n      jump\t// in\n    tag_25:\n      mload(0x40)\n      tag_29\n      swap3\n      swap2\n      swap1\n      tag_30\n      jump\t// in\n    tag_29:\n      mload(0x40)\n      dup1\n      swap2\n      sub\n      swap1\n      return\n        /* \"src/voting.sol\":2240:2806  function vote(address Cand, string memory _name , uint256 nonce, bytes memory signature) external  isCandidate(Cand, _name) StillVoting(_name){... */\n    tag_5:\n      callvalue\n      dup1\n      iszero\n      tag_31\n      jumpi\n      0x00\n      dup1\n      revert\n    tag_31:\n      pop\n      tag_32\n      0x04\n      dup1\n      calldatasize\n      sub\n      dup2\n      add\n      swap1\n      tag_33\n      swap2\n      swap1\n      tag_34\n      jump\t// in\n    tag_33:\n      tag_35\n      jump\t// in\n    tag_32:\n      stop\n        /* \"src/voting.sol\":4226:4445  function getUint( string memory _name) external view returns(uint val, address cand){... */\n    tag_6:\n      callvalue\n      dup1\n      iszero\n      tag_36\n      jumpi\n      0x00\n      dup1\n      revert\n    tag_36:\n      pop\n      tag_37\n      0x04\n      dup1\n      calldatasize\n      sub\n      dup2\n      add\n      swap1\n      tag_38\n      swap2\n      swap1\n      tag_39\n      jump\t// in\n    tag_38:\n      tag_40\n      jump\t// in\n    tag_37:\n      mload(0x40)\n      tag_41\n      swap3\n      swap2\n      swap1\n      tag_42\n      jump\t// in\n    tag_41:\n      mload(0x40)\n      dup1\n      swap2\n      sub\n      swap1\n      return\n        /* \"src/voting.sol\":3412:4018  function revealWinner( string memory _name) external view returns ( uint[] memory CV, address, uint){... */\n    tag_7:\n      callvalue\n      dup1\n      iszero\n      tag_43\n      jumpi\n      0x00\n      dup1\n      revert\n    tag_43:\n      pop\n      tag_44\n      0x04\n      dup1\n      calldatasize\n      sub\n      dup2\n      add\n      swap1\n      tag_45\n      swap2\n      swap1\n      tag_39\n      jump\t// in\n    tag_45:\n      tag_46\n      jump\t// in\n    tag_44:\n      mload(0x40)\n      tag_47\n      swap4\n      swap3\n      swap2\n      swap1\n      tag_48\n      jump\t// in\n    tag_47:\n      mload(0x40)\n      dup1\n      swap2\n      sub\n      swap1\n      return\n        /* \"src/voting.sol\":1725:2237  function AddCandidate(address _newCandidate, string memory _name) external{... */\n    tag_8:\n      callvalue\n      dup1\n      iszero\n      tag_49\n      jumpi\n      0x00\n      dup1\n      revert\n    tag_49:\n      pop\n      tag_50\n      0x04\n      dup1\n      calldatasize\n      sub\n      dup2\n      add\n      swap1\n      tag_51\n      swap2\n      swap1\n      tag_52\n      jump\t// in\n    tag_51:\n      tag_53\n      jump\t// in\n    tag_50:\n      stop\n        /* \"src/voting.sol\":620:667  mapping(string => VotingPoll) public votingPoll */\n    tag_9:\n      callvalue\n      dup1\n      iszero\n      tag_54\n      jumpi\n      0x00\n      dup1\n      revert\n    tag_54:\n      pop\n      tag_55\n      0x04\n      dup1\n      calldatasize\n      sub\n      dup2\n      add\n      swap1\n      tag_56\n      swap2\n      swap1\n      tag_39\n      jump\t// in\n    tag_56:\n      tag_57\n      jump\t// in\n    tag_55:\n      mload(0x40)\n      tag_58\n      swap5\n      swap4\n      swap3\n      swap2\n      swap1\n      tag_59\n      jump\t// in\n    tag_58:\n      mload(0x40)\n      dup1\n      swap2\n      sub\n      swap1\n      return\n        /* \"src/voting.sol\":673:720  mapping (address => uint256) public replayNonce */\n    tag_10:\n      callvalue\n      dup1\n      iszero\n      tag_60\n      jumpi\n      0x00\n      dup1\n      revert\n    tag_60:\n      pop\n      tag_61\n      0x04\n      dup1\n      calldatasize\n      sub\n      dup2\n      add\n      swap1\n      tag_62\n      swap2\n      swap1\n      tag_63\n      jump\t// in\n    tag_62:\n      tag_64\n      jump\t// in\n    tag_61:\n      mload(0x40)\n      tag_65\n      swap2\n      swap1\n      tag_66\n      jump\t// in\n    tag_65:\n      mload(0x40)\n      dup1\n      swap2\n      sub\n      swap1\n      return\n        /* \"src/voting.sol\":3057:3228  function NoOfRegisteredCandidates( string memory _name) public view returns(uint){... */\n    tag_11:\n      callvalue\n      dup1\n      iszero\n      tag_67\n      jumpi\n      0x00\n      dup1\n      revert\n    tag_67:\n      pop\n      tag_68\n      0x04\n      dup1\n      calldatasize\n      sub\n      dup2\n      add\n      swap1\n      tag_69\n      swap2\n      swap1\n      tag_39\n      jump\t// in\n    tag_69:\n      tag_70\n      jump\t// in\n    tag_68:\n      mload(0x40)\n      tag_71\n      swap2\n      swap1\n      tag_66\n      jump\t// in\n    tag_71:\n      mload(0x40)\n      dup1\n      swap2\n      sub\n      swap1\n      return\n        /* \"src/voting.sol\":3236:3409  function AllCandidates( string memory _name) public view returns(address[] memory _candidates){... */\n    tag_12:\n      callvalue\n      dup1\n      iszero\n      tag_72\n      jumpi\n      0x00\n      dup1\n      revert\n    tag_72:\n      pop\n      tag_73\n      0x04\n      dup1\n      calldatasize\n      sub\n      dup2\n      add\n      swap1\n      tag_74\n      swap2\n      swap1\n      tag_39\n      jump\t// in\n    tag_74:\n      tag_75\n      jump\t// in\n    tag_73:\n      mload(0x40)\n      tag_76\n      swap2\n      swap1\n      tag_77\n      jump\t// in\n    tag_76:\n      mload(0x40)\n      dup1\n      swap2\n      sub\n      swap1\n      return\n        /* \"src/voting.sol\":4021:4223  function setVotingState( string memory _name) external {... */\n    tag_13:\n      callvalue\n      dup1\n      iszero\n      tag_78\n      jumpi\n      0x00\n      dup1\n      revert\n    tag_78:\n      pop\n      tag_79\n      0x04\n      dup1\n      calldatasize\n      sub\n      dup2\n      add\n      swap1\n      tag_80\n      swap2\n      swap1\n      tag_39\n      jump\t// in\n    tag_80:\n      tag_81\n      jump\t// in\n    tag_79:\n      stop\n        /* \"src/voting.sol\":4452:4680  function metaVotingHash(address Cand, string memory _name, uint256 nonce, uint256 time) public view returns(bytes32){... */\n    tag_21:\n        /* \"src/voting.sol\":4560:4567  bytes32 */\n      0x00\n        /* \"src/voting.sol\":4616:4620  this */\n      address\n        /* \"src/voting.sol\":4649:4653  Cand */\n      dup6\n        /* \"src/voting.sol\":4655:4660  _name */\n      dup6\n        /* \"src/voting.sol\":4662:4667  nonce */\n      dup6\n        /* \"src/voting.sol\":4669:4673  time */\n      dup6\n        /* \"src/voting.sol\":4591:4674  abi.encodePacked(address(this),\"metatransaction Voting \", Cand, _name, nonce, time) */\n      add(0x20, mload(0x40))\n      tag_83\n      swap6\n      swap5\n      swap4\n      swap3\n      swap2\n      swap1\n      tag_84\n      jump\t// in\n    tag_83:\n      mload(0x40)\n      0x20\n      dup2\n      dup4\n      sub\n      sub\n      dup2\n      mstore\n      swap1\n      0x40\n      mstore\n        /* \"src/voting.sol\":4581:4675  keccak256(abi.encodePacked(address(this),\"metatransaction Voting \", Cand, _name, nonce, time)) */\n      dup1\n      mload\n      swap1\n      0x20\n      add\n      keccak256\n        /* \"src/voting.sol\":4574:4675  return keccak256(abi.encodePacked(address(this),\"metatransaction Voting \", Cand, _name, nonce, time)) */\n      swap1\n      pop\n        /* \"src/voting.sol\":4452:4680  function metaVotingHash(address Cand, string memory _name, uint256 nonce, uint256 time) public view returns(bytes32){... */\n      swap5\n      swap4\n      pop\n      pop\n      pop\n      pop\n      jump\t// out\n        /* \"src/voting.sol\":1432:1721  function createPoll(string memory _name, uint16 ExpectedNoOfCandidate) external returns(string memory, uint Candidate){... */\n    tag_28:\n        /* \"src/voting.sol\":1520:1533  string memory */\n      0x60\n        /* \"src/voting.sol\":1535:1549  uint Candidate */\n      0x00\n        /* \"src/voting.sol\":1556:1577  VotingPoll storage VP */\n      dup1\n        /* \"src/voting.sol\":1580:1590  votingPoll */\n      0x00\n        /* \"src/voting.sol\":1591:1596  _name */\n      dup6\n        /* \"src/voting.sol\":1580:1597  votingPoll[_name] */\n      mload(0x40)\n      tag_86\n      swap2\n      swap1\n      tag_87\n      jump\t// in\n    tag_86:\n      swap1\n      dup2\n      mstore\n      0x20\n      add\n      mload(0x40)\n      dup1\n      swap2\n      sub\n      swap1\n      keccak256\n        /* \"src/voting.sol\":1556:1597  VotingPoll storage VP = votingPoll[_name] */\n      swap1\n      pop\n        /* \"src/voting.sol\":1617:1627  msg.sender */\n      caller\n        /* \"src/voting.sol\":1603:1605  VP */\n      dup2\n        /* \"src/voting.sol\":1603:1614  VP.chairman */\n      0x00\n      add\n      0x00\n        /* \"src/voting.sol\":1603:1627  VP.chairman = msg.sender */\n      0x0100\n      exp\n      dup2\n      sload\n      dup2\n      0xffffffffffffffffffffffffffffffffffffffff\n      mul\n      not\n      and\n      swap1\n      dup4\n      0xffffffffffffffffffffffffffffffffffffffff\n      and\n      mul\n      or\n      swap1\n      sstore\n      pop\n        /* \"src/voting.sol\":1655:1676  ExpectedNoOfCandidate */\n      dup4\n        /* \"src/voting.sol\":1633:1676  VP.maxNoOfCandidates =ExpectedNoOfCandidate */\n      0xffff\n      and\n        /* \"src/voting.sol\":1633:1635  VP */\n      dup2\n        /* \"src/voting.sol\":1633:1653  VP.maxNoOfCandidates */\n      0x02\n      add\n      0x00\n        /* \"src/voting.sol\":1633:1676  VP.maxNoOfCandidates =ExpectedNoOfCandidate */\n      0x0100\n      exp\n      dup2\n      sload\n      dup2\n      0xffffffff\n      mul\n      not\n      and\n      swap1\n      dup4\n      0xffffffff\n      and\n      mul\n      or\n      swap1\n      sstore\n      pop\n        /* \"src/voting.sol\":1689:1694  _name */\n      dup5\n        /* \"src/voting.sol\":1696:1717  ExpectedNoOfCandidate */\n      dup5\n        /* \"src/voting.sol\":1682:1718  return(_name, ExpectedNoOfCandidate) */\n      dup1\n      0xffff\n      and\n      swap1\n      pop\n      swap3\n      pop\n      swap3\n      pop\n      pop\n        /* \"src/voting.sol\":1432:1721  function createPoll(string memory _name, uint16 ExpectedNoOfCandidate) external returns(string memory, uint Candidate){... */\n      swap3\n      pop\n      swap3\n      swap1\n      pop\n      jump\t// out\n        /* \"src/voting.sol\":2240:2806  function vote(address Cand, string memory _name , uint256 nonce, bytes memory signature) external  isCandidate(Cand, _name) StillVoting(_name){... */\n    tag_35:\n        /* \"src/voting.sol\":2351:2355  Cand */\n      dup4\n        /* \"src/voting.sol\":2357:2362  _name */\n      dup4\n        /* \"src/voting.sol\":1000:1021  VotingPoll storage VP */\n      0x00\n        /* \"src/voting.sol\":1024:1034  votingPoll */\n      dup1\n        /* \"src/voting.sol\":1035:1040  _name */\n      dup3\n        /* \"src/voting.sol\":1024:1041  votingPoll[_name] */\n      mload(0x40)\n      tag_89\n      swap2\n      swap1\n      tag_87\n      jump\t// in\n    tag_89:\n      swap1\n      dup2\n      mstore\n      0x20\n      add\n      mload(0x40)\n      dup1\n      swap2\n      sub\n      swap1\n      keccak256\n        /* \"src/voting.sol\":1000:1041  VotingPoll storage VP = votingPoll[_name] */\n      swap1\n      pop\n        /* \"src/voting.sol\":1081:1085  true */\n      0x01\n        /* \"src/voting.sol\":1055:1085  VP.CandidateStatus[Cand]==true */\n      iszero\n      iszero\n        /* \"src/voting.sol\":1055:1057  VP */\n      dup2\n        /* \"src/voting.sol\":1055:1073  VP.CandidateStatus */\n      0x03\n      add\n        /* \"src/voting.sol\":1055:1079  VP.CandidateStatus[Cand] */\n      0x00\n        /* \"src/voting.sol\":1074:1078  Cand */\n      dup6\n        /* \"src/voting.sol\":1055:1079  VP.CandidateStatus[Cand] */\n      0xffffffffffffffffffffffffffffffffffffffff\n      and\n      0xffffffffffffffffffffffffffffffffffffffff\n      and\n      dup2\n      mstore\n      0x20\n      add\n      swap1\n      dup2\n      mstore\n      0x20\n      add\n      0x00\n      keccak256\n      0x00\n      swap1\n      sload\n      swap1\n      0x0100\n      exp\n      swap1\n      div\n      0xff\n      and\n        /* \"src/voting.sol\":1055:1085  VP.CandidateStatus[Cand]==true */\n      iszero\n      iszero\n      eq\n        /* \"src/voting.sol\":1047:1131  require(VP.CandidateStatus[Cand]==true,'This address does not exist as a candidate') */\n      tag_90\n      jumpi\n      mload(0x40)\n      0x08c379a000000000000000000000000000000000000000000000000000000000\n      dup2\n      mstore\n      0x04\n      add\n      tag_91\n      swap1\n      tag_92\n      jump\t// in\n    tag_91:\n      mload(0x40)\n      dup1\n      swap2\n      sub\n      swap1\n      revert\n    tag_90:\n        /* \"src/voting.sol\":2376:2381  _name */\n      dup6\n        /* \"src/voting.sol\":1192:1213  VotingPoll storage VP */\n      0x00\n        /* \"src/voting.sol\":1216:1226  votingPoll */\n      dup1\n        /* \"src/voting.sol\":1227:1232  _name */\n      dup3\n        /* \"src/voting.sol\":1216:1233  votingPoll[_name] */\n      mload(0x40)\n      tag_94\n      swap2\n      swap1\n      tag_87\n      jump\t// in\n    tag_94:\n      swap1\n      dup2\n      mstore\n      0x20\n      add\n      mload(0x40)\n      dup1\n      swap2\n      sub\n      swap1\n      keccak256\n        /* \"src/voting.sol\":1192:1233  VotingPoll storage VP = votingPoll[_name] */\n      swap1\n      pop\n        /* \"src/voting.sol\":1260:1264  true */\n      0x01\n        /* \"src/voting.sol\":1247:1264  VP.voting == true */\n      iszero\n      iszero\n        /* \"src/voting.sol\":1247:1249  VP */\n      dup2\n        /* \"src/voting.sol\":1247:1256  VP.voting */\n      0x02\n      add\n      0x06\n      swap1\n      sload\n      swap1\n      0x0100\n      exp\n      swap1\n      div\n      0xff\n      and\n        /* \"src/voting.sol\":1247:1264  VP.voting == true */\n      iszero\n      iszero\n      eq\n        /* \"src/voting.sol\":1239:1285  require(VP.voting == true, \"voting has ended\") */\n      tag_95\n      jumpi\n      mload(0x40)\n      0x08c379a000000000000000000000000000000000000000000000000000000000\n      dup2\n      mstore\n      0x04\n      add\n      tag_96\n      swap1\n      tag_97\n      jump\t// in\n    tag_96:\n      mload(0x40)\n      dup1\n      swap2\n      sub\n      swap1\n      revert\n    tag_95:\n        /* \"src/voting.sol\":2389:2405  bytes32 metaHash */\n      0x00\n        /* \"src/voting.sol\":2408:2456  metaVotingHash(Cand,_name,nonce,block.timestamp) */\n      tag_99\n        /* \"src/voting.sol\":2423:2427  Cand */\n      dup11\n        /* \"src/voting.sol\":2428:2433  _name */\n      dup11\n        /* \"src/voting.sol\":2434:2439  nonce */\n      dup11\n        /* \"src/voting.sol\":2440:2455  block.timestamp */\n      timestamp\n        /* \"src/voting.sol\":2408:2422  metaVotingHash */\n      tag_21\n        /* \"src/voting.sol\":2408:2456  metaVotingHash(Cand,_name,nonce,block.timestamp) */\n      jump\t// in\n    tag_99:\n        /* \"src/voting.sol\":2389:2456  bytes32 metaHash = metaVotingHash(Cand,_name,nonce,block.timestamp) */\n      swap1\n      pop\n        /* \"src/voting.sol\":2463:2477  address signer */\n      0x00\n        /* \"src/voting.sol\":2480:2509  getSigner(metaHash,signature) */\n      tag_100\n        /* \"src/voting.sol\":2490:2498  metaHash */\n      dup3\n        /* \"src/voting.sol\":2499:2508  signature */\n      dup10\n        /* \"src/voting.sol\":2480:2489  getSigner */\n      tag_101\n        /* \"src/voting.sol\":2480:2509  getSigner(metaHash,signature) */\n      jump\t// in\n    tag_100:\n        /* \"src/voting.sol\":2463:2509  address signer = getSigner(metaHash,signature) */\n      swap1\n      pop\n        /* \"src/voting.sol\":2540:2541  0 */\n      0x00\n        /* \"src/voting.sol\":2524:2542  signer!=address(0) */\n      0xffffffffffffffffffffffffffffffffffffffff\n      and\n        /* \"src/voting.sol\":2524:2530  signer */\n      dup2\n        /* \"src/voting.sol\":2524:2542  signer!=address(0) */\n      0xffffffffffffffffffffffffffffffffffffffff\n      and\n      eq\n      iszero\n        /* \"src/voting.sol\":2516:2543  require(signer!=address(0)) */\n      tag_102\n      jumpi\n      0x00\n      dup1\n      revert\n    tag_102:\n        /* \"src/voting.sol\":2566:2577  replayNonce */\n      0x01\n        /* \"src/voting.sol\":2566:2585  replayNonce[signer] */\n      0x00\n        /* \"src/voting.sol\":2578:2584  signer */\n      dup3\n        /* \"src/voting.sol\":2566:2585  replayNonce[signer] */\n      0xffffffffffffffffffffffffffffffffffffffff\n      and\n      0xffffffffffffffffffffffffffffffffffffffff\n      and\n      dup2\n      mstore\n      0x20\n      add\n      swap1\n      dup2\n      mstore\n      0x20\n      add\n      0x00\n      keccak256\n      sload\n        /* \"src/voting.sol\":2557:2562  nonce */\n      dup10\n        /* \"src/voting.sol\":2557:2585  nonce == replayNonce[signer] */\n      eq\n        /* \"src/voting.sol\":2549:2586  require(nonce == replayNonce[signer]) */\n      tag_103\n      jumpi\n      0x00\n      dup1\n      revert\n    tag_103:\n        /* \"src/voting.sol\":2592:2603  replayNonce */\n      0x01\n        /* \"src/voting.sol\":2592:2611  replayNonce[signer] */\n      0x00\n        /* \"src/voting.sol\":2604:2610  signer */\n      dup3\n        /* \"src/voting.sol\":2592:2611  replayNonce[signer] */\n      0xffffffffffffffffffffffffffffffffffffffff\n      and\n      0xffffffffffffffffffffffffffffffffffffffff\n      and\n      dup2\n      mstore\n      0x20\n      add\n      swap1\n      dup2\n      mstore\n      0x20\n      add\n      0x00\n      keccak256\n      0x00\n        /* \"src/voting.sol\":2592:2613  replayNonce[signer]++ */\n      dup2\n      sload\n      dup1\n      swap3\n      swap2\n      swap1\n      tag_104\n      swap1\n      tag_105\n      jump\t// in\n    tag_104:\n      swap2\n      swap1\n      pop\n      sstore\n      pop\n        /* \"src/voting.sol\":2620:2641  VotingPoll storage VP */\n      0x00\n        /* \"src/voting.sol\":2644:2654  votingPoll */\n      dup1\n        /* \"src/voting.sol\":2655:2660  _name */\n      dup12\n        /* \"src/voting.sol\":2644:2661  votingPoll[_name] */\n      mload(0x40)\n      tag_106\n      swap2\n      swap1\n      tag_87\n      jump\t// in\n    tag_106:\n      swap1\n      dup2\n      mstore\n      0x20\n      add\n      mload(0x40)\n      dup1\n      swap2\n      sub\n      swap1\n      keccak256\n        /* \"src/voting.sol\":2620:2661  VotingPoll storage VP = votingPoll[_name] */\n      swap1\n      pop\n        /* \"src/voting.sol\":2703:2708  false */\n      0x00\n        /* \"src/voting.sol\":2676:2708  VP.hasVoted[msg.sender] == false */\n      iszero\n      iszero\n        /* \"src/voting.sol\":2676:2678  VP */\n      dup2\n        /* \"src/voting.sol\":2676:2687  VP.hasVoted */\n      0x04\n      add\n        /* \"src/voting.sol\":2676:2699  VP.hasVoted[msg.sender] */\n      0x00\n        /* \"src/voting.sol\":2688:2698  msg.sender */\n      caller\n        /* \"src/voting.sol\":2676:2699  VP.hasVoted[msg.sender] */\n      0xffffffffffffffffffffffffffffffffffffffff\n      and\n      0xffffffffffffffffffffffffffffffffffffffff\n      and\n      dup2\n      mstore\n      0x20\n      add\n      swap1\n      dup2\n      mstore\n      0x20\n      add\n      0x00\n      keccak256\n      0x00\n      swap1\n      sload\n      swap1\n      0x0100\n      exp\n      swap1\n      div\n      0xff\n      and\n        /* \"src/voting.sol\":2676:2708  VP.hasVoted[msg.sender] == false */\n      iszero\n      iszero\n      eq\n        /* \"src/voting.sol\":2668:2730  require(VP.hasVoted[msg.sender] == false, \"You already voted\") */\n      tag_107\n      jumpi\n      mload(0x40)\n      0x08c379a000000000000000000000000000000000000000000000000000000000\n      dup2\n      mstore\n      0x04\n      add\n      tag_108\n      swap1\n      tag_109\n      jump\t// in\n    tag_108:\n      mload(0x40)\n      dup1\n      swap2\n      sub\n      swap1\n      revert\n    tag_107:\n        /* \"src/voting.sol\":2738:2772  countVote(Cand, _name, msg.sender) */\n      tag_110\n        /* \"src/voting.sol\":2748:2752  Cand */\n      dup13\n        /* \"src/voting.sol\":2754:2759  _name */\n      dup13\n        /* \"src/voting.sol\":2761:2771  msg.sender */\n      caller\n        /* \"src/voting.sol\":2738:2747  countVote */\n      tag_111\n        /* \"src/voting.sol\":2738:2772  countVote(Cand, _name, msg.sender) */\n      jump\t// in\n    tag_110:\n      pop\n        /* \"src/voting.sol\":2784:2801  voted(Cand, true) */\n      0xf3f16a15f074b71c5138107dfc7c63b80524d5411cb967caa97d8d9f12b2fd6b\n        /* \"src/voting.sol\":2790:2794  Cand */\n      dup13\n        /* \"src/voting.sol\":2796:2800  true */\n      0x01\n        /* \"src/voting.sol\":2784:2801  voted(Cand, true) */\n      mload(0x40)\n      tag_112\n      swap3\n      swap2\n      swap1\n      tag_113\n      jump\t// in\n    tag_112:\n      mload(0x40)\n      dup1\n      swap2\n      sub\n      swap1\n      log1\n        /* \"src/voting.sol\":2382:2806  {... */\n      pop\n      pop\n      pop\n        /* \"src/voting.sol\":1186:1296  {... */\n      pop\n        /* \"src/voting.sol\":1137:1138  _ */\n      pop\n        /* \"src/voting.sol\":994:1141  {... */\n      pop\n        /* \"src/voting.sol\":2240:2806  function vote(address Cand, string memory _name , uint256 nonce, bytes memory signature) external  isCandidate(Cand, _name) StillVoting(_name){... */\n      pop\n      pop\n      pop\n      pop\n      pop\n      pop\n      jump\t// out\n        /* \"src/voting.sol\":4226:4445  function getUint( string memory _name) external view returns(uint val, address cand){... */\n    tag_40:\n        /* \"src/voting.sol\":4287:4295  uint val */\n      0x00\n        /* \"src/voting.sol\":4297:4309  address cand */\n      dup1\n        /* \"src/voting.sol\":4317:4338  VotingPoll storage VP */\n      0x00\n        /* \"src/voting.sol\":4341:4351  votingPoll */\n      dup1\n        /* \"src/voting.sol\":4352:4357  _name */\n      dup5\n        /* \"src/voting.sol\":4341:4358  votingPoll[_name] */\n      mload(0x40)\n      tag_115\n      swap2\n      swap1\n      tag_87\n      jump\t// in\n    tag_115:\n      swap1\n      dup2\n      mstore\n      0x20\n      add\n      mload(0x40)\n      dup1\n      swap2\n      sub\n      swap1\n      keccak256\n        /* \"src/voting.sol\":4317:4358  VotingPoll storage VP = votingPoll[_name] */\n      swap1\n      pop\n        /* \"src/voting.sol\":4373:4375  VP */\n      dup1\n        /* \"src/voting.sol\":4373:4389  VP.CandidateVote */\n      0x05\n      add\n        /* \"src/voting.sol\":4373:4407  VP.CandidateVote[VP.candidates[0]] */\n      0x00\n        /* \"src/voting.sol\":4390:4392  VP */\n      dup3\n        /* \"src/voting.sol\":4390:4403  VP.candidates */\n      0x01\n      add\n        /* \"src/voting.sol\":4404:4405  0 */\n      0x00\n        /* \"src/voting.sol\":4390:4406  VP.candidates[0] */\n      dup2\n      sload\n      dup2\n      lt\n      tag_116\n      jumpi\n      tag_117\n      tag_118\n      jump\t// in\n    tag_117:\n    tag_116:\n      swap1\n      0x00\n      mstore\n      keccak256(0x00, 0x20)\n      add\n      0x00\n      swap1\n      sload\n      swap1\n      0x0100\n      exp\n      swap1\n      div\n      0xffffffffffffffffffffffffffffffffffffffff\n      and\n        /* \"src/voting.sol\":4373:4407  VP.CandidateVote[VP.candidates[0]] */\n      0xffffffffffffffffffffffffffffffffffffffff\n      and\n      0xffffffffffffffffffffffffffffffffffffffff\n      and\n      dup2\n      mstore\n      0x20\n      add\n      swap1\n      dup2\n      mstore\n      0x20\n      add\n      0x00\n      keccak256\n      sload\n        /* \"src/voting.sol\":4367:4407  val = VP.CandidateVote[VP.candidates[0]] */\n      swap3\n      pop\n        /* \"src/voting.sol\":4423:4425  VP */\n      dup1\n        /* \"src/voting.sol\":4423:4436  VP.candidates */\n      0x01\n      add\n        /* \"src/voting.sol\":4437:4438  0 */\n      0x00\n        /* \"src/voting.sol\":4423:4439  VP.candidates[0] */\n      dup2\n      sload\n      dup2\n      lt\n      tag_120\n      jumpi\n      tag_121\n      tag_118\n      jump\t// in\n    tag_121:\n    tag_120:\n      swap1\n      0x00\n      mstore\n      keccak256(0x00, 0x20)\n      add\n      0x00\n      swap1\n      sload\n      swap1\n      0x0100\n      exp\n      swap1\n      div\n      0xffffffffffffffffffffffffffffffffffffffff\n      and\n        /* \"src/voting.sol\":4416:4439  cand = VP.candidates[0] */\n      swap2\n      pop\n        /* \"src/voting.sol\":4310:4445  {... */\n      pop\n        /* \"src/voting.sol\":4226:4445  function getUint( string memory _name) external view returns(uint val, address cand){... */\n      swap2\n      pop\n      swap2\n      jump\t// out\n        /* \"src/voting.sol\":3412:4018  function revealWinner( string memory _name) external view returns ( uint[] memory CV, address, uint){... */\n    tag_46:\n        /* \"src/voting.sol\":3480:3496  uint[] memory CV */\n      0x60\n        /* \"src/voting.sol\":3498:3505  address */\n      0x00\n        /* \"src/voting.sol\":3507:3511  uint */\n      dup1\n        /* \"src/voting.sol\":3519:3540  VotingPoll storage VP */\n      0x00\n        /* \"src/voting.sol\":3543:3553  votingPoll */\n      dup1\n        /* \"src/voting.sol\":3554:3559  _name */\n      dup6\n        /* \"src/voting.sol\":3543:3560  votingPoll[_name] */\n      mload(0x40)\n      tag_124\n      swap2\n      swap1\n      tag_87\n      jump\t// in\n    tag_124:\n      swap1\n      dup2\n      mstore\n      0x20\n      add\n      mload(0x40)\n      dup1\n      swap2\n      sub\n      swap1\n      keccak256\n        /* \"src/voting.sol\":3519:3560  VotingPoll storage VP = votingPoll[_name] */\n      swap1\n      pop\n        /* \"src/voting.sol\":3598:3599  0 */\n      0x00\n        /* \"src/voting.sol\":3575:3600  VP.chairman != address(0) */\n      0xffffffffffffffffffffffffffffffffffffffff\n      and\n        /* \"src/voting.sol\":3575:3577  VP */\n      dup2\n        /* \"src/voting.sol\":3575:3586  VP.chairman */\n      0x00\n      add\n      0x00\n      swap1\n      sload\n      swap1\n      0x0100\n      exp\n      swap1\n      div\n      0xffffffffffffffffffffffffffffffffffffffff\n      and\n        /* \"src/voting.sol\":3575:3600  VP.chairman != address(0) */\n      0xffffffffffffffffffffffffffffffffffffffff\n      and\n      eq\n      iszero\n        /* \"src/voting.sol\":3567:3620  require(VP.chairman != address(0), \"No poll created\") */\n      tag_125\n      jumpi\n      mload(0x40)\n      0x08c379a000000000000000000000000000000000000000000000000000000000\n      dup2\n      mstore\n      0x04\n      add\n      tag_126\n      swap1\n      tag_127\n      jump\t// in\n    tag_126:\n      mload(0x40)\n      dup1\n      swap2\n      sub\n      swap1\n      revert\n    tag_125:\n        /* \"src/voting.sol\":3643:3645  VP */\n      dup1\n        /* \"src/voting.sol\":3643:3656  VP.candidates */\n      0x01\n      add\n        /* \"src/voting.sol\":3643:3663  VP.candidates.length */\n      dup1\n      sload\n      swap1\n      pop\n        /* \"src/voting.sol\":3632:3664  new uint[](VP.candidates.length) */\n      0xffffffffffffffff\n      dup2\n      gt\n      iszero\n      tag_128\n      jumpi\n      tag_129\n      tag_130\n      jump\t// in\n    tag_129:\n    tag_128:\n      mload(0x40)\n      swap1\n      dup1\n      dup3\n      mstore\n      dup1\n      0x20\n      mul\n      0x20\n      add\n      dup3\n      add\n      0x40\n      mstore\n      dup1\n      iszero\n      tag_131\n      jumpi\n      dup2\n      0x20\n      add\n      0x20\n      dup3\n      mul\n      dup1\n      calldatasize\n      dup4\n      calldatacopy\n      dup1\n      dup3\n      add\n      swap2\n      pop\n      pop\n      swap1\n      pop\n    tag_131:\n      pop\n        /* \"src/voting.sol\":3627:3664  CV = new uint[](VP.candidates.length) */\n      swap4\n      pop\n        /* \"src/voting.sol\":3671:3687  uint highestVote */\n      0x00\n        /* \"src/voting.sol\":3694:3708  address winner */\n      dup1\n        /* \"src/voting.sol\":3720:3726  uint i */\n      0x00\n        /* \"src/voting.sol\":3715:3976  for (uint i =0; i <= VP.candidates.length; i++){... */\n    tag_132:\n        /* \"src/voting.sol\":3736:3738  VP */\n      dup4\n        /* \"src/voting.sol\":3736:3749  VP.candidates */\n      0x01\n      add\n        /* \"src/voting.sol\":3736:3756  VP.candidates.length */\n      dup1\n      sload\n      swap1\n      pop\n        /* \"src/voting.sol\":3731:3732  i */\n      dup2\n        /* \"src/voting.sol\":3731:3756  i <= VP.candidates.length */\n      gt\n        /* \"src/voting.sol\":3715:3976  for (uint i =0; i <= VP.candidates.length; i++){... */\n      tag_133\n      jumpi\n        /* \"src/voting.sol\":3771:3779  uint val */\n      0x00\n        /* \"src/voting.sol\":3782:3784  VP */\n      dup5\n        /* \"src/voting.sol\":3782:3798  VP.CandidateVote */\n      0x05\n      add\n        /* \"src/voting.sol\":3782:3816  VP.CandidateVote[VP.candidates[i]] */\n      0x00\n        /* \"src/voting.sol\":3799:3801  VP */\n      dup7\n        /* \"src/voting.sol\":3799:3812  VP.candidates */\n      0x01\n      add\n        /* \"src/voting.sol\":3813:3814  i */\n      dup5\n        /* \"src/voting.sol\":3799:3815  VP.candidates[i] */\n      dup2\n      sload\n      dup2\n      lt\n      tag_135\n      jumpi\n      tag_136\n      tag_118\n      jump\t// in\n    tag_136:\n    tag_135:\n      swap1\n      0x00\n      mstore\n      keccak256(0x00, 0x20)\n      add\n      0x00\n      swap1\n      sload\n      swap1\n      0x0100\n      exp\n      swap1\n      div\n      0xffffffffffffffffffffffffffffffffffffffff\n      and\n        /* \"src/voting.sol\":3782:3816  VP.CandidateVote[VP.candidates[i]] */\n      0xffffffffffffffffffffffffffffffffffffffff\n      and\n      0xffffffffffffffffffffffffffffffffffffffff\n      and\n      dup2\n      mstore\n      0x20\n      add\n      swap1\n      dup2\n      mstore\n      0x20\n      add\n      0x00\n      keccak256\n      sload\n        /* \"src/voting.sol\":3771:3816  uint val = VP.CandidateVote[VP.candidates[i]] */\n      swap1\n      pop\n        /* \"src/voting.sol\":3832:3843  highestVote */\n      dup4\n        /* \"src/voting.sol\":3826:3829  val */\n      dup2\n        /* \"src/voting.sol\":3826:3843  val > highestVote */\n      gt\n        /* \"src/voting.sol\":3823:3917  if(val > highestVote){... */\n      iszero\n      tag_138\n      jumpi\n        /* \"src/voting.sol\":3869:3872  val */\n      dup1\n        /* \"src/voting.sol\":3855:3872  highestVote = val */\n      swap4\n      pop\n        /* \"src/voting.sol\":3893:3895  VP */\n      dup5\n        /* \"src/voting.sol\":3893:3906  VP.candidates */\n      0x01\n      add\n        /* \"src/voting.sol\":3907:3908  i */\n      dup3\n        /* \"src/voting.sol\":3893:3909  VP.candidates[i] */\n      dup2\n      sload\n      dup2\n      lt\n      tag_139\n      jumpi\n      tag_140\n      tag_118\n      jump\t// in\n    tag_140:\n    tag_139:\n      swap1\n      0x00\n      mstore\n      keccak256(0x00, 0x20)\n      add\n      0x00\n      swap1\n      sload\n      swap1\n      0x0100\n      exp\n      swap1\n      div\n      0xffffffffffffffffffffffffffffffffffffffff\n      and\n        /* \"src/voting.sol\":3884:3909  winner = VP.candidates[i] */\n      swap3\n      pop\n        /* \"src/voting.sol\":3823:3917  if(val > highestVote){... */\n    tag_138:\n        /* \"src/voting.sol\":3932:3934  VP */\n      dup5\n        /* \"src/voting.sol\":3932:3948  VP.CandidateVote */\n      0x05\n      add\n        /* \"src/voting.sol\":3932:3966  VP.CandidateVote[VP.candidates[i]] */\n      0x00\n        /* \"src/voting.sol\":3949:3951  VP */\n      dup7\n        /* \"src/voting.sol\":3949:3962  VP.candidates */\n      0x01\n      add\n        /* \"src/voting.sol\":3963:3964  i */\n      dup5\n        /* \"src/voting.sol\":3949:3965  VP.candidates[i] */\n      dup2\n      sload\n      dup2\n      lt\n      tag_142\n      jumpi\n      tag_143\n      tag_118\n      jump\t// in\n    tag_143:\n    tag_142:\n      swap1\n      0x00\n      mstore\n      keccak256(0x00, 0x20)\n      add\n      0x00\n      swap1\n      sload\n      swap1\n      0x0100\n      exp\n      swap1\n      div\n      0xffffffffffffffffffffffffffffffffffffffff\n      and\n        /* \"src/voting.sol\":3932:3966  VP.CandidateVote[VP.candidates[i]] */\n      0xffffffffffffffffffffffffffffffffffffffff\n      and\n      0xffffffffffffffffffffffffffffffffffffffff\n      and\n      dup2\n      mstore\n      0x20\n      add\n      swap1\n      dup2\n      mstore\n      0x20\n      add\n      0x00\n      keccak256\n      sload\n        /* \"src/voting.sol\":3923:3925  CV */\n      dup9\n        /* \"src/voting.sol\":3926:3927  i */\n      dup4\n        /* \"src/voting.sol\":3923:3928  CV[i] */\n      dup2\n      mload\n      dup2\n      lt\n      tag_145\n      jumpi\n      tag_146\n      tag_118\n      jump\t// in\n    tag_146:\n    tag_145:\n      0x20\n      mul\n      0x20\n      add\n      add\n        /* \"src/voting.sol\":3923:3967  CV[i] = (VP.CandidateVote[VP.candidates[i]]) */\n      dup2\n      dup2\n      mstore\n      pop\n      pop\n        /* \"src/voting.sol\":3762:3976  {... */\n      pop\n        /* \"src/voting.sol\":3758:3761  i++ */\n      dup1\n      dup1\n      tag_147\n      swap1\n      tag_105\n      jump\t// in\n    tag_147:\n      swap2\n      pop\n      pop\n        /* \"src/voting.sol\":3715:3976  for (uint i =0; i <= VP.candidates.length; i++){... */\n      jump(tag_132)\n    tag_133:\n      pop\n        /* \"src/voting.sol\":3990:3992  CV */\n      dup6\n        /* \"src/voting.sol\":3994:4000  winner */\n      dup2\n        /* \"src/voting.sol\":4002:4013  highestVote */\n      dup4\n        /* \"src/voting.sol\":3982:4014  return (CV, winner, highestVote) */\n      swap6\n      pop\n      swap6\n      pop\n      swap6\n      pop\n      pop\n      pop\n      pop\n        /* \"src/voting.sol\":3412:4018  function revealWinner( string memory _name) external view returns ( uint[] memory CV, address, uint){... */\n      swap2\n      swap4\n      swap1\n      swap3\n      pop\n      jump\t// out\n        /* \"src/voting.sol\":1725:2237  function AddCandidate(address _newCandidate, string memory _name) external{... */\n    tag_53:\n        /* \"src/voting.sol\":1806:1827  VotingPoll storage VP */\n      0x00\n        /* \"src/voting.sol\":1830:1840  votingPoll */\n      dup1\n        /* \"src/voting.sol\":1841:1846  _name */\n      dup3\n        /* \"src/voting.sol\":1830:1847  votingPoll[_name] */\n      mload(0x40)\n      tag_149\n      swap2\n      swap1\n      tag_87\n      jump\t// in\n    tag_149:\n      swap1\n      dup2\n      mstore\n      0x20\n      add\n      mload(0x40)\n      dup1\n      swap2\n      sub\n      swap1\n      keccak256\n        /* \"src/voting.sol\":1806:1847  VotingPoll storage VP = votingPoll[_name] */\n      swap1\n      pop\n        /* \"src/voting.sol\":1886:1887  0 */\n      0x00\n        /* \"src/voting.sol\":1863:1888  VP.chairman != address(0) */\n      0xffffffffffffffffffffffffffffffffffffffff\n      and\n        /* \"src/voting.sol\":1863:1865  VP */\n      dup2\n        /* \"src/voting.sol\":1863:1874  VP.chairman */\n      0x00\n      add\n      0x00\n      swap1\n      sload\n      swap1\n      0x0100\n      exp\n      swap1\n      div\n      0xffffffffffffffffffffffffffffffffffffffff\n      and\n        /* \"src/voting.sol\":1863:1888  VP.chairman != address(0) */\n      0xffffffffffffffffffffffffffffffffffffffff\n      and\n      eq\n      iszero\n        /* \"src/voting.sol\":1854:1914  require (VP.chairman != address(0) , \"yet to create a poll\") */\n      tag_150\n      jumpi\n      mload(0x40)\n      0x08c379a000000000000000000000000000000000000000000000000000000000\n      dup2\n      mstore\n      0x04\n      add\n      tag_151\n      swap1\n      tag_152\n      jump\t// in\n    tag_151:\n      mload(0x40)\n      dup1\n      swap2\n      sub\n      swap1\n      revert\n    tag_150:\n        /* \"src/voting.sol\":1945:1955  msg.sender */\n      caller\n        /* \"src/voting.sol\":1930:1955  VP.chairman == msg.sender */\n      0xffffffffffffffffffffffffffffffffffffffff\n      and\n        /* \"src/voting.sol\":1930:1932  VP */\n      dup2\n        /* \"src/voting.sol\":1930:1941  VP.chairman */\n      0x00\n      add\n      0x00\n      swap1\n      sload\n      swap1\n      0x0100\n      exp\n      swap1\n      div\n      0xffffffffffffffffffffffffffffffffffffffff\n      and\n        /* \"src/voting.sol\":1930:1955  VP.chairman == msg.sender */\n      0xffffffffffffffffffffffffffffffffffffffff\n      and\n      eq\n        /* \"src/voting.sol\":1923:1956  assert(VP.chairman == msg.sender) */\n      tag_153\n      jumpi\n      tag_154\n      tag_155\n      jump\t// in\n    tag_154:\n    tag_153:\n        /* \"src/voting.sol\":1998:2000  VP */\n      dup1\n        /* \"src/voting.sol\":1998:2018  VP.maxNoOfCandidates */\n      0x02\n      add\n      0x00\n      swap1\n      sload\n      swap1\n      0x0100\n      exp\n      swap1\n      div\n      0xffffffff\n      and\n        /* \"src/voting.sol\":1971:2018  VP.currentNoOfCandidates < VP.maxNoOfCandidates */\n      0xffffffff\n      and\n        /* \"src/voting.sol\":1971:1973  VP */\n      dup2\n        /* \"src/voting.sol\":1971:1995  VP.currentNoOfCandidates */\n      0x02\n      add\n      0x04\n      swap1\n      sload\n      swap1\n      0x0100\n      exp\n      swap1\n      div\n      0xffff\n      and\n        /* \"src/voting.sol\":1971:2018  VP.currentNoOfCandidates < VP.maxNoOfCandidates */\n      0xffff\n      and\n      lt\n        /* \"src/voting.sol\":1963:2069  require(VP.currentNoOfCandidates < VP.maxNoOfCandidates, \"maximum no of candidate per session registered\") */\n      tag_156\n      jumpi\n      mload(0x40)\n      0x08c379a000000000000000000000000000000000000000000000000000000000\n      dup2\n      mstore\n      0x04\n      add\n      tag_157\n      swap1\n      tag_158\n      jump\t// in\n    tag_157:\n      mload(0x40)\n      dup1\n      swap2\n      sub\n      swap1\n      revert\n    tag_156:\n        /* \"src/voting.sol\":2112:2116  true */\n      0x01\n        /* \"src/voting.sol\":2076:2078  VP */\n      dup2\n        /* \"src/voting.sol\":2076:2094  VP.CandidateStatus */\n      0x03\n      add\n        /* \"src/voting.sol\":2076:2109  VP.CandidateStatus[_newCandidate] */\n      0x00\n        /* \"src/voting.sol\":2095:2108  _newCandidate */\n      dup6\n        /* \"src/voting.sol\":2076:2109  VP.CandidateStatus[_newCandidate] */\n      0xffffffffffffffffffffffffffffffffffffffff\n      and\n      0xffffffffffffffffffffffffffffffffffffffff\n      and\n      dup2\n      mstore\n      0x20\n      add\n      swap1\n      dup2\n      mstore\n      0x20\n      add\n      0x00\n      keccak256\n      0x00\n        /* \"src/voting.sol\":2076:2116  VP.CandidateStatus[_newCandidate] = true */\n      0x0100\n      exp\n      dup2\n      sload\n      dup2\n      0xff\n      mul\n      not\n      and\n      swap1\n      dup4\n      iszero\n      iszero\n      mul\n      or\n      swap1\n      sstore\n      pop\n        /* \"src/voting.sol\":2124:2126  VP */\n      dup1\n        /* \"src/voting.sol\":2124:2137  VP.candidates */\n      0x01\n      add\n        /* \"src/voting.sol\":2143:2156  _newCandidate */\n      dup4\n        /* \"src/voting.sol\":2124:2157  VP.candidates.push(_newCandidate) */\n      swap1\n      dup1\n      0x01\n      dup2\n      sload\n      add\n      dup1\n      dup3\n      sstore\n      dup1\n      swap2\n      pop\n      pop\n      0x01\n      swap1\n      sub\n      swap1\n      0x00\n      mstore\n      keccak256(0x00, 0x20)\n      add\n      0x00\n      swap1\n      swap2\n      swap1\n      swap2\n      swap1\n      swap2\n      0x0100\n      exp\n      dup2\n      sload\n      dup2\n      0xffffffffffffffffffffffffffffffffffffffff\n      mul\n      not\n      and\n      swap1\n      dup4\n      0xffffffffffffffffffffffffffffffffffffffff\n      and\n      mul\n      or\n      swap1\n      sstore\n      pop\n        /* \"src/voting.sol\":2165:2167  VP */\n      dup1\n        /* \"src/voting.sol\":2165:2189  VP.currentNoOfCandidates */\n      0x02\n      add\n      0x04\n        /* \"src/voting.sol\":2165:2191  VP.currentNoOfCandidates++ */\n      dup2\n      dup2\n      swap1\n      sload\n      swap1\n      0x0100\n      exp\n      swap1\n      div\n      0xffff\n      and\n      dup1\n      swap3\n      swap2\n      swap1\n      tag_160\n      swap1\n      tag_161\n      jump\t// in\n    tag_160:\n      swap2\n      swap1\n      0x0100\n      exp\n      dup2\n      sload\n      dup2\n      0xffff\n      mul\n      not\n      and\n      swap1\n      dup4\n      0xffff\n      and\n      mul\n      or\n      swap1\n      sstore\n      pop\n      pop\n        /* \"src/voting.sol\":2203:2233  becameCandidate(_newCandidate) */\n      0xc19c59aa93348e8fc54764bc642eca975e2639f44cc683ef8f027e1529cbda32\n        /* \"src/voting.sol\":2219:2232  _newCandidate */\n      dup4\n        /* \"src/voting.sol\":2203:2233  becameCandidate(_newCandidate) */\n      mload(0x40)\n      tag_162\n      swap2\n      swap1\n      tag_163\n      jump\t// in\n    tag_162:\n      mload(0x40)\n      dup1\n      swap2\n      sub\n      swap1\n      log1\n        /* \"src/voting.sol\":1799:2237  {... */\n      pop\n        /* \"src/voting.sol\":1725:2237  function AddCandidate(address _newCandidate, string memory _name) external{... */\n      pop\n      pop\n      jump\t// out\n        /* \"src/voting.sol\":620:667  mapping(string => VotingPoll) public votingPoll */\n    tag_57:\n      0x00\n      dup2\n      dup1\n      mload\n      0x20\n      dup2\n      add\n      dup3\n      add\n      dup1\n      mload\n      dup5\n      dup3\n      mstore\n      0x20\n      dup4\n      add\n      0x20\n      dup6\n      add\n      keccak256\n      dup2\n      dup4\n      mstore\n      dup1\n      swap6\n      pop\n      pop\n      pop\n      pop\n      pop\n      pop\n      0x00\n      swap2\n      pop\n      swap1\n      pop\n      dup1\n      0x00\n      add\n      0x00\n      swap1\n      sload\n      swap1\n      0x0100\n      exp\n      swap1\n      div\n      0xffffffffffffffffffffffffffffffffffffffff\n      and\n      swap1\n      dup1\n      0x02\n      add\n      0x00\n      swap1\n      sload\n      swap1\n      0x0100\n      exp\n      swap1\n      div\n      0xffffffff\n      and\n      swap1\n      dup1\n      0x02\n      add\n      0x04\n      swap1\n      sload\n      swap1\n      0x0100\n      exp\n      swap1\n      div\n      0xffff\n      and\n      swap1\n      dup1\n      0x02\n      add\n      0x06\n      swap1\n      sload\n      swap1\n      0x0100\n      exp\n      swap1\n      div\n      0xff\n      and\n      swap1\n      pop\n      dup5\n      jump\t// out\n        /* \"src/voting.sol\":673:720  mapping (address => uint256) public replayNonce */\n    tag_64:\n      mstore(0x20, 0x01)\n      dup1\n      0x00\n      mstore\n      keccak256(0x00, 0x40)\n      0x00\n      swap2\n      pop\n      swap1\n      pop\n      sload\n      dup2\n      jump\t// out\n        /* \"src/voting.sol\":3057:3228  function NoOfRegisteredCandidates( string memory _name) public view returns(uint){... */\n    tag_70:\n        /* \"src/voting.sol\":3133:3137  uint */\n      0x00\n        /* \"src/voting.sol\":3145:3166  VotingPoll storage VP */\n      dup1\n        /* \"src/voting.sol\":3169:3179  votingPoll */\n      0x00\n        /* \"src/voting.sol\":3180:3185  _name */\n      dup4\n        /* \"src/voting.sol\":3169:3186  votingPoll[_name] */\n      mload(0x40)\n      tag_165\n      swap2\n      swap1\n      tag_87\n      jump\t// in\n    tag_165:\n      swap1\n      dup2\n      mstore\n      0x20\n      add\n      mload(0x40)\n      dup1\n      swap2\n      sub\n      swap1\n      keccak256\n        /* \"src/voting.sol\":3145:3186  VotingPoll storage VP = votingPoll[_name] */\n      swap1\n      pop\n        /* \"src/voting.sol\":3200:3202  VP */\n      dup1\n        /* \"src/voting.sol\":3200:3224  VP.currentNoOfCandidates */\n      0x02\n      add\n      0x04\n      swap1\n      sload\n      swap1\n      0x0100\n      exp\n      swap1\n      div\n      0xffff\n      and\n        /* \"src/voting.sol\":3193:3224  return VP.currentNoOfCandidates */\n      0xffff\n      and\n      swap2\n      pop\n      pop\n        /* \"src/voting.sol\":3057:3228  function NoOfRegisteredCandidates( string memory _name) public view returns(uint){... */\n      swap2\n      swap1\n      pop\n      jump\t// out\n        /* \"src/voting.sol\":3236:3409  function AllCandidates( string memory _name) public view returns(address[] memory _candidates){... */\n    tag_75:\n        /* \"src/voting.sol\":3301:3329  address[] memory _candidates */\n      0x60\n        /* \"src/voting.sol\":3337:3358  VotingPoll storage VP */\n      0x00\n        /* \"src/voting.sol\":3361:3371  votingPoll */\n      dup1\n        /* \"src/voting.sol\":3372:3377  _name */\n      dup4\n        /* \"src/voting.sol\":3361:3378  votingPoll[_name] */\n      mload(0x40)\n      tag_167\n      swap2\n      swap1\n      tag_87\n      jump\t// in\n    tag_167:\n      swap1\n      dup2\n      mstore\n      0x20\n      add\n      mload(0x40)\n      dup1\n      swap2\n      sub\n      swap1\n      keccak256\n        /* \"src/voting.sol\":3337:3378  VotingPoll storage VP = votingPoll[_name] */\n      swap1\n      pop\n        /* \"src/voting.sol\":3392:3394  VP */\n      dup1\n        /* \"src/voting.sol\":3392:3405  VP.candidates */\n      0x01\n      add\n        /* \"src/voting.sol\":3385:3405  return VP.candidates */\n      dup1\n      sload\n      dup1\n      0x20\n      mul\n      0x20\n      add\n      mload(0x40)\n      swap1\n      dup2\n      add\n      0x40\n      mstore\n      dup1\n      swap3\n      swap2\n      swap1\n      dup2\n      dup2\n      mstore\n      0x20\n      add\n      dup3\n      dup1\n      sload\n      dup1\n      iszero\n      tag_168\n      jumpi\n      0x20\n      mul\n      dup3\n      add\n      swap2\n      swap1\n      0x00\n      mstore\n      keccak256(0x00, 0x20)\n      swap1\n    tag_169:\n      dup2\n      0x00\n      swap1\n      sload\n      swap1\n      0x0100\n      exp\n      swap1\n      div\n      0xffffffffffffffffffffffffffffffffffffffff\n      and\n      0xffffffffffffffffffffffffffffffffffffffff\n      and\n      dup2\n      mstore\n      0x20\n      add\n      swap1\n      0x01\n      add\n      swap1\n      dup1\n      dup4\n      gt\n      tag_169\n      jumpi\n    tag_168:\n      pop\n      pop\n      pop\n      pop\n      pop\n      swap2\n      pop\n      pop\n        /* \"src/voting.sol\":3236:3409  function AllCandidates( string memory _name) public view returns(address[] memory _candidates){... */\n      swap2\n      swap1\n      pop\n      jump\t// out\n        /* \"src/voting.sol\":4021:4223  function setVotingState( string memory _name) external {... */\n    tag_81:\n        /* \"src/voting.sol\":4082:4103  VotingPoll storage VP */\n      0x00\n        /* \"src/voting.sol\":4106:4116  votingPoll */\n      dup1\n        /* \"src/voting.sol\":4117:4122  _name */\n      dup3\n        /* \"src/voting.sol\":4106:4123  votingPoll[_name] */\n      mload(0x40)\n      tag_171\n      swap2\n      swap1\n      tag_87\n      jump\t// in\n    tag_171:\n      swap1\n      dup2\n      mstore\n      0x20\n      add\n      mload(0x40)\n      dup1\n      swap2\n      sub\n      swap1\n      keccak256\n        /* \"src/voting.sol\":4082:4123  VotingPoll storage VP = votingPoll[_name] */\n      swap1\n      pop\n        /* \"src/voting.sol\":4152:4162  msg.sender */\n      caller\n        /* \"src/voting.sol\":4137:4162  VP.chairman == msg.sender */\n      0xffffffffffffffffffffffffffffffffffffffff\n      and\n        /* \"src/voting.sol\":4137:4139  VP */\n      dup2\n        /* \"src/voting.sol\":4137:4148  VP.chairman */\n      0x00\n      add\n      0x00\n      swap1\n      sload\n      swap1\n      0x0100\n      exp\n      swap1\n      div\n      0xffffffffffffffffffffffffffffffffffffffff\n      and\n        /* \"src/voting.sol\":4137:4162  VP.chairman == msg.sender */\n      0xffffffffffffffffffffffffffffffffffffffff\n      and\n      eq\n        /* \"src/voting.sol\":4129:4183  require(VP.chairman == msg.sender, \"not the chairman\") */\n      tag_172\n      jumpi\n      mload(0x40)\n      0x08c379a000000000000000000000000000000000000000000000000000000000\n      dup2\n      mstore\n      0x04\n      add\n      tag_173\n      swap1\n      tag_174\n      jump\t// in\n    tag_173:\n      mload(0x40)\n      dup1\n      swap2\n      sub\n      swap1\n      revert\n    tag_172:\n        /* \"src/voting.sol\":4209:4211  VP */\n      dup1\n        /* \"src/voting.sol\":4209:4218  VP.voting */\n      0x02\n      add\n      0x06\n      swap1\n      sload\n      swap1\n      0x0100\n      exp\n      swap1\n      div\n      0xff\n      and\n        /* \"src/voting.sol\":4207:4219  !(VP.voting) */\n      iszero\n        /* \"src/voting.sol\":4195:4197  VP */\n      dup2\n        /* \"src/voting.sol\":4195:4204  VP.voting */\n      0x02\n      add\n      0x06\n        /* \"src/voting.sol\":4195:4219  VP.voting = !(VP.voting) */\n      0x0100\n      exp\n      dup2\n      sload\n      dup2\n      0xff\n      mul\n      not\n      and\n      swap1\n      dup4\n      iszero\n      iszero\n      mul\n      or\n      swap1\n      sstore\n      pop\n        /* \"src/voting.sol\":4076:4223  {... */\n      pop\n        /* \"src/voting.sol\":4021:4223  function setVotingState( string memory _name) external {... */\n      pop\n      jump\t// out\n        /* \"src/voting.sol\":4684:5266  function getSigner(bytes32 _hash, bytes memory _signature) internal pure returns (address){... */\n    tag_101:\n        /* \"src/voting.sol\":4766:4773  address */\n      0x00\n        /* \"src/voting.sol\":4780:4789  bytes32 r */\n      dup1\n        /* \"src/voting.sol\":4795:4804  bytes32 s */\n      0x00\n        /* \"src/voting.sol\":4810:4817  uint8 v */\n      dup1\n        /* \"src/voting.sol\":4848:4850  65 */\n      0x41\n        /* \"src/voting.sol\":4827:4837  _signature */\n      dup6\n        /* \"src/voting.sol\":4827:4844  _signature.length */\n      mload\n        /* \"src/voting.sol\":4827:4850  _signature.length != 65 */\n      eq\n        /* \"src/voting.sol\":4823:4884  if (_signature.length != 65) {... */\n      tag_176\n      jumpi\n        /* \"src/voting.sol\":4875:4876  0 */\n      0x00\n        /* \"src/voting.sol\":4860:4877  return address(0) */\n      swap4\n      pop\n      pop\n      pop\n      pop\n      jump(tag_175)\n        /* \"src/voting.sol\":4823:4884  if (_signature.length != 65) {... */\n    tag_176:\n        /* \"src/voting.sol\":4933:4935  32 */\n      0x20\n        /* \"src/voting.sol\":4921:4931  _signature */\n      dup6\n        /* \"src/voting.sol\":4917:4936  add(_signature, 32) */\n      add\n        /* \"src/voting.sol\":4911:4937  mload(add(_signature, 32)) */\n      mload\n        /* \"src/voting.sol\":4906:4937  r := mload(add(_signature, 32)) */\n      swap3\n      pop\n        /* \"src/voting.sol\":4971:4973  64 */\n      0x40\n        /* \"src/voting.sol\":4959:4969  _signature */\n      dup6\n        /* \"src/voting.sol\":4955:4974  add(_signature, 64) */\n      add\n        /* \"src/voting.sol\":4949:4975  mload(add(_signature, 64)) */\n      mload\n        /* \"src/voting.sol\":4944:4975  s := mload(add(_signature, 64)) */\n      swap2\n      pop\n        /* \"src/voting.sol\":5017:5019  96 */\n      0x60\n        /* \"src/voting.sol\":5005:5015  _signature */\n      dup6\n        /* \"src/voting.sol\":5001:5020  add(_signature, 96) */\n      add\n        /* \"src/voting.sol\":4995:5021  mload(add(_signature, 96)) */\n      mload\n        /* \"src/voting.sol\":4992:4993  0 */\n      0x00\n        /* \"src/voting.sol\":4987:5022  byte(0, mload(add(_signature, 96))) */\n      byte\n        /* \"src/voting.sol\":4982:5022  v := byte(0, mload(add(_signature, 96))) */\n      swap1\n      pop\n        /* \"src/voting.sol\":5041:5043  27 */\n      0x1b\n        /* \"src/voting.sol\":5037:5038  v */\n      dup2\n        /* \"src/voting.sol\":5037:5043  v < 27 */\n      0xff\n      and\n      lt\n        /* \"src/voting.sol\":5033:5067  if (v < 27) {... */\n      iszero\n      tag_177\n      jumpi\n        /* \"src/voting.sol\":5058:5060  27 */\n      0x1b\n        /* \"src/voting.sol\":5053:5060  v += 27 */\n      dup2\n      tag_178\n      swap2\n      swap1\n      tag_179\n      jump\t// in\n    tag_178:\n      swap1\n      pop\n        /* \"src/voting.sol\":5033:5067  if (v < 27) {... */\n    tag_177:\n        /* \"src/voting.sol\":5081:5083  27 */\n      0x1b\n        /* \"src/voting.sol\":5076:5077  v */\n      dup2\n        /* \"src/voting.sol\":5076:5083  v != 27 */\n      0xff\n      and\n      eq\n      iszero\n        /* \"src/voting.sol\":5076:5094  v != 27 && v != 28 */\n      dup1\n      iszero\n      tag_180\n      jumpi\n      pop\n        /* \"src/voting.sol\":5092:5094  28 */\n      0x1c\n        /* \"src/voting.sol\":5087:5088  v */\n      dup2\n        /* \"src/voting.sol\":5087:5094  v != 28 */\n      0xff\n      and\n      eq\n      iszero\n        /* \"src/voting.sol\":5076:5094  v != 27 && v != 28 */\n    tag_180:\n        /* \"src/voting.sol\":5072:5262  if (v != 27 && v != 28) {... */\n      iszero\n      tag_181\n      jumpi\n        /* \"src/voting.sol\":5119:5120  0 */\n      0x00\n        /* \"src/voting.sol\":5104:5121  return address(0) */\n      swap4\n      pop\n      pop\n      pop\n      pop\n      jump(tag_175)\n        /* \"src/voting.sol\":5072:5262  if (v != 27 && v != 28) {... */\n    tag_181:\n        /* \"src/voting.sol\":5149:5255  ecrecover(keccak256(... */\n      0x01\n        /* \"src/voting.sol\":5231:5236  _hash */\n      dup7\n        /* \"src/voting.sol\":5178:5237  abi.encodePacked(\"\\x19Ethereum Signed Message:\\n32\", _hash) */\n      add(0x20, mload(0x40))\n      tag_183\n      swap2\n      swap1\n      tag_184\n      jump\t// in\n    tag_183:\n      mload(0x40)\n      0x20\n      dup2\n      dup4\n      sub\n      sub\n      dup2\n      mstore\n      swap1\n      0x40\n      mstore\n        /* \"src/voting.sol\":5159:5245  keccak256(... */\n      dup1\n      mload\n      swap1\n      0x20\n      add\n      keccak256\n        /* \"src/voting.sol\":5247:5248  v */\n      dup3\n        /* \"src/voting.sol\":5250:5251  r */\n      dup6\n        /* \"src/voting.sol\":5253:5254  s */\n      dup6\n        /* \"src/voting.sol\":5149:5255  ecrecover(keccak256(... */\n      mload(0x40)\n      0x00\n      dup2\n      mstore\n      0x20\n      add\n      0x40\n      mstore\n      mload(0x40)\n      tag_185\n      swap5\n      swap4\n      swap3\n      swap2\n      swap1\n      tag_186\n      jump\t// in\n    tag_185:\n      0x20\n      mload(0x40)\n      0x20\n      dup2\n      sub\n      swap1\n      dup1\n      dup5\n      sub\n      swap1\n      dup6\n      gas\n      staticcall\n      iszero\n      dup1\n      iszero\n      tag_188\n      jumpi\n      returndatasize\n      0x00\n      dup1\n      returndatacopy\n      revert(0x00, returndatasize)\n    tag_188:\n      pop\n      pop\n      pop\n      mload(sub(mload(0x40), 0x20))\n        /* \"src/voting.sol\":5142:5255  return ecrecover(keccak256(... */\n      swap4\n      pop\n      pop\n      pop\n      pop\n        /* \"src/voting.sol\":4684:5266  function getSigner(bytes32 _hash, bytes memory _signature) internal pure returns (address){... */\n    tag_175:\n      swap3\n      swap2\n      pop\n      pop\n      jump\t// out\n        /* \"src/voting.sol\":2809:3054  function countVote(address Cand, string memory _name, address signer) internal returns(uint){... */\n    tag_111:\n        /* \"src/voting.sol\":2896:2900  uint */\n      0x00\n        /* \"src/voting.sol\":2908:2929  VotingPoll storage VP */\n      dup1\n        /* \"src/voting.sol\":2932:2942  votingPoll */\n      0x00\n        /* \"src/voting.sol\":2943:2948  _name */\n      dup5\n        /* \"src/voting.sol\":2932:2949  votingPoll[_name] */\n      mload(0x40)\n      tag_190\n      swap2\n      swap1\n      tag_87\n      jump\t// in\n    tag_190:\n      swap1\n      dup2\n      mstore\n      0x20\n      add\n      mload(0x40)\n      dup1\n      swap2\n      sub\n      swap1\n      keccak256\n        /* \"src/voting.sol\":2908:2949  VotingPoll storage VP = votingPoll[_name] */\n      swap1\n      pop\n        /* \"src/voting.sol\":2978:2982  true */\n      0x01\n        /* \"src/voting.sol\":2956:2958  VP */\n      dup2\n        /* \"src/voting.sol\":2956:2967  VP.hasVoted */\n      0x04\n      add\n        /* \"src/voting.sol\":2956:2975  VP.hasVoted[signer] */\n      0x00\n        /* \"src/voting.sol\":2968:2974  signer */\n      dup6\n        /* \"src/voting.sol\":2956:2975  VP.hasVoted[signer] */\n      0xffffffffffffffffffffffffffffffffffffffff\n      and\n      0xffffffffffffffffffffffffffffffffffffffff\n      and\n      dup2\n      mstore\n      0x20\n      add\n      swap1\n      dup2\n      mstore\n      0x20\n      add\n      0x00\n      keccak256\n      0x00\n        /* \"src/voting.sol\":2956:2982  VP.hasVoted[signer] = true */\n      0x0100\n      exp\n      dup2\n      sload\n      dup2\n      0xff\n      mul\n      not\n      and\n      swap1\n      dup4\n      iszero\n      iszero\n      mul\n      or\n      swap1\n      sstore\n      pop\n        /* \"src/voting.sol\":2989:2991  VP */\n      dup1\n        /* \"src/voting.sol\":2989:3005  VP.CandidateVote */\n      0x05\n      add\n        /* \"src/voting.sol\":2989:3011  VP.CandidateVote[Cand] */\n      0x00\n        /* \"src/voting.sol\":3006:3010  Cand */\n      dup7\n        /* \"src/voting.sol\":2989:3011  VP.CandidateVote[Cand] */\n      0xffffffffffffffffffffffffffffffffffffffff\n      and\n      0xffffffffffffffffffffffffffffffffffffffff\n      and\n      dup2\n      mstore\n      0x20\n      add\n      swap1\n      dup2\n      mstore\n      0x20\n      add\n      0x00\n      keccak256\n      0x00\n        /* \"src/voting.sol\":2989:3013  VP.CandidateVote[Cand]++ */\n      dup2\n      sload\n      dup1\n      swap3\n      swap2\n      swap1\n      tag_191\n      swap1\n      tag_105\n      jump\t// in\n    tag_191:\n      swap2\n      swap1\n      pop\n      sstore\n      pop\n        /* \"src/voting.sol\":3027:3029  VP */\n      dup1\n        /* \"src/voting.sol\":3027:3043  VP.CandidateVote */\n      0x05\n      add\n        /* \"src/voting.sol\":3027:3049  VP.CandidateVote[Cand] */\n      0x00\n        /* \"src/voting.sol\":3044:3048  Cand */\n      dup7\n        /* \"src/voting.sol\":3027:3049  VP.CandidateVote[Cand] */\n      0xffffffffffffffffffffffffffffffffffffffff\n      and\n      0xffffffffffffffffffffffffffffffffffffffff\n      and\n      dup2\n      mstore\n      0x20\n      add\n      swap1\n      dup2\n      mstore\n      0x20\n      add\n      0x00\n      keccak256\n      sload\n        /* \"src/voting.sol\":3020:3049  return VP.CandidateVote[Cand] */\n      swap2\n      pop\n      pop\n        /* \"src/voting.sol\":2809:3054  function countVote(address Cand, string memory _name, address signer) internal returns(uint){... */\n      swap4\n      swap3\n      pop\n      pop\n      pop\n      jump\t// out\n        /* \"#utility.yul\":7:82   */\n    tag_192:\n        /* \"#utility.yul\":40:46   */\n      0x00\n        /* \"#utility.yul\":73:75   */\n      0x40\n        /* \"#utility.yul\":67:76   */\n      mload\n        /* \"#utility.yul\":57:76   */\n      swap1\n      pop\n        /* \"#utility.yul\":7:82   */\n      swap1\n      jump\t// out\n        /* \"#utility.yul\":88:205   */\n    tag_193:\n        /* \"#utility.yul\":197:198   */\n      0x00\n        /* \"#utility.yul\":194:195   */\n      dup1\n        /* \"#utility.yul\":187:199   */\n      revert\n        /* \"#utility.yul\":211:328   */\n    tag_194:\n        /* \"#utility.yul\":320:321   */\n      0x00\n        /* \"#utility.yul\":317:318   */\n      dup1\n        /* \"#utility.yul\":310:322   */\n      revert\n        /* \"#utility.yul\":334:460   */\n    tag_195:\n        /* \"#utility.yul\":371:378   */\n      0x00\n        /* \"#utility.yul\":411:453   */\n      0xffffffffffffffffffffffffffffffffffffffff\n        /* \"#utility.yul\":404:409   */\n      dup3\n        /* \"#utility.yul\":400:454   */\n      and\n        /* \"#utility.yul\":389:454   */\n      swap1\n      pop\n        /* \"#utility.yul\":334:460   */\n      swap2\n      swap1\n      pop\n      jump\t// out\n        /* \"#utility.yul\":466:562   */\n    tag_196:\n        /* \"#utility.yul\":503:510   */\n      0x00\n        /* \"#utility.yul\":532:556   */\n      tag_281\n        /* \"#utility.yul\":550:555   */\n      dup3\n        /* \"#utility.yul\":532:556   */\n      tag_195\n      jump\t// in\n    tag_281:\n        /* \"#utility.yul\":521:556   */\n      swap1\n      pop\n        /* \"#utility.yul\":466:562   */\n      swap2\n      swap1\n      pop\n      jump\t// out\n        /* \"#utility.yul\":568:690   */\n    tag_197:\n        /* \"#utility.yul\":641:665   */\n      tag_283\n        /* \"#utility.yul\":659:664   */\n      dup2\n        /* \"#utility.yul\":641:665   */\n      tag_196\n      jump\t// in\n    tag_283:\n        /* \"#utility.yul\":634:639   */\n      dup2\n        /* \"#utility.yul\":631:666   */\n      eq\n        /* \"#utility.yul\":621:684   */\n      tag_284\n      jumpi\n        /* \"#utility.yul\":680:681   */\n      0x00\n        /* \"#utility.yul\":677:678   */\n      dup1\n        /* \"#utility.yul\":670:682   */\n      revert\n        /* \"#utility.yul\":621:684   */\n    tag_284:\n        /* \"#utility.yul\":568:690   */\n      pop\n      jump\t// out\n        /* \"#utility.yul\":696:835   */\n    tag_198:\n        /* \"#utility.yul\":742:747   */\n      0x00\n        /* \"#utility.yul\":780:786   */\n      dup2\n        /* \"#utility.yul\":767:787   */\n      calldataload\n        /* \"#utility.yul\":758:787   */\n      swap1\n      pop\n        /* \"#utility.yul\":796:829   */\n      tag_286\n        /* \"#utility.yul\":823:828   */\n      dup2\n        /* \"#utility.yul\":796:829   */\n      tag_197\n      jump\t// in\n    tag_286:\n        /* \"#utility.yul\":696:835   */\n      swap3\n      swap2\n      pop\n      pop\n      jump\t// out\n        /* \"#utility.yul\":841:958   */\n    tag_199:\n        /* \"#utility.yul\":950:951   */\n      0x00\n        /* \"#utility.yul\":947:948   */\n      dup1\n        /* \"#utility.yul\":940:952   */\n      revert\n        /* \"#utility.yul\":964:1081   */\n    tag_200:\n        /* \"#utility.yul\":1073:1074   */\n      0x00\n        /* \"#utility.yul\":1070:1071   */\n      dup1\n        /* \"#utility.yul\":1063:1075   */\n      revert\n        /* \"#utility.yul\":1087:1189   */\n    tag_201:\n        /* \"#utility.yul\":1128:1134   */\n      0x00\n        /* \"#utility.yul\":1179:1181   */\n      0x1f\n        /* \"#utility.yul\":1175:1182   */\n      not\n        /* \"#utility.yul\":1170:1172   */\n      0x1f\n        /* \"#utility.yul\":1163:1168   */\n      dup4\n        /* \"#utility.yul\":1159:1173   */\n      add\n        /* \"#utility.yul\":1155:1183   */\n      and\n        /* \"#utility.yul\":1145:1183   */\n      swap1\n      pop\n        /* \"#utility.yul\":1087:1189   */\n      swap2\n      swap1\n      pop\n      jump\t// out\n        /* \"#utility.yul\":1195:1375   */\n    tag_130:\n        /* \"#utility.yul\":1243:1320   */\n      0x4e487b7100000000000000000000000000000000000000000000000000000000\n        /* \"#utility.yul\":1240:1241   */\n      0x00\n        /* \"#utility.yul\":1233:1321   */\n      mstore\n        /* \"#utility.yul\":1340:1344   */\n      0x41\n        /* \"#utility.yul\":1337:1338   */\n      0x04\n        /* \"#utility.yul\":1330:1345   */\n      mstore\n        /* \"#utility.yul\":1364:1368   */\n      0x24\n        /* \"#utility.yul\":1361:1362   */\n      0x00\n        /* \"#utility.yul\":1354:1369   */\n      revert\n        /* \"#utility.yul\":1381:1662   */\n    tag_202:\n        /* \"#utility.yul\":1464:1491   */\n      tag_292\n        /* \"#utility.yul\":1486:1490   */\n      dup3\n        /* \"#utility.yul\":1464:1491   */\n      tag_201\n      jump\t// in\n    tag_292:\n        /* \"#utility.yul\":1456:1462   */\n      dup2\n        /* \"#utility.yul\":1452:1492   */\n      add\n        /* \"#utility.yul\":1594:1600   */\n      dup2\n        /* \"#utility.yul\":1582:1592   */\n      dup2\n        /* \"#utility.yul\":1579:1601   */\n      lt\n        /* \"#utility.yul\":1558:1576   */\n      0xffffffffffffffff\n        /* \"#utility.yul\":1546:1556   */\n      dup3\n        /* \"#utility.yul\":1543:1577   */\n      gt\n        /* \"#utility.yul\":1540:1602   */\n      or\n        /* \"#utility.yul\":1537:1625   */\n      iszero\n      tag_293\n      jumpi\n        /* \"#utility.yul\":1605:1623   */\n      tag_294\n      tag_130\n      jump\t// in\n    tag_294:\n        /* \"#utility.yul\":1537:1625   */\n    tag_293:\n        /* \"#utility.yul\":1645:1655   */\n      dup1\n        /* \"#utility.yul\":1641:1643   */\n      0x40\n        /* \"#utility.yul\":1634:1656   */\n      mstore\n        /* \"#utility.yul\":1424:1662   */\n      pop\n        /* \"#utility.yul\":1381:1662   */\n      pop\n      pop\n      jump\t// out\n        /* \"#utility.yul\":1668:1797   */\n    tag_203:\n        /* \"#utility.yul\":1702:1708   */\n      0x00\n        /* \"#utility.yul\":1729:1749   */\n      tag_296\n      tag_192\n      jump\t// in\n    tag_296:\n        /* \"#utility.yul\":1719:1749   */\n      swap1\n      pop\n        /* \"#utility.yul\":1758:1791   */\n      tag_297\n        /* \"#utility.yul\":1786:1790   */\n      dup3\n        /* \"#utility.yul\":1778:1784   */\n      dup3\n        /* \"#utility.yul\":1758:1791   */\n      tag_202\n      jump\t// in\n    tag_297:\n        /* \"#utility.yul\":1668:1797   */\n      swap2\n      swap1\n      pop\n      jump\t// out\n        /* \"#utility.yul\":1803:2111   */\n    tag_204:\n        /* \"#utility.yul\":1865:1869   */\n      0x00\n        /* \"#utility.yul\":1955:1973   */\n      0xffffffffffffffff\n        /* \"#utility.yul\":1947:1953   */\n      dup3\n        /* \"#utility.yul\":1944:1974   */\n      gt\n        /* \"#utility.yul\":1941:1997   */\n      iszero\n      tag_299\n      jumpi\n        /* \"#utility.yul\":1977:1995   */\n      tag_300\n      tag_130\n      jump\t// in\n    tag_300:\n        /* \"#utility.yul\":1941:1997   */\n    tag_299:\n        /* \"#utility.yul\":2015:2044   */\n      tag_301\n        /* \"#utility.yul\":2037:2043   */\n      dup3\n        /* \"#utility.yul\":2015:2044   */\n      tag_201\n      jump\t// in\n    tag_301:\n        /* \"#utility.yul\":2007:2044   */\n      swap1\n      pop\n        /* \"#utility.yul\":2099:2103   */\n      0x20\n        /* \"#utility.yul\":2093:2097   */\n      dup2\n        /* \"#utility.yul\":2089:2104   */\n      add\n        /* \"#utility.yul\":2081:2104   */\n      swap1\n      pop\n        /* \"#utility.yul\":1803:2111   */\n      swap2\n      swap1\n      pop\n      jump\t// out\n        /* \"#utility.yul\":2117:2271   */\n    tag_205:\n        /* \"#utility.yul\":2201:2207   */\n      dup3\n        /* \"#utility.yul\":2196:2199   */\n      dup2\n        /* \"#utility.yul\":2191:2194   */\n      dup4\n        /* \"#utility.yul\":2178:2208   */\n      calldatacopy\n        /* \"#utility.yul\":2263:2264   */\n      0x00\n        /* \"#utility.yul\":2254:2260   */\n      dup4\n        /* \"#utility.yul\":2249:2252   */\n      dup4\n        /* \"#utility.yul\":2245:2261   */\n      add\n        /* \"#utility.yul\":2238:2265   */\n      mstore\n        /* \"#utility.yul\":2117:2271   */\n      pop\n      pop\n      pop\n      jump\t// out\n        /* \"#utility.yul\":2277:2689   */\n    tag_206:\n        /* \"#utility.yul\":2355:2360   */\n      0x00\n        /* \"#utility.yul\":2380:2446   */\n      tag_304\n        /* \"#utility.yul\":2396:2445   */\n      tag_305\n        /* \"#utility.yul\":2438:2444   */\n      dup5\n        /* \"#utility.yul\":2396:2445   */\n      tag_204\n      jump\t// in\n    tag_305:\n        /* \"#utility.yul\":2380:2446   */\n      tag_203\n      jump\t// in\n    tag_304:\n        /* \"#utility.yul\":2371:2446   */\n      swap1\n      pop\n        /* \"#utility.yul\":2469:2475   */\n      dup3\n        /* \"#utility.yul\":2462:2467   */\n      dup2\n        /* \"#utility.yul\":2455:2476   */\n      mstore\n        /* \"#utility.yul\":2507:2511   */\n      0x20\n        /* \"#utility.yul\":2500:2505   */\n      dup2\n        /* \"#utility.yul\":2496:2512   */\n      add\n        /* \"#utility.yul\":2545:2548   */\n      dup5\n        /* \"#utility.yul\":2536:2542   */\n      dup5\n        /* \"#utility.yul\":2531:2534   */\n      dup5\n        /* \"#utility.yul\":2527:2543   */\n      add\n        /* \"#utility.yul\":2524:2549   */\n      gt\n        /* \"#utility.yul\":2521:2633   */\n      iszero\n      tag_306\n      jumpi\n        /* \"#utility.yul\":2552:2631   */\n      tag_307\n      tag_200\n      jump\t// in\n    tag_307:\n        /* \"#utility.yul\":2521:2633   */\n    tag_306:\n        /* \"#utility.yul\":2642:2683   */\n      tag_308\n        /* \"#utility.yul\":2676:2682   */\n      dup5\n        /* \"#utility.yul\":2671:2674   */\n      dup3\n        /* \"#utility.yul\":2666:2669   */\n      dup6\n        /* \"#utility.yul\":2642:2683   */\n      tag_205\n      jump\t// in\n    tag_308:\n        /* \"#utility.yul\":2361:2689   */\n      pop\n        /* \"#utility.yul\":2277:2689   */\n      swap4\n      swap3\n      pop\n      pop\n      pop\n      jump\t// out\n        /* \"#utility.yul\":2709:3049   */\n    tag_207:\n        /* \"#utility.yul\":2765:2770   */\n      0x00\n        /* \"#utility.yul\":2814:2817   */\n      dup3\n        /* \"#utility.yul\":2807:2811   */\n      0x1f\n        /* \"#utility.yul\":2799:2805   */\n      dup4\n        /* \"#utility.yul\":2795:2812   */\n      add\n        /* \"#utility.yul\":2791:2818   */\n      slt\n        /* \"#utility.yul\":2781:2903   */\n      tag_310\n      jumpi\n        /* \"#utility.yul\":2822:2901   */\n      tag_311\n      tag_199\n      jump\t// in\n    tag_311:\n        /* \"#utility.yul\":2781:2903   */\n    tag_310:\n        /* \"#utility.yul\":2939:2945   */\n      dup2\n        /* \"#utility.yul\":2926:2946   */\n      calldataload\n        /* \"#utility.yul\":2964:3043   */\n      tag_312\n        /* \"#utility.yul\":3039:3042   */\n      dup5\n        /* \"#utility.yul\":3031:3037   */\n      dup3\n        /* \"#utility.yul\":3024:3028   */\n      0x20\n        /* \"#utility.yul\":3016:3022   */\n      dup7\n        /* \"#utility.yul\":3012:3029   */\n      add\n        /* \"#utility.yul\":2964:3043   */\n      tag_206\n      jump\t// in\n    tag_312:\n        /* \"#utility.yul\":2955:3043   */\n      swap2\n      pop\n        /* \"#utility.yul\":2771:3049   */\n      pop\n        /* \"#utility.yul\":2709:3049   */\n      swap3\n      swap2\n      pop\n      pop\n      jump\t// out\n        /* \"#utility.yul\":3055:3132   */\n    tag_208:\n        /* \"#utility.yul\":3092:3099   */\n      0x00\n        /* \"#utility.yul\":3121:3126   */\n      dup2\n        /* \"#utility.yul\":3110:3126   */\n      swap1\n      pop\n        /* \"#utility.yul\":3055:3132   */\n      swap2\n      swap1\n      pop\n      jump\t// out\n        /* \"#utility.yul\":3138:3260   */\n    tag_209:\n        /* \"#utility.yul\":3211:3235   */\n      tag_315\n        /* \"#utility.yul\":3229:3234   */\n      dup2\n        /* \"#utility.yul\":3211:3235   */\n      tag_208\n      jump\t// in\n    tag_315:\n        /* \"#utility.yul\":3204:3209   */\n      dup2\n        /* \"#utility.yul\":3201:3236   */\n      eq\n        /* \"#utility.yul\":3191:3254   */\n      tag_316\n      jumpi\n        /* \"#utility.yul\":3250:3251   */\n      0x00\n        /* \"#utility.yul\":3247:3248   */\n      dup1\n        /* \"#utility.yul\":3240:3252   */\n      revert\n        /* \"#utility.yul\":3191:3254   */\n    tag_316:\n        /* \"#utility.yul\":3138:3260   */\n      pop\n      jump\t// out\n        /* \"#utility.yul\":3266:3405   */\n    tag_210:\n        /* \"#utility.yul\":3312:3317   */\n      0x00\n        /* \"#utility.yul\":3350:3356   */\n      dup2\n        /* \"#utility.yul\":3337:3357   */\n      calldataload\n        /* \"#utility.yul\":3328:3357   */\n      swap1\n      pop\n        /* \"#utility.yul\":3366:3399   */\n      tag_318\n        /* \"#utility.yul\":3393:3398   */\n      dup2\n        /* \"#utility.yul\":3366:3399   */\n      tag_209\n      jump\t// in\n    tag_318:\n        /* \"#utility.yul\":3266:3405   */\n      swap3\n      swap2\n      pop\n      pop\n      jump\t// out\n        /* \"#utility.yul\":3411:4356   */\n    tag_20:\n        /* \"#utility.yul\":3507:3513   */\n      0x00\n        /* \"#utility.yul\":3515:3521   */\n      dup1\n        /* \"#utility.yul\":3523:3529   */\n      0x00\n        /* \"#utility.yul\":3531:3537   */\n      dup1\n        /* \"#utility.yul\":3580:3583   */\n      0x80\n        /* \"#utility.yul\":3568:3577   */\n      dup6\n        /* \"#utility.yul\":3559:3566   */\n      dup8\n        /* \"#utility.yul\":3555:3578   */\n      sub\n        /* \"#utility.yul\":3551:3584   */\n      slt\n        /* \"#utility.yul\":3548:3668   */\n      iszero\n      tag_320\n      jumpi\n        /* \"#utility.yul\":3587:3666   */\n      tag_321\n      tag_193\n      jump\t// in\n    tag_321:\n        /* \"#utility.yul\":3548:3668   */\n    tag_320:\n        /* \"#utility.yul\":3707:3708   */\n      0x00\n        /* \"#utility.yul\":3732:3785   */\n      tag_322\n        /* \"#utility.yul\":3777:3784   */\n      dup8\n        /* \"#utility.yul\":3768:3774   */\n      dup3\n        /* \"#utility.yul\":3757:3766   */\n      dup9\n        /* \"#utility.yul\":3753:3775   */\n      add\n        /* \"#utility.yul\":3732:3785   */\n      tag_198\n      jump\t// in\n    tag_322:\n        /* \"#utility.yul\":3722:3785   */\n      swap5\n      pop\n        /* \"#utility.yul\":3678:3795   */\n      pop\n        /* \"#utility.yul\":3862:3864   */\n      0x20\n        /* \"#utility.yul\":3851:3860   */\n      dup6\n        /* \"#utility.yul\":3847:3865   */\n      add\n        /* \"#utility.yul\":3834:3866   */\n      calldataload\n        /* \"#utility.yul\":3893:3911   */\n      0xffffffffffffffff\n        /* \"#utility.yul\":3885:3891   */\n      dup2\n        /* \"#utility.yul\":3882:3912   */\n      gt\n        /* \"#utility.yul\":3879:3996   */\n      iszero\n      tag_323\n      jumpi\n        /* \"#utility.yul\":3915:3994   */\n      tag_324\n      tag_194\n      jump\t// in\n    tag_324:\n        /* \"#utility.yul\":3879:3996   */\n    tag_323:\n        /* \"#utility.yul\":4020:4083   */\n      tag_325\n        /* \"#utility.yul\":4075:4082   */\n      dup8\n        /* \"#utility.yul\":4066:4072   */\n      dup3\n        /* \"#utility.yul\":4055:4064   */\n      dup9\n        /* \"#utility.yul\":4051:4073   */\n      add\n        /* \"#utility.yul\":4020:4083   */\n      tag_207\n      jump\t// in\n    tag_325:\n        /* \"#utility.yul\":4010:4083   */\n      swap4\n      pop\n        /* \"#utility.yul\":3805:4093   */\n      pop\n        /* \"#utility.yul\":4132:4134   */\n      0x40\n        /* \"#utility.yul\":4158:4211   */\n      tag_326\n        /* \"#utility.yul\":4203:4210   */\n      dup8\n        /* \"#utility.yul\":4194:4200   */\n      dup3\n        /* \"#utility.yul\":4183:4192   */\n      dup9\n        /* \"#utility.yul\":4179:4201   */\n      add\n        /* \"#utility.yul\":4158:4211   */\n      tag_210\n      jump\t// in\n    tag_326:\n        /* \"#utility.yul\":4148:4211   */\n      swap3\n      pop\n        /* \"#utility.yul\":4103:4221   */\n      pop\n        /* \"#utility.yul\":4260:4262   */\n      0x60\n        /* \"#utility.yul\":4286:4339   */\n      tag_327\n        /* \"#utility.yul\":4331:4338   */\n      dup8\n        /* \"#utility.yul\":4322:4328   */\n      dup3\n        /* \"#utility.yul\":4311:4320   */\n      dup9\n        /* \"#utility.yul\":4307:4329   */\n      add\n        /* \"#utility.yul\":4286:4339   */\n      tag_210\n      jump\t// in\n    tag_327:\n        /* \"#utility.yul\":4276:4339   */\n      swap2\n      pop\n        /* \"#utility.yul\":4231:4349   */\n      pop\n        /* \"#utility.yul\":3411:4356   */\n      swap3\n      swap6\n      swap2\n      swap5\n      pop\n      swap3\n      pop\n      jump\t// out\n        /* \"#utility.yul\":4362:4439   */\n    tag_211:\n        /* \"#utility.yul\":4399:4406   */\n      0x00\n        /* \"#utility.yul\":4428:4433   */\n      dup2\n        /* \"#utility.yul\":4417:4433   */\n      swap1\n      pop\n        /* \"#utility.yul\":4362:4439   */\n      swap2\n      swap1\n      pop\n      jump\t// out\n        /* \"#utility.yul\":4445:4563   */\n    tag_212:\n        /* \"#utility.yul\":4532:4556   */\n      tag_330\n        /* \"#utility.yul\":4550:4555   */\n      dup2\n        /* \"#utility.yul\":4532:4556   */\n      tag_211\n      jump\t// in\n    tag_330:\n        /* \"#utility.yul\":4527:4530   */\n      dup3\n        /* \"#utility.yul\":4520:4557   */\n      mstore\n        /* \"#utility.yul\":4445:4563   */\n      pop\n      pop\n      jump\t// out\n        /* \"#utility.yul\":4569:4791   */\n    tag_23:\n        /* \"#utility.yul\":4662:4666   */\n      0x00\n        /* \"#utility.yul\":4700:4702   */\n      0x20\n        /* \"#utility.yul\":4689:4698   */\n      dup3\n        /* \"#utility.yul\":4685:4703   */\n      add\n        /* \"#utility.yul\":4677:4703   */\n      swap1\n      pop\n        /* \"#utility.yul\":4713:4784   */\n      tag_332\n        /* \"#utility.yul\":4781:4782   */\n      0x00\n        /* \"#utility.yul\":4770:4779   */\n      dup4\n        /* \"#utility.yul\":4766:4783   */\n      add\n        /* \"#utility.yul\":4757:4763   */\n      dup5\n        /* \"#utility.yul\":4713:4784   */\n      tag_212\n      jump\t// in\n    tag_332:\n        /* \"#utility.yul\":4569:4791   */\n      swap3\n      swap2\n      pop\n      pop\n      jump\t// out\n        /* \"#utility.yul\":4797:4886   */\n    tag_213:\n        /* \"#utility.yul\":4833:4840   */\n      0x00\n        /* \"#utility.yul\":4873:4879   */\n      0xffff\n        /* \"#utility.yul\":4866:4871   */\n      dup3\n        /* \"#utility.yul\":4862:4880   */\n      and\n        /* \"#utility.yul\":4851:4880   */\n      swap1\n      pop\n        /* \"#utility.yul\":4797:4886   */\n      swap2\n      swap1\n      pop\n      jump\t// out\n        /* \"#utility.yul\":4892:5012   */\n    tag_214:\n        /* \"#utility.yul\":4964:4987   */\n      tag_335\n        /* \"#utility.yul\":4981:4986   */\n      dup2\n        /* \"#utility.yul\":4964:4987   */\n      tag_213\n      jump\t// in\n    tag_335:\n        /* \"#utility.yul\":4957:4962   */\n      dup2\n        /* \"#utility.yul\":4954:4988   */\n      eq\n        /* \"#utility.yul\":4944:5006   */\n      tag_336\n      jumpi\n        /* \"#utility.yul\":5002:5003   */\n      0x00\n        /* \"#utility.yul\":4999:5000   */\n      dup1\n        /* \"#utility.yul\":4992:5004   */\n      revert\n        /* \"#utility.yul\":4944:5006   */\n    tag_336:\n        /* \"#utility.yul\":4892:5012   */\n      pop\n      jump\t// out\n        /* \"#utility.yul\":5018:5155   */\n    tag_215:\n        /* \"#utility.yul\":5063:5068   */\n      0x00\n        /* \"#utility.yul\":5101:5107   */\n      dup2\n        /* \"#utility.yul\":5088:5108   */\n      calldataload\n        /* \"#utility.yul\":5079:5108   */\n      swap1\n      pop\n        /* \"#utility.yul\":5117:5149   */\n      tag_338\n        /* \"#utility.yul\":5143:5148   */\n      dup2\n        /* \"#utility.yul\":5117:5149   */\n      tag_214\n      jump\t// in\n    tag_338:\n        /* \"#utility.yul\":5018:5155   */\n      swap3\n      swap2\n      pop\n      pop\n      jump\t// out\n        /* \"#utility.yul\":5161:5813   */\n    tag_27:\n        /* \"#utility.yul\":5238:5244   */\n      0x00\n        /* \"#utility.yul\":5246:5252   */\n      dup1\n        /* \"#utility.yul\":5295:5297   */\n      0x40\n        /* \"#utility.yul\":5283:5292   */\n      dup4\n        /* \"#utility.yul\":5274:5281   */\n      dup6\n        /* \"#utility.yul\":5270:5293   */\n      sub\n        /* \"#utility.yul\":5266:5298   */\n      slt\n        /* \"#utility.yul\":5263:5382   */\n      iszero\n      tag_340\n      jumpi\n        /* \"#utility.yul\":5301:5380   */\n      tag_341\n      tag_193\n      jump\t// in\n    tag_341:\n        /* \"#utility.yul\":5263:5382   */\n    tag_340:\n        /* \"#utility.yul\":5449:5450   */\n      0x00\n        /* \"#utility.yul\":5438:5447   */\n      dup4\n        /* \"#utility.yul\":5434:5451   */\n      add\n        /* \"#utility.yul\":5421:5452   */\n      calldataload\n        /* \"#utility.yul\":5479:5497   */\n      0xffffffffffffffff\n        /* \"#utility.yul\":5471:5477   */\n      dup2\n        /* \"#utility.yul\":5468:5498   */\n      gt\n        /* \"#utility.yul\":5465:5582   */\n      iszero\n      tag_342\n      jumpi\n        /* \"#utility.yul\":5501:5580   */\n      tag_343\n      tag_194\n      jump\t// in\n    tag_343:\n        /* \"#utility.yul\":5465:5582   */\n    tag_342:\n        /* \"#utility.yul\":5606:5669   */\n      tag_344\n        /* \"#utility.yul\":5661:5668   */\n      dup6\n        /* \"#utility.yul\":5652:5658   */\n      dup3\n        /* \"#utility.yul\":5641:5650   */\n      dup7\n        /* \"#utility.yul\":5637:5659   */\n      add\n        /* \"#utility.yul\":5606:5669   */\n      tag_207\n      jump\t// in\n    tag_344:\n        /* \"#utility.yul\":5596:5669   */\n      swap3\n      pop\n        /* \"#utility.yul\":5392:5679   */\n      pop\n        /* \"#utility.yul\":5718:5720   */\n      0x20\n        /* \"#utility.yul\":5744:5796   */\n      tag_345\n        /* \"#utility.yul\":5788:5795   */\n      dup6\n        /* \"#utility.yul\":5779:5785   */\n      dup3\n        /* \"#utility.yul\":5768:5777   */\n      dup7\n        /* \"#utility.yul\":5764:5786   */\n      add\n        /* \"#utility.yul\":5744:5796   */\n      tag_215\n      jump\t// in\n    tag_345:\n        /* \"#utility.yul\":5734:5796   */\n      swap2\n      pop\n        /* \"#utility.yul\":5689:5806   */\n      pop\n        /* \"#utility.yul\":5161:5813   */\n      swap3\n      pop\n      swap3\n      swap1\n      pop\n      jump\t// out\n        /* \"#utility.yul\":5819:5918   */\n    tag_216:\n        /* \"#utility.yul\":5871:5877   */\n      0x00\n        /* \"#utility.yul\":5905:5910   */\n      dup2\n        /* \"#utility.yul\":5899:5911   */\n      mload\n        /* \"#utility.yul\":5889:5911   */\n      swap1\n      pop\n        /* \"#utility.yul\":5819:5918   */\n      swap2\n      swap1\n      pop\n      jump\t// out\n        /* \"#utility.yul\":5924:6093   */\n    tag_217:\n        /* \"#utility.yul\":6008:6019   */\n      0x00\n        /* \"#utility.yul\":6042:6048   */\n      dup3\n        /* \"#utility.yul\":6037:6040   */\n      dup3\n        /* \"#utility.yul\":6030:6049   */\n      mstore\n        /* \"#utility.yul\":6082:6086   */\n      0x20\n        /* \"#utility.yul\":6077:6080   */\n      dup3\n        /* \"#utility.yul\":6073:6087   */\n      add\n        /* \"#utility.yul\":6058:6087   */\n      swap1\n      pop\n        /* \"#utility.yul\":5924:6093   */\n      swap3\n      swap2\n      pop\n      pop\n      jump\t// out\n        /* \"#utility.yul\":6099:6406   */\n    tag_218:\n        /* \"#utility.yul\":6167:6168   */\n      0x00\n        /* \"#utility.yul\":6177:6290   */\n    tag_349:\n        /* \"#utility.yul\":6191:6197   */\n      dup4\n        /* \"#utility.yul\":6188:6189   */\n      dup2\n        /* \"#utility.yul\":6185:6198   */\n      lt\n        /* \"#utility.yul\":6177:6290   */\n      iszero\n      tag_351\n      jumpi\n        /* \"#utility.yul\":6276:6277   */\n      dup1\n        /* \"#utility.yul\":6271:6274   */\n      dup3\n        /* \"#utility.yul\":6267:6278   */\n      add\n        /* \"#utility.yul\":6261:6279   */\n      mload\n        /* \"#utility.yul\":6257:6258   */\n      dup2\n        /* \"#utility.yul\":6252:6255   */\n      dup5\n        /* \"#utility.yul\":6248:6259   */\n      add\n        /* \"#utility.yul\":6241:6280   */\n      mstore\n        /* \"#utility.yul\":6213:6215   */\n      0x20\n        /* \"#utility.yul\":6210:6211   */\n      dup2\n        /* \"#utility.yul\":6206:6216   */\n      add\n        /* \"#utility.yul\":6201:6216   */\n      swap1\n      pop\n        /* \"#utility.yul\":6177:6290   */\n      jump(tag_349)\n    tag_351:\n        /* \"#utility.yul\":6308:6314   */\n      dup4\n        /* \"#utility.yul\":6305:6306   */\n      dup2\n        /* \"#utility.yul\":6302:6315   */\n      gt\n        /* \"#utility.yul\":6299:6400   */\n      iszero\n      tag_352\n      jumpi\n        /* \"#utility.yul\":6388:6389   */\n      0x00\n        /* \"#utility.yul\":6379:6385   */\n      dup5\n        /* \"#utility.yul\":6374:6377   */\n      dup5\n        /* \"#utility.yul\":6370:6386   */\n      add\n        /* \"#utility.yul\":6363:6390   */\n      mstore\n        /* \"#utility.yul\":6299:6400   */\n    tag_352:\n        /* \"#utility.yul\":6148:6406   */\n      pop\n        /* \"#utility.yul\":6099:6406   */\n      pop\n      pop\n      pop\n      jump\t// out\n        /* \"#utility.yul\":6412:6776   */\n    tag_219:\n        /* \"#utility.yul\":6500:6503   */\n      0x00\n        /* \"#utility.yul\":6528:6567   */\n      tag_354\n        /* \"#utility.yul\":6561:6566   */\n      dup3\n        /* \"#utility.yul\":6528:6567   */\n      tag_216\n      jump\t// in\n    tag_354:\n        /* \"#utility.yul\":6583:6654   */\n      tag_355\n        /* \"#utility.yul\":6647:6653   */\n      dup2\n        /* \"#utility.yul\":6642:6645   */\n      dup6\n        /* \"#utility.yul\":6583:6654   */\n      tag_217\n      jump\t// in\n    tag_355:\n        /* \"#utility.yul\":6576:6654   */\n      swap4\n      pop\n        /* \"#utility.yul\":6663:6715   */\n      tag_356\n        /* \"#utility.yul\":6708:6714   */\n      dup2\n        /* \"#utility.yul\":6703:6706   */\n      dup6\n        /* \"#utility.yul\":6696:6700   */\n      0x20\n        /* \"#utility.yul\":6689:6694   */\n      dup7\n        /* \"#utility.yul\":6685:6701   */\n      add\n        /* \"#utility.yul\":6663:6715   */\n      tag_218\n      jump\t// in\n    tag_356:\n        /* \"#utility.yul\":6740:6769   */\n      tag_357\n        /* \"#utility.yul\":6762:6768   */\n      dup2\n        /* \"#utility.yul\":6740:6769   */\n      tag_201\n      jump\t// in\n    tag_357:\n        /* \"#utility.yul\":6735:6738   */\n      dup5\n        /* \"#utility.yul\":6731:6770   */\n      add\n        /* \"#utility.yul\":6724:6770   */\n      swap2\n      pop\n        /* \"#utility.yul\":6504:6776   */\n      pop\n        /* \"#utility.yul\":6412:6776   */\n      swap3\n      swap2\n      pop\n      pop\n      jump\t// out\n        /* \"#utility.yul\":6782:6900   */\n    tag_220:\n        /* \"#utility.yul\":6869:6893   */\n      tag_359\n        /* \"#utility.yul\":6887:6892   */\n      dup2\n        /* \"#utility.yul\":6869:6893   */\n      tag_208\n      jump\t// in\n    tag_359:\n        /* \"#utility.yul\":6864:6867   */\n      dup3\n        /* \"#utility.yul\":6857:6894   */\n      mstore\n        /* \"#utility.yul\":6782:6900   */\n      pop\n      pop\n      jump\t// out\n        /* \"#utility.yul\":6906:7329   */\n    tag_30:\n        /* \"#utility.yul\":7047:7051   */\n      0x00\n        /* \"#utility.yul\":7085:7087   */\n      0x40\n        /* \"#utility.yul\":7074:7083   */\n      dup3\n        /* \"#utility.yul\":7070:7088   */\n      add\n        /* \"#utility.yul\":7062:7088   */\n      swap1\n      pop\n        /* \"#utility.yul\":7134:7143   */\n      dup2\n        /* \"#utility.yul\":7128:7132   */\n      dup2\n        /* \"#utility.yul\":7124:7144   */\n      sub\n        /* \"#utility.yul\":7120:7121   */\n      0x00\n        /* \"#utility.yul\":7109:7118   */\n      dup4\n        /* \"#utility.yul\":7105:7122   */\n      add\n        /* \"#utility.yul\":7098:7145   */\n      mstore\n        /* \"#utility.yul\":7162:7240   */\n      tag_361\n        /* \"#utility.yul\":7235:7239   */\n      dup2\n        /* \"#utility.yul\":7226:7232   */\n      dup6\n        /* \"#utility.yul\":7162:7240   */\n      tag_219\n      jump\t// in\n    tag_361:\n        /* \"#utility.yul\":7154:7240   */\n      swap1\n      pop\n        /* \"#utility.yul\":7250:7322   */\n      tag_362\n        /* \"#utility.yul\":7318:7320   */\n      0x20\n        /* \"#utility.yul\":7307:7316   */\n      dup4\n        /* \"#utility.yul\":7303:7321   */\n      add\n        /* \"#utility.yul\":7294:7300   */\n      dup5\n        /* \"#utility.yul\":7250:7322   */\n      tag_220\n      jump\t// in\n    tag_362:\n        /* \"#utility.yul\":6906:7329   */\n      swap4\n      swap3\n      pop\n      pop\n      pop\n      jump\t// out\n        /* \"#utility.yul\":7335:7642   */\n    tag_221:\n        /* \"#utility.yul\":7396:7400   */\n      0x00\n        /* \"#utility.yul\":7486:7504   */\n      0xffffffffffffffff\n        /* \"#utility.yul\":7478:7484   */\n      dup3\n        /* \"#utility.yul\":7475:7505   */\n      gt\n        /* \"#utility.yul\":7472:7528   */\n      iszero\n      tag_364\n      jumpi\n        /* \"#utility.yul\":7508:7526   */\n      tag_365\n      tag_130\n      jump\t// in\n    tag_365:\n        /* \"#utility.yul\":7472:7528   */\n    tag_364:\n        /* \"#utility.yul\":7546:7575   */\n      tag_366\n        /* \"#utility.yul\":7568:7574   */\n      dup3\n        /* \"#utility.yul\":7546:7575   */\n      tag_201\n      jump\t// in\n    tag_366:\n        /* \"#utility.yul\":7538:7575   */\n      swap1\n      pop\n        /* \"#utility.yul\":7630:7634   */\n      0x20\n        /* \"#utility.yul\":7624:7628   */\n      dup2\n        /* \"#utility.yul\":7620:7635   */\n      add\n        /* \"#utility.yul\":7612:7635   */\n      swap1\n      pop\n        /* \"#utility.yul\":7335:7642   */\n      swap2\n      swap1\n      pop\n      jump\t// out\n        /* \"#utility.yul\":7648:8058   */\n    tag_222:\n        /* \"#utility.yul\":7725:7730   */\n      0x00\n        /* \"#utility.yul\":7750:7815   */\n      tag_368\n        /* \"#utility.yul\":7766:7814   */\n      tag_369\n        /* \"#utility.yul\":7807:7813   */\n      dup5\n        /* \"#utility.yul\":7766:7814   */\n      tag_221\n      jump\t// in\n    tag_369:\n        /* \"#utility.yul\":7750:7815   */\n      tag_203\n      jump\t// in\n    tag_368:\n        /* \"#utility.yul\":7741:7815   */\n      swap1\n      pop\n        /* \"#utility.yul\":7838:7844   */\n      dup3\n        /* \"#utility.yul\":7831:7836   */\n      dup2\n        /* \"#utility.yul\":7824:7845   */\n      mstore\n        /* \"#utility.yul\":7876:7880   */\n      0x20\n        /* \"#utility.yul\":7869:7874   */\n      dup2\n        /* \"#utility.yul\":7865:7881   */\n      add\n        /* \"#utility.yul\":7914:7917   */\n      dup5\n        /* \"#utility.yul\":7905:7911   */\n      dup5\n        /* \"#utility.yul\":7900:7903   */\n      dup5\n        /* \"#utility.yul\":7896:7912   */\n      add\n        /* \"#utility.yul\":7893:7918   */\n      gt\n        /* \"#utility.yul\":7890:8002   */\n      iszero\n      tag_370\n      jumpi\n        /* \"#utility.yul\":7921:8000   */\n      tag_371\n      tag_200\n      jump\t// in\n    tag_371:\n        /* \"#utility.yul\":7890:8002   */\n    tag_370:\n        /* \"#utility.yul\":8011:8052   */\n      tag_372\n        /* \"#utility.yul\":8045:8051   */\n      dup5\n        /* \"#utility.yul\":8040:8043   */\n      dup3\n        /* \"#utility.yul\":8035:8038   */\n      dup6\n        /* \"#utility.yul\":8011:8052   */\n      tag_205\n      jump\t// in\n    tag_372:\n        /* \"#utility.yul\":7731:8058   */\n      pop\n        /* \"#utility.yul\":7648:8058   */\n      swap4\n      swap3\n      pop\n      pop\n      pop\n      jump\t// out\n        /* \"#utility.yul\":8077:8415   */\n    tag_223:\n        /* \"#utility.yul\":8132:8137   */\n      0x00\n        /* \"#utility.yul\":8181:8184   */\n      dup3\n        /* \"#utility.yul\":8174:8178   */\n      0x1f\n        /* \"#utility.yul\":8166:8172   */\n      dup4\n        /* \"#utility.yul\":8162:8179   */\n      add\n        /* \"#utility.yul\":8158:8185   */\n      slt\n        /* \"#utility.yul\":8148:8270   */\n      tag_374\n      jumpi\n        /* \"#utility.yul\":8189:8268   */\n      tag_375\n      tag_199\n      jump\t// in\n    tag_375:\n        /* \"#utility.yul\":8148:8270   */\n    tag_374:\n        /* \"#utility.yul\":8306:8312   */\n      dup2\n        /* \"#utility.yul\":8293:8313   */\n      calldataload\n        /* \"#utility.yul\":8331:8409   */\n      tag_376\n        /* \"#utility.yul\":8405:8408   */\n      dup5\n        /* \"#utility.yul\":8397:8403   */\n      dup3\n        /* \"#utility.yul\":8390:8394   */\n      0x20\n        /* \"#utility.yul\":8382:8388   */\n      dup7\n        /* \"#utility.yul\":8378:8395   */\n      add\n        /* \"#utility.yul\":8331:8409   */\n      tag_222\n      jump\t// in\n    tag_376:\n        /* \"#utility.yul\":8322:8409   */\n      swap2\n      pop\n        /* \"#utility.yul\":8138:8415   */\n      pop\n        /* \"#utility.yul\":8077:8415   */\n      swap3\n      swap2\n      pop\n      pop\n      jump\t// out\n        /* \"#utility.yul\":8421:9544   */\n    tag_34:\n        /* \"#utility.yul\":8526:8532   */\n      0x00\n        /* \"#utility.yul\":8534:8540   */\n      dup1\n        /* \"#utility.yul\":8542:8548   */\n      0x00\n        /* \"#utility.yul\":8550:8556   */\n      dup1\n        /* \"#utility.yul\":8599:8602   */\n      0x80\n        /* \"#utility.yul\":8587:8596   */\n      dup6\n        /* \"#utility.yul\":8578:8585   */\n      dup8\n        /* \"#utility.yul\":8574:8597   */\n      sub\n        /* \"#utility.yul\":8570:8603   */\n      slt\n        /* \"#utility.yul\":8567:8687   */\n      iszero\n      tag_378\n      jumpi\n        /* \"#utility.yul\":8606:8685   */\n      tag_379\n      tag_193\n      jump\t// in\n    tag_379:\n        /* \"#utility.yul\":8567:8687   */\n    tag_378:\n        /* \"#utility.yul\":8726:8727   */\n      0x00\n        /* \"#utility.yul\":8751:8804   */\n      tag_380\n        /* \"#utility.yul\":8796:8803   */\n      dup8\n        /* \"#utility.yul\":8787:8793   */\n      dup3\n        /* \"#utility.yul\":8776:8785   */\n      dup9\n        /* \"#utility.yul\":8772:8794   */\n      add\n        /* \"#utility.yul\":8751:8804   */\n      tag_198\n      jump\t// in\n    tag_380:\n        /* \"#utility.yul\":8741:8804   */\n      swap5\n      pop\n        /* \"#utility.yul\":8697:8814   */\n      pop\n        /* \"#utility.yul\":8881:8883   */\n      0x20\n        /* \"#utility.yul\":8870:8879   */\n      dup6\n        /* \"#utility.yul\":8866:8884   */\n      add\n        /* \"#utility.yul\":8853:8885   */\n      calldataload\n        /* \"#utility.yul\":8912:8930   */\n      0xffffffffffffffff\n        /* \"#utility.yul\":8904:8910   */\n      dup2\n        /* \"#utility.yul\":8901:8931   */\n      gt\n        /* \"#utility.yul\":8898:9015   */\n      iszero\n      tag_381\n      jumpi\n        /* \"#utility.yul\":8934:9013   */\n      tag_382\n      tag_194\n      jump\t// in\n    tag_382:\n        /* \"#utility.yul\":8898:9015   */\n    tag_381:\n        /* \"#utility.yul\":9039:9102   */\n      tag_383\n        /* \"#utility.yul\":9094:9101   */\n      dup8\n        /* \"#utility.yul\":9085:9091   */\n      dup3\n        /* \"#utility.yul\":9074:9083   */\n      dup9\n        /* \"#utility.yul\":9070:9092   */\n      add\n        /* \"#utility.yul\":9039:9102   */\n      tag_207\n      jump\t// in\n    tag_383:\n        /* \"#utility.yul\":9029:9102   */\n      swap4\n      pop\n        /* \"#utility.yul\":8824:9112   */\n      pop\n        /* \"#utility.yul\":9151:9153   */\n      0x40\n        /* \"#utility.yul\":9177:9230   */\n      tag_384\n        /* \"#utility.yul\":9222:9229   */\n      dup8\n        /* \"#utility.yul\":9213:9219   */\n      dup3\n        /* \"#utility.yul\":9202:9211   */\n      dup9\n        /* \"#utility.yul\":9198:9220   */\n      add\n        /* \"#utility.yul\":9177:9230   */\n      tag_210\n      jump\t// in\n    tag_384:\n        /* \"#utility.yul\":9167:9230   */\n      swap3\n      pop\n        /* \"#utility.yul\":9122:9240   */\n      pop\n        /* \"#utility.yul\":9307:9309   */\n      0x60\n        /* \"#utility.yul\":9296:9305   */\n      dup6\n        /* \"#utility.yul\":9292:9310   */\n      add\n        /* \"#utility.yul\":9279:9311   */\n      calldataload\n        /* \"#utility.yul\":9338:9356   */\n      0xffffffffffffffff\n        /* \"#utility.yul\":9330:9336   */\n      dup2\n        /* \"#utility.yul\":9327:9357   */\n      gt\n        /* \"#utility.yul\":9324:9441   */\n      iszero\n      tag_385\n      jumpi\n        /* \"#utility.yul\":9360:9439   */\n      tag_386\n      tag_194\n      jump\t// in\n    tag_386:\n        /* \"#utility.yul\":9324:9441   */\n    tag_385:\n        /* \"#utility.yul\":9465:9527   */\n      tag_387\n        /* \"#utility.yul\":9519:9526   */\n      dup8\n        /* \"#utility.yul\":9510:9516   */\n      dup3\n        /* \"#utility.yul\":9499:9508   */\n      dup9\n        /* \"#utility.yul\":9495:9517   */\n      add\n        /* \"#utility.yul\":9465:9527   */\n      tag_223\n      jump\t// in\n    tag_387:\n        /* \"#utility.yul\":9455:9527   */\n      swap2\n      pop\n        /* \"#utility.yul\":9250:9537   */\n      pop\n        /* \"#utility.yul\":8421:9544   */\n      swap3\n      swap6\n      swap2\n      swap5\n      pop\n      swap3\n      pop\n      jump\t// out\n        /* \"#utility.yul\":9550:10059   */\n    tag_39:\n        /* \"#utility.yul\":9619:9625   */\n      0x00\n        /* \"#utility.yul\":9668:9670   */\n      0x20\n        /* \"#utility.yul\":9656:9665   */\n      dup3\n        /* \"#utility.yul\":9647:9654   */\n      dup5\n        /* \"#utility.yul\":9643:9666   */\n      sub\n        /* \"#utility.yul\":9639:9671   */\n      slt\n        /* \"#utility.yul\":9636:9755   */\n      iszero\n      tag_389\n      jumpi\n        /* \"#utility.yul\":9674:9753   */\n      tag_390\n      tag_193\n      jump\t// in\n    tag_390:\n        /* \"#utility.yul\":9636:9755   */\n    tag_389:\n        /* \"#utility.yul\":9822:9823   */\n      0x00\n        /* \"#utility.yul\":9811:9820   */\n      dup3\n        /* \"#utility.yul\":9807:9824   */\n      add\n        /* \"#utility.yul\":9794:9825   */\n      calldataload\n        /* \"#utility.yul\":9852:9870   */\n      0xffffffffffffffff\n        /* \"#utility.yul\":9844:9850   */\n      dup2\n        /* \"#utility.yul\":9841:9871   */\n      gt\n        /* \"#utility.yul\":9838:9955   */\n      iszero\n      tag_391\n      jumpi\n        /* \"#utility.yul\":9874:9953   */\n      tag_392\n      tag_194\n      jump\t// in\n    tag_392:\n        /* \"#utility.yul\":9838:9955   */\n    tag_391:\n        /* \"#utility.yul\":9979:10042   */\n      tag_393\n        /* \"#utility.yul\":10034:10041   */\n      dup5\n        /* \"#utility.yul\":10025:10031   */\n      dup3\n        /* \"#utility.yul\":10014:10023   */\n      dup6\n        /* \"#utility.yul\":10010:10032   */\n      add\n        /* \"#utility.yul\":9979:10042   */\n      tag_207\n      jump\t// in\n    tag_393:\n        /* \"#utility.yul\":9969:10042   */\n      swap2\n      pop\n        /* \"#utility.yul\":9765:10052   */\n      pop\n        /* \"#utility.yul\":9550:10059   */\n      swap3\n      swap2\n      pop\n      pop\n      jump\t// out\n        /* \"#utility.yul\":10065:10183   */\n    tag_224:\n        /* \"#utility.yul\":10152:10176   */\n      tag_395\n        /* \"#utility.yul\":10170:10175   */\n      dup2\n        /* \"#utility.yul\":10152:10176   */\n      tag_196\n      jump\t// in\n    tag_395:\n        /* \"#utility.yul\":10147:10150   */\n      dup3\n        /* \"#utility.yul\":10140:10177   */\n      mstore\n        /* \"#utility.yul\":10065:10183   */\n      pop\n      pop\n      jump\t// out\n        /* \"#utility.yul\":10189:10521   */\n    tag_42:\n        /* \"#utility.yul\":10310:10314   */\n      0x00\n        /* \"#utility.yul\":10348:10350   */\n      0x40\n        /* \"#utility.yul\":10337:10346   */\n      dup3\n        /* \"#utility.yul\":10333:10351   */\n      add\n        /* \"#utility.yul\":10325:10351   */\n      swap1\n      pop\n        /* \"#utility.yul\":10361:10432   */\n      tag_397\n        /* \"#utility.yul\":10429:10430   */\n      0x00\n        /* \"#utility.yul\":10418:10427   */\n      dup4\n        /* \"#utility.yul\":10414:10431   */\n      add\n        /* \"#utility.yul\":10405:10411   */\n      dup6\n        /* \"#utility.yul\":10361:10432   */\n      tag_220\n      jump\t// in\n    tag_397:\n        /* \"#utility.yul\":10442:10514   */\n      tag_398\n        /* \"#utility.yul\":10510:10512   */\n      0x20\n        /* \"#utility.yul\":10499:10508   */\n      dup4\n        /* \"#utility.yul\":10495:10513   */\n      add\n        /* \"#utility.yul\":10486:10492   */\n      dup5\n        /* \"#utility.yul\":10442:10514   */\n      tag_224\n      jump\t// in\n    tag_398:\n        /* \"#utility.yul\":10189:10521   */\n      swap4\n      swap3\n      pop\n      pop\n      pop\n      jump\t// out\n        /* \"#utility.yul\":10527:10641   */\n    tag_225:\n        /* \"#utility.yul\":10594:10600   */\n      0x00\n        /* \"#utility.yul\":10628:10633   */\n      dup2\n        /* \"#utility.yul\":10622:10634   */\n      mload\n        /* \"#utility.yul\":10612:10634   */\n      swap1\n      pop\n        /* \"#utility.yul\":10527:10641   */\n      swap2\n      swap1\n      pop\n      jump\t// out\n        /* \"#utility.yul\":10647:10831   */\n    tag_226:\n        /* \"#utility.yul\":10746:10757   */\n      0x00\n        /* \"#utility.yul\":10780:10786   */\n      dup3\n        /* \"#utility.yul\":10775:10778   */\n      dup3\n        /* \"#utility.yul\":10768:10787   */\n      mstore\n        /* \"#utility.yul\":10820:10824   */\n      0x20\n        /* \"#utility.yul\":10815:10818   */\n      dup3\n        /* \"#utility.yul\":10811:10825   */\n      add\n        /* \"#utility.yul\":10796:10825   */\n      swap1\n      pop\n        /* \"#utility.yul\":10647:10831   */\n      swap3\n      swap2\n      pop\n      pop\n      jump\t// out\n        /* \"#utility.yul\":10837:10969   */\n    tag_227:\n        /* \"#utility.yul\":10904:10908   */\n      0x00\n        /* \"#utility.yul\":10927:10930   */\n      dup2\n        /* \"#utility.yul\":10919:10930   */\n      swap1\n      pop\n        /* \"#utility.yul\":10957:10961   */\n      0x20\n        /* \"#utility.yul\":10952:10955   */\n      dup3\n        /* \"#utility.yul\":10948:10962   */\n      add\n        /* \"#utility.yul\":10940:10962   */\n      swap1\n      pop\n        /* \"#utility.yul\":10837:10969   */\n      swap2\n      swap1\n      pop\n      jump\t// out\n        /* \"#utility.yul\":10975:11083   */\n    tag_228:\n        /* \"#utility.yul\":11052:11076   */\n      tag_403\n        /* \"#utility.yul\":11070:11075   */\n      dup2\n        /* \"#utility.yul\":11052:11076   */\n      tag_208\n      jump\t// in\n    tag_403:\n        /* \"#utility.yul\":11047:11050   */\n      dup3\n        /* \"#utility.yul\":11040:11077   */\n      mstore\n        /* \"#utility.yul\":10975:11083   */\n      pop\n      pop\n      jump\t// out\n        /* \"#utility.yul\":11089:11268   */\n    tag_229:\n        /* \"#utility.yul\":11158:11168   */\n      0x00\n        /* \"#utility.yul\":11179:11225   */\n      tag_405\n        /* \"#utility.yul\":11221:11224   */\n      dup4\n        /* \"#utility.yul\":11213:11219   */\n      dup4\n        /* \"#utility.yul\":11179:11225   */\n      tag_228\n      jump\t// in\n    tag_405:\n        /* \"#utility.yul\":11257:11261   */\n      0x20\n        /* \"#utility.yul\":11252:11255   */\n      dup4\n        /* \"#utility.yul\":11248:11262   */\n      add\n        /* \"#utility.yul\":11234:11262   */\n      swap1\n      pop\n        /* \"#utility.yul\":11089:11268   */\n      swap3\n      swap2\n      pop\n      pop\n      jump\t// out\n        /* \"#utility.yul\":11274:11387   */\n    tag_230:\n        /* \"#utility.yul\":11344:11348   */\n      0x00\n        /* \"#utility.yul\":11376:11380   */\n      0x20\n        /* \"#utility.yul\":11371:11374   */\n      dup3\n        /* \"#utility.yul\":11367:11381   */\n      add\n        /* \"#utility.yul\":11359:11381   */\n      swap1\n      pop\n        /* \"#utility.yul\":11274:11387   */\n      swap2\n      swap1\n      pop\n      jump\t// out\n        /* \"#utility.yul\":11423:12155   */\n    tag_231:\n        /* \"#utility.yul\":11542:11545   */\n      0x00\n        /* \"#utility.yul\":11571:11625   */\n      tag_408\n        /* \"#utility.yul\":11619:11624   */\n      dup3\n        /* \"#utility.yul\":11571:11625   */\n      tag_225\n      jump\t// in\n    tag_408:\n        /* \"#utility.yul\":11641:11727   */\n      tag_409\n        /* \"#utility.yul\":11720:11726   */\n      dup2\n        /* \"#utility.yul\":11715:11718   */\n      dup6\n        /* \"#utility.yul\":11641:11727   */\n      tag_226\n      jump\t// in\n    tag_409:\n        /* \"#utility.yul\":11634:11727   */\n      swap4\n      pop\n        /* \"#utility.yul\":11751:11807   */\n      tag_410\n        /* \"#utility.yul\":11801:11806   */\n      dup4\n        /* \"#utility.yul\":11751:11807   */\n      tag_227\n      jump\t// in\n    tag_410:\n        /* \"#utility.yul\":11830:11837   */\n      dup1\n        /* \"#utility.yul\":11861:11862   */\n      0x00\n        /* \"#utility.yul\":11846:12130   */\n    tag_411:\n        /* \"#utility.yul\":11871:11877   */\n      dup4\n        /* \"#utility.yul\":11868:11869   */\n      dup2\n        /* \"#utility.yul\":11865:11878   */\n      lt\n        /* \"#utility.yul\":11846:12130   */\n      iszero\n      tag_413\n      jumpi\n        /* \"#utility.yul\":11947:11953   */\n      dup2\n        /* \"#utility.yul\":11941:11954   */\n      mload\n        /* \"#utility.yul\":11974:12037   */\n      tag_414\n        /* \"#utility.yul\":12033:12036   */\n      dup9\n        /* \"#utility.yul\":12018:12031   */\n      dup3\n        /* \"#utility.yul\":11974:12037   */\n      tag_229\n      jump\t// in\n    tag_414:\n        /* \"#utility.yul\":11967:12037   */\n      swap8\n      pop\n        /* \"#utility.yul\":12060:12120   */\n      tag_415\n        /* \"#utility.yul\":12113:12119   */\n      dup4\n        /* \"#utility.yul\":12060:12120   */\n      tag_230\n      jump\t// in\n    tag_415:\n        /* \"#utility.yul\":12050:12120   */\n      swap3\n      pop\n        /* \"#utility.yul\":11906:12130   */\n      pop\n        /* \"#utility.yul\":11893:11894   */\n      0x01\n        /* \"#utility.yul\":11890:11891   */\n      dup2\n        /* \"#utility.yul\":11886:11895   */\n      add\n        /* \"#utility.yul\":11881:11895   */\n      swap1\n      pop\n        /* \"#utility.yul\":11846:12130   */\n      jump(tag_411)\n    tag_413:\n        /* \"#utility.yul\":11850:11864   */\n      pop\n        /* \"#utility.yul\":12146:12149   */\n      dup6\n        /* \"#utility.yul\":12139:12149   */\n      swap4\n      pop\n        /* \"#utility.yul\":11547:12155   */\n      pop\n      pop\n      pop\n        /* \"#utility.yul\":11423:12155   */\n      swap3\n      swap2\n      pop\n      pop\n      jump\t// out\n        /* \"#utility.yul\":12161:12754   */\n    tag_48:\n        /* \"#utility.yul\":12360:12364   */\n      0x00\n        /* \"#utility.yul\":12398:12400   */\n      0x60\n        /* \"#utility.yul\":12387:12396   */\n      dup3\n        /* \"#utility.yul\":12383:12401   */\n      add\n        /* \"#utility.yul\":12375:12401   */\n      swap1\n      pop\n        /* \"#utility.yul\":12447:12456   */\n      dup2\n        /* \"#utility.yul\":12441:12445   */\n      dup2\n        /* \"#utility.yul\":12437:12457   */\n      sub\n        /* \"#utility.yul\":12433:12434   */\n      0x00\n        /* \"#utility.yul\":12422:12431   */\n      dup4\n        /* \"#utility.yul\":12418:12435   */\n      add\n        /* \"#utility.yul\":12411:12458   */\n      mstore\n        /* \"#utility.yul\":12475:12583   */\n      tag_417\n        /* \"#utility.yul\":12578:12582   */\n      dup2\n        /* \"#utility.yul\":12569:12575   */\n      dup7\n        /* \"#utility.yul\":12475:12583   */\n      tag_231\n      jump\t// in\n    tag_417:\n        /* \"#utility.yul\":12467:12583   */\n      swap1\n      pop\n        /* \"#utility.yul\":12593:12665   */\n      tag_418\n        /* \"#utility.yul\":12661:12663   */\n      0x20\n        /* \"#utility.yul\":12650:12659   */\n      dup4\n        /* \"#utility.yul\":12646:12664   */\n      add\n        /* \"#utility.yul\":12637:12643   */\n      dup6\n        /* \"#utility.yul\":12593:12665   */\n      tag_224\n      jump\t// in\n    tag_418:\n        /* \"#utility.yul\":12675:12747   */\n      tag_419\n        /* \"#utility.yul\":12743:12745   */\n      0x40\n        /* \"#utility.yul\":12732:12741   */\n      dup4\n        /* \"#utility.yul\":12728:12746   */\n      add\n        /* \"#utility.yul\":12719:12725   */\n      dup5\n        /* \"#utility.yul\":12675:12747   */\n      tag_220\n      jump\t// in\n    tag_419:\n        /* \"#utility.yul\":12161:12754   */\n      swap5\n      swap4\n      pop\n      pop\n      pop\n      pop\n      jump\t// out\n        /* \"#utility.yul\":12760:13414   */\n    tag_52:\n        /* \"#utility.yul\":12838:12844   */\n      0x00\n        /* \"#utility.yul\":12846:12852   */\n      dup1\n        /* \"#utility.yul\":12895:12897   */\n      0x40\n        /* \"#utility.yul\":12883:12892   */\n      dup4\n        /* \"#utility.yul\":12874:12881   */\n      dup6\n        /* \"#utility.yul\":12870:12893   */\n      sub\n        /* \"#utility.yul\":12866:12898   */\n      slt\n        /* \"#utility.yul\":12863:12982   */\n      iszero\n      tag_421\n      jumpi\n        /* \"#utility.yul\":12901:12980   */\n      tag_422\n      tag_193\n      jump\t// in\n    tag_422:\n        /* \"#utility.yul\":12863:12982   */\n    tag_421:\n        /* \"#utility.yul\":13021:13022   */\n      0x00\n        /* \"#utility.yul\":13046:13099   */\n      tag_423\n        /* \"#utility.yul\":13091:13098   */\n      dup6\n        /* \"#utility.yul\":13082:13088   */\n      dup3\n        /* \"#utility.yul\":13071:13080   */\n      dup7\n        /* \"#utility.yul\":13067:13089   */\n      add\n        /* \"#utility.yul\":13046:13099   */\n      tag_198\n      jump\t// in\n    tag_423:\n        /* \"#utility.yul\":13036:13099   */\n      swap3\n      pop\n        /* \"#utility.yul\":12992:13109   */\n      pop\n        /* \"#utility.yul\":13176:13178   */\n      0x20\n        /* \"#utility.yul\":13165:13174   */\n      dup4\n        /* \"#utility.yul\":13161:13179   */\n      add\n        /* \"#utility.yul\":13148:13180   */\n      calldataload\n        /* \"#utility.yul\":13207:13225   */\n      0xffffffffffffffff\n        /* \"#utility.yul\":13199:13205   */\n      dup2\n        /* \"#utility.yul\":13196:13226   */\n      gt\n        /* \"#utility.yul\":13193:13310   */\n      iszero\n      tag_424\n      jumpi\n        /* \"#utility.yul\":13229:13308   */\n      tag_425\n      tag_194\n      jump\t// in\n    tag_425:\n        /* \"#utility.yul\":13193:13310   */\n    tag_424:\n        /* \"#utility.yul\":13334:13397   */\n      tag_426\n        /* \"#utility.yul\":13389:13396   */\n      dup6\n        /* \"#utility.yul\":13380:13386   */\n      dup3\n        /* \"#utility.yul\":13369:13378   */\n      dup7\n        /* \"#utility.yul\":13365:13387   */\n      add\n        /* \"#utility.yul\":13334:13397   */\n      tag_207\n      jump\t// in\n    tag_426:\n        /* \"#utility.yul\":13324:13397   */\n      swap2\n      pop\n        /* \"#utility.yul\":13119:13407   */\n      pop\n        /* \"#utility.yul\":12760:13414   */\n      swap3\n      pop\n      swap3\n      swap1\n      pop\n      jump\t// out\n        /* \"#utility.yul\":13420:13513   */\n    tag_232:\n        /* \"#utility.yul\":13456:13463   */\n      0x00\n        /* \"#utility.yul\":13496:13506   */\n      0xffffffff\n        /* \"#utility.yul\":13489:13494   */\n      dup3\n        /* \"#utility.yul\":13485:13507   */\n      and\n        /* \"#utility.yul\":13474:13507   */\n      swap1\n      pop\n        /* \"#utility.yul\":13420:13513   */\n      swap2\n      swap1\n      pop\n      jump\t// out\n        /* \"#utility.yul\":13519:13634   */\n    tag_233:\n        /* \"#utility.yul\":13604:13627   */\n      tag_429\n        /* \"#utility.yul\":13621:13626   */\n      dup2\n        /* \"#utility.yul\":13604:13627   */\n      tag_232\n      jump\t// in\n    tag_429:\n        /* \"#utility.yul\":13599:13602   */\n      dup3\n        /* \"#utility.yul\":13592:13628   */\n      mstore\n        /* \"#utility.yul\":13519:13634   */\n      pop\n      pop\n      jump\t// out\n        /* \"#utility.yul\":13640:13755   */\n    tag_234:\n        /* \"#utility.yul\":13725:13748   */\n      tag_431\n        /* \"#utility.yul\":13742:13747   */\n      dup2\n        /* \"#utility.yul\":13725:13748   */\n      tag_213\n      jump\t// in\n    tag_431:\n        /* \"#utility.yul\":13720:13723   */\n      dup3\n        /* \"#utility.yul\":13713:13749   */\n      mstore\n        /* \"#utility.yul\":13640:13755   */\n      pop\n      pop\n      jump\t// out\n        /* \"#utility.yul\":13761:13851   */\n    tag_235:\n        /* \"#utility.yul\":13795:13802   */\n      0x00\n        /* \"#utility.yul\":13838:13843   */\n      dup2\n        /* \"#utility.yul\":13831:13844   */\n      iszero\n        /* \"#utility.yul\":13824:13845   */\n      iszero\n        /* \"#utility.yul\":13813:13845   */\n      swap1\n      pop\n        /* \"#utility.yul\":13761:13851   */\n      swap2\n      swap1\n      pop\n      jump\t// out\n        /* \"#utility.yul\":13857:13966   */\n    tag_236:\n        /* \"#utility.yul\":13938:13959   */\n      tag_434\n        /* \"#utility.yul\":13953:13958   */\n      dup2\n        /* \"#utility.yul\":13938:13959   */\n      tag_235\n      jump\t// in\n    tag_434:\n        /* \"#utility.yul\":13933:13936   */\n      dup3\n        /* \"#utility.yul\":13926:13960   */\n      mstore\n        /* \"#utility.yul\":13857:13966   */\n      pop\n      pop\n      jump\t// out\n        /* \"#utility.yul\":13972:14505   */\n    tag_59:\n        /* \"#utility.yul\":14139:14143   */\n      0x00\n        /* \"#utility.yul\":14177:14180   */\n      0x80\n        /* \"#utility.yul\":14166:14175   */\n      dup3\n        /* \"#utility.yul\":14162:14181   */\n      add\n        /* \"#utility.yul\":14154:14181   */\n      swap1\n      pop\n        /* \"#utility.yul\":14191:14262   */\n      tag_436\n        /* \"#utility.yul\":14259:14260   */\n      0x00\n        /* \"#utility.yul\":14248:14257   */\n      dup4\n        /* \"#utility.yul\":14244:14261   */\n      add\n        /* \"#utility.yul\":14235:14241   */\n      dup8\n        /* \"#utility.yul\":14191:14262   */\n      tag_224\n      jump\t// in\n    tag_436:\n        /* \"#utility.yul\":14272:14342   */\n      tag_437\n        /* \"#utility.yul\":14338:14340   */\n      0x20\n        /* \"#utility.yul\":14327:14336   */\n      dup4\n        /* \"#utility.yul\":14323:14341   */\n      add\n        /* \"#utility.yul\":14314:14320   */\n      dup7\n        /* \"#utility.yul\":14272:14342   */\n      tag_233\n      jump\t// in\n    tag_437:\n        /* \"#utility.yul\":14352:14422   */\n      tag_438\n        /* \"#utility.yul\":14418:14420   */\n      0x40\n        /* \"#utility.yul\":14407:14416   */\n      dup4\n        /* \"#utility.yul\":14403:14421   */\n      add\n        /* \"#utility.yul\":14394:14400   */\n      dup6\n        /* \"#utility.yul\":14352:14422   */\n      tag_234\n      jump\t// in\n    tag_438:\n        /* \"#utility.yul\":14432:14498   */\n      tag_439\n        /* \"#utility.yul\":14494:14496   */\n      0x60\n        /* \"#utility.yul\":14483:14492   */\n      dup4\n        /* \"#utility.yul\":14479:14497   */\n      add\n        /* \"#utility.yul\":14470:14476   */\n      dup5\n        /* \"#utility.yul\":14432:14498   */\n      tag_236\n      jump\t// in\n    tag_439:\n        /* \"#utility.yul\":13972:14505   */\n      swap6\n      swap5\n      pop\n      pop\n      pop\n      pop\n      pop\n      jump\t// out\n        /* \"#utility.yul\":14511:14840   */\n    tag_63:\n        /* \"#utility.yul\":14570:14576   */\n      0x00\n        /* \"#utility.yul\":14619:14621   */\n      0x20\n        /* \"#utility.yul\":14607:14616   */\n      dup3\n        /* \"#utility.yul\":14598:14605   */\n      dup5\n        /* \"#utility.yul\":14594:14617   */\n      sub\n        /* \"#utility.yul\":14590:14622   */\n      slt\n        /* \"#utility.yul\":14587:14706   */\n      iszero\n      tag_441\n      jumpi\n        /* \"#utility.yul\":14625:14704   */\n      tag_442\n      tag_193\n      jump\t// in\n    tag_442:\n        /* \"#utility.yul\":14587:14706   */\n    tag_441:\n        /* \"#utility.yul\":14745:14746   */\n      0x00\n        /* \"#utility.yul\":14770:14823   */\n      tag_443\n        /* \"#utility.yul\":14815:14822   */\n      dup5\n        /* \"#utility.yul\":14806:14812   */\n      dup3\n        /* \"#utility.yul\":14795:14804   */\n      dup6\n        /* \"#utility.yul\":14791:14813   */\n      add\n        /* \"#utility.yul\":14770:14823   */\n      tag_198\n      jump\t// in\n    tag_443:\n        /* \"#utility.yul\":14760:14823   */\n      swap2\n      pop\n        /* \"#utility.yul\":14716:14833   */\n      pop\n        /* \"#utility.yul\":14511:14840   */\n      swap3\n      swap2\n      pop\n      pop\n      jump\t// out\n        /* \"#utility.yul\":14846:15068   */\n    tag_66:\n        /* \"#utility.yul\":14939:14943   */\n      0x00\n        /* \"#utility.yul\":14977:14979   */\n      0x20\n        /* \"#utility.yul\":14966:14975   */\n      dup3\n        /* \"#utility.yul\":14962:14980   */\n      add\n        /* \"#utility.yul\":14954:14980   */\n      swap1\n      pop\n        /* \"#utility.yul\":14990:15061   */\n      tag_445\n        /* \"#utility.yul\":15058:15059   */\n      0x00\n        /* \"#utility.yul\":15047:15056   */\n      dup4\n        /* \"#utility.yul\":15043:15060   */\n      add\n        /* \"#utility.yul\":15034:15040   */\n      dup5\n        /* \"#utility.yul\":14990:15061   */\n      tag_220\n      jump\t// in\n    tag_445:\n        /* \"#utility.yul\":14846:15068   */\n      swap3\n      swap2\n      pop\n      pop\n      jump\t// out\n        /* \"#utility.yul\":15074:15188   */\n    tag_237:\n        /* \"#utility.yul\":15141:15147   */\n      0x00\n        /* \"#utility.yul\":15175:15180   */\n      dup2\n        /* \"#utility.yul\":15169:15181   */\n      mload\n        /* \"#utility.yul\":15159:15181   */\n      swap1\n      pop\n        /* \"#utility.yul\":15074:15188   */\n      swap2\n      swap1\n      pop\n      jump\t// out\n        /* \"#utility.yul\":15194:15378   */\n    tag_238:\n        /* \"#utility.yul\":15293:15304   */\n      0x00\n        /* \"#utility.yul\":15327:15333   */\n      dup3\n        /* \"#utility.yul\":15322:15325   */\n      dup3\n        /* \"#utility.yul\":15315:15334   */\n      mstore\n        /* \"#utility.yul\":15367:15371   */\n      0x20\n        /* \"#utility.yul\":15362:15365   */\n      dup3\n        /* \"#utility.yul\":15358:15372   */\n      add\n        /* \"#utility.yul\":15343:15372   */\n      swap1\n      pop\n        /* \"#utility.yul\":15194:15378   */\n      swap3\n      swap2\n      pop\n      pop\n      jump\t// out\n        /* \"#utility.yul\":15384:15516   */\n    tag_239:\n        /* \"#utility.yul\":15451:15455   */\n      0x00\n        /* \"#utility.yul\":15474:15477   */\n      dup2\n        /* \"#utility.yul\":15466:15477   */\n      swap1\n      pop\n        /* \"#utility.yul\":15504:15508   */\n      0x20\n        /* \"#utility.yul\":15499:15502   */\n      dup3\n        /* \"#utility.yul\":15495:15509   */\n      add\n        /* \"#utility.yul\":15487:15509   */\n      swap1\n      pop\n        /* \"#utility.yul\":15384:15516   */\n      swap2\n      swap1\n      pop\n      jump\t// out\n        /* \"#utility.yul\":15522:15630   */\n    tag_240:\n        /* \"#utility.yul\":15599:15623   */\n      tag_450\n        /* \"#utility.yul\":15617:15622   */\n      dup2\n        /* \"#utility.yul\":15599:15623   */\n      tag_196\n      jump\t// in\n    tag_450:\n        /* \"#utility.yul\":15594:15597   */\n      dup3\n        /* \"#utility.yul\":15587:15624   */\n      mstore\n        /* \"#utility.yul\":15522:15630   */\n      pop\n      pop\n      jump\t// out\n        /* \"#utility.yul\":15636:15815   */\n    tag_241:\n        /* \"#utility.yul\":15705:15715   */\n      0x00\n        /* \"#utility.yul\":15726:15772   */\n      tag_452\n        /* \"#utility.yul\":15768:15771   */\n      dup4\n        /* \"#utility.yul\":15760:15766   */\n      dup4\n        /* \"#utility.yul\":15726:15772   */\n      tag_240\n      jump\t// in\n    tag_452:\n        /* \"#utility.yul\":15804:15808   */\n      0x20\n        /* \"#utility.yul\":15799:15802   */\n      dup4\n        /* \"#utility.yul\":15795:15809   */\n      add\n        /* \"#utility.yul\":15781:15809   */\n      swap1\n      pop\n        /* \"#utility.yul\":15636:15815   */\n      swap3\n      swap2\n      pop\n      pop\n      jump\t// out\n        /* \"#utility.yul\":15821:15934   */\n    tag_242:\n        /* \"#utility.yul\":15891:15895   */\n      0x00\n        /* \"#utility.yul\":15923:15927   */\n      0x20\n        /* \"#utility.yul\":15918:15921   */\n      dup3\n        /* \"#utility.yul\":15914:15928   */\n      add\n        /* \"#utility.yul\":15906:15928   */\n      swap1\n      pop\n        /* \"#utility.yul\":15821:15934   */\n      swap2\n      swap1\n      pop\n      jump\t// out\n        /* \"#utility.yul\":15970:16702   */\n    tag_243:\n        /* \"#utility.yul\":16089:16092   */\n      0x00\n        /* \"#utility.yul\":16118:16172   */\n      tag_455\n        /* \"#utility.yul\":16166:16171   */\n      dup3\n        /* \"#utility.yul\":16118:16172   */\n      tag_237\n      jump\t// in\n    tag_455:\n        /* \"#utility.yul\":16188:16274   */\n      tag_456\n        /* \"#utility.yul\":16267:16273   */\n      dup2\n        /* \"#utility.yul\":16262:16265   */\n      dup6\n        /* \"#utility.yul\":16188:16274   */\n      tag_238\n      jump\t// in\n    tag_456:\n        /* \"#utility.yul\":16181:16274   */\n      swap4\n      pop\n        /* \"#utility.yul\":16298:16354   */\n      tag_457\n        /* \"#utility.yul\":16348:16353   */\n      dup4\n        /* \"#utility.yul\":16298:16354   */\n      tag_239\n      jump\t// in\n    tag_457:\n        /* \"#utility.yul\":16377:16384   */\n      dup1\n        /* \"#utility.yul\":16408:16409   */\n      0x00\n        /* \"#utility.yul\":16393:16677   */\n    tag_458:\n        /* \"#utility.yul\":16418:16424   */\n      dup4\n        /* \"#utility.yul\":16415:16416   */\n      dup2\n        /* \"#utility.yul\":16412:16425   */\n      lt\n        /* \"#utility.yul\":16393:16677   */\n      iszero\n      tag_460\n      jumpi\n        /* \"#utility.yul\":16494:16500   */\n      dup2\n        /* \"#utility.yul\":16488:16501   */\n      mload\n        /* \"#utility.yul\":16521:16584   */\n      tag_461\n        /* \"#utility.yul\":16580:16583   */\n      dup9\n        /* \"#utility.yul\":16565:16578   */\n      dup3\n        /* \"#utility.yul\":16521:16584   */\n      tag_241\n      jump\t// in\n    tag_461:\n        /* \"#utility.yul\":16514:16584   */\n      swap8\n      pop\n        /* \"#utility.yul\":16607:16667   */\n      tag_462\n        /* \"#utility.yul\":16660:16666   */\n      dup4\n        /* \"#utility.yul\":16607:16667   */\n      tag_242\n      jump\t// in\n    tag_462:\n        /* \"#utility.yul\":16597:16667   */\n      swap3\n      pop\n        /* \"#utility.yul\":16453:16677   */\n      pop\n        /* \"#utility.yul\":16440:16441   */\n      0x01\n        /* \"#utility.yul\":16437:16438   */\n      dup2\n        /* \"#utility.yul\":16433:16442   */\n      add\n        /* \"#utility.yul\":16428:16442   */\n      swap1\n      pop\n        /* \"#utility.yul\":16393:16677   */\n      jump(tag_458)\n    tag_460:\n        /* \"#utility.yul\":16397:16411   */\n      pop\n        /* \"#utility.yul\":16693:16696   */\n      dup6\n        /* \"#utility.yul\":16686:16696   */\n      swap4\n      pop\n        /* \"#utility.yul\":16094:16702   */\n      pop\n      pop\n      pop\n        /* \"#utility.yul\":15970:16702   */\n      swap3\n      swap2\n      pop\n      pop\n      jump\t// out\n        /* \"#utility.yul\":16708:17081   */\n    tag_77:\n        /* \"#utility.yul\":16851:16855   */\n      0x00\n        /* \"#utility.yul\":16889:16891   */\n      0x20\n        /* \"#utility.yul\":16878:16887   */\n      dup3\n        /* \"#utility.yul\":16874:16892   */\n      add\n        /* \"#utility.yul\":16866:16892   */\n      swap1\n      pop\n        /* \"#utility.yul\":16938:16947   */\n      dup2\n        /* \"#utility.yul\":16932:16936   */\n      dup2\n        /* \"#utility.yul\":16928:16948   */\n      sub\n        /* \"#utility.yul\":16924:16925   */\n      0x00\n        /* \"#utility.yul\":16913:16922   */\n      dup4\n        /* \"#utility.yul\":16909:16926   */\n      add\n        /* \"#utility.yul\":16902:16949   */\n      mstore\n        /* \"#utility.yul\":16966:17074   */\n      tag_464\n        /* \"#utility.yul\":17069:17073   */\n      dup2\n        /* \"#utility.yul\":17060:17066   */\n      dup5\n        /* \"#utility.yul\":16966:17074   */\n      tag_243\n      jump\t// in\n    tag_464:\n        /* \"#utility.yul\":16958:17074   */\n      swap1\n      pop\n        /* \"#utility.yul\":16708:17081   */\n      swap3\n      swap2\n      pop\n      pop\n      jump\t// out\n        /* \"#utility.yul\":17087:17181   */\n    tag_244:\n        /* \"#utility.yul\":17120:17128   */\n      0x00\n        /* \"#utility.yul\":17168:17173   */\n      dup2\n        /* \"#utility.yul\":17164:17166   */\n      0x60\n        /* \"#utility.yul\":17160:17174   */\n      shl\n        /* \"#utility.yul\":17139:17174   */\n      swap1\n      pop\n        /* \"#utility.yul\":17087:17181   */\n      swap2\n      swap1\n      pop\n      jump\t// out\n        /* \"#utility.yul\":17187:17281   */\n    tag_245:\n        /* \"#utility.yul\":17226:17233   */\n      0x00\n        /* \"#utility.yul\":17255:17275   */\n      tag_467\n        /* \"#utility.yul\":17269:17274   */\n      dup3\n        /* \"#utility.yul\":17255:17275   */\n      tag_244\n      jump\t// in\n    tag_467:\n        /* \"#utility.yul\":17244:17275   */\n      swap1\n      pop\n        /* \"#utility.yul\":17187:17281   */\n      swap2\n      swap1\n      pop\n      jump\t// out\n        /* \"#utility.yul\":17287:17387   */\n    tag_246:\n        /* \"#utility.yul\":17326:17333   */\n      0x00\n        /* \"#utility.yul\":17355:17381   */\n      tag_469\n        /* \"#utility.yul\":17375:17380   */\n      dup3\n        /* \"#utility.yul\":17355:17381   */\n      tag_245\n      jump\t// in\n    tag_469:\n        /* \"#utility.yul\":17344:17381   */\n      swap1\n      pop\n        /* \"#utility.yul\":17287:17387   */\n      swap2\n      swap1\n      pop\n      jump\t// out\n        /* \"#utility.yul\":17393:17550   */\n    tag_247:\n        /* \"#utility.yul\":17498:17543   */\n      tag_471\n        /* \"#utility.yul\":17518:17542   */\n      tag_472\n        /* \"#utility.yul\":17536:17541   */\n      dup3\n        /* \"#utility.yul\":17518:17542   */\n      tag_196\n      jump\t// in\n    tag_472:\n        /* \"#utility.yul\":17498:17543   */\n      tag_246\n      jump\t// in\n    tag_471:\n        /* \"#utility.yul\":17493:17496   */\n      dup3\n        /* \"#utility.yul\":17486:17544   */\n      mstore\n        /* \"#utility.yul\":17393:17550   */\n      pop\n      pop\n      jump\t// out\n        /* \"#utility.yul\":17556:17704   */\n    tag_248:\n        /* \"#utility.yul\":17658:17669   */\n      0x00\n        /* \"#utility.yul\":17695:17698   */\n      dup2\n        /* \"#utility.yul\":17680:17698   */\n      swap1\n      pop\n        /* \"#utility.yul\":17556:17704   */\n      swap3\n      swap2\n      pop\n      pop\n      jump\t// out\n        /* \"#utility.yul\":17710:17883   */\n    tag_249:\n        /* \"#utility.yul\":17850:17875   */\n      0x6d6574617472616e73616374696f6e20566f74696e6720000000000000000000\n        /* \"#utility.yul\":17846:17847   */\n      0x00\n        /* \"#utility.yul\":17838:17844   */\n      dup3\n        /* \"#utility.yul\":17834:17848   */\n      add\n        /* \"#utility.yul\":17827:17876   */\n      mstore\n        /* \"#utility.yul\":17710:17883   */\n      pop\n      jump\t// out\n        /* \"#utility.yul\":17889:18291   */\n    tag_250:\n        /* \"#utility.yul\":18049:18052   */\n      0x00\n        /* \"#utility.yul\":18070:18155   */\n      tag_476\n        /* \"#utility.yul\":18152:18154   */\n      0x17\n        /* \"#utility.yul\":18147:18150   */\n      dup4\n        /* \"#utility.yul\":18070:18155   */\n      tag_248\n      jump\t// in\n    tag_476:\n        /* \"#utility.yul\":18063:18155   */\n      swap2\n      pop\n        /* \"#utility.yul\":18164:18257   */\n      tag_477\n        /* \"#utility.yul\":18253:18256   */\n      dup3\n        /* \"#utility.yul\":18164:18257   */\n      tag_249\n      jump\t// in\n    tag_477:\n        /* \"#utility.yul\":18282:18284   */\n      0x17\n        /* \"#utility.yul\":18277:18280   */\n      dup3\n        /* \"#utility.yul\":18273:18285   */\n      add\n        /* \"#utility.yul\":18266:18285   */\n      swap1\n      pop\n        /* \"#utility.yul\":17889:18291   */\n      swap2\n      swap1\n      pop\n      jump\t// out\n        /* \"#utility.yul\":18297:18674   */\n    tag_251:\n        /* \"#utility.yul\":18403:18406   */\n      0x00\n        /* \"#utility.yul\":18431:18470   */\n      tag_479\n        /* \"#utility.yul\":18464:18469   */\n      dup3\n        /* \"#utility.yul\":18431:18470   */\n      tag_216\n      jump\t// in\n    tag_479:\n        /* \"#utility.yul\":18486:18575   */\n      tag_480\n        /* \"#utility.yul\":18568:18574   */\n      dup2\n        /* \"#utility.yul\":18563:18566   */\n      dup6\n        /* \"#utility.yul\":18486:18575   */\n      tag_248\n      jump\t// in\n    tag_480:\n        /* \"#utility.yul\":18479:18575   */\n      swap4\n      pop\n        /* \"#utility.yul\":18584:18636   */\n      tag_481\n        /* \"#utility.yul\":18629:18635   */\n      dup2\n        /* \"#utility.yul\":18624:18627   */\n      dup6\n        /* \"#utility.yul\":18617:18621   */\n      0x20\n        /* \"#utility.yul\":18610:18615   */\n      dup7\n        /* \"#utility.yul\":18606:18622   */\n      add\n        /* \"#utility.yul\":18584:18636   */\n      tag_218\n      jump\t// in\n    tag_481:\n        /* \"#utility.yul\":18661:18667   */\n      dup1\n        /* \"#utility.yul\":18656:18659   */\n      dup5\n        /* \"#utility.yul\":18652:18668   */\n      add\n        /* \"#utility.yul\":18645:18668   */\n      swap2\n      pop\n        /* \"#utility.yul\":18407:18674   */\n      pop\n        /* \"#utility.yul\":18297:18674   */\n      swap3\n      swap2\n      pop\n      pop\n      jump\t// out\n        /* \"#utility.yul\":18680:18759   */\n    tag_252:\n        /* \"#utility.yul\":18719:18726   */\n      0x00\n        /* \"#utility.yul\":18748:18753   */\n      dup2\n        /* \"#utility.yul\":18737:18753   */\n      swap1\n      pop\n        /* \"#utility.yul\":18680:18759   */\n      swap2\n      swap1\n      pop\n      jump\t// out\n        /* \"#utility.yul\":18765:18922   */\n    tag_253:\n        /* \"#utility.yul\":18870:18915   */\n      tag_484\n        /* \"#utility.yul\":18890:18914   */\n      tag_485\n        /* \"#utility.yul\":18908:18913   */\n      dup3\n        /* \"#utility.yul\":18890:18914   */\n      tag_208\n      jump\t// in\n    tag_485:\n        /* \"#utility.yul\":18870:18915   */\n      tag_252\n      jump\t// in\n    tag_484:\n        /* \"#utility.yul\":18865:18868   */\n      dup3\n        /* \"#utility.yul\":18858:18916   */\n      mstore\n        /* \"#utility.yul\":18765:18922   */\n      pop\n      pop\n      jump\t// out\n        /* \"#utility.yul\":18928:20033   */\n    tag_84:\n        /* \"#utility.yul\":19273:19276   */\n      0x00\n        /* \"#utility.yul\":19288:19363   */\n      tag_487\n        /* \"#utility.yul\":19359:19362   */\n      dup3\n        /* \"#utility.yul\":19350:19356   */\n      dup9\n        /* \"#utility.yul\":19288:19363   */\n      tag_247\n      jump\t// in\n    tag_487:\n        /* \"#utility.yul\":19388:19390   */\n      0x14\n        /* \"#utility.yul\":19383:19386   */\n      dup3\n        /* \"#utility.yul\":19379:19391   */\n      add\n        /* \"#utility.yul\":19372:19391   */\n      swap2\n      pop\n        /* \"#utility.yul\":19408:19556   */\n      tag_488\n        /* \"#utility.yul\":19552:19555   */\n      dup3\n        /* \"#utility.yul\":19408:19556   */\n      tag_250\n      jump\t// in\n    tag_488:\n        /* \"#utility.yul\":19401:19556   */\n      swap2\n      pop\n        /* \"#utility.yul\":19566:19641   */\n      tag_489\n        /* \"#utility.yul\":19637:19640   */\n      dup3\n        /* \"#utility.yul\":19628:19634   */\n      dup8\n        /* \"#utility.yul\":19566:19641   */\n      tag_247\n      jump\t// in\n    tag_489:\n        /* \"#utility.yul\":19666:19668   */\n      0x14\n        /* \"#utility.yul\":19661:19664   */\n      dup3\n        /* \"#utility.yul\":19657:19669   */\n      add\n        /* \"#utility.yul\":19650:19669   */\n      swap2\n      pop\n        /* \"#utility.yul\":19686:19781   */\n      tag_490\n        /* \"#utility.yul\":19777:19780   */\n      dup3\n        /* \"#utility.yul\":19768:19774   */\n      dup7\n        /* \"#utility.yul\":19686:19781   */\n      tag_251\n      jump\t// in\n    tag_490:\n        /* \"#utility.yul\":19679:19781   */\n      swap2\n      pop\n        /* \"#utility.yul\":19791:19866   */\n      tag_491\n        /* \"#utility.yul\":19862:19865   */\n      dup3\n        /* \"#utility.yul\":19853:19859   */\n      dup6\n        /* \"#utility.yul\":19791:19866   */\n      tag_253\n      jump\t// in\n    tag_491:\n        /* \"#utility.yul\":19891:19893   */\n      0x20\n        /* \"#utility.yul\":19886:19889   */\n      dup3\n        /* \"#utility.yul\":19882:19894   */\n      add\n        /* \"#utility.yul\":19875:19894   */\n      swap2\n      pop\n        /* \"#utility.yul\":19904:19979   */\n      tag_492\n        /* \"#utility.yul\":19975:19978   */\n      dup3\n        /* \"#utility.yul\":19966:19972   */\n      dup5\n        /* \"#utility.yul\":19904:19979   */\n      tag_253\n      jump\t// in\n    tag_492:\n        /* \"#utility.yul\":20004:20006   */\n      0x20\n        /* \"#utility.yul\":19999:20002   */\n      dup3\n        /* \"#utility.yul\":19995:20007   */\n      add\n        /* \"#utility.yul\":19988:20007   */\n      swap2\n      pop\n        /* \"#utility.yul\":20024:20027   */\n      dup2\n        /* \"#utility.yul\":20017:20027   */\n      swap1\n      pop\n        /* \"#utility.yul\":18928:20033   */\n      swap7\n      swap6\n      pop\n      pop\n      pop\n      pop\n      pop\n      pop\n      jump\t// out\n        /* \"#utility.yul\":20039:20314   */\n    tag_87:\n        /* \"#utility.yul\":20171:20174   */\n      0x00\n        /* \"#utility.yul\":20193:20288   */\n      tag_494\n        /* \"#utility.yul\":20284:20287   */\n      dup3\n        /* \"#utility.yul\":20275:20281   */\n      dup5\n        /* \"#utility.yul\":20193:20288   */\n      tag_251\n      jump\t// in\n    tag_494:\n        /* \"#utility.yul\":20186:20288   */\n      swap2\n      pop\n        /* \"#utility.yul\":20305:20308   */\n      dup2\n        /* \"#utility.yul\":20298:20308   */\n      swap1\n      pop\n        /* \"#utility.yul\":20039:20314   */\n      swap3\n      swap2\n      pop\n      pop\n      jump\t// out\n        /* \"#utility.yul\":20320:20549   */\n    tag_254:\n        /* \"#utility.yul\":20460:20494   */\n      0x54686973206164647265737320646f6573206e6f742065786973742061732061\n        /* \"#utility.yul\":20456:20457   */\n      0x00\n        /* \"#utility.yul\":20448:20454   */\n      dup3\n        /* \"#utility.yul\":20444:20458   */\n      add\n        /* \"#utility.yul\":20437:20495   */\n      mstore\n        /* \"#utility.yul\":20529:20541   */\n      0x2063616e64696461746500000000000000000000000000000000000000000000\n        /* \"#utility.yul\":20524:20526   */\n      0x20\n        /* \"#utility.yul\":20516:20522   */\n      dup3\n        /* \"#utility.yul\":20512:20527   */\n      add\n        /* \"#utility.yul\":20505:20542   */\n      mstore\n        /* \"#utility.yul\":20320:20549   */\n      pop\n      jump\t// out\n        /* \"#utility.yul\":20555:20921   */\n    tag_255:\n        /* \"#utility.yul\":20697:20700   */\n      0x00\n        /* \"#utility.yul\":20718:20785   */\n      tag_497\n        /* \"#utility.yul\":20782:20784   */\n      0x2a\n        /* \"#utility.yul\":20777:20780   */\n      dup4\n        /* \"#utility.yul\":20718:20785   */\n      tag_217\n      jump\t// in\n    tag_497:\n        /* \"#utility.yul\":20711:20785   */\n      swap2\n      pop\n        /* \"#utility.yul\":20794:20887   */\n      tag_498\n        /* \"#utility.yul\":20883:20886   */\n      dup3\n        /* \"#utility.yul\":20794:20887   */\n      tag_254\n      jump\t// in\n    tag_498:\n        /* \"#utility.yul\":20912:20914   */\n      0x40\n        /* \"#utility.yul\":20907:20910   */\n      dup3\n        /* \"#utility.yul\":20903:20915   */\n      add\n        /* \"#utility.yul\":20896:20915   */\n      swap1\n      pop\n        /* \"#utility.yul\":20555:20921   */\n      swap2\n      swap1\n      pop\n      jump\t// out\n        /* \"#utility.yul\":20927:21346   */\n    tag_92:\n        /* \"#utility.yul\":21093:21097   */\n      0x00\n        /* \"#utility.yul\":21131:21133   */\n      0x20\n        /* \"#utility.yul\":21120:21129   */\n      dup3\n        /* \"#utility.yul\":21116:21134   */\n      add\n        /* \"#utility.yul\":21108:21134   */\n      swap1\n      pop\n        /* \"#utility.yul\":21180:21189   */\n      dup2\n        /* \"#utility.yul\":21174:21178   */\n      dup2\n        /* \"#utility.yul\":21170:21190   */\n      sub\n        /* \"#utility.yul\":21166:21167   */\n      0x00\n        /* \"#utility.yul\":21155:21164   */\n      dup4\n        /* \"#utility.yul\":21151:21168   */\n      add\n        /* \"#utility.yul\":21144:21191   */\n      mstore\n        /* \"#utility.yul\":21208:21339   */\n      tag_500\n        /* \"#utility.yul\":21334:21338   */\n      dup2\n        /* \"#utility.yul\":21208:21339   */\n      tag_255\n      jump\t// in\n    tag_500:\n        /* \"#utility.yul\":21200:21339   */\n      swap1\n      pop\n        /* \"#utility.yul\":20927:21346   */\n      swap2\n      swap1\n      pop\n      jump\t// out\n        /* \"#utility.yul\":21352:21518   */\n    tag_256:\n        /* \"#utility.yul\":21492:21510   */\n      0x766f74696e672068617320656e64656400000000000000000000000000000000\n        /* \"#utility.yul\":21488:21489   */\n      0x00\n        /* \"#utility.yul\":21480:21486   */\n      dup3\n        /* \"#utility.yul\":21476:21490   */\n      add\n        /* \"#utility.yul\":21469:21511   */\n      mstore\n        /* \"#utility.yul\":21352:21518   */\n      pop\n      jump\t// out\n        /* \"#utility.yul\":21524:21890   */\n    tag_257:\n        /* \"#utility.yul\":21666:21669   */\n      0x00\n        /* \"#utility.yul\":21687:21754   */\n      tag_503\n        /* \"#utility.yul\":21751:21753   */\n      0x10\n        /* \"#utility.yul\":21746:21749   */\n      dup4\n        /* \"#utility.yul\":21687:21754   */\n      tag_217\n      jump\t// in\n    tag_503:\n        /* \"#utility.yul\":21680:21754   */\n      swap2\n      pop\n        /* \"#utility.yul\":21763:21856   */\n      tag_504\n        /* \"#utility.yul\":21852:21855   */\n      dup3\n        /* \"#utility.yul\":21763:21856   */\n      tag_256\n      jump\t// in\n    tag_504:\n        /* \"#utility.yul\":21881:21883   */\n      0x20\n        /* \"#utility.yul\":21876:21879   */\n      dup3\n        /* \"#utility.yul\":21872:21884   */\n      add\n        /* \"#utility.yul\":21865:21884   */\n      swap1\n      pop\n        /* \"#utility.yul\":21524:21890   */\n      swap2\n      swap1\n      pop\n      jump\t// out\n        /* \"#utility.yul\":21896:22315   */\n    tag_97:\n        /* \"#utility.yul\":22062:22066   */\n      0x00\n        /* \"#utility.yul\":22100:22102   */\n      0x20\n        /* \"#utility.yul\":22089:22098   */\n      dup3\n        /* \"#utility.yul\":22085:22103   */\n      add\n        /* \"#utility.yul\":22077:22103   */\n      swap1\n      pop\n        /* \"#utility.yul\":22149:22158   */\n      dup2\n        /* \"#utility.yul\":22143:22147   */\n      dup2\n        /* \"#utility.yul\":22139:22159   */\n      sub\n        /* \"#utility.yul\":22135:22136   */\n      0x00\n        /* \"#utility.yul\":22124:22133   */\n      dup4\n        /* \"#utility.yul\":22120:22137   */\n      add\n        /* \"#utility.yul\":22113:22160   */\n      mstore\n        /* \"#utility.yul\":22177:22308   */\n      tag_506\n        /* \"#utility.yul\":22303:22307   */\n      dup2\n        /* \"#utility.yul\":22177:22308   */\n      tag_257\n      jump\t// in\n    tag_506:\n        /* \"#utility.yul\":22169:22308   */\n      swap1\n      pop\n        /* \"#utility.yul\":21896:22315   */\n      swap2\n      swap1\n      pop\n      jump\t// out\n        /* \"#utility.yul\":22321:22501   */\n    tag_258:\n        /* \"#utility.yul\":22369:22446   */\n      0x4e487b7100000000000000000000000000000000000000000000000000000000\n        /* \"#utility.yul\":22366:22367   */\n      0x00\n        /* \"#utility.yul\":22359:22447   */\n      mstore\n        /* \"#utility.yul\":22466:22470   */\n      0x11\n        /* \"#utility.yul\":22463:22464   */\n      0x04\n        /* \"#utility.yul\":22456:22471   */\n      mstore\n        /* \"#utility.yul\":22490:22494   */\n      0x24\n        /* \"#utility.yul\":22487:22488   */\n      0x00\n        /* \"#utility.yul\":22480:22495   */\n      revert\n        /* \"#utility.yul\":22507:22740   */\n    tag_105:\n        /* \"#utility.yul\":22546:22549   */\n      0x00\n        /* \"#utility.yul\":22569:22593   */\n      tag_509\n        /* \"#utility.yul\":22587:22592   */\n      dup3\n        /* \"#utility.yul\":22569:22593   */\n      tag_208\n      jump\t// in\n    tag_509:\n        /* \"#utility.yul\":22560:22593   */\n      swap2\n      pop\n        /* \"#utility.yul\":22615:22681   */\n      0xffffffffffffffffffffffffffffffffffffffffffffffffffffffffffffffff\n        /* \"#utility.yul\":22608:22613   */\n      dup3\n        /* \"#utility.yul\":22605:22682   */\n      eq\n        /* \"#utility.yul\":22602:22705   */\n      iszero\n      tag_510\n      jumpi\n        /* \"#utility.yul\":22685:22703   */\n      tag_511\n      tag_258\n      jump\t// in\n    tag_511:\n        /* \"#utility.yul\":22602:22705   */\n    tag_510:\n        /* \"#utility.yul\":22732:22733   */\n      0x01\n        /* \"#utility.yul\":22725:22730   */\n      dup3\n        /* \"#utility.yul\":22721:22734   */\n      add\n        /* \"#utility.yul\":22714:22734   */\n      swap1\n      pop\n        /* \"#utility.yul\":22507:22740   */\n      swap2\n      swap1\n      pop\n      jump\t// out\n        /* \"#utility.yul\":22746:22913   */\n    tag_259:\n        /* \"#utility.yul\":22886:22905   */\n      0x596f7520616c726561647920766f746564000000000000000000000000000000\n        /* \"#utility.yul\":22882:22883   */\n      0x00\n        /* \"#utility.yul\":22874:22880   */\n      dup3\n        /* \"#utility.yul\":22870:22884   */\n      add\n        /* \"#utility.yul\":22863:22906   */\n      mstore\n        /* \"#utility.yul\":22746:22913   */\n      pop\n      jump\t// out\n        /* \"#utility.yul\":22919:23285   */\n    tag_260:\n        /* \"#utility.yul\":23061:23064   */\n      0x00\n        /* \"#utility.yul\":23082:23149   */\n      tag_514\n        /* \"#utility.yul\":23146:23148   */\n      0x11\n        /* \"#utility.yul\":23141:23144   */\n      dup4\n        /* \"#utility.yul\":23082:23149   */\n      tag_217\n      jump\t// in\n    tag_514:\n        /* \"#utility.yul\":23075:23149   */\n      swap2\n      pop\n        /* \"#utility.yul\":23158:23251   */\n      tag_515\n        /* \"#utility.yul\":23247:23250   */\n      dup3\n        /* \"#utility.yul\":23158:23251   */\n      tag_259\n      jump\t// in\n    tag_515:\n        /* \"#utility.yul\":23276:23278   */\n      0x20\n        /* \"#utility.yul\":23271:23274   */\n      dup3\n        /* \"#utility.yul\":23267:23279   */\n      add\n        /* \"#utility.yul\":23260:23279   */\n      swap1\n      pop\n        /* \"#utility.yul\":22919:23285   */\n      swap2\n      swap1\n      pop\n      jump\t// out\n        /* \"#utility.yul\":23291:23710   */\n    tag_109:\n        /* \"#utility.yul\":23457:23461   */\n      0x00\n        /* \"#utility.yul\":23495:23497   */\n      0x20\n        /* \"#utility.yul\":23484:23493   */\n      dup3\n        /* \"#utility.yul\":23480:23498   */\n      add\n        /* \"#utility.yul\":23472:23498   */\n      swap1\n      pop\n        /* \"#utility.yul\":23544:23553   */\n      dup2\n        /* \"#utility.yul\":23538:23542   */\n      dup2\n        /* \"#utility.yul\":23534:23554   */\n      sub\n        /* \"#utility.yul\":23530:23531   */\n      0x00\n        /* \"#utility.yul\":23519:23528   */\n      dup4\n        /* \"#utility.yul\":23515:23532   */\n      add\n        /* \"#utility.yul\":23508:23555   */\n      mstore\n        /* \"#utility.yul\":23572:23703   */\n      tag_517\n        /* \"#utility.yul\":23698:23702   */\n      dup2\n        /* \"#utility.yul\":23572:23703   */\n      tag_260\n      jump\t// in\n    tag_517:\n        /* \"#utility.yul\":23564:23703   */\n      swap1\n      pop\n        /* \"#utility.yul\":23291:23710   */\n      swap2\n      swap1\n      pop\n      jump\t// out\n        /* \"#utility.yul\":23716:24036   */\n    tag_113:\n        /* \"#utility.yul\":23831:23835   */\n      0x00\n        /* \"#utility.yul\":23869:23871   */\n      0x40\n        /* \"#utility.yul\":23858:23867   */\n      dup3\n        /* \"#utility.yul\":23854:23872   */\n      add\n        /* \"#utility.yul\":23846:23872   */\n      swap1\n      pop\n        /* \"#utility.yul\":23882:23953   */\n      tag_519\n        /* \"#utility.yul\":23950:23951   */\n      0x00\n        /* \"#utility.yul\":23939:23948   */\n      dup4\n        /* \"#utility.yul\":23935:23952   */\n      add\n        /* \"#utility.yul\":23926:23932   */\n      dup6\n        /* \"#utility.yul\":23882:23953   */\n      tag_224\n      jump\t// in\n    tag_519:\n        /* \"#utility.yul\":23963:24029   */\n      tag_520\n        /* \"#utility.yul\":24025:24027   */\n      0x20\n        /* \"#utility.yul\":24014:24023   */\n      dup4\n        /* \"#utility.yul\":24010:24028   */\n      add\n        /* \"#utility.yul\":24001:24007   */\n      dup5\n        /* \"#utility.yul\":23963:24029   */\n      tag_236\n      jump\t// in\n    tag_520:\n        /* \"#utility.yul\":23716:24036   */\n      swap4\n      swap3\n      pop\n      pop\n      pop\n      jump\t// out\n        /* \"#utility.yul\":24042:24222   */\n    tag_118:\n        /* \"#utility.yul\":24090:24167   */\n      0x4e487b7100000000000000000000000000000000000000000000000000000000\n        /* \"#utility.yul\":24087:24088   */\n      0x00\n        /* \"#utility.yul\":24080:24168   */\n      mstore\n        /* \"#utility.yul\":24187:24191   */\n      0x32\n        /* \"#utility.yul\":24184:24185   */\n      0x04\n        /* \"#utility.yul\":24177:24192   */\n      mstore\n        /* \"#utility.yul\":24211:24215   */\n      0x24\n        /* \"#utility.yul\":24208:24209   */\n      0x00\n        /* \"#utility.yul\":24201:24216   */\n      revert\n        /* \"#utility.yul\":24228:24393   */\n    tag_261:\n        /* \"#utility.yul\":24368:24385   */\n      0x4e6f20706f6c6c20637265617465640000000000000000000000000000000000\n        /* \"#utility.yul\":24364:24365   */\n      0x00\n        /* \"#utility.yul\":24356:24362   */\n      dup3\n        /* \"#utility.yul\":24352:24366   */\n      add\n        /* \"#utility.yul\":24345:24386   */\n      mstore\n        /* \"#utility.yul\":24228:24393   */\n      pop\n      jump\t// out\n        /* \"#utility.yul\":24399:24765   */\n    tag_262:\n        /* \"#utility.yul\":24541:24544   */\n      0x00\n        /* \"#utility.yul\":24562:24629   */\n      tag_524\n        /* \"#utility.yul\":24626:24628   */\n      0x0f\n        /* \"#utility.yul\":24621:24624   */\n      dup4\n        /* \"#utility.yul\":24562:24629   */\n      tag_217\n      jump\t// in\n    tag_524:\n        /* \"#utility.yul\":24555:24629   */\n      swap2\n      pop\n        /* \"#utility.yul\":24638:24731   */\n      tag_525\n        /* \"#utility.yul\":24727:24730   */\n      dup3\n        /* \"#utility.yul\":24638:24731   */\n      tag_261\n      jump\t// in\n    tag_525:\n        /* \"#utility.yul\":24756:24758   */\n      0x20\n        /* \"#utility.yul\":24751:24754   */\n      dup3\n        /* \"#utility.yul\":24747:24759   */\n      add\n        /* \"#utility.yul\":24740:24759   */\n      swap1\n      pop\n        /* \"#utility.yul\":24399:24765   */\n      swap2\n      swap1\n      pop\n      jump\t// out\n        /* \"#utility.yul\":24771:25190   */\n    tag_127:\n        /* \"#utility.yul\":24937:24941   */\n      0x00\n        /* \"#utility.yul\":24975:24977   */\n      0x20\n        /* \"#utility.yul\":24964:24973   */\n      dup3\n        /* \"#utility.yul\":24960:24978   */\n      add\n        /* \"#utility.yul\":24952:24978   */\n      swap1\n      pop\n        /* \"#utility.yul\":25024:25033   */\n      dup2\n        /* \"#utility.yul\":25018:25022   */\n      dup2\n        /* \"#utility.yul\":25014:25034   */\n      sub\n        /* \"#utility.yul\":25010:25011   */\n      0x00\n        /* \"#utility.yul\":24999:25008   */\n      dup4\n        /* \"#utility.yul\":24995:25012   */\n      add\n        /* \"#utility.yul\":24988:25035   */\n      mstore\n        /* \"#utility.yul\":25052:25183   */\n      tag_527\n        /* \"#utility.yul\":25178:25182   */\n      dup2\n        /* \"#utility.yul\":25052:25183   */\n      tag_262\n      jump\t// in\n    tag_527:\n        /* \"#utility.yul\":25044:25183   */\n      swap1\n      pop\n        /* \"#utility.yul\":24771:25190   */\n      swap2\n      swap1\n      pop\n      jump\t// out\n        /* \"#utility.yul\":25196:25366   */\n    tag_263:\n        /* \"#utility.yul\":25336:25358   */\n      0x79657420746f20637265617465206120706f6c6c000000000000000000000000\n        /* \"#utility.yul\":25332:25333   */\n      0x00\n        /* \"#utility.yul\":25324:25330   */\n      dup3\n        /* \"#utility.yul\":25320:25334   */\n      add\n        /* \"#utility.yul\":25313:25359   */\n      mstore\n        /* \"#utility.yul\":25196:25366   */\n      pop\n      jump\t// out\n        /* \"#utility.yul\":25372:25738   */\n    tag_264:\n        /* \"#utility.yul\":25514:25517   */\n      0x00\n        /* \"#utility.yul\":25535:25602   */\n      tag_530\n        /* \"#utility.yul\":25599:25601   */\n      0x14\n        /* \"#utility.yul\":25594:25597   */\n      dup4\n        /* \"#utility.yul\":25535:25602   */\n      tag_217\n      jump\t// in\n    tag_530:\n        /* \"#utility.yul\":25528:25602   */\n      swap2\n      pop\n        /* \"#utility.yul\":25611:25704   */\n      tag_531\n        /* \"#utility.yul\":25700:25703   */\n      dup3\n        /* \"#utility.yul\":25611:25704   */\n      tag_263\n      jump\t// in\n    tag_531:\n        /* \"#utility.yul\":25729:25731   */\n      0x20\n        /* \"#utility.yul\":25724:25727   */\n      dup3\n        /* \"#utility.yul\":25720:25732   */\n      add\n        /* \"#utility.yul\":25713:25732   */\n      swap1\n      pop\n        /* \"#utility.yul\":25372:25738   */\n      swap2\n      swap1\n      pop\n      jump\t// out\n        /* \"#utility.yul\":25744:26163   */\n    tag_152:\n        /* \"#utility.yul\":25910:25914   */\n      0x00\n        /* \"#utility.yul\":25948:25950   */\n      0x20\n        /* \"#utility.yul\":25937:25946   */\n      dup3\n        /* \"#utility.yul\":25933:25951   */\n      add\n        /* \"#utility.yul\":25925:25951   */\n      swap1\n      pop\n        /* \"#utility.yul\":25997:26006   */\n      dup2\n        /* \"#utility.yul\":25991:25995   */\n      dup2\n        /* \"#utility.yul\":25987:26007   */\n      sub\n        /* \"#utility.yul\":25983:25984   */\n      0x00\n        /* \"#utility.yul\":25972:25981   */\n      dup4\n        /* \"#utility.yul\":25968:25985   */\n      add\n        /* \"#utility.yul\":25961:26008   */\n      mstore\n        /* \"#utility.yul\":26025:26156   */\n      tag_533\n        /* \"#utility.yul\":26151:26155   */\n      dup2\n        /* \"#utility.yul\":26025:26156   */\n      tag_264\n      jump\t// in\n    tag_533:\n        /* \"#utility.yul\":26017:26156   */\n      swap1\n      pop\n        /* \"#utility.yul\":25744:26163   */\n      swap2\n      swap1\n      pop\n      jump\t// out\n        /* \"#utility.yul\":26169:26349   */\n    tag_155:\n        /* \"#utility.yul\":26217:26294   */\n      0x4e487b7100000000000000000000000000000000000000000000000000000000\n        /* \"#utility.yul\":26214:26215   */\n      0x00\n        /* \"#utility.yul\":26207:26295   */\n      mstore\n        /* \"#utility.yul\":26314:26318   */\n      0x01\n        /* \"#utility.yul\":26311:26312   */\n      0x04\n        /* \"#utility.yul\":26304:26319   */\n      mstore\n        /* \"#utility.yul\":26338:26342   */\n      0x24\n        /* \"#utility.yul\":26335:26336   */\n      0x00\n        /* \"#utility.yul\":26328:26343   */\n      revert\n        /* \"#utility.yul\":26355:26588   */\n    tag_265:\n        /* \"#utility.yul\":26495:26529   */\n      0x6d6178696d756d206e6f206f662063616e646964617465207065722073657373\n        /* \"#utility.yul\":26491:26492   */\n      0x00\n        /* \"#utility.yul\":26483:26489   */\n      dup3\n        /* \"#utility.yul\":26479:26493   */\n      add\n        /* \"#utility.yul\":26472:26530   */\n      mstore\n        /* \"#utility.yul\":26564:26580   */\n      0x696f6e2072656769737465726564000000000000000000000000000000000000\n        /* \"#utility.yul\":26559:26561   */\n      0x20\n        /* \"#utility.yul\":26551:26557   */\n      dup3\n        /* \"#utility.yul\":26547:26562   */\n      add\n        /* \"#utility.yul\":26540:26581   */\n      mstore\n        /* \"#utility.yul\":26355:26588   */\n      pop\n      jump\t// out\n        /* \"#utility.yul\":26594:26960   */\n    tag_266:\n        /* \"#utility.yul\":26736:26739   */\n      0x00\n        /* \"#utility.yul\":26757:26824   */\n      tag_537\n        /* \"#utility.yul\":26821:26823   */\n      0x2e\n        /* \"#utility.yul\":26816:26819   */\n      dup4\n        /* \"#utility.yul\":26757:26824   */\n      tag_217\n      jump\t// in\n    tag_537:\n        /* \"#utility.yul\":26750:26824   */\n      swap2\n      pop\n        /* \"#utility.yul\":26833:26926   */\n      tag_538\n        /* \"#utility.yul\":26922:26925   */\n      dup3\n        /* \"#utility.yul\":26833:26926   */\n      tag_265\n      jump\t// in\n    tag_538:\n        /* \"#utility.yul\":26951:26953   */\n      0x40\n        /* \"#utility.yul\":26946:26949   */\n      dup3\n        /* \"#utility.yul\":26942:26954   */\n      add\n        /* \"#utility.yul\":26935:26954   */\n      swap1\n      pop\n        /* \"#utility.yul\":26594:26960   */\n      swap2\n      swap1\n      pop\n      jump\t// out\n        /* \"#utility.yul\":26966:27385   */\n    tag_158:\n        /* \"#utility.yul\":27132:27136   */\n      0x00\n        /* \"#utility.yul\":27170:27172   */\n      0x20\n        /* \"#utility.yul\":27159:27168   */\n      dup3\n        /* \"#utility.yul\":27155:27173   */\n      add\n        /* \"#utility.yul\":27147:27173   */\n      swap1\n      pop\n        /* \"#utility.yul\":27219:27228   */\n      dup2\n        /* \"#utility.yul\":27213:27217   */\n      dup2\n        /* \"#utility.yul\":27209:27229   */\n      sub\n        /* \"#utility.yul\":27205:27206   */\n      0x00\n        /* \"#utility.yul\":27194:27203   */\n      dup4\n        /* \"#utility.yul\":27190:27207   */\n      add\n        /* \"#utility.yul\":27183:27230   */\n      mstore\n        /* \"#utility.yul\":27247:27378   */\n      tag_540\n        /* \"#utility.yul\":27373:27377   */\n      dup2\n        /* \"#utility.yul\":27247:27378   */\n      tag_266\n      jump\t// in\n    tag_540:\n        /* \"#utility.yul\":27239:27378   */\n      swap1\n      pop\n        /* \"#utility.yul\":26966:27385   */\n      swap2\n      swap1\n      pop\n      jump\t// out\n        /* \"#utility.yul\":27391:27562   */\n    tag_161:\n        /* \"#utility.yul\":27429:27432   */\n      0x00\n        /* \"#utility.yul\":27452:27475   */\n      tag_542\n        /* \"#utility.yul\":27469:27474   */\n      dup3\n        /* \"#utility.yul\":27452:27475   */\n      tag_213\n      jump\t// in\n    tag_542:\n        /* \"#utility.yul\":27443:27475   */\n      swap2\n      pop\n        /* \"#utility.yul\":27497:27503   */\n      0xffff\n        /* \"#utility.yul\":27490:27495   */\n      dup3\n        /* \"#utility.yul\":27487:27504   */\n      eq\n        /* \"#utility.yul\":27484:27527   */\n      iszero\n      tag_543\n      jumpi\n        /* \"#utility.yul\":27507:27525   */\n      tag_544\n      tag_258\n      jump\t// in\n    tag_544:\n        /* \"#utility.yul\":27484:27527   */\n    tag_543:\n        /* \"#utility.yul\":27554:27555   */\n      0x01\n        /* \"#utility.yul\":27547:27552   */\n      dup3\n        /* \"#utility.yul\":27543:27556   */\n      add\n        /* \"#utility.yul\":27536:27556   */\n      swap1\n      pop\n        /* \"#utility.yul\":27391:27562   */\n      swap2\n      swap1\n      pop\n      jump\t// out\n        /* \"#utility.yul\":27568:27790   */\n    tag_163:\n        /* \"#utility.yul\":27661:27665   */\n      0x00\n        /* \"#utility.yul\":27699:27701   */\n      0x20\n        /* \"#utility.yul\":27688:27697   */\n      dup3\n        /* \"#utility.yul\":27684:27702   */\n      add\n        /* \"#utility.yul\":27676:27702   */\n      swap1\n      pop\n        /* \"#utility.yul\":27712:27783   */\n      tag_546\n        /* \"#utility.yul\":27780:27781   */\n      0x00\n        /* \"#utility.yul\":27769:27778   */\n      dup4\n        /* \"#utility.yul\":27765:27782   */\n      add\n        /* \"#utility.yul\":27756:27762   */\n      dup5\n        /* \"#utility.yul\":27712:27783   */\n      tag_224\n      jump\t// in\n    tag_546:\n        /* \"#utility.yul\":27568:27790   */\n      swap3\n      swap2\n      pop\n      pop\n      jump\t// out\n        /* \"#utility.yul\":27796:27962   */\n    tag_267:\n        /* \"#utility.yul\":27936:27954   */\n      0x6e6f74207468652063686169726d616e00000000000000000000000000000000\n        /* \"#utility.yul\":27932:27933   */\n      0x00\n        /* \"#utility.yul\":27924:27930   */\n      dup3\n        /* \"#utility.yul\":27920:27934   */\n      add\n        /* \"#utility.yul\":27913:27955   */\n      mstore\n        /* \"#utility.yul\":27796:27962   */\n      pop\n      jump\t// out\n        /* \"#utility.yul\":27968:28334   */\n    tag_268:\n        /* \"#utility.yul\":28110:28113   */\n      0x00\n        /* \"#utility.yul\":28131:28198   */\n      tag_549\n        /* \"#utility.yul\":28195:28197   */\n      0x10\n        /* \"#utility.yul\":28190:28193   */\n      dup4\n        /* \"#utility.yul\":28131:28198   */\n      tag_217\n      jump\t// in\n    tag_549:\n        /* \"#utility.yul\":28124:28198   */\n      swap2\n      pop\n        /* \"#utility.yul\":28207:28300   */\n      tag_550\n        /* \"#utility.yul\":28296:28299   */\n      dup3\n        /* \"#utility.yul\":28207:28300   */\n      tag_267\n      jump\t// in\n    tag_550:\n        /* \"#utility.yul\":28325:28327   */\n      0x20\n        /* \"#utility.yul\":28320:28323   */\n      dup3\n        /* \"#utility.yul\":28316:28328   */\n      add\n        /* \"#utility.yul\":28309:28328   */\n      swap1\n      pop\n        /* \"#utility.yul\":27968:28334   */\n      swap2\n      swap1\n      pop\n      jump\t// out\n        /* \"#utility.yul\":28340:28759   */\n    tag_174:\n        /* \"#utility.yul\":28506:28510   */\n      0x00\n        /* \"#utility.yul\":28544:28546   */\n      0x20\n        /* \"#utility.yul\":28533:28542   */\n      dup3\n        /* \"#utility.yul\":28529:28547   */\n      add\n        /* \"#utility.yul\":28521:28547   */\n      swap1\n      pop\n        /* \"#utility.yul\":28593:28602   */\n      dup2\n        /* \"#utility.yul\":28587:28591   */\n      dup2\n        /* \"#utility.yul\":28583:28603   */\n      sub\n        /* \"#utility.yul\":28579:28580   */\n      0x00\n        /* \"#utility.yul\":28568:28577   */\n      dup4\n        /* \"#utility.yul\":28564:28581   */\n      add\n        /* \"#utility.yul\":28557:28604   */\n      mstore\n        /* \"#utility.yul\":28621:28752   */\n      tag_552\n        /* \"#utility.yul\":28747:28751   */\n      dup2\n        /* \"#utility.yul\":28621:28752   */\n      tag_268\n      jump\t// in\n    tag_552:\n        /* \"#utility.yul\":28613:28752   */\n      swap1\n      pop\n        /* \"#utility.yul\":28340:28759   */\n      swap2\n      swap1\n      pop\n      jump\t// out\n        /* \"#utility.yul\":28765:28851   */\n    tag_269:\n        /* \"#utility.yul\":28800:28807   */\n      0x00\n        /* \"#utility.yul\":28840:28844   */\n      0xff\n        /* \"#utility.yul\":28833:28838   */\n      dup3\n        /* \"#utility.yul\":28829:28845   */\n      and\n        /* \"#utility.yul\":28818:28845   */\n      swap1\n      pop\n        /* \"#utility.yul\":28765:28851   */\n      swap2\n      swap1\n      pop\n      jump\t// out\n        /* \"#utility.yul\":28857:29094   */\n    tag_179:\n        /* \"#utility.yul\":28895:28898   */\n      0x00\n        /* \"#utility.yul\":28914:28932   */\n      tag_555\n        /* \"#utility.yul\":28930:28931   */\n      dup3\n        /* \"#utility.yul\":28914:28932   */\n      tag_269\n      jump\t// in\n    tag_555:\n        /* \"#utility.yul\":28909:28932   */\n      swap2\n      pop\n        /* \"#utility.yul\":28946:28964   */\n      tag_556\n        /* \"#utility.yul\":28962:28963   */\n      dup4\n        /* \"#utility.yul\":28946:28964   */\n      tag_269\n      jump\t// in\n    tag_556:\n        /* \"#utility.yul\":28941:28964   */\n      swap3\n      pop\n        /* \"#utility.yul\":29036:29037   */\n      dup3\n        /* \"#utility.yul\":29030:29034   */\n      0xff\n        /* \"#utility.yul\":29026:29038   */\n      sub\n        /* \"#utility.yul\":29023:29024   */\n      dup3\n        /* \"#utility.yul\":29020:29039   */\n      gt\n        /* \"#utility.yul\":29017:29062   */\n      iszero\n      tag_557\n      jumpi\n        /* \"#utility.yul\":29042:29060   */\n      tag_558\n      tag_258\n      jump\t// in\n    tag_558:\n        /* \"#utility.yul\":29017:29062   */\n    tag_557:\n        /* \"#utility.yul\":29086:29087   */\n      dup3\n        /* \"#utility.yul\":29083:29084   */\n      dup3\n        /* \"#utility.yul\":29079:29088   */\n      add\n        /* \"#utility.yul\":29072:29088   */\n      swap1\n      pop\n        /* \"#utility.yul\":28857:29094   */\n      swap3\n      swap2\n      pop\n      pop\n      jump\t// out\n        /* \"#utility.yul\":29100:29314   */\n    tag_270:\n        /* \"#utility.yul\":29240:29306   */\n      0x19457468657265756d205369676e6564204d6573736167653a0a333200000000\n        /* \"#utility.yul\":29236:29237   */\n      0x00\n        /* \"#utility.yul\":29228:29234   */\n      dup3\n        /* \"#utility.yul\":29224:29238   */\n      add\n        /* \"#utility.yul\":29217:29307   */\n      mstore\n        /* \"#utility.yul\":29100:29314   */\n      pop\n      jump\t// out\n        /* \"#utility.yul\":29320:29722   */\n    tag_271:\n        /* \"#utility.yul\":29480:29483   */\n      0x00\n        /* \"#utility.yul\":29501:29586   */\n      tag_561\n        /* \"#utility.yul\":29583:29585   */\n      0x1c\n        /* \"#utility.yul\":29578:29581   */\n      dup4\n        /* \"#utility.yul\":29501:29586   */\n      tag_248\n      jump\t// in\n    tag_561:\n        /* \"#utility.yul\":29494:29586   */\n      swap2\n      pop\n        /* \"#utility.yul\":29595:29688   */\n      tag_562\n        /* \"#utility.yul\":29684:29687   */\n      dup3\n        /* \"#utility.yul\":29595:29688   */\n      tag_270\n      jump\t// in\n    tag_562:\n        /* \"#utility.yul\":29713:29715   */\n      0x1c\n        /* \"#utility.yul\":29708:29711   */\n      dup3\n        /* \"#utility.yul\":29704:29716   */\n      add\n        /* \"#utility.yul\":29697:29716   */\n      swap1\n      pop\n        /* \"#utility.yul\":29320:29722   */\n      swap2\n      swap1\n      pop\n      jump\t// out\n        /* \"#utility.yul\":29728:29807   */\n    tag_272:\n        /* \"#utility.yul\":29767:29774   */\n      0x00\n        /* \"#utility.yul\":29796:29801   */\n      dup2\n        /* \"#utility.yul\":29785:29801   */\n      swap1\n      pop\n        /* \"#utility.yul\":29728:29807   */\n      swap2\n      swap1\n      pop\n      jump\t// out\n        /* \"#utility.yul\":29813:29970   */\n    tag_273:\n        /* \"#utility.yul\":29918:29963   */\n      tag_565\n        /* \"#utility.yul\":29938:29962   */\n      tag_566\n        /* \"#utility.yul\":29956:29961   */\n      dup3\n        /* \"#utility.yul\":29938:29962   */\n      tag_211\n      jump\t// in\n    tag_566:\n        /* \"#utility.yul\":29918:29963   */\n      tag_272\n      jump\t// in\n    tag_565:\n        /* \"#utility.yul\":29913:29916   */\n      dup3\n        /* \"#utility.yul\":29906:29964   */\n      mstore\n        /* \"#utility.yul\":29813:29970   */\n      pop\n      pop\n      jump\t// out\n        /* \"#utility.yul\":29976:30498   */\n    tag_184:\n        /* \"#utility.yul\":30189:30192   */\n      0x00\n        /* \"#utility.yul\":30211:30359   */\n      tag_568\n        /* \"#utility.yul\":30355:30358   */\n      dup3\n        /* \"#utility.yul\":30211:30359   */\n      tag_271\n      jump\t// in\n    tag_568:\n        /* \"#utility.yul\":30204:30359   */\n      swap2\n      pop\n        /* \"#utility.yul\":30369:30444   */\n      tag_569\n        /* \"#utility.yul\":30440:30443   */\n      dup3\n        /* \"#utility.yul\":30431:30437   */\n      dup5\n        /* \"#utility.yul\":30369:30444   */\n      tag_273\n      jump\t// in\n    tag_569:\n        /* \"#utility.yul\":30469:30471   */\n      0x20\n        /* \"#utility.yul\":30464:30467   */\n      dup3\n        /* \"#utility.yul\":30460:30472   */\n      add\n        /* \"#utility.yul\":30453:30472   */\n      swap2\n      pop\n        /* \"#utility.yul\":30489:30492   */\n      dup2\n        /* \"#utility.yul\":30482:30492   */\n      swap1\n      pop\n        /* \"#utility.yul\":29976:30498   */\n      swap3\n      swap2\n      pop\n      pop\n      jump\t// out\n        /* \"#utility.yul\":30504:30616   */\n    tag_274:\n        /* \"#utility.yul\":30587:30609   */\n      tag_571\n        /* \"#utility.yul\":30603:30608   */\n      dup2\n        /* \"#utility.yul\":30587:30609   */\n      tag_269\n      jump\t// in\n    tag_571:\n        /* \"#utility.yul\":30582:30585   */\n      dup3\n        /* \"#utility.yul\":30575:30610   */\n      mstore\n        /* \"#utility.yul\":30504:30616   */\n      pop\n      pop\n      jump\t// out\n        /* \"#utility.yul\":30622:31167   */\n    tag_186:\n        /* \"#utility.yul\":30795:30799   */\n      0x00\n        /* \"#utility.yul\":30833:30836   */\n      0x80\n        /* \"#utility.yul\":30822:30831   */\n      dup3\n        /* \"#utility.yul\":30818:30837   */\n      add\n        /* \"#utility.yul\":30810:30837   */\n      swap1\n      pop\n        /* \"#utility.yul\":30847:30918   */\n      tag_573\n        /* \"#utility.yul\":30915:30916   */\n      0x00\n        /* \"#utility.yul\":30904:30913   */\n      dup4\n        /* \"#utility.yul\":30900:30917   */\n      add\n        /* \"#utility.yul\":30891:30897   */\n      dup8\n        /* \"#utility.yul\":30847:30918   */\n      tag_212\n      jump\t// in\n    tag_573:\n        /* \"#utility.yul\":30928:30996   */\n      tag_574\n        /* \"#utility.yul\":30992:30994   */\n      0x20\n        /* \"#utility.yul\":30981:30990   */\n      dup4\n        /* \"#utility.yul\":30977:30995   */\n      add\n        /* \"#utility.yul\":30968:30974   */\n      dup7\n        /* \"#utility.yul\":30928:30996   */\n      tag_274\n      jump\t// in\n    tag_574:\n        /* \"#utility.yul\":31006:31078   */\n      tag_575\n        /* \"#utility.yul\":31074:31076   */\n      0x40\n        /* \"#utility.yul\":31063:31072   */\n      dup4\n        /* \"#utility.yul\":31059:31077   */\n      add\n        /* \"#utility.yul\":31050:31056   */\n      dup6\n        /* \"#utility.yul\":31006:31078   */\n      tag_212\n      jump\t// in\n    tag_575:\n        /* \"#utility.yul\":31088:31160   */\n      tag_576\n        /* \"#utility.yul\":31156:31158   */\n      0x60\n        /* \"#utility.yul\":31145:31154   */\n      dup4\n        /* \"#utility.yul\":31141:31159   */\n      add\n        /* \"#utility.yul\":31132:31138   */\n      dup5\n        /* \"#utility.yul\":31088:31160   */\n      tag_212\n      jump\t// in\n    tag_576:\n        /* \"#utility.yul\":30622:31167   */\n      swap6\n      swap5\n      pop\n      pop\n      pop\n      pop\n      pop\n      jump\t// out\n\n    auxdata: 0xa2646970667358221220a40825fc3e35f7818612614bd43133aa95ebf44398ae1cf31b57384ded9d75d864736f6c634300080a0033\n}\n",
				"bytecode": {
					"linkReferences": {},
					"object": "608060405234801561001057600080fd5b5061225b806100206000396000f3fe6080604052600436106100a05760003560e01c806357f539671161006457806357f53967146101cd57806363ee965a146101f657806367d407df146102365780638579cacd14610273578063af7cbc0d146102b0578063f0e4de22146102ed576100a7565b806301ff993b146100ac5780630968d4b1146100e957806312f0da4b14610127578063498bff00146101505780634fcf1f391461018e576100a7565b366100a757005b600080fd5b3480156100b857600080fd5b506100d360048036038101906100ce9190611424565b610316565b6040516100e091906114c0565b60405180910390f35b3480156100f557600080fd5b50610110600480360381019061010b9190611515565b610351565b60405161011e929190611608565b60405180910390f35b34801561013357600080fd5b5061014e600480360381019061014991906116d9565b6103f5565b005b34801561015c57600080fd5b5061017760048036038101906101729190611778565b610729565b6040516101859291906117d0565b60405180910390f35b34801561019a57600080fd5b506101b560048036038101906101b09190611778565b61081c565b6040516101c4939291906118b7565b60405180910390f35b3480156101d957600080fd5b506101f460048036038101906101ef91906118f5565b610ada565b005b34801561020257600080fd5b5061021d60048036038101906102189190611778565b610d99565b60405161022d949392919061199a565b60405180910390f35b34801561024257600080fd5b5061025d600480360381019061025891906119df565b610e2a565b60405161026a9190611a0c565b60405180910390f35b34801561027f57600080fd5b5061029a60048036038101906102959190611778565b610e42565b6040516102a79190611a0c565b60405180910390f35b3480156102bc57600080fd5b506102d760048036038101906102d29190611778565b610e84565b6040516102e49190611ae5565b60405180910390f35b3480156102f957600080fd5b50610314600480360381019061030f9190611778565b610f38565b005b60003085858585604051602001610331959493929190611bf8565b604051602081830303815290604052805190602001209050949350505050565b60606000806000856040516103669190611c5e565b90815260200160405180910390209050338160000160006101000a81548173ffffffffffffffffffffffffffffffffffffffff021916908373ffffffffffffffffffffffffffffffffffffffff1602179055508361ffff168160020160006101000a81548163ffffffff021916908363ffffffff16021790555084848061ffff16905092509250509250929050565b8383600080826040516104089190611c5e565b90815260200160405180910390209050600115158160030160008573ffffffffffffffffffffffffffffffffffffffff1673ffffffffffffffffffffffffffffffffffffffff16815260200190815260200160002060009054906101000a900460ff161515146104ad576040517f08c379a00000000000000000000000000000000000000000000000000000000081526004016104a490611ce7565b60405180910390fd5b85600080826040516104bf9190611c5e565b90815260200160405180910390209050600115158160020160069054906101000a900460ff16151514610527576040517f08c379a000000000000000000000000000000000000000000000000000000000815260040161051e90611d53565b60405180910390fd5b60006105358a8a8a42610316565b90506000610543828961101d565b9050600073ffffffffffffffffffffffffffffffffffffffff168173ffffffffffffffffffffffffffffffffffffffff16141561057f57600080fd5b600160008273ffffffffffffffffffffffffffffffffffffffff1673ffffffffffffffffffffffffffffffffffffffff1681526020019081526020016000205489146105ca57600080fd5b600160008273ffffffffffffffffffffffffffffffffffffffff1673ffffffffffffffffffffffffffffffffffffffff168152602001908152602001600020600081548092919061061a90611da2565b91905055506000808b6040516106309190611c5e565b90815260200160405180910390209050600015158160040160003373ffffffffffffffffffffffffffffffffffffffff1673ffffffffffffffffffffffffffffffffffffffff16815260200190815260200160002060009054906101000a900460ff161515146106d5576040517f08c379a00000000000000000000000000000000000000000000000000000000081526004016106cc90611e37565b60405180910390fd5b6106e08c8c33611116565b507ff3f16a15f074b71c5138107dfc7c63b80524d5411cb967caa97d8d9f12b2fd6b8c6001604051610713929190611e57565b60405180910390a1505050505050505050505050565b6000806000808460405161073d9190611c5e565b908152602001604051809103902090508060050160008260010160008154811061076a57610769611e80565b5b9060005260206000200160009054906101000a900473ffffffffffffffffffffffffffffffffffffffff1673ffffffffffffffffffffffffffffffffffffffff1673ffffffffffffffffffffffffffffffffffffffff168152602001908152602001600020549250806001016000815481106107e9576107e8611e80565b5b9060005260206000200160009054906101000a900473ffffffffffffffffffffffffffffffffffffffff16915050915091565b6060600080600080856040516108329190611c5e565b90815260200160405180910390209050600073ffffffffffffffffffffffffffffffffffffffff168160000160009054906101000a900473ffffffffffffffffffffffffffffffffffffffff1673ffffffffffffffffffffffffffffffffffffffff1614156108d6576040517f08c379a00000000000000000000000000000000000000000000000000000000081526004016108cd90611efb565b60405180910390fd5b806001018054905067ffffffffffffffff8111156108f7576108f66112c3565b5b6040519080825280602002602001820160405280156109255781602001602082028036833780820191505090505b50935060008060005b83600101805490508111610ac657600084600501600086600101848154811061095a57610959611e80565b5b9060005260206000200160009054906101000a900473ffffffffffffffffffffffffffffffffffffffff1673ffffffffffffffffffffffffffffffffffffffff1673ffffffffffffffffffffffffffffffffffffffff16815260200190815260200160002054905083811115610a11578093508460010182815481106109e3576109e2611e80565b5b9060005260206000200160009054906101000a900473ffffffffffffffffffffffffffffffffffffffff1692505b846005016000866001018481548110610a2d57610a2c611e80565b5b9060005260206000200160009054906101000a900473ffffffffffffffffffffffffffffffffffffffff1673ffffffffffffffffffffffffffffffffffffffff1673ffffffffffffffffffffffffffffffffffffffff16815260200190815260200160002054888381518110610aa657610aa5611e80565b5b602002602001018181525050508080610abe90611da2565b91505061092e565b508581839550955095505050509193909250565b60008082604051610aeb9190611c5e565b90815260200160405180910390209050600073ffffffffffffffffffffffffffffffffffffffff168160000160009054906101000a900473ffffffffffffffffffffffffffffffffffffffff1673ffffffffffffffffffffffffffffffffffffffff161415610b8f576040517f08c379a0000000000000000000000000000000000000000000000000000000008152600401610b8690611f67565b60405180910390fd5b3373ffffffffffffffffffffffffffffffffffffffff168160000160009054906101000a900473ffffffffffffffffffffffffffffffffffffffff1673ffffffffffffffffffffffffffffffffffffffff1614610bef57610bee611f87565b5b8060020160009054906101000a900463ffffffff1663ffffffff168160020160049054906101000a900461ffff1661ffff1610610c61576040517f08c379a0000000000000000000000000000000000000000000000000000000008152600401610c5890612028565b60405180910390fd5b60018160030160008573ffffffffffffffffffffffffffffffffffffffff1673ffffffffffffffffffffffffffffffffffffffff16815260200190815260200160002060006101000a81548160ff02191690831515021790555080600101839080600181540180825580915050600190039060005260206000200160009091909190916101000a81548173ffffffffffffffffffffffffffffffffffffffff021916908373ffffffffffffffffffffffffffffffffffffffff16021790555080600201600481819054906101000a900461ffff1680929190610d4290612048565b91906101000a81548161ffff021916908361ffff160217905550507fc19c59aa93348e8fc54764bc642eca975e2639f44cc683ef8f027e1529cbda3283604051610d8c9190612073565b60405180910390a1505050565b6000818051602081018201805184825260208301602085012081835280955050505050506000915090508060000160009054906101000a900473ffffffffffffffffffffffffffffffffffffffff16908060020160009054906101000a900463ffffffff16908060020160049054906101000a900461ffff16908060020160069054906101000a900460ff16905084565b60016020528060005260406000206000915090505481565b600080600083604051610e559190611c5e565b908152602001604051809103902090508060020160049054906101000a900461ffff1661ffff16915050919050565b606060008083604051610e979190611c5e565b9081526020016040518091039020905080600101805480602002602001604051908101604052809291908181526020018280548015610f2b57602002820191906000526020600020905b8160009054906101000a900473ffffffffffffffffffffffffffffffffffffffff1673ffffffffffffffffffffffffffffffffffffffff1681526020019060010190808311610ee1575b5050505050915050919050565b60008082604051610f499190611c5e565b908152602001604051809103902090503373ffffffffffffffffffffffffffffffffffffffff168160000160009054906101000a900473ffffffffffffffffffffffffffffffffffffffff1673ffffffffffffffffffffffffffffffffffffffff1614610feb576040517f08c379a0000000000000000000000000000000000000000000000000000000008152600401610fe2906120da565b60405180910390fd5b8060020160069054906101000a900460ff16158160020160066101000a81548160ff0219169083151502179055505050565b60008060008060418551146110385760009350505050611110565b6020850151925060408501519150606085015160001a9050601b8160ff16101561106c57601b816110699190612107565b90505b601b8160ff16141580156110845750601c8160ff1614155b156110955760009350505050611110565b6001866040516020016110a891906121ab565b60405160208183030381529060405280519060200120828585604051600081526020016040526040516110de94939291906121e0565b6020604051602081039080840390855afa158015611100573d6000803e3d6000fd5b5050506020604051035193505050505b92915050565b6000806000846040516111299190611c5e565b9081526020016040518091039020905060018160040160008573ffffffffffffffffffffffffffffffffffffffff1673ffffffffffffffffffffffffffffffffffffffff16815260200190815260200160002060006101000a81548160ff0219169083151502179055508060050160008673ffffffffffffffffffffffffffffffffffffffff1673ffffffffffffffffffffffffffffffffffffffff16815260200190815260200160002060008154809291906111e590611da2565b91905055508060050160008673ffffffffffffffffffffffffffffffffffffffff1673ffffffffffffffffffffffffffffffffffffffff168152602001908152602001600020549150509392505050565b6000604051905090565b600080fd5b600080fd5b600073ffffffffffffffffffffffffffffffffffffffff82169050919050565b60006112758261124a565b9050919050565b6112858161126a565b811461129057600080fd5b50565b6000813590506112a28161127c565b92915050565b600080fd5b600080fd5b6000601f19601f8301169050919050565b7f4e487b7100000000000000000000000000000000000000000000000000000000600052604160045260246000fd5b6112fb826112b2565b810181811067ffffffffffffffff8211171561131a576113196112c3565b5b80604052505050565b600061132d611236565b905061133982826112f2565b919050565b600067ffffffffffffffff821115611359576113586112c3565b5b611362826112b2565b9050602081019050919050565b82818337600083830152505050565b600061139161138c8461133e565b611323565b9050828152602081018484840111156113ad576113ac6112ad565b5b6113b884828561136f565b509392505050565b600082601f8301126113d5576113d46112a8565b5b81356113e584826020860161137e565b91505092915050565b6000819050919050565b611401816113ee565b811461140c57600080fd5b50565b60008135905061141e816113f8565b92915050565b6000806000806080858703121561143e5761143d611240565b5b600061144c87828801611293565b945050602085013567ffffffffffffffff81111561146d5761146c611245565b5b611479878288016113c0565b935050604061148a8782880161140f565b925050606061149b8782880161140f565b91505092959194509250565b6000819050919050565b6114ba816114a7565b82525050565b60006020820190506114d560008301846114b1565b92915050565b600061ffff82169050919050565b6114f2816114db565b81146114fd57600080fd5b50565b60008135905061150f816114e9565b92915050565b6000806040838503121561152c5761152b611240565b5b600083013567ffffffffffffffff81111561154a57611549611245565b5b611556858286016113c0565b925050602061156785828601611500565b9150509250929050565b600081519050919050565b600082825260208201905092915050565b60005b838110156115ab578082015181840152602081019050611590565b838111156115ba576000848401525b50505050565b60006115cb82611571565b6115d5818561157c565b93506115e581856020860161158d565b6115ee816112b2565b840191505092915050565b611602816113ee565b82525050565b6000604082019050818103600083015261162281856115c0565b905061163160208301846115f9565b9392505050565b600067ffffffffffffffff821115611653576116526112c3565b5b61165c826112b2565b9050602081019050919050565b600061167c61167784611638565b611323565b905082815260208101848484011115611698576116976112ad565b5b6116a384828561136f565b509392505050565b600082601f8301126116c0576116bf6112a8565b5b81356116d0848260208601611669565b91505092915050565b600080600080608085870312156116f3576116f2611240565b5b600061170187828801611293565b945050602085013567ffffffffffffffff81111561172257611721611245565b5b61172e878288016113c0565b935050604061173f8782880161140f565b925050606085013567ffffffffffffffff8111156117605761175f611245565b5b61176c878288016116ab565b91505092959194509250565b60006020828403121561178e5761178d611240565b5b600082013567ffffffffffffffff8111156117ac576117ab611245565b5b6117b8848285016113c0565b91505092915050565b6117ca8161126a565b82525050565b60006040820190506117e560008301856115f9565b6117f260208301846117c1565b9392505050565b600081519050919050565b600082825260208201905092915050565b6000819050602082019050919050565b61182e816113ee565b82525050565b60006118408383611825565b60208301905092915050565b6000602082019050919050565b6000611864826117f9565b61186e8185611804565b935061187983611815565b8060005b838110156118aa5781516118918882611834565b975061189c8361184c565b92505060018101905061187d565b5085935050505092915050565b600060608201905081810360008301526118d18186611859565b90506118e060208301856117c1565b6118ed60408301846115f9565b949350505050565b6000806040838503121561190c5761190b611240565b5b600061191a85828601611293565b925050602083013567ffffffffffffffff81111561193b5761193a611245565b5b611947858286016113c0565b9150509250929050565b600063ffffffff82169050919050565b61196a81611951565b82525050565b611979816114db565b82525050565b60008115159050919050565b6119948161197f565b82525050565b60006080820190506119af60008301876117c1565b6119bc6020830186611961565b6119c96040830185611970565b6119d6606083018461198b565b95945050505050565b6000602082840312156119f5576119f4611240565b5b6000611a0384828501611293565b91505092915050565b6000602082019050611a2160008301846115f9565b92915050565b600081519050919050565b600082825260208201905092915050565b6000819050602082019050919050565b611a5c8161126a565b82525050565b6000611a6e8383611a53565b60208301905092915050565b6000602082019050919050565b6000611a9282611a27565b611a9c8185611a32565b9350611aa783611a43565b8060005b83811015611ad8578151611abf8882611a62565b9750611aca83611a7a565b925050600181019050611aab565b5085935050505092915050565b60006020820190508181036000830152611aff8184611a87565b905092915050565b60008160601b9050919050565b6000611b1f82611b07565b9050919050565b6000611b3182611b14565b9050919050565b611b49611b448261126a565b611b26565b82525050565b600081905092915050565b7f6d6574617472616e73616374696f6e20566f74696e6720000000000000000000600082015250565b6000611b90601783611b4f565b9150611b9b82611b5a565b601782019050919050565b6000611bb182611571565b611bbb8185611b4f565b9350611bcb81856020860161158d565b80840191505092915050565b6000819050919050565b611bf2611bed826113ee565b611bd7565b82525050565b6000611c048288611b38565b601482019150611c1382611b83565b9150611c1f8287611b38565b601482019150611c2f8286611ba6565b9150611c3b8285611be1565b602082019150611c4b8284611be1565b6020820191508190509695505050505050565b6000611c6a8284611ba6565b915081905092915050565b7f54686973206164647265737320646f6573206e6f74206578697374206173206160008201527f2063616e64696461746500000000000000000000000000000000000000000000602082015250565b6000611cd1602a8361157c565b9150611cdc82611c75565b604082019050919050565b60006020820190508181036000830152611d0081611cc4565b9050919050565b7f766f74696e672068617320656e64656400000000000000000000000000000000600082015250565b6000611d3d60108361157c565b9150611d4882611d07565b602082019050919050565b60006020820190508181036000830152611d6c81611d30565b9050919050565b7f4e487b7100000000000000000000000000000000000000000000000000000000600052601160045260246000fd5b6000611dad826113ee565b91507fffffffffffffffffffffffffffffffffffffffffffffffffffffffffffffffff821415611de057611ddf611d73565b5b600182019050919050565b7f596f7520616c726561647920766f746564000000000000000000000000000000600082015250565b6000611e2160118361157c565b9150611e2c82611deb565b602082019050919050565b60006020820190508181036000830152611e5081611e14565b9050919050565b6000604082019050611e6c60008301856117c1565b611e79602083018461198b565b9392505050565b7f4e487b7100000000000000000000000000000000000000000000000000000000600052603260045260246000fd5b7f4e6f20706f6c6c20637265617465640000000000000000000000000000000000600082015250565b6000611ee5600f8361157c565b9150611ef082611eaf565b602082019050919050565b60006020820190508181036000830152611f1481611ed8565b9050919050565b7f79657420746f20637265617465206120706f6c6c000000000000000000000000600082015250565b6000611f5160148361157c565b9150611f5c82611f1b565b602082019050919050565b60006020820190508181036000830152611f8081611f44565b9050919050565b7f4e487b7100000000000000000000000000000000000000000000000000000000600052600160045260246000fd5b7f6d6178696d756d206e6f206f662063616e64696461746520706572207365737360008201527f696f6e2072656769737465726564000000000000000000000000000000000000602082015250565b6000612012602e8361157c565b915061201d82611fb6565b604082019050919050565b6000602082019050818103600083015261204181612005565b9050919050565b6000612053826114db565b915061ffff82141561206857612067611d73565b5b600182019050919050565b600060208201905061208860008301846117c1565b92915050565b7f6e6f74207468652063686169726d616e00000000000000000000000000000000600082015250565b60006120c460108361157c565b91506120cf8261208e565b602082019050919050565b600060208201905081810360008301526120f3816120b7565b9050919050565b600060ff82169050919050565b6000612112826120fa565b915061211d836120fa565b92508260ff0382111561213357612132611d73565b5b828201905092915050565b7f19457468657265756d205369676e6564204d6573736167653a0a333200000000600082015250565b6000612174601c83611b4f565b915061217f8261213e565b601c82019050919050565b6000819050919050565b6121a56121a0826114a7565b61218a565b82525050565b60006121b682612167565b91506121c28284612194565b60208201915081905092915050565b6121da816120fa565b82525050565b60006080820190506121f560008301876114b1565b61220260208301866121d1565b61220f60408301856114b1565b61221c60608301846114b1565b9594505050505056fea2646970667358221220a40825fc3e35f7818612614bd43133aa95ebf44398ae1cf31b57384ded9d75d864736f6c634300080a0033",
					"opcodes": "PUSH1 0x80 PUSH1 0x40 MSTORE CALLVALUE DUP1 ISZERO PUSH2 0x10 JUMPI PUSH1 0x0 DUP1 REVERT JUMPDEST POP PUSH2 0x225B DUP1 PUSH2 0x20 PUSH1 0x0 CODECOPY PUSH1 0x0 RETURN INVALID PUSH1 0x80 PUSH1 0x40 MSTORE PUSH1 0x4 CALLDATASIZE LT PUSH2 0xA0 JUMPI PUSH1 0x0 CALLDATALOAD PUSH1 0xE0 SHR DUP1 PUSH4 0x57F53967 GT PUSH2 0x64 JUMPI DUP1 PUSH4 0x57F53967 EQ PUSH2 0x1CD JUMPI DUP1 PUSH4 0x63EE965A EQ PUSH2 0x1F6 JUMPI DUP1 PUSH4 0x67D407DF EQ PUSH2 0x236 JUMPI DUP1 PUSH4 0x8579CACD EQ PUSH2 0x273 JUMPI DUP1 PUSH4 0xAF7CBC0D EQ PUSH2 0x2B0 JUMPI DUP1 PUSH4 0xF0E4DE22 EQ PUSH2 0x2ED JUMPI PUSH2 0xA7 JUMP JUMPDEST DUP1 PUSH4 0x1FF993B EQ PUSH2 0xAC JUMPI DUP1 PUSH4 0x968D4B1 EQ PUSH2 0xE9 JUMPI DUP1 PUSH4 0x12F0DA4B EQ PUSH2 0x127 JUMPI DUP1 PUSH4 0x498BFF00 EQ PUSH2 0x150 JUMPI DUP1 PUSH4 0x4FCF1F39 EQ PUSH2 0x18E JUMPI PUSH2 0xA7 JUMP JUMPDEST CALLDATASIZE PUSH2 0xA7 JUMPI STOP JUMPDEST PUSH1 0x0 DUP1 REVERT JUMPDEST CALLVALUE DUP1 ISZERO PUSH2 0xB8 JUMPI PUSH1 0x0 DUP1 REVERT JUMPDEST POP PUSH2 0xD3 PUSH1 0x4 DUP1 CALLDATASIZE SUB DUP2 ADD SWAP1 PUSH2 0xCE SWAP2 SWAP1 PUSH2 0x1424 JUMP JUMPDEST PUSH2 0x316 JUMP JUMPDEST PUSH1 0x40 MLOAD PUSH2 0xE0 SWAP2 SWAP1 PUSH2 0x14C0 JUMP JUMPDEST PUSH1 0x40 MLOAD DUP1 SWAP2 SUB SWAP1 RETURN JUMPDEST CALLVALUE DUP1 ISZERO PUSH2 0xF5 JUMPI PUSH1 0x0 DUP1 REVERT JUMPDEST POP PUSH2 0x110 PUSH1 0x4 DUP1 CALLDATASIZE SUB DUP2 ADD SWAP1 PUSH2 0x10B SWAP2 SWAP1 PUSH2 0x1515 JUMP JUMPDEST PUSH2 0x351 JUMP JUMPDEST PUSH1 0x40 MLOAD PUSH2 0x11E SWAP3 SWAP2 SWAP1 PUSH2 0x1608 JUMP JUMPDEST PUSH1 0x40 MLOAD DUP1 SWAP2 SUB SWAP1 RETURN JUMPDEST CALLVALUE DUP1 ISZERO PUSH2 0x133 JUMPI PUSH1 0x0 DUP1 REVERT JUMPDEST POP PUSH2 0x14E PUSH1 0x4 DUP1 CALLDATASIZE SUB DUP2 ADD SWAP1 PUSH2 0x149 SWAP2 SWAP1 PUSH2 0x16D9 JUMP JUMPDEST PUSH2 0x3F5 JUMP JUMPDEST STOP JUMPDEST CALLVALUE DUP1 ISZERO PUSH2 0x15C JUMPI PUSH1 0x0 DUP1 REVERT JUMPDEST POP PUSH2 0x177 PUSH1 0x4 DUP1 CALLDATASIZE SUB DUP2 ADD SWAP1 PUSH2 0x172 SWAP2 SWAP1 PUSH2 0x1778 JUMP JUMPDEST PUSH2 0x729 JUMP JUMPDEST PUSH1 0x40 MLOAD PUSH2 0x185 SWAP3 SWAP2 SWAP1 PUSH2 0x17D0 JUMP JUMPDEST PUSH1 0x40 MLOAD DUP1 SWAP2 SUB SWAP1 RETURN JUMPDEST CALLVALUE DUP1 ISZERO PUSH2 0x19A JUMPI PUSH1 0x0 DUP1 REVERT JUMPDEST POP PUSH2 0x1B5 PUSH1 0x4 DUP1 CALLDATASIZE SUB DUP2 ADD SWAP1 PUSH2 0x1B0 SWAP2 SWAP1 PUSH2 0x1778 JUMP JUMPDEST PUSH2 0x81C JUMP JUMPDEST PUSH1 0x40 MLOAD PUSH2 0x1C4 SWAP4 SWAP3 SWAP2 SWAP1 PUSH2 0x18B7 JUMP JUMPDEST PUSH1 0x40 MLOAD DUP1 SWAP2 SUB SWAP1 RETURN JUMPDEST CALLVALUE DUP1 ISZERO PUSH2 0x1D9 JUMPI PUSH1 0x0 DUP1 REVERT JUMPDEST POP PUSH2 0x1F4 PUSH1 0x4 DUP1 CALLDATASIZE SUB DUP2 ADD SWAP1 PUSH2 0x1EF SWAP2 SWAP1 PUSH2 0x18F5 JUMP JUMPDEST PUSH2 0xADA JUMP JUMPDEST STOP JUMPDEST CALLVALUE DUP1 ISZERO PUSH2 0x202 JUMPI PUSH1 0x0 DUP1 REVERT JUMPDEST POP PUSH2 0x21D PUSH1 0x4 DUP1 CALLDATASIZE SUB DUP2 ADD SWAP1 PUSH2 0x218 SWAP2 SWAP1 PUSH2 0x1778 JUMP JUMPDEST PUSH2 0xD99 JUMP JUMPDEST PUSH1 0x40 MLOAD PUSH2 0x22D SWAP5 SWAP4 SWAP3 SWAP2 SWAP1 PUSH2 0x199A JUMP JUMPDEST PUSH1 0x40 MLOAD DUP1 SWAP2 SUB SWAP1 RETURN JUMPDEST CALLVALUE DUP1 ISZERO PUSH2 0x242 JUMPI PUSH1 0x0 DUP1 REVERT JUMPDEST POP PUSH2 0x25D PUSH1 0x4 DUP1 CALLDATASIZE SUB DUP2 ADD SWAP1 PUSH2 0x258 SWAP2 SWAP1 PUSH2 0x19DF JUMP JUMPDEST PUSH2 0xE2A JUMP JUMPDEST PUSH1 0x40 MLOAD PUSH2 0x26A SWAP2 SWAP1 PUSH2 0x1A0C JUMP JUMPDEST PUSH1 0x40 MLOAD DUP1 SWAP2 SUB SWAP1 RETURN JUMPDEST CALLVALUE DUP1 ISZERO PUSH2 0x27F JUMPI PUSH1 0x0 DUP1 REVERT JUMPDEST POP PUSH2 0x29A PUSH1 0x4 DUP1 CALLDATASIZE SUB DUP2 ADD SWAP1 PUSH2 0x295 SWAP2 SWAP1 PUSH2 0x1778 JUMP JUMPDEST PUSH2 0xE42 JUMP JUMPDEST PUSH1 0x40 MLOAD PUSH2 0x2A7 SWAP2 SWAP1 PUSH2 0x1A0C JUMP JUMPDEST PUSH1 0x40 MLOAD DUP1 SWAP2 SUB SWAP1 RETURN JUMPDEST CALLVALUE DUP1 ISZERO PUSH2 0x2BC JUMPI PUSH1 0x0 DUP1 REVERT JUMPDEST POP PUSH2 0x2D7 PUSH1 0x4 DUP1 CALLDATASIZE SUB DUP2 ADD SWAP1 PUSH2 0x2D2 SWAP2 SWAP1 PUSH2 0x1778 JUMP JUMPDEST PUSH2 0xE84 JUMP JUMPDEST PUSH1 0x40 MLOAD PUSH2 0x2E4 SWAP2 SWAP1 PUSH2 0x1AE5 JUMP JUMPDEST PUSH1 0x40 MLOAD DUP1 SWAP2 SUB SWAP1 RETURN JUMPDEST CALLVALUE DUP1 ISZERO PUSH2 0x2F9 JUMPI PUSH1 0x0 DUP1 REVERT JUMPDEST POP PUSH2 0x314 PUSH1 0x4 DUP1 CALLDATASIZE SUB DUP2 ADD SWAP1 PUSH2 0x30F SWAP2 SWAP1 PUSH2 0x1778 JUMP JUMPDEST PUSH2 0xF38 JUMP JUMPDEST STOP JUMPDEST PUSH1 0x0 ADDRESS DUP6 DUP6 DUP6 DUP6 PUSH1 0x40 MLOAD PUSH1 0x20 ADD PUSH2 0x331 SWAP6 SWAP5 SWAP4 SWAP3 SWAP2 SWAP1 PUSH2 0x1BF8 JUMP JUMPDEST PUSH1 0x40 MLOAD PUSH1 0x20 DUP2 DUP4 SUB SUB DUP2 MSTORE SWAP1 PUSH1 0x40 MSTORE DUP1 MLOAD SWAP1 PUSH1 0x20 ADD KECCAK256 SWAP1 POP SWAP5 SWAP4 POP POP POP POP JUMP JUMPDEST PUSH1 0x60 PUSH1 0x0 DUP1 PUSH1 0x0 DUP6 PUSH1 0x40 MLOAD PUSH2 0x366 SWAP2 SWAP1 PUSH2 0x1C5E JUMP JUMPDEST SWAP1 DUP2 MSTORE PUSH1 0x20 ADD PUSH1 0x40 MLOAD DUP1 SWAP2 SUB SWAP1 KECCAK256 SWAP1 POP CALLER DUP2 PUSH1 0x0 ADD PUSH1 0x0 PUSH2 0x100 EXP DUP2 SLOAD DUP2 PUSH20 0xFFFFFFFFFFFFFFFFFFFFFFFFFFFFFFFFFFFFFFFF MUL NOT AND SWAP1 DUP4 PUSH20 0xFFFFFFFFFFFFFFFFFFFFFFFFFFFFFFFFFFFFFFFF AND MUL OR SWAP1 SSTORE POP DUP4 PUSH2 0xFFFF AND DUP2 PUSH1 0x2 ADD PUSH1 0x0 PUSH2 0x100 EXP DUP2 SLOAD DUP2 PUSH4 0xFFFFFFFF MUL NOT AND SWAP1 DUP4 PUSH4 0xFFFFFFFF AND MUL OR SWAP1 SSTORE POP DUP5 DUP5 DUP1 PUSH2 0xFFFF AND SWAP1 POP SWAP3 POP SWAP3 POP POP SWAP3 POP SWAP3 SWAP1 POP JUMP JUMPDEST DUP4 DUP4 PUSH1 0x0 DUP1 DUP3 PUSH1 0x40 MLOAD PUSH2 0x408 SWAP2 SWAP1 PUSH2 0x1C5E JUMP JUMPDEST SWAP1 DUP2 MSTORE PUSH1 0x20 ADD PUSH1 0x40 MLOAD DUP1 SWAP2 SUB SWAP1 KECCAK256 SWAP1 POP PUSH1 0x1 ISZERO ISZERO DUP2 PUSH1 0x3 ADD PUSH1 0x0 DUP6 PUSH20 0xFFFFFFFFFFFFFFFFFFFFFFFFFFFFFFFFFFFFFFFF AND PUSH20 0xFFFFFFFFFFFFFFFFFFFFFFFFFFFFFFFFFFFFFFFF AND DUP2 MSTORE PUSH1 0x20 ADD SWAP1 DUP2 MSTORE PUSH1 0x20 ADD PUSH1 0x0 KECCAK256 PUSH1 0x0 SWAP1 SLOAD SWAP1 PUSH2 0x100 EXP SWAP1 DIV PUSH1 0xFF AND ISZERO ISZERO EQ PUSH2 0x4AD JUMPI PUSH1 0x40 MLOAD PUSH32 0x8C379A000000000000000000000000000000000000000000000000000000000 DUP2 MSTORE PUSH1 0x4 ADD PUSH2 0x4A4 SWAP1 PUSH2 0x1CE7 JUMP JUMPDEST PUSH1 0x40 MLOAD DUP1 SWAP2 SUB SWAP1 REVERT JUMPDEST DUP6 PUSH1 0x0 DUP1 DUP3 PUSH1 0x40 MLOAD PUSH2 0x4BF SWAP2 SWAP1 PUSH2 0x1C5E JUMP JUMPDEST SWAP1 DUP2 MSTORE PUSH1 0x20 ADD PUSH1 0x40 MLOAD DUP1 SWAP2 SUB SWAP1 KECCAK256 SWAP1 POP PUSH1 0x1 ISZERO ISZERO DUP2 PUSH1 0x2 ADD PUSH1 0x6 SWAP1 SLOAD SWAP1 PUSH2 0x100 EXP SWAP1 DIV PUSH1 0xFF AND ISZERO ISZERO EQ PUSH2 0x527 JUMPI PUSH1 0x40 MLOAD PUSH32 0x8C379A000000000000000000000000000000000000000000000000000000000 DUP2 MSTORE PUSH1 0x4 ADD PUSH2 0x51E SWAP1 PUSH2 0x1D53 JUMP JUMPDEST PUSH1 0x40 MLOAD DUP1 SWAP2 SUB SWAP1 REVERT JUMPDEST PUSH1 0x0 PUSH2 0x535 DUP11 DUP11 DUP11 TIMESTAMP PUSH2 0x316 JUMP JUMPDEST SWAP1 POP PUSH1 0x0 PUSH2 0x543 DUP3 DUP10 PUSH2 0x101D JUMP JUMPDEST SWAP1 POP PUSH1 0x0 PUSH20 0xFFFFFFFFFFFFFFFFFFFFFFFFFFFFFFFFFFFFFFFF AND DUP2 PUSH20 0xFFFFFFFFFFFFFFFFFFFFFFFFFFFFFFFFFFFFFFFF AND EQ ISZERO PUSH2 0x57F JUMPI PUSH1 0x0 DUP1 REVERT JUMPDEST PUSH1 0x1 PUSH1 0x0 DUP3 PUSH20 0xFFFFFFFFFFFFFFFFFFFFFFFFFFFFFFFFFFFFFFFF AND PUSH20 0xFFFFFFFFFFFFFFFFFFFFFFFFFFFFFFFFFFFFFFFF AND DUP2 MSTORE PUSH1 0x20 ADD SWAP1 DUP2 MSTORE PUSH1 0x20 ADD PUSH1 0x0 KECCAK256 SLOAD DUP10 EQ PUSH2 0x5CA JUMPI PUSH1 0x0 DUP1 REVERT JUMPDEST PUSH1 0x1 PUSH1 0x0 DUP3 PUSH20 0xFFFFFFFFFFFFFFFFFFFFFFFFFFFFFFFFFFFFFFFF AND PUSH20 0xFFFFFFFFFFFFFFFFFFFFFFFFFFFFFFFFFFFFFFFF AND DUP2 MSTORE PUSH1 0x20 ADD SWAP1 DUP2 MSTORE PUSH1 0x20 ADD PUSH1 0x0 KECCAK256 PUSH1 0x0 DUP2 SLOAD DUP1 SWAP3 SWAP2 SWAP1 PUSH2 0x61A SWAP1 PUSH2 0x1DA2 JUMP JUMPDEST SWAP2 SWAP1 POP SSTORE POP PUSH1 0x0 DUP1 DUP12 PUSH1 0x40 MLOAD PUSH2 0x630 SWAP2 SWAP1 PUSH2 0x1C5E JUMP JUMPDEST SWAP1 DUP2 MSTORE PUSH1 0x20 ADD PUSH1 0x40 MLOAD DUP1 SWAP2 SUB SWAP1 KECCAK256 SWAP1 POP PUSH1 0x0 ISZERO ISZERO DUP2 PUSH1 0x4 ADD PUSH1 0x0 CALLER PUSH20 0xFFFFFFFFFFFFFFFFFFFFFFFFFFFFFFFFFFFFFFFF AND PUSH20 0xFFFFFFFFFFFFFFFFFFFFFFFFFFFFFFFFFFFFFFFF AND DUP2 MSTORE PUSH1 0x20 ADD SWAP1 DUP2 MSTORE PUSH1 0x20 ADD PUSH1 0x0 KECCAK256 PUSH1 0x0 SWAP1 SLOAD SWAP1 PUSH2 0x100 EXP SWAP1 DIV PUSH1 0xFF AND ISZERO ISZERO EQ PUSH2 0x6D5 JUMPI PUSH1 0x40 MLOAD PUSH32 0x8C379A000000000000000000000000000000000000000000000000000000000 DUP2 MSTORE PUSH1 0x4 ADD PUSH2 0x6CC SWAP1 PUSH2 0x1E37 JUMP JUMPDEST PUSH1 0x40 MLOAD DUP1 SWAP2 SUB SWAP1 REVERT JUMPDEST PUSH2 0x6E0 DUP13 DUP13 CALLER PUSH2 0x1116 JUMP JUMPDEST POP PUSH32 0xF3F16A15F074B71C5138107DFC7C63B80524D5411CB967CAA97D8D9F12B2FD6B DUP13 PUSH1 0x1 PUSH1 0x40 MLOAD PUSH2 0x713 SWAP3 SWAP2 SWAP1 PUSH2 0x1E57 JUMP JUMPDEST PUSH1 0x40 MLOAD DUP1 SWAP2 SUB SWAP1 LOG1 POP POP POP POP POP POP POP POP POP POP POP POP JUMP JUMPDEST PUSH1 0x0 DUP1 PUSH1 0x0 DUP1 DUP5 PUSH1 0x40 MLOAD PUSH2 0x73D SWAP2 SWAP1 PUSH2 0x1C5E JUMP JUMPDEST SWAP1 DUP2 MSTORE PUSH1 0x20 ADD PUSH1 0x40 MLOAD DUP1 SWAP2 SUB SWAP1 KECCAK256 SWAP1 POP DUP1 PUSH1 0x5 ADD PUSH1 0x0 DUP3 PUSH1 0x1 ADD PUSH1 0x0 DUP2 SLOAD DUP2 LT PUSH2 0x76A JUMPI PUSH2 0x769 PUSH2 0x1E80 JUMP JUMPDEST JUMPDEST SWAP1 PUSH1 0x0 MSTORE PUSH1 0x20 PUSH1 0x0 KECCAK256 ADD PUSH1 0x0 SWAP1 SLOAD SWAP1 PUSH2 0x100 EXP SWAP1 DIV PUSH20 0xFFFFFFFFFFFFFFFFFFFFFFFFFFFFFFFFFFFFFFFF AND PUSH20 0xFFFFFFFFFFFFFFFFFFFFFFFFFFFFFFFFFFFFFFFF AND PUSH20 0xFFFFFFFFFFFFFFFFFFFFFFFFFFFFFFFFFFFFFFFF AND DUP2 MSTORE PUSH1 0x20 ADD SWAP1 DUP2 MSTORE PUSH1 0x20 ADD PUSH1 0x0 KECCAK256 SLOAD SWAP3 POP DUP1 PUSH1 0x1 ADD PUSH1 0x0 DUP2 SLOAD DUP2 LT PUSH2 0x7E9 JUMPI PUSH2 0x7E8 PUSH2 0x1E80 JUMP JUMPDEST JUMPDEST SWAP1 PUSH1 0x0 MSTORE PUSH1 0x20 PUSH1 0x0 KECCAK256 ADD PUSH1 0x0 SWAP1 SLOAD SWAP1 PUSH2 0x100 EXP SWAP1 DIV PUSH20 0xFFFFFFFFFFFFFFFFFFFFFFFFFFFFFFFFFFFFFFFF AND SWAP2 POP POP SWAP2 POP SWAP2 JUMP JUMPDEST PUSH1 0x60 PUSH1 0x0 DUP1 PUSH1 0x0 DUP1 DUP6 PUSH1 0x40 MLOAD PUSH2 0x832 SWAP2 SWAP1 PUSH2 0x1C5E JUMP JUMPDEST SWAP1 DUP2 MSTORE PUSH1 0x20 ADD PUSH1 0x40 MLOAD DUP1 SWAP2 SUB SWAP1 KECCAK256 SWAP1 POP PUSH1 0x0 PUSH20 0xFFFFFFFFFFFFFFFFFFFFFFFFFFFFFFFFFFFFFFFF AND DUP2 PUSH1 0x0 ADD PUSH1 0x0 SWAP1 SLOAD SWAP1 PUSH2 0x100 EXP SWAP1 DIV PUSH20 0xFFFFFFFFFFFFFFFFFFFFFFFFFFFFFFFFFFFFFFFF AND PUSH20 0xFFFFFFFFFFFFFFFFFFFFFFFFFFFFFFFFFFFFFFFF AND EQ ISZERO PUSH2 0x8D6 JUMPI PUSH1 0x40 MLOAD PUSH32 0x8C379A000000000000000000000000000000000000000000000000000000000 DUP2 MSTORE PUSH1 0x4 ADD PUSH2 0x8CD SWAP1 PUSH2 0x1EFB JUMP JUMPDEST PUSH1 0x40 MLOAD DUP1 SWAP2 SUB SWAP1 REVERT JUMPDEST DUP1 PUSH1 0x1 ADD DUP1 SLOAD SWAP1 POP PUSH8 0xFFFFFFFFFFFFFFFF DUP2 GT ISZERO PUSH2 0x8F7 JUMPI PUSH2 0x8F6 PUSH2 0x12C3 JUMP JUMPDEST JUMPDEST PUSH1 0x40 MLOAD SWAP1 DUP1 DUP3 MSTORE DUP1 PUSH1 0x20 MUL PUSH1 0x20 ADD DUP3 ADD PUSH1 0x40 MSTORE DUP1 ISZERO PUSH2 0x925 JUMPI DUP2 PUSH1 0x20 ADD PUSH1 0x20 DUP3 MUL DUP1 CALLDATASIZE DUP4 CALLDATACOPY DUP1 DUP3 ADD SWAP2 POP POP SWAP1 POP JUMPDEST POP SWAP4 POP PUSH1 0x0 DUP1 PUSH1 0x0 JUMPDEST DUP4 PUSH1 0x1 ADD DUP1 SLOAD SWAP1 POP DUP2 GT PUSH2 0xAC6 JUMPI PUSH1 0x0 DUP5 PUSH1 0x5 ADD PUSH1 0x0 DUP7 PUSH1 0x1 ADD DUP5 DUP2 SLOAD DUP2 LT PUSH2 0x95A JUMPI PUSH2 0x959 PUSH2 0x1E80 JUMP JUMPDEST JUMPDEST SWAP1 PUSH1 0x0 MSTORE PUSH1 0x20 PUSH1 0x0 KECCAK256 ADD PUSH1 0x0 SWAP1 SLOAD SWAP1 PUSH2 0x100 EXP SWAP1 DIV PUSH20 0xFFFFFFFFFFFFFFFFFFFFFFFFFFFFFFFFFFFFFFFF AND PUSH20 0xFFFFFFFFFFFFFFFFFFFFFFFFFFFFFFFFFFFFFFFF AND PUSH20 0xFFFFFFFFFFFFFFFFFFFFFFFFFFFFFFFFFFFFFFFF AND DUP2 MSTORE PUSH1 0x20 ADD SWAP1 DUP2 MSTORE PUSH1 0x20 ADD PUSH1 0x0 KECCAK256 SLOAD SWAP1 POP DUP4 DUP2 GT ISZERO PUSH2 0xA11 JUMPI DUP1 SWAP4 POP DUP5 PUSH1 0x1 ADD DUP3 DUP2 SLOAD DUP2 LT PUSH2 0x9E3 JUMPI PUSH2 0x9E2 PUSH2 0x1E80 JUMP JUMPDEST JUMPDEST SWAP1 PUSH1 0x0 MSTORE PUSH1 0x20 PUSH1 0x0 KECCAK256 ADD PUSH1 0x0 SWAP1 SLOAD SWAP1 PUSH2 0x100 EXP SWAP1 DIV PUSH20 0xFFFFFFFFFFFFFFFFFFFFFFFFFFFFFFFFFFFFFFFF AND SWAP3 POP JUMPDEST DUP5 PUSH1 0x5 ADD PUSH1 0x0 DUP7 PUSH1 0x1 ADD DUP5 DUP2 SLOAD DUP2 LT PUSH2 0xA2D JUMPI PUSH2 0xA2C PUSH2 0x1E80 JUMP JUMPDEST JUMPDEST SWAP1 PUSH1 0x0 MSTORE PUSH1 0x20 PUSH1 0x0 KECCAK256 ADD PUSH1 0x0 SWAP1 SLOAD SWAP1 PUSH2 0x100 EXP SWAP1 DIV PUSH20 0xFFFFFFFFFFFFFFFFFFFFFFFFFFFFFFFFFFFFFFFF AND PUSH20 0xFFFFFFFFFFFFFFFFFFFFFFFFFFFFFFFFFFFFFFFF AND PUSH20 0xFFFFFFFFFFFFFFFFFFFFFFFFFFFFFFFFFFFFFFFF AND DUP2 MSTORE PUSH1 0x20 ADD SWAP1 DUP2 MSTORE PUSH1 0x20 ADD PUSH1 0x0 KECCAK256 SLOAD DUP9 DUP4 DUP2 MLOAD DUP2 LT PUSH2 0xAA6 JUMPI PUSH2 0xAA5 PUSH2 0x1E80 JUMP JUMPDEST JUMPDEST PUSH1 0x20 MUL PUSH1 0x20 ADD ADD DUP2 DUP2 MSTORE POP POP POP DUP1 DUP1 PUSH2 0xABE SWAP1 PUSH2 0x1DA2 JUMP JUMPDEST SWAP2 POP POP PUSH2 0x92E JUMP JUMPDEST POP DUP6 DUP2 DUP4 SWAP6 POP SWAP6 POP SWAP6 POP POP POP POP SWAP2 SWAP4 SWAP1 SWAP3 POP JUMP JUMPDEST PUSH1 0x0 DUP1 DUP3 PUSH1 0x40 MLOAD PUSH2 0xAEB SWAP2 SWAP1 PUSH2 0x1C5E JUMP JUMPDEST SWAP1 DUP2 MSTORE PUSH1 0x20 ADD PUSH1 0x40 MLOAD DUP1 SWAP2 SUB SWAP1 KECCAK256 SWAP1 POP PUSH1 0x0 PUSH20 0xFFFFFFFFFFFFFFFFFFFFFFFFFFFFFFFFFFFFFFFF AND DUP2 PUSH1 0x0 ADD PUSH1 0x0 SWAP1 SLOAD SWAP1 PUSH2 0x100 EXP SWAP1 DIV PUSH20 0xFFFFFFFFFFFFFFFFFFFFFFFFFFFFFFFFFFFFFFFF AND PUSH20 0xFFFFFFFFFFFFFFFFFFFFFFFFFFFFFFFFFFFFFFFF AND EQ ISZERO PUSH2 0xB8F JUMPI PUSH1 0x40 MLOAD PUSH32 0x8C379A000000000000000000000000000000000000000000000000000000000 DUP2 MSTORE PUSH1 0x4 ADD PUSH2 0xB86 SWAP1 PUSH2 0x1F67 JUMP JUMPDEST PUSH1 0x40 MLOAD DUP1 SWAP2 SUB SWAP1 REVERT JUMPDEST CALLER PUSH20 0xFFFFFFFFFFFFFFFFFFFFFFFFFFFFFFFFFFFFFFFF AND DUP2 PUSH1 0x0 ADD PUSH1 0x0 SWAP1 SLOAD SWAP1 PUSH2 0x100 EXP SWAP1 DIV PUSH20 0xFFFFFFFFFFFFFFFFFFFFFFFFFFFFFFFFFFFFFFFF AND PUSH20 0xFFFFFFFFFFFFFFFFFFFFFFFFFFFFFFFFFFFFFFFF AND EQ PUSH2 0xBEF JUMPI PUSH2 0xBEE PUSH2 0x1F87 JUMP JUMPDEST JUMPDEST DUP1 PUSH1 0x2 ADD PUSH1 0x0 SWAP1 SLOAD SWAP1 PUSH2 0x100 EXP SWAP1 DIV PUSH4 0xFFFFFFFF AND PUSH4 0xFFFFFFFF AND DUP2 PUSH1 0x2 ADD PUSH1 0x4 SWAP1 SLOAD SWAP1 PUSH2 0x100 EXP SWAP1 DIV PUSH2 0xFFFF AND PUSH2 0xFFFF AND LT PUSH2 0xC61 JUMPI PUSH1 0x40 MLOAD PUSH32 0x8C379A000000000000000000000000000000000000000000000000000000000 DUP2 MSTORE PUSH1 0x4 ADD PUSH2 0xC58 SWAP1 PUSH2 0x2028 JUMP JUMPDEST PUSH1 0x40 MLOAD DUP1 SWAP2 SUB SWAP1 REVERT JUMPDEST PUSH1 0x1 DUP2 PUSH1 0x3 ADD PUSH1 0x0 DUP6 PUSH20 0xFFFFFFFFFFFFFFFFFFFFFFFFFFFFFFFFFFFFFFFF AND PUSH20 0xFFFFFFFFFFFFFFFFFFFFFFFFFFFFFFFFFFFFFFFF AND DUP2 MSTORE PUSH1 0x20 ADD SWAP1 DUP2 MSTORE PUSH1 0x20 ADD PUSH1 0x0 KECCAK256 PUSH1 0x0 PUSH2 0x100 EXP DUP2 SLOAD DUP2 PUSH1 0xFF MUL NOT AND SWAP1 DUP4 ISZERO ISZERO MUL OR SWAP1 SSTORE POP DUP1 PUSH1 0x1 ADD DUP4 SWAP1 DUP1 PUSH1 0x1 DUP2 SLOAD ADD DUP1 DUP3 SSTORE DUP1 SWAP2 POP POP PUSH1 0x1 SWAP1 SUB SWAP1 PUSH1 0x0 MSTORE PUSH1 0x20 PUSH1 0x0 KECCAK256 ADD PUSH1 0x0 SWAP1 SWAP2 SWAP1 SWAP2 SWAP1 SWAP2 PUSH2 0x100 EXP DUP2 SLOAD DUP2 PUSH20 0xFFFFFFFFFFFFFFFFFFFFFFFFFFFFFFFFFFFFFFFF MUL NOT AND SWAP1 DUP4 PUSH20 0xFFFFFFFFFFFFFFFFFFFFFFFFFFFFFFFFFFFFFFFF AND MUL OR SWAP1 SSTORE POP DUP1 PUSH1 0x2 ADD PUSH1 0x4 DUP2 DUP2 SWAP1 SLOAD SWAP1 PUSH2 0x100 EXP SWAP1 DIV PUSH2 0xFFFF AND DUP1 SWAP3 SWAP2 SWAP1 PUSH2 0xD42 SWAP1 PUSH2 0x2048 JUMP JUMPDEST SWAP2 SWAP1 PUSH2 0x100 EXP DUP2 SLOAD DUP2 PUSH2 0xFFFF MUL NOT AND SWAP1 DUP4 PUSH2 0xFFFF AND MUL OR SWAP1 SSTORE POP POP PUSH32 0xC19C59AA93348E8FC54764BC642ECA975E2639F44CC683EF8F027E1529CBDA32 DUP4 PUSH1 0x40 MLOAD PUSH2 0xD8C SWAP2 SWAP1 PUSH2 0x2073 JUMP JUMPDEST PUSH1 0x40 MLOAD DUP1 SWAP2 SUB SWAP1 LOG1 POP POP POP JUMP JUMPDEST PUSH1 0x0 DUP2 DUP1 MLOAD PUSH1 0x20 DUP2 ADD DUP3 ADD DUP1 MLOAD DUP5 DUP3 MSTORE PUSH1 0x20 DUP4 ADD PUSH1 0x20 DUP6 ADD KECCAK256 DUP2 DUP4 MSTORE DUP1 SWAP6 POP POP POP POP POP POP PUSH1 0x0 SWAP2 POP SWAP1 POP DUP1 PUSH1 0x0 ADD PUSH1 0x0 SWAP1 SLOAD SWAP1 PUSH2 0x100 EXP SWAP1 DIV PUSH20 0xFFFFFFFFFFFFFFFFFFFFFFFFFFFFFFFFFFFFFFFF AND SWAP1 DUP1 PUSH1 0x2 ADD PUSH1 0x0 SWAP1 SLOAD SWAP1 PUSH2 0x100 EXP SWAP1 DIV PUSH4 0xFFFFFFFF AND SWAP1 DUP1 PUSH1 0x2 ADD PUSH1 0x4 SWAP1 SLOAD SWAP1 PUSH2 0x100 EXP SWAP1 DIV PUSH2 0xFFFF AND SWAP1 DUP1 PUSH1 0x2 ADD PUSH1 0x6 SWAP1 SLOAD SWAP1 PUSH2 0x100 EXP SWAP1 DIV PUSH1 0xFF AND SWAP1 POP DUP5 JUMP JUMPDEST PUSH1 0x1 PUSH1 0x20 MSTORE DUP1 PUSH1 0x0 MSTORE PUSH1 0x40 PUSH1 0x0 KECCAK256 PUSH1 0x0 SWAP2 POP SWAP1 POP SLOAD DUP2 JUMP JUMPDEST PUSH1 0x0 DUP1 PUSH1 0x0 DUP4 PUSH1 0x40 MLOAD PUSH2 0xE55 SWAP2 SWAP1 PUSH2 0x1C5E JUMP JUMPDEST SWAP1 DUP2 MSTORE PUSH1 0x20 ADD PUSH1 0x40 MLOAD DUP1 SWAP2 SUB SWAP1 KECCAK256 SWAP1 POP DUP1 PUSH1 0x2 ADD PUSH1 0x4 SWAP1 SLOAD SWAP1 PUSH2 0x100 EXP SWAP1 DIV PUSH2 0xFFFF AND PUSH2 0xFFFF AND SWAP2 POP POP SWAP2 SWAP1 POP JUMP JUMPDEST PUSH1 0x60 PUSH1 0x0 DUP1 DUP4 PUSH1 0x40 MLOAD PUSH2 0xE97 SWAP2 SWAP1 PUSH2 0x1C5E JUMP JUMPDEST SWAP1 DUP2 MSTORE PUSH1 0x20 ADD PUSH1 0x40 MLOAD DUP1 SWAP2 SUB SWAP1 KECCAK256 SWAP1 POP DUP1 PUSH1 0x1 ADD DUP1 SLOAD DUP1 PUSH1 0x20 MUL PUSH1 0x20 ADD PUSH1 0x40 MLOAD SWAP1 DUP2 ADD PUSH1 0x40 MSTORE DUP1 SWAP3 SWAP2 SWAP1 DUP2 DUP2 MSTORE PUSH1 0x20 ADD DUP3 DUP1 SLOAD DUP1 ISZERO PUSH2 0xF2B JUMPI PUSH1 0x20 MUL DUP3 ADD SWAP2 SWAP1 PUSH1 0x0 MSTORE PUSH1 0x20 PUSH1 0x0 KECCAK256 SWAP1 JUMPDEST DUP2 PUSH1 0x0 SWAP1 SLOAD SWAP1 PUSH2 0x100 EXP SWAP1 DIV PUSH20 0xFFFFFFFFFFFFFFFFFFFFFFFFFFFFFFFFFFFFFFFF AND PUSH20 0xFFFFFFFFFFFFFFFFFFFFFFFFFFFFFFFFFFFFFFFF AND DUP2 MSTORE PUSH1 0x20 ADD SWAP1 PUSH1 0x1 ADD SWAP1 DUP1 DUP4 GT PUSH2 0xEE1 JUMPI JUMPDEST POP POP POP POP POP SWAP2 POP POP SWAP2 SWAP1 POP JUMP JUMPDEST PUSH1 0x0 DUP1 DUP3 PUSH1 0x40 MLOAD PUSH2 0xF49 SWAP2 SWAP1 PUSH2 0x1C5E JUMP JUMPDEST SWAP1 DUP2 MSTORE PUSH1 0x20 ADD PUSH1 0x40 MLOAD DUP1 SWAP2 SUB SWAP1 KECCAK256 SWAP1 POP CALLER PUSH20 0xFFFFFFFFFFFFFFFFFFFFFFFFFFFFFFFFFFFFFFFF AND DUP2 PUSH1 0x0 ADD PUSH1 0x0 SWAP1 SLOAD SWAP1 PUSH2 0x100 EXP SWAP1 DIV PUSH20 0xFFFFFFFFFFFFFFFFFFFFFFFFFFFFFFFFFFFFFFFF AND PUSH20 0xFFFFFFFFFFFFFFFFFFFFFFFFFFFFFFFFFFFFFFFF AND EQ PUSH2 0xFEB JUMPI PUSH1 0x40 MLOAD PUSH32 0x8C379A000000000000000000000000000000000000000000000000000000000 DUP2 MSTORE PUSH1 0x4 ADD PUSH2 0xFE2 SWAP1 PUSH2 0x20DA JUMP JUMPDEST PUSH1 0x40 MLOAD DUP1 SWAP2 SUB SWAP1 REVERT JUMPDEST DUP1 PUSH1 0x2 ADD PUSH1 0x6 SWAP1 SLOAD SWAP1 PUSH2 0x100 EXP SWAP1 DIV PUSH1 0xFF AND ISZERO DUP2 PUSH1 0x2 ADD PUSH1 0x6 PUSH2 0x100 EXP DUP2 SLOAD DUP2 PUSH1 0xFF MUL NOT AND SWAP1 DUP4 ISZERO ISZERO MUL OR SWAP1 SSTORE POP POP POP JUMP JUMPDEST PUSH1 0x0 DUP1 PUSH1 0x0 DUP1 PUSH1 0x41 DUP6 MLOAD EQ PUSH2 0x1038 JUMPI PUSH1 0x0 SWAP4 POP POP POP POP PUSH2 0x1110 JUMP JUMPDEST PUSH1 0x20 DUP6 ADD MLOAD SWAP3 POP PUSH1 0x40 DUP6 ADD MLOAD SWAP2 POP PUSH1 0x60 DUP6 ADD MLOAD PUSH1 0x0 BYTE SWAP1 POP PUSH1 0x1B DUP2 PUSH1 0xFF AND LT ISZERO PUSH2 0x106C JUMPI PUSH1 0x1B DUP2 PUSH2 0x1069 SWAP2 SWAP1 PUSH2 0x2107 JUMP JUMPDEST SWAP1 POP JUMPDEST PUSH1 0x1B DUP2 PUSH1 0xFF AND EQ ISZERO DUP1 ISZERO PUSH2 0x1084 JUMPI POP PUSH1 0x1C DUP2 PUSH1 0xFF AND EQ ISZERO JUMPDEST ISZERO PUSH2 0x1095 JUMPI PUSH1 0x0 SWAP4 POP POP POP POP PUSH2 0x1110 JUMP JUMPDEST PUSH1 0x1 DUP7 PUSH1 0x40 MLOAD PUSH1 0x20 ADD PUSH2 0x10A8 SWAP2 SWAP1 PUSH2 0x21AB JUMP JUMPDEST PUSH1 0x40 MLOAD PUSH1 0x20 DUP2 DUP4 SUB SUB DUP2 MSTORE SWAP1 PUSH1 0x40 MSTORE DUP1 MLOAD SWAP1 PUSH1 0x20 ADD KECCAK256 DUP3 DUP6 DUP6 PUSH1 0x40 MLOAD PUSH1 0x0 DUP2 MSTORE PUSH1 0x20 ADD PUSH1 0x40 MSTORE PUSH1 0x40 MLOAD PUSH2 0x10DE SWAP5 SWAP4 SWAP3 SWAP2 SWAP1 PUSH2 0x21E0 JUMP JUMPDEST PUSH1 0x20 PUSH1 0x40 MLOAD PUSH1 0x20 DUP2 SUB SWAP1 DUP1 DUP5 SUB SWAP1 DUP6 GAS STATICCALL ISZERO DUP1 ISZERO PUSH2 0x1100 JUMPI RETURNDATASIZE PUSH1 0x0 DUP1 RETURNDATACOPY RETURNDATASIZE PUSH1 0x0 REVERT JUMPDEST POP POP POP PUSH1 0x20 PUSH1 0x40 MLOAD SUB MLOAD SWAP4 POP POP POP POP JUMPDEST SWAP3 SWAP2 POP POP JUMP JUMPDEST PUSH1 0x0 DUP1 PUSH1 0x0 DUP5 PUSH1 0x40 MLOAD PUSH2 0x1129 SWAP2 SWAP1 PUSH2 0x1C5E JUMP JUMPDEST SWAP1 DUP2 MSTORE PUSH1 0x20 ADD PUSH1 0x40 MLOAD DUP1 SWAP2 SUB SWAP1 KECCAK256 SWAP1 POP PUSH1 0x1 DUP2 PUSH1 0x4 ADD PUSH1 0x0 DUP6 PUSH20 0xFFFFFFFFFFFFFFFFFFFFFFFFFFFFFFFFFFFFFFFF AND PUSH20 0xFFFFFFFFFFFFFFFFFFFFFFFFFFFFFFFFFFFFFFFF AND DUP2 MSTORE PUSH1 0x20 ADD SWAP1 DUP2 MSTORE PUSH1 0x20 ADD PUSH1 0x0 KECCAK256 PUSH1 0x0 PUSH2 0x100 EXP DUP2 SLOAD DUP2 PUSH1 0xFF MUL NOT AND SWAP1 DUP4 ISZERO ISZERO MUL OR SWAP1 SSTORE POP DUP1 PUSH1 0x5 ADD PUSH1 0x0 DUP7 PUSH20 0xFFFFFFFFFFFFFFFFFFFFFFFFFFFFFFFFFFFFFFFF AND PUSH20 0xFFFFFFFFFFFFFFFFFFFFFFFFFFFFFFFFFFFFFFFF AND DUP2 MSTORE PUSH1 0x20 ADD SWAP1 DUP2 MSTORE PUSH1 0x20 ADD PUSH1 0x0 KECCAK256 PUSH1 0x0 DUP2 SLOAD DUP1 SWAP3 SWAP2 SWAP1 PUSH2 0x11E5 SWAP1 PUSH2 0x1DA2 JUMP JUMPDEST SWAP2 SWAP1 POP SSTORE POP DUP1 PUSH1 0x5 ADD PUSH1 0x0 DUP7 PUSH20 0xFFFFFFFFFFFFFFFFFFFFFFFFFFFFFFFFFFFFFFFF AND PUSH20 0xFFFFFFFFFFFFFFFFFFFFFFFFFFFFFFFFFFFFFFFF AND DUP2 MSTORE PUSH1 0x20 ADD SWAP1 DUP2 MSTORE PUSH1 0x20 ADD PUSH1 0x0 KECCAK256 SLOAD SWAP2 POP POP SWAP4 SWAP3 POP POP POP JUMP JUMPDEST PUSH1 0x0 PUSH1 0x40 MLOAD SWAP1 POP SWAP1 JUMP JUMPDEST PUSH1 0x0 DUP1 REVERT JUMPDEST PUSH1 0x0 DUP1 REVERT JUMPDEST PUSH1 0x0 PUSH20 0xFFFFFFFFFFFFFFFFFFFFFFFFFFFFFFFFFFFFFFFF DUP3 AND SWAP1 POP SWAP2 SWAP1 POP JUMP JUMPDEST PUSH1 0x0 PUSH2 0x1275 DUP3 PUSH2 0x124A JUMP JUMPDEST SWAP1 POP SWAP2 SWAP1 POP JUMP JUMPDEST PUSH2 0x1285 DUP2 PUSH2 0x126A JUMP JUMPDEST DUP2 EQ PUSH2 0x1290 JUMPI PUSH1 0x0 DUP1 REVERT JUMPDEST POP JUMP JUMPDEST PUSH1 0x0 DUP2 CALLDATALOAD SWAP1 POP PUSH2 0x12A2 DUP2 PUSH2 0x127C JUMP JUMPDEST SWAP3 SWAP2 POP POP JUMP JUMPDEST PUSH1 0x0 DUP1 REVERT JUMPDEST PUSH1 0x0 DUP1 REVERT JUMPDEST PUSH1 0x0 PUSH1 0x1F NOT PUSH1 0x1F DUP4 ADD AND SWAP1 POP SWAP2 SWAP1 POP JUMP JUMPDEST PUSH32 0x4E487B7100000000000000000000000000000000000000000000000000000000 PUSH1 0x0 MSTORE PUSH1 0x41 PUSH1 0x4 MSTORE PUSH1 0x24 PUSH1 0x0 REVERT JUMPDEST PUSH2 0x12FB DUP3 PUSH2 0x12B2 JUMP JUMPDEST DUP2 ADD DUP2 DUP2 LT PUSH8 0xFFFFFFFFFFFFFFFF DUP3 GT OR ISZERO PUSH2 0x131A JUMPI PUSH2 0x1319 PUSH2 0x12C3 JUMP JUMPDEST JUMPDEST DUP1 PUSH1 0x40 MSTORE POP POP POP JUMP JUMPDEST PUSH1 0x0 PUSH2 0x132D PUSH2 0x1236 JUMP JUMPDEST SWAP1 POP PUSH2 0x1339 DUP3 DUP3 PUSH2 0x12F2 JUMP JUMPDEST SWAP2 SWAP1 POP JUMP JUMPDEST PUSH1 0x0 PUSH8 0xFFFFFFFFFFFFFFFF DUP3 GT ISZERO PUSH2 0x1359 JUMPI PUSH2 0x1358 PUSH2 0x12C3 JUMP JUMPDEST JUMPDEST PUSH2 0x1362 DUP3 PUSH2 0x12B2 JUMP JUMPDEST SWAP1 POP PUSH1 0x20 DUP2 ADD SWAP1 POP SWAP2 SWAP1 POP JUMP JUMPDEST DUP3 DUP2 DUP4 CALLDATACOPY PUSH1 0x0 DUP4 DUP4 ADD MSTORE POP POP POP JUMP JUMPDEST PUSH1 0x0 PUSH2 0x1391 PUSH2 0x138C DUP5 PUSH2 0x133E JUMP JUMPDEST PUSH2 0x1323 JUMP JUMPDEST SWAP1 POP DUP3 DUP2 MSTORE PUSH1 0x20 DUP2 ADD DUP5 DUP5 DUP5 ADD GT ISZERO PUSH2 0x13AD JUMPI PUSH2 0x13AC PUSH2 0x12AD JUMP JUMPDEST JUMPDEST PUSH2 0x13B8 DUP5 DUP3 DUP6 PUSH2 0x136F JUMP JUMPDEST POP SWAP4 SWAP3 POP POP POP JUMP JUMPDEST PUSH1 0x0 DUP3 PUSH1 0x1F DUP4 ADD SLT PUSH2 0x13D5 JUMPI PUSH2 0x13D4 PUSH2 0x12A8 JUMP JUMPDEST JUMPDEST DUP2 CALLDATALOAD PUSH2 0x13E5 DUP5 DUP3 PUSH1 0x20 DUP7 ADD PUSH2 0x137E JUMP JUMPDEST SWAP2 POP POP SWAP3 SWAP2 POP POP JUMP JUMPDEST PUSH1 0x0 DUP2 SWAP1 POP SWAP2 SWAP1 POP JUMP JUMPDEST PUSH2 0x1401 DUP2 PUSH2 0x13EE JUMP JUMPDEST DUP2 EQ PUSH2 0x140C JUMPI PUSH1 0x0 DUP1 REVERT JUMPDEST POP JUMP JUMPDEST PUSH1 0x0 DUP2 CALLDATALOAD SWAP1 POP PUSH2 0x141E DUP2 PUSH2 0x13F8 JUMP JUMPDEST SWAP3 SWAP2 POP POP JUMP JUMPDEST PUSH1 0x0 DUP1 PUSH1 0x0 DUP1 PUSH1 0x80 DUP6 DUP8 SUB SLT ISZERO PUSH2 0x143E JUMPI PUSH2 0x143D PUSH2 0x1240 JUMP JUMPDEST JUMPDEST PUSH1 0x0 PUSH2 0x144C DUP8 DUP3 DUP9 ADD PUSH2 0x1293 JUMP JUMPDEST SWAP5 POP POP PUSH1 0x20 DUP6 ADD CALLDATALOAD PUSH8 0xFFFFFFFFFFFFFFFF DUP2 GT ISZERO PUSH2 0x146D JUMPI PUSH2 0x146C PUSH2 0x1245 JUMP JUMPDEST JUMPDEST PUSH2 0x1479 DUP8 DUP3 DUP9 ADD PUSH2 0x13C0 JUMP JUMPDEST SWAP4 POP POP PUSH1 0x40 PUSH2 0x148A DUP8 DUP3 DUP9 ADD PUSH2 0x140F JUMP JUMPDEST SWAP3 POP POP PUSH1 0x60 PUSH2 0x149B DUP8 DUP3 DUP9 ADD PUSH2 0x140F JUMP JUMPDEST SWAP2 POP POP SWAP3 SWAP6 SWAP2 SWAP5 POP SWAP3 POP JUMP JUMPDEST PUSH1 0x0 DUP2 SWAP1 POP SWAP2 SWAP1 POP JUMP JUMPDEST PUSH2 0x14BA DUP2 PUSH2 0x14A7 JUMP JUMPDEST DUP3 MSTORE POP POP JUMP JUMPDEST PUSH1 0x0 PUSH1 0x20 DUP3 ADD SWAP1 POP PUSH2 0x14D5 PUSH1 0x0 DUP4 ADD DUP5 PUSH2 0x14B1 JUMP JUMPDEST SWAP3 SWAP2 POP POP JUMP JUMPDEST PUSH1 0x0 PUSH2 0xFFFF DUP3 AND SWAP1 POP SWAP2 SWAP1 POP JUMP JUMPDEST PUSH2 0x14F2 DUP2 PUSH2 0x14DB JUMP JUMPDEST DUP2 EQ PUSH2 0x14FD JUMPI PUSH1 0x0 DUP1 REVERT JUMPDEST POP JUMP JUMPDEST PUSH1 0x0 DUP2 CALLDATALOAD SWAP1 POP PUSH2 0x150F DUP2 PUSH2 0x14E9 JUMP JUMPDEST SWAP3 SWAP2 POP POP JUMP JUMPDEST PUSH1 0x0 DUP1 PUSH1 0x40 DUP4 DUP6 SUB SLT ISZERO PUSH2 0x152C JUMPI PUSH2 0x152B PUSH2 0x1240 JUMP JUMPDEST JUMPDEST PUSH1 0x0 DUP4 ADD CALLDATALOAD PUSH8 0xFFFFFFFFFFFFFFFF DUP2 GT ISZERO PUSH2 0x154A JUMPI PUSH2 0x1549 PUSH2 0x1245 JUMP JUMPDEST JUMPDEST PUSH2 0x1556 DUP6 DUP3 DUP7 ADD PUSH2 0x13C0 JUMP JUMPDEST SWAP3 POP POP PUSH1 0x20 PUSH2 0x1567 DUP6 DUP3 DUP7 ADD PUSH2 0x1500 JUMP JUMPDEST SWAP2 POP POP SWAP3 POP SWAP3 SWAP1 POP JUMP JUMPDEST PUSH1 0x0 DUP2 MLOAD SWAP1 POP SWAP2 SWAP1 POP JUMP JUMPDEST PUSH1 0x0 DUP3 DUP3 MSTORE PUSH1 0x20 DUP3 ADD SWAP1 POP SWAP3 SWAP2 POP POP JUMP JUMPDEST PUSH1 0x0 JUMPDEST DUP4 DUP2 LT ISZERO PUSH2 0x15AB JUMPI DUP1 DUP3 ADD MLOAD DUP2 DUP5 ADD MSTORE PUSH1 0x20 DUP2 ADD SWAP1 POP PUSH2 0x1590 JUMP JUMPDEST DUP4 DUP2 GT ISZERO PUSH2 0x15BA JUMPI PUSH1 0x0 DUP5 DUP5 ADD MSTORE JUMPDEST POP POP POP POP JUMP JUMPDEST PUSH1 0x0 PUSH2 0x15CB DUP3 PUSH2 0x1571 JUMP JUMPDEST PUSH2 0x15D5 DUP2 DUP6 PUSH2 0x157C JUMP JUMPDEST SWAP4 POP PUSH2 0x15E5 DUP2 DUP6 PUSH1 0x20 DUP7 ADD PUSH2 0x158D JUMP JUMPDEST PUSH2 0x15EE DUP2 PUSH2 0x12B2 JUMP JUMPDEST DUP5 ADD SWAP2 POP POP SWAP3 SWAP2 POP POP JUMP JUMPDEST PUSH2 0x1602 DUP2 PUSH2 0x13EE JUMP JUMPDEST DUP3 MSTORE POP POP JUMP JUMPDEST PUSH1 0x0 PUSH1 0x40 DUP3 ADD SWAP1 POP DUP2 DUP2 SUB PUSH1 0x0 DUP4 ADD MSTORE PUSH2 0x1622 DUP2 DUP6 PUSH2 0x15C0 JUMP JUMPDEST SWAP1 POP PUSH2 0x1631 PUSH1 0x20 DUP4 ADD DUP5 PUSH2 0x15F9 JUMP JUMPDEST SWAP4 SWAP3 POP POP POP JUMP JUMPDEST PUSH1 0x0 PUSH8 0xFFFFFFFFFFFFFFFF DUP3 GT ISZERO PUSH2 0x1653 JUMPI PUSH2 0x1652 PUSH2 0x12C3 JUMP JUMPDEST JUMPDEST PUSH2 0x165C DUP3 PUSH2 0x12B2 JUMP JUMPDEST SWAP1 POP PUSH1 0x20 DUP2 ADD SWAP1 POP SWAP2 SWAP1 POP JUMP JUMPDEST PUSH1 0x0 PUSH2 0x167C PUSH2 0x1677 DUP5 PUSH2 0x1638 JUMP JUMPDEST PUSH2 0x1323 JUMP JUMPDEST SWAP1 POP DUP3 DUP2 MSTORE PUSH1 0x20 DUP2 ADD DUP5 DUP5 DUP5 ADD GT ISZERO PUSH2 0x1698 JUMPI PUSH2 0x1697 PUSH2 0x12AD JUMP JUMPDEST JUMPDEST PUSH2 0x16A3 DUP5 DUP3 DUP6 PUSH2 0x136F JUMP JUMPDEST POP SWAP4 SWAP3 POP POP POP JUMP JUMPDEST PUSH1 0x0 DUP3 PUSH1 0x1F DUP4 ADD SLT PUSH2 0x16C0 JUMPI PUSH2 0x16BF PUSH2 0x12A8 JUMP JUMPDEST JUMPDEST DUP2 CALLDATALOAD PUSH2 0x16D0 DUP5 DUP3 PUSH1 0x20 DUP7 ADD PUSH2 0x1669 JUMP JUMPDEST SWAP2 POP POP SWAP3 SWAP2 POP POP JUMP JUMPDEST PUSH1 0x0 DUP1 PUSH1 0x0 DUP1 PUSH1 0x80 DUP6 DUP8 SUB SLT ISZERO PUSH2 0x16F3 JUMPI PUSH2 0x16F2 PUSH2 0x1240 JUMP JUMPDEST JUMPDEST PUSH1 0x0 PUSH2 0x1701 DUP8 DUP3 DUP9 ADD PUSH2 0x1293 JUMP JUMPDEST SWAP5 POP POP PUSH1 0x20 DUP6 ADD CALLDATALOAD PUSH8 0xFFFFFFFFFFFFFFFF DUP2 GT ISZERO PUSH2 0x1722 JUMPI PUSH2 0x1721 PUSH2 0x1245 JUMP JUMPDEST JUMPDEST PUSH2 0x172E DUP8 DUP3 DUP9 ADD PUSH2 0x13C0 JUMP JUMPDEST SWAP4 POP POP PUSH1 0x40 PUSH2 0x173F DUP8 DUP3 DUP9 ADD PUSH2 0x140F JUMP JUMPDEST SWAP3 POP POP PUSH1 0x60 DUP6 ADD CALLDATALOAD PUSH8 0xFFFFFFFFFFFFFFFF DUP2 GT ISZERO PUSH2 0x1760 JUMPI PUSH2 0x175F PUSH2 0x1245 JUMP JUMPDEST JUMPDEST PUSH2 0x176C DUP8 DUP3 DUP9 ADD PUSH2 0x16AB JUMP JUMPDEST SWAP2 POP POP SWAP3 SWAP6 SWAP2 SWAP5 POP SWAP3 POP JUMP JUMPDEST PUSH1 0x0 PUSH1 0x20 DUP3 DUP5 SUB SLT ISZERO PUSH2 0x178E JUMPI PUSH2 0x178D PUSH2 0x1240 JUMP JUMPDEST JUMPDEST PUSH1 0x0 DUP3 ADD CALLDATALOAD PUSH8 0xFFFFFFFFFFFFFFFF DUP2 GT ISZERO PUSH2 0x17AC JUMPI PUSH2 0x17AB PUSH2 0x1245 JUMP JUMPDEST JUMPDEST PUSH2 0x17B8 DUP5 DUP3 DUP6 ADD PUSH2 0x13C0 JUMP JUMPDEST SWAP2 POP POP SWAP3 SWAP2 POP POP JUMP JUMPDEST PUSH2 0x17CA DUP2 PUSH2 0x126A JUMP JUMPDEST DUP3 MSTORE POP POP JUMP JUMPDEST PUSH1 0x0 PUSH1 0x40 DUP3 ADD SWAP1 POP PUSH2 0x17E5 PUSH1 0x0 DUP4 ADD DUP6 PUSH2 0x15F9 JUMP JUMPDEST PUSH2 0x17F2 PUSH1 0x20 DUP4 ADD DUP5 PUSH2 0x17C1 JUMP JUMPDEST SWAP4 SWAP3 POP POP POP JUMP JUMPDEST PUSH1 0x0 DUP2 MLOAD SWAP1 POP SWAP2 SWAP1 POP JUMP JUMPDEST PUSH1 0x0 DUP3 DUP3 MSTORE PUSH1 0x20 DUP3 ADD SWAP1 POP SWAP3 SWAP2 POP POP JUMP JUMPDEST PUSH1 0x0 DUP2 SWAP1 POP PUSH1 0x20 DUP3 ADD SWAP1 POP SWAP2 SWAP1 POP JUMP JUMPDEST PUSH2 0x182E DUP2 PUSH2 0x13EE JUMP JUMPDEST DUP3 MSTORE POP POP JUMP JUMPDEST PUSH1 0x0 PUSH2 0x1840 DUP4 DUP4 PUSH2 0x1825 JUMP JUMPDEST PUSH1 0x20 DUP4 ADD SWAP1 POP SWAP3 SWAP2 POP POP JUMP JUMPDEST PUSH1 0x0 PUSH1 0x20 DUP3 ADD SWAP1 POP SWAP2 SWAP1 POP JUMP JUMPDEST PUSH1 0x0 PUSH2 0x1864 DUP3 PUSH2 0x17F9 JUMP JUMPDEST PUSH2 0x186E DUP2 DUP6 PUSH2 0x1804 JUMP JUMPDEST SWAP4 POP PUSH2 0x1879 DUP4 PUSH2 0x1815 JUMP JUMPDEST DUP1 PUSH1 0x0 JUMPDEST DUP4 DUP2 LT ISZERO PUSH2 0x18AA JUMPI DUP2 MLOAD PUSH2 0x1891 DUP9 DUP3 PUSH2 0x1834 JUMP JUMPDEST SWAP8 POP PUSH2 0x189C DUP4 PUSH2 0x184C JUMP JUMPDEST SWAP3 POP POP PUSH1 0x1 DUP2 ADD SWAP1 POP PUSH2 0x187D JUMP JUMPDEST POP DUP6 SWAP4 POP POP POP POP SWAP3 SWAP2 POP POP JUMP JUMPDEST PUSH1 0x0 PUSH1 0x60 DUP3 ADD SWAP1 POP DUP2 DUP2 SUB PUSH1 0x0 DUP4 ADD MSTORE PUSH2 0x18D1 DUP2 DUP7 PUSH2 0x1859 JUMP JUMPDEST SWAP1 POP PUSH2 0x18E0 PUSH1 0x20 DUP4 ADD DUP6 PUSH2 0x17C1 JUMP JUMPDEST PUSH2 0x18ED PUSH1 0x40 DUP4 ADD DUP5 PUSH2 0x15F9 JUMP JUMPDEST SWAP5 SWAP4 POP POP POP POP JUMP JUMPDEST PUSH1 0x0 DUP1 PUSH1 0x40 DUP4 DUP6 SUB SLT ISZERO PUSH2 0x190C JUMPI PUSH2 0x190B PUSH2 0x1240 JUMP JUMPDEST JUMPDEST PUSH1 0x0 PUSH2 0x191A DUP6 DUP3 DUP7 ADD PUSH2 0x1293 JUMP JUMPDEST SWAP3 POP POP PUSH1 0x20 DUP4 ADD CALLDATALOAD PUSH8 0xFFFFFFFFFFFFFFFF DUP2 GT ISZERO PUSH2 0x193B JUMPI PUSH2 0x193A PUSH2 0x1245 JUMP JUMPDEST JUMPDEST PUSH2 0x1947 DUP6 DUP3 DUP7 ADD PUSH2 0x13C0 JUMP JUMPDEST SWAP2 POP POP SWAP3 POP SWAP3 SWAP1 POP JUMP JUMPDEST PUSH1 0x0 PUSH4 0xFFFFFFFF DUP3 AND SWAP1 POP SWAP2 SWAP1 POP JUMP JUMPDEST PUSH2 0x196A DUP2 PUSH2 0x1951 JUMP JUMPDEST DUP3 MSTORE POP POP JUMP JUMPDEST PUSH2 0x1979 DUP2 PUSH2 0x14DB JUMP JUMPDEST DUP3 MSTORE POP POP JUMP JUMPDEST PUSH1 0x0 DUP2 ISZERO ISZERO SWAP1 POP SWAP2 SWAP1 POP JUMP JUMPDEST PUSH2 0x1994 DUP2 PUSH2 0x197F JUMP JUMPDEST DUP3 MSTORE POP POP JUMP JUMPDEST PUSH1 0x0 PUSH1 0x80 DUP3 ADD SWAP1 POP PUSH2 0x19AF PUSH1 0x0 DUP4 ADD DUP8 PUSH2 0x17C1 JUMP JUMPDEST PUSH2 0x19BC PUSH1 0x20 DUP4 ADD DUP7 PUSH2 0x1961 JUMP JUMPDEST PUSH2 0x19C9 PUSH1 0x40 DUP4 ADD DUP6 PUSH2 0x1970 JUMP JUMPDEST PUSH2 0x19D6 PUSH1 0x60 DUP4 ADD DUP5 PUSH2 0x198B JUMP JUMPDEST SWAP6 SWAP5 POP POP POP POP POP JUMP JUMPDEST PUSH1 0x0 PUSH1 0x20 DUP3 DUP5 SUB SLT ISZERO PUSH2 0x19F5 JUMPI PUSH2 0x19F4 PUSH2 0x1240 JUMP JUMPDEST JUMPDEST PUSH1 0x0 PUSH2 0x1A03 DUP5 DUP3 DUP6 ADD PUSH2 0x1293 JUMP JUMPDEST SWAP2 POP POP SWAP3 SWAP2 POP POP JUMP JUMPDEST PUSH1 0x0 PUSH1 0x20 DUP3 ADD SWAP1 POP PUSH2 0x1A21 PUSH1 0x0 DUP4 ADD DUP5 PUSH2 0x15F9 JUMP JUMPDEST SWAP3 SWAP2 POP POP JUMP JUMPDEST PUSH1 0x0 DUP2 MLOAD SWAP1 POP SWAP2 SWAP1 POP JUMP JUMPDEST PUSH1 0x0 DUP3 DUP3 MSTORE PUSH1 0x20 DUP3 ADD SWAP1 POP SWAP3 SWAP2 POP POP JUMP JUMPDEST PUSH1 0x0 DUP2 SWAP1 POP PUSH1 0x20 DUP3 ADD SWAP1 POP SWAP2 SWAP1 POP JUMP JUMPDEST PUSH2 0x1A5C DUP2 PUSH2 0x126A JUMP JUMPDEST DUP3 MSTORE POP POP JUMP JUMPDEST PUSH1 0x0 PUSH2 0x1A6E DUP4 DUP4 PUSH2 0x1A53 JUMP JUMPDEST PUSH1 0x20 DUP4 ADD SWAP1 POP SWAP3 SWAP2 POP POP JUMP JUMPDEST PUSH1 0x0 PUSH1 0x20 DUP3 ADD SWAP1 POP SWAP2 SWAP1 POP JUMP JUMPDEST PUSH1 0x0 PUSH2 0x1A92 DUP3 PUSH2 0x1A27 JUMP JUMPDEST PUSH2 0x1A9C DUP2 DUP6 PUSH2 0x1A32 JUMP JUMPDEST SWAP4 POP PUSH2 0x1AA7 DUP4 PUSH2 0x1A43 JUMP JUMPDEST DUP1 PUSH1 0x0 JUMPDEST DUP4 DUP2 LT ISZERO PUSH2 0x1AD8 JUMPI DUP2 MLOAD PUSH2 0x1ABF DUP9 DUP3 PUSH2 0x1A62 JUMP JUMPDEST SWAP8 POP PUSH2 0x1ACA DUP4 PUSH2 0x1A7A JUMP JUMPDEST SWAP3 POP POP PUSH1 0x1 DUP2 ADD SWAP1 POP PUSH2 0x1AAB JUMP JUMPDEST POP DUP6 SWAP4 POP POP POP POP SWAP3 SWAP2 POP POP JUMP JUMPDEST PUSH1 0x0 PUSH1 0x20 DUP3 ADD SWAP1 POP DUP2 DUP2 SUB PUSH1 0x0 DUP4 ADD MSTORE PUSH2 0x1AFF DUP2 DUP5 PUSH2 0x1A87 JUMP JUMPDEST SWAP1 POP SWAP3 SWAP2 POP POP JUMP JUMPDEST PUSH1 0x0 DUP2 PUSH1 0x60 SHL SWAP1 POP SWAP2 SWAP1 POP JUMP JUMPDEST PUSH1 0x0 PUSH2 0x1B1F DUP3 PUSH2 0x1B07 JUMP JUMPDEST SWAP1 POP SWAP2 SWAP1 POP JUMP JUMPDEST PUSH1 0x0 PUSH2 0x1B31 DUP3 PUSH2 0x1B14 JUMP JUMPDEST SWAP1 POP SWAP2 SWAP1 POP JUMP JUMPDEST PUSH2 0x1B49 PUSH2 0x1B44 DUP3 PUSH2 0x126A JUMP JUMPDEST PUSH2 0x1B26 JUMP JUMPDEST DUP3 MSTORE POP POP JUMP JUMPDEST PUSH1 0x0 DUP2 SWAP1 POP SWAP3 SWAP2 POP POP JUMP JUMPDEST PUSH32 0x6D6574617472616E73616374696F6E20566F74696E6720000000000000000000 PUSH1 0x0 DUP3 ADD MSTORE POP JUMP JUMPDEST PUSH1 0x0 PUSH2 0x1B90 PUSH1 0x17 DUP4 PUSH2 0x1B4F JUMP JUMPDEST SWAP2 POP PUSH2 0x1B9B DUP3 PUSH2 0x1B5A JUMP JUMPDEST PUSH1 0x17 DUP3 ADD SWAP1 POP SWAP2 SWAP1 POP JUMP JUMPDEST PUSH1 0x0 PUSH2 0x1BB1 DUP3 PUSH2 0x1571 JUMP JUMPDEST PUSH2 0x1BBB DUP2 DUP6 PUSH2 0x1B4F JUMP JUMPDEST SWAP4 POP PUSH2 0x1BCB DUP2 DUP6 PUSH1 0x20 DUP7 ADD PUSH2 0x158D JUMP JUMPDEST DUP1 DUP5 ADD SWAP2 POP POP SWAP3 SWAP2 POP POP JUMP JUMPDEST PUSH1 0x0 DUP2 SWAP1 POP SWAP2 SWAP1 POP JUMP JUMPDEST PUSH2 0x1BF2 PUSH2 0x1BED DUP3 PUSH2 0x13EE JUMP JUMPDEST PUSH2 0x1BD7 JUMP JUMPDEST DUP3 MSTORE POP POP JUMP JUMPDEST PUSH1 0x0 PUSH2 0x1C04 DUP3 DUP9 PUSH2 0x1B38 JUMP JUMPDEST PUSH1 0x14 DUP3 ADD SWAP2 POP PUSH2 0x1C13 DUP3 PUSH2 0x1B83 JUMP JUMPDEST SWAP2 POP PUSH2 0x1C1F DUP3 DUP8 PUSH2 0x1B38 JUMP JUMPDEST PUSH1 0x14 DUP3 ADD SWAP2 POP PUSH2 0x1C2F DUP3 DUP7 PUSH2 0x1BA6 JUMP JUMPDEST SWAP2 POP PUSH2 0x1C3B DUP3 DUP6 PUSH2 0x1BE1 JUMP JUMPDEST PUSH1 0x20 DUP3 ADD SWAP2 POP PUSH2 0x1C4B DUP3 DUP5 PUSH2 0x1BE1 JUMP JUMPDEST PUSH1 0x20 DUP3 ADD SWAP2 POP DUP2 SWAP1 POP SWAP7 SWAP6 POP POP POP POP POP POP JUMP JUMPDEST PUSH1 0x0 PUSH2 0x1C6A DUP3 DUP5 PUSH2 0x1BA6 JUMP JUMPDEST SWAP2 POP DUP2 SWAP1 POP SWAP3 SWAP2 POP POP JUMP JUMPDEST PUSH32 0x54686973206164647265737320646F6573206E6F742065786973742061732061 PUSH1 0x0 DUP3 ADD MSTORE PUSH32 0x2063616E64696461746500000000000000000000000000000000000000000000 PUSH1 0x20 DUP3 ADD MSTORE POP JUMP JUMPDEST PUSH1 0x0 PUSH2 0x1CD1 PUSH1 0x2A DUP4 PUSH2 0x157C JUMP JUMPDEST SWAP2 POP PUSH2 0x1CDC DUP3 PUSH2 0x1C75 JUMP JUMPDEST PUSH1 0x40 DUP3 ADD SWAP1 POP SWAP2 SWAP1 POP JUMP JUMPDEST PUSH1 0x0 PUSH1 0x20 DUP3 ADD SWAP1 POP DUP2 DUP2 SUB PUSH1 0x0 DUP4 ADD MSTORE PUSH2 0x1D00 DUP2 PUSH2 0x1CC4 JUMP JUMPDEST SWAP1 POP SWAP2 SWAP1 POP JUMP JUMPDEST PUSH32 0x766F74696E672068617320656E64656400000000000000000000000000000000 PUSH1 0x0 DUP3 ADD MSTORE POP JUMP JUMPDEST PUSH1 0x0 PUSH2 0x1D3D PUSH1 0x10 DUP4 PUSH2 0x157C JUMP JUMPDEST SWAP2 POP PUSH2 0x1D48 DUP3 PUSH2 0x1D07 JUMP JUMPDEST PUSH1 0x20 DUP3 ADD SWAP1 POP SWAP2 SWAP1 POP JUMP JUMPDEST PUSH1 0x0 PUSH1 0x20 DUP3 ADD SWAP1 POP DUP2 DUP2 SUB PUSH1 0x0 DUP4 ADD MSTORE PUSH2 0x1D6C DUP2 PUSH2 0x1D30 JUMP JUMPDEST SWAP1 POP SWAP2 SWAP1 POP JUMP JUMPDEST PUSH32 0x4E487B7100000000000000000000000000000000000000000000000000000000 PUSH1 0x0 MSTORE PUSH1 0x11 PUSH1 0x4 MSTORE PUSH1 0x24 PUSH1 0x0 REVERT JUMPDEST PUSH1 0x0 PUSH2 0x1DAD DUP3 PUSH2 0x13EE JUMP JUMPDEST SWAP2 POP PUSH32 0xFFFFFFFFFFFFFFFFFFFFFFFFFFFFFFFFFFFFFFFFFFFFFFFFFFFFFFFFFFFFFFFF DUP3 EQ ISZERO PUSH2 0x1DE0 JUMPI PUSH2 0x1DDF PUSH2 0x1D73 JUMP JUMPDEST JUMPDEST PUSH1 0x1 DUP3 ADD SWAP1 POP SWAP2 SWAP1 POP JUMP JUMPDEST PUSH32 0x596F7520616C726561647920766F746564000000000000000000000000000000 PUSH1 0x0 DUP3 ADD MSTORE POP JUMP JUMPDEST PUSH1 0x0 PUSH2 0x1E21 PUSH1 0x11 DUP4 PUSH2 0x157C JUMP JUMPDEST SWAP2 POP PUSH2 0x1E2C DUP3 PUSH2 0x1DEB JUMP JUMPDEST PUSH1 0x20 DUP3 ADD SWAP1 POP SWAP2 SWAP1 POP JUMP JUMPDEST PUSH1 0x0 PUSH1 0x20 DUP3 ADD SWAP1 POP DUP2 DUP2 SUB PUSH1 0x0 DUP4 ADD MSTORE PUSH2 0x1E50 DUP2 PUSH2 0x1E14 JUMP JUMPDEST SWAP1 POP SWAP2 SWAP1 POP JUMP JUMPDEST PUSH1 0x0 PUSH1 0x40 DUP3 ADD SWAP1 POP PUSH2 0x1E6C PUSH1 0x0 DUP4 ADD DUP6 PUSH2 0x17C1 JUMP JUMPDEST PUSH2 0x1E79 PUSH1 0x20 DUP4 ADD DUP5 PUSH2 0x198B JUMP JUMPDEST SWAP4 SWAP3 POP POP POP JUMP JUMPDEST PUSH32 0x4E487B7100000000000000000000000000000000000000000000000000000000 PUSH1 0x0 MSTORE PUSH1 0x32 PUSH1 0x4 MSTORE PUSH1 0x24 PUSH1 0x0 REVERT JUMPDEST PUSH32 0x4E6F20706F6C6C20637265617465640000000000000000000000000000000000 PUSH1 0x0 DUP3 ADD MSTORE POP JUMP JUMPDEST PUSH1 0x0 PUSH2 0x1EE5 PUSH1 0xF DUP4 PUSH2 0x157C JUMP JUMPDEST SWAP2 POP PUSH2 0x1EF0 DUP3 PUSH2 0x1EAF JUMP JUMPDEST PUSH1 0x20 DUP3 ADD SWAP1 POP SWAP2 SWAP1 POP JUMP JUMPDEST PUSH1 0x0 PUSH1 0x20 DUP3 ADD SWAP1 POP DUP2 DUP2 SUB PUSH1 0x0 DUP4 ADD MSTORE PUSH2 0x1F14 DUP2 PUSH2 0x1ED8 JUMP JUMPDEST SWAP1 POP SWAP2 SWAP1 POP JUMP JUMPDEST PUSH32 0x79657420746F20637265617465206120706F6C6C000000000000000000000000 PUSH1 0x0 DUP3 ADD MSTORE POP JUMP JUMPDEST PUSH1 0x0 PUSH2 0x1F51 PUSH1 0x14 DUP4 PUSH2 0x157C JUMP JUMPDEST SWAP2 POP PUSH2 0x1F5C DUP3 PUSH2 0x1F1B JUMP JUMPDEST PUSH1 0x20 DUP3 ADD SWAP1 POP SWAP2 SWAP1 POP JUMP JUMPDEST PUSH1 0x0 PUSH1 0x20 DUP3 ADD SWAP1 POP DUP2 DUP2 SUB PUSH1 0x0 DUP4 ADD MSTORE PUSH2 0x1F80 DUP2 PUSH2 0x1F44 JUMP JUMPDEST SWAP1 POP SWAP2 SWAP1 POP JUMP JUMPDEST PUSH32 0x4E487B7100000000000000000000000000000000000000000000000000000000 PUSH1 0x0 MSTORE PUSH1 0x1 PUSH1 0x4 MSTORE PUSH1 0x24 PUSH1 0x0 REVERT JUMPDEST PUSH32 0x6D6178696D756D206E6F206F662063616E646964617465207065722073657373 PUSH1 0x0 DUP3 ADD MSTORE PUSH32 0x696F6E2072656769737465726564000000000000000000000000000000000000 PUSH1 0x20 DUP3 ADD MSTORE POP JUMP JUMPDEST PUSH1 0x0 PUSH2 0x2012 PUSH1 0x2E DUP4 PUSH2 0x157C JUMP JUMPDEST SWAP2 POP PUSH2 0x201D DUP3 PUSH2 0x1FB6 JUMP JUMPDEST PUSH1 0x40 DUP3 ADD SWAP1 POP SWAP2 SWAP1 POP JUMP JUMPDEST PUSH1 0x0 PUSH1 0x20 DUP3 ADD SWAP1 POP DUP2 DUP2 SUB PUSH1 0x0 DUP4 ADD MSTORE PUSH2 0x2041 DUP2 PUSH2 0x2005 JUMP JUMPDEST SWAP1 POP SWAP2 SWAP1 POP JUMP JUMPDEST PUSH1 0x0 PUSH2 0x2053 DUP3 PUSH2 0x14DB JUMP JUMPDEST SWAP2 POP PUSH2 0xFFFF DUP3 EQ ISZERO PUSH2 0x2068 JUMPI PUSH2 0x2067 PUSH2 0x1D73 JUMP JUMPDEST JUMPDEST PUSH1 0x1 DUP3 ADD SWAP1 POP SWAP2 SWAP1 POP JUMP JUMPDEST PUSH1 0x0 PUSH1 0x20 DUP3 ADD SWAP1 POP PUSH2 0x2088 PUSH1 0x0 DUP4 ADD DUP5 PUSH2 0x17C1 JUMP JUMPDEST SWAP3 SWAP2 POP POP JUMP JUMPDEST PUSH32 0x6E6F74207468652063686169726D616E00000000000000000000000000000000 PUSH1 0x0 DUP3 ADD MSTORE POP JUMP JUMPDEST PUSH1 0x0 PUSH2 0x20C4 PUSH1 0x10 DUP4 PUSH2 0x157C JUMP JUMPDEST SWAP2 POP PUSH2 0x20CF DUP3 PUSH2 0x208E JUMP JUMPDEST PUSH1 0x20 DUP3 ADD SWAP1 POP SWAP2 SWAP1 POP JUMP JUMPDEST PUSH1 0x0 PUSH1 0x20 DUP3 ADD SWAP1 POP DUP2 DUP2 SUB PUSH1 0x0 DUP4 ADD MSTORE PUSH2 0x20F3 DUP2 PUSH2 0x20B7 JUMP JUMPDEST SWAP1 POP SWAP2 SWAP1 POP JUMP JUMPDEST PUSH1 0x0 PUSH1 0xFF DUP3 AND SWAP1 POP SWAP2 SWAP1 POP JUMP JUMPDEST PUSH1 0x0 PUSH2 0x2112 DUP3 PUSH2 0x20FA JUMP JUMPDEST SWAP2 POP PUSH2 0x211D DUP4 PUSH2 0x20FA JUMP JUMPDEST SWAP3 POP DUP3 PUSH1 0xFF SUB DUP3 GT ISZERO PUSH2 0x2133 JUMPI PUSH2 0x2132 PUSH2 0x1D73 JUMP JUMPDEST JUMPDEST DUP3 DUP3 ADD SWAP1 POP SWAP3 SWAP2 POP POP JUMP JUMPDEST PUSH32 0x19457468657265756D205369676E6564204D6573736167653A0A333200000000 PUSH1 0x0 DUP3 ADD MSTORE POP JUMP JUMPDEST PUSH1 0x0 PUSH2 0x2174 PUSH1 0x1C DUP4 PUSH2 0x1B4F JUMP JUMPDEST SWAP2 POP PUSH2 0x217F DUP3 PUSH2 0x213E JUMP JUMPDEST PUSH1 0x1C DUP3 ADD SWAP1 POP SWAP2 SWAP1 POP JUMP JUMPDEST PUSH1 0x0 DUP2 SWAP1 POP SWAP2 SWAP1 POP JUMP JUMPDEST PUSH2 0x21A5 PUSH2 0x21A0 DUP3 PUSH2 0x14A7 JUMP JUMPDEST PUSH2 0x218A JUMP JUMPDEST DUP3 MSTORE POP POP JUMP JUMPDEST PUSH1 0x0 PUSH2 0x21B6 DUP3 PUSH2 0x2167 JUMP JUMPDEST SWAP2 POP PUSH2 0x21C2 DUP3 DUP5 PUSH2 0x2194 JUMP JUMPDEST PUSH1 0x20 DUP3 ADD SWAP2 POP DUP2 SWAP1 POP SWAP3 SWAP2 POP POP JUMP JUMPDEST PUSH2 0x21DA DUP2 PUSH2 0x20FA JUMP JUMPDEST DUP3 MSTORE POP POP JUMP JUMPDEST PUSH1 0x0 PUSH1 0x80 DUP3 ADD SWAP1 POP PUSH2 0x21F5 PUSH1 0x0 DUP4 ADD DUP8 PUSH2 0x14B1 JUMP JUMPDEST PUSH2 0x2202 PUSH1 0x20 DUP4 ADD DUP7 PUSH2 0x21D1 JUMP JUMPDEST PUSH2 0x220F PUSH1 0x40 DUP4 ADD DUP6 PUSH2 0x14B1 JUMP JUMPDEST PUSH2 0x221C PUSH1 0x60 DUP4 ADD DUP5 PUSH2 0x14B1 JUMP JUMPDEST SWAP6 SWAP5 POP POP POP POP POP JUMP INVALID LOG2 PUSH5 0x6970667358 0x22 SLT KECCAK256 LOG4 ADDMOD 0x25 0xFC RETURNDATACOPY CALLDATALOAD 0xF7 DUP2 DUP7 SLT PUSH2 0x4BD4 BALANCE CALLER 0xAA SWAP6 0xEB DELEGATECALL NUMBER SWAP9 0xAE SHR RETURN SHL JUMPI CODESIZE 0x4D 0xED SWAP14 PUSH22 0xD864736F6C634300080A003300000000000000000000 "
				},
				"gasEstimates": {
					"creation": {
						"codeDepositCost": "1759000",
						"executionCost": "1848",
						"totalCost": "1760848"
					},
					"external": {
						"AddCandidate(address,string)": "infinite",
						"AllCandidates(string)": "infinite",
						"NoOfRegisteredCandidates(string)": "infinite",
						"createPoll(string,uint16)": "infinite",
						"getUint(string)": "infinite",
						"metaVotingHash(address,string,uint256,uint256)": "infinite",
						"replayNonce(address)": "2858",
						"revealWinner(string)": "infinite",
						"setVotingState(string)": "infinite",
						"vote(address,string,uint256,bytes)": "infinite",
						"votingPoll(string)": "infinite"
					},
					"internal": {
						"countVote(address,string memory,address)": "infinite",
						"getSigner(bytes32,bytes memory)": "infinite"
					}
				},
				"methodIdentifiers": {
					"AddCandidate(address,string)": "57f53967",
					"AllCandidates(string)": "af7cbc0d",
					"NoOfRegisteredCandidates(string)": "8579cacd",
					"createPoll(string,uint16)": "0968d4b1",
					"getUint(string)": "498bff00",
					"metaVotingHash(address,string,uint256,uint256)": "01ff993b",
					"replayNonce(address)": "67d407df",
					"revealWinner(string)": "4fcf1f39",
					"setVotingState(string)": "f0e4de22",
					"vote(address,string,uint256,bytes)": "12f0da4b",
					"votingPoll(string)": "63ee965a"
				}
			},
			"storageLayout": {
				"storage": [
					{
						"astId": 30,
						"contract": "src/voting.sol:Voting",
						"label": "votingPoll",
						"offset": 0,
						"slot": "0",
						"type": "t_mapping(t_string_memory_ptr,t_struct(VotingPoll)25_storage)"
					},
					{
						"astId": 34,
						"contract": "src/voting.sol:Voting",
						"label": "replayNonce",
						"offset": 0,
						"slot": "1",
						"type": "t_mapping(t_address,t_uint256)"
					}
				],
				"types": {
					"t_address": {
						"encoding": "inplace",
						"label": "address",
						"numberOfBytes": "20"
					},
					"t_array(t_address)dyn_storage": {
						"base": "t_address",
						"encoding": "dynamic_array",
						"label": "address[]",
						"numberOfBytes": "32"
					},
					"t_bool": {
						"encoding": "inplace",
						"label": "bool",
						"numberOfBytes": "1"
					},
					"t_mapping(t_address,t_bool)": {
						"encoding": "mapping",
						"key": "t_address",
						"label": "mapping(address => bool)",
						"numberOfBytes": "32",
						"value": "t_bool"
					},
					"t_mapping(t_address,t_uint256)": {
						"encoding": "mapping",
						"key": "t_address",
						"label": "mapping(address => uint256)",
						"numberOfBytes": "32",
						"value": "t_uint256"
					},
					"t_mapping(t_string_memory_ptr,t_struct(VotingPoll)25_storage)": {
						"encoding": "mapping",
						"key": "t_string_memory_ptr",
						"label": "mapping(string => struct Voting.VotingPoll)",
						"numberOfBytes": "32",
						"value": "t_struct(VotingPoll)25_storage"
					},
					"t_string_memory_ptr": {
						"encoding": "bytes",
						"label": "string",
						"numberOfBytes": "32"
					},
					"t_struct(VotingPoll)25_storage": {
						"encoding": "inplace",
						"label": "struct Voting.VotingPoll",
						"members": [
							{
								"astId": 3,
								"contract": "src/voting.sol:Voting",
								"label": "chairman",
								"offset": 0,
								"slot": "0",
								"type": "t_address"
							},
							{
								"astId": 6,
								"contract": "src/voting.sol:Voting",
								"label": "candidates",
								"offset": 0,
								"slot": "1",
								"type": "t_array(t_address)dyn_storage"
							},
							{
								"astId": 8,
								"contract": "src/voting.sol:Voting",
								"label": "maxNoOfCandidates",
								"offset": 0,
								"slot": "2",
								"type": "t_uint32"
							},
							{
								"astId": 10,
								"contract": "src/voting.sol:Voting",
								"label": "currentNoOfCandidates",
								"offset": 4,
								"slot": "2",
								"type": "t_uint16"
							},
							{
								"astId": 12,
								"contract": "src/voting.sol:Voting",
								"label": "voting",
								"offset": 6,
								"slot": "2",
								"type": "t_bool"
							},
							{
								"astId": 16,
								"contract": "src/voting.sol:Voting",
								"label": "CandidateStatus",
								"offset": 0,
								"slot": "3",
								"type": "t_mapping(t_address,t_bool)"
							},
							{
								"astId": 20,
								"contract": "src/voting.sol:Voting",
								"label": "hasVoted",
								"offset": 0,
								"slot": "4",
								"type": "t_mapping(t_address,t_bool)"
							},
							{
								"astId": 24,
								"contract": "src/voting.sol:Voting",
								"label": "CandidateVote",
								"offset": 0,
								"slot": "5",
								"type": "t_mapping(t_address,t_uint256)"
							}
						],
						"numberOfBytes": "192"
					},
					"t_uint16": {
						"encoding": "inplace",
						"label": "uint16",
						"numberOfBytes": "2"
					},
					"t_uint256": {
						"encoding": "inplace",
						"label": "uint256",
						"numberOfBytes": "32"
					},
					"t_uint32": {
						"encoding": "inplace",
						"label": "uint32",
						"numberOfBytes": "4"
					}
				}
			},
			"userdoc": {
				"kind": "user",
				"methods": {},
				"version": 1
			}
		}
	}
}