{
	"src/voting.sol": {
		"Voting": {
			"abi": [
				{
					"anonymous": false,
					"inputs": [
						{
							"indexed": false,
							"internalType": "address",
							"name": "NewCandidate",
							"type": "address"
						}
					],
					"name": "becameCandidate",
					"type": "event"
				},
				{
					"anonymous": false,
					"inputs": [
						{
							"indexed": true,
							"internalType": "string",
							"name": "_name",
							"type": "string"
						},
						{
							"indexed": true,
							"internalType": "uint32",
							"name": "ExpectedNoOfCandidate",
							"type": "uint32"
						},
						{
							"indexed": true,
							"internalType": "uint256",
							"name": "_id",
							"type": "uint256"
						}
					],
					"name": "pollCreated",
					"type": "event"
				},
				{
					"anonymous": false,
					"inputs": [
						{
							"indexed": true,
							"internalType": "bool",
							"name": "status",
							"type": "bool"
						}
					],
					"name": "voteStatus",
					"type": "event"
				},
				{
					"anonymous": false,
					"inputs": [
						{
							"indexed": false,
							"internalType": "address",
							"name": "_candidate",
							"type": "address"
						},
						{
							"indexed": false,
							"internalType": "bool",
							"name": "status",
							"type": "bool"
						}
					],
					"name": "voted",
					"type": "event"
				},
				{
					"inputs": [
						{
							"internalType": "address",
							"name": "_newCandidate",
							"type": "address"
						},
						{
							"internalType": "uint256",
							"name": "_id",
							"type": "uint256"
						}
					],
					"name": "AddCandidate",
					"outputs": [],
					"stateMutability": "nonpayable",
					"type": "function"
				},
				{
					"inputs": [
						{
							"internalType": "uint256",
							"name": "_id",
							"type": "uint256"
						}
					],
					"name": "AllCandidates",
					"outputs": [
						{
							"internalType": "address[]",
							"name": "_candidates",
							"type": "address[]"
						}
					],
					"stateMutability": "view",
					"type": "function"
				},
				{
					"inputs": [
						{
							"internalType": "uint256",
							"name": "_id",
							"type": "uint256"
						}
					],
					"name": "NoOfRegisteredCandidates",
					"outputs": [
						{
							"internalType": "uint256",
							"name": "",
							"type": "uint256"
						}
					],
					"stateMutability": "view",
					"type": "function"
				},
				{
					"inputs": [
						{
							"internalType": "uint256",
							"name": "",
							"type": "uint256"
						}
					],
					"name": "VotingKey",
					"outputs": [
						{
							"internalType": "uint256",
							"name": "",
							"type": "uint256"
						}
					],
					"stateMutability": "view",
					"type": "function"
				},
				{
					"inputs": [
						{
							"internalType": "uint256",
							"name": "",
							"type": "uint256"
						}
					],
					"name": "VotingStruct",
					"outputs": [
						{
							"internalType": "string",
							"name": "name",
							"type": "string"
						},
						{
							"internalType": "address",
							"name": "chairman",
							"type": "address"
						},
						{
							"internalType": "uint32",
							"name": "maxNoOfCandidates",
							"type": "uint32"
						},
						{
							"internalType": "uint32",
							"name": "currentNoOfCandidates",
							"type": "uint32"
						},
						{
							"internalType": "bool",
							"name": "voting",
							"type": "bool"
						}
					],
					"stateMutability": "view",
					"type": "function"
				},
				{
					"inputs": [
						{
							"internalType": "string",
							"name": "_name",
							"type": "string"
						},
						{
							"internalType": "uint32",
							"name": "ExpectedNoOfCandidate",
							"type": "uint32"
						}
					],
					"name": "createPoll",
					"outputs": [],
					"stateMutability": "nonpayable",
					"type": "function"
				},
				{
					"inputs": [],
					"name": "getArrayOfStruct",
					"outputs": [
						{
							"components": [
								{
									"internalType": "string",
									"name": "name",
									"type": "string"
								},
								{
									"internalType": "address",
									"name": "chairman",
									"type": "address"
								},
								{
									"internalType": "address[]",
									"name": "candidates",
									"type": "address[]"
								},
								{
									"internalType": "uint32",
									"name": "maxNoOfCandidates",
									"type": "uint32"
								},
								{
									"internalType": "uint32",
									"name": "currentNoOfCandidates",
									"type": "uint32"
								},
								{
									"internalType": "bool",
									"name": "voting",
									"type": "bool"
								}
							],
							"internalType": "struct Voting.VotingPoll[]",
							"name": "",
							"type": "tuple[]"
						}
					],
					"stateMutability": "nonpayable",
					"type": "function"
				},
				{
					"inputs": [
						{
							"internalType": "uint256",
							"name": "_id",
							"type": "uint256"
						}
					],
					"name": "getVotePollProps",
					"outputs": [
						{
							"components": [
								{
									"internalType": "string",
									"name": "name",
									"type": "string"
								},
								{
									"internalType": "address",
									"name": "chairman",
									"type": "address"
								},
								{
									"internalType": "address[]",
									"name": "candidates",
									"type": "address[]"
								},
								{
									"internalType": "uint32",
									"name": "maxNoOfCandidates",
									"type": "uint32"
								},
								{
									"internalType": "uint32",
									"name": "currentNoOfCandidates",
									"type": "uint32"
								},
								{
									"internalType": "bool",
									"name": "voting",
									"type": "bool"
								}
							],
							"internalType": "struct Voting.VotingPoll",
							"name": "",
							"type": "tuple"
						}
					],
					"stateMutability": "view",
					"type": "function"
				},
				{
					"inputs": [
						{
							"internalType": "address",
							"name": "Cand",
							"type": "address"
						},
						{
							"internalType": "uint256",
							"name": "_id",
							"type": "uint256"
						},
						{
							"internalType": "uint256",
							"name": "nonce",
							"type": "uint256"
						},
						{
							"internalType": "uint256",
							"name": "time",
							"type": "uint256"
						}
					],
					"name": "metaVotingHash",
					"outputs": [
						{
							"internalType": "bytes32",
							"name": "",
							"type": "bytes32"
						}
					],
					"stateMutability": "view",
					"type": "function"
				},
				{
					"inputs": [
						{
							"internalType": "address",
							"name": "",
							"type": "address"
						}
					],
					"name": "replayNonce",
					"outputs": [
						{
							"internalType": "uint256",
							"name": "",
							"type": "uint256"
						}
					],
					"stateMutability": "view",
					"type": "function"
				},
				{
					"inputs": [
						{
							"internalType": "uint256",
							"name": "_id",
							"type": "uint256"
						}
					],
					"name": "revealWinner",
					"outputs": [
						{
							"internalType": "uint256[]",
							"name": "CV",
							"type": "uint256[]"
						},
						{
							"internalType": "address",
							"name": "",
							"type": "address"
						},
						{
							"internalType": "uint256",
							"name": "",
							"type": "uint256"
						}
					],
					"stateMutability": "view",
					"type": "function"
				},
				{
					"inputs": [
						{
							"internalType": "uint256",
							"name": "_id",
							"type": "uint256"
						}
					],
					"name": "setVotingState",
					"outputs": [],
					"stateMutability": "nonpayable",
					"type": "function"
				},
				{
					"inputs": [
						{
							"internalType": "address",
							"name": "Cand",
							"type": "address"
						},
						{
							"internalType": "uint256",
							"name": "_id",
							"type": "uint256"
						},
						{
							"internalType": "uint256",
							"name": "nonce",
							"type": "uint256"
						},
						{
							"internalType": "bytes",
							"name": "signature",
							"type": "bytes"
						}
					],
					"name": "vote",
					"outputs": [],
					"stateMutability": "nonpayable",
					"type": "function"
				},
				{
					"inputs": [
						{
							"internalType": "uint256",
							"name": "",
							"type": "uint256"
						}
					],
					"name": "votingPoll",
					"outputs": [
						{
							"internalType": "string",
							"name": "name",
							"type": "string"
						},
						{
							"internalType": "address",
							"name": "chairman",
							"type": "address"
						},
						{
							"internalType": "uint32",
							"name": "maxNoOfCandidates",
							"type": "uint32"
						},
						{
							"internalType": "uint32",
							"name": "currentNoOfCandidates",
							"type": "uint32"
						},
						{
							"internalType": "bool",
							"name": "voting",
							"type": "bool"
						}
					],
					"stateMutability": "view",
					"type": "function"
				}
			],
			"devdoc": {
				"kind": "dev",
				"methods": {},
				"version": 1
			},
			"evm": {
				"assembly": "    /* \"src/voting.sol\":63:5452  contract Voting{... */\n  mstore(0x40, 0x80)\n    /* \"src/voting.sol\":159:160  1 */\n  0x01\n    /* \"src/voting.sol\":149:160  uint id = 1 */\n  0x00\n  sstore\n    /* \"src/voting.sol\":63:5452  contract Voting{... */\n  callvalue\n  dup1\n  iszero\n  tag_1\n  jumpi\n  0x00\n  dup1\n  revert\ntag_1:\n  pop\n  dataSize(sub_0)\n  dup1\n  dataOffset(sub_0)\n  0x00\n  codecopy\n  0x00\n  return\nstop\n\nsub_0: assembly {\n        /* \"src/voting.sol\":63:5452  contract Voting{... */\n      mstore(0x40, 0x80)\n      callvalue\n      dup1\n      iszero\n      tag_1\n      jumpi\n      0x00\n      dup1\n      revert\n    tag_1:\n      pop\n      jumpi(tag_2, lt(calldatasize, 0x04))\n      shr(0xe0, calldataload(0x00))\n      dup1\n      0x8ccb59e8\n      gt\n      tag_17\n      jumpi\n      dup1\n      0xc10d6cec\n      gt\n      tag_18\n      jumpi\n      dup1\n      0xc10d6cec\n      eq\n      tag_13\n      jumpi\n      dup1\n      0xc57003cc\n      eq\n      tag_14\n      jumpi\n      dup1\n      0xe615f104\n      eq\n      tag_15\n      jumpi\n      dup1\n      0xf762f4c0\n      eq\n      tag_16\n      jumpi\n      jump(tag_2)\n    tag_18:\n      dup1\n      0x8ccb59e8\n      eq\n      tag_10\n      jumpi\n      dup1\n      0xae928e3e\n      eq\n      tag_11\n      jumpi\n      dup1\n      0xbfe2e25d\n      eq\n      tag_12\n      jumpi\n      jump(tag_2)\n    tag_17:\n      dup1\n      0x66c5343b\n      gt\n      tag_19\n      jumpi\n      dup1\n      0x66c5343b\n      eq\n      tag_6\n      jumpi\n      dup1\n      0x67d407df\n      eq\n      tag_7\n      jumpi\n      dup1\n      0x8321f397\n      eq\n      tag_8\n      jumpi\n      dup1\n      0x8ac3c3c2\n      eq\n      tag_9\n      jumpi\n      jump(tag_2)\n    tag_19:\n      dup1\n      0x049d1c8b\n      eq\n      tag_3\n      jumpi\n      dup1\n      0x21da751c\n      eq\n      tag_4\n      jumpi\n      dup1\n      0x278e2c90\n      eq\n      tag_5\n      jumpi\n    tag_2:\n      0x00\n      dup1\n      revert\n        /* \"src/voting.sol\":1950:2451  function AddCandidate(address _newCandidate, uint _id) external{... */\n    tag_3:\n      tag_20\n      0x04\n      dup1\n      calldatasize\n      sub\n      dup2\n      add\n      swap1\n      tag_21\n      swap2\n      swap1\n      tag_22\n      jump\t// in\n    tag_21:\n      tag_23\n      jump\t// in\n    tag_20:\n      stop\n        /* \"src/voting.sol\":3531:3601  function getArrayOfStruct() external returns(VotingPoll[] memory){... */\n    tag_4:\n      tag_24\n      tag_25\n      jump\t// in\n    tag_24:\n      mload(0x40)\n      tag_26\n      swap2\n      swap1\n      tag_27\n      jump\t// in\n    tag_26:\n      mload(0x40)\n      dup1\n      swap2\n      sub\n      swap1\n      return\n        /* \"src/voting.sol\":4535:4642  function getVotePollProps(uint _id) external view returns(VotingPoll memory){... */\n    tag_5:\n      tag_28\n      0x04\n      dup1\n      calldatasize\n      sub\n      dup2\n      add\n      swap1\n      tag_29\n      swap2\n      swap1\n      tag_30\n      jump\t// in\n    tag_29:\n      tag_31\n      jump\t// in\n    tag_28:\n      mload(0x40)\n      tag_32\n      swap2\n      swap1\n      tag_33\n      jump\t// in\n    tag_32:\n      mload(0x40)\n      dup1\n      swap2\n      sub\n      swap1\n      return\n        /* \"src/voting.sol\":3370:3528  function NoOfRegisteredCandidates( uint _id) public view returns(uint){... */\n    tag_6:\n      tag_34\n      0x04\n      dup1\n      calldatasize\n      sub\n      dup2\n      add\n      swap1\n      tag_35\n      swap2\n      swap1\n      tag_30\n      jump\t// in\n    tag_35:\n      tag_36\n      jump\t// in\n    tag_34:\n      mload(0x40)\n      tag_37\n      swap2\n      swap1\n      tag_38\n      jump\t// in\n    tag_37:\n      mload(0x40)\n      dup1\n      swap2\n      sub\n      swap1\n      return\n        /* \"src/voting.sol\":627:674  mapping (address => uint256) public replayNonce */\n    tag_7:\n      tag_39\n      0x04\n      dup1\n      calldatasize\n      sub\n      dup2\n      add\n      swap1\n      tag_40\n      swap2\n      swap1\n      tag_41\n      jump\t// in\n    tag_40:\n      tag_42\n      jump\t// in\n    tag_39:\n      mload(0x40)\n      tag_43\n      swap2\n      swap1\n      tag_38\n      jump\t// in\n    tag_43:\n      mload(0x40)\n      dup1\n      swap2\n      sub\n      swap1\n      return\n        /* \"src/voting.sol\":484:516  VotingPoll[] public VotingStruct */\n    tag_8:\n      tag_44\n      0x04\n      dup1\n      calldatasize\n      sub\n      dup2\n      add\n      swap1\n      tag_45\n      swap2\n      swap1\n      tag_30\n      jump\t// in\n    tag_45:\n      tag_46\n      jump\t// in\n    tag_44:\n      mload(0x40)\n      tag_47\n      swap6\n      swap5\n      swap4\n      swap3\n      swap2\n      swap1\n      tag_48\n      jump\t// in\n    tag_47:\n      mload(0x40)\n      dup1\n      swap2\n      sub\n      swap1\n      return\n        /* \"src/voting.sol\":3609:3769  function AllCandidates( uint _id) public view returns(address[] memory _candidates){... */\n    tag_9:\n      tag_49\n      0x04\n      dup1\n      calldatasize\n      sub\n      dup2\n      add\n      swap1\n      tag_50\n      swap2\n      swap1\n      tag_30\n      jump\t// in\n    tag_50:\n      tag_51\n      jump\t// in\n    tag_49:\n      mload(0x40)\n      tag_52\n      swap2\n      swap1\n      tag_53\n      jump\t// in\n    tag_52:\n      mload(0x40)\n      dup1\n      swap2\n      sub\n      swap1\n      return\n        /* \"src/voting.sol\":3772:4351  function revealWinner( uint _id) external view returns ( uint[] memory CV, address, uint){... */\n    tag_10:\n      tag_54\n      0x04\n      dup1\n      calldatasize\n      sub\n      dup2\n      add\n      swap1\n      tag_55\n      swap2\n      swap1\n      tag_30\n      jump\t// in\n    tag_55:\n      tag_56\n      jump\t// in\n    tag_54:\n      mload(0x40)\n      tag_57\n      swap4\n      swap3\n      swap2\n      swap1\n      tag_58\n      jump\t// in\n    tag_57:\n      mload(0x40)\n      dup1\n      swap2\n      sub\n      swap1\n      return\n        /* \"src/voting.sol\":459:482  uint[] public VotingKey */\n    tag_11:\n      tag_59\n      0x04\n      dup1\n      calldatasize\n      sub\n      dup2\n      add\n      swap1\n      tag_60\n      swap2\n      swap1\n      tag_30\n      jump\t// in\n    tag_60:\n      tag_61\n      jump\t// in\n    tag_59:\n      mload(0x40)\n      tag_62\n      swap2\n      swap1\n      tag_38\n      jump\t// in\n    tag_62:\n      mload(0x40)\n      dup1\n      swap2\n      sub\n      swap1\n      return\n        /* \"src/voting.sol\":4647:4862  function metaVotingHash(address Cand, uint _id, uint256 nonce, uint256 time) public view returns(bytes32){... */\n    tag_12:\n      tag_63\n      0x04\n      dup1\n      calldatasize\n      sub\n      dup2\n      add\n      swap1\n      tag_64\n      swap2\n      swap1\n      tag_65\n      jump\t// in\n    tag_64:\n      tag_66\n      jump\t// in\n    tag_63:\n      mload(0x40)\n      tag_67\n      swap2\n      swap1\n      tag_68\n      jump\t// in\n    tag_67:\n      mload(0x40)\n      dup1\n      swap2\n      sub\n      swap1\n      return\n        /* \"src/voting.sol\":2454:2946  function vote(address Cand, uint _id, uint256 nonce, bytes memory signature) external  isCandidate(Cand, _id) StillVoting(_id){... */\n    tag_13:\n      tag_69\n      0x04\n      dup1\n      calldatasize\n      sub\n      dup2\n      add\n      swap1\n      tag_70\n      swap2\n      swap1\n      tag_71\n      jump\t// in\n    tag_70:\n      tag_72\n      jump\t// in\n    tag_69:\n      stop\n        /* \"src/voting.sol\":3145:3367  function setVotingState( uint _id) external {... */\n    tag_14:\n      tag_73\n      0x04\n      dup1\n      calldatasize\n      sub\n      dup2\n      add\n      swap1\n      tag_74\n      swap2\n      swap1\n      tag_30\n      jump\t// in\n    tag_74:\n      tag_75\n      jump\t// in\n    tag_73:\n      stop\n        /* \"src/voting.sol\":580:625  mapping(uint => VotingPoll) public votingPoll */\n    tag_15:\n      tag_76\n      0x04\n      dup1\n      calldatasize\n      sub\n      dup2\n      add\n      swap1\n      tag_77\n      swap2\n      swap1\n      tag_30\n      jump\t// in\n    tag_77:\n      tag_78\n      jump\t// in\n    tag_76:\n      mload(0x40)\n      tag_79\n      swap6\n      swap5\n      swap4\n      swap3\n      swap2\n      swap1\n      tag_48\n      jump\t// in\n    tag_79:\n      mload(0x40)\n      dup1\n      swap2\n      sub\n      swap1\n      return\n        /* \"src/voting.sol\":1627:1946  function createPoll(string memory _name, uint32 ExpectedNoOfCandidate) external {... */\n    tag_16:\n      tag_80\n      0x04\n      dup1\n      calldatasize\n      sub\n      dup2\n      add\n      swap1\n      tag_81\n      swap2\n      swap1\n      tag_82\n      jump\t// in\n    tag_81:\n      tag_83\n      jump\t// in\n    tag_80:\n      stop\n        /* \"src/voting.sol\":1950:2451  function AddCandidate(address _newCandidate, uint _id) external{... */\n    tag_23:\n        /* \"src/voting.sol\":2020:2041  VotingPoll storage VP */\n      0x00\n        /* \"src/voting.sol\":2044:2054  votingPoll */\n      0x03\n        /* \"src/voting.sol\":2044:2059  votingPoll[_id] */\n      0x00\n        /* \"src/voting.sol\":2055:2058  _id */\n      dup4\n        /* \"src/voting.sol\":2044:2059  votingPoll[_id] */\n      dup2\n      mstore\n      0x20\n      add\n      swap1\n      dup2\n      mstore\n      0x20\n      add\n      0x00\n      keccak256\n        /* \"src/voting.sol\":2020:2059  VotingPoll storage VP = votingPoll[_id] */\n      swap1\n      pop\n        /* \"src/voting.sol\":2098:2099  0 */\n      0x00\n        /* \"src/voting.sol\":2075:2100  VP.chairman != address(0) */\n      0xffffffffffffffffffffffffffffffffffffffff\n      and\n        /* \"src/voting.sol\":2075:2077  VP */\n      dup2\n        /* \"src/voting.sol\":2075:2086  VP.chairman */\n      0x01\n      add\n      0x00\n      swap1\n      sload\n      swap1\n      0x0100\n      exp\n      swap1\n      div\n      0xffffffffffffffffffffffffffffffffffffffff\n      and\n        /* \"src/voting.sol\":2075:2100  VP.chairman != address(0) */\n      0xffffffffffffffffffffffffffffffffffffffff\n      and\n      eq\n      iszero\n        /* \"src/voting.sol\":2066:2126  require (VP.chairman != address(0) , \"yet to create a poll\") */\n      tag_85\n      jumpi\n      mload(0x40)\n      0x08c379a000000000000000000000000000000000000000000000000000000000\n      dup2\n      mstore\n      0x04\n      add\n      tag_86\n      swap1\n      tag_87\n      jump\t// in\n    tag_86:\n      mload(0x40)\n      dup1\n      swap2\n      sub\n      swap1\n      revert\n    tag_85:\n        /* \"src/voting.sol\":2157:2167  msg.sender */\n      caller\n        /* \"src/voting.sol\":2142:2167  VP.chairman == msg.sender */\n      0xffffffffffffffffffffffffffffffffffffffff\n      and\n        /* \"src/voting.sol\":2142:2144  VP */\n      dup2\n        /* \"src/voting.sol\":2142:2153  VP.chairman */\n      0x01\n      add\n      0x00\n      swap1\n      sload\n      swap1\n      0x0100\n      exp\n      swap1\n      div\n      0xffffffffffffffffffffffffffffffffffffffff\n      and\n        /* \"src/voting.sol\":2142:2167  VP.chairman == msg.sender */\n      0xffffffffffffffffffffffffffffffffffffffff\n      and\n      eq\n        /* \"src/voting.sol\":2135:2168  assert(VP.chairman == msg.sender) */\n      tag_88\n      jumpi\n      tag_89\n      tag_90\n      jump\t// in\n    tag_89:\n    tag_88:\n        /* \"src/voting.sol\":2210:2212  VP */\n      dup1\n        /* \"src/voting.sol\":2210:2230  VP.maxNoOfCandidates */\n      0x03\n      add\n      0x00\n      swap1\n      sload\n      swap1\n      0x0100\n      exp\n      swap1\n      div\n      0xffffffff\n      and\n        /* \"src/voting.sol\":2183:2230  VP.currentNoOfCandidates < VP.maxNoOfCandidates */\n      0xffffffff\n      and\n        /* \"src/voting.sol\":2183:2185  VP */\n      dup2\n        /* \"src/voting.sol\":2183:2207  VP.currentNoOfCandidates */\n      0x03\n      add\n      0x04\n      swap1\n      sload\n      swap1\n      0x0100\n      exp\n      swap1\n      div\n      0xffffffff\n      and\n        /* \"src/voting.sol\":2183:2230  VP.currentNoOfCandidates < VP.maxNoOfCandidates */\n      0xffffffff\n      and\n      lt\n        /* \"src/voting.sol\":2175:2281  require(VP.currentNoOfCandidates < VP.maxNoOfCandidates, \"maximum no of candidate per session registered\") */\n      tag_91\n      jumpi\n      mload(0x40)\n      0x08c379a000000000000000000000000000000000000000000000000000000000\n      dup2\n      mstore\n      0x04\n      add\n      tag_92\n      swap1\n      tag_93\n      jump\t// in\n    tag_92:\n      mload(0x40)\n      dup1\n      swap2\n      sub\n      swap1\n      revert\n    tag_91:\n        /* \"src/voting.sol\":2326:2330  true */\n      0x01\n        /* \"src/voting.sol\":2288:2303  CandidateStatus */\n      0x05\n        /* \"src/voting.sol\":2288:2308  CandidateStatus[_id] */\n      0x00\n        /* \"src/voting.sol\":2304:2307  _id */\n      dup5\n        /* \"src/voting.sol\":2288:2308  CandidateStatus[_id] */\n      dup2\n      mstore\n      0x20\n      add\n      swap1\n      dup2\n      mstore\n      0x20\n      add\n      0x00\n      keccak256\n        /* \"src/voting.sol\":2288:2323  CandidateStatus[_id][_newCandidate] */\n      0x00\n        /* \"src/voting.sol\":2309:2322  _newCandidate */\n      dup6\n        /* \"src/voting.sol\":2288:2323  CandidateStatus[_id][_newCandidate] */\n      0xffffffffffffffffffffffffffffffffffffffff\n      and\n      0xffffffffffffffffffffffffffffffffffffffff\n      and\n      dup2\n      mstore\n      0x20\n      add\n      swap1\n      dup2\n      mstore\n      0x20\n      add\n      0x00\n      keccak256\n      0x00\n        /* \"src/voting.sol\":2288:2330  CandidateStatus[_id][_newCandidate] = true */\n      0x0100\n      exp\n      dup2\n      sload\n      dup2\n      0xff\n      mul\n      not\n      and\n      swap1\n      dup4\n      iszero\n      iszero\n      mul\n      or\n      swap1\n      sstore\n      pop\n        /* \"src/voting.sol\":2338:2340  VP */\n      dup1\n        /* \"src/voting.sol\":2338:2351  VP.candidates */\n      0x02\n      add\n        /* \"src/voting.sol\":2357:2370  _newCandidate */\n      dup4\n        /* \"src/voting.sol\":2338:2371  VP.candidates.push(_newCandidate) */\n      swap1\n      dup1\n      0x01\n      dup2\n      sload\n      add\n      dup1\n      dup3\n      sstore\n      dup1\n      swap2\n      pop\n      pop\n      0x01\n      swap1\n      sub\n      swap1\n      0x00\n      mstore\n      keccak256(0x00, 0x20)\n      add\n      0x00\n      swap1\n      swap2\n      swap1\n      swap2\n      swap1\n      swap2\n      0x0100\n      exp\n      dup2\n      sload\n      dup2\n      0xffffffffffffffffffffffffffffffffffffffff\n      mul\n      not\n      and\n      swap1\n      dup4\n      0xffffffffffffffffffffffffffffffffffffffff\n      and\n      mul\n      or\n      swap1\n      sstore\n      pop\n        /* \"src/voting.sol\":2379:2381  VP */\n      dup1\n        /* \"src/voting.sol\":2379:2403  VP.currentNoOfCandidates */\n      0x03\n      add\n      0x04\n        /* \"src/voting.sol\":2379:2405  VP.currentNoOfCandidates++ */\n      dup2\n      dup2\n      swap1\n      sload\n      swap1\n      0x0100\n      exp\n      swap1\n      div\n      0xffffffff\n      and\n      dup1\n      swap3\n      swap2\n      swap1\n      tag_95\n      swap1\n      tag_96\n      jump\t// in\n    tag_95:\n      swap2\n      swap1\n      0x0100\n      exp\n      dup2\n      sload\n      dup2\n      0xffffffff\n      mul\n      not\n      and\n      swap1\n      dup4\n      0xffffffff\n      and\n      mul\n      or\n      swap1\n      sstore\n      pop\n      pop\n        /* \"src/voting.sol\":2417:2447  becameCandidate(_newCandidate) */\n      0xc19c59aa93348e8fc54764bc642eca975e2639f44cc683ef8f027e1529cbda32\n        /* \"src/voting.sol\":2433:2446  _newCandidate */\n      dup4\n        /* \"src/voting.sol\":2417:2447  becameCandidate(_newCandidate) */\n      mload(0x40)\n      tag_97\n      swap2\n      swap1\n      tag_98\n      jump\t// in\n    tag_97:\n      mload(0x40)\n      dup1\n      swap2\n      sub\n      swap1\n      log1\n        /* \"src/voting.sol\":2013:2451  {... */\n      pop\n        /* \"src/voting.sol\":1950:2451  function AddCandidate(address _newCandidate, uint _id) external{... */\n      pop\n      pop\n      jump\t// out\n        /* \"src/voting.sol\":3531:3601  function getArrayOfStruct() external returns(VotingPoll[] memory){... */\n    tag_25:\n        /* \"src/voting.sol\":3576:3595  VotingPoll[] memory */\n      0x60\n        /* \"src/voting.sol\":3531:3601  function getArrayOfStruct() external returns(VotingPoll[] memory){... */\n      swap1\n      jump\t// out\n        /* \"src/voting.sol\":4535:4642  function getVotePollProps(uint _id) external view returns(VotingPoll memory){... */\n    tag_31:\n        /* \"src/voting.sol\":4593:4610  VotingPoll memory */\n      tag_100\n      tag_101\n      jump\t// in\n    tag_100:\n        /* \"src/voting.sol\":4623:4633  votingPoll */\n      0x03\n        /* \"src/voting.sol\":4623:4638  votingPoll[_id] */\n      0x00\n        /* \"src/voting.sol\":4634:4637  _id */\n      dup4\n        /* \"src/voting.sol\":4623:4638  votingPoll[_id] */\n      dup2\n      mstore\n      0x20\n      add\n      swap1\n      dup2\n      mstore\n      0x20\n      add\n      0x00\n      keccak256\n        /* \"src/voting.sol\":4616:4638  return votingPoll[_id] */\n      mload(0x40)\n      dup1\n      0xc0\n      add\n      0x40\n      mstore\n      swap1\n      dup2\n      0x00\n      dup3\n      add\n      dup1\n      sload\n      tag_103\n      swap1\n      tag_104\n      jump\t// in\n    tag_103:\n      dup1\n      0x1f\n      add\n      0x20\n      dup1\n      swap2\n      div\n      mul\n      0x20\n      add\n      mload(0x40)\n      swap1\n      dup2\n      add\n      0x40\n      mstore\n      dup1\n      swap3\n      swap2\n      swap1\n      dup2\n      dup2\n      mstore\n      0x20\n      add\n      dup3\n      dup1\n      sload\n      tag_105\n      swap1\n      tag_104\n      jump\t// in\n    tag_105:\n      dup1\n      iszero\n      tag_106\n      jumpi\n      dup1\n      0x1f\n      lt\n      tag_107\n      jumpi\n      0x0100\n      dup1\n      dup4\n      sload\n      div\n      mul\n      dup4\n      mstore\n      swap2\n      0x20\n      add\n      swap2\n      jump(tag_106)\n    tag_107:\n      dup3\n      add\n      swap2\n      swap1\n      0x00\n      mstore\n      keccak256(0x00, 0x20)\n      swap1\n    tag_108:\n      dup2\n      sload\n      dup2\n      mstore\n      swap1\n      0x01\n      add\n      swap1\n      0x20\n      add\n      dup1\n      dup4\n      gt\n      tag_108\n      jumpi\n      dup3\n      swap1\n      sub\n      0x1f\n      and\n      dup3\n      add\n      swap2\n    tag_106:\n      pop\n      pop\n      pop\n      pop\n      pop\n      dup2\n      mstore\n      0x20\n      add\n      0x01\n      dup3\n      add\n      0x00\n      swap1\n      sload\n      swap1\n      0x0100\n      exp\n      swap1\n      div\n      0xffffffffffffffffffffffffffffffffffffffff\n      and\n      0xffffffffffffffffffffffffffffffffffffffff\n      and\n      0xffffffffffffffffffffffffffffffffffffffff\n      and\n      dup2\n      mstore\n      0x20\n      add\n      0x02\n      dup3\n      add\n      dup1\n      sload\n      dup1\n      0x20\n      mul\n      0x20\n      add\n      mload(0x40)\n      swap1\n      dup2\n      add\n      0x40\n      mstore\n      dup1\n      swap3\n      swap2\n      swap1\n      dup2\n      dup2\n      mstore\n      0x20\n      add\n      dup3\n      dup1\n      sload\n      dup1\n      iszero\n      tag_109\n      jumpi\n      0x20\n      mul\n      dup3\n      add\n      swap2\n      swap1\n      0x00\n      mstore\n      keccak256(0x00, 0x20)\n      swap1\n    tag_110:\n      dup2\n      0x00\n      swap1\n      sload\n      swap1\n      0x0100\n      exp\n      swap1\n      div\n      0xffffffffffffffffffffffffffffffffffffffff\n      and\n      0xffffffffffffffffffffffffffffffffffffffff\n      and\n      dup2\n      mstore\n      0x20\n      add\n      swap1\n      0x01\n      add\n      swap1\n      dup1\n      dup4\n      gt\n      tag_110\n      jumpi\n    tag_109:\n      pop\n      pop\n      pop\n      pop\n      pop\n      dup2\n      mstore\n      0x20\n      add\n      0x03\n      dup3\n      add\n      0x00\n      swap1\n      sload\n      swap1\n      0x0100\n      exp\n      swap1\n      div\n      0xffffffff\n      and\n      0xffffffff\n      and\n      0xffffffff\n      and\n      dup2\n      mstore\n      0x20\n      add\n      0x03\n      dup3\n      add\n      0x04\n      swap1\n      sload\n      swap1\n      0x0100\n      exp\n      swap1\n      div\n      0xffffffff\n      and\n      0xffffffff\n      and\n      0xffffffff\n      and\n      dup2\n      mstore\n      0x20\n      add\n      0x03\n      dup3\n      add\n      0x08\n      swap1\n      sload\n      swap1\n      0x0100\n      exp\n      swap1\n      div\n      0xff\n      and\n      iszero\n      iszero\n      iszero\n      iszero\n      dup2\n      mstore\n      pop\n      pop\n      swap1\n      pop\n        /* \"src/voting.sol\":4535:4642  function getVotePollProps(uint _id) external view returns(VotingPoll memory){... */\n      swap2\n      swap1\n      pop\n      jump\t// out\n        /* \"src/voting.sol\":3370:3528  function NoOfRegisteredCandidates( uint _id) public view returns(uint){... */\n    tag_36:\n        /* \"src/voting.sol\":3435:3439  uint */\n      0x00\n        /* \"src/voting.sol\":3447:3468  VotingPoll storage VP */\n      dup1\n        /* \"src/voting.sol\":3471:3481  votingPoll */\n      0x03\n        /* \"src/voting.sol\":3471:3486  votingPoll[_id] */\n      0x00\n        /* \"src/voting.sol\":3482:3485  _id */\n      dup5\n        /* \"src/voting.sol\":3471:3486  votingPoll[_id] */\n      dup2\n      mstore\n      0x20\n      add\n      swap1\n      dup2\n      mstore\n      0x20\n      add\n      0x00\n      keccak256\n        /* \"src/voting.sol\":3447:3486  VotingPoll storage VP = votingPoll[_id] */\n      swap1\n      pop\n        /* \"src/voting.sol\":3500:3502  VP */\n      dup1\n        /* \"src/voting.sol\":3500:3524  VP.currentNoOfCandidates */\n      0x03\n      add\n      0x04\n      swap1\n      sload\n      swap1\n      0x0100\n      exp\n      swap1\n      div\n      0xffffffff\n      and\n        /* \"src/voting.sol\":3493:3524  return VP.currentNoOfCandidates */\n      0xffffffff\n      and\n      swap2\n      pop\n      pop\n        /* \"src/voting.sol\":3370:3528  function NoOfRegisteredCandidates( uint _id) public view returns(uint){... */\n      swap2\n      swap1\n      pop\n      jump\t// out\n        /* \"src/voting.sol\":627:674  mapping (address => uint256) public replayNonce */\n    tag_42:\n      mstore(0x20, 0x04)\n      dup1\n      0x00\n      mstore\n      keccak256(0x00, 0x40)\n      0x00\n      swap2\n      pop\n      swap1\n      pop\n      sload\n      dup2\n      jump\t// out\n        /* \"src/voting.sol\":484:516  VotingPoll[] public VotingStruct */\n    tag_46:\n      0x02\n      dup2\n      dup2\n      sload\n      dup2\n      lt\n      tag_112\n      jumpi\n      0x00\n      dup1\n      revert\n    tag_112:\n      swap1\n      0x00\n      mstore\n      keccak256(0x00, 0x20)\n      swap1\n      0x04\n      mul\n      add\n      0x00\n      swap2\n      pop\n      swap1\n      pop\n      dup1\n      0x00\n      add\n      dup1\n      sload\n      tag_114\n      swap1\n      tag_104\n      jump\t// in\n    tag_114:\n      dup1\n      0x1f\n      add\n      0x20\n      dup1\n      swap2\n      div\n      mul\n      0x20\n      add\n      mload(0x40)\n      swap1\n      dup2\n      add\n      0x40\n      mstore\n      dup1\n      swap3\n      swap2\n      swap1\n      dup2\n      dup2\n      mstore\n      0x20\n      add\n      dup3\n      dup1\n      sload\n      tag_115\n      swap1\n      tag_104\n      jump\t// in\n    tag_115:\n      dup1\n      iszero\n      tag_116\n      jumpi\n      dup1\n      0x1f\n      lt\n      tag_117\n      jumpi\n      0x0100\n      dup1\n      dup4\n      sload\n      div\n      mul\n      dup4\n      mstore\n      swap2\n      0x20\n      add\n      swap2\n      jump(tag_116)\n    tag_117:\n      dup3\n      add\n      swap2\n      swap1\n      0x00\n      mstore\n      keccak256(0x00, 0x20)\n      swap1\n    tag_118:\n      dup2\n      sload\n      dup2\n      mstore\n      swap1\n      0x01\n      add\n      swap1\n      0x20\n      add\n      dup1\n      dup4\n      gt\n      tag_118\n      jumpi\n      dup3\n      swap1\n      sub\n      0x1f\n      and\n      dup3\n      add\n      swap2\n    tag_116:\n      pop\n      pop\n      pop\n      pop\n      pop\n      swap1\n      dup1\n      0x01\n      add\n      0x00\n      swap1\n      sload\n      swap1\n      0x0100\n      exp\n      swap1\n      div\n      0xffffffffffffffffffffffffffffffffffffffff\n      and\n      swap1\n      dup1\n      0x03\n      add\n      0x00\n      swap1\n      sload\n      swap1\n      0x0100\n      exp\n      swap1\n      div\n      0xffffffff\n      and\n      swap1\n      dup1\n      0x03\n      add\n      0x04\n      swap1\n      sload\n      swap1\n      0x0100\n      exp\n      swap1\n      div\n      0xffffffff\n      and\n      swap1\n      dup1\n      0x03\n      add\n      0x08\n      swap1\n      sload\n      swap1\n      0x0100\n      exp\n      swap1\n      div\n      0xff\n      and\n      swap1\n      pop\n      dup6\n      jump\t// out\n        /* \"src/voting.sol\":3609:3769  function AllCandidates( uint _id) public view returns(address[] memory _candidates){... */\n    tag_51:\n        /* \"src/voting.sol\":3663:3691  address[] memory _candidates */\n      0x60\n        /* \"src/voting.sol\":3699:3720  VotingPoll storage VP */\n      0x00\n        /* \"src/voting.sol\":3723:3733  votingPoll */\n      0x03\n        /* \"src/voting.sol\":3723:3738  votingPoll[_id] */\n      0x00\n        /* \"src/voting.sol\":3734:3737  _id */\n      dup5\n        /* \"src/voting.sol\":3723:3738  votingPoll[_id] */\n      dup2\n      mstore\n      0x20\n      add\n      swap1\n      dup2\n      mstore\n      0x20\n      add\n      0x00\n      keccak256\n        /* \"src/voting.sol\":3699:3738  VotingPoll storage VP = votingPoll[_id] */\n      swap1\n      pop\n        /* \"src/voting.sol\":3752:3754  VP */\n      dup1\n        /* \"src/voting.sol\":3752:3765  VP.candidates */\n      0x02\n      add\n        /* \"src/voting.sol\":3745:3765  return VP.candidates */\n      dup1\n      sload\n      dup1\n      0x20\n      mul\n      0x20\n      add\n      mload(0x40)\n      swap1\n      dup2\n      add\n      0x40\n      mstore\n      dup1\n      swap3\n      swap2\n      swap1\n      dup2\n      dup2\n      mstore\n      0x20\n      add\n      dup3\n      dup1\n      sload\n      dup1\n      iszero\n      tag_120\n      jumpi\n      0x20\n      mul\n      dup3\n      add\n      swap2\n      swap1\n      0x00\n      mstore\n      keccak256(0x00, 0x20)\n      swap1\n    tag_121:\n      dup2\n      0x00\n      swap1\n      sload\n      swap1\n      0x0100\n      exp\n      swap1\n      div\n      0xffffffffffffffffffffffffffffffffffffffff\n      and\n      0xffffffffffffffffffffffffffffffffffffffff\n      and\n      dup2\n      mstore\n      0x20\n      add\n      swap1\n      0x01\n      add\n      swap1\n      dup1\n      dup4\n      gt\n      tag_121\n      jumpi\n    tag_120:\n      pop\n      pop\n      pop\n      pop\n      pop\n      swap2\n      pop\n      pop\n        /* \"src/voting.sol\":3609:3769  function AllCandidates( uint _id) public view returns(address[] memory _candidates){... */\n      swap2\n      swap1\n      pop\n      jump\t// out\n        /* \"src/voting.sol\":3772:4351  function revealWinner( uint _id) external view returns ( uint[] memory CV, address, uint){... */\n    tag_56:\n        /* \"src/voting.sol\":3829:3845  uint[] memory CV */\n      0x60\n        /* \"src/voting.sol\":3847:3854  address */\n      0x00\n        /* \"src/voting.sol\":3856:3860  uint */\n      dup1\n        /* \"src/voting.sol\":3868:3889  VotingPoll storage VP */\n      0x00\n        /* \"src/voting.sol\":3892:3902  votingPoll */\n      0x03\n        /* \"src/voting.sol\":3892:3907  votingPoll[_id] */\n      0x00\n        /* \"src/voting.sol\":3903:3906  _id */\n      dup7\n        /* \"src/voting.sol\":3892:3907  votingPoll[_id] */\n      dup2\n      mstore\n      0x20\n      add\n      swap1\n      dup2\n      mstore\n      0x20\n      add\n      0x00\n      keccak256\n        /* \"src/voting.sol\":3868:3907  VotingPoll storage VP = votingPoll[_id] */\n      swap1\n      pop\n        /* \"src/voting.sol\":3945:3946  0 */\n      0x00\n        /* \"src/voting.sol\":3922:3947  VP.chairman != address(0) */\n      0xffffffffffffffffffffffffffffffffffffffff\n      and\n        /* \"src/voting.sol\":3922:3924  VP */\n      dup2\n        /* \"src/voting.sol\":3922:3933  VP.chairman */\n      0x01\n      add\n      0x00\n      swap1\n      sload\n      swap1\n      0x0100\n      exp\n      swap1\n      div\n      0xffffffffffffffffffffffffffffffffffffffff\n      and\n        /* \"src/voting.sol\":3922:3947  VP.chairman != address(0) */\n      0xffffffffffffffffffffffffffffffffffffffff\n      and\n      eq\n      iszero\n        /* \"src/voting.sol\":3914:3967  require(VP.chairman != address(0), \"No poll created\") */\n      tag_123\n      jumpi\n      mload(0x40)\n      0x08c379a000000000000000000000000000000000000000000000000000000000\n      dup2\n      mstore\n      0x04\n      add\n      tag_124\n      swap1\n      tag_125\n      jump\t// in\n    tag_124:\n      mload(0x40)\n      dup1\n      swap2\n      sub\n      swap1\n      revert\n    tag_123:\n        /* \"src/voting.sol\":3990:3992  VP */\n      dup1\n        /* \"src/voting.sol\":3990:4003  VP.candidates */\n      0x02\n      add\n        /* \"src/voting.sol\":3990:4010  VP.candidates.length */\n      dup1\n      sload\n      swap1\n      pop\n        /* \"src/voting.sol\":3979:4011  new uint[](VP.candidates.length) */\n      0xffffffffffffffff\n      dup2\n      gt\n      iszero\n      tag_126\n      jumpi\n      tag_127\n      tag_128\n      jump\t// in\n    tag_127:\n    tag_126:\n      mload(0x40)\n      swap1\n      dup1\n      dup3\n      mstore\n      dup1\n      0x20\n      mul\n      0x20\n      add\n      dup3\n      add\n      0x40\n      mstore\n      dup1\n      iszero\n      tag_129\n      jumpi\n      dup2\n      0x20\n      add\n      0x20\n      dup3\n      mul\n      dup1\n      calldatasize\n      dup4\n      calldatacopy\n      dup1\n      dup3\n      add\n      swap2\n      pop\n      pop\n      swap1\n      pop\n    tag_129:\n      pop\n        /* \"src/voting.sol\":3974:4011  CV = new uint[](VP.candidates.length) */\n      swap4\n      pop\n        /* \"src/voting.sol\":4018:4034  uint highestVote */\n      0x00\n        /* \"src/voting.sol\":4041:4055  address winner */\n      dup1\n        /* \"src/voting.sol\":4067:4073  uint i */\n      0x00\n        /* \"src/voting.sol\":4062:4309  for (uint i =0; i <= VP.candidates.length; i++){... */\n    tag_130:\n        /* \"src/voting.sol\":4083:4085  VP */\n      dup4\n        /* \"src/voting.sol\":4083:4096  VP.candidates */\n      0x02\n      add\n        /* \"src/voting.sol\":4083:4103  VP.candidates.length */\n      dup1\n      sload\n      swap1\n      pop\n        /* \"src/voting.sol\":4078:4079  i */\n      dup2\n        /* \"src/voting.sol\":4078:4103  i <= VP.candidates.length */\n      gt\n        /* \"src/voting.sol\":4062:4309  for (uint i =0; i <= VP.candidates.length; i++){... */\n      tag_131\n      jumpi\n        /* \"src/voting.sol\":4118:4126  uint val */\n      0x00\n        /* \"src/voting.sol\":4129:4147  getPosition(_id,i) */\n      tag_133\n        /* \"src/voting.sol\":4141:4144  _id */\n      dup10\n        /* \"src/voting.sol\":4145:4146  i */\n      dup4\n        /* \"src/voting.sol\":4129:4140  getPosition */\n      tag_134\n        /* \"src/voting.sol\":4129:4147  getPosition(_id,i) */\n      jump\t// in\n    tag_133:\n        /* \"src/voting.sol\":4118:4147  uint val = getPosition(_id,i) */\n      swap1\n      pop\n        /* \"src/voting.sol\":4163:4174  highestVote */\n      dup4\n        /* \"src/voting.sol\":4157:4160  val */\n      dup2\n        /* \"src/voting.sol\":4157:4174  val > highestVote */\n      gt\n        /* \"src/voting.sol\":4154:4248  if(val > highestVote){... */\n      iszero\n      tag_135\n      jumpi\n        /* \"src/voting.sol\":4200:4203  val */\n      dup1\n        /* \"src/voting.sol\":4186:4203  highestVote = val */\n      swap4\n      pop\n        /* \"src/voting.sol\":4224:4226  VP */\n      dup5\n        /* \"src/voting.sol\":4224:4237  VP.candidates */\n      0x02\n      add\n        /* \"src/voting.sol\":4238:4239  i */\n      dup3\n        /* \"src/voting.sol\":4224:4240  VP.candidates[i] */\n      dup2\n      sload\n      dup2\n      lt\n      tag_136\n      jumpi\n      tag_137\n      tag_138\n      jump\t// in\n    tag_137:\n    tag_136:\n      swap1\n      0x00\n      mstore\n      keccak256(0x00, 0x20)\n      add\n      0x00\n      swap1\n      sload\n      swap1\n      0x0100\n      exp\n      swap1\n      div\n      0xffffffffffffffffffffffffffffffffffffffff\n      and\n        /* \"src/voting.sol\":4215:4240  winner = VP.candidates[i] */\n      swap3\n      pop\n        /* \"src/voting.sol\":4154:4248  if(val > highestVote){... */\n    tag_135:\n        /* \"src/voting.sol\":4263:4276  CandidateVote */\n      0x06\n        /* \"src/voting.sol\":4263:4281  CandidateVote[_id] */\n      0x00\n        /* \"src/voting.sol\":4277:4280  _id */\n      dup11\n        /* \"src/voting.sol\":4263:4281  CandidateVote[_id] */\n      dup2\n      mstore\n      0x20\n      add\n      swap1\n      dup2\n      mstore\n      0x20\n      add\n      0x00\n      keccak256\n        /* \"src/voting.sol\":4263:4299  CandidateVote[_id][VP.candidates[i]] */\n      0x00\n        /* \"src/voting.sol\":4282:4284  VP */\n      dup7\n        /* \"src/voting.sol\":4282:4295  VP.candidates */\n      0x02\n      add\n        /* \"src/voting.sol\":4296:4297  i */\n      dup5\n        /* \"src/voting.sol\":4282:4298  VP.candidates[i] */\n      dup2\n      sload\n      dup2\n      lt\n      tag_140\n      jumpi\n      tag_141\n      tag_138\n      jump\t// in\n    tag_141:\n    tag_140:\n      swap1\n      0x00\n      mstore\n      keccak256(0x00, 0x20)\n      add\n      0x00\n      swap1\n      sload\n      swap1\n      0x0100\n      exp\n      swap1\n      div\n      0xffffffffffffffffffffffffffffffffffffffff\n      and\n        /* \"src/voting.sol\":4263:4299  CandidateVote[_id][VP.candidates[i]] */\n      0xffffffffffffffffffffffffffffffffffffffff\n      and\n      0xffffffffffffffffffffffffffffffffffffffff\n      and\n      dup2\n      mstore\n      0x20\n      add\n      swap1\n      dup2\n      mstore\n      0x20\n      add\n      0x00\n      keccak256\n      sload\n        /* \"src/voting.sol\":4254:4256  CV */\n      dup9\n        /* \"src/voting.sol\":4257:4258  i */\n      dup4\n        /* \"src/voting.sol\":4254:4259  CV[i] */\n      dup2\n      mload\n      dup2\n      lt\n      tag_143\n      jumpi\n      tag_144\n      tag_138\n      jump\t// in\n    tag_144:\n    tag_143:\n      0x20\n      mul\n      0x20\n      add\n      add\n        /* \"src/voting.sol\":4254:4300  CV[i] = (CandidateVote[_id][VP.candidates[i]]) */\n      dup2\n      dup2\n      mstore\n      pop\n      pop\n        /* \"src/voting.sol\":4109:4309  {... */\n      pop\n        /* \"src/voting.sol\":4105:4108  i++ */\n      dup1\n      dup1\n      tag_145\n      swap1\n      tag_146\n      jump\t// in\n    tag_145:\n      swap2\n      pop\n      pop\n        /* \"src/voting.sol\":4062:4309  for (uint i =0; i <= VP.candidates.length; i++){... */\n      jump(tag_130)\n    tag_131:\n      pop\n        /* \"src/voting.sol\":4323:4325  CV */\n      dup6\n        /* \"src/voting.sol\":4327:4333  winner */\n      dup2\n        /* \"src/voting.sol\":4335:4346  highestVote */\n      dup4\n        /* \"src/voting.sol\":4315:4347  return (CV, winner, highestVote) */\n      swap6\n      pop\n      swap6\n      pop\n      swap6\n      pop\n      pop\n      pop\n      pop\n        /* \"src/voting.sol\":3772:4351  function revealWinner( uint _id) external view returns ( uint[] memory CV, address, uint){... */\n      swap2\n      swap4\n      swap1\n      swap3\n      pop\n      jump\t// out\n        /* \"src/voting.sol\":459:482  uint[] public VotingKey */\n    tag_61:\n      0x01\n      dup2\n      dup2\n      sload\n      dup2\n      lt\n      tag_147\n      jumpi\n      0x00\n      dup1\n      revert\n    tag_147:\n      swap1\n      0x00\n      mstore\n      keccak256(0x00, 0x20)\n      add\n      0x00\n      swap2\n      pop\n      swap1\n      pop\n      sload\n      dup2\n      jump\t// out\n        /* \"src/voting.sol\":4647:4862  function metaVotingHash(address Cand, uint _id, uint256 nonce, uint256 time) public view returns(bytes32){... */\n    tag_66:\n        /* \"src/voting.sol\":4744:4751  bytes32 */\n      0x00\n        /* \"src/voting.sol\":4800:4804  this */\n      address\n        /* \"src/voting.sol\":4833:4837  Cand */\n      dup6\n        /* \"src/voting.sol\":4839:4842  _id */\n      dup6\n        /* \"src/voting.sol\":4844:4849  nonce */\n      dup6\n        /* \"src/voting.sol\":4851:4855  time */\n      dup6\n        /* \"src/voting.sol\":4775:4856  abi.encodePacked(address(this),\"metatransaction Voting \", Cand, _id, nonce, time) */\n      add(0x20, mload(0x40))\n      tag_150\n      swap6\n      swap5\n      swap4\n      swap3\n      swap2\n      swap1\n      tag_151\n      jump\t// in\n    tag_150:\n      mload(0x40)\n      0x20\n      dup2\n      dup4\n      sub\n      sub\n      dup2\n      mstore\n      swap1\n      0x40\n      mstore\n        /* \"src/voting.sol\":4765:4857  keccak256(abi.encodePacked(address(this),\"metatransaction Voting \", Cand, _id, nonce, time)) */\n      dup1\n      mload\n      swap1\n      0x20\n      add\n      keccak256\n        /* \"src/voting.sol\":4758:4857  return keccak256(abi.encodePacked(address(this),\"metatransaction Voting \", Cand, _id, nonce, time)) */\n      swap1\n      pop\n        /* \"src/voting.sol\":4647:4862  function metaVotingHash(address Cand, uint _id, uint256 nonce, uint256 time) public view returns(bytes32){... */\n      swap5\n      swap4\n      pop\n      pop\n      pop\n      pop\n      jump\t// out\n        /* \"src/voting.sol\":2454:2946  function vote(address Cand, uint _id, uint256 nonce, bytes memory signature) external  isCandidate(Cand, _id) StillVoting(_id){... */\n    tag_72:\n        /* \"src/voting.sol\":2553:2557  Cand */\n      dup4\n        /* \"src/voting.sol\":2559:2562  _id */\n      dup4\n        /* \"src/voting.sol\":1289:1293  true */\n      0x01\n        /* \"src/voting.sol\":1261:1293  CandidateStatus[_id][Cand]==true */\n      iszero\n      iszero\n        /* \"src/voting.sol\":1261:1276  CandidateStatus */\n      0x05\n        /* \"src/voting.sol\":1261:1281  CandidateStatus[_id] */\n      0x00\n        /* \"src/voting.sol\":1277:1280  _id */\n      dup4\n        /* \"src/voting.sol\":1261:1281  CandidateStatus[_id] */\n      dup2\n      mstore\n      0x20\n      add\n      swap1\n      dup2\n      mstore\n      0x20\n      add\n      0x00\n      keccak256\n        /* \"src/voting.sol\":1261:1287  CandidateStatus[_id][Cand] */\n      0x00\n        /* \"src/voting.sol\":1282:1286  Cand */\n      dup5\n        /* \"src/voting.sol\":1261:1287  CandidateStatus[_id][Cand] */\n      0xffffffffffffffffffffffffffffffffffffffff\n      and\n      0xffffffffffffffffffffffffffffffffffffffff\n      and\n      dup2\n      mstore\n      0x20\n      add\n      swap1\n      dup2\n      mstore\n      0x20\n      add\n      0x00\n      keccak256\n      0x00\n      swap1\n      sload\n      swap1\n      0x0100\n      exp\n      swap1\n      div\n      0xff\n      and\n        /* \"src/voting.sol\":1261:1293  CandidateStatus[_id][Cand]==true */\n      iszero\n      iszero\n      eq\n        /* \"src/voting.sol\":1253:1339  require(CandidateStatus[_id][Cand]==true,'This address does not exist as a candidate') */\n      tag_153\n      jumpi\n      mload(0x40)\n      0x08c379a000000000000000000000000000000000000000000000000000000000\n      dup2\n      mstore\n      0x04\n      add\n      tag_154\n      swap1\n      tag_155\n      jump\t// in\n    tag_154:\n      mload(0x40)\n      dup1\n      swap2\n      sub\n      swap1\n      revert\n    tag_153:\n        /* \"src/voting.sol\":2576:2579  _id */\n      dup5\n        /* \"src/voting.sol\":1389:1410  VotingPoll storage VP */\n      0x00\n        /* \"src/voting.sol\":1413:1423  votingPoll */\n      0x03\n        /* \"src/voting.sol\":1413:1428  votingPoll[_id] */\n      0x00\n        /* \"src/voting.sol\":1424:1427  _id */\n      dup4\n        /* \"src/voting.sol\":1413:1428  votingPoll[_id] */\n      dup2\n      mstore\n      0x20\n      add\n      swap1\n      dup2\n      mstore\n      0x20\n      add\n      0x00\n      keccak256\n        /* \"src/voting.sol\":1389:1428  VotingPoll storage VP = votingPoll[_id] */\n      swap1\n      pop\n        /* \"src/voting.sol\":1455:1459  true */\n      0x01\n        /* \"src/voting.sol\":1442:1459  VP.voting == true */\n      iszero\n      iszero\n        /* \"src/voting.sol\":1442:1444  VP */\n      dup2\n        /* \"src/voting.sol\":1442:1451  VP.voting */\n      0x03\n      add\n      0x08\n      swap1\n      sload\n      swap1\n      0x0100\n      exp\n      swap1\n      div\n      0xff\n      and\n        /* \"src/voting.sol\":1442:1459  VP.voting == true */\n      iszero\n      iszero\n      eq\n        /* \"src/voting.sol\":1434:1480  require(VP.voting == true, \"voting has ended\") */\n      tag_157\n      jumpi\n      mload(0x40)\n      0x08c379a000000000000000000000000000000000000000000000000000000000\n      dup2\n      mstore\n      0x04\n      add\n      tag_158\n      swap1\n      tag_159\n      jump\t// in\n    tag_158:\n      mload(0x40)\n      dup1\n      swap2\n      sub\n      swap1\n      revert\n    tag_157:\n        /* \"src/voting.sol\":2587:2603  bytes32 metaHash */\n      0x00\n        /* \"src/voting.sol\":2606:2652  metaVotingHash(Cand,_id,nonce,block.timestamp) */\n      tag_161\n        /* \"src/voting.sol\":2621:2625  Cand */\n      dup10\n        /* \"src/voting.sol\":2626:2629  _id */\n      dup10\n        /* \"src/voting.sol\":2630:2635  nonce */\n      dup10\n        /* \"src/voting.sol\":2636:2651  block.timestamp */\n      timestamp\n        /* \"src/voting.sol\":2606:2620  metaVotingHash */\n      tag_66\n        /* \"src/voting.sol\":2606:2652  metaVotingHash(Cand,_id,nonce,block.timestamp) */\n      jump\t// in\n    tag_161:\n        /* \"src/voting.sol\":2587:2652  bytes32 metaHash = metaVotingHash(Cand,_id,nonce,block.timestamp) */\n      swap1\n      pop\n        /* \"src/voting.sol\":2659:2673  address signer */\n      0x00\n        /* \"src/voting.sol\":2676:2705  getSigner(metaHash,signature) */\n      tag_162\n        /* \"src/voting.sol\":2686:2694  metaHash */\n      dup3\n        /* \"src/voting.sol\":2695:2704  signature */\n      dup9\n        /* \"src/voting.sol\":2676:2685  getSigner */\n      tag_163\n        /* \"src/voting.sol\":2676:2705  getSigner(metaHash,signature) */\n      jump\t// in\n    tag_162:\n        /* \"src/voting.sol\":2659:2705  address signer = getSigner(metaHash,signature) */\n      swap1\n      pop\n        /* \"src/voting.sol\":2736:2737  0 */\n      0x00\n        /* \"src/voting.sol\":2720:2738  signer!=address(0) */\n      0xffffffffffffffffffffffffffffffffffffffff\n      and\n        /* \"src/voting.sol\":2720:2726  signer */\n      dup2\n        /* \"src/voting.sol\":2720:2738  signer!=address(0) */\n      0xffffffffffffffffffffffffffffffffffffffff\n      and\n      eq\n      iszero\n        /* \"src/voting.sol\":2712:2739  require(signer!=address(0)) */\n      tag_164\n      jumpi\n      0x00\n      dup1\n      revert\n    tag_164:\n        /* \"src/voting.sol\":2762:2773  replayNonce */\n      0x04\n        /* \"src/voting.sol\":2762:2781  replayNonce[signer] */\n      0x00\n        /* \"src/voting.sol\":2774:2780  signer */\n      dup3\n        /* \"src/voting.sol\":2762:2781  replayNonce[signer] */\n      0xffffffffffffffffffffffffffffffffffffffff\n      and\n      0xffffffffffffffffffffffffffffffffffffffff\n      and\n      dup2\n      mstore\n      0x20\n      add\n      swap1\n      dup2\n      mstore\n      0x20\n      add\n      0x00\n      keccak256\n      sload\n        /* \"src/voting.sol\":2753:2758  nonce */\n      dup9\n        /* \"src/voting.sol\":2753:2781  nonce == replayNonce[signer] */\n      eq\n        /* \"src/voting.sol\":2745:2782  require(nonce == replayNonce[signer]) */\n      tag_165\n      jumpi\n      0x00\n      dup1\n      revert\n    tag_165:\n        /* \"src/voting.sol\":2788:2799  replayNonce */\n      0x04\n        /* \"src/voting.sol\":2788:2807  replayNonce[signer] */\n      0x00\n        /* \"src/voting.sol\":2800:2806  signer */\n      dup3\n        /* \"src/voting.sol\":2788:2807  replayNonce[signer] */\n      0xffffffffffffffffffffffffffffffffffffffff\n      and\n      0xffffffffffffffffffffffffffffffffffffffff\n      and\n      dup2\n      mstore\n      0x20\n      add\n      swap1\n      dup2\n      mstore\n      0x20\n      add\n      0x00\n      keccak256\n      0x00\n        /* \"src/voting.sol\":2788:2809  replayNonce[signer]++ */\n      dup2\n      sload\n      dup1\n      swap3\n      swap2\n      swap1\n      tag_166\n      swap1\n      tag_146\n      jump\t// in\n    tag_166:\n      swap2\n      swap1\n      pop\n      sstore\n      pop\n        /* \"src/voting.sol\":2849:2854  false */\n      0x00\n        /* \"src/voting.sol\":2824:2854  hasVoted[_id][signer] == false */\n      iszero\n      iszero\n        /* \"src/voting.sol\":2824:2832  hasVoted */\n      0x07\n        /* \"src/voting.sol\":2824:2837  hasVoted[_id] */\n      0x00\n        /* \"src/voting.sol\":2833:2836  _id */\n      dup12\n        /* \"src/voting.sol\":2824:2837  hasVoted[_id] */\n      dup2\n      mstore\n      0x20\n      add\n      swap1\n      dup2\n      mstore\n      0x20\n      add\n      0x00\n      keccak256\n        /* \"src/voting.sol\":2824:2845  hasVoted[_id][signer] */\n      0x00\n        /* \"src/voting.sol\":2838:2844  signer */\n      dup4\n        /* \"src/voting.sol\":2824:2845  hasVoted[_id][signer] */\n      0xffffffffffffffffffffffffffffffffffffffff\n      and\n      0xffffffffffffffffffffffffffffffffffffffff\n      and\n      dup2\n      mstore\n      0x20\n      add\n      swap1\n      dup2\n      mstore\n      0x20\n      add\n      0x00\n      keccak256\n      0x00\n      swap1\n      sload\n      swap1\n      0x0100\n      exp\n      swap1\n      div\n      0xff\n      and\n        /* \"src/voting.sol\":2824:2854  hasVoted[_id][signer] == false */\n      iszero\n      iszero\n      eq\n        /* \"src/voting.sol\":2816:2876  require(hasVoted[_id][signer] == false, \"You already voted\") */\n      tag_167\n      jumpi\n      mload(0x40)\n      0x08c379a000000000000000000000000000000000000000000000000000000000\n      dup2\n      mstore\n      0x04\n      add\n      tag_168\n      swap1\n      tag_169\n      jump\t// in\n    tag_168:\n      mload(0x40)\n      dup1\n      swap2\n      sub\n      swap1\n      revert\n    tag_167:\n        /* \"src/voting.sol\":2884:2912  countVote(Cand, _id, signer) */\n      tag_170\n        /* \"src/voting.sol\":2894:2898  Cand */\n      dup11\n        /* \"src/voting.sol\":2900:2903  _id */\n      dup11\n        /* \"src/voting.sol\":2905:2911  signer */\n      dup4\n        /* \"src/voting.sol\":2884:2893  countVote */\n      tag_171\n        /* \"src/voting.sol\":2884:2912  countVote(Cand, _id, signer) */\n      jump\t// in\n    tag_170:\n      pop\n        /* \"src/voting.sol\":2924:2941  voted(Cand, true) */\n      0xf3f16a15f074b71c5138107dfc7c63b80524d5411cb967caa97d8d9f12b2fd6b\n        /* \"src/voting.sol\":2930:2934  Cand */\n      dup11\n        /* \"src/voting.sol\":2936:2940  true */\n      0x01\n        /* \"src/voting.sol\":2924:2941  voted(Cand, true) */\n      mload(0x40)\n      tag_172\n      swap3\n      swap2\n      swap1\n      tag_173\n      jump\t// in\n    tag_172:\n      mload(0x40)\n      dup1\n      swap2\n      sub\n      swap1\n      log1\n        /* \"src/voting.sol\":2580:2946  {... */\n      pop\n      pop\n        /* \"src/voting.sol\":1383:1491  {... */\n      pop\n        /* \"src/voting.sol\":1345:1346  _ */\n      pop\n        /* \"src/voting.sol\":2454:2946  function vote(address Cand, uint _id, uint256 nonce, bytes memory signature) external  isCandidate(Cand, _id) StillVoting(_id){... */\n      pop\n      pop\n      pop\n      pop\n      pop\n      pop\n      jump\t// out\n        /* \"src/voting.sol\":3145:3367  function setVotingState( uint _id) external {... */\n    tag_75:\n        /* \"src/voting.sol\":3195:3216  VotingPoll storage VP */\n      0x00\n        /* \"src/voting.sol\":3219:3229  votingPoll */\n      0x03\n        /* \"src/voting.sol\":3219:3234  votingPoll[_id] */\n      0x00\n        /* \"src/voting.sol\":3230:3233  _id */\n      dup4\n        /* \"src/voting.sol\":3219:3234  votingPoll[_id] */\n      dup2\n      mstore\n      0x20\n      add\n      swap1\n      dup2\n      mstore\n      0x20\n      add\n      0x00\n      keccak256\n        /* \"src/voting.sol\":3195:3234  VotingPoll storage VP = votingPoll[_id] */\n      swap1\n      pop\n        /* \"src/voting.sol\":3263:3273  msg.sender */\n      caller\n        /* \"src/voting.sol\":3248:3273  VP.chairman == msg.sender */\n      0xffffffffffffffffffffffffffffffffffffffff\n      and\n        /* \"src/voting.sol\":3248:3250  VP */\n      dup2\n        /* \"src/voting.sol\":3248:3259  VP.chairman */\n      0x01\n      add\n      0x00\n      swap1\n      sload\n      swap1\n      0x0100\n      exp\n      swap1\n      div\n      0xffffffffffffffffffffffffffffffffffffffff\n      and\n        /* \"src/voting.sol\":3248:3273  VP.chairman == msg.sender */\n      0xffffffffffffffffffffffffffffffffffffffff\n      and\n      eq\n        /* \"src/voting.sol\":3240:3294  require(VP.chairman == msg.sender, \"not the chairman\") */\n      tag_175\n      jumpi\n      mload(0x40)\n      0x08c379a000000000000000000000000000000000000000000000000000000000\n      dup2\n      mstore\n      0x04\n      add\n      tag_176\n      swap1\n      tag_177\n      jump\t// in\n    tag_176:\n      mload(0x40)\n      dup1\n      swap2\n      sub\n      swap1\n      revert\n    tag_175:\n        /* \"src/voting.sol\":3320:3322  VP */\n      dup1\n        /* \"src/voting.sol\":3320:3329  VP.voting */\n      0x03\n      add\n      0x08\n      swap1\n      sload\n      swap1\n      0x0100\n      exp\n      swap1\n      div\n      0xff\n      and\n        /* \"src/voting.sol\":3318:3330  !(VP.voting) */\n      iszero\n        /* \"src/voting.sol\":3306:3308  VP */\n      dup2\n        /* \"src/voting.sol\":3306:3315  VP.voting */\n      0x03\n      add\n      0x08\n        /* \"src/voting.sol\":3306:3330  VP.voting = !(VP.voting) */\n      0x0100\n      exp\n      dup2\n      sload\n      dup2\n      0xff\n      mul\n      not\n      and\n      swap1\n      dup4\n      iszero\n      iszero\n      mul\n      or\n      swap1\n      sstore\n      pop\n        /* \"src/voting.sol\":3353:3355  VP */\n      dup1\n        /* \"src/voting.sol\":3353:3362  VP.voting */\n      0x03\n      add\n      0x08\n      swap1\n      sload\n      swap1\n      0x0100\n      exp\n      swap1\n      div\n      0xff\n      and\n        /* \"src/voting.sol\":3342:3363  voteStatus(VP.voting) */\n      iszero\n      iszero\n      0x7b224db641892626dca6975b376f464e9ac52ccfa180436175170c009b94dcd7\n      mload(0x40)\n      mload(0x40)\n      dup1\n      swap2\n      sub\n      swap1\n      log2\n        /* \"src/voting.sol\":3189:3367  {... */\n      pop\n        /* \"src/voting.sol\":3145:3367  function setVotingState( uint _id) external {... */\n      pop\n      jump\t// out\n        /* \"src/voting.sol\":580:625  mapping(uint => VotingPoll) public votingPoll */\n    tag_78:\n      mstore(0x20, 0x03)\n      dup1\n      0x00\n      mstore\n      keccak256(0x00, 0x40)\n      0x00\n      swap2\n      pop\n      swap1\n      pop\n      dup1\n      0x00\n      add\n      dup1\n      sload\n      tag_178\n      swap1\n      tag_104\n      jump\t// in\n    tag_178:\n      dup1\n      0x1f\n      add\n      0x20\n      dup1\n      swap2\n      div\n      mul\n      0x20\n      add\n      mload(0x40)\n      swap1\n      dup2\n      add\n      0x40\n      mstore\n      dup1\n      swap3\n      swap2\n      swap1\n      dup2\n      dup2\n      mstore\n      0x20\n      add\n      dup3\n      dup1\n      sload\n      tag_179\n      swap1\n      tag_104\n      jump\t// in\n    tag_179:\n      dup1\n      iszero\n      tag_180\n      jumpi\n      dup1\n      0x1f\n      lt\n      tag_181\n      jumpi\n      0x0100\n      dup1\n      dup4\n      sload\n      div\n      mul\n      dup4\n      mstore\n      swap2\n      0x20\n      add\n      swap2\n      jump(tag_180)\n    tag_181:\n      dup3\n      add\n      swap2\n      swap1\n      0x00\n      mstore\n      keccak256(0x00, 0x20)\n      swap1\n    tag_182:\n      dup2\n      sload\n      dup2\n      mstore\n      swap1\n      0x01\n      add\n      swap1\n      0x20\n      add\n      dup1\n      dup4\n      gt\n      tag_182\n      jumpi\n      dup3\n      swap1\n      sub\n      0x1f\n      and\n      dup3\n      add\n      swap2\n    tag_180:\n      pop\n      pop\n      pop\n      pop\n      pop\n      swap1\n      dup1\n      0x01\n      add\n      0x00\n      swap1\n      sload\n      swap1\n      0x0100\n      exp\n      swap1\n      div\n      0xffffffffffffffffffffffffffffffffffffffff\n      and\n      swap1\n      dup1\n      0x03\n      add\n      0x00\n      swap1\n      sload\n      swap1\n      0x0100\n      exp\n      swap1\n      div\n      0xffffffff\n      and\n      swap1\n      dup1\n      0x03\n      add\n      0x04\n      swap1\n      sload\n      swap1\n      0x0100\n      exp\n      swap1\n      div\n      0xffffffff\n      and\n      swap1\n      dup1\n      0x03\n      add\n      0x08\n      swap1\n      sload\n      swap1\n      0x0100\n      exp\n      swap1\n      div\n      0xff\n      and\n      swap1\n      pop\n      dup6\n      jump\t// out\n        /* \"src/voting.sol\":1627:1946  function createPoll(string memory _name, uint32 ExpectedNoOfCandidate) external {... */\n    tag_83:\n        /* \"src/voting.sol\":1713:1734  VotingPoll storage VP */\n      0x00\n        /* \"src/voting.sol\":1737:1747  votingPoll */\n      0x03\n        /* \"src/voting.sol\":1737:1751  votingPoll[id] */\n      0x00\n        /* \"src/voting.sol\":1748:1750  id */\n      dup1\n      sload\n        /* \"src/voting.sol\":1737:1751  votingPoll[id] */\n      dup2\n      mstore\n      0x20\n      add\n      swap1\n      dup2\n      mstore\n      0x20\n      add\n      0x00\n      keccak256\n        /* \"src/voting.sol\":1713:1751  VotingPoll storage VP = votingPoll[id] */\n      swap1\n      pop\n        /* \"src/voting.sol\":1767:1772  _name */\n      dup3\n        /* \"src/voting.sol\":1757:1759  VP */\n      dup2\n        /* \"src/voting.sol\":1757:1764  VP.name */\n      0x00\n      add\n        /* \"src/voting.sol\":1757:1772  VP.name = _name */\n      swap1\n      dup1\n      mload\n      swap1\n      0x20\n      add\n      swap1\n      tag_184\n      swap3\n      swap2\n      swap1\n      tag_185\n      jump\t// in\n    tag_184:\n      pop\n        /* \"src/voting.sol\":1792:1802  msg.sender */\n      caller\n        /* \"src/voting.sol\":1778:1780  VP */\n      dup2\n        /* \"src/voting.sol\":1778:1789  VP.chairman */\n      0x01\n      add\n      0x00\n        /* \"src/voting.sol\":1778:1802  VP.chairman = msg.sender */\n      0x0100\n      exp\n      dup2\n      sload\n      dup2\n      0xffffffffffffffffffffffffffffffffffffffff\n      mul\n      not\n      and\n      swap1\n      dup4\n      0xffffffffffffffffffffffffffffffffffffffff\n      and\n      mul\n      or\n      swap1\n      sstore\n      pop\n        /* \"src/voting.sol\":1830:1851  ExpectedNoOfCandidate */\n      dup2\n        /* \"src/voting.sol\":1808:1810  VP */\n      dup2\n        /* \"src/voting.sol\":1808:1828  VP.maxNoOfCandidates */\n      0x03\n      add\n      0x00\n        /* \"src/voting.sol\":1808:1851  VP.maxNoOfCandidates =ExpectedNoOfCandidate */\n      0x0100\n      exp\n      dup2\n      sload\n      dup2\n      0xffffffff\n      mul\n      not\n      and\n      swap1\n      dup4\n      0xffffffff\n      and\n      mul\n      or\n      swap1\n      sstore\n      pop\n        /* \"src/voting.sol\":1857:1866  VotingKey */\n      0x01\n        /* \"src/voting.sol\":1872:1874  id */\n      sload(0x00)\n        /* \"src/voting.sol\":1857:1875  VotingKey.push(id) */\n      swap1\n      dup1\n      0x01\n      dup2\n      sload\n      add\n      dup1\n      dup3\n      sstore\n      dup1\n      swap2\n      pop\n      pop\n      0x01\n      swap1\n      sub\n      swap1\n      0x00\n      mstore\n      keccak256(0x00, 0x20)\n      add\n      0x00\n      swap1\n      swap2\n      swap1\n      swap2\n      swap1\n      swap2\n      pop\n      sstore\n        /* \"src/voting.sol\":1928:1930  id */\n      sload(0x00)\n        /* \"src/voting.sol\":1906:1908  VP */\n      dup2\n        /* \"src/voting.sol\":1906:1926  VP.maxNoOfCandidates */\n      0x03\n      add\n      0x00\n      swap1\n      sload\n      swap1\n      0x0100\n      exp\n      swap1\n      div\n      0xffffffff\n      and\n        /* \"src/voting.sol\":1886:1931  pollCreated( _name, VP.maxNoOfCandidates, id) */\n      0xffffffff\n      and\n        /* \"src/voting.sol\":1899:1904  _name */\n      dup5\n        /* \"src/voting.sol\":1886:1931  pollCreated( _name, VP.maxNoOfCandidates, id) */\n      mload(0x40)\n      tag_187\n      swap2\n      swap1\n      tag_188\n      jump\t// in\n    tag_187:\n      mload(0x40)\n      dup1\n      swap2\n      sub\n      swap1\n      keccak256\n      0xd4d0d9a1ef7f13069f1bade752fda515713d747eb14a8c30ae461c52916bf1c7\n      mload(0x40)\n      mload(0x40)\n      dup1\n      swap2\n      sub\n      swap1\n      log4\n        /* \"src/voting.sol\":1938:1940  id */\n      0x00\n      dup1\n        /* \"src/voting.sol\":1938:1942  id++ */\n      dup2\n      sload\n      dup1\n      swap3\n      swap2\n      swap1\n      tag_189\n      swap1\n      tag_146\n      jump\t// in\n    tag_189:\n      swap2\n      swap1\n      pop\n      sstore\n      pop\n        /* \"src/voting.sol\":1707:1946  {... */\n      pop\n        /* \"src/voting.sol\":1627:1946  function createPoll(string memory _name, uint32 ExpectedNoOfCandidate) external {... */\n      pop\n      pop\n      jump\t// out\n        /* \"src/voting.sol\":4357:4529  function getPosition( uint _id, uint i) internal view returns(uint val){... */\n    tag_134:\n        /* \"src/voting.sol\":4419:4427  uint val */\n      0x00\n        /* \"src/voting.sol\":4435:4456  VotingPoll storage VP */\n      dup1\n        /* \"src/voting.sol\":4459:4469  votingPoll */\n      0x03\n        /* \"src/voting.sol\":4459:4474  votingPoll[_id] */\n      0x00\n        /* \"src/voting.sol\":4470:4473  _id */\n      dup6\n        /* \"src/voting.sol\":4459:4474  votingPoll[_id] */\n      dup2\n      mstore\n      0x20\n      add\n      swap1\n      dup2\n      mstore\n      0x20\n      add\n      0x00\n      keccak256\n        /* \"src/voting.sol\":4435:4474  VotingPoll storage VP = votingPoll[_id] */\n      swap1\n      pop\n        /* \"src/voting.sol\":4489:4502  CandidateVote */\n      0x06\n        /* \"src/voting.sol\":4489:4507  CandidateVote[_id] */\n      0x00\n        /* \"src/voting.sol\":4503:4506  _id */\n      dup6\n        /* \"src/voting.sol\":4489:4507  CandidateVote[_id] */\n      dup2\n      mstore\n      0x20\n      add\n      swap1\n      dup2\n      mstore\n      0x20\n      add\n      0x00\n      keccak256\n        /* \"src/voting.sol\":4489:4525  CandidateVote[_id][VP.candidates[i]] */\n      0x00\n        /* \"src/voting.sol\":4508:4510  VP */\n      dup3\n        /* \"src/voting.sol\":4508:4521  VP.candidates */\n      0x02\n      add\n        /* \"src/voting.sol\":4522:4523  i */\n      dup6\n        /* \"src/voting.sol\":4508:4524  VP.candidates[i] */\n      dup2\n      sload\n      dup2\n      lt\n      tag_191\n      jumpi\n      tag_192\n      tag_138\n      jump\t// in\n    tag_192:\n    tag_191:\n      swap1\n      0x00\n      mstore\n      keccak256(0x00, 0x20)\n      add\n      0x00\n      swap1\n      sload\n      swap1\n      0x0100\n      exp\n      swap1\n      div\n      0xffffffffffffffffffffffffffffffffffffffff\n      and\n        /* \"src/voting.sol\":4489:4525  CandidateVote[_id][VP.candidates[i]] */\n      0xffffffffffffffffffffffffffffffffffffffff\n      and\n      0xffffffffffffffffffffffffffffffffffffffff\n      and\n      dup2\n      mstore\n      0x20\n      add\n      swap1\n      dup2\n      mstore\n      0x20\n      add\n      0x00\n      keccak256\n      sload\n        /* \"src/voting.sol\":4483:4525  val = CandidateVote[_id][VP.candidates[i]] */\n      swap2\n      pop\n        /* \"src/voting.sol\":4428:4529  {... */\n      pop\n        /* \"src/voting.sol\":4357:4529  function getPosition( uint _id, uint i) internal view returns(uint val){... */\n      swap3\n      swap2\n      pop\n      pop\n      jump\t// out\n        /* \"src/voting.sol\":4866:5448  function getSigner(bytes32 _hash, bytes memory _signature) internal pure returns (address){... */\n    tag_163:\n        /* \"src/voting.sol\":4948:4955  address */\n      0x00\n        /* \"src/voting.sol\":4962:4971  bytes32 r */\n      dup1\n        /* \"src/voting.sol\":4977:4986  bytes32 s */\n      0x00\n        /* \"src/voting.sol\":4992:4999  uint8 v */\n      dup1\n        /* \"src/voting.sol\":5030:5032  65 */\n      0x41\n        /* \"src/voting.sol\":5009:5019  _signature */\n      dup6\n        /* \"src/voting.sol\":5009:5026  _signature.length */\n      mload\n        /* \"src/voting.sol\":5009:5032  _signature.length != 65 */\n      eq\n        /* \"src/voting.sol\":5005:5066  if (_signature.length != 65) {... */\n      tag_195\n      jumpi\n        /* \"src/voting.sol\":5057:5058  0 */\n      0x00\n        /* \"src/voting.sol\":5042:5059  return address(0) */\n      swap4\n      pop\n      pop\n      pop\n      pop\n      jump(tag_194)\n        /* \"src/voting.sol\":5005:5066  if (_signature.length != 65) {... */\n    tag_195:\n        /* \"src/voting.sol\":5115:5117  32 */\n      0x20\n        /* \"src/voting.sol\":5103:5113  _signature */\n      dup6\n        /* \"src/voting.sol\":5099:5118  add(_signature, 32) */\n      add\n        /* \"src/voting.sol\":5093:5119  mload(add(_signature, 32)) */\n      mload\n        /* \"src/voting.sol\":5088:5119  r := mload(add(_signature, 32)) */\n      swap3\n      pop\n        /* \"src/voting.sol\":5153:5155  64 */\n      0x40\n        /* \"src/voting.sol\":5141:5151  _signature */\n      dup6\n        /* \"src/voting.sol\":5137:5156  add(_signature, 64) */\n      add\n        /* \"src/voting.sol\":5131:5157  mload(add(_signature, 64)) */\n      mload\n        /* \"src/voting.sol\":5126:5157  s := mload(add(_signature, 64)) */\n      swap2\n      pop\n        /* \"src/voting.sol\":5199:5201  96 */\n      0x60\n        /* \"src/voting.sol\":5187:5197  _signature */\n      dup6\n        /* \"src/voting.sol\":5183:5202  add(_signature, 96) */\n      add\n        /* \"src/voting.sol\":5177:5203  mload(add(_signature, 96)) */\n      mload\n        /* \"src/voting.sol\":5174:5175  0 */\n      0x00\n        /* \"src/voting.sol\":5169:5204  byte(0, mload(add(_signature, 96))) */\n      byte\n        /* \"src/voting.sol\":5164:5204  v := byte(0, mload(add(_signature, 96))) */\n      swap1\n      pop\n        /* \"src/voting.sol\":5223:5225  27 */\n      0x1b\n        /* \"src/voting.sol\":5219:5220  v */\n      dup2\n        /* \"src/voting.sol\":5219:5225  v < 27 */\n      0xff\n      and\n      lt\n        /* \"src/voting.sol\":5215:5249  if (v < 27) {... */\n      iszero\n      tag_196\n      jumpi\n        /* \"src/voting.sol\":5240:5242  27 */\n      0x1b\n        /* \"src/voting.sol\":5235:5242  v += 27 */\n      dup2\n      tag_197\n      swap2\n      swap1\n      tag_198\n      jump\t// in\n    tag_197:\n      swap1\n      pop\n        /* \"src/voting.sol\":5215:5249  if (v < 27) {... */\n    tag_196:\n        /* \"src/voting.sol\":5263:5265  27 */\n      0x1b\n        /* \"src/voting.sol\":5258:5259  v */\n      dup2\n        /* \"src/voting.sol\":5258:5265  v != 27 */\n      0xff\n      and\n      eq\n      iszero\n        /* \"src/voting.sol\":5258:5276  v != 27 && v != 28 */\n      dup1\n      iszero\n      tag_199\n      jumpi\n      pop\n        /* \"src/voting.sol\":5274:5276  28 */\n      0x1c\n        /* \"src/voting.sol\":5269:5270  v */\n      dup2\n        /* \"src/voting.sol\":5269:5276  v != 28 */\n      0xff\n      and\n      eq\n      iszero\n        /* \"src/voting.sol\":5258:5276  v != 27 && v != 28 */\n    tag_199:\n        /* \"src/voting.sol\":5254:5444  if (v != 27 && v != 28) {... */\n      iszero\n      tag_200\n      jumpi\n        /* \"src/voting.sol\":5301:5302  0 */\n      0x00\n        /* \"src/voting.sol\":5286:5303  return address(0) */\n      swap4\n      pop\n      pop\n      pop\n      pop\n      jump(tag_194)\n        /* \"src/voting.sol\":5254:5444  if (v != 27 && v != 28) {... */\n    tag_200:\n        /* \"src/voting.sol\":5331:5437  ecrecover(keccak256(... */\n      0x01\n        /* \"src/voting.sol\":5413:5418  _hash */\n      dup7\n        /* \"src/voting.sol\":5360:5419  abi.encodePacked(\"\\x19Ethereum Signed Message:\\n32\", _hash) */\n      add(0x20, mload(0x40))\n      tag_202\n      swap2\n      swap1\n      tag_203\n      jump\t// in\n    tag_202:\n      mload(0x40)\n      0x20\n      dup2\n      dup4\n      sub\n      sub\n      dup2\n      mstore\n      swap1\n      0x40\n      mstore\n        /* \"src/voting.sol\":5341:5427  keccak256(... */\n      dup1\n      mload\n      swap1\n      0x20\n      add\n      keccak256\n        /* \"src/voting.sol\":5429:5430  v */\n      dup3\n        /* \"src/voting.sol\":5432:5433  r */\n      dup6\n        /* \"src/voting.sol\":5435:5436  s */\n      dup6\n        /* \"src/voting.sol\":5331:5437  ecrecover(keccak256(... */\n      mload(0x40)\n      0x00\n      dup2\n      mstore\n      0x20\n      add\n      0x40\n      mstore\n      mload(0x40)\n      tag_204\n      swap5\n      swap4\n      swap3\n      swap2\n      swap1\n      tag_205\n      jump\t// in\n    tag_204:\n      0x20\n      mload(0x40)\n      0x20\n      dup2\n      sub\n      swap1\n      dup1\n      dup5\n      sub\n      swap1\n      dup6\n      gas\n      staticcall\n      iszero\n      dup1\n      iszero\n      tag_207\n      jumpi\n      returndatasize\n      0x00\n      dup1\n      returndatacopy\n      revert(0x00, returndatasize)\n    tag_207:\n      pop\n      pop\n      pop\n      mload(sub(mload(0x40), 0x20))\n        /* \"src/voting.sol\":5324:5437  return ecrecover(keccak256(... */\n      swap4\n      pop\n      pop\n      pop\n      pop\n        /* \"src/voting.sol\":4866:5448  function getSigner(bytes32 _hash, bytes memory _signature) internal pure returns (address){... */\n    tag_194:\n      swap3\n      swap2\n      pop\n      pop\n      jump\t// out\n        /* \"src/voting.sol\":2949:3141  function countVote(address Cand, uint _id, address signer) internal returns(uint){... */\n    tag_171:\n        /* \"src/voting.sol\":3025:3029  uint */\n      0x00\n        /* \"src/voting.sol\":3061:3065  true */\n      0x01\n        /* \"src/voting.sol\":3037:3045  hasVoted */\n      0x07\n        /* \"src/voting.sol\":3037:3050  hasVoted[_id] */\n      0x00\n        /* \"src/voting.sol\":3046:3049  _id */\n      dup6\n        /* \"src/voting.sol\":3037:3050  hasVoted[_id] */\n      dup2\n      mstore\n      0x20\n      add\n      swap1\n      dup2\n      mstore\n      0x20\n      add\n      0x00\n      keccak256\n        /* \"src/voting.sol\":3037:3058  hasVoted[_id][signer] */\n      0x00\n        /* \"src/voting.sol\":3051:3057  signer */\n      dup5\n        /* \"src/voting.sol\":3037:3058  hasVoted[_id][signer] */\n      0xffffffffffffffffffffffffffffffffffffffff\n      and\n      0xffffffffffffffffffffffffffffffffffffffff\n      and\n      dup2\n      mstore\n      0x20\n      add\n      swap1\n      dup2\n      mstore\n      0x20\n      add\n      0x00\n      keccak256\n      0x00\n        /* \"src/voting.sol\":3037:3065  hasVoted[_id][signer] = true */\n      0x0100\n      exp\n      dup2\n      sload\n      dup2\n      0xff\n      mul\n      not\n      and\n      swap1\n      dup4\n      iszero\n      iszero\n      mul\n      or\n      swap1\n      sstore\n      pop\n        /* \"src/voting.sol\":3072:3085  CandidateVote */\n      0x06\n        /* \"src/voting.sol\":3072:3090  CandidateVote[_id] */\n      0x00\n        /* \"src/voting.sol\":3086:3089  _id */\n      dup5\n        /* \"src/voting.sol\":3072:3090  CandidateVote[_id] */\n      dup2\n      mstore\n      0x20\n      add\n      swap1\n      dup2\n      mstore\n      0x20\n      add\n      0x00\n      keccak256\n        /* \"src/voting.sol\":3072:3096  CandidateVote[_id][Cand] */\n      0x00\n        /* \"src/voting.sol\":3091:3095  Cand */\n      dup6\n        /* \"src/voting.sol\":3072:3096  CandidateVote[_id][Cand] */\n      0xffffffffffffffffffffffffffffffffffffffff\n      and\n      0xffffffffffffffffffffffffffffffffffffffff\n      and\n      dup2\n      mstore\n      0x20\n      add\n      swap1\n      dup2\n      mstore\n      0x20\n      add\n      0x00\n      keccak256\n      0x00\n        /* \"src/voting.sol\":3072:3098  CandidateVote[_id][Cand]++ */\n      dup2\n      sload\n      dup1\n      swap3\n      swap2\n      swap1\n      tag_209\n      swap1\n      tag_146\n      jump\t// in\n    tag_209:\n      swap2\n      swap1\n      pop\n      sstore\n      pop\n        /* \"src/voting.sol\":3112:3125  CandidateVote */\n      0x06\n        /* \"src/voting.sol\":3112:3130  CandidateVote[_id] */\n      0x00\n        /* \"src/voting.sol\":3126:3129  _id */\n      dup5\n        /* \"src/voting.sol\":3112:3130  CandidateVote[_id] */\n      dup2\n      mstore\n      0x20\n      add\n      swap1\n      dup2\n      mstore\n      0x20\n      add\n      0x00\n      keccak256\n        /* \"src/voting.sol\":3112:3136  CandidateVote[_id][Cand] */\n      0x00\n        /* \"src/voting.sol\":3131:3135  Cand */\n      dup6\n        /* \"src/voting.sol\":3112:3136  CandidateVote[_id][Cand] */\n      0xffffffffffffffffffffffffffffffffffffffff\n      and\n      0xffffffffffffffffffffffffffffffffffffffff\n      and\n      dup2\n      mstore\n      0x20\n      add\n      swap1\n      dup2\n      mstore\n      0x20\n      add\n      0x00\n      keccak256\n      sload\n        /* \"src/voting.sol\":3105:3136  return CandidateVote[_id][Cand] */\n      swap1\n      pop\n        /* \"src/voting.sol\":2949:3141  function countVote(address Cand, uint _id, address signer) internal returns(uint){... */\n      swap4\n      swap3\n      pop\n      pop\n      pop\n      jump\t// out\n    tag_101:\n      mload(0x40)\n      dup1\n      0xc0\n      add\n      0x40\n      mstore\n      dup1\n      0x60\n      dup2\n      mstore\n      0x20\n      add\n      and(0xffffffffffffffffffffffffffffffffffffffff, 0x00)\n      dup2\n      mstore\n      0x20\n      add\n      0x60\n      dup2\n      mstore\n      0x20\n      add\n      and(0xffffffff, 0x00)\n      dup2\n      mstore\n      0x20\n      add\n      and(0xffffffff, 0x00)\n      dup2\n      mstore\n      0x20\n      add\n      iszero(iszero(0x00))\n      dup2\n      mstore\n      pop\n      swap1\n      jump\t// out\n    tag_185:\n      dup3\n      dup1\n      sload\n      tag_210\n      swap1\n      tag_104\n      jump\t// in\n    tag_210:\n      swap1\n      0x00\n      mstore\n      keccak256(0x00, 0x20)\n      swap1\n      0x1f\n      add\n      0x20\n      swap1\n      div\n      dup2\n      add\n      swap3\n      dup3\n      tag_212\n      jumpi\n      0x00\n      dup6\n      sstore\n      jump(tag_211)\n    tag_212:\n      dup3\n      0x1f\n      lt\n      tag_213\n      jumpi\n      dup1\n      mload\n      not(0xff)\n      and\n      dup4\n      dup1\n      add\n      or\n      dup6\n      sstore\n      jump(tag_211)\n    tag_213:\n      dup3\n      dup1\n      add\n      0x01\n      add\n      dup6\n      sstore\n      dup3\n      iszero\n      tag_211\n      jumpi\n      swap2\n      dup3\n      add\n    tag_214:\n      dup3\n      dup2\n      gt\n      iszero\n      tag_215\n      jumpi\n      dup3\n      mload\n      dup3\n      sstore\n      swap2\n      0x20\n      add\n      swap2\n      swap1\n      0x01\n      add\n      swap1\n      jump(tag_214)\n    tag_215:\n    tag_211:\n      pop\n      swap1\n      pop\n      tag_216\n      swap2\n      swap1\n      tag_217\n      jump\t// in\n    tag_216:\n      pop\n      swap1\n      jump\t// out\n    tag_217:\n    tag_218:\n      dup1\n      dup3\n      gt\n      iszero\n      tag_219\n      jumpi\n      0x00\n      dup2\n      0x00\n      swap1\n      sstore\n      pop\n      0x01\n      add\n      jump(tag_218)\n    tag_219:\n      pop\n      swap1\n      jump\t// out\n        /* \"#utility.yul\":7:82   */\n    tag_220:\n        /* \"#utility.yul\":40:46   */\n      0x00\n        /* \"#utility.yul\":73:75   */\n      0x40\n        /* \"#utility.yul\":67:76   */\n      mload\n        /* \"#utility.yul\":57:76   */\n      swap1\n      pop\n        /* \"#utility.yul\":7:82   */\n      swap1\n      jump\t// out\n        /* \"#utility.yul\":88:205   */\n    tag_221:\n        /* \"#utility.yul\":197:198   */\n      0x00\n        /* \"#utility.yul\":194:195   */\n      dup1\n        /* \"#utility.yul\":187:199   */\n      revert\n        /* \"#utility.yul\":211:328   */\n    tag_222:\n        /* \"#utility.yul\":320:321   */\n      0x00\n        /* \"#utility.yul\":317:318   */\n      dup1\n        /* \"#utility.yul\":310:322   */\n      revert\n        /* \"#utility.yul\":334:460   */\n    tag_223:\n        /* \"#utility.yul\":371:378   */\n      0x00\n        /* \"#utility.yul\":411:453   */\n      0xffffffffffffffffffffffffffffffffffffffff\n        /* \"#utility.yul\":404:409   */\n      dup3\n        /* \"#utility.yul\":400:454   */\n      and\n        /* \"#utility.yul\":389:454   */\n      swap1\n      pop\n        /* \"#utility.yul\":334:460   */\n      swap2\n      swap1\n      pop\n      jump\t// out\n        /* \"#utility.yul\":466:562   */\n    tag_224:\n        /* \"#utility.yul\":503:510   */\n      0x00\n        /* \"#utility.yul\":532:556   */\n      tag_322\n        /* \"#utility.yul\":550:555   */\n      dup3\n        /* \"#utility.yul\":532:556   */\n      tag_223\n      jump\t// in\n    tag_322:\n        /* \"#utility.yul\":521:556   */\n      swap1\n      pop\n        /* \"#utility.yul\":466:562   */\n      swap2\n      swap1\n      pop\n      jump\t// out\n        /* \"#utility.yul\":568:690   */\n    tag_225:\n        /* \"#utility.yul\":641:665   */\n      tag_324\n        /* \"#utility.yul\":659:664   */\n      dup2\n        /* \"#utility.yul\":641:665   */\n      tag_224\n      jump\t// in\n    tag_324:\n        /* \"#utility.yul\":634:639   */\n      dup2\n        /* \"#utility.yul\":631:666   */\n      eq\n        /* \"#utility.yul\":621:684   */\n      tag_325\n      jumpi\n        /* \"#utility.yul\":680:681   */\n      0x00\n        /* \"#utility.yul\":677:678   */\n      dup1\n        /* \"#utility.yul\":670:682   */\n      revert\n        /* \"#utility.yul\":621:684   */\n    tag_325:\n        /* \"#utility.yul\":568:690   */\n      pop\n      jump\t// out\n        /* \"#utility.yul\":696:835   */\n    tag_226:\n        /* \"#utility.yul\":742:747   */\n      0x00\n        /* \"#utility.yul\":780:786   */\n      dup2\n        /* \"#utility.yul\":767:787   */\n      calldataload\n        /* \"#utility.yul\":758:787   */\n      swap1\n      pop\n        /* \"#utility.yul\":796:829   */\n      tag_327\n        /* \"#utility.yul\":823:828   */\n      dup2\n        /* \"#utility.yul\":796:829   */\n      tag_225\n      jump\t// in\n    tag_327:\n        /* \"#utility.yul\":696:835   */\n      swap3\n      swap2\n      pop\n      pop\n      jump\t// out\n        /* \"#utility.yul\":841:918   */\n    tag_227:\n        /* \"#utility.yul\":878:885   */\n      0x00\n        /* \"#utility.yul\":907:912   */\n      dup2\n        /* \"#utility.yul\":896:912   */\n      swap1\n      pop\n        /* \"#utility.yul\":841:918   */\n      swap2\n      swap1\n      pop\n      jump\t// out\n        /* \"#utility.yul\":924:1046   */\n    tag_228:\n        /* \"#utility.yul\":997:1021   */\n      tag_330\n        /* \"#utility.yul\":1015:1020   */\n      dup2\n        /* \"#utility.yul\":997:1021   */\n      tag_227\n      jump\t// in\n    tag_330:\n        /* \"#utility.yul\":990:995   */\n      dup2\n        /* \"#utility.yul\":987:1022   */\n      eq\n        /* \"#utility.yul\":977:1040   */\n      tag_331\n      jumpi\n        /* \"#utility.yul\":1036:1037   */\n      0x00\n        /* \"#utility.yul\":1033:1034   */\n      dup1\n        /* \"#utility.yul\":1026:1038   */\n      revert\n        /* \"#utility.yul\":977:1040   */\n    tag_331:\n        /* \"#utility.yul\":924:1046   */\n      pop\n      jump\t// out\n        /* \"#utility.yul\":1052:1191   */\n    tag_229:\n        /* \"#utility.yul\":1098:1103   */\n      0x00\n        /* \"#utility.yul\":1136:1142   */\n      dup2\n        /* \"#utility.yul\":1123:1143   */\n      calldataload\n        /* \"#utility.yul\":1114:1143   */\n      swap1\n      pop\n        /* \"#utility.yul\":1152:1185   */\n      tag_333\n        /* \"#utility.yul\":1179:1184   */\n      dup2\n        /* \"#utility.yul\":1152:1185   */\n      tag_228\n      jump\t// in\n    tag_333:\n        /* \"#utility.yul\":1052:1191   */\n      swap3\n      swap2\n      pop\n      pop\n      jump\t// out\n        /* \"#utility.yul\":1197:1671   */\n    tag_22:\n        /* \"#utility.yul\":1265:1271   */\n      0x00\n        /* \"#utility.yul\":1273:1279   */\n      dup1\n        /* \"#utility.yul\":1322:1324   */\n      0x40\n        /* \"#utility.yul\":1310:1319   */\n      dup4\n        /* \"#utility.yul\":1301:1308   */\n      dup6\n        /* \"#utility.yul\":1297:1320   */\n      sub\n        /* \"#utility.yul\":1293:1325   */\n      slt\n        /* \"#utility.yul\":1290:1409   */\n      iszero\n      tag_335\n      jumpi\n        /* \"#utility.yul\":1328:1407   */\n      tag_336\n      tag_221\n      jump\t// in\n    tag_336:\n        /* \"#utility.yul\":1290:1409   */\n    tag_335:\n        /* \"#utility.yul\":1448:1449   */\n      0x00\n        /* \"#utility.yul\":1473:1526   */\n      tag_337\n        /* \"#utility.yul\":1518:1525   */\n      dup6\n        /* \"#utility.yul\":1509:1515   */\n      dup3\n        /* \"#utility.yul\":1498:1507   */\n      dup7\n        /* \"#utility.yul\":1494:1516   */\n      add\n        /* \"#utility.yul\":1473:1526   */\n      tag_226\n      jump\t// in\n    tag_337:\n        /* \"#utility.yul\":1463:1526   */\n      swap3\n      pop\n        /* \"#utility.yul\":1419:1536   */\n      pop\n        /* \"#utility.yul\":1575:1577   */\n      0x20\n        /* \"#utility.yul\":1601:1654   */\n      tag_338\n        /* \"#utility.yul\":1646:1653   */\n      dup6\n        /* \"#utility.yul\":1637:1643   */\n      dup3\n        /* \"#utility.yul\":1626:1635   */\n      dup7\n        /* \"#utility.yul\":1622:1644   */\n      add\n        /* \"#utility.yul\":1601:1654   */\n      tag_229\n      jump\t// in\n    tag_338:\n        /* \"#utility.yul\":1591:1654   */\n      swap2\n      pop\n        /* \"#utility.yul\":1546:1664   */\n      pop\n        /* \"#utility.yul\":1197:1671   */\n      swap3\n      pop\n      swap3\n      swap1\n      pop\n      jump\t// out\n        /* \"#utility.yul\":1677:1817   */\n    tag_230:\n        /* \"#utility.yul\":1770:1776   */\n      0x00\n        /* \"#utility.yul\":1804:1809   */\n      dup2\n        /* \"#utility.yul\":1798:1810   */\n      mload\n        /* \"#utility.yul\":1788:1810   */\n      swap1\n      pop\n        /* \"#utility.yul\":1677:1817   */\n      swap2\n      swap1\n      pop\n      jump\t// out\n        /* \"#utility.yul\":1823:2033   */\n    tag_231:\n        /* \"#utility.yul\":1948:1959   */\n      0x00\n        /* \"#utility.yul\":1982:1988   */\n      dup3\n        /* \"#utility.yul\":1977:1980   */\n      dup3\n        /* \"#utility.yul\":1970:1989   */\n      mstore\n        /* \"#utility.yul\":2022:2026   */\n      0x20\n        /* \"#utility.yul\":2017:2020   */\n      dup3\n        /* \"#utility.yul\":2013:2027   */\n      add\n        /* \"#utility.yul\":1998:2027   */\n      swap1\n      pop\n        /* \"#utility.yul\":1823:2033   */\n      swap3\n      swap2\n      pop\n      pop\n      jump\t// out\n        /* \"#utility.yul\":2039:2197   */\n    tag_232:\n        /* \"#utility.yul\":2132:2136   */\n      0x00\n        /* \"#utility.yul\":2155:2158   */\n      dup2\n        /* \"#utility.yul\":2147:2158   */\n      swap1\n      pop\n        /* \"#utility.yul\":2185:2189   */\n      0x20\n        /* \"#utility.yul\":2180:2183   */\n      dup3\n        /* \"#utility.yul\":2176:2190   */\n      add\n        /* \"#utility.yul\":2168:2190   */\n      swap1\n      pop\n        /* \"#utility.yul\":2039:2197   */\n      swap2\n      swap1\n      pop\n      jump\t// out\n        /* \"#utility.yul\":2203:2302   */\n    tag_233:\n        /* \"#utility.yul\":2255:2261   */\n      0x00\n        /* \"#utility.yul\":2289:2294   */\n      dup2\n        /* \"#utility.yul\":2283:2295   */\n      mload\n        /* \"#utility.yul\":2273:2295   */\n      swap1\n      pop\n        /* \"#utility.yul\":2203:2302   */\n      swap2\n      swap1\n      pop\n      jump\t// out\n        /* \"#utility.yul\":2308:2467   */\n    tag_234:\n        /* \"#utility.yul\":2382:2393   */\n      0x00\n        /* \"#utility.yul\":2416:2422   */\n      dup3\n        /* \"#utility.yul\":2411:2414   */\n      dup3\n        /* \"#utility.yul\":2404:2423   */\n      mstore\n        /* \"#utility.yul\":2456:2460   */\n      0x20\n        /* \"#utility.yul\":2451:2454   */\n      dup3\n        /* \"#utility.yul\":2447:2461   */\n      add\n        /* \"#utility.yul\":2432:2461   */\n      swap1\n      pop\n        /* \"#utility.yul\":2308:2467   */\n      swap3\n      swap2\n      pop\n      pop\n      jump\t// out\n        /* \"#utility.yul\":2473:2780   */\n    tag_235:\n        /* \"#utility.yul\":2541:2542   */\n      0x00\n        /* \"#utility.yul\":2551:2664   */\n    tag_345:\n        /* \"#utility.yul\":2565:2571   */\n      dup4\n        /* \"#utility.yul\":2562:2563   */\n      dup2\n        /* \"#utility.yul\":2559:2572   */\n      lt\n        /* \"#utility.yul\":2551:2664   */\n      iszero\n      tag_347\n      jumpi\n        /* \"#utility.yul\":2650:2651   */\n      dup1\n        /* \"#utility.yul\":2645:2648   */\n      dup3\n        /* \"#utility.yul\":2641:2652   */\n      add\n        /* \"#utility.yul\":2635:2653   */\n      mload\n        /* \"#utility.yul\":2631:2632   */\n      dup2\n        /* \"#utility.yul\":2626:2629   */\n      dup5\n        /* \"#utility.yul\":2622:2633   */\n      add\n        /* \"#utility.yul\":2615:2654   */\n      mstore\n        /* \"#utility.yul\":2587:2589   */\n      0x20\n        /* \"#utility.yul\":2584:2585   */\n      dup2\n        /* \"#utility.yul\":2580:2590   */\n      add\n        /* \"#utility.yul\":2575:2590   */\n      swap1\n      pop\n        /* \"#utility.yul\":2551:2664   */\n      jump(tag_345)\n    tag_347:\n        /* \"#utility.yul\":2682:2688   */\n      dup4\n        /* \"#utility.yul\":2679:2680   */\n      dup2\n        /* \"#utility.yul\":2676:2689   */\n      gt\n        /* \"#utility.yul\":2673:2774   */\n      iszero\n      tag_348\n      jumpi\n        /* \"#utility.yul\":2762:2763   */\n      0x00\n        /* \"#utility.yul\":2753:2759   */\n      dup5\n        /* \"#utility.yul\":2748:2751   */\n      dup5\n        /* \"#utility.yul\":2744:2760   */\n      add\n        /* \"#utility.yul\":2737:2764   */\n      mstore\n        /* \"#utility.yul\":2673:2774   */\n    tag_348:\n        /* \"#utility.yul\":2522:2780   */\n      pop\n        /* \"#utility.yul\":2473:2780   */\n      pop\n      pop\n      pop\n      jump\t// out\n        /* \"#utility.yul\":2786:2888   */\n    tag_236:\n        /* \"#utility.yul\":2827:2833   */\n      0x00\n        /* \"#utility.yul\":2878:2880   */\n      0x1f\n        /* \"#utility.yul\":2874:2881   */\n      not\n        /* \"#utility.yul\":2869:2871   */\n      0x1f\n        /* \"#utility.yul\":2862:2867   */\n      dup4\n        /* \"#utility.yul\":2858:2872   */\n      add\n        /* \"#utility.yul\":2854:2882   */\n      and\n        /* \"#utility.yul\":2844:2882   */\n      swap1\n      pop\n        /* \"#utility.yul\":2786:2888   */\n      swap2\n      swap1\n      pop\n      jump\t// out\n        /* \"#utility.yul\":2894:3238   */\n    tag_237:\n        /* \"#utility.yul\":2972:2975   */\n      0x00\n        /* \"#utility.yul\":3000:3039   */\n      tag_351\n        /* \"#utility.yul\":3033:3038   */\n      dup3\n        /* \"#utility.yul\":3000:3039   */\n      tag_233\n      jump\t// in\n    tag_351:\n        /* \"#utility.yul\":3055:3116   */\n      tag_352\n        /* \"#utility.yul\":3109:3115   */\n      dup2\n        /* \"#utility.yul\":3104:3107   */\n      dup6\n        /* \"#utility.yul\":3055:3116   */\n      tag_234\n      jump\t// in\n    tag_352:\n        /* \"#utility.yul\":3048:3116   */\n      swap4\n      pop\n        /* \"#utility.yul\":3125:3177   */\n      tag_353\n        /* \"#utility.yul\":3170:3176   */\n      dup2\n        /* \"#utility.yul\":3165:3168   */\n      dup6\n        /* \"#utility.yul\":3158:3162   */\n      0x20\n        /* \"#utility.yul\":3151:3156   */\n      dup7\n        /* \"#utility.yul\":3147:3163   */\n      add\n        /* \"#utility.yul\":3125:3177   */\n      tag_235\n      jump\t// in\n    tag_353:\n        /* \"#utility.yul\":3202:3231   */\n      tag_354\n        /* \"#utility.yul\":3224:3230   */\n      dup2\n        /* \"#utility.yul\":3202:3231   */\n      tag_236\n      jump\t// in\n    tag_354:\n        /* \"#utility.yul\":3197:3200   */\n      dup5\n        /* \"#utility.yul\":3193:3232   */\n      add\n        /* \"#utility.yul\":3186:3232   */\n      swap2\n      pop\n        /* \"#utility.yul\":2976:3238   */\n      pop\n        /* \"#utility.yul\":2894:3238   */\n      swap3\n      swap2\n      pop\n      pop\n      jump\t// out\n        /* \"#utility.yul\":3244:3352   */\n    tag_238:\n        /* \"#utility.yul\":3321:3345   */\n      tag_356\n        /* \"#utility.yul\":3339:3344   */\n      dup2\n        /* \"#utility.yul\":3321:3345   */\n      tag_224\n      jump\t// in\n    tag_356:\n        /* \"#utility.yul\":3316:3319   */\n      dup3\n        /* \"#utility.yul\":3309:3346   */\n      mstore\n        /* \"#utility.yul\":3244:3352   */\n      pop\n      pop\n      jump\t// out\n        /* \"#utility.yul\":3358:3472   */\n    tag_239:\n        /* \"#utility.yul\":3425:3431   */\n      0x00\n        /* \"#utility.yul\":3459:3464   */\n      dup2\n        /* \"#utility.yul\":3453:3465   */\n      mload\n        /* \"#utility.yul\":3443:3465   */\n      swap1\n      pop\n        /* \"#utility.yul\":3358:3472   */\n      swap2\n      swap1\n      pop\n      jump\t// out\n        /* \"#utility.yul\":3478:3652   */\n    tag_240:\n        /* \"#utility.yul\":3567:3578   */\n      0x00\n        /* \"#utility.yul\":3601:3607   */\n      dup3\n        /* \"#utility.yul\":3596:3599   */\n      dup3\n        /* \"#utility.yul\":3589:3608   */\n      mstore\n        /* \"#utility.yul\":3641:3645   */\n      0x20\n        /* \"#utility.yul\":3636:3639   */\n      dup3\n        /* \"#utility.yul\":3632:3646   */\n      add\n        /* \"#utility.yul\":3617:3646   */\n      swap1\n      pop\n        /* \"#utility.yul\":3478:3652   */\n      swap3\n      swap2\n      pop\n      pop\n      jump\t// out\n        /* \"#utility.yul\":3658:3790   */\n    tag_241:\n        /* \"#utility.yul\":3725:3729   */\n      0x00\n        /* \"#utility.yul\":3748:3751   */\n      dup2\n        /* \"#utility.yul\":3740:3751   */\n      swap1\n      pop\n        /* \"#utility.yul\":3778:3782   */\n      0x20\n        /* \"#utility.yul\":3773:3776   */\n      dup3\n        /* \"#utility.yul\":3769:3783   */\n      add\n        /* \"#utility.yul\":3761:3783   */\n      swap1\n      pop\n        /* \"#utility.yul\":3658:3790   */\n      swap2\n      swap1\n      pop\n      jump\t// out\n        /* \"#utility.yul\":3796:3975   */\n    tag_242:\n        /* \"#utility.yul\":3865:3875   */\n      0x00\n        /* \"#utility.yul\":3886:3932   */\n      tag_361\n        /* \"#utility.yul\":3928:3931   */\n      dup4\n        /* \"#utility.yul\":3920:3926   */\n      dup4\n        /* \"#utility.yul\":3886:3932   */\n      tag_238\n      jump\t// in\n    tag_361:\n        /* \"#utility.yul\":3964:3968   */\n      0x20\n        /* \"#utility.yul\":3959:3962   */\n      dup4\n        /* \"#utility.yul\":3955:3969   */\n      add\n        /* \"#utility.yul\":3941:3969   */\n      swap1\n      pop\n        /* \"#utility.yul\":3796:3975   */\n      swap3\n      swap2\n      pop\n      pop\n      jump\t// out\n        /* \"#utility.yul\":3981:4094   */\n    tag_243:\n        /* \"#utility.yul\":4051:4055   */\n      0x00\n        /* \"#utility.yul\":4083:4087   */\n      0x20\n        /* \"#utility.yul\":4078:4081   */\n      dup3\n        /* \"#utility.yul\":4074:4088   */\n      add\n        /* \"#utility.yul\":4066:4088   */\n      swap1\n      pop\n        /* \"#utility.yul\":3981:4094   */\n      swap2\n      swap1\n      pop\n      jump\t// out\n        /* \"#utility.yul\":4130:4842   */\n    tag_244:\n        /* \"#utility.yul\":4239:4242   */\n      0x00\n        /* \"#utility.yul\":4268:4322   */\n      tag_364\n        /* \"#utility.yul\":4316:4321   */\n      dup3\n        /* \"#utility.yul\":4268:4322   */\n      tag_239\n      jump\t// in\n    tag_364:\n        /* \"#utility.yul\":4338:4414   */\n      tag_365\n        /* \"#utility.yul\":4407:4413   */\n      dup2\n        /* \"#utility.yul\":4402:4405   */\n      dup6\n        /* \"#utility.yul\":4338:4414   */\n      tag_240\n      jump\t// in\n    tag_365:\n        /* \"#utility.yul\":4331:4414   */\n      swap4\n      pop\n        /* \"#utility.yul\":4438:4494   */\n      tag_366\n        /* \"#utility.yul\":4488:4493   */\n      dup4\n        /* \"#utility.yul\":4438:4494   */\n      tag_241\n      jump\t// in\n    tag_366:\n        /* \"#utility.yul\":4517:4524   */\n      dup1\n        /* \"#utility.yul\":4548:4549   */\n      0x00\n        /* \"#utility.yul\":4533:4817   */\n    tag_367:\n        /* \"#utility.yul\":4558:4564   */\n      dup4\n        /* \"#utility.yul\":4555:4556   */\n      dup2\n        /* \"#utility.yul\":4552:4565   */\n      lt\n        /* \"#utility.yul\":4533:4817   */\n      iszero\n      tag_369\n      jumpi\n        /* \"#utility.yul\":4634:4640   */\n      dup2\n        /* \"#utility.yul\":4628:4641   */\n      mload\n        /* \"#utility.yul\":4661:4724   */\n      tag_370\n        /* \"#utility.yul\":4720:4723   */\n      dup9\n        /* \"#utility.yul\":4705:4718   */\n      dup3\n        /* \"#utility.yul\":4661:4724   */\n      tag_242\n      jump\t// in\n    tag_370:\n        /* \"#utility.yul\":4654:4724   */\n      swap8\n      pop\n        /* \"#utility.yul\":4747:4807   */\n      tag_371\n        /* \"#utility.yul\":4800:4806   */\n      dup4\n        /* \"#utility.yul\":4747:4807   */\n      tag_243\n      jump\t// in\n    tag_371:\n        /* \"#utility.yul\":4737:4807   */\n      swap3\n      pop\n        /* \"#utility.yul\":4593:4817   */\n      pop\n        /* \"#utility.yul\":4580:4581   */\n      0x01\n        /* \"#utility.yul\":4577:4578   */\n      dup2\n        /* \"#utility.yul\":4573:4582   */\n      add\n        /* \"#utility.yul\":4568:4582   */\n      swap1\n      pop\n        /* \"#utility.yul\":4533:4817   */\n      jump(tag_367)\n    tag_369:\n        /* \"#utility.yul\":4537:4551   */\n      pop\n        /* \"#utility.yul\":4833:4836   */\n      dup6\n        /* \"#utility.yul\":4826:4836   */\n      swap4\n      pop\n        /* \"#utility.yul\":4244:4842   */\n      pop\n      pop\n      pop\n        /* \"#utility.yul\":4130:4842   */\n      swap3\n      swap2\n      pop\n      pop\n      jump\t// out\n        /* \"#utility.yul\":4848:4941   */\n    tag_245:\n        /* \"#utility.yul\":4884:4891   */\n      0x00\n        /* \"#utility.yul\":4924:4934   */\n      0xffffffff\n        /* \"#utility.yul\":4917:4922   */\n      dup3\n        /* \"#utility.yul\":4913:4935   */\n      and\n        /* \"#utility.yul\":4902:4935   */\n      swap1\n      pop\n        /* \"#utility.yul\":4848:4941   */\n      swap2\n      swap1\n      pop\n      jump\t// out\n        /* \"#utility.yul\":4947:5052   */\n    tag_246:\n        /* \"#utility.yul\":5022:5045   */\n      tag_374\n        /* \"#utility.yul\":5039:5044   */\n      dup2\n        /* \"#utility.yul\":5022:5045   */\n      tag_245\n      jump\t// in\n    tag_374:\n        /* \"#utility.yul\":5017:5020   */\n      dup3\n        /* \"#utility.yul\":5010:5046   */\n      mstore\n        /* \"#utility.yul\":4947:5052   */\n      pop\n      pop\n      jump\t// out\n        /* \"#utility.yul\":5058:5148   */\n    tag_247:\n        /* \"#utility.yul\":5092:5099   */\n      0x00\n        /* \"#utility.yul\":5135:5140   */\n      dup2\n        /* \"#utility.yul\":5128:5141   */\n      iszero\n        /* \"#utility.yul\":5121:5142   */\n      iszero\n        /* \"#utility.yul\":5110:5142   */\n      swap1\n      pop\n        /* \"#utility.yul\":5058:5148   */\n      swap2\n      swap1\n      pop\n      jump\t// out\n        /* \"#utility.yul\":5154:5253   */\n    tag_248:\n        /* \"#utility.yul\":5225:5246   */\n      tag_377\n        /* \"#utility.yul\":5240:5245   */\n      dup2\n        /* \"#utility.yul\":5225:5246   */\n      tag_247\n      jump\t// in\n    tag_377:\n        /* \"#utility.yul\":5220:5223   */\n      dup3\n        /* \"#utility.yul\":5213:5247   */\n      mstore\n        /* \"#utility.yul\":5154:5253   */\n      pop\n      pop\n      jump\t// out\n        /* \"#utility.yul\":5319:6746   */\n    tag_249:\n        /* \"#utility.yul\":5430:5433   */\n      0x00\n        /* \"#utility.yul\":5466:5470   */\n      0xc0\n        /* \"#utility.yul\":5461:5464   */\n      dup4\n        /* \"#utility.yul\":5457:5471   */\n      add\n        /* \"#utility.yul\":5553:5557   */\n      0x00\n        /* \"#utility.yul\":5546:5551   */\n      dup4\n        /* \"#utility.yul\":5542:5558   */\n      add\n        /* \"#utility.yul\":5536:5559   */\n      mload\n        /* \"#utility.yul\":5606:5609   */\n      dup5\n        /* \"#utility.yul\":5600:5604   */\n      dup3\n        /* \"#utility.yul\":5596:5610   */\n      sub\n        /* \"#utility.yul\":5589:5593   */\n      0x00\n        /* \"#utility.yul\":5584:5587   */\n      dup7\n        /* \"#utility.yul\":5580:5594   */\n      add\n        /* \"#utility.yul\":5573:5611   */\n      mstore\n        /* \"#utility.yul\":5632:5705   */\n      tag_379\n        /* \"#utility.yul\":5700:5704   */\n      dup3\n        /* \"#utility.yul\":5686:5698   */\n      dup3\n        /* \"#utility.yul\":5632:5705   */\n      tag_237\n      jump\t// in\n    tag_379:\n        /* \"#utility.yul\":5624:5705   */\n      swap2\n      pop\n        /* \"#utility.yul\":5481:5716   */\n      pop\n        /* \"#utility.yul\":5802:5806   */\n      0x20\n        /* \"#utility.yul\":5795:5800   */\n      dup4\n        /* \"#utility.yul\":5791:5807   */\n      add\n        /* \"#utility.yul\":5785:5808   */\n      mload\n        /* \"#utility.yul\":5821:5884   */\n      tag_380\n        /* \"#utility.yul\":5878:5882   */\n      0x20\n        /* \"#utility.yul\":5873:5876   */\n      dup7\n        /* \"#utility.yul\":5869:5883   */\n      add\n        /* \"#utility.yul\":5855:5867   */\n      dup3\n        /* \"#utility.yul\":5821:5884   */\n      tag_238\n      jump\t// in\n    tag_380:\n        /* \"#utility.yul\":5726:5894   */\n      pop\n        /* \"#utility.yul\":5982:5986   */\n      0x40\n        /* \"#utility.yul\":5975:5980   */\n      dup4\n        /* \"#utility.yul\":5971:5987   */\n      add\n        /* \"#utility.yul\":5965:5988   */\n      mload\n        /* \"#utility.yul\":6035:6038   */\n      dup5\n        /* \"#utility.yul\":6029:6033   */\n      dup3\n        /* \"#utility.yul\":6025:6039   */\n      sub\n        /* \"#utility.yul\":6018:6022   */\n      0x40\n        /* \"#utility.yul\":6013:6016   */\n      dup7\n        /* \"#utility.yul\":6009:6023   */\n      add\n        /* \"#utility.yul\":6002:6040   */\n      mstore\n        /* \"#utility.yul\":6061:6164   */\n      tag_381\n        /* \"#utility.yul\":6159:6163   */\n      dup3\n        /* \"#utility.yul\":6145:6157   */\n      dup3\n        /* \"#utility.yul\":6061:6164   */\n      tag_244\n      jump\t// in\n    tag_381:\n        /* \"#utility.yul\":6053:6164   */\n      swap2\n      pop\n        /* \"#utility.yul\":5904:6175   */\n      pop\n        /* \"#utility.yul\":6270:6274   */\n      0x60\n        /* \"#utility.yul\":6263:6268   */\n      dup4\n        /* \"#utility.yul\":6259:6275   */\n      add\n        /* \"#utility.yul\":6253:6276   */\n      mload\n        /* \"#utility.yul\":6289:6350   */\n      tag_382\n        /* \"#utility.yul\":6344:6348   */\n      0x60\n        /* \"#utility.yul\":6339:6342   */\n      dup7\n        /* \"#utility.yul\":6335:6349   */\n      add\n        /* \"#utility.yul\":6321:6333   */\n      dup3\n        /* \"#utility.yul\":6289:6350   */\n      tag_246\n      jump\t// in\n    tag_382:\n        /* \"#utility.yul\":6185:6360   */\n      pop\n        /* \"#utility.yul\":6459:6463   */\n      0x80\n        /* \"#utility.yul\":6452:6457   */\n      dup4\n        /* \"#utility.yul\":6448:6464   */\n      add\n        /* \"#utility.yul\":6442:6465   */\n      mload\n        /* \"#utility.yul\":6478:6539   */\n      tag_383\n        /* \"#utility.yul\":6533:6537   */\n      0x80\n        /* \"#utility.yul\":6528:6531   */\n      dup7\n        /* \"#utility.yul\":6524:6538   */\n      add\n        /* \"#utility.yul\":6510:6522   */\n      dup3\n        /* \"#utility.yul\":6478:6539   */\n      tag_246\n      jump\t// in\n    tag_383:\n        /* \"#utility.yul\":6370:6549   */\n      pop\n        /* \"#utility.yul\":6633:6637   */\n      0xa0\n        /* \"#utility.yul\":6626:6631   */\n      dup4\n        /* \"#utility.yul\":6622:6638   */\n      add\n        /* \"#utility.yul\":6616:6639   */\n      mload\n        /* \"#utility.yul\":6652:6709   */\n      tag_384\n        /* \"#utility.yul\":6703:6707   */\n      0xa0\n        /* \"#utility.yul\":6698:6701   */\n      dup7\n        /* \"#utility.yul\":6694:6708   */\n      add\n        /* \"#utility.yul\":6680:6692   */\n      dup3\n        /* \"#utility.yul\":6652:6709   */\n      tag_248\n      jump\t// in\n    tag_384:\n        /* \"#utility.yul\":6559:6719   */\n      pop\n        /* \"#utility.yul\":6736:6740   */\n      dup1\n        /* \"#utility.yul\":6729:6740   */\n      swap2\n      pop\n        /* \"#utility.yul\":5435:6746   */\n      pop\n        /* \"#utility.yul\":5319:6746   */\n      swap3\n      swap2\n      pop\n      pop\n      jump\t// out\n        /* \"#utility.yul\":6752:7012   */\n    tag_250:\n        /* \"#utility.yul\":6873:6883   */\n      0x00\n        /* \"#utility.yul\":6908:7006   */\n      tag_386\n        /* \"#utility.yul\":7002:7005   */\n      dup4\n        /* \"#utility.yul\":6994:7000   */\n      dup4\n        /* \"#utility.yul\":6908:7006   */\n      tag_249\n      jump\t// in\n    tag_386:\n        /* \"#utility.yul\":6894:7006   */\n      swap1\n      pop\n        /* \"#utility.yul\":6752:7012   */\n      swap3\n      swap2\n      pop\n      pop\n      jump\t// out\n        /* \"#utility.yul\":7018:7157   */\n    tag_251:\n        /* \"#utility.yul\":7114:7118   */\n      0x00\n        /* \"#utility.yul\":7146:7150   */\n      0x20\n        /* \"#utility.yul\":7141:7144   */\n      dup3\n        /* \"#utility.yul\":7137:7151   */\n      add\n        /* \"#utility.yul\":7129:7151   */\n      swap1\n      pop\n        /* \"#utility.yul\":7018:7157   */\n      swap2\n      swap1\n      pop\n      jump\t// out\n        /* \"#utility.yul\":7227:8346   */\n    tag_252:\n        /* \"#utility.yul\":7398:7401   */\n      0x00\n        /* \"#utility.yul\":7427:7507   */\n      tag_389\n        /* \"#utility.yul\":7501:7506   */\n      dup3\n        /* \"#utility.yul\":7427:7507   */\n      tag_230\n      jump\t// in\n    tag_389:\n        /* \"#utility.yul\":7523:7635   */\n      tag_390\n        /* \"#utility.yul\":7628:7634   */\n      dup2\n        /* \"#utility.yul\":7623:7626   */\n      dup6\n        /* \"#utility.yul\":7523:7635   */\n      tag_231\n      jump\t// in\n    tag_390:\n        /* \"#utility.yul\":7516:7635   */\n      swap4\n      pop\n        /* \"#utility.yul\":7661:7664   */\n      dup4\n        /* \"#utility.yul\":7706:7710   */\n      0x20\n        /* \"#utility.yul\":7698:7704   */\n      dup3\n        /* \"#utility.yul\":7694:7711   */\n      mul\n        /* \"#utility.yul\":7689:7692   */\n      dup6\n        /* \"#utility.yul\":7685:7712   */\n      add\n        /* \"#utility.yul\":7736:7818   */\n      tag_391\n        /* \"#utility.yul\":7812:7817   */\n      dup6\n        /* \"#utility.yul\":7736:7818   */\n      tag_232\n      jump\t// in\n    tag_391:\n        /* \"#utility.yul\":7841:7848   */\n      dup1\n        /* \"#utility.yul\":7872:7873   */\n      0x00\n        /* \"#utility.yul\":7857:8301   */\n    tag_392:\n        /* \"#utility.yul\":7882:7888   */\n      dup6\n        /* \"#utility.yul\":7879:7880   */\n      dup2\n        /* \"#utility.yul\":7876:7889   */\n      lt\n        /* \"#utility.yul\":7857:8301   */\n      iszero\n      tag_394\n      jumpi\n        /* \"#utility.yul\":7953:7962   */\n      dup5\n        /* \"#utility.yul\":7947:7951   */\n      dup5\n        /* \"#utility.yul\":7943:7963   */\n      sub\n        /* \"#utility.yul\":7938:7941   */\n      dup10\n        /* \"#utility.yul\":7931:7964   */\n      mstore\n        /* \"#utility.yul\":8004:8010   */\n      dup2\n        /* \"#utility.yul\":7998:8011   */\n      mload\n        /* \"#utility.yul\":8032:8148   */\n      tag_395\n        /* \"#utility.yul\":8143:8147   */\n      dup6\n        /* \"#utility.yul\":8128:8141   */\n      dup3\n        /* \"#utility.yul\":8032:8148   */\n      tag_250\n      jump\t// in\n    tag_395:\n        /* \"#utility.yul\":8024:8148   */\n      swap5\n      pop\n        /* \"#utility.yul\":8171:8257   */\n      tag_396\n        /* \"#utility.yul\":8250:8256   */\n      dup4\n        /* \"#utility.yul\":8171:8257   */\n      tag_251\n      jump\t// in\n    tag_396:\n        /* \"#utility.yul\":8161:8257   */\n      swap3\n      pop\n        /* \"#utility.yul\":8286:8290   */\n      0x20\n        /* \"#utility.yul\":8281:8284   */\n      dup11\n        /* \"#utility.yul\":8277:8291   */\n      add\n        /* \"#utility.yul\":8270:8291   */\n      swap10\n      pop\n        /* \"#utility.yul\":7917:8301   */\n      pop\n        /* \"#utility.yul\":7904:7905   */\n      0x01\n        /* \"#utility.yul\":7901:7902   */\n      dup2\n        /* \"#utility.yul\":7897:7906   */\n      add\n        /* \"#utility.yul\":7892:7906   */\n      swap1\n      pop\n        /* \"#utility.yul\":7857:8301   */\n      jump(tag_392)\n    tag_394:\n        /* \"#utility.yul\":7861:7875   */\n      pop\n        /* \"#utility.yul\":8317:8321   */\n      dup3\n        /* \"#utility.yul\":8310:8321   */\n      swap8\n      pop\n        /* \"#utility.yul\":8337:8340   */\n      dup8\n        /* \"#utility.yul\":8330:8340   */\n      swap6\n      pop\n        /* \"#utility.yul\":7403:8346   */\n      pop\n      pop\n      pop\n      pop\n      pop\n        /* \"#utility.yul\":7227:8346   */\n      swap3\n      swap2\n      pop\n      pop\n      jump\t// out\n        /* \"#utility.yul\":8352:8829   */\n    tag_27:\n        /* \"#utility.yul\":8547:8551   */\n      0x00\n        /* \"#utility.yul\":8585:8587   */\n      0x20\n        /* \"#utility.yul\":8574:8583   */\n      dup3\n        /* \"#utility.yul\":8570:8588   */\n      add\n        /* \"#utility.yul\":8562:8588   */\n      swap1\n      pop\n        /* \"#utility.yul\":8634:8643   */\n      dup2\n        /* \"#utility.yul\":8628:8632   */\n      dup2\n        /* \"#utility.yul\":8624:8644   */\n      sub\n        /* \"#utility.yul\":8620:8621   */\n      0x00\n        /* \"#utility.yul\":8609:8618   */\n      dup4\n        /* \"#utility.yul\":8605:8622   */\n      add\n        /* \"#utility.yul\":8598:8645   */\n      mstore\n        /* \"#utility.yul\":8662:8822   */\n      tag_398\n        /* \"#utility.yul\":8817:8821   */\n      dup2\n        /* \"#utility.yul\":8808:8814   */\n      dup5\n        /* \"#utility.yul\":8662:8822   */\n      tag_252\n      jump\t// in\n    tag_398:\n        /* \"#utility.yul\":8654:8822   */\n      swap1\n      pop\n        /* \"#utility.yul\":8352:8829   */\n      swap3\n      swap2\n      pop\n      pop\n      jump\t// out\n        /* \"#utility.yul\":8835:9164   */\n    tag_30:\n        /* \"#utility.yul\":8894:8900   */\n      0x00\n        /* \"#utility.yul\":8943:8945   */\n      0x20\n        /* \"#utility.yul\":8931:8940   */\n      dup3\n        /* \"#utility.yul\":8922:8929   */\n      dup5\n        /* \"#utility.yul\":8918:8941   */\n      sub\n        /* \"#utility.yul\":8914:8946   */\n      slt\n        /* \"#utility.yul\":8911:9030   */\n      iszero\n      tag_400\n      jumpi\n        /* \"#utility.yul\":8949:9028   */\n      tag_401\n      tag_221\n      jump\t// in\n    tag_401:\n        /* \"#utility.yul\":8911:9030   */\n    tag_400:\n        /* \"#utility.yul\":9069:9070   */\n      0x00\n        /* \"#utility.yul\":9094:9147   */\n      tag_402\n        /* \"#utility.yul\":9139:9146   */\n      dup5\n        /* \"#utility.yul\":9130:9136   */\n      dup3\n        /* \"#utility.yul\":9119:9128   */\n      dup6\n        /* \"#utility.yul\":9115:9137   */\n      add\n        /* \"#utility.yul\":9094:9147   */\n      tag_229\n      jump\t// in\n    tag_402:\n        /* \"#utility.yul\":9084:9147   */\n      swap2\n      pop\n        /* \"#utility.yul\":9040:9157   */\n      pop\n        /* \"#utility.yul\":8835:9164   */\n      swap3\n      swap2\n      pop\n      pop\n      jump\t// out\n        /* \"#utility.yul\":9230:10667   */\n    tag_253:\n        /* \"#utility.yul\":9351:9354   */\n      0x00\n        /* \"#utility.yul\":9387:9391   */\n      0xc0\n        /* \"#utility.yul\":9382:9385   */\n      dup4\n        /* \"#utility.yul\":9378:9392   */\n      add\n        /* \"#utility.yul\":9474:9478   */\n      0x00\n        /* \"#utility.yul\":9467:9472   */\n      dup4\n        /* \"#utility.yul\":9463:9479   */\n      add\n        /* \"#utility.yul\":9457:9480   */\n      mload\n        /* \"#utility.yul\":9527:9530   */\n      dup5\n        /* \"#utility.yul\":9521:9525   */\n      dup3\n        /* \"#utility.yul\":9517:9531   */\n      sub\n        /* \"#utility.yul\":9510:9514   */\n      0x00\n        /* \"#utility.yul\":9505:9508   */\n      dup7\n        /* \"#utility.yul\":9501:9515   */\n      add\n        /* \"#utility.yul\":9494:9532   */\n      mstore\n        /* \"#utility.yul\":9553:9626   */\n      tag_404\n        /* \"#utility.yul\":9621:9625   */\n      dup3\n        /* \"#utility.yul\":9607:9619   */\n      dup3\n        /* \"#utility.yul\":9553:9626   */\n      tag_237\n      jump\t// in\n    tag_404:\n        /* \"#utility.yul\":9545:9626   */\n      swap2\n      pop\n        /* \"#utility.yul\":9402:9637   */\n      pop\n        /* \"#utility.yul\":9723:9727   */\n      0x20\n        /* \"#utility.yul\":9716:9721   */\n      dup4\n        /* \"#utility.yul\":9712:9728   */\n      add\n        /* \"#utility.yul\":9706:9729   */\n      mload\n        /* \"#utility.yul\":9742:9805   */\n      tag_405\n        /* \"#utility.yul\":9799:9803   */\n      0x20\n        /* \"#utility.yul\":9794:9797   */\n      dup7\n        /* \"#utility.yul\":9790:9804   */\n      add\n        /* \"#utility.yul\":9776:9788   */\n      dup3\n        /* \"#utility.yul\":9742:9805   */\n      tag_238\n      jump\t// in\n    tag_405:\n        /* \"#utility.yul\":9647:9815   */\n      pop\n        /* \"#utility.yul\":9903:9907   */\n      0x40\n        /* \"#utility.yul\":9896:9901   */\n      dup4\n        /* \"#utility.yul\":9892:9908   */\n      add\n        /* \"#utility.yul\":9886:9909   */\n      mload\n        /* \"#utility.yul\":9956:9959   */\n      dup5\n        /* \"#utility.yul\":9950:9954   */\n      dup3\n        /* \"#utility.yul\":9946:9960   */\n      sub\n        /* \"#utility.yul\":9939:9943   */\n      0x40\n        /* \"#utility.yul\":9934:9937   */\n      dup7\n        /* \"#utility.yul\":9930:9944   */\n      add\n        /* \"#utility.yul\":9923:9961   */\n      mstore\n        /* \"#utility.yul\":9982:10085   */\n      tag_406\n        /* \"#utility.yul\":10080:10084   */\n      dup3\n        /* \"#utility.yul\":10066:10078   */\n      dup3\n        /* \"#utility.yul\":9982:10085   */\n      tag_244\n      jump\t// in\n    tag_406:\n        /* \"#utility.yul\":9974:10085   */\n      swap2\n      pop\n        /* \"#utility.yul\":9825:10096   */\n      pop\n        /* \"#utility.yul\":10191:10195   */\n      0x60\n        /* \"#utility.yul\":10184:10189   */\n      dup4\n        /* \"#utility.yul\":10180:10196   */\n      add\n        /* \"#utility.yul\":10174:10197   */\n      mload\n        /* \"#utility.yul\":10210:10271   */\n      tag_407\n        /* \"#utility.yul\":10265:10269   */\n      0x60\n        /* \"#utility.yul\":10260:10263   */\n      dup7\n        /* \"#utility.yul\":10256:10270   */\n      add\n        /* \"#utility.yul\":10242:10254   */\n      dup3\n        /* \"#utility.yul\":10210:10271   */\n      tag_246\n      jump\t// in\n    tag_407:\n        /* \"#utility.yul\":10106:10281   */\n      pop\n        /* \"#utility.yul\":10380:10384   */\n      0x80\n        /* \"#utility.yul\":10373:10378   */\n      dup4\n        /* \"#utility.yul\":10369:10385   */\n      add\n        /* \"#utility.yul\":10363:10386   */\n      mload\n        /* \"#utility.yul\":10399:10460   */\n      tag_408\n        /* \"#utility.yul\":10454:10458   */\n      0x80\n        /* \"#utility.yul\":10449:10452   */\n      dup7\n        /* \"#utility.yul\":10445:10459   */\n      add\n        /* \"#utility.yul\":10431:10443   */\n      dup3\n        /* \"#utility.yul\":10399:10460   */\n      tag_246\n      jump\t// in\n    tag_408:\n        /* \"#utility.yul\":10291:10470   */\n      pop\n        /* \"#utility.yul\":10554:10558   */\n      0xa0\n        /* \"#utility.yul\":10547:10552   */\n      dup4\n        /* \"#utility.yul\":10543:10559   */\n      add\n        /* \"#utility.yul\":10537:10560   */\n      mload\n        /* \"#utility.yul\":10573:10630   */\n      tag_409\n        /* \"#utility.yul\":10624:10628   */\n      0xa0\n        /* \"#utility.yul\":10619:10622   */\n      dup7\n        /* \"#utility.yul\":10615:10629   */\n      add\n        /* \"#utility.yul\":10601:10613   */\n      dup3\n        /* \"#utility.yul\":10573:10630   */\n      tag_248\n      jump\t// in\n    tag_409:\n        /* \"#utility.yul\":10480:10640   */\n      pop\n        /* \"#utility.yul\":10657:10661   */\n      dup1\n        /* \"#utility.yul\":10650:10661   */\n      swap2\n      pop\n        /* \"#utility.yul\":9356:10667   */\n      pop\n        /* \"#utility.yul\":9230:10667   */\n      swap3\n      swap2\n      pop\n      pop\n      jump\t// out\n        /* \"#utility.yul\":10673:11050   */\n    tag_33:\n        /* \"#utility.yul\":10818:10822   */\n      0x00\n        /* \"#utility.yul\":10856:10858   */\n      0x20\n        /* \"#utility.yul\":10845:10854   */\n      dup3\n        /* \"#utility.yul\":10841:10859   */\n      add\n        /* \"#utility.yul\":10833:10859   */\n      swap1\n      pop\n        /* \"#utility.yul\":10905:10914   */\n      dup2\n        /* \"#utility.yul\":10899:10903   */\n      dup2\n        /* \"#utility.yul\":10895:10915   */\n      sub\n        /* \"#utility.yul\":10891:10892   */\n      0x00\n        /* \"#utility.yul\":10880:10889   */\n      dup4\n        /* \"#utility.yul\":10876:10893   */\n      add\n        /* \"#utility.yul\":10869:10916   */\n      mstore\n        /* \"#utility.yul\":10933:11043   */\n      tag_411\n        /* \"#utility.yul\":11038:11042   */\n      dup2\n        /* \"#utility.yul\":11029:11035   */\n      dup5\n        /* \"#utility.yul\":10933:11043   */\n      tag_253\n      jump\t// in\n    tag_411:\n        /* \"#utility.yul\":10925:11043   */\n      swap1\n      pop\n        /* \"#utility.yul\":10673:11050   */\n      swap3\n      swap2\n      pop\n      pop\n      jump\t// out\n        /* \"#utility.yul\":11056:11174   */\n    tag_254:\n        /* \"#utility.yul\":11143:11167   */\n      tag_413\n        /* \"#utility.yul\":11161:11166   */\n      dup2\n        /* \"#utility.yul\":11143:11167   */\n      tag_227\n      jump\t// in\n    tag_413:\n        /* \"#utility.yul\":11138:11141   */\n      dup3\n        /* \"#utility.yul\":11131:11168   */\n      mstore\n        /* \"#utility.yul\":11056:11174   */\n      pop\n      pop\n      jump\t// out\n        /* \"#utility.yul\":11180:11402   */\n    tag_38:\n        /* \"#utility.yul\":11273:11277   */\n      0x00\n        /* \"#utility.yul\":11311:11313   */\n      0x20\n        /* \"#utility.yul\":11300:11309   */\n      dup3\n        /* \"#utility.yul\":11296:11314   */\n      add\n        /* \"#utility.yul\":11288:11314   */\n      swap1\n      pop\n        /* \"#utility.yul\":11324:11395   */\n      tag_415\n        /* \"#utility.yul\":11392:11393   */\n      0x00\n        /* \"#utility.yul\":11381:11390   */\n      dup4\n        /* \"#utility.yul\":11377:11394   */\n      add\n        /* \"#utility.yul\":11368:11374   */\n      dup5\n        /* \"#utility.yul\":11324:11395   */\n      tag_254\n      jump\t// in\n    tag_415:\n        /* \"#utility.yul\":11180:11402   */\n      swap3\n      swap2\n      pop\n      pop\n      jump\t// out\n        /* \"#utility.yul\":11408:11737   */\n    tag_41:\n        /* \"#utility.yul\":11467:11473   */\n      0x00\n        /* \"#utility.yul\":11516:11518   */\n      0x20\n        /* \"#utility.yul\":11504:11513   */\n      dup3\n        /* \"#utility.yul\":11495:11502   */\n      dup5\n        /* \"#utility.yul\":11491:11514   */\n      sub\n        /* \"#utility.yul\":11487:11519   */\n      slt\n        /* \"#utility.yul\":11484:11603   */\n      iszero\n      tag_417\n      jumpi\n        /* \"#utility.yul\":11522:11601   */\n      tag_418\n      tag_221\n      jump\t// in\n    tag_418:\n        /* \"#utility.yul\":11484:11603   */\n    tag_417:\n        /* \"#utility.yul\":11642:11643   */\n      0x00\n        /* \"#utility.yul\":11667:11720   */\n      tag_419\n        /* \"#utility.yul\":11712:11719   */\n      dup5\n        /* \"#utility.yul\":11703:11709   */\n      dup3\n        /* \"#utility.yul\":11692:11701   */\n      dup6\n        /* \"#utility.yul\":11688:11710   */\n      add\n        /* \"#utility.yul\":11667:11720   */\n      tag_226\n      jump\t// in\n    tag_419:\n        /* \"#utility.yul\":11657:11720   */\n      swap2\n      pop\n        /* \"#utility.yul\":11613:11730   */\n      pop\n        /* \"#utility.yul\":11408:11737   */\n      swap3\n      swap2\n      pop\n      pop\n      jump\t// out\n        /* \"#utility.yul\":11743:11912   */\n    tag_255:\n        /* \"#utility.yul\":11827:11838   */\n      0x00\n        /* \"#utility.yul\":11861:11867   */\n      dup3\n        /* \"#utility.yul\":11856:11859   */\n      dup3\n        /* \"#utility.yul\":11849:11868   */\n      mstore\n        /* \"#utility.yul\":11901:11905   */\n      0x20\n        /* \"#utility.yul\":11896:11899   */\n      dup3\n        /* \"#utility.yul\":11892:11906   */\n      add\n        /* \"#utility.yul\":11877:11906   */\n      swap1\n      pop\n        /* \"#utility.yul\":11743:11912   */\n      swap3\n      swap2\n      pop\n      pop\n      jump\t// out\n        /* \"#utility.yul\":11918:12282   */\n    tag_256:\n        /* \"#utility.yul\":12006:12009   */\n      0x00\n        /* \"#utility.yul\":12034:12073   */\n      tag_422\n        /* \"#utility.yul\":12067:12072   */\n      dup3\n        /* \"#utility.yul\":12034:12073   */\n      tag_233\n      jump\t// in\n    tag_422:\n        /* \"#utility.yul\":12089:12160   */\n      tag_423\n        /* \"#utility.yul\":12153:12159   */\n      dup2\n        /* \"#utility.yul\":12148:12151   */\n      dup6\n        /* \"#utility.yul\":12089:12160   */\n      tag_255\n      jump\t// in\n    tag_423:\n        /* \"#utility.yul\":12082:12160   */\n      swap4\n      pop\n        /* \"#utility.yul\":12169:12221   */\n      tag_424\n        /* \"#utility.yul\":12214:12220   */\n      dup2\n        /* \"#utility.yul\":12209:12212   */\n      dup6\n        /* \"#utility.yul\":12202:12206   */\n      0x20\n        /* \"#utility.yul\":12195:12200   */\n      dup7\n        /* \"#utility.yul\":12191:12207   */\n      add\n        /* \"#utility.yul\":12169:12221   */\n      tag_235\n      jump\t// in\n    tag_424:\n        /* \"#utility.yul\":12246:12275   */\n      tag_425\n        /* \"#utility.yul\":12268:12274   */\n      dup2\n        /* \"#utility.yul\":12246:12275   */\n      tag_236\n      jump\t// in\n    tag_425:\n        /* \"#utility.yul\":12241:12244   */\n      dup5\n        /* \"#utility.yul\":12237:12276   */\n      add\n        /* \"#utility.yul\":12230:12276   */\n      swap2\n      pop\n        /* \"#utility.yul\":12010:12282   */\n      pop\n        /* \"#utility.yul\":11918:12282   */\n      swap3\n      swap2\n      pop\n      pop\n      jump\t// out\n        /* \"#utility.yul\":12288:12406   */\n    tag_257:\n        /* \"#utility.yul\":12375:12399   */\n      tag_427\n        /* \"#utility.yul\":12393:12398   */\n      dup2\n        /* \"#utility.yul\":12375:12399   */\n      tag_224\n      jump\t// in\n    tag_427:\n        /* \"#utility.yul\":12370:12373   */\n      dup3\n        /* \"#utility.yul\":12363:12400   */\n      mstore\n        /* \"#utility.yul\":12288:12406   */\n      pop\n      pop\n      jump\t// out\n        /* \"#utility.yul\":12412:12527   */\n    tag_258:\n        /* \"#utility.yul\":12497:12520   */\n      tag_429\n        /* \"#utility.yul\":12514:12519   */\n      dup2\n        /* \"#utility.yul\":12497:12520   */\n      tag_245\n      jump\t// in\n    tag_429:\n        /* \"#utility.yul\":12492:12495   */\n      dup3\n        /* \"#utility.yul\":12485:12521   */\n      mstore\n        /* \"#utility.yul\":12412:12527   */\n      pop\n      pop\n      jump\t// out\n        /* \"#utility.yul\":12533:12642   */\n    tag_259:\n        /* \"#utility.yul\":12614:12635   */\n      tag_431\n        /* \"#utility.yul\":12629:12634   */\n      dup2\n        /* \"#utility.yul\":12614:12635   */\n      tag_247\n      jump\t// in\n    tag_431:\n        /* \"#utility.yul\":12609:12612   */\n      dup3\n        /* \"#utility.yul\":12602:12636   */\n      mstore\n        /* \"#utility.yul\":12533:12642   */\n      pop\n      pop\n      jump\t// out\n        /* \"#utility.yul\":12648:13383   */\n    tag_48:\n        /* \"#utility.yul\":12863:12867   */\n      0x00\n        /* \"#utility.yul\":12901:12904   */\n      0xa0\n        /* \"#utility.yul\":12890:12899   */\n      dup3\n        /* \"#utility.yul\":12886:12905   */\n      add\n        /* \"#utility.yul\":12878:12905   */\n      swap1\n      pop\n        /* \"#utility.yul\":12951:12960   */\n      dup2\n        /* \"#utility.yul\":12945:12949   */\n      dup2\n        /* \"#utility.yul\":12941:12961   */\n      sub\n        /* \"#utility.yul\":12937:12938   */\n      0x00\n        /* \"#utility.yul\":12926:12935   */\n      dup4\n        /* \"#utility.yul\":12922:12939   */\n      add\n        /* \"#utility.yul\":12915:12962   */\n      mstore\n        /* \"#utility.yul\":12979:13057   */\n      tag_433\n        /* \"#utility.yul\":13052:13056   */\n      dup2\n        /* \"#utility.yul\":13043:13049   */\n      dup9\n        /* \"#utility.yul\":12979:13057   */\n      tag_256\n      jump\t// in\n    tag_433:\n        /* \"#utility.yul\":12971:13057   */\n      swap1\n      pop\n        /* \"#utility.yul\":13067:13139   */\n      tag_434\n        /* \"#utility.yul\":13135:13137   */\n      0x20\n        /* \"#utility.yul\":13124:13133   */\n      dup4\n        /* \"#utility.yul\":13120:13138   */\n      add\n        /* \"#utility.yul\":13111:13117   */\n      dup8\n        /* \"#utility.yul\":13067:13139   */\n      tag_257\n      jump\t// in\n    tag_434:\n        /* \"#utility.yul\":13149:13219   */\n      tag_435\n        /* \"#utility.yul\":13215:13217   */\n      0x40\n        /* \"#utility.yul\":13204:13213   */\n      dup4\n        /* \"#utility.yul\":13200:13218   */\n      add\n        /* \"#utility.yul\":13191:13197   */\n      dup7\n        /* \"#utility.yul\":13149:13219   */\n      tag_258\n      jump\t// in\n    tag_435:\n        /* \"#utility.yul\":13229:13299   */\n      tag_436\n        /* \"#utility.yul\":13295:13297   */\n      0x60\n        /* \"#utility.yul\":13284:13293   */\n      dup4\n        /* \"#utility.yul\":13280:13298   */\n      add\n        /* \"#utility.yul\":13271:13277   */\n      dup6\n        /* \"#utility.yul\":13229:13299   */\n      tag_258\n      jump\t// in\n    tag_436:\n        /* \"#utility.yul\":13309:13376   */\n      tag_437\n        /* \"#utility.yul\":13371:13374   */\n      0x80\n        /* \"#utility.yul\":13360:13369   */\n      dup4\n        /* \"#utility.yul\":13356:13375   */\n      add\n        /* \"#utility.yul\":13347:13353   */\n      dup5\n        /* \"#utility.yul\":13309:13376   */\n      tag_259\n      jump\t// in\n    tag_437:\n        /* \"#utility.yul\":12648:13383   */\n      swap7\n      swap6\n      pop\n      pop\n      pop\n      pop\n      pop\n      pop\n      jump\t// out\n        /* \"#utility.yul\":13389:13573   */\n    tag_260:\n        /* \"#utility.yul\":13488:13499   */\n      0x00\n        /* \"#utility.yul\":13522:13528   */\n      dup3\n        /* \"#utility.yul\":13517:13520   */\n      dup3\n        /* \"#utility.yul\":13510:13529   */\n      mstore\n        /* \"#utility.yul\":13562:13566   */\n      0x20\n        /* \"#utility.yul\":13557:13560   */\n      dup3\n        /* \"#utility.yul\":13553:13567   */\n      add\n        /* \"#utility.yul\":13538:13567   */\n      swap1\n      pop\n        /* \"#utility.yul\":13389:13573   */\n      swap3\n      swap2\n      pop\n      pop\n      jump\t// out\n        /* \"#utility.yul\":13609:14341   */\n    tag_261:\n        /* \"#utility.yul\":13728:13731   */\n      0x00\n        /* \"#utility.yul\":13757:13811   */\n      tag_440\n        /* \"#utility.yul\":13805:13810   */\n      dup3\n        /* \"#utility.yul\":13757:13811   */\n      tag_239\n      jump\t// in\n    tag_440:\n        /* \"#utility.yul\":13827:13913   */\n      tag_441\n        /* \"#utility.yul\":13906:13912   */\n      dup2\n        /* \"#utility.yul\":13901:13904   */\n      dup6\n        /* \"#utility.yul\":13827:13913   */\n      tag_260\n      jump\t// in\n    tag_441:\n        /* \"#utility.yul\":13820:13913   */\n      swap4\n      pop\n        /* \"#utility.yul\":13937:13993   */\n      tag_442\n        /* \"#utility.yul\":13987:13992   */\n      dup4\n        /* \"#utility.yul\":13937:13993   */\n      tag_241\n      jump\t// in\n    tag_442:\n        /* \"#utility.yul\":14016:14023   */\n      dup1\n        /* \"#utility.yul\":14047:14048   */\n      0x00\n        /* \"#utility.yul\":14032:14316   */\n    tag_443:\n        /* \"#utility.yul\":14057:14063   */\n      dup4\n        /* \"#utility.yul\":14054:14055   */\n      dup2\n        /* \"#utility.yul\":14051:14064   */\n      lt\n        /* \"#utility.yul\":14032:14316   */\n      iszero\n      tag_445\n      jumpi\n        /* \"#utility.yul\":14133:14139   */\n      dup2\n        /* \"#utility.yul\":14127:14140   */\n      mload\n        /* \"#utility.yul\":14160:14223   */\n      tag_446\n        /* \"#utility.yul\":14219:14222   */\n      dup9\n        /* \"#utility.yul\":14204:14217   */\n      dup3\n        /* \"#utility.yul\":14160:14223   */\n      tag_242\n      jump\t// in\n    tag_446:\n        /* \"#utility.yul\":14153:14223   */\n      swap8\n      pop\n        /* \"#utility.yul\":14246:14306   */\n      tag_447\n        /* \"#utility.yul\":14299:14305   */\n      dup4\n        /* \"#utility.yul\":14246:14306   */\n      tag_243\n      jump\t// in\n    tag_447:\n        /* \"#utility.yul\":14236:14306   */\n      swap3\n      pop\n        /* \"#utility.yul\":14092:14316   */\n      pop\n        /* \"#utility.yul\":14079:14080   */\n      0x01\n        /* \"#utility.yul\":14076:14077   */\n      dup2\n        /* \"#utility.yul\":14072:14081   */\n      add\n        /* \"#utility.yul\":14067:14081   */\n      swap1\n      pop\n        /* \"#utility.yul\":14032:14316   */\n      jump(tag_443)\n    tag_445:\n        /* \"#utility.yul\":14036:14050   */\n      pop\n        /* \"#utility.yul\":14332:14335   */\n      dup6\n        /* \"#utility.yul\":14325:14335   */\n      swap4\n      pop\n        /* \"#utility.yul\":13733:14341   */\n      pop\n      pop\n      pop\n        /* \"#utility.yul\":13609:14341   */\n      swap3\n      swap2\n      pop\n      pop\n      jump\t// out\n        /* \"#utility.yul\":14347:14720   */\n    tag_53:\n        /* \"#utility.yul\":14490:14494   */\n      0x00\n        /* \"#utility.yul\":14528:14530   */\n      0x20\n        /* \"#utility.yul\":14517:14526   */\n      dup3\n        /* \"#utility.yul\":14513:14531   */\n      add\n        /* \"#utility.yul\":14505:14531   */\n      swap1\n      pop\n        /* \"#utility.yul\":14577:14586   */\n      dup2\n        /* \"#utility.yul\":14571:14575   */\n      dup2\n        /* \"#utility.yul\":14567:14587   */\n      sub\n        /* \"#utility.yul\":14563:14564   */\n      0x00\n        /* \"#utility.yul\":14552:14561   */\n      dup4\n        /* \"#utility.yul\":14548:14565   */\n      add\n        /* \"#utility.yul\":14541:14588   */\n      mstore\n        /* \"#utility.yul\":14605:14713   */\n      tag_449\n        /* \"#utility.yul\":14708:14712   */\n      dup2\n        /* \"#utility.yul\":14699:14705   */\n      dup5\n        /* \"#utility.yul\":14605:14713   */\n      tag_261\n      jump\t// in\n    tag_449:\n        /* \"#utility.yul\":14597:14713   */\n      swap1\n      pop\n        /* \"#utility.yul\":14347:14720   */\n      swap3\n      swap2\n      pop\n      pop\n      jump\t// out\n        /* \"#utility.yul\":14726:14840   */\n    tag_262:\n        /* \"#utility.yul\":14793:14799   */\n      0x00\n        /* \"#utility.yul\":14827:14832   */\n      dup2\n        /* \"#utility.yul\":14821:14833   */\n      mload\n        /* \"#utility.yul\":14811:14833   */\n      swap1\n      pop\n        /* \"#utility.yul\":14726:14840   */\n      swap2\n      swap1\n      pop\n      jump\t// out\n        /* \"#utility.yul\":14846:15030   */\n    tag_263:\n        /* \"#utility.yul\":14945:14956   */\n      0x00\n        /* \"#utility.yul\":14979:14985   */\n      dup3\n        /* \"#utility.yul\":14974:14977   */\n      dup3\n        /* \"#utility.yul\":14967:14986   */\n      mstore\n        /* \"#utility.yul\":15019:15023   */\n      0x20\n        /* \"#utility.yul\":15014:15017   */\n      dup3\n        /* \"#utility.yul\":15010:15024   */\n      add\n        /* \"#utility.yul\":14995:15024   */\n      swap1\n      pop\n        /* \"#utility.yul\":14846:15030   */\n      swap3\n      swap2\n      pop\n      pop\n      jump\t// out\n        /* \"#utility.yul\":15036:15168   */\n    tag_264:\n        /* \"#utility.yul\":15103:15107   */\n      0x00\n        /* \"#utility.yul\":15126:15129   */\n      dup2\n        /* \"#utility.yul\":15118:15129   */\n      swap1\n      pop\n        /* \"#utility.yul\":15156:15160   */\n      0x20\n        /* \"#utility.yul\":15151:15154   */\n      dup3\n        /* \"#utility.yul\":15147:15161   */\n      add\n        /* \"#utility.yul\":15139:15161   */\n      swap1\n      pop\n        /* \"#utility.yul\":15036:15168   */\n      swap2\n      swap1\n      pop\n      jump\t// out\n        /* \"#utility.yul\":15174:15282   */\n    tag_265:\n        /* \"#utility.yul\":15251:15275   */\n      tag_454\n        /* \"#utility.yul\":15269:15274   */\n      dup2\n        /* \"#utility.yul\":15251:15275   */\n      tag_227\n      jump\t// in\n    tag_454:\n        /* \"#utility.yul\":15246:15249   */\n      dup3\n        /* \"#utility.yul\":15239:15276   */\n      mstore\n        /* \"#utility.yul\":15174:15282   */\n      pop\n      pop\n      jump\t// out\n        /* \"#utility.yul\":15288:15467   */\n    tag_266:\n        /* \"#utility.yul\":15357:15367   */\n      0x00\n        /* \"#utility.yul\":15378:15424   */\n      tag_456\n        /* \"#utility.yul\":15420:15423   */\n      dup4\n        /* \"#utility.yul\":15412:15418   */\n      dup4\n        /* \"#utility.yul\":15378:15424   */\n      tag_265\n      jump\t// in\n    tag_456:\n        /* \"#utility.yul\":15456:15460   */\n      0x20\n        /* \"#utility.yul\":15451:15454   */\n      dup4\n        /* \"#utility.yul\":15447:15461   */\n      add\n        /* \"#utility.yul\":15433:15461   */\n      swap1\n      pop\n        /* \"#utility.yul\":15288:15467   */\n      swap3\n      swap2\n      pop\n      pop\n      jump\t// out\n        /* \"#utility.yul\":15473:15586   */\n    tag_267:\n        /* \"#utility.yul\":15543:15547   */\n      0x00\n        /* \"#utility.yul\":15575:15579   */\n      0x20\n        /* \"#utility.yul\":15570:15573   */\n      dup3\n        /* \"#utility.yul\":15566:15580   */\n      add\n        /* \"#utility.yul\":15558:15580   */\n      swap1\n      pop\n        /* \"#utility.yul\":15473:15586   */\n      swap2\n      swap1\n      pop\n      jump\t// out\n        /* \"#utility.yul\":15622:16354   */\n    tag_268:\n        /* \"#utility.yul\":15741:15744   */\n      0x00\n        /* \"#utility.yul\":15770:15824   */\n      tag_459\n        /* \"#utility.yul\":15818:15823   */\n      dup3\n        /* \"#utility.yul\":15770:15824   */\n      tag_262\n      jump\t// in\n    tag_459:\n        /* \"#utility.yul\":15840:15926   */\n      tag_460\n        /* \"#utility.yul\":15919:15925   */\n      dup2\n        /* \"#utility.yul\":15914:15917   */\n      dup6\n        /* \"#utility.yul\":15840:15926   */\n      tag_263\n      jump\t// in\n    tag_460:\n        /* \"#utility.yul\":15833:15926   */\n      swap4\n      pop\n        /* \"#utility.yul\":15950:16006   */\n      tag_461\n        /* \"#utility.yul\":16000:16005   */\n      dup4\n        /* \"#utility.yul\":15950:16006   */\n      tag_264\n      jump\t// in\n    tag_461:\n        /* \"#utility.yul\":16029:16036   */\n      dup1\n        /* \"#utility.yul\":16060:16061   */\n      0x00\n        /* \"#utility.yul\":16045:16329   */\n    tag_462:\n        /* \"#utility.yul\":16070:16076   */\n      dup4\n        /* \"#utility.yul\":16067:16068   */\n      dup2\n        /* \"#utility.yul\":16064:16077   */\n      lt\n        /* \"#utility.yul\":16045:16329   */\n      iszero\n      tag_464\n      jumpi\n        /* \"#utility.yul\":16146:16152   */\n      dup2\n        /* \"#utility.yul\":16140:16153   */\n      mload\n        /* \"#utility.yul\":16173:16236   */\n      tag_465\n        /* \"#utility.yul\":16232:16235   */\n      dup9\n        /* \"#utility.yul\":16217:16230   */\n      dup3\n        /* \"#utility.yul\":16173:16236   */\n      tag_266\n      jump\t// in\n    tag_465:\n        /* \"#utility.yul\":16166:16236   */\n      swap8\n      pop\n        /* \"#utility.yul\":16259:16319   */\n      tag_466\n        /* \"#utility.yul\":16312:16318   */\n      dup4\n        /* \"#utility.yul\":16259:16319   */\n      tag_267\n      jump\t// in\n    tag_466:\n        /* \"#utility.yul\":16249:16319   */\n      swap3\n      pop\n        /* \"#utility.yul\":16105:16329   */\n      pop\n        /* \"#utility.yul\":16092:16093   */\n      0x01\n        /* \"#utility.yul\":16089:16090   */\n      dup2\n        /* \"#utility.yul\":16085:16094   */\n      add\n        /* \"#utility.yul\":16080:16094   */\n      swap1\n      pop\n        /* \"#utility.yul\":16045:16329   */\n      jump(tag_462)\n    tag_464:\n        /* \"#utility.yul\":16049:16063   */\n      pop\n        /* \"#utility.yul\":16345:16348   */\n      dup6\n        /* \"#utility.yul\":16338:16348   */\n      swap4\n      pop\n        /* \"#utility.yul\":15746:16354   */\n      pop\n      pop\n      pop\n        /* \"#utility.yul\":15622:16354   */\n      swap3\n      swap2\n      pop\n      pop\n      jump\t// out\n        /* \"#utility.yul\":16360:16953   */\n    tag_58:\n        /* \"#utility.yul\":16559:16563   */\n      0x00\n        /* \"#utility.yul\":16597:16599   */\n      0x60\n        /* \"#utility.yul\":16586:16595   */\n      dup3\n        /* \"#utility.yul\":16582:16600   */\n      add\n        /* \"#utility.yul\":16574:16600   */\n      swap1\n      pop\n        /* \"#utility.yul\":16646:16655   */\n      dup2\n        /* \"#utility.yul\":16640:16644   */\n      dup2\n        /* \"#utility.yul\":16636:16656   */\n      sub\n        /* \"#utility.yul\":16632:16633   */\n      0x00\n        /* \"#utility.yul\":16621:16630   */\n      dup4\n        /* \"#utility.yul\":16617:16634   */\n      add\n        /* \"#utility.yul\":16610:16657   */\n      mstore\n        /* \"#utility.yul\":16674:16782   */\n      tag_468\n        /* \"#utility.yul\":16777:16781   */\n      dup2\n        /* \"#utility.yul\":16768:16774   */\n      dup7\n        /* \"#utility.yul\":16674:16782   */\n      tag_268\n      jump\t// in\n    tag_468:\n        /* \"#utility.yul\":16666:16782   */\n      swap1\n      pop\n        /* \"#utility.yul\":16792:16864   */\n      tag_469\n        /* \"#utility.yul\":16860:16862   */\n      0x20\n        /* \"#utility.yul\":16849:16858   */\n      dup4\n        /* \"#utility.yul\":16845:16863   */\n      add\n        /* \"#utility.yul\":16836:16842   */\n      dup6\n        /* \"#utility.yul\":16792:16864   */\n      tag_257\n      jump\t// in\n    tag_469:\n        /* \"#utility.yul\":16874:16946   */\n      tag_470\n        /* \"#utility.yul\":16942:16944   */\n      0x40\n        /* \"#utility.yul\":16931:16940   */\n      dup4\n        /* \"#utility.yul\":16927:16945   */\n      add\n        /* \"#utility.yul\":16918:16924   */\n      dup5\n        /* \"#utility.yul\":16874:16946   */\n      tag_254\n      jump\t// in\n    tag_470:\n        /* \"#utility.yul\":16360:16953   */\n      swap5\n      swap4\n      pop\n      pop\n      pop\n      pop\n      jump\t// out\n        /* \"#utility.yul\":16959:17724   */\n    tag_65:\n        /* \"#utility.yul\":17045:17051   */\n      0x00\n        /* \"#utility.yul\":17053:17059   */\n      dup1\n        /* \"#utility.yul\":17061:17067   */\n      0x00\n        /* \"#utility.yul\":17069:17075   */\n      dup1\n        /* \"#utility.yul\":17118:17121   */\n      0x80\n        /* \"#utility.yul\":17106:17115   */\n      dup6\n        /* \"#utility.yul\":17097:17104   */\n      dup8\n        /* \"#utility.yul\":17093:17116   */\n      sub\n        /* \"#utility.yul\":17089:17122   */\n      slt\n        /* \"#utility.yul\":17086:17206   */\n      iszero\n      tag_472\n      jumpi\n        /* \"#utility.yul\":17125:17204   */\n      tag_473\n      tag_221\n      jump\t// in\n    tag_473:\n        /* \"#utility.yul\":17086:17206   */\n    tag_472:\n        /* \"#utility.yul\":17245:17246   */\n      0x00\n        /* \"#utility.yul\":17270:17323   */\n      tag_474\n        /* \"#utility.yul\":17315:17322   */\n      dup8\n        /* \"#utility.yul\":17306:17312   */\n      dup3\n        /* \"#utility.yul\":17295:17304   */\n      dup9\n        /* \"#utility.yul\":17291:17313   */\n      add\n        /* \"#utility.yul\":17270:17323   */\n      tag_226\n      jump\t// in\n    tag_474:\n        /* \"#utility.yul\":17260:17323   */\n      swap5\n      pop\n        /* \"#utility.yul\":17216:17333   */\n      pop\n        /* \"#utility.yul\":17372:17374   */\n      0x20\n        /* \"#utility.yul\":17398:17451   */\n      tag_475\n        /* \"#utility.yul\":17443:17450   */\n      dup8\n        /* \"#utility.yul\":17434:17440   */\n      dup3\n        /* \"#utility.yul\":17423:17432   */\n      dup9\n        /* \"#utility.yul\":17419:17441   */\n      add\n        /* \"#utility.yul\":17398:17451   */\n      tag_229\n      jump\t// in\n    tag_475:\n        /* \"#utility.yul\":17388:17451   */\n      swap4\n      pop\n        /* \"#utility.yul\":17343:17461   */\n      pop\n        /* \"#utility.yul\":17500:17502   */\n      0x40\n        /* \"#utility.yul\":17526:17579   */\n      tag_476\n        /* \"#utility.yul\":17571:17578   */\n      dup8\n        /* \"#utility.yul\":17562:17568   */\n      dup3\n        /* \"#utility.yul\":17551:17560   */\n      dup9\n        /* \"#utility.yul\":17547:17569   */\n      add\n        /* \"#utility.yul\":17526:17579   */\n      tag_229\n      jump\t// in\n    tag_476:\n        /* \"#utility.yul\":17516:17579   */\n      swap3\n      pop\n        /* \"#utility.yul\":17471:17589   */\n      pop\n        /* \"#utility.yul\":17628:17630   */\n      0x60\n        /* \"#utility.yul\":17654:17707   */\n      tag_477\n        /* \"#utility.yul\":17699:17706   */\n      dup8\n        /* \"#utility.yul\":17690:17696   */\n      dup3\n        /* \"#utility.yul\":17679:17688   */\n      dup9\n        /* \"#utility.yul\":17675:17697   */\n      add\n        /* \"#utility.yul\":17654:17707   */\n      tag_229\n      jump\t// in\n    tag_477:\n        /* \"#utility.yul\":17644:17707   */\n      swap2\n      pop\n        /* \"#utility.yul\":17599:17717   */\n      pop\n        /* \"#utility.yul\":16959:17724   */\n      swap3\n      swap6\n      swap2\n      swap5\n      pop\n      swap3\n      pop\n      jump\t// out\n        /* \"#utility.yul\":17730:17807   */\n    tag_269:\n        /* \"#utility.yul\":17767:17774   */\n      0x00\n        /* \"#utility.yul\":17796:17801   */\n      dup2\n        /* \"#utility.yul\":17785:17801   */\n      swap1\n      pop\n        /* \"#utility.yul\":17730:17807   */\n      swap2\n      swap1\n      pop\n      jump\t// out\n        /* \"#utility.yul\":17813:17931   */\n    tag_270:\n        /* \"#utility.yul\":17900:17924   */\n      tag_480\n        /* \"#utility.yul\":17918:17923   */\n      dup2\n        /* \"#utility.yul\":17900:17924   */\n      tag_269\n      jump\t// in\n    tag_480:\n        /* \"#utility.yul\":17895:17898   */\n      dup3\n        /* \"#utility.yul\":17888:17925   */\n      mstore\n        /* \"#utility.yul\":17813:17931   */\n      pop\n      pop\n      jump\t// out\n        /* \"#utility.yul\":17937:18159   */\n    tag_68:\n        /* \"#utility.yul\":18030:18034   */\n      0x00\n        /* \"#utility.yul\":18068:18070   */\n      0x20\n        /* \"#utility.yul\":18057:18066   */\n      dup3\n        /* \"#utility.yul\":18053:18071   */\n      add\n        /* \"#utility.yul\":18045:18071   */\n      swap1\n      pop\n        /* \"#utility.yul\":18081:18152   */\n      tag_482\n        /* \"#utility.yul\":18149:18150   */\n      0x00\n        /* \"#utility.yul\":18138:18147   */\n      dup4\n        /* \"#utility.yul\":18134:18151   */\n      add\n        /* \"#utility.yul\":18125:18131   */\n      dup5\n        /* \"#utility.yul\":18081:18152   */\n      tag_270\n      jump\t// in\n    tag_482:\n        /* \"#utility.yul\":17937:18159   */\n      swap3\n      swap2\n      pop\n      pop\n      jump\t// out\n        /* \"#utility.yul\":18165:18282   */\n    tag_271:\n        /* \"#utility.yul\":18274:18275   */\n      0x00\n        /* \"#utility.yul\":18271:18272   */\n      dup1\n        /* \"#utility.yul\":18264:18276   */\n      revert\n        /* \"#utility.yul\":18288:18405   */\n    tag_272:\n        /* \"#utility.yul\":18397:18398   */\n      0x00\n        /* \"#utility.yul\":18394:18395   */\n      dup1\n        /* \"#utility.yul\":18387:18399   */\n      revert\n        /* \"#utility.yul\":18411:18591   */\n    tag_128:\n        /* \"#utility.yul\":18459:18536   */\n      0x4e487b7100000000000000000000000000000000000000000000000000000000\n        /* \"#utility.yul\":18456:18457   */\n      0x00\n        /* \"#utility.yul\":18449:18537   */\n      mstore\n        /* \"#utility.yul\":18556:18560   */\n      0x41\n        /* \"#utility.yul\":18553:18554   */\n      0x04\n        /* \"#utility.yul\":18546:18561   */\n      mstore\n        /* \"#utility.yul\":18580:18584   */\n      0x24\n        /* \"#utility.yul\":18577:18578   */\n      0x00\n        /* \"#utility.yul\":18570:18585   */\n      revert\n        /* \"#utility.yul\":18597:18878   */\n    tag_273:\n        /* \"#utility.yul\":18680:18707   */\n      tag_487\n        /* \"#utility.yul\":18702:18706   */\n      dup3\n        /* \"#utility.yul\":18680:18707   */\n      tag_236\n      jump\t// in\n    tag_487:\n        /* \"#utility.yul\":18672:18678   */\n      dup2\n        /* \"#utility.yul\":18668:18708   */\n      add\n        /* \"#utility.yul\":18810:18816   */\n      dup2\n        /* \"#utility.yul\":18798:18808   */\n      dup2\n        /* \"#utility.yul\":18795:18817   */\n      lt\n        /* \"#utility.yul\":18774:18792   */\n      0xffffffffffffffff\n        /* \"#utility.yul\":18762:18772   */\n      dup3\n        /* \"#utility.yul\":18759:18793   */\n      gt\n        /* \"#utility.yul\":18756:18818   */\n      or\n        /* \"#utility.yul\":18753:18841   */\n      iszero\n      tag_488\n      jumpi\n        /* \"#utility.yul\":18821:18839   */\n      tag_489\n      tag_128\n      jump\t// in\n    tag_489:\n        /* \"#utility.yul\":18753:18841   */\n    tag_488:\n        /* \"#utility.yul\":18861:18871   */\n      dup1\n        /* \"#utility.yul\":18857:18859   */\n      0x40\n        /* \"#utility.yul\":18850:18872   */\n      mstore\n        /* \"#utility.yul\":18640:18878   */\n      pop\n        /* \"#utility.yul\":18597:18878   */\n      pop\n      pop\n      jump\t// out\n        /* \"#utility.yul\":18884:19013   */\n    tag_274:\n        /* \"#utility.yul\":18918:18924   */\n      0x00\n        /* \"#utility.yul\":18945:18965   */\n      tag_491\n      tag_220\n      jump\t// in\n    tag_491:\n        /* \"#utility.yul\":18935:18965   */\n      swap1\n      pop\n        /* \"#utility.yul\":18974:19007   */\n      tag_492\n        /* \"#utility.yul\":19002:19006   */\n      dup3\n        /* \"#utility.yul\":18994:19000   */\n      dup3\n        /* \"#utility.yul\":18974:19007   */\n      tag_273\n      jump\t// in\n    tag_492:\n        /* \"#utility.yul\":18884:19013   */\n      swap2\n      swap1\n      pop\n      jump\t// out\n        /* \"#utility.yul\":19019:19326   */\n    tag_275:\n        /* \"#utility.yul\":19080:19084   */\n      0x00\n        /* \"#utility.yul\":19170:19188   */\n      0xffffffffffffffff\n        /* \"#utility.yul\":19162:19168   */\n      dup3\n        /* \"#utility.yul\":19159:19189   */\n      gt\n        /* \"#utility.yul\":19156:19212   */\n      iszero\n      tag_494\n      jumpi\n        /* \"#utility.yul\":19192:19210   */\n      tag_495\n      tag_128\n      jump\t// in\n    tag_495:\n        /* \"#utility.yul\":19156:19212   */\n    tag_494:\n        /* \"#utility.yul\":19230:19259   */\n      tag_496\n        /* \"#utility.yul\":19252:19258   */\n      dup3\n        /* \"#utility.yul\":19230:19259   */\n      tag_236\n      jump\t// in\n    tag_496:\n        /* \"#utility.yul\":19222:19259   */\n      swap1\n      pop\n        /* \"#utility.yul\":19314:19318   */\n      0x20\n        /* \"#utility.yul\":19308:19312   */\n      dup2\n        /* \"#utility.yul\":19304:19319   */\n      add\n        /* \"#utility.yul\":19296:19319   */\n      swap1\n      pop\n        /* \"#utility.yul\":19019:19326   */\n      swap2\n      swap1\n      pop\n      jump\t// out\n        /* \"#utility.yul\":19332:19486   */\n    tag_276:\n        /* \"#utility.yul\":19416:19422   */\n      dup3\n        /* \"#utility.yul\":19411:19414   */\n      dup2\n        /* \"#utility.yul\":19406:19409   */\n      dup4\n        /* \"#utility.yul\":19393:19423   */\n      calldatacopy\n        /* \"#utility.yul\":19478:19479   */\n      0x00\n        /* \"#utility.yul\":19469:19475   */\n      dup4\n        /* \"#utility.yul\":19464:19467   */\n      dup4\n        /* \"#utility.yul\":19460:19476   */\n      add\n        /* \"#utility.yul\":19453:19480   */\n      mstore\n        /* \"#utility.yul\":19332:19486   */\n      pop\n      pop\n      pop\n      jump\t// out\n        /* \"#utility.yul\":19492:19902   */\n    tag_277:\n        /* \"#utility.yul\":19569:19574   */\n      0x00\n        /* \"#utility.yul\":19594:19659   */\n      tag_499\n        /* \"#utility.yul\":19610:19658   */\n      tag_500\n        /* \"#utility.yul\":19651:19657   */\n      dup5\n        /* \"#utility.yul\":19610:19658   */\n      tag_275\n      jump\t// in\n    tag_500:\n        /* \"#utility.yul\":19594:19659   */\n      tag_274\n      jump\t// in\n    tag_499:\n        /* \"#utility.yul\":19585:19659   */\n      swap1\n      pop\n        /* \"#utility.yul\":19682:19688   */\n      dup3\n        /* \"#utility.yul\":19675:19680   */\n      dup2\n        /* \"#utility.yul\":19668:19689   */\n      mstore\n        /* \"#utility.yul\":19720:19724   */\n      0x20\n        /* \"#utility.yul\":19713:19718   */\n      dup2\n        /* \"#utility.yul\":19709:19725   */\n      add\n        /* \"#utility.yul\":19758:19761   */\n      dup5\n        /* \"#utility.yul\":19749:19755   */\n      dup5\n        /* \"#utility.yul\":19744:19747   */\n      dup5\n        /* \"#utility.yul\":19740:19756   */\n      add\n        /* \"#utility.yul\":19737:19762   */\n      gt\n        /* \"#utility.yul\":19734:19846   */\n      iszero\n      tag_501\n      jumpi\n        /* \"#utility.yul\":19765:19844   */\n      tag_502\n      tag_272\n      jump\t// in\n    tag_502:\n        /* \"#utility.yul\":19734:19846   */\n    tag_501:\n        /* \"#utility.yul\":19855:19896   */\n      tag_503\n        /* \"#utility.yul\":19889:19895   */\n      dup5\n        /* \"#utility.yul\":19884:19887   */\n      dup3\n        /* \"#utility.yul\":19879:19882   */\n      dup6\n        /* \"#utility.yul\":19855:19896   */\n      tag_276\n      jump\t// in\n    tag_503:\n        /* \"#utility.yul\":19575:19902   */\n      pop\n        /* \"#utility.yul\":19492:19902   */\n      swap4\n      swap3\n      pop\n      pop\n      pop\n      jump\t// out\n        /* \"#utility.yul\":19921:20259   */\n    tag_278:\n        /* \"#utility.yul\":19976:19981   */\n      0x00\n        /* \"#utility.yul\":20025:20028   */\n      dup3\n        /* \"#utility.yul\":20018:20022   */\n      0x1f\n        /* \"#utility.yul\":20010:20016   */\n      dup4\n        /* \"#utility.yul\":20006:20023   */\n      add\n        /* \"#utility.yul\":20002:20029   */\n      slt\n        /* \"#utility.yul\":19992:20114   */\n      tag_505\n      jumpi\n        /* \"#utility.yul\":20033:20112   */\n      tag_506\n      tag_271\n      jump\t// in\n    tag_506:\n        /* \"#utility.yul\":19992:20114   */\n    tag_505:\n        /* \"#utility.yul\":20150:20156   */\n      dup2\n        /* \"#utility.yul\":20137:20157   */\n      calldataload\n        /* \"#utility.yul\":20175:20253   */\n      tag_507\n        /* \"#utility.yul\":20249:20252   */\n      dup5\n        /* \"#utility.yul\":20241:20247   */\n      dup3\n        /* \"#utility.yul\":20234:20238   */\n      0x20\n        /* \"#utility.yul\":20226:20232   */\n      dup7\n        /* \"#utility.yul\":20222:20239   */\n      add\n        /* \"#utility.yul\":20175:20253   */\n      tag_277\n      jump\t// in\n    tag_507:\n        /* \"#utility.yul\":20166:20253   */\n      swap2\n      pop\n        /* \"#utility.yul\":19982:20259   */\n      pop\n        /* \"#utility.yul\":19921:20259   */\n      swap3\n      swap2\n      pop\n      pop\n      jump\t// out\n        /* \"#utility.yul\":20265:21208   */\n    tag_71:\n        /* \"#utility.yul\":20360:20366   */\n      0x00\n        /* \"#utility.yul\":20368:20374   */\n      dup1\n        /* \"#utility.yul\":20376:20382   */\n      0x00\n        /* \"#utility.yul\":20384:20390   */\n      dup1\n        /* \"#utility.yul\":20433:20436   */\n      0x80\n        /* \"#utility.yul\":20421:20430   */\n      dup6\n        /* \"#utility.yul\":20412:20419   */\n      dup8\n        /* \"#utility.yul\":20408:20431   */\n      sub\n        /* \"#utility.yul\":20404:20437   */\n      slt\n        /* \"#utility.yul\":20401:20521   */\n      iszero\n      tag_509\n      jumpi\n        /* \"#utility.yul\":20440:20519   */\n      tag_510\n      tag_221\n      jump\t// in\n    tag_510:\n        /* \"#utility.yul\":20401:20521   */\n    tag_509:\n        /* \"#utility.yul\":20560:20561   */\n      0x00\n        /* \"#utility.yul\":20585:20638   */\n      tag_511\n        /* \"#utility.yul\":20630:20637   */\n      dup8\n        /* \"#utility.yul\":20621:20627   */\n      dup3\n        /* \"#utility.yul\":20610:20619   */\n      dup9\n        /* \"#utility.yul\":20606:20628   */\n      add\n        /* \"#utility.yul\":20585:20638   */\n      tag_226\n      jump\t// in\n    tag_511:\n        /* \"#utility.yul\":20575:20638   */\n      swap5\n      pop\n        /* \"#utility.yul\":20531:20648   */\n      pop\n        /* \"#utility.yul\":20687:20689   */\n      0x20\n        /* \"#utility.yul\":20713:20766   */\n      tag_512\n        /* \"#utility.yul\":20758:20765   */\n      dup8\n        /* \"#utility.yul\":20749:20755   */\n      dup3\n        /* \"#utility.yul\":20738:20747   */\n      dup9\n        /* \"#utility.yul\":20734:20756   */\n      add\n        /* \"#utility.yul\":20713:20766   */\n      tag_229\n      jump\t// in\n    tag_512:\n        /* \"#utility.yul\":20703:20766   */\n      swap4\n      pop\n        /* \"#utility.yul\":20658:20776   */\n      pop\n        /* \"#utility.yul\":20815:20817   */\n      0x40\n        /* \"#utility.yul\":20841:20894   */\n      tag_513\n        /* \"#utility.yul\":20886:20893   */\n      dup8\n        /* \"#utility.yul\":20877:20883   */\n      dup3\n        /* \"#utility.yul\":20866:20875   */\n      dup9\n        /* \"#utility.yul\":20862:20884   */\n      add\n        /* \"#utility.yul\":20841:20894   */\n      tag_229\n      jump\t// in\n    tag_513:\n        /* \"#utility.yul\":20831:20894   */\n      swap3\n      pop\n        /* \"#utility.yul\":20786:20904   */\n      pop\n        /* \"#utility.yul\":20971:20973   */\n      0x60\n        /* \"#utility.yul\":20960:20969   */\n      dup6\n        /* \"#utility.yul\":20956:20974   */\n      add\n        /* \"#utility.yul\":20943:20975   */\n      calldataload\n        /* \"#utility.yul\":21002:21020   */\n      0xffffffffffffffff\n        /* \"#utility.yul\":20994:21000   */\n      dup2\n        /* \"#utility.yul\":20991:21021   */\n      gt\n        /* \"#utility.yul\":20988:21105   */\n      iszero\n      tag_514\n      jumpi\n        /* \"#utility.yul\":21024:21103   */\n      tag_515\n      tag_222\n      jump\t// in\n    tag_515:\n        /* \"#utility.yul\":20988:21105   */\n    tag_514:\n        /* \"#utility.yul\":21129:21191   */\n      tag_516\n        /* \"#utility.yul\":21183:21190   */\n      dup8\n        /* \"#utility.yul\":21174:21180   */\n      dup3\n        /* \"#utility.yul\":21163:21172   */\n      dup9\n        /* \"#utility.yul\":21159:21181   */\n      add\n        /* \"#utility.yul\":21129:21191   */\n      tag_278\n      jump\t// in\n    tag_516:\n        /* \"#utility.yul\":21119:21191   */\n      swap2\n      pop\n        /* \"#utility.yul\":20914:21201   */\n      pop\n        /* \"#utility.yul\":20265:21208   */\n      swap3\n      swap6\n      swap2\n      swap5\n      pop\n      swap3\n      pop\n      jump\t// out\n        /* \"#utility.yul\":21214:21522   */\n    tag_279:\n        /* \"#utility.yul\":21276:21280   */\n      0x00\n        /* \"#utility.yul\":21366:21384   */\n      0xffffffffffffffff\n        /* \"#utility.yul\":21358:21364   */\n      dup3\n        /* \"#utility.yul\":21355:21385   */\n      gt\n        /* \"#utility.yul\":21352:21408   */\n      iszero\n      tag_518\n      jumpi\n        /* \"#utility.yul\":21388:21406   */\n      tag_519\n      tag_128\n      jump\t// in\n    tag_519:\n        /* \"#utility.yul\":21352:21408   */\n    tag_518:\n        /* \"#utility.yul\":21426:21455   */\n      tag_520\n        /* \"#utility.yul\":21448:21454   */\n      dup3\n        /* \"#utility.yul\":21426:21455   */\n      tag_236\n      jump\t// in\n    tag_520:\n        /* \"#utility.yul\":21418:21455   */\n      swap1\n      pop\n        /* \"#utility.yul\":21510:21514   */\n      0x20\n        /* \"#utility.yul\":21504:21508   */\n      dup2\n        /* \"#utility.yul\":21500:21515   */\n      add\n        /* \"#utility.yul\":21492:21515   */\n      swap1\n      pop\n        /* \"#utility.yul\":21214:21522   */\n      swap2\n      swap1\n      pop\n      jump\t// out\n        /* \"#utility.yul\":21528:21940   */\n    tag_280:\n        /* \"#utility.yul\":21606:21611   */\n      0x00\n        /* \"#utility.yul\":21631:21697   */\n      tag_522\n        /* \"#utility.yul\":21647:21696   */\n      tag_523\n        /* \"#utility.yul\":21689:21695   */\n      dup5\n        /* \"#utility.yul\":21647:21696   */\n      tag_279\n      jump\t// in\n    tag_523:\n        /* \"#utility.yul\":21631:21697   */\n      tag_274\n      jump\t// in\n    tag_522:\n        /* \"#utility.yul\":21622:21697   */\n      swap1\n      pop\n        /* \"#utility.yul\":21720:21726   */\n      dup3\n        /* \"#utility.yul\":21713:21718   */\n      dup2\n        /* \"#utility.yul\":21706:21727   */\n      mstore\n        /* \"#utility.yul\":21758:21762   */\n      0x20\n        /* \"#utility.yul\":21751:21756   */\n      dup2\n        /* \"#utility.yul\":21747:21763   */\n      add\n        /* \"#utility.yul\":21796:21799   */\n      dup5\n        /* \"#utility.yul\":21787:21793   */\n      dup5\n        /* \"#utility.yul\":21782:21785   */\n      dup5\n        /* \"#utility.yul\":21778:21794   */\n      add\n        /* \"#utility.yul\":21775:21800   */\n      gt\n        /* \"#utility.yul\":21772:21884   */\n      iszero\n      tag_524\n      jumpi\n        /* \"#utility.yul\":21803:21882   */\n      tag_525\n      tag_272\n      jump\t// in\n    tag_525:\n        /* \"#utility.yul\":21772:21884   */\n    tag_524:\n        /* \"#utility.yul\":21893:21934   */\n      tag_526\n        /* \"#utility.yul\":21927:21933   */\n      dup5\n        /* \"#utility.yul\":21922:21925   */\n      dup3\n        /* \"#utility.yul\":21917:21920   */\n      dup6\n        /* \"#utility.yul\":21893:21934   */\n      tag_276\n      jump\t// in\n    tag_526:\n        /* \"#utility.yul\":21612:21940   */\n      pop\n        /* \"#utility.yul\":21528:21940   */\n      swap4\n      swap3\n      pop\n      pop\n      pop\n      jump\t// out\n        /* \"#utility.yul\":21960:22300   */\n    tag_281:\n        /* \"#utility.yul\":22016:22021   */\n      0x00\n        /* \"#utility.yul\":22065:22068   */\n      dup3\n        /* \"#utility.yul\":22058:22062   */\n      0x1f\n        /* \"#utility.yul\":22050:22056   */\n      dup4\n        /* \"#utility.yul\":22046:22063   */\n      add\n        /* \"#utility.yul\":22042:22069   */\n      slt\n        /* \"#utility.yul\":22032:22154   */\n      tag_528\n      jumpi\n        /* \"#utility.yul\":22073:22152   */\n      tag_529\n      tag_271\n      jump\t// in\n    tag_529:\n        /* \"#utility.yul\":22032:22154   */\n    tag_528:\n        /* \"#utility.yul\":22190:22196   */\n      dup2\n        /* \"#utility.yul\":22177:22197   */\n      calldataload\n        /* \"#utility.yul\":22215:22294   */\n      tag_530\n        /* \"#utility.yul\":22290:22293   */\n      dup5\n        /* \"#utility.yul\":22282:22288   */\n      dup3\n        /* \"#utility.yul\":22275:22279   */\n      0x20\n        /* \"#utility.yul\":22267:22273   */\n      dup7\n        /* \"#utility.yul\":22263:22280   */\n      add\n        /* \"#utility.yul\":22215:22294   */\n      tag_280\n      jump\t// in\n    tag_530:\n        /* \"#utility.yul\":22206:22294   */\n      swap2\n      pop\n        /* \"#utility.yul\":22022:22300   */\n      pop\n        /* \"#utility.yul\":21960:22300   */\n      swap3\n      swap2\n      pop\n      pop\n      jump\t// out\n        /* \"#utility.yul\":22306:22426   */\n    tag_282:\n        /* \"#utility.yul\":22378:22401   */\n      tag_532\n        /* \"#utility.yul\":22395:22400   */\n      dup2\n        /* \"#utility.yul\":22378:22401   */\n      tag_245\n      jump\t// in\n    tag_532:\n        /* \"#utility.yul\":22371:22376   */\n      dup2\n        /* \"#utility.yul\":22368:22402   */\n      eq\n        /* \"#utility.yul\":22358:22420   */\n      tag_533\n      jumpi\n        /* \"#utility.yul\":22416:22417   */\n      0x00\n        /* \"#utility.yul\":22413:22414   */\n      dup1\n        /* \"#utility.yul\":22406:22418   */\n      revert\n        /* \"#utility.yul\":22358:22420   */\n    tag_533:\n        /* \"#utility.yul\":22306:22426   */\n      pop\n      jump\t// out\n        /* \"#utility.yul\":22432:22569   */\n    tag_283:\n        /* \"#utility.yul\":22477:22482   */\n      0x00\n        /* \"#utility.yul\":22515:22521   */\n      dup2\n        /* \"#utility.yul\":22502:22522   */\n      calldataload\n        /* \"#utility.yul\":22493:22522   */\n      swap1\n      pop\n        /* \"#utility.yul\":22531:22563   */\n      tag_535\n        /* \"#utility.yul\":22557:22562   */\n      dup2\n        /* \"#utility.yul\":22531:22563   */\n      tag_282\n      jump\t// in\n    tag_535:\n        /* \"#utility.yul\":22432:22569   */\n      swap3\n      swap2\n      pop\n      pop\n      jump\t// out\n        /* \"#utility.yul\":22575:23227   */\n    tag_82:\n        /* \"#utility.yul\":22652:22658   */\n      0x00\n        /* \"#utility.yul\":22660:22666   */\n      dup1\n        /* \"#utility.yul\":22709:22711   */\n      0x40\n        /* \"#utility.yul\":22697:22706   */\n      dup4\n        /* \"#utility.yul\":22688:22695   */\n      dup6\n        /* \"#utility.yul\":22684:22707   */\n      sub\n        /* \"#utility.yul\":22680:22712   */\n      slt\n        /* \"#utility.yul\":22677:22796   */\n      iszero\n      tag_537\n      jumpi\n        /* \"#utility.yul\":22715:22794   */\n      tag_538\n      tag_221\n      jump\t// in\n    tag_538:\n        /* \"#utility.yul\":22677:22796   */\n    tag_537:\n        /* \"#utility.yul\":22863:22864   */\n      0x00\n        /* \"#utility.yul\":22852:22861   */\n      dup4\n        /* \"#utility.yul\":22848:22865   */\n      add\n        /* \"#utility.yul\":22835:22866   */\n      calldataload\n        /* \"#utility.yul\":22893:22911   */\n      0xffffffffffffffff\n        /* \"#utility.yul\":22885:22891   */\n      dup2\n        /* \"#utility.yul\":22882:22912   */\n      gt\n        /* \"#utility.yul\":22879:22996   */\n      iszero\n      tag_539\n      jumpi\n        /* \"#utility.yul\":22915:22994   */\n      tag_540\n      tag_222\n      jump\t// in\n    tag_540:\n        /* \"#utility.yul\":22879:22996   */\n    tag_539:\n        /* \"#utility.yul\":23020:23083   */\n      tag_541\n        /* \"#utility.yul\":23075:23082   */\n      dup6\n        /* \"#utility.yul\":23066:23072   */\n      dup3\n        /* \"#utility.yul\":23055:23064   */\n      dup7\n        /* \"#utility.yul\":23051:23073   */\n      add\n        /* \"#utility.yul\":23020:23083   */\n      tag_281\n      jump\t// in\n    tag_541:\n        /* \"#utility.yul\":23010:23083   */\n      swap3\n      pop\n        /* \"#utility.yul\":22806:23093   */\n      pop\n        /* \"#utility.yul\":23132:23134   */\n      0x20\n        /* \"#utility.yul\":23158:23210   */\n      tag_542\n        /* \"#utility.yul\":23202:23209   */\n      dup6\n        /* \"#utility.yul\":23193:23199   */\n      dup3\n        /* \"#utility.yul\":23182:23191   */\n      dup7\n        /* \"#utility.yul\":23178:23200   */\n      add\n        /* \"#utility.yul\":23158:23210   */\n      tag_283\n      jump\t// in\n    tag_542:\n        /* \"#utility.yul\":23148:23210   */\n      swap2\n      pop\n        /* \"#utility.yul\":23103:23220   */\n      pop\n        /* \"#utility.yul\":22575:23227   */\n      swap3\n      pop\n      swap3\n      swap1\n      pop\n      jump\t// out\n        /* \"#utility.yul\":23233:23403   */\n    tag_284:\n        /* \"#utility.yul\":23373:23395   */\n      0x79657420746f20637265617465206120706f6c6c000000000000000000000000\n        /* \"#utility.yul\":23369:23370   */\n      0x00\n        /* \"#utility.yul\":23361:23367   */\n      dup3\n        /* \"#utility.yul\":23357:23371   */\n      add\n        /* \"#utility.yul\":23350:23396   */\n      mstore\n        /* \"#utility.yul\":23233:23403   */\n      pop\n      jump\t// out\n        /* \"#utility.yul\":23409:23775   */\n    tag_285:\n        /* \"#utility.yul\":23551:23554   */\n      0x00\n        /* \"#utility.yul\":23572:23639   */\n      tag_545\n        /* \"#utility.yul\":23636:23638   */\n      0x14\n        /* \"#utility.yul\":23631:23634   */\n      dup4\n        /* \"#utility.yul\":23572:23639   */\n      tag_255\n      jump\t// in\n    tag_545:\n        /* \"#utility.yul\":23565:23639   */\n      swap2\n      pop\n        /* \"#utility.yul\":23648:23741   */\n      tag_546\n        /* \"#utility.yul\":23737:23740   */\n      dup3\n        /* \"#utility.yul\":23648:23741   */\n      tag_284\n      jump\t// in\n    tag_546:\n        /* \"#utility.yul\":23766:23768   */\n      0x20\n        /* \"#utility.yul\":23761:23764   */\n      dup3\n        /* \"#utility.yul\":23757:23769   */\n      add\n        /* \"#utility.yul\":23750:23769   */\n      swap1\n      pop\n        /* \"#utility.yul\":23409:23775   */\n      swap2\n      swap1\n      pop\n      jump\t// out\n        /* \"#utility.yul\":23781:24200   */\n    tag_87:\n        /* \"#utility.yul\":23947:23951   */\n      0x00\n        /* \"#utility.yul\":23985:23987   */\n      0x20\n        /* \"#utility.yul\":23974:23983   */\n      dup3\n        /* \"#utility.yul\":23970:23988   */\n      add\n        /* \"#utility.yul\":23962:23988   */\n      swap1\n      pop\n        /* \"#utility.yul\":24034:24043   */\n      dup2\n        /* \"#utility.yul\":24028:24032   */\n      dup2\n        /* \"#utility.yul\":24024:24044   */\n      sub\n        /* \"#utility.yul\":24020:24021   */\n      0x00\n        /* \"#utility.yul\":24009:24018   */\n      dup4\n        /* \"#utility.yul\":24005:24022   */\n      add\n        /* \"#utility.yul\":23998:24045   */\n      mstore\n        /* \"#utility.yul\":24062:24193   */\n      tag_548\n        /* \"#utility.yul\":24188:24192   */\n      dup2\n        /* \"#utility.yul\":24062:24193   */\n      tag_285\n      jump\t// in\n    tag_548:\n        /* \"#utility.yul\":24054:24193   */\n      swap1\n      pop\n        /* \"#utility.yul\":23781:24200   */\n      swap2\n      swap1\n      pop\n      jump\t// out\n        /* \"#utility.yul\":24206:24386   */\n    tag_90:\n        /* \"#utility.yul\":24254:24331   */\n      0x4e487b7100000000000000000000000000000000000000000000000000000000\n        /* \"#utility.yul\":24251:24252   */\n      0x00\n        /* \"#utility.yul\":24244:24332   */\n      mstore\n        /* \"#utility.yul\":24351:24355   */\n      0x01\n        /* \"#utility.yul\":24348:24349   */\n      0x04\n        /* \"#utility.yul\":24341:24356   */\n      mstore\n        /* \"#utility.yul\":24375:24379   */\n      0x24\n        /* \"#utility.yul\":24372:24373   */\n      0x00\n        /* \"#utility.yul\":24365:24380   */\n      revert\n        /* \"#utility.yul\":24392:24625   */\n    tag_286:\n        /* \"#utility.yul\":24532:24566   */\n      0x6d6178696d756d206e6f206f662063616e646964617465207065722073657373\n        /* \"#utility.yul\":24528:24529   */\n      0x00\n        /* \"#utility.yul\":24520:24526   */\n      dup3\n        /* \"#utility.yul\":24516:24530   */\n      add\n        /* \"#utility.yul\":24509:24567   */\n      mstore\n        /* \"#utility.yul\":24601:24617   */\n      0x696f6e2072656769737465726564000000000000000000000000000000000000\n        /* \"#utility.yul\":24596:24598   */\n      0x20\n        /* \"#utility.yul\":24588:24594   */\n      dup3\n        /* \"#utility.yul\":24584:24599   */\n      add\n        /* \"#utility.yul\":24577:24618   */\n      mstore\n        /* \"#utility.yul\":24392:24625   */\n      pop\n      jump\t// out\n        /* \"#utility.yul\":24631:24997   */\n    tag_287:\n        /* \"#utility.yul\":24773:24776   */\n      0x00\n        /* \"#utility.yul\":24794:24861   */\n      tag_552\n        /* \"#utility.yul\":24858:24860   */\n      0x2e\n        /* \"#utility.yul\":24853:24856   */\n      dup4\n        /* \"#utility.yul\":24794:24861   */\n      tag_255\n      jump\t// in\n    tag_552:\n        /* \"#utility.yul\":24787:24861   */\n      swap2\n      pop\n        /* \"#utility.yul\":24870:24963   */\n      tag_553\n        /* \"#utility.yul\":24959:24962   */\n      dup3\n        /* \"#utility.yul\":24870:24963   */\n      tag_286\n      jump\t// in\n    tag_553:\n        /* \"#utility.yul\":24988:24990   */\n      0x40\n        /* \"#utility.yul\":24983:24986   */\n      dup3\n        /* \"#utility.yul\":24979:24991   */\n      add\n        /* \"#utility.yul\":24972:24991   */\n      swap1\n      pop\n        /* \"#utility.yul\":24631:24997   */\n      swap2\n      swap1\n      pop\n      jump\t// out\n        /* \"#utility.yul\":25003:25422   */\n    tag_93:\n        /* \"#utility.yul\":25169:25173   */\n      0x00\n        /* \"#utility.yul\":25207:25209   */\n      0x20\n        /* \"#utility.yul\":25196:25205   */\n      dup3\n        /* \"#utility.yul\":25192:25210   */\n      add\n        /* \"#utility.yul\":25184:25210   */\n      swap1\n      pop\n        /* \"#utility.yul\":25256:25265   */\n      dup2\n        /* \"#utility.yul\":25250:25254   */\n      dup2\n        /* \"#utility.yul\":25246:25266   */\n      sub\n        /* \"#utility.yul\":25242:25243   */\n      0x00\n        /* \"#utility.yul\":25231:25240   */\n      dup4\n        /* \"#utility.yul\":25227:25244   */\n      add\n        /* \"#utility.yul\":25220:25267   */\n      mstore\n        /* \"#utility.yul\":25284:25415   */\n      tag_555\n        /* \"#utility.yul\":25410:25414   */\n      dup2\n        /* \"#utility.yul\":25284:25415   */\n      tag_287\n      jump\t// in\n    tag_555:\n        /* \"#utility.yul\":25276:25415   */\n      swap1\n      pop\n        /* \"#utility.yul\":25003:25422   */\n      swap2\n      swap1\n      pop\n      jump\t// out\n        /* \"#utility.yul\":25428:25608   */\n    tag_288:\n        /* \"#utility.yul\":25476:25553   */\n      0x4e487b7100000000000000000000000000000000000000000000000000000000\n        /* \"#utility.yul\":25473:25474   */\n      0x00\n        /* \"#utility.yul\":25466:25554   */\n      mstore\n        /* \"#utility.yul\":25573:25577   */\n      0x11\n        /* \"#utility.yul\":25570:25571   */\n      0x04\n        /* \"#utility.yul\":25563:25578   */\n      mstore\n        /* \"#utility.yul\":25597:25601   */\n      0x24\n        /* \"#utility.yul\":25594:25595   */\n      0x00\n        /* \"#utility.yul\":25587:25602   */\n      revert\n        /* \"#utility.yul\":25614:25789   */\n    tag_96:\n        /* \"#utility.yul\":25652:25655   */\n      0x00\n        /* \"#utility.yul\":25675:25698   */\n      tag_558\n        /* \"#utility.yul\":25692:25697   */\n      dup3\n        /* \"#utility.yul\":25675:25698   */\n      tag_245\n      jump\t// in\n    tag_558:\n        /* \"#utility.yul\":25666:25698   */\n      swap2\n      pop\n        /* \"#utility.yul\":25720:25730   */\n      0xffffffff\n        /* \"#utility.yul\":25713:25718   */\n      dup3\n        /* \"#utility.yul\":25710:25731   */\n      eq\n        /* \"#utility.yul\":25707:25754   */\n      iszero\n      tag_559\n      jumpi\n        /* \"#utility.yul\":25734:25752   */\n      tag_560\n      tag_288\n      jump\t// in\n    tag_560:\n        /* \"#utility.yul\":25707:25754   */\n    tag_559:\n        /* \"#utility.yul\":25781:25782   */\n      0x01\n        /* \"#utility.yul\":25774:25779   */\n      dup3\n        /* \"#utility.yul\":25770:25783   */\n      add\n        /* \"#utility.yul\":25763:25783   */\n      swap1\n      pop\n        /* \"#utility.yul\":25614:25789   */\n      swap2\n      swap1\n      pop\n      jump\t// out\n        /* \"#utility.yul\":25795:26017   */\n    tag_98:\n        /* \"#utility.yul\":25888:25892   */\n      0x00\n        /* \"#utility.yul\":25926:25928   */\n      0x20\n        /* \"#utility.yul\":25915:25924   */\n      dup3\n        /* \"#utility.yul\":25911:25929   */\n      add\n        /* \"#utility.yul\":25903:25929   */\n      swap1\n      pop\n        /* \"#utility.yul\":25939:26010   */\n      tag_562\n        /* \"#utility.yul\":26007:26008   */\n      0x00\n        /* \"#utility.yul\":25996:26005   */\n      dup4\n        /* \"#utility.yul\":25992:26009   */\n      add\n        /* \"#utility.yul\":25983:25989   */\n      dup5\n        /* \"#utility.yul\":25939:26010   */\n      tag_257\n      jump\t// in\n    tag_562:\n        /* \"#utility.yul\":25795:26017   */\n      swap3\n      swap2\n      pop\n      pop\n      jump\t// out\n        /* \"#utility.yul\":26023:26203   */\n    tag_289:\n        /* \"#utility.yul\":26071:26148   */\n      0x4e487b7100000000000000000000000000000000000000000000000000000000\n        /* \"#utility.yul\":26068:26069   */\n      0x00\n        /* \"#utility.yul\":26061:26149   */\n      mstore\n        /* \"#utility.yul\":26168:26172   */\n      0x22\n        /* \"#utility.yul\":26165:26166   */\n      0x04\n        /* \"#utility.yul\":26158:26173   */\n      mstore\n        /* \"#utility.yul\":26192:26196   */\n      0x24\n        /* \"#utility.yul\":26189:26190   */\n      0x00\n        /* \"#utility.yul\":26182:26197   */\n      revert\n        /* \"#utility.yul\":26209:26529   */\n    tag_104:\n        /* \"#utility.yul\":26253:26259   */\n      0x00\n        /* \"#utility.yul\":26290:26291   */\n      0x02\n        /* \"#utility.yul\":26284:26288   */\n      dup3\n        /* \"#utility.yul\":26280:26292   */\n      div\n        /* \"#utility.yul\":26270:26292   */\n      swap1\n      pop\n        /* \"#utility.yul\":26337:26338   */\n      0x01\n        /* \"#utility.yul\":26331:26335   */\n      dup3\n        /* \"#utility.yul\":26327:26339   */\n      and\n        /* \"#utility.yul\":26358:26376   */\n      dup1\n        /* \"#utility.yul\":26348:26429   */\n      tag_565\n      jumpi\n        /* \"#utility.yul\":26414:26418   */\n      0x7f\n        /* \"#utility.yul\":26406:26412   */\n      dup3\n        /* \"#utility.yul\":26402:26419   */\n      and\n        /* \"#utility.yul\":26392:26419   */\n      swap2\n      pop\n        /* \"#utility.yul\":26348:26429   */\n    tag_565:\n        /* \"#utility.yul\":26476:26478   */\n      0x20\n        /* \"#utility.yul\":26468:26474   */\n      dup3\n        /* \"#utility.yul\":26465:26479   */\n      lt\n        /* \"#utility.yul\":26445:26463   */\n      dup2\n        /* \"#utility.yul\":26442:26480   */\n      eq\n        /* \"#utility.yul\":26439:26523   */\n      iszero\n      tag_566\n      jumpi\n        /* \"#utility.yul\":26495:26513   */\n      tag_567\n      tag_289\n      jump\t// in\n    tag_567:\n        /* \"#utility.yul\":26439:26523   */\n    tag_566:\n        /* \"#utility.yul\":26260:26529   */\n      pop\n        /* \"#utility.yul\":26209:26529   */\n      swap2\n      swap1\n      pop\n      jump\t// out\n        /* \"#utility.yul\":26535:26700   */\n    tag_290:\n        /* \"#utility.yul\":26675:26692   */\n      0x4e6f20706f6c6c20637265617465640000000000000000000000000000000000\n        /* \"#utility.yul\":26671:26672   */\n      0x00\n        /* \"#utility.yul\":26663:26669   */\n      dup3\n        /* \"#utility.yul\":26659:26673   */\n      add\n        /* \"#utility.yul\":26652:26693   */\n      mstore\n        /* \"#utility.yul\":26535:26700   */\n      pop\n      jump\t// out\n        /* \"#utility.yul\":26706:27072   */\n    tag_291:\n        /* \"#utility.yul\":26848:26851   */\n      0x00\n        /* \"#utility.yul\":26869:26936   */\n      tag_570\n        /* \"#utility.yul\":26933:26935   */\n      0x0f\n        /* \"#utility.yul\":26928:26931   */\n      dup4\n        /* \"#utility.yul\":26869:26936   */\n      tag_255\n      jump\t// in\n    tag_570:\n        /* \"#utility.yul\":26862:26936   */\n      swap2\n      pop\n        /* \"#utility.yul\":26945:27038   */\n      tag_571\n        /* \"#utility.yul\":27034:27037   */\n      dup3\n        /* \"#utility.yul\":26945:27038   */\n      tag_290\n      jump\t// in\n    tag_571:\n        /* \"#utility.yul\":27063:27065   */\n      0x20\n        /* \"#utility.yul\":27058:27061   */\n      dup3\n        /* \"#utility.yul\":27054:27066   */\n      add\n        /* \"#utility.yul\":27047:27066   */\n      swap1\n      pop\n        /* \"#utility.yul\":26706:27072   */\n      swap2\n      swap1\n      pop\n      jump\t// out\n        /* \"#utility.yul\":27078:27497   */\n    tag_125:\n        /* \"#utility.yul\":27244:27248   */\n      0x00\n        /* \"#utility.yul\":27282:27284   */\n      0x20\n        /* \"#utility.yul\":27271:27280   */\n      dup3\n        /* \"#utility.yul\":27267:27285   */\n      add\n        /* \"#utility.yul\":27259:27285   */\n      swap1\n      pop\n        /* \"#utility.yul\":27331:27340   */\n      dup2\n        /* \"#utility.yul\":27325:27329   */\n      dup2\n        /* \"#utility.yul\":27321:27341   */\n      sub\n        /* \"#utility.yul\":27317:27318   */\n      0x00\n        /* \"#utility.yul\":27306:27315   */\n      dup4\n        /* \"#utility.yul\":27302:27319   */\n      add\n        /* \"#utility.yul\":27295:27342   */\n      mstore\n        /* \"#utility.yul\":27359:27490   */\n      tag_573\n        /* \"#utility.yul\":27485:27489   */\n      dup2\n        /* \"#utility.yul\":27359:27490   */\n      tag_291\n      jump\t// in\n    tag_573:\n        /* \"#utility.yul\":27351:27490   */\n      swap1\n      pop\n        /* \"#utility.yul\":27078:27497   */\n      swap2\n      swap1\n      pop\n      jump\t// out\n        /* \"#utility.yul\":27503:27683   */\n    tag_138:\n        /* \"#utility.yul\":27551:27628   */\n      0x4e487b7100000000000000000000000000000000000000000000000000000000\n        /* \"#utility.yul\":27548:27549   */\n      0x00\n        /* \"#utility.yul\":27541:27629   */\n      mstore\n        /* \"#utility.yul\":27648:27652   */\n      0x32\n        /* \"#utility.yul\":27645:27646   */\n      0x04\n        /* \"#utility.yul\":27638:27653   */\n      mstore\n        /* \"#utility.yul\":27672:27676   */\n      0x24\n        /* \"#utility.yul\":27669:27670   */\n      0x00\n        /* \"#utility.yul\":27662:27677   */\n      revert\n        /* \"#utility.yul\":27689:27922   */\n    tag_146:\n        /* \"#utility.yul\":27728:27731   */\n      0x00\n        /* \"#utility.yul\":27751:27775   */\n      tag_576\n        /* \"#utility.yul\":27769:27774   */\n      dup3\n        /* \"#utility.yul\":27751:27775   */\n      tag_227\n      jump\t// in\n    tag_576:\n        /* \"#utility.yul\":27742:27775   */\n      swap2\n      pop\n        /* \"#utility.yul\":27797:27863   */\n      0xffffffffffffffffffffffffffffffffffffffffffffffffffffffffffffffff\n        /* \"#utility.yul\":27790:27795   */\n      dup3\n        /* \"#utility.yul\":27787:27864   */\n      eq\n        /* \"#utility.yul\":27784:27887   */\n      iszero\n      tag_577\n      jumpi\n        /* \"#utility.yul\":27867:27885   */\n      tag_578\n      tag_288\n      jump\t// in\n    tag_578:\n        /* \"#utility.yul\":27784:27887   */\n    tag_577:\n        /* \"#utility.yul\":27914:27915   */\n      0x01\n        /* \"#utility.yul\":27907:27912   */\n      dup3\n        /* \"#utility.yul\":27903:27916   */\n      add\n        /* \"#utility.yul\":27896:27916   */\n      swap1\n      pop\n        /* \"#utility.yul\":27689:27922   */\n      swap2\n      swap1\n      pop\n      jump\t// out\n        /* \"#utility.yul\":27928:28022   */\n    tag_292:\n        /* \"#utility.yul\":27961:27969   */\n      0x00\n        /* \"#utility.yul\":28009:28014   */\n      dup2\n        /* \"#utility.yul\":28005:28007   */\n      0x60\n        /* \"#utility.yul\":28001:28015   */\n      shl\n        /* \"#utility.yul\":27980:28015   */\n      swap1\n      pop\n        /* \"#utility.yul\":27928:28022   */\n      swap2\n      swap1\n      pop\n      jump\t// out\n        /* \"#utility.yul\":28028:28122   */\n    tag_293:\n        /* \"#utility.yul\":28067:28074   */\n      0x00\n        /* \"#utility.yul\":28096:28116   */\n      tag_581\n        /* \"#utility.yul\":28110:28115   */\n      dup3\n        /* \"#utility.yul\":28096:28116   */\n      tag_292\n      jump\t// in\n    tag_581:\n        /* \"#utility.yul\":28085:28116   */\n      swap1\n      pop\n        /* \"#utility.yul\":28028:28122   */\n      swap2\n      swap1\n      pop\n      jump\t// out\n        /* \"#utility.yul\":28128:28228   */\n    tag_294:\n        /* \"#utility.yul\":28167:28174   */\n      0x00\n        /* \"#utility.yul\":28196:28222   */\n      tag_583\n        /* \"#utility.yul\":28216:28221   */\n      dup3\n        /* \"#utility.yul\":28196:28222   */\n      tag_293\n      jump\t// in\n    tag_583:\n        /* \"#utility.yul\":28185:28222   */\n      swap1\n      pop\n        /* \"#utility.yul\":28128:28228   */\n      swap2\n      swap1\n      pop\n      jump\t// out\n        /* \"#utility.yul\":28234:28391   */\n    tag_295:\n        /* \"#utility.yul\":28339:28384   */\n      tag_585\n        /* \"#utility.yul\":28359:28383   */\n      tag_586\n        /* \"#utility.yul\":28377:28382   */\n      dup3\n        /* \"#utility.yul\":28359:28383   */\n      tag_224\n      jump\t// in\n    tag_586:\n        /* \"#utility.yul\":28339:28384   */\n      tag_294\n      jump\t// in\n    tag_585:\n        /* \"#utility.yul\":28334:28337   */\n      dup3\n        /* \"#utility.yul\":28327:28385   */\n      mstore\n        /* \"#utility.yul\":28234:28391   */\n      pop\n      pop\n      jump\t// out\n        /* \"#utility.yul\":28397:28545   */\n    tag_296:\n        /* \"#utility.yul\":28499:28510   */\n      0x00\n        /* \"#utility.yul\":28536:28539   */\n      dup2\n        /* \"#utility.yul\":28521:28539   */\n      swap1\n      pop\n        /* \"#utility.yul\":28397:28545   */\n      swap3\n      swap2\n      pop\n      pop\n      jump\t// out\n        /* \"#utility.yul\":28551:28724   */\n    tag_297:\n        /* \"#utility.yul\":28691:28716   */\n      0x6d6574617472616e73616374696f6e20566f74696e6720000000000000000000\n        /* \"#utility.yul\":28687:28688   */\n      0x00\n        /* \"#utility.yul\":28679:28685   */\n      dup3\n        /* \"#utility.yul\":28675:28689   */\n      add\n        /* \"#utility.yul\":28668:28717   */\n      mstore\n        /* \"#utility.yul\":28551:28724   */\n      pop\n      jump\t// out\n        /* \"#utility.yul\":28730:29132   */\n    tag_298:\n        /* \"#utility.yul\":28890:28893   */\n      0x00\n        /* \"#utility.yul\":28911:28996   */\n      tag_590\n        /* \"#utility.yul\":28993:28995   */\n      0x17\n        /* \"#utility.yul\":28988:28991   */\n      dup4\n        /* \"#utility.yul\":28911:28996   */\n      tag_296\n      jump\t// in\n    tag_590:\n        /* \"#utility.yul\":28904:28996   */\n      swap2\n      pop\n        /* \"#utility.yul\":29005:29098   */\n      tag_591\n        /* \"#utility.yul\":29094:29097   */\n      dup3\n        /* \"#utility.yul\":29005:29098   */\n      tag_297\n      jump\t// in\n    tag_591:\n        /* \"#utility.yul\":29123:29125   */\n      0x17\n        /* \"#utility.yul\":29118:29121   */\n      dup3\n        /* \"#utility.yul\":29114:29126   */\n      add\n        /* \"#utility.yul\":29107:29126   */\n      swap1\n      pop\n        /* \"#utility.yul\":28730:29132   */\n      swap2\n      swap1\n      pop\n      jump\t// out\n        /* \"#utility.yul\":29138:29217   */\n    tag_299:\n        /* \"#utility.yul\":29177:29184   */\n      0x00\n        /* \"#utility.yul\":29206:29211   */\n      dup2\n        /* \"#utility.yul\":29195:29211   */\n      swap1\n      pop\n        /* \"#utility.yul\":29138:29217   */\n      swap2\n      swap1\n      pop\n      jump\t// out\n        /* \"#utility.yul\":29223:29380   */\n    tag_300:\n        /* \"#utility.yul\":29328:29373   */\n      tag_594\n        /* \"#utility.yul\":29348:29372   */\n      tag_595\n        /* \"#utility.yul\":29366:29371   */\n      dup3\n        /* \"#utility.yul\":29348:29372   */\n      tag_227\n      jump\t// in\n    tag_595:\n        /* \"#utility.yul\":29328:29373   */\n      tag_299\n      jump\t// in\n    tag_594:\n        /* \"#utility.yul\":29323:29326   */\n      dup3\n        /* \"#utility.yul\":29316:29374   */\n      mstore\n        /* \"#utility.yul\":29223:29380   */\n      pop\n      pop\n      jump\t// out\n        /* \"#utility.yul\":29386:30472   */\n    tag_151:\n        /* \"#utility.yul\":29711:29714   */\n      0x00\n        /* \"#utility.yul\":29726:29801   */\n      tag_597\n        /* \"#utility.yul\":29797:29800   */\n      dup3\n        /* \"#utility.yul\":29788:29794   */\n      dup9\n        /* \"#utility.yul\":29726:29801   */\n      tag_295\n      jump\t// in\n    tag_597:\n        /* \"#utility.yul\":29826:29828   */\n      0x14\n        /* \"#utility.yul\":29821:29824   */\n      dup3\n        /* \"#utility.yul\":29817:29829   */\n      add\n        /* \"#utility.yul\":29810:29829   */\n      swap2\n      pop\n        /* \"#utility.yul\":29846:29994   */\n      tag_598\n        /* \"#utility.yul\":29990:29993   */\n      dup3\n        /* \"#utility.yul\":29846:29994   */\n      tag_298\n      jump\t// in\n    tag_598:\n        /* \"#utility.yul\":29839:29994   */\n      swap2\n      pop\n        /* \"#utility.yul\":30004:30079   */\n      tag_599\n        /* \"#utility.yul\":30075:30078   */\n      dup3\n        /* \"#utility.yul\":30066:30072   */\n      dup8\n        /* \"#utility.yul\":30004:30079   */\n      tag_295\n      jump\t// in\n    tag_599:\n        /* \"#utility.yul\":30104:30106   */\n      0x14\n        /* \"#utility.yul\":30099:30102   */\n      dup3\n        /* \"#utility.yul\":30095:30107   */\n      add\n        /* \"#utility.yul\":30088:30107   */\n      swap2\n      pop\n        /* \"#utility.yul\":30117:30192   */\n      tag_600\n        /* \"#utility.yul\":30188:30191   */\n      dup3\n        /* \"#utility.yul\":30179:30185   */\n      dup7\n        /* \"#utility.yul\":30117:30192   */\n      tag_300\n      jump\t// in\n    tag_600:\n        /* \"#utility.yul\":30217:30219   */\n      0x20\n        /* \"#utility.yul\":30212:30215   */\n      dup3\n        /* \"#utility.yul\":30208:30220   */\n      add\n        /* \"#utility.yul\":30201:30220   */\n      swap2\n      pop\n        /* \"#utility.yul\":30230:30305   */\n      tag_601\n        /* \"#utility.yul\":30301:30304   */\n      dup3\n        /* \"#utility.yul\":30292:30298   */\n      dup6\n        /* \"#utility.yul\":30230:30305   */\n      tag_300\n      jump\t// in\n    tag_601:\n        /* \"#utility.yul\":30330:30332   */\n      0x20\n        /* \"#utility.yul\":30325:30328   */\n      dup3\n        /* \"#utility.yul\":30321:30333   */\n      add\n        /* \"#utility.yul\":30314:30333   */\n      swap2\n      pop\n        /* \"#utility.yul\":30343:30418   */\n      tag_602\n        /* \"#utility.yul\":30414:30417   */\n      dup3\n        /* \"#utility.yul\":30405:30411   */\n      dup5\n        /* \"#utility.yul\":30343:30418   */\n      tag_300\n      jump\t// in\n    tag_602:\n        /* \"#utility.yul\":30443:30445   */\n      0x20\n        /* \"#utility.yul\":30438:30441   */\n      dup3\n        /* \"#utility.yul\":30434:30446   */\n      add\n        /* \"#utility.yul\":30427:30446   */\n      swap2\n      pop\n        /* \"#utility.yul\":30463:30466   */\n      dup2\n        /* \"#utility.yul\":30456:30466   */\n      swap1\n      pop\n        /* \"#utility.yul\":29386:30472   */\n      swap7\n      swap6\n      pop\n      pop\n      pop\n      pop\n      pop\n      pop\n      jump\t// out\n        /* \"#utility.yul\":30478:30707   */\n    tag_301:\n        /* \"#utility.yul\":30618:30652   */\n      0x54686973206164647265737320646f6573206e6f742065786973742061732061\n        /* \"#utility.yul\":30614:30615   */\n      0x00\n        /* \"#utility.yul\":30606:30612   */\n      dup3\n        /* \"#utility.yul\":30602:30616   */\n      add\n        /* \"#utility.yul\":30595:30653   */\n      mstore\n        /* \"#utility.yul\":30687:30699   */\n      0x2063616e64696461746500000000000000000000000000000000000000000000\n        /* \"#utility.yul\":30682:30684   */\n      0x20\n        /* \"#utility.yul\":30674:30680   */\n      dup3\n        /* \"#utility.yul\":30670:30685   */\n      add\n        /* \"#utility.yul\":30663:30700   */\n      mstore\n        /* \"#utility.yul\":30478:30707   */\n      pop\n      jump\t// out\n        /* \"#utility.yul\":30713:31079   */\n    tag_302:\n        /* \"#utility.yul\":30855:30858   */\n      0x00\n        /* \"#utility.yul\":30876:30943   */\n      tag_605\n        /* \"#utility.yul\":30940:30942   */\n      0x2a\n        /* \"#utility.yul\":30935:30938   */\n      dup4\n        /* \"#utility.yul\":30876:30943   */\n      tag_255\n      jump\t// in\n    tag_605:\n        /* \"#utility.yul\":30869:30943   */\n      swap2\n      pop\n        /* \"#utility.yul\":30952:31045   */\n      tag_606\n        /* \"#utility.yul\":31041:31044   */\n      dup3\n        /* \"#utility.yul\":30952:31045   */\n      tag_301\n      jump\t// in\n    tag_606:\n        /* \"#utility.yul\":31070:31072   */\n      0x40\n        /* \"#utility.yul\":31065:31068   */\n      dup3\n        /* \"#utility.yul\":31061:31073   */\n      add\n        /* \"#utility.yul\":31054:31073   */\n      swap1\n      pop\n        /* \"#utility.yul\":30713:31079   */\n      swap2\n      swap1\n      pop\n      jump\t// out\n        /* \"#utility.yul\":31085:31504   */\n    tag_155:\n        /* \"#utility.yul\":31251:31255   */\n      0x00\n        /* \"#utility.yul\":31289:31291   */\n      0x20\n        /* \"#utility.yul\":31278:31287   */\n      dup3\n        /* \"#utility.yul\":31274:31292   */\n      add\n        /* \"#utility.yul\":31266:31292   */\n      swap1\n      pop\n        /* \"#utility.yul\":31338:31347   */\n      dup2\n        /* \"#utility.yul\":31332:31336   */\n      dup2\n        /* \"#utility.yul\":31328:31348   */\n      sub\n        /* \"#utility.yul\":31324:31325   */\n      0x00\n        /* \"#utility.yul\":31313:31322   */\n      dup4\n        /* \"#utility.yul\":31309:31326   */\n      add\n        /* \"#utility.yul\":31302:31349   */\n      mstore\n        /* \"#utility.yul\":31366:31497   */\n      tag_608\n        /* \"#utility.yul\":31492:31496   */\n      dup2\n        /* \"#utility.yul\":31366:31497   */\n      tag_302\n      jump\t// in\n    tag_608:\n        /* \"#utility.yul\":31358:31497   */\n      swap1\n      pop\n        /* \"#utility.yul\":31085:31504   */\n      swap2\n      swap1\n      pop\n      jump\t// out\n        /* \"#utility.yul\":31510:31676   */\n    tag_303:\n        /* \"#utility.yul\":31650:31668   */\n      0x766f74696e672068617320656e64656400000000000000000000000000000000\n        /* \"#utility.yul\":31646:31647   */\n      0x00\n        /* \"#utility.yul\":31638:31644   */\n      dup3\n        /* \"#utility.yul\":31634:31648   */\n      add\n        /* \"#utility.yul\":31627:31669   */\n      mstore\n        /* \"#utility.yul\":31510:31676   */\n      pop\n      jump\t// out\n        /* \"#utility.yul\":31682:32048   */\n    tag_304:\n        /* \"#utility.yul\":31824:31827   */\n      0x00\n        /* \"#utility.yul\":31845:31912   */\n      tag_611\n        /* \"#utility.yul\":31909:31911   */\n      0x10\n        /* \"#utility.yul\":31904:31907   */\n      dup4\n        /* \"#utility.yul\":31845:31912   */\n      tag_255\n      jump\t// in\n    tag_611:\n        /* \"#utility.yul\":31838:31912   */\n      swap2\n      pop\n        /* \"#utility.yul\":31921:32014   */\n      tag_612\n        /* \"#utility.yul\":32010:32013   */\n      dup3\n        /* \"#utility.yul\":31921:32014   */\n      tag_303\n      jump\t// in\n    tag_612:\n        /* \"#utility.yul\":32039:32041   */\n      0x20\n        /* \"#utility.yul\":32034:32037   */\n      dup3\n        /* \"#utility.yul\":32030:32042   */\n      add\n        /* \"#utility.yul\":32023:32042   */\n      swap1\n      pop\n        /* \"#utility.yul\":31682:32048   */\n      swap2\n      swap1\n      pop\n      jump\t// out\n        /* \"#utility.yul\":32054:32473   */\n    tag_159:\n        /* \"#utility.yul\":32220:32224   */\n      0x00\n        /* \"#utility.yul\":32258:32260   */\n      0x20\n        /* \"#utility.yul\":32247:32256   */\n      dup3\n        /* \"#utility.yul\":32243:32261   */\n      add\n        /* \"#utility.yul\":32235:32261   */\n      swap1\n      pop\n        /* \"#utility.yul\":32307:32316   */\n      dup2\n        /* \"#utility.yul\":32301:32305   */\n      dup2\n        /* \"#utility.yul\":32297:32317   */\n      sub\n        /* \"#utility.yul\":32293:32294   */\n      0x00\n        /* \"#utility.yul\":32282:32291   */\n      dup4\n        /* \"#utility.yul\":32278:32295   */\n      add\n        /* \"#utility.yul\":32271:32318   */\n      mstore\n        /* \"#utility.yul\":32335:32466   */\n      tag_614\n        /* \"#utility.yul\":32461:32465   */\n      dup2\n        /* \"#utility.yul\":32335:32466   */\n      tag_304\n      jump\t// in\n    tag_614:\n        /* \"#utility.yul\":32327:32466   */\n      swap1\n      pop\n        /* \"#utility.yul\":32054:32473   */\n      swap2\n      swap1\n      pop\n      jump\t// out\n        /* \"#utility.yul\":32479:32646   */\n    tag_305:\n        /* \"#utility.yul\":32619:32638   */\n      0x596f7520616c726561647920766f746564000000000000000000000000000000\n        /* \"#utility.yul\":32615:32616   */\n      0x00\n        /* \"#utility.yul\":32607:32613   */\n      dup3\n        /* \"#utility.yul\":32603:32617   */\n      add\n        /* \"#utility.yul\":32596:32639   */\n      mstore\n        /* \"#utility.yul\":32479:32646   */\n      pop\n      jump\t// out\n        /* \"#utility.yul\":32652:33018   */\n    tag_306:\n        /* \"#utility.yul\":32794:32797   */\n      0x00\n        /* \"#utility.yul\":32815:32882   */\n      tag_617\n        /* \"#utility.yul\":32879:32881   */\n      0x11\n        /* \"#utility.yul\":32874:32877   */\n      dup4\n        /* \"#utility.yul\":32815:32882   */\n      tag_255\n      jump\t// in\n    tag_617:\n        /* \"#utility.yul\":32808:32882   */\n      swap2\n      pop\n        /* \"#utility.yul\":32891:32984   */\n      tag_618\n        /* \"#utility.yul\":32980:32983   */\n      dup3\n        /* \"#utility.yul\":32891:32984   */\n      tag_305\n      jump\t// in\n    tag_618:\n        /* \"#utility.yul\":33009:33011   */\n      0x20\n        /* \"#utility.yul\":33004:33007   */\n      dup3\n        /* \"#utility.yul\":33000:33012   */\n      add\n        /* \"#utility.yul\":32993:33012   */\n      swap1\n      pop\n        /* \"#utility.yul\":32652:33018   */\n      swap2\n      swap1\n      pop\n      jump\t// out\n        /* \"#utility.yul\":33024:33443   */\n    tag_169:\n        /* \"#utility.yul\":33190:33194   */\n      0x00\n        /* \"#utility.yul\":33228:33230   */\n      0x20\n        /* \"#utility.yul\":33217:33226   */\n      dup3\n        /* \"#utility.yul\":33213:33231   */\n      add\n        /* \"#utility.yul\":33205:33231   */\n      swap1\n      pop\n        /* \"#utility.yul\":33277:33286   */\n      dup2\n        /* \"#utility.yul\":33271:33275   */\n      dup2\n        /* \"#utility.yul\":33267:33287   */\n      sub\n        /* \"#utility.yul\":33263:33264   */\n      0x00\n        /* \"#utility.yul\":33252:33261   */\n      dup4\n        /* \"#utility.yul\":33248:33265   */\n      add\n        /* \"#utility.yul\":33241:33288   */\n      mstore\n        /* \"#utility.yul\":33305:33436   */\n      tag_620\n        /* \"#utility.yul\":33431:33435   */\n      dup2\n        /* \"#utility.yul\":33305:33436   */\n      tag_306\n      jump\t// in\n    tag_620:\n        /* \"#utility.yul\":33297:33436   */\n      swap1\n      pop\n        /* \"#utility.yul\":33024:33443   */\n      swap2\n      swap1\n      pop\n      jump\t// out\n        /* \"#utility.yul\":33449:33769   */\n    tag_173:\n        /* \"#utility.yul\":33564:33568   */\n      0x00\n        /* \"#utility.yul\":33602:33604   */\n      0x40\n        /* \"#utility.yul\":33591:33600   */\n      dup3\n        /* \"#utility.yul\":33587:33605   */\n      add\n        /* \"#utility.yul\":33579:33605   */\n      swap1\n      pop\n        /* \"#utility.yul\":33615:33686   */\n      tag_622\n        /* \"#utility.yul\":33683:33684   */\n      0x00\n        /* \"#utility.yul\":33672:33681   */\n      dup4\n        /* \"#utility.yul\":33668:33685   */\n      add\n        /* \"#utility.yul\":33659:33665   */\n      dup6\n        /* \"#utility.yul\":33615:33686   */\n      tag_257\n      jump\t// in\n    tag_622:\n        /* \"#utility.yul\":33696:33762   */\n      tag_623\n        /* \"#utility.yul\":33758:33760   */\n      0x20\n        /* \"#utility.yul\":33747:33756   */\n      dup4\n        /* \"#utility.yul\":33743:33761   */\n      add\n        /* \"#utility.yul\":33734:33740   */\n      dup5\n        /* \"#utility.yul\":33696:33762   */\n      tag_259\n      jump\t// in\n    tag_623:\n        /* \"#utility.yul\":33449:33769   */\n      swap4\n      swap3\n      pop\n      pop\n      pop\n      jump\t// out\n        /* \"#utility.yul\":33775:33941   */\n    tag_307:\n        /* \"#utility.yul\":33915:33933   */\n      0x6e6f74207468652063686169726d616e00000000000000000000000000000000\n        /* \"#utility.yul\":33911:33912   */\n      0x00\n        /* \"#utility.yul\":33903:33909   */\n      dup3\n        /* \"#utility.yul\":33899:33913   */\n      add\n        /* \"#utility.yul\":33892:33934   */\n      mstore\n        /* \"#utility.yul\":33775:33941   */\n      pop\n      jump\t// out\n        /* \"#utility.yul\":33947:34313   */\n    tag_308:\n        /* \"#utility.yul\":34089:34092   */\n      0x00\n        /* \"#utility.yul\":34110:34177   */\n      tag_626\n        /* \"#utility.yul\":34174:34176   */\n      0x10\n        /* \"#utility.yul\":34169:34172   */\n      dup4\n        /* \"#utility.yul\":34110:34177   */\n      tag_255\n      jump\t// in\n    tag_626:\n        /* \"#utility.yul\":34103:34177   */\n      swap2\n      pop\n        /* \"#utility.yul\":34186:34279   */\n      tag_627\n        /* \"#utility.yul\":34275:34278   */\n      dup3\n        /* \"#utility.yul\":34186:34279   */\n      tag_307\n      jump\t// in\n    tag_627:\n        /* \"#utility.yul\":34304:34306   */\n      0x20\n        /* \"#utility.yul\":34299:34302   */\n      dup3\n        /* \"#utility.yul\":34295:34307   */\n      add\n        /* \"#utility.yul\":34288:34307   */\n      swap1\n      pop\n        /* \"#utility.yul\":33947:34313   */\n      swap2\n      swap1\n      pop\n      jump\t// out\n        /* \"#utility.yul\":34319:34738   */\n    tag_177:\n        /* \"#utility.yul\":34485:34489   */\n      0x00\n        /* \"#utility.yul\":34523:34525   */\n      0x20\n        /* \"#utility.yul\":34512:34521   */\n      dup3\n        /* \"#utility.yul\":34508:34526   */\n      add\n        /* \"#utility.yul\":34500:34526   */\n      swap1\n      pop\n        /* \"#utility.yul\":34572:34581   */\n      dup2\n        /* \"#utility.yul\":34566:34570   */\n      dup2\n        /* \"#utility.yul\":34562:34582   */\n      sub\n        /* \"#utility.yul\":34558:34559   */\n      0x00\n        /* \"#utility.yul\":34547:34556   */\n      dup4\n        /* \"#utility.yul\":34543:34560   */\n      add\n        /* \"#utility.yul\":34536:34583   */\n      mstore\n        /* \"#utility.yul\":34600:34731   */\n      tag_629\n        /* \"#utility.yul\":34726:34730   */\n      dup2\n        /* \"#utility.yul\":34600:34731   */\n      tag_308\n      jump\t// in\n    tag_629:\n        /* \"#utility.yul\":34592:34731   */\n      swap1\n      pop\n        /* \"#utility.yul\":34319:34738   */\n      swap2\n      swap1\n      pop\n      jump\t// out\n        /* \"#utility.yul\":34744:35121   */\n    tag_309:\n        /* \"#utility.yul\":34850:34853   */\n      0x00\n        /* \"#utility.yul\":34878:34917   */\n      tag_631\n        /* \"#utility.yul\":34911:34916   */\n      dup3\n        /* \"#utility.yul\":34878:34917   */\n      tag_233\n      jump\t// in\n    tag_631:\n        /* \"#utility.yul\":34933:35022   */\n      tag_632\n        /* \"#utility.yul\":35015:35021   */\n      dup2\n        /* \"#utility.yul\":35010:35013   */\n      dup6\n        /* \"#utility.yul\":34933:35022   */\n      tag_296\n      jump\t// in\n    tag_632:\n        /* \"#utility.yul\":34926:35022   */\n      swap4\n      pop\n        /* \"#utility.yul\":35031:35083   */\n      tag_633\n        /* \"#utility.yul\":35076:35082   */\n      dup2\n        /* \"#utility.yul\":35071:35074   */\n      dup6\n        /* \"#utility.yul\":35064:35068   */\n      0x20\n        /* \"#utility.yul\":35057:35062   */\n      dup7\n        /* \"#utility.yul\":35053:35069   */\n      add\n        /* \"#utility.yul\":35031:35083   */\n      tag_235\n      jump\t// in\n    tag_633:\n        /* \"#utility.yul\":35108:35114   */\n      dup1\n        /* \"#utility.yul\":35103:35106   */\n      dup5\n        /* \"#utility.yul\":35099:35115   */\n      add\n        /* \"#utility.yul\":35092:35115   */\n      swap2\n      pop\n        /* \"#utility.yul\":34854:35121   */\n      pop\n        /* \"#utility.yul\":34744:35121   */\n      swap3\n      swap2\n      pop\n      pop\n      jump\t// out\n        /* \"#utility.yul\":35127:35402   */\n    tag_188:\n        /* \"#utility.yul\":35259:35262   */\n      0x00\n        /* \"#utility.yul\":35281:35376   */\n      tag_635\n        /* \"#utility.yul\":35372:35375   */\n      dup3\n        /* \"#utility.yul\":35363:35369   */\n      dup5\n        /* \"#utility.yul\":35281:35376   */\n      tag_309\n      jump\t// in\n    tag_635:\n        /* \"#utility.yul\":35274:35376   */\n      swap2\n      pop\n        /* \"#utility.yul\":35393:35396   */\n      dup2\n        /* \"#utility.yul\":35386:35396   */\n      swap1\n      pop\n        /* \"#utility.yul\":35127:35402   */\n      swap3\n      swap2\n      pop\n      pop\n      jump\t// out\n        /* \"#utility.yul\":35408:35494   */\n    tag_310:\n        /* \"#utility.yul\":35443:35450   */\n      0x00\n        /* \"#utility.yul\":35483:35487   */\n      0xff\n        /* \"#utility.yul\":35476:35481   */\n      dup3\n        /* \"#utility.yul\":35472:35488   */\n      and\n        /* \"#utility.yul\":35461:35488   */\n      swap1\n      pop\n        /* \"#utility.yul\":35408:35494   */\n      swap2\n      swap1\n      pop\n      jump\t// out\n        /* \"#utility.yul\":35500:35737   */\n    tag_198:\n        /* \"#utility.yul\":35538:35541   */\n      0x00\n        /* \"#utility.yul\":35557:35575   */\n      tag_638\n        /* \"#utility.yul\":35573:35574   */\n      dup3\n        /* \"#utility.yul\":35557:35575   */\n      tag_310\n      jump\t// in\n    tag_638:\n        /* \"#utility.yul\":35552:35575   */\n      swap2\n      pop\n        /* \"#utility.yul\":35589:35607   */\n      tag_639\n        /* \"#utility.yul\":35605:35606   */\n      dup4\n        /* \"#utility.yul\":35589:35607   */\n      tag_310\n      jump\t// in\n    tag_639:\n        /* \"#utility.yul\":35584:35607   */\n      swap3\n      pop\n        /* \"#utility.yul\":35679:35680   */\n      dup3\n        /* \"#utility.yul\":35673:35677   */\n      0xff\n        /* \"#utility.yul\":35669:35681   */\n      sub\n        /* \"#utility.yul\":35666:35667   */\n      dup3\n        /* \"#utility.yul\":35663:35682   */\n      gt\n        /* \"#utility.yul\":35660:35705   */\n      iszero\n      tag_640\n      jumpi\n        /* \"#utility.yul\":35685:35703   */\n      tag_641\n      tag_288\n      jump\t// in\n    tag_641:\n        /* \"#utility.yul\":35660:35705   */\n    tag_640:\n        /* \"#utility.yul\":35729:35730   */\n      dup3\n        /* \"#utility.yul\":35726:35727   */\n      dup3\n        /* \"#utility.yul\":35722:35731   */\n      add\n        /* \"#utility.yul\":35715:35731   */\n      swap1\n      pop\n        /* \"#utility.yul\":35500:35737   */\n      swap3\n      swap2\n      pop\n      pop\n      jump\t// out\n        /* \"#utility.yul\":35743:35957   */\n    tag_311:\n        /* \"#utility.yul\":35883:35949   */\n      0x19457468657265756d205369676e6564204d6573736167653a0a333200000000\n        /* \"#utility.yul\":35879:35880   */\n      0x00\n        /* \"#utility.yul\":35871:35877   */\n      dup3\n        /* \"#utility.yul\":35867:35881   */\n      add\n        /* \"#utility.yul\":35860:35950   */\n      mstore\n        /* \"#utility.yul\":35743:35957   */\n      pop\n      jump\t// out\n        /* \"#utility.yul\":35963:36365   */\n    tag_312:\n        /* \"#utility.yul\":36123:36126   */\n      0x00\n        /* \"#utility.yul\":36144:36229   */\n      tag_644\n        /* \"#utility.yul\":36226:36228   */\n      0x1c\n        /* \"#utility.yul\":36221:36224   */\n      dup4\n        /* \"#utility.yul\":36144:36229   */\n      tag_296\n      jump\t// in\n    tag_644:\n        /* \"#utility.yul\":36137:36229   */\n      swap2\n      pop\n        /* \"#utility.yul\":36238:36331   */\n      tag_645\n        /* \"#utility.yul\":36327:36330   */\n      dup3\n        /* \"#utility.yul\":36238:36331   */\n      tag_311\n      jump\t// in\n    tag_645:\n        /* \"#utility.yul\":36356:36358   */\n      0x1c\n        /* \"#utility.yul\":36351:36354   */\n      dup3\n        /* \"#utility.yul\":36347:36359   */\n      add\n        /* \"#utility.yul\":36340:36359   */\n      swap1\n      pop\n        /* \"#utility.yul\":35963:36365   */\n      swap2\n      swap1\n      pop\n      jump\t// out\n        /* \"#utility.yul\":36371:36450   */\n    tag_313:\n        /* \"#utility.yul\":36410:36417   */\n      0x00\n        /* \"#utility.yul\":36439:36444   */\n      dup2\n        /* \"#utility.yul\":36428:36444   */\n      swap1\n      pop\n        /* \"#utility.yul\":36371:36450   */\n      swap2\n      swap1\n      pop\n      jump\t// out\n        /* \"#utility.yul\":36456:36613   */\n    tag_314:\n        /* \"#utility.yul\":36561:36606   */\n      tag_648\n        /* \"#utility.yul\":36581:36605   */\n      tag_649\n        /* \"#utility.yul\":36599:36604   */\n      dup3\n        /* \"#utility.yul\":36581:36605   */\n      tag_269\n      jump\t// in\n    tag_649:\n        /* \"#utility.yul\":36561:36606   */\n      tag_313\n      jump\t// in\n    tag_648:\n        /* \"#utility.yul\":36556:36559   */\n      dup3\n        /* \"#utility.yul\":36549:36607   */\n      mstore\n        /* \"#utility.yul\":36456:36613   */\n      pop\n      pop\n      jump\t// out\n        /* \"#utility.yul\":36619:37141   */\n    tag_203:\n        /* \"#utility.yul\":36832:36835   */\n      0x00\n        /* \"#utility.yul\":36854:37002   */\n      tag_651\n        /* \"#utility.yul\":36998:37001   */\n      dup3\n        /* \"#utility.yul\":36854:37002   */\n      tag_312\n      jump\t// in\n    tag_651:\n        /* \"#utility.yul\":36847:37002   */\n      swap2\n      pop\n        /* \"#utility.yul\":37012:37087   */\n      tag_652\n        /* \"#utility.yul\":37083:37086   */\n      dup3\n        /* \"#utility.yul\":37074:37080   */\n      dup5\n        /* \"#utility.yul\":37012:37087   */\n      tag_314\n      jump\t// in\n    tag_652:\n        /* \"#utility.yul\":37112:37114   */\n      0x20\n        /* \"#utility.yul\":37107:37110   */\n      dup3\n        /* \"#utility.yul\":37103:37115   */\n      add\n        /* \"#utility.yul\":37096:37115   */\n      swap2\n      pop\n        /* \"#utility.yul\":37132:37135   */\n      dup2\n        /* \"#utility.yul\":37125:37135   */\n      swap1\n      pop\n        /* \"#utility.yul\":36619:37141   */\n      swap3\n      swap2\n      pop\n      pop\n      jump\t// out\n        /* \"#utility.yul\":37147:37259   */\n    tag_315:\n        /* \"#utility.yul\":37230:37252   */\n      tag_654\n        /* \"#utility.yul\":37246:37251   */\n      dup2\n        /* \"#utility.yul\":37230:37252   */\n      tag_310\n      jump\t// in\n    tag_654:\n        /* \"#utility.yul\":37225:37228   */\n      dup3\n        /* \"#utility.yul\":37218:37253   */\n      mstore\n        /* \"#utility.yul\":37147:37259   */\n      pop\n      pop\n      jump\t// out\n        /* \"#utility.yul\":37265:37810   */\n    tag_205:\n        /* \"#utility.yul\":37438:37442   */\n      0x00\n        /* \"#utility.yul\":37476:37479   */\n      0x80\n        /* \"#utility.yul\":37465:37474   */\n      dup3\n        /* \"#utility.yul\":37461:37480   */\n      add\n        /* \"#utility.yul\":37453:37480   */\n      swap1\n      pop\n        /* \"#utility.yul\":37490:37561   */\n      tag_656\n        /* \"#utility.yul\":37558:37559   */\n      0x00\n        /* \"#utility.yul\":37547:37556   */\n      dup4\n        /* \"#utility.yul\":37543:37560   */\n      add\n        /* \"#utility.yul\":37534:37540   */\n      dup8\n        /* \"#utility.yul\":37490:37561   */\n      tag_270\n      jump\t// in\n    tag_656:\n        /* \"#utility.yul\":37571:37639   */\n      tag_657\n        /* \"#utility.yul\":37635:37637   */\n      0x20\n        /* \"#utility.yul\":37624:37633   */\n      dup4\n        /* \"#utility.yul\":37620:37638   */\n      add\n        /* \"#utility.yul\":37611:37617   */\n      dup7\n        /* \"#utility.yul\":37571:37639   */\n      tag_315\n      jump\t// in\n    tag_657:\n        /* \"#utility.yul\":37649:37721   */\n      tag_658\n        /* \"#utility.yul\":37717:37719   */\n      0x40\n        /* \"#utility.yul\":37706:37715   */\n      dup4\n        /* \"#utility.yul\":37702:37720   */\n      add\n        /* \"#utility.yul\":37693:37699   */\n      dup6\n        /* \"#utility.yul\":37649:37721   */\n      tag_270\n      jump\t// in\n    tag_658:\n        /* \"#utility.yul\":37731:37803   */\n      tag_659\n        /* \"#utility.yul\":37799:37801   */\n      0x60\n        /* \"#utility.yul\":37788:37797   */\n      dup4\n        /* \"#utility.yul\":37784:37802   */\n      add\n        /* \"#utility.yul\":37775:37781   */\n      dup5\n        /* \"#utility.yul\":37731:37803   */\n      tag_270\n      jump\t// in\n    tag_659:\n        /* \"#utility.yul\":37265:37810   */\n      swap6\n      swap5\n      pop\n      pop\n      pop\n      pop\n      pop\n      jump\t// out\n\n    auxdata: 0xa26469706673582212209e22e55637396dbca01aff47ee6e55dacd9f66a98f4c80dde58b7022e3b55dee64736f6c634300080a0033\n}\n",
				"bytecode": {
					"linkReferences": {},
					"object": "6080604052600160005534801561001557600080fd5b506129c9806100256000396000f3fe608060405234801561001057600080fd5b50600436106100ea5760003560e01c80638ccb59e81161008c578063c10d6cec11610066578063c10d6cec146102af578063c57003cc146102cb578063e615f104146102e7578063f762f4c01461031b576100ea565b80638ccb59e81461021d578063ae928e3e1461024f578063bfe2e25d1461027f576100ea565b806366c5343b116100c857806366c5343b1461015957806367d407df146101895780638321f397146101b95780638ac3c3c2146101ed576100ea565b8063049d1c8b146100ef57806321da751c1461010b578063278e2c9014610129575b600080fd5b610109600480360381019061010491906117b9565b610337565b005b610113610605565b6040516101209190611adc565b60405180910390f35b610143600480360381019061013e9190611afe565b61060a565b6040516101509190611bbb565b60405180910390f35b610173600480360381019061016e9190611afe565b610814565b6040516101809190611bec565b60405180910390f35b6101a3600480360381019061019e9190611c07565b61084f565b6040516101b09190611bec565b60405180910390f35b6101d360048036038101906101ce9190611afe565b610867565b6040516101e4959493929190611cab565b60405180910390f35b61020760048036038101906102029190611afe565b610982565b6040516102149190611d74565b60405180910390f35b61023760048036038101906102329190611afe565b610a2c565b60405161024693929190611e54565b60405180910390f35b61026960048036038101906102649190611afe565b610c77565b6040516102769190611bec565b60405180910390f35b61029960048036038101906102949190611e92565b610c9b565b6040516102a69190611f12565b60405180910390f35b6102c960048036038101906102c49190612062565b610cd6565b005b6102e560048036038101906102e09190611afe565b610fda565b005b61030160048036038101906102fc9190611afe565b6110f5565b604051610312959493929190611cab565b60405180910390f35b610335600480360381019061033091906121b2565b611200565b005b6000600360008381526020019081526020016000209050600073ffffffffffffffffffffffffffffffffffffffff168160010160009054906101000a900473ffffffffffffffffffffffffffffffffffffffff1673ffffffffffffffffffffffffffffffffffffffff1614156103e2576040517f08c379a00000000000000000000000000000000000000000000000000000000081526004016103d99061225a565b60405180910390fd5b3373ffffffffffffffffffffffffffffffffffffffff168160010160009054906101000a900473ffffffffffffffffffffffffffffffffffffffff1673ffffffffffffffffffffffffffffffffffffffff16146104425761044161227a565b5b8060030160009054906101000a900463ffffffff1663ffffffff168160030160049054906101000a900463ffffffff1663ffffffff16106104b8576040517f08c379a00000000000000000000000000000000000000000000000000000000081526004016104af9061231b565b60405180910390fd5b60016005600084815260200190815260200160002060008573ffffffffffffffffffffffffffffffffffffffff1673ffffffffffffffffffffffffffffffffffffffff16815260200190815260200160002060006101000a81548160ff02191690831515021790555080600201839080600181540180825580915050600190039060005260206000200160009091909190916101000a81548173ffffffffffffffffffffffffffffffffffffffff021916908373ffffffffffffffffffffffffffffffffffffffff16021790555080600301600481819054906101000a900463ffffffff16809291906105aa9061236a565b91906101000a81548163ffffffff021916908363ffffffff160217905550507fc19c59aa93348e8fc54764bc642eca975e2639f44cc683ef8f027e1529cbda32836040516105f89190612397565b60405180910390a1505050565b606090565b610612611614565b600360008381526020019081526020016000206040518060c0016040529081600082018054610640906123e1565b80601f016020809104026020016040519081016040528092919081815260200182805461066c906123e1565b80156106b95780601f1061068e576101008083540402835291602001916106b9565b820191906000526020600020905b81548152906001019060200180831161069c57829003601f168201915b505050505081526020016001820160009054906101000a900473ffffffffffffffffffffffffffffffffffffffff1673ffffffffffffffffffffffffffffffffffffffff1673ffffffffffffffffffffffffffffffffffffffff1681526020016002820180548060200260200160405190810160405280929190818152602001828054801561079d57602002820191906000526020600020905b8160009054906101000a900473ffffffffffffffffffffffffffffffffffffffff1673ffffffffffffffffffffffffffffffffffffffff1681526020019060010190808311610753575b505050505081526020016003820160009054906101000a900463ffffffff1663ffffffff1663ffffffff1681526020016003820160049054906101000a900463ffffffff1663ffffffff1663ffffffff1681526020016003820160089054906101000a900460ff1615151515815250509050919050565b6000806003600084815260200190815260200160002090508060030160049054906101000a900463ffffffff1663ffffffff16915050919050565b60046020528060005260406000206000915090505481565b6002818154811061087757600080fd5b906000526020600020906004020160009150905080600001805461089a906123e1565b80601f01602080910402602001604051908101604052809291908181526020018280546108c6906123e1565b80156109135780601f106108e857610100808354040283529160200191610913565b820191906000526020600020905b8154815290600101906020018083116108f657829003601f168201915b5050505050908060010160009054906101000a900473ffffffffffffffffffffffffffffffffffffffff16908060030160009054906101000a900463ffffffff16908060030160049054906101000a900463ffffffff16908060030160089054906101000a900460ff16905085565b6060600060036000848152602001908152602001600020905080600201805480602002602001604051908101604052809291908181526020018280548015610a1f57602002820191906000526020600020905b8160009054906101000a900473ffffffffffffffffffffffffffffffffffffffff1673ffffffffffffffffffffffffffffffffffffffff16815260200190600101908083116109d5575b5050505050915050919050565b60606000806000600360008681526020019081526020016000209050600073ffffffffffffffffffffffffffffffffffffffff168160010160009054906101000a900473ffffffffffffffffffffffffffffffffffffffff1673ffffffffffffffffffffffffffffffffffffffff161415610adc576040517f08c379a0000000000000000000000000000000000000000000000000000000008152600401610ad39061245f565b60405180910390fd5b806002018054905067ffffffffffffffff811115610afd57610afc611f37565b5b604051908082528060200260200182016040528015610b2b5781602001602082028036833780820191505090505b50935060008060005b83600201805490508111610c63576000610b4e898361133e565b905083811115610b9f57809350846002018281548110610b7157610b7061247f565b5b9060005260206000200160009054906101000a900473ffffffffffffffffffffffffffffffffffffffff1692505b600660008a81526020019081526020016000206000866002018481548110610bca57610bc961247f565b5b9060005260206000200160009054906101000a900473ffffffffffffffffffffffffffffffffffffffff1673ffffffffffffffffffffffffffffffffffffffff1673ffffffffffffffffffffffffffffffffffffffff16815260200190815260200160002054888381518110610c4357610c4261247f565b5b602002602001018181525050508080610c5b906124ae565b915050610b34565b508581839550955095505050509193909250565b60018181548110610c8757600080fd5b906000526020600020016000915090505481565b60003085858585604051602001610cb69594939291906125b7565b604051602081830303815290604052805190602001209050949350505050565b8383600115156005600083815260200190815260200160002060008473ffffffffffffffffffffffffffffffffffffffff1673ffffffffffffffffffffffffffffffffffffffff16815260200190815260200160002060009054906101000a900460ff16151514610d7c576040517f08c379a0000000000000000000000000000000000000000000000000000000008152600401610d7390612693565b60405180910390fd5b846000600360008381526020019081526020016000209050600115158160030160089054906101000a900460ff16151514610dec576040517f08c379a0000000000000000000000000000000000000000000000000000000008152600401610de3906126ff565b60405180910390fd5b6000610dfa89898942610c9b565b90506000610e0882886113f0565b9050600073ffffffffffffffffffffffffffffffffffffffff168173ffffffffffffffffffffffffffffffffffffffff161415610e4457600080fd5b600460008273ffffffffffffffffffffffffffffffffffffffff1673ffffffffffffffffffffffffffffffffffffffff168152602001908152602001600020548814610e8f57600080fd5b600460008273ffffffffffffffffffffffffffffffffffffffff1673ffffffffffffffffffffffffffffffffffffffff1681526020019081526020016000206000815480929190610edf906124ae565b919050555060001515600760008b815260200190815260200160002060008373ffffffffffffffffffffffffffffffffffffffff1673ffffffffffffffffffffffffffffffffffffffff16815260200190815260200160002060009054906101000a900460ff16151514610f88576040517f08c379a0000000000000000000000000000000000000000000000000000000008152600401610f7f9061276b565b60405180910390fd5b610f938a8a836114e9565b507ff3f16a15f074b71c5138107dfc7c63b80524d5411cb967caa97d8d9f12b2fd6b8a6001604051610fc692919061278b565b60405180910390a150505050505050505050565b60006003600083815260200190815260200160002090503373ffffffffffffffffffffffffffffffffffffffff168160010160009054906101000a900473ffffffffffffffffffffffffffffffffffffffff1673ffffffffffffffffffffffffffffffffffffffff1614611083576040517f08c379a000000000000000000000000000000000000000000000000000000000815260040161107a90612800565b60405180910390fd5b8060030160089054906101000a900460ff16158160030160086101000a81548160ff0219169083151502179055508060030160089054906101000a900460ff1615157f7b224db641892626dca6975b376f464e9ac52ccfa180436175170c009b94dcd760405160405180910390a25050565b6003602052806000526040600020600091509050806000018054611118906123e1565b80601f0160208091040260200160405190810160405280929190818152602001828054611144906123e1565b80156111915780601f1061116657610100808354040283529160200191611191565b820191906000526020600020905b81548152906001019060200180831161117457829003601f168201915b5050505050908060010160009054906101000a900473ffffffffffffffffffffffffffffffffffffffff16908060030160009054906101000a900463ffffffff16908060030160049054906101000a900463ffffffff16908060030160089054906101000a900460ff16905085565b6000600360008054815260200190815260200160002090508281600001908051906020019061123092919061166e565b50338160010160006101000a81548173ffffffffffffffffffffffffffffffffffffffff021916908373ffffffffffffffffffffffffffffffffffffffff160217905550818160030160006101000a81548163ffffffff021916908363ffffffff160217905550600160005490806001815401808255809150506001900390600052602060002001600090919091909150556000548160030160009054906101000a900463ffffffff1663ffffffff16846040516112ee9190612851565b60405180910390207fd4d0d9a1ef7f13069f1bade752fda515713d747eb14a8c30ae461c52916bf1c760405160405180910390a4600080815480929190611334906124ae565b9190505550505050565b6000806003600085815260200190815260200160002090506006600085815260200190815260200160002060008260020185815481106113815761138061247f565b5b9060005260206000200160009054906101000a900473ffffffffffffffffffffffffffffffffffffffff1673ffffffffffffffffffffffffffffffffffffffff1673ffffffffffffffffffffffffffffffffffffffff1681526020019081526020016000205491505092915050565b600080600080604185511461140b57600093505050506114e3565b6020850151925060408501519150606085015160001a9050601b8160ff16101561143f57601b8161143c9190612875565b90505b601b8160ff16141580156114575750601c8160ff1614155b1561146857600093505050506114e3565b60018660405160200161147b9190612919565b60405160208183030381529060405280519060200120828585604051600081526020016040526040516114b1949392919061294e565b6020604051602081039080840390855afa1580156114d3573d6000803e3d6000fd5b5050506020604051035193505050505b92915050565b600060016007600085815260200190815260200160002060008473ffffffffffffffffffffffffffffffffffffffff1673ffffffffffffffffffffffffffffffffffffffff16815260200190815260200160002060006101000a81548160ff0219169083151502179055506006600084815260200190815260200160002060008573ffffffffffffffffffffffffffffffffffffffff1673ffffffffffffffffffffffffffffffffffffffff16815260200190815260200160002060008154809291906115b5906124ae565b91905055506006600084815260200190815260200160002060008573ffffffffffffffffffffffffffffffffffffffff1673ffffffffffffffffffffffffffffffffffffffff1681526020019081526020016000205490509392505050565b6040518060c0016040528060608152602001600073ffffffffffffffffffffffffffffffffffffffff16815260200160608152602001600063ffffffff168152602001600063ffffffff1681526020016000151581525090565b82805461167a906123e1565b90600052602060002090601f01602090048101928261169c57600085556116e3565b82601f106116b557805160ff19168380011785556116e3565b828001600101855582156116e3579182015b828111156116e25782518255916020019190600101906116c7565b5b5090506116f091906116f4565b5090565b5b8082111561170d5760008160009055506001016116f5565b5090565b6000604051905090565b600080fd5b600080fd5b600073ffffffffffffffffffffffffffffffffffffffff82169050919050565b600061175082611725565b9050919050565b61176081611745565b811461176b57600080fd5b50565b60008135905061177d81611757565b92915050565b6000819050919050565b61179681611783565b81146117a157600080fd5b50565b6000813590506117b38161178d565b92915050565b600080604083850312156117d0576117cf61171b565b5b60006117de8582860161176e565b92505060206117ef858286016117a4565b9150509250929050565b600081519050919050565b600082825260208201905092915050565b6000819050602082019050919050565b600081519050919050565b600082825260208201905092915050565b60005b8381101561185f578082015181840152602081019050611844565b8381111561186e576000848401525b50505050565b6000601f19601f8301169050919050565b600061189082611825565b61189a8185611830565b93506118aa818560208601611841565b6118b381611874565b840191505092915050565b6118c781611745565b82525050565b600081519050919050565b600082825260208201905092915050565b6000819050602082019050919050565b600061190583836118be565b60208301905092915050565b6000602082019050919050565b6000611929826118cd565b61193381856118d8565b935061193e836118e9565b8060005b8381101561196f57815161195688826118f9565b975061196183611911565b925050600181019050611942565b5085935050505092915050565b600063ffffffff82169050919050565b6119958161197c565b82525050565b60008115159050919050565b6119b08161199b565b82525050565b600060c08301600083015184820360008601526119d38282611885565b91505060208301516119e860208601826118be565b5060408301518482036040860152611a00828261191e565b9150506060830151611a15606086018261198c565b506080830151611a28608086018261198c565b5060a0830151611a3b60a08601826119a7565b508091505092915050565b6000611a5283836119b6565b905092915050565b6000602082019050919050565b6000611a72826117f9565b611a7c8185611804565b935083602082028501611a8e85611815565b8060005b85811015611aca5784840389528151611aab8582611a46565b9450611ab683611a5a565b925060208a01995050600181019050611a92565b50829750879550505050505092915050565b60006020820190508181036000830152611af68184611a67565b905092915050565b600060208284031215611b1457611b1361171b565b5b6000611b22848285016117a4565b91505092915050565b600060c0830160008301518482036000860152611b488282611885565b9150506020830151611b5d60208601826118be565b5060408301518482036040860152611b75828261191e565b9150506060830151611b8a606086018261198c565b506080830151611b9d608086018261198c565b5060a0830151611bb060a08601826119a7565b508091505092915050565b60006020820190508181036000830152611bd58184611b2b565b905092915050565b611be681611783565b82525050565b6000602082019050611c016000830184611bdd565b92915050565b600060208284031215611c1d57611c1c61171b565b5b6000611c2b8482850161176e565b91505092915050565b600082825260208201905092915050565b6000611c5082611825565b611c5a8185611c34565b9350611c6a818560208601611841565b611c7381611874565b840191505092915050565b611c8781611745565b82525050565b611c968161197c565b82525050565b611ca58161199b565b82525050565b600060a0820190508181036000830152611cc58188611c45565b9050611cd46020830187611c7e565b611ce16040830186611c8d565b611cee6060830185611c8d565b611cfb6080830184611c9c565b9695505050505050565b600082825260208201905092915050565b6000611d21826118cd565b611d2b8185611d05565b9350611d36836118e9565b8060005b83811015611d67578151611d4e88826118f9565b9750611d5983611911565b925050600181019050611d3a565b5085935050505092915050565b60006020820190508181036000830152611d8e8184611d16565b905092915050565b600081519050919050565b600082825260208201905092915050565b6000819050602082019050919050565b611dcb81611783565b82525050565b6000611ddd8383611dc2565b60208301905092915050565b6000602082019050919050565b6000611e0182611d96565b611e0b8185611da1565b9350611e1683611db2565b8060005b83811015611e47578151611e2e8882611dd1565b9750611e3983611de9565b925050600181019050611e1a565b5085935050505092915050565b60006060820190508181036000830152611e6e8186611df6565b9050611e7d6020830185611c7e565b611e8a6040830184611bdd565b949350505050565b60008060008060808587031215611eac57611eab61171b565b5b6000611eba8782880161176e565b9450506020611ecb878288016117a4565b9350506040611edc878288016117a4565b9250506060611eed878288016117a4565b91505092959194509250565b6000819050919050565b611f0c81611ef9565b82525050565b6000602082019050611f276000830184611f03565b92915050565b600080fd5b600080fd5b7f4e487b7100000000000000000000000000000000000000000000000000000000600052604160045260246000fd5b611f6f82611874565b810181811067ffffffffffffffff82111715611f8e57611f8d611f37565b5b80604052505050565b6000611fa1611711565b9050611fad8282611f66565b919050565b600067ffffffffffffffff821115611fcd57611fcc611f37565b5b611fd682611874565b9050602081019050919050565b82818337600083830152505050565b600061200561200084611fb2565b611f97565b90508281526020810184848401111561202157612020611f32565b5b61202c848285611fe3565b509392505050565b600082601f83011261204957612048611f2d565b5b8135612059848260208601611ff2565b91505092915050565b6000806000806080858703121561207c5761207b61171b565b5b600061208a8782880161176e565b945050602061209b878288016117a4565b93505060406120ac878288016117a4565b925050606085013567ffffffffffffffff8111156120cd576120cc611720565b5b6120d987828801612034565b91505092959194509250565b600067ffffffffffffffff821115612100576120ff611f37565b5b61210982611874565b9050602081019050919050565b6000612129612124846120e5565b611f97565b90508281526020810184848401111561214557612144611f32565b5b612150848285611fe3565b509392505050565b600082601f83011261216d5761216c611f2d565b5b813561217d848260208601612116565b91505092915050565b61218f8161197c565b811461219a57600080fd5b50565b6000813590506121ac81612186565b92915050565b600080604083850312156121c9576121c861171b565b5b600083013567ffffffffffffffff8111156121e7576121e6611720565b5b6121f385828601612158565b92505060206122048582860161219d565b9150509250929050565b7f79657420746f20637265617465206120706f6c6c000000000000000000000000600082015250565b6000612244601483611c34565b915061224f8261220e565b602082019050919050565b6000602082019050818103600083015261227381612237565b9050919050565b7f4e487b7100000000000000000000000000000000000000000000000000000000600052600160045260246000fd5b7f6d6178696d756d206e6f206f662063616e64696461746520706572207365737360008201527f696f6e2072656769737465726564000000000000000000000000000000000000602082015250565b6000612305602e83611c34565b9150612310826122a9565b604082019050919050565b60006020820190508181036000830152612334816122f8565b9050919050565b7f4e487b7100000000000000000000000000000000000000000000000000000000600052601160045260246000fd5b60006123758261197c565b915063ffffffff82141561238c5761238b61233b565b5b600182019050919050565b60006020820190506123ac6000830184611c7e565b92915050565b7f4e487b7100000000000000000000000000000000000000000000000000000000600052602260045260246000fd5b600060028204905060018216806123f957607f821691505b6020821081141561240d5761240c6123b2565b5b50919050565b7f4e6f20706f6c6c20637265617465640000000000000000000000000000000000600082015250565b6000612449600f83611c34565b915061245482612413565b602082019050919050565b600060208201905081810360008301526124788161243c565b9050919050565b7f4e487b7100000000000000000000000000000000000000000000000000000000600052603260045260246000fd5b60006124b982611783565b91507fffffffffffffffffffffffffffffffffffffffffffffffffffffffffffffffff8214156124ec576124eb61233b565b5b600182019050919050565b60008160601b9050919050565b600061250f826124f7565b9050919050565b600061252182612504565b9050919050565b61253961253482611745565b612516565b82525050565b600081905092915050565b7f6d6574617472616e73616374696f6e20566f74696e6720000000000000000000600082015250565b600061258060178361253f565b915061258b8261254a565b601782019050919050565b6000819050919050565b6125b16125ac82611783565b612596565b82525050565b60006125c38288612528565b6014820191506125d282612573565b91506125de8287612528565b6014820191506125ee82866125a0565b6020820191506125fe82856125a0565b60208201915061260e82846125a0565b6020820191508190509695505050505050565b7f54686973206164647265737320646f6573206e6f74206578697374206173206160008201527f2063616e64696461746500000000000000000000000000000000000000000000602082015250565b600061267d602a83611c34565b915061268882612621565b604082019050919050565b600060208201905081810360008301526126ac81612670565b9050919050565b7f766f74696e672068617320656e64656400000000000000000000000000000000600082015250565b60006126e9601083611c34565b91506126f4826126b3565b602082019050919050565b60006020820190508181036000830152612718816126dc565b9050919050565b7f596f7520616c726561647920766f746564000000000000000000000000000000600082015250565b6000612755601183611c34565b91506127608261271f565b602082019050919050565b6000602082019050818103600083015261278481612748565b9050919050565b60006040820190506127a06000830185611c7e565b6127ad6020830184611c9c565b9392505050565b7f6e6f74207468652063686169726d616e00000000000000000000000000000000600082015250565b60006127ea601083611c34565b91506127f5826127b4565b602082019050919050565b60006020820190508181036000830152612819816127dd565b9050919050565b600061282b82611825565b612835818561253f565b9350612845818560208601611841565b80840191505092915050565b600061285d8284612820565b915081905092915050565b600060ff82169050919050565b600061288082612868565b915061288b83612868565b92508260ff038211156128a1576128a061233b565b5b828201905092915050565b7f19457468657265756d205369676e6564204d6573736167653a0a333200000000600082015250565b60006128e2601c8361253f565b91506128ed826128ac565b601c82019050919050565b6000819050919050565b61291361290e82611ef9565b6128f8565b82525050565b6000612924826128d5565b91506129308284612902565b60208201915081905092915050565b61294881612868565b82525050565b60006080820190506129636000830187611f03565b612970602083018661293f565b61297d6040830185611f03565b61298a6060830184611f03565b9594505050505056fea26469706673582212209e22e55637396dbca01aff47ee6e55dacd9f66a98f4c80dde58b7022e3b55dee64736f6c634300080a0033",
					"opcodes": "PUSH1 0x80 PUSH1 0x40 MSTORE PUSH1 0x1 PUSH1 0x0 SSTORE CALLVALUE DUP1 ISZERO PUSH2 0x15 JUMPI PUSH1 0x0 DUP1 REVERT JUMPDEST POP PUSH2 0x29C9 DUP1 PUSH2 0x25 PUSH1 0x0 CODECOPY PUSH1 0x0 RETURN INVALID PUSH1 0x80 PUSH1 0x40 MSTORE CALLVALUE DUP1 ISZERO PUSH2 0x10 JUMPI PUSH1 0x0 DUP1 REVERT JUMPDEST POP PUSH1 0x4 CALLDATASIZE LT PUSH2 0xEA JUMPI PUSH1 0x0 CALLDATALOAD PUSH1 0xE0 SHR DUP1 PUSH4 0x8CCB59E8 GT PUSH2 0x8C JUMPI DUP1 PUSH4 0xC10D6CEC GT PUSH2 0x66 JUMPI DUP1 PUSH4 0xC10D6CEC EQ PUSH2 0x2AF JUMPI DUP1 PUSH4 0xC57003CC EQ PUSH2 0x2CB JUMPI DUP1 PUSH4 0xE615F104 EQ PUSH2 0x2E7 JUMPI DUP1 PUSH4 0xF762F4C0 EQ PUSH2 0x31B JUMPI PUSH2 0xEA JUMP JUMPDEST DUP1 PUSH4 0x8CCB59E8 EQ PUSH2 0x21D JUMPI DUP1 PUSH4 0xAE928E3E EQ PUSH2 0x24F JUMPI DUP1 PUSH4 0xBFE2E25D EQ PUSH2 0x27F JUMPI PUSH2 0xEA JUMP JUMPDEST DUP1 PUSH4 0x66C5343B GT PUSH2 0xC8 JUMPI DUP1 PUSH4 0x66C5343B EQ PUSH2 0x159 JUMPI DUP1 PUSH4 0x67D407DF EQ PUSH2 0x189 JUMPI DUP1 PUSH4 0x8321F397 EQ PUSH2 0x1B9 JUMPI DUP1 PUSH4 0x8AC3C3C2 EQ PUSH2 0x1ED JUMPI PUSH2 0xEA JUMP JUMPDEST DUP1 PUSH4 0x49D1C8B EQ PUSH2 0xEF JUMPI DUP1 PUSH4 0x21DA751C EQ PUSH2 0x10B JUMPI DUP1 PUSH4 0x278E2C90 EQ PUSH2 0x129 JUMPI JUMPDEST PUSH1 0x0 DUP1 REVERT JUMPDEST PUSH2 0x109 PUSH1 0x4 DUP1 CALLDATASIZE SUB DUP2 ADD SWAP1 PUSH2 0x104 SWAP2 SWAP1 PUSH2 0x17B9 JUMP JUMPDEST PUSH2 0x337 JUMP JUMPDEST STOP JUMPDEST PUSH2 0x113 PUSH2 0x605 JUMP JUMPDEST PUSH1 0x40 MLOAD PUSH2 0x120 SWAP2 SWAP1 PUSH2 0x1ADC JUMP JUMPDEST PUSH1 0x40 MLOAD DUP1 SWAP2 SUB SWAP1 RETURN JUMPDEST PUSH2 0x143 PUSH1 0x4 DUP1 CALLDATASIZE SUB DUP2 ADD SWAP1 PUSH2 0x13E SWAP2 SWAP1 PUSH2 0x1AFE JUMP JUMPDEST PUSH2 0x60A JUMP JUMPDEST PUSH1 0x40 MLOAD PUSH2 0x150 SWAP2 SWAP1 PUSH2 0x1BBB JUMP JUMPDEST PUSH1 0x40 MLOAD DUP1 SWAP2 SUB SWAP1 RETURN JUMPDEST PUSH2 0x173 PUSH1 0x4 DUP1 CALLDATASIZE SUB DUP2 ADD SWAP1 PUSH2 0x16E SWAP2 SWAP1 PUSH2 0x1AFE JUMP JUMPDEST PUSH2 0x814 JUMP JUMPDEST PUSH1 0x40 MLOAD PUSH2 0x180 SWAP2 SWAP1 PUSH2 0x1BEC JUMP JUMPDEST PUSH1 0x40 MLOAD DUP1 SWAP2 SUB SWAP1 RETURN JUMPDEST PUSH2 0x1A3 PUSH1 0x4 DUP1 CALLDATASIZE SUB DUP2 ADD SWAP1 PUSH2 0x19E SWAP2 SWAP1 PUSH2 0x1C07 JUMP JUMPDEST PUSH2 0x84F JUMP JUMPDEST PUSH1 0x40 MLOAD PUSH2 0x1B0 SWAP2 SWAP1 PUSH2 0x1BEC JUMP JUMPDEST PUSH1 0x40 MLOAD DUP1 SWAP2 SUB SWAP1 RETURN JUMPDEST PUSH2 0x1D3 PUSH1 0x4 DUP1 CALLDATASIZE SUB DUP2 ADD SWAP1 PUSH2 0x1CE SWAP2 SWAP1 PUSH2 0x1AFE JUMP JUMPDEST PUSH2 0x867 JUMP JUMPDEST PUSH1 0x40 MLOAD PUSH2 0x1E4 SWAP6 SWAP5 SWAP4 SWAP3 SWAP2 SWAP1 PUSH2 0x1CAB JUMP JUMPDEST PUSH1 0x40 MLOAD DUP1 SWAP2 SUB SWAP1 RETURN JUMPDEST PUSH2 0x207 PUSH1 0x4 DUP1 CALLDATASIZE SUB DUP2 ADD SWAP1 PUSH2 0x202 SWAP2 SWAP1 PUSH2 0x1AFE JUMP JUMPDEST PUSH2 0x982 JUMP JUMPDEST PUSH1 0x40 MLOAD PUSH2 0x214 SWAP2 SWAP1 PUSH2 0x1D74 JUMP JUMPDEST PUSH1 0x40 MLOAD DUP1 SWAP2 SUB SWAP1 RETURN JUMPDEST PUSH2 0x237 PUSH1 0x4 DUP1 CALLDATASIZE SUB DUP2 ADD SWAP1 PUSH2 0x232 SWAP2 SWAP1 PUSH2 0x1AFE JUMP JUMPDEST PUSH2 0xA2C JUMP JUMPDEST PUSH1 0x40 MLOAD PUSH2 0x246 SWAP4 SWAP3 SWAP2 SWAP1 PUSH2 0x1E54 JUMP JUMPDEST PUSH1 0x40 MLOAD DUP1 SWAP2 SUB SWAP1 RETURN JUMPDEST PUSH2 0x269 PUSH1 0x4 DUP1 CALLDATASIZE SUB DUP2 ADD SWAP1 PUSH2 0x264 SWAP2 SWAP1 PUSH2 0x1AFE JUMP JUMPDEST PUSH2 0xC77 JUMP JUMPDEST PUSH1 0x40 MLOAD PUSH2 0x276 SWAP2 SWAP1 PUSH2 0x1BEC JUMP JUMPDEST PUSH1 0x40 MLOAD DUP1 SWAP2 SUB SWAP1 RETURN JUMPDEST PUSH2 0x299 PUSH1 0x4 DUP1 CALLDATASIZE SUB DUP2 ADD SWAP1 PUSH2 0x294 SWAP2 SWAP1 PUSH2 0x1E92 JUMP JUMPDEST PUSH2 0xC9B JUMP JUMPDEST PUSH1 0x40 MLOAD PUSH2 0x2A6 SWAP2 SWAP1 PUSH2 0x1F12 JUMP JUMPDEST PUSH1 0x40 MLOAD DUP1 SWAP2 SUB SWAP1 RETURN JUMPDEST PUSH2 0x2C9 PUSH1 0x4 DUP1 CALLDATASIZE SUB DUP2 ADD SWAP1 PUSH2 0x2C4 SWAP2 SWAP1 PUSH2 0x2062 JUMP JUMPDEST PUSH2 0xCD6 JUMP JUMPDEST STOP JUMPDEST PUSH2 0x2E5 PUSH1 0x4 DUP1 CALLDATASIZE SUB DUP2 ADD SWAP1 PUSH2 0x2E0 SWAP2 SWAP1 PUSH2 0x1AFE JUMP JUMPDEST PUSH2 0xFDA JUMP JUMPDEST STOP JUMPDEST PUSH2 0x301 PUSH1 0x4 DUP1 CALLDATASIZE SUB DUP2 ADD SWAP1 PUSH2 0x2FC SWAP2 SWAP1 PUSH2 0x1AFE JUMP JUMPDEST PUSH2 0x10F5 JUMP JUMPDEST PUSH1 0x40 MLOAD PUSH2 0x312 SWAP6 SWAP5 SWAP4 SWAP3 SWAP2 SWAP1 PUSH2 0x1CAB JUMP JUMPDEST PUSH1 0x40 MLOAD DUP1 SWAP2 SUB SWAP1 RETURN JUMPDEST PUSH2 0x335 PUSH1 0x4 DUP1 CALLDATASIZE SUB DUP2 ADD SWAP1 PUSH2 0x330 SWAP2 SWAP1 PUSH2 0x21B2 JUMP JUMPDEST PUSH2 0x1200 JUMP JUMPDEST STOP JUMPDEST PUSH1 0x0 PUSH1 0x3 PUSH1 0x0 DUP4 DUP2 MSTORE PUSH1 0x20 ADD SWAP1 DUP2 MSTORE PUSH1 0x20 ADD PUSH1 0x0 KECCAK256 SWAP1 POP PUSH1 0x0 PUSH20 0xFFFFFFFFFFFFFFFFFFFFFFFFFFFFFFFFFFFFFFFF AND DUP2 PUSH1 0x1 ADD PUSH1 0x0 SWAP1 SLOAD SWAP1 PUSH2 0x100 EXP SWAP1 DIV PUSH20 0xFFFFFFFFFFFFFFFFFFFFFFFFFFFFFFFFFFFFFFFF AND PUSH20 0xFFFFFFFFFFFFFFFFFFFFFFFFFFFFFFFFFFFFFFFF AND EQ ISZERO PUSH2 0x3E2 JUMPI PUSH1 0x40 MLOAD PUSH32 0x8C379A000000000000000000000000000000000000000000000000000000000 DUP2 MSTORE PUSH1 0x4 ADD PUSH2 0x3D9 SWAP1 PUSH2 0x225A JUMP JUMPDEST PUSH1 0x40 MLOAD DUP1 SWAP2 SUB SWAP1 REVERT JUMPDEST CALLER PUSH20 0xFFFFFFFFFFFFFFFFFFFFFFFFFFFFFFFFFFFFFFFF AND DUP2 PUSH1 0x1 ADD PUSH1 0x0 SWAP1 SLOAD SWAP1 PUSH2 0x100 EXP SWAP1 DIV PUSH20 0xFFFFFFFFFFFFFFFFFFFFFFFFFFFFFFFFFFFFFFFF AND PUSH20 0xFFFFFFFFFFFFFFFFFFFFFFFFFFFFFFFFFFFFFFFF AND EQ PUSH2 0x442 JUMPI PUSH2 0x441 PUSH2 0x227A JUMP JUMPDEST JUMPDEST DUP1 PUSH1 0x3 ADD PUSH1 0x0 SWAP1 SLOAD SWAP1 PUSH2 0x100 EXP SWAP1 DIV PUSH4 0xFFFFFFFF AND PUSH4 0xFFFFFFFF AND DUP2 PUSH1 0x3 ADD PUSH1 0x4 SWAP1 SLOAD SWAP1 PUSH2 0x100 EXP SWAP1 DIV PUSH4 0xFFFFFFFF AND PUSH4 0xFFFFFFFF AND LT PUSH2 0x4B8 JUMPI PUSH1 0x40 MLOAD PUSH32 0x8C379A000000000000000000000000000000000000000000000000000000000 DUP2 MSTORE PUSH1 0x4 ADD PUSH2 0x4AF SWAP1 PUSH2 0x231B JUMP JUMPDEST PUSH1 0x40 MLOAD DUP1 SWAP2 SUB SWAP1 REVERT JUMPDEST PUSH1 0x1 PUSH1 0x5 PUSH1 0x0 DUP5 DUP2 MSTORE PUSH1 0x20 ADD SWAP1 DUP2 MSTORE PUSH1 0x20 ADD PUSH1 0x0 KECCAK256 PUSH1 0x0 DUP6 PUSH20 0xFFFFFFFFFFFFFFFFFFFFFFFFFFFFFFFFFFFFFFFF AND PUSH20 0xFFFFFFFFFFFFFFFFFFFFFFFFFFFFFFFFFFFFFFFF AND DUP2 MSTORE PUSH1 0x20 ADD SWAP1 DUP2 MSTORE PUSH1 0x20 ADD PUSH1 0x0 KECCAK256 PUSH1 0x0 PUSH2 0x100 EXP DUP2 SLOAD DUP2 PUSH1 0xFF MUL NOT AND SWAP1 DUP4 ISZERO ISZERO MUL OR SWAP1 SSTORE POP DUP1 PUSH1 0x2 ADD DUP4 SWAP1 DUP1 PUSH1 0x1 DUP2 SLOAD ADD DUP1 DUP3 SSTORE DUP1 SWAP2 POP POP PUSH1 0x1 SWAP1 SUB SWAP1 PUSH1 0x0 MSTORE PUSH1 0x20 PUSH1 0x0 KECCAK256 ADD PUSH1 0x0 SWAP1 SWAP2 SWAP1 SWAP2 SWAP1 SWAP2 PUSH2 0x100 EXP DUP2 SLOAD DUP2 PUSH20 0xFFFFFFFFFFFFFFFFFFFFFFFFFFFFFFFFFFFFFFFF MUL NOT AND SWAP1 DUP4 PUSH20 0xFFFFFFFFFFFFFFFFFFFFFFFFFFFFFFFFFFFFFFFF AND MUL OR SWAP1 SSTORE POP DUP1 PUSH1 0x3 ADD PUSH1 0x4 DUP2 DUP2 SWAP1 SLOAD SWAP1 PUSH2 0x100 EXP SWAP1 DIV PUSH4 0xFFFFFFFF AND DUP1 SWAP3 SWAP2 SWAP1 PUSH2 0x5AA SWAP1 PUSH2 0x236A JUMP JUMPDEST SWAP2 SWAP1 PUSH2 0x100 EXP DUP2 SLOAD DUP2 PUSH4 0xFFFFFFFF MUL NOT AND SWAP1 DUP4 PUSH4 0xFFFFFFFF AND MUL OR SWAP1 SSTORE POP POP PUSH32 0xC19C59AA93348E8FC54764BC642ECA975E2639F44CC683EF8F027E1529CBDA32 DUP4 PUSH1 0x40 MLOAD PUSH2 0x5F8 SWAP2 SWAP1 PUSH2 0x2397 JUMP JUMPDEST PUSH1 0x40 MLOAD DUP1 SWAP2 SUB SWAP1 LOG1 POP POP POP JUMP JUMPDEST PUSH1 0x60 SWAP1 JUMP JUMPDEST PUSH2 0x612 PUSH2 0x1614 JUMP JUMPDEST PUSH1 0x3 PUSH1 0x0 DUP4 DUP2 MSTORE PUSH1 0x20 ADD SWAP1 DUP2 MSTORE PUSH1 0x20 ADD PUSH1 0x0 KECCAK256 PUSH1 0x40 MLOAD DUP1 PUSH1 0xC0 ADD PUSH1 0x40 MSTORE SWAP1 DUP2 PUSH1 0x0 DUP3 ADD DUP1 SLOAD PUSH2 0x640 SWAP1 PUSH2 0x23E1 JUMP JUMPDEST DUP1 PUSH1 0x1F ADD PUSH1 0x20 DUP1 SWAP2 DIV MUL PUSH1 0x20 ADD PUSH1 0x40 MLOAD SWAP1 DUP2 ADD PUSH1 0x40 MSTORE DUP1 SWAP3 SWAP2 SWAP1 DUP2 DUP2 MSTORE PUSH1 0x20 ADD DUP3 DUP1 SLOAD PUSH2 0x66C SWAP1 PUSH2 0x23E1 JUMP JUMPDEST DUP1 ISZERO PUSH2 0x6B9 JUMPI DUP1 PUSH1 0x1F LT PUSH2 0x68E JUMPI PUSH2 0x100 DUP1 DUP4 SLOAD DIV MUL DUP4 MSTORE SWAP2 PUSH1 0x20 ADD SWAP2 PUSH2 0x6B9 JUMP JUMPDEST DUP3 ADD SWAP2 SWAP1 PUSH1 0x0 MSTORE PUSH1 0x20 PUSH1 0x0 KECCAK256 SWAP1 JUMPDEST DUP2 SLOAD DUP2 MSTORE SWAP1 PUSH1 0x1 ADD SWAP1 PUSH1 0x20 ADD DUP1 DUP4 GT PUSH2 0x69C JUMPI DUP3 SWAP1 SUB PUSH1 0x1F AND DUP3 ADD SWAP2 JUMPDEST POP POP POP POP POP DUP2 MSTORE PUSH1 0x20 ADD PUSH1 0x1 DUP3 ADD PUSH1 0x0 SWAP1 SLOAD SWAP1 PUSH2 0x100 EXP SWAP1 DIV PUSH20 0xFFFFFFFFFFFFFFFFFFFFFFFFFFFFFFFFFFFFFFFF AND PUSH20 0xFFFFFFFFFFFFFFFFFFFFFFFFFFFFFFFFFFFFFFFF AND PUSH20 0xFFFFFFFFFFFFFFFFFFFFFFFFFFFFFFFFFFFFFFFF AND DUP2 MSTORE PUSH1 0x20 ADD PUSH1 0x2 DUP3 ADD DUP1 SLOAD DUP1 PUSH1 0x20 MUL PUSH1 0x20 ADD PUSH1 0x40 MLOAD SWAP1 DUP2 ADD PUSH1 0x40 MSTORE DUP1 SWAP3 SWAP2 SWAP1 DUP2 DUP2 MSTORE PUSH1 0x20 ADD DUP3 DUP1 SLOAD DUP1 ISZERO PUSH2 0x79D JUMPI PUSH1 0x20 MUL DUP3 ADD SWAP2 SWAP1 PUSH1 0x0 MSTORE PUSH1 0x20 PUSH1 0x0 KECCAK256 SWAP1 JUMPDEST DUP2 PUSH1 0x0 SWAP1 SLOAD SWAP1 PUSH2 0x100 EXP SWAP1 DIV PUSH20 0xFFFFFFFFFFFFFFFFFFFFFFFFFFFFFFFFFFFFFFFF AND PUSH20 0xFFFFFFFFFFFFFFFFFFFFFFFFFFFFFFFFFFFFFFFF AND DUP2 MSTORE PUSH1 0x20 ADD SWAP1 PUSH1 0x1 ADD SWAP1 DUP1 DUP4 GT PUSH2 0x753 JUMPI JUMPDEST POP POP POP POP POP DUP2 MSTORE PUSH1 0x20 ADD PUSH1 0x3 DUP3 ADD PUSH1 0x0 SWAP1 SLOAD SWAP1 PUSH2 0x100 EXP SWAP1 DIV PUSH4 0xFFFFFFFF AND PUSH4 0xFFFFFFFF AND PUSH4 0xFFFFFFFF AND DUP2 MSTORE PUSH1 0x20 ADD PUSH1 0x3 DUP3 ADD PUSH1 0x4 SWAP1 SLOAD SWAP1 PUSH2 0x100 EXP SWAP1 DIV PUSH4 0xFFFFFFFF AND PUSH4 0xFFFFFFFF AND PUSH4 0xFFFFFFFF AND DUP2 MSTORE PUSH1 0x20 ADD PUSH1 0x3 DUP3 ADD PUSH1 0x8 SWAP1 SLOAD SWAP1 PUSH2 0x100 EXP SWAP1 DIV PUSH1 0xFF AND ISZERO ISZERO ISZERO ISZERO DUP2 MSTORE POP POP SWAP1 POP SWAP2 SWAP1 POP JUMP JUMPDEST PUSH1 0x0 DUP1 PUSH1 0x3 PUSH1 0x0 DUP5 DUP2 MSTORE PUSH1 0x20 ADD SWAP1 DUP2 MSTORE PUSH1 0x20 ADD PUSH1 0x0 KECCAK256 SWAP1 POP DUP1 PUSH1 0x3 ADD PUSH1 0x4 SWAP1 SLOAD SWAP1 PUSH2 0x100 EXP SWAP1 DIV PUSH4 0xFFFFFFFF AND PUSH4 0xFFFFFFFF AND SWAP2 POP POP SWAP2 SWAP1 POP JUMP JUMPDEST PUSH1 0x4 PUSH1 0x20 MSTORE DUP1 PUSH1 0x0 MSTORE PUSH1 0x40 PUSH1 0x0 KECCAK256 PUSH1 0x0 SWAP2 POP SWAP1 POP SLOAD DUP2 JUMP JUMPDEST PUSH1 0x2 DUP2 DUP2 SLOAD DUP2 LT PUSH2 0x877 JUMPI PUSH1 0x0 DUP1 REVERT JUMPDEST SWAP1 PUSH1 0x0 MSTORE PUSH1 0x20 PUSH1 0x0 KECCAK256 SWAP1 PUSH1 0x4 MUL ADD PUSH1 0x0 SWAP2 POP SWAP1 POP DUP1 PUSH1 0x0 ADD DUP1 SLOAD PUSH2 0x89A SWAP1 PUSH2 0x23E1 JUMP JUMPDEST DUP1 PUSH1 0x1F ADD PUSH1 0x20 DUP1 SWAP2 DIV MUL PUSH1 0x20 ADD PUSH1 0x40 MLOAD SWAP1 DUP2 ADD PUSH1 0x40 MSTORE DUP1 SWAP3 SWAP2 SWAP1 DUP2 DUP2 MSTORE PUSH1 0x20 ADD DUP3 DUP1 SLOAD PUSH2 0x8C6 SWAP1 PUSH2 0x23E1 JUMP JUMPDEST DUP1 ISZERO PUSH2 0x913 JUMPI DUP1 PUSH1 0x1F LT PUSH2 0x8E8 JUMPI PUSH2 0x100 DUP1 DUP4 SLOAD DIV MUL DUP4 MSTORE SWAP2 PUSH1 0x20 ADD SWAP2 PUSH2 0x913 JUMP JUMPDEST DUP3 ADD SWAP2 SWAP1 PUSH1 0x0 MSTORE PUSH1 0x20 PUSH1 0x0 KECCAK256 SWAP1 JUMPDEST DUP2 SLOAD DUP2 MSTORE SWAP1 PUSH1 0x1 ADD SWAP1 PUSH1 0x20 ADD DUP1 DUP4 GT PUSH2 0x8F6 JUMPI DUP3 SWAP1 SUB PUSH1 0x1F AND DUP3 ADD SWAP2 JUMPDEST POP POP POP POP POP SWAP1 DUP1 PUSH1 0x1 ADD PUSH1 0x0 SWAP1 SLOAD SWAP1 PUSH2 0x100 EXP SWAP1 DIV PUSH20 0xFFFFFFFFFFFFFFFFFFFFFFFFFFFFFFFFFFFFFFFF AND SWAP1 DUP1 PUSH1 0x3 ADD PUSH1 0x0 SWAP1 SLOAD SWAP1 PUSH2 0x100 EXP SWAP1 DIV PUSH4 0xFFFFFFFF AND SWAP1 DUP1 PUSH1 0x3 ADD PUSH1 0x4 SWAP1 SLOAD SWAP1 PUSH2 0x100 EXP SWAP1 DIV PUSH4 0xFFFFFFFF AND SWAP1 DUP1 PUSH1 0x3 ADD PUSH1 0x8 SWAP1 SLOAD SWAP1 PUSH2 0x100 EXP SWAP1 DIV PUSH1 0xFF AND SWAP1 POP DUP6 JUMP JUMPDEST PUSH1 0x60 PUSH1 0x0 PUSH1 0x3 PUSH1 0x0 DUP5 DUP2 MSTORE PUSH1 0x20 ADD SWAP1 DUP2 MSTORE PUSH1 0x20 ADD PUSH1 0x0 KECCAK256 SWAP1 POP DUP1 PUSH1 0x2 ADD DUP1 SLOAD DUP1 PUSH1 0x20 MUL PUSH1 0x20 ADD PUSH1 0x40 MLOAD SWAP1 DUP2 ADD PUSH1 0x40 MSTORE DUP1 SWAP3 SWAP2 SWAP1 DUP2 DUP2 MSTORE PUSH1 0x20 ADD DUP3 DUP1 SLOAD DUP1 ISZERO PUSH2 0xA1F JUMPI PUSH1 0x20 MUL DUP3 ADD SWAP2 SWAP1 PUSH1 0x0 MSTORE PUSH1 0x20 PUSH1 0x0 KECCAK256 SWAP1 JUMPDEST DUP2 PUSH1 0x0 SWAP1 SLOAD SWAP1 PUSH2 0x100 EXP SWAP1 DIV PUSH20 0xFFFFFFFFFFFFFFFFFFFFFFFFFFFFFFFFFFFFFFFF AND PUSH20 0xFFFFFFFFFFFFFFFFFFFFFFFFFFFFFFFFFFFFFFFF AND DUP2 MSTORE PUSH1 0x20 ADD SWAP1 PUSH1 0x1 ADD SWAP1 DUP1 DUP4 GT PUSH2 0x9D5 JUMPI JUMPDEST POP POP POP POP POP SWAP2 POP POP SWAP2 SWAP1 POP JUMP JUMPDEST PUSH1 0x60 PUSH1 0x0 DUP1 PUSH1 0x0 PUSH1 0x3 PUSH1 0x0 DUP7 DUP2 MSTORE PUSH1 0x20 ADD SWAP1 DUP2 MSTORE PUSH1 0x20 ADD PUSH1 0x0 KECCAK256 SWAP1 POP PUSH1 0x0 PUSH20 0xFFFFFFFFFFFFFFFFFFFFFFFFFFFFFFFFFFFFFFFF AND DUP2 PUSH1 0x1 ADD PUSH1 0x0 SWAP1 SLOAD SWAP1 PUSH2 0x100 EXP SWAP1 DIV PUSH20 0xFFFFFFFFFFFFFFFFFFFFFFFFFFFFFFFFFFFFFFFF AND PUSH20 0xFFFFFFFFFFFFFFFFFFFFFFFFFFFFFFFFFFFFFFFF AND EQ ISZERO PUSH2 0xADC JUMPI PUSH1 0x40 MLOAD PUSH32 0x8C379A000000000000000000000000000000000000000000000000000000000 DUP2 MSTORE PUSH1 0x4 ADD PUSH2 0xAD3 SWAP1 PUSH2 0x245F JUMP JUMPDEST PUSH1 0x40 MLOAD DUP1 SWAP2 SUB SWAP1 REVERT JUMPDEST DUP1 PUSH1 0x2 ADD DUP1 SLOAD SWAP1 POP PUSH8 0xFFFFFFFFFFFFFFFF DUP2 GT ISZERO PUSH2 0xAFD JUMPI PUSH2 0xAFC PUSH2 0x1F37 JUMP JUMPDEST JUMPDEST PUSH1 0x40 MLOAD SWAP1 DUP1 DUP3 MSTORE DUP1 PUSH1 0x20 MUL PUSH1 0x20 ADD DUP3 ADD PUSH1 0x40 MSTORE DUP1 ISZERO PUSH2 0xB2B JUMPI DUP2 PUSH1 0x20 ADD PUSH1 0x20 DUP3 MUL DUP1 CALLDATASIZE DUP4 CALLDATACOPY DUP1 DUP3 ADD SWAP2 POP POP SWAP1 POP JUMPDEST POP SWAP4 POP PUSH1 0x0 DUP1 PUSH1 0x0 JUMPDEST DUP4 PUSH1 0x2 ADD DUP1 SLOAD SWAP1 POP DUP2 GT PUSH2 0xC63 JUMPI PUSH1 0x0 PUSH2 0xB4E DUP10 DUP4 PUSH2 0x133E JUMP JUMPDEST SWAP1 POP DUP4 DUP2 GT ISZERO PUSH2 0xB9F JUMPI DUP1 SWAP4 POP DUP5 PUSH1 0x2 ADD DUP3 DUP2 SLOAD DUP2 LT PUSH2 0xB71 JUMPI PUSH2 0xB70 PUSH2 0x247F JUMP JUMPDEST JUMPDEST SWAP1 PUSH1 0x0 MSTORE PUSH1 0x20 PUSH1 0x0 KECCAK256 ADD PUSH1 0x0 SWAP1 SLOAD SWAP1 PUSH2 0x100 EXP SWAP1 DIV PUSH20 0xFFFFFFFFFFFFFFFFFFFFFFFFFFFFFFFFFFFFFFFF AND SWAP3 POP JUMPDEST PUSH1 0x6 PUSH1 0x0 DUP11 DUP2 MSTORE PUSH1 0x20 ADD SWAP1 DUP2 MSTORE PUSH1 0x20 ADD PUSH1 0x0 KECCAK256 PUSH1 0x0 DUP7 PUSH1 0x2 ADD DUP5 DUP2 SLOAD DUP2 LT PUSH2 0xBCA JUMPI PUSH2 0xBC9 PUSH2 0x247F JUMP JUMPDEST JUMPDEST SWAP1 PUSH1 0x0 MSTORE PUSH1 0x20 PUSH1 0x0 KECCAK256 ADD PUSH1 0x0 SWAP1 SLOAD SWAP1 PUSH2 0x100 EXP SWAP1 DIV PUSH20 0xFFFFFFFFFFFFFFFFFFFFFFFFFFFFFFFFFFFFFFFF AND PUSH20 0xFFFFFFFFFFFFFFFFFFFFFFFFFFFFFFFFFFFFFFFF AND PUSH20 0xFFFFFFFFFFFFFFFFFFFFFFFFFFFFFFFFFFFFFFFF AND DUP2 MSTORE PUSH1 0x20 ADD SWAP1 DUP2 MSTORE PUSH1 0x20 ADD PUSH1 0x0 KECCAK256 SLOAD DUP9 DUP4 DUP2 MLOAD DUP2 LT PUSH2 0xC43 JUMPI PUSH2 0xC42 PUSH2 0x247F JUMP JUMPDEST JUMPDEST PUSH1 0x20 MUL PUSH1 0x20 ADD ADD DUP2 DUP2 MSTORE POP POP POP DUP1 DUP1 PUSH2 0xC5B SWAP1 PUSH2 0x24AE JUMP JUMPDEST SWAP2 POP POP PUSH2 0xB34 JUMP JUMPDEST POP DUP6 DUP2 DUP4 SWAP6 POP SWAP6 POP SWAP6 POP POP POP POP SWAP2 SWAP4 SWAP1 SWAP3 POP JUMP JUMPDEST PUSH1 0x1 DUP2 DUP2 SLOAD DUP2 LT PUSH2 0xC87 JUMPI PUSH1 0x0 DUP1 REVERT JUMPDEST SWAP1 PUSH1 0x0 MSTORE PUSH1 0x20 PUSH1 0x0 KECCAK256 ADD PUSH1 0x0 SWAP2 POP SWAP1 POP SLOAD DUP2 JUMP JUMPDEST PUSH1 0x0 ADDRESS DUP6 DUP6 DUP6 DUP6 PUSH1 0x40 MLOAD PUSH1 0x20 ADD PUSH2 0xCB6 SWAP6 SWAP5 SWAP4 SWAP3 SWAP2 SWAP1 PUSH2 0x25B7 JUMP JUMPDEST PUSH1 0x40 MLOAD PUSH1 0x20 DUP2 DUP4 SUB SUB DUP2 MSTORE SWAP1 PUSH1 0x40 MSTORE DUP1 MLOAD SWAP1 PUSH1 0x20 ADD KECCAK256 SWAP1 POP SWAP5 SWAP4 POP POP POP POP JUMP JUMPDEST DUP4 DUP4 PUSH1 0x1 ISZERO ISZERO PUSH1 0x5 PUSH1 0x0 DUP4 DUP2 MSTORE PUSH1 0x20 ADD SWAP1 DUP2 MSTORE PUSH1 0x20 ADD PUSH1 0x0 KECCAK256 PUSH1 0x0 DUP5 PUSH20 0xFFFFFFFFFFFFFFFFFFFFFFFFFFFFFFFFFFFFFFFF AND PUSH20 0xFFFFFFFFFFFFFFFFFFFFFFFFFFFFFFFFFFFFFFFF AND DUP2 MSTORE PUSH1 0x20 ADD SWAP1 DUP2 MSTORE PUSH1 0x20 ADD PUSH1 0x0 KECCAK256 PUSH1 0x0 SWAP1 SLOAD SWAP1 PUSH2 0x100 EXP SWAP1 DIV PUSH1 0xFF AND ISZERO ISZERO EQ PUSH2 0xD7C JUMPI PUSH1 0x40 MLOAD PUSH32 0x8C379A000000000000000000000000000000000000000000000000000000000 DUP2 MSTORE PUSH1 0x4 ADD PUSH2 0xD73 SWAP1 PUSH2 0x2693 JUMP JUMPDEST PUSH1 0x40 MLOAD DUP1 SWAP2 SUB SWAP1 REVERT JUMPDEST DUP5 PUSH1 0x0 PUSH1 0x3 PUSH1 0x0 DUP4 DUP2 MSTORE PUSH1 0x20 ADD SWAP1 DUP2 MSTORE PUSH1 0x20 ADD PUSH1 0x0 KECCAK256 SWAP1 POP PUSH1 0x1 ISZERO ISZERO DUP2 PUSH1 0x3 ADD PUSH1 0x8 SWAP1 SLOAD SWAP1 PUSH2 0x100 EXP SWAP1 DIV PUSH1 0xFF AND ISZERO ISZERO EQ PUSH2 0xDEC JUMPI PUSH1 0x40 MLOAD PUSH32 0x8C379A000000000000000000000000000000000000000000000000000000000 DUP2 MSTORE PUSH1 0x4 ADD PUSH2 0xDE3 SWAP1 PUSH2 0x26FF JUMP JUMPDEST PUSH1 0x40 MLOAD DUP1 SWAP2 SUB SWAP1 REVERT JUMPDEST PUSH1 0x0 PUSH2 0xDFA DUP10 DUP10 DUP10 TIMESTAMP PUSH2 0xC9B JUMP JUMPDEST SWAP1 POP PUSH1 0x0 PUSH2 0xE08 DUP3 DUP9 PUSH2 0x13F0 JUMP JUMPDEST SWAP1 POP PUSH1 0x0 PUSH20 0xFFFFFFFFFFFFFFFFFFFFFFFFFFFFFFFFFFFFFFFF AND DUP2 PUSH20 0xFFFFFFFFFFFFFFFFFFFFFFFFFFFFFFFFFFFFFFFF AND EQ ISZERO PUSH2 0xE44 JUMPI PUSH1 0x0 DUP1 REVERT JUMPDEST PUSH1 0x4 PUSH1 0x0 DUP3 PUSH20 0xFFFFFFFFFFFFFFFFFFFFFFFFFFFFFFFFFFFFFFFF AND PUSH20 0xFFFFFFFFFFFFFFFFFFFFFFFFFFFFFFFFFFFFFFFF AND DUP2 MSTORE PUSH1 0x20 ADD SWAP1 DUP2 MSTORE PUSH1 0x20 ADD PUSH1 0x0 KECCAK256 SLOAD DUP9 EQ PUSH2 0xE8F JUMPI PUSH1 0x0 DUP1 REVERT JUMPDEST PUSH1 0x4 PUSH1 0x0 DUP3 PUSH20 0xFFFFFFFFFFFFFFFFFFFFFFFFFFFFFFFFFFFFFFFF AND PUSH20 0xFFFFFFFFFFFFFFFFFFFFFFFFFFFFFFFFFFFFFFFF AND DUP2 MSTORE PUSH1 0x20 ADD SWAP1 DUP2 MSTORE PUSH1 0x20 ADD PUSH1 0x0 KECCAK256 PUSH1 0x0 DUP2 SLOAD DUP1 SWAP3 SWAP2 SWAP1 PUSH2 0xEDF SWAP1 PUSH2 0x24AE JUMP JUMPDEST SWAP2 SWAP1 POP SSTORE POP PUSH1 0x0 ISZERO ISZERO PUSH1 0x7 PUSH1 0x0 DUP12 DUP2 MSTORE PUSH1 0x20 ADD SWAP1 DUP2 MSTORE PUSH1 0x20 ADD PUSH1 0x0 KECCAK256 PUSH1 0x0 DUP4 PUSH20 0xFFFFFFFFFFFFFFFFFFFFFFFFFFFFFFFFFFFFFFFF AND PUSH20 0xFFFFFFFFFFFFFFFFFFFFFFFFFFFFFFFFFFFFFFFF AND DUP2 MSTORE PUSH1 0x20 ADD SWAP1 DUP2 MSTORE PUSH1 0x20 ADD PUSH1 0x0 KECCAK256 PUSH1 0x0 SWAP1 SLOAD SWAP1 PUSH2 0x100 EXP SWAP1 DIV PUSH1 0xFF AND ISZERO ISZERO EQ PUSH2 0xF88 JUMPI PUSH1 0x40 MLOAD PUSH32 0x8C379A000000000000000000000000000000000000000000000000000000000 DUP2 MSTORE PUSH1 0x4 ADD PUSH2 0xF7F SWAP1 PUSH2 0x276B JUMP JUMPDEST PUSH1 0x40 MLOAD DUP1 SWAP2 SUB SWAP1 REVERT JUMPDEST PUSH2 0xF93 DUP11 DUP11 DUP4 PUSH2 0x14E9 JUMP JUMPDEST POP PUSH32 0xF3F16A15F074B71C5138107DFC7C63B80524D5411CB967CAA97D8D9F12B2FD6B DUP11 PUSH1 0x1 PUSH1 0x40 MLOAD PUSH2 0xFC6 SWAP3 SWAP2 SWAP1 PUSH2 0x278B JUMP JUMPDEST PUSH1 0x40 MLOAD DUP1 SWAP2 SUB SWAP1 LOG1 POP POP POP POP POP POP POP POP POP POP JUMP JUMPDEST PUSH1 0x0 PUSH1 0x3 PUSH1 0x0 DUP4 DUP2 MSTORE PUSH1 0x20 ADD SWAP1 DUP2 MSTORE PUSH1 0x20 ADD PUSH1 0x0 KECCAK256 SWAP1 POP CALLER PUSH20 0xFFFFFFFFFFFFFFFFFFFFFFFFFFFFFFFFFFFFFFFF AND DUP2 PUSH1 0x1 ADD PUSH1 0x0 SWAP1 SLOAD SWAP1 PUSH2 0x100 EXP SWAP1 DIV PUSH20 0xFFFFFFFFFFFFFFFFFFFFFFFFFFFFFFFFFFFFFFFF AND PUSH20 0xFFFFFFFFFFFFFFFFFFFFFFFFFFFFFFFFFFFFFFFF AND EQ PUSH2 0x1083 JUMPI PUSH1 0x40 MLOAD PUSH32 0x8C379A000000000000000000000000000000000000000000000000000000000 DUP2 MSTORE PUSH1 0x4 ADD PUSH2 0x107A SWAP1 PUSH2 0x2800 JUMP JUMPDEST PUSH1 0x40 MLOAD DUP1 SWAP2 SUB SWAP1 REVERT JUMPDEST DUP1 PUSH1 0x3 ADD PUSH1 0x8 SWAP1 SLOAD SWAP1 PUSH2 0x100 EXP SWAP1 DIV PUSH1 0xFF AND ISZERO DUP2 PUSH1 0x3 ADD PUSH1 0x8 PUSH2 0x100 EXP DUP2 SLOAD DUP2 PUSH1 0xFF MUL NOT AND SWAP1 DUP4 ISZERO ISZERO MUL OR SWAP1 SSTORE POP DUP1 PUSH1 0x3 ADD PUSH1 0x8 SWAP1 SLOAD SWAP1 PUSH2 0x100 EXP SWAP1 DIV PUSH1 0xFF AND ISZERO ISZERO PUSH32 0x7B224DB641892626DCA6975B376F464E9AC52CCFA180436175170C009B94DCD7 PUSH1 0x40 MLOAD PUSH1 0x40 MLOAD DUP1 SWAP2 SUB SWAP1 LOG2 POP POP JUMP JUMPDEST PUSH1 0x3 PUSH1 0x20 MSTORE DUP1 PUSH1 0x0 MSTORE PUSH1 0x40 PUSH1 0x0 KECCAK256 PUSH1 0x0 SWAP2 POP SWAP1 POP DUP1 PUSH1 0x0 ADD DUP1 SLOAD PUSH2 0x1118 SWAP1 PUSH2 0x23E1 JUMP JUMPDEST DUP1 PUSH1 0x1F ADD PUSH1 0x20 DUP1 SWAP2 DIV MUL PUSH1 0x20 ADD PUSH1 0x40 MLOAD SWAP1 DUP2 ADD PUSH1 0x40 MSTORE DUP1 SWAP3 SWAP2 SWAP1 DUP2 DUP2 MSTORE PUSH1 0x20 ADD DUP3 DUP1 SLOAD PUSH2 0x1144 SWAP1 PUSH2 0x23E1 JUMP JUMPDEST DUP1 ISZERO PUSH2 0x1191 JUMPI DUP1 PUSH1 0x1F LT PUSH2 0x1166 JUMPI PUSH2 0x100 DUP1 DUP4 SLOAD DIV MUL DUP4 MSTORE SWAP2 PUSH1 0x20 ADD SWAP2 PUSH2 0x1191 JUMP JUMPDEST DUP3 ADD SWAP2 SWAP1 PUSH1 0x0 MSTORE PUSH1 0x20 PUSH1 0x0 KECCAK256 SWAP1 JUMPDEST DUP2 SLOAD DUP2 MSTORE SWAP1 PUSH1 0x1 ADD SWAP1 PUSH1 0x20 ADD DUP1 DUP4 GT PUSH2 0x1174 JUMPI DUP3 SWAP1 SUB PUSH1 0x1F AND DUP3 ADD SWAP2 JUMPDEST POP POP POP POP POP SWAP1 DUP1 PUSH1 0x1 ADD PUSH1 0x0 SWAP1 SLOAD SWAP1 PUSH2 0x100 EXP SWAP1 DIV PUSH20 0xFFFFFFFFFFFFFFFFFFFFFFFFFFFFFFFFFFFFFFFF AND SWAP1 DUP1 PUSH1 0x3 ADD PUSH1 0x0 SWAP1 SLOAD SWAP1 PUSH2 0x100 EXP SWAP1 DIV PUSH4 0xFFFFFFFF AND SWAP1 DUP1 PUSH1 0x3 ADD PUSH1 0x4 SWAP1 SLOAD SWAP1 PUSH2 0x100 EXP SWAP1 DIV PUSH4 0xFFFFFFFF AND SWAP1 DUP1 PUSH1 0x3 ADD PUSH1 0x8 SWAP1 SLOAD SWAP1 PUSH2 0x100 EXP SWAP1 DIV PUSH1 0xFF AND SWAP1 POP DUP6 JUMP JUMPDEST PUSH1 0x0 PUSH1 0x3 PUSH1 0x0 DUP1 SLOAD DUP2 MSTORE PUSH1 0x20 ADD SWAP1 DUP2 MSTORE PUSH1 0x20 ADD PUSH1 0x0 KECCAK256 SWAP1 POP DUP3 DUP2 PUSH1 0x0 ADD SWAP1 DUP1 MLOAD SWAP1 PUSH1 0x20 ADD SWAP1 PUSH2 0x1230 SWAP3 SWAP2 SWAP1 PUSH2 0x166E JUMP JUMPDEST POP CALLER DUP2 PUSH1 0x1 ADD PUSH1 0x0 PUSH2 0x100 EXP DUP2 SLOAD DUP2 PUSH20 0xFFFFFFFFFFFFFFFFFFFFFFFFFFFFFFFFFFFFFFFF MUL NOT AND SWAP1 DUP4 PUSH20 0xFFFFFFFFFFFFFFFFFFFFFFFFFFFFFFFFFFFFFFFF AND MUL OR SWAP1 SSTORE POP DUP2 DUP2 PUSH1 0x3 ADD PUSH1 0x0 PUSH2 0x100 EXP DUP2 SLOAD DUP2 PUSH4 0xFFFFFFFF MUL NOT AND SWAP1 DUP4 PUSH4 0xFFFFFFFF AND MUL OR SWAP1 SSTORE POP PUSH1 0x1 PUSH1 0x0 SLOAD SWAP1 DUP1 PUSH1 0x1 DUP2 SLOAD ADD DUP1 DUP3 SSTORE DUP1 SWAP2 POP POP PUSH1 0x1 SWAP1 SUB SWAP1 PUSH1 0x0 MSTORE PUSH1 0x20 PUSH1 0x0 KECCAK256 ADD PUSH1 0x0 SWAP1 SWAP2 SWAP1 SWAP2 SWAP1 SWAP2 POP SSTORE PUSH1 0x0 SLOAD DUP2 PUSH1 0x3 ADD PUSH1 0x0 SWAP1 SLOAD SWAP1 PUSH2 0x100 EXP SWAP1 DIV PUSH4 0xFFFFFFFF AND PUSH4 0xFFFFFFFF AND DUP5 PUSH1 0x40 MLOAD PUSH2 0x12EE SWAP2 SWAP1 PUSH2 0x2851 JUMP JUMPDEST PUSH1 0x40 MLOAD DUP1 SWAP2 SUB SWAP1 KECCAK256 PUSH32 0xD4D0D9A1EF7F13069F1BADE752FDA515713D747EB14A8C30AE461C52916BF1C7 PUSH1 0x40 MLOAD PUSH1 0x40 MLOAD DUP1 SWAP2 SUB SWAP1 LOG4 PUSH1 0x0 DUP1 DUP2 SLOAD DUP1 SWAP3 SWAP2 SWAP1 PUSH2 0x1334 SWAP1 PUSH2 0x24AE JUMP JUMPDEST SWAP2 SWAP1 POP SSTORE POP POP POP POP JUMP JUMPDEST PUSH1 0x0 DUP1 PUSH1 0x3 PUSH1 0x0 DUP6 DUP2 MSTORE PUSH1 0x20 ADD SWAP1 DUP2 MSTORE PUSH1 0x20 ADD PUSH1 0x0 KECCAK256 SWAP1 POP PUSH1 0x6 PUSH1 0x0 DUP6 DUP2 MSTORE PUSH1 0x20 ADD SWAP1 DUP2 MSTORE PUSH1 0x20 ADD PUSH1 0x0 KECCAK256 PUSH1 0x0 DUP3 PUSH1 0x2 ADD DUP6 DUP2 SLOAD DUP2 LT PUSH2 0x1381 JUMPI PUSH2 0x1380 PUSH2 0x247F JUMP JUMPDEST JUMPDEST SWAP1 PUSH1 0x0 MSTORE PUSH1 0x20 PUSH1 0x0 KECCAK256 ADD PUSH1 0x0 SWAP1 SLOAD SWAP1 PUSH2 0x100 EXP SWAP1 DIV PUSH20 0xFFFFFFFFFFFFFFFFFFFFFFFFFFFFFFFFFFFFFFFF AND PUSH20 0xFFFFFFFFFFFFFFFFFFFFFFFFFFFFFFFFFFFFFFFF AND PUSH20 0xFFFFFFFFFFFFFFFFFFFFFFFFFFFFFFFFFFFFFFFF AND DUP2 MSTORE PUSH1 0x20 ADD SWAP1 DUP2 MSTORE PUSH1 0x20 ADD PUSH1 0x0 KECCAK256 SLOAD SWAP2 POP POP SWAP3 SWAP2 POP POP JUMP JUMPDEST PUSH1 0x0 DUP1 PUSH1 0x0 DUP1 PUSH1 0x41 DUP6 MLOAD EQ PUSH2 0x140B JUMPI PUSH1 0x0 SWAP4 POP POP POP POP PUSH2 0x14E3 JUMP JUMPDEST PUSH1 0x20 DUP6 ADD MLOAD SWAP3 POP PUSH1 0x40 DUP6 ADD MLOAD SWAP2 POP PUSH1 0x60 DUP6 ADD MLOAD PUSH1 0x0 BYTE SWAP1 POP PUSH1 0x1B DUP2 PUSH1 0xFF AND LT ISZERO PUSH2 0x143F JUMPI PUSH1 0x1B DUP2 PUSH2 0x143C SWAP2 SWAP1 PUSH2 0x2875 JUMP JUMPDEST SWAP1 POP JUMPDEST PUSH1 0x1B DUP2 PUSH1 0xFF AND EQ ISZERO DUP1 ISZERO PUSH2 0x1457 JUMPI POP PUSH1 0x1C DUP2 PUSH1 0xFF AND EQ ISZERO JUMPDEST ISZERO PUSH2 0x1468 JUMPI PUSH1 0x0 SWAP4 POP POP POP POP PUSH2 0x14E3 JUMP JUMPDEST PUSH1 0x1 DUP7 PUSH1 0x40 MLOAD PUSH1 0x20 ADD PUSH2 0x147B SWAP2 SWAP1 PUSH2 0x2919 JUMP JUMPDEST PUSH1 0x40 MLOAD PUSH1 0x20 DUP2 DUP4 SUB SUB DUP2 MSTORE SWAP1 PUSH1 0x40 MSTORE DUP1 MLOAD SWAP1 PUSH1 0x20 ADD KECCAK256 DUP3 DUP6 DUP6 PUSH1 0x40 MLOAD PUSH1 0x0 DUP2 MSTORE PUSH1 0x20 ADD PUSH1 0x40 MSTORE PUSH1 0x40 MLOAD PUSH2 0x14B1 SWAP5 SWAP4 SWAP3 SWAP2 SWAP1 PUSH2 0x294E JUMP JUMPDEST PUSH1 0x20 PUSH1 0x40 MLOAD PUSH1 0x20 DUP2 SUB SWAP1 DUP1 DUP5 SUB SWAP1 DUP6 GAS STATICCALL ISZERO DUP1 ISZERO PUSH2 0x14D3 JUMPI RETURNDATASIZE PUSH1 0x0 DUP1 RETURNDATACOPY RETURNDATASIZE PUSH1 0x0 REVERT JUMPDEST POP POP POP PUSH1 0x20 PUSH1 0x40 MLOAD SUB MLOAD SWAP4 POP POP POP POP JUMPDEST SWAP3 SWAP2 POP POP JUMP JUMPDEST PUSH1 0x0 PUSH1 0x1 PUSH1 0x7 PUSH1 0x0 DUP6 DUP2 MSTORE PUSH1 0x20 ADD SWAP1 DUP2 MSTORE PUSH1 0x20 ADD PUSH1 0x0 KECCAK256 PUSH1 0x0 DUP5 PUSH20 0xFFFFFFFFFFFFFFFFFFFFFFFFFFFFFFFFFFFFFFFF AND PUSH20 0xFFFFFFFFFFFFFFFFFFFFFFFFFFFFFFFFFFFFFFFF AND DUP2 MSTORE PUSH1 0x20 ADD SWAP1 DUP2 MSTORE PUSH1 0x20 ADD PUSH1 0x0 KECCAK256 PUSH1 0x0 PUSH2 0x100 EXP DUP2 SLOAD DUP2 PUSH1 0xFF MUL NOT AND SWAP1 DUP4 ISZERO ISZERO MUL OR SWAP1 SSTORE POP PUSH1 0x6 PUSH1 0x0 DUP5 DUP2 MSTORE PUSH1 0x20 ADD SWAP1 DUP2 MSTORE PUSH1 0x20 ADD PUSH1 0x0 KECCAK256 PUSH1 0x0 DUP6 PUSH20 0xFFFFFFFFFFFFFFFFFFFFFFFFFFFFFFFFFFFFFFFF AND PUSH20 0xFFFFFFFFFFFFFFFFFFFFFFFFFFFFFFFFFFFFFFFF AND DUP2 MSTORE PUSH1 0x20 ADD SWAP1 DUP2 MSTORE PUSH1 0x20 ADD PUSH1 0x0 KECCAK256 PUSH1 0x0 DUP2 SLOAD DUP1 SWAP3 SWAP2 SWAP1 PUSH2 0x15B5 SWAP1 PUSH2 0x24AE JUMP JUMPDEST SWAP2 SWAP1 POP SSTORE POP PUSH1 0x6 PUSH1 0x0 DUP5 DUP2 MSTORE PUSH1 0x20 ADD SWAP1 DUP2 MSTORE PUSH1 0x20 ADD PUSH1 0x0 KECCAK256 PUSH1 0x0 DUP6 PUSH20 0xFFFFFFFFFFFFFFFFFFFFFFFFFFFFFFFFFFFFFFFF AND PUSH20 0xFFFFFFFFFFFFFFFFFFFFFFFFFFFFFFFFFFFFFFFF AND DUP2 MSTORE PUSH1 0x20 ADD SWAP1 DUP2 MSTORE PUSH1 0x20 ADD PUSH1 0x0 KECCAK256 SLOAD SWAP1 POP SWAP4 SWAP3 POP POP POP JUMP JUMPDEST PUSH1 0x40 MLOAD DUP1 PUSH1 0xC0 ADD PUSH1 0x40 MSTORE DUP1 PUSH1 0x60 DUP2 MSTORE PUSH1 0x20 ADD PUSH1 0x0 PUSH20 0xFFFFFFFFFFFFFFFFFFFFFFFFFFFFFFFFFFFFFFFF AND DUP2 MSTORE PUSH1 0x20 ADD PUSH1 0x60 DUP2 MSTORE PUSH1 0x20 ADD PUSH1 0x0 PUSH4 0xFFFFFFFF AND DUP2 MSTORE PUSH1 0x20 ADD PUSH1 0x0 PUSH4 0xFFFFFFFF AND DUP2 MSTORE PUSH1 0x20 ADD PUSH1 0x0 ISZERO ISZERO DUP2 MSTORE POP SWAP1 JUMP JUMPDEST DUP3 DUP1 SLOAD PUSH2 0x167A SWAP1 PUSH2 0x23E1 JUMP JUMPDEST SWAP1 PUSH1 0x0 MSTORE PUSH1 0x20 PUSH1 0x0 KECCAK256 SWAP1 PUSH1 0x1F ADD PUSH1 0x20 SWAP1 DIV DUP2 ADD SWAP3 DUP3 PUSH2 0x169C JUMPI PUSH1 0x0 DUP6 SSTORE PUSH2 0x16E3 JUMP JUMPDEST DUP3 PUSH1 0x1F LT PUSH2 0x16B5 JUMPI DUP1 MLOAD PUSH1 0xFF NOT AND DUP4 DUP1 ADD OR DUP6 SSTORE PUSH2 0x16E3 JUMP JUMPDEST DUP3 DUP1 ADD PUSH1 0x1 ADD DUP6 SSTORE DUP3 ISZERO PUSH2 0x16E3 JUMPI SWAP2 DUP3 ADD JUMPDEST DUP3 DUP2 GT ISZERO PUSH2 0x16E2 JUMPI DUP3 MLOAD DUP3 SSTORE SWAP2 PUSH1 0x20 ADD SWAP2 SWAP1 PUSH1 0x1 ADD SWAP1 PUSH2 0x16C7 JUMP JUMPDEST JUMPDEST POP SWAP1 POP PUSH2 0x16F0 SWAP2 SWAP1 PUSH2 0x16F4 JUMP JUMPDEST POP SWAP1 JUMP JUMPDEST JUMPDEST DUP1 DUP3 GT ISZERO PUSH2 0x170D JUMPI PUSH1 0x0 DUP2 PUSH1 0x0 SWAP1 SSTORE POP PUSH1 0x1 ADD PUSH2 0x16F5 JUMP JUMPDEST POP SWAP1 JUMP JUMPDEST PUSH1 0x0 PUSH1 0x40 MLOAD SWAP1 POP SWAP1 JUMP JUMPDEST PUSH1 0x0 DUP1 REVERT JUMPDEST PUSH1 0x0 DUP1 REVERT JUMPDEST PUSH1 0x0 PUSH20 0xFFFFFFFFFFFFFFFFFFFFFFFFFFFFFFFFFFFFFFFF DUP3 AND SWAP1 POP SWAP2 SWAP1 POP JUMP JUMPDEST PUSH1 0x0 PUSH2 0x1750 DUP3 PUSH2 0x1725 JUMP JUMPDEST SWAP1 POP SWAP2 SWAP1 POP JUMP JUMPDEST PUSH2 0x1760 DUP2 PUSH2 0x1745 JUMP JUMPDEST DUP2 EQ PUSH2 0x176B JUMPI PUSH1 0x0 DUP1 REVERT JUMPDEST POP JUMP JUMPDEST PUSH1 0x0 DUP2 CALLDATALOAD SWAP1 POP PUSH2 0x177D DUP2 PUSH2 0x1757 JUMP JUMPDEST SWAP3 SWAP2 POP POP JUMP JUMPDEST PUSH1 0x0 DUP2 SWAP1 POP SWAP2 SWAP1 POP JUMP JUMPDEST PUSH2 0x1796 DUP2 PUSH2 0x1783 JUMP JUMPDEST DUP2 EQ PUSH2 0x17A1 JUMPI PUSH1 0x0 DUP1 REVERT JUMPDEST POP JUMP JUMPDEST PUSH1 0x0 DUP2 CALLDATALOAD SWAP1 POP PUSH2 0x17B3 DUP2 PUSH2 0x178D JUMP JUMPDEST SWAP3 SWAP2 POP POP JUMP JUMPDEST PUSH1 0x0 DUP1 PUSH1 0x40 DUP4 DUP6 SUB SLT ISZERO PUSH2 0x17D0 JUMPI PUSH2 0x17CF PUSH2 0x171B JUMP JUMPDEST JUMPDEST PUSH1 0x0 PUSH2 0x17DE DUP6 DUP3 DUP7 ADD PUSH2 0x176E JUMP JUMPDEST SWAP3 POP POP PUSH1 0x20 PUSH2 0x17EF DUP6 DUP3 DUP7 ADD PUSH2 0x17A4 JUMP JUMPDEST SWAP2 POP POP SWAP3 POP SWAP3 SWAP1 POP JUMP JUMPDEST PUSH1 0x0 DUP2 MLOAD SWAP1 POP SWAP2 SWAP1 POP JUMP JUMPDEST PUSH1 0x0 DUP3 DUP3 MSTORE PUSH1 0x20 DUP3 ADD SWAP1 POP SWAP3 SWAP2 POP POP JUMP JUMPDEST PUSH1 0x0 DUP2 SWAP1 POP PUSH1 0x20 DUP3 ADD SWAP1 POP SWAP2 SWAP1 POP JUMP JUMPDEST PUSH1 0x0 DUP2 MLOAD SWAP1 POP SWAP2 SWAP1 POP JUMP JUMPDEST PUSH1 0x0 DUP3 DUP3 MSTORE PUSH1 0x20 DUP3 ADD SWAP1 POP SWAP3 SWAP2 POP POP JUMP JUMPDEST PUSH1 0x0 JUMPDEST DUP4 DUP2 LT ISZERO PUSH2 0x185F JUMPI DUP1 DUP3 ADD MLOAD DUP2 DUP5 ADD MSTORE PUSH1 0x20 DUP2 ADD SWAP1 POP PUSH2 0x1844 JUMP JUMPDEST DUP4 DUP2 GT ISZERO PUSH2 0x186E JUMPI PUSH1 0x0 DUP5 DUP5 ADD MSTORE JUMPDEST POP POP POP POP JUMP JUMPDEST PUSH1 0x0 PUSH1 0x1F NOT PUSH1 0x1F DUP4 ADD AND SWAP1 POP SWAP2 SWAP1 POP JUMP JUMPDEST PUSH1 0x0 PUSH2 0x1890 DUP3 PUSH2 0x1825 JUMP JUMPDEST PUSH2 0x189A DUP2 DUP6 PUSH2 0x1830 JUMP JUMPDEST SWAP4 POP PUSH2 0x18AA DUP2 DUP6 PUSH1 0x20 DUP7 ADD PUSH2 0x1841 JUMP JUMPDEST PUSH2 0x18B3 DUP2 PUSH2 0x1874 JUMP JUMPDEST DUP5 ADD SWAP2 POP POP SWAP3 SWAP2 POP POP JUMP JUMPDEST PUSH2 0x18C7 DUP2 PUSH2 0x1745 JUMP JUMPDEST DUP3 MSTORE POP POP JUMP JUMPDEST PUSH1 0x0 DUP2 MLOAD SWAP1 POP SWAP2 SWAP1 POP JUMP JUMPDEST PUSH1 0x0 DUP3 DUP3 MSTORE PUSH1 0x20 DUP3 ADD SWAP1 POP SWAP3 SWAP2 POP POP JUMP JUMPDEST PUSH1 0x0 DUP2 SWAP1 POP PUSH1 0x20 DUP3 ADD SWAP1 POP SWAP2 SWAP1 POP JUMP JUMPDEST PUSH1 0x0 PUSH2 0x1905 DUP4 DUP4 PUSH2 0x18BE JUMP JUMPDEST PUSH1 0x20 DUP4 ADD SWAP1 POP SWAP3 SWAP2 POP POP JUMP JUMPDEST PUSH1 0x0 PUSH1 0x20 DUP3 ADD SWAP1 POP SWAP2 SWAP1 POP JUMP JUMPDEST PUSH1 0x0 PUSH2 0x1929 DUP3 PUSH2 0x18CD JUMP JUMPDEST PUSH2 0x1933 DUP2 DUP6 PUSH2 0x18D8 JUMP JUMPDEST SWAP4 POP PUSH2 0x193E DUP4 PUSH2 0x18E9 JUMP JUMPDEST DUP1 PUSH1 0x0 JUMPDEST DUP4 DUP2 LT ISZERO PUSH2 0x196F JUMPI DUP2 MLOAD PUSH2 0x1956 DUP9 DUP3 PUSH2 0x18F9 JUMP JUMPDEST SWAP8 POP PUSH2 0x1961 DUP4 PUSH2 0x1911 JUMP JUMPDEST SWAP3 POP POP PUSH1 0x1 DUP2 ADD SWAP1 POP PUSH2 0x1942 JUMP JUMPDEST POP DUP6 SWAP4 POP POP POP POP SWAP3 SWAP2 POP POP JUMP JUMPDEST PUSH1 0x0 PUSH4 0xFFFFFFFF DUP3 AND SWAP1 POP SWAP2 SWAP1 POP JUMP JUMPDEST PUSH2 0x1995 DUP2 PUSH2 0x197C JUMP JUMPDEST DUP3 MSTORE POP POP JUMP JUMPDEST PUSH1 0x0 DUP2 ISZERO ISZERO SWAP1 POP SWAP2 SWAP1 POP JUMP JUMPDEST PUSH2 0x19B0 DUP2 PUSH2 0x199B JUMP JUMPDEST DUP3 MSTORE POP POP JUMP JUMPDEST PUSH1 0x0 PUSH1 0xC0 DUP4 ADD PUSH1 0x0 DUP4 ADD MLOAD DUP5 DUP3 SUB PUSH1 0x0 DUP7 ADD MSTORE PUSH2 0x19D3 DUP3 DUP3 PUSH2 0x1885 JUMP JUMPDEST SWAP2 POP POP PUSH1 0x20 DUP4 ADD MLOAD PUSH2 0x19E8 PUSH1 0x20 DUP7 ADD DUP3 PUSH2 0x18BE JUMP JUMPDEST POP PUSH1 0x40 DUP4 ADD MLOAD DUP5 DUP3 SUB PUSH1 0x40 DUP7 ADD MSTORE PUSH2 0x1A00 DUP3 DUP3 PUSH2 0x191E JUMP JUMPDEST SWAP2 POP POP PUSH1 0x60 DUP4 ADD MLOAD PUSH2 0x1A15 PUSH1 0x60 DUP7 ADD DUP3 PUSH2 0x198C JUMP JUMPDEST POP PUSH1 0x80 DUP4 ADD MLOAD PUSH2 0x1A28 PUSH1 0x80 DUP7 ADD DUP3 PUSH2 0x198C JUMP JUMPDEST POP PUSH1 0xA0 DUP4 ADD MLOAD PUSH2 0x1A3B PUSH1 0xA0 DUP7 ADD DUP3 PUSH2 0x19A7 JUMP JUMPDEST POP DUP1 SWAP2 POP POP SWAP3 SWAP2 POP POP JUMP JUMPDEST PUSH1 0x0 PUSH2 0x1A52 DUP4 DUP4 PUSH2 0x19B6 JUMP JUMPDEST SWAP1 POP SWAP3 SWAP2 POP POP JUMP JUMPDEST PUSH1 0x0 PUSH1 0x20 DUP3 ADD SWAP1 POP SWAP2 SWAP1 POP JUMP JUMPDEST PUSH1 0x0 PUSH2 0x1A72 DUP3 PUSH2 0x17F9 JUMP JUMPDEST PUSH2 0x1A7C DUP2 DUP6 PUSH2 0x1804 JUMP JUMPDEST SWAP4 POP DUP4 PUSH1 0x20 DUP3 MUL DUP6 ADD PUSH2 0x1A8E DUP6 PUSH2 0x1815 JUMP JUMPDEST DUP1 PUSH1 0x0 JUMPDEST DUP6 DUP2 LT ISZERO PUSH2 0x1ACA JUMPI DUP5 DUP5 SUB DUP10 MSTORE DUP2 MLOAD PUSH2 0x1AAB DUP6 DUP3 PUSH2 0x1A46 JUMP JUMPDEST SWAP5 POP PUSH2 0x1AB6 DUP4 PUSH2 0x1A5A JUMP JUMPDEST SWAP3 POP PUSH1 0x20 DUP11 ADD SWAP10 POP POP PUSH1 0x1 DUP2 ADD SWAP1 POP PUSH2 0x1A92 JUMP JUMPDEST POP DUP3 SWAP8 POP DUP8 SWAP6 POP POP POP POP POP POP SWAP3 SWAP2 POP POP JUMP JUMPDEST PUSH1 0x0 PUSH1 0x20 DUP3 ADD SWAP1 POP DUP2 DUP2 SUB PUSH1 0x0 DUP4 ADD MSTORE PUSH2 0x1AF6 DUP2 DUP5 PUSH2 0x1A67 JUMP JUMPDEST SWAP1 POP SWAP3 SWAP2 POP POP JUMP JUMPDEST PUSH1 0x0 PUSH1 0x20 DUP3 DUP5 SUB SLT ISZERO PUSH2 0x1B14 JUMPI PUSH2 0x1B13 PUSH2 0x171B JUMP JUMPDEST JUMPDEST PUSH1 0x0 PUSH2 0x1B22 DUP5 DUP3 DUP6 ADD PUSH2 0x17A4 JUMP JUMPDEST SWAP2 POP POP SWAP3 SWAP2 POP POP JUMP JUMPDEST PUSH1 0x0 PUSH1 0xC0 DUP4 ADD PUSH1 0x0 DUP4 ADD MLOAD DUP5 DUP3 SUB PUSH1 0x0 DUP7 ADD MSTORE PUSH2 0x1B48 DUP3 DUP3 PUSH2 0x1885 JUMP JUMPDEST SWAP2 POP POP PUSH1 0x20 DUP4 ADD MLOAD PUSH2 0x1B5D PUSH1 0x20 DUP7 ADD DUP3 PUSH2 0x18BE JUMP JUMPDEST POP PUSH1 0x40 DUP4 ADD MLOAD DUP5 DUP3 SUB PUSH1 0x40 DUP7 ADD MSTORE PUSH2 0x1B75 DUP3 DUP3 PUSH2 0x191E JUMP JUMPDEST SWAP2 POP POP PUSH1 0x60 DUP4 ADD MLOAD PUSH2 0x1B8A PUSH1 0x60 DUP7 ADD DUP3 PUSH2 0x198C JUMP JUMPDEST POP PUSH1 0x80 DUP4 ADD MLOAD PUSH2 0x1B9D PUSH1 0x80 DUP7 ADD DUP3 PUSH2 0x198C JUMP JUMPDEST POP PUSH1 0xA0 DUP4 ADD MLOAD PUSH2 0x1BB0 PUSH1 0xA0 DUP7 ADD DUP3 PUSH2 0x19A7 JUMP JUMPDEST POP DUP1 SWAP2 POP POP SWAP3 SWAP2 POP POP JUMP JUMPDEST PUSH1 0x0 PUSH1 0x20 DUP3 ADD SWAP1 POP DUP2 DUP2 SUB PUSH1 0x0 DUP4 ADD MSTORE PUSH2 0x1BD5 DUP2 DUP5 PUSH2 0x1B2B JUMP JUMPDEST SWAP1 POP SWAP3 SWAP2 POP POP JUMP JUMPDEST PUSH2 0x1BE6 DUP2 PUSH2 0x1783 JUMP JUMPDEST DUP3 MSTORE POP POP JUMP JUMPDEST PUSH1 0x0 PUSH1 0x20 DUP3 ADD SWAP1 POP PUSH2 0x1C01 PUSH1 0x0 DUP4 ADD DUP5 PUSH2 0x1BDD JUMP JUMPDEST SWAP3 SWAP2 POP POP JUMP JUMPDEST PUSH1 0x0 PUSH1 0x20 DUP3 DUP5 SUB SLT ISZERO PUSH2 0x1C1D JUMPI PUSH2 0x1C1C PUSH2 0x171B JUMP JUMPDEST JUMPDEST PUSH1 0x0 PUSH2 0x1C2B DUP5 DUP3 DUP6 ADD PUSH2 0x176E JUMP JUMPDEST SWAP2 POP POP SWAP3 SWAP2 POP POP JUMP JUMPDEST PUSH1 0x0 DUP3 DUP3 MSTORE PUSH1 0x20 DUP3 ADD SWAP1 POP SWAP3 SWAP2 POP POP JUMP JUMPDEST PUSH1 0x0 PUSH2 0x1C50 DUP3 PUSH2 0x1825 JUMP JUMPDEST PUSH2 0x1C5A DUP2 DUP6 PUSH2 0x1C34 JUMP JUMPDEST SWAP4 POP PUSH2 0x1C6A DUP2 DUP6 PUSH1 0x20 DUP7 ADD PUSH2 0x1841 JUMP JUMPDEST PUSH2 0x1C73 DUP2 PUSH2 0x1874 JUMP JUMPDEST DUP5 ADD SWAP2 POP POP SWAP3 SWAP2 POP POP JUMP JUMPDEST PUSH2 0x1C87 DUP2 PUSH2 0x1745 JUMP JUMPDEST DUP3 MSTORE POP POP JUMP JUMPDEST PUSH2 0x1C96 DUP2 PUSH2 0x197C JUMP JUMPDEST DUP3 MSTORE POP POP JUMP JUMPDEST PUSH2 0x1CA5 DUP2 PUSH2 0x199B JUMP JUMPDEST DUP3 MSTORE POP POP JUMP JUMPDEST PUSH1 0x0 PUSH1 0xA0 DUP3 ADD SWAP1 POP DUP2 DUP2 SUB PUSH1 0x0 DUP4 ADD MSTORE PUSH2 0x1CC5 DUP2 DUP9 PUSH2 0x1C45 JUMP JUMPDEST SWAP1 POP PUSH2 0x1CD4 PUSH1 0x20 DUP4 ADD DUP8 PUSH2 0x1C7E JUMP JUMPDEST PUSH2 0x1CE1 PUSH1 0x40 DUP4 ADD DUP7 PUSH2 0x1C8D JUMP JUMPDEST PUSH2 0x1CEE PUSH1 0x60 DUP4 ADD DUP6 PUSH2 0x1C8D JUMP JUMPDEST PUSH2 0x1CFB PUSH1 0x80 DUP4 ADD DUP5 PUSH2 0x1C9C JUMP JUMPDEST SWAP7 SWAP6 POP POP POP POP POP POP JUMP JUMPDEST PUSH1 0x0 DUP3 DUP3 MSTORE PUSH1 0x20 DUP3 ADD SWAP1 POP SWAP3 SWAP2 POP POP JUMP JUMPDEST PUSH1 0x0 PUSH2 0x1D21 DUP3 PUSH2 0x18CD JUMP JUMPDEST PUSH2 0x1D2B DUP2 DUP6 PUSH2 0x1D05 JUMP JUMPDEST SWAP4 POP PUSH2 0x1D36 DUP4 PUSH2 0x18E9 JUMP JUMPDEST DUP1 PUSH1 0x0 JUMPDEST DUP4 DUP2 LT ISZERO PUSH2 0x1D67 JUMPI DUP2 MLOAD PUSH2 0x1D4E DUP9 DUP3 PUSH2 0x18F9 JUMP JUMPDEST SWAP8 POP PUSH2 0x1D59 DUP4 PUSH2 0x1911 JUMP JUMPDEST SWAP3 POP POP PUSH1 0x1 DUP2 ADD SWAP1 POP PUSH2 0x1D3A JUMP JUMPDEST POP DUP6 SWAP4 POP POP POP POP SWAP3 SWAP2 POP POP JUMP JUMPDEST PUSH1 0x0 PUSH1 0x20 DUP3 ADD SWAP1 POP DUP2 DUP2 SUB PUSH1 0x0 DUP4 ADD MSTORE PUSH2 0x1D8E DUP2 DUP5 PUSH2 0x1D16 JUMP JUMPDEST SWAP1 POP SWAP3 SWAP2 POP POP JUMP JUMPDEST PUSH1 0x0 DUP2 MLOAD SWAP1 POP SWAP2 SWAP1 POP JUMP JUMPDEST PUSH1 0x0 DUP3 DUP3 MSTORE PUSH1 0x20 DUP3 ADD SWAP1 POP SWAP3 SWAP2 POP POP JUMP JUMPDEST PUSH1 0x0 DUP2 SWAP1 POP PUSH1 0x20 DUP3 ADD SWAP1 POP SWAP2 SWAP1 POP JUMP JUMPDEST PUSH2 0x1DCB DUP2 PUSH2 0x1783 JUMP JUMPDEST DUP3 MSTORE POP POP JUMP JUMPDEST PUSH1 0x0 PUSH2 0x1DDD DUP4 DUP4 PUSH2 0x1DC2 JUMP JUMPDEST PUSH1 0x20 DUP4 ADD SWAP1 POP SWAP3 SWAP2 POP POP JUMP JUMPDEST PUSH1 0x0 PUSH1 0x20 DUP3 ADD SWAP1 POP SWAP2 SWAP1 POP JUMP JUMPDEST PUSH1 0x0 PUSH2 0x1E01 DUP3 PUSH2 0x1D96 JUMP JUMPDEST PUSH2 0x1E0B DUP2 DUP6 PUSH2 0x1DA1 JUMP JUMPDEST SWAP4 POP PUSH2 0x1E16 DUP4 PUSH2 0x1DB2 JUMP JUMPDEST DUP1 PUSH1 0x0 JUMPDEST DUP4 DUP2 LT ISZERO PUSH2 0x1E47 JUMPI DUP2 MLOAD PUSH2 0x1E2E DUP9 DUP3 PUSH2 0x1DD1 JUMP JUMPDEST SWAP8 POP PUSH2 0x1E39 DUP4 PUSH2 0x1DE9 JUMP JUMPDEST SWAP3 POP POP PUSH1 0x1 DUP2 ADD SWAP1 POP PUSH2 0x1E1A JUMP JUMPDEST POP DUP6 SWAP4 POP POP POP POP SWAP3 SWAP2 POP POP JUMP JUMPDEST PUSH1 0x0 PUSH1 0x60 DUP3 ADD SWAP1 POP DUP2 DUP2 SUB PUSH1 0x0 DUP4 ADD MSTORE PUSH2 0x1E6E DUP2 DUP7 PUSH2 0x1DF6 JUMP JUMPDEST SWAP1 POP PUSH2 0x1E7D PUSH1 0x20 DUP4 ADD DUP6 PUSH2 0x1C7E JUMP JUMPDEST PUSH2 0x1E8A PUSH1 0x40 DUP4 ADD DUP5 PUSH2 0x1BDD JUMP JUMPDEST SWAP5 SWAP4 POP POP POP POP JUMP JUMPDEST PUSH1 0x0 DUP1 PUSH1 0x0 DUP1 PUSH1 0x80 DUP6 DUP8 SUB SLT ISZERO PUSH2 0x1EAC JUMPI PUSH2 0x1EAB PUSH2 0x171B JUMP JUMPDEST JUMPDEST PUSH1 0x0 PUSH2 0x1EBA DUP8 DUP3 DUP9 ADD PUSH2 0x176E JUMP JUMPDEST SWAP5 POP POP PUSH1 0x20 PUSH2 0x1ECB DUP8 DUP3 DUP9 ADD PUSH2 0x17A4 JUMP JUMPDEST SWAP4 POP POP PUSH1 0x40 PUSH2 0x1EDC DUP8 DUP3 DUP9 ADD PUSH2 0x17A4 JUMP JUMPDEST SWAP3 POP POP PUSH1 0x60 PUSH2 0x1EED DUP8 DUP3 DUP9 ADD PUSH2 0x17A4 JUMP JUMPDEST SWAP2 POP POP SWAP3 SWAP6 SWAP2 SWAP5 POP SWAP3 POP JUMP JUMPDEST PUSH1 0x0 DUP2 SWAP1 POP SWAP2 SWAP1 POP JUMP JUMPDEST PUSH2 0x1F0C DUP2 PUSH2 0x1EF9 JUMP JUMPDEST DUP3 MSTORE POP POP JUMP JUMPDEST PUSH1 0x0 PUSH1 0x20 DUP3 ADD SWAP1 POP PUSH2 0x1F27 PUSH1 0x0 DUP4 ADD DUP5 PUSH2 0x1F03 JUMP JUMPDEST SWAP3 SWAP2 POP POP JUMP JUMPDEST PUSH1 0x0 DUP1 REVERT JUMPDEST PUSH1 0x0 DUP1 REVERT JUMPDEST PUSH32 0x4E487B7100000000000000000000000000000000000000000000000000000000 PUSH1 0x0 MSTORE PUSH1 0x41 PUSH1 0x4 MSTORE PUSH1 0x24 PUSH1 0x0 REVERT JUMPDEST PUSH2 0x1F6F DUP3 PUSH2 0x1874 JUMP JUMPDEST DUP2 ADD DUP2 DUP2 LT PUSH8 0xFFFFFFFFFFFFFFFF DUP3 GT OR ISZERO PUSH2 0x1F8E JUMPI PUSH2 0x1F8D PUSH2 0x1F37 JUMP JUMPDEST JUMPDEST DUP1 PUSH1 0x40 MSTORE POP POP POP JUMP JUMPDEST PUSH1 0x0 PUSH2 0x1FA1 PUSH2 0x1711 JUMP JUMPDEST SWAP1 POP PUSH2 0x1FAD DUP3 DUP3 PUSH2 0x1F66 JUMP JUMPDEST SWAP2 SWAP1 POP JUMP JUMPDEST PUSH1 0x0 PUSH8 0xFFFFFFFFFFFFFFFF DUP3 GT ISZERO PUSH2 0x1FCD JUMPI PUSH2 0x1FCC PUSH2 0x1F37 JUMP JUMPDEST JUMPDEST PUSH2 0x1FD6 DUP3 PUSH2 0x1874 JUMP JUMPDEST SWAP1 POP PUSH1 0x20 DUP2 ADD SWAP1 POP SWAP2 SWAP1 POP JUMP JUMPDEST DUP3 DUP2 DUP4 CALLDATACOPY PUSH1 0x0 DUP4 DUP4 ADD MSTORE POP POP POP JUMP JUMPDEST PUSH1 0x0 PUSH2 0x2005 PUSH2 0x2000 DUP5 PUSH2 0x1FB2 JUMP JUMPDEST PUSH2 0x1F97 JUMP JUMPDEST SWAP1 POP DUP3 DUP2 MSTORE PUSH1 0x20 DUP2 ADD DUP5 DUP5 DUP5 ADD GT ISZERO PUSH2 0x2021 JUMPI PUSH2 0x2020 PUSH2 0x1F32 JUMP JUMPDEST JUMPDEST PUSH2 0x202C DUP5 DUP3 DUP6 PUSH2 0x1FE3 JUMP JUMPDEST POP SWAP4 SWAP3 POP POP POP JUMP JUMPDEST PUSH1 0x0 DUP3 PUSH1 0x1F DUP4 ADD SLT PUSH2 0x2049 JUMPI PUSH2 0x2048 PUSH2 0x1F2D JUMP JUMPDEST JUMPDEST DUP2 CALLDATALOAD PUSH2 0x2059 DUP5 DUP3 PUSH1 0x20 DUP7 ADD PUSH2 0x1FF2 JUMP JUMPDEST SWAP2 POP POP SWAP3 SWAP2 POP POP JUMP JUMPDEST PUSH1 0x0 DUP1 PUSH1 0x0 DUP1 PUSH1 0x80 DUP6 DUP8 SUB SLT ISZERO PUSH2 0x207C JUMPI PUSH2 0x207B PUSH2 0x171B JUMP JUMPDEST JUMPDEST PUSH1 0x0 PUSH2 0x208A DUP8 DUP3 DUP9 ADD PUSH2 0x176E JUMP JUMPDEST SWAP5 POP POP PUSH1 0x20 PUSH2 0x209B DUP8 DUP3 DUP9 ADD PUSH2 0x17A4 JUMP JUMPDEST SWAP4 POP POP PUSH1 0x40 PUSH2 0x20AC DUP8 DUP3 DUP9 ADD PUSH2 0x17A4 JUMP JUMPDEST SWAP3 POP POP PUSH1 0x60 DUP6 ADD CALLDATALOAD PUSH8 0xFFFFFFFFFFFFFFFF DUP2 GT ISZERO PUSH2 0x20CD JUMPI PUSH2 0x20CC PUSH2 0x1720 JUMP JUMPDEST JUMPDEST PUSH2 0x20D9 DUP8 DUP3 DUP9 ADD PUSH2 0x2034 JUMP JUMPDEST SWAP2 POP POP SWAP3 SWAP6 SWAP2 SWAP5 POP SWAP3 POP JUMP JUMPDEST PUSH1 0x0 PUSH8 0xFFFFFFFFFFFFFFFF DUP3 GT ISZERO PUSH2 0x2100 JUMPI PUSH2 0x20FF PUSH2 0x1F37 JUMP JUMPDEST JUMPDEST PUSH2 0x2109 DUP3 PUSH2 0x1874 JUMP JUMPDEST SWAP1 POP PUSH1 0x20 DUP2 ADD SWAP1 POP SWAP2 SWAP1 POP JUMP JUMPDEST PUSH1 0x0 PUSH2 0x2129 PUSH2 0x2124 DUP5 PUSH2 0x20E5 JUMP JUMPDEST PUSH2 0x1F97 JUMP JUMPDEST SWAP1 POP DUP3 DUP2 MSTORE PUSH1 0x20 DUP2 ADD DUP5 DUP5 DUP5 ADD GT ISZERO PUSH2 0x2145 JUMPI PUSH2 0x2144 PUSH2 0x1F32 JUMP JUMPDEST JUMPDEST PUSH2 0x2150 DUP5 DUP3 DUP6 PUSH2 0x1FE3 JUMP JUMPDEST POP SWAP4 SWAP3 POP POP POP JUMP JUMPDEST PUSH1 0x0 DUP3 PUSH1 0x1F DUP4 ADD SLT PUSH2 0x216D JUMPI PUSH2 0x216C PUSH2 0x1F2D JUMP JUMPDEST JUMPDEST DUP2 CALLDATALOAD PUSH2 0x217D DUP5 DUP3 PUSH1 0x20 DUP7 ADD PUSH2 0x2116 JUMP JUMPDEST SWAP2 POP POP SWAP3 SWAP2 POP POP JUMP JUMPDEST PUSH2 0x218F DUP2 PUSH2 0x197C JUMP JUMPDEST DUP2 EQ PUSH2 0x219A JUMPI PUSH1 0x0 DUP1 REVERT JUMPDEST POP JUMP JUMPDEST PUSH1 0x0 DUP2 CALLDATALOAD SWAP1 POP PUSH2 0x21AC DUP2 PUSH2 0x2186 JUMP JUMPDEST SWAP3 SWAP2 POP POP JUMP JUMPDEST PUSH1 0x0 DUP1 PUSH1 0x40 DUP4 DUP6 SUB SLT ISZERO PUSH2 0x21C9 JUMPI PUSH2 0x21C8 PUSH2 0x171B JUMP JUMPDEST JUMPDEST PUSH1 0x0 DUP4 ADD CALLDATALOAD PUSH8 0xFFFFFFFFFFFFFFFF DUP2 GT ISZERO PUSH2 0x21E7 JUMPI PUSH2 0x21E6 PUSH2 0x1720 JUMP JUMPDEST JUMPDEST PUSH2 0x21F3 DUP6 DUP3 DUP7 ADD PUSH2 0x2158 JUMP JUMPDEST SWAP3 POP POP PUSH1 0x20 PUSH2 0x2204 DUP6 DUP3 DUP7 ADD PUSH2 0x219D JUMP JUMPDEST SWAP2 POP POP SWAP3 POP SWAP3 SWAP1 POP JUMP JUMPDEST PUSH32 0x79657420746F20637265617465206120706F6C6C000000000000000000000000 PUSH1 0x0 DUP3 ADD MSTORE POP JUMP JUMPDEST PUSH1 0x0 PUSH2 0x2244 PUSH1 0x14 DUP4 PUSH2 0x1C34 JUMP JUMPDEST SWAP2 POP PUSH2 0x224F DUP3 PUSH2 0x220E JUMP JUMPDEST PUSH1 0x20 DUP3 ADD SWAP1 POP SWAP2 SWAP1 POP JUMP JUMPDEST PUSH1 0x0 PUSH1 0x20 DUP3 ADD SWAP1 POP DUP2 DUP2 SUB PUSH1 0x0 DUP4 ADD MSTORE PUSH2 0x2273 DUP2 PUSH2 0x2237 JUMP JUMPDEST SWAP1 POP SWAP2 SWAP1 POP JUMP JUMPDEST PUSH32 0x4E487B7100000000000000000000000000000000000000000000000000000000 PUSH1 0x0 MSTORE PUSH1 0x1 PUSH1 0x4 MSTORE PUSH1 0x24 PUSH1 0x0 REVERT JUMPDEST PUSH32 0x6D6178696D756D206E6F206F662063616E646964617465207065722073657373 PUSH1 0x0 DUP3 ADD MSTORE PUSH32 0x696F6E2072656769737465726564000000000000000000000000000000000000 PUSH1 0x20 DUP3 ADD MSTORE POP JUMP JUMPDEST PUSH1 0x0 PUSH2 0x2305 PUSH1 0x2E DUP4 PUSH2 0x1C34 JUMP JUMPDEST SWAP2 POP PUSH2 0x2310 DUP3 PUSH2 0x22A9 JUMP JUMPDEST PUSH1 0x40 DUP3 ADD SWAP1 POP SWAP2 SWAP1 POP JUMP JUMPDEST PUSH1 0x0 PUSH1 0x20 DUP3 ADD SWAP1 POP DUP2 DUP2 SUB PUSH1 0x0 DUP4 ADD MSTORE PUSH2 0x2334 DUP2 PUSH2 0x22F8 JUMP JUMPDEST SWAP1 POP SWAP2 SWAP1 POP JUMP JUMPDEST PUSH32 0x4E487B7100000000000000000000000000000000000000000000000000000000 PUSH1 0x0 MSTORE PUSH1 0x11 PUSH1 0x4 MSTORE PUSH1 0x24 PUSH1 0x0 REVERT JUMPDEST PUSH1 0x0 PUSH2 0x2375 DUP3 PUSH2 0x197C JUMP JUMPDEST SWAP2 POP PUSH4 0xFFFFFFFF DUP3 EQ ISZERO PUSH2 0x238C JUMPI PUSH2 0x238B PUSH2 0x233B JUMP JUMPDEST JUMPDEST PUSH1 0x1 DUP3 ADD SWAP1 POP SWAP2 SWAP1 POP JUMP JUMPDEST PUSH1 0x0 PUSH1 0x20 DUP3 ADD SWAP1 POP PUSH2 0x23AC PUSH1 0x0 DUP4 ADD DUP5 PUSH2 0x1C7E JUMP JUMPDEST SWAP3 SWAP2 POP POP JUMP JUMPDEST PUSH32 0x4E487B7100000000000000000000000000000000000000000000000000000000 PUSH1 0x0 MSTORE PUSH1 0x22 PUSH1 0x4 MSTORE PUSH1 0x24 PUSH1 0x0 REVERT JUMPDEST PUSH1 0x0 PUSH1 0x2 DUP3 DIV SWAP1 POP PUSH1 0x1 DUP3 AND DUP1 PUSH2 0x23F9 JUMPI PUSH1 0x7F DUP3 AND SWAP2 POP JUMPDEST PUSH1 0x20 DUP3 LT DUP2 EQ ISZERO PUSH2 0x240D JUMPI PUSH2 0x240C PUSH2 0x23B2 JUMP JUMPDEST JUMPDEST POP SWAP2 SWAP1 POP JUMP JUMPDEST PUSH32 0x4E6F20706F6C6C20637265617465640000000000000000000000000000000000 PUSH1 0x0 DUP3 ADD MSTORE POP JUMP JUMPDEST PUSH1 0x0 PUSH2 0x2449 PUSH1 0xF DUP4 PUSH2 0x1C34 JUMP JUMPDEST SWAP2 POP PUSH2 0x2454 DUP3 PUSH2 0x2413 JUMP JUMPDEST PUSH1 0x20 DUP3 ADD SWAP1 POP SWAP2 SWAP1 POP JUMP JUMPDEST PUSH1 0x0 PUSH1 0x20 DUP3 ADD SWAP1 POP DUP2 DUP2 SUB PUSH1 0x0 DUP4 ADD MSTORE PUSH2 0x2478 DUP2 PUSH2 0x243C JUMP JUMPDEST SWAP1 POP SWAP2 SWAP1 POP JUMP JUMPDEST PUSH32 0x4E487B7100000000000000000000000000000000000000000000000000000000 PUSH1 0x0 MSTORE PUSH1 0x32 PUSH1 0x4 MSTORE PUSH1 0x24 PUSH1 0x0 REVERT JUMPDEST PUSH1 0x0 PUSH2 0x24B9 DUP3 PUSH2 0x1783 JUMP JUMPDEST SWAP2 POP PUSH32 0xFFFFFFFFFFFFFFFFFFFFFFFFFFFFFFFFFFFFFFFFFFFFFFFFFFFFFFFFFFFFFFFF DUP3 EQ ISZERO PUSH2 0x24EC JUMPI PUSH2 0x24EB PUSH2 0x233B JUMP JUMPDEST JUMPDEST PUSH1 0x1 DUP3 ADD SWAP1 POP SWAP2 SWAP1 POP JUMP JUMPDEST PUSH1 0x0 DUP2 PUSH1 0x60 SHL SWAP1 POP SWAP2 SWAP1 POP JUMP JUMPDEST PUSH1 0x0 PUSH2 0x250F DUP3 PUSH2 0x24F7 JUMP JUMPDEST SWAP1 POP SWAP2 SWAP1 POP JUMP JUMPDEST PUSH1 0x0 PUSH2 0x2521 DUP3 PUSH2 0x2504 JUMP JUMPDEST SWAP1 POP SWAP2 SWAP1 POP JUMP JUMPDEST PUSH2 0x2539 PUSH2 0x2534 DUP3 PUSH2 0x1745 JUMP JUMPDEST PUSH2 0x2516 JUMP JUMPDEST DUP3 MSTORE POP POP JUMP JUMPDEST PUSH1 0x0 DUP2 SWAP1 POP SWAP3 SWAP2 POP POP JUMP JUMPDEST PUSH32 0x6D6574617472616E73616374696F6E20566F74696E6720000000000000000000 PUSH1 0x0 DUP3 ADD MSTORE POP JUMP JUMPDEST PUSH1 0x0 PUSH2 0x2580 PUSH1 0x17 DUP4 PUSH2 0x253F JUMP JUMPDEST SWAP2 POP PUSH2 0x258B DUP3 PUSH2 0x254A JUMP JUMPDEST PUSH1 0x17 DUP3 ADD SWAP1 POP SWAP2 SWAP1 POP JUMP JUMPDEST PUSH1 0x0 DUP2 SWAP1 POP SWAP2 SWAP1 POP JUMP JUMPDEST PUSH2 0x25B1 PUSH2 0x25AC DUP3 PUSH2 0x1783 JUMP JUMPDEST PUSH2 0x2596 JUMP JUMPDEST DUP3 MSTORE POP POP JUMP JUMPDEST PUSH1 0x0 PUSH2 0x25C3 DUP3 DUP9 PUSH2 0x2528 JUMP JUMPDEST PUSH1 0x14 DUP3 ADD SWAP2 POP PUSH2 0x25D2 DUP3 PUSH2 0x2573 JUMP JUMPDEST SWAP2 POP PUSH2 0x25DE DUP3 DUP8 PUSH2 0x2528 JUMP JUMPDEST PUSH1 0x14 DUP3 ADD SWAP2 POP PUSH2 0x25EE DUP3 DUP7 PUSH2 0x25A0 JUMP JUMPDEST PUSH1 0x20 DUP3 ADD SWAP2 POP PUSH2 0x25FE DUP3 DUP6 PUSH2 0x25A0 JUMP JUMPDEST PUSH1 0x20 DUP3 ADD SWAP2 POP PUSH2 0x260E DUP3 DUP5 PUSH2 0x25A0 JUMP JUMPDEST PUSH1 0x20 DUP3 ADD SWAP2 POP DUP2 SWAP1 POP SWAP7 SWAP6 POP POP POP POP POP POP JUMP JUMPDEST PUSH32 0x54686973206164647265737320646F6573206E6F742065786973742061732061 PUSH1 0x0 DUP3 ADD MSTORE PUSH32 0x2063616E64696461746500000000000000000000000000000000000000000000 PUSH1 0x20 DUP3 ADD MSTORE POP JUMP JUMPDEST PUSH1 0x0 PUSH2 0x267D PUSH1 0x2A DUP4 PUSH2 0x1C34 JUMP JUMPDEST SWAP2 POP PUSH2 0x2688 DUP3 PUSH2 0x2621 JUMP JUMPDEST PUSH1 0x40 DUP3 ADD SWAP1 POP SWAP2 SWAP1 POP JUMP JUMPDEST PUSH1 0x0 PUSH1 0x20 DUP3 ADD SWAP1 POP DUP2 DUP2 SUB PUSH1 0x0 DUP4 ADD MSTORE PUSH2 0x26AC DUP2 PUSH2 0x2670 JUMP JUMPDEST SWAP1 POP SWAP2 SWAP1 POP JUMP JUMPDEST PUSH32 0x766F74696E672068617320656E64656400000000000000000000000000000000 PUSH1 0x0 DUP3 ADD MSTORE POP JUMP JUMPDEST PUSH1 0x0 PUSH2 0x26E9 PUSH1 0x10 DUP4 PUSH2 0x1C34 JUMP JUMPDEST SWAP2 POP PUSH2 0x26F4 DUP3 PUSH2 0x26B3 JUMP JUMPDEST PUSH1 0x20 DUP3 ADD SWAP1 POP SWAP2 SWAP1 POP JUMP JUMPDEST PUSH1 0x0 PUSH1 0x20 DUP3 ADD SWAP1 POP DUP2 DUP2 SUB PUSH1 0x0 DUP4 ADD MSTORE PUSH2 0x2718 DUP2 PUSH2 0x26DC JUMP JUMPDEST SWAP1 POP SWAP2 SWAP1 POP JUMP JUMPDEST PUSH32 0x596F7520616C726561647920766F746564000000000000000000000000000000 PUSH1 0x0 DUP3 ADD MSTORE POP JUMP JUMPDEST PUSH1 0x0 PUSH2 0x2755 PUSH1 0x11 DUP4 PUSH2 0x1C34 JUMP JUMPDEST SWAP2 POP PUSH2 0x2760 DUP3 PUSH2 0x271F JUMP JUMPDEST PUSH1 0x20 DUP3 ADD SWAP1 POP SWAP2 SWAP1 POP JUMP JUMPDEST PUSH1 0x0 PUSH1 0x20 DUP3 ADD SWAP1 POP DUP2 DUP2 SUB PUSH1 0x0 DUP4 ADD MSTORE PUSH2 0x2784 DUP2 PUSH2 0x2748 JUMP JUMPDEST SWAP1 POP SWAP2 SWAP1 POP JUMP JUMPDEST PUSH1 0x0 PUSH1 0x40 DUP3 ADD SWAP1 POP PUSH2 0x27A0 PUSH1 0x0 DUP4 ADD DUP6 PUSH2 0x1C7E JUMP JUMPDEST PUSH2 0x27AD PUSH1 0x20 DUP4 ADD DUP5 PUSH2 0x1C9C JUMP JUMPDEST SWAP4 SWAP3 POP POP POP JUMP JUMPDEST PUSH32 0x6E6F74207468652063686169726D616E00000000000000000000000000000000 PUSH1 0x0 DUP3 ADD MSTORE POP JUMP JUMPDEST PUSH1 0x0 PUSH2 0x27EA PUSH1 0x10 DUP4 PUSH2 0x1C34 JUMP JUMPDEST SWAP2 POP PUSH2 0x27F5 DUP3 PUSH2 0x27B4 JUMP JUMPDEST PUSH1 0x20 DUP3 ADD SWAP1 POP SWAP2 SWAP1 POP JUMP JUMPDEST PUSH1 0x0 PUSH1 0x20 DUP3 ADD SWAP1 POP DUP2 DUP2 SUB PUSH1 0x0 DUP4 ADD MSTORE PUSH2 0x2819 DUP2 PUSH2 0x27DD JUMP JUMPDEST SWAP1 POP SWAP2 SWAP1 POP JUMP JUMPDEST PUSH1 0x0 PUSH2 0x282B DUP3 PUSH2 0x1825 JUMP JUMPDEST PUSH2 0x2835 DUP2 DUP6 PUSH2 0x253F JUMP JUMPDEST SWAP4 POP PUSH2 0x2845 DUP2 DUP6 PUSH1 0x20 DUP7 ADD PUSH2 0x1841 JUMP JUMPDEST DUP1 DUP5 ADD SWAP2 POP POP SWAP3 SWAP2 POP POP JUMP JUMPDEST PUSH1 0x0 PUSH2 0x285D DUP3 DUP5 PUSH2 0x2820 JUMP JUMPDEST SWAP2 POP DUP2 SWAP1 POP SWAP3 SWAP2 POP POP JUMP JUMPDEST PUSH1 0x0 PUSH1 0xFF DUP3 AND SWAP1 POP SWAP2 SWAP1 POP JUMP JUMPDEST PUSH1 0x0 PUSH2 0x2880 DUP3 PUSH2 0x2868 JUMP JUMPDEST SWAP2 POP PUSH2 0x288B DUP4 PUSH2 0x2868 JUMP JUMPDEST SWAP3 POP DUP3 PUSH1 0xFF SUB DUP3 GT ISZERO PUSH2 0x28A1 JUMPI PUSH2 0x28A0 PUSH2 0x233B JUMP JUMPDEST JUMPDEST DUP3 DUP3 ADD SWAP1 POP SWAP3 SWAP2 POP POP JUMP JUMPDEST PUSH32 0x19457468657265756D205369676E6564204D6573736167653A0A333200000000 PUSH1 0x0 DUP3 ADD MSTORE POP JUMP JUMPDEST PUSH1 0x0 PUSH2 0x28E2 PUSH1 0x1C DUP4 PUSH2 0x253F JUMP JUMPDEST SWAP2 POP PUSH2 0x28ED DUP3 PUSH2 0x28AC JUMP JUMPDEST PUSH1 0x1C DUP3 ADD SWAP1 POP SWAP2 SWAP1 POP JUMP JUMPDEST PUSH1 0x0 DUP2 SWAP1 POP SWAP2 SWAP1 POP JUMP JUMPDEST PUSH2 0x2913 PUSH2 0x290E DUP3 PUSH2 0x1EF9 JUMP JUMPDEST PUSH2 0x28F8 JUMP JUMPDEST DUP3 MSTORE POP POP JUMP JUMPDEST PUSH1 0x0 PUSH2 0x2924 DUP3 PUSH2 0x28D5 JUMP JUMPDEST SWAP2 POP PUSH2 0x2930 DUP3 DUP5 PUSH2 0x2902 JUMP JUMPDEST PUSH1 0x20 DUP3 ADD SWAP2 POP DUP2 SWAP1 POP SWAP3 SWAP2 POP POP JUMP JUMPDEST PUSH2 0x2948 DUP2 PUSH2 0x2868 JUMP JUMPDEST DUP3 MSTORE POP POP JUMP JUMPDEST PUSH1 0x0 PUSH1 0x80 DUP3 ADD SWAP1 POP PUSH2 0x2963 PUSH1 0x0 DUP4 ADD DUP8 PUSH2 0x1F03 JUMP JUMPDEST PUSH2 0x2970 PUSH1 0x20 DUP4 ADD DUP7 PUSH2 0x293F JUMP JUMPDEST PUSH2 0x297D PUSH1 0x40 DUP4 ADD DUP6 PUSH2 0x1F03 JUMP JUMPDEST PUSH2 0x298A PUSH1 0x60 DUP4 ADD DUP5 PUSH2 0x1F03 JUMP JUMPDEST SWAP6 SWAP5 POP POP POP POP POP JUMP INVALID LOG2 PUSH5 0x6970667358 0x22 SLT KECCAK256 SWAP15 0x22 0xE5 JUMP CALLDATACOPY CODECOPY PUSH14 0xBCA01AFF47EE6E55DACD9F66A98F 0x4C DUP1 0xDD 0xE5 DUP12 PUSH17 0x22E3B55DEE64736F6C634300080A003300 "
				},
				"gasEstimates": {
					"creation": {
						"codeDepositCost": "2139400",
						"executionCost": "24386",
						"totalCost": "2163786"
					},
					"external": {
						"AddCandidate(address,uint256)": "infinite",
						"AllCandidates(uint256)": "infinite",
						"NoOfRegisteredCandidates(uint256)": "infinite",
						"VotingKey(uint256)": "infinite",
						"VotingStruct(uint256)": "infinite",
						"createPoll(string,uint32)": "infinite",
						"getArrayOfStruct()": "infinite",
						"getVotePollProps(uint256)": "infinite",
						"metaVotingHash(address,uint256,uint256,uint256)": "infinite",
						"replayNonce(address)": "2859",
						"revealWinner(uint256)": "infinite",
						"setVotingState(uint256)": "32588",
						"vote(address,uint256,uint256,bytes)": "infinite",
						"votingPoll(uint256)": "infinite"
					},
					"internal": {
						"countVote(address,uint256,address)": "51269",
						"getPosition(uint256,uint256)": "6717",
						"getSigner(bytes32,bytes memory)": "infinite"
					}
				},
				"methodIdentifiers": {
					"AddCandidate(address,uint256)": "049d1c8b",
					"AllCandidates(uint256)": "8ac3c3c2",
					"NoOfRegisteredCandidates(uint256)": "66c5343b",
					"VotingKey(uint256)": "ae928e3e",
					"VotingStruct(uint256)": "8321f397",
					"createPoll(string,uint32)": "f762f4c0",
					"getArrayOfStruct()": "21da751c",
					"getVotePollProps(uint256)": "278e2c90",
					"metaVotingHash(address,uint256,uint256,uint256)": "bfe2e25d",
					"replayNonce(address)": "67d407df",
					"revealWinner(uint256)": "8ccb59e8",
					"setVotingState(uint256)": "c57003cc",
					"vote(address,uint256,uint256,bytes)": "c10d6cec",
					"votingPoll(uint256)": "e615f104"
				}
			},
			"storageLayout": {
				"storage": [
					{
						"astId": 4,
						"contract": "src/voting.sol:Voting",
						"label": "id",
						"offset": 0,
						"slot": "0",
						"type": "t_uint256"
					},
					{
						"astId": 21,
						"contract": "src/voting.sol:Voting",
						"label": "VotingKey",
						"offset": 0,
						"slot": "1",
						"type": "t_array(t_uint256)dyn_storage"
					},
					{
						"astId": 25,
						"contract": "src/voting.sol:Voting",
						"label": "VotingStruct",
						"offset": 0,
						"slot": "2",
						"type": "t_array(t_struct(VotingPoll)18_storage)dyn_storage"
					},
					{
						"astId": 30,
						"contract": "src/voting.sol:Voting",
						"label": "votingPoll",
						"offset": 0,
						"slot": "3",
						"type": "t_mapping(t_uint256,t_struct(VotingPoll)18_storage)"
					},
					{
						"astId": 34,
						"contract": "src/voting.sol:Voting",
						"label": "replayNonce",
						"offset": 0,
						"slot": "4",
						"type": "t_mapping(t_address,t_uint256)"
					},
					{
						"astId": 40,
						"contract": "src/voting.sol:Voting",
						"label": "CandidateStatus",
						"offset": 0,
						"slot": "5",
						"type": "t_mapping(t_uint256,t_mapping(t_address,t_bool))"
					},
					{
						"astId": 46,
						"contract": "src/voting.sol:Voting",
						"label": "CandidateVote",
						"offset": 0,
						"slot": "6",
						"type": "t_mapping(t_uint256,t_mapping(t_address,t_uint256))"
					},
					{
						"astId": 52,
						"contract": "src/voting.sol:Voting",
						"label": "hasVoted",
						"offset": 0,
						"slot": "7",
						"type": "t_mapping(t_uint256,t_mapping(t_address,t_bool))"
					}
				],
				"types": {
					"t_address": {
						"encoding": "inplace",
						"label": "address",
						"numberOfBytes": "20"
					},
					"t_array(t_address)dyn_storage": {
						"base": "t_address",
						"encoding": "dynamic_array",
						"label": "address[]",
						"numberOfBytes": "32"
					},
					"t_array(t_struct(VotingPoll)18_storage)dyn_storage": {
						"base": "t_struct(VotingPoll)18_storage",
						"encoding": "dynamic_array",
						"label": "struct Voting.VotingPoll[]",
						"numberOfBytes": "32"
					},
					"t_array(t_uint256)dyn_storage": {
						"base": "t_uint256",
						"encoding": "dynamic_array",
						"label": "uint256[]",
						"numberOfBytes": "32"
					},
					"t_bool": {
						"encoding": "inplace",
						"label": "bool",
						"numberOfBytes": "1"
					},
					"t_mapping(t_address,t_bool)": {
						"encoding": "mapping",
						"key": "t_address",
						"label": "mapping(address => bool)",
						"numberOfBytes": "32",
						"value": "t_bool"
					},
					"t_mapping(t_address,t_uint256)": {
						"encoding": "mapping",
						"key": "t_address",
						"label": "mapping(address => uint256)",
						"numberOfBytes": "32",
						"value": "t_uint256"
					},
					"t_mapping(t_uint256,t_mapping(t_address,t_bool))": {
						"encoding": "mapping",
						"key": "t_uint256",
						"label": "mapping(uint256 => mapping(address => bool))",
						"numberOfBytes": "32",
						"value": "t_mapping(t_address,t_bool)"
					},
					"t_mapping(t_uint256,t_mapping(t_address,t_uint256))": {
						"encoding": "mapping",
						"key": "t_uint256",
						"label": "mapping(uint256 => mapping(address => uint256))",
						"numberOfBytes": "32",
						"value": "t_mapping(t_address,t_uint256)"
					},
					"t_mapping(t_uint256,t_struct(VotingPoll)18_storage)": {
						"encoding": "mapping",
						"key": "t_uint256",
						"label": "mapping(uint256 => struct Voting.VotingPoll)",
						"numberOfBytes": "32",
						"value": "t_struct(VotingPoll)18_storage"
					},
					"t_string_storage": {
						"encoding": "bytes",
						"label": "string",
						"numberOfBytes": "32"
					},
					"t_struct(VotingPoll)18_storage": {
						"encoding": "inplace",
						"label": "struct Voting.VotingPoll",
						"members": [
							{
								"astId": 6,
								"contract": "src/voting.sol:Voting",
								"label": "name",
								"offset": 0,
								"slot": "0",
								"type": "t_string_storage"
							},
							{
								"astId": 8,
								"contract": "src/voting.sol:Voting",
								"label": "chairman",
								"offset": 0,
								"slot": "1",
								"type": "t_address"
							},
							{
								"astId": 11,
								"contract": "src/voting.sol:Voting",
								"label": "candidates",
								"offset": 0,
								"slot": "2",
								"type": "t_array(t_address)dyn_storage"
							},
							{
								"astId": 13,
								"contract": "src/voting.sol:Voting",
								"label": "maxNoOfCandidates",
								"offset": 0,
								"slot": "3",
								"type": "t_uint32"
							},
							{
								"astId": 15,
								"contract": "src/voting.sol:Voting",
								"label": "currentNoOfCandidates",
								"offset": 4,
								"slot": "3",
								"type": "t_uint32"
							},
							{
								"astId": 17,
								"contract": "src/voting.sol:Voting",
								"label": "voting",
								"offset": 8,
								"slot": "3",
								"type": "t_bool"
							}
						],
						"numberOfBytes": "128"
					},
					"t_uint256": {
						"encoding": "inplace",
						"label": "uint256",
						"numberOfBytes": "32"
					},
					"t_uint32": {
						"encoding": "inplace",
						"label": "uint32",
						"numberOfBytes": "4"
					}
				}
			},
			"userdoc": {
				"kind": "user",
				"methods": {},
				"version": 1
			}
		}
	}
}