{
	"src/voting.sol": {
		"Voting": {
			"abi": [
				{
					"anonymous": false,
					"inputs": [
						{
							"indexed": false,
							"internalType": "address",
							"name": "NewCandidate",
							"type": "address"
						}
					],
					"name": "becameCandidate",
					"type": "event"
				},
				{
					"anonymous": false,
					"inputs": [
						{
							"indexed": true,
							"internalType": "string",
							"name": "_name",
							"type": "string"
						},
						{
							"indexed": true,
							"internalType": "uint32",
							"name": "ExpectedNoOfCandidate",
							"type": "uint32"
						},
						{
							"indexed": true,
							"internalType": "address",
							"name": "chairman",
							"type": "address"
						}
					],
					"name": "pollCreated",
					"type": "event"
				},
				{
					"anonymous": false,
					"inputs": [
						{
							"indexed": true,
							"internalType": "bool",
							"name": "status",
							"type": "bool"
						}
					],
					"name": "voteStatus",
					"type": "event"
				},
				{
					"anonymous": false,
					"inputs": [
						{
							"indexed": false,
							"internalType": "address",
							"name": "_candidate",
							"type": "address"
						},
						{
							"indexed": false,
							"internalType": "bool",
							"name": "status",
							"type": "bool"
						}
					],
					"name": "voted",
					"type": "event"
				},
				{
					"inputs": [
						{
							"internalType": "address",
							"name": "_newCandidate",
							"type": "address"
						},
						{
							"internalType": "string",
							"name": "_name",
							"type": "string"
						}
					],
					"name": "AddCandidate",
					"outputs": [],
					"stateMutability": "nonpayable",
					"type": "function"
				},
				{
					"inputs": [
						{
							"internalType": "string",
							"name": "_name",
							"type": "string"
						}
					],
					"name": "AllCandidates",
					"outputs": [
						{
							"internalType": "address[]",
							"name": "_candidates",
							"type": "address[]"
						}
					],
					"stateMutability": "view",
					"type": "function"
				},
				{
					"inputs": [
						{
							"internalType": "string",
							"name": "_name",
							"type": "string"
						}
					],
					"name": "NoOfRegisteredCandidates",
					"outputs": [
						{
							"internalType": "uint256",
							"name": "",
							"type": "uint256"
						}
					],
					"stateMutability": "view",
					"type": "function"
				},
				{
					"inputs": [
						{
							"internalType": "uint256",
							"name": "",
							"type": "uint256"
						}
					],
					"name": "VotingKey",
					"outputs": [
						{
							"internalType": "string",
							"name": "",
							"type": "string"
						}
					],
					"stateMutability": "view",
					"type": "function"
				},
				{
					"inputs": [
						{
							"internalType": "string",
							"name": "_name",
							"type": "string"
						},
						{
							"internalType": "uint32",
							"name": "ExpectedNoOfCandidate",
							"type": "uint32"
						}
					],
					"name": "createPoll",
					"outputs": [
						{
							"internalType": "string",
							"name": "",
							"type": "string"
						},
						{
							"internalType": "uint256",
							"name": "Candidate",
							"type": "uint256"
						}
					],
					"stateMutability": "nonpayable",
					"type": "function"
				},
				{
					"inputs": [],
					"name": "getStructProps",
					"outputs": [
						{
							"components": [
								{
									"internalType": "string",
									"name": "name",
									"type": "string"
								},
								{
									"internalType": "address",
									"name": "chairman",
									"type": "address"
								},
								{
									"internalType": "address[]",
									"name": "candidates",
									"type": "address[]"
								},
								{
									"internalType": "uint32",
									"name": "maxNoOfCandidates",
									"type": "uint32"
								},
								{
									"internalType": "uint32",
									"name": "currentNoOfCandidates",
									"type": "uint32"
								},
								{
									"internalType": "bool",
									"name": "voting",
									"type": "bool"
								}
							],
							"internalType": "struct Voting.retVotingPoll[]",
							"name": "RVP",
							"type": "tuple[]"
						}
					],
					"stateMutability": "view",
					"type": "function"
				},
				{
					"inputs": [
						{
							"internalType": "address",
							"name": "Cand",
							"type": "address"
						},
						{
							"internalType": "string",
							"name": "_name",
							"type": "string"
						},
						{
							"internalType": "uint256",
							"name": "nonce",
							"type": "uint256"
						},
						{
							"internalType": "uint256",
							"name": "time",
							"type": "uint256"
						}
					],
					"name": "metaVotingHash",
					"outputs": [
						{
							"internalType": "bytes32",
							"name": "",
							"type": "bytes32"
						}
					],
					"stateMutability": "view",
					"type": "function"
				},
				{
					"inputs": [
						{
							"internalType": "address",
							"name": "",
							"type": "address"
						}
					],
					"name": "replayNonce",
					"outputs": [
						{
							"internalType": "uint256",
							"name": "",
							"type": "uint256"
						}
					],
					"stateMutability": "view",
					"type": "function"
				},
				{
					"inputs": [
						{
							"internalType": "string",
							"name": "_name",
							"type": "string"
						}
					],
					"name": "revealWinner",
					"outputs": [
						{
							"internalType": "uint256[]",
							"name": "CV",
							"type": "uint256[]"
						},
						{
							"internalType": "address",
							"name": "",
							"type": "address"
						},
						{
							"internalType": "uint256",
							"name": "",
							"type": "uint256"
						}
					],
					"stateMutability": "view",
					"type": "function"
				},
				{
					"inputs": [
						{
							"internalType": "string",
							"name": "_name",
							"type": "string"
						}
					],
					"name": "setVotingState",
					"outputs": [],
					"stateMutability": "nonpayable",
					"type": "function"
				},
				{
					"inputs": [
						{
							"internalType": "address",
							"name": "Cand",
							"type": "address"
						},
						{
							"internalType": "string",
							"name": "_name",
							"type": "string"
						},
						{
							"internalType": "uint256",
							"name": "nonce",
							"type": "uint256"
						},
						{
							"internalType": "bytes",
							"name": "signature",
							"type": "bytes"
						}
					],
					"name": "vote",
					"outputs": [],
					"stateMutability": "nonpayable",
					"type": "function"
				},
				{
					"inputs": [
						{
							"internalType": "string",
							"name": "",
							"type": "string"
						}
					],
					"name": "votingPoll",
					"outputs": [
						{
							"internalType": "address",
							"name": "chairman",
							"type": "address"
						},
						{
							"internalType": "uint32",
							"name": "maxNoOfCandidates",
							"type": "uint32"
						},
						{
							"internalType": "uint32",
							"name": "currentNoOfCandidates",
							"type": "uint32"
						},
						{
							"internalType": "bool",
							"name": "voting",
							"type": "bool"
						}
					],
					"stateMutability": "view",
					"type": "function"
				}
			],
			"devdoc": {
				"kind": "dev",
				"methods": {},
				"version": 1
			},
			"evm": {
				"assembly": "    /* \"src/voting.sol\":63:6095  contract Voting{... */\n  mstore(0x40, 0x80)\n  callvalue\n  dup1\n  iszero\n  tag_1\n  jumpi\n  0x00\n  dup1\n  revert\ntag_1:\n  pop\n  dataSize(sub_0)\n  dup1\n  dataOffset(sub_0)\n  0x00\n  codecopy\n  0x00\n  return\nstop\n\nsub_0: assembly {\n        /* \"src/voting.sol\":63:6095  contract Voting{... */\n      mstore(0x40, 0x80)\n      callvalue\n      dup1\n      iszero\n      tag_1\n      jumpi\n      0x00\n      dup1\n      revert\n    tag_1:\n      pop\n      jumpi(tag_2, lt(calldatasize, 0x04))\n      shr(0xe0, calldataload(0x00))\n      dup1\n      0x8579cacd\n      gt\n      tag_15\n      jumpi\n      dup1\n      0x8579cacd\n      eq\n      tag_9\n      jumpi\n      dup1\n      0xae928e3e\n      eq\n      tag_10\n      jumpi\n      dup1\n      0xaf7cbc0d\n      eq\n      tag_11\n      jumpi\n      dup1\n      0xf0e4de22\n      eq\n      tag_12\n      jumpi\n      dup1\n      0xf762f4c0\n      eq\n      tag_13\n      jumpi\n      dup1\n      0xf8437061\n      eq\n      tag_14\n      jumpi\n      jump(tag_2)\n    tag_15:\n      dup1\n      0x01ff993b\n      eq\n      tag_3\n      jumpi\n      dup1\n      0x12f0da4b\n      eq\n      tag_4\n      jumpi\n      dup1\n      0x4fcf1f39\n      eq\n      tag_5\n      jumpi\n      dup1\n      0x57f53967\n      eq\n      tag_6\n      jumpi\n      dup1\n      0x63ee965a\n      eq\n      tag_7\n      jumpi\n      dup1\n      0x67d407df\n      eq\n      tag_8\n      jumpi\n    tag_2:\n      0x00\n      dup1\n      revert\n        /* \"src/voting.sol\":5277:5505  function metaVotingHash(address Cand, string memory _name, uint256 nonce, uint256 time) public view returns(bytes32){... */\n    tag_3:\n      tag_16\n      0x04\n      dup1\n      calldatasize\n      sub\n      dup2\n      add\n      swap1\n      tag_17\n      swap2\n      swap1\n      tag_18\n      jump\t// in\n    tag_17:\n      tag_19\n      jump\t// in\n    tag_16:\n      mload(0x40)\n      tag_20\n      swap2\n      swap1\n      tag_21\n      jump\t// in\n    tag_20:\n      mload(0x40)\n      dup1\n      swap2\n      sub\n      swap1\n      return\n        /* \"src/voting.sol\":2671:3229  function vote(address Cand, string memory _name , uint256 nonce, bytes memory signature) external  isCandidate(Cand, _name) StillVoting(_name){... */\n    tag_4:\n      tag_22\n      0x04\n      dup1\n      calldatasize\n      sub\n      dup2\n      add\n      swap1\n      tag_23\n      swap2\n      swap1\n      tag_24\n      jump\t// in\n    tag_23:\n      tag_25\n      jump\t// in\n    tag_22:\n      stop\n        /* \"src/voting.sol\":4074:4666  function revealWinner( string memory _name) external view returns ( uint[] memory CV, address, uint){... */\n    tag_5:\n      tag_26\n      0x04\n      dup1\n      calldatasize\n      sub\n      dup2\n      add\n      swap1\n      tag_27\n      swap2\n      swap1\n      tag_28\n      jump\t// in\n    tag_27:\n      tag_29\n      jump\t// in\n    tag_26:\n      mload(0x40)\n      tag_30\n      swap4\n      swap3\n      swap2\n      swap1\n      tag_31\n      jump\t// in\n    tag_30:\n      mload(0x40)\n      dup1\n      swap2\n      sub\n      swap1\n      return\n        /* \"src/voting.sol\":2156:2668  function AddCandidate(address _newCandidate, string memory _name) external{... */\n    tag_6:\n      tag_32\n      0x04\n      dup1\n      calldatasize\n      sub\n      dup2\n      add\n      swap1\n      tag_33\n      swap2\n      swap1\n      tag_34\n      jump\t// in\n    tag_33:\n      tag_35\n      jump\t// in\n    tag_32:\n      stop\n        /* \"src/voting.sol\":818:865  mapping(string => VotingPoll) public votingPoll */\n    tag_7:\n      tag_36\n      0x04\n      dup1\n      calldatasize\n      sub\n      dup2\n      add\n      swap1\n      tag_37\n      swap2\n      swap1\n      tag_28\n      jump\t// in\n    tag_37:\n      tag_38\n      jump\t// in\n    tag_36:\n      mload(0x40)\n      tag_39\n      swap5\n      swap4\n      swap3\n      swap2\n      swap1\n      tag_40\n      jump\t// in\n    tag_39:\n      mload(0x40)\n      dup1\n      swap2\n      sub\n      swap1\n      return\n        /* \"src/voting.sol\":867:914  mapping (address => uint256) public replayNonce */\n    tag_8:\n      tag_41\n      0x04\n      dup1\n      calldatasize\n      sub\n      dup2\n      add\n      swap1\n      tag_42\n      swap2\n      swap1\n      tag_43\n      jump\t// in\n    tag_42:\n      tag_44\n      jump\t// in\n    tag_41:\n      mload(0x40)\n      tag_45\n      swap2\n      swap1\n      tag_46\n      jump\t// in\n    tag_45:\n      mload(0x40)\n      dup1\n      swap2\n      sub\n      swap1\n      return\n        /* \"src/voting.sol\":3719:3890  function NoOfRegisteredCandidates( string memory _name) public view returns(uint){... */\n    tag_9:\n      tag_47\n      0x04\n      dup1\n      calldatasize\n      sub\n      dup2\n      add\n      swap1\n      tag_48\n      swap2\n      swap1\n      tag_28\n      jump\t// in\n    tag_48:\n      tag_49\n      jump\t// in\n    tag_47:\n      mload(0x40)\n      tag_50\n      swap2\n      swap1\n      tag_46\n      jump\t// in\n    tag_50:\n      mload(0x40)\n      dup1\n      swap2\n      sub\n      swap1\n      return\n        /* \"src/voting.sol\":729:754  string[] public VotingKey */\n    tag_10:\n      tag_51\n      0x04\n      dup1\n      calldatasize\n      sub\n      dup2\n      add\n      swap1\n      tag_52\n      swap2\n      swap1\n      tag_53\n      jump\t// in\n    tag_52:\n      tag_54\n      jump\t// in\n    tag_51:\n      mload(0x40)\n      tag_55\n      swap2\n      swap1\n      tag_56\n      jump\t// in\n    tag_55:\n      mload(0x40)\n      dup1\n      swap2\n      sub\n      swap1\n      return\n        /* \"src/voting.sol\":3898:4071  function AllCandidates( string memory _name) public view returns(address[] memory _candidates){... */\n    tag_11:\n      tag_57\n      0x04\n      dup1\n      calldatasize\n      sub\n      dup2\n      add\n      swap1\n      tag_58\n      swap2\n      swap1\n      tag_28\n      jump\t// in\n    tag_58:\n      tag_59\n      jump\t// in\n    tag_57:\n      mload(0x40)\n      tag_60\n      swap2\n      swap1\n      tag_61\n      jump\t// in\n    tag_60:\n      mload(0x40)\n      dup1\n      swap2\n      sub\n      swap1\n      return\n        /* \"src/voting.sol\":3481:3716  function setVotingState( string memory _name) external {... */\n    tag_12:\n      tag_62\n      0x04\n      dup1\n      calldatasize\n      sub\n      dup2\n      add\n      swap1\n      tag_63\n      swap2\n      swap1\n      tag_28\n      jump\t// in\n    tag_63:\n      tag_64\n      jump\t// in\n    tag_62:\n      stop\n        /* \"src/voting.sol\":1770:2152  function createPoll(string memory _name, uint32 ExpectedNoOfCandidate) external returns(string memory, uint Candidate){... */\n    tag_13:\n      tag_65\n      0x04\n      dup1\n      calldatasize\n      sub\n      dup2\n      add\n      swap1\n      tag_66\n      swap2\n      swap1\n      tag_67\n      jump\t// in\n    tag_66:\n      tag_68\n      jump\t// in\n    tag_65:\n      mload(0x40)\n      tag_69\n      swap3\n      swap2\n      swap1\n      tag_70\n      jump\t// in\n    tag_69:\n      mload(0x40)\n      dup1\n      swap2\n      sub\n      swap1\n      return\n        /* \"src/voting.sol\":4858:5272  function getStructProps() external view returns(retVotingPoll[] memory RVP){... */\n    tag_14:\n      tag_71\n      tag_72\n      jump\t// in\n    tag_71:\n      mload(0x40)\n      tag_73\n      swap2\n      swap1\n      tag_74\n      jump\t// in\n    tag_73:\n      mload(0x40)\n      dup1\n      swap2\n      sub\n      swap1\n      return\n        /* \"src/voting.sol\":5277:5505  function metaVotingHash(address Cand, string memory _name, uint256 nonce, uint256 time) public view returns(bytes32){... */\n    tag_19:\n        /* \"src/voting.sol\":5385:5392  bytes32 */\n      0x00\n        /* \"src/voting.sol\":5441:5445  this */\n      address\n        /* \"src/voting.sol\":5474:5478  Cand */\n      dup6\n        /* \"src/voting.sol\":5480:5485  _name */\n      dup6\n        /* \"src/voting.sol\":5487:5492  nonce */\n      dup6\n        /* \"src/voting.sol\":5494:5498  time */\n      dup6\n        /* \"src/voting.sol\":5416:5499  abi.encodePacked(address(this),\"metatransaction Voting \", Cand, _name, nonce, time) */\n      add(0x20, mload(0x40))\n      tag_76\n      swap6\n      swap5\n      swap4\n      swap3\n      swap2\n      swap1\n      tag_77\n      jump\t// in\n    tag_76:\n      mload(0x40)\n      0x20\n      dup2\n      dup4\n      sub\n      sub\n      dup2\n      mstore\n      swap1\n      0x40\n      mstore\n        /* \"src/voting.sol\":5406:5500  keccak256(abi.encodePacked(address(this),\"metatransaction Voting \", Cand, _name, nonce, time)) */\n      dup1\n      mload\n      swap1\n      0x20\n      add\n      keccak256\n        /* \"src/voting.sol\":5399:5500  return keccak256(abi.encodePacked(address(this),\"metatransaction Voting \", Cand, _name, nonce, time)) */\n      swap1\n      pop\n        /* \"src/voting.sol\":5277:5505  function metaVotingHash(address Cand, string memory _name, uint256 nonce, uint256 time) public view returns(bytes32){... */\n      swap5\n      swap4\n      pop\n      pop\n      pop\n      pop\n      jump\t// out\n        /* \"src/voting.sol\":2671:3229  function vote(address Cand, string memory _name , uint256 nonce, bytes memory signature) external  isCandidate(Cand, _name) StillVoting(_name){... */\n    tag_25:\n        /* \"src/voting.sol\":2782:2786  Cand */\n      dup4\n        /* \"src/voting.sol\":2788:2793  _name */\n      dup4\n        /* \"src/voting.sol\":1338:1359  VotingPoll storage VP */\n      0x00\n        /* \"src/voting.sol\":1362:1372  votingPoll */\n      0x01\n        /* \"src/voting.sol\":1373:1378  _name */\n      dup3\n        /* \"src/voting.sol\":1362:1379  votingPoll[_name] */\n      mload(0x40)\n      tag_79\n      swap2\n      swap1\n      tag_80\n      jump\t// in\n    tag_79:\n      swap1\n      dup2\n      mstore\n      0x20\n      add\n      mload(0x40)\n      dup1\n      swap2\n      sub\n      swap1\n      keccak256\n        /* \"src/voting.sol\":1338:1379  VotingPoll storage VP = votingPoll[_name] */\n      swap1\n      pop\n        /* \"src/voting.sol\":1419:1423  true */\n      0x01\n        /* \"src/voting.sol\":1393:1423  VP.CandidateStatus[Cand]==true */\n      iszero\n      iszero\n        /* \"src/voting.sol\":1393:1395  VP */\n      dup2\n        /* \"src/voting.sol\":1393:1411  VP.CandidateStatus */\n      0x03\n      add\n        /* \"src/voting.sol\":1393:1417  VP.CandidateStatus[Cand] */\n      0x00\n        /* \"src/voting.sol\":1412:1416  Cand */\n      dup6\n        /* \"src/voting.sol\":1393:1417  VP.CandidateStatus[Cand] */\n      0xffffffffffffffffffffffffffffffffffffffff\n      and\n      0xffffffffffffffffffffffffffffffffffffffff\n      and\n      dup2\n      mstore\n      0x20\n      add\n      swap1\n      dup2\n      mstore\n      0x20\n      add\n      0x00\n      keccak256\n      0x00\n      swap1\n      sload\n      swap1\n      0x0100\n      exp\n      swap1\n      div\n      0xff\n      and\n        /* \"src/voting.sol\":1393:1423  VP.CandidateStatus[Cand]==true */\n      iszero\n      iszero\n      eq\n        /* \"src/voting.sol\":1385:1469  require(VP.CandidateStatus[Cand]==true,'This address does not exist as a candidate') */\n      tag_81\n      jumpi\n      mload(0x40)\n      0x08c379a000000000000000000000000000000000000000000000000000000000\n      dup2\n      mstore\n      0x04\n      add\n      tag_82\n      swap1\n      tag_83\n      jump\t// in\n    tag_82:\n      mload(0x40)\n      dup1\n      swap2\n      sub\n      swap1\n      revert\n    tag_81:\n        /* \"src/voting.sol\":2807:2812  _name */\n      dup6\n        /* \"src/voting.sol\":1530:1551  VotingPoll storage VP */\n      0x00\n        /* \"src/voting.sol\":1554:1564  votingPoll */\n      0x01\n        /* \"src/voting.sol\":1565:1570  _name */\n      dup3\n        /* \"src/voting.sol\":1554:1571  votingPoll[_name] */\n      mload(0x40)\n      tag_85\n      swap2\n      swap1\n      tag_80\n      jump\t// in\n    tag_85:\n      swap1\n      dup2\n      mstore\n      0x20\n      add\n      mload(0x40)\n      dup1\n      swap2\n      sub\n      swap1\n      keccak256\n        /* \"src/voting.sol\":1530:1571  VotingPoll storage VP = votingPoll[_name] */\n      swap1\n      pop\n        /* \"src/voting.sol\":1598:1602  true */\n      0x01\n        /* \"src/voting.sol\":1585:1602  VP.voting == true */\n      iszero\n      iszero\n        /* \"src/voting.sol\":1585:1587  VP */\n      dup2\n        /* \"src/voting.sol\":1585:1594  VP.voting */\n      0x06\n      add\n      0x00\n      swap1\n      sload\n      swap1\n      0x0100\n      exp\n      swap1\n      div\n      0xff\n      and\n        /* \"src/voting.sol\":1585:1602  VP.voting == true */\n      iszero\n      iszero\n      eq\n        /* \"src/voting.sol\":1577:1623  require(VP.voting == true, \"voting has ended\") */\n      tag_86\n      jumpi\n      mload(0x40)\n      0x08c379a000000000000000000000000000000000000000000000000000000000\n      dup2\n      mstore\n      0x04\n      add\n      tag_87\n      swap1\n      tag_88\n      jump\t// in\n    tag_87:\n      mload(0x40)\n      dup1\n      swap2\n      sub\n      swap1\n      revert\n    tag_86:\n        /* \"src/voting.sol\":2820:2836  bytes32 metaHash */\n      0x00\n        /* \"src/voting.sol\":2839:2887  metaVotingHash(Cand,_name,nonce,block.timestamp) */\n      tag_90\n        /* \"src/voting.sol\":2854:2858  Cand */\n      dup11\n        /* \"src/voting.sol\":2859:2864  _name */\n      dup11\n        /* \"src/voting.sol\":2865:2870  nonce */\n      dup11\n        /* \"src/voting.sol\":2871:2886  block.timestamp */\n      timestamp\n        /* \"src/voting.sol\":2839:2853  metaVotingHash */\n      tag_19\n        /* \"src/voting.sol\":2839:2887  metaVotingHash(Cand,_name,nonce,block.timestamp) */\n      jump\t// in\n    tag_90:\n        /* \"src/voting.sol\":2820:2887  bytes32 metaHash = metaVotingHash(Cand,_name,nonce,block.timestamp) */\n      swap1\n      pop\n        /* \"src/voting.sol\":2894:2908  address signer */\n      0x00\n        /* \"src/voting.sol\":2911:2940  getSigner(metaHash,signature) */\n      tag_91\n        /* \"src/voting.sol\":2921:2929  metaHash */\n      dup3\n        /* \"src/voting.sol\":2930:2939  signature */\n      dup10\n        /* \"src/voting.sol\":2911:2920  getSigner */\n      tag_92\n        /* \"src/voting.sol\":2911:2940  getSigner(metaHash,signature) */\n      jump\t// in\n    tag_91:\n        /* \"src/voting.sol\":2894:2940  address signer = getSigner(metaHash,signature) */\n      swap1\n      pop\n        /* \"src/voting.sol\":2971:2972  0 */\n      0x00\n        /* \"src/voting.sol\":2955:2973  signer!=address(0) */\n      0xffffffffffffffffffffffffffffffffffffffff\n      and\n        /* \"src/voting.sol\":2955:2961  signer */\n      dup2\n        /* \"src/voting.sol\":2955:2973  signer!=address(0) */\n      0xffffffffffffffffffffffffffffffffffffffff\n      and\n      eq\n      iszero\n        /* \"src/voting.sol\":2947:2974  require(signer!=address(0)) */\n      tag_93\n      jumpi\n      0x00\n      dup1\n      revert\n    tag_93:\n        /* \"src/voting.sol\":2997:3008  replayNonce */\n      0x02\n        /* \"src/voting.sol\":2997:3016  replayNonce[signer] */\n      0x00\n        /* \"src/voting.sol\":3009:3015  signer */\n      dup3\n        /* \"src/voting.sol\":2997:3016  replayNonce[signer] */\n      0xffffffffffffffffffffffffffffffffffffffff\n      and\n      0xffffffffffffffffffffffffffffffffffffffff\n      and\n      dup2\n      mstore\n      0x20\n      add\n      swap1\n      dup2\n      mstore\n      0x20\n      add\n      0x00\n      keccak256\n      sload\n        /* \"src/voting.sol\":2988:2993  nonce */\n      dup10\n        /* \"src/voting.sol\":2988:3016  nonce == replayNonce[signer] */\n      eq\n        /* \"src/voting.sol\":2980:3017  require(nonce == replayNonce[signer]) */\n      tag_94\n      jumpi\n      0x00\n      dup1\n      revert\n    tag_94:\n        /* \"src/voting.sol\":3023:3034  replayNonce */\n      0x02\n        /* \"src/voting.sol\":3023:3042  replayNonce[signer] */\n      0x00\n        /* \"src/voting.sol\":3035:3041  signer */\n      dup3\n        /* \"src/voting.sol\":3023:3042  replayNonce[signer] */\n      0xffffffffffffffffffffffffffffffffffffffff\n      and\n      0xffffffffffffffffffffffffffffffffffffffff\n      and\n      dup2\n      mstore\n      0x20\n      add\n      swap1\n      dup2\n      mstore\n      0x20\n      add\n      0x00\n      keccak256\n      0x00\n        /* \"src/voting.sol\":3023:3044  replayNonce[signer]++ */\n      dup2\n      sload\n      dup1\n      swap3\n      swap2\n      swap1\n      tag_95\n      swap1\n      tag_96\n      jump\t// in\n    tag_95:\n      swap2\n      swap1\n      pop\n      sstore\n      pop\n        /* \"src/voting.sol\":3051:3072  VotingPoll storage VP */\n      0x00\n        /* \"src/voting.sol\":3075:3085  votingPoll */\n      0x01\n        /* \"src/voting.sol\":3086:3091  _name */\n      dup12\n        /* \"src/voting.sol\":3075:3092  votingPoll[_name] */\n      mload(0x40)\n      tag_97\n      swap2\n      swap1\n      tag_80\n      jump\t// in\n    tag_97:\n      swap1\n      dup2\n      mstore\n      0x20\n      add\n      mload(0x40)\n      dup1\n      swap2\n      sub\n      swap1\n      keccak256\n        /* \"src/voting.sol\":3051:3092  VotingPoll storage VP = votingPoll[_name] */\n      swap1\n      pop\n        /* \"src/voting.sol\":3130:3135  false */\n      0x00\n        /* \"src/voting.sol\":3107:3135  VP.hasVoted[signer] == false */\n      iszero\n      iszero\n        /* \"src/voting.sol\":3107:3109  VP */\n      dup2\n        /* \"src/voting.sol\":3107:3118  VP.hasVoted */\n      0x04\n      add\n        /* \"src/voting.sol\":3107:3126  VP.hasVoted[signer] */\n      0x00\n        /* \"src/voting.sol\":3119:3125  signer */\n      dup5\n        /* \"src/voting.sol\":3107:3126  VP.hasVoted[signer] */\n      0xffffffffffffffffffffffffffffffffffffffff\n      and\n      0xffffffffffffffffffffffffffffffffffffffff\n      and\n      dup2\n      mstore\n      0x20\n      add\n      swap1\n      dup2\n      mstore\n      0x20\n      add\n      0x00\n      keccak256\n      0x00\n      swap1\n      sload\n      swap1\n      0x0100\n      exp\n      swap1\n      div\n      0xff\n      and\n        /* \"src/voting.sol\":3107:3135  VP.hasVoted[signer] == false */\n      iszero\n      iszero\n      eq\n        /* \"src/voting.sol\":3099:3157  require(VP.hasVoted[signer] == false, \"You already voted\") */\n      tag_98\n      jumpi\n      mload(0x40)\n      0x08c379a000000000000000000000000000000000000000000000000000000000\n      dup2\n      mstore\n      0x04\n      add\n      tag_99\n      swap1\n      tag_100\n      jump\t// in\n    tag_99:\n      mload(0x40)\n      dup1\n      swap2\n      sub\n      swap1\n      revert\n    tag_98:\n        /* \"src/voting.sol\":3165:3195  countVote(Cand, _name, signer) */\n      tag_101\n        /* \"src/voting.sol\":3175:3179  Cand */\n      dup13\n        /* \"src/voting.sol\":3181:3186  _name */\n      dup13\n        /* \"src/voting.sol\":3188:3194  signer */\n      dup5\n        /* \"src/voting.sol\":3165:3174  countVote */\n      tag_102\n        /* \"src/voting.sol\":3165:3195  countVote(Cand, _name, signer) */\n      jump\t// in\n    tag_101:\n      pop\n        /* \"src/voting.sol\":3207:3224  voted(Cand, true) */\n      0xf3f16a15f074b71c5138107dfc7c63b80524d5411cb967caa97d8d9f12b2fd6b\n        /* \"src/voting.sol\":3213:3217  Cand */\n      dup13\n        /* \"src/voting.sol\":3219:3223  true */\n      0x01\n        /* \"src/voting.sol\":3207:3224  voted(Cand, true) */\n      mload(0x40)\n      tag_103\n      swap3\n      swap2\n      swap1\n      tag_104\n      jump\t// in\n    tag_103:\n      mload(0x40)\n      dup1\n      swap2\n      sub\n      swap1\n      log1\n        /* \"src/voting.sol\":2813:3229  {... */\n      pop\n      pop\n      pop\n        /* \"src/voting.sol\":1524:1634  {... */\n      pop\n        /* \"src/voting.sol\":1475:1476  _ */\n      pop\n        /* \"src/voting.sol\":1332:1479  {... */\n      pop\n        /* \"src/voting.sol\":2671:3229  function vote(address Cand, string memory _name , uint256 nonce, bytes memory signature) external  isCandidate(Cand, _name) StillVoting(_name){... */\n      pop\n      pop\n      pop\n      pop\n      pop\n      pop\n      jump\t// out\n        /* \"src/voting.sol\":4074:4666  function revealWinner( string memory _name) external view returns ( uint[] memory CV, address, uint){... */\n    tag_29:\n        /* \"src/voting.sol\":4142:4158  uint[] memory CV */\n      0x60\n        /* \"src/voting.sol\":4160:4167  address */\n      0x00\n        /* \"src/voting.sol\":4169:4173  uint */\n      dup1\n        /* \"src/voting.sol\":4181:4202  VotingPoll storage VP */\n      0x00\n        /* \"src/voting.sol\":4205:4215  votingPoll */\n      0x01\n        /* \"src/voting.sol\":4216:4221  _name */\n      dup6\n        /* \"src/voting.sol\":4205:4222  votingPoll[_name] */\n      mload(0x40)\n      tag_106\n      swap2\n      swap1\n      tag_80\n      jump\t// in\n    tag_106:\n      swap1\n      dup2\n      mstore\n      0x20\n      add\n      mload(0x40)\n      dup1\n      swap2\n      sub\n      swap1\n      keccak256\n        /* \"src/voting.sol\":4181:4222  VotingPoll storage VP = votingPoll[_name] */\n      swap1\n      pop\n        /* \"src/voting.sol\":4260:4261  0 */\n      0x00\n        /* \"src/voting.sol\":4237:4262  VP.chairman != address(0) */\n      0xffffffffffffffffffffffffffffffffffffffff\n      and\n        /* \"src/voting.sol\":4237:4239  VP */\n      dup2\n        /* \"src/voting.sol\":4237:4248  VP.chairman */\n      0x00\n      add\n      0x00\n      swap1\n      sload\n      swap1\n      0x0100\n      exp\n      swap1\n      div\n      0xffffffffffffffffffffffffffffffffffffffff\n      and\n        /* \"src/voting.sol\":4237:4262  VP.chairman != address(0) */\n      0xffffffffffffffffffffffffffffffffffffffff\n      and\n      eq\n      iszero\n        /* \"src/voting.sol\":4229:4282  require(VP.chairman != address(0), \"No poll created\") */\n      tag_107\n      jumpi\n      mload(0x40)\n      0x08c379a000000000000000000000000000000000000000000000000000000000\n      dup2\n      mstore\n      0x04\n      add\n      tag_108\n      swap1\n      tag_109\n      jump\t// in\n    tag_108:\n      mload(0x40)\n      dup1\n      swap2\n      sub\n      swap1\n      revert\n    tag_107:\n        /* \"src/voting.sol\":4305:4307  VP */\n      dup1\n        /* \"src/voting.sol\":4305:4318  VP.candidates */\n      0x01\n      add\n        /* \"src/voting.sol\":4305:4325  VP.candidates.length */\n      dup1\n      sload\n      swap1\n      pop\n        /* \"src/voting.sol\":4294:4326  new uint[](VP.candidates.length) */\n      0xffffffffffffffff\n      dup2\n      gt\n      iszero\n      tag_110\n      jumpi\n      tag_111\n      tag_112\n      jump\t// in\n    tag_111:\n    tag_110:\n      mload(0x40)\n      swap1\n      dup1\n      dup3\n      mstore\n      dup1\n      0x20\n      mul\n      0x20\n      add\n      dup3\n      add\n      0x40\n      mstore\n      dup1\n      iszero\n      tag_113\n      jumpi\n      dup2\n      0x20\n      add\n      0x20\n      dup3\n      mul\n      dup1\n      calldatasize\n      dup4\n      calldatacopy\n      dup1\n      dup3\n      add\n      swap2\n      pop\n      pop\n      swap1\n      pop\n    tag_113:\n      pop\n        /* \"src/voting.sol\":4289:4326  CV = new uint[](VP.candidates.length) */\n      swap4\n      pop\n        /* \"src/voting.sol\":4333:4349  uint highestVote */\n      0x00\n        /* \"src/voting.sol\":4356:4370  address winner */\n      dup1\n        /* \"src/voting.sol\":4382:4388  uint i */\n      0x00\n        /* \"src/voting.sol\":4377:4624  for (uint i =0; i <= VP.candidates.length; i++){... */\n    tag_114:\n        /* \"src/voting.sol\":4398:4400  VP */\n      dup4\n        /* \"src/voting.sol\":4398:4411  VP.candidates */\n      0x01\n      add\n        /* \"src/voting.sol\":4398:4418  VP.candidates.length */\n      dup1\n      sload\n      swap1\n      pop\n        /* \"src/voting.sol\":4393:4394  i */\n      dup2\n        /* \"src/voting.sol\":4393:4418  i <= VP.candidates.length */\n      gt\n        /* \"src/voting.sol\":4377:4624  for (uint i =0; i <= VP.candidates.length; i++){... */\n      tag_115\n      jumpi\n        /* \"src/voting.sol\":4433:4441  uint val */\n      0x00\n        /* \"src/voting.sol\":4444:4464  getPosition(_name,i) */\n      tag_117\n        /* \"src/voting.sol\":4456:4461  _name */\n      dup10\n        /* \"src/voting.sol\":4462:4463  i */\n      dup4\n        /* \"src/voting.sol\":4444:4455  getPosition */\n      tag_118\n        /* \"src/voting.sol\":4444:4464  getPosition(_name,i) */\n      jump\t// in\n    tag_117:\n        /* \"src/voting.sol\":4433:4464  uint val = getPosition(_name,i) */\n      swap1\n      pop\n        /* \"src/voting.sol\":4480:4491  highestVote */\n      dup4\n        /* \"src/voting.sol\":4474:4477  val */\n      dup2\n        /* \"src/voting.sol\":4474:4491  val > highestVote */\n      gt\n        /* \"src/voting.sol\":4471:4565  if(val > highestVote){... */\n      iszero\n      tag_119\n      jumpi\n        /* \"src/voting.sol\":4517:4520  val */\n      dup1\n        /* \"src/voting.sol\":4503:4520  highestVote = val */\n      swap4\n      pop\n        /* \"src/voting.sol\":4541:4543  VP */\n      dup5\n        /* \"src/voting.sol\":4541:4554  VP.candidates */\n      0x01\n      add\n        /* \"src/voting.sol\":4555:4556  i */\n      dup3\n        /* \"src/voting.sol\":4541:4557  VP.candidates[i] */\n      dup2\n      sload\n      dup2\n      lt\n      tag_120\n      jumpi\n      tag_121\n      tag_122\n      jump\t// in\n    tag_121:\n    tag_120:\n      swap1\n      0x00\n      mstore\n      keccak256(0x00, 0x20)\n      add\n      0x00\n      swap1\n      sload\n      swap1\n      0x0100\n      exp\n      swap1\n      div\n      0xffffffffffffffffffffffffffffffffffffffff\n      and\n        /* \"src/voting.sol\":4532:4557  winner = VP.candidates[i] */\n      swap3\n      pop\n        /* \"src/voting.sol\":4471:4565  if(val > highestVote){... */\n    tag_119:\n        /* \"src/voting.sol\":4580:4582  VP */\n      dup5\n        /* \"src/voting.sol\":4580:4596  VP.CandidateVote */\n      0x05\n      add\n        /* \"src/voting.sol\":4580:4614  VP.CandidateVote[VP.candidates[i]] */\n      0x00\n        /* \"src/voting.sol\":4597:4599  VP */\n      dup7\n        /* \"src/voting.sol\":4597:4610  VP.candidates */\n      0x01\n      add\n        /* \"src/voting.sol\":4611:4612  i */\n      dup5\n        /* \"src/voting.sol\":4597:4613  VP.candidates[i] */\n      dup2\n      sload\n      dup2\n      lt\n      tag_124\n      jumpi\n      tag_125\n      tag_122\n      jump\t// in\n    tag_125:\n    tag_124:\n      swap1\n      0x00\n      mstore\n      keccak256(0x00, 0x20)\n      add\n      0x00\n      swap1\n      sload\n      swap1\n      0x0100\n      exp\n      swap1\n      div\n      0xffffffffffffffffffffffffffffffffffffffff\n      and\n        /* \"src/voting.sol\":4580:4614  VP.CandidateVote[VP.candidates[i]] */\n      0xffffffffffffffffffffffffffffffffffffffff\n      and\n      0xffffffffffffffffffffffffffffffffffffffff\n      and\n      dup2\n      mstore\n      0x20\n      add\n      swap1\n      dup2\n      mstore\n      0x20\n      add\n      0x00\n      keccak256\n      sload\n        /* \"src/voting.sol\":4571:4573  CV */\n      dup9\n        /* \"src/voting.sol\":4574:4575  i */\n      dup4\n        /* \"src/voting.sol\":4571:4576  CV[i] */\n      dup2\n      mload\n      dup2\n      lt\n      tag_127\n      jumpi\n      tag_128\n      tag_122\n      jump\t// in\n    tag_128:\n    tag_127:\n      0x20\n      mul\n      0x20\n      add\n      add\n        /* \"src/voting.sol\":4571:4615  CV[i] = (VP.CandidateVote[VP.candidates[i]]) */\n      dup2\n      dup2\n      mstore\n      pop\n      pop\n        /* \"src/voting.sol\":4424:4624  {... */\n      pop\n        /* \"src/voting.sol\":4420:4423  i++ */\n      dup1\n      dup1\n      tag_129\n      swap1\n      tag_96\n      jump\t// in\n    tag_129:\n      swap2\n      pop\n      pop\n        /* \"src/voting.sol\":4377:4624  for (uint i =0; i <= VP.candidates.length; i++){... */\n      jump(tag_114)\n    tag_115:\n      pop\n        /* \"src/voting.sol\":4638:4640  CV */\n      dup6\n        /* \"src/voting.sol\":4642:4648  winner */\n      dup2\n        /* \"src/voting.sol\":4650:4661  highestVote */\n      dup4\n        /* \"src/voting.sol\":4630:4662  return (CV, winner, highestVote) */\n      swap6\n      pop\n      swap6\n      pop\n      swap6\n      pop\n      pop\n      pop\n      pop\n        /* \"src/voting.sol\":4074:4666  function revealWinner( string memory _name) external view returns ( uint[] memory CV, address, uint){... */\n      swap2\n      swap4\n      swap1\n      swap3\n      pop\n      jump\t// out\n        /* \"src/voting.sol\":2156:2668  function AddCandidate(address _newCandidate, string memory _name) external{... */\n    tag_35:\n        /* \"src/voting.sol\":2237:2258  VotingPoll storage VP */\n      0x00\n        /* \"src/voting.sol\":2261:2271  votingPoll */\n      0x01\n        /* \"src/voting.sol\":2272:2277  _name */\n      dup3\n        /* \"src/voting.sol\":2261:2278  votingPoll[_name] */\n      mload(0x40)\n      tag_131\n      swap2\n      swap1\n      tag_80\n      jump\t// in\n    tag_131:\n      swap1\n      dup2\n      mstore\n      0x20\n      add\n      mload(0x40)\n      dup1\n      swap2\n      sub\n      swap1\n      keccak256\n        /* \"src/voting.sol\":2237:2278  VotingPoll storage VP = votingPoll[_name] */\n      swap1\n      pop\n        /* \"src/voting.sol\":2317:2318  0 */\n      0x00\n        /* \"src/voting.sol\":2294:2319  VP.chairman != address(0) */\n      0xffffffffffffffffffffffffffffffffffffffff\n      and\n        /* \"src/voting.sol\":2294:2296  VP */\n      dup2\n        /* \"src/voting.sol\":2294:2305  VP.chairman */\n      0x00\n      add\n      0x00\n      swap1\n      sload\n      swap1\n      0x0100\n      exp\n      swap1\n      div\n      0xffffffffffffffffffffffffffffffffffffffff\n      and\n        /* \"src/voting.sol\":2294:2319  VP.chairman != address(0) */\n      0xffffffffffffffffffffffffffffffffffffffff\n      and\n      eq\n      iszero\n        /* \"src/voting.sol\":2285:2345  require (VP.chairman != address(0) , \"yet to create a poll\") */\n      tag_132\n      jumpi\n      mload(0x40)\n      0x08c379a000000000000000000000000000000000000000000000000000000000\n      dup2\n      mstore\n      0x04\n      add\n      tag_133\n      swap1\n      tag_134\n      jump\t// in\n    tag_133:\n      mload(0x40)\n      dup1\n      swap2\n      sub\n      swap1\n      revert\n    tag_132:\n        /* \"src/voting.sol\":2376:2386  msg.sender */\n      caller\n        /* \"src/voting.sol\":2361:2386  VP.chairman == msg.sender */\n      0xffffffffffffffffffffffffffffffffffffffff\n      and\n        /* \"src/voting.sol\":2361:2363  VP */\n      dup2\n        /* \"src/voting.sol\":2361:2372  VP.chairman */\n      0x00\n      add\n      0x00\n      swap1\n      sload\n      swap1\n      0x0100\n      exp\n      swap1\n      div\n      0xffffffffffffffffffffffffffffffffffffffff\n      and\n        /* \"src/voting.sol\":2361:2386  VP.chairman == msg.sender */\n      0xffffffffffffffffffffffffffffffffffffffff\n      and\n      eq\n        /* \"src/voting.sol\":2354:2387  assert(VP.chairman == msg.sender) */\n      tag_135\n      jumpi\n      tag_136\n      tag_137\n      jump\t// in\n    tag_136:\n    tag_135:\n        /* \"src/voting.sol\":2429:2431  VP */\n      dup1\n        /* \"src/voting.sol\":2429:2449  VP.maxNoOfCandidates */\n      0x02\n      add\n      0x00\n      swap1\n      sload\n      swap1\n      0x0100\n      exp\n      swap1\n      div\n      0xffffffff\n      and\n        /* \"src/voting.sol\":2402:2449  VP.currentNoOfCandidates < VP.maxNoOfCandidates */\n      0xffffffff\n      and\n        /* \"src/voting.sol\":2402:2404  VP */\n      dup2\n        /* \"src/voting.sol\":2402:2426  VP.currentNoOfCandidates */\n      0x02\n      add\n      0x04\n      swap1\n      sload\n      swap1\n      0x0100\n      exp\n      swap1\n      div\n      0xffffffff\n      and\n        /* \"src/voting.sol\":2402:2449  VP.currentNoOfCandidates < VP.maxNoOfCandidates */\n      0xffffffff\n      and\n      lt\n        /* \"src/voting.sol\":2394:2500  require(VP.currentNoOfCandidates < VP.maxNoOfCandidates, \"maximum no of candidate per session registered\") */\n      tag_138\n      jumpi\n      mload(0x40)\n      0x08c379a000000000000000000000000000000000000000000000000000000000\n      dup2\n      mstore\n      0x04\n      add\n      tag_139\n      swap1\n      tag_140\n      jump\t// in\n    tag_139:\n      mload(0x40)\n      dup1\n      swap2\n      sub\n      swap1\n      revert\n    tag_138:\n        /* \"src/voting.sol\":2543:2547  true */\n      0x01\n        /* \"src/voting.sol\":2507:2509  VP */\n      dup2\n        /* \"src/voting.sol\":2507:2525  VP.CandidateStatus */\n      0x03\n      add\n        /* \"src/voting.sol\":2507:2540  VP.CandidateStatus[_newCandidate] */\n      0x00\n        /* \"src/voting.sol\":2526:2539  _newCandidate */\n      dup6\n        /* \"src/voting.sol\":2507:2540  VP.CandidateStatus[_newCandidate] */\n      0xffffffffffffffffffffffffffffffffffffffff\n      and\n      0xffffffffffffffffffffffffffffffffffffffff\n      and\n      dup2\n      mstore\n      0x20\n      add\n      swap1\n      dup2\n      mstore\n      0x20\n      add\n      0x00\n      keccak256\n      0x00\n        /* \"src/voting.sol\":2507:2547  VP.CandidateStatus[_newCandidate] = true */\n      0x0100\n      exp\n      dup2\n      sload\n      dup2\n      0xff\n      mul\n      not\n      and\n      swap1\n      dup4\n      iszero\n      iszero\n      mul\n      or\n      swap1\n      sstore\n      pop\n        /* \"src/voting.sol\":2555:2557  VP */\n      dup1\n        /* \"src/voting.sol\":2555:2568  VP.candidates */\n      0x01\n      add\n        /* \"src/voting.sol\":2574:2587  _newCandidate */\n      dup4\n        /* \"src/voting.sol\":2555:2588  VP.candidates.push(_newCandidate) */\n      swap1\n      dup1\n      0x01\n      dup2\n      sload\n      add\n      dup1\n      dup3\n      sstore\n      dup1\n      swap2\n      pop\n      pop\n      0x01\n      swap1\n      sub\n      swap1\n      0x00\n      mstore\n      keccak256(0x00, 0x20)\n      add\n      0x00\n      swap1\n      swap2\n      swap1\n      swap2\n      swap1\n      swap2\n      0x0100\n      exp\n      dup2\n      sload\n      dup2\n      0xffffffffffffffffffffffffffffffffffffffff\n      mul\n      not\n      and\n      swap1\n      dup4\n      0xffffffffffffffffffffffffffffffffffffffff\n      and\n      mul\n      or\n      swap1\n      sstore\n      pop\n        /* \"src/voting.sol\":2596:2598  VP */\n      dup1\n        /* \"src/voting.sol\":2596:2620  VP.currentNoOfCandidates */\n      0x02\n      add\n      0x04\n        /* \"src/voting.sol\":2596:2622  VP.currentNoOfCandidates++ */\n      dup2\n      dup2\n      swap1\n      sload\n      swap1\n      0x0100\n      exp\n      swap1\n      div\n      0xffffffff\n      and\n      dup1\n      swap3\n      swap2\n      swap1\n      tag_142\n      swap1\n      tag_143\n      jump\t// in\n    tag_142:\n      swap2\n      swap1\n      0x0100\n      exp\n      dup2\n      sload\n      dup2\n      0xffffffff\n      mul\n      not\n      and\n      swap1\n      dup4\n      0xffffffff\n      and\n      mul\n      or\n      swap1\n      sstore\n      pop\n      pop\n        /* \"src/voting.sol\":2634:2664  becameCandidate(_newCandidate) */\n      0xc19c59aa93348e8fc54764bc642eca975e2639f44cc683ef8f027e1529cbda32\n        /* \"src/voting.sol\":2650:2663  _newCandidate */\n      dup4\n        /* \"src/voting.sol\":2634:2664  becameCandidate(_newCandidate) */\n      mload(0x40)\n      tag_144\n      swap2\n      swap1\n      tag_145\n      jump\t// in\n    tag_144:\n      mload(0x40)\n      dup1\n      swap2\n      sub\n      swap1\n      log1\n        /* \"src/voting.sol\":2230:2668  {... */\n      pop\n        /* \"src/voting.sol\":2156:2668  function AddCandidate(address _newCandidate, string memory _name) external{... */\n      pop\n      pop\n      jump\t// out\n        /* \"src/voting.sol\":818:865  mapping(string => VotingPoll) public votingPoll */\n    tag_38:\n      0x01\n      dup2\n      dup1\n      mload\n      0x20\n      dup2\n      add\n      dup3\n      add\n      dup1\n      mload\n      dup5\n      dup3\n      mstore\n      0x20\n      dup4\n      add\n      0x20\n      dup6\n      add\n      keccak256\n      dup2\n      dup4\n      mstore\n      dup1\n      swap6\n      pop\n      pop\n      pop\n      pop\n      pop\n      pop\n      0x00\n      swap2\n      pop\n      swap1\n      pop\n      dup1\n      0x00\n      add\n      0x00\n      swap1\n      sload\n      swap1\n      0x0100\n      exp\n      swap1\n      div\n      0xffffffffffffffffffffffffffffffffffffffff\n      and\n      swap1\n      dup1\n      0x02\n      add\n      0x00\n      swap1\n      sload\n      swap1\n      0x0100\n      exp\n      swap1\n      div\n      0xffffffff\n      and\n      swap1\n      dup1\n      0x02\n      add\n      0x04\n      swap1\n      sload\n      swap1\n      0x0100\n      exp\n      swap1\n      div\n      0xffffffff\n      and\n      swap1\n      dup1\n      0x06\n      add\n      0x00\n      swap1\n      sload\n      swap1\n      0x0100\n      exp\n      swap1\n      div\n      0xff\n      and\n      swap1\n      pop\n      dup5\n      jump\t// out\n        /* \"src/voting.sol\":867:914  mapping (address => uint256) public replayNonce */\n    tag_44:\n      mstore(0x20, 0x02)\n      dup1\n      0x00\n      mstore\n      keccak256(0x00, 0x40)\n      0x00\n      swap2\n      pop\n      swap1\n      pop\n      sload\n      dup2\n      jump\t// out\n        /* \"src/voting.sol\":3719:3890  function NoOfRegisteredCandidates( string memory _name) public view returns(uint){... */\n    tag_49:\n        /* \"src/voting.sol\":3795:3799  uint */\n      0x00\n        /* \"src/voting.sol\":3807:3828  VotingPoll storage VP */\n      dup1\n        /* \"src/voting.sol\":3831:3841  votingPoll */\n      0x01\n        /* \"src/voting.sol\":3842:3847  _name */\n      dup4\n        /* \"src/voting.sol\":3831:3848  votingPoll[_name] */\n      mload(0x40)\n      tag_147\n      swap2\n      swap1\n      tag_80\n      jump\t// in\n    tag_147:\n      swap1\n      dup2\n      mstore\n      0x20\n      add\n      mload(0x40)\n      dup1\n      swap2\n      sub\n      swap1\n      keccak256\n        /* \"src/voting.sol\":3807:3848  VotingPoll storage VP = votingPoll[_name] */\n      swap1\n      pop\n        /* \"src/voting.sol\":3862:3864  VP */\n      dup1\n        /* \"src/voting.sol\":3862:3886  VP.currentNoOfCandidates */\n      0x02\n      add\n      0x04\n      swap1\n      sload\n      swap1\n      0x0100\n      exp\n      swap1\n      div\n      0xffffffff\n      and\n        /* \"src/voting.sol\":3855:3886  return VP.currentNoOfCandidates */\n      0xffffffff\n      and\n      swap2\n      pop\n      pop\n        /* \"src/voting.sol\":3719:3890  function NoOfRegisteredCandidates( string memory _name) public view returns(uint){... */\n      swap2\n      swap1\n      pop\n      jump\t// out\n        /* \"src/voting.sol\":729:754  string[] public VotingKey */\n    tag_54:\n      0x00\n      dup2\n      dup2\n      sload\n      dup2\n      lt\n      tag_148\n      jumpi\n      0x00\n      dup1\n      revert\n    tag_148:\n      swap1\n      0x00\n      mstore\n      keccak256(0x00, 0x20)\n      add\n      0x00\n      swap2\n      pop\n      swap1\n      pop\n      dup1\n      sload\n      tag_150\n      swap1\n      tag_151\n      jump\t// in\n    tag_150:\n      dup1\n      0x1f\n      add\n      0x20\n      dup1\n      swap2\n      div\n      mul\n      0x20\n      add\n      mload(0x40)\n      swap1\n      dup2\n      add\n      0x40\n      mstore\n      dup1\n      swap3\n      swap2\n      swap1\n      dup2\n      dup2\n      mstore\n      0x20\n      add\n      dup3\n      dup1\n      sload\n      tag_152\n      swap1\n      tag_151\n      jump\t// in\n    tag_152:\n      dup1\n      iszero\n      tag_153\n      jumpi\n      dup1\n      0x1f\n      lt\n      tag_154\n      jumpi\n      0x0100\n      dup1\n      dup4\n      sload\n      div\n      mul\n      dup4\n      mstore\n      swap2\n      0x20\n      add\n      swap2\n      jump(tag_153)\n    tag_154:\n      dup3\n      add\n      swap2\n      swap1\n      0x00\n      mstore\n      keccak256(0x00, 0x20)\n      swap1\n    tag_155:\n      dup2\n      sload\n      dup2\n      mstore\n      swap1\n      0x01\n      add\n      swap1\n      0x20\n      add\n      dup1\n      dup4\n      gt\n      tag_155\n      jumpi\n      dup3\n      swap1\n      sub\n      0x1f\n      and\n      dup3\n      add\n      swap2\n    tag_153:\n      pop\n      pop\n      pop\n      pop\n      pop\n      dup2\n      jump\t// out\n        /* \"src/voting.sol\":3898:4071  function AllCandidates( string memory _name) public view returns(address[] memory _candidates){... */\n    tag_59:\n        /* \"src/voting.sol\":3963:3991  address[] memory _candidates */\n      0x60\n        /* \"src/voting.sol\":3999:4020  VotingPoll storage VP */\n      0x00\n        /* \"src/voting.sol\":4023:4033  votingPoll */\n      0x01\n        /* \"src/voting.sol\":4034:4039  _name */\n      dup4\n        /* \"src/voting.sol\":4023:4040  votingPoll[_name] */\n      mload(0x40)\n      tag_157\n      swap2\n      swap1\n      tag_80\n      jump\t// in\n    tag_157:\n      swap1\n      dup2\n      mstore\n      0x20\n      add\n      mload(0x40)\n      dup1\n      swap2\n      sub\n      swap1\n      keccak256\n        /* \"src/voting.sol\":3999:4040  VotingPoll storage VP = votingPoll[_name] */\n      swap1\n      pop\n        /* \"src/voting.sol\":4054:4056  VP */\n      dup1\n        /* \"src/voting.sol\":4054:4067  VP.candidates */\n      0x01\n      add\n        /* \"src/voting.sol\":4047:4067  return VP.candidates */\n      dup1\n      sload\n      dup1\n      0x20\n      mul\n      0x20\n      add\n      mload(0x40)\n      swap1\n      dup2\n      add\n      0x40\n      mstore\n      dup1\n      swap3\n      swap2\n      swap1\n      dup2\n      dup2\n      mstore\n      0x20\n      add\n      dup3\n      dup1\n      sload\n      dup1\n      iszero\n      tag_158\n      jumpi\n      0x20\n      mul\n      dup3\n      add\n      swap2\n      swap1\n      0x00\n      mstore\n      keccak256(0x00, 0x20)\n      swap1\n    tag_159:\n      dup2\n      0x00\n      swap1\n      sload\n      swap1\n      0x0100\n      exp\n      swap1\n      div\n      0xffffffffffffffffffffffffffffffffffffffff\n      and\n      0xffffffffffffffffffffffffffffffffffffffff\n      and\n      dup2\n      mstore\n      0x20\n      add\n      swap1\n      0x01\n      add\n      swap1\n      dup1\n      dup4\n      gt\n      tag_159\n      jumpi\n    tag_158:\n      pop\n      pop\n      pop\n      pop\n      pop\n      swap2\n      pop\n      pop\n        /* \"src/voting.sol\":3898:4071  function AllCandidates( string memory _name) public view returns(address[] memory _candidates){... */\n      swap2\n      swap1\n      pop\n      jump\t// out\n        /* \"src/voting.sol\":3481:3716  function setVotingState( string memory _name) external {... */\n    tag_64:\n        /* \"src/voting.sol\":3542:3563  VotingPoll storage VP */\n      0x00\n        /* \"src/voting.sol\":3566:3576  votingPoll */\n      0x01\n        /* \"src/voting.sol\":3577:3582  _name */\n      dup3\n        /* \"src/voting.sol\":3566:3583  votingPoll[_name] */\n      mload(0x40)\n      tag_161\n      swap2\n      swap1\n      tag_80\n      jump\t// in\n    tag_161:\n      swap1\n      dup2\n      mstore\n      0x20\n      add\n      mload(0x40)\n      dup1\n      swap2\n      sub\n      swap1\n      keccak256\n        /* \"src/voting.sol\":3542:3583  VotingPoll storage VP = votingPoll[_name] */\n      swap1\n      pop\n        /* \"src/voting.sol\":3612:3622  msg.sender */\n      caller\n        /* \"src/voting.sol\":3597:3622  VP.chairman == msg.sender */\n      0xffffffffffffffffffffffffffffffffffffffff\n      and\n        /* \"src/voting.sol\":3597:3599  VP */\n      dup2\n        /* \"src/voting.sol\":3597:3608  VP.chairman */\n      0x00\n      add\n      0x00\n      swap1\n      sload\n      swap1\n      0x0100\n      exp\n      swap1\n      div\n      0xffffffffffffffffffffffffffffffffffffffff\n      and\n        /* \"src/voting.sol\":3597:3622  VP.chairman == msg.sender */\n      0xffffffffffffffffffffffffffffffffffffffff\n      and\n      eq\n        /* \"src/voting.sol\":3589:3643  require(VP.chairman == msg.sender, \"not the chairman\") */\n      tag_162\n      jumpi\n      mload(0x40)\n      0x08c379a000000000000000000000000000000000000000000000000000000000\n      dup2\n      mstore\n      0x04\n      add\n      tag_163\n      swap1\n      tag_164\n      jump\t// in\n    tag_163:\n      mload(0x40)\n      dup1\n      swap2\n      sub\n      swap1\n      revert\n    tag_162:\n        /* \"src/voting.sol\":3669:3671  VP */\n      dup1\n        /* \"src/voting.sol\":3669:3678  VP.voting */\n      0x06\n      add\n      0x00\n      swap1\n      sload\n      swap1\n      0x0100\n      exp\n      swap1\n      div\n      0xff\n      and\n        /* \"src/voting.sol\":3667:3679  !(VP.voting) */\n      iszero\n        /* \"src/voting.sol\":3655:3657  VP */\n      dup2\n        /* \"src/voting.sol\":3655:3664  VP.voting */\n      0x06\n      add\n      0x00\n        /* \"src/voting.sol\":3655:3679  VP.voting = !(VP.voting) */\n      0x0100\n      exp\n      dup2\n      sload\n      dup2\n      0xff\n      mul\n      not\n      and\n      swap1\n      dup4\n      iszero\n      iszero\n      mul\n      or\n      swap1\n      sstore\n      pop\n        /* \"src/voting.sol\":3702:3704  VP */\n      dup1\n        /* \"src/voting.sol\":3702:3711  VP.voting */\n      0x06\n      add\n      0x00\n      swap1\n      sload\n      swap1\n      0x0100\n      exp\n      swap1\n      div\n      0xff\n      and\n        /* \"src/voting.sol\":3691:3712  voteStatus(VP.voting) */\n      iszero\n      iszero\n      0x7b224db641892626dca6975b376f464e9ac52ccfa180436175170c009b94dcd7\n      mload(0x40)\n      mload(0x40)\n      dup1\n      swap2\n      sub\n      swap1\n      log2\n        /* \"src/voting.sol\":3536:3716  {... */\n      pop\n        /* \"src/voting.sol\":3481:3716  function setVotingState( string memory _name) external {... */\n      pop\n      jump\t// out\n        /* \"src/voting.sol\":1770:2152  function createPoll(string memory _name, uint32 ExpectedNoOfCandidate) external returns(string memory, uint Candidate){... */\n    tag_68:\n        /* \"src/voting.sol\":1858:1871  string memory */\n      0x60\n        /* \"src/voting.sol\":1873:1887  uint Candidate */\n      0x00\n        /* \"src/voting.sol\":1894:1915  VotingPoll storage VP */\n      dup1\n        /* \"src/voting.sol\":1918:1928  votingPoll */\n      0x01\n        /* \"src/voting.sol\":1929:1934  _name */\n      dup6\n        /* \"src/voting.sol\":1918:1935  votingPoll[_name] */\n      mload(0x40)\n      tag_166\n      swap2\n      swap1\n      tag_80\n      jump\t// in\n    tag_166:\n      swap1\n      dup2\n      mstore\n      0x20\n      add\n      mload(0x40)\n      dup1\n      swap2\n      sub\n      swap1\n      keccak256\n        /* \"src/voting.sol\":1894:1935  VotingPoll storage VP = votingPoll[_name] */\n      swap1\n      pop\n        /* \"src/voting.sol\":1955:1965  msg.sender */\n      caller\n        /* \"src/voting.sol\":1941:1943  VP */\n      dup2\n        /* \"src/voting.sol\":1941:1952  VP.chairman */\n      0x00\n      add\n      0x00\n        /* \"src/voting.sol\":1941:1965  VP.chairman = msg.sender */\n      0x0100\n      exp\n      dup2\n      sload\n      dup2\n      0xffffffffffffffffffffffffffffffffffffffff\n      mul\n      not\n      and\n      swap1\n      dup4\n      0xffffffffffffffffffffffffffffffffffffffff\n      and\n      mul\n      or\n      swap1\n      sstore\n      pop\n        /* \"src/voting.sol\":1993:2014  ExpectedNoOfCandidate */\n      dup4\n        /* \"src/voting.sol\":1971:1973  VP */\n      dup2\n        /* \"src/voting.sol\":1971:1991  VP.maxNoOfCandidates */\n      0x02\n      add\n      0x00\n        /* \"src/voting.sol\":1971:2014  VP.maxNoOfCandidates =ExpectedNoOfCandidate */\n      0x0100\n      exp\n      dup2\n      sload\n      dup2\n      0xffffffff\n      mul\n      not\n      and\n      swap1\n      dup4\n      0xffffffff\n      and\n      mul\n      or\n      swap1\n      sstore\n      pop\n        /* \"src/voting.sol\":2020:2029  VotingKey */\n      0x00\n        /* \"src/voting.sol\":2035:2040  _name */\n      dup6\n        /* \"src/voting.sol\":2020:2041  VotingKey.push(_name) */\n      swap1\n      dup1\n      0x01\n      dup2\n      sload\n      add\n      dup1\n      dup3\n      sstore\n      dup1\n      swap2\n      pop\n      pop\n      0x01\n      swap1\n      sub\n      swap1\n      0x00\n      mstore\n      keccak256(0x00, 0x20)\n      add\n      0x00\n      swap1\n      swap2\n      swap1\n      swap2\n      swap1\n      swap2\n      pop\n      swap1\n      dup1\n      mload\n      swap1\n      0x20\n      add\n      swap1\n      tag_168\n      swap3\n      swap2\n      swap1\n      tag_169\n      jump\t// in\n    tag_168:\n      pop\n        /* \"src/voting.sol\":2094:2096  VP */\n      dup1\n        /* \"src/voting.sol\":2094:2105  VP.chairman */\n      0x00\n      add\n      0x00\n      swap1\n      sload\n      swap1\n      0x0100\n      exp\n      swap1\n      div\n      0xffffffffffffffffffffffffffffffffffffffff\n      and\n        /* \"src/voting.sol\":2052:2106  pollCreated( _name, VP.maxNoOfCandidates, VP.chairman) */\n      0xffffffffffffffffffffffffffffffffffffffff\n      and\n        /* \"src/voting.sol\":2072:2074  VP */\n      dup2\n        /* \"src/voting.sol\":2072:2092  VP.maxNoOfCandidates */\n      0x02\n      add\n      0x00\n      swap1\n      sload\n      swap1\n      0x0100\n      exp\n      swap1\n      div\n      0xffffffff\n      and\n        /* \"src/voting.sol\":2052:2106  pollCreated( _name, VP.maxNoOfCandidates, VP.chairman) */\n      0xffffffff\n      and\n        /* \"src/voting.sol\":2065:2070  _name */\n      dup7\n        /* \"src/voting.sol\":2052:2106  pollCreated( _name, VP.maxNoOfCandidates, VP.chairman) */\n      mload(0x40)\n      tag_170\n      swap2\n      swap1\n      tag_80\n      jump\t// in\n    tag_170:\n      mload(0x40)\n      dup1\n      swap2\n      sub\n      swap1\n      keccak256\n      0x4b35e5cf01446aa899a8d21082ebf23b7497d38f2466ad49836bd1006a8d059e\n      mload(0x40)\n      mload(0x40)\n      dup1\n      swap2\n      sub\n      swap1\n      log4\n        /* \"src/voting.sol\":2120:2125  _name */\n      dup5\n        /* \"src/voting.sol\":2127:2148  ExpectedNoOfCandidate */\n      dup5\n        /* \"src/voting.sol\":2113:2149  return(_name, ExpectedNoOfCandidate) */\n      dup1\n      0xffffffff\n      and\n      swap1\n      pop\n      swap3\n      pop\n      swap3\n      pop\n      pop\n        /* \"src/voting.sol\":1770:2152  function createPoll(string memory _name, uint32 ExpectedNoOfCandidate) external returns(string memory, uint Candidate){... */\n      swap3\n      pop\n      swap3\n      swap1\n      pop\n      jump\t// out\n        /* \"src/voting.sol\":4858:5272  function getStructProps() external view returns(retVotingPoll[] memory RVP){... */\n    tag_72:\n        /* \"src/voting.sol\":4906:4932  retVotingPoll[] memory RVP */\n      0x60\n        /* \"src/voting.sol\":4964:4973  VotingKey */\n      0x00\n        /* \"src/voting.sol\":4964:4980  VotingKey.length */\n      dup1\n      sload\n      swap1\n      pop\n        /* \"src/voting.sol\":4943:4981  new  retVotingPoll[](VotingKey.length) */\n      0xffffffffffffffff\n      dup2\n      gt\n      iszero\n      tag_172\n      jumpi\n      tag_173\n      tag_112\n      jump\t// in\n    tag_173:\n    tag_172:\n      mload(0x40)\n      swap1\n      dup1\n      dup3\n      mstore\n      dup1\n      0x20\n      mul\n      0x20\n      add\n      dup3\n      add\n      0x40\n      mstore\n      dup1\n      iszero\n      tag_174\n      jumpi\n      dup2\n      0x20\n      add\n    tag_175:\n      tag_176\n      tag_177\n      jump\t// in\n    tag_176:\n      dup2\n      mstore\n      0x20\n      add\n      swap1\n      0x01\n      swap1\n      sub\n      swap1\n      dup2\n      tag_175\n      jumpi\n      swap1\n      pop\n    tag_174:\n      pop\n        /* \"src/voting.sol\":4937:4981  RVP = new  retVotingPoll[](VotingKey.length) */\n      swap1\n      pop\n        /* \"src/voting.sol\":4990:4996  uint i */\n      0x00\n        /* \"src/voting.sol\":4985:5269  for (uint i = 0; i <= VotingKey.length; i++){... */\n    tag_178:\n        /* \"src/voting.sol\":5007:5016  VotingKey */\n      0x00\n        /* \"src/voting.sol\":5007:5023  VotingKey.length */\n      dup1\n      sload\n      swap1\n      pop\n        /* \"src/voting.sol\":5002:5003  i */\n      dup2\n        /* \"src/voting.sol\":5002:5023  i <= VotingKey.length */\n      gt\n        /* \"src/voting.sol\":4985:5269  for (uint i = 0; i <= VotingKey.length; i++){... */\n      tag_179\n      jumpi\n        /* \"src/voting.sol\":5035:5056  VotingPoll storage VP */\n      0x00\n        /* \"src/voting.sol\":5059:5069  votingPoll */\n      0x01\n        /* \"src/voting.sol\":5070:5079  VotingKey */\n      0x00\n        /* \"src/voting.sol\":5080:5081  i */\n      dup4\n        /* \"src/voting.sol\":5070:5082  VotingKey[i] */\n      dup2\n      sload\n      dup2\n      lt\n      tag_181\n      jumpi\n      tag_182\n      tag_122\n      jump\t// in\n    tag_182:\n    tag_181:\n      swap1\n      0x00\n      mstore\n      keccak256(0x00, 0x20)\n      add\n        /* \"src/voting.sol\":5059:5083  votingPoll[VotingKey[i]] */\n      mload(0x40)\n      tag_184\n      swap2\n      swap1\n      tag_185\n      jump\t// in\n    tag_184:\n      swap1\n      dup2\n      mstore\n      0x20\n      add\n      mload(0x40)\n      dup1\n      swap2\n      sub\n      swap1\n      keccak256\n        /* \"src/voting.sol\":5035:5083  VotingPoll storage VP = votingPoll[VotingKey[i]] */\n      swap1\n      pop\n        /* \"src/voting.sol\":5107:5109  VP */\n      dup1\n        /* \"src/voting.sol\":5107:5118  VP.chairman */\n      0x00\n      add\n      0x00\n      swap1\n      sload\n      swap1\n      0x0100\n      exp\n      swap1\n      div\n      0xffffffffffffffffffffffffffffffffffffffff\n      and\n        /* \"src/voting.sol\":5089:5092  RVP */\n      dup4\n        /* \"src/voting.sol\":5093:5094  i */\n      dup4\n        /* \"src/voting.sol\":5089:5095  RVP[i] */\n      dup2\n      mload\n      dup2\n      lt\n      tag_186\n      jumpi\n      tag_187\n      tag_122\n      jump\t// in\n    tag_187:\n    tag_186:\n      0x20\n      mul\n      0x20\n      add\n      add\n      mload\n        /* \"src/voting.sol\":5089:5104  RVP[i].chairman */\n      0x20\n      add\n        /* \"src/voting.sol\":5089:5118  RVP[i].chairman = VP.chairman */\n      swap1\n      0xffffffffffffffffffffffffffffffffffffffff\n      and\n      swap1\n      dup2\n      0xffffffffffffffffffffffffffffffffffffffff\n      and\n      dup2\n      mstore\n      pop\n      pop\n        /* \"src/voting.sol\":5151:5153  VP */\n      dup1\n        /* \"src/voting.sol\":5151:5171  VP.maxNoOfCandidates */\n      0x02\n      add\n      0x00\n      swap1\n      sload\n      swap1\n      0x0100\n      exp\n      swap1\n      div\n      0xffffffff\n      and\n        /* \"src/voting.sol\":5124:5127  RVP */\n      dup4\n        /* \"src/voting.sol\":5128:5129  i */\n      dup4\n        /* \"src/voting.sol\":5124:5130  RVP[i] */\n      dup2\n      mload\n      dup2\n      lt\n      tag_188\n      jumpi\n      tag_189\n      tag_122\n      jump\t// in\n    tag_189:\n    tag_188:\n      0x20\n      mul\n      0x20\n      add\n      add\n      mload\n        /* \"src/voting.sol\":5124:5148  RVP[i].maxNoOfCandidates */\n      0x60\n      add\n        /* \"src/voting.sol\":5124:5171  RVP[i].maxNoOfCandidates = VP.maxNoOfCandidates */\n      swap1\n      0xffffffff\n      and\n      swap1\n      dup2\n      0xffffffff\n      and\n      dup2\n      mstore\n      pop\n      pop\n        /* \"src/voting.sol\":5208:5210  VP */\n      dup1\n        /* \"src/voting.sol\":5208:5232  VP.currentNoOfCandidates */\n      0x02\n      add\n      0x04\n      swap1\n      sload\n      swap1\n      0x0100\n      exp\n      swap1\n      div\n      0xffffffff\n      and\n        /* \"src/voting.sol\":5177:5180  RVP */\n      dup4\n        /* \"src/voting.sol\":5181:5182  i */\n      dup4\n        /* \"src/voting.sol\":5177:5183  RVP[i] */\n      dup2\n      mload\n      dup2\n      lt\n      tag_190\n      jumpi\n      tag_191\n      tag_122\n      jump\t// in\n    tag_191:\n    tag_190:\n      0x20\n      mul\n      0x20\n      add\n      add\n      mload\n        /* \"src/voting.sol\":5177:5205  RVP[i].currentNoOfCandidates */\n      0x80\n      add\n        /* \"src/voting.sol\":5177:5232  RVP[i].currentNoOfCandidates = VP.currentNoOfCandidates */\n      swap1\n      0xffffffff\n      and\n      swap1\n      dup2\n      0xffffffff\n      and\n      dup2\n      mstore\n      pop\n      pop\n        /* \"src/voting.sol\":5254:5256  VP */\n      dup1\n        /* \"src/voting.sol\":5254:5263  VP.voting */\n      0x06\n      add\n      0x00\n      swap1\n      sload\n      swap1\n      0x0100\n      exp\n      swap1\n      div\n      0xff\n      and\n        /* \"src/voting.sol\":5238:5241  RVP */\n      dup4\n        /* \"src/voting.sol\":5242:5243  i */\n      dup4\n        /* \"src/voting.sol\":5238:5244  RVP[i] */\n      dup2\n      mload\n      dup2\n      lt\n      tag_192\n      jumpi\n      tag_193\n      tag_122\n      jump\t// in\n    tag_193:\n    tag_192:\n      0x20\n      mul\n      0x20\n      add\n      add\n      mload\n        /* \"src/voting.sol\":5238:5251  RVP[i].voting */\n      0xa0\n      add\n        /* \"src/voting.sol\":5238:5263  RVP[i].voting = VP.voting */\n      swap1\n      iszero\n      iszero\n      swap1\n      dup2\n      iszero\n      iszero\n      dup2\n      mstore\n      pop\n      pop\n        /* \"src/voting.sol\":5029:5269  {... */\n      pop\n        /* \"src/voting.sol\":5025:5028  i++ */\n      dup1\n      dup1\n      tag_194\n      swap1\n      tag_96\n      jump\t// in\n    tag_194:\n      swap2\n      pop\n      pop\n        /* \"src/voting.sol\":4985:5269  for (uint i = 0; i <= VotingKey.length; i++){... */\n      jump(tag_178)\n    tag_179:\n      pop\n        /* \"src/voting.sol\":4858:5272  function getStructProps() external view returns(retVotingPoll[] memory RVP){... */\n      swap1\n      jump\t// out\n        /* \"src/voting.sol\":5509:6091  function getSigner(bytes32 _hash, bytes memory _signature) internal pure returns (address){... */\n    tag_92:\n        /* \"src/voting.sol\":5591:5598  address */\n      0x00\n        /* \"src/voting.sol\":5605:5614  bytes32 r */\n      dup1\n        /* \"src/voting.sol\":5620:5629  bytes32 s */\n      0x00\n        /* \"src/voting.sol\":5635:5642  uint8 v */\n      dup1\n        /* \"src/voting.sol\":5673:5675  65 */\n      0x41\n        /* \"src/voting.sol\":5652:5662  _signature */\n      dup6\n        /* \"src/voting.sol\":5652:5669  _signature.length */\n      mload\n        /* \"src/voting.sol\":5652:5675  _signature.length != 65 */\n      eq\n        /* \"src/voting.sol\":5648:5709  if (_signature.length != 65) {... */\n      tag_196\n      jumpi\n        /* \"src/voting.sol\":5700:5701  0 */\n      0x00\n        /* \"src/voting.sol\":5685:5702  return address(0) */\n      swap4\n      pop\n      pop\n      pop\n      pop\n      jump(tag_195)\n        /* \"src/voting.sol\":5648:5709  if (_signature.length != 65) {... */\n    tag_196:\n        /* \"src/voting.sol\":5758:5760  32 */\n      0x20\n        /* \"src/voting.sol\":5746:5756  _signature */\n      dup6\n        /* \"src/voting.sol\":5742:5761  add(_signature, 32) */\n      add\n        /* \"src/voting.sol\":5736:5762  mload(add(_signature, 32)) */\n      mload\n        /* \"src/voting.sol\":5731:5762  r := mload(add(_signature, 32)) */\n      swap3\n      pop\n        /* \"src/voting.sol\":5796:5798  64 */\n      0x40\n        /* \"src/voting.sol\":5784:5794  _signature */\n      dup6\n        /* \"src/voting.sol\":5780:5799  add(_signature, 64) */\n      add\n        /* \"src/voting.sol\":5774:5800  mload(add(_signature, 64)) */\n      mload\n        /* \"src/voting.sol\":5769:5800  s := mload(add(_signature, 64)) */\n      swap2\n      pop\n        /* \"src/voting.sol\":5842:5844  96 */\n      0x60\n        /* \"src/voting.sol\":5830:5840  _signature */\n      dup6\n        /* \"src/voting.sol\":5826:5845  add(_signature, 96) */\n      add\n        /* \"src/voting.sol\":5820:5846  mload(add(_signature, 96)) */\n      mload\n        /* \"src/voting.sol\":5817:5818  0 */\n      0x00\n        /* \"src/voting.sol\":5812:5847  byte(0, mload(add(_signature, 96))) */\n      byte\n        /* \"src/voting.sol\":5807:5847  v := byte(0, mload(add(_signature, 96))) */\n      swap1\n      pop\n        /* \"src/voting.sol\":5866:5868  27 */\n      0x1b\n        /* \"src/voting.sol\":5862:5863  v */\n      dup2\n        /* \"src/voting.sol\":5862:5868  v < 27 */\n      0xff\n      and\n      lt\n        /* \"src/voting.sol\":5858:5892  if (v < 27) {... */\n      iszero\n      tag_197\n      jumpi\n        /* \"src/voting.sol\":5883:5885  27 */\n      0x1b\n        /* \"src/voting.sol\":5878:5885  v += 27 */\n      dup2\n      tag_198\n      swap2\n      swap1\n      tag_199\n      jump\t// in\n    tag_198:\n      swap1\n      pop\n        /* \"src/voting.sol\":5858:5892  if (v < 27) {... */\n    tag_197:\n        /* \"src/voting.sol\":5906:5908  27 */\n      0x1b\n        /* \"src/voting.sol\":5901:5902  v */\n      dup2\n        /* \"src/voting.sol\":5901:5908  v != 27 */\n      0xff\n      and\n      eq\n      iszero\n        /* \"src/voting.sol\":5901:5919  v != 27 && v != 28 */\n      dup1\n      iszero\n      tag_200\n      jumpi\n      pop\n        /* \"src/voting.sol\":5917:5919  28 */\n      0x1c\n        /* \"src/voting.sol\":5912:5913  v */\n      dup2\n        /* \"src/voting.sol\":5912:5919  v != 28 */\n      0xff\n      and\n      eq\n      iszero\n        /* \"src/voting.sol\":5901:5919  v != 27 && v != 28 */\n    tag_200:\n        /* \"src/voting.sol\":5897:6087  if (v != 27 && v != 28) {... */\n      iszero\n      tag_201\n      jumpi\n        /* \"src/voting.sol\":5944:5945  0 */\n      0x00\n        /* \"src/voting.sol\":5929:5946  return address(0) */\n      swap4\n      pop\n      pop\n      pop\n      pop\n      jump(tag_195)\n        /* \"src/voting.sol\":5897:6087  if (v != 27 && v != 28) {... */\n    tag_201:\n        /* \"src/voting.sol\":5974:6080  ecrecover(keccak256(... */\n      0x01\n        /* \"src/voting.sol\":6056:6061  _hash */\n      dup7\n        /* \"src/voting.sol\":6003:6062  abi.encodePacked(\"\\x19Ethereum Signed Message:\\n32\", _hash) */\n      add(0x20, mload(0x40))\n      tag_203\n      swap2\n      swap1\n      tag_204\n      jump\t// in\n    tag_203:\n      mload(0x40)\n      0x20\n      dup2\n      dup4\n      sub\n      sub\n      dup2\n      mstore\n      swap1\n      0x40\n      mstore\n        /* \"src/voting.sol\":5984:6070  keccak256(... */\n      dup1\n      mload\n      swap1\n      0x20\n      add\n      keccak256\n        /* \"src/voting.sol\":6072:6073  v */\n      dup3\n        /* \"src/voting.sol\":6075:6076  r */\n      dup6\n        /* \"src/voting.sol\":6078:6079  s */\n      dup6\n        /* \"src/voting.sol\":5974:6080  ecrecover(keccak256(... */\n      mload(0x40)\n      0x00\n      dup2\n      mstore\n      0x20\n      add\n      0x40\n      mstore\n      mload(0x40)\n      tag_205\n      swap5\n      swap4\n      swap3\n      swap2\n      swap1\n      tag_206\n      jump\t// in\n    tag_205:\n      0x20\n      mload(0x40)\n      0x20\n      dup2\n      sub\n      swap1\n      dup1\n      dup5\n      sub\n      swap1\n      dup6\n      gas\n      staticcall\n      iszero\n      dup1\n      iszero\n      tag_208\n      jumpi\n      returndatasize\n      0x00\n      dup1\n      returndatacopy\n      revert(0x00, returndatasize)\n    tag_208:\n      pop\n      pop\n      pop\n      mload(sub(mload(0x40), 0x20))\n        /* \"src/voting.sol\":5967:6080  return ecrecover(keccak256(... */\n      swap4\n      pop\n      pop\n      pop\n      pop\n        /* \"src/voting.sol\":5509:6091  function getSigner(bytes32 _hash, bytes memory _signature) internal pure returns (address){... */\n    tag_195:\n      swap3\n      swap2\n      pop\n      pop\n      jump\t// out\n        /* \"src/voting.sol\":3232:3477  function countVote(address Cand, string memory _name, address signer) internal returns(uint){... */\n    tag_102:\n        /* \"src/voting.sol\":3319:3323  uint */\n      0x00\n        /* \"src/voting.sol\":3331:3352  VotingPoll storage VP */\n      dup1\n        /* \"src/voting.sol\":3355:3365  votingPoll */\n      0x01\n        /* \"src/voting.sol\":3366:3371  _name */\n      dup5\n        /* \"src/voting.sol\":3355:3372  votingPoll[_name] */\n      mload(0x40)\n      tag_210\n      swap2\n      swap1\n      tag_80\n      jump\t// in\n    tag_210:\n      swap1\n      dup2\n      mstore\n      0x20\n      add\n      mload(0x40)\n      dup1\n      swap2\n      sub\n      swap1\n      keccak256\n        /* \"src/voting.sol\":3331:3372  VotingPoll storage VP = votingPoll[_name] */\n      swap1\n      pop\n        /* \"src/voting.sol\":3401:3405  true */\n      0x01\n        /* \"src/voting.sol\":3379:3381  VP */\n      dup2\n        /* \"src/voting.sol\":3379:3390  VP.hasVoted */\n      0x04\n      add\n        /* \"src/voting.sol\":3379:3398  VP.hasVoted[signer] */\n      0x00\n        /* \"src/voting.sol\":3391:3397  signer */\n      dup6\n        /* \"src/voting.sol\":3379:3398  VP.hasVoted[signer] */\n      0xffffffffffffffffffffffffffffffffffffffff\n      and\n      0xffffffffffffffffffffffffffffffffffffffff\n      and\n      dup2\n      mstore\n      0x20\n      add\n      swap1\n      dup2\n      mstore\n      0x20\n      add\n      0x00\n      keccak256\n      0x00\n        /* \"src/voting.sol\":3379:3405  VP.hasVoted[signer] = true */\n      0x0100\n      exp\n      dup2\n      sload\n      dup2\n      0xff\n      mul\n      not\n      and\n      swap1\n      dup4\n      iszero\n      iszero\n      mul\n      or\n      swap1\n      sstore\n      pop\n        /* \"src/voting.sol\":3412:3414  VP */\n      dup1\n        /* \"src/voting.sol\":3412:3428  VP.CandidateVote */\n      0x05\n      add\n        /* \"src/voting.sol\":3412:3434  VP.CandidateVote[Cand] */\n      0x00\n        /* \"src/voting.sol\":3429:3433  Cand */\n      dup7\n        /* \"src/voting.sol\":3412:3434  VP.CandidateVote[Cand] */\n      0xffffffffffffffffffffffffffffffffffffffff\n      and\n      0xffffffffffffffffffffffffffffffffffffffff\n      and\n      dup2\n      mstore\n      0x20\n      add\n      swap1\n      dup2\n      mstore\n      0x20\n      add\n      0x00\n      keccak256\n      0x00\n        /* \"src/voting.sol\":3412:3436  VP.CandidateVote[Cand]++ */\n      dup2\n      sload\n      dup1\n      swap3\n      swap2\n      swap1\n      tag_211\n      swap1\n      tag_96\n      jump\t// in\n    tag_211:\n      swap2\n      swap1\n      pop\n      sstore\n      pop\n        /* \"src/voting.sol\":3450:3452  VP */\n      dup1\n        /* \"src/voting.sol\":3450:3466  VP.CandidateVote */\n      0x05\n      add\n        /* \"src/voting.sol\":3450:3472  VP.CandidateVote[Cand] */\n      0x00\n        /* \"src/voting.sol\":3467:3471  Cand */\n      dup7\n        /* \"src/voting.sol\":3450:3472  VP.CandidateVote[Cand] */\n      0xffffffffffffffffffffffffffffffffffffffff\n      and\n      0xffffffffffffffffffffffffffffffffffffffff\n      and\n      dup2\n      mstore\n      0x20\n      add\n      swap1\n      dup2\n      mstore\n      0x20\n      add\n      0x00\n      keccak256\n      sload\n        /* \"src/voting.sol\":3443:3472  return VP.CandidateVote[Cand] */\n      swap2\n      pop\n      pop\n        /* \"src/voting.sol\":3232:3477  function countVote(address Cand, string memory _name, address signer) internal returns(uint){... */\n      swap4\n      swap3\n      pop\n      pop\n      pop\n      jump\t// out\n        /* \"src/voting.sol\":4672:4855  function getPosition( string memory _name, uint i) internal view returns(uint val){... */\n    tag_118:\n        /* \"src/voting.sol\":4745:4753  uint val */\n      0x00\n        /* \"src/voting.sol\":4761:4782  VotingPoll storage VP */\n      dup1\n        /* \"src/voting.sol\":4785:4795  votingPoll */\n      0x01\n        /* \"src/voting.sol\":4796:4801  _name */\n      dup5\n        /* \"src/voting.sol\":4785:4802  votingPoll[_name] */\n      mload(0x40)\n      tag_213\n      swap2\n      swap1\n      tag_80\n      jump\t// in\n    tag_213:\n      swap1\n      dup2\n      mstore\n      0x20\n      add\n      mload(0x40)\n      dup1\n      swap2\n      sub\n      swap1\n      keccak256\n        /* \"src/voting.sol\":4761:4802  VotingPoll storage VP = votingPoll[_name] */\n      swap1\n      pop\n        /* \"src/voting.sol\":4817:4819  VP */\n      dup1\n        /* \"src/voting.sol\":4817:4833  VP.CandidateVote */\n      0x05\n      add\n        /* \"src/voting.sol\":4817:4851  VP.CandidateVote[VP.candidates[i]] */\n      0x00\n        /* \"src/voting.sol\":4834:4836  VP */\n      dup3\n        /* \"src/voting.sol\":4834:4847  VP.candidates */\n      0x01\n      add\n        /* \"src/voting.sol\":4848:4849  i */\n      dup6\n        /* \"src/voting.sol\":4834:4850  VP.candidates[i] */\n      dup2\n      sload\n      dup2\n      lt\n      tag_214\n      jumpi\n      tag_215\n      tag_122\n      jump\t// in\n    tag_215:\n    tag_214:\n      swap1\n      0x00\n      mstore\n      keccak256(0x00, 0x20)\n      add\n      0x00\n      swap1\n      sload\n      swap1\n      0x0100\n      exp\n      swap1\n      div\n      0xffffffffffffffffffffffffffffffffffffffff\n      and\n        /* \"src/voting.sol\":4817:4851  VP.CandidateVote[VP.candidates[i]] */\n      0xffffffffffffffffffffffffffffffffffffffff\n      and\n      0xffffffffffffffffffffffffffffffffffffffff\n      and\n      dup2\n      mstore\n      0x20\n      add\n      swap1\n      dup2\n      mstore\n      0x20\n      add\n      0x00\n      keccak256\n      sload\n        /* \"src/voting.sol\":4811:4851  val = VP.CandidateVote[VP.candidates[i]] */\n      swap2\n      pop\n        /* \"src/voting.sol\":4754:4855  {... */\n      pop\n        /* \"src/voting.sol\":4672:4855  function getPosition( string memory _name, uint i) internal view returns(uint val){... */\n      swap3\n      swap2\n      pop\n      pop\n      jump\t// out\n    tag_169:\n      dup3\n      dup1\n      sload\n      tag_217\n      swap1\n      tag_151\n      jump\t// in\n    tag_217:\n      swap1\n      0x00\n      mstore\n      keccak256(0x00, 0x20)\n      swap1\n      0x1f\n      add\n      0x20\n      swap1\n      div\n      dup2\n      add\n      swap3\n      dup3\n      tag_219\n      jumpi\n      0x00\n      dup6\n      sstore\n      jump(tag_218)\n    tag_219:\n      dup3\n      0x1f\n      lt\n      tag_220\n      jumpi\n      dup1\n      mload\n      not(0xff)\n      and\n      dup4\n      dup1\n      add\n      or\n      dup6\n      sstore\n      jump(tag_218)\n    tag_220:\n      dup3\n      dup1\n      add\n      0x01\n      add\n      dup6\n      sstore\n      dup3\n      iszero\n      tag_218\n      jumpi\n      swap2\n      dup3\n      add\n    tag_221:\n      dup3\n      dup2\n      gt\n      iszero\n      tag_222\n      jumpi\n      dup3\n      mload\n      dup3\n      sstore\n      swap2\n      0x20\n      add\n      swap2\n      swap1\n      0x01\n      add\n      swap1\n      jump(tag_221)\n    tag_222:\n    tag_218:\n      pop\n      swap1\n      pop\n      tag_223\n      swap2\n      swap1\n      tag_224\n      jump\t// in\n    tag_223:\n      pop\n      swap1\n      jump\t// out\n    tag_177:\n      mload(0x40)\n      dup1\n      0xc0\n      add\n      0x40\n      mstore\n      dup1\n      0x60\n      dup2\n      mstore\n      0x20\n      add\n      and(0xffffffffffffffffffffffffffffffffffffffff, 0x00)\n      dup2\n      mstore\n      0x20\n      add\n      0x60\n      dup2\n      mstore\n      0x20\n      add\n      and(0xffffffff, 0x00)\n      dup2\n      mstore\n      0x20\n      add\n      and(0xffffffff, 0x00)\n      dup2\n      mstore\n      0x20\n      add\n      iszero(iszero(0x00))\n      dup2\n      mstore\n      pop\n      swap1\n      jump\t// out\n    tag_224:\n    tag_225:\n      dup1\n      dup3\n      gt\n      iszero\n      tag_226\n      jumpi\n      0x00\n      dup2\n      0x00\n      swap1\n      sstore\n      pop\n      0x01\n      add\n      jump(tag_225)\n    tag_226:\n      pop\n      swap1\n      jump\t// out\n        /* \"#utility.yul\":7:82   */\n    tag_227:\n        /* \"#utility.yul\":40:46   */\n      0x00\n        /* \"#utility.yul\":73:75   */\n      0x40\n        /* \"#utility.yul\":67:76   */\n      mload\n        /* \"#utility.yul\":57:76   */\n      swap1\n      pop\n        /* \"#utility.yul\":7:82   */\n      swap1\n      jump\t// out\n        /* \"#utility.yul\":88:205   */\n    tag_228:\n        /* \"#utility.yul\":197:198   */\n      0x00\n        /* \"#utility.yul\":194:195   */\n      dup1\n        /* \"#utility.yul\":187:199   */\n      revert\n        /* \"#utility.yul\":211:328   */\n    tag_229:\n        /* \"#utility.yul\":320:321   */\n      0x00\n        /* \"#utility.yul\":317:318   */\n      dup1\n        /* \"#utility.yul\":310:322   */\n      revert\n        /* \"#utility.yul\":334:460   */\n    tag_230:\n        /* \"#utility.yul\":371:378   */\n      0x00\n        /* \"#utility.yul\":411:453   */\n      0xffffffffffffffffffffffffffffffffffffffff\n        /* \"#utility.yul\":404:409   */\n      dup3\n        /* \"#utility.yul\":400:454   */\n      and\n        /* \"#utility.yul\":389:454   */\n      swap1\n      pop\n        /* \"#utility.yul\":334:460   */\n      swap2\n      swap1\n      pop\n      jump\t// out\n        /* \"#utility.yul\":466:562   */\n    tag_231:\n        /* \"#utility.yul\":503:510   */\n      0x00\n        /* \"#utility.yul\":532:556   */\n      tag_330\n        /* \"#utility.yul\":550:555   */\n      dup3\n        /* \"#utility.yul\":532:556   */\n      tag_230\n      jump\t// in\n    tag_330:\n        /* \"#utility.yul\":521:556   */\n      swap1\n      pop\n        /* \"#utility.yul\":466:562   */\n      swap2\n      swap1\n      pop\n      jump\t// out\n        /* \"#utility.yul\":568:690   */\n    tag_232:\n        /* \"#utility.yul\":641:665   */\n      tag_332\n        /* \"#utility.yul\":659:664   */\n      dup2\n        /* \"#utility.yul\":641:665   */\n      tag_231\n      jump\t// in\n    tag_332:\n        /* \"#utility.yul\":634:639   */\n      dup2\n        /* \"#utility.yul\":631:666   */\n      eq\n        /* \"#utility.yul\":621:684   */\n      tag_333\n      jumpi\n        /* \"#utility.yul\":680:681   */\n      0x00\n        /* \"#utility.yul\":677:678   */\n      dup1\n        /* \"#utility.yul\":670:682   */\n      revert\n        /* \"#utility.yul\":621:684   */\n    tag_333:\n        /* \"#utility.yul\":568:690   */\n      pop\n      jump\t// out\n        /* \"#utility.yul\":696:835   */\n    tag_233:\n        /* \"#utility.yul\":742:747   */\n      0x00\n        /* \"#utility.yul\":780:786   */\n      dup2\n        /* \"#utility.yul\":767:787   */\n      calldataload\n        /* \"#utility.yul\":758:787   */\n      swap1\n      pop\n        /* \"#utility.yul\":796:829   */\n      tag_335\n        /* \"#utility.yul\":823:828   */\n      dup2\n        /* \"#utility.yul\":796:829   */\n      tag_232\n      jump\t// in\n    tag_335:\n        /* \"#utility.yul\":696:835   */\n      swap3\n      swap2\n      pop\n      pop\n      jump\t// out\n        /* \"#utility.yul\":841:958   */\n    tag_234:\n        /* \"#utility.yul\":950:951   */\n      0x00\n        /* \"#utility.yul\":947:948   */\n      dup1\n        /* \"#utility.yul\":940:952   */\n      revert\n        /* \"#utility.yul\":964:1081   */\n    tag_235:\n        /* \"#utility.yul\":1073:1074   */\n      0x00\n        /* \"#utility.yul\":1070:1071   */\n      dup1\n        /* \"#utility.yul\":1063:1075   */\n      revert\n        /* \"#utility.yul\":1087:1189   */\n    tag_236:\n        /* \"#utility.yul\":1128:1134   */\n      0x00\n        /* \"#utility.yul\":1179:1181   */\n      0x1f\n        /* \"#utility.yul\":1175:1182   */\n      not\n        /* \"#utility.yul\":1170:1172   */\n      0x1f\n        /* \"#utility.yul\":1163:1168   */\n      dup4\n        /* \"#utility.yul\":1159:1173   */\n      add\n        /* \"#utility.yul\":1155:1183   */\n      and\n        /* \"#utility.yul\":1145:1183   */\n      swap1\n      pop\n        /* \"#utility.yul\":1087:1189   */\n      swap2\n      swap1\n      pop\n      jump\t// out\n        /* \"#utility.yul\":1195:1375   */\n    tag_112:\n        /* \"#utility.yul\":1243:1320   */\n      0x4e487b7100000000000000000000000000000000000000000000000000000000\n        /* \"#utility.yul\":1240:1241   */\n      0x00\n        /* \"#utility.yul\":1233:1321   */\n      mstore\n        /* \"#utility.yul\":1340:1344   */\n      0x41\n        /* \"#utility.yul\":1337:1338   */\n      0x04\n        /* \"#utility.yul\":1330:1345   */\n      mstore\n        /* \"#utility.yul\":1364:1368   */\n      0x24\n        /* \"#utility.yul\":1361:1362   */\n      0x00\n        /* \"#utility.yul\":1354:1369   */\n      revert\n        /* \"#utility.yul\":1381:1662   */\n    tag_237:\n        /* \"#utility.yul\":1464:1491   */\n      tag_341\n        /* \"#utility.yul\":1486:1490   */\n      dup3\n        /* \"#utility.yul\":1464:1491   */\n      tag_236\n      jump\t// in\n    tag_341:\n        /* \"#utility.yul\":1456:1462   */\n      dup2\n        /* \"#utility.yul\":1452:1492   */\n      add\n        /* \"#utility.yul\":1594:1600   */\n      dup2\n        /* \"#utility.yul\":1582:1592   */\n      dup2\n        /* \"#utility.yul\":1579:1601   */\n      lt\n        /* \"#utility.yul\":1558:1576   */\n      0xffffffffffffffff\n        /* \"#utility.yul\":1546:1556   */\n      dup3\n        /* \"#utility.yul\":1543:1577   */\n      gt\n        /* \"#utility.yul\":1540:1602   */\n      or\n        /* \"#utility.yul\":1537:1625   */\n      iszero\n      tag_342\n      jumpi\n        /* \"#utility.yul\":1605:1623   */\n      tag_343\n      tag_112\n      jump\t// in\n    tag_343:\n        /* \"#utility.yul\":1537:1625   */\n    tag_342:\n        /* \"#utility.yul\":1645:1655   */\n      dup1\n        /* \"#utility.yul\":1641:1643   */\n      0x40\n        /* \"#utility.yul\":1634:1656   */\n      mstore\n        /* \"#utility.yul\":1424:1662   */\n      pop\n        /* \"#utility.yul\":1381:1662   */\n      pop\n      pop\n      jump\t// out\n        /* \"#utility.yul\":1668:1797   */\n    tag_238:\n        /* \"#utility.yul\":1702:1708   */\n      0x00\n        /* \"#utility.yul\":1729:1749   */\n      tag_345\n      tag_227\n      jump\t// in\n    tag_345:\n        /* \"#utility.yul\":1719:1749   */\n      swap1\n      pop\n        /* \"#utility.yul\":1758:1791   */\n      tag_346\n        /* \"#utility.yul\":1786:1790   */\n      dup3\n        /* \"#utility.yul\":1778:1784   */\n      dup3\n        /* \"#utility.yul\":1758:1791   */\n      tag_237\n      jump\t// in\n    tag_346:\n        /* \"#utility.yul\":1668:1797   */\n      swap2\n      swap1\n      pop\n      jump\t// out\n        /* \"#utility.yul\":1803:2111   */\n    tag_239:\n        /* \"#utility.yul\":1865:1869   */\n      0x00\n        /* \"#utility.yul\":1955:1973   */\n      0xffffffffffffffff\n        /* \"#utility.yul\":1947:1953   */\n      dup3\n        /* \"#utility.yul\":1944:1974   */\n      gt\n        /* \"#utility.yul\":1941:1997   */\n      iszero\n      tag_348\n      jumpi\n        /* \"#utility.yul\":1977:1995   */\n      tag_349\n      tag_112\n      jump\t// in\n    tag_349:\n        /* \"#utility.yul\":1941:1997   */\n    tag_348:\n        /* \"#utility.yul\":2015:2044   */\n      tag_350\n        /* \"#utility.yul\":2037:2043   */\n      dup3\n        /* \"#utility.yul\":2015:2044   */\n      tag_236\n      jump\t// in\n    tag_350:\n        /* \"#utility.yul\":2007:2044   */\n      swap1\n      pop\n        /* \"#utility.yul\":2099:2103   */\n      0x20\n        /* \"#utility.yul\":2093:2097   */\n      dup2\n        /* \"#utility.yul\":2089:2104   */\n      add\n        /* \"#utility.yul\":2081:2104   */\n      swap1\n      pop\n        /* \"#utility.yul\":1803:2111   */\n      swap2\n      swap1\n      pop\n      jump\t// out\n        /* \"#utility.yul\":2117:2271   */\n    tag_240:\n        /* \"#utility.yul\":2201:2207   */\n      dup3\n        /* \"#utility.yul\":2196:2199   */\n      dup2\n        /* \"#utility.yul\":2191:2194   */\n      dup4\n        /* \"#utility.yul\":2178:2208   */\n      calldatacopy\n        /* \"#utility.yul\":2263:2264   */\n      0x00\n        /* \"#utility.yul\":2254:2260   */\n      dup4\n        /* \"#utility.yul\":2249:2252   */\n      dup4\n        /* \"#utility.yul\":2245:2261   */\n      add\n        /* \"#utility.yul\":2238:2265   */\n      mstore\n        /* \"#utility.yul\":2117:2271   */\n      pop\n      pop\n      pop\n      jump\t// out\n        /* \"#utility.yul\":2277:2689   */\n    tag_241:\n        /* \"#utility.yul\":2355:2360   */\n      0x00\n        /* \"#utility.yul\":2380:2446   */\n      tag_353\n        /* \"#utility.yul\":2396:2445   */\n      tag_354\n        /* \"#utility.yul\":2438:2444   */\n      dup5\n        /* \"#utility.yul\":2396:2445   */\n      tag_239\n      jump\t// in\n    tag_354:\n        /* \"#utility.yul\":2380:2446   */\n      tag_238\n      jump\t// in\n    tag_353:\n        /* \"#utility.yul\":2371:2446   */\n      swap1\n      pop\n        /* \"#utility.yul\":2469:2475   */\n      dup3\n        /* \"#utility.yul\":2462:2467   */\n      dup2\n        /* \"#utility.yul\":2455:2476   */\n      mstore\n        /* \"#utility.yul\":2507:2511   */\n      0x20\n        /* \"#utility.yul\":2500:2505   */\n      dup2\n        /* \"#utility.yul\":2496:2512   */\n      add\n        /* \"#utility.yul\":2545:2548   */\n      dup5\n        /* \"#utility.yul\":2536:2542   */\n      dup5\n        /* \"#utility.yul\":2531:2534   */\n      dup5\n        /* \"#utility.yul\":2527:2543   */\n      add\n        /* \"#utility.yul\":2524:2549   */\n      gt\n        /* \"#utility.yul\":2521:2633   */\n      iszero\n      tag_355\n      jumpi\n        /* \"#utility.yul\":2552:2631   */\n      tag_356\n      tag_235\n      jump\t// in\n    tag_356:\n        /* \"#utility.yul\":2521:2633   */\n    tag_355:\n        /* \"#utility.yul\":2642:2683   */\n      tag_357\n        /* \"#utility.yul\":2676:2682   */\n      dup5\n        /* \"#utility.yul\":2671:2674   */\n      dup3\n        /* \"#utility.yul\":2666:2669   */\n      dup6\n        /* \"#utility.yul\":2642:2683   */\n      tag_240\n      jump\t// in\n    tag_357:\n        /* \"#utility.yul\":2361:2689   */\n      pop\n        /* \"#utility.yul\":2277:2689   */\n      swap4\n      swap3\n      pop\n      pop\n      pop\n      jump\t// out\n        /* \"#utility.yul\":2709:3049   */\n    tag_242:\n        /* \"#utility.yul\":2765:2770   */\n      0x00\n        /* \"#utility.yul\":2814:2817   */\n      dup3\n        /* \"#utility.yul\":2807:2811   */\n      0x1f\n        /* \"#utility.yul\":2799:2805   */\n      dup4\n        /* \"#utility.yul\":2795:2812   */\n      add\n        /* \"#utility.yul\":2791:2818   */\n      slt\n        /* \"#utility.yul\":2781:2903   */\n      tag_359\n      jumpi\n        /* \"#utility.yul\":2822:2901   */\n      tag_360\n      tag_234\n      jump\t// in\n    tag_360:\n        /* \"#utility.yul\":2781:2903   */\n    tag_359:\n        /* \"#utility.yul\":2939:2945   */\n      dup2\n        /* \"#utility.yul\":2926:2946   */\n      calldataload\n        /* \"#utility.yul\":2964:3043   */\n      tag_361\n        /* \"#utility.yul\":3039:3042   */\n      dup5\n        /* \"#utility.yul\":3031:3037   */\n      dup3\n        /* \"#utility.yul\":3024:3028   */\n      0x20\n        /* \"#utility.yul\":3016:3022   */\n      dup7\n        /* \"#utility.yul\":3012:3029   */\n      add\n        /* \"#utility.yul\":2964:3043   */\n      tag_241\n      jump\t// in\n    tag_361:\n        /* \"#utility.yul\":2955:3043   */\n      swap2\n      pop\n        /* \"#utility.yul\":2771:3049   */\n      pop\n        /* \"#utility.yul\":2709:3049   */\n      swap3\n      swap2\n      pop\n      pop\n      jump\t// out\n        /* \"#utility.yul\":3055:3132   */\n    tag_243:\n        /* \"#utility.yul\":3092:3099   */\n      0x00\n        /* \"#utility.yul\":3121:3126   */\n      dup2\n        /* \"#utility.yul\":3110:3126   */\n      swap1\n      pop\n        /* \"#utility.yul\":3055:3132   */\n      swap2\n      swap1\n      pop\n      jump\t// out\n        /* \"#utility.yul\":3138:3260   */\n    tag_244:\n        /* \"#utility.yul\":3211:3235   */\n      tag_364\n        /* \"#utility.yul\":3229:3234   */\n      dup2\n        /* \"#utility.yul\":3211:3235   */\n      tag_243\n      jump\t// in\n    tag_364:\n        /* \"#utility.yul\":3204:3209   */\n      dup2\n        /* \"#utility.yul\":3201:3236   */\n      eq\n        /* \"#utility.yul\":3191:3254   */\n      tag_365\n      jumpi\n        /* \"#utility.yul\":3250:3251   */\n      0x00\n        /* \"#utility.yul\":3247:3248   */\n      dup1\n        /* \"#utility.yul\":3240:3252   */\n      revert\n        /* \"#utility.yul\":3191:3254   */\n    tag_365:\n        /* \"#utility.yul\":3138:3260   */\n      pop\n      jump\t// out\n        /* \"#utility.yul\":3266:3405   */\n    tag_245:\n        /* \"#utility.yul\":3312:3317   */\n      0x00\n        /* \"#utility.yul\":3350:3356   */\n      dup2\n        /* \"#utility.yul\":3337:3357   */\n      calldataload\n        /* \"#utility.yul\":3328:3357   */\n      swap1\n      pop\n        /* \"#utility.yul\":3366:3399   */\n      tag_367\n        /* \"#utility.yul\":3393:3398   */\n      dup2\n        /* \"#utility.yul\":3366:3399   */\n      tag_244\n      jump\t// in\n    tag_367:\n        /* \"#utility.yul\":3266:3405   */\n      swap3\n      swap2\n      pop\n      pop\n      jump\t// out\n        /* \"#utility.yul\":3411:4356   */\n    tag_18:\n        /* \"#utility.yul\":3507:3513   */\n      0x00\n        /* \"#utility.yul\":3515:3521   */\n      dup1\n        /* \"#utility.yul\":3523:3529   */\n      0x00\n        /* \"#utility.yul\":3531:3537   */\n      dup1\n        /* \"#utility.yul\":3580:3583   */\n      0x80\n        /* \"#utility.yul\":3568:3577   */\n      dup6\n        /* \"#utility.yul\":3559:3566   */\n      dup8\n        /* \"#utility.yul\":3555:3578   */\n      sub\n        /* \"#utility.yul\":3551:3584   */\n      slt\n        /* \"#utility.yul\":3548:3668   */\n      iszero\n      tag_369\n      jumpi\n        /* \"#utility.yul\":3587:3666   */\n      tag_370\n      tag_228\n      jump\t// in\n    tag_370:\n        /* \"#utility.yul\":3548:3668   */\n    tag_369:\n        /* \"#utility.yul\":3707:3708   */\n      0x00\n        /* \"#utility.yul\":3732:3785   */\n      tag_371\n        /* \"#utility.yul\":3777:3784   */\n      dup8\n        /* \"#utility.yul\":3768:3774   */\n      dup3\n        /* \"#utility.yul\":3757:3766   */\n      dup9\n        /* \"#utility.yul\":3753:3775   */\n      add\n        /* \"#utility.yul\":3732:3785   */\n      tag_233\n      jump\t// in\n    tag_371:\n        /* \"#utility.yul\":3722:3785   */\n      swap5\n      pop\n        /* \"#utility.yul\":3678:3795   */\n      pop\n        /* \"#utility.yul\":3862:3864   */\n      0x20\n        /* \"#utility.yul\":3851:3860   */\n      dup6\n        /* \"#utility.yul\":3847:3865   */\n      add\n        /* \"#utility.yul\":3834:3866   */\n      calldataload\n        /* \"#utility.yul\":3893:3911   */\n      0xffffffffffffffff\n        /* \"#utility.yul\":3885:3891   */\n      dup2\n        /* \"#utility.yul\":3882:3912   */\n      gt\n        /* \"#utility.yul\":3879:3996   */\n      iszero\n      tag_372\n      jumpi\n        /* \"#utility.yul\":3915:3994   */\n      tag_373\n      tag_229\n      jump\t// in\n    tag_373:\n        /* \"#utility.yul\":3879:3996   */\n    tag_372:\n        /* \"#utility.yul\":4020:4083   */\n      tag_374\n        /* \"#utility.yul\":4075:4082   */\n      dup8\n        /* \"#utility.yul\":4066:4072   */\n      dup3\n        /* \"#utility.yul\":4055:4064   */\n      dup9\n        /* \"#utility.yul\":4051:4073   */\n      add\n        /* \"#utility.yul\":4020:4083   */\n      tag_242\n      jump\t// in\n    tag_374:\n        /* \"#utility.yul\":4010:4083   */\n      swap4\n      pop\n        /* \"#utility.yul\":3805:4093   */\n      pop\n        /* \"#utility.yul\":4132:4134   */\n      0x40\n        /* \"#utility.yul\":4158:4211   */\n      tag_375\n        /* \"#utility.yul\":4203:4210   */\n      dup8\n        /* \"#utility.yul\":4194:4200   */\n      dup3\n        /* \"#utility.yul\":4183:4192   */\n      dup9\n        /* \"#utility.yul\":4179:4201   */\n      add\n        /* \"#utility.yul\":4158:4211   */\n      tag_245\n      jump\t// in\n    tag_375:\n        /* \"#utility.yul\":4148:4211   */\n      swap3\n      pop\n        /* \"#utility.yul\":4103:4221   */\n      pop\n        /* \"#utility.yul\":4260:4262   */\n      0x60\n        /* \"#utility.yul\":4286:4339   */\n      tag_376\n        /* \"#utility.yul\":4331:4338   */\n      dup8\n        /* \"#utility.yul\":4322:4328   */\n      dup3\n        /* \"#utility.yul\":4311:4320   */\n      dup9\n        /* \"#utility.yul\":4307:4329   */\n      add\n        /* \"#utility.yul\":4286:4339   */\n      tag_245\n      jump\t// in\n    tag_376:\n        /* \"#utility.yul\":4276:4339   */\n      swap2\n      pop\n        /* \"#utility.yul\":4231:4349   */\n      pop\n        /* \"#utility.yul\":3411:4356   */\n      swap3\n      swap6\n      swap2\n      swap5\n      pop\n      swap3\n      pop\n      jump\t// out\n        /* \"#utility.yul\":4362:4439   */\n    tag_246:\n        /* \"#utility.yul\":4399:4406   */\n      0x00\n        /* \"#utility.yul\":4428:4433   */\n      dup2\n        /* \"#utility.yul\":4417:4433   */\n      swap1\n      pop\n        /* \"#utility.yul\":4362:4439   */\n      swap2\n      swap1\n      pop\n      jump\t// out\n        /* \"#utility.yul\":4445:4563   */\n    tag_247:\n        /* \"#utility.yul\":4532:4556   */\n      tag_379\n        /* \"#utility.yul\":4550:4555   */\n      dup2\n        /* \"#utility.yul\":4532:4556   */\n      tag_246\n      jump\t// in\n    tag_379:\n        /* \"#utility.yul\":4527:4530   */\n      dup3\n        /* \"#utility.yul\":4520:4557   */\n      mstore\n        /* \"#utility.yul\":4445:4563   */\n      pop\n      pop\n      jump\t// out\n        /* \"#utility.yul\":4569:4791   */\n    tag_21:\n        /* \"#utility.yul\":4662:4666   */\n      0x00\n        /* \"#utility.yul\":4700:4702   */\n      0x20\n        /* \"#utility.yul\":4689:4698   */\n      dup3\n        /* \"#utility.yul\":4685:4703   */\n      add\n        /* \"#utility.yul\":4677:4703   */\n      swap1\n      pop\n        /* \"#utility.yul\":4713:4784   */\n      tag_381\n        /* \"#utility.yul\":4781:4782   */\n      0x00\n        /* \"#utility.yul\":4770:4779   */\n      dup4\n        /* \"#utility.yul\":4766:4783   */\n      add\n        /* \"#utility.yul\":4757:4763   */\n      dup5\n        /* \"#utility.yul\":4713:4784   */\n      tag_247\n      jump\t// in\n    tag_381:\n        /* \"#utility.yul\":4569:4791   */\n      swap3\n      swap2\n      pop\n      pop\n      jump\t// out\n        /* \"#utility.yul\":4797:5104   */\n    tag_248:\n        /* \"#utility.yul\":4858:4862   */\n      0x00\n        /* \"#utility.yul\":4948:4966   */\n      0xffffffffffffffff\n        /* \"#utility.yul\":4940:4946   */\n      dup3\n        /* \"#utility.yul\":4937:4967   */\n      gt\n        /* \"#utility.yul\":4934:4990   */\n      iszero\n      tag_383\n      jumpi\n        /* \"#utility.yul\":4970:4988   */\n      tag_384\n      tag_112\n      jump\t// in\n    tag_384:\n        /* \"#utility.yul\":4934:4990   */\n    tag_383:\n        /* \"#utility.yul\":5008:5037   */\n      tag_385\n        /* \"#utility.yul\":5030:5036   */\n      dup3\n        /* \"#utility.yul\":5008:5037   */\n      tag_236\n      jump\t// in\n    tag_385:\n        /* \"#utility.yul\":5000:5037   */\n      swap1\n      pop\n        /* \"#utility.yul\":5092:5096   */\n      0x20\n        /* \"#utility.yul\":5086:5090   */\n      dup2\n        /* \"#utility.yul\":5082:5097   */\n      add\n        /* \"#utility.yul\":5074:5097   */\n      swap1\n      pop\n        /* \"#utility.yul\":4797:5104   */\n      swap2\n      swap1\n      pop\n      jump\t// out\n        /* \"#utility.yul\":5110:5520   */\n    tag_249:\n        /* \"#utility.yul\":5187:5192   */\n      0x00\n        /* \"#utility.yul\":5212:5277   */\n      tag_387\n        /* \"#utility.yul\":5228:5276   */\n      tag_388\n        /* \"#utility.yul\":5269:5275   */\n      dup5\n        /* \"#utility.yul\":5228:5276   */\n      tag_248\n      jump\t// in\n    tag_388:\n        /* \"#utility.yul\":5212:5277   */\n      tag_238\n      jump\t// in\n    tag_387:\n        /* \"#utility.yul\":5203:5277   */\n      swap1\n      pop\n        /* \"#utility.yul\":5300:5306   */\n      dup3\n        /* \"#utility.yul\":5293:5298   */\n      dup2\n        /* \"#utility.yul\":5286:5307   */\n      mstore\n        /* \"#utility.yul\":5338:5342   */\n      0x20\n        /* \"#utility.yul\":5331:5336   */\n      dup2\n        /* \"#utility.yul\":5327:5343   */\n      add\n        /* \"#utility.yul\":5376:5379   */\n      dup5\n        /* \"#utility.yul\":5367:5373   */\n      dup5\n        /* \"#utility.yul\":5362:5365   */\n      dup5\n        /* \"#utility.yul\":5358:5374   */\n      add\n        /* \"#utility.yul\":5355:5380   */\n      gt\n        /* \"#utility.yul\":5352:5464   */\n      iszero\n      tag_389\n      jumpi\n        /* \"#utility.yul\":5383:5462   */\n      tag_390\n      tag_235\n      jump\t// in\n    tag_390:\n        /* \"#utility.yul\":5352:5464   */\n    tag_389:\n        /* \"#utility.yul\":5473:5514   */\n      tag_391\n        /* \"#utility.yul\":5507:5513   */\n      dup5\n        /* \"#utility.yul\":5502:5505   */\n      dup3\n        /* \"#utility.yul\":5497:5500   */\n      dup6\n        /* \"#utility.yul\":5473:5514   */\n      tag_240\n      jump\t// in\n    tag_391:\n        /* \"#utility.yul\":5193:5520   */\n      pop\n        /* \"#utility.yul\":5110:5520   */\n      swap4\n      swap3\n      pop\n      pop\n      pop\n      jump\t// out\n        /* \"#utility.yul\":5539:5877   */\n    tag_250:\n        /* \"#utility.yul\":5594:5599   */\n      0x00\n        /* \"#utility.yul\":5643:5646   */\n      dup3\n        /* \"#utility.yul\":5636:5640   */\n      0x1f\n        /* \"#utility.yul\":5628:5634   */\n      dup4\n        /* \"#utility.yul\":5624:5641   */\n      add\n        /* \"#utility.yul\":5620:5647   */\n      slt\n        /* \"#utility.yul\":5610:5732   */\n      tag_393\n      jumpi\n        /* \"#utility.yul\":5651:5730   */\n      tag_394\n      tag_234\n      jump\t// in\n    tag_394:\n        /* \"#utility.yul\":5610:5732   */\n    tag_393:\n        /* \"#utility.yul\":5768:5774   */\n      dup2\n        /* \"#utility.yul\":5755:5775   */\n      calldataload\n        /* \"#utility.yul\":5793:5871   */\n      tag_395\n        /* \"#utility.yul\":5867:5870   */\n      dup5\n        /* \"#utility.yul\":5859:5865   */\n      dup3\n        /* \"#utility.yul\":5852:5856   */\n      0x20\n        /* \"#utility.yul\":5844:5850   */\n      dup7\n        /* \"#utility.yul\":5840:5857   */\n      add\n        /* \"#utility.yul\":5793:5871   */\n      tag_249\n      jump\t// in\n    tag_395:\n        /* \"#utility.yul\":5784:5871   */\n      swap2\n      pop\n        /* \"#utility.yul\":5600:5877   */\n      pop\n        /* \"#utility.yul\":5539:5877   */\n      swap3\n      swap2\n      pop\n      pop\n      jump\t// out\n        /* \"#utility.yul\":5883:7006   */\n    tag_24:\n        /* \"#utility.yul\":5988:5994   */\n      0x00\n        /* \"#utility.yul\":5996:6002   */\n      dup1\n        /* \"#utility.yul\":6004:6010   */\n      0x00\n        /* \"#utility.yul\":6012:6018   */\n      dup1\n        /* \"#utility.yul\":6061:6064   */\n      0x80\n        /* \"#utility.yul\":6049:6058   */\n      dup6\n        /* \"#utility.yul\":6040:6047   */\n      dup8\n        /* \"#utility.yul\":6036:6059   */\n      sub\n        /* \"#utility.yul\":6032:6065   */\n      slt\n        /* \"#utility.yul\":6029:6149   */\n      iszero\n      tag_397\n      jumpi\n        /* \"#utility.yul\":6068:6147   */\n      tag_398\n      tag_228\n      jump\t// in\n    tag_398:\n        /* \"#utility.yul\":6029:6149   */\n    tag_397:\n        /* \"#utility.yul\":6188:6189   */\n      0x00\n        /* \"#utility.yul\":6213:6266   */\n      tag_399\n        /* \"#utility.yul\":6258:6265   */\n      dup8\n        /* \"#utility.yul\":6249:6255   */\n      dup3\n        /* \"#utility.yul\":6238:6247   */\n      dup9\n        /* \"#utility.yul\":6234:6256   */\n      add\n        /* \"#utility.yul\":6213:6266   */\n      tag_233\n      jump\t// in\n    tag_399:\n        /* \"#utility.yul\":6203:6266   */\n      swap5\n      pop\n        /* \"#utility.yul\":6159:6276   */\n      pop\n        /* \"#utility.yul\":6343:6345   */\n      0x20\n        /* \"#utility.yul\":6332:6341   */\n      dup6\n        /* \"#utility.yul\":6328:6346   */\n      add\n        /* \"#utility.yul\":6315:6347   */\n      calldataload\n        /* \"#utility.yul\":6374:6392   */\n      0xffffffffffffffff\n        /* \"#utility.yul\":6366:6372   */\n      dup2\n        /* \"#utility.yul\":6363:6393   */\n      gt\n        /* \"#utility.yul\":6360:6477   */\n      iszero\n      tag_400\n      jumpi\n        /* \"#utility.yul\":6396:6475   */\n      tag_401\n      tag_229\n      jump\t// in\n    tag_401:\n        /* \"#utility.yul\":6360:6477   */\n    tag_400:\n        /* \"#utility.yul\":6501:6564   */\n      tag_402\n        /* \"#utility.yul\":6556:6563   */\n      dup8\n        /* \"#utility.yul\":6547:6553   */\n      dup3\n        /* \"#utility.yul\":6536:6545   */\n      dup9\n        /* \"#utility.yul\":6532:6554   */\n      add\n        /* \"#utility.yul\":6501:6564   */\n      tag_242\n      jump\t// in\n    tag_402:\n        /* \"#utility.yul\":6491:6564   */\n      swap4\n      pop\n        /* \"#utility.yul\":6286:6574   */\n      pop\n        /* \"#utility.yul\":6613:6615   */\n      0x40\n        /* \"#utility.yul\":6639:6692   */\n      tag_403\n        /* \"#utility.yul\":6684:6691   */\n      dup8\n        /* \"#utility.yul\":6675:6681   */\n      dup3\n        /* \"#utility.yul\":6664:6673   */\n      dup9\n        /* \"#utility.yul\":6660:6682   */\n      add\n        /* \"#utility.yul\":6639:6692   */\n      tag_245\n      jump\t// in\n    tag_403:\n        /* \"#utility.yul\":6629:6692   */\n      swap3\n      pop\n        /* \"#utility.yul\":6584:6702   */\n      pop\n        /* \"#utility.yul\":6769:6771   */\n      0x60\n        /* \"#utility.yul\":6758:6767   */\n      dup6\n        /* \"#utility.yul\":6754:6772   */\n      add\n        /* \"#utility.yul\":6741:6773   */\n      calldataload\n        /* \"#utility.yul\":6800:6818   */\n      0xffffffffffffffff\n        /* \"#utility.yul\":6792:6798   */\n      dup2\n        /* \"#utility.yul\":6789:6819   */\n      gt\n        /* \"#utility.yul\":6786:6903   */\n      iszero\n      tag_404\n      jumpi\n        /* \"#utility.yul\":6822:6901   */\n      tag_405\n      tag_229\n      jump\t// in\n    tag_405:\n        /* \"#utility.yul\":6786:6903   */\n    tag_404:\n        /* \"#utility.yul\":6927:6989   */\n      tag_406\n        /* \"#utility.yul\":6981:6988   */\n      dup8\n        /* \"#utility.yul\":6972:6978   */\n      dup3\n        /* \"#utility.yul\":6961:6970   */\n      dup9\n        /* \"#utility.yul\":6957:6979   */\n      add\n        /* \"#utility.yul\":6927:6989   */\n      tag_250\n      jump\t// in\n    tag_406:\n        /* \"#utility.yul\":6917:6989   */\n      swap2\n      pop\n        /* \"#utility.yul\":6712:6999   */\n      pop\n        /* \"#utility.yul\":5883:7006   */\n      swap3\n      swap6\n      swap2\n      swap5\n      pop\n      swap3\n      pop\n      jump\t// out\n        /* \"#utility.yul\":7012:7521   */\n    tag_28:\n        /* \"#utility.yul\":7081:7087   */\n      0x00\n        /* \"#utility.yul\":7130:7132   */\n      0x20\n        /* \"#utility.yul\":7118:7127   */\n      dup3\n        /* \"#utility.yul\":7109:7116   */\n      dup5\n        /* \"#utility.yul\":7105:7128   */\n      sub\n        /* \"#utility.yul\":7101:7133   */\n      slt\n        /* \"#utility.yul\":7098:7217   */\n      iszero\n      tag_408\n      jumpi\n        /* \"#utility.yul\":7136:7215   */\n      tag_409\n      tag_228\n      jump\t// in\n    tag_409:\n        /* \"#utility.yul\":7098:7217   */\n    tag_408:\n        /* \"#utility.yul\":7284:7285   */\n      0x00\n        /* \"#utility.yul\":7273:7282   */\n      dup3\n        /* \"#utility.yul\":7269:7286   */\n      add\n        /* \"#utility.yul\":7256:7287   */\n      calldataload\n        /* \"#utility.yul\":7314:7332   */\n      0xffffffffffffffff\n        /* \"#utility.yul\":7306:7312   */\n      dup2\n        /* \"#utility.yul\":7303:7333   */\n      gt\n        /* \"#utility.yul\":7300:7417   */\n      iszero\n      tag_410\n      jumpi\n        /* \"#utility.yul\":7336:7415   */\n      tag_411\n      tag_229\n      jump\t// in\n    tag_411:\n        /* \"#utility.yul\":7300:7417   */\n    tag_410:\n        /* \"#utility.yul\":7441:7504   */\n      tag_412\n        /* \"#utility.yul\":7496:7503   */\n      dup5\n        /* \"#utility.yul\":7487:7493   */\n      dup3\n        /* \"#utility.yul\":7476:7485   */\n      dup6\n        /* \"#utility.yul\":7472:7494   */\n      add\n        /* \"#utility.yul\":7441:7504   */\n      tag_242\n      jump\t// in\n    tag_412:\n        /* \"#utility.yul\":7431:7504   */\n      swap2\n      pop\n        /* \"#utility.yul\":7227:7514   */\n      pop\n        /* \"#utility.yul\":7012:7521   */\n      swap3\n      swap2\n      pop\n      pop\n      jump\t// out\n        /* \"#utility.yul\":7527:7641   */\n    tag_251:\n        /* \"#utility.yul\":7594:7600   */\n      0x00\n        /* \"#utility.yul\":7628:7633   */\n      dup2\n        /* \"#utility.yul\":7622:7634   */\n      mload\n        /* \"#utility.yul\":7612:7634   */\n      swap1\n      pop\n        /* \"#utility.yul\":7527:7641   */\n      swap2\n      swap1\n      pop\n      jump\t// out\n        /* \"#utility.yul\":7647:7831   */\n    tag_252:\n        /* \"#utility.yul\":7746:7757   */\n      0x00\n        /* \"#utility.yul\":7780:7786   */\n      dup3\n        /* \"#utility.yul\":7775:7778   */\n      dup3\n        /* \"#utility.yul\":7768:7787   */\n      mstore\n        /* \"#utility.yul\":7820:7824   */\n      0x20\n        /* \"#utility.yul\":7815:7818   */\n      dup3\n        /* \"#utility.yul\":7811:7825   */\n      add\n        /* \"#utility.yul\":7796:7825   */\n      swap1\n      pop\n        /* \"#utility.yul\":7647:7831   */\n      swap3\n      swap2\n      pop\n      pop\n      jump\t// out\n        /* \"#utility.yul\":7837:7969   */\n    tag_253:\n        /* \"#utility.yul\":7904:7908   */\n      0x00\n        /* \"#utility.yul\":7927:7930   */\n      dup2\n        /* \"#utility.yul\":7919:7930   */\n      swap1\n      pop\n        /* \"#utility.yul\":7957:7961   */\n      0x20\n        /* \"#utility.yul\":7952:7955   */\n      dup3\n        /* \"#utility.yul\":7948:7962   */\n      add\n        /* \"#utility.yul\":7940:7962   */\n      swap1\n      pop\n        /* \"#utility.yul\":7837:7969   */\n      swap2\n      swap1\n      pop\n      jump\t// out\n        /* \"#utility.yul\":7975:8083   */\n    tag_254:\n        /* \"#utility.yul\":8052:8076   */\n      tag_417\n        /* \"#utility.yul\":8070:8075   */\n      dup2\n        /* \"#utility.yul\":8052:8076   */\n      tag_243\n      jump\t// in\n    tag_417:\n        /* \"#utility.yul\":8047:8050   */\n      dup3\n        /* \"#utility.yul\":8040:8077   */\n      mstore\n        /* \"#utility.yul\":7975:8083   */\n      pop\n      pop\n      jump\t// out\n        /* \"#utility.yul\":8089:8268   */\n    tag_255:\n        /* \"#utility.yul\":8158:8168   */\n      0x00\n        /* \"#utility.yul\":8179:8225   */\n      tag_419\n        /* \"#utility.yul\":8221:8224   */\n      dup4\n        /* \"#utility.yul\":8213:8219   */\n      dup4\n        /* \"#utility.yul\":8179:8225   */\n      tag_254\n      jump\t// in\n    tag_419:\n        /* \"#utility.yul\":8257:8261   */\n      0x20\n        /* \"#utility.yul\":8252:8255   */\n      dup4\n        /* \"#utility.yul\":8248:8262   */\n      add\n        /* \"#utility.yul\":8234:8262   */\n      swap1\n      pop\n        /* \"#utility.yul\":8089:8268   */\n      swap3\n      swap2\n      pop\n      pop\n      jump\t// out\n        /* \"#utility.yul\":8274:8387   */\n    tag_256:\n        /* \"#utility.yul\":8344:8348   */\n      0x00\n        /* \"#utility.yul\":8376:8380   */\n      0x20\n        /* \"#utility.yul\":8371:8374   */\n      dup3\n        /* \"#utility.yul\":8367:8381   */\n      add\n        /* \"#utility.yul\":8359:8381   */\n      swap1\n      pop\n        /* \"#utility.yul\":8274:8387   */\n      swap2\n      swap1\n      pop\n      jump\t// out\n        /* \"#utility.yul\":8423:9155   */\n    tag_257:\n        /* \"#utility.yul\":8542:8545   */\n      0x00\n        /* \"#utility.yul\":8571:8625   */\n      tag_422\n        /* \"#utility.yul\":8619:8624   */\n      dup3\n        /* \"#utility.yul\":8571:8625   */\n      tag_251\n      jump\t// in\n    tag_422:\n        /* \"#utility.yul\":8641:8727   */\n      tag_423\n        /* \"#utility.yul\":8720:8726   */\n      dup2\n        /* \"#utility.yul\":8715:8718   */\n      dup6\n        /* \"#utility.yul\":8641:8727   */\n      tag_252\n      jump\t// in\n    tag_423:\n        /* \"#utility.yul\":8634:8727   */\n      swap4\n      pop\n        /* \"#utility.yul\":8751:8807   */\n      tag_424\n        /* \"#utility.yul\":8801:8806   */\n      dup4\n        /* \"#utility.yul\":8751:8807   */\n      tag_253\n      jump\t// in\n    tag_424:\n        /* \"#utility.yul\":8830:8837   */\n      dup1\n        /* \"#utility.yul\":8861:8862   */\n      0x00\n        /* \"#utility.yul\":8846:9130   */\n    tag_425:\n        /* \"#utility.yul\":8871:8877   */\n      dup4\n        /* \"#utility.yul\":8868:8869   */\n      dup2\n        /* \"#utility.yul\":8865:8878   */\n      lt\n        /* \"#utility.yul\":8846:9130   */\n      iszero\n      tag_427\n      jumpi\n        /* \"#utility.yul\":8947:8953   */\n      dup2\n        /* \"#utility.yul\":8941:8954   */\n      mload\n        /* \"#utility.yul\":8974:9037   */\n      tag_428\n        /* \"#utility.yul\":9033:9036   */\n      dup9\n        /* \"#utility.yul\":9018:9031   */\n      dup3\n        /* \"#utility.yul\":8974:9037   */\n      tag_255\n      jump\t// in\n    tag_428:\n        /* \"#utility.yul\":8967:9037   */\n      swap8\n      pop\n        /* \"#utility.yul\":9060:9120   */\n      tag_429\n        /* \"#utility.yul\":9113:9119   */\n      dup4\n        /* \"#utility.yul\":9060:9120   */\n      tag_256\n      jump\t// in\n    tag_429:\n        /* \"#utility.yul\":9050:9120   */\n      swap3\n      pop\n        /* \"#utility.yul\":8906:9130   */\n      pop\n        /* \"#utility.yul\":8893:8894   */\n      0x01\n        /* \"#utility.yul\":8890:8891   */\n      dup2\n        /* \"#utility.yul\":8886:8895   */\n      add\n        /* \"#utility.yul\":8881:8895   */\n      swap1\n      pop\n        /* \"#utility.yul\":8846:9130   */\n      jump(tag_425)\n    tag_427:\n        /* \"#utility.yul\":8850:8864   */\n      pop\n        /* \"#utility.yul\":9146:9149   */\n      dup6\n        /* \"#utility.yul\":9139:9149   */\n      swap4\n      pop\n        /* \"#utility.yul\":8547:9155   */\n      pop\n      pop\n      pop\n        /* \"#utility.yul\":8423:9155   */\n      swap3\n      swap2\n      pop\n      pop\n      jump\t// out\n        /* \"#utility.yul\":9161:9279   */\n    tag_258:\n        /* \"#utility.yul\":9248:9272   */\n      tag_431\n        /* \"#utility.yul\":9266:9271   */\n      dup2\n        /* \"#utility.yul\":9248:9272   */\n      tag_231\n      jump\t// in\n    tag_431:\n        /* \"#utility.yul\":9243:9246   */\n      dup3\n        /* \"#utility.yul\":9236:9273   */\n      mstore\n        /* \"#utility.yul\":9161:9279   */\n      pop\n      pop\n      jump\t// out\n        /* \"#utility.yul\":9285:9403   */\n    tag_259:\n        /* \"#utility.yul\":9372:9396   */\n      tag_433\n        /* \"#utility.yul\":9390:9395   */\n      dup2\n        /* \"#utility.yul\":9372:9396   */\n      tag_243\n      jump\t// in\n    tag_433:\n        /* \"#utility.yul\":9367:9370   */\n      dup3\n        /* \"#utility.yul\":9360:9397   */\n      mstore\n        /* \"#utility.yul\":9285:9403   */\n      pop\n      pop\n      jump\t// out\n        /* \"#utility.yul\":9409:10002   */\n    tag_31:\n        /* \"#utility.yul\":9608:9612   */\n      0x00\n        /* \"#utility.yul\":9646:9648   */\n      0x60\n        /* \"#utility.yul\":9635:9644   */\n      dup3\n        /* \"#utility.yul\":9631:9649   */\n      add\n        /* \"#utility.yul\":9623:9649   */\n      swap1\n      pop\n        /* \"#utility.yul\":9695:9704   */\n      dup2\n        /* \"#utility.yul\":9689:9693   */\n      dup2\n        /* \"#utility.yul\":9685:9705   */\n      sub\n        /* \"#utility.yul\":9681:9682   */\n      0x00\n        /* \"#utility.yul\":9670:9679   */\n      dup4\n        /* \"#utility.yul\":9666:9683   */\n      add\n        /* \"#utility.yul\":9659:9706   */\n      mstore\n        /* \"#utility.yul\":9723:9831   */\n      tag_435\n        /* \"#utility.yul\":9826:9830   */\n      dup2\n        /* \"#utility.yul\":9817:9823   */\n      dup7\n        /* \"#utility.yul\":9723:9831   */\n      tag_257\n      jump\t// in\n    tag_435:\n        /* \"#utility.yul\":9715:9831   */\n      swap1\n      pop\n        /* \"#utility.yul\":9841:9913   */\n      tag_436\n        /* \"#utility.yul\":9909:9911   */\n      0x20\n        /* \"#utility.yul\":9898:9907   */\n      dup4\n        /* \"#utility.yul\":9894:9912   */\n      add\n        /* \"#utility.yul\":9885:9891   */\n      dup6\n        /* \"#utility.yul\":9841:9913   */\n      tag_258\n      jump\t// in\n    tag_436:\n        /* \"#utility.yul\":9923:9995   */\n      tag_437\n        /* \"#utility.yul\":9991:9993   */\n      0x40\n        /* \"#utility.yul\":9980:9989   */\n      dup4\n        /* \"#utility.yul\":9976:9994   */\n      add\n        /* \"#utility.yul\":9967:9973   */\n      dup5\n        /* \"#utility.yul\":9923:9995   */\n      tag_259\n      jump\t// in\n    tag_437:\n        /* \"#utility.yul\":9409:10002   */\n      swap5\n      swap4\n      pop\n      pop\n      pop\n      pop\n      jump\t// out\n        /* \"#utility.yul\":10008:10662   */\n    tag_34:\n        /* \"#utility.yul\":10086:10092   */\n      0x00\n        /* \"#utility.yul\":10094:10100   */\n      dup1\n        /* \"#utility.yul\":10143:10145   */\n      0x40\n        /* \"#utility.yul\":10131:10140   */\n      dup4\n        /* \"#utility.yul\":10122:10129   */\n      dup6\n        /* \"#utility.yul\":10118:10141   */\n      sub\n        /* \"#utility.yul\":10114:10146   */\n      slt\n        /* \"#utility.yul\":10111:10230   */\n      iszero\n      tag_439\n      jumpi\n        /* \"#utility.yul\":10149:10228   */\n      tag_440\n      tag_228\n      jump\t// in\n    tag_440:\n        /* \"#utility.yul\":10111:10230   */\n    tag_439:\n        /* \"#utility.yul\":10269:10270   */\n      0x00\n        /* \"#utility.yul\":10294:10347   */\n      tag_441\n        /* \"#utility.yul\":10339:10346   */\n      dup6\n        /* \"#utility.yul\":10330:10336   */\n      dup3\n        /* \"#utility.yul\":10319:10328   */\n      dup7\n        /* \"#utility.yul\":10315:10337   */\n      add\n        /* \"#utility.yul\":10294:10347   */\n      tag_233\n      jump\t// in\n    tag_441:\n        /* \"#utility.yul\":10284:10347   */\n      swap3\n      pop\n        /* \"#utility.yul\":10240:10357   */\n      pop\n        /* \"#utility.yul\":10424:10426   */\n      0x20\n        /* \"#utility.yul\":10413:10422   */\n      dup4\n        /* \"#utility.yul\":10409:10427   */\n      add\n        /* \"#utility.yul\":10396:10428   */\n      calldataload\n        /* \"#utility.yul\":10455:10473   */\n      0xffffffffffffffff\n        /* \"#utility.yul\":10447:10453   */\n      dup2\n        /* \"#utility.yul\":10444:10474   */\n      gt\n        /* \"#utility.yul\":10441:10558   */\n      iszero\n      tag_442\n      jumpi\n        /* \"#utility.yul\":10477:10556   */\n      tag_443\n      tag_229\n      jump\t// in\n    tag_443:\n        /* \"#utility.yul\":10441:10558   */\n    tag_442:\n        /* \"#utility.yul\":10582:10645   */\n      tag_444\n        /* \"#utility.yul\":10637:10644   */\n      dup6\n        /* \"#utility.yul\":10628:10634   */\n      dup3\n        /* \"#utility.yul\":10617:10626   */\n      dup7\n        /* \"#utility.yul\":10613:10635   */\n      add\n        /* \"#utility.yul\":10582:10645   */\n      tag_242\n      jump\t// in\n    tag_444:\n        /* \"#utility.yul\":10572:10645   */\n      swap2\n      pop\n        /* \"#utility.yul\":10367:10655   */\n      pop\n        /* \"#utility.yul\":10008:10662   */\n      swap3\n      pop\n      swap3\n      swap1\n      pop\n      jump\t// out\n        /* \"#utility.yul\":10668:10761   */\n    tag_260:\n        /* \"#utility.yul\":10704:10711   */\n      0x00\n        /* \"#utility.yul\":10744:10754   */\n      0xffffffff\n        /* \"#utility.yul\":10737:10742   */\n      dup3\n        /* \"#utility.yul\":10733:10755   */\n      and\n        /* \"#utility.yul\":10722:10755   */\n      swap1\n      pop\n        /* \"#utility.yul\":10668:10761   */\n      swap2\n      swap1\n      pop\n      jump\t// out\n        /* \"#utility.yul\":10767:10882   */\n    tag_261:\n        /* \"#utility.yul\":10852:10875   */\n      tag_447\n        /* \"#utility.yul\":10869:10874   */\n      dup2\n        /* \"#utility.yul\":10852:10875   */\n      tag_260\n      jump\t// in\n    tag_447:\n        /* \"#utility.yul\":10847:10850   */\n      dup3\n        /* \"#utility.yul\":10840:10876   */\n      mstore\n        /* \"#utility.yul\":10767:10882   */\n      pop\n      pop\n      jump\t// out\n        /* \"#utility.yul\":10888:10978   */\n    tag_262:\n        /* \"#utility.yul\":10922:10929   */\n      0x00\n        /* \"#utility.yul\":10965:10970   */\n      dup2\n        /* \"#utility.yul\":10958:10971   */\n      iszero\n        /* \"#utility.yul\":10951:10972   */\n      iszero\n        /* \"#utility.yul\":10940:10972   */\n      swap1\n      pop\n        /* \"#utility.yul\":10888:10978   */\n      swap2\n      swap1\n      pop\n      jump\t// out\n        /* \"#utility.yul\":10984:11093   */\n    tag_263:\n        /* \"#utility.yul\":11065:11086   */\n      tag_450\n        /* \"#utility.yul\":11080:11085   */\n      dup2\n        /* \"#utility.yul\":11065:11086   */\n      tag_262\n      jump\t// in\n    tag_450:\n        /* \"#utility.yul\":11060:11063   */\n      dup3\n        /* \"#utility.yul\":11053:11087   */\n      mstore\n        /* \"#utility.yul\":10984:11093   */\n      pop\n      pop\n      jump\t// out\n        /* \"#utility.yul\":11099:11632   */\n    tag_40:\n        /* \"#utility.yul\":11266:11270   */\n      0x00\n        /* \"#utility.yul\":11304:11307   */\n      0x80\n        /* \"#utility.yul\":11293:11302   */\n      dup3\n        /* \"#utility.yul\":11289:11308   */\n      add\n        /* \"#utility.yul\":11281:11308   */\n      swap1\n      pop\n        /* \"#utility.yul\":11318:11389   */\n      tag_452\n        /* \"#utility.yul\":11386:11387   */\n      0x00\n        /* \"#utility.yul\":11375:11384   */\n      dup4\n        /* \"#utility.yul\":11371:11388   */\n      add\n        /* \"#utility.yul\":11362:11368   */\n      dup8\n        /* \"#utility.yul\":11318:11389   */\n      tag_258\n      jump\t// in\n    tag_452:\n        /* \"#utility.yul\":11399:11469   */\n      tag_453\n        /* \"#utility.yul\":11465:11467   */\n      0x20\n        /* \"#utility.yul\":11454:11463   */\n      dup4\n        /* \"#utility.yul\":11450:11468   */\n      add\n        /* \"#utility.yul\":11441:11447   */\n      dup7\n        /* \"#utility.yul\":11399:11469   */\n      tag_261\n      jump\t// in\n    tag_453:\n        /* \"#utility.yul\":11479:11549   */\n      tag_454\n        /* \"#utility.yul\":11545:11547   */\n      0x40\n        /* \"#utility.yul\":11534:11543   */\n      dup4\n        /* \"#utility.yul\":11530:11548   */\n      add\n        /* \"#utility.yul\":11521:11527   */\n      dup6\n        /* \"#utility.yul\":11479:11549   */\n      tag_261\n      jump\t// in\n    tag_454:\n        /* \"#utility.yul\":11559:11625   */\n      tag_455\n        /* \"#utility.yul\":11621:11623   */\n      0x60\n        /* \"#utility.yul\":11610:11619   */\n      dup4\n        /* \"#utility.yul\":11606:11624   */\n      add\n        /* \"#utility.yul\":11597:11603   */\n      dup5\n        /* \"#utility.yul\":11559:11625   */\n      tag_263\n      jump\t// in\n    tag_455:\n        /* \"#utility.yul\":11099:11632   */\n      swap6\n      swap5\n      pop\n      pop\n      pop\n      pop\n      pop\n      jump\t// out\n        /* \"#utility.yul\":11638:11967   */\n    tag_43:\n        /* \"#utility.yul\":11697:11703   */\n      0x00\n        /* \"#utility.yul\":11746:11748   */\n      0x20\n        /* \"#utility.yul\":11734:11743   */\n      dup3\n        /* \"#utility.yul\":11725:11732   */\n      dup5\n        /* \"#utility.yul\":11721:11744   */\n      sub\n        /* \"#utility.yul\":11717:11749   */\n      slt\n        /* \"#utility.yul\":11714:11833   */\n      iszero\n      tag_457\n      jumpi\n        /* \"#utility.yul\":11752:11831   */\n      tag_458\n      tag_228\n      jump\t// in\n    tag_458:\n        /* \"#utility.yul\":11714:11833   */\n    tag_457:\n        /* \"#utility.yul\":11872:11873   */\n      0x00\n        /* \"#utility.yul\":11897:11950   */\n      tag_459\n        /* \"#utility.yul\":11942:11949   */\n      dup5\n        /* \"#utility.yul\":11933:11939   */\n      dup3\n        /* \"#utility.yul\":11922:11931   */\n      dup6\n        /* \"#utility.yul\":11918:11940   */\n      add\n        /* \"#utility.yul\":11897:11950   */\n      tag_233\n      jump\t// in\n    tag_459:\n        /* \"#utility.yul\":11887:11950   */\n      swap2\n      pop\n        /* \"#utility.yul\":11843:11960   */\n      pop\n        /* \"#utility.yul\":11638:11967   */\n      swap3\n      swap2\n      pop\n      pop\n      jump\t// out\n        /* \"#utility.yul\":11973:12195   */\n    tag_46:\n        /* \"#utility.yul\":12066:12070   */\n      0x00\n        /* \"#utility.yul\":12104:12106   */\n      0x20\n        /* \"#utility.yul\":12093:12102   */\n      dup3\n        /* \"#utility.yul\":12089:12107   */\n      add\n        /* \"#utility.yul\":12081:12107   */\n      swap1\n      pop\n        /* \"#utility.yul\":12117:12188   */\n      tag_461\n        /* \"#utility.yul\":12185:12186   */\n      0x00\n        /* \"#utility.yul\":12174:12183   */\n      dup4\n        /* \"#utility.yul\":12170:12187   */\n      add\n        /* \"#utility.yul\":12161:12167   */\n      dup5\n        /* \"#utility.yul\":12117:12188   */\n      tag_259\n      jump\t// in\n    tag_461:\n        /* \"#utility.yul\":11973:12195   */\n      swap3\n      swap2\n      pop\n      pop\n      jump\t// out\n        /* \"#utility.yul\":12201:12530   */\n    tag_53:\n        /* \"#utility.yul\":12260:12266   */\n      0x00\n        /* \"#utility.yul\":12309:12311   */\n      0x20\n        /* \"#utility.yul\":12297:12306   */\n      dup3\n        /* \"#utility.yul\":12288:12295   */\n      dup5\n        /* \"#utility.yul\":12284:12307   */\n      sub\n        /* \"#utility.yul\":12280:12312   */\n      slt\n        /* \"#utility.yul\":12277:12396   */\n      iszero\n      tag_463\n      jumpi\n        /* \"#utility.yul\":12315:12394   */\n      tag_464\n      tag_228\n      jump\t// in\n    tag_464:\n        /* \"#utility.yul\":12277:12396   */\n    tag_463:\n        /* \"#utility.yul\":12435:12436   */\n      0x00\n        /* \"#utility.yul\":12460:12513   */\n      tag_465\n        /* \"#utility.yul\":12505:12512   */\n      dup5\n        /* \"#utility.yul\":12496:12502   */\n      dup3\n        /* \"#utility.yul\":12485:12494   */\n      dup6\n        /* \"#utility.yul\":12481:12503   */\n      add\n        /* \"#utility.yul\":12460:12513   */\n      tag_245\n      jump\t// in\n    tag_465:\n        /* \"#utility.yul\":12450:12513   */\n      swap2\n      pop\n        /* \"#utility.yul\":12406:12523   */\n      pop\n        /* \"#utility.yul\":12201:12530   */\n      swap3\n      swap2\n      pop\n      pop\n      jump\t// out\n        /* \"#utility.yul\":12536:12635   */\n    tag_264:\n        /* \"#utility.yul\":12588:12594   */\n      0x00\n        /* \"#utility.yul\":12622:12627   */\n      dup2\n        /* \"#utility.yul\":12616:12628   */\n      mload\n        /* \"#utility.yul\":12606:12628   */\n      swap1\n      pop\n        /* \"#utility.yul\":12536:12635   */\n      swap2\n      swap1\n      pop\n      jump\t// out\n        /* \"#utility.yul\":12641:12810   */\n    tag_265:\n        /* \"#utility.yul\":12725:12736   */\n      0x00\n        /* \"#utility.yul\":12759:12765   */\n      dup3\n        /* \"#utility.yul\":12754:12757   */\n      dup3\n        /* \"#utility.yul\":12747:12766   */\n      mstore\n        /* \"#utility.yul\":12799:12803   */\n      0x20\n        /* \"#utility.yul\":12794:12797   */\n      dup3\n        /* \"#utility.yul\":12790:12804   */\n      add\n        /* \"#utility.yul\":12775:12804   */\n      swap1\n      pop\n        /* \"#utility.yul\":12641:12810   */\n      swap3\n      swap2\n      pop\n      pop\n      jump\t// out\n        /* \"#utility.yul\":12816:13123   */\n    tag_266:\n        /* \"#utility.yul\":12884:12885   */\n      0x00\n        /* \"#utility.yul\":12894:13007   */\n    tag_469:\n        /* \"#utility.yul\":12908:12914   */\n      dup4\n        /* \"#utility.yul\":12905:12906   */\n      dup2\n        /* \"#utility.yul\":12902:12915   */\n      lt\n        /* \"#utility.yul\":12894:13007   */\n      iszero\n      tag_471\n      jumpi\n        /* \"#utility.yul\":12993:12994   */\n      dup1\n        /* \"#utility.yul\":12988:12991   */\n      dup3\n        /* \"#utility.yul\":12984:12995   */\n      add\n        /* \"#utility.yul\":12978:12996   */\n      mload\n        /* \"#utility.yul\":12974:12975   */\n      dup2\n        /* \"#utility.yul\":12969:12972   */\n      dup5\n        /* \"#utility.yul\":12965:12976   */\n      add\n        /* \"#utility.yul\":12958:12997   */\n      mstore\n        /* \"#utility.yul\":12930:12932   */\n      0x20\n        /* \"#utility.yul\":12927:12928   */\n      dup2\n        /* \"#utility.yul\":12923:12933   */\n      add\n        /* \"#utility.yul\":12918:12933   */\n      swap1\n      pop\n        /* \"#utility.yul\":12894:13007   */\n      jump(tag_469)\n    tag_471:\n        /* \"#utility.yul\":13025:13031   */\n      dup4\n        /* \"#utility.yul\":13022:13023   */\n      dup2\n        /* \"#utility.yul\":13019:13032   */\n      gt\n        /* \"#utility.yul\":13016:13117   */\n      iszero\n      tag_472\n      jumpi\n        /* \"#utility.yul\":13105:13106   */\n      0x00\n        /* \"#utility.yul\":13096:13102   */\n      dup5\n        /* \"#utility.yul\":13091:13094   */\n      dup5\n        /* \"#utility.yul\":13087:13103   */\n      add\n        /* \"#utility.yul\":13080:13107   */\n      mstore\n        /* \"#utility.yul\":13016:13117   */\n    tag_472:\n        /* \"#utility.yul\":12865:13123   */\n      pop\n        /* \"#utility.yul\":12816:13123   */\n      pop\n      pop\n      pop\n      jump\t// out\n        /* \"#utility.yul\":13129:13493   */\n    tag_267:\n        /* \"#utility.yul\":13217:13220   */\n      0x00\n        /* \"#utility.yul\":13245:13284   */\n      tag_474\n        /* \"#utility.yul\":13278:13283   */\n      dup3\n        /* \"#utility.yul\":13245:13284   */\n      tag_264\n      jump\t// in\n    tag_474:\n        /* \"#utility.yul\":13300:13371   */\n      tag_475\n        /* \"#utility.yul\":13364:13370   */\n      dup2\n        /* \"#utility.yul\":13359:13362   */\n      dup6\n        /* \"#utility.yul\":13300:13371   */\n      tag_265\n      jump\t// in\n    tag_475:\n        /* \"#utility.yul\":13293:13371   */\n      swap4\n      pop\n        /* \"#utility.yul\":13380:13432   */\n      tag_476\n        /* \"#utility.yul\":13425:13431   */\n      dup2\n        /* \"#utility.yul\":13420:13423   */\n      dup6\n        /* \"#utility.yul\":13413:13417   */\n      0x20\n        /* \"#utility.yul\":13406:13411   */\n      dup7\n        /* \"#utility.yul\":13402:13418   */\n      add\n        /* \"#utility.yul\":13380:13432   */\n      tag_266\n      jump\t// in\n    tag_476:\n        /* \"#utility.yul\":13457:13486   */\n      tag_477\n        /* \"#utility.yul\":13479:13485   */\n      dup2\n        /* \"#utility.yul\":13457:13486   */\n      tag_236\n      jump\t// in\n    tag_477:\n        /* \"#utility.yul\":13452:13455   */\n      dup5\n        /* \"#utility.yul\":13448:13487   */\n      add\n        /* \"#utility.yul\":13441:13487   */\n      swap2\n      pop\n        /* \"#utility.yul\":13221:13493   */\n      pop\n        /* \"#utility.yul\":13129:13493   */\n      swap3\n      swap2\n      pop\n      pop\n      jump\t// out\n        /* \"#utility.yul\":13499:13812   */\n    tag_56:\n        /* \"#utility.yul\":13612:13616   */\n      0x00\n        /* \"#utility.yul\":13650:13652   */\n      0x20\n        /* \"#utility.yul\":13639:13648   */\n      dup3\n        /* \"#utility.yul\":13635:13653   */\n      add\n        /* \"#utility.yul\":13627:13653   */\n      swap1\n      pop\n        /* \"#utility.yul\":13699:13708   */\n      dup2\n        /* \"#utility.yul\":13693:13697   */\n      dup2\n        /* \"#utility.yul\":13689:13709   */\n      sub\n        /* \"#utility.yul\":13685:13686   */\n      0x00\n        /* \"#utility.yul\":13674:13683   */\n      dup4\n        /* \"#utility.yul\":13670:13687   */\n      add\n        /* \"#utility.yul\":13663:13710   */\n      mstore\n        /* \"#utility.yul\":13727:13805   */\n      tag_479\n        /* \"#utility.yul\":13800:13804   */\n      dup2\n        /* \"#utility.yul\":13791:13797   */\n      dup5\n        /* \"#utility.yul\":13727:13805   */\n      tag_267\n      jump\t// in\n    tag_479:\n        /* \"#utility.yul\":13719:13805   */\n      swap1\n      pop\n        /* \"#utility.yul\":13499:13812   */\n      swap3\n      swap2\n      pop\n      pop\n      jump\t// out\n        /* \"#utility.yul\":13818:13932   */\n    tag_268:\n        /* \"#utility.yul\":13885:13891   */\n      0x00\n        /* \"#utility.yul\":13919:13924   */\n      dup2\n        /* \"#utility.yul\":13913:13925   */\n      mload\n        /* \"#utility.yul\":13903:13925   */\n      swap1\n      pop\n        /* \"#utility.yul\":13818:13932   */\n      swap2\n      swap1\n      pop\n      jump\t// out\n        /* \"#utility.yul\":13938:14122   */\n    tag_269:\n        /* \"#utility.yul\":14037:14048   */\n      0x00\n        /* \"#utility.yul\":14071:14077   */\n      dup3\n        /* \"#utility.yul\":14066:14069   */\n      dup3\n        /* \"#utility.yul\":14059:14078   */\n      mstore\n        /* \"#utility.yul\":14111:14115   */\n      0x20\n        /* \"#utility.yul\":14106:14109   */\n      dup3\n        /* \"#utility.yul\":14102:14116   */\n      add\n        /* \"#utility.yul\":14087:14116   */\n      swap1\n      pop\n        /* \"#utility.yul\":13938:14122   */\n      swap3\n      swap2\n      pop\n      pop\n      jump\t// out\n        /* \"#utility.yul\":14128:14260   */\n    tag_270:\n        /* \"#utility.yul\":14195:14199   */\n      0x00\n        /* \"#utility.yul\":14218:14221   */\n      dup2\n        /* \"#utility.yul\":14210:14221   */\n      swap1\n      pop\n        /* \"#utility.yul\":14248:14252   */\n      0x20\n        /* \"#utility.yul\":14243:14246   */\n      dup3\n        /* \"#utility.yul\":14239:14253   */\n      add\n        /* \"#utility.yul\":14231:14253   */\n      swap1\n      pop\n        /* \"#utility.yul\":14128:14260   */\n      swap2\n      swap1\n      pop\n      jump\t// out\n        /* \"#utility.yul\":14266:14374   */\n    tag_271:\n        /* \"#utility.yul\":14343:14367   */\n      tag_484\n        /* \"#utility.yul\":14361:14366   */\n      dup2\n        /* \"#utility.yul\":14343:14367   */\n      tag_231\n      jump\t// in\n    tag_484:\n        /* \"#utility.yul\":14338:14341   */\n      dup3\n        /* \"#utility.yul\":14331:14368   */\n      mstore\n        /* \"#utility.yul\":14266:14374   */\n      pop\n      pop\n      jump\t// out\n        /* \"#utility.yul\":14380:14559   */\n    tag_272:\n        /* \"#utility.yul\":14449:14459   */\n      0x00\n        /* \"#utility.yul\":14470:14516   */\n      tag_486\n        /* \"#utility.yul\":14512:14515   */\n      dup4\n        /* \"#utility.yul\":14504:14510   */\n      dup4\n        /* \"#utility.yul\":14470:14516   */\n      tag_271\n      jump\t// in\n    tag_486:\n        /* \"#utility.yul\":14548:14552   */\n      0x20\n        /* \"#utility.yul\":14543:14546   */\n      dup4\n        /* \"#utility.yul\":14539:14553   */\n      add\n        /* \"#utility.yul\":14525:14553   */\n      swap1\n      pop\n        /* \"#utility.yul\":14380:14559   */\n      swap3\n      swap2\n      pop\n      pop\n      jump\t// out\n        /* \"#utility.yul\":14565:14678   */\n    tag_273:\n        /* \"#utility.yul\":14635:14639   */\n      0x00\n        /* \"#utility.yul\":14667:14671   */\n      0x20\n        /* \"#utility.yul\":14662:14665   */\n      dup3\n        /* \"#utility.yul\":14658:14672   */\n      add\n        /* \"#utility.yul\":14650:14672   */\n      swap1\n      pop\n        /* \"#utility.yul\":14565:14678   */\n      swap2\n      swap1\n      pop\n      jump\t// out\n        /* \"#utility.yul\":14714:15446   */\n    tag_274:\n        /* \"#utility.yul\":14833:14836   */\n      0x00\n        /* \"#utility.yul\":14862:14916   */\n      tag_489\n        /* \"#utility.yul\":14910:14915   */\n      dup3\n        /* \"#utility.yul\":14862:14916   */\n      tag_268\n      jump\t// in\n    tag_489:\n        /* \"#utility.yul\":14932:15018   */\n      tag_490\n        /* \"#utility.yul\":15011:15017   */\n      dup2\n        /* \"#utility.yul\":15006:15009   */\n      dup6\n        /* \"#utility.yul\":14932:15018   */\n      tag_269\n      jump\t// in\n    tag_490:\n        /* \"#utility.yul\":14925:15018   */\n      swap4\n      pop\n        /* \"#utility.yul\":15042:15098   */\n      tag_491\n        /* \"#utility.yul\":15092:15097   */\n      dup4\n        /* \"#utility.yul\":15042:15098   */\n      tag_270\n      jump\t// in\n    tag_491:\n        /* \"#utility.yul\":15121:15128   */\n      dup1\n        /* \"#utility.yul\":15152:15153   */\n      0x00\n        /* \"#utility.yul\":15137:15421   */\n    tag_492:\n        /* \"#utility.yul\":15162:15168   */\n      dup4\n        /* \"#utility.yul\":15159:15160   */\n      dup2\n        /* \"#utility.yul\":15156:15169   */\n      lt\n        /* \"#utility.yul\":15137:15421   */\n      iszero\n      tag_494\n      jumpi\n        /* \"#utility.yul\":15238:15244   */\n      dup2\n        /* \"#utility.yul\":15232:15245   */\n      mload\n        /* \"#utility.yul\":15265:15328   */\n      tag_495\n        /* \"#utility.yul\":15324:15327   */\n      dup9\n        /* \"#utility.yul\":15309:15322   */\n      dup3\n        /* \"#utility.yul\":15265:15328   */\n      tag_272\n      jump\t// in\n    tag_495:\n        /* \"#utility.yul\":15258:15328   */\n      swap8\n      pop\n        /* \"#utility.yul\":15351:15411   */\n      tag_496\n        /* \"#utility.yul\":15404:15410   */\n      dup4\n        /* \"#utility.yul\":15351:15411   */\n      tag_273\n      jump\t// in\n    tag_496:\n        /* \"#utility.yul\":15341:15411   */\n      swap3\n      pop\n        /* \"#utility.yul\":15197:15421   */\n      pop\n        /* \"#utility.yul\":15184:15185   */\n      0x01\n        /* \"#utility.yul\":15181:15182   */\n      dup2\n        /* \"#utility.yul\":15177:15186   */\n      add\n        /* \"#utility.yul\":15172:15186   */\n      swap1\n      pop\n        /* \"#utility.yul\":15137:15421   */\n      jump(tag_492)\n    tag_494:\n        /* \"#utility.yul\":15141:15155   */\n      pop\n        /* \"#utility.yul\":15437:15440   */\n      dup6\n        /* \"#utility.yul\":15430:15440   */\n      swap4\n      pop\n        /* \"#utility.yul\":14838:15446   */\n      pop\n      pop\n      pop\n        /* \"#utility.yul\":14714:15446   */\n      swap3\n      swap2\n      pop\n      pop\n      jump\t// out\n        /* \"#utility.yul\":15452:15825   */\n    tag_61:\n        /* \"#utility.yul\":15595:15599   */\n      0x00\n        /* \"#utility.yul\":15633:15635   */\n      0x20\n        /* \"#utility.yul\":15622:15631   */\n      dup3\n        /* \"#utility.yul\":15618:15636   */\n      add\n        /* \"#utility.yul\":15610:15636   */\n      swap1\n      pop\n        /* \"#utility.yul\":15682:15691   */\n      dup2\n        /* \"#utility.yul\":15676:15680   */\n      dup2\n        /* \"#utility.yul\":15672:15692   */\n      sub\n        /* \"#utility.yul\":15668:15669   */\n      0x00\n        /* \"#utility.yul\":15657:15666   */\n      dup4\n        /* \"#utility.yul\":15653:15670   */\n      add\n        /* \"#utility.yul\":15646:15693   */\n      mstore\n        /* \"#utility.yul\":15710:15818   */\n      tag_498\n        /* \"#utility.yul\":15813:15817   */\n      dup2\n        /* \"#utility.yul\":15804:15810   */\n      dup5\n        /* \"#utility.yul\":15710:15818   */\n      tag_274\n      jump\t// in\n    tag_498:\n        /* \"#utility.yul\":15702:15818   */\n      swap1\n      pop\n        /* \"#utility.yul\":15452:15825   */\n      swap3\n      swap2\n      pop\n      pop\n      jump\t// out\n        /* \"#utility.yul\":15831:15951   */\n    tag_275:\n        /* \"#utility.yul\":15903:15926   */\n      tag_500\n        /* \"#utility.yul\":15920:15925   */\n      dup2\n        /* \"#utility.yul\":15903:15926   */\n      tag_260\n      jump\t// in\n    tag_500:\n        /* \"#utility.yul\":15896:15901   */\n      dup2\n        /* \"#utility.yul\":15893:15927   */\n      eq\n        /* \"#utility.yul\":15883:15945   */\n      tag_501\n      jumpi\n        /* \"#utility.yul\":15941:15942   */\n      0x00\n        /* \"#utility.yul\":15938:15939   */\n      dup1\n        /* \"#utility.yul\":15931:15943   */\n      revert\n        /* \"#utility.yul\":15883:15945   */\n    tag_501:\n        /* \"#utility.yul\":15831:15951   */\n      pop\n      jump\t// out\n        /* \"#utility.yul\":15957:16094   */\n    tag_276:\n        /* \"#utility.yul\":16002:16007   */\n      0x00\n        /* \"#utility.yul\":16040:16046   */\n      dup2\n        /* \"#utility.yul\":16027:16047   */\n      calldataload\n        /* \"#utility.yul\":16018:16047   */\n      swap1\n      pop\n        /* \"#utility.yul\":16056:16088   */\n      tag_503\n        /* \"#utility.yul\":16082:16087   */\n      dup2\n        /* \"#utility.yul\":16056:16088   */\n      tag_275\n      jump\t// in\n    tag_503:\n        /* \"#utility.yul\":15957:16094   */\n      swap3\n      swap2\n      pop\n      pop\n      jump\t// out\n        /* \"#utility.yul\":16100:16752   */\n    tag_67:\n        /* \"#utility.yul\":16177:16183   */\n      0x00\n        /* \"#utility.yul\":16185:16191   */\n      dup1\n        /* \"#utility.yul\":16234:16236   */\n      0x40\n        /* \"#utility.yul\":16222:16231   */\n      dup4\n        /* \"#utility.yul\":16213:16220   */\n      dup6\n        /* \"#utility.yul\":16209:16232   */\n      sub\n        /* \"#utility.yul\":16205:16237   */\n      slt\n        /* \"#utility.yul\":16202:16321   */\n      iszero\n      tag_505\n      jumpi\n        /* \"#utility.yul\":16240:16319   */\n      tag_506\n      tag_228\n      jump\t// in\n    tag_506:\n        /* \"#utility.yul\":16202:16321   */\n    tag_505:\n        /* \"#utility.yul\":16388:16389   */\n      0x00\n        /* \"#utility.yul\":16377:16386   */\n      dup4\n        /* \"#utility.yul\":16373:16390   */\n      add\n        /* \"#utility.yul\":16360:16391   */\n      calldataload\n        /* \"#utility.yul\":16418:16436   */\n      0xffffffffffffffff\n        /* \"#utility.yul\":16410:16416   */\n      dup2\n        /* \"#utility.yul\":16407:16437   */\n      gt\n        /* \"#utility.yul\":16404:16521   */\n      iszero\n      tag_507\n      jumpi\n        /* \"#utility.yul\":16440:16519   */\n      tag_508\n      tag_229\n      jump\t// in\n    tag_508:\n        /* \"#utility.yul\":16404:16521   */\n    tag_507:\n        /* \"#utility.yul\":16545:16608   */\n      tag_509\n        /* \"#utility.yul\":16600:16607   */\n      dup6\n        /* \"#utility.yul\":16591:16597   */\n      dup3\n        /* \"#utility.yul\":16580:16589   */\n      dup7\n        /* \"#utility.yul\":16576:16598   */\n      add\n        /* \"#utility.yul\":16545:16608   */\n      tag_242\n      jump\t// in\n    tag_509:\n        /* \"#utility.yul\":16535:16608   */\n      swap3\n      pop\n        /* \"#utility.yul\":16331:16618   */\n      pop\n        /* \"#utility.yul\":16657:16659   */\n      0x20\n        /* \"#utility.yul\":16683:16735   */\n      tag_510\n        /* \"#utility.yul\":16727:16734   */\n      dup6\n        /* \"#utility.yul\":16718:16724   */\n      dup3\n        /* \"#utility.yul\":16707:16716   */\n      dup7\n        /* \"#utility.yul\":16703:16725   */\n      add\n        /* \"#utility.yul\":16683:16735   */\n      tag_276\n      jump\t// in\n    tag_510:\n        /* \"#utility.yul\":16673:16735   */\n      swap2\n      pop\n        /* \"#utility.yul\":16628:16745   */\n      pop\n        /* \"#utility.yul\":16100:16752   */\n      swap3\n      pop\n      swap3\n      swap1\n      pop\n      jump\t// out\n        /* \"#utility.yul\":16758:17181   */\n    tag_70:\n        /* \"#utility.yul\":16899:16903   */\n      0x00\n        /* \"#utility.yul\":16937:16939   */\n      0x40\n        /* \"#utility.yul\":16926:16935   */\n      dup3\n        /* \"#utility.yul\":16922:16940   */\n      add\n        /* \"#utility.yul\":16914:16940   */\n      swap1\n      pop\n        /* \"#utility.yul\":16986:16995   */\n      dup2\n        /* \"#utility.yul\":16980:16984   */\n      dup2\n        /* \"#utility.yul\":16976:16996   */\n      sub\n        /* \"#utility.yul\":16972:16973   */\n      0x00\n        /* \"#utility.yul\":16961:16970   */\n      dup4\n        /* \"#utility.yul\":16957:16974   */\n      add\n        /* \"#utility.yul\":16950:16997   */\n      mstore\n        /* \"#utility.yul\":17014:17092   */\n      tag_512\n        /* \"#utility.yul\":17087:17091   */\n      dup2\n        /* \"#utility.yul\":17078:17084   */\n      dup6\n        /* \"#utility.yul\":17014:17092   */\n      tag_267\n      jump\t// in\n    tag_512:\n        /* \"#utility.yul\":17006:17092   */\n      swap1\n      pop\n        /* \"#utility.yul\":17102:17174   */\n      tag_513\n        /* \"#utility.yul\":17170:17172   */\n      0x20\n        /* \"#utility.yul\":17159:17168   */\n      dup4\n        /* \"#utility.yul\":17155:17173   */\n      add\n        /* \"#utility.yul\":17146:17152   */\n      dup5\n        /* \"#utility.yul\":17102:17174   */\n      tag_259\n      jump\t// in\n    tag_513:\n        /* \"#utility.yul\":16758:17181   */\n      swap4\n      swap3\n      pop\n      pop\n      pop\n      jump\t// out\n        /* \"#utility.yul\":17187:17330   */\n    tag_277:\n        /* \"#utility.yul\":17283:17289   */\n      0x00\n        /* \"#utility.yul\":17317:17322   */\n      dup2\n        /* \"#utility.yul\":17311:17323   */\n      mload\n        /* \"#utility.yul\":17301:17323   */\n      swap1\n      pop\n        /* \"#utility.yul\":17187:17330   */\n      swap2\n      swap1\n      pop\n      jump\t// out\n        /* \"#utility.yul\":17336:17549   */\n    tag_278:\n        /* \"#utility.yul\":17464:17475   */\n      0x00\n        /* \"#utility.yul\":17498:17504   */\n      dup3\n        /* \"#utility.yul\":17493:17496   */\n      dup3\n        /* \"#utility.yul\":17486:17505   */\n      mstore\n        /* \"#utility.yul\":17538:17542   */\n      0x20\n        /* \"#utility.yul\":17533:17536   */\n      dup3\n        /* \"#utility.yul\":17529:17543   */\n      add\n        /* \"#utility.yul\":17514:17543   */\n      swap1\n      pop\n        /* \"#utility.yul\":17336:17549   */\n      swap3\n      swap2\n      pop\n      pop\n      jump\t// out\n        /* \"#utility.yul\":17555:17716   */\n    tag_279:\n        /* \"#utility.yul\":17651:17655   */\n      0x00\n        /* \"#utility.yul\":17674:17677   */\n      dup2\n        /* \"#utility.yul\":17666:17677   */\n      swap1\n      pop\n        /* \"#utility.yul\":17704:17708   */\n      0x20\n        /* \"#utility.yul\":17699:17702   */\n      dup3\n        /* \"#utility.yul\":17695:17709   */\n      add\n        /* \"#utility.yul\":17687:17709   */\n      swap1\n      pop\n        /* \"#utility.yul\":17555:17716   */\n      swap2\n      swap1\n      pop\n      jump\t// out\n        /* \"#utility.yul\":17722:17881   */\n    tag_280:\n        /* \"#utility.yul\":17796:17807   */\n      0x00\n        /* \"#utility.yul\":17830:17836   */\n      dup3\n        /* \"#utility.yul\":17825:17828   */\n      dup3\n        /* \"#utility.yul\":17818:17837   */\n      mstore\n        /* \"#utility.yul\":17870:17874   */\n      0x20\n        /* \"#utility.yul\":17865:17868   */\n      dup3\n        /* \"#utility.yul\":17861:17875   */\n      add\n        /* \"#utility.yul\":17846:17875   */\n      swap1\n      pop\n        /* \"#utility.yul\":17722:17881   */\n      swap3\n      swap2\n      pop\n      pop\n      jump\t// out\n        /* \"#utility.yul\":17887:18231   */\n    tag_281:\n        /* \"#utility.yul\":17965:17968   */\n      0x00\n        /* \"#utility.yul\":17993:18032   */\n      tag_519\n        /* \"#utility.yul\":18026:18031   */\n      dup3\n        /* \"#utility.yul\":17993:18032   */\n      tag_264\n      jump\t// in\n    tag_519:\n        /* \"#utility.yul\":18048:18109   */\n      tag_520\n        /* \"#utility.yul\":18102:18108   */\n      dup2\n        /* \"#utility.yul\":18097:18100   */\n      dup6\n        /* \"#utility.yul\":18048:18109   */\n      tag_280\n      jump\t// in\n    tag_520:\n        /* \"#utility.yul\":18041:18109   */\n      swap4\n      pop\n        /* \"#utility.yul\":18118:18170   */\n      tag_521\n        /* \"#utility.yul\":18163:18169   */\n      dup2\n        /* \"#utility.yul\":18158:18161   */\n      dup6\n        /* \"#utility.yul\":18151:18155   */\n      0x20\n        /* \"#utility.yul\":18144:18149   */\n      dup7\n        /* \"#utility.yul\":18140:18156   */\n      add\n        /* \"#utility.yul\":18118:18170   */\n      tag_266\n      jump\t// in\n    tag_521:\n        /* \"#utility.yul\":18195:18224   */\n      tag_522\n        /* \"#utility.yul\":18217:18223   */\n      dup2\n        /* \"#utility.yul\":18195:18224   */\n      tag_236\n      jump\t// in\n    tag_522:\n        /* \"#utility.yul\":18190:18193   */\n      dup5\n        /* \"#utility.yul\":18186:18225   */\n      add\n        /* \"#utility.yul\":18179:18225   */\n      swap2\n      pop\n        /* \"#utility.yul\":17969:18231   */\n      pop\n        /* \"#utility.yul\":17887:18231   */\n      swap3\n      swap2\n      pop\n      pop\n      jump\t// out\n        /* \"#utility.yul\":18237:18411   */\n    tag_282:\n        /* \"#utility.yul\":18326:18337   */\n      0x00\n        /* \"#utility.yul\":18360:18366   */\n      dup3\n        /* \"#utility.yul\":18355:18358   */\n      dup3\n        /* \"#utility.yul\":18348:18367   */\n      mstore\n        /* \"#utility.yul\":18400:18404   */\n      0x20\n        /* \"#utility.yul\":18395:18398   */\n      dup3\n        /* \"#utility.yul\":18391:18405   */\n      add\n        /* \"#utility.yul\":18376:18405   */\n      swap1\n      pop\n        /* \"#utility.yul\":18237:18411   */\n      swap3\n      swap2\n      pop\n      pop\n      jump\t// out\n        /* \"#utility.yul\":18447:19159   */\n    tag_283:\n        /* \"#utility.yul\":18556:18559   */\n      0x00\n        /* \"#utility.yul\":18585:18639   */\n      tag_525\n        /* \"#utility.yul\":18633:18638   */\n      dup3\n        /* \"#utility.yul\":18585:18639   */\n      tag_268\n      jump\t// in\n    tag_525:\n        /* \"#utility.yul\":18655:18731   */\n      tag_526\n        /* \"#utility.yul\":18724:18730   */\n      dup2\n        /* \"#utility.yul\":18719:18722   */\n      dup6\n        /* \"#utility.yul\":18655:18731   */\n      tag_282\n      jump\t// in\n    tag_526:\n        /* \"#utility.yul\":18648:18731   */\n      swap4\n      pop\n        /* \"#utility.yul\":18755:18811   */\n      tag_527\n        /* \"#utility.yul\":18805:18810   */\n      dup4\n        /* \"#utility.yul\":18755:18811   */\n      tag_270\n      jump\t// in\n    tag_527:\n        /* \"#utility.yul\":18834:18841   */\n      dup1\n        /* \"#utility.yul\":18865:18866   */\n      0x00\n        /* \"#utility.yul\":18850:19134   */\n    tag_528:\n        /* \"#utility.yul\":18875:18881   */\n      dup4\n        /* \"#utility.yul\":18872:18873   */\n      dup2\n        /* \"#utility.yul\":18869:18882   */\n      lt\n        /* \"#utility.yul\":18850:19134   */\n      iszero\n      tag_530\n      jumpi\n        /* \"#utility.yul\":18951:18957   */\n      dup2\n        /* \"#utility.yul\":18945:18958   */\n      mload\n        /* \"#utility.yul\":18978:19041   */\n      tag_531\n        /* \"#utility.yul\":19037:19040   */\n      dup9\n        /* \"#utility.yul\":19022:19035   */\n      dup3\n        /* \"#utility.yul\":18978:19041   */\n      tag_272\n      jump\t// in\n    tag_531:\n        /* \"#utility.yul\":18971:19041   */\n      swap8\n      pop\n        /* \"#utility.yul\":19064:19124   */\n      tag_532\n        /* \"#utility.yul\":19117:19123   */\n      dup4\n        /* \"#utility.yul\":19064:19124   */\n      tag_273\n      jump\t// in\n    tag_532:\n        /* \"#utility.yul\":19054:19124   */\n      swap3\n      pop\n        /* \"#utility.yul\":18910:19134   */\n      pop\n        /* \"#utility.yul\":18897:18898   */\n      0x01\n        /* \"#utility.yul\":18894:18895   */\n      dup2\n        /* \"#utility.yul\":18890:18899   */\n      add\n        /* \"#utility.yul\":18885:18899   */\n      swap1\n      pop\n        /* \"#utility.yul\":18850:19134   */\n      jump(tag_528)\n    tag_530:\n        /* \"#utility.yul\":18854:18868   */\n      pop\n        /* \"#utility.yul\":19150:19153   */\n      dup6\n        /* \"#utility.yul\":19143:19153   */\n      swap4\n      pop\n        /* \"#utility.yul\":18561:19159   */\n      pop\n      pop\n      pop\n        /* \"#utility.yul\":18447:19159   */\n      swap3\n      swap2\n      pop\n      pop\n      jump\t// out\n        /* \"#utility.yul\":19165:19270   */\n    tag_284:\n        /* \"#utility.yul\":19240:19263   */\n      tag_534\n        /* \"#utility.yul\":19257:19262   */\n      dup2\n        /* \"#utility.yul\":19240:19263   */\n      tag_260\n      jump\t// in\n    tag_534:\n        /* \"#utility.yul\":19235:19238   */\n      dup3\n        /* \"#utility.yul\":19228:19264   */\n      mstore\n        /* \"#utility.yul\":19165:19270   */\n      pop\n      pop\n      jump\t// out\n        /* \"#utility.yul\":19276:19375   */\n    tag_285:\n        /* \"#utility.yul\":19347:19368   */\n      tag_536\n        /* \"#utility.yul\":19362:19367   */\n      dup2\n        /* \"#utility.yul\":19347:19368   */\n      tag_262\n      jump\t// in\n    tag_536:\n        /* \"#utility.yul\":19342:19345   */\n      dup3\n        /* \"#utility.yul\":19335:19369   */\n      mstore\n        /* \"#utility.yul\":19276:19375   */\n      pop\n      pop\n      jump\t// out\n        /* \"#utility.yul\":19447:20880   */\n    tag_286:\n        /* \"#utility.yul\":19564:19567   */\n      0x00\n        /* \"#utility.yul\":19600:19604   */\n      0xc0\n        /* \"#utility.yul\":19595:19598   */\n      dup4\n        /* \"#utility.yul\":19591:19605   */\n      add\n        /* \"#utility.yul\":19687:19691   */\n      0x00\n        /* \"#utility.yul\":19680:19685   */\n      dup4\n        /* \"#utility.yul\":19676:19692   */\n      add\n        /* \"#utility.yul\":19670:19693   */\n      mload\n        /* \"#utility.yul\":19740:19743   */\n      dup5\n        /* \"#utility.yul\":19734:19738   */\n      dup3\n        /* \"#utility.yul\":19730:19744   */\n      sub\n        /* \"#utility.yul\":19723:19727   */\n      0x00\n        /* \"#utility.yul\":19718:19721   */\n      dup7\n        /* \"#utility.yul\":19714:19728   */\n      add\n        /* \"#utility.yul\":19707:19745   */\n      mstore\n        /* \"#utility.yul\":19766:19839   */\n      tag_538\n        /* \"#utility.yul\":19834:19838   */\n      dup3\n        /* \"#utility.yul\":19820:19832   */\n      dup3\n        /* \"#utility.yul\":19766:19839   */\n      tag_281\n      jump\t// in\n    tag_538:\n        /* \"#utility.yul\":19758:19839   */\n      swap2\n      pop\n        /* \"#utility.yul\":19615:19850   */\n      pop\n        /* \"#utility.yul\":19936:19940   */\n      0x20\n        /* \"#utility.yul\":19929:19934   */\n      dup4\n        /* \"#utility.yul\":19925:19941   */\n      add\n        /* \"#utility.yul\":19919:19942   */\n      mload\n        /* \"#utility.yul\":19955:20018   */\n      tag_539\n        /* \"#utility.yul\":20012:20016   */\n      0x20\n        /* \"#utility.yul\":20007:20010   */\n      dup7\n        /* \"#utility.yul\":20003:20017   */\n      add\n        /* \"#utility.yul\":19989:20001   */\n      dup3\n        /* \"#utility.yul\":19955:20018   */\n      tag_271\n      jump\t// in\n    tag_539:\n        /* \"#utility.yul\":19860:20028   */\n      pop\n        /* \"#utility.yul\":20116:20120   */\n      0x40\n        /* \"#utility.yul\":20109:20114   */\n      dup4\n        /* \"#utility.yul\":20105:20121   */\n      add\n        /* \"#utility.yul\":20099:20122   */\n      mload\n        /* \"#utility.yul\":20169:20172   */\n      dup5\n        /* \"#utility.yul\":20163:20167   */\n      dup3\n        /* \"#utility.yul\":20159:20173   */\n      sub\n        /* \"#utility.yul\":20152:20156   */\n      0x40\n        /* \"#utility.yul\":20147:20150   */\n      dup7\n        /* \"#utility.yul\":20143:20157   */\n      add\n        /* \"#utility.yul\":20136:20174   */\n      mstore\n        /* \"#utility.yul\":20195:20298   */\n      tag_540\n        /* \"#utility.yul\":20293:20297   */\n      dup3\n        /* \"#utility.yul\":20279:20291   */\n      dup3\n        /* \"#utility.yul\":20195:20298   */\n      tag_283\n      jump\t// in\n    tag_540:\n        /* \"#utility.yul\":20187:20298   */\n      swap2\n      pop\n        /* \"#utility.yul\":20038:20309   */\n      pop\n        /* \"#utility.yul\":20404:20408   */\n      0x60\n        /* \"#utility.yul\":20397:20402   */\n      dup4\n        /* \"#utility.yul\":20393:20409   */\n      add\n        /* \"#utility.yul\":20387:20410   */\n      mload\n        /* \"#utility.yul\":20423:20484   */\n      tag_541\n        /* \"#utility.yul\":20478:20482   */\n      0x60\n        /* \"#utility.yul\":20473:20476   */\n      dup7\n        /* \"#utility.yul\":20469:20483   */\n      add\n        /* \"#utility.yul\":20455:20467   */\n      dup3\n        /* \"#utility.yul\":20423:20484   */\n      tag_284\n      jump\t// in\n    tag_541:\n        /* \"#utility.yul\":20319:20494   */\n      pop\n        /* \"#utility.yul\":20593:20597   */\n      0x80\n        /* \"#utility.yul\":20586:20591   */\n      dup4\n        /* \"#utility.yul\":20582:20598   */\n      add\n        /* \"#utility.yul\":20576:20599   */\n      mload\n        /* \"#utility.yul\":20612:20673   */\n      tag_542\n        /* \"#utility.yul\":20667:20671   */\n      0x80\n        /* \"#utility.yul\":20662:20665   */\n      dup7\n        /* \"#utility.yul\":20658:20672   */\n      add\n        /* \"#utility.yul\":20644:20656   */\n      dup3\n        /* \"#utility.yul\":20612:20673   */\n      tag_284\n      jump\t// in\n    tag_542:\n        /* \"#utility.yul\":20504:20683   */\n      pop\n        /* \"#utility.yul\":20767:20771   */\n      0xa0\n        /* \"#utility.yul\":20760:20765   */\n      dup4\n        /* \"#utility.yul\":20756:20772   */\n      add\n        /* \"#utility.yul\":20750:20773   */\n      mload\n        /* \"#utility.yul\":20786:20843   */\n      tag_543\n        /* \"#utility.yul\":20837:20841   */\n      0xa0\n        /* \"#utility.yul\":20832:20835   */\n      dup7\n        /* \"#utility.yul\":20828:20842   */\n      add\n        /* \"#utility.yul\":20814:20826   */\n      dup3\n        /* \"#utility.yul\":20786:20843   */\n      tag_285\n      jump\t// in\n    tag_543:\n        /* \"#utility.yul\":20693:20853   */\n      pop\n        /* \"#utility.yul\":20870:20874   */\n      dup1\n        /* \"#utility.yul\":20863:20874   */\n      swap2\n      pop\n        /* \"#utility.yul\":19569:20880   */\n      pop\n        /* \"#utility.yul\":19447:20880   */\n      swap3\n      swap2\n      pop\n      pop\n      jump\t// out\n        /* \"#utility.yul\":20886:21158   */\n    tag_287:\n        /* \"#utility.yul\":21013:21023   */\n      0x00\n        /* \"#utility.yul\":21048:21152   */\n      tag_545\n        /* \"#utility.yul\":21148:21151   */\n      dup4\n        /* \"#utility.yul\":21140:21146   */\n      dup4\n        /* \"#utility.yul\":21048:21152   */\n      tag_286\n      jump\t// in\n    tag_545:\n        /* \"#utility.yul\":21034:21152   */\n      swap1\n      pop\n        /* \"#utility.yul\":20886:21158   */\n      swap3\n      swap2\n      pop\n      pop\n      jump\t// out\n        /* \"#utility.yul\":21164:21306   */\n    tag_288:\n        /* \"#utility.yul\":21263:21267   */\n      0x00\n        /* \"#utility.yul\":21295:21299   */\n      0x20\n        /* \"#utility.yul\":21290:21293   */\n      dup3\n        /* \"#utility.yul\":21286:21300   */\n      add\n        /* \"#utility.yul\":21278:21300   */\n      swap1\n      pop\n        /* \"#utility.yul\":21164:21306   */\n      swap2\n      swap1\n      pop\n      jump\t// out\n        /* \"#utility.yul\":21382:22525   */\n    tag_289:\n        /* \"#utility.yul\":21559:21562   */\n      0x00\n        /* \"#utility.yul\":21588:21671   */\n      tag_548\n        /* \"#utility.yul\":21665:21670   */\n      dup3\n        /* \"#utility.yul\":21588:21671   */\n      tag_277\n      jump\t// in\n    tag_548:\n        /* \"#utility.yul\":21687:21802   */\n      tag_549\n        /* \"#utility.yul\":21795:21801   */\n      dup2\n        /* \"#utility.yul\":21790:21793   */\n      dup6\n        /* \"#utility.yul\":21687:21802   */\n      tag_278\n      jump\t// in\n    tag_549:\n        /* \"#utility.yul\":21680:21802   */\n      swap4\n      pop\n        /* \"#utility.yul\":21828:21831   */\n      dup4\n        /* \"#utility.yul\":21873:21877   */\n      0x20\n        /* \"#utility.yul\":21865:21871   */\n      dup3\n        /* \"#utility.yul\":21861:21878   */\n      mul\n        /* \"#utility.yul\":21856:21859   */\n      dup6\n        /* \"#utility.yul\":21852:21879   */\n      add\n        /* \"#utility.yul\":21903:21988   */\n      tag_550\n        /* \"#utility.yul\":21982:21987   */\n      dup6\n        /* \"#utility.yul\":21903:21988   */\n      tag_279\n      jump\t// in\n    tag_550:\n        /* \"#utility.yul\":22011:22018   */\n      dup1\n        /* \"#utility.yul\":22042:22043   */\n      0x00\n        /* \"#utility.yul\":22027:22480   */\n    tag_551:\n        /* \"#utility.yul\":22052:22058   */\n      dup6\n        /* \"#utility.yul\":22049:22050   */\n      dup2\n        /* \"#utility.yul\":22046:22059   */\n      lt\n        /* \"#utility.yul\":22027:22480   */\n      iszero\n      tag_553\n      jumpi\n        /* \"#utility.yul\":22123:22132   */\n      dup5\n        /* \"#utility.yul\":22117:22121   */\n      dup5\n        /* \"#utility.yul\":22113:22133   */\n      sub\n        /* \"#utility.yul\":22108:22111   */\n      dup10\n        /* \"#utility.yul\":22101:22134   */\n      mstore\n        /* \"#utility.yul\":22174:22180   */\n      dup2\n        /* \"#utility.yul\":22168:22181   */\n      mload\n        /* \"#utility.yul\":22202:22324   */\n      tag_554\n        /* \"#utility.yul\":22319:22323   */\n      dup6\n        /* \"#utility.yul\":22304:22317   */\n      dup3\n        /* \"#utility.yul\":22202:22324   */\n      tag_287\n      jump\t// in\n    tag_554:\n        /* \"#utility.yul\":22194:22324   */\n      swap5\n      pop\n        /* \"#utility.yul\":22347:22436   */\n      tag_555\n        /* \"#utility.yul\":22429:22435   */\n      dup4\n        /* \"#utility.yul\":22347:22436   */\n      tag_288\n      jump\t// in\n    tag_555:\n        /* \"#utility.yul\":22337:22436   */\n      swap3\n      pop\n        /* \"#utility.yul\":22465:22469   */\n      0x20\n        /* \"#utility.yul\":22460:22463   */\n      dup11\n        /* \"#utility.yul\":22456:22470   */\n      add\n        /* \"#utility.yul\":22449:22470   */\n      swap10\n      pop\n        /* \"#utility.yul\":22087:22480   */\n      pop\n        /* \"#utility.yul\":22074:22075   */\n      0x01\n        /* \"#utility.yul\":22071:22072   */\n      dup2\n        /* \"#utility.yul\":22067:22076   */\n      add\n        /* \"#utility.yul\":22062:22076   */\n      swap1\n      pop\n        /* \"#utility.yul\":22027:22480   */\n      jump(tag_551)\n    tag_553:\n        /* \"#utility.yul\":22031:22045   */\n      pop\n        /* \"#utility.yul\":22496:22500   */\n      dup3\n        /* \"#utility.yul\":22489:22500   */\n      swap8\n      pop\n        /* \"#utility.yul\":22516:22519   */\n      dup8\n        /* \"#utility.yul\":22509:22519   */\n      swap6\n      pop\n        /* \"#utility.yul\":21564:22525   */\n      pop\n      pop\n      pop\n      pop\n      pop\n        /* \"#utility.yul\":21382:22525   */\n      swap3\n      swap2\n      pop\n      pop\n      jump\t// out\n        /* \"#utility.yul\":22531:23020   */\n    tag_74:\n        /* \"#utility.yul\":22732:22736   */\n      0x00\n        /* \"#utility.yul\":22770:22772   */\n      0x20\n        /* \"#utility.yul\":22759:22768   */\n      dup3\n        /* \"#utility.yul\":22755:22773   */\n      add\n        /* \"#utility.yul\":22747:22773   */\n      swap1\n      pop\n        /* \"#utility.yul\":22819:22828   */\n      dup2\n        /* \"#utility.yul\":22813:22817   */\n      dup2\n        /* \"#utility.yul\":22809:22829   */\n      sub\n        /* \"#utility.yul\":22805:22806   */\n      0x00\n        /* \"#utility.yul\":22794:22803   */\n      dup4\n        /* \"#utility.yul\":22790:22807   */\n      add\n        /* \"#utility.yul\":22783:22830   */\n      mstore\n        /* \"#utility.yul\":22847:23013   */\n      tag_557\n        /* \"#utility.yul\":23008:23012   */\n      dup2\n        /* \"#utility.yul\":22999:23005   */\n      dup5\n        /* \"#utility.yul\":22847:23013   */\n      tag_289\n      jump\t// in\n    tag_557:\n        /* \"#utility.yul\":22839:23013   */\n      swap1\n      pop\n        /* \"#utility.yul\":22531:23020   */\n      swap3\n      swap2\n      pop\n      pop\n      jump\t// out\n        /* \"#utility.yul\":23026:23120   */\n    tag_290:\n        /* \"#utility.yul\":23059:23067   */\n      0x00\n        /* \"#utility.yul\":23107:23112   */\n      dup2\n        /* \"#utility.yul\":23103:23105   */\n      0x60\n        /* \"#utility.yul\":23099:23113   */\n      shl\n        /* \"#utility.yul\":23078:23113   */\n      swap1\n      pop\n        /* \"#utility.yul\":23026:23120   */\n      swap2\n      swap1\n      pop\n      jump\t// out\n        /* \"#utility.yul\":23126:23220   */\n    tag_291:\n        /* \"#utility.yul\":23165:23172   */\n      0x00\n        /* \"#utility.yul\":23194:23214   */\n      tag_560\n        /* \"#utility.yul\":23208:23213   */\n      dup3\n        /* \"#utility.yul\":23194:23214   */\n      tag_290\n      jump\t// in\n    tag_560:\n        /* \"#utility.yul\":23183:23214   */\n      swap1\n      pop\n        /* \"#utility.yul\":23126:23220   */\n      swap2\n      swap1\n      pop\n      jump\t// out\n        /* \"#utility.yul\":23226:23326   */\n    tag_292:\n        /* \"#utility.yul\":23265:23272   */\n      0x00\n        /* \"#utility.yul\":23294:23320   */\n      tag_562\n        /* \"#utility.yul\":23314:23319   */\n      dup3\n        /* \"#utility.yul\":23294:23320   */\n      tag_291\n      jump\t// in\n    tag_562:\n        /* \"#utility.yul\":23283:23320   */\n      swap1\n      pop\n        /* \"#utility.yul\":23226:23326   */\n      swap2\n      swap1\n      pop\n      jump\t// out\n        /* \"#utility.yul\":23332:23489   */\n    tag_293:\n        /* \"#utility.yul\":23437:23482   */\n      tag_564\n        /* \"#utility.yul\":23457:23481   */\n      tag_565\n        /* \"#utility.yul\":23475:23480   */\n      dup3\n        /* \"#utility.yul\":23457:23481   */\n      tag_231\n      jump\t// in\n    tag_565:\n        /* \"#utility.yul\":23437:23482   */\n      tag_292\n      jump\t// in\n    tag_564:\n        /* \"#utility.yul\":23432:23435   */\n      dup3\n        /* \"#utility.yul\":23425:23483   */\n      mstore\n        /* \"#utility.yul\":23332:23489   */\n      pop\n      pop\n      jump\t// out\n        /* \"#utility.yul\":23495:23643   */\n    tag_294:\n        /* \"#utility.yul\":23597:23608   */\n      0x00\n        /* \"#utility.yul\":23634:23637   */\n      dup2\n        /* \"#utility.yul\":23619:23637   */\n      swap1\n      pop\n        /* \"#utility.yul\":23495:23643   */\n      swap3\n      swap2\n      pop\n      pop\n      jump\t// out\n        /* \"#utility.yul\":23649:23822   */\n    tag_295:\n        /* \"#utility.yul\":23789:23814   */\n      0x6d6574617472616e73616374696f6e20566f74696e6720000000000000000000\n        /* \"#utility.yul\":23785:23786   */\n      0x00\n        /* \"#utility.yul\":23777:23783   */\n      dup3\n        /* \"#utility.yul\":23773:23787   */\n      add\n        /* \"#utility.yul\":23766:23815   */\n      mstore\n        /* \"#utility.yul\":23649:23822   */\n      pop\n      jump\t// out\n        /* \"#utility.yul\":23828:24230   */\n    tag_296:\n        /* \"#utility.yul\":23988:23991   */\n      0x00\n        /* \"#utility.yul\":24009:24094   */\n      tag_569\n        /* \"#utility.yul\":24091:24093   */\n      0x17\n        /* \"#utility.yul\":24086:24089   */\n      dup4\n        /* \"#utility.yul\":24009:24094   */\n      tag_294\n      jump\t// in\n    tag_569:\n        /* \"#utility.yul\":24002:24094   */\n      swap2\n      pop\n        /* \"#utility.yul\":24103:24196   */\n      tag_570\n        /* \"#utility.yul\":24192:24195   */\n      dup3\n        /* \"#utility.yul\":24103:24196   */\n      tag_295\n      jump\t// in\n    tag_570:\n        /* \"#utility.yul\":24221:24223   */\n      0x17\n        /* \"#utility.yul\":24216:24219   */\n      dup3\n        /* \"#utility.yul\":24212:24224   */\n      add\n        /* \"#utility.yul\":24205:24224   */\n      swap1\n      pop\n        /* \"#utility.yul\":23828:24230   */\n      swap2\n      swap1\n      pop\n      jump\t// out\n        /* \"#utility.yul\":24236:24613   */\n    tag_297:\n        /* \"#utility.yul\":24342:24345   */\n      0x00\n        /* \"#utility.yul\":24370:24409   */\n      tag_572\n        /* \"#utility.yul\":24403:24408   */\n      dup3\n        /* \"#utility.yul\":24370:24409   */\n      tag_264\n      jump\t// in\n    tag_572:\n        /* \"#utility.yul\":24425:24514   */\n      tag_573\n        /* \"#utility.yul\":24507:24513   */\n      dup2\n        /* \"#utility.yul\":24502:24505   */\n      dup6\n        /* \"#utility.yul\":24425:24514   */\n      tag_294\n      jump\t// in\n    tag_573:\n        /* \"#utility.yul\":24418:24514   */\n      swap4\n      pop\n        /* \"#utility.yul\":24523:24575   */\n      tag_574\n        /* \"#utility.yul\":24568:24574   */\n      dup2\n        /* \"#utility.yul\":24563:24566   */\n      dup6\n        /* \"#utility.yul\":24556:24560   */\n      0x20\n        /* \"#utility.yul\":24549:24554   */\n      dup7\n        /* \"#utility.yul\":24545:24561   */\n      add\n        /* \"#utility.yul\":24523:24575   */\n      tag_266\n      jump\t// in\n    tag_574:\n        /* \"#utility.yul\":24600:24606   */\n      dup1\n        /* \"#utility.yul\":24595:24598   */\n      dup5\n        /* \"#utility.yul\":24591:24607   */\n      add\n        /* \"#utility.yul\":24584:24607   */\n      swap2\n      pop\n        /* \"#utility.yul\":24346:24613   */\n      pop\n        /* \"#utility.yul\":24236:24613   */\n      swap3\n      swap2\n      pop\n      pop\n      jump\t// out\n        /* \"#utility.yul\":24619:24698   */\n    tag_298:\n        /* \"#utility.yul\":24658:24665   */\n      0x00\n        /* \"#utility.yul\":24687:24692   */\n      dup2\n        /* \"#utility.yul\":24676:24692   */\n      swap1\n      pop\n        /* \"#utility.yul\":24619:24698   */\n      swap2\n      swap1\n      pop\n      jump\t// out\n        /* \"#utility.yul\":24704:24861   */\n    tag_299:\n        /* \"#utility.yul\":24809:24854   */\n      tag_577\n        /* \"#utility.yul\":24829:24853   */\n      tag_578\n        /* \"#utility.yul\":24847:24852   */\n      dup3\n        /* \"#utility.yul\":24829:24853   */\n      tag_243\n      jump\t// in\n    tag_578:\n        /* \"#utility.yul\":24809:24854   */\n      tag_298\n      jump\t// in\n    tag_577:\n        /* \"#utility.yul\":24804:24807   */\n      dup3\n        /* \"#utility.yul\":24797:24855   */\n      mstore\n        /* \"#utility.yul\":24704:24861   */\n      pop\n      pop\n      jump\t// out\n        /* \"#utility.yul\":24867:25972   */\n    tag_77:\n        /* \"#utility.yul\":25212:25215   */\n      0x00\n        /* \"#utility.yul\":25227:25302   */\n      tag_580\n        /* \"#utility.yul\":25298:25301   */\n      dup3\n        /* \"#utility.yul\":25289:25295   */\n      dup9\n        /* \"#utility.yul\":25227:25302   */\n      tag_293\n      jump\t// in\n    tag_580:\n        /* \"#utility.yul\":25327:25329   */\n      0x14\n        /* \"#utility.yul\":25322:25325   */\n      dup3\n        /* \"#utility.yul\":25318:25330   */\n      add\n        /* \"#utility.yul\":25311:25330   */\n      swap2\n      pop\n        /* \"#utility.yul\":25347:25495   */\n      tag_581\n        /* \"#utility.yul\":25491:25494   */\n      dup3\n        /* \"#utility.yul\":25347:25495   */\n      tag_296\n      jump\t// in\n    tag_581:\n        /* \"#utility.yul\":25340:25495   */\n      swap2\n      pop\n        /* \"#utility.yul\":25505:25580   */\n      tag_582\n        /* \"#utility.yul\":25576:25579   */\n      dup3\n        /* \"#utility.yul\":25567:25573   */\n      dup8\n        /* \"#utility.yul\":25505:25580   */\n      tag_293\n      jump\t// in\n    tag_582:\n        /* \"#utility.yul\":25605:25607   */\n      0x14\n        /* \"#utility.yul\":25600:25603   */\n      dup3\n        /* \"#utility.yul\":25596:25608   */\n      add\n        /* \"#utility.yul\":25589:25608   */\n      swap2\n      pop\n        /* \"#utility.yul\":25625:25720   */\n      tag_583\n        /* \"#utility.yul\":25716:25719   */\n      dup3\n        /* \"#utility.yul\":25707:25713   */\n      dup7\n        /* \"#utility.yul\":25625:25720   */\n      tag_297\n      jump\t// in\n    tag_583:\n        /* \"#utility.yul\":25618:25720   */\n      swap2\n      pop\n        /* \"#utility.yul\":25730:25805   */\n      tag_584\n        /* \"#utility.yul\":25801:25804   */\n      dup3\n        /* \"#utility.yul\":25792:25798   */\n      dup6\n        /* \"#utility.yul\":25730:25805   */\n      tag_299\n      jump\t// in\n    tag_584:\n        /* \"#utility.yul\":25830:25832   */\n      0x20\n        /* \"#utility.yul\":25825:25828   */\n      dup3\n        /* \"#utility.yul\":25821:25833   */\n      add\n        /* \"#utility.yul\":25814:25833   */\n      swap2\n      pop\n        /* \"#utility.yul\":25843:25918   */\n      tag_585\n        /* \"#utility.yul\":25914:25917   */\n      dup3\n        /* \"#utility.yul\":25905:25911   */\n      dup5\n        /* \"#utility.yul\":25843:25918   */\n      tag_299\n      jump\t// in\n    tag_585:\n        /* \"#utility.yul\":25943:25945   */\n      0x20\n        /* \"#utility.yul\":25938:25941   */\n      dup3\n        /* \"#utility.yul\":25934:25946   */\n      add\n        /* \"#utility.yul\":25927:25946   */\n      swap2\n      pop\n        /* \"#utility.yul\":25963:25966   */\n      dup2\n        /* \"#utility.yul\":25956:25966   */\n      swap1\n      pop\n        /* \"#utility.yul\":24867:25972   */\n      swap7\n      swap6\n      pop\n      pop\n      pop\n      pop\n      pop\n      pop\n      jump\t// out\n        /* \"#utility.yul\":25978:26253   */\n    tag_80:\n        /* \"#utility.yul\":26110:26113   */\n      0x00\n        /* \"#utility.yul\":26132:26227   */\n      tag_587\n        /* \"#utility.yul\":26223:26226   */\n      dup3\n        /* \"#utility.yul\":26214:26220   */\n      dup5\n        /* \"#utility.yul\":26132:26227   */\n      tag_297\n      jump\t// in\n    tag_587:\n        /* \"#utility.yul\":26125:26227   */\n      swap2\n      pop\n        /* \"#utility.yul\":26244:26247   */\n      dup2\n        /* \"#utility.yul\":26237:26247   */\n      swap1\n      pop\n        /* \"#utility.yul\":25978:26253   */\n      swap3\n      swap2\n      pop\n      pop\n      jump\t// out\n        /* \"#utility.yul\":26259:26488   */\n    tag_300:\n        /* \"#utility.yul\":26399:26433   */\n      0x54686973206164647265737320646f6573206e6f742065786973742061732061\n        /* \"#utility.yul\":26395:26396   */\n      0x00\n        /* \"#utility.yul\":26387:26393   */\n      dup3\n        /* \"#utility.yul\":26383:26397   */\n      add\n        /* \"#utility.yul\":26376:26434   */\n      mstore\n        /* \"#utility.yul\":26468:26480   */\n      0x2063616e64696461746500000000000000000000000000000000000000000000\n        /* \"#utility.yul\":26463:26465   */\n      0x20\n        /* \"#utility.yul\":26455:26461   */\n      dup3\n        /* \"#utility.yul\":26451:26466   */\n      add\n        /* \"#utility.yul\":26444:26481   */\n      mstore\n        /* \"#utility.yul\":26259:26488   */\n      pop\n      jump\t// out\n        /* \"#utility.yul\":26494:26860   */\n    tag_301:\n        /* \"#utility.yul\":26636:26639   */\n      0x00\n        /* \"#utility.yul\":26657:26724   */\n      tag_590\n        /* \"#utility.yul\":26721:26723   */\n      0x2a\n        /* \"#utility.yul\":26716:26719   */\n      dup4\n        /* \"#utility.yul\":26657:26724   */\n      tag_265\n      jump\t// in\n    tag_590:\n        /* \"#utility.yul\":26650:26724   */\n      swap2\n      pop\n        /* \"#utility.yul\":26733:26826   */\n      tag_591\n        /* \"#utility.yul\":26822:26825   */\n      dup3\n        /* \"#utility.yul\":26733:26826   */\n      tag_300\n      jump\t// in\n    tag_591:\n        /* \"#utility.yul\":26851:26853   */\n      0x40\n        /* \"#utility.yul\":26846:26849   */\n      dup3\n        /* \"#utility.yul\":26842:26854   */\n      add\n        /* \"#utility.yul\":26835:26854   */\n      swap1\n      pop\n        /* \"#utility.yul\":26494:26860   */\n      swap2\n      swap1\n      pop\n      jump\t// out\n        /* \"#utility.yul\":26866:27285   */\n    tag_83:\n        /* \"#utility.yul\":27032:27036   */\n      0x00\n        /* \"#utility.yul\":27070:27072   */\n      0x20\n        /* \"#utility.yul\":27059:27068   */\n      dup3\n        /* \"#utility.yul\":27055:27073   */\n      add\n        /* \"#utility.yul\":27047:27073   */\n      swap1\n      pop\n        /* \"#utility.yul\":27119:27128   */\n      dup2\n        /* \"#utility.yul\":27113:27117   */\n      dup2\n        /* \"#utility.yul\":27109:27129   */\n      sub\n        /* \"#utility.yul\":27105:27106   */\n      0x00\n        /* \"#utility.yul\":27094:27103   */\n      dup4\n        /* \"#utility.yul\":27090:27107   */\n      add\n        /* \"#utility.yul\":27083:27130   */\n      mstore\n        /* \"#utility.yul\":27147:27278   */\n      tag_593\n        /* \"#utility.yul\":27273:27277   */\n      dup2\n        /* \"#utility.yul\":27147:27278   */\n      tag_301\n      jump\t// in\n    tag_593:\n        /* \"#utility.yul\":27139:27278   */\n      swap1\n      pop\n        /* \"#utility.yul\":26866:27285   */\n      swap2\n      swap1\n      pop\n      jump\t// out\n        /* \"#utility.yul\":27291:27457   */\n    tag_302:\n        /* \"#utility.yul\":27431:27449   */\n      0x766f74696e672068617320656e64656400000000000000000000000000000000\n        /* \"#utility.yul\":27427:27428   */\n      0x00\n        /* \"#utility.yul\":27419:27425   */\n      dup3\n        /* \"#utility.yul\":27415:27429   */\n      add\n        /* \"#utility.yul\":27408:27450   */\n      mstore\n        /* \"#utility.yul\":27291:27457   */\n      pop\n      jump\t// out\n        /* \"#utility.yul\":27463:27829   */\n    tag_303:\n        /* \"#utility.yul\":27605:27608   */\n      0x00\n        /* \"#utility.yul\":27626:27693   */\n      tag_596\n        /* \"#utility.yul\":27690:27692   */\n      0x10\n        /* \"#utility.yul\":27685:27688   */\n      dup4\n        /* \"#utility.yul\":27626:27693   */\n      tag_265\n      jump\t// in\n    tag_596:\n        /* \"#utility.yul\":27619:27693   */\n      swap2\n      pop\n        /* \"#utility.yul\":27702:27795   */\n      tag_597\n        /* \"#utility.yul\":27791:27794   */\n      dup3\n        /* \"#utility.yul\":27702:27795   */\n      tag_302\n      jump\t// in\n    tag_597:\n        /* \"#utility.yul\":27820:27822   */\n      0x20\n        /* \"#utility.yul\":27815:27818   */\n      dup3\n        /* \"#utility.yul\":27811:27823   */\n      add\n        /* \"#utility.yul\":27804:27823   */\n      swap1\n      pop\n        /* \"#utility.yul\":27463:27829   */\n      swap2\n      swap1\n      pop\n      jump\t// out\n        /* \"#utility.yul\":27835:28254   */\n    tag_88:\n        /* \"#utility.yul\":28001:28005   */\n      0x00\n        /* \"#utility.yul\":28039:28041   */\n      0x20\n        /* \"#utility.yul\":28028:28037   */\n      dup3\n        /* \"#utility.yul\":28024:28042   */\n      add\n        /* \"#utility.yul\":28016:28042   */\n      swap1\n      pop\n        /* \"#utility.yul\":28088:28097   */\n      dup2\n        /* \"#utility.yul\":28082:28086   */\n      dup2\n        /* \"#utility.yul\":28078:28098   */\n      sub\n        /* \"#utility.yul\":28074:28075   */\n      0x00\n        /* \"#utility.yul\":28063:28072   */\n      dup4\n        /* \"#utility.yul\":28059:28076   */\n      add\n        /* \"#utility.yul\":28052:28099   */\n      mstore\n        /* \"#utility.yul\":28116:28247   */\n      tag_599\n        /* \"#utility.yul\":28242:28246   */\n      dup2\n        /* \"#utility.yul\":28116:28247   */\n      tag_303\n      jump\t// in\n    tag_599:\n        /* \"#utility.yul\":28108:28247   */\n      swap1\n      pop\n        /* \"#utility.yul\":27835:28254   */\n      swap2\n      swap1\n      pop\n      jump\t// out\n        /* \"#utility.yul\":28260:28440   */\n    tag_304:\n        /* \"#utility.yul\":28308:28385   */\n      0x4e487b7100000000000000000000000000000000000000000000000000000000\n        /* \"#utility.yul\":28305:28306   */\n      0x00\n        /* \"#utility.yul\":28298:28386   */\n      mstore\n        /* \"#utility.yul\":28405:28409   */\n      0x11\n        /* \"#utility.yul\":28402:28403   */\n      0x04\n        /* \"#utility.yul\":28395:28410   */\n      mstore\n        /* \"#utility.yul\":28429:28433   */\n      0x24\n        /* \"#utility.yul\":28426:28427   */\n      0x00\n        /* \"#utility.yul\":28419:28434   */\n      revert\n        /* \"#utility.yul\":28446:28679   */\n    tag_96:\n        /* \"#utility.yul\":28485:28488   */\n      0x00\n        /* \"#utility.yul\":28508:28532   */\n      tag_602\n        /* \"#utility.yul\":28526:28531   */\n      dup3\n        /* \"#utility.yul\":28508:28532   */\n      tag_243\n      jump\t// in\n    tag_602:\n        /* \"#utility.yul\":28499:28532   */\n      swap2\n      pop\n        /* \"#utility.yul\":28554:28620   */\n      0xffffffffffffffffffffffffffffffffffffffffffffffffffffffffffffffff\n        /* \"#utility.yul\":28547:28552   */\n      dup3\n        /* \"#utility.yul\":28544:28621   */\n      eq\n        /* \"#utility.yul\":28541:28644   */\n      iszero\n      tag_603\n      jumpi\n        /* \"#utility.yul\":28624:28642   */\n      tag_604\n      tag_304\n      jump\t// in\n    tag_604:\n        /* \"#utility.yul\":28541:28644   */\n    tag_603:\n        /* \"#utility.yul\":28671:28672   */\n      0x01\n        /* \"#utility.yul\":28664:28669   */\n      dup3\n        /* \"#utility.yul\":28660:28673   */\n      add\n        /* \"#utility.yul\":28653:28673   */\n      swap1\n      pop\n        /* \"#utility.yul\":28446:28679   */\n      swap2\n      swap1\n      pop\n      jump\t// out\n        /* \"#utility.yul\":28685:28852   */\n    tag_305:\n        /* \"#utility.yul\":28825:28844   */\n      0x596f7520616c726561647920766f746564000000000000000000000000000000\n        /* \"#utility.yul\":28821:28822   */\n      0x00\n        /* \"#utility.yul\":28813:28819   */\n      dup3\n        /* \"#utility.yul\":28809:28823   */\n      add\n        /* \"#utility.yul\":28802:28845   */\n      mstore\n        /* \"#utility.yul\":28685:28852   */\n      pop\n      jump\t// out\n        /* \"#utility.yul\":28858:29224   */\n    tag_306:\n        /* \"#utility.yul\":29000:29003   */\n      0x00\n        /* \"#utility.yul\":29021:29088   */\n      tag_607\n        /* \"#utility.yul\":29085:29087   */\n      0x11\n        /* \"#utility.yul\":29080:29083   */\n      dup4\n        /* \"#utility.yul\":29021:29088   */\n      tag_265\n      jump\t// in\n    tag_607:\n        /* \"#utility.yul\":29014:29088   */\n      swap2\n      pop\n        /* \"#utility.yul\":29097:29190   */\n      tag_608\n        /* \"#utility.yul\":29186:29189   */\n      dup3\n        /* \"#utility.yul\":29097:29190   */\n      tag_305\n      jump\t// in\n    tag_608:\n        /* \"#utility.yul\":29215:29217   */\n      0x20\n        /* \"#utility.yul\":29210:29213   */\n      dup3\n        /* \"#utility.yul\":29206:29218   */\n      add\n        /* \"#utility.yul\":29199:29218   */\n      swap1\n      pop\n        /* \"#utility.yul\":28858:29224   */\n      swap2\n      swap1\n      pop\n      jump\t// out\n        /* \"#utility.yul\":29230:29649   */\n    tag_100:\n        /* \"#utility.yul\":29396:29400   */\n      0x00\n        /* \"#utility.yul\":29434:29436   */\n      0x20\n        /* \"#utility.yul\":29423:29432   */\n      dup3\n        /* \"#utility.yul\":29419:29437   */\n      add\n        /* \"#utility.yul\":29411:29437   */\n      swap1\n      pop\n        /* \"#utility.yul\":29483:29492   */\n      dup2\n        /* \"#utility.yul\":29477:29481   */\n      dup2\n        /* \"#utility.yul\":29473:29493   */\n      sub\n        /* \"#utility.yul\":29469:29470   */\n      0x00\n        /* \"#utility.yul\":29458:29467   */\n      dup4\n        /* \"#utility.yul\":29454:29471   */\n      add\n        /* \"#utility.yul\":29447:29494   */\n      mstore\n        /* \"#utility.yul\":29511:29642   */\n      tag_610\n        /* \"#utility.yul\":29637:29641   */\n      dup2\n        /* \"#utility.yul\":29511:29642   */\n      tag_306\n      jump\t// in\n    tag_610:\n        /* \"#utility.yul\":29503:29642   */\n      swap1\n      pop\n        /* \"#utility.yul\":29230:29649   */\n      swap2\n      swap1\n      pop\n      jump\t// out\n        /* \"#utility.yul\":29655:29975   */\n    tag_104:\n        /* \"#utility.yul\":29770:29774   */\n      0x00\n        /* \"#utility.yul\":29808:29810   */\n      0x40\n        /* \"#utility.yul\":29797:29806   */\n      dup3\n        /* \"#utility.yul\":29793:29811   */\n      add\n        /* \"#utility.yul\":29785:29811   */\n      swap1\n      pop\n        /* \"#utility.yul\":29821:29892   */\n      tag_612\n        /* \"#utility.yul\":29889:29890   */\n      0x00\n        /* \"#utility.yul\":29878:29887   */\n      dup4\n        /* \"#utility.yul\":29874:29891   */\n      add\n        /* \"#utility.yul\":29865:29871   */\n      dup6\n        /* \"#utility.yul\":29821:29892   */\n      tag_258\n      jump\t// in\n    tag_612:\n        /* \"#utility.yul\":29902:29968   */\n      tag_613\n        /* \"#utility.yul\":29964:29966   */\n      0x20\n        /* \"#utility.yul\":29953:29962   */\n      dup4\n        /* \"#utility.yul\":29949:29967   */\n      add\n        /* \"#utility.yul\":29940:29946   */\n      dup5\n        /* \"#utility.yul\":29902:29968   */\n      tag_263\n      jump\t// in\n    tag_613:\n        /* \"#utility.yul\":29655:29975   */\n      swap4\n      swap3\n      pop\n      pop\n      pop\n      jump\t// out\n        /* \"#utility.yul\":29981:30146   */\n    tag_307:\n        /* \"#utility.yul\":30121:30138   */\n      0x4e6f20706f6c6c20637265617465640000000000000000000000000000000000\n        /* \"#utility.yul\":30117:30118   */\n      0x00\n        /* \"#utility.yul\":30109:30115   */\n      dup3\n        /* \"#utility.yul\":30105:30119   */\n      add\n        /* \"#utility.yul\":30098:30139   */\n      mstore\n        /* \"#utility.yul\":29981:30146   */\n      pop\n      jump\t// out\n        /* \"#utility.yul\":30152:30518   */\n    tag_308:\n        /* \"#utility.yul\":30294:30297   */\n      0x00\n        /* \"#utility.yul\":30315:30382   */\n      tag_616\n        /* \"#utility.yul\":30379:30381   */\n      0x0f\n        /* \"#utility.yul\":30374:30377   */\n      dup4\n        /* \"#utility.yul\":30315:30382   */\n      tag_265\n      jump\t// in\n    tag_616:\n        /* \"#utility.yul\":30308:30382   */\n      swap2\n      pop\n        /* \"#utility.yul\":30391:30484   */\n      tag_617\n        /* \"#utility.yul\":30480:30483   */\n      dup3\n        /* \"#utility.yul\":30391:30484   */\n      tag_307\n      jump\t// in\n    tag_617:\n        /* \"#utility.yul\":30509:30511   */\n      0x20\n        /* \"#utility.yul\":30504:30507   */\n      dup3\n        /* \"#utility.yul\":30500:30512   */\n      add\n        /* \"#utility.yul\":30493:30512   */\n      swap1\n      pop\n        /* \"#utility.yul\":30152:30518   */\n      swap2\n      swap1\n      pop\n      jump\t// out\n        /* \"#utility.yul\":30524:30943   */\n    tag_109:\n        /* \"#utility.yul\":30690:30694   */\n      0x00\n        /* \"#utility.yul\":30728:30730   */\n      0x20\n        /* \"#utility.yul\":30717:30726   */\n      dup3\n        /* \"#utility.yul\":30713:30731   */\n      add\n        /* \"#utility.yul\":30705:30731   */\n      swap1\n      pop\n        /* \"#utility.yul\":30777:30786   */\n      dup2\n        /* \"#utility.yul\":30771:30775   */\n      dup2\n        /* \"#utility.yul\":30767:30787   */\n      sub\n        /* \"#utility.yul\":30763:30764   */\n      0x00\n        /* \"#utility.yul\":30752:30761   */\n      dup4\n        /* \"#utility.yul\":30748:30765   */\n      add\n        /* \"#utility.yul\":30741:30788   */\n      mstore\n        /* \"#utility.yul\":30805:30936   */\n      tag_619\n        /* \"#utility.yul\":30931:30935   */\n      dup2\n        /* \"#utility.yul\":30805:30936   */\n      tag_308\n      jump\t// in\n    tag_619:\n        /* \"#utility.yul\":30797:30936   */\n      swap1\n      pop\n        /* \"#utility.yul\":30524:30943   */\n      swap2\n      swap1\n      pop\n      jump\t// out\n        /* \"#utility.yul\":30949:31129   */\n    tag_122:\n        /* \"#utility.yul\":30997:31074   */\n      0x4e487b7100000000000000000000000000000000000000000000000000000000\n        /* \"#utility.yul\":30994:30995   */\n      0x00\n        /* \"#utility.yul\":30987:31075   */\n      mstore\n        /* \"#utility.yul\":31094:31098   */\n      0x32\n        /* \"#utility.yul\":31091:31092   */\n      0x04\n        /* \"#utility.yul\":31084:31099   */\n      mstore\n        /* \"#utility.yul\":31118:31122   */\n      0x24\n        /* \"#utility.yul\":31115:31116   */\n      0x00\n        /* \"#utility.yul\":31108:31123   */\n      revert\n        /* \"#utility.yul\":31135:31305   */\n    tag_309:\n        /* \"#utility.yul\":31275:31297   */\n      0x79657420746f20637265617465206120706f6c6c000000000000000000000000\n        /* \"#utility.yul\":31271:31272   */\n      0x00\n        /* \"#utility.yul\":31263:31269   */\n      dup3\n        /* \"#utility.yul\":31259:31273   */\n      add\n        /* \"#utility.yul\":31252:31298   */\n      mstore\n        /* \"#utility.yul\":31135:31305   */\n      pop\n      jump\t// out\n        /* \"#utility.yul\":31311:31677   */\n    tag_310:\n        /* \"#utility.yul\":31453:31456   */\n      0x00\n        /* \"#utility.yul\":31474:31541   */\n      tag_623\n        /* \"#utility.yul\":31538:31540   */\n      0x14\n        /* \"#utility.yul\":31533:31536   */\n      dup4\n        /* \"#utility.yul\":31474:31541   */\n      tag_265\n      jump\t// in\n    tag_623:\n        /* \"#utility.yul\":31467:31541   */\n      swap2\n      pop\n        /* \"#utility.yul\":31550:31643   */\n      tag_624\n        /* \"#utility.yul\":31639:31642   */\n      dup3\n        /* \"#utility.yul\":31550:31643   */\n      tag_309\n      jump\t// in\n    tag_624:\n        /* \"#utility.yul\":31668:31670   */\n      0x20\n        /* \"#utility.yul\":31663:31666   */\n      dup3\n        /* \"#utility.yul\":31659:31671   */\n      add\n        /* \"#utility.yul\":31652:31671   */\n      swap1\n      pop\n        /* \"#utility.yul\":31311:31677   */\n      swap2\n      swap1\n      pop\n      jump\t// out\n        /* \"#utility.yul\":31683:32102   */\n    tag_134:\n        /* \"#utility.yul\":31849:31853   */\n      0x00\n        /* \"#utility.yul\":31887:31889   */\n      0x20\n        /* \"#utility.yul\":31876:31885   */\n      dup3\n        /* \"#utility.yul\":31872:31890   */\n      add\n        /* \"#utility.yul\":31864:31890   */\n      swap1\n      pop\n        /* \"#utility.yul\":31936:31945   */\n      dup2\n        /* \"#utility.yul\":31930:31934   */\n      dup2\n        /* \"#utility.yul\":31926:31946   */\n      sub\n        /* \"#utility.yul\":31922:31923   */\n      0x00\n        /* \"#utility.yul\":31911:31920   */\n      dup4\n        /* \"#utility.yul\":31907:31924   */\n      add\n        /* \"#utility.yul\":31900:31947   */\n      mstore\n        /* \"#utility.yul\":31964:32095   */\n      tag_626\n        /* \"#utility.yul\":32090:32094   */\n      dup2\n        /* \"#utility.yul\":31964:32095   */\n      tag_310\n      jump\t// in\n    tag_626:\n        /* \"#utility.yul\":31956:32095   */\n      swap1\n      pop\n        /* \"#utility.yul\":31683:32102   */\n      swap2\n      swap1\n      pop\n      jump\t// out\n        /* \"#utility.yul\":32108:32288   */\n    tag_137:\n        /* \"#utility.yul\":32156:32233   */\n      0x4e487b7100000000000000000000000000000000000000000000000000000000\n        /* \"#utility.yul\":32153:32154   */\n      0x00\n        /* \"#utility.yul\":32146:32234   */\n      mstore\n        /* \"#utility.yul\":32253:32257   */\n      0x01\n        /* \"#utility.yul\":32250:32251   */\n      0x04\n        /* \"#utility.yul\":32243:32258   */\n      mstore\n        /* \"#utility.yul\":32277:32281   */\n      0x24\n        /* \"#utility.yul\":32274:32275   */\n      0x00\n        /* \"#utility.yul\":32267:32282   */\n      revert\n        /* \"#utility.yul\":32294:32527   */\n    tag_311:\n        /* \"#utility.yul\":32434:32468   */\n      0x6d6178696d756d206e6f206f662063616e646964617465207065722073657373\n        /* \"#utility.yul\":32430:32431   */\n      0x00\n        /* \"#utility.yul\":32422:32428   */\n      dup3\n        /* \"#utility.yul\":32418:32432   */\n      add\n        /* \"#utility.yul\":32411:32469   */\n      mstore\n        /* \"#utility.yul\":32503:32519   */\n      0x696f6e2072656769737465726564000000000000000000000000000000000000\n        /* \"#utility.yul\":32498:32500   */\n      0x20\n        /* \"#utility.yul\":32490:32496   */\n      dup3\n        /* \"#utility.yul\":32486:32501   */\n      add\n        /* \"#utility.yul\":32479:32520   */\n      mstore\n        /* \"#utility.yul\":32294:32527   */\n      pop\n      jump\t// out\n        /* \"#utility.yul\":32533:32899   */\n    tag_312:\n        /* \"#utility.yul\":32675:32678   */\n      0x00\n        /* \"#utility.yul\":32696:32763   */\n      tag_630\n        /* \"#utility.yul\":32760:32762   */\n      0x2e\n        /* \"#utility.yul\":32755:32758   */\n      dup4\n        /* \"#utility.yul\":32696:32763   */\n      tag_265\n      jump\t// in\n    tag_630:\n        /* \"#utility.yul\":32689:32763   */\n      swap2\n      pop\n        /* \"#utility.yul\":32772:32865   */\n      tag_631\n        /* \"#utility.yul\":32861:32864   */\n      dup3\n        /* \"#utility.yul\":32772:32865   */\n      tag_311\n      jump\t// in\n    tag_631:\n        /* \"#utility.yul\":32890:32892   */\n      0x40\n        /* \"#utility.yul\":32885:32888   */\n      dup3\n        /* \"#utility.yul\":32881:32893   */\n      add\n        /* \"#utility.yul\":32874:32893   */\n      swap1\n      pop\n        /* \"#utility.yul\":32533:32899   */\n      swap2\n      swap1\n      pop\n      jump\t// out\n        /* \"#utility.yul\":32905:33324   */\n    tag_140:\n        /* \"#utility.yul\":33071:33075   */\n      0x00\n        /* \"#utility.yul\":33109:33111   */\n      0x20\n        /* \"#utility.yul\":33098:33107   */\n      dup3\n        /* \"#utility.yul\":33094:33112   */\n      add\n        /* \"#utility.yul\":33086:33112   */\n      swap1\n      pop\n        /* \"#utility.yul\":33158:33167   */\n      dup2\n        /* \"#utility.yul\":33152:33156   */\n      dup2\n        /* \"#utility.yul\":33148:33168   */\n      sub\n        /* \"#utility.yul\":33144:33145   */\n      0x00\n        /* \"#utility.yul\":33133:33142   */\n      dup4\n        /* \"#utility.yul\":33129:33146   */\n      add\n        /* \"#utility.yul\":33122:33169   */\n      mstore\n        /* \"#utility.yul\":33186:33317   */\n      tag_633\n        /* \"#utility.yul\":33312:33316   */\n      dup2\n        /* \"#utility.yul\":33186:33317   */\n      tag_312\n      jump\t// in\n    tag_633:\n        /* \"#utility.yul\":33178:33317   */\n      swap1\n      pop\n        /* \"#utility.yul\":32905:33324   */\n      swap2\n      swap1\n      pop\n      jump\t// out\n        /* \"#utility.yul\":33330:33505   */\n    tag_143:\n        /* \"#utility.yul\":33368:33371   */\n      0x00\n        /* \"#utility.yul\":33391:33414   */\n      tag_635\n        /* \"#utility.yul\":33408:33413   */\n      dup3\n        /* \"#utility.yul\":33391:33414   */\n      tag_260\n      jump\t// in\n    tag_635:\n        /* \"#utility.yul\":33382:33414   */\n      swap2\n      pop\n        /* \"#utility.yul\":33436:33446   */\n      0xffffffff\n        /* \"#utility.yul\":33429:33434   */\n      dup3\n        /* \"#utility.yul\":33426:33447   */\n      eq\n        /* \"#utility.yul\":33423:33470   */\n      iszero\n      tag_636\n      jumpi\n        /* \"#utility.yul\":33450:33468   */\n      tag_637\n      tag_304\n      jump\t// in\n    tag_637:\n        /* \"#utility.yul\":33423:33470   */\n    tag_636:\n        /* \"#utility.yul\":33497:33498   */\n      0x01\n        /* \"#utility.yul\":33490:33495   */\n      dup3\n        /* \"#utility.yul\":33486:33499   */\n      add\n        /* \"#utility.yul\":33479:33499   */\n      swap1\n      pop\n        /* \"#utility.yul\":33330:33505   */\n      swap2\n      swap1\n      pop\n      jump\t// out\n        /* \"#utility.yul\":33511:33733   */\n    tag_145:\n        /* \"#utility.yul\":33604:33608   */\n      0x00\n        /* \"#utility.yul\":33642:33644   */\n      0x20\n        /* \"#utility.yul\":33631:33640   */\n      dup3\n        /* \"#utility.yul\":33627:33645   */\n      add\n        /* \"#utility.yul\":33619:33645   */\n      swap1\n      pop\n        /* \"#utility.yul\":33655:33726   */\n      tag_639\n        /* \"#utility.yul\":33723:33724   */\n      0x00\n        /* \"#utility.yul\":33712:33721   */\n      dup4\n        /* \"#utility.yul\":33708:33725   */\n      add\n        /* \"#utility.yul\":33699:33705   */\n      dup5\n        /* \"#utility.yul\":33655:33726   */\n      tag_258\n      jump\t// in\n    tag_639:\n        /* \"#utility.yul\":33511:33733   */\n      swap3\n      swap2\n      pop\n      pop\n      jump\t// out\n        /* \"#utility.yul\":33739:33919   */\n    tag_313:\n        /* \"#utility.yul\":33787:33864   */\n      0x4e487b7100000000000000000000000000000000000000000000000000000000\n        /* \"#utility.yul\":33784:33785   */\n      0x00\n        /* \"#utility.yul\":33777:33865   */\n      mstore\n        /* \"#utility.yul\":33884:33888   */\n      0x22\n        /* \"#utility.yul\":33881:33882   */\n      0x04\n        /* \"#utility.yul\":33874:33889   */\n      mstore\n        /* \"#utility.yul\":33908:33912   */\n      0x24\n        /* \"#utility.yul\":33905:33906   */\n      0x00\n        /* \"#utility.yul\":33898:33913   */\n      revert\n        /* \"#utility.yul\":33925:34245   */\n    tag_151:\n        /* \"#utility.yul\":33969:33975   */\n      0x00\n        /* \"#utility.yul\":34006:34007   */\n      0x02\n        /* \"#utility.yul\":34000:34004   */\n      dup3\n        /* \"#utility.yul\":33996:34008   */\n      div\n        /* \"#utility.yul\":33986:34008   */\n      swap1\n      pop\n        /* \"#utility.yul\":34053:34054   */\n      0x01\n        /* \"#utility.yul\":34047:34051   */\n      dup3\n        /* \"#utility.yul\":34043:34055   */\n      and\n        /* \"#utility.yul\":34074:34092   */\n      dup1\n        /* \"#utility.yul\":34064:34145   */\n      tag_642\n      jumpi\n        /* \"#utility.yul\":34130:34134   */\n      0x7f\n        /* \"#utility.yul\":34122:34128   */\n      dup3\n        /* \"#utility.yul\":34118:34135   */\n      and\n        /* \"#utility.yul\":34108:34135   */\n      swap2\n      pop\n        /* \"#utility.yul\":34064:34145   */\n    tag_642:\n        /* \"#utility.yul\":34192:34194   */\n      0x20\n        /* \"#utility.yul\":34184:34190   */\n      dup3\n        /* \"#utility.yul\":34181:34195   */\n      lt\n        /* \"#utility.yul\":34161:34179   */\n      dup2\n        /* \"#utility.yul\":34158:34196   */\n      eq\n        /* \"#utility.yul\":34155:34239   */\n      iszero\n      tag_643\n      jumpi\n        /* \"#utility.yul\":34211:34229   */\n      tag_644\n      tag_313\n      jump\t// in\n    tag_644:\n        /* \"#utility.yul\":34155:34239   */\n    tag_643:\n        /* \"#utility.yul\":33976:34245   */\n      pop\n        /* \"#utility.yul\":33925:34245   */\n      swap2\n      swap1\n      pop\n      jump\t// out\n        /* \"#utility.yul\":34251:34417   */\n    tag_314:\n        /* \"#utility.yul\":34391:34409   */\n      0x6e6f74207468652063686169726d616e00000000000000000000000000000000\n        /* \"#utility.yul\":34387:34388   */\n      0x00\n        /* \"#utility.yul\":34379:34385   */\n      dup3\n        /* \"#utility.yul\":34375:34389   */\n      add\n        /* \"#utility.yul\":34368:34410   */\n      mstore\n        /* \"#utility.yul\":34251:34417   */\n      pop\n      jump\t// out\n        /* \"#utility.yul\":34423:34789   */\n    tag_315:\n        /* \"#utility.yul\":34565:34568   */\n      0x00\n        /* \"#utility.yul\":34586:34653   */\n      tag_647\n        /* \"#utility.yul\":34650:34652   */\n      0x10\n        /* \"#utility.yul\":34645:34648   */\n      dup4\n        /* \"#utility.yul\":34586:34653   */\n      tag_265\n      jump\t// in\n    tag_647:\n        /* \"#utility.yul\":34579:34653   */\n      swap2\n      pop\n        /* \"#utility.yul\":34662:34755   */\n      tag_648\n        /* \"#utility.yul\":34751:34754   */\n      dup3\n        /* \"#utility.yul\":34662:34755   */\n      tag_314\n      jump\t// in\n    tag_648:\n        /* \"#utility.yul\":34780:34782   */\n      0x20\n        /* \"#utility.yul\":34775:34778   */\n      dup3\n        /* \"#utility.yul\":34771:34783   */\n      add\n        /* \"#utility.yul\":34764:34783   */\n      swap1\n      pop\n        /* \"#utility.yul\":34423:34789   */\n      swap2\n      swap1\n      pop\n      jump\t// out\n        /* \"#utility.yul\":34795:35214   */\n    tag_164:\n        /* \"#utility.yul\":34961:34965   */\n      0x00\n        /* \"#utility.yul\":34999:35001   */\n      0x20\n        /* \"#utility.yul\":34988:34997   */\n      dup3\n        /* \"#utility.yul\":34984:35002   */\n      add\n        /* \"#utility.yul\":34976:35002   */\n      swap1\n      pop\n        /* \"#utility.yul\":35048:35057   */\n      dup2\n        /* \"#utility.yul\":35042:35046   */\n      dup2\n        /* \"#utility.yul\":35038:35058   */\n      sub\n        /* \"#utility.yul\":35034:35035   */\n      0x00\n        /* \"#utility.yul\":35023:35032   */\n      dup4\n        /* \"#utility.yul\":35019:35036   */\n      add\n        /* \"#utility.yul\":35012:35059   */\n      mstore\n        /* \"#utility.yul\":35076:35207   */\n      tag_650\n        /* \"#utility.yul\":35202:35206   */\n      dup2\n        /* \"#utility.yul\":35076:35207   */\n      tag_315\n      jump\t// in\n    tag_650:\n        /* \"#utility.yul\":35068:35207   */\n      swap1\n      pop\n        /* \"#utility.yul\":34795:35214   */\n      swap2\n      swap1\n      pop\n      jump\t// out\n        /* \"#utility.yul\":35220:35361   */\n    tag_316:\n        /* \"#utility.yul\":35269:35273   */\n      0x00\n        /* \"#utility.yul\":35292:35295   */\n      dup2\n        /* \"#utility.yul\":35284:35295   */\n      swap1\n      pop\n        /* \"#utility.yul\":35315:35318   */\n      dup2\n        /* \"#utility.yul\":35312:35313   */\n      0x00\n        /* \"#utility.yul\":35305:35319   */\n      mstore\n        /* \"#utility.yul\":35349:35353   */\n      0x20\n        /* \"#utility.yul\":35346:35347   */\n      0x00\n        /* \"#utility.yul\":35336:35354   */\n      keccak256\n        /* \"#utility.yul\":35328:35354   */\n      swap1\n      pop\n        /* \"#utility.yul\":35220:35361   */\n      swap2\n      swap1\n      pop\n      jump\t// out\n        /* \"#utility.yul\":35391:36236   */\n    tag_317:\n        /* \"#utility.yul\":35494:35497   */\n      0x00\n        /* \"#utility.yul\":35531:35536   */\n      dup2\n        /* \"#utility.yul\":35525:35537   */\n      sload\n        /* \"#utility.yul\":35560:35596   */\n      tag_653\n        /* \"#utility.yul\":35586:35595   */\n      dup2\n        /* \"#utility.yul\":35560:35596   */\n      tag_151\n      jump\t// in\n    tag_653:\n        /* \"#utility.yul\":35612:35701   */\n      tag_654\n        /* \"#utility.yul\":35694:35700   */\n      dup2\n        /* \"#utility.yul\":35689:35692   */\n      dup7\n        /* \"#utility.yul\":35612:35701   */\n      tag_294\n      jump\t// in\n    tag_654:\n        /* \"#utility.yul\":35605:35701   */\n      swap5\n      pop\n        /* \"#utility.yul\":35732:35733   */\n      0x01\n        /* \"#utility.yul\":35721:35730   */\n      dup3\n        /* \"#utility.yul\":35717:35734   */\n      and\n        /* \"#utility.yul\":35748:35749   */\n      0x00\n        /* \"#utility.yul\":35743:35880   */\n      dup2\n      eq\n      tag_656\n      jumpi\n        /* \"#utility.yul\":35894:35895   */\n      0x01\n        /* \"#utility.yul\":35889:36230   */\n      dup2\n      eq\n      tag_657\n      jumpi\n        /* \"#utility.yul\":35710:36230   */\n      jump(tag_655)\n        /* \"#utility.yul\":35743:35880   */\n    tag_656:\n        /* \"#utility.yul\":35827:35831   */\n      0xff\n        /* \"#utility.yul\":35823:35832   */\n      not\n        /* \"#utility.yul\":35812:35821   */\n      dup4\n        /* \"#utility.yul\":35808:35833   */\n      and\n        /* \"#utility.yul\":35803:35806   */\n      dup7\n        /* \"#utility.yul\":35796:35834   */\n      mstore\n        /* \"#utility.yul\":35863:35869   */\n      dup2\n        /* \"#utility.yul\":35858:35861   */\n      dup7\n        /* \"#utility.yul\":35854:35870   */\n      add\n        /* \"#utility.yul\":35847:35870   */\n      swap4\n      pop\n        /* \"#utility.yul\":35743:35880   */\n      jump(tag_655)\n        /* \"#utility.yul\":35889:36230   */\n    tag_657:\n        /* \"#utility.yul\":35956:35994   */\n      tag_658\n        /* \"#utility.yul\":35988:35993   */\n      dup6\n        /* \"#utility.yul\":35956:35994   */\n      tag_316\n      jump\t// in\n    tag_658:\n        /* \"#utility.yul\":36016:36017   */\n      0x00\n        /* \"#utility.yul\":36030:36184   */\n    tag_659:\n        /* \"#utility.yul\":36044:36050   */\n      dup4\n        /* \"#utility.yul\":36041:36042   */\n      dup2\n        /* \"#utility.yul\":36038:36051   */\n      lt\n        /* \"#utility.yul\":36030:36184   */\n      iszero\n      tag_661\n      jumpi\n        /* \"#utility.yul\":36118:36125   */\n      dup2\n        /* \"#utility.yul\":36112:36126   */\n      sload\n        /* \"#utility.yul\":36108:36109   */\n      dup2\n        /* \"#utility.yul\":36103:36106   */\n      dup10\n        /* \"#utility.yul\":36099:36110   */\n      add\n        /* \"#utility.yul\":36092:36127   */\n      mstore\n        /* \"#utility.yul\":36168:36169   */\n      0x01\n        /* \"#utility.yul\":36159:36166   */\n      dup3\n        /* \"#utility.yul\":36155:36170   */\n      add\n        /* \"#utility.yul\":36144:36170   */\n      swap2\n      pop\n        /* \"#utility.yul\":36066:36070   */\n      0x20\n        /* \"#utility.yul\":36063:36064   */\n      dup2\n        /* \"#utility.yul\":36059:36071   */\n      add\n        /* \"#utility.yul\":36054:36071   */\n      swap1\n      pop\n        /* \"#utility.yul\":36030:36184   */\n      jump(tag_659)\n    tag_661:\n        /* \"#utility.yul\":36213:36219   */\n      dup4\n        /* \"#utility.yul\":36208:36211   */\n      dup9\n        /* \"#utility.yul\":36204:36220   */\n      add\n        /* \"#utility.yul\":36197:36220   */\n      swap6\n      pop\n        /* \"#utility.yul\":35896:36230   */\n      pop\n      pop\n        /* \"#utility.yul\":35710:36230   */\n    tag_655:\n      pop\n        /* \"#utility.yul\":35498:36236   */\n      pop\n      pop\n        /* \"#utility.yul\":35391:36236   */\n      swap3\n      swap2\n      pop\n      pop\n      jump\t// out\n        /* \"#utility.yul\":36242:36511   */\n    tag_185:\n        /* \"#utility.yul\":36371:36374   */\n      0x00\n        /* \"#utility.yul\":36393:36485   */\n      tag_663\n        /* \"#utility.yul\":36481:36484   */\n      dup3\n        /* \"#utility.yul\":36472:36478   */\n      dup5\n        /* \"#utility.yul\":36393:36485   */\n      tag_317\n      jump\t// in\n    tag_663:\n        /* \"#utility.yul\":36386:36485   */\n      swap2\n      pop\n        /* \"#utility.yul\":36502:36505   */\n      dup2\n        /* \"#utility.yul\":36495:36505   */\n      swap1\n      pop\n        /* \"#utility.yul\":36242:36511   */\n      swap3\n      swap2\n      pop\n      pop\n      jump\t// out\n        /* \"#utility.yul\":36517:36603   */\n    tag_318:\n        /* \"#utility.yul\":36552:36559   */\n      0x00\n        /* \"#utility.yul\":36592:36596   */\n      0xff\n        /* \"#utility.yul\":36585:36590   */\n      dup3\n        /* \"#utility.yul\":36581:36597   */\n      and\n        /* \"#utility.yul\":36570:36597   */\n      swap1\n      pop\n        /* \"#utility.yul\":36517:36603   */\n      swap2\n      swap1\n      pop\n      jump\t// out\n        /* \"#utility.yul\":36609:36846   */\n    tag_199:\n        /* \"#utility.yul\":36647:36650   */\n      0x00\n        /* \"#utility.yul\":36666:36684   */\n      tag_666\n        /* \"#utility.yul\":36682:36683   */\n      dup3\n        /* \"#utility.yul\":36666:36684   */\n      tag_318\n      jump\t// in\n    tag_666:\n        /* \"#utility.yul\":36661:36684   */\n      swap2\n      pop\n        /* \"#utility.yul\":36698:36716   */\n      tag_667\n        /* \"#utility.yul\":36714:36715   */\n      dup4\n        /* \"#utility.yul\":36698:36716   */\n      tag_318\n      jump\t// in\n    tag_667:\n        /* \"#utility.yul\":36693:36716   */\n      swap3\n      pop\n        /* \"#utility.yul\":36788:36789   */\n      dup3\n        /* \"#utility.yul\":36782:36786   */\n      0xff\n        /* \"#utility.yul\":36778:36790   */\n      sub\n        /* \"#utility.yul\":36775:36776   */\n      dup3\n        /* \"#utility.yul\":36772:36791   */\n      gt\n        /* \"#utility.yul\":36769:36814   */\n      iszero\n      tag_668\n      jumpi\n        /* \"#utility.yul\":36794:36812   */\n      tag_669\n      tag_304\n      jump\t// in\n    tag_669:\n        /* \"#utility.yul\":36769:36814   */\n    tag_668:\n        /* \"#utility.yul\":36838:36839   */\n      dup3\n        /* \"#utility.yul\":36835:36836   */\n      dup3\n        /* \"#utility.yul\":36831:36840   */\n      add\n        /* \"#utility.yul\":36824:36840   */\n      swap1\n      pop\n        /* \"#utility.yul\":36609:36846   */\n      swap3\n      swap2\n      pop\n      pop\n      jump\t// out\n        /* \"#utility.yul\":36852:37066   */\n    tag_319:\n        /* \"#utility.yul\":36992:37058   */\n      0x19457468657265756d205369676e6564204d6573736167653a0a333200000000\n        /* \"#utility.yul\":36988:36989   */\n      0x00\n        /* \"#utility.yul\":36980:36986   */\n      dup3\n        /* \"#utility.yul\":36976:36990   */\n      add\n        /* \"#utility.yul\":36969:37059   */\n      mstore\n        /* \"#utility.yul\":36852:37066   */\n      pop\n      jump\t// out\n        /* \"#utility.yul\":37072:37474   */\n    tag_320:\n        /* \"#utility.yul\":37232:37235   */\n      0x00\n        /* \"#utility.yul\":37253:37338   */\n      tag_672\n        /* \"#utility.yul\":37335:37337   */\n      0x1c\n        /* \"#utility.yul\":37330:37333   */\n      dup4\n        /* \"#utility.yul\":37253:37338   */\n      tag_294\n      jump\t// in\n    tag_672:\n        /* \"#utility.yul\":37246:37338   */\n      swap2\n      pop\n        /* \"#utility.yul\":37347:37440   */\n      tag_673\n        /* \"#utility.yul\":37436:37439   */\n      dup3\n        /* \"#utility.yul\":37347:37440   */\n      tag_319\n      jump\t// in\n    tag_673:\n        /* \"#utility.yul\":37465:37467   */\n      0x1c\n        /* \"#utility.yul\":37460:37463   */\n      dup3\n        /* \"#utility.yul\":37456:37468   */\n      add\n        /* \"#utility.yul\":37449:37468   */\n      swap1\n      pop\n        /* \"#utility.yul\":37072:37474   */\n      swap2\n      swap1\n      pop\n      jump\t// out\n        /* \"#utility.yul\":37480:37559   */\n    tag_321:\n        /* \"#utility.yul\":37519:37526   */\n      0x00\n        /* \"#utility.yul\":37548:37553   */\n      dup2\n        /* \"#utility.yul\":37537:37553   */\n      swap1\n      pop\n        /* \"#utility.yul\":37480:37559   */\n      swap2\n      swap1\n      pop\n      jump\t// out\n        /* \"#utility.yul\":37565:37722   */\n    tag_322:\n        /* \"#utility.yul\":37670:37715   */\n      tag_676\n        /* \"#utility.yul\":37690:37714   */\n      tag_677\n        /* \"#utility.yul\":37708:37713   */\n      dup3\n        /* \"#utility.yul\":37690:37714   */\n      tag_246\n      jump\t// in\n    tag_677:\n        /* \"#utility.yul\":37670:37715   */\n      tag_321\n      jump\t// in\n    tag_676:\n        /* \"#utility.yul\":37665:37668   */\n      dup3\n        /* \"#utility.yul\":37658:37716   */\n      mstore\n        /* \"#utility.yul\":37565:37722   */\n      pop\n      pop\n      jump\t// out\n        /* \"#utility.yul\":37728:38250   */\n    tag_204:\n        /* \"#utility.yul\":37941:37944   */\n      0x00\n        /* \"#utility.yul\":37963:38111   */\n      tag_679\n        /* \"#utility.yul\":38107:38110   */\n      dup3\n        /* \"#utility.yul\":37963:38111   */\n      tag_320\n      jump\t// in\n    tag_679:\n        /* \"#utility.yul\":37956:38111   */\n      swap2\n      pop\n        /* \"#utility.yul\":38121:38196   */\n      tag_680\n        /* \"#utility.yul\":38192:38195   */\n      dup3\n        /* \"#utility.yul\":38183:38189   */\n      dup5\n        /* \"#utility.yul\":38121:38196   */\n      tag_322\n      jump\t// in\n    tag_680:\n        /* \"#utility.yul\":38221:38223   */\n      0x20\n        /* \"#utility.yul\":38216:38219   */\n      dup3\n        /* \"#utility.yul\":38212:38224   */\n      add\n        /* \"#utility.yul\":38205:38224   */\n      swap2\n      pop\n        /* \"#utility.yul\":38241:38244   */\n      dup2\n        /* \"#utility.yul\":38234:38244   */\n      swap1\n      pop\n        /* \"#utility.yul\":37728:38250   */\n      swap3\n      swap2\n      pop\n      pop\n      jump\t// out\n        /* \"#utility.yul\":38256:38368   */\n    tag_323:\n        /* \"#utility.yul\":38339:38361   */\n      tag_682\n        /* \"#utility.yul\":38355:38360   */\n      dup2\n        /* \"#utility.yul\":38339:38361   */\n      tag_318\n      jump\t// in\n    tag_682:\n        /* \"#utility.yul\":38334:38337   */\n      dup3\n        /* \"#utility.yul\":38327:38362   */\n      mstore\n        /* \"#utility.yul\":38256:38368   */\n      pop\n      pop\n      jump\t// out\n        /* \"#utility.yul\":38374:38919   */\n    tag_206:\n        /* \"#utility.yul\":38547:38551   */\n      0x00\n        /* \"#utility.yul\":38585:38588   */\n      0x80\n        /* \"#utility.yul\":38574:38583   */\n      dup3\n        /* \"#utility.yul\":38570:38589   */\n      add\n        /* \"#utility.yul\":38562:38589   */\n      swap1\n      pop\n        /* \"#utility.yul\":38599:38670   */\n      tag_684\n        /* \"#utility.yul\":38667:38668   */\n      0x00\n        /* \"#utility.yul\":38656:38665   */\n      dup4\n        /* \"#utility.yul\":38652:38669   */\n      add\n        /* \"#utility.yul\":38643:38649   */\n      dup8\n        /* \"#utility.yul\":38599:38670   */\n      tag_247\n      jump\t// in\n    tag_684:\n        /* \"#utility.yul\":38680:38748   */\n      tag_685\n        /* \"#utility.yul\":38744:38746   */\n      0x20\n        /* \"#utility.yul\":38733:38742   */\n      dup4\n        /* \"#utility.yul\":38729:38747   */\n      add\n        /* \"#utility.yul\":38720:38726   */\n      dup7\n        /* \"#utility.yul\":38680:38748   */\n      tag_323\n      jump\t// in\n    tag_685:\n        /* \"#utility.yul\":38758:38830   */\n      tag_686\n        /* \"#utility.yul\":38826:38828   */\n      0x40\n        /* \"#utility.yul\":38815:38824   */\n      dup4\n        /* \"#utility.yul\":38811:38829   */\n      add\n        /* \"#utility.yul\":38802:38808   */\n      dup6\n        /* \"#utility.yul\":38758:38830   */\n      tag_247\n      jump\t// in\n    tag_686:\n        /* \"#utility.yul\":38840:38912   */\n      tag_687\n        /* \"#utility.yul\":38908:38910   */\n      0x60\n        /* \"#utility.yul\":38897:38906   */\n      dup4\n        /* \"#utility.yul\":38893:38911   */\n      add\n        /* \"#utility.yul\":38884:38890   */\n      dup5\n        /* \"#utility.yul\":38840:38912   */\n      tag_247\n      jump\t// in\n    tag_687:\n        /* \"#utility.yul\":38374:38919   */\n      swap6\n      swap5\n      pop\n      pop\n      pop\n      pop\n      pop\n      jump\t// out\n\n    auxdata: 0xa264697066735822122088102cd58ea0d62541200a089b01269215c6bbf6a658fe17c899620cd8b0142d64736f6c634300080a0033\n}\n",
				"bytecode": {
					"linkReferences": {},
					"object": "608060405234801561001057600080fd5b5061296d806100206000396000f3fe608060405234801561001057600080fd5b50600436106100b45760003560e01c80638579cacd116100715780638579cacd146101b6578063ae928e3e146101e6578063af7cbc0d14610216578063f0e4de2214610246578063f762f4c014610262578063f843706114610293576100b4565b806301ff993b146100b957806312f0da4b146100e95780634fcf1f391461010557806357f539671461013757806363ee965a1461015357806367d407df14610186575b600080fd5b6100d360048036038101906100ce91906117d4565b6102b1565b6040516100e09190611870565b60405180910390f35b61010360048036038101906100fe919061192c565b6102ec565b005b61011f600480360381019061011a91906119cb565b610623565b60405161012e93929190611af0565b60405180910390f35b610151600480360381019061014c9190611b2e565b61086a565b005b61016d600480360381019061016891906119cb565b610b34565b60405161017d9493929190611bc4565b60405180910390f35b6101a0600480360381019061019b9190611c09565b610bc7565b6040516101ad9190611c36565b60405180910390f35b6101d060048036038101906101cb91906119cb565b610bdf565b6040516101dd9190611c36565b60405180910390f35b61020060048036038101906101fb9190611c51565b610c25565b60405161020d9190611d06565b60405180910390f35b610230600480360381019061022b91906119cb565b610cd1565b60405161023d9190611de6565b60405180910390f35b610260600480360381019061025b91906119cb565b610d86565b005b61027c60048036038101906102779190611e34565b610eac565b60405161028a929190611e90565b60405180910390f35b61029b611022565b6040516102a891906120e9565b60405180910390f35b600030858585856040516020016102cc9594939291906121fc565b604051602081830303815290604052805190602001209050949350505050565b838360006001826040516103009190612262565b90815260200160405180910390209050600115158160030160008573ffffffffffffffffffffffffffffffffffffffff1673ffffffffffffffffffffffffffffffffffffffff16815260200190815260200160002060009054906101000a900460ff161515146103a5576040517f08c379a000000000000000000000000000000000000000000000000000000000815260040161039c906122eb565b60405180910390fd5b8560006001826040516103b89190612262565b90815260200160405180910390209050600115158160060160009054906101000a900460ff16151514610420576040517f08c379a000000000000000000000000000000000000000000000000000000000815260040161041790612357565b60405180910390fd5b600061042e8a8a8a426102b1565b9050600061043c8289611222565b9050600073ffffffffffffffffffffffffffffffffffffffff168173ffffffffffffffffffffffffffffffffffffffff16141561047857600080fd5b600260008273ffffffffffffffffffffffffffffffffffffffff1673ffffffffffffffffffffffffffffffffffffffff1681526020019081526020016000205489146104c357600080fd5b600260008273ffffffffffffffffffffffffffffffffffffffff1673ffffffffffffffffffffffffffffffffffffffff1681526020019081526020016000206000815480929190610513906123a6565b9190505550600060018b60405161052a9190612262565b90815260200160405180910390209050600015158160040160008473ffffffffffffffffffffffffffffffffffffffff1673ffffffffffffffffffffffffffffffffffffffff16815260200190815260200160002060009054906101000a900460ff161515146105cf576040517f08c379a00000000000000000000000000000000000000000000000000000000081526004016105c69061243b565b60405180910390fd5b6105da8c8c8461131b565b507ff3f16a15f074b71c5138107dfc7c63b80524d5411cb967caa97d8d9f12b2fd6b8c600160405161060d92919061245b565b60405180910390a1505050505050505050505050565b6060600080600060018560405161063a9190612262565b90815260200160405180910390209050600073ffffffffffffffffffffffffffffffffffffffff168160000160009054906101000a900473ffffffffffffffffffffffffffffffffffffffff1673ffffffffffffffffffffffffffffffffffffffff1614156106de576040517f08c379a00000000000000000000000000000000000000000000000000000000081526004016106d5906124d0565b60405180910390fd5b806001018054905067ffffffffffffffff8111156106ff576106fe611673565b5b60405190808252806020026020018201604052801561072d5781602001602082028036833780820191505090505b50935060008060005b83600101805490508111610856576000610750898361143b565b9050838111156107a157809350846001018281548110610773576107726124f0565b5b9060005260206000200160009054906101000a900473ffffffffffffffffffffffffffffffffffffffff1692505b8460050160008660010184815481106107bd576107bc6124f0565b5b9060005260206000200160009054906101000a900473ffffffffffffffffffffffffffffffffffffffff1673ffffffffffffffffffffffffffffffffffffffff1673ffffffffffffffffffffffffffffffffffffffff16815260200190815260200160002054888381518110610836576108356124f0565b5b60200260200101818152505050808061084e906123a6565b915050610736565b508581839550955095505050509193909250565b600060018260405161087c9190612262565b90815260200160405180910390209050600073ffffffffffffffffffffffffffffffffffffffff168160000160009054906101000a900473ffffffffffffffffffffffffffffffffffffffff1673ffffffffffffffffffffffffffffffffffffffff161415610920576040517f08c379a00000000000000000000000000000000000000000000000000000000081526004016109179061256b565b60405180910390fd5b3373ffffffffffffffffffffffffffffffffffffffff168160000160009054906101000a900473ffffffffffffffffffffffffffffffffffffffff1673ffffffffffffffffffffffffffffffffffffffff16146109805761097f61258b565b5b8060020160009054906101000a900463ffffffff1663ffffffff168160020160049054906101000a900463ffffffff1663ffffffff16106109f6576040517f08c379a00000000000000000000000000000000000000000000000000000000081526004016109ed9061262c565b60405180910390fd5b60018160030160008573ffffffffffffffffffffffffffffffffffffffff1673ffffffffffffffffffffffffffffffffffffffff16815260200190815260200160002060006101000a81548160ff02191690831515021790555080600101839080600181540180825580915050600190039060005260206000200160009091909190916101000a81548173ffffffffffffffffffffffffffffffffffffffff021916908373ffffffffffffffffffffffffffffffffffffffff16021790555080600201600481819054906101000a900463ffffffff1680929190610ad99061264c565b91906101000a81548163ffffffff021916908363ffffffff160217905550507fc19c59aa93348e8fc54764bc642eca975e2639f44cc683ef8f027e1529cbda3283604051610b279190612679565b60405180910390a1505050565b6001818051602081018201805184825260208301602085012081835280955050505050506000915090508060000160009054906101000a900473ffffffffffffffffffffffffffffffffffffffff16908060020160009054906101000a900463ffffffff16908060020160049054906101000a900463ffffffff16908060060160009054906101000a900460ff16905084565b60026020528060005260406000206000915090505481565b600080600183604051610bf29190612262565b908152602001604051809103902090508060020160049054906101000a900463ffffffff1663ffffffff16915050919050565b60008181548110610c3557600080fd5b906000526020600020016000915090508054610c50906126c3565b80601f0160208091040260200160405190810160405280929190818152602001828054610c7c906126c3565b8015610cc95780601f10610c9e57610100808354040283529160200191610cc9565b820191906000526020600020905b815481529060010190602001808311610cac57829003601f168201915b505050505081565b60606000600183604051610ce59190612262565b9081526020016040518091039020905080600101805480602002602001604051908101604052809291908181526020018280548015610d7957602002820191906000526020600020905b8160009054906101000a900473ffffffffffffffffffffffffffffffffffffffff1673ffffffffffffffffffffffffffffffffffffffff1681526020019060010190808311610d2f575b5050505050915050919050565b6000600182604051610d989190612262565b908152602001604051809103902090503373ffffffffffffffffffffffffffffffffffffffff168160000160009054906101000a900473ffffffffffffffffffffffffffffffffffffffff1673ffffffffffffffffffffffffffffffffffffffff1614610e3a576040517f08c379a0000000000000000000000000000000000000000000000000000000008152600401610e3190612741565b60405180910390fd5b8060060160009054906101000a900460ff16158160060160006101000a81548160ff0219169083151502179055508060060160009054906101000a900460ff1615157f7b224db641892626dca6975b376f464e9ac52ccfa180436175170c009b94dcd760405160405180910390a25050565b6060600080600185604051610ec19190612262565b90815260200160405180910390209050338160000160006101000a81548173ffffffffffffffffffffffffffffffffffffffff021916908373ffffffffffffffffffffffffffffffffffffffff160217905550838160020160006101000a81548163ffffffff021916908363ffffffff160217905550600085908060018154018082558091505060019003906000526020600020016000909190919091509080519060200190610f729291906114e9565b508060000160009054906101000a900473ffffffffffffffffffffffffffffffffffffffff1673ffffffffffffffffffffffffffffffffffffffff168160020160009054906101000a900463ffffffff1663ffffffff1686604051610fd79190612262565b60405180910390207f4b35e5cf01446aa899a8d21082ebf23b7497d38f2466ad49836bd1006a8d059e60405160405180910390a484848063ffffffff16905092509250509250929050565b606060008054905067ffffffffffffffff81111561104357611042611673565b5b60405190808252806020026020018201604052801561107c57816020015b61106961156f565b8152602001906001900390816110615790505b50905060005b600080549050811161121e5760006001600083815481106110a6576110a56124f0565b5b906000526020600020016040516110bd91906127f5565b908152602001604051809103902090508060000160009054906101000a900473ffffffffffffffffffffffffffffffffffffffff16838381518110611105576111046124f0565b5b60200260200101516020019073ffffffffffffffffffffffffffffffffffffffff16908173ffffffffffffffffffffffffffffffffffffffff16815250508060020160009054906101000a900463ffffffff1683838151811061116b5761116a6124f0565b5b60200260200101516060019063ffffffff16908163ffffffff16815250508060020160049054906101000a900463ffffffff168383815181106111b1576111b06124f0565b5b60200260200101516080019063ffffffff16908163ffffffff16815250508060060160009054906101000a900460ff168383815181106111f4576111f36124f0565b5b602002602001015160a0019015159081151581525050508080611216906123a6565b915050611082565b5090565b600080600080604185511461123d5760009350505050611315565b6020850151925060408501519150606085015160001a9050601b8160ff16101561127157601b8161126e9190612819565b90505b601b8160ff16141580156112895750601c8160ff1614155b1561129a5760009350505050611315565b6001866040516020016112ad91906128bd565b60405160208183030381529060405280519060200120828585604051600081526020016040526040516112e394939291906128f2565b6020604051602081039080840390855afa158015611305573d6000803e3d6000fd5b5050506020604051035193505050505b92915050565b60008060018460405161132e9190612262565b9081526020016040518091039020905060018160040160008573ffffffffffffffffffffffffffffffffffffffff1673ffffffffffffffffffffffffffffffffffffffff16815260200190815260200160002060006101000a81548160ff0219169083151502179055508060050160008673ffffffffffffffffffffffffffffffffffffffff1673ffffffffffffffffffffffffffffffffffffffff16815260200190815260200160002060008154809291906113ea906123a6565b91905055508060050160008673ffffffffffffffffffffffffffffffffffffffff1673ffffffffffffffffffffffffffffffffffffffff168152602001908152602001600020549150509392505050565b60008060018460405161144e9190612262565b9081526020016040518091039020905080600501600082600101858154811061147a576114796124f0565b5b9060005260206000200160009054906101000a900473ffffffffffffffffffffffffffffffffffffffff1673ffffffffffffffffffffffffffffffffffffffff1673ffffffffffffffffffffffffffffffffffffffff1681526020019081526020016000205491505092915050565b8280546114f5906126c3565b90600052602060002090601f016020900481019282611517576000855561155e565b82601f1061153057805160ff191683800117855561155e565b8280016001018555821561155e579182015b8281111561155d578251825591602001919060010190611542565b5b50905061156b91906115c9565b5090565b6040518060c0016040528060608152602001600073ffffffffffffffffffffffffffffffffffffffff16815260200160608152602001600063ffffffff168152602001600063ffffffff1681526020016000151581525090565b5b808211156115e25760008160009055506001016115ca565b5090565b6000604051905090565b600080fd5b600080fd5b600073ffffffffffffffffffffffffffffffffffffffff82169050919050565b6000611625826115fa565b9050919050565b6116358161161a565b811461164057600080fd5b50565b6000813590506116528161162c565b92915050565b600080fd5b600080fd5b6000601f19601f8301169050919050565b7f4e487b7100000000000000000000000000000000000000000000000000000000600052604160045260246000fd5b6116ab82611662565b810181811067ffffffffffffffff821117156116ca576116c9611673565b5b80604052505050565b60006116dd6115e6565b90506116e982826116a2565b919050565b600067ffffffffffffffff82111561170957611708611673565b5b61171282611662565b9050602081019050919050565b82818337600083830152505050565b600061174161173c846116ee565b6116d3565b90508281526020810184848401111561175d5761175c61165d565b5b61176884828561171f565b509392505050565b600082601f83011261178557611784611658565b5b813561179584826020860161172e565b91505092915050565b6000819050919050565b6117b18161179e565b81146117bc57600080fd5b50565b6000813590506117ce816117a8565b92915050565b600080600080608085870312156117ee576117ed6115f0565b5b60006117fc87828801611643565b945050602085013567ffffffffffffffff81111561181d5761181c6115f5565b5b61182987828801611770565b935050604061183a878288016117bf565b925050606061184b878288016117bf565b91505092959194509250565b6000819050919050565b61186a81611857565b82525050565b60006020820190506118856000830184611861565b92915050565b600067ffffffffffffffff8211156118a6576118a5611673565b5b6118af82611662565b9050602081019050919050565b60006118cf6118ca8461188b565b6116d3565b9050828152602081018484840111156118eb576118ea61165d565b5b6118f684828561171f565b509392505050565b600082601f83011261191357611912611658565b5b81356119238482602086016118bc565b91505092915050565b60008060008060808587031215611946576119456115f0565b5b600061195487828801611643565b945050602085013567ffffffffffffffff811115611975576119746115f5565b5b61198187828801611770565b9350506040611992878288016117bf565b925050606085013567ffffffffffffffff8111156119b3576119b26115f5565b5b6119bf878288016118fe565b91505092959194509250565b6000602082840312156119e1576119e06115f0565b5b600082013567ffffffffffffffff8111156119ff576119fe6115f5565b5b611a0b84828501611770565b91505092915050565b600081519050919050565b600082825260208201905092915050565b6000819050602082019050919050565b611a498161179e565b82525050565b6000611a5b8383611a40565b60208301905092915050565b6000602082019050919050565b6000611a7f82611a14565b611a898185611a1f565b9350611a9483611a30565b8060005b83811015611ac5578151611aac8882611a4f565b9750611ab783611a67565b925050600181019050611a98565b5085935050505092915050565b611adb8161161a565b82525050565b611aea8161179e565b82525050565b60006060820190508181036000830152611b0a8186611a74565b9050611b196020830185611ad2565b611b266040830184611ae1565b949350505050565b60008060408385031215611b4557611b446115f0565b5b6000611b5385828601611643565b925050602083013567ffffffffffffffff811115611b7457611b736115f5565b5b611b8085828601611770565b9150509250929050565b600063ffffffff82169050919050565b611ba381611b8a565b82525050565b60008115159050919050565b611bbe81611ba9565b82525050565b6000608082019050611bd96000830187611ad2565b611be66020830186611b9a565b611bf36040830185611b9a565b611c006060830184611bb5565b95945050505050565b600060208284031215611c1f57611c1e6115f0565b5b6000611c2d84828501611643565b91505092915050565b6000602082019050611c4b6000830184611ae1565b92915050565b600060208284031215611c6757611c666115f0565b5b6000611c75848285016117bf565b91505092915050565b600081519050919050565b600082825260208201905092915050565b60005b83811015611cb8578082015181840152602081019050611c9d565b83811115611cc7576000848401525b50505050565b6000611cd882611c7e565b611ce28185611c89565b9350611cf2818560208601611c9a565b611cfb81611662565b840191505092915050565b60006020820190508181036000830152611d208184611ccd565b905092915050565b600081519050919050565b600082825260208201905092915050565b6000819050602082019050919050565b611d5d8161161a565b82525050565b6000611d6f8383611d54565b60208301905092915050565b6000602082019050919050565b6000611d9382611d28565b611d9d8185611d33565b9350611da883611d44565b8060005b83811015611dd9578151611dc08882611d63565b9750611dcb83611d7b565b925050600181019050611dac565b5085935050505092915050565b60006020820190508181036000830152611e008184611d88565b905092915050565b611e1181611b8a565b8114611e1c57600080fd5b50565b600081359050611e2e81611e08565b92915050565b60008060408385031215611e4b57611e4a6115f0565b5b600083013567ffffffffffffffff811115611e6957611e686115f5565b5b611e7585828601611770565b9250506020611e8685828601611e1f565b9150509250929050565b60006040820190508181036000830152611eaa8185611ccd565b9050611eb96020830184611ae1565b9392505050565b600081519050919050565b600082825260208201905092915050565b6000819050602082019050919050565b600082825260208201905092915050565b6000611f0882611c7e565b611f128185611eec565b9350611f22818560208601611c9a565b611f2b81611662565b840191505092915050565b600082825260208201905092915050565b6000611f5282611d28565b611f5c8185611f36565b9350611f6783611d44565b8060005b83811015611f98578151611f7f8882611d63565b9750611f8a83611d7b565b925050600181019050611f6b565b5085935050505092915050565b611fae81611b8a565b82525050565b611fbd81611ba9565b82525050565b600060c0830160008301518482036000860152611fe08282611efd565b9150506020830151611ff56020860182611d54565b506040830151848203604086015261200d8282611f47565b91505060608301516120226060860182611fa5565b5060808301516120356080860182611fa5565b5060a083015161204860a0860182611fb4565b508091505092915050565b600061205f8383611fc3565b905092915050565b6000602082019050919050565b600061207f82611ec0565b6120898185611ecb565b93508360208202850161209b85611edc565b8060005b858110156120d757848403895281516120b88582612053565b94506120c383612067565b925060208a0199505060018101905061209f565b50829750879550505050505092915050565b600060208201905081810360008301526121038184612074565b905092915050565b60008160601b9050919050565b60006121238261210b565b9050919050565b600061213582612118565b9050919050565b61214d6121488261161a565b61212a565b82525050565b600081905092915050565b7f6d6574617472616e73616374696f6e20566f74696e6720000000000000000000600082015250565b6000612194601783612153565b915061219f8261215e565b601782019050919050565b60006121b582611c7e565b6121bf8185612153565b93506121cf818560208601611c9a565b80840191505092915050565b6000819050919050565b6121f66121f18261179e565b6121db565b82525050565b6000612208828861213c565b60148201915061221782612187565b9150612223828761213c565b60148201915061223382866121aa565b915061223f82856121e5565b60208201915061224f82846121e5565b6020820191508190509695505050505050565b600061226e82846121aa565b915081905092915050565b7f54686973206164647265737320646f6573206e6f74206578697374206173206160008201527f2063616e64696461746500000000000000000000000000000000000000000000602082015250565b60006122d5602a83611c89565b91506122e082612279565b604082019050919050565b60006020820190508181036000830152612304816122c8565b9050919050565b7f766f74696e672068617320656e64656400000000000000000000000000000000600082015250565b6000612341601083611c89565b915061234c8261230b565b602082019050919050565b6000602082019050818103600083015261237081612334565b9050919050565b7f4e487b7100000000000000000000000000000000000000000000000000000000600052601160045260246000fd5b60006123b18261179e565b91507fffffffffffffffffffffffffffffffffffffffffffffffffffffffffffffffff8214156123e4576123e3612377565b5b600182019050919050565b7f596f7520616c726561647920766f746564000000000000000000000000000000600082015250565b6000612425601183611c89565b9150612430826123ef565b602082019050919050565b6000602082019050818103600083015261245481612418565b9050919050565b60006040820190506124706000830185611ad2565b61247d6020830184611bb5565b9392505050565b7f4e6f20706f6c6c20637265617465640000000000000000000000000000000000600082015250565b60006124ba600f83611c89565b91506124c582612484565b602082019050919050565b600060208201905081810360008301526124e9816124ad565b9050919050565b7f4e487b7100000000000000000000000000000000000000000000000000000000600052603260045260246000fd5b7f79657420746f20637265617465206120706f6c6c000000000000000000000000600082015250565b6000612555601483611c89565b91506125608261251f565b602082019050919050565b6000602082019050818103600083015261258481612548565b9050919050565b7f4e487b7100000000000000000000000000000000000000000000000000000000600052600160045260246000fd5b7f6d6178696d756d206e6f206f662063616e64696461746520706572207365737360008201527f696f6e2072656769737465726564000000000000000000000000000000000000602082015250565b6000612616602e83611c89565b9150612621826125ba565b604082019050919050565b6000602082019050818103600083015261264581612609565b9050919050565b600061265782611b8a565b915063ffffffff82141561266e5761266d612377565b5b600182019050919050565b600060208201905061268e6000830184611ad2565b92915050565b7f4e487b7100000000000000000000000000000000000000000000000000000000600052602260045260246000fd5b600060028204905060018216806126db57607f821691505b602082108114156126ef576126ee612694565b5b50919050565b7f6e6f74207468652063686169726d616e00000000000000000000000000000000600082015250565b600061272b601083611c89565b9150612736826126f5565b602082019050919050565b6000602082019050818103600083015261275a8161271e565b9050919050565b60008190508160005260206000209050919050565b60008154612783816126c3565b61278d8186612153565b945060018216600081146127a857600181146127b9576127ec565b60ff198316865281860193506127ec565b6127c285612761565b60005b838110156127e4578154818901526001820191506020810190506127c5565b838801955050505b50505092915050565b60006128018284612776565b915081905092915050565b600060ff82169050919050565b60006128248261280c565b915061282f8361280c565b92508260ff0382111561284557612844612377565b5b828201905092915050565b7f19457468657265756d205369676e6564204d6573736167653a0a333200000000600082015250565b6000612886601c83612153565b915061289182612850565b601c82019050919050565b6000819050919050565b6128b76128b282611857565b61289c565b82525050565b60006128c882612879565b91506128d482846128a6565b60208201915081905092915050565b6128ec8161280c565b82525050565b60006080820190506129076000830187611861565b61291460208301866128e3565b6129216040830185611861565b61292e6060830184611861565b9594505050505056fea264697066735822122088102cd58ea0d62541200a089b01269215c6bbf6a658fe17c899620cd8b0142d64736f6c634300080a0033",
					"opcodes": "PUSH1 0x80 PUSH1 0x40 MSTORE CALLVALUE DUP1 ISZERO PUSH2 0x10 JUMPI PUSH1 0x0 DUP1 REVERT JUMPDEST POP PUSH2 0x296D DUP1 PUSH2 0x20 PUSH1 0x0 CODECOPY PUSH1 0x0 RETURN INVALID PUSH1 0x80 PUSH1 0x40 MSTORE CALLVALUE DUP1 ISZERO PUSH2 0x10 JUMPI PUSH1 0x0 DUP1 REVERT JUMPDEST POP PUSH1 0x4 CALLDATASIZE LT PUSH2 0xB4 JUMPI PUSH1 0x0 CALLDATALOAD PUSH1 0xE0 SHR DUP1 PUSH4 0x8579CACD GT PUSH2 0x71 JUMPI DUP1 PUSH4 0x8579CACD EQ PUSH2 0x1B6 JUMPI DUP1 PUSH4 0xAE928E3E EQ PUSH2 0x1E6 JUMPI DUP1 PUSH4 0xAF7CBC0D EQ PUSH2 0x216 JUMPI DUP1 PUSH4 0xF0E4DE22 EQ PUSH2 0x246 JUMPI DUP1 PUSH4 0xF762F4C0 EQ PUSH2 0x262 JUMPI DUP1 PUSH4 0xF8437061 EQ PUSH2 0x293 JUMPI PUSH2 0xB4 JUMP JUMPDEST DUP1 PUSH4 0x1FF993B EQ PUSH2 0xB9 JUMPI DUP1 PUSH4 0x12F0DA4B EQ PUSH2 0xE9 JUMPI DUP1 PUSH4 0x4FCF1F39 EQ PUSH2 0x105 JUMPI DUP1 PUSH4 0x57F53967 EQ PUSH2 0x137 JUMPI DUP1 PUSH4 0x63EE965A EQ PUSH2 0x153 JUMPI DUP1 PUSH4 0x67D407DF EQ PUSH2 0x186 JUMPI JUMPDEST PUSH1 0x0 DUP1 REVERT JUMPDEST PUSH2 0xD3 PUSH1 0x4 DUP1 CALLDATASIZE SUB DUP2 ADD SWAP1 PUSH2 0xCE SWAP2 SWAP1 PUSH2 0x17D4 JUMP JUMPDEST PUSH2 0x2B1 JUMP JUMPDEST PUSH1 0x40 MLOAD PUSH2 0xE0 SWAP2 SWAP1 PUSH2 0x1870 JUMP JUMPDEST PUSH1 0x40 MLOAD DUP1 SWAP2 SUB SWAP1 RETURN JUMPDEST PUSH2 0x103 PUSH1 0x4 DUP1 CALLDATASIZE SUB DUP2 ADD SWAP1 PUSH2 0xFE SWAP2 SWAP1 PUSH2 0x192C JUMP JUMPDEST PUSH2 0x2EC JUMP JUMPDEST STOP JUMPDEST PUSH2 0x11F PUSH1 0x4 DUP1 CALLDATASIZE SUB DUP2 ADD SWAP1 PUSH2 0x11A SWAP2 SWAP1 PUSH2 0x19CB JUMP JUMPDEST PUSH2 0x623 JUMP JUMPDEST PUSH1 0x40 MLOAD PUSH2 0x12E SWAP4 SWAP3 SWAP2 SWAP1 PUSH2 0x1AF0 JUMP JUMPDEST PUSH1 0x40 MLOAD DUP1 SWAP2 SUB SWAP1 RETURN JUMPDEST PUSH2 0x151 PUSH1 0x4 DUP1 CALLDATASIZE SUB DUP2 ADD SWAP1 PUSH2 0x14C SWAP2 SWAP1 PUSH2 0x1B2E JUMP JUMPDEST PUSH2 0x86A JUMP JUMPDEST STOP JUMPDEST PUSH2 0x16D PUSH1 0x4 DUP1 CALLDATASIZE SUB DUP2 ADD SWAP1 PUSH2 0x168 SWAP2 SWAP1 PUSH2 0x19CB JUMP JUMPDEST PUSH2 0xB34 JUMP JUMPDEST PUSH1 0x40 MLOAD PUSH2 0x17D SWAP5 SWAP4 SWAP3 SWAP2 SWAP1 PUSH2 0x1BC4 JUMP JUMPDEST PUSH1 0x40 MLOAD DUP1 SWAP2 SUB SWAP1 RETURN JUMPDEST PUSH2 0x1A0 PUSH1 0x4 DUP1 CALLDATASIZE SUB DUP2 ADD SWAP1 PUSH2 0x19B SWAP2 SWAP1 PUSH2 0x1C09 JUMP JUMPDEST PUSH2 0xBC7 JUMP JUMPDEST PUSH1 0x40 MLOAD PUSH2 0x1AD SWAP2 SWAP1 PUSH2 0x1C36 JUMP JUMPDEST PUSH1 0x40 MLOAD DUP1 SWAP2 SUB SWAP1 RETURN JUMPDEST PUSH2 0x1D0 PUSH1 0x4 DUP1 CALLDATASIZE SUB DUP2 ADD SWAP1 PUSH2 0x1CB SWAP2 SWAP1 PUSH2 0x19CB JUMP JUMPDEST PUSH2 0xBDF JUMP JUMPDEST PUSH1 0x40 MLOAD PUSH2 0x1DD SWAP2 SWAP1 PUSH2 0x1C36 JUMP JUMPDEST PUSH1 0x40 MLOAD DUP1 SWAP2 SUB SWAP1 RETURN JUMPDEST PUSH2 0x200 PUSH1 0x4 DUP1 CALLDATASIZE SUB DUP2 ADD SWAP1 PUSH2 0x1FB SWAP2 SWAP1 PUSH2 0x1C51 JUMP JUMPDEST PUSH2 0xC25 JUMP JUMPDEST PUSH1 0x40 MLOAD PUSH2 0x20D SWAP2 SWAP1 PUSH2 0x1D06 JUMP JUMPDEST PUSH1 0x40 MLOAD DUP1 SWAP2 SUB SWAP1 RETURN JUMPDEST PUSH2 0x230 PUSH1 0x4 DUP1 CALLDATASIZE SUB DUP2 ADD SWAP1 PUSH2 0x22B SWAP2 SWAP1 PUSH2 0x19CB JUMP JUMPDEST PUSH2 0xCD1 JUMP JUMPDEST PUSH1 0x40 MLOAD PUSH2 0x23D SWAP2 SWAP1 PUSH2 0x1DE6 JUMP JUMPDEST PUSH1 0x40 MLOAD DUP1 SWAP2 SUB SWAP1 RETURN JUMPDEST PUSH2 0x260 PUSH1 0x4 DUP1 CALLDATASIZE SUB DUP2 ADD SWAP1 PUSH2 0x25B SWAP2 SWAP1 PUSH2 0x19CB JUMP JUMPDEST PUSH2 0xD86 JUMP JUMPDEST STOP JUMPDEST PUSH2 0x27C PUSH1 0x4 DUP1 CALLDATASIZE SUB DUP2 ADD SWAP1 PUSH2 0x277 SWAP2 SWAP1 PUSH2 0x1E34 JUMP JUMPDEST PUSH2 0xEAC JUMP JUMPDEST PUSH1 0x40 MLOAD PUSH2 0x28A SWAP3 SWAP2 SWAP1 PUSH2 0x1E90 JUMP JUMPDEST PUSH1 0x40 MLOAD DUP1 SWAP2 SUB SWAP1 RETURN JUMPDEST PUSH2 0x29B PUSH2 0x1022 JUMP JUMPDEST PUSH1 0x40 MLOAD PUSH2 0x2A8 SWAP2 SWAP1 PUSH2 0x20E9 JUMP JUMPDEST PUSH1 0x40 MLOAD DUP1 SWAP2 SUB SWAP1 RETURN JUMPDEST PUSH1 0x0 ADDRESS DUP6 DUP6 DUP6 DUP6 PUSH1 0x40 MLOAD PUSH1 0x20 ADD PUSH2 0x2CC SWAP6 SWAP5 SWAP4 SWAP3 SWAP2 SWAP1 PUSH2 0x21FC JUMP JUMPDEST PUSH1 0x40 MLOAD PUSH1 0x20 DUP2 DUP4 SUB SUB DUP2 MSTORE SWAP1 PUSH1 0x40 MSTORE DUP1 MLOAD SWAP1 PUSH1 0x20 ADD KECCAK256 SWAP1 POP SWAP5 SWAP4 POP POP POP POP JUMP JUMPDEST DUP4 DUP4 PUSH1 0x0 PUSH1 0x1 DUP3 PUSH1 0x40 MLOAD PUSH2 0x300 SWAP2 SWAP1 PUSH2 0x2262 JUMP JUMPDEST SWAP1 DUP2 MSTORE PUSH1 0x20 ADD PUSH1 0x40 MLOAD DUP1 SWAP2 SUB SWAP1 KECCAK256 SWAP1 POP PUSH1 0x1 ISZERO ISZERO DUP2 PUSH1 0x3 ADD PUSH1 0x0 DUP6 PUSH20 0xFFFFFFFFFFFFFFFFFFFFFFFFFFFFFFFFFFFFFFFF AND PUSH20 0xFFFFFFFFFFFFFFFFFFFFFFFFFFFFFFFFFFFFFFFF AND DUP2 MSTORE PUSH1 0x20 ADD SWAP1 DUP2 MSTORE PUSH1 0x20 ADD PUSH1 0x0 KECCAK256 PUSH1 0x0 SWAP1 SLOAD SWAP1 PUSH2 0x100 EXP SWAP1 DIV PUSH1 0xFF AND ISZERO ISZERO EQ PUSH2 0x3A5 JUMPI PUSH1 0x40 MLOAD PUSH32 0x8C379A000000000000000000000000000000000000000000000000000000000 DUP2 MSTORE PUSH1 0x4 ADD PUSH2 0x39C SWAP1 PUSH2 0x22EB JUMP JUMPDEST PUSH1 0x40 MLOAD DUP1 SWAP2 SUB SWAP1 REVERT JUMPDEST DUP6 PUSH1 0x0 PUSH1 0x1 DUP3 PUSH1 0x40 MLOAD PUSH2 0x3B8 SWAP2 SWAP1 PUSH2 0x2262 JUMP JUMPDEST SWAP1 DUP2 MSTORE PUSH1 0x20 ADD PUSH1 0x40 MLOAD DUP1 SWAP2 SUB SWAP1 KECCAK256 SWAP1 POP PUSH1 0x1 ISZERO ISZERO DUP2 PUSH1 0x6 ADD PUSH1 0x0 SWAP1 SLOAD SWAP1 PUSH2 0x100 EXP SWAP1 DIV PUSH1 0xFF AND ISZERO ISZERO EQ PUSH2 0x420 JUMPI PUSH1 0x40 MLOAD PUSH32 0x8C379A000000000000000000000000000000000000000000000000000000000 DUP2 MSTORE PUSH1 0x4 ADD PUSH2 0x417 SWAP1 PUSH2 0x2357 JUMP JUMPDEST PUSH1 0x40 MLOAD DUP1 SWAP2 SUB SWAP1 REVERT JUMPDEST PUSH1 0x0 PUSH2 0x42E DUP11 DUP11 DUP11 TIMESTAMP PUSH2 0x2B1 JUMP JUMPDEST SWAP1 POP PUSH1 0x0 PUSH2 0x43C DUP3 DUP10 PUSH2 0x1222 JUMP JUMPDEST SWAP1 POP PUSH1 0x0 PUSH20 0xFFFFFFFFFFFFFFFFFFFFFFFFFFFFFFFFFFFFFFFF AND DUP2 PUSH20 0xFFFFFFFFFFFFFFFFFFFFFFFFFFFFFFFFFFFFFFFF AND EQ ISZERO PUSH2 0x478 JUMPI PUSH1 0x0 DUP1 REVERT JUMPDEST PUSH1 0x2 PUSH1 0x0 DUP3 PUSH20 0xFFFFFFFFFFFFFFFFFFFFFFFFFFFFFFFFFFFFFFFF AND PUSH20 0xFFFFFFFFFFFFFFFFFFFFFFFFFFFFFFFFFFFFFFFF AND DUP2 MSTORE PUSH1 0x20 ADD SWAP1 DUP2 MSTORE PUSH1 0x20 ADD PUSH1 0x0 KECCAK256 SLOAD DUP10 EQ PUSH2 0x4C3 JUMPI PUSH1 0x0 DUP1 REVERT JUMPDEST PUSH1 0x2 PUSH1 0x0 DUP3 PUSH20 0xFFFFFFFFFFFFFFFFFFFFFFFFFFFFFFFFFFFFFFFF AND PUSH20 0xFFFFFFFFFFFFFFFFFFFFFFFFFFFFFFFFFFFFFFFF AND DUP2 MSTORE PUSH1 0x20 ADD SWAP1 DUP2 MSTORE PUSH1 0x20 ADD PUSH1 0x0 KECCAK256 PUSH1 0x0 DUP2 SLOAD DUP1 SWAP3 SWAP2 SWAP1 PUSH2 0x513 SWAP1 PUSH2 0x23A6 JUMP JUMPDEST SWAP2 SWAP1 POP SSTORE POP PUSH1 0x0 PUSH1 0x1 DUP12 PUSH1 0x40 MLOAD PUSH2 0x52A SWAP2 SWAP1 PUSH2 0x2262 JUMP JUMPDEST SWAP1 DUP2 MSTORE PUSH1 0x20 ADD PUSH1 0x40 MLOAD DUP1 SWAP2 SUB SWAP1 KECCAK256 SWAP1 POP PUSH1 0x0 ISZERO ISZERO DUP2 PUSH1 0x4 ADD PUSH1 0x0 DUP5 PUSH20 0xFFFFFFFFFFFFFFFFFFFFFFFFFFFFFFFFFFFFFFFF AND PUSH20 0xFFFFFFFFFFFFFFFFFFFFFFFFFFFFFFFFFFFFFFFF AND DUP2 MSTORE PUSH1 0x20 ADD SWAP1 DUP2 MSTORE PUSH1 0x20 ADD PUSH1 0x0 KECCAK256 PUSH1 0x0 SWAP1 SLOAD SWAP1 PUSH2 0x100 EXP SWAP1 DIV PUSH1 0xFF AND ISZERO ISZERO EQ PUSH2 0x5CF JUMPI PUSH1 0x40 MLOAD PUSH32 0x8C379A000000000000000000000000000000000000000000000000000000000 DUP2 MSTORE PUSH1 0x4 ADD PUSH2 0x5C6 SWAP1 PUSH2 0x243B JUMP JUMPDEST PUSH1 0x40 MLOAD DUP1 SWAP2 SUB SWAP1 REVERT JUMPDEST PUSH2 0x5DA DUP13 DUP13 DUP5 PUSH2 0x131B JUMP JUMPDEST POP PUSH32 0xF3F16A15F074B71C5138107DFC7C63B80524D5411CB967CAA97D8D9F12B2FD6B DUP13 PUSH1 0x1 PUSH1 0x40 MLOAD PUSH2 0x60D SWAP3 SWAP2 SWAP1 PUSH2 0x245B JUMP JUMPDEST PUSH1 0x40 MLOAD DUP1 SWAP2 SUB SWAP1 LOG1 POP POP POP POP POP POP POP POP POP POP POP POP JUMP JUMPDEST PUSH1 0x60 PUSH1 0x0 DUP1 PUSH1 0x0 PUSH1 0x1 DUP6 PUSH1 0x40 MLOAD PUSH2 0x63A SWAP2 SWAP1 PUSH2 0x2262 JUMP JUMPDEST SWAP1 DUP2 MSTORE PUSH1 0x20 ADD PUSH1 0x40 MLOAD DUP1 SWAP2 SUB SWAP1 KECCAK256 SWAP1 POP PUSH1 0x0 PUSH20 0xFFFFFFFFFFFFFFFFFFFFFFFFFFFFFFFFFFFFFFFF AND DUP2 PUSH1 0x0 ADD PUSH1 0x0 SWAP1 SLOAD SWAP1 PUSH2 0x100 EXP SWAP1 DIV PUSH20 0xFFFFFFFFFFFFFFFFFFFFFFFFFFFFFFFFFFFFFFFF AND PUSH20 0xFFFFFFFFFFFFFFFFFFFFFFFFFFFFFFFFFFFFFFFF AND EQ ISZERO PUSH2 0x6DE JUMPI PUSH1 0x40 MLOAD PUSH32 0x8C379A000000000000000000000000000000000000000000000000000000000 DUP2 MSTORE PUSH1 0x4 ADD PUSH2 0x6D5 SWAP1 PUSH2 0x24D0 JUMP JUMPDEST PUSH1 0x40 MLOAD DUP1 SWAP2 SUB SWAP1 REVERT JUMPDEST DUP1 PUSH1 0x1 ADD DUP1 SLOAD SWAP1 POP PUSH8 0xFFFFFFFFFFFFFFFF DUP2 GT ISZERO PUSH2 0x6FF JUMPI PUSH2 0x6FE PUSH2 0x1673 JUMP JUMPDEST JUMPDEST PUSH1 0x40 MLOAD SWAP1 DUP1 DUP3 MSTORE DUP1 PUSH1 0x20 MUL PUSH1 0x20 ADD DUP3 ADD PUSH1 0x40 MSTORE DUP1 ISZERO PUSH2 0x72D JUMPI DUP2 PUSH1 0x20 ADD PUSH1 0x20 DUP3 MUL DUP1 CALLDATASIZE DUP4 CALLDATACOPY DUP1 DUP3 ADD SWAP2 POP POP SWAP1 POP JUMPDEST POP SWAP4 POP PUSH1 0x0 DUP1 PUSH1 0x0 JUMPDEST DUP4 PUSH1 0x1 ADD DUP1 SLOAD SWAP1 POP DUP2 GT PUSH2 0x856 JUMPI PUSH1 0x0 PUSH2 0x750 DUP10 DUP4 PUSH2 0x143B JUMP JUMPDEST SWAP1 POP DUP4 DUP2 GT ISZERO PUSH2 0x7A1 JUMPI DUP1 SWAP4 POP DUP5 PUSH1 0x1 ADD DUP3 DUP2 SLOAD DUP2 LT PUSH2 0x773 JUMPI PUSH2 0x772 PUSH2 0x24F0 JUMP JUMPDEST JUMPDEST SWAP1 PUSH1 0x0 MSTORE PUSH1 0x20 PUSH1 0x0 KECCAK256 ADD PUSH1 0x0 SWAP1 SLOAD SWAP1 PUSH2 0x100 EXP SWAP1 DIV PUSH20 0xFFFFFFFFFFFFFFFFFFFFFFFFFFFFFFFFFFFFFFFF AND SWAP3 POP JUMPDEST DUP5 PUSH1 0x5 ADD PUSH1 0x0 DUP7 PUSH1 0x1 ADD DUP5 DUP2 SLOAD DUP2 LT PUSH2 0x7BD JUMPI PUSH2 0x7BC PUSH2 0x24F0 JUMP JUMPDEST JUMPDEST SWAP1 PUSH1 0x0 MSTORE PUSH1 0x20 PUSH1 0x0 KECCAK256 ADD PUSH1 0x0 SWAP1 SLOAD SWAP1 PUSH2 0x100 EXP SWAP1 DIV PUSH20 0xFFFFFFFFFFFFFFFFFFFFFFFFFFFFFFFFFFFFFFFF AND PUSH20 0xFFFFFFFFFFFFFFFFFFFFFFFFFFFFFFFFFFFFFFFF AND PUSH20 0xFFFFFFFFFFFFFFFFFFFFFFFFFFFFFFFFFFFFFFFF AND DUP2 MSTORE PUSH1 0x20 ADD SWAP1 DUP2 MSTORE PUSH1 0x20 ADD PUSH1 0x0 KECCAK256 SLOAD DUP9 DUP4 DUP2 MLOAD DUP2 LT PUSH2 0x836 JUMPI PUSH2 0x835 PUSH2 0x24F0 JUMP JUMPDEST JUMPDEST PUSH1 0x20 MUL PUSH1 0x20 ADD ADD DUP2 DUP2 MSTORE POP POP POP DUP1 DUP1 PUSH2 0x84E SWAP1 PUSH2 0x23A6 JUMP JUMPDEST SWAP2 POP POP PUSH2 0x736 JUMP JUMPDEST POP DUP6 DUP2 DUP4 SWAP6 POP SWAP6 POP SWAP6 POP POP POP POP SWAP2 SWAP4 SWAP1 SWAP3 POP JUMP JUMPDEST PUSH1 0x0 PUSH1 0x1 DUP3 PUSH1 0x40 MLOAD PUSH2 0x87C SWAP2 SWAP1 PUSH2 0x2262 JUMP JUMPDEST SWAP1 DUP2 MSTORE PUSH1 0x20 ADD PUSH1 0x40 MLOAD DUP1 SWAP2 SUB SWAP1 KECCAK256 SWAP1 POP PUSH1 0x0 PUSH20 0xFFFFFFFFFFFFFFFFFFFFFFFFFFFFFFFFFFFFFFFF AND DUP2 PUSH1 0x0 ADD PUSH1 0x0 SWAP1 SLOAD SWAP1 PUSH2 0x100 EXP SWAP1 DIV PUSH20 0xFFFFFFFFFFFFFFFFFFFFFFFFFFFFFFFFFFFFFFFF AND PUSH20 0xFFFFFFFFFFFFFFFFFFFFFFFFFFFFFFFFFFFFFFFF AND EQ ISZERO PUSH2 0x920 JUMPI PUSH1 0x40 MLOAD PUSH32 0x8C379A000000000000000000000000000000000000000000000000000000000 DUP2 MSTORE PUSH1 0x4 ADD PUSH2 0x917 SWAP1 PUSH2 0x256B JUMP JUMPDEST PUSH1 0x40 MLOAD DUP1 SWAP2 SUB SWAP1 REVERT JUMPDEST CALLER PUSH20 0xFFFFFFFFFFFFFFFFFFFFFFFFFFFFFFFFFFFFFFFF AND DUP2 PUSH1 0x0 ADD PUSH1 0x0 SWAP1 SLOAD SWAP1 PUSH2 0x100 EXP SWAP1 DIV PUSH20 0xFFFFFFFFFFFFFFFFFFFFFFFFFFFFFFFFFFFFFFFF AND PUSH20 0xFFFFFFFFFFFFFFFFFFFFFFFFFFFFFFFFFFFFFFFF AND EQ PUSH2 0x980 JUMPI PUSH2 0x97F PUSH2 0x258B JUMP JUMPDEST JUMPDEST DUP1 PUSH1 0x2 ADD PUSH1 0x0 SWAP1 SLOAD SWAP1 PUSH2 0x100 EXP SWAP1 DIV PUSH4 0xFFFFFFFF AND PUSH4 0xFFFFFFFF AND DUP2 PUSH1 0x2 ADD PUSH1 0x4 SWAP1 SLOAD SWAP1 PUSH2 0x100 EXP SWAP1 DIV PUSH4 0xFFFFFFFF AND PUSH4 0xFFFFFFFF AND LT PUSH2 0x9F6 JUMPI PUSH1 0x40 MLOAD PUSH32 0x8C379A000000000000000000000000000000000000000000000000000000000 DUP2 MSTORE PUSH1 0x4 ADD PUSH2 0x9ED SWAP1 PUSH2 0x262C JUMP JUMPDEST PUSH1 0x40 MLOAD DUP1 SWAP2 SUB SWAP1 REVERT JUMPDEST PUSH1 0x1 DUP2 PUSH1 0x3 ADD PUSH1 0x0 DUP6 PUSH20 0xFFFFFFFFFFFFFFFFFFFFFFFFFFFFFFFFFFFFFFFF AND PUSH20 0xFFFFFFFFFFFFFFFFFFFFFFFFFFFFFFFFFFFFFFFF AND DUP2 MSTORE PUSH1 0x20 ADD SWAP1 DUP2 MSTORE PUSH1 0x20 ADD PUSH1 0x0 KECCAK256 PUSH1 0x0 PUSH2 0x100 EXP DUP2 SLOAD DUP2 PUSH1 0xFF MUL NOT AND SWAP1 DUP4 ISZERO ISZERO MUL OR SWAP1 SSTORE POP DUP1 PUSH1 0x1 ADD DUP4 SWAP1 DUP1 PUSH1 0x1 DUP2 SLOAD ADD DUP1 DUP3 SSTORE DUP1 SWAP2 POP POP PUSH1 0x1 SWAP1 SUB SWAP1 PUSH1 0x0 MSTORE PUSH1 0x20 PUSH1 0x0 KECCAK256 ADD PUSH1 0x0 SWAP1 SWAP2 SWAP1 SWAP2 SWAP1 SWAP2 PUSH2 0x100 EXP DUP2 SLOAD DUP2 PUSH20 0xFFFFFFFFFFFFFFFFFFFFFFFFFFFFFFFFFFFFFFFF MUL NOT AND SWAP1 DUP4 PUSH20 0xFFFFFFFFFFFFFFFFFFFFFFFFFFFFFFFFFFFFFFFF AND MUL OR SWAP1 SSTORE POP DUP1 PUSH1 0x2 ADD PUSH1 0x4 DUP2 DUP2 SWAP1 SLOAD SWAP1 PUSH2 0x100 EXP SWAP1 DIV PUSH4 0xFFFFFFFF AND DUP1 SWAP3 SWAP2 SWAP1 PUSH2 0xAD9 SWAP1 PUSH2 0x264C JUMP JUMPDEST SWAP2 SWAP1 PUSH2 0x100 EXP DUP2 SLOAD DUP2 PUSH4 0xFFFFFFFF MUL NOT AND SWAP1 DUP4 PUSH4 0xFFFFFFFF AND MUL OR SWAP1 SSTORE POP POP PUSH32 0xC19C59AA93348E8FC54764BC642ECA975E2639F44CC683EF8F027E1529CBDA32 DUP4 PUSH1 0x40 MLOAD PUSH2 0xB27 SWAP2 SWAP1 PUSH2 0x2679 JUMP JUMPDEST PUSH1 0x40 MLOAD DUP1 SWAP2 SUB SWAP1 LOG1 POP POP POP JUMP JUMPDEST PUSH1 0x1 DUP2 DUP1 MLOAD PUSH1 0x20 DUP2 ADD DUP3 ADD DUP1 MLOAD DUP5 DUP3 MSTORE PUSH1 0x20 DUP4 ADD PUSH1 0x20 DUP6 ADD KECCAK256 DUP2 DUP4 MSTORE DUP1 SWAP6 POP POP POP POP POP POP PUSH1 0x0 SWAP2 POP SWAP1 POP DUP1 PUSH1 0x0 ADD PUSH1 0x0 SWAP1 SLOAD SWAP1 PUSH2 0x100 EXP SWAP1 DIV PUSH20 0xFFFFFFFFFFFFFFFFFFFFFFFFFFFFFFFFFFFFFFFF AND SWAP1 DUP1 PUSH1 0x2 ADD PUSH1 0x0 SWAP1 SLOAD SWAP1 PUSH2 0x100 EXP SWAP1 DIV PUSH4 0xFFFFFFFF AND SWAP1 DUP1 PUSH1 0x2 ADD PUSH1 0x4 SWAP1 SLOAD SWAP1 PUSH2 0x100 EXP SWAP1 DIV PUSH4 0xFFFFFFFF AND SWAP1 DUP1 PUSH1 0x6 ADD PUSH1 0x0 SWAP1 SLOAD SWAP1 PUSH2 0x100 EXP SWAP1 DIV PUSH1 0xFF AND SWAP1 POP DUP5 JUMP JUMPDEST PUSH1 0x2 PUSH1 0x20 MSTORE DUP1 PUSH1 0x0 MSTORE PUSH1 0x40 PUSH1 0x0 KECCAK256 PUSH1 0x0 SWAP2 POP SWAP1 POP SLOAD DUP2 JUMP JUMPDEST PUSH1 0x0 DUP1 PUSH1 0x1 DUP4 PUSH1 0x40 MLOAD PUSH2 0xBF2 SWAP2 SWAP1 PUSH2 0x2262 JUMP JUMPDEST SWAP1 DUP2 MSTORE PUSH1 0x20 ADD PUSH1 0x40 MLOAD DUP1 SWAP2 SUB SWAP1 KECCAK256 SWAP1 POP DUP1 PUSH1 0x2 ADD PUSH1 0x4 SWAP1 SLOAD SWAP1 PUSH2 0x100 EXP SWAP1 DIV PUSH4 0xFFFFFFFF AND PUSH4 0xFFFFFFFF AND SWAP2 POP POP SWAP2 SWAP1 POP JUMP JUMPDEST PUSH1 0x0 DUP2 DUP2 SLOAD DUP2 LT PUSH2 0xC35 JUMPI PUSH1 0x0 DUP1 REVERT JUMPDEST SWAP1 PUSH1 0x0 MSTORE PUSH1 0x20 PUSH1 0x0 KECCAK256 ADD PUSH1 0x0 SWAP2 POP SWAP1 POP DUP1 SLOAD PUSH2 0xC50 SWAP1 PUSH2 0x26C3 JUMP JUMPDEST DUP1 PUSH1 0x1F ADD PUSH1 0x20 DUP1 SWAP2 DIV MUL PUSH1 0x20 ADD PUSH1 0x40 MLOAD SWAP1 DUP2 ADD PUSH1 0x40 MSTORE DUP1 SWAP3 SWAP2 SWAP1 DUP2 DUP2 MSTORE PUSH1 0x20 ADD DUP3 DUP1 SLOAD PUSH2 0xC7C SWAP1 PUSH2 0x26C3 JUMP JUMPDEST DUP1 ISZERO PUSH2 0xCC9 JUMPI DUP1 PUSH1 0x1F LT PUSH2 0xC9E JUMPI PUSH2 0x100 DUP1 DUP4 SLOAD DIV MUL DUP4 MSTORE SWAP2 PUSH1 0x20 ADD SWAP2 PUSH2 0xCC9 JUMP JUMPDEST DUP3 ADD SWAP2 SWAP1 PUSH1 0x0 MSTORE PUSH1 0x20 PUSH1 0x0 KECCAK256 SWAP1 JUMPDEST DUP2 SLOAD DUP2 MSTORE SWAP1 PUSH1 0x1 ADD SWAP1 PUSH1 0x20 ADD DUP1 DUP4 GT PUSH2 0xCAC JUMPI DUP3 SWAP1 SUB PUSH1 0x1F AND DUP3 ADD SWAP2 JUMPDEST POP POP POP POP POP DUP2 JUMP JUMPDEST PUSH1 0x60 PUSH1 0x0 PUSH1 0x1 DUP4 PUSH1 0x40 MLOAD PUSH2 0xCE5 SWAP2 SWAP1 PUSH2 0x2262 JUMP JUMPDEST SWAP1 DUP2 MSTORE PUSH1 0x20 ADD PUSH1 0x40 MLOAD DUP1 SWAP2 SUB SWAP1 KECCAK256 SWAP1 POP DUP1 PUSH1 0x1 ADD DUP1 SLOAD DUP1 PUSH1 0x20 MUL PUSH1 0x20 ADD PUSH1 0x40 MLOAD SWAP1 DUP2 ADD PUSH1 0x40 MSTORE DUP1 SWAP3 SWAP2 SWAP1 DUP2 DUP2 MSTORE PUSH1 0x20 ADD DUP3 DUP1 SLOAD DUP1 ISZERO PUSH2 0xD79 JUMPI PUSH1 0x20 MUL DUP3 ADD SWAP2 SWAP1 PUSH1 0x0 MSTORE PUSH1 0x20 PUSH1 0x0 KECCAK256 SWAP1 JUMPDEST DUP2 PUSH1 0x0 SWAP1 SLOAD SWAP1 PUSH2 0x100 EXP SWAP1 DIV PUSH20 0xFFFFFFFFFFFFFFFFFFFFFFFFFFFFFFFFFFFFFFFF AND PUSH20 0xFFFFFFFFFFFFFFFFFFFFFFFFFFFFFFFFFFFFFFFF AND DUP2 MSTORE PUSH1 0x20 ADD SWAP1 PUSH1 0x1 ADD SWAP1 DUP1 DUP4 GT PUSH2 0xD2F JUMPI JUMPDEST POP POP POP POP POP SWAP2 POP POP SWAP2 SWAP1 POP JUMP JUMPDEST PUSH1 0x0 PUSH1 0x1 DUP3 PUSH1 0x40 MLOAD PUSH2 0xD98 SWAP2 SWAP1 PUSH2 0x2262 JUMP JUMPDEST SWAP1 DUP2 MSTORE PUSH1 0x20 ADD PUSH1 0x40 MLOAD DUP1 SWAP2 SUB SWAP1 KECCAK256 SWAP1 POP CALLER PUSH20 0xFFFFFFFFFFFFFFFFFFFFFFFFFFFFFFFFFFFFFFFF AND DUP2 PUSH1 0x0 ADD PUSH1 0x0 SWAP1 SLOAD SWAP1 PUSH2 0x100 EXP SWAP1 DIV PUSH20 0xFFFFFFFFFFFFFFFFFFFFFFFFFFFFFFFFFFFFFFFF AND PUSH20 0xFFFFFFFFFFFFFFFFFFFFFFFFFFFFFFFFFFFFFFFF AND EQ PUSH2 0xE3A JUMPI PUSH1 0x40 MLOAD PUSH32 0x8C379A000000000000000000000000000000000000000000000000000000000 DUP2 MSTORE PUSH1 0x4 ADD PUSH2 0xE31 SWAP1 PUSH2 0x2741 JUMP JUMPDEST PUSH1 0x40 MLOAD DUP1 SWAP2 SUB SWAP1 REVERT JUMPDEST DUP1 PUSH1 0x6 ADD PUSH1 0x0 SWAP1 SLOAD SWAP1 PUSH2 0x100 EXP SWAP1 DIV PUSH1 0xFF AND ISZERO DUP2 PUSH1 0x6 ADD PUSH1 0x0 PUSH2 0x100 EXP DUP2 SLOAD DUP2 PUSH1 0xFF MUL NOT AND SWAP1 DUP4 ISZERO ISZERO MUL OR SWAP1 SSTORE POP DUP1 PUSH1 0x6 ADD PUSH1 0x0 SWAP1 SLOAD SWAP1 PUSH2 0x100 EXP SWAP1 DIV PUSH1 0xFF AND ISZERO ISZERO PUSH32 0x7B224DB641892626DCA6975B376F464E9AC52CCFA180436175170C009B94DCD7 PUSH1 0x40 MLOAD PUSH1 0x40 MLOAD DUP1 SWAP2 SUB SWAP1 LOG2 POP POP JUMP JUMPDEST PUSH1 0x60 PUSH1 0x0 DUP1 PUSH1 0x1 DUP6 PUSH1 0x40 MLOAD PUSH2 0xEC1 SWAP2 SWAP1 PUSH2 0x2262 JUMP JUMPDEST SWAP1 DUP2 MSTORE PUSH1 0x20 ADD PUSH1 0x40 MLOAD DUP1 SWAP2 SUB SWAP1 KECCAK256 SWAP1 POP CALLER DUP2 PUSH1 0x0 ADD PUSH1 0x0 PUSH2 0x100 EXP DUP2 SLOAD DUP2 PUSH20 0xFFFFFFFFFFFFFFFFFFFFFFFFFFFFFFFFFFFFFFFF MUL NOT AND SWAP1 DUP4 PUSH20 0xFFFFFFFFFFFFFFFFFFFFFFFFFFFFFFFFFFFFFFFF AND MUL OR SWAP1 SSTORE POP DUP4 DUP2 PUSH1 0x2 ADD PUSH1 0x0 PUSH2 0x100 EXP DUP2 SLOAD DUP2 PUSH4 0xFFFFFFFF MUL NOT AND SWAP1 DUP4 PUSH4 0xFFFFFFFF AND MUL OR SWAP1 SSTORE POP PUSH1 0x0 DUP6 SWAP1 DUP1 PUSH1 0x1 DUP2 SLOAD ADD DUP1 DUP3 SSTORE DUP1 SWAP2 POP POP PUSH1 0x1 SWAP1 SUB SWAP1 PUSH1 0x0 MSTORE PUSH1 0x20 PUSH1 0x0 KECCAK256 ADD PUSH1 0x0 SWAP1 SWAP2 SWAP1 SWAP2 SWAP1 SWAP2 POP SWAP1 DUP1 MLOAD SWAP1 PUSH1 0x20 ADD SWAP1 PUSH2 0xF72 SWAP3 SWAP2 SWAP1 PUSH2 0x14E9 JUMP JUMPDEST POP DUP1 PUSH1 0x0 ADD PUSH1 0x0 SWAP1 SLOAD SWAP1 PUSH2 0x100 EXP SWAP1 DIV PUSH20 0xFFFFFFFFFFFFFFFFFFFFFFFFFFFFFFFFFFFFFFFF AND PUSH20 0xFFFFFFFFFFFFFFFFFFFFFFFFFFFFFFFFFFFFFFFF AND DUP2 PUSH1 0x2 ADD PUSH1 0x0 SWAP1 SLOAD SWAP1 PUSH2 0x100 EXP SWAP1 DIV PUSH4 0xFFFFFFFF AND PUSH4 0xFFFFFFFF AND DUP7 PUSH1 0x40 MLOAD PUSH2 0xFD7 SWAP2 SWAP1 PUSH2 0x2262 JUMP JUMPDEST PUSH1 0x40 MLOAD DUP1 SWAP2 SUB SWAP1 KECCAK256 PUSH32 0x4B35E5CF01446AA899A8D21082EBF23B7497D38F2466AD49836BD1006A8D059E PUSH1 0x40 MLOAD PUSH1 0x40 MLOAD DUP1 SWAP2 SUB SWAP1 LOG4 DUP5 DUP5 DUP1 PUSH4 0xFFFFFFFF AND SWAP1 POP SWAP3 POP SWAP3 POP POP SWAP3 POP SWAP3 SWAP1 POP JUMP JUMPDEST PUSH1 0x60 PUSH1 0x0 DUP1 SLOAD SWAP1 POP PUSH8 0xFFFFFFFFFFFFFFFF DUP2 GT ISZERO PUSH2 0x1043 JUMPI PUSH2 0x1042 PUSH2 0x1673 JUMP JUMPDEST JUMPDEST PUSH1 0x40 MLOAD SWAP1 DUP1 DUP3 MSTORE DUP1 PUSH1 0x20 MUL PUSH1 0x20 ADD DUP3 ADD PUSH1 0x40 MSTORE DUP1 ISZERO PUSH2 0x107C JUMPI DUP2 PUSH1 0x20 ADD JUMPDEST PUSH2 0x1069 PUSH2 0x156F JUMP JUMPDEST DUP2 MSTORE PUSH1 0x20 ADD SWAP1 PUSH1 0x1 SWAP1 SUB SWAP1 DUP2 PUSH2 0x1061 JUMPI SWAP1 POP JUMPDEST POP SWAP1 POP PUSH1 0x0 JUMPDEST PUSH1 0x0 DUP1 SLOAD SWAP1 POP DUP2 GT PUSH2 0x121E JUMPI PUSH1 0x0 PUSH1 0x1 PUSH1 0x0 DUP4 DUP2 SLOAD DUP2 LT PUSH2 0x10A6 JUMPI PUSH2 0x10A5 PUSH2 0x24F0 JUMP JUMPDEST JUMPDEST SWAP1 PUSH1 0x0 MSTORE PUSH1 0x20 PUSH1 0x0 KECCAK256 ADD PUSH1 0x40 MLOAD PUSH2 0x10BD SWAP2 SWAP1 PUSH2 0x27F5 JUMP JUMPDEST SWAP1 DUP2 MSTORE PUSH1 0x20 ADD PUSH1 0x40 MLOAD DUP1 SWAP2 SUB SWAP1 KECCAK256 SWAP1 POP DUP1 PUSH1 0x0 ADD PUSH1 0x0 SWAP1 SLOAD SWAP1 PUSH2 0x100 EXP SWAP1 DIV PUSH20 0xFFFFFFFFFFFFFFFFFFFFFFFFFFFFFFFFFFFFFFFF AND DUP4 DUP4 DUP2 MLOAD DUP2 LT PUSH2 0x1105 JUMPI PUSH2 0x1104 PUSH2 0x24F0 JUMP JUMPDEST JUMPDEST PUSH1 0x20 MUL PUSH1 0x20 ADD ADD MLOAD PUSH1 0x20 ADD SWAP1 PUSH20 0xFFFFFFFFFFFFFFFFFFFFFFFFFFFFFFFFFFFFFFFF AND SWAP1 DUP2 PUSH20 0xFFFFFFFFFFFFFFFFFFFFFFFFFFFFFFFFFFFFFFFF AND DUP2 MSTORE POP POP DUP1 PUSH1 0x2 ADD PUSH1 0x0 SWAP1 SLOAD SWAP1 PUSH2 0x100 EXP SWAP1 DIV PUSH4 0xFFFFFFFF AND DUP4 DUP4 DUP2 MLOAD DUP2 LT PUSH2 0x116B JUMPI PUSH2 0x116A PUSH2 0x24F0 JUMP JUMPDEST JUMPDEST PUSH1 0x20 MUL PUSH1 0x20 ADD ADD MLOAD PUSH1 0x60 ADD SWAP1 PUSH4 0xFFFFFFFF AND SWAP1 DUP2 PUSH4 0xFFFFFFFF AND DUP2 MSTORE POP POP DUP1 PUSH1 0x2 ADD PUSH1 0x4 SWAP1 SLOAD SWAP1 PUSH2 0x100 EXP SWAP1 DIV PUSH4 0xFFFFFFFF AND DUP4 DUP4 DUP2 MLOAD DUP2 LT PUSH2 0x11B1 JUMPI PUSH2 0x11B0 PUSH2 0x24F0 JUMP JUMPDEST JUMPDEST PUSH1 0x20 MUL PUSH1 0x20 ADD ADD MLOAD PUSH1 0x80 ADD SWAP1 PUSH4 0xFFFFFFFF AND SWAP1 DUP2 PUSH4 0xFFFFFFFF AND DUP2 MSTORE POP POP DUP1 PUSH1 0x6 ADD PUSH1 0x0 SWAP1 SLOAD SWAP1 PUSH2 0x100 EXP SWAP1 DIV PUSH1 0xFF AND DUP4 DUP4 DUP2 MLOAD DUP2 LT PUSH2 0x11F4 JUMPI PUSH2 0x11F3 PUSH2 0x24F0 JUMP JUMPDEST JUMPDEST PUSH1 0x20 MUL PUSH1 0x20 ADD ADD MLOAD PUSH1 0xA0 ADD SWAP1 ISZERO ISZERO SWAP1 DUP2 ISZERO ISZERO DUP2 MSTORE POP POP POP DUP1 DUP1 PUSH2 0x1216 SWAP1 PUSH2 0x23A6 JUMP JUMPDEST SWAP2 POP POP PUSH2 0x1082 JUMP JUMPDEST POP SWAP1 JUMP JUMPDEST PUSH1 0x0 DUP1 PUSH1 0x0 DUP1 PUSH1 0x41 DUP6 MLOAD EQ PUSH2 0x123D JUMPI PUSH1 0x0 SWAP4 POP POP POP POP PUSH2 0x1315 JUMP JUMPDEST PUSH1 0x20 DUP6 ADD MLOAD SWAP3 POP PUSH1 0x40 DUP6 ADD MLOAD SWAP2 POP PUSH1 0x60 DUP6 ADD MLOAD PUSH1 0x0 BYTE SWAP1 POP PUSH1 0x1B DUP2 PUSH1 0xFF AND LT ISZERO PUSH2 0x1271 JUMPI PUSH1 0x1B DUP2 PUSH2 0x126E SWAP2 SWAP1 PUSH2 0x2819 JUMP JUMPDEST SWAP1 POP JUMPDEST PUSH1 0x1B DUP2 PUSH1 0xFF AND EQ ISZERO DUP1 ISZERO PUSH2 0x1289 JUMPI POP PUSH1 0x1C DUP2 PUSH1 0xFF AND EQ ISZERO JUMPDEST ISZERO PUSH2 0x129A JUMPI PUSH1 0x0 SWAP4 POP POP POP POP PUSH2 0x1315 JUMP JUMPDEST PUSH1 0x1 DUP7 PUSH1 0x40 MLOAD PUSH1 0x20 ADD PUSH2 0x12AD SWAP2 SWAP1 PUSH2 0x28BD JUMP JUMPDEST PUSH1 0x40 MLOAD PUSH1 0x20 DUP2 DUP4 SUB SUB DUP2 MSTORE SWAP1 PUSH1 0x40 MSTORE DUP1 MLOAD SWAP1 PUSH1 0x20 ADD KECCAK256 DUP3 DUP6 DUP6 PUSH1 0x40 MLOAD PUSH1 0x0 DUP2 MSTORE PUSH1 0x20 ADD PUSH1 0x40 MSTORE PUSH1 0x40 MLOAD PUSH2 0x12E3 SWAP5 SWAP4 SWAP3 SWAP2 SWAP1 PUSH2 0x28F2 JUMP JUMPDEST PUSH1 0x20 PUSH1 0x40 MLOAD PUSH1 0x20 DUP2 SUB SWAP1 DUP1 DUP5 SUB SWAP1 DUP6 GAS STATICCALL ISZERO DUP1 ISZERO PUSH2 0x1305 JUMPI RETURNDATASIZE PUSH1 0x0 DUP1 RETURNDATACOPY RETURNDATASIZE PUSH1 0x0 REVERT JUMPDEST POP POP POP PUSH1 0x20 PUSH1 0x40 MLOAD SUB MLOAD SWAP4 POP POP POP POP JUMPDEST SWAP3 SWAP2 POP POP JUMP JUMPDEST PUSH1 0x0 DUP1 PUSH1 0x1 DUP5 PUSH1 0x40 MLOAD PUSH2 0x132E SWAP2 SWAP1 PUSH2 0x2262 JUMP JUMPDEST SWAP1 DUP2 MSTORE PUSH1 0x20 ADD PUSH1 0x40 MLOAD DUP1 SWAP2 SUB SWAP1 KECCAK256 SWAP1 POP PUSH1 0x1 DUP2 PUSH1 0x4 ADD PUSH1 0x0 DUP6 PUSH20 0xFFFFFFFFFFFFFFFFFFFFFFFFFFFFFFFFFFFFFFFF AND PUSH20 0xFFFFFFFFFFFFFFFFFFFFFFFFFFFFFFFFFFFFFFFF AND DUP2 MSTORE PUSH1 0x20 ADD SWAP1 DUP2 MSTORE PUSH1 0x20 ADD PUSH1 0x0 KECCAK256 PUSH1 0x0 PUSH2 0x100 EXP DUP2 SLOAD DUP2 PUSH1 0xFF MUL NOT AND SWAP1 DUP4 ISZERO ISZERO MUL OR SWAP1 SSTORE POP DUP1 PUSH1 0x5 ADD PUSH1 0x0 DUP7 PUSH20 0xFFFFFFFFFFFFFFFFFFFFFFFFFFFFFFFFFFFFFFFF AND PUSH20 0xFFFFFFFFFFFFFFFFFFFFFFFFFFFFFFFFFFFFFFFF AND DUP2 MSTORE PUSH1 0x20 ADD SWAP1 DUP2 MSTORE PUSH1 0x20 ADD PUSH1 0x0 KECCAK256 PUSH1 0x0 DUP2 SLOAD DUP1 SWAP3 SWAP2 SWAP1 PUSH2 0x13EA SWAP1 PUSH2 0x23A6 JUMP JUMPDEST SWAP2 SWAP1 POP SSTORE POP DUP1 PUSH1 0x5 ADD PUSH1 0x0 DUP7 PUSH20 0xFFFFFFFFFFFFFFFFFFFFFFFFFFFFFFFFFFFFFFFF AND PUSH20 0xFFFFFFFFFFFFFFFFFFFFFFFFFFFFFFFFFFFFFFFF AND DUP2 MSTORE PUSH1 0x20 ADD SWAP1 DUP2 MSTORE PUSH1 0x20 ADD PUSH1 0x0 KECCAK256 SLOAD SWAP2 POP POP SWAP4 SWAP3 POP POP POP JUMP JUMPDEST PUSH1 0x0 DUP1 PUSH1 0x1 DUP5 PUSH1 0x40 MLOAD PUSH2 0x144E SWAP2 SWAP1 PUSH2 0x2262 JUMP JUMPDEST SWAP1 DUP2 MSTORE PUSH1 0x20 ADD PUSH1 0x40 MLOAD DUP1 SWAP2 SUB SWAP1 KECCAK256 SWAP1 POP DUP1 PUSH1 0x5 ADD PUSH1 0x0 DUP3 PUSH1 0x1 ADD DUP6 DUP2 SLOAD DUP2 LT PUSH2 0x147A JUMPI PUSH2 0x1479 PUSH2 0x24F0 JUMP JUMPDEST JUMPDEST SWAP1 PUSH1 0x0 MSTORE PUSH1 0x20 PUSH1 0x0 KECCAK256 ADD PUSH1 0x0 SWAP1 SLOAD SWAP1 PUSH2 0x100 EXP SWAP1 DIV PUSH20 0xFFFFFFFFFFFFFFFFFFFFFFFFFFFFFFFFFFFFFFFF AND PUSH20 0xFFFFFFFFFFFFFFFFFFFFFFFFFFFFFFFFFFFFFFFF AND PUSH20 0xFFFFFFFFFFFFFFFFFFFFFFFFFFFFFFFFFFFFFFFF AND DUP2 MSTORE PUSH1 0x20 ADD SWAP1 DUP2 MSTORE PUSH1 0x20 ADD PUSH1 0x0 KECCAK256 SLOAD SWAP2 POP POP SWAP3 SWAP2 POP POP JUMP JUMPDEST DUP3 DUP1 SLOAD PUSH2 0x14F5 SWAP1 PUSH2 0x26C3 JUMP JUMPDEST SWAP1 PUSH1 0x0 MSTORE PUSH1 0x20 PUSH1 0x0 KECCAK256 SWAP1 PUSH1 0x1F ADD PUSH1 0x20 SWAP1 DIV DUP2 ADD SWAP3 DUP3 PUSH2 0x1517 JUMPI PUSH1 0x0 DUP6 SSTORE PUSH2 0x155E JUMP JUMPDEST DUP3 PUSH1 0x1F LT PUSH2 0x1530 JUMPI DUP1 MLOAD PUSH1 0xFF NOT AND DUP4 DUP1 ADD OR DUP6 SSTORE PUSH2 0x155E JUMP JUMPDEST DUP3 DUP1 ADD PUSH1 0x1 ADD DUP6 SSTORE DUP3 ISZERO PUSH2 0x155E JUMPI SWAP2 DUP3 ADD JUMPDEST DUP3 DUP2 GT ISZERO PUSH2 0x155D JUMPI DUP3 MLOAD DUP3 SSTORE SWAP2 PUSH1 0x20 ADD SWAP2 SWAP1 PUSH1 0x1 ADD SWAP1 PUSH2 0x1542 JUMP JUMPDEST JUMPDEST POP SWAP1 POP PUSH2 0x156B SWAP2 SWAP1 PUSH2 0x15C9 JUMP JUMPDEST POP SWAP1 JUMP JUMPDEST PUSH1 0x40 MLOAD DUP1 PUSH1 0xC0 ADD PUSH1 0x40 MSTORE DUP1 PUSH1 0x60 DUP2 MSTORE PUSH1 0x20 ADD PUSH1 0x0 PUSH20 0xFFFFFFFFFFFFFFFFFFFFFFFFFFFFFFFFFFFFFFFF AND DUP2 MSTORE PUSH1 0x20 ADD PUSH1 0x60 DUP2 MSTORE PUSH1 0x20 ADD PUSH1 0x0 PUSH4 0xFFFFFFFF AND DUP2 MSTORE PUSH1 0x20 ADD PUSH1 0x0 PUSH4 0xFFFFFFFF AND DUP2 MSTORE PUSH1 0x20 ADD PUSH1 0x0 ISZERO ISZERO DUP2 MSTORE POP SWAP1 JUMP JUMPDEST JUMPDEST DUP1 DUP3 GT ISZERO PUSH2 0x15E2 JUMPI PUSH1 0x0 DUP2 PUSH1 0x0 SWAP1 SSTORE POP PUSH1 0x1 ADD PUSH2 0x15CA JUMP JUMPDEST POP SWAP1 JUMP JUMPDEST PUSH1 0x0 PUSH1 0x40 MLOAD SWAP1 POP SWAP1 JUMP JUMPDEST PUSH1 0x0 DUP1 REVERT JUMPDEST PUSH1 0x0 DUP1 REVERT JUMPDEST PUSH1 0x0 PUSH20 0xFFFFFFFFFFFFFFFFFFFFFFFFFFFFFFFFFFFFFFFF DUP3 AND SWAP1 POP SWAP2 SWAP1 POP JUMP JUMPDEST PUSH1 0x0 PUSH2 0x1625 DUP3 PUSH2 0x15FA JUMP JUMPDEST SWAP1 POP SWAP2 SWAP1 POP JUMP JUMPDEST PUSH2 0x1635 DUP2 PUSH2 0x161A JUMP JUMPDEST DUP2 EQ PUSH2 0x1640 JUMPI PUSH1 0x0 DUP1 REVERT JUMPDEST POP JUMP JUMPDEST PUSH1 0x0 DUP2 CALLDATALOAD SWAP1 POP PUSH2 0x1652 DUP2 PUSH2 0x162C JUMP JUMPDEST SWAP3 SWAP2 POP POP JUMP JUMPDEST PUSH1 0x0 DUP1 REVERT JUMPDEST PUSH1 0x0 DUP1 REVERT JUMPDEST PUSH1 0x0 PUSH1 0x1F NOT PUSH1 0x1F DUP4 ADD AND SWAP1 POP SWAP2 SWAP1 POP JUMP JUMPDEST PUSH32 0x4E487B7100000000000000000000000000000000000000000000000000000000 PUSH1 0x0 MSTORE PUSH1 0x41 PUSH1 0x4 MSTORE PUSH1 0x24 PUSH1 0x0 REVERT JUMPDEST PUSH2 0x16AB DUP3 PUSH2 0x1662 JUMP JUMPDEST DUP2 ADD DUP2 DUP2 LT PUSH8 0xFFFFFFFFFFFFFFFF DUP3 GT OR ISZERO PUSH2 0x16CA JUMPI PUSH2 0x16C9 PUSH2 0x1673 JUMP JUMPDEST JUMPDEST DUP1 PUSH1 0x40 MSTORE POP POP POP JUMP JUMPDEST PUSH1 0x0 PUSH2 0x16DD PUSH2 0x15E6 JUMP JUMPDEST SWAP1 POP PUSH2 0x16E9 DUP3 DUP3 PUSH2 0x16A2 JUMP JUMPDEST SWAP2 SWAP1 POP JUMP JUMPDEST PUSH1 0x0 PUSH8 0xFFFFFFFFFFFFFFFF DUP3 GT ISZERO PUSH2 0x1709 JUMPI PUSH2 0x1708 PUSH2 0x1673 JUMP JUMPDEST JUMPDEST PUSH2 0x1712 DUP3 PUSH2 0x1662 JUMP JUMPDEST SWAP1 POP PUSH1 0x20 DUP2 ADD SWAP1 POP SWAP2 SWAP1 POP JUMP JUMPDEST DUP3 DUP2 DUP4 CALLDATACOPY PUSH1 0x0 DUP4 DUP4 ADD MSTORE POP POP POP JUMP JUMPDEST PUSH1 0x0 PUSH2 0x1741 PUSH2 0x173C DUP5 PUSH2 0x16EE JUMP JUMPDEST PUSH2 0x16D3 JUMP JUMPDEST SWAP1 POP DUP3 DUP2 MSTORE PUSH1 0x20 DUP2 ADD DUP5 DUP5 DUP5 ADD GT ISZERO PUSH2 0x175D JUMPI PUSH2 0x175C PUSH2 0x165D JUMP JUMPDEST JUMPDEST PUSH2 0x1768 DUP5 DUP3 DUP6 PUSH2 0x171F JUMP JUMPDEST POP SWAP4 SWAP3 POP POP POP JUMP JUMPDEST PUSH1 0x0 DUP3 PUSH1 0x1F DUP4 ADD SLT PUSH2 0x1785 JUMPI PUSH2 0x1784 PUSH2 0x1658 JUMP JUMPDEST JUMPDEST DUP2 CALLDATALOAD PUSH2 0x1795 DUP5 DUP3 PUSH1 0x20 DUP7 ADD PUSH2 0x172E JUMP JUMPDEST SWAP2 POP POP SWAP3 SWAP2 POP POP JUMP JUMPDEST PUSH1 0x0 DUP2 SWAP1 POP SWAP2 SWAP1 POP JUMP JUMPDEST PUSH2 0x17B1 DUP2 PUSH2 0x179E JUMP JUMPDEST DUP2 EQ PUSH2 0x17BC JUMPI PUSH1 0x0 DUP1 REVERT JUMPDEST POP JUMP JUMPDEST PUSH1 0x0 DUP2 CALLDATALOAD SWAP1 POP PUSH2 0x17CE DUP2 PUSH2 0x17A8 JUMP JUMPDEST SWAP3 SWAP2 POP POP JUMP JUMPDEST PUSH1 0x0 DUP1 PUSH1 0x0 DUP1 PUSH1 0x80 DUP6 DUP8 SUB SLT ISZERO PUSH2 0x17EE JUMPI PUSH2 0x17ED PUSH2 0x15F0 JUMP JUMPDEST JUMPDEST PUSH1 0x0 PUSH2 0x17FC DUP8 DUP3 DUP9 ADD PUSH2 0x1643 JUMP JUMPDEST SWAP5 POP POP PUSH1 0x20 DUP6 ADD CALLDATALOAD PUSH8 0xFFFFFFFFFFFFFFFF DUP2 GT ISZERO PUSH2 0x181D JUMPI PUSH2 0x181C PUSH2 0x15F5 JUMP JUMPDEST JUMPDEST PUSH2 0x1829 DUP8 DUP3 DUP9 ADD PUSH2 0x1770 JUMP JUMPDEST SWAP4 POP POP PUSH1 0x40 PUSH2 0x183A DUP8 DUP3 DUP9 ADD PUSH2 0x17BF JUMP JUMPDEST SWAP3 POP POP PUSH1 0x60 PUSH2 0x184B DUP8 DUP3 DUP9 ADD PUSH2 0x17BF JUMP JUMPDEST SWAP2 POP POP SWAP3 SWAP6 SWAP2 SWAP5 POP SWAP3 POP JUMP JUMPDEST PUSH1 0x0 DUP2 SWAP1 POP SWAP2 SWAP1 POP JUMP JUMPDEST PUSH2 0x186A DUP2 PUSH2 0x1857 JUMP JUMPDEST DUP3 MSTORE POP POP JUMP JUMPDEST PUSH1 0x0 PUSH1 0x20 DUP3 ADD SWAP1 POP PUSH2 0x1885 PUSH1 0x0 DUP4 ADD DUP5 PUSH2 0x1861 JUMP JUMPDEST SWAP3 SWAP2 POP POP JUMP JUMPDEST PUSH1 0x0 PUSH8 0xFFFFFFFFFFFFFFFF DUP3 GT ISZERO PUSH2 0x18A6 JUMPI PUSH2 0x18A5 PUSH2 0x1673 JUMP JUMPDEST JUMPDEST PUSH2 0x18AF DUP3 PUSH2 0x1662 JUMP JUMPDEST SWAP1 POP PUSH1 0x20 DUP2 ADD SWAP1 POP SWAP2 SWAP1 POP JUMP JUMPDEST PUSH1 0x0 PUSH2 0x18CF PUSH2 0x18CA DUP5 PUSH2 0x188B JUMP JUMPDEST PUSH2 0x16D3 JUMP JUMPDEST SWAP1 POP DUP3 DUP2 MSTORE PUSH1 0x20 DUP2 ADD DUP5 DUP5 DUP5 ADD GT ISZERO PUSH2 0x18EB JUMPI PUSH2 0x18EA PUSH2 0x165D JUMP JUMPDEST JUMPDEST PUSH2 0x18F6 DUP5 DUP3 DUP6 PUSH2 0x171F JUMP JUMPDEST POP SWAP4 SWAP3 POP POP POP JUMP JUMPDEST PUSH1 0x0 DUP3 PUSH1 0x1F DUP4 ADD SLT PUSH2 0x1913 JUMPI PUSH2 0x1912 PUSH2 0x1658 JUMP JUMPDEST JUMPDEST DUP2 CALLDATALOAD PUSH2 0x1923 DUP5 DUP3 PUSH1 0x20 DUP7 ADD PUSH2 0x18BC JUMP JUMPDEST SWAP2 POP POP SWAP3 SWAP2 POP POP JUMP JUMPDEST PUSH1 0x0 DUP1 PUSH1 0x0 DUP1 PUSH1 0x80 DUP6 DUP8 SUB SLT ISZERO PUSH2 0x1946 JUMPI PUSH2 0x1945 PUSH2 0x15F0 JUMP JUMPDEST JUMPDEST PUSH1 0x0 PUSH2 0x1954 DUP8 DUP3 DUP9 ADD PUSH2 0x1643 JUMP JUMPDEST SWAP5 POP POP PUSH1 0x20 DUP6 ADD CALLDATALOAD PUSH8 0xFFFFFFFFFFFFFFFF DUP2 GT ISZERO PUSH2 0x1975 JUMPI PUSH2 0x1974 PUSH2 0x15F5 JUMP JUMPDEST JUMPDEST PUSH2 0x1981 DUP8 DUP3 DUP9 ADD PUSH2 0x1770 JUMP JUMPDEST SWAP4 POP POP PUSH1 0x40 PUSH2 0x1992 DUP8 DUP3 DUP9 ADD PUSH2 0x17BF JUMP JUMPDEST SWAP3 POP POP PUSH1 0x60 DUP6 ADD CALLDATALOAD PUSH8 0xFFFFFFFFFFFFFFFF DUP2 GT ISZERO PUSH2 0x19B3 JUMPI PUSH2 0x19B2 PUSH2 0x15F5 JUMP JUMPDEST JUMPDEST PUSH2 0x19BF DUP8 DUP3 DUP9 ADD PUSH2 0x18FE JUMP JUMPDEST SWAP2 POP POP SWAP3 SWAP6 SWAP2 SWAP5 POP SWAP3 POP JUMP JUMPDEST PUSH1 0x0 PUSH1 0x20 DUP3 DUP5 SUB SLT ISZERO PUSH2 0x19E1 JUMPI PUSH2 0x19E0 PUSH2 0x15F0 JUMP JUMPDEST JUMPDEST PUSH1 0x0 DUP3 ADD CALLDATALOAD PUSH8 0xFFFFFFFFFFFFFFFF DUP2 GT ISZERO PUSH2 0x19FF JUMPI PUSH2 0x19FE PUSH2 0x15F5 JUMP JUMPDEST JUMPDEST PUSH2 0x1A0B DUP5 DUP3 DUP6 ADD PUSH2 0x1770 JUMP JUMPDEST SWAP2 POP POP SWAP3 SWAP2 POP POP JUMP JUMPDEST PUSH1 0x0 DUP2 MLOAD SWAP1 POP SWAP2 SWAP1 POP JUMP JUMPDEST PUSH1 0x0 DUP3 DUP3 MSTORE PUSH1 0x20 DUP3 ADD SWAP1 POP SWAP3 SWAP2 POP POP JUMP JUMPDEST PUSH1 0x0 DUP2 SWAP1 POP PUSH1 0x20 DUP3 ADD SWAP1 POP SWAP2 SWAP1 POP JUMP JUMPDEST PUSH2 0x1A49 DUP2 PUSH2 0x179E JUMP JUMPDEST DUP3 MSTORE POP POP JUMP JUMPDEST PUSH1 0x0 PUSH2 0x1A5B DUP4 DUP4 PUSH2 0x1A40 JUMP JUMPDEST PUSH1 0x20 DUP4 ADD SWAP1 POP SWAP3 SWAP2 POP POP JUMP JUMPDEST PUSH1 0x0 PUSH1 0x20 DUP3 ADD SWAP1 POP SWAP2 SWAP1 POP JUMP JUMPDEST PUSH1 0x0 PUSH2 0x1A7F DUP3 PUSH2 0x1A14 JUMP JUMPDEST PUSH2 0x1A89 DUP2 DUP6 PUSH2 0x1A1F JUMP JUMPDEST SWAP4 POP PUSH2 0x1A94 DUP4 PUSH2 0x1A30 JUMP JUMPDEST DUP1 PUSH1 0x0 JUMPDEST DUP4 DUP2 LT ISZERO PUSH2 0x1AC5 JUMPI DUP2 MLOAD PUSH2 0x1AAC DUP9 DUP3 PUSH2 0x1A4F JUMP JUMPDEST SWAP8 POP PUSH2 0x1AB7 DUP4 PUSH2 0x1A67 JUMP JUMPDEST SWAP3 POP POP PUSH1 0x1 DUP2 ADD SWAP1 POP PUSH2 0x1A98 JUMP JUMPDEST POP DUP6 SWAP4 POP POP POP POP SWAP3 SWAP2 POP POP JUMP JUMPDEST PUSH2 0x1ADB DUP2 PUSH2 0x161A JUMP JUMPDEST DUP3 MSTORE POP POP JUMP JUMPDEST PUSH2 0x1AEA DUP2 PUSH2 0x179E JUMP JUMPDEST DUP3 MSTORE POP POP JUMP JUMPDEST PUSH1 0x0 PUSH1 0x60 DUP3 ADD SWAP1 POP DUP2 DUP2 SUB PUSH1 0x0 DUP4 ADD MSTORE PUSH2 0x1B0A DUP2 DUP7 PUSH2 0x1A74 JUMP JUMPDEST SWAP1 POP PUSH2 0x1B19 PUSH1 0x20 DUP4 ADD DUP6 PUSH2 0x1AD2 JUMP JUMPDEST PUSH2 0x1B26 PUSH1 0x40 DUP4 ADD DUP5 PUSH2 0x1AE1 JUMP JUMPDEST SWAP5 SWAP4 POP POP POP POP JUMP JUMPDEST PUSH1 0x0 DUP1 PUSH1 0x40 DUP4 DUP6 SUB SLT ISZERO PUSH2 0x1B45 JUMPI PUSH2 0x1B44 PUSH2 0x15F0 JUMP JUMPDEST JUMPDEST PUSH1 0x0 PUSH2 0x1B53 DUP6 DUP3 DUP7 ADD PUSH2 0x1643 JUMP JUMPDEST SWAP3 POP POP PUSH1 0x20 DUP4 ADD CALLDATALOAD PUSH8 0xFFFFFFFFFFFFFFFF DUP2 GT ISZERO PUSH2 0x1B74 JUMPI PUSH2 0x1B73 PUSH2 0x15F5 JUMP JUMPDEST JUMPDEST PUSH2 0x1B80 DUP6 DUP3 DUP7 ADD PUSH2 0x1770 JUMP JUMPDEST SWAP2 POP POP SWAP3 POP SWAP3 SWAP1 POP JUMP JUMPDEST PUSH1 0x0 PUSH4 0xFFFFFFFF DUP3 AND SWAP1 POP SWAP2 SWAP1 POP JUMP JUMPDEST PUSH2 0x1BA3 DUP2 PUSH2 0x1B8A JUMP JUMPDEST DUP3 MSTORE POP POP JUMP JUMPDEST PUSH1 0x0 DUP2 ISZERO ISZERO SWAP1 POP SWAP2 SWAP1 POP JUMP JUMPDEST PUSH2 0x1BBE DUP2 PUSH2 0x1BA9 JUMP JUMPDEST DUP3 MSTORE POP POP JUMP JUMPDEST PUSH1 0x0 PUSH1 0x80 DUP3 ADD SWAP1 POP PUSH2 0x1BD9 PUSH1 0x0 DUP4 ADD DUP8 PUSH2 0x1AD2 JUMP JUMPDEST PUSH2 0x1BE6 PUSH1 0x20 DUP4 ADD DUP7 PUSH2 0x1B9A JUMP JUMPDEST PUSH2 0x1BF3 PUSH1 0x40 DUP4 ADD DUP6 PUSH2 0x1B9A JUMP JUMPDEST PUSH2 0x1C00 PUSH1 0x60 DUP4 ADD DUP5 PUSH2 0x1BB5 JUMP JUMPDEST SWAP6 SWAP5 POP POP POP POP POP JUMP JUMPDEST PUSH1 0x0 PUSH1 0x20 DUP3 DUP5 SUB SLT ISZERO PUSH2 0x1C1F JUMPI PUSH2 0x1C1E PUSH2 0x15F0 JUMP JUMPDEST JUMPDEST PUSH1 0x0 PUSH2 0x1C2D DUP5 DUP3 DUP6 ADD PUSH2 0x1643 JUMP JUMPDEST SWAP2 POP POP SWAP3 SWAP2 POP POP JUMP JUMPDEST PUSH1 0x0 PUSH1 0x20 DUP3 ADD SWAP1 POP PUSH2 0x1C4B PUSH1 0x0 DUP4 ADD DUP5 PUSH2 0x1AE1 JUMP JUMPDEST SWAP3 SWAP2 POP POP JUMP JUMPDEST PUSH1 0x0 PUSH1 0x20 DUP3 DUP5 SUB SLT ISZERO PUSH2 0x1C67 JUMPI PUSH2 0x1C66 PUSH2 0x15F0 JUMP JUMPDEST JUMPDEST PUSH1 0x0 PUSH2 0x1C75 DUP5 DUP3 DUP6 ADD PUSH2 0x17BF JUMP JUMPDEST SWAP2 POP POP SWAP3 SWAP2 POP POP JUMP JUMPDEST PUSH1 0x0 DUP2 MLOAD SWAP1 POP SWAP2 SWAP1 POP JUMP JUMPDEST PUSH1 0x0 DUP3 DUP3 MSTORE PUSH1 0x20 DUP3 ADD SWAP1 POP SWAP3 SWAP2 POP POP JUMP JUMPDEST PUSH1 0x0 JUMPDEST DUP4 DUP2 LT ISZERO PUSH2 0x1CB8 JUMPI DUP1 DUP3 ADD MLOAD DUP2 DUP5 ADD MSTORE PUSH1 0x20 DUP2 ADD SWAP1 POP PUSH2 0x1C9D JUMP JUMPDEST DUP4 DUP2 GT ISZERO PUSH2 0x1CC7 JUMPI PUSH1 0x0 DUP5 DUP5 ADD MSTORE JUMPDEST POP POP POP POP JUMP JUMPDEST PUSH1 0x0 PUSH2 0x1CD8 DUP3 PUSH2 0x1C7E JUMP JUMPDEST PUSH2 0x1CE2 DUP2 DUP6 PUSH2 0x1C89 JUMP JUMPDEST SWAP4 POP PUSH2 0x1CF2 DUP2 DUP6 PUSH1 0x20 DUP7 ADD PUSH2 0x1C9A JUMP JUMPDEST PUSH2 0x1CFB DUP2 PUSH2 0x1662 JUMP JUMPDEST DUP5 ADD SWAP2 POP POP SWAP3 SWAP2 POP POP JUMP JUMPDEST PUSH1 0x0 PUSH1 0x20 DUP3 ADD SWAP1 POP DUP2 DUP2 SUB PUSH1 0x0 DUP4 ADD MSTORE PUSH2 0x1D20 DUP2 DUP5 PUSH2 0x1CCD JUMP JUMPDEST SWAP1 POP SWAP3 SWAP2 POP POP JUMP JUMPDEST PUSH1 0x0 DUP2 MLOAD SWAP1 POP SWAP2 SWAP1 POP JUMP JUMPDEST PUSH1 0x0 DUP3 DUP3 MSTORE PUSH1 0x20 DUP3 ADD SWAP1 POP SWAP3 SWAP2 POP POP JUMP JUMPDEST PUSH1 0x0 DUP2 SWAP1 POP PUSH1 0x20 DUP3 ADD SWAP1 POP SWAP2 SWAP1 POP JUMP JUMPDEST PUSH2 0x1D5D DUP2 PUSH2 0x161A JUMP JUMPDEST DUP3 MSTORE POP POP JUMP JUMPDEST PUSH1 0x0 PUSH2 0x1D6F DUP4 DUP4 PUSH2 0x1D54 JUMP JUMPDEST PUSH1 0x20 DUP4 ADD SWAP1 POP SWAP3 SWAP2 POP POP JUMP JUMPDEST PUSH1 0x0 PUSH1 0x20 DUP3 ADD SWAP1 POP SWAP2 SWAP1 POP JUMP JUMPDEST PUSH1 0x0 PUSH2 0x1D93 DUP3 PUSH2 0x1D28 JUMP JUMPDEST PUSH2 0x1D9D DUP2 DUP6 PUSH2 0x1D33 JUMP JUMPDEST SWAP4 POP PUSH2 0x1DA8 DUP4 PUSH2 0x1D44 JUMP JUMPDEST DUP1 PUSH1 0x0 JUMPDEST DUP4 DUP2 LT ISZERO PUSH2 0x1DD9 JUMPI DUP2 MLOAD PUSH2 0x1DC0 DUP9 DUP3 PUSH2 0x1D63 JUMP JUMPDEST SWAP8 POP PUSH2 0x1DCB DUP4 PUSH2 0x1D7B JUMP JUMPDEST SWAP3 POP POP PUSH1 0x1 DUP2 ADD SWAP1 POP PUSH2 0x1DAC JUMP JUMPDEST POP DUP6 SWAP4 POP POP POP POP SWAP3 SWAP2 POP POP JUMP JUMPDEST PUSH1 0x0 PUSH1 0x20 DUP3 ADD SWAP1 POP DUP2 DUP2 SUB PUSH1 0x0 DUP4 ADD MSTORE PUSH2 0x1E00 DUP2 DUP5 PUSH2 0x1D88 JUMP JUMPDEST SWAP1 POP SWAP3 SWAP2 POP POP JUMP JUMPDEST PUSH2 0x1E11 DUP2 PUSH2 0x1B8A JUMP JUMPDEST DUP2 EQ PUSH2 0x1E1C JUMPI PUSH1 0x0 DUP1 REVERT JUMPDEST POP JUMP JUMPDEST PUSH1 0x0 DUP2 CALLDATALOAD SWAP1 POP PUSH2 0x1E2E DUP2 PUSH2 0x1E08 JUMP JUMPDEST SWAP3 SWAP2 POP POP JUMP JUMPDEST PUSH1 0x0 DUP1 PUSH1 0x40 DUP4 DUP6 SUB SLT ISZERO PUSH2 0x1E4B JUMPI PUSH2 0x1E4A PUSH2 0x15F0 JUMP JUMPDEST JUMPDEST PUSH1 0x0 DUP4 ADD CALLDATALOAD PUSH8 0xFFFFFFFFFFFFFFFF DUP2 GT ISZERO PUSH2 0x1E69 JUMPI PUSH2 0x1E68 PUSH2 0x15F5 JUMP JUMPDEST JUMPDEST PUSH2 0x1E75 DUP6 DUP3 DUP7 ADD PUSH2 0x1770 JUMP JUMPDEST SWAP3 POP POP PUSH1 0x20 PUSH2 0x1E86 DUP6 DUP3 DUP7 ADD PUSH2 0x1E1F JUMP JUMPDEST SWAP2 POP POP SWAP3 POP SWAP3 SWAP1 POP JUMP JUMPDEST PUSH1 0x0 PUSH1 0x40 DUP3 ADD SWAP1 POP DUP2 DUP2 SUB PUSH1 0x0 DUP4 ADD MSTORE PUSH2 0x1EAA DUP2 DUP6 PUSH2 0x1CCD JUMP JUMPDEST SWAP1 POP PUSH2 0x1EB9 PUSH1 0x20 DUP4 ADD DUP5 PUSH2 0x1AE1 JUMP JUMPDEST SWAP4 SWAP3 POP POP POP JUMP JUMPDEST PUSH1 0x0 DUP2 MLOAD SWAP1 POP SWAP2 SWAP1 POP JUMP JUMPDEST PUSH1 0x0 DUP3 DUP3 MSTORE PUSH1 0x20 DUP3 ADD SWAP1 POP SWAP3 SWAP2 POP POP JUMP JUMPDEST PUSH1 0x0 DUP2 SWAP1 POP PUSH1 0x20 DUP3 ADD SWAP1 POP SWAP2 SWAP1 POP JUMP JUMPDEST PUSH1 0x0 DUP3 DUP3 MSTORE PUSH1 0x20 DUP3 ADD SWAP1 POP SWAP3 SWAP2 POP POP JUMP JUMPDEST PUSH1 0x0 PUSH2 0x1F08 DUP3 PUSH2 0x1C7E JUMP JUMPDEST PUSH2 0x1F12 DUP2 DUP6 PUSH2 0x1EEC JUMP JUMPDEST SWAP4 POP PUSH2 0x1F22 DUP2 DUP6 PUSH1 0x20 DUP7 ADD PUSH2 0x1C9A JUMP JUMPDEST PUSH2 0x1F2B DUP2 PUSH2 0x1662 JUMP JUMPDEST DUP5 ADD SWAP2 POP POP SWAP3 SWAP2 POP POP JUMP JUMPDEST PUSH1 0x0 DUP3 DUP3 MSTORE PUSH1 0x20 DUP3 ADD SWAP1 POP SWAP3 SWAP2 POP POP JUMP JUMPDEST PUSH1 0x0 PUSH2 0x1F52 DUP3 PUSH2 0x1D28 JUMP JUMPDEST PUSH2 0x1F5C DUP2 DUP6 PUSH2 0x1F36 JUMP JUMPDEST SWAP4 POP PUSH2 0x1F67 DUP4 PUSH2 0x1D44 JUMP JUMPDEST DUP1 PUSH1 0x0 JUMPDEST DUP4 DUP2 LT ISZERO PUSH2 0x1F98 JUMPI DUP2 MLOAD PUSH2 0x1F7F DUP9 DUP3 PUSH2 0x1D63 JUMP JUMPDEST SWAP8 POP PUSH2 0x1F8A DUP4 PUSH2 0x1D7B JUMP JUMPDEST SWAP3 POP POP PUSH1 0x1 DUP2 ADD SWAP1 POP PUSH2 0x1F6B JUMP JUMPDEST POP DUP6 SWAP4 POP POP POP POP SWAP3 SWAP2 POP POP JUMP JUMPDEST PUSH2 0x1FAE DUP2 PUSH2 0x1B8A JUMP JUMPDEST DUP3 MSTORE POP POP JUMP JUMPDEST PUSH2 0x1FBD DUP2 PUSH2 0x1BA9 JUMP JUMPDEST DUP3 MSTORE POP POP JUMP JUMPDEST PUSH1 0x0 PUSH1 0xC0 DUP4 ADD PUSH1 0x0 DUP4 ADD MLOAD DUP5 DUP3 SUB PUSH1 0x0 DUP7 ADD MSTORE PUSH2 0x1FE0 DUP3 DUP3 PUSH2 0x1EFD JUMP JUMPDEST SWAP2 POP POP PUSH1 0x20 DUP4 ADD MLOAD PUSH2 0x1FF5 PUSH1 0x20 DUP7 ADD DUP3 PUSH2 0x1D54 JUMP JUMPDEST POP PUSH1 0x40 DUP4 ADD MLOAD DUP5 DUP3 SUB PUSH1 0x40 DUP7 ADD MSTORE PUSH2 0x200D DUP3 DUP3 PUSH2 0x1F47 JUMP JUMPDEST SWAP2 POP POP PUSH1 0x60 DUP4 ADD MLOAD PUSH2 0x2022 PUSH1 0x60 DUP7 ADD DUP3 PUSH2 0x1FA5 JUMP JUMPDEST POP PUSH1 0x80 DUP4 ADD MLOAD PUSH2 0x2035 PUSH1 0x80 DUP7 ADD DUP3 PUSH2 0x1FA5 JUMP JUMPDEST POP PUSH1 0xA0 DUP4 ADD MLOAD PUSH2 0x2048 PUSH1 0xA0 DUP7 ADD DUP3 PUSH2 0x1FB4 JUMP JUMPDEST POP DUP1 SWAP2 POP POP SWAP3 SWAP2 POP POP JUMP JUMPDEST PUSH1 0x0 PUSH2 0x205F DUP4 DUP4 PUSH2 0x1FC3 JUMP JUMPDEST SWAP1 POP SWAP3 SWAP2 POP POP JUMP JUMPDEST PUSH1 0x0 PUSH1 0x20 DUP3 ADD SWAP1 POP SWAP2 SWAP1 POP JUMP JUMPDEST PUSH1 0x0 PUSH2 0x207F DUP3 PUSH2 0x1EC0 JUMP JUMPDEST PUSH2 0x2089 DUP2 DUP6 PUSH2 0x1ECB JUMP JUMPDEST SWAP4 POP DUP4 PUSH1 0x20 DUP3 MUL DUP6 ADD PUSH2 0x209B DUP6 PUSH2 0x1EDC JUMP JUMPDEST DUP1 PUSH1 0x0 JUMPDEST DUP6 DUP2 LT ISZERO PUSH2 0x20D7 JUMPI DUP5 DUP5 SUB DUP10 MSTORE DUP2 MLOAD PUSH2 0x20B8 DUP6 DUP3 PUSH2 0x2053 JUMP JUMPDEST SWAP5 POP PUSH2 0x20C3 DUP4 PUSH2 0x2067 JUMP JUMPDEST SWAP3 POP PUSH1 0x20 DUP11 ADD SWAP10 POP POP PUSH1 0x1 DUP2 ADD SWAP1 POP PUSH2 0x209F JUMP JUMPDEST POP DUP3 SWAP8 POP DUP8 SWAP6 POP POP POP POP POP POP SWAP3 SWAP2 POP POP JUMP JUMPDEST PUSH1 0x0 PUSH1 0x20 DUP3 ADD SWAP1 POP DUP2 DUP2 SUB PUSH1 0x0 DUP4 ADD MSTORE PUSH2 0x2103 DUP2 DUP5 PUSH2 0x2074 JUMP JUMPDEST SWAP1 POP SWAP3 SWAP2 POP POP JUMP JUMPDEST PUSH1 0x0 DUP2 PUSH1 0x60 SHL SWAP1 POP SWAP2 SWAP1 POP JUMP JUMPDEST PUSH1 0x0 PUSH2 0x2123 DUP3 PUSH2 0x210B JUMP JUMPDEST SWAP1 POP SWAP2 SWAP1 POP JUMP JUMPDEST PUSH1 0x0 PUSH2 0x2135 DUP3 PUSH2 0x2118 JUMP JUMPDEST SWAP1 POP SWAP2 SWAP1 POP JUMP JUMPDEST PUSH2 0x214D PUSH2 0x2148 DUP3 PUSH2 0x161A JUMP JUMPDEST PUSH2 0x212A JUMP JUMPDEST DUP3 MSTORE POP POP JUMP JUMPDEST PUSH1 0x0 DUP2 SWAP1 POP SWAP3 SWAP2 POP POP JUMP JUMPDEST PUSH32 0x6D6574617472616E73616374696F6E20566F74696E6720000000000000000000 PUSH1 0x0 DUP3 ADD MSTORE POP JUMP JUMPDEST PUSH1 0x0 PUSH2 0x2194 PUSH1 0x17 DUP4 PUSH2 0x2153 JUMP JUMPDEST SWAP2 POP PUSH2 0x219F DUP3 PUSH2 0x215E JUMP JUMPDEST PUSH1 0x17 DUP3 ADD SWAP1 POP SWAP2 SWAP1 POP JUMP JUMPDEST PUSH1 0x0 PUSH2 0x21B5 DUP3 PUSH2 0x1C7E JUMP JUMPDEST PUSH2 0x21BF DUP2 DUP6 PUSH2 0x2153 JUMP JUMPDEST SWAP4 POP PUSH2 0x21CF DUP2 DUP6 PUSH1 0x20 DUP7 ADD PUSH2 0x1C9A JUMP JUMPDEST DUP1 DUP5 ADD SWAP2 POP POP SWAP3 SWAP2 POP POP JUMP JUMPDEST PUSH1 0x0 DUP2 SWAP1 POP SWAP2 SWAP1 POP JUMP JUMPDEST PUSH2 0x21F6 PUSH2 0x21F1 DUP3 PUSH2 0x179E JUMP JUMPDEST PUSH2 0x21DB JUMP JUMPDEST DUP3 MSTORE POP POP JUMP JUMPDEST PUSH1 0x0 PUSH2 0x2208 DUP3 DUP9 PUSH2 0x213C JUMP JUMPDEST PUSH1 0x14 DUP3 ADD SWAP2 POP PUSH2 0x2217 DUP3 PUSH2 0x2187 JUMP JUMPDEST SWAP2 POP PUSH2 0x2223 DUP3 DUP8 PUSH2 0x213C JUMP JUMPDEST PUSH1 0x14 DUP3 ADD SWAP2 POP PUSH2 0x2233 DUP3 DUP7 PUSH2 0x21AA JUMP JUMPDEST SWAP2 POP PUSH2 0x223F DUP3 DUP6 PUSH2 0x21E5 JUMP JUMPDEST PUSH1 0x20 DUP3 ADD SWAP2 POP PUSH2 0x224F DUP3 DUP5 PUSH2 0x21E5 JUMP JUMPDEST PUSH1 0x20 DUP3 ADD SWAP2 POP DUP2 SWAP1 POP SWAP7 SWAP6 POP POP POP POP POP POP JUMP JUMPDEST PUSH1 0x0 PUSH2 0x226E DUP3 DUP5 PUSH2 0x21AA JUMP JUMPDEST SWAP2 POP DUP2 SWAP1 POP SWAP3 SWAP2 POP POP JUMP JUMPDEST PUSH32 0x54686973206164647265737320646F6573206E6F742065786973742061732061 PUSH1 0x0 DUP3 ADD MSTORE PUSH32 0x2063616E64696461746500000000000000000000000000000000000000000000 PUSH1 0x20 DUP3 ADD MSTORE POP JUMP JUMPDEST PUSH1 0x0 PUSH2 0x22D5 PUSH1 0x2A DUP4 PUSH2 0x1C89 JUMP JUMPDEST SWAP2 POP PUSH2 0x22E0 DUP3 PUSH2 0x2279 JUMP JUMPDEST PUSH1 0x40 DUP3 ADD SWAP1 POP SWAP2 SWAP1 POP JUMP JUMPDEST PUSH1 0x0 PUSH1 0x20 DUP3 ADD SWAP1 POP DUP2 DUP2 SUB PUSH1 0x0 DUP4 ADD MSTORE PUSH2 0x2304 DUP2 PUSH2 0x22C8 JUMP JUMPDEST SWAP1 POP SWAP2 SWAP1 POP JUMP JUMPDEST PUSH32 0x766F74696E672068617320656E64656400000000000000000000000000000000 PUSH1 0x0 DUP3 ADD MSTORE POP JUMP JUMPDEST PUSH1 0x0 PUSH2 0x2341 PUSH1 0x10 DUP4 PUSH2 0x1C89 JUMP JUMPDEST SWAP2 POP PUSH2 0x234C DUP3 PUSH2 0x230B JUMP JUMPDEST PUSH1 0x20 DUP3 ADD SWAP1 POP SWAP2 SWAP1 POP JUMP JUMPDEST PUSH1 0x0 PUSH1 0x20 DUP3 ADD SWAP1 POP DUP2 DUP2 SUB PUSH1 0x0 DUP4 ADD MSTORE PUSH2 0x2370 DUP2 PUSH2 0x2334 JUMP JUMPDEST SWAP1 POP SWAP2 SWAP1 POP JUMP JUMPDEST PUSH32 0x4E487B7100000000000000000000000000000000000000000000000000000000 PUSH1 0x0 MSTORE PUSH1 0x11 PUSH1 0x4 MSTORE PUSH1 0x24 PUSH1 0x0 REVERT JUMPDEST PUSH1 0x0 PUSH2 0x23B1 DUP3 PUSH2 0x179E JUMP JUMPDEST SWAP2 POP PUSH32 0xFFFFFFFFFFFFFFFFFFFFFFFFFFFFFFFFFFFFFFFFFFFFFFFFFFFFFFFFFFFFFFFF DUP3 EQ ISZERO PUSH2 0x23E4 JUMPI PUSH2 0x23E3 PUSH2 0x2377 JUMP JUMPDEST JUMPDEST PUSH1 0x1 DUP3 ADD SWAP1 POP SWAP2 SWAP1 POP JUMP JUMPDEST PUSH32 0x596F7520616C726561647920766F746564000000000000000000000000000000 PUSH1 0x0 DUP3 ADD MSTORE POP JUMP JUMPDEST PUSH1 0x0 PUSH2 0x2425 PUSH1 0x11 DUP4 PUSH2 0x1C89 JUMP JUMPDEST SWAP2 POP PUSH2 0x2430 DUP3 PUSH2 0x23EF JUMP JUMPDEST PUSH1 0x20 DUP3 ADD SWAP1 POP SWAP2 SWAP1 POP JUMP JUMPDEST PUSH1 0x0 PUSH1 0x20 DUP3 ADD SWAP1 POP DUP2 DUP2 SUB PUSH1 0x0 DUP4 ADD MSTORE PUSH2 0x2454 DUP2 PUSH2 0x2418 JUMP JUMPDEST SWAP1 POP SWAP2 SWAP1 POP JUMP JUMPDEST PUSH1 0x0 PUSH1 0x40 DUP3 ADD SWAP1 POP PUSH2 0x2470 PUSH1 0x0 DUP4 ADD DUP6 PUSH2 0x1AD2 JUMP JUMPDEST PUSH2 0x247D PUSH1 0x20 DUP4 ADD DUP5 PUSH2 0x1BB5 JUMP JUMPDEST SWAP4 SWAP3 POP POP POP JUMP JUMPDEST PUSH32 0x4E6F20706F6C6C20637265617465640000000000000000000000000000000000 PUSH1 0x0 DUP3 ADD MSTORE POP JUMP JUMPDEST PUSH1 0x0 PUSH2 0x24BA PUSH1 0xF DUP4 PUSH2 0x1C89 JUMP JUMPDEST SWAP2 POP PUSH2 0x24C5 DUP3 PUSH2 0x2484 JUMP JUMPDEST PUSH1 0x20 DUP3 ADD SWAP1 POP SWAP2 SWAP1 POP JUMP JUMPDEST PUSH1 0x0 PUSH1 0x20 DUP3 ADD SWAP1 POP DUP2 DUP2 SUB PUSH1 0x0 DUP4 ADD MSTORE PUSH2 0x24E9 DUP2 PUSH2 0x24AD JUMP JUMPDEST SWAP1 POP SWAP2 SWAP1 POP JUMP JUMPDEST PUSH32 0x4E487B7100000000000000000000000000000000000000000000000000000000 PUSH1 0x0 MSTORE PUSH1 0x32 PUSH1 0x4 MSTORE PUSH1 0x24 PUSH1 0x0 REVERT JUMPDEST PUSH32 0x79657420746F20637265617465206120706F6C6C000000000000000000000000 PUSH1 0x0 DUP3 ADD MSTORE POP JUMP JUMPDEST PUSH1 0x0 PUSH2 0x2555 PUSH1 0x14 DUP4 PUSH2 0x1C89 JUMP JUMPDEST SWAP2 POP PUSH2 0x2560 DUP3 PUSH2 0x251F JUMP JUMPDEST PUSH1 0x20 DUP3 ADD SWAP1 POP SWAP2 SWAP1 POP JUMP JUMPDEST PUSH1 0x0 PUSH1 0x20 DUP3 ADD SWAP1 POP DUP2 DUP2 SUB PUSH1 0x0 DUP4 ADD MSTORE PUSH2 0x2584 DUP2 PUSH2 0x2548 JUMP JUMPDEST SWAP1 POP SWAP2 SWAP1 POP JUMP JUMPDEST PUSH32 0x4E487B7100000000000000000000000000000000000000000000000000000000 PUSH1 0x0 MSTORE PUSH1 0x1 PUSH1 0x4 MSTORE PUSH1 0x24 PUSH1 0x0 REVERT JUMPDEST PUSH32 0x6D6178696D756D206E6F206F662063616E646964617465207065722073657373 PUSH1 0x0 DUP3 ADD MSTORE PUSH32 0x696F6E2072656769737465726564000000000000000000000000000000000000 PUSH1 0x20 DUP3 ADD MSTORE POP JUMP JUMPDEST PUSH1 0x0 PUSH2 0x2616 PUSH1 0x2E DUP4 PUSH2 0x1C89 JUMP JUMPDEST SWAP2 POP PUSH2 0x2621 DUP3 PUSH2 0x25BA JUMP JUMPDEST PUSH1 0x40 DUP3 ADD SWAP1 POP SWAP2 SWAP1 POP JUMP JUMPDEST PUSH1 0x0 PUSH1 0x20 DUP3 ADD SWAP1 POP DUP2 DUP2 SUB PUSH1 0x0 DUP4 ADD MSTORE PUSH2 0x2645 DUP2 PUSH2 0x2609 JUMP JUMPDEST SWAP1 POP SWAP2 SWAP1 POP JUMP JUMPDEST PUSH1 0x0 PUSH2 0x2657 DUP3 PUSH2 0x1B8A JUMP JUMPDEST SWAP2 POP PUSH4 0xFFFFFFFF DUP3 EQ ISZERO PUSH2 0x266E JUMPI PUSH2 0x266D PUSH2 0x2377 JUMP JUMPDEST JUMPDEST PUSH1 0x1 DUP3 ADD SWAP1 POP SWAP2 SWAP1 POP JUMP JUMPDEST PUSH1 0x0 PUSH1 0x20 DUP3 ADD SWAP1 POP PUSH2 0x268E PUSH1 0x0 DUP4 ADD DUP5 PUSH2 0x1AD2 JUMP JUMPDEST SWAP3 SWAP2 POP POP JUMP JUMPDEST PUSH32 0x4E487B7100000000000000000000000000000000000000000000000000000000 PUSH1 0x0 MSTORE PUSH1 0x22 PUSH1 0x4 MSTORE PUSH1 0x24 PUSH1 0x0 REVERT JUMPDEST PUSH1 0x0 PUSH1 0x2 DUP3 DIV SWAP1 POP PUSH1 0x1 DUP3 AND DUP1 PUSH2 0x26DB JUMPI PUSH1 0x7F DUP3 AND SWAP2 POP JUMPDEST PUSH1 0x20 DUP3 LT DUP2 EQ ISZERO PUSH2 0x26EF JUMPI PUSH2 0x26EE PUSH2 0x2694 JUMP JUMPDEST JUMPDEST POP SWAP2 SWAP1 POP JUMP JUMPDEST PUSH32 0x6E6F74207468652063686169726D616E00000000000000000000000000000000 PUSH1 0x0 DUP3 ADD MSTORE POP JUMP JUMPDEST PUSH1 0x0 PUSH2 0x272B PUSH1 0x10 DUP4 PUSH2 0x1C89 JUMP JUMPDEST SWAP2 POP PUSH2 0x2736 DUP3 PUSH2 0x26F5 JUMP JUMPDEST PUSH1 0x20 DUP3 ADD SWAP1 POP SWAP2 SWAP1 POP JUMP JUMPDEST PUSH1 0x0 PUSH1 0x20 DUP3 ADD SWAP1 POP DUP2 DUP2 SUB PUSH1 0x0 DUP4 ADD MSTORE PUSH2 0x275A DUP2 PUSH2 0x271E JUMP JUMPDEST SWAP1 POP SWAP2 SWAP1 POP JUMP JUMPDEST PUSH1 0x0 DUP2 SWAP1 POP DUP2 PUSH1 0x0 MSTORE PUSH1 0x20 PUSH1 0x0 KECCAK256 SWAP1 POP SWAP2 SWAP1 POP JUMP JUMPDEST PUSH1 0x0 DUP2 SLOAD PUSH2 0x2783 DUP2 PUSH2 0x26C3 JUMP JUMPDEST PUSH2 0x278D DUP2 DUP7 PUSH2 0x2153 JUMP JUMPDEST SWAP5 POP PUSH1 0x1 DUP3 AND PUSH1 0x0 DUP2 EQ PUSH2 0x27A8 JUMPI PUSH1 0x1 DUP2 EQ PUSH2 0x27B9 JUMPI PUSH2 0x27EC JUMP JUMPDEST PUSH1 0xFF NOT DUP4 AND DUP7 MSTORE DUP2 DUP7 ADD SWAP4 POP PUSH2 0x27EC JUMP JUMPDEST PUSH2 0x27C2 DUP6 PUSH2 0x2761 JUMP JUMPDEST PUSH1 0x0 JUMPDEST DUP4 DUP2 LT ISZERO PUSH2 0x27E4 JUMPI DUP2 SLOAD DUP2 DUP10 ADD MSTORE PUSH1 0x1 DUP3 ADD SWAP2 POP PUSH1 0x20 DUP2 ADD SWAP1 POP PUSH2 0x27C5 JUMP JUMPDEST DUP4 DUP9 ADD SWAP6 POP POP POP JUMPDEST POP POP POP SWAP3 SWAP2 POP POP JUMP JUMPDEST PUSH1 0x0 PUSH2 0x2801 DUP3 DUP5 PUSH2 0x2776 JUMP JUMPDEST SWAP2 POP DUP2 SWAP1 POP SWAP3 SWAP2 POP POP JUMP JUMPDEST PUSH1 0x0 PUSH1 0xFF DUP3 AND SWAP1 POP SWAP2 SWAP1 POP JUMP JUMPDEST PUSH1 0x0 PUSH2 0x2824 DUP3 PUSH2 0x280C JUMP JUMPDEST SWAP2 POP PUSH2 0x282F DUP4 PUSH2 0x280C JUMP JUMPDEST SWAP3 POP DUP3 PUSH1 0xFF SUB DUP3 GT ISZERO PUSH2 0x2845 JUMPI PUSH2 0x2844 PUSH2 0x2377 JUMP JUMPDEST JUMPDEST DUP3 DUP3 ADD SWAP1 POP SWAP3 SWAP2 POP POP JUMP JUMPDEST PUSH32 0x19457468657265756D205369676E6564204D6573736167653A0A333200000000 PUSH1 0x0 DUP3 ADD MSTORE POP JUMP JUMPDEST PUSH1 0x0 PUSH2 0x2886 PUSH1 0x1C DUP4 PUSH2 0x2153 JUMP JUMPDEST SWAP2 POP PUSH2 0x2891 DUP3 PUSH2 0x2850 JUMP JUMPDEST PUSH1 0x1C DUP3 ADD SWAP1 POP SWAP2 SWAP1 POP JUMP JUMPDEST PUSH1 0x0 DUP2 SWAP1 POP SWAP2 SWAP1 POP JUMP JUMPDEST PUSH2 0x28B7 PUSH2 0x28B2 DUP3 PUSH2 0x1857 JUMP JUMPDEST PUSH2 0x289C JUMP JUMPDEST DUP3 MSTORE POP POP JUMP JUMPDEST PUSH1 0x0 PUSH2 0x28C8 DUP3 PUSH2 0x2879 JUMP JUMPDEST SWAP2 POP PUSH2 0x28D4 DUP3 DUP5 PUSH2 0x28A6 JUMP JUMPDEST PUSH1 0x20 DUP3 ADD SWAP2 POP DUP2 SWAP1 POP SWAP3 SWAP2 POP POP JUMP JUMPDEST PUSH2 0x28EC DUP2 PUSH2 0x280C JUMP JUMPDEST DUP3 MSTORE POP POP JUMP JUMPDEST PUSH1 0x0 PUSH1 0x80 DUP3 ADD SWAP1 POP PUSH2 0x2907 PUSH1 0x0 DUP4 ADD DUP8 PUSH2 0x1861 JUMP JUMPDEST PUSH2 0x2914 PUSH1 0x20 DUP4 ADD DUP7 PUSH2 0x28E3 JUMP JUMPDEST PUSH2 0x2921 PUSH1 0x40 DUP4 ADD DUP6 PUSH2 0x1861 JUMP JUMPDEST PUSH2 0x292E PUSH1 0x60 DUP4 ADD DUP5 PUSH2 0x1861 JUMP JUMPDEST SWAP6 SWAP5 POP POP POP POP POP JUMP INVALID LOG2 PUSH5 0x6970667358 0x22 SLT KECCAK256 DUP9 LT 0x2C 0xD5 DUP15 LOG0 0xD6 0x25 COINBASE KECCAK256 EXP ADDMOD SWAP12 ADD 0x26 SWAP3 ISZERO 0xC6 0xBB 0xF6 0xA6 PC INVALID OR 0xC8 SWAP10 PUSH3 0xCD8B0 EQ 0x2D PUSH5 0x736F6C6343 STOP ADDMOD EXP STOP CALLER "
				},
				"gasEstimates": {
					"creation": {
						"codeDepositCost": "2121000",
						"executionCost": "2258",
						"totalCost": "2123258"
					},
					"external": {
						"AddCandidate(address,string)": "infinite",
						"AllCandidates(string)": "infinite",
						"NoOfRegisteredCandidates(string)": "infinite",
						"VotingKey(uint256)": "infinite",
						"createPoll(string,uint32)": "infinite",
						"getStructProps()": "infinite",
						"metaVotingHash(address,string,uint256,uint256)": "infinite",
						"replayNonce(address)": "2925",
						"revealWinner(string)": "infinite",
						"setVotingState(string)": "infinite",
						"vote(address,string,uint256,bytes)": "infinite",
						"votingPoll(string)": "infinite"
					},
					"internal": {
						"countVote(address,string memory,address)": "infinite",
						"getPosition(string memory,uint256)": "infinite",
						"getSigner(bytes32,bytes memory)": "infinite"
					}
				},
				"methodIdentifiers": {
					"AddCandidate(address,string)": "57f53967",
					"AllCandidates(string)": "af7cbc0d",
					"NoOfRegisteredCandidates(string)": "8579cacd",
					"VotingKey(uint256)": "ae928e3e",
					"createPoll(string,uint32)": "f762f4c0",
					"getStructProps()": "f8437061",
					"metaVotingHash(address,string,uint256,uint256)": "01ff993b",
					"replayNonce(address)": "67d407df",
					"revealWinner(string)": "4fcf1f39",
					"setVotingState(string)": "f0e4de22",
					"vote(address,string,uint256,bytes)": "12f0da4b",
					"votingPoll(string)": "63ee965a"
				}
			},
			"storageLayout": {
				"storage": [
					{
						"astId": 42,
						"contract": "src/voting.sol:Voting",
						"label": "VotingKey",
						"offset": 0,
						"slot": "0",
						"type": "t_array(t_string_storage)dyn_storage"
					},
					{
						"astId": 47,
						"contract": "src/voting.sol:Voting",
						"label": "votingPoll",
						"offset": 0,
						"slot": "1",
						"type": "t_mapping(t_string_memory_ptr,t_struct(VotingPoll)25_storage)"
					},
					{
						"astId": 51,
						"contract": "src/voting.sol:Voting",
						"label": "replayNonce",
						"offset": 0,
						"slot": "2",
						"type": "t_mapping(t_address,t_uint256)"
					}
				],
				"types": {
					"t_address": {
						"encoding": "inplace",
						"label": "address",
						"numberOfBytes": "20"
					},
					"t_array(t_address)dyn_storage": {
						"base": "t_address",
						"encoding": "dynamic_array",
						"label": "address[]",
						"numberOfBytes": "32"
					},
					"t_array(t_string_storage)dyn_storage": {
						"base": "t_string_storage",
						"encoding": "dynamic_array",
						"label": "string[]",
						"numberOfBytes": "32"
					},
					"t_bool": {
						"encoding": "inplace",
						"label": "bool",
						"numberOfBytes": "1"
					},
					"t_mapping(t_address,t_bool)": {
						"encoding": "mapping",
						"key": "t_address",
						"label": "mapping(address => bool)",
						"numberOfBytes": "32",
						"value": "t_bool"
					},
					"t_mapping(t_address,t_uint256)": {
						"encoding": "mapping",
						"key": "t_address",
						"label": "mapping(address => uint256)",
						"numberOfBytes": "32",
						"value": "t_uint256"
					},
					"t_mapping(t_string_memory_ptr,t_struct(VotingPoll)25_storage)": {
						"encoding": "mapping",
						"key": "t_string_memory_ptr",
						"label": "mapping(string => struct Voting.VotingPoll)",
						"numberOfBytes": "32",
						"value": "t_struct(VotingPoll)25_storage"
					},
					"t_string_memory_ptr": {
						"encoding": "bytes",
						"label": "string",
						"numberOfBytes": "32"
					},
					"t_string_storage": {
						"encoding": "bytes",
						"label": "string",
						"numberOfBytes": "32"
					},
					"t_struct(VotingPoll)25_storage": {
						"encoding": "inplace",
						"label": "struct Voting.VotingPoll",
						"members": [
							{
								"astId": 3,
								"contract": "src/voting.sol:Voting",
								"label": "chairman",
								"offset": 0,
								"slot": "0",
								"type": "t_address"
							},
							{
								"astId": 6,
								"contract": "src/voting.sol:Voting",
								"label": "candidates",
								"offset": 0,
								"slot": "1",
								"type": "t_array(t_address)dyn_storage"
							},
							{
								"astId": 8,
								"contract": "src/voting.sol:Voting",
								"label": "maxNoOfCandidates",
								"offset": 0,
								"slot": "2",
								"type": "t_uint32"
							},
							{
								"astId": 10,
								"contract": "src/voting.sol:Voting",
								"label": "currentNoOfCandidates",
								"offset": 4,
								"slot": "2",
								"type": "t_uint32"
							},
							{
								"astId": 14,
								"contract": "src/voting.sol:Voting",
								"label": "CandidateStatus",
								"offset": 0,
								"slot": "3",
								"type": "t_mapping(t_address,t_bool)"
							},
							{
								"astId": 18,
								"contract": "src/voting.sol:Voting",
								"label": "hasVoted",
								"offset": 0,
								"slot": "4",
								"type": "t_mapping(t_address,t_bool)"
							},
							{
								"astId": 22,
								"contract": "src/voting.sol:Voting",
								"label": "CandidateVote",
								"offset": 0,
								"slot": "5",
								"type": "t_mapping(t_address,t_uint256)"
							},
							{
								"astId": 24,
								"contract": "src/voting.sol:Voting",
								"label": "voting",
								"offset": 0,
								"slot": "6",
								"type": "t_bool"
							}
						],
						"numberOfBytes": "224"
					},
					"t_uint256": {
						"encoding": "inplace",
						"label": "uint256",
						"numberOfBytes": "32"
					},
					"t_uint32": {
						"encoding": "inplace",
						"label": "uint32",
						"numberOfBytes": "4"
					}
				}
			},
			"userdoc": {
				"kind": "user",
				"methods": {},
				"version": 1
			}
		}
	}
}