{
	"src/voting.sol": {
		"Voting": {
			"abi": [
				{
					"anonymous": false,
					"inputs": [
						{
							"indexed": false,
							"internalType": "address",
							"name": "NewCandidate",
							"type": "address"
						}
					],
					"name": "becameCandidate",
					"type": "event"
				},
				{
					"anonymous": false,
					"inputs": [
						{
							"indexed": false,
							"internalType": "address",
							"name": "_candidate",
							"type": "address"
						},
						{
							"indexed": false,
							"internalType": "bool",
							"name": "status",
							"type": "bool"
						}
					],
					"name": "voted",
					"type": "event"
				},
				{
					"inputs": [
						{
							"internalType": "address",
							"name": "_newCandidate",
							"type": "address"
						},
						{
							"internalType": "string",
							"name": "_name",
							"type": "string"
						}
					],
					"name": "AddCandidate",
					"outputs": [],
					"stateMutability": "nonpayable",
					"type": "function"
				},
				{
					"inputs": [
						{
							"internalType": "string",
							"name": "_name",
							"type": "string"
						}
					],
					"name": "AllCandidates",
					"outputs": [
						{
							"internalType": "address[]",
							"name": "_candidates",
							"type": "address[]"
						}
					],
					"stateMutability": "view",
					"type": "function"
				},
				{
					"inputs": [
						{
							"internalType": "string",
							"name": "_name",
							"type": "string"
						}
					],
					"name": "NoOfRegisteredCandidates",
					"outputs": [
						{
							"internalType": "uint256",
							"name": "",
							"type": "uint256"
						}
					],
					"stateMutability": "view",
					"type": "function"
				},
				{
					"inputs": [
						{
							"internalType": "string",
							"name": "_name",
							"type": "string"
						},
						{
							"internalType": "uint16",
							"name": "ExpectedNoOfCandidate",
							"type": "uint16"
						}
					],
					"name": "createPoll",
					"outputs": [
						{
							"internalType": "string",
							"name": "",
							"type": "string"
						},
						{
							"internalType": "uint256",
							"name": "Candidate",
							"type": "uint256"
						}
					],
					"stateMutability": "nonpayable",
					"type": "function"
				},
				{
					"inputs": [
						{
							"internalType": "address",
							"name": "Cand",
							"type": "address"
						},
						{
							"internalType": "string",
							"name": "_name",
							"type": "string"
						},
						{
							"internalType": "uint256",
							"name": "nonce",
							"type": "uint256"
						},
						{
							"internalType": "uint256",
							"name": "time",
							"type": "uint256"
						}
					],
					"name": "metaVotingHash",
					"outputs": [
						{
							"internalType": "bytes32",
							"name": "",
							"type": "bytes32"
						}
					],
					"stateMutability": "view",
					"type": "function"
				},
				{
					"inputs": [
						{
							"internalType": "address",
							"name": "",
							"type": "address"
						}
					],
					"name": "replayNonce",
					"outputs": [
						{
							"internalType": "uint256",
							"name": "",
							"type": "uint256"
						}
					],
					"stateMutability": "view",
					"type": "function"
				},
				{
					"inputs": [
						{
							"internalType": "string",
							"name": "_name",
							"type": "string"
						}
					],
					"name": "revealWinner",
					"outputs": [
						{
							"internalType": "uint256[]",
							"name": "CV",
							"type": "uint256[]"
						},
						{
							"internalType": "address",
							"name": "",
							"type": "address"
						},
						{
							"internalType": "uint256",
							"name": "",
							"type": "uint256"
						}
					],
					"stateMutability": "view",
					"type": "function"
				},
				{
					"inputs": [
						{
							"internalType": "string",
							"name": "_name",
							"type": "string"
						}
					],
					"name": "setVotingState",
					"outputs": [],
					"stateMutability": "nonpayable",
					"type": "function"
				},
				{
					"inputs": [
						{
							"internalType": "address",
							"name": "Cand",
							"type": "address"
						},
						{
							"internalType": "string",
							"name": "_name",
							"type": "string"
						}
					],
					"name": "vote",
					"outputs": [],
					"stateMutability": "nonpayable",
					"type": "function"
				},
				{
					"inputs": [
						{
							"internalType": "string",
							"name": "",
							"type": "string"
						}
					],
					"name": "votingPoll",
					"outputs": [
						{
							"internalType": "address",
							"name": "chairman",
							"type": "address"
						},
						{
							"internalType": "uint32",
							"name": "maxNoOfCandidates",
							"type": "uint32"
						},
						{
							"internalType": "uint64",
							"name": "startTime",
							"type": "uint64"
						},
						{
							"internalType": "uint64",
							"name": "amountGenerated",
							"type": "uint64"
						},
						{
							"internalType": "uint16",
							"name": "currentNoOfCandidates",
							"type": "uint16"
						},
						{
							"internalType": "bool",
							"name": "voting",
							"type": "bool"
						}
					],
					"stateMutability": "view",
					"type": "function"
				},
				{
					"inputs": [
						{
							"internalType": "string",
							"name": "_name",
							"type": "string"
						}
					],
					"name": "withdawFees",
					"outputs": [],
					"stateMutability": "payable",
					"type": "function"
				},
				{
					"stateMutability": "payable",
					"type": "receive"
				}
			],
			"devdoc": {
				"kind": "dev",
				"methods": {},
				"version": 1
			},
			"evm": {
				"assembly": "    /* \"src/voting.sol\":63:5343  contract Voting{... */\n  mstore(0x40, 0x80)\n  callvalue\n  dup1\n  iszero\n  tag_1\n  jumpi\n  0x00\n  dup1\n  revert\ntag_1:\n  pop\n  dataSize(sub_0)\n  dup1\n  dataOffset(sub_0)\n  0x00\n  codecopy\n  0x00\n  return\nstop\n\nsub_0: assembly {\n        /* \"src/voting.sol\":63:5343  contract Voting{... */\n      mstore(0x40, 0x80)\n      jumpi(tag_1, lt(calldatasize, 0x04))\n      shr(0xe0, calldataload(0x00))\n      dup1\n      0x63ee965a\n      gt\n      tag_14\n      jumpi\n      dup1\n      0x63ee965a\n      eq\n      tag_8\n      jumpi\n      dup1\n      0x67d407df\n      eq\n      tag_9\n      jumpi\n      dup1\n      0x82e305ab\n      eq\n      tag_10\n      jumpi\n      dup1\n      0x8579cacd\n      eq\n      tag_11\n      jumpi\n      dup1\n      0xaf7cbc0d\n      eq\n      tag_12\n      jumpi\n      dup1\n      0xf0e4de22\n      eq\n      tag_13\n      jumpi\n      jump(tag_2)\n    tag_14:\n      dup1\n      0x01ff993b\n      eq\n      tag_3\n      jumpi\n      dup1\n      0x0968d4b1\n      eq\n      tag_4\n      jumpi\n      dup1\n      0x1bf533a4\n      eq\n      tag_5\n      jumpi\n      dup1\n      0x4fcf1f39\n      eq\n      tag_6\n      jumpi\n      dup1\n      0x57f53967\n      eq\n      tag_7\n      jumpi\n      jump(tag_2)\n    tag_1:\n      jumpi(tag_2, calldatasize)\n      stop\n    tag_2:\n      0x00\n      dup1\n      revert\n        /* \"src/voting.sol\":4494:4722  function metaVotingHash(address Cand, string memory _name, uint256 nonce, uint256 time) public view returns(bytes32){... */\n    tag_3:\n      callvalue\n      dup1\n      iszero\n      tag_17\n      jumpi\n      0x00\n      dup1\n      revert\n    tag_17:\n      pop\n      tag_18\n      0x04\n      dup1\n      calldatasize\n      sub\n      dup2\n      add\n      swap1\n      tag_19\n      swap2\n      swap1\n      tag_20\n      jump\t// in\n    tag_19:\n      tag_21\n      jump\t// in\n    tag_18:\n      mload(0x40)\n      tag_22\n      swap2\n      swap1\n      tag_23\n      jump\t// in\n    tag_22:\n      mload(0x40)\n      dup1\n      swap2\n      sub\n      swap1\n      return\n        /* \"src/voting.sol\":1482:1771  function createPoll(string memory _name, uint16 ExpectedNoOfCandidate) external returns(string memory, uint Candidate){... */\n    tag_4:\n      callvalue\n      dup1\n      iszero\n      tag_24\n      jumpi\n      0x00\n      dup1\n      revert\n    tag_24:\n      pop\n      tag_25\n      0x04\n      dup1\n      calldatasize\n      sub\n      dup2\n      add\n      swap1\n      tag_26\n      swap2\n      swap1\n      tag_27\n      jump\t// in\n    tag_26:\n      tag_28\n      jump\t// in\n    tag_25:\n      mload(0x40)\n      tag_29\n      swap3\n      swap2\n      swap1\n      tag_30\n      jump\t// in\n    tag_29:\n      mload(0x40)\n      dup1\n      swap2\n      sub\n      swap1\n      return\n        /* \"src/voting.sol\":2290:2875  function vote(address Cand, string memory _name /*, uint256 nonce, bytes memory signature*/) external  isCandidate(Cand, _name) StillVoting(_name){... */\n    tag_5:\n      callvalue\n      dup1\n      iszero\n      tag_31\n      jumpi\n      0x00\n      dup1\n      revert\n    tag_31:\n      pop\n      tag_32\n      0x04\n      dup1\n      calldatasize\n      sub\n      dup2\n      add\n      swap1\n      tag_33\n      swap2\n      swap1\n      tag_34\n      jump\t// in\n    tag_33:\n      tag_35\n      jump\t// in\n    tag_32:\n      stop\n        /* \"src/voting.sol\":3481:4057  function revealWinner( string memory _name) external view returns ( uint[] memory CV, address, uint){... */\n    tag_6:\n      callvalue\n      dup1\n      iszero\n      tag_36\n      jumpi\n      0x00\n      dup1\n      revert\n    tag_36:\n      pop\n      tag_37\n      0x04\n      dup1\n      calldatasize\n      sub\n      dup2\n      add\n      swap1\n      tag_38\n      swap2\n      swap1\n      tag_39\n      jump\t// in\n    tag_38:\n      tag_40\n      jump\t// in\n    tag_37:\n      mload(0x40)\n      tag_41\n      swap4\n      swap3\n      swap2\n      swap1\n      tag_42\n      jump\t// in\n    tag_41:\n      mload(0x40)\n      dup1\n      swap2\n      sub\n      swap1\n      return\n        /* \"src/voting.sol\":1775:2287  function AddCandidate(address _newCandidate, string memory _name) external{... */\n    tag_7:\n      callvalue\n      dup1\n      iszero\n      tag_43\n      jumpi\n      0x00\n      dup1\n      revert\n    tag_43:\n      pop\n      tag_44\n      0x04\n      dup1\n      calldatasize\n      sub\n      dup2\n      add\n      swap1\n      tag_45\n      swap2\n      swap1\n      tag_34\n      jump\t// in\n    tag_45:\n      tag_46\n      jump\t// in\n    tag_44:\n      stop\n        /* \"src/voting.sol\":670:717  mapping(string => VotingPoll) public votingPoll */\n    tag_8:\n      callvalue\n      dup1\n      iszero\n      tag_47\n      jumpi\n      0x00\n      dup1\n      revert\n    tag_47:\n      pop\n      tag_48\n      0x04\n      dup1\n      calldatasize\n      sub\n      dup2\n      add\n      swap1\n      tag_49\n      swap2\n      swap1\n      tag_39\n      jump\t// in\n    tag_49:\n      tag_50\n      jump\t// in\n    tag_48:\n      mload(0x40)\n      tag_51\n      swap7\n      swap6\n      swap5\n      swap4\n      swap3\n      swap2\n      swap1\n      tag_52\n      jump\t// in\n    tag_51:\n      mload(0x40)\n      dup1\n      swap2\n      sub\n      swap1\n      return\n        /* \"src/voting.sol\":723:770  mapping (address => uint256) public replayNonce */\n    tag_9:\n      callvalue\n      dup1\n      iszero\n      tag_53\n      jumpi\n      0x00\n      dup1\n      revert\n    tag_53:\n      pop\n      tag_54\n      0x04\n      dup1\n      calldatasize\n      sub\n      dup2\n      add\n      swap1\n      tag_55\n      swap2\n      swap1\n      tag_56\n      jump\t// in\n    tag_55:\n      tag_57\n      jump\t// in\n    tag_54:\n      mload(0x40)\n      tag_58\n      swap2\n      swap1\n      tag_59\n      jump\t// in\n    tag_58:\n      mload(0x40)\n      dup1\n      swap2\n      sub\n      swap1\n      return\n        /* \"src/voting.sol\":4264:4489  function withdawFees(string memory _name) external payable{... */\n    tag_10:\n      tag_60\n      0x04\n      dup1\n      calldatasize\n      sub\n      dup2\n      add\n      swap1\n      tag_61\n      swap2\n      swap1\n      tag_39\n      jump\t// in\n    tag_61:\n      tag_62\n      jump\t// in\n    tag_60:\n      stop\n        /* \"src/voting.sol\":3126:3297  function NoOfRegisteredCandidates( string memory _name) public view returns(uint){... */\n    tag_11:\n      callvalue\n      dup1\n      iszero\n      tag_63\n      jumpi\n      0x00\n      dup1\n      revert\n    tag_63:\n      pop\n      tag_64\n      0x04\n      dup1\n      calldatasize\n      sub\n      dup2\n      add\n      swap1\n      tag_65\n      swap2\n      swap1\n      tag_39\n      jump\t// in\n    tag_65:\n      tag_66\n      jump\t// in\n    tag_64:\n      mload(0x40)\n      tag_67\n      swap2\n      swap1\n      tag_59\n      jump\t// in\n    tag_67:\n      mload(0x40)\n      dup1\n      swap2\n      sub\n      swap1\n      return\n        /* \"src/voting.sol\":3305:3478  function AllCandidates( string memory _name) public view returns(address[] memory _candidates){... */\n    tag_12:\n      callvalue\n      dup1\n      iszero\n      tag_68\n      jumpi\n      0x00\n      dup1\n      revert\n    tag_68:\n      pop\n      tag_69\n      0x04\n      dup1\n      calldatasize\n      sub\n      dup2\n      add\n      swap1\n      tag_70\n      swap2\n      swap1\n      tag_39\n      jump\t// in\n    tag_70:\n      tag_71\n      jump\t// in\n    tag_69:\n      mload(0x40)\n      tag_72\n      swap2\n      swap1\n      tag_73\n      jump\t// in\n    tag_72:\n      mload(0x40)\n      dup1\n      swap2\n      sub\n      swap1\n      return\n        /* \"src/voting.sol\":4060:4262  function setVotingState( string memory _name) external {... */\n    tag_13:\n      callvalue\n      dup1\n      iszero\n      tag_74\n      jumpi\n      0x00\n      dup1\n      revert\n    tag_74:\n      pop\n      tag_75\n      0x04\n      dup1\n      calldatasize\n      sub\n      dup2\n      add\n      swap1\n      tag_76\n      swap2\n      swap1\n      tag_39\n      jump\t// in\n    tag_76:\n      tag_77\n      jump\t// in\n    tag_75:\n      stop\n        /* \"src/voting.sol\":4494:4722  function metaVotingHash(address Cand, string memory _name, uint256 nonce, uint256 time) public view returns(bytes32){... */\n    tag_21:\n        /* \"src/voting.sol\":4602:4609  bytes32 */\n      0x00\n        /* \"src/voting.sol\":4658:4662  this */\n      address\n        /* \"src/voting.sol\":4691:4695  Cand */\n      dup6\n        /* \"src/voting.sol\":4697:4702  _name */\n      dup6\n        /* \"src/voting.sol\":4704:4709  nonce */\n      dup6\n        /* \"src/voting.sol\":4711:4715  time */\n      dup6\n        /* \"src/voting.sol\":4633:4716  abi.encodePacked(address(this),\"metatransaction Voting \", Cand, _name, nonce, time) */\n      add(0x20, mload(0x40))\n      tag_79\n      swap6\n      swap5\n      swap4\n      swap3\n      swap2\n      swap1\n      tag_80\n      jump\t// in\n    tag_79:\n      mload(0x40)\n      0x20\n      dup2\n      dup4\n      sub\n      sub\n      dup2\n      mstore\n      swap1\n      0x40\n      mstore\n        /* \"src/voting.sol\":4623:4717  keccak256(abi.encodePacked(address(this),\"metatransaction Voting \", Cand, _name, nonce, time)) */\n      dup1\n      mload\n      swap1\n      0x20\n      add\n      keccak256\n        /* \"src/voting.sol\":4616:4717  return keccak256(abi.encodePacked(address(this),\"metatransaction Voting \", Cand, _name, nonce, time)) */\n      swap1\n      pop\n        /* \"src/voting.sol\":4494:4722  function metaVotingHash(address Cand, string memory _name, uint256 nonce, uint256 time) public view returns(bytes32){... */\n      swap5\n      swap4\n      pop\n      pop\n      pop\n      pop\n      jump\t// out\n        /* \"src/voting.sol\":1482:1771  function createPoll(string memory _name, uint16 ExpectedNoOfCandidate) external returns(string memory, uint Candidate){... */\n    tag_28:\n        /* \"src/voting.sol\":1570:1583  string memory */\n      0x60\n        /* \"src/voting.sol\":1585:1599  uint Candidate */\n      0x00\n        /* \"src/voting.sol\":1606:1627  VotingPoll storage VP */\n      dup1\n        /* \"src/voting.sol\":1630:1640  votingPoll */\n      0x00\n        /* \"src/voting.sol\":1641:1646  _name */\n      dup6\n        /* \"src/voting.sol\":1630:1647  votingPoll[_name] */\n      mload(0x40)\n      tag_82\n      swap2\n      swap1\n      tag_83\n      jump\t// in\n    tag_82:\n      swap1\n      dup2\n      mstore\n      0x20\n      add\n      mload(0x40)\n      dup1\n      swap2\n      sub\n      swap1\n      keccak256\n        /* \"src/voting.sol\":1606:1647  VotingPoll storage VP = votingPoll[_name] */\n      swap1\n      pop\n        /* \"src/voting.sol\":1667:1677  msg.sender */\n      caller\n        /* \"src/voting.sol\":1653:1655  VP */\n      dup2\n        /* \"src/voting.sol\":1653:1664  VP.chairman */\n      0x00\n      add\n      0x00\n        /* \"src/voting.sol\":1653:1677  VP.chairman = msg.sender */\n      0x0100\n      exp\n      dup2\n      sload\n      dup2\n      0xffffffffffffffffffffffffffffffffffffffff\n      mul\n      not\n      and\n      swap1\n      dup4\n      0xffffffffffffffffffffffffffffffffffffffff\n      and\n      mul\n      or\n      swap1\n      sstore\n      pop\n        /* \"src/voting.sol\":1705:1726  ExpectedNoOfCandidate */\n      dup4\n        /* \"src/voting.sol\":1683:1726  VP.maxNoOfCandidates =ExpectedNoOfCandidate */\n      0xffff\n      and\n        /* \"src/voting.sol\":1683:1685  VP */\n      dup2\n        /* \"src/voting.sol\":1683:1703  VP.maxNoOfCandidates */\n      0x02\n      add\n      0x00\n        /* \"src/voting.sol\":1683:1726  VP.maxNoOfCandidates =ExpectedNoOfCandidate */\n      0x0100\n      exp\n      dup2\n      sload\n      dup2\n      0xffffffff\n      mul\n      not\n      and\n      swap1\n      dup4\n      0xffffffff\n      and\n      mul\n      or\n      swap1\n      sstore\n      pop\n        /* \"src/voting.sol\":1739:1744  _name */\n      dup5\n        /* \"src/voting.sol\":1746:1767  ExpectedNoOfCandidate */\n      dup5\n        /* \"src/voting.sol\":1732:1768  return(_name, ExpectedNoOfCandidate) */\n      dup1\n      0xffff\n      and\n      swap1\n      pop\n      swap3\n      pop\n      swap3\n      pop\n      pop\n        /* \"src/voting.sol\":1482:1771  function createPoll(string memory _name, uint16 ExpectedNoOfCandidate) external returns(string memory, uint Candidate){... */\n      swap3\n      pop\n      swap3\n      swap1\n      pop\n      jump\t// out\n        /* \"src/voting.sol\":2290:2875  function vote(address Cand, string memory _name /*, uint256 nonce, bytes memory signature*/) external  isCandidate(Cand, _name) StillVoting(_name){... */\n    tag_35:\n        /* \"src/voting.sol\":2405:2409  Cand */\n      dup2\n        /* \"src/voting.sol\":2411:2416  _name */\n      dup2\n        /* \"src/voting.sol\":1050:1071  VotingPoll storage VP */\n      0x00\n        /* \"src/voting.sol\":1074:1084  votingPoll */\n      dup1\n        /* \"src/voting.sol\":1085:1090  _name */\n      dup3\n        /* \"src/voting.sol\":1074:1091  votingPoll[_name] */\n      mload(0x40)\n      tag_85\n      swap2\n      swap1\n      tag_83\n      jump\t// in\n    tag_85:\n      swap1\n      dup2\n      mstore\n      0x20\n      add\n      mload(0x40)\n      dup1\n      swap2\n      sub\n      swap1\n      keccak256\n        /* \"src/voting.sol\":1050:1091  VotingPoll storage VP = votingPoll[_name] */\n      swap1\n      pop\n        /* \"src/voting.sol\":1131:1135  true */\n      0x01\n        /* \"src/voting.sol\":1105:1135  VP.CandidateStatus[Cand]==true */\n      iszero\n      iszero\n        /* \"src/voting.sol\":1105:1107  VP */\n      dup2\n        /* \"src/voting.sol\":1105:1123  VP.CandidateStatus */\n      0x03\n      add\n        /* \"src/voting.sol\":1105:1129  VP.CandidateStatus[Cand] */\n      0x00\n        /* \"src/voting.sol\":1124:1128  Cand */\n      dup6\n        /* \"src/voting.sol\":1105:1129  VP.CandidateStatus[Cand] */\n      0xffffffffffffffffffffffffffffffffffffffff\n      and\n      0xffffffffffffffffffffffffffffffffffffffff\n      and\n      dup2\n      mstore\n      0x20\n      add\n      swap1\n      dup2\n      mstore\n      0x20\n      add\n      0x00\n      keccak256\n      0x00\n      swap1\n      sload\n      swap1\n      0x0100\n      exp\n      swap1\n      div\n      0xff\n      and\n        /* \"src/voting.sol\":1105:1135  VP.CandidateStatus[Cand]==true */\n      iszero\n      iszero\n      eq\n        /* \"src/voting.sol\":1097:1181  require(VP.CandidateStatus[Cand]==true,'This address does not exist as a candidate') */\n      tag_86\n      jumpi\n      mload(0x40)\n      0x08c379a000000000000000000000000000000000000000000000000000000000\n      dup2\n      mstore\n      0x04\n      add\n      tag_87\n      swap1\n      tag_88\n      jump\t// in\n    tag_87:\n      mload(0x40)\n      dup1\n      swap2\n      sub\n      swap1\n      revert\n    tag_86:\n        /* \"src/voting.sol\":2430:2435  _name */\n      dup4\n        /* \"src/voting.sol\":1242:1263  VotingPoll storage VP */\n      0x00\n        /* \"src/voting.sol\":1266:1276  votingPoll */\n      dup1\n        /* \"src/voting.sol\":1277:1282  _name */\n      dup3\n        /* \"src/voting.sol\":1266:1283  votingPoll[_name] */\n      mload(0x40)\n      tag_90\n      swap2\n      swap1\n      tag_83\n      jump\t// in\n    tag_90:\n      swap1\n      dup2\n      mstore\n      0x20\n      add\n      mload(0x40)\n      dup1\n      swap2\n      sub\n      swap1\n      keccak256\n        /* \"src/voting.sol\":1242:1283  VotingPoll storage VP = votingPoll[_name] */\n      swap1\n      pop\n        /* \"src/voting.sol\":1310:1314  true */\n      0x01\n        /* \"src/voting.sol\":1297:1314  VP.voting == true */\n      iszero\n      iszero\n        /* \"src/voting.sol\":1297:1299  VP */\n      dup2\n        /* \"src/voting.sol\":1297:1306  VP.voting */\n      0x02\n      add\n      0x16\n      swap1\n      sload\n      swap1\n      0x0100\n      exp\n      swap1\n      div\n      0xff\n      and\n        /* \"src/voting.sol\":1297:1314  VP.voting == true */\n      iszero\n      iszero\n      eq\n        /* \"src/voting.sol\":1289:1335  require(VP.voting == true, \"voting has ended\") */\n      tag_91\n      jumpi\n      mload(0x40)\n      0x08c379a000000000000000000000000000000000000000000000000000000000\n      dup2\n      mstore\n      0x04\n      add\n      tag_92\n      swap1\n      tag_93\n      jump\t// in\n    tag_92:\n      mload(0x40)\n      dup1\n      swap2\n      sub\n      swap1\n      revert\n    tag_91:\n        /* \"src/voting.sol\":2689:2710  VotingPoll storage VP */\n      0x00\n        /* \"src/voting.sol\":2713:2723  votingPoll */\n      dup1\n        /* \"src/voting.sol\":2724:2729  _name */\n      dup8\n        /* \"src/voting.sol\":2713:2730  votingPoll[_name] */\n      mload(0x40)\n      tag_95\n      swap2\n      swap1\n      tag_83\n      jump\t// in\n    tag_95:\n      swap1\n      dup2\n      mstore\n      0x20\n      add\n      mload(0x40)\n      dup1\n      swap2\n      sub\n      swap1\n      keccak256\n        /* \"src/voting.sol\":2689:2730  VotingPoll storage VP = votingPoll[_name] */\n      swap1\n      pop\n        /* \"src/voting.sol\":2772:2777  false */\n      0x00\n        /* \"src/voting.sol\":2745:2777  VP.hasVoted[msg.sender] == false */\n      iszero\n      iszero\n        /* \"src/voting.sol\":2745:2747  VP */\n      dup2\n        /* \"src/voting.sol\":2745:2756  VP.hasVoted */\n      0x04\n      add\n        /* \"src/voting.sol\":2745:2768  VP.hasVoted[msg.sender] */\n      0x00\n        /* \"src/voting.sol\":2757:2767  msg.sender */\n      caller\n        /* \"src/voting.sol\":2745:2768  VP.hasVoted[msg.sender] */\n      0xffffffffffffffffffffffffffffffffffffffff\n      and\n      0xffffffffffffffffffffffffffffffffffffffff\n      and\n      dup2\n      mstore\n      0x20\n      add\n      swap1\n      dup2\n      mstore\n      0x20\n      add\n      0x00\n      keccak256\n      0x00\n      swap1\n      sload\n      swap1\n      0x0100\n      exp\n      swap1\n      div\n      0xff\n      and\n        /* \"src/voting.sol\":2745:2777  VP.hasVoted[msg.sender] == false */\n      iszero\n      iszero\n      eq\n        /* \"src/voting.sol\":2737:2799  require(VP.hasVoted[msg.sender] == false, \"You already voted\") */\n      tag_96\n      jumpi\n      mload(0x40)\n      0x08c379a000000000000000000000000000000000000000000000000000000000\n      dup2\n      mstore\n      0x04\n      add\n      tag_97\n      swap1\n      tag_98\n      jump\t// in\n    tag_97:\n      mload(0x40)\n      dup1\n      swap2\n      sub\n      swap1\n      revert\n    tag_96:\n        /* \"src/voting.sol\":2807:2841  countVote(Cand, _name, msg.sender) */\n      tag_99\n        /* \"src/voting.sol\":2817:2821  Cand */\n      dup9\n        /* \"src/voting.sol\":2823:2828  _name */\n      dup9\n        /* \"src/voting.sol\":2830:2840  msg.sender */\n      caller\n        /* \"src/voting.sol\":2807:2816  countVote */\n      tag_100\n        /* \"src/voting.sol\":2807:2841  countVote(Cand, _name, msg.sender) */\n      jump\t// in\n    tag_99:\n      pop\n        /* \"src/voting.sol\":2853:2870  voted(Cand, true) */\n      0xf3f16a15f074b71c5138107dfc7c63b80524d5411cb967caa97d8d9f12b2fd6b\n        /* \"src/voting.sol\":2859:2863  Cand */\n      dup9\n        /* \"src/voting.sol\":2865:2869  true */\n      0x01\n        /* \"src/voting.sol\":2853:2870  voted(Cand, true) */\n      mload(0x40)\n      tag_101\n      swap3\n      swap2\n      swap1\n      tag_102\n      jump\t// in\n    tag_101:\n      mload(0x40)\n      dup1\n      swap2\n      sub\n      swap1\n      log1\n        /* \"src/voting.sol\":2436:2875  {... */\n      pop\n        /* \"src/voting.sol\":1236:1346  {... */\n      pop\n        /* \"src/voting.sol\":1187:1188  _ */\n      pop\n        /* \"src/voting.sol\":1044:1191  {... */\n      pop\n        /* \"src/voting.sol\":2290:2875  function vote(address Cand, string memory _name /*, uint256 nonce, bytes memory signature*/) external  isCandidate(Cand, _name) StillVoting(_name){... */\n      pop\n      pop\n      pop\n      pop\n      jump\t// out\n        /* \"src/voting.sol\":3481:4057  function revealWinner( string memory _name) external view returns ( uint[] memory CV, address, uint){... */\n    tag_40:\n        /* \"src/voting.sol\":3549:3565  uint[] memory CV */\n      0x60\n        /* \"src/voting.sol\":3567:3574  address */\n      0x00\n        /* \"src/voting.sol\":3576:3580  uint */\n      dup1\n        /* \"src/voting.sol\":3588:3609  VotingPoll storage VP */\n      0x00\n        /* \"src/voting.sol\":3612:3622  votingPoll */\n      dup1\n        /* \"src/voting.sol\":3623:3628  _name */\n      dup6\n        /* \"src/voting.sol\":3612:3629  votingPoll[_name] */\n      mload(0x40)\n      tag_104\n      swap2\n      swap1\n      tag_83\n      jump\t// in\n    tag_104:\n      swap1\n      dup2\n      mstore\n      0x20\n      add\n      mload(0x40)\n      dup1\n      swap2\n      sub\n      swap1\n      keccak256\n        /* \"src/voting.sol\":3588:3629  VotingPoll storage VP = votingPoll[_name] */\n      swap1\n      pop\n        /* \"src/voting.sol\":3652:3654  VP */\n      dup1\n        /* \"src/voting.sol\":3652:3665  VP.candidates */\n      0x01\n      add\n        /* \"src/voting.sol\":3652:3672  VP.candidates.length */\n      dup1\n      sload\n      swap1\n      pop\n        /* \"src/voting.sol\":3641:3673  new uint[](VP.candidates.length) */\n      0xffffffffffffffff\n      dup2\n      gt\n      iszero\n      tag_105\n      jumpi\n      tag_106\n      tag_107\n      jump\t// in\n    tag_106:\n    tag_105:\n      mload(0x40)\n      swap1\n      dup1\n      dup3\n      mstore\n      dup1\n      0x20\n      mul\n      0x20\n      add\n      dup3\n      add\n      0x40\n      mstore\n      dup1\n      iszero\n      tag_108\n      jumpi\n      dup2\n      0x20\n      add\n      0x20\n      dup3\n      mul\n      dup1\n      calldatasize\n      dup4\n      calldatacopy\n      dup1\n      dup3\n      add\n      swap2\n      pop\n      pop\n      swap1\n      pop\n    tag_108:\n      pop\n        /* \"src/voting.sol\":3636:3673  CV = new uint[](VP.candidates.length) */\n      swap4\n      pop\n        /* \"src/voting.sol\":3680:3696  uint highestVote */\n      0x00\n        /* \"src/voting.sol\":3703:3717  address winner */\n      dup1\n        /* \"src/voting.sol\":3729:3735  uint i */\n      0x00\n        /* \"src/voting.sol\":3724:4015  for (uint i =0; i <= VP.candidates.length; i++){... */\n    tag_109:\n        /* \"src/voting.sol\":3745:3747  VP */\n      dup4\n        /* \"src/voting.sol\":3745:3758  VP.candidates */\n      0x01\n      add\n        /* \"src/voting.sol\":3745:3765  VP.candidates.length */\n      dup1\n      sload\n      swap1\n      pop\n        /* \"src/voting.sol\":3740:3741  i */\n      dup2\n        /* \"src/voting.sol\":3740:3765  i <= VP.candidates.length */\n      gt\n        /* \"src/voting.sol\":3724:4015  for (uint i =0; i <= VP.candidates.length; i++){... */\n      tag_110\n      jumpi\n        /* \"src/voting.sol\":3780:3788  uint val */\n      0x00\n        /* \"src/voting.sol\":3791:3793  VP */\n      dup5\n        /* \"src/voting.sol\":3791:3807  VP.CandidateVote */\n      0x05\n      add\n        /* \"src/voting.sol\":3791:3825  VP.CandidateVote[VP.candidates[i]] */\n      0x00\n        /* \"src/voting.sol\":3808:3810  VP */\n      dup7\n        /* \"src/voting.sol\":3808:3821  VP.candidates */\n      0x01\n      add\n        /* \"src/voting.sol\":3822:3823  i */\n      dup5\n        /* \"src/voting.sol\":3808:3824  VP.candidates[i] */\n      dup2\n      sload\n      dup2\n      lt\n      tag_112\n      jumpi\n      tag_113\n      tag_114\n      jump\t// in\n    tag_113:\n    tag_112:\n      swap1\n      0x00\n      mstore\n      keccak256(0x00, 0x20)\n      add\n      0x00\n      swap1\n      sload\n      swap1\n      0x0100\n      exp\n      swap1\n      div\n      0xffffffffffffffffffffffffffffffffffffffff\n      and\n        /* \"src/voting.sol\":3791:3825  VP.CandidateVote[VP.candidates[i]] */\n      0xffffffffffffffffffffffffffffffffffffffff\n      and\n      0xffffffffffffffffffffffffffffffffffffffff\n      and\n      dup2\n      mstore\n      0x20\n      add\n      swap1\n      dup2\n      mstore\n      0x20\n      add\n      0x00\n      keccak256\n      sload\n        /* \"src/voting.sol\":3780:3825  uint val = VP.CandidateVote[VP.candidates[i]] */\n      swap1\n      pop\n        /* \"src/voting.sol\":3840:3851  highestVote */\n      dup4\n        /* \"src/voting.sol\":3835:3838  val */\n      dup2\n        /* \"src/voting.sol\":3835:3851  val> highestVote */\n      gt\n        /* \"src/voting.sol\":3832:3956  if(val> highestVote){... */\n      iszero\n      tag_116\n      jumpi\n        /* \"src/voting.sol\":3877:3879  VP */\n      dup5\n        /* \"src/voting.sol\":3877:3893  VP.CandidateVote */\n      0x05\n      add\n        /* \"src/voting.sol\":3877:3911  VP.CandidateVote[VP.candidates[i]] */\n      0x00\n        /* \"src/voting.sol\":3894:3896  VP */\n      dup7\n        /* \"src/voting.sol\":3894:3907  VP.candidates */\n      0x01\n      add\n        /* \"src/voting.sol\":3908:3909  i */\n      dup5\n        /* \"src/voting.sol\":3894:3910  VP.candidates[i] */\n      dup2\n      sload\n      dup2\n      lt\n      tag_117\n      jumpi\n      tag_118\n      tag_114\n      jump\t// in\n    tag_118:\n    tag_117:\n      swap1\n      0x00\n      mstore\n      keccak256(0x00, 0x20)\n      add\n      0x00\n      swap1\n      sload\n      swap1\n      0x0100\n      exp\n      swap1\n      div\n      0xffffffffffffffffffffffffffffffffffffffff\n      and\n        /* \"src/voting.sol\":3877:3911  VP.CandidateVote[VP.candidates[i]] */\n      0xffffffffffffffffffffffffffffffffffffffff\n      and\n      0xffffffffffffffffffffffffffffffffffffffff\n      and\n      dup2\n      mstore\n      0x20\n      add\n      swap1\n      dup2\n      mstore\n      0x20\n      add\n      0x00\n      keccak256\n      sload\n        /* \"src/voting.sol\":3863:3911  highestVote = VP.CandidateVote[VP.candidates[i]] */\n      swap4\n      pop\n        /* \"src/voting.sol\":3932:3934  VP */\n      dup5\n        /* \"src/voting.sol\":3932:3945  VP.candidates */\n      0x01\n      add\n        /* \"src/voting.sol\":3946:3947  i */\n      dup3\n        /* \"src/voting.sol\":3932:3948  VP.candidates[i] */\n      dup2\n      sload\n      dup2\n      lt\n      tag_120\n      jumpi\n      tag_121\n      tag_114\n      jump\t// in\n    tag_121:\n    tag_120:\n      swap1\n      0x00\n      mstore\n      keccak256(0x00, 0x20)\n      add\n      0x00\n      swap1\n      sload\n      swap1\n      0x0100\n      exp\n      swap1\n      div\n      0xffffffffffffffffffffffffffffffffffffffff\n      and\n        /* \"src/voting.sol\":3923:3948  winner = VP.candidates[i] */\n      swap3\n      pop\n        /* \"src/voting.sol\":3832:3956  if(val> highestVote){... */\n    tag_116:\n        /* \"src/voting.sol\":3971:3973  VP */\n      dup5\n        /* \"src/voting.sol\":3971:3987  VP.CandidateVote */\n      0x05\n      add\n        /* \"src/voting.sol\":3971:4005  VP.CandidateVote[VP.candidates[i]] */\n      0x00\n        /* \"src/voting.sol\":3988:3990  VP */\n      dup7\n        /* \"src/voting.sol\":3988:4001  VP.candidates */\n      0x01\n      add\n        /* \"src/voting.sol\":4002:4003  i */\n      dup5\n        /* \"src/voting.sol\":3988:4004  VP.candidates[i] */\n      dup2\n      sload\n      dup2\n      lt\n      tag_123\n      jumpi\n      tag_124\n      tag_114\n      jump\t// in\n    tag_124:\n    tag_123:\n      swap1\n      0x00\n      mstore\n      keccak256(0x00, 0x20)\n      add\n      0x00\n      swap1\n      sload\n      swap1\n      0x0100\n      exp\n      swap1\n      div\n      0xffffffffffffffffffffffffffffffffffffffff\n      and\n        /* \"src/voting.sol\":3971:4005  VP.CandidateVote[VP.candidates[i]] */\n      0xffffffffffffffffffffffffffffffffffffffff\n      and\n      0xffffffffffffffffffffffffffffffffffffffff\n      and\n      dup2\n      mstore\n      0x20\n      add\n      swap1\n      dup2\n      mstore\n      0x20\n      add\n      0x00\n      keccak256\n      sload\n        /* \"src/voting.sol\":3962:3964  CV */\n      dup9\n        /* \"src/voting.sol\":3965:3966  i */\n      dup4\n        /* \"src/voting.sol\":3962:3967  CV[i] */\n      dup2\n      mload\n      dup2\n      lt\n      tag_126\n      jumpi\n      tag_127\n      tag_114\n      jump\t// in\n    tag_127:\n    tag_126:\n      0x20\n      mul\n      0x20\n      add\n      add\n        /* \"src/voting.sol\":3962:4006  CV[i] = (VP.CandidateVote[VP.candidates[i]]) */\n      dup2\n      dup2\n      mstore\n      pop\n      pop\n        /* \"src/voting.sol\":3771:4015  {... */\n      pop\n        /* \"src/voting.sol\":3767:3770  i++ */\n      dup1\n      dup1\n      tag_128\n      swap1\n      tag_129\n      jump\t// in\n    tag_128:\n      swap2\n      pop\n      pop\n        /* \"src/voting.sol\":3724:4015  for (uint i =0; i <= VP.candidates.length; i++){... */\n      jump(tag_109)\n    tag_110:\n      pop\n        /* \"src/voting.sol\":4029:4031  CV */\n      dup6\n        /* \"src/voting.sol\":4033:4039  winner */\n      dup2\n        /* \"src/voting.sol\":4041:4052  highestVote */\n      dup4\n        /* \"src/voting.sol\":4021:4053  return (CV, winner, highestVote) */\n      swap6\n      pop\n      swap6\n      pop\n      swap6\n      pop\n      pop\n      pop\n      pop\n        /* \"src/voting.sol\":3481:4057  function revealWinner( string memory _name) external view returns ( uint[] memory CV, address, uint){... */\n      swap2\n      swap4\n      swap1\n      swap3\n      pop\n      jump\t// out\n        /* \"src/voting.sol\":1775:2287  function AddCandidate(address _newCandidate, string memory _name) external{... */\n    tag_46:\n        /* \"src/voting.sol\":1856:1877  VotingPoll storage VP */\n      0x00\n        /* \"src/voting.sol\":1880:1890  votingPoll */\n      dup1\n        /* \"src/voting.sol\":1891:1896  _name */\n      dup3\n        /* \"src/voting.sol\":1880:1897  votingPoll[_name] */\n      mload(0x40)\n      tag_131\n      swap2\n      swap1\n      tag_83\n      jump\t// in\n    tag_131:\n      swap1\n      dup2\n      mstore\n      0x20\n      add\n      mload(0x40)\n      dup1\n      swap2\n      sub\n      swap1\n      keccak256\n        /* \"src/voting.sol\":1856:1897  VotingPoll storage VP = votingPoll[_name] */\n      swap1\n      pop\n        /* \"src/voting.sol\":1936:1937  0 */\n      0x00\n        /* \"src/voting.sol\":1913:1938  VP.chairman != address(0) */\n      0xffffffffffffffffffffffffffffffffffffffff\n      and\n        /* \"src/voting.sol\":1913:1915  VP */\n      dup2\n        /* \"src/voting.sol\":1913:1924  VP.chairman */\n      0x00\n      add\n      0x00\n      swap1\n      sload\n      swap1\n      0x0100\n      exp\n      swap1\n      div\n      0xffffffffffffffffffffffffffffffffffffffff\n      and\n        /* \"src/voting.sol\":1913:1938  VP.chairman != address(0) */\n      0xffffffffffffffffffffffffffffffffffffffff\n      and\n      eq\n      iszero\n        /* \"src/voting.sol\":1904:1964  require (VP.chairman != address(0) , \"yet to create a poll\") */\n      tag_132\n      jumpi\n      mload(0x40)\n      0x08c379a000000000000000000000000000000000000000000000000000000000\n      dup2\n      mstore\n      0x04\n      add\n      tag_133\n      swap1\n      tag_134\n      jump\t// in\n    tag_133:\n      mload(0x40)\n      dup1\n      swap2\n      sub\n      swap1\n      revert\n    tag_132:\n        /* \"src/voting.sol\":1995:2005  msg.sender */\n      caller\n        /* \"src/voting.sol\":1980:2005  VP.chairman == msg.sender */\n      0xffffffffffffffffffffffffffffffffffffffff\n      and\n        /* \"src/voting.sol\":1980:1982  VP */\n      dup2\n        /* \"src/voting.sol\":1980:1991  VP.chairman */\n      0x00\n      add\n      0x00\n      swap1\n      sload\n      swap1\n      0x0100\n      exp\n      swap1\n      div\n      0xffffffffffffffffffffffffffffffffffffffff\n      and\n        /* \"src/voting.sol\":1980:2005  VP.chairman == msg.sender */\n      0xffffffffffffffffffffffffffffffffffffffff\n      and\n      eq\n        /* \"src/voting.sol\":1973:2006  assert(VP.chairman == msg.sender) */\n      tag_135\n      jumpi\n      tag_136\n      tag_137\n      jump\t// in\n    tag_136:\n    tag_135:\n        /* \"src/voting.sol\":2048:2050  VP */\n      dup1\n        /* \"src/voting.sol\":2048:2068  VP.maxNoOfCandidates */\n      0x02\n      add\n      0x00\n      swap1\n      sload\n      swap1\n      0x0100\n      exp\n      swap1\n      div\n      0xffffffff\n      and\n        /* \"src/voting.sol\":2021:2068  VP.currentNoOfCandidates < VP.maxNoOfCandidates */\n      0xffffffff\n      and\n        /* \"src/voting.sol\":2021:2023  VP */\n      dup2\n        /* \"src/voting.sol\":2021:2045  VP.currentNoOfCandidates */\n      0x02\n      add\n      0x14\n      swap1\n      sload\n      swap1\n      0x0100\n      exp\n      swap1\n      div\n      0xffff\n      and\n        /* \"src/voting.sol\":2021:2068  VP.currentNoOfCandidates < VP.maxNoOfCandidates */\n      0xffff\n      and\n      lt\n        /* \"src/voting.sol\":2013:2119  require(VP.currentNoOfCandidates < VP.maxNoOfCandidates, \"maximum no of candidate per session registered\") */\n      tag_138\n      jumpi\n      mload(0x40)\n      0x08c379a000000000000000000000000000000000000000000000000000000000\n      dup2\n      mstore\n      0x04\n      add\n      tag_139\n      swap1\n      tag_140\n      jump\t// in\n    tag_139:\n      mload(0x40)\n      dup1\n      swap2\n      sub\n      swap1\n      revert\n    tag_138:\n        /* \"src/voting.sol\":2162:2166  true */\n      0x01\n        /* \"src/voting.sol\":2126:2128  VP */\n      dup2\n        /* \"src/voting.sol\":2126:2144  VP.CandidateStatus */\n      0x03\n      add\n        /* \"src/voting.sol\":2126:2159  VP.CandidateStatus[_newCandidate] */\n      0x00\n        /* \"src/voting.sol\":2145:2158  _newCandidate */\n      dup6\n        /* \"src/voting.sol\":2126:2159  VP.CandidateStatus[_newCandidate] */\n      0xffffffffffffffffffffffffffffffffffffffff\n      and\n      0xffffffffffffffffffffffffffffffffffffffff\n      and\n      dup2\n      mstore\n      0x20\n      add\n      swap1\n      dup2\n      mstore\n      0x20\n      add\n      0x00\n      keccak256\n      0x00\n        /* \"src/voting.sol\":2126:2166  VP.CandidateStatus[_newCandidate] = true */\n      0x0100\n      exp\n      dup2\n      sload\n      dup2\n      0xff\n      mul\n      not\n      and\n      swap1\n      dup4\n      iszero\n      iszero\n      mul\n      or\n      swap1\n      sstore\n      pop\n        /* \"src/voting.sol\":2174:2176  VP */\n      dup1\n        /* \"src/voting.sol\":2174:2187  VP.candidates */\n      0x01\n      add\n        /* \"src/voting.sol\":2193:2206  _newCandidate */\n      dup4\n        /* \"src/voting.sol\":2174:2207  VP.candidates.push(_newCandidate) */\n      swap1\n      dup1\n      0x01\n      dup2\n      sload\n      add\n      dup1\n      dup3\n      sstore\n      dup1\n      swap2\n      pop\n      pop\n      0x01\n      swap1\n      sub\n      swap1\n      0x00\n      mstore\n      keccak256(0x00, 0x20)\n      add\n      0x00\n      swap1\n      swap2\n      swap1\n      swap2\n      swap1\n      swap2\n      0x0100\n      exp\n      dup2\n      sload\n      dup2\n      0xffffffffffffffffffffffffffffffffffffffff\n      mul\n      not\n      and\n      swap1\n      dup4\n      0xffffffffffffffffffffffffffffffffffffffff\n      and\n      mul\n      or\n      swap1\n      sstore\n      pop\n        /* \"src/voting.sol\":2215:2217  VP */\n      dup1\n        /* \"src/voting.sol\":2215:2239  VP.currentNoOfCandidates */\n      0x02\n      add\n      0x14\n        /* \"src/voting.sol\":2215:2241  VP.currentNoOfCandidates++ */\n      dup2\n      dup2\n      swap1\n      sload\n      swap1\n      0x0100\n      exp\n      swap1\n      div\n      0xffff\n      and\n      dup1\n      swap3\n      swap2\n      swap1\n      tag_142\n      swap1\n      tag_143\n      jump\t// in\n    tag_142:\n      swap2\n      swap1\n      0x0100\n      exp\n      dup2\n      sload\n      dup2\n      0xffff\n      mul\n      not\n      and\n      swap1\n      dup4\n      0xffff\n      and\n      mul\n      or\n      swap1\n      sstore\n      pop\n      pop\n        /* \"src/voting.sol\":2253:2283  becameCandidate(_newCandidate) */\n      0xc19c59aa93348e8fc54764bc642eca975e2639f44cc683ef8f027e1529cbda32\n        /* \"src/voting.sol\":2269:2282  _newCandidate */\n      dup4\n        /* \"src/voting.sol\":2253:2283  becameCandidate(_newCandidate) */\n      mload(0x40)\n      tag_144\n      swap2\n      swap1\n      tag_145\n      jump\t// in\n    tag_144:\n      mload(0x40)\n      dup1\n      swap2\n      sub\n      swap1\n      log1\n        /* \"src/voting.sol\":1849:2287  {... */\n      pop\n        /* \"src/voting.sol\":1775:2287  function AddCandidate(address _newCandidate, string memory _name) external{... */\n      pop\n      pop\n      jump\t// out\n        /* \"src/voting.sol\":670:717  mapping(string => VotingPoll) public votingPoll */\n    tag_50:\n      0x00\n      dup2\n      dup1\n      mload\n      0x20\n      dup2\n      add\n      dup3\n      add\n      dup1\n      mload\n      dup5\n      dup3\n      mstore\n      0x20\n      dup4\n      add\n      0x20\n      dup6\n      add\n      keccak256\n      dup2\n      dup4\n      mstore\n      dup1\n      swap6\n      pop\n      pop\n      pop\n      pop\n      pop\n      pop\n      0x00\n      swap2\n      pop\n      swap1\n      pop\n      dup1\n      0x00\n      add\n      0x00\n      swap1\n      sload\n      swap1\n      0x0100\n      exp\n      swap1\n      div\n      0xffffffffffffffffffffffffffffffffffffffff\n      and\n      swap1\n      dup1\n      0x02\n      add\n      0x00\n      swap1\n      sload\n      swap1\n      0x0100\n      exp\n      swap1\n      div\n      0xffffffff\n      and\n      swap1\n      dup1\n      0x02\n      add\n      0x04\n      swap1\n      sload\n      swap1\n      0x0100\n      exp\n      swap1\n      div\n      0xffffffffffffffff\n      and\n      swap1\n      dup1\n      0x02\n      add\n      0x0c\n      swap1\n      sload\n      swap1\n      0x0100\n      exp\n      swap1\n      div\n      0xffffffffffffffff\n      and\n      swap1\n      dup1\n      0x02\n      add\n      0x14\n      swap1\n      sload\n      swap1\n      0x0100\n      exp\n      swap1\n      div\n      0xffff\n      and\n      swap1\n      dup1\n      0x02\n      add\n      0x16\n      swap1\n      sload\n      swap1\n      0x0100\n      exp\n      swap1\n      div\n      0xff\n      and\n      swap1\n      pop\n      dup7\n      jump\t// out\n        /* \"src/voting.sol\":723:770  mapping (address => uint256) public replayNonce */\n    tag_57:\n      mstore(0x20, 0x01)\n      dup1\n      0x00\n      mstore\n      keccak256(0x00, 0x40)\n      0x00\n      swap2\n      pop\n      swap1\n      pop\n      sload\n      dup2\n      jump\t// out\n        /* \"src/voting.sol\":4264:4489  function withdawFees(string memory _name) external payable{... */\n    tag_62:\n        /* \"src/voting.sol\":4328:4349  VotingPoll storage VP */\n      0x00\n        /* \"src/voting.sol\":4352:4362  votingPoll */\n      dup1\n        /* \"src/voting.sol\":4363:4368  _name */\n      dup3\n        /* \"src/voting.sol\":4352:4369  votingPoll[_name] */\n      mload(0x40)\n      tag_147\n      swap2\n      swap1\n      tag_83\n      jump\t// in\n    tag_147:\n      swap1\n      dup2\n      mstore\n      0x20\n      add\n      mload(0x40)\n      dup1\n      swap2\n      sub\n      swap1\n      keccak256\n        /* \"src/voting.sol\":4328:4369  VotingPoll storage VP = votingPoll[_name] */\n      swap1\n      pop\n        /* \"src/voting.sol\":4398:4400  VP */\n      dup1\n        /* \"src/voting.sol\":4398:4409  VP.chairman */\n      0x00\n      add\n      0x00\n      swap1\n      sload\n      swap1\n      0x0100\n      exp\n      swap1\n      div\n      0xffffffffffffffffffffffffffffffffffffffff\n      and\n        /* \"src/voting.sol\":4384:4409  msg.sender == VP.chairman */\n      0xffffffffffffffffffffffffffffffffffffffff\n      and\n        /* \"src/voting.sol\":4384:4394  msg.sender */\n      caller\n        /* \"src/voting.sol\":4384:4409  msg.sender == VP.chairman */\n      0xffffffffffffffffffffffffffffffffffffffff\n      and\n      eq\n        /* \"src/voting.sol\":4376:4430  require(msg.sender == VP.chairman, \"not the chairman\") */\n      tag_148\n      jumpi\n      mload(0x40)\n      0x08c379a000000000000000000000000000000000000000000000000000000000\n      dup2\n      mstore\n      0x04\n      add\n      tag_149\n      swap1\n      tag_150\n      jump\t// in\n    tag_149:\n      mload(0x40)\n      dup1\n      swap2\n      sub\n      swap1\n      revert\n    tag_148:\n        /* \"src/voting.sol\":4445:4455  msg.sender */\n      caller\n        /* \"src/voting.sol\":4437:4465  payable(msg.sender).transfer */\n      0xffffffffffffffffffffffffffffffffffffffff\n      and\n        /* \"src/voting.sol\":4437:4485  payable(msg.sender).transfer(VP.amountGenerated) */\n      0x08fc\n        /* \"src/voting.sol\":4466:4468  VP */\n      dup3\n        /* \"src/voting.sol\":4466:4484  VP.amountGenerated */\n      0x02\n      add\n      0x0c\n      swap1\n      sload\n      swap1\n      0x0100\n      exp\n      swap1\n      div\n      0xffffffffffffffff\n      and\n        /* \"src/voting.sol\":4437:4485  payable(msg.sender).transfer(VP.amountGenerated) */\n      0xffffffffffffffff\n      and\n      swap1\n      dup2\n      iszero\n      mul\n      swap1\n      mload(0x40)\n      0x00\n      mload(0x40)\n      dup1\n      dup4\n      sub\n      dup2\n      dup6\n      dup9\n      dup9\n      call\n      swap4\n      pop\n      pop\n      pop\n      pop\n      iszero\n      dup1\n      iszero\n      tag_152\n      jumpi\n      returndatasize\n      0x00\n      dup1\n      returndatacopy\n      revert(0x00, returndatasize)\n    tag_152:\n      pop\n        /* \"src/voting.sol\":4322:4489  {... */\n      pop\n        /* \"src/voting.sol\":4264:4489  function withdawFees(string memory _name) external payable{... */\n      pop\n      jump\t// out\n        /* \"src/voting.sol\":3126:3297  function NoOfRegisteredCandidates( string memory _name) public view returns(uint){... */\n    tag_66:\n        /* \"src/voting.sol\":3202:3206  uint */\n      0x00\n        /* \"src/voting.sol\":3214:3235  VotingPoll storage VP */\n      dup1\n        /* \"src/voting.sol\":3238:3248  votingPoll */\n      0x00\n        /* \"src/voting.sol\":3249:3254  _name */\n      dup4\n        /* \"src/voting.sol\":3238:3255  votingPoll[_name] */\n      mload(0x40)\n      tag_154\n      swap2\n      swap1\n      tag_83\n      jump\t// in\n    tag_154:\n      swap1\n      dup2\n      mstore\n      0x20\n      add\n      mload(0x40)\n      dup1\n      swap2\n      sub\n      swap1\n      keccak256\n        /* \"src/voting.sol\":3214:3255  VotingPoll storage VP = votingPoll[_name] */\n      swap1\n      pop\n        /* \"src/voting.sol\":3269:3271  VP */\n      dup1\n        /* \"src/voting.sol\":3269:3293  VP.currentNoOfCandidates */\n      0x02\n      add\n      0x14\n      swap1\n      sload\n      swap1\n      0x0100\n      exp\n      swap1\n      div\n      0xffff\n      and\n        /* \"src/voting.sol\":3262:3293  return VP.currentNoOfCandidates */\n      0xffff\n      and\n      swap2\n      pop\n      pop\n        /* \"src/voting.sol\":3126:3297  function NoOfRegisteredCandidates( string memory _name) public view returns(uint){... */\n      swap2\n      swap1\n      pop\n      jump\t// out\n        /* \"src/voting.sol\":3305:3478  function AllCandidates( string memory _name) public view returns(address[] memory _candidates){... */\n    tag_71:\n        /* \"src/voting.sol\":3370:3398  address[] memory _candidates */\n      0x60\n        /* \"src/voting.sol\":3406:3427  VotingPoll storage VP */\n      0x00\n        /* \"src/voting.sol\":3430:3440  votingPoll */\n      dup1\n        /* \"src/voting.sol\":3441:3446  _name */\n      dup4\n        /* \"src/voting.sol\":3430:3447  votingPoll[_name] */\n      mload(0x40)\n      tag_156\n      swap2\n      swap1\n      tag_83\n      jump\t// in\n    tag_156:\n      swap1\n      dup2\n      mstore\n      0x20\n      add\n      mload(0x40)\n      dup1\n      swap2\n      sub\n      swap1\n      keccak256\n        /* \"src/voting.sol\":3406:3447  VotingPoll storage VP = votingPoll[_name] */\n      swap1\n      pop\n        /* \"src/voting.sol\":3461:3463  VP */\n      dup1\n        /* \"src/voting.sol\":3461:3474  VP.candidates */\n      0x01\n      add\n        /* \"src/voting.sol\":3454:3474  return VP.candidates */\n      dup1\n      sload\n      dup1\n      0x20\n      mul\n      0x20\n      add\n      mload(0x40)\n      swap1\n      dup2\n      add\n      0x40\n      mstore\n      dup1\n      swap3\n      swap2\n      swap1\n      dup2\n      dup2\n      mstore\n      0x20\n      add\n      dup3\n      dup1\n      sload\n      dup1\n      iszero\n      tag_157\n      jumpi\n      0x20\n      mul\n      dup3\n      add\n      swap2\n      swap1\n      0x00\n      mstore\n      keccak256(0x00, 0x20)\n      swap1\n    tag_158:\n      dup2\n      0x00\n      swap1\n      sload\n      swap1\n      0x0100\n      exp\n      swap1\n      div\n      0xffffffffffffffffffffffffffffffffffffffff\n      and\n      0xffffffffffffffffffffffffffffffffffffffff\n      and\n      dup2\n      mstore\n      0x20\n      add\n      swap1\n      0x01\n      add\n      swap1\n      dup1\n      dup4\n      gt\n      tag_158\n      jumpi\n    tag_157:\n      pop\n      pop\n      pop\n      pop\n      pop\n      swap2\n      pop\n      pop\n        /* \"src/voting.sol\":3305:3478  function AllCandidates( string memory _name) public view returns(address[] memory _candidates){... */\n      swap2\n      swap1\n      pop\n      jump\t// out\n        /* \"src/voting.sol\":4060:4262  function setVotingState( string memory _name) external {... */\n    tag_77:\n        /* \"src/voting.sol\":4121:4142  VotingPoll storage VP */\n      0x00\n        /* \"src/voting.sol\":4145:4155  votingPoll */\n      dup1\n        /* \"src/voting.sol\":4156:4161  _name */\n      dup3\n        /* \"src/voting.sol\":4145:4162  votingPoll[_name] */\n      mload(0x40)\n      tag_160\n      swap2\n      swap1\n      tag_83\n      jump\t// in\n    tag_160:\n      swap1\n      dup2\n      mstore\n      0x20\n      add\n      mload(0x40)\n      dup1\n      swap2\n      sub\n      swap1\n      keccak256\n        /* \"src/voting.sol\":4121:4162  VotingPoll storage VP = votingPoll[_name] */\n      swap1\n      pop\n        /* \"src/voting.sol\":4191:4201  msg.sender */\n      caller\n        /* \"src/voting.sol\":4176:4201  VP.chairman == msg.sender */\n      0xffffffffffffffffffffffffffffffffffffffff\n      and\n        /* \"src/voting.sol\":4176:4178  VP */\n      dup2\n        /* \"src/voting.sol\":4176:4187  VP.chairman */\n      0x00\n      add\n      0x00\n      swap1\n      sload\n      swap1\n      0x0100\n      exp\n      swap1\n      div\n      0xffffffffffffffffffffffffffffffffffffffff\n      and\n        /* \"src/voting.sol\":4176:4201  VP.chairman == msg.sender */\n      0xffffffffffffffffffffffffffffffffffffffff\n      and\n      eq\n        /* \"src/voting.sol\":4168:4222  require(VP.chairman == msg.sender, \"not the chairman\") */\n      tag_161\n      jumpi\n      mload(0x40)\n      0x08c379a000000000000000000000000000000000000000000000000000000000\n      dup2\n      mstore\n      0x04\n      add\n      tag_162\n      swap1\n      tag_150\n      jump\t// in\n    tag_162:\n      mload(0x40)\n      dup1\n      swap2\n      sub\n      swap1\n      revert\n    tag_161:\n        /* \"src/voting.sol\":4248:4250  VP */\n      dup1\n        /* \"src/voting.sol\":4248:4257  VP.voting */\n      0x02\n      add\n      0x16\n      swap1\n      sload\n      swap1\n      0x0100\n      exp\n      swap1\n      div\n      0xff\n      and\n        /* \"src/voting.sol\":4246:4258  !(VP.voting) */\n      iszero\n        /* \"src/voting.sol\":4234:4236  VP */\n      dup2\n        /* \"src/voting.sol\":4234:4243  VP.voting */\n      0x02\n      add\n      0x16\n        /* \"src/voting.sol\":4234:4258  VP.voting = !(VP.voting) */\n      0x0100\n      exp\n      dup2\n      sload\n      dup2\n      0xff\n      mul\n      not\n      and\n      swap1\n      dup4\n      iszero\n      iszero\n      mul\n      or\n      swap1\n      sstore\n      pop\n        /* \"src/voting.sol\":4115:4262  {... */\n      pop\n        /* \"src/voting.sol\":4060:4262  function setVotingState( string memory _name) external {... */\n      pop\n      jump\t// out\n        /* \"src/voting.sol\":2878:3123  function countVote(address Cand, string memory _name, address signer) internal returns(uint){... */\n    tag_100:\n        /* \"src/voting.sol\":2965:2969  uint */\n      0x00\n        /* \"src/voting.sol\":2977:2998  VotingPoll storage VP */\n      dup1\n        /* \"src/voting.sol\":3001:3011  votingPoll */\n      0x00\n        /* \"src/voting.sol\":3012:3017  _name */\n      dup5\n        /* \"src/voting.sol\":3001:3018  votingPoll[_name] */\n      mload(0x40)\n      tag_164\n      swap2\n      swap1\n      tag_83\n      jump\t// in\n    tag_164:\n      swap1\n      dup2\n      mstore\n      0x20\n      add\n      mload(0x40)\n      dup1\n      swap2\n      sub\n      swap1\n      keccak256\n        /* \"src/voting.sol\":2977:3018  VotingPoll storage VP = votingPoll[_name] */\n      swap1\n      pop\n        /* \"src/voting.sol\":3047:3051  true */\n      0x01\n        /* \"src/voting.sol\":3025:3027  VP */\n      dup2\n        /* \"src/voting.sol\":3025:3036  VP.hasVoted */\n      0x04\n      add\n        /* \"src/voting.sol\":3025:3044  VP.hasVoted[signer] */\n      0x00\n        /* \"src/voting.sol\":3037:3043  signer */\n      dup6\n        /* \"src/voting.sol\":3025:3044  VP.hasVoted[signer] */\n      0xffffffffffffffffffffffffffffffffffffffff\n      and\n      0xffffffffffffffffffffffffffffffffffffffff\n      and\n      dup2\n      mstore\n      0x20\n      add\n      swap1\n      dup2\n      mstore\n      0x20\n      add\n      0x00\n      keccak256\n      0x00\n        /* \"src/voting.sol\":3025:3051  VP.hasVoted[signer] = true */\n      0x0100\n      exp\n      dup2\n      sload\n      dup2\n      0xff\n      mul\n      not\n      and\n      swap1\n      dup4\n      iszero\n      iszero\n      mul\n      or\n      swap1\n      sstore\n      pop\n        /* \"src/voting.sol\":3058:3060  VP */\n      dup1\n        /* \"src/voting.sol\":3058:3074  VP.CandidateVote */\n      0x05\n      add\n        /* \"src/voting.sol\":3058:3080  VP.CandidateVote[Cand] */\n      0x00\n        /* \"src/voting.sol\":3075:3079  Cand */\n      dup7\n        /* \"src/voting.sol\":3058:3080  VP.CandidateVote[Cand] */\n      0xffffffffffffffffffffffffffffffffffffffff\n      and\n      0xffffffffffffffffffffffffffffffffffffffff\n      and\n      dup2\n      mstore\n      0x20\n      add\n      swap1\n      dup2\n      mstore\n      0x20\n      add\n      0x00\n      keccak256\n      0x00\n        /* \"src/voting.sol\":3058:3082  VP.CandidateVote[Cand]++ */\n      dup2\n      sload\n      dup1\n      swap3\n      swap2\n      swap1\n      tag_165\n      swap1\n      tag_129\n      jump\t// in\n    tag_165:\n      swap2\n      swap1\n      pop\n      sstore\n      pop\n        /* \"src/voting.sol\":3096:3098  VP */\n      dup1\n        /* \"src/voting.sol\":3096:3112  VP.CandidateVote */\n      0x05\n      add\n        /* \"src/voting.sol\":3096:3118  VP.CandidateVote[Cand] */\n      0x00\n        /* \"src/voting.sol\":3113:3117  Cand */\n      dup7\n        /* \"src/voting.sol\":3096:3118  VP.CandidateVote[Cand] */\n      0xffffffffffffffffffffffffffffffffffffffff\n      and\n      0xffffffffffffffffffffffffffffffffffffffff\n      and\n      dup2\n      mstore\n      0x20\n      add\n      swap1\n      dup2\n      mstore\n      0x20\n      add\n      0x00\n      keccak256\n      sload\n        /* \"src/voting.sol\":3089:3118  return VP.CandidateVote[Cand] */\n      swap2\n      pop\n      pop\n        /* \"src/voting.sol\":2878:3123  function countVote(address Cand, string memory _name, address signer) internal returns(uint){... */\n      swap4\n      swap3\n      pop\n      pop\n      pop\n      jump\t// out\n        /* \"#utility.yul\":7:82   */\n    tag_166:\n        /* \"#utility.yul\":40:46   */\n      0x00\n        /* \"#utility.yul\":73:75   */\n      0x40\n        /* \"#utility.yul\":67:76   */\n      mload\n        /* \"#utility.yul\":57:76   */\n      swap1\n      pop\n        /* \"#utility.yul\":7:82   */\n      swap1\n      jump\t// out\n        /* \"#utility.yul\":88:205   */\n    tag_167:\n        /* \"#utility.yul\":197:198   */\n      0x00\n        /* \"#utility.yul\":194:195   */\n      dup1\n        /* \"#utility.yul\":187:199   */\n      revert\n        /* \"#utility.yul\":211:328   */\n    tag_168:\n        /* \"#utility.yul\":320:321   */\n      0x00\n        /* \"#utility.yul\":317:318   */\n      dup1\n        /* \"#utility.yul\":310:322   */\n      revert\n        /* \"#utility.yul\":334:460   */\n    tag_169:\n        /* \"#utility.yul\":371:378   */\n      0x00\n        /* \"#utility.yul\":411:453   */\n      0xffffffffffffffffffffffffffffffffffffffff\n        /* \"#utility.yul\":404:409   */\n      dup3\n        /* \"#utility.yul\":400:454   */\n      and\n        /* \"#utility.yul\":389:454   */\n      swap1\n      pop\n        /* \"#utility.yul\":334:460   */\n      swap2\n      swap1\n      pop\n      jump\t// out\n        /* \"#utility.yul\":466:562   */\n    tag_170:\n        /* \"#utility.yul\":503:510   */\n      0x00\n        /* \"#utility.yul\":532:556   */\n      tag_246\n        /* \"#utility.yul\":550:555   */\n      dup3\n        /* \"#utility.yul\":532:556   */\n      tag_169\n      jump\t// in\n    tag_246:\n        /* \"#utility.yul\":521:556   */\n      swap1\n      pop\n        /* \"#utility.yul\":466:562   */\n      swap2\n      swap1\n      pop\n      jump\t// out\n        /* \"#utility.yul\":568:690   */\n    tag_171:\n        /* \"#utility.yul\":641:665   */\n      tag_248\n        /* \"#utility.yul\":659:664   */\n      dup2\n        /* \"#utility.yul\":641:665   */\n      tag_170\n      jump\t// in\n    tag_248:\n        /* \"#utility.yul\":634:639   */\n      dup2\n        /* \"#utility.yul\":631:666   */\n      eq\n        /* \"#utility.yul\":621:684   */\n      tag_249\n      jumpi\n        /* \"#utility.yul\":680:681   */\n      0x00\n        /* \"#utility.yul\":677:678   */\n      dup1\n        /* \"#utility.yul\":670:682   */\n      revert\n        /* \"#utility.yul\":621:684   */\n    tag_249:\n        /* \"#utility.yul\":568:690   */\n      pop\n      jump\t// out\n        /* \"#utility.yul\":696:835   */\n    tag_172:\n        /* \"#utility.yul\":742:747   */\n      0x00\n        /* \"#utility.yul\":780:786   */\n      dup2\n        /* \"#utility.yul\":767:787   */\n      calldataload\n        /* \"#utility.yul\":758:787   */\n      swap1\n      pop\n        /* \"#utility.yul\":796:829   */\n      tag_251\n        /* \"#utility.yul\":823:828   */\n      dup2\n        /* \"#utility.yul\":796:829   */\n      tag_171\n      jump\t// in\n    tag_251:\n        /* \"#utility.yul\":696:835   */\n      swap3\n      swap2\n      pop\n      pop\n      jump\t// out\n        /* \"#utility.yul\":841:958   */\n    tag_173:\n        /* \"#utility.yul\":950:951   */\n      0x00\n        /* \"#utility.yul\":947:948   */\n      dup1\n        /* \"#utility.yul\":940:952   */\n      revert\n        /* \"#utility.yul\":964:1081   */\n    tag_174:\n        /* \"#utility.yul\":1073:1074   */\n      0x00\n        /* \"#utility.yul\":1070:1071   */\n      dup1\n        /* \"#utility.yul\":1063:1075   */\n      revert\n        /* \"#utility.yul\":1087:1189   */\n    tag_175:\n        /* \"#utility.yul\":1128:1134   */\n      0x00\n        /* \"#utility.yul\":1179:1181   */\n      0x1f\n        /* \"#utility.yul\":1175:1182   */\n      not\n        /* \"#utility.yul\":1170:1172   */\n      0x1f\n        /* \"#utility.yul\":1163:1168   */\n      dup4\n        /* \"#utility.yul\":1159:1173   */\n      add\n        /* \"#utility.yul\":1155:1183   */\n      and\n        /* \"#utility.yul\":1145:1183   */\n      swap1\n      pop\n        /* \"#utility.yul\":1087:1189   */\n      swap2\n      swap1\n      pop\n      jump\t// out\n        /* \"#utility.yul\":1195:1375   */\n    tag_107:\n        /* \"#utility.yul\":1243:1320   */\n      0x4e487b7100000000000000000000000000000000000000000000000000000000\n        /* \"#utility.yul\":1240:1241   */\n      0x00\n        /* \"#utility.yul\":1233:1321   */\n      mstore\n        /* \"#utility.yul\":1340:1344   */\n      0x41\n        /* \"#utility.yul\":1337:1338   */\n      0x04\n        /* \"#utility.yul\":1330:1345   */\n      mstore\n        /* \"#utility.yul\":1364:1368   */\n      0x24\n        /* \"#utility.yul\":1361:1362   */\n      0x00\n        /* \"#utility.yul\":1354:1369   */\n      revert\n        /* \"#utility.yul\":1381:1662   */\n    tag_176:\n        /* \"#utility.yul\":1464:1491   */\n      tag_257\n        /* \"#utility.yul\":1486:1490   */\n      dup3\n        /* \"#utility.yul\":1464:1491   */\n      tag_175\n      jump\t// in\n    tag_257:\n        /* \"#utility.yul\":1456:1462   */\n      dup2\n        /* \"#utility.yul\":1452:1492   */\n      add\n        /* \"#utility.yul\":1594:1600   */\n      dup2\n        /* \"#utility.yul\":1582:1592   */\n      dup2\n        /* \"#utility.yul\":1579:1601   */\n      lt\n        /* \"#utility.yul\":1558:1576   */\n      0xffffffffffffffff\n        /* \"#utility.yul\":1546:1556   */\n      dup3\n        /* \"#utility.yul\":1543:1577   */\n      gt\n        /* \"#utility.yul\":1540:1602   */\n      or\n        /* \"#utility.yul\":1537:1625   */\n      iszero\n      tag_258\n      jumpi\n        /* \"#utility.yul\":1605:1623   */\n      tag_259\n      tag_107\n      jump\t// in\n    tag_259:\n        /* \"#utility.yul\":1537:1625   */\n    tag_258:\n        /* \"#utility.yul\":1645:1655   */\n      dup1\n        /* \"#utility.yul\":1641:1643   */\n      0x40\n        /* \"#utility.yul\":1634:1656   */\n      mstore\n        /* \"#utility.yul\":1424:1662   */\n      pop\n        /* \"#utility.yul\":1381:1662   */\n      pop\n      pop\n      jump\t// out\n        /* \"#utility.yul\":1668:1797   */\n    tag_177:\n        /* \"#utility.yul\":1702:1708   */\n      0x00\n        /* \"#utility.yul\":1729:1749   */\n      tag_261\n      tag_166\n      jump\t// in\n    tag_261:\n        /* \"#utility.yul\":1719:1749   */\n      swap1\n      pop\n        /* \"#utility.yul\":1758:1791   */\n      tag_262\n        /* \"#utility.yul\":1786:1790   */\n      dup3\n        /* \"#utility.yul\":1778:1784   */\n      dup3\n        /* \"#utility.yul\":1758:1791   */\n      tag_176\n      jump\t// in\n    tag_262:\n        /* \"#utility.yul\":1668:1797   */\n      swap2\n      swap1\n      pop\n      jump\t// out\n        /* \"#utility.yul\":1803:2111   */\n    tag_178:\n        /* \"#utility.yul\":1865:1869   */\n      0x00\n        /* \"#utility.yul\":1955:1973   */\n      0xffffffffffffffff\n        /* \"#utility.yul\":1947:1953   */\n      dup3\n        /* \"#utility.yul\":1944:1974   */\n      gt\n        /* \"#utility.yul\":1941:1997   */\n      iszero\n      tag_264\n      jumpi\n        /* \"#utility.yul\":1977:1995   */\n      tag_265\n      tag_107\n      jump\t// in\n    tag_265:\n        /* \"#utility.yul\":1941:1997   */\n    tag_264:\n        /* \"#utility.yul\":2015:2044   */\n      tag_266\n        /* \"#utility.yul\":2037:2043   */\n      dup3\n        /* \"#utility.yul\":2015:2044   */\n      tag_175\n      jump\t// in\n    tag_266:\n        /* \"#utility.yul\":2007:2044   */\n      swap1\n      pop\n        /* \"#utility.yul\":2099:2103   */\n      0x20\n        /* \"#utility.yul\":2093:2097   */\n      dup2\n        /* \"#utility.yul\":2089:2104   */\n      add\n        /* \"#utility.yul\":2081:2104   */\n      swap1\n      pop\n        /* \"#utility.yul\":1803:2111   */\n      swap2\n      swap1\n      pop\n      jump\t// out\n        /* \"#utility.yul\":2117:2271   */\n    tag_179:\n        /* \"#utility.yul\":2201:2207   */\n      dup3\n        /* \"#utility.yul\":2196:2199   */\n      dup2\n        /* \"#utility.yul\":2191:2194   */\n      dup4\n        /* \"#utility.yul\":2178:2208   */\n      calldatacopy\n        /* \"#utility.yul\":2263:2264   */\n      0x00\n        /* \"#utility.yul\":2254:2260   */\n      dup4\n        /* \"#utility.yul\":2249:2252   */\n      dup4\n        /* \"#utility.yul\":2245:2261   */\n      add\n        /* \"#utility.yul\":2238:2265   */\n      mstore\n        /* \"#utility.yul\":2117:2271   */\n      pop\n      pop\n      pop\n      jump\t// out\n        /* \"#utility.yul\":2277:2689   */\n    tag_180:\n        /* \"#utility.yul\":2355:2360   */\n      0x00\n        /* \"#utility.yul\":2380:2446   */\n      tag_269\n        /* \"#utility.yul\":2396:2445   */\n      tag_270\n        /* \"#utility.yul\":2438:2444   */\n      dup5\n        /* \"#utility.yul\":2396:2445   */\n      tag_178\n      jump\t// in\n    tag_270:\n        /* \"#utility.yul\":2380:2446   */\n      tag_177\n      jump\t// in\n    tag_269:\n        /* \"#utility.yul\":2371:2446   */\n      swap1\n      pop\n        /* \"#utility.yul\":2469:2475   */\n      dup3\n        /* \"#utility.yul\":2462:2467   */\n      dup2\n        /* \"#utility.yul\":2455:2476   */\n      mstore\n        /* \"#utility.yul\":2507:2511   */\n      0x20\n        /* \"#utility.yul\":2500:2505   */\n      dup2\n        /* \"#utility.yul\":2496:2512   */\n      add\n        /* \"#utility.yul\":2545:2548   */\n      dup5\n        /* \"#utility.yul\":2536:2542   */\n      dup5\n        /* \"#utility.yul\":2531:2534   */\n      dup5\n        /* \"#utility.yul\":2527:2543   */\n      add\n        /* \"#utility.yul\":2524:2549   */\n      gt\n        /* \"#utility.yul\":2521:2633   */\n      iszero\n      tag_271\n      jumpi\n        /* \"#utility.yul\":2552:2631   */\n      tag_272\n      tag_174\n      jump\t// in\n    tag_272:\n        /* \"#utility.yul\":2521:2633   */\n    tag_271:\n        /* \"#utility.yul\":2642:2683   */\n      tag_273\n        /* \"#utility.yul\":2676:2682   */\n      dup5\n        /* \"#utility.yul\":2671:2674   */\n      dup3\n        /* \"#utility.yul\":2666:2669   */\n      dup6\n        /* \"#utility.yul\":2642:2683   */\n      tag_179\n      jump\t// in\n    tag_273:\n        /* \"#utility.yul\":2361:2689   */\n      pop\n        /* \"#utility.yul\":2277:2689   */\n      swap4\n      swap3\n      pop\n      pop\n      pop\n      jump\t// out\n        /* \"#utility.yul\":2709:3049   */\n    tag_181:\n        /* \"#utility.yul\":2765:2770   */\n      0x00\n        /* \"#utility.yul\":2814:2817   */\n      dup3\n        /* \"#utility.yul\":2807:2811   */\n      0x1f\n        /* \"#utility.yul\":2799:2805   */\n      dup4\n        /* \"#utility.yul\":2795:2812   */\n      add\n        /* \"#utility.yul\":2791:2818   */\n      slt\n        /* \"#utility.yul\":2781:2903   */\n      tag_275\n      jumpi\n        /* \"#utility.yul\":2822:2901   */\n      tag_276\n      tag_173\n      jump\t// in\n    tag_276:\n        /* \"#utility.yul\":2781:2903   */\n    tag_275:\n        /* \"#utility.yul\":2939:2945   */\n      dup2\n        /* \"#utility.yul\":2926:2946   */\n      calldataload\n        /* \"#utility.yul\":2964:3043   */\n      tag_277\n        /* \"#utility.yul\":3039:3042   */\n      dup5\n        /* \"#utility.yul\":3031:3037   */\n      dup3\n        /* \"#utility.yul\":3024:3028   */\n      0x20\n        /* \"#utility.yul\":3016:3022   */\n      dup7\n        /* \"#utility.yul\":3012:3029   */\n      add\n        /* \"#utility.yul\":2964:3043   */\n      tag_180\n      jump\t// in\n    tag_277:\n        /* \"#utility.yul\":2955:3043   */\n      swap2\n      pop\n        /* \"#utility.yul\":2771:3049   */\n      pop\n        /* \"#utility.yul\":2709:3049   */\n      swap3\n      swap2\n      pop\n      pop\n      jump\t// out\n        /* \"#utility.yul\":3055:3132   */\n    tag_182:\n        /* \"#utility.yul\":3092:3099   */\n      0x00\n        /* \"#utility.yul\":3121:3126   */\n      dup2\n        /* \"#utility.yul\":3110:3126   */\n      swap1\n      pop\n        /* \"#utility.yul\":3055:3132   */\n      swap2\n      swap1\n      pop\n      jump\t// out\n        /* \"#utility.yul\":3138:3260   */\n    tag_183:\n        /* \"#utility.yul\":3211:3235   */\n      tag_280\n        /* \"#utility.yul\":3229:3234   */\n      dup2\n        /* \"#utility.yul\":3211:3235   */\n      tag_182\n      jump\t// in\n    tag_280:\n        /* \"#utility.yul\":3204:3209   */\n      dup2\n        /* \"#utility.yul\":3201:3236   */\n      eq\n        /* \"#utility.yul\":3191:3254   */\n      tag_281\n      jumpi\n        /* \"#utility.yul\":3250:3251   */\n      0x00\n        /* \"#utility.yul\":3247:3248   */\n      dup1\n        /* \"#utility.yul\":3240:3252   */\n      revert\n        /* \"#utility.yul\":3191:3254   */\n    tag_281:\n        /* \"#utility.yul\":3138:3260   */\n      pop\n      jump\t// out\n        /* \"#utility.yul\":3266:3405   */\n    tag_184:\n        /* \"#utility.yul\":3312:3317   */\n      0x00\n        /* \"#utility.yul\":3350:3356   */\n      dup2\n        /* \"#utility.yul\":3337:3357   */\n      calldataload\n        /* \"#utility.yul\":3328:3357   */\n      swap1\n      pop\n        /* \"#utility.yul\":3366:3399   */\n      tag_283\n        /* \"#utility.yul\":3393:3398   */\n      dup2\n        /* \"#utility.yul\":3366:3399   */\n      tag_183\n      jump\t// in\n    tag_283:\n        /* \"#utility.yul\":3266:3405   */\n      swap3\n      swap2\n      pop\n      pop\n      jump\t// out\n        /* \"#utility.yul\":3411:4356   */\n    tag_20:\n        /* \"#utility.yul\":3507:3513   */\n      0x00\n        /* \"#utility.yul\":3515:3521   */\n      dup1\n        /* \"#utility.yul\":3523:3529   */\n      0x00\n        /* \"#utility.yul\":3531:3537   */\n      dup1\n        /* \"#utility.yul\":3580:3583   */\n      0x80\n        /* \"#utility.yul\":3568:3577   */\n      dup6\n        /* \"#utility.yul\":3559:3566   */\n      dup8\n        /* \"#utility.yul\":3555:3578   */\n      sub\n        /* \"#utility.yul\":3551:3584   */\n      slt\n        /* \"#utility.yul\":3548:3668   */\n      iszero\n      tag_285\n      jumpi\n        /* \"#utility.yul\":3587:3666   */\n      tag_286\n      tag_167\n      jump\t// in\n    tag_286:\n        /* \"#utility.yul\":3548:3668   */\n    tag_285:\n        /* \"#utility.yul\":3707:3708   */\n      0x00\n        /* \"#utility.yul\":3732:3785   */\n      tag_287\n        /* \"#utility.yul\":3777:3784   */\n      dup8\n        /* \"#utility.yul\":3768:3774   */\n      dup3\n        /* \"#utility.yul\":3757:3766   */\n      dup9\n        /* \"#utility.yul\":3753:3775   */\n      add\n        /* \"#utility.yul\":3732:3785   */\n      tag_172\n      jump\t// in\n    tag_287:\n        /* \"#utility.yul\":3722:3785   */\n      swap5\n      pop\n        /* \"#utility.yul\":3678:3795   */\n      pop\n        /* \"#utility.yul\":3862:3864   */\n      0x20\n        /* \"#utility.yul\":3851:3860   */\n      dup6\n        /* \"#utility.yul\":3847:3865   */\n      add\n        /* \"#utility.yul\":3834:3866   */\n      calldataload\n        /* \"#utility.yul\":3893:3911   */\n      0xffffffffffffffff\n        /* \"#utility.yul\":3885:3891   */\n      dup2\n        /* \"#utility.yul\":3882:3912   */\n      gt\n        /* \"#utility.yul\":3879:3996   */\n      iszero\n      tag_288\n      jumpi\n        /* \"#utility.yul\":3915:3994   */\n      tag_289\n      tag_168\n      jump\t// in\n    tag_289:\n        /* \"#utility.yul\":3879:3996   */\n    tag_288:\n        /* \"#utility.yul\":4020:4083   */\n      tag_290\n        /* \"#utility.yul\":4075:4082   */\n      dup8\n        /* \"#utility.yul\":4066:4072   */\n      dup3\n        /* \"#utility.yul\":4055:4064   */\n      dup9\n        /* \"#utility.yul\":4051:4073   */\n      add\n        /* \"#utility.yul\":4020:4083   */\n      tag_181\n      jump\t// in\n    tag_290:\n        /* \"#utility.yul\":4010:4083   */\n      swap4\n      pop\n        /* \"#utility.yul\":3805:4093   */\n      pop\n        /* \"#utility.yul\":4132:4134   */\n      0x40\n        /* \"#utility.yul\":4158:4211   */\n      tag_291\n        /* \"#utility.yul\":4203:4210   */\n      dup8\n        /* \"#utility.yul\":4194:4200   */\n      dup3\n        /* \"#utility.yul\":4183:4192   */\n      dup9\n        /* \"#utility.yul\":4179:4201   */\n      add\n        /* \"#utility.yul\":4158:4211   */\n      tag_184\n      jump\t// in\n    tag_291:\n        /* \"#utility.yul\":4148:4211   */\n      swap3\n      pop\n        /* \"#utility.yul\":4103:4221   */\n      pop\n        /* \"#utility.yul\":4260:4262   */\n      0x60\n        /* \"#utility.yul\":4286:4339   */\n      tag_292\n        /* \"#utility.yul\":4331:4338   */\n      dup8\n        /* \"#utility.yul\":4322:4328   */\n      dup3\n        /* \"#utility.yul\":4311:4320   */\n      dup9\n        /* \"#utility.yul\":4307:4329   */\n      add\n        /* \"#utility.yul\":4286:4339   */\n      tag_184\n      jump\t// in\n    tag_292:\n        /* \"#utility.yul\":4276:4339   */\n      swap2\n      pop\n        /* \"#utility.yul\":4231:4349   */\n      pop\n        /* \"#utility.yul\":3411:4356   */\n      swap3\n      swap6\n      swap2\n      swap5\n      pop\n      swap3\n      pop\n      jump\t// out\n        /* \"#utility.yul\":4362:4439   */\n    tag_185:\n        /* \"#utility.yul\":4399:4406   */\n      0x00\n        /* \"#utility.yul\":4428:4433   */\n      dup2\n        /* \"#utility.yul\":4417:4433   */\n      swap1\n      pop\n        /* \"#utility.yul\":4362:4439   */\n      swap2\n      swap1\n      pop\n      jump\t// out\n        /* \"#utility.yul\":4445:4563   */\n    tag_186:\n        /* \"#utility.yul\":4532:4556   */\n      tag_295\n        /* \"#utility.yul\":4550:4555   */\n      dup2\n        /* \"#utility.yul\":4532:4556   */\n      tag_185\n      jump\t// in\n    tag_295:\n        /* \"#utility.yul\":4527:4530   */\n      dup3\n        /* \"#utility.yul\":4520:4557   */\n      mstore\n        /* \"#utility.yul\":4445:4563   */\n      pop\n      pop\n      jump\t// out\n        /* \"#utility.yul\":4569:4791   */\n    tag_23:\n        /* \"#utility.yul\":4662:4666   */\n      0x00\n        /* \"#utility.yul\":4700:4702   */\n      0x20\n        /* \"#utility.yul\":4689:4698   */\n      dup3\n        /* \"#utility.yul\":4685:4703   */\n      add\n        /* \"#utility.yul\":4677:4703   */\n      swap1\n      pop\n        /* \"#utility.yul\":4713:4784   */\n      tag_297\n        /* \"#utility.yul\":4781:4782   */\n      0x00\n        /* \"#utility.yul\":4770:4779   */\n      dup4\n        /* \"#utility.yul\":4766:4783   */\n      add\n        /* \"#utility.yul\":4757:4763   */\n      dup5\n        /* \"#utility.yul\":4713:4784   */\n      tag_186\n      jump\t// in\n    tag_297:\n        /* \"#utility.yul\":4569:4791   */\n      swap3\n      swap2\n      pop\n      pop\n      jump\t// out\n        /* \"#utility.yul\":4797:4886   */\n    tag_187:\n        /* \"#utility.yul\":4833:4840   */\n      0x00\n        /* \"#utility.yul\":4873:4879   */\n      0xffff\n        /* \"#utility.yul\":4866:4871   */\n      dup3\n        /* \"#utility.yul\":4862:4880   */\n      and\n        /* \"#utility.yul\":4851:4880   */\n      swap1\n      pop\n        /* \"#utility.yul\":4797:4886   */\n      swap2\n      swap1\n      pop\n      jump\t// out\n        /* \"#utility.yul\":4892:5012   */\n    tag_188:\n        /* \"#utility.yul\":4964:4987   */\n      tag_300\n        /* \"#utility.yul\":4981:4986   */\n      dup2\n        /* \"#utility.yul\":4964:4987   */\n      tag_187\n      jump\t// in\n    tag_300:\n        /* \"#utility.yul\":4957:4962   */\n      dup2\n        /* \"#utility.yul\":4954:4988   */\n      eq\n        /* \"#utility.yul\":4944:5006   */\n      tag_301\n      jumpi\n        /* \"#utility.yul\":5002:5003   */\n      0x00\n        /* \"#utility.yul\":4999:5000   */\n      dup1\n        /* \"#utility.yul\":4992:5004   */\n      revert\n        /* \"#utility.yul\":4944:5006   */\n    tag_301:\n        /* \"#utility.yul\":4892:5012   */\n      pop\n      jump\t// out\n        /* \"#utility.yul\":5018:5155   */\n    tag_189:\n        /* \"#utility.yul\":5063:5068   */\n      0x00\n        /* \"#utility.yul\":5101:5107   */\n      dup2\n        /* \"#utility.yul\":5088:5108   */\n      calldataload\n        /* \"#utility.yul\":5079:5108   */\n      swap1\n      pop\n        /* \"#utility.yul\":5117:5149   */\n      tag_303\n        /* \"#utility.yul\":5143:5148   */\n      dup2\n        /* \"#utility.yul\":5117:5149   */\n      tag_188\n      jump\t// in\n    tag_303:\n        /* \"#utility.yul\":5018:5155   */\n      swap3\n      swap2\n      pop\n      pop\n      jump\t// out\n        /* \"#utility.yul\":5161:5813   */\n    tag_27:\n        /* \"#utility.yul\":5238:5244   */\n      0x00\n        /* \"#utility.yul\":5246:5252   */\n      dup1\n        /* \"#utility.yul\":5295:5297   */\n      0x40\n        /* \"#utility.yul\":5283:5292   */\n      dup4\n        /* \"#utility.yul\":5274:5281   */\n      dup6\n        /* \"#utility.yul\":5270:5293   */\n      sub\n        /* \"#utility.yul\":5266:5298   */\n      slt\n        /* \"#utility.yul\":5263:5382   */\n      iszero\n      tag_305\n      jumpi\n        /* \"#utility.yul\":5301:5380   */\n      tag_306\n      tag_167\n      jump\t// in\n    tag_306:\n        /* \"#utility.yul\":5263:5382   */\n    tag_305:\n        /* \"#utility.yul\":5449:5450   */\n      0x00\n        /* \"#utility.yul\":5438:5447   */\n      dup4\n        /* \"#utility.yul\":5434:5451   */\n      add\n        /* \"#utility.yul\":5421:5452   */\n      calldataload\n        /* \"#utility.yul\":5479:5497   */\n      0xffffffffffffffff\n        /* \"#utility.yul\":5471:5477   */\n      dup2\n        /* \"#utility.yul\":5468:5498   */\n      gt\n        /* \"#utility.yul\":5465:5582   */\n      iszero\n      tag_307\n      jumpi\n        /* \"#utility.yul\":5501:5580   */\n      tag_308\n      tag_168\n      jump\t// in\n    tag_308:\n        /* \"#utility.yul\":5465:5582   */\n    tag_307:\n        /* \"#utility.yul\":5606:5669   */\n      tag_309\n        /* \"#utility.yul\":5661:5668   */\n      dup6\n        /* \"#utility.yul\":5652:5658   */\n      dup3\n        /* \"#utility.yul\":5641:5650   */\n      dup7\n        /* \"#utility.yul\":5637:5659   */\n      add\n        /* \"#utility.yul\":5606:5669   */\n      tag_181\n      jump\t// in\n    tag_309:\n        /* \"#utility.yul\":5596:5669   */\n      swap3\n      pop\n        /* \"#utility.yul\":5392:5679   */\n      pop\n        /* \"#utility.yul\":5718:5720   */\n      0x20\n        /* \"#utility.yul\":5744:5796   */\n      tag_310\n        /* \"#utility.yul\":5788:5795   */\n      dup6\n        /* \"#utility.yul\":5779:5785   */\n      dup3\n        /* \"#utility.yul\":5768:5777   */\n      dup7\n        /* \"#utility.yul\":5764:5786   */\n      add\n        /* \"#utility.yul\":5744:5796   */\n      tag_189\n      jump\t// in\n    tag_310:\n        /* \"#utility.yul\":5734:5796   */\n      swap2\n      pop\n        /* \"#utility.yul\":5689:5806   */\n      pop\n        /* \"#utility.yul\":5161:5813   */\n      swap3\n      pop\n      swap3\n      swap1\n      pop\n      jump\t// out\n        /* \"#utility.yul\":5819:5918   */\n    tag_190:\n        /* \"#utility.yul\":5871:5877   */\n      0x00\n        /* \"#utility.yul\":5905:5910   */\n      dup2\n        /* \"#utility.yul\":5899:5911   */\n      mload\n        /* \"#utility.yul\":5889:5911   */\n      swap1\n      pop\n        /* \"#utility.yul\":5819:5918   */\n      swap2\n      swap1\n      pop\n      jump\t// out\n        /* \"#utility.yul\":5924:6093   */\n    tag_191:\n        /* \"#utility.yul\":6008:6019   */\n      0x00\n        /* \"#utility.yul\":6042:6048   */\n      dup3\n        /* \"#utility.yul\":6037:6040   */\n      dup3\n        /* \"#utility.yul\":6030:6049   */\n      mstore\n        /* \"#utility.yul\":6082:6086   */\n      0x20\n        /* \"#utility.yul\":6077:6080   */\n      dup3\n        /* \"#utility.yul\":6073:6087   */\n      add\n        /* \"#utility.yul\":6058:6087   */\n      swap1\n      pop\n        /* \"#utility.yul\":5924:6093   */\n      swap3\n      swap2\n      pop\n      pop\n      jump\t// out\n        /* \"#utility.yul\":6099:6406   */\n    tag_192:\n        /* \"#utility.yul\":6167:6168   */\n      0x00\n        /* \"#utility.yul\":6177:6290   */\n    tag_314:\n        /* \"#utility.yul\":6191:6197   */\n      dup4\n        /* \"#utility.yul\":6188:6189   */\n      dup2\n        /* \"#utility.yul\":6185:6198   */\n      lt\n        /* \"#utility.yul\":6177:6290   */\n      iszero\n      tag_316\n      jumpi\n        /* \"#utility.yul\":6276:6277   */\n      dup1\n        /* \"#utility.yul\":6271:6274   */\n      dup3\n        /* \"#utility.yul\":6267:6278   */\n      add\n        /* \"#utility.yul\":6261:6279   */\n      mload\n        /* \"#utility.yul\":6257:6258   */\n      dup2\n        /* \"#utility.yul\":6252:6255   */\n      dup5\n        /* \"#utility.yul\":6248:6259   */\n      add\n        /* \"#utility.yul\":6241:6280   */\n      mstore\n        /* \"#utility.yul\":6213:6215   */\n      0x20\n        /* \"#utility.yul\":6210:6211   */\n      dup2\n        /* \"#utility.yul\":6206:6216   */\n      add\n        /* \"#utility.yul\":6201:6216   */\n      swap1\n      pop\n        /* \"#utility.yul\":6177:6290   */\n      jump(tag_314)\n    tag_316:\n        /* \"#utility.yul\":6308:6314   */\n      dup4\n        /* \"#utility.yul\":6305:6306   */\n      dup2\n        /* \"#utility.yul\":6302:6315   */\n      gt\n        /* \"#utility.yul\":6299:6400   */\n      iszero\n      tag_317\n      jumpi\n        /* \"#utility.yul\":6388:6389   */\n      0x00\n        /* \"#utility.yul\":6379:6385   */\n      dup5\n        /* \"#utility.yul\":6374:6377   */\n      dup5\n        /* \"#utility.yul\":6370:6386   */\n      add\n        /* \"#utility.yul\":6363:6390   */\n      mstore\n        /* \"#utility.yul\":6299:6400   */\n    tag_317:\n        /* \"#utility.yul\":6148:6406   */\n      pop\n        /* \"#utility.yul\":6099:6406   */\n      pop\n      pop\n      pop\n      jump\t// out\n        /* \"#utility.yul\":6412:6776   */\n    tag_193:\n        /* \"#utility.yul\":6500:6503   */\n      0x00\n        /* \"#utility.yul\":6528:6567   */\n      tag_319\n        /* \"#utility.yul\":6561:6566   */\n      dup3\n        /* \"#utility.yul\":6528:6567   */\n      tag_190\n      jump\t// in\n    tag_319:\n        /* \"#utility.yul\":6583:6654   */\n      tag_320\n        /* \"#utility.yul\":6647:6653   */\n      dup2\n        /* \"#utility.yul\":6642:6645   */\n      dup6\n        /* \"#utility.yul\":6583:6654   */\n      tag_191\n      jump\t// in\n    tag_320:\n        /* \"#utility.yul\":6576:6654   */\n      swap4\n      pop\n        /* \"#utility.yul\":6663:6715   */\n      tag_321\n        /* \"#utility.yul\":6708:6714   */\n      dup2\n        /* \"#utility.yul\":6703:6706   */\n      dup6\n        /* \"#utility.yul\":6696:6700   */\n      0x20\n        /* \"#utility.yul\":6689:6694   */\n      dup7\n        /* \"#utility.yul\":6685:6701   */\n      add\n        /* \"#utility.yul\":6663:6715   */\n      tag_192\n      jump\t// in\n    tag_321:\n        /* \"#utility.yul\":6740:6769   */\n      tag_322\n        /* \"#utility.yul\":6762:6768   */\n      dup2\n        /* \"#utility.yul\":6740:6769   */\n      tag_175\n      jump\t// in\n    tag_322:\n        /* \"#utility.yul\":6735:6738   */\n      dup5\n        /* \"#utility.yul\":6731:6770   */\n      add\n        /* \"#utility.yul\":6724:6770   */\n      swap2\n      pop\n        /* \"#utility.yul\":6504:6776   */\n      pop\n        /* \"#utility.yul\":6412:6776   */\n      swap3\n      swap2\n      pop\n      pop\n      jump\t// out\n        /* \"#utility.yul\":6782:6900   */\n    tag_194:\n        /* \"#utility.yul\":6869:6893   */\n      tag_324\n        /* \"#utility.yul\":6887:6892   */\n      dup2\n        /* \"#utility.yul\":6869:6893   */\n      tag_182\n      jump\t// in\n    tag_324:\n        /* \"#utility.yul\":6864:6867   */\n      dup3\n        /* \"#utility.yul\":6857:6894   */\n      mstore\n        /* \"#utility.yul\":6782:6900   */\n      pop\n      pop\n      jump\t// out\n        /* \"#utility.yul\":6906:7329   */\n    tag_30:\n        /* \"#utility.yul\":7047:7051   */\n      0x00\n        /* \"#utility.yul\":7085:7087   */\n      0x40\n        /* \"#utility.yul\":7074:7083   */\n      dup3\n        /* \"#utility.yul\":7070:7088   */\n      add\n        /* \"#utility.yul\":7062:7088   */\n      swap1\n      pop\n        /* \"#utility.yul\":7134:7143   */\n      dup2\n        /* \"#utility.yul\":7128:7132   */\n      dup2\n        /* \"#utility.yul\":7124:7144   */\n      sub\n        /* \"#utility.yul\":7120:7121   */\n      0x00\n        /* \"#utility.yul\":7109:7118   */\n      dup4\n        /* \"#utility.yul\":7105:7122   */\n      add\n        /* \"#utility.yul\":7098:7145   */\n      mstore\n        /* \"#utility.yul\":7162:7240   */\n      tag_326\n        /* \"#utility.yul\":7235:7239   */\n      dup2\n        /* \"#utility.yul\":7226:7232   */\n      dup6\n        /* \"#utility.yul\":7162:7240   */\n      tag_193\n      jump\t// in\n    tag_326:\n        /* \"#utility.yul\":7154:7240   */\n      swap1\n      pop\n        /* \"#utility.yul\":7250:7322   */\n      tag_327\n        /* \"#utility.yul\":7318:7320   */\n      0x20\n        /* \"#utility.yul\":7307:7316   */\n      dup4\n        /* \"#utility.yul\":7303:7321   */\n      add\n        /* \"#utility.yul\":7294:7300   */\n      dup5\n        /* \"#utility.yul\":7250:7322   */\n      tag_194\n      jump\t// in\n    tag_327:\n        /* \"#utility.yul\":6906:7329   */\n      swap4\n      swap3\n      pop\n      pop\n      pop\n      jump\t// out\n        /* \"#utility.yul\":7335:7989   */\n    tag_34:\n        /* \"#utility.yul\":7413:7419   */\n      0x00\n        /* \"#utility.yul\":7421:7427   */\n      dup1\n        /* \"#utility.yul\":7470:7472   */\n      0x40\n        /* \"#utility.yul\":7458:7467   */\n      dup4\n        /* \"#utility.yul\":7449:7456   */\n      dup6\n        /* \"#utility.yul\":7445:7468   */\n      sub\n        /* \"#utility.yul\":7441:7473   */\n      slt\n        /* \"#utility.yul\":7438:7557   */\n      iszero\n      tag_329\n      jumpi\n        /* \"#utility.yul\":7476:7555   */\n      tag_330\n      tag_167\n      jump\t// in\n    tag_330:\n        /* \"#utility.yul\":7438:7557   */\n    tag_329:\n        /* \"#utility.yul\":7596:7597   */\n      0x00\n        /* \"#utility.yul\":7621:7674   */\n      tag_331\n        /* \"#utility.yul\":7666:7673   */\n      dup6\n        /* \"#utility.yul\":7657:7663   */\n      dup3\n        /* \"#utility.yul\":7646:7655   */\n      dup7\n        /* \"#utility.yul\":7642:7664   */\n      add\n        /* \"#utility.yul\":7621:7674   */\n      tag_172\n      jump\t// in\n    tag_331:\n        /* \"#utility.yul\":7611:7674   */\n      swap3\n      pop\n        /* \"#utility.yul\":7567:7684   */\n      pop\n        /* \"#utility.yul\":7751:7753   */\n      0x20\n        /* \"#utility.yul\":7740:7749   */\n      dup4\n        /* \"#utility.yul\":7736:7754   */\n      add\n        /* \"#utility.yul\":7723:7755   */\n      calldataload\n        /* \"#utility.yul\":7782:7800   */\n      0xffffffffffffffff\n        /* \"#utility.yul\":7774:7780   */\n      dup2\n        /* \"#utility.yul\":7771:7801   */\n      gt\n        /* \"#utility.yul\":7768:7885   */\n      iszero\n      tag_332\n      jumpi\n        /* \"#utility.yul\":7804:7883   */\n      tag_333\n      tag_168\n      jump\t// in\n    tag_333:\n        /* \"#utility.yul\":7768:7885   */\n    tag_332:\n        /* \"#utility.yul\":7909:7972   */\n      tag_334\n        /* \"#utility.yul\":7964:7971   */\n      dup6\n        /* \"#utility.yul\":7955:7961   */\n      dup3\n        /* \"#utility.yul\":7944:7953   */\n      dup7\n        /* \"#utility.yul\":7940:7962   */\n      add\n        /* \"#utility.yul\":7909:7972   */\n      tag_181\n      jump\t// in\n    tag_334:\n        /* \"#utility.yul\":7899:7972   */\n      swap2\n      pop\n        /* \"#utility.yul\":7694:7982   */\n      pop\n        /* \"#utility.yul\":7335:7989   */\n      swap3\n      pop\n      swap3\n      swap1\n      pop\n      jump\t// out\n        /* \"#utility.yul\":7995:8504   */\n    tag_39:\n        /* \"#utility.yul\":8064:8070   */\n      0x00\n        /* \"#utility.yul\":8113:8115   */\n      0x20\n        /* \"#utility.yul\":8101:8110   */\n      dup3\n        /* \"#utility.yul\":8092:8099   */\n      dup5\n        /* \"#utility.yul\":8088:8111   */\n      sub\n        /* \"#utility.yul\":8084:8116   */\n      slt\n        /* \"#utility.yul\":8081:8200   */\n      iszero\n      tag_336\n      jumpi\n        /* \"#utility.yul\":8119:8198   */\n      tag_337\n      tag_167\n      jump\t// in\n    tag_337:\n        /* \"#utility.yul\":8081:8200   */\n    tag_336:\n        /* \"#utility.yul\":8267:8268   */\n      0x00\n        /* \"#utility.yul\":8256:8265   */\n      dup3\n        /* \"#utility.yul\":8252:8269   */\n      add\n        /* \"#utility.yul\":8239:8270   */\n      calldataload\n        /* \"#utility.yul\":8297:8315   */\n      0xffffffffffffffff\n        /* \"#utility.yul\":8289:8295   */\n      dup2\n        /* \"#utility.yul\":8286:8316   */\n      gt\n        /* \"#utility.yul\":8283:8400   */\n      iszero\n      tag_338\n      jumpi\n        /* \"#utility.yul\":8319:8398   */\n      tag_339\n      tag_168\n      jump\t// in\n    tag_339:\n        /* \"#utility.yul\":8283:8400   */\n    tag_338:\n        /* \"#utility.yul\":8424:8487   */\n      tag_340\n        /* \"#utility.yul\":8479:8486   */\n      dup5\n        /* \"#utility.yul\":8470:8476   */\n      dup3\n        /* \"#utility.yul\":8459:8468   */\n      dup6\n        /* \"#utility.yul\":8455:8477   */\n      add\n        /* \"#utility.yul\":8424:8487   */\n      tag_181\n      jump\t// in\n    tag_340:\n        /* \"#utility.yul\":8414:8487   */\n      swap2\n      pop\n        /* \"#utility.yul\":8210:8497   */\n      pop\n        /* \"#utility.yul\":7995:8504   */\n      swap3\n      swap2\n      pop\n      pop\n      jump\t// out\n        /* \"#utility.yul\":8510:8624   */\n    tag_195:\n        /* \"#utility.yul\":8577:8583   */\n      0x00\n        /* \"#utility.yul\":8611:8616   */\n      dup2\n        /* \"#utility.yul\":8605:8617   */\n      mload\n        /* \"#utility.yul\":8595:8617   */\n      swap1\n      pop\n        /* \"#utility.yul\":8510:8624   */\n      swap2\n      swap1\n      pop\n      jump\t// out\n        /* \"#utility.yul\":8630:8814   */\n    tag_196:\n        /* \"#utility.yul\":8729:8740   */\n      0x00\n        /* \"#utility.yul\":8763:8769   */\n      dup3\n        /* \"#utility.yul\":8758:8761   */\n      dup3\n        /* \"#utility.yul\":8751:8770   */\n      mstore\n        /* \"#utility.yul\":8803:8807   */\n      0x20\n        /* \"#utility.yul\":8798:8801   */\n      dup3\n        /* \"#utility.yul\":8794:8808   */\n      add\n        /* \"#utility.yul\":8779:8808   */\n      swap1\n      pop\n        /* \"#utility.yul\":8630:8814   */\n      swap3\n      swap2\n      pop\n      pop\n      jump\t// out\n        /* \"#utility.yul\":8820:8952   */\n    tag_197:\n        /* \"#utility.yul\":8887:8891   */\n      0x00\n        /* \"#utility.yul\":8910:8913   */\n      dup2\n        /* \"#utility.yul\":8902:8913   */\n      swap1\n      pop\n        /* \"#utility.yul\":8940:8944   */\n      0x20\n        /* \"#utility.yul\":8935:8938   */\n      dup3\n        /* \"#utility.yul\":8931:8945   */\n      add\n        /* \"#utility.yul\":8923:8945   */\n      swap1\n      pop\n        /* \"#utility.yul\":8820:8952   */\n      swap2\n      swap1\n      pop\n      jump\t// out\n        /* \"#utility.yul\":8958:9066   */\n    tag_198:\n        /* \"#utility.yul\":9035:9059   */\n      tag_345\n        /* \"#utility.yul\":9053:9058   */\n      dup2\n        /* \"#utility.yul\":9035:9059   */\n      tag_182\n      jump\t// in\n    tag_345:\n        /* \"#utility.yul\":9030:9033   */\n      dup3\n        /* \"#utility.yul\":9023:9060   */\n      mstore\n        /* \"#utility.yul\":8958:9066   */\n      pop\n      pop\n      jump\t// out\n        /* \"#utility.yul\":9072:9251   */\n    tag_199:\n        /* \"#utility.yul\":9141:9151   */\n      0x00\n        /* \"#utility.yul\":9162:9208   */\n      tag_347\n        /* \"#utility.yul\":9204:9207   */\n      dup4\n        /* \"#utility.yul\":9196:9202   */\n      dup4\n        /* \"#utility.yul\":9162:9208   */\n      tag_198\n      jump\t// in\n    tag_347:\n        /* \"#utility.yul\":9240:9244   */\n      0x20\n        /* \"#utility.yul\":9235:9238   */\n      dup4\n        /* \"#utility.yul\":9231:9245   */\n      add\n        /* \"#utility.yul\":9217:9245   */\n      swap1\n      pop\n        /* \"#utility.yul\":9072:9251   */\n      swap3\n      swap2\n      pop\n      pop\n      jump\t// out\n        /* \"#utility.yul\":9257:9370   */\n    tag_200:\n        /* \"#utility.yul\":9327:9331   */\n      0x00\n        /* \"#utility.yul\":9359:9363   */\n      0x20\n        /* \"#utility.yul\":9354:9357   */\n      dup3\n        /* \"#utility.yul\":9350:9364   */\n      add\n        /* \"#utility.yul\":9342:9364   */\n      swap1\n      pop\n        /* \"#utility.yul\":9257:9370   */\n      swap2\n      swap1\n      pop\n      jump\t// out\n        /* \"#utility.yul\":9406:10138   */\n    tag_201:\n        /* \"#utility.yul\":9525:9528   */\n      0x00\n        /* \"#utility.yul\":9554:9608   */\n      tag_350\n        /* \"#utility.yul\":9602:9607   */\n      dup3\n        /* \"#utility.yul\":9554:9608   */\n      tag_195\n      jump\t// in\n    tag_350:\n        /* \"#utility.yul\":9624:9710   */\n      tag_351\n        /* \"#utility.yul\":9703:9709   */\n      dup2\n        /* \"#utility.yul\":9698:9701   */\n      dup6\n        /* \"#utility.yul\":9624:9710   */\n      tag_196\n      jump\t// in\n    tag_351:\n        /* \"#utility.yul\":9617:9710   */\n      swap4\n      pop\n        /* \"#utility.yul\":9734:9790   */\n      tag_352\n        /* \"#utility.yul\":9784:9789   */\n      dup4\n        /* \"#utility.yul\":9734:9790   */\n      tag_197\n      jump\t// in\n    tag_352:\n        /* \"#utility.yul\":9813:9820   */\n      dup1\n        /* \"#utility.yul\":9844:9845   */\n      0x00\n        /* \"#utility.yul\":9829:10113   */\n    tag_353:\n        /* \"#utility.yul\":9854:9860   */\n      dup4\n        /* \"#utility.yul\":9851:9852   */\n      dup2\n        /* \"#utility.yul\":9848:9861   */\n      lt\n        /* \"#utility.yul\":9829:10113   */\n      iszero\n      tag_355\n      jumpi\n        /* \"#utility.yul\":9930:9936   */\n      dup2\n        /* \"#utility.yul\":9924:9937   */\n      mload\n        /* \"#utility.yul\":9957:10020   */\n      tag_356\n        /* \"#utility.yul\":10016:10019   */\n      dup9\n        /* \"#utility.yul\":10001:10014   */\n      dup3\n        /* \"#utility.yul\":9957:10020   */\n      tag_199\n      jump\t// in\n    tag_356:\n        /* \"#utility.yul\":9950:10020   */\n      swap8\n      pop\n        /* \"#utility.yul\":10043:10103   */\n      tag_357\n        /* \"#utility.yul\":10096:10102   */\n      dup4\n        /* \"#utility.yul\":10043:10103   */\n      tag_200\n      jump\t// in\n    tag_357:\n        /* \"#utility.yul\":10033:10103   */\n      swap3\n      pop\n        /* \"#utility.yul\":9889:10113   */\n      pop\n        /* \"#utility.yul\":9876:9877   */\n      0x01\n        /* \"#utility.yul\":9873:9874   */\n      dup2\n        /* \"#utility.yul\":9869:9878   */\n      add\n        /* \"#utility.yul\":9864:9878   */\n      swap1\n      pop\n        /* \"#utility.yul\":9829:10113   */\n      jump(tag_353)\n    tag_355:\n        /* \"#utility.yul\":9833:9847   */\n      pop\n        /* \"#utility.yul\":10129:10132   */\n      dup6\n        /* \"#utility.yul\":10122:10132   */\n      swap4\n      pop\n        /* \"#utility.yul\":9530:10138   */\n      pop\n      pop\n      pop\n        /* \"#utility.yul\":9406:10138   */\n      swap3\n      swap2\n      pop\n      pop\n      jump\t// out\n        /* \"#utility.yul\":10144:10262   */\n    tag_202:\n        /* \"#utility.yul\":10231:10255   */\n      tag_359\n        /* \"#utility.yul\":10249:10254   */\n      dup2\n        /* \"#utility.yul\":10231:10255   */\n      tag_170\n      jump\t// in\n    tag_359:\n        /* \"#utility.yul\":10226:10229   */\n      dup3\n        /* \"#utility.yul\":10219:10256   */\n      mstore\n        /* \"#utility.yul\":10144:10262   */\n      pop\n      pop\n      jump\t// out\n        /* \"#utility.yul\":10268:10861   */\n    tag_42:\n        /* \"#utility.yul\":10467:10471   */\n      0x00\n        /* \"#utility.yul\":10505:10507   */\n      0x60\n        /* \"#utility.yul\":10494:10503   */\n      dup3\n        /* \"#utility.yul\":10490:10508   */\n      add\n        /* \"#utility.yul\":10482:10508   */\n      swap1\n      pop\n        /* \"#utility.yul\":10554:10563   */\n      dup2\n        /* \"#utility.yul\":10548:10552   */\n      dup2\n        /* \"#utility.yul\":10544:10564   */\n      sub\n        /* \"#utility.yul\":10540:10541   */\n      0x00\n        /* \"#utility.yul\":10529:10538   */\n      dup4\n        /* \"#utility.yul\":10525:10542   */\n      add\n        /* \"#utility.yul\":10518:10565   */\n      mstore\n        /* \"#utility.yul\":10582:10690   */\n      tag_361\n        /* \"#utility.yul\":10685:10689   */\n      dup2\n        /* \"#utility.yul\":10676:10682   */\n      dup7\n        /* \"#utility.yul\":10582:10690   */\n      tag_201\n      jump\t// in\n    tag_361:\n        /* \"#utility.yul\":10574:10690   */\n      swap1\n      pop\n        /* \"#utility.yul\":10700:10772   */\n      tag_362\n        /* \"#utility.yul\":10768:10770   */\n      0x20\n        /* \"#utility.yul\":10757:10766   */\n      dup4\n        /* \"#utility.yul\":10753:10771   */\n      add\n        /* \"#utility.yul\":10744:10750   */\n      dup6\n        /* \"#utility.yul\":10700:10772   */\n      tag_202\n      jump\t// in\n    tag_362:\n        /* \"#utility.yul\":10782:10854   */\n      tag_363\n        /* \"#utility.yul\":10850:10852   */\n      0x40\n        /* \"#utility.yul\":10839:10848   */\n      dup4\n        /* \"#utility.yul\":10835:10853   */\n      add\n        /* \"#utility.yul\":10826:10832   */\n      dup5\n        /* \"#utility.yul\":10782:10854   */\n      tag_194\n      jump\t// in\n    tag_363:\n        /* \"#utility.yul\":10268:10861   */\n      swap5\n      swap4\n      pop\n      pop\n      pop\n      pop\n      jump\t// out\n        /* \"#utility.yul\":10867:10960   */\n    tag_203:\n        /* \"#utility.yul\":10903:10910   */\n      0x00\n        /* \"#utility.yul\":10943:10953   */\n      0xffffffff\n        /* \"#utility.yul\":10936:10941   */\n      dup3\n        /* \"#utility.yul\":10932:10954   */\n      and\n        /* \"#utility.yul\":10921:10954   */\n      swap1\n      pop\n        /* \"#utility.yul\":10867:10960   */\n      swap2\n      swap1\n      pop\n      jump\t// out\n        /* \"#utility.yul\":10966:11081   */\n    tag_204:\n        /* \"#utility.yul\":11051:11074   */\n      tag_366\n        /* \"#utility.yul\":11068:11073   */\n      dup2\n        /* \"#utility.yul\":11051:11074   */\n      tag_203\n      jump\t// in\n    tag_366:\n        /* \"#utility.yul\":11046:11049   */\n      dup3\n        /* \"#utility.yul\":11039:11075   */\n      mstore\n        /* \"#utility.yul\":10966:11081   */\n      pop\n      pop\n      jump\t// out\n        /* \"#utility.yul\":11087:11188   */\n    tag_205:\n        /* \"#utility.yul\":11123:11130   */\n      0x00\n        /* \"#utility.yul\":11163:11181   */\n      0xffffffffffffffff\n        /* \"#utility.yul\":11156:11161   */\n      dup3\n        /* \"#utility.yul\":11152:11182   */\n      and\n        /* \"#utility.yul\":11141:11182   */\n      swap1\n      pop\n        /* \"#utility.yul\":11087:11188   */\n      swap2\n      swap1\n      pop\n      jump\t// out\n        /* \"#utility.yul\":11194:11309   */\n    tag_206:\n        /* \"#utility.yul\":11279:11302   */\n      tag_369\n        /* \"#utility.yul\":11296:11301   */\n      dup2\n        /* \"#utility.yul\":11279:11302   */\n      tag_205\n      jump\t// in\n    tag_369:\n        /* \"#utility.yul\":11274:11277   */\n      dup3\n        /* \"#utility.yul\":11267:11303   */\n      mstore\n        /* \"#utility.yul\":11194:11309   */\n      pop\n      pop\n      jump\t// out\n        /* \"#utility.yul\":11315:11430   */\n    tag_207:\n        /* \"#utility.yul\":11400:11423   */\n      tag_371\n        /* \"#utility.yul\":11417:11422   */\n      dup2\n        /* \"#utility.yul\":11400:11423   */\n      tag_187\n      jump\t// in\n    tag_371:\n        /* \"#utility.yul\":11395:11398   */\n      dup3\n        /* \"#utility.yul\":11388:11424   */\n      mstore\n        /* \"#utility.yul\":11315:11430   */\n      pop\n      pop\n      jump\t// out\n        /* \"#utility.yul\":11436:11526   */\n    tag_208:\n        /* \"#utility.yul\":11470:11477   */\n      0x00\n        /* \"#utility.yul\":11513:11518   */\n      dup2\n        /* \"#utility.yul\":11506:11519   */\n      iszero\n        /* \"#utility.yul\":11499:11520   */\n      iszero\n        /* \"#utility.yul\":11488:11520   */\n      swap1\n      pop\n        /* \"#utility.yul\":11436:11526   */\n      swap2\n      swap1\n      pop\n      jump\t// out\n        /* \"#utility.yul\":11532:11641   */\n    tag_209:\n        /* \"#utility.yul\":11613:11634   */\n      tag_374\n        /* \"#utility.yul\":11628:11633   */\n      dup2\n        /* \"#utility.yul\":11613:11634   */\n      tag_208\n      jump\t// in\n    tag_374:\n        /* \"#utility.yul\":11608:11611   */\n      dup3\n        /* \"#utility.yul\":11601:11635   */\n      mstore\n        /* \"#utility.yul\":11532:11641   */\n      pop\n      pop\n      jump\t// out\n        /* \"#utility.yul\":11647:12394   */\n    tag_52:\n        /* \"#utility.yul\":11866:11870   */\n      0x00\n        /* \"#utility.yul\":11904:11907   */\n      0xc0\n        /* \"#utility.yul\":11893:11902   */\n      dup3\n        /* \"#utility.yul\":11889:11908   */\n      add\n        /* \"#utility.yul\":11881:11908   */\n      swap1\n      pop\n        /* \"#utility.yul\":11918:11989   */\n      tag_376\n        /* \"#utility.yul\":11986:11987   */\n      0x00\n        /* \"#utility.yul\":11975:11984   */\n      dup4\n        /* \"#utility.yul\":11971:11988   */\n      add\n        /* \"#utility.yul\":11962:11968   */\n      dup10\n        /* \"#utility.yul\":11918:11989   */\n      tag_202\n      jump\t// in\n    tag_376:\n        /* \"#utility.yul\":11999:12069   */\n      tag_377\n        /* \"#utility.yul\":12065:12067   */\n      0x20\n        /* \"#utility.yul\":12054:12063   */\n      dup4\n        /* \"#utility.yul\":12050:12068   */\n      add\n        /* \"#utility.yul\":12041:12047   */\n      dup9\n        /* \"#utility.yul\":11999:12069   */\n      tag_204\n      jump\t// in\n    tag_377:\n        /* \"#utility.yul\":12079:12149   */\n      tag_378\n        /* \"#utility.yul\":12145:12147   */\n      0x40\n        /* \"#utility.yul\":12134:12143   */\n      dup4\n        /* \"#utility.yul\":12130:12148   */\n      add\n        /* \"#utility.yul\":12121:12127   */\n      dup8\n        /* \"#utility.yul\":12079:12149   */\n      tag_206\n      jump\t// in\n    tag_378:\n        /* \"#utility.yul\":12159:12229   */\n      tag_379\n        /* \"#utility.yul\":12225:12227   */\n      0x60\n        /* \"#utility.yul\":12214:12223   */\n      dup4\n        /* \"#utility.yul\":12210:12228   */\n      add\n        /* \"#utility.yul\":12201:12207   */\n      dup7\n        /* \"#utility.yul\":12159:12229   */\n      tag_206\n      jump\t// in\n    tag_379:\n        /* \"#utility.yul\":12239:12310   */\n      tag_380\n        /* \"#utility.yul\":12305:12308   */\n      0x80\n        /* \"#utility.yul\":12294:12303   */\n      dup4\n        /* \"#utility.yul\":12290:12309   */\n      add\n        /* \"#utility.yul\":12281:12287   */\n      dup6\n        /* \"#utility.yul\":12239:12310   */\n      tag_207\n      jump\t// in\n    tag_380:\n        /* \"#utility.yul\":12320:12387   */\n      tag_381\n        /* \"#utility.yul\":12382:12385   */\n      0xa0\n        /* \"#utility.yul\":12371:12380   */\n      dup4\n        /* \"#utility.yul\":12367:12386   */\n      add\n        /* \"#utility.yul\":12358:12364   */\n      dup5\n        /* \"#utility.yul\":12320:12387   */\n      tag_209\n      jump\t// in\n    tag_381:\n        /* \"#utility.yul\":11647:12394   */\n      swap8\n      swap7\n      pop\n      pop\n      pop\n      pop\n      pop\n      pop\n      pop\n      jump\t// out\n        /* \"#utility.yul\":12400:12729   */\n    tag_56:\n        /* \"#utility.yul\":12459:12465   */\n      0x00\n        /* \"#utility.yul\":12508:12510   */\n      0x20\n        /* \"#utility.yul\":12496:12505   */\n      dup3\n        /* \"#utility.yul\":12487:12494   */\n      dup5\n        /* \"#utility.yul\":12483:12506   */\n      sub\n        /* \"#utility.yul\":12479:12511   */\n      slt\n        /* \"#utility.yul\":12476:12595   */\n      iszero\n      tag_383\n      jumpi\n        /* \"#utility.yul\":12514:12593   */\n      tag_384\n      tag_167\n      jump\t// in\n    tag_384:\n        /* \"#utility.yul\":12476:12595   */\n    tag_383:\n        /* \"#utility.yul\":12634:12635   */\n      0x00\n        /* \"#utility.yul\":12659:12712   */\n      tag_385\n        /* \"#utility.yul\":12704:12711   */\n      dup5\n        /* \"#utility.yul\":12695:12701   */\n      dup3\n        /* \"#utility.yul\":12684:12693   */\n      dup6\n        /* \"#utility.yul\":12680:12702   */\n      add\n        /* \"#utility.yul\":12659:12712   */\n      tag_172\n      jump\t// in\n    tag_385:\n        /* \"#utility.yul\":12649:12712   */\n      swap2\n      pop\n        /* \"#utility.yul\":12605:12722   */\n      pop\n        /* \"#utility.yul\":12400:12729   */\n      swap3\n      swap2\n      pop\n      pop\n      jump\t// out\n        /* \"#utility.yul\":12735:12957   */\n    tag_59:\n        /* \"#utility.yul\":12828:12832   */\n      0x00\n        /* \"#utility.yul\":12866:12868   */\n      0x20\n        /* \"#utility.yul\":12855:12864   */\n      dup3\n        /* \"#utility.yul\":12851:12869   */\n      add\n        /* \"#utility.yul\":12843:12869   */\n      swap1\n      pop\n        /* \"#utility.yul\":12879:12950   */\n      tag_387\n        /* \"#utility.yul\":12947:12948   */\n      0x00\n        /* \"#utility.yul\":12936:12945   */\n      dup4\n        /* \"#utility.yul\":12932:12949   */\n      add\n        /* \"#utility.yul\":12923:12929   */\n      dup5\n        /* \"#utility.yul\":12879:12950   */\n      tag_194\n      jump\t// in\n    tag_387:\n        /* \"#utility.yul\":12735:12957   */\n      swap3\n      swap2\n      pop\n      pop\n      jump\t// out\n        /* \"#utility.yul\":12963:13077   */\n    tag_210:\n        /* \"#utility.yul\":13030:13036   */\n      0x00\n        /* \"#utility.yul\":13064:13069   */\n      dup2\n        /* \"#utility.yul\":13058:13070   */\n      mload\n        /* \"#utility.yul\":13048:13070   */\n      swap1\n      pop\n        /* \"#utility.yul\":12963:13077   */\n      swap2\n      swap1\n      pop\n      jump\t// out\n        /* \"#utility.yul\":13083:13267   */\n    tag_211:\n        /* \"#utility.yul\":13182:13193   */\n      0x00\n        /* \"#utility.yul\":13216:13222   */\n      dup3\n        /* \"#utility.yul\":13211:13214   */\n      dup3\n        /* \"#utility.yul\":13204:13223   */\n      mstore\n        /* \"#utility.yul\":13256:13260   */\n      0x20\n        /* \"#utility.yul\":13251:13254   */\n      dup3\n        /* \"#utility.yul\":13247:13261   */\n      add\n        /* \"#utility.yul\":13232:13261   */\n      swap1\n      pop\n        /* \"#utility.yul\":13083:13267   */\n      swap3\n      swap2\n      pop\n      pop\n      jump\t// out\n        /* \"#utility.yul\":13273:13405   */\n    tag_212:\n        /* \"#utility.yul\":13340:13344   */\n      0x00\n        /* \"#utility.yul\":13363:13366   */\n      dup2\n        /* \"#utility.yul\":13355:13366   */\n      swap1\n      pop\n        /* \"#utility.yul\":13393:13397   */\n      0x20\n        /* \"#utility.yul\":13388:13391   */\n      dup3\n        /* \"#utility.yul\":13384:13398   */\n      add\n        /* \"#utility.yul\":13376:13398   */\n      swap1\n      pop\n        /* \"#utility.yul\":13273:13405   */\n      swap2\n      swap1\n      pop\n      jump\t// out\n        /* \"#utility.yul\":13411:13519   */\n    tag_213:\n        /* \"#utility.yul\":13488:13512   */\n      tag_392\n        /* \"#utility.yul\":13506:13511   */\n      dup2\n        /* \"#utility.yul\":13488:13512   */\n      tag_170\n      jump\t// in\n    tag_392:\n        /* \"#utility.yul\":13483:13486   */\n      dup3\n        /* \"#utility.yul\":13476:13513   */\n      mstore\n        /* \"#utility.yul\":13411:13519   */\n      pop\n      pop\n      jump\t// out\n        /* \"#utility.yul\":13525:13704   */\n    tag_214:\n        /* \"#utility.yul\":13594:13604   */\n      0x00\n        /* \"#utility.yul\":13615:13661   */\n      tag_394\n        /* \"#utility.yul\":13657:13660   */\n      dup4\n        /* \"#utility.yul\":13649:13655   */\n      dup4\n        /* \"#utility.yul\":13615:13661   */\n      tag_213\n      jump\t// in\n    tag_394:\n        /* \"#utility.yul\":13693:13697   */\n      0x20\n        /* \"#utility.yul\":13688:13691   */\n      dup4\n        /* \"#utility.yul\":13684:13698   */\n      add\n        /* \"#utility.yul\":13670:13698   */\n      swap1\n      pop\n        /* \"#utility.yul\":13525:13704   */\n      swap3\n      swap2\n      pop\n      pop\n      jump\t// out\n        /* \"#utility.yul\":13710:13823   */\n    tag_215:\n        /* \"#utility.yul\":13780:13784   */\n      0x00\n        /* \"#utility.yul\":13812:13816   */\n      0x20\n        /* \"#utility.yul\":13807:13810   */\n      dup3\n        /* \"#utility.yul\":13803:13817   */\n      add\n        /* \"#utility.yul\":13795:13817   */\n      swap1\n      pop\n        /* \"#utility.yul\":13710:13823   */\n      swap2\n      swap1\n      pop\n      jump\t// out\n        /* \"#utility.yul\":13859:14591   */\n    tag_216:\n        /* \"#utility.yul\":13978:13981   */\n      0x00\n        /* \"#utility.yul\":14007:14061   */\n      tag_397\n        /* \"#utility.yul\":14055:14060   */\n      dup3\n        /* \"#utility.yul\":14007:14061   */\n      tag_210\n      jump\t// in\n    tag_397:\n        /* \"#utility.yul\":14077:14163   */\n      tag_398\n        /* \"#utility.yul\":14156:14162   */\n      dup2\n        /* \"#utility.yul\":14151:14154   */\n      dup6\n        /* \"#utility.yul\":14077:14163   */\n      tag_211\n      jump\t// in\n    tag_398:\n        /* \"#utility.yul\":14070:14163   */\n      swap4\n      pop\n        /* \"#utility.yul\":14187:14243   */\n      tag_399\n        /* \"#utility.yul\":14237:14242   */\n      dup4\n        /* \"#utility.yul\":14187:14243   */\n      tag_212\n      jump\t// in\n    tag_399:\n        /* \"#utility.yul\":14266:14273   */\n      dup1\n        /* \"#utility.yul\":14297:14298   */\n      0x00\n        /* \"#utility.yul\":14282:14566   */\n    tag_400:\n        /* \"#utility.yul\":14307:14313   */\n      dup4\n        /* \"#utility.yul\":14304:14305   */\n      dup2\n        /* \"#utility.yul\":14301:14314   */\n      lt\n        /* \"#utility.yul\":14282:14566   */\n      iszero\n      tag_402\n      jumpi\n        /* \"#utility.yul\":14383:14389   */\n      dup2\n        /* \"#utility.yul\":14377:14390   */\n      mload\n        /* \"#utility.yul\":14410:14473   */\n      tag_403\n        /* \"#utility.yul\":14469:14472   */\n      dup9\n        /* \"#utility.yul\":14454:14467   */\n      dup3\n        /* \"#utility.yul\":14410:14473   */\n      tag_214\n      jump\t// in\n    tag_403:\n        /* \"#utility.yul\":14403:14473   */\n      swap8\n      pop\n        /* \"#utility.yul\":14496:14556   */\n      tag_404\n        /* \"#utility.yul\":14549:14555   */\n      dup4\n        /* \"#utility.yul\":14496:14556   */\n      tag_215\n      jump\t// in\n    tag_404:\n        /* \"#utility.yul\":14486:14556   */\n      swap3\n      pop\n        /* \"#utility.yul\":14342:14566   */\n      pop\n        /* \"#utility.yul\":14329:14330   */\n      0x01\n        /* \"#utility.yul\":14326:14327   */\n      dup2\n        /* \"#utility.yul\":14322:14331   */\n      add\n        /* \"#utility.yul\":14317:14331   */\n      swap1\n      pop\n        /* \"#utility.yul\":14282:14566   */\n      jump(tag_400)\n    tag_402:\n        /* \"#utility.yul\":14286:14300   */\n      pop\n        /* \"#utility.yul\":14582:14585   */\n      dup6\n        /* \"#utility.yul\":14575:14585   */\n      swap4\n      pop\n        /* \"#utility.yul\":13983:14591   */\n      pop\n      pop\n      pop\n        /* \"#utility.yul\":13859:14591   */\n      swap3\n      swap2\n      pop\n      pop\n      jump\t// out\n        /* \"#utility.yul\":14597:14970   */\n    tag_73:\n        /* \"#utility.yul\":14740:14744   */\n      0x00\n        /* \"#utility.yul\":14778:14780   */\n      0x20\n        /* \"#utility.yul\":14767:14776   */\n      dup3\n        /* \"#utility.yul\":14763:14781   */\n      add\n        /* \"#utility.yul\":14755:14781   */\n      swap1\n      pop\n        /* \"#utility.yul\":14827:14836   */\n      dup2\n        /* \"#utility.yul\":14821:14825   */\n      dup2\n        /* \"#utility.yul\":14817:14837   */\n      sub\n        /* \"#utility.yul\":14813:14814   */\n      0x00\n        /* \"#utility.yul\":14802:14811   */\n      dup4\n        /* \"#utility.yul\":14798:14815   */\n      add\n        /* \"#utility.yul\":14791:14838   */\n      mstore\n        /* \"#utility.yul\":14855:14963   */\n      tag_406\n        /* \"#utility.yul\":14958:14962   */\n      dup2\n        /* \"#utility.yul\":14949:14955   */\n      dup5\n        /* \"#utility.yul\":14855:14963   */\n      tag_216\n      jump\t// in\n    tag_406:\n        /* \"#utility.yul\":14847:14963   */\n      swap1\n      pop\n        /* \"#utility.yul\":14597:14970   */\n      swap3\n      swap2\n      pop\n      pop\n      jump\t// out\n        /* \"#utility.yul\":14976:15070   */\n    tag_217:\n        /* \"#utility.yul\":15009:15017   */\n      0x00\n        /* \"#utility.yul\":15057:15062   */\n      dup2\n        /* \"#utility.yul\":15053:15055   */\n      0x60\n        /* \"#utility.yul\":15049:15063   */\n      shl\n        /* \"#utility.yul\":15028:15063   */\n      swap1\n      pop\n        /* \"#utility.yul\":14976:15070   */\n      swap2\n      swap1\n      pop\n      jump\t// out\n        /* \"#utility.yul\":15076:15170   */\n    tag_218:\n        /* \"#utility.yul\":15115:15122   */\n      0x00\n        /* \"#utility.yul\":15144:15164   */\n      tag_409\n        /* \"#utility.yul\":15158:15163   */\n      dup3\n        /* \"#utility.yul\":15144:15164   */\n      tag_217\n      jump\t// in\n    tag_409:\n        /* \"#utility.yul\":15133:15164   */\n      swap1\n      pop\n        /* \"#utility.yul\":15076:15170   */\n      swap2\n      swap1\n      pop\n      jump\t// out\n        /* \"#utility.yul\":15176:15276   */\n    tag_219:\n        /* \"#utility.yul\":15215:15222   */\n      0x00\n        /* \"#utility.yul\":15244:15270   */\n      tag_411\n        /* \"#utility.yul\":15264:15269   */\n      dup3\n        /* \"#utility.yul\":15244:15270   */\n      tag_218\n      jump\t// in\n    tag_411:\n        /* \"#utility.yul\":15233:15270   */\n      swap1\n      pop\n        /* \"#utility.yul\":15176:15276   */\n      swap2\n      swap1\n      pop\n      jump\t// out\n        /* \"#utility.yul\":15282:15439   */\n    tag_220:\n        /* \"#utility.yul\":15387:15432   */\n      tag_413\n        /* \"#utility.yul\":15407:15431   */\n      tag_414\n        /* \"#utility.yul\":15425:15430   */\n      dup3\n        /* \"#utility.yul\":15407:15431   */\n      tag_170\n      jump\t// in\n    tag_414:\n        /* \"#utility.yul\":15387:15432   */\n      tag_219\n      jump\t// in\n    tag_413:\n        /* \"#utility.yul\":15382:15385   */\n      dup3\n        /* \"#utility.yul\":15375:15433   */\n      mstore\n        /* \"#utility.yul\":15282:15439   */\n      pop\n      pop\n      jump\t// out\n        /* \"#utility.yul\":15445:15593   */\n    tag_221:\n        /* \"#utility.yul\":15547:15558   */\n      0x00\n        /* \"#utility.yul\":15584:15587   */\n      dup2\n        /* \"#utility.yul\":15569:15587   */\n      swap1\n      pop\n        /* \"#utility.yul\":15445:15593   */\n      swap3\n      swap2\n      pop\n      pop\n      jump\t// out\n        /* \"#utility.yul\":15599:15772   */\n    tag_222:\n        /* \"#utility.yul\":15739:15764   */\n      0x6d6574617472616e73616374696f6e20566f74696e6720000000000000000000\n        /* \"#utility.yul\":15735:15736   */\n      0x00\n        /* \"#utility.yul\":15727:15733   */\n      dup3\n        /* \"#utility.yul\":15723:15737   */\n      add\n        /* \"#utility.yul\":15716:15765   */\n      mstore\n        /* \"#utility.yul\":15599:15772   */\n      pop\n      jump\t// out\n        /* \"#utility.yul\":15778:16180   */\n    tag_223:\n        /* \"#utility.yul\":15938:15941   */\n      0x00\n        /* \"#utility.yul\":15959:16044   */\n      tag_418\n        /* \"#utility.yul\":16041:16043   */\n      0x17\n        /* \"#utility.yul\":16036:16039   */\n      dup4\n        /* \"#utility.yul\":15959:16044   */\n      tag_221\n      jump\t// in\n    tag_418:\n        /* \"#utility.yul\":15952:16044   */\n      swap2\n      pop\n        /* \"#utility.yul\":16053:16146   */\n      tag_419\n        /* \"#utility.yul\":16142:16145   */\n      dup3\n        /* \"#utility.yul\":16053:16146   */\n      tag_222\n      jump\t// in\n    tag_419:\n        /* \"#utility.yul\":16171:16173   */\n      0x17\n        /* \"#utility.yul\":16166:16169   */\n      dup3\n        /* \"#utility.yul\":16162:16174   */\n      add\n        /* \"#utility.yul\":16155:16174   */\n      swap1\n      pop\n        /* \"#utility.yul\":15778:16180   */\n      swap2\n      swap1\n      pop\n      jump\t// out\n        /* \"#utility.yul\":16186:16563   */\n    tag_224:\n        /* \"#utility.yul\":16292:16295   */\n      0x00\n        /* \"#utility.yul\":16320:16359   */\n      tag_421\n        /* \"#utility.yul\":16353:16358   */\n      dup3\n        /* \"#utility.yul\":16320:16359   */\n      tag_190\n      jump\t// in\n    tag_421:\n        /* \"#utility.yul\":16375:16464   */\n      tag_422\n        /* \"#utility.yul\":16457:16463   */\n      dup2\n        /* \"#utility.yul\":16452:16455   */\n      dup6\n        /* \"#utility.yul\":16375:16464   */\n      tag_221\n      jump\t// in\n    tag_422:\n        /* \"#utility.yul\":16368:16464   */\n      swap4\n      pop\n        /* \"#utility.yul\":16473:16525   */\n      tag_423\n        /* \"#utility.yul\":16518:16524   */\n      dup2\n        /* \"#utility.yul\":16513:16516   */\n      dup6\n        /* \"#utility.yul\":16506:16510   */\n      0x20\n        /* \"#utility.yul\":16499:16504   */\n      dup7\n        /* \"#utility.yul\":16495:16511   */\n      add\n        /* \"#utility.yul\":16473:16525   */\n      tag_192\n      jump\t// in\n    tag_423:\n        /* \"#utility.yul\":16550:16556   */\n      dup1\n        /* \"#utility.yul\":16545:16548   */\n      dup5\n        /* \"#utility.yul\":16541:16557   */\n      add\n        /* \"#utility.yul\":16534:16557   */\n      swap2\n      pop\n        /* \"#utility.yul\":16296:16563   */\n      pop\n        /* \"#utility.yul\":16186:16563   */\n      swap3\n      swap2\n      pop\n      pop\n      jump\t// out\n        /* \"#utility.yul\":16569:16648   */\n    tag_225:\n        /* \"#utility.yul\":16608:16615   */\n      0x00\n        /* \"#utility.yul\":16637:16642   */\n      dup2\n        /* \"#utility.yul\":16626:16642   */\n      swap1\n      pop\n        /* \"#utility.yul\":16569:16648   */\n      swap2\n      swap1\n      pop\n      jump\t// out\n        /* \"#utility.yul\":16654:16811   */\n    tag_226:\n        /* \"#utility.yul\":16759:16804   */\n      tag_426\n        /* \"#utility.yul\":16779:16803   */\n      tag_427\n        /* \"#utility.yul\":16797:16802   */\n      dup3\n        /* \"#utility.yul\":16779:16803   */\n      tag_182\n      jump\t// in\n    tag_427:\n        /* \"#utility.yul\":16759:16804   */\n      tag_225\n      jump\t// in\n    tag_426:\n        /* \"#utility.yul\":16754:16757   */\n      dup3\n        /* \"#utility.yul\":16747:16805   */\n      mstore\n        /* \"#utility.yul\":16654:16811   */\n      pop\n      pop\n      jump\t// out\n        /* \"#utility.yul\":16817:17922   */\n    tag_80:\n        /* \"#utility.yul\":17162:17165   */\n      0x00\n        /* \"#utility.yul\":17177:17252   */\n      tag_429\n        /* \"#utility.yul\":17248:17251   */\n      dup3\n        /* \"#utility.yul\":17239:17245   */\n      dup9\n        /* \"#utility.yul\":17177:17252   */\n      tag_220\n      jump\t// in\n    tag_429:\n        /* \"#utility.yul\":17277:17279   */\n      0x14\n        /* \"#utility.yul\":17272:17275   */\n      dup3\n        /* \"#utility.yul\":17268:17280   */\n      add\n        /* \"#utility.yul\":17261:17280   */\n      swap2\n      pop\n        /* \"#utility.yul\":17297:17445   */\n      tag_430\n        /* \"#utility.yul\":17441:17444   */\n      dup3\n        /* \"#utility.yul\":17297:17445   */\n      tag_223\n      jump\t// in\n    tag_430:\n        /* \"#utility.yul\":17290:17445   */\n      swap2\n      pop\n        /* \"#utility.yul\":17455:17530   */\n      tag_431\n        /* \"#utility.yul\":17526:17529   */\n      dup3\n        /* \"#utility.yul\":17517:17523   */\n      dup8\n        /* \"#utility.yul\":17455:17530   */\n      tag_220\n      jump\t// in\n    tag_431:\n        /* \"#utility.yul\":17555:17557   */\n      0x14\n        /* \"#utility.yul\":17550:17553   */\n      dup3\n        /* \"#utility.yul\":17546:17558   */\n      add\n        /* \"#utility.yul\":17539:17558   */\n      swap2\n      pop\n        /* \"#utility.yul\":17575:17670   */\n      tag_432\n        /* \"#utility.yul\":17666:17669   */\n      dup3\n        /* \"#utility.yul\":17657:17663   */\n      dup7\n        /* \"#utility.yul\":17575:17670   */\n      tag_224\n      jump\t// in\n    tag_432:\n        /* \"#utility.yul\":17568:17670   */\n      swap2\n      pop\n        /* \"#utility.yul\":17680:17755   */\n      tag_433\n        /* \"#utility.yul\":17751:17754   */\n      dup3\n        /* \"#utility.yul\":17742:17748   */\n      dup6\n        /* \"#utility.yul\":17680:17755   */\n      tag_226\n      jump\t// in\n    tag_433:\n        /* \"#utility.yul\":17780:17782   */\n      0x20\n        /* \"#utility.yul\":17775:17778   */\n      dup3\n        /* \"#utility.yul\":17771:17783   */\n      add\n        /* \"#utility.yul\":17764:17783   */\n      swap2\n      pop\n        /* \"#utility.yul\":17793:17868   */\n      tag_434\n        /* \"#utility.yul\":17864:17867   */\n      dup3\n        /* \"#utility.yul\":17855:17861   */\n      dup5\n        /* \"#utility.yul\":17793:17868   */\n      tag_226\n      jump\t// in\n    tag_434:\n        /* \"#utility.yul\":17893:17895   */\n      0x20\n        /* \"#utility.yul\":17888:17891   */\n      dup3\n        /* \"#utility.yul\":17884:17896   */\n      add\n        /* \"#utility.yul\":17877:17896   */\n      swap2\n      pop\n        /* \"#utility.yul\":17913:17916   */\n      dup2\n        /* \"#utility.yul\":17906:17916   */\n      swap1\n      pop\n        /* \"#utility.yul\":16817:17922   */\n      swap7\n      swap6\n      pop\n      pop\n      pop\n      pop\n      pop\n      pop\n      jump\t// out\n        /* \"#utility.yul\":17928:18203   */\n    tag_83:\n        /* \"#utility.yul\":18060:18063   */\n      0x00\n        /* \"#utility.yul\":18082:18177   */\n      tag_436\n        /* \"#utility.yul\":18173:18176   */\n      dup3\n        /* \"#utility.yul\":18164:18170   */\n      dup5\n        /* \"#utility.yul\":18082:18177   */\n      tag_224\n      jump\t// in\n    tag_436:\n        /* \"#utility.yul\":18075:18177   */\n      swap2\n      pop\n        /* \"#utility.yul\":18194:18197   */\n      dup2\n        /* \"#utility.yul\":18187:18197   */\n      swap1\n      pop\n        /* \"#utility.yul\":17928:18203   */\n      swap3\n      swap2\n      pop\n      pop\n      jump\t// out\n        /* \"#utility.yul\":18209:18438   */\n    tag_227:\n        /* \"#utility.yul\":18349:18383   */\n      0x54686973206164647265737320646f6573206e6f742065786973742061732061\n        /* \"#utility.yul\":18345:18346   */\n      0x00\n        /* \"#utility.yul\":18337:18343   */\n      dup3\n        /* \"#utility.yul\":18333:18347   */\n      add\n        /* \"#utility.yul\":18326:18384   */\n      mstore\n        /* \"#utility.yul\":18418:18430   */\n      0x2063616e64696461746500000000000000000000000000000000000000000000\n        /* \"#utility.yul\":18413:18415   */\n      0x20\n        /* \"#utility.yul\":18405:18411   */\n      dup3\n        /* \"#utility.yul\":18401:18416   */\n      add\n        /* \"#utility.yul\":18394:18431   */\n      mstore\n        /* \"#utility.yul\":18209:18438   */\n      pop\n      jump\t// out\n        /* \"#utility.yul\":18444:18810   */\n    tag_228:\n        /* \"#utility.yul\":18586:18589   */\n      0x00\n        /* \"#utility.yul\":18607:18674   */\n      tag_439\n        /* \"#utility.yul\":18671:18673   */\n      0x2a\n        /* \"#utility.yul\":18666:18669   */\n      dup4\n        /* \"#utility.yul\":18607:18674   */\n      tag_191\n      jump\t// in\n    tag_439:\n        /* \"#utility.yul\":18600:18674   */\n      swap2\n      pop\n        /* \"#utility.yul\":18683:18776   */\n      tag_440\n        /* \"#utility.yul\":18772:18775   */\n      dup3\n        /* \"#utility.yul\":18683:18776   */\n      tag_227\n      jump\t// in\n    tag_440:\n        /* \"#utility.yul\":18801:18803   */\n      0x40\n        /* \"#utility.yul\":18796:18799   */\n      dup3\n        /* \"#utility.yul\":18792:18804   */\n      add\n        /* \"#utility.yul\":18785:18804   */\n      swap1\n      pop\n        /* \"#utility.yul\":18444:18810   */\n      swap2\n      swap1\n      pop\n      jump\t// out\n        /* \"#utility.yul\":18816:19235   */\n    tag_88:\n        /* \"#utility.yul\":18982:18986   */\n      0x00\n        /* \"#utility.yul\":19020:19022   */\n      0x20\n        /* \"#utility.yul\":19009:19018   */\n      dup3\n        /* \"#utility.yul\":19005:19023   */\n      add\n        /* \"#utility.yul\":18997:19023   */\n      swap1\n      pop\n        /* \"#utility.yul\":19069:19078   */\n      dup2\n        /* \"#utility.yul\":19063:19067   */\n      dup2\n        /* \"#utility.yul\":19059:19079   */\n      sub\n        /* \"#utility.yul\":19055:19056   */\n      0x00\n        /* \"#utility.yul\":19044:19053   */\n      dup4\n        /* \"#utility.yul\":19040:19057   */\n      add\n        /* \"#utility.yul\":19033:19080   */\n      mstore\n        /* \"#utility.yul\":19097:19228   */\n      tag_442\n        /* \"#utility.yul\":19223:19227   */\n      dup2\n        /* \"#utility.yul\":19097:19228   */\n      tag_228\n      jump\t// in\n    tag_442:\n        /* \"#utility.yul\":19089:19228   */\n      swap1\n      pop\n        /* \"#utility.yul\":18816:19235   */\n      swap2\n      swap1\n      pop\n      jump\t// out\n        /* \"#utility.yul\":19241:19407   */\n    tag_229:\n        /* \"#utility.yul\":19381:19399   */\n      0x766f74696e672068617320656e64656400000000000000000000000000000000\n        /* \"#utility.yul\":19377:19378   */\n      0x00\n        /* \"#utility.yul\":19369:19375   */\n      dup3\n        /* \"#utility.yul\":19365:19379   */\n      add\n        /* \"#utility.yul\":19358:19400   */\n      mstore\n        /* \"#utility.yul\":19241:19407   */\n      pop\n      jump\t// out\n        /* \"#utility.yul\":19413:19779   */\n    tag_230:\n        /* \"#utility.yul\":19555:19558   */\n      0x00\n        /* \"#utility.yul\":19576:19643   */\n      tag_445\n        /* \"#utility.yul\":19640:19642   */\n      0x10\n        /* \"#utility.yul\":19635:19638   */\n      dup4\n        /* \"#utility.yul\":19576:19643   */\n      tag_191\n      jump\t// in\n    tag_445:\n        /* \"#utility.yul\":19569:19643   */\n      swap2\n      pop\n        /* \"#utility.yul\":19652:19745   */\n      tag_446\n        /* \"#utility.yul\":19741:19744   */\n      dup3\n        /* \"#utility.yul\":19652:19745   */\n      tag_229\n      jump\t// in\n    tag_446:\n        /* \"#utility.yul\":19770:19772   */\n      0x20\n        /* \"#utility.yul\":19765:19768   */\n      dup3\n        /* \"#utility.yul\":19761:19773   */\n      add\n        /* \"#utility.yul\":19754:19773   */\n      swap1\n      pop\n        /* \"#utility.yul\":19413:19779   */\n      swap2\n      swap1\n      pop\n      jump\t// out\n        /* \"#utility.yul\":19785:20204   */\n    tag_93:\n        /* \"#utility.yul\":19951:19955   */\n      0x00\n        /* \"#utility.yul\":19989:19991   */\n      0x20\n        /* \"#utility.yul\":19978:19987   */\n      dup3\n        /* \"#utility.yul\":19974:19992   */\n      add\n        /* \"#utility.yul\":19966:19992   */\n      swap1\n      pop\n        /* \"#utility.yul\":20038:20047   */\n      dup2\n        /* \"#utility.yul\":20032:20036   */\n      dup2\n        /* \"#utility.yul\":20028:20048   */\n      sub\n        /* \"#utility.yul\":20024:20025   */\n      0x00\n        /* \"#utility.yul\":20013:20022   */\n      dup4\n        /* \"#utility.yul\":20009:20026   */\n      add\n        /* \"#utility.yul\":20002:20049   */\n      mstore\n        /* \"#utility.yul\":20066:20197   */\n      tag_448\n        /* \"#utility.yul\":20192:20196   */\n      dup2\n        /* \"#utility.yul\":20066:20197   */\n      tag_230\n      jump\t// in\n    tag_448:\n        /* \"#utility.yul\":20058:20197   */\n      swap1\n      pop\n        /* \"#utility.yul\":19785:20204   */\n      swap2\n      swap1\n      pop\n      jump\t// out\n        /* \"#utility.yul\":20210:20377   */\n    tag_231:\n        /* \"#utility.yul\":20350:20369   */\n      0x596f7520616c726561647920766f746564000000000000000000000000000000\n        /* \"#utility.yul\":20346:20347   */\n      0x00\n        /* \"#utility.yul\":20338:20344   */\n      dup3\n        /* \"#utility.yul\":20334:20348   */\n      add\n        /* \"#utility.yul\":20327:20370   */\n      mstore\n        /* \"#utility.yul\":20210:20377   */\n      pop\n      jump\t// out\n        /* \"#utility.yul\":20383:20749   */\n    tag_232:\n        /* \"#utility.yul\":20525:20528   */\n      0x00\n        /* \"#utility.yul\":20546:20613   */\n      tag_451\n        /* \"#utility.yul\":20610:20612   */\n      0x11\n        /* \"#utility.yul\":20605:20608   */\n      dup4\n        /* \"#utility.yul\":20546:20613   */\n      tag_191\n      jump\t// in\n    tag_451:\n        /* \"#utility.yul\":20539:20613   */\n      swap2\n      pop\n        /* \"#utility.yul\":20622:20715   */\n      tag_452\n        /* \"#utility.yul\":20711:20714   */\n      dup3\n        /* \"#utility.yul\":20622:20715   */\n      tag_231\n      jump\t// in\n    tag_452:\n        /* \"#utility.yul\":20740:20742   */\n      0x20\n        /* \"#utility.yul\":20735:20738   */\n      dup3\n        /* \"#utility.yul\":20731:20743   */\n      add\n        /* \"#utility.yul\":20724:20743   */\n      swap1\n      pop\n        /* \"#utility.yul\":20383:20749   */\n      swap2\n      swap1\n      pop\n      jump\t// out\n        /* \"#utility.yul\":20755:21174   */\n    tag_98:\n        /* \"#utility.yul\":20921:20925   */\n      0x00\n        /* \"#utility.yul\":20959:20961   */\n      0x20\n        /* \"#utility.yul\":20948:20957   */\n      dup3\n        /* \"#utility.yul\":20944:20962   */\n      add\n        /* \"#utility.yul\":20936:20962   */\n      swap1\n      pop\n        /* \"#utility.yul\":21008:21017   */\n      dup2\n        /* \"#utility.yul\":21002:21006   */\n      dup2\n        /* \"#utility.yul\":20998:21018   */\n      sub\n        /* \"#utility.yul\":20994:20995   */\n      0x00\n        /* \"#utility.yul\":20983:20992   */\n      dup4\n        /* \"#utility.yul\":20979:20996   */\n      add\n        /* \"#utility.yul\":20972:21019   */\n      mstore\n        /* \"#utility.yul\":21036:21167   */\n      tag_454\n        /* \"#utility.yul\":21162:21166   */\n      dup2\n        /* \"#utility.yul\":21036:21167   */\n      tag_232\n      jump\t// in\n    tag_454:\n        /* \"#utility.yul\":21028:21167   */\n      swap1\n      pop\n        /* \"#utility.yul\":20755:21174   */\n      swap2\n      swap1\n      pop\n      jump\t// out\n        /* \"#utility.yul\":21180:21500   */\n    tag_102:\n        /* \"#utility.yul\":21295:21299   */\n      0x00\n        /* \"#utility.yul\":21333:21335   */\n      0x40\n        /* \"#utility.yul\":21322:21331   */\n      dup3\n        /* \"#utility.yul\":21318:21336   */\n      add\n        /* \"#utility.yul\":21310:21336   */\n      swap1\n      pop\n        /* \"#utility.yul\":21346:21417   */\n      tag_456\n        /* \"#utility.yul\":21414:21415   */\n      0x00\n        /* \"#utility.yul\":21403:21412   */\n      dup4\n        /* \"#utility.yul\":21399:21416   */\n      add\n        /* \"#utility.yul\":21390:21396   */\n      dup6\n        /* \"#utility.yul\":21346:21417   */\n      tag_202\n      jump\t// in\n    tag_456:\n        /* \"#utility.yul\":21427:21493   */\n      tag_457\n        /* \"#utility.yul\":21489:21491   */\n      0x20\n        /* \"#utility.yul\":21478:21487   */\n      dup4\n        /* \"#utility.yul\":21474:21492   */\n      add\n        /* \"#utility.yul\":21465:21471   */\n      dup5\n        /* \"#utility.yul\":21427:21493   */\n      tag_209\n      jump\t// in\n    tag_457:\n        /* \"#utility.yul\":21180:21500   */\n      swap4\n      swap3\n      pop\n      pop\n      pop\n      jump\t// out\n        /* \"#utility.yul\":21506:21686   */\n    tag_114:\n        /* \"#utility.yul\":21554:21631   */\n      0x4e487b7100000000000000000000000000000000000000000000000000000000\n        /* \"#utility.yul\":21551:21552   */\n      0x00\n        /* \"#utility.yul\":21544:21632   */\n      mstore\n        /* \"#utility.yul\":21651:21655   */\n      0x32\n        /* \"#utility.yul\":21648:21649   */\n      0x04\n        /* \"#utility.yul\":21641:21656   */\n      mstore\n        /* \"#utility.yul\":21675:21679   */\n      0x24\n        /* \"#utility.yul\":21672:21673   */\n      0x00\n        /* \"#utility.yul\":21665:21680   */\n      revert\n        /* \"#utility.yul\":21692:21872   */\n    tag_233:\n        /* \"#utility.yul\":21740:21817   */\n      0x4e487b7100000000000000000000000000000000000000000000000000000000\n        /* \"#utility.yul\":21737:21738   */\n      0x00\n        /* \"#utility.yul\":21730:21818   */\n      mstore\n        /* \"#utility.yul\":21837:21841   */\n      0x11\n        /* \"#utility.yul\":21834:21835   */\n      0x04\n        /* \"#utility.yul\":21827:21842   */\n      mstore\n        /* \"#utility.yul\":21861:21865   */\n      0x24\n        /* \"#utility.yul\":21858:21859   */\n      0x00\n        /* \"#utility.yul\":21851:21866   */\n      revert\n        /* \"#utility.yul\":21878:22111   */\n    tag_129:\n        /* \"#utility.yul\":21917:21920   */\n      0x00\n        /* \"#utility.yul\":21940:21964   */\n      tag_461\n        /* \"#utility.yul\":21958:21963   */\n      dup3\n        /* \"#utility.yul\":21940:21964   */\n      tag_182\n      jump\t// in\n    tag_461:\n        /* \"#utility.yul\":21931:21964   */\n      swap2\n      pop\n        /* \"#utility.yul\":21986:22052   */\n      0xffffffffffffffffffffffffffffffffffffffffffffffffffffffffffffffff\n        /* \"#utility.yul\":21979:21984   */\n      dup3\n        /* \"#utility.yul\":21976:22053   */\n      eq\n        /* \"#utility.yul\":21973:22076   */\n      iszero\n      tag_462\n      jumpi\n        /* \"#utility.yul\":22056:22074   */\n      tag_463\n      tag_233\n      jump\t// in\n    tag_463:\n        /* \"#utility.yul\":21973:22076   */\n    tag_462:\n        /* \"#utility.yul\":22103:22104   */\n      0x01\n        /* \"#utility.yul\":22096:22101   */\n      dup3\n        /* \"#utility.yul\":22092:22105   */\n      add\n        /* \"#utility.yul\":22085:22105   */\n      swap1\n      pop\n        /* \"#utility.yul\":21878:22111   */\n      swap2\n      swap1\n      pop\n      jump\t// out\n        /* \"#utility.yul\":22117:22287   */\n    tag_234:\n        /* \"#utility.yul\":22257:22279   */\n      0x79657420746f20637265617465206120706f6c6c000000000000000000000000\n        /* \"#utility.yul\":22253:22254   */\n      0x00\n        /* \"#utility.yul\":22245:22251   */\n      dup3\n        /* \"#utility.yul\":22241:22255   */\n      add\n        /* \"#utility.yul\":22234:22280   */\n      mstore\n        /* \"#utility.yul\":22117:22287   */\n      pop\n      jump\t// out\n        /* \"#utility.yul\":22293:22659   */\n    tag_235:\n        /* \"#utility.yul\":22435:22438   */\n      0x00\n        /* \"#utility.yul\":22456:22523   */\n      tag_466\n        /* \"#utility.yul\":22520:22522   */\n      0x14\n        /* \"#utility.yul\":22515:22518   */\n      dup4\n        /* \"#utility.yul\":22456:22523   */\n      tag_191\n      jump\t// in\n    tag_466:\n        /* \"#utility.yul\":22449:22523   */\n      swap2\n      pop\n        /* \"#utility.yul\":22532:22625   */\n      tag_467\n        /* \"#utility.yul\":22621:22624   */\n      dup3\n        /* \"#utility.yul\":22532:22625   */\n      tag_234\n      jump\t// in\n    tag_467:\n        /* \"#utility.yul\":22650:22652   */\n      0x20\n        /* \"#utility.yul\":22645:22648   */\n      dup3\n        /* \"#utility.yul\":22641:22653   */\n      add\n        /* \"#utility.yul\":22634:22653   */\n      swap1\n      pop\n        /* \"#utility.yul\":22293:22659   */\n      swap2\n      swap1\n      pop\n      jump\t// out\n        /* \"#utility.yul\":22665:23084   */\n    tag_134:\n        /* \"#utility.yul\":22831:22835   */\n      0x00\n        /* \"#utility.yul\":22869:22871   */\n      0x20\n        /* \"#utility.yul\":22858:22867   */\n      dup3\n        /* \"#utility.yul\":22854:22872   */\n      add\n        /* \"#utility.yul\":22846:22872   */\n      swap1\n      pop\n        /* \"#utility.yul\":22918:22927   */\n      dup2\n        /* \"#utility.yul\":22912:22916   */\n      dup2\n        /* \"#utility.yul\":22908:22928   */\n      sub\n        /* \"#utility.yul\":22904:22905   */\n      0x00\n        /* \"#utility.yul\":22893:22902   */\n      dup4\n        /* \"#utility.yul\":22889:22906   */\n      add\n        /* \"#utility.yul\":22882:22929   */\n      mstore\n        /* \"#utility.yul\":22946:23077   */\n      tag_469\n        /* \"#utility.yul\":23072:23076   */\n      dup2\n        /* \"#utility.yul\":22946:23077   */\n      tag_235\n      jump\t// in\n    tag_469:\n        /* \"#utility.yul\":22938:23077   */\n      swap1\n      pop\n        /* \"#utility.yul\":22665:23084   */\n      swap2\n      swap1\n      pop\n      jump\t// out\n        /* \"#utility.yul\":23090:23270   */\n    tag_137:\n        /* \"#utility.yul\":23138:23215   */\n      0x4e487b7100000000000000000000000000000000000000000000000000000000\n        /* \"#utility.yul\":23135:23136   */\n      0x00\n        /* \"#utility.yul\":23128:23216   */\n      mstore\n        /* \"#utility.yul\":23235:23239   */\n      0x01\n        /* \"#utility.yul\":23232:23233   */\n      0x04\n        /* \"#utility.yul\":23225:23240   */\n      mstore\n        /* \"#utility.yul\":23259:23263   */\n      0x24\n        /* \"#utility.yul\":23256:23257   */\n      0x00\n        /* \"#utility.yul\":23249:23264   */\n      revert\n        /* \"#utility.yul\":23276:23509   */\n    tag_236:\n        /* \"#utility.yul\":23416:23450   */\n      0x6d6178696d756d206e6f206f662063616e646964617465207065722073657373\n        /* \"#utility.yul\":23412:23413   */\n      0x00\n        /* \"#utility.yul\":23404:23410   */\n      dup3\n        /* \"#utility.yul\":23400:23414   */\n      add\n        /* \"#utility.yul\":23393:23451   */\n      mstore\n        /* \"#utility.yul\":23485:23501   */\n      0x696f6e2072656769737465726564000000000000000000000000000000000000\n        /* \"#utility.yul\":23480:23482   */\n      0x20\n        /* \"#utility.yul\":23472:23478   */\n      dup3\n        /* \"#utility.yul\":23468:23483   */\n      add\n        /* \"#utility.yul\":23461:23502   */\n      mstore\n        /* \"#utility.yul\":23276:23509   */\n      pop\n      jump\t// out\n        /* \"#utility.yul\":23515:23881   */\n    tag_237:\n        /* \"#utility.yul\":23657:23660   */\n      0x00\n        /* \"#utility.yul\":23678:23745   */\n      tag_473\n        /* \"#utility.yul\":23742:23744   */\n      0x2e\n        /* \"#utility.yul\":23737:23740   */\n      dup4\n        /* \"#utility.yul\":23678:23745   */\n      tag_191\n      jump\t// in\n    tag_473:\n        /* \"#utility.yul\":23671:23745   */\n      swap2\n      pop\n        /* \"#utility.yul\":23754:23847   */\n      tag_474\n        /* \"#utility.yul\":23843:23846   */\n      dup3\n        /* \"#utility.yul\":23754:23847   */\n      tag_236\n      jump\t// in\n    tag_474:\n        /* \"#utility.yul\":23872:23874   */\n      0x40\n        /* \"#utility.yul\":23867:23870   */\n      dup3\n        /* \"#utility.yul\":23863:23875   */\n      add\n        /* \"#utility.yul\":23856:23875   */\n      swap1\n      pop\n        /* \"#utility.yul\":23515:23881   */\n      swap2\n      swap1\n      pop\n      jump\t// out\n        /* \"#utility.yul\":23887:24306   */\n    tag_140:\n        /* \"#utility.yul\":24053:24057   */\n      0x00\n        /* \"#utility.yul\":24091:24093   */\n      0x20\n        /* \"#utility.yul\":24080:24089   */\n      dup3\n        /* \"#utility.yul\":24076:24094   */\n      add\n        /* \"#utility.yul\":24068:24094   */\n      swap1\n      pop\n        /* \"#utility.yul\":24140:24149   */\n      dup2\n        /* \"#utility.yul\":24134:24138   */\n      dup2\n        /* \"#utility.yul\":24130:24150   */\n      sub\n        /* \"#utility.yul\":24126:24127   */\n      0x00\n        /* \"#utility.yul\":24115:24124   */\n      dup4\n        /* \"#utility.yul\":24111:24128   */\n      add\n        /* \"#utility.yul\":24104:24151   */\n      mstore\n        /* \"#utility.yul\":24168:24299   */\n      tag_476\n        /* \"#utility.yul\":24294:24298   */\n      dup2\n        /* \"#utility.yul\":24168:24299   */\n      tag_237\n      jump\t// in\n    tag_476:\n        /* \"#utility.yul\":24160:24299   */\n      swap1\n      pop\n        /* \"#utility.yul\":23887:24306   */\n      swap2\n      swap1\n      pop\n      jump\t// out\n        /* \"#utility.yul\":24312:24483   */\n    tag_143:\n        /* \"#utility.yul\":24350:24353   */\n      0x00\n        /* \"#utility.yul\":24373:24396   */\n      tag_478\n        /* \"#utility.yul\":24390:24395   */\n      dup3\n        /* \"#utility.yul\":24373:24396   */\n      tag_187\n      jump\t// in\n    tag_478:\n        /* \"#utility.yul\":24364:24396   */\n      swap2\n      pop\n        /* \"#utility.yul\":24418:24424   */\n      0xffff\n        /* \"#utility.yul\":24411:24416   */\n      dup3\n        /* \"#utility.yul\":24408:24425   */\n      eq\n        /* \"#utility.yul\":24405:24448   */\n      iszero\n      tag_479\n      jumpi\n        /* \"#utility.yul\":24428:24446   */\n      tag_480\n      tag_233\n      jump\t// in\n    tag_480:\n        /* \"#utility.yul\":24405:24448   */\n    tag_479:\n        /* \"#utility.yul\":24475:24476   */\n      0x01\n        /* \"#utility.yul\":24468:24473   */\n      dup3\n        /* \"#utility.yul\":24464:24477   */\n      add\n        /* \"#utility.yul\":24457:24477   */\n      swap1\n      pop\n        /* \"#utility.yul\":24312:24483   */\n      swap2\n      swap1\n      pop\n      jump\t// out\n        /* \"#utility.yul\":24489:24711   */\n    tag_145:\n        /* \"#utility.yul\":24582:24586   */\n      0x00\n        /* \"#utility.yul\":24620:24622   */\n      0x20\n        /* \"#utility.yul\":24609:24618   */\n      dup3\n        /* \"#utility.yul\":24605:24623   */\n      add\n        /* \"#utility.yul\":24597:24623   */\n      swap1\n      pop\n        /* \"#utility.yul\":24633:24704   */\n      tag_482\n        /* \"#utility.yul\":24701:24702   */\n      0x00\n        /* \"#utility.yul\":24690:24699   */\n      dup4\n        /* \"#utility.yul\":24686:24703   */\n      add\n        /* \"#utility.yul\":24677:24683   */\n      dup5\n        /* \"#utility.yul\":24633:24704   */\n      tag_202\n      jump\t// in\n    tag_482:\n        /* \"#utility.yul\":24489:24711   */\n      swap3\n      swap2\n      pop\n      pop\n      jump\t// out\n        /* \"#utility.yul\":24717:24883   */\n    tag_238:\n        /* \"#utility.yul\":24857:24875   */\n      0x6e6f74207468652063686169726d616e00000000000000000000000000000000\n        /* \"#utility.yul\":24853:24854   */\n      0x00\n        /* \"#utility.yul\":24845:24851   */\n      dup3\n        /* \"#utility.yul\":24841:24855   */\n      add\n        /* \"#utility.yul\":24834:24876   */\n      mstore\n        /* \"#utility.yul\":24717:24883   */\n      pop\n      jump\t// out\n        /* \"#utility.yul\":24889:25255   */\n    tag_239:\n        /* \"#utility.yul\":25031:25034   */\n      0x00\n        /* \"#utility.yul\":25052:25119   */\n      tag_485\n        /* \"#utility.yul\":25116:25118   */\n      0x10\n        /* \"#utility.yul\":25111:25114   */\n      dup4\n        /* \"#utility.yul\":25052:25119   */\n      tag_191\n      jump\t// in\n    tag_485:\n        /* \"#utility.yul\":25045:25119   */\n      swap2\n      pop\n        /* \"#utility.yul\":25128:25221   */\n      tag_486\n        /* \"#utility.yul\":25217:25220   */\n      dup3\n        /* \"#utility.yul\":25128:25221   */\n      tag_238\n      jump\t// in\n    tag_486:\n        /* \"#utility.yul\":25246:25248   */\n      0x20\n        /* \"#utility.yul\":25241:25244   */\n      dup3\n        /* \"#utility.yul\":25237:25249   */\n      add\n        /* \"#utility.yul\":25230:25249   */\n      swap1\n      pop\n        /* \"#utility.yul\":24889:25255   */\n      swap2\n      swap1\n      pop\n      jump\t// out\n        /* \"#utility.yul\":25261:25680   */\n    tag_150:\n        /* \"#utility.yul\":25427:25431   */\n      0x00\n        /* \"#utility.yul\":25465:25467   */\n      0x20\n        /* \"#utility.yul\":25454:25463   */\n      dup3\n        /* \"#utility.yul\":25450:25468   */\n      add\n        /* \"#utility.yul\":25442:25468   */\n      swap1\n      pop\n        /* \"#utility.yul\":25514:25523   */\n      dup2\n        /* \"#utility.yul\":25508:25512   */\n      dup2\n        /* \"#utility.yul\":25504:25524   */\n      sub\n        /* \"#utility.yul\":25500:25501   */\n      0x00\n        /* \"#utility.yul\":25489:25498   */\n      dup4\n        /* \"#utility.yul\":25485:25502   */\n      add\n        /* \"#utility.yul\":25478:25525   */\n      mstore\n        /* \"#utility.yul\":25542:25673   */\n      tag_488\n        /* \"#utility.yul\":25668:25672   */\n      dup2\n        /* \"#utility.yul\":25542:25673   */\n      tag_239\n      jump\t// in\n    tag_488:\n        /* \"#utility.yul\":25534:25673   */\n      swap1\n      pop\n        /* \"#utility.yul\":25261:25680   */\n      swap2\n      swap1\n      pop\n      jump\t// out\n\n    auxdata: 0xa2646970667358221220075828f9abce568eb45fe66d97892fa3a1ac23d67ee99199877d3302bf74cc0464736f6c634300080a0033\n}\n",
				"bytecode": {
					"linkReferences": {},
					"object": "608060405234801561001057600080fd5b50611dd3806100206000396000f3fe6080604052600436106100a05760003560e01c806363ee965a1161006457806363ee965a146101b857806367d407df146101fa57806382e305ab146102375780638579cacd14610253578063af7cbc0d14610290578063f0e4de22146102cd576100a7565b806301ff993b146100ac5780630968d4b1146100e95780631bf533a4146101275780634fcf1f391461015057806357f539671461018f576100a7565b366100a757005b600080fd5b3480156100b857600080fd5b506100d360048036038101906100ce919061125d565b6102f6565b6040516100e091906112f9565b60405180910390f35b3480156100f557600080fd5b50610110600480360381019061010b919061134e565b610331565b60405161011e929190611441565b60405180910390f35b34801561013357600080fd5b5061014e60048036038101906101499190611471565b6103d5565b005b34801561015c57600080fd5b50610177600480360381019061017291906114cd565b61060d565b604051610186939291906115e3565b60405180910390f35b34801561019b57600080fd5b506101b660048036038101906101b19190611471565b6108b8565b005b3480156101c457600080fd5b506101df60048036038101906101da91906114cd565b610b77565b6040516101f19695949392919061168d565b60405180910390f35b34801561020657600080fd5b50610221600480360381019061021c91906116ee565b610c3c565b60405161022e919061171b565b60405180910390f35b610251600480360381019061024c91906114cd565b610c54565b005b34801561025f57600080fd5b5061027a600480360381019061027591906114cd565b610d74565b604051610287919061171b565b60405180910390f35b34801561029c57600080fd5b506102b760048036038101906102b291906114cd565b610db6565b6040516102c491906117f4565b60405180910390f35b3480156102d957600080fd5b506102f460048036038101906102ef91906114cd565b610e6a565b005b60003085858585604051602001610311959493929190611907565b604051602081830303815290604052805190602001209050949350505050565b6060600080600085604051610346919061196d565b90815260200160405180910390209050338160000160006101000a81548173ffffffffffffffffffffffffffffffffffffffff021916908373ffffffffffffffffffffffffffffffffffffffff1602179055508361ffff168160020160006101000a81548163ffffffff021916908363ffffffff16021790555084848061ffff16905092509250509250929050565b8181600080826040516103e8919061196d565b90815260200160405180910390209050600115158160030160008573ffffffffffffffffffffffffffffffffffffffff1673ffffffffffffffffffffffffffffffffffffffff16815260200190815260200160002060009054906101000a900460ff1615151461048d576040517f08c379a0000000000000000000000000000000000000000000000000000000008152600401610484906119f6565b60405180910390fd5b836000808260405161049f919061196d565b90815260200160405180910390209050600115158160020160169054906101000a900460ff16151514610507576040517f08c379a00000000000000000000000000000000000000000000000000000000081526004016104fe90611a62565b60405180910390fd5b60008087604051610518919061196d565b90815260200160405180910390209050600015158160040160003373ffffffffffffffffffffffffffffffffffffffff1673ffffffffffffffffffffffffffffffffffffffff16815260200190815260200160002060009054906101000a900460ff161515146105bd576040517f08c379a00000000000000000000000000000000000000000000000000000000081526004016105b490611ace565b60405180910390fd5b6105c8888833610f4f565b507ff3f16a15f074b71c5138107dfc7c63b80524d5411cb967caa97d8d9f12b2fd6b8860016040516105fb929190611aee565b60405180910390a15050505050505050565b606060008060008085604051610623919061196d565b90815260200160405180910390209050806001018054905067ffffffffffffffff811115610654576106536110fc565b5b6040519080825280602002602001820160405280156106825781602001602082028036833780820191505090505b50935060008060005b836001018054905081116108a45760008460050160008660010184815481106106b7576106b6611b17565b5b9060005260206000200160009054906101000a900473ffffffffffffffffffffffffffffffffffffffff1673ffffffffffffffffffffffffffffffffffffffff1673ffffffffffffffffffffffffffffffffffffffff168152602001908152602001600020549050838111156107ef5784600501600086600101848154811061074357610742611b17565b5b9060005260206000200160009054906101000a900473ffffffffffffffffffffffffffffffffffffffff1673ffffffffffffffffffffffffffffffffffffffff1673ffffffffffffffffffffffffffffffffffffffff1681526020019081526020016000205493508460010182815481106107c1576107c0611b17565b5b9060005260206000200160009054906101000a900473ffffffffffffffffffffffffffffffffffffffff1692505b84600501600086600101848154811061080b5761080a611b17565b5b9060005260206000200160009054906101000a900473ffffffffffffffffffffffffffffffffffffffff1673ffffffffffffffffffffffffffffffffffffffff1673ffffffffffffffffffffffffffffffffffffffff1681526020019081526020016000205488838151811061088457610883611b17565b5b60200260200101818152505050808061089c90611b75565b91505061068b565b508581839550955095505050509193909250565b600080826040516108c9919061196d565b90815260200160405180910390209050600073ffffffffffffffffffffffffffffffffffffffff168160000160009054906101000a900473ffffffffffffffffffffffffffffffffffffffff1673ffffffffffffffffffffffffffffffffffffffff16141561096d576040517f08c379a000000000000000000000000000000000000000000000000000000000815260040161096490611c0a565b60405180910390fd5b3373ffffffffffffffffffffffffffffffffffffffff168160000160009054906101000a900473ffffffffffffffffffffffffffffffffffffffff1673ffffffffffffffffffffffffffffffffffffffff16146109cd576109cc611c2a565b5b8060020160009054906101000a900463ffffffff1663ffffffff168160020160149054906101000a900461ffff1661ffff1610610a3f576040517f08c379a0000000000000000000000000000000000000000000000000000000008152600401610a3690611ccb565b60405180910390fd5b60018160030160008573ffffffffffffffffffffffffffffffffffffffff1673ffffffffffffffffffffffffffffffffffffffff16815260200190815260200160002060006101000a81548160ff02191690831515021790555080600101839080600181540180825580915050600190039060005260206000200160009091909190916101000a81548173ffffffffffffffffffffffffffffffffffffffff021916908373ffffffffffffffffffffffffffffffffffffffff16021790555080600201601481819054906101000a900461ffff1680929190610b2090611ceb565b91906101000a81548161ffff021916908361ffff160217905550507fc19c59aa93348e8fc54764bc642eca975e2639f44cc683ef8f027e1529cbda3283604051610b6a9190611d16565b60405180910390a1505050565b6000818051602081018201805184825260208301602085012081835280955050505050506000915090508060000160009054906101000a900473ffffffffffffffffffffffffffffffffffffffff16908060020160009054906101000a900463ffffffff16908060020160049054906101000a900467ffffffffffffffff169080600201600c9054906101000a900467ffffffffffffffff16908060020160149054906101000a900461ffff16908060020160169054906101000a900460ff16905086565b60016020528060005260406000206000915090505481565b60008082604051610c65919061196d565b908152602001604051809103902090508060000160009054906101000a900473ffffffffffffffffffffffffffffffffffffffff1673ffffffffffffffffffffffffffffffffffffffff163373ffffffffffffffffffffffffffffffffffffffff1614610d07576040517f08c379a0000000000000000000000000000000000000000000000000000000008152600401610cfe90611d7d565b60405180910390fd5b3373ffffffffffffffffffffffffffffffffffffffff166108fc82600201600c9054906101000a900467ffffffffffffffff1667ffffffffffffffff169081150290604051600060405180830381858888f19350505050158015610d6f573d6000803e3d6000fd5b505050565b600080600083604051610d87919061196d565b908152602001604051809103902090508060020160149054906101000a900461ffff1661ffff16915050919050565b606060008083604051610dc9919061196d565b9081526020016040518091039020905080600101805480602002602001604051908101604052809291908181526020018280548015610e5d57602002820191906000526020600020905b8160009054906101000a900473ffffffffffffffffffffffffffffffffffffffff1673ffffffffffffffffffffffffffffffffffffffff1681526020019060010190808311610e13575b5050505050915050919050565b60008082604051610e7b919061196d565b908152602001604051809103902090503373ffffffffffffffffffffffffffffffffffffffff168160000160009054906101000a900473ffffffffffffffffffffffffffffffffffffffff1673ffffffffffffffffffffffffffffffffffffffff1614610f1d576040517f08c379a0000000000000000000000000000000000000000000000000000000008152600401610f1490611d7d565b60405180910390fd5b8060020160169054906101000a900460ff16158160020160166101000a81548160ff0219169083151502179055505050565b600080600084604051610f62919061196d565b9081526020016040518091039020905060018160040160008573ffffffffffffffffffffffffffffffffffffffff1673ffffffffffffffffffffffffffffffffffffffff16815260200190815260200160002060006101000a81548160ff0219169083151502179055508060050160008673ffffffffffffffffffffffffffffffffffffffff1673ffffffffffffffffffffffffffffffffffffffff168152602001908152602001600020600081548092919061101e90611b75565b91905055508060050160008673ffffffffffffffffffffffffffffffffffffffff1673ffffffffffffffffffffffffffffffffffffffff168152602001908152602001600020549150509392505050565b6000604051905090565b600080fd5b600080fd5b600073ffffffffffffffffffffffffffffffffffffffff82169050919050565b60006110ae82611083565b9050919050565b6110be816110a3565b81146110c957600080fd5b50565b6000813590506110db816110b5565b92915050565b600080fd5b600080fd5b6000601f19601f8301169050919050565b7f4e487b7100000000000000000000000000000000000000000000000000000000600052604160045260246000fd5b611134826110eb565b810181811067ffffffffffffffff82111715611153576111526110fc565b5b80604052505050565b600061116661106f565b9050611172828261112b565b919050565b600067ffffffffffffffff821115611192576111916110fc565b5b61119b826110eb565b9050602081019050919050565b82818337600083830152505050565b60006111ca6111c584611177565b61115c565b9050828152602081018484840111156111e6576111e56110e6565b5b6111f18482856111a8565b509392505050565b600082601f83011261120e5761120d6110e1565b5b813561121e8482602086016111b7565b91505092915050565b6000819050919050565b61123a81611227565b811461124557600080fd5b50565b60008135905061125781611231565b92915050565b6000806000806080858703121561127757611276611079565b5b6000611285878288016110cc565b945050602085013567ffffffffffffffff8111156112a6576112a561107e565b5b6112b2878288016111f9565b93505060406112c387828801611248565b92505060606112d487828801611248565b91505092959194509250565b6000819050919050565b6112f3816112e0565b82525050565b600060208201905061130e60008301846112ea565b92915050565b600061ffff82169050919050565b61132b81611314565b811461133657600080fd5b50565b60008135905061134881611322565b92915050565b6000806040838503121561136557611364611079565b5b600083013567ffffffffffffffff8111156113835761138261107e565b5b61138f858286016111f9565b92505060206113a085828601611339565b9150509250929050565b600081519050919050565b600082825260208201905092915050565b60005b838110156113e45780820151818401526020810190506113c9565b838111156113f3576000848401525b50505050565b6000611404826113aa565b61140e81856113b5565b935061141e8185602086016113c6565b611427816110eb565b840191505092915050565b61143b81611227565b82525050565b6000604082019050818103600083015261145b81856113f9565b905061146a6020830184611432565b9392505050565b6000806040838503121561148857611487611079565b5b6000611496858286016110cc565b925050602083013567ffffffffffffffff8111156114b7576114b661107e565b5b6114c3858286016111f9565b9150509250929050565b6000602082840312156114e3576114e2611079565b5b600082013567ffffffffffffffff8111156115015761150061107e565b5b61150d848285016111f9565b91505092915050565b600081519050919050565b600082825260208201905092915050565b6000819050602082019050919050565b61154b81611227565b82525050565b600061155d8383611542565b60208301905092915050565b6000602082019050919050565b600061158182611516565b61158b8185611521565b935061159683611532565b8060005b838110156115c75781516115ae8882611551565b97506115b983611569565b92505060018101905061159a565b5085935050505092915050565b6115dd816110a3565b82525050565b600060608201905081810360008301526115fd8186611576565b905061160c60208301856115d4565b6116196040830184611432565b949350505050565b600063ffffffff82169050919050565b61163a81611621565b82525050565b600067ffffffffffffffff82169050919050565b61165d81611640565b82525050565b61166c81611314565b82525050565b60008115159050919050565b61168781611672565b82525050565b600060c0820190506116a260008301896115d4565b6116af6020830188611631565b6116bc6040830187611654565b6116c96060830186611654565b6116d66080830185611663565b6116e360a083018461167e565b979650505050505050565b60006020828403121561170457611703611079565b5b6000611712848285016110cc565b91505092915050565b60006020820190506117306000830184611432565b92915050565b600081519050919050565b600082825260208201905092915050565b6000819050602082019050919050565b61176b816110a3565b82525050565b600061177d8383611762565b60208301905092915050565b6000602082019050919050565b60006117a182611736565b6117ab8185611741565b93506117b683611752565b8060005b838110156117e75781516117ce8882611771565b97506117d983611789565b9250506001810190506117ba565b5085935050505092915050565b6000602082019050818103600083015261180e8184611796565b905092915050565b60008160601b9050919050565b600061182e82611816565b9050919050565b600061184082611823565b9050919050565b611858611853826110a3565b611835565b82525050565b600081905092915050565b7f6d6574617472616e73616374696f6e20566f74696e6720000000000000000000600082015250565b600061189f60178361185e565b91506118aa82611869565b601782019050919050565b60006118c0826113aa565b6118ca818561185e565b93506118da8185602086016113c6565b80840191505092915050565b6000819050919050565b6119016118fc82611227565b6118e6565b82525050565b60006119138288611847565b60148201915061192282611892565b915061192e8287611847565b60148201915061193e82866118b5565b915061194a82856118f0565b60208201915061195a82846118f0565b6020820191508190509695505050505050565b600061197982846118b5565b915081905092915050565b7f54686973206164647265737320646f6573206e6f74206578697374206173206160008201527f2063616e64696461746500000000000000000000000000000000000000000000602082015250565b60006119e0602a836113b5565b91506119eb82611984565b604082019050919050565b60006020820190508181036000830152611a0f816119d3565b9050919050565b7f766f74696e672068617320656e64656400000000000000000000000000000000600082015250565b6000611a4c6010836113b5565b9150611a5782611a16565b602082019050919050565b60006020820190508181036000830152611a7b81611a3f565b9050919050565b7f596f7520616c726561647920766f746564000000000000000000000000000000600082015250565b6000611ab86011836113b5565b9150611ac382611a82565b602082019050919050565b60006020820190508181036000830152611ae781611aab565b9050919050565b6000604082019050611b0360008301856115d4565b611b10602083018461167e565b9392505050565b7f4e487b7100000000000000000000000000000000000000000000000000000000600052603260045260246000fd5b7f4e487b7100000000000000000000000000000000000000000000000000000000600052601160045260246000fd5b6000611b8082611227565b91507fffffffffffffffffffffffffffffffffffffffffffffffffffffffffffffffff821415611bb357611bb2611b46565b5b600182019050919050565b7f79657420746f20637265617465206120706f6c6c000000000000000000000000600082015250565b6000611bf46014836113b5565b9150611bff82611bbe565b602082019050919050565b60006020820190508181036000830152611c2381611be7565b9050919050565b7f4e487b7100000000000000000000000000000000000000000000000000000000600052600160045260246000fd5b7f6d6178696d756d206e6f206f662063616e64696461746520706572207365737360008201527f696f6e2072656769737465726564000000000000000000000000000000000000602082015250565b6000611cb5602e836113b5565b9150611cc082611c59565b604082019050919050565b60006020820190508181036000830152611ce481611ca8565b9050919050565b6000611cf682611314565b915061ffff821415611d0b57611d0a611b46565b5b600182019050919050565b6000602082019050611d2b60008301846115d4565b92915050565b7f6e6f74207468652063686169726d616e00000000000000000000000000000000600082015250565b6000611d676010836113b5565b9150611d7282611d31565b602082019050919050565b60006020820190508181036000830152611d9681611d5a565b905091905056fea2646970667358221220075828f9abce568eb45fe66d97892fa3a1ac23d67ee99199877d3302bf74cc0464736f6c634300080a0033",
					"opcodes": "PUSH1 0x80 PUSH1 0x40 MSTORE CALLVALUE DUP1 ISZERO PUSH2 0x10 JUMPI PUSH1 0x0 DUP1 REVERT JUMPDEST POP PUSH2 0x1DD3 DUP1 PUSH2 0x20 PUSH1 0x0 CODECOPY PUSH1 0x0 RETURN INVALID PUSH1 0x80 PUSH1 0x40 MSTORE PUSH1 0x4 CALLDATASIZE LT PUSH2 0xA0 JUMPI PUSH1 0x0 CALLDATALOAD PUSH1 0xE0 SHR DUP1 PUSH4 0x63EE965A GT PUSH2 0x64 JUMPI DUP1 PUSH4 0x63EE965A EQ PUSH2 0x1B8 JUMPI DUP1 PUSH4 0x67D407DF EQ PUSH2 0x1FA JUMPI DUP1 PUSH4 0x82E305AB EQ PUSH2 0x237 JUMPI DUP1 PUSH4 0x8579CACD EQ PUSH2 0x253 JUMPI DUP1 PUSH4 0xAF7CBC0D EQ PUSH2 0x290 JUMPI DUP1 PUSH4 0xF0E4DE22 EQ PUSH2 0x2CD JUMPI PUSH2 0xA7 JUMP JUMPDEST DUP1 PUSH4 0x1FF993B EQ PUSH2 0xAC JUMPI DUP1 PUSH4 0x968D4B1 EQ PUSH2 0xE9 JUMPI DUP1 PUSH4 0x1BF533A4 EQ PUSH2 0x127 JUMPI DUP1 PUSH4 0x4FCF1F39 EQ PUSH2 0x150 JUMPI DUP1 PUSH4 0x57F53967 EQ PUSH2 0x18F JUMPI PUSH2 0xA7 JUMP JUMPDEST CALLDATASIZE PUSH2 0xA7 JUMPI STOP JUMPDEST PUSH1 0x0 DUP1 REVERT JUMPDEST CALLVALUE DUP1 ISZERO PUSH2 0xB8 JUMPI PUSH1 0x0 DUP1 REVERT JUMPDEST POP PUSH2 0xD3 PUSH1 0x4 DUP1 CALLDATASIZE SUB DUP2 ADD SWAP1 PUSH2 0xCE SWAP2 SWAP1 PUSH2 0x125D JUMP JUMPDEST PUSH2 0x2F6 JUMP JUMPDEST PUSH1 0x40 MLOAD PUSH2 0xE0 SWAP2 SWAP1 PUSH2 0x12F9 JUMP JUMPDEST PUSH1 0x40 MLOAD DUP1 SWAP2 SUB SWAP1 RETURN JUMPDEST CALLVALUE DUP1 ISZERO PUSH2 0xF5 JUMPI PUSH1 0x0 DUP1 REVERT JUMPDEST POP PUSH2 0x110 PUSH1 0x4 DUP1 CALLDATASIZE SUB DUP2 ADD SWAP1 PUSH2 0x10B SWAP2 SWAP1 PUSH2 0x134E JUMP JUMPDEST PUSH2 0x331 JUMP JUMPDEST PUSH1 0x40 MLOAD PUSH2 0x11E SWAP3 SWAP2 SWAP1 PUSH2 0x1441 JUMP JUMPDEST PUSH1 0x40 MLOAD DUP1 SWAP2 SUB SWAP1 RETURN JUMPDEST CALLVALUE DUP1 ISZERO PUSH2 0x133 JUMPI PUSH1 0x0 DUP1 REVERT JUMPDEST POP PUSH2 0x14E PUSH1 0x4 DUP1 CALLDATASIZE SUB DUP2 ADD SWAP1 PUSH2 0x149 SWAP2 SWAP1 PUSH2 0x1471 JUMP JUMPDEST PUSH2 0x3D5 JUMP JUMPDEST STOP JUMPDEST CALLVALUE DUP1 ISZERO PUSH2 0x15C JUMPI PUSH1 0x0 DUP1 REVERT JUMPDEST POP PUSH2 0x177 PUSH1 0x4 DUP1 CALLDATASIZE SUB DUP2 ADD SWAP1 PUSH2 0x172 SWAP2 SWAP1 PUSH2 0x14CD JUMP JUMPDEST PUSH2 0x60D JUMP JUMPDEST PUSH1 0x40 MLOAD PUSH2 0x186 SWAP4 SWAP3 SWAP2 SWAP1 PUSH2 0x15E3 JUMP JUMPDEST PUSH1 0x40 MLOAD DUP1 SWAP2 SUB SWAP1 RETURN JUMPDEST CALLVALUE DUP1 ISZERO PUSH2 0x19B JUMPI PUSH1 0x0 DUP1 REVERT JUMPDEST POP PUSH2 0x1B6 PUSH1 0x4 DUP1 CALLDATASIZE SUB DUP2 ADD SWAP1 PUSH2 0x1B1 SWAP2 SWAP1 PUSH2 0x1471 JUMP JUMPDEST PUSH2 0x8B8 JUMP JUMPDEST STOP JUMPDEST CALLVALUE DUP1 ISZERO PUSH2 0x1C4 JUMPI PUSH1 0x0 DUP1 REVERT JUMPDEST POP PUSH2 0x1DF PUSH1 0x4 DUP1 CALLDATASIZE SUB DUP2 ADD SWAP1 PUSH2 0x1DA SWAP2 SWAP1 PUSH2 0x14CD JUMP JUMPDEST PUSH2 0xB77 JUMP JUMPDEST PUSH1 0x40 MLOAD PUSH2 0x1F1 SWAP7 SWAP6 SWAP5 SWAP4 SWAP3 SWAP2 SWAP1 PUSH2 0x168D JUMP JUMPDEST PUSH1 0x40 MLOAD DUP1 SWAP2 SUB SWAP1 RETURN JUMPDEST CALLVALUE DUP1 ISZERO PUSH2 0x206 JUMPI PUSH1 0x0 DUP1 REVERT JUMPDEST POP PUSH2 0x221 PUSH1 0x4 DUP1 CALLDATASIZE SUB DUP2 ADD SWAP1 PUSH2 0x21C SWAP2 SWAP1 PUSH2 0x16EE JUMP JUMPDEST PUSH2 0xC3C JUMP JUMPDEST PUSH1 0x40 MLOAD PUSH2 0x22E SWAP2 SWAP1 PUSH2 0x171B JUMP JUMPDEST PUSH1 0x40 MLOAD DUP1 SWAP2 SUB SWAP1 RETURN JUMPDEST PUSH2 0x251 PUSH1 0x4 DUP1 CALLDATASIZE SUB DUP2 ADD SWAP1 PUSH2 0x24C SWAP2 SWAP1 PUSH2 0x14CD JUMP JUMPDEST PUSH2 0xC54 JUMP JUMPDEST STOP JUMPDEST CALLVALUE DUP1 ISZERO PUSH2 0x25F JUMPI PUSH1 0x0 DUP1 REVERT JUMPDEST POP PUSH2 0x27A PUSH1 0x4 DUP1 CALLDATASIZE SUB DUP2 ADD SWAP1 PUSH2 0x275 SWAP2 SWAP1 PUSH2 0x14CD JUMP JUMPDEST PUSH2 0xD74 JUMP JUMPDEST PUSH1 0x40 MLOAD PUSH2 0x287 SWAP2 SWAP1 PUSH2 0x171B JUMP JUMPDEST PUSH1 0x40 MLOAD DUP1 SWAP2 SUB SWAP1 RETURN JUMPDEST CALLVALUE DUP1 ISZERO PUSH2 0x29C JUMPI PUSH1 0x0 DUP1 REVERT JUMPDEST POP PUSH2 0x2B7 PUSH1 0x4 DUP1 CALLDATASIZE SUB DUP2 ADD SWAP1 PUSH2 0x2B2 SWAP2 SWAP1 PUSH2 0x14CD JUMP JUMPDEST PUSH2 0xDB6 JUMP JUMPDEST PUSH1 0x40 MLOAD PUSH2 0x2C4 SWAP2 SWAP1 PUSH2 0x17F4 JUMP JUMPDEST PUSH1 0x40 MLOAD DUP1 SWAP2 SUB SWAP1 RETURN JUMPDEST CALLVALUE DUP1 ISZERO PUSH2 0x2D9 JUMPI PUSH1 0x0 DUP1 REVERT JUMPDEST POP PUSH2 0x2F4 PUSH1 0x4 DUP1 CALLDATASIZE SUB DUP2 ADD SWAP1 PUSH2 0x2EF SWAP2 SWAP1 PUSH2 0x14CD JUMP JUMPDEST PUSH2 0xE6A JUMP JUMPDEST STOP JUMPDEST PUSH1 0x0 ADDRESS DUP6 DUP6 DUP6 DUP6 PUSH1 0x40 MLOAD PUSH1 0x20 ADD PUSH2 0x311 SWAP6 SWAP5 SWAP4 SWAP3 SWAP2 SWAP1 PUSH2 0x1907 JUMP JUMPDEST PUSH1 0x40 MLOAD PUSH1 0x20 DUP2 DUP4 SUB SUB DUP2 MSTORE SWAP1 PUSH1 0x40 MSTORE DUP1 MLOAD SWAP1 PUSH1 0x20 ADD KECCAK256 SWAP1 POP SWAP5 SWAP4 POP POP POP POP JUMP JUMPDEST PUSH1 0x60 PUSH1 0x0 DUP1 PUSH1 0x0 DUP6 PUSH1 0x40 MLOAD PUSH2 0x346 SWAP2 SWAP1 PUSH2 0x196D JUMP JUMPDEST SWAP1 DUP2 MSTORE PUSH1 0x20 ADD PUSH1 0x40 MLOAD DUP1 SWAP2 SUB SWAP1 KECCAK256 SWAP1 POP CALLER DUP2 PUSH1 0x0 ADD PUSH1 0x0 PUSH2 0x100 EXP DUP2 SLOAD DUP2 PUSH20 0xFFFFFFFFFFFFFFFFFFFFFFFFFFFFFFFFFFFFFFFF MUL NOT AND SWAP1 DUP4 PUSH20 0xFFFFFFFFFFFFFFFFFFFFFFFFFFFFFFFFFFFFFFFF AND MUL OR SWAP1 SSTORE POP DUP4 PUSH2 0xFFFF AND DUP2 PUSH1 0x2 ADD PUSH1 0x0 PUSH2 0x100 EXP DUP2 SLOAD DUP2 PUSH4 0xFFFFFFFF MUL NOT AND SWAP1 DUP4 PUSH4 0xFFFFFFFF AND MUL OR SWAP1 SSTORE POP DUP5 DUP5 DUP1 PUSH2 0xFFFF AND SWAP1 POP SWAP3 POP SWAP3 POP POP SWAP3 POP SWAP3 SWAP1 POP JUMP JUMPDEST DUP2 DUP2 PUSH1 0x0 DUP1 DUP3 PUSH1 0x40 MLOAD PUSH2 0x3E8 SWAP2 SWAP1 PUSH2 0x196D JUMP JUMPDEST SWAP1 DUP2 MSTORE PUSH1 0x20 ADD PUSH1 0x40 MLOAD DUP1 SWAP2 SUB SWAP1 KECCAK256 SWAP1 POP PUSH1 0x1 ISZERO ISZERO DUP2 PUSH1 0x3 ADD PUSH1 0x0 DUP6 PUSH20 0xFFFFFFFFFFFFFFFFFFFFFFFFFFFFFFFFFFFFFFFF AND PUSH20 0xFFFFFFFFFFFFFFFFFFFFFFFFFFFFFFFFFFFFFFFF AND DUP2 MSTORE PUSH1 0x20 ADD SWAP1 DUP2 MSTORE PUSH1 0x20 ADD PUSH1 0x0 KECCAK256 PUSH1 0x0 SWAP1 SLOAD SWAP1 PUSH2 0x100 EXP SWAP1 DIV PUSH1 0xFF AND ISZERO ISZERO EQ PUSH2 0x48D JUMPI PUSH1 0x40 MLOAD PUSH32 0x8C379A000000000000000000000000000000000000000000000000000000000 DUP2 MSTORE PUSH1 0x4 ADD PUSH2 0x484 SWAP1 PUSH2 0x19F6 JUMP JUMPDEST PUSH1 0x40 MLOAD DUP1 SWAP2 SUB SWAP1 REVERT JUMPDEST DUP4 PUSH1 0x0 DUP1 DUP3 PUSH1 0x40 MLOAD PUSH2 0x49F SWAP2 SWAP1 PUSH2 0x196D JUMP JUMPDEST SWAP1 DUP2 MSTORE PUSH1 0x20 ADD PUSH1 0x40 MLOAD DUP1 SWAP2 SUB SWAP1 KECCAK256 SWAP1 POP PUSH1 0x1 ISZERO ISZERO DUP2 PUSH1 0x2 ADD PUSH1 0x16 SWAP1 SLOAD SWAP1 PUSH2 0x100 EXP SWAP1 DIV PUSH1 0xFF AND ISZERO ISZERO EQ PUSH2 0x507 JUMPI PUSH1 0x40 MLOAD PUSH32 0x8C379A000000000000000000000000000000000000000000000000000000000 DUP2 MSTORE PUSH1 0x4 ADD PUSH2 0x4FE SWAP1 PUSH2 0x1A62 JUMP JUMPDEST PUSH1 0x40 MLOAD DUP1 SWAP2 SUB SWAP1 REVERT JUMPDEST PUSH1 0x0 DUP1 DUP8 PUSH1 0x40 MLOAD PUSH2 0x518 SWAP2 SWAP1 PUSH2 0x196D JUMP JUMPDEST SWAP1 DUP2 MSTORE PUSH1 0x20 ADD PUSH1 0x40 MLOAD DUP1 SWAP2 SUB SWAP1 KECCAK256 SWAP1 POP PUSH1 0x0 ISZERO ISZERO DUP2 PUSH1 0x4 ADD PUSH1 0x0 CALLER PUSH20 0xFFFFFFFFFFFFFFFFFFFFFFFFFFFFFFFFFFFFFFFF AND PUSH20 0xFFFFFFFFFFFFFFFFFFFFFFFFFFFFFFFFFFFFFFFF AND DUP2 MSTORE PUSH1 0x20 ADD SWAP1 DUP2 MSTORE PUSH1 0x20 ADD PUSH1 0x0 KECCAK256 PUSH1 0x0 SWAP1 SLOAD SWAP1 PUSH2 0x100 EXP SWAP1 DIV PUSH1 0xFF AND ISZERO ISZERO EQ PUSH2 0x5BD JUMPI PUSH1 0x40 MLOAD PUSH32 0x8C379A000000000000000000000000000000000000000000000000000000000 DUP2 MSTORE PUSH1 0x4 ADD PUSH2 0x5B4 SWAP1 PUSH2 0x1ACE JUMP JUMPDEST PUSH1 0x40 MLOAD DUP1 SWAP2 SUB SWAP1 REVERT JUMPDEST PUSH2 0x5C8 DUP9 DUP9 CALLER PUSH2 0xF4F JUMP JUMPDEST POP PUSH32 0xF3F16A15F074B71C5138107DFC7C63B80524D5411CB967CAA97D8D9F12B2FD6B DUP9 PUSH1 0x1 PUSH1 0x40 MLOAD PUSH2 0x5FB SWAP3 SWAP2 SWAP1 PUSH2 0x1AEE JUMP JUMPDEST PUSH1 0x40 MLOAD DUP1 SWAP2 SUB SWAP1 LOG1 POP POP POP POP POP POP POP POP JUMP JUMPDEST PUSH1 0x60 PUSH1 0x0 DUP1 PUSH1 0x0 DUP1 DUP6 PUSH1 0x40 MLOAD PUSH2 0x623 SWAP2 SWAP1 PUSH2 0x196D JUMP JUMPDEST SWAP1 DUP2 MSTORE PUSH1 0x20 ADD PUSH1 0x40 MLOAD DUP1 SWAP2 SUB SWAP1 KECCAK256 SWAP1 POP DUP1 PUSH1 0x1 ADD DUP1 SLOAD SWAP1 POP PUSH8 0xFFFFFFFFFFFFFFFF DUP2 GT ISZERO PUSH2 0x654 JUMPI PUSH2 0x653 PUSH2 0x10FC JUMP JUMPDEST JUMPDEST PUSH1 0x40 MLOAD SWAP1 DUP1 DUP3 MSTORE DUP1 PUSH1 0x20 MUL PUSH1 0x20 ADD DUP3 ADD PUSH1 0x40 MSTORE DUP1 ISZERO PUSH2 0x682 JUMPI DUP2 PUSH1 0x20 ADD PUSH1 0x20 DUP3 MUL DUP1 CALLDATASIZE DUP4 CALLDATACOPY DUP1 DUP3 ADD SWAP2 POP POP SWAP1 POP JUMPDEST POP SWAP4 POP PUSH1 0x0 DUP1 PUSH1 0x0 JUMPDEST DUP4 PUSH1 0x1 ADD DUP1 SLOAD SWAP1 POP DUP2 GT PUSH2 0x8A4 JUMPI PUSH1 0x0 DUP5 PUSH1 0x5 ADD PUSH1 0x0 DUP7 PUSH1 0x1 ADD DUP5 DUP2 SLOAD DUP2 LT PUSH2 0x6B7 JUMPI PUSH2 0x6B6 PUSH2 0x1B17 JUMP JUMPDEST JUMPDEST SWAP1 PUSH1 0x0 MSTORE PUSH1 0x20 PUSH1 0x0 KECCAK256 ADD PUSH1 0x0 SWAP1 SLOAD SWAP1 PUSH2 0x100 EXP SWAP1 DIV PUSH20 0xFFFFFFFFFFFFFFFFFFFFFFFFFFFFFFFFFFFFFFFF AND PUSH20 0xFFFFFFFFFFFFFFFFFFFFFFFFFFFFFFFFFFFFFFFF AND PUSH20 0xFFFFFFFFFFFFFFFFFFFFFFFFFFFFFFFFFFFFFFFF AND DUP2 MSTORE PUSH1 0x20 ADD SWAP1 DUP2 MSTORE PUSH1 0x20 ADD PUSH1 0x0 KECCAK256 SLOAD SWAP1 POP DUP4 DUP2 GT ISZERO PUSH2 0x7EF JUMPI DUP5 PUSH1 0x5 ADD PUSH1 0x0 DUP7 PUSH1 0x1 ADD DUP5 DUP2 SLOAD DUP2 LT PUSH2 0x743 JUMPI PUSH2 0x742 PUSH2 0x1B17 JUMP JUMPDEST JUMPDEST SWAP1 PUSH1 0x0 MSTORE PUSH1 0x20 PUSH1 0x0 KECCAK256 ADD PUSH1 0x0 SWAP1 SLOAD SWAP1 PUSH2 0x100 EXP SWAP1 DIV PUSH20 0xFFFFFFFFFFFFFFFFFFFFFFFFFFFFFFFFFFFFFFFF AND PUSH20 0xFFFFFFFFFFFFFFFFFFFFFFFFFFFFFFFFFFFFFFFF AND PUSH20 0xFFFFFFFFFFFFFFFFFFFFFFFFFFFFFFFFFFFFFFFF AND DUP2 MSTORE PUSH1 0x20 ADD SWAP1 DUP2 MSTORE PUSH1 0x20 ADD PUSH1 0x0 KECCAK256 SLOAD SWAP4 POP DUP5 PUSH1 0x1 ADD DUP3 DUP2 SLOAD DUP2 LT PUSH2 0x7C1 JUMPI PUSH2 0x7C0 PUSH2 0x1B17 JUMP JUMPDEST JUMPDEST SWAP1 PUSH1 0x0 MSTORE PUSH1 0x20 PUSH1 0x0 KECCAK256 ADD PUSH1 0x0 SWAP1 SLOAD SWAP1 PUSH2 0x100 EXP SWAP1 DIV PUSH20 0xFFFFFFFFFFFFFFFFFFFFFFFFFFFFFFFFFFFFFFFF AND SWAP3 POP JUMPDEST DUP5 PUSH1 0x5 ADD PUSH1 0x0 DUP7 PUSH1 0x1 ADD DUP5 DUP2 SLOAD DUP2 LT PUSH2 0x80B JUMPI PUSH2 0x80A PUSH2 0x1B17 JUMP JUMPDEST JUMPDEST SWAP1 PUSH1 0x0 MSTORE PUSH1 0x20 PUSH1 0x0 KECCAK256 ADD PUSH1 0x0 SWAP1 SLOAD SWAP1 PUSH2 0x100 EXP SWAP1 DIV PUSH20 0xFFFFFFFFFFFFFFFFFFFFFFFFFFFFFFFFFFFFFFFF AND PUSH20 0xFFFFFFFFFFFFFFFFFFFFFFFFFFFFFFFFFFFFFFFF AND PUSH20 0xFFFFFFFFFFFFFFFFFFFFFFFFFFFFFFFFFFFFFFFF AND DUP2 MSTORE PUSH1 0x20 ADD SWAP1 DUP2 MSTORE PUSH1 0x20 ADD PUSH1 0x0 KECCAK256 SLOAD DUP9 DUP4 DUP2 MLOAD DUP2 LT PUSH2 0x884 JUMPI PUSH2 0x883 PUSH2 0x1B17 JUMP JUMPDEST JUMPDEST PUSH1 0x20 MUL PUSH1 0x20 ADD ADD DUP2 DUP2 MSTORE POP POP POP DUP1 DUP1 PUSH2 0x89C SWAP1 PUSH2 0x1B75 JUMP JUMPDEST SWAP2 POP POP PUSH2 0x68B JUMP JUMPDEST POP DUP6 DUP2 DUP4 SWAP6 POP SWAP6 POP SWAP6 POP POP POP POP SWAP2 SWAP4 SWAP1 SWAP3 POP JUMP JUMPDEST PUSH1 0x0 DUP1 DUP3 PUSH1 0x40 MLOAD PUSH2 0x8C9 SWAP2 SWAP1 PUSH2 0x196D JUMP JUMPDEST SWAP1 DUP2 MSTORE PUSH1 0x20 ADD PUSH1 0x40 MLOAD DUP1 SWAP2 SUB SWAP1 KECCAK256 SWAP1 POP PUSH1 0x0 PUSH20 0xFFFFFFFFFFFFFFFFFFFFFFFFFFFFFFFFFFFFFFFF AND DUP2 PUSH1 0x0 ADD PUSH1 0x0 SWAP1 SLOAD SWAP1 PUSH2 0x100 EXP SWAP1 DIV PUSH20 0xFFFFFFFFFFFFFFFFFFFFFFFFFFFFFFFFFFFFFFFF AND PUSH20 0xFFFFFFFFFFFFFFFFFFFFFFFFFFFFFFFFFFFFFFFF AND EQ ISZERO PUSH2 0x96D JUMPI PUSH1 0x40 MLOAD PUSH32 0x8C379A000000000000000000000000000000000000000000000000000000000 DUP2 MSTORE PUSH1 0x4 ADD PUSH2 0x964 SWAP1 PUSH2 0x1C0A JUMP JUMPDEST PUSH1 0x40 MLOAD DUP1 SWAP2 SUB SWAP1 REVERT JUMPDEST CALLER PUSH20 0xFFFFFFFFFFFFFFFFFFFFFFFFFFFFFFFFFFFFFFFF AND DUP2 PUSH1 0x0 ADD PUSH1 0x0 SWAP1 SLOAD SWAP1 PUSH2 0x100 EXP SWAP1 DIV PUSH20 0xFFFFFFFFFFFFFFFFFFFFFFFFFFFFFFFFFFFFFFFF AND PUSH20 0xFFFFFFFFFFFFFFFFFFFFFFFFFFFFFFFFFFFFFFFF AND EQ PUSH2 0x9CD JUMPI PUSH2 0x9CC PUSH2 0x1C2A JUMP JUMPDEST JUMPDEST DUP1 PUSH1 0x2 ADD PUSH1 0x0 SWAP1 SLOAD SWAP1 PUSH2 0x100 EXP SWAP1 DIV PUSH4 0xFFFFFFFF AND PUSH4 0xFFFFFFFF AND DUP2 PUSH1 0x2 ADD PUSH1 0x14 SWAP1 SLOAD SWAP1 PUSH2 0x100 EXP SWAP1 DIV PUSH2 0xFFFF AND PUSH2 0xFFFF AND LT PUSH2 0xA3F JUMPI PUSH1 0x40 MLOAD PUSH32 0x8C379A000000000000000000000000000000000000000000000000000000000 DUP2 MSTORE PUSH1 0x4 ADD PUSH2 0xA36 SWAP1 PUSH2 0x1CCB JUMP JUMPDEST PUSH1 0x40 MLOAD DUP1 SWAP2 SUB SWAP1 REVERT JUMPDEST PUSH1 0x1 DUP2 PUSH1 0x3 ADD PUSH1 0x0 DUP6 PUSH20 0xFFFFFFFFFFFFFFFFFFFFFFFFFFFFFFFFFFFFFFFF AND PUSH20 0xFFFFFFFFFFFFFFFFFFFFFFFFFFFFFFFFFFFFFFFF AND DUP2 MSTORE PUSH1 0x20 ADD SWAP1 DUP2 MSTORE PUSH1 0x20 ADD PUSH1 0x0 KECCAK256 PUSH1 0x0 PUSH2 0x100 EXP DUP2 SLOAD DUP2 PUSH1 0xFF MUL NOT AND SWAP1 DUP4 ISZERO ISZERO MUL OR SWAP1 SSTORE POP DUP1 PUSH1 0x1 ADD DUP4 SWAP1 DUP1 PUSH1 0x1 DUP2 SLOAD ADD DUP1 DUP3 SSTORE DUP1 SWAP2 POP POP PUSH1 0x1 SWAP1 SUB SWAP1 PUSH1 0x0 MSTORE PUSH1 0x20 PUSH1 0x0 KECCAK256 ADD PUSH1 0x0 SWAP1 SWAP2 SWAP1 SWAP2 SWAP1 SWAP2 PUSH2 0x100 EXP DUP2 SLOAD DUP2 PUSH20 0xFFFFFFFFFFFFFFFFFFFFFFFFFFFFFFFFFFFFFFFF MUL NOT AND SWAP1 DUP4 PUSH20 0xFFFFFFFFFFFFFFFFFFFFFFFFFFFFFFFFFFFFFFFF AND MUL OR SWAP1 SSTORE POP DUP1 PUSH1 0x2 ADD PUSH1 0x14 DUP2 DUP2 SWAP1 SLOAD SWAP1 PUSH2 0x100 EXP SWAP1 DIV PUSH2 0xFFFF AND DUP1 SWAP3 SWAP2 SWAP1 PUSH2 0xB20 SWAP1 PUSH2 0x1CEB JUMP JUMPDEST SWAP2 SWAP1 PUSH2 0x100 EXP DUP2 SLOAD DUP2 PUSH2 0xFFFF MUL NOT AND SWAP1 DUP4 PUSH2 0xFFFF AND MUL OR SWAP1 SSTORE POP POP PUSH32 0xC19C59AA93348E8FC54764BC642ECA975E2639F44CC683EF8F027E1529CBDA32 DUP4 PUSH1 0x40 MLOAD PUSH2 0xB6A SWAP2 SWAP1 PUSH2 0x1D16 JUMP JUMPDEST PUSH1 0x40 MLOAD DUP1 SWAP2 SUB SWAP1 LOG1 POP POP POP JUMP JUMPDEST PUSH1 0x0 DUP2 DUP1 MLOAD PUSH1 0x20 DUP2 ADD DUP3 ADD DUP1 MLOAD DUP5 DUP3 MSTORE PUSH1 0x20 DUP4 ADD PUSH1 0x20 DUP6 ADD KECCAK256 DUP2 DUP4 MSTORE DUP1 SWAP6 POP POP POP POP POP POP PUSH1 0x0 SWAP2 POP SWAP1 POP DUP1 PUSH1 0x0 ADD PUSH1 0x0 SWAP1 SLOAD SWAP1 PUSH2 0x100 EXP SWAP1 DIV PUSH20 0xFFFFFFFFFFFFFFFFFFFFFFFFFFFFFFFFFFFFFFFF AND SWAP1 DUP1 PUSH1 0x2 ADD PUSH1 0x0 SWAP1 SLOAD SWAP1 PUSH2 0x100 EXP SWAP1 DIV PUSH4 0xFFFFFFFF AND SWAP1 DUP1 PUSH1 0x2 ADD PUSH1 0x4 SWAP1 SLOAD SWAP1 PUSH2 0x100 EXP SWAP1 DIV PUSH8 0xFFFFFFFFFFFFFFFF AND SWAP1 DUP1 PUSH1 0x2 ADD PUSH1 0xC SWAP1 SLOAD SWAP1 PUSH2 0x100 EXP SWAP1 DIV PUSH8 0xFFFFFFFFFFFFFFFF AND SWAP1 DUP1 PUSH1 0x2 ADD PUSH1 0x14 SWAP1 SLOAD SWAP1 PUSH2 0x100 EXP SWAP1 DIV PUSH2 0xFFFF AND SWAP1 DUP1 PUSH1 0x2 ADD PUSH1 0x16 SWAP1 SLOAD SWAP1 PUSH2 0x100 EXP SWAP1 DIV PUSH1 0xFF AND SWAP1 POP DUP7 JUMP JUMPDEST PUSH1 0x1 PUSH1 0x20 MSTORE DUP1 PUSH1 0x0 MSTORE PUSH1 0x40 PUSH1 0x0 KECCAK256 PUSH1 0x0 SWAP2 POP SWAP1 POP SLOAD DUP2 JUMP JUMPDEST PUSH1 0x0 DUP1 DUP3 PUSH1 0x40 MLOAD PUSH2 0xC65 SWAP2 SWAP1 PUSH2 0x196D JUMP JUMPDEST SWAP1 DUP2 MSTORE PUSH1 0x20 ADD PUSH1 0x40 MLOAD DUP1 SWAP2 SUB SWAP1 KECCAK256 SWAP1 POP DUP1 PUSH1 0x0 ADD PUSH1 0x0 SWAP1 SLOAD SWAP1 PUSH2 0x100 EXP SWAP1 DIV PUSH20 0xFFFFFFFFFFFFFFFFFFFFFFFFFFFFFFFFFFFFFFFF AND PUSH20 0xFFFFFFFFFFFFFFFFFFFFFFFFFFFFFFFFFFFFFFFF AND CALLER PUSH20 0xFFFFFFFFFFFFFFFFFFFFFFFFFFFFFFFFFFFFFFFF AND EQ PUSH2 0xD07 JUMPI PUSH1 0x40 MLOAD PUSH32 0x8C379A000000000000000000000000000000000000000000000000000000000 DUP2 MSTORE PUSH1 0x4 ADD PUSH2 0xCFE SWAP1 PUSH2 0x1D7D JUMP JUMPDEST PUSH1 0x40 MLOAD DUP1 SWAP2 SUB SWAP1 REVERT JUMPDEST CALLER PUSH20 0xFFFFFFFFFFFFFFFFFFFFFFFFFFFFFFFFFFFFFFFF AND PUSH2 0x8FC DUP3 PUSH1 0x2 ADD PUSH1 0xC SWAP1 SLOAD SWAP1 PUSH2 0x100 EXP SWAP1 DIV PUSH8 0xFFFFFFFFFFFFFFFF AND PUSH8 0xFFFFFFFFFFFFFFFF AND SWAP1 DUP2 ISZERO MUL SWAP1 PUSH1 0x40 MLOAD PUSH1 0x0 PUSH1 0x40 MLOAD DUP1 DUP4 SUB DUP2 DUP6 DUP9 DUP9 CALL SWAP4 POP POP POP POP ISZERO DUP1 ISZERO PUSH2 0xD6F JUMPI RETURNDATASIZE PUSH1 0x0 DUP1 RETURNDATACOPY RETURNDATASIZE PUSH1 0x0 REVERT JUMPDEST POP POP POP JUMP JUMPDEST PUSH1 0x0 DUP1 PUSH1 0x0 DUP4 PUSH1 0x40 MLOAD PUSH2 0xD87 SWAP2 SWAP1 PUSH2 0x196D JUMP JUMPDEST SWAP1 DUP2 MSTORE PUSH1 0x20 ADD PUSH1 0x40 MLOAD DUP1 SWAP2 SUB SWAP1 KECCAK256 SWAP1 POP DUP1 PUSH1 0x2 ADD PUSH1 0x14 SWAP1 SLOAD SWAP1 PUSH2 0x100 EXP SWAP1 DIV PUSH2 0xFFFF AND PUSH2 0xFFFF AND SWAP2 POP POP SWAP2 SWAP1 POP JUMP JUMPDEST PUSH1 0x60 PUSH1 0x0 DUP1 DUP4 PUSH1 0x40 MLOAD PUSH2 0xDC9 SWAP2 SWAP1 PUSH2 0x196D JUMP JUMPDEST SWAP1 DUP2 MSTORE PUSH1 0x20 ADD PUSH1 0x40 MLOAD DUP1 SWAP2 SUB SWAP1 KECCAK256 SWAP1 POP DUP1 PUSH1 0x1 ADD DUP1 SLOAD DUP1 PUSH1 0x20 MUL PUSH1 0x20 ADD PUSH1 0x40 MLOAD SWAP1 DUP2 ADD PUSH1 0x40 MSTORE DUP1 SWAP3 SWAP2 SWAP1 DUP2 DUP2 MSTORE PUSH1 0x20 ADD DUP3 DUP1 SLOAD DUP1 ISZERO PUSH2 0xE5D JUMPI PUSH1 0x20 MUL DUP3 ADD SWAP2 SWAP1 PUSH1 0x0 MSTORE PUSH1 0x20 PUSH1 0x0 KECCAK256 SWAP1 JUMPDEST DUP2 PUSH1 0x0 SWAP1 SLOAD SWAP1 PUSH2 0x100 EXP SWAP1 DIV PUSH20 0xFFFFFFFFFFFFFFFFFFFFFFFFFFFFFFFFFFFFFFFF AND PUSH20 0xFFFFFFFFFFFFFFFFFFFFFFFFFFFFFFFFFFFFFFFF AND DUP2 MSTORE PUSH1 0x20 ADD SWAP1 PUSH1 0x1 ADD SWAP1 DUP1 DUP4 GT PUSH2 0xE13 JUMPI JUMPDEST POP POP POP POP POP SWAP2 POP POP SWAP2 SWAP1 POP JUMP JUMPDEST PUSH1 0x0 DUP1 DUP3 PUSH1 0x40 MLOAD PUSH2 0xE7B SWAP2 SWAP1 PUSH2 0x196D JUMP JUMPDEST SWAP1 DUP2 MSTORE PUSH1 0x20 ADD PUSH1 0x40 MLOAD DUP1 SWAP2 SUB SWAP1 KECCAK256 SWAP1 POP CALLER PUSH20 0xFFFFFFFFFFFFFFFFFFFFFFFFFFFFFFFFFFFFFFFF AND DUP2 PUSH1 0x0 ADD PUSH1 0x0 SWAP1 SLOAD SWAP1 PUSH2 0x100 EXP SWAP1 DIV PUSH20 0xFFFFFFFFFFFFFFFFFFFFFFFFFFFFFFFFFFFFFFFF AND PUSH20 0xFFFFFFFFFFFFFFFFFFFFFFFFFFFFFFFFFFFFFFFF AND EQ PUSH2 0xF1D JUMPI PUSH1 0x40 MLOAD PUSH32 0x8C379A000000000000000000000000000000000000000000000000000000000 DUP2 MSTORE PUSH1 0x4 ADD PUSH2 0xF14 SWAP1 PUSH2 0x1D7D JUMP JUMPDEST PUSH1 0x40 MLOAD DUP1 SWAP2 SUB SWAP1 REVERT JUMPDEST DUP1 PUSH1 0x2 ADD PUSH1 0x16 SWAP1 SLOAD SWAP1 PUSH2 0x100 EXP SWAP1 DIV PUSH1 0xFF AND ISZERO DUP2 PUSH1 0x2 ADD PUSH1 0x16 PUSH2 0x100 EXP DUP2 SLOAD DUP2 PUSH1 0xFF MUL NOT AND SWAP1 DUP4 ISZERO ISZERO MUL OR SWAP1 SSTORE POP POP POP JUMP JUMPDEST PUSH1 0x0 DUP1 PUSH1 0x0 DUP5 PUSH1 0x40 MLOAD PUSH2 0xF62 SWAP2 SWAP1 PUSH2 0x196D JUMP JUMPDEST SWAP1 DUP2 MSTORE PUSH1 0x20 ADD PUSH1 0x40 MLOAD DUP1 SWAP2 SUB SWAP1 KECCAK256 SWAP1 POP PUSH1 0x1 DUP2 PUSH1 0x4 ADD PUSH1 0x0 DUP6 PUSH20 0xFFFFFFFFFFFFFFFFFFFFFFFFFFFFFFFFFFFFFFFF AND PUSH20 0xFFFFFFFFFFFFFFFFFFFFFFFFFFFFFFFFFFFFFFFF AND DUP2 MSTORE PUSH1 0x20 ADD SWAP1 DUP2 MSTORE PUSH1 0x20 ADD PUSH1 0x0 KECCAK256 PUSH1 0x0 PUSH2 0x100 EXP DUP2 SLOAD DUP2 PUSH1 0xFF MUL NOT AND SWAP1 DUP4 ISZERO ISZERO MUL OR SWAP1 SSTORE POP DUP1 PUSH1 0x5 ADD PUSH1 0x0 DUP7 PUSH20 0xFFFFFFFFFFFFFFFFFFFFFFFFFFFFFFFFFFFFFFFF AND PUSH20 0xFFFFFFFFFFFFFFFFFFFFFFFFFFFFFFFFFFFFFFFF AND DUP2 MSTORE PUSH1 0x20 ADD SWAP1 DUP2 MSTORE PUSH1 0x20 ADD PUSH1 0x0 KECCAK256 PUSH1 0x0 DUP2 SLOAD DUP1 SWAP3 SWAP2 SWAP1 PUSH2 0x101E SWAP1 PUSH2 0x1B75 JUMP JUMPDEST SWAP2 SWAP1 POP SSTORE POP DUP1 PUSH1 0x5 ADD PUSH1 0x0 DUP7 PUSH20 0xFFFFFFFFFFFFFFFFFFFFFFFFFFFFFFFFFFFFFFFF AND PUSH20 0xFFFFFFFFFFFFFFFFFFFFFFFFFFFFFFFFFFFFFFFF AND DUP2 MSTORE PUSH1 0x20 ADD SWAP1 DUP2 MSTORE PUSH1 0x20 ADD PUSH1 0x0 KECCAK256 SLOAD SWAP2 POP POP SWAP4 SWAP3 POP POP POP JUMP JUMPDEST PUSH1 0x0 PUSH1 0x40 MLOAD SWAP1 POP SWAP1 JUMP JUMPDEST PUSH1 0x0 DUP1 REVERT JUMPDEST PUSH1 0x0 DUP1 REVERT JUMPDEST PUSH1 0x0 PUSH20 0xFFFFFFFFFFFFFFFFFFFFFFFFFFFFFFFFFFFFFFFF DUP3 AND SWAP1 POP SWAP2 SWAP1 POP JUMP JUMPDEST PUSH1 0x0 PUSH2 0x10AE DUP3 PUSH2 0x1083 JUMP JUMPDEST SWAP1 POP SWAP2 SWAP1 POP JUMP JUMPDEST PUSH2 0x10BE DUP2 PUSH2 0x10A3 JUMP JUMPDEST DUP2 EQ PUSH2 0x10C9 JUMPI PUSH1 0x0 DUP1 REVERT JUMPDEST POP JUMP JUMPDEST PUSH1 0x0 DUP2 CALLDATALOAD SWAP1 POP PUSH2 0x10DB DUP2 PUSH2 0x10B5 JUMP JUMPDEST SWAP3 SWAP2 POP POP JUMP JUMPDEST PUSH1 0x0 DUP1 REVERT JUMPDEST PUSH1 0x0 DUP1 REVERT JUMPDEST PUSH1 0x0 PUSH1 0x1F NOT PUSH1 0x1F DUP4 ADD AND SWAP1 POP SWAP2 SWAP1 POP JUMP JUMPDEST PUSH32 0x4E487B7100000000000000000000000000000000000000000000000000000000 PUSH1 0x0 MSTORE PUSH1 0x41 PUSH1 0x4 MSTORE PUSH1 0x24 PUSH1 0x0 REVERT JUMPDEST PUSH2 0x1134 DUP3 PUSH2 0x10EB JUMP JUMPDEST DUP2 ADD DUP2 DUP2 LT PUSH8 0xFFFFFFFFFFFFFFFF DUP3 GT OR ISZERO PUSH2 0x1153 JUMPI PUSH2 0x1152 PUSH2 0x10FC JUMP JUMPDEST JUMPDEST DUP1 PUSH1 0x40 MSTORE POP POP POP JUMP JUMPDEST PUSH1 0x0 PUSH2 0x1166 PUSH2 0x106F JUMP JUMPDEST SWAP1 POP PUSH2 0x1172 DUP3 DUP3 PUSH2 0x112B JUMP JUMPDEST SWAP2 SWAP1 POP JUMP JUMPDEST PUSH1 0x0 PUSH8 0xFFFFFFFFFFFFFFFF DUP3 GT ISZERO PUSH2 0x1192 JUMPI PUSH2 0x1191 PUSH2 0x10FC JUMP JUMPDEST JUMPDEST PUSH2 0x119B DUP3 PUSH2 0x10EB JUMP JUMPDEST SWAP1 POP PUSH1 0x20 DUP2 ADD SWAP1 POP SWAP2 SWAP1 POP JUMP JUMPDEST DUP3 DUP2 DUP4 CALLDATACOPY PUSH1 0x0 DUP4 DUP4 ADD MSTORE POP POP POP JUMP JUMPDEST PUSH1 0x0 PUSH2 0x11CA PUSH2 0x11C5 DUP5 PUSH2 0x1177 JUMP JUMPDEST PUSH2 0x115C JUMP JUMPDEST SWAP1 POP DUP3 DUP2 MSTORE PUSH1 0x20 DUP2 ADD DUP5 DUP5 DUP5 ADD GT ISZERO PUSH2 0x11E6 JUMPI PUSH2 0x11E5 PUSH2 0x10E6 JUMP JUMPDEST JUMPDEST PUSH2 0x11F1 DUP5 DUP3 DUP6 PUSH2 0x11A8 JUMP JUMPDEST POP SWAP4 SWAP3 POP POP POP JUMP JUMPDEST PUSH1 0x0 DUP3 PUSH1 0x1F DUP4 ADD SLT PUSH2 0x120E JUMPI PUSH2 0x120D PUSH2 0x10E1 JUMP JUMPDEST JUMPDEST DUP2 CALLDATALOAD PUSH2 0x121E DUP5 DUP3 PUSH1 0x20 DUP7 ADD PUSH2 0x11B7 JUMP JUMPDEST SWAP2 POP POP SWAP3 SWAP2 POP POP JUMP JUMPDEST PUSH1 0x0 DUP2 SWAP1 POP SWAP2 SWAP1 POP JUMP JUMPDEST PUSH2 0x123A DUP2 PUSH2 0x1227 JUMP JUMPDEST DUP2 EQ PUSH2 0x1245 JUMPI PUSH1 0x0 DUP1 REVERT JUMPDEST POP JUMP JUMPDEST PUSH1 0x0 DUP2 CALLDATALOAD SWAP1 POP PUSH2 0x1257 DUP2 PUSH2 0x1231 JUMP JUMPDEST SWAP3 SWAP2 POP POP JUMP JUMPDEST PUSH1 0x0 DUP1 PUSH1 0x0 DUP1 PUSH1 0x80 DUP6 DUP8 SUB SLT ISZERO PUSH2 0x1277 JUMPI PUSH2 0x1276 PUSH2 0x1079 JUMP JUMPDEST JUMPDEST PUSH1 0x0 PUSH2 0x1285 DUP8 DUP3 DUP9 ADD PUSH2 0x10CC JUMP JUMPDEST SWAP5 POP POP PUSH1 0x20 DUP6 ADD CALLDATALOAD PUSH8 0xFFFFFFFFFFFFFFFF DUP2 GT ISZERO PUSH2 0x12A6 JUMPI PUSH2 0x12A5 PUSH2 0x107E JUMP JUMPDEST JUMPDEST PUSH2 0x12B2 DUP8 DUP3 DUP9 ADD PUSH2 0x11F9 JUMP JUMPDEST SWAP4 POP POP PUSH1 0x40 PUSH2 0x12C3 DUP8 DUP3 DUP9 ADD PUSH2 0x1248 JUMP JUMPDEST SWAP3 POP POP PUSH1 0x60 PUSH2 0x12D4 DUP8 DUP3 DUP9 ADD PUSH2 0x1248 JUMP JUMPDEST SWAP2 POP POP SWAP3 SWAP6 SWAP2 SWAP5 POP SWAP3 POP JUMP JUMPDEST PUSH1 0x0 DUP2 SWAP1 POP SWAP2 SWAP1 POP JUMP JUMPDEST PUSH2 0x12F3 DUP2 PUSH2 0x12E0 JUMP JUMPDEST DUP3 MSTORE POP POP JUMP JUMPDEST PUSH1 0x0 PUSH1 0x20 DUP3 ADD SWAP1 POP PUSH2 0x130E PUSH1 0x0 DUP4 ADD DUP5 PUSH2 0x12EA JUMP JUMPDEST SWAP3 SWAP2 POP POP JUMP JUMPDEST PUSH1 0x0 PUSH2 0xFFFF DUP3 AND SWAP1 POP SWAP2 SWAP1 POP JUMP JUMPDEST PUSH2 0x132B DUP2 PUSH2 0x1314 JUMP JUMPDEST DUP2 EQ PUSH2 0x1336 JUMPI PUSH1 0x0 DUP1 REVERT JUMPDEST POP JUMP JUMPDEST PUSH1 0x0 DUP2 CALLDATALOAD SWAP1 POP PUSH2 0x1348 DUP2 PUSH2 0x1322 JUMP JUMPDEST SWAP3 SWAP2 POP POP JUMP JUMPDEST PUSH1 0x0 DUP1 PUSH1 0x40 DUP4 DUP6 SUB SLT ISZERO PUSH2 0x1365 JUMPI PUSH2 0x1364 PUSH2 0x1079 JUMP JUMPDEST JUMPDEST PUSH1 0x0 DUP4 ADD CALLDATALOAD PUSH8 0xFFFFFFFFFFFFFFFF DUP2 GT ISZERO PUSH2 0x1383 JUMPI PUSH2 0x1382 PUSH2 0x107E JUMP JUMPDEST JUMPDEST PUSH2 0x138F DUP6 DUP3 DUP7 ADD PUSH2 0x11F9 JUMP JUMPDEST SWAP3 POP POP PUSH1 0x20 PUSH2 0x13A0 DUP6 DUP3 DUP7 ADD PUSH2 0x1339 JUMP JUMPDEST SWAP2 POP POP SWAP3 POP SWAP3 SWAP1 POP JUMP JUMPDEST PUSH1 0x0 DUP2 MLOAD SWAP1 POP SWAP2 SWAP1 POP JUMP JUMPDEST PUSH1 0x0 DUP3 DUP3 MSTORE PUSH1 0x20 DUP3 ADD SWAP1 POP SWAP3 SWAP2 POP POP JUMP JUMPDEST PUSH1 0x0 JUMPDEST DUP4 DUP2 LT ISZERO PUSH2 0x13E4 JUMPI DUP1 DUP3 ADD MLOAD DUP2 DUP5 ADD MSTORE PUSH1 0x20 DUP2 ADD SWAP1 POP PUSH2 0x13C9 JUMP JUMPDEST DUP4 DUP2 GT ISZERO PUSH2 0x13F3 JUMPI PUSH1 0x0 DUP5 DUP5 ADD MSTORE JUMPDEST POP POP POP POP JUMP JUMPDEST PUSH1 0x0 PUSH2 0x1404 DUP3 PUSH2 0x13AA JUMP JUMPDEST PUSH2 0x140E DUP2 DUP6 PUSH2 0x13B5 JUMP JUMPDEST SWAP4 POP PUSH2 0x141E DUP2 DUP6 PUSH1 0x20 DUP7 ADD PUSH2 0x13C6 JUMP JUMPDEST PUSH2 0x1427 DUP2 PUSH2 0x10EB JUMP JUMPDEST DUP5 ADD SWAP2 POP POP SWAP3 SWAP2 POP POP JUMP JUMPDEST PUSH2 0x143B DUP2 PUSH2 0x1227 JUMP JUMPDEST DUP3 MSTORE POP POP JUMP JUMPDEST PUSH1 0x0 PUSH1 0x40 DUP3 ADD SWAP1 POP DUP2 DUP2 SUB PUSH1 0x0 DUP4 ADD MSTORE PUSH2 0x145B DUP2 DUP6 PUSH2 0x13F9 JUMP JUMPDEST SWAP1 POP PUSH2 0x146A PUSH1 0x20 DUP4 ADD DUP5 PUSH2 0x1432 JUMP JUMPDEST SWAP4 SWAP3 POP POP POP JUMP JUMPDEST PUSH1 0x0 DUP1 PUSH1 0x40 DUP4 DUP6 SUB SLT ISZERO PUSH2 0x1488 JUMPI PUSH2 0x1487 PUSH2 0x1079 JUMP JUMPDEST JUMPDEST PUSH1 0x0 PUSH2 0x1496 DUP6 DUP3 DUP7 ADD PUSH2 0x10CC JUMP JUMPDEST SWAP3 POP POP PUSH1 0x20 DUP4 ADD CALLDATALOAD PUSH8 0xFFFFFFFFFFFFFFFF DUP2 GT ISZERO PUSH2 0x14B7 JUMPI PUSH2 0x14B6 PUSH2 0x107E JUMP JUMPDEST JUMPDEST PUSH2 0x14C3 DUP6 DUP3 DUP7 ADD PUSH2 0x11F9 JUMP JUMPDEST SWAP2 POP POP SWAP3 POP SWAP3 SWAP1 POP JUMP JUMPDEST PUSH1 0x0 PUSH1 0x20 DUP3 DUP5 SUB SLT ISZERO PUSH2 0x14E3 JUMPI PUSH2 0x14E2 PUSH2 0x1079 JUMP JUMPDEST JUMPDEST PUSH1 0x0 DUP3 ADD CALLDATALOAD PUSH8 0xFFFFFFFFFFFFFFFF DUP2 GT ISZERO PUSH2 0x1501 JUMPI PUSH2 0x1500 PUSH2 0x107E JUMP JUMPDEST JUMPDEST PUSH2 0x150D DUP5 DUP3 DUP6 ADD PUSH2 0x11F9 JUMP JUMPDEST SWAP2 POP POP SWAP3 SWAP2 POP POP JUMP JUMPDEST PUSH1 0x0 DUP2 MLOAD SWAP1 POP SWAP2 SWAP1 POP JUMP JUMPDEST PUSH1 0x0 DUP3 DUP3 MSTORE PUSH1 0x20 DUP3 ADD SWAP1 POP SWAP3 SWAP2 POP POP JUMP JUMPDEST PUSH1 0x0 DUP2 SWAP1 POP PUSH1 0x20 DUP3 ADD SWAP1 POP SWAP2 SWAP1 POP JUMP JUMPDEST PUSH2 0x154B DUP2 PUSH2 0x1227 JUMP JUMPDEST DUP3 MSTORE POP POP JUMP JUMPDEST PUSH1 0x0 PUSH2 0x155D DUP4 DUP4 PUSH2 0x1542 JUMP JUMPDEST PUSH1 0x20 DUP4 ADD SWAP1 POP SWAP3 SWAP2 POP POP JUMP JUMPDEST PUSH1 0x0 PUSH1 0x20 DUP3 ADD SWAP1 POP SWAP2 SWAP1 POP JUMP JUMPDEST PUSH1 0x0 PUSH2 0x1581 DUP3 PUSH2 0x1516 JUMP JUMPDEST PUSH2 0x158B DUP2 DUP6 PUSH2 0x1521 JUMP JUMPDEST SWAP4 POP PUSH2 0x1596 DUP4 PUSH2 0x1532 JUMP JUMPDEST DUP1 PUSH1 0x0 JUMPDEST DUP4 DUP2 LT ISZERO PUSH2 0x15C7 JUMPI DUP2 MLOAD PUSH2 0x15AE DUP9 DUP3 PUSH2 0x1551 JUMP JUMPDEST SWAP8 POP PUSH2 0x15B9 DUP4 PUSH2 0x1569 JUMP JUMPDEST SWAP3 POP POP PUSH1 0x1 DUP2 ADD SWAP1 POP PUSH2 0x159A JUMP JUMPDEST POP DUP6 SWAP4 POP POP POP POP SWAP3 SWAP2 POP POP JUMP JUMPDEST PUSH2 0x15DD DUP2 PUSH2 0x10A3 JUMP JUMPDEST DUP3 MSTORE POP POP JUMP JUMPDEST PUSH1 0x0 PUSH1 0x60 DUP3 ADD SWAP1 POP DUP2 DUP2 SUB PUSH1 0x0 DUP4 ADD MSTORE PUSH2 0x15FD DUP2 DUP7 PUSH2 0x1576 JUMP JUMPDEST SWAP1 POP PUSH2 0x160C PUSH1 0x20 DUP4 ADD DUP6 PUSH2 0x15D4 JUMP JUMPDEST PUSH2 0x1619 PUSH1 0x40 DUP4 ADD DUP5 PUSH2 0x1432 JUMP JUMPDEST SWAP5 SWAP4 POP POP POP POP JUMP JUMPDEST PUSH1 0x0 PUSH4 0xFFFFFFFF DUP3 AND SWAP1 POP SWAP2 SWAP1 POP JUMP JUMPDEST PUSH2 0x163A DUP2 PUSH2 0x1621 JUMP JUMPDEST DUP3 MSTORE POP POP JUMP JUMPDEST PUSH1 0x0 PUSH8 0xFFFFFFFFFFFFFFFF DUP3 AND SWAP1 POP SWAP2 SWAP1 POP JUMP JUMPDEST PUSH2 0x165D DUP2 PUSH2 0x1640 JUMP JUMPDEST DUP3 MSTORE POP POP JUMP JUMPDEST PUSH2 0x166C DUP2 PUSH2 0x1314 JUMP JUMPDEST DUP3 MSTORE POP POP JUMP JUMPDEST PUSH1 0x0 DUP2 ISZERO ISZERO SWAP1 POP SWAP2 SWAP1 POP JUMP JUMPDEST PUSH2 0x1687 DUP2 PUSH2 0x1672 JUMP JUMPDEST DUP3 MSTORE POP POP JUMP JUMPDEST PUSH1 0x0 PUSH1 0xC0 DUP3 ADD SWAP1 POP PUSH2 0x16A2 PUSH1 0x0 DUP4 ADD DUP10 PUSH2 0x15D4 JUMP JUMPDEST PUSH2 0x16AF PUSH1 0x20 DUP4 ADD DUP9 PUSH2 0x1631 JUMP JUMPDEST PUSH2 0x16BC PUSH1 0x40 DUP4 ADD DUP8 PUSH2 0x1654 JUMP JUMPDEST PUSH2 0x16C9 PUSH1 0x60 DUP4 ADD DUP7 PUSH2 0x1654 JUMP JUMPDEST PUSH2 0x16D6 PUSH1 0x80 DUP4 ADD DUP6 PUSH2 0x1663 JUMP JUMPDEST PUSH2 0x16E3 PUSH1 0xA0 DUP4 ADD DUP5 PUSH2 0x167E JUMP JUMPDEST SWAP8 SWAP7 POP POP POP POP POP POP POP JUMP JUMPDEST PUSH1 0x0 PUSH1 0x20 DUP3 DUP5 SUB SLT ISZERO PUSH2 0x1704 JUMPI PUSH2 0x1703 PUSH2 0x1079 JUMP JUMPDEST JUMPDEST PUSH1 0x0 PUSH2 0x1712 DUP5 DUP3 DUP6 ADD PUSH2 0x10CC JUMP JUMPDEST SWAP2 POP POP SWAP3 SWAP2 POP POP JUMP JUMPDEST PUSH1 0x0 PUSH1 0x20 DUP3 ADD SWAP1 POP PUSH2 0x1730 PUSH1 0x0 DUP4 ADD DUP5 PUSH2 0x1432 JUMP JUMPDEST SWAP3 SWAP2 POP POP JUMP JUMPDEST PUSH1 0x0 DUP2 MLOAD SWAP1 POP SWAP2 SWAP1 POP JUMP JUMPDEST PUSH1 0x0 DUP3 DUP3 MSTORE PUSH1 0x20 DUP3 ADD SWAP1 POP SWAP3 SWAP2 POP POP JUMP JUMPDEST PUSH1 0x0 DUP2 SWAP1 POP PUSH1 0x20 DUP3 ADD SWAP1 POP SWAP2 SWAP1 POP JUMP JUMPDEST PUSH2 0x176B DUP2 PUSH2 0x10A3 JUMP JUMPDEST DUP3 MSTORE POP POP JUMP JUMPDEST PUSH1 0x0 PUSH2 0x177D DUP4 DUP4 PUSH2 0x1762 JUMP JUMPDEST PUSH1 0x20 DUP4 ADD SWAP1 POP SWAP3 SWAP2 POP POP JUMP JUMPDEST PUSH1 0x0 PUSH1 0x20 DUP3 ADD SWAP1 POP SWAP2 SWAP1 POP JUMP JUMPDEST PUSH1 0x0 PUSH2 0x17A1 DUP3 PUSH2 0x1736 JUMP JUMPDEST PUSH2 0x17AB DUP2 DUP6 PUSH2 0x1741 JUMP JUMPDEST SWAP4 POP PUSH2 0x17B6 DUP4 PUSH2 0x1752 JUMP JUMPDEST DUP1 PUSH1 0x0 JUMPDEST DUP4 DUP2 LT ISZERO PUSH2 0x17E7 JUMPI DUP2 MLOAD PUSH2 0x17CE DUP9 DUP3 PUSH2 0x1771 JUMP JUMPDEST SWAP8 POP PUSH2 0x17D9 DUP4 PUSH2 0x1789 JUMP JUMPDEST SWAP3 POP POP PUSH1 0x1 DUP2 ADD SWAP1 POP PUSH2 0x17BA JUMP JUMPDEST POP DUP6 SWAP4 POP POP POP POP SWAP3 SWAP2 POP POP JUMP JUMPDEST PUSH1 0x0 PUSH1 0x20 DUP3 ADD SWAP1 POP DUP2 DUP2 SUB PUSH1 0x0 DUP4 ADD MSTORE PUSH2 0x180E DUP2 DUP5 PUSH2 0x1796 JUMP JUMPDEST SWAP1 POP SWAP3 SWAP2 POP POP JUMP JUMPDEST PUSH1 0x0 DUP2 PUSH1 0x60 SHL SWAP1 POP SWAP2 SWAP1 POP JUMP JUMPDEST PUSH1 0x0 PUSH2 0x182E DUP3 PUSH2 0x1816 JUMP JUMPDEST SWAP1 POP SWAP2 SWAP1 POP JUMP JUMPDEST PUSH1 0x0 PUSH2 0x1840 DUP3 PUSH2 0x1823 JUMP JUMPDEST SWAP1 POP SWAP2 SWAP1 POP JUMP JUMPDEST PUSH2 0x1858 PUSH2 0x1853 DUP3 PUSH2 0x10A3 JUMP JUMPDEST PUSH2 0x1835 JUMP JUMPDEST DUP3 MSTORE POP POP JUMP JUMPDEST PUSH1 0x0 DUP2 SWAP1 POP SWAP3 SWAP2 POP POP JUMP JUMPDEST PUSH32 0x6D6574617472616E73616374696F6E20566F74696E6720000000000000000000 PUSH1 0x0 DUP3 ADD MSTORE POP JUMP JUMPDEST PUSH1 0x0 PUSH2 0x189F PUSH1 0x17 DUP4 PUSH2 0x185E JUMP JUMPDEST SWAP2 POP PUSH2 0x18AA DUP3 PUSH2 0x1869 JUMP JUMPDEST PUSH1 0x17 DUP3 ADD SWAP1 POP SWAP2 SWAP1 POP JUMP JUMPDEST PUSH1 0x0 PUSH2 0x18C0 DUP3 PUSH2 0x13AA JUMP JUMPDEST PUSH2 0x18CA DUP2 DUP6 PUSH2 0x185E JUMP JUMPDEST SWAP4 POP PUSH2 0x18DA DUP2 DUP6 PUSH1 0x20 DUP7 ADD PUSH2 0x13C6 JUMP JUMPDEST DUP1 DUP5 ADD SWAP2 POP POP SWAP3 SWAP2 POP POP JUMP JUMPDEST PUSH1 0x0 DUP2 SWAP1 POP SWAP2 SWAP1 POP JUMP JUMPDEST PUSH2 0x1901 PUSH2 0x18FC DUP3 PUSH2 0x1227 JUMP JUMPDEST PUSH2 0x18E6 JUMP JUMPDEST DUP3 MSTORE POP POP JUMP JUMPDEST PUSH1 0x0 PUSH2 0x1913 DUP3 DUP9 PUSH2 0x1847 JUMP JUMPDEST PUSH1 0x14 DUP3 ADD SWAP2 POP PUSH2 0x1922 DUP3 PUSH2 0x1892 JUMP JUMPDEST SWAP2 POP PUSH2 0x192E DUP3 DUP8 PUSH2 0x1847 JUMP JUMPDEST PUSH1 0x14 DUP3 ADD SWAP2 POP PUSH2 0x193E DUP3 DUP7 PUSH2 0x18B5 JUMP JUMPDEST SWAP2 POP PUSH2 0x194A DUP3 DUP6 PUSH2 0x18F0 JUMP JUMPDEST PUSH1 0x20 DUP3 ADD SWAP2 POP PUSH2 0x195A DUP3 DUP5 PUSH2 0x18F0 JUMP JUMPDEST PUSH1 0x20 DUP3 ADD SWAP2 POP DUP2 SWAP1 POP SWAP7 SWAP6 POP POP POP POP POP POP JUMP JUMPDEST PUSH1 0x0 PUSH2 0x1979 DUP3 DUP5 PUSH2 0x18B5 JUMP JUMPDEST SWAP2 POP DUP2 SWAP1 POP SWAP3 SWAP2 POP POP JUMP JUMPDEST PUSH32 0x54686973206164647265737320646F6573206E6F742065786973742061732061 PUSH1 0x0 DUP3 ADD MSTORE PUSH32 0x2063616E64696461746500000000000000000000000000000000000000000000 PUSH1 0x20 DUP3 ADD MSTORE POP JUMP JUMPDEST PUSH1 0x0 PUSH2 0x19E0 PUSH1 0x2A DUP4 PUSH2 0x13B5 JUMP JUMPDEST SWAP2 POP PUSH2 0x19EB DUP3 PUSH2 0x1984 JUMP JUMPDEST PUSH1 0x40 DUP3 ADD SWAP1 POP SWAP2 SWAP1 POP JUMP JUMPDEST PUSH1 0x0 PUSH1 0x20 DUP3 ADD SWAP1 POP DUP2 DUP2 SUB PUSH1 0x0 DUP4 ADD MSTORE PUSH2 0x1A0F DUP2 PUSH2 0x19D3 JUMP JUMPDEST SWAP1 POP SWAP2 SWAP1 POP JUMP JUMPDEST PUSH32 0x766F74696E672068617320656E64656400000000000000000000000000000000 PUSH1 0x0 DUP3 ADD MSTORE POP JUMP JUMPDEST PUSH1 0x0 PUSH2 0x1A4C PUSH1 0x10 DUP4 PUSH2 0x13B5 JUMP JUMPDEST SWAP2 POP PUSH2 0x1A57 DUP3 PUSH2 0x1A16 JUMP JUMPDEST PUSH1 0x20 DUP3 ADD SWAP1 POP SWAP2 SWAP1 POP JUMP JUMPDEST PUSH1 0x0 PUSH1 0x20 DUP3 ADD SWAP1 POP DUP2 DUP2 SUB PUSH1 0x0 DUP4 ADD MSTORE PUSH2 0x1A7B DUP2 PUSH2 0x1A3F JUMP JUMPDEST SWAP1 POP SWAP2 SWAP1 POP JUMP JUMPDEST PUSH32 0x596F7520616C726561647920766F746564000000000000000000000000000000 PUSH1 0x0 DUP3 ADD MSTORE POP JUMP JUMPDEST PUSH1 0x0 PUSH2 0x1AB8 PUSH1 0x11 DUP4 PUSH2 0x13B5 JUMP JUMPDEST SWAP2 POP PUSH2 0x1AC3 DUP3 PUSH2 0x1A82 JUMP JUMPDEST PUSH1 0x20 DUP3 ADD SWAP1 POP SWAP2 SWAP1 POP JUMP JUMPDEST PUSH1 0x0 PUSH1 0x20 DUP3 ADD SWAP1 POP DUP2 DUP2 SUB PUSH1 0x0 DUP4 ADD MSTORE PUSH2 0x1AE7 DUP2 PUSH2 0x1AAB JUMP JUMPDEST SWAP1 POP SWAP2 SWAP1 POP JUMP JUMPDEST PUSH1 0x0 PUSH1 0x40 DUP3 ADD SWAP1 POP PUSH2 0x1B03 PUSH1 0x0 DUP4 ADD DUP6 PUSH2 0x15D4 JUMP JUMPDEST PUSH2 0x1B10 PUSH1 0x20 DUP4 ADD DUP5 PUSH2 0x167E JUMP JUMPDEST SWAP4 SWAP3 POP POP POP JUMP JUMPDEST PUSH32 0x4E487B7100000000000000000000000000000000000000000000000000000000 PUSH1 0x0 MSTORE PUSH1 0x32 PUSH1 0x4 MSTORE PUSH1 0x24 PUSH1 0x0 REVERT JUMPDEST PUSH32 0x4E487B7100000000000000000000000000000000000000000000000000000000 PUSH1 0x0 MSTORE PUSH1 0x11 PUSH1 0x4 MSTORE PUSH1 0x24 PUSH1 0x0 REVERT JUMPDEST PUSH1 0x0 PUSH2 0x1B80 DUP3 PUSH2 0x1227 JUMP JUMPDEST SWAP2 POP PUSH32 0xFFFFFFFFFFFFFFFFFFFFFFFFFFFFFFFFFFFFFFFFFFFFFFFFFFFFFFFFFFFFFFFF DUP3 EQ ISZERO PUSH2 0x1BB3 JUMPI PUSH2 0x1BB2 PUSH2 0x1B46 JUMP JUMPDEST JUMPDEST PUSH1 0x1 DUP3 ADD SWAP1 POP SWAP2 SWAP1 POP JUMP JUMPDEST PUSH32 0x79657420746F20637265617465206120706F6C6C000000000000000000000000 PUSH1 0x0 DUP3 ADD MSTORE POP JUMP JUMPDEST PUSH1 0x0 PUSH2 0x1BF4 PUSH1 0x14 DUP4 PUSH2 0x13B5 JUMP JUMPDEST SWAP2 POP PUSH2 0x1BFF DUP3 PUSH2 0x1BBE JUMP JUMPDEST PUSH1 0x20 DUP3 ADD SWAP1 POP SWAP2 SWAP1 POP JUMP JUMPDEST PUSH1 0x0 PUSH1 0x20 DUP3 ADD SWAP1 POP DUP2 DUP2 SUB PUSH1 0x0 DUP4 ADD MSTORE PUSH2 0x1C23 DUP2 PUSH2 0x1BE7 JUMP JUMPDEST SWAP1 POP SWAP2 SWAP1 POP JUMP JUMPDEST PUSH32 0x4E487B7100000000000000000000000000000000000000000000000000000000 PUSH1 0x0 MSTORE PUSH1 0x1 PUSH1 0x4 MSTORE PUSH1 0x24 PUSH1 0x0 REVERT JUMPDEST PUSH32 0x6D6178696D756D206E6F206F662063616E646964617465207065722073657373 PUSH1 0x0 DUP3 ADD MSTORE PUSH32 0x696F6E2072656769737465726564000000000000000000000000000000000000 PUSH1 0x20 DUP3 ADD MSTORE POP JUMP JUMPDEST PUSH1 0x0 PUSH2 0x1CB5 PUSH1 0x2E DUP4 PUSH2 0x13B5 JUMP JUMPDEST SWAP2 POP PUSH2 0x1CC0 DUP3 PUSH2 0x1C59 JUMP JUMPDEST PUSH1 0x40 DUP3 ADD SWAP1 POP SWAP2 SWAP1 POP JUMP JUMPDEST PUSH1 0x0 PUSH1 0x20 DUP3 ADD SWAP1 POP DUP2 DUP2 SUB PUSH1 0x0 DUP4 ADD MSTORE PUSH2 0x1CE4 DUP2 PUSH2 0x1CA8 JUMP JUMPDEST SWAP1 POP SWAP2 SWAP1 POP JUMP JUMPDEST PUSH1 0x0 PUSH2 0x1CF6 DUP3 PUSH2 0x1314 JUMP JUMPDEST SWAP2 POP PUSH2 0xFFFF DUP3 EQ ISZERO PUSH2 0x1D0B JUMPI PUSH2 0x1D0A PUSH2 0x1B46 JUMP JUMPDEST JUMPDEST PUSH1 0x1 DUP3 ADD SWAP1 POP SWAP2 SWAP1 POP JUMP JUMPDEST PUSH1 0x0 PUSH1 0x20 DUP3 ADD SWAP1 POP PUSH2 0x1D2B PUSH1 0x0 DUP4 ADD DUP5 PUSH2 0x15D4 JUMP JUMPDEST SWAP3 SWAP2 POP POP JUMP JUMPDEST PUSH32 0x6E6F74207468652063686169726D616E00000000000000000000000000000000 PUSH1 0x0 DUP3 ADD MSTORE POP JUMP JUMPDEST PUSH1 0x0 PUSH2 0x1D67 PUSH1 0x10 DUP4 PUSH2 0x13B5 JUMP JUMPDEST SWAP2 POP PUSH2 0x1D72 DUP3 PUSH2 0x1D31 JUMP JUMPDEST PUSH1 0x20 DUP3 ADD SWAP1 POP SWAP2 SWAP1 POP JUMP JUMPDEST PUSH1 0x0 PUSH1 0x20 DUP3 ADD SWAP1 POP DUP2 DUP2 SUB PUSH1 0x0 DUP4 ADD MSTORE PUSH2 0x1D96 DUP2 PUSH2 0x1D5A JUMP JUMPDEST SWAP1 POP SWAP2 SWAP1 POP JUMP INVALID LOG2 PUSH5 0x6970667358 0x22 SLT KECCAK256 SMOD PC 0x28 0xF9 0xAB 0xCE JUMP DUP15 0xB4 0x5F 0xE6 PUSH14 0x97892FA3A1AC23D67EE99199877D CALLER MUL 0xBF PUSH21 0xCC0464736F6C634300080A00330000000000000000 "
				},
				"gasEstimates": {
					"creation": {
						"codeDepositCost": "1527000",
						"executionCost": "1596",
						"totalCost": "1528596"
					},
					"external": {
						"AddCandidate(address,string)": "infinite",
						"AllCandidates(string)": "infinite",
						"NoOfRegisteredCandidates(string)": "infinite",
						"createPoll(string,uint16)": "infinite",
						"metaVotingHash(address,string,uint256,uint256)": "infinite",
						"replayNonce(address)": "2836",
						"revealWinner(string)": "infinite",
						"setVotingState(string)": "infinite",
						"vote(address,string)": "infinite",
						"votingPoll(string)": "infinite",
						"withdawFees(string)": "infinite"
					},
					"internal": {
						"countVote(address,string memory,address)": "infinite",
						"getSigner(bytes32,bytes memory)": "infinite"
					}
				},
				"methodIdentifiers": {
					"AddCandidate(address,string)": "57f53967",
					"AllCandidates(string)": "af7cbc0d",
					"NoOfRegisteredCandidates(string)": "8579cacd",
					"createPoll(string,uint16)": "0968d4b1",
					"metaVotingHash(address,string,uint256,uint256)": "01ff993b",
					"replayNonce(address)": "67d407df",
					"revealWinner(string)": "4fcf1f39",
					"setVotingState(string)": "f0e4de22",
					"vote(address,string)": "1bf533a4",
					"votingPoll(string)": "63ee965a",
					"withdawFees(string)": "82e305ab"
				}
			},
			"storageLayout": {
				"storage": [
					{
						"astId": 34,
						"contract": "src/voting.sol:Voting",
						"label": "votingPoll",
						"offset": 0,
						"slot": "0",
						"type": "t_mapping(t_string_memory_ptr,t_struct(VotingPoll)29_storage)"
					},
					{
						"astId": 38,
						"contract": "src/voting.sol:Voting",
						"label": "replayNonce",
						"offset": 0,
						"slot": "1",
						"type": "t_mapping(t_address,t_uint256)"
					}
				],
				"types": {
					"t_address": {
						"encoding": "inplace",
						"label": "address",
						"numberOfBytes": "20"
					},
					"t_array(t_address)dyn_storage": {
						"base": "t_address",
						"encoding": "dynamic_array",
						"label": "address[]",
						"numberOfBytes": "32"
					},
					"t_bool": {
						"encoding": "inplace",
						"label": "bool",
						"numberOfBytes": "1"
					},
					"t_mapping(t_address,t_bool)": {
						"encoding": "mapping",
						"key": "t_address",
						"label": "mapping(address => bool)",
						"numberOfBytes": "32",
						"value": "t_bool"
					},
					"t_mapping(t_address,t_uint256)": {
						"encoding": "mapping",
						"key": "t_address",
						"label": "mapping(address => uint256)",
						"numberOfBytes": "32",
						"value": "t_uint256"
					},
					"t_mapping(t_string_memory_ptr,t_struct(VotingPoll)29_storage)": {
						"encoding": "mapping",
						"key": "t_string_memory_ptr",
						"label": "mapping(string => struct Voting.VotingPoll)",
						"numberOfBytes": "32",
						"value": "t_struct(VotingPoll)29_storage"
					},
					"t_string_memory_ptr": {
						"encoding": "bytes",
						"label": "string",
						"numberOfBytes": "32"
					},
					"t_struct(VotingPoll)29_storage": {
						"encoding": "inplace",
						"label": "struct Voting.VotingPoll",
						"members": [
							{
								"astId": 3,
								"contract": "src/voting.sol:Voting",
								"label": "chairman",
								"offset": 0,
								"slot": "0",
								"type": "t_address"
							},
							{
								"astId": 6,
								"contract": "src/voting.sol:Voting",
								"label": "candidates",
								"offset": 0,
								"slot": "1",
								"type": "t_array(t_address)dyn_storage"
							},
							{
								"astId": 8,
								"contract": "src/voting.sol:Voting",
								"label": "maxNoOfCandidates",
								"offset": 0,
								"slot": "2",
								"type": "t_uint32"
							},
							{
								"astId": 10,
								"contract": "src/voting.sol:Voting",
								"label": "startTime",
								"offset": 4,
								"slot": "2",
								"type": "t_uint64"
							},
							{
								"astId": 12,
								"contract": "src/voting.sol:Voting",
								"label": "amountGenerated",
								"offset": 12,
								"slot": "2",
								"type": "t_uint64"
							},
							{
								"astId": 14,
								"contract": "src/voting.sol:Voting",
								"label": "currentNoOfCandidates",
								"offset": 20,
								"slot": "2",
								"type": "t_uint16"
							},
							{
								"astId": 16,
								"contract": "src/voting.sol:Voting",
								"label": "voting",
								"offset": 22,
								"slot": "2",
								"type": "t_bool"
							},
							{
								"astId": 20,
								"contract": "src/voting.sol:Voting",
								"label": "CandidateStatus",
								"offset": 0,
								"slot": "3",
								"type": "t_mapping(t_address,t_bool)"
							},
							{
								"astId": 24,
								"contract": "src/voting.sol:Voting",
								"label": "hasVoted",
								"offset": 0,
								"slot": "4",
								"type": "t_mapping(t_address,t_bool)"
							},
							{
								"astId": 28,
								"contract": "src/voting.sol:Voting",
								"label": "CandidateVote",
								"offset": 0,
								"slot": "5",
								"type": "t_mapping(t_address,t_uint256)"
							}
						],
						"numberOfBytes": "192"
					},
					"t_uint16": {
						"encoding": "inplace",
						"label": "uint16",
						"numberOfBytes": "2"
					},
					"t_uint256": {
						"encoding": "inplace",
						"label": "uint256",
						"numberOfBytes": "32"
					},
					"t_uint32": {
						"encoding": "inplace",
						"label": "uint32",
						"numberOfBytes": "4"
					},
					"t_uint64": {
						"encoding": "inplace",
						"label": "uint64",
						"numberOfBytes": "8"
					}
				}
			},
			"userdoc": {
				"kind": "user",
				"methods": {},
				"version": 1
			}
		}
	}
}