{
	"src/voting.sol": {
		"Voting": {
			"abi": [
				{
					"anonymous": false,
					"inputs": [
						{
							"indexed": false,
							"internalType": "address",
							"name": "NewCandidate",
							"type": "address"
						}
					],
					"name": "becameCandidate",
					"type": "event"
				},
				{
					"anonymous": false,
					"inputs": [
						{
							"indexed": false,
							"internalType": "address",
							"name": "_candidate",
							"type": "address"
						},
						{
							"indexed": false,
							"internalType": "bool",
							"name": "status",
							"type": "bool"
						}
					],
					"name": "voted",
					"type": "event"
				},
				{
					"inputs": [
						{
							"internalType": "address",
							"name": "_newCandidate",
							"type": "address"
						},
						{
							"internalType": "string",
							"name": "_name",
							"type": "string"
						}
					],
					"name": "AddCandidate",
					"outputs": [],
					"stateMutability": "nonpayable",
					"type": "function"
				},
				{
					"inputs": [
						{
							"internalType": "string",
							"name": "_name",
							"type": "string"
						}
					],
					"name": "AllCandidates",
					"outputs": [
						{
							"internalType": "address[]",
							"name": "_candidates",
							"type": "address[]"
						}
					],
					"stateMutability": "view",
					"type": "function"
				},
				{
					"inputs": [
						{
							"internalType": "string",
							"name": "_name",
							"type": "string"
						}
					],
					"name": "NoOfRegisteredCandidates",
					"outputs": [
						{
							"internalType": "uint256",
							"name": "",
							"type": "uint256"
						}
					],
					"stateMutability": "view",
					"type": "function"
				},
				{
					"inputs": [
						{
							"internalType": "string",
							"name": "_name",
							"type": "string"
						},
						{
							"internalType": "uint16",
							"name": "ExpectedNoOfCandidate",
							"type": "uint16"
						}
					],
					"name": "createPoll",
					"outputs": [
						{
							"internalType": "string",
							"name": "",
							"type": "string"
						},
						{
							"internalType": "uint256",
							"name": "Candidate",
							"type": "uint256"
						}
					],
					"stateMutability": "nonpayable",
					"type": "function"
				},
				{
					"inputs": [
						{
							"internalType": "uint256",
							"name": "",
							"type": "uint256"
						}
					],
					"name": "listOfPolls",
					"outputs": [
						{
							"internalType": "address",
							"name": "chairman",
							"type": "address"
						},
						{
							"internalType": "uint32",
							"name": "maxNoOfCandidates",
							"type": "uint32"
						},
						{
							"internalType": "uint64",
							"name": "startTime",
							"type": "uint64"
						},
						{
							"internalType": "uint64",
							"name": "amountGenerated",
							"type": "uint64"
						},
						{
							"internalType": "uint16",
							"name": "currentNoOfCandidates",
							"type": "uint16"
						},
						{
							"internalType": "bool",
							"name": "voting",
							"type": "bool"
						}
					],
					"stateMutability": "view",
					"type": "function"
				},
				{
					"inputs": [
						{
							"internalType": "address",
							"name": "Cand",
							"type": "address"
						},
						{
							"internalType": "string",
							"name": "_name",
							"type": "string"
						},
						{
							"internalType": "uint256",
							"name": "nonce",
							"type": "uint256"
						},
						{
							"internalType": "uint256",
							"name": "time",
							"type": "uint256"
						}
					],
					"name": "metaVotingHash",
					"outputs": [
						{
							"internalType": "bytes32",
							"name": "",
							"type": "bytes32"
						}
					],
					"stateMutability": "view",
					"type": "function"
				},
				{
					"inputs": [
						{
							"internalType": "address",
							"name": "",
							"type": "address"
						}
					],
					"name": "replayNonce",
					"outputs": [
						{
							"internalType": "uint256",
							"name": "",
							"type": "uint256"
						}
					],
					"stateMutability": "view",
					"type": "function"
				},
				{
					"inputs": [
						{
							"internalType": "string",
							"name": "_name",
							"type": "string"
						}
					],
					"name": "revealWinner",
					"outputs": [
						{
							"internalType": "uint256[]",
							"name": "CV",
							"type": "uint256[]"
						},
						{
							"internalType": "address",
							"name": "",
							"type": "address"
						},
						{
							"internalType": "uint256",
							"name": "",
							"type": "uint256"
						}
					],
					"stateMutability": "view",
					"type": "function"
				},
				{
					"inputs": [
						{
							"internalType": "string",
							"name": "_name",
							"type": "string"
						}
					],
					"name": "setVotingState",
					"outputs": [],
					"stateMutability": "nonpayable",
					"type": "function"
				},
				{
					"inputs": [
						{
							"internalType": "address",
							"name": "Cand",
							"type": "address"
						},
						{
							"internalType": "string",
							"name": "_name",
							"type": "string"
						}
					],
					"name": "vote",
					"outputs": [],
					"stateMutability": "nonpayable",
					"type": "function"
				},
				{
					"inputs": [
						{
							"internalType": "string",
							"name": "",
							"type": "string"
						}
					],
					"name": "votingPoll",
					"outputs": [
						{
							"internalType": "address",
							"name": "chairman",
							"type": "address"
						},
						{
							"internalType": "uint32",
							"name": "maxNoOfCandidates",
							"type": "uint32"
						},
						{
							"internalType": "uint64",
							"name": "startTime",
							"type": "uint64"
						},
						{
							"internalType": "uint64",
							"name": "amountGenerated",
							"type": "uint64"
						},
						{
							"internalType": "uint16",
							"name": "currentNoOfCandidates",
							"type": "uint16"
						},
						{
							"internalType": "bool",
							"name": "voting",
							"type": "bool"
						}
					],
					"stateMutability": "view",
					"type": "function"
				},
				{
					"inputs": [
						{
							"internalType": "string",
							"name": "_name",
							"type": "string"
						}
					],
					"name": "withdawFees",
					"outputs": [],
					"stateMutability": "payable",
					"type": "function"
				},
				{
					"stateMutability": "payable",
					"type": "receive"
				}
			],
			"devdoc": {
				"kind": "dev",
				"methods": {},
				"version": 1
			},
			"evm": {
				"assembly": "    /* \"src/voting.sol\":63:5342  contract Voting{... */\n  mstore(0x40, 0x80)\n  callvalue\n  dup1\n  iszero\n  tag_1\n  jumpi\n  0x00\n  dup1\n  revert\ntag_1:\n  pop\n  dataSize(sub_0)\n  dup1\n  dataOffset(sub_0)\n  0x00\n  codecopy\n  0x00\n  return\nstop\n\nsub_0: assembly {\n        /* \"src/voting.sol\":63:5342  contract Voting{... */\n      mstore(0x40, 0x80)\n      jumpi(tag_1, lt(calldatasize, 0x04))\n      shr(0xe0, calldataload(0x00))\n      dup1\n      0x67d407df\n      gt\n      tag_15\n      jumpi\n      dup1\n      0x67d407df\n      eq\n      tag_9\n      jumpi\n      dup1\n      0x82e305ab\n      eq\n      tag_10\n      jumpi\n      dup1\n      0x8579cacd\n      eq\n      tag_11\n      jumpi\n      dup1\n      0xa886e61b\n      eq\n      tag_12\n      jumpi\n      dup1\n      0xaf7cbc0d\n      eq\n      tag_13\n      jumpi\n      dup1\n      0xf0e4de22\n      eq\n      tag_14\n      jumpi\n      jump(tag_2)\n    tag_15:\n      dup1\n      0x01ff993b\n      eq\n      tag_3\n      jumpi\n      dup1\n      0x0968d4b1\n      eq\n      tag_4\n      jumpi\n      dup1\n      0x1bf533a4\n      eq\n      tag_5\n      jumpi\n      dup1\n      0x4fcf1f39\n      eq\n      tag_6\n      jumpi\n      dup1\n      0x57f53967\n      eq\n      tag_7\n      jumpi\n      dup1\n      0x63ee965a\n      eq\n      tag_8\n      jumpi\n      jump(tag_2)\n    tag_1:\n      jumpi(tag_2, calldatasize)\n      stop\n    tag_2:\n      0x00\n      dup1\n      revert\n        /* \"src/voting.sol\":4493:4721  function metaVotingHash(address Cand, string memory _name, uint256 nonce, uint256 time) public view returns(bytes32){... */\n    tag_3:\n      callvalue\n      dup1\n      iszero\n      tag_18\n      jumpi\n      0x00\n      dup1\n      revert\n    tag_18:\n      pop\n      tag_19\n      0x04\n      dup1\n      calldatasize\n      sub\n      dup2\n      add\n      swap1\n      tag_20\n      swap2\n      swap1\n      tag_21\n      jump\t// in\n    tag_20:\n      tag_22\n      jump\t// in\n    tag_19:\n      mload(0x40)\n      tag_23\n      swap2\n      swap1\n      tag_24\n      jump\t// in\n    tag_23:\n      mload(0x40)\n      dup1\n      swap2\n      sub\n      swap1\n      return\n        /* \"src/voting.sol\":1514:1803  function createPoll(string memory _name, uint16 ExpectedNoOfCandidate) external returns(string memory, uint Candidate){... */\n    tag_4:\n      callvalue\n      dup1\n      iszero\n      tag_25\n      jumpi\n      0x00\n      dup1\n      revert\n    tag_25:\n      pop\n      tag_26\n      0x04\n      dup1\n      calldatasize\n      sub\n      dup2\n      add\n      swap1\n      tag_27\n      swap2\n      swap1\n      tag_28\n      jump\t// in\n    tag_27:\n      tag_29\n      jump\t// in\n    tag_26:\n      mload(0x40)\n      tag_30\n      swap3\n      swap2\n      swap1\n      tag_31\n      jump\t// in\n    tag_30:\n      mload(0x40)\n      dup1\n      swap2\n      sub\n      swap1\n      return\n        /* \"src/voting.sol\":2322:2907  function vote(address Cand, string memory _name /*, uint256 nonce, bytes memory signature*/) external  isCandidate(Cand, _name) StillVoting(_name){... */\n    tag_5:\n      callvalue\n      dup1\n      iszero\n      tag_32\n      jumpi\n      0x00\n      dup1\n      revert\n    tag_32:\n      pop\n      tag_33\n      0x04\n      dup1\n      calldatasize\n      sub\n      dup2\n      add\n      swap1\n      tag_34\n      swap2\n      swap1\n      tag_35\n      jump\t// in\n    tag_34:\n      tag_36\n      jump\t// in\n    tag_33:\n      stop\n        /* \"src/voting.sol\":3513:4056  function revealWinner( string memory _name) external view returns ( uint[] memory CV, address, uint){... */\n    tag_6:\n      callvalue\n      dup1\n      iszero\n      tag_37\n      jumpi\n      0x00\n      dup1\n      revert\n    tag_37:\n      pop\n      tag_38\n      0x04\n      dup1\n      calldatasize\n      sub\n      dup2\n      add\n      swap1\n      tag_39\n      swap2\n      swap1\n      tag_40\n      jump\t// in\n    tag_39:\n      tag_41\n      jump\t// in\n    tag_38:\n      mload(0x40)\n      tag_42\n      swap4\n      swap3\n      swap2\n      swap1\n      tag_43\n      jump\t// in\n    tag_42:\n      mload(0x40)\n      dup1\n      swap2\n      sub\n      swap1\n      return\n        /* \"src/voting.sol\":1807:2319  function AddCandidate(address _newCandidate, string memory _name) external{... */\n    tag_7:\n      callvalue\n      dup1\n      iszero\n      tag_44\n      jumpi\n      0x00\n      dup1\n      revert\n    tag_44:\n      pop\n      tag_45\n      0x04\n      dup1\n      calldatasize\n      sub\n      dup2\n      add\n      swap1\n      tag_46\n      swap2\n      swap1\n      tag_35\n      jump\t// in\n    tag_46:\n      tag_47\n      jump\t// in\n    tag_45:\n      stop\n        /* \"src/voting.sol\":702:749  mapping(string => VotingPoll) public votingPoll */\n    tag_8:\n      callvalue\n      dup1\n      iszero\n      tag_48\n      jumpi\n      0x00\n      dup1\n      revert\n    tag_48:\n      pop\n      tag_49\n      0x04\n      dup1\n      calldatasize\n      sub\n      dup2\n      add\n      swap1\n      tag_50\n      swap2\n      swap1\n      tag_40\n      jump\t// in\n    tag_50:\n      tag_51\n      jump\t// in\n    tag_49:\n      mload(0x40)\n      tag_52\n      swap7\n      swap6\n      swap5\n      swap4\n      swap3\n      swap2\n      swap1\n      tag_53\n      jump\t// in\n    tag_52:\n      mload(0x40)\n      dup1\n      swap2\n      sub\n      swap1\n      return\n        /* \"src/voting.sol\":755:802  mapping (address => uint256) public replayNonce */\n    tag_9:\n      callvalue\n      dup1\n      iszero\n      tag_54\n      jumpi\n      0x00\n      dup1\n      revert\n    tag_54:\n      pop\n      tag_55\n      0x04\n      dup1\n      calldatasize\n      sub\n      dup2\n      add\n      swap1\n      tag_56\n      swap2\n      swap1\n      tag_57\n      jump\t// in\n    tag_56:\n      tag_58\n      jump\t// in\n    tag_55:\n      mload(0x40)\n      tag_59\n      swap2\n      swap1\n      tag_60\n      jump\t// in\n    tag_59:\n      mload(0x40)\n      dup1\n      swap2\n      sub\n      swap1\n      return\n        /* \"src/voting.sol\":4263:4488  function withdawFees(string memory _name) external payable{... */\n    tag_10:\n      tag_61\n      0x04\n      dup1\n      calldatasize\n      sub\n      dup2\n      add\n      swap1\n      tag_62\n      swap2\n      swap1\n      tag_40\n      jump\t// in\n    tag_62:\n      tag_63\n      jump\t// in\n    tag_61:\n      stop\n        /* \"src/voting.sol\":3158:3329  function NoOfRegisteredCandidates( string memory _name) public view returns(uint){... */\n    tag_11:\n      callvalue\n      dup1\n      iszero\n      tag_64\n      jumpi\n      0x00\n      dup1\n      revert\n    tag_64:\n      pop\n      tag_65\n      0x04\n      dup1\n      calldatasize\n      sub\n      dup2\n      add\n      swap1\n      tag_66\n      swap2\n      swap1\n      tag_40\n      jump\t// in\n    tag_66:\n      tag_67\n      jump\t// in\n    tag_65:\n      mload(0x40)\n      tag_68\n      swap2\n      swap1\n      tag_60\n      jump\t// in\n    tag_68:\n      mload(0x40)\n      dup1\n      swap2\n      sub\n      swap1\n      return\n        /* \"src/voting.sol\":609:640  VotingPoll[] public listOfPolls */\n    tag_12:\n      callvalue\n      dup1\n      iszero\n      tag_69\n      jumpi\n      0x00\n      dup1\n      revert\n    tag_69:\n      pop\n      tag_70\n      0x04\n      dup1\n      calldatasize\n      sub\n      dup2\n      add\n      swap1\n      tag_71\n      swap2\n      swap1\n      tag_72\n      jump\t// in\n    tag_71:\n      tag_73\n      jump\t// in\n    tag_70:\n      mload(0x40)\n      tag_74\n      swap7\n      swap6\n      swap5\n      swap4\n      swap3\n      swap2\n      swap1\n      tag_53\n      jump\t// in\n    tag_74:\n      mload(0x40)\n      dup1\n      swap2\n      sub\n      swap1\n      return\n        /* \"src/voting.sol\":3337:3510  function AllCandidates( string memory _name) public view returns(address[] memory _candidates){... */\n    tag_13:\n      callvalue\n      dup1\n      iszero\n      tag_75\n      jumpi\n      0x00\n      dup1\n      revert\n    tag_75:\n      pop\n      tag_76\n      0x04\n      dup1\n      calldatasize\n      sub\n      dup2\n      add\n      swap1\n      tag_77\n      swap2\n      swap1\n      tag_40\n      jump\t// in\n    tag_77:\n      tag_78\n      jump\t// in\n    tag_76:\n      mload(0x40)\n      tag_79\n      swap2\n      swap1\n      tag_80\n      jump\t// in\n    tag_79:\n      mload(0x40)\n      dup1\n      swap2\n      sub\n      swap1\n      return\n        /* \"src/voting.sol\":4059:4261  function setVotingState( string memory _name) external {... */\n    tag_14:\n      callvalue\n      dup1\n      iszero\n      tag_81\n      jumpi\n      0x00\n      dup1\n      revert\n    tag_81:\n      pop\n      tag_82\n      0x04\n      dup1\n      calldatasize\n      sub\n      dup2\n      add\n      swap1\n      tag_83\n      swap2\n      swap1\n      tag_40\n      jump\t// in\n    tag_83:\n      tag_84\n      jump\t// in\n    tag_82:\n      stop\n        /* \"src/voting.sol\":4493:4721  function metaVotingHash(address Cand, string memory _name, uint256 nonce, uint256 time) public view returns(bytes32){... */\n    tag_22:\n        /* \"src/voting.sol\":4601:4608  bytes32 */\n      0x00\n        /* \"src/voting.sol\":4657:4661  this */\n      address\n        /* \"src/voting.sol\":4690:4694  Cand */\n      dup6\n        /* \"src/voting.sol\":4696:4701  _name */\n      dup6\n        /* \"src/voting.sol\":4703:4708  nonce */\n      dup6\n        /* \"src/voting.sol\":4710:4714  time */\n      dup6\n        /* \"src/voting.sol\":4632:4715  abi.encodePacked(address(this),\"metatransaction Voting \", Cand, _name, nonce, time) */\n      add(0x20, mload(0x40))\n      tag_86\n      swap6\n      swap5\n      swap4\n      swap3\n      swap2\n      swap1\n      tag_87\n      jump\t// in\n    tag_86:\n      mload(0x40)\n      0x20\n      dup2\n      dup4\n      sub\n      sub\n      dup2\n      mstore\n      swap1\n      0x40\n      mstore\n        /* \"src/voting.sol\":4622:4716  keccak256(abi.encodePacked(address(this),\"metatransaction Voting \", Cand, _name, nonce, time)) */\n      dup1\n      mload\n      swap1\n      0x20\n      add\n      keccak256\n        /* \"src/voting.sol\":4615:4716  return keccak256(abi.encodePacked(address(this),\"metatransaction Voting \", Cand, _name, nonce, time)) */\n      swap1\n      pop\n        /* \"src/voting.sol\":4493:4721  function metaVotingHash(address Cand, string memory _name, uint256 nonce, uint256 time) public view returns(bytes32){... */\n      swap5\n      swap4\n      pop\n      pop\n      pop\n      pop\n      jump\t// out\n        /* \"src/voting.sol\":1514:1803  function createPoll(string memory _name, uint16 ExpectedNoOfCandidate) external returns(string memory, uint Candidate){... */\n    tag_29:\n        /* \"src/voting.sol\":1602:1615  string memory */\n      0x60\n        /* \"src/voting.sol\":1617:1631  uint Candidate */\n      0x00\n        /* \"src/voting.sol\":1638:1659  VotingPoll storage VP */\n      dup1\n        /* \"src/voting.sol\":1662:1672  votingPoll */\n      0x01\n        /* \"src/voting.sol\":1673:1678  _name */\n      dup6\n        /* \"src/voting.sol\":1662:1679  votingPoll[_name] */\n      mload(0x40)\n      tag_89\n      swap2\n      swap1\n      tag_90\n      jump\t// in\n    tag_89:\n      swap1\n      dup2\n      mstore\n      0x20\n      add\n      mload(0x40)\n      dup1\n      swap2\n      sub\n      swap1\n      keccak256\n        /* \"src/voting.sol\":1638:1679  VotingPoll storage VP = votingPoll[_name] */\n      swap1\n      pop\n        /* \"src/voting.sol\":1699:1709  msg.sender */\n      caller\n        /* \"src/voting.sol\":1685:1687  VP */\n      dup2\n        /* \"src/voting.sol\":1685:1696  VP.chairman */\n      0x00\n      add\n      0x00\n        /* \"src/voting.sol\":1685:1709  VP.chairman = msg.sender */\n      0x0100\n      exp\n      dup2\n      sload\n      dup2\n      0xffffffffffffffffffffffffffffffffffffffff\n      mul\n      not\n      and\n      swap1\n      dup4\n      0xffffffffffffffffffffffffffffffffffffffff\n      and\n      mul\n      or\n      swap1\n      sstore\n      pop\n        /* \"src/voting.sol\":1737:1758  ExpectedNoOfCandidate */\n      dup4\n        /* \"src/voting.sol\":1715:1758  VP.maxNoOfCandidates =ExpectedNoOfCandidate */\n      0xffff\n      and\n        /* \"src/voting.sol\":1715:1717  VP */\n      dup2\n        /* \"src/voting.sol\":1715:1735  VP.maxNoOfCandidates */\n      0x02\n      add\n      0x00\n        /* \"src/voting.sol\":1715:1758  VP.maxNoOfCandidates =ExpectedNoOfCandidate */\n      0x0100\n      exp\n      dup2\n      sload\n      dup2\n      0xffffffff\n      mul\n      not\n      and\n      swap1\n      dup4\n      0xffffffff\n      and\n      mul\n      or\n      swap1\n      sstore\n      pop\n        /* \"src/voting.sol\":1771:1776  _name */\n      dup5\n        /* \"src/voting.sol\":1778:1799  ExpectedNoOfCandidate */\n      dup5\n        /* \"src/voting.sol\":1764:1800  return(_name, ExpectedNoOfCandidate) */\n      dup1\n      0xffff\n      and\n      swap1\n      pop\n      swap3\n      pop\n      swap3\n      pop\n      pop\n        /* \"src/voting.sol\":1514:1803  function createPoll(string memory _name, uint16 ExpectedNoOfCandidate) external returns(string memory, uint Candidate){... */\n      swap3\n      pop\n      swap3\n      swap1\n      pop\n      jump\t// out\n        /* \"src/voting.sol\":2322:2907  function vote(address Cand, string memory _name /*, uint256 nonce, bytes memory signature*/) external  isCandidate(Cand, _name) StillVoting(_name){... */\n    tag_36:\n        /* \"src/voting.sol\":2437:2441  Cand */\n      dup2\n        /* \"src/voting.sol\":2443:2448  _name */\n      dup2\n        /* \"src/voting.sol\":1082:1103  VotingPoll storage VP */\n      0x00\n        /* \"src/voting.sol\":1106:1116  votingPoll */\n      0x01\n        /* \"src/voting.sol\":1117:1122  _name */\n      dup3\n        /* \"src/voting.sol\":1106:1123  votingPoll[_name] */\n      mload(0x40)\n      tag_92\n      swap2\n      swap1\n      tag_90\n      jump\t// in\n    tag_92:\n      swap1\n      dup2\n      mstore\n      0x20\n      add\n      mload(0x40)\n      dup1\n      swap2\n      sub\n      swap1\n      keccak256\n        /* \"src/voting.sol\":1082:1123  VotingPoll storage VP = votingPoll[_name] */\n      swap1\n      pop\n        /* \"src/voting.sol\":1163:1167  true */\n      0x01\n        /* \"src/voting.sol\":1137:1167  VP.CandidateStatus[Cand]==true */\n      iszero\n      iszero\n        /* \"src/voting.sol\":1137:1139  VP */\n      dup2\n        /* \"src/voting.sol\":1137:1155  VP.CandidateStatus */\n      0x03\n      add\n        /* \"src/voting.sol\":1137:1161  VP.CandidateStatus[Cand] */\n      0x00\n        /* \"src/voting.sol\":1156:1160  Cand */\n      dup6\n        /* \"src/voting.sol\":1137:1161  VP.CandidateStatus[Cand] */\n      0xffffffffffffffffffffffffffffffffffffffff\n      and\n      0xffffffffffffffffffffffffffffffffffffffff\n      and\n      dup2\n      mstore\n      0x20\n      add\n      swap1\n      dup2\n      mstore\n      0x20\n      add\n      0x00\n      keccak256\n      0x00\n      swap1\n      sload\n      swap1\n      0x0100\n      exp\n      swap1\n      div\n      0xff\n      and\n        /* \"src/voting.sol\":1137:1167  VP.CandidateStatus[Cand]==true */\n      iszero\n      iszero\n      eq\n        /* \"src/voting.sol\":1129:1213  require(VP.CandidateStatus[Cand]==true,'This address does not exist as a candidate') */\n      tag_93\n      jumpi\n      mload(0x40)\n      0x08c379a000000000000000000000000000000000000000000000000000000000\n      dup2\n      mstore\n      0x04\n      add\n      tag_94\n      swap1\n      tag_95\n      jump\t// in\n    tag_94:\n      mload(0x40)\n      dup1\n      swap2\n      sub\n      swap1\n      revert\n    tag_93:\n        /* \"src/voting.sol\":2462:2467  _name */\n      dup4\n        /* \"src/voting.sol\":1274:1295  VotingPoll storage VP */\n      0x00\n        /* \"src/voting.sol\":1298:1308  votingPoll */\n      0x01\n        /* \"src/voting.sol\":1309:1314  _name */\n      dup3\n        /* \"src/voting.sol\":1298:1315  votingPoll[_name] */\n      mload(0x40)\n      tag_97\n      swap2\n      swap1\n      tag_90\n      jump\t// in\n    tag_97:\n      swap1\n      dup2\n      mstore\n      0x20\n      add\n      mload(0x40)\n      dup1\n      swap2\n      sub\n      swap1\n      keccak256\n        /* \"src/voting.sol\":1274:1315  VotingPoll storage VP = votingPoll[_name] */\n      swap1\n      pop\n        /* \"src/voting.sol\":1342:1346  true */\n      0x01\n        /* \"src/voting.sol\":1329:1346  VP.voting == true */\n      iszero\n      iszero\n        /* \"src/voting.sol\":1329:1331  VP */\n      dup2\n        /* \"src/voting.sol\":1329:1338  VP.voting */\n      0x02\n      add\n      0x16\n      swap1\n      sload\n      swap1\n      0x0100\n      exp\n      swap1\n      div\n      0xff\n      and\n        /* \"src/voting.sol\":1329:1346  VP.voting == true */\n      iszero\n      iszero\n      eq\n        /* \"src/voting.sol\":1321:1367  require(VP.voting == true, \"voting has ended\") */\n      tag_98\n      jumpi\n      mload(0x40)\n      0x08c379a000000000000000000000000000000000000000000000000000000000\n      dup2\n      mstore\n      0x04\n      add\n      tag_99\n      swap1\n      tag_100\n      jump\t// in\n    tag_99:\n      mload(0x40)\n      dup1\n      swap2\n      sub\n      swap1\n      revert\n    tag_98:\n        /* \"src/voting.sol\":2721:2742  VotingPoll storage VP */\n      0x00\n        /* \"src/voting.sol\":2745:2755  votingPoll */\n      0x01\n        /* \"src/voting.sol\":2756:2761  _name */\n      dup8\n        /* \"src/voting.sol\":2745:2762  votingPoll[_name] */\n      mload(0x40)\n      tag_102\n      swap2\n      swap1\n      tag_90\n      jump\t// in\n    tag_102:\n      swap1\n      dup2\n      mstore\n      0x20\n      add\n      mload(0x40)\n      dup1\n      swap2\n      sub\n      swap1\n      keccak256\n        /* \"src/voting.sol\":2721:2762  VotingPoll storage VP = votingPoll[_name] */\n      swap1\n      pop\n        /* \"src/voting.sol\":2804:2809  false */\n      0x00\n        /* \"src/voting.sol\":2777:2809  VP.hasVoted[msg.sender] == false */\n      iszero\n      iszero\n        /* \"src/voting.sol\":2777:2779  VP */\n      dup2\n        /* \"src/voting.sol\":2777:2788  VP.hasVoted */\n      0x04\n      add\n        /* \"src/voting.sol\":2777:2800  VP.hasVoted[msg.sender] */\n      0x00\n        /* \"src/voting.sol\":2789:2799  msg.sender */\n      caller\n        /* \"src/voting.sol\":2777:2800  VP.hasVoted[msg.sender] */\n      0xffffffffffffffffffffffffffffffffffffffff\n      and\n      0xffffffffffffffffffffffffffffffffffffffff\n      and\n      dup2\n      mstore\n      0x20\n      add\n      swap1\n      dup2\n      mstore\n      0x20\n      add\n      0x00\n      keccak256\n      0x00\n      swap1\n      sload\n      swap1\n      0x0100\n      exp\n      swap1\n      div\n      0xff\n      and\n        /* \"src/voting.sol\":2777:2809  VP.hasVoted[msg.sender] == false */\n      iszero\n      iszero\n      eq\n        /* \"src/voting.sol\":2769:2831  require(VP.hasVoted[msg.sender] == false, \"You already voted\") */\n      tag_103\n      jumpi\n      mload(0x40)\n      0x08c379a000000000000000000000000000000000000000000000000000000000\n      dup2\n      mstore\n      0x04\n      add\n      tag_104\n      swap1\n      tag_105\n      jump\t// in\n    tag_104:\n      mload(0x40)\n      dup1\n      swap2\n      sub\n      swap1\n      revert\n    tag_103:\n        /* \"src/voting.sol\":2839:2873  countVote(Cand, _name, msg.sender) */\n      tag_106\n        /* \"src/voting.sol\":2849:2853  Cand */\n      dup9\n        /* \"src/voting.sol\":2855:2860  _name */\n      dup9\n        /* \"src/voting.sol\":2862:2872  msg.sender */\n      caller\n        /* \"src/voting.sol\":2839:2848  countVote */\n      tag_107\n        /* \"src/voting.sol\":2839:2873  countVote(Cand, _name, msg.sender) */\n      jump\t// in\n    tag_106:\n      pop\n        /* \"src/voting.sol\":2885:2902  voted(Cand, true) */\n      0xf3f16a15f074b71c5138107dfc7c63b80524d5411cb967caa97d8d9f12b2fd6b\n        /* \"src/voting.sol\":2891:2895  Cand */\n      dup9\n        /* \"src/voting.sol\":2897:2901  true */\n      0x01\n        /* \"src/voting.sol\":2885:2902  voted(Cand, true) */\n      mload(0x40)\n      tag_108\n      swap3\n      swap2\n      swap1\n      tag_109\n      jump\t// in\n    tag_108:\n      mload(0x40)\n      dup1\n      swap2\n      sub\n      swap1\n      log1\n        /* \"src/voting.sol\":2468:2907  {... */\n      pop\n        /* \"src/voting.sol\":1268:1378  {... */\n      pop\n        /* \"src/voting.sol\":1219:1220  _ */\n      pop\n        /* \"src/voting.sol\":1076:1223  {... */\n      pop\n        /* \"src/voting.sol\":2322:2907  function vote(address Cand, string memory _name /*, uint256 nonce, bytes memory signature*/) external  isCandidate(Cand, _name) StillVoting(_name){... */\n      pop\n      pop\n      pop\n      pop\n      jump\t// out\n        /* \"src/voting.sol\":3513:4056  function revealWinner( string memory _name) external view returns ( uint[] memory CV, address, uint){... */\n    tag_41:\n        /* \"src/voting.sol\":3581:3597  uint[] memory CV */\n      0x60\n        /* \"src/voting.sol\":3599:3606  address */\n      0x00\n        /* \"src/voting.sol\":3608:3612  uint */\n      dup1\n        /* \"src/voting.sol\":3620:3641  VotingPoll storage VP */\n      0x00\n        /* \"src/voting.sol\":3644:3654  votingPoll */\n      0x01\n        /* \"src/voting.sol\":3655:3660  _name */\n      dup6\n        /* \"src/voting.sol\":3644:3661  votingPoll[_name] */\n      mload(0x40)\n      tag_111\n      swap2\n      swap1\n      tag_90\n      jump\t// in\n    tag_111:\n      swap1\n      dup2\n      mstore\n      0x20\n      add\n      mload(0x40)\n      dup1\n      swap2\n      sub\n      swap1\n      keccak256\n        /* \"src/voting.sol\":3620:3661  VotingPoll storage VP = votingPoll[_name] */\n      swap1\n      pop\n        /* \"src/voting.sol\":3684:3686  VP */\n      dup1\n        /* \"src/voting.sol\":3684:3697  VP.candidates */\n      0x01\n      add\n        /* \"src/voting.sol\":3684:3704  VP.candidates.length */\n      dup1\n      sload\n      swap1\n      pop\n        /* \"src/voting.sol\":3673:3705  new uint[](VP.candidates.length) */\n      0xffffffffffffffff\n      dup2\n      gt\n      iszero\n      tag_112\n      jumpi\n      tag_113\n      tag_114\n      jump\t// in\n    tag_113:\n    tag_112:\n      mload(0x40)\n      swap1\n      dup1\n      dup3\n      mstore\n      dup1\n      0x20\n      mul\n      0x20\n      add\n      dup3\n      add\n      0x40\n      mstore\n      dup1\n      iszero\n      tag_115\n      jumpi\n      dup2\n      0x20\n      add\n      0x20\n      dup3\n      mul\n      dup1\n      calldatasize\n      dup4\n      calldatacopy\n      dup1\n      dup3\n      add\n      swap2\n      pop\n      pop\n      swap1\n      pop\n    tag_115:\n      pop\n        /* \"src/voting.sol\":3668:3705  CV = new uint[](VP.candidates.length) */\n      swap4\n      pop\n        /* \"src/voting.sol\":3712:3728  uint highestVote */\n      0x00\n        /* \"src/voting.sol\":3735:3749  address winner */\n      dup1\n        /* \"src/voting.sol\":3761:3767  uint i */\n      0x00\n        /* \"src/voting.sol\":3756:4014  for (uint i =0; i <= CV.length; i++){... */\n    tag_116:\n        /* \"src/voting.sol\":3777:3779  CV */\n      dup7\n        /* \"src/voting.sol\":3777:3786  CV.length */\n      mload\n        /* \"src/voting.sol\":3772:3773  i */\n      dup2\n        /* \"src/voting.sol\":3772:3786  i <= CV.length */\n      gt\n        /* \"src/voting.sol\":3756:4014  for (uint i =0; i <= CV.length; i++){... */\n      tag_117\n      jumpi\n        /* \"src/voting.sol\":3839:3850  highestVote */\n      dup3\n        /* \"src/voting.sol\":3802:3804  VP */\n      dup5\n        /* \"src/voting.sol\":3802:3818  VP.CandidateVote */\n      0x05\n      add\n        /* \"src/voting.sol\":3802:3836  VP.CandidateVote[VP.candidates[i]] */\n      0x00\n        /* \"src/voting.sol\":3819:3821  VP */\n      dup7\n        /* \"src/voting.sol\":3819:3832  VP.candidates */\n      0x01\n      add\n        /* \"src/voting.sol\":3833:3834  i */\n      dup5\n        /* \"src/voting.sol\":3819:3835  VP.candidates[i] */\n      dup2\n      sload\n      dup2\n      lt\n      tag_119\n      jumpi\n      tag_120\n      tag_121\n      jump\t// in\n    tag_120:\n    tag_119:\n      swap1\n      0x00\n      mstore\n      keccak256(0x00, 0x20)\n      add\n      0x00\n      swap1\n      sload\n      swap1\n      0x0100\n      exp\n      swap1\n      div\n      0xffffffffffffffffffffffffffffffffffffffff\n      and\n        /* \"src/voting.sol\":3802:3836  VP.CandidateVote[VP.candidates[i]] */\n      0xffffffffffffffffffffffffffffffffffffffff\n      and\n      0xffffffffffffffffffffffffffffffffffffffff\n      and\n      dup2\n      mstore\n      0x20\n      add\n      swap1\n      dup2\n      mstore\n      0x20\n      add\n      0x00\n      keccak256\n      sload\n        /* \"src/voting.sol\":3802:3850  VP.CandidateVote[VP.candidates[i]] > highestVote */\n      gt\n        /* \"src/voting.sol\":3799:3955  if(VP.CandidateVote[VP.candidates[i]] > highestVote){... */\n      iszero\n      tag_123\n      jumpi\n        /* \"src/voting.sol\":3876:3878  VP */\n      dup4\n        /* \"src/voting.sol\":3876:3892  VP.CandidateVote */\n      0x05\n      add\n        /* \"src/voting.sol\":3876:3910  VP.CandidateVote[VP.candidates[i]] */\n      0x00\n        /* \"src/voting.sol\":3893:3895  VP */\n      dup6\n        /* \"src/voting.sol\":3893:3906  VP.candidates */\n      0x01\n      add\n        /* \"src/voting.sol\":3907:3908  i */\n      dup4\n        /* \"src/voting.sol\":3893:3909  VP.candidates[i] */\n      dup2\n      sload\n      dup2\n      lt\n      tag_124\n      jumpi\n      tag_125\n      tag_121\n      jump\t// in\n    tag_125:\n    tag_124:\n      swap1\n      0x00\n      mstore\n      keccak256(0x00, 0x20)\n      add\n      0x00\n      swap1\n      sload\n      swap1\n      0x0100\n      exp\n      swap1\n      div\n      0xffffffffffffffffffffffffffffffffffffffff\n      and\n        /* \"src/voting.sol\":3876:3910  VP.CandidateVote[VP.candidates[i]] */\n      0xffffffffffffffffffffffffffffffffffffffff\n      and\n      0xffffffffffffffffffffffffffffffffffffffff\n      and\n      dup2\n      mstore\n      0x20\n      add\n      swap1\n      dup2\n      mstore\n      0x20\n      add\n      0x00\n      keccak256\n      sload\n        /* \"src/voting.sol\":3862:3910  highestVote = VP.CandidateVote[VP.candidates[i]] */\n      swap3\n      pop\n        /* \"src/voting.sol\":3931:3933  VP */\n      dup4\n        /* \"src/voting.sol\":3931:3944  VP.candidates */\n      0x01\n      add\n        /* \"src/voting.sol\":3945:3946  i */\n      dup2\n        /* \"src/voting.sol\":3931:3947  VP.candidates[i] */\n      dup2\n      sload\n      dup2\n      lt\n      tag_127\n      jumpi\n      tag_128\n      tag_121\n      jump\t// in\n    tag_128:\n    tag_127:\n      swap1\n      0x00\n      mstore\n      keccak256(0x00, 0x20)\n      add\n      0x00\n      swap1\n      sload\n      swap1\n      0x0100\n      exp\n      swap1\n      div\n      0xffffffffffffffffffffffffffffffffffffffff\n      and\n        /* \"src/voting.sol\":3922:3947  winner = VP.candidates[i] */\n      swap2\n      pop\n        /* \"src/voting.sol\":3799:3955  if(VP.CandidateVote[VP.candidates[i]] > highestVote){... */\n    tag_123:\n        /* \"src/voting.sol\":3970:3972  VP */\n      dup4\n        /* \"src/voting.sol\":3970:3986  VP.CandidateVote */\n      0x05\n      add\n        /* \"src/voting.sol\":3970:4004  VP.CandidateVote[VP.candidates[i]] */\n      0x00\n        /* \"src/voting.sol\":3987:3989  VP */\n      dup6\n        /* \"src/voting.sol\":3987:4000  VP.candidates */\n      0x01\n      add\n        /* \"src/voting.sol\":4001:4002  i */\n      dup4\n        /* \"src/voting.sol\":3987:4003  VP.candidates[i] */\n      dup2\n      sload\n      dup2\n      lt\n      tag_130\n      jumpi\n      tag_131\n      tag_121\n      jump\t// in\n    tag_131:\n    tag_130:\n      swap1\n      0x00\n      mstore\n      keccak256(0x00, 0x20)\n      add\n      0x00\n      swap1\n      sload\n      swap1\n      0x0100\n      exp\n      swap1\n      div\n      0xffffffffffffffffffffffffffffffffffffffff\n      and\n        /* \"src/voting.sol\":3970:4004  VP.CandidateVote[VP.candidates[i]] */\n      0xffffffffffffffffffffffffffffffffffffffff\n      and\n      0xffffffffffffffffffffffffffffffffffffffff\n      and\n      dup2\n      mstore\n      0x20\n      add\n      swap1\n      dup2\n      mstore\n      0x20\n      add\n      0x00\n      keccak256\n      sload\n        /* \"src/voting.sol\":3961:3963  CV */\n      dup8\n        /* \"src/voting.sol\":3964:3965  i */\n      dup3\n        /* \"src/voting.sol\":3961:3966  CV[i] */\n      dup2\n      mload\n      dup2\n      lt\n      tag_133\n      jumpi\n      tag_134\n      tag_121\n      jump\t// in\n    tag_134:\n    tag_133:\n      0x20\n      mul\n      0x20\n      add\n      add\n        /* \"src/voting.sol\":3961:4005  CV[i] = (VP.CandidateVote[VP.candidates[i]]) */\n      dup2\n      dup2\n      mstore\n      pop\n      pop\n        /* \"src/voting.sol\":3788:3791  i++ */\n      dup1\n      dup1\n      tag_135\n      swap1\n      tag_136\n      jump\t// in\n    tag_135:\n      swap2\n      pop\n      pop\n        /* \"src/voting.sol\":3756:4014  for (uint i =0; i <= CV.length; i++){... */\n      jump(tag_116)\n    tag_117:\n      pop\n        /* \"src/voting.sol\":4028:4030  CV */\n      dup6\n        /* \"src/voting.sol\":4032:4038  winner */\n      dup2\n        /* \"src/voting.sol\":4040:4051  highestVote */\n      dup4\n        /* \"src/voting.sol\":4020:4052  return (CV, winner, highestVote) */\n      swap6\n      pop\n      swap6\n      pop\n      swap6\n      pop\n      pop\n      pop\n      pop\n        /* \"src/voting.sol\":3513:4056  function revealWinner( string memory _name) external view returns ( uint[] memory CV, address, uint){... */\n      swap2\n      swap4\n      swap1\n      swap3\n      pop\n      jump\t// out\n        /* \"src/voting.sol\":1807:2319  function AddCandidate(address _newCandidate, string memory _name) external{... */\n    tag_47:\n        /* \"src/voting.sol\":1888:1909  VotingPoll storage VP */\n      0x00\n        /* \"src/voting.sol\":1912:1922  votingPoll */\n      0x01\n        /* \"src/voting.sol\":1923:1928  _name */\n      dup3\n        /* \"src/voting.sol\":1912:1929  votingPoll[_name] */\n      mload(0x40)\n      tag_138\n      swap2\n      swap1\n      tag_90\n      jump\t// in\n    tag_138:\n      swap1\n      dup2\n      mstore\n      0x20\n      add\n      mload(0x40)\n      dup1\n      swap2\n      sub\n      swap1\n      keccak256\n        /* \"src/voting.sol\":1888:1929  VotingPoll storage VP = votingPoll[_name] */\n      swap1\n      pop\n        /* \"src/voting.sol\":1968:1969  0 */\n      0x00\n        /* \"src/voting.sol\":1945:1970  VP.chairman != address(0) */\n      0xffffffffffffffffffffffffffffffffffffffff\n      and\n        /* \"src/voting.sol\":1945:1947  VP */\n      dup2\n        /* \"src/voting.sol\":1945:1956  VP.chairman */\n      0x00\n      add\n      0x00\n      swap1\n      sload\n      swap1\n      0x0100\n      exp\n      swap1\n      div\n      0xffffffffffffffffffffffffffffffffffffffff\n      and\n        /* \"src/voting.sol\":1945:1970  VP.chairman != address(0) */\n      0xffffffffffffffffffffffffffffffffffffffff\n      and\n      eq\n      iszero\n        /* \"src/voting.sol\":1936:1996  require (VP.chairman != address(0) , \"yet to create a poll\") */\n      tag_139\n      jumpi\n      mload(0x40)\n      0x08c379a000000000000000000000000000000000000000000000000000000000\n      dup2\n      mstore\n      0x04\n      add\n      tag_140\n      swap1\n      tag_141\n      jump\t// in\n    tag_140:\n      mload(0x40)\n      dup1\n      swap2\n      sub\n      swap1\n      revert\n    tag_139:\n        /* \"src/voting.sol\":2027:2037  msg.sender */\n      caller\n        /* \"src/voting.sol\":2012:2037  VP.chairman == msg.sender */\n      0xffffffffffffffffffffffffffffffffffffffff\n      and\n        /* \"src/voting.sol\":2012:2014  VP */\n      dup2\n        /* \"src/voting.sol\":2012:2023  VP.chairman */\n      0x00\n      add\n      0x00\n      swap1\n      sload\n      swap1\n      0x0100\n      exp\n      swap1\n      div\n      0xffffffffffffffffffffffffffffffffffffffff\n      and\n        /* \"src/voting.sol\":2012:2037  VP.chairman == msg.sender */\n      0xffffffffffffffffffffffffffffffffffffffff\n      and\n      eq\n        /* \"src/voting.sol\":2005:2038  assert(VP.chairman == msg.sender) */\n      tag_142\n      jumpi\n      tag_143\n      tag_144\n      jump\t// in\n    tag_143:\n    tag_142:\n        /* \"src/voting.sol\":2080:2082  VP */\n      dup1\n        /* \"src/voting.sol\":2080:2100  VP.maxNoOfCandidates */\n      0x02\n      add\n      0x00\n      swap1\n      sload\n      swap1\n      0x0100\n      exp\n      swap1\n      div\n      0xffffffff\n      and\n        /* \"src/voting.sol\":2053:2100  VP.currentNoOfCandidates < VP.maxNoOfCandidates */\n      0xffffffff\n      and\n        /* \"src/voting.sol\":2053:2055  VP */\n      dup2\n        /* \"src/voting.sol\":2053:2077  VP.currentNoOfCandidates */\n      0x02\n      add\n      0x14\n      swap1\n      sload\n      swap1\n      0x0100\n      exp\n      swap1\n      div\n      0xffff\n      and\n        /* \"src/voting.sol\":2053:2100  VP.currentNoOfCandidates < VP.maxNoOfCandidates */\n      0xffff\n      and\n      lt\n        /* \"src/voting.sol\":2045:2151  require(VP.currentNoOfCandidates < VP.maxNoOfCandidates, \"maximum no of candidate per session registered\") */\n      tag_145\n      jumpi\n      mload(0x40)\n      0x08c379a000000000000000000000000000000000000000000000000000000000\n      dup2\n      mstore\n      0x04\n      add\n      tag_146\n      swap1\n      tag_147\n      jump\t// in\n    tag_146:\n      mload(0x40)\n      dup1\n      swap2\n      sub\n      swap1\n      revert\n    tag_145:\n        /* \"src/voting.sol\":2194:2198  true */\n      0x01\n        /* \"src/voting.sol\":2158:2160  VP */\n      dup2\n        /* \"src/voting.sol\":2158:2176  VP.CandidateStatus */\n      0x03\n      add\n        /* \"src/voting.sol\":2158:2191  VP.CandidateStatus[_newCandidate] */\n      0x00\n        /* \"src/voting.sol\":2177:2190  _newCandidate */\n      dup6\n        /* \"src/voting.sol\":2158:2191  VP.CandidateStatus[_newCandidate] */\n      0xffffffffffffffffffffffffffffffffffffffff\n      and\n      0xffffffffffffffffffffffffffffffffffffffff\n      and\n      dup2\n      mstore\n      0x20\n      add\n      swap1\n      dup2\n      mstore\n      0x20\n      add\n      0x00\n      keccak256\n      0x00\n        /* \"src/voting.sol\":2158:2198  VP.CandidateStatus[_newCandidate] = true */\n      0x0100\n      exp\n      dup2\n      sload\n      dup2\n      0xff\n      mul\n      not\n      and\n      swap1\n      dup4\n      iszero\n      iszero\n      mul\n      or\n      swap1\n      sstore\n      pop\n        /* \"src/voting.sol\":2206:2208  VP */\n      dup1\n        /* \"src/voting.sol\":2206:2219  VP.candidates */\n      0x01\n      add\n        /* \"src/voting.sol\":2225:2238  _newCandidate */\n      dup4\n        /* \"src/voting.sol\":2206:2239  VP.candidates.push(_newCandidate) */\n      swap1\n      dup1\n      0x01\n      dup2\n      sload\n      add\n      dup1\n      dup3\n      sstore\n      dup1\n      swap2\n      pop\n      pop\n      0x01\n      swap1\n      sub\n      swap1\n      0x00\n      mstore\n      keccak256(0x00, 0x20)\n      add\n      0x00\n      swap1\n      swap2\n      swap1\n      swap2\n      swap1\n      swap2\n      0x0100\n      exp\n      dup2\n      sload\n      dup2\n      0xffffffffffffffffffffffffffffffffffffffff\n      mul\n      not\n      and\n      swap1\n      dup4\n      0xffffffffffffffffffffffffffffffffffffffff\n      and\n      mul\n      or\n      swap1\n      sstore\n      pop\n        /* \"src/voting.sol\":2247:2249  VP */\n      dup1\n        /* \"src/voting.sol\":2247:2271  VP.currentNoOfCandidates */\n      0x02\n      add\n      0x14\n        /* \"src/voting.sol\":2247:2273  VP.currentNoOfCandidates++ */\n      dup2\n      dup2\n      swap1\n      sload\n      swap1\n      0x0100\n      exp\n      swap1\n      div\n      0xffff\n      and\n      dup1\n      swap3\n      swap2\n      swap1\n      tag_149\n      swap1\n      tag_150\n      jump\t// in\n    tag_149:\n      swap2\n      swap1\n      0x0100\n      exp\n      dup2\n      sload\n      dup2\n      0xffff\n      mul\n      not\n      and\n      swap1\n      dup4\n      0xffff\n      and\n      mul\n      or\n      swap1\n      sstore\n      pop\n      pop\n        /* \"src/voting.sol\":2285:2315  becameCandidate(_newCandidate) */\n      0xc19c59aa93348e8fc54764bc642eca975e2639f44cc683ef8f027e1529cbda32\n        /* \"src/voting.sol\":2301:2314  _newCandidate */\n      dup4\n        /* \"src/voting.sol\":2285:2315  becameCandidate(_newCandidate) */\n      mload(0x40)\n      tag_151\n      swap2\n      swap1\n      tag_152\n      jump\t// in\n    tag_151:\n      mload(0x40)\n      dup1\n      swap2\n      sub\n      swap1\n      log1\n        /* \"src/voting.sol\":1881:2319  {... */\n      pop\n        /* \"src/voting.sol\":1807:2319  function AddCandidate(address _newCandidate, string memory _name) external{... */\n      pop\n      pop\n      jump\t// out\n        /* \"src/voting.sol\":702:749  mapping(string => VotingPoll) public votingPoll */\n    tag_51:\n      0x01\n      dup2\n      dup1\n      mload\n      0x20\n      dup2\n      add\n      dup3\n      add\n      dup1\n      mload\n      dup5\n      dup3\n      mstore\n      0x20\n      dup4\n      add\n      0x20\n      dup6\n      add\n      keccak256\n      dup2\n      dup4\n      mstore\n      dup1\n      swap6\n      pop\n      pop\n      pop\n      pop\n      pop\n      pop\n      0x00\n      swap2\n      pop\n      swap1\n      pop\n      dup1\n      0x00\n      add\n      0x00\n      swap1\n      sload\n      swap1\n      0x0100\n      exp\n      swap1\n      div\n      0xffffffffffffffffffffffffffffffffffffffff\n      and\n      swap1\n      dup1\n      0x02\n      add\n      0x00\n      swap1\n      sload\n      swap1\n      0x0100\n      exp\n      swap1\n      div\n      0xffffffff\n      and\n      swap1\n      dup1\n      0x02\n      add\n      0x04\n      swap1\n      sload\n      swap1\n      0x0100\n      exp\n      swap1\n      div\n      0xffffffffffffffff\n      and\n      swap1\n      dup1\n      0x02\n      add\n      0x0c\n      swap1\n      sload\n      swap1\n      0x0100\n      exp\n      swap1\n      div\n      0xffffffffffffffff\n      and\n      swap1\n      dup1\n      0x02\n      add\n      0x14\n      swap1\n      sload\n      swap1\n      0x0100\n      exp\n      swap1\n      div\n      0xffff\n      and\n      swap1\n      dup1\n      0x02\n      add\n      0x16\n      swap1\n      sload\n      swap1\n      0x0100\n      exp\n      swap1\n      div\n      0xff\n      and\n      swap1\n      pop\n      dup7\n      jump\t// out\n        /* \"src/voting.sol\":755:802  mapping (address => uint256) public replayNonce */\n    tag_58:\n      mstore(0x20, 0x02)\n      dup1\n      0x00\n      mstore\n      keccak256(0x00, 0x40)\n      0x00\n      swap2\n      pop\n      swap1\n      pop\n      sload\n      dup2\n      jump\t// out\n        /* \"src/voting.sol\":4263:4488  function withdawFees(string memory _name) external payable{... */\n    tag_63:\n        /* \"src/voting.sol\":4327:4348  VotingPoll storage VP */\n      0x00\n        /* \"src/voting.sol\":4351:4361  votingPoll */\n      0x01\n        /* \"src/voting.sol\":4362:4367  _name */\n      dup3\n        /* \"src/voting.sol\":4351:4368  votingPoll[_name] */\n      mload(0x40)\n      tag_154\n      swap2\n      swap1\n      tag_90\n      jump\t// in\n    tag_154:\n      swap1\n      dup2\n      mstore\n      0x20\n      add\n      mload(0x40)\n      dup1\n      swap2\n      sub\n      swap1\n      keccak256\n        /* \"src/voting.sol\":4327:4368  VotingPoll storage VP = votingPoll[_name] */\n      swap1\n      pop\n        /* \"src/voting.sol\":4397:4399  VP */\n      dup1\n        /* \"src/voting.sol\":4397:4408  VP.chairman */\n      0x00\n      add\n      0x00\n      swap1\n      sload\n      swap1\n      0x0100\n      exp\n      swap1\n      div\n      0xffffffffffffffffffffffffffffffffffffffff\n      and\n        /* \"src/voting.sol\":4383:4408  msg.sender == VP.chairman */\n      0xffffffffffffffffffffffffffffffffffffffff\n      and\n        /* \"src/voting.sol\":4383:4393  msg.sender */\n      caller\n        /* \"src/voting.sol\":4383:4408  msg.sender == VP.chairman */\n      0xffffffffffffffffffffffffffffffffffffffff\n      and\n      eq\n        /* \"src/voting.sol\":4375:4429  require(msg.sender == VP.chairman, \"not the chairman\") */\n      tag_155\n      jumpi\n      mload(0x40)\n      0x08c379a000000000000000000000000000000000000000000000000000000000\n      dup2\n      mstore\n      0x04\n      add\n      tag_156\n      swap1\n      tag_157\n      jump\t// in\n    tag_156:\n      mload(0x40)\n      dup1\n      swap2\n      sub\n      swap1\n      revert\n    tag_155:\n        /* \"src/voting.sol\":4444:4454  msg.sender */\n      caller\n        /* \"src/voting.sol\":4436:4464  payable(msg.sender).transfer */\n      0xffffffffffffffffffffffffffffffffffffffff\n      and\n        /* \"src/voting.sol\":4436:4484  payable(msg.sender).transfer(VP.amountGenerated) */\n      0x08fc\n        /* \"src/voting.sol\":4465:4467  VP */\n      dup3\n        /* \"src/voting.sol\":4465:4483  VP.amountGenerated */\n      0x02\n      add\n      0x0c\n      swap1\n      sload\n      swap1\n      0x0100\n      exp\n      swap1\n      div\n      0xffffffffffffffff\n      and\n        /* \"src/voting.sol\":4436:4484  payable(msg.sender).transfer(VP.amountGenerated) */\n      0xffffffffffffffff\n      and\n      swap1\n      dup2\n      iszero\n      mul\n      swap1\n      mload(0x40)\n      0x00\n      mload(0x40)\n      dup1\n      dup4\n      sub\n      dup2\n      dup6\n      dup9\n      dup9\n      call\n      swap4\n      pop\n      pop\n      pop\n      pop\n      iszero\n      dup1\n      iszero\n      tag_159\n      jumpi\n      returndatasize\n      0x00\n      dup1\n      returndatacopy\n      revert(0x00, returndatasize)\n    tag_159:\n      pop\n        /* \"src/voting.sol\":4321:4488  {... */\n      pop\n        /* \"src/voting.sol\":4263:4488  function withdawFees(string memory _name) external payable{... */\n      pop\n      jump\t// out\n        /* \"src/voting.sol\":3158:3329  function NoOfRegisteredCandidates( string memory _name) public view returns(uint){... */\n    tag_67:\n        /* \"src/voting.sol\":3234:3238  uint */\n      0x00\n        /* \"src/voting.sol\":3246:3267  VotingPoll storage VP */\n      dup1\n        /* \"src/voting.sol\":3270:3280  votingPoll */\n      0x01\n        /* \"src/voting.sol\":3281:3286  _name */\n      dup4\n        /* \"src/voting.sol\":3270:3287  votingPoll[_name] */\n      mload(0x40)\n      tag_161\n      swap2\n      swap1\n      tag_90\n      jump\t// in\n    tag_161:\n      swap1\n      dup2\n      mstore\n      0x20\n      add\n      mload(0x40)\n      dup1\n      swap2\n      sub\n      swap1\n      keccak256\n        /* \"src/voting.sol\":3246:3287  VotingPoll storage VP = votingPoll[_name] */\n      swap1\n      pop\n        /* \"src/voting.sol\":3301:3303  VP */\n      dup1\n        /* \"src/voting.sol\":3301:3325  VP.currentNoOfCandidates */\n      0x02\n      add\n      0x14\n      swap1\n      sload\n      swap1\n      0x0100\n      exp\n      swap1\n      div\n      0xffff\n      and\n        /* \"src/voting.sol\":3294:3325  return VP.currentNoOfCandidates */\n      0xffff\n      and\n      swap2\n      pop\n      pop\n        /* \"src/voting.sol\":3158:3329  function NoOfRegisteredCandidates( string memory _name) public view returns(uint){... */\n      swap2\n      swap1\n      pop\n      jump\t// out\n        /* \"src/voting.sol\":609:640  VotingPoll[] public listOfPolls */\n    tag_73:\n      0x00\n      dup2\n      dup2\n      sload\n      dup2\n      lt\n      tag_162\n      jumpi\n      0x00\n      dup1\n      revert\n    tag_162:\n      swap1\n      0x00\n      mstore\n      keccak256(0x00, 0x20)\n      swap1\n      0x06\n      mul\n      add\n      0x00\n      swap2\n      pop\n      swap1\n      pop\n      dup1\n      0x00\n      add\n      0x00\n      swap1\n      sload\n      swap1\n      0x0100\n      exp\n      swap1\n      div\n      0xffffffffffffffffffffffffffffffffffffffff\n      and\n      swap1\n      dup1\n      0x02\n      add\n      0x00\n      swap1\n      sload\n      swap1\n      0x0100\n      exp\n      swap1\n      div\n      0xffffffff\n      and\n      swap1\n      dup1\n      0x02\n      add\n      0x04\n      swap1\n      sload\n      swap1\n      0x0100\n      exp\n      swap1\n      div\n      0xffffffffffffffff\n      and\n      swap1\n      dup1\n      0x02\n      add\n      0x0c\n      swap1\n      sload\n      swap1\n      0x0100\n      exp\n      swap1\n      div\n      0xffffffffffffffff\n      and\n      swap1\n      dup1\n      0x02\n      add\n      0x14\n      swap1\n      sload\n      swap1\n      0x0100\n      exp\n      swap1\n      div\n      0xffff\n      and\n      swap1\n      dup1\n      0x02\n      add\n      0x16\n      swap1\n      sload\n      swap1\n      0x0100\n      exp\n      swap1\n      div\n      0xff\n      and\n      swap1\n      pop\n      dup7\n      jump\t// out\n        /* \"src/voting.sol\":3337:3510  function AllCandidates( string memory _name) public view returns(address[] memory _candidates){... */\n    tag_78:\n        /* \"src/voting.sol\":3402:3430  address[] memory _candidates */\n      0x60\n        /* \"src/voting.sol\":3438:3459  VotingPoll storage VP */\n      0x00\n        /* \"src/voting.sol\":3462:3472  votingPoll */\n      0x01\n        /* \"src/voting.sol\":3473:3478  _name */\n      dup4\n        /* \"src/voting.sol\":3462:3479  votingPoll[_name] */\n      mload(0x40)\n      tag_165\n      swap2\n      swap1\n      tag_90\n      jump\t// in\n    tag_165:\n      swap1\n      dup2\n      mstore\n      0x20\n      add\n      mload(0x40)\n      dup1\n      swap2\n      sub\n      swap1\n      keccak256\n        /* \"src/voting.sol\":3438:3479  VotingPoll storage VP = votingPoll[_name] */\n      swap1\n      pop\n        /* \"src/voting.sol\":3493:3495  VP */\n      dup1\n        /* \"src/voting.sol\":3493:3506  VP.candidates */\n      0x01\n      add\n        /* \"src/voting.sol\":3486:3506  return VP.candidates */\n      dup1\n      sload\n      dup1\n      0x20\n      mul\n      0x20\n      add\n      mload(0x40)\n      swap1\n      dup2\n      add\n      0x40\n      mstore\n      dup1\n      swap3\n      swap2\n      swap1\n      dup2\n      dup2\n      mstore\n      0x20\n      add\n      dup3\n      dup1\n      sload\n      dup1\n      iszero\n      tag_166\n      jumpi\n      0x20\n      mul\n      dup3\n      add\n      swap2\n      swap1\n      0x00\n      mstore\n      keccak256(0x00, 0x20)\n      swap1\n    tag_167:\n      dup2\n      0x00\n      swap1\n      sload\n      swap1\n      0x0100\n      exp\n      swap1\n      div\n      0xffffffffffffffffffffffffffffffffffffffff\n      and\n      0xffffffffffffffffffffffffffffffffffffffff\n      and\n      dup2\n      mstore\n      0x20\n      add\n      swap1\n      0x01\n      add\n      swap1\n      dup1\n      dup4\n      gt\n      tag_167\n      jumpi\n    tag_166:\n      pop\n      pop\n      pop\n      pop\n      pop\n      swap2\n      pop\n      pop\n        /* \"src/voting.sol\":3337:3510  function AllCandidates( string memory _name) public view returns(address[] memory _candidates){... */\n      swap2\n      swap1\n      pop\n      jump\t// out\n        /* \"src/voting.sol\":4059:4261  function setVotingState( string memory _name) external {... */\n    tag_84:\n        /* \"src/voting.sol\":4120:4141  VotingPoll storage VP */\n      0x00\n        /* \"src/voting.sol\":4144:4154  votingPoll */\n      0x01\n        /* \"src/voting.sol\":4155:4160  _name */\n      dup3\n        /* \"src/voting.sol\":4144:4161  votingPoll[_name] */\n      mload(0x40)\n      tag_169\n      swap2\n      swap1\n      tag_90\n      jump\t// in\n    tag_169:\n      swap1\n      dup2\n      mstore\n      0x20\n      add\n      mload(0x40)\n      dup1\n      swap2\n      sub\n      swap1\n      keccak256\n        /* \"src/voting.sol\":4120:4161  VotingPoll storage VP = votingPoll[_name] */\n      swap1\n      pop\n        /* \"src/voting.sol\":4190:4200  msg.sender */\n      caller\n        /* \"src/voting.sol\":4175:4200  VP.chairman == msg.sender */\n      0xffffffffffffffffffffffffffffffffffffffff\n      and\n        /* \"src/voting.sol\":4175:4177  VP */\n      dup2\n        /* \"src/voting.sol\":4175:4186  VP.chairman */\n      0x00\n      add\n      0x00\n      swap1\n      sload\n      swap1\n      0x0100\n      exp\n      swap1\n      div\n      0xffffffffffffffffffffffffffffffffffffffff\n      and\n        /* \"src/voting.sol\":4175:4200  VP.chairman == msg.sender */\n      0xffffffffffffffffffffffffffffffffffffffff\n      and\n      eq\n        /* \"src/voting.sol\":4167:4221  require(VP.chairman == msg.sender, \"not the chairman\") */\n      tag_170\n      jumpi\n      mload(0x40)\n      0x08c379a000000000000000000000000000000000000000000000000000000000\n      dup2\n      mstore\n      0x04\n      add\n      tag_171\n      swap1\n      tag_157\n      jump\t// in\n    tag_171:\n      mload(0x40)\n      dup1\n      swap2\n      sub\n      swap1\n      revert\n    tag_170:\n        /* \"src/voting.sol\":4247:4249  VP */\n      dup1\n        /* \"src/voting.sol\":4247:4256  VP.voting */\n      0x02\n      add\n      0x16\n      swap1\n      sload\n      swap1\n      0x0100\n      exp\n      swap1\n      div\n      0xff\n      and\n        /* \"src/voting.sol\":4245:4257  !(VP.voting) */\n      iszero\n        /* \"src/voting.sol\":4233:4235  VP */\n      dup2\n        /* \"src/voting.sol\":4233:4242  VP.voting */\n      0x02\n      add\n      0x16\n        /* \"src/voting.sol\":4233:4257  VP.voting = !(VP.voting) */\n      0x0100\n      exp\n      dup2\n      sload\n      dup2\n      0xff\n      mul\n      not\n      and\n      swap1\n      dup4\n      iszero\n      iszero\n      mul\n      or\n      swap1\n      sstore\n      pop\n        /* \"src/voting.sol\":4114:4261  {... */\n      pop\n        /* \"src/voting.sol\":4059:4261  function setVotingState( string memory _name) external {... */\n      pop\n      jump\t// out\n        /* \"src/voting.sol\":2910:3155  function countVote(address Cand, string memory _name, address signer) internal returns(uint){... */\n    tag_107:\n        /* \"src/voting.sol\":2997:3001  uint */\n      0x00\n        /* \"src/voting.sol\":3009:3030  VotingPoll storage VP */\n      dup1\n        /* \"src/voting.sol\":3033:3043  votingPoll */\n      0x01\n        /* \"src/voting.sol\":3044:3049  _name */\n      dup5\n        /* \"src/voting.sol\":3033:3050  votingPoll[_name] */\n      mload(0x40)\n      tag_173\n      swap2\n      swap1\n      tag_90\n      jump\t// in\n    tag_173:\n      swap1\n      dup2\n      mstore\n      0x20\n      add\n      mload(0x40)\n      dup1\n      swap2\n      sub\n      swap1\n      keccak256\n        /* \"src/voting.sol\":3009:3050  VotingPoll storage VP = votingPoll[_name] */\n      swap1\n      pop\n        /* \"src/voting.sol\":3079:3083  true */\n      0x01\n        /* \"src/voting.sol\":3057:3059  VP */\n      dup2\n        /* \"src/voting.sol\":3057:3068  VP.hasVoted */\n      0x04\n      add\n        /* \"src/voting.sol\":3057:3076  VP.hasVoted[signer] */\n      0x00\n        /* \"src/voting.sol\":3069:3075  signer */\n      dup6\n        /* \"src/voting.sol\":3057:3076  VP.hasVoted[signer] */\n      0xffffffffffffffffffffffffffffffffffffffff\n      and\n      0xffffffffffffffffffffffffffffffffffffffff\n      and\n      dup2\n      mstore\n      0x20\n      add\n      swap1\n      dup2\n      mstore\n      0x20\n      add\n      0x00\n      keccak256\n      0x00\n        /* \"src/voting.sol\":3057:3083  VP.hasVoted[signer] = true */\n      0x0100\n      exp\n      dup2\n      sload\n      dup2\n      0xff\n      mul\n      not\n      and\n      swap1\n      dup4\n      iszero\n      iszero\n      mul\n      or\n      swap1\n      sstore\n      pop\n        /* \"src/voting.sol\":3090:3092  VP */\n      dup1\n        /* \"src/voting.sol\":3090:3106  VP.CandidateVote */\n      0x05\n      add\n        /* \"src/voting.sol\":3090:3112  VP.CandidateVote[Cand] */\n      0x00\n        /* \"src/voting.sol\":3107:3111  Cand */\n      dup7\n        /* \"src/voting.sol\":3090:3112  VP.CandidateVote[Cand] */\n      0xffffffffffffffffffffffffffffffffffffffff\n      and\n      0xffffffffffffffffffffffffffffffffffffffff\n      and\n      dup2\n      mstore\n      0x20\n      add\n      swap1\n      dup2\n      mstore\n      0x20\n      add\n      0x00\n      keccak256\n      0x00\n        /* \"src/voting.sol\":3090:3114  VP.CandidateVote[Cand]++ */\n      dup2\n      sload\n      dup1\n      swap3\n      swap2\n      swap1\n      tag_174\n      swap1\n      tag_136\n      jump\t// in\n    tag_174:\n      swap2\n      swap1\n      pop\n      sstore\n      pop\n        /* \"src/voting.sol\":3128:3130  VP */\n      dup1\n        /* \"src/voting.sol\":3128:3144  VP.CandidateVote */\n      0x05\n      add\n        /* \"src/voting.sol\":3128:3150  VP.CandidateVote[Cand] */\n      0x00\n        /* \"src/voting.sol\":3145:3149  Cand */\n      dup7\n        /* \"src/voting.sol\":3128:3150  VP.CandidateVote[Cand] */\n      0xffffffffffffffffffffffffffffffffffffffff\n      and\n      0xffffffffffffffffffffffffffffffffffffffff\n      and\n      dup2\n      mstore\n      0x20\n      add\n      swap1\n      dup2\n      mstore\n      0x20\n      add\n      0x00\n      keccak256\n      sload\n        /* \"src/voting.sol\":3121:3150  return VP.CandidateVote[Cand] */\n      swap2\n      pop\n      pop\n        /* \"src/voting.sol\":2910:3155  function countVote(address Cand, string memory _name, address signer) internal returns(uint){... */\n      swap4\n      swap3\n      pop\n      pop\n      pop\n      jump\t// out\n        /* \"#utility.yul\":7:82   */\n    tag_175:\n        /* \"#utility.yul\":40:46   */\n      0x00\n        /* \"#utility.yul\":73:75   */\n      0x40\n        /* \"#utility.yul\":67:76   */\n      mload\n        /* \"#utility.yul\":57:76   */\n      swap1\n      pop\n        /* \"#utility.yul\":7:82   */\n      swap1\n      jump\t// out\n        /* \"#utility.yul\":88:205   */\n    tag_176:\n        /* \"#utility.yul\":197:198   */\n      0x00\n        /* \"#utility.yul\":194:195   */\n      dup1\n        /* \"#utility.yul\":187:199   */\n      revert\n        /* \"#utility.yul\":211:328   */\n    tag_177:\n        /* \"#utility.yul\":320:321   */\n      0x00\n        /* \"#utility.yul\":317:318   */\n      dup1\n        /* \"#utility.yul\":310:322   */\n      revert\n        /* \"#utility.yul\":334:460   */\n    tag_178:\n        /* \"#utility.yul\":371:378   */\n      0x00\n        /* \"#utility.yul\":411:453   */\n      0xffffffffffffffffffffffffffffffffffffffff\n        /* \"#utility.yul\":404:409   */\n      dup3\n        /* \"#utility.yul\":400:454   */\n      and\n        /* \"#utility.yul\":389:454   */\n      swap1\n      pop\n        /* \"#utility.yul\":334:460   */\n      swap2\n      swap1\n      pop\n      jump\t// out\n        /* \"#utility.yul\":466:562   */\n    tag_179:\n        /* \"#utility.yul\":503:510   */\n      0x00\n        /* \"#utility.yul\":532:556   */\n      tag_255\n        /* \"#utility.yul\":550:555   */\n      dup3\n        /* \"#utility.yul\":532:556   */\n      tag_178\n      jump\t// in\n    tag_255:\n        /* \"#utility.yul\":521:556   */\n      swap1\n      pop\n        /* \"#utility.yul\":466:562   */\n      swap2\n      swap1\n      pop\n      jump\t// out\n        /* \"#utility.yul\":568:690   */\n    tag_180:\n        /* \"#utility.yul\":641:665   */\n      tag_257\n        /* \"#utility.yul\":659:664   */\n      dup2\n        /* \"#utility.yul\":641:665   */\n      tag_179\n      jump\t// in\n    tag_257:\n        /* \"#utility.yul\":634:639   */\n      dup2\n        /* \"#utility.yul\":631:666   */\n      eq\n        /* \"#utility.yul\":621:684   */\n      tag_258\n      jumpi\n        /* \"#utility.yul\":680:681   */\n      0x00\n        /* \"#utility.yul\":677:678   */\n      dup1\n        /* \"#utility.yul\":670:682   */\n      revert\n        /* \"#utility.yul\":621:684   */\n    tag_258:\n        /* \"#utility.yul\":568:690   */\n      pop\n      jump\t// out\n        /* \"#utility.yul\":696:835   */\n    tag_181:\n        /* \"#utility.yul\":742:747   */\n      0x00\n        /* \"#utility.yul\":780:786   */\n      dup2\n        /* \"#utility.yul\":767:787   */\n      calldataload\n        /* \"#utility.yul\":758:787   */\n      swap1\n      pop\n        /* \"#utility.yul\":796:829   */\n      tag_260\n        /* \"#utility.yul\":823:828   */\n      dup2\n        /* \"#utility.yul\":796:829   */\n      tag_180\n      jump\t// in\n    tag_260:\n        /* \"#utility.yul\":696:835   */\n      swap3\n      swap2\n      pop\n      pop\n      jump\t// out\n        /* \"#utility.yul\":841:958   */\n    tag_182:\n        /* \"#utility.yul\":950:951   */\n      0x00\n        /* \"#utility.yul\":947:948   */\n      dup1\n        /* \"#utility.yul\":940:952   */\n      revert\n        /* \"#utility.yul\":964:1081   */\n    tag_183:\n        /* \"#utility.yul\":1073:1074   */\n      0x00\n        /* \"#utility.yul\":1070:1071   */\n      dup1\n        /* \"#utility.yul\":1063:1075   */\n      revert\n        /* \"#utility.yul\":1087:1189   */\n    tag_184:\n        /* \"#utility.yul\":1128:1134   */\n      0x00\n        /* \"#utility.yul\":1179:1181   */\n      0x1f\n        /* \"#utility.yul\":1175:1182   */\n      not\n        /* \"#utility.yul\":1170:1172   */\n      0x1f\n        /* \"#utility.yul\":1163:1168   */\n      dup4\n        /* \"#utility.yul\":1159:1173   */\n      add\n        /* \"#utility.yul\":1155:1183   */\n      and\n        /* \"#utility.yul\":1145:1183   */\n      swap1\n      pop\n        /* \"#utility.yul\":1087:1189   */\n      swap2\n      swap1\n      pop\n      jump\t// out\n        /* \"#utility.yul\":1195:1375   */\n    tag_114:\n        /* \"#utility.yul\":1243:1320   */\n      0x4e487b7100000000000000000000000000000000000000000000000000000000\n        /* \"#utility.yul\":1240:1241   */\n      0x00\n        /* \"#utility.yul\":1233:1321   */\n      mstore\n        /* \"#utility.yul\":1340:1344   */\n      0x41\n        /* \"#utility.yul\":1337:1338   */\n      0x04\n        /* \"#utility.yul\":1330:1345   */\n      mstore\n        /* \"#utility.yul\":1364:1368   */\n      0x24\n        /* \"#utility.yul\":1361:1362   */\n      0x00\n        /* \"#utility.yul\":1354:1369   */\n      revert\n        /* \"#utility.yul\":1381:1662   */\n    tag_185:\n        /* \"#utility.yul\":1464:1491   */\n      tag_266\n        /* \"#utility.yul\":1486:1490   */\n      dup3\n        /* \"#utility.yul\":1464:1491   */\n      tag_184\n      jump\t// in\n    tag_266:\n        /* \"#utility.yul\":1456:1462   */\n      dup2\n        /* \"#utility.yul\":1452:1492   */\n      add\n        /* \"#utility.yul\":1594:1600   */\n      dup2\n        /* \"#utility.yul\":1582:1592   */\n      dup2\n        /* \"#utility.yul\":1579:1601   */\n      lt\n        /* \"#utility.yul\":1558:1576   */\n      0xffffffffffffffff\n        /* \"#utility.yul\":1546:1556   */\n      dup3\n        /* \"#utility.yul\":1543:1577   */\n      gt\n        /* \"#utility.yul\":1540:1602   */\n      or\n        /* \"#utility.yul\":1537:1625   */\n      iszero\n      tag_267\n      jumpi\n        /* \"#utility.yul\":1605:1623   */\n      tag_268\n      tag_114\n      jump\t// in\n    tag_268:\n        /* \"#utility.yul\":1537:1625   */\n    tag_267:\n        /* \"#utility.yul\":1645:1655   */\n      dup1\n        /* \"#utility.yul\":1641:1643   */\n      0x40\n        /* \"#utility.yul\":1634:1656   */\n      mstore\n        /* \"#utility.yul\":1424:1662   */\n      pop\n        /* \"#utility.yul\":1381:1662   */\n      pop\n      pop\n      jump\t// out\n        /* \"#utility.yul\":1668:1797   */\n    tag_186:\n        /* \"#utility.yul\":1702:1708   */\n      0x00\n        /* \"#utility.yul\":1729:1749   */\n      tag_270\n      tag_175\n      jump\t// in\n    tag_270:\n        /* \"#utility.yul\":1719:1749   */\n      swap1\n      pop\n        /* \"#utility.yul\":1758:1791   */\n      tag_271\n        /* \"#utility.yul\":1786:1790   */\n      dup3\n        /* \"#utility.yul\":1778:1784   */\n      dup3\n        /* \"#utility.yul\":1758:1791   */\n      tag_185\n      jump\t// in\n    tag_271:\n        /* \"#utility.yul\":1668:1797   */\n      swap2\n      swap1\n      pop\n      jump\t// out\n        /* \"#utility.yul\":1803:2111   */\n    tag_187:\n        /* \"#utility.yul\":1865:1869   */\n      0x00\n        /* \"#utility.yul\":1955:1973   */\n      0xffffffffffffffff\n        /* \"#utility.yul\":1947:1953   */\n      dup3\n        /* \"#utility.yul\":1944:1974   */\n      gt\n        /* \"#utility.yul\":1941:1997   */\n      iszero\n      tag_273\n      jumpi\n        /* \"#utility.yul\":1977:1995   */\n      tag_274\n      tag_114\n      jump\t// in\n    tag_274:\n        /* \"#utility.yul\":1941:1997   */\n    tag_273:\n        /* \"#utility.yul\":2015:2044   */\n      tag_275\n        /* \"#utility.yul\":2037:2043   */\n      dup3\n        /* \"#utility.yul\":2015:2044   */\n      tag_184\n      jump\t// in\n    tag_275:\n        /* \"#utility.yul\":2007:2044   */\n      swap1\n      pop\n        /* \"#utility.yul\":2099:2103   */\n      0x20\n        /* \"#utility.yul\":2093:2097   */\n      dup2\n        /* \"#utility.yul\":2089:2104   */\n      add\n        /* \"#utility.yul\":2081:2104   */\n      swap1\n      pop\n        /* \"#utility.yul\":1803:2111   */\n      swap2\n      swap1\n      pop\n      jump\t// out\n        /* \"#utility.yul\":2117:2271   */\n    tag_188:\n        /* \"#utility.yul\":2201:2207   */\n      dup3\n        /* \"#utility.yul\":2196:2199   */\n      dup2\n        /* \"#utility.yul\":2191:2194   */\n      dup4\n        /* \"#utility.yul\":2178:2208   */\n      calldatacopy\n        /* \"#utility.yul\":2263:2264   */\n      0x00\n        /* \"#utility.yul\":2254:2260   */\n      dup4\n        /* \"#utility.yul\":2249:2252   */\n      dup4\n        /* \"#utility.yul\":2245:2261   */\n      add\n        /* \"#utility.yul\":2238:2265   */\n      mstore\n        /* \"#utility.yul\":2117:2271   */\n      pop\n      pop\n      pop\n      jump\t// out\n        /* \"#utility.yul\":2277:2689   */\n    tag_189:\n        /* \"#utility.yul\":2355:2360   */\n      0x00\n        /* \"#utility.yul\":2380:2446   */\n      tag_278\n        /* \"#utility.yul\":2396:2445   */\n      tag_279\n        /* \"#utility.yul\":2438:2444   */\n      dup5\n        /* \"#utility.yul\":2396:2445   */\n      tag_187\n      jump\t// in\n    tag_279:\n        /* \"#utility.yul\":2380:2446   */\n      tag_186\n      jump\t// in\n    tag_278:\n        /* \"#utility.yul\":2371:2446   */\n      swap1\n      pop\n        /* \"#utility.yul\":2469:2475   */\n      dup3\n        /* \"#utility.yul\":2462:2467   */\n      dup2\n        /* \"#utility.yul\":2455:2476   */\n      mstore\n        /* \"#utility.yul\":2507:2511   */\n      0x20\n        /* \"#utility.yul\":2500:2505   */\n      dup2\n        /* \"#utility.yul\":2496:2512   */\n      add\n        /* \"#utility.yul\":2545:2548   */\n      dup5\n        /* \"#utility.yul\":2536:2542   */\n      dup5\n        /* \"#utility.yul\":2531:2534   */\n      dup5\n        /* \"#utility.yul\":2527:2543   */\n      add\n        /* \"#utility.yul\":2524:2549   */\n      gt\n        /* \"#utility.yul\":2521:2633   */\n      iszero\n      tag_280\n      jumpi\n        /* \"#utility.yul\":2552:2631   */\n      tag_281\n      tag_183\n      jump\t// in\n    tag_281:\n        /* \"#utility.yul\":2521:2633   */\n    tag_280:\n        /* \"#utility.yul\":2642:2683   */\n      tag_282\n        /* \"#utility.yul\":2676:2682   */\n      dup5\n        /* \"#utility.yul\":2671:2674   */\n      dup3\n        /* \"#utility.yul\":2666:2669   */\n      dup6\n        /* \"#utility.yul\":2642:2683   */\n      tag_188\n      jump\t// in\n    tag_282:\n        /* \"#utility.yul\":2361:2689   */\n      pop\n        /* \"#utility.yul\":2277:2689   */\n      swap4\n      swap3\n      pop\n      pop\n      pop\n      jump\t// out\n        /* \"#utility.yul\":2709:3049   */\n    tag_190:\n        /* \"#utility.yul\":2765:2770   */\n      0x00\n        /* \"#utility.yul\":2814:2817   */\n      dup3\n        /* \"#utility.yul\":2807:2811   */\n      0x1f\n        /* \"#utility.yul\":2799:2805   */\n      dup4\n        /* \"#utility.yul\":2795:2812   */\n      add\n        /* \"#utility.yul\":2791:2818   */\n      slt\n        /* \"#utility.yul\":2781:2903   */\n      tag_284\n      jumpi\n        /* \"#utility.yul\":2822:2901   */\n      tag_285\n      tag_182\n      jump\t// in\n    tag_285:\n        /* \"#utility.yul\":2781:2903   */\n    tag_284:\n        /* \"#utility.yul\":2939:2945   */\n      dup2\n        /* \"#utility.yul\":2926:2946   */\n      calldataload\n        /* \"#utility.yul\":2964:3043   */\n      tag_286\n        /* \"#utility.yul\":3039:3042   */\n      dup5\n        /* \"#utility.yul\":3031:3037   */\n      dup3\n        /* \"#utility.yul\":3024:3028   */\n      0x20\n        /* \"#utility.yul\":3016:3022   */\n      dup7\n        /* \"#utility.yul\":3012:3029   */\n      add\n        /* \"#utility.yul\":2964:3043   */\n      tag_189\n      jump\t// in\n    tag_286:\n        /* \"#utility.yul\":2955:3043   */\n      swap2\n      pop\n        /* \"#utility.yul\":2771:3049   */\n      pop\n        /* \"#utility.yul\":2709:3049   */\n      swap3\n      swap2\n      pop\n      pop\n      jump\t// out\n        /* \"#utility.yul\":3055:3132   */\n    tag_191:\n        /* \"#utility.yul\":3092:3099   */\n      0x00\n        /* \"#utility.yul\":3121:3126   */\n      dup2\n        /* \"#utility.yul\":3110:3126   */\n      swap1\n      pop\n        /* \"#utility.yul\":3055:3132   */\n      swap2\n      swap1\n      pop\n      jump\t// out\n        /* \"#utility.yul\":3138:3260   */\n    tag_192:\n        /* \"#utility.yul\":3211:3235   */\n      tag_289\n        /* \"#utility.yul\":3229:3234   */\n      dup2\n        /* \"#utility.yul\":3211:3235   */\n      tag_191\n      jump\t// in\n    tag_289:\n        /* \"#utility.yul\":3204:3209   */\n      dup2\n        /* \"#utility.yul\":3201:3236   */\n      eq\n        /* \"#utility.yul\":3191:3254   */\n      tag_290\n      jumpi\n        /* \"#utility.yul\":3250:3251   */\n      0x00\n        /* \"#utility.yul\":3247:3248   */\n      dup1\n        /* \"#utility.yul\":3240:3252   */\n      revert\n        /* \"#utility.yul\":3191:3254   */\n    tag_290:\n        /* \"#utility.yul\":3138:3260   */\n      pop\n      jump\t// out\n        /* \"#utility.yul\":3266:3405   */\n    tag_193:\n        /* \"#utility.yul\":3312:3317   */\n      0x00\n        /* \"#utility.yul\":3350:3356   */\n      dup2\n        /* \"#utility.yul\":3337:3357   */\n      calldataload\n        /* \"#utility.yul\":3328:3357   */\n      swap1\n      pop\n        /* \"#utility.yul\":3366:3399   */\n      tag_292\n        /* \"#utility.yul\":3393:3398   */\n      dup2\n        /* \"#utility.yul\":3366:3399   */\n      tag_192\n      jump\t// in\n    tag_292:\n        /* \"#utility.yul\":3266:3405   */\n      swap3\n      swap2\n      pop\n      pop\n      jump\t// out\n        /* \"#utility.yul\":3411:4356   */\n    tag_21:\n        /* \"#utility.yul\":3507:3513   */\n      0x00\n        /* \"#utility.yul\":3515:3521   */\n      dup1\n        /* \"#utility.yul\":3523:3529   */\n      0x00\n        /* \"#utility.yul\":3531:3537   */\n      dup1\n        /* \"#utility.yul\":3580:3583   */\n      0x80\n        /* \"#utility.yul\":3568:3577   */\n      dup6\n        /* \"#utility.yul\":3559:3566   */\n      dup8\n        /* \"#utility.yul\":3555:3578   */\n      sub\n        /* \"#utility.yul\":3551:3584   */\n      slt\n        /* \"#utility.yul\":3548:3668   */\n      iszero\n      tag_294\n      jumpi\n        /* \"#utility.yul\":3587:3666   */\n      tag_295\n      tag_176\n      jump\t// in\n    tag_295:\n        /* \"#utility.yul\":3548:3668   */\n    tag_294:\n        /* \"#utility.yul\":3707:3708   */\n      0x00\n        /* \"#utility.yul\":3732:3785   */\n      tag_296\n        /* \"#utility.yul\":3777:3784   */\n      dup8\n        /* \"#utility.yul\":3768:3774   */\n      dup3\n        /* \"#utility.yul\":3757:3766   */\n      dup9\n        /* \"#utility.yul\":3753:3775   */\n      add\n        /* \"#utility.yul\":3732:3785   */\n      tag_181\n      jump\t// in\n    tag_296:\n        /* \"#utility.yul\":3722:3785   */\n      swap5\n      pop\n        /* \"#utility.yul\":3678:3795   */\n      pop\n        /* \"#utility.yul\":3862:3864   */\n      0x20\n        /* \"#utility.yul\":3851:3860   */\n      dup6\n        /* \"#utility.yul\":3847:3865   */\n      add\n        /* \"#utility.yul\":3834:3866   */\n      calldataload\n        /* \"#utility.yul\":3893:3911   */\n      0xffffffffffffffff\n        /* \"#utility.yul\":3885:3891   */\n      dup2\n        /* \"#utility.yul\":3882:3912   */\n      gt\n        /* \"#utility.yul\":3879:3996   */\n      iszero\n      tag_297\n      jumpi\n        /* \"#utility.yul\":3915:3994   */\n      tag_298\n      tag_177\n      jump\t// in\n    tag_298:\n        /* \"#utility.yul\":3879:3996   */\n    tag_297:\n        /* \"#utility.yul\":4020:4083   */\n      tag_299\n        /* \"#utility.yul\":4075:4082   */\n      dup8\n        /* \"#utility.yul\":4066:4072   */\n      dup3\n        /* \"#utility.yul\":4055:4064   */\n      dup9\n        /* \"#utility.yul\":4051:4073   */\n      add\n        /* \"#utility.yul\":4020:4083   */\n      tag_190\n      jump\t// in\n    tag_299:\n        /* \"#utility.yul\":4010:4083   */\n      swap4\n      pop\n        /* \"#utility.yul\":3805:4093   */\n      pop\n        /* \"#utility.yul\":4132:4134   */\n      0x40\n        /* \"#utility.yul\":4158:4211   */\n      tag_300\n        /* \"#utility.yul\":4203:4210   */\n      dup8\n        /* \"#utility.yul\":4194:4200   */\n      dup3\n        /* \"#utility.yul\":4183:4192   */\n      dup9\n        /* \"#utility.yul\":4179:4201   */\n      add\n        /* \"#utility.yul\":4158:4211   */\n      tag_193\n      jump\t// in\n    tag_300:\n        /* \"#utility.yul\":4148:4211   */\n      swap3\n      pop\n        /* \"#utility.yul\":4103:4221   */\n      pop\n        /* \"#utility.yul\":4260:4262   */\n      0x60\n        /* \"#utility.yul\":4286:4339   */\n      tag_301\n        /* \"#utility.yul\":4331:4338   */\n      dup8\n        /* \"#utility.yul\":4322:4328   */\n      dup3\n        /* \"#utility.yul\":4311:4320   */\n      dup9\n        /* \"#utility.yul\":4307:4329   */\n      add\n        /* \"#utility.yul\":4286:4339   */\n      tag_193\n      jump\t// in\n    tag_301:\n        /* \"#utility.yul\":4276:4339   */\n      swap2\n      pop\n        /* \"#utility.yul\":4231:4349   */\n      pop\n        /* \"#utility.yul\":3411:4356   */\n      swap3\n      swap6\n      swap2\n      swap5\n      pop\n      swap3\n      pop\n      jump\t// out\n        /* \"#utility.yul\":4362:4439   */\n    tag_194:\n        /* \"#utility.yul\":4399:4406   */\n      0x00\n        /* \"#utility.yul\":4428:4433   */\n      dup2\n        /* \"#utility.yul\":4417:4433   */\n      swap1\n      pop\n        /* \"#utility.yul\":4362:4439   */\n      swap2\n      swap1\n      pop\n      jump\t// out\n        /* \"#utility.yul\":4445:4563   */\n    tag_195:\n        /* \"#utility.yul\":4532:4556   */\n      tag_304\n        /* \"#utility.yul\":4550:4555   */\n      dup2\n        /* \"#utility.yul\":4532:4556   */\n      tag_194\n      jump\t// in\n    tag_304:\n        /* \"#utility.yul\":4527:4530   */\n      dup3\n        /* \"#utility.yul\":4520:4557   */\n      mstore\n        /* \"#utility.yul\":4445:4563   */\n      pop\n      pop\n      jump\t// out\n        /* \"#utility.yul\":4569:4791   */\n    tag_24:\n        /* \"#utility.yul\":4662:4666   */\n      0x00\n        /* \"#utility.yul\":4700:4702   */\n      0x20\n        /* \"#utility.yul\":4689:4698   */\n      dup3\n        /* \"#utility.yul\":4685:4703   */\n      add\n        /* \"#utility.yul\":4677:4703   */\n      swap1\n      pop\n        /* \"#utility.yul\":4713:4784   */\n      tag_306\n        /* \"#utility.yul\":4781:4782   */\n      0x00\n        /* \"#utility.yul\":4770:4779   */\n      dup4\n        /* \"#utility.yul\":4766:4783   */\n      add\n        /* \"#utility.yul\":4757:4763   */\n      dup5\n        /* \"#utility.yul\":4713:4784   */\n      tag_195\n      jump\t// in\n    tag_306:\n        /* \"#utility.yul\":4569:4791   */\n      swap3\n      swap2\n      pop\n      pop\n      jump\t// out\n        /* \"#utility.yul\":4797:4886   */\n    tag_196:\n        /* \"#utility.yul\":4833:4840   */\n      0x00\n        /* \"#utility.yul\":4873:4879   */\n      0xffff\n        /* \"#utility.yul\":4866:4871   */\n      dup3\n        /* \"#utility.yul\":4862:4880   */\n      and\n        /* \"#utility.yul\":4851:4880   */\n      swap1\n      pop\n        /* \"#utility.yul\":4797:4886   */\n      swap2\n      swap1\n      pop\n      jump\t// out\n        /* \"#utility.yul\":4892:5012   */\n    tag_197:\n        /* \"#utility.yul\":4964:4987   */\n      tag_309\n        /* \"#utility.yul\":4981:4986   */\n      dup2\n        /* \"#utility.yul\":4964:4987   */\n      tag_196\n      jump\t// in\n    tag_309:\n        /* \"#utility.yul\":4957:4962   */\n      dup2\n        /* \"#utility.yul\":4954:4988   */\n      eq\n        /* \"#utility.yul\":4944:5006   */\n      tag_310\n      jumpi\n        /* \"#utility.yul\":5002:5003   */\n      0x00\n        /* \"#utility.yul\":4999:5000   */\n      dup1\n        /* \"#utility.yul\":4992:5004   */\n      revert\n        /* \"#utility.yul\":4944:5006   */\n    tag_310:\n        /* \"#utility.yul\":4892:5012   */\n      pop\n      jump\t// out\n        /* \"#utility.yul\":5018:5155   */\n    tag_198:\n        /* \"#utility.yul\":5063:5068   */\n      0x00\n        /* \"#utility.yul\":5101:5107   */\n      dup2\n        /* \"#utility.yul\":5088:5108   */\n      calldataload\n        /* \"#utility.yul\":5079:5108   */\n      swap1\n      pop\n        /* \"#utility.yul\":5117:5149   */\n      tag_312\n        /* \"#utility.yul\":5143:5148   */\n      dup2\n        /* \"#utility.yul\":5117:5149   */\n      tag_197\n      jump\t// in\n    tag_312:\n        /* \"#utility.yul\":5018:5155   */\n      swap3\n      swap2\n      pop\n      pop\n      jump\t// out\n        /* \"#utility.yul\":5161:5813   */\n    tag_28:\n        /* \"#utility.yul\":5238:5244   */\n      0x00\n        /* \"#utility.yul\":5246:5252   */\n      dup1\n        /* \"#utility.yul\":5295:5297   */\n      0x40\n        /* \"#utility.yul\":5283:5292   */\n      dup4\n        /* \"#utility.yul\":5274:5281   */\n      dup6\n        /* \"#utility.yul\":5270:5293   */\n      sub\n        /* \"#utility.yul\":5266:5298   */\n      slt\n        /* \"#utility.yul\":5263:5382   */\n      iszero\n      tag_314\n      jumpi\n        /* \"#utility.yul\":5301:5380   */\n      tag_315\n      tag_176\n      jump\t// in\n    tag_315:\n        /* \"#utility.yul\":5263:5382   */\n    tag_314:\n        /* \"#utility.yul\":5449:5450   */\n      0x00\n        /* \"#utility.yul\":5438:5447   */\n      dup4\n        /* \"#utility.yul\":5434:5451   */\n      add\n        /* \"#utility.yul\":5421:5452   */\n      calldataload\n        /* \"#utility.yul\":5479:5497   */\n      0xffffffffffffffff\n        /* \"#utility.yul\":5471:5477   */\n      dup2\n        /* \"#utility.yul\":5468:5498   */\n      gt\n        /* \"#utility.yul\":5465:5582   */\n      iszero\n      tag_316\n      jumpi\n        /* \"#utility.yul\":5501:5580   */\n      tag_317\n      tag_177\n      jump\t// in\n    tag_317:\n        /* \"#utility.yul\":5465:5582   */\n    tag_316:\n        /* \"#utility.yul\":5606:5669   */\n      tag_318\n        /* \"#utility.yul\":5661:5668   */\n      dup6\n        /* \"#utility.yul\":5652:5658   */\n      dup3\n        /* \"#utility.yul\":5641:5650   */\n      dup7\n        /* \"#utility.yul\":5637:5659   */\n      add\n        /* \"#utility.yul\":5606:5669   */\n      tag_190\n      jump\t// in\n    tag_318:\n        /* \"#utility.yul\":5596:5669   */\n      swap3\n      pop\n        /* \"#utility.yul\":5392:5679   */\n      pop\n        /* \"#utility.yul\":5718:5720   */\n      0x20\n        /* \"#utility.yul\":5744:5796   */\n      tag_319\n        /* \"#utility.yul\":5788:5795   */\n      dup6\n        /* \"#utility.yul\":5779:5785   */\n      dup3\n        /* \"#utility.yul\":5768:5777   */\n      dup7\n        /* \"#utility.yul\":5764:5786   */\n      add\n        /* \"#utility.yul\":5744:5796   */\n      tag_198\n      jump\t// in\n    tag_319:\n        /* \"#utility.yul\":5734:5796   */\n      swap2\n      pop\n        /* \"#utility.yul\":5689:5806   */\n      pop\n        /* \"#utility.yul\":5161:5813   */\n      swap3\n      pop\n      swap3\n      swap1\n      pop\n      jump\t// out\n        /* \"#utility.yul\":5819:5918   */\n    tag_199:\n        /* \"#utility.yul\":5871:5877   */\n      0x00\n        /* \"#utility.yul\":5905:5910   */\n      dup2\n        /* \"#utility.yul\":5899:5911   */\n      mload\n        /* \"#utility.yul\":5889:5911   */\n      swap1\n      pop\n        /* \"#utility.yul\":5819:5918   */\n      swap2\n      swap1\n      pop\n      jump\t// out\n        /* \"#utility.yul\":5924:6093   */\n    tag_200:\n        /* \"#utility.yul\":6008:6019   */\n      0x00\n        /* \"#utility.yul\":6042:6048   */\n      dup3\n        /* \"#utility.yul\":6037:6040   */\n      dup3\n        /* \"#utility.yul\":6030:6049   */\n      mstore\n        /* \"#utility.yul\":6082:6086   */\n      0x20\n        /* \"#utility.yul\":6077:6080   */\n      dup3\n        /* \"#utility.yul\":6073:6087   */\n      add\n        /* \"#utility.yul\":6058:6087   */\n      swap1\n      pop\n        /* \"#utility.yul\":5924:6093   */\n      swap3\n      swap2\n      pop\n      pop\n      jump\t// out\n        /* \"#utility.yul\":6099:6406   */\n    tag_201:\n        /* \"#utility.yul\":6167:6168   */\n      0x00\n        /* \"#utility.yul\":6177:6290   */\n    tag_323:\n        /* \"#utility.yul\":6191:6197   */\n      dup4\n        /* \"#utility.yul\":6188:6189   */\n      dup2\n        /* \"#utility.yul\":6185:6198   */\n      lt\n        /* \"#utility.yul\":6177:6290   */\n      iszero\n      tag_325\n      jumpi\n        /* \"#utility.yul\":6276:6277   */\n      dup1\n        /* \"#utility.yul\":6271:6274   */\n      dup3\n        /* \"#utility.yul\":6267:6278   */\n      add\n        /* \"#utility.yul\":6261:6279   */\n      mload\n        /* \"#utility.yul\":6257:6258   */\n      dup2\n        /* \"#utility.yul\":6252:6255   */\n      dup5\n        /* \"#utility.yul\":6248:6259   */\n      add\n        /* \"#utility.yul\":6241:6280   */\n      mstore\n        /* \"#utility.yul\":6213:6215   */\n      0x20\n        /* \"#utility.yul\":6210:6211   */\n      dup2\n        /* \"#utility.yul\":6206:6216   */\n      add\n        /* \"#utility.yul\":6201:6216   */\n      swap1\n      pop\n        /* \"#utility.yul\":6177:6290   */\n      jump(tag_323)\n    tag_325:\n        /* \"#utility.yul\":6308:6314   */\n      dup4\n        /* \"#utility.yul\":6305:6306   */\n      dup2\n        /* \"#utility.yul\":6302:6315   */\n      gt\n        /* \"#utility.yul\":6299:6400   */\n      iszero\n      tag_326\n      jumpi\n        /* \"#utility.yul\":6388:6389   */\n      0x00\n        /* \"#utility.yul\":6379:6385   */\n      dup5\n        /* \"#utility.yul\":6374:6377   */\n      dup5\n        /* \"#utility.yul\":6370:6386   */\n      add\n        /* \"#utility.yul\":6363:6390   */\n      mstore\n        /* \"#utility.yul\":6299:6400   */\n    tag_326:\n        /* \"#utility.yul\":6148:6406   */\n      pop\n        /* \"#utility.yul\":6099:6406   */\n      pop\n      pop\n      pop\n      jump\t// out\n        /* \"#utility.yul\":6412:6776   */\n    tag_202:\n        /* \"#utility.yul\":6500:6503   */\n      0x00\n        /* \"#utility.yul\":6528:6567   */\n      tag_328\n        /* \"#utility.yul\":6561:6566   */\n      dup3\n        /* \"#utility.yul\":6528:6567   */\n      tag_199\n      jump\t// in\n    tag_328:\n        /* \"#utility.yul\":6583:6654   */\n      tag_329\n        /* \"#utility.yul\":6647:6653   */\n      dup2\n        /* \"#utility.yul\":6642:6645   */\n      dup6\n        /* \"#utility.yul\":6583:6654   */\n      tag_200\n      jump\t// in\n    tag_329:\n        /* \"#utility.yul\":6576:6654   */\n      swap4\n      pop\n        /* \"#utility.yul\":6663:6715   */\n      tag_330\n        /* \"#utility.yul\":6708:6714   */\n      dup2\n        /* \"#utility.yul\":6703:6706   */\n      dup6\n        /* \"#utility.yul\":6696:6700   */\n      0x20\n        /* \"#utility.yul\":6689:6694   */\n      dup7\n        /* \"#utility.yul\":6685:6701   */\n      add\n        /* \"#utility.yul\":6663:6715   */\n      tag_201\n      jump\t// in\n    tag_330:\n        /* \"#utility.yul\":6740:6769   */\n      tag_331\n        /* \"#utility.yul\":6762:6768   */\n      dup2\n        /* \"#utility.yul\":6740:6769   */\n      tag_184\n      jump\t// in\n    tag_331:\n        /* \"#utility.yul\":6735:6738   */\n      dup5\n        /* \"#utility.yul\":6731:6770   */\n      add\n        /* \"#utility.yul\":6724:6770   */\n      swap2\n      pop\n        /* \"#utility.yul\":6504:6776   */\n      pop\n        /* \"#utility.yul\":6412:6776   */\n      swap3\n      swap2\n      pop\n      pop\n      jump\t// out\n        /* \"#utility.yul\":6782:6900   */\n    tag_203:\n        /* \"#utility.yul\":6869:6893   */\n      tag_333\n        /* \"#utility.yul\":6887:6892   */\n      dup2\n        /* \"#utility.yul\":6869:6893   */\n      tag_191\n      jump\t// in\n    tag_333:\n        /* \"#utility.yul\":6864:6867   */\n      dup3\n        /* \"#utility.yul\":6857:6894   */\n      mstore\n        /* \"#utility.yul\":6782:6900   */\n      pop\n      pop\n      jump\t// out\n        /* \"#utility.yul\":6906:7329   */\n    tag_31:\n        /* \"#utility.yul\":7047:7051   */\n      0x00\n        /* \"#utility.yul\":7085:7087   */\n      0x40\n        /* \"#utility.yul\":7074:7083   */\n      dup3\n        /* \"#utility.yul\":7070:7088   */\n      add\n        /* \"#utility.yul\":7062:7088   */\n      swap1\n      pop\n        /* \"#utility.yul\":7134:7143   */\n      dup2\n        /* \"#utility.yul\":7128:7132   */\n      dup2\n        /* \"#utility.yul\":7124:7144   */\n      sub\n        /* \"#utility.yul\":7120:7121   */\n      0x00\n        /* \"#utility.yul\":7109:7118   */\n      dup4\n        /* \"#utility.yul\":7105:7122   */\n      add\n        /* \"#utility.yul\":7098:7145   */\n      mstore\n        /* \"#utility.yul\":7162:7240   */\n      tag_335\n        /* \"#utility.yul\":7235:7239   */\n      dup2\n        /* \"#utility.yul\":7226:7232   */\n      dup6\n        /* \"#utility.yul\":7162:7240   */\n      tag_202\n      jump\t// in\n    tag_335:\n        /* \"#utility.yul\":7154:7240   */\n      swap1\n      pop\n        /* \"#utility.yul\":7250:7322   */\n      tag_336\n        /* \"#utility.yul\":7318:7320   */\n      0x20\n        /* \"#utility.yul\":7307:7316   */\n      dup4\n        /* \"#utility.yul\":7303:7321   */\n      add\n        /* \"#utility.yul\":7294:7300   */\n      dup5\n        /* \"#utility.yul\":7250:7322   */\n      tag_203\n      jump\t// in\n    tag_336:\n        /* \"#utility.yul\":6906:7329   */\n      swap4\n      swap3\n      pop\n      pop\n      pop\n      jump\t// out\n        /* \"#utility.yul\":7335:7989   */\n    tag_35:\n        /* \"#utility.yul\":7413:7419   */\n      0x00\n        /* \"#utility.yul\":7421:7427   */\n      dup1\n        /* \"#utility.yul\":7470:7472   */\n      0x40\n        /* \"#utility.yul\":7458:7467   */\n      dup4\n        /* \"#utility.yul\":7449:7456   */\n      dup6\n        /* \"#utility.yul\":7445:7468   */\n      sub\n        /* \"#utility.yul\":7441:7473   */\n      slt\n        /* \"#utility.yul\":7438:7557   */\n      iszero\n      tag_338\n      jumpi\n        /* \"#utility.yul\":7476:7555   */\n      tag_339\n      tag_176\n      jump\t// in\n    tag_339:\n        /* \"#utility.yul\":7438:7557   */\n    tag_338:\n        /* \"#utility.yul\":7596:7597   */\n      0x00\n        /* \"#utility.yul\":7621:7674   */\n      tag_340\n        /* \"#utility.yul\":7666:7673   */\n      dup6\n        /* \"#utility.yul\":7657:7663   */\n      dup3\n        /* \"#utility.yul\":7646:7655   */\n      dup7\n        /* \"#utility.yul\":7642:7664   */\n      add\n        /* \"#utility.yul\":7621:7674   */\n      tag_181\n      jump\t// in\n    tag_340:\n        /* \"#utility.yul\":7611:7674   */\n      swap3\n      pop\n        /* \"#utility.yul\":7567:7684   */\n      pop\n        /* \"#utility.yul\":7751:7753   */\n      0x20\n        /* \"#utility.yul\":7740:7749   */\n      dup4\n        /* \"#utility.yul\":7736:7754   */\n      add\n        /* \"#utility.yul\":7723:7755   */\n      calldataload\n        /* \"#utility.yul\":7782:7800   */\n      0xffffffffffffffff\n        /* \"#utility.yul\":7774:7780   */\n      dup2\n        /* \"#utility.yul\":7771:7801   */\n      gt\n        /* \"#utility.yul\":7768:7885   */\n      iszero\n      tag_341\n      jumpi\n        /* \"#utility.yul\":7804:7883   */\n      tag_342\n      tag_177\n      jump\t// in\n    tag_342:\n        /* \"#utility.yul\":7768:7885   */\n    tag_341:\n        /* \"#utility.yul\":7909:7972   */\n      tag_343\n        /* \"#utility.yul\":7964:7971   */\n      dup6\n        /* \"#utility.yul\":7955:7961   */\n      dup3\n        /* \"#utility.yul\":7944:7953   */\n      dup7\n        /* \"#utility.yul\":7940:7962   */\n      add\n        /* \"#utility.yul\":7909:7972   */\n      tag_190\n      jump\t// in\n    tag_343:\n        /* \"#utility.yul\":7899:7972   */\n      swap2\n      pop\n        /* \"#utility.yul\":7694:7982   */\n      pop\n        /* \"#utility.yul\":7335:7989   */\n      swap3\n      pop\n      swap3\n      swap1\n      pop\n      jump\t// out\n        /* \"#utility.yul\":7995:8504   */\n    tag_40:\n        /* \"#utility.yul\":8064:8070   */\n      0x00\n        /* \"#utility.yul\":8113:8115   */\n      0x20\n        /* \"#utility.yul\":8101:8110   */\n      dup3\n        /* \"#utility.yul\":8092:8099   */\n      dup5\n        /* \"#utility.yul\":8088:8111   */\n      sub\n        /* \"#utility.yul\":8084:8116   */\n      slt\n        /* \"#utility.yul\":8081:8200   */\n      iszero\n      tag_345\n      jumpi\n        /* \"#utility.yul\":8119:8198   */\n      tag_346\n      tag_176\n      jump\t// in\n    tag_346:\n        /* \"#utility.yul\":8081:8200   */\n    tag_345:\n        /* \"#utility.yul\":8267:8268   */\n      0x00\n        /* \"#utility.yul\":8256:8265   */\n      dup3\n        /* \"#utility.yul\":8252:8269   */\n      add\n        /* \"#utility.yul\":8239:8270   */\n      calldataload\n        /* \"#utility.yul\":8297:8315   */\n      0xffffffffffffffff\n        /* \"#utility.yul\":8289:8295   */\n      dup2\n        /* \"#utility.yul\":8286:8316   */\n      gt\n        /* \"#utility.yul\":8283:8400   */\n      iszero\n      tag_347\n      jumpi\n        /* \"#utility.yul\":8319:8398   */\n      tag_348\n      tag_177\n      jump\t// in\n    tag_348:\n        /* \"#utility.yul\":8283:8400   */\n    tag_347:\n        /* \"#utility.yul\":8424:8487   */\n      tag_349\n        /* \"#utility.yul\":8479:8486   */\n      dup5\n        /* \"#utility.yul\":8470:8476   */\n      dup3\n        /* \"#utility.yul\":8459:8468   */\n      dup6\n        /* \"#utility.yul\":8455:8477   */\n      add\n        /* \"#utility.yul\":8424:8487   */\n      tag_190\n      jump\t// in\n    tag_349:\n        /* \"#utility.yul\":8414:8487   */\n      swap2\n      pop\n        /* \"#utility.yul\":8210:8497   */\n      pop\n        /* \"#utility.yul\":7995:8504   */\n      swap3\n      swap2\n      pop\n      pop\n      jump\t// out\n        /* \"#utility.yul\":8510:8624   */\n    tag_204:\n        /* \"#utility.yul\":8577:8583   */\n      0x00\n        /* \"#utility.yul\":8611:8616   */\n      dup2\n        /* \"#utility.yul\":8605:8617   */\n      mload\n        /* \"#utility.yul\":8595:8617   */\n      swap1\n      pop\n        /* \"#utility.yul\":8510:8624   */\n      swap2\n      swap1\n      pop\n      jump\t// out\n        /* \"#utility.yul\":8630:8814   */\n    tag_205:\n        /* \"#utility.yul\":8729:8740   */\n      0x00\n        /* \"#utility.yul\":8763:8769   */\n      dup3\n        /* \"#utility.yul\":8758:8761   */\n      dup3\n        /* \"#utility.yul\":8751:8770   */\n      mstore\n        /* \"#utility.yul\":8803:8807   */\n      0x20\n        /* \"#utility.yul\":8798:8801   */\n      dup3\n        /* \"#utility.yul\":8794:8808   */\n      add\n        /* \"#utility.yul\":8779:8808   */\n      swap1\n      pop\n        /* \"#utility.yul\":8630:8814   */\n      swap3\n      swap2\n      pop\n      pop\n      jump\t// out\n        /* \"#utility.yul\":8820:8952   */\n    tag_206:\n        /* \"#utility.yul\":8887:8891   */\n      0x00\n        /* \"#utility.yul\":8910:8913   */\n      dup2\n        /* \"#utility.yul\":8902:8913   */\n      swap1\n      pop\n        /* \"#utility.yul\":8940:8944   */\n      0x20\n        /* \"#utility.yul\":8935:8938   */\n      dup3\n        /* \"#utility.yul\":8931:8945   */\n      add\n        /* \"#utility.yul\":8923:8945   */\n      swap1\n      pop\n        /* \"#utility.yul\":8820:8952   */\n      swap2\n      swap1\n      pop\n      jump\t// out\n        /* \"#utility.yul\":8958:9066   */\n    tag_207:\n        /* \"#utility.yul\":9035:9059   */\n      tag_354\n        /* \"#utility.yul\":9053:9058   */\n      dup2\n        /* \"#utility.yul\":9035:9059   */\n      tag_191\n      jump\t// in\n    tag_354:\n        /* \"#utility.yul\":9030:9033   */\n      dup3\n        /* \"#utility.yul\":9023:9060   */\n      mstore\n        /* \"#utility.yul\":8958:9066   */\n      pop\n      pop\n      jump\t// out\n        /* \"#utility.yul\":9072:9251   */\n    tag_208:\n        /* \"#utility.yul\":9141:9151   */\n      0x00\n        /* \"#utility.yul\":9162:9208   */\n      tag_356\n        /* \"#utility.yul\":9204:9207   */\n      dup4\n        /* \"#utility.yul\":9196:9202   */\n      dup4\n        /* \"#utility.yul\":9162:9208   */\n      tag_207\n      jump\t// in\n    tag_356:\n        /* \"#utility.yul\":9240:9244   */\n      0x20\n        /* \"#utility.yul\":9235:9238   */\n      dup4\n        /* \"#utility.yul\":9231:9245   */\n      add\n        /* \"#utility.yul\":9217:9245   */\n      swap1\n      pop\n        /* \"#utility.yul\":9072:9251   */\n      swap3\n      swap2\n      pop\n      pop\n      jump\t// out\n        /* \"#utility.yul\":9257:9370   */\n    tag_209:\n        /* \"#utility.yul\":9327:9331   */\n      0x00\n        /* \"#utility.yul\":9359:9363   */\n      0x20\n        /* \"#utility.yul\":9354:9357   */\n      dup3\n        /* \"#utility.yul\":9350:9364   */\n      add\n        /* \"#utility.yul\":9342:9364   */\n      swap1\n      pop\n        /* \"#utility.yul\":9257:9370   */\n      swap2\n      swap1\n      pop\n      jump\t// out\n        /* \"#utility.yul\":9406:10138   */\n    tag_210:\n        /* \"#utility.yul\":9525:9528   */\n      0x00\n        /* \"#utility.yul\":9554:9608   */\n      tag_359\n        /* \"#utility.yul\":9602:9607   */\n      dup3\n        /* \"#utility.yul\":9554:9608   */\n      tag_204\n      jump\t// in\n    tag_359:\n        /* \"#utility.yul\":9624:9710   */\n      tag_360\n        /* \"#utility.yul\":9703:9709   */\n      dup2\n        /* \"#utility.yul\":9698:9701   */\n      dup6\n        /* \"#utility.yul\":9624:9710   */\n      tag_205\n      jump\t// in\n    tag_360:\n        /* \"#utility.yul\":9617:9710   */\n      swap4\n      pop\n        /* \"#utility.yul\":9734:9790   */\n      tag_361\n        /* \"#utility.yul\":9784:9789   */\n      dup4\n        /* \"#utility.yul\":9734:9790   */\n      tag_206\n      jump\t// in\n    tag_361:\n        /* \"#utility.yul\":9813:9820   */\n      dup1\n        /* \"#utility.yul\":9844:9845   */\n      0x00\n        /* \"#utility.yul\":9829:10113   */\n    tag_362:\n        /* \"#utility.yul\":9854:9860   */\n      dup4\n        /* \"#utility.yul\":9851:9852   */\n      dup2\n        /* \"#utility.yul\":9848:9861   */\n      lt\n        /* \"#utility.yul\":9829:10113   */\n      iszero\n      tag_364\n      jumpi\n        /* \"#utility.yul\":9930:9936   */\n      dup2\n        /* \"#utility.yul\":9924:9937   */\n      mload\n        /* \"#utility.yul\":9957:10020   */\n      tag_365\n        /* \"#utility.yul\":10016:10019   */\n      dup9\n        /* \"#utility.yul\":10001:10014   */\n      dup3\n        /* \"#utility.yul\":9957:10020   */\n      tag_208\n      jump\t// in\n    tag_365:\n        /* \"#utility.yul\":9950:10020   */\n      swap8\n      pop\n        /* \"#utility.yul\":10043:10103   */\n      tag_366\n        /* \"#utility.yul\":10096:10102   */\n      dup4\n        /* \"#utility.yul\":10043:10103   */\n      tag_209\n      jump\t// in\n    tag_366:\n        /* \"#utility.yul\":10033:10103   */\n      swap3\n      pop\n        /* \"#utility.yul\":9889:10113   */\n      pop\n        /* \"#utility.yul\":9876:9877   */\n      0x01\n        /* \"#utility.yul\":9873:9874   */\n      dup2\n        /* \"#utility.yul\":9869:9878   */\n      add\n        /* \"#utility.yul\":9864:9878   */\n      swap1\n      pop\n        /* \"#utility.yul\":9829:10113   */\n      jump(tag_362)\n    tag_364:\n        /* \"#utility.yul\":9833:9847   */\n      pop\n        /* \"#utility.yul\":10129:10132   */\n      dup6\n        /* \"#utility.yul\":10122:10132   */\n      swap4\n      pop\n        /* \"#utility.yul\":9530:10138   */\n      pop\n      pop\n      pop\n        /* \"#utility.yul\":9406:10138   */\n      swap3\n      swap2\n      pop\n      pop\n      jump\t// out\n        /* \"#utility.yul\":10144:10262   */\n    tag_211:\n        /* \"#utility.yul\":10231:10255   */\n      tag_368\n        /* \"#utility.yul\":10249:10254   */\n      dup2\n        /* \"#utility.yul\":10231:10255   */\n      tag_179\n      jump\t// in\n    tag_368:\n        /* \"#utility.yul\":10226:10229   */\n      dup3\n        /* \"#utility.yul\":10219:10256   */\n      mstore\n        /* \"#utility.yul\":10144:10262   */\n      pop\n      pop\n      jump\t// out\n        /* \"#utility.yul\":10268:10861   */\n    tag_43:\n        /* \"#utility.yul\":10467:10471   */\n      0x00\n        /* \"#utility.yul\":10505:10507   */\n      0x60\n        /* \"#utility.yul\":10494:10503   */\n      dup3\n        /* \"#utility.yul\":10490:10508   */\n      add\n        /* \"#utility.yul\":10482:10508   */\n      swap1\n      pop\n        /* \"#utility.yul\":10554:10563   */\n      dup2\n        /* \"#utility.yul\":10548:10552   */\n      dup2\n        /* \"#utility.yul\":10544:10564   */\n      sub\n        /* \"#utility.yul\":10540:10541   */\n      0x00\n        /* \"#utility.yul\":10529:10538   */\n      dup4\n        /* \"#utility.yul\":10525:10542   */\n      add\n        /* \"#utility.yul\":10518:10565   */\n      mstore\n        /* \"#utility.yul\":10582:10690   */\n      tag_370\n        /* \"#utility.yul\":10685:10689   */\n      dup2\n        /* \"#utility.yul\":10676:10682   */\n      dup7\n        /* \"#utility.yul\":10582:10690   */\n      tag_210\n      jump\t// in\n    tag_370:\n        /* \"#utility.yul\":10574:10690   */\n      swap1\n      pop\n        /* \"#utility.yul\":10700:10772   */\n      tag_371\n        /* \"#utility.yul\":10768:10770   */\n      0x20\n        /* \"#utility.yul\":10757:10766   */\n      dup4\n        /* \"#utility.yul\":10753:10771   */\n      add\n        /* \"#utility.yul\":10744:10750   */\n      dup6\n        /* \"#utility.yul\":10700:10772   */\n      tag_211\n      jump\t// in\n    tag_371:\n        /* \"#utility.yul\":10782:10854   */\n      tag_372\n        /* \"#utility.yul\":10850:10852   */\n      0x40\n        /* \"#utility.yul\":10839:10848   */\n      dup4\n        /* \"#utility.yul\":10835:10853   */\n      add\n        /* \"#utility.yul\":10826:10832   */\n      dup5\n        /* \"#utility.yul\":10782:10854   */\n      tag_203\n      jump\t// in\n    tag_372:\n        /* \"#utility.yul\":10268:10861   */\n      swap5\n      swap4\n      pop\n      pop\n      pop\n      pop\n      jump\t// out\n        /* \"#utility.yul\":10867:10960   */\n    tag_212:\n        /* \"#utility.yul\":10903:10910   */\n      0x00\n        /* \"#utility.yul\":10943:10953   */\n      0xffffffff\n        /* \"#utility.yul\":10936:10941   */\n      dup3\n        /* \"#utility.yul\":10932:10954   */\n      and\n        /* \"#utility.yul\":10921:10954   */\n      swap1\n      pop\n        /* \"#utility.yul\":10867:10960   */\n      swap2\n      swap1\n      pop\n      jump\t// out\n        /* \"#utility.yul\":10966:11081   */\n    tag_213:\n        /* \"#utility.yul\":11051:11074   */\n      tag_375\n        /* \"#utility.yul\":11068:11073   */\n      dup2\n        /* \"#utility.yul\":11051:11074   */\n      tag_212\n      jump\t// in\n    tag_375:\n        /* \"#utility.yul\":11046:11049   */\n      dup3\n        /* \"#utility.yul\":11039:11075   */\n      mstore\n        /* \"#utility.yul\":10966:11081   */\n      pop\n      pop\n      jump\t// out\n        /* \"#utility.yul\":11087:11188   */\n    tag_214:\n        /* \"#utility.yul\":11123:11130   */\n      0x00\n        /* \"#utility.yul\":11163:11181   */\n      0xffffffffffffffff\n        /* \"#utility.yul\":11156:11161   */\n      dup3\n        /* \"#utility.yul\":11152:11182   */\n      and\n        /* \"#utility.yul\":11141:11182   */\n      swap1\n      pop\n        /* \"#utility.yul\":11087:11188   */\n      swap2\n      swap1\n      pop\n      jump\t// out\n        /* \"#utility.yul\":11194:11309   */\n    tag_215:\n        /* \"#utility.yul\":11279:11302   */\n      tag_378\n        /* \"#utility.yul\":11296:11301   */\n      dup2\n        /* \"#utility.yul\":11279:11302   */\n      tag_214\n      jump\t// in\n    tag_378:\n        /* \"#utility.yul\":11274:11277   */\n      dup3\n        /* \"#utility.yul\":11267:11303   */\n      mstore\n        /* \"#utility.yul\":11194:11309   */\n      pop\n      pop\n      jump\t// out\n        /* \"#utility.yul\":11315:11430   */\n    tag_216:\n        /* \"#utility.yul\":11400:11423   */\n      tag_380\n        /* \"#utility.yul\":11417:11422   */\n      dup2\n        /* \"#utility.yul\":11400:11423   */\n      tag_196\n      jump\t// in\n    tag_380:\n        /* \"#utility.yul\":11395:11398   */\n      dup3\n        /* \"#utility.yul\":11388:11424   */\n      mstore\n        /* \"#utility.yul\":11315:11430   */\n      pop\n      pop\n      jump\t// out\n        /* \"#utility.yul\":11436:11526   */\n    tag_217:\n        /* \"#utility.yul\":11470:11477   */\n      0x00\n        /* \"#utility.yul\":11513:11518   */\n      dup2\n        /* \"#utility.yul\":11506:11519   */\n      iszero\n        /* \"#utility.yul\":11499:11520   */\n      iszero\n        /* \"#utility.yul\":11488:11520   */\n      swap1\n      pop\n        /* \"#utility.yul\":11436:11526   */\n      swap2\n      swap1\n      pop\n      jump\t// out\n        /* \"#utility.yul\":11532:11641   */\n    tag_218:\n        /* \"#utility.yul\":11613:11634   */\n      tag_383\n        /* \"#utility.yul\":11628:11633   */\n      dup2\n        /* \"#utility.yul\":11613:11634   */\n      tag_217\n      jump\t// in\n    tag_383:\n        /* \"#utility.yul\":11608:11611   */\n      dup3\n        /* \"#utility.yul\":11601:11635   */\n      mstore\n        /* \"#utility.yul\":11532:11641   */\n      pop\n      pop\n      jump\t// out\n        /* \"#utility.yul\":11647:12394   */\n    tag_53:\n        /* \"#utility.yul\":11866:11870   */\n      0x00\n        /* \"#utility.yul\":11904:11907   */\n      0xc0\n        /* \"#utility.yul\":11893:11902   */\n      dup3\n        /* \"#utility.yul\":11889:11908   */\n      add\n        /* \"#utility.yul\":11881:11908   */\n      swap1\n      pop\n        /* \"#utility.yul\":11918:11989   */\n      tag_385\n        /* \"#utility.yul\":11986:11987   */\n      0x00\n        /* \"#utility.yul\":11975:11984   */\n      dup4\n        /* \"#utility.yul\":11971:11988   */\n      add\n        /* \"#utility.yul\":11962:11968   */\n      dup10\n        /* \"#utility.yul\":11918:11989   */\n      tag_211\n      jump\t// in\n    tag_385:\n        /* \"#utility.yul\":11999:12069   */\n      tag_386\n        /* \"#utility.yul\":12065:12067   */\n      0x20\n        /* \"#utility.yul\":12054:12063   */\n      dup4\n        /* \"#utility.yul\":12050:12068   */\n      add\n        /* \"#utility.yul\":12041:12047   */\n      dup9\n        /* \"#utility.yul\":11999:12069   */\n      tag_213\n      jump\t// in\n    tag_386:\n        /* \"#utility.yul\":12079:12149   */\n      tag_387\n        /* \"#utility.yul\":12145:12147   */\n      0x40\n        /* \"#utility.yul\":12134:12143   */\n      dup4\n        /* \"#utility.yul\":12130:12148   */\n      add\n        /* \"#utility.yul\":12121:12127   */\n      dup8\n        /* \"#utility.yul\":12079:12149   */\n      tag_215\n      jump\t// in\n    tag_387:\n        /* \"#utility.yul\":12159:12229   */\n      tag_388\n        /* \"#utility.yul\":12225:12227   */\n      0x60\n        /* \"#utility.yul\":12214:12223   */\n      dup4\n        /* \"#utility.yul\":12210:12228   */\n      add\n        /* \"#utility.yul\":12201:12207   */\n      dup7\n        /* \"#utility.yul\":12159:12229   */\n      tag_215\n      jump\t// in\n    tag_388:\n        /* \"#utility.yul\":12239:12310   */\n      tag_389\n        /* \"#utility.yul\":12305:12308   */\n      0x80\n        /* \"#utility.yul\":12294:12303   */\n      dup4\n        /* \"#utility.yul\":12290:12309   */\n      add\n        /* \"#utility.yul\":12281:12287   */\n      dup6\n        /* \"#utility.yul\":12239:12310   */\n      tag_216\n      jump\t// in\n    tag_389:\n        /* \"#utility.yul\":12320:12387   */\n      tag_390\n        /* \"#utility.yul\":12382:12385   */\n      0xa0\n        /* \"#utility.yul\":12371:12380   */\n      dup4\n        /* \"#utility.yul\":12367:12386   */\n      add\n        /* \"#utility.yul\":12358:12364   */\n      dup5\n        /* \"#utility.yul\":12320:12387   */\n      tag_218\n      jump\t// in\n    tag_390:\n        /* \"#utility.yul\":11647:12394   */\n      swap8\n      swap7\n      pop\n      pop\n      pop\n      pop\n      pop\n      pop\n      pop\n      jump\t// out\n        /* \"#utility.yul\":12400:12729   */\n    tag_57:\n        /* \"#utility.yul\":12459:12465   */\n      0x00\n        /* \"#utility.yul\":12508:12510   */\n      0x20\n        /* \"#utility.yul\":12496:12505   */\n      dup3\n        /* \"#utility.yul\":12487:12494   */\n      dup5\n        /* \"#utility.yul\":12483:12506   */\n      sub\n        /* \"#utility.yul\":12479:12511   */\n      slt\n        /* \"#utility.yul\":12476:12595   */\n      iszero\n      tag_392\n      jumpi\n        /* \"#utility.yul\":12514:12593   */\n      tag_393\n      tag_176\n      jump\t// in\n    tag_393:\n        /* \"#utility.yul\":12476:12595   */\n    tag_392:\n        /* \"#utility.yul\":12634:12635   */\n      0x00\n        /* \"#utility.yul\":12659:12712   */\n      tag_394\n        /* \"#utility.yul\":12704:12711   */\n      dup5\n        /* \"#utility.yul\":12695:12701   */\n      dup3\n        /* \"#utility.yul\":12684:12693   */\n      dup6\n        /* \"#utility.yul\":12680:12702   */\n      add\n        /* \"#utility.yul\":12659:12712   */\n      tag_181\n      jump\t// in\n    tag_394:\n        /* \"#utility.yul\":12649:12712   */\n      swap2\n      pop\n        /* \"#utility.yul\":12605:12722   */\n      pop\n        /* \"#utility.yul\":12400:12729   */\n      swap3\n      swap2\n      pop\n      pop\n      jump\t// out\n        /* \"#utility.yul\":12735:12957   */\n    tag_60:\n        /* \"#utility.yul\":12828:12832   */\n      0x00\n        /* \"#utility.yul\":12866:12868   */\n      0x20\n        /* \"#utility.yul\":12855:12864   */\n      dup3\n        /* \"#utility.yul\":12851:12869   */\n      add\n        /* \"#utility.yul\":12843:12869   */\n      swap1\n      pop\n        /* \"#utility.yul\":12879:12950   */\n      tag_396\n        /* \"#utility.yul\":12947:12948   */\n      0x00\n        /* \"#utility.yul\":12936:12945   */\n      dup4\n        /* \"#utility.yul\":12932:12949   */\n      add\n        /* \"#utility.yul\":12923:12929   */\n      dup5\n        /* \"#utility.yul\":12879:12950   */\n      tag_203\n      jump\t// in\n    tag_396:\n        /* \"#utility.yul\":12735:12957   */\n      swap3\n      swap2\n      pop\n      pop\n      jump\t// out\n        /* \"#utility.yul\":12963:13292   */\n    tag_72:\n        /* \"#utility.yul\":13022:13028   */\n      0x00\n        /* \"#utility.yul\":13071:13073   */\n      0x20\n        /* \"#utility.yul\":13059:13068   */\n      dup3\n        /* \"#utility.yul\":13050:13057   */\n      dup5\n        /* \"#utility.yul\":13046:13069   */\n      sub\n        /* \"#utility.yul\":13042:13074   */\n      slt\n        /* \"#utility.yul\":13039:13158   */\n      iszero\n      tag_398\n      jumpi\n        /* \"#utility.yul\":13077:13156   */\n      tag_399\n      tag_176\n      jump\t// in\n    tag_399:\n        /* \"#utility.yul\":13039:13158   */\n    tag_398:\n        /* \"#utility.yul\":13197:13198   */\n      0x00\n        /* \"#utility.yul\":13222:13275   */\n      tag_400\n        /* \"#utility.yul\":13267:13274   */\n      dup5\n        /* \"#utility.yul\":13258:13264   */\n      dup3\n        /* \"#utility.yul\":13247:13256   */\n      dup6\n        /* \"#utility.yul\":13243:13265   */\n      add\n        /* \"#utility.yul\":13222:13275   */\n      tag_193\n      jump\t// in\n    tag_400:\n        /* \"#utility.yul\":13212:13275   */\n      swap2\n      pop\n        /* \"#utility.yul\":13168:13285   */\n      pop\n        /* \"#utility.yul\":12963:13292   */\n      swap3\n      swap2\n      pop\n      pop\n      jump\t// out\n        /* \"#utility.yul\":13298:13412   */\n    tag_219:\n        /* \"#utility.yul\":13365:13371   */\n      0x00\n        /* \"#utility.yul\":13399:13404   */\n      dup2\n        /* \"#utility.yul\":13393:13405   */\n      mload\n        /* \"#utility.yul\":13383:13405   */\n      swap1\n      pop\n        /* \"#utility.yul\":13298:13412   */\n      swap2\n      swap1\n      pop\n      jump\t// out\n        /* \"#utility.yul\":13418:13602   */\n    tag_220:\n        /* \"#utility.yul\":13517:13528   */\n      0x00\n        /* \"#utility.yul\":13551:13557   */\n      dup3\n        /* \"#utility.yul\":13546:13549   */\n      dup3\n        /* \"#utility.yul\":13539:13558   */\n      mstore\n        /* \"#utility.yul\":13591:13595   */\n      0x20\n        /* \"#utility.yul\":13586:13589   */\n      dup3\n        /* \"#utility.yul\":13582:13596   */\n      add\n        /* \"#utility.yul\":13567:13596   */\n      swap1\n      pop\n        /* \"#utility.yul\":13418:13602   */\n      swap3\n      swap2\n      pop\n      pop\n      jump\t// out\n        /* \"#utility.yul\":13608:13740   */\n    tag_221:\n        /* \"#utility.yul\":13675:13679   */\n      0x00\n        /* \"#utility.yul\":13698:13701   */\n      dup2\n        /* \"#utility.yul\":13690:13701   */\n      swap1\n      pop\n        /* \"#utility.yul\":13728:13732   */\n      0x20\n        /* \"#utility.yul\":13723:13726   */\n      dup3\n        /* \"#utility.yul\":13719:13733   */\n      add\n        /* \"#utility.yul\":13711:13733   */\n      swap1\n      pop\n        /* \"#utility.yul\":13608:13740   */\n      swap2\n      swap1\n      pop\n      jump\t// out\n        /* \"#utility.yul\":13746:13854   */\n    tag_222:\n        /* \"#utility.yul\":13823:13847   */\n      tag_405\n        /* \"#utility.yul\":13841:13846   */\n      dup2\n        /* \"#utility.yul\":13823:13847   */\n      tag_179\n      jump\t// in\n    tag_405:\n        /* \"#utility.yul\":13818:13821   */\n      dup3\n        /* \"#utility.yul\":13811:13848   */\n      mstore\n        /* \"#utility.yul\":13746:13854   */\n      pop\n      pop\n      jump\t// out\n        /* \"#utility.yul\":13860:14039   */\n    tag_223:\n        /* \"#utility.yul\":13929:13939   */\n      0x00\n        /* \"#utility.yul\":13950:13996   */\n      tag_407\n        /* \"#utility.yul\":13992:13995   */\n      dup4\n        /* \"#utility.yul\":13984:13990   */\n      dup4\n        /* \"#utility.yul\":13950:13996   */\n      tag_222\n      jump\t// in\n    tag_407:\n        /* \"#utility.yul\":14028:14032   */\n      0x20\n        /* \"#utility.yul\":14023:14026   */\n      dup4\n        /* \"#utility.yul\":14019:14033   */\n      add\n        /* \"#utility.yul\":14005:14033   */\n      swap1\n      pop\n        /* \"#utility.yul\":13860:14039   */\n      swap3\n      swap2\n      pop\n      pop\n      jump\t// out\n        /* \"#utility.yul\":14045:14158   */\n    tag_224:\n        /* \"#utility.yul\":14115:14119   */\n      0x00\n        /* \"#utility.yul\":14147:14151   */\n      0x20\n        /* \"#utility.yul\":14142:14145   */\n      dup3\n        /* \"#utility.yul\":14138:14152   */\n      add\n        /* \"#utility.yul\":14130:14152   */\n      swap1\n      pop\n        /* \"#utility.yul\":14045:14158   */\n      swap2\n      swap1\n      pop\n      jump\t// out\n        /* \"#utility.yul\":14194:14926   */\n    tag_225:\n        /* \"#utility.yul\":14313:14316   */\n      0x00\n        /* \"#utility.yul\":14342:14396   */\n      tag_410\n        /* \"#utility.yul\":14390:14395   */\n      dup3\n        /* \"#utility.yul\":14342:14396   */\n      tag_219\n      jump\t// in\n    tag_410:\n        /* \"#utility.yul\":14412:14498   */\n      tag_411\n        /* \"#utility.yul\":14491:14497   */\n      dup2\n        /* \"#utility.yul\":14486:14489   */\n      dup6\n        /* \"#utility.yul\":14412:14498   */\n      tag_220\n      jump\t// in\n    tag_411:\n        /* \"#utility.yul\":14405:14498   */\n      swap4\n      pop\n        /* \"#utility.yul\":14522:14578   */\n      tag_412\n        /* \"#utility.yul\":14572:14577   */\n      dup4\n        /* \"#utility.yul\":14522:14578   */\n      tag_221\n      jump\t// in\n    tag_412:\n        /* \"#utility.yul\":14601:14608   */\n      dup1\n        /* \"#utility.yul\":14632:14633   */\n      0x00\n        /* \"#utility.yul\":14617:14901   */\n    tag_413:\n        /* \"#utility.yul\":14642:14648   */\n      dup4\n        /* \"#utility.yul\":14639:14640   */\n      dup2\n        /* \"#utility.yul\":14636:14649   */\n      lt\n        /* \"#utility.yul\":14617:14901   */\n      iszero\n      tag_415\n      jumpi\n        /* \"#utility.yul\":14718:14724   */\n      dup2\n        /* \"#utility.yul\":14712:14725   */\n      mload\n        /* \"#utility.yul\":14745:14808   */\n      tag_416\n        /* \"#utility.yul\":14804:14807   */\n      dup9\n        /* \"#utility.yul\":14789:14802   */\n      dup3\n        /* \"#utility.yul\":14745:14808   */\n      tag_223\n      jump\t// in\n    tag_416:\n        /* \"#utility.yul\":14738:14808   */\n      swap8\n      pop\n        /* \"#utility.yul\":14831:14891   */\n      tag_417\n        /* \"#utility.yul\":14884:14890   */\n      dup4\n        /* \"#utility.yul\":14831:14891   */\n      tag_224\n      jump\t// in\n    tag_417:\n        /* \"#utility.yul\":14821:14891   */\n      swap3\n      pop\n        /* \"#utility.yul\":14677:14901   */\n      pop\n        /* \"#utility.yul\":14664:14665   */\n      0x01\n        /* \"#utility.yul\":14661:14662   */\n      dup2\n        /* \"#utility.yul\":14657:14666   */\n      add\n        /* \"#utility.yul\":14652:14666   */\n      swap1\n      pop\n        /* \"#utility.yul\":14617:14901   */\n      jump(tag_413)\n    tag_415:\n        /* \"#utility.yul\":14621:14635   */\n      pop\n        /* \"#utility.yul\":14917:14920   */\n      dup6\n        /* \"#utility.yul\":14910:14920   */\n      swap4\n      pop\n        /* \"#utility.yul\":14318:14926   */\n      pop\n      pop\n      pop\n        /* \"#utility.yul\":14194:14926   */\n      swap3\n      swap2\n      pop\n      pop\n      jump\t// out\n        /* \"#utility.yul\":14932:15305   */\n    tag_80:\n        /* \"#utility.yul\":15075:15079   */\n      0x00\n        /* \"#utility.yul\":15113:15115   */\n      0x20\n        /* \"#utility.yul\":15102:15111   */\n      dup3\n        /* \"#utility.yul\":15098:15116   */\n      add\n        /* \"#utility.yul\":15090:15116   */\n      swap1\n      pop\n        /* \"#utility.yul\":15162:15171   */\n      dup2\n        /* \"#utility.yul\":15156:15160   */\n      dup2\n        /* \"#utility.yul\":15152:15172   */\n      sub\n        /* \"#utility.yul\":15148:15149   */\n      0x00\n        /* \"#utility.yul\":15137:15146   */\n      dup4\n        /* \"#utility.yul\":15133:15150   */\n      add\n        /* \"#utility.yul\":15126:15173   */\n      mstore\n        /* \"#utility.yul\":15190:15298   */\n      tag_419\n        /* \"#utility.yul\":15293:15297   */\n      dup2\n        /* \"#utility.yul\":15284:15290   */\n      dup5\n        /* \"#utility.yul\":15190:15298   */\n      tag_225\n      jump\t// in\n    tag_419:\n        /* \"#utility.yul\":15182:15298   */\n      swap1\n      pop\n        /* \"#utility.yul\":14932:15305   */\n      swap3\n      swap2\n      pop\n      pop\n      jump\t// out\n        /* \"#utility.yul\":15311:15405   */\n    tag_226:\n        /* \"#utility.yul\":15344:15352   */\n      0x00\n        /* \"#utility.yul\":15392:15397   */\n      dup2\n        /* \"#utility.yul\":15388:15390   */\n      0x60\n        /* \"#utility.yul\":15384:15398   */\n      shl\n        /* \"#utility.yul\":15363:15398   */\n      swap1\n      pop\n        /* \"#utility.yul\":15311:15405   */\n      swap2\n      swap1\n      pop\n      jump\t// out\n        /* \"#utility.yul\":15411:15505   */\n    tag_227:\n        /* \"#utility.yul\":15450:15457   */\n      0x00\n        /* \"#utility.yul\":15479:15499   */\n      tag_422\n        /* \"#utility.yul\":15493:15498   */\n      dup3\n        /* \"#utility.yul\":15479:15499   */\n      tag_226\n      jump\t// in\n    tag_422:\n        /* \"#utility.yul\":15468:15499   */\n      swap1\n      pop\n        /* \"#utility.yul\":15411:15505   */\n      swap2\n      swap1\n      pop\n      jump\t// out\n        /* \"#utility.yul\":15511:15611   */\n    tag_228:\n        /* \"#utility.yul\":15550:15557   */\n      0x00\n        /* \"#utility.yul\":15579:15605   */\n      tag_424\n        /* \"#utility.yul\":15599:15604   */\n      dup3\n        /* \"#utility.yul\":15579:15605   */\n      tag_227\n      jump\t// in\n    tag_424:\n        /* \"#utility.yul\":15568:15605   */\n      swap1\n      pop\n        /* \"#utility.yul\":15511:15611   */\n      swap2\n      swap1\n      pop\n      jump\t// out\n        /* \"#utility.yul\":15617:15774   */\n    tag_229:\n        /* \"#utility.yul\":15722:15767   */\n      tag_426\n        /* \"#utility.yul\":15742:15766   */\n      tag_427\n        /* \"#utility.yul\":15760:15765   */\n      dup3\n        /* \"#utility.yul\":15742:15766   */\n      tag_179\n      jump\t// in\n    tag_427:\n        /* \"#utility.yul\":15722:15767   */\n      tag_228\n      jump\t// in\n    tag_426:\n        /* \"#utility.yul\":15717:15720   */\n      dup3\n        /* \"#utility.yul\":15710:15768   */\n      mstore\n        /* \"#utility.yul\":15617:15774   */\n      pop\n      pop\n      jump\t// out\n        /* \"#utility.yul\":15780:15928   */\n    tag_230:\n        /* \"#utility.yul\":15882:15893   */\n      0x00\n        /* \"#utility.yul\":15919:15922   */\n      dup2\n        /* \"#utility.yul\":15904:15922   */\n      swap1\n      pop\n        /* \"#utility.yul\":15780:15928   */\n      swap3\n      swap2\n      pop\n      pop\n      jump\t// out\n        /* \"#utility.yul\":15934:16107   */\n    tag_231:\n        /* \"#utility.yul\":16074:16099   */\n      0x6d6574617472616e73616374696f6e20566f74696e6720000000000000000000\n        /* \"#utility.yul\":16070:16071   */\n      0x00\n        /* \"#utility.yul\":16062:16068   */\n      dup3\n        /* \"#utility.yul\":16058:16072   */\n      add\n        /* \"#utility.yul\":16051:16100   */\n      mstore\n        /* \"#utility.yul\":15934:16107   */\n      pop\n      jump\t// out\n        /* \"#utility.yul\":16113:16515   */\n    tag_232:\n        /* \"#utility.yul\":16273:16276   */\n      0x00\n        /* \"#utility.yul\":16294:16379   */\n      tag_431\n        /* \"#utility.yul\":16376:16378   */\n      0x17\n        /* \"#utility.yul\":16371:16374   */\n      dup4\n        /* \"#utility.yul\":16294:16379   */\n      tag_230\n      jump\t// in\n    tag_431:\n        /* \"#utility.yul\":16287:16379   */\n      swap2\n      pop\n        /* \"#utility.yul\":16388:16481   */\n      tag_432\n        /* \"#utility.yul\":16477:16480   */\n      dup3\n        /* \"#utility.yul\":16388:16481   */\n      tag_231\n      jump\t// in\n    tag_432:\n        /* \"#utility.yul\":16506:16508   */\n      0x17\n        /* \"#utility.yul\":16501:16504   */\n      dup3\n        /* \"#utility.yul\":16497:16509   */\n      add\n        /* \"#utility.yul\":16490:16509   */\n      swap1\n      pop\n        /* \"#utility.yul\":16113:16515   */\n      swap2\n      swap1\n      pop\n      jump\t// out\n        /* \"#utility.yul\":16521:16898   */\n    tag_233:\n        /* \"#utility.yul\":16627:16630   */\n      0x00\n        /* \"#utility.yul\":16655:16694   */\n      tag_434\n        /* \"#utility.yul\":16688:16693   */\n      dup3\n        /* \"#utility.yul\":16655:16694   */\n      tag_199\n      jump\t// in\n    tag_434:\n        /* \"#utility.yul\":16710:16799   */\n      tag_435\n        /* \"#utility.yul\":16792:16798   */\n      dup2\n        /* \"#utility.yul\":16787:16790   */\n      dup6\n        /* \"#utility.yul\":16710:16799   */\n      tag_230\n      jump\t// in\n    tag_435:\n        /* \"#utility.yul\":16703:16799   */\n      swap4\n      pop\n        /* \"#utility.yul\":16808:16860   */\n      tag_436\n        /* \"#utility.yul\":16853:16859   */\n      dup2\n        /* \"#utility.yul\":16848:16851   */\n      dup6\n        /* \"#utility.yul\":16841:16845   */\n      0x20\n        /* \"#utility.yul\":16834:16839   */\n      dup7\n        /* \"#utility.yul\":16830:16846   */\n      add\n        /* \"#utility.yul\":16808:16860   */\n      tag_201\n      jump\t// in\n    tag_436:\n        /* \"#utility.yul\":16885:16891   */\n      dup1\n        /* \"#utility.yul\":16880:16883   */\n      dup5\n        /* \"#utility.yul\":16876:16892   */\n      add\n        /* \"#utility.yul\":16869:16892   */\n      swap2\n      pop\n        /* \"#utility.yul\":16631:16898   */\n      pop\n        /* \"#utility.yul\":16521:16898   */\n      swap3\n      swap2\n      pop\n      pop\n      jump\t// out\n        /* \"#utility.yul\":16904:16983   */\n    tag_234:\n        /* \"#utility.yul\":16943:16950   */\n      0x00\n        /* \"#utility.yul\":16972:16977   */\n      dup2\n        /* \"#utility.yul\":16961:16977   */\n      swap1\n      pop\n        /* \"#utility.yul\":16904:16983   */\n      swap2\n      swap1\n      pop\n      jump\t// out\n        /* \"#utility.yul\":16989:17146   */\n    tag_235:\n        /* \"#utility.yul\":17094:17139   */\n      tag_439\n        /* \"#utility.yul\":17114:17138   */\n      tag_440\n        /* \"#utility.yul\":17132:17137   */\n      dup3\n        /* \"#utility.yul\":17114:17138   */\n      tag_191\n      jump\t// in\n    tag_440:\n        /* \"#utility.yul\":17094:17139   */\n      tag_234\n      jump\t// in\n    tag_439:\n        /* \"#utility.yul\":17089:17092   */\n      dup3\n        /* \"#utility.yul\":17082:17140   */\n      mstore\n        /* \"#utility.yul\":16989:17146   */\n      pop\n      pop\n      jump\t// out\n        /* \"#utility.yul\":17152:18257   */\n    tag_87:\n        /* \"#utility.yul\":17497:17500   */\n      0x00\n        /* \"#utility.yul\":17512:17587   */\n      tag_442\n        /* \"#utility.yul\":17583:17586   */\n      dup3\n        /* \"#utility.yul\":17574:17580   */\n      dup9\n        /* \"#utility.yul\":17512:17587   */\n      tag_229\n      jump\t// in\n    tag_442:\n        /* \"#utility.yul\":17612:17614   */\n      0x14\n        /* \"#utility.yul\":17607:17610   */\n      dup3\n        /* \"#utility.yul\":17603:17615   */\n      add\n        /* \"#utility.yul\":17596:17615   */\n      swap2\n      pop\n        /* \"#utility.yul\":17632:17780   */\n      tag_443\n        /* \"#utility.yul\":17776:17779   */\n      dup3\n        /* \"#utility.yul\":17632:17780   */\n      tag_232\n      jump\t// in\n    tag_443:\n        /* \"#utility.yul\":17625:17780   */\n      swap2\n      pop\n        /* \"#utility.yul\":17790:17865   */\n      tag_444\n        /* \"#utility.yul\":17861:17864   */\n      dup3\n        /* \"#utility.yul\":17852:17858   */\n      dup8\n        /* \"#utility.yul\":17790:17865   */\n      tag_229\n      jump\t// in\n    tag_444:\n        /* \"#utility.yul\":17890:17892   */\n      0x14\n        /* \"#utility.yul\":17885:17888   */\n      dup3\n        /* \"#utility.yul\":17881:17893   */\n      add\n        /* \"#utility.yul\":17874:17893   */\n      swap2\n      pop\n        /* \"#utility.yul\":17910:18005   */\n      tag_445\n        /* \"#utility.yul\":18001:18004   */\n      dup3\n        /* \"#utility.yul\":17992:17998   */\n      dup7\n        /* \"#utility.yul\":17910:18005   */\n      tag_233\n      jump\t// in\n    tag_445:\n        /* \"#utility.yul\":17903:18005   */\n      swap2\n      pop\n        /* \"#utility.yul\":18015:18090   */\n      tag_446\n        /* \"#utility.yul\":18086:18089   */\n      dup3\n        /* \"#utility.yul\":18077:18083   */\n      dup6\n        /* \"#utility.yul\":18015:18090   */\n      tag_235\n      jump\t// in\n    tag_446:\n        /* \"#utility.yul\":18115:18117   */\n      0x20\n        /* \"#utility.yul\":18110:18113   */\n      dup3\n        /* \"#utility.yul\":18106:18118   */\n      add\n        /* \"#utility.yul\":18099:18118   */\n      swap2\n      pop\n        /* \"#utility.yul\":18128:18203   */\n      tag_447\n        /* \"#utility.yul\":18199:18202   */\n      dup3\n        /* \"#utility.yul\":18190:18196   */\n      dup5\n        /* \"#utility.yul\":18128:18203   */\n      tag_235\n      jump\t// in\n    tag_447:\n        /* \"#utility.yul\":18228:18230   */\n      0x20\n        /* \"#utility.yul\":18223:18226   */\n      dup3\n        /* \"#utility.yul\":18219:18231   */\n      add\n        /* \"#utility.yul\":18212:18231   */\n      swap2\n      pop\n        /* \"#utility.yul\":18248:18251   */\n      dup2\n        /* \"#utility.yul\":18241:18251   */\n      swap1\n      pop\n        /* \"#utility.yul\":17152:18257   */\n      swap7\n      swap6\n      pop\n      pop\n      pop\n      pop\n      pop\n      pop\n      jump\t// out\n        /* \"#utility.yul\":18263:18538   */\n    tag_90:\n        /* \"#utility.yul\":18395:18398   */\n      0x00\n        /* \"#utility.yul\":18417:18512   */\n      tag_449\n        /* \"#utility.yul\":18508:18511   */\n      dup3\n        /* \"#utility.yul\":18499:18505   */\n      dup5\n        /* \"#utility.yul\":18417:18512   */\n      tag_233\n      jump\t// in\n    tag_449:\n        /* \"#utility.yul\":18410:18512   */\n      swap2\n      pop\n        /* \"#utility.yul\":18529:18532   */\n      dup2\n        /* \"#utility.yul\":18522:18532   */\n      swap1\n      pop\n        /* \"#utility.yul\":18263:18538   */\n      swap3\n      swap2\n      pop\n      pop\n      jump\t// out\n        /* \"#utility.yul\":18544:18773   */\n    tag_236:\n        /* \"#utility.yul\":18684:18718   */\n      0x54686973206164647265737320646f6573206e6f742065786973742061732061\n        /* \"#utility.yul\":18680:18681   */\n      0x00\n        /* \"#utility.yul\":18672:18678   */\n      dup3\n        /* \"#utility.yul\":18668:18682   */\n      add\n        /* \"#utility.yul\":18661:18719   */\n      mstore\n        /* \"#utility.yul\":18753:18765   */\n      0x2063616e64696461746500000000000000000000000000000000000000000000\n        /* \"#utility.yul\":18748:18750   */\n      0x20\n        /* \"#utility.yul\":18740:18746   */\n      dup3\n        /* \"#utility.yul\":18736:18751   */\n      add\n        /* \"#utility.yul\":18729:18766   */\n      mstore\n        /* \"#utility.yul\":18544:18773   */\n      pop\n      jump\t// out\n        /* \"#utility.yul\":18779:19145   */\n    tag_237:\n        /* \"#utility.yul\":18921:18924   */\n      0x00\n        /* \"#utility.yul\":18942:19009   */\n      tag_452\n        /* \"#utility.yul\":19006:19008   */\n      0x2a\n        /* \"#utility.yul\":19001:19004   */\n      dup4\n        /* \"#utility.yul\":18942:19009   */\n      tag_200\n      jump\t// in\n    tag_452:\n        /* \"#utility.yul\":18935:19009   */\n      swap2\n      pop\n        /* \"#utility.yul\":19018:19111   */\n      tag_453\n        /* \"#utility.yul\":19107:19110   */\n      dup3\n        /* \"#utility.yul\":19018:19111   */\n      tag_236\n      jump\t// in\n    tag_453:\n        /* \"#utility.yul\":19136:19138   */\n      0x40\n        /* \"#utility.yul\":19131:19134   */\n      dup3\n        /* \"#utility.yul\":19127:19139   */\n      add\n        /* \"#utility.yul\":19120:19139   */\n      swap1\n      pop\n        /* \"#utility.yul\":18779:19145   */\n      swap2\n      swap1\n      pop\n      jump\t// out\n        /* \"#utility.yul\":19151:19570   */\n    tag_95:\n        /* \"#utility.yul\":19317:19321   */\n      0x00\n        /* \"#utility.yul\":19355:19357   */\n      0x20\n        /* \"#utility.yul\":19344:19353   */\n      dup3\n        /* \"#utility.yul\":19340:19358   */\n      add\n        /* \"#utility.yul\":19332:19358   */\n      swap1\n      pop\n        /* \"#utility.yul\":19404:19413   */\n      dup2\n        /* \"#utility.yul\":19398:19402   */\n      dup2\n        /* \"#utility.yul\":19394:19414   */\n      sub\n        /* \"#utility.yul\":19390:19391   */\n      0x00\n        /* \"#utility.yul\":19379:19388   */\n      dup4\n        /* \"#utility.yul\":19375:19392   */\n      add\n        /* \"#utility.yul\":19368:19415   */\n      mstore\n        /* \"#utility.yul\":19432:19563   */\n      tag_455\n        /* \"#utility.yul\":19558:19562   */\n      dup2\n        /* \"#utility.yul\":19432:19563   */\n      tag_237\n      jump\t// in\n    tag_455:\n        /* \"#utility.yul\":19424:19563   */\n      swap1\n      pop\n        /* \"#utility.yul\":19151:19570   */\n      swap2\n      swap1\n      pop\n      jump\t// out\n        /* \"#utility.yul\":19576:19742   */\n    tag_238:\n        /* \"#utility.yul\":19716:19734   */\n      0x766f74696e672068617320656e64656400000000000000000000000000000000\n        /* \"#utility.yul\":19712:19713   */\n      0x00\n        /* \"#utility.yul\":19704:19710   */\n      dup3\n        /* \"#utility.yul\":19700:19714   */\n      add\n        /* \"#utility.yul\":19693:19735   */\n      mstore\n        /* \"#utility.yul\":19576:19742   */\n      pop\n      jump\t// out\n        /* \"#utility.yul\":19748:20114   */\n    tag_239:\n        /* \"#utility.yul\":19890:19893   */\n      0x00\n        /* \"#utility.yul\":19911:19978   */\n      tag_458\n        /* \"#utility.yul\":19975:19977   */\n      0x10\n        /* \"#utility.yul\":19970:19973   */\n      dup4\n        /* \"#utility.yul\":19911:19978   */\n      tag_200\n      jump\t// in\n    tag_458:\n        /* \"#utility.yul\":19904:19978   */\n      swap2\n      pop\n        /* \"#utility.yul\":19987:20080   */\n      tag_459\n        /* \"#utility.yul\":20076:20079   */\n      dup3\n        /* \"#utility.yul\":19987:20080   */\n      tag_238\n      jump\t// in\n    tag_459:\n        /* \"#utility.yul\":20105:20107   */\n      0x20\n        /* \"#utility.yul\":20100:20103   */\n      dup3\n        /* \"#utility.yul\":20096:20108   */\n      add\n        /* \"#utility.yul\":20089:20108   */\n      swap1\n      pop\n        /* \"#utility.yul\":19748:20114   */\n      swap2\n      swap1\n      pop\n      jump\t// out\n        /* \"#utility.yul\":20120:20539   */\n    tag_100:\n        /* \"#utility.yul\":20286:20290   */\n      0x00\n        /* \"#utility.yul\":20324:20326   */\n      0x20\n        /* \"#utility.yul\":20313:20322   */\n      dup3\n        /* \"#utility.yul\":20309:20327   */\n      add\n        /* \"#utility.yul\":20301:20327   */\n      swap1\n      pop\n        /* \"#utility.yul\":20373:20382   */\n      dup2\n        /* \"#utility.yul\":20367:20371   */\n      dup2\n        /* \"#utility.yul\":20363:20383   */\n      sub\n        /* \"#utility.yul\":20359:20360   */\n      0x00\n        /* \"#utility.yul\":20348:20357   */\n      dup4\n        /* \"#utility.yul\":20344:20361   */\n      add\n        /* \"#utility.yul\":20337:20384   */\n      mstore\n        /* \"#utility.yul\":20401:20532   */\n      tag_461\n        /* \"#utility.yul\":20527:20531   */\n      dup2\n        /* \"#utility.yul\":20401:20532   */\n      tag_239\n      jump\t// in\n    tag_461:\n        /* \"#utility.yul\":20393:20532   */\n      swap1\n      pop\n        /* \"#utility.yul\":20120:20539   */\n      swap2\n      swap1\n      pop\n      jump\t// out\n        /* \"#utility.yul\":20545:20712   */\n    tag_240:\n        /* \"#utility.yul\":20685:20704   */\n      0x596f7520616c726561647920766f746564000000000000000000000000000000\n        /* \"#utility.yul\":20681:20682   */\n      0x00\n        /* \"#utility.yul\":20673:20679   */\n      dup3\n        /* \"#utility.yul\":20669:20683   */\n      add\n        /* \"#utility.yul\":20662:20705   */\n      mstore\n        /* \"#utility.yul\":20545:20712   */\n      pop\n      jump\t// out\n        /* \"#utility.yul\":20718:21084   */\n    tag_241:\n        /* \"#utility.yul\":20860:20863   */\n      0x00\n        /* \"#utility.yul\":20881:20948   */\n      tag_464\n        /* \"#utility.yul\":20945:20947   */\n      0x11\n        /* \"#utility.yul\":20940:20943   */\n      dup4\n        /* \"#utility.yul\":20881:20948   */\n      tag_200\n      jump\t// in\n    tag_464:\n        /* \"#utility.yul\":20874:20948   */\n      swap2\n      pop\n        /* \"#utility.yul\":20957:21050   */\n      tag_465\n        /* \"#utility.yul\":21046:21049   */\n      dup3\n        /* \"#utility.yul\":20957:21050   */\n      tag_240\n      jump\t// in\n    tag_465:\n        /* \"#utility.yul\":21075:21077   */\n      0x20\n        /* \"#utility.yul\":21070:21073   */\n      dup3\n        /* \"#utility.yul\":21066:21078   */\n      add\n        /* \"#utility.yul\":21059:21078   */\n      swap1\n      pop\n        /* \"#utility.yul\":20718:21084   */\n      swap2\n      swap1\n      pop\n      jump\t// out\n        /* \"#utility.yul\":21090:21509   */\n    tag_105:\n        /* \"#utility.yul\":21256:21260   */\n      0x00\n        /* \"#utility.yul\":21294:21296   */\n      0x20\n        /* \"#utility.yul\":21283:21292   */\n      dup3\n        /* \"#utility.yul\":21279:21297   */\n      add\n        /* \"#utility.yul\":21271:21297   */\n      swap1\n      pop\n        /* \"#utility.yul\":21343:21352   */\n      dup2\n        /* \"#utility.yul\":21337:21341   */\n      dup2\n        /* \"#utility.yul\":21333:21353   */\n      sub\n        /* \"#utility.yul\":21329:21330   */\n      0x00\n        /* \"#utility.yul\":21318:21327   */\n      dup4\n        /* \"#utility.yul\":21314:21331   */\n      add\n        /* \"#utility.yul\":21307:21354   */\n      mstore\n        /* \"#utility.yul\":21371:21502   */\n      tag_467\n        /* \"#utility.yul\":21497:21501   */\n      dup2\n        /* \"#utility.yul\":21371:21502   */\n      tag_241\n      jump\t// in\n    tag_467:\n        /* \"#utility.yul\":21363:21502   */\n      swap1\n      pop\n        /* \"#utility.yul\":21090:21509   */\n      swap2\n      swap1\n      pop\n      jump\t// out\n        /* \"#utility.yul\":21515:21835   */\n    tag_109:\n        /* \"#utility.yul\":21630:21634   */\n      0x00\n        /* \"#utility.yul\":21668:21670   */\n      0x40\n        /* \"#utility.yul\":21657:21666   */\n      dup3\n        /* \"#utility.yul\":21653:21671   */\n      add\n        /* \"#utility.yul\":21645:21671   */\n      swap1\n      pop\n        /* \"#utility.yul\":21681:21752   */\n      tag_469\n        /* \"#utility.yul\":21749:21750   */\n      0x00\n        /* \"#utility.yul\":21738:21747   */\n      dup4\n        /* \"#utility.yul\":21734:21751   */\n      add\n        /* \"#utility.yul\":21725:21731   */\n      dup6\n        /* \"#utility.yul\":21681:21752   */\n      tag_211\n      jump\t// in\n    tag_469:\n        /* \"#utility.yul\":21762:21828   */\n      tag_470\n        /* \"#utility.yul\":21824:21826   */\n      0x20\n        /* \"#utility.yul\":21813:21822   */\n      dup4\n        /* \"#utility.yul\":21809:21827   */\n      add\n        /* \"#utility.yul\":21800:21806   */\n      dup5\n        /* \"#utility.yul\":21762:21828   */\n      tag_218\n      jump\t// in\n    tag_470:\n        /* \"#utility.yul\":21515:21835   */\n      swap4\n      swap3\n      pop\n      pop\n      pop\n      jump\t// out\n        /* \"#utility.yul\":21841:22021   */\n    tag_121:\n        /* \"#utility.yul\":21889:21966   */\n      0x4e487b7100000000000000000000000000000000000000000000000000000000\n        /* \"#utility.yul\":21886:21887   */\n      0x00\n        /* \"#utility.yul\":21879:21967   */\n      mstore\n        /* \"#utility.yul\":21986:21990   */\n      0x32\n        /* \"#utility.yul\":21983:21984   */\n      0x04\n        /* \"#utility.yul\":21976:21991   */\n      mstore\n        /* \"#utility.yul\":22010:22014   */\n      0x24\n        /* \"#utility.yul\":22007:22008   */\n      0x00\n        /* \"#utility.yul\":22000:22015   */\n      revert\n        /* \"#utility.yul\":22027:22207   */\n    tag_242:\n        /* \"#utility.yul\":22075:22152   */\n      0x4e487b7100000000000000000000000000000000000000000000000000000000\n        /* \"#utility.yul\":22072:22073   */\n      0x00\n        /* \"#utility.yul\":22065:22153   */\n      mstore\n        /* \"#utility.yul\":22172:22176   */\n      0x11\n        /* \"#utility.yul\":22169:22170   */\n      0x04\n        /* \"#utility.yul\":22162:22177   */\n      mstore\n        /* \"#utility.yul\":22196:22200   */\n      0x24\n        /* \"#utility.yul\":22193:22194   */\n      0x00\n        /* \"#utility.yul\":22186:22201   */\n      revert\n        /* \"#utility.yul\":22213:22446   */\n    tag_136:\n        /* \"#utility.yul\":22252:22255   */\n      0x00\n        /* \"#utility.yul\":22275:22299   */\n      tag_474\n        /* \"#utility.yul\":22293:22298   */\n      dup3\n        /* \"#utility.yul\":22275:22299   */\n      tag_191\n      jump\t// in\n    tag_474:\n        /* \"#utility.yul\":22266:22299   */\n      swap2\n      pop\n        /* \"#utility.yul\":22321:22387   */\n      0xffffffffffffffffffffffffffffffffffffffffffffffffffffffffffffffff\n        /* \"#utility.yul\":22314:22319   */\n      dup3\n        /* \"#utility.yul\":22311:22388   */\n      eq\n        /* \"#utility.yul\":22308:22411   */\n      iszero\n      tag_475\n      jumpi\n        /* \"#utility.yul\":22391:22409   */\n      tag_476\n      tag_242\n      jump\t// in\n    tag_476:\n        /* \"#utility.yul\":22308:22411   */\n    tag_475:\n        /* \"#utility.yul\":22438:22439   */\n      0x01\n        /* \"#utility.yul\":22431:22436   */\n      dup3\n        /* \"#utility.yul\":22427:22440   */\n      add\n        /* \"#utility.yul\":22420:22440   */\n      swap1\n      pop\n        /* \"#utility.yul\":22213:22446   */\n      swap2\n      swap1\n      pop\n      jump\t// out\n        /* \"#utility.yul\":22452:22622   */\n    tag_243:\n        /* \"#utility.yul\":22592:22614   */\n      0x79657420746f20637265617465206120706f6c6c000000000000000000000000\n        /* \"#utility.yul\":22588:22589   */\n      0x00\n        /* \"#utility.yul\":22580:22586   */\n      dup3\n        /* \"#utility.yul\":22576:22590   */\n      add\n        /* \"#utility.yul\":22569:22615   */\n      mstore\n        /* \"#utility.yul\":22452:22622   */\n      pop\n      jump\t// out\n        /* \"#utility.yul\":22628:22994   */\n    tag_244:\n        /* \"#utility.yul\":22770:22773   */\n      0x00\n        /* \"#utility.yul\":22791:22858   */\n      tag_479\n        /* \"#utility.yul\":22855:22857   */\n      0x14\n        /* \"#utility.yul\":22850:22853   */\n      dup4\n        /* \"#utility.yul\":22791:22858   */\n      tag_200\n      jump\t// in\n    tag_479:\n        /* \"#utility.yul\":22784:22858   */\n      swap2\n      pop\n        /* \"#utility.yul\":22867:22960   */\n      tag_480\n        /* \"#utility.yul\":22956:22959   */\n      dup3\n        /* \"#utility.yul\":22867:22960   */\n      tag_243\n      jump\t// in\n    tag_480:\n        /* \"#utility.yul\":22985:22987   */\n      0x20\n        /* \"#utility.yul\":22980:22983   */\n      dup3\n        /* \"#utility.yul\":22976:22988   */\n      add\n        /* \"#utility.yul\":22969:22988   */\n      swap1\n      pop\n        /* \"#utility.yul\":22628:22994   */\n      swap2\n      swap1\n      pop\n      jump\t// out\n        /* \"#utility.yul\":23000:23419   */\n    tag_141:\n        /* \"#utility.yul\":23166:23170   */\n      0x00\n        /* \"#utility.yul\":23204:23206   */\n      0x20\n        /* \"#utility.yul\":23193:23202   */\n      dup3\n        /* \"#utility.yul\":23189:23207   */\n      add\n        /* \"#utility.yul\":23181:23207   */\n      swap1\n      pop\n        /* \"#utility.yul\":23253:23262   */\n      dup2\n        /* \"#utility.yul\":23247:23251   */\n      dup2\n        /* \"#utility.yul\":23243:23263   */\n      sub\n        /* \"#utility.yul\":23239:23240   */\n      0x00\n        /* \"#utility.yul\":23228:23237   */\n      dup4\n        /* \"#utility.yul\":23224:23241   */\n      add\n        /* \"#utility.yul\":23217:23264   */\n      mstore\n        /* \"#utility.yul\":23281:23412   */\n      tag_482\n        /* \"#utility.yul\":23407:23411   */\n      dup2\n        /* \"#utility.yul\":23281:23412   */\n      tag_244\n      jump\t// in\n    tag_482:\n        /* \"#utility.yul\":23273:23412   */\n      swap1\n      pop\n        /* \"#utility.yul\":23000:23419   */\n      swap2\n      swap1\n      pop\n      jump\t// out\n        /* \"#utility.yul\":23425:23605   */\n    tag_144:\n        /* \"#utility.yul\":23473:23550   */\n      0x4e487b7100000000000000000000000000000000000000000000000000000000\n        /* \"#utility.yul\":23470:23471   */\n      0x00\n        /* \"#utility.yul\":23463:23551   */\n      mstore\n        /* \"#utility.yul\":23570:23574   */\n      0x01\n        /* \"#utility.yul\":23567:23568   */\n      0x04\n        /* \"#utility.yul\":23560:23575   */\n      mstore\n        /* \"#utility.yul\":23594:23598   */\n      0x24\n        /* \"#utility.yul\":23591:23592   */\n      0x00\n        /* \"#utility.yul\":23584:23599   */\n      revert\n        /* \"#utility.yul\":23611:23844   */\n    tag_245:\n        /* \"#utility.yul\":23751:23785   */\n      0x6d6178696d756d206e6f206f662063616e646964617465207065722073657373\n        /* \"#utility.yul\":23747:23748   */\n      0x00\n        /* \"#utility.yul\":23739:23745   */\n      dup3\n        /* \"#utility.yul\":23735:23749   */\n      add\n        /* \"#utility.yul\":23728:23786   */\n      mstore\n        /* \"#utility.yul\":23820:23836   */\n      0x696f6e2072656769737465726564000000000000000000000000000000000000\n        /* \"#utility.yul\":23815:23817   */\n      0x20\n        /* \"#utility.yul\":23807:23813   */\n      dup3\n        /* \"#utility.yul\":23803:23818   */\n      add\n        /* \"#utility.yul\":23796:23837   */\n      mstore\n        /* \"#utility.yul\":23611:23844   */\n      pop\n      jump\t// out\n        /* \"#utility.yul\":23850:24216   */\n    tag_246:\n        /* \"#utility.yul\":23992:23995   */\n      0x00\n        /* \"#utility.yul\":24013:24080   */\n      tag_486\n        /* \"#utility.yul\":24077:24079   */\n      0x2e\n        /* \"#utility.yul\":24072:24075   */\n      dup4\n        /* \"#utility.yul\":24013:24080   */\n      tag_200\n      jump\t// in\n    tag_486:\n        /* \"#utility.yul\":24006:24080   */\n      swap2\n      pop\n        /* \"#utility.yul\":24089:24182   */\n      tag_487\n        /* \"#utility.yul\":24178:24181   */\n      dup3\n        /* \"#utility.yul\":24089:24182   */\n      tag_245\n      jump\t// in\n    tag_487:\n        /* \"#utility.yul\":24207:24209   */\n      0x40\n        /* \"#utility.yul\":24202:24205   */\n      dup3\n        /* \"#utility.yul\":24198:24210   */\n      add\n        /* \"#utility.yul\":24191:24210   */\n      swap1\n      pop\n        /* \"#utility.yul\":23850:24216   */\n      swap2\n      swap1\n      pop\n      jump\t// out\n        /* \"#utility.yul\":24222:24641   */\n    tag_147:\n        /* \"#utility.yul\":24388:24392   */\n      0x00\n        /* \"#utility.yul\":24426:24428   */\n      0x20\n        /* \"#utility.yul\":24415:24424   */\n      dup3\n        /* \"#utility.yul\":24411:24429   */\n      add\n        /* \"#utility.yul\":24403:24429   */\n      swap1\n      pop\n        /* \"#utility.yul\":24475:24484   */\n      dup2\n        /* \"#utility.yul\":24469:24473   */\n      dup2\n        /* \"#utility.yul\":24465:24485   */\n      sub\n        /* \"#utility.yul\":24461:24462   */\n      0x00\n        /* \"#utility.yul\":24450:24459   */\n      dup4\n        /* \"#utility.yul\":24446:24463   */\n      add\n        /* \"#utility.yul\":24439:24486   */\n      mstore\n        /* \"#utility.yul\":24503:24634   */\n      tag_489\n        /* \"#utility.yul\":24629:24633   */\n      dup2\n        /* \"#utility.yul\":24503:24634   */\n      tag_246\n      jump\t// in\n    tag_489:\n        /* \"#utility.yul\":24495:24634   */\n      swap1\n      pop\n        /* \"#utility.yul\":24222:24641   */\n      swap2\n      swap1\n      pop\n      jump\t// out\n        /* \"#utility.yul\":24647:24818   */\n    tag_150:\n        /* \"#utility.yul\":24685:24688   */\n      0x00\n        /* \"#utility.yul\":24708:24731   */\n      tag_491\n        /* \"#utility.yul\":24725:24730   */\n      dup3\n        /* \"#utility.yul\":24708:24731   */\n      tag_196\n      jump\t// in\n    tag_491:\n        /* \"#utility.yul\":24699:24731   */\n      swap2\n      pop\n        /* \"#utility.yul\":24753:24759   */\n      0xffff\n        /* \"#utility.yul\":24746:24751   */\n      dup3\n        /* \"#utility.yul\":24743:24760   */\n      eq\n        /* \"#utility.yul\":24740:24783   */\n      iszero\n      tag_492\n      jumpi\n        /* \"#utility.yul\":24763:24781   */\n      tag_493\n      tag_242\n      jump\t// in\n    tag_493:\n        /* \"#utility.yul\":24740:24783   */\n    tag_492:\n        /* \"#utility.yul\":24810:24811   */\n      0x01\n        /* \"#utility.yul\":24803:24808   */\n      dup3\n        /* \"#utility.yul\":24799:24812   */\n      add\n        /* \"#utility.yul\":24792:24812   */\n      swap1\n      pop\n        /* \"#utility.yul\":24647:24818   */\n      swap2\n      swap1\n      pop\n      jump\t// out\n        /* \"#utility.yul\":24824:25046   */\n    tag_152:\n        /* \"#utility.yul\":24917:24921   */\n      0x00\n        /* \"#utility.yul\":24955:24957   */\n      0x20\n        /* \"#utility.yul\":24944:24953   */\n      dup3\n        /* \"#utility.yul\":24940:24958   */\n      add\n        /* \"#utility.yul\":24932:24958   */\n      swap1\n      pop\n        /* \"#utility.yul\":24968:25039   */\n      tag_495\n        /* \"#utility.yul\":25036:25037   */\n      0x00\n        /* \"#utility.yul\":25025:25034   */\n      dup4\n        /* \"#utility.yul\":25021:25038   */\n      add\n        /* \"#utility.yul\":25012:25018   */\n      dup5\n        /* \"#utility.yul\":24968:25039   */\n      tag_211\n      jump\t// in\n    tag_495:\n        /* \"#utility.yul\":24824:25046   */\n      swap3\n      swap2\n      pop\n      pop\n      jump\t// out\n        /* \"#utility.yul\":25052:25218   */\n    tag_247:\n        /* \"#utility.yul\":25192:25210   */\n      0x6e6f74207468652063686169726d616e00000000000000000000000000000000\n        /* \"#utility.yul\":25188:25189   */\n      0x00\n        /* \"#utility.yul\":25180:25186   */\n      dup3\n        /* \"#utility.yul\":25176:25190   */\n      add\n        /* \"#utility.yul\":25169:25211   */\n      mstore\n        /* \"#utility.yul\":25052:25218   */\n      pop\n      jump\t// out\n        /* \"#utility.yul\":25224:25590   */\n    tag_248:\n        /* \"#utility.yul\":25366:25369   */\n      0x00\n        /* \"#utility.yul\":25387:25454   */\n      tag_498\n        /* \"#utility.yul\":25451:25453   */\n      0x10\n        /* \"#utility.yul\":25446:25449   */\n      dup4\n        /* \"#utility.yul\":25387:25454   */\n      tag_200\n      jump\t// in\n    tag_498:\n        /* \"#utility.yul\":25380:25454   */\n      swap2\n      pop\n        /* \"#utility.yul\":25463:25556   */\n      tag_499\n        /* \"#utility.yul\":25552:25555   */\n      dup3\n        /* \"#utility.yul\":25463:25556   */\n      tag_247\n      jump\t// in\n    tag_499:\n        /* \"#utility.yul\":25581:25583   */\n      0x20\n        /* \"#utility.yul\":25576:25579   */\n      dup3\n        /* \"#utility.yul\":25572:25584   */\n      add\n        /* \"#utility.yul\":25565:25584   */\n      swap1\n      pop\n        /* \"#utility.yul\":25224:25590   */\n      swap2\n      swap1\n      pop\n      jump\t// out\n        /* \"#utility.yul\":25596:26015   */\n    tag_157:\n        /* \"#utility.yul\":25762:25766   */\n      0x00\n        /* \"#utility.yul\":25800:25802   */\n      0x20\n        /* \"#utility.yul\":25789:25798   */\n      dup3\n        /* \"#utility.yul\":25785:25803   */\n      add\n        /* \"#utility.yul\":25777:25803   */\n      swap1\n      pop\n        /* \"#utility.yul\":25849:25858   */\n      dup2\n        /* \"#utility.yul\":25843:25847   */\n      dup2\n        /* \"#utility.yul\":25839:25859   */\n      sub\n        /* \"#utility.yul\":25835:25836   */\n      0x00\n        /* \"#utility.yul\":25824:25833   */\n      dup4\n        /* \"#utility.yul\":25820:25837   */\n      add\n        /* \"#utility.yul\":25813:25860   */\n      mstore\n        /* \"#utility.yul\":25877:26008   */\n      tag_501\n        /* \"#utility.yul\":26003:26007   */\n      dup2\n        /* \"#utility.yul\":25877:26008   */\n      tag_248\n      jump\t// in\n    tag_501:\n        /* \"#utility.yul\":25869:26008   */\n      swap1\n      pop\n        /* \"#utility.yul\":25596:26015   */\n      swap2\n      swap1\n      pop\n      jump\t// out\n\n    auxdata: 0xa26469706673582212208e9dba65eb6cc8eb427ce5663b8687104e0ae3ad698895856340d464502d5ea764736f6c634300080a0033\n}\n",
				"bytecode": {
					"linkReferences": {},
					"object": "608060405234801561001057600080fd5b50611f08806100206000396000f3fe6080604052600436106100ab5760003560e01c806367d407df1161006457806367d407df1461020557806382e305ab146102425780638579cacd1461025e578063a886e61b1461029b578063af7cbc0d146102dd578063f0e4de221461031a576100b2565b806301ff993b146100b75780630968d4b1146100f45780631bf533a4146101325780634fcf1f391461015b57806357f539671461019a57806363ee965a146101c3576100b2565b366100b257005b600080fd5b3480156100c357600080fd5b506100de60048036038101906100d99190611365565b610343565b6040516100eb9190611401565b60405180910390f35b34801561010057600080fd5b5061011b60048036038101906101169190611456565b61037e565b604051610129929190611549565b60405180910390f35b34801561013e57600080fd5b5061015960048036038101906101549190611579565b610422565b005b34801561016757600080fd5b50610182600480360381019061017d91906115d5565b61065d565b604051610191939291906116eb565b60405180910390f35b3480156101a657600080fd5b506101c160048036038101906101bc9190611579565b6108fd565b005b3480156101cf57600080fd5b506101ea60048036038101906101e591906115d5565b610bbd565b6040516101fc96959493929190611795565b60405180910390f35b34801561021157600080fd5b5061022c600480360381019061022791906117f6565b610c82565b6040516102399190611823565b60405180910390f35b61025c600480360381019061025791906115d5565b610c9a565b005b34801561026a57600080fd5b50610285600480360381019061028091906115d5565b610dbb565b6040516102929190611823565b60405180910390f35b3480156102a757600080fd5b506102c260048036038101906102bd919061183e565b610dfd565b6040516102d496959493929190611795565b60405180910390f35b3480156102e957600080fd5b5061030460048036038101906102ff91906115d5565b610ebc565b6040516103119190611929565b60405180910390f35b34801561032657600080fd5b50610341600480360381019061033c91906115d5565b610f71565b005b6000308585858560405160200161035e959493929190611a3c565b604051602081830303815290604052805190602001209050949350505050565b60606000806001856040516103939190611aa2565b90815260200160405180910390209050338160000160006101000a81548173ffffffffffffffffffffffffffffffffffffffff021916908373ffffffffffffffffffffffffffffffffffffffff1602179055508361ffff168160020160006101000a81548163ffffffff021916908363ffffffff16021790555084848061ffff16905092509250509250929050565b818160006001826040516104369190611aa2565b90815260200160405180910390209050600115158160030160008573ffffffffffffffffffffffffffffffffffffffff1673ffffffffffffffffffffffffffffffffffffffff16815260200190815260200160002060009054906101000a900460ff161515146104db576040517f08c379a00000000000000000000000000000000000000000000000000000000081526004016104d290611b2b565b60405180910390fd5b8360006001826040516104ee9190611aa2565b90815260200160405180910390209050600115158160020160169054906101000a900460ff16151514610556576040517f08c379a000000000000000000000000000000000000000000000000000000000815260040161054d90611b97565b60405180910390fd5b60006001876040516105689190611aa2565b90815260200160405180910390209050600015158160040160003373ffffffffffffffffffffffffffffffffffffffff1673ffffffffffffffffffffffffffffffffffffffff16815260200190815260200160002060009054906101000a900460ff1615151461060d576040517f08c379a000000000000000000000000000000000000000000000000000000000815260040161060490611c03565b60405180910390fd5b610618888833611057565b507ff3f16a15f074b71c5138107dfc7c63b80524d5411cb967caa97d8d9f12b2fd6b88600160405161064b929190611c23565b60405180910390a15050505050505050565b606060008060006001856040516106749190611aa2565b90815260200160405180910390209050806001018054905067ffffffffffffffff8111156106a5576106a4611204565b5b6040519080825280602002602001820160405280156106d35781602001602082028036833780820191505090505b50935060008060005b865181116108e9578284600501600086600101848154811061070157610700611c4c565b5b9060005260206000200160009054906101000a900473ffffffffffffffffffffffffffffffffffffffff1673ffffffffffffffffffffffffffffffffffffffff1673ffffffffffffffffffffffffffffffffffffffff1681526020019081526020016000205411156108355783600501600085600101838154811061078957610788611c4c565b5b9060005260206000200160009054906101000a900473ffffffffffffffffffffffffffffffffffffffff1673ffffffffffffffffffffffffffffffffffffffff1673ffffffffffffffffffffffffffffffffffffffff16815260200190815260200160002054925083600101818154811061080757610806611c4c565b5b9060005260206000200160009054906101000a900473ffffffffffffffffffffffffffffffffffffffff1691505b83600501600085600101838154811061085157610850611c4c565b5b9060005260206000200160009054906101000a900473ffffffffffffffffffffffffffffffffffffffff1673ffffffffffffffffffffffffffffffffffffffff1673ffffffffffffffffffffffffffffffffffffffff168152602001908152602001600020548782815181106108ca576108c9611c4c565b5b60200260200101818152505080806108e190611caa565b9150506106dc565b508581839550955095505050509193909250565b600060018260405161090f9190611aa2565b90815260200160405180910390209050600073ffffffffffffffffffffffffffffffffffffffff168160000160009054906101000a900473ffffffffffffffffffffffffffffffffffffffff1673ffffffffffffffffffffffffffffffffffffffff1614156109b3576040517f08c379a00000000000000000000000000000000000000000000000000000000081526004016109aa90611d3f565b60405180910390fd5b3373ffffffffffffffffffffffffffffffffffffffff168160000160009054906101000a900473ffffffffffffffffffffffffffffffffffffffff1673ffffffffffffffffffffffffffffffffffffffff1614610a1357610a12611d5f565b5b8060020160009054906101000a900463ffffffff1663ffffffff168160020160149054906101000a900461ffff1661ffff1610610a85576040517f08c379a0000000000000000000000000000000000000000000000000000000008152600401610a7c90611e00565b60405180910390fd5b60018160030160008573ffffffffffffffffffffffffffffffffffffffff1673ffffffffffffffffffffffffffffffffffffffff16815260200190815260200160002060006101000a81548160ff02191690831515021790555080600101839080600181540180825580915050600190039060005260206000200160009091909190916101000a81548173ffffffffffffffffffffffffffffffffffffffff021916908373ffffffffffffffffffffffffffffffffffffffff16021790555080600201601481819054906101000a900461ffff1680929190610b6690611e20565b91906101000a81548161ffff021916908361ffff160217905550507fc19c59aa93348e8fc54764bc642eca975e2639f44cc683ef8f027e1529cbda3283604051610bb09190611e4b565b60405180910390a1505050565b6001818051602081018201805184825260208301602085012081835280955050505050506000915090508060000160009054906101000a900473ffffffffffffffffffffffffffffffffffffffff16908060020160009054906101000a900463ffffffff16908060020160049054906101000a900467ffffffffffffffff169080600201600c9054906101000a900467ffffffffffffffff16908060020160149054906101000a900461ffff16908060020160169054906101000a900460ff16905086565b60026020528060005260406000206000915090505481565b6000600182604051610cac9190611aa2565b908152602001604051809103902090508060000160009054906101000a900473ffffffffffffffffffffffffffffffffffffffff1673ffffffffffffffffffffffffffffffffffffffff163373ffffffffffffffffffffffffffffffffffffffff1614610d4e576040517f08c379a0000000000000000000000000000000000000000000000000000000008152600401610d4590611eb2565b60405180910390fd5b3373ffffffffffffffffffffffffffffffffffffffff166108fc82600201600c9054906101000a900467ffffffffffffffff1667ffffffffffffffff169081150290604051600060405180830381858888f19350505050158015610db6573d6000803e3d6000fd5b505050565b600080600183604051610dce9190611aa2565b908152602001604051809103902090508060020160149054906101000a900461ffff1661ffff16915050919050565b60008181548110610e0d57600080fd5b90600052602060002090600602016000915090508060000160009054906101000a900473ffffffffffffffffffffffffffffffffffffffff16908060020160009054906101000a900463ffffffff16908060020160049054906101000a900467ffffffffffffffff169080600201600c9054906101000a900467ffffffffffffffff16908060020160149054906101000a900461ffff16908060020160169054906101000a900460ff16905086565b60606000600183604051610ed09190611aa2565b9081526020016040518091039020905080600101805480602002602001604051908101604052809291908181526020018280548015610f6457602002820191906000526020600020905b8160009054906101000a900473ffffffffffffffffffffffffffffffffffffffff1673ffffffffffffffffffffffffffffffffffffffff1681526020019060010190808311610f1a575b5050505050915050919050565b6000600182604051610f839190611aa2565b908152602001604051809103902090503373ffffffffffffffffffffffffffffffffffffffff168160000160009054906101000a900473ffffffffffffffffffffffffffffffffffffffff1673ffffffffffffffffffffffffffffffffffffffff1614611025576040517f08c379a000000000000000000000000000000000000000000000000000000000815260040161101c90611eb2565b60405180910390fd5b8060020160169054906101000a900460ff16158160020160166101000a81548160ff0219169083151502179055505050565b60008060018460405161106a9190611aa2565b9081526020016040518091039020905060018160040160008573ffffffffffffffffffffffffffffffffffffffff1673ffffffffffffffffffffffffffffffffffffffff16815260200190815260200160002060006101000a81548160ff0219169083151502179055508060050160008673ffffffffffffffffffffffffffffffffffffffff1673ffffffffffffffffffffffffffffffffffffffff168152602001908152602001600020600081548092919061112690611caa565b91905055508060050160008673ffffffffffffffffffffffffffffffffffffffff1673ffffffffffffffffffffffffffffffffffffffff168152602001908152602001600020549150509392505050565b6000604051905090565b600080fd5b600080fd5b600073ffffffffffffffffffffffffffffffffffffffff82169050919050565b60006111b68261118b565b9050919050565b6111c6816111ab565b81146111d157600080fd5b50565b6000813590506111e3816111bd565b92915050565b600080fd5b600080fd5b6000601f19601f8301169050919050565b7f4e487b7100000000000000000000000000000000000000000000000000000000600052604160045260246000fd5b61123c826111f3565b810181811067ffffffffffffffff8211171561125b5761125a611204565b5b80604052505050565b600061126e611177565b905061127a8282611233565b919050565b600067ffffffffffffffff82111561129a57611299611204565b5b6112a3826111f3565b9050602081019050919050565b82818337600083830152505050565b60006112d26112cd8461127f565b611264565b9050828152602081018484840111156112ee576112ed6111ee565b5b6112f98482856112b0565b509392505050565b600082601f830112611316576113156111e9565b5b81356113268482602086016112bf565b91505092915050565b6000819050919050565b6113428161132f565b811461134d57600080fd5b50565b60008135905061135f81611339565b92915050565b6000806000806080858703121561137f5761137e611181565b5b600061138d878288016111d4565b945050602085013567ffffffffffffffff8111156113ae576113ad611186565b5b6113ba87828801611301565b93505060406113cb87828801611350565b92505060606113dc87828801611350565b91505092959194509250565b6000819050919050565b6113fb816113e8565b82525050565b600060208201905061141660008301846113f2565b92915050565b600061ffff82169050919050565b6114338161141c565b811461143e57600080fd5b50565b6000813590506114508161142a565b92915050565b6000806040838503121561146d5761146c611181565b5b600083013567ffffffffffffffff81111561148b5761148a611186565b5b61149785828601611301565b92505060206114a885828601611441565b9150509250929050565b600081519050919050565b600082825260208201905092915050565b60005b838110156114ec5780820151818401526020810190506114d1565b838111156114fb576000848401525b50505050565b600061150c826114b2565b61151681856114bd565b93506115268185602086016114ce565b61152f816111f3565b840191505092915050565b6115438161132f565b82525050565b600060408201905081810360008301526115638185611501565b9050611572602083018461153a565b9392505050565b600080604083850312156115905761158f611181565b5b600061159e858286016111d4565b925050602083013567ffffffffffffffff8111156115bf576115be611186565b5b6115cb85828601611301565b9150509250929050565b6000602082840312156115eb576115ea611181565b5b600082013567ffffffffffffffff81111561160957611608611186565b5b61161584828501611301565b91505092915050565b600081519050919050565b600082825260208201905092915050565b6000819050602082019050919050565b6116538161132f565b82525050565b6000611665838361164a565b60208301905092915050565b6000602082019050919050565b60006116898261161e565b6116938185611629565b935061169e8361163a565b8060005b838110156116cf5781516116b68882611659565b97506116c183611671565b9250506001810190506116a2565b5085935050505092915050565b6116e5816111ab565b82525050565b60006060820190508181036000830152611705818661167e565b905061171460208301856116dc565b611721604083018461153a565b949350505050565b600063ffffffff82169050919050565b61174281611729565b82525050565b600067ffffffffffffffff82169050919050565b61176581611748565b82525050565b6117748161141c565b82525050565b60008115159050919050565b61178f8161177a565b82525050565b600060c0820190506117aa60008301896116dc565b6117b76020830188611739565b6117c4604083018761175c565b6117d1606083018661175c565b6117de608083018561176b565b6117eb60a0830184611786565b979650505050505050565b60006020828403121561180c5761180b611181565b5b600061181a848285016111d4565b91505092915050565b6000602082019050611838600083018461153a565b92915050565b60006020828403121561185457611853611181565b5b600061186284828501611350565b91505092915050565b600081519050919050565b600082825260208201905092915050565b6000819050602082019050919050565b6118a0816111ab565b82525050565b60006118b28383611897565b60208301905092915050565b6000602082019050919050565b60006118d68261186b565b6118e08185611876565b93506118eb83611887565b8060005b8381101561191c57815161190388826118a6565b975061190e836118be565b9250506001810190506118ef565b5085935050505092915050565b6000602082019050818103600083015261194381846118cb565b905092915050565b60008160601b9050919050565b60006119638261194b565b9050919050565b600061197582611958565b9050919050565b61198d611988826111ab565b61196a565b82525050565b600081905092915050565b7f6d6574617472616e73616374696f6e20566f74696e6720000000000000000000600082015250565b60006119d4601783611993565b91506119df8261199e565b601782019050919050565b60006119f5826114b2565b6119ff8185611993565b9350611a0f8185602086016114ce565b80840191505092915050565b6000819050919050565b611a36611a318261132f565b611a1b565b82525050565b6000611a48828861197c565b601482019150611a57826119c7565b9150611a63828761197c565b601482019150611a7382866119ea565b9150611a7f8285611a25565b602082019150611a8f8284611a25565b6020820191508190509695505050505050565b6000611aae82846119ea565b915081905092915050565b7f54686973206164647265737320646f6573206e6f74206578697374206173206160008201527f2063616e64696461746500000000000000000000000000000000000000000000602082015250565b6000611b15602a836114bd565b9150611b2082611ab9565b604082019050919050565b60006020820190508181036000830152611b4481611b08565b9050919050565b7f766f74696e672068617320656e64656400000000000000000000000000000000600082015250565b6000611b816010836114bd565b9150611b8c82611b4b565b602082019050919050565b60006020820190508181036000830152611bb081611b74565b9050919050565b7f596f7520616c726561647920766f746564000000000000000000000000000000600082015250565b6000611bed6011836114bd565b9150611bf882611bb7565b602082019050919050565b60006020820190508181036000830152611c1c81611be0565b9050919050565b6000604082019050611c3860008301856116dc565b611c456020830184611786565b9392505050565b7f4e487b7100000000000000000000000000000000000000000000000000000000600052603260045260246000fd5b7f4e487b7100000000000000000000000000000000000000000000000000000000600052601160045260246000fd5b6000611cb58261132f565b91507fffffffffffffffffffffffffffffffffffffffffffffffffffffffffffffffff821415611ce857611ce7611c7b565b5b600182019050919050565b7f79657420746f20637265617465206120706f6c6c000000000000000000000000600082015250565b6000611d296014836114bd565b9150611d3482611cf3565b602082019050919050565b60006020820190508181036000830152611d5881611d1c565b9050919050565b7f4e487b7100000000000000000000000000000000000000000000000000000000600052600160045260246000fd5b7f6d6178696d756d206e6f206f662063616e64696461746520706572207365737360008201527f696f6e2072656769737465726564000000000000000000000000000000000000602082015250565b6000611dea602e836114bd565b9150611df582611d8e565b604082019050919050565b60006020820190508181036000830152611e1981611ddd565b9050919050565b6000611e2b8261141c565b915061ffff821415611e4057611e3f611c7b565b5b600182019050919050565b6000602082019050611e6060008301846116dc565b92915050565b7f6e6f74207468652063686169726d616e00000000000000000000000000000000600082015250565b6000611e9c6010836114bd565b9150611ea782611e66565b602082019050919050565b60006020820190508181036000830152611ecb81611e8f565b905091905056fea26469706673582212208e9dba65eb6cc8eb427ce5663b8687104e0ae3ad698895856340d464502d5ea764736f6c634300080a0033",
					"opcodes": "PUSH1 0x80 PUSH1 0x40 MSTORE CALLVALUE DUP1 ISZERO PUSH2 0x10 JUMPI PUSH1 0x0 DUP1 REVERT JUMPDEST POP PUSH2 0x1F08 DUP1 PUSH2 0x20 PUSH1 0x0 CODECOPY PUSH1 0x0 RETURN INVALID PUSH1 0x80 PUSH1 0x40 MSTORE PUSH1 0x4 CALLDATASIZE LT PUSH2 0xAB JUMPI PUSH1 0x0 CALLDATALOAD PUSH1 0xE0 SHR DUP1 PUSH4 0x67D407DF GT PUSH2 0x64 JUMPI DUP1 PUSH4 0x67D407DF EQ PUSH2 0x205 JUMPI DUP1 PUSH4 0x82E305AB EQ PUSH2 0x242 JUMPI DUP1 PUSH4 0x8579CACD EQ PUSH2 0x25E JUMPI DUP1 PUSH4 0xA886E61B EQ PUSH2 0x29B JUMPI DUP1 PUSH4 0xAF7CBC0D EQ PUSH2 0x2DD JUMPI DUP1 PUSH4 0xF0E4DE22 EQ PUSH2 0x31A JUMPI PUSH2 0xB2 JUMP JUMPDEST DUP1 PUSH4 0x1FF993B EQ PUSH2 0xB7 JUMPI DUP1 PUSH4 0x968D4B1 EQ PUSH2 0xF4 JUMPI DUP1 PUSH4 0x1BF533A4 EQ PUSH2 0x132 JUMPI DUP1 PUSH4 0x4FCF1F39 EQ PUSH2 0x15B JUMPI DUP1 PUSH4 0x57F53967 EQ PUSH2 0x19A JUMPI DUP1 PUSH4 0x63EE965A EQ PUSH2 0x1C3 JUMPI PUSH2 0xB2 JUMP JUMPDEST CALLDATASIZE PUSH2 0xB2 JUMPI STOP JUMPDEST PUSH1 0x0 DUP1 REVERT JUMPDEST CALLVALUE DUP1 ISZERO PUSH2 0xC3 JUMPI PUSH1 0x0 DUP1 REVERT JUMPDEST POP PUSH2 0xDE PUSH1 0x4 DUP1 CALLDATASIZE SUB DUP2 ADD SWAP1 PUSH2 0xD9 SWAP2 SWAP1 PUSH2 0x1365 JUMP JUMPDEST PUSH2 0x343 JUMP JUMPDEST PUSH1 0x40 MLOAD PUSH2 0xEB SWAP2 SWAP1 PUSH2 0x1401 JUMP JUMPDEST PUSH1 0x40 MLOAD DUP1 SWAP2 SUB SWAP1 RETURN JUMPDEST CALLVALUE DUP1 ISZERO PUSH2 0x100 JUMPI PUSH1 0x0 DUP1 REVERT JUMPDEST POP PUSH2 0x11B PUSH1 0x4 DUP1 CALLDATASIZE SUB DUP2 ADD SWAP1 PUSH2 0x116 SWAP2 SWAP1 PUSH2 0x1456 JUMP JUMPDEST PUSH2 0x37E JUMP JUMPDEST PUSH1 0x40 MLOAD PUSH2 0x129 SWAP3 SWAP2 SWAP1 PUSH2 0x1549 JUMP JUMPDEST PUSH1 0x40 MLOAD DUP1 SWAP2 SUB SWAP1 RETURN JUMPDEST CALLVALUE DUP1 ISZERO PUSH2 0x13E JUMPI PUSH1 0x0 DUP1 REVERT JUMPDEST POP PUSH2 0x159 PUSH1 0x4 DUP1 CALLDATASIZE SUB DUP2 ADD SWAP1 PUSH2 0x154 SWAP2 SWAP1 PUSH2 0x1579 JUMP JUMPDEST PUSH2 0x422 JUMP JUMPDEST STOP JUMPDEST CALLVALUE DUP1 ISZERO PUSH2 0x167 JUMPI PUSH1 0x0 DUP1 REVERT JUMPDEST POP PUSH2 0x182 PUSH1 0x4 DUP1 CALLDATASIZE SUB DUP2 ADD SWAP1 PUSH2 0x17D SWAP2 SWAP1 PUSH2 0x15D5 JUMP JUMPDEST PUSH2 0x65D JUMP JUMPDEST PUSH1 0x40 MLOAD PUSH2 0x191 SWAP4 SWAP3 SWAP2 SWAP1 PUSH2 0x16EB JUMP JUMPDEST PUSH1 0x40 MLOAD DUP1 SWAP2 SUB SWAP1 RETURN JUMPDEST CALLVALUE DUP1 ISZERO PUSH2 0x1A6 JUMPI PUSH1 0x0 DUP1 REVERT JUMPDEST POP PUSH2 0x1C1 PUSH1 0x4 DUP1 CALLDATASIZE SUB DUP2 ADD SWAP1 PUSH2 0x1BC SWAP2 SWAP1 PUSH2 0x1579 JUMP JUMPDEST PUSH2 0x8FD JUMP JUMPDEST STOP JUMPDEST CALLVALUE DUP1 ISZERO PUSH2 0x1CF JUMPI PUSH1 0x0 DUP1 REVERT JUMPDEST POP PUSH2 0x1EA PUSH1 0x4 DUP1 CALLDATASIZE SUB DUP2 ADD SWAP1 PUSH2 0x1E5 SWAP2 SWAP1 PUSH2 0x15D5 JUMP JUMPDEST PUSH2 0xBBD JUMP JUMPDEST PUSH1 0x40 MLOAD PUSH2 0x1FC SWAP7 SWAP6 SWAP5 SWAP4 SWAP3 SWAP2 SWAP1 PUSH2 0x1795 JUMP JUMPDEST PUSH1 0x40 MLOAD DUP1 SWAP2 SUB SWAP1 RETURN JUMPDEST CALLVALUE DUP1 ISZERO PUSH2 0x211 JUMPI PUSH1 0x0 DUP1 REVERT JUMPDEST POP PUSH2 0x22C PUSH1 0x4 DUP1 CALLDATASIZE SUB DUP2 ADD SWAP1 PUSH2 0x227 SWAP2 SWAP1 PUSH2 0x17F6 JUMP JUMPDEST PUSH2 0xC82 JUMP JUMPDEST PUSH1 0x40 MLOAD PUSH2 0x239 SWAP2 SWAP1 PUSH2 0x1823 JUMP JUMPDEST PUSH1 0x40 MLOAD DUP1 SWAP2 SUB SWAP1 RETURN JUMPDEST PUSH2 0x25C PUSH1 0x4 DUP1 CALLDATASIZE SUB DUP2 ADD SWAP1 PUSH2 0x257 SWAP2 SWAP1 PUSH2 0x15D5 JUMP JUMPDEST PUSH2 0xC9A JUMP JUMPDEST STOP JUMPDEST CALLVALUE DUP1 ISZERO PUSH2 0x26A JUMPI PUSH1 0x0 DUP1 REVERT JUMPDEST POP PUSH2 0x285 PUSH1 0x4 DUP1 CALLDATASIZE SUB DUP2 ADD SWAP1 PUSH2 0x280 SWAP2 SWAP1 PUSH2 0x15D5 JUMP JUMPDEST PUSH2 0xDBB JUMP JUMPDEST PUSH1 0x40 MLOAD PUSH2 0x292 SWAP2 SWAP1 PUSH2 0x1823 JUMP JUMPDEST PUSH1 0x40 MLOAD DUP1 SWAP2 SUB SWAP1 RETURN JUMPDEST CALLVALUE DUP1 ISZERO PUSH2 0x2A7 JUMPI PUSH1 0x0 DUP1 REVERT JUMPDEST POP PUSH2 0x2C2 PUSH1 0x4 DUP1 CALLDATASIZE SUB DUP2 ADD SWAP1 PUSH2 0x2BD SWAP2 SWAP1 PUSH2 0x183E JUMP JUMPDEST PUSH2 0xDFD JUMP JUMPDEST PUSH1 0x40 MLOAD PUSH2 0x2D4 SWAP7 SWAP6 SWAP5 SWAP4 SWAP3 SWAP2 SWAP1 PUSH2 0x1795 JUMP JUMPDEST PUSH1 0x40 MLOAD DUP1 SWAP2 SUB SWAP1 RETURN JUMPDEST CALLVALUE DUP1 ISZERO PUSH2 0x2E9 JUMPI PUSH1 0x0 DUP1 REVERT JUMPDEST POP PUSH2 0x304 PUSH1 0x4 DUP1 CALLDATASIZE SUB DUP2 ADD SWAP1 PUSH2 0x2FF SWAP2 SWAP1 PUSH2 0x15D5 JUMP JUMPDEST PUSH2 0xEBC JUMP JUMPDEST PUSH1 0x40 MLOAD PUSH2 0x311 SWAP2 SWAP1 PUSH2 0x1929 JUMP JUMPDEST PUSH1 0x40 MLOAD DUP1 SWAP2 SUB SWAP1 RETURN JUMPDEST CALLVALUE DUP1 ISZERO PUSH2 0x326 JUMPI PUSH1 0x0 DUP1 REVERT JUMPDEST POP PUSH2 0x341 PUSH1 0x4 DUP1 CALLDATASIZE SUB DUP2 ADD SWAP1 PUSH2 0x33C SWAP2 SWAP1 PUSH2 0x15D5 JUMP JUMPDEST PUSH2 0xF71 JUMP JUMPDEST STOP JUMPDEST PUSH1 0x0 ADDRESS DUP6 DUP6 DUP6 DUP6 PUSH1 0x40 MLOAD PUSH1 0x20 ADD PUSH2 0x35E SWAP6 SWAP5 SWAP4 SWAP3 SWAP2 SWAP1 PUSH2 0x1A3C JUMP JUMPDEST PUSH1 0x40 MLOAD PUSH1 0x20 DUP2 DUP4 SUB SUB DUP2 MSTORE SWAP1 PUSH1 0x40 MSTORE DUP1 MLOAD SWAP1 PUSH1 0x20 ADD KECCAK256 SWAP1 POP SWAP5 SWAP4 POP POP POP POP JUMP JUMPDEST PUSH1 0x60 PUSH1 0x0 DUP1 PUSH1 0x1 DUP6 PUSH1 0x40 MLOAD PUSH2 0x393 SWAP2 SWAP1 PUSH2 0x1AA2 JUMP JUMPDEST SWAP1 DUP2 MSTORE PUSH1 0x20 ADD PUSH1 0x40 MLOAD DUP1 SWAP2 SUB SWAP1 KECCAK256 SWAP1 POP CALLER DUP2 PUSH1 0x0 ADD PUSH1 0x0 PUSH2 0x100 EXP DUP2 SLOAD DUP2 PUSH20 0xFFFFFFFFFFFFFFFFFFFFFFFFFFFFFFFFFFFFFFFF MUL NOT AND SWAP1 DUP4 PUSH20 0xFFFFFFFFFFFFFFFFFFFFFFFFFFFFFFFFFFFFFFFF AND MUL OR SWAP1 SSTORE POP DUP4 PUSH2 0xFFFF AND DUP2 PUSH1 0x2 ADD PUSH1 0x0 PUSH2 0x100 EXP DUP2 SLOAD DUP2 PUSH4 0xFFFFFFFF MUL NOT AND SWAP1 DUP4 PUSH4 0xFFFFFFFF AND MUL OR SWAP1 SSTORE POP DUP5 DUP5 DUP1 PUSH2 0xFFFF AND SWAP1 POP SWAP3 POP SWAP3 POP POP SWAP3 POP SWAP3 SWAP1 POP JUMP JUMPDEST DUP2 DUP2 PUSH1 0x0 PUSH1 0x1 DUP3 PUSH1 0x40 MLOAD PUSH2 0x436 SWAP2 SWAP1 PUSH2 0x1AA2 JUMP JUMPDEST SWAP1 DUP2 MSTORE PUSH1 0x20 ADD PUSH1 0x40 MLOAD DUP1 SWAP2 SUB SWAP1 KECCAK256 SWAP1 POP PUSH1 0x1 ISZERO ISZERO DUP2 PUSH1 0x3 ADD PUSH1 0x0 DUP6 PUSH20 0xFFFFFFFFFFFFFFFFFFFFFFFFFFFFFFFFFFFFFFFF AND PUSH20 0xFFFFFFFFFFFFFFFFFFFFFFFFFFFFFFFFFFFFFFFF AND DUP2 MSTORE PUSH1 0x20 ADD SWAP1 DUP2 MSTORE PUSH1 0x20 ADD PUSH1 0x0 KECCAK256 PUSH1 0x0 SWAP1 SLOAD SWAP1 PUSH2 0x100 EXP SWAP1 DIV PUSH1 0xFF AND ISZERO ISZERO EQ PUSH2 0x4DB JUMPI PUSH1 0x40 MLOAD PUSH32 0x8C379A000000000000000000000000000000000000000000000000000000000 DUP2 MSTORE PUSH1 0x4 ADD PUSH2 0x4D2 SWAP1 PUSH2 0x1B2B JUMP JUMPDEST PUSH1 0x40 MLOAD DUP1 SWAP2 SUB SWAP1 REVERT JUMPDEST DUP4 PUSH1 0x0 PUSH1 0x1 DUP3 PUSH1 0x40 MLOAD PUSH2 0x4EE SWAP2 SWAP1 PUSH2 0x1AA2 JUMP JUMPDEST SWAP1 DUP2 MSTORE PUSH1 0x20 ADD PUSH1 0x40 MLOAD DUP1 SWAP2 SUB SWAP1 KECCAK256 SWAP1 POP PUSH1 0x1 ISZERO ISZERO DUP2 PUSH1 0x2 ADD PUSH1 0x16 SWAP1 SLOAD SWAP1 PUSH2 0x100 EXP SWAP1 DIV PUSH1 0xFF AND ISZERO ISZERO EQ PUSH2 0x556 JUMPI PUSH1 0x40 MLOAD PUSH32 0x8C379A000000000000000000000000000000000000000000000000000000000 DUP2 MSTORE PUSH1 0x4 ADD PUSH2 0x54D SWAP1 PUSH2 0x1B97 JUMP JUMPDEST PUSH1 0x40 MLOAD DUP1 SWAP2 SUB SWAP1 REVERT JUMPDEST PUSH1 0x0 PUSH1 0x1 DUP8 PUSH1 0x40 MLOAD PUSH2 0x568 SWAP2 SWAP1 PUSH2 0x1AA2 JUMP JUMPDEST SWAP1 DUP2 MSTORE PUSH1 0x20 ADD PUSH1 0x40 MLOAD DUP1 SWAP2 SUB SWAP1 KECCAK256 SWAP1 POP PUSH1 0x0 ISZERO ISZERO DUP2 PUSH1 0x4 ADD PUSH1 0x0 CALLER PUSH20 0xFFFFFFFFFFFFFFFFFFFFFFFFFFFFFFFFFFFFFFFF AND PUSH20 0xFFFFFFFFFFFFFFFFFFFFFFFFFFFFFFFFFFFFFFFF AND DUP2 MSTORE PUSH1 0x20 ADD SWAP1 DUP2 MSTORE PUSH1 0x20 ADD PUSH1 0x0 KECCAK256 PUSH1 0x0 SWAP1 SLOAD SWAP1 PUSH2 0x100 EXP SWAP1 DIV PUSH1 0xFF AND ISZERO ISZERO EQ PUSH2 0x60D JUMPI PUSH1 0x40 MLOAD PUSH32 0x8C379A000000000000000000000000000000000000000000000000000000000 DUP2 MSTORE PUSH1 0x4 ADD PUSH2 0x604 SWAP1 PUSH2 0x1C03 JUMP JUMPDEST PUSH1 0x40 MLOAD DUP1 SWAP2 SUB SWAP1 REVERT JUMPDEST PUSH2 0x618 DUP9 DUP9 CALLER PUSH2 0x1057 JUMP JUMPDEST POP PUSH32 0xF3F16A15F074B71C5138107DFC7C63B80524D5411CB967CAA97D8D9F12B2FD6B DUP9 PUSH1 0x1 PUSH1 0x40 MLOAD PUSH2 0x64B SWAP3 SWAP2 SWAP1 PUSH2 0x1C23 JUMP JUMPDEST PUSH1 0x40 MLOAD DUP1 SWAP2 SUB SWAP1 LOG1 POP POP POP POP POP POP POP POP JUMP JUMPDEST PUSH1 0x60 PUSH1 0x0 DUP1 PUSH1 0x0 PUSH1 0x1 DUP6 PUSH1 0x40 MLOAD PUSH2 0x674 SWAP2 SWAP1 PUSH2 0x1AA2 JUMP JUMPDEST SWAP1 DUP2 MSTORE PUSH1 0x20 ADD PUSH1 0x40 MLOAD DUP1 SWAP2 SUB SWAP1 KECCAK256 SWAP1 POP DUP1 PUSH1 0x1 ADD DUP1 SLOAD SWAP1 POP PUSH8 0xFFFFFFFFFFFFFFFF DUP2 GT ISZERO PUSH2 0x6A5 JUMPI PUSH2 0x6A4 PUSH2 0x1204 JUMP JUMPDEST JUMPDEST PUSH1 0x40 MLOAD SWAP1 DUP1 DUP3 MSTORE DUP1 PUSH1 0x20 MUL PUSH1 0x20 ADD DUP3 ADD PUSH1 0x40 MSTORE DUP1 ISZERO PUSH2 0x6D3 JUMPI DUP2 PUSH1 0x20 ADD PUSH1 0x20 DUP3 MUL DUP1 CALLDATASIZE DUP4 CALLDATACOPY DUP1 DUP3 ADD SWAP2 POP POP SWAP1 POP JUMPDEST POP SWAP4 POP PUSH1 0x0 DUP1 PUSH1 0x0 JUMPDEST DUP7 MLOAD DUP2 GT PUSH2 0x8E9 JUMPI DUP3 DUP5 PUSH1 0x5 ADD PUSH1 0x0 DUP7 PUSH1 0x1 ADD DUP5 DUP2 SLOAD DUP2 LT PUSH2 0x701 JUMPI PUSH2 0x700 PUSH2 0x1C4C JUMP JUMPDEST JUMPDEST SWAP1 PUSH1 0x0 MSTORE PUSH1 0x20 PUSH1 0x0 KECCAK256 ADD PUSH1 0x0 SWAP1 SLOAD SWAP1 PUSH2 0x100 EXP SWAP1 DIV PUSH20 0xFFFFFFFFFFFFFFFFFFFFFFFFFFFFFFFFFFFFFFFF AND PUSH20 0xFFFFFFFFFFFFFFFFFFFFFFFFFFFFFFFFFFFFFFFF AND PUSH20 0xFFFFFFFFFFFFFFFFFFFFFFFFFFFFFFFFFFFFFFFF AND DUP2 MSTORE PUSH1 0x20 ADD SWAP1 DUP2 MSTORE PUSH1 0x20 ADD PUSH1 0x0 KECCAK256 SLOAD GT ISZERO PUSH2 0x835 JUMPI DUP4 PUSH1 0x5 ADD PUSH1 0x0 DUP6 PUSH1 0x1 ADD DUP4 DUP2 SLOAD DUP2 LT PUSH2 0x789 JUMPI PUSH2 0x788 PUSH2 0x1C4C JUMP JUMPDEST JUMPDEST SWAP1 PUSH1 0x0 MSTORE PUSH1 0x20 PUSH1 0x0 KECCAK256 ADD PUSH1 0x0 SWAP1 SLOAD SWAP1 PUSH2 0x100 EXP SWAP1 DIV PUSH20 0xFFFFFFFFFFFFFFFFFFFFFFFFFFFFFFFFFFFFFFFF AND PUSH20 0xFFFFFFFFFFFFFFFFFFFFFFFFFFFFFFFFFFFFFFFF AND PUSH20 0xFFFFFFFFFFFFFFFFFFFFFFFFFFFFFFFFFFFFFFFF AND DUP2 MSTORE PUSH1 0x20 ADD SWAP1 DUP2 MSTORE PUSH1 0x20 ADD PUSH1 0x0 KECCAK256 SLOAD SWAP3 POP DUP4 PUSH1 0x1 ADD DUP2 DUP2 SLOAD DUP2 LT PUSH2 0x807 JUMPI PUSH2 0x806 PUSH2 0x1C4C JUMP JUMPDEST JUMPDEST SWAP1 PUSH1 0x0 MSTORE PUSH1 0x20 PUSH1 0x0 KECCAK256 ADD PUSH1 0x0 SWAP1 SLOAD SWAP1 PUSH2 0x100 EXP SWAP1 DIV PUSH20 0xFFFFFFFFFFFFFFFFFFFFFFFFFFFFFFFFFFFFFFFF AND SWAP2 POP JUMPDEST DUP4 PUSH1 0x5 ADD PUSH1 0x0 DUP6 PUSH1 0x1 ADD DUP4 DUP2 SLOAD DUP2 LT PUSH2 0x851 JUMPI PUSH2 0x850 PUSH2 0x1C4C JUMP JUMPDEST JUMPDEST SWAP1 PUSH1 0x0 MSTORE PUSH1 0x20 PUSH1 0x0 KECCAK256 ADD PUSH1 0x0 SWAP1 SLOAD SWAP1 PUSH2 0x100 EXP SWAP1 DIV PUSH20 0xFFFFFFFFFFFFFFFFFFFFFFFFFFFFFFFFFFFFFFFF AND PUSH20 0xFFFFFFFFFFFFFFFFFFFFFFFFFFFFFFFFFFFFFFFF AND PUSH20 0xFFFFFFFFFFFFFFFFFFFFFFFFFFFFFFFFFFFFFFFF AND DUP2 MSTORE PUSH1 0x20 ADD SWAP1 DUP2 MSTORE PUSH1 0x20 ADD PUSH1 0x0 KECCAK256 SLOAD DUP8 DUP3 DUP2 MLOAD DUP2 LT PUSH2 0x8CA JUMPI PUSH2 0x8C9 PUSH2 0x1C4C JUMP JUMPDEST JUMPDEST PUSH1 0x20 MUL PUSH1 0x20 ADD ADD DUP2 DUP2 MSTORE POP POP DUP1 DUP1 PUSH2 0x8E1 SWAP1 PUSH2 0x1CAA JUMP JUMPDEST SWAP2 POP POP PUSH2 0x6DC JUMP JUMPDEST POP DUP6 DUP2 DUP4 SWAP6 POP SWAP6 POP SWAP6 POP POP POP POP SWAP2 SWAP4 SWAP1 SWAP3 POP JUMP JUMPDEST PUSH1 0x0 PUSH1 0x1 DUP3 PUSH1 0x40 MLOAD PUSH2 0x90F SWAP2 SWAP1 PUSH2 0x1AA2 JUMP JUMPDEST SWAP1 DUP2 MSTORE PUSH1 0x20 ADD PUSH1 0x40 MLOAD DUP1 SWAP2 SUB SWAP1 KECCAK256 SWAP1 POP PUSH1 0x0 PUSH20 0xFFFFFFFFFFFFFFFFFFFFFFFFFFFFFFFFFFFFFFFF AND DUP2 PUSH1 0x0 ADD PUSH1 0x0 SWAP1 SLOAD SWAP1 PUSH2 0x100 EXP SWAP1 DIV PUSH20 0xFFFFFFFFFFFFFFFFFFFFFFFFFFFFFFFFFFFFFFFF AND PUSH20 0xFFFFFFFFFFFFFFFFFFFFFFFFFFFFFFFFFFFFFFFF AND EQ ISZERO PUSH2 0x9B3 JUMPI PUSH1 0x40 MLOAD PUSH32 0x8C379A000000000000000000000000000000000000000000000000000000000 DUP2 MSTORE PUSH1 0x4 ADD PUSH2 0x9AA SWAP1 PUSH2 0x1D3F JUMP JUMPDEST PUSH1 0x40 MLOAD DUP1 SWAP2 SUB SWAP1 REVERT JUMPDEST CALLER PUSH20 0xFFFFFFFFFFFFFFFFFFFFFFFFFFFFFFFFFFFFFFFF AND DUP2 PUSH1 0x0 ADD PUSH1 0x0 SWAP1 SLOAD SWAP1 PUSH2 0x100 EXP SWAP1 DIV PUSH20 0xFFFFFFFFFFFFFFFFFFFFFFFFFFFFFFFFFFFFFFFF AND PUSH20 0xFFFFFFFFFFFFFFFFFFFFFFFFFFFFFFFFFFFFFFFF AND EQ PUSH2 0xA13 JUMPI PUSH2 0xA12 PUSH2 0x1D5F JUMP JUMPDEST JUMPDEST DUP1 PUSH1 0x2 ADD PUSH1 0x0 SWAP1 SLOAD SWAP1 PUSH2 0x100 EXP SWAP1 DIV PUSH4 0xFFFFFFFF AND PUSH4 0xFFFFFFFF AND DUP2 PUSH1 0x2 ADD PUSH1 0x14 SWAP1 SLOAD SWAP1 PUSH2 0x100 EXP SWAP1 DIV PUSH2 0xFFFF AND PUSH2 0xFFFF AND LT PUSH2 0xA85 JUMPI PUSH1 0x40 MLOAD PUSH32 0x8C379A000000000000000000000000000000000000000000000000000000000 DUP2 MSTORE PUSH1 0x4 ADD PUSH2 0xA7C SWAP1 PUSH2 0x1E00 JUMP JUMPDEST PUSH1 0x40 MLOAD DUP1 SWAP2 SUB SWAP1 REVERT JUMPDEST PUSH1 0x1 DUP2 PUSH1 0x3 ADD PUSH1 0x0 DUP6 PUSH20 0xFFFFFFFFFFFFFFFFFFFFFFFFFFFFFFFFFFFFFFFF AND PUSH20 0xFFFFFFFFFFFFFFFFFFFFFFFFFFFFFFFFFFFFFFFF AND DUP2 MSTORE PUSH1 0x20 ADD SWAP1 DUP2 MSTORE PUSH1 0x20 ADD PUSH1 0x0 KECCAK256 PUSH1 0x0 PUSH2 0x100 EXP DUP2 SLOAD DUP2 PUSH1 0xFF MUL NOT AND SWAP1 DUP4 ISZERO ISZERO MUL OR SWAP1 SSTORE POP DUP1 PUSH1 0x1 ADD DUP4 SWAP1 DUP1 PUSH1 0x1 DUP2 SLOAD ADD DUP1 DUP3 SSTORE DUP1 SWAP2 POP POP PUSH1 0x1 SWAP1 SUB SWAP1 PUSH1 0x0 MSTORE PUSH1 0x20 PUSH1 0x0 KECCAK256 ADD PUSH1 0x0 SWAP1 SWAP2 SWAP1 SWAP2 SWAP1 SWAP2 PUSH2 0x100 EXP DUP2 SLOAD DUP2 PUSH20 0xFFFFFFFFFFFFFFFFFFFFFFFFFFFFFFFFFFFFFFFF MUL NOT AND SWAP1 DUP4 PUSH20 0xFFFFFFFFFFFFFFFFFFFFFFFFFFFFFFFFFFFFFFFF AND MUL OR SWAP1 SSTORE POP DUP1 PUSH1 0x2 ADD PUSH1 0x14 DUP2 DUP2 SWAP1 SLOAD SWAP1 PUSH2 0x100 EXP SWAP1 DIV PUSH2 0xFFFF AND DUP1 SWAP3 SWAP2 SWAP1 PUSH2 0xB66 SWAP1 PUSH2 0x1E20 JUMP JUMPDEST SWAP2 SWAP1 PUSH2 0x100 EXP DUP2 SLOAD DUP2 PUSH2 0xFFFF MUL NOT AND SWAP1 DUP4 PUSH2 0xFFFF AND MUL OR SWAP1 SSTORE POP POP PUSH32 0xC19C59AA93348E8FC54764BC642ECA975E2639F44CC683EF8F027E1529CBDA32 DUP4 PUSH1 0x40 MLOAD PUSH2 0xBB0 SWAP2 SWAP1 PUSH2 0x1E4B JUMP JUMPDEST PUSH1 0x40 MLOAD DUP1 SWAP2 SUB SWAP1 LOG1 POP POP POP JUMP JUMPDEST PUSH1 0x1 DUP2 DUP1 MLOAD PUSH1 0x20 DUP2 ADD DUP3 ADD DUP1 MLOAD DUP5 DUP3 MSTORE PUSH1 0x20 DUP4 ADD PUSH1 0x20 DUP6 ADD KECCAK256 DUP2 DUP4 MSTORE DUP1 SWAP6 POP POP POP POP POP POP PUSH1 0x0 SWAP2 POP SWAP1 POP DUP1 PUSH1 0x0 ADD PUSH1 0x0 SWAP1 SLOAD SWAP1 PUSH2 0x100 EXP SWAP1 DIV PUSH20 0xFFFFFFFFFFFFFFFFFFFFFFFFFFFFFFFFFFFFFFFF AND SWAP1 DUP1 PUSH1 0x2 ADD PUSH1 0x0 SWAP1 SLOAD SWAP1 PUSH2 0x100 EXP SWAP1 DIV PUSH4 0xFFFFFFFF AND SWAP1 DUP1 PUSH1 0x2 ADD PUSH1 0x4 SWAP1 SLOAD SWAP1 PUSH2 0x100 EXP SWAP1 DIV PUSH8 0xFFFFFFFFFFFFFFFF AND SWAP1 DUP1 PUSH1 0x2 ADD PUSH1 0xC SWAP1 SLOAD SWAP1 PUSH2 0x100 EXP SWAP1 DIV PUSH8 0xFFFFFFFFFFFFFFFF AND SWAP1 DUP1 PUSH1 0x2 ADD PUSH1 0x14 SWAP1 SLOAD SWAP1 PUSH2 0x100 EXP SWAP1 DIV PUSH2 0xFFFF AND SWAP1 DUP1 PUSH1 0x2 ADD PUSH1 0x16 SWAP1 SLOAD SWAP1 PUSH2 0x100 EXP SWAP1 DIV PUSH1 0xFF AND SWAP1 POP DUP7 JUMP JUMPDEST PUSH1 0x2 PUSH1 0x20 MSTORE DUP1 PUSH1 0x0 MSTORE PUSH1 0x40 PUSH1 0x0 KECCAK256 PUSH1 0x0 SWAP2 POP SWAP1 POP SLOAD DUP2 JUMP JUMPDEST PUSH1 0x0 PUSH1 0x1 DUP3 PUSH1 0x40 MLOAD PUSH2 0xCAC SWAP2 SWAP1 PUSH2 0x1AA2 JUMP JUMPDEST SWAP1 DUP2 MSTORE PUSH1 0x20 ADD PUSH1 0x40 MLOAD DUP1 SWAP2 SUB SWAP1 KECCAK256 SWAP1 POP DUP1 PUSH1 0x0 ADD PUSH1 0x0 SWAP1 SLOAD SWAP1 PUSH2 0x100 EXP SWAP1 DIV PUSH20 0xFFFFFFFFFFFFFFFFFFFFFFFFFFFFFFFFFFFFFFFF AND PUSH20 0xFFFFFFFFFFFFFFFFFFFFFFFFFFFFFFFFFFFFFFFF AND CALLER PUSH20 0xFFFFFFFFFFFFFFFFFFFFFFFFFFFFFFFFFFFFFFFF AND EQ PUSH2 0xD4E JUMPI PUSH1 0x40 MLOAD PUSH32 0x8C379A000000000000000000000000000000000000000000000000000000000 DUP2 MSTORE PUSH1 0x4 ADD PUSH2 0xD45 SWAP1 PUSH2 0x1EB2 JUMP JUMPDEST PUSH1 0x40 MLOAD DUP1 SWAP2 SUB SWAP1 REVERT JUMPDEST CALLER PUSH20 0xFFFFFFFFFFFFFFFFFFFFFFFFFFFFFFFFFFFFFFFF AND PUSH2 0x8FC DUP3 PUSH1 0x2 ADD PUSH1 0xC SWAP1 SLOAD SWAP1 PUSH2 0x100 EXP SWAP1 DIV PUSH8 0xFFFFFFFFFFFFFFFF AND PUSH8 0xFFFFFFFFFFFFFFFF AND SWAP1 DUP2 ISZERO MUL SWAP1 PUSH1 0x40 MLOAD PUSH1 0x0 PUSH1 0x40 MLOAD DUP1 DUP4 SUB DUP2 DUP6 DUP9 DUP9 CALL SWAP4 POP POP POP POP ISZERO DUP1 ISZERO PUSH2 0xDB6 JUMPI RETURNDATASIZE PUSH1 0x0 DUP1 RETURNDATACOPY RETURNDATASIZE PUSH1 0x0 REVERT JUMPDEST POP POP POP JUMP JUMPDEST PUSH1 0x0 DUP1 PUSH1 0x1 DUP4 PUSH1 0x40 MLOAD PUSH2 0xDCE SWAP2 SWAP1 PUSH2 0x1AA2 JUMP JUMPDEST SWAP1 DUP2 MSTORE PUSH1 0x20 ADD PUSH1 0x40 MLOAD DUP1 SWAP2 SUB SWAP1 KECCAK256 SWAP1 POP DUP1 PUSH1 0x2 ADD PUSH1 0x14 SWAP1 SLOAD SWAP1 PUSH2 0x100 EXP SWAP1 DIV PUSH2 0xFFFF AND PUSH2 0xFFFF AND SWAP2 POP POP SWAP2 SWAP1 POP JUMP JUMPDEST PUSH1 0x0 DUP2 DUP2 SLOAD DUP2 LT PUSH2 0xE0D JUMPI PUSH1 0x0 DUP1 REVERT JUMPDEST SWAP1 PUSH1 0x0 MSTORE PUSH1 0x20 PUSH1 0x0 KECCAK256 SWAP1 PUSH1 0x6 MUL ADD PUSH1 0x0 SWAP2 POP SWAP1 POP DUP1 PUSH1 0x0 ADD PUSH1 0x0 SWAP1 SLOAD SWAP1 PUSH2 0x100 EXP SWAP1 DIV PUSH20 0xFFFFFFFFFFFFFFFFFFFFFFFFFFFFFFFFFFFFFFFF AND SWAP1 DUP1 PUSH1 0x2 ADD PUSH1 0x0 SWAP1 SLOAD SWAP1 PUSH2 0x100 EXP SWAP1 DIV PUSH4 0xFFFFFFFF AND SWAP1 DUP1 PUSH1 0x2 ADD PUSH1 0x4 SWAP1 SLOAD SWAP1 PUSH2 0x100 EXP SWAP1 DIV PUSH8 0xFFFFFFFFFFFFFFFF AND SWAP1 DUP1 PUSH1 0x2 ADD PUSH1 0xC SWAP1 SLOAD SWAP1 PUSH2 0x100 EXP SWAP1 DIV PUSH8 0xFFFFFFFFFFFFFFFF AND SWAP1 DUP1 PUSH1 0x2 ADD PUSH1 0x14 SWAP1 SLOAD SWAP1 PUSH2 0x100 EXP SWAP1 DIV PUSH2 0xFFFF AND SWAP1 DUP1 PUSH1 0x2 ADD PUSH1 0x16 SWAP1 SLOAD SWAP1 PUSH2 0x100 EXP SWAP1 DIV PUSH1 0xFF AND SWAP1 POP DUP7 JUMP JUMPDEST PUSH1 0x60 PUSH1 0x0 PUSH1 0x1 DUP4 PUSH1 0x40 MLOAD PUSH2 0xED0 SWAP2 SWAP1 PUSH2 0x1AA2 JUMP JUMPDEST SWAP1 DUP2 MSTORE PUSH1 0x20 ADD PUSH1 0x40 MLOAD DUP1 SWAP2 SUB SWAP1 KECCAK256 SWAP1 POP DUP1 PUSH1 0x1 ADD DUP1 SLOAD DUP1 PUSH1 0x20 MUL PUSH1 0x20 ADD PUSH1 0x40 MLOAD SWAP1 DUP2 ADD PUSH1 0x40 MSTORE DUP1 SWAP3 SWAP2 SWAP1 DUP2 DUP2 MSTORE PUSH1 0x20 ADD DUP3 DUP1 SLOAD DUP1 ISZERO PUSH2 0xF64 JUMPI PUSH1 0x20 MUL DUP3 ADD SWAP2 SWAP1 PUSH1 0x0 MSTORE PUSH1 0x20 PUSH1 0x0 KECCAK256 SWAP1 JUMPDEST DUP2 PUSH1 0x0 SWAP1 SLOAD SWAP1 PUSH2 0x100 EXP SWAP1 DIV PUSH20 0xFFFFFFFFFFFFFFFFFFFFFFFFFFFFFFFFFFFFFFFF AND PUSH20 0xFFFFFFFFFFFFFFFFFFFFFFFFFFFFFFFFFFFFFFFF AND DUP2 MSTORE PUSH1 0x20 ADD SWAP1 PUSH1 0x1 ADD SWAP1 DUP1 DUP4 GT PUSH2 0xF1A JUMPI JUMPDEST POP POP POP POP POP SWAP2 POP POP SWAP2 SWAP1 POP JUMP JUMPDEST PUSH1 0x0 PUSH1 0x1 DUP3 PUSH1 0x40 MLOAD PUSH2 0xF83 SWAP2 SWAP1 PUSH2 0x1AA2 JUMP JUMPDEST SWAP1 DUP2 MSTORE PUSH1 0x20 ADD PUSH1 0x40 MLOAD DUP1 SWAP2 SUB SWAP1 KECCAK256 SWAP1 POP CALLER PUSH20 0xFFFFFFFFFFFFFFFFFFFFFFFFFFFFFFFFFFFFFFFF AND DUP2 PUSH1 0x0 ADD PUSH1 0x0 SWAP1 SLOAD SWAP1 PUSH2 0x100 EXP SWAP1 DIV PUSH20 0xFFFFFFFFFFFFFFFFFFFFFFFFFFFFFFFFFFFFFFFF AND PUSH20 0xFFFFFFFFFFFFFFFFFFFFFFFFFFFFFFFFFFFFFFFF AND EQ PUSH2 0x1025 JUMPI PUSH1 0x40 MLOAD PUSH32 0x8C379A000000000000000000000000000000000000000000000000000000000 DUP2 MSTORE PUSH1 0x4 ADD PUSH2 0x101C SWAP1 PUSH2 0x1EB2 JUMP JUMPDEST PUSH1 0x40 MLOAD DUP1 SWAP2 SUB SWAP1 REVERT JUMPDEST DUP1 PUSH1 0x2 ADD PUSH1 0x16 SWAP1 SLOAD SWAP1 PUSH2 0x100 EXP SWAP1 DIV PUSH1 0xFF AND ISZERO DUP2 PUSH1 0x2 ADD PUSH1 0x16 PUSH2 0x100 EXP DUP2 SLOAD DUP2 PUSH1 0xFF MUL NOT AND SWAP1 DUP4 ISZERO ISZERO MUL OR SWAP1 SSTORE POP POP POP JUMP JUMPDEST PUSH1 0x0 DUP1 PUSH1 0x1 DUP5 PUSH1 0x40 MLOAD PUSH2 0x106A SWAP2 SWAP1 PUSH2 0x1AA2 JUMP JUMPDEST SWAP1 DUP2 MSTORE PUSH1 0x20 ADD PUSH1 0x40 MLOAD DUP1 SWAP2 SUB SWAP1 KECCAK256 SWAP1 POP PUSH1 0x1 DUP2 PUSH1 0x4 ADD PUSH1 0x0 DUP6 PUSH20 0xFFFFFFFFFFFFFFFFFFFFFFFFFFFFFFFFFFFFFFFF AND PUSH20 0xFFFFFFFFFFFFFFFFFFFFFFFFFFFFFFFFFFFFFFFF AND DUP2 MSTORE PUSH1 0x20 ADD SWAP1 DUP2 MSTORE PUSH1 0x20 ADD PUSH1 0x0 KECCAK256 PUSH1 0x0 PUSH2 0x100 EXP DUP2 SLOAD DUP2 PUSH1 0xFF MUL NOT AND SWAP1 DUP4 ISZERO ISZERO MUL OR SWAP1 SSTORE POP DUP1 PUSH1 0x5 ADD PUSH1 0x0 DUP7 PUSH20 0xFFFFFFFFFFFFFFFFFFFFFFFFFFFFFFFFFFFFFFFF AND PUSH20 0xFFFFFFFFFFFFFFFFFFFFFFFFFFFFFFFFFFFFFFFF AND DUP2 MSTORE PUSH1 0x20 ADD SWAP1 DUP2 MSTORE PUSH1 0x20 ADD PUSH1 0x0 KECCAK256 PUSH1 0x0 DUP2 SLOAD DUP1 SWAP3 SWAP2 SWAP1 PUSH2 0x1126 SWAP1 PUSH2 0x1CAA JUMP JUMPDEST SWAP2 SWAP1 POP SSTORE POP DUP1 PUSH1 0x5 ADD PUSH1 0x0 DUP7 PUSH20 0xFFFFFFFFFFFFFFFFFFFFFFFFFFFFFFFFFFFFFFFF AND PUSH20 0xFFFFFFFFFFFFFFFFFFFFFFFFFFFFFFFFFFFFFFFF AND DUP2 MSTORE PUSH1 0x20 ADD SWAP1 DUP2 MSTORE PUSH1 0x20 ADD PUSH1 0x0 KECCAK256 SLOAD SWAP2 POP POP SWAP4 SWAP3 POP POP POP JUMP JUMPDEST PUSH1 0x0 PUSH1 0x40 MLOAD SWAP1 POP SWAP1 JUMP JUMPDEST PUSH1 0x0 DUP1 REVERT JUMPDEST PUSH1 0x0 DUP1 REVERT JUMPDEST PUSH1 0x0 PUSH20 0xFFFFFFFFFFFFFFFFFFFFFFFFFFFFFFFFFFFFFFFF DUP3 AND SWAP1 POP SWAP2 SWAP1 POP JUMP JUMPDEST PUSH1 0x0 PUSH2 0x11B6 DUP3 PUSH2 0x118B JUMP JUMPDEST SWAP1 POP SWAP2 SWAP1 POP JUMP JUMPDEST PUSH2 0x11C6 DUP2 PUSH2 0x11AB JUMP JUMPDEST DUP2 EQ PUSH2 0x11D1 JUMPI PUSH1 0x0 DUP1 REVERT JUMPDEST POP JUMP JUMPDEST PUSH1 0x0 DUP2 CALLDATALOAD SWAP1 POP PUSH2 0x11E3 DUP2 PUSH2 0x11BD JUMP JUMPDEST SWAP3 SWAP2 POP POP JUMP JUMPDEST PUSH1 0x0 DUP1 REVERT JUMPDEST PUSH1 0x0 DUP1 REVERT JUMPDEST PUSH1 0x0 PUSH1 0x1F NOT PUSH1 0x1F DUP4 ADD AND SWAP1 POP SWAP2 SWAP1 POP JUMP JUMPDEST PUSH32 0x4E487B7100000000000000000000000000000000000000000000000000000000 PUSH1 0x0 MSTORE PUSH1 0x41 PUSH1 0x4 MSTORE PUSH1 0x24 PUSH1 0x0 REVERT JUMPDEST PUSH2 0x123C DUP3 PUSH2 0x11F3 JUMP JUMPDEST DUP2 ADD DUP2 DUP2 LT PUSH8 0xFFFFFFFFFFFFFFFF DUP3 GT OR ISZERO PUSH2 0x125B JUMPI PUSH2 0x125A PUSH2 0x1204 JUMP JUMPDEST JUMPDEST DUP1 PUSH1 0x40 MSTORE POP POP POP JUMP JUMPDEST PUSH1 0x0 PUSH2 0x126E PUSH2 0x1177 JUMP JUMPDEST SWAP1 POP PUSH2 0x127A DUP3 DUP3 PUSH2 0x1233 JUMP JUMPDEST SWAP2 SWAP1 POP JUMP JUMPDEST PUSH1 0x0 PUSH8 0xFFFFFFFFFFFFFFFF DUP3 GT ISZERO PUSH2 0x129A JUMPI PUSH2 0x1299 PUSH2 0x1204 JUMP JUMPDEST JUMPDEST PUSH2 0x12A3 DUP3 PUSH2 0x11F3 JUMP JUMPDEST SWAP1 POP PUSH1 0x20 DUP2 ADD SWAP1 POP SWAP2 SWAP1 POP JUMP JUMPDEST DUP3 DUP2 DUP4 CALLDATACOPY PUSH1 0x0 DUP4 DUP4 ADD MSTORE POP POP POP JUMP JUMPDEST PUSH1 0x0 PUSH2 0x12D2 PUSH2 0x12CD DUP5 PUSH2 0x127F JUMP JUMPDEST PUSH2 0x1264 JUMP JUMPDEST SWAP1 POP DUP3 DUP2 MSTORE PUSH1 0x20 DUP2 ADD DUP5 DUP5 DUP5 ADD GT ISZERO PUSH2 0x12EE JUMPI PUSH2 0x12ED PUSH2 0x11EE JUMP JUMPDEST JUMPDEST PUSH2 0x12F9 DUP5 DUP3 DUP6 PUSH2 0x12B0 JUMP JUMPDEST POP SWAP4 SWAP3 POP POP POP JUMP JUMPDEST PUSH1 0x0 DUP3 PUSH1 0x1F DUP4 ADD SLT PUSH2 0x1316 JUMPI PUSH2 0x1315 PUSH2 0x11E9 JUMP JUMPDEST JUMPDEST DUP2 CALLDATALOAD PUSH2 0x1326 DUP5 DUP3 PUSH1 0x20 DUP7 ADD PUSH2 0x12BF JUMP JUMPDEST SWAP2 POP POP SWAP3 SWAP2 POP POP JUMP JUMPDEST PUSH1 0x0 DUP2 SWAP1 POP SWAP2 SWAP1 POP JUMP JUMPDEST PUSH2 0x1342 DUP2 PUSH2 0x132F JUMP JUMPDEST DUP2 EQ PUSH2 0x134D JUMPI PUSH1 0x0 DUP1 REVERT JUMPDEST POP JUMP JUMPDEST PUSH1 0x0 DUP2 CALLDATALOAD SWAP1 POP PUSH2 0x135F DUP2 PUSH2 0x1339 JUMP JUMPDEST SWAP3 SWAP2 POP POP JUMP JUMPDEST PUSH1 0x0 DUP1 PUSH1 0x0 DUP1 PUSH1 0x80 DUP6 DUP8 SUB SLT ISZERO PUSH2 0x137F JUMPI PUSH2 0x137E PUSH2 0x1181 JUMP JUMPDEST JUMPDEST PUSH1 0x0 PUSH2 0x138D DUP8 DUP3 DUP9 ADD PUSH2 0x11D4 JUMP JUMPDEST SWAP5 POP POP PUSH1 0x20 DUP6 ADD CALLDATALOAD PUSH8 0xFFFFFFFFFFFFFFFF DUP2 GT ISZERO PUSH2 0x13AE JUMPI PUSH2 0x13AD PUSH2 0x1186 JUMP JUMPDEST JUMPDEST PUSH2 0x13BA DUP8 DUP3 DUP9 ADD PUSH2 0x1301 JUMP JUMPDEST SWAP4 POP POP PUSH1 0x40 PUSH2 0x13CB DUP8 DUP3 DUP9 ADD PUSH2 0x1350 JUMP JUMPDEST SWAP3 POP POP PUSH1 0x60 PUSH2 0x13DC DUP8 DUP3 DUP9 ADD PUSH2 0x1350 JUMP JUMPDEST SWAP2 POP POP SWAP3 SWAP6 SWAP2 SWAP5 POP SWAP3 POP JUMP JUMPDEST PUSH1 0x0 DUP2 SWAP1 POP SWAP2 SWAP1 POP JUMP JUMPDEST PUSH2 0x13FB DUP2 PUSH2 0x13E8 JUMP JUMPDEST DUP3 MSTORE POP POP JUMP JUMPDEST PUSH1 0x0 PUSH1 0x20 DUP3 ADD SWAP1 POP PUSH2 0x1416 PUSH1 0x0 DUP4 ADD DUP5 PUSH2 0x13F2 JUMP JUMPDEST SWAP3 SWAP2 POP POP JUMP JUMPDEST PUSH1 0x0 PUSH2 0xFFFF DUP3 AND SWAP1 POP SWAP2 SWAP1 POP JUMP JUMPDEST PUSH2 0x1433 DUP2 PUSH2 0x141C JUMP JUMPDEST DUP2 EQ PUSH2 0x143E JUMPI PUSH1 0x0 DUP1 REVERT JUMPDEST POP JUMP JUMPDEST PUSH1 0x0 DUP2 CALLDATALOAD SWAP1 POP PUSH2 0x1450 DUP2 PUSH2 0x142A JUMP JUMPDEST SWAP3 SWAP2 POP POP JUMP JUMPDEST PUSH1 0x0 DUP1 PUSH1 0x40 DUP4 DUP6 SUB SLT ISZERO PUSH2 0x146D JUMPI PUSH2 0x146C PUSH2 0x1181 JUMP JUMPDEST JUMPDEST PUSH1 0x0 DUP4 ADD CALLDATALOAD PUSH8 0xFFFFFFFFFFFFFFFF DUP2 GT ISZERO PUSH2 0x148B JUMPI PUSH2 0x148A PUSH2 0x1186 JUMP JUMPDEST JUMPDEST PUSH2 0x1497 DUP6 DUP3 DUP7 ADD PUSH2 0x1301 JUMP JUMPDEST SWAP3 POP POP PUSH1 0x20 PUSH2 0x14A8 DUP6 DUP3 DUP7 ADD PUSH2 0x1441 JUMP JUMPDEST SWAP2 POP POP SWAP3 POP SWAP3 SWAP1 POP JUMP JUMPDEST PUSH1 0x0 DUP2 MLOAD SWAP1 POP SWAP2 SWAP1 POP JUMP JUMPDEST PUSH1 0x0 DUP3 DUP3 MSTORE PUSH1 0x20 DUP3 ADD SWAP1 POP SWAP3 SWAP2 POP POP JUMP JUMPDEST PUSH1 0x0 JUMPDEST DUP4 DUP2 LT ISZERO PUSH2 0x14EC JUMPI DUP1 DUP3 ADD MLOAD DUP2 DUP5 ADD MSTORE PUSH1 0x20 DUP2 ADD SWAP1 POP PUSH2 0x14D1 JUMP JUMPDEST DUP4 DUP2 GT ISZERO PUSH2 0x14FB JUMPI PUSH1 0x0 DUP5 DUP5 ADD MSTORE JUMPDEST POP POP POP POP JUMP JUMPDEST PUSH1 0x0 PUSH2 0x150C DUP3 PUSH2 0x14B2 JUMP JUMPDEST PUSH2 0x1516 DUP2 DUP6 PUSH2 0x14BD JUMP JUMPDEST SWAP4 POP PUSH2 0x1526 DUP2 DUP6 PUSH1 0x20 DUP7 ADD PUSH2 0x14CE JUMP JUMPDEST PUSH2 0x152F DUP2 PUSH2 0x11F3 JUMP JUMPDEST DUP5 ADD SWAP2 POP POP SWAP3 SWAP2 POP POP JUMP JUMPDEST PUSH2 0x1543 DUP2 PUSH2 0x132F JUMP JUMPDEST DUP3 MSTORE POP POP JUMP JUMPDEST PUSH1 0x0 PUSH1 0x40 DUP3 ADD SWAP1 POP DUP2 DUP2 SUB PUSH1 0x0 DUP4 ADD MSTORE PUSH2 0x1563 DUP2 DUP6 PUSH2 0x1501 JUMP JUMPDEST SWAP1 POP PUSH2 0x1572 PUSH1 0x20 DUP4 ADD DUP5 PUSH2 0x153A JUMP JUMPDEST SWAP4 SWAP3 POP POP POP JUMP JUMPDEST PUSH1 0x0 DUP1 PUSH1 0x40 DUP4 DUP6 SUB SLT ISZERO PUSH2 0x1590 JUMPI PUSH2 0x158F PUSH2 0x1181 JUMP JUMPDEST JUMPDEST PUSH1 0x0 PUSH2 0x159E DUP6 DUP3 DUP7 ADD PUSH2 0x11D4 JUMP JUMPDEST SWAP3 POP POP PUSH1 0x20 DUP4 ADD CALLDATALOAD PUSH8 0xFFFFFFFFFFFFFFFF DUP2 GT ISZERO PUSH2 0x15BF JUMPI PUSH2 0x15BE PUSH2 0x1186 JUMP JUMPDEST JUMPDEST PUSH2 0x15CB DUP6 DUP3 DUP7 ADD PUSH2 0x1301 JUMP JUMPDEST SWAP2 POP POP SWAP3 POP SWAP3 SWAP1 POP JUMP JUMPDEST PUSH1 0x0 PUSH1 0x20 DUP3 DUP5 SUB SLT ISZERO PUSH2 0x15EB JUMPI PUSH2 0x15EA PUSH2 0x1181 JUMP JUMPDEST JUMPDEST PUSH1 0x0 DUP3 ADD CALLDATALOAD PUSH8 0xFFFFFFFFFFFFFFFF DUP2 GT ISZERO PUSH2 0x1609 JUMPI PUSH2 0x1608 PUSH2 0x1186 JUMP JUMPDEST JUMPDEST PUSH2 0x1615 DUP5 DUP3 DUP6 ADD PUSH2 0x1301 JUMP JUMPDEST SWAP2 POP POP SWAP3 SWAP2 POP POP JUMP JUMPDEST PUSH1 0x0 DUP2 MLOAD SWAP1 POP SWAP2 SWAP1 POP JUMP JUMPDEST PUSH1 0x0 DUP3 DUP3 MSTORE PUSH1 0x20 DUP3 ADD SWAP1 POP SWAP3 SWAP2 POP POP JUMP JUMPDEST PUSH1 0x0 DUP2 SWAP1 POP PUSH1 0x20 DUP3 ADD SWAP1 POP SWAP2 SWAP1 POP JUMP JUMPDEST PUSH2 0x1653 DUP2 PUSH2 0x132F JUMP JUMPDEST DUP3 MSTORE POP POP JUMP JUMPDEST PUSH1 0x0 PUSH2 0x1665 DUP4 DUP4 PUSH2 0x164A JUMP JUMPDEST PUSH1 0x20 DUP4 ADD SWAP1 POP SWAP3 SWAP2 POP POP JUMP JUMPDEST PUSH1 0x0 PUSH1 0x20 DUP3 ADD SWAP1 POP SWAP2 SWAP1 POP JUMP JUMPDEST PUSH1 0x0 PUSH2 0x1689 DUP3 PUSH2 0x161E JUMP JUMPDEST PUSH2 0x1693 DUP2 DUP6 PUSH2 0x1629 JUMP JUMPDEST SWAP4 POP PUSH2 0x169E DUP4 PUSH2 0x163A JUMP JUMPDEST DUP1 PUSH1 0x0 JUMPDEST DUP4 DUP2 LT ISZERO PUSH2 0x16CF JUMPI DUP2 MLOAD PUSH2 0x16B6 DUP9 DUP3 PUSH2 0x1659 JUMP JUMPDEST SWAP8 POP PUSH2 0x16C1 DUP4 PUSH2 0x1671 JUMP JUMPDEST SWAP3 POP POP PUSH1 0x1 DUP2 ADD SWAP1 POP PUSH2 0x16A2 JUMP JUMPDEST POP DUP6 SWAP4 POP POP POP POP SWAP3 SWAP2 POP POP JUMP JUMPDEST PUSH2 0x16E5 DUP2 PUSH2 0x11AB JUMP JUMPDEST DUP3 MSTORE POP POP JUMP JUMPDEST PUSH1 0x0 PUSH1 0x60 DUP3 ADD SWAP1 POP DUP2 DUP2 SUB PUSH1 0x0 DUP4 ADD MSTORE PUSH2 0x1705 DUP2 DUP7 PUSH2 0x167E JUMP JUMPDEST SWAP1 POP PUSH2 0x1714 PUSH1 0x20 DUP4 ADD DUP6 PUSH2 0x16DC JUMP JUMPDEST PUSH2 0x1721 PUSH1 0x40 DUP4 ADD DUP5 PUSH2 0x153A JUMP JUMPDEST SWAP5 SWAP4 POP POP POP POP JUMP JUMPDEST PUSH1 0x0 PUSH4 0xFFFFFFFF DUP3 AND SWAP1 POP SWAP2 SWAP1 POP JUMP JUMPDEST PUSH2 0x1742 DUP2 PUSH2 0x1729 JUMP JUMPDEST DUP3 MSTORE POP POP JUMP JUMPDEST PUSH1 0x0 PUSH8 0xFFFFFFFFFFFFFFFF DUP3 AND SWAP1 POP SWAP2 SWAP1 POP JUMP JUMPDEST PUSH2 0x1765 DUP2 PUSH2 0x1748 JUMP JUMPDEST DUP3 MSTORE POP POP JUMP JUMPDEST PUSH2 0x1774 DUP2 PUSH2 0x141C JUMP JUMPDEST DUP3 MSTORE POP POP JUMP JUMPDEST PUSH1 0x0 DUP2 ISZERO ISZERO SWAP1 POP SWAP2 SWAP1 POP JUMP JUMPDEST PUSH2 0x178F DUP2 PUSH2 0x177A JUMP JUMPDEST DUP3 MSTORE POP POP JUMP JUMPDEST PUSH1 0x0 PUSH1 0xC0 DUP3 ADD SWAP1 POP PUSH2 0x17AA PUSH1 0x0 DUP4 ADD DUP10 PUSH2 0x16DC JUMP JUMPDEST PUSH2 0x17B7 PUSH1 0x20 DUP4 ADD DUP9 PUSH2 0x1739 JUMP JUMPDEST PUSH2 0x17C4 PUSH1 0x40 DUP4 ADD DUP8 PUSH2 0x175C JUMP JUMPDEST PUSH2 0x17D1 PUSH1 0x60 DUP4 ADD DUP7 PUSH2 0x175C JUMP JUMPDEST PUSH2 0x17DE PUSH1 0x80 DUP4 ADD DUP6 PUSH2 0x176B JUMP JUMPDEST PUSH2 0x17EB PUSH1 0xA0 DUP4 ADD DUP5 PUSH2 0x1786 JUMP JUMPDEST SWAP8 SWAP7 POP POP POP POP POP POP POP JUMP JUMPDEST PUSH1 0x0 PUSH1 0x20 DUP3 DUP5 SUB SLT ISZERO PUSH2 0x180C JUMPI PUSH2 0x180B PUSH2 0x1181 JUMP JUMPDEST JUMPDEST PUSH1 0x0 PUSH2 0x181A DUP5 DUP3 DUP6 ADD PUSH2 0x11D4 JUMP JUMPDEST SWAP2 POP POP SWAP3 SWAP2 POP POP JUMP JUMPDEST PUSH1 0x0 PUSH1 0x20 DUP3 ADD SWAP1 POP PUSH2 0x1838 PUSH1 0x0 DUP4 ADD DUP5 PUSH2 0x153A JUMP JUMPDEST SWAP3 SWAP2 POP POP JUMP JUMPDEST PUSH1 0x0 PUSH1 0x20 DUP3 DUP5 SUB SLT ISZERO PUSH2 0x1854 JUMPI PUSH2 0x1853 PUSH2 0x1181 JUMP JUMPDEST JUMPDEST PUSH1 0x0 PUSH2 0x1862 DUP5 DUP3 DUP6 ADD PUSH2 0x1350 JUMP JUMPDEST SWAP2 POP POP SWAP3 SWAP2 POP POP JUMP JUMPDEST PUSH1 0x0 DUP2 MLOAD SWAP1 POP SWAP2 SWAP1 POP JUMP JUMPDEST PUSH1 0x0 DUP3 DUP3 MSTORE PUSH1 0x20 DUP3 ADD SWAP1 POP SWAP3 SWAP2 POP POP JUMP JUMPDEST PUSH1 0x0 DUP2 SWAP1 POP PUSH1 0x20 DUP3 ADD SWAP1 POP SWAP2 SWAP1 POP JUMP JUMPDEST PUSH2 0x18A0 DUP2 PUSH2 0x11AB JUMP JUMPDEST DUP3 MSTORE POP POP JUMP JUMPDEST PUSH1 0x0 PUSH2 0x18B2 DUP4 DUP4 PUSH2 0x1897 JUMP JUMPDEST PUSH1 0x20 DUP4 ADD SWAP1 POP SWAP3 SWAP2 POP POP JUMP JUMPDEST PUSH1 0x0 PUSH1 0x20 DUP3 ADD SWAP1 POP SWAP2 SWAP1 POP JUMP JUMPDEST PUSH1 0x0 PUSH2 0x18D6 DUP3 PUSH2 0x186B JUMP JUMPDEST PUSH2 0x18E0 DUP2 DUP6 PUSH2 0x1876 JUMP JUMPDEST SWAP4 POP PUSH2 0x18EB DUP4 PUSH2 0x1887 JUMP JUMPDEST DUP1 PUSH1 0x0 JUMPDEST DUP4 DUP2 LT ISZERO PUSH2 0x191C JUMPI DUP2 MLOAD PUSH2 0x1903 DUP9 DUP3 PUSH2 0x18A6 JUMP JUMPDEST SWAP8 POP PUSH2 0x190E DUP4 PUSH2 0x18BE JUMP JUMPDEST SWAP3 POP POP PUSH1 0x1 DUP2 ADD SWAP1 POP PUSH2 0x18EF JUMP JUMPDEST POP DUP6 SWAP4 POP POP POP POP SWAP3 SWAP2 POP POP JUMP JUMPDEST PUSH1 0x0 PUSH1 0x20 DUP3 ADD SWAP1 POP DUP2 DUP2 SUB PUSH1 0x0 DUP4 ADD MSTORE PUSH2 0x1943 DUP2 DUP5 PUSH2 0x18CB JUMP JUMPDEST SWAP1 POP SWAP3 SWAP2 POP POP JUMP JUMPDEST PUSH1 0x0 DUP2 PUSH1 0x60 SHL SWAP1 POP SWAP2 SWAP1 POP JUMP JUMPDEST PUSH1 0x0 PUSH2 0x1963 DUP3 PUSH2 0x194B JUMP JUMPDEST SWAP1 POP SWAP2 SWAP1 POP JUMP JUMPDEST PUSH1 0x0 PUSH2 0x1975 DUP3 PUSH2 0x1958 JUMP JUMPDEST SWAP1 POP SWAP2 SWAP1 POP JUMP JUMPDEST PUSH2 0x198D PUSH2 0x1988 DUP3 PUSH2 0x11AB JUMP JUMPDEST PUSH2 0x196A JUMP JUMPDEST DUP3 MSTORE POP POP JUMP JUMPDEST PUSH1 0x0 DUP2 SWAP1 POP SWAP3 SWAP2 POP POP JUMP JUMPDEST PUSH32 0x6D6574617472616E73616374696F6E20566F74696E6720000000000000000000 PUSH1 0x0 DUP3 ADD MSTORE POP JUMP JUMPDEST PUSH1 0x0 PUSH2 0x19D4 PUSH1 0x17 DUP4 PUSH2 0x1993 JUMP JUMPDEST SWAP2 POP PUSH2 0x19DF DUP3 PUSH2 0x199E JUMP JUMPDEST PUSH1 0x17 DUP3 ADD SWAP1 POP SWAP2 SWAP1 POP JUMP JUMPDEST PUSH1 0x0 PUSH2 0x19F5 DUP3 PUSH2 0x14B2 JUMP JUMPDEST PUSH2 0x19FF DUP2 DUP6 PUSH2 0x1993 JUMP JUMPDEST SWAP4 POP PUSH2 0x1A0F DUP2 DUP6 PUSH1 0x20 DUP7 ADD PUSH2 0x14CE JUMP JUMPDEST DUP1 DUP5 ADD SWAP2 POP POP SWAP3 SWAP2 POP POP JUMP JUMPDEST PUSH1 0x0 DUP2 SWAP1 POP SWAP2 SWAP1 POP JUMP JUMPDEST PUSH2 0x1A36 PUSH2 0x1A31 DUP3 PUSH2 0x132F JUMP JUMPDEST PUSH2 0x1A1B JUMP JUMPDEST DUP3 MSTORE POP POP JUMP JUMPDEST PUSH1 0x0 PUSH2 0x1A48 DUP3 DUP9 PUSH2 0x197C JUMP JUMPDEST PUSH1 0x14 DUP3 ADD SWAP2 POP PUSH2 0x1A57 DUP3 PUSH2 0x19C7 JUMP JUMPDEST SWAP2 POP PUSH2 0x1A63 DUP3 DUP8 PUSH2 0x197C JUMP JUMPDEST PUSH1 0x14 DUP3 ADD SWAP2 POP PUSH2 0x1A73 DUP3 DUP7 PUSH2 0x19EA JUMP JUMPDEST SWAP2 POP PUSH2 0x1A7F DUP3 DUP6 PUSH2 0x1A25 JUMP JUMPDEST PUSH1 0x20 DUP3 ADD SWAP2 POP PUSH2 0x1A8F DUP3 DUP5 PUSH2 0x1A25 JUMP JUMPDEST PUSH1 0x20 DUP3 ADD SWAP2 POP DUP2 SWAP1 POP SWAP7 SWAP6 POP POP POP POP POP POP JUMP JUMPDEST PUSH1 0x0 PUSH2 0x1AAE DUP3 DUP5 PUSH2 0x19EA JUMP JUMPDEST SWAP2 POP DUP2 SWAP1 POP SWAP3 SWAP2 POP POP JUMP JUMPDEST PUSH32 0x54686973206164647265737320646F6573206E6F742065786973742061732061 PUSH1 0x0 DUP3 ADD MSTORE PUSH32 0x2063616E64696461746500000000000000000000000000000000000000000000 PUSH1 0x20 DUP3 ADD MSTORE POP JUMP JUMPDEST PUSH1 0x0 PUSH2 0x1B15 PUSH1 0x2A DUP4 PUSH2 0x14BD JUMP JUMPDEST SWAP2 POP PUSH2 0x1B20 DUP3 PUSH2 0x1AB9 JUMP JUMPDEST PUSH1 0x40 DUP3 ADD SWAP1 POP SWAP2 SWAP1 POP JUMP JUMPDEST PUSH1 0x0 PUSH1 0x20 DUP3 ADD SWAP1 POP DUP2 DUP2 SUB PUSH1 0x0 DUP4 ADD MSTORE PUSH2 0x1B44 DUP2 PUSH2 0x1B08 JUMP JUMPDEST SWAP1 POP SWAP2 SWAP1 POP JUMP JUMPDEST PUSH32 0x766F74696E672068617320656E64656400000000000000000000000000000000 PUSH1 0x0 DUP3 ADD MSTORE POP JUMP JUMPDEST PUSH1 0x0 PUSH2 0x1B81 PUSH1 0x10 DUP4 PUSH2 0x14BD JUMP JUMPDEST SWAP2 POP PUSH2 0x1B8C DUP3 PUSH2 0x1B4B JUMP JUMPDEST PUSH1 0x20 DUP3 ADD SWAP1 POP SWAP2 SWAP1 POP JUMP JUMPDEST PUSH1 0x0 PUSH1 0x20 DUP3 ADD SWAP1 POP DUP2 DUP2 SUB PUSH1 0x0 DUP4 ADD MSTORE PUSH2 0x1BB0 DUP2 PUSH2 0x1B74 JUMP JUMPDEST SWAP1 POP SWAP2 SWAP1 POP JUMP JUMPDEST PUSH32 0x596F7520616C726561647920766F746564000000000000000000000000000000 PUSH1 0x0 DUP3 ADD MSTORE POP JUMP JUMPDEST PUSH1 0x0 PUSH2 0x1BED PUSH1 0x11 DUP4 PUSH2 0x14BD JUMP JUMPDEST SWAP2 POP PUSH2 0x1BF8 DUP3 PUSH2 0x1BB7 JUMP JUMPDEST PUSH1 0x20 DUP3 ADD SWAP1 POP SWAP2 SWAP1 POP JUMP JUMPDEST PUSH1 0x0 PUSH1 0x20 DUP3 ADD SWAP1 POP DUP2 DUP2 SUB PUSH1 0x0 DUP4 ADD MSTORE PUSH2 0x1C1C DUP2 PUSH2 0x1BE0 JUMP JUMPDEST SWAP1 POP SWAP2 SWAP1 POP JUMP JUMPDEST PUSH1 0x0 PUSH1 0x40 DUP3 ADD SWAP1 POP PUSH2 0x1C38 PUSH1 0x0 DUP4 ADD DUP6 PUSH2 0x16DC JUMP JUMPDEST PUSH2 0x1C45 PUSH1 0x20 DUP4 ADD DUP5 PUSH2 0x1786 JUMP JUMPDEST SWAP4 SWAP3 POP POP POP JUMP JUMPDEST PUSH32 0x4E487B7100000000000000000000000000000000000000000000000000000000 PUSH1 0x0 MSTORE PUSH1 0x32 PUSH1 0x4 MSTORE PUSH1 0x24 PUSH1 0x0 REVERT JUMPDEST PUSH32 0x4E487B7100000000000000000000000000000000000000000000000000000000 PUSH1 0x0 MSTORE PUSH1 0x11 PUSH1 0x4 MSTORE PUSH1 0x24 PUSH1 0x0 REVERT JUMPDEST PUSH1 0x0 PUSH2 0x1CB5 DUP3 PUSH2 0x132F JUMP JUMPDEST SWAP2 POP PUSH32 0xFFFFFFFFFFFFFFFFFFFFFFFFFFFFFFFFFFFFFFFFFFFFFFFFFFFFFFFFFFFFFFFF DUP3 EQ ISZERO PUSH2 0x1CE8 JUMPI PUSH2 0x1CE7 PUSH2 0x1C7B JUMP JUMPDEST JUMPDEST PUSH1 0x1 DUP3 ADD SWAP1 POP SWAP2 SWAP1 POP JUMP JUMPDEST PUSH32 0x79657420746F20637265617465206120706F6C6C000000000000000000000000 PUSH1 0x0 DUP3 ADD MSTORE POP JUMP JUMPDEST PUSH1 0x0 PUSH2 0x1D29 PUSH1 0x14 DUP4 PUSH2 0x14BD JUMP JUMPDEST SWAP2 POP PUSH2 0x1D34 DUP3 PUSH2 0x1CF3 JUMP JUMPDEST PUSH1 0x20 DUP3 ADD SWAP1 POP SWAP2 SWAP1 POP JUMP JUMPDEST PUSH1 0x0 PUSH1 0x20 DUP3 ADD SWAP1 POP DUP2 DUP2 SUB PUSH1 0x0 DUP4 ADD MSTORE PUSH2 0x1D58 DUP2 PUSH2 0x1D1C JUMP JUMPDEST SWAP1 POP SWAP2 SWAP1 POP JUMP JUMPDEST PUSH32 0x4E487B7100000000000000000000000000000000000000000000000000000000 PUSH1 0x0 MSTORE PUSH1 0x1 PUSH1 0x4 MSTORE PUSH1 0x24 PUSH1 0x0 REVERT JUMPDEST PUSH32 0x6D6178696D756D206E6F206F662063616E646964617465207065722073657373 PUSH1 0x0 DUP3 ADD MSTORE PUSH32 0x696F6E2072656769737465726564000000000000000000000000000000000000 PUSH1 0x20 DUP3 ADD MSTORE POP JUMP JUMPDEST PUSH1 0x0 PUSH2 0x1DEA PUSH1 0x2E DUP4 PUSH2 0x14BD JUMP JUMPDEST SWAP2 POP PUSH2 0x1DF5 DUP3 PUSH2 0x1D8E JUMP JUMPDEST PUSH1 0x40 DUP3 ADD SWAP1 POP SWAP2 SWAP1 POP JUMP JUMPDEST PUSH1 0x0 PUSH1 0x20 DUP3 ADD SWAP1 POP DUP2 DUP2 SUB PUSH1 0x0 DUP4 ADD MSTORE PUSH2 0x1E19 DUP2 PUSH2 0x1DDD JUMP JUMPDEST SWAP1 POP SWAP2 SWAP1 POP JUMP JUMPDEST PUSH1 0x0 PUSH2 0x1E2B DUP3 PUSH2 0x141C JUMP JUMPDEST SWAP2 POP PUSH2 0xFFFF DUP3 EQ ISZERO PUSH2 0x1E40 JUMPI PUSH2 0x1E3F PUSH2 0x1C7B JUMP JUMPDEST JUMPDEST PUSH1 0x1 DUP3 ADD SWAP1 POP SWAP2 SWAP1 POP JUMP JUMPDEST PUSH1 0x0 PUSH1 0x20 DUP3 ADD SWAP1 POP PUSH2 0x1E60 PUSH1 0x0 DUP4 ADD DUP5 PUSH2 0x16DC JUMP JUMPDEST SWAP3 SWAP2 POP POP JUMP JUMPDEST PUSH32 0x6E6F74207468652063686169726D616E00000000000000000000000000000000 PUSH1 0x0 DUP3 ADD MSTORE POP JUMP JUMPDEST PUSH1 0x0 PUSH2 0x1E9C PUSH1 0x10 DUP4 PUSH2 0x14BD JUMP JUMPDEST SWAP2 POP PUSH2 0x1EA7 DUP3 PUSH2 0x1E66 JUMP JUMPDEST PUSH1 0x20 DUP3 ADD SWAP1 POP SWAP2 SWAP1 POP JUMP JUMPDEST PUSH1 0x0 PUSH1 0x20 DUP3 ADD SWAP1 POP DUP2 DUP2 SUB PUSH1 0x0 DUP4 ADD MSTORE PUSH2 0x1ECB DUP2 PUSH2 0x1E8F JUMP JUMPDEST SWAP1 POP SWAP2 SWAP1 POP JUMP INVALID LOG2 PUSH5 0x6970667358 0x22 SLT KECCAK256 DUP15 SWAP14 0xBA PUSH6 0xEB6CC8EB427C 0xE5 PUSH7 0x3B8687104E0AE3 0xAD PUSH10 0x8895856340D464502D5E 0xA7 PUSH5 0x736F6C6343 STOP ADDMOD EXP STOP CALLER "
				},
				"gasEstimates": {
					"creation": {
						"codeDepositCost": "1588800",
						"executionCost": "1666",
						"totalCost": "1590466"
					},
					"external": {
						"AddCandidate(address,string)": "infinite",
						"AllCandidates(string)": "infinite",
						"NoOfRegisteredCandidates(string)": "infinite",
						"createPoll(string,uint16)": "infinite",
						"listOfPolls(uint256)": "infinite",
						"metaVotingHash(address,string,uint256,uint256)": "infinite",
						"replayNonce(address)": "2814",
						"revealWinner(string)": "infinite",
						"setVotingState(string)": "infinite",
						"vote(address,string)": "infinite",
						"votingPoll(string)": "infinite",
						"withdawFees(string)": "infinite"
					},
					"internal": {
						"countVote(address,string memory,address)": "infinite",
						"getSigner(bytes32,bytes memory)": "infinite"
					}
				},
				"methodIdentifiers": {
					"AddCandidate(address,string)": "57f53967",
					"AllCandidates(string)": "af7cbc0d",
					"NoOfRegisteredCandidates(string)": "8579cacd",
					"createPoll(string,uint16)": "0968d4b1",
					"listOfPolls(uint256)": "a886e61b",
					"metaVotingHash(address,string,uint256,uint256)": "01ff993b",
					"replayNonce(address)": "67d407df",
					"revealWinner(string)": "4fcf1f39",
					"setVotingState(string)": "f0e4de22",
					"vote(address,string)": "1bf533a4",
					"votingPoll(string)": "63ee965a",
					"withdawFees(string)": "82e305ab"
				}
			},
			"storageLayout": {
				"storage": [
					{
						"astId": 33,
						"contract": "src/voting.sol:Voting",
						"label": "listOfPolls",
						"offset": 0,
						"slot": "0",
						"type": "t_array(t_struct(VotingPoll)29_storage)dyn_storage"
					},
					{
						"astId": 38,
						"contract": "src/voting.sol:Voting",
						"label": "votingPoll",
						"offset": 0,
						"slot": "1",
						"type": "t_mapping(t_string_memory_ptr,t_struct(VotingPoll)29_storage)"
					},
					{
						"astId": 42,
						"contract": "src/voting.sol:Voting",
						"label": "replayNonce",
						"offset": 0,
						"slot": "2",
						"type": "t_mapping(t_address,t_uint256)"
					}
				],
				"types": {
					"t_address": {
						"encoding": "inplace",
						"label": "address",
						"numberOfBytes": "20"
					},
					"t_array(t_address)dyn_storage": {
						"base": "t_address",
						"encoding": "dynamic_array",
						"label": "address[]",
						"numberOfBytes": "32"
					},
					"t_array(t_struct(VotingPoll)29_storage)dyn_storage": {
						"base": "t_struct(VotingPoll)29_storage",
						"encoding": "dynamic_array",
						"label": "struct Voting.VotingPoll[]",
						"numberOfBytes": "32"
					},
					"t_bool": {
						"encoding": "inplace",
						"label": "bool",
						"numberOfBytes": "1"
					},
					"t_mapping(t_address,t_bool)": {
						"encoding": "mapping",
						"key": "t_address",
						"label": "mapping(address => bool)",
						"numberOfBytes": "32",
						"value": "t_bool"
					},
					"t_mapping(t_address,t_uint256)": {
						"encoding": "mapping",
						"key": "t_address",
						"label": "mapping(address => uint256)",
						"numberOfBytes": "32",
						"value": "t_uint256"
					},
					"t_mapping(t_string_memory_ptr,t_struct(VotingPoll)29_storage)": {
						"encoding": "mapping",
						"key": "t_string_memory_ptr",
						"label": "mapping(string => struct Voting.VotingPoll)",
						"numberOfBytes": "32",
						"value": "t_struct(VotingPoll)29_storage"
					},
					"t_string_memory_ptr": {
						"encoding": "bytes",
						"label": "string",
						"numberOfBytes": "32"
					},
					"t_struct(VotingPoll)29_storage": {
						"encoding": "inplace",
						"label": "struct Voting.VotingPoll",
						"members": [
							{
								"astId": 3,
								"contract": "src/voting.sol:Voting",
								"label": "chairman",
								"offset": 0,
								"slot": "0",
								"type": "t_address"
							},
							{
								"astId": 6,
								"contract": "src/voting.sol:Voting",
								"label": "candidates",
								"offset": 0,
								"slot": "1",
								"type": "t_array(t_address)dyn_storage"
							},
							{
								"astId": 8,
								"contract": "src/voting.sol:Voting",
								"label": "maxNoOfCandidates",
								"offset": 0,
								"slot": "2",
								"type": "t_uint32"
							},
							{
								"astId": 10,
								"contract": "src/voting.sol:Voting",
								"label": "startTime",
								"offset": 4,
								"slot": "2",
								"type": "t_uint64"
							},
							{
								"astId": 12,
								"contract": "src/voting.sol:Voting",
								"label": "amountGenerated",
								"offset": 12,
								"slot": "2",
								"type": "t_uint64"
							},
							{
								"astId": 14,
								"contract": "src/voting.sol:Voting",
								"label": "currentNoOfCandidates",
								"offset": 20,
								"slot": "2",
								"type": "t_uint16"
							},
							{
								"astId": 16,
								"contract": "src/voting.sol:Voting",
								"label": "voting",
								"offset": 22,
								"slot": "2",
								"type": "t_bool"
							},
							{
								"astId": 20,
								"contract": "src/voting.sol:Voting",
								"label": "CandidateStatus",
								"offset": 0,
								"slot": "3",
								"type": "t_mapping(t_address,t_bool)"
							},
							{
								"astId": 24,
								"contract": "src/voting.sol:Voting",
								"label": "hasVoted",
								"offset": 0,
								"slot": "4",
								"type": "t_mapping(t_address,t_bool)"
							},
							{
								"astId": 28,
								"contract": "src/voting.sol:Voting",
								"label": "CandidateVote",
								"offset": 0,
								"slot": "5",
								"type": "t_mapping(t_address,t_uint256)"
							}
						],
						"numberOfBytes": "192"
					},
					"t_uint16": {
						"encoding": "inplace",
						"label": "uint16",
						"numberOfBytes": "2"
					},
					"t_uint256": {
						"encoding": "inplace",
						"label": "uint256",
						"numberOfBytes": "32"
					},
					"t_uint32": {
						"encoding": "inplace",
						"label": "uint32",
						"numberOfBytes": "4"
					},
					"t_uint64": {
						"encoding": "inplace",
						"label": "uint64",
						"numberOfBytes": "8"
					}
				}
			},
			"userdoc": {
				"kind": "user",
				"methods": {},
				"version": 1
			}
		}
	}
}