{
	"src/voting.sol": {
		"Voting": {
			"abi": [
				{
					"anonymous": false,
					"inputs": [
						{
							"indexed": false,
							"internalType": "address",
							"name": "NewCandidate",
							"type": "address"
						}
					],
					"name": "becameCandidate",
					"type": "event"
				},
				{
					"anonymous": false,
					"inputs": [
						{
							"indexed": false,
							"internalType": "address",
							"name": "_candidate",
							"type": "address"
						},
						{
							"indexed": false,
							"internalType": "bool",
							"name": "status",
							"type": "bool"
						}
					],
					"name": "voted",
					"type": "event"
				},
				{
					"inputs": [
						{
							"internalType": "address",
							"name": "_newCandidate",
							"type": "address"
						},
						{
							"internalType": "string",
							"name": "_name",
							"type": "string"
						}
					],
					"name": "AddCandidate",
					"outputs": [],
					"stateMutability": "nonpayable",
					"type": "function"
				},
				{
					"inputs": [
						{
							"internalType": "string",
							"name": "_name",
							"type": "string"
						}
					],
					"name": "AllCandidates",
					"outputs": [
						{
							"internalType": "address[]",
							"name": "_candidates",
							"type": "address[]"
						}
					],
					"stateMutability": "view",
					"type": "function"
				},
				{
					"inputs": [
						{
							"internalType": "string",
							"name": "_name",
							"type": "string"
						}
					],
					"name": "NoOfRegisteredCandidates",
					"outputs": [
						{
							"internalType": "uint256",
							"name": "",
							"type": "uint256"
						}
					],
					"stateMutability": "view",
					"type": "function"
				},
				{
					"inputs": [
						{
							"internalType": "string",
							"name": "_name",
							"type": "string"
						},
						{
							"internalType": "uint256",
							"name": "_regFee",
							"type": "uint256"
						},
						{
							"internalType": "uint16",
							"name": "ExpectedNoOfCandidate",
							"type": "uint16"
						}
					],
					"name": "createPoll",
					"outputs": [
						{
							"internalType": "string",
							"name": "",
							"type": "string"
						},
						{
							"internalType": "uint256",
							"name": "regFee",
							"type": "uint256"
						},
						{
							"internalType": "uint256",
							"name": "Candidate",
							"type": "uint256"
						}
					],
					"stateMutability": "nonpayable",
					"type": "function"
				},
				{
					"inputs": [
						{
							"internalType": "uint256",
							"name": "",
							"type": "uint256"
						}
					],
					"name": "listOfPolls",
					"outputs": [
						{
							"internalType": "address",
							"name": "chairman",
							"type": "address"
						},
						{
							"internalType": "uint16",
							"name": "regFee",
							"type": "uint16"
						},
						{
							"internalType": "uint32",
							"name": "maxNoOfCandidates",
							"type": "uint32"
						},
						{
							"internalType": "uint64",
							"name": "startTime",
							"type": "uint64"
						},
						{
							"internalType": "uint64",
							"name": "amountGenerated",
							"type": "uint64"
						},
						{
							"internalType": "uint16",
							"name": "currentNoOfCandidates",
							"type": "uint16"
						},
						{
							"internalType": "bool",
							"name": "voting",
							"type": "bool"
						}
					],
					"stateMutability": "view",
					"type": "function"
				},
				{
					"inputs": [
						{
							"internalType": "address",
							"name": "Cand",
							"type": "address"
						},
						{
							"internalType": "string",
							"name": "_name",
							"type": "string"
						},
						{
							"internalType": "uint256",
							"name": "nonce",
							"type": "uint256"
						},
						{
							"internalType": "uint256",
							"name": "time",
							"type": "uint256"
						}
					],
					"name": "metaVotingHash",
					"outputs": [
						{
							"internalType": "bytes32",
							"name": "",
							"type": "bytes32"
						}
					],
					"stateMutability": "view",
					"type": "function"
				},
				{
					"inputs": [
						{
							"internalType": "address",
							"name": "",
							"type": "address"
						}
					],
					"name": "replayNonce",
					"outputs": [
						{
							"internalType": "uint256",
							"name": "",
							"type": "uint256"
						}
					],
					"stateMutability": "view",
					"type": "function"
				},
				{
					"inputs": [
						{
							"internalType": "string",
							"name": "_name",
							"type": "string"
						}
					],
					"name": "revealWinner",
					"outputs": [
						{
							"internalType": "uint256[]",
							"name": "CV",
							"type": "uint256[]"
						},
						{
							"internalType": "address",
							"name": "",
							"type": "address"
						},
						{
							"internalType": "uint256",
							"name": "",
							"type": "uint256"
						}
					],
					"stateMutability": "view",
					"type": "function"
				},
				{
					"inputs": [
						{
							"internalType": "string",
							"name": "_name",
							"type": "string"
						}
					],
					"name": "setVotingState",
					"outputs": [],
					"stateMutability": "nonpayable",
					"type": "function"
				},
				{
					"inputs": [
						{
							"internalType": "address",
							"name": "Cand",
							"type": "address"
						},
						{
							"internalType": "string",
							"name": "_name",
							"type": "string"
						},
						{
							"internalType": "uint256",
							"name": "nonce",
							"type": "uint256"
						},
						{
							"internalType": "bytes",
							"name": "signature",
							"type": "bytes"
						}
					],
					"name": "vote",
					"outputs": [],
					"stateMutability": "nonpayable",
					"type": "function"
				},
				{
					"inputs": [
						{
							"internalType": "string",
							"name": "",
							"type": "string"
						}
					],
					"name": "votingPoll",
					"outputs": [
						{
							"internalType": "address",
							"name": "chairman",
							"type": "address"
						},
						{
							"internalType": "uint16",
							"name": "regFee",
							"type": "uint16"
						},
						{
							"internalType": "uint32",
							"name": "maxNoOfCandidates",
							"type": "uint32"
						},
						{
							"internalType": "uint64",
							"name": "startTime",
							"type": "uint64"
						},
						{
							"internalType": "uint64",
							"name": "amountGenerated",
							"type": "uint64"
						},
						{
							"internalType": "uint16",
							"name": "currentNoOfCandidates",
							"type": "uint16"
						},
						{
							"internalType": "bool",
							"name": "voting",
							"type": "bool"
						}
					],
					"stateMutability": "view",
					"type": "function"
				},
				{
					"inputs": [
						{
							"internalType": "string",
							"name": "_name",
							"type": "string"
						}
					],
					"name": "withdawFees",
					"outputs": [],
					"stateMutability": "payable",
					"type": "function"
				},
				{
					"stateMutability": "payable",
					"type": "receive"
				}
			],
			"devdoc": {
				"kind": "dev",
				"methods": {},
				"version": 1
			},
			"evm": {
				"assembly": "    /* \"src/voting.sol\":63:5391  contract Voting{... */\n  mstore(0x40, 0x80)\n  callvalue\n  dup1\n  iszero\n  tag_1\n  jumpi\n  0x00\n  dup1\n  revert\ntag_1:\n  pop\n  dataSize(sub_0)\n  dup1\n  dataOffset(sub_0)\n  0x00\n  codecopy\n  0x00\n  return\nstop\n\nsub_0: assembly {\n        /* \"src/voting.sol\":63:5391  contract Voting{... */\n      mstore(0x40, 0x80)\n      jumpi(tag_1, lt(calldatasize, 0x04))\n      shr(0xe0, calldataload(0x00))\n      dup1\n      0x67d407df\n      gt\n      tag_15\n      jumpi\n      dup1\n      0x67d407df\n      eq\n      tag_9\n      jumpi\n      dup1\n      0x82e305ab\n      eq\n      tag_10\n      jumpi\n      dup1\n      0x8579cacd\n      eq\n      tag_11\n      jumpi\n      dup1\n      0xa886e61b\n      eq\n      tag_12\n      jumpi\n      dup1\n      0xaf7cbc0d\n      eq\n      tag_13\n      jumpi\n      dup1\n      0xf0e4de22\n      eq\n      tag_14\n      jumpi\n      jump(tag_2)\n    tag_15:\n      dup1\n      0x11ea6f\n      eq\n      tag_3\n      jumpi\n      dup1\n      0x01ff993b\n      eq\n      tag_4\n      jumpi\n      dup1\n      0x12f0da4b\n      eq\n      tag_5\n      jumpi\n      dup1\n      0x4fcf1f39\n      eq\n      tag_6\n      jumpi\n      dup1\n      0x57f53967\n      eq\n      tag_7\n      jumpi\n      dup1\n      0x63ee965a\n      eq\n      tag_8\n      jumpi\n      jump(tag_2)\n    tag_1:\n      jumpi(tag_2, calldatasize)\n      stop\n    tag_2:\n      0x00\n      dup1\n      revert\n        /* \"src/voting.sol\":1533:1880  function createPoll(string memory _name,  uint _regFee, uint16 ExpectedNoOfCandidate) external returns(string memory, uint regFee, uint Candidate){... */\n    tag_3:\n      callvalue\n      dup1\n      iszero\n      tag_18\n      jumpi\n      0x00\n      dup1\n      revert\n    tag_18:\n      pop\n      tag_19\n      0x04\n      dup1\n      calldatasize\n      sub\n      dup2\n      add\n      swap1\n      tag_20\n      swap2\n      swap1\n      tag_21\n      jump\t// in\n    tag_20:\n      tag_22\n      jump\t// in\n    tag_19:\n      mload(0x40)\n      tag_23\n      swap4\n      swap3\n      swap2\n      swap1\n      tag_24\n      jump\t// in\n    tag_23:\n      mload(0x40)\n      dup1\n      swap2\n      sub\n      swap1\n      return\n        /* \"src/voting.sol\":4542:4770  function metaVotingHash(address Cand, string memory _name, uint256 nonce, uint256 time) public view returns(bytes32){... */\n    tag_4:\n      callvalue\n      dup1\n      iszero\n      tag_25\n      jumpi\n      0x00\n      dup1\n      revert\n    tag_25:\n      pop\n      tag_26\n      0x04\n      dup1\n      calldatasize\n      sub\n      dup2\n      add\n      swap1\n      tag_27\n      swap2\n      swap1\n      tag_28\n      jump\t// in\n    tag_27:\n      tag_29\n      jump\t// in\n    tag_26:\n      mload(0x40)\n      tag_30\n      swap2\n      swap1\n      tag_31\n      jump\t// in\n    tag_30:\n      mload(0x40)\n      dup1\n      swap2\n      sub\n      swap1\n      return\n        /* \"src/voting.sol\":2399:2956  function vote(address Cand, string memory _name, uint256 nonce, bytes memory signature) external  isCandidate(Cand, _name) StillVoting(_name){... */\n    tag_5:\n      callvalue\n      dup1\n      iszero\n      tag_32\n      jumpi\n      0x00\n      dup1\n      revert\n    tag_32:\n      pop\n      tag_33\n      0x04\n      dup1\n      calldatasize\n      sub\n      dup2\n      add\n      swap1\n      tag_34\n      swap2\n      swap1\n      tag_35\n      jump\t// in\n    tag_34:\n      tag_36\n      jump\t// in\n    tag_33:\n      stop\n        /* \"src/voting.sol\":3562:4105  function revealWinner( string memory _name) external view returns ( uint[] memory CV, address, uint){... */\n    tag_6:\n      callvalue\n      dup1\n      iszero\n      tag_37\n      jumpi\n      0x00\n      dup1\n      revert\n    tag_37:\n      pop\n      tag_38\n      0x04\n      dup1\n      calldatasize\n      sub\n      dup2\n      add\n      swap1\n      tag_39\n      swap2\n      swap1\n      tag_40\n      jump\t// in\n    tag_39:\n      tag_41\n      jump\t// in\n    tag_38:\n      mload(0x40)\n      tag_42\n      swap4\n      swap3\n      swap2\n      swap1\n      tag_43\n      jump\t// in\n    tag_42:\n      mload(0x40)\n      dup1\n      swap2\n      sub\n      swap1\n      return\n        /* \"src/voting.sol\":1884:2396  function AddCandidate(address _newCandidate, string memory _name) external{... */\n    tag_7:\n      callvalue\n      dup1\n      iszero\n      tag_44\n      jumpi\n      0x00\n      dup1\n      revert\n    tag_44:\n      pop\n      tag_45\n      0x04\n      dup1\n      calldatasize\n      sub\n      dup2\n      add\n      swap1\n      tag_46\n      swap2\n      swap1\n      tag_47\n      jump\t// in\n    tag_46:\n      tag_48\n      jump\t// in\n    tag_45:\n      stop\n        /* \"src/voting.sol\":721:768  mapping(string => VotingPoll) public votingPoll */\n    tag_8:\n      callvalue\n      dup1\n      iszero\n      tag_49\n      jumpi\n      0x00\n      dup1\n      revert\n    tag_49:\n      pop\n      tag_50\n      0x04\n      dup1\n      calldatasize\n      sub\n      dup2\n      add\n      swap1\n      tag_51\n      swap2\n      swap1\n      tag_40\n      jump\t// in\n    tag_51:\n      tag_52\n      jump\t// in\n    tag_50:\n      mload(0x40)\n      tag_53\n      swap8\n      swap7\n      swap6\n      swap5\n      swap4\n      swap3\n      swap2\n      swap1\n      tag_54\n      jump\t// in\n    tag_53:\n      mload(0x40)\n      dup1\n      swap2\n      sub\n      swap1\n      return\n        /* \"src/voting.sol\":774:821  mapping (address => uint256) public replayNonce */\n    tag_9:\n      callvalue\n      dup1\n      iszero\n      tag_55\n      jumpi\n      0x00\n      dup1\n      revert\n    tag_55:\n      pop\n      tag_56\n      0x04\n      dup1\n      calldatasize\n      sub\n      dup2\n      add\n      swap1\n      tag_57\n      swap2\n      swap1\n      tag_58\n      jump\t// in\n    tag_57:\n      tag_59\n      jump\t// in\n    tag_56:\n      mload(0x40)\n      tag_60\n      swap2\n      swap1\n      tag_61\n      jump\t// in\n    tag_60:\n      mload(0x40)\n      dup1\n      swap2\n      sub\n      swap1\n      return\n        /* \"src/voting.sol\":4312:4537  function withdawFees(string memory _name) external payable{... */\n    tag_10:\n      tag_62\n      0x04\n      dup1\n      calldatasize\n      sub\n      dup2\n      add\n      swap1\n      tag_63\n      swap2\n      swap1\n      tag_40\n      jump\t// in\n    tag_63:\n      tag_64\n      jump\t// in\n    tag_62:\n      stop\n        /* \"src/voting.sol\":3207:3378  function NoOfRegisteredCandidates( string memory _name) public view returns(uint){... */\n    tag_11:\n      callvalue\n      dup1\n      iszero\n      tag_65\n      jumpi\n      0x00\n      dup1\n      revert\n    tag_65:\n      pop\n      tag_66\n      0x04\n      dup1\n      calldatasize\n      sub\n      dup2\n      add\n      swap1\n      tag_67\n      swap2\n      swap1\n      tag_40\n      jump\t// in\n    tag_67:\n      tag_68\n      jump\t// in\n    tag_66:\n      mload(0x40)\n      tag_69\n      swap2\n      swap1\n      tag_61\n      jump\t// in\n    tag_69:\n      mload(0x40)\n      dup1\n      swap2\n      sub\n      swap1\n      return\n        /* \"src/voting.sol\":628:659  VotingPoll[] public listOfPolls */\n    tag_12:\n      callvalue\n      dup1\n      iszero\n      tag_70\n      jumpi\n      0x00\n      dup1\n      revert\n    tag_70:\n      pop\n      tag_71\n      0x04\n      dup1\n      calldatasize\n      sub\n      dup2\n      add\n      swap1\n      tag_72\n      swap2\n      swap1\n      tag_73\n      jump\t// in\n    tag_72:\n      tag_74\n      jump\t// in\n    tag_71:\n      mload(0x40)\n      tag_75\n      swap8\n      swap7\n      swap6\n      swap5\n      swap4\n      swap3\n      swap2\n      swap1\n      tag_54\n      jump\t// in\n    tag_75:\n      mload(0x40)\n      dup1\n      swap2\n      sub\n      swap1\n      return\n        /* \"src/voting.sol\":3386:3559  function AllCandidates( string memory _name) public view returns(address[] memory _candidates){... */\n    tag_13:\n      callvalue\n      dup1\n      iszero\n      tag_76\n      jumpi\n      0x00\n      dup1\n      revert\n    tag_76:\n      pop\n      tag_77\n      0x04\n      dup1\n      calldatasize\n      sub\n      dup2\n      add\n      swap1\n      tag_78\n      swap2\n      swap1\n      tag_40\n      jump\t// in\n    tag_78:\n      tag_79\n      jump\t// in\n    tag_77:\n      mload(0x40)\n      tag_80\n      swap2\n      swap1\n      tag_81\n      jump\t// in\n    tag_80:\n      mload(0x40)\n      dup1\n      swap2\n      sub\n      swap1\n      return\n        /* \"src/voting.sol\":4108:4310  function setVotingState( string memory _name) external {... */\n    tag_14:\n      callvalue\n      dup1\n      iszero\n      tag_82\n      jumpi\n      0x00\n      dup1\n      revert\n    tag_82:\n      pop\n      tag_83\n      0x04\n      dup1\n      calldatasize\n      sub\n      dup2\n      add\n      swap1\n      tag_84\n      swap2\n      swap1\n      tag_40\n      jump\t// in\n    tag_84:\n      tag_85\n      jump\t// in\n    tag_83:\n      stop\n        /* \"src/voting.sol\":1533:1880  function createPoll(string memory _name,  uint _regFee, uint16 ExpectedNoOfCandidate) external returns(string memory, uint regFee, uint Candidate){... */\n    tag_22:\n        /* \"src/voting.sol\":1636:1649  string memory */\n      0x60\n        /* \"src/voting.sol\":1651:1662  uint regFee */\n      0x00\n        /* \"src/voting.sol\":1664:1678  uint Candidate */\n      dup1\n        /* \"src/voting.sol\":1685:1706  VotingPoll storage VP */\n      0x00\n        /* \"src/voting.sol\":1709:1719  votingPoll */\n      0x01\n        /* \"src/voting.sol\":1720:1725  _name */\n      dup8\n        /* \"src/voting.sol\":1709:1726  votingPoll[_name] */\n      mload(0x40)\n      tag_87\n      swap2\n      swap1\n      tag_88\n      jump\t// in\n    tag_87:\n      swap1\n      dup2\n      mstore\n      0x20\n      add\n      mload(0x40)\n      dup1\n      swap2\n      sub\n      swap1\n      keccak256\n        /* \"src/voting.sol\":1685:1726  VotingPoll storage VP = votingPoll[_name] */\n      swap1\n      pop\n        /* \"src/voting.sol\":1751:1758  _regFee */\n      dup6\n        /* \"src/voting.sol\":1732:1734  VP */\n      dup2\n        /* \"src/voting.sol\":1732:1741  VP.regFee */\n      0x02\n      add\n      0x00\n        /* \"src/voting.sol\":1732:1759  VP.regFee = uint16(_regFee) */\n      0x0100\n      exp\n      dup2\n      sload\n      dup2\n      0xffff\n      mul\n      not\n      and\n      swap1\n      dup4\n      0xffff\n      and\n      mul\n      or\n      swap1\n      sstore\n      pop\n        /* \"src/voting.sol\":1779:1789  msg.sender */\n      caller\n        /* \"src/voting.sol\":1765:1767  VP */\n      dup2\n        /* \"src/voting.sol\":1765:1776  VP.chairman */\n      0x00\n      add\n      0x00\n        /* \"src/voting.sol\":1765:1789  VP.chairman = msg.sender */\n      0x0100\n      exp\n      dup2\n      sload\n      dup2\n      0xffffffffffffffffffffffffffffffffffffffff\n      mul\n      not\n      and\n      swap1\n      dup4\n      0xffffffffffffffffffffffffffffffffffffffff\n      and\n      mul\n      or\n      swap1\n      sstore\n      pop\n        /* \"src/voting.sol\":1817:1838  ExpectedNoOfCandidate */\n      dup5\n        /* \"src/voting.sol\":1795:1838  VP.maxNoOfCandidates =ExpectedNoOfCandidate */\n      0xffff\n      and\n        /* \"src/voting.sol\":1795:1797  VP */\n      dup2\n        /* \"src/voting.sol\":1795:1815  VP.maxNoOfCandidates */\n      0x02\n      add\n      0x02\n        /* \"src/voting.sol\":1795:1838  VP.maxNoOfCandidates =ExpectedNoOfCandidate */\n      0x0100\n      exp\n      dup2\n      sload\n      dup2\n      0xffffffff\n      mul\n      not\n      and\n      swap1\n      dup4\n      0xffffffff\n      and\n      mul\n      or\n      swap1\n      sstore\n      pop\n        /* \"src/voting.sol\":1851:1856  _name */\n      dup7\n        /* \"src/voting.sol\":1858:1865  _regFee */\n      dup7\n        /* \"src/voting.sol\":1844:1877  return(_name, _regFee, Candidate) */\n      swap4\n      pop\n      swap4\n      pop\n      pop\n        /* \"src/voting.sol\":1533:1880  function createPoll(string memory _name,  uint _regFee, uint16 ExpectedNoOfCandidate) external returns(string memory, uint regFee, uint Candidate){... */\n      swap4\n      pop\n      swap4\n      pop\n      swap4\n      swap1\n      pop\n      jump\t// out\n        /* \"src/voting.sol\":4542:4770  function metaVotingHash(address Cand, string memory _name, uint256 nonce, uint256 time) public view returns(bytes32){... */\n    tag_29:\n        /* \"src/voting.sol\":4650:4657  bytes32 */\n      0x00\n        /* \"src/voting.sol\":4706:4710  this */\n      address\n        /* \"src/voting.sol\":4739:4743  Cand */\n      dup6\n        /* \"src/voting.sol\":4745:4750  _name */\n      dup6\n        /* \"src/voting.sol\":4752:4757  nonce */\n      dup6\n        /* \"src/voting.sol\":4759:4763  time */\n      dup6\n        /* \"src/voting.sol\":4681:4764  abi.encodePacked(address(this),\"metatransaction Voting \", Cand, _name, nonce, time) */\n      add(0x20, mload(0x40))\n      tag_90\n      swap6\n      swap5\n      swap4\n      swap3\n      swap2\n      swap1\n      tag_91\n      jump\t// in\n    tag_90:\n      mload(0x40)\n      0x20\n      dup2\n      dup4\n      sub\n      sub\n      dup2\n      mstore\n      swap1\n      0x40\n      mstore\n        /* \"src/voting.sol\":4671:4765  keccak256(abi.encodePacked(address(this),\"metatransaction Voting \", Cand, _name, nonce, time)) */\n      dup1\n      mload\n      swap1\n      0x20\n      add\n      keccak256\n        /* \"src/voting.sol\":4664:4765  return keccak256(abi.encodePacked(address(this),\"metatransaction Voting \", Cand, _name, nonce, time)) */\n      swap1\n      pop\n        /* \"src/voting.sol\":4542:4770  function metaVotingHash(address Cand, string memory _name, uint256 nonce, uint256 time) public view returns(bytes32){... */\n      swap5\n      swap4\n      pop\n      pop\n      pop\n      pop\n      jump\t// out\n        /* \"src/voting.sol\":2399:2956  function vote(address Cand, string memory _name, uint256 nonce, bytes memory signature) external  isCandidate(Cand, _name) StillVoting(_name){... */\n    tag_36:\n        /* \"src/voting.sol\":2509:2513  Cand */\n      dup4\n        /* \"src/voting.sol\":2515:2520  _name */\n      dup4\n        /* \"src/voting.sol\":1101:1122  VotingPoll storage VP */\n      0x00\n        /* \"src/voting.sol\":1125:1135  votingPoll */\n      0x01\n        /* \"src/voting.sol\":1136:1141  _name */\n      dup3\n        /* \"src/voting.sol\":1125:1142  votingPoll[_name] */\n      mload(0x40)\n      tag_93\n      swap2\n      swap1\n      tag_88\n      jump\t// in\n    tag_93:\n      swap1\n      dup2\n      mstore\n      0x20\n      add\n      mload(0x40)\n      dup1\n      swap2\n      sub\n      swap1\n      keccak256\n        /* \"src/voting.sol\":1101:1142  VotingPoll storage VP = votingPoll[_name] */\n      swap1\n      pop\n        /* \"src/voting.sol\":1182:1186  true */\n      0x01\n        /* \"src/voting.sol\":1156:1186  VP.CandidateStatus[Cand]==true */\n      iszero\n      iszero\n        /* \"src/voting.sol\":1156:1158  VP */\n      dup2\n        /* \"src/voting.sol\":1156:1174  VP.CandidateStatus */\n      0x03\n      add\n        /* \"src/voting.sol\":1156:1180  VP.CandidateStatus[Cand] */\n      0x00\n        /* \"src/voting.sol\":1175:1179  Cand */\n      dup6\n        /* \"src/voting.sol\":1156:1180  VP.CandidateStatus[Cand] */\n      0xffffffffffffffffffffffffffffffffffffffff\n      and\n      0xffffffffffffffffffffffffffffffffffffffff\n      and\n      dup2\n      mstore\n      0x20\n      add\n      swap1\n      dup2\n      mstore\n      0x20\n      add\n      0x00\n      keccak256\n      0x00\n      swap1\n      sload\n      swap1\n      0x0100\n      exp\n      swap1\n      div\n      0xff\n      and\n        /* \"src/voting.sol\":1156:1186  VP.CandidateStatus[Cand]==true */\n      iszero\n      iszero\n      eq\n        /* \"src/voting.sol\":1148:1232  require(VP.CandidateStatus[Cand]==true,'This address does not exist as a candidate') */\n      tag_94\n      jumpi\n      mload(0x40)\n      0x08c379a000000000000000000000000000000000000000000000000000000000\n      dup2\n      mstore\n      0x04\n      add\n      tag_95\n      swap1\n      tag_96\n      jump\t// in\n    tag_95:\n      mload(0x40)\n      dup1\n      swap2\n      sub\n      swap1\n      revert\n    tag_94:\n        /* \"src/voting.sol\":2534:2539  _name */\n      dup6\n        /* \"src/voting.sol\":1293:1314  VotingPoll storage VP */\n      0x00\n        /* \"src/voting.sol\":1317:1327  votingPoll */\n      0x01\n        /* \"src/voting.sol\":1328:1333  _name */\n      dup3\n        /* \"src/voting.sol\":1317:1334  votingPoll[_name] */\n      mload(0x40)\n      tag_98\n      swap2\n      swap1\n      tag_88\n      jump\t// in\n    tag_98:\n      swap1\n      dup2\n      mstore\n      0x20\n      add\n      mload(0x40)\n      dup1\n      swap2\n      sub\n      swap1\n      keccak256\n        /* \"src/voting.sol\":1293:1334  VotingPoll storage VP = votingPoll[_name] */\n      swap1\n      pop\n        /* \"src/voting.sol\":1361:1365  true */\n      0x01\n        /* \"src/voting.sol\":1348:1365  VP.voting == true */\n      iszero\n      iszero\n        /* \"src/voting.sol\":1348:1350  VP */\n      dup2\n        /* \"src/voting.sol\":1348:1357  VP.voting */\n      0x02\n      add\n      0x18\n      swap1\n      sload\n      swap1\n      0x0100\n      exp\n      swap1\n      div\n      0xff\n      and\n        /* \"src/voting.sol\":1348:1365  VP.voting == true */\n      iszero\n      iszero\n      eq\n        /* \"src/voting.sol\":1340:1386  require(VP.voting == true, \"voting has ended\") */\n      tag_99\n      jumpi\n      mload(0x40)\n      0x08c379a000000000000000000000000000000000000000000000000000000000\n      dup2\n      mstore\n      0x04\n      add\n      tag_100\n      swap1\n      tag_101\n      jump\t// in\n    tag_100:\n      mload(0x40)\n      dup1\n      swap2\n      sub\n      swap1\n      revert\n    tag_99:\n        /* \"src/voting.sol\":2547:2563  bytes32 metaHash */\n      0x00\n        /* \"src/voting.sol\":2566:2614  metaVotingHash(Cand,_name,nonce,block.timestamp) */\n      tag_103\n        /* \"src/voting.sol\":2581:2585  Cand */\n      dup11\n        /* \"src/voting.sol\":2586:2591  _name */\n      dup11\n        /* \"src/voting.sol\":2592:2597  nonce */\n      dup11\n        /* \"src/voting.sol\":2598:2613  block.timestamp */\n      timestamp\n        /* \"src/voting.sol\":2566:2580  metaVotingHash */\n      tag_29\n        /* \"src/voting.sol\":2566:2614  metaVotingHash(Cand,_name,nonce,block.timestamp) */\n      jump\t// in\n    tag_103:\n        /* \"src/voting.sol\":2547:2614  bytes32 metaHash = metaVotingHash(Cand,_name,nonce,block.timestamp) */\n      swap1\n      pop\n        /* \"src/voting.sol\":2621:2635  address signer */\n      0x00\n        /* \"src/voting.sol\":2638:2667  getSigner(metaHash,signature) */\n      tag_104\n        /* \"src/voting.sol\":2648:2656  metaHash */\n      dup3\n        /* \"src/voting.sol\":2657:2666  signature */\n      dup10\n        /* \"src/voting.sol\":2638:2647  getSigner */\n      tag_105\n        /* \"src/voting.sol\":2638:2667  getSigner(metaHash,signature) */\n      jump\t// in\n    tag_104:\n        /* \"src/voting.sol\":2621:2667  address signer = getSigner(metaHash,signature) */\n      swap1\n      pop\n        /* \"src/voting.sol\":2698:2699  0 */\n      0x00\n        /* \"src/voting.sol\":2682:2700  signer!=address(0) */\n      0xffffffffffffffffffffffffffffffffffffffff\n      and\n        /* \"src/voting.sol\":2682:2688  signer */\n      dup2\n        /* \"src/voting.sol\":2682:2700  signer!=address(0) */\n      0xffffffffffffffffffffffffffffffffffffffff\n      and\n      eq\n      iszero\n        /* \"src/voting.sol\":2674:2701  require(signer!=address(0)) */\n      tag_106\n      jumpi\n      0x00\n      dup1\n      revert\n    tag_106:\n        /* \"src/voting.sol\":2724:2735  replayNonce */\n      0x02\n        /* \"src/voting.sol\":2724:2743  replayNonce[signer] */\n      0x00\n        /* \"src/voting.sol\":2736:2742  signer */\n      dup3\n        /* \"src/voting.sol\":2724:2743  replayNonce[signer] */\n      0xffffffffffffffffffffffffffffffffffffffff\n      and\n      0xffffffffffffffffffffffffffffffffffffffff\n      and\n      dup2\n      mstore\n      0x20\n      add\n      swap1\n      dup2\n      mstore\n      0x20\n      add\n      0x00\n      keccak256\n      sload\n        /* \"src/voting.sol\":2715:2720  nonce */\n      dup10\n        /* \"src/voting.sol\":2715:2743  nonce == replayNonce[signer] */\n      eq\n        /* \"src/voting.sol\":2707:2744  require(nonce == replayNonce[signer]) */\n      tag_107\n      jumpi\n      0x00\n      dup1\n      revert\n    tag_107:\n        /* \"src/voting.sol\":2750:2761  replayNonce */\n      0x02\n        /* \"src/voting.sol\":2750:2769  replayNonce[signer] */\n      0x00\n        /* \"src/voting.sol\":2762:2768  signer */\n      dup3\n        /* \"src/voting.sol\":2750:2769  replayNonce[signer] */\n      0xffffffffffffffffffffffffffffffffffffffff\n      and\n      0xffffffffffffffffffffffffffffffffffffffff\n      and\n      dup2\n      mstore\n      0x20\n      add\n      swap1\n      dup2\n      mstore\n      0x20\n      add\n      0x00\n      keccak256\n      0x00\n        /* \"src/voting.sol\":2750:2771  replayNonce[signer]++ */\n      dup2\n      sload\n      dup1\n      swap3\n      swap2\n      swap1\n      tag_108\n      swap1\n      tag_109\n      jump\t// in\n    tag_108:\n      swap2\n      swap1\n      pop\n      sstore\n      pop\n        /* \"src/voting.sol\":2778:2799  VotingPoll storage VP */\n      0x00\n        /* \"src/voting.sol\":2802:2812  votingPoll */\n      0x01\n        /* \"src/voting.sol\":2813:2818  _name */\n      dup12\n        /* \"src/voting.sol\":2802:2819  votingPoll[_name] */\n      mload(0x40)\n      tag_110\n      swap2\n      swap1\n      tag_88\n      jump\t// in\n    tag_110:\n      swap1\n      dup2\n      mstore\n      0x20\n      add\n      mload(0x40)\n      dup1\n      swap2\n      sub\n      swap1\n      keccak256\n        /* \"src/voting.sol\":2778:2819  VotingPoll storage VP = votingPoll[_name] */\n      swap1\n      pop\n        /* \"src/voting.sol\":2857:2862  false */\n      0x00\n        /* \"src/voting.sol\":2834:2862  VP.hasVoted[signer] == false */\n      iszero\n      iszero\n        /* \"src/voting.sol\":2834:2836  VP */\n      dup2\n        /* \"src/voting.sol\":2834:2845  VP.hasVoted */\n      0x04\n      add\n        /* \"src/voting.sol\":2834:2853  VP.hasVoted[signer] */\n      0x00\n        /* \"src/voting.sol\":2846:2852  signer */\n      dup5\n        /* \"src/voting.sol\":2834:2853  VP.hasVoted[signer] */\n      0xffffffffffffffffffffffffffffffffffffffff\n      and\n      0xffffffffffffffffffffffffffffffffffffffff\n      and\n      dup2\n      mstore\n      0x20\n      add\n      swap1\n      dup2\n      mstore\n      0x20\n      add\n      0x00\n      keccak256\n      0x00\n      swap1\n      sload\n      swap1\n      0x0100\n      exp\n      swap1\n      div\n      0xff\n      and\n        /* \"src/voting.sol\":2834:2862  VP.hasVoted[signer] == false */\n      iszero\n      iszero\n      eq\n        /* \"src/voting.sol\":2826:2884  require(VP.hasVoted[signer] == false, \"You already voted\") */\n      tag_111\n      jumpi\n      mload(0x40)\n      0x08c379a000000000000000000000000000000000000000000000000000000000\n      dup2\n      mstore\n      0x04\n      add\n      tag_112\n      swap1\n      tag_113\n      jump\t// in\n    tag_112:\n      mload(0x40)\n      dup1\n      swap2\n      sub\n      swap1\n      revert\n    tag_111:\n        /* \"src/voting.sol\":2892:2922  countVote(Cand, _name, signer) */\n      tag_114\n        /* \"src/voting.sol\":2902:2906  Cand */\n      dup13\n        /* \"src/voting.sol\":2908:2913  _name */\n      dup13\n        /* \"src/voting.sol\":2915:2921  signer */\n      dup5\n        /* \"src/voting.sol\":2892:2901  countVote */\n      tag_115\n        /* \"src/voting.sol\":2892:2922  countVote(Cand, _name, signer) */\n      jump\t// in\n    tag_114:\n      pop\n        /* \"src/voting.sol\":2934:2951  voted(Cand, true) */\n      0xf3f16a15f074b71c5138107dfc7c63b80524d5411cb967caa97d8d9f12b2fd6b\n        /* \"src/voting.sol\":2940:2944  Cand */\n      dup13\n        /* \"src/voting.sol\":2946:2950  true */\n      0x01\n        /* \"src/voting.sol\":2934:2951  voted(Cand, true) */\n      mload(0x40)\n      tag_116\n      swap3\n      swap2\n      swap1\n      tag_117\n      jump\t// in\n    tag_116:\n      mload(0x40)\n      dup1\n      swap2\n      sub\n      swap1\n      log1\n        /* \"src/voting.sol\":2540:2956  {... */\n      pop\n      pop\n      pop\n        /* \"src/voting.sol\":1287:1397  {... */\n      pop\n        /* \"src/voting.sol\":1238:1239  _ */\n      pop\n        /* \"src/voting.sol\":1095:1242  {... */\n      pop\n        /* \"src/voting.sol\":2399:2956  function vote(address Cand, string memory _name, uint256 nonce, bytes memory signature) external  isCandidate(Cand, _name) StillVoting(_name){... */\n      pop\n      pop\n      pop\n      pop\n      pop\n      pop\n      jump\t// out\n        /* \"src/voting.sol\":3562:4105  function revealWinner( string memory _name) external view returns ( uint[] memory CV, address, uint){... */\n    tag_41:\n        /* \"src/voting.sol\":3630:3646  uint[] memory CV */\n      0x60\n        /* \"src/voting.sol\":3648:3655  address */\n      0x00\n        /* \"src/voting.sol\":3657:3661  uint */\n      dup1\n        /* \"src/voting.sol\":3669:3690  VotingPoll storage VP */\n      0x00\n        /* \"src/voting.sol\":3693:3703  votingPoll */\n      0x01\n        /* \"src/voting.sol\":3704:3709  _name */\n      dup6\n        /* \"src/voting.sol\":3693:3710  votingPoll[_name] */\n      mload(0x40)\n      tag_119\n      swap2\n      swap1\n      tag_88\n      jump\t// in\n    tag_119:\n      swap1\n      dup2\n      mstore\n      0x20\n      add\n      mload(0x40)\n      dup1\n      swap2\n      sub\n      swap1\n      keccak256\n        /* \"src/voting.sol\":3669:3710  VotingPoll storage VP = votingPoll[_name] */\n      swap1\n      pop\n        /* \"src/voting.sol\":3733:3735  VP */\n      dup1\n        /* \"src/voting.sol\":3733:3746  VP.candidates */\n      0x01\n      add\n        /* \"src/voting.sol\":3733:3753  VP.candidates.length */\n      dup1\n      sload\n      swap1\n      pop\n        /* \"src/voting.sol\":3722:3754  new uint[](VP.candidates.length) */\n      0xffffffffffffffff\n      dup2\n      gt\n      iszero\n      tag_120\n      jumpi\n      tag_121\n      tag_122\n      jump\t// in\n    tag_121:\n    tag_120:\n      mload(0x40)\n      swap1\n      dup1\n      dup3\n      mstore\n      dup1\n      0x20\n      mul\n      0x20\n      add\n      dup3\n      add\n      0x40\n      mstore\n      dup1\n      iszero\n      tag_123\n      jumpi\n      dup2\n      0x20\n      add\n      0x20\n      dup3\n      mul\n      dup1\n      calldatasize\n      dup4\n      calldatacopy\n      dup1\n      dup3\n      add\n      swap2\n      pop\n      pop\n      swap1\n      pop\n    tag_123:\n      pop\n        /* \"src/voting.sol\":3717:3754  CV = new uint[](VP.candidates.length) */\n      swap4\n      pop\n        /* \"src/voting.sol\":3761:3777  uint highestVote */\n      0x00\n        /* \"src/voting.sol\":3784:3798  address winner */\n      dup1\n        /* \"src/voting.sol\":3810:3816  uint i */\n      0x00\n        /* \"src/voting.sol\":3805:4063  for (uint i =0; i <= CV.length; i++){... */\n    tag_124:\n        /* \"src/voting.sol\":3826:3828  CV */\n      dup7\n        /* \"src/voting.sol\":3826:3835  CV.length */\n      mload\n        /* \"src/voting.sol\":3821:3822  i */\n      dup2\n        /* \"src/voting.sol\":3821:3835  i <= CV.length */\n      gt\n        /* \"src/voting.sol\":3805:4063  for (uint i =0; i <= CV.length; i++){... */\n      tag_125\n      jumpi\n        /* \"src/voting.sol\":3888:3899  highestVote */\n      dup3\n        /* \"src/voting.sol\":3851:3853  VP */\n      dup5\n        /* \"src/voting.sol\":3851:3867  VP.CandidateVote */\n      0x05\n      add\n        /* \"src/voting.sol\":3851:3885  VP.CandidateVote[VP.candidates[i]] */\n      0x00\n        /* \"src/voting.sol\":3868:3870  VP */\n      dup7\n        /* \"src/voting.sol\":3868:3881  VP.candidates */\n      0x01\n      add\n        /* \"src/voting.sol\":3882:3883  i */\n      dup5\n        /* \"src/voting.sol\":3868:3884  VP.candidates[i] */\n      dup2\n      sload\n      dup2\n      lt\n      tag_127\n      jumpi\n      tag_128\n      tag_129\n      jump\t// in\n    tag_128:\n    tag_127:\n      swap1\n      0x00\n      mstore\n      keccak256(0x00, 0x20)\n      add\n      0x00\n      swap1\n      sload\n      swap1\n      0x0100\n      exp\n      swap1\n      div\n      0xffffffffffffffffffffffffffffffffffffffff\n      and\n        /* \"src/voting.sol\":3851:3885  VP.CandidateVote[VP.candidates[i]] */\n      0xffffffffffffffffffffffffffffffffffffffff\n      and\n      0xffffffffffffffffffffffffffffffffffffffff\n      and\n      dup2\n      mstore\n      0x20\n      add\n      swap1\n      dup2\n      mstore\n      0x20\n      add\n      0x00\n      keccak256\n      sload\n        /* \"src/voting.sol\":3851:3899  VP.CandidateVote[VP.candidates[i]] > highestVote */\n      gt\n        /* \"src/voting.sol\":3848:4004  if(VP.CandidateVote[VP.candidates[i]] > highestVote){... */\n      iszero\n      tag_131\n      jumpi\n        /* \"src/voting.sol\":3925:3927  VP */\n      dup4\n        /* \"src/voting.sol\":3925:3941  VP.CandidateVote */\n      0x05\n      add\n        /* \"src/voting.sol\":3925:3959  VP.CandidateVote[VP.candidates[i]] */\n      0x00\n        /* \"src/voting.sol\":3942:3944  VP */\n      dup6\n        /* \"src/voting.sol\":3942:3955  VP.candidates */\n      0x01\n      add\n        /* \"src/voting.sol\":3956:3957  i */\n      dup4\n        /* \"src/voting.sol\":3942:3958  VP.candidates[i] */\n      dup2\n      sload\n      dup2\n      lt\n      tag_132\n      jumpi\n      tag_133\n      tag_129\n      jump\t// in\n    tag_133:\n    tag_132:\n      swap1\n      0x00\n      mstore\n      keccak256(0x00, 0x20)\n      add\n      0x00\n      swap1\n      sload\n      swap1\n      0x0100\n      exp\n      swap1\n      div\n      0xffffffffffffffffffffffffffffffffffffffff\n      and\n        /* \"src/voting.sol\":3925:3959  VP.CandidateVote[VP.candidates[i]] */\n      0xffffffffffffffffffffffffffffffffffffffff\n      and\n      0xffffffffffffffffffffffffffffffffffffffff\n      and\n      dup2\n      mstore\n      0x20\n      add\n      swap1\n      dup2\n      mstore\n      0x20\n      add\n      0x00\n      keccak256\n      sload\n        /* \"src/voting.sol\":3911:3959  highestVote = VP.CandidateVote[VP.candidates[i]] */\n      swap3\n      pop\n        /* \"src/voting.sol\":3980:3982  VP */\n      dup4\n        /* \"src/voting.sol\":3980:3993  VP.candidates */\n      0x01\n      add\n        /* \"src/voting.sol\":3994:3995  i */\n      dup2\n        /* \"src/voting.sol\":3980:3996  VP.candidates[i] */\n      dup2\n      sload\n      dup2\n      lt\n      tag_135\n      jumpi\n      tag_136\n      tag_129\n      jump\t// in\n    tag_136:\n    tag_135:\n      swap1\n      0x00\n      mstore\n      keccak256(0x00, 0x20)\n      add\n      0x00\n      swap1\n      sload\n      swap1\n      0x0100\n      exp\n      swap1\n      div\n      0xffffffffffffffffffffffffffffffffffffffff\n      and\n        /* \"src/voting.sol\":3971:3996  winner = VP.candidates[i] */\n      swap2\n      pop\n        /* \"src/voting.sol\":3848:4004  if(VP.CandidateVote[VP.candidates[i]] > highestVote){... */\n    tag_131:\n        /* \"src/voting.sol\":4019:4021  VP */\n      dup4\n        /* \"src/voting.sol\":4019:4035  VP.CandidateVote */\n      0x05\n      add\n        /* \"src/voting.sol\":4019:4053  VP.CandidateVote[VP.candidates[i]] */\n      0x00\n        /* \"src/voting.sol\":4036:4038  VP */\n      dup6\n        /* \"src/voting.sol\":4036:4049  VP.candidates */\n      0x01\n      add\n        /* \"src/voting.sol\":4050:4051  i */\n      dup4\n        /* \"src/voting.sol\":4036:4052  VP.candidates[i] */\n      dup2\n      sload\n      dup2\n      lt\n      tag_138\n      jumpi\n      tag_139\n      tag_129\n      jump\t// in\n    tag_139:\n    tag_138:\n      swap1\n      0x00\n      mstore\n      keccak256(0x00, 0x20)\n      add\n      0x00\n      swap1\n      sload\n      swap1\n      0x0100\n      exp\n      swap1\n      div\n      0xffffffffffffffffffffffffffffffffffffffff\n      and\n        /* \"src/voting.sol\":4019:4053  VP.CandidateVote[VP.candidates[i]] */\n      0xffffffffffffffffffffffffffffffffffffffff\n      and\n      0xffffffffffffffffffffffffffffffffffffffff\n      and\n      dup2\n      mstore\n      0x20\n      add\n      swap1\n      dup2\n      mstore\n      0x20\n      add\n      0x00\n      keccak256\n      sload\n        /* \"src/voting.sol\":4010:4012  CV */\n      dup8\n        /* \"src/voting.sol\":4013:4014  i */\n      dup3\n        /* \"src/voting.sol\":4010:4015  CV[i] */\n      dup2\n      mload\n      dup2\n      lt\n      tag_141\n      jumpi\n      tag_142\n      tag_129\n      jump\t// in\n    tag_142:\n    tag_141:\n      0x20\n      mul\n      0x20\n      add\n      add\n        /* \"src/voting.sol\":4010:4054  CV[i] = (VP.CandidateVote[VP.candidates[i]]) */\n      dup2\n      dup2\n      mstore\n      pop\n      pop\n        /* \"src/voting.sol\":3837:3840  i++ */\n      dup1\n      dup1\n      tag_143\n      swap1\n      tag_109\n      jump\t// in\n    tag_143:\n      swap2\n      pop\n      pop\n        /* \"src/voting.sol\":3805:4063  for (uint i =0; i <= CV.length; i++){... */\n      jump(tag_124)\n    tag_125:\n      pop\n        /* \"src/voting.sol\":4077:4079  CV */\n      dup6\n        /* \"src/voting.sol\":4081:4087  winner */\n      dup2\n        /* \"src/voting.sol\":4089:4100  highestVote */\n      dup4\n        /* \"src/voting.sol\":4069:4101  return (CV, winner, highestVote) */\n      swap6\n      pop\n      swap6\n      pop\n      swap6\n      pop\n      pop\n      pop\n      pop\n        /* \"src/voting.sol\":3562:4105  function revealWinner( string memory _name) external view returns ( uint[] memory CV, address, uint){... */\n      swap2\n      swap4\n      swap1\n      swap3\n      pop\n      jump\t// out\n        /* \"src/voting.sol\":1884:2396  function AddCandidate(address _newCandidate, string memory _name) external{... */\n    tag_48:\n        /* \"src/voting.sol\":1965:1986  VotingPoll storage VP */\n      0x00\n        /* \"src/voting.sol\":1989:1999  votingPoll */\n      0x01\n        /* \"src/voting.sol\":2000:2005  _name */\n      dup3\n        /* \"src/voting.sol\":1989:2006  votingPoll[_name] */\n      mload(0x40)\n      tag_145\n      swap2\n      swap1\n      tag_88\n      jump\t// in\n    tag_145:\n      swap1\n      dup2\n      mstore\n      0x20\n      add\n      mload(0x40)\n      dup1\n      swap2\n      sub\n      swap1\n      keccak256\n        /* \"src/voting.sol\":1965:2006  VotingPoll storage VP = votingPoll[_name] */\n      swap1\n      pop\n        /* \"src/voting.sol\":2045:2046  0 */\n      0x00\n        /* \"src/voting.sol\":2022:2047  VP.chairman != address(0) */\n      0xffffffffffffffffffffffffffffffffffffffff\n      and\n        /* \"src/voting.sol\":2022:2024  VP */\n      dup2\n        /* \"src/voting.sol\":2022:2033  VP.chairman */\n      0x00\n      add\n      0x00\n      swap1\n      sload\n      swap1\n      0x0100\n      exp\n      swap1\n      div\n      0xffffffffffffffffffffffffffffffffffffffff\n      and\n        /* \"src/voting.sol\":2022:2047  VP.chairman != address(0) */\n      0xffffffffffffffffffffffffffffffffffffffff\n      and\n      eq\n      iszero\n        /* \"src/voting.sol\":2013:2073  require (VP.chairman != address(0) , \"yet to create a poll\") */\n      tag_146\n      jumpi\n      mload(0x40)\n      0x08c379a000000000000000000000000000000000000000000000000000000000\n      dup2\n      mstore\n      0x04\n      add\n      tag_147\n      swap1\n      tag_148\n      jump\t// in\n    tag_147:\n      mload(0x40)\n      dup1\n      swap2\n      sub\n      swap1\n      revert\n    tag_146:\n        /* \"src/voting.sol\":2104:2114  msg.sender */\n      caller\n        /* \"src/voting.sol\":2089:2114  VP.chairman == msg.sender */\n      0xffffffffffffffffffffffffffffffffffffffff\n      and\n        /* \"src/voting.sol\":2089:2091  VP */\n      dup2\n        /* \"src/voting.sol\":2089:2100  VP.chairman */\n      0x00\n      add\n      0x00\n      swap1\n      sload\n      swap1\n      0x0100\n      exp\n      swap1\n      div\n      0xffffffffffffffffffffffffffffffffffffffff\n      and\n        /* \"src/voting.sol\":2089:2114  VP.chairman == msg.sender */\n      0xffffffffffffffffffffffffffffffffffffffff\n      and\n      eq\n        /* \"src/voting.sol\":2082:2115  assert(VP.chairman == msg.sender) */\n      tag_149\n      jumpi\n      tag_150\n      tag_151\n      jump\t// in\n    tag_150:\n    tag_149:\n        /* \"src/voting.sol\":2157:2159  VP */\n      dup1\n        /* \"src/voting.sol\":2157:2177  VP.maxNoOfCandidates */\n      0x02\n      add\n      0x02\n      swap1\n      sload\n      swap1\n      0x0100\n      exp\n      swap1\n      div\n      0xffffffff\n      and\n        /* \"src/voting.sol\":2130:2177  VP.currentNoOfCandidates < VP.maxNoOfCandidates */\n      0xffffffff\n      and\n        /* \"src/voting.sol\":2130:2132  VP */\n      dup2\n        /* \"src/voting.sol\":2130:2154  VP.currentNoOfCandidates */\n      0x02\n      add\n      0x16\n      swap1\n      sload\n      swap1\n      0x0100\n      exp\n      swap1\n      div\n      0xffff\n      and\n        /* \"src/voting.sol\":2130:2177  VP.currentNoOfCandidates < VP.maxNoOfCandidates */\n      0xffff\n      and\n      lt\n        /* \"src/voting.sol\":2122:2228  require(VP.currentNoOfCandidates < VP.maxNoOfCandidates, \"maximum no of candidate per session registered\") */\n      tag_152\n      jumpi\n      mload(0x40)\n      0x08c379a000000000000000000000000000000000000000000000000000000000\n      dup2\n      mstore\n      0x04\n      add\n      tag_153\n      swap1\n      tag_154\n      jump\t// in\n    tag_153:\n      mload(0x40)\n      dup1\n      swap2\n      sub\n      swap1\n      revert\n    tag_152:\n        /* \"src/voting.sol\":2271:2275  true */\n      0x01\n        /* \"src/voting.sol\":2235:2237  VP */\n      dup2\n        /* \"src/voting.sol\":2235:2253  VP.CandidateStatus */\n      0x03\n      add\n        /* \"src/voting.sol\":2235:2268  VP.CandidateStatus[_newCandidate] */\n      0x00\n        /* \"src/voting.sol\":2254:2267  _newCandidate */\n      dup6\n        /* \"src/voting.sol\":2235:2268  VP.CandidateStatus[_newCandidate] */\n      0xffffffffffffffffffffffffffffffffffffffff\n      and\n      0xffffffffffffffffffffffffffffffffffffffff\n      and\n      dup2\n      mstore\n      0x20\n      add\n      swap1\n      dup2\n      mstore\n      0x20\n      add\n      0x00\n      keccak256\n      0x00\n        /* \"src/voting.sol\":2235:2275  VP.CandidateStatus[_newCandidate] = true */\n      0x0100\n      exp\n      dup2\n      sload\n      dup2\n      0xff\n      mul\n      not\n      and\n      swap1\n      dup4\n      iszero\n      iszero\n      mul\n      or\n      swap1\n      sstore\n      pop\n        /* \"src/voting.sol\":2283:2285  VP */\n      dup1\n        /* \"src/voting.sol\":2283:2296  VP.candidates */\n      0x01\n      add\n        /* \"src/voting.sol\":2302:2315  _newCandidate */\n      dup4\n        /* \"src/voting.sol\":2283:2316  VP.candidates.push(_newCandidate) */\n      swap1\n      dup1\n      0x01\n      dup2\n      sload\n      add\n      dup1\n      dup3\n      sstore\n      dup1\n      swap2\n      pop\n      pop\n      0x01\n      swap1\n      sub\n      swap1\n      0x00\n      mstore\n      keccak256(0x00, 0x20)\n      add\n      0x00\n      swap1\n      swap2\n      swap1\n      swap2\n      swap1\n      swap2\n      0x0100\n      exp\n      dup2\n      sload\n      dup2\n      0xffffffffffffffffffffffffffffffffffffffff\n      mul\n      not\n      and\n      swap1\n      dup4\n      0xffffffffffffffffffffffffffffffffffffffff\n      and\n      mul\n      or\n      swap1\n      sstore\n      pop\n        /* \"src/voting.sol\":2324:2326  VP */\n      dup1\n        /* \"src/voting.sol\":2324:2348  VP.currentNoOfCandidates */\n      0x02\n      add\n      0x16\n        /* \"src/voting.sol\":2324:2350  VP.currentNoOfCandidates++ */\n      dup2\n      dup2\n      swap1\n      sload\n      swap1\n      0x0100\n      exp\n      swap1\n      div\n      0xffff\n      and\n      dup1\n      swap3\n      swap2\n      swap1\n      tag_156\n      swap1\n      tag_157\n      jump\t// in\n    tag_156:\n      swap2\n      swap1\n      0x0100\n      exp\n      dup2\n      sload\n      dup2\n      0xffff\n      mul\n      not\n      and\n      swap1\n      dup4\n      0xffff\n      and\n      mul\n      or\n      swap1\n      sstore\n      pop\n      pop\n        /* \"src/voting.sol\":2362:2392  becameCandidate(_newCandidate) */\n      0xc19c59aa93348e8fc54764bc642eca975e2639f44cc683ef8f027e1529cbda32\n        /* \"src/voting.sol\":2378:2391  _newCandidate */\n      dup4\n        /* \"src/voting.sol\":2362:2392  becameCandidate(_newCandidate) */\n      mload(0x40)\n      tag_158\n      swap2\n      swap1\n      tag_159\n      jump\t// in\n    tag_158:\n      mload(0x40)\n      dup1\n      swap2\n      sub\n      swap1\n      log1\n        /* \"src/voting.sol\":1958:2396  {... */\n      pop\n        /* \"src/voting.sol\":1884:2396  function AddCandidate(address _newCandidate, string memory _name) external{... */\n      pop\n      pop\n      jump\t// out\n        /* \"src/voting.sol\":721:768  mapping(string => VotingPoll) public votingPoll */\n    tag_52:\n      0x01\n      dup2\n      dup1\n      mload\n      0x20\n      dup2\n      add\n      dup3\n      add\n      dup1\n      mload\n      dup5\n      dup3\n      mstore\n      0x20\n      dup4\n      add\n      0x20\n      dup6\n      add\n      keccak256\n      dup2\n      dup4\n      mstore\n      dup1\n      swap6\n      pop\n      pop\n      pop\n      pop\n      pop\n      pop\n      0x00\n      swap2\n      pop\n      swap1\n      pop\n      dup1\n      0x00\n      add\n      0x00\n      swap1\n      sload\n      swap1\n      0x0100\n      exp\n      swap1\n      div\n      0xffffffffffffffffffffffffffffffffffffffff\n      and\n      swap1\n      dup1\n      0x02\n      add\n      0x00\n      swap1\n      sload\n      swap1\n      0x0100\n      exp\n      swap1\n      div\n      0xffff\n      and\n      swap1\n      dup1\n      0x02\n      add\n      0x02\n      swap1\n      sload\n      swap1\n      0x0100\n      exp\n      swap1\n      div\n      0xffffffff\n      and\n      swap1\n      dup1\n      0x02\n      add\n      0x06\n      swap1\n      sload\n      swap1\n      0x0100\n      exp\n      swap1\n      div\n      0xffffffffffffffff\n      and\n      swap1\n      dup1\n      0x02\n      add\n      0x0e\n      swap1\n      sload\n      swap1\n      0x0100\n      exp\n      swap1\n      div\n      0xffffffffffffffff\n      and\n      swap1\n      dup1\n      0x02\n      add\n      0x16\n      swap1\n      sload\n      swap1\n      0x0100\n      exp\n      swap1\n      div\n      0xffff\n      and\n      swap1\n      dup1\n      0x02\n      add\n      0x18\n      swap1\n      sload\n      swap1\n      0x0100\n      exp\n      swap1\n      div\n      0xff\n      and\n      swap1\n      pop\n      dup8\n      jump\t// out\n        /* \"src/voting.sol\":774:821  mapping (address => uint256) public replayNonce */\n    tag_59:\n      mstore(0x20, 0x02)\n      dup1\n      0x00\n      mstore\n      keccak256(0x00, 0x40)\n      0x00\n      swap2\n      pop\n      swap1\n      pop\n      sload\n      dup2\n      jump\t// out\n        /* \"src/voting.sol\":4312:4537  function withdawFees(string memory _name) external payable{... */\n    tag_64:\n        /* \"src/voting.sol\":4376:4397  VotingPoll storage VP */\n      0x00\n        /* \"src/voting.sol\":4400:4410  votingPoll */\n      0x01\n        /* \"src/voting.sol\":4411:4416  _name */\n      dup3\n        /* \"src/voting.sol\":4400:4417  votingPoll[_name] */\n      mload(0x40)\n      tag_161\n      swap2\n      swap1\n      tag_88\n      jump\t// in\n    tag_161:\n      swap1\n      dup2\n      mstore\n      0x20\n      add\n      mload(0x40)\n      dup1\n      swap2\n      sub\n      swap1\n      keccak256\n        /* \"src/voting.sol\":4376:4417  VotingPoll storage VP = votingPoll[_name] */\n      swap1\n      pop\n        /* \"src/voting.sol\":4446:4448  VP */\n      dup1\n        /* \"src/voting.sol\":4446:4457  VP.chairman */\n      0x00\n      add\n      0x00\n      swap1\n      sload\n      swap1\n      0x0100\n      exp\n      swap1\n      div\n      0xffffffffffffffffffffffffffffffffffffffff\n      and\n        /* \"src/voting.sol\":4432:4457  msg.sender == VP.chairman */\n      0xffffffffffffffffffffffffffffffffffffffff\n      and\n        /* \"src/voting.sol\":4432:4442  msg.sender */\n      caller\n        /* \"src/voting.sol\":4432:4457  msg.sender == VP.chairman */\n      0xffffffffffffffffffffffffffffffffffffffff\n      and\n      eq\n        /* \"src/voting.sol\":4424:4478  require(msg.sender == VP.chairman, \"not the chairman\") */\n      tag_162\n      jumpi\n      mload(0x40)\n      0x08c379a000000000000000000000000000000000000000000000000000000000\n      dup2\n      mstore\n      0x04\n      add\n      tag_163\n      swap1\n      tag_164\n      jump\t// in\n    tag_163:\n      mload(0x40)\n      dup1\n      swap2\n      sub\n      swap1\n      revert\n    tag_162:\n        /* \"src/voting.sol\":4493:4503  msg.sender */\n      caller\n        /* \"src/voting.sol\":4485:4513  payable(msg.sender).transfer */\n      0xffffffffffffffffffffffffffffffffffffffff\n      and\n        /* \"src/voting.sol\":4485:4533  payable(msg.sender).transfer(VP.amountGenerated) */\n      0x08fc\n        /* \"src/voting.sol\":4514:4516  VP */\n      dup3\n        /* \"src/voting.sol\":4514:4532  VP.amountGenerated */\n      0x02\n      add\n      0x0e\n      swap1\n      sload\n      swap1\n      0x0100\n      exp\n      swap1\n      div\n      0xffffffffffffffff\n      and\n        /* \"src/voting.sol\":4485:4533  payable(msg.sender).transfer(VP.amountGenerated) */\n      0xffffffffffffffff\n      and\n      swap1\n      dup2\n      iszero\n      mul\n      swap1\n      mload(0x40)\n      0x00\n      mload(0x40)\n      dup1\n      dup4\n      sub\n      dup2\n      dup6\n      dup9\n      dup9\n      call\n      swap4\n      pop\n      pop\n      pop\n      pop\n      iszero\n      dup1\n      iszero\n      tag_166\n      jumpi\n      returndatasize\n      0x00\n      dup1\n      returndatacopy\n      revert(0x00, returndatasize)\n    tag_166:\n      pop\n        /* \"src/voting.sol\":4370:4537  {... */\n      pop\n        /* \"src/voting.sol\":4312:4537  function withdawFees(string memory _name) external payable{... */\n      pop\n      jump\t// out\n        /* \"src/voting.sol\":3207:3378  function NoOfRegisteredCandidates( string memory _name) public view returns(uint){... */\n    tag_68:\n        /* \"src/voting.sol\":3283:3287  uint */\n      0x00\n        /* \"src/voting.sol\":3295:3316  VotingPoll storage VP */\n      dup1\n        /* \"src/voting.sol\":3319:3329  votingPoll */\n      0x01\n        /* \"src/voting.sol\":3330:3335  _name */\n      dup4\n        /* \"src/voting.sol\":3319:3336  votingPoll[_name] */\n      mload(0x40)\n      tag_168\n      swap2\n      swap1\n      tag_88\n      jump\t// in\n    tag_168:\n      swap1\n      dup2\n      mstore\n      0x20\n      add\n      mload(0x40)\n      dup1\n      swap2\n      sub\n      swap1\n      keccak256\n        /* \"src/voting.sol\":3295:3336  VotingPoll storage VP = votingPoll[_name] */\n      swap1\n      pop\n        /* \"src/voting.sol\":3350:3352  VP */\n      dup1\n        /* \"src/voting.sol\":3350:3374  VP.currentNoOfCandidates */\n      0x02\n      add\n      0x16\n      swap1\n      sload\n      swap1\n      0x0100\n      exp\n      swap1\n      div\n      0xffff\n      and\n        /* \"src/voting.sol\":3343:3374  return VP.currentNoOfCandidates */\n      0xffff\n      and\n      swap2\n      pop\n      pop\n        /* \"src/voting.sol\":3207:3378  function NoOfRegisteredCandidates( string memory _name) public view returns(uint){... */\n      swap2\n      swap1\n      pop\n      jump\t// out\n        /* \"src/voting.sol\":628:659  VotingPoll[] public listOfPolls */\n    tag_74:\n      0x00\n      dup2\n      dup2\n      sload\n      dup2\n      lt\n      tag_169\n      jumpi\n      0x00\n      dup1\n      revert\n    tag_169:\n      swap1\n      0x00\n      mstore\n      keccak256(0x00, 0x20)\n      swap1\n      0x06\n      mul\n      add\n      0x00\n      swap2\n      pop\n      swap1\n      pop\n      dup1\n      0x00\n      add\n      0x00\n      swap1\n      sload\n      swap1\n      0x0100\n      exp\n      swap1\n      div\n      0xffffffffffffffffffffffffffffffffffffffff\n      and\n      swap1\n      dup1\n      0x02\n      add\n      0x00\n      swap1\n      sload\n      swap1\n      0x0100\n      exp\n      swap1\n      div\n      0xffff\n      and\n      swap1\n      dup1\n      0x02\n      add\n      0x02\n      swap1\n      sload\n      swap1\n      0x0100\n      exp\n      swap1\n      div\n      0xffffffff\n      and\n      swap1\n      dup1\n      0x02\n      add\n      0x06\n      swap1\n      sload\n      swap1\n      0x0100\n      exp\n      swap1\n      div\n      0xffffffffffffffff\n      and\n      swap1\n      dup1\n      0x02\n      add\n      0x0e\n      swap1\n      sload\n      swap1\n      0x0100\n      exp\n      swap1\n      div\n      0xffffffffffffffff\n      and\n      swap1\n      dup1\n      0x02\n      add\n      0x16\n      swap1\n      sload\n      swap1\n      0x0100\n      exp\n      swap1\n      div\n      0xffff\n      and\n      swap1\n      dup1\n      0x02\n      add\n      0x18\n      swap1\n      sload\n      swap1\n      0x0100\n      exp\n      swap1\n      div\n      0xff\n      and\n      swap1\n      pop\n      dup8\n      jump\t// out\n        /* \"src/voting.sol\":3386:3559  function AllCandidates( string memory _name) public view returns(address[] memory _candidates){... */\n    tag_79:\n        /* \"src/voting.sol\":3451:3479  address[] memory _candidates */\n      0x60\n        /* \"src/voting.sol\":3487:3508  VotingPoll storage VP */\n      0x00\n        /* \"src/voting.sol\":3511:3521  votingPoll */\n      0x01\n        /* \"src/voting.sol\":3522:3527  _name */\n      dup4\n        /* \"src/voting.sol\":3511:3528  votingPoll[_name] */\n      mload(0x40)\n      tag_172\n      swap2\n      swap1\n      tag_88\n      jump\t// in\n    tag_172:\n      swap1\n      dup2\n      mstore\n      0x20\n      add\n      mload(0x40)\n      dup1\n      swap2\n      sub\n      swap1\n      keccak256\n        /* \"src/voting.sol\":3487:3528  VotingPoll storage VP = votingPoll[_name] */\n      swap1\n      pop\n        /* \"src/voting.sol\":3542:3544  VP */\n      dup1\n        /* \"src/voting.sol\":3542:3555  VP.candidates */\n      0x01\n      add\n        /* \"src/voting.sol\":3535:3555  return VP.candidates */\n      dup1\n      sload\n      dup1\n      0x20\n      mul\n      0x20\n      add\n      mload(0x40)\n      swap1\n      dup2\n      add\n      0x40\n      mstore\n      dup1\n      swap3\n      swap2\n      swap1\n      dup2\n      dup2\n      mstore\n      0x20\n      add\n      dup3\n      dup1\n      sload\n      dup1\n      iszero\n      tag_173\n      jumpi\n      0x20\n      mul\n      dup3\n      add\n      swap2\n      swap1\n      0x00\n      mstore\n      keccak256(0x00, 0x20)\n      swap1\n    tag_174:\n      dup2\n      0x00\n      swap1\n      sload\n      swap1\n      0x0100\n      exp\n      swap1\n      div\n      0xffffffffffffffffffffffffffffffffffffffff\n      and\n      0xffffffffffffffffffffffffffffffffffffffff\n      and\n      dup2\n      mstore\n      0x20\n      add\n      swap1\n      0x01\n      add\n      swap1\n      dup1\n      dup4\n      gt\n      tag_174\n      jumpi\n    tag_173:\n      pop\n      pop\n      pop\n      pop\n      pop\n      swap2\n      pop\n      pop\n        /* \"src/voting.sol\":3386:3559  function AllCandidates( string memory _name) public view returns(address[] memory _candidates){... */\n      swap2\n      swap1\n      pop\n      jump\t// out\n        /* \"src/voting.sol\":4108:4310  function setVotingState( string memory _name) external {... */\n    tag_85:\n        /* \"src/voting.sol\":4169:4190  VotingPoll storage VP */\n      0x00\n        /* \"src/voting.sol\":4193:4203  votingPoll */\n      0x01\n        /* \"src/voting.sol\":4204:4209  _name */\n      dup3\n        /* \"src/voting.sol\":4193:4210  votingPoll[_name] */\n      mload(0x40)\n      tag_176\n      swap2\n      swap1\n      tag_88\n      jump\t// in\n    tag_176:\n      swap1\n      dup2\n      mstore\n      0x20\n      add\n      mload(0x40)\n      dup1\n      swap2\n      sub\n      swap1\n      keccak256\n        /* \"src/voting.sol\":4169:4210  VotingPoll storage VP = votingPoll[_name] */\n      swap1\n      pop\n        /* \"src/voting.sol\":4239:4249  msg.sender */\n      caller\n        /* \"src/voting.sol\":4224:4249  VP.chairman == msg.sender */\n      0xffffffffffffffffffffffffffffffffffffffff\n      and\n        /* \"src/voting.sol\":4224:4226  VP */\n      dup2\n        /* \"src/voting.sol\":4224:4235  VP.chairman */\n      0x00\n      add\n      0x00\n      swap1\n      sload\n      swap1\n      0x0100\n      exp\n      swap1\n      div\n      0xffffffffffffffffffffffffffffffffffffffff\n      and\n        /* \"src/voting.sol\":4224:4249  VP.chairman == msg.sender */\n      0xffffffffffffffffffffffffffffffffffffffff\n      and\n      eq\n        /* \"src/voting.sol\":4216:4270  require(VP.chairman == msg.sender, \"not the chairman\") */\n      tag_177\n      jumpi\n      mload(0x40)\n      0x08c379a000000000000000000000000000000000000000000000000000000000\n      dup2\n      mstore\n      0x04\n      add\n      tag_178\n      swap1\n      tag_164\n      jump\t// in\n    tag_178:\n      mload(0x40)\n      dup1\n      swap2\n      sub\n      swap1\n      revert\n    tag_177:\n        /* \"src/voting.sol\":4296:4298  VP */\n      dup1\n        /* \"src/voting.sol\":4296:4305  VP.voting */\n      0x02\n      add\n      0x18\n      swap1\n      sload\n      swap1\n      0x0100\n      exp\n      swap1\n      div\n      0xff\n      and\n        /* \"src/voting.sol\":4294:4306  !(VP.voting) */\n      iszero\n        /* \"src/voting.sol\":4282:4284  VP */\n      dup2\n        /* \"src/voting.sol\":4282:4291  VP.voting */\n      0x02\n      add\n      0x18\n        /* \"src/voting.sol\":4282:4306  VP.voting = !(VP.voting) */\n      0x0100\n      exp\n      dup2\n      sload\n      dup2\n      0xff\n      mul\n      not\n      and\n      swap1\n      dup4\n      iszero\n      iszero\n      mul\n      or\n      swap1\n      sstore\n      pop\n        /* \"src/voting.sol\":4163:4310  {... */\n      pop\n        /* \"src/voting.sol\":4108:4310  function setVotingState( string memory _name) external {... */\n      pop\n      jump\t// out\n        /* \"src/voting.sol\":4774:5356  function getSigner(bytes32 _hash, bytes memory _signature) internal pure returns (address){... */\n    tag_105:\n        /* \"src/voting.sol\":4856:4863  address */\n      0x00\n        /* \"src/voting.sol\":4870:4879  bytes32 r */\n      dup1\n        /* \"src/voting.sol\":4885:4894  bytes32 s */\n      0x00\n        /* \"src/voting.sol\":4900:4907  uint8 v */\n      dup1\n        /* \"src/voting.sol\":4938:4940  65 */\n      0x41\n        /* \"src/voting.sol\":4917:4927  _signature */\n      dup6\n        /* \"src/voting.sol\":4917:4934  _signature.length */\n      mload\n        /* \"src/voting.sol\":4917:4940  _signature.length != 65 */\n      eq\n        /* \"src/voting.sol\":4913:4974  if (_signature.length != 65) {... */\n      tag_180\n      jumpi\n        /* \"src/voting.sol\":4965:4966  0 */\n      0x00\n        /* \"src/voting.sol\":4950:4967  return address(0) */\n      swap4\n      pop\n      pop\n      pop\n      pop\n      jump(tag_179)\n        /* \"src/voting.sol\":4913:4974  if (_signature.length != 65) {... */\n    tag_180:\n        /* \"src/voting.sol\":5023:5025  32 */\n      0x20\n        /* \"src/voting.sol\":5011:5021  _signature */\n      dup6\n        /* \"src/voting.sol\":5007:5026  add(_signature, 32) */\n      add\n        /* \"src/voting.sol\":5001:5027  mload(add(_signature, 32)) */\n      mload\n        /* \"src/voting.sol\":4996:5027  r := mload(add(_signature, 32)) */\n      swap3\n      pop\n        /* \"src/voting.sol\":5061:5063  64 */\n      0x40\n        /* \"src/voting.sol\":5049:5059  _signature */\n      dup6\n        /* \"src/voting.sol\":5045:5064  add(_signature, 64) */\n      add\n        /* \"src/voting.sol\":5039:5065  mload(add(_signature, 64)) */\n      mload\n        /* \"src/voting.sol\":5034:5065  s := mload(add(_signature, 64)) */\n      swap2\n      pop\n        /* \"src/voting.sol\":5107:5109  96 */\n      0x60\n        /* \"src/voting.sol\":5095:5105  _signature */\n      dup6\n        /* \"src/voting.sol\":5091:5110  add(_signature, 96) */\n      add\n        /* \"src/voting.sol\":5085:5111  mload(add(_signature, 96)) */\n      mload\n        /* \"src/voting.sol\":5082:5083  0 */\n      0x00\n        /* \"src/voting.sol\":5077:5112  byte(0, mload(add(_signature, 96))) */\n      byte\n        /* \"src/voting.sol\":5072:5112  v := byte(0, mload(add(_signature, 96))) */\n      swap1\n      pop\n        /* \"src/voting.sol\":5131:5133  27 */\n      0x1b\n        /* \"src/voting.sol\":5127:5128  v */\n      dup2\n        /* \"src/voting.sol\":5127:5133  v < 27 */\n      0xff\n      and\n      lt\n        /* \"src/voting.sol\":5123:5157  if (v < 27) {... */\n      iszero\n      tag_181\n      jumpi\n        /* \"src/voting.sol\":5148:5150  27 */\n      0x1b\n        /* \"src/voting.sol\":5143:5150  v += 27 */\n      dup2\n      tag_182\n      swap2\n      swap1\n      tag_183\n      jump\t// in\n    tag_182:\n      swap1\n      pop\n        /* \"src/voting.sol\":5123:5157  if (v < 27) {... */\n    tag_181:\n        /* \"src/voting.sol\":5171:5173  27 */\n      0x1b\n        /* \"src/voting.sol\":5166:5167  v */\n      dup2\n        /* \"src/voting.sol\":5166:5173  v != 27 */\n      0xff\n      and\n      eq\n      iszero\n        /* \"src/voting.sol\":5166:5184  v != 27 && v != 28 */\n      dup1\n      iszero\n      tag_184\n      jumpi\n      pop\n        /* \"src/voting.sol\":5182:5184  28 */\n      0x1c\n        /* \"src/voting.sol\":5177:5178  v */\n      dup2\n        /* \"src/voting.sol\":5177:5184  v != 28 */\n      0xff\n      and\n      eq\n      iszero\n        /* \"src/voting.sol\":5166:5184  v != 27 && v != 28 */\n    tag_184:\n        /* \"src/voting.sol\":5162:5352  if (v != 27 && v != 28) {... */\n      iszero\n      tag_185\n      jumpi\n        /* \"src/voting.sol\":5209:5210  0 */\n      0x00\n        /* \"src/voting.sol\":5194:5211  return address(0) */\n      swap4\n      pop\n      pop\n      pop\n      pop\n      jump(tag_179)\n        /* \"src/voting.sol\":5162:5352  if (v != 27 && v != 28) {... */\n    tag_185:\n        /* \"src/voting.sol\":5239:5345  ecrecover(keccak256(... */\n      0x01\n        /* \"src/voting.sol\":5321:5326  _hash */\n      dup7\n        /* \"src/voting.sol\":5268:5327  abi.encodePacked(\"\\x19Ethereum Signed Message:\\n32\", _hash) */\n      add(0x20, mload(0x40))\n      tag_187\n      swap2\n      swap1\n      tag_188\n      jump\t// in\n    tag_187:\n      mload(0x40)\n      0x20\n      dup2\n      dup4\n      sub\n      sub\n      dup2\n      mstore\n      swap1\n      0x40\n      mstore\n        /* \"src/voting.sol\":5249:5335  keccak256(... */\n      dup1\n      mload\n      swap1\n      0x20\n      add\n      keccak256\n        /* \"src/voting.sol\":5337:5338  v */\n      dup3\n        /* \"src/voting.sol\":5340:5341  r */\n      dup6\n        /* \"src/voting.sol\":5343:5344  s */\n      dup6\n        /* \"src/voting.sol\":5239:5345  ecrecover(keccak256(... */\n      mload(0x40)\n      0x00\n      dup2\n      mstore\n      0x20\n      add\n      0x40\n      mstore\n      mload(0x40)\n      tag_189\n      swap5\n      swap4\n      swap3\n      swap2\n      swap1\n      tag_190\n      jump\t// in\n    tag_189:\n      0x20\n      mload(0x40)\n      0x20\n      dup2\n      sub\n      swap1\n      dup1\n      dup5\n      sub\n      swap1\n      dup6\n      gas\n      staticcall\n      iszero\n      dup1\n      iszero\n      tag_192\n      jumpi\n      returndatasize\n      0x00\n      dup1\n      returndatacopy\n      revert(0x00, returndatasize)\n    tag_192:\n      pop\n      pop\n      pop\n      mload(sub(mload(0x40), 0x20))\n        /* \"src/voting.sol\":5232:5345  return ecrecover(keccak256(... */\n      swap4\n      pop\n      pop\n      pop\n      pop\n        /* \"src/voting.sol\":4774:5356  function getSigner(bytes32 _hash, bytes memory _signature) internal pure returns (address){... */\n    tag_179:\n      swap3\n      swap2\n      pop\n      pop\n      jump\t// out\n        /* \"src/voting.sol\":2959:3204  function countVote(address Cand, string memory _name, address signer) internal returns(uint){... */\n    tag_115:\n        /* \"src/voting.sol\":3046:3050  uint */\n      0x00\n        /* \"src/voting.sol\":3058:3079  VotingPoll storage VP */\n      dup1\n        /* \"src/voting.sol\":3082:3092  votingPoll */\n      0x01\n        /* \"src/voting.sol\":3093:3098  _name */\n      dup5\n        /* \"src/voting.sol\":3082:3099  votingPoll[_name] */\n      mload(0x40)\n      tag_194\n      swap2\n      swap1\n      tag_88\n      jump\t// in\n    tag_194:\n      swap1\n      dup2\n      mstore\n      0x20\n      add\n      mload(0x40)\n      dup1\n      swap2\n      sub\n      swap1\n      keccak256\n        /* \"src/voting.sol\":3058:3099  VotingPoll storage VP = votingPoll[_name] */\n      swap1\n      pop\n        /* \"src/voting.sol\":3128:3132  true */\n      0x01\n        /* \"src/voting.sol\":3106:3108  VP */\n      dup2\n        /* \"src/voting.sol\":3106:3117  VP.hasVoted */\n      0x04\n      add\n        /* \"src/voting.sol\":3106:3125  VP.hasVoted[signer] */\n      0x00\n        /* \"src/voting.sol\":3118:3124  signer */\n      dup6\n        /* \"src/voting.sol\":3106:3125  VP.hasVoted[signer] */\n      0xffffffffffffffffffffffffffffffffffffffff\n      and\n      0xffffffffffffffffffffffffffffffffffffffff\n      and\n      dup2\n      mstore\n      0x20\n      add\n      swap1\n      dup2\n      mstore\n      0x20\n      add\n      0x00\n      keccak256\n      0x00\n        /* \"src/voting.sol\":3106:3132  VP.hasVoted[signer] = true */\n      0x0100\n      exp\n      dup2\n      sload\n      dup2\n      0xff\n      mul\n      not\n      and\n      swap1\n      dup4\n      iszero\n      iszero\n      mul\n      or\n      swap1\n      sstore\n      pop\n        /* \"src/voting.sol\":3139:3141  VP */\n      dup1\n        /* \"src/voting.sol\":3139:3155  VP.CandidateVote */\n      0x05\n      add\n        /* \"src/voting.sol\":3139:3161  VP.CandidateVote[Cand] */\n      0x00\n        /* \"src/voting.sol\":3156:3160  Cand */\n      dup7\n        /* \"src/voting.sol\":3139:3161  VP.CandidateVote[Cand] */\n      0xffffffffffffffffffffffffffffffffffffffff\n      and\n      0xffffffffffffffffffffffffffffffffffffffff\n      and\n      dup2\n      mstore\n      0x20\n      add\n      swap1\n      dup2\n      mstore\n      0x20\n      add\n      0x00\n      keccak256\n      0x00\n        /* \"src/voting.sol\":3139:3163  VP.CandidateVote[Cand]++ */\n      dup2\n      sload\n      dup1\n      swap3\n      swap2\n      swap1\n      tag_195\n      swap1\n      tag_109\n      jump\t// in\n    tag_195:\n      swap2\n      swap1\n      pop\n      sstore\n      pop\n        /* \"src/voting.sol\":3177:3179  VP */\n      dup1\n        /* \"src/voting.sol\":3177:3193  VP.CandidateVote */\n      0x05\n      add\n        /* \"src/voting.sol\":3177:3199  VP.CandidateVote[Cand] */\n      0x00\n        /* \"src/voting.sol\":3194:3198  Cand */\n      dup7\n        /* \"src/voting.sol\":3177:3199  VP.CandidateVote[Cand] */\n      0xffffffffffffffffffffffffffffffffffffffff\n      and\n      0xffffffffffffffffffffffffffffffffffffffff\n      and\n      dup2\n      mstore\n      0x20\n      add\n      swap1\n      dup2\n      mstore\n      0x20\n      add\n      0x00\n      keccak256\n      sload\n        /* \"src/voting.sol\":3170:3199  return VP.CandidateVote[Cand] */\n      swap2\n      pop\n      pop\n        /* \"src/voting.sol\":2959:3204  function countVote(address Cand, string memory _name, address signer) internal returns(uint){... */\n      swap4\n      swap3\n      pop\n      pop\n      pop\n      jump\t// out\n        /* \"#utility.yul\":7:82   */\n    tag_196:\n        /* \"#utility.yul\":40:46   */\n      0x00\n        /* \"#utility.yul\":73:75   */\n      0x40\n        /* \"#utility.yul\":67:76   */\n      mload\n        /* \"#utility.yul\":57:76   */\n      swap1\n      pop\n        /* \"#utility.yul\":7:82   */\n      swap1\n      jump\t// out\n        /* \"#utility.yul\":88:205   */\n    tag_197:\n        /* \"#utility.yul\":197:198   */\n      0x00\n        /* \"#utility.yul\":194:195   */\n      dup1\n        /* \"#utility.yul\":187:199   */\n      revert\n        /* \"#utility.yul\":211:328   */\n    tag_198:\n        /* \"#utility.yul\":320:321   */\n      0x00\n        /* \"#utility.yul\":317:318   */\n      dup1\n        /* \"#utility.yul\":310:322   */\n      revert\n        /* \"#utility.yul\":334:451   */\n    tag_199:\n        /* \"#utility.yul\":443:444   */\n      0x00\n        /* \"#utility.yul\":440:441   */\n      dup1\n        /* \"#utility.yul\":433:445   */\n      revert\n        /* \"#utility.yul\":457:574   */\n    tag_200:\n        /* \"#utility.yul\":566:567   */\n      0x00\n        /* \"#utility.yul\":563:564   */\n      dup1\n        /* \"#utility.yul\":556:568   */\n      revert\n        /* \"#utility.yul\":580:682   */\n    tag_201:\n        /* \"#utility.yul\":621:627   */\n      0x00\n        /* \"#utility.yul\":672:674   */\n      0x1f\n        /* \"#utility.yul\":668:675   */\n      not\n        /* \"#utility.yul\":663:665   */\n      0x1f\n        /* \"#utility.yul\":656:661   */\n      dup4\n        /* \"#utility.yul\":652:666   */\n      add\n        /* \"#utility.yul\":648:676   */\n      and\n        /* \"#utility.yul\":638:676   */\n      swap1\n      pop\n        /* \"#utility.yul\":580:682   */\n      swap2\n      swap1\n      pop\n      jump\t// out\n        /* \"#utility.yul\":688:868   */\n    tag_122:\n        /* \"#utility.yul\":736:813   */\n      0x4e487b7100000000000000000000000000000000000000000000000000000000\n        /* \"#utility.yul\":733:734   */\n      0x00\n        /* \"#utility.yul\":726:814   */\n      mstore\n        /* \"#utility.yul\":833:837   */\n      0x41\n        /* \"#utility.yul\":830:831   */\n      0x04\n        /* \"#utility.yul\":823:838   */\n      mstore\n        /* \"#utility.yul\":857:861   */\n      0x24\n        /* \"#utility.yul\":854:855   */\n      0x00\n        /* \"#utility.yul\":847:862   */\n      revert\n        /* \"#utility.yul\":874:1155   */\n    tag_202:\n        /* \"#utility.yul\":957:984   */\n      tag_288\n        /* \"#utility.yul\":979:983   */\n      dup3\n        /* \"#utility.yul\":957:984   */\n      tag_201\n      jump\t// in\n    tag_288:\n        /* \"#utility.yul\":949:955   */\n      dup2\n        /* \"#utility.yul\":945:985   */\n      add\n        /* \"#utility.yul\":1087:1093   */\n      dup2\n        /* \"#utility.yul\":1075:1085   */\n      dup2\n        /* \"#utility.yul\":1072:1094   */\n      lt\n        /* \"#utility.yul\":1051:1069   */\n      0xffffffffffffffff\n        /* \"#utility.yul\":1039:1049   */\n      dup3\n        /* \"#utility.yul\":1036:1070   */\n      gt\n        /* \"#utility.yul\":1033:1095   */\n      or\n        /* \"#utility.yul\":1030:1118   */\n      iszero\n      tag_289\n      jumpi\n        /* \"#utility.yul\":1098:1116   */\n      tag_290\n      tag_122\n      jump\t// in\n    tag_290:\n        /* \"#utility.yul\":1030:1118   */\n    tag_289:\n        /* \"#utility.yul\":1138:1148   */\n      dup1\n        /* \"#utility.yul\":1134:1136   */\n      0x40\n        /* \"#utility.yul\":1127:1149   */\n      mstore\n        /* \"#utility.yul\":917:1155   */\n      pop\n        /* \"#utility.yul\":874:1155   */\n      pop\n      pop\n      jump\t// out\n        /* \"#utility.yul\":1161:1290   */\n    tag_203:\n        /* \"#utility.yul\":1195:1201   */\n      0x00\n        /* \"#utility.yul\":1222:1242   */\n      tag_292\n      tag_196\n      jump\t// in\n    tag_292:\n        /* \"#utility.yul\":1212:1242   */\n      swap1\n      pop\n        /* \"#utility.yul\":1251:1284   */\n      tag_293\n        /* \"#utility.yul\":1279:1283   */\n      dup3\n        /* \"#utility.yul\":1271:1277   */\n      dup3\n        /* \"#utility.yul\":1251:1284   */\n      tag_202\n      jump\t// in\n    tag_293:\n        /* \"#utility.yul\":1161:1290   */\n      swap2\n      swap1\n      pop\n      jump\t// out\n        /* \"#utility.yul\":1296:1604   */\n    tag_204:\n        /* \"#utility.yul\":1358:1362   */\n      0x00\n        /* \"#utility.yul\":1448:1466   */\n      0xffffffffffffffff\n        /* \"#utility.yul\":1440:1446   */\n      dup3\n        /* \"#utility.yul\":1437:1467   */\n      gt\n        /* \"#utility.yul\":1434:1490   */\n      iszero\n      tag_295\n      jumpi\n        /* \"#utility.yul\":1470:1488   */\n      tag_296\n      tag_122\n      jump\t// in\n    tag_296:\n        /* \"#utility.yul\":1434:1490   */\n    tag_295:\n        /* \"#utility.yul\":1508:1537   */\n      tag_297\n        /* \"#utility.yul\":1530:1536   */\n      dup3\n        /* \"#utility.yul\":1508:1537   */\n      tag_201\n      jump\t// in\n    tag_297:\n        /* \"#utility.yul\":1500:1537   */\n      swap1\n      pop\n        /* \"#utility.yul\":1592:1596   */\n      0x20\n        /* \"#utility.yul\":1586:1590   */\n      dup2\n        /* \"#utility.yul\":1582:1597   */\n      add\n        /* \"#utility.yul\":1574:1597   */\n      swap1\n      pop\n        /* \"#utility.yul\":1296:1604   */\n      swap2\n      swap1\n      pop\n      jump\t// out\n        /* \"#utility.yul\":1610:1764   */\n    tag_205:\n        /* \"#utility.yul\":1694:1700   */\n      dup3\n        /* \"#utility.yul\":1689:1692   */\n      dup2\n        /* \"#utility.yul\":1684:1687   */\n      dup4\n        /* \"#utility.yul\":1671:1701   */\n      calldatacopy\n        /* \"#utility.yul\":1756:1757   */\n      0x00\n        /* \"#utility.yul\":1747:1753   */\n      dup4\n        /* \"#utility.yul\":1742:1745   */\n      dup4\n        /* \"#utility.yul\":1738:1754   */\n      add\n        /* \"#utility.yul\":1731:1758   */\n      mstore\n        /* \"#utility.yul\":1610:1764   */\n      pop\n      pop\n      pop\n      jump\t// out\n        /* \"#utility.yul\":1770:2182   */\n    tag_206:\n        /* \"#utility.yul\":1848:1853   */\n      0x00\n        /* \"#utility.yul\":1873:1939   */\n      tag_300\n        /* \"#utility.yul\":1889:1938   */\n      tag_301\n        /* \"#utility.yul\":1931:1937   */\n      dup5\n        /* \"#utility.yul\":1889:1938   */\n      tag_204\n      jump\t// in\n    tag_301:\n        /* \"#utility.yul\":1873:1939   */\n      tag_203\n      jump\t// in\n    tag_300:\n        /* \"#utility.yul\":1864:1939   */\n      swap1\n      pop\n        /* \"#utility.yul\":1962:1968   */\n      dup3\n        /* \"#utility.yul\":1955:1960   */\n      dup2\n        /* \"#utility.yul\":1948:1969   */\n      mstore\n        /* \"#utility.yul\":2000:2004   */\n      0x20\n        /* \"#utility.yul\":1993:1998   */\n      dup2\n        /* \"#utility.yul\":1989:2005   */\n      add\n        /* \"#utility.yul\":2038:2041   */\n      dup5\n        /* \"#utility.yul\":2029:2035   */\n      dup5\n        /* \"#utility.yul\":2024:2027   */\n      dup5\n        /* \"#utility.yul\":2020:2036   */\n      add\n        /* \"#utility.yul\":2017:2042   */\n      gt\n        /* \"#utility.yul\":2014:2126   */\n      iszero\n      tag_302\n      jumpi\n        /* \"#utility.yul\":2045:2124   */\n      tag_303\n      tag_200\n      jump\t// in\n    tag_303:\n        /* \"#utility.yul\":2014:2126   */\n    tag_302:\n        /* \"#utility.yul\":2135:2176   */\n      tag_304\n        /* \"#utility.yul\":2169:2175   */\n      dup5\n        /* \"#utility.yul\":2164:2167   */\n      dup3\n        /* \"#utility.yul\":2159:2162   */\n      dup6\n        /* \"#utility.yul\":2135:2176   */\n      tag_205\n      jump\t// in\n    tag_304:\n        /* \"#utility.yul\":1854:2182   */\n      pop\n        /* \"#utility.yul\":1770:2182   */\n      swap4\n      swap3\n      pop\n      pop\n      pop\n      jump\t// out\n        /* \"#utility.yul\":2202:2542   */\n    tag_207:\n        /* \"#utility.yul\":2258:2263   */\n      0x00\n        /* \"#utility.yul\":2307:2310   */\n      dup3\n        /* \"#utility.yul\":2300:2304   */\n      0x1f\n        /* \"#utility.yul\":2292:2298   */\n      dup4\n        /* \"#utility.yul\":2288:2305   */\n      add\n        /* \"#utility.yul\":2284:2311   */\n      slt\n        /* \"#utility.yul\":2274:2396   */\n      tag_306\n      jumpi\n        /* \"#utility.yul\":2315:2394   */\n      tag_307\n      tag_199\n      jump\t// in\n    tag_307:\n        /* \"#utility.yul\":2274:2396   */\n    tag_306:\n        /* \"#utility.yul\":2432:2438   */\n      dup2\n        /* \"#utility.yul\":2419:2439   */\n      calldataload\n        /* \"#utility.yul\":2457:2536   */\n      tag_308\n        /* \"#utility.yul\":2532:2535   */\n      dup5\n        /* \"#utility.yul\":2524:2530   */\n      dup3\n        /* \"#utility.yul\":2517:2521   */\n      0x20\n        /* \"#utility.yul\":2509:2515   */\n      dup7\n        /* \"#utility.yul\":2505:2522   */\n      add\n        /* \"#utility.yul\":2457:2536   */\n      tag_206\n      jump\t// in\n    tag_308:\n        /* \"#utility.yul\":2448:2536   */\n      swap2\n      pop\n        /* \"#utility.yul\":2264:2542   */\n      pop\n        /* \"#utility.yul\":2202:2542   */\n      swap3\n      swap2\n      pop\n      pop\n      jump\t// out\n        /* \"#utility.yul\":2548:2625   */\n    tag_208:\n        /* \"#utility.yul\":2585:2592   */\n      0x00\n        /* \"#utility.yul\":2614:2619   */\n      dup2\n        /* \"#utility.yul\":2603:2619   */\n      swap1\n      pop\n        /* \"#utility.yul\":2548:2625   */\n      swap2\n      swap1\n      pop\n      jump\t// out\n        /* \"#utility.yul\":2631:2753   */\n    tag_209:\n        /* \"#utility.yul\":2704:2728   */\n      tag_311\n        /* \"#utility.yul\":2722:2727   */\n      dup2\n        /* \"#utility.yul\":2704:2728   */\n      tag_208\n      jump\t// in\n    tag_311:\n        /* \"#utility.yul\":2697:2702   */\n      dup2\n        /* \"#utility.yul\":2694:2729   */\n      eq\n        /* \"#utility.yul\":2684:2747   */\n      tag_312\n      jumpi\n        /* \"#utility.yul\":2743:2744   */\n      0x00\n        /* \"#utility.yul\":2740:2741   */\n      dup1\n        /* \"#utility.yul\":2733:2745   */\n      revert\n        /* \"#utility.yul\":2684:2747   */\n    tag_312:\n        /* \"#utility.yul\":2631:2753   */\n      pop\n      jump\t// out\n        /* \"#utility.yul\":2759:2898   */\n    tag_210:\n        /* \"#utility.yul\":2805:2810   */\n      0x00\n        /* \"#utility.yul\":2843:2849   */\n      dup2\n        /* \"#utility.yul\":2830:2850   */\n      calldataload\n        /* \"#utility.yul\":2821:2850   */\n      swap1\n      pop\n        /* \"#utility.yul\":2859:2892   */\n      tag_314\n        /* \"#utility.yul\":2886:2891   */\n      dup2\n        /* \"#utility.yul\":2859:2892   */\n      tag_209\n      jump\t// in\n    tag_314:\n        /* \"#utility.yul\":2759:2898   */\n      swap3\n      swap2\n      pop\n      pop\n      jump\t// out\n        /* \"#utility.yul\":2904:2993   */\n    tag_211:\n        /* \"#utility.yul\":2940:2947   */\n      0x00\n        /* \"#utility.yul\":2980:2986   */\n      0xffff\n        /* \"#utility.yul\":2973:2978   */\n      dup3\n        /* \"#utility.yul\":2969:2987   */\n      and\n        /* \"#utility.yul\":2958:2987   */\n      swap1\n      pop\n        /* \"#utility.yul\":2904:2993   */\n      swap2\n      swap1\n      pop\n      jump\t// out\n        /* \"#utility.yul\":2999:3119   */\n    tag_212:\n        /* \"#utility.yul\":3071:3094   */\n      tag_317\n        /* \"#utility.yul\":3088:3093   */\n      dup2\n        /* \"#utility.yul\":3071:3094   */\n      tag_211\n      jump\t// in\n    tag_317:\n        /* \"#utility.yul\":3064:3069   */\n      dup2\n        /* \"#utility.yul\":3061:3095   */\n      eq\n        /* \"#utility.yul\":3051:3113   */\n      tag_318\n      jumpi\n        /* \"#utility.yul\":3109:3110   */\n      0x00\n        /* \"#utility.yul\":3106:3107   */\n      dup1\n        /* \"#utility.yul\":3099:3111   */\n      revert\n        /* \"#utility.yul\":3051:3113   */\n    tag_318:\n        /* \"#utility.yul\":2999:3119   */\n      pop\n      jump\t// out\n        /* \"#utility.yul\":3125:3262   */\n    tag_213:\n        /* \"#utility.yul\":3170:3175   */\n      0x00\n        /* \"#utility.yul\":3208:3214   */\n      dup2\n        /* \"#utility.yul\":3195:3215   */\n      calldataload\n        /* \"#utility.yul\":3186:3215   */\n      swap1\n      pop\n        /* \"#utility.yul\":3224:3256   */\n      tag_320\n        /* \"#utility.yul\":3250:3255   */\n      dup2\n        /* \"#utility.yul\":3224:3256   */\n      tag_212\n      jump\t// in\n    tag_320:\n        /* \"#utility.yul\":3125:3262   */\n      swap3\n      swap2\n      pop\n      pop\n      jump\t// out\n        /* \"#utility.yul\":3268:4065   */\n    tag_21:\n        /* \"#utility.yul\":3354:3360   */\n      0x00\n        /* \"#utility.yul\":3362:3368   */\n      dup1\n        /* \"#utility.yul\":3370:3376   */\n      0x00\n        /* \"#utility.yul\":3419:3421   */\n      0x60\n        /* \"#utility.yul\":3407:3416   */\n      dup5\n        /* \"#utility.yul\":3398:3405   */\n      dup7\n        /* \"#utility.yul\":3394:3417   */\n      sub\n        /* \"#utility.yul\":3390:3422   */\n      slt\n        /* \"#utility.yul\":3387:3506   */\n      iszero\n      tag_322\n      jumpi\n        /* \"#utility.yul\":3425:3504   */\n      tag_323\n      tag_197\n      jump\t// in\n    tag_323:\n        /* \"#utility.yul\":3387:3506   */\n    tag_322:\n        /* \"#utility.yul\":3573:3574   */\n      0x00\n        /* \"#utility.yul\":3562:3571   */\n      dup5\n        /* \"#utility.yul\":3558:3575   */\n      add\n        /* \"#utility.yul\":3545:3576   */\n      calldataload\n        /* \"#utility.yul\":3603:3621   */\n      0xffffffffffffffff\n        /* \"#utility.yul\":3595:3601   */\n      dup2\n        /* \"#utility.yul\":3592:3622   */\n      gt\n        /* \"#utility.yul\":3589:3706   */\n      iszero\n      tag_324\n      jumpi\n        /* \"#utility.yul\":3625:3704   */\n      tag_325\n      tag_198\n      jump\t// in\n    tag_325:\n        /* \"#utility.yul\":3589:3706   */\n    tag_324:\n        /* \"#utility.yul\":3730:3793   */\n      tag_326\n        /* \"#utility.yul\":3785:3792   */\n      dup7\n        /* \"#utility.yul\":3776:3782   */\n      dup3\n        /* \"#utility.yul\":3765:3774   */\n      dup8\n        /* \"#utility.yul\":3761:3783   */\n      add\n        /* \"#utility.yul\":3730:3793   */\n      tag_207\n      jump\t// in\n    tag_326:\n        /* \"#utility.yul\":3720:3793   */\n      swap4\n      pop\n        /* \"#utility.yul\":3516:3803   */\n      pop\n        /* \"#utility.yul\":3842:3844   */\n      0x20\n        /* \"#utility.yul\":3868:3921   */\n      tag_327\n        /* \"#utility.yul\":3913:3920   */\n      dup7\n        /* \"#utility.yul\":3904:3910   */\n      dup3\n        /* \"#utility.yul\":3893:3902   */\n      dup8\n        /* \"#utility.yul\":3889:3911   */\n      add\n        /* \"#utility.yul\":3868:3921   */\n      tag_210\n      jump\t// in\n    tag_327:\n        /* \"#utility.yul\":3858:3921   */\n      swap3\n      pop\n        /* \"#utility.yul\":3813:3931   */\n      pop\n        /* \"#utility.yul\":3970:3972   */\n      0x40\n        /* \"#utility.yul\":3996:4048   */\n      tag_328\n        /* \"#utility.yul\":4040:4047   */\n      dup7\n        /* \"#utility.yul\":4031:4037   */\n      dup3\n        /* \"#utility.yul\":4020:4029   */\n      dup8\n        /* \"#utility.yul\":4016:4038   */\n      add\n        /* \"#utility.yul\":3996:4048   */\n      tag_213\n      jump\t// in\n    tag_328:\n        /* \"#utility.yul\":3986:4048   */\n      swap2\n      pop\n        /* \"#utility.yul\":3941:4058   */\n      pop\n        /* \"#utility.yul\":3268:4065   */\n      swap3\n      pop\n      swap3\n      pop\n      swap3\n      jump\t// out\n        /* \"#utility.yul\":4071:4170   */\n    tag_214:\n        /* \"#utility.yul\":4123:4129   */\n      0x00\n        /* \"#utility.yul\":4157:4162   */\n      dup2\n        /* \"#utility.yul\":4151:4163   */\n      mload\n        /* \"#utility.yul\":4141:4163   */\n      swap1\n      pop\n        /* \"#utility.yul\":4071:4170   */\n      swap2\n      swap1\n      pop\n      jump\t// out\n        /* \"#utility.yul\":4176:4345   */\n    tag_215:\n        /* \"#utility.yul\":4260:4271   */\n      0x00\n        /* \"#utility.yul\":4294:4300   */\n      dup3\n        /* \"#utility.yul\":4289:4292   */\n      dup3\n        /* \"#utility.yul\":4282:4301   */\n      mstore\n        /* \"#utility.yul\":4334:4338   */\n      0x20\n        /* \"#utility.yul\":4329:4332   */\n      dup3\n        /* \"#utility.yul\":4325:4339   */\n      add\n        /* \"#utility.yul\":4310:4339   */\n      swap1\n      pop\n        /* \"#utility.yul\":4176:4345   */\n      swap3\n      swap2\n      pop\n      pop\n      jump\t// out\n        /* \"#utility.yul\":4351:4658   */\n    tag_216:\n        /* \"#utility.yul\":4419:4420   */\n      0x00\n        /* \"#utility.yul\":4429:4542   */\n    tag_332:\n        /* \"#utility.yul\":4443:4449   */\n      dup4\n        /* \"#utility.yul\":4440:4441   */\n      dup2\n        /* \"#utility.yul\":4437:4450   */\n      lt\n        /* \"#utility.yul\":4429:4542   */\n      iszero\n      tag_334\n      jumpi\n        /* \"#utility.yul\":4528:4529   */\n      dup1\n        /* \"#utility.yul\":4523:4526   */\n      dup3\n        /* \"#utility.yul\":4519:4530   */\n      add\n        /* \"#utility.yul\":4513:4531   */\n      mload\n        /* \"#utility.yul\":4509:4510   */\n      dup2\n        /* \"#utility.yul\":4504:4507   */\n      dup5\n        /* \"#utility.yul\":4500:4511   */\n      add\n        /* \"#utility.yul\":4493:4532   */\n      mstore\n        /* \"#utility.yul\":4465:4467   */\n      0x20\n        /* \"#utility.yul\":4462:4463   */\n      dup2\n        /* \"#utility.yul\":4458:4468   */\n      add\n        /* \"#utility.yul\":4453:4468   */\n      swap1\n      pop\n        /* \"#utility.yul\":4429:4542   */\n      jump(tag_332)\n    tag_334:\n        /* \"#utility.yul\":4560:4566   */\n      dup4\n        /* \"#utility.yul\":4557:4558   */\n      dup2\n        /* \"#utility.yul\":4554:4567   */\n      gt\n        /* \"#utility.yul\":4551:4652   */\n      iszero\n      tag_335\n      jumpi\n        /* \"#utility.yul\":4640:4641   */\n      0x00\n        /* \"#utility.yul\":4631:4637   */\n      dup5\n        /* \"#utility.yul\":4626:4629   */\n      dup5\n        /* \"#utility.yul\":4622:4638   */\n      add\n        /* \"#utility.yul\":4615:4642   */\n      mstore\n        /* \"#utility.yul\":4551:4652   */\n    tag_335:\n        /* \"#utility.yul\":4400:4658   */\n      pop\n        /* \"#utility.yul\":4351:4658   */\n      pop\n      pop\n      pop\n      jump\t// out\n        /* \"#utility.yul\":4664:5028   */\n    tag_217:\n        /* \"#utility.yul\":4752:4755   */\n      0x00\n        /* \"#utility.yul\":4780:4819   */\n      tag_337\n        /* \"#utility.yul\":4813:4818   */\n      dup3\n        /* \"#utility.yul\":4780:4819   */\n      tag_214\n      jump\t// in\n    tag_337:\n        /* \"#utility.yul\":4835:4906   */\n      tag_338\n        /* \"#utility.yul\":4899:4905   */\n      dup2\n        /* \"#utility.yul\":4894:4897   */\n      dup6\n        /* \"#utility.yul\":4835:4906   */\n      tag_215\n      jump\t// in\n    tag_338:\n        /* \"#utility.yul\":4828:4906   */\n      swap4\n      pop\n        /* \"#utility.yul\":4915:4967   */\n      tag_339\n        /* \"#utility.yul\":4960:4966   */\n      dup2\n        /* \"#utility.yul\":4955:4958   */\n      dup6\n        /* \"#utility.yul\":4948:4952   */\n      0x20\n        /* \"#utility.yul\":4941:4946   */\n      dup7\n        /* \"#utility.yul\":4937:4953   */\n      add\n        /* \"#utility.yul\":4915:4967   */\n      tag_216\n      jump\t// in\n    tag_339:\n        /* \"#utility.yul\":4992:5021   */\n      tag_340\n        /* \"#utility.yul\":5014:5020   */\n      dup2\n        /* \"#utility.yul\":4992:5021   */\n      tag_201\n      jump\t// in\n    tag_340:\n        /* \"#utility.yul\":4987:4990   */\n      dup5\n        /* \"#utility.yul\":4983:5022   */\n      add\n        /* \"#utility.yul\":4976:5022   */\n      swap2\n      pop\n        /* \"#utility.yul\":4756:5028   */\n      pop\n        /* \"#utility.yul\":4664:5028   */\n      swap3\n      swap2\n      pop\n      pop\n      jump\t// out\n        /* \"#utility.yul\":5034:5152   */\n    tag_218:\n        /* \"#utility.yul\":5121:5145   */\n      tag_342\n        /* \"#utility.yul\":5139:5144   */\n      dup2\n        /* \"#utility.yul\":5121:5145   */\n      tag_208\n      jump\t// in\n    tag_342:\n        /* \"#utility.yul\":5116:5119   */\n      dup3\n        /* \"#utility.yul\":5109:5146   */\n      mstore\n        /* \"#utility.yul\":5034:5152   */\n      pop\n      pop\n      jump\t// out\n        /* \"#utility.yul\":5158:5691   */\n    tag_24:\n        /* \"#utility.yul\":5327:5331   */\n      0x00\n        /* \"#utility.yul\":5365:5367   */\n      0x60\n        /* \"#utility.yul\":5354:5363   */\n      dup3\n        /* \"#utility.yul\":5350:5368   */\n      add\n        /* \"#utility.yul\":5342:5368   */\n      swap1\n      pop\n        /* \"#utility.yul\":5414:5423   */\n      dup2\n        /* \"#utility.yul\":5408:5412   */\n      dup2\n        /* \"#utility.yul\":5404:5424   */\n      sub\n        /* \"#utility.yul\":5400:5401   */\n      0x00\n        /* \"#utility.yul\":5389:5398   */\n      dup4\n        /* \"#utility.yul\":5385:5402   */\n      add\n        /* \"#utility.yul\":5378:5425   */\n      mstore\n        /* \"#utility.yul\":5442:5520   */\n      tag_344\n        /* \"#utility.yul\":5515:5519   */\n      dup2\n        /* \"#utility.yul\":5506:5512   */\n      dup7\n        /* \"#utility.yul\":5442:5520   */\n      tag_217\n      jump\t// in\n    tag_344:\n        /* \"#utility.yul\":5434:5520   */\n      swap1\n      pop\n        /* \"#utility.yul\":5530:5602   */\n      tag_345\n        /* \"#utility.yul\":5598:5600   */\n      0x20\n        /* \"#utility.yul\":5587:5596   */\n      dup4\n        /* \"#utility.yul\":5583:5601   */\n      add\n        /* \"#utility.yul\":5574:5580   */\n      dup6\n        /* \"#utility.yul\":5530:5602   */\n      tag_218\n      jump\t// in\n    tag_345:\n        /* \"#utility.yul\":5612:5684   */\n      tag_346\n        /* \"#utility.yul\":5680:5682   */\n      0x40\n        /* \"#utility.yul\":5669:5678   */\n      dup4\n        /* \"#utility.yul\":5665:5683   */\n      add\n        /* \"#utility.yul\":5656:5662   */\n      dup5\n        /* \"#utility.yul\":5612:5684   */\n      tag_218\n      jump\t// in\n    tag_346:\n        /* \"#utility.yul\":5158:5691   */\n      swap5\n      swap4\n      pop\n      pop\n      pop\n      pop\n      jump\t// out\n        /* \"#utility.yul\":5697:5823   */\n    tag_219:\n        /* \"#utility.yul\":5734:5741   */\n      0x00\n        /* \"#utility.yul\":5774:5816   */\n      0xffffffffffffffffffffffffffffffffffffffff\n        /* \"#utility.yul\":5767:5772   */\n      dup3\n        /* \"#utility.yul\":5763:5817   */\n      and\n        /* \"#utility.yul\":5752:5817   */\n      swap1\n      pop\n        /* \"#utility.yul\":5697:5823   */\n      swap2\n      swap1\n      pop\n      jump\t// out\n        /* \"#utility.yul\":5829:5925   */\n    tag_220:\n        /* \"#utility.yul\":5866:5873   */\n      0x00\n        /* \"#utility.yul\":5895:5919   */\n      tag_349\n        /* \"#utility.yul\":5913:5918   */\n      dup3\n        /* \"#utility.yul\":5895:5919   */\n      tag_219\n      jump\t// in\n    tag_349:\n        /* \"#utility.yul\":5884:5919   */\n      swap1\n      pop\n        /* \"#utility.yul\":5829:5925   */\n      swap2\n      swap1\n      pop\n      jump\t// out\n        /* \"#utility.yul\":5931:6053   */\n    tag_221:\n        /* \"#utility.yul\":6004:6028   */\n      tag_351\n        /* \"#utility.yul\":6022:6027   */\n      dup2\n        /* \"#utility.yul\":6004:6028   */\n      tag_220\n      jump\t// in\n    tag_351:\n        /* \"#utility.yul\":5997:6002   */\n      dup2\n        /* \"#utility.yul\":5994:6029   */\n      eq\n        /* \"#utility.yul\":5984:6047   */\n      tag_352\n      jumpi\n        /* \"#utility.yul\":6043:6044   */\n      0x00\n        /* \"#utility.yul\":6040:6041   */\n      dup1\n        /* \"#utility.yul\":6033:6045   */\n      revert\n        /* \"#utility.yul\":5984:6047   */\n    tag_352:\n        /* \"#utility.yul\":5931:6053   */\n      pop\n      jump\t// out\n        /* \"#utility.yul\":6059:6198   */\n    tag_222:\n        /* \"#utility.yul\":6105:6110   */\n      0x00\n        /* \"#utility.yul\":6143:6149   */\n      dup2\n        /* \"#utility.yul\":6130:6150   */\n      calldataload\n        /* \"#utility.yul\":6121:6150   */\n      swap1\n      pop\n        /* \"#utility.yul\":6159:6192   */\n      tag_354\n        /* \"#utility.yul\":6186:6191   */\n      dup2\n        /* \"#utility.yul\":6159:6192   */\n      tag_221\n      jump\t// in\n    tag_354:\n        /* \"#utility.yul\":6059:6198   */\n      swap3\n      swap2\n      pop\n      pop\n      jump\t// out\n        /* \"#utility.yul\":6204:7149   */\n    tag_28:\n        /* \"#utility.yul\":6300:6306   */\n      0x00\n        /* \"#utility.yul\":6308:6314   */\n      dup1\n        /* \"#utility.yul\":6316:6322   */\n      0x00\n        /* \"#utility.yul\":6324:6330   */\n      dup1\n        /* \"#utility.yul\":6373:6376   */\n      0x80\n        /* \"#utility.yul\":6361:6370   */\n      dup6\n        /* \"#utility.yul\":6352:6359   */\n      dup8\n        /* \"#utility.yul\":6348:6371   */\n      sub\n        /* \"#utility.yul\":6344:6377   */\n      slt\n        /* \"#utility.yul\":6341:6461   */\n      iszero\n      tag_356\n      jumpi\n        /* \"#utility.yul\":6380:6459   */\n      tag_357\n      tag_197\n      jump\t// in\n    tag_357:\n        /* \"#utility.yul\":6341:6461   */\n    tag_356:\n        /* \"#utility.yul\":6500:6501   */\n      0x00\n        /* \"#utility.yul\":6525:6578   */\n      tag_358\n        /* \"#utility.yul\":6570:6577   */\n      dup8\n        /* \"#utility.yul\":6561:6567   */\n      dup3\n        /* \"#utility.yul\":6550:6559   */\n      dup9\n        /* \"#utility.yul\":6546:6568   */\n      add\n        /* \"#utility.yul\":6525:6578   */\n      tag_222\n      jump\t// in\n    tag_358:\n        /* \"#utility.yul\":6515:6578   */\n      swap5\n      pop\n        /* \"#utility.yul\":6471:6588   */\n      pop\n        /* \"#utility.yul\":6655:6657   */\n      0x20\n        /* \"#utility.yul\":6644:6653   */\n      dup6\n        /* \"#utility.yul\":6640:6658   */\n      add\n        /* \"#utility.yul\":6627:6659   */\n      calldataload\n        /* \"#utility.yul\":6686:6704   */\n      0xffffffffffffffff\n        /* \"#utility.yul\":6678:6684   */\n      dup2\n        /* \"#utility.yul\":6675:6705   */\n      gt\n        /* \"#utility.yul\":6672:6789   */\n      iszero\n      tag_359\n      jumpi\n        /* \"#utility.yul\":6708:6787   */\n      tag_360\n      tag_198\n      jump\t// in\n    tag_360:\n        /* \"#utility.yul\":6672:6789   */\n    tag_359:\n        /* \"#utility.yul\":6813:6876   */\n      tag_361\n        /* \"#utility.yul\":6868:6875   */\n      dup8\n        /* \"#utility.yul\":6859:6865   */\n      dup3\n        /* \"#utility.yul\":6848:6857   */\n      dup9\n        /* \"#utility.yul\":6844:6866   */\n      add\n        /* \"#utility.yul\":6813:6876   */\n      tag_207\n      jump\t// in\n    tag_361:\n        /* \"#utility.yul\":6803:6876   */\n      swap4\n      pop\n        /* \"#utility.yul\":6598:6886   */\n      pop\n        /* \"#utility.yul\":6925:6927   */\n      0x40\n        /* \"#utility.yul\":6951:7004   */\n      tag_362\n        /* \"#utility.yul\":6996:7003   */\n      dup8\n        /* \"#utility.yul\":6987:6993   */\n      dup3\n        /* \"#utility.yul\":6976:6985   */\n      dup9\n        /* \"#utility.yul\":6972:6994   */\n      add\n        /* \"#utility.yul\":6951:7004   */\n      tag_210\n      jump\t// in\n    tag_362:\n        /* \"#utility.yul\":6941:7004   */\n      swap3\n      pop\n        /* \"#utility.yul\":6896:7014   */\n      pop\n        /* \"#utility.yul\":7053:7055   */\n      0x60\n        /* \"#utility.yul\":7079:7132   */\n      tag_363\n        /* \"#utility.yul\":7124:7131   */\n      dup8\n        /* \"#utility.yul\":7115:7121   */\n      dup3\n        /* \"#utility.yul\":7104:7113   */\n      dup9\n        /* \"#utility.yul\":7100:7122   */\n      add\n        /* \"#utility.yul\":7079:7132   */\n      tag_210\n      jump\t// in\n    tag_363:\n        /* \"#utility.yul\":7069:7132   */\n      swap2\n      pop\n        /* \"#utility.yul\":7024:7142   */\n      pop\n        /* \"#utility.yul\":6204:7149   */\n      swap3\n      swap6\n      swap2\n      swap5\n      pop\n      swap3\n      pop\n      jump\t// out\n        /* \"#utility.yul\":7155:7232   */\n    tag_223:\n        /* \"#utility.yul\":7192:7199   */\n      0x00\n        /* \"#utility.yul\":7221:7226   */\n      dup2\n        /* \"#utility.yul\":7210:7226   */\n      swap1\n      pop\n        /* \"#utility.yul\":7155:7232   */\n      swap2\n      swap1\n      pop\n      jump\t// out\n        /* \"#utility.yul\":7238:7356   */\n    tag_224:\n        /* \"#utility.yul\":7325:7349   */\n      tag_366\n        /* \"#utility.yul\":7343:7348   */\n      dup2\n        /* \"#utility.yul\":7325:7349   */\n      tag_223\n      jump\t// in\n    tag_366:\n        /* \"#utility.yul\":7320:7323   */\n      dup3\n        /* \"#utility.yul\":7313:7350   */\n      mstore\n        /* \"#utility.yul\":7238:7356   */\n      pop\n      pop\n      jump\t// out\n        /* \"#utility.yul\":7362:7584   */\n    tag_31:\n        /* \"#utility.yul\":7455:7459   */\n      0x00\n        /* \"#utility.yul\":7493:7495   */\n      0x20\n        /* \"#utility.yul\":7482:7491   */\n      dup3\n        /* \"#utility.yul\":7478:7496   */\n      add\n        /* \"#utility.yul\":7470:7496   */\n      swap1\n      pop\n        /* \"#utility.yul\":7506:7577   */\n      tag_368\n        /* \"#utility.yul\":7574:7575   */\n      0x00\n        /* \"#utility.yul\":7563:7572   */\n      dup4\n        /* \"#utility.yul\":7559:7576   */\n      add\n        /* \"#utility.yul\":7550:7556   */\n      dup5\n        /* \"#utility.yul\":7506:7577   */\n      tag_224\n      jump\t// in\n    tag_368:\n        /* \"#utility.yul\":7362:7584   */\n      swap3\n      swap2\n      pop\n      pop\n      jump\t// out\n        /* \"#utility.yul\":7590:7897   */\n    tag_225:\n        /* \"#utility.yul\":7651:7655   */\n      0x00\n        /* \"#utility.yul\":7741:7759   */\n      0xffffffffffffffff\n        /* \"#utility.yul\":7733:7739   */\n      dup3\n        /* \"#utility.yul\":7730:7760   */\n      gt\n        /* \"#utility.yul\":7727:7783   */\n      iszero\n      tag_370\n      jumpi\n        /* \"#utility.yul\":7763:7781   */\n      tag_371\n      tag_122\n      jump\t// in\n    tag_371:\n        /* \"#utility.yul\":7727:7783   */\n    tag_370:\n        /* \"#utility.yul\":7801:7830   */\n      tag_372\n        /* \"#utility.yul\":7823:7829   */\n      dup3\n        /* \"#utility.yul\":7801:7830   */\n      tag_201\n      jump\t// in\n    tag_372:\n        /* \"#utility.yul\":7793:7830   */\n      swap1\n      pop\n        /* \"#utility.yul\":7885:7889   */\n      0x20\n        /* \"#utility.yul\":7879:7883   */\n      dup2\n        /* \"#utility.yul\":7875:7890   */\n      add\n        /* \"#utility.yul\":7867:7890   */\n      swap1\n      pop\n        /* \"#utility.yul\":7590:7897   */\n      swap2\n      swap1\n      pop\n      jump\t// out\n        /* \"#utility.yul\":7903:8313   */\n    tag_226:\n        /* \"#utility.yul\":7980:7985   */\n      0x00\n        /* \"#utility.yul\":8005:8070   */\n      tag_374\n        /* \"#utility.yul\":8021:8069   */\n      tag_375\n        /* \"#utility.yul\":8062:8068   */\n      dup5\n        /* \"#utility.yul\":8021:8069   */\n      tag_225\n      jump\t// in\n    tag_375:\n        /* \"#utility.yul\":8005:8070   */\n      tag_203\n      jump\t// in\n    tag_374:\n        /* \"#utility.yul\":7996:8070   */\n      swap1\n      pop\n        /* \"#utility.yul\":8093:8099   */\n      dup3\n        /* \"#utility.yul\":8086:8091   */\n      dup2\n        /* \"#utility.yul\":8079:8100   */\n      mstore\n        /* \"#utility.yul\":8131:8135   */\n      0x20\n        /* \"#utility.yul\":8124:8129   */\n      dup2\n        /* \"#utility.yul\":8120:8136   */\n      add\n        /* \"#utility.yul\":8169:8172   */\n      dup5\n        /* \"#utility.yul\":8160:8166   */\n      dup5\n        /* \"#utility.yul\":8155:8158   */\n      dup5\n        /* \"#utility.yul\":8151:8167   */\n      add\n        /* \"#utility.yul\":8148:8173   */\n      gt\n        /* \"#utility.yul\":8145:8257   */\n      iszero\n      tag_376\n      jumpi\n        /* \"#utility.yul\":8176:8255   */\n      tag_377\n      tag_200\n      jump\t// in\n    tag_377:\n        /* \"#utility.yul\":8145:8257   */\n    tag_376:\n        /* \"#utility.yul\":8266:8307   */\n      tag_378\n        /* \"#utility.yul\":8300:8306   */\n      dup5\n        /* \"#utility.yul\":8295:8298   */\n      dup3\n        /* \"#utility.yul\":8290:8293   */\n      dup6\n        /* \"#utility.yul\":8266:8307   */\n      tag_205\n      jump\t// in\n    tag_378:\n        /* \"#utility.yul\":7986:8313   */\n      pop\n        /* \"#utility.yul\":7903:8313   */\n      swap4\n      swap3\n      pop\n      pop\n      pop\n      jump\t// out\n        /* \"#utility.yul\":8332:8670   */\n    tag_227:\n        /* \"#utility.yul\":8387:8392   */\n      0x00\n        /* \"#utility.yul\":8436:8439   */\n      dup3\n        /* \"#utility.yul\":8429:8433   */\n      0x1f\n        /* \"#utility.yul\":8421:8427   */\n      dup4\n        /* \"#utility.yul\":8417:8434   */\n      add\n        /* \"#utility.yul\":8413:8440   */\n      slt\n        /* \"#utility.yul\":8403:8525   */\n      tag_380\n      jumpi\n        /* \"#utility.yul\":8444:8523   */\n      tag_381\n      tag_199\n      jump\t// in\n    tag_381:\n        /* \"#utility.yul\":8403:8525   */\n    tag_380:\n        /* \"#utility.yul\":8561:8567   */\n      dup2\n        /* \"#utility.yul\":8548:8568   */\n      calldataload\n        /* \"#utility.yul\":8586:8664   */\n      tag_382\n        /* \"#utility.yul\":8660:8663   */\n      dup5\n        /* \"#utility.yul\":8652:8658   */\n      dup3\n        /* \"#utility.yul\":8645:8649   */\n      0x20\n        /* \"#utility.yul\":8637:8643   */\n      dup7\n        /* \"#utility.yul\":8633:8650   */\n      add\n        /* \"#utility.yul\":8586:8664   */\n      tag_226\n      jump\t// in\n    tag_382:\n        /* \"#utility.yul\":8577:8664   */\n      swap2\n      pop\n        /* \"#utility.yul\":8393:8670   */\n      pop\n        /* \"#utility.yul\":8332:8670   */\n      swap3\n      swap2\n      pop\n      pop\n      jump\t// out\n        /* \"#utility.yul\":8676:9799   */\n    tag_35:\n        /* \"#utility.yul\":8781:8787   */\n      0x00\n        /* \"#utility.yul\":8789:8795   */\n      dup1\n        /* \"#utility.yul\":8797:8803   */\n      0x00\n        /* \"#utility.yul\":8805:8811   */\n      dup1\n        /* \"#utility.yul\":8854:8857   */\n      0x80\n        /* \"#utility.yul\":8842:8851   */\n      dup6\n        /* \"#utility.yul\":8833:8840   */\n      dup8\n        /* \"#utility.yul\":8829:8852   */\n      sub\n        /* \"#utility.yul\":8825:8858   */\n      slt\n        /* \"#utility.yul\":8822:8942   */\n      iszero\n      tag_384\n      jumpi\n        /* \"#utility.yul\":8861:8940   */\n      tag_385\n      tag_197\n      jump\t// in\n    tag_385:\n        /* \"#utility.yul\":8822:8942   */\n    tag_384:\n        /* \"#utility.yul\":8981:8982   */\n      0x00\n        /* \"#utility.yul\":9006:9059   */\n      tag_386\n        /* \"#utility.yul\":9051:9058   */\n      dup8\n        /* \"#utility.yul\":9042:9048   */\n      dup3\n        /* \"#utility.yul\":9031:9040   */\n      dup9\n        /* \"#utility.yul\":9027:9049   */\n      add\n        /* \"#utility.yul\":9006:9059   */\n      tag_222\n      jump\t// in\n    tag_386:\n        /* \"#utility.yul\":8996:9059   */\n      swap5\n      pop\n        /* \"#utility.yul\":8952:9069   */\n      pop\n        /* \"#utility.yul\":9136:9138   */\n      0x20\n        /* \"#utility.yul\":9125:9134   */\n      dup6\n        /* \"#utility.yul\":9121:9139   */\n      add\n        /* \"#utility.yul\":9108:9140   */\n      calldataload\n        /* \"#utility.yul\":9167:9185   */\n      0xffffffffffffffff\n        /* \"#utility.yul\":9159:9165   */\n      dup2\n        /* \"#utility.yul\":9156:9186   */\n      gt\n        /* \"#utility.yul\":9153:9270   */\n      iszero\n      tag_387\n      jumpi\n        /* \"#utility.yul\":9189:9268   */\n      tag_388\n      tag_198\n      jump\t// in\n    tag_388:\n        /* \"#utility.yul\":9153:9270   */\n    tag_387:\n        /* \"#utility.yul\":9294:9357   */\n      tag_389\n        /* \"#utility.yul\":9349:9356   */\n      dup8\n        /* \"#utility.yul\":9340:9346   */\n      dup3\n        /* \"#utility.yul\":9329:9338   */\n      dup9\n        /* \"#utility.yul\":9325:9347   */\n      add\n        /* \"#utility.yul\":9294:9357   */\n      tag_207\n      jump\t// in\n    tag_389:\n        /* \"#utility.yul\":9284:9357   */\n      swap4\n      pop\n        /* \"#utility.yul\":9079:9367   */\n      pop\n        /* \"#utility.yul\":9406:9408   */\n      0x40\n        /* \"#utility.yul\":9432:9485   */\n      tag_390\n        /* \"#utility.yul\":9477:9484   */\n      dup8\n        /* \"#utility.yul\":9468:9474   */\n      dup3\n        /* \"#utility.yul\":9457:9466   */\n      dup9\n        /* \"#utility.yul\":9453:9475   */\n      add\n        /* \"#utility.yul\":9432:9485   */\n      tag_210\n      jump\t// in\n    tag_390:\n        /* \"#utility.yul\":9422:9485   */\n      swap3\n      pop\n        /* \"#utility.yul\":9377:9495   */\n      pop\n        /* \"#utility.yul\":9562:9564   */\n      0x60\n        /* \"#utility.yul\":9551:9560   */\n      dup6\n        /* \"#utility.yul\":9547:9565   */\n      add\n        /* \"#utility.yul\":9534:9566   */\n      calldataload\n        /* \"#utility.yul\":9593:9611   */\n      0xffffffffffffffff\n        /* \"#utility.yul\":9585:9591   */\n      dup2\n        /* \"#utility.yul\":9582:9612   */\n      gt\n        /* \"#utility.yul\":9579:9696   */\n      iszero\n      tag_391\n      jumpi\n        /* \"#utility.yul\":9615:9694   */\n      tag_392\n      tag_198\n      jump\t// in\n    tag_392:\n        /* \"#utility.yul\":9579:9696   */\n    tag_391:\n        /* \"#utility.yul\":9720:9782   */\n      tag_393\n        /* \"#utility.yul\":9774:9781   */\n      dup8\n        /* \"#utility.yul\":9765:9771   */\n      dup3\n        /* \"#utility.yul\":9754:9763   */\n      dup9\n        /* \"#utility.yul\":9750:9772   */\n      add\n        /* \"#utility.yul\":9720:9782   */\n      tag_227\n      jump\t// in\n    tag_393:\n        /* \"#utility.yul\":9710:9782   */\n      swap2\n      pop\n        /* \"#utility.yul\":9505:9792   */\n      pop\n        /* \"#utility.yul\":8676:9799   */\n      swap3\n      swap6\n      swap2\n      swap5\n      pop\n      swap3\n      pop\n      jump\t// out\n        /* \"#utility.yul\":9805:10314   */\n    tag_40:\n        /* \"#utility.yul\":9874:9880   */\n      0x00\n        /* \"#utility.yul\":9923:9925   */\n      0x20\n        /* \"#utility.yul\":9911:9920   */\n      dup3\n        /* \"#utility.yul\":9902:9909   */\n      dup5\n        /* \"#utility.yul\":9898:9921   */\n      sub\n        /* \"#utility.yul\":9894:9926   */\n      slt\n        /* \"#utility.yul\":9891:10010   */\n      iszero\n      tag_395\n      jumpi\n        /* \"#utility.yul\":9929:10008   */\n      tag_396\n      tag_197\n      jump\t// in\n    tag_396:\n        /* \"#utility.yul\":9891:10010   */\n    tag_395:\n        /* \"#utility.yul\":10077:10078   */\n      0x00\n        /* \"#utility.yul\":10066:10075   */\n      dup3\n        /* \"#utility.yul\":10062:10079   */\n      add\n        /* \"#utility.yul\":10049:10080   */\n      calldataload\n        /* \"#utility.yul\":10107:10125   */\n      0xffffffffffffffff\n        /* \"#utility.yul\":10099:10105   */\n      dup2\n        /* \"#utility.yul\":10096:10126   */\n      gt\n        /* \"#utility.yul\":10093:10210   */\n      iszero\n      tag_397\n      jumpi\n        /* \"#utility.yul\":10129:10208   */\n      tag_398\n      tag_198\n      jump\t// in\n    tag_398:\n        /* \"#utility.yul\":10093:10210   */\n    tag_397:\n        /* \"#utility.yul\":10234:10297   */\n      tag_399\n        /* \"#utility.yul\":10289:10296   */\n      dup5\n        /* \"#utility.yul\":10280:10286   */\n      dup3\n        /* \"#utility.yul\":10269:10278   */\n      dup6\n        /* \"#utility.yul\":10265:10287   */\n      add\n        /* \"#utility.yul\":10234:10297   */\n      tag_207\n      jump\t// in\n    tag_399:\n        /* \"#utility.yul\":10224:10297   */\n      swap2\n      pop\n        /* \"#utility.yul\":10020:10307   */\n      pop\n        /* \"#utility.yul\":9805:10314   */\n      swap3\n      swap2\n      pop\n      pop\n      jump\t// out\n        /* \"#utility.yul\":10320:10434   */\n    tag_228:\n        /* \"#utility.yul\":10387:10393   */\n      0x00\n        /* \"#utility.yul\":10421:10426   */\n      dup2\n        /* \"#utility.yul\":10415:10427   */\n      mload\n        /* \"#utility.yul\":10405:10427   */\n      swap1\n      pop\n        /* \"#utility.yul\":10320:10434   */\n      swap2\n      swap1\n      pop\n      jump\t// out\n        /* \"#utility.yul\":10440:10624   */\n    tag_229:\n        /* \"#utility.yul\":10539:10550   */\n      0x00\n        /* \"#utility.yul\":10573:10579   */\n      dup3\n        /* \"#utility.yul\":10568:10571   */\n      dup3\n        /* \"#utility.yul\":10561:10580   */\n      mstore\n        /* \"#utility.yul\":10613:10617   */\n      0x20\n        /* \"#utility.yul\":10608:10611   */\n      dup3\n        /* \"#utility.yul\":10604:10618   */\n      add\n        /* \"#utility.yul\":10589:10618   */\n      swap1\n      pop\n        /* \"#utility.yul\":10440:10624   */\n      swap3\n      swap2\n      pop\n      pop\n      jump\t// out\n        /* \"#utility.yul\":10630:10762   */\n    tag_230:\n        /* \"#utility.yul\":10697:10701   */\n      0x00\n        /* \"#utility.yul\":10720:10723   */\n      dup2\n        /* \"#utility.yul\":10712:10723   */\n      swap1\n      pop\n        /* \"#utility.yul\":10750:10754   */\n      0x20\n        /* \"#utility.yul\":10745:10748   */\n      dup3\n        /* \"#utility.yul\":10741:10755   */\n      add\n        /* \"#utility.yul\":10733:10755   */\n      swap1\n      pop\n        /* \"#utility.yul\":10630:10762   */\n      swap2\n      swap1\n      pop\n      jump\t// out\n        /* \"#utility.yul\":10768:10876   */\n    tag_231:\n        /* \"#utility.yul\":10845:10869   */\n      tag_404\n        /* \"#utility.yul\":10863:10868   */\n      dup2\n        /* \"#utility.yul\":10845:10869   */\n      tag_208\n      jump\t// in\n    tag_404:\n        /* \"#utility.yul\":10840:10843   */\n      dup3\n        /* \"#utility.yul\":10833:10870   */\n      mstore\n        /* \"#utility.yul\":10768:10876   */\n      pop\n      pop\n      jump\t// out\n        /* \"#utility.yul\":10882:11061   */\n    tag_232:\n        /* \"#utility.yul\":10951:10961   */\n      0x00\n        /* \"#utility.yul\":10972:11018   */\n      tag_406\n        /* \"#utility.yul\":11014:11017   */\n      dup4\n        /* \"#utility.yul\":11006:11012   */\n      dup4\n        /* \"#utility.yul\":10972:11018   */\n      tag_231\n      jump\t// in\n    tag_406:\n        /* \"#utility.yul\":11050:11054   */\n      0x20\n        /* \"#utility.yul\":11045:11048   */\n      dup4\n        /* \"#utility.yul\":11041:11055   */\n      add\n        /* \"#utility.yul\":11027:11055   */\n      swap1\n      pop\n        /* \"#utility.yul\":10882:11061   */\n      swap3\n      swap2\n      pop\n      pop\n      jump\t// out\n        /* \"#utility.yul\":11067:11180   */\n    tag_233:\n        /* \"#utility.yul\":11137:11141   */\n      0x00\n        /* \"#utility.yul\":11169:11173   */\n      0x20\n        /* \"#utility.yul\":11164:11167   */\n      dup3\n        /* \"#utility.yul\":11160:11174   */\n      add\n        /* \"#utility.yul\":11152:11174   */\n      swap1\n      pop\n        /* \"#utility.yul\":11067:11180   */\n      swap2\n      swap1\n      pop\n      jump\t// out\n        /* \"#utility.yul\":11216:11948   */\n    tag_234:\n        /* \"#utility.yul\":11335:11338   */\n      0x00\n        /* \"#utility.yul\":11364:11418   */\n      tag_409\n        /* \"#utility.yul\":11412:11417   */\n      dup3\n        /* \"#utility.yul\":11364:11418   */\n      tag_228\n      jump\t// in\n    tag_409:\n        /* \"#utility.yul\":11434:11520   */\n      tag_410\n        /* \"#utility.yul\":11513:11519   */\n      dup2\n        /* \"#utility.yul\":11508:11511   */\n      dup6\n        /* \"#utility.yul\":11434:11520   */\n      tag_229\n      jump\t// in\n    tag_410:\n        /* \"#utility.yul\":11427:11520   */\n      swap4\n      pop\n        /* \"#utility.yul\":11544:11600   */\n      tag_411\n        /* \"#utility.yul\":11594:11599   */\n      dup4\n        /* \"#utility.yul\":11544:11600   */\n      tag_230\n      jump\t// in\n    tag_411:\n        /* \"#utility.yul\":11623:11630   */\n      dup1\n        /* \"#utility.yul\":11654:11655   */\n      0x00\n        /* \"#utility.yul\":11639:11923   */\n    tag_412:\n        /* \"#utility.yul\":11664:11670   */\n      dup4\n        /* \"#utility.yul\":11661:11662   */\n      dup2\n        /* \"#utility.yul\":11658:11671   */\n      lt\n        /* \"#utility.yul\":11639:11923   */\n      iszero\n      tag_414\n      jumpi\n        /* \"#utility.yul\":11740:11746   */\n      dup2\n        /* \"#utility.yul\":11734:11747   */\n      mload\n        /* \"#utility.yul\":11767:11830   */\n      tag_415\n        /* \"#utility.yul\":11826:11829   */\n      dup9\n        /* \"#utility.yul\":11811:11824   */\n      dup3\n        /* \"#utility.yul\":11767:11830   */\n      tag_232\n      jump\t// in\n    tag_415:\n        /* \"#utility.yul\":11760:11830   */\n      swap8\n      pop\n        /* \"#utility.yul\":11853:11913   */\n      tag_416\n        /* \"#utility.yul\":11906:11912   */\n      dup4\n        /* \"#utility.yul\":11853:11913   */\n      tag_233\n      jump\t// in\n    tag_416:\n        /* \"#utility.yul\":11843:11913   */\n      swap3\n      pop\n        /* \"#utility.yul\":11699:11923   */\n      pop\n        /* \"#utility.yul\":11686:11687   */\n      0x01\n        /* \"#utility.yul\":11683:11684   */\n      dup2\n        /* \"#utility.yul\":11679:11688   */\n      add\n        /* \"#utility.yul\":11674:11688   */\n      swap1\n      pop\n        /* \"#utility.yul\":11639:11923   */\n      jump(tag_412)\n    tag_414:\n        /* \"#utility.yul\":11643:11657   */\n      pop\n        /* \"#utility.yul\":11939:11942   */\n      dup6\n        /* \"#utility.yul\":11932:11942   */\n      swap4\n      pop\n        /* \"#utility.yul\":11340:11948   */\n      pop\n      pop\n      pop\n        /* \"#utility.yul\":11216:11948   */\n      swap3\n      swap2\n      pop\n      pop\n      jump\t// out\n        /* \"#utility.yul\":11954:12072   */\n    tag_235:\n        /* \"#utility.yul\":12041:12065   */\n      tag_418\n        /* \"#utility.yul\":12059:12064   */\n      dup2\n        /* \"#utility.yul\":12041:12065   */\n      tag_220\n      jump\t// in\n    tag_418:\n        /* \"#utility.yul\":12036:12039   */\n      dup3\n        /* \"#utility.yul\":12029:12066   */\n      mstore\n        /* \"#utility.yul\":11954:12072   */\n      pop\n      pop\n      jump\t// out\n        /* \"#utility.yul\":12078:12671   */\n    tag_43:\n        /* \"#utility.yul\":12277:12281   */\n      0x00\n        /* \"#utility.yul\":12315:12317   */\n      0x60\n        /* \"#utility.yul\":12304:12313   */\n      dup3\n        /* \"#utility.yul\":12300:12318   */\n      add\n        /* \"#utility.yul\":12292:12318   */\n      swap1\n      pop\n        /* \"#utility.yul\":12364:12373   */\n      dup2\n        /* \"#utility.yul\":12358:12362   */\n      dup2\n        /* \"#utility.yul\":12354:12374   */\n      sub\n        /* \"#utility.yul\":12350:12351   */\n      0x00\n        /* \"#utility.yul\":12339:12348   */\n      dup4\n        /* \"#utility.yul\":12335:12352   */\n      add\n        /* \"#utility.yul\":12328:12375   */\n      mstore\n        /* \"#utility.yul\":12392:12500   */\n      tag_420\n        /* \"#utility.yul\":12495:12499   */\n      dup2\n        /* \"#utility.yul\":12486:12492   */\n      dup7\n        /* \"#utility.yul\":12392:12500   */\n      tag_234\n      jump\t// in\n    tag_420:\n        /* \"#utility.yul\":12384:12500   */\n      swap1\n      pop\n        /* \"#utility.yul\":12510:12582   */\n      tag_421\n        /* \"#utility.yul\":12578:12580   */\n      0x20\n        /* \"#utility.yul\":12567:12576   */\n      dup4\n        /* \"#utility.yul\":12563:12581   */\n      add\n        /* \"#utility.yul\":12554:12560   */\n      dup6\n        /* \"#utility.yul\":12510:12582   */\n      tag_235\n      jump\t// in\n    tag_421:\n        /* \"#utility.yul\":12592:12664   */\n      tag_422\n        /* \"#utility.yul\":12660:12662   */\n      0x40\n        /* \"#utility.yul\":12649:12658   */\n      dup4\n        /* \"#utility.yul\":12645:12663   */\n      add\n        /* \"#utility.yul\":12636:12642   */\n      dup5\n        /* \"#utility.yul\":12592:12664   */\n      tag_218\n      jump\t// in\n    tag_422:\n        /* \"#utility.yul\":12078:12671   */\n      swap5\n      swap4\n      pop\n      pop\n      pop\n      pop\n      jump\t// out\n        /* \"#utility.yul\":12677:13331   */\n    tag_47:\n        /* \"#utility.yul\":12755:12761   */\n      0x00\n        /* \"#utility.yul\":12763:12769   */\n      dup1\n        /* \"#utility.yul\":12812:12814   */\n      0x40\n        /* \"#utility.yul\":12800:12809   */\n      dup4\n        /* \"#utility.yul\":12791:12798   */\n      dup6\n        /* \"#utility.yul\":12787:12810   */\n      sub\n        /* \"#utility.yul\":12783:12815   */\n      slt\n        /* \"#utility.yul\":12780:12899   */\n      iszero\n      tag_424\n      jumpi\n        /* \"#utility.yul\":12818:12897   */\n      tag_425\n      tag_197\n      jump\t// in\n    tag_425:\n        /* \"#utility.yul\":12780:12899   */\n    tag_424:\n        /* \"#utility.yul\":12938:12939   */\n      0x00\n        /* \"#utility.yul\":12963:13016   */\n      tag_426\n        /* \"#utility.yul\":13008:13015   */\n      dup6\n        /* \"#utility.yul\":12999:13005   */\n      dup3\n        /* \"#utility.yul\":12988:12997   */\n      dup7\n        /* \"#utility.yul\":12984:13006   */\n      add\n        /* \"#utility.yul\":12963:13016   */\n      tag_222\n      jump\t// in\n    tag_426:\n        /* \"#utility.yul\":12953:13016   */\n      swap3\n      pop\n        /* \"#utility.yul\":12909:13026   */\n      pop\n        /* \"#utility.yul\":13093:13095   */\n      0x20\n        /* \"#utility.yul\":13082:13091   */\n      dup4\n        /* \"#utility.yul\":13078:13096   */\n      add\n        /* \"#utility.yul\":13065:13097   */\n      calldataload\n        /* \"#utility.yul\":13124:13142   */\n      0xffffffffffffffff\n        /* \"#utility.yul\":13116:13122   */\n      dup2\n        /* \"#utility.yul\":13113:13143   */\n      gt\n        /* \"#utility.yul\":13110:13227   */\n      iszero\n      tag_427\n      jumpi\n        /* \"#utility.yul\":13146:13225   */\n      tag_428\n      tag_198\n      jump\t// in\n    tag_428:\n        /* \"#utility.yul\":13110:13227   */\n    tag_427:\n        /* \"#utility.yul\":13251:13314   */\n      tag_429\n        /* \"#utility.yul\":13306:13313   */\n      dup6\n        /* \"#utility.yul\":13297:13303   */\n      dup3\n        /* \"#utility.yul\":13286:13295   */\n      dup7\n        /* \"#utility.yul\":13282:13304   */\n      add\n        /* \"#utility.yul\":13251:13314   */\n      tag_207\n      jump\t// in\n    tag_429:\n        /* \"#utility.yul\":13241:13314   */\n      swap2\n      pop\n        /* \"#utility.yul\":13036:13324   */\n      pop\n        /* \"#utility.yul\":12677:13331   */\n      swap3\n      pop\n      swap3\n      swap1\n      pop\n      jump\t// out\n        /* \"#utility.yul\":13337:13452   */\n    tag_236:\n        /* \"#utility.yul\":13422:13445   */\n      tag_431\n        /* \"#utility.yul\":13439:13444   */\n      dup2\n        /* \"#utility.yul\":13422:13445   */\n      tag_211\n      jump\t// in\n    tag_431:\n        /* \"#utility.yul\":13417:13420   */\n      dup3\n        /* \"#utility.yul\":13410:13446   */\n      mstore\n        /* \"#utility.yul\":13337:13452   */\n      pop\n      pop\n      jump\t// out\n        /* \"#utility.yul\":13458:13551   */\n    tag_237:\n        /* \"#utility.yul\":13494:13501   */\n      0x00\n        /* \"#utility.yul\":13534:13544   */\n      0xffffffff\n        /* \"#utility.yul\":13527:13532   */\n      dup3\n        /* \"#utility.yul\":13523:13545   */\n      and\n        /* \"#utility.yul\":13512:13545   */\n      swap1\n      pop\n        /* \"#utility.yul\":13458:13551   */\n      swap2\n      swap1\n      pop\n      jump\t// out\n        /* \"#utility.yul\":13557:13672   */\n    tag_238:\n        /* \"#utility.yul\":13642:13665   */\n      tag_434\n        /* \"#utility.yul\":13659:13664   */\n      dup2\n        /* \"#utility.yul\":13642:13665   */\n      tag_237\n      jump\t// in\n    tag_434:\n        /* \"#utility.yul\":13637:13640   */\n      dup3\n        /* \"#utility.yul\":13630:13666   */\n      mstore\n        /* \"#utility.yul\":13557:13672   */\n      pop\n      pop\n      jump\t// out\n        /* \"#utility.yul\":13678:13779   */\n    tag_239:\n        /* \"#utility.yul\":13714:13721   */\n      0x00\n        /* \"#utility.yul\":13754:13772   */\n      0xffffffffffffffff\n        /* \"#utility.yul\":13747:13752   */\n      dup3\n        /* \"#utility.yul\":13743:13773   */\n      and\n        /* \"#utility.yul\":13732:13773   */\n      swap1\n      pop\n        /* \"#utility.yul\":13678:13779   */\n      swap2\n      swap1\n      pop\n      jump\t// out\n        /* \"#utility.yul\":13785:13900   */\n    tag_240:\n        /* \"#utility.yul\":13870:13893   */\n      tag_437\n        /* \"#utility.yul\":13887:13892   */\n      dup2\n        /* \"#utility.yul\":13870:13893   */\n      tag_239\n      jump\t// in\n    tag_437:\n        /* \"#utility.yul\":13865:13868   */\n      dup3\n        /* \"#utility.yul\":13858:13894   */\n      mstore\n        /* \"#utility.yul\":13785:13900   */\n      pop\n      pop\n      jump\t// out\n        /* \"#utility.yul\":13906:13996   */\n    tag_241:\n        /* \"#utility.yul\":13940:13947   */\n      0x00\n        /* \"#utility.yul\":13983:13988   */\n      dup2\n        /* \"#utility.yul\":13976:13989   */\n      iszero\n        /* \"#utility.yul\":13969:13990   */\n      iszero\n        /* \"#utility.yul\":13958:13990   */\n      swap1\n      pop\n        /* \"#utility.yul\":13906:13996   */\n      swap2\n      swap1\n      pop\n      jump\t// out\n        /* \"#utility.yul\":14002:14111   */\n    tag_242:\n        /* \"#utility.yul\":14083:14104   */\n      tag_440\n        /* \"#utility.yul\":14098:14103   */\n      dup2\n        /* \"#utility.yul\":14083:14104   */\n      tag_241\n      jump\t// in\n    tag_440:\n        /* \"#utility.yul\":14078:14081   */\n      dup3\n        /* \"#utility.yul\":14071:14105   */\n      mstore\n        /* \"#utility.yul\":14002:14111   */\n      pop\n      pop\n      jump\t// out\n        /* \"#utility.yul\":14117:14971   */\n    tag_54:\n        /* \"#utility.yul\":14362:14366   */\n      0x00\n        /* \"#utility.yul\":14400:14403   */\n      0xe0\n        /* \"#utility.yul\":14389:14398   */\n      dup3\n        /* \"#utility.yul\":14385:14404   */\n      add\n        /* \"#utility.yul\":14377:14404   */\n      swap1\n      pop\n        /* \"#utility.yul\":14414:14485   */\n      tag_442\n        /* \"#utility.yul\":14482:14483   */\n      0x00\n        /* \"#utility.yul\":14471:14480   */\n      dup4\n        /* \"#utility.yul\":14467:14484   */\n      add\n        /* \"#utility.yul\":14458:14464   */\n      dup11\n        /* \"#utility.yul\":14414:14485   */\n      tag_235\n      jump\t// in\n    tag_442:\n        /* \"#utility.yul\":14495:14565   */\n      tag_443\n        /* \"#utility.yul\":14561:14563   */\n      0x20\n        /* \"#utility.yul\":14550:14559   */\n      dup4\n        /* \"#utility.yul\":14546:14564   */\n      add\n        /* \"#utility.yul\":14537:14543   */\n      dup10\n        /* \"#utility.yul\":14495:14565   */\n      tag_236\n      jump\t// in\n    tag_443:\n        /* \"#utility.yul\":14575:14645   */\n      tag_444\n        /* \"#utility.yul\":14641:14643   */\n      0x40\n        /* \"#utility.yul\":14630:14639   */\n      dup4\n        /* \"#utility.yul\":14626:14644   */\n      add\n        /* \"#utility.yul\":14617:14623   */\n      dup9\n        /* \"#utility.yul\":14575:14645   */\n      tag_238\n      jump\t// in\n    tag_444:\n        /* \"#utility.yul\":14655:14725   */\n      tag_445\n        /* \"#utility.yul\":14721:14723   */\n      0x60\n        /* \"#utility.yul\":14710:14719   */\n      dup4\n        /* \"#utility.yul\":14706:14724   */\n      add\n        /* \"#utility.yul\":14697:14703   */\n      dup8\n        /* \"#utility.yul\":14655:14725   */\n      tag_240\n      jump\t// in\n    tag_445:\n        /* \"#utility.yul\":14735:14806   */\n      tag_446\n        /* \"#utility.yul\":14801:14804   */\n      0x80\n        /* \"#utility.yul\":14790:14799   */\n      dup4\n        /* \"#utility.yul\":14786:14805   */\n      add\n        /* \"#utility.yul\":14777:14783   */\n      dup7\n        /* \"#utility.yul\":14735:14806   */\n      tag_240\n      jump\t// in\n    tag_446:\n        /* \"#utility.yul\":14816:14887   */\n      tag_447\n        /* \"#utility.yul\":14882:14885   */\n      0xa0\n        /* \"#utility.yul\":14871:14880   */\n      dup4\n        /* \"#utility.yul\":14867:14886   */\n      add\n        /* \"#utility.yul\":14858:14864   */\n      dup6\n        /* \"#utility.yul\":14816:14887   */\n      tag_236\n      jump\t// in\n    tag_447:\n        /* \"#utility.yul\":14897:14964   */\n      tag_448\n        /* \"#utility.yul\":14959:14962   */\n      0xc0\n        /* \"#utility.yul\":14948:14957   */\n      dup4\n        /* \"#utility.yul\":14944:14963   */\n      add\n        /* \"#utility.yul\":14935:14941   */\n      dup5\n        /* \"#utility.yul\":14897:14964   */\n      tag_242\n      jump\t// in\n    tag_448:\n        /* \"#utility.yul\":14117:14971   */\n      swap9\n      swap8\n      pop\n      pop\n      pop\n      pop\n      pop\n      pop\n      pop\n      pop\n      jump\t// out\n        /* \"#utility.yul\":14977:15306   */\n    tag_58:\n        /* \"#utility.yul\":15036:15042   */\n      0x00\n        /* \"#utility.yul\":15085:15087   */\n      0x20\n        /* \"#utility.yul\":15073:15082   */\n      dup3\n        /* \"#utility.yul\":15064:15071   */\n      dup5\n        /* \"#utility.yul\":15060:15083   */\n      sub\n        /* \"#utility.yul\":15056:15088   */\n      slt\n        /* \"#utility.yul\":15053:15172   */\n      iszero\n      tag_450\n      jumpi\n        /* \"#utility.yul\":15091:15170   */\n      tag_451\n      tag_197\n      jump\t// in\n    tag_451:\n        /* \"#utility.yul\":15053:15172   */\n    tag_450:\n        /* \"#utility.yul\":15211:15212   */\n      0x00\n        /* \"#utility.yul\":15236:15289   */\n      tag_452\n        /* \"#utility.yul\":15281:15288   */\n      dup5\n        /* \"#utility.yul\":15272:15278   */\n      dup3\n        /* \"#utility.yul\":15261:15270   */\n      dup6\n        /* \"#utility.yul\":15257:15279   */\n      add\n        /* \"#utility.yul\":15236:15289   */\n      tag_222\n      jump\t// in\n    tag_452:\n        /* \"#utility.yul\":15226:15289   */\n      swap2\n      pop\n        /* \"#utility.yul\":15182:15299   */\n      pop\n        /* \"#utility.yul\":14977:15306   */\n      swap3\n      swap2\n      pop\n      pop\n      jump\t// out\n        /* \"#utility.yul\":15312:15534   */\n    tag_61:\n        /* \"#utility.yul\":15405:15409   */\n      0x00\n        /* \"#utility.yul\":15443:15445   */\n      0x20\n        /* \"#utility.yul\":15432:15441   */\n      dup3\n        /* \"#utility.yul\":15428:15446   */\n      add\n        /* \"#utility.yul\":15420:15446   */\n      swap1\n      pop\n        /* \"#utility.yul\":15456:15527   */\n      tag_454\n        /* \"#utility.yul\":15524:15525   */\n      0x00\n        /* \"#utility.yul\":15513:15522   */\n      dup4\n        /* \"#utility.yul\":15509:15526   */\n      add\n        /* \"#utility.yul\":15500:15506   */\n      dup5\n        /* \"#utility.yul\":15456:15527   */\n      tag_218\n      jump\t// in\n    tag_454:\n        /* \"#utility.yul\":15312:15534   */\n      swap3\n      swap2\n      pop\n      pop\n      jump\t// out\n        /* \"#utility.yul\":15540:15869   */\n    tag_73:\n        /* \"#utility.yul\":15599:15605   */\n      0x00\n        /* \"#utility.yul\":15648:15650   */\n      0x20\n        /* \"#utility.yul\":15636:15645   */\n      dup3\n        /* \"#utility.yul\":15627:15634   */\n      dup5\n        /* \"#utility.yul\":15623:15646   */\n      sub\n        /* \"#utility.yul\":15619:15651   */\n      slt\n        /* \"#utility.yul\":15616:15735   */\n      iszero\n      tag_456\n      jumpi\n        /* \"#utility.yul\":15654:15733   */\n      tag_457\n      tag_197\n      jump\t// in\n    tag_457:\n        /* \"#utility.yul\":15616:15735   */\n    tag_456:\n        /* \"#utility.yul\":15774:15775   */\n      0x00\n        /* \"#utility.yul\":15799:15852   */\n      tag_458\n        /* \"#utility.yul\":15844:15851   */\n      dup5\n        /* \"#utility.yul\":15835:15841   */\n      dup3\n        /* \"#utility.yul\":15824:15833   */\n      dup6\n        /* \"#utility.yul\":15820:15842   */\n      add\n        /* \"#utility.yul\":15799:15852   */\n      tag_210\n      jump\t// in\n    tag_458:\n        /* \"#utility.yul\":15789:15852   */\n      swap2\n      pop\n        /* \"#utility.yul\":15745:15862   */\n      pop\n        /* \"#utility.yul\":15540:15869   */\n      swap3\n      swap2\n      pop\n      pop\n      jump\t// out\n        /* \"#utility.yul\":15875:15989   */\n    tag_243:\n        /* \"#utility.yul\":15942:15948   */\n      0x00\n        /* \"#utility.yul\":15976:15981   */\n      dup2\n        /* \"#utility.yul\":15970:15982   */\n      mload\n        /* \"#utility.yul\":15960:15982   */\n      swap1\n      pop\n        /* \"#utility.yul\":15875:15989   */\n      swap2\n      swap1\n      pop\n      jump\t// out\n        /* \"#utility.yul\":15995:16179   */\n    tag_244:\n        /* \"#utility.yul\":16094:16105   */\n      0x00\n        /* \"#utility.yul\":16128:16134   */\n      dup3\n        /* \"#utility.yul\":16123:16126   */\n      dup3\n        /* \"#utility.yul\":16116:16135   */\n      mstore\n        /* \"#utility.yul\":16168:16172   */\n      0x20\n        /* \"#utility.yul\":16163:16166   */\n      dup3\n        /* \"#utility.yul\":16159:16173   */\n      add\n        /* \"#utility.yul\":16144:16173   */\n      swap1\n      pop\n        /* \"#utility.yul\":15995:16179   */\n      swap3\n      swap2\n      pop\n      pop\n      jump\t// out\n        /* \"#utility.yul\":16185:16317   */\n    tag_245:\n        /* \"#utility.yul\":16252:16256   */\n      0x00\n        /* \"#utility.yul\":16275:16278   */\n      dup2\n        /* \"#utility.yul\":16267:16278   */\n      swap1\n      pop\n        /* \"#utility.yul\":16305:16309   */\n      0x20\n        /* \"#utility.yul\":16300:16303   */\n      dup3\n        /* \"#utility.yul\":16296:16310   */\n      add\n        /* \"#utility.yul\":16288:16310   */\n      swap1\n      pop\n        /* \"#utility.yul\":16185:16317   */\n      swap2\n      swap1\n      pop\n      jump\t// out\n        /* \"#utility.yul\":16323:16431   */\n    tag_246:\n        /* \"#utility.yul\":16400:16424   */\n      tag_463\n        /* \"#utility.yul\":16418:16423   */\n      dup2\n        /* \"#utility.yul\":16400:16424   */\n      tag_220\n      jump\t// in\n    tag_463:\n        /* \"#utility.yul\":16395:16398   */\n      dup3\n        /* \"#utility.yul\":16388:16425   */\n      mstore\n        /* \"#utility.yul\":16323:16431   */\n      pop\n      pop\n      jump\t// out\n        /* \"#utility.yul\":16437:16616   */\n    tag_247:\n        /* \"#utility.yul\":16506:16516   */\n      0x00\n        /* \"#utility.yul\":16527:16573   */\n      tag_465\n        /* \"#utility.yul\":16569:16572   */\n      dup4\n        /* \"#utility.yul\":16561:16567   */\n      dup4\n        /* \"#utility.yul\":16527:16573   */\n      tag_246\n      jump\t// in\n    tag_465:\n        /* \"#utility.yul\":16605:16609   */\n      0x20\n        /* \"#utility.yul\":16600:16603   */\n      dup4\n        /* \"#utility.yul\":16596:16610   */\n      add\n        /* \"#utility.yul\":16582:16610   */\n      swap1\n      pop\n        /* \"#utility.yul\":16437:16616   */\n      swap3\n      swap2\n      pop\n      pop\n      jump\t// out\n        /* \"#utility.yul\":16622:16735   */\n    tag_248:\n        /* \"#utility.yul\":16692:16696   */\n      0x00\n        /* \"#utility.yul\":16724:16728   */\n      0x20\n        /* \"#utility.yul\":16719:16722   */\n      dup3\n        /* \"#utility.yul\":16715:16729   */\n      add\n        /* \"#utility.yul\":16707:16729   */\n      swap1\n      pop\n        /* \"#utility.yul\":16622:16735   */\n      swap2\n      swap1\n      pop\n      jump\t// out\n        /* \"#utility.yul\":16771:17503   */\n    tag_249:\n        /* \"#utility.yul\":16890:16893   */\n      0x00\n        /* \"#utility.yul\":16919:16973   */\n      tag_468\n        /* \"#utility.yul\":16967:16972   */\n      dup3\n        /* \"#utility.yul\":16919:16973   */\n      tag_243\n      jump\t// in\n    tag_468:\n        /* \"#utility.yul\":16989:17075   */\n      tag_469\n        /* \"#utility.yul\":17068:17074   */\n      dup2\n        /* \"#utility.yul\":17063:17066   */\n      dup6\n        /* \"#utility.yul\":16989:17075   */\n      tag_244\n      jump\t// in\n    tag_469:\n        /* \"#utility.yul\":16982:17075   */\n      swap4\n      pop\n        /* \"#utility.yul\":17099:17155   */\n      tag_470\n        /* \"#utility.yul\":17149:17154   */\n      dup4\n        /* \"#utility.yul\":17099:17155   */\n      tag_245\n      jump\t// in\n    tag_470:\n        /* \"#utility.yul\":17178:17185   */\n      dup1\n        /* \"#utility.yul\":17209:17210   */\n      0x00\n        /* \"#utility.yul\":17194:17478   */\n    tag_471:\n        /* \"#utility.yul\":17219:17225   */\n      dup4\n        /* \"#utility.yul\":17216:17217   */\n      dup2\n        /* \"#utility.yul\":17213:17226   */\n      lt\n        /* \"#utility.yul\":17194:17478   */\n      iszero\n      tag_473\n      jumpi\n        /* \"#utility.yul\":17295:17301   */\n      dup2\n        /* \"#utility.yul\":17289:17302   */\n      mload\n        /* \"#utility.yul\":17322:17385   */\n      tag_474\n        /* \"#utility.yul\":17381:17384   */\n      dup9\n        /* \"#utility.yul\":17366:17379   */\n      dup3\n        /* \"#utility.yul\":17322:17385   */\n      tag_247\n      jump\t// in\n    tag_474:\n        /* \"#utility.yul\":17315:17385   */\n      swap8\n      pop\n        /* \"#utility.yul\":17408:17468   */\n      tag_475\n        /* \"#utility.yul\":17461:17467   */\n      dup4\n        /* \"#utility.yul\":17408:17468   */\n      tag_248\n      jump\t// in\n    tag_475:\n        /* \"#utility.yul\":17398:17468   */\n      swap3\n      pop\n        /* \"#utility.yul\":17254:17478   */\n      pop\n        /* \"#utility.yul\":17241:17242   */\n      0x01\n        /* \"#utility.yul\":17238:17239   */\n      dup2\n        /* \"#utility.yul\":17234:17243   */\n      add\n        /* \"#utility.yul\":17229:17243   */\n      swap1\n      pop\n        /* \"#utility.yul\":17194:17478   */\n      jump(tag_471)\n    tag_473:\n        /* \"#utility.yul\":17198:17212   */\n      pop\n        /* \"#utility.yul\":17494:17497   */\n      dup6\n        /* \"#utility.yul\":17487:17497   */\n      swap4\n      pop\n        /* \"#utility.yul\":16895:17503   */\n      pop\n      pop\n      pop\n        /* \"#utility.yul\":16771:17503   */\n      swap3\n      swap2\n      pop\n      pop\n      jump\t// out\n        /* \"#utility.yul\":17509:17882   */\n    tag_81:\n        /* \"#utility.yul\":17652:17656   */\n      0x00\n        /* \"#utility.yul\":17690:17692   */\n      0x20\n        /* \"#utility.yul\":17679:17688   */\n      dup3\n        /* \"#utility.yul\":17675:17693   */\n      add\n        /* \"#utility.yul\":17667:17693   */\n      swap1\n      pop\n        /* \"#utility.yul\":17739:17748   */\n      dup2\n        /* \"#utility.yul\":17733:17737   */\n      dup2\n        /* \"#utility.yul\":17729:17749   */\n      sub\n        /* \"#utility.yul\":17725:17726   */\n      0x00\n        /* \"#utility.yul\":17714:17723   */\n      dup4\n        /* \"#utility.yul\":17710:17727   */\n      add\n        /* \"#utility.yul\":17703:17750   */\n      mstore\n        /* \"#utility.yul\":17767:17875   */\n      tag_477\n        /* \"#utility.yul\":17870:17874   */\n      dup2\n        /* \"#utility.yul\":17861:17867   */\n      dup5\n        /* \"#utility.yul\":17767:17875   */\n      tag_249\n      jump\t// in\n    tag_477:\n        /* \"#utility.yul\":17759:17875   */\n      swap1\n      pop\n        /* \"#utility.yul\":17509:17882   */\n      swap3\n      swap2\n      pop\n      pop\n      jump\t// out\n        /* \"#utility.yul\":17888:18036   */\n    tag_250:\n        /* \"#utility.yul\":17990:18001   */\n      0x00\n        /* \"#utility.yul\":18027:18030   */\n      dup2\n        /* \"#utility.yul\":18012:18030   */\n      swap1\n      pop\n        /* \"#utility.yul\":17888:18036   */\n      swap3\n      swap2\n      pop\n      pop\n      jump\t// out\n        /* \"#utility.yul\":18042:18419   */\n    tag_251:\n        /* \"#utility.yul\":18148:18151   */\n      0x00\n        /* \"#utility.yul\":18176:18215   */\n      tag_480\n        /* \"#utility.yul\":18209:18214   */\n      dup3\n        /* \"#utility.yul\":18176:18215   */\n      tag_214\n      jump\t// in\n    tag_480:\n        /* \"#utility.yul\":18231:18320   */\n      tag_481\n        /* \"#utility.yul\":18313:18319   */\n      dup2\n        /* \"#utility.yul\":18308:18311   */\n      dup6\n        /* \"#utility.yul\":18231:18320   */\n      tag_250\n      jump\t// in\n    tag_481:\n        /* \"#utility.yul\":18224:18320   */\n      swap4\n      pop\n        /* \"#utility.yul\":18329:18381   */\n      tag_482\n        /* \"#utility.yul\":18374:18380   */\n      dup2\n        /* \"#utility.yul\":18369:18372   */\n      dup6\n        /* \"#utility.yul\":18362:18366   */\n      0x20\n        /* \"#utility.yul\":18355:18360   */\n      dup7\n        /* \"#utility.yul\":18351:18367   */\n      add\n        /* \"#utility.yul\":18329:18381   */\n      tag_216\n      jump\t// in\n    tag_482:\n        /* \"#utility.yul\":18406:18412   */\n      dup1\n        /* \"#utility.yul\":18401:18404   */\n      dup5\n        /* \"#utility.yul\":18397:18413   */\n      add\n        /* \"#utility.yul\":18390:18413   */\n      swap2\n      pop\n        /* \"#utility.yul\":18152:18419   */\n      pop\n        /* \"#utility.yul\":18042:18419   */\n      swap3\n      swap2\n      pop\n      pop\n      jump\t// out\n        /* \"#utility.yul\":18425:18700   */\n    tag_88:\n        /* \"#utility.yul\":18557:18560   */\n      0x00\n        /* \"#utility.yul\":18579:18674   */\n      tag_484\n        /* \"#utility.yul\":18670:18673   */\n      dup3\n        /* \"#utility.yul\":18661:18667   */\n      dup5\n        /* \"#utility.yul\":18579:18674   */\n      tag_251\n      jump\t// in\n    tag_484:\n        /* \"#utility.yul\":18572:18674   */\n      swap2\n      pop\n        /* \"#utility.yul\":18691:18694   */\n      dup2\n        /* \"#utility.yul\":18684:18694   */\n      swap1\n      pop\n        /* \"#utility.yul\":18425:18700   */\n      swap3\n      swap2\n      pop\n      pop\n      jump\t// out\n        /* \"#utility.yul\":18706:18800   */\n    tag_252:\n        /* \"#utility.yul\":18739:18747   */\n      0x00\n        /* \"#utility.yul\":18787:18792   */\n      dup2\n        /* \"#utility.yul\":18783:18785   */\n      0x60\n        /* \"#utility.yul\":18779:18793   */\n      shl\n        /* \"#utility.yul\":18758:18793   */\n      swap1\n      pop\n        /* \"#utility.yul\":18706:18800   */\n      swap2\n      swap1\n      pop\n      jump\t// out\n        /* \"#utility.yul\":18806:18900   */\n    tag_253:\n        /* \"#utility.yul\":18845:18852   */\n      0x00\n        /* \"#utility.yul\":18874:18894   */\n      tag_487\n        /* \"#utility.yul\":18888:18893   */\n      dup3\n        /* \"#utility.yul\":18874:18894   */\n      tag_252\n      jump\t// in\n    tag_487:\n        /* \"#utility.yul\":18863:18894   */\n      swap1\n      pop\n        /* \"#utility.yul\":18806:18900   */\n      swap2\n      swap1\n      pop\n      jump\t// out\n        /* \"#utility.yul\":18906:19006   */\n    tag_254:\n        /* \"#utility.yul\":18945:18952   */\n      0x00\n        /* \"#utility.yul\":18974:19000   */\n      tag_489\n        /* \"#utility.yul\":18994:18999   */\n      dup3\n        /* \"#utility.yul\":18974:19000   */\n      tag_253\n      jump\t// in\n    tag_489:\n        /* \"#utility.yul\":18963:19000   */\n      swap1\n      pop\n        /* \"#utility.yul\":18906:19006   */\n      swap2\n      swap1\n      pop\n      jump\t// out\n        /* \"#utility.yul\":19012:19169   */\n    tag_255:\n        /* \"#utility.yul\":19117:19162   */\n      tag_491\n        /* \"#utility.yul\":19137:19161   */\n      tag_492\n        /* \"#utility.yul\":19155:19160   */\n      dup3\n        /* \"#utility.yul\":19137:19161   */\n      tag_220\n      jump\t// in\n    tag_492:\n        /* \"#utility.yul\":19117:19162   */\n      tag_254\n      jump\t// in\n    tag_491:\n        /* \"#utility.yul\":19112:19115   */\n      dup3\n        /* \"#utility.yul\":19105:19163   */\n      mstore\n        /* \"#utility.yul\":19012:19169   */\n      pop\n      pop\n      jump\t// out\n        /* \"#utility.yul\":19175:19348   */\n    tag_256:\n        /* \"#utility.yul\":19315:19340   */\n      0x6d6574617472616e73616374696f6e20566f74696e6720000000000000000000\n        /* \"#utility.yul\":19311:19312   */\n      0x00\n        /* \"#utility.yul\":19303:19309   */\n      dup3\n        /* \"#utility.yul\":19299:19313   */\n      add\n        /* \"#utility.yul\":19292:19341   */\n      mstore\n        /* \"#utility.yul\":19175:19348   */\n      pop\n      jump\t// out\n        /* \"#utility.yul\":19354:19756   */\n    tag_257:\n        /* \"#utility.yul\":19514:19517   */\n      0x00\n        /* \"#utility.yul\":19535:19620   */\n      tag_495\n        /* \"#utility.yul\":19617:19619   */\n      0x17\n        /* \"#utility.yul\":19612:19615   */\n      dup4\n        /* \"#utility.yul\":19535:19620   */\n      tag_250\n      jump\t// in\n    tag_495:\n        /* \"#utility.yul\":19528:19620   */\n      swap2\n      pop\n        /* \"#utility.yul\":19629:19722   */\n      tag_496\n        /* \"#utility.yul\":19718:19721   */\n      dup3\n        /* \"#utility.yul\":19629:19722   */\n      tag_256\n      jump\t// in\n    tag_496:\n        /* \"#utility.yul\":19747:19749   */\n      0x17\n        /* \"#utility.yul\":19742:19745   */\n      dup3\n        /* \"#utility.yul\":19738:19750   */\n      add\n        /* \"#utility.yul\":19731:19750   */\n      swap1\n      pop\n        /* \"#utility.yul\":19354:19756   */\n      swap2\n      swap1\n      pop\n      jump\t// out\n        /* \"#utility.yul\":19762:19841   */\n    tag_258:\n        /* \"#utility.yul\":19801:19808   */\n      0x00\n        /* \"#utility.yul\":19830:19835   */\n      dup2\n        /* \"#utility.yul\":19819:19835   */\n      swap1\n      pop\n        /* \"#utility.yul\":19762:19841   */\n      swap2\n      swap1\n      pop\n      jump\t// out\n        /* \"#utility.yul\":19847:20004   */\n    tag_259:\n        /* \"#utility.yul\":19952:19997   */\n      tag_499\n        /* \"#utility.yul\":19972:19996   */\n      tag_500\n        /* \"#utility.yul\":19990:19995   */\n      dup3\n        /* \"#utility.yul\":19972:19996   */\n      tag_208\n      jump\t// in\n    tag_500:\n        /* \"#utility.yul\":19952:19997   */\n      tag_258\n      jump\t// in\n    tag_499:\n        /* \"#utility.yul\":19947:19950   */\n      dup3\n        /* \"#utility.yul\":19940:19998   */\n      mstore\n        /* \"#utility.yul\":19847:20004   */\n      pop\n      pop\n      jump\t// out\n        /* \"#utility.yul\":20010:21115   */\n    tag_91:\n        /* \"#utility.yul\":20355:20358   */\n      0x00\n        /* \"#utility.yul\":20370:20445   */\n      tag_502\n        /* \"#utility.yul\":20441:20444   */\n      dup3\n        /* \"#utility.yul\":20432:20438   */\n      dup9\n        /* \"#utility.yul\":20370:20445   */\n      tag_255\n      jump\t// in\n    tag_502:\n        /* \"#utility.yul\":20470:20472   */\n      0x14\n        /* \"#utility.yul\":20465:20468   */\n      dup3\n        /* \"#utility.yul\":20461:20473   */\n      add\n        /* \"#utility.yul\":20454:20473   */\n      swap2\n      pop\n        /* \"#utility.yul\":20490:20638   */\n      tag_503\n        /* \"#utility.yul\":20634:20637   */\n      dup3\n        /* \"#utility.yul\":20490:20638   */\n      tag_257\n      jump\t// in\n    tag_503:\n        /* \"#utility.yul\":20483:20638   */\n      swap2\n      pop\n        /* \"#utility.yul\":20648:20723   */\n      tag_504\n        /* \"#utility.yul\":20719:20722   */\n      dup3\n        /* \"#utility.yul\":20710:20716   */\n      dup8\n        /* \"#utility.yul\":20648:20723   */\n      tag_255\n      jump\t// in\n    tag_504:\n        /* \"#utility.yul\":20748:20750   */\n      0x14\n        /* \"#utility.yul\":20743:20746   */\n      dup3\n        /* \"#utility.yul\":20739:20751   */\n      add\n        /* \"#utility.yul\":20732:20751   */\n      swap2\n      pop\n        /* \"#utility.yul\":20768:20863   */\n      tag_505\n        /* \"#utility.yul\":20859:20862   */\n      dup3\n        /* \"#utility.yul\":20850:20856   */\n      dup7\n        /* \"#utility.yul\":20768:20863   */\n      tag_251\n      jump\t// in\n    tag_505:\n        /* \"#utility.yul\":20761:20863   */\n      swap2\n      pop\n        /* \"#utility.yul\":20873:20948   */\n      tag_506\n        /* \"#utility.yul\":20944:20947   */\n      dup3\n        /* \"#utility.yul\":20935:20941   */\n      dup6\n        /* \"#utility.yul\":20873:20948   */\n      tag_259\n      jump\t// in\n    tag_506:\n        /* \"#utility.yul\":20973:20975   */\n      0x20\n        /* \"#utility.yul\":20968:20971   */\n      dup3\n        /* \"#utility.yul\":20964:20976   */\n      add\n        /* \"#utility.yul\":20957:20976   */\n      swap2\n      pop\n        /* \"#utility.yul\":20986:21061   */\n      tag_507\n        /* \"#utility.yul\":21057:21060   */\n      dup3\n        /* \"#utility.yul\":21048:21054   */\n      dup5\n        /* \"#utility.yul\":20986:21061   */\n      tag_259\n      jump\t// in\n    tag_507:\n        /* \"#utility.yul\":21086:21088   */\n      0x20\n        /* \"#utility.yul\":21081:21084   */\n      dup3\n        /* \"#utility.yul\":21077:21089   */\n      add\n        /* \"#utility.yul\":21070:21089   */\n      swap2\n      pop\n        /* \"#utility.yul\":21106:21109   */\n      dup2\n        /* \"#utility.yul\":21099:21109   */\n      swap1\n      pop\n        /* \"#utility.yul\":20010:21115   */\n      swap7\n      swap6\n      pop\n      pop\n      pop\n      pop\n      pop\n      pop\n      jump\t// out\n        /* \"#utility.yul\":21121:21350   */\n    tag_260:\n        /* \"#utility.yul\":21261:21295   */\n      0x54686973206164647265737320646f6573206e6f742065786973742061732061\n        /* \"#utility.yul\":21257:21258   */\n      0x00\n        /* \"#utility.yul\":21249:21255   */\n      dup3\n        /* \"#utility.yul\":21245:21259   */\n      add\n        /* \"#utility.yul\":21238:21296   */\n      mstore\n        /* \"#utility.yul\":21330:21342   */\n      0x2063616e64696461746500000000000000000000000000000000000000000000\n        /* \"#utility.yul\":21325:21327   */\n      0x20\n        /* \"#utility.yul\":21317:21323   */\n      dup3\n        /* \"#utility.yul\":21313:21328   */\n      add\n        /* \"#utility.yul\":21306:21343   */\n      mstore\n        /* \"#utility.yul\":21121:21350   */\n      pop\n      jump\t// out\n        /* \"#utility.yul\":21356:21722   */\n    tag_261:\n        /* \"#utility.yul\":21498:21501   */\n      0x00\n        /* \"#utility.yul\":21519:21586   */\n      tag_510\n        /* \"#utility.yul\":21583:21585   */\n      0x2a\n        /* \"#utility.yul\":21578:21581   */\n      dup4\n        /* \"#utility.yul\":21519:21586   */\n      tag_215\n      jump\t// in\n    tag_510:\n        /* \"#utility.yul\":21512:21586   */\n      swap2\n      pop\n        /* \"#utility.yul\":21595:21688   */\n      tag_511\n        /* \"#utility.yul\":21684:21687   */\n      dup3\n        /* \"#utility.yul\":21595:21688   */\n      tag_260\n      jump\t// in\n    tag_511:\n        /* \"#utility.yul\":21713:21715   */\n      0x40\n        /* \"#utility.yul\":21708:21711   */\n      dup3\n        /* \"#utility.yul\":21704:21716   */\n      add\n        /* \"#utility.yul\":21697:21716   */\n      swap1\n      pop\n        /* \"#utility.yul\":21356:21722   */\n      swap2\n      swap1\n      pop\n      jump\t// out\n        /* \"#utility.yul\":21728:22147   */\n    tag_96:\n        /* \"#utility.yul\":21894:21898   */\n      0x00\n        /* \"#utility.yul\":21932:21934   */\n      0x20\n        /* \"#utility.yul\":21921:21930   */\n      dup3\n        /* \"#utility.yul\":21917:21935   */\n      add\n        /* \"#utility.yul\":21909:21935   */\n      swap1\n      pop\n        /* \"#utility.yul\":21981:21990   */\n      dup2\n        /* \"#utility.yul\":21975:21979   */\n      dup2\n        /* \"#utility.yul\":21971:21991   */\n      sub\n        /* \"#utility.yul\":21967:21968   */\n      0x00\n        /* \"#utility.yul\":21956:21965   */\n      dup4\n        /* \"#utility.yul\":21952:21969   */\n      add\n        /* \"#utility.yul\":21945:21992   */\n      mstore\n        /* \"#utility.yul\":22009:22140   */\n      tag_513\n        /* \"#utility.yul\":22135:22139   */\n      dup2\n        /* \"#utility.yul\":22009:22140   */\n      tag_261\n      jump\t// in\n    tag_513:\n        /* \"#utility.yul\":22001:22140   */\n      swap1\n      pop\n        /* \"#utility.yul\":21728:22147   */\n      swap2\n      swap1\n      pop\n      jump\t// out\n        /* \"#utility.yul\":22153:22319   */\n    tag_262:\n        /* \"#utility.yul\":22293:22311   */\n      0x766f74696e672068617320656e64656400000000000000000000000000000000\n        /* \"#utility.yul\":22289:22290   */\n      0x00\n        /* \"#utility.yul\":22281:22287   */\n      dup3\n        /* \"#utility.yul\":22277:22291   */\n      add\n        /* \"#utility.yul\":22270:22312   */\n      mstore\n        /* \"#utility.yul\":22153:22319   */\n      pop\n      jump\t// out\n        /* \"#utility.yul\":22325:22691   */\n    tag_263:\n        /* \"#utility.yul\":22467:22470   */\n      0x00\n        /* \"#utility.yul\":22488:22555   */\n      tag_516\n        /* \"#utility.yul\":22552:22554   */\n      0x10\n        /* \"#utility.yul\":22547:22550   */\n      dup4\n        /* \"#utility.yul\":22488:22555   */\n      tag_215\n      jump\t// in\n    tag_516:\n        /* \"#utility.yul\":22481:22555   */\n      swap2\n      pop\n        /* \"#utility.yul\":22564:22657   */\n      tag_517\n        /* \"#utility.yul\":22653:22656   */\n      dup3\n        /* \"#utility.yul\":22564:22657   */\n      tag_262\n      jump\t// in\n    tag_517:\n        /* \"#utility.yul\":22682:22684   */\n      0x20\n        /* \"#utility.yul\":22677:22680   */\n      dup3\n        /* \"#utility.yul\":22673:22685   */\n      add\n        /* \"#utility.yul\":22666:22685   */\n      swap1\n      pop\n        /* \"#utility.yul\":22325:22691   */\n      swap2\n      swap1\n      pop\n      jump\t// out\n        /* \"#utility.yul\":22697:23116   */\n    tag_101:\n        /* \"#utility.yul\":22863:22867   */\n      0x00\n        /* \"#utility.yul\":22901:22903   */\n      0x20\n        /* \"#utility.yul\":22890:22899   */\n      dup3\n        /* \"#utility.yul\":22886:22904   */\n      add\n        /* \"#utility.yul\":22878:22904   */\n      swap1\n      pop\n        /* \"#utility.yul\":22950:22959   */\n      dup2\n        /* \"#utility.yul\":22944:22948   */\n      dup2\n        /* \"#utility.yul\":22940:22960   */\n      sub\n        /* \"#utility.yul\":22936:22937   */\n      0x00\n        /* \"#utility.yul\":22925:22934   */\n      dup4\n        /* \"#utility.yul\":22921:22938   */\n      add\n        /* \"#utility.yul\":22914:22961   */\n      mstore\n        /* \"#utility.yul\":22978:23109   */\n      tag_519\n        /* \"#utility.yul\":23104:23108   */\n      dup2\n        /* \"#utility.yul\":22978:23109   */\n      tag_263\n      jump\t// in\n    tag_519:\n        /* \"#utility.yul\":22970:23109   */\n      swap1\n      pop\n        /* \"#utility.yul\":22697:23116   */\n      swap2\n      swap1\n      pop\n      jump\t// out\n        /* \"#utility.yul\":23122:23302   */\n    tag_264:\n        /* \"#utility.yul\":23170:23247   */\n      0x4e487b7100000000000000000000000000000000000000000000000000000000\n        /* \"#utility.yul\":23167:23168   */\n      0x00\n        /* \"#utility.yul\":23160:23248   */\n      mstore\n        /* \"#utility.yul\":23267:23271   */\n      0x11\n        /* \"#utility.yul\":23264:23265   */\n      0x04\n        /* \"#utility.yul\":23257:23272   */\n      mstore\n        /* \"#utility.yul\":23291:23295   */\n      0x24\n        /* \"#utility.yul\":23288:23289   */\n      0x00\n        /* \"#utility.yul\":23281:23296   */\n      revert\n        /* \"#utility.yul\":23308:23541   */\n    tag_109:\n        /* \"#utility.yul\":23347:23350   */\n      0x00\n        /* \"#utility.yul\":23370:23394   */\n      tag_522\n        /* \"#utility.yul\":23388:23393   */\n      dup3\n        /* \"#utility.yul\":23370:23394   */\n      tag_208\n      jump\t// in\n    tag_522:\n        /* \"#utility.yul\":23361:23394   */\n      swap2\n      pop\n        /* \"#utility.yul\":23416:23482   */\n      0xffffffffffffffffffffffffffffffffffffffffffffffffffffffffffffffff\n        /* \"#utility.yul\":23409:23414   */\n      dup3\n        /* \"#utility.yul\":23406:23483   */\n      eq\n        /* \"#utility.yul\":23403:23506   */\n      iszero\n      tag_523\n      jumpi\n        /* \"#utility.yul\":23486:23504   */\n      tag_524\n      tag_264\n      jump\t// in\n    tag_524:\n        /* \"#utility.yul\":23403:23506   */\n    tag_523:\n        /* \"#utility.yul\":23533:23534   */\n      0x01\n        /* \"#utility.yul\":23526:23531   */\n      dup3\n        /* \"#utility.yul\":23522:23535   */\n      add\n        /* \"#utility.yul\":23515:23535   */\n      swap1\n      pop\n        /* \"#utility.yul\":23308:23541   */\n      swap2\n      swap1\n      pop\n      jump\t// out\n        /* \"#utility.yul\":23547:23714   */\n    tag_265:\n        /* \"#utility.yul\":23687:23706   */\n      0x596f7520616c726561647920766f746564000000000000000000000000000000\n        /* \"#utility.yul\":23683:23684   */\n      0x00\n        /* \"#utility.yul\":23675:23681   */\n      dup3\n        /* \"#utility.yul\":23671:23685   */\n      add\n        /* \"#utility.yul\":23664:23707   */\n      mstore\n        /* \"#utility.yul\":23547:23714   */\n      pop\n      jump\t// out\n        /* \"#utility.yul\":23720:24086   */\n    tag_266:\n        /* \"#utility.yul\":23862:23865   */\n      0x00\n        /* \"#utility.yul\":23883:23950   */\n      tag_527\n        /* \"#utility.yul\":23947:23949   */\n      0x11\n        /* \"#utility.yul\":23942:23945   */\n      dup4\n        /* \"#utility.yul\":23883:23950   */\n      tag_215\n      jump\t// in\n    tag_527:\n        /* \"#utility.yul\":23876:23950   */\n      swap2\n      pop\n        /* \"#utility.yul\":23959:24052   */\n      tag_528\n        /* \"#utility.yul\":24048:24051   */\n      dup3\n        /* \"#utility.yul\":23959:24052   */\n      tag_265\n      jump\t// in\n    tag_528:\n        /* \"#utility.yul\":24077:24079   */\n      0x20\n        /* \"#utility.yul\":24072:24075   */\n      dup3\n        /* \"#utility.yul\":24068:24080   */\n      add\n        /* \"#utility.yul\":24061:24080   */\n      swap1\n      pop\n        /* \"#utility.yul\":23720:24086   */\n      swap2\n      swap1\n      pop\n      jump\t// out\n        /* \"#utility.yul\":24092:24511   */\n    tag_113:\n        /* \"#utility.yul\":24258:24262   */\n      0x00\n        /* \"#utility.yul\":24296:24298   */\n      0x20\n        /* \"#utility.yul\":24285:24294   */\n      dup3\n        /* \"#utility.yul\":24281:24299   */\n      add\n        /* \"#utility.yul\":24273:24299   */\n      swap1\n      pop\n        /* \"#utility.yul\":24345:24354   */\n      dup2\n        /* \"#utility.yul\":24339:24343   */\n      dup2\n        /* \"#utility.yul\":24335:24355   */\n      sub\n        /* \"#utility.yul\":24331:24332   */\n      0x00\n        /* \"#utility.yul\":24320:24329   */\n      dup4\n        /* \"#utility.yul\":24316:24333   */\n      add\n        /* \"#utility.yul\":24309:24356   */\n      mstore\n        /* \"#utility.yul\":24373:24504   */\n      tag_530\n        /* \"#utility.yul\":24499:24503   */\n      dup2\n        /* \"#utility.yul\":24373:24504   */\n      tag_266\n      jump\t// in\n    tag_530:\n        /* \"#utility.yul\":24365:24504   */\n      swap1\n      pop\n        /* \"#utility.yul\":24092:24511   */\n      swap2\n      swap1\n      pop\n      jump\t// out\n        /* \"#utility.yul\":24517:24837   */\n    tag_117:\n        /* \"#utility.yul\":24632:24636   */\n      0x00\n        /* \"#utility.yul\":24670:24672   */\n      0x40\n        /* \"#utility.yul\":24659:24668   */\n      dup3\n        /* \"#utility.yul\":24655:24673   */\n      add\n        /* \"#utility.yul\":24647:24673   */\n      swap1\n      pop\n        /* \"#utility.yul\":24683:24754   */\n      tag_532\n        /* \"#utility.yul\":24751:24752   */\n      0x00\n        /* \"#utility.yul\":24740:24749   */\n      dup4\n        /* \"#utility.yul\":24736:24753   */\n      add\n        /* \"#utility.yul\":24727:24733   */\n      dup6\n        /* \"#utility.yul\":24683:24754   */\n      tag_235\n      jump\t// in\n    tag_532:\n        /* \"#utility.yul\":24764:24830   */\n      tag_533\n        /* \"#utility.yul\":24826:24828   */\n      0x20\n        /* \"#utility.yul\":24815:24824   */\n      dup4\n        /* \"#utility.yul\":24811:24829   */\n      add\n        /* \"#utility.yul\":24802:24808   */\n      dup5\n        /* \"#utility.yul\":24764:24830   */\n      tag_242\n      jump\t// in\n    tag_533:\n        /* \"#utility.yul\":24517:24837   */\n      swap4\n      swap3\n      pop\n      pop\n      pop\n      jump\t// out\n        /* \"#utility.yul\":24843:25023   */\n    tag_129:\n        /* \"#utility.yul\":24891:24968   */\n      0x4e487b7100000000000000000000000000000000000000000000000000000000\n        /* \"#utility.yul\":24888:24889   */\n      0x00\n        /* \"#utility.yul\":24881:24969   */\n      mstore\n        /* \"#utility.yul\":24988:24992   */\n      0x32\n        /* \"#utility.yul\":24985:24986   */\n      0x04\n        /* \"#utility.yul\":24978:24993   */\n      mstore\n        /* \"#utility.yul\":25012:25016   */\n      0x24\n        /* \"#utility.yul\":25009:25010   */\n      0x00\n        /* \"#utility.yul\":25002:25017   */\n      revert\n        /* \"#utility.yul\":25029:25199   */\n    tag_267:\n        /* \"#utility.yul\":25169:25191   */\n      0x79657420746f20637265617465206120706f6c6c000000000000000000000000\n        /* \"#utility.yul\":25165:25166   */\n      0x00\n        /* \"#utility.yul\":25157:25163   */\n      dup3\n        /* \"#utility.yul\":25153:25167   */\n      add\n        /* \"#utility.yul\":25146:25192   */\n      mstore\n        /* \"#utility.yul\":25029:25199   */\n      pop\n      jump\t// out\n        /* \"#utility.yul\":25205:25571   */\n    tag_268:\n        /* \"#utility.yul\":25347:25350   */\n      0x00\n        /* \"#utility.yul\":25368:25435   */\n      tag_537\n        /* \"#utility.yul\":25432:25434   */\n      0x14\n        /* \"#utility.yul\":25427:25430   */\n      dup4\n        /* \"#utility.yul\":25368:25435   */\n      tag_215\n      jump\t// in\n    tag_537:\n        /* \"#utility.yul\":25361:25435   */\n      swap2\n      pop\n        /* \"#utility.yul\":25444:25537   */\n      tag_538\n        /* \"#utility.yul\":25533:25536   */\n      dup3\n        /* \"#utility.yul\":25444:25537   */\n      tag_267\n      jump\t// in\n    tag_538:\n        /* \"#utility.yul\":25562:25564   */\n      0x20\n        /* \"#utility.yul\":25557:25560   */\n      dup3\n        /* \"#utility.yul\":25553:25565   */\n      add\n        /* \"#utility.yul\":25546:25565   */\n      swap1\n      pop\n        /* \"#utility.yul\":25205:25571   */\n      swap2\n      swap1\n      pop\n      jump\t// out\n        /* \"#utility.yul\":25577:25996   */\n    tag_148:\n        /* \"#utility.yul\":25743:25747   */\n      0x00\n        /* \"#utility.yul\":25781:25783   */\n      0x20\n        /* \"#utility.yul\":25770:25779   */\n      dup3\n        /* \"#utility.yul\":25766:25784   */\n      add\n        /* \"#utility.yul\":25758:25784   */\n      swap1\n      pop\n        /* \"#utility.yul\":25830:25839   */\n      dup2\n        /* \"#utility.yul\":25824:25828   */\n      dup2\n        /* \"#utility.yul\":25820:25840   */\n      sub\n        /* \"#utility.yul\":25816:25817   */\n      0x00\n        /* \"#utility.yul\":25805:25814   */\n      dup4\n        /* \"#utility.yul\":25801:25818   */\n      add\n        /* \"#utility.yul\":25794:25841   */\n      mstore\n        /* \"#utility.yul\":25858:25989   */\n      tag_540\n        /* \"#utility.yul\":25984:25988   */\n      dup2\n        /* \"#utility.yul\":25858:25989   */\n      tag_268\n      jump\t// in\n    tag_540:\n        /* \"#utility.yul\":25850:25989   */\n      swap1\n      pop\n        /* \"#utility.yul\":25577:25996   */\n      swap2\n      swap1\n      pop\n      jump\t// out\n        /* \"#utility.yul\":26002:26182   */\n    tag_151:\n        /* \"#utility.yul\":26050:26127   */\n      0x4e487b7100000000000000000000000000000000000000000000000000000000\n        /* \"#utility.yul\":26047:26048   */\n      0x00\n        /* \"#utility.yul\":26040:26128   */\n      mstore\n        /* \"#utility.yul\":26147:26151   */\n      0x01\n        /* \"#utility.yul\":26144:26145   */\n      0x04\n        /* \"#utility.yul\":26137:26152   */\n      mstore\n        /* \"#utility.yul\":26171:26175   */\n      0x24\n        /* \"#utility.yul\":26168:26169   */\n      0x00\n        /* \"#utility.yul\":26161:26176   */\n      revert\n        /* \"#utility.yul\":26188:26421   */\n    tag_269:\n        /* \"#utility.yul\":26328:26362   */\n      0x6d6178696d756d206e6f206f662063616e646964617465207065722073657373\n        /* \"#utility.yul\":26324:26325   */\n      0x00\n        /* \"#utility.yul\":26316:26322   */\n      dup3\n        /* \"#utility.yul\":26312:26326   */\n      add\n        /* \"#utility.yul\":26305:26363   */\n      mstore\n        /* \"#utility.yul\":26397:26413   */\n      0x696f6e2072656769737465726564000000000000000000000000000000000000\n        /* \"#utility.yul\":26392:26394   */\n      0x20\n        /* \"#utility.yul\":26384:26390   */\n      dup3\n        /* \"#utility.yul\":26380:26395   */\n      add\n        /* \"#utility.yul\":26373:26414   */\n      mstore\n        /* \"#utility.yul\":26188:26421   */\n      pop\n      jump\t// out\n        /* \"#utility.yul\":26427:26793   */\n    tag_270:\n        /* \"#utility.yul\":26569:26572   */\n      0x00\n        /* \"#utility.yul\":26590:26657   */\n      tag_544\n        /* \"#utility.yul\":26654:26656   */\n      0x2e\n        /* \"#utility.yul\":26649:26652   */\n      dup4\n        /* \"#utility.yul\":26590:26657   */\n      tag_215\n      jump\t// in\n    tag_544:\n        /* \"#utility.yul\":26583:26657   */\n      swap2\n      pop\n        /* \"#utility.yul\":26666:26759   */\n      tag_545\n        /* \"#utility.yul\":26755:26758   */\n      dup3\n        /* \"#utility.yul\":26666:26759   */\n      tag_269\n      jump\t// in\n    tag_545:\n        /* \"#utility.yul\":26784:26786   */\n      0x40\n        /* \"#utility.yul\":26779:26782   */\n      dup3\n        /* \"#utility.yul\":26775:26787   */\n      add\n        /* \"#utility.yul\":26768:26787   */\n      swap1\n      pop\n        /* \"#utility.yul\":26427:26793   */\n      swap2\n      swap1\n      pop\n      jump\t// out\n        /* \"#utility.yul\":26799:27218   */\n    tag_154:\n        /* \"#utility.yul\":26965:26969   */\n      0x00\n        /* \"#utility.yul\":27003:27005   */\n      0x20\n        /* \"#utility.yul\":26992:27001   */\n      dup3\n        /* \"#utility.yul\":26988:27006   */\n      add\n        /* \"#utility.yul\":26980:27006   */\n      swap1\n      pop\n        /* \"#utility.yul\":27052:27061   */\n      dup2\n        /* \"#utility.yul\":27046:27050   */\n      dup2\n        /* \"#utility.yul\":27042:27062   */\n      sub\n        /* \"#utility.yul\":27038:27039   */\n      0x00\n        /* \"#utility.yul\":27027:27036   */\n      dup4\n        /* \"#utility.yul\":27023:27040   */\n      add\n        /* \"#utility.yul\":27016:27063   */\n      mstore\n        /* \"#utility.yul\":27080:27211   */\n      tag_547\n        /* \"#utility.yul\":27206:27210   */\n      dup2\n        /* \"#utility.yul\":27080:27211   */\n      tag_270\n      jump\t// in\n    tag_547:\n        /* \"#utility.yul\":27072:27211   */\n      swap1\n      pop\n        /* \"#utility.yul\":26799:27218   */\n      swap2\n      swap1\n      pop\n      jump\t// out\n        /* \"#utility.yul\":27224:27395   */\n    tag_157:\n        /* \"#utility.yul\":27262:27265   */\n      0x00\n        /* \"#utility.yul\":27285:27308   */\n      tag_549\n        /* \"#utility.yul\":27302:27307   */\n      dup3\n        /* \"#utility.yul\":27285:27308   */\n      tag_211\n      jump\t// in\n    tag_549:\n        /* \"#utility.yul\":27276:27308   */\n      swap2\n      pop\n        /* \"#utility.yul\":27330:27336   */\n      0xffff\n        /* \"#utility.yul\":27323:27328   */\n      dup3\n        /* \"#utility.yul\":27320:27337   */\n      eq\n        /* \"#utility.yul\":27317:27360   */\n      iszero\n      tag_550\n      jumpi\n        /* \"#utility.yul\":27340:27358   */\n      tag_551\n      tag_264\n      jump\t// in\n    tag_551:\n        /* \"#utility.yul\":27317:27360   */\n    tag_550:\n        /* \"#utility.yul\":27387:27388   */\n      0x01\n        /* \"#utility.yul\":27380:27385   */\n      dup3\n        /* \"#utility.yul\":27376:27389   */\n      add\n        /* \"#utility.yul\":27369:27389   */\n      swap1\n      pop\n        /* \"#utility.yul\":27224:27395   */\n      swap2\n      swap1\n      pop\n      jump\t// out\n        /* \"#utility.yul\":27401:27623   */\n    tag_159:\n        /* \"#utility.yul\":27494:27498   */\n      0x00\n        /* \"#utility.yul\":27532:27534   */\n      0x20\n        /* \"#utility.yul\":27521:27530   */\n      dup3\n        /* \"#utility.yul\":27517:27535   */\n      add\n        /* \"#utility.yul\":27509:27535   */\n      swap1\n      pop\n        /* \"#utility.yul\":27545:27616   */\n      tag_553\n        /* \"#utility.yul\":27613:27614   */\n      0x00\n        /* \"#utility.yul\":27602:27611   */\n      dup4\n        /* \"#utility.yul\":27598:27615   */\n      add\n        /* \"#utility.yul\":27589:27595   */\n      dup5\n        /* \"#utility.yul\":27545:27616   */\n      tag_235\n      jump\t// in\n    tag_553:\n        /* \"#utility.yul\":27401:27623   */\n      swap3\n      swap2\n      pop\n      pop\n      jump\t// out\n        /* \"#utility.yul\":27629:27795   */\n    tag_271:\n        /* \"#utility.yul\":27769:27787   */\n      0x6e6f74207468652063686169726d616e00000000000000000000000000000000\n        /* \"#utility.yul\":27765:27766   */\n      0x00\n        /* \"#utility.yul\":27757:27763   */\n      dup3\n        /* \"#utility.yul\":27753:27767   */\n      add\n        /* \"#utility.yul\":27746:27788   */\n      mstore\n        /* \"#utility.yul\":27629:27795   */\n      pop\n      jump\t// out\n        /* \"#utility.yul\":27801:28167   */\n    tag_272:\n        /* \"#utility.yul\":27943:27946   */\n      0x00\n        /* \"#utility.yul\":27964:28031   */\n      tag_556\n        /* \"#utility.yul\":28028:28030   */\n      0x10\n        /* \"#utility.yul\":28023:28026   */\n      dup4\n        /* \"#utility.yul\":27964:28031   */\n      tag_215\n      jump\t// in\n    tag_556:\n        /* \"#utility.yul\":27957:28031   */\n      swap2\n      pop\n        /* \"#utility.yul\":28040:28133   */\n      tag_557\n        /* \"#utility.yul\":28129:28132   */\n      dup3\n        /* \"#utility.yul\":28040:28133   */\n      tag_271\n      jump\t// in\n    tag_557:\n        /* \"#utility.yul\":28158:28160   */\n      0x20\n        /* \"#utility.yul\":28153:28156   */\n      dup3\n        /* \"#utility.yul\":28149:28161   */\n      add\n        /* \"#utility.yul\":28142:28161   */\n      swap1\n      pop\n        /* \"#utility.yul\":27801:28167   */\n      swap2\n      swap1\n      pop\n      jump\t// out\n        /* \"#utility.yul\":28173:28592   */\n    tag_164:\n        /* \"#utility.yul\":28339:28343   */\n      0x00\n        /* \"#utility.yul\":28377:28379   */\n      0x20\n        /* \"#utility.yul\":28366:28375   */\n      dup3\n        /* \"#utility.yul\":28362:28380   */\n      add\n        /* \"#utility.yul\":28354:28380   */\n      swap1\n      pop\n        /* \"#utility.yul\":28426:28435   */\n      dup2\n        /* \"#utility.yul\":28420:28424   */\n      dup2\n        /* \"#utility.yul\":28416:28436   */\n      sub\n        /* \"#utility.yul\":28412:28413   */\n      0x00\n        /* \"#utility.yul\":28401:28410   */\n      dup4\n        /* \"#utility.yul\":28397:28414   */\n      add\n        /* \"#utility.yul\":28390:28437   */\n      mstore\n        /* \"#utility.yul\":28454:28585   */\n      tag_559\n        /* \"#utility.yul\":28580:28584   */\n      dup2\n        /* \"#utility.yul\":28454:28585   */\n      tag_272\n      jump\t// in\n    tag_559:\n        /* \"#utility.yul\":28446:28585   */\n      swap1\n      pop\n        /* \"#utility.yul\":28173:28592   */\n      swap2\n      swap1\n      pop\n      jump\t// out\n        /* \"#utility.yul\":28598:28684   */\n    tag_273:\n        /* \"#utility.yul\":28633:28640   */\n      0x00\n        /* \"#utility.yul\":28673:28677   */\n      0xff\n        /* \"#utility.yul\":28666:28671   */\n      dup3\n        /* \"#utility.yul\":28662:28678   */\n      and\n        /* \"#utility.yul\":28651:28678   */\n      swap1\n      pop\n        /* \"#utility.yul\":28598:28684   */\n      swap2\n      swap1\n      pop\n      jump\t// out\n        /* \"#utility.yul\":28690:28927   */\n    tag_183:\n        /* \"#utility.yul\":28728:28731   */\n      0x00\n        /* \"#utility.yul\":28747:28765   */\n      tag_562\n        /* \"#utility.yul\":28763:28764   */\n      dup3\n        /* \"#utility.yul\":28747:28765   */\n      tag_273\n      jump\t// in\n    tag_562:\n        /* \"#utility.yul\":28742:28765   */\n      swap2\n      pop\n        /* \"#utility.yul\":28779:28797   */\n      tag_563\n        /* \"#utility.yul\":28795:28796   */\n      dup4\n        /* \"#utility.yul\":28779:28797   */\n      tag_273\n      jump\t// in\n    tag_563:\n        /* \"#utility.yul\":28774:28797   */\n      swap3\n      pop\n        /* \"#utility.yul\":28869:28870   */\n      dup3\n        /* \"#utility.yul\":28863:28867   */\n      0xff\n        /* \"#utility.yul\":28859:28871   */\n      sub\n        /* \"#utility.yul\":28856:28857   */\n      dup3\n        /* \"#utility.yul\":28853:28872   */\n      gt\n        /* \"#utility.yul\":28850:28895   */\n      iszero\n      tag_564\n      jumpi\n        /* \"#utility.yul\":28875:28893   */\n      tag_565\n      tag_264\n      jump\t// in\n    tag_565:\n        /* \"#utility.yul\":28850:28895   */\n    tag_564:\n        /* \"#utility.yul\":28919:28920   */\n      dup3\n        /* \"#utility.yul\":28916:28917   */\n      dup3\n        /* \"#utility.yul\":28912:28921   */\n      add\n        /* \"#utility.yul\":28905:28921   */\n      swap1\n      pop\n        /* \"#utility.yul\":28690:28927   */\n      swap3\n      swap2\n      pop\n      pop\n      jump\t// out\n        /* \"#utility.yul\":28933:29147   */\n    tag_274:\n        /* \"#utility.yul\":29073:29139   */\n      0x19457468657265756d205369676e6564204d6573736167653a0a333200000000\n        /* \"#utility.yul\":29069:29070   */\n      0x00\n        /* \"#utility.yul\":29061:29067   */\n      dup3\n        /* \"#utility.yul\":29057:29071   */\n      add\n        /* \"#utility.yul\":29050:29140   */\n      mstore\n        /* \"#utility.yul\":28933:29147   */\n      pop\n      jump\t// out\n        /* \"#utility.yul\":29153:29555   */\n    tag_275:\n        /* \"#utility.yul\":29313:29316   */\n      0x00\n        /* \"#utility.yul\":29334:29419   */\n      tag_568\n        /* \"#utility.yul\":29416:29418   */\n      0x1c\n        /* \"#utility.yul\":29411:29414   */\n      dup4\n        /* \"#utility.yul\":29334:29419   */\n      tag_250\n      jump\t// in\n    tag_568:\n        /* \"#utility.yul\":29327:29419   */\n      swap2\n      pop\n        /* \"#utility.yul\":29428:29521   */\n      tag_569\n        /* \"#utility.yul\":29517:29520   */\n      dup3\n        /* \"#utility.yul\":29428:29521   */\n      tag_274\n      jump\t// in\n    tag_569:\n        /* \"#utility.yul\":29546:29548   */\n      0x1c\n        /* \"#utility.yul\":29541:29544   */\n      dup3\n        /* \"#utility.yul\":29537:29549   */\n      add\n        /* \"#utility.yul\":29530:29549   */\n      swap1\n      pop\n        /* \"#utility.yul\":29153:29555   */\n      swap2\n      swap1\n      pop\n      jump\t// out\n        /* \"#utility.yul\":29561:29640   */\n    tag_276:\n        /* \"#utility.yul\":29600:29607   */\n      0x00\n        /* \"#utility.yul\":29629:29634   */\n      dup2\n        /* \"#utility.yul\":29618:29634   */\n      swap1\n      pop\n        /* \"#utility.yul\":29561:29640   */\n      swap2\n      swap1\n      pop\n      jump\t// out\n        /* \"#utility.yul\":29646:29803   */\n    tag_277:\n        /* \"#utility.yul\":29751:29796   */\n      tag_572\n        /* \"#utility.yul\":29771:29795   */\n      tag_573\n        /* \"#utility.yul\":29789:29794   */\n      dup3\n        /* \"#utility.yul\":29771:29795   */\n      tag_223\n      jump\t// in\n    tag_573:\n        /* \"#utility.yul\":29751:29796   */\n      tag_276\n      jump\t// in\n    tag_572:\n        /* \"#utility.yul\":29746:29749   */\n      dup3\n        /* \"#utility.yul\":29739:29797   */\n      mstore\n        /* \"#utility.yul\":29646:29803   */\n      pop\n      pop\n      jump\t// out\n        /* \"#utility.yul\":29809:30331   */\n    tag_188:\n        /* \"#utility.yul\":30022:30025   */\n      0x00\n        /* \"#utility.yul\":30044:30192   */\n      tag_575\n        /* \"#utility.yul\":30188:30191   */\n      dup3\n        /* \"#utility.yul\":30044:30192   */\n      tag_275\n      jump\t// in\n    tag_575:\n        /* \"#utility.yul\":30037:30192   */\n      swap2\n      pop\n        /* \"#utility.yul\":30202:30277   */\n      tag_576\n        /* \"#utility.yul\":30273:30276   */\n      dup3\n        /* \"#utility.yul\":30264:30270   */\n      dup5\n        /* \"#utility.yul\":30202:30277   */\n      tag_277\n      jump\t// in\n    tag_576:\n        /* \"#utility.yul\":30302:30304   */\n      0x20\n        /* \"#utility.yul\":30297:30300   */\n      dup3\n        /* \"#utility.yul\":30293:30305   */\n      add\n        /* \"#utility.yul\":30286:30305   */\n      swap2\n      pop\n        /* \"#utility.yul\":30322:30325   */\n      dup2\n        /* \"#utility.yul\":30315:30325   */\n      swap1\n      pop\n        /* \"#utility.yul\":29809:30331   */\n      swap3\n      swap2\n      pop\n      pop\n      jump\t// out\n        /* \"#utility.yul\":30337:30449   */\n    tag_278:\n        /* \"#utility.yul\":30420:30442   */\n      tag_578\n        /* \"#utility.yul\":30436:30441   */\n      dup2\n        /* \"#utility.yul\":30420:30442   */\n      tag_273\n      jump\t// in\n    tag_578:\n        /* \"#utility.yul\":30415:30418   */\n      dup3\n        /* \"#utility.yul\":30408:30443   */\n      mstore\n        /* \"#utility.yul\":30337:30449   */\n      pop\n      pop\n      jump\t// out\n        /* \"#utility.yul\":30455:31000   */\n    tag_190:\n        /* \"#utility.yul\":30628:30632   */\n      0x00\n        /* \"#utility.yul\":30666:30669   */\n      0x80\n        /* \"#utility.yul\":30655:30664   */\n      dup3\n        /* \"#utility.yul\":30651:30670   */\n      add\n        /* \"#utility.yul\":30643:30670   */\n      swap1\n      pop\n        /* \"#utility.yul\":30680:30751   */\n      tag_580\n        /* \"#utility.yul\":30748:30749   */\n      0x00\n        /* \"#utility.yul\":30737:30746   */\n      dup4\n        /* \"#utility.yul\":30733:30750   */\n      add\n        /* \"#utility.yul\":30724:30730   */\n      dup8\n        /* \"#utility.yul\":30680:30751   */\n      tag_224\n      jump\t// in\n    tag_580:\n        /* \"#utility.yul\":30761:30829   */\n      tag_581\n        /* \"#utility.yul\":30825:30827   */\n      0x20\n        /* \"#utility.yul\":30814:30823   */\n      dup4\n        /* \"#utility.yul\":30810:30828   */\n      add\n        /* \"#utility.yul\":30801:30807   */\n      dup7\n        /* \"#utility.yul\":30761:30829   */\n      tag_278\n      jump\t// in\n    tag_581:\n        /* \"#utility.yul\":30839:30911   */\n      tag_582\n        /* \"#utility.yul\":30907:30909   */\n      0x40\n        /* \"#utility.yul\":30896:30905   */\n      dup4\n        /* \"#utility.yul\":30892:30910   */\n      add\n        /* \"#utility.yul\":30883:30889   */\n      dup6\n        /* \"#utility.yul\":30839:30911   */\n      tag_224\n      jump\t// in\n    tag_582:\n        /* \"#utility.yul\":30921:30993   */\n      tag_583\n        /* \"#utility.yul\":30989:30991   */\n      0x60\n        /* \"#utility.yul\":30978:30987   */\n      dup4\n        /* \"#utility.yul\":30974:30992   */\n      add\n        /* \"#utility.yul\":30965:30971   */\n      dup5\n        /* \"#utility.yul\":30921:30993   */\n      tag_224\n      jump\t// in\n    tag_583:\n        /* \"#utility.yul\":30455:31000   */\n      swap6\n      swap5\n      pop\n      pop\n      pop\n      pop\n      pop\n      jump\t// out\n\n    auxdata: 0xa2646970667358221220abcfbbf0a2da19ae728c27ef56b37a4732616b94bb2101078540cf8d52ac906964736f6c634300080a0033\n}\n",
				"bytecode": {
					"linkReferences": {},
					"object": "608060405234801561001057600080fd5b506123dd806100206000396000f3fe6080604052600436106100aa5760003560e01c806367d407df1161006457806367d407df1461020657806382e305ab146102435780638579cacd1461025f578063a886e61b1461029c578063af7cbc0d146102df578063f0e4de221461031c576100b1565b806211ea6f146100b657806301ff993b146100f557806312f0da4b146101325780634fcf1f391461015b57806357f539671461019a57806363ee965a146101c3576100b1565b366100b157005b600080fd5b3480156100c257600080fd5b506100dd60048036038101906100d8919061157c565b610345565b6040516100ec93929190611682565b60405180910390f35b34801561010157600080fd5b5061011c6004803603810190610117919061171e565b610405565b60405161012991906117ba565b60405180910390f35b34801561013e57600080fd5b5061015960048036038101906101549190611876565b610440565b005b34801561016757600080fd5b50610182600480360381019061017d9190611915565b610777565b60405161019193929190611a2b565b60405180910390f35b3480156101a657600080fd5b506101c160048036038101906101bc9190611a69565b610a17565b005b3480156101cf57600080fd5b506101ea60048036038101906101e59190611915565b610cd7565b6040516101fd9796959493929190611b31565b60405180910390f35b34801561021257600080fd5b5061022d60048036038101906102289190611ba0565b610db0565b60405161023a9190611bcd565b60405180910390f35b61025d60048036038101906102589190611915565b610dc8565b005b34801561026b57600080fd5b5061028660048036038101906102819190611915565b610ee9565b6040516102939190611bcd565b60405180910390f35b3480156102a857600080fd5b506102c360048036038101906102be9190611be8565b610f2b565b6040516102d69796959493929190611b31565b60405180910390f35b3480156102eb57600080fd5b5061030660048036038101906103019190611915565b610ffe565b6040516103139190611cd3565b60405180910390f35b34801561032857600080fd5b50610343600480360381019061033e9190611915565b6110b3565b005b6060600080600060018760405161035c9190611d31565b90815260200160405180910390209050858160020160006101000a81548161ffff021916908361ffff160217905550338160000160006101000a81548173ffffffffffffffffffffffffffffffffffffffff021916908373ffffffffffffffffffffffffffffffffffffffff1602179055508461ffff168160020160026101000a81548163ffffffff021916908363ffffffff1602179055508686935093505093509350939050565b60003085858585604051602001610420959493929190611dfd565b604051602081830303815290604052805190602001209050949350505050565b838360006001826040516104549190611d31565b90815260200160405180910390209050600115158160030160008573ffffffffffffffffffffffffffffffffffffffff1673ffffffffffffffffffffffffffffffffffffffff16815260200190815260200160002060009054906101000a900460ff161515146104f9576040517f08c379a00000000000000000000000000000000000000000000000000000000081526004016104f090611ed5565b60405180910390fd5b85600060018260405161050c9190611d31565b90815260200160405180910390209050600115158160020160189054906101000a900460ff16151514610574576040517f08c379a000000000000000000000000000000000000000000000000000000000815260040161056b90611f41565b60405180910390fd5b60006105828a8a8a42610405565b905060006105908289611199565b9050600073ffffffffffffffffffffffffffffffffffffffff168173ffffffffffffffffffffffffffffffffffffffff1614156105cc57600080fd5b600260008273ffffffffffffffffffffffffffffffffffffffff1673ffffffffffffffffffffffffffffffffffffffff16815260200190815260200160002054891461061757600080fd5b600260008273ffffffffffffffffffffffffffffffffffffffff1673ffffffffffffffffffffffffffffffffffffffff168152602001908152602001600020600081548092919061066790611f90565b9190505550600060018b60405161067e9190611d31565b90815260200160405180910390209050600015158160040160008473ffffffffffffffffffffffffffffffffffffffff1673ffffffffffffffffffffffffffffffffffffffff16815260200190815260200160002060009054906101000a900460ff16151514610723576040517f08c379a000000000000000000000000000000000000000000000000000000000815260040161071a90612025565b60405180910390fd5b61072e8c8c84611292565b507ff3f16a15f074b71c5138107dfc7c63b80524d5411cb967caa97d8d9f12b2fd6b8c6001604051610761929190612045565b60405180910390a1505050505050505050505050565b6060600080600060018560405161078e9190611d31565b90815260200160405180910390209050806001018054905067ffffffffffffffff8111156107bf576107be6113e1565b5b6040519080825280602002602001820160405280156107ed5781602001602082028036833780820191505090505b50935060008060005b86518111610a03578284600501600086600101848154811061081b5761081a61206e565b5b9060005260206000200160009054906101000a900473ffffffffffffffffffffffffffffffffffffffff1673ffffffffffffffffffffffffffffffffffffffff1673ffffffffffffffffffffffffffffffffffffffff16815260200190815260200160002054111561094f578360050160008560010183815481106108a3576108a261206e565b5b9060005260206000200160009054906101000a900473ffffffffffffffffffffffffffffffffffffffff1673ffffffffffffffffffffffffffffffffffffffff1673ffffffffffffffffffffffffffffffffffffffff1681526020019081526020016000205492508360010181815481106109215761092061206e565b5b9060005260206000200160009054906101000a900473ffffffffffffffffffffffffffffffffffffffff1691505b83600501600085600101838154811061096b5761096a61206e565b5b9060005260206000200160009054906101000a900473ffffffffffffffffffffffffffffffffffffffff1673ffffffffffffffffffffffffffffffffffffffff1673ffffffffffffffffffffffffffffffffffffffff168152602001908152602001600020548782815181106109e4576109e361206e565b5b60200260200101818152505080806109fb90611f90565b9150506107f6565b508581839550955095505050509193909250565b6000600182604051610a299190611d31565b90815260200160405180910390209050600073ffffffffffffffffffffffffffffffffffffffff168160000160009054906101000a900473ffffffffffffffffffffffffffffffffffffffff1673ffffffffffffffffffffffffffffffffffffffff161415610acd576040517f08c379a0000000000000000000000000000000000000000000000000000000008152600401610ac4906120e9565b60405180910390fd5b3373ffffffffffffffffffffffffffffffffffffffff168160000160009054906101000a900473ffffffffffffffffffffffffffffffffffffffff1673ffffffffffffffffffffffffffffffffffffffff1614610b2d57610b2c612109565b5b8060020160029054906101000a900463ffffffff1663ffffffff168160020160169054906101000a900461ffff1661ffff1610610b9f576040517f08c379a0000000000000000000000000000000000000000000000000000000008152600401610b96906121aa565b60405180910390fd5b60018160030160008573ffffffffffffffffffffffffffffffffffffffff1673ffffffffffffffffffffffffffffffffffffffff16815260200190815260200160002060006101000a81548160ff02191690831515021790555080600101839080600181540180825580915050600190039060005260206000200160009091909190916101000a81548173ffffffffffffffffffffffffffffffffffffffff021916908373ffffffffffffffffffffffffffffffffffffffff16021790555080600201601681819054906101000a900461ffff1680929190610c80906121ca565b91906101000a81548161ffff021916908361ffff160217905550507fc19c59aa93348e8fc54764bc642eca975e2639f44cc683ef8f027e1529cbda3283604051610cca91906121f5565b60405180910390a1505050565b6001818051602081018201805184825260208301602085012081835280955050505050506000915090508060000160009054906101000a900473ffffffffffffffffffffffffffffffffffffffff16908060020160009054906101000a900461ffff16908060020160029054906101000a900463ffffffff16908060020160069054906101000a900467ffffffffffffffff169080600201600e9054906101000a900467ffffffffffffffff16908060020160169054906101000a900461ffff16908060020160189054906101000a900460ff16905087565b60026020528060005260406000206000915090505481565b6000600182604051610dda9190611d31565b908152602001604051809103902090508060000160009054906101000a900473ffffffffffffffffffffffffffffffffffffffff1673ffffffffffffffffffffffffffffffffffffffff163373ffffffffffffffffffffffffffffffffffffffff1614610e7c576040517f08c379a0000000000000000000000000000000000000000000000000000000008152600401610e739061225c565b60405180910390fd5b3373ffffffffffffffffffffffffffffffffffffffff166108fc82600201600e9054906101000a900467ffffffffffffffff1667ffffffffffffffff169081150290604051600060405180830381858888f19350505050158015610ee4573d6000803e3d6000fd5b505050565b600080600183604051610efc9190611d31565b908152602001604051809103902090508060020160169054906101000a900461ffff1661ffff16915050919050565b60008181548110610f3b57600080fd5b90600052602060002090600602016000915090508060000160009054906101000a900473ffffffffffffffffffffffffffffffffffffffff16908060020160009054906101000a900461ffff16908060020160029054906101000a900463ffffffff16908060020160069054906101000a900467ffffffffffffffff169080600201600e9054906101000a900467ffffffffffffffff16908060020160169054906101000a900461ffff16908060020160189054906101000a900460ff16905087565b606060006001836040516110129190611d31565b90815260200160405180910390209050806001018054806020026020016040519081016040528092919081815260200182805480156110a657602002820191906000526020600020905b8160009054906101000a900473ffffffffffffffffffffffffffffffffffffffff1673ffffffffffffffffffffffffffffffffffffffff168152602001906001019080831161105c575b5050505050915050919050565b60006001826040516110c59190611d31565b908152602001604051809103902090503373ffffffffffffffffffffffffffffffffffffffff168160000160009054906101000a900473ffffffffffffffffffffffffffffffffffffffff1673ffffffffffffffffffffffffffffffffffffffff1614611167576040517f08c379a000000000000000000000000000000000000000000000000000000000815260040161115e9061225c565b60405180910390fd5b8060020160189054906101000a900460ff16158160020160186101000a81548160ff0219169083151502179055505050565b60008060008060418551146111b4576000935050505061128c565b6020850151925060408501519150606085015160001a9050601b8160ff1610156111e857601b816111e59190612289565b90505b601b8160ff16141580156112005750601c8160ff1614155b15611211576000935050505061128c565b600186604051602001611224919061232d565b604051602081830303815290604052805190602001208285856040516000815260200160405260405161125a9493929190612362565b6020604051602081039080840390855afa15801561127c573d6000803e3d6000fd5b5050506020604051035193505050505b92915050565b6000806001846040516112a59190611d31565b9081526020016040518091039020905060018160040160008573ffffffffffffffffffffffffffffffffffffffff1673ffffffffffffffffffffffffffffffffffffffff16815260200190815260200160002060006101000a81548160ff0219169083151502179055508060050160008673ffffffffffffffffffffffffffffffffffffffff1673ffffffffffffffffffffffffffffffffffffffff168152602001908152602001600020600081548092919061136190611f90565b91905055508060050160008673ffffffffffffffffffffffffffffffffffffffff1673ffffffffffffffffffffffffffffffffffffffff168152602001908152602001600020549150509392505050565b6000604051905090565b600080fd5b600080fd5b600080fd5b600080fd5b6000601f19601f8301169050919050565b7f4e487b7100000000000000000000000000000000000000000000000000000000600052604160045260246000fd5b611419826113d0565b810181811067ffffffffffffffff82111715611438576114376113e1565b5b80604052505050565b600061144b6113b2565b90506114578282611410565b919050565b600067ffffffffffffffff821115611477576114766113e1565b5b611480826113d0565b9050602081019050919050565b82818337600083830152505050565b60006114af6114aa8461145c565b611441565b9050828152602081018484840111156114cb576114ca6113cb565b5b6114d684828561148d565b509392505050565b600082601f8301126114f3576114f26113c6565b5b813561150384826020860161149c565b91505092915050565b6000819050919050565b61151f8161150c565b811461152a57600080fd5b50565b60008135905061153c81611516565b92915050565b600061ffff82169050919050565b61155981611542565b811461156457600080fd5b50565b60008135905061157681611550565b92915050565b600080600060608486031215611595576115946113bc565b5b600084013567ffffffffffffffff8111156115b3576115b26113c1565b5b6115bf868287016114de565b93505060206115d08682870161152d565b92505060406115e186828701611567565b9150509250925092565b600081519050919050565b600082825260208201905092915050565b60005b8381101561162557808201518184015260208101905061160a565b83811115611634576000848401525b50505050565b6000611645826115eb565b61164f81856115f6565b935061165f818560208601611607565b611668816113d0565b840191505092915050565b61167c8161150c565b82525050565b6000606082019050818103600083015261169c818661163a565b90506116ab6020830185611673565b6116b86040830184611673565b949350505050565b600073ffffffffffffffffffffffffffffffffffffffff82169050919050565b60006116eb826116c0565b9050919050565b6116fb816116e0565b811461170657600080fd5b50565b600081359050611718816116f2565b92915050565b60008060008060808587031215611738576117376113bc565b5b600061174687828801611709565b945050602085013567ffffffffffffffff811115611767576117666113c1565b5b611773878288016114de565b93505060406117848782880161152d565b92505060606117958782880161152d565b91505092959194509250565b6000819050919050565b6117b4816117a1565b82525050565b60006020820190506117cf60008301846117ab565b92915050565b600067ffffffffffffffff8211156117f0576117ef6113e1565b5b6117f9826113d0565b9050602081019050919050565b6000611819611814846117d5565b611441565b905082815260208101848484011115611835576118346113cb565b5b61184084828561148d565b509392505050565b600082601f83011261185d5761185c6113c6565b5b813561186d848260208601611806565b91505092915050565b600080600080608085870312156118905761188f6113bc565b5b600061189e87828801611709565b945050602085013567ffffffffffffffff8111156118bf576118be6113c1565b5b6118cb878288016114de565b93505060406118dc8782880161152d565b925050606085013567ffffffffffffffff8111156118fd576118fc6113c1565b5b61190987828801611848565b91505092959194509250565b60006020828403121561192b5761192a6113bc565b5b600082013567ffffffffffffffff811115611949576119486113c1565b5b611955848285016114de565b91505092915050565b600081519050919050565b600082825260208201905092915050565b6000819050602082019050919050565b6119938161150c565b82525050565b60006119a5838361198a565b60208301905092915050565b6000602082019050919050565b60006119c98261195e565b6119d38185611969565b93506119de8361197a565b8060005b83811015611a0f5781516119f68882611999565b9750611a01836119b1565b9250506001810190506119e2565b5085935050505092915050565b611a25816116e0565b82525050565b60006060820190508181036000830152611a4581866119be565b9050611a546020830185611a1c565b611a616040830184611673565b949350505050565b60008060408385031215611a8057611a7f6113bc565b5b6000611a8e85828601611709565b925050602083013567ffffffffffffffff811115611aaf57611aae6113c1565b5b611abb858286016114de565b9150509250929050565b611ace81611542565b82525050565b600063ffffffff82169050919050565b611aed81611ad4565b82525050565b600067ffffffffffffffff82169050919050565b611b1081611af3565b82525050565b60008115159050919050565b611b2b81611b16565b82525050565b600060e082019050611b46600083018a611a1c565b611b536020830189611ac5565b611b606040830188611ae4565b611b6d6060830187611b07565b611b7a6080830186611b07565b611b8760a0830185611ac5565b611b9460c0830184611b22565b98975050505050505050565b600060208284031215611bb657611bb56113bc565b5b6000611bc484828501611709565b91505092915050565b6000602082019050611be26000830184611673565b92915050565b600060208284031215611bfe57611bfd6113bc565b5b6000611c0c8482850161152d565b91505092915050565b600081519050919050565b600082825260208201905092915050565b6000819050602082019050919050565b611c4a816116e0565b82525050565b6000611c5c8383611c41565b60208301905092915050565b6000602082019050919050565b6000611c8082611c15565b611c8a8185611c20565b9350611c9583611c31565b8060005b83811015611cc6578151611cad8882611c50565b9750611cb883611c68565b925050600181019050611c99565b5085935050505092915050565b60006020820190508181036000830152611ced8184611c75565b905092915050565b600081905092915050565b6000611d0b826115eb565b611d158185611cf5565b9350611d25818560208601611607565b80840191505092915050565b6000611d3d8284611d00565b915081905092915050565b60008160601b9050919050565b6000611d6082611d48565b9050919050565b6000611d7282611d55565b9050919050565b611d8a611d85826116e0565b611d67565b82525050565b7f6d6574617472616e73616374696f6e20566f74696e6720000000000000000000600082015250565b6000611dc6601783611cf5565b9150611dd182611d90565b601782019050919050565b6000819050919050565b611df7611df28261150c565b611ddc565b82525050565b6000611e098288611d79565b601482019150611e1882611db9565b9150611e248287611d79565b601482019150611e348286611d00565b9150611e408285611de6565b602082019150611e508284611de6565b6020820191508190509695505050505050565b7f54686973206164647265737320646f6573206e6f74206578697374206173206160008201527f2063616e64696461746500000000000000000000000000000000000000000000602082015250565b6000611ebf602a836115f6565b9150611eca82611e63565b604082019050919050565b60006020820190508181036000830152611eee81611eb2565b9050919050565b7f766f74696e672068617320656e64656400000000000000000000000000000000600082015250565b6000611f2b6010836115f6565b9150611f3682611ef5565b602082019050919050565b60006020820190508181036000830152611f5a81611f1e565b9050919050565b7f4e487b7100000000000000000000000000000000000000000000000000000000600052601160045260246000fd5b6000611f9b8261150c565b91507fffffffffffffffffffffffffffffffffffffffffffffffffffffffffffffffff821415611fce57611fcd611f61565b5b600182019050919050565b7f596f7520616c726561647920766f746564000000000000000000000000000000600082015250565b600061200f6011836115f6565b915061201a82611fd9565b602082019050919050565b6000602082019050818103600083015261203e81612002565b9050919050565b600060408201905061205a6000830185611a1c565b6120676020830184611b22565b9392505050565b7f4e487b7100000000000000000000000000000000000000000000000000000000600052603260045260246000fd5b7f79657420746f20637265617465206120706f6c6c000000000000000000000000600082015250565b60006120d36014836115f6565b91506120de8261209d565b602082019050919050565b60006020820190508181036000830152612102816120c6565b9050919050565b7f4e487b7100000000000000000000000000000000000000000000000000000000600052600160045260246000fd5b7f6d6178696d756d206e6f206f662063616e64696461746520706572207365737360008201527f696f6e2072656769737465726564000000000000000000000000000000000000602082015250565b6000612194602e836115f6565b915061219f82612138565b604082019050919050565b600060208201905081810360008301526121c381612187565b9050919050565b60006121d582611542565b915061ffff8214156121ea576121e9611f61565b5b600182019050919050565b600060208201905061220a6000830184611a1c565b92915050565b7f6e6f74207468652063686169726d616e00000000000000000000000000000000600082015250565b60006122466010836115f6565b915061225182612210565b602082019050919050565b6000602082019050818103600083015261227581612239565b9050919050565b600060ff82169050919050565b60006122948261227c565b915061229f8361227c565b92508260ff038211156122b5576122b4611f61565b5b828201905092915050565b7f19457468657265756d205369676e6564204d6573736167653a0a333200000000600082015250565b60006122f6601c83611cf5565b9150612301826122c0565b601c82019050919050565b6000819050919050565b612327612322826117a1565b61230c565b82525050565b6000612338826122e9565b91506123448284612316565b60208201915081905092915050565b61235c8161227c565b82525050565b600060808201905061237760008301876117ab565b6123846020830186612353565b61239160408301856117ab565b61239e60608301846117ab565b9594505050505056fea2646970667358221220abcfbbf0a2da19ae728c27ef56b37a4732616b94bb2101078540cf8d52ac906964736f6c634300080a0033",
					"opcodes": "PUSH1 0x80 PUSH1 0x40 MSTORE CALLVALUE DUP1 ISZERO PUSH2 0x10 JUMPI PUSH1 0x0 DUP1 REVERT JUMPDEST POP PUSH2 0x23DD DUP1 PUSH2 0x20 PUSH1 0x0 CODECOPY PUSH1 0x0 RETURN INVALID PUSH1 0x80 PUSH1 0x40 MSTORE PUSH1 0x4 CALLDATASIZE LT PUSH2 0xAA JUMPI PUSH1 0x0 CALLDATALOAD PUSH1 0xE0 SHR DUP1 PUSH4 0x67D407DF GT PUSH2 0x64 JUMPI DUP1 PUSH4 0x67D407DF EQ PUSH2 0x206 JUMPI DUP1 PUSH4 0x82E305AB EQ PUSH2 0x243 JUMPI DUP1 PUSH4 0x8579CACD EQ PUSH2 0x25F JUMPI DUP1 PUSH4 0xA886E61B EQ PUSH2 0x29C JUMPI DUP1 PUSH4 0xAF7CBC0D EQ PUSH2 0x2DF JUMPI DUP1 PUSH4 0xF0E4DE22 EQ PUSH2 0x31C JUMPI PUSH2 0xB1 JUMP JUMPDEST DUP1 PUSH3 0x11EA6F EQ PUSH2 0xB6 JUMPI DUP1 PUSH4 0x1FF993B EQ PUSH2 0xF5 JUMPI DUP1 PUSH4 0x12F0DA4B EQ PUSH2 0x132 JUMPI DUP1 PUSH4 0x4FCF1F39 EQ PUSH2 0x15B JUMPI DUP1 PUSH4 0x57F53967 EQ PUSH2 0x19A JUMPI DUP1 PUSH4 0x63EE965A EQ PUSH2 0x1C3 JUMPI PUSH2 0xB1 JUMP JUMPDEST CALLDATASIZE PUSH2 0xB1 JUMPI STOP JUMPDEST PUSH1 0x0 DUP1 REVERT JUMPDEST CALLVALUE DUP1 ISZERO PUSH2 0xC2 JUMPI PUSH1 0x0 DUP1 REVERT JUMPDEST POP PUSH2 0xDD PUSH1 0x4 DUP1 CALLDATASIZE SUB DUP2 ADD SWAP1 PUSH2 0xD8 SWAP2 SWAP1 PUSH2 0x157C JUMP JUMPDEST PUSH2 0x345 JUMP JUMPDEST PUSH1 0x40 MLOAD PUSH2 0xEC SWAP4 SWAP3 SWAP2 SWAP1 PUSH2 0x1682 JUMP JUMPDEST PUSH1 0x40 MLOAD DUP1 SWAP2 SUB SWAP1 RETURN JUMPDEST CALLVALUE DUP1 ISZERO PUSH2 0x101 JUMPI PUSH1 0x0 DUP1 REVERT JUMPDEST POP PUSH2 0x11C PUSH1 0x4 DUP1 CALLDATASIZE SUB DUP2 ADD SWAP1 PUSH2 0x117 SWAP2 SWAP1 PUSH2 0x171E JUMP JUMPDEST PUSH2 0x405 JUMP JUMPDEST PUSH1 0x40 MLOAD PUSH2 0x129 SWAP2 SWAP1 PUSH2 0x17BA JUMP JUMPDEST PUSH1 0x40 MLOAD DUP1 SWAP2 SUB SWAP1 RETURN JUMPDEST CALLVALUE DUP1 ISZERO PUSH2 0x13E JUMPI PUSH1 0x0 DUP1 REVERT JUMPDEST POP PUSH2 0x159 PUSH1 0x4 DUP1 CALLDATASIZE SUB DUP2 ADD SWAP1 PUSH2 0x154 SWAP2 SWAP1 PUSH2 0x1876 JUMP JUMPDEST PUSH2 0x440 JUMP JUMPDEST STOP JUMPDEST CALLVALUE DUP1 ISZERO PUSH2 0x167 JUMPI PUSH1 0x0 DUP1 REVERT JUMPDEST POP PUSH2 0x182 PUSH1 0x4 DUP1 CALLDATASIZE SUB DUP2 ADD SWAP1 PUSH2 0x17D SWAP2 SWAP1 PUSH2 0x1915 JUMP JUMPDEST PUSH2 0x777 JUMP JUMPDEST PUSH1 0x40 MLOAD PUSH2 0x191 SWAP4 SWAP3 SWAP2 SWAP1 PUSH2 0x1A2B JUMP JUMPDEST PUSH1 0x40 MLOAD DUP1 SWAP2 SUB SWAP1 RETURN JUMPDEST CALLVALUE DUP1 ISZERO PUSH2 0x1A6 JUMPI PUSH1 0x0 DUP1 REVERT JUMPDEST POP PUSH2 0x1C1 PUSH1 0x4 DUP1 CALLDATASIZE SUB DUP2 ADD SWAP1 PUSH2 0x1BC SWAP2 SWAP1 PUSH2 0x1A69 JUMP JUMPDEST PUSH2 0xA17 JUMP JUMPDEST STOP JUMPDEST CALLVALUE DUP1 ISZERO PUSH2 0x1CF JUMPI PUSH1 0x0 DUP1 REVERT JUMPDEST POP PUSH2 0x1EA PUSH1 0x4 DUP1 CALLDATASIZE SUB DUP2 ADD SWAP1 PUSH2 0x1E5 SWAP2 SWAP1 PUSH2 0x1915 JUMP JUMPDEST PUSH2 0xCD7 JUMP JUMPDEST PUSH1 0x40 MLOAD PUSH2 0x1FD SWAP8 SWAP7 SWAP6 SWAP5 SWAP4 SWAP3 SWAP2 SWAP1 PUSH2 0x1B31 JUMP JUMPDEST PUSH1 0x40 MLOAD DUP1 SWAP2 SUB SWAP1 RETURN JUMPDEST CALLVALUE DUP1 ISZERO PUSH2 0x212 JUMPI PUSH1 0x0 DUP1 REVERT JUMPDEST POP PUSH2 0x22D PUSH1 0x4 DUP1 CALLDATASIZE SUB DUP2 ADD SWAP1 PUSH2 0x228 SWAP2 SWAP1 PUSH2 0x1BA0 JUMP JUMPDEST PUSH2 0xDB0 JUMP JUMPDEST PUSH1 0x40 MLOAD PUSH2 0x23A SWAP2 SWAP1 PUSH2 0x1BCD JUMP JUMPDEST PUSH1 0x40 MLOAD DUP1 SWAP2 SUB SWAP1 RETURN JUMPDEST PUSH2 0x25D PUSH1 0x4 DUP1 CALLDATASIZE SUB DUP2 ADD SWAP1 PUSH2 0x258 SWAP2 SWAP1 PUSH2 0x1915 JUMP JUMPDEST PUSH2 0xDC8 JUMP JUMPDEST STOP JUMPDEST CALLVALUE DUP1 ISZERO PUSH2 0x26B JUMPI PUSH1 0x0 DUP1 REVERT JUMPDEST POP PUSH2 0x286 PUSH1 0x4 DUP1 CALLDATASIZE SUB DUP2 ADD SWAP1 PUSH2 0x281 SWAP2 SWAP1 PUSH2 0x1915 JUMP JUMPDEST PUSH2 0xEE9 JUMP JUMPDEST PUSH1 0x40 MLOAD PUSH2 0x293 SWAP2 SWAP1 PUSH2 0x1BCD JUMP JUMPDEST PUSH1 0x40 MLOAD DUP1 SWAP2 SUB SWAP1 RETURN JUMPDEST CALLVALUE DUP1 ISZERO PUSH2 0x2A8 JUMPI PUSH1 0x0 DUP1 REVERT JUMPDEST POP PUSH2 0x2C3 PUSH1 0x4 DUP1 CALLDATASIZE SUB DUP2 ADD SWAP1 PUSH2 0x2BE SWAP2 SWAP1 PUSH2 0x1BE8 JUMP JUMPDEST PUSH2 0xF2B JUMP JUMPDEST PUSH1 0x40 MLOAD PUSH2 0x2D6 SWAP8 SWAP7 SWAP6 SWAP5 SWAP4 SWAP3 SWAP2 SWAP1 PUSH2 0x1B31 JUMP JUMPDEST PUSH1 0x40 MLOAD DUP1 SWAP2 SUB SWAP1 RETURN JUMPDEST CALLVALUE DUP1 ISZERO PUSH2 0x2EB JUMPI PUSH1 0x0 DUP1 REVERT JUMPDEST POP PUSH2 0x306 PUSH1 0x4 DUP1 CALLDATASIZE SUB DUP2 ADD SWAP1 PUSH2 0x301 SWAP2 SWAP1 PUSH2 0x1915 JUMP JUMPDEST PUSH2 0xFFE JUMP JUMPDEST PUSH1 0x40 MLOAD PUSH2 0x313 SWAP2 SWAP1 PUSH2 0x1CD3 JUMP JUMPDEST PUSH1 0x40 MLOAD DUP1 SWAP2 SUB SWAP1 RETURN JUMPDEST CALLVALUE DUP1 ISZERO PUSH2 0x328 JUMPI PUSH1 0x0 DUP1 REVERT JUMPDEST POP PUSH2 0x343 PUSH1 0x4 DUP1 CALLDATASIZE SUB DUP2 ADD SWAP1 PUSH2 0x33E SWAP2 SWAP1 PUSH2 0x1915 JUMP JUMPDEST PUSH2 0x10B3 JUMP JUMPDEST STOP JUMPDEST PUSH1 0x60 PUSH1 0x0 DUP1 PUSH1 0x0 PUSH1 0x1 DUP8 PUSH1 0x40 MLOAD PUSH2 0x35C SWAP2 SWAP1 PUSH2 0x1D31 JUMP JUMPDEST SWAP1 DUP2 MSTORE PUSH1 0x20 ADD PUSH1 0x40 MLOAD DUP1 SWAP2 SUB SWAP1 KECCAK256 SWAP1 POP DUP6 DUP2 PUSH1 0x2 ADD PUSH1 0x0 PUSH2 0x100 EXP DUP2 SLOAD DUP2 PUSH2 0xFFFF MUL NOT AND SWAP1 DUP4 PUSH2 0xFFFF AND MUL OR SWAP1 SSTORE POP CALLER DUP2 PUSH1 0x0 ADD PUSH1 0x0 PUSH2 0x100 EXP DUP2 SLOAD DUP2 PUSH20 0xFFFFFFFFFFFFFFFFFFFFFFFFFFFFFFFFFFFFFFFF MUL NOT AND SWAP1 DUP4 PUSH20 0xFFFFFFFFFFFFFFFFFFFFFFFFFFFFFFFFFFFFFFFF AND MUL OR SWAP1 SSTORE POP DUP5 PUSH2 0xFFFF AND DUP2 PUSH1 0x2 ADD PUSH1 0x2 PUSH2 0x100 EXP DUP2 SLOAD DUP2 PUSH4 0xFFFFFFFF MUL NOT AND SWAP1 DUP4 PUSH4 0xFFFFFFFF AND MUL OR SWAP1 SSTORE POP DUP7 DUP7 SWAP4 POP SWAP4 POP POP SWAP4 POP SWAP4 POP SWAP4 SWAP1 POP JUMP JUMPDEST PUSH1 0x0 ADDRESS DUP6 DUP6 DUP6 DUP6 PUSH1 0x40 MLOAD PUSH1 0x20 ADD PUSH2 0x420 SWAP6 SWAP5 SWAP4 SWAP3 SWAP2 SWAP1 PUSH2 0x1DFD JUMP JUMPDEST PUSH1 0x40 MLOAD PUSH1 0x20 DUP2 DUP4 SUB SUB DUP2 MSTORE SWAP1 PUSH1 0x40 MSTORE DUP1 MLOAD SWAP1 PUSH1 0x20 ADD KECCAK256 SWAP1 POP SWAP5 SWAP4 POP POP POP POP JUMP JUMPDEST DUP4 DUP4 PUSH1 0x0 PUSH1 0x1 DUP3 PUSH1 0x40 MLOAD PUSH2 0x454 SWAP2 SWAP1 PUSH2 0x1D31 JUMP JUMPDEST SWAP1 DUP2 MSTORE PUSH1 0x20 ADD PUSH1 0x40 MLOAD DUP1 SWAP2 SUB SWAP1 KECCAK256 SWAP1 POP PUSH1 0x1 ISZERO ISZERO DUP2 PUSH1 0x3 ADD PUSH1 0x0 DUP6 PUSH20 0xFFFFFFFFFFFFFFFFFFFFFFFFFFFFFFFFFFFFFFFF AND PUSH20 0xFFFFFFFFFFFFFFFFFFFFFFFFFFFFFFFFFFFFFFFF AND DUP2 MSTORE PUSH1 0x20 ADD SWAP1 DUP2 MSTORE PUSH1 0x20 ADD PUSH1 0x0 KECCAK256 PUSH1 0x0 SWAP1 SLOAD SWAP1 PUSH2 0x100 EXP SWAP1 DIV PUSH1 0xFF AND ISZERO ISZERO EQ PUSH2 0x4F9 JUMPI PUSH1 0x40 MLOAD PUSH32 0x8C379A000000000000000000000000000000000000000000000000000000000 DUP2 MSTORE PUSH1 0x4 ADD PUSH2 0x4F0 SWAP1 PUSH2 0x1ED5 JUMP JUMPDEST PUSH1 0x40 MLOAD DUP1 SWAP2 SUB SWAP1 REVERT JUMPDEST DUP6 PUSH1 0x0 PUSH1 0x1 DUP3 PUSH1 0x40 MLOAD PUSH2 0x50C SWAP2 SWAP1 PUSH2 0x1D31 JUMP JUMPDEST SWAP1 DUP2 MSTORE PUSH1 0x20 ADD PUSH1 0x40 MLOAD DUP1 SWAP2 SUB SWAP1 KECCAK256 SWAP1 POP PUSH1 0x1 ISZERO ISZERO DUP2 PUSH1 0x2 ADD PUSH1 0x18 SWAP1 SLOAD SWAP1 PUSH2 0x100 EXP SWAP1 DIV PUSH1 0xFF AND ISZERO ISZERO EQ PUSH2 0x574 JUMPI PUSH1 0x40 MLOAD PUSH32 0x8C379A000000000000000000000000000000000000000000000000000000000 DUP2 MSTORE PUSH1 0x4 ADD PUSH2 0x56B SWAP1 PUSH2 0x1F41 JUMP JUMPDEST PUSH1 0x40 MLOAD DUP1 SWAP2 SUB SWAP1 REVERT JUMPDEST PUSH1 0x0 PUSH2 0x582 DUP11 DUP11 DUP11 TIMESTAMP PUSH2 0x405 JUMP JUMPDEST SWAP1 POP PUSH1 0x0 PUSH2 0x590 DUP3 DUP10 PUSH2 0x1199 JUMP JUMPDEST SWAP1 POP PUSH1 0x0 PUSH20 0xFFFFFFFFFFFFFFFFFFFFFFFFFFFFFFFFFFFFFFFF AND DUP2 PUSH20 0xFFFFFFFFFFFFFFFFFFFFFFFFFFFFFFFFFFFFFFFF AND EQ ISZERO PUSH2 0x5CC JUMPI PUSH1 0x0 DUP1 REVERT JUMPDEST PUSH1 0x2 PUSH1 0x0 DUP3 PUSH20 0xFFFFFFFFFFFFFFFFFFFFFFFFFFFFFFFFFFFFFFFF AND PUSH20 0xFFFFFFFFFFFFFFFFFFFFFFFFFFFFFFFFFFFFFFFF AND DUP2 MSTORE PUSH1 0x20 ADD SWAP1 DUP2 MSTORE PUSH1 0x20 ADD PUSH1 0x0 KECCAK256 SLOAD DUP10 EQ PUSH2 0x617 JUMPI PUSH1 0x0 DUP1 REVERT JUMPDEST PUSH1 0x2 PUSH1 0x0 DUP3 PUSH20 0xFFFFFFFFFFFFFFFFFFFFFFFFFFFFFFFFFFFFFFFF AND PUSH20 0xFFFFFFFFFFFFFFFFFFFFFFFFFFFFFFFFFFFFFFFF AND DUP2 MSTORE PUSH1 0x20 ADD SWAP1 DUP2 MSTORE PUSH1 0x20 ADD PUSH1 0x0 KECCAK256 PUSH1 0x0 DUP2 SLOAD DUP1 SWAP3 SWAP2 SWAP1 PUSH2 0x667 SWAP1 PUSH2 0x1F90 JUMP JUMPDEST SWAP2 SWAP1 POP SSTORE POP PUSH1 0x0 PUSH1 0x1 DUP12 PUSH1 0x40 MLOAD PUSH2 0x67E SWAP2 SWAP1 PUSH2 0x1D31 JUMP JUMPDEST SWAP1 DUP2 MSTORE PUSH1 0x20 ADD PUSH1 0x40 MLOAD DUP1 SWAP2 SUB SWAP1 KECCAK256 SWAP1 POP PUSH1 0x0 ISZERO ISZERO DUP2 PUSH1 0x4 ADD PUSH1 0x0 DUP5 PUSH20 0xFFFFFFFFFFFFFFFFFFFFFFFFFFFFFFFFFFFFFFFF AND PUSH20 0xFFFFFFFFFFFFFFFFFFFFFFFFFFFFFFFFFFFFFFFF AND DUP2 MSTORE PUSH1 0x20 ADD SWAP1 DUP2 MSTORE PUSH1 0x20 ADD PUSH1 0x0 KECCAK256 PUSH1 0x0 SWAP1 SLOAD SWAP1 PUSH2 0x100 EXP SWAP1 DIV PUSH1 0xFF AND ISZERO ISZERO EQ PUSH2 0x723 JUMPI PUSH1 0x40 MLOAD PUSH32 0x8C379A000000000000000000000000000000000000000000000000000000000 DUP2 MSTORE PUSH1 0x4 ADD PUSH2 0x71A SWAP1 PUSH2 0x2025 JUMP JUMPDEST PUSH1 0x40 MLOAD DUP1 SWAP2 SUB SWAP1 REVERT JUMPDEST PUSH2 0x72E DUP13 DUP13 DUP5 PUSH2 0x1292 JUMP JUMPDEST POP PUSH32 0xF3F16A15F074B71C5138107DFC7C63B80524D5411CB967CAA97D8D9F12B2FD6B DUP13 PUSH1 0x1 PUSH1 0x40 MLOAD PUSH2 0x761 SWAP3 SWAP2 SWAP1 PUSH2 0x2045 JUMP JUMPDEST PUSH1 0x40 MLOAD DUP1 SWAP2 SUB SWAP1 LOG1 POP POP POP POP POP POP POP POP POP POP POP POP JUMP JUMPDEST PUSH1 0x60 PUSH1 0x0 DUP1 PUSH1 0x0 PUSH1 0x1 DUP6 PUSH1 0x40 MLOAD PUSH2 0x78E SWAP2 SWAP1 PUSH2 0x1D31 JUMP JUMPDEST SWAP1 DUP2 MSTORE PUSH1 0x20 ADD PUSH1 0x40 MLOAD DUP1 SWAP2 SUB SWAP1 KECCAK256 SWAP1 POP DUP1 PUSH1 0x1 ADD DUP1 SLOAD SWAP1 POP PUSH8 0xFFFFFFFFFFFFFFFF DUP2 GT ISZERO PUSH2 0x7BF JUMPI PUSH2 0x7BE PUSH2 0x13E1 JUMP JUMPDEST JUMPDEST PUSH1 0x40 MLOAD SWAP1 DUP1 DUP3 MSTORE DUP1 PUSH1 0x20 MUL PUSH1 0x20 ADD DUP3 ADD PUSH1 0x40 MSTORE DUP1 ISZERO PUSH2 0x7ED JUMPI DUP2 PUSH1 0x20 ADD PUSH1 0x20 DUP3 MUL DUP1 CALLDATASIZE DUP4 CALLDATACOPY DUP1 DUP3 ADD SWAP2 POP POP SWAP1 POP JUMPDEST POP SWAP4 POP PUSH1 0x0 DUP1 PUSH1 0x0 JUMPDEST DUP7 MLOAD DUP2 GT PUSH2 0xA03 JUMPI DUP3 DUP5 PUSH1 0x5 ADD PUSH1 0x0 DUP7 PUSH1 0x1 ADD DUP5 DUP2 SLOAD DUP2 LT PUSH2 0x81B JUMPI PUSH2 0x81A PUSH2 0x206E JUMP JUMPDEST JUMPDEST SWAP1 PUSH1 0x0 MSTORE PUSH1 0x20 PUSH1 0x0 KECCAK256 ADD PUSH1 0x0 SWAP1 SLOAD SWAP1 PUSH2 0x100 EXP SWAP1 DIV PUSH20 0xFFFFFFFFFFFFFFFFFFFFFFFFFFFFFFFFFFFFFFFF AND PUSH20 0xFFFFFFFFFFFFFFFFFFFFFFFFFFFFFFFFFFFFFFFF AND PUSH20 0xFFFFFFFFFFFFFFFFFFFFFFFFFFFFFFFFFFFFFFFF AND DUP2 MSTORE PUSH1 0x20 ADD SWAP1 DUP2 MSTORE PUSH1 0x20 ADD PUSH1 0x0 KECCAK256 SLOAD GT ISZERO PUSH2 0x94F JUMPI DUP4 PUSH1 0x5 ADD PUSH1 0x0 DUP6 PUSH1 0x1 ADD DUP4 DUP2 SLOAD DUP2 LT PUSH2 0x8A3 JUMPI PUSH2 0x8A2 PUSH2 0x206E JUMP JUMPDEST JUMPDEST SWAP1 PUSH1 0x0 MSTORE PUSH1 0x20 PUSH1 0x0 KECCAK256 ADD PUSH1 0x0 SWAP1 SLOAD SWAP1 PUSH2 0x100 EXP SWAP1 DIV PUSH20 0xFFFFFFFFFFFFFFFFFFFFFFFFFFFFFFFFFFFFFFFF AND PUSH20 0xFFFFFFFFFFFFFFFFFFFFFFFFFFFFFFFFFFFFFFFF AND PUSH20 0xFFFFFFFFFFFFFFFFFFFFFFFFFFFFFFFFFFFFFFFF AND DUP2 MSTORE PUSH1 0x20 ADD SWAP1 DUP2 MSTORE PUSH1 0x20 ADD PUSH1 0x0 KECCAK256 SLOAD SWAP3 POP DUP4 PUSH1 0x1 ADD DUP2 DUP2 SLOAD DUP2 LT PUSH2 0x921 JUMPI PUSH2 0x920 PUSH2 0x206E JUMP JUMPDEST JUMPDEST SWAP1 PUSH1 0x0 MSTORE PUSH1 0x20 PUSH1 0x0 KECCAK256 ADD PUSH1 0x0 SWAP1 SLOAD SWAP1 PUSH2 0x100 EXP SWAP1 DIV PUSH20 0xFFFFFFFFFFFFFFFFFFFFFFFFFFFFFFFFFFFFFFFF AND SWAP2 POP JUMPDEST DUP4 PUSH1 0x5 ADD PUSH1 0x0 DUP6 PUSH1 0x1 ADD DUP4 DUP2 SLOAD DUP2 LT PUSH2 0x96B JUMPI PUSH2 0x96A PUSH2 0x206E JUMP JUMPDEST JUMPDEST SWAP1 PUSH1 0x0 MSTORE PUSH1 0x20 PUSH1 0x0 KECCAK256 ADD PUSH1 0x0 SWAP1 SLOAD SWAP1 PUSH2 0x100 EXP SWAP1 DIV PUSH20 0xFFFFFFFFFFFFFFFFFFFFFFFFFFFFFFFFFFFFFFFF AND PUSH20 0xFFFFFFFFFFFFFFFFFFFFFFFFFFFFFFFFFFFFFFFF AND PUSH20 0xFFFFFFFFFFFFFFFFFFFFFFFFFFFFFFFFFFFFFFFF AND DUP2 MSTORE PUSH1 0x20 ADD SWAP1 DUP2 MSTORE PUSH1 0x20 ADD PUSH1 0x0 KECCAK256 SLOAD DUP8 DUP3 DUP2 MLOAD DUP2 LT PUSH2 0x9E4 JUMPI PUSH2 0x9E3 PUSH2 0x206E JUMP JUMPDEST JUMPDEST PUSH1 0x20 MUL PUSH1 0x20 ADD ADD DUP2 DUP2 MSTORE POP POP DUP1 DUP1 PUSH2 0x9FB SWAP1 PUSH2 0x1F90 JUMP JUMPDEST SWAP2 POP POP PUSH2 0x7F6 JUMP JUMPDEST POP DUP6 DUP2 DUP4 SWAP6 POP SWAP6 POP SWAP6 POP POP POP POP SWAP2 SWAP4 SWAP1 SWAP3 POP JUMP JUMPDEST PUSH1 0x0 PUSH1 0x1 DUP3 PUSH1 0x40 MLOAD PUSH2 0xA29 SWAP2 SWAP1 PUSH2 0x1D31 JUMP JUMPDEST SWAP1 DUP2 MSTORE PUSH1 0x20 ADD PUSH1 0x40 MLOAD DUP1 SWAP2 SUB SWAP1 KECCAK256 SWAP1 POP PUSH1 0x0 PUSH20 0xFFFFFFFFFFFFFFFFFFFFFFFFFFFFFFFFFFFFFFFF AND DUP2 PUSH1 0x0 ADD PUSH1 0x0 SWAP1 SLOAD SWAP1 PUSH2 0x100 EXP SWAP1 DIV PUSH20 0xFFFFFFFFFFFFFFFFFFFFFFFFFFFFFFFFFFFFFFFF AND PUSH20 0xFFFFFFFFFFFFFFFFFFFFFFFFFFFFFFFFFFFFFFFF AND EQ ISZERO PUSH2 0xACD JUMPI PUSH1 0x40 MLOAD PUSH32 0x8C379A000000000000000000000000000000000000000000000000000000000 DUP2 MSTORE PUSH1 0x4 ADD PUSH2 0xAC4 SWAP1 PUSH2 0x20E9 JUMP JUMPDEST PUSH1 0x40 MLOAD DUP1 SWAP2 SUB SWAP1 REVERT JUMPDEST CALLER PUSH20 0xFFFFFFFFFFFFFFFFFFFFFFFFFFFFFFFFFFFFFFFF AND DUP2 PUSH1 0x0 ADD PUSH1 0x0 SWAP1 SLOAD SWAP1 PUSH2 0x100 EXP SWAP1 DIV PUSH20 0xFFFFFFFFFFFFFFFFFFFFFFFFFFFFFFFFFFFFFFFF AND PUSH20 0xFFFFFFFFFFFFFFFFFFFFFFFFFFFFFFFFFFFFFFFF AND EQ PUSH2 0xB2D JUMPI PUSH2 0xB2C PUSH2 0x2109 JUMP JUMPDEST JUMPDEST DUP1 PUSH1 0x2 ADD PUSH1 0x2 SWAP1 SLOAD SWAP1 PUSH2 0x100 EXP SWAP1 DIV PUSH4 0xFFFFFFFF AND PUSH4 0xFFFFFFFF AND DUP2 PUSH1 0x2 ADD PUSH1 0x16 SWAP1 SLOAD SWAP1 PUSH2 0x100 EXP SWAP1 DIV PUSH2 0xFFFF AND PUSH2 0xFFFF AND LT PUSH2 0xB9F JUMPI PUSH1 0x40 MLOAD PUSH32 0x8C379A000000000000000000000000000000000000000000000000000000000 DUP2 MSTORE PUSH1 0x4 ADD PUSH2 0xB96 SWAP1 PUSH2 0x21AA JUMP JUMPDEST PUSH1 0x40 MLOAD DUP1 SWAP2 SUB SWAP1 REVERT JUMPDEST PUSH1 0x1 DUP2 PUSH1 0x3 ADD PUSH1 0x0 DUP6 PUSH20 0xFFFFFFFFFFFFFFFFFFFFFFFFFFFFFFFFFFFFFFFF AND PUSH20 0xFFFFFFFFFFFFFFFFFFFFFFFFFFFFFFFFFFFFFFFF AND DUP2 MSTORE PUSH1 0x20 ADD SWAP1 DUP2 MSTORE PUSH1 0x20 ADD PUSH1 0x0 KECCAK256 PUSH1 0x0 PUSH2 0x100 EXP DUP2 SLOAD DUP2 PUSH1 0xFF MUL NOT AND SWAP1 DUP4 ISZERO ISZERO MUL OR SWAP1 SSTORE POP DUP1 PUSH1 0x1 ADD DUP4 SWAP1 DUP1 PUSH1 0x1 DUP2 SLOAD ADD DUP1 DUP3 SSTORE DUP1 SWAP2 POP POP PUSH1 0x1 SWAP1 SUB SWAP1 PUSH1 0x0 MSTORE PUSH1 0x20 PUSH1 0x0 KECCAK256 ADD PUSH1 0x0 SWAP1 SWAP2 SWAP1 SWAP2 SWAP1 SWAP2 PUSH2 0x100 EXP DUP2 SLOAD DUP2 PUSH20 0xFFFFFFFFFFFFFFFFFFFFFFFFFFFFFFFFFFFFFFFF MUL NOT AND SWAP1 DUP4 PUSH20 0xFFFFFFFFFFFFFFFFFFFFFFFFFFFFFFFFFFFFFFFF AND MUL OR SWAP1 SSTORE POP DUP1 PUSH1 0x2 ADD PUSH1 0x16 DUP2 DUP2 SWAP1 SLOAD SWAP1 PUSH2 0x100 EXP SWAP1 DIV PUSH2 0xFFFF AND DUP1 SWAP3 SWAP2 SWAP1 PUSH2 0xC80 SWAP1 PUSH2 0x21CA JUMP JUMPDEST SWAP2 SWAP1 PUSH2 0x100 EXP DUP2 SLOAD DUP2 PUSH2 0xFFFF MUL NOT AND SWAP1 DUP4 PUSH2 0xFFFF AND MUL OR SWAP1 SSTORE POP POP PUSH32 0xC19C59AA93348E8FC54764BC642ECA975E2639F44CC683EF8F027E1529CBDA32 DUP4 PUSH1 0x40 MLOAD PUSH2 0xCCA SWAP2 SWAP1 PUSH2 0x21F5 JUMP JUMPDEST PUSH1 0x40 MLOAD DUP1 SWAP2 SUB SWAP1 LOG1 POP POP POP JUMP JUMPDEST PUSH1 0x1 DUP2 DUP1 MLOAD PUSH1 0x20 DUP2 ADD DUP3 ADD DUP1 MLOAD DUP5 DUP3 MSTORE PUSH1 0x20 DUP4 ADD PUSH1 0x20 DUP6 ADD KECCAK256 DUP2 DUP4 MSTORE DUP1 SWAP6 POP POP POP POP POP POP PUSH1 0x0 SWAP2 POP SWAP1 POP DUP1 PUSH1 0x0 ADD PUSH1 0x0 SWAP1 SLOAD SWAP1 PUSH2 0x100 EXP SWAP1 DIV PUSH20 0xFFFFFFFFFFFFFFFFFFFFFFFFFFFFFFFFFFFFFFFF AND SWAP1 DUP1 PUSH1 0x2 ADD PUSH1 0x0 SWAP1 SLOAD SWAP1 PUSH2 0x100 EXP SWAP1 DIV PUSH2 0xFFFF AND SWAP1 DUP1 PUSH1 0x2 ADD PUSH1 0x2 SWAP1 SLOAD SWAP1 PUSH2 0x100 EXP SWAP1 DIV PUSH4 0xFFFFFFFF AND SWAP1 DUP1 PUSH1 0x2 ADD PUSH1 0x6 SWAP1 SLOAD SWAP1 PUSH2 0x100 EXP SWAP1 DIV PUSH8 0xFFFFFFFFFFFFFFFF AND SWAP1 DUP1 PUSH1 0x2 ADD PUSH1 0xE SWAP1 SLOAD SWAP1 PUSH2 0x100 EXP SWAP1 DIV PUSH8 0xFFFFFFFFFFFFFFFF AND SWAP1 DUP1 PUSH1 0x2 ADD PUSH1 0x16 SWAP1 SLOAD SWAP1 PUSH2 0x100 EXP SWAP1 DIV PUSH2 0xFFFF AND SWAP1 DUP1 PUSH1 0x2 ADD PUSH1 0x18 SWAP1 SLOAD SWAP1 PUSH2 0x100 EXP SWAP1 DIV PUSH1 0xFF AND SWAP1 POP DUP8 JUMP JUMPDEST PUSH1 0x2 PUSH1 0x20 MSTORE DUP1 PUSH1 0x0 MSTORE PUSH1 0x40 PUSH1 0x0 KECCAK256 PUSH1 0x0 SWAP2 POP SWAP1 POP SLOAD DUP2 JUMP JUMPDEST PUSH1 0x0 PUSH1 0x1 DUP3 PUSH1 0x40 MLOAD PUSH2 0xDDA SWAP2 SWAP1 PUSH2 0x1D31 JUMP JUMPDEST SWAP1 DUP2 MSTORE PUSH1 0x20 ADD PUSH1 0x40 MLOAD DUP1 SWAP2 SUB SWAP1 KECCAK256 SWAP1 POP DUP1 PUSH1 0x0 ADD PUSH1 0x0 SWAP1 SLOAD SWAP1 PUSH2 0x100 EXP SWAP1 DIV PUSH20 0xFFFFFFFFFFFFFFFFFFFFFFFFFFFFFFFFFFFFFFFF AND PUSH20 0xFFFFFFFFFFFFFFFFFFFFFFFFFFFFFFFFFFFFFFFF AND CALLER PUSH20 0xFFFFFFFFFFFFFFFFFFFFFFFFFFFFFFFFFFFFFFFF AND EQ PUSH2 0xE7C JUMPI PUSH1 0x40 MLOAD PUSH32 0x8C379A000000000000000000000000000000000000000000000000000000000 DUP2 MSTORE PUSH1 0x4 ADD PUSH2 0xE73 SWAP1 PUSH2 0x225C JUMP JUMPDEST PUSH1 0x40 MLOAD DUP1 SWAP2 SUB SWAP1 REVERT JUMPDEST CALLER PUSH20 0xFFFFFFFFFFFFFFFFFFFFFFFFFFFFFFFFFFFFFFFF AND PUSH2 0x8FC DUP3 PUSH1 0x2 ADD PUSH1 0xE SWAP1 SLOAD SWAP1 PUSH2 0x100 EXP SWAP1 DIV PUSH8 0xFFFFFFFFFFFFFFFF AND PUSH8 0xFFFFFFFFFFFFFFFF AND SWAP1 DUP2 ISZERO MUL SWAP1 PUSH1 0x40 MLOAD PUSH1 0x0 PUSH1 0x40 MLOAD DUP1 DUP4 SUB DUP2 DUP6 DUP9 DUP9 CALL SWAP4 POP POP POP POP ISZERO DUP1 ISZERO PUSH2 0xEE4 JUMPI RETURNDATASIZE PUSH1 0x0 DUP1 RETURNDATACOPY RETURNDATASIZE PUSH1 0x0 REVERT JUMPDEST POP POP POP JUMP JUMPDEST PUSH1 0x0 DUP1 PUSH1 0x1 DUP4 PUSH1 0x40 MLOAD PUSH2 0xEFC SWAP2 SWAP1 PUSH2 0x1D31 JUMP JUMPDEST SWAP1 DUP2 MSTORE PUSH1 0x20 ADD PUSH1 0x40 MLOAD DUP1 SWAP2 SUB SWAP1 KECCAK256 SWAP1 POP DUP1 PUSH1 0x2 ADD PUSH1 0x16 SWAP1 SLOAD SWAP1 PUSH2 0x100 EXP SWAP1 DIV PUSH2 0xFFFF AND PUSH2 0xFFFF AND SWAP2 POP POP SWAP2 SWAP1 POP JUMP JUMPDEST PUSH1 0x0 DUP2 DUP2 SLOAD DUP2 LT PUSH2 0xF3B JUMPI PUSH1 0x0 DUP1 REVERT JUMPDEST SWAP1 PUSH1 0x0 MSTORE PUSH1 0x20 PUSH1 0x0 KECCAK256 SWAP1 PUSH1 0x6 MUL ADD PUSH1 0x0 SWAP2 POP SWAP1 POP DUP1 PUSH1 0x0 ADD PUSH1 0x0 SWAP1 SLOAD SWAP1 PUSH2 0x100 EXP SWAP1 DIV PUSH20 0xFFFFFFFFFFFFFFFFFFFFFFFFFFFFFFFFFFFFFFFF AND SWAP1 DUP1 PUSH1 0x2 ADD PUSH1 0x0 SWAP1 SLOAD SWAP1 PUSH2 0x100 EXP SWAP1 DIV PUSH2 0xFFFF AND SWAP1 DUP1 PUSH1 0x2 ADD PUSH1 0x2 SWAP1 SLOAD SWAP1 PUSH2 0x100 EXP SWAP1 DIV PUSH4 0xFFFFFFFF AND SWAP1 DUP1 PUSH1 0x2 ADD PUSH1 0x6 SWAP1 SLOAD SWAP1 PUSH2 0x100 EXP SWAP1 DIV PUSH8 0xFFFFFFFFFFFFFFFF AND SWAP1 DUP1 PUSH1 0x2 ADD PUSH1 0xE SWAP1 SLOAD SWAP1 PUSH2 0x100 EXP SWAP1 DIV PUSH8 0xFFFFFFFFFFFFFFFF AND SWAP1 DUP1 PUSH1 0x2 ADD PUSH1 0x16 SWAP1 SLOAD SWAP1 PUSH2 0x100 EXP SWAP1 DIV PUSH2 0xFFFF AND SWAP1 DUP1 PUSH1 0x2 ADD PUSH1 0x18 SWAP1 SLOAD SWAP1 PUSH2 0x100 EXP SWAP1 DIV PUSH1 0xFF AND SWAP1 POP DUP8 JUMP JUMPDEST PUSH1 0x60 PUSH1 0x0 PUSH1 0x1 DUP4 PUSH1 0x40 MLOAD PUSH2 0x1012 SWAP2 SWAP1 PUSH2 0x1D31 JUMP JUMPDEST SWAP1 DUP2 MSTORE PUSH1 0x20 ADD PUSH1 0x40 MLOAD DUP1 SWAP2 SUB SWAP1 KECCAK256 SWAP1 POP DUP1 PUSH1 0x1 ADD DUP1 SLOAD DUP1 PUSH1 0x20 MUL PUSH1 0x20 ADD PUSH1 0x40 MLOAD SWAP1 DUP2 ADD PUSH1 0x40 MSTORE DUP1 SWAP3 SWAP2 SWAP1 DUP2 DUP2 MSTORE PUSH1 0x20 ADD DUP3 DUP1 SLOAD DUP1 ISZERO PUSH2 0x10A6 JUMPI PUSH1 0x20 MUL DUP3 ADD SWAP2 SWAP1 PUSH1 0x0 MSTORE PUSH1 0x20 PUSH1 0x0 KECCAK256 SWAP1 JUMPDEST DUP2 PUSH1 0x0 SWAP1 SLOAD SWAP1 PUSH2 0x100 EXP SWAP1 DIV PUSH20 0xFFFFFFFFFFFFFFFFFFFFFFFFFFFFFFFFFFFFFFFF AND PUSH20 0xFFFFFFFFFFFFFFFFFFFFFFFFFFFFFFFFFFFFFFFF AND DUP2 MSTORE PUSH1 0x20 ADD SWAP1 PUSH1 0x1 ADD SWAP1 DUP1 DUP4 GT PUSH2 0x105C JUMPI JUMPDEST POP POP POP POP POP SWAP2 POP POP SWAP2 SWAP1 POP JUMP JUMPDEST PUSH1 0x0 PUSH1 0x1 DUP3 PUSH1 0x40 MLOAD PUSH2 0x10C5 SWAP2 SWAP1 PUSH2 0x1D31 JUMP JUMPDEST SWAP1 DUP2 MSTORE PUSH1 0x20 ADD PUSH1 0x40 MLOAD DUP1 SWAP2 SUB SWAP1 KECCAK256 SWAP1 POP CALLER PUSH20 0xFFFFFFFFFFFFFFFFFFFFFFFFFFFFFFFFFFFFFFFF AND DUP2 PUSH1 0x0 ADD PUSH1 0x0 SWAP1 SLOAD SWAP1 PUSH2 0x100 EXP SWAP1 DIV PUSH20 0xFFFFFFFFFFFFFFFFFFFFFFFFFFFFFFFFFFFFFFFF AND PUSH20 0xFFFFFFFFFFFFFFFFFFFFFFFFFFFFFFFFFFFFFFFF AND EQ PUSH2 0x1167 JUMPI PUSH1 0x40 MLOAD PUSH32 0x8C379A000000000000000000000000000000000000000000000000000000000 DUP2 MSTORE PUSH1 0x4 ADD PUSH2 0x115E SWAP1 PUSH2 0x225C JUMP JUMPDEST PUSH1 0x40 MLOAD DUP1 SWAP2 SUB SWAP1 REVERT JUMPDEST DUP1 PUSH1 0x2 ADD PUSH1 0x18 SWAP1 SLOAD SWAP1 PUSH2 0x100 EXP SWAP1 DIV PUSH1 0xFF AND ISZERO DUP2 PUSH1 0x2 ADD PUSH1 0x18 PUSH2 0x100 EXP DUP2 SLOAD DUP2 PUSH1 0xFF MUL NOT AND SWAP1 DUP4 ISZERO ISZERO MUL OR SWAP1 SSTORE POP POP POP JUMP JUMPDEST PUSH1 0x0 DUP1 PUSH1 0x0 DUP1 PUSH1 0x41 DUP6 MLOAD EQ PUSH2 0x11B4 JUMPI PUSH1 0x0 SWAP4 POP POP POP POP PUSH2 0x128C JUMP JUMPDEST PUSH1 0x20 DUP6 ADD MLOAD SWAP3 POP PUSH1 0x40 DUP6 ADD MLOAD SWAP2 POP PUSH1 0x60 DUP6 ADD MLOAD PUSH1 0x0 BYTE SWAP1 POP PUSH1 0x1B DUP2 PUSH1 0xFF AND LT ISZERO PUSH2 0x11E8 JUMPI PUSH1 0x1B DUP2 PUSH2 0x11E5 SWAP2 SWAP1 PUSH2 0x2289 JUMP JUMPDEST SWAP1 POP JUMPDEST PUSH1 0x1B DUP2 PUSH1 0xFF AND EQ ISZERO DUP1 ISZERO PUSH2 0x1200 JUMPI POP PUSH1 0x1C DUP2 PUSH1 0xFF AND EQ ISZERO JUMPDEST ISZERO PUSH2 0x1211 JUMPI PUSH1 0x0 SWAP4 POP POP POP POP PUSH2 0x128C JUMP JUMPDEST PUSH1 0x1 DUP7 PUSH1 0x40 MLOAD PUSH1 0x20 ADD PUSH2 0x1224 SWAP2 SWAP1 PUSH2 0x232D JUMP JUMPDEST PUSH1 0x40 MLOAD PUSH1 0x20 DUP2 DUP4 SUB SUB DUP2 MSTORE SWAP1 PUSH1 0x40 MSTORE DUP1 MLOAD SWAP1 PUSH1 0x20 ADD KECCAK256 DUP3 DUP6 DUP6 PUSH1 0x40 MLOAD PUSH1 0x0 DUP2 MSTORE PUSH1 0x20 ADD PUSH1 0x40 MSTORE PUSH1 0x40 MLOAD PUSH2 0x125A SWAP5 SWAP4 SWAP3 SWAP2 SWAP1 PUSH2 0x2362 JUMP JUMPDEST PUSH1 0x20 PUSH1 0x40 MLOAD PUSH1 0x20 DUP2 SUB SWAP1 DUP1 DUP5 SUB SWAP1 DUP6 GAS STATICCALL ISZERO DUP1 ISZERO PUSH2 0x127C JUMPI RETURNDATASIZE PUSH1 0x0 DUP1 RETURNDATACOPY RETURNDATASIZE PUSH1 0x0 REVERT JUMPDEST POP POP POP PUSH1 0x20 PUSH1 0x40 MLOAD SUB MLOAD SWAP4 POP POP POP POP JUMPDEST SWAP3 SWAP2 POP POP JUMP JUMPDEST PUSH1 0x0 DUP1 PUSH1 0x1 DUP5 PUSH1 0x40 MLOAD PUSH2 0x12A5 SWAP2 SWAP1 PUSH2 0x1D31 JUMP JUMPDEST SWAP1 DUP2 MSTORE PUSH1 0x20 ADD PUSH1 0x40 MLOAD DUP1 SWAP2 SUB SWAP1 KECCAK256 SWAP1 POP PUSH1 0x1 DUP2 PUSH1 0x4 ADD PUSH1 0x0 DUP6 PUSH20 0xFFFFFFFFFFFFFFFFFFFFFFFFFFFFFFFFFFFFFFFF AND PUSH20 0xFFFFFFFFFFFFFFFFFFFFFFFFFFFFFFFFFFFFFFFF AND DUP2 MSTORE PUSH1 0x20 ADD SWAP1 DUP2 MSTORE PUSH1 0x20 ADD PUSH1 0x0 KECCAK256 PUSH1 0x0 PUSH2 0x100 EXP DUP2 SLOAD DUP2 PUSH1 0xFF MUL NOT AND SWAP1 DUP4 ISZERO ISZERO MUL OR SWAP1 SSTORE POP DUP1 PUSH1 0x5 ADD PUSH1 0x0 DUP7 PUSH20 0xFFFFFFFFFFFFFFFFFFFFFFFFFFFFFFFFFFFFFFFF AND PUSH20 0xFFFFFFFFFFFFFFFFFFFFFFFFFFFFFFFFFFFFFFFF AND DUP2 MSTORE PUSH1 0x20 ADD SWAP1 DUP2 MSTORE PUSH1 0x20 ADD PUSH1 0x0 KECCAK256 PUSH1 0x0 DUP2 SLOAD DUP1 SWAP3 SWAP2 SWAP1 PUSH2 0x1361 SWAP1 PUSH2 0x1F90 JUMP JUMPDEST SWAP2 SWAP1 POP SSTORE POP DUP1 PUSH1 0x5 ADD PUSH1 0x0 DUP7 PUSH20 0xFFFFFFFFFFFFFFFFFFFFFFFFFFFFFFFFFFFFFFFF AND PUSH20 0xFFFFFFFFFFFFFFFFFFFFFFFFFFFFFFFFFFFFFFFF AND DUP2 MSTORE PUSH1 0x20 ADD SWAP1 DUP2 MSTORE PUSH1 0x20 ADD PUSH1 0x0 KECCAK256 SLOAD SWAP2 POP POP SWAP4 SWAP3 POP POP POP JUMP JUMPDEST PUSH1 0x0 PUSH1 0x40 MLOAD SWAP1 POP SWAP1 JUMP JUMPDEST PUSH1 0x0 DUP1 REVERT JUMPDEST PUSH1 0x0 DUP1 REVERT JUMPDEST PUSH1 0x0 DUP1 REVERT JUMPDEST PUSH1 0x0 DUP1 REVERT JUMPDEST PUSH1 0x0 PUSH1 0x1F NOT PUSH1 0x1F DUP4 ADD AND SWAP1 POP SWAP2 SWAP1 POP JUMP JUMPDEST PUSH32 0x4E487B7100000000000000000000000000000000000000000000000000000000 PUSH1 0x0 MSTORE PUSH1 0x41 PUSH1 0x4 MSTORE PUSH1 0x24 PUSH1 0x0 REVERT JUMPDEST PUSH2 0x1419 DUP3 PUSH2 0x13D0 JUMP JUMPDEST DUP2 ADD DUP2 DUP2 LT PUSH8 0xFFFFFFFFFFFFFFFF DUP3 GT OR ISZERO PUSH2 0x1438 JUMPI PUSH2 0x1437 PUSH2 0x13E1 JUMP JUMPDEST JUMPDEST DUP1 PUSH1 0x40 MSTORE POP POP POP JUMP JUMPDEST PUSH1 0x0 PUSH2 0x144B PUSH2 0x13B2 JUMP JUMPDEST SWAP1 POP PUSH2 0x1457 DUP3 DUP3 PUSH2 0x1410 JUMP JUMPDEST SWAP2 SWAP1 POP JUMP JUMPDEST PUSH1 0x0 PUSH8 0xFFFFFFFFFFFFFFFF DUP3 GT ISZERO PUSH2 0x1477 JUMPI PUSH2 0x1476 PUSH2 0x13E1 JUMP JUMPDEST JUMPDEST PUSH2 0x1480 DUP3 PUSH2 0x13D0 JUMP JUMPDEST SWAP1 POP PUSH1 0x20 DUP2 ADD SWAP1 POP SWAP2 SWAP1 POP JUMP JUMPDEST DUP3 DUP2 DUP4 CALLDATACOPY PUSH1 0x0 DUP4 DUP4 ADD MSTORE POP POP POP JUMP JUMPDEST PUSH1 0x0 PUSH2 0x14AF PUSH2 0x14AA DUP5 PUSH2 0x145C JUMP JUMPDEST PUSH2 0x1441 JUMP JUMPDEST SWAP1 POP DUP3 DUP2 MSTORE PUSH1 0x20 DUP2 ADD DUP5 DUP5 DUP5 ADD GT ISZERO PUSH2 0x14CB JUMPI PUSH2 0x14CA PUSH2 0x13CB JUMP JUMPDEST JUMPDEST PUSH2 0x14D6 DUP5 DUP3 DUP6 PUSH2 0x148D JUMP JUMPDEST POP SWAP4 SWAP3 POP POP POP JUMP JUMPDEST PUSH1 0x0 DUP3 PUSH1 0x1F DUP4 ADD SLT PUSH2 0x14F3 JUMPI PUSH2 0x14F2 PUSH2 0x13C6 JUMP JUMPDEST JUMPDEST DUP2 CALLDATALOAD PUSH2 0x1503 DUP5 DUP3 PUSH1 0x20 DUP7 ADD PUSH2 0x149C JUMP JUMPDEST SWAP2 POP POP SWAP3 SWAP2 POP POP JUMP JUMPDEST PUSH1 0x0 DUP2 SWAP1 POP SWAP2 SWAP1 POP JUMP JUMPDEST PUSH2 0x151F DUP2 PUSH2 0x150C JUMP JUMPDEST DUP2 EQ PUSH2 0x152A JUMPI PUSH1 0x0 DUP1 REVERT JUMPDEST POP JUMP JUMPDEST PUSH1 0x0 DUP2 CALLDATALOAD SWAP1 POP PUSH2 0x153C DUP2 PUSH2 0x1516 JUMP JUMPDEST SWAP3 SWAP2 POP POP JUMP JUMPDEST PUSH1 0x0 PUSH2 0xFFFF DUP3 AND SWAP1 POP SWAP2 SWAP1 POP JUMP JUMPDEST PUSH2 0x1559 DUP2 PUSH2 0x1542 JUMP JUMPDEST DUP2 EQ PUSH2 0x1564 JUMPI PUSH1 0x0 DUP1 REVERT JUMPDEST POP JUMP JUMPDEST PUSH1 0x0 DUP2 CALLDATALOAD SWAP1 POP PUSH2 0x1576 DUP2 PUSH2 0x1550 JUMP JUMPDEST SWAP3 SWAP2 POP POP JUMP JUMPDEST PUSH1 0x0 DUP1 PUSH1 0x0 PUSH1 0x60 DUP5 DUP7 SUB SLT ISZERO PUSH2 0x1595 JUMPI PUSH2 0x1594 PUSH2 0x13BC JUMP JUMPDEST JUMPDEST PUSH1 0x0 DUP5 ADD CALLDATALOAD PUSH8 0xFFFFFFFFFFFFFFFF DUP2 GT ISZERO PUSH2 0x15B3 JUMPI PUSH2 0x15B2 PUSH2 0x13C1 JUMP JUMPDEST JUMPDEST PUSH2 0x15BF DUP7 DUP3 DUP8 ADD PUSH2 0x14DE JUMP JUMPDEST SWAP4 POP POP PUSH1 0x20 PUSH2 0x15D0 DUP7 DUP3 DUP8 ADD PUSH2 0x152D JUMP JUMPDEST SWAP3 POP POP PUSH1 0x40 PUSH2 0x15E1 DUP7 DUP3 DUP8 ADD PUSH2 0x1567 JUMP JUMPDEST SWAP2 POP POP SWAP3 POP SWAP3 POP SWAP3 JUMP JUMPDEST PUSH1 0x0 DUP2 MLOAD SWAP1 POP SWAP2 SWAP1 POP JUMP JUMPDEST PUSH1 0x0 DUP3 DUP3 MSTORE PUSH1 0x20 DUP3 ADD SWAP1 POP SWAP3 SWAP2 POP POP JUMP JUMPDEST PUSH1 0x0 JUMPDEST DUP4 DUP2 LT ISZERO PUSH2 0x1625 JUMPI DUP1 DUP3 ADD MLOAD DUP2 DUP5 ADD MSTORE PUSH1 0x20 DUP2 ADD SWAP1 POP PUSH2 0x160A JUMP JUMPDEST DUP4 DUP2 GT ISZERO PUSH2 0x1634 JUMPI PUSH1 0x0 DUP5 DUP5 ADD MSTORE JUMPDEST POP POP POP POP JUMP JUMPDEST PUSH1 0x0 PUSH2 0x1645 DUP3 PUSH2 0x15EB JUMP JUMPDEST PUSH2 0x164F DUP2 DUP6 PUSH2 0x15F6 JUMP JUMPDEST SWAP4 POP PUSH2 0x165F DUP2 DUP6 PUSH1 0x20 DUP7 ADD PUSH2 0x1607 JUMP JUMPDEST PUSH2 0x1668 DUP2 PUSH2 0x13D0 JUMP JUMPDEST DUP5 ADD SWAP2 POP POP SWAP3 SWAP2 POP POP JUMP JUMPDEST PUSH2 0x167C DUP2 PUSH2 0x150C JUMP JUMPDEST DUP3 MSTORE POP POP JUMP JUMPDEST PUSH1 0x0 PUSH1 0x60 DUP3 ADD SWAP1 POP DUP2 DUP2 SUB PUSH1 0x0 DUP4 ADD MSTORE PUSH2 0x169C DUP2 DUP7 PUSH2 0x163A JUMP JUMPDEST SWAP1 POP PUSH2 0x16AB PUSH1 0x20 DUP4 ADD DUP6 PUSH2 0x1673 JUMP JUMPDEST PUSH2 0x16B8 PUSH1 0x40 DUP4 ADD DUP5 PUSH2 0x1673 JUMP JUMPDEST SWAP5 SWAP4 POP POP POP POP JUMP JUMPDEST PUSH1 0x0 PUSH20 0xFFFFFFFFFFFFFFFFFFFFFFFFFFFFFFFFFFFFFFFF DUP3 AND SWAP1 POP SWAP2 SWAP1 POP JUMP JUMPDEST PUSH1 0x0 PUSH2 0x16EB DUP3 PUSH2 0x16C0 JUMP JUMPDEST SWAP1 POP SWAP2 SWAP1 POP JUMP JUMPDEST PUSH2 0x16FB DUP2 PUSH2 0x16E0 JUMP JUMPDEST DUP2 EQ PUSH2 0x1706 JUMPI PUSH1 0x0 DUP1 REVERT JUMPDEST POP JUMP JUMPDEST PUSH1 0x0 DUP2 CALLDATALOAD SWAP1 POP PUSH2 0x1718 DUP2 PUSH2 0x16F2 JUMP JUMPDEST SWAP3 SWAP2 POP POP JUMP JUMPDEST PUSH1 0x0 DUP1 PUSH1 0x0 DUP1 PUSH1 0x80 DUP6 DUP8 SUB SLT ISZERO PUSH2 0x1738 JUMPI PUSH2 0x1737 PUSH2 0x13BC JUMP JUMPDEST JUMPDEST PUSH1 0x0 PUSH2 0x1746 DUP8 DUP3 DUP9 ADD PUSH2 0x1709 JUMP JUMPDEST SWAP5 POP POP PUSH1 0x20 DUP6 ADD CALLDATALOAD PUSH8 0xFFFFFFFFFFFFFFFF DUP2 GT ISZERO PUSH2 0x1767 JUMPI PUSH2 0x1766 PUSH2 0x13C1 JUMP JUMPDEST JUMPDEST PUSH2 0x1773 DUP8 DUP3 DUP9 ADD PUSH2 0x14DE JUMP JUMPDEST SWAP4 POP POP PUSH1 0x40 PUSH2 0x1784 DUP8 DUP3 DUP9 ADD PUSH2 0x152D JUMP JUMPDEST SWAP3 POP POP PUSH1 0x60 PUSH2 0x1795 DUP8 DUP3 DUP9 ADD PUSH2 0x152D JUMP JUMPDEST SWAP2 POP POP SWAP3 SWAP6 SWAP2 SWAP5 POP SWAP3 POP JUMP JUMPDEST PUSH1 0x0 DUP2 SWAP1 POP SWAP2 SWAP1 POP JUMP JUMPDEST PUSH2 0x17B4 DUP2 PUSH2 0x17A1 JUMP JUMPDEST DUP3 MSTORE POP POP JUMP JUMPDEST PUSH1 0x0 PUSH1 0x20 DUP3 ADD SWAP1 POP PUSH2 0x17CF PUSH1 0x0 DUP4 ADD DUP5 PUSH2 0x17AB JUMP JUMPDEST SWAP3 SWAP2 POP POP JUMP JUMPDEST PUSH1 0x0 PUSH8 0xFFFFFFFFFFFFFFFF DUP3 GT ISZERO PUSH2 0x17F0 JUMPI PUSH2 0x17EF PUSH2 0x13E1 JUMP JUMPDEST JUMPDEST PUSH2 0x17F9 DUP3 PUSH2 0x13D0 JUMP JUMPDEST SWAP1 POP PUSH1 0x20 DUP2 ADD SWAP1 POP SWAP2 SWAP1 POP JUMP JUMPDEST PUSH1 0x0 PUSH2 0x1819 PUSH2 0x1814 DUP5 PUSH2 0x17D5 JUMP JUMPDEST PUSH2 0x1441 JUMP JUMPDEST SWAP1 POP DUP3 DUP2 MSTORE PUSH1 0x20 DUP2 ADD DUP5 DUP5 DUP5 ADD GT ISZERO PUSH2 0x1835 JUMPI PUSH2 0x1834 PUSH2 0x13CB JUMP JUMPDEST JUMPDEST PUSH2 0x1840 DUP5 DUP3 DUP6 PUSH2 0x148D JUMP JUMPDEST POP SWAP4 SWAP3 POP POP POP JUMP JUMPDEST PUSH1 0x0 DUP3 PUSH1 0x1F DUP4 ADD SLT PUSH2 0x185D JUMPI PUSH2 0x185C PUSH2 0x13C6 JUMP JUMPDEST JUMPDEST DUP2 CALLDATALOAD PUSH2 0x186D DUP5 DUP3 PUSH1 0x20 DUP7 ADD PUSH2 0x1806 JUMP JUMPDEST SWAP2 POP POP SWAP3 SWAP2 POP POP JUMP JUMPDEST PUSH1 0x0 DUP1 PUSH1 0x0 DUP1 PUSH1 0x80 DUP6 DUP8 SUB SLT ISZERO PUSH2 0x1890 JUMPI PUSH2 0x188F PUSH2 0x13BC JUMP JUMPDEST JUMPDEST PUSH1 0x0 PUSH2 0x189E DUP8 DUP3 DUP9 ADD PUSH2 0x1709 JUMP JUMPDEST SWAP5 POP POP PUSH1 0x20 DUP6 ADD CALLDATALOAD PUSH8 0xFFFFFFFFFFFFFFFF DUP2 GT ISZERO PUSH2 0x18BF JUMPI PUSH2 0x18BE PUSH2 0x13C1 JUMP JUMPDEST JUMPDEST PUSH2 0x18CB DUP8 DUP3 DUP9 ADD PUSH2 0x14DE JUMP JUMPDEST SWAP4 POP POP PUSH1 0x40 PUSH2 0x18DC DUP8 DUP3 DUP9 ADD PUSH2 0x152D JUMP JUMPDEST SWAP3 POP POP PUSH1 0x60 DUP6 ADD CALLDATALOAD PUSH8 0xFFFFFFFFFFFFFFFF DUP2 GT ISZERO PUSH2 0x18FD JUMPI PUSH2 0x18FC PUSH2 0x13C1 JUMP JUMPDEST JUMPDEST PUSH2 0x1909 DUP8 DUP3 DUP9 ADD PUSH2 0x1848 JUMP JUMPDEST SWAP2 POP POP SWAP3 SWAP6 SWAP2 SWAP5 POP SWAP3 POP JUMP JUMPDEST PUSH1 0x0 PUSH1 0x20 DUP3 DUP5 SUB SLT ISZERO PUSH2 0x192B JUMPI PUSH2 0x192A PUSH2 0x13BC JUMP JUMPDEST JUMPDEST PUSH1 0x0 DUP3 ADD CALLDATALOAD PUSH8 0xFFFFFFFFFFFFFFFF DUP2 GT ISZERO PUSH2 0x1949 JUMPI PUSH2 0x1948 PUSH2 0x13C1 JUMP JUMPDEST JUMPDEST PUSH2 0x1955 DUP5 DUP3 DUP6 ADD PUSH2 0x14DE JUMP JUMPDEST SWAP2 POP POP SWAP3 SWAP2 POP POP JUMP JUMPDEST PUSH1 0x0 DUP2 MLOAD SWAP1 POP SWAP2 SWAP1 POP JUMP JUMPDEST PUSH1 0x0 DUP3 DUP3 MSTORE PUSH1 0x20 DUP3 ADD SWAP1 POP SWAP3 SWAP2 POP POP JUMP JUMPDEST PUSH1 0x0 DUP2 SWAP1 POP PUSH1 0x20 DUP3 ADD SWAP1 POP SWAP2 SWAP1 POP JUMP JUMPDEST PUSH2 0x1993 DUP2 PUSH2 0x150C JUMP JUMPDEST DUP3 MSTORE POP POP JUMP JUMPDEST PUSH1 0x0 PUSH2 0x19A5 DUP4 DUP4 PUSH2 0x198A JUMP JUMPDEST PUSH1 0x20 DUP4 ADD SWAP1 POP SWAP3 SWAP2 POP POP JUMP JUMPDEST PUSH1 0x0 PUSH1 0x20 DUP3 ADD SWAP1 POP SWAP2 SWAP1 POP JUMP JUMPDEST PUSH1 0x0 PUSH2 0x19C9 DUP3 PUSH2 0x195E JUMP JUMPDEST PUSH2 0x19D3 DUP2 DUP6 PUSH2 0x1969 JUMP JUMPDEST SWAP4 POP PUSH2 0x19DE DUP4 PUSH2 0x197A JUMP JUMPDEST DUP1 PUSH1 0x0 JUMPDEST DUP4 DUP2 LT ISZERO PUSH2 0x1A0F JUMPI DUP2 MLOAD PUSH2 0x19F6 DUP9 DUP3 PUSH2 0x1999 JUMP JUMPDEST SWAP8 POP PUSH2 0x1A01 DUP4 PUSH2 0x19B1 JUMP JUMPDEST SWAP3 POP POP PUSH1 0x1 DUP2 ADD SWAP1 POP PUSH2 0x19E2 JUMP JUMPDEST POP DUP6 SWAP4 POP POP POP POP SWAP3 SWAP2 POP POP JUMP JUMPDEST PUSH2 0x1A25 DUP2 PUSH2 0x16E0 JUMP JUMPDEST DUP3 MSTORE POP POP JUMP JUMPDEST PUSH1 0x0 PUSH1 0x60 DUP3 ADD SWAP1 POP DUP2 DUP2 SUB PUSH1 0x0 DUP4 ADD MSTORE PUSH2 0x1A45 DUP2 DUP7 PUSH2 0x19BE JUMP JUMPDEST SWAP1 POP PUSH2 0x1A54 PUSH1 0x20 DUP4 ADD DUP6 PUSH2 0x1A1C JUMP JUMPDEST PUSH2 0x1A61 PUSH1 0x40 DUP4 ADD DUP5 PUSH2 0x1673 JUMP JUMPDEST SWAP5 SWAP4 POP POP POP POP JUMP JUMPDEST PUSH1 0x0 DUP1 PUSH1 0x40 DUP4 DUP6 SUB SLT ISZERO PUSH2 0x1A80 JUMPI PUSH2 0x1A7F PUSH2 0x13BC JUMP JUMPDEST JUMPDEST PUSH1 0x0 PUSH2 0x1A8E DUP6 DUP3 DUP7 ADD PUSH2 0x1709 JUMP JUMPDEST SWAP3 POP POP PUSH1 0x20 DUP4 ADD CALLDATALOAD PUSH8 0xFFFFFFFFFFFFFFFF DUP2 GT ISZERO PUSH2 0x1AAF JUMPI PUSH2 0x1AAE PUSH2 0x13C1 JUMP JUMPDEST JUMPDEST PUSH2 0x1ABB DUP6 DUP3 DUP7 ADD PUSH2 0x14DE JUMP JUMPDEST SWAP2 POP POP SWAP3 POP SWAP3 SWAP1 POP JUMP JUMPDEST PUSH2 0x1ACE DUP2 PUSH2 0x1542 JUMP JUMPDEST DUP3 MSTORE POP POP JUMP JUMPDEST PUSH1 0x0 PUSH4 0xFFFFFFFF DUP3 AND SWAP1 POP SWAP2 SWAP1 POP JUMP JUMPDEST PUSH2 0x1AED DUP2 PUSH2 0x1AD4 JUMP JUMPDEST DUP3 MSTORE POP POP JUMP JUMPDEST PUSH1 0x0 PUSH8 0xFFFFFFFFFFFFFFFF DUP3 AND SWAP1 POP SWAP2 SWAP1 POP JUMP JUMPDEST PUSH2 0x1B10 DUP2 PUSH2 0x1AF3 JUMP JUMPDEST DUP3 MSTORE POP POP JUMP JUMPDEST PUSH1 0x0 DUP2 ISZERO ISZERO SWAP1 POP SWAP2 SWAP1 POP JUMP JUMPDEST PUSH2 0x1B2B DUP2 PUSH2 0x1B16 JUMP JUMPDEST DUP3 MSTORE POP POP JUMP JUMPDEST PUSH1 0x0 PUSH1 0xE0 DUP3 ADD SWAP1 POP PUSH2 0x1B46 PUSH1 0x0 DUP4 ADD DUP11 PUSH2 0x1A1C JUMP JUMPDEST PUSH2 0x1B53 PUSH1 0x20 DUP4 ADD DUP10 PUSH2 0x1AC5 JUMP JUMPDEST PUSH2 0x1B60 PUSH1 0x40 DUP4 ADD DUP9 PUSH2 0x1AE4 JUMP JUMPDEST PUSH2 0x1B6D PUSH1 0x60 DUP4 ADD DUP8 PUSH2 0x1B07 JUMP JUMPDEST PUSH2 0x1B7A PUSH1 0x80 DUP4 ADD DUP7 PUSH2 0x1B07 JUMP JUMPDEST PUSH2 0x1B87 PUSH1 0xA0 DUP4 ADD DUP6 PUSH2 0x1AC5 JUMP JUMPDEST PUSH2 0x1B94 PUSH1 0xC0 DUP4 ADD DUP5 PUSH2 0x1B22 JUMP JUMPDEST SWAP9 SWAP8 POP POP POP POP POP POP POP POP JUMP JUMPDEST PUSH1 0x0 PUSH1 0x20 DUP3 DUP5 SUB SLT ISZERO PUSH2 0x1BB6 JUMPI PUSH2 0x1BB5 PUSH2 0x13BC JUMP JUMPDEST JUMPDEST PUSH1 0x0 PUSH2 0x1BC4 DUP5 DUP3 DUP6 ADD PUSH2 0x1709 JUMP JUMPDEST SWAP2 POP POP SWAP3 SWAP2 POP POP JUMP JUMPDEST PUSH1 0x0 PUSH1 0x20 DUP3 ADD SWAP1 POP PUSH2 0x1BE2 PUSH1 0x0 DUP4 ADD DUP5 PUSH2 0x1673 JUMP JUMPDEST SWAP3 SWAP2 POP POP JUMP JUMPDEST PUSH1 0x0 PUSH1 0x20 DUP3 DUP5 SUB SLT ISZERO PUSH2 0x1BFE JUMPI PUSH2 0x1BFD PUSH2 0x13BC JUMP JUMPDEST JUMPDEST PUSH1 0x0 PUSH2 0x1C0C DUP5 DUP3 DUP6 ADD PUSH2 0x152D JUMP JUMPDEST SWAP2 POP POP SWAP3 SWAP2 POP POP JUMP JUMPDEST PUSH1 0x0 DUP2 MLOAD SWAP1 POP SWAP2 SWAP1 POP JUMP JUMPDEST PUSH1 0x0 DUP3 DUP3 MSTORE PUSH1 0x20 DUP3 ADD SWAP1 POP SWAP3 SWAP2 POP POP JUMP JUMPDEST PUSH1 0x0 DUP2 SWAP1 POP PUSH1 0x20 DUP3 ADD SWAP1 POP SWAP2 SWAP1 POP JUMP JUMPDEST PUSH2 0x1C4A DUP2 PUSH2 0x16E0 JUMP JUMPDEST DUP3 MSTORE POP POP JUMP JUMPDEST PUSH1 0x0 PUSH2 0x1C5C DUP4 DUP4 PUSH2 0x1C41 JUMP JUMPDEST PUSH1 0x20 DUP4 ADD SWAP1 POP SWAP3 SWAP2 POP POP JUMP JUMPDEST PUSH1 0x0 PUSH1 0x20 DUP3 ADD SWAP1 POP SWAP2 SWAP1 POP JUMP JUMPDEST PUSH1 0x0 PUSH2 0x1C80 DUP3 PUSH2 0x1C15 JUMP JUMPDEST PUSH2 0x1C8A DUP2 DUP6 PUSH2 0x1C20 JUMP JUMPDEST SWAP4 POP PUSH2 0x1C95 DUP4 PUSH2 0x1C31 JUMP JUMPDEST DUP1 PUSH1 0x0 JUMPDEST DUP4 DUP2 LT ISZERO PUSH2 0x1CC6 JUMPI DUP2 MLOAD PUSH2 0x1CAD DUP9 DUP3 PUSH2 0x1C50 JUMP JUMPDEST SWAP8 POP PUSH2 0x1CB8 DUP4 PUSH2 0x1C68 JUMP JUMPDEST SWAP3 POP POP PUSH1 0x1 DUP2 ADD SWAP1 POP PUSH2 0x1C99 JUMP JUMPDEST POP DUP6 SWAP4 POP POP POP POP SWAP3 SWAP2 POP POP JUMP JUMPDEST PUSH1 0x0 PUSH1 0x20 DUP3 ADD SWAP1 POP DUP2 DUP2 SUB PUSH1 0x0 DUP4 ADD MSTORE PUSH2 0x1CED DUP2 DUP5 PUSH2 0x1C75 JUMP JUMPDEST SWAP1 POP SWAP3 SWAP2 POP POP JUMP JUMPDEST PUSH1 0x0 DUP2 SWAP1 POP SWAP3 SWAP2 POP POP JUMP JUMPDEST PUSH1 0x0 PUSH2 0x1D0B DUP3 PUSH2 0x15EB JUMP JUMPDEST PUSH2 0x1D15 DUP2 DUP6 PUSH2 0x1CF5 JUMP JUMPDEST SWAP4 POP PUSH2 0x1D25 DUP2 DUP6 PUSH1 0x20 DUP7 ADD PUSH2 0x1607 JUMP JUMPDEST DUP1 DUP5 ADD SWAP2 POP POP SWAP3 SWAP2 POP POP JUMP JUMPDEST PUSH1 0x0 PUSH2 0x1D3D DUP3 DUP5 PUSH2 0x1D00 JUMP JUMPDEST SWAP2 POP DUP2 SWAP1 POP SWAP3 SWAP2 POP POP JUMP JUMPDEST PUSH1 0x0 DUP2 PUSH1 0x60 SHL SWAP1 POP SWAP2 SWAP1 POP JUMP JUMPDEST PUSH1 0x0 PUSH2 0x1D60 DUP3 PUSH2 0x1D48 JUMP JUMPDEST SWAP1 POP SWAP2 SWAP1 POP JUMP JUMPDEST PUSH1 0x0 PUSH2 0x1D72 DUP3 PUSH2 0x1D55 JUMP JUMPDEST SWAP1 POP SWAP2 SWAP1 POP JUMP JUMPDEST PUSH2 0x1D8A PUSH2 0x1D85 DUP3 PUSH2 0x16E0 JUMP JUMPDEST PUSH2 0x1D67 JUMP JUMPDEST DUP3 MSTORE POP POP JUMP JUMPDEST PUSH32 0x6D6574617472616E73616374696F6E20566F74696E6720000000000000000000 PUSH1 0x0 DUP3 ADD MSTORE POP JUMP JUMPDEST PUSH1 0x0 PUSH2 0x1DC6 PUSH1 0x17 DUP4 PUSH2 0x1CF5 JUMP JUMPDEST SWAP2 POP PUSH2 0x1DD1 DUP3 PUSH2 0x1D90 JUMP JUMPDEST PUSH1 0x17 DUP3 ADD SWAP1 POP SWAP2 SWAP1 POP JUMP JUMPDEST PUSH1 0x0 DUP2 SWAP1 POP SWAP2 SWAP1 POP JUMP JUMPDEST PUSH2 0x1DF7 PUSH2 0x1DF2 DUP3 PUSH2 0x150C JUMP JUMPDEST PUSH2 0x1DDC JUMP JUMPDEST DUP3 MSTORE POP POP JUMP JUMPDEST PUSH1 0x0 PUSH2 0x1E09 DUP3 DUP9 PUSH2 0x1D79 JUMP JUMPDEST PUSH1 0x14 DUP3 ADD SWAP2 POP PUSH2 0x1E18 DUP3 PUSH2 0x1DB9 JUMP JUMPDEST SWAP2 POP PUSH2 0x1E24 DUP3 DUP8 PUSH2 0x1D79 JUMP JUMPDEST PUSH1 0x14 DUP3 ADD SWAP2 POP PUSH2 0x1E34 DUP3 DUP7 PUSH2 0x1D00 JUMP JUMPDEST SWAP2 POP PUSH2 0x1E40 DUP3 DUP6 PUSH2 0x1DE6 JUMP JUMPDEST PUSH1 0x20 DUP3 ADD SWAP2 POP PUSH2 0x1E50 DUP3 DUP5 PUSH2 0x1DE6 JUMP JUMPDEST PUSH1 0x20 DUP3 ADD SWAP2 POP DUP2 SWAP1 POP SWAP7 SWAP6 POP POP POP POP POP POP JUMP JUMPDEST PUSH32 0x54686973206164647265737320646F6573206E6F742065786973742061732061 PUSH1 0x0 DUP3 ADD MSTORE PUSH32 0x2063616E64696461746500000000000000000000000000000000000000000000 PUSH1 0x20 DUP3 ADD MSTORE POP JUMP JUMPDEST PUSH1 0x0 PUSH2 0x1EBF PUSH1 0x2A DUP4 PUSH2 0x15F6 JUMP JUMPDEST SWAP2 POP PUSH2 0x1ECA DUP3 PUSH2 0x1E63 JUMP JUMPDEST PUSH1 0x40 DUP3 ADD SWAP1 POP SWAP2 SWAP1 POP JUMP JUMPDEST PUSH1 0x0 PUSH1 0x20 DUP3 ADD SWAP1 POP DUP2 DUP2 SUB PUSH1 0x0 DUP4 ADD MSTORE PUSH2 0x1EEE DUP2 PUSH2 0x1EB2 JUMP JUMPDEST SWAP1 POP SWAP2 SWAP1 POP JUMP JUMPDEST PUSH32 0x766F74696E672068617320656E64656400000000000000000000000000000000 PUSH1 0x0 DUP3 ADD MSTORE POP JUMP JUMPDEST PUSH1 0x0 PUSH2 0x1F2B PUSH1 0x10 DUP4 PUSH2 0x15F6 JUMP JUMPDEST SWAP2 POP PUSH2 0x1F36 DUP3 PUSH2 0x1EF5 JUMP JUMPDEST PUSH1 0x20 DUP3 ADD SWAP1 POP SWAP2 SWAP1 POP JUMP JUMPDEST PUSH1 0x0 PUSH1 0x20 DUP3 ADD SWAP1 POP DUP2 DUP2 SUB PUSH1 0x0 DUP4 ADD MSTORE PUSH2 0x1F5A DUP2 PUSH2 0x1F1E JUMP JUMPDEST SWAP1 POP SWAP2 SWAP1 POP JUMP JUMPDEST PUSH32 0x4E487B7100000000000000000000000000000000000000000000000000000000 PUSH1 0x0 MSTORE PUSH1 0x11 PUSH1 0x4 MSTORE PUSH1 0x24 PUSH1 0x0 REVERT JUMPDEST PUSH1 0x0 PUSH2 0x1F9B DUP3 PUSH2 0x150C JUMP JUMPDEST SWAP2 POP PUSH32 0xFFFFFFFFFFFFFFFFFFFFFFFFFFFFFFFFFFFFFFFFFFFFFFFFFFFFFFFFFFFFFFFF DUP3 EQ ISZERO PUSH2 0x1FCE JUMPI PUSH2 0x1FCD PUSH2 0x1F61 JUMP JUMPDEST JUMPDEST PUSH1 0x1 DUP3 ADD SWAP1 POP SWAP2 SWAP1 POP JUMP JUMPDEST PUSH32 0x596F7520616C726561647920766F746564000000000000000000000000000000 PUSH1 0x0 DUP3 ADD MSTORE POP JUMP JUMPDEST PUSH1 0x0 PUSH2 0x200F PUSH1 0x11 DUP4 PUSH2 0x15F6 JUMP JUMPDEST SWAP2 POP PUSH2 0x201A DUP3 PUSH2 0x1FD9 JUMP JUMPDEST PUSH1 0x20 DUP3 ADD SWAP1 POP SWAP2 SWAP1 POP JUMP JUMPDEST PUSH1 0x0 PUSH1 0x20 DUP3 ADD SWAP1 POP DUP2 DUP2 SUB PUSH1 0x0 DUP4 ADD MSTORE PUSH2 0x203E DUP2 PUSH2 0x2002 JUMP JUMPDEST SWAP1 POP SWAP2 SWAP1 POP JUMP JUMPDEST PUSH1 0x0 PUSH1 0x40 DUP3 ADD SWAP1 POP PUSH2 0x205A PUSH1 0x0 DUP4 ADD DUP6 PUSH2 0x1A1C JUMP JUMPDEST PUSH2 0x2067 PUSH1 0x20 DUP4 ADD DUP5 PUSH2 0x1B22 JUMP JUMPDEST SWAP4 SWAP3 POP POP POP JUMP JUMPDEST PUSH32 0x4E487B7100000000000000000000000000000000000000000000000000000000 PUSH1 0x0 MSTORE PUSH1 0x32 PUSH1 0x4 MSTORE PUSH1 0x24 PUSH1 0x0 REVERT JUMPDEST PUSH32 0x79657420746F20637265617465206120706F6C6C000000000000000000000000 PUSH1 0x0 DUP3 ADD MSTORE POP JUMP JUMPDEST PUSH1 0x0 PUSH2 0x20D3 PUSH1 0x14 DUP4 PUSH2 0x15F6 JUMP JUMPDEST SWAP2 POP PUSH2 0x20DE DUP3 PUSH2 0x209D JUMP JUMPDEST PUSH1 0x20 DUP3 ADD SWAP1 POP SWAP2 SWAP1 POP JUMP JUMPDEST PUSH1 0x0 PUSH1 0x20 DUP3 ADD SWAP1 POP DUP2 DUP2 SUB PUSH1 0x0 DUP4 ADD MSTORE PUSH2 0x2102 DUP2 PUSH2 0x20C6 JUMP JUMPDEST SWAP1 POP SWAP2 SWAP1 POP JUMP JUMPDEST PUSH32 0x4E487B7100000000000000000000000000000000000000000000000000000000 PUSH1 0x0 MSTORE PUSH1 0x1 PUSH1 0x4 MSTORE PUSH1 0x24 PUSH1 0x0 REVERT JUMPDEST PUSH32 0x6D6178696D756D206E6F206F662063616E646964617465207065722073657373 PUSH1 0x0 DUP3 ADD MSTORE PUSH32 0x696F6E2072656769737465726564000000000000000000000000000000000000 PUSH1 0x20 DUP3 ADD MSTORE POP JUMP JUMPDEST PUSH1 0x0 PUSH2 0x2194 PUSH1 0x2E DUP4 PUSH2 0x15F6 JUMP JUMPDEST SWAP2 POP PUSH2 0x219F DUP3 PUSH2 0x2138 JUMP JUMPDEST PUSH1 0x40 DUP3 ADD SWAP1 POP SWAP2 SWAP1 POP JUMP JUMPDEST PUSH1 0x0 PUSH1 0x20 DUP3 ADD SWAP1 POP DUP2 DUP2 SUB PUSH1 0x0 DUP4 ADD MSTORE PUSH2 0x21C3 DUP2 PUSH2 0x2187 JUMP JUMPDEST SWAP1 POP SWAP2 SWAP1 POP JUMP JUMPDEST PUSH1 0x0 PUSH2 0x21D5 DUP3 PUSH2 0x1542 JUMP JUMPDEST SWAP2 POP PUSH2 0xFFFF DUP3 EQ ISZERO PUSH2 0x21EA JUMPI PUSH2 0x21E9 PUSH2 0x1F61 JUMP JUMPDEST JUMPDEST PUSH1 0x1 DUP3 ADD SWAP1 POP SWAP2 SWAP1 POP JUMP JUMPDEST PUSH1 0x0 PUSH1 0x20 DUP3 ADD SWAP1 POP PUSH2 0x220A PUSH1 0x0 DUP4 ADD DUP5 PUSH2 0x1A1C JUMP JUMPDEST SWAP3 SWAP2 POP POP JUMP JUMPDEST PUSH32 0x6E6F74207468652063686169726D616E00000000000000000000000000000000 PUSH1 0x0 DUP3 ADD MSTORE POP JUMP JUMPDEST PUSH1 0x0 PUSH2 0x2246 PUSH1 0x10 DUP4 PUSH2 0x15F6 JUMP JUMPDEST SWAP2 POP PUSH2 0x2251 DUP3 PUSH2 0x2210 JUMP JUMPDEST PUSH1 0x20 DUP3 ADD SWAP1 POP SWAP2 SWAP1 POP JUMP JUMPDEST PUSH1 0x0 PUSH1 0x20 DUP3 ADD SWAP1 POP DUP2 DUP2 SUB PUSH1 0x0 DUP4 ADD MSTORE PUSH2 0x2275 DUP2 PUSH2 0x2239 JUMP JUMPDEST SWAP1 POP SWAP2 SWAP1 POP JUMP JUMPDEST PUSH1 0x0 PUSH1 0xFF DUP3 AND SWAP1 POP SWAP2 SWAP1 POP JUMP JUMPDEST PUSH1 0x0 PUSH2 0x2294 DUP3 PUSH2 0x227C JUMP JUMPDEST SWAP2 POP PUSH2 0x229F DUP4 PUSH2 0x227C JUMP JUMPDEST SWAP3 POP DUP3 PUSH1 0xFF SUB DUP3 GT ISZERO PUSH2 0x22B5 JUMPI PUSH2 0x22B4 PUSH2 0x1F61 JUMP JUMPDEST JUMPDEST DUP3 DUP3 ADD SWAP1 POP SWAP3 SWAP2 POP POP JUMP JUMPDEST PUSH32 0x19457468657265756D205369676E6564204D6573736167653A0A333200000000 PUSH1 0x0 DUP3 ADD MSTORE POP JUMP JUMPDEST PUSH1 0x0 PUSH2 0x22F6 PUSH1 0x1C DUP4 PUSH2 0x1CF5 JUMP JUMPDEST SWAP2 POP PUSH2 0x2301 DUP3 PUSH2 0x22C0 JUMP JUMPDEST PUSH1 0x1C DUP3 ADD SWAP1 POP SWAP2 SWAP1 POP JUMP JUMPDEST PUSH1 0x0 DUP2 SWAP1 POP SWAP2 SWAP1 POP JUMP JUMPDEST PUSH2 0x2327 PUSH2 0x2322 DUP3 PUSH2 0x17A1 JUMP JUMPDEST PUSH2 0x230C JUMP JUMPDEST DUP3 MSTORE POP POP JUMP JUMPDEST PUSH1 0x0 PUSH2 0x2338 DUP3 PUSH2 0x22E9 JUMP JUMPDEST SWAP2 POP PUSH2 0x2344 DUP3 DUP5 PUSH2 0x2316 JUMP JUMPDEST PUSH1 0x20 DUP3 ADD SWAP2 POP DUP2 SWAP1 POP SWAP3 SWAP2 POP POP JUMP JUMPDEST PUSH2 0x235C DUP2 PUSH2 0x227C JUMP JUMPDEST DUP3 MSTORE POP POP JUMP JUMPDEST PUSH1 0x0 PUSH1 0x80 DUP3 ADD SWAP1 POP PUSH2 0x2377 PUSH1 0x0 DUP4 ADD DUP8 PUSH2 0x17AB JUMP JUMPDEST PUSH2 0x2384 PUSH1 0x20 DUP4 ADD DUP7 PUSH2 0x2353 JUMP JUMPDEST PUSH2 0x2391 PUSH1 0x40 DUP4 ADD DUP6 PUSH2 0x17AB JUMP JUMPDEST PUSH2 0x239E PUSH1 0x60 DUP4 ADD DUP5 PUSH2 0x17AB JUMP JUMPDEST SWAP6 SWAP5 POP POP POP POP POP JUMP INVALID LOG2 PUSH5 0x6970667358 0x22 SLT KECCAK256 0xAB 0xCF 0xBB CREATE LOG2 0xDA NOT 0xAE PUSH19 0x8C27EF56B37A4732616B94BB2101078540CF8D MSTORE 0xAC SWAP1 PUSH10 0x64736F6C634300080A00 CALLER "
				},
				"gasEstimates": {
					"creation": {
						"codeDepositCost": "1836200",
						"executionCost": "1933",
						"totalCost": "1838133"
					},
					"external": {
						"AddCandidate(address,string)": "infinite",
						"AllCandidates(string)": "infinite",
						"NoOfRegisteredCandidates(string)": "infinite",
						"createPoll(string,uint256,uint16)": "infinite",
						"listOfPolls(uint256)": "infinite",
						"metaVotingHash(address,string,uint256,uint256)": "infinite",
						"replayNonce(address)": "2814",
						"revealWinner(string)": "infinite",
						"setVotingState(string)": "infinite",
						"vote(address,string,uint256,bytes)": "infinite",
						"votingPoll(string)": "infinite",
						"withdawFees(string)": "infinite"
					},
					"internal": {
						"countVote(address,string memory,address)": "infinite",
						"getSigner(bytes32,bytes memory)": "infinite"
					}
				},
				"methodIdentifiers": {
					"AddCandidate(address,string)": "57f53967",
					"AllCandidates(string)": "af7cbc0d",
					"NoOfRegisteredCandidates(string)": "8579cacd",
					"createPoll(string,uint256,uint16)": "0011ea6f",
					"listOfPolls(uint256)": "a886e61b",
					"metaVotingHash(address,string,uint256,uint256)": "01ff993b",
					"replayNonce(address)": "67d407df",
					"revealWinner(string)": "4fcf1f39",
					"setVotingState(string)": "f0e4de22",
					"vote(address,string,uint256,bytes)": "12f0da4b",
					"votingPoll(string)": "63ee965a",
					"withdawFees(string)": "82e305ab"
				}
			},
			"storageLayout": {
				"storage": [
					{
						"astId": 35,
						"contract": "src/voting.sol:Voting",
						"label": "listOfPolls",
						"offset": 0,
						"slot": "0",
						"type": "t_array(t_struct(VotingPoll)31_storage)dyn_storage"
					},
					{
						"astId": 40,
						"contract": "src/voting.sol:Voting",
						"label": "votingPoll",
						"offset": 0,
						"slot": "1",
						"type": "t_mapping(t_string_memory_ptr,t_struct(VotingPoll)31_storage)"
					},
					{
						"astId": 44,
						"contract": "src/voting.sol:Voting",
						"label": "replayNonce",
						"offset": 0,
						"slot": "2",
						"type": "t_mapping(t_address,t_uint256)"
					}
				],
				"types": {
					"t_address": {
						"encoding": "inplace",
						"label": "address",
						"numberOfBytes": "20"
					},
					"t_array(t_address)dyn_storage": {
						"base": "t_address",
						"encoding": "dynamic_array",
						"label": "address[]",
						"numberOfBytes": "32"
					},
					"t_array(t_struct(VotingPoll)31_storage)dyn_storage": {
						"base": "t_struct(VotingPoll)31_storage",
						"encoding": "dynamic_array",
						"label": "struct Voting.VotingPoll[]",
						"numberOfBytes": "32"
					},
					"t_bool": {
						"encoding": "inplace",
						"label": "bool",
						"numberOfBytes": "1"
					},
					"t_mapping(t_address,t_bool)": {
						"encoding": "mapping",
						"key": "t_address",
						"label": "mapping(address => bool)",
						"numberOfBytes": "32",
						"value": "t_bool"
					},
					"t_mapping(t_address,t_uint256)": {
						"encoding": "mapping",
						"key": "t_address",
						"label": "mapping(address => uint256)",
						"numberOfBytes": "32",
						"value": "t_uint256"
					},
					"t_mapping(t_string_memory_ptr,t_struct(VotingPoll)31_storage)": {
						"encoding": "mapping",
						"key": "t_string_memory_ptr",
						"label": "mapping(string => struct Voting.VotingPoll)",
						"numberOfBytes": "32",
						"value": "t_struct(VotingPoll)31_storage"
					},
					"t_string_memory_ptr": {
						"encoding": "bytes",
						"label": "string",
						"numberOfBytes": "32"
					},
					"t_struct(VotingPoll)31_storage": {
						"encoding": "inplace",
						"label": "struct Voting.VotingPoll",
						"members": [
							{
								"astId": 3,
								"contract": "src/voting.sol:Voting",
								"label": "chairman",
								"offset": 0,
								"slot": "0",
								"type": "t_address"
							},
							{
								"astId": 6,
								"contract": "src/voting.sol:Voting",
								"label": "candidates",
								"offset": 0,
								"slot": "1",
								"type": "t_array(t_address)dyn_storage"
							},
							{
								"astId": 8,
								"contract": "src/voting.sol:Voting",
								"label": "regFee",
								"offset": 0,
								"slot": "2",
								"type": "t_uint16"
							},
							{
								"astId": 10,
								"contract": "src/voting.sol:Voting",
								"label": "maxNoOfCandidates",
								"offset": 2,
								"slot": "2",
								"type": "t_uint32"
							},
							{
								"astId": 12,
								"contract": "src/voting.sol:Voting",
								"label": "startTime",
								"offset": 6,
								"slot": "2",
								"type": "t_uint64"
							},
							{
								"astId": 14,
								"contract": "src/voting.sol:Voting",
								"label": "amountGenerated",
								"offset": 14,
								"slot": "2",
								"type": "t_uint64"
							},
							{
								"astId": 16,
								"contract": "src/voting.sol:Voting",
								"label": "currentNoOfCandidates",
								"offset": 22,
								"slot": "2",
								"type": "t_uint16"
							},
							{
								"astId": 18,
								"contract": "src/voting.sol:Voting",
								"label": "voting",
								"offset": 24,
								"slot": "2",
								"type": "t_bool"
							},
							{
								"astId": 22,
								"contract": "src/voting.sol:Voting",
								"label": "CandidateStatus",
								"offset": 0,
								"slot": "3",
								"type": "t_mapping(t_address,t_bool)"
							},
							{
								"astId": 26,
								"contract": "src/voting.sol:Voting",
								"label": "hasVoted",
								"offset": 0,
								"slot": "4",
								"type": "t_mapping(t_address,t_bool)"
							},
							{
								"astId": 30,
								"contract": "src/voting.sol:Voting",
								"label": "CandidateVote",
								"offset": 0,
								"slot": "5",
								"type": "t_mapping(t_address,t_uint256)"
							}
						],
						"numberOfBytes": "192"
					},
					"t_uint16": {
						"encoding": "inplace",
						"label": "uint16",
						"numberOfBytes": "2"
					},
					"t_uint256": {
						"encoding": "inplace",
						"label": "uint256",
						"numberOfBytes": "32"
					},
					"t_uint32": {
						"encoding": "inplace",
						"label": "uint32",
						"numberOfBytes": "4"
					},
					"t_uint64": {
						"encoding": "inplace",
						"label": "uint64",
						"numberOfBytes": "8"
					}
				}
			},
			"userdoc": {
				"kind": "user",
				"methods": {},
				"version": 1
			}
		}
	}
}