{
	"src/voting.sol": {
		"Voting": {
			"abi": [
				{
					"anonymous": false,
					"inputs": [
						{
							"indexed": false,
							"internalType": "address",
							"name": "NewCandidate",
							"type": "address"
						}
					],
					"name": "becameCandidate",
					"type": "event"
				},
				{
					"anonymous": false,
					"inputs": [
						{
							"indexed": true,
							"internalType": "string",
							"name": "_name",
							"type": "string"
						},
						{
							"indexed": true,
							"internalType": "uint32",
							"name": "ExpectedNoOfCandidate",
							"type": "uint32"
						},
						{
							"indexed": true,
							"internalType": "address",
							"name": "chairman",
							"type": "address"
						}
					],
					"name": "pollCreated",
					"type": "event"
				},
				{
					"anonymous": false,
					"inputs": [
						{
							"indexed": true,
							"internalType": "bool",
							"name": "status",
							"type": "bool"
						}
					],
					"name": "voteStatus",
					"type": "event"
				},
				{
					"anonymous": false,
					"inputs": [
						{
							"indexed": false,
							"internalType": "address",
							"name": "_candidate",
							"type": "address"
						},
						{
							"indexed": false,
							"internalType": "bool",
							"name": "status",
							"type": "bool"
						}
					],
					"name": "voted",
					"type": "event"
				},
				{
					"inputs": [
						{
							"internalType": "address",
							"name": "_newCandidate",
							"type": "address"
						},
						{
							"internalType": "uint256",
							"name": "_id",
							"type": "uint256"
						}
					],
					"name": "AddCandidate",
					"outputs": [],
					"stateMutability": "nonpayable",
					"type": "function"
				},
				{
					"inputs": [
						{
							"internalType": "uint256",
							"name": "_id",
							"type": "uint256"
						}
					],
					"name": "AllCandidates",
					"outputs": [
						{
							"internalType": "address[]",
							"name": "_candidates",
							"type": "address[]"
						}
					],
					"stateMutability": "view",
					"type": "function"
				},
				{
					"inputs": [
						{
							"internalType": "uint256",
							"name": "_id",
							"type": "uint256"
						}
					],
					"name": "NoOfRegisteredCandidates",
					"outputs": [
						{
							"internalType": "uint256",
							"name": "",
							"type": "uint256"
						}
					],
					"stateMutability": "view",
					"type": "function"
				},
				{
					"inputs": [
						{
							"internalType": "uint256",
							"name": "",
							"type": "uint256"
						}
					],
					"name": "VotingKey",
					"outputs": [
						{
							"internalType": "string",
							"name": "name",
							"type": "string"
						},
						{
							"internalType": "address",
							"name": "chairman",
							"type": "address"
						},
						{
							"internalType": "uint32",
							"name": "maxNoOfCandidates",
							"type": "uint32"
						},
						{
							"internalType": "uint32",
							"name": "currentNoOfCandidates",
							"type": "uint32"
						},
						{
							"internalType": "bool",
							"name": "voting",
							"type": "bool"
						}
					],
					"stateMutability": "view",
					"type": "function"
				},
				{
					"inputs": [
						{
							"internalType": "string",
							"name": "_name",
							"type": "string"
						},
						{
							"internalType": "uint32",
							"name": "ExpectedNoOfCandidate",
							"type": "uint32"
						}
					],
					"name": "createPoll",
					"outputs": [
						{
							"components": [
								{
									"internalType": "string",
									"name": "name",
									"type": "string"
								},
								{
									"internalType": "address",
									"name": "chairman",
									"type": "address"
								},
								{
									"internalType": "address[]",
									"name": "candidates",
									"type": "address[]"
								},
								{
									"internalType": "uint32",
									"name": "maxNoOfCandidates",
									"type": "uint32"
								},
								{
									"internalType": "uint32",
									"name": "currentNoOfCandidates",
									"type": "uint32"
								},
								{
									"internalType": "bool",
									"name": "voting",
									"type": "bool"
								}
							],
							"internalType": "struct Voting.VotingPoll[]",
							"name": "",
							"type": "tuple[]"
						}
					],
					"stateMutability": "nonpayable",
					"type": "function"
				},
				{
					"inputs": [
						{
							"internalType": "uint256",
							"name": "_id",
							"type": "uint256"
						}
					],
					"name": "getPollProps",
					"outputs": [
						{
							"components": [
								{
									"internalType": "string",
									"name": "name",
									"type": "string"
								},
								{
									"internalType": "address",
									"name": "chairman",
									"type": "address"
								},
								{
									"internalType": "address[]",
									"name": "candidates",
									"type": "address[]"
								},
								{
									"internalType": "uint32",
									"name": "maxNoOfCandidates",
									"type": "uint32"
								},
								{
									"internalType": "uint32",
									"name": "currentNoOfCandidates",
									"type": "uint32"
								},
								{
									"internalType": "bool",
									"name": "voting",
									"type": "bool"
								}
							],
							"internalType": "struct Voting.VotingPoll",
							"name": "",
							"type": "tuple"
						}
					],
					"stateMutability": "view",
					"type": "function"
				},
				{
					"inputs": [],
					"name": "getStructProps",
					"outputs": [
						{
							"components": [
								{
									"internalType": "string",
									"name": "name",
									"type": "string"
								},
								{
									"internalType": "address",
									"name": "chairman",
									"type": "address"
								},
								{
									"internalType": "address[]",
									"name": "candidates",
									"type": "address[]"
								},
								{
									"internalType": "uint32",
									"name": "maxNoOfCandidates",
									"type": "uint32"
								},
								{
									"internalType": "uint32",
									"name": "currentNoOfCandidates",
									"type": "uint32"
								},
								{
									"internalType": "bool",
									"name": "voting",
									"type": "bool"
								}
							],
							"internalType": "struct Voting.VotingPoll[]",
							"name": "RVP",
							"type": "tuple[]"
						}
					],
					"stateMutability": "view",
					"type": "function"
				},
				{
					"inputs": [
						{
							"internalType": "address",
							"name": "Cand",
							"type": "address"
						},
						{
							"internalType": "uint256",
							"name": "_id",
							"type": "uint256"
						},
						{
							"internalType": "uint256",
							"name": "nonce",
							"type": "uint256"
						},
						{
							"internalType": "uint256",
							"name": "time",
							"type": "uint256"
						}
					],
					"name": "metaVotingHash",
					"outputs": [
						{
							"internalType": "bytes32",
							"name": "",
							"type": "bytes32"
						}
					],
					"stateMutability": "view",
					"type": "function"
				},
				{
					"inputs": [
						{
							"internalType": "address",
							"name": "",
							"type": "address"
						}
					],
					"name": "replayNonce",
					"outputs": [
						{
							"internalType": "uint256",
							"name": "",
							"type": "uint256"
						}
					],
					"stateMutability": "view",
					"type": "function"
				},
				{
					"inputs": [
						{
							"internalType": "uint256",
							"name": "_id",
							"type": "uint256"
						}
					],
					"name": "revealWinner",
					"outputs": [
						{
							"internalType": "uint256[]",
							"name": "CV",
							"type": "uint256[]"
						},
						{
							"internalType": "address",
							"name": "",
							"type": "address"
						},
						{
							"internalType": "uint256",
							"name": "",
							"type": "uint256"
						}
					],
					"stateMutability": "view",
					"type": "function"
				},
				{
					"inputs": [
						{
							"internalType": "uint256",
							"name": "_id",
							"type": "uint256"
						}
					],
					"name": "setVotingState",
					"outputs": [],
					"stateMutability": "nonpayable",
					"type": "function"
				},
				{
					"inputs": [
						{
							"internalType": "address",
							"name": "Cand",
							"type": "address"
						},
						{
							"internalType": "uint256",
							"name": "_id",
							"type": "uint256"
						},
						{
							"internalType": "uint256",
							"name": "nonce",
							"type": "uint256"
						},
						{
							"internalType": "bytes",
							"name": "signature",
							"type": "bytes"
						}
					],
					"name": "vote",
					"outputs": [],
					"stateMutability": "nonpayable",
					"type": "function"
				},
				{
					"inputs": [
						{
							"internalType": "uint256",
							"name": "",
							"type": "uint256"
						}
					],
					"name": "votingPoll",
					"outputs": [
						{
							"internalType": "string",
							"name": "name",
							"type": "string"
						},
						{
							"internalType": "address",
							"name": "chairman",
							"type": "address"
						},
						{
							"internalType": "uint32",
							"name": "maxNoOfCandidates",
							"type": "uint32"
						},
						{
							"internalType": "uint32",
							"name": "currentNoOfCandidates",
							"type": "uint32"
						},
						{
							"internalType": "bool",
							"name": "voting",
							"type": "bool"
						}
					],
					"stateMutability": "view",
					"type": "function"
				}
			],
			"devdoc": {
				"kind": "dev",
				"methods": {},
				"version": 1
			},
			"evm": {
				"assembly": "    /* \"src/voting.sol\":63:5656  contract Voting{... */\n  mstore(0x40, 0x80)\n    /* \"src/voting.sol\":159:160  1 */\n  0x01\n    /* \"src/voting.sol\":149:160  uint id = 1 */\n  0x00\n  sstore\n    /* \"src/voting.sol\":63:5656  contract Voting{... */\n  callvalue\n  dup1\n  iszero\n  tag_1\n  jumpi\n  0x00\n  dup1\n  revert\ntag_1:\n  pop\n  dataSize(sub_0)\n  dup1\n  dataOffset(sub_0)\n  0x00\n  codecopy\n  0x00\n  return\nstop\n\nsub_0: assembly {\n        /* \"src/voting.sol\":63:5656  contract Voting{... */\n      mstore(0x40, 0x80)\n      callvalue\n      dup1\n      iszero\n      tag_1\n      jumpi\n      0x00\n      dup1\n      revert\n    tag_1:\n      pop\n      jumpi(tag_2, lt(calldatasize, 0x04))\n      shr(0xe0, calldataload(0x00))\n      dup1\n      0xb822ed7a\n      gt\n      tag_16\n      jumpi\n      dup1\n      0xc57003cc\n      gt\n      tag_17\n      jumpi\n      dup1\n      0xc57003cc\n      eq\n      tag_12\n      jumpi\n      dup1\n      0xe615f104\n      eq\n      tag_13\n      jumpi\n      dup1\n      0xf762f4c0\n      eq\n      tag_14\n      jumpi\n      dup1\n      0xf8437061\n      eq\n      tag_15\n      jumpi\n      jump(tag_2)\n    tag_17:\n      dup1\n      0xb822ed7a\n      eq\n      tag_9\n      jumpi\n      dup1\n      0xbfe2e25d\n      eq\n      tag_10\n      jumpi\n      dup1\n      0xc10d6cec\n      eq\n      tag_11\n      jumpi\n      jump(tag_2)\n    tag_16:\n      dup1\n      0x049d1c8b\n      eq\n      tag_3\n      jumpi\n      dup1\n      0x66c5343b\n      eq\n      tag_4\n      jumpi\n      dup1\n      0x67d407df\n      eq\n      tag_5\n      jumpi\n      dup1\n      0x8ac3c3c2\n      eq\n      tag_6\n      jumpi\n      dup1\n      0x8ccb59e8\n      eq\n      tag_7\n      jumpi\n      dup1\n      0xae928e3e\n      eq\n      tag_8\n      jumpi\n    tag_2:\n      0x00\n      dup1\n      revert\n        /* \"src/voting.sol\":1990:2491  function AddCandidate(address _newCandidate, uint _id) external{... */\n    tag_3:\n      tag_18\n      0x04\n      dup1\n      calldatasize\n      sub\n      dup2\n      add\n      swap1\n      tag_19\n      swap2\n      swap1\n      tag_20\n      jump\t// in\n    tag_19:\n      tag_21\n      jump\t// in\n    tag_18:\n      stop\n        /* \"src/voting.sol\":3410:3568  function NoOfRegisteredCandidates( uint _id) public view returns(uint){... */\n    tag_4:\n      tag_22\n      0x04\n      dup1\n      calldatasize\n      sub\n      dup2\n      add\n      swap1\n      tag_23\n      swap2\n      swap1\n      tag_24\n      jump\t// in\n    tag_23:\n      tag_25\n      jump\t// in\n    tag_22:\n      mload(0x40)\n      tag_26\n      swap2\n      swap1\n      tag_27\n      jump\t// in\n    tag_26:\n      mload(0x40)\n      dup1\n      swap2\n      sub\n      swap1\n      return\n        /* \"src/voting.sol\":599:646  mapping (address => uint256) public replayNonce */\n    tag_5:\n      tag_28\n      0x04\n      dup1\n      calldatasize\n      sub\n      dup2\n      add\n      swap1\n      tag_29\n      swap2\n      swap1\n      tag_30\n      jump\t// in\n    tag_29:\n      tag_31\n      jump\t// in\n    tag_28:\n      mload(0x40)\n      tag_32\n      swap2\n      swap1\n      tag_27\n      jump\t// in\n    tag_32:\n      mload(0x40)\n      dup1\n      swap2\n      sub\n      swap1\n      return\n        /* \"src/voting.sol\":3576:3736  function AllCandidates( uint _id) public view returns(address[] memory _candidates){... */\n    tag_6:\n      tag_33\n      0x04\n      dup1\n      calldatasize\n      sub\n      dup2\n      add\n      swap1\n      tag_34\n      swap2\n      swap1\n      tag_24\n      jump\t// in\n    tag_34:\n      tag_35\n      jump\t// in\n    tag_33:\n      mload(0x40)\n      tag_36\n      swap2\n      swap1\n      tag_37\n      jump\t// in\n    tag_36:\n      mload(0x40)\n      dup1\n      swap2\n      sub\n      swap1\n      return\n        /* \"src/voting.sol\":3739:4318  function revealWinner( uint _id) external view returns ( uint[] memory CV, address, uint){... */\n    tag_7:\n      tag_38\n      0x04\n      dup1\n      calldatasize\n      sub\n      dup2\n      add\n      swap1\n      tag_39\n      swap2\n      swap1\n      tag_24\n      jump\t// in\n    tag_39:\n      tag_40\n      jump\t// in\n    tag_38:\n      mload(0x40)\n      tag_41\n      swap4\n      swap3\n      swap2\n      swap1\n      tag_42\n      jump\t// in\n    tag_41:\n      mload(0x40)\n      dup1\n      swap2\n      sub\n      swap1\n      return\n        /* \"src/voting.sol\":459:488  VotingPoll[] public VotingKey */\n    tag_8:\n      tag_43\n      0x04\n      dup1\n      calldatasize\n      sub\n      dup2\n      add\n      swap1\n      tag_44\n      swap2\n      swap1\n      tag_24\n      jump\t// in\n    tag_44:\n      tag_45\n      jump\t// in\n    tag_43:\n      mload(0x40)\n      tag_46\n      swap6\n      swap5\n      swap4\n      swap3\n      swap2\n      swap1\n      tag_47\n      jump\t// in\n    tag_46:\n      mload(0x40)\n      dup1\n      swap2\n      sub\n      swap1\n      return\n        /* \"src/voting.sol\":4743:4846  function getPollProps(uint _id) external view returns(VotingPoll memory){... */\n    tag_9:\n      tag_48\n      0x04\n      dup1\n      calldatasize\n      sub\n      dup2\n      add\n      swap1\n      tag_49\n      swap2\n      swap1\n      tag_24\n      jump\t// in\n    tag_49:\n      tag_50\n      jump\t// in\n    tag_48:\n      mload(0x40)\n      tag_51\n      swap2\n      swap1\n      tag_52\n      jump\t// in\n    tag_51:\n      mload(0x40)\n      dup1\n      swap2\n      sub\n      swap1\n      return\n        /* \"src/voting.sol\":4851:5066  function metaVotingHash(address Cand, uint _id, uint256 nonce, uint256 time) public view returns(bytes32){... */\n    tag_10:\n      tag_53\n      0x04\n      dup1\n      calldatasize\n      sub\n      dup2\n      add\n      swap1\n      tag_54\n      swap2\n      swap1\n      tag_55\n      jump\t// in\n    tag_54:\n      tag_56\n      jump\t// in\n    tag_53:\n      mload(0x40)\n      tag_57\n      swap2\n      swap1\n      tag_58\n      jump\t// in\n    tag_57:\n      mload(0x40)\n      dup1\n      swap2\n      sub\n      swap1\n      return\n        /* \"src/voting.sol\":2494:2986  function vote(address Cand, uint _id, uint256 nonce, bytes memory signature) external  isCandidate(Cand, _id) StillVoting(_id){... */\n    tag_11:\n      tag_59\n      0x04\n      dup1\n      calldatasize\n      sub\n      dup2\n      add\n      swap1\n      tag_60\n      swap2\n      swap1\n      tag_61\n      jump\t// in\n    tag_60:\n      tag_62\n      jump\t// in\n    tag_59:\n      stop\n        /* \"src/voting.sol\":3185:3407  function setVotingState( uint _id) external {... */\n    tag_12:\n      tag_63\n      0x04\n      dup1\n      calldatasize\n      sub\n      dup2\n      add\n      swap1\n      tag_64\n      swap2\n      swap1\n      tag_24\n      jump\t// in\n    tag_64:\n      tag_65\n      jump\t// in\n    tag_63:\n      stop\n        /* \"src/voting.sol\":552:597  mapping(uint => VotingPoll) public votingPoll */\n    tag_13:\n      tag_66\n      0x04\n      dup1\n      calldatasize\n      sub\n      dup2\n      add\n      swap1\n      tag_67\n      swap2\n      swap1\n      tag_24\n      jump\t// in\n    tag_67:\n      tag_68\n      jump\t// in\n    tag_66:\n      mload(0x40)\n      tag_69\n      swap6\n      swap5\n      swap4\n      swap3\n      swap2\n      swap1\n      tag_47\n      jump\t// in\n    tag_69:\n      mload(0x40)\n      dup1\n      swap2\n      sub\n      swap1\n      return\n        /* \"src/voting.sol\":1607:1986  function createPoll(string memory _name, uint32 ExpectedNoOfCandidate) external returns(VotingPoll[] memory ){... */\n    tag_14:\n      tag_70\n      0x04\n      dup1\n      calldatasize\n      sub\n      dup2\n      add\n      swap1\n      tag_71\n      swap2\n      swap1\n      tag_72\n      jump\t// in\n    tag_71:\n      tag_73\n      jump\t// in\n    tag_70:\n      mload(0x40)\n      tag_74\n      swap2\n      swap1\n      tag_75\n      jump\t// in\n    tag_74:\n      mload(0x40)\n      dup1\n      swap2\n      sub\n      swap1\n      return\n        /* \"src/voting.sol\":4499:4740  function getStructProps() external view returns(VotingPoll[] memory RVP){... */\n    tag_15:\n      tag_76\n      tag_77\n      jump\t// in\n    tag_76:\n      mload(0x40)\n      tag_78\n      swap2\n      swap1\n      tag_75\n      jump\t// in\n    tag_78:\n      mload(0x40)\n      dup1\n      swap2\n      sub\n      swap1\n      return\n        /* \"src/voting.sol\":1990:2491  function AddCandidate(address _newCandidate, uint _id) external{... */\n    tag_21:\n        /* \"src/voting.sol\":2060:2081  VotingPoll storage VP */\n      0x00\n        /* \"src/voting.sol\":2084:2094  votingPoll */\n      0x02\n        /* \"src/voting.sol\":2084:2099  votingPoll[_id] */\n      0x00\n        /* \"src/voting.sol\":2095:2098  _id */\n      dup4\n        /* \"src/voting.sol\":2084:2099  votingPoll[_id] */\n      dup2\n      mstore\n      0x20\n      add\n      swap1\n      dup2\n      mstore\n      0x20\n      add\n      0x00\n      keccak256\n        /* \"src/voting.sol\":2060:2099  VotingPoll storage VP = votingPoll[_id] */\n      swap1\n      pop\n        /* \"src/voting.sol\":2138:2139  0 */\n      0x00\n        /* \"src/voting.sol\":2115:2140  VP.chairman != address(0) */\n      0xffffffffffffffffffffffffffffffffffffffff\n      and\n        /* \"src/voting.sol\":2115:2117  VP */\n      dup2\n        /* \"src/voting.sol\":2115:2126  VP.chairman */\n      0x01\n      add\n      0x00\n      swap1\n      sload\n      swap1\n      0x0100\n      exp\n      swap1\n      div\n      0xffffffffffffffffffffffffffffffffffffffff\n      and\n        /* \"src/voting.sol\":2115:2140  VP.chairman != address(0) */\n      0xffffffffffffffffffffffffffffffffffffffff\n      and\n      eq\n      iszero\n        /* \"src/voting.sol\":2106:2166  require (VP.chairman != address(0) , \"yet to create a poll\") */\n      tag_80\n      jumpi\n      mload(0x40)\n      0x08c379a000000000000000000000000000000000000000000000000000000000\n      dup2\n      mstore\n      0x04\n      add\n      tag_81\n      swap1\n      tag_82\n      jump\t// in\n    tag_81:\n      mload(0x40)\n      dup1\n      swap2\n      sub\n      swap1\n      revert\n    tag_80:\n        /* \"src/voting.sol\":2197:2207  msg.sender */\n      caller\n        /* \"src/voting.sol\":2182:2207  VP.chairman == msg.sender */\n      0xffffffffffffffffffffffffffffffffffffffff\n      and\n        /* \"src/voting.sol\":2182:2184  VP */\n      dup2\n        /* \"src/voting.sol\":2182:2193  VP.chairman */\n      0x01\n      add\n      0x00\n      swap1\n      sload\n      swap1\n      0x0100\n      exp\n      swap1\n      div\n      0xffffffffffffffffffffffffffffffffffffffff\n      and\n        /* \"src/voting.sol\":2182:2207  VP.chairman == msg.sender */\n      0xffffffffffffffffffffffffffffffffffffffff\n      and\n      eq\n        /* \"src/voting.sol\":2175:2208  assert(VP.chairman == msg.sender) */\n      tag_83\n      jumpi\n      tag_84\n      tag_85\n      jump\t// in\n    tag_84:\n    tag_83:\n        /* \"src/voting.sol\":2250:2252  VP */\n      dup1\n        /* \"src/voting.sol\":2250:2270  VP.maxNoOfCandidates */\n      0x03\n      add\n      0x00\n      swap1\n      sload\n      swap1\n      0x0100\n      exp\n      swap1\n      div\n      0xffffffff\n      and\n        /* \"src/voting.sol\":2223:2270  VP.currentNoOfCandidates < VP.maxNoOfCandidates */\n      0xffffffff\n      and\n        /* \"src/voting.sol\":2223:2225  VP */\n      dup2\n        /* \"src/voting.sol\":2223:2247  VP.currentNoOfCandidates */\n      0x03\n      add\n      0x04\n      swap1\n      sload\n      swap1\n      0x0100\n      exp\n      swap1\n      div\n      0xffffffff\n      and\n        /* \"src/voting.sol\":2223:2270  VP.currentNoOfCandidates < VP.maxNoOfCandidates */\n      0xffffffff\n      and\n      lt\n        /* \"src/voting.sol\":2215:2321  require(VP.currentNoOfCandidates < VP.maxNoOfCandidates, \"maximum no of candidate per session registered\") */\n      tag_86\n      jumpi\n      mload(0x40)\n      0x08c379a000000000000000000000000000000000000000000000000000000000\n      dup2\n      mstore\n      0x04\n      add\n      tag_87\n      swap1\n      tag_88\n      jump\t// in\n    tag_87:\n      mload(0x40)\n      dup1\n      swap2\n      sub\n      swap1\n      revert\n    tag_86:\n        /* \"src/voting.sol\":2366:2370  true */\n      0x01\n        /* \"src/voting.sol\":2328:2343  CandidateStatus */\n      0x04\n        /* \"src/voting.sol\":2328:2348  CandidateStatus[_id] */\n      0x00\n        /* \"src/voting.sol\":2344:2347  _id */\n      dup5\n        /* \"src/voting.sol\":2328:2348  CandidateStatus[_id] */\n      dup2\n      mstore\n      0x20\n      add\n      swap1\n      dup2\n      mstore\n      0x20\n      add\n      0x00\n      keccak256\n        /* \"src/voting.sol\":2328:2363  CandidateStatus[_id][_newCandidate] */\n      0x00\n        /* \"src/voting.sol\":2349:2362  _newCandidate */\n      dup6\n        /* \"src/voting.sol\":2328:2363  CandidateStatus[_id][_newCandidate] */\n      0xffffffffffffffffffffffffffffffffffffffff\n      and\n      0xffffffffffffffffffffffffffffffffffffffff\n      and\n      dup2\n      mstore\n      0x20\n      add\n      swap1\n      dup2\n      mstore\n      0x20\n      add\n      0x00\n      keccak256\n      0x00\n        /* \"src/voting.sol\":2328:2370  CandidateStatus[_id][_newCandidate] = true */\n      0x0100\n      exp\n      dup2\n      sload\n      dup2\n      0xff\n      mul\n      not\n      and\n      swap1\n      dup4\n      iszero\n      iszero\n      mul\n      or\n      swap1\n      sstore\n      pop\n        /* \"src/voting.sol\":2378:2380  VP */\n      dup1\n        /* \"src/voting.sol\":2378:2391  VP.candidates */\n      0x02\n      add\n        /* \"src/voting.sol\":2397:2410  _newCandidate */\n      dup4\n        /* \"src/voting.sol\":2378:2411  VP.candidates.push(_newCandidate) */\n      swap1\n      dup1\n      0x01\n      dup2\n      sload\n      add\n      dup1\n      dup3\n      sstore\n      dup1\n      swap2\n      pop\n      pop\n      0x01\n      swap1\n      sub\n      swap1\n      0x00\n      mstore\n      keccak256(0x00, 0x20)\n      add\n      0x00\n      swap1\n      swap2\n      swap1\n      swap2\n      swap1\n      swap2\n      0x0100\n      exp\n      dup2\n      sload\n      dup2\n      0xffffffffffffffffffffffffffffffffffffffff\n      mul\n      not\n      and\n      swap1\n      dup4\n      0xffffffffffffffffffffffffffffffffffffffff\n      and\n      mul\n      or\n      swap1\n      sstore\n      pop\n        /* \"src/voting.sol\":2419:2421  VP */\n      dup1\n        /* \"src/voting.sol\":2419:2443  VP.currentNoOfCandidates */\n      0x03\n      add\n      0x04\n        /* \"src/voting.sol\":2419:2445  VP.currentNoOfCandidates++ */\n      dup2\n      dup2\n      swap1\n      sload\n      swap1\n      0x0100\n      exp\n      swap1\n      div\n      0xffffffff\n      and\n      dup1\n      swap3\n      swap2\n      swap1\n      tag_90\n      swap1\n      tag_91\n      jump\t// in\n    tag_90:\n      swap2\n      swap1\n      0x0100\n      exp\n      dup2\n      sload\n      dup2\n      0xffffffff\n      mul\n      not\n      and\n      swap1\n      dup4\n      0xffffffff\n      and\n      mul\n      or\n      swap1\n      sstore\n      pop\n      pop\n        /* \"src/voting.sol\":2457:2487  becameCandidate(_newCandidate) */\n      0xc19c59aa93348e8fc54764bc642eca975e2639f44cc683ef8f027e1529cbda32\n        /* \"src/voting.sol\":2473:2486  _newCandidate */\n      dup4\n        /* \"src/voting.sol\":2457:2487  becameCandidate(_newCandidate) */\n      mload(0x40)\n      tag_92\n      swap2\n      swap1\n      tag_93\n      jump\t// in\n    tag_92:\n      mload(0x40)\n      dup1\n      swap2\n      sub\n      swap1\n      log1\n        /* \"src/voting.sol\":2053:2491  {... */\n      pop\n        /* \"src/voting.sol\":1990:2491  function AddCandidate(address _newCandidate, uint _id) external{... */\n      pop\n      pop\n      jump\t// out\n        /* \"src/voting.sol\":3410:3568  function NoOfRegisteredCandidates( uint _id) public view returns(uint){... */\n    tag_25:\n        /* \"src/voting.sol\":3475:3479  uint */\n      0x00\n        /* \"src/voting.sol\":3487:3508  VotingPoll storage VP */\n      dup1\n        /* \"src/voting.sol\":3511:3521  votingPoll */\n      0x02\n        /* \"src/voting.sol\":3511:3526  votingPoll[_id] */\n      0x00\n        /* \"src/voting.sol\":3522:3525  _id */\n      dup5\n        /* \"src/voting.sol\":3511:3526  votingPoll[_id] */\n      dup2\n      mstore\n      0x20\n      add\n      swap1\n      dup2\n      mstore\n      0x20\n      add\n      0x00\n      keccak256\n        /* \"src/voting.sol\":3487:3526  VotingPoll storage VP = votingPoll[_id] */\n      swap1\n      pop\n        /* \"src/voting.sol\":3540:3542  VP */\n      dup1\n        /* \"src/voting.sol\":3540:3564  VP.currentNoOfCandidates */\n      0x03\n      add\n      0x04\n      swap1\n      sload\n      swap1\n      0x0100\n      exp\n      swap1\n      div\n      0xffffffff\n      and\n        /* \"src/voting.sol\":3533:3564  return VP.currentNoOfCandidates */\n      0xffffffff\n      and\n      swap2\n      pop\n      pop\n        /* \"src/voting.sol\":3410:3568  function NoOfRegisteredCandidates( uint _id) public view returns(uint){... */\n      swap2\n      swap1\n      pop\n      jump\t// out\n        /* \"src/voting.sol\":599:646  mapping (address => uint256) public replayNonce */\n    tag_31:\n      mstore(0x20, 0x03)\n      dup1\n      0x00\n      mstore\n      keccak256(0x00, 0x40)\n      0x00\n      swap2\n      pop\n      swap1\n      pop\n      sload\n      dup2\n      jump\t// out\n        /* \"src/voting.sol\":3576:3736  function AllCandidates( uint _id) public view returns(address[] memory _candidates){... */\n    tag_35:\n        /* \"src/voting.sol\":3630:3658  address[] memory _candidates */\n      0x60\n        /* \"src/voting.sol\":3666:3687  VotingPoll storage VP */\n      0x00\n        /* \"src/voting.sol\":3690:3700  votingPoll */\n      0x02\n        /* \"src/voting.sol\":3690:3705  votingPoll[_id] */\n      0x00\n        /* \"src/voting.sol\":3701:3704  _id */\n      dup5\n        /* \"src/voting.sol\":3690:3705  votingPoll[_id] */\n      dup2\n      mstore\n      0x20\n      add\n      swap1\n      dup2\n      mstore\n      0x20\n      add\n      0x00\n      keccak256\n        /* \"src/voting.sol\":3666:3705  VotingPoll storage VP = votingPoll[_id] */\n      swap1\n      pop\n        /* \"src/voting.sol\":3719:3721  VP */\n      dup1\n        /* \"src/voting.sol\":3719:3732  VP.candidates */\n      0x02\n      add\n        /* \"src/voting.sol\":3712:3732  return VP.candidates */\n      dup1\n      sload\n      dup1\n      0x20\n      mul\n      0x20\n      add\n      mload(0x40)\n      swap1\n      dup2\n      add\n      0x40\n      mstore\n      dup1\n      swap3\n      swap2\n      swap1\n      dup2\n      dup2\n      mstore\n      0x20\n      add\n      dup3\n      dup1\n      sload\n      dup1\n      iszero\n      tag_96\n      jumpi\n      0x20\n      mul\n      dup3\n      add\n      swap2\n      swap1\n      0x00\n      mstore\n      keccak256(0x00, 0x20)\n      swap1\n    tag_97:\n      dup2\n      0x00\n      swap1\n      sload\n      swap1\n      0x0100\n      exp\n      swap1\n      div\n      0xffffffffffffffffffffffffffffffffffffffff\n      and\n      0xffffffffffffffffffffffffffffffffffffffff\n      and\n      dup2\n      mstore\n      0x20\n      add\n      swap1\n      0x01\n      add\n      swap1\n      dup1\n      dup4\n      gt\n      tag_97\n      jumpi\n    tag_96:\n      pop\n      pop\n      pop\n      pop\n      pop\n      swap2\n      pop\n      pop\n        /* \"src/voting.sol\":3576:3736  function AllCandidates( uint _id) public view returns(address[] memory _candidates){... */\n      swap2\n      swap1\n      pop\n      jump\t// out\n        /* \"src/voting.sol\":3739:4318  function revealWinner( uint _id) external view returns ( uint[] memory CV, address, uint){... */\n    tag_40:\n        /* \"src/voting.sol\":3796:3812  uint[] memory CV */\n      0x60\n        /* \"src/voting.sol\":3814:3821  address */\n      0x00\n        /* \"src/voting.sol\":3823:3827  uint */\n      dup1\n        /* \"src/voting.sol\":3835:3856  VotingPoll storage VP */\n      0x00\n        /* \"src/voting.sol\":3859:3869  votingPoll */\n      0x02\n        /* \"src/voting.sol\":3859:3874  votingPoll[_id] */\n      0x00\n        /* \"src/voting.sol\":3870:3873  _id */\n      dup7\n        /* \"src/voting.sol\":3859:3874  votingPoll[_id] */\n      dup2\n      mstore\n      0x20\n      add\n      swap1\n      dup2\n      mstore\n      0x20\n      add\n      0x00\n      keccak256\n        /* \"src/voting.sol\":3835:3874  VotingPoll storage VP = votingPoll[_id] */\n      swap1\n      pop\n        /* \"src/voting.sol\":3912:3913  0 */\n      0x00\n        /* \"src/voting.sol\":3889:3914  VP.chairman != address(0) */\n      0xffffffffffffffffffffffffffffffffffffffff\n      and\n        /* \"src/voting.sol\":3889:3891  VP */\n      dup2\n        /* \"src/voting.sol\":3889:3900  VP.chairman */\n      0x01\n      add\n      0x00\n      swap1\n      sload\n      swap1\n      0x0100\n      exp\n      swap1\n      div\n      0xffffffffffffffffffffffffffffffffffffffff\n      and\n        /* \"src/voting.sol\":3889:3914  VP.chairman != address(0) */\n      0xffffffffffffffffffffffffffffffffffffffff\n      and\n      eq\n      iszero\n        /* \"src/voting.sol\":3881:3934  require(VP.chairman != address(0), \"No poll created\") */\n      tag_99\n      jumpi\n      mload(0x40)\n      0x08c379a000000000000000000000000000000000000000000000000000000000\n      dup2\n      mstore\n      0x04\n      add\n      tag_100\n      swap1\n      tag_101\n      jump\t// in\n    tag_100:\n      mload(0x40)\n      dup1\n      swap2\n      sub\n      swap1\n      revert\n    tag_99:\n        /* \"src/voting.sol\":3957:3959  VP */\n      dup1\n        /* \"src/voting.sol\":3957:3970  VP.candidates */\n      0x02\n      add\n        /* \"src/voting.sol\":3957:3977  VP.candidates.length */\n      dup1\n      sload\n      swap1\n      pop\n        /* \"src/voting.sol\":3946:3978  new uint[](VP.candidates.length) */\n      0xffffffffffffffff\n      dup2\n      gt\n      iszero\n      tag_102\n      jumpi\n      tag_103\n      tag_104\n      jump\t// in\n    tag_103:\n    tag_102:\n      mload(0x40)\n      swap1\n      dup1\n      dup3\n      mstore\n      dup1\n      0x20\n      mul\n      0x20\n      add\n      dup3\n      add\n      0x40\n      mstore\n      dup1\n      iszero\n      tag_105\n      jumpi\n      dup2\n      0x20\n      add\n      0x20\n      dup3\n      mul\n      dup1\n      calldatasize\n      dup4\n      calldatacopy\n      dup1\n      dup3\n      add\n      swap2\n      pop\n      pop\n      swap1\n      pop\n    tag_105:\n      pop\n        /* \"src/voting.sol\":3941:3978  CV = new uint[](VP.candidates.length) */\n      swap4\n      pop\n        /* \"src/voting.sol\":3985:4001  uint highestVote */\n      0x00\n        /* \"src/voting.sol\":4008:4022  address winner */\n      dup1\n        /* \"src/voting.sol\":4034:4040  uint i */\n      0x00\n        /* \"src/voting.sol\":4029:4276  for (uint i =0; i <= VP.candidates.length; i++){... */\n    tag_106:\n        /* \"src/voting.sol\":4050:4052  VP */\n      dup4\n        /* \"src/voting.sol\":4050:4063  VP.candidates */\n      0x02\n      add\n        /* \"src/voting.sol\":4050:4070  VP.candidates.length */\n      dup1\n      sload\n      swap1\n      pop\n        /* \"src/voting.sol\":4045:4046  i */\n      dup2\n        /* \"src/voting.sol\":4045:4070  i <= VP.candidates.length */\n      gt\n        /* \"src/voting.sol\":4029:4276  for (uint i =0; i <= VP.candidates.length; i++){... */\n      tag_107\n      jumpi\n        /* \"src/voting.sol\":4085:4093  uint val */\n      0x00\n        /* \"src/voting.sol\":4096:4114  getPosition(_id,i) */\n      tag_109\n        /* \"src/voting.sol\":4108:4111  _id */\n      dup10\n        /* \"src/voting.sol\":4112:4113  i */\n      dup4\n        /* \"src/voting.sol\":4096:4107  getPosition */\n      tag_110\n        /* \"src/voting.sol\":4096:4114  getPosition(_id,i) */\n      jump\t// in\n    tag_109:\n        /* \"src/voting.sol\":4085:4114  uint val = getPosition(_id,i) */\n      swap1\n      pop\n        /* \"src/voting.sol\":4130:4141  highestVote */\n      dup4\n        /* \"src/voting.sol\":4124:4127  val */\n      dup2\n        /* \"src/voting.sol\":4124:4141  val > highestVote */\n      gt\n        /* \"src/voting.sol\":4121:4215  if(val > highestVote){... */\n      iszero\n      tag_111\n      jumpi\n        /* \"src/voting.sol\":4167:4170  val */\n      dup1\n        /* \"src/voting.sol\":4153:4170  highestVote = val */\n      swap4\n      pop\n        /* \"src/voting.sol\":4191:4193  VP */\n      dup5\n        /* \"src/voting.sol\":4191:4204  VP.candidates */\n      0x02\n      add\n        /* \"src/voting.sol\":4205:4206  i */\n      dup3\n        /* \"src/voting.sol\":4191:4207  VP.candidates[i] */\n      dup2\n      sload\n      dup2\n      lt\n      tag_112\n      jumpi\n      tag_113\n      tag_114\n      jump\t// in\n    tag_113:\n    tag_112:\n      swap1\n      0x00\n      mstore\n      keccak256(0x00, 0x20)\n      add\n      0x00\n      swap1\n      sload\n      swap1\n      0x0100\n      exp\n      swap1\n      div\n      0xffffffffffffffffffffffffffffffffffffffff\n      and\n        /* \"src/voting.sol\":4182:4207  winner = VP.candidates[i] */\n      swap3\n      pop\n        /* \"src/voting.sol\":4121:4215  if(val > highestVote){... */\n    tag_111:\n        /* \"src/voting.sol\":4230:4243  CandidateVote */\n      0x05\n        /* \"src/voting.sol\":4230:4248  CandidateVote[_id] */\n      0x00\n        /* \"src/voting.sol\":4244:4247  _id */\n      dup11\n        /* \"src/voting.sol\":4230:4248  CandidateVote[_id] */\n      dup2\n      mstore\n      0x20\n      add\n      swap1\n      dup2\n      mstore\n      0x20\n      add\n      0x00\n      keccak256\n        /* \"src/voting.sol\":4230:4266  CandidateVote[_id][VP.candidates[i]] */\n      0x00\n        /* \"src/voting.sol\":4249:4251  VP */\n      dup7\n        /* \"src/voting.sol\":4249:4262  VP.candidates */\n      0x02\n      add\n        /* \"src/voting.sol\":4263:4264  i */\n      dup5\n        /* \"src/voting.sol\":4249:4265  VP.candidates[i] */\n      dup2\n      sload\n      dup2\n      lt\n      tag_116\n      jumpi\n      tag_117\n      tag_114\n      jump\t// in\n    tag_117:\n    tag_116:\n      swap1\n      0x00\n      mstore\n      keccak256(0x00, 0x20)\n      add\n      0x00\n      swap1\n      sload\n      swap1\n      0x0100\n      exp\n      swap1\n      div\n      0xffffffffffffffffffffffffffffffffffffffff\n      and\n        /* \"src/voting.sol\":4230:4266  CandidateVote[_id][VP.candidates[i]] */\n      0xffffffffffffffffffffffffffffffffffffffff\n      and\n      0xffffffffffffffffffffffffffffffffffffffff\n      and\n      dup2\n      mstore\n      0x20\n      add\n      swap1\n      dup2\n      mstore\n      0x20\n      add\n      0x00\n      keccak256\n      sload\n        /* \"src/voting.sol\":4221:4223  CV */\n      dup9\n        /* \"src/voting.sol\":4224:4225  i */\n      dup4\n        /* \"src/voting.sol\":4221:4226  CV[i] */\n      dup2\n      mload\n      dup2\n      lt\n      tag_119\n      jumpi\n      tag_120\n      tag_114\n      jump\t// in\n    tag_120:\n    tag_119:\n      0x20\n      mul\n      0x20\n      add\n      add\n        /* \"src/voting.sol\":4221:4267  CV[i] = (CandidateVote[_id][VP.candidates[i]]) */\n      dup2\n      dup2\n      mstore\n      pop\n      pop\n        /* \"src/voting.sol\":4076:4276  {... */\n      pop\n        /* \"src/voting.sol\":4072:4075  i++ */\n      dup1\n      dup1\n      tag_121\n      swap1\n      tag_122\n      jump\t// in\n    tag_121:\n      swap2\n      pop\n      pop\n        /* \"src/voting.sol\":4029:4276  for (uint i =0; i <= VP.candidates.length; i++){... */\n      jump(tag_106)\n    tag_107:\n      pop\n        /* \"src/voting.sol\":4290:4292  CV */\n      dup6\n        /* \"src/voting.sol\":4294:4300  winner */\n      dup2\n        /* \"src/voting.sol\":4302:4313  highestVote */\n      dup4\n        /* \"src/voting.sol\":4282:4314  return (CV, winner, highestVote) */\n      swap6\n      pop\n      swap6\n      pop\n      swap6\n      pop\n      pop\n      pop\n      pop\n        /* \"src/voting.sol\":3739:4318  function revealWinner( uint _id) external view returns ( uint[] memory CV, address, uint){... */\n      swap2\n      swap4\n      swap1\n      swap3\n      pop\n      jump\t// out\n        /* \"src/voting.sol\":459:488  VotingPoll[] public VotingKey */\n    tag_45:\n      0x01\n      dup2\n      dup2\n      sload\n      dup2\n      lt\n      tag_123\n      jumpi\n      0x00\n      dup1\n      revert\n    tag_123:\n      swap1\n      0x00\n      mstore\n      keccak256(0x00, 0x20)\n      swap1\n      0x04\n      mul\n      add\n      0x00\n      swap2\n      pop\n      swap1\n      pop\n      dup1\n      0x00\n      add\n      dup1\n      sload\n      tag_125\n      swap1\n      tag_126\n      jump\t// in\n    tag_125:\n      dup1\n      0x1f\n      add\n      0x20\n      dup1\n      swap2\n      div\n      mul\n      0x20\n      add\n      mload(0x40)\n      swap1\n      dup2\n      add\n      0x40\n      mstore\n      dup1\n      swap3\n      swap2\n      swap1\n      dup2\n      dup2\n      mstore\n      0x20\n      add\n      dup3\n      dup1\n      sload\n      tag_127\n      swap1\n      tag_126\n      jump\t// in\n    tag_127:\n      dup1\n      iszero\n      tag_128\n      jumpi\n      dup1\n      0x1f\n      lt\n      tag_129\n      jumpi\n      0x0100\n      dup1\n      dup4\n      sload\n      div\n      mul\n      dup4\n      mstore\n      swap2\n      0x20\n      add\n      swap2\n      jump(tag_128)\n    tag_129:\n      dup3\n      add\n      swap2\n      swap1\n      0x00\n      mstore\n      keccak256(0x00, 0x20)\n      swap1\n    tag_130:\n      dup2\n      sload\n      dup2\n      mstore\n      swap1\n      0x01\n      add\n      swap1\n      0x20\n      add\n      dup1\n      dup4\n      gt\n      tag_130\n      jumpi\n      dup3\n      swap1\n      sub\n      0x1f\n      and\n      dup3\n      add\n      swap2\n    tag_128:\n      pop\n      pop\n      pop\n      pop\n      pop\n      swap1\n      dup1\n      0x01\n      add\n      0x00\n      swap1\n      sload\n      swap1\n      0x0100\n      exp\n      swap1\n      div\n      0xffffffffffffffffffffffffffffffffffffffff\n      and\n      swap1\n      dup1\n      0x03\n      add\n      0x00\n      swap1\n      sload\n      swap1\n      0x0100\n      exp\n      swap1\n      div\n      0xffffffff\n      and\n      swap1\n      dup1\n      0x03\n      add\n      0x04\n      swap1\n      sload\n      swap1\n      0x0100\n      exp\n      swap1\n      div\n      0xffffffff\n      and\n      swap1\n      dup1\n      0x03\n      add\n      0x08\n      swap1\n      sload\n      swap1\n      0x0100\n      exp\n      swap1\n      div\n      0xff\n      and\n      swap1\n      pop\n      dup6\n      jump\t// out\n        /* \"src/voting.sol\":4743:4846  function getPollProps(uint _id) external view returns(VotingPoll memory){... */\n    tag_50:\n        /* \"src/voting.sol\":4797:4814  VotingPoll memory */\n      tag_131\n      tag_132\n      jump\t// in\n    tag_131:\n        /* \"src/voting.sol\":4827:4837  votingPoll */\n      0x02\n        /* \"src/voting.sol\":4827:4842  votingPoll[_id] */\n      0x00\n        /* \"src/voting.sol\":4838:4841  _id */\n      dup4\n        /* \"src/voting.sol\":4827:4842  votingPoll[_id] */\n      dup2\n      mstore\n      0x20\n      add\n      swap1\n      dup2\n      mstore\n      0x20\n      add\n      0x00\n      keccak256\n        /* \"src/voting.sol\":4820:4842  return votingPoll[_id] */\n      mload(0x40)\n      dup1\n      0xc0\n      add\n      0x40\n      mstore\n      swap1\n      dup2\n      0x00\n      dup3\n      add\n      dup1\n      sload\n      tag_134\n      swap1\n      tag_126\n      jump\t// in\n    tag_134:\n      dup1\n      0x1f\n      add\n      0x20\n      dup1\n      swap2\n      div\n      mul\n      0x20\n      add\n      mload(0x40)\n      swap1\n      dup2\n      add\n      0x40\n      mstore\n      dup1\n      swap3\n      swap2\n      swap1\n      dup2\n      dup2\n      mstore\n      0x20\n      add\n      dup3\n      dup1\n      sload\n      tag_135\n      swap1\n      tag_126\n      jump\t// in\n    tag_135:\n      dup1\n      iszero\n      tag_136\n      jumpi\n      dup1\n      0x1f\n      lt\n      tag_137\n      jumpi\n      0x0100\n      dup1\n      dup4\n      sload\n      div\n      mul\n      dup4\n      mstore\n      swap2\n      0x20\n      add\n      swap2\n      jump(tag_136)\n    tag_137:\n      dup3\n      add\n      swap2\n      swap1\n      0x00\n      mstore\n      keccak256(0x00, 0x20)\n      swap1\n    tag_138:\n      dup2\n      sload\n      dup2\n      mstore\n      swap1\n      0x01\n      add\n      swap1\n      0x20\n      add\n      dup1\n      dup4\n      gt\n      tag_138\n      jumpi\n      dup3\n      swap1\n      sub\n      0x1f\n      and\n      dup3\n      add\n      swap2\n    tag_136:\n      pop\n      pop\n      pop\n      pop\n      pop\n      dup2\n      mstore\n      0x20\n      add\n      0x01\n      dup3\n      add\n      0x00\n      swap1\n      sload\n      swap1\n      0x0100\n      exp\n      swap1\n      div\n      0xffffffffffffffffffffffffffffffffffffffff\n      and\n      0xffffffffffffffffffffffffffffffffffffffff\n      and\n      0xffffffffffffffffffffffffffffffffffffffff\n      and\n      dup2\n      mstore\n      0x20\n      add\n      0x02\n      dup3\n      add\n      dup1\n      sload\n      dup1\n      0x20\n      mul\n      0x20\n      add\n      mload(0x40)\n      swap1\n      dup2\n      add\n      0x40\n      mstore\n      dup1\n      swap3\n      swap2\n      swap1\n      dup2\n      dup2\n      mstore\n      0x20\n      add\n      dup3\n      dup1\n      sload\n      dup1\n      iszero\n      tag_139\n      jumpi\n      0x20\n      mul\n      dup3\n      add\n      swap2\n      swap1\n      0x00\n      mstore\n      keccak256(0x00, 0x20)\n      swap1\n    tag_140:\n      dup2\n      0x00\n      swap1\n      sload\n      swap1\n      0x0100\n      exp\n      swap1\n      div\n      0xffffffffffffffffffffffffffffffffffffffff\n      and\n      0xffffffffffffffffffffffffffffffffffffffff\n      and\n      dup2\n      mstore\n      0x20\n      add\n      swap1\n      0x01\n      add\n      swap1\n      dup1\n      dup4\n      gt\n      tag_140\n      jumpi\n    tag_139:\n      pop\n      pop\n      pop\n      pop\n      pop\n      dup2\n      mstore\n      0x20\n      add\n      0x03\n      dup3\n      add\n      0x00\n      swap1\n      sload\n      swap1\n      0x0100\n      exp\n      swap1\n      div\n      0xffffffff\n      and\n      0xffffffff\n      and\n      0xffffffff\n      and\n      dup2\n      mstore\n      0x20\n      add\n      0x03\n      dup3\n      add\n      0x04\n      swap1\n      sload\n      swap1\n      0x0100\n      exp\n      swap1\n      div\n      0xffffffff\n      and\n      0xffffffff\n      and\n      0xffffffff\n      and\n      dup2\n      mstore\n      0x20\n      add\n      0x03\n      dup3\n      add\n      0x08\n      swap1\n      sload\n      swap1\n      0x0100\n      exp\n      swap1\n      div\n      0xff\n      and\n      iszero\n      iszero\n      iszero\n      iszero\n      dup2\n      mstore\n      pop\n      pop\n      swap1\n      pop\n        /* \"src/voting.sol\":4743:4846  function getPollProps(uint _id) external view returns(VotingPoll memory){... */\n      swap2\n      swap1\n      pop\n      jump\t// out\n        /* \"src/voting.sol\":4851:5066  function metaVotingHash(address Cand, uint _id, uint256 nonce, uint256 time) public view returns(bytes32){... */\n    tag_56:\n        /* \"src/voting.sol\":4948:4955  bytes32 */\n      0x00\n        /* \"src/voting.sol\":5004:5008  this */\n      address\n        /* \"src/voting.sol\":5037:5041  Cand */\n      dup6\n        /* \"src/voting.sol\":5043:5046  _id */\n      dup6\n        /* \"src/voting.sol\":5048:5053  nonce */\n      dup6\n        /* \"src/voting.sol\":5055:5059  time */\n      dup6\n        /* \"src/voting.sol\":4979:5060  abi.encodePacked(address(this),\"metatransaction Voting \", Cand, _id, nonce, time) */\n      add(0x20, mload(0x40))\n      tag_142\n      swap6\n      swap5\n      swap4\n      swap3\n      swap2\n      swap1\n      tag_143\n      jump\t// in\n    tag_142:\n      mload(0x40)\n      0x20\n      dup2\n      dup4\n      sub\n      sub\n      dup2\n      mstore\n      swap1\n      0x40\n      mstore\n        /* \"src/voting.sol\":4969:5061  keccak256(abi.encodePacked(address(this),\"metatransaction Voting \", Cand, _id, nonce, time)) */\n      dup1\n      mload\n      swap1\n      0x20\n      add\n      keccak256\n        /* \"src/voting.sol\":4962:5061  return keccak256(abi.encodePacked(address(this),\"metatransaction Voting \", Cand, _id, nonce, time)) */\n      swap1\n      pop\n        /* \"src/voting.sol\":4851:5066  function metaVotingHash(address Cand, uint _id, uint256 nonce, uint256 time) public view returns(bytes32){... */\n      swap5\n      swap4\n      pop\n      pop\n      pop\n      pop\n      jump\t// out\n        /* \"src/voting.sol\":2494:2986  function vote(address Cand, uint _id, uint256 nonce, bytes memory signature) external  isCandidate(Cand, _id) StillVoting(_id){... */\n    tag_62:\n        /* \"src/voting.sol\":2593:2597  Cand */\n      dup4\n        /* \"src/voting.sol\":2599:2602  _id */\n      dup4\n        /* \"src/voting.sol\":1269:1273  true */\n      0x01\n        /* \"src/voting.sol\":1241:1273  CandidateStatus[_id][Cand]==true */\n      iszero\n      iszero\n        /* \"src/voting.sol\":1241:1256  CandidateStatus */\n      0x04\n        /* \"src/voting.sol\":1241:1261  CandidateStatus[_id] */\n      0x00\n        /* \"src/voting.sol\":1257:1260  _id */\n      dup4\n        /* \"src/voting.sol\":1241:1261  CandidateStatus[_id] */\n      dup2\n      mstore\n      0x20\n      add\n      swap1\n      dup2\n      mstore\n      0x20\n      add\n      0x00\n      keccak256\n        /* \"src/voting.sol\":1241:1267  CandidateStatus[_id][Cand] */\n      0x00\n        /* \"src/voting.sol\":1262:1266  Cand */\n      dup5\n        /* \"src/voting.sol\":1241:1267  CandidateStatus[_id][Cand] */\n      0xffffffffffffffffffffffffffffffffffffffff\n      and\n      0xffffffffffffffffffffffffffffffffffffffff\n      and\n      dup2\n      mstore\n      0x20\n      add\n      swap1\n      dup2\n      mstore\n      0x20\n      add\n      0x00\n      keccak256\n      0x00\n      swap1\n      sload\n      swap1\n      0x0100\n      exp\n      swap1\n      div\n      0xff\n      and\n        /* \"src/voting.sol\":1241:1273  CandidateStatus[_id][Cand]==true */\n      iszero\n      iszero\n      eq\n        /* \"src/voting.sol\":1233:1319  require(CandidateStatus[_id][Cand]==true,'This address does not exist as a candidate') */\n      tag_145\n      jumpi\n      mload(0x40)\n      0x08c379a000000000000000000000000000000000000000000000000000000000\n      dup2\n      mstore\n      0x04\n      add\n      tag_146\n      swap1\n      tag_147\n      jump\t// in\n    tag_146:\n      mload(0x40)\n      dup1\n      swap2\n      sub\n      swap1\n      revert\n    tag_145:\n        /* \"src/voting.sol\":2616:2619  _id */\n      dup5\n        /* \"src/voting.sol\":1369:1390  VotingPoll storage VP */\n      0x00\n        /* \"src/voting.sol\":1393:1403  votingPoll */\n      0x02\n        /* \"src/voting.sol\":1393:1408  votingPoll[_id] */\n      0x00\n        /* \"src/voting.sol\":1404:1407  _id */\n      dup4\n        /* \"src/voting.sol\":1393:1408  votingPoll[_id] */\n      dup2\n      mstore\n      0x20\n      add\n      swap1\n      dup2\n      mstore\n      0x20\n      add\n      0x00\n      keccak256\n        /* \"src/voting.sol\":1369:1408  VotingPoll storage VP = votingPoll[_id] */\n      swap1\n      pop\n        /* \"src/voting.sol\":1435:1439  true */\n      0x01\n        /* \"src/voting.sol\":1422:1439  VP.voting == true */\n      iszero\n      iszero\n        /* \"src/voting.sol\":1422:1424  VP */\n      dup2\n        /* \"src/voting.sol\":1422:1431  VP.voting */\n      0x03\n      add\n      0x08\n      swap1\n      sload\n      swap1\n      0x0100\n      exp\n      swap1\n      div\n      0xff\n      and\n        /* \"src/voting.sol\":1422:1439  VP.voting == true */\n      iszero\n      iszero\n      eq\n        /* \"src/voting.sol\":1414:1460  require(VP.voting == true, \"voting has ended\") */\n      tag_149\n      jumpi\n      mload(0x40)\n      0x08c379a000000000000000000000000000000000000000000000000000000000\n      dup2\n      mstore\n      0x04\n      add\n      tag_150\n      swap1\n      tag_151\n      jump\t// in\n    tag_150:\n      mload(0x40)\n      dup1\n      swap2\n      sub\n      swap1\n      revert\n    tag_149:\n        /* \"src/voting.sol\":2627:2643  bytes32 metaHash */\n      0x00\n        /* \"src/voting.sol\":2646:2692  metaVotingHash(Cand,_id,nonce,block.timestamp) */\n      tag_153\n        /* \"src/voting.sol\":2661:2665  Cand */\n      dup10\n        /* \"src/voting.sol\":2666:2669  _id */\n      dup10\n        /* \"src/voting.sol\":2670:2675  nonce */\n      dup10\n        /* \"src/voting.sol\":2676:2691  block.timestamp */\n      timestamp\n        /* \"src/voting.sol\":2646:2660  metaVotingHash */\n      tag_56\n        /* \"src/voting.sol\":2646:2692  metaVotingHash(Cand,_id,nonce,block.timestamp) */\n      jump\t// in\n    tag_153:\n        /* \"src/voting.sol\":2627:2692  bytes32 metaHash = metaVotingHash(Cand,_id,nonce,block.timestamp) */\n      swap1\n      pop\n        /* \"src/voting.sol\":2699:2713  address signer */\n      0x00\n        /* \"src/voting.sol\":2716:2745  getSigner(metaHash,signature) */\n      tag_154\n        /* \"src/voting.sol\":2726:2734  metaHash */\n      dup3\n        /* \"src/voting.sol\":2735:2744  signature */\n      dup9\n        /* \"src/voting.sol\":2716:2725  getSigner */\n      tag_155\n        /* \"src/voting.sol\":2716:2745  getSigner(metaHash,signature) */\n      jump\t// in\n    tag_154:\n        /* \"src/voting.sol\":2699:2745  address signer = getSigner(metaHash,signature) */\n      swap1\n      pop\n        /* \"src/voting.sol\":2776:2777  0 */\n      0x00\n        /* \"src/voting.sol\":2760:2778  signer!=address(0) */\n      0xffffffffffffffffffffffffffffffffffffffff\n      and\n        /* \"src/voting.sol\":2760:2766  signer */\n      dup2\n        /* \"src/voting.sol\":2760:2778  signer!=address(0) */\n      0xffffffffffffffffffffffffffffffffffffffff\n      and\n      eq\n      iszero\n        /* \"src/voting.sol\":2752:2779  require(signer!=address(0)) */\n      tag_156\n      jumpi\n      0x00\n      dup1\n      revert\n    tag_156:\n        /* \"src/voting.sol\":2802:2813  replayNonce */\n      0x03\n        /* \"src/voting.sol\":2802:2821  replayNonce[signer] */\n      0x00\n        /* \"src/voting.sol\":2814:2820  signer */\n      dup3\n        /* \"src/voting.sol\":2802:2821  replayNonce[signer] */\n      0xffffffffffffffffffffffffffffffffffffffff\n      and\n      0xffffffffffffffffffffffffffffffffffffffff\n      and\n      dup2\n      mstore\n      0x20\n      add\n      swap1\n      dup2\n      mstore\n      0x20\n      add\n      0x00\n      keccak256\n      sload\n        /* \"src/voting.sol\":2793:2798  nonce */\n      dup9\n        /* \"src/voting.sol\":2793:2821  nonce == replayNonce[signer] */\n      eq\n        /* \"src/voting.sol\":2785:2822  require(nonce == replayNonce[signer]) */\n      tag_157\n      jumpi\n      0x00\n      dup1\n      revert\n    tag_157:\n        /* \"src/voting.sol\":2828:2839  replayNonce */\n      0x03\n        /* \"src/voting.sol\":2828:2847  replayNonce[signer] */\n      0x00\n        /* \"src/voting.sol\":2840:2846  signer */\n      dup3\n        /* \"src/voting.sol\":2828:2847  replayNonce[signer] */\n      0xffffffffffffffffffffffffffffffffffffffff\n      and\n      0xffffffffffffffffffffffffffffffffffffffff\n      and\n      dup2\n      mstore\n      0x20\n      add\n      swap1\n      dup2\n      mstore\n      0x20\n      add\n      0x00\n      keccak256\n      0x00\n        /* \"src/voting.sol\":2828:2849  replayNonce[signer]++ */\n      dup2\n      sload\n      dup1\n      swap3\n      swap2\n      swap1\n      tag_158\n      swap1\n      tag_122\n      jump\t// in\n    tag_158:\n      swap2\n      swap1\n      pop\n      sstore\n      pop\n        /* \"src/voting.sol\":2889:2894  false */\n      0x00\n        /* \"src/voting.sol\":2864:2894  hasVoted[_id][signer] == false */\n      iszero\n      iszero\n        /* \"src/voting.sol\":2864:2872  hasVoted */\n      0x06\n        /* \"src/voting.sol\":2864:2877  hasVoted[_id] */\n      0x00\n        /* \"src/voting.sol\":2873:2876  _id */\n      dup12\n        /* \"src/voting.sol\":2864:2877  hasVoted[_id] */\n      dup2\n      mstore\n      0x20\n      add\n      swap1\n      dup2\n      mstore\n      0x20\n      add\n      0x00\n      keccak256\n        /* \"src/voting.sol\":2864:2885  hasVoted[_id][signer] */\n      0x00\n        /* \"src/voting.sol\":2878:2884  signer */\n      dup4\n        /* \"src/voting.sol\":2864:2885  hasVoted[_id][signer] */\n      0xffffffffffffffffffffffffffffffffffffffff\n      and\n      0xffffffffffffffffffffffffffffffffffffffff\n      and\n      dup2\n      mstore\n      0x20\n      add\n      swap1\n      dup2\n      mstore\n      0x20\n      add\n      0x00\n      keccak256\n      0x00\n      swap1\n      sload\n      swap1\n      0x0100\n      exp\n      swap1\n      div\n      0xff\n      and\n        /* \"src/voting.sol\":2864:2894  hasVoted[_id][signer] == false */\n      iszero\n      iszero\n      eq\n        /* \"src/voting.sol\":2856:2916  require(hasVoted[_id][signer] == false, \"You already voted\") */\n      tag_159\n      jumpi\n      mload(0x40)\n      0x08c379a000000000000000000000000000000000000000000000000000000000\n      dup2\n      mstore\n      0x04\n      add\n      tag_160\n      swap1\n      tag_161\n      jump\t// in\n    tag_160:\n      mload(0x40)\n      dup1\n      swap2\n      sub\n      swap1\n      revert\n    tag_159:\n        /* \"src/voting.sol\":2924:2952  countVote(Cand, _id, signer) */\n      tag_162\n        /* \"src/voting.sol\":2934:2938  Cand */\n      dup11\n        /* \"src/voting.sol\":2940:2943  _id */\n      dup11\n        /* \"src/voting.sol\":2945:2951  signer */\n      dup4\n        /* \"src/voting.sol\":2924:2933  countVote */\n      tag_163\n        /* \"src/voting.sol\":2924:2952  countVote(Cand, _id, signer) */\n      jump\t// in\n    tag_162:\n      pop\n        /* \"src/voting.sol\":2964:2981  voted(Cand, true) */\n      0xf3f16a15f074b71c5138107dfc7c63b80524d5411cb967caa97d8d9f12b2fd6b\n        /* \"src/voting.sol\":2970:2974  Cand */\n      dup11\n        /* \"src/voting.sol\":2976:2980  true */\n      0x01\n        /* \"src/voting.sol\":2964:2981  voted(Cand, true) */\n      mload(0x40)\n      tag_164\n      swap3\n      swap2\n      swap1\n      tag_165\n      jump\t// in\n    tag_164:\n      mload(0x40)\n      dup1\n      swap2\n      sub\n      swap1\n      log1\n        /* \"src/voting.sol\":2620:2986  {... */\n      pop\n      pop\n        /* \"src/voting.sol\":1363:1471  {... */\n      pop\n        /* \"src/voting.sol\":1325:1326  _ */\n      pop\n        /* \"src/voting.sol\":2494:2986  function vote(address Cand, uint _id, uint256 nonce, bytes memory signature) external  isCandidate(Cand, _id) StillVoting(_id){... */\n      pop\n      pop\n      pop\n      pop\n      pop\n      pop\n      jump\t// out\n        /* \"src/voting.sol\":3185:3407  function setVotingState( uint _id) external {... */\n    tag_65:\n        /* \"src/voting.sol\":3235:3256  VotingPoll storage VP */\n      0x00\n        /* \"src/voting.sol\":3259:3269  votingPoll */\n      0x02\n        /* \"src/voting.sol\":3259:3274  votingPoll[_id] */\n      0x00\n        /* \"src/voting.sol\":3270:3273  _id */\n      dup4\n        /* \"src/voting.sol\":3259:3274  votingPoll[_id] */\n      dup2\n      mstore\n      0x20\n      add\n      swap1\n      dup2\n      mstore\n      0x20\n      add\n      0x00\n      keccak256\n        /* \"src/voting.sol\":3235:3274  VotingPoll storage VP = votingPoll[_id] */\n      swap1\n      pop\n        /* \"src/voting.sol\":3303:3313  msg.sender */\n      caller\n        /* \"src/voting.sol\":3288:3313  VP.chairman == msg.sender */\n      0xffffffffffffffffffffffffffffffffffffffff\n      and\n        /* \"src/voting.sol\":3288:3290  VP */\n      dup2\n        /* \"src/voting.sol\":3288:3299  VP.chairman */\n      0x01\n      add\n      0x00\n      swap1\n      sload\n      swap1\n      0x0100\n      exp\n      swap1\n      div\n      0xffffffffffffffffffffffffffffffffffffffff\n      and\n        /* \"src/voting.sol\":3288:3313  VP.chairman == msg.sender */\n      0xffffffffffffffffffffffffffffffffffffffff\n      and\n      eq\n        /* \"src/voting.sol\":3280:3334  require(VP.chairman == msg.sender, \"not the chairman\") */\n      tag_167\n      jumpi\n      mload(0x40)\n      0x08c379a000000000000000000000000000000000000000000000000000000000\n      dup2\n      mstore\n      0x04\n      add\n      tag_168\n      swap1\n      tag_169\n      jump\t// in\n    tag_168:\n      mload(0x40)\n      dup1\n      swap2\n      sub\n      swap1\n      revert\n    tag_167:\n        /* \"src/voting.sol\":3360:3362  VP */\n      dup1\n        /* \"src/voting.sol\":3360:3369  VP.voting */\n      0x03\n      add\n      0x08\n      swap1\n      sload\n      swap1\n      0x0100\n      exp\n      swap1\n      div\n      0xff\n      and\n        /* \"src/voting.sol\":3358:3370  !(VP.voting) */\n      iszero\n        /* \"src/voting.sol\":3346:3348  VP */\n      dup2\n        /* \"src/voting.sol\":3346:3355  VP.voting */\n      0x03\n      add\n      0x08\n        /* \"src/voting.sol\":3346:3370  VP.voting = !(VP.voting) */\n      0x0100\n      exp\n      dup2\n      sload\n      dup2\n      0xff\n      mul\n      not\n      and\n      swap1\n      dup4\n      iszero\n      iszero\n      mul\n      or\n      swap1\n      sstore\n      pop\n        /* \"src/voting.sol\":3393:3395  VP */\n      dup1\n        /* \"src/voting.sol\":3393:3402  VP.voting */\n      0x03\n      add\n      0x08\n      swap1\n      sload\n      swap1\n      0x0100\n      exp\n      swap1\n      div\n      0xff\n      and\n        /* \"src/voting.sol\":3382:3403  voteStatus(VP.voting) */\n      iszero\n      iszero\n      0x7b224db641892626dca6975b376f464e9ac52ccfa180436175170c009b94dcd7\n      mload(0x40)\n      mload(0x40)\n      dup1\n      swap2\n      sub\n      swap1\n      log2\n        /* \"src/voting.sol\":3229:3407  {... */\n      pop\n        /* \"src/voting.sol\":3185:3407  function setVotingState( uint _id) external {... */\n      pop\n      jump\t// out\n        /* \"src/voting.sol\":552:597  mapping(uint => VotingPoll) public votingPoll */\n    tag_68:\n      mstore(0x20, 0x02)\n      dup1\n      0x00\n      mstore\n      keccak256(0x00, 0x40)\n      0x00\n      swap2\n      pop\n      swap1\n      pop\n      dup1\n      0x00\n      add\n      dup1\n      sload\n      tag_170\n      swap1\n      tag_126\n      jump\t// in\n    tag_170:\n      dup1\n      0x1f\n      add\n      0x20\n      dup1\n      swap2\n      div\n      mul\n      0x20\n      add\n      mload(0x40)\n      swap1\n      dup2\n      add\n      0x40\n      mstore\n      dup1\n      swap3\n      swap2\n      swap1\n      dup2\n      dup2\n      mstore\n      0x20\n      add\n      dup3\n      dup1\n      sload\n      tag_171\n      swap1\n      tag_126\n      jump\t// in\n    tag_171:\n      dup1\n      iszero\n      tag_172\n      jumpi\n      dup1\n      0x1f\n      lt\n      tag_173\n      jumpi\n      0x0100\n      dup1\n      dup4\n      sload\n      div\n      mul\n      dup4\n      mstore\n      swap2\n      0x20\n      add\n      swap2\n      jump(tag_172)\n    tag_173:\n      dup3\n      add\n      swap2\n      swap1\n      0x00\n      mstore\n      keccak256(0x00, 0x20)\n      swap1\n    tag_174:\n      dup2\n      sload\n      dup2\n      mstore\n      swap1\n      0x01\n      add\n      swap1\n      0x20\n      add\n      dup1\n      dup4\n      gt\n      tag_174\n      jumpi\n      dup3\n      swap1\n      sub\n      0x1f\n      and\n      dup3\n      add\n      swap2\n    tag_172:\n      pop\n      pop\n      pop\n      pop\n      pop\n      swap1\n      dup1\n      0x01\n      add\n      0x00\n      swap1\n      sload\n      swap1\n      0x0100\n      exp\n      swap1\n      div\n      0xffffffffffffffffffffffffffffffffffffffff\n      and\n      swap1\n      dup1\n      0x03\n      add\n      0x00\n      swap1\n      sload\n      swap1\n      0x0100\n      exp\n      swap1\n      div\n      0xffffffff\n      and\n      swap1\n      dup1\n      0x03\n      add\n      0x04\n      swap1\n      sload\n      swap1\n      0x0100\n      exp\n      swap1\n      div\n      0xffffffff\n      and\n      swap1\n      dup1\n      0x03\n      add\n      0x08\n      swap1\n      sload\n      swap1\n      0x0100\n      exp\n      swap1\n      div\n      0xff\n      and\n      swap1\n      pop\n      dup6\n      jump\t// out\n        /* \"src/voting.sol\":1607:1986  function createPoll(string memory _name, uint32 ExpectedNoOfCandidate) external returns(VotingPoll[] memory ){... */\n    tag_73:\n        /* \"src/voting.sol\":1695:1714  VotingPoll[] memory */\n      0x60\n        /* \"src/voting.sol\":1722:1743  VotingPoll storage VP */\n      0x00\n        /* \"src/voting.sol\":1746:1756  votingPoll */\n      0x02\n        /* \"src/voting.sol\":1746:1760  votingPoll[id] */\n      0x00\n        /* \"src/voting.sol\":1757:1759  id */\n      dup1\n      sload\n        /* \"src/voting.sol\":1746:1760  votingPoll[id] */\n      dup2\n      mstore\n      0x20\n      add\n      swap1\n      dup2\n      mstore\n      0x20\n      add\n      0x00\n      keccak256\n        /* \"src/voting.sol\":1722:1760  VotingPoll storage VP = votingPoll[id] */\n      swap1\n      pop\n        /* \"src/voting.sol\":1776:1781  _name */\n      dup4\n        /* \"src/voting.sol\":1766:1768  VP */\n      dup2\n        /* \"src/voting.sol\":1766:1773  VP.name */\n      0x00\n      add\n        /* \"src/voting.sol\":1766:1781  VP.name = _name */\n      swap1\n      dup1\n      mload\n      swap1\n      0x20\n      add\n      swap1\n      tag_176\n      swap3\n      swap2\n      swap1\n      tag_177\n      jump\t// in\n    tag_176:\n      pop\n        /* \"src/voting.sol\":1801:1811  msg.sender */\n      caller\n        /* \"src/voting.sol\":1787:1789  VP */\n      dup2\n        /* \"src/voting.sol\":1787:1798  VP.chairman */\n      0x01\n      add\n      0x00\n        /* \"src/voting.sol\":1787:1811  VP.chairman = msg.sender */\n      0x0100\n      exp\n      dup2\n      sload\n      dup2\n      0xffffffffffffffffffffffffffffffffffffffff\n      mul\n      not\n      and\n      swap1\n      dup4\n      0xffffffffffffffffffffffffffffffffffffffff\n      and\n      mul\n      or\n      swap1\n      sstore\n      pop\n        /* \"src/voting.sol\":1839:1860  ExpectedNoOfCandidate */\n      dup3\n        /* \"src/voting.sol\":1817:1819  VP */\n      dup2\n        /* \"src/voting.sol\":1817:1837  VP.maxNoOfCandidates */\n      0x03\n      add\n      0x00\n        /* \"src/voting.sol\":1817:1860  VP.maxNoOfCandidates =ExpectedNoOfCandidate */\n      0x0100\n      exp\n      dup2\n      sload\n      dup2\n      0xffffffff\n      mul\n      not\n      and\n      swap1\n      dup4\n      0xffffffff\n      and\n      mul\n      or\n      swap1\n      sstore\n      pop\n        /* \"src/voting.sol\":1866:1875  VotingKey */\n      0x01\n        /* \"src/voting.sol\":1881:1883  VP */\n      dup2\n        /* \"src/voting.sol\":1866:1884  VotingKey.push(VP) */\n      swap1\n      dup1\n      0x01\n      dup2\n      sload\n      add\n      dup1\n      dup3\n      sstore\n      dup1\n      swap2\n      pop\n      pop\n      0x01\n      swap1\n      sub\n      swap1\n      0x00\n      mstore\n      keccak256(0x00, 0x20)\n      swap1\n      0x04\n      mul\n      add\n      0x00\n      swap1\n      swap2\n      swap1\n      swap2\n      swap1\n      swap2\n      pop\n      0x00\n      dup3\n      add\n      dup2\n      0x00\n      add\n      swap1\n      dup1\n      sload\n      tag_179\n      swap1\n      tag_126\n      jump\t// in\n    tag_179:\n      tag_180\n      swap3\n      swap2\n      swap1\n      tag_181\n      jump\t// in\n    tag_180:\n      pop\n      0x01\n      dup3\n      add\n      0x00\n      swap1\n      sload\n      swap1\n      0x0100\n      exp\n      swap1\n      div\n      0xffffffffffffffffffffffffffffffffffffffff\n      and\n      dup2\n      0x01\n      add\n      exp(0x0100, 0x00)\n      dup2\n      sload\n      dup2\n      0xffffffffffffffffffffffffffffffffffffffff\n      mul\n      not\n      and\n      swap1\n      dup4\n      0xffffffffffffffffffffffffffffffffffffffff\n      and\n      mul\n      or\n      swap1\n      sstore\n      pop\n      0x02\n      dup3\n      add\n      dup2\n      0x02\n      add\n      swap1\n      dup1\n      sload\n      tag_182\n      swap3\n      swap2\n      swap1\n      tag_183\n      jump\t// in\n    tag_182:\n      pop\n      0x03\n      dup3\n      add\n      0x00\n      swap1\n      sload\n      swap1\n      0x0100\n      exp\n      swap1\n      div\n      0xffffffff\n      and\n      dup2\n      0x03\n      add\n      exp(0x0100, 0x00)\n      dup2\n      sload\n      dup2\n      0xffffffff\n      mul\n      not\n      and\n      swap1\n      dup4\n      0xffffffff\n      and\n      mul\n      or\n      swap1\n      sstore\n      pop\n      0x03\n      dup3\n      add\n      0x04\n      swap1\n      sload\n      swap1\n      0x0100\n      exp\n      swap1\n      div\n      0xffffffff\n      and\n      dup2\n      0x03\n      add\n      exp(0x0100, 0x04)\n      dup2\n      sload\n      dup2\n      0xffffffff\n      mul\n      not\n      and\n      swap1\n      dup4\n      0xffffffff\n      and\n      mul\n      or\n      swap1\n      sstore\n      pop\n      0x03\n      dup3\n      add\n      0x08\n      swap1\n      sload\n      swap1\n      0x0100\n      exp\n      swap1\n      div\n      0xff\n      and\n      dup2\n      0x03\n      add\n      exp(0x0100, 0x08)\n      dup2\n      sload\n      dup2\n      0xff\n      mul\n      not\n      and\n      swap1\n      dup4\n      iszero\n      iszero\n      mul\n      or\n      swap1\n      sstore\n      pop\n      pop\n      pop\n        /* \"src/voting.sol\":1890:1892  id */\n      0x00\n      dup1\n        /* \"src/voting.sol\":1890:1894  id++ */\n      dup2\n      sload\n      dup1\n      swap3\n      swap2\n      swap1\n      tag_184\n      swap1\n      tag_122\n      jump\t// in\n    tag_184:\n      swap2\n      swap1\n      pop\n      sstore\n      pop\n        /* \"src/voting.sol\":1947:1949  VP */\n      dup1\n        /* \"src/voting.sol\":1947:1958  VP.chairman */\n      0x01\n      add\n      0x00\n      swap1\n      sload\n      swap1\n      0x0100\n      exp\n      swap1\n      div\n      0xffffffffffffffffffffffffffffffffffffffff\n      and\n        /* \"src/voting.sol\":1905:1959  pollCreated( _name, VP.maxNoOfCandidates, VP.chairman) */\n      0xffffffffffffffffffffffffffffffffffffffff\n      and\n        /* \"src/voting.sol\":1925:1927  VP */\n      dup2\n        /* \"src/voting.sol\":1925:1945  VP.maxNoOfCandidates */\n      0x03\n      add\n      0x00\n      swap1\n      sload\n      swap1\n      0x0100\n      exp\n      swap1\n      div\n      0xffffffff\n      and\n        /* \"src/voting.sol\":1905:1959  pollCreated( _name, VP.maxNoOfCandidates, VP.chairman) */\n      0xffffffff\n      and\n        /* \"src/voting.sol\":1918:1923  _name */\n      dup6\n        /* \"src/voting.sol\":1905:1959  pollCreated( _name, VP.maxNoOfCandidates, VP.chairman) */\n      mload(0x40)\n      tag_185\n      swap2\n      swap1\n      tag_186\n      jump\t// in\n    tag_185:\n      mload(0x40)\n      dup1\n      swap2\n      sub\n      swap1\n      keccak256\n      0x4b35e5cf01446aa899a8d21082ebf23b7497d38f2466ad49836bd1006a8d059e\n      mload(0x40)\n      mload(0x40)\n      dup1\n      swap2\n      sub\n      swap1\n      log4\n        /* \"src/voting.sol\":1973:1982  VotingKey */\n      0x01\n        /* \"src/voting.sol\":1966:1983  return(VotingKey) */\n      dup1\n      sload\n      dup1\n      0x20\n      mul\n      0x20\n      add\n      mload(0x40)\n      swap1\n      dup2\n      add\n      0x40\n      mstore\n      dup1\n      swap3\n      swap2\n      swap1\n      dup2\n      dup2\n      mstore\n      0x20\n      add\n      0x00\n      swap1\n    tag_187:\n      dup3\n      dup3\n      lt\n      iszero\n      tag_188\n      jumpi\n      dup4\n      dup3\n      swap1\n      0x00\n      mstore\n      keccak256(0x00, 0x20)\n      swap1\n      0x04\n      mul\n      add\n      mload(0x40)\n      dup1\n      0xc0\n      add\n      0x40\n      mstore\n      swap1\n      dup2\n      0x00\n      dup3\n      add\n      dup1\n      sload\n      tag_190\n      swap1\n      tag_126\n      jump\t// in\n    tag_190:\n      dup1\n      0x1f\n      add\n      0x20\n      dup1\n      swap2\n      div\n      mul\n      0x20\n      add\n      mload(0x40)\n      swap1\n      dup2\n      add\n      0x40\n      mstore\n      dup1\n      swap3\n      swap2\n      swap1\n      dup2\n      dup2\n      mstore\n      0x20\n      add\n      dup3\n      dup1\n      sload\n      tag_191\n      swap1\n      tag_126\n      jump\t// in\n    tag_191:\n      dup1\n      iszero\n      tag_192\n      jumpi\n      dup1\n      0x1f\n      lt\n      tag_193\n      jumpi\n      0x0100\n      dup1\n      dup4\n      sload\n      div\n      mul\n      dup4\n      mstore\n      swap2\n      0x20\n      add\n      swap2\n      jump(tag_192)\n    tag_193:\n      dup3\n      add\n      swap2\n      swap1\n      0x00\n      mstore\n      keccak256(0x00, 0x20)\n      swap1\n    tag_194:\n      dup2\n      sload\n      dup2\n      mstore\n      swap1\n      0x01\n      add\n      swap1\n      0x20\n      add\n      dup1\n      dup4\n      gt\n      tag_194\n      jumpi\n      dup3\n      swap1\n      sub\n      0x1f\n      and\n      dup3\n      add\n      swap2\n    tag_192:\n      pop\n      pop\n      pop\n      pop\n      pop\n      dup2\n      mstore\n      0x20\n      add\n      0x01\n      dup3\n      add\n      0x00\n      swap1\n      sload\n      swap1\n      0x0100\n      exp\n      swap1\n      div\n      0xffffffffffffffffffffffffffffffffffffffff\n      and\n      0xffffffffffffffffffffffffffffffffffffffff\n      and\n      0xffffffffffffffffffffffffffffffffffffffff\n      and\n      dup2\n      mstore\n      0x20\n      add\n      0x02\n      dup3\n      add\n      dup1\n      sload\n      dup1\n      0x20\n      mul\n      0x20\n      add\n      mload(0x40)\n      swap1\n      dup2\n      add\n      0x40\n      mstore\n      dup1\n      swap3\n      swap2\n      swap1\n      dup2\n      dup2\n      mstore\n      0x20\n      add\n      dup3\n      dup1\n      sload\n      dup1\n      iszero\n      tag_195\n      jumpi\n      0x20\n      mul\n      dup3\n      add\n      swap2\n      swap1\n      0x00\n      mstore\n      keccak256(0x00, 0x20)\n      swap1\n    tag_196:\n      dup2\n      0x00\n      swap1\n      sload\n      swap1\n      0x0100\n      exp\n      swap1\n      div\n      0xffffffffffffffffffffffffffffffffffffffff\n      and\n      0xffffffffffffffffffffffffffffffffffffffff\n      and\n      dup2\n      mstore\n      0x20\n      add\n      swap1\n      0x01\n      add\n      swap1\n      dup1\n      dup4\n      gt\n      tag_196\n      jumpi\n    tag_195:\n      pop\n      pop\n      pop\n      pop\n      pop\n      dup2\n      mstore\n      0x20\n      add\n      0x03\n      dup3\n      add\n      0x00\n      swap1\n      sload\n      swap1\n      0x0100\n      exp\n      swap1\n      div\n      0xffffffff\n      and\n      0xffffffff\n      and\n      0xffffffff\n      and\n      dup2\n      mstore\n      0x20\n      add\n      0x03\n      dup3\n      add\n      0x04\n      swap1\n      sload\n      swap1\n      0x0100\n      exp\n      swap1\n      div\n      0xffffffff\n      and\n      0xffffffff\n      and\n      0xffffffff\n      and\n      dup2\n      mstore\n      0x20\n      add\n      0x03\n      dup3\n      add\n      0x08\n      swap1\n      sload\n      swap1\n      0x0100\n      exp\n      swap1\n      div\n      0xff\n      and\n      iszero\n      iszero\n      iszero\n      iszero\n      dup2\n      mstore\n      pop\n      pop\n      dup2\n      mstore\n      0x20\n      add\n      swap1\n      0x01\n      add\n      swap1\n      jump(tag_187)\n    tag_188:\n      pop\n      pop\n      pop\n      pop\n      swap2\n      pop\n      pop\n        /* \"src/voting.sol\":1607:1986  function createPoll(string memory _name, uint32 ExpectedNoOfCandidate) external returns(VotingPoll[] memory ){... */\n      swap3\n      swap2\n      pop\n      pop\n      jump\t// out\n        /* \"src/voting.sol\":4499:4740  function getStructProps() external view returns(VotingPoll[] memory RVP){... */\n    tag_77:\n        /* \"src/voting.sol\":4547:4570  VotingPoll[] memory RVP */\n      0x60\n        /* \"src/voting.sol\":4599:4608  VotingKey */\n      0x01\n        /* \"src/voting.sol\":4599:4615  VotingKey.length */\n      dup1\n      sload\n      swap1\n      pop\n        /* \"src/voting.sol\":4581:4616  new  VotingPoll[](VotingKey.length) */\n      0xffffffffffffffff\n      dup2\n      gt\n      iszero\n      tag_198\n      jumpi\n      tag_199\n      tag_104\n      jump\t// in\n    tag_199:\n    tag_198:\n      mload(0x40)\n      swap1\n      dup1\n      dup3\n      mstore\n      dup1\n      0x20\n      mul\n      0x20\n      add\n      dup3\n      add\n      0x40\n      mstore\n      dup1\n      iszero\n      tag_200\n      jumpi\n      dup2\n      0x20\n      add\n    tag_201:\n      tag_202\n      tag_132\n      jump\t// in\n    tag_202:\n      dup2\n      mstore\n      0x20\n      add\n      swap1\n      0x01\n      swap1\n      sub\n      swap1\n      dup2\n      tag_201\n      jumpi\n      swap1\n      pop\n    tag_200:\n      pop\n        /* \"src/voting.sol\":4575:4616  RVP = new  VotingPoll[](VotingKey.length) */\n      swap1\n      pop\n        /* \"src/voting.sol\":4625:4631  uint i */\n      0x00\n        /* \"src/voting.sol\":4620:4737  for (uint i = 0; i <= VotingKey.length; i++){... */\n    tag_203:\n        /* \"src/voting.sol\":4642:4651  VotingKey */\n      0x01\n        /* \"src/voting.sol\":4642:4658  VotingKey.length */\n      dup1\n      sload\n      swap1\n      pop\n        /* \"src/voting.sol\":4637:4638  i */\n      dup2\n        /* \"src/voting.sol\":4637:4658  i <= VotingKey.length */\n      gt\n        /* \"src/voting.sol\":4620:4737  for (uint i = 0; i <= VotingKey.length; i++){... */\n      tag_204\n      jumpi\n        /* \"src/voting.sol\":4670:4691  VotingPoll storage VP */\n      0x00\n        /* \"src/voting.sol\":4694:4704  votingPoll */\n      0x02\n        /* \"src/voting.sol\":4694:4709  votingPoll[i++] */\n      0x00\n        /* \"src/voting.sol\":4705:4708  i++ */\n      dup4\n      dup1\n      tag_206\n      swap1\n      tag_122\n      jump\t// in\n    tag_206:\n      swap5\n      pop\n        /* \"src/voting.sol\":4694:4709  votingPoll[i++] */\n      dup2\n      mstore\n      0x20\n      add\n      swap1\n      dup2\n      mstore\n      0x20\n      add\n      0x00\n      keccak256\n        /* \"src/voting.sol\":4670:4709  VotingPoll storage VP = votingPoll[i++] */\n      swap1\n      pop\n        /* \"src/voting.sol\":4724:4726  VP */\n      dup1\n        /* \"src/voting.sol\":4715:4726  RVP[i] = VP */\n      mload(0x40)\n      dup1\n      0xc0\n      add\n      0x40\n      mstore\n      swap1\n      dup2\n      0x00\n      dup3\n      add\n      dup1\n      sload\n      tag_207\n      swap1\n      tag_126\n      jump\t// in\n    tag_207:\n      dup1\n      0x1f\n      add\n      0x20\n      dup1\n      swap2\n      div\n      mul\n      0x20\n      add\n      mload(0x40)\n      swap1\n      dup2\n      add\n      0x40\n      mstore\n      dup1\n      swap3\n      swap2\n      swap1\n      dup2\n      dup2\n      mstore\n      0x20\n      add\n      dup3\n      dup1\n      sload\n      tag_208\n      swap1\n      tag_126\n      jump\t// in\n    tag_208:\n      dup1\n      iszero\n      tag_209\n      jumpi\n      dup1\n      0x1f\n      lt\n      tag_210\n      jumpi\n      0x0100\n      dup1\n      dup4\n      sload\n      div\n      mul\n      dup4\n      mstore\n      swap2\n      0x20\n      add\n      swap2\n      jump(tag_209)\n    tag_210:\n      dup3\n      add\n      swap2\n      swap1\n      0x00\n      mstore\n      keccak256(0x00, 0x20)\n      swap1\n    tag_211:\n      dup2\n      sload\n      dup2\n      mstore\n      swap1\n      0x01\n      add\n      swap1\n      0x20\n      add\n      dup1\n      dup4\n      gt\n      tag_211\n      jumpi\n      dup3\n      swap1\n      sub\n      0x1f\n      and\n      dup3\n      add\n      swap2\n    tag_209:\n      pop\n      pop\n      pop\n      pop\n      pop\n      dup2\n      mstore\n      0x20\n      add\n      0x01\n      dup3\n      add\n      0x00\n      swap1\n      sload\n      swap1\n      0x0100\n      exp\n      swap1\n      div\n      0xffffffffffffffffffffffffffffffffffffffff\n      and\n      0xffffffffffffffffffffffffffffffffffffffff\n      and\n      0xffffffffffffffffffffffffffffffffffffffff\n      and\n      dup2\n      mstore\n      0x20\n      add\n      0x02\n      dup3\n      add\n      dup1\n      sload\n      dup1\n      0x20\n      mul\n      0x20\n      add\n      mload(0x40)\n      swap1\n      dup2\n      add\n      0x40\n      mstore\n      dup1\n      swap3\n      swap2\n      swap1\n      dup2\n      dup2\n      mstore\n      0x20\n      add\n      dup3\n      dup1\n      sload\n      dup1\n      iszero\n      tag_212\n      jumpi\n      0x20\n      mul\n      dup3\n      add\n      swap2\n      swap1\n      0x00\n      mstore\n      keccak256(0x00, 0x20)\n      swap1\n    tag_213:\n      dup2\n      0x00\n      swap1\n      sload\n      swap1\n      0x0100\n      exp\n      swap1\n      div\n      0xffffffffffffffffffffffffffffffffffffffff\n      and\n      0xffffffffffffffffffffffffffffffffffffffff\n      and\n      dup2\n      mstore\n      0x20\n      add\n      swap1\n      0x01\n      add\n      swap1\n      dup1\n      dup4\n      gt\n      tag_213\n      jumpi\n    tag_212:\n      pop\n      pop\n      pop\n      pop\n      pop\n      dup2\n      mstore\n      0x20\n      add\n      0x03\n      dup3\n      add\n      0x00\n      swap1\n      sload\n      swap1\n      0x0100\n      exp\n      swap1\n      div\n      0xffffffff\n      and\n      0xffffffff\n      and\n      0xffffffff\n      and\n      dup2\n      mstore\n      0x20\n      add\n      0x03\n      dup3\n      add\n      0x04\n      swap1\n      sload\n      swap1\n      0x0100\n      exp\n      swap1\n      div\n      0xffffffff\n      and\n      0xffffffff\n      and\n      0xffffffff\n      and\n      dup2\n      mstore\n      0x20\n      add\n      0x03\n      dup3\n      add\n      0x08\n      swap1\n      sload\n      swap1\n      0x0100\n      exp\n      swap1\n      div\n      0xff\n      and\n      iszero\n      iszero\n      iszero\n      iszero\n      dup2\n      mstore\n      pop\n      pop\n        /* \"src/voting.sol\":4715:4718  RVP */\n      dup4\n        /* \"src/voting.sol\":4719:4720  i */\n      dup4\n        /* \"src/voting.sol\":4715:4721  RVP[i] */\n      dup2\n      mload\n      dup2\n      lt\n      tag_214\n      jumpi\n      tag_215\n      tag_114\n      jump\t// in\n    tag_215:\n    tag_214:\n      0x20\n      mul\n      0x20\n      add\n      add\n        /* \"src/voting.sol\":4715:4726  RVP[i] = VP */\n      dup2\n      swap1\n      mstore\n      pop\n        /* \"src/voting.sol\":4664:4737  {... */\n      pop\n        /* \"src/voting.sol\":4660:4663  i++ */\n      dup1\n      dup1\n      tag_216\n      swap1\n      tag_122\n      jump\t// in\n    tag_216:\n      swap2\n      pop\n      pop\n        /* \"src/voting.sol\":4620:4737  for (uint i = 0; i <= VotingKey.length; i++){... */\n      jump(tag_203)\n    tag_204:\n      pop\n        /* \"src/voting.sol\":4499:4740  function getStructProps() external view returns(VotingPoll[] memory RVP){... */\n      swap1\n      jump\t// out\n        /* \"src/voting.sol\":4324:4496  function getPosition( uint _id, uint i) internal view returns(uint val){... */\n    tag_110:\n        /* \"src/voting.sol\":4386:4394  uint val */\n      0x00\n        /* \"src/voting.sol\":4402:4423  VotingPoll storage VP */\n      dup1\n        /* \"src/voting.sol\":4426:4436  votingPoll */\n      0x02\n        /* \"src/voting.sol\":4426:4441  votingPoll[_id] */\n      0x00\n        /* \"src/voting.sol\":4437:4440  _id */\n      dup6\n        /* \"src/voting.sol\":4426:4441  votingPoll[_id] */\n      dup2\n      mstore\n      0x20\n      add\n      swap1\n      dup2\n      mstore\n      0x20\n      add\n      0x00\n      keccak256\n        /* \"src/voting.sol\":4402:4441  VotingPoll storage VP = votingPoll[_id] */\n      swap1\n      pop\n        /* \"src/voting.sol\":4456:4469  CandidateVote */\n      0x05\n        /* \"src/voting.sol\":4456:4474  CandidateVote[_id] */\n      0x00\n        /* \"src/voting.sol\":4470:4473  _id */\n      dup6\n        /* \"src/voting.sol\":4456:4474  CandidateVote[_id] */\n      dup2\n      mstore\n      0x20\n      add\n      swap1\n      dup2\n      mstore\n      0x20\n      add\n      0x00\n      keccak256\n        /* \"src/voting.sol\":4456:4492  CandidateVote[_id][VP.candidates[i]] */\n      0x00\n        /* \"src/voting.sol\":4475:4477  VP */\n      dup3\n        /* \"src/voting.sol\":4475:4488  VP.candidates */\n      0x02\n      add\n        /* \"src/voting.sol\":4489:4490  i */\n      dup6\n        /* \"src/voting.sol\":4475:4491  VP.candidates[i] */\n      dup2\n      sload\n      dup2\n      lt\n      tag_218\n      jumpi\n      tag_219\n      tag_114\n      jump\t// in\n    tag_219:\n    tag_218:\n      swap1\n      0x00\n      mstore\n      keccak256(0x00, 0x20)\n      add\n      0x00\n      swap1\n      sload\n      swap1\n      0x0100\n      exp\n      swap1\n      div\n      0xffffffffffffffffffffffffffffffffffffffff\n      and\n        /* \"src/voting.sol\":4456:4492  CandidateVote[_id][VP.candidates[i]] */\n      0xffffffffffffffffffffffffffffffffffffffff\n      and\n      0xffffffffffffffffffffffffffffffffffffffff\n      and\n      dup2\n      mstore\n      0x20\n      add\n      swap1\n      dup2\n      mstore\n      0x20\n      add\n      0x00\n      keccak256\n      sload\n        /* \"src/voting.sol\":4450:4492  val = CandidateVote[_id][VP.candidates[i]] */\n      swap2\n      pop\n        /* \"src/voting.sol\":4395:4496  {... */\n      pop\n        /* \"src/voting.sol\":4324:4496  function getPosition( uint _id, uint i) internal view returns(uint val){... */\n      swap3\n      swap2\n      pop\n      pop\n      jump\t// out\n        /* \"src/voting.sol\":5070:5652  function getSigner(bytes32 _hash, bytes memory _signature) internal pure returns (address){... */\n    tag_155:\n        /* \"src/voting.sol\":5152:5159  address */\n      0x00\n        /* \"src/voting.sol\":5166:5175  bytes32 r */\n      dup1\n        /* \"src/voting.sol\":5181:5190  bytes32 s */\n      0x00\n        /* \"src/voting.sol\":5196:5203  uint8 v */\n      dup1\n        /* \"src/voting.sol\":5234:5236  65 */\n      0x41\n        /* \"src/voting.sol\":5213:5223  _signature */\n      dup6\n        /* \"src/voting.sol\":5213:5230  _signature.length */\n      mload\n        /* \"src/voting.sol\":5213:5236  _signature.length != 65 */\n      eq\n        /* \"src/voting.sol\":5209:5270  if (_signature.length != 65) {... */\n      tag_222\n      jumpi\n        /* \"src/voting.sol\":5261:5262  0 */\n      0x00\n        /* \"src/voting.sol\":5246:5263  return address(0) */\n      swap4\n      pop\n      pop\n      pop\n      pop\n      jump(tag_221)\n        /* \"src/voting.sol\":5209:5270  if (_signature.length != 65) {... */\n    tag_222:\n        /* \"src/voting.sol\":5319:5321  32 */\n      0x20\n        /* \"src/voting.sol\":5307:5317  _signature */\n      dup6\n        /* \"src/voting.sol\":5303:5322  add(_signature, 32) */\n      add\n        /* \"src/voting.sol\":5297:5323  mload(add(_signature, 32)) */\n      mload\n        /* \"src/voting.sol\":5292:5323  r := mload(add(_signature, 32)) */\n      swap3\n      pop\n        /* \"src/voting.sol\":5357:5359  64 */\n      0x40\n        /* \"src/voting.sol\":5345:5355  _signature */\n      dup6\n        /* \"src/voting.sol\":5341:5360  add(_signature, 64) */\n      add\n        /* \"src/voting.sol\":5335:5361  mload(add(_signature, 64)) */\n      mload\n        /* \"src/voting.sol\":5330:5361  s := mload(add(_signature, 64)) */\n      swap2\n      pop\n        /* \"src/voting.sol\":5403:5405  96 */\n      0x60\n        /* \"src/voting.sol\":5391:5401  _signature */\n      dup6\n        /* \"src/voting.sol\":5387:5406  add(_signature, 96) */\n      add\n        /* \"src/voting.sol\":5381:5407  mload(add(_signature, 96)) */\n      mload\n        /* \"src/voting.sol\":5378:5379  0 */\n      0x00\n        /* \"src/voting.sol\":5373:5408  byte(0, mload(add(_signature, 96))) */\n      byte\n        /* \"src/voting.sol\":5368:5408  v := byte(0, mload(add(_signature, 96))) */\n      swap1\n      pop\n        /* \"src/voting.sol\":5427:5429  27 */\n      0x1b\n        /* \"src/voting.sol\":5423:5424  v */\n      dup2\n        /* \"src/voting.sol\":5423:5429  v < 27 */\n      0xff\n      and\n      lt\n        /* \"src/voting.sol\":5419:5453  if (v < 27) {... */\n      iszero\n      tag_223\n      jumpi\n        /* \"src/voting.sol\":5444:5446  27 */\n      0x1b\n        /* \"src/voting.sol\":5439:5446  v += 27 */\n      dup2\n      tag_224\n      swap2\n      swap1\n      tag_225\n      jump\t// in\n    tag_224:\n      swap1\n      pop\n        /* \"src/voting.sol\":5419:5453  if (v < 27) {... */\n    tag_223:\n        /* \"src/voting.sol\":5467:5469  27 */\n      0x1b\n        /* \"src/voting.sol\":5462:5463  v */\n      dup2\n        /* \"src/voting.sol\":5462:5469  v != 27 */\n      0xff\n      and\n      eq\n      iszero\n        /* \"src/voting.sol\":5462:5480  v != 27 && v != 28 */\n      dup1\n      iszero\n      tag_226\n      jumpi\n      pop\n        /* \"src/voting.sol\":5478:5480  28 */\n      0x1c\n        /* \"src/voting.sol\":5473:5474  v */\n      dup2\n        /* \"src/voting.sol\":5473:5480  v != 28 */\n      0xff\n      and\n      eq\n      iszero\n        /* \"src/voting.sol\":5462:5480  v != 27 && v != 28 */\n    tag_226:\n        /* \"src/voting.sol\":5458:5648  if (v != 27 && v != 28) {... */\n      iszero\n      tag_227\n      jumpi\n        /* \"src/voting.sol\":5505:5506  0 */\n      0x00\n        /* \"src/voting.sol\":5490:5507  return address(0) */\n      swap4\n      pop\n      pop\n      pop\n      pop\n      jump(tag_221)\n        /* \"src/voting.sol\":5458:5648  if (v != 27 && v != 28) {... */\n    tag_227:\n        /* \"src/voting.sol\":5535:5641  ecrecover(keccak256(... */\n      0x01\n        /* \"src/voting.sol\":5617:5622  _hash */\n      dup7\n        /* \"src/voting.sol\":5564:5623  abi.encodePacked(\"\\x19Ethereum Signed Message:\\n32\", _hash) */\n      add(0x20, mload(0x40))\n      tag_229\n      swap2\n      swap1\n      tag_230\n      jump\t// in\n    tag_229:\n      mload(0x40)\n      0x20\n      dup2\n      dup4\n      sub\n      sub\n      dup2\n      mstore\n      swap1\n      0x40\n      mstore\n        /* \"src/voting.sol\":5545:5631  keccak256(... */\n      dup1\n      mload\n      swap1\n      0x20\n      add\n      keccak256\n        /* \"src/voting.sol\":5633:5634  v */\n      dup3\n        /* \"src/voting.sol\":5636:5637  r */\n      dup6\n        /* \"src/voting.sol\":5639:5640  s */\n      dup6\n        /* \"src/voting.sol\":5535:5641  ecrecover(keccak256(... */\n      mload(0x40)\n      0x00\n      dup2\n      mstore\n      0x20\n      add\n      0x40\n      mstore\n      mload(0x40)\n      tag_231\n      swap5\n      swap4\n      swap3\n      swap2\n      swap1\n      tag_232\n      jump\t// in\n    tag_231:\n      0x20\n      mload(0x40)\n      0x20\n      dup2\n      sub\n      swap1\n      dup1\n      dup5\n      sub\n      swap1\n      dup6\n      gas\n      staticcall\n      iszero\n      dup1\n      iszero\n      tag_234\n      jumpi\n      returndatasize\n      0x00\n      dup1\n      returndatacopy\n      revert(0x00, returndatasize)\n    tag_234:\n      pop\n      pop\n      pop\n      mload(sub(mload(0x40), 0x20))\n        /* \"src/voting.sol\":5528:5641  return ecrecover(keccak256(... */\n      swap4\n      pop\n      pop\n      pop\n      pop\n        /* \"src/voting.sol\":5070:5652  function getSigner(bytes32 _hash, bytes memory _signature) internal pure returns (address){... */\n    tag_221:\n      swap3\n      swap2\n      pop\n      pop\n      jump\t// out\n        /* \"src/voting.sol\":2989:3181  function countVote(address Cand, uint _id, address signer) internal returns(uint){... */\n    tag_163:\n        /* \"src/voting.sol\":3065:3069  uint */\n      0x00\n        /* \"src/voting.sol\":3101:3105  true */\n      0x01\n        /* \"src/voting.sol\":3077:3085  hasVoted */\n      0x06\n        /* \"src/voting.sol\":3077:3090  hasVoted[_id] */\n      0x00\n        /* \"src/voting.sol\":3086:3089  _id */\n      dup6\n        /* \"src/voting.sol\":3077:3090  hasVoted[_id] */\n      dup2\n      mstore\n      0x20\n      add\n      swap1\n      dup2\n      mstore\n      0x20\n      add\n      0x00\n      keccak256\n        /* \"src/voting.sol\":3077:3098  hasVoted[_id][signer] */\n      0x00\n        /* \"src/voting.sol\":3091:3097  signer */\n      dup5\n        /* \"src/voting.sol\":3077:3098  hasVoted[_id][signer] */\n      0xffffffffffffffffffffffffffffffffffffffff\n      and\n      0xffffffffffffffffffffffffffffffffffffffff\n      and\n      dup2\n      mstore\n      0x20\n      add\n      swap1\n      dup2\n      mstore\n      0x20\n      add\n      0x00\n      keccak256\n      0x00\n        /* \"src/voting.sol\":3077:3105  hasVoted[_id][signer] = true */\n      0x0100\n      exp\n      dup2\n      sload\n      dup2\n      0xff\n      mul\n      not\n      and\n      swap1\n      dup4\n      iszero\n      iszero\n      mul\n      or\n      swap1\n      sstore\n      pop\n        /* \"src/voting.sol\":3112:3125  CandidateVote */\n      0x05\n        /* \"src/voting.sol\":3112:3130  CandidateVote[_id] */\n      0x00\n        /* \"src/voting.sol\":3126:3129  _id */\n      dup5\n        /* \"src/voting.sol\":3112:3130  CandidateVote[_id] */\n      dup2\n      mstore\n      0x20\n      add\n      swap1\n      dup2\n      mstore\n      0x20\n      add\n      0x00\n      keccak256\n        /* \"src/voting.sol\":3112:3136  CandidateVote[_id][Cand] */\n      0x00\n        /* \"src/voting.sol\":3131:3135  Cand */\n      dup6\n        /* \"src/voting.sol\":3112:3136  CandidateVote[_id][Cand] */\n      0xffffffffffffffffffffffffffffffffffffffff\n      and\n      0xffffffffffffffffffffffffffffffffffffffff\n      and\n      dup2\n      mstore\n      0x20\n      add\n      swap1\n      dup2\n      mstore\n      0x20\n      add\n      0x00\n      keccak256\n      0x00\n        /* \"src/voting.sol\":3112:3138  CandidateVote[_id][Cand]++ */\n      dup2\n      sload\n      dup1\n      swap3\n      swap2\n      swap1\n      tag_236\n      swap1\n      tag_122\n      jump\t// in\n    tag_236:\n      swap2\n      swap1\n      pop\n      sstore\n      pop\n        /* \"src/voting.sol\":3152:3165  CandidateVote */\n      0x05\n        /* \"src/voting.sol\":3152:3170  CandidateVote[_id] */\n      0x00\n        /* \"src/voting.sol\":3166:3169  _id */\n      dup5\n        /* \"src/voting.sol\":3152:3170  CandidateVote[_id] */\n      dup2\n      mstore\n      0x20\n      add\n      swap1\n      dup2\n      mstore\n      0x20\n      add\n      0x00\n      keccak256\n        /* \"src/voting.sol\":3152:3176  CandidateVote[_id][Cand] */\n      0x00\n        /* \"src/voting.sol\":3171:3175  Cand */\n      dup6\n        /* \"src/voting.sol\":3152:3176  CandidateVote[_id][Cand] */\n      0xffffffffffffffffffffffffffffffffffffffff\n      and\n      0xffffffffffffffffffffffffffffffffffffffff\n      and\n      dup2\n      mstore\n      0x20\n      add\n      swap1\n      dup2\n      mstore\n      0x20\n      add\n      0x00\n      keccak256\n      sload\n        /* \"src/voting.sol\":3145:3176  return CandidateVote[_id][Cand] */\n      swap1\n      pop\n        /* \"src/voting.sol\":2989:3181  function countVote(address Cand, uint _id, address signer) internal returns(uint){... */\n      swap4\n      swap3\n      pop\n      pop\n      pop\n      jump\t// out\n    tag_132:\n      mload(0x40)\n      dup1\n      0xc0\n      add\n      0x40\n      mstore\n      dup1\n      0x60\n      dup2\n      mstore\n      0x20\n      add\n      and(0xffffffffffffffffffffffffffffffffffffffff, 0x00)\n      dup2\n      mstore\n      0x20\n      add\n      0x60\n      dup2\n      mstore\n      0x20\n      add\n      and(0xffffffff, 0x00)\n      dup2\n      mstore\n      0x20\n      add\n      and(0xffffffff, 0x00)\n      dup2\n      mstore\n      0x20\n      add\n      iszero(iszero(0x00))\n      dup2\n      mstore\n      pop\n      swap1\n      jump\t// out\n    tag_177:\n      dup3\n      dup1\n      sload\n      tag_237\n      swap1\n      tag_126\n      jump\t// in\n    tag_237:\n      swap1\n      0x00\n      mstore\n      keccak256(0x00, 0x20)\n      swap1\n      0x1f\n      add\n      0x20\n      swap1\n      div\n      dup2\n      add\n      swap3\n      dup3\n      tag_239\n      jumpi\n      0x00\n      dup6\n      sstore\n      jump(tag_238)\n    tag_239:\n      dup3\n      0x1f\n      lt\n      tag_240\n      jumpi\n      dup1\n      mload\n      not(0xff)\n      and\n      dup4\n      dup1\n      add\n      or\n      dup6\n      sstore\n      jump(tag_238)\n    tag_240:\n      dup3\n      dup1\n      add\n      0x01\n      add\n      dup6\n      sstore\n      dup3\n      iszero\n      tag_238\n      jumpi\n      swap2\n      dup3\n      add\n    tag_241:\n      dup3\n      dup2\n      gt\n      iszero\n      tag_242\n      jumpi\n      dup3\n      mload\n      dup3\n      sstore\n      swap2\n      0x20\n      add\n      swap2\n      swap1\n      0x01\n      add\n      swap1\n      jump(tag_241)\n    tag_242:\n    tag_238:\n      pop\n      swap1\n      pop\n      tag_243\n      swap2\n      swap1\n      tag_244\n      jump\t// in\n    tag_243:\n      pop\n      swap1\n      jump\t// out\n    tag_181:\n      dup3\n      dup1\n      sload\n      tag_245\n      swap1\n      tag_126\n      jump\t// in\n    tag_245:\n      swap1\n      0x00\n      mstore\n      keccak256(0x00, 0x20)\n      swap1\n      0x1f\n      add\n      0x20\n      swap1\n      div\n      dup2\n      add\n      swap3\n      dup3\n      tag_247\n      jumpi\n      0x00\n      dup6\n      sstore\n      jump(tag_246)\n    tag_247:\n      dup3\n      0x1f\n      lt\n      tag_248\n      jumpi\n      dup1\n      sload\n      dup6\n      sstore\n      jump(tag_246)\n    tag_248:\n      dup3\n      dup1\n      add\n      0x01\n      add\n      dup6\n      sstore\n      dup3\n      iszero\n      tag_246\n      jumpi\n      0x00\n      mstore\n      keccak256(0x00, 0x20)\n      swap2\n      0x1f\n      add\n      0x20\n      swap1\n      div\n      dup3\n      add\n    tag_249:\n      dup3\n      dup2\n      gt\n      iszero\n      tag_250\n      jumpi\n      dup3\n      sload\n      dup3\n      sstore\n      swap2\n      0x01\n      add\n      swap2\n      swap1\n      0x01\n      add\n      swap1\n      jump(tag_249)\n    tag_250:\n    tag_246:\n      pop\n      swap1\n      pop\n      tag_251\n      swap2\n      swap1\n      tag_244\n      jump\t// in\n    tag_251:\n      pop\n      swap1\n      jump\t// out\n    tag_183:\n      dup3\n      dup1\n      sload\n      dup3\n      dup3\n      sstore\n      swap1\n      0x00\n      mstore\n      keccak256(0x00, 0x20)\n      swap1\n      dup2\n      add\n      swap3\n      dup3\n      iszero\n      tag_252\n      jumpi\n      0x00\n      mstore\n      keccak256(0x00, 0x20)\n      swap2\n      dup3\n      add\n    tag_253:\n      dup3\n      dup2\n      gt\n      iszero\n      tag_254\n      jumpi\n      dup3\n      sload\n      dup3\n      sstore\n      swap2\n      0x01\n      add\n      swap2\n      swap1\n      0x01\n      add\n      swap1\n      jump(tag_253)\n    tag_254:\n    tag_252:\n      pop\n      swap1\n      pop\n      tag_255\n      swap2\n      swap1\n      tag_244\n      jump\t// in\n    tag_255:\n      pop\n      swap1\n      jump\t// out\n    tag_244:\n    tag_256:\n      dup1\n      dup3\n      gt\n      iszero\n      tag_257\n      jumpi\n      0x00\n      dup2\n      0x00\n      swap1\n      sstore\n      pop\n      0x01\n      add\n      jump(tag_256)\n    tag_257:\n      pop\n      swap1\n      jump\t// out\n        /* \"#utility.yul\":7:82   */\n    tag_258:\n        /* \"#utility.yul\":40:46   */\n      0x00\n        /* \"#utility.yul\":73:75   */\n      0x40\n        /* \"#utility.yul\":67:76   */\n      mload\n        /* \"#utility.yul\":57:76   */\n      swap1\n      pop\n        /* \"#utility.yul\":7:82   */\n      swap1\n      jump\t// out\n        /* \"#utility.yul\":88:205   */\n    tag_259:\n        /* \"#utility.yul\":197:198   */\n      0x00\n        /* \"#utility.yul\":194:195   */\n      dup1\n        /* \"#utility.yul\":187:199   */\n      revert\n        /* \"#utility.yul\":211:328   */\n    tag_260:\n        /* \"#utility.yul\":320:321   */\n      0x00\n        /* \"#utility.yul\":317:318   */\n      dup1\n        /* \"#utility.yul\":310:322   */\n      revert\n        /* \"#utility.yul\":334:460   */\n    tag_261:\n        /* \"#utility.yul\":371:378   */\n      0x00\n        /* \"#utility.yul\":411:453   */\n      0xffffffffffffffffffffffffffffffffffffffff\n        /* \"#utility.yul\":404:409   */\n      dup3\n        /* \"#utility.yul\":400:454   */\n      and\n        /* \"#utility.yul\":389:454   */\n      swap1\n      pop\n        /* \"#utility.yul\":334:460   */\n      swap2\n      swap1\n      pop\n      jump\t// out\n        /* \"#utility.yul\":466:562   */\n    tag_262:\n        /* \"#utility.yul\":503:510   */\n      0x00\n        /* \"#utility.yul\":532:556   */\n      tag_360\n        /* \"#utility.yul\":550:555   */\n      dup3\n        /* \"#utility.yul\":532:556   */\n      tag_261\n      jump\t// in\n    tag_360:\n        /* \"#utility.yul\":521:556   */\n      swap1\n      pop\n        /* \"#utility.yul\":466:562   */\n      swap2\n      swap1\n      pop\n      jump\t// out\n        /* \"#utility.yul\":568:690   */\n    tag_263:\n        /* \"#utility.yul\":641:665   */\n      tag_362\n        /* \"#utility.yul\":659:664   */\n      dup2\n        /* \"#utility.yul\":641:665   */\n      tag_262\n      jump\t// in\n    tag_362:\n        /* \"#utility.yul\":634:639   */\n      dup2\n        /* \"#utility.yul\":631:666   */\n      eq\n        /* \"#utility.yul\":621:684   */\n      tag_363\n      jumpi\n        /* \"#utility.yul\":680:681   */\n      0x00\n        /* \"#utility.yul\":677:678   */\n      dup1\n        /* \"#utility.yul\":670:682   */\n      revert\n        /* \"#utility.yul\":621:684   */\n    tag_363:\n        /* \"#utility.yul\":568:690   */\n      pop\n      jump\t// out\n        /* \"#utility.yul\":696:835   */\n    tag_264:\n        /* \"#utility.yul\":742:747   */\n      0x00\n        /* \"#utility.yul\":780:786   */\n      dup2\n        /* \"#utility.yul\":767:787   */\n      calldataload\n        /* \"#utility.yul\":758:787   */\n      swap1\n      pop\n        /* \"#utility.yul\":796:829   */\n      tag_365\n        /* \"#utility.yul\":823:828   */\n      dup2\n        /* \"#utility.yul\":796:829   */\n      tag_263\n      jump\t// in\n    tag_365:\n        /* \"#utility.yul\":696:835   */\n      swap3\n      swap2\n      pop\n      pop\n      jump\t// out\n        /* \"#utility.yul\":841:918   */\n    tag_265:\n        /* \"#utility.yul\":878:885   */\n      0x00\n        /* \"#utility.yul\":907:912   */\n      dup2\n        /* \"#utility.yul\":896:912   */\n      swap1\n      pop\n        /* \"#utility.yul\":841:918   */\n      swap2\n      swap1\n      pop\n      jump\t// out\n        /* \"#utility.yul\":924:1046   */\n    tag_266:\n        /* \"#utility.yul\":997:1021   */\n      tag_368\n        /* \"#utility.yul\":1015:1020   */\n      dup2\n        /* \"#utility.yul\":997:1021   */\n      tag_265\n      jump\t// in\n    tag_368:\n        /* \"#utility.yul\":990:995   */\n      dup2\n        /* \"#utility.yul\":987:1022   */\n      eq\n        /* \"#utility.yul\":977:1040   */\n      tag_369\n      jumpi\n        /* \"#utility.yul\":1036:1037   */\n      0x00\n        /* \"#utility.yul\":1033:1034   */\n      dup1\n        /* \"#utility.yul\":1026:1038   */\n      revert\n        /* \"#utility.yul\":977:1040   */\n    tag_369:\n        /* \"#utility.yul\":924:1046   */\n      pop\n      jump\t// out\n        /* \"#utility.yul\":1052:1191   */\n    tag_267:\n        /* \"#utility.yul\":1098:1103   */\n      0x00\n        /* \"#utility.yul\":1136:1142   */\n      dup2\n        /* \"#utility.yul\":1123:1143   */\n      calldataload\n        /* \"#utility.yul\":1114:1143   */\n      swap1\n      pop\n        /* \"#utility.yul\":1152:1185   */\n      tag_371\n        /* \"#utility.yul\":1179:1184   */\n      dup2\n        /* \"#utility.yul\":1152:1185   */\n      tag_266\n      jump\t// in\n    tag_371:\n        /* \"#utility.yul\":1052:1191   */\n      swap3\n      swap2\n      pop\n      pop\n      jump\t// out\n        /* \"#utility.yul\":1197:1671   */\n    tag_20:\n        /* \"#utility.yul\":1265:1271   */\n      0x00\n        /* \"#utility.yul\":1273:1279   */\n      dup1\n        /* \"#utility.yul\":1322:1324   */\n      0x40\n        /* \"#utility.yul\":1310:1319   */\n      dup4\n        /* \"#utility.yul\":1301:1308   */\n      dup6\n        /* \"#utility.yul\":1297:1320   */\n      sub\n        /* \"#utility.yul\":1293:1325   */\n      slt\n        /* \"#utility.yul\":1290:1409   */\n      iszero\n      tag_373\n      jumpi\n        /* \"#utility.yul\":1328:1407   */\n      tag_374\n      tag_259\n      jump\t// in\n    tag_374:\n        /* \"#utility.yul\":1290:1409   */\n    tag_373:\n        /* \"#utility.yul\":1448:1449   */\n      0x00\n        /* \"#utility.yul\":1473:1526   */\n      tag_375\n        /* \"#utility.yul\":1518:1525   */\n      dup6\n        /* \"#utility.yul\":1509:1515   */\n      dup3\n        /* \"#utility.yul\":1498:1507   */\n      dup7\n        /* \"#utility.yul\":1494:1516   */\n      add\n        /* \"#utility.yul\":1473:1526   */\n      tag_264\n      jump\t// in\n    tag_375:\n        /* \"#utility.yul\":1463:1526   */\n      swap3\n      pop\n        /* \"#utility.yul\":1419:1536   */\n      pop\n        /* \"#utility.yul\":1575:1577   */\n      0x20\n        /* \"#utility.yul\":1601:1654   */\n      tag_376\n        /* \"#utility.yul\":1646:1653   */\n      dup6\n        /* \"#utility.yul\":1637:1643   */\n      dup3\n        /* \"#utility.yul\":1626:1635   */\n      dup7\n        /* \"#utility.yul\":1622:1644   */\n      add\n        /* \"#utility.yul\":1601:1654   */\n      tag_267\n      jump\t// in\n    tag_376:\n        /* \"#utility.yul\":1591:1654   */\n      swap2\n      pop\n        /* \"#utility.yul\":1546:1664   */\n      pop\n        /* \"#utility.yul\":1197:1671   */\n      swap3\n      pop\n      swap3\n      swap1\n      pop\n      jump\t// out\n        /* \"#utility.yul\":1677:2006   */\n    tag_24:\n        /* \"#utility.yul\":1736:1742   */\n      0x00\n        /* \"#utility.yul\":1785:1787   */\n      0x20\n        /* \"#utility.yul\":1773:1782   */\n      dup3\n        /* \"#utility.yul\":1764:1771   */\n      dup5\n        /* \"#utility.yul\":1760:1783   */\n      sub\n        /* \"#utility.yul\":1756:1788   */\n      slt\n        /* \"#utility.yul\":1753:1872   */\n      iszero\n      tag_378\n      jumpi\n        /* \"#utility.yul\":1791:1870   */\n      tag_379\n      tag_259\n      jump\t// in\n    tag_379:\n        /* \"#utility.yul\":1753:1872   */\n    tag_378:\n        /* \"#utility.yul\":1911:1912   */\n      0x00\n        /* \"#utility.yul\":1936:1989   */\n      tag_380\n        /* \"#utility.yul\":1981:1988   */\n      dup5\n        /* \"#utility.yul\":1972:1978   */\n      dup3\n        /* \"#utility.yul\":1961:1970   */\n      dup6\n        /* \"#utility.yul\":1957:1979   */\n      add\n        /* \"#utility.yul\":1936:1989   */\n      tag_267\n      jump\t// in\n    tag_380:\n        /* \"#utility.yul\":1926:1989   */\n      swap2\n      pop\n        /* \"#utility.yul\":1882:1999   */\n      pop\n        /* \"#utility.yul\":1677:2006   */\n      swap3\n      swap2\n      pop\n      pop\n      jump\t// out\n        /* \"#utility.yul\":2012:2130   */\n    tag_268:\n        /* \"#utility.yul\":2099:2123   */\n      tag_382\n        /* \"#utility.yul\":2117:2122   */\n      dup2\n        /* \"#utility.yul\":2099:2123   */\n      tag_265\n      jump\t// in\n    tag_382:\n        /* \"#utility.yul\":2094:2097   */\n      dup3\n        /* \"#utility.yul\":2087:2124   */\n      mstore\n        /* \"#utility.yul\":2012:2130   */\n      pop\n      pop\n      jump\t// out\n        /* \"#utility.yul\":2136:2358   */\n    tag_27:\n        /* \"#utility.yul\":2229:2233   */\n      0x00\n        /* \"#utility.yul\":2267:2269   */\n      0x20\n        /* \"#utility.yul\":2256:2265   */\n      dup3\n        /* \"#utility.yul\":2252:2270   */\n      add\n        /* \"#utility.yul\":2244:2270   */\n      swap1\n      pop\n        /* \"#utility.yul\":2280:2351   */\n      tag_384\n        /* \"#utility.yul\":2348:2349   */\n      0x00\n        /* \"#utility.yul\":2337:2346   */\n      dup4\n        /* \"#utility.yul\":2333:2350   */\n      add\n        /* \"#utility.yul\":2324:2330   */\n      dup5\n        /* \"#utility.yul\":2280:2351   */\n      tag_268\n      jump\t// in\n    tag_384:\n        /* \"#utility.yul\":2136:2358   */\n      swap3\n      swap2\n      pop\n      pop\n      jump\t// out\n        /* \"#utility.yul\":2364:2693   */\n    tag_30:\n        /* \"#utility.yul\":2423:2429   */\n      0x00\n        /* \"#utility.yul\":2472:2474   */\n      0x20\n        /* \"#utility.yul\":2460:2469   */\n      dup3\n        /* \"#utility.yul\":2451:2458   */\n      dup5\n        /* \"#utility.yul\":2447:2470   */\n      sub\n        /* \"#utility.yul\":2443:2475   */\n      slt\n        /* \"#utility.yul\":2440:2559   */\n      iszero\n      tag_386\n      jumpi\n        /* \"#utility.yul\":2478:2557   */\n      tag_387\n      tag_259\n      jump\t// in\n    tag_387:\n        /* \"#utility.yul\":2440:2559   */\n    tag_386:\n        /* \"#utility.yul\":2598:2599   */\n      0x00\n        /* \"#utility.yul\":2623:2676   */\n      tag_388\n        /* \"#utility.yul\":2668:2675   */\n      dup5\n        /* \"#utility.yul\":2659:2665   */\n      dup3\n        /* \"#utility.yul\":2648:2657   */\n      dup6\n        /* \"#utility.yul\":2644:2666   */\n      add\n        /* \"#utility.yul\":2623:2676   */\n      tag_264\n      jump\t// in\n    tag_388:\n        /* \"#utility.yul\":2613:2676   */\n      swap2\n      pop\n        /* \"#utility.yul\":2569:2686   */\n      pop\n        /* \"#utility.yul\":2364:2693   */\n      swap3\n      swap2\n      pop\n      pop\n      jump\t// out\n        /* \"#utility.yul\":2699:2813   */\n    tag_269:\n        /* \"#utility.yul\":2766:2772   */\n      0x00\n        /* \"#utility.yul\":2800:2805   */\n      dup2\n        /* \"#utility.yul\":2794:2806   */\n      mload\n        /* \"#utility.yul\":2784:2806   */\n      swap1\n      pop\n        /* \"#utility.yul\":2699:2813   */\n      swap2\n      swap1\n      pop\n      jump\t// out\n        /* \"#utility.yul\":2819:3003   */\n    tag_270:\n        /* \"#utility.yul\":2918:2929   */\n      0x00\n        /* \"#utility.yul\":2952:2958   */\n      dup3\n        /* \"#utility.yul\":2947:2950   */\n      dup3\n        /* \"#utility.yul\":2940:2959   */\n      mstore\n        /* \"#utility.yul\":2992:2996   */\n      0x20\n        /* \"#utility.yul\":2987:2990   */\n      dup3\n        /* \"#utility.yul\":2983:2997   */\n      add\n        /* \"#utility.yul\":2968:2997   */\n      swap1\n      pop\n        /* \"#utility.yul\":2819:3003   */\n      swap3\n      swap2\n      pop\n      pop\n      jump\t// out\n        /* \"#utility.yul\":3009:3141   */\n    tag_271:\n        /* \"#utility.yul\":3076:3080   */\n      0x00\n        /* \"#utility.yul\":3099:3102   */\n      dup2\n        /* \"#utility.yul\":3091:3102   */\n      swap1\n      pop\n        /* \"#utility.yul\":3129:3133   */\n      0x20\n        /* \"#utility.yul\":3124:3127   */\n      dup3\n        /* \"#utility.yul\":3120:3134   */\n      add\n        /* \"#utility.yul\":3112:3134   */\n      swap1\n      pop\n        /* \"#utility.yul\":3009:3141   */\n      swap2\n      swap1\n      pop\n      jump\t// out\n        /* \"#utility.yul\":3147:3255   */\n    tag_272:\n        /* \"#utility.yul\":3224:3248   */\n      tag_393\n        /* \"#utility.yul\":3242:3247   */\n      dup2\n        /* \"#utility.yul\":3224:3248   */\n      tag_262\n      jump\t// in\n    tag_393:\n        /* \"#utility.yul\":3219:3222   */\n      dup3\n        /* \"#utility.yul\":3212:3249   */\n      mstore\n        /* \"#utility.yul\":3147:3255   */\n      pop\n      pop\n      jump\t// out\n        /* \"#utility.yul\":3261:3440   */\n    tag_273:\n        /* \"#utility.yul\":3330:3340   */\n      0x00\n        /* \"#utility.yul\":3351:3397   */\n      tag_395\n        /* \"#utility.yul\":3393:3396   */\n      dup4\n        /* \"#utility.yul\":3385:3391   */\n      dup4\n        /* \"#utility.yul\":3351:3397   */\n      tag_272\n      jump\t// in\n    tag_395:\n        /* \"#utility.yul\":3429:3433   */\n      0x20\n        /* \"#utility.yul\":3424:3427   */\n      dup4\n        /* \"#utility.yul\":3420:3434   */\n      add\n        /* \"#utility.yul\":3406:3434   */\n      swap1\n      pop\n        /* \"#utility.yul\":3261:3440   */\n      swap3\n      swap2\n      pop\n      pop\n      jump\t// out\n        /* \"#utility.yul\":3446:3559   */\n    tag_274:\n        /* \"#utility.yul\":3516:3520   */\n      0x00\n        /* \"#utility.yul\":3548:3552   */\n      0x20\n        /* \"#utility.yul\":3543:3546   */\n      dup3\n        /* \"#utility.yul\":3539:3553   */\n      add\n        /* \"#utility.yul\":3531:3553   */\n      swap1\n      pop\n        /* \"#utility.yul\":3446:3559   */\n      swap2\n      swap1\n      pop\n      jump\t// out\n        /* \"#utility.yul\":3595:4327   */\n    tag_275:\n        /* \"#utility.yul\":3714:3717   */\n      0x00\n        /* \"#utility.yul\":3743:3797   */\n      tag_398\n        /* \"#utility.yul\":3791:3796   */\n      dup3\n        /* \"#utility.yul\":3743:3797   */\n      tag_269\n      jump\t// in\n    tag_398:\n        /* \"#utility.yul\":3813:3899   */\n      tag_399\n        /* \"#utility.yul\":3892:3898   */\n      dup2\n        /* \"#utility.yul\":3887:3890   */\n      dup6\n        /* \"#utility.yul\":3813:3899   */\n      tag_270\n      jump\t// in\n    tag_399:\n        /* \"#utility.yul\":3806:3899   */\n      swap4\n      pop\n        /* \"#utility.yul\":3923:3979   */\n      tag_400\n        /* \"#utility.yul\":3973:3978   */\n      dup4\n        /* \"#utility.yul\":3923:3979   */\n      tag_271\n      jump\t// in\n    tag_400:\n        /* \"#utility.yul\":4002:4009   */\n      dup1\n        /* \"#utility.yul\":4033:4034   */\n      0x00\n        /* \"#utility.yul\":4018:4302   */\n    tag_401:\n        /* \"#utility.yul\":4043:4049   */\n      dup4\n        /* \"#utility.yul\":4040:4041   */\n      dup2\n        /* \"#utility.yul\":4037:4050   */\n      lt\n        /* \"#utility.yul\":4018:4302   */\n      iszero\n      tag_403\n      jumpi\n        /* \"#utility.yul\":4119:4125   */\n      dup2\n        /* \"#utility.yul\":4113:4126   */\n      mload\n        /* \"#utility.yul\":4146:4209   */\n      tag_404\n        /* \"#utility.yul\":4205:4208   */\n      dup9\n        /* \"#utility.yul\":4190:4203   */\n      dup3\n        /* \"#utility.yul\":4146:4209   */\n      tag_273\n      jump\t// in\n    tag_404:\n        /* \"#utility.yul\":4139:4209   */\n      swap8\n      pop\n        /* \"#utility.yul\":4232:4292   */\n      tag_405\n        /* \"#utility.yul\":4285:4291   */\n      dup4\n        /* \"#utility.yul\":4232:4292   */\n      tag_274\n      jump\t// in\n    tag_405:\n        /* \"#utility.yul\":4222:4292   */\n      swap3\n      pop\n        /* \"#utility.yul\":4078:4302   */\n      pop\n        /* \"#utility.yul\":4065:4066   */\n      0x01\n        /* \"#utility.yul\":4062:4063   */\n      dup2\n        /* \"#utility.yul\":4058:4067   */\n      add\n        /* \"#utility.yul\":4053:4067   */\n      swap1\n      pop\n        /* \"#utility.yul\":4018:4302   */\n      jump(tag_401)\n    tag_403:\n        /* \"#utility.yul\":4022:4036   */\n      pop\n        /* \"#utility.yul\":4318:4321   */\n      dup6\n        /* \"#utility.yul\":4311:4321   */\n      swap4\n      pop\n        /* \"#utility.yul\":3719:4327   */\n      pop\n      pop\n      pop\n        /* \"#utility.yul\":3595:4327   */\n      swap3\n      swap2\n      pop\n      pop\n      jump\t// out\n        /* \"#utility.yul\":4333:4706   */\n    tag_37:\n        /* \"#utility.yul\":4476:4480   */\n      0x00\n        /* \"#utility.yul\":4514:4516   */\n      0x20\n        /* \"#utility.yul\":4503:4512   */\n      dup3\n        /* \"#utility.yul\":4499:4517   */\n      add\n        /* \"#utility.yul\":4491:4517   */\n      swap1\n      pop\n        /* \"#utility.yul\":4563:4572   */\n      dup2\n        /* \"#utility.yul\":4557:4561   */\n      dup2\n        /* \"#utility.yul\":4553:4573   */\n      sub\n        /* \"#utility.yul\":4549:4550   */\n      0x00\n        /* \"#utility.yul\":4538:4547   */\n      dup4\n        /* \"#utility.yul\":4534:4551   */\n      add\n        /* \"#utility.yul\":4527:4574   */\n      mstore\n        /* \"#utility.yul\":4591:4699   */\n      tag_407\n        /* \"#utility.yul\":4694:4698   */\n      dup2\n        /* \"#utility.yul\":4685:4691   */\n      dup5\n        /* \"#utility.yul\":4591:4699   */\n      tag_275\n      jump\t// in\n    tag_407:\n        /* \"#utility.yul\":4583:4699   */\n      swap1\n      pop\n        /* \"#utility.yul\":4333:4706   */\n      swap3\n      swap2\n      pop\n      pop\n      jump\t// out\n        /* \"#utility.yul\":4712:4826   */\n    tag_276:\n        /* \"#utility.yul\":4779:4785   */\n      0x00\n        /* \"#utility.yul\":4813:4818   */\n      dup2\n        /* \"#utility.yul\":4807:4819   */\n      mload\n        /* \"#utility.yul\":4797:4819   */\n      swap1\n      pop\n        /* \"#utility.yul\":4712:4826   */\n      swap2\n      swap1\n      pop\n      jump\t// out\n        /* \"#utility.yul\":4832:5016   */\n    tag_277:\n        /* \"#utility.yul\":4931:4942   */\n      0x00\n        /* \"#utility.yul\":4965:4971   */\n      dup3\n        /* \"#utility.yul\":4960:4963   */\n      dup3\n        /* \"#utility.yul\":4953:4972   */\n      mstore\n        /* \"#utility.yul\":5005:5009   */\n      0x20\n        /* \"#utility.yul\":5000:5003   */\n      dup3\n        /* \"#utility.yul\":4996:5010   */\n      add\n        /* \"#utility.yul\":4981:5010   */\n      swap1\n      pop\n        /* \"#utility.yul\":4832:5016   */\n      swap3\n      swap2\n      pop\n      pop\n      jump\t// out\n        /* \"#utility.yul\":5022:5154   */\n    tag_278:\n        /* \"#utility.yul\":5089:5093   */\n      0x00\n        /* \"#utility.yul\":5112:5115   */\n      dup2\n        /* \"#utility.yul\":5104:5115   */\n      swap1\n      pop\n        /* \"#utility.yul\":5142:5146   */\n      0x20\n        /* \"#utility.yul\":5137:5140   */\n      dup3\n        /* \"#utility.yul\":5133:5147   */\n      add\n        /* \"#utility.yul\":5125:5147   */\n      swap1\n      pop\n        /* \"#utility.yul\":5022:5154   */\n      swap2\n      swap1\n      pop\n      jump\t// out\n        /* \"#utility.yul\":5160:5268   */\n    tag_279:\n        /* \"#utility.yul\":5237:5261   */\n      tag_412\n        /* \"#utility.yul\":5255:5260   */\n      dup2\n        /* \"#utility.yul\":5237:5261   */\n      tag_265\n      jump\t// in\n    tag_412:\n        /* \"#utility.yul\":5232:5235   */\n      dup3\n        /* \"#utility.yul\":5225:5262   */\n      mstore\n        /* \"#utility.yul\":5160:5268   */\n      pop\n      pop\n      jump\t// out\n        /* \"#utility.yul\":5274:5453   */\n    tag_280:\n        /* \"#utility.yul\":5343:5353   */\n      0x00\n        /* \"#utility.yul\":5364:5410   */\n      tag_414\n        /* \"#utility.yul\":5406:5409   */\n      dup4\n        /* \"#utility.yul\":5398:5404   */\n      dup4\n        /* \"#utility.yul\":5364:5410   */\n      tag_279\n      jump\t// in\n    tag_414:\n        /* \"#utility.yul\":5442:5446   */\n      0x20\n        /* \"#utility.yul\":5437:5440   */\n      dup4\n        /* \"#utility.yul\":5433:5447   */\n      add\n        /* \"#utility.yul\":5419:5447   */\n      swap1\n      pop\n        /* \"#utility.yul\":5274:5453   */\n      swap3\n      swap2\n      pop\n      pop\n      jump\t// out\n        /* \"#utility.yul\":5459:5572   */\n    tag_281:\n        /* \"#utility.yul\":5529:5533   */\n      0x00\n        /* \"#utility.yul\":5561:5565   */\n      0x20\n        /* \"#utility.yul\":5556:5559   */\n      dup3\n        /* \"#utility.yul\":5552:5566   */\n      add\n        /* \"#utility.yul\":5544:5566   */\n      swap1\n      pop\n        /* \"#utility.yul\":5459:5572   */\n      swap2\n      swap1\n      pop\n      jump\t// out\n        /* \"#utility.yul\":5608:6340   */\n    tag_282:\n        /* \"#utility.yul\":5727:5730   */\n      0x00\n        /* \"#utility.yul\":5756:5810   */\n      tag_417\n        /* \"#utility.yul\":5804:5809   */\n      dup3\n        /* \"#utility.yul\":5756:5810   */\n      tag_276\n      jump\t// in\n    tag_417:\n        /* \"#utility.yul\":5826:5912   */\n      tag_418\n        /* \"#utility.yul\":5905:5911   */\n      dup2\n        /* \"#utility.yul\":5900:5903   */\n      dup6\n        /* \"#utility.yul\":5826:5912   */\n      tag_277\n      jump\t// in\n    tag_418:\n        /* \"#utility.yul\":5819:5912   */\n      swap4\n      pop\n        /* \"#utility.yul\":5936:5992   */\n      tag_419\n        /* \"#utility.yul\":5986:5991   */\n      dup4\n        /* \"#utility.yul\":5936:5992   */\n      tag_278\n      jump\t// in\n    tag_419:\n        /* \"#utility.yul\":6015:6022   */\n      dup1\n        /* \"#utility.yul\":6046:6047   */\n      0x00\n        /* \"#utility.yul\":6031:6315   */\n    tag_420:\n        /* \"#utility.yul\":6056:6062   */\n      dup4\n        /* \"#utility.yul\":6053:6054   */\n      dup2\n        /* \"#utility.yul\":6050:6063   */\n      lt\n        /* \"#utility.yul\":6031:6315   */\n      iszero\n      tag_422\n      jumpi\n        /* \"#utility.yul\":6132:6138   */\n      dup2\n        /* \"#utility.yul\":6126:6139   */\n      mload\n        /* \"#utility.yul\":6159:6222   */\n      tag_423\n        /* \"#utility.yul\":6218:6221   */\n      dup9\n        /* \"#utility.yul\":6203:6216   */\n      dup3\n        /* \"#utility.yul\":6159:6222   */\n      tag_280\n      jump\t// in\n    tag_423:\n        /* \"#utility.yul\":6152:6222   */\n      swap8\n      pop\n        /* \"#utility.yul\":6245:6305   */\n      tag_424\n        /* \"#utility.yul\":6298:6304   */\n      dup4\n        /* \"#utility.yul\":6245:6305   */\n      tag_281\n      jump\t// in\n    tag_424:\n        /* \"#utility.yul\":6235:6305   */\n      swap3\n      pop\n        /* \"#utility.yul\":6091:6315   */\n      pop\n        /* \"#utility.yul\":6078:6079   */\n      0x01\n        /* \"#utility.yul\":6075:6076   */\n      dup2\n        /* \"#utility.yul\":6071:6080   */\n      add\n        /* \"#utility.yul\":6066:6080   */\n      swap1\n      pop\n        /* \"#utility.yul\":6031:6315   */\n      jump(tag_420)\n    tag_422:\n        /* \"#utility.yul\":6035:6049   */\n      pop\n        /* \"#utility.yul\":6331:6334   */\n      dup6\n        /* \"#utility.yul\":6324:6334   */\n      swap4\n      pop\n        /* \"#utility.yul\":5732:6340   */\n      pop\n      pop\n      pop\n        /* \"#utility.yul\":5608:6340   */\n      swap3\n      swap2\n      pop\n      pop\n      jump\t// out\n        /* \"#utility.yul\":6346:6464   */\n    tag_283:\n        /* \"#utility.yul\":6433:6457   */\n      tag_426\n        /* \"#utility.yul\":6451:6456   */\n      dup2\n        /* \"#utility.yul\":6433:6457   */\n      tag_262\n      jump\t// in\n    tag_426:\n        /* \"#utility.yul\":6428:6431   */\n      dup3\n        /* \"#utility.yul\":6421:6458   */\n      mstore\n        /* \"#utility.yul\":6346:6464   */\n      pop\n      pop\n      jump\t// out\n        /* \"#utility.yul\":6470:7063   */\n    tag_42:\n        /* \"#utility.yul\":6669:6673   */\n      0x00\n        /* \"#utility.yul\":6707:6709   */\n      0x60\n        /* \"#utility.yul\":6696:6705   */\n      dup3\n        /* \"#utility.yul\":6692:6710   */\n      add\n        /* \"#utility.yul\":6684:6710   */\n      swap1\n      pop\n        /* \"#utility.yul\":6756:6765   */\n      dup2\n        /* \"#utility.yul\":6750:6754   */\n      dup2\n        /* \"#utility.yul\":6746:6766   */\n      sub\n        /* \"#utility.yul\":6742:6743   */\n      0x00\n        /* \"#utility.yul\":6731:6740   */\n      dup4\n        /* \"#utility.yul\":6727:6744   */\n      add\n        /* \"#utility.yul\":6720:6767   */\n      mstore\n        /* \"#utility.yul\":6784:6892   */\n      tag_428\n        /* \"#utility.yul\":6887:6891   */\n      dup2\n        /* \"#utility.yul\":6878:6884   */\n      dup7\n        /* \"#utility.yul\":6784:6892   */\n      tag_282\n      jump\t// in\n    tag_428:\n        /* \"#utility.yul\":6776:6892   */\n      swap1\n      pop\n        /* \"#utility.yul\":6902:6974   */\n      tag_429\n        /* \"#utility.yul\":6970:6972   */\n      0x20\n        /* \"#utility.yul\":6959:6968   */\n      dup4\n        /* \"#utility.yul\":6955:6973   */\n      add\n        /* \"#utility.yul\":6946:6952   */\n      dup6\n        /* \"#utility.yul\":6902:6974   */\n      tag_283\n      jump\t// in\n    tag_429:\n        /* \"#utility.yul\":6984:7056   */\n      tag_430\n        /* \"#utility.yul\":7052:7054   */\n      0x40\n        /* \"#utility.yul\":7041:7050   */\n      dup4\n        /* \"#utility.yul\":7037:7055   */\n      add\n        /* \"#utility.yul\":7028:7034   */\n      dup5\n        /* \"#utility.yul\":6984:7056   */\n      tag_268\n      jump\t// in\n    tag_430:\n        /* \"#utility.yul\":6470:7063   */\n      swap5\n      swap4\n      pop\n      pop\n      pop\n      pop\n      jump\t// out\n        /* \"#utility.yul\":7069:7168   */\n    tag_284:\n        /* \"#utility.yul\":7121:7127   */\n      0x00\n        /* \"#utility.yul\":7155:7160   */\n      dup2\n        /* \"#utility.yul\":7149:7161   */\n      mload\n        /* \"#utility.yul\":7139:7161   */\n      swap1\n      pop\n        /* \"#utility.yul\":7069:7168   */\n      swap2\n      swap1\n      pop\n      jump\t// out\n        /* \"#utility.yul\":7174:7343   */\n    tag_285:\n        /* \"#utility.yul\":7258:7269   */\n      0x00\n        /* \"#utility.yul\":7292:7298   */\n      dup3\n        /* \"#utility.yul\":7287:7290   */\n      dup3\n        /* \"#utility.yul\":7280:7299   */\n      mstore\n        /* \"#utility.yul\":7332:7336   */\n      0x20\n        /* \"#utility.yul\":7327:7330   */\n      dup3\n        /* \"#utility.yul\":7323:7337   */\n      add\n        /* \"#utility.yul\":7308:7337   */\n      swap1\n      pop\n        /* \"#utility.yul\":7174:7343   */\n      swap3\n      swap2\n      pop\n      pop\n      jump\t// out\n        /* \"#utility.yul\":7349:7656   */\n    tag_286:\n        /* \"#utility.yul\":7417:7418   */\n      0x00\n        /* \"#utility.yul\":7427:7540   */\n    tag_434:\n        /* \"#utility.yul\":7441:7447   */\n      dup4\n        /* \"#utility.yul\":7438:7439   */\n      dup2\n        /* \"#utility.yul\":7435:7448   */\n      lt\n        /* \"#utility.yul\":7427:7540   */\n      iszero\n      tag_436\n      jumpi\n        /* \"#utility.yul\":7526:7527   */\n      dup1\n        /* \"#utility.yul\":7521:7524   */\n      dup3\n        /* \"#utility.yul\":7517:7528   */\n      add\n        /* \"#utility.yul\":7511:7529   */\n      mload\n        /* \"#utility.yul\":7507:7508   */\n      dup2\n        /* \"#utility.yul\":7502:7505   */\n      dup5\n        /* \"#utility.yul\":7498:7509   */\n      add\n        /* \"#utility.yul\":7491:7530   */\n      mstore\n        /* \"#utility.yul\":7463:7465   */\n      0x20\n        /* \"#utility.yul\":7460:7461   */\n      dup2\n        /* \"#utility.yul\":7456:7466   */\n      add\n        /* \"#utility.yul\":7451:7466   */\n      swap1\n      pop\n        /* \"#utility.yul\":7427:7540   */\n      jump(tag_434)\n    tag_436:\n        /* \"#utility.yul\":7558:7564   */\n      dup4\n        /* \"#utility.yul\":7555:7556   */\n      dup2\n        /* \"#utility.yul\":7552:7565   */\n      gt\n        /* \"#utility.yul\":7549:7650   */\n      iszero\n      tag_437\n      jumpi\n        /* \"#utility.yul\":7638:7639   */\n      0x00\n        /* \"#utility.yul\":7629:7635   */\n      dup5\n        /* \"#utility.yul\":7624:7627   */\n      dup5\n        /* \"#utility.yul\":7620:7636   */\n      add\n        /* \"#utility.yul\":7613:7640   */\n      mstore\n        /* \"#utility.yul\":7549:7650   */\n    tag_437:\n        /* \"#utility.yul\":7398:7656   */\n      pop\n        /* \"#utility.yul\":7349:7656   */\n      pop\n      pop\n      pop\n      jump\t// out\n        /* \"#utility.yul\":7662:7764   */\n    tag_287:\n        /* \"#utility.yul\":7703:7709   */\n      0x00\n        /* \"#utility.yul\":7754:7756   */\n      0x1f\n        /* \"#utility.yul\":7750:7757   */\n      not\n        /* \"#utility.yul\":7745:7747   */\n      0x1f\n        /* \"#utility.yul\":7738:7743   */\n      dup4\n        /* \"#utility.yul\":7734:7748   */\n      add\n        /* \"#utility.yul\":7730:7758   */\n      and\n        /* \"#utility.yul\":7720:7758   */\n      swap1\n      pop\n        /* \"#utility.yul\":7662:7764   */\n      swap2\n      swap1\n      pop\n      jump\t// out\n        /* \"#utility.yul\":7770:8134   */\n    tag_288:\n        /* \"#utility.yul\":7858:7861   */\n      0x00\n        /* \"#utility.yul\":7886:7925   */\n      tag_440\n        /* \"#utility.yul\":7919:7924   */\n      dup3\n        /* \"#utility.yul\":7886:7925   */\n      tag_284\n      jump\t// in\n    tag_440:\n        /* \"#utility.yul\":7941:8012   */\n      tag_441\n        /* \"#utility.yul\":8005:8011   */\n      dup2\n        /* \"#utility.yul\":8000:8003   */\n      dup6\n        /* \"#utility.yul\":7941:8012   */\n      tag_285\n      jump\t// in\n    tag_441:\n        /* \"#utility.yul\":7934:8012   */\n      swap4\n      pop\n        /* \"#utility.yul\":8021:8073   */\n      tag_442\n        /* \"#utility.yul\":8066:8072   */\n      dup2\n        /* \"#utility.yul\":8061:8064   */\n      dup6\n        /* \"#utility.yul\":8054:8058   */\n      0x20\n        /* \"#utility.yul\":8047:8052   */\n      dup7\n        /* \"#utility.yul\":8043:8059   */\n      add\n        /* \"#utility.yul\":8021:8073   */\n      tag_286\n      jump\t// in\n    tag_442:\n        /* \"#utility.yul\":8098:8127   */\n      tag_443\n        /* \"#utility.yul\":8120:8126   */\n      dup2\n        /* \"#utility.yul\":8098:8127   */\n      tag_287\n      jump\t// in\n    tag_443:\n        /* \"#utility.yul\":8093:8096   */\n      dup5\n        /* \"#utility.yul\":8089:8128   */\n      add\n        /* \"#utility.yul\":8082:8128   */\n      swap2\n      pop\n        /* \"#utility.yul\":7862:8134   */\n      pop\n        /* \"#utility.yul\":7770:8134   */\n      swap3\n      swap2\n      pop\n      pop\n      jump\t// out\n        /* \"#utility.yul\":8140:8233   */\n    tag_289:\n        /* \"#utility.yul\":8176:8183   */\n      0x00\n        /* \"#utility.yul\":8216:8226   */\n      0xffffffff\n        /* \"#utility.yul\":8209:8214   */\n      dup3\n        /* \"#utility.yul\":8205:8227   */\n      and\n        /* \"#utility.yul\":8194:8227   */\n      swap1\n      pop\n        /* \"#utility.yul\":8140:8233   */\n      swap2\n      swap1\n      pop\n      jump\t// out\n        /* \"#utility.yul\":8239:8354   */\n    tag_290:\n        /* \"#utility.yul\":8324:8347   */\n      tag_446\n        /* \"#utility.yul\":8341:8346   */\n      dup2\n        /* \"#utility.yul\":8324:8347   */\n      tag_289\n      jump\t// in\n    tag_446:\n        /* \"#utility.yul\":8319:8322   */\n      dup3\n        /* \"#utility.yul\":8312:8348   */\n      mstore\n        /* \"#utility.yul\":8239:8354   */\n      pop\n      pop\n      jump\t// out\n        /* \"#utility.yul\":8360:8450   */\n    tag_291:\n        /* \"#utility.yul\":8394:8401   */\n      0x00\n        /* \"#utility.yul\":8437:8442   */\n      dup2\n        /* \"#utility.yul\":8430:8443   */\n      iszero\n        /* \"#utility.yul\":8423:8444   */\n      iszero\n        /* \"#utility.yul\":8412:8444   */\n      swap1\n      pop\n        /* \"#utility.yul\":8360:8450   */\n      swap2\n      swap1\n      pop\n      jump\t// out\n        /* \"#utility.yul\":8456:8565   */\n    tag_292:\n        /* \"#utility.yul\":8537:8558   */\n      tag_449\n        /* \"#utility.yul\":8552:8557   */\n      dup2\n        /* \"#utility.yul\":8537:8558   */\n      tag_291\n      jump\t// in\n    tag_449:\n        /* \"#utility.yul\":8532:8535   */\n      dup3\n        /* \"#utility.yul\":8525:8559   */\n      mstore\n        /* \"#utility.yul\":8456:8565   */\n      pop\n      pop\n      jump\t// out\n        /* \"#utility.yul\":8571:9306   */\n    tag_47:\n        /* \"#utility.yul\":8786:8790   */\n      0x00\n        /* \"#utility.yul\":8824:8827   */\n      0xa0\n        /* \"#utility.yul\":8813:8822   */\n      dup3\n        /* \"#utility.yul\":8809:8828   */\n      add\n        /* \"#utility.yul\":8801:8828   */\n      swap1\n      pop\n        /* \"#utility.yul\":8874:8883   */\n      dup2\n        /* \"#utility.yul\":8868:8872   */\n      dup2\n        /* \"#utility.yul\":8864:8884   */\n      sub\n        /* \"#utility.yul\":8860:8861   */\n      0x00\n        /* \"#utility.yul\":8849:8858   */\n      dup4\n        /* \"#utility.yul\":8845:8862   */\n      add\n        /* \"#utility.yul\":8838:8885   */\n      mstore\n        /* \"#utility.yul\":8902:8980   */\n      tag_451\n        /* \"#utility.yul\":8975:8979   */\n      dup2\n        /* \"#utility.yul\":8966:8972   */\n      dup9\n        /* \"#utility.yul\":8902:8980   */\n      tag_288\n      jump\t// in\n    tag_451:\n        /* \"#utility.yul\":8894:8980   */\n      swap1\n      pop\n        /* \"#utility.yul\":8990:9062   */\n      tag_452\n        /* \"#utility.yul\":9058:9060   */\n      0x20\n        /* \"#utility.yul\":9047:9056   */\n      dup4\n        /* \"#utility.yul\":9043:9061   */\n      add\n        /* \"#utility.yul\":9034:9040   */\n      dup8\n        /* \"#utility.yul\":8990:9062   */\n      tag_283\n      jump\t// in\n    tag_452:\n        /* \"#utility.yul\":9072:9142   */\n      tag_453\n        /* \"#utility.yul\":9138:9140   */\n      0x40\n        /* \"#utility.yul\":9127:9136   */\n      dup4\n        /* \"#utility.yul\":9123:9141   */\n      add\n        /* \"#utility.yul\":9114:9120   */\n      dup7\n        /* \"#utility.yul\":9072:9142   */\n      tag_290\n      jump\t// in\n    tag_453:\n        /* \"#utility.yul\":9152:9222   */\n      tag_454\n        /* \"#utility.yul\":9218:9220   */\n      0x60\n        /* \"#utility.yul\":9207:9216   */\n      dup4\n        /* \"#utility.yul\":9203:9221   */\n      add\n        /* \"#utility.yul\":9194:9200   */\n      dup6\n        /* \"#utility.yul\":9152:9222   */\n      tag_290\n      jump\t// in\n    tag_454:\n        /* \"#utility.yul\":9232:9299   */\n      tag_455\n        /* \"#utility.yul\":9294:9297   */\n      0x80\n        /* \"#utility.yul\":9283:9292   */\n      dup4\n        /* \"#utility.yul\":9279:9298   */\n      add\n        /* \"#utility.yul\":9270:9276   */\n      dup5\n        /* \"#utility.yul\":9232:9299   */\n      tag_292\n      jump\t// in\n    tag_455:\n        /* \"#utility.yul\":8571:9306   */\n      swap7\n      swap6\n      pop\n      pop\n      pop\n      pop\n      pop\n      pop\n      jump\t// out\n        /* \"#utility.yul\":9312:9471   */\n    tag_293:\n        /* \"#utility.yul\":9386:9397   */\n      0x00\n        /* \"#utility.yul\":9420:9426   */\n      dup3\n        /* \"#utility.yul\":9415:9418   */\n      dup3\n        /* \"#utility.yul\":9408:9427   */\n      mstore\n        /* \"#utility.yul\":9460:9464   */\n      0x20\n        /* \"#utility.yul\":9455:9458   */\n      dup3\n        /* \"#utility.yul\":9451:9465   */\n      add\n        /* \"#utility.yul\":9436:9465   */\n      swap1\n      pop\n        /* \"#utility.yul\":9312:9471   */\n      swap3\n      swap2\n      pop\n      pop\n      jump\t// out\n        /* \"#utility.yul\":9477:9821   */\n    tag_294:\n        /* \"#utility.yul\":9555:9558   */\n      0x00\n        /* \"#utility.yul\":9583:9622   */\n      tag_458\n        /* \"#utility.yul\":9616:9621   */\n      dup3\n        /* \"#utility.yul\":9583:9622   */\n      tag_284\n      jump\t// in\n    tag_458:\n        /* \"#utility.yul\":9638:9699   */\n      tag_459\n        /* \"#utility.yul\":9692:9698   */\n      dup2\n        /* \"#utility.yul\":9687:9690   */\n      dup6\n        /* \"#utility.yul\":9638:9699   */\n      tag_293\n      jump\t// in\n    tag_459:\n        /* \"#utility.yul\":9631:9699   */\n      swap4\n      pop\n        /* \"#utility.yul\":9708:9760   */\n      tag_460\n        /* \"#utility.yul\":9753:9759   */\n      dup2\n        /* \"#utility.yul\":9748:9751   */\n      dup6\n        /* \"#utility.yul\":9741:9745   */\n      0x20\n        /* \"#utility.yul\":9734:9739   */\n      dup7\n        /* \"#utility.yul\":9730:9746   */\n      add\n        /* \"#utility.yul\":9708:9760   */\n      tag_286\n      jump\t// in\n    tag_460:\n        /* \"#utility.yul\":9785:9814   */\n      tag_461\n        /* \"#utility.yul\":9807:9813   */\n      dup2\n        /* \"#utility.yul\":9785:9814   */\n      tag_287\n      jump\t// in\n    tag_461:\n        /* \"#utility.yul\":9780:9783   */\n      dup5\n        /* \"#utility.yul\":9776:9815   */\n      add\n        /* \"#utility.yul\":9769:9815   */\n      swap2\n      pop\n        /* \"#utility.yul\":9559:9821   */\n      pop\n        /* \"#utility.yul\":9477:9821   */\n      swap3\n      swap2\n      pop\n      pop\n      jump\t// out\n        /* \"#utility.yul\":9827:10001   */\n    tag_295:\n        /* \"#utility.yul\":9916:9927   */\n      0x00\n        /* \"#utility.yul\":9950:9956   */\n      dup3\n        /* \"#utility.yul\":9945:9948   */\n      dup3\n        /* \"#utility.yul\":9938:9957   */\n      mstore\n        /* \"#utility.yul\":9990:9994   */\n      0x20\n        /* \"#utility.yul\":9985:9988   */\n      dup3\n        /* \"#utility.yul\":9981:9995   */\n      add\n        /* \"#utility.yul\":9966:9995   */\n      swap1\n      pop\n        /* \"#utility.yul\":9827:10001   */\n      swap3\n      swap2\n      pop\n      pop\n      jump\t// out\n        /* \"#utility.yul\":10037:10749   */\n    tag_296:\n        /* \"#utility.yul\":10146:10149   */\n      0x00\n        /* \"#utility.yul\":10175:10229   */\n      tag_464\n        /* \"#utility.yul\":10223:10228   */\n      dup3\n        /* \"#utility.yul\":10175:10229   */\n      tag_269\n      jump\t// in\n    tag_464:\n        /* \"#utility.yul\":10245:10321   */\n      tag_465\n        /* \"#utility.yul\":10314:10320   */\n      dup2\n        /* \"#utility.yul\":10309:10312   */\n      dup6\n        /* \"#utility.yul\":10245:10321   */\n      tag_295\n      jump\t// in\n    tag_465:\n        /* \"#utility.yul\":10238:10321   */\n      swap4\n      pop\n        /* \"#utility.yul\":10345:10401   */\n      tag_466\n        /* \"#utility.yul\":10395:10400   */\n      dup4\n        /* \"#utility.yul\":10345:10401   */\n      tag_271\n      jump\t// in\n    tag_466:\n        /* \"#utility.yul\":10424:10431   */\n      dup1\n        /* \"#utility.yul\":10455:10456   */\n      0x00\n        /* \"#utility.yul\":10440:10724   */\n    tag_467:\n        /* \"#utility.yul\":10465:10471   */\n      dup4\n        /* \"#utility.yul\":10462:10463   */\n      dup2\n        /* \"#utility.yul\":10459:10472   */\n      lt\n        /* \"#utility.yul\":10440:10724   */\n      iszero\n      tag_469\n      jumpi\n        /* \"#utility.yul\":10541:10547   */\n      dup2\n        /* \"#utility.yul\":10535:10548   */\n      mload\n        /* \"#utility.yul\":10568:10631   */\n      tag_470\n        /* \"#utility.yul\":10627:10630   */\n      dup9\n        /* \"#utility.yul\":10612:10625   */\n      dup3\n        /* \"#utility.yul\":10568:10631   */\n      tag_273\n      jump\t// in\n    tag_470:\n        /* \"#utility.yul\":10561:10631   */\n      swap8\n      pop\n        /* \"#utility.yul\":10654:10714   */\n      tag_471\n        /* \"#utility.yul\":10707:10713   */\n      dup4\n        /* \"#utility.yul\":10654:10714   */\n      tag_274\n      jump\t// in\n    tag_471:\n        /* \"#utility.yul\":10644:10714   */\n      swap3\n      pop\n        /* \"#utility.yul\":10500:10724   */\n      pop\n        /* \"#utility.yul\":10487:10488   */\n      0x01\n        /* \"#utility.yul\":10484:10485   */\n      dup2\n        /* \"#utility.yul\":10480:10489   */\n      add\n        /* \"#utility.yul\":10475:10489   */\n      swap1\n      pop\n        /* \"#utility.yul\":10440:10724   */\n      jump(tag_467)\n    tag_469:\n        /* \"#utility.yul\":10444:10458   */\n      pop\n        /* \"#utility.yul\":10740:10743   */\n      dup6\n        /* \"#utility.yul\":10733:10743   */\n      swap4\n      pop\n        /* \"#utility.yul\":10151:10749   */\n      pop\n      pop\n      pop\n        /* \"#utility.yul\":10037:10749   */\n      swap3\n      swap2\n      pop\n      pop\n      jump\t// out\n        /* \"#utility.yul\":10755:10860   */\n    tag_297:\n        /* \"#utility.yul\":10830:10853   */\n      tag_473\n        /* \"#utility.yul\":10847:10852   */\n      dup2\n        /* \"#utility.yul\":10830:10853   */\n      tag_289\n      jump\t// in\n    tag_473:\n        /* \"#utility.yul\":10825:10828   */\n      dup3\n        /* \"#utility.yul\":10818:10854   */\n      mstore\n        /* \"#utility.yul\":10755:10860   */\n      pop\n      pop\n      jump\t// out\n        /* \"#utility.yul\":10866:10965   */\n    tag_298:\n        /* \"#utility.yul\":10937:10958   */\n      tag_475\n        /* \"#utility.yul\":10952:10957   */\n      dup2\n        /* \"#utility.yul\":10937:10958   */\n      tag_291\n      jump\t// in\n    tag_475:\n        /* \"#utility.yul\":10932:10935   */\n      dup3\n        /* \"#utility.yul\":10925:10959   */\n      mstore\n        /* \"#utility.yul\":10866:10965   */\n      pop\n      pop\n      jump\t// out\n        /* \"#utility.yul\":11031:12468   */\n    tag_299:\n        /* \"#utility.yul\":11152:11155   */\n      0x00\n        /* \"#utility.yul\":11188:11192   */\n      0xc0\n        /* \"#utility.yul\":11183:11186   */\n      dup4\n        /* \"#utility.yul\":11179:11193   */\n      add\n        /* \"#utility.yul\":11275:11279   */\n      0x00\n        /* \"#utility.yul\":11268:11273   */\n      dup4\n        /* \"#utility.yul\":11264:11280   */\n      add\n        /* \"#utility.yul\":11258:11281   */\n      mload\n        /* \"#utility.yul\":11328:11331   */\n      dup5\n        /* \"#utility.yul\":11322:11326   */\n      dup3\n        /* \"#utility.yul\":11318:11332   */\n      sub\n        /* \"#utility.yul\":11311:11315   */\n      0x00\n        /* \"#utility.yul\":11306:11309   */\n      dup7\n        /* \"#utility.yul\":11302:11316   */\n      add\n        /* \"#utility.yul\":11295:11333   */\n      mstore\n        /* \"#utility.yul\":11354:11427   */\n      tag_477\n        /* \"#utility.yul\":11422:11426   */\n      dup3\n        /* \"#utility.yul\":11408:11420   */\n      dup3\n        /* \"#utility.yul\":11354:11427   */\n      tag_294\n      jump\t// in\n    tag_477:\n        /* \"#utility.yul\":11346:11427   */\n      swap2\n      pop\n        /* \"#utility.yul\":11203:11438   */\n      pop\n        /* \"#utility.yul\":11524:11528   */\n      0x20\n        /* \"#utility.yul\":11517:11522   */\n      dup4\n        /* \"#utility.yul\":11513:11529   */\n      add\n        /* \"#utility.yul\":11507:11530   */\n      mload\n        /* \"#utility.yul\":11543:11606   */\n      tag_478\n        /* \"#utility.yul\":11600:11604   */\n      0x20\n        /* \"#utility.yul\":11595:11598   */\n      dup7\n        /* \"#utility.yul\":11591:11605   */\n      add\n        /* \"#utility.yul\":11577:11589   */\n      dup3\n        /* \"#utility.yul\":11543:11606   */\n      tag_272\n      jump\t// in\n    tag_478:\n        /* \"#utility.yul\":11448:11616   */\n      pop\n        /* \"#utility.yul\":11704:11708   */\n      0x40\n        /* \"#utility.yul\":11697:11702   */\n      dup4\n        /* \"#utility.yul\":11693:11709   */\n      add\n        /* \"#utility.yul\":11687:11710   */\n      mload\n        /* \"#utility.yul\":11757:11760   */\n      dup5\n        /* \"#utility.yul\":11751:11755   */\n      dup3\n        /* \"#utility.yul\":11747:11761   */\n      sub\n        /* \"#utility.yul\":11740:11744   */\n      0x40\n        /* \"#utility.yul\":11735:11738   */\n      dup7\n        /* \"#utility.yul\":11731:11745   */\n      add\n        /* \"#utility.yul\":11724:11762   */\n      mstore\n        /* \"#utility.yul\":11783:11886   */\n      tag_479\n        /* \"#utility.yul\":11881:11885   */\n      dup3\n        /* \"#utility.yul\":11867:11879   */\n      dup3\n        /* \"#utility.yul\":11783:11886   */\n      tag_296\n      jump\t// in\n    tag_479:\n        /* \"#utility.yul\":11775:11886   */\n      swap2\n      pop\n        /* \"#utility.yul\":11626:11897   */\n      pop\n        /* \"#utility.yul\":11992:11996   */\n      0x60\n        /* \"#utility.yul\":11985:11990   */\n      dup4\n        /* \"#utility.yul\":11981:11997   */\n      add\n        /* \"#utility.yul\":11975:11998   */\n      mload\n        /* \"#utility.yul\":12011:12072   */\n      tag_480\n        /* \"#utility.yul\":12066:12070   */\n      0x60\n        /* \"#utility.yul\":12061:12064   */\n      dup7\n        /* \"#utility.yul\":12057:12071   */\n      add\n        /* \"#utility.yul\":12043:12055   */\n      dup3\n        /* \"#utility.yul\":12011:12072   */\n      tag_297\n      jump\t// in\n    tag_480:\n        /* \"#utility.yul\":11907:12082   */\n      pop\n        /* \"#utility.yul\":12181:12185   */\n      0x80\n        /* \"#utility.yul\":12174:12179   */\n      dup4\n        /* \"#utility.yul\":12170:12186   */\n      add\n        /* \"#utility.yul\":12164:12187   */\n      mload\n        /* \"#utility.yul\":12200:12261   */\n      tag_481\n        /* \"#utility.yul\":12255:12259   */\n      0x80\n        /* \"#utility.yul\":12250:12253   */\n      dup7\n        /* \"#utility.yul\":12246:12260   */\n      add\n        /* \"#utility.yul\":12232:12244   */\n      dup3\n        /* \"#utility.yul\":12200:12261   */\n      tag_297\n      jump\t// in\n    tag_481:\n        /* \"#utility.yul\":12092:12271   */\n      pop\n        /* \"#utility.yul\":12355:12359   */\n      0xa0\n        /* \"#utility.yul\":12348:12353   */\n      dup4\n        /* \"#utility.yul\":12344:12360   */\n      add\n        /* \"#utility.yul\":12338:12361   */\n      mload\n        /* \"#utility.yul\":12374:12431   */\n      tag_482\n        /* \"#utility.yul\":12425:12429   */\n      0xa0\n        /* \"#utility.yul\":12420:12423   */\n      dup7\n        /* \"#utility.yul\":12416:12430   */\n      add\n        /* \"#utility.yul\":12402:12414   */\n      dup3\n        /* \"#utility.yul\":12374:12431   */\n      tag_298\n      jump\t// in\n    tag_482:\n        /* \"#utility.yul\":12281:12441   */\n      pop\n        /* \"#utility.yul\":12458:12462   */\n      dup1\n        /* \"#utility.yul\":12451:12462   */\n      swap2\n      pop\n        /* \"#utility.yul\":11157:12468   */\n      pop\n        /* \"#utility.yul\":11031:12468   */\n      swap3\n      swap2\n      pop\n      pop\n      jump\t// out\n        /* \"#utility.yul\":12474:12851   */\n    tag_52:\n        /* \"#utility.yul\":12619:12623   */\n      0x00\n        /* \"#utility.yul\":12657:12659   */\n      0x20\n        /* \"#utility.yul\":12646:12655   */\n      dup3\n        /* \"#utility.yul\":12642:12660   */\n      add\n        /* \"#utility.yul\":12634:12660   */\n      swap1\n      pop\n        /* \"#utility.yul\":12706:12715   */\n      dup2\n        /* \"#utility.yul\":12700:12704   */\n      dup2\n        /* \"#utility.yul\":12696:12716   */\n      sub\n        /* \"#utility.yul\":12692:12693   */\n      0x00\n        /* \"#utility.yul\":12681:12690   */\n      dup4\n        /* \"#utility.yul\":12677:12694   */\n      add\n        /* \"#utility.yul\":12670:12717   */\n      mstore\n        /* \"#utility.yul\":12734:12844   */\n      tag_484\n        /* \"#utility.yul\":12839:12843   */\n      dup2\n        /* \"#utility.yul\":12830:12836   */\n      dup5\n        /* \"#utility.yul\":12734:12844   */\n      tag_299\n      jump\t// in\n    tag_484:\n        /* \"#utility.yul\":12726:12844   */\n      swap1\n      pop\n        /* \"#utility.yul\":12474:12851   */\n      swap3\n      swap2\n      pop\n      pop\n      jump\t// out\n        /* \"#utility.yul\":12857:13622   */\n    tag_55:\n        /* \"#utility.yul\":12943:12949   */\n      0x00\n        /* \"#utility.yul\":12951:12957   */\n      dup1\n        /* \"#utility.yul\":12959:12965   */\n      0x00\n        /* \"#utility.yul\":12967:12973   */\n      dup1\n        /* \"#utility.yul\":13016:13019   */\n      0x80\n        /* \"#utility.yul\":13004:13013   */\n      dup6\n        /* \"#utility.yul\":12995:13002   */\n      dup8\n        /* \"#utility.yul\":12991:13014   */\n      sub\n        /* \"#utility.yul\":12987:13020   */\n      slt\n        /* \"#utility.yul\":12984:13104   */\n      iszero\n      tag_486\n      jumpi\n        /* \"#utility.yul\":13023:13102   */\n      tag_487\n      tag_259\n      jump\t// in\n    tag_487:\n        /* \"#utility.yul\":12984:13104   */\n    tag_486:\n        /* \"#utility.yul\":13143:13144   */\n      0x00\n        /* \"#utility.yul\":13168:13221   */\n      tag_488\n        /* \"#utility.yul\":13213:13220   */\n      dup8\n        /* \"#utility.yul\":13204:13210   */\n      dup3\n        /* \"#utility.yul\":13193:13202   */\n      dup9\n        /* \"#utility.yul\":13189:13211   */\n      add\n        /* \"#utility.yul\":13168:13221   */\n      tag_264\n      jump\t// in\n    tag_488:\n        /* \"#utility.yul\":13158:13221   */\n      swap5\n      pop\n        /* \"#utility.yul\":13114:13231   */\n      pop\n        /* \"#utility.yul\":13270:13272   */\n      0x20\n        /* \"#utility.yul\":13296:13349   */\n      tag_489\n        /* \"#utility.yul\":13341:13348   */\n      dup8\n        /* \"#utility.yul\":13332:13338   */\n      dup3\n        /* \"#utility.yul\":13321:13330   */\n      dup9\n        /* \"#utility.yul\":13317:13339   */\n      add\n        /* \"#utility.yul\":13296:13349   */\n      tag_267\n      jump\t// in\n    tag_489:\n        /* \"#utility.yul\":13286:13349   */\n      swap4\n      pop\n        /* \"#utility.yul\":13241:13359   */\n      pop\n        /* \"#utility.yul\":13398:13400   */\n      0x40\n        /* \"#utility.yul\":13424:13477   */\n      tag_490\n        /* \"#utility.yul\":13469:13476   */\n      dup8\n        /* \"#utility.yul\":13460:13466   */\n      dup3\n        /* \"#utility.yul\":13449:13458   */\n      dup9\n        /* \"#utility.yul\":13445:13467   */\n      add\n        /* \"#utility.yul\":13424:13477   */\n      tag_267\n      jump\t// in\n    tag_490:\n        /* \"#utility.yul\":13414:13477   */\n      swap3\n      pop\n        /* \"#utility.yul\":13369:13487   */\n      pop\n        /* \"#utility.yul\":13526:13528   */\n      0x60\n        /* \"#utility.yul\":13552:13605   */\n      tag_491\n        /* \"#utility.yul\":13597:13604   */\n      dup8\n        /* \"#utility.yul\":13588:13594   */\n      dup3\n        /* \"#utility.yul\":13577:13586   */\n      dup9\n        /* \"#utility.yul\":13573:13595   */\n      add\n        /* \"#utility.yul\":13552:13605   */\n      tag_267\n      jump\t// in\n    tag_491:\n        /* \"#utility.yul\":13542:13605   */\n      swap2\n      pop\n        /* \"#utility.yul\":13497:13615   */\n      pop\n        /* \"#utility.yul\":12857:13622   */\n      swap3\n      swap6\n      swap2\n      swap5\n      pop\n      swap3\n      pop\n      jump\t// out\n        /* \"#utility.yul\":13628:13705   */\n    tag_300:\n        /* \"#utility.yul\":13665:13672   */\n      0x00\n        /* \"#utility.yul\":13694:13699   */\n      dup2\n        /* \"#utility.yul\":13683:13699   */\n      swap1\n      pop\n        /* \"#utility.yul\":13628:13705   */\n      swap2\n      swap1\n      pop\n      jump\t// out\n        /* \"#utility.yul\":13711:13829   */\n    tag_301:\n        /* \"#utility.yul\":13798:13822   */\n      tag_494\n        /* \"#utility.yul\":13816:13821   */\n      dup2\n        /* \"#utility.yul\":13798:13822   */\n      tag_300\n      jump\t// in\n    tag_494:\n        /* \"#utility.yul\":13793:13796   */\n      dup3\n        /* \"#utility.yul\":13786:13823   */\n      mstore\n        /* \"#utility.yul\":13711:13829   */\n      pop\n      pop\n      jump\t// out\n        /* \"#utility.yul\":13835:14057   */\n    tag_58:\n        /* \"#utility.yul\":13928:13932   */\n      0x00\n        /* \"#utility.yul\":13966:13968   */\n      0x20\n        /* \"#utility.yul\":13955:13964   */\n      dup3\n        /* \"#utility.yul\":13951:13969   */\n      add\n        /* \"#utility.yul\":13943:13969   */\n      swap1\n      pop\n        /* \"#utility.yul\":13979:14050   */\n      tag_496\n        /* \"#utility.yul\":14047:14048   */\n      0x00\n        /* \"#utility.yul\":14036:14045   */\n      dup4\n        /* \"#utility.yul\":14032:14049   */\n      add\n        /* \"#utility.yul\":14023:14029   */\n      dup5\n        /* \"#utility.yul\":13979:14050   */\n      tag_301\n      jump\t// in\n    tag_496:\n        /* \"#utility.yul\":13835:14057   */\n      swap3\n      swap2\n      pop\n      pop\n      jump\t// out\n        /* \"#utility.yul\":14063:14180   */\n    tag_302:\n        /* \"#utility.yul\":14172:14173   */\n      0x00\n        /* \"#utility.yul\":14169:14170   */\n      dup1\n        /* \"#utility.yul\":14162:14174   */\n      revert\n        /* \"#utility.yul\":14186:14303   */\n    tag_303:\n        /* \"#utility.yul\":14295:14296   */\n      0x00\n        /* \"#utility.yul\":14292:14293   */\n      dup1\n        /* \"#utility.yul\":14285:14297   */\n      revert\n        /* \"#utility.yul\":14309:14489   */\n    tag_104:\n        /* \"#utility.yul\":14357:14434   */\n      0x4e487b7100000000000000000000000000000000000000000000000000000000\n        /* \"#utility.yul\":14354:14355   */\n      0x00\n        /* \"#utility.yul\":14347:14435   */\n      mstore\n        /* \"#utility.yul\":14454:14458   */\n      0x41\n        /* \"#utility.yul\":14451:14452   */\n      0x04\n        /* \"#utility.yul\":14444:14459   */\n      mstore\n        /* \"#utility.yul\":14478:14482   */\n      0x24\n        /* \"#utility.yul\":14475:14476   */\n      0x00\n        /* \"#utility.yul\":14468:14483   */\n      revert\n        /* \"#utility.yul\":14495:14776   */\n    tag_304:\n        /* \"#utility.yul\":14578:14605   */\n      tag_501\n        /* \"#utility.yul\":14600:14604   */\n      dup3\n        /* \"#utility.yul\":14578:14605   */\n      tag_287\n      jump\t// in\n    tag_501:\n        /* \"#utility.yul\":14570:14576   */\n      dup2\n        /* \"#utility.yul\":14566:14606   */\n      add\n        /* \"#utility.yul\":14708:14714   */\n      dup2\n        /* \"#utility.yul\":14696:14706   */\n      dup2\n        /* \"#utility.yul\":14693:14715   */\n      lt\n        /* \"#utility.yul\":14672:14690   */\n      0xffffffffffffffff\n        /* \"#utility.yul\":14660:14670   */\n      dup3\n        /* \"#utility.yul\":14657:14691   */\n      gt\n        /* \"#utility.yul\":14654:14716   */\n      or\n        /* \"#utility.yul\":14651:14739   */\n      iszero\n      tag_502\n      jumpi\n        /* \"#utility.yul\":14719:14737   */\n      tag_503\n      tag_104\n      jump\t// in\n    tag_503:\n        /* \"#utility.yul\":14651:14739   */\n    tag_502:\n        /* \"#utility.yul\":14759:14769   */\n      dup1\n        /* \"#utility.yul\":14755:14757   */\n      0x40\n        /* \"#utility.yul\":14748:14770   */\n      mstore\n        /* \"#utility.yul\":14538:14776   */\n      pop\n        /* \"#utility.yul\":14495:14776   */\n      pop\n      pop\n      jump\t// out\n        /* \"#utility.yul\":14782:14911   */\n    tag_305:\n        /* \"#utility.yul\":14816:14822   */\n      0x00\n        /* \"#utility.yul\":14843:14863   */\n      tag_505\n      tag_258\n      jump\t// in\n    tag_505:\n        /* \"#utility.yul\":14833:14863   */\n      swap1\n      pop\n        /* \"#utility.yul\":14872:14905   */\n      tag_506\n        /* \"#utility.yul\":14900:14904   */\n      dup3\n        /* \"#utility.yul\":14892:14898   */\n      dup3\n        /* \"#utility.yul\":14872:14905   */\n      tag_304\n      jump\t// in\n    tag_506:\n        /* \"#utility.yul\":14782:14911   */\n      swap2\n      swap1\n      pop\n      jump\t// out\n        /* \"#utility.yul\":14917:15224   */\n    tag_306:\n        /* \"#utility.yul\":14978:14982   */\n      0x00\n        /* \"#utility.yul\":15068:15086   */\n      0xffffffffffffffff\n        /* \"#utility.yul\":15060:15066   */\n      dup3\n        /* \"#utility.yul\":15057:15087   */\n      gt\n        /* \"#utility.yul\":15054:15110   */\n      iszero\n      tag_508\n      jumpi\n        /* \"#utility.yul\":15090:15108   */\n      tag_509\n      tag_104\n      jump\t// in\n    tag_509:\n        /* \"#utility.yul\":15054:15110   */\n    tag_508:\n        /* \"#utility.yul\":15128:15157   */\n      tag_510\n        /* \"#utility.yul\":15150:15156   */\n      dup3\n        /* \"#utility.yul\":15128:15157   */\n      tag_287\n      jump\t// in\n    tag_510:\n        /* \"#utility.yul\":15120:15157   */\n      swap1\n      pop\n        /* \"#utility.yul\":15212:15216   */\n      0x20\n        /* \"#utility.yul\":15206:15210   */\n      dup2\n        /* \"#utility.yul\":15202:15217   */\n      add\n        /* \"#utility.yul\":15194:15217   */\n      swap1\n      pop\n        /* \"#utility.yul\":14917:15224   */\n      swap2\n      swap1\n      pop\n      jump\t// out\n        /* \"#utility.yul\":15230:15384   */\n    tag_307:\n        /* \"#utility.yul\":15314:15320   */\n      dup3\n        /* \"#utility.yul\":15309:15312   */\n      dup2\n        /* \"#utility.yul\":15304:15307   */\n      dup4\n        /* \"#utility.yul\":15291:15321   */\n      calldatacopy\n        /* \"#utility.yul\":15376:15377   */\n      0x00\n        /* \"#utility.yul\":15367:15373   */\n      dup4\n        /* \"#utility.yul\":15362:15365   */\n      dup4\n        /* \"#utility.yul\":15358:15374   */\n      add\n        /* \"#utility.yul\":15351:15378   */\n      mstore\n        /* \"#utility.yul\":15230:15384   */\n      pop\n      pop\n      pop\n      jump\t// out\n        /* \"#utility.yul\":15390:15800   */\n    tag_308:\n        /* \"#utility.yul\":15467:15472   */\n      0x00\n        /* \"#utility.yul\":15492:15557   */\n      tag_513\n        /* \"#utility.yul\":15508:15556   */\n      tag_514\n        /* \"#utility.yul\":15549:15555   */\n      dup5\n        /* \"#utility.yul\":15508:15556   */\n      tag_306\n      jump\t// in\n    tag_514:\n        /* \"#utility.yul\":15492:15557   */\n      tag_305\n      jump\t// in\n    tag_513:\n        /* \"#utility.yul\":15483:15557   */\n      swap1\n      pop\n        /* \"#utility.yul\":15580:15586   */\n      dup3\n        /* \"#utility.yul\":15573:15578   */\n      dup2\n        /* \"#utility.yul\":15566:15587   */\n      mstore\n        /* \"#utility.yul\":15618:15622   */\n      0x20\n        /* \"#utility.yul\":15611:15616   */\n      dup2\n        /* \"#utility.yul\":15607:15623   */\n      add\n        /* \"#utility.yul\":15656:15659   */\n      dup5\n        /* \"#utility.yul\":15647:15653   */\n      dup5\n        /* \"#utility.yul\":15642:15645   */\n      dup5\n        /* \"#utility.yul\":15638:15654   */\n      add\n        /* \"#utility.yul\":15635:15660   */\n      gt\n        /* \"#utility.yul\":15632:15744   */\n      iszero\n      tag_515\n      jumpi\n        /* \"#utility.yul\":15663:15742   */\n      tag_516\n      tag_303\n      jump\t// in\n    tag_516:\n        /* \"#utility.yul\":15632:15744   */\n    tag_515:\n        /* \"#utility.yul\":15753:15794   */\n      tag_517\n        /* \"#utility.yul\":15787:15793   */\n      dup5\n        /* \"#utility.yul\":15782:15785   */\n      dup3\n        /* \"#utility.yul\":15777:15780   */\n      dup6\n        /* \"#utility.yul\":15753:15794   */\n      tag_307\n      jump\t// in\n    tag_517:\n        /* \"#utility.yul\":15473:15800   */\n      pop\n        /* \"#utility.yul\":15390:15800   */\n      swap4\n      swap3\n      pop\n      pop\n      pop\n      jump\t// out\n        /* \"#utility.yul\":15819:16157   */\n    tag_309:\n        /* \"#utility.yul\":15874:15879   */\n      0x00\n        /* \"#utility.yul\":15923:15926   */\n      dup3\n        /* \"#utility.yul\":15916:15920   */\n      0x1f\n        /* \"#utility.yul\":15908:15914   */\n      dup4\n        /* \"#utility.yul\":15904:15921   */\n      add\n        /* \"#utility.yul\":15900:15927   */\n      slt\n        /* \"#utility.yul\":15890:16012   */\n      tag_519\n      jumpi\n        /* \"#utility.yul\":15931:16010   */\n      tag_520\n      tag_302\n      jump\t// in\n    tag_520:\n        /* \"#utility.yul\":15890:16012   */\n    tag_519:\n        /* \"#utility.yul\":16048:16054   */\n      dup2\n        /* \"#utility.yul\":16035:16055   */\n      calldataload\n        /* \"#utility.yul\":16073:16151   */\n      tag_521\n        /* \"#utility.yul\":16147:16150   */\n      dup5\n        /* \"#utility.yul\":16139:16145   */\n      dup3\n        /* \"#utility.yul\":16132:16136   */\n      0x20\n        /* \"#utility.yul\":16124:16130   */\n      dup7\n        /* \"#utility.yul\":16120:16137   */\n      add\n        /* \"#utility.yul\":16073:16151   */\n      tag_308\n      jump\t// in\n    tag_521:\n        /* \"#utility.yul\":16064:16151   */\n      swap2\n      pop\n        /* \"#utility.yul\":15880:16157   */\n      pop\n        /* \"#utility.yul\":15819:16157   */\n      swap3\n      swap2\n      pop\n      pop\n      jump\t// out\n        /* \"#utility.yul\":16163:17106   */\n    tag_61:\n        /* \"#utility.yul\":16258:16264   */\n      0x00\n        /* \"#utility.yul\":16266:16272   */\n      dup1\n        /* \"#utility.yul\":16274:16280   */\n      0x00\n        /* \"#utility.yul\":16282:16288   */\n      dup1\n        /* \"#utility.yul\":16331:16334   */\n      0x80\n        /* \"#utility.yul\":16319:16328   */\n      dup6\n        /* \"#utility.yul\":16310:16317   */\n      dup8\n        /* \"#utility.yul\":16306:16329   */\n      sub\n        /* \"#utility.yul\":16302:16335   */\n      slt\n        /* \"#utility.yul\":16299:16419   */\n      iszero\n      tag_523\n      jumpi\n        /* \"#utility.yul\":16338:16417   */\n      tag_524\n      tag_259\n      jump\t// in\n    tag_524:\n        /* \"#utility.yul\":16299:16419   */\n    tag_523:\n        /* \"#utility.yul\":16458:16459   */\n      0x00\n        /* \"#utility.yul\":16483:16536   */\n      tag_525\n        /* \"#utility.yul\":16528:16535   */\n      dup8\n        /* \"#utility.yul\":16519:16525   */\n      dup3\n        /* \"#utility.yul\":16508:16517   */\n      dup9\n        /* \"#utility.yul\":16504:16526   */\n      add\n        /* \"#utility.yul\":16483:16536   */\n      tag_264\n      jump\t// in\n    tag_525:\n        /* \"#utility.yul\":16473:16536   */\n      swap5\n      pop\n        /* \"#utility.yul\":16429:16546   */\n      pop\n        /* \"#utility.yul\":16585:16587   */\n      0x20\n        /* \"#utility.yul\":16611:16664   */\n      tag_526\n        /* \"#utility.yul\":16656:16663   */\n      dup8\n        /* \"#utility.yul\":16647:16653   */\n      dup3\n        /* \"#utility.yul\":16636:16645   */\n      dup9\n        /* \"#utility.yul\":16632:16654   */\n      add\n        /* \"#utility.yul\":16611:16664   */\n      tag_267\n      jump\t// in\n    tag_526:\n        /* \"#utility.yul\":16601:16664   */\n      swap4\n      pop\n        /* \"#utility.yul\":16556:16674   */\n      pop\n        /* \"#utility.yul\":16713:16715   */\n      0x40\n        /* \"#utility.yul\":16739:16792   */\n      tag_527\n        /* \"#utility.yul\":16784:16791   */\n      dup8\n        /* \"#utility.yul\":16775:16781   */\n      dup3\n        /* \"#utility.yul\":16764:16773   */\n      dup9\n        /* \"#utility.yul\":16760:16782   */\n      add\n        /* \"#utility.yul\":16739:16792   */\n      tag_267\n      jump\t// in\n    tag_527:\n        /* \"#utility.yul\":16729:16792   */\n      swap3\n      pop\n        /* \"#utility.yul\":16684:16802   */\n      pop\n        /* \"#utility.yul\":16869:16871   */\n      0x60\n        /* \"#utility.yul\":16858:16867   */\n      dup6\n        /* \"#utility.yul\":16854:16872   */\n      add\n        /* \"#utility.yul\":16841:16873   */\n      calldataload\n        /* \"#utility.yul\":16900:16918   */\n      0xffffffffffffffff\n        /* \"#utility.yul\":16892:16898   */\n      dup2\n        /* \"#utility.yul\":16889:16919   */\n      gt\n        /* \"#utility.yul\":16886:17003   */\n      iszero\n      tag_528\n      jumpi\n        /* \"#utility.yul\":16922:17001   */\n      tag_529\n      tag_260\n      jump\t// in\n    tag_529:\n        /* \"#utility.yul\":16886:17003   */\n    tag_528:\n        /* \"#utility.yul\":17027:17089   */\n      tag_530\n        /* \"#utility.yul\":17081:17088   */\n      dup8\n        /* \"#utility.yul\":17072:17078   */\n      dup3\n        /* \"#utility.yul\":17061:17070   */\n      dup9\n        /* \"#utility.yul\":17057:17079   */\n      add\n        /* \"#utility.yul\":17027:17089   */\n      tag_309\n      jump\t// in\n    tag_530:\n        /* \"#utility.yul\":17017:17089   */\n      swap2\n      pop\n        /* \"#utility.yul\":16812:17099   */\n      pop\n        /* \"#utility.yul\":16163:17106   */\n      swap3\n      swap6\n      swap2\n      swap5\n      pop\n      swap3\n      pop\n      jump\t// out\n        /* \"#utility.yul\":17112:17420   */\n    tag_310:\n        /* \"#utility.yul\":17174:17178   */\n      0x00\n        /* \"#utility.yul\":17264:17282   */\n      0xffffffffffffffff\n        /* \"#utility.yul\":17256:17262   */\n      dup3\n        /* \"#utility.yul\":17253:17283   */\n      gt\n        /* \"#utility.yul\":17250:17306   */\n      iszero\n      tag_532\n      jumpi\n        /* \"#utility.yul\":17286:17304   */\n      tag_533\n      tag_104\n      jump\t// in\n    tag_533:\n        /* \"#utility.yul\":17250:17306   */\n    tag_532:\n        /* \"#utility.yul\":17324:17353   */\n      tag_534\n        /* \"#utility.yul\":17346:17352   */\n      dup3\n        /* \"#utility.yul\":17324:17353   */\n      tag_287\n      jump\t// in\n    tag_534:\n        /* \"#utility.yul\":17316:17353   */\n      swap1\n      pop\n        /* \"#utility.yul\":17408:17412   */\n      0x20\n        /* \"#utility.yul\":17402:17406   */\n      dup2\n        /* \"#utility.yul\":17398:17413   */\n      add\n        /* \"#utility.yul\":17390:17413   */\n      swap1\n      pop\n        /* \"#utility.yul\":17112:17420   */\n      swap2\n      swap1\n      pop\n      jump\t// out\n        /* \"#utility.yul\":17426:17838   */\n    tag_311:\n        /* \"#utility.yul\":17504:17509   */\n      0x00\n        /* \"#utility.yul\":17529:17595   */\n      tag_536\n        /* \"#utility.yul\":17545:17594   */\n      tag_537\n        /* \"#utility.yul\":17587:17593   */\n      dup5\n        /* \"#utility.yul\":17545:17594   */\n      tag_310\n      jump\t// in\n    tag_537:\n        /* \"#utility.yul\":17529:17595   */\n      tag_305\n      jump\t// in\n    tag_536:\n        /* \"#utility.yul\":17520:17595   */\n      swap1\n      pop\n        /* \"#utility.yul\":17618:17624   */\n      dup3\n        /* \"#utility.yul\":17611:17616   */\n      dup2\n        /* \"#utility.yul\":17604:17625   */\n      mstore\n        /* \"#utility.yul\":17656:17660   */\n      0x20\n        /* \"#utility.yul\":17649:17654   */\n      dup2\n        /* \"#utility.yul\":17645:17661   */\n      add\n        /* \"#utility.yul\":17694:17697   */\n      dup5\n        /* \"#utility.yul\":17685:17691   */\n      dup5\n        /* \"#utility.yul\":17680:17683   */\n      dup5\n        /* \"#utility.yul\":17676:17692   */\n      add\n        /* \"#utility.yul\":17673:17698   */\n      gt\n        /* \"#utility.yul\":17670:17782   */\n      iszero\n      tag_538\n      jumpi\n        /* \"#utility.yul\":17701:17780   */\n      tag_539\n      tag_303\n      jump\t// in\n    tag_539:\n        /* \"#utility.yul\":17670:17782   */\n    tag_538:\n        /* \"#utility.yul\":17791:17832   */\n      tag_540\n        /* \"#utility.yul\":17825:17831   */\n      dup5\n        /* \"#utility.yul\":17820:17823   */\n      dup3\n        /* \"#utility.yul\":17815:17818   */\n      dup6\n        /* \"#utility.yul\":17791:17832   */\n      tag_307\n      jump\t// in\n    tag_540:\n        /* \"#utility.yul\":17510:17838   */\n      pop\n        /* \"#utility.yul\":17426:17838   */\n      swap4\n      swap3\n      pop\n      pop\n      pop\n      jump\t// out\n        /* \"#utility.yul\":17858:18198   */\n    tag_312:\n        /* \"#utility.yul\":17914:17919   */\n      0x00\n        /* \"#utility.yul\":17963:17966   */\n      dup3\n        /* \"#utility.yul\":17956:17960   */\n      0x1f\n        /* \"#utility.yul\":17948:17954   */\n      dup4\n        /* \"#utility.yul\":17944:17961   */\n      add\n        /* \"#utility.yul\":17940:17967   */\n      slt\n        /* \"#utility.yul\":17930:18052   */\n      tag_542\n      jumpi\n        /* \"#utility.yul\":17971:18050   */\n      tag_543\n      tag_302\n      jump\t// in\n    tag_543:\n        /* \"#utility.yul\":17930:18052   */\n    tag_542:\n        /* \"#utility.yul\":18088:18094   */\n      dup2\n        /* \"#utility.yul\":18075:18095   */\n      calldataload\n        /* \"#utility.yul\":18113:18192   */\n      tag_544\n        /* \"#utility.yul\":18188:18191   */\n      dup5\n        /* \"#utility.yul\":18180:18186   */\n      dup3\n        /* \"#utility.yul\":18173:18177   */\n      0x20\n        /* \"#utility.yul\":18165:18171   */\n      dup7\n        /* \"#utility.yul\":18161:18178   */\n      add\n        /* \"#utility.yul\":18113:18192   */\n      tag_311\n      jump\t// in\n    tag_544:\n        /* \"#utility.yul\":18104:18192   */\n      swap2\n      pop\n        /* \"#utility.yul\":17920:18198   */\n      pop\n        /* \"#utility.yul\":17858:18198   */\n      swap3\n      swap2\n      pop\n      pop\n      jump\t// out\n        /* \"#utility.yul\":18204:18324   */\n    tag_313:\n        /* \"#utility.yul\":18276:18299   */\n      tag_546\n        /* \"#utility.yul\":18293:18298   */\n      dup2\n        /* \"#utility.yul\":18276:18299   */\n      tag_289\n      jump\t// in\n    tag_546:\n        /* \"#utility.yul\":18269:18274   */\n      dup2\n        /* \"#utility.yul\":18266:18300   */\n      eq\n        /* \"#utility.yul\":18256:18318   */\n      tag_547\n      jumpi\n        /* \"#utility.yul\":18314:18315   */\n      0x00\n        /* \"#utility.yul\":18311:18312   */\n      dup1\n        /* \"#utility.yul\":18304:18316   */\n      revert\n        /* \"#utility.yul\":18256:18318   */\n    tag_547:\n        /* \"#utility.yul\":18204:18324   */\n      pop\n      jump\t// out\n        /* \"#utility.yul\":18330:18467   */\n    tag_314:\n        /* \"#utility.yul\":18375:18380   */\n      0x00\n        /* \"#utility.yul\":18413:18419   */\n      dup2\n        /* \"#utility.yul\":18400:18420   */\n      calldataload\n        /* \"#utility.yul\":18391:18420   */\n      swap1\n      pop\n        /* \"#utility.yul\":18429:18461   */\n      tag_549\n        /* \"#utility.yul\":18455:18460   */\n      dup2\n        /* \"#utility.yul\":18429:18461   */\n      tag_313\n      jump\t// in\n    tag_549:\n        /* \"#utility.yul\":18330:18467   */\n      swap3\n      swap2\n      pop\n      pop\n      jump\t// out\n        /* \"#utility.yul\":18473:19125   */\n    tag_72:\n        /* \"#utility.yul\":18550:18556   */\n      0x00\n        /* \"#utility.yul\":18558:18564   */\n      dup1\n        /* \"#utility.yul\":18607:18609   */\n      0x40\n        /* \"#utility.yul\":18595:18604   */\n      dup4\n        /* \"#utility.yul\":18586:18593   */\n      dup6\n        /* \"#utility.yul\":18582:18605   */\n      sub\n        /* \"#utility.yul\":18578:18610   */\n      slt\n        /* \"#utility.yul\":18575:18694   */\n      iszero\n      tag_551\n      jumpi\n        /* \"#utility.yul\":18613:18692   */\n      tag_552\n      tag_259\n      jump\t// in\n    tag_552:\n        /* \"#utility.yul\":18575:18694   */\n    tag_551:\n        /* \"#utility.yul\":18761:18762   */\n      0x00\n        /* \"#utility.yul\":18750:18759   */\n      dup4\n        /* \"#utility.yul\":18746:18763   */\n      add\n        /* \"#utility.yul\":18733:18764   */\n      calldataload\n        /* \"#utility.yul\":18791:18809   */\n      0xffffffffffffffff\n        /* \"#utility.yul\":18783:18789   */\n      dup2\n        /* \"#utility.yul\":18780:18810   */\n      gt\n        /* \"#utility.yul\":18777:18894   */\n      iszero\n      tag_553\n      jumpi\n        /* \"#utility.yul\":18813:18892   */\n      tag_554\n      tag_260\n      jump\t// in\n    tag_554:\n        /* \"#utility.yul\":18777:18894   */\n    tag_553:\n        /* \"#utility.yul\":18918:18981   */\n      tag_555\n        /* \"#utility.yul\":18973:18980   */\n      dup6\n        /* \"#utility.yul\":18964:18970   */\n      dup3\n        /* \"#utility.yul\":18953:18962   */\n      dup7\n        /* \"#utility.yul\":18949:18971   */\n      add\n        /* \"#utility.yul\":18918:18981   */\n      tag_312\n      jump\t// in\n    tag_555:\n        /* \"#utility.yul\":18908:18981   */\n      swap3\n      pop\n        /* \"#utility.yul\":18704:18991   */\n      pop\n        /* \"#utility.yul\":19030:19032   */\n      0x20\n        /* \"#utility.yul\":19056:19108   */\n      tag_556\n        /* \"#utility.yul\":19100:19107   */\n      dup6\n        /* \"#utility.yul\":19091:19097   */\n      dup3\n        /* \"#utility.yul\":19080:19089   */\n      dup7\n        /* \"#utility.yul\":19076:19098   */\n      add\n        /* \"#utility.yul\":19056:19108   */\n      tag_314\n      jump\t// in\n    tag_556:\n        /* \"#utility.yul\":19046:19108   */\n      swap2\n      pop\n        /* \"#utility.yul\":19001:19118   */\n      pop\n        /* \"#utility.yul\":18473:19125   */\n      swap3\n      pop\n      swap3\n      swap1\n      pop\n      jump\t// out\n        /* \"#utility.yul\":19131:19271   */\n    tag_315:\n        /* \"#utility.yul\":19224:19230   */\n      0x00\n        /* \"#utility.yul\":19258:19263   */\n      dup2\n        /* \"#utility.yul\":19252:19264   */\n      mload\n        /* \"#utility.yul\":19242:19264   */\n      swap1\n      pop\n        /* \"#utility.yul\":19131:19271   */\n      swap2\n      swap1\n      pop\n      jump\t// out\n        /* \"#utility.yul\":19277:19487   */\n    tag_316:\n        /* \"#utility.yul\":19402:19413   */\n      0x00\n        /* \"#utility.yul\":19436:19442   */\n      dup3\n        /* \"#utility.yul\":19431:19434   */\n      dup3\n        /* \"#utility.yul\":19424:19443   */\n      mstore\n        /* \"#utility.yul\":19476:19480   */\n      0x20\n        /* \"#utility.yul\":19471:19474   */\n      dup3\n        /* \"#utility.yul\":19467:19481   */\n      add\n        /* \"#utility.yul\":19452:19481   */\n      swap1\n      pop\n        /* \"#utility.yul\":19277:19487   */\n      swap3\n      swap2\n      pop\n      pop\n      jump\t// out\n        /* \"#utility.yul\":19493:19651   */\n    tag_317:\n        /* \"#utility.yul\":19586:19590   */\n      0x00\n        /* \"#utility.yul\":19609:19612   */\n      dup2\n        /* \"#utility.yul\":19601:19612   */\n      swap1\n      pop\n        /* \"#utility.yul\":19639:19643   */\n      0x20\n        /* \"#utility.yul\":19634:19637   */\n      dup3\n        /* \"#utility.yul\":19630:19644   */\n      add\n        /* \"#utility.yul\":19622:19644   */\n      swap1\n      pop\n        /* \"#utility.yul\":19493:19651   */\n      swap2\n      swap1\n      pop\n      jump\t// out\n        /* \"#utility.yul\":19717:21144   */\n    tag_318:\n        /* \"#utility.yul\":19828:19831   */\n      0x00\n        /* \"#utility.yul\":19864:19868   */\n      0xc0\n        /* \"#utility.yul\":19859:19862   */\n      dup4\n        /* \"#utility.yul\":19855:19869   */\n      add\n        /* \"#utility.yul\":19951:19955   */\n      0x00\n        /* \"#utility.yul\":19944:19949   */\n      dup4\n        /* \"#utility.yul\":19940:19956   */\n      add\n        /* \"#utility.yul\":19934:19957   */\n      mload\n        /* \"#utility.yul\":20004:20007   */\n      dup5\n        /* \"#utility.yul\":19998:20002   */\n      dup3\n        /* \"#utility.yul\":19994:20008   */\n      sub\n        /* \"#utility.yul\":19987:19991   */\n      0x00\n        /* \"#utility.yul\":19982:19985   */\n      dup7\n        /* \"#utility.yul\":19978:19992   */\n      add\n        /* \"#utility.yul\":19971:20009   */\n      mstore\n        /* \"#utility.yul\":20030:20103   */\n      tag_561\n        /* \"#utility.yul\":20098:20102   */\n      dup3\n        /* \"#utility.yul\":20084:20096   */\n      dup3\n        /* \"#utility.yul\":20030:20103   */\n      tag_294\n      jump\t// in\n    tag_561:\n        /* \"#utility.yul\":20022:20103   */\n      swap2\n      pop\n        /* \"#utility.yul\":19879:20114   */\n      pop\n        /* \"#utility.yul\":20200:20204   */\n      0x20\n        /* \"#utility.yul\":20193:20198   */\n      dup4\n        /* \"#utility.yul\":20189:20205   */\n      add\n        /* \"#utility.yul\":20183:20206   */\n      mload\n        /* \"#utility.yul\":20219:20282   */\n      tag_562\n        /* \"#utility.yul\":20276:20280   */\n      0x20\n        /* \"#utility.yul\":20271:20274   */\n      dup7\n        /* \"#utility.yul\":20267:20281   */\n      add\n        /* \"#utility.yul\":20253:20265   */\n      dup3\n        /* \"#utility.yul\":20219:20282   */\n      tag_272\n      jump\t// in\n    tag_562:\n        /* \"#utility.yul\":20124:20292   */\n      pop\n        /* \"#utility.yul\":20380:20384   */\n      0x40\n        /* \"#utility.yul\":20373:20378   */\n      dup4\n        /* \"#utility.yul\":20369:20385   */\n      add\n        /* \"#utility.yul\":20363:20386   */\n      mload\n        /* \"#utility.yul\":20433:20436   */\n      dup5\n        /* \"#utility.yul\":20427:20431   */\n      dup3\n        /* \"#utility.yul\":20423:20437   */\n      sub\n        /* \"#utility.yul\":20416:20420   */\n      0x40\n        /* \"#utility.yul\":20411:20414   */\n      dup7\n        /* \"#utility.yul\":20407:20421   */\n      add\n        /* \"#utility.yul\":20400:20438   */\n      mstore\n        /* \"#utility.yul\":20459:20562   */\n      tag_563\n        /* \"#utility.yul\":20557:20561   */\n      dup3\n        /* \"#utility.yul\":20543:20555   */\n      dup3\n        /* \"#utility.yul\":20459:20562   */\n      tag_296\n      jump\t// in\n    tag_563:\n        /* \"#utility.yul\":20451:20562   */\n      swap2\n      pop\n        /* \"#utility.yul\":20302:20573   */\n      pop\n        /* \"#utility.yul\":20668:20672   */\n      0x60\n        /* \"#utility.yul\":20661:20666   */\n      dup4\n        /* \"#utility.yul\":20657:20673   */\n      add\n        /* \"#utility.yul\":20651:20674   */\n      mload\n        /* \"#utility.yul\":20687:20748   */\n      tag_564\n        /* \"#utility.yul\":20742:20746   */\n      0x60\n        /* \"#utility.yul\":20737:20740   */\n      dup7\n        /* \"#utility.yul\":20733:20747   */\n      add\n        /* \"#utility.yul\":20719:20731   */\n      dup3\n        /* \"#utility.yul\":20687:20748   */\n      tag_297\n      jump\t// in\n    tag_564:\n        /* \"#utility.yul\":20583:20758   */\n      pop\n        /* \"#utility.yul\":20857:20861   */\n      0x80\n        /* \"#utility.yul\":20850:20855   */\n      dup4\n        /* \"#utility.yul\":20846:20862   */\n      add\n        /* \"#utility.yul\":20840:20863   */\n      mload\n        /* \"#utility.yul\":20876:20937   */\n      tag_565\n        /* \"#utility.yul\":20931:20935   */\n      0x80\n        /* \"#utility.yul\":20926:20929   */\n      dup7\n        /* \"#utility.yul\":20922:20936   */\n      add\n        /* \"#utility.yul\":20908:20920   */\n      dup3\n        /* \"#utility.yul\":20876:20937   */\n      tag_297\n      jump\t// in\n    tag_565:\n        /* \"#utility.yul\":20768:20947   */\n      pop\n        /* \"#utility.yul\":21031:21035   */\n      0xa0\n        /* \"#utility.yul\":21024:21029   */\n      dup4\n        /* \"#utility.yul\":21020:21036   */\n      add\n        /* \"#utility.yul\":21014:21037   */\n      mload\n        /* \"#utility.yul\":21050:21107   */\n      tag_566\n        /* \"#utility.yul\":21101:21105   */\n      0xa0\n        /* \"#utility.yul\":21096:21099   */\n      dup7\n        /* \"#utility.yul\":21092:21106   */\n      add\n        /* \"#utility.yul\":21078:21090   */\n      dup3\n        /* \"#utility.yul\":21050:21107   */\n      tag_298\n      jump\t// in\n    tag_566:\n        /* \"#utility.yul\":20957:21117   */\n      pop\n        /* \"#utility.yul\":21134:21138   */\n      dup1\n        /* \"#utility.yul\":21127:21138   */\n      swap2\n      pop\n        /* \"#utility.yul\":19833:21144   */\n      pop\n        /* \"#utility.yul\":19717:21144   */\n      swap3\n      swap2\n      pop\n      pop\n      jump\t// out\n        /* \"#utility.yul\":21150:21410   */\n    tag_319:\n        /* \"#utility.yul\":21271:21281   */\n      0x00\n        /* \"#utility.yul\":21306:21404   */\n      tag_568\n        /* \"#utility.yul\":21400:21403   */\n      dup4\n        /* \"#utility.yul\":21392:21398   */\n      dup4\n        /* \"#utility.yul\":21306:21404   */\n      tag_318\n      jump\t// in\n    tag_568:\n        /* \"#utility.yul\":21292:21404   */\n      swap1\n      pop\n        /* \"#utility.yul\":21150:21410   */\n      swap3\n      swap2\n      pop\n      pop\n      jump\t// out\n        /* \"#utility.yul\":21416:21555   */\n    tag_320:\n        /* \"#utility.yul\":21512:21516   */\n      0x00\n        /* \"#utility.yul\":21544:21548   */\n      0x20\n        /* \"#utility.yul\":21539:21542   */\n      dup3\n        /* \"#utility.yul\":21535:21549   */\n      add\n        /* \"#utility.yul\":21527:21549   */\n      swap1\n      pop\n        /* \"#utility.yul\":21416:21555   */\n      swap2\n      swap1\n      pop\n      jump\t// out\n        /* \"#utility.yul\":21625:22744   */\n    tag_321:\n        /* \"#utility.yul\":21796:21799   */\n      0x00\n        /* \"#utility.yul\":21825:21905   */\n      tag_571\n        /* \"#utility.yul\":21899:21904   */\n      dup3\n        /* \"#utility.yul\":21825:21905   */\n      tag_315\n      jump\t// in\n    tag_571:\n        /* \"#utility.yul\":21921:22033   */\n      tag_572\n        /* \"#utility.yul\":22026:22032   */\n      dup2\n        /* \"#utility.yul\":22021:22024   */\n      dup6\n        /* \"#utility.yul\":21921:22033   */\n      tag_316\n      jump\t// in\n    tag_572:\n        /* \"#utility.yul\":21914:22033   */\n      swap4\n      pop\n        /* \"#utility.yul\":22059:22062   */\n      dup4\n        /* \"#utility.yul\":22104:22108   */\n      0x20\n        /* \"#utility.yul\":22096:22102   */\n      dup3\n        /* \"#utility.yul\":22092:22109   */\n      mul\n        /* \"#utility.yul\":22087:22090   */\n      dup6\n        /* \"#utility.yul\":22083:22110   */\n      add\n        /* \"#utility.yul\":22134:22216   */\n      tag_573\n        /* \"#utility.yul\":22210:22215   */\n      dup6\n        /* \"#utility.yul\":22134:22216   */\n      tag_317\n      jump\t// in\n    tag_573:\n        /* \"#utility.yul\":22239:22246   */\n      dup1\n        /* \"#utility.yul\":22270:22271   */\n      0x00\n        /* \"#utility.yul\":22255:22699   */\n    tag_574:\n        /* \"#utility.yul\":22280:22286   */\n      dup6\n        /* \"#utility.yul\":22277:22278   */\n      dup2\n        /* \"#utility.yul\":22274:22287   */\n      lt\n        /* \"#utility.yul\":22255:22699   */\n      iszero\n      tag_576\n      jumpi\n        /* \"#utility.yul\":22351:22360   */\n      dup5\n        /* \"#utility.yul\":22345:22349   */\n      dup5\n        /* \"#utility.yul\":22341:22361   */\n      sub\n        /* \"#utility.yul\":22336:22339   */\n      dup10\n        /* \"#utility.yul\":22329:22362   */\n      mstore\n        /* \"#utility.yul\":22402:22408   */\n      dup2\n        /* \"#utility.yul\":22396:22409   */\n      mload\n        /* \"#utility.yul\":22430:22546   */\n      tag_577\n        /* \"#utility.yul\":22541:22545   */\n      dup6\n        /* \"#utility.yul\":22526:22539   */\n      dup3\n        /* \"#utility.yul\":22430:22546   */\n      tag_319\n      jump\t// in\n    tag_577:\n        /* \"#utility.yul\":22422:22546   */\n      swap5\n      pop\n        /* \"#utility.yul\":22569:22655   */\n      tag_578\n        /* \"#utility.yul\":22648:22654   */\n      dup4\n        /* \"#utility.yul\":22569:22655   */\n      tag_320\n      jump\t// in\n    tag_578:\n        /* \"#utility.yul\":22559:22655   */\n      swap3\n      pop\n        /* \"#utility.yul\":22684:22688   */\n      0x20\n        /* \"#utility.yul\":22679:22682   */\n      dup11\n        /* \"#utility.yul\":22675:22689   */\n      add\n        /* \"#utility.yul\":22668:22689   */\n      swap10\n      pop\n        /* \"#utility.yul\":22315:22699   */\n      pop\n        /* \"#utility.yul\":22302:22303   */\n      0x01\n        /* \"#utility.yul\":22299:22300   */\n      dup2\n        /* \"#utility.yul\":22295:22304   */\n      add\n        /* \"#utility.yul\":22290:22304   */\n      swap1\n      pop\n        /* \"#utility.yul\":22255:22699   */\n      jump(tag_574)\n    tag_576:\n        /* \"#utility.yul\":22259:22273   */\n      pop\n        /* \"#utility.yul\":22715:22719   */\n      dup3\n        /* \"#utility.yul\":22708:22719   */\n      swap8\n      pop\n        /* \"#utility.yul\":22735:22738   */\n      dup8\n        /* \"#utility.yul\":22728:22738   */\n      swap6\n      pop\n        /* \"#utility.yul\":21801:22744   */\n      pop\n      pop\n      pop\n      pop\n      pop\n        /* \"#utility.yul\":21625:22744   */\n      swap3\n      swap2\n      pop\n      pop\n      jump\t// out\n        /* \"#utility.yul\":22750:23227   */\n    tag_75:\n        /* \"#utility.yul\":22945:22949   */\n      0x00\n        /* \"#utility.yul\":22983:22985   */\n      0x20\n        /* \"#utility.yul\":22972:22981   */\n      dup3\n        /* \"#utility.yul\":22968:22986   */\n      add\n        /* \"#utility.yul\":22960:22986   */\n      swap1\n      pop\n        /* \"#utility.yul\":23032:23041   */\n      dup2\n        /* \"#utility.yul\":23026:23030   */\n      dup2\n        /* \"#utility.yul\":23022:23042   */\n      sub\n        /* \"#utility.yul\":23018:23019   */\n      0x00\n        /* \"#utility.yul\":23007:23016   */\n      dup4\n        /* \"#utility.yul\":23003:23020   */\n      add\n        /* \"#utility.yul\":22996:23043   */\n      mstore\n        /* \"#utility.yul\":23060:23220   */\n      tag_580\n        /* \"#utility.yul\":23215:23219   */\n      dup2\n        /* \"#utility.yul\":23206:23212   */\n      dup5\n        /* \"#utility.yul\":23060:23220   */\n      tag_321\n      jump\t// in\n    tag_580:\n        /* \"#utility.yul\":23052:23220   */\n      swap1\n      pop\n        /* \"#utility.yul\":22750:23227   */\n      swap3\n      swap2\n      pop\n      pop\n      jump\t// out\n        /* \"#utility.yul\":23233:23403   */\n    tag_322:\n        /* \"#utility.yul\":23373:23395   */\n      0x79657420746f20637265617465206120706f6c6c000000000000000000000000\n        /* \"#utility.yul\":23369:23370   */\n      0x00\n        /* \"#utility.yul\":23361:23367   */\n      dup3\n        /* \"#utility.yul\":23357:23371   */\n      add\n        /* \"#utility.yul\":23350:23396   */\n      mstore\n        /* \"#utility.yul\":23233:23403   */\n      pop\n      jump\t// out\n        /* \"#utility.yul\":23409:23775   */\n    tag_323:\n        /* \"#utility.yul\":23551:23554   */\n      0x00\n        /* \"#utility.yul\":23572:23639   */\n      tag_583\n        /* \"#utility.yul\":23636:23638   */\n      0x14\n        /* \"#utility.yul\":23631:23634   */\n      dup4\n        /* \"#utility.yul\":23572:23639   */\n      tag_285\n      jump\t// in\n    tag_583:\n        /* \"#utility.yul\":23565:23639   */\n      swap2\n      pop\n        /* \"#utility.yul\":23648:23741   */\n      tag_584\n        /* \"#utility.yul\":23737:23740   */\n      dup3\n        /* \"#utility.yul\":23648:23741   */\n      tag_322\n      jump\t// in\n    tag_584:\n        /* \"#utility.yul\":23766:23768   */\n      0x20\n        /* \"#utility.yul\":23761:23764   */\n      dup3\n        /* \"#utility.yul\":23757:23769   */\n      add\n        /* \"#utility.yul\":23750:23769   */\n      swap1\n      pop\n        /* \"#utility.yul\":23409:23775   */\n      swap2\n      swap1\n      pop\n      jump\t// out\n        /* \"#utility.yul\":23781:24200   */\n    tag_82:\n        /* \"#utility.yul\":23947:23951   */\n      0x00\n        /* \"#utility.yul\":23985:23987   */\n      0x20\n        /* \"#utility.yul\":23974:23983   */\n      dup3\n        /* \"#utility.yul\":23970:23988   */\n      add\n        /* \"#utility.yul\":23962:23988   */\n      swap1\n      pop\n        /* \"#utility.yul\":24034:24043   */\n      dup2\n        /* \"#utility.yul\":24028:24032   */\n      dup2\n        /* \"#utility.yul\":24024:24044   */\n      sub\n        /* \"#utility.yul\":24020:24021   */\n      0x00\n        /* \"#utility.yul\":24009:24018   */\n      dup4\n        /* \"#utility.yul\":24005:24022   */\n      add\n        /* \"#utility.yul\":23998:24045   */\n      mstore\n        /* \"#utility.yul\":24062:24193   */\n      tag_586\n        /* \"#utility.yul\":24188:24192   */\n      dup2\n        /* \"#utility.yul\":24062:24193   */\n      tag_323\n      jump\t// in\n    tag_586:\n        /* \"#utility.yul\":24054:24193   */\n      swap1\n      pop\n        /* \"#utility.yul\":23781:24200   */\n      swap2\n      swap1\n      pop\n      jump\t// out\n        /* \"#utility.yul\":24206:24386   */\n    tag_85:\n        /* \"#utility.yul\":24254:24331   */\n      0x4e487b7100000000000000000000000000000000000000000000000000000000\n        /* \"#utility.yul\":24251:24252   */\n      0x00\n        /* \"#utility.yul\":24244:24332   */\n      mstore\n        /* \"#utility.yul\":24351:24355   */\n      0x01\n        /* \"#utility.yul\":24348:24349   */\n      0x04\n        /* \"#utility.yul\":24341:24356   */\n      mstore\n        /* \"#utility.yul\":24375:24379   */\n      0x24\n        /* \"#utility.yul\":24372:24373   */\n      0x00\n        /* \"#utility.yul\":24365:24380   */\n      revert\n        /* \"#utility.yul\":24392:24625   */\n    tag_324:\n        /* \"#utility.yul\":24532:24566   */\n      0x6d6178696d756d206e6f206f662063616e646964617465207065722073657373\n        /* \"#utility.yul\":24528:24529   */\n      0x00\n        /* \"#utility.yul\":24520:24526   */\n      dup3\n        /* \"#utility.yul\":24516:24530   */\n      add\n        /* \"#utility.yul\":24509:24567   */\n      mstore\n        /* \"#utility.yul\":24601:24617   */\n      0x696f6e2072656769737465726564000000000000000000000000000000000000\n        /* \"#utility.yul\":24596:24598   */\n      0x20\n        /* \"#utility.yul\":24588:24594   */\n      dup3\n        /* \"#utility.yul\":24584:24599   */\n      add\n        /* \"#utility.yul\":24577:24618   */\n      mstore\n        /* \"#utility.yul\":24392:24625   */\n      pop\n      jump\t// out\n        /* \"#utility.yul\":24631:24997   */\n    tag_325:\n        /* \"#utility.yul\":24773:24776   */\n      0x00\n        /* \"#utility.yul\":24794:24861   */\n      tag_590\n        /* \"#utility.yul\":24858:24860   */\n      0x2e\n        /* \"#utility.yul\":24853:24856   */\n      dup4\n        /* \"#utility.yul\":24794:24861   */\n      tag_285\n      jump\t// in\n    tag_590:\n        /* \"#utility.yul\":24787:24861   */\n      swap2\n      pop\n        /* \"#utility.yul\":24870:24963   */\n      tag_591\n        /* \"#utility.yul\":24959:24962   */\n      dup3\n        /* \"#utility.yul\":24870:24963   */\n      tag_324\n      jump\t// in\n    tag_591:\n        /* \"#utility.yul\":24988:24990   */\n      0x40\n        /* \"#utility.yul\":24983:24986   */\n      dup3\n        /* \"#utility.yul\":24979:24991   */\n      add\n        /* \"#utility.yul\":24972:24991   */\n      swap1\n      pop\n        /* \"#utility.yul\":24631:24997   */\n      swap2\n      swap1\n      pop\n      jump\t// out\n        /* \"#utility.yul\":25003:25422   */\n    tag_88:\n        /* \"#utility.yul\":25169:25173   */\n      0x00\n        /* \"#utility.yul\":25207:25209   */\n      0x20\n        /* \"#utility.yul\":25196:25205   */\n      dup3\n        /* \"#utility.yul\":25192:25210   */\n      add\n        /* \"#utility.yul\":25184:25210   */\n      swap1\n      pop\n        /* \"#utility.yul\":25256:25265   */\n      dup2\n        /* \"#utility.yul\":25250:25254   */\n      dup2\n        /* \"#utility.yul\":25246:25266   */\n      sub\n        /* \"#utility.yul\":25242:25243   */\n      0x00\n        /* \"#utility.yul\":25231:25240   */\n      dup4\n        /* \"#utility.yul\":25227:25244   */\n      add\n        /* \"#utility.yul\":25220:25267   */\n      mstore\n        /* \"#utility.yul\":25284:25415   */\n      tag_593\n        /* \"#utility.yul\":25410:25414   */\n      dup2\n        /* \"#utility.yul\":25284:25415   */\n      tag_325\n      jump\t// in\n    tag_593:\n        /* \"#utility.yul\":25276:25415   */\n      swap1\n      pop\n        /* \"#utility.yul\":25003:25422   */\n      swap2\n      swap1\n      pop\n      jump\t// out\n        /* \"#utility.yul\":25428:25608   */\n    tag_326:\n        /* \"#utility.yul\":25476:25553   */\n      0x4e487b7100000000000000000000000000000000000000000000000000000000\n        /* \"#utility.yul\":25473:25474   */\n      0x00\n        /* \"#utility.yul\":25466:25554   */\n      mstore\n        /* \"#utility.yul\":25573:25577   */\n      0x11\n        /* \"#utility.yul\":25570:25571   */\n      0x04\n        /* \"#utility.yul\":25563:25578   */\n      mstore\n        /* \"#utility.yul\":25597:25601   */\n      0x24\n        /* \"#utility.yul\":25594:25595   */\n      0x00\n        /* \"#utility.yul\":25587:25602   */\n      revert\n        /* \"#utility.yul\":25614:25789   */\n    tag_91:\n        /* \"#utility.yul\":25652:25655   */\n      0x00\n        /* \"#utility.yul\":25675:25698   */\n      tag_596\n        /* \"#utility.yul\":25692:25697   */\n      dup3\n        /* \"#utility.yul\":25675:25698   */\n      tag_289\n      jump\t// in\n    tag_596:\n        /* \"#utility.yul\":25666:25698   */\n      swap2\n      pop\n        /* \"#utility.yul\":25720:25730   */\n      0xffffffff\n        /* \"#utility.yul\":25713:25718   */\n      dup3\n        /* \"#utility.yul\":25710:25731   */\n      eq\n        /* \"#utility.yul\":25707:25754   */\n      iszero\n      tag_597\n      jumpi\n        /* \"#utility.yul\":25734:25752   */\n      tag_598\n      tag_326\n      jump\t// in\n    tag_598:\n        /* \"#utility.yul\":25707:25754   */\n    tag_597:\n        /* \"#utility.yul\":25781:25782   */\n      0x01\n        /* \"#utility.yul\":25774:25779   */\n      dup3\n        /* \"#utility.yul\":25770:25783   */\n      add\n        /* \"#utility.yul\":25763:25783   */\n      swap1\n      pop\n        /* \"#utility.yul\":25614:25789   */\n      swap2\n      swap1\n      pop\n      jump\t// out\n        /* \"#utility.yul\":25795:26017   */\n    tag_93:\n        /* \"#utility.yul\":25888:25892   */\n      0x00\n        /* \"#utility.yul\":25926:25928   */\n      0x20\n        /* \"#utility.yul\":25915:25924   */\n      dup3\n        /* \"#utility.yul\":25911:25929   */\n      add\n        /* \"#utility.yul\":25903:25929   */\n      swap1\n      pop\n        /* \"#utility.yul\":25939:26010   */\n      tag_600\n        /* \"#utility.yul\":26007:26008   */\n      0x00\n        /* \"#utility.yul\":25996:26005   */\n      dup4\n        /* \"#utility.yul\":25992:26009   */\n      add\n        /* \"#utility.yul\":25983:25989   */\n      dup5\n        /* \"#utility.yul\":25939:26010   */\n      tag_283\n      jump\t// in\n    tag_600:\n        /* \"#utility.yul\":25795:26017   */\n      swap3\n      swap2\n      pop\n      pop\n      jump\t// out\n        /* \"#utility.yul\":26023:26188   */\n    tag_327:\n        /* \"#utility.yul\":26163:26180   */\n      0x4e6f20706f6c6c20637265617465640000000000000000000000000000000000\n        /* \"#utility.yul\":26159:26160   */\n      0x00\n        /* \"#utility.yul\":26151:26157   */\n      dup3\n        /* \"#utility.yul\":26147:26161   */\n      add\n        /* \"#utility.yul\":26140:26181   */\n      mstore\n        /* \"#utility.yul\":26023:26188   */\n      pop\n      jump\t// out\n        /* \"#utility.yul\":26194:26560   */\n    tag_328:\n        /* \"#utility.yul\":26336:26339   */\n      0x00\n        /* \"#utility.yul\":26357:26424   */\n      tag_603\n        /* \"#utility.yul\":26421:26423   */\n      0x0f\n        /* \"#utility.yul\":26416:26419   */\n      dup4\n        /* \"#utility.yul\":26357:26424   */\n      tag_285\n      jump\t// in\n    tag_603:\n        /* \"#utility.yul\":26350:26424   */\n      swap2\n      pop\n        /* \"#utility.yul\":26433:26526   */\n      tag_604\n        /* \"#utility.yul\":26522:26525   */\n      dup3\n        /* \"#utility.yul\":26433:26526   */\n      tag_327\n      jump\t// in\n    tag_604:\n        /* \"#utility.yul\":26551:26553   */\n      0x20\n        /* \"#utility.yul\":26546:26549   */\n      dup3\n        /* \"#utility.yul\":26542:26554   */\n      add\n        /* \"#utility.yul\":26535:26554   */\n      swap1\n      pop\n        /* \"#utility.yul\":26194:26560   */\n      swap2\n      swap1\n      pop\n      jump\t// out\n        /* \"#utility.yul\":26566:26985   */\n    tag_101:\n        /* \"#utility.yul\":26732:26736   */\n      0x00\n        /* \"#utility.yul\":26770:26772   */\n      0x20\n        /* \"#utility.yul\":26759:26768   */\n      dup3\n        /* \"#utility.yul\":26755:26773   */\n      add\n        /* \"#utility.yul\":26747:26773   */\n      swap1\n      pop\n        /* \"#utility.yul\":26819:26828   */\n      dup2\n        /* \"#utility.yul\":26813:26817   */\n      dup2\n        /* \"#utility.yul\":26809:26829   */\n      sub\n        /* \"#utility.yul\":26805:26806   */\n      0x00\n        /* \"#utility.yul\":26794:26803   */\n      dup4\n        /* \"#utility.yul\":26790:26807   */\n      add\n        /* \"#utility.yul\":26783:26830   */\n      mstore\n        /* \"#utility.yul\":26847:26978   */\n      tag_606\n        /* \"#utility.yul\":26973:26977   */\n      dup2\n        /* \"#utility.yul\":26847:26978   */\n      tag_328\n      jump\t// in\n    tag_606:\n        /* \"#utility.yul\":26839:26978   */\n      swap1\n      pop\n        /* \"#utility.yul\":26566:26985   */\n      swap2\n      swap1\n      pop\n      jump\t// out\n        /* \"#utility.yul\":26991:27171   */\n    tag_114:\n        /* \"#utility.yul\":27039:27116   */\n      0x4e487b7100000000000000000000000000000000000000000000000000000000\n        /* \"#utility.yul\":27036:27037   */\n      0x00\n        /* \"#utility.yul\":27029:27117   */\n      mstore\n        /* \"#utility.yul\":27136:27140   */\n      0x32\n        /* \"#utility.yul\":27133:27134   */\n      0x04\n        /* \"#utility.yul\":27126:27141   */\n      mstore\n        /* \"#utility.yul\":27160:27164   */\n      0x24\n        /* \"#utility.yul\":27157:27158   */\n      0x00\n        /* \"#utility.yul\":27150:27165   */\n      revert\n        /* \"#utility.yul\":27177:27410   */\n    tag_122:\n        /* \"#utility.yul\":27216:27219   */\n      0x00\n        /* \"#utility.yul\":27239:27263   */\n      tag_609\n        /* \"#utility.yul\":27257:27262   */\n      dup3\n        /* \"#utility.yul\":27239:27263   */\n      tag_265\n      jump\t// in\n    tag_609:\n        /* \"#utility.yul\":27230:27263   */\n      swap2\n      pop\n        /* \"#utility.yul\":27285:27351   */\n      0xffffffffffffffffffffffffffffffffffffffffffffffffffffffffffffffff\n        /* \"#utility.yul\":27278:27283   */\n      dup3\n        /* \"#utility.yul\":27275:27352   */\n      eq\n        /* \"#utility.yul\":27272:27375   */\n      iszero\n      tag_610\n      jumpi\n        /* \"#utility.yul\":27355:27373   */\n      tag_611\n      tag_326\n      jump\t// in\n    tag_611:\n        /* \"#utility.yul\":27272:27375   */\n    tag_610:\n        /* \"#utility.yul\":27402:27403   */\n      0x01\n        /* \"#utility.yul\":27395:27400   */\n      dup3\n        /* \"#utility.yul\":27391:27404   */\n      add\n        /* \"#utility.yul\":27384:27404   */\n      swap1\n      pop\n        /* \"#utility.yul\":27177:27410   */\n      swap2\n      swap1\n      pop\n      jump\t// out\n        /* \"#utility.yul\":27416:27596   */\n    tag_329:\n        /* \"#utility.yul\":27464:27541   */\n      0x4e487b7100000000000000000000000000000000000000000000000000000000\n        /* \"#utility.yul\":27461:27462   */\n      0x00\n        /* \"#utility.yul\":27454:27542   */\n      mstore\n        /* \"#utility.yul\":27561:27565   */\n      0x22\n        /* \"#utility.yul\":27558:27559   */\n      0x04\n        /* \"#utility.yul\":27551:27566   */\n      mstore\n        /* \"#utility.yul\":27585:27589   */\n      0x24\n        /* \"#utility.yul\":27582:27583   */\n      0x00\n        /* \"#utility.yul\":27575:27590   */\n      revert\n        /* \"#utility.yul\":27602:27922   */\n    tag_126:\n        /* \"#utility.yul\":27646:27652   */\n      0x00\n        /* \"#utility.yul\":27683:27684   */\n      0x02\n        /* \"#utility.yul\":27677:27681   */\n      dup3\n        /* \"#utility.yul\":27673:27685   */\n      div\n        /* \"#utility.yul\":27663:27685   */\n      swap1\n      pop\n        /* \"#utility.yul\":27730:27731   */\n      0x01\n        /* \"#utility.yul\":27724:27728   */\n      dup3\n        /* \"#utility.yul\":27720:27732   */\n      and\n        /* \"#utility.yul\":27751:27769   */\n      dup1\n        /* \"#utility.yul\":27741:27822   */\n      tag_614\n      jumpi\n        /* \"#utility.yul\":27807:27811   */\n      0x7f\n        /* \"#utility.yul\":27799:27805   */\n      dup3\n        /* \"#utility.yul\":27795:27812   */\n      and\n        /* \"#utility.yul\":27785:27812   */\n      swap2\n      pop\n        /* \"#utility.yul\":27741:27822   */\n    tag_614:\n        /* \"#utility.yul\":27869:27871   */\n      0x20\n        /* \"#utility.yul\":27861:27867   */\n      dup3\n        /* \"#utility.yul\":27858:27872   */\n      lt\n        /* \"#utility.yul\":27838:27856   */\n      dup2\n        /* \"#utility.yul\":27835:27873   */\n      eq\n        /* \"#utility.yul\":27832:27916   */\n      iszero\n      tag_615\n      jumpi\n        /* \"#utility.yul\":27888:27906   */\n      tag_616\n      tag_329\n      jump\t// in\n    tag_616:\n        /* \"#utility.yul\":27832:27916   */\n    tag_615:\n        /* \"#utility.yul\":27653:27922   */\n      pop\n        /* \"#utility.yul\":27602:27922   */\n      swap2\n      swap1\n      pop\n      jump\t// out\n        /* \"#utility.yul\":27928:28022   */\n    tag_330:\n        /* \"#utility.yul\":27961:27969   */\n      0x00\n        /* \"#utility.yul\":28009:28014   */\n      dup2\n        /* \"#utility.yul\":28005:28007   */\n      0x60\n        /* \"#utility.yul\":28001:28015   */\n      shl\n        /* \"#utility.yul\":27980:28015   */\n      swap1\n      pop\n        /* \"#utility.yul\":27928:28022   */\n      swap2\n      swap1\n      pop\n      jump\t// out\n        /* \"#utility.yul\":28028:28122   */\n    tag_331:\n        /* \"#utility.yul\":28067:28074   */\n      0x00\n        /* \"#utility.yul\":28096:28116   */\n      tag_619\n        /* \"#utility.yul\":28110:28115   */\n      dup3\n        /* \"#utility.yul\":28096:28116   */\n      tag_330\n      jump\t// in\n    tag_619:\n        /* \"#utility.yul\":28085:28116   */\n      swap1\n      pop\n        /* \"#utility.yul\":28028:28122   */\n      swap2\n      swap1\n      pop\n      jump\t// out\n        /* \"#utility.yul\":28128:28228   */\n    tag_332:\n        /* \"#utility.yul\":28167:28174   */\n      0x00\n        /* \"#utility.yul\":28196:28222   */\n      tag_621\n        /* \"#utility.yul\":28216:28221   */\n      dup3\n        /* \"#utility.yul\":28196:28222   */\n      tag_331\n      jump\t// in\n    tag_621:\n        /* \"#utility.yul\":28185:28222   */\n      swap1\n      pop\n        /* \"#utility.yul\":28128:28228   */\n      swap2\n      swap1\n      pop\n      jump\t// out\n        /* \"#utility.yul\":28234:28391   */\n    tag_333:\n        /* \"#utility.yul\":28339:28384   */\n      tag_623\n        /* \"#utility.yul\":28359:28383   */\n      tag_624\n        /* \"#utility.yul\":28377:28382   */\n      dup3\n        /* \"#utility.yul\":28359:28383   */\n      tag_262\n      jump\t// in\n    tag_624:\n        /* \"#utility.yul\":28339:28384   */\n      tag_332\n      jump\t// in\n    tag_623:\n        /* \"#utility.yul\":28334:28337   */\n      dup3\n        /* \"#utility.yul\":28327:28385   */\n      mstore\n        /* \"#utility.yul\":28234:28391   */\n      pop\n      pop\n      jump\t// out\n        /* \"#utility.yul\":28397:28545   */\n    tag_334:\n        /* \"#utility.yul\":28499:28510   */\n      0x00\n        /* \"#utility.yul\":28536:28539   */\n      dup2\n        /* \"#utility.yul\":28521:28539   */\n      swap1\n      pop\n        /* \"#utility.yul\":28397:28545   */\n      swap3\n      swap2\n      pop\n      pop\n      jump\t// out\n        /* \"#utility.yul\":28551:28724   */\n    tag_335:\n        /* \"#utility.yul\":28691:28716   */\n      0x6d6574617472616e73616374696f6e20566f74696e6720000000000000000000\n        /* \"#utility.yul\":28687:28688   */\n      0x00\n        /* \"#utility.yul\":28679:28685   */\n      dup3\n        /* \"#utility.yul\":28675:28689   */\n      add\n        /* \"#utility.yul\":28668:28717   */\n      mstore\n        /* \"#utility.yul\":28551:28724   */\n      pop\n      jump\t// out\n        /* \"#utility.yul\":28730:29132   */\n    tag_336:\n        /* \"#utility.yul\":28890:28893   */\n      0x00\n        /* \"#utility.yul\":28911:28996   */\n      tag_628\n        /* \"#utility.yul\":28993:28995   */\n      0x17\n        /* \"#utility.yul\":28988:28991   */\n      dup4\n        /* \"#utility.yul\":28911:28996   */\n      tag_334\n      jump\t// in\n    tag_628:\n        /* \"#utility.yul\":28904:28996   */\n      swap2\n      pop\n        /* \"#utility.yul\":29005:29098   */\n      tag_629\n        /* \"#utility.yul\":29094:29097   */\n      dup3\n        /* \"#utility.yul\":29005:29098   */\n      tag_335\n      jump\t// in\n    tag_629:\n        /* \"#utility.yul\":29123:29125   */\n      0x17\n        /* \"#utility.yul\":29118:29121   */\n      dup3\n        /* \"#utility.yul\":29114:29126   */\n      add\n        /* \"#utility.yul\":29107:29126   */\n      swap1\n      pop\n        /* \"#utility.yul\":28730:29132   */\n      swap2\n      swap1\n      pop\n      jump\t// out\n        /* \"#utility.yul\":29138:29217   */\n    tag_337:\n        /* \"#utility.yul\":29177:29184   */\n      0x00\n        /* \"#utility.yul\":29206:29211   */\n      dup2\n        /* \"#utility.yul\":29195:29211   */\n      swap1\n      pop\n        /* \"#utility.yul\":29138:29217   */\n      swap2\n      swap1\n      pop\n      jump\t// out\n        /* \"#utility.yul\":29223:29380   */\n    tag_338:\n        /* \"#utility.yul\":29328:29373   */\n      tag_632\n        /* \"#utility.yul\":29348:29372   */\n      tag_633\n        /* \"#utility.yul\":29366:29371   */\n      dup3\n        /* \"#utility.yul\":29348:29372   */\n      tag_265\n      jump\t// in\n    tag_633:\n        /* \"#utility.yul\":29328:29373   */\n      tag_337\n      jump\t// in\n    tag_632:\n        /* \"#utility.yul\":29323:29326   */\n      dup3\n        /* \"#utility.yul\":29316:29374   */\n      mstore\n        /* \"#utility.yul\":29223:29380   */\n      pop\n      pop\n      jump\t// out\n        /* \"#utility.yul\":29386:30472   */\n    tag_143:\n        /* \"#utility.yul\":29711:29714   */\n      0x00\n        /* \"#utility.yul\":29726:29801   */\n      tag_635\n        /* \"#utility.yul\":29797:29800   */\n      dup3\n        /* \"#utility.yul\":29788:29794   */\n      dup9\n        /* \"#utility.yul\":29726:29801   */\n      tag_333\n      jump\t// in\n    tag_635:\n        /* \"#utility.yul\":29826:29828   */\n      0x14\n        /* \"#utility.yul\":29821:29824   */\n      dup3\n        /* \"#utility.yul\":29817:29829   */\n      add\n        /* \"#utility.yul\":29810:29829   */\n      swap2\n      pop\n        /* \"#utility.yul\":29846:29994   */\n      tag_636\n        /* \"#utility.yul\":29990:29993   */\n      dup3\n        /* \"#utility.yul\":29846:29994   */\n      tag_336\n      jump\t// in\n    tag_636:\n        /* \"#utility.yul\":29839:29994   */\n      swap2\n      pop\n        /* \"#utility.yul\":30004:30079   */\n      tag_637\n        /* \"#utility.yul\":30075:30078   */\n      dup3\n        /* \"#utility.yul\":30066:30072   */\n      dup8\n        /* \"#utility.yul\":30004:30079   */\n      tag_333\n      jump\t// in\n    tag_637:\n        /* \"#utility.yul\":30104:30106   */\n      0x14\n        /* \"#utility.yul\":30099:30102   */\n      dup3\n        /* \"#utility.yul\":30095:30107   */\n      add\n        /* \"#utility.yul\":30088:30107   */\n      swap2\n      pop\n        /* \"#utility.yul\":30117:30192   */\n      tag_638\n        /* \"#utility.yul\":30188:30191   */\n      dup3\n        /* \"#utility.yul\":30179:30185   */\n      dup7\n        /* \"#utility.yul\":30117:30192   */\n      tag_338\n      jump\t// in\n    tag_638:\n        /* \"#utility.yul\":30217:30219   */\n      0x20\n        /* \"#utility.yul\":30212:30215   */\n      dup3\n        /* \"#utility.yul\":30208:30220   */\n      add\n        /* \"#utility.yul\":30201:30220   */\n      swap2\n      pop\n        /* \"#utility.yul\":30230:30305   */\n      tag_639\n        /* \"#utility.yul\":30301:30304   */\n      dup3\n        /* \"#utility.yul\":30292:30298   */\n      dup6\n        /* \"#utility.yul\":30230:30305   */\n      tag_338\n      jump\t// in\n    tag_639:\n        /* \"#utility.yul\":30330:30332   */\n      0x20\n        /* \"#utility.yul\":30325:30328   */\n      dup3\n        /* \"#utility.yul\":30321:30333   */\n      add\n        /* \"#utility.yul\":30314:30333   */\n      swap2\n      pop\n        /* \"#utility.yul\":30343:30418   */\n      tag_640\n        /* \"#utility.yul\":30414:30417   */\n      dup3\n        /* \"#utility.yul\":30405:30411   */\n      dup5\n        /* \"#utility.yul\":30343:30418   */\n      tag_338\n      jump\t// in\n    tag_640:\n        /* \"#utility.yul\":30443:30445   */\n      0x20\n        /* \"#utility.yul\":30438:30441   */\n      dup3\n        /* \"#utility.yul\":30434:30446   */\n      add\n        /* \"#utility.yul\":30427:30446   */\n      swap2\n      pop\n        /* \"#utility.yul\":30463:30466   */\n      dup2\n        /* \"#utility.yul\":30456:30466   */\n      swap1\n      pop\n        /* \"#utility.yul\":29386:30472   */\n      swap7\n      swap6\n      pop\n      pop\n      pop\n      pop\n      pop\n      pop\n      jump\t// out\n        /* \"#utility.yul\":30478:30707   */\n    tag_339:\n        /* \"#utility.yul\":30618:30652   */\n      0x54686973206164647265737320646f6573206e6f742065786973742061732061\n        /* \"#utility.yul\":30614:30615   */\n      0x00\n        /* \"#utility.yul\":30606:30612   */\n      dup3\n        /* \"#utility.yul\":30602:30616   */\n      add\n        /* \"#utility.yul\":30595:30653   */\n      mstore\n        /* \"#utility.yul\":30687:30699   */\n      0x2063616e64696461746500000000000000000000000000000000000000000000\n        /* \"#utility.yul\":30682:30684   */\n      0x20\n        /* \"#utility.yul\":30674:30680   */\n      dup3\n        /* \"#utility.yul\":30670:30685   */\n      add\n        /* \"#utility.yul\":30663:30700   */\n      mstore\n        /* \"#utility.yul\":30478:30707   */\n      pop\n      jump\t// out\n        /* \"#utility.yul\":30713:31079   */\n    tag_340:\n        /* \"#utility.yul\":30855:30858   */\n      0x00\n        /* \"#utility.yul\":30876:30943   */\n      tag_643\n        /* \"#utility.yul\":30940:30942   */\n      0x2a\n        /* \"#utility.yul\":30935:30938   */\n      dup4\n        /* \"#utility.yul\":30876:30943   */\n      tag_285\n      jump\t// in\n    tag_643:\n        /* \"#utility.yul\":30869:30943   */\n      swap2\n      pop\n        /* \"#utility.yul\":30952:31045   */\n      tag_644\n        /* \"#utility.yul\":31041:31044   */\n      dup3\n        /* \"#utility.yul\":30952:31045   */\n      tag_339\n      jump\t// in\n    tag_644:\n        /* \"#utility.yul\":31070:31072   */\n      0x40\n        /* \"#utility.yul\":31065:31068   */\n      dup3\n        /* \"#utility.yul\":31061:31073   */\n      add\n        /* \"#utility.yul\":31054:31073   */\n      swap1\n      pop\n        /* \"#utility.yul\":30713:31079   */\n      swap2\n      swap1\n      pop\n      jump\t// out\n        /* \"#utility.yul\":31085:31504   */\n    tag_147:\n        /* \"#utility.yul\":31251:31255   */\n      0x00\n        /* \"#utility.yul\":31289:31291   */\n      0x20\n        /* \"#utility.yul\":31278:31287   */\n      dup3\n        /* \"#utility.yul\":31274:31292   */\n      add\n        /* \"#utility.yul\":31266:31292   */\n      swap1\n      pop\n        /* \"#utility.yul\":31338:31347   */\n      dup2\n        /* \"#utility.yul\":31332:31336   */\n      dup2\n        /* \"#utility.yul\":31328:31348   */\n      sub\n        /* \"#utility.yul\":31324:31325   */\n      0x00\n        /* \"#utility.yul\":31313:31322   */\n      dup4\n        /* \"#utility.yul\":31309:31326   */\n      add\n        /* \"#utility.yul\":31302:31349   */\n      mstore\n        /* \"#utility.yul\":31366:31497   */\n      tag_646\n        /* \"#utility.yul\":31492:31496   */\n      dup2\n        /* \"#utility.yul\":31366:31497   */\n      tag_340\n      jump\t// in\n    tag_646:\n        /* \"#utility.yul\":31358:31497   */\n      swap1\n      pop\n        /* \"#utility.yul\":31085:31504   */\n      swap2\n      swap1\n      pop\n      jump\t// out\n        /* \"#utility.yul\":31510:31676   */\n    tag_341:\n        /* \"#utility.yul\":31650:31668   */\n      0x766f74696e672068617320656e64656400000000000000000000000000000000\n        /* \"#utility.yul\":31646:31647   */\n      0x00\n        /* \"#utility.yul\":31638:31644   */\n      dup3\n        /* \"#utility.yul\":31634:31648   */\n      add\n        /* \"#utility.yul\":31627:31669   */\n      mstore\n        /* \"#utility.yul\":31510:31676   */\n      pop\n      jump\t// out\n        /* \"#utility.yul\":31682:32048   */\n    tag_342:\n        /* \"#utility.yul\":31824:31827   */\n      0x00\n        /* \"#utility.yul\":31845:31912   */\n      tag_649\n        /* \"#utility.yul\":31909:31911   */\n      0x10\n        /* \"#utility.yul\":31904:31907   */\n      dup4\n        /* \"#utility.yul\":31845:31912   */\n      tag_285\n      jump\t// in\n    tag_649:\n        /* \"#utility.yul\":31838:31912   */\n      swap2\n      pop\n        /* \"#utility.yul\":31921:32014   */\n      tag_650\n        /* \"#utility.yul\":32010:32013   */\n      dup3\n        /* \"#utility.yul\":31921:32014   */\n      tag_341\n      jump\t// in\n    tag_650:\n        /* \"#utility.yul\":32039:32041   */\n      0x20\n        /* \"#utility.yul\":32034:32037   */\n      dup3\n        /* \"#utility.yul\":32030:32042   */\n      add\n        /* \"#utility.yul\":32023:32042   */\n      swap1\n      pop\n        /* \"#utility.yul\":31682:32048   */\n      swap2\n      swap1\n      pop\n      jump\t// out\n        /* \"#utility.yul\":32054:32473   */\n    tag_151:\n        /* \"#utility.yul\":32220:32224   */\n      0x00\n        /* \"#utility.yul\":32258:32260   */\n      0x20\n        /* \"#utility.yul\":32247:32256   */\n      dup3\n        /* \"#utility.yul\":32243:32261   */\n      add\n        /* \"#utility.yul\":32235:32261   */\n      swap1\n      pop\n        /* \"#utility.yul\":32307:32316   */\n      dup2\n        /* \"#utility.yul\":32301:32305   */\n      dup2\n        /* \"#utility.yul\":32297:32317   */\n      sub\n        /* \"#utility.yul\":32293:32294   */\n      0x00\n        /* \"#utility.yul\":32282:32291   */\n      dup4\n        /* \"#utility.yul\":32278:32295   */\n      add\n        /* \"#utility.yul\":32271:32318   */\n      mstore\n        /* \"#utility.yul\":32335:32466   */\n      tag_652\n        /* \"#utility.yul\":32461:32465   */\n      dup2\n        /* \"#utility.yul\":32335:32466   */\n      tag_342\n      jump\t// in\n    tag_652:\n        /* \"#utility.yul\":32327:32466   */\n      swap1\n      pop\n        /* \"#utility.yul\":32054:32473   */\n      swap2\n      swap1\n      pop\n      jump\t// out\n        /* \"#utility.yul\":32479:32646   */\n    tag_343:\n        /* \"#utility.yul\":32619:32638   */\n      0x596f7520616c726561647920766f746564000000000000000000000000000000\n        /* \"#utility.yul\":32615:32616   */\n      0x00\n        /* \"#utility.yul\":32607:32613   */\n      dup3\n        /* \"#utility.yul\":32603:32617   */\n      add\n        /* \"#utility.yul\":32596:32639   */\n      mstore\n        /* \"#utility.yul\":32479:32646   */\n      pop\n      jump\t// out\n        /* \"#utility.yul\":32652:33018   */\n    tag_344:\n        /* \"#utility.yul\":32794:32797   */\n      0x00\n        /* \"#utility.yul\":32815:32882   */\n      tag_655\n        /* \"#utility.yul\":32879:32881   */\n      0x11\n        /* \"#utility.yul\":32874:32877   */\n      dup4\n        /* \"#utility.yul\":32815:32882   */\n      tag_285\n      jump\t// in\n    tag_655:\n        /* \"#utility.yul\":32808:32882   */\n      swap2\n      pop\n        /* \"#utility.yul\":32891:32984   */\n      tag_656\n        /* \"#utility.yul\":32980:32983   */\n      dup3\n        /* \"#utility.yul\":32891:32984   */\n      tag_343\n      jump\t// in\n    tag_656:\n        /* \"#utility.yul\":33009:33011   */\n      0x20\n        /* \"#utility.yul\":33004:33007   */\n      dup3\n        /* \"#utility.yul\":33000:33012   */\n      add\n        /* \"#utility.yul\":32993:33012   */\n      swap1\n      pop\n        /* \"#utility.yul\":32652:33018   */\n      swap2\n      swap1\n      pop\n      jump\t// out\n        /* \"#utility.yul\":33024:33443   */\n    tag_161:\n        /* \"#utility.yul\":33190:33194   */\n      0x00\n        /* \"#utility.yul\":33228:33230   */\n      0x20\n        /* \"#utility.yul\":33217:33226   */\n      dup3\n        /* \"#utility.yul\":33213:33231   */\n      add\n        /* \"#utility.yul\":33205:33231   */\n      swap1\n      pop\n        /* \"#utility.yul\":33277:33286   */\n      dup2\n        /* \"#utility.yul\":33271:33275   */\n      dup2\n        /* \"#utility.yul\":33267:33287   */\n      sub\n        /* \"#utility.yul\":33263:33264   */\n      0x00\n        /* \"#utility.yul\":33252:33261   */\n      dup4\n        /* \"#utility.yul\":33248:33265   */\n      add\n        /* \"#utility.yul\":33241:33288   */\n      mstore\n        /* \"#utility.yul\":33305:33436   */\n      tag_658\n        /* \"#utility.yul\":33431:33435   */\n      dup2\n        /* \"#utility.yul\":33305:33436   */\n      tag_344\n      jump\t// in\n    tag_658:\n        /* \"#utility.yul\":33297:33436   */\n      swap1\n      pop\n        /* \"#utility.yul\":33024:33443   */\n      swap2\n      swap1\n      pop\n      jump\t// out\n        /* \"#utility.yul\":33449:33769   */\n    tag_165:\n        /* \"#utility.yul\":33564:33568   */\n      0x00\n        /* \"#utility.yul\":33602:33604   */\n      0x40\n        /* \"#utility.yul\":33591:33600   */\n      dup3\n        /* \"#utility.yul\":33587:33605   */\n      add\n        /* \"#utility.yul\":33579:33605   */\n      swap1\n      pop\n        /* \"#utility.yul\":33615:33686   */\n      tag_660\n        /* \"#utility.yul\":33683:33684   */\n      0x00\n        /* \"#utility.yul\":33672:33681   */\n      dup4\n        /* \"#utility.yul\":33668:33685   */\n      add\n        /* \"#utility.yul\":33659:33665   */\n      dup6\n        /* \"#utility.yul\":33615:33686   */\n      tag_283\n      jump\t// in\n    tag_660:\n        /* \"#utility.yul\":33696:33762   */\n      tag_661\n        /* \"#utility.yul\":33758:33760   */\n      0x20\n        /* \"#utility.yul\":33747:33756   */\n      dup4\n        /* \"#utility.yul\":33743:33761   */\n      add\n        /* \"#utility.yul\":33734:33740   */\n      dup5\n        /* \"#utility.yul\":33696:33762   */\n      tag_292\n      jump\t// in\n    tag_661:\n        /* \"#utility.yul\":33449:33769   */\n      swap4\n      swap3\n      pop\n      pop\n      pop\n      jump\t// out\n        /* \"#utility.yul\":33775:33941   */\n    tag_345:\n        /* \"#utility.yul\":33915:33933   */\n      0x6e6f74207468652063686169726d616e00000000000000000000000000000000\n        /* \"#utility.yul\":33911:33912   */\n      0x00\n        /* \"#utility.yul\":33903:33909   */\n      dup3\n        /* \"#utility.yul\":33899:33913   */\n      add\n        /* \"#utility.yul\":33892:33934   */\n      mstore\n        /* \"#utility.yul\":33775:33941   */\n      pop\n      jump\t// out\n        /* \"#utility.yul\":33947:34313   */\n    tag_346:\n        /* \"#utility.yul\":34089:34092   */\n      0x00\n        /* \"#utility.yul\":34110:34177   */\n      tag_664\n        /* \"#utility.yul\":34174:34176   */\n      0x10\n        /* \"#utility.yul\":34169:34172   */\n      dup4\n        /* \"#utility.yul\":34110:34177   */\n      tag_285\n      jump\t// in\n    tag_664:\n        /* \"#utility.yul\":34103:34177   */\n      swap2\n      pop\n        /* \"#utility.yul\":34186:34279   */\n      tag_665\n        /* \"#utility.yul\":34275:34278   */\n      dup3\n        /* \"#utility.yul\":34186:34279   */\n      tag_345\n      jump\t// in\n    tag_665:\n        /* \"#utility.yul\":34304:34306   */\n      0x20\n        /* \"#utility.yul\":34299:34302   */\n      dup3\n        /* \"#utility.yul\":34295:34307   */\n      add\n        /* \"#utility.yul\":34288:34307   */\n      swap1\n      pop\n        /* \"#utility.yul\":33947:34313   */\n      swap2\n      swap1\n      pop\n      jump\t// out\n        /* \"#utility.yul\":34319:34738   */\n    tag_169:\n        /* \"#utility.yul\":34485:34489   */\n      0x00\n        /* \"#utility.yul\":34523:34525   */\n      0x20\n        /* \"#utility.yul\":34512:34521   */\n      dup3\n        /* \"#utility.yul\":34508:34526   */\n      add\n        /* \"#utility.yul\":34500:34526   */\n      swap1\n      pop\n        /* \"#utility.yul\":34572:34581   */\n      dup2\n        /* \"#utility.yul\":34566:34570   */\n      dup2\n        /* \"#utility.yul\":34562:34582   */\n      sub\n        /* \"#utility.yul\":34558:34559   */\n      0x00\n        /* \"#utility.yul\":34547:34556   */\n      dup4\n        /* \"#utility.yul\":34543:34560   */\n      add\n        /* \"#utility.yul\":34536:34583   */\n      mstore\n        /* \"#utility.yul\":34600:34731   */\n      tag_667\n        /* \"#utility.yul\":34726:34730   */\n      dup2\n        /* \"#utility.yul\":34600:34731   */\n      tag_346\n      jump\t// in\n    tag_667:\n        /* \"#utility.yul\":34592:34731   */\n      swap1\n      pop\n        /* \"#utility.yul\":34319:34738   */\n      swap2\n      swap1\n      pop\n      jump\t// out\n        /* \"#utility.yul\":34744:35121   */\n    tag_347:\n        /* \"#utility.yul\":34850:34853   */\n      0x00\n        /* \"#utility.yul\":34878:34917   */\n      tag_669\n        /* \"#utility.yul\":34911:34916   */\n      dup3\n        /* \"#utility.yul\":34878:34917   */\n      tag_284\n      jump\t// in\n    tag_669:\n        /* \"#utility.yul\":34933:35022   */\n      tag_670\n        /* \"#utility.yul\":35015:35021   */\n      dup2\n        /* \"#utility.yul\":35010:35013   */\n      dup6\n        /* \"#utility.yul\":34933:35022   */\n      tag_334\n      jump\t// in\n    tag_670:\n        /* \"#utility.yul\":34926:35022   */\n      swap4\n      pop\n        /* \"#utility.yul\":35031:35083   */\n      tag_671\n        /* \"#utility.yul\":35076:35082   */\n      dup2\n        /* \"#utility.yul\":35071:35074   */\n      dup6\n        /* \"#utility.yul\":35064:35068   */\n      0x20\n        /* \"#utility.yul\":35057:35062   */\n      dup7\n        /* \"#utility.yul\":35053:35069   */\n      add\n        /* \"#utility.yul\":35031:35083   */\n      tag_286\n      jump\t// in\n    tag_671:\n        /* \"#utility.yul\":35108:35114   */\n      dup1\n        /* \"#utility.yul\":35103:35106   */\n      dup5\n        /* \"#utility.yul\":35099:35115   */\n      add\n        /* \"#utility.yul\":35092:35115   */\n      swap2\n      pop\n        /* \"#utility.yul\":34854:35121   */\n      pop\n        /* \"#utility.yul\":34744:35121   */\n      swap3\n      swap2\n      pop\n      pop\n      jump\t// out\n        /* \"#utility.yul\":35127:35402   */\n    tag_186:\n        /* \"#utility.yul\":35259:35262   */\n      0x00\n        /* \"#utility.yul\":35281:35376   */\n      tag_673\n        /* \"#utility.yul\":35372:35375   */\n      dup3\n        /* \"#utility.yul\":35363:35369   */\n      dup5\n        /* \"#utility.yul\":35281:35376   */\n      tag_347\n      jump\t// in\n    tag_673:\n        /* \"#utility.yul\":35274:35376   */\n      swap2\n      pop\n        /* \"#utility.yul\":35393:35396   */\n      dup2\n        /* \"#utility.yul\":35386:35396   */\n      swap1\n      pop\n        /* \"#utility.yul\":35127:35402   */\n      swap3\n      swap2\n      pop\n      pop\n      jump\t// out\n        /* \"#utility.yul\":35408:35494   */\n    tag_348:\n        /* \"#utility.yul\":35443:35450   */\n      0x00\n        /* \"#utility.yul\":35483:35487   */\n      0xff\n        /* \"#utility.yul\":35476:35481   */\n      dup3\n        /* \"#utility.yul\":35472:35488   */\n      and\n        /* \"#utility.yul\":35461:35488   */\n      swap1\n      pop\n        /* \"#utility.yul\":35408:35494   */\n      swap2\n      swap1\n      pop\n      jump\t// out\n        /* \"#utility.yul\":35500:35737   */\n    tag_225:\n        /* \"#utility.yul\":35538:35541   */\n      0x00\n        /* \"#utility.yul\":35557:35575   */\n      tag_676\n        /* \"#utility.yul\":35573:35574   */\n      dup3\n        /* \"#utility.yul\":35557:35575   */\n      tag_348\n      jump\t// in\n    tag_676:\n        /* \"#utility.yul\":35552:35575   */\n      swap2\n      pop\n        /* \"#utility.yul\":35589:35607   */\n      tag_677\n        /* \"#utility.yul\":35605:35606   */\n      dup4\n        /* \"#utility.yul\":35589:35607   */\n      tag_348\n      jump\t// in\n    tag_677:\n        /* \"#utility.yul\":35584:35607   */\n      swap3\n      pop\n        /* \"#utility.yul\":35679:35680   */\n      dup3\n        /* \"#utility.yul\":35673:35677   */\n      0xff\n        /* \"#utility.yul\":35669:35681   */\n      sub\n        /* \"#utility.yul\":35666:35667   */\n      dup3\n        /* \"#utility.yul\":35663:35682   */\n      gt\n        /* \"#utility.yul\":35660:35705   */\n      iszero\n      tag_678\n      jumpi\n        /* \"#utility.yul\":35685:35703   */\n      tag_679\n      tag_326\n      jump\t// in\n    tag_679:\n        /* \"#utility.yul\":35660:35705   */\n    tag_678:\n        /* \"#utility.yul\":35729:35730   */\n      dup3\n        /* \"#utility.yul\":35726:35727   */\n      dup3\n        /* \"#utility.yul\":35722:35731   */\n      add\n        /* \"#utility.yul\":35715:35731   */\n      swap1\n      pop\n        /* \"#utility.yul\":35500:35737   */\n      swap3\n      swap2\n      pop\n      pop\n      jump\t// out\n        /* \"#utility.yul\":35743:35957   */\n    tag_349:\n        /* \"#utility.yul\":35883:35949   */\n      0x19457468657265756d205369676e6564204d6573736167653a0a333200000000\n        /* \"#utility.yul\":35879:35880   */\n      0x00\n        /* \"#utility.yul\":35871:35877   */\n      dup3\n        /* \"#utility.yul\":35867:35881   */\n      add\n        /* \"#utility.yul\":35860:35950   */\n      mstore\n        /* \"#utility.yul\":35743:35957   */\n      pop\n      jump\t// out\n        /* \"#utility.yul\":35963:36365   */\n    tag_350:\n        /* \"#utility.yul\":36123:36126   */\n      0x00\n        /* \"#utility.yul\":36144:36229   */\n      tag_682\n        /* \"#utility.yul\":36226:36228   */\n      0x1c\n        /* \"#utility.yul\":36221:36224   */\n      dup4\n        /* \"#utility.yul\":36144:36229   */\n      tag_334\n      jump\t// in\n    tag_682:\n        /* \"#utility.yul\":36137:36229   */\n      swap2\n      pop\n        /* \"#utility.yul\":36238:36331   */\n      tag_683\n        /* \"#utility.yul\":36327:36330   */\n      dup3\n        /* \"#utility.yul\":36238:36331   */\n      tag_349\n      jump\t// in\n    tag_683:\n        /* \"#utility.yul\":36356:36358   */\n      0x1c\n        /* \"#utility.yul\":36351:36354   */\n      dup3\n        /* \"#utility.yul\":36347:36359   */\n      add\n        /* \"#utility.yul\":36340:36359   */\n      swap1\n      pop\n        /* \"#utility.yul\":35963:36365   */\n      swap2\n      swap1\n      pop\n      jump\t// out\n        /* \"#utility.yul\":36371:36450   */\n    tag_351:\n        /* \"#utility.yul\":36410:36417   */\n      0x00\n        /* \"#utility.yul\":36439:36444   */\n      dup2\n        /* \"#utility.yul\":36428:36444   */\n      swap1\n      pop\n        /* \"#utility.yul\":36371:36450   */\n      swap2\n      swap1\n      pop\n      jump\t// out\n        /* \"#utility.yul\":36456:36613   */\n    tag_352:\n        /* \"#utility.yul\":36561:36606   */\n      tag_686\n        /* \"#utility.yul\":36581:36605   */\n      tag_687\n        /* \"#utility.yul\":36599:36604   */\n      dup3\n        /* \"#utility.yul\":36581:36605   */\n      tag_300\n      jump\t// in\n    tag_687:\n        /* \"#utility.yul\":36561:36606   */\n      tag_351\n      jump\t// in\n    tag_686:\n        /* \"#utility.yul\":36556:36559   */\n      dup3\n        /* \"#utility.yul\":36549:36607   */\n      mstore\n        /* \"#utility.yul\":36456:36613   */\n      pop\n      pop\n      jump\t// out\n        /* \"#utility.yul\":36619:37141   */\n    tag_230:\n        /* \"#utility.yul\":36832:36835   */\n      0x00\n        /* \"#utility.yul\":36854:37002   */\n      tag_689\n        /* \"#utility.yul\":36998:37001   */\n      dup3\n        /* \"#utility.yul\":36854:37002   */\n      tag_350\n      jump\t// in\n    tag_689:\n        /* \"#utility.yul\":36847:37002   */\n      swap2\n      pop\n        /* \"#utility.yul\":37012:37087   */\n      tag_690\n        /* \"#utility.yul\":37083:37086   */\n      dup3\n        /* \"#utility.yul\":37074:37080   */\n      dup5\n        /* \"#utility.yul\":37012:37087   */\n      tag_352\n      jump\t// in\n    tag_690:\n        /* \"#utility.yul\":37112:37114   */\n      0x20\n        /* \"#utility.yul\":37107:37110   */\n      dup3\n        /* \"#utility.yul\":37103:37115   */\n      add\n        /* \"#utility.yul\":37096:37115   */\n      swap2\n      pop\n        /* \"#utility.yul\":37132:37135   */\n      dup2\n        /* \"#utility.yul\":37125:37135   */\n      swap1\n      pop\n        /* \"#utility.yul\":36619:37141   */\n      swap3\n      swap2\n      pop\n      pop\n      jump\t// out\n        /* \"#utility.yul\":37147:37259   */\n    tag_353:\n        /* \"#utility.yul\":37230:37252   */\n      tag_692\n        /* \"#utility.yul\":37246:37251   */\n      dup2\n        /* \"#utility.yul\":37230:37252   */\n      tag_348\n      jump\t// in\n    tag_692:\n        /* \"#utility.yul\":37225:37228   */\n      dup3\n        /* \"#utility.yul\":37218:37253   */\n      mstore\n        /* \"#utility.yul\":37147:37259   */\n      pop\n      pop\n      jump\t// out\n        /* \"#utility.yul\":37265:37810   */\n    tag_232:\n        /* \"#utility.yul\":37438:37442   */\n      0x00\n        /* \"#utility.yul\":37476:37479   */\n      0x80\n        /* \"#utility.yul\":37465:37474   */\n      dup3\n        /* \"#utility.yul\":37461:37480   */\n      add\n        /* \"#utility.yul\":37453:37480   */\n      swap1\n      pop\n        /* \"#utility.yul\":37490:37561   */\n      tag_694\n        /* \"#utility.yul\":37558:37559   */\n      0x00\n        /* \"#utility.yul\":37547:37556   */\n      dup4\n        /* \"#utility.yul\":37543:37560   */\n      add\n        /* \"#utility.yul\":37534:37540   */\n      dup8\n        /* \"#utility.yul\":37490:37561   */\n      tag_301\n      jump\t// in\n    tag_694:\n        /* \"#utility.yul\":37571:37639   */\n      tag_695\n        /* \"#utility.yul\":37635:37637   */\n      0x20\n        /* \"#utility.yul\":37624:37633   */\n      dup4\n        /* \"#utility.yul\":37620:37638   */\n      add\n        /* \"#utility.yul\":37611:37617   */\n      dup7\n        /* \"#utility.yul\":37571:37639   */\n      tag_353\n      jump\t// in\n    tag_695:\n        /* \"#utility.yul\":37649:37721   */\n      tag_696\n        /* \"#utility.yul\":37717:37719   */\n      0x40\n        /* \"#utility.yul\":37706:37715   */\n      dup4\n        /* \"#utility.yul\":37702:37720   */\n      add\n        /* \"#utility.yul\":37693:37699   */\n      dup6\n        /* \"#utility.yul\":37649:37721   */\n      tag_301\n      jump\t// in\n    tag_696:\n        /* \"#utility.yul\":37731:37803   */\n      tag_697\n        /* \"#utility.yul\":37799:37801   */\n      0x60\n        /* \"#utility.yul\":37788:37797   */\n      dup4\n        /* \"#utility.yul\":37784:37802   */\n      add\n        /* \"#utility.yul\":37775:37781   */\n      dup5\n        /* \"#utility.yul\":37731:37803   */\n      tag_301\n      jump\t// in\n    tag_697:\n        /* \"#utility.yul\":37265:37810   */\n      swap6\n      swap5\n      pop\n      pop\n      pop\n      pop\n      pop\n      jump\t// out\n\n    auxdata: 0xa2646970667358221220491b4cf093525d5e203f6c45a0dc645d099118d492f74d4bfd3f9a8330ea9da564736f6c634300080a0033\n}\n",
				"bytecode": {
					"linkReferences": {},
					"object": "6080604052600160005534801561001557600080fd5b506130a5806100256000396000f3fe608060405234801561001057600080fd5b50600436106100cf5760003560e01c8063b822ed7a1161008c578063c57003cc11610066578063c57003cc14610262578063e615f1041461027e578063f762f4c0146102b2578063f8437061146102e2576100cf565b8063b822ed7a146101e6578063bfe2e25d14610216578063c10d6cec14610246576100cf565b8063049d1c8b146100d457806366c5343b146100f057806367d407df146101205780638ac3c3c2146101505780638ccb59e814610180578063ae928e3e146101b2575b600080fd5b6100ee60048036038101906100e99190611e95565b610300565b005b61010a60048036038101906101059190611ed5565b6105ce565b6040516101179190611f11565b60405180910390f35b61013a60048036038101906101359190611f2c565b610609565b6040516101479190611f11565b60405180910390f35b61016a60048036038101906101659190611ed5565b610621565b6040516101779190612017565b60405180910390f35b61019a60048036038101906101959190611ed5565b6106cb565b6040516101a993929190612106565b60405180910390f35b6101cc60048036038101906101c79190611ed5565b610916565b6040516101dd959493929190612217565b60405180910390f35b61020060048036038101906101fb9190611ed5565b610a31565b60405161020d91906123d8565b60405180910390f35b610230600480360381019061022b91906123fa565b610c3b565b60405161023d919061247a565b60405180910390f35b610260600480360381019061025b91906125ca565b610c76565b005b61027c60048036038101906102779190611ed5565b610f7a565b005b61029860048036038101906102939190611ed5565b611095565b6040516102a9959493929190612217565b60405180910390f35b6102cc60048036038101906102c7919061271a565b6111a0565b6040516102d991906128c8565b60405180910390f35b6102ea61168d565b6040516102f791906128c8565b60405180910390f35b6000600260008381526020019081526020016000209050600073ffffffffffffffffffffffffffffffffffffffff168160010160009054906101000a900473ffffffffffffffffffffffffffffffffffffffff1673ffffffffffffffffffffffffffffffffffffffff1614156103ab576040517f08c379a00000000000000000000000000000000000000000000000000000000081526004016103a290612936565b60405180910390fd5b3373ffffffffffffffffffffffffffffffffffffffff168160010160009054906101000a900473ffffffffffffffffffffffffffffffffffffffff1673ffffffffffffffffffffffffffffffffffffffff161461040b5761040a612956565b5b8060030160009054906101000a900463ffffffff1663ffffffff168160030160049054906101000a900463ffffffff1663ffffffff1610610481576040517f08c379a0000000000000000000000000000000000000000000000000000000008152600401610478906129f7565b60405180910390fd5b60016004600084815260200190815260200160002060008573ffffffffffffffffffffffffffffffffffffffff1673ffffffffffffffffffffffffffffffffffffffff16815260200190815260200160002060006101000a81548160ff02191690831515021790555080600201839080600181540180825580915050600190039060005260206000200160009091909190916101000a81548173ffffffffffffffffffffffffffffffffffffffff021916908373ffffffffffffffffffffffffffffffffffffffff16021790555080600301600481819054906101000a900463ffffffff168092919061057390612a46565b91906101000a81548163ffffffff021916908363ffffffff160217905550507fc19c59aa93348e8fc54764bc642eca975e2639f44cc683ef8f027e1529cbda32836040516105c19190612a73565b60405180910390a1505050565b6000806002600084815260200190815260200160002090508060030160049054906101000a900463ffffffff1663ffffffff16915050919050565b60036020528060005260406000206000915090505481565b60606000600260008481526020019081526020016000209050806002018054806020026020016040519081016040528092919081815260200182805480156106be57602002820191906000526020600020905b8160009054906101000a900473ffffffffffffffffffffffffffffffffffffffff1673ffffffffffffffffffffffffffffffffffffffff1681526020019060010190808311610674575b5050505050915050919050565b60606000806000600260008681526020019081526020016000209050600073ffffffffffffffffffffffffffffffffffffffff168160010160009054906101000a900473ffffffffffffffffffffffffffffffffffffffff1673ffffffffffffffffffffffffffffffffffffffff16141561077b576040517f08c379a000000000000000000000000000000000000000000000000000000000815260040161077290612ada565b60405180910390fd5b806002018054905067ffffffffffffffff81111561079c5761079b61249f565b5b6040519080825280602002602001820160405280156107ca5781602001602082028036833780820191505090505b50935060008060005b836002018054905081116109025760006107ed898361193b565b90508381111561083e578093508460020182815481106108105761080f612afa565b5b9060005260206000200160009054906101000a900473ffffffffffffffffffffffffffffffffffffffff1692505b600560008a8152602001908152602001600020600086600201848154811061086957610868612afa565b5b9060005260206000200160009054906101000a900473ffffffffffffffffffffffffffffffffffffffff1673ffffffffffffffffffffffffffffffffffffffff1673ffffffffffffffffffffffffffffffffffffffff168152602001908152602001600020548883815181106108e2576108e1612afa565b5b6020026020010181815250505080806108fa90612b29565b9150506107d3565b508581839550955095505050509193909250565b6001818154811061092657600080fd5b906000526020600020906004020160009150905080600001805461094990612ba1565b80601f016020809104026020016040519081016040528092919081815260200182805461097590612ba1565b80156109c25780601f10610997576101008083540402835291602001916109c2565b820191906000526020600020905b8154815290600101906020018083116109a557829003601f168201915b5050505050908060010160009054906101000a900473ffffffffffffffffffffffffffffffffffffffff16908060030160009054906101000a900463ffffffff16908060030160049054906101000a900463ffffffff16908060030160089054906101000a900460ff16905085565b610a39611c11565b600260008381526020019081526020016000206040518060c0016040529081600082018054610a6790612ba1565b80601f0160208091040260200160405190810160405280929190818152602001828054610a9390612ba1565b8015610ae05780601f10610ab557610100808354040283529160200191610ae0565b820191906000526020600020905b815481529060010190602001808311610ac357829003601f168201915b505050505081526020016001820160009054906101000a900473ffffffffffffffffffffffffffffffffffffffff1673ffffffffffffffffffffffffffffffffffffffff1673ffffffffffffffffffffffffffffffffffffffff16815260200160028201805480602002602001604051908101604052809291908181526020018280548015610bc457602002820191906000526020600020905b8160009054906101000a900473ffffffffffffffffffffffffffffffffffffffff1673ffffffffffffffffffffffffffffffffffffffff1681526020019060010190808311610b7a575b505050505081526020016003820160009054906101000a900463ffffffff1663ffffffff1663ffffffff1681526020016003820160049054906101000a900463ffffffff1663ffffffff1663ffffffff1681526020016003820160089054906101000a900460ff1615151515815250509050919050565b60003085858585604051602001610c56959493929190612c93565b604051602081830303815290604052805190602001209050949350505050565b8383600115156004600083815260200190815260200160002060008473ffffffffffffffffffffffffffffffffffffffff1673ffffffffffffffffffffffffffffffffffffffff16815260200190815260200160002060009054906101000a900460ff16151514610d1c576040517f08c379a0000000000000000000000000000000000000000000000000000000008152600401610d1390612d6f565b60405180910390fd5b846000600260008381526020019081526020016000209050600115158160030160089054906101000a900460ff16151514610d8c576040517f08c379a0000000000000000000000000000000000000000000000000000000008152600401610d8390612ddb565b60405180910390fd5b6000610d9a89898942610c3b565b90506000610da882886119ed565b9050600073ffffffffffffffffffffffffffffffffffffffff168173ffffffffffffffffffffffffffffffffffffffff161415610de457600080fd5b600360008273ffffffffffffffffffffffffffffffffffffffff1673ffffffffffffffffffffffffffffffffffffffff168152602001908152602001600020548814610e2f57600080fd5b600360008273ffffffffffffffffffffffffffffffffffffffff1673ffffffffffffffffffffffffffffffffffffffff1681526020019081526020016000206000815480929190610e7f90612b29565b919050555060001515600660008b815260200190815260200160002060008373ffffffffffffffffffffffffffffffffffffffff1673ffffffffffffffffffffffffffffffffffffffff16815260200190815260200160002060009054906101000a900460ff16151514610f28576040517f08c379a0000000000000000000000000000000000000000000000000000000008152600401610f1f90612e47565b60405180910390fd5b610f338a8a83611ae6565b507ff3f16a15f074b71c5138107dfc7c63b80524d5411cb967caa97d8d9f12b2fd6b8a6001604051610f66929190612e67565b60405180910390a150505050505050505050565b60006002600083815260200190815260200160002090503373ffffffffffffffffffffffffffffffffffffffff168160010160009054906101000a900473ffffffffffffffffffffffffffffffffffffffff1673ffffffffffffffffffffffffffffffffffffffff1614611023576040517f08c379a000000000000000000000000000000000000000000000000000000000815260040161101a90612edc565b60405180910390fd5b8060030160089054906101000a900460ff16158160030160086101000a81548160ff0219169083151502179055508060030160089054906101000a900460ff1615157f7b224db641892626dca6975b376f464e9ac52ccfa180436175170c009b94dcd760405160405180910390a25050565b60026020528060005260406000206000915090508060000180546110b890612ba1565b80601f01602080910402602001604051908101604052809291908181526020018280546110e490612ba1565b80156111315780601f1061110657610100808354040283529160200191611131565b820191906000526020600020905b81548152906001019060200180831161111457829003601f168201915b5050505050908060010160009054906101000a900473ffffffffffffffffffffffffffffffffffffffff16908060030160009054906101000a900463ffffffff16908060030160049054906101000a900463ffffffff16908060030160089054906101000a900460ff16905085565b6060600060026000805481526020019081526020016000209050838160000190805190602001906111d2929190611c6b565b50338160010160006101000a81548173ffffffffffffffffffffffffffffffffffffffff021916908373ffffffffffffffffffffffffffffffffffffffff160217905550828160030160006101000a81548163ffffffff021916908363ffffffff1602179055506001819080600181540180825580915050600190039060005260206000209060040201600090919091909150600082018160000190805461127990612ba1565b611284929190611cf1565b506001820160009054906101000a900473ffffffffffffffffffffffffffffffffffffffff168160010160006101000a81548173ffffffffffffffffffffffffffffffffffffffff021916908373ffffffffffffffffffffffffffffffffffffffff1602179055506002820181600201908054611302929190611d7e565b506003820160009054906101000a900463ffffffff168160030160006101000a81548163ffffffff021916908363ffffffff1602179055506003820160049054906101000a900463ffffffff168160030160046101000a81548163ffffffff021916908363ffffffff1602179055506003820160089054906101000a900460ff168160030160086101000a81548160ff02191690831515021790555050506000808154809291906113b290612b29565b91905055508060010160009054906101000a900473ffffffffffffffffffffffffffffffffffffffff1673ffffffffffffffffffffffffffffffffffffffff168160030160009054906101000a900463ffffffff1663ffffffff168560405161141b9190612f2d565b60405180910390207f4b35e5cf01446aa899a8d21082ebf23b7497d38f2466ad49836bd1006a8d059e60405160405180910390a46001805480602002602001604051908101604052809291908181526020016000905b8282101561168057838290600052602060002090600402016040518060c00160405290816000820180546114a490612ba1565b80601f01602080910402602001604051908101604052809291908181526020018280546114d090612ba1565b801561151d5780601f106114f25761010080835404028352916020019161151d565b820191906000526020600020905b81548152906001019060200180831161150057829003601f168201915b505050505081526020016001820160009054906101000a900473ffffffffffffffffffffffffffffffffffffffff1673ffffffffffffffffffffffffffffffffffffffff1673ffffffffffffffffffffffffffffffffffffffff1681526020016002820180548060200260200160405190810160405280929190818152602001828054801561160157602002820191906000526020600020905b8160009054906101000a900473ffffffffffffffffffffffffffffffffffffffff1673ffffffffffffffffffffffffffffffffffffffff16815260200190600101908083116115b7575b505050505081526020016003820160009054906101000a900463ffffffff1663ffffffff1663ffffffff1681526020016003820160049054906101000a900463ffffffff1663ffffffff1663ffffffff1681526020016003820160089054906101000a900460ff16151515158152505081526020019060010190611471565b5050505091505092915050565b606060018054905067ffffffffffffffff8111156116ae576116ad61249f565b5b6040519080825280602002602001820160405280156116e757816020015b6116d4611c11565b8152602001906001900390816116cc5790505b50905060005b600180549050811161193757600060026000838061170a90612b29565b945081526020019081526020016000209050806040518060c001604052908160008201805461173890612ba1565b80601f016020809104026020016040519081016040528092919081815260200182805461176490612ba1565b80156117b15780601f10611786576101008083540402835291602001916117b1565b820191906000526020600020905b81548152906001019060200180831161179457829003601f168201915b505050505081526020016001820160009054906101000a900473ffffffffffffffffffffffffffffffffffffffff1673ffffffffffffffffffffffffffffffffffffffff1673ffffffffffffffffffffffffffffffffffffffff1681526020016002820180548060200260200160405190810160405280929190818152602001828054801561189557602002820191906000526020600020905b8160009054906101000a900473ffffffffffffffffffffffffffffffffffffffff1673ffffffffffffffffffffffffffffffffffffffff168152602001906001019080831161184b575b505050505081526020016003820160009054906101000a900463ffffffff1663ffffffff1663ffffffff1681526020016003820160049054906101000a900463ffffffff1663ffffffff1663ffffffff1681526020016003820160089054906101000a900460ff16151515158152505083838151811061191857611917612afa565b5b602002602001018190525050808061192f90612b29565b9150506116ed565b5090565b60008060026000858152602001908152602001600020905060056000858152602001908152602001600020600082600201858154811061197e5761197d612afa565b5b9060005260206000200160009054906101000a900473ffffffffffffffffffffffffffffffffffffffff1673ffffffffffffffffffffffffffffffffffffffff1673ffffffffffffffffffffffffffffffffffffffff1681526020019081526020016000205491505092915050565b6000806000806041855114611a085760009350505050611ae0565b6020850151925060408501519150606085015160001a9050601b8160ff161015611a3c57601b81611a399190612f51565b90505b601b8160ff1614158015611a545750601c8160ff1614155b15611a655760009350505050611ae0565b600186604051602001611a789190612ff5565b6040516020818303038152906040528051906020012082858560405160008152602001604052604051611aae949392919061302a565b6020604051602081039080840390855afa158015611ad0573d6000803e3d6000fd5b5050506020604051035193505050505b92915050565b600060016006600085815260200190815260200160002060008473ffffffffffffffffffffffffffffffffffffffff1673ffffffffffffffffffffffffffffffffffffffff16815260200190815260200160002060006101000a81548160ff0219169083151502179055506005600084815260200190815260200160002060008573ffffffffffffffffffffffffffffffffffffffff1673ffffffffffffffffffffffffffffffffffffffff1681526020019081526020016000206000815480929190611bb290612b29565b91905055506005600084815260200190815260200160002060008573ffffffffffffffffffffffffffffffffffffffff1673ffffffffffffffffffffffffffffffffffffffff1681526020019081526020016000205490509392505050565b6040518060c0016040528060608152602001600073ffffffffffffffffffffffffffffffffffffffff16815260200160608152602001600063ffffffff168152602001600063ffffffff1681526020016000151581525090565b828054611c7790612ba1565b90600052602060002090601f016020900481019282611c995760008555611ce0565b82601f10611cb257805160ff1916838001178555611ce0565b82800160010185558215611ce0579182015b82811115611cdf578251825591602001919060010190611cc4565b5b509050611ced9190611dd0565b5090565b828054611cfd90612ba1565b90600052602060002090601f016020900481019282611d1f5760008555611d6d565b82601f10611d305780548555611d6d565b82800160010185558215611d6d57600052602060002091601f016020900482015b82811115611d6c578254825591600101919060010190611d51565b5b509050611d7a9190611dd0565b5090565b828054828255906000526020600020908101928215611dbf5760005260206000209182015b82811115611dbe578254825591600101919060010190611da3565b5b509050611dcc9190611dd0565b5090565b5b80821115611de9576000816000905550600101611dd1565b5090565b6000604051905090565b600080fd5b600080fd5b600073ffffffffffffffffffffffffffffffffffffffff82169050919050565b6000611e2c82611e01565b9050919050565b611e3c81611e21565b8114611e4757600080fd5b50565b600081359050611e5981611e33565b92915050565b6000819050919050565b611e7281611e5f565b8114611e7d57600080fd5b50565b600081359050611e8f81611e69565b92915050565b60008060408385031215611eac57611eab611df7565b5b6000611eba85828601611e4a565b9250506020611ecb85828601611e80565b9150509250929050565b600060208284031215611eeb57611eea611df7565b5b6000611ef984828501611e80565b91505092915050565b611f0b81611e5f565b82525050565b6000602082019050611f266000830184611f02565b92915050565b600060208284031215611f4257611f41611df7565b5b6000611f5084828501611e4a565b91505092915050565b600081519050919050565b600082825260208201905092915050565b6000819050602082019050919050565b611f8e81611e21565b82525050565b6000611fa08383611f85565b60208301905092915050565b6000602082019050919050565b6000611fc482611f59565b611fce8185611f64565b9350611fd983611f75565b8060005b8381101561200a578151611ff18882611f94565b9750611ffc83611fac565b925050600181019050611fdd565b5085935050505092915050565b600060208201905081810360008301526120318184611fb9565b905092915050565b600081519050919050565b600082825260208201905092915050565b6000819050602082019050919050565b61206e81611e5f565b82525050565b60006120808383612065565b60208301905092915050565b6000602082019050919050565b60006120a482612039565b6120ae8185612044565b93506120b983612055565b8060005b838110156120ea5781516120d18882612074565b97506120dc8361208c565b9250506001810190506120bd565b5085935050505092915050565b61210081611e21565b82525050565b600060608201905081810360008301526121208186612099565b905061212f60208301856120f7565b61213c6040830184611f02565b949350505050565b600081519050919050565b600082825260208201905092915050565b60005b8381101561217e578082015181840152602081019050612163565b8381111561218d576000848401525b50505050565b6000601f19601f8301169050919050565b60006121af82612144565b6121b9818561214f565b93506121c9818560208601612160565b6121d281612193565b840191505092915050565b600063ffffffff82169050919050565b6121f6816121dd565b82525050565b60008115159050919050565b612211816121fc565b82525050565b600060a082019050818103600083015261223181886121a4565b905061224060208301876120f7565b61224d60408301866121ed565b61225a60608301856121ed565b6122676080830184612208565b9695505050505050565b600082825260208201905092915050565b600061228d82612144565b6122978185612271565b93506122a7818560208601612160565b6122b081612193565b840191505092915050565b600082825260208201905092915050565b60006122d782611f59565b6122e181856122bb565b93506122ec83611f75565b8060005b8381101561231d5781516123048882611f94565b975061230f83611fac565b9250506001810190506122f0565b5085935050505092915050565b612333816121dd565b82525050565b612342816121fc565b82525050565b600060c08301600083015184820360008601526123658282612282565b915050602083015161237a6020860182611f85565b506040830151848203604086015261239282826122cc565b91505060608301516123a7606086018261232a565b5060808301516123ba608086018261232a565b5060a08301516123cd60a0860182612339565b508091505092915050565b600060208201905081810360008301526123f28184612348565b905092915050565b6000806000806080858703121561241457612413611df7565b5b600061242287828801611e4a565b945050602061243387828801611e80565b935050604061244487828801611e80565b925050606061245587828801611e80565b91505092959194509250565b6000819050919050565b61247481612461565b82525050565b600060208201905061248f600083018461246b565b92915050565b600080fd5b600080fd5b7f4e487b7100000000000000000000000000000000000000000000000000000000600052604160045260246000fd5b6124d782612193565b810181811067ffffffffffffffff821117156124f6576124f561249f565b5b80604052505050565b6000612509611ded565b905061251582826124ce565b919050565b600067ffffffffffffffff8211156125355761253461249f565b5b61253e82612193565b9050602081019050919050565b82818337600083830152505050565b600061256d6125688461251a565b6124ff565b9050828152602081018484840111156125895761258861249a565b5b61259484828561254b565b509392505050565b600082601f8301126125b1576125b0612495565b5b81356125c184826020860161255a565b91505092915050565b600080600080608085870312156125e4576125e3611df7565b5b60006125f287828801611e4a565b945050602061260387828801611e80565b935050604061261487828801611e80565b925050606085013567ffffffffffffffff81111561263557612634611dfc565b5b6126418782880161259c565b91505092959194509250565b600067ffffffffffffffff8211156126685761266761249f565b5b61267182612193565b9050602081019050919050565b600061269161268c8461264d565b6124ff565b9050828152602081018484840111156126ad576126ac61249a565b5b6126b884828561254b565b509392505050565b600082601f8301126126d5576126d4612495565b5b81356126e584826020860161267e565b91505092915050565b6126f7816121dd565b811461270257600080fd5b50565b600081359050612714816126ee565b92915050565b6000806040838503121561273157612730611df7565b5b600083013567ffffffffffffffff81111561274f5761274e611dfc565b5b61275b858286016126c0565b925050602061276c85828601612705565b9150509250929050565b600081519050919050565b600082825260208201905092915050565b6000819050602082019050919050565b600060c08301600083015184820360008601526127bf8282612282565b91505060208301516127d46020860182611f85565b50604083015184820360408601526127ec82826122cc565b9150506060830151612801606086018261232a565b506080830151612814608086018261232a565b5060a083015161282760a0860182612339565b508091505092915050565b600061283e83836127a2565b905092915050565b6000602082019050919050565b600061285e82612776565b6128688185612781565b93508360208202850161287a85612792565b8060005b858110156128b657848403895281516128978582612832565b94506128a283612846565b925060208a0199505060018101905061287e565b50829750879550505050505092915050565b600060208201905081810360008301526128e28184612853565b905092915050565b7f79657420746f20637265617465206120706f6c6c000000000000000000000000600082015250565b600061292060148361214f565b915061292b826128ea565b602082019050919050565b6000602082019050818103600083015261294f81612913565b9050919050565b7f4e487b7100000000000000000000000000000000000000000000000000000000600052600160045260246000fd5b7f6d6178696d756d206e6f206f662063616e64696461746520706572207365737360008201527f696f6e2072656769737465726564000000000000000000000000000000000000602082015250565b60006129e1602e8361214f565b91506129ec82612985565b604082019050919050565b60006020820190508181036000830152612a10816129d4565b9050919050565b7f4e487b7100000000000000000000000000000000000000000000000000000000600052601160045260246000fd5b6000612a51826121dd565b915063ffffffff821415612a6857612a67612a17565b5b600182019050919050565b6000602082019050612a8860008301846120f7565b92915050565b7f4e6f20706f6c6c20637265617465640000000000000000000000000000000000600082015250565b6000612ac4600f8361214f565b9150612acf82612a8e565b602082019050919050565b60006020820190508181036000830152612af381612ab7565b9050919050565b7f4e487b7100000000000000000000000000000000000000000000000000000000600052603260045260246000fd5b6000612b3482611e5f565b91507fffffffffffffffffffffffffffffffffffffffffffffffffffffffffffffffff821415612b6757612b66612a17565b5b600182019050919050565b7f4e487b7100000000000000000000000000000000000000000000000000000000600052602260045260246000fd5b60006002820490506001821680612bb957607f821691505b60208210811415612bcd57612bcc612b72565b5b50919050565b60008160601b9050919050565b6000612beb82612bd3565b9050919050565b6000612bfd82612be0565b9050919050565b612c15612c1082611e21565b612bf2565b82525050565b600081905092915050565b7f6d6574617472616e73616374696f6e20566f74696e6720000000000000000000600082015250565b6000612c5c601783612c1b565b9150612c6782612c26565b601782019050919050565b6000819050919050565b612c8d612c8882611e5f565b612c72565b82525050565b6000612c9f8288612c04565b601482019150612cae82612c4f565b9150612cba8287612c04565b601482019150612cca8286612c7c565b602082019150612cda8285612c7c565b602082019150612cea8284612c7c565b6020820191508190509695505050505050565b7f54686973206164647265737320646f6573206e6f74206578697374206173206160008201527f2063616e64696461746500000000000000000000000000000000000000000000602082015250565b6000612d59602a8361214f565b9150612d6482612cfd565b604082019050919050565b60006020820190508181036000830152612d8881612d4c565b9050919050565b7f766f74696e672068617320656e64656400000000000000000000000000000000600082015250565b6000612dc560108361214f565b9150612dd082612d8f565b602082019050919050565b60006020820190508181036000830152612df481612db8565b9050919050565b7f596f7520616c726561647920766f746564000000000000000000000000000000600082015250565b6000612e3160118361214f565b9150612e3c82612dfb565b602082019050919050565b60006020820190508181036000830152612e6081612e24565b9050919050565b6000604082019050612e7c60008301856120f7565b612e896020830184612208565b9392505050565b7f6e6f74207468652063686169726d616e00000000000000000000000000000000600082015250565b6000612ec660108361214f565b9150612ed182612e90565b602082019050919050565b60006020820190508181036000830152612ef581612eb9565b9050919050565b6000612f0782612144565b612f118185612c1b565b9350612f21818560208601612160565b80840191505092915050565b6000612f398284612efc565b915081905092915050565b600060ff82169050919050565b6000612f5c82612f44565b9150612f6783612f44565b92508260ff03821115612f7d57612f7c612a17565b5b828201905092915050565b7f19457468657265756d205369676e6564204d6573736167653a0a333200000000600082015250565b6000612fbe601c83612c1b565b9150612fc982612f88565b601c82019050919050565b6000819050919050565b612fef612fea82612461565b612fd4565b82525050565b600061300082612fb1565b915061300c8284612fde565b60208201915081905092915050565b61302481612f44565b82525050565b600060808201905061303f600083018761246b565b61304c602083018661301b565b613059604083018561246b565b613066606083018461246b565b9594505050505056fea2646970667358221220491b4cf093525d5e203f6c45a0dc645d099118d492f74d4bfd3f9a8330ea9da564736f6c634300080a0033",
					"opcodes": "PUSH1 0x80 PUSH1 0x40 MSTORE PUSH1 0x1 PUSH1 0x0 SSTORE CALLVALUE DUP1 ISZERO PUSH2 0x15 JUMPI PUSH1 0x0 DUP1 REVERT JUMPDEST POP PUSH2 0x30A5 DUP1 PUSH2 0x25 PUSH1 0x0 CODECOPY PUSH1 0x0 RETURN INVALID PUSH1 0x80 PUSH1 0x40 MSTORE CALLVALUE DUP1 ISZERO PUSH2 0x10 JUMPI PUSH1 0x0 DUP1 REVERT JUMPDEST POP PUSH1 0x4 CALLDATASIZE LT PUSH2 0xCF JUMPI PUSH1 0x0 CALLDATALOAD PUSH1 0xE0 SHR DUP1 PUSH4 0xB822ED7A GT PUSH2 0x8C JUMPI DUP1 PUSH4 0xC57003CC GT PUSH2 0x66 JUMPI DUP1 PUSH4 0xC57003CC EQ PUSH2 0x262 JUMPI DUP1 PUSH4 0xE615F104 EQ PUSH2 0x27E JUMPI DUP1 PUSH4 0xF762F4C0 EQ PUSH2 0x2B2 JUMPI DUP1 PUSH4 0xF8437061 EQ PUSH2 0x2E2 JUMPI PUSH2 0xCF JUMP JUMPDEST DUP1 PUSH4 0xB822ED7A EQ PUSH2 0x1E6 JUMPI DUP1 PUSH4 0xBFE2E25D EQ PUSH2 0x216 JUMPI DUP1 PUSH4 0xC10D6CEC EQ PUSH2 0x246 JUMPI PUSH2 0xCF JUMP JUMPDEST DUP1 PUSH4 0x49D1C8B EQ PUSH2 0xD4 JUMPI DUP1 PUSH4 0x66C5343B EQ PUSH2 0xF0 JUMPI DUP1 PUSH4 0x67D407DF EQ PUSH2 0x120 JUMPI DUP1 PUSH4 0x8AC3C3C2 EQ PUSH2 0x150 JUMPI DUP1 PUSH4 0x8CCB59E8 EQ PUSH2 0x180 JUMPI DUP1 PUSH4 0xAE928E3E EQ PUSH2 0x1B2 JUMPI JUMPDEST PUSH1 0x0 DUP1 REVERT JUMPDEST PUSH2 0xEE PUSH1 0x4 DUP1 CALLDATASIZE SUB DUP2 ADD SWAP1 PUSH2 0xE9 SWAP2 SWAP1 PUSH2 0x1E95 JUMP JUMPDEST PUSH2 0x300 JUMP JUMPDEST STOP JUMPDEST PUSH2 0x10A PUSH1 0x4 DUP1 CALLDATASIZE SUB DUP2 ADD SWAP1 PUSH2 0x105 SWAP2 SWAP1 PUSH2 0x1ED5 JUMP JUMPDEST PUSH2 0x5CE JUMP JUMPDEST PUSH1 0x40 MLOAD PUSH2 0x117 SWAP2 SWAP1 PUSH2 0x1F11 JUMP JUMPDEST PUSH1 0x40 MLOAD DUP1 SWAP2 SUB SWAP1 RETURN JUMPDEST PUSH2 0x13A PUSH1 0x4 DUP1 CALLDATASIZE SUB DUP2 ADD SWAP1 PUSH2 0x135 SWAP2 SWAP1 PUSH2 0x1F2C JUMP JUMPDEST PUSH2 0x609 JUMP JUMPDEST PUSH1 0x40 MLOAD PUSH2 0x147 SWAP2 SWAP1 PUSH2 0x1F11 JUMP JUMPDEST PUSH1 0x40 MLOAD DUP1 SWAP2 SUB SWAP1 RETURN JUMPDEST PUSH2 0x16A PUSH1 0x4 DUP1 CALLDATASIZE SUB DUP2 ADD SWAP1 PUSH2 0x165 SWAP2 SWAP1 PUSH2 0x1ED5 JUMP JUMPDEST PUSH2 0x621 JUMP JUMPDEST PUSH1 0x40 MLOAD PUSH2 0x177 SWAP2 SWAP1 PUSH2 0x2017 JUMP JUMPDEST PUSH1 0x40 MLOAD DUP1 SWAP2 SUB SWAP1 RETURN JUMPDEST PUSH2 0x19A PUSH1 0x4 DUP1 CALLDATASIZE SUB DUP2 ADD SWAP1 PUSH2 0x195 SWAP2 SWAP1 PUSH2 0x1ED5 JUMP JUMPDEST PUSH2 0x6CB JUMP JUMPDEST PUSH1 0x40 MLOAD PUSH2 0x1A9 SWAP4 SWAP3 SWAP2 SWAP1 PUSH2 0x2106 JUMP JUMPDEST PUSH1 0x40 MLOAD DUP1 SWAP2 SUB SWAP1 RETURN JUMPDEST PUSH2 0x1CC PUSH1 0x4 DUP1 CALLDATASIZE SUB DUP2 ADD SWAP1 PUSH2 0x1C7 SWAP2 SWAP1 PUSH2 0x1ED5 JUMP JUMPDEST PUSH2 0x916 JUMP JUMPDEST PUSH1 0x40 MLOAD PUSH2 0x1DD SWAP6 SWAP5 SWAP4 SWAP3 SWAP2 SWAP1 PUSH2 0x2217 JUMP JUMPDEST PUSH1 0x40 MLOAD DUP1 SWAP2 SUB SWAP1 RETURN JUMPDEST PUSH2 0x200 PUSH1 0x4 DUP1 CALLDATASIZE SUB DUP2 ADD SWAP1 PUSH2 0x1FB SWAP2 SWAP1 PUSH2 0x1ED5 JUMP JUMPDEST PUSH2 0xA31 JUMP JUMPDEST PUSH1 0x40 MLOAD PUSH2 0x20D SWAP2 SWAP1 PUSH2 0x23D8 JUMP JUMPDEST PUSH1 0x40 MLOAD DUP1 SWAP2 SUB SWAP1 RETURN JUMPDEST PUSH2 0x230 PUSH1 0x4 DUP1 CALLDATASIZE SUB DUP2 ADD SWAP1 PUSH2 0x22B SWAP2 SWAP1 PUSH2 0x23FA JUMP JUMPDEST PUSH2 0xC3B JUMP JUMPDEST PUSH1 0x40 MLOAD PUSH2 0x23D SWAP2 SWAP1 PUSH2 0x247A JUMP JUMPDEST PUSH1 0x40 MLOAD DUP1 SWAP2 SUB SWAP1 RETURN JUMPDEST PUSH2 0x260 PUSH1 0x4 DUP1 CALLDATASIZE SUB DUP2 ADD SWAP1 PUSH2 0x25B SWAP2 SWAP1 PUSH2 0x25CA JUMP JUMPDEST PUSH2 0xC76 JUMP JUMPDEST STOP JUMPDEST PUSH2 0x27C PUSH1 0x4 DUP1 CALLDATASIZE SUB DUP2 ADD SWAP1 PUSH2 0x277 SWAP2 SWAP1 PUSH2 0x1ED5 JUMP JUMPDEST PUSH2 0xF7A JUMP JUMPDEST STOP JUMPDEST PUSH2 0x298 PUSH1 0x4 DUP1 CALLDATASIZE SUB DUP2 ADD SWAP1 PUSH2 0x293 SWAP2 SWAP1 PUSH2 0x1ED5 JUMP JUMPDEST PUSH2 0x1095 JUMP JUMPDEST PUSH1 0x40 MLOAD PUSH2 0x2A9 SWAP6 SWAP5 SWAP4 SWAP3 SWAP2 SWAP1 PUSH2 0x2217 JUMP JUMPDEST PUSH1 0x40 MLOAD DUP1 SWAP2 SUB SWAP1 RETURN JUMPDEST PUSH2 0x2CC PUSH1 0x4 DUP1 CALLDATASIZE SUB DUP2 ADD SWAP1 PUSH2 0x2C7 SWAP2 SWAP1 PUSH2 0x271A JUMP JUMPDEST PUSH2 0x11A0 JUMP JUMPDEST PUSH1 0x40 MLOAD PUSH2 0x2D9 SWAP2 SWAP1 PUSH2 0x28C8 JUMP JUMPDEST PUSH1 0x40 MLOAD DUP1 SWAP2 SUB SWAP1 RETURN JUMPDEST PUSH2 0x2EA PUSH2 0x168D JUMP JUMPDEST PUSH1 0x40 MLOAD PUSH2 0x2F7 SWAP2 SWAP1 PUSH2 0x28C8 JUMP JUMPDEST PUSH1 0x40 MLOAD DUP1 SWAP2 SUB SWAP1 RETURN JUMPDEST PUSH1 0x0 PUSH1 0x2 PUSH1 0x0 DUP4 DUP2 MSTORE PUSH1 0x20 ADD SWAP1 DUP2 MSTORE PUSH1 0x20 ADD PUSH1 0x0 KECCAK256 SWAP1 POP PUSH1 0x0 PUSH20 0xFFFFFFFFFFFFFFFFFFFFFFFFFFFFFFFFFFFFFFFF AND DUP2 PUSH1 0x1 ADD PUSH1 0x0 SWAP1 SLOAD SWAP1 PUSH2 0x100 EXP SWAP1 DIV PUSH20 0xFFFFFFFFFFFFFFFFFFFFFFFFFFFFFFFFFFFFFFFF AND PUSH20 0xFFFFFFFFFFFFFFFFFFFFFFFFFFFFFFFFFFFFFFFF AND EQ ISZERO PUSH2 0x3AB JUMPI PUSH1 0x40 MLOAD PUSH32 0x8C379A000000000000000000000000000000000000000000000000000000000 DUP2 MSTORE PUSH1 0x4 ADD PUSH2 0x3A2 SWAP1 PUSH2 0x2936 JUMP JUMPDEST PUSH1 0x40 MLOAD DUP1 SWAP2 SUB SWAP1 REVERT JUMPDEST CALLER PUSH20 0xFFFFFFFFFFFFFFFFFFFFFFFFFFFFFFFFFFFFFFFF AND DUP2 PUSH1 0x1 ADD PUSH1 0x0 SWAP1 SLOAD SWAP1 PUSH2 0x100 EXP SWAP1 DIV PUSH20 0xFFFFFFFFFFFFFFFFFFFFFFFFFFFFFFFFFFFFFFFF AND PUSH20 0xFFFFFFFFFFFFFFFFFFFFFFFFFFFFFFFFFFFFFFFF AND EQ PUSH2 0x40B JUMPI PUSH2 0x40A PUSH2 0x2956 JUMP JUMPDEST JUMPDEST DUP1 PUSH1 0x3 ADD PUSH1 0x0 SWAP1 SLOAD SWAP1 PUSH2 0x100 EXP SWAP1 DIV PUSH4 0xFFFFFFFF AND PUSH4 0xFFFFFFFF AND DUP2 PUSH1 0x3 ADD PUSH1 0x4 SWAP1 SLOAD SWAP1 PUSH2 0x100 EXP SWAP1 DIV PUSH4 0xFFFFFFFF AND PUSH4 0xFFFFFFFF AND LT PUSH2 0x481 JUMPI PUSH1 0x40 MLOAD PUSH32 0x8C379A000000000000000000000000000000000000000000000000000000000 DUP2 MSTORE PUSH1 0x4 ADD PUSH2 0x478 SWAP1 PUSH2 0x29F7 JUMP JUMPDEST PUSH1 0x40 MLOAD DUP1 SWAP2 SUB SWAP1 REVERT JUMPDEST PUSH1 0x1 PUSH1 0x4 PUSH1 0x0 DUP5 DUP2 MSTORE PUSH1 0x20 ADD SWAP1 DUP2 MSTORE PUSH1 0x20 ADD PUSH1 0x0 KECCAK256 PUSH1 0x0 DUP6 PUSH20 0xFFFFFFFFFFFFFFFFFFFFFFFFFFFFFFFFFFFFFFFF AND PUSH20 0xFFFFFFFFFFFFFFFFFFFFFFFFFFFFFFFFFFFFFFFF AND DUP2 MSTORE PUSH1 0x20 ADD SWAP1 DUP2 MSTORE PUSH1 0x20 ADD PUSH1 0x0 KECCAK256 PUSH1 0x0 PUSH2 0x100 EXP DUP2 SLOAD DUP2 PUSH1 0xFF MUL NOT AND SWAP1 DUP4 ISZERO ISZERO MUL OR SWAP1 SSTORE POP DUP1 PUSH1 0x2 ADD DUP4 SWAP1 DUP1 PUSH1 0x1 DUP2 SLOAD ADD DUP1 DUP3 SSTORE DUP1 SWAP2 POP POP PUSH1 0x1 SWAP1 SUB SWAP1 PUSH1 0x0 MSTORE PUSH1 0x20 PUSH1 0x0 KECCAK256 ADD PUSH1 0x0 SWAP1 SWAP2 SWAP1 SWAP2 SWAP1 SWAP2 PUSH2 0x100 EXP DUP2 SLOAD DUP2 PUSH20 0xFFFFFFFFFFFFFFFFFFFFFFFFFFFFFFFFFFFFFFFF MUL NOT AND SWAP1 DUP4 PUSH20 0xFFFFFFFFFFFFFFFFFFFFFFFFFFFFFFFFFFFFFFFF AND MUL OR SWAP1 SSTORE POP DUP1 PUSH1 0x3 ADD PUSH1 0x4 DUP2 DUP2 SWAP1 SLOAD SWAP1 PUSH2 0x100 EXP SWAP1 DIV PUSH4 0xFFFFFFFF AND DUP1 SWAP3 SWAP2 SWAP1 PUSH2 0x573 SWAP1 PUSH2 0x2A46 JUMP JUMPDEST SWAP2 SWAP1 PUSH2 0x100 EXP DUP2 SLOAD DUP2 PUSH4 0xFFFFFFFF MUL NOT AND SWAP1 DUP4 PUSH4 0xFFFFFFFF AND MUL OR SWAP1 SSTORE POP POP PUSH32 0xC19C59AA93348E8FC54764BC642ECA975E2639F44CC683EF8F027E1529CBDA32 DUP4 PUSH1 0x40 MLOAD PUSH2 0x5C1 SWAP2 SWAP1 PUSH2 0x2A73 JUMP JUMPDEST PUSH1 0x40 MLOAD DUP1 SWAP2 SUB SWAP1 LOG1 POP POP POP JUMP JUMPDEST PUSH1 0x0 DUP1 PUSH1 0x2 PUSH1 0x0 DUP5 DUP2 MSTORE PUSH1 0x20 ADD SWAP1 DUP2 MSTORE PUSH1 0x20 ADD PUSH1 0x0 KECCAK256 SWAP1 POP DUP1 PUSH1 0x3 ADD PUSH1 0x4 SWAP1 SLOAD SWAP1 PUSH2 0x100 EXP SWAP1 DIV PUSH4 0xFFFFFFFF AND PUSH4 0xFFFFFFFF AND SWAP2 POP POP SWAP2 SWAP1 POP JUMP JUMPDEST PUSH1 0x3 PUSH1 0x20 MSTORE DUP1 PUSH1 0x0 MSTORE PUSH1 0x40 PUSH1 0x0 KECCAK256 PUSH1 0x0 SWAP2 POP SWAP1 POP SLOAD DUP2 JUMP JUMPDEST PUSH1 0x60 PUSH1 0x0 PUSH1 0x2 PUSH1 0x0 DUP5 DUP2 MSTORE PUSH1 0x20 ADD SWAP1 DUP2 MSTORE PUSH1 0x20 ADD PUSH1 0x0 KECCAK256 SWAP1 POP DUP1 PUSH1 0x2 ADD DUP1 SLOAD DUP1 PUSH1 0x20 MUL PUSH1 0x20 ADD PUSH1 0x40 MLOAD SWAP1 DUP2 ADD PUSH1 0x40 MSTORE DUP1 SWAP3 SWAP2 SWAP1 DUP2 DUP2 MSTORE PUSH1 0x20 ADD DUP3 DUP1 SLOAD DUP1 ISZERO PUSH2 0x6BE JUMPI PUSH1 0x20 MUL DUP3 ADD SWAP2 SWAP1 PUSH1 0x0 MSTORE PUSH1 0x20 PUSH1 0x0 KECCAK256 SWAP1 JUMPDEST DUP2 PUSH1 0x0 SWAP1 SLOAD SWAP1 PUSH2 0x100 EXP SWAP1 DIV PUSH20 0xFFFFFFFFFFFFFFFFFFFFFFFFFFFFFFFFFFFFFFFF AND PUSH20 0xFFFFFFFFFFFFFFFFFFFFFFFFFFFFFFFFFFFFFFFF AND DUP2 MSTORE PUSH1 0x20 ADD SWAP1 PUSH1 0x1 ADD SWAP1 DUP1 DUP4 GT PUSH2 0x674 JUMPI JUMPDEST POP POP POP POP POP SWAP2 POP POP SWAP2 SWAP1 POP JUMP JUMPDEST PUSH1 0x60 PUSH1 0x0 DUP1 PUSH1 0x0 PUSH1 0x2 PUSH1 0x0 DUP7 DUP2 MSTORE PUSH1 0x20 ADD SWAP1 DUP2 MSTORE PUSH1 0x20 ADD PUSH1 0x0 KECCAK256 SWAP1 POP PUSH1 0x0 PUSH20 0xFFFFFFFFFFFFFFFFFFFFFFFFFFFFFFFFFFFFFFFF AND DUP2 PUSH1 0x1 ADD PUSH1 0x0 SWAP1 SLOAD SWAP1 PUSH2 0x100 EXP SWAP1 DIV PUSH20 0xFFFFFFFFFFFFFFFFFFFFFFFFFFFFFFFFFFFFFFFF AND PUSH20 0xFFFFFFFFFFFFFFFFFFFFFFFFFFFFFFFFFFFFFFFF AND EQ ISZERO PUSH2 0x77B JUMPI PUSH1 0x40 MLOAD PUSH32 0x8C379A000000000000000000000000000000000000000000000000000000000 DUP2 MSTORE PUSH1 0x4 ADD PUSH2 0x772 SWAP1 PUSH2 0x2ADA JUMP JUMPDEST PUSH1 0x40 MLOAD DUP1 SWAP2 SUB SWAP1 REVERT JUMPDEST DUP1 PUSH1 0x2 ADD DUP1 SLOAD SWAP1 POP PUSH8 0xFFFFFFFFFFFFFFFF DUP2 GT ISZERO PUSH2 0x79C JUMPI PUSH2 0x79B PUSH2 0x249F JUMP JUMPDEST JUMPDEST PUSH1 0x40 MLOAD SWAP1 DUP1 DUP3 MSTORE DUP1 PUSH1 0x20 MUL PUSH1 0x20 ADD DUP3 ADD PUSH1 0x40 MSTORE DUP1 ISZERO PUSH2 0x7CA JUMPI DUP2 PUSH1 0x20 ADD PUSH1 0x20 DUP3 MUL DUP1 CALLDATASIZE DUP4 CALLDATACOPY DUP1 DUP3 ADD SWAP2 POP POP SWAP1 POP JUMPDEST POP SWAP4 POP PUSH1 0x0 DUP1 PUSH1 0x0 JUMPDEST DUP4 PUSH1 0x2 ADD DUP1 SLOAD SWAP1 POP DUP2 GT PUSH2 0x902 JUMPI PUSH1 0x0 PUSH2 0x7ED DUP10 DUP4 PUSH2 0x193B JUMP JUMPDEST SWAP1 POP DUP4 DUP2 GT ISZERO PUSH2 0x83E JUMPI DUP1 SWAP4 POP DUP5 PUSH1 0x2 ADD DUP3 DUP2 SLOAD DUP2 LT PUSH2 0x810 JUMPI PUSH2 0x80F PUSH2 0x2AFA JUMP JUMPDEST JUMPDEST SWAP1 PUSH1 0x0 MSTORE PUSH1 0x20 PUSH1 0x0 KECCAK256 ADD PUSH1 0x0 SWAP1 SLOAD SWAP1 PUSH2 0x100 EXP SWAP1 DIV PUSH20 0xFFFFFFFFFFFFFFFFFFFFFFFFFFFFFFFFFFFFFFFF AND SWAP3 POP JUMPDEST PUSH1 0x5 PUSH1 0x0 DUP11 DUP2 MSTORE PUSH1 0x20 ADD SWAP1 DUP2 MSTORE PUSH1 0x20 ADD PUSH1 0x0 KECCAK256 PUSH1 0x0 DUP7 PUSH1 0x2 ADD DUP5 DUP2 SLOAD DUP2 LT PUSH2 0x869 JUMPI PUSH2 0x868 PUSH2 0x2AFA JUMP JUMPDEST JUMPDEST SWAP1 PUSH1 0x0 MSTORE PUSH1 0x20 PUSH1 0x0 KECCAK256 ADD PUSH1 0x0 SWAP1 SLOAD SWAP1 PUSH2 0x100 EXP SWAP1 DIV PUSH20 0xFFFFFFFFFFFFFFFFFFFFFFFFFFFFFFFFFFFFFFFF AND PUSH20 0xFFFFFFFFFFFFFFFFFFFFFFFFFFFFFFFFFFFFFFFF AND PUSH20 0xFFFFFFFFFFFFFFFFFFFFFFFFFFFFFFFFFFFFFFFF AND DUP2 MSTORE PUSH1 0x20 ADD SWAP1 DUP2 MSTORE PUSH1 0x20 ADD PUSH1 0x0 KECCAK256 SLOAD DUP9 DUP4 DUP2 MLOAD DUP2 LT PUSH2 0x8E2 JUMPI PUSH2 0x8E1 PUSH2 0x2AFA JUMP JUMPDEST JUMPDEST PUSH1 0x20 MUL PUSH1 0x20 ADD ADD DUP2 DUP2 MSTORE POP POP POP DUP1 DUP1 PUSH2 0x8FA SWAP1 PUSH2 0x2B29 JUMP JUMPDEST SWAP2 POP POP PUSH2 0x7D3 JUMP JUMPDEST POP DUP6 DUP2 DUP4 SWAP6 POP SWAP6 POP SWAP6 POP POP POP POP SWAP2 SWAP4 SWAP1 SWAP3 POP JUMP JUMPDEST PUSH1 0x1 DUP2 DUP2 SLOAD DUP2 LT PUSH2 0x926 JUMPI PUSH1 0x0 DUP1 REVERT JUMPDEST SWAP1 PUSH1 0x0 MSTORE PUSH1 0x20 PUSH1 0x0 KECCAK256 SWAP1 PUSH1 0x4 MUL ADD PUSH1 0x0 SWAP2 POP SWAP1 POP DUP1 PUSH1 0x0 ADD DUP1 SLOAD PUSH2 0x949 SWAP1 PUSH2 0x2BA1 JUMP JUMPDEST DUP1 PUSH1 0x1F ADD PUSH1 0x20 DUP1 SWAP2 DIV MUL PUSH1 0x20 ADD PUSH1 0x40 MLOAD SWAP1 DUP2 ADD PUSH1 0x40 MSTORE DUP1 SWAP3 SWAP2 SWAP1 DUP2 DUP2 MSTORE PUSH1 0x20 ADD DUP3 DUP1 SLOAD PUSH2 0x975 SWAP1 PUSH2 0x2BA1 JUMP JUMPDEST DUP1 ISZERO PUSH2 0x9C2 JUMPI DUP1 PUSH1 0x1F LT PUSH2 0x997 JUMPI PUSH2 0x100 DUP1 DUP4 SLOAD DIV MUL DUP4 MSTORE SWAP2 PUSH1 0x20 ADD SWAP2 PUSH2 0x9C2 JUMP JUMPDEST DUP3 ADD SWAP2 SWAP1 PUSH1 0x0 MSTORE PUSH1 0x20 PUSH1 0x0 KECCAK256 SWAP1 JUMPDEST DUP2 SLOAD DUP2 MSTORE SWAP1 PUSH1 0x1 ADD SWAP1 PUSH1 0x20 ADD DUP1 DUP4 GT PUSH2 0x9A5 JUMPI DUP3 SWAP1 SUB PUSH1 0x1F AND DUP3 ADD SWAP2 JUMPDEST POP POP POP POP POP SWAP1 DUP1 PUSH1 0x1 ADD PUSH1 0x0 SWAP1 SLOAD SWAP1 PUSH2 0x100 EXP SWAP1 DIV PUSH20 0xFFFFFFFFFFFFFFFFFFFFFFFFFFFFFFFFFFFFFFFF AND SWAP1 DUP1 PUSH1 0x3 ADD PUSH1 0x0 SWAP1 SLOAD SWAP1 PUSH2 0x100 EXP SWAP1 DIV PUSH4 0xFFFFFFFF AND SWAP1 DUP1 PUSH1 0x3 ADD PUSH1 0x4 SWAP1 SLOAD SWAP1 PUSH2 0x100 EXP SWAP1 DIV PUSH4 0xFFFFFFFF AND SWAP1 DUP1 PUSH1 0x3 ADD PUSH1 0x8 SWAP1 SLOAD SWAP1 PUSH2 0x100 EXP SWAP1 DIV PUSH1 0xFF AND SWAP1 POP DUP6 JUMP JUMPDEST PUSH2 0xA39 PUSH2 0x1C11 JUMP JUMPDEST PUSH1 0x2 PUSH1 0x0 DUP4 DUP2 MSTORE PUSH1 0x20 ADD SWAP1 DUP2 MSTORE PUSH1 0x20 ADD PUSH1 0x0 KECCAK256 PUSH1 0x40 MLOAD DUP1 PUSH1 0xC0 ADD PUSH1 0x40 MSTORE SWAP1 DUP2 PUSH1 0x0 DUP3 ADD DUP1 SLOAD PUSH2 0xA67 SWAP1 PUSH2 0x2BA1 JUMP JUMPDEST DUP1 PUSH1 0x1F ADD PUSH1 0x20 DUP1 SWAP2 DIV MUL PUSH1 0x20 ADD PUSH1 0x40 MLOAD SWAP1 DUP2 ADD PUSH1 0x40 MSTORE DUP1 SWAP3 SWAP2 SWAP1 DUP2 DUP2 MSTORE PUSH1 0x20 ADD DUP3 DUP1 SLOAD PUSH2 0xA93 SWAP1 PUSH2 0x2BA1 JUMP JUMPDEST DUP1 ISZERO PUSH2 0xAE0 JUMPI DUP1 PUSH1 0x1F LT PUSH2 0xAB5 JUMPI PUSH2 0x100 DUP1 DUP4 SLOAD DIV MUL DUP4 MSTORE SWAP2 PUSH1 0x20 ADD SWAP2 PUSH2 0xAE0 JUMP JUMPDEST DUP3 ADD SWAP2 SWAP1 PUSH1 0x0 MSTORE PUSH1 0x20 PUSH1 0x0 KECCAK256 SWAP1 JUMPDEST DUP2 SLOAD DUP2 MSTORE SWAP1 PUSH1 0x1 ADD SWAP1 PUSH1 0x20 ADD DUP1 DUP4 GT PUSH2 0xAC3 JUMPI DUP3 SWAP1 SUB PUSH1 0x1F AND DUP3 ADD SWAP2 JUMPDEST POP POP POP POP POP DUP2 MSTORE PUSH1 0x20 ADD PUSH1 0x1 DUP3 ADD PUSH1 0x0 SWAP1 SLOAD SWAP1 PUSH2 0x100 EXP SWAP1 DIV PUSH20 0xFFFFFFFFFFFFFFFFFFFFFFFFFFFFFFFFFFFFFFFF AND PUSH20 0xFFFFFFFFFFFFFFFFFFFFFFFFFFFFFFFFFFFFFFFF AND PUSH20 0xFFFFFFFFFFFFFFFFFFFFFFFFFFFFFFFFFFFFFFFF AND DUP2 MSTORE PUSH1 0x20 ADD PUSH1 0x2 DUP3 ADD DUP1 SLOAD DUP1 PUSH1 0x20 MUL PUSH1 0x20 ADD PUSH1 0x40 MLOAD SWAP1 DUP2 ADD PUSH1 0x40 MSTORE DUP1 SWAP3 SWAP2 SWAP1 DUP2 DUP2 MSTORE PUSH1 0x20 ADD DUP3 DUP1 SLOAD DUP1 ISZERO PUSH2 0xBC4 JUMPI PUSH1 0x20 MUL DUP3 ADD SWAP2 SWAP1 PUSH1 0x0 MSTORE PUSH1 0x20 PUSH1 0x0 KECCAK256 SWAP1 JUMPDEST DUP2 PUSH1 0x0 SWAP1 SLOAD SWAP1 PUSH2 0x100 EXP SWAP1 DIV PUSH20 0xFFFFFFFFFFFFFFFFFFFFFFFFFFFFFFFFFFFFFFFF AND PUSH20 0xFFFFFFFFFFFFFFFFFFFFFFFFFFFFFFFFFFFFFFFF AND DUP2 MSTORE PUSH1 0x20 ADD SWAP1 PUSH1 0x1 ADD SWAP1 DUP1 DUP4 GT PUSH2 0xB7A JUMPI JUMPDEST POP POP POP POP POP DUP2 MSTORE PUSH1 0x20 ADD PUSH1 0x3 DUP3 ADD PUSH1 0x0 SWAP1 SLOAD SWAP1 PUSH2 0x100 EXP SWAP1 DIV PUSH4 0xFFFFFFFF AND PUSH4 0xFFFFFFFF AND PUSH4 0xFFFFFFFF AND DUP2 MSTORE PUSH1 0x20 ADD PUSH1 0x3 DUP3 ADD PUSH1 0x4 SWAP1 SLOAD SWAP1 PUSH2 0x100 EXP SWAP1 DIV PUSH4 0xFFFFFFFF AND PUSH4 0xFFFFFFFF AND PUSH4 0xFFFFFFFF AND DUP2 MSTORE PUSH1 0x20 ADD PUSH1 0x3 DUP3 ADD PUSH1 0x8 SWAP1 SLOAD SWAP1 PUSH2 0x100 EXP SWAP1 DIV PUSH1 0xFF AND ISZERO ISZERO ISZERO ISZERO DUP2 MSTORE POP POP SWAP1 POP SWAP2 SWAP1 POP JUMP JUMPDEST PUSH1 0x0 ADDRESS DUP6 DUP6 DUP6 DUP6 PUSH1 0x40 MLOAD PUSH1 0x20 ADD PUSH2 0xC56 SWAP6 SWAP5 SWAP4 SWAP3 SWAP2 SWAP1 PUSH2 0x2C93 JUMP JUMPDEST PUSH1 0x40 MLOAD PUSH1 0x20 DUP2 DUP4 SUB SUB DUP2 MSTORE SWAP1 PUSH1 0x40 MSTORE DUP1 MLOAD SWAP1 PUSH1 0x20 ADD KECCAK256 SWAP1 POP SWAP5 SWAP4 POP POP POP POP JUMP JUMPDEST DUP4 DUP4 PUSH1 0x1 ISZERO ISZERO PUSH1 0x4 PUSH1 0x0 DUP4 DUP2 MSTORE PUSH1 0x20 ADD SWAP1 DUP2 MSTORE PUSH1 0x20 ADD PUSH1 0x0 KECCAK256 PUSH1 0x0 DUP5 PUSH20 0xFFFFFFFFFFFFFFFFFFFFFFFFFFFFFFFFFFFFFFFF AND PUSH20 0xFFFFFFFFFFFFFFFFFFFFFFFFFFFFFFFFFFFFFFFF AND DUP2 MSTORE PUSH1 0x20 ADD SWAP1 DUP2 MSTORE PUSH1 0x20 ADD PUSH1 0x0 KECCAK256 PUSH1 0x0 SWAP1 SLOAD SWAP1 PUSH2 0x100 EXP SWAP1 DIV PUSH1 0xFF AND ISZERO ISZERO EQ PUSH2 0xD1C JUMPI PUSH1 0x40 MLOAD PUSH32 0x8C379A000000000000000000000000000000000000000000000000000000000 DUP2 MSTORE PUSH1 0x4 ADD PUSH2 0xD13 SWAP1 PUSH2 0x2D6F JUMP JUMPDEST PUSH1 0x40 MLOAD DUP1 SWAP2 SUB SWAP1 REVERT JUMPDEST DUP5 PUSH1 0x0 PUSH1 0x2 PUSH1 0x0 DUP4 DUP2 MSTORE PUSH1 0x20 ADD SWAP1 DUP2 MSTORE PUSH1 0x20 ADD PUSH1 0x0 KECCAK256 SWAP1 POP PUSH1 0x1 ISZERO ISZERO DUP2 PUSH1 0x3 ADD PUSH1 0x8 SWAP1 SLOAD SWAP1 PUSH2 0x100 EXP SWAP1 DIV PUSH1 0xFF AND ISZERO ISZERO EQ PUSH2 0xD8C JUMPI PUSH1 0x40 MLOAD PUSH32 0x8C379A000000000000000000000000000000000000000000000000000000000 DUP2 MSTORE PUSH1 0x4 ADD PUSH2 0xD83 SWAP1 PUSH2 0x2DDB JUMP JUMPDEST PUSH1 0x40 MLOAD DUP1 SWAP2 SUB SWAP1 REVERT JUMPDEST PUSH1 0x0 PUSH2 0xD9A DUP10 DUP10 DUP10 TIMESTAMP PUSH2 0xC3B JUMP JUMPDEST SWAP1 POP PUSH1 0x0 PUSH2 0xDA8 DUP3 DUP9 PUSH2 0x19ED JUMP JUMPDEST SWAP1 POP PUSH1 0x0 PUSH20 0xFFFFFFFFFFFFFFFFFFFFFFFFFFFFFFFFFFFFFFFF AND DUP2 PUSH20 0xFFFFFFFFFFFFFFFFFFFFFFFFFFFFFFFFFFFFFFFF AND EQ ISZERO PUSH2 0xDE4 JUMPI PUSH1 0x0 DUP1 REVERT JUMPDEST PUSH1 0x3 PUSH1 0x0 DUP3 PUSH20 0xFFFFFFFFFFFFFFFFFFFFFFFFFFFFFFFFFFFFFFFF AND PUSH20 0xFFFFFFFFFFFFFFFFFFFFFFFFFFFFFFFFFFFFFFFF AND DUP2 MSTORE PUSH1 0x20 ADD SWAP1 DUP2 MSTORE PUSH1 0x20 ADD PUSH1 0x0 KECCAK256 SLOAD DUP9 EQ PUSH2 0xE2F JUMPI PUSH1 0x0 DUP1 REVERT JUMPDEST PUSH1 0x3 PUSH1 0x0 DUP3 PUSH20 0xFFFFFFFFFFFFFFFFFFFFFFFFFFFFFFFFFFFFFFFF AND PUSH20 0xFFFFFFFFFFFFFFFFFFFFFFFFFFFFFFFFFFFFFFFF AND DUP2 MSTORE PUSH1 0x20 ADD SWAP1 DUP2 MSTORE PUSH1 0x20 ADD PUSH1 0x0 KECCAK256 PUSH1 0x0 DUP2 SLOAD DUP1 SWAP3 SWAP2 SWAP1 PUSH2 0xE7F SWAP1 PUSH2 0x2B29 JUMP JUMPDEST SWAP2 SWAP1 POP SSTORE POP PUSH1 0x0 ISZERO ISZERO PUSH1 0x6 PUSH1 0x0 DUP12 DUP2 MSTORE PUSH1 0x20 ADD SWAP1 DUP2 MSTORE PUSH1 0x20 ADD PUSH1 0x0 KECCAK256 PUSH1 0x0 DUP4 PUSH20 0xFFFFFFFFFFFFFFFFFFFFFFFFFFFFFFFFFFFFFFFF AND PUSH20 0xFFFFFFFFFFFFFFFFFFFFFFFFFFFFFFFFFFFFFFFF AND DUP2 MSTORE PUSH1 0x20 ADD SWAP1 DUP2 MSTORE PUSH1 0x20 ADD PUSH1 0x0 KECCAK256 PUSH1 0x0 SWAP1 SLOAD SWAP1 PUSH2 0x100 EXP SWAP1 DIV PUSH1 0xFF AND ISZERO ISZERO EQ PUSH2 0xF28 JUMPI PUSH1 0x40 MLOAD PUSH32 0x8C379A000000000000000000000000000000000000000000000000000000000 DUP2 MSTORE PUSH1 0x4 ADD PUSH2 0xF1F SWAP1 PUSH2 0x2E47 JUMP JUMPDEST PUSH1 0x40 MLOAD DUP1 SWAP2 SUB SWAP1 REVERT JUMPDEST PUSH2 0xF33 DUP11 DUP11 DUP4 PUSH2 0x1AE6 JUMP JUMPDEST POP PUSH32 0xF3F16A15F074B71C5138107DFC7C63B80524D5411CB967CAA97D8D9F12B2FD6B DUP11 PUSH1 0x1 PUSH1 0x40 MLOAD PUSH2 0xF66 SWAP3 SWAP2 SWAP1 PUSH2 0x2E67 JUMP JUMPDEST PUSH1 0x40 MLOAD DUP1 SWAP2 SUB SWAP1 LOG1 POP POP POP POP POP POP POP POP POP POP JUMP JUMPDEST PUSH1 0x0 PUSH1 0x2 PUSH1 0x0 DUP4 DUP2 MSTORE PUSH1 0x20 ADD SWAP1 DUP2 MSTORE PUSH1 0x20 ADD PUSH1 0x0 KECCAK256 SWAP1 POP CALLER PUSH20 0xFFFFFFFFFFFFFFFFFFFFFFFFFFFFFFFFFFFFFFFF AND DUP2 PUSH1 0x1 ADD PUSH1 0x0 SWAP1 SLOAD SWAP1 PUSH2 0x100 EXP SWAP1 DIV PUSH20 0xFFFFFFFFFFFFFFFFFFFFFFFFFFFFFFFFFFFFFFFF AND PUSH20 0xFFFFFFFFFFFFFFFFFFFFFFFFFFFFFFFFFFFFFFFF AND EQ PUSH2 0x1023 JUMPI PUSH1 0x40 MLOAD PUSH32 0x8C379A000000000000000000000000000000000000000000000000000000000 DUP2 MSTORE PUSH1 0x4 ADD PUSH2 0x101A SWAP1 PUSH2 0x2EDC JUMP JUMPDEST PUSH1 0x40 MLOAD DUP1 SWAP2 SUB SWAP1 REVERT JUMPDEST DUP1 PUSH1 0x3 ADD PUSH1 0x8 SWAP1 SLOAD SWAP1 PUSH2 0x100 EXP SWAP1 DIV PUSH1 0xFF AND ISZERO DUP2 PUSH1 0x3 ADD PUSH1 0x8 PUSH2 0x100 EXP DUP2 SLOAD DUP2 PUSH1 0xFF MUL NOT AND SWAP1 DUP4 ISZERO ISZERO MUL OR SWAP1 SSTORE POP DUP1 PUSH1 0x3 ADD PUSH1 0x8 SWAP1 SLOAD SWAP1 PUSH2 0x100 EXP SWAP1 DIV PUSH1 0xFF AND ISZERO ISZERO PUSH32 0x7B224DB641892626DCA6975B376F464E9AC52CCFA180436175170C009B94DCD7 PUSH1 0x40 MLOAD PUSH1 0x40 MLOAD DUP1 SWAP2 SUB SWAP1 LOG2 POP POP JUMP JUMPDEST PUSH1 0x2 PUSH1 0x20 MSTORE DUP1 PUSH1 0x0 MSTORE PUSH1 0x40 PUSH1 0x0 KECCAK256 PUSH1 0x0 SWAP2 POP SWAP1 POP DUP1 PUSH1 0x0 ADD DUP1 SLOAD PUSH2 0x10B8 SWAP1 PUSH2 0x2BA1 JUMP JUMPDEST DUP1 PUSH1 0x1F ADD PUSH1 0x20 DUP1 SWAP2 DIV MUL PUSH1 0x20 ADD PUSH1 0x40 MLOAD SWAP1 DUP2 ADD PUSH1 0x40 MSTORE DUP1 SWAP3 SWAP2 SWAP1 DUP2 DUP2 MSTORE PUSH1 0x20 ADD DUP3 DUP1 SLOAD PUSH2 0x10E4 SWAP1 PUSH2 0x2BA1 JUMP JUMPDEST DUP1 ISZERO PUSH2 0x1131 JUMPI DUP1 PUSH1 0x1F LT PUSH2 0x1106 JUMPI PUSH2 0x100 DUP1 DUP4 SLOAD DIV MUL DUP4 MSTORE SWAP2 PUSH1 0x20 ADD SWAP2 PUSH2 0x1131 JUMP JUMPDEST DUP3 ADD SWAP2 SWAP1 PUSH1 0x0 MSTORE PUSH1 0x20 PUSH1 0x0 KECCAK256 SWAP1 JUMPDEST DUP2 SLOAD DUP2 MSTORE SWAP1 PUSH1 0x1 ADD SWAP1 PUSH1 0x20 ADD DUP1 DUP4 GT PUSH2 0x1114 JUMPI DUP3 SWAP1 SUB PUSH1 0x1F AND DUP3 ADD SWAP2 JUMPDEST POP POP POP POP POP SWAP1 DUP1 PUSH1 0x1 ADD PUSH1 0x0 SWAP1 SLOAD SWAP1 PUSH2 0x100 EXP SWAP1 DIV PUSH20 0xFFFFFFFFFFFFFFFFFFFFFFFFFFFFFFFFFFFFFFFF AND SWAP1 DUP1 PUSH1 0x3 ADD PUSH1 0x0 SWAP1 SLOAD SWAP1 PUSH2 0x100 EXP SWAP1 DIV PUSH4 0xFFFFFFFF AND SWAP1 DUP1 PUSH1 0x3 ADD PUSH1 0x4 SWAP1 SLOAD SWAP1 PUSH2 0x100 EXP SWAP1 DIV PUSH4 0xFFFFFFFF AND SWAP1 DUP1 PUSH1 0x3 ADD PUSH1 0x8 SWAP1 SLOAD SWAP1 PUSH2 0x100 EXP SWAP1 DIV PUSH1 0xFF AND SWAP1 POP DUP6 JUMP JUMPDEST PUSH1 0x60 PUSH1 0x0 PUSH1 0x2 PUSH1 0x0 DUP1 SLOAD DUP2 MSTORE PUSH1 0x20 ADD SWAP1 DUP2 MSTORE PUSH1 0x20 ADD PUSH1 0x0 KECCAK256 SWAP1 POP DUP4 DUP2 PUSH1 0x0 ADD SWAP1 DUP1 MLOAD SWAP1 PUSH1 0x20 ADD SWAP1 PUSH2 0x11D2 SWAP3 SWAP2 SWAP1 PUSH2 0x1C6B JUMP JUMPDEST POP CALLER DUP2 PUSH1 0x1 ADD PUSH1 0x0 PUSH2 0x100 EXP DUP2 SLOAD DUP2 PUSH20 0xFFFFFFFFFFFFFFFFFFFFFFFFFFFFFFFFFFFFFFFF MUL NOT AND SWAP1 DUP4 PUSH20 0xFFFFFFFFFFFFFFFFFFFFFFFFFFFFFFFFFFFFFFFF AND MUL OR SWAP1 SSTORE POP DUP3 DUP2 PUSH1 0x3 ADD PUSH1 0x0 PUSH2 0x100 EXP DUP2 SLOAD DUP2 PUSH4 0xFFFFFFFF MUL NOT AND SWAP1 DUP4 PUSH4 0xFFFFFFFF AND MUL OR SWAP1 SSTORE POP PUSH1 0x1 DUP2 SWAP1 DUP1 PUSH1 0x1 DUP2 SLOAD ADD DUP1 DUP3 SSTORE DUP1 SWAP2 POP POP PUSH1 0x1 SWAP1 SUB SWAP1 PUSH1 0x0 MSTORE PUSH1 0x20 PUSH1 0x0 KECCAK256 SWAP1 PUSH1 0x4 MUL ADD PUSH1 0x0 SWAP1 SWAP2 SWAP1 SWAP2 SWAP1 SWAP2 POP PUSH1 0x0 DUP3 ADD DUP2 PUSH1 0x0 ADD SWAP1 DUP1 SLOAD PUSH2 0x1279 SWAP1 PUSH2 0x2BA1 JUMP JUMPDEST PUSH2 0x1284 SWAP3 SWAP2 SWAP1 PUSH2 0x1CF1 JUMP JUMPDEST POP PUSH1 0x1 DUP3 ADD PUSH1 0x0 SWAP1 SLOAD SWAP1 PUSH2 0x100 EXP SWAP1 DIV PUSH20 0xFFFFFFFFFFFFFFFFFFFFFFFFFFFFFFFFFFFFFFFF AND DUP2 PUSH1 0x1 ADD PUSH1 0x0 PUSH2 0x100 EXP DUP2 SLOAD DUP2 PUSH20 0xFFFFFFFFFFFFFFFFFFFFFFFFFFFFFFFFFFFFFFFF MUL NOT AND SWAP1 DUP4 PUSH20 0xFFFFFFFFFFFFFFFFFFFFFFFFFFFFFFFFFFFFFFFF AND MUL OR SWAP1 SSTORE POP PUSH1 0x2 DUP3 ADD DUP2 PUSH1 0x2 ADD SWAP1 DUP1 SLOAD PUSH2 0x1302 SWAP3 SWAP2 SWAP1 PUSH2 0x1D7E JUMP JUMPDEST POP PUSH1 0x3 DUP3 ADD PUSH1 0x0 SWAP1 SLOAD SWAP1 PUSH2 0x100 EXP SWAP1 DIV PUSH4 0xFFFFFFFF AND DUP2 PUSH1 0x3 ADD PUSH1 0x0 PUSH2 0x100 EXP DUP2 SLOAD DUP2 PUSH4 0xFFFFFFFF MUL NOT AND SWAP1 DUP4 PUSH4 0xFFFFFFFF AND MUL OR SWAP1 SSTORE POP PUSH1 0x3 DUP3 ADD PUSH1 0x4 SWAP1 SLOAD SWAP1 PUSH2 0x100 EXP SWAP1 DIV PUSH4 0xFFFFFFFF AND DUP2 PUSH1 0x3 ADD PUSH1 0x4 PUSH2 0x100 EXP DUP2 SLOAD DUP2 PUSH4 0xFFFFFFFF MUL NOT AND SWAP1 DUP4 PUSH4 0xFFFFFFFF AND MUL OR SWAP1 SSTORE POP PUSH1 0x3 DUP3 ADD PUSH1 0x8 SWAP1 SLOAD SWAP1 PUSH2 0x100 EXP SWAP1 DIV PUSH1 0xFF AND DUP2 PUSH1 0x3 ADD PUSH1 0x8 PUSH2 0x100 EXP DUP2 SLOAD DUP2 PUSH1 0xFF MUL NOT AND SWAP1 DUP4 ISZERO ISZERO MUL OR SWAP1 SSTORE POP POP POP PUSH1 0x0 DUP1 DUP2 SLOAD DUP1 SWAP3 SWAP2 SWAP1 PUSH2 0x13B2 SWAP1 PUSH2 0x2B29 JUMP JUMPDEST SWAP2 SWAP1 POP SSTORE POP DUP1 PUSH1 0x1 ADD PUSH1 0x0 SWAP1 SLOAD SWAP1 PUSH2 0x100 EXP SWAP1 DIV PUSH20 0xFFFFFFFFFFFFFFFFFFFFFFFFFFFFFFFFFFFFFFFF AND PUSH20 0xFFFFFFFFFFFFFFFFFFFFFFFFFFFFFFFFFFFFFFFF AND DUP2 PUSH1 0x3 ADD PUSH1 0x0 SWAP1 SLOAD SWAP1 PUSH2 0x100 EXP SWAP1 DIV PUSH4 0xFFFFFFFF AND PUSH4 0xFFFFFFFF AND DUP6 PUSH1 0x40 MLOAD PUSH2 0x141B SWAP2 SWAP1 PUSH2 0x2F2D JUMP JUMPDEST PUSH1 0x40 MLOAD DUP1 SWAP2 SUB SWAP1 KECCAK256 PUSH32 0x4B35E5CF01446AA899A8D21082EBF23B7497D38F2466AD49836BD1006A8D059E PUSH1 0x40 MLOAD PUSH1 0x40 MLOAD DUP1 SWAP2 SUB SWAP1 LOG4 PUSH1 0x1 DUP1 SLOAD DUP1 PUSH1 0x20 MUL PUSH1 0x20 ADD PUSH1 0x40 MLOAD SWAP1 DUP2 ADD PUSH1 0x40 MSTORE DUP1 SWAP3 SWAP2 SWAP1 DUP2 DUP2 MSTORE PUSH1 0x20 ADD PUSH1 0x0 SWAP1 JUMPDEST DUP3 DUP3 LT ISZERO PUSH2 0x1680 JUMPI DUP4 DUP3 SWAP1 PUSH1 0x0 MSTORE PUSH1 0x20 PUSH1 0x0 KECCAK256 SWAP1 PUSH1 0x4 MUL ADD PUSH1 0x40 MLOAD DUP1 PUSH1 0xC0 ADD PUSH1 0x40 MSTORE SWAP1 DUP2 PUSH1 0x0 DUP3 ADD DUP1 SLOAD PUSH2 0x14A4 SWAP1 PUSH2 0x2BA1 JUMP JUMPDEST DUP1 PUSH1 0x1F ADD PUSH1 0x20 DUP1 SWAP2 DIV MUL PUSH1 0x20 ADD PUSH1 0x40 MLOAD SWAP1 DUP2 ADD PUSH1 0x40 MSTORE DUP1 SWAP3 SWAP2 SWAP1 DUP2 DUP2 MSTORE PUSH1 0x20 ADD DUP3 DUP1 SLOAD PUSH2 0x14D0 SWAP1 PUSH2 0x2BA1 JUMP JUMPDEST DUP1 ISZERO PUSH2 0x151D JUMPI DUP1 PUSH1 0x1F LT PUSH2 0x14F2 JUMPI PUSH2 0x100 DUP1 DUP4 SLOAD DIV MUL DUP4 MSTORE SWAP2 PUSH1 0x20 ADD SWAP2 PUSH2 0x151D JUMP JUMPDEST DUP3 ADD SWAP2 SWAP1 PUSH1 0x0 MSTORE PUSH1 0x20 PUSH1 0x0 KECCAK256 SWAP1 JUMPDEST DUP2 SLOAD DUP2 MSTORE SWAP1 PUSH1 0x1 ADD SWAP1 PUSH1 0x20 ADD DUP1 DUP4 GT PUSH2 0x1500 JUMPI DUP3 SWAP1 SUB PUSH1 0x1F AND DUP3 ADD SWAP2 JUMPDEST POP POP POP POP POP DUP2 MSTORE PUSH1 0x20 ADD PUSH1 0x1 DUP3 ADD PUSH1 0x0 SWAP1 SLOAD SWAP1 PUSH2 0x100 EXP SWAP1 DIV PUSH20 0xFFFFFFFFFFFFFFFFFFFFFFFFFFFFFFFFFFFFFFFF AND PUSH20 0xFFFFFFFFFFFFFFFFFFFFFFFFFFFFFFFFFFFFFFFF AND PUSH20 0xFFFFFFFFFFFFFFFFFFFFFFFFFFFFFFFFFFFFFFFF AND DUP2 MSTORE PUSH1 0x20 ADD PUSH1 0x2 DUP3 ADD DUP1 SLOAD DUP1 PUSH1 0x20 MUL PUSH1 0x20 ADD PUSH1 0x40 MLOAD SWAP1 DUP2 ADD PUSH1 0x40 MSTORE DUP1 SWAP3 SWAP2 SWAP1 DUP2 DUP2 MSTORE PUSH1 0x20 ADD DUP3 DUP1 SLOAD DUP1 ISZERO PUSH2 0x1601 JUMPI PUSH1 0x20 MUL DUP3 ADD SWAP2 SWAP1 PUSH1 0x0 MSTORE PUSH1 0x20 PUSH1 0x0 KECCAK256 SWAP1 JUMPDEST DUP2 PUSH1 0x0 SWAP1 SLOAD SWAP1 PUSH2 0x100 EXP SWAP1 DIV PUSH20 0xFFFFFFFFFFFFFFFFFFFFFFFFFFFFFFFFFFFFFFFF AND PUSH20 0xFFFFFFFFFFFFFFFFFFFFFFFFFFFFFFFFFFFFFFFF AND DUP2 MSTORE PUSH1 0x20 ADD SWAP1 PUSH1 0x1 ADD SWAP1 DUP1 DUP4 GT PUSH2 0x15B7 JUMPI JUMPDEST POP POP POP POP POP DUP2 MSTORE PUSH1 0x20 ADD PUSH1 0x3 DUP3 ADD PUSH1 0x0 SWAP1 SLOAD SWAP1 PUSH2 0x100 EXP SWAP1 DIV PUSH4 0xFFFFFFFF AND PUSH4 0xFFFFFFFF AND PUSH4 0xFFFFFFFF AND DUP2 MSTORE PUSH1 0x20 ADD PUSH1 0x3 DUP3 ADD PUSH1 0x4 SWAP1 SLOAD SWAP1 PUSH2 0x100 EXP SWAP1 DIV PUSH4 0xFFFFFFFF AND PUSH4 0xFFFFFFFF AND PUSH4 0xFFFFFFFF AND DUP2 MSTORE PUSH1 0x20 ADD PUSH1 0x3 DUP3 ADD PUSH1 0x8 SWAP1 SLOAD SWAP1 PUSH2 0x100 EXP SWAP1 DIV PUSH1 0xFF AND ISZERO ISZERO ISZERO ISZERO DUP2 MSTORE POP POP DUP2 MSTORE PUSH1 0x20 ADD SWAP1 PUSH1 0x1 ADD SWAP1 PUSH2 0x1471 JUMP JUMPDEST POP POP POP POP SWAP2 POP POP SWAP3 SWAP2 POP POP JUMP JUMPDEST PUSH1 0x60 PUSH1 0x1 DUP1 SLOAD SWAP1 POP PUSH8 0xFFFFFFFFFFFFFFFF DUP2 GT ISZERO PUSH2 0x16AE JUMPI PUSH2 0x16AD PUSH2 0x249F JUMP JUMPDEST JUMPDEST PUSH1 0x40 MLOAD SWAP1 DUP1 DUP3 MSTORE DUP1 PUSH1 0x20 MUL PUSH1 0x20 ADD DUP3 ADD PUSH1 0x40 MSTORE DUP1 ISZERO PUSH2 0x16E7 JUMPI DUP2 PUSH1 0x20 ADD JUMPDEST PUSH2 0x16D4 PUSH2 0x1C11 JUMP JUMPDEST DUP2 MSTORE PUSH1 0x20 ADD SWAP1 PUSH1 0x1 SWAP1 SUB SWAP1 DUP2 PUSH2 0x16CC JUMPI SWAP1 POP JUMPDEST POP SWAP1 POP PUSH1 0x0 JUMPDEST PUSH1 0x1 DUP1 SLOAD SWAP1 POP DUP2 GT PUSH2 0x1937 JUMPI PUSH1 0x0 PUSH1 0x2 PUSH1 0x0 DUP4 DUP1 PUSH2 0x170A SWAP1 PUSH2 0x2B29 JUMP JUMPDEST SWAP5 POP DUP2 MSTORE PUSH1 0x20 ADD SWAP1 DUP2 MSTORE PUSH1 0x20 ADD PUSH1 0x0 KECCAK256 SWAP1 POP DUP1 PUSH1 0x40 MLOAD DUP1 PUSH1 0xC0 ADD PUSH1 0x40 MSTORE SWAP1 DUP2 PUSH1 0x0 DUP3 ADD DUP1 SLOAD PUSH2 0x1738 SWAP1 PUSH2 0x2BA1 JUMP JUMPDEST DUP1 PUSH1 0x1F ADD PUSH1 0x20 DUP1 SWAP2 DIV MUL PUSH1 0x20 ADD PUSH1 0x40 MLOAD SWAP1 DUP2 ADD PUSH1 0x40 MSTORE DUP1 SWAP3 SWAP2 SWAP1 DUP2 DUP2 MSTORE PUSH1 0x20 ADD DUP3 DUP1 SLOAD PUSH2 0x1764 SWAP1 PUSH2 0x2BA1 JUMP JUMPDEST DUP1 ISZERO PUSH2 0x17B1 JUMPI DUP1 PUSH1 0x1F LT PUSH2 0x1786 JUMPI PUSH2 0x100 DUP1 DUP4 SLOAD DIV MUL DUP4 MSTORE SWAP2 PUSH1 0x20 ADD SWAP2 PUSH2 0x17B1 JUMP JUMPDEST DUP3 ADD SWAP2 SWAP1 PUSH1 0x0 MSTORE PUSH1 0x20 PUSH1 0x0 KECCAK256 SWAP1 JUMPDEST DUP2 SLOAD DUP2 MSTORE SWAP1 PUSH1 0x1 ADD SWAP1 PUSH1 0x20 ADD DUP1 DUP4 GT PUSH2 0x1794 JUMPI DUP3 SWAP1 SUB PUSH1 0x1F AND DUP3 ADD SWAP2 JUMPDEST POP POP POP POP POP DUP2 MSTORE PUSH1 0x20 ADD PUSH1 0x1 DUP3 ADD PUSH1 0x0 SWAP1 SLOAD SWAP1 PUSH2 0x100 EXP SWAP1 DIV PUSH20 0xFFFFFFFFFFFFFFFFFFFFFFFFFFFFFFFFFFFFFFFF AND PUSH20 0xFFFFFFFFFFFFFFFFFFFFFFFFFFFFFFFFFFFFFFFF AND PUSH20 0xFFFFFFFFFFFFFFFFFFFFFFFFFFFFFFFFFFFFFFFF AND DUP2 MSTORE PUSH1 0x20 ADD PUSH1 0x2 DUP3 ADD DUP1 SLOAD DUP1 PUSH1 0x20 MUL PUSH1 0x20 ADD PUSH1 0x40 MLOAD SWAP1 DUP2 ADD PUSH1 0x40 MSTORE DUP1 SWAP3 SWAP2 SWAP1 DUP2 DUP2 MSTORE PUSH1 0x20 ADD DUP3 DUP1 SLOAD DUP1 ISZERO PUSH2 0x1895 JUMPI PUSH1 0x20 MUL DUP3 ADD SWAP2 SWAP1 PUSH1 0x0 MSTORE PUSH1 0x20 PUSH1 0x0 KECCAK256 SWAP1 JUMPDEST DUP2 PUSH1 0x0 SWAP1 SLOAD SWAP1 PUSH2 0x100 EXP SWAP1 DIV PUSH20 0xFFFFFFFFFFFFFFFFFFFFFFFFFFFFFFFFFFFFFFFF AND PUSH20 0xFFFFFFFFFFFFFFFFFFFFFFFFFFFFFFFFFFFFFFFF AND DUP2 MSTORE PUSH1 0x20 ADD SWAP1 PUSH1 0x1 ADD SWAP1 DUP1 DUP4 GT PUSH2 0x184B JUMPI JUMPDEST POP POP POP POP POP DUP2 MSTORE PUSH1 0x20 ADD PUSH1 0x3 DUP3 ADD PUSH1 0x0 SWAP1 SLOAD SWAP1 PUSH2 0x100 EXP SWAP1 DIV PUSH4 0xFFFFFFFF AND PUSH4 0xFFFFFFFF AND PUSH4 0xFFFFFFFF AND DUP2 MSTORE PUSH1 0x20 ADD PUSH1 0x3 DUP3 ADD PUSH1 0x4 SWAP1 SLOAD SWAP1 PUSH2 0x100 EXP SWAP1 DIV PUSH4 0xFFFFFFFF AND PUSH4 0xFFFFFFFF AND PUSH4 0xFFFFFFFF AND DUP2 MSTORE PUSH1 0x20 ADD PUSH1 0x3 DUP3 ADD PUSH1 0x8 SWAP1 SLOAD SWAP1 PUSH2 0x100 EXP SWAP1 DIV PUSH1 0xFF AND ISZERO ISZERO ISZERO ISZERO DUP2 MSTORE POP POP DUP4 DUP4 DUP2 MLOAD DUP2 LT PUSH2 0x1918 JUMPI PUSH2 0x1917 PUSH2 0x2AFA JUMP JUMPDEST JUMPDEST PUSH1 0x20 MUL PUSH1 0x20 ADD ADD DUP2 SWAP1 MSTORE POP POP DUP1 DUP1 PUSH2 0x192F SWAP1 PUSH2 0x2B29 JUMP JUMPDEST SWAP2 POP POP PUSH2 0x16ED JUMP JUMPDEST POP SWAP1 JUMP JUMPDEST PUSH1 0x0 DUP1 PUSH1 0x2 PUSH1 0x0 DUP6 DUP2 MSTORE PUSH1 0x20 ADD SWAP1 DUP2 MSTORE PUSH1 0x20 ADD PUSH1 0x0 KECCAK256 SWAP1 POP PUSH1 0x5 PUSH1 0x0 DUP6 DUP2 MSTORE PUSH1 0x20 ADD SWAP1 DUP2 MSTORE PUSH1 0x20 ADD PUSH1 0x0 KECCAK256 PUSH1 0x0 DUP3 PUSH1 0x2 ADD DUP6 DUP2 SLOAD DUP2 LT PUSH2 0x197E JUMPI PUSH2 0x197D PUSH2 0x2AFA JUMP JUMPDEST JUMPDEST SWAP1 PUSH1 0x0 MSTORE PUSH1 0x20 PUSH1 0x0 KECCAK256 ADD PUSH1 0x0 SWAP1 SLOAD SWAP1 PUSH2 0x100 EXP SWAP1 DIV PUSH20 0xFFFFFFFFFFFFFFFFFFFFFFFFFFFFFFFFFFFFFFFF AND PUSH20 0xFFFFFFFFFFFFFFFFFFFFFFFFFFFFFFFFFFFFFFFF AND PUSH20 0xFFFFFFFFFFFFFFFFFFFFFFFFFFFFFFFFFFFFFFFF AND DUP2 MSTORE PUSH1 0x20 ADD SWAP1 DUP2 MSTORE PUSH1 0x20 ADD PUSH1 0x0 KECCAK256 SLOAD SWAP2 POP POP SWAP3 SWAP2 POP POP JUMP JUMPDEST PUSH1 0x0 DUP1 PUSH1 0x0 DUP1 PUSH1 0x41 DUP6 MLOAD EQ PUSH2 0x1A08 JUMPI PUSH1 0x0 SWAP4 POP POP POP POP PUSH2 0x1AE0 JUMP JUMPDEST PUSH1 0x20 DUP6 ADD MLOAD SWAP3 POP PUSH1 0x40 DUP6 ADD MLOAD SWAP2 POP PUSH1 0x60 DUP6 ADD MLOAD PUSH1 0x0 BYTE SWAP1 POP PUSH1 0x1B DUP2 PUSH1 0xFF AND LT ISZERO PUSH2 0x1A3C JUMPI PUSH1 0x1B DUP2 PUSH2 0x1A39 SWAP2 SWAP1 PUSH2 0x2F51 JUMP JUMPDEST SWAP1 POP JUMPDEST PUSH1 0x1B DUP2 PUSH1 0xFF AND EQ ISZERO DUP1 ISZERO PUSH2 0x1A54 JUMPI POP PUSH1 0x1C DUP2 PUSH1 0xFF AND EQ ISZERO JUMPDEST ISZERO PUSH2 0x1A65 JUMPI PUSH1 0x0 SWAP4 POP POP POP POP PUSH2 0x1AE0 JUMP JUMPDEST PUSH1 0x1 DUP7 PUSH1 0x40 MLOAD PUSH1 0x20 ADD PUSH2 0x1A78 SWAP2 SWAP1 PUSH2 0x2FF5 JUMP JUMPDEST PUSH1 0x40 MLOAD PUSH1 0x20 DUP2 DUP4 SUB SUB DUP2 MSTORE SWAP1 PUSH1 0x40 MSTORE DUP1 MLOAD SWAP1 PUSH1 0x20 ADD KECCAK256 DUP3 DUP6 DUP6 PUSH1 0x40 MLOAD PUSH1 0x0 DUP2 MSTORE PUSH1 0x20 ADD PUSH1 0x40 MSTORE PUSH1 0x40 MLOAD PUSH2 0x1AAE SWAP5 SWAP4 SWAP3 SWAP2 SWAP1 PUSH2 0x302A JUMP JUMPDEST PUSH1 0x20 PUSH1 0x40 MLOAD PUSH1 0x20 DUP2 SUB SWAP1 DUP1 DUP5 SUB SWAP1 DUP6 GAS STATICCALL ISZERO DUP1 ISZERO PUSH2 0x1AD0 JUMPI RETURNDATASIZE PUSH1 0x0 DUP1 RETURNDATACOPY RETURNDATASIZE PUSH1 0x0 REVERT JUMPDEST POP POP POP PUSH1 0x20 PUSH1 0x40 MLOAD SUB MLOAD SWAP4 POP POP POP POP JUMPDEST SWAP3 SWAP2 POP POP JUMP JUMPDEST PUSH1 0x0 PUSH1 0x1 PUSH1 0x6 PUSH1 0x0 DUP6 DUP2 MSTORE PUSH1 0x20 ADD SWAP1 DUP2 MSTORE PUSH1 0x20 ADD PUSH1 0x0 KECCAK256 PUSH1 0x0 DUP5 PUSH20 0xFFFFFFFFFFFFFFFFFFFFFFFFFFFFFFFFFFFFFFFF AND PUSH20 0xFFFFFFFFFFFFFFFFFFFFFFFFFFFFFFFFFFFFFFFF AND DUP2 MSTORE PUSH1 0x20 ADD SWAP1 DUP2 MSTORE PUSH1 0x20 ADD PUSH1 0x0 KECCAK256 PUSH1 0x0 PUSH2 0x100 EXP DUP2 SLOAD DUP2 PUSH1 0xFF MUL NOT AND SWAP1 DUP4 ISZERO ISZERO MUL OR SWAP1 SSTORE POP PUSH1 0x5 PUSH1 0x0 DUP5 DUP2 MSTORE PUSH1 0x20 ADD SWAP1 DUP2 MSTORE PUSH1 0x20 ADD PUSH1 0x0 KECCAK256 PUSH1 0x0 DUP6 PUSH20 0xFFFFFFFFFFFFFFFFFFFFFFFFFFFFFFFFFFFFFFFF AND PUSH20 0xFFFFFFFFFFFFFFFFFFFFFFFFFFFFFFFFFFFFFFFF AND DUP2 MSTORE PUSH1 0x20 ADD SWAP1 DUP2 MSTORE PUSH1 0x20 ADD PUSH1 0x0 KECCAK256 PUSH1 0x0 DUP2 SLOAD DUP1 SWAP3 SWAP2 SWAP1 PUSH2 0x1BB2 SWAP1 PUSH2 0x2B29 JUMP JUMPDEST SWAP2 SWAP1 POP SSTORE POP PUSH1 0x5 PUSH1 0x0 DUP5 DUP2 MSTORE PUSH1 0x20 ADD SWAP1 DUP2 MSTORE PUSH1 0x20 ADD PUSH1 0x0 KECCAK256 PUSH1 0x0 DUP6 PUSH20 0xFFFFFFFFFFFFFFFFFFFFFFFFFFFFFFFFFFFFFFFF AND PUSH20 0xFFFFFFFFFFFFFFFFFFFFFFFFFFFFFFFFFFFFFFFF AND DUP2 MSTORE PUSH1 0x20 ADD SWAP1 DUP2 MSTORE PUSH1 0x20 ADD PUSH1 0x0 KECCAK256 SLOAD SWAP1 POP SWAP4 SWAP3 POP POP POP JUMP JUMPDEST PUSH1 0x40 MLOAD DUP1 PUSH1 0xC0 ADD PUSH1 0x40 MSTORE DUP1 PUSH1 0x60 DUP2 MSTORE PUSH1 0x20 ADD PUSH1 0x0 PUSH20 0xFFFFFFFFFFFFFFFFFFFFFFFFFFFFFFFFFFFFFFFF AND DUP2 MSTORE PUSH1 0x20 ADD PUSH1 0x60 DUP2 MSTORE PUSH1 0x20 ADD PUSH1 0x0 PUSH4 0xFFFFFFFF AND DUP2 MSTORE PUSH1 0x20 ADD PUSH1 0x0 PUSH4 0xFFFFFFFF AND DUP2 MSTORE PUSH1 0x20 ADD PUSH1 0x0 ISZERO ISZERO DUP2 MSTORE POP SWAP1 JUMP JUMPDEST DUP3 DUP1 SLOAD PUSH2 0x1C77 SWAP1 PUSH2 0x2BA1 JUMP JUMPDEST SWAP1 PUSH1 0x0 MSTORE PUSH1 0x20 PUSH1 0x0 KECCAK256 SWAP1 PUSH1 0x1F ADD PUSH1 0x20 SWAP1 DIV DUP2 ADD SWAP3 DUP3 PUSH2 0x1C99 JUMPI PUSH1 0x0 DUP6 SSTORE PUSH2 0x1CE0 JUMP JUMPDEST DUP3 PUSH1 0x1F LT PUSH2 0x1CB2 JUMPI DUP1 MLOAD PUSH1 0xFF NOT AND DUP4 DUP1 ADD OR DUP6 SSTORE PUSH2 0x1CE0 JUMP JUMPDEST DUP3 DUP1 ADD PUSH1 0x1 ADD DUP6 SSTORE DUP3 ISZERO PUSH2 0x1CE0 JUMPI SWAP2 DUP3 ADD JUMPDEST DUP3 DUP2 GT ISZERO PUSH2 0x1CDF JUMPI DUP3 MLOAD DUP3 SSTORE SWAP2 PUSH1 0x20 ADD SWAP2 SWAP1 PUSH1 0x1 ADD SWAP1 PUSH2 0x1CC4 JUMP JUMPDEST JUMPDEST POP SWAP1 POP PUSH2 0x1CED SWAP2 SWAP1 PUSH2 0x1DD0 JUMP JUMPDEST POP SWAP1 JUMP JUMPDEST DUP3 DUP1 SLOAD PUSH2 0x1CFD SWAP1 PUSH2 0x2BA1 JUMP JUMPDEST SWAP1 PUSH1 0x0 MSTORE PUSH1 0x20 PUSH1 0x0 KECCAK256 SWAP1 PUSH1 0x1F ADD PUSH1 0x20 SWAP1 DIV DUP2 ADD SWAP3 DUP3 PUSH2 0x1D1F JUMPI PUSH1 0x0 DUP6 SSTORE PUSH2 0x1D6D JUMP JUMPDEST DUP3 PUSH1 0x1F LT PUSH2 0x1D30 JUMPI DUP1 SLOAD DUP6 SSTORE PUSH2 0x1D6D JUMP JUMPDEST DUP3 DUP1 ADD PUSH1 0x1 ADD DUP6 SSTORE DUP3 ISZERO PUSH2 0x1D6D JUMPI PUSH1 0x0 MSTORE PUSH1 0x20 PUSH1 0x0 KECCAK256 SWAP2 PUSH1 0x1F ADD PUSH1 0x20 SWAP1 DIV DUP3 ADD JUMPDEST DUP3 DUP2 GT ISZERO PUSH2 0x1D6C JUMPI DUP3 SLOAD DUP3 SSTORE SWAP2 PUSH1 0x1 ADD SWAP2 SWAP1 PUSH1 0x1 ADD SWAP1 PUSH2 0x1D51 JUMP JUMPDEST JUMPDEST POP SWAP1 POP PUSH2 0x1D7A SWAP2 SWAP1 PUSH2 0x1DD0 JUMP JUMPDEST POP SWAP1 JUMP JUMPDEST DUP3 DUP1 SLOAD DUP3 DUP3 SSTORE SWAP1 PUSH1 0x0 MSTORE PUSH1 0x20 PUSH1 0x0 KECCAK256 SWAP1 DUP2 ADD SWAP3 DUP3 ISZERO PUSH2 0x1DBF JUMPI PUSH1 0x0 MSTORE PUSH1 0x20 PUSH1 0x0 KECCAK256 SWAP2 DUP3 ADD JUMPDEST DUP3 DUP2 GT ISZERO PUSH2 0x1DBE JUMPI DUP3 SLOAD DUP3 SSTORE SWAP2 PUSH1 0x1 ADD SWAP2 SWAP1 PUSH1 0x1 ADD SWAP1 PUSH2 0x1DA3 JUMP JUMPDEST JUMPDEST POP SWAP1 POP PUSH2 0x1DCC SWAP2 SWAP1 PUSH2 0x1DD0 JUMP JUMPDEST POP SWAP1 JUMP JUMPDEST JUMPDEST DUP1 DUP3 GT ISZERO PUSH2 0x1DE9 JUMPI PUSH1 0x0 DUP2 PUSH1 0x0 SWAP1 SSTORE POP PUSH1 0x1 ADD PUSH2 0x1DD1 JUMP JUMPDEST POP SWAP1 JUMP JUMPDEST PUSH1 0x0 PUSH1 0x40 MLOAD SWAP1 POP SWAP1 JUMP JUMPDEST PUSH1 0x0 DUP1 REVERT JUMPDEST PUSH1 0x0 DUP1 REVERT JUMPDEST PUSH1 0x0 PUSH20 0xFFFFFFFFFFFFFFFFFFFFFFFFFFFFFFFFFFFFFFFF DUP3 AND SWAP1 POP SWAP2 SWAP1 POP JUMP JUMPDEST PUSH1 0x0 PUSH2 0x1E2C DUP3 PUSH2 0x1E01 JUMP JUMPDEST SWAP1 POP SWAP2 SWAP1 POP JUMP JUMPDEST PUSH2 0x1E3C DUP2 PUSH2 0x1E21 JUMP JUMPDEST DUP2 EQ PUSH2 0x1E47 JUMPI PUSH1 0x0 DUP1 REVERT JUMPDEST POP JUMP JUMPDEST PUSH1 0x0 DUP2 CALLDATALOAD SWAP1 POP PUSH2 0x1E59 DUP2 PUSH2 0x1E33 JUMP JUMPDEST SWAP3 SWAP2 POP POP JUMP JUMPDEST PUSH1 0x0 DUP2 SWAP1 POP SWAP2 SWAP1 POP JUMP JUMPDEST PUSH2 0x1E72 DUP2 PUSH2 0x1E5F JUMP JUMPDEST DUP2 EQ PUSH2 0x1E7D JUMPI PUSH1 0x0 DUP1 REVERT JUMPDEST POP JUMP JUMPDEST PUSH1 0x0 DUP2 CALLDATALOAD SWAP1 POP PUSH2 0x1E8F DUP2 PUSH2 0x1E69 JUMP JUMPDEST SWAP3 SWAP2 POP POP JUMP JUMPDEST PUSH1 0x0 DUP1 PUSH1 0x40 DUP4 DUP6 SUB SLT ISZERO PUSH2 0x1EAC JUMPI PUSH2 0x1EAB PUSH2 0x1DF7 JUMP JUMPDEST JUMPDEST PUSH1 0x0 PUSH2 0x1EBA DUP6 DUP3 DUP7 ADD PUSH2 0x1E4A JUMP JUMPDEST SWAP3 POP POP PUSH1 0x20 PUSH2 0x1ECB DUP6 DUP3 DUP7 ADD PUSH2 0x1E80 JUMP JUMPDEST SWAP2 POP POP SWAP3 POP SWAP3 SWAP1 POP JUMP JUMPDEST PUSH1 0x0 PUSH1 0x20 DUP3 DUP5 SUB SLT ISZERO PUSH2 0x1EEB JUMPI PUSH2 0x1EEA PUSH2 0x1DF7 JUMP JUMPDEST JUMPDEST PUSH1 0x0 PUSH2 0x1EF9 DUP5 DUP3 DUP6 ADD PUSH2 0x1E80 JUMP JUMPDEST SWAP2 POP POP SWAP3 SWAP2 POP POP JUMP JUMPDEST PUSH2 0x1F0B DUP2 PUSH2 0x1E5F JUMP JUMPDEST DUP3 MSTORE POP POP JUMP JUMPDEST PUSH1 0x0 PUSH1 0x20 DUP3 ADD SWAP1 POP PUSH2 0x1F26 PUSH1 0x0 DUP4 ADD DUP5 PUSH2 0x1F02 JUMP JUMPDEST SWAP3 SWAP2 POP POP JUMP JUMPDEST PUSH1 0x0 PUSH1 0x20 DUP3 DUP5 SUB SLT ISZERO PUSH2 0x1F42 JUMPI PUSH2 0x1F41 PUSH2 0x1DF7 JUMP JUMPDEST JUMPDEST PUSH1 0x0 PUSH2 0x1F50 DUP5 DUP3 DUP6 ADD PUSH2 0x1E4A JUMP JUMPDEST SWAP2 POP POP SWAP3 SWAP2 POP POP JUMP JUMPDEST PUSH1 0x0 DUP2 MLOAD SWAP1 POP SWAP2 SWAP1 POP JUMP JUMPDEST PUSH1 0x0 DUP3 DUP3 MSTORE PUSH1 0x20 DUP3 ADD SWAP1 POP SWAP3 SWAP2 POP POP JUMP JUMPDEST PUSH1 0x0 DUP2 SWAP1 POP PUSH1 0x20 DUP3 ADD SWAP1 POP SWAP2 SWAP1 POP JUMP JUMPDEST PUSH2 0x1F8E DUP2 PUSH2 0x1E21 JUMP JUMPDEST DUP3 MSTORE POP POP JUMP JUMPDEST PUSH1 0x0 PUSH2 0x1FA0 DUP4 DUP4 PUSH2 0x1F85 JUMP JUMPDEST PUSH1 0x20 DUP4 ADD SWAP1 POP SWAP3 SWAP2 POP POP JUMP JUMPDEST PUSH1 0x0 PUSH1 0x20 DUP3 ADD SWAP1 POP SWAP2 SWAP1 POP JUMP JUMPDEST PUSH1 0x0 PUSH2 0x1FC4 DUP3 PUSH2 0x1F59 JUMP JUMPDEST PUSH2 0x1FCE DUP2 DUP6 PUSH2 0x1F64 JUMP JUMPDEST SWAP4 POP PUSH2 0x1FD9 DUP4 PUSH2 0x1F75 JUMP JUMPDEST DUP1 PUSH1 0x0 JUMPDEST DUP4 DUP2 LT ISZERO PUSH2 0x200A JUMPI DUP2 MLOAD PUSH2 0x1FF1 DUP9 DUP3 PUSH2 0x1F94 JUMP JUMPDEST SWAP8 POP PUSH2 0x1FFC DUP4 PUSH2 0x1FAC JUMP JUMPDEST SWAP3 POP POP PUSH1 0x1 DUP2 ADD SWAP1 POP PUSH2 0x1FDD JUMP JUMPDEST POP DUP6 SWAP4 POP POP POP POP SWAP3 SWAP2 POP POP JUMP JUMPDEST PUSH1 0x0 PUSH1 0x20 DUP3 ADD SWAP1 POP DUP2 DUP2 SUB PUSH1 0x0 DUP4 ADD MSTORE PUSH2 0x2031 DUP2 DUP5 PUSH2 0x1FB9 JUMP JUMPDEST SWAP1 POP SWAP3 SWAP2 POP POP JUMP JUMPDEST PUSH1 0x0 DUP2 MLOAD SWAP1 POP SWAP2 SWAP1 POP JUMP JUMPDEST PUSH1 0x0 DUP3 DUP3 MSTORE PUSH1 0x20 DUP3 ADD SWAP1 POP SWAP3 SWAP2 POP POP JUMP JUMPDEST PUSH1 0x0 DUP2 SWAP1 POP PUSH1 0x20 DUP3 ADD SWAP1 POP SWAP2 SWAP1 POP JUMP JUMPDEST PUSH2 0x206E DUP2 PUSH2 0x1E5F JUMP JUMPDEST DUP3 MSTORE POP POP JUMP JUMPDEST PUSH1 0x0 PUSH2 0x2080 DUP4 DUP4 PUSH2 0x2065 JUMP JUMPDEST PUSH1 0x20 DUP4 ADD SWAP1 POP SWAP3 SWAP2 POP POP JUMP JUMPDEST PUSH1 0x0 PUSH1 0x20 DUP3 ADD SWAP1 POP SWAP2 SWAP1 POP JUMP JUMPDEST PUSH1 0x0 PUSH2 0x20A4 DUP3 PUSH2 0x2039 JUMP JUMPDEST PUSH2 0x20AE DUP2 DUP6 PUSH2 0x2044 JUMP JUMPDEST SWAP4 POP PUSH2 0x20B9 DUP4 PUSH2 0x2055 JUMP JUMPDEST DUP1 PUSH1 0x0 JUMPDEST DUP4 DUP2 LT ISZERO PUSH2 0x20EA JUMPI DUP2 MLOAD PUSH2 0x20D1 DUP9 DUP3 PUSH2 0x2074 JUMP JUMPDEST SWAP8 POP PUSH2 0x20DC DUP4 PUSH2 0x208C JUMP JUMPDEST SWAP3 POP POP PUSH1 0x1 DUP2 ADD SWAP1 POP PUSH2 0x20BD JUMP JUMPDEST POP DUP6 SWAP4 POP POP POP POP SWAP3 SWAP2 POP POP JUMP JUMPDEST PUSH2 0x2100 DUP2 PUSH2 0x1E21 JUMP JUMPDEST DUP3 MSTORE POP POP JUMP JUMPDEST PUSH1 0x0 PUSH1 0x60 DUP3 ADD SWAP1 POP DUP2 DUP2 SUB PUSH1 0x0 DUP4 ADD MSTORE PUSH2 0x2120 DUP2 DUP7 PUSH2 0x2099 JUMP JUMPDEST SWAP1 POP PUSH2 0x212F PUSH1 0x20 DUP4 ADD DUP6 PUSH2 0x20F7 JUMP JUMPDEST PUSH2 0x213C PUSH1 0x40 DUP4 ADD DUP5 PUSH2 0x1F02 JUMP JUMPDEST SWAP5 SWAP4 POP POP POP POP JUMP JUMPDEST PUSH1 0x0 DUP2 MLOAD SWAP1 POP SWAP2 SWAP1 POP JUMP JUMPDEST PUSH1 0x0 DUP3 DUP3 MSTORE PUSH1 0x20 DUP3 ADD SWAP1 POP SWAP3 SWAP2 POP POP JUMP JUMPDEST PUSH1 0x0 JUMPDEST DUP4 DUP2 LT ISZERO PUSH2 0x217E JUMPI DUP1 DUP3 ADD MLOAD DUP2 DUP5 ADD MSTORE PUSH1 0x20 DUP2 ADD SWAP1 POP PUSH2 0x2163 JUMP JUMPDEST DUP4 DUP2 GT ISZERO PUSH2 0x218D JUMPI PUSH1 0x0 DUP5 DUP5 ADD MSTORE JUMPDEST POP POP POP POP JUMP JUMPDEST PUSH1 0x0 PUSH1 0x1F NOT PUSH1 0x1F DUP4 ADD AND SWAP1 POP SWAP2 SWAP1 POP JUMP JUMPDEST PUSH1 0x0 PUSH2 0x21AF DUP3 PUSH2 0x2144 JUMP JUMPDEST PUSH2 0x21B9 DUP2 DUP6 PUSH2 0x214F JUMP JUMPDEST SWAP4 POP PUSH2 0x21C9 DUP2 DUP6 PUSH1 0x20 DUP7 ADD PUSH2 0x2160 JUMP JUMPDEST PUSH2 0x21D2 DUP2 PUSH2 0x2193 JUMP JUMPDEST DUP5 ADD SWAP2 POP POP SWAP3 SWAP2 POP POP JUMP JUMPDEST PUSH1 0x0 PUSH4 0xFFFFFFFF DUP3 AND SWAP1 POP SWAP2 SWAP1 POP JUMP JUMPDEST PUSH2 0x21F6 DUP2 PUSH2 0x21DD JUMP JUMPDEST DUP3 MSTORE POP POP JUMP JUMPDEST PUSH1 0x0 DUP2 ISZERO ISZERO SWAP1 POP SWAP2 SWAP1 POP JUMP JUMPDEST PUSH2 0x2211 DUP2 PUSH2 0x21FC JUMP JUMPDEST DUP3 MSTORE POP POP JUMP JUMPDEST PUSH1 0x0 PUSH1 0xA0 DUP3 ADD SWAP1 POP DUP2 DUP2 SUB PUSH1 0x0 DUP4 ADD MSTORE PUSH2 0x2231 DUP2 DUP9 PUSH2 0x21A4 JUMP JUMPDEST SWAP1 POP PUSH2 0x2240 PUSH1 0x20 DUP4 ADD DUP8 PUSH2 0x20F7 JUMP JUMPDEST PUSH2 0x224D PUSH1 0x40 DUP4 ADD DUP7 PUSH2 0x21ED JUMP JUMPDEST PUSH2 0x225A PUSH1 0x60 DUP4 ADD DUP6 PUSH2 0x21ED JUMP JUMPDEST PUSH2 0x2267 PUSH1 0x80 DUP4 ADD DUP5 PUSH2 0x2208 JUMP JUMPDEST SWAP7 SWAP6 POP POP POP POP POP POP JUMP JUMPDEST PUSH1 0x0 DUP3 DUP3 MSTORE PUSH1 0x20 DUP3 ADD SWAP1 POP SWAP3 SWAP2 POP POP JUMP JUMPDEST PUSH1 0x0 PUSH2 0x228D DUP3 PUSH2 0x2144 JUMP JUMPDEST PUSH2 0x2297 DUP2 DUP6 PUSH2 0x2271 JUMP JUMPDEST SWAP4 POP PUSH2 0x22A7 DUP2 DUP6 PUSH1 0x20 DUP7 ADD PUSH2 0x2160 JUMP JUMPDEST PUSH2 0x22B0 DUP2 PUSH2 0x2193 JUMP JUMPDEST DUP5 ADD SWAP2 POP POP SWAP3 SWAP2 POP POP JUMP JUMPDEST PUSH1 0x0 DUP3 DUP3 MSTORE PUSH1 0x20 DUP3 ADD SWAP1 POP SWAP3 SWAP2 POP POP JUMP JUMPDEST PUSH1 0x0 PUSH2 0x22D7 DUP3 PUSH2 0x1F59 JUMP JUMPDEST PUSH2 0x22E1 DUP2 DUP6 PUSH2 0x22BB JUMP JUMPDEST SWAP4 POP PUSH2 0x22EC DUP4 PUSH2 0x1F75 JUMP JUMPDEST DUP1 PUSH1 0x0 JUMPDEST DUP4 DUP2 LT ISZERO PUSH2 0x231D JUMPI DUP2 MLOAD PUSH2 0x2304 DUP9 DUP3 PUSH2 0x1F94 JUMP JUMPDEST SWAP8 POP PUSH2 0x230F DUP4 PUSH2 0x1FAC JUMP JUMPDEST SWAP3 POP POP PUSH1 0x1 DUP2 ADD SWAP1 POP PUSH2 0x22F0 JUMP JUMPDEST POP DUP6 SWAP4 POP POP POP POP SWAP3 SWAP2 POP POP JUMP JUMPDEST PUSH2 0x2333 DUP2 PUSH2 0x21DD JUMP JUMPDEST DUP3 MSTORE POP POP JUMP JUMPDEST PUSH2 0x2342 DUP2 PUSH2 0x21FC JUMP JUMPDEST DUP3 MSTORE POP POP JUMP JUMPDEST PUSH1 0x0 PUSH1 0xC0 DUP4 ADD PUSH1 0x0 DUP4 ADD MLOAD DUP5 DUP3 SUB PUSH1 0x0 DUP7 ADD MSTORE PUSH2 0x2365 DUP3 DUP3 PUSH2 0x2282 JUMP JUMPDEST SWAP2 POP POP PUSH1 0x20 DUP4 ADD MLOAD PUSH2 0x237A PUSH1 0x20 DUP7 ADD DUP3 PUSH2 0x1F85 JUMP JUMPDEST POP PUSH1 0x40 DUP4 ADD MLOAD DUP5 DUP3 SUB PUSH1 0x40 DUP7 ADD MSTORE PUSH2 0x2392 DUP3 DUP3 PUSH2 0x22CC JUMP JUMPDEST SWAP2 POP POP PUSH1 0x60 DUP4 ADD MLOAD PUSH2 0x23A7 PUSH1 0x60 DUP7 ADD DUP3 PUSH2 0x232A JUMP JUMPDEST POP PUSH1 0x80 DUP4 ADD MLOAD PUSH2 0x23BA PUSH1 0x80 DUP7 ADD DUP3 PUSH2 0x232A JUMP JUMPDEST POP PUSH1 0xA0 DUP4 ADD MLOAD PUSH2 0x23CD PUSH1 0xA0 DUP7 ADD DUP3 PUSH2 0x2339 JUMP JUMPDEST POP DUP1 SWAP2 POP POP SWAP3 SWAP2 POP POP JUMP JUMPDEST PUSH1 0x0 PUSH1 0x20 DUP3 ADD SWAP1 POP DUP2 DUP2 SUB PUSH1 0x0 DUP4 ADD MSTORE PUSH2 0x23F2 DUP2 DUP5 PUSH2 0x2348 JUMP JUMPDEST SWAP1 POP SWAP3 SWAP2 POP POP JUMP JUMPDEST PUSH1 0x0 DUP1 PUSH1 0x0 DUP1 PUSH1 0x80 DUP6 DUP8 SUB SLT ISZERO PUSH2 0x2414 JUMPI PUSH2 0x2413 PUSH2 0x1DF7 JUMP JUMPDEST JUMPDEST PUSH1 0x0 PUSH2 0x2422 DUP8 DUP3 DUP9 ADD PUSH2 0x1E4A JUMP JUMPDEST SWAP5 POP POP PUSH1 0x20 PUSH2 0x2433 DUP8 DUP3 DUP9 ADD PUSH2 0x1E80 JUMP JUMPDEST SWAP4 POP POP PUSH1 0x40 PUSH2 0x2444 DUP8 DUP3 DUP9 ADD PUSH2 0x1E80 JUMP JUMPDEST SWAP3 POP POP PUSH1 0x60 PUSH2 0x2455 DUP8 DUP3 DUP9 ADD PUSH2 0x1E80 JUMP JUMPDEST SWAP2 POP POP SWAP3 SWAP6 SWAP2 SWAP5 POP SWAP3 POP JUMP JUMPDEST PUSH1 0x0 DUP2 SWAP1 POP SWAP2 SWAP1 POP JUMP JUMPDEST PUSH2 0x2474 DUP2 PUSH2 0x2461 JUMP JUMPDEST DUP3 MSTORE POP POP JUMP JUMPDEST PUSH1 0x0 PUSH1 0x20 DUP3 ADD SWAP1 POP PUSH2 0x248F PUSH1 0x0 DUP4 ADD DUP5 PUSH2 0x246B JUMP JUMPDEST SWAP3 SWAP2 POP POP JUMP JUMPDEST PUSH1 0x0 DUP1 REVERT JUMPDEST PUSH1 0x0 DUP1 REVERT JUMPDEST PUSH32 0x4E487B7100000000000000000000000000000000000000000000000000000000 PUSH1 0x0 MSTORE PUSH1 0x41 PUSH1 0x4 MSTORE PUSH1 0x24 PUSH1 0x0 REVERT JUMPDEST PUSH2 0x24D7 DUP3 PUSH2 0x2193 JUMP JUMPDEST DUP2 ADD DUP2 DUP2 LT PUSH8 0xFFFFFFFFFFFFFFFF DUP3 GT OR ISZERO PUSH2 0x24F6 JUMPI PUSH2 0x24F5 PUSH2 0x249F JUMP JUMPDEST JUMPDEST DUP1 PUSH1 0x40 MSTORE POP POP POP JUMP JUMPDEST PUSH1 0x0 PUSH2 0x2509 PUSH2 0x1DED JUMP JUMPDEST SWAP1 POP PUSH2 0x2515 DUP3 DUP3 PUSH2 0x24CE JUMP JUMPDEST SWAP2 SWAP1 POP JUMP JUMPDEST PUSH1 0x0 PUSH8 0xFFFFFFFFFFFFFFFF DUP3 GT ISZERO PUSH2 0x2535 JUMPI PUSH2 0x2534 PUSH2 0x249F JUMP JUMPDEST JUMPDEST PUSH2 0x253E DUP3 PUSH2 0x2193 JUMP JUMPDEST SWAP1 POP PUSH1 0x20 DUP2 ADD SWAP1 POP SWAP2 SWAP1 POP JUMP JUMPDEST DUP3 DUP2 DUP4 CALLDATACOPY PUSH1 0x0 DUP4 DUP4 ADD MSTORE POP POP POP JUMP JUMPDEST PUSH1 0x0 PUSH2 0x256D PUSH2 0x2568 DUP5 PUSH2 0x251A JUMP JUMPDEST PUSH2 0x24FF JUMP JUMPDEST SWAP1 POP DUP3 DUP2 MSTORE PUSH1 0x20 DUP2 ADD DUP5 DUP5 DUP5 ADD GT ISZERO PUSH2 0x2589 JUMPI PUSH2 0x2588 PUSH2 0x249A JUMP JUMPDEST JUMPDEST PUSH2 0x2594 DUP5 DUP3 DUP6 PUSH2 0x254B JUMP JUMPDEST POP SWAP4 SWAP3 POP POP POP JUMP JUMPDEST PUSH1 0x0 DUP3 PUSH1 0x1F DUP4 ADD SLT PUSH2 0x25B1 JUMPI PUSH2 0x25B0 PUSH2 0x2495 JUMP JUMPDEST JUMPDEST DUP2 CALLDATALOAD PUSH2 0x25C1 DUP5 DUP3 PUSH1 0x20 DUP7 ADD PUSH2 0x255A JUMP JUMPDEST SWAP2 POP POP SWAP3 SWAP2 POP POP JUMP JUMPDEST PUSH1 0x0 DUP1 PUSH1 0x0 DUP1 PUSH1 0x80 DUP6 DUP8 SUB SLT ISZERO PUSH2 0x25E4 JUMPI PUSH2 0x25E3 PUSH2 0x1DF7 JUMP JUMPDEST JUMPDEST PUSH1 0x0 PUSH2 0x25F2 DUP8 DUP3 DUP9 ADD PUSH2 0x1E4A JUMP JUMPDEST SWAP5 POP POP PUSH1 0x20 PUSH2 0x2603 DUP8 DUP3 DUP9 ADD PUSH2 0x1E80 JUMP JUMPDEST SWAP4 POP POP PUSH1 0x40 PUSH2 0x2614 DUP8 DUP3 DUP9 ADD PUSH2 0x1E80 JUMP JUMPDEST SWAP3 POP POP PUSH1 0x60 DUP6 ADD CALLDATALOAD PUSH8 0xFFFFFFFFFFFFFFFF DUP2 GT ISZERO PUSH2 0x2635 JUMPI PUSH2 0x2634 PUSH2 0x1DFC JUMP JUMPDEST JUMPDEST PUSH2 0x2641 DUP8 DUP3 DUP9 ADD PUSH2 0x259C JUMP JUMPDEST SWAP2 POP POP SWAP3 SWAP6 SWAP2 SWAP5 POP SWAP3 POP JUMP JUMPDEST PUSH1 0x0 PUSH8 0xFFFFFFFFFFFFFFFF DUP3 GT ISZERO PUSH2 0x2668 JUMPI PUSH2 0x2667 PUSH2 0x249F JUMP JUMPDEST JUMPDEST PUSH2 0x2671 DUP3 PUSH2 0x2193 JUMP JUMPDEST SWAP1 POP PUSH1 0x20 DUP2 ADD SWAP1 POP SWAP2 SWAP1 POP JUMP JUMPDEST PUSH1 0x0 PUSH2 0x2691 PUSH2 0x268C DUP5 PUSH2 0x264D JUMP JUMPDEST PUSH2 0x24FF JUMP JUMPDEST SWAP1 POP DUP3 DUP2 MSTORE PUSH1 0x20 DUP2 ADD DUP5 DUP5 DUP5 ADD GT ISZERO PUSH2 0x26AD JUMPI PUSH2 0x26AC PUSH2 0x249A JUMP JUMPDEST JUMPDEST PUSH2 0x26B8 DUP5 DUP3 DUP6 PUSH2 0x254B JUMP JUMPDEST POP SWAP4 SWAP3 POP POP POP JUMP JUMPDEST PUSH1 0x0 DUP3 PUSH1 0x1F DUP4 ADD SLT PUSH2 0x26D5 JUMPI PUSH2 0x26D4 PUSH2 0x2495 JUMP JUMPDEST JUMPDEST DUP2 CALLDATALOAD PUSH2 0x26E5 DUP5 DUP3 PUSH1 0x20 DUP7 ADD PUSH2 0x267E JUMP JUMPDEST SWAP2 POP POP SWAP3 SWAP2 POP POP JUMP JUMPDEST PUSH2 0x26F7 DUP2 PUSH2 0x21DD JUMP JUMPDEST DUP2 EQ PUSH2 0x2702 JUMPI PUSH1 0x0 DUP1 REVERT JUMPDEST POP JUMP JUMPDEST PUSH1 0x0 DUP2 CALLDATALOAD SWAP1 POP PUSH2 0x2714 DUP2 PUSH2 0x26EE JUMP JUMPDEST SWAP3 SWAP2 POP POP JUMP JUMPDEST PUSH1 0x0 DUP1 PUSH1 0x40 DUP4 DUP6 SUB SLT ISZERO PUSH2 0x2731 JUMPI PUSH2 0x2730 PUSH2 0x1DF7 JUMP JUMPDEST JUMPDEST PUSH1 0x0 DUP4 ADD CALLDATALOAD PUSH8 0xFFFFFFFFFFFFFFFF DUP2 GT ISZERO PUSH2 0x274F JUMPI PUSH2 0x274E PUSH2 0x1DFC JUMP JUMPDEST JUMPDEST PUSH2 0x275B DUP6 DUP3 DUP7 ADD PUSH2 0x26C0 JUMP JUMPDEST SWAP3 POP POP PUSH1 0x20 PUSH2 0x276C DUP6 DUP3 DUP7 ADD PUSH2 0x2705 JUMP JUMPDEST SWAP2 POP POP SWAP3 POP SWAP3 SWAP1 POP JUMP JUMPDEST PUSH1 0x0 DUP2 MLOAD SWAP1 POP SWAP2 SWAP1 POP JUMP JUMPDEST PUSH1 0x0 DUP3 DUP3 MSTORE PUSH1 0x20 DUP3 ADD SWAP1 POP SWAP3 SWAP2 POP POP JUMP JUMPDEST PUSH1 0x0 DUP2 SWAP1 POP PUSH1 0x20 DUP3 ADD SWAP1 POP SWAP2 SWAP1 POP JUMP JUMPDEST PUSH1 0x0 PUSH1 0xC0 DUP4 ADD PUSH1 0x0 DUP4 ADD MLOAD DUP5 DUP3 SUB PUSH1 0x0 DUP7 ADD MSTORE PUSH2 0x27BF DUP3 DUP3 PUSH2 0x2282 JUMP JUMPDEST SWAP2 POP POP PUSH1 0x20 DUP4 ADD MLOAD PUSH2 0x27D4 PUSH1 0x20 DUP7 ADD DUP3 PUSH2 0x1F85 JUMP JUMPDEST POP PUSH1 0x40 DUP4 ADD MLOAD DUP5 DUP3 SUB PUSH1 0x40 DUP7 ADD MSTORE PUSH2 0x27EC DUP3 DUP3 PUSH2 0x22CC JUMP JUMPDEST SWAP2 POP POP PUSH1 0x60 DUP4 ADD MLOAD PUSH2 0x2801 PUSH1 0x60 DUP7 ADD DUP3 PUSH2 0x232A JUMP JUMPDEST POP PUSH1 0x80 DUP4 ADD MLOAD PUSH2 0x2814 PUSH1 0x80 DUP7 ADD DUP3 PUSH2 0x232A JUMP JUMPDEST POP PUSH1 0xA0 DUP4 ADD MLOAD PUSH2 0x2827 PUSH1 0xA0 DUP7 ADD DUP3 PUSH2 0x2339 JUMP JUMPDEST POP DUP1 SWAP2 POP POP SWAP3 SWAP2 POP POP JUMP JUMPDEST PUSH1 0x0 PUSH2 0x283E DUP4 DUP4 PUSH2 0x27A2 JUMP JUMPDEST SWAP1 POP SWAP3 SWAP2 POP POP JUMP JUMPDEST PUSH1 0x0 PUSH1 0x20 DUP3 ADD SWAP1 POP SWAP2 SWAP1 POP JUMP JUMPDEST PUSH1 0x0 PUSH2 0x285E DUP3 PUSH2 0x2776 JUMP JUMPDEST PUSH2 0x2868 DUP2 DUP6 PUSH2 0x2781 JUMP JUMPDEST SWAP4 POP DUP4 PUSH1 0x20 DUP3 MUL DUP6 ADD PUSH2 0x287A DUP6 PUSH2 0x2792 JUMP JUMPDEST DUP1 PUSH1 0x0 JUMPDEST DUP6 DUP2 LT ISZERO PUSH2 0x28B6 JUMPI DUP5 DUP5 SUB DUP10 MSTORE DUP2 MLOAD PUSH2 0x2897 DUP6 DUP3 PUSH2 0x2832 JUMP JUMPDEST SWAP5 POP PUSH2 0x28A2 DUP4 PUSH2 0x2846 JUMP JUMPDEST SWAP3 POP PUSH1 0x20 DUP11 ADD SWAP10 POP POP PUSH1 0x1 DUP2 ADD SWAP1 POP PUSH2 0x287E JUMP JUMPDEST POP DUP3 SWAP8 POP DUP8 SWAP6 POP POP POP POP POP POP SWAP3 SWAP2 POP POP JUMP JUMPDEST PUSH1 0x0 PUSH1 0x20 DUP3 ADD SWAP1 POP DUP2 DUP2 SUB PUSH1 0x0 DUP4 ADD MSTORE PUSH2 0x28E2 DUP2 DUP5 PUSH2 0x2853 JUMP JUMPDEST SWAP1 POP SWAP3 SWAP2 POP POP JUMP JUMPDEST PUSH32 0x79657420746F20637265617465206120706F6C6C000000000000000000000000 PUSH1 0x0 DUP3 ADD MSTORE POP JUMP JUMPDEST PUSH1 0x0 PUSH2 0x2920 PUSH1 0x14 DUP4 PUSH2 0x214F JUMP JUMPDEST SWAP2 POP PUSH2 0x292B DUP3 PUSH2 0x28EA JUMP JUMPDEST PUSH1 0x20 DUP3 ADD SWAP1 POP SWAP2 SWAP1 POP JUMP JUMPDEST PUSH1 0x0 PUSH1 0x20 DUP3 ADD SWAP1 POP DUP2 DUP2 SUB PUSH1 0x0 DUP4 ADD MSTORE PUSH2 0x294F DUP2 PUSH2 0x2913 JUMP JUMPDEST SWAP1 POP SWAP2 SWAP1 POP JUMP JUMPDEST PUSH32 0x4E487B7100000000000000000000000000000000000000000000000000000000 PUSH1 0x0 MSTORE PUSH1 0x1 PUSH1 0x4 MSTORE PUSH1 0x24 PUSH1 0x0 REVERT JUMPDEST PUSH32 0x6D6178696D756D206E6F206F662063616E646964617465207065722073657373 PUSH1 0x0 DUP3 ADD MSTORE PUSH32 0x696F6E2072656769737465726564000000000000000000000000000000000000 PUSH1 0x20 DUP3 ADD MSTORE POP JUMP JUMPDEST PUSH1 0x0 PUSH2 0x29E1 PUSH1 0x2E DUP4 PUSH2 0x214F JUMP JUMPDEST SWAP2 POP PUSH2 0x29EC DUP3 PUSH2 0x2985 JUMP JUMPDEST PUSH1 0x40 DUP3 ADD SWAP1 POP SWAP2 SWAP1 POP JUMP JUMPDEST PUSH1 0x0 PUSH1 0x20 DUP3 ADD SWAP1 POP DUP2 DUP2 SUB PUSH1 0x0 DUP4 ADD MSTORE PUSH2 0x2A10 DUP2 PUSH2 0x29D4 JUMP JUMPDEST SWAP1 POP SWAP2 SWAP1 POP JUMP JUMPDEST PUSH32 0x4E487B7100000000000000000000000000000000000000000000000000000000 PUSH1 0x0 MSTORE PUSH1 0x11 PUSH1 0x4 MSTORE PUSH1 0x24 PUSH1 0x0 REVERT JUMPDEST PUSH1 0x0 PUSH2 0x2A51 DUP3 PUSH2 0x21DD JUMP JUMPDEST SWAP2 POP PUSH4 0xFFFFFFFF DUP3 EQ ISZERO PUSH2 0x2A68 JUMPI PUSH2 0x2A67 PUSH2 0x2A17 JUMP JUMPDEST JUMPDEST PUSH1 0x1 DUP3 ADD SWAP1 POP SWAP2 SWAP1 POP JUMP JUMPDEST PUSH1 0x0 PUSH1 0x20 DUP3 ADD SWAP1 POP PUSH2 0x2A88 PUSH1 0x0 DUP4 ADD DUP5 PUSH2 0x20F7 JUMP JUMPDEST SWAP3 SWAP2 POP POP JUMP JUMPDEST PUSH32 0x4E6F20706F6C6C20637265617465640000000000000000000000000000000000 PUSH1 0x0 DUP3 ADD MSTORE POP JUMP JUMPDEST PUSH1 0x0 PUSH2 0x2AC4 PUSH1 0xF DUP4 PUSH2 0x214F JUMP JUMPDEST SWAP2 POP PUSH2 0x2ACF DUP3 PUSH2 0x2A8E JUMP JUMPDEST PUSH1 0x20 DUP3 ADD SWAP1 POP SWAP2 SWAP1 POP JUMP JUMPDEST PUSH1 0x0 PUSH1 0x20 DUP3 ADD SWAP1 POP DUP2 DUP2 SUB PUSH1 0x0 DUP4 ADD MSTORE PUSH2 0x2AF3 DUP2 PUSH2 0x2AB7 JUMP JUMPDEST SWAP1 POP SWAP2 SWAP1 POP JUMP JUMPDEST PUSH32 0x4E487B7100000000000000000000000000000000000000000000000000000000 PUSH1 0x0 MSTORE PUSH1 0x32 PUSH1 0x4 MSTORE PUSH1 0x24 PUSH1 0x0 REVERT JUMPDEST PUSH1 0x0 PUSH2 0x2B34 DUP3 PUSH2 0x1E5F JUMP JUMPDEST SWAP2 POP PUSH32 0xFFFFFFFFFFFFFFFFFFFFFFFFFFFFFFFFFFFFFFFFFFFFFFFFFFFFFFFFFFFFFFFF DUP3 EQ ISZERO PUSH2 0x2B67 JUMPI PUSH2 0x2B66 PUSH2 0x2A17 JUMP JUMPDEST JUMPDEST PUSH1 0x1 DUP3 ADD SWAP1 POP SWAP2 SWAP1 POP JUMP JUMPDEST PUSH32 0x4E487B7100000000000000000000000000000000000000000000000000000000 PUSH1 0x0 MSTORE PUSH1 0x22 PUSH1 0x4 MSTORE PUSH1 0x24 PUSH1 0x0 REVERT JUMPDEST PUSH1 0x0 PUSH1 0x2 DUP3 DIV SWAP1 POP PUSH1 0x1 DUP3 AND DUP1 PUSH2 0x2BB9 JUMPI PUSH1 0x7F DUP3 AND SWAP2 POP JUMPDEST PUSH1 0x20 DUP3 LT DUP2 EQ ISZERO PUSH2 0x2BCD JUMPI PUSH2 0x2BCC PUSH2 0x2B72 JUMP JUMPDEST JUMPDEST POP SWAP2 SWAP1 POP JUMP JUMPDEST PUSH1 0x0 DUP2 PUSH1 0x60 SHL SWAP1 POP SWAP2 SWAP1 POP JUMP JUMPDEST PUSH1 0x0 PUSH2 0x2BEB DUP3 PUSH2 0x2BD3 JUMP JUMPDEST SWAP1 POP SWAP2 SWAP1 POP JUMP JUMPDEST PUSH1 0x0 PUSH2 0x2BFD DUP3 PUSH2 0x2BE0 JUMP JUMPDEST SWAP1 POP SWAP2 SWAP1 POP JUMP JUMPDEST PUSH2 0x2C15 PUSH2 0x2C10 DUP3 PUSH2 0x1E21 JUMP JUMPDEST PUSH2 0x2BF2 JUMP JUMPDEST DUP3 MSTORE POP POP JUMP JUMPDEST PUSH1 0x0 DUP2 SWAP1 POP SWAP3 SWAP2 POP POP JUMP JUMPDEST PUSH32 0x6D6574617472616E73616374696F6E20566F74696E6720000000000000000000 PUSH1 0x0 DUP3 ADD MSTORE POP JUMP JUMPDEST PUSH1 0x0 PUSH2 0x2C5C PUSH1 0x17 DUP4 PUSH2 0x2C1B JUMP JUMPDEST SWAP2 POP PUSH2 0x2C67 DUP3 PUSH2 0x2C26 JUMP JUMPDEST PUSH1 0x17 DUP3 ADD SWAP1 POP SWAP2 SWAP1 POP JUMP JUMPDEST PUSH1 0x0 DUP2 SWAP1 POP SWAP2 SWAP1 POP JUMP JUMPDEST PUSH2 0x2C8D PUSH2 0x2C88 DUP3 PUSH2 0x1E5F JUMP JUMPDEST PUSH2 0x2C72 JUMP JUMPDEST DUP3 MSTORE POP POP JUMP JUMPDEST PUSH1 0x0 PUSH2 0x2C9F DUP3 DUP9 PUSH2 0x2C04 JUMP JUMPDEST PUSH1 0x14 DUP3 ADD SWAP2 POP PUSH2 0x2CAE DUP3 PUSH2 0x2C4F JUMP JUMPDEST SWAP2 POP PUSH2 0x2CBA DUP3 DUP8 PUSH2 0x2C04 JUMP JUMPDEST PUSH1 0x14 DUP3 ADD SWAP2 POP PUSH2 0x2CCA DUP3 DUP7 PUSH2 0x2C7C JUMP JUMPDEST PUSH1 0x20 DUP3 ADD SWAP2 POP PUSH2 0x2CDA DUP3 DUP6 PUSH2 0x2C7C JUMP JUMPDEST PUSH1 0x20 DUP3 ADD SWAP2 POP PUSH2 0x2CEA DUP3 DUP5 PUSH2 0x2C7C JUMP JUMPDEST PUSH1 0x20 DUP3 ADD SWAP2 POP DUP2 SWAP1 POP SWAP7 SWAP6 POP POP POP POP POP POP JUMP JUMPDEST PUSH32 0x54686973206164647265737320646F6573206E6F742065786973742061732061 PUSH1 0x0 DUP3 ADD MSTORE PUSH32 0x2063616E64696461746500000000000000000000000000000000000000000000 PUSH1 0x20 DUP3 ADD MSTORE POP JUMP JUMPDEST PUSH1 0x0 PUSH2 0x2D59 PUSH1 0x2A DUP4 PUSH2 0x214F JUMP JUMPDEST SWAP2 POP PUSH2 0x2D64 DUP3 PUSH2 0x2CFD JUMP JUMPDEST PUSH1 0x40 DUP3 ADD SWAP1 POP SWAP2 SWAP1 POP JUMP JUMPDEST PUSH1 0x0 PUSH1 0x20 DUP3 ADD SWAP1 POP DUP2 DUP2 SUB PUSH1 0x0 DUP4 ADD MSTORE PUSH2 0x2D88 DUP2 PUSH2 0x2D4C JUMP JUMPDEST SWAP1 POP SWAP2 SWAP1 POP JUMP JUMPDEST PUSH32 0x766F74696E672068617320656E64656400000000000000000000000000000000 PUSH1 0x0 DUP3 ADD MSTORE POP JUMP JUMPDEST PUSH1 0x0 PUSH2 0x2DC5 PUSH1 0x10 DUP4 PUSH2 0x214F JUMP JUMPDEST SWAP2 POP PUSH2 0x2DD0 DUP3 PUSH2 0x2D8F JUMP JUMPDEST PUSH1 0x20 DUP3 ADD SWAP1 POP SWAP2 SWAP1 POP JUMP JUMPDEST PUSH1 0x0 PUSH1 0x20 DUP3 ADD SWAP1 POP DUP2 DUP2 SUB PUSH1 0x0 DUP4 ADD MSTORE PUSH2 0x2DF4 DUP2 PUSH2 0x2DB8 JUMP JUMPDEST SWAP1 POP SWAP2 SWAP1 POP JUMP JUMPDEST PUSH32 0x596F7520616C726561647920766F746564000000000000000000000000000000 PUSH1 0x0 DUP3 ADD MSTORE POP JUMP JUMPDEST PUSH1 0x0 PUSH2 0x2E31 PUSH1 0x11 DUP4 PUSH2 0x214F JUMP JUMPDEST SWAP2 POP PUSH2 0x2E3C DUP3 PUSH2 0x2DFB JUMP JUMPDEST PUSH1 0x20 DUP3 ADD SWAP1 POP SWAP2 SWAP1 POP JUMP JUMPDEST PUSH1 0x0 PUSH1 0x20 DUP3 ADD SWAP1 POP DUP2 DUP2 SUB PUSH1 0x0 DUP4 ADD MSTORE PUSH2 0x2E60 DUP2 PUSH2 0x2E24 JUMP JUMPDEST SWAP1 POP SWAP2 SWAP1 POP JUMP JUMPDEST PUSH1 0x0 PUSH1 0x40 DUP3 ADD SWAP1 POP PUSH2 0x2E7C PUSH1 0x0 DUP4 ADD DUP6 PUSH2 0x20F7 JUMP JUMPDEST PUSH2 0x2E89 PUSH1 0x20 DUP4 ADD DUP5 PUSH2 0x2208 JUMP JUMPDEST SWAP4 SWAP3 POP POP POP JUMP JUMPDEST PUSH32 0x6E6F74207468652063686169726D616E00000000000000000000000000000000 PUSH1 0x0 DUP3 ADD MSTORE POP JUMP JUMPDEST PUSH1 0x0 PUSH2 0x2EC6 PUSH1 0x10 DUP4 PUSH2 0x214F JUMP JUMPDEST SWAP2 POP PUSH2 0x2ED1 DUP3 PUSH2 0x2E90 JUMP JUMPDEST PUSH1 0x20 DUP3 ADD SWAP1 POP SWAP2 SWAP1 POP JUMP JUMPDEST PUSH1 0x0 PUSH1 0x20 DUP3 ADD SWAP1 POP DUP2 DUP2 SUB PUSH1 0x0 DUP4 ADD MSTORE PUSH2 0x2EF5 DUP2 PUSH2 0x2EB9 JUMP JUMPDEST SWAP1 POP SWAP2 SWAP1 POP JUMP JUMPDEST PUSH1 0x0 PUSH2 0x2F07 DUP3 PUSH2 0x2144 JUMP JUMPDEST PUSH2 0x2F11 DUP2 DUP6 PUSH2 0x2C1B JUMP JUMPDEST SWAP4 POP PUSH2 0x2F21 DUP2 DUP6 PUSH1 0x20 DUP7 ADD PUSH2 0x2160 JUMP JUMPDEST DUP1 DUP5 ADD SWAP2 POP POP SWAP3 SWAP2 POP POP JUMP JUMPDEST PUSH1 0x0 PUSH2 0x2F39 DUP3 DUP5 PUSH2 0x2EFC JUMP JUMPDEST SWAP2 POP DUP2 SWAP1 POP SWAP3 SWAP2 POP POP JUMP JUMPDEST PUSH1 0x0 PUSH1 0xFF DUP3 AND SWAP1 POP SWAP2 SWAP1 POP JUMP JUMPDEST PUSH1 0x0 PUSH2 0x2F5C DUP3 PUSH2 0x2F44 JUMP JUMPDEST SWAP2 POP PUSH2 0x2F67 DUP4 PUSH2 0x2F44 JUMP JUMPDEST SWAP3 POP DUP3 PUSH1 0xFF SUB DUP3 GT ISZERO PUSH2 0x2F7D JUMPI PUSH2 0x2F7C PUSH2 0x2A17 JUMP JUMPDEST JUMPDEST DUP3 DUP3 ADD SWAP1 POP SWAP3 SWAP2 POP POP JUMP JUMPDEST PUSH32 0x19457468657265756D205369676E6564204D6573736167653A0A333200000000 PUSH1 0x0 DUP3 ADD MSTORE POP JUMP JUMPDEST PUSH1 0x0 PUSH2 0x2FBE PUSH1 0x1C DUP4 PUSH2 0x2C1B JUMP JUMPDEST SWAP2 POP PUSH2 0x2FC9 DUP3 PUSH2 0x2F88 JUMP JUMPDEST PUSH1 0x1C DUP3 ADD SWAP1 POP SWAP2 SWAP1 POP JUMP JUMPDEST PUSH1 0x0 DUP2 SWAP1 POP SWAP2 SWAP1 POP JUMP JUMPDEST PUSH2 0x2FEF PUSH2 0x2FEA DUP3 PUSH2 0x2461 JUMP JUMPDEST PUSH2 0x2FD4 JUMP JUMPDEST DUP3 MSTORE POP POP JUMP JUMPDEST PUSH1 0x0 PUSH2 0x3000 DUP3 PUSH2 0x2FB1 JUMP JUMPDEST SWAP2 POP PUSH2 0x300C DUP3 DUP5 PUSH2 0x2FDE JUMP JUMPDEST PUSH1 0x20 DUP3 ADD SWAP2 POP DUP2 SWAP1 POP SWAP3 SWAP2 POP POP JUMP JUMPDEST PUSH2 0x3024 DUP2 PUSH2 0x2F44 JUMP JUMPDEST DUP3 MSTORE POP POP JUMP JUMPDEST PUSH1 0x0 PUSH1 0x80 DUP3 ADD SWAP1 POP PUSH2 0x303F PUSH1 0x0 DUP4 ADD DUP8 PUSH2 0x246B JUMP JUMPDEST PUSH2 0x304C PUSH1 0x20 DUP4 ADD DUP7 PUSH2 0x301B JUMP JUMPDEST PUSH2 0x3059 PUSH1 0x40 DUP4 ADD DUP6 PUSH2 0x246B JUMP JUMPDEST PUSH2 0x3066 PUSH1 0x60 DUP4 ADD DUP5 PUSH2 0x246B JUMP JUMPDEST SWAP6 SWAP5 POP POP POP POP POP JUMP INVALID LOG2 PUSH5 0x6970667358 0x22 SLT KECCAK256 0x49 SHL 0x4C CREATE SWAP4 MSTORE 0x5D 0x5E KECCAK256 EXTCODEHASH PUSH13 0x45A0DC645D099118D492F74D4B REVERT EXTCODEHASH SWAP11 DUP4 ADDRESS 0xEA SWAP14 0xA5 PUSH5 0x736F6C6343 STOP ADDMOD EXP STOP CALLER "
				},
				"gasEstimates": {
					"creation": {
						"codeDepositCost": "2490600",
						"executionCost": "24794",
						"totalCost": "2515394"
					},
					"external": {
						"AddCandidate(address,uint256)": "infinite",
						"AllCandidates(uint256)": "infinite",
						"NoOfRegisteredCandidates(uint256)": "infinite",
						"VotingKey(uint256)": "infinite",
						"createPoll(string,uint32)": "infinite",
						"getPollProps(uint256)": "infinite",
						"getStructProps()": "infinite",
						"metaVotingHash(address,uint256,uint256,uint256)": "infinite",
						"replayNonce(address)": "2859",
						"revealWinner(uint256)": "infinite",
						"setVotingState(uint256)": "32566",
						"vote(address,uint256,uint256,bytes)": "infinite",
						"votingPoll(uint256)": "infinite"
					},
					"internal": {
						"countVote(address,uint256,address)": "51269",
						"getPosition(uint256,uint256)": "6717",
						"getSigner(bytes32,bytes memory)": "infinite"
					}
				},
				"methodIdentifiers": {
					"AddCandidate(address,uint256)": "049d1c8b",
					"AllCandidates(uint256)": "8ac3c3c2",
					"NoOfRegisteredCandidates(uint256)": "66c5343b",
					"VotingKey(uint256)": "ae928e3e",
					"createPoll(string,uint32)": "f762f4c0",
					"getPollProps(uint256)": "b822ed7a",
					"getStructProps()": "f8437061",
					"metaVotingHash(address,uint256,uint256,uint256)": "bfe2e25d",
					"replayNonce(address)": "67d407df",
					"revealWinner(uint256)": "8ccb59e8",
					"setVotingState(uint256)": "c57003cc",
					"vote(address,uint256,uint256,bytes)": "c10d6cec",
					"votingPoll(uint256)": "e615f104"
				}
			},
			"storageLayout": {
				"storage": [
					{
						"astId": 4,
						"contract": "src/voting.sol:Voting",
						"label": "id",
						"offset": 0,
						"slot": "0",
						"type": "t_uint256"
					},
					{
						"astId": 22,
						"contract": "src/voting.sol:Voting",
						"label": "VotingKey",
						"offset": 0,
						"slot": "1",
						"type": "t_array(t_struct(VotingPoll)18_storage)dyn_storage"
					},
					{
						"astId": 27,
						"contract": "src/voting.sol:Voting",
						"label": "votingPoll",
						"offset": 0,
						"slot": "2",
						"type": "t_mapping(t_uint256,t_struct(VotingPoll)18_storage)"
					},
					{
						"astId": 31,
						"contract": "src/voting.sol:Voting",
						"label": "replayNonce",
						"offset": 0,
						"slot": "3",
						"type": "t_mapping(t_address,t_uint256)"
					},
					{
						"astId": 37,
						"contract": "src/voting.sol:Voting",
						"label": "CandidateStatus",
						"offset": 0,
						"slot": "4",
						"type": "t_mapping(t_uint256,t_mapping(t_address,t_bool))"
					},
					{
						"astId": 43,
						"contract": "src/voting.sol:Voting",
						"label": "CandidateVote",
						"offset": 0,
						"slot": "5",
						"type": "t_mapping(t_uint256,t_mapping(t_address,t_uint256))"
					},
					{
						"astId": 49,
						"contract": "src/voting.sol:Voting",
						"label": "hasVoted",
						"offset": 0,
						"slot": "6",
						"type": "t_mapping(t_uint256,t_mapping(t_address,t_bool))"
					}
				],
				"types": {
					"t_address": {
						"encoding": "inplace",
						"label": "address",
						"numberOfBytes": "20"
					},
					"t_array(t_address)dyn_storage": {
						"base": "t_address",
						"encoding": "dynamic_array",
						"label": "address[]",
						"numberOfBytes": "32"
					},
					"t_array(t_struct(VotingPoll)18_storage)dyn_storage": {
						"base": "t_struct(VotingPoll)18_storage",
						"encoding": "dynamic_array",
						"label": "struct Voting.VotingPoll[]",
						"numberOfBytes": "32"
					},
					"t_bool": {
						"encoding": "inplace",
						"label": "bool",
						"numberOfBytes": "1"
					},
					"t_mapping(t_address,t_bool)": {
						"encoding": "mapping",
						"key": "t_address",
						"label": "mapping(address => bool)",
						"numberOfBytes": "32",
						"value": "t_bool"
					},
					"t_mapping(t_address,t_uint256)": {
						"encoding": "mapping",
						"key": "t_address",
						"label": "mapping(address => uint256)",
						"numberOfBytes": "32",
						"value": "t_uint256"
					},
					"t_mapping(t_uint256,t_mapping(t_address,t_bool))": {
						"encoding": "mapping",
						"key": "t_uint256",
						"label": "mapping(uint256 => mapping(address => bool))",
						"numberOfBytes": "32",
						"value": "t_mapping(t_address,t_bool)"
					},
					"t_mapping(t_uint256,t_mapping(t_address,t_uint256))": {
						"encoding": "mapping",
						"key": "t_uint256",
						"label": "mapping(uint256 => mapping(address => uint256))",
						"numberOfBytes": "32",
						"value": "t_mapping(t_address,t_uint256)"
					},
					"t_mapping(t_uint256,t_struct(VotingPoll)18_storage)": {
						"encoding": "mapping",
						"key": "t_uint256",
						"label": "mapping(uint256 => struct Voting.VotingPoll)",
						"numberOfBytes": "32",
						"value": "t_struct(VotingPoll)18_storage"
					},
					"t_string_storage": {
						"encoding": "bytes",
						"label": "string",
						"numberOfBytes": "32"
					},
					"t_struct(VotingPoll)18_storage": {
						"encoding": "inplace",
						"label": "struct Voting.VotingPoll",
						"members": [
							{
								"astId": 6,
								"contract": "src/voting.sol:Voting",
								"label": "name",
								"offset": 0,
								"slot": "0",
								"type": "t_string_storage"
							},
							{
								"astId": 8,
								"contract": "src/voting.sol:Voting",
								"label": "chairman",
								"offset": 0,
								"slot": "1",
								"type": "t_address"
							},
							{
								"astId": 11,
								"contract": "src/voting.sol:Voting",
								"label": "candidates",
								"offset": 0,
								"slot": "2",
								"type": "t_array(t_address)dyn_storage"
							},
							{
								"astId": 13,
								"contract": "src/voting.sol:Voting",
								"label": "maxNoOfCandidates",
								"offset": 0,
								"slot": "3",
								"type": "t_uint32"
							},
							{
								"astId": 15,
								"contract": "src/voting.sol:Voting",
								"label": "currentNoOfCandidates",
								"offset": 4,
								"slot": "3",
								"type": "t_uint32"
							},
							{
								"astId": 17,
								"contract": "src/voting.sol:Voting",
								"label": "voting",
								"offset": 8,
								"slot": "3",
								"type": "t_bool"
							}
						],
						"numberOfBytes": "128"
					},
					"t_uint256": {
						"encoding": "inplace",
						"label": "uint256",
						"numberOfBytes": "32"
					},
					"t_uint32": {
						"encoding": "inplace",
						"label": "uint32",
						"numberOfBytes": "4"
					}
				}
			},
			"userdoc": {
				"kind": "user",
				"methods": {},
				"version": 1
			}
		}
	}
}