{
	"src/voting.sol": {
		"Voting": {
			"abi": [
				{
					"anonymous": false,
					"inputs": [
						{
							"indexed": false,
							"internalType": "address",
							"name": "NewCandidate",
							"type": "address"
						}
					],
					"name": "becameCandidate",
					"type": "event"
				},
				{
					"anonymous": false,
					"inputs": [
						{
							"indexed": false,
							"internalType": "address",
							"name": "_candidate",
							"type": "address"
						},
						{
							"indexed": false,
							"internalType": "bool",
							"name": "status",
							"type": "bool"
						}
					],
					"name": "voted",
					"type": "event"
				},
				{
					"inputs": [
						{
							"internalType": "address",
							"name": "_newCandidate",
							"type": "address"
						},
						{
							"internalType": "string",
							"name": "_name",
							"type": "string"
						}
					],
					"name": "AddCandidate",
					"outputs": [],
					"stateMutability": "nonpayable",
					"type": "function"
				},
				{
					"inputs": [
						{
							"internalType": "string",
							"name": "_name",
							"type": "string"
						}
					],
					"name": "AllCandidates",
					"outputs": [
						{
							"internalType": "address[]",
							"name": "_candidates",
							"type": "address[]"
						}
					],
					"stateMutability": "view",
					"type": "function"
				},
				{
					"inputs": [
						{
							"internalType": "string",
							"name": "_name",
							"type": "string"
						}
					],
					"name": "NoOfRegisteredCandidates",
					"outputs": [
						{
							"internalType": "uint256",
							"name": "",
							"type": "uint256"
						}
					],
					"stateMutability": "view",
					"type": "function"
				},
				{
					"inputs": [
						{
							"internalType": "string",
							"name": "_name",
							"type": "string"
						},
						{
							"internalType": "uint16",
							"name": "ExpectedNoOfCandidate",
							"type": "uint16"
						}
					],
					"name": "createPoll",
					"outputs": [
						{
							"internalType": "string",
							"name": "",
							"type": "string"
						},
						{
							"internalType": "uint256",
							"name": "Candidate",
							"type": "uint256"
						}
					],
					"stateMutability": "nonpayable",
					"type": "function"
				},
				{
					"inputs": [
						{
							"internalType": "uint256",
							"name": "",
							"type": "uint256"
						}
					],
					"name": "listOfPolls",
					"outputs": [
						{
							"internalType": "address",
							"name": "chairman",
							"type": "address"
						},
						{
							"internalType": "uint32",
							"name": "maxNoOfCandidates",
							"type": "uint32"
						},
						{
							"internalType": "uint64",
							"name": "startTime",
							"type": "uint64"
						},
						{
							"internalType": "uint64",
							"name": "amountGenerated",
							"type": "uint64"
						},
						{
							"internalType": "uint16",
							"name": "currentNoOfCandidates",
							"type": "uint16"
						},
						{
							"internalType": "bool",
							"name": "voting",
							"type": "bool"
						}
					],
					"stateMutability": "view",
					"type": "function"
				},
				{
					"inputs": [
						{
							"internalType": "address",
							"name": "Cand",
							"type": "address"
						},
						{
							"internalType": "string",
							"name": "_name",
							"type": "string"
						},
						{
							"internalType": "uint256",
							"name": "nonce",
							"type": "uint256"
						},
						{
							"internalType": "uint256",
							"name": "time",
							"type": "uint256"
						}
					],
					"name": "metaVotingHash",
					"outputs": [
						{
							"internalType": "bytes32",
							"name": "",
							"type": "bytes32"
						}
					],
					"stateMutability": "view",
					"type": "function"
				},
				{
					"inputs": [
						{
							"internalType": "address",
							"name": "",
							"type": "address"
						}
					],
					"name": "replayNonce",
					"outputs": [
						{
							"internalType": "uint256",
							"name": "",
							"type": "uint256"
						}
					],
					"stateMutability": "view",
					"type": "function"
				},
				{
					"inputs": [
						{
							"internalType": "string",
							"name": "_name",
							"type": "string"
						}
					],
					"name": "revealWinner",
					"outputs": [
						{
							"internalType": "uint256[]",
							"name": "CV",
							"type": "uint256[]"
						},
						{
							"internalType": "address",
							"name": "",
							"type": "address"
						},
						{
							"internalType": "uint256",
							"name": "",
							"type": "uint256"
						}
					],
					"stateMutability": "view",
					"type": "function"
				},
				{
					"inputs": [
						{
							"internalType": "string",
							"name": "_name",
							"type": "string"
						}
					],
					"name": "setVotingState",
					"outputs": [],
					"stateMutability": "nonpayable",
					"type": "function"
				},
				{
					"inputs": [
						{
							"internalType": "address",
							"name": "Cand",
							"type": "address"
						},
						{
							"internalType": "string",
							"name": "_name",
							"type": "string"
						},
						{
							"internalType": "uint256",
							"name": "nonce",
							"type": "uint256"
						},
						{
							"internalType": "bytes",
							"name": "signature",
							"type": "bytes"
						}
					],
					"name": "vote",
					"outputs": [],
					"stateMutability": "nonpayable",
					"type": "function"
				},
				{
					"inputs": [
						{
							"internalType": "string",
							"name": "",
							"type": "string"
						}
					],
					"name": "votingPoll",
					"outputs": [
						{
							"internalType": "address",
							"name": "chairman",
							"type": "address"
						},
						{
							"internalType": "uint32",
							"name": "maxNoOfCandidates",
							"type": "uint32"
						},
						{
							"internalType": "uint64",
							"name": "startTime",
							"type": "uint64"
						},
						{
							"internalType": "uint64",
							"name": "amountGenerated",
							"type": "uint64"
						},
						{
							"internalType": "uint16",
							"name": "currentNoOfCandidates",
							"type": "uint16"
						},
						{
							"internalType": "bool",
							"name": "voting",
							"type": "bool"
						}
					],
					"stateMutability": "view",
					"type": "function"
				},
				{
					"inputs": [
						{
							"internalType": "string",
							"name": "_name",
							"type": "string"
						}
					],
					"name": "withdawFees",
					"outputs": [],
					"stateMutability": "payable",
					"type": "function"
				},
				{
					"stateMutability": "payable",
					"type": "receive"
				}
			],
			"devdoc": {
				"kind": "dev",
				"methods": {},
				"version": 1
			},
			"evm": {
				"assembly": "    /* \"src/voting.sol\":63:5313  contract Voting{... */\n  mstore(0x40, 0x80)\n  callvalue\n  dup1\n  iszero\n  tag_1\n  jumpi\n  0x00\n  dup1\n  revert\ntag_1:\n  pop\n  dataSize(sub_0)\n  dup1\n  dataOffset(sub_0)\n  0x00\n  codecopy\n  0x00\n  return\nstop\n\nsub_0: assembly {\n        /* \"src/voting.sol\":63:5313  contract Voting{... */\n      mstore(0x40, 0x80)\n      jumpi(tag_1, lt(calldatasize, 0x04))\n      shr(0xe0, calldataload(0x00))\n      dup1\n      0x67d407df\n      gt\n      tag_15\n      jumpi\n      dup1\n      0x67d407df\n      eq\n      tag_9\n      jumpi\n      dup1\n      0x82e305ab\n      eq\n      tag_10\n      jumpi\n      dup1\n      0x8579cacd\n      eq\n      tag_11\n      jumpi\n      dup1\n      0xa886e61b\n      eq\n      tag_12\n      jumpi\n      dup1\n      0xaf7cbc0d\n      eq\n      tag_13\n      jumpi\n      dup1\n      0xf0e4de22\n      eq\n      tag_14\n      jumpi\n      jump(tag_2)\n    tag_15:\n      dup1\n      0x01ff993b\n      eq\n      tag_3\n      jumpi\n      dup1\n      0x0968d4b1\n      eq\n      tag_4\n      jumpi\n      dup1\n      0x12f0da4b\n      eq\n      tag_5\n      jumpi\n      dup1\n      0x4fcf1f39\n      eq\n      tag_6\n      jumpi\n      dup1\n      0x57f53967\n      eq\n      tag_7\n      jumpi\n      dup1\n      0x63ee965a\n      eq\n      tag_8\n      jumpi\n      jump(tag_2)\n    tag_1:\n      jumpi(tag_2, calldatasize)\n      stop\n    tag_2:\n      0x00\n      dup1\n      revert\n        /* \"src/voting.sol\":4464:4692  function metaVotingHash(address Cand, string memory _name, uint256 nonce, uint256 time) public view returns(bytes32){... */\n    tag_3:\n      callvalue\n      dup1\n      iszero\n      tag_18\n      jumpi\n      0x00\n      dup1\n      revert\n    tag_18:\n      pop\n      tag_19\n      0x04\n      dup1\n      calldatasize\n      sub\n      dup2\n      add\n      swap1\n      tag_20\n      swap2\n      swap1\n      tag_21\n      jump\t// in\n    tag_20:\n      tag_22\n      jump\t// in\n    tag_19:\n      mload(0x40)\n      tag_23\n      swap2\n      swap1\n      tag_24\n      jump\t// in\n    tag_23:\n      mload(0x40)\n      dup1\n      swap2\n      sub\n      swap1\n      return\n        /* \"src/voting.sol\":1514:1802  function createPoll(string memory _name, uint16 ExpectedNoOfCandidate) external returns(string memory,uint Candidate){... */\n    tag_4:\n      callvalue\n      dup1\n      iszero\n      tag_25\n      jumpi\n      0x00\n      dup1\n      revert\n    tag_25:\n      pop\n      tag_26\n      0x04\n      dup1\n      calldatasize\n      sub\n      dup2\n      add\n      swap1\n      tag_27\n      swap2\n      swap1\n      tag_28\n      jump\t// in\n    tag_27:\n      tag_29\n      jump\t// in\n    tag_26:\n      mload(0x40)\n      tag_30\n      swap3\n      swap2\n      swap1\n      tag_31\n      jump\t// in\n    tag_30:\n      mload(0x40)\n      dup1\n      swap2\n      sub\n      swap1\n      return\n        /* \"src/voting.sol\":2321:2878  function vote(address Cand, string memory _name, uint256 nonce, bytes memory signature) external  isCandidate(Cand, _name) StillVoting(_name){... */\n    tag_5:\n      callvalue\n      dup1\n      iszero\n      tag_32\n      jumpi\n      0x00\n      dup1\n      revert\n    tag_32:\n      pop\n      tag_33\n      0x04\n      dup1\n      calldatasize\n      sub\n      dup2\n      add\n      swap1\n      tag_34\n      swap2\n      swap1\n      tag_35\n      jump\t// in\n    tag_34:\n      tag_36\n      jump\t// in\n    tag_33:\n      stop\n        /* \"src/voting.sol\":3484:4027  function revealWinner( string memory _name) external view returns ( uint[] memory CV, address, uint){... */\n    tag_6:\n      callvalue\n      dup1\n      iszero\n      tag_37\n      jumpi\n      0x00\n      dup1\n      revert\n    tag_37:\n      pop\n      tag_38\n      0x04\n      dup1\n      calldatasize\n      sub\n      dup2\n      add\n      swap1\n      tag_39\n      swap2\n      swap1\n      tag_40\n      jump\t// in\n    tag_39:\n      tag_41\n      jump\t// in\n    tag_38:\n      mload(0x40)\n      tag_42\n      swap4\n      swap3\n      swap2\n      swap1\n      tag_43\n      jump\t// in\n    tag_42:\n      mload(0x40)\n      dup1\n      swap2\n      sub\n      swap1\n      return\n        /* \"src/voting.sol\":1806:2318  function AddCandidate(address _newCandidate, string memory _name) external{... */\n    tag_7:\n      callvalue\n      dup1\n      iszero\n      tag_44\n      jumpi\n      0x00\n      dup1\n      revert\n    tag_44:\n      pop\n      tag_45\n      0x04\n      dup1\n      calldatasize\n      sub\n      dup2\n      add\n      swap1\n      tag_46\n      swap2\n      swap1\n      tag_47\n      jump\t// in\n    tag_46:\n      tag_48\n      jump\t// in\n    tag_45:\n      stop\n        /* \"src/voting.sol\":702:749  mapping(string => VotingPoll) public votingPoll */\n    tag_8:\n      callvalue\n      dup1\n      iszero\n      tag_49\n      jumpi\n      0x00\n      dup1\n      revert\n    tag_49:\n      pop\n      tag_50\n      0x04\n      dup1\n      calldatasize\n      sub\n      dup2\n      add\n      swap1\n      tag_51\n      swap2\n      swap1\n      tag_40\n      jump\t// in\n    tag_51:\n      tag_52\n      jump\t// in\n    tag_50:\n      mload(0x40)\n      tag_53\n      swap7\n      swap6\n      swap5\n      swap4\n      swap3\n      swap2\n      swap1\n      tag_54\n      jump\t// in\n    tag_53:\n      mload(0x40)\n      dup1\n      swap2\n      sub\n      swap1\n      return\n        /* \"src/voting.sol\":755:802  mapping (address => uint256) public replayNonce */\n    tag_9:\n      callvalue\n      dup1\n      iszero\n      tag_55\n      jumpi\n      0x00\n      dup1\n      revert\n    tag_55:\n      pop\n      tag_56\n      0x04\n      dup1\n      calldatasize\n      sub\n      dup2\n      add\n      swap1\n      tag_57\n      swap2\n      swap1\n      tag_58\n      jump\t// in\n    tag_57:\n      tag_59\n      jump\t// in\n    tag_56:\n      mload(0x40)\n      tag_60\n      swap2\n      swap1\n      tag_61\n      jump\t// in\n    tag_60:\n      mload(0x40)\n      dup1\n      swap2\n      sub\n      swap1\n      return\n        /* \"src/voting.sol\":4234:4459  function withdawFees(string memory _name) external payable{... */\n    tag_10:\n      tag_62\n      0x04\n      dup1\n      calldatasize\n      sub\n      dup2\n      add\n      swap1\n      tag_63\n      swap2\n      swap1\n      tag_40\n      jump\t// in\n    tag_63:\n      tag_64\n      jump\t// in\n    tag_62:\n      stop\n        /* \"src/voting.sol\":3129:3300  function NoOfRegisteredCandidates( string memory _name) public view returns(uint){... */\n    tag_11:\n      callvalue\n      dup1\n      iszero\n      tag_65\n      jumpi\n      0x00\n      dup1\n      revert\n    tag_65:\n      pop\n      tag_66\n      0x04\n      dup1\n      calldatasize\n      sub\n      dup2\n      add\n      swap1\n      tag_67\n      swap2\n      swap1\n      tag_40\n      jump\t// in\n    tag_67:\n      tag_68\n      jump\t// in\n    tag_66:\n      mload(0x40)\n      tag_69\n      swap2\n      swap1\n      tag_61\n      jump\t// in\n    tag_69:\n      mload(0x40)\n      dup1\n      swap2\n      sub\n      swap1\n      return\n        /* \"src/voting.sol\":609:640  VotingPoll[] public listOfPolls */\n    tag_12:\n      callvalue\n      dup1\n      iszero\n      tag_70\n      jumpi\n      0x00\n      dup1\n      revert\n    tag_70:\n      pop\n      tag_71\n      0x04\n      dup1\n      calldatasize\n      sub\n      dup2\n      add\n      swap1\n      tag_72\n      swap2\n      swap1\n      tag_73\n      jump\t// in\n    tag_72:\n      tag_74\n      jump\t// in\n    tag_71:\n      mload(0x40)\n      tag_75\n      swap7\n      swap6\n      swap5\n      swap4\n      swap3\n      swap2\n      swap1\n      tag_54\n      jump\t// in\n    tag_75:\n      mload(0x40)\n      dup1\n      swap2\n      sub\n      swap1\n      return\n        /* \"src/voting.sol\":3308:3481  function AllCandidates( string memory _name) public view returns(address[] memory _candidates){... */\n    tag_13:\n      callvalue\n      dup1\n      iszero\n      tag_76\n      jumpi\n      0x00\n      dup1\n      revert\n    tag_76:\n      pop\n      tag_77\n      0x04\n      dup1\n      calldatasize\n      sub\n      dup2\n      add\n      swap1\n      tag_78\n      swap2\n      swap1\n      tag_40\n      jump\t// in\n    tag_78:\n      tag_79\n      jump\t// in\n    tag_77:\n      mload(0x40)\n      tag_80\n      swap2\n      swap1\n      tag_81\n      jump\t// in\n    tag_80:\n      mload(0x40)\n      dup1\n      swap2\n      sub\n      swap1\n      return\n        /* \"src/voting.sol\":4030:4232  function setVotingState( string memory _name) external {... */\n    tag_14:\n      callvalue\n      dup1\n      iszero\n      tag_82\n      jumpi\n      0x00\n      dup1\n      revert\n    tag_82:\n      pop\n      tag_83\n      0x04\n      dup1\n      calldatasize\n      sub\n      dup2\n      add\n      swap1\n      tag_84\n      swap2\n      swap1\n      tag_40\n      jump\t// in\n    tag_84:\n      tag_85\n      jump\t// in\n    tag_83:\n      stop\n        /* \"src/voting.sol\":4464:4692  function metaVotingHash(address Cand, string memory _name, uint256 nonce, uint256 time) public view returns(bytes32){... */\n    tag_22:\n        /* \"src/voting.sol\":4572:4579  bytes32 */\n      0x00\n        /* \"src/voting.sol\":4628:4632  this */\n      address\n        /* \"src/voting.sol\":4661:4665  Cand */\n      dup6\n        /* \"src/voting.sol\":4667:4672  _name */\n      dup6\n        /* \"src/voting.sol\":4674:4679  nonce */\n      dup6\n        /* \"src/voting.sol\":4681:4685  time */\n      dup6\n        /* \"src/voting.sol\":4603:4686  abi.encodePacked(address(this),\"metatransaction Voting \", Cand, _name, nonce, time) */\n      add(0x20, mload(0x40))\n      tag_87\n      swap6\n      swap5\n      swap4\n      swap3\n      swap2\n      swap1\n      tag_88\n      jump\t// in\n    tag_87:\n      mload(0x40)\n      0x20\n      dup2\n      dup4\n      sub\n      sub\n      dup2\n      mstore\n      swap1\n      0x40\n      mstore\n        /* \"src/voting.sol\":4593:4687  keccak256(abi.encodePacked(address(this),\"metatransaction Voting \", Cand, _name, nonce, time)) */\n      dup1\n      mload\n      swap1\n      0x20\n      add\n      keccak256\n        /* \"src/voting.sol\":4586:4687  return keccak256(abi.encodePacked(address(this),\"metatransaction Voting \", Cand, _name, nonce, time)) */\n      swap1\n      pop\n        /* \"src/voting.sol\":4464:4692  function metaVotingHash(address Cand, string memory _name, uint256 nonce, uint256 time) public view returns(bytes32){... */\n      swap5\n      swap4\n      pop\n      pop\n      pop\n      pop\n      jump\t// out\n        /* \"src/voting.sol\":1514:1802  function createPoll(string memory _name, uint16 ExpectedNoOfCandidate) external returns(string memory,uint Candidate){... */\n    tag_29:\n        /* \"src/voting.sol\":1602:1615  string memory */\n      0x60\n        /* \"src/voting.sol\":1616:1630  uint Candidate */\n      0x00\n        /* \"src/voting.sol\":1637:1658  VotingPoll storage VP */\n      dup1\n        /* \"src/voting.sol\":1661:1671  votingPoll */\n      0x01\n        /* \"src/voting.sol\":1672:1677  _name */\n      dup6\n        /* \"src/voting.sol\":1661:1678  votingPoll[_name] */\n      mload(0x40)\n      tag_90\n      swap2\n      swap1\n      tag_91\n      jump\t// in\n    tag_90:\n      swap1\n      dup2\n      mstore\n      0x20\n      add\n      mload(0x40)\n      dup1\n      swap2\n      sub\n      swap1\n      keccak256\n        /* \"src/voting.sol\":1637:1678  VotingPoll storage VP = votingPoll[_name] */\n      swap1\n      pop\n        /* \"src/voting.sol\":1698:1708  msg.sender */\n      caller\n        /* \"src/voting.sol\":1684:1686  VP */\n      dup2\n        /* \"src/voting.sol\":1684:1695  VP.chairman */\n      0x00\n      add\n      0x00\n        /* \"src/voting.sol\":1684:1708  VP.chairman = msg.sender */\n      0x0100\n      exp\n      dup2\n      sload\n      dup2\n      0xffffffffffffffffffffffffffffffffffffffff\n      mul\n      not\n      and\n      swap1\n      dup4\n      0xffffffffffffffffffffffffffffffffffffffff\n      and\n      mul\n      or\n      swap1\n      sstore\n      pop\n        /* \"src/voting.sol\":1736:1757  ExpectedNoOfCandidate */\n      dup4\n        /* \"src/voting.sol\":1714:1757  VP.maxNoOfCandidates =ExpectedNoOfCandidate */\n      0xffff\n      and\n        /* \"src/voting.sol\":1714:1716  VP */\n      dup2\n        /* \"src/voting.sol\":1714:1734  VP.maxNoOfCandidates */\n      0x02\n      add\n      0x00\n        /* \"src/voting.sol\":1714:1757  VP.maxNoOfCandidates =ExpectedNoOfCandidate */\n      0x0100\n      exp\n      dup2\n      sload\n      dup2\n      0xffffffff\n      mul\n      not\n      and\n      swap1\n      dup4\n      0xffffffff\n      and\n      mul\n      or\n      swap1\n      sstore\n      pop\n        /* \"src/voting.sol\":1770:1775  _name */\n      dup5\n        /* \"src/voting.sol\":1777:1798  ExpectedNoOfCandidate */\n      dup5\n        /* \"src/voting.sol\":1763:1799  return(_name, ExpectedNoOfCandidate) */\n      dup1\n      0xffff\n      and\n      swap1\n      pop\n      swap3\n      pop\n      swap3\n      pop\n      pop\n        /* \"src/voting.sol\":1514:1802  function createPoll(string memory _name, uint16 ExpectedNoOfCandidate) external returns(string memory,uint Candidate){... */\n      swap3\n      pop\n      swap3\n      swap1\n      pop\n      jump\t// out\n        /* \"src/voting.sol\":2321:2878  function vote(address Cand, string memory _name, uint256 nonce, bytes memory signature) external  isCandidate(Cand, _name) StillVoting(_name){... */\n    tag_36:\n        /* \"src/voting.sol\":2431:2435  Cand */\n      dup4\n        /* \"src/voting.sol\":2437:2442  _name */\n      dup4\n        /* \"src/voting.sol\":1082:1103  VotingPoll storage VP */\n      0x00\n        /* \"src/voting.sol\":1106:1116  votingPoll */\n      0x01\n        /* \"src/voting.sol\":1117:1122  _name */\n      dup3\n        /* \"src/voting.sol\":1106:1123  votingPoll[_name] */\n      mload(0x40)\n      tag_93\n      swap2\n      swap1\n      tag_91\n      jump\t// in\n    tag_93:\n      swap1\n      dup2\n      mstore\n      0x20\n      add\n      mload(0x40)\n      dup1\n      swap2\n      sub\n      swap1\n      keccak256\n        /* \"src/voting.sol\":1082:1123  VotingPoll storage VP = votingPoll[_name] */\n      swap1\n      pop\n        /* \"src/voting.sol\":1163:1167  true */\n      0x01\n        /* \"src/voting.sol\":1137:1167  VP.CandidateStatus[Cand]==true */\n      iszero\n      iszero\n        /* \"src/voting.sol\":1137:1139  VP */\n      dup2\n        /* \"src/voting.sol\":1137:1155  VP.CandidateStatus */\n      0x03\n      add\n        /* \"src/voting.sol\":1137:1161  VP.CandidateStatus[Cand] */\n      0x00\n        /* \"src/voting.sol\":1156:1160  Cand */\n      dup6\n        /* \"src/voting.sol\":1137:1161  VP.CandidateStatus[Cand] */\n      0xffffffffffffffffffffffffffffffffffffffff\n      and\n      0xffffffffffffffffffffffffffffffffffffffff\n      and\n      dup2\n      mstore\n      0x20\n      add\n      swap1\n      dup2\n      mstore\n      0x20\n      add\n      0x00\n      keccak256\n      0x00\n      swap1\n      sload\n      swap1\n      0x0100\n      exp\n      swap1\n      div\n      0xff\n      and\n        /* \"src/voting.sol\":1137:1167  VP.CandidateStatus[Cand]==true */\n      iszero\n      iszero\n      eq\n        /* \"src/voting.sol\":1129:1213  require(VP.CandidateStatus[Cand]==true,'This address does not exist as a candidate') */\n      tag_94\n      jumpi\n      mload(0x40)\n      0x08c379a000000000000000000000000000000000000000000000000000000000\n      dup2\n      mstore\n      0x04\n      add\n      tag_95\n      swap1\n      tag_96\n      jump\t// in\n    tag_95:\n      mload(0x40)\n      dup1\n      swap2\n      sub\n      swap1\n      revert\n    tag_94:\n        /* \"src/voting.sol\":2456:2461  _name */\n      dup6\n        /* \"src/voting.sol\":1274:1295  VotingPoll storage VP */\n      0x00\n        /* \"src/voting.sol\":1298:1308  votingPoll */\n      0x01\n        /* \"src/voting.sol\":1309:1314  _name */\n      dup3\n        /* \"src/voting.sol\":1298:1315  votingPoll[_name] */\n      mload(0x40)\n      tag_98\n      swap2\n      swap1\n      tag_91\n      jump\t// in\n    tag_98:\n      swap1\n      dup2\n      mstore\n      0x20\n      add\n      mload(0x40)\n      dup1\n      swap2\n      sub\n      swap1\n      keccak256\n        /* \"src/voting.sol\":1274:1315  VotingPoll storage VP = votingPoll[_name] */\n      swap1\n      pop\n        /* \"src/voting.sol\":1342:1346  true */\n      0x01\n        /* \"src/voting.sol\":1329:1346  VP.voting == true */\n      iszero\n      iszero\n        /* \"src/voting.sol\":1329:1331  VP */\n      dup2\n        /* \"src/voting.sol\":1329:1338  VP.voting */\n      0x02\n      add\n      0x16\n      swap1\n      sload\n      swap1\n      0x0100\n      exp\n      swap1\n      div\n      0xff\n      and\n        /* \"src/voting.sol\":1329:1346  VP.voting == true */\n      iszero\n      iszero\n      eq\n        /* \"src/voting.sol\":1321:1367  require(VP.voting == true, \"voting has ended\") */\n      tag_99\n      jumpi\n      mload(0x40)\n      0x08c379a000000000000000000000000000000000000000000000000000000000\n      dup2\n      mstore\n      0x04\n      add\n      tag_100\n      swap1\n      tag_101\n      jump\t// in\n    tag_100:\n      mload(0x40)\n      dup1\n      swap2\n      sub\n      swap1\n      revert\n    tag_99:\n        /* \"src/voting.sol\":2469:2485  bytes32 metaHash */\n      0x00\n        /* \"src/voting.sol\":2488:2536  metaVotingHash(Cand,_name,nonce,block.timestamp) */\n      tag_103\n        /* \"src/voting.sol\":2503:2507  Cand */\n      dup11\n        /* \"src/voting.sol\":2508:2513  _name */\n      dup11\n        /* \"src/voting.sol\":2514:2519  nonce */\n      dup11\n        /* \"src/voting.sol\":2520:2535  block.timestamp */\n      timestamp\n        /* \"src/voting.sol\":2488:2502  metaVotingHash */\n      tag_22\n        /* \"src/voting.sol\":2488:2536  metaVotingHash(Cand,_name,nonce,block.timestamp) */\n      jump\t// in\n    tag_103:\n        /* \"src/voting.sol\":2469:2536  bytes32 metaHash = metaVotingHash(Cand,_name,nonce,block.timestamp) */\n      swap1\n      pop\n        /* \"src/voting.sol\":2543:2557  address signer */\n      0x00\n        /* \"src/voting.sol\":2560:2589  getSigner(metaHash,signature) */\n      tag_104\n        /* \"src/voting.sol\":2570:2578  metaHash */\n      dup3\n        /* \"src/voting.sol\":2579:2588  signature */\n      dup10\n        /* \"src/voting.sol\":2560:2569  getSigner */\n      tag_105\n        /* \"src/voting.sol\":2560:2589  getSigner(metaHash,signature) */\n      jump\t// in\n    tag_104:\n        /* \"src/voting.sol\":2543:2589  address signer = getSigner(metaHash,signature) */\n      swap1\n      pop\n        /* \"src/voting.sol\":2620:2621  0 */\n      0x00\n        /* \"src/voting.sol\":2604:2622  signer!=address(0) */\n      0xffffffffffffffffffffffffffffffffffffffff\n      and\n        /* \"src/voting.sol\":2604:2610  signer */\n      dup2\n        /* \"src/voting.sol\":2604:2622  signer!=address(0) */\n      0xffffffffffffffffffffffffffffffffffffffff\n      and\n      eq\n      iszero\n        /* \"src/voting.sol\":2596:2623  require(signer!=address(0)) */\n      tag_106\n      jumpi\n      0x00\n      dup1\n      revert\n    tag_106:\n        /* \"src/voting.sol\":2646:2657  replayNonce */\n      0x02\n        /* \"src/voting.sol\":2646:2665  replayNonce[signer] */\n      0x00\n        /* \"src/voting.sol\":2658:2664  signer */\n      dup3\n        /* \"src/voting.sol\":2646:2665  replayNonce[signer] */\n      0xffffffffffffffffffffffffffffffffffffffff\n      and\n      0xffffffffffffffffffffffffffffffffffffffff\n      and\n      dup2\n      mstore\n      0x20\n      add\n      swap1\n      dup2\n      mstore\n      0x20\n      add\n      0x00\n      keccak256\n      sload\n        /* \"src/voting.sol\":2637:2642  nonce */\n      dup10\n        /* \"src/voting.sol\":2637:2665  nonce == replayNonce[signer] */\n      eq\n        /* \"src/voting.sol\":2629:2666  require(nonce == replayNonce[signer]) */\n      tag_107\n      jumpi\n      0x00\n      dup1\n      revert\n    tag_107:\n        /* \"src/voting.sol\":2672:2683  replayNonce */\n      0x02\n        /* \"src/voting.sol\":2672:2691  replayNonce[signer] */\n      0x00\n        /* \"src/voting.sol\":2684:2690  signer */\n      dup3\n        /* \"src/voting.sol\":2672:2691  replayNonce[signer] */\n      0xffffffffffffffffffffffffffffffffffffffff\n      and\n      0xffffffffffffffffffffffffffffffffffffffff\n      and\n      dup2\n      mstore\n      0x20\n      add\n      swap1\n      dup2\n      mstore\n      0x20\n      add\n      0x00\n      keccak256\n      0x00\n        /* \"src/voting.sol\":2672:2693  replayNonce[signer]++ */\n      dup2\n      sload\n      dup1\n      swap3\n      swap2\n      swap1\n      tag_108\n      swap1\n      tag_109\n      jump\t// in\n    tag_108:\n      swap2\n      swap1\n      pop\n      sstore\n      pop\n        /* \"src/voting.sol\":2700:2721  VotingPoll storage VP */\n      0x00\n        /* \"src/voting.sol\":2724:2734  votingPoll */\n      0x01\n        /* \"src/voting.sol\":2735:2740  _name */\n      dup12\n        /* \"src/voting.sol\":2724:2741  votingPoll[_name] */\n      mload(0x40)\n      tag_110\n      swap2\n      swap1\n      tag_91\n      jump\t// in\n    tag_110:\n      swap1\n      dup2\n      mstore\n      0x20\n      add\n      mload(0x40)\n      dup1\n      swap2\n      sub\n      swap1\n      keccak256\n        /* \"src/voting.sol\":2700:2741  VotingPoll storage VP = votingPoll[_name] */\n      swap1\n      pop\n        /* \"src/voting.sol\":2779:2784  false */\n      0x00\n        /* \"src/voting.sol\":2756:2784  VP.hasVoted[signer] == false */\n      iszero\n      iszero\n        /* \"src/voting.sol\":2756:2758  VP */\n      dup2\n        /* \"src/voting.sol\":2756:2767  VP.hasVoted */\n      0x04\n      add\n        /* \"src/voting.sol\":2756:2775  VP.hasVoted[signer] */\n      0x00\n        /* \"src/voting.sol\":2768:2774  signer */\n      dup5\n        /* \"src/voting.sol\":2756:2775  VP.hasVoted[signer] */\n      0xffffffffffffffffffffffffffffffffffffffff\n      and\n      0xffffffffffffffffffffffffffffffffffffffff\n      and\n      dup2\n      mstore\n      0x20\n      add\n      swap1\n      dup2\n      mstore\n      0x20\n      add\n      0x00\n      keccak256\n      0x00\n      swap1\n      sload\n      swap1\n      0x0100\n      exp\n      swap1\n      div\n      0xff\n      and\n        /* \"src/voting.sol\":2756:2784  VP.hasVoted[signer] == false */\n      iszero\n      iszero\n      eq\n        /* \"src/voting.sol\":2748:2806  require(VP.hasVoted[signer] == false, \"You already voted\") */\n      tag_111\n      jumpi\n      mload(0x40)\n      0x08c379a000000000000000000000000000000000000000000000000000000000\n      dup2\n      mstore\n      0x04\n      add\n      tag_112\n      swap1\n      tag_113\n      jump\t// in\n    tag_112:\n      mload(0x40)\n      dup1\n      swap2\n      sub\n      swap1\n      revert\n    tag_111:\n        /* \"src/voting.sol\":2814:2844  countVote(Cand, _name, signer) */\n      tag_114\n        /* \"src/voting.sol\":2824:2828  Cand */\n      dup13\n        /* \"src/voting.sol\":2830:2835  _name */\n      dup13\n        /* \"src/voting.sol\":2837:2843  signer */\n      dup5\n        /* \"src/voting.sol\":2814:2823  countVote */\n      tag_115\n        /* \"src/voting.sol\":2814:2844  countVote(Cand, _name, signer) */\n      jump\t// in\n    tag_114:\n      pop\n        /* \"src/voting.sol\":2856:2873  voted(Cand, true) */\n      0xf3f16a15f074b71c5138107dfc7c63b80524d5411cb967caa97d8d9f12b2fd6b\n        /* \"src/voting.sol\":2862:2866  Cand */\n      dup13\n        /* \"src/voting.sol\":2868:2872  true */\n      0x01\n        /* \"src/voting.sol\":2856:2873  voted(Cand, true) */\n      mload(0x40)\n      tag_116\n      swap3\n      swap2\n      swap1\n      tag_117\n      jump\t// in\n    tag_116:\n      mload(0x40)\n      dup1\n      swap2\n      sub\n      swap1\n      log1\n        /* \"src/voting.sol\":2462:2878  {... */\n      pop\n      pop\n      pop\n        /* \"src/voting.sol\":1268:1378  {... */\n      pop\n        /* \"src/voting.sol\":1219:1220  _ */\n      pop\n        /* \"src/voting.sol\":1076:1223  {... */\n      pop\n        /* \"src/voting.sol\":2321:2878  function vote(address Cand, string memory _name, uint256 nonce, bytes memory signature) external  isCandidate(Cand, _name) StillVoting(_name){... */\n      pop\n      pop\n      pop\n      pop\n      pop\n      pop\n      jump\t// out\n        /* \"src/voting.sol\":3484:4027  function revealWinner( string memory _name) external view returns ( uint[] memory CV, address, uint){... */\n    tag_41:\n        /* \"src/voting.sol\":3552:3568  uint[] memory CV */\n      0x60\n        /* \"src/voting.sol\":3570:3577  address */\n      0x00\n        /* \"src/voting.sol\":3579:3583  uint */\n      dup1\n        /* \"src/voting.sol\":3591:3612  VotingPoll storage VP */\n      0x00\n        /* \"src/voting.sol\":3615:3625  votingPoll */\n      0x01\n        /* \"src/voting.sol\":3626:3631  _name */\n      dup6\n        /* \"src/voting.sol\":3615:3632  votingPoll[_name] */\n      mload(0x40)\n      tag_119\n      swap2\n      swap1\n      tag_91\n      jump\t// in\n    tag_119:\n      swap1\n      dup2\n      mstore\n      0x20\n      add\n      mload(0x40)\n      dup1\n      swap2\n      sub\n      swap1\n      keccak256\n        /* \"src/voting.sol\":3591:3632  VotingPoll storage VP = votingPoll[_name] */\n      swap1\n      pop\n        /* \"src/voting.sol\":3655:3657  VP */\n      dup1\n        /* \"src/voting.sol\":3655:3668  VP.candidates */\n      0x01\n      add\n        /* \"src/voting.sol\":3655:3675  VP.candidates.length */\n      dup1\n      sload\n      swap1\n      pop\n        /* \"src/voting.sol\":3644:3676  new uint[](VP.candidates.length) */\n      0xffffffffffffffff\n      dup2\n      gt\n      iszero\n      tag_120\n      jumpi\n      tag_121\n      tag_122\n      jump\t// in\n    tag_121:\n    tag_120:\n      mload(0x40)\n      swap1\n      dup1\n      dup3\n      mstore\n      dup1\n      0x20\n      mul\n      0x20\n      add\n      dup3\n      add\n      0x40\n      mstore\n      dup1\n      iszero\n      tag_123\n      jumpi\n      dup2\n      0x20\n      add\n      0x20\n      dup3\n      mul\n      dup1\n      calldatasize\n      dup4\n      calldatacopy\n      dup1\n      dup3\n      add\n      swap2\n      pop\n      pop\n      swap1\n      pop\n    tag_123:\n      pop\n        /* \"src/voting.sol\":3639:3676  CV = new uint[](VP.candidates.length) */\n      swap4\n      pop\n        /* \"src/voting.sol\":3683:3699  uint highestVote */\n      0x00\n        /* \"src/voting.sol\":3706:3720  address winner */\n      dup1\n        /* \"src/voting.sol\":3732:3738  uint i */\n      0x00\n        /* \"src/voting.sol\":3727:3985  for (uint i =0; i <= CV.length; i++){... */\n    tag_124:\n        /* \"src/voting.sol\":3748:3750  CV */\n      dup7\n        /* \"src/voting.sol\":3748:3757  CV.length */\n      mload\n        /* \"src/voting.sol\":3743:3744  i */\n      dup2\n        /* \"src/voting.sol\":3743:3757  i <= CV.length */\n      gt\n        /* \"src/voting.sol\":3727:3985  for (uint i =0; i <= CV.length; i++){... */\n      tag_125\n      jumpi\n        /* \"src/voting.sol\":3810:3821  highestVote */\n      dup3\n        /* \"src/voting.sol\":3773:3775  VP */\n      dup5\n        /* \"src/voting.sol\":3773:3789  VP.CandidateVote */\n      0x05\n      add\n        /* \"src/voting.sol\":3773:3807  VP.CandidateVote[VP.candidates[i]] */\n      0x00\n        /* \"src/voting.sol\":3790:3792  VP */\n      dup7\n        /* \"src/voting.sol\":3790:3803  VP.candidates */\n      0x01\n      add\n        /* \"src/voting.sol\":3804:3805  i */\n      dup5\n        /* \"src/voting.sol\":3790:3806  VP.candidates[i] */\n      dup2\n      sload\n      dup2\n      lt\n      tag_127\n      jumpi\n      tag_128\n      tag_129\n      jump\t// in\n    tag_128:\n    tag_127:\n      swap1\n      0x00\n      mstore\n      keccak256(0x00, 0x20)\n      add\n      0x00\n      swap1\n      sload\n      swap1\n      0x0100\n      exp\n      swap1\n      div\n      0xffffffffffffffffffffffffffffffffffffffff\n      and\n        /* \"src/voting.sol\":3773:3807  VP.CandidateVote[VP.candidates[i]] */\n      0xffffffffffffffffffffffffffffffffffffffff\n      and\n      0xffffffffffffffffffffffffffffffffffffffff\n      and\n      dup2\n      mstore\n      0x20\n      add\n      swap1\n      dup2\n      mstore\n      0x20\n      add\n      0x00\n      keccak256\n      sload\n        /* \"src/voting.sol\":3773:3821  VP.CandidateVote[VP.candidates[i]] > highestVote */\n      gt\n        /* \"src/voting.sol\":3770:3926  if(VP.CandidateVote[VP.candidates[i]] > highestVote){... */\n      iszero\n      tag_131\n      jumpi\n        /* \"src/voting.sol\":3847:3849  VP */\n      dup4\n        /* \"src/voting.sol\":3847:3863  VP.CandidateVote */\n      0x05\n      add\n        /* \"src/voting.sol\":3847:3881  VP.CandidateVote[VP.candidates[i]] */\n      0x00\n        /* \"src/voting.sol\":3864:3866  VP */\n      dup6\n        /* \"src/voting.sol\":3864:3877  VP.candidates */\n      0x01\n      add\n        /* \"src/voting.sol\":3878:3879  i */\n      dup4\n        /* \"src/voting.sol\":3864:3880  VP.candidates[i] */\n      dup2\n      sload\n      dup2\n      lt\n      tag_132\n      jumpi\n      tag_133\n      tag_129\n      jump\t// in\n    tag_133:\n    tag_132:\n      swap1\n      0x00\n      mstore\n      keccak256(0x00, 0x20)\n      add\n      0x00\n      swap1\n      sload\n      swap1\n      0x0100\n      exp\n      swap1\n      div\n      0xffffffffffffffffffffffffffffffffffffffff\n      and\n        /* \"src/voting.sol\":3847:3881  VP.CandidateVote[VP.candidates[i]] */\n      0xffffffffffffffffffffffffffffffffffffffff\n      and\n      0xffffffffffffffffffffffffffffffffffffffff\n      and\n      dup2\n      mstore\n      0x20\n      add\n      swap1\n      dup2\n      mstore\n      0x20\n      add\n      0x00\n      keccak256\n      sload\n        /* \"src/voting.sol\":3833:3881  highestVote = VP.CandidateVote[VP.candidates[i]] */\n      swap3\n      pop\n        /* \"src/voting.sol\":3902:3904  VP */\n      dup4\n        /* \"src/voting.sol\":3902:3915  VP.candidates */\n      0x01\n      add\n        /* \"src/voting.sol\":3916:3917  i */\n      dup2\n        /* \"src/voting.sol\":3902:3918  VP.candidates[i] */\n      dup2\n      sload\n      dup2\n      lt\n      tag_135\n      jumpi\n      tag_136\n      tag_129\n      jump\t// in\n    tag_136:\n    tag_135:\n      swap1\n      0x00\n      mstore\n      keccak256(0x00, 0x20)\n      add\n      0x00\n      swap1\n      sload\n      swap1\n      0x0100\n      exp\n      swap1\n      div\n      0xffffffffffffffffffffffffffffffffffffffff\n      and\n        /* \"src/voting.sol\":3893:3918  winner = VP.candidates[i] */\n      swap2\n      pop\n        /* \"src/voting.sol\":3770:3926  if(VP.CandidateVote[VP.candidates[i]] > highestVote){... */\n    tag_131:\n        /* \"src/voting.sol\":3941:3943  VP */\n      dup4\n        /* \"src/voting.sol\":3941:3957  VP.CandidateVote */\n      0x05\n      add\n        /* \"src/voting.sol\":3941:3975  VP.CandidateVote[VP.candidates[i]] */\n      0x00\n        /* \"src/voting.sol\":3958:3960  VP */\n      dup6\n        /* \"src/voting.sol\":3958:3971  VP.candidates */\n      0x01\n      add\n        /* \"src/voting.sol\":3972:3973  i */\n      dup4\n        /* \"src/voting.sol\":3958:3974  VP.candidates[i] */\n      dup2\n      sload\n      dup2\n      lt\n      tag_138\n      jumpi\n      tag_139\n      tag_129\n      jump\t// in\n    tag_139:\n    tag_138:\n      swap1\n      0x00\n      mstore\n      keccak256(0x00, 0x20)\n      add\n      0x00\n      swap1\n      sload\n      swap1\n      0x0100\n      exp\n      swap1\n      div\n      0xffffffffffffffffffffffffffffffffffffffff\n      and\n        /* \"src/voting.sol\":3941:3975  VP.CandidateVote[VP.candidates[i]] */\n      0xffffffffffffffffffffffffffffffffffffffff\n      and\n      0xffffffffffffffffffffffffffffffffffffffff\n      and\n      dup2\n      mstore\n      0x20\n      add\n      swap1\n      dup2\n      mstore\n      0x20\n      add\n      0x00\n      keccak256\n      sload\n        /* \"src/voting.sol\":3932:3934  CV */\n      dup8\n        /* \"src/voting.sol\":3935:3936  i */\n      dup3\n        /* \"src/voting.sol\":3932:3937  CV[i] */\n      dup2\n      mload\n      dup2\n      lt\n      tag_141\n      jumpi\n      tag_142\n      tag_129\n      jump\t// in\n    tag_142:\n    tag_141:\n      0x20\n      mul\n      0x20\n      add\n      add\n        /* \"src/voting.sol\":3932:3976  CV[i] = (VP.CandidateVote[VP.candidates[i]]) */\n      dup2\n      dup2\n      mstore\n      pop\n      pop\n        /* \"src/voting.sol\":3759:3762  i++ */\n      dup1\n      dup1\n      tag_143\n      swap1\n      tag_109\n      jump\t// in\n    tag_143:\n      swap2\n      pop\n      pop\n        /* \"src/voting.sol\":3727:3985  for (uint i =0; i <= CV.length; i++){... */\n      jump(tag_124)\n    tag_125:\n      pop\n        /* \"src/voting.sol\":3999:4001  CV */\n      dup6\n        /* \"src/voting.sol\":4003:4009  winner */\n      dup2\n        /* \"src/voting.sol\":4011:4022  highestVote */\n      dup4\n        /* \"src/voting.sol\":3991:4023  return (CV, winner, highestVote) */\n      swap6\n      pop\n      swap6\n      pop\n      swap6\n      pop\n      pop\n      pop\n      pop\n        /* \"src/voting.sol\":3484:4027  function revealWinner( string memory _name) external view returns ( uint[] memory CV, address, uint){... */\n      swap2\n      swap4\n      swap1\n      swap3\n      pop\n      jump\t// out\n        /* \"src/voting.sol\":1806:2318  function AddCandidate(address _newCandidate, string memory _name) external{... */\n    tag_48:\n        /* \"src/voting.sol\":1887:1908  VotingPoll storage VP */\n      0x00\n        /* \"src/voting.sol\":1911:1921  votingPoll */\n      0x01\n        /* \"src/voting.sol\":1922:1927  _name */\n      dup3\n        /* \"src/voting.sol\":1911:1928  votingPoll[_name] */\n      mload(0x40)\n      tag_145\n      swap2\n      swap1\n      tag_91\n      jump\t// in\n    tag_145:\n      swap1\n      dup2\n      mstore\n      0x20\n      add\n      mload(0x40)\n      dup1\n      swap2\n      sub\n      swap1\n      keccak256\n        /* \"src/voting.sol\":1887:1928  VotingPoll storage VP = votingPoll[_name] */\n      swap1\n      pop\n        /* \"src/voting.sol\":1967:1968  0 */\n      0x00\n        /* \"src/voting.sol\":1944:1969  VP.chairman != address(0) */\n      0xffffffffffffffffffffffffffffffffffffffff\n      and\n        /* \"src/voting.sol\":1944:1946  VP */\n      dup2\n        /* \"src/voting.sol\":1944:1955  VP.chairman */\n      0x00\n      add\n      0x00\n      swap1\n      sload\n      swap1\n      0x0100\n      exp\n      swap1\n      div\n      0xffffffffffffffffffffffffffffffffffffffff\n      and\n        /* \"src/voting.sol\":1944:1969  VP.chairman != address(0) */\n      0xffffffffffffffffffffffffffffffffffffffff\n      and\n      eq\n      iszero\n        /* \"src/voting.sol\":1935:1995  require (VP.chairman != address(0) , \"yet to create a poll\") */\n      tag_146\n      jumpi\n      mload(0x40)\n      0x08c379a000000000000000000000000000000000000000000000000000000000\n      dup2\n      mstore\n      0x04\n      add\n      tag_147\n      swap1\n      tag_148\n      jump\t// in\n    tag_147:\n      mload(0x40)\n      dup1\n      swap2\n      sub\n      swap1\n      revert\n    tag_146:\n        /* \"src/voting.sol\":2026:2036  msg.sender */\n      caller\n        /* \"src/voting.sol\":2011:2036  VP.chairman == msg.sender */\n      0xffffffffffffffffffffffffffffffffffffffff\n      and\n        /* \"src/voting.sol\":2011:2013  VP */\n      dup2\n        /* \"src/voting.sol\":2011:2022  VP.chairman */\n      0x00\n      add\n      0x00\n      swap1\n      sload\n      swap1\n      0x0100\n      exp\n      swap1\n      div\n      0xffffffffffffffffffffffffffffffffffffffff\n      and\n        /* \"src/voting.sol\":2011:2036  VP.chairman == msg.sender */\n      0xffffffffffffffffffffffffffffffffffffffff\n      and\n      eq\n        /* \"src/voting.sol\":2004:2037  assert(VP.chairman == msg.sender) */\n      tag_149\n      jumpi\n      tag_150\n      tag_151\n      jump\t// in\n    tag_150:\n    tag_149:\n        /* \"src/voting.sol\":2079:2081  VP */\n      dup1\n        /* \"src/voting.sol\":2079:2099  VP.maxNoOfCandidates */\n      0x02\n      add\n      0x00\n      swap1\n      sload\n      swap1\n      0x0100\n      exp\n      swap1\n      div\n      0xffffffff\n      and\n        /* \"src/voting.sol\":2052:2099  VP.currentNoOfCandidates < VP.maxNoOfCandidates */\n      0xffffffff\n      and\n        /* \"src/voting.sol\":2052:2054  VP */\n      dup2\n        /* \"src/voting.sol\":2052:2076  VP.currentNoOfCandidates */\n      0x02\n      add\n      0x14\n      swap1\n      sload\n      swap1\n      0x0100\n      exp\n      swap1\n      div\n      0xffff\n      and\n        /* \"src/voting.sol\":2052:2099  VP.currentNoOfCandidates < VP.maxNoOfCandidates */\n      0xffff\n      and\n      lt\n        /* \"src/voting.sol\":2044:2150  require(VP.currentNoOfCandidates < VP.maxNoOfCandidates, \"maximum no of candidate per session registered\") */\n      tag_152\n      jumpi\n      mload(0x40)\n      0x08c379a000000000000000000000000000000000000000000000000000000000\n      dup2\n      mstore\n      0x04\n      add\n      tag_153\n      swap1\n      tag_154\n      jump\t// in\n    tag_153:\n      mload(0x40)\n      dup1\n      swap2\n      sub\n      swap1\n      revert\n    tag_152:\n        /* \"src/voting.sol\":2193:2197  true */\n      0x01\n        /* \"src/voting.sol\":2157:2159  VP */\n      dup2\n        /* \"src/voting.sol\":2157:2175  VP.CandidateStatus */\n      0x03\n      add\n        /* \"src/voting.sol\":2157:2190  VP.CandidateStatus[_newCandidate] */\n      0x00\n        /* \"src/voting.sol\":2176:2189  _newCandidate */\n      dup6\n        /* \"src/voting.sol\":2157:2190  VP.CandidateStatus[_newCandidate] */\n      0xffffffffffffffffffffffffffffffffffffffff\n      and\n      0xffffffffffffffffffffffffffffffffffffffff\n      and\n      dup2\n      mstore\n      0x20\n      add\n      swap1\n      dup2\n      mstore\n      0x20\n      add\n      0x00\n      keccak256\n      0x00\n        /* \"src/voting.sol\":2157:2197  VP.CandidateStatus[_newCandidate] = true */\n      0x0100\n      exp\n      dup2\n      sload\n      dup2\n      0xff\n      mul\n      not\n      and\n      swap1\n      dup4\n      iszero\n      iszero\n      mul\n      or\n      swap1\n      sstore\n      pop\n        /* \"src/voting.sol\":2205:2207  VP */\n      dup1\n        /* \"src/voting.sol\":2205:2218  VP.candidates */\n      0x01\n      add\n        /* \"src/voting.sol\":2224:2237  _newCandidate */\n      dup4\n        /* \"src/voting.sol\":2205:2238  VP.candidates.push(_newCandidate) */\n      swap1\n      dup1\n      0x01\n      dup2\n      sload\n      add\n      dup1\n      dup3\n      sstore\n      dup1\n      swap2\n      pop\n      pop\n      0x01\n      swap1\n      sub\n      swap1\n      0x00\n      mstore\n      keccak256(0x00, 0x20)\n      add\n      0x00\n      swap1\n      swap2\n      swap1\n      swap2\n      swap1\n      swap2\n      0x0100\n      exp\n      dup2\n      sload\n      dup2\n      0xffffffffffffffffffffffffffffffffffffffff\n      mul\n      not\n      and\n      swap1\n      dup4\n      0xffffffffffffffffffffffffffffffffffffffff\n      and\n      mul\n      or\n      swap1\n      sstore\n      pop\n        /* \"src/voting.sol\":2246:2248  VP */\n      dup1\n        /* \"src/voting.sol\":2246:2270  VP.currentNoOfCandidates */\n      0x02\n      add\n      0x14\n        /* \"src/voting.sol\":2246:2272  VP.currentNoOfCandidates++ */\n      dup2\n      dup2\n      swap1\n      sload\n      swap1\n      0x0100\n      exp\n      swap1\n      div\n      0xffff\n      and\n      dup1\n      swap3\n      swap2\n      swap1\n      tag_156\n      swap1\n      tag_157\n      jump\t// in\n    tag_156:\n      swap2\n      swap1\n      0x0100\n      exp\n      dup2\n      sload\n      dup2\n      0xffff\n      mul\n      not\n      and\n      swap1\n      dup4\n      0xffff\n      and\n      mul\n      or\n      swap1\n      sstore\n      pop\n      pop\n        /* \"src/voting.sol\":2284:2314  becameCandidate(_newCandidate) */\n      0xc19c59aa93348e8fc54764bc642eca975e2639f44cc683ef8f027e1529cbda32\n        /* \"src/voting.sol\":2300:2313  _newCandidate */\n      dup4\n        /* \"src/voting.sol\":2284:2314  becameCandidate(_newCandidate) */\n      mload(0x40)\n      tag_158\n      swap2\n      swap1\n      tag_159\n      jump\t// in\n    tag_158:\n      mload(0x40)\n      dup1\n      swap2\n      sub\n      swap1\n      log1\n        /* \"src/voting.sol\":1880:2318  {... */\n      pop\n        /* \"src/voting.sol\":1806:2318  function AddCandidate(address _newCandidate, string memory _name) external{... */\n      pop\n      pop\n      jump\t// out\n        /* \"src/voting.sol\":702:749  mapping(string => VotingPoll) public votingPoll */\n    tag_52:\n      0x01\n      dup2\n      dup1\n      mload\n      0x20\n      dup2\n      add\n      dup3\n      add\n      dup1\n      mload\n      dup5\n      dup3\n      mstore\n      0x20\n      dup4\n      add\n      0x20\n      dup6\n      add\n      keccak256\n      dup2\n      dup4\n      mstore\n      dup1\n      swap6\n      pop\n      pop\n      pop\n      pop\n      pop\n      pop\n      0x00\n      swap2\n      pop\n      swap1\n      pop\n      dup1\n      0x00\n      add\n      0x00\n      swap1\n      sload\n      swap1\n      0x0100\n      exp\n      swap1\n      div\n      0xffffffffffffffffffffffffffffffffffffffff\n      and\n      swap1\n      dup1\n      0x02\n      add\n      0x00\n      swap1\n      sload\n      swap1\n      0x0100\n      exp\n      swap1\n      div\n      0xffffffff\n      and\n      swap1\n      dup1\n      0x02\n      add\n      0x04\n      swap1\n      sload\n      swap1\n      0x0100\n      exp\n      swap1\n      div\n      0xffffffffffffffff\n      and\n      swap1\n      dup1\n      0x02\n      add\n      0x0c\n      swap1\n      sload\n      swap1\n      0x0100\n      exp\n      swap1\n      div\n      0xffffffffffffffff\n      and\n      swap1\n      dup1\n      0x02\n      add\n      0x14\n      swap1\n      sload\n      swap1\n      0x0100\n      exp\n      swap1\n      div\n      0xffff\n      and\n      swap1\n      dup1\n      0x02\n      add\n      0x16\n      swap1\n      sload\n      swap1\n      0x0100\n      exp\n      swap1\n      div\n      0xff\n      and\n      swap1\n      pop\n      dup7\n      jump\t// out\n        /* \"src/voting.sol\":755:802  mapping (address => uint256) public replayNonce */\n    tag_59:\n      mstore(0x20, 0x02)\n      dup1\n      0x00\n      mstore\n      keccak256(0x00, 0x40)\n      0x00\n      swap2\n      pop\n      swap1\n      pop\n      sload\n      dup2\n      jump\t// out\n        /* \"src/voting.sol\":4234:4459  function withdawFees(string memory _name) external payable{... */\n    tag_64:\n        /* \"src/voting.sol\":4298:4319  VotingPoll storage VP */\n      0x00\n        /* \"src/voting.sol\":4322:4332  votingPoll */\n      0x01\n        /* \"src/voting.sol\":4333:4338  _name */\n      dup3\n        /* \"src/voting.sol\":4322:4339  votingPoll[_name] */\n      mload(0x40)\n      tag_161\n      swap2\n      swap1\n      tag_91\n      jump\t// in\n    tag_161:\n      swap1\n      dup2\n      mstore\n      0x20\n      add\n      mload(0x40)\n      dup1\n      swap2\n      sub\n      swap1\n      keccak256\n        /* \"src/voting.sol\":4298:4339  VotingPoll storage VP = votingPoll[_name] */\n      swap1\n      pop\n        /* \"src/voting.sol\":4368:4370  VP */\n      dup1\n        /* \"src/voting.sol\":4368:4379  VP.chairman */\n      0x00\n      add\n      0x00\n      swap1\n      sload\n      swap1\n      0x0100\n      exp\n      swap1\n      div\n      0xffffffffffffffffffffffffffffffffffffffff\n      and\n        /* \"src/voting.sol\":4354:4379  msg.sender == VP.chairman */\n      0xffffffffffffffffffffffffffffffffffffffff\n      and\n        /* \"src/voting.sol\":4354:4364  msg.sender */\n      caller\n        /* \"src/voting.sol\":4354:4379  msg.sender == VP.chairman */\n      0xffffffffffffffffffffffffffffffffffffffff\n      and\n      eq\n        /* \"src/voting.sol\":4346:4400  require(msg.sender == VP.chairman, \"not the chairman\") */\n      tag_162\n      jumpi\n      mload(0x40)\n      0x08c379a000000000000000000000000000000000000000000000000000000000\n      dup2\n      mstore\n      0x04\n      add\n      tag_163\n      swap1\n      tag_164\n      jump\t// in\n    tag_163:\n      mload(0x40)\n      dup1\n      swap2\n      sub\n      swap1\n      revert\n    tag_162:\n        /* \"src/voting.sol\":4415:4425  msg.sender */\n      caller\n        /* \"src/voting.sol\":4407:4435  payable(msg.sender).transfer */\n      0xffffffffffffffffffffffffffffffffffffffff\n      and\n        /* \"src/voting.sol\":4407:4455  payable(msg.sender).transfer(VP.amountGenerated) */\n      0x08fc\n        /* \"src/voting.sol\":4436:4438  VP */\n      dup3\n        /* \"src/voting.sol\":4436:4454  VP.amountGenerated */\n      0x02\n      add\n      0x0c\n      swap1\n      sload\n      swap1\n      0x0100\n      exp\n      swap1\n      div\n      0xffffffffffffffff\n      and\n        /* \"src/voting.sol\":4407:4455  payable(msg.sender).transfer(VP.amountGenerated) */\n      0xffffffffffffffff\n      and\n      swap1\n      dup2\n      iszero\n      mul\n      swap1\n      mload(0x40)\n      0x00\n      mload(0x40)\n      dup1\n      dup4\n      sub\n      dup2\n      dup6\n      dup9\n      dup9\n      call\n      swap4\n      pop\n      pop\n      pop\n      pop\n      iszero\n      dup1\n      iszero\n      tag_166\n      jumpi\n      returndatasize\n      0x00\n      dup1\n      returndatacopy\n      revert(0x00, returndatasize)\n    tag_166:\n      pop\n        /* \"src/voting.sol\":4292:4459  {... */\n      pop\n        /* \"src/voting.sol\":4234:4459  function withdawFees(string memory _name) external payable{... */\n      pop\n      jump\t// out\n        /* \"src/voting.sol\":3129:3300  function NoOfRegisteredCandidates( string memory _name) public view returns(uint){... */\n    tag_68:\n        /* \"src/voting.sol\":3205:3209  uint */\n      0x00\n        /* \"src/voting.sol\":3217:3238  VotingPoll storage VP */\n      dup1\n        /* \"src/voting.sol\":3241:3251  votingPoll */\n      0x01\n        /* \"src/voting.sol\":3252:3257  _name */\n      dup4\n        /* \"src/voting.sol\":3241:3258  votingPoll[_name] */\n      mload(0x40)\n      tag_168\n      swap2\n      swap1\n      tag_91\n      jump\t// in\n    tag_168:\n      swap1\n      dup2\n      mstore\n      0x20\n      add\n      mload(0x40)\n      dup1\n      swap2\n      sub\n      swap1\n      keccak256\n        /* \"src/voting.sol\":3217:3258  VotingPoll storage VP = votingPoll[_name] */\n      swap1\n      pop\n        /* \"src/voting.sol\":3272:3274  VP */\n      dup1\n        /* \"src/voting.sol\":3272:3296  VP.currentNoOfCandidates */\n      0x02\n      add\n      0x14\n      swap1\n      sload\n      swap1\n      0x0100\n      exp\n      swap1\n      div\n      0xffff\n      and\n        /* \"src/voting.sol\":3265:3296  return VP.currentNoOfCandidates */\n      0xffff\n      and\n      swap2\n      pop\n      pop\n        /* \"src/voting.sol\":3129:3300  function NoOfRegisteredCandidates( string memory _name) public view returns(uint){... */\n      swap2\n      swap1\n      pop\n      jump\t// out\n        /* \"src/voting.sol\":609:640  VotingPoll[] public listOfPolls */\n    tag_74:\n      0x00\n      dup2\n      dup2\n      sload\n      dup2\n      lt\n      tag_169\n      jumpi\n      0x00\n      dup1\n      revert\n    tag_169:\n      swap1\n      0x00\n      mstore\n      keccak256(0x00, 0x20)\n      swap1\n      0x06\n      mul\n      add\n      0x00\n      swap2\n      pop\n      swap1\n      pop\n      dup1\n      0x00\n      add\n      0x00\n      swap1\n      sload\n      swap1\n      0x0100\n      exp\n      swap1\n      div\n      0xffffffffffffffffffffffffffffffffffffffff\n      and\n      swap1\n      dup1\n      0x02\n      add\n      0x00\n      swap1\n      sload\n      swap1\n      0x0100\n      exp\n      swap1\n      div\n      0xffffffff\n      and\n      swap1\n      dup1\n      0x02\n      add\n      0x04\n      swap1\n      sload\n      swap1\n      0x0100\n      exp\n      swap1\n      div\n      0xffffffffffffffff\n      and\n      swap1\n      dup1\n      0x02\n      add\n      0x0c\n      swap1\n      sload\n      swap1\n      0x0100\n      exp\n      swap1\n      div\n      0xffffffffffffffff\n      and\n      swap1\n      dup1\n      0x02\n      add\n      0x14\n      swap1\n      sload\n      swap1\n      0x0100\n      exp\n      swap1\n      div\n      0xffff\n      and\n      swap1\n      dup1\n      0x02\n      add\n      0x16\n      swap1\n      sload\n      swap1\n      0x0100\n      exp\n      swap1\n      div\n      0xff\n      and\n      swap1\n      pop\n      dup7\n      jump\t// out\n        /* \"src/voting.sol\":3308:3481  function AllCandidates( string memory _name) public view returns(address[] memory _candidates){... */\n    tag_79:\n        /* \"src/voting.sol\":3373:3401  address[] memory _candidates */\n      0x60\n        /* \"src/voting.sol\":3409:3430  VotingPoll storage VP */\n      0x00\n        /* \"src/voting.sol\":3433:3443  votingPoll */\n      0x01\n        /* \"src/voting.sol\":3444:3449  _name */\n      dup4\n        /* \"src/voting.sol\":3433:3450  votingPoll[_name] */\n      mload(0x40)\n      tag_172\n      swap2\n      swap1\n      tag_91\n      jump\t// in\n    tag_172:\n      swap1\n      dup2\n      mstore\n      0x20\n      add\n      mload(0x40)\n      dup1\n      swap2\n      sub\n      swap1\n      keccak256\n        /* \"src/voting.sol\":3409:3450  VotingPoll storage VP = votingPoll[_name] */\n      swap1\n      pop\n        /* \"src/voting.sol\":3464:3466  VP */\n      dup1\n        /* \"src/voting.sol\":3464:3477  VP.candidates */\n      0x01\n      add\n        /* \"src/voting.sol\":3457:3477  return VP.candidates */\n      dup1\n      sload\n      dup1\n      0x20\n      mul\n      0x20\n      add\n      mload(0x40)\n      swap1\n      dup2\n      add\n      0x40\n      mstore\n      dup1\n      swap3\n      swap2\n      swap1\n      dup2\n      dup2\n      mstore\n      0x20\n      add\n      dup3\n      dup1\n      sload\n      dup1\n      iszero\n      tag_173\n      jumpi\n      0x20\n      mul\n      dup3\n      add\n      swap2\n      swap1\n      0x00\n      mstore\n      keccak256(0x00, 0x20)\n      swap1\n    tag_174:\n      dup2\n      0x00\n      swap1\n      sload\n      swap1\n      0x0100\n      exp\n      swap1\n      div\n      0xffffffffffffffffffffffffffffffffffffffff\n      and\n      0xffffffffffffffffffffffffffffffffffffffff\n      and\n      dup2\n      mstore\n      0x20\n      add\n      swap1\n      0x01\n      add\n      swap1\n      dup1\n      dup4\n      gt\n      tag_174\n      jumpi\n    tag_173:\n      pop\n      pop\n      pop\n      pop\n      pop\n      swap2\n      pop\n      pop\n        /* \"src/voting.sol\":3308:3481  function AllCandidates( string memory _name) public view returns(address[] memory _candidates){... */\n      swap2\n      swap1\n      pop\n      jump\t// out\n        /* \"src/voting.sol\":4030:4232  function setVotingState( string memory _name) external {... */\n    tag_85:\n        /* \"src/voting.sol\":4091:4112  VotingPoll storage VP */\n      0x00\n        /* \"src/voting.sol\":4115:4125  votingPoll */\n      0x01\n        /* \"src/voting.sol\":4126:4131  _name */\n      dup3\n        /* \"src/voting.sol\":4115:4132  votingPoll[_name] */\n      mload(0x40)\n      tag_176\n      swap2\n      swap1\n      tag_91\n      jump\t// in\n    tag_176:\n      swap1\n      dup2\n      mstore\n      0x20\n      add\n      mload(0x40)\n      dup1\n      swap2\n      sub\n      swap1\n      keccak256\n        /* \"src/voting.sol\":4091:4132  VotingPoll storage VP = votingPoll[_name] */\n      swap1\n      pop\n        /* \"src/voting.sol\":4161:4171  msg.sender */\n      caller\n        /* \"src/voting.sol\":4146:4171  VP.chairman == msg.sender */\n      0xffffffffffffffffffffffffffffffffffffffff\n      and\n        /* \"src/voting.sol\":4146:4148  VP */\n      dup2\n        /* \"src/voting.sol\":4146:4157  VP.chairman */\n      0x00\n      add\n      0x00\n      swap1\n      sload\n      swap1\n      0x0100\n      exp\n      swap1\n      div\n      0xffffffffffffffffffffffffffffffffffffffff\n      and\n        /* \"src/voting.sol\":4146:4171  VP.chairman == msg.sender */\n      0xffffffffffffffffffffffffffffffffffffffff\n      and\n      eq\n        /* \"src/voting.sol\":4138:4192  require(VP.chairman == msg.sender, \"not the chairman\") */\n      tag_177\n      jumpi\n      mload(0x40)\n      0x08c379a000000000000000000000000000000000000000000000000000000000\n      dup2\n      mstore\n      0x04\n      add\n      tag_178\n      swap1\n      tag_164\n      jump\t// in\n    tag_178:\n      mload(0x40)\n      dup1\n      swap2\n      sub\n      swap1\n      revert\n    tag_177:\n        /* \"src/voting.sol\":4218:4220  VP */\n      dup1\n        /* \"src/voting.sol\":4218:4227  VP.voting */\n      0x02\n      add\n      0x16\n      swap1\n      sload\n      swap1\n      0x0100\n      exp\n      swap1\n      div\n      0xff\n      and\n        /* \"src/voting.sol\":4216:4228  !(VP.voting) */\n      iszero\n        /* \"src/voting.sol\":4204:4206  VP */\n      dup2\n        /* \"src/voting.sol\":4204:4213  VP.voting */\n      0x02\n      add\n      0x16\n        /* \"src/voting.sol\":4204:4228  VP.voting = !(VP.voting) */\n      0x0100\n      exp\n      dup2\n      sload\n      dup2\n      0xff\n      mul\n      not\n      and\n      swap1\n      dup4\n      iszero\n      iszero\n      mul\n      or\n      swap1\n      sstore\n      pop\n        /* \"src/voting.sol\":4085:4232  {... */\n      pop\n        /* \"src/voting.sol\":4030:4232  function setVotingState( string memory _name) external {... */\n      pop\n      jump\t// out\n        /* \"src/voting.sol\":4696:5278  function getSigner(bytes32 _hash, bytes memory _signature) internal pure returns (address){... */\n    tag_105:\n        /* \"src/voting.sol\":4778:4785  address */\n      0x00\n        /* \"src/voting.sol\":4792:4801  bytes32 r */\n      dup1\n        /* \"src/voting.sol\":4807:4816  bytes32 s */\n      0x00\n        /* \"src/voting.sol\":4822:4829  uint8 v */\n      dup1\n        /* \"src/voting.sol\":4860:4862  65 */\n      0x41\n        /* \"src/voting.sol\":4839:4849  _signature */\n      dup6\n        /* \"src/voting.sol\":4839:4856  _signature.length */\n      mload\n        /* \"src/voting.sol\":4839:4862  _signature.length != 65 */\n      eq\n        /* \"src/voting.sol\":4835:4896  if (_signature.length != 65) {... */\n      tag_180\n      jumpi\n        /* \"src/voting.sol\":4887:4888  0 */\n      0x00\n        /* \"src/voting.sol\":4872:4889  return address(0) */\n      swap4\n      pop\n      pop\n      pop\n      pop\n      jump(tag_179)\n        /* \"src/voting.sol\":4835:4896  if (_signature.length != 65) {... */\n    tag_180:\n        /* \"src/voting.sol\":4945:4947  32 */\n      0x20\n        /* \"src/voting.sol\":4933:4943  _signature */\n      dup6\n        /* \"src/voting.sol\":4929:4948  add(_signature, 32) */\n      add\n        /* \"src/voting.sol\":4923:4949  mload(add(_signature, 32)) */\n      mload\n        /* \"src/voting.sol\":4918:4949  r := mload(add(_signature, 32)) */\n      swap3\n      pop\n        /* \"src/voting.sol\":4983:4985  64 */\n      0x40\n        /* \"src/voting.sol\":4971:4981  _signature */\n      dup6\n        /* \"src/voting.sol\":4967:4986  add(_signature, 64) */\n      add\n        /* \"src/voting.sol\":4961:4987  mload(add(_signature, 64)) */\n      mload\n        /* \"src/voting.sol\":4956:4987  s := mload(add(_signature, 64)) */\n      swap2\n      pop\n        /* \"src/voting.sol\":5029:5031  96 */\n      0x60\n        /* \"src/voting.sol\":5017:5027  _signature */\n      dup6\n        /* \"src/voting.sol\":5013:5032  add(_signature, 96) */\n      add\n        /* \"src/voting.sol\":5007:5033  mload(add(_signature, 96)) */\n      mload\n        /* \"src/voting.sol\":5004:5005  0 */\n      0x00\n        /* \"src/voting.sol\":4999:5034  byte(0, mload(add(_signature, 96))) */\n      byte\n        /* \"src/voting.sol\":4994:5034  v := byte(0, mload(add(_signature, 96))) */\n      swap1\n      pop\n        /* \"src/voting.sol\":5053:5055  27 */\n      0x1b\n        /* \"src/voting.sol\":5049:5050  v */\n      dup2\n        /* \"src/voting.sol\":5049:5055  v < 27 */\n      0xff\n      and\n      lt\n        /* \"src/voting.sol\":5045:5079  if (v < 27) {... */\n      iszero\n      tag_181\n      jumpi\n        /* \"src/voting.sol\":5070:5072  27 */\n      0x1b\n        /* \"src/voting.sol\":5065:5072  v += 27 */\n      dup2\n      tag_182\n      swap2\n      swap1\n      tag_183\n      jump\t// in\n    tag_182:\n      swap1\n      pop\n        /* \"src/voting.sol\":5045:5079  if (v < 27) {... */\n    tag_181:\n        /* \"src/voting.sol\":5093:5095  27 */\n      0x1b\n        /* \"src/voting.sol\":5088:5089  v */\n      dup2\n        /* \"src/voting.sol\":5088:5095  v != 27 */\n      0xff\n      and\n      eq\n      iszero\n        /* \"src/voting.sol\":5088:5106  v != 27 && v != 28 */\n      dup1\n      iszero\n      tag_184\n      jumpi\n      pop\n        /* \"src/voting.sol\":5104:5106  28 */\n      0x1c\n        /* \"src/voting.sol\":5099:5100  v */\n      dup2\n        /* \"src/voting.sol\":5099:5106  v != 28 */\n      0xff\n      and\n      eq\n      iszero\n        /* \"src/voting.sol\":5088:5106  v != 27 && v != 28 */\n    tag_184:\n        /* \"src/voting.sol\":5084:5274  if (v != 27 && v != 28) {... */\n      iszero\n      tag_185\n      jumpi\n        /* \"src/voting.sol\":5131:5132  0 */\n      0x00\n        /* \"src/voting.sol\":5116:5133  return address(0) */\n      swap4\n      pop\n      pop\n      pop\n      pop\n      jump(tag_179)\n        /* \"src/voting.sol\":5084:5274  if (v != 27 && v != 28) {... */\n    tag_185:\n        /* \"src/voting.sol\":5161:5267  ecrecover(keccak256(... */\n      0x01\n        /* \"src/voting.sol\":5243:5248  _hash */\n      dup7\n        /* \"src/voting.sol\":5190:5249  abi.encodePacked(\"\\x19Ethereum Signed Message:\\n32\", _hash) */\n      add(0x20, mload(0x40))\n      tag_187\n      swap2\n      swap1\n      tag_188\n      jump\t// in\n    tag_187:\n      mload(0x40)\n      0x20\n      dup2\n      dup4\n      sub\n      sub\n      dup2\n      mstore\n      swap1\n      0x40\n      mstore\n        /* \"src/voting.sol\":5171:5257  keccak256(... */\n      dup1\n      mload\n      swap1\n      0x20\n      add\n      keccak256\n        /* \"src/voting.sol\":5259:5260  v */\n      dup3\n        /* \"src/voting.sol\":5262:5263  r */\n      dup6\n        /* \"src/voting.sol\":5265:5266  s */\n      dup6\n        /* \"src/voting.sol\":5161:5267  ecrecover(keccak256(... */\n      mload(0x40)\n      0x00\n      dup2\n      mstore\n      0x20\n      add\n      0x40\n      mstore\n      mload(0x40)\n      tag_189\n      swap5\n      swap4\n      swap3\n      swap2\n      swap1\n      tag_190\n      jump\t// in\n    tag_189:\n      0x20\n      mload(0x40)\n      0x20\n      dup2\n      sub\n      swap1\n      dup1\n      dup5\n      sub\n      swap1\n      dup6\n      gas\n      staticcall\n      iszero\n      dup1\n      iszero\n      tag_192\n      jumpi\n      returndatasize\n      0x00\n      dup1\n      returndatacopy\n      revert(0x00, returndatasize)\n    tag_192:\n      pop\n      pop\n      pop\n      mload(sub(mload(0x40), 0x20))\n        /* \"src/voting.sol\":5154:5267  return ecrecover(keccak256(... */\n      swap4\n      pop\n      pop\n      pop\n      pop\n        /* \"src/voting.sol\":4696:5278  function getSigner(bytes32 _hash, bytes memory _signature) internal pure returns (address){... */\n    tag_179:\n      swap3\n      swap2\n      pop\n      pop\n      jump\t// out\n        /* \"src/voting.sol\":2881:3126  function countVote(address Cand, string memory _name, address signer) internal returns(uint){... */\n    tag_115:\n        /* \"src/voting.sol\":2968:2972  uint */\n      0x00\n        /* \"src/voting.sol\":2980:3001  VotingPoll storage VP */\n      dup1\n        /* \"src/voting.sol\":3004:3014  votingPoll */\n      0x01\n        /* \"src/voting.sol\":3015:3020  _name */\n      dup5\n        /* \"src/voting.sol\":3004:3021  votingPoll[_name] */\n      mload(0x40)\n      tag_194\n      swap2\n      swap1\n      tag_91\n      jump\t// in\n    tag_194:\n      swap1\n      dup2\n      mstore\n      0x20\n      add\n      mload(0x40)\n      dup1\n      swap2\n      sub\n      swap1\n      keccak256\n        /* \"src/voting.sol\":2980:3021  VotingPoll storage VP = votingPoll[_name] */\n      swap1\n      pop\n        /* \"src/voting.sol\":3050:3054  true */\n      0x01\n        /* \"src/voting.sol\":3028:3030  VP */\n      dup2\n        /* \"src/voting.sol\":3028:3039  VP.hasVoted */\n      0x04\n      add\n        /* \"src/voting.sol\":3028:3047  VP.hasVoted[signer] */\n      0x00\n        /* \"src/voting.sol\":3040:3046  signer */\n      dup6\n        /* \"src/voting.sol\":3028:3047  VP.hasVoted[signer] */\n      0xffffffffffffffffffffffffffffffffffffffff\n      and\n      0xffffffffffffffffffffffffffffffffffffffff\n      and\n      dup2\n      mstore\n      0x20\n      add\n      swap1\n      dup2\n      mstore\n      0x20\n      add\n      0x00\n      keccak256\n      0x00\n        /* \"src/voting.sol\":3028:3054  VP.hasVoted[signer] = true */\n      0x0100\n      exp\n      dup2\n      sload\n      dup2\n      0xff\n      mul\n      not\n      and\n      swap1\n      dup4\n      iszero\n      iszero\n      mul\n      or\n      swap1\n      sstore\n      pop\n        /* \"src/voting.sol\":3061:3063  VP */\n      dup1\n        /* \"src/voting.sol\":3061:3077  VP.CandidateVote */\n      0x05\n      add\n        /* \"src/voting.sol\":3061:3083  VP.CandidateVote[Cand] */\n      0x00\n        /* \"src/voting.sol\":3078:3082  Cand */\n      dup7\n        /* \"src/voting.sol\":3061:3083  VP.CandidateVote[Cand] */\n      0xffffffffffffffffffffffffffffffffffffffff\n      and\n      0xffffffffffffffffffffffffffffffffffffffff\n      and\n      dup2\n      mstore\n      0x20\n      add\n      swap1\n      dup2\n      mstore\n      0x20\n      add\n      0x00\n      keccak256\n      0x00\n        /* \"src/voting.sol\":3061:3085  VP.CandidateVote[Cand]++ */\n      dup2\n      sload\n      dup1\n      swap3\n      swap2\n      swap1\n      tag_195\n      swap1\n      tag_109\n      jump\t// in\n    tag_195:\n      swap2\n      swap1\n      pop\n      sstore\n      pop\n        /* \"src/voting.sol\":3099:3101  VP */\n      dup1\n        /* \"src/voting.sol\":3099:3115  VP.CandidateVote */\n      0x05\n      add\n        /* \"src/voting.sol\":3099:3121  VP.CandidateVote[Cand] */\n      0x00\n        /* \"src/voting.sol\":3116:3120  Cand */\n      dup7\n        /* \"src/voting.sol\":3099:3121  VP.CandidateVote[Cand] */\n      0xffffffffffffffffffffffffffffffffffffffff\n      and\n      0xffffffffffffffffffffffffffffffffffffffff\n      and\n      dup2\n      mstore\n      0x20\n      add\n      swap1\n      dup2\n      mstore\n      0x20\n      add\n      0x00\n      keccak256\n      sload\n        /* \"src/voting.sol\":3092:3121  return VP.CandidateVote[Cand] */\n      swap2\n      pop\n      pop\n        /* \"src/voting.sol\":2881:3126  function countVote(address Cand, string memory _name, address signer) internal returns(uint){... */\n      swap4\n      swap3\n      pop\n      pop\n      pop\n      jump\t// out\n        /* \"#utility.yul\":7:82   */\n    tag_196:\n        /* \"#utility.yul\":40:46   */\n      0x00\n        /* \"#utility.yul\":73:75   */\n      0x40\n        /* \"#utility.yul\":67:76   */\n      mload\n        /* \"#utility.yul\":57:76   */\n      swap1\n      pop\n        /* \"#utility.yul\":7:82   */\n      swap1\n      jump\t// out\n        /* \"#utility.yul\":88:205   */\n    tag_197:\n        /* \"#utility.yul\":197:198   */\n      0x00\n        /* \"#utility.yul\":194:195   */\n      dup1\n        /* \"#utility.yul\":187:199   */\n      revert\n        /* \"#utility.yul\":211:328   */\n    tag_198:\n        /* \"#utility.yul\":320:321   */\n      0x00\n        /* \"#utility.yul\":317:318   */\n      dup1\n        /* \"#utility.yul\":310:322   */\n      revert\n        /* \"#utility.yul\":334:460   */\n    tag_199:\n        /* \"#utility.yul\":371:378   */\n      0x00\n        /* \"#utility.yul\":411:453   */\n      0xffffffffffffffffffffffffffffffffffffffff\n        /* \"#utility.yul\":404:409   */\n      dup3\n        /* \"#utility.yul\":400:454   */\n      and\n        /* \"#utility.yul\":389:454   */\n      swap1\n      pop\n        /* \"#utility.yul\":334:460   */\n      swap2\n      swap1\n      pop\n      jump\t// out\n        /* \"#utility.yul\":466:562   */\n    tag_200:\n        /* \"#utility.yul\":503:510   */\n      0x00\n        /* \"#utility.yul\":532:556   */\n      tag_285\n        /* \"#utility.yul\":550:555   */\n      dup3\n        /* \"#utility.yul\":532:556   */\n      tag_199\n      jump\t// in\n    tag_285:\n        /* \"#utility.yul\":521:556   */\n      swap1\n      pop\n        /* \"#utility.yul\":466:562   */\n      swap2\n      swap1\n      pop\n      jump\t// out\n        /* \"#utility.yul\":568:690   */\n    tag_201:\n        /* \"#utility.yul\":641:665   */\n      tag_287\n        /* \"#utility.yul\":659:664   */\n      dup2\n        /* \"#utility.yul\":641:665   */\n      tag_200\n      jump\t// in\n    tag_287:\n        /* \"#utility.yul\":634:639   */\n      dup2\n        /* \"#utility.yul\":631:666   */\n      eq\n        /* \"#utility.yul\":621:684   */\n      tag_288\n      jumpi\n        /* \"#utility.yul\":680:681   */\n      0x00\n        /* \"#utility.yul\":677:678   */\n      dup1\n        /* \"#utility.yul\":670:682   */\n      revert\n        /* \"#utility.yul\":621:684   */\n    tag_288:\n        /* \"#utility.yul\":568:690   */\n      pop\n      jump\t// out\n        /* \"#utility.yul\":696:835   */\n    tag_202:\n        /* \"#utility.yul\":742:747   */\n      0x00\n        /* \"#utility.yul\":780:786   */\n      dup2\n        /* \"#utility.yul\":767:787   */\n      calldataload\n        /* \"#utility.yul\":758:787   */\n      swap1\n      pop\n        /* \"#utility.yul\":796:829   */\n      tag_290\n        /* \"#utility.yul\":823:828   */\n      dup2\n        /* \"#utility.yul\":796:829   */\n      tag_201\n      jump\t// in\n    tag_290:\n        /* \"#utility.yul\":696:835   */\n      swap3\n      swap2\n      pop\n      pop\n      jump\t// out\n        /* \"#utility.yul\":841:958   */\n    tag_203:\n        /* \"#utility.yul\":950:951   */\n      0x00\n        /* \"#utility.yul\":947:948   */\n      dup1\n        /* \"#utility.yul\":940:952   */\n      revert\n        /* \"#utility.yul\":964:1081   */\n    tag_204:\n        /* \"#utility.yul\":1073:1074   */\n      0x00\n        /* \"#utility.yul\":1070:1071   */\n      dup1\n        /* \"#utility.yul\":1063:1075   */\n      revert\n        /* \"#utility.yul\":1087:1189   */\n    tag_205:\n        /* \"#utility.yul\":1128:1134   */\n      0x00\n        /* \"#utility.yul\":1179:1181   */\n      0x1f\n        /* \"#utility.yul\":1175:1182   */\n      not\n        /* \"#utility.yul\":1170:1172   */\n      0x1f\n        /* \"#utility.yul\":1163:1168   */\n      dup4\n        /* \"#utility.yul\":1159:1173   */\n      add\n        /* \"#utility.yul\":1155:1183   */\n      and\n        /* \"#utility.yul\":1145:1183   */\n      swap1\n      pop\n        /* \"#utility.yul\":1087:1189   */\n      swap2\n      swap1\n      pop\n      jump\t// out\n        /* \"#utility.yul\":1195:1375   */\n    tag_122:\n        /* \"#utility.yul\":1243:1320   */\n      0x4e487b7100000000000000000000000000000000000000000000000000000000\n        /* \"#utility.yul\":1240:1241   */\n      0x00\n        /* \"#utility.yul\":1233:1321   */\n      mstore\n        /* \"#utility.yul\":1340:1344   */\n      0x41\n        /* \"#utility.yul\":1337:1338   */\n      0x04\n        /* \"#utility.yul\":1330:1345   */\n      mstore\n        /* \"#utility.yul\":1364:1368   */\n      0x24\n        /* \"#utility.yul\":1361:1362   */\n      0x00\n        /* \"#utility.yul\":1354:1369   */\n      revert\n        /* \"#utility.yul\":1381:1662   */\n    tag_206:\n        /* \"#utility.yul\":1464:1491   */\n      tag_296\n        /* \"#utility.yul\":1486:1490   */\n      dup3\n        /* \"#utility.yul\":1464:1491   */\n      tag_205\n      jump\t// in\n    tag_296:\n        /* \"#utility.yul\":1456:1462   */\n      dup2\n        /* \"#utility.yul\":1452:1492   */\n      add\n        /* \"#utility.yul\":1594:1600   */\n      dup2\n        /* \"#utility.yul\":1582:1592   */\n      dup2\n        /* \"#utility.yul\":1579:1601   */\n      lt\n        /* \"#utility.yul\":1558:1576   */\n      0xffffffffffffffff\n        /* \"#utility.yul\":1546:1556   */\n      dup3\n        /* \"#utility.yul\":1543:1577   */\n      gt\n        /* \"#utility.yul\":1540:1602   */\n      or\n        /* \"#utility.yul\":1537:1625   */\n      iszero\n      tag_297\n      jumpi\n        /* \"#utility.yul\":1605:1623   */\n      tag_298\n      tag_122\n      jump\t// in\n    tag_298:\n        /* \"#utility.yul\":1537:1625   */\n    tag_297:\n        /* \"#utility.yul\":1645:1655   */\n      dup1\n        /* \"#utility.yul\":1641:1643   */\n      0x40\n        /* \"#utility.yul\":1634:1656   */\n      mstore\n        /* \"#utility.yul\":1424:1662   */\n      pop\n        /* \"#utility.yul\":1381:1662   */\n      pop\n      pop\n      jump\t// out\n        /* \"#utility.yul\":1668:1797   */\n    tag_207:\n        /* \"#utility.yul\":1702:1708   */\n      0x00\n        /* \"#utility.yul\":1729:1749   */\n      tag_300\n      tag_196\n      jump\t// in\n    tag_300:\n        /* \"#utility.yul\":1719:1749   */\n      swap1\n      pop\n        /* \"#utility.yul\":1758:1791   */\n      tag_301\n        /* \"#utility.yul\":1786:1790   */\n      dup3\n        /* \"#utility.yul\":1778:1784   */\n      dup3\n        /* \"#utility.yul\":1758:1791   */\n      tag_206\n      jump\t// in\n    tag_301:\n        /* \"#utility.yul\":1668:1797   */\n      swap2\n      swap1\n      pop\n      jump\t// out\n        /* \"#utility.yul\":1803:2111   */\n    tag_208:\n        /* \"#utility.yul\":1865:1869   */\n      0x00\n        /* \"#utility.yul\":1955:1973   */\n      0xffffffffffffffff\n        /* \"#utility.yul\":1947:1953   */\n      dup3\n        /* \"#utility.yul\":1944:1974   */\n      gt\n        /* \"#utility.yul\":1941:1997   */\n      iszero\n      tag_303\n      jumpi\n        /* \"#utility.yul\":1977:1995   */\n      tag_304\n      tag_122\n      jump\t// in\n    tag_304:\n        /* \"#utility.yul\":1941:1997   */\n    tag_303:\n        /* \"#utility.yul\":2015:2044   */\n      tag_305\n        /* \"#utility.yul\":2037:2043   */\n      dup3\n        /* \"#utility.yul\":2015:2044   */\n      tag_205\n      jump\t// in\n    tag_305:\n        /* \"#utility.yul\":2007:2044   */\n      swap1\n      pop\n        /* \"#utility.yul\":2099:2103   */\n      0x20\n        /* \"#utility.yul\":2093:2097   */\n      dup2\n        /* \"#utility.yul\":2089:2104   */\n      add\n        /* \"#utility.yul\":2081:2104   */\n      swap1\n      pop\n        /* \"#utility.yul\":1803:2111   */\n      swap2\n      swap1\n      pop\n      jump\t// out\n        /* \"#utility.yul\":2117:2271   */\n    tag_209:\n        /* \"#utility.yul\":2201:2207   */\n      dup3\n        /* \"#utility.yul\":2196:2199   */\n      dup2\n        /* \"#utility.yul\":2191:2194   */\n      dup4\n        /* \"#utility.yul\":2178:2208   */\n      calldatacopy\n        /* \"#utility.yul\":2263:2264   */\n      0x00\n        /* \"#utility.yul\":2254:2260   */\n      dup4\n        /* \"#utility.yul\":2249:2252   */\n      dup4\n        /* \"#utility.yul\":2245:2261   */\n      add\n        /* \"#utility.yul\":2238:2265   */\n      mstore\n        /* \"#utility.yul\":2117:2271   */\n      pop\n      pop\n      pop\n      jump\t// out\n        /* \"#utility.yul\":2277:2689   */\n    tag_210:\n        /* \"#utility.yul\":2355:2360   */\n      0x00\n        /* \"#utility.yul\":2380:2446   */\n      tag_308\n        /* \"#utility.yul\":2396:2445   */\n      tag_309\n        /* \"#utility.yul\":2438:2444   */\n      dup5\n        /* \"#utility.yul\":2396:2445   */\n      tag_208\n      jump\t// in\n    tag_309:\n        /* \"#utility.yul\":2380:2446   */\n      tag_207\n      jump\t// in\n    tag_308:\n        /* \"#utility.yul\":2371:2446   */\n      swap1\n      pop\n        /* \"#utility.yul\":2469:2475   */\n      dup3\n        /* \"#utility.yul\":2462:2467   */\n      dup2\n        /* \"#utility.yul\":2455:2476   */\n      mstore\n        /* \"#utility.yul\":2507:2511   */\n      0x20\n        /* \"#utility.yul\":2500:2505   */\n      dup2\n        /* \"#utility.yul\":2496:2512   */\n      add\n        /* \"#utility.yul\":2545:2548   */\n      dup5\n        /* \"#utility.yul\":2536:2542   */\n      dup5\n        /* \"#utility.yul\":2531:2534   */\n      dup5\n        /* \"#utility.yul\":2527:2543   */\n      add\n        /* \"#utility.yul\":2524:2549   */\n      gt\n        /* \"#utility.yul\":2521:2633   */\n      iszero\n      tag_310\n      jumpi\n        /* \"#utility.yul\":2552:2631   */\n      tag_311\n      tag_204\n      jump\t// in\n    tag_311:\n        /* \"#utility.yul\":2521:2633   */\n    tag_310:\n        /* \"#utility.yul\":2642:2683   */\n      tag_312\n        /* \"#utility.yul\":2676:2682   */\n      dup5\n        /* \"#utility.yul\":2671:2674   */\n      dup3\n        /* \"#utility.yul\":2666:2669   */\n      dup6\n        /* \"#utility.yul\":2642:2683   */\n      tag_209\n      jump\t// in\n    tag_312:\n        /* \"#utility.yul\":2361:2689   */\n      pop\n        /* \"#utility.yul\":2277:2689   */\n      swap4\n      swap3\n      pop\n      pop\n      pop\n      jump\t// out\n        /* \"#utility.yul\":2709:3049   */\n    tag_211:\n        /* \"#utility.yul\":2765:2770   */\n      0x00\n        /* \"#utility.yul\":2814:2817   */\n      dup3\n        /* \"#utility.yul\":2807:2811   */\n      0x1f\n        /* \"#utility.yul\":2799:2805   */\n      dup4\n        /* \"#utility.yul\":2795:2812   */\n      add\n        /* \"#utility.yul\":2791:2818   */\n      slt\n        /* \"#utility.yul\":2781:2903   */\n      tag_314\n      jumpi\n        /* \"#utility.yul\":2822:2901   */\n      tag_315\n      tag_203\n      jump\t// in\n    tag_315:\n        /* \"#utility.yul\":2781:2903   */\n    tag_314:\n        /* \"#utility.yul\":2939:2945   */\n      dup2\n        /* \"#utility.yul\":2926:2946   */\n      calldataload\n        /* \"#utility.yul\":2964:3043   */\n      tag_316\n        /* \"#utility.yul\":3039:3042   */\n      dup5\n        /* \"#utility.yul\":3031:3037   */\n      dup3\n        /* \"#utility.yul\":3024:3028   */\n      0x20\n        /* \"#utility.yul\":3016:3022   */\n      dup7\n        /* \"#utility.yul\":3012:3029   */\n      add\n        /* \"#utility.yul\":2964:3043   */\n      tag_210\n      jump\t// in\n    tag_316:\n        /* \"#utility.yul\":2955:3043   */\n      swap2\n      pop\n        /* \"#utility.yul\":2771:3049   */\n      pop\n        /* \"#utility.yul\":2709:3049   */\n      swap3\n      swap2\n      pop\n      pop\n      jump\t// out\n        /* \"#utility.yul\":3055:3132   */\n    tag_212:\n        /* \"#utility.yul\":3092:3099   */\n      0x00\n        /* \"#utility.yul\":3121:3126   */\n      dup2\n        /* \"#utility.yul\":3110:3126   */\n      swap1\n      pop\n        /* \"#utility.yul\":3055:3132   */\n      swap2\n      swap1\n      pop\n      jump\t// out\n        /* \"#utility.yul\":3138:3260   */\n    tag_213:\n        /* \"#utility.yul\":3211:3235   */\n      tag_319\n        /* \"#utility.yul\":3229:3234   */\n      dup2\n        /* \"#utility.yul\":3211:3235   */\n      tag_212\n      jump\t// in\n    tag_319:\n        /* \"#utility.yul\":3204:3209   */\n      dup2\n        /* \"#utility.yul\":3201:3236   */\n      eq\n        /* \"#utility.yul\":3191:3254   */\n      tag_320\n      jumpi\n        /* \"#utility.yul\":3250:3251   */\n      0x00\n        /* \"#utility.yul\":3247:3248   */\n      dup1\n        /* \"#utility.yul\":3240:3252   */\n      revert\n        /* \"#utility.yul\":3191:3254   */\n    tag_320:\n        /* \"#utility.yul\":3138:3260   */\n      pop\n      jump\t// out\n        /* \"#utility.yul\":3266:3405   */\n    tag_214:\n        /* \"#utility.yul\":3312:3317   */\n      0x00\n        /* \"#utility.yul\":3350:3356   */\n      dup2\n        /* \"#utility.yul\":3337:3357   */\n      calldataload\n        /* \"#utility.yul\":3328:3357   */\n      swap1\n      pop\n        /* \"#utility.yul\":3366:3399   */\n      tag_322\n        /* \"#utility.yul\":3393:3398   */\n      dup2\n        /* \"#utility.yul\":3366:3399   */\n      tag_213\n      jump\t// in\n    tag_322:\n        /* \"#utility.yul\":3266:3405   */\n      swap3\n      swap2\n      pop\n      pop\n      jump\t// out\n        /* \"#utility.yul\":3411:4356   */\n    tag_21:\n        /* \"#utility.yul\":3507:3513   */\n      0x00\n        /* \"#utility.yul\":3515:3521   */\n      dup1\n        /* \"#utility.yul\":3523:3529   */\n      0x00\n        /* \"#utility.yul\":3531:3537   */\n      dup1\n        /* \"#utility.yul\":3580:3583   */\n      0x80\n        /* \"#utility.yul\":3568:3577   */\n      dup6\n        /* \"#utility.yul\":3559:3566   */\n      dup8\n        /* \"#utility.yul\":3555:3578   */\n      sub\n        /* \"#utility.yul\":3551:3584   */\n      slt\n        /* \"#utility.yul\":3548:3668   */\n      iszero\n      tag_324\n      jumpi\n        /* \"#utility.yul\":3587:3666   */\n      tag_325\n      tag_197\n      jump\t// in\n    tag_325:\n        /* \"#utility.yul\":3548:3668   */\n    tag_324:\n        /* \"#utility.yul\":3707:3708   */\n      0x00\n        /* \"#utility.yul\":3732:3785   */\n      tag_326\n        /* \"#utility.yul\":3777:3784   */\n      dup8\n        /* \"#utility.yul\":3768:3774   */\n      dup3\n        /* \"#utility.yul\":3757:3766   */\n      dup9\n        /* \"#utility.yul\":3753:3775   */\n      add\n        /* \"#utility.yul\":3732:3785   */\n      tag_202\n      jump\t// in\n    tag_326:\n        /* \"#utility.yul\":3722:3785   */\n      swap5\n      pop\n        /* \"#utility.yul\":3678:3795   */\n      pop\n        /* \"#utility.yul\":3862:3864   */\n      0x20\n        /* \"#utility.yul\":3851:3860   */\n      dup6\n        /* \"#utility.yul\":3847:3865   */\n      add\n        /* \"#utility.yul\":3834:3866   */\n      calldataload\n        /* \"#utility.yul\":3893:3911   */\n      0xffffffffffffffff\n        /* \"#utility.yul\":3885:3891   */\n      dup2\n        /* \"#utility.yul\":3882:3912   */\n      gt\n        /* \"#utility.yul\":3879:3996   */\n      iszero\n      tag_327\n      jumpi\n        /* \"#utility.yul\":3915:3994   */\n      tag_328\n      tag_198\n      jump\t// in\n    tag_328:\n        /* \"#utility.yul\":3879:3996   */\n    tag_327:\n        /* \"#utility.yul\":4020:4083   */\n      tag_329\n        /* \"#utility.yul\":4075:4082   */\n      dup8\n        /* \"#utility.yul\":4066:4072   */\n      dup3\n        /* \"#utility.yul\":4055:4064   */\n      dup9\n        /* \"#utility.yul\":4051:4073   */\n      add\n        /* \"#utility.yul\":4020:4083   */\n      tag_211\n      jump\t// in\n    tag_329:\n        /* \"#utility.yul\":4010:4083   */\n      swap4\n      pop\n        /* \"#utility.yul\":3805:4093   */\n      pop\n        /* \"#utility.yul\":4132:4134   */\n      0x40\n        /* \"#utility.yul\":4158:4211   */\n      tag_330\n        /* \"#utility.yul\":4203:4210   */\n      dup8\n        /* \"#utility.yul\":4194:4200   */\n      dup3\n        /* \"#utility.yul\":4183:4192   */\n      dup9\n        /* \"#utility.yul\":4179:4201   */\n      add\n        /* \"#utility.yul\":4158:4211   */\n      tag_214\n      jump\t// in\n    tag_330:\n        /* \"#utility.yul\":4148:4211   */\n      swap3\n      pop\n        /* \"#utility.yul\":4103:4221   */\n      pop\n        /* \"#utility.yul\":4260:4262   */\n      0x60\n        /* \"#utility.yul\":4286:4339   */\n      tag_331\n        /* \"#utility.yul\":4331:4338   */\n      dup8\n        /* \"#utility.yul\":4322:4328   */\n      dup3\n        /* \"#utility.yul\":4311:4320   */\n      dup9\n        /* \"#utility.yul\":4307:4329   */\n      add\n        /* \"#utility.yul\":4286:4339   */\n      tag_214\n      jump\t// in\n    tag_331:\n        /* \"#utility.yul\":4276:4339   */\n      swap2\n      pop\n        /* \"#utility.yul\":4231:4349   */\n      pop\n        /* \"#utility.yul\":3411:4356   */\n      swap3\n      swap6\n      swap2\n      swap5\n      pop\n      swap3\n      pop\n      jump\t// out\n        /* \"#utility.yul\":4362:4439   */\n    tag_215:\n        /* \"#utility.yul\":4399:4406   */\n      0x00\n        /* \"#utility.yul\":4428:4433   */\n      dup2\n        /* \"#utility.yul\":4417:4433   */\n      swap1\n      pop\n        /* \"#utility.yul\":4362:4439   */\n      swap2\n      swap1\n      pop\n      jump\t// out\n        /* \"#utility.yul\":4445:4563   */\n    tag_216:\n        /* \"#utility.yul\":4532:4556   */\n      tag_334\n        /* \"#utility.yul\":4550:4555   */\n      dup2\n        /* \"#utility.yul\":4532:4556   */\n      tag_215\n      jump\t// in\n    tag_334:\n        /* \"#utility.yul\":4527:4530   */\n      dup3\n        /* \"#utility.yul\":4520:4557   */\n      mstore\n        /* \"#utility.yul\":4445:4563   */\n      pop\n      pop\n      jump\t// out\n        /* \"#utility.yul\":4569:4791   */\n    tag_24:\n        /* \"#utility.yul\":4662:4666   */\n      0x00\n        /* \"#utility.yul\":4700:4702   */\n      0x20\n        /* \"#utility.yul\":4689:4698   */\n      dup3\n        /* \"#utility.yul\":4685:4703   */\n      add\n        /* \"#utility.yul\":4677:4703   */\n      swap1\n      pop\n        /* \"#utility.yul\":4713:4784   */\n      tag_336\n        /* \"#utility.yul\":4781:4782   */\n      0x00\n        /* \"#utility.yul\":4770:4779   */\n      dup4\n        /* \"#utility.yul\":4766:4783   */\n      add\n        /* \"#utility.yul\":4757:4763   */\n      dup5\n        /* \"#utility.yul\":4713:4784   */\n      tag_216\n      jump\t// in\n    tag_336:\n        /* \"#utility.yul\":4569:4791   */\n      swap3\n      swap2\n      pop\n      pop\n      jump\t// out\n        /* \"#utility.yul\":4797:4886   */\n    tag_217:\n        /* \"#utility.yul\":4833:4840   */\n      0x00\n        /* \"#utility.yul\":4873:4879   */\n      0xffff\n        /* \"#utility.yul\":4866:4871   */\n      dup3\n        /* \"#utility.yul\":4862:4880   */\n      and\n        /* \"#utility.yul\":4851:4880   */\n      swap1\n      pop\n        /* \"#utility.yul\":4797:4886   */\n      swap2\n      swap1\n      pop\n      jump\t// out\n        /* \"#utility.yul\":4892:5012   */\n    tag_218:\n        /* \"#utility.yul\":4964:4987   */\n      tag_339\n        /* \"#utility.yul\":4981:4986   */\n      dup2\n        /* \"#utility.yul\":4964:4987   */\n      tag_217\n      jump\t// in\n    tag_339:\n        /* \"#utility.yul\":4957:4962   */\n      dup2\n        /* \"#utility.yul\":4954:4988   */\n      eq\n        /* \"#utility.yul\":4944:5006   */\n      tag_340\n      jumpi\n        /* \"#utility.yul\":5002:5003   */\n      0x00\n        /* \"#utility.yul\":4999:5000   */\n      dup1\n        /* \"#utility.yul\":4992:5004   */\n      revert\n        /* \"#utility.yul\":4944:5006   */\n    tag_340:\n        /* \"#utility.yul\":4892:5012   */\n      pop\n      jump\t// out\n        /* \"#utility.yul\":5018:5155   */\n    tag_219:\n        /* \"#utility.yul\":5063:5068   */\n      0x00\n        /* \"#utility.yul\":5101:5107   */\n      dup2\n        /* \"#utility.yul\":5088:5108   */\n      calldataload\n        /* \"#utility.yul\":5079:5108   */\n      swap1\n      pop\n        /* \"#utility.yul\":5117:5149   */\n      tag_342\n        /* \"#utility.yul\":5143:5148   */\n      dup2\n        /* \"#utility.yul\":5117:5149   */\n      tag_218\n      jump\t// in\n    tag_342:\n        /* \"#utility.yul\":5018:5155   */\n      swap3\n      swap2\n      pop\n      pop\n      jump\t// out\n        /* \"#utility.yul\":5161:5813   */\n    tag_28:\n        /* \"#utility.yul\":5238:5244   */\n      0x00\n        /* \"#utility.yul\":5246:5252   */\n      dup1\n        /* \"#utility.yul\":5295:5297   */\n      0x40\n        /* \"#utility.yul\":5283:5292   */\n      dup4\n        /* \"#utility.yul\":5274:5281   */\n      dup6\n        /* \"#utility.yul\":5270:5293   */\n      sub\n        /* \"#utility.yul\":5266:5298   */\n      slt\n        /* \"#utility.yul\":5263:5382   */\n      iszero\n      tag_344\n      jumpi\n        /* \"#utility.yul\":5301:5380   */\n      tag_345\n      tag_197\n      jump\t// in\n    tag_345:\n        /* \"#utility.yul\":5263:5382   */\n    tag_344:\n        /* \"#utility.yul\":5449:5450   */\n      0x00\n        /* \"#utility.yul\":5438:5447   */\n      dup4\n        /* \"#utility.yul\":5434:5451   */\n      add\n        /* \"#utility.yul\":5421:5452   */\n      calldataload\n        /* \"#utility.yul\":5479:5497   */\n      0xffffffffffffffff\n        /* \"#utility.yul\":5471:5477   */\n      dup2\n        /* \"#utility.yul\":5468:5498   */\n      gt\n        /* \"#utility.yul\":5465:5582   */\n      iszero\n      tag_346\n      jumpi\n        /* \"#utility.yul\":5501:5580   */\n      tag_347\n      tag_198\n      jump\t// in\n    tag_347:\n        /* \"#utility.yul\":5465:5582   */\n    tag_346:\n        /* \"#utility.yul\":5606:5669   */\n      tag_348\n        /* \"#utility.yul\":5661:5668   */\n      dup6\n        /* \"#utility.yul\":5652:5658   */\n      dup3\n        /* \"#utility.yul\":5641:5650   */\n      dup7\n        /* \"#utility.yul\":5637:5659   */\n      add\n        /* \"#utility.yul\":5606:5669   */\n      tag_211\n      jump\t// in\n    tag_348:\n        /* \"#utility.yul\":5596:5669   */\n      swap3\n      pop\n        /* \"#utility.yul\":5392:5679   */\n      pop\n        /* \"#utility.yul\":5718:5720   */\n      0x20\n        /* \"#utility.yul\":5744:5796   */\n      tag_349\n        /* \"#utility.yul\":5788:5795   */\n      dup6\n        /* \"#utility.yul\":5779:5785   */\n      dup3\n        /* \"#utility.yul\":5768:5777   */\n      dup7\n        /* \"#utility.yul\":5764:5786   */\n      add\n        /* \"#utility.yul\":5744:5796   */\n      tag_219\n      jump\t// in\n    tag_349:\n        /* \"#utility.yul\":5734:5796   */\n      swap2\n      pop\n        /* \"#utility.yul\":5689:5806   */\n      pop\n        /* \"#utility.yul\":5161:5813   */\n      swap3\n      pop\n      swap3\n      swap1\n      pop\n      jump\t// out\n        /* \"#utility.yul\":5819:5918   */\n    tag_220:\n        /* \"#utility.yul\":5871:5877   */\n      0x00\n        /* \"#utility.yul\":5905:5910   */\n      dup2\n        /* \"#utility.yul\":5899:5911   */\n      mload\n        /* \"#utility.yul\":5889:5911   */\n      swap1\n      pop\n        /* \"#utility.yul\":5819:5918   */\n      swap2\n      swap1\n      pop\n      jump\t// out\n        /* \"#utility.yul\":5924:6093   */\n    tag_221:\n        /* \"#utility.yul\":6008:6019   */\n      0x00\n        /* \"#utility.yul\":6042:6048   */\n      dup3\n        /* \"#utility.yul\":6037:6040   */\n      dup3\n        /* \"#utility.yul\":6030:6049   */\n      mstore\n        /* \"#utility.yul\":6082:6086   */\n      0x20\n        /* \"#utility.yul\":6077:6080   */\n      dup3\n        /* \"#utility.yul\":6073:6087   */\n      add\n        /* \"#utility.yul\":6058:6087   */\n      swap1\n      pop\n        /* \"#utility.yul\":5924:6093   */\n      swap3\n      swap2\n      pop\n      pop\n      jump\t// out\n        /* \"#utility.yul\":6099:6406   */\n    tag_222:\n        /* \"#utility.yul\":6167:6168   */\n      0x00\n        /* \"#utility.yul\":6177:6290   */\n    tag_353:\n        /* \"#utility.yul\":6191:6197   */\n      dup4\n        /* \"#utility.yul\":6188:6189   */\n      dup2\n        /* \"#utility.yul\":6185:6198   */\n      lt\n        /* \"#utility.yul\":6177:6290   */\n      iszero\n      tag_355\n      jumpi\n        /* \"#utility.yul\":6276:6277   */\n      dup1\n        /* \"#utility.yul\":6271:6274   */\n      dup3\n        /* \"#utility.yul\":6267:6278   */\n      add\n        /* \"#utility.yul\":6261:6279   */\n      mload\n        /* \"#utility.yul\":6257:6258   */\n      dup2\n        /* \"#utility.yul\":6252:6255   */\n      dup5\n        /* \"#utility.yul\":6248:6259   */\n      add\n        /* \"#utility.yul\":6241:6280   */\n      mstore\n        /* \"#utility.yul\":6213:6215   */\n      0x20\n        /* \"#utility.yul\":6210:6211   */\n      dup2\n        /* \"#utility.yul\":6206:6216   */\n      add\n        /* \"#utility.yul\":6201:6216   */\n      swap1\n      pop\n        /* \"#utility.yul\":6177:6290   */\n      jump(tag_353)\n    tag_355:\n        /* \"#utility.yul\":6308:6314   */\n      dup4\n        /* \"#utility.yul\":6305:6306   */\n      dup2\n        /* \"#utility.yul\":6302:6315   */\n      gt\n        /* \"#utility.yul\":6299:6400   */\n      iszero\n      tag_356\n      jumpi\n        /* \"#utility.yul\":6388:6389   */\n      0x00\n        /* \"#utility.yul\":6379:6385   */\n      dup5\n        /* \"#utility.yul\":6374:6377   */\n      dup5\n        /* \"#utility.yul\":6370:6386   */\n      add\n        /* \"#utility.yul\":6363:6390   */\n      mstore\n        /* \"#utility.yul\":6299:6400   */\n    tag_356:\n        /* \"#utility.yul\":6148:6406   */\n      pop\n        /* \"#utility.yul\":6099:6406   */\n      pop\n      pop\n      pop\n      jump\t// out\n        /* \"#utility.yul\":6412:6776   */\n    tag_223:\n        /* \"#utility.yul\":6500:6503   */\n      0x00\n        /* \"#utility.yul\":6528:6567   */\n      tag_358\n        /* \"#utility.yul\":6561:6566   */\n      dup3\n        /* \"#utility.yul\":6528:6567   */\n      tag_220\n      jump\t// in\n    tag_358:\n        /* \"#utility.yul\":6583:6654   */\n      tag_359\n        /* \"#utility.yul\":6647:6653   */\n      dup2\n        /* \"#utility.yul\":6642:6645   */\n      dup6\n        /* \"#utility.yul\":6583:6654   */\n      tag_221\n      jump\t// in\n    tag_359:\n        /* \"#utility.yul\":6576:6654   */\n      swap4\n      pop\n        /* \"#utility.yul\":6663:6715   */\n      tag_360\n        /* \"#utility.yul\":6708:6714   */\n      dup2\n        /* \"#utility.yul\":6703:6706   */\n      dup6\n        /* \"#utility.yul\":6696:6700   */\n      0x20\n        /* \"#utility.yul\":6689:6694   */\n      dup7\n        /* \"#utility.yul\":6685:6701   */\n      add\n        /* \"#utility.yul\":6663:6715   */\n      tag_222\n      jump\t// in\n    tag_360:\n        /* \"#utility.yul\":6740:6769   */\n      tag_361\n        /* \"#utility.yul\":6762:6768   */\n      dup2\n        /* \"#utility.yul\":6740:6769   */\n      tag_205\n      jump\t// in\n    tag_361:\n        /* \"#utility.yul\":6735:6738   */\n      dup5\n        /* \"#utility.yul\":6731:6770   */\n      add\n        /* \"#utility.yul\":6724:6770   */\n      swap2\n      pop\n        /* \"#utility.yul\":6504:6776   */\n      pop\n        /* \"#utility.yul\":6412:6776   */\n      swap3\n      swap2\n      pop\n      pop\n      jump\t// out\n        /* \"#utility.yul\":6782:6900   */\n    tag_224:\n        /* \"#utility.yul\":6869:6893   */\n      tag_363\n        /* \"#utility.yul\":6887:6892   */\n      dup2\n        /* \"#utility.yul\":6869:6893   */\n      tag_212\n      jump\t// in\n    tag_363:\n        /* \"#utility.yul\":6864:6867   */\n      dup3\n        /* \"#utility.yul\":6857:6894   */\n      mstore\n        /* \"#utility.yul\":6782:6900   */\n      pop\n      pop\n      jump\t// out\n        /* \"#utility.yul\":6906:7329   */\n    tag_31:\n        /* \"#utility.yul\":7047:7051   */\n      0x00\n        /* \"#utility.yul\":7085:7087   */\n      0x40\n        /* \"#utility.yul\":7074:7083   */\n      dup3\n        /* \"#utility.yul\":7070:7088   */\n      add\n        /* \"#utility.yul\":7062:7088   */\n      swap1\n      pop\n        /* \"#utility.yul\":7134:7143   */\n      dup2\n        /* \"#utility.yul\":7128:7132   */\n      dup2\n        /* \"#utility.yul\":7124:7144   */\n      sub\n        /* \"#utility.yul\":7120:7121   */\n      0x00\n        /* \"#utility.yul\":7109:7118   */\n      dup4\n        /* \"#utility.yul\":7105:7122   */\n      add\n        /* \"#utility.yul\":7098:7145   */\n      mstore\n        /* \"#utility.yul\":7162:7240   */\n      tag_365\n        /* \"#utility.yul\":7235:7239   */\n      dup2\n        /* \"#utility.yul\":7226:7232   */\n      dup6\n        /* \"#utility.yul\":7162:7240   */\n      tag_223\n      jump\t// in\n    tag_365:\n        /* \"#utility.yul\":7154:7240   */\n      swap1\n      pop\n        /* \"#utility.yul\":7250:7322   */\n      tag_366\n        /* \"#utility.yul\":7318:7320   */\n      0x20\n        /* \"#utility.yul\":7307:7316   */\n      dup4\n        /* \"#utility.yul\":7303:7321   */\n      add\n        /* \"#utility.yul\":7294:7300   */\n      dup5\n        /* \"#utility.yul\":7250:7322   */\n      tag_224\n      jump\t// in\n    tag_366:\n        /* \"#utility.yul\":6906:7329   */\n      swap4\n      swap3\n      pop\n      pop\n      pop\n      jump\t// out\n        /* \"#utility.yul\":7335:7642   */\n    tag_225:\n        /* \"#utility.yul\":7396:7400   */\n      0x00\n        /* \"#utility.yul\":7486:7504   */\n      0xffffffffffffffff\n        /* \"#utility.yul\":7478:7484   */\n      dup3\n        /* \"#utility.yul\":7475:7505   */\n      gt\n        /* \"#utility.yul\":7472:7528   */\n      iszero\n      tag_368\n      jumpi\n        /* \"#utility.yul\":7508:7526   */\n      tag_369\n      tag_122\n      jump\t// in\n    tag_369:\n        /* \"#utility.yul\":7472:7528   */\n    tag_368:\n        /* \"#utility.yul\":7546:7575   */\n      tag_370\n        /* \"#utility.yul\":7568:7574   */\n      dup3\n        /* \"#utility.yul\":7546:7575   */\n      tag_205\n      jump\t// in\n    tag_370:\n        /* \"#utility.yul\":7538:7575   */\n      swap1\n      pop\n        /* \"#utility.yul\":7630:7634   */\n      0x20\n        /* \"#utility.yul\":7624:7628   */\n      dup2\n        /* \"#utility.yul\":7620:7635   */\n      add\n        /* \"#utility.yul\":7612:7635   */\n      swap1\n      pop\n        /* \"#utility.yul\":7335:7642   */\n      swap2\n      swap1\n      pop\n      jump\t// out\n        /* \"#utility.yul\":7648:8058   */\n    tag_226:\n        /* \"#utility.yul\":7725:7730   */\n      0x00\n        /* \"#utility.yul\":7750:7815   */\n      tag_372\n        /* \"#utility.yul\":7766:7814   */\n      tag_373\n        /* \"#utility.yul\":7807:7813   */\n      dup5\n        /* \"#utility.yul\":7766:7814   */\n      tag_225\n      jump\t// in\n    tag_373:\n        /* \"#utility.yul\":7750:7815   */\n      tag_207\n      jump\t// in\n    tag_372:\n        /* \"#utility.yul\":7741:7815   */\n      swap1\n      pop\n        /* \"#utility.yul\":7838:7844   */\n      dup3\n        /* \"#utility.yul\":7831:7836   */\n      dup2\n        /* \"#utility.yul\":7824:7845   */\n      mstore\n        /* \"#utility.yul\":7876:7880   */\n      0x20\n        /* \"#utility.yul\":7869:7874   */\n      dup2\n        /* \"#utility.yul\":7865:7881   */\n      add\n        /* \"#utility.yul\":7914:7917   */\n      dup5\n        /* \"#utility.yul\":7905:7911   */\n      dup5\n        /* \"#utility.yul\":7900:7903   */\n      dup5\n        /* \"#utility.yul\":7896:7912   */\n      add\n        /* \"#utility.yul\":7893:7918   */\n      gt\n        /* \"#utility.yul\":7890:8002   */\n      iszero\n      tag_374\n      jumpi\n        /* \"#utility.yul\":7921:8000   */\n      tag_375\n      tag_204\n      jump\t// in\n    tag_375:\n        /* \"#utility.yul\":7890:8002   */\n    tag_374:\n        /* \"#utility.yul\":8011:8052   */\n      tag_376\n        /* \"#utility.yul\":8045:8051   */\n      dup5\n        /* \"#utility.yul\":8040:8043   */\n      dup3\n        /* \"#utility.yul\":8035:8038   */\n      dup6\n        /* \"#utility.yul\":8011:8052   */\n      tag_209\n      jump\t// in\n    tag_376:\n        /* \"#utility.yul\":7731:8058   */\n      pop\n        /* \"#utility.yul\":7648:8058   */\n      swap4\n      swap3\n      pop\n      pop\n      pop\n      jump\t// out\n        /* \"#utility.yul\":8077:8415   */\n    tag_227:\n        /* \"#utility.yul\":8132:8137   */\n      0x00\n        /* \"#utility.yul\":8181:8184   */\n      dup3\n        /* \"#utility.yul\":8174:8178   */\n      0x1f\n        /* \"#utility.yul\":8166:8172   */\n      dup4\n        /* \"#utility.yul\":8162:8179   */\n      add\n        /* \"#utility.yul\":8158:8185   */\n      slt\n        /* \"#utility.yul\":8148:8270   */\n      tag_378\n      jumpi\n        /* \"#utility.yul\":8189:8268   */\n      tag_379\n      tag_203\n      jump\t// in\n    tag_379:\n        /* \"#utility.yul\":8148:8270   */\n    tag_378:\n        /* \"#utility.yul\":8306:8312   */\n      dup2\n        /* \"#utility.yul\":8293:8313   */\n      calldataload\n        /* \"#utility.yul\":8331:8409   */\n      tag_380\n        /* \"#utility.yul\":8405:8408   */\n      dup5\n        /* \"#utility.yul\":8397:8403   */\n      dup3\n        /* \"#utility.yul\":8390:8394   */\n      0x20\n        /* \"#utility.yul\":8382:8388   */\n      dup7\n        /* \"#utility.yul\":8378:8395   */\n      add\n        /* \"#utility.yul\":8331:8409   */\n      tag_226\n      jump\t// in\n    tag_380:\n        /* \"#utility.yul\":8322:8409   */\n      swap2\n      pop\n        /* \"#utility.yul\":8138:8415   */\n      pop\n        /* \"#utility.yul\":8077:8415   */\n      swap3\n      swap2\n      pop\n      pop\n      jump\t// out\n        /* \"#utility.yul\":8421:9544   */\n    tag_35:\n        /* \"#utility.yul\":8526:8532   */\n      0x00\n        /* \"#utility.yul\":8534:8540   */\n      dup1\n        /* \"#utility.yul\":8542:8548   */\n      0x00\n        /* \"#utility.yul\":8550:8556   */\n      dup1\n        /* \"#utility.yul\":8599:8602   */\n      0x80\n        /* \"#utility.yul\":8587:8596   */\n      dup6\n        /* \"#utility.yul\":8578:8585   */\n      dup8\n        /* \"#utility.yul\":8574:8597   */\n      sub\n        /* \"#utility.yul\":8570:8603   */\n      slt\n        /* \"#utility.yul\":8567:8687   */\n      iszero\n      tag_382\n      jumpi\n        /* \"#utility.yul\":8606:8685   */\n      tag_383\n      tag_197\n      jump\t// in\n    tag_383:\n        /* \"#utility.yul\":8567:8687   */\n    tag_382:\n        /* \"#utility.yul\":8726:8727   */\n      0x00\n        /* \"#utility.yul\":8751:8804   */\n      tag_384\n        /* \"#utility.yul\":8796:8803   */\n      dup8\n        /* \"#utility.yul\":8787:8793   */\n      dup3\n        /* \"#utility.yul\":8776:8785   */\n      dup9\n        /* \"#utility.yul\":8772:8794   */\n      add\n        /* \"#utility.yul\":8751:8804   */\n      tag_202\n      jump\t// in\n    tag_384:\n        /* \"#utility.yul\":8741:8804   */\n      swap5\n      pop\n        /* \"#utility.yul\":8697:8814   */\n      pop\n        /* \"#utility.yul\":8881:8883   */\n      0x20\n        /* \"#utility.yul\":8870:8879   */\n      dup6\n        /* \"#utility.yul\":8866:8884   */\n      add\n        /* \"#utility.yul\":8853:8885   */\n      calldataload\n        /* \"#utility.yul\":8912:8930   */\n      0xffffffffffffffff\n        /* \"#utility.yul\":8904:8910   */\n      dup2\n        /* \"#utility.yul\":8901:8931   */\n      gt\n        /* \"#utility.yul\":8898:9015   */\n      iszero\n      tag_385\n      jumpi\n        /* \"#utility.yul\":8934:9013   */\n      tag_386\n      tag_198\n      jump\t// in\n    tag_386:\n        /* \"#utility.yul\":8898:9015   */\n    tag_385:\n        /* \"#utility.yul\":9039:9102   */\n      tag_387\n        /* \"#utility.yul\":9094:9101   */\n      dup8\n        /* \"#utility.yul\":9085:9091   */\n      dup3\n        /* \"#utility.yul\":9074:9083   */\n      dup9\n        /* \"#utility.yul\":9070:9092   */\n      add\n        /* \"#utility.yul\":9039:9102   */\n      tag_211\n      jump\t// in\n    tag_387:\n        /* \"#utility.yul\":9029:9102   */\n      swap4\n      pop\n        /* \"#utility.yul\":8824:9112   */\n      pop\n        /* \"#utility.yul\":9151:9153   */\n      0x40\n        /* \"#utility.yul\":9177:9230   */\n      tag_388\n        /* \"#utility.yul\":9222:9229   */\n      dup8\n        /* \"#utility.yul\":9213:9219   */\n      dup3\n        /* \"#utility.yul\":9202:9211   */\n      dup9\n        /* \"#utility.yul\":9198:9220   */\n      add\n        /* \"#utility.yul\":9177:9230   */\n      tag_214\n      jump\t// in\n    tag_388:\n        /* \"#utility.yul\":9167:9230   */\n      swap3\n      pop\n        /* \"#utility.yul\":9122:9240   */\n      pop\n        /* \"#utility.yul\":9307:9309   */\n      0x60\n        /* \"#utility.yul\":9296:9305   */\n      dup6\n        /* \"#utility.yul\":9292:9310   */\n      add\n        /* \"#utility.yul\":9279:9311   */\n      calldataload\n        /* \"#utility.yul\":9338:9356   */\n      0xffffffffffffffff\n        /* \"#utility.yul\":9330:9336   */\n      dup2\n        /* \"#utility.yul\":9327:9357   */\n      gt\n        /* \"#utility.yul\":9324:9441   */\n      iszero\n      tag_389\n      jumpi\n        /* \"#utility.yul\":9360:9439   */\n      tag_390\n      tag_198\n      jump\t// in\n    tag_390:\n        /* \"#utility.yul\":9324:9441   */\n    tag_389:\n        /* \"#utility.yul\":9465:9527   */\n      tag_391\n        /* \"#utility.yul\":9519:9526   */\n      dup8\n        /* \"#utility.yul\":9510:9516   */\n      dup3\n        /* \"#utility.yul\":9499:9508   */\n      dup9\n        /* \"#utility.yul\":9495:9517   */\n      add\n        /* \"#utility.yul\":9465:9527   */\n      tag_227\n      jump\t// in\n    tag_391:\n        /* \"#utility.yul\":9455:9527   */\n      swap2\n      pop\n        /* \"#utility.yul\":9250:9537   */\n      pop\n        /* \"#utility.yul\":8421:9544   */\n      swap3\n      swap6\n      swap2\n      swap5\n      pop\n      swap3\n      pop\n      jump\t// out\n        /* \"#utility.yul\":9550:10059   */\n    tag_40:\n        /* \"#utility.yul\":9619:9625   */\n      0x00\n        /* \"#utility.yul\":9668:9670   */\n      0x20\n        /* \"#utility.yul\":9656:9665   */\n      dup3\n        /* \"#utility.yul\":9647:9654   */\n      dup5\n        /* \"#utility.yul\":9643:9666   */\n      sub\n        /* \"#utility.yul\":9639:9671   */\n      slt\n        /* \"#utility.yul\":9636:9755   */\n      iszero\n      tag_393\n      jumpi\n        /* \"#utility.yul\":9674:9753   */\n      tag_394\n      tag_197\n      jump\t// in\n    tag_394:\n        /* \"#utility.yul\":9636:9755   */\n    tag_393:\n        /* \"#utility.yul\":9822:9823   */\n      0x00\n        /* \"#utility.yul\":9811:9820   */\n      dup3\n        /* \"#utility.yul\":9807:9824   */\n      add\n        /* \"#utility.yul\":9794:9825   */\n      calldataload\n        /* \"#utility.yul\":9852:9870   */\n      0xffffffffffffffff\n        /* \"#utility.yul\":9844:9850   */\n      dup2\n        /* \"#utility.yul\":9841:9871   */\n      gt\n        /* \"#utility.yul\":9838:9955   */\n      iszero\n      tag_395\n      jumpi\n        /* \"#utility.yul\":9874:9953   */\n      tag_396\n      tag_198\n      jump\t// in\n    tag_396:\n        /* \"#utility.yul\":9838:9955   */\n    tag_395:\n        /* \"#utility.yul\":9979:10042   */\n      tag_397\n        /* \"#utility.yul\":10034:10041   */\n      dup5\n        /* \"#utility.yul\":10025:10031   */\n      dup3\n        /* \"#utility.yul\":10014:10023   */\n      dup6\n        /* \"#utility.yul\":10010:10032   */\n      add\n        /* \"#utility.yul\":9979:10042   */\n      tag_211\n      jump\t// in\n    tag_397:\n        /* \"#utility.yul\":9969:10042   */\n      swap2\n      pop\n        /* \"#utility.yul\":9765:10052   */\n      pop\n        /* \"#utility.yul\":9550:10059   */\n      swap3\n      swap2\n      pop\n      pop\n      jump\t// out\n        /* \"#utility.yul\":10065:10179   */\n    tag_228:\n        /* \"#utility.yul\":10132:10138   */\n      0x00\n        /* \"#utility.yul\":10166:10171   */\n      dup2\n        /* \"#utility.yul\":10160:10172   */\n      mload\n        /* \"#utility.yul\":10150:10172   */\n      swap1\n      pop\n        /* \"#utility.yul\":10065:10179   */\n      swap2\n      swap1\n      pop\n      jump\t// out\n        /* \"#utility.yul\":10185:10369   */\n    tag_229:\n        /* \"#utility.yul\":10284:10295   */\n      0x00\n        /* \"#utility.yul\":10318:10324   */\n      dup3\n        /* \"#utility.yul\":10313:10316   */\n      dup3\n        /* \"#utility.yul\":10306:10325   */\n      mstore\n        /* \"#utility.yul\":10358:10362   */\n      0x20\n        /* \"#utility.yul\":10353:10356   */\n      dup3\n        /* \"#utility.yul\":10349:10363   */\n      add\n        /* \"#utility.yul\":10334:10363   */\n      swap1\n      pop\n        /* \"#utility.yul\":10185:10369   */\n      swap3\n      swap2\n      pop\n      pop\n      jump\t// out\n        /* \"#utility.yul\":10375:10507   */\n    tag_230:\n        /* \"#utility.yul\":10442:10446   */\n      0x00\n        /* \"#utility.yul\":10465:10468   */\n      dup2\n        /* \"#utility.yul\":10457:10468   */\n      swap1\n      pop\n        /* \"#utility.yul\":10495:10499   */\n      0x20\n        /* \"#utility.yul\":10490:10493   */\n      dup3\n        /* \"#utility.yul\":10486:10500   */\n      add\n        /* \"#utility.yul\":10478:10500   */\n      swap1\n      pop\n        /* \"#utility.yul\":10375:10507   */\n      swap2\n      swap1\n      pop\n      jump\t// out\n        /* \"#utility.yul\":10513:10621   */\n    tag_231:\n        /* \"#utility.yul\":10590:10614   */\n      tag_402\n        /* \"#utility.yul\":10608:10613   */\n      dup2\n        /* \"#utility.yul\":10590:10614   */\n      tag_212\n      jump\t// in\n    tag_402:\n        /* \"#utility.yul\":10585:10588   */\n      dup3\n        /* \"#utility.yul\":10578:10615   */\n      mstore\n        /* \"#utility.yul\":10513:10621   */\n      pop\n      pop\n      jump\t// out\n        /* \"#utility.yul\":10627:10806   */\n    tag_232:\n        /* \"#utility.yul\":10696:10706   */\n      0x00\n        /* \"#utility.yul\":10717:10763   */\n      tag_404\n        /* \"#utility.yul\":10759:10762   */\n      dup4\n        /* \"#utility.yul\":10751:10757   */\n      dup4\n        /* \"#utility.yul\":10717:10763   */\n      tag_231\n      jump\t// in\n    tag_404:\n        /* \"#utility.yul\":10795:10799   */\n      0x20\n        /* \"#utility.yul\":10790:10793   */\n      dup4\n        /* \"#utility.yul\":10786:10800   */\n      add\n        /* \"#utility.yul\":10772:10800   */\n      swap1\n      pop\n        /* \"#utility.yul\":10627:10806   */\n      swap3\n      swap2\n      pop\n      pop\n      jump\t// out\n        /* \"#utility.yul\":10812:10925   */\n    tag_233:\n        /* \"#utility.yul\":10882:10886   */\n      0x00\n        /* \"#utility.yul\":10914:10918   */\n      0x20\n        /* \"#utility.yul\":10909:10912   */\n      dup3\n        /* \"#utility.yul\":10905:10919   */\n      add\n        /* \"#utility.yul\":10897:10919   */\n      swap1\n      pop\n        /* \"#utility.yul\":10812:10925   */\n      swap2\n      swap1\n      pop\n      jump\t// out\n        /* \"#utility.yul\":10961:11693   */\n    tag_234:\n        /* \"#utility.yul\":11080:11083   */\n      0x00\n        /* \"#utility.yul\":11109:11163   */\n      tag_407\n        /* \"#utility.yul\":11157:11162   */\n      dup3\n        /* \"#utility.yul\":11109:11163   */\n      tag_228\n      jump\t// in\n    tag_407:\n        /* \"#utility.yul\":11179:11265   */\n      tag_408\n        /* \"#utility.yul\":11258:11264   */\n      dup2\n        /* \"#utility.yul\":11253:11256   */\n      dup6\n        /* \"#utility.yul\":11179:11265   */\n      tag_229\n      jump\t// in\n    tag_408:\n        /* \"#utility.yul\":11172:11265   */\n      swap4\n      pop\n        /* \"#utility.yul\":11289:11345   */\n      tag_409\n        /* \"#utility.yul\":11339:11344   */\n      dup4\n        /* \"#utility.yul\":11289:11345   */\n      tag_230\n      jump\t// in\n    tag_409:\n        /* \"#utility.yul\":11368:11375   */\n      dup1\n        /* \"#utility.yul\":11399:11400   */\n      0x00\n        /* \"#utility.yul\":11384:11668   */\n    tag_410:\n        /* \"#utility.yul\":11409:11415   */\n      dup4\n        /* \"#utility.yul\":11406:11407   */\n      dup2\n        /* \"#utility.yul\":11403:11416   */\n      lt\n        /* \"#utility.yul\":11384:11668   */\n      iszero\n      tag_412\n      jumpi\n        /* \"#utility.yul\":11485:11491   */\n      dup2\n        /* \"#utility.yul\":11479:11492   */\n      mload\n        /* \"#utility.yul\":11512:11575   */\n      tag_413\n        /* \"#utility.yul\":11571:11574   */\n      dup9\n        /* \"#utility.yul\":11556:11569   */\n      dup3\n        /* \"#utility.yul\":11512:11575   */\n      tag_232\n      jump\t// in\n    tag_413:\n        /* \"#utility.yul\":11505:11575   */\n      swap8\n      pop\n        /* \"#utility.yul\":11598:11658   */\n      tag_414\n        /* \"#utility.yul\":11651:11657   */\n      dup4\n        /* \"#utility.yul\":11598:11658   */\n      tag_233\n      jump\t// in\n    tag_414:\n        /* \"#utility.yul\":11588:11658   */\n      swap3\n      pop\n        /* \"#utility.yul\":11444:11668   */\n      pop\n        /* \"#utility.yul\":11431:11432   */\n      0x01\n        /* \"#utility.yul\":11428:11429   */\n      dup2\n        /* \"#utility.yul\":11424:11433   */\n      add\n        /* \"#utility.yul\":11419:11433   */\n      swap1\n      pop\n        /* \"#utility.yul\":11384:11668   */\n      jump(tag_410)\n    tag_412:\n        /* \"#utility.yul\":11388:11402   */\n      pop\n        /* \"#utility.yul\":11684:11687   */\n      dup6\n        /* \"#utility.yul\":11677:11687   */\n      swap4\n      pop\n        /* \"#utility.yul\":11085:11693   */\n      pop\n      pop\n      pop\n        /* \"#utility.yul\":10961:11693   */\n      swap3\n      swap2\n      pop\n      pop\n      jump\t// out\n        /* \"#utility.yul\":11699:11817   */\n    tag_235:\n        /* \"#utility.yul\":11786:11810   */\n      tag_416\n        /* \"#utility.yul\":11804:11809   */\n      dup2\n        /* \"#utility.yul\":11786:11810   */\n      tag_200\n      jump\t// in\n    tag_416:\n        /* \"#utility.yul\":11781:11784   */\n      dup3\n        /* \"#utility.yul\":11774:11811   */\n      mstore\n        /* \"#utility.yul\":11699:11817   */\n      pop\n      pop\n      jump\t// out\n        /* \"#utility.yul\":11823:12416   */\n    tag_43:\n        /* \"#utility.yul\":12022:12026   */\n      0x00\n        /* \"#utility.yul\":12060:12062   */\n      0x60\n        /* \"#utility.yul\":12049:12058   */\n      dup3\n        /* \"#utility.yul\":12045:12063   */\n      add\n        /* \"#utility.yul\":12037:12063   */\n      swap1\n      pop\n        /* \"#utility.yul\":12109:12118   */\n      dup2\n        /* \"#utility.yul\":12103:12107   */\n      dup2\n        /* \"#utility.yul\":12099:12119   */\n      sub\n        /* \"#utility.yul\":12095:12096   */\n      0x00\n        /* \"#utility.yul\":12084:12093   */\n      dup4\n        /* \"#utility.yul\":12080:12097   */\n      add\n        /* \"#utility.yul\":12073:12120   */\n      mstore\n        /* \"#utility.yul\":12137:12245   */\n      tag_418\n        /* \"#utility.yul\":12240:12244   */\n      dup2\n        /* \"#utility.yul\":12231:12237   */\n      dup7\n        /* \"#utility.yul\":12137:12245   */\n      tag_234\n      jump\t// in\n    tag_418:\n        /* \"#utility.yul\":12129:12245   */\n      swap1\n      pop\n        /* \"#utility.yul\":12255:12327   */\n      tag_419\n        /* \"#utility.yul\":12323:12325   */\n      0x20\n        /* \"#utility.yul\":12312:12321   */\n      dup4\n        /* \"#utility.yul\":12308:12326   */\n      add\n        /* \"#utility.yul\":12299:12305   */\n      dup6\n        /* \"#utility.yul\":12255:12327   */\n      tag_235\n      jump\t// in\n    tag_419:\n        /* \"#utility.yul\":12337:12409   */\n      tag_420\n        /* \"#utility.yul\":12405:12407   */\n      0x40\n        /* \"#utility.yul\":12394:12403   */\n      dup4\n        /* \"#utility.yul\":12390:12408   */\n      add\n        /* \"#utility.yul\":12381:12387   */\n      dup5\n        /* \"#utility.yul\":12337:12409   */\n      tag_224\n      jump\t// in\n    tag_420:\n        /* \"#utility.yul\":11823:12416   */\n      swap5\n      swap4\n      pop\n      pop\n      pop\n      pop\n      jump\t// out\n        /* \"#utility.yul\":12422:13076   */\n    tag_47:\n        /* \"#utility.yul\":12500:12506   */\n      0x00\n        /* \"#utility.yul\":12508:12514   */\n      dup1\n        /* \"#utility.yul\":12557:12559   */\n      0x40\n        /* \"#utility.yul\":12545:12554   */\n      dup4\n        /* \"#utility.yul\":12536:12543   */\n      dup6\n        /* \"#utility.yul\":12532:12555   */\n      sub\n        /* \"#utility.yul\":12528:12560   */\n      slt\n        /* \"#utility.yul\":12525:12644   */\n      iszero\n      tag_422\n      jumpi\n        /* \"#utility.yul\":12563:12642   */\n      tag_423\n      tag_197\n      jump\t// in\n    tag_423:\n        /* \"#utility.yul\":12525:12644   */\n    tag_422:\n        /* \"#utility.yul\":12683:12684   */\n      0x00\n        /* \"#utility.yul\":12708:12761   */\n      tag_424\n        /* \"#utility.yul\":12753:12760   */\n      dup6\n        /* \"#utility.yul\":12744:12750   */\n      dup3\n        /* \"#utility.yul\":12733:12742   */\n      dup7\n        /* \"#utility.yul\":12729:12751   */\n      add\n        /* \"#utility.yul\":12708:12761   */\n      tag_202\n      jump\t// in\n    tag_424:\n        /* \"#utility.yul\":12698:12761   */\n      swap3\n      pop\n        /* \"#utility.yul\":12654:12771   */\n      pop\n        /* \"#utility.yul\":12838:12840   */\n      0x20\n        /* \"#utility.yul\":12827:12836   */\n      dup4\n        /* \"#utility.yul\":12823:12841   */\n      add\n        /* \"#utility.yul\":12810:12842   */\n      calldataload\n        /* \"#utility.yul\":12869:12887   */\n      0xffffffffffffffff\n        /* \"#utility.yul\":12861:12867   */\n      dup2\n        /* \"#utility.yul\":12858:12888   */\n      gt\n        /* \"#utility.yul\":12855:12972   */\n      iszero\n      tag_425\n      jumpi\n        /* \"#utility.yul\":12891:12970   */\n      tag_426\n      tag_198\n      jump\t// in\n    tag_426:\n        /* \"#utility.yul\":12855:12972   */\n    tag_425:\n        /* \"#utility.yul\":12996:13059   */\n      tag_427\n        /* \"#utility.yul\":13051:13058   */\n      dup6\n        /* \"#utility.yul\":13042:13048   */\n      dup3\n        /* \"#utility.yul\":13031:13040   */\n      dup7\n        /* \"#utility.yul\":13027:13049   */\n      add\n        /* \"#utility.yul\":12996:13059   */\n      tag_211\n      jump\t// in\n    tag_427:\n        /* \"#utility.yul\":12986:13059   */\n      swap2\n      pop\n        /* \"#utility.yul\":12781:13069   */\n      pop\n        /* \"#utility.yul\":12422:13076   */\n      swap3\n      pop\n      swap3\n      swap1\n      pop\n      jump\t// out\n        /* \"#utility.yul\":13082:13175   */\n    tag_236:\n        /* \"#utility.yul\":13118:13125   */\n      0x00\n        /* \"#utility.yul\":13158:13168   */\n      0xffffffff\n        /* \"#utility.yul\":13151:13156   */\n      dup3\n        /* \"#utility.yul\":13147:13169   */\n      and\n        /* \"#utility.yul\":13136:13169   */\n      swap1\n      pop\n        /* \"#utility.yul\":13082:13175   */\n      swap2\n      swap1\n      pop\n      jump\t// out\n        /* \"#utility.yul\":13181:13296   */\n    tag_237:\n        /* \"#utility.yul\":13266:13289   */\n      tag_430\n        /* \"#utility.yul\":13283:13288   */\n      dup2\n        /* \"#utility.yul\":13266:13289   */\n      tag_236\n      jump\t// in\n    tag_430:\n        /* \"#utility.yul\":13261:13264   */\n      dup3\n        /* \"#utility.yul\":13254:13290   */\n      mstore\n        /* \"#utility.yul\":13181:13296   */\n      pop\n      pop\n      jump\t// out\n        /* \"#utility.yul\":13302:13403   */\n    tag_238:\n        /* \"#utility.yul\":13338:13345   */\n      0x00\n        /* \"#utility.yul\":13378:13396   */\n      0xffffffffffffffff\n        /* \"#utility.yul\":13371:13376   */\n      dup3\n        /* \"#utility.yul\":13367:13397   */\n      and\n        /* \"#utility.yul\":13356:13397   */\n      swap1\n      pop\n        /* \"#utility.yul\":13302:13403   */\n      swap2\n      swap1\n      pop\n      jump\t// out\n        /* \"#utility.yul\":13409:13524   */\n    tag_239:\n        /* \"#utility.yul\":13494:13517   */\n      tag_433\n        /* \"#utility.yul\":13511:13516   */\n      dup2\n        /* \"#utility.yul\":13494:13517   */\n      tag_238\n      jump\t// in\n    tag_433:\n        /* \"#utility.yul\":13489:13492   */\n      dup3\n        /* \"#utility.yul\":13482:13518   */\n      mstore\n        /* \"#utility.yul\":13409:13524   */\n      pop\n      pop\n      jump\t// out\n        /* \"#utility.yul\":13530:13645   */\n    tag_240:\n        /* \"#utility.yul\":13615:13638   */\n      tag_435\n        /* \"#utility.yul\":13632:13637   */\n      dup2\n        /* \"#utility.yul\":13615:13638   */\n      tag_217\n      jump\t// in\n    tag_435:\n        /* \"#utility.yul\":13610:13613   */\n      dup3\n        /* \"#utility.yul\":13603:13639   */\n      mstore\n        /* \"#utility.yul\":13530:13645   */\n      pop\n      pop\n      jump\t// out\n        /* \"#utility.yul\":13651:13741   */\n    tag_241:\n        /* \"#utility.yul\":13685:13692   */\n      0x00\n        /* \"#utility.yul\":13728:13733   */\n      dup2\n        /* \"#utility.yul\":13721:13734   */\n      iszero\n        /* \"#utility.yul\":13714:13735   */\n      iszero\n        /* \"#utility.yul\":13703:13735   */\n      swap1\n      pop\n        /* \"#utility.yul\":13651:13741   */\n      swap2\n      swap1\n      pop\n      jump\t// out\n        /* \"#utility.yul\":13747:13856   */\n    tag_242:\n        /* \"#utility.yul\":13828:13849   */\n      tag_438\n        /* \"#utility.yul\":13843:13848   */\n      dup2\n        /* \"#utility.yul\":13828:13849   */\n      tag_241\n      jump\t// in\n    tag_438:\n        /* \"#utility.yul\":13823:13826   */\n      dup3\n        /* \"#utility.yul\":13816:13850   */\n      mstore\n        /* \"#utility.yul\":13747:13856   */\n      pop\n      pop\n      jump\t// out\n        /* \"#utility.yul\":13862:14609   */\n    tag_54:\n        /* \"#utility.yul\":14081:14085   */\n      0x00\n        /* \"#utility.yul\":14119:14122   */\n      0xc0\n        /* \"#utility.yul\":14108:14117   */\n      dup3\n        /* \"#utility.yul\":14104:14123   */\n      add\n        /* \"#utility.yul\":14096:14123   */\n      swap1\n      pop\n        /* \"#utility.yul\":14133:14204   */\n      tag_440\n        /* \"#utility.yul\":14201:14202   */\n      0x00\n        /* \"#utility.yul\":14190:14199   */\n      dup4\n        /* \"#utility.yul\":14186:14203   */\n      add\n        /* \"#utility.yul\":14177:14183   */\n      dup10\n        /* \"#utility.yul\":14133:14204   */\n      tag_235\n      jump\t// in\n    tag_440:\n        /* \"#utility.yul\":14214:14284   */\n      tag_441\n        /* \"#utility.yul\":14280:14282   */\n      0x20\n        /* \"#utility.yul\":14269:14278   */\n      dup4\n        /* \"#utility.yul\":14265:14283   */\n      add\n        /* \"#utility.yul\":14256:14262   */\n      dup9\n        /* \"#utility.yul\":14214:14284   */\n      tag_237\n      jump\t// in\n    tag_441:\n        /* \"#utility.yul\":14294:14364   */\n      tag_442\n        /* \"#utility.yul\":14360:14362   */\n      0x40\n        /* \"#utility.yul\":14349:14358   */\n      dup4\n        /* \"#utility.yul\":14345:14363   */\n      add\n        /* \"#utility.yul\":14336:14342   */\n      dup8\n        /* \"#utility.yul\":14294:14364   */\n      tag_239\n      jump\t// in\n    tag_442:\n        /* \"#utility.yul\":14374:14444   */\n      tag_443\n        /* \"#utility.yul\":14440:14442   */\n      0x60\n        /* \"#utility.yul\":14429:14438   */\n      dup4\n        /* \"#utility.yul\":14425:14443   */\n      add\n        /* \"#utility.yul\":14416:14422   */\n      dup7\n        /* \"#utility.yul\":14374:14444   */\n      tag_239\n      jump\t// in\n    tag_443:\n        /* \"#utility.yul\":14454:14525   */\n      tag_444\n        /* \"#utility.yul\":14520:14523   */\n      0x80\n        /* \"#utility.yul\":14509:14518   */\n      dup4\n        /* \"#utility.yul\":14505:14524   */\n      add\n        /* \"#utility.yul\":14496:14502   */\n      dup6\n        /* \"#utility.yul\":14454:14525   */\n      tag_240\n      jump\t// in\n    tag_444:\n        /* \"#utility.yul\":14535:14602   */\n      tag_445\n        /* \"#utility.yul\":14597:14600   */\n      0xa0\n        /* \"#utility.yul\":14586:14595   */\n      dup4\n        /* \"#utility.yul\":14582:14601   */\n      add\n        /* \"#utility.yul\":14573:14579   */\n      dup5\n        /* \"#utility.yul\":14535:14602   */\n      tag_242\n      jump\t// in\n    tag_445:\n        /* \"#utility.yul\":13862:14609   */\n      swap8\n      swap7\n      pop\n      pop\n      pop\n      pop\n      pop\n      pop\n      pop\n      jump\t// out\n        /* \"#utility.yul\":14615:14944   */\n    tag_58:\n        /* \"#utility.yul\":14674:14680   */\n      0x00\n        /* \"#utility.yul\":14723:14725   */\n      0x20\n        /* \"#utility.yul\":14711:14720   */\n      dup3\n        /* \"#utility.yul\":14702:14709   */\n      dup5\n        /* \"#utility.yul\":14698:14721   */\n      sub\n        /* \"#utility.yul\":14694:14726   */\n      slt\n        /* \"#utility.yul\":14691:14810   */\n      iszero\n      tag_447\n      jumpi\n        /* \"#utility.yul\":14729:14808   */\n      tag_448\n      tag_197\n      jump\t// in\n    tag_448:\n        /* \"#utility.yul\":14691:14810   */\n    tag_447:\n        /* \"#utility.yul\":14849:14850   */\n      0x00\n        /* \"#utility.yul\":14874:14927   */\n      tag_449\n        /* \"#utility.yul\":14919:14926   */\n      dup5\n        /* \"#utility.yul\":14910:14916   */\n      dup3\n        /* \"#utility.yul\":14899:14908   */\n      dup6\n        /* \"#utility.yul\":14895:14917   */\n      add\n        /* \"#utility.yul\":14874:14927   */\n      tag_202\n      jump\t// in\n    tag_449:\n        /* \"#utility.yul\":14864:14927   */\n      swap2\n      pop\n        /* \"#utility.yul\":14820:14937   */\n      pop\n        /* \"#utility.yul\":14615:14944   */\n      swap3\n      swap2\n      pop\n      pop\n      jump\t// out\n        /* \"#utility.yul\":14950:15172   */\n    tag_61:\n        /* \"#utility.yul\":15043:15047   */\n      0x00\n        /* \"#utility.yul\":15081:15083   */\n      0x20\n        /* \"#utility.yul\":15070:15079   */\n      dup3\n        /* \"#utility.yul\":15066:15084   */\n      add\n        /* \"#utility.yul\":15058:15084   */\n      swap1\n      pop\n        /* \"#utility.yul\":15094:15165   */\n      tag_451\n        /* \"#utility.yul\":15162:15163   */\n      0x00\n        /* \"#utility.yul\":15151:15160   */\n      dup4\n        /* \"#utility.yul\":15147:15164   */\n      add\n        /* \"#utility.yul\":15138:15144   */\n      dup5\n        /* \"#utility.yul\":15094:15165   */\n      tag_224\n      jump\t// in\n    tag_451:\n        /* \"#utility.yul\":14950:15172   */\n      swap3\n      swap2\n      pop\n      pop\n      jump\t// out\n        /* \"#utility.yul\":15178:15507   */\n    tag_73:\n        /* \"#utility.yul\":15237:15243   */\n      0x00\n        /* \"#utility.yul\":15286:15288   */\n      0x20\n        /* \"#utility.yul\":15274:15283   */\n      dup3\n        /* \"#utility.yul\":15265:15272   */\n      dup5\n        /* \"#utility.yul\":15261:15284   */\n      sub\n        /* \"#utility.yul\":15257:15289   */\n      slt\n        /* \"#utility.yul\":15254:15373   */\n      iszero\n      tag_453\n      jumpi\n        /* \"#utility.yul\":15292:15371   */\n      tag_454\n      tag_197\n      jump\t// in\n    tag_454:\n        /* \"#utility.yul\":15254:15373   */\n    tag_453:\n        /* \"#utility.yul\":15412:15413   */\n      0x00\n        /* \"#utility.yul\":15437:15490   */\n      tag_455\n        /* \"#utility.yul\":15482:15489   */\n      dup5\n        /* \"#utility.yul\":15473:15479   */\n      dup3\n        /* \"#utility.yul\":15462:15471   */\n      dup6\n        /* \"#utility.yul\":15458:15480   */\n      add\n        /* \"#utility.yul\":15437:15490   */\n      tag_214\n      jump\t// in\n    tag_455:\n        /* \"#utility.yul\":15427:15490   */\n      swap2\n      pop\n        /* \"#utility.yul\":15383:15500   */\n      pop\n        /* \"#utility.yul\":15178:15507   */\n      swap3\n      swap2\n      pop\n      pop\n      jump\t// out\n        /* \"#utility.yul\":15513:15627   */\n    tag_243:\n        /* \"#utility.yul\":15580:15586   */\n      0x00\n        /* \"#utility.yul\":15614:15619   */\n      dup2\n        /* \"#utility.yul\":15608:15620   */\n      mload\n        /* \"#utility.yul\":15598:15620   */\n      swap1\n      pop\n        /* \"#utility.yul\":15513:15627   */\n      swap2\n      swap1\n      pop\n      jump\t// out\n        /* \"#utility.yul\":15633:15817   */\n    tag_244:\n        /* \"#utility.yul\":15732:15743   */\n      0x00\n        /* \"#utility.yul\":15766:15772   */\n      dup3\n        /* \"#utility.yul\":15761:15764   */\n      dup3\n        /* \"#utility.yul\":15754:15773   */\n      mstore\n        /* \"#utility.yul\":15806:15810   */\n      0x20\n        /* \"#utility.yul\":15801:15804   */\n      dup3\n        /* \"#utility.yul\":15797:15811   */\n      add\n        /* \"#utility.yul\":15782:15811   */\n      swap1\n      pop\n        /* \"#utility.yul\":15633:15817   */\n      swap3\n      swap2\n      pop\n      pop\n      jump\t// out\n        /* \"#utility.yul\":15823:15955   */\n    tag_245:\n        /* \"#utility.yul\":15890:15894   */\n      0x00\n        /* \"#utility.yul\":15913:15916   */\n      dup2\n        /* \"#utility.yul\":15905:15916   */\n      swap1\n      pop\n        /* \"#utility.yul\":15943:15947   */\n      0x20\n        /* \"#utility.yul\":15938:15941   */\n      dup3\n        /* \"#utility.yul\":15934:15948   */\n      add\n        /* \"#utility.yul\":15926:15948   */\n      swap1\n      pop\n        /* \"#utility.yul\":15823:15955   */\n      swap2\n      swap1\n      pop\n      jump\t// out\n        /* \"#utility.yul\":15961:16069   */\n    tag_246:\n        /* \"#utility.yul\":16038:16062   */\n      tag_460\n        /* \"#utility.yul\":16056:16061   */\n      dup2\n        /* \"#utility.yul\":16038:16062   */\n      tag_200\n      jump\t// in\n    tag_460:\n        /* \"#utility.yul\":16033:16036   */\n      dup3\n        /* \"#utility.yul\":16026:16063   */\n      mstore\n        /* \"#utility.yul\":15961:16069   */\n      pop\n      pop\n      jump\t// out\n        /* \"#utility.yul\":16075:16254   */\n    tag_247:\n        /* \"#utility.yul\":16144:16154   */\n      0x00\n        /* \"#utility.yul\":16165:16211   */\n      tag_462\n        /* \"#utility.yul\":16207:16210   */\n      dup4\n        /* \"#utility.yul\":16199:16205   */\n      dup4\n        /* \"#utility.yul\":16165:16211   */\n      tag_246\n      jump\t// in\n    tag_462:\n        /* \"#utility.yul\":16243:16247   */\n      0x20\n        /* \"#utility.yul\":16238:16241   */\n      dup4\n        /* \"#utility.yul\":16234:16248   */\n      add\n        /* \"#utility.yul\":16220:16248   */\n      swap1\n      pop\n        /* \"#utility.yul\":16075:16254   */\n      swap3\n      swap2\n      pop\n      pop\n      jump\t// out\n        /* \"#utility.yul\":16260:16373   */\n    tag_248:\n        /* \"#utility.yul\":16330:16334   */\n      0x00\n        /* \"#utility.yul\":16362:16366   */\n      0x20\n        /* \"#utility.yul\":16357:16360   */\n      dup3\n        /* \"#utility.yul\":16353:16367   */\n      add\n        /* \"#utility.yul\":16345:16367   */\n      swap1\n      pop\n        /* \"#utility.yul\":16260:16373   */\n      swap2\n      swap1\n      pop\n      jump\t// out\n        /* \"#utility.yul\":16409:17141   */\n    tag_249:\n        /* \"#utility.yul\":16528:16531   */\n      0x00\n        /* \"#utility.yul\":16557:16611   */\n      tag_465\n        /* \"#utility.yul\":16605:16610   */\n      dup3\n        /* \"#utility.yul\":16557:16611   */\n      tag_243\n      jump\t// in\n    tag_465:\n        /* \"#utility.yul\":16627:16713   */\n      tag_466\n        /* \"#utility.yul\":16706:16712   */\n      dup2\n        /* \"#utility.yul\":16701:16704   */\n      dup6\n        /* \"#utility.yul\":16627:16713   */\n      tag_244\n      jump\t// in\n    tag_466:\n        /* \"#utility.yul\":16620:16713   */\n      swap4\n      pop\n        /* \"#utility.yul\":16737:16793   */\n      tag_467\n        /* \"#utility.yul\":16787:16792   */\n      dup4\n        /* \"#utility.yul\":16737:16793   */\n      tag_245\n      jump\t// in\n    tag_467:\n        /* \"#utility.yul\":16816:16823   */\n      dup1\n        /* \"#utility.yul\":16847:16848   */\n      0x00\n        /* \"#utility.yul\":16832:17116   */\n    tag_468:\n        /* \"#utility.yul\":16857:16863   */\n      dup4\n        /* \"#utility.yul\":16854:16855   */\n      dup2\n        /* \"#utility.yul\":16851:16864   */\n      lt\n        /* \"#utility.yul\":16832:17116   */\n      iszero\n      tag_470\n      jumpi\n        /* \"#utility.yul\":16933:16939   */\n      dup2\n        /* \"#utility.yul\":16927:16940   */\n      mload\n        /* \"#utility.yul\":16960:17023   */\n      tag_471\n        /* \"#utility.yul\":17019:17022   */\n      dup9\n        /* \"#utility.yul\":17004:17017   */\n      dup3\n        /* \"#utility.yul\":16960:17023   */\n      tag_247\n      jump\t// in\n    tag_471:\n        /* \"#utility.yul\":16953:17023   */\n      swap8\n      pop\n        /* \"#utility.yul\":17046:17106   */\n      tag_472\n        /* \"#utility.yul\":17099:17105   */\n      dup4\n        /* \"#utility.yul\":17046:17106   */\n      tag_248\n      jump\t// in\n    tag_472:\n        /* \"#utility.yul\":17036:17106   */\n      swap3\n      pop\n        /* \"#utility.yul\":16892:17116   */\n      pop\n        /* \"#utility.yul\":16879:16880   */\n      0x01\n        /* \"#utility.yul\":16876:16877   */\n      dup2\n        /* \"#utility.yul\":16872:16881   */\n      add\n        /* \"#utility.yul\":16867:16881   */\n      swap1\n      pop\n        /* \"#utility.yul\":16832:17116   */\n      jump(tag_468)\n    tag_470:\n        /* \"#utility.yul\":16836:16850   */\n      pop\n        /* \"#utility.yul\":17132:17135   */\n      dup6\n        /* \"#utility.yul\":17125:17135   */\n      swap4\n      pop\n        /* \"#utility.yul\":16533:17141   */\n      pop\n      pop\n      pop\n        /* \"#utility.yul\":16409:17141   */\n      swap3\n      swap2\n      pop\n      pop\n      jump\t// out\n        /* \"#utility.yul\":17147:17520   */\n    tag_81:\n        /* \"#utility.yul\":17290:17294   */\n      0x00\n        /* \"#utility.yul\":17328:17330   */\n      0x20\n        /* \"#utility.yul\":17317:17326   */\n      dup3\n        /* \"#utility.yul\":17313:17331   */\n      add\n        /* \"#utility.yul\":17305:17331   */\n      swap1\n      pop\n        /* \"#utility.yul\":17377:17386   */\n      dup2\n        /* \"#utility.yul\":17371:17375   */\n      dup2\n        /* \"#utility.yul\":17367:17387   */\n      sub\n        /* \"#utility.yul\":17363:17364   */\n      0x00\n        /* \"#utility.yul\":17352:17361   */\n      dup4\n        /* \"#utility.yul\":17348:17365   */\n      add\n        /* \"#utility.yul\":17341:17388   */\n      mstore\n        /* \"#utility.yul\":17405:17513   */\n      tag_474\n        /* \"#utility.yul\":17508:17512   */\n      dup2\n        /* \"#utility.yul\":17499:17505   */\n      dup5\n        /* \"#utility.yul\":17405:17513   */\n      tag_249\n      jump\t// in\n    tag_474:\n        /* \"#utility.yul\":17397:17513   */\n      swap1\n      pop\n        /* \"#utility.yul\":17147:17520   */\n      swap3\n      swap2\n      pop\n      pop\n      jump\t// out\n        /* \"#utility.yul\":17526:17620   */\n    tag_250:\n        /* \"#utility.yul\":17559:17567   */\n      0x00\n        /* \"#utility.yul\":17607:17612   */\n      dup2\n        /* \"#utility.yul\":17603:17605   */\n      0x60\n        /* \"#utility.yul\":17599:17613   */\n      shl\n        /* \"#utility.yul\":17578:17613   */\n      swap1\n      pop\n        /* \"#utility.yul\":17526:17620   */\n      swap2\n      swap1\n      pop\n      jump\t// out\n        /* \"#utility.yul\":17626:17720   */\n    tag_251:\n        /* \"#utility.yul\":17665:17672   */\n      0x00\n        /* \"#utility.yul\":17694:17714   */\n      tag_477\n        /* \"#utility.yul\":17708:17713   */\n      dup3\n        /* \"#utility.yul\":17694:17714   */\n      tag_250\n      jump\t// in\n    tag_477:\n        /* \"#utility.yul\":17683:17714   */\n      swap1\n      pop\n        /* \"#utility.yul\":17626:17720   */\n      swap2\n      swap1\n      pop\n      jump\t// out\n        /* \"#utility.yul\":17726:17826   */\n    tag_252:\n        /* \"#utility.yul\":17765:17772   */\n      0x00\n        /* \"#utility.yul\":17794:17820   */\n      tag_479\n        /* \"#utility.yul\":17814:17819   */\n      dup3\n        /* \"#utility.yul\":17794:17820   */\n      tag_251\n      jump\t// in\n    tag_479:\n        /* \"#utility.yul\":17783:17820   */\n      swap1\n      pop\n        /* \"#utility.yul\":17726:17826   */\n      swap2\n      swap1\n      pop\n      jump\t// out\n        /* \"#utility.yul\":17832:17989   */\n    tag_253:\n        /* \"#utility.yul\":17937:17982   */\n      tag_481\n        /* \"#utility.yul\":17957:17981   */\n      tag_482\n        /* \"#utility.yul\":17975:17980   */\n      dup3\n        /* \"#utility.yul\":17957:17981   */\n      tag_200\n      jump\t// in\n    tag_482:\n        /* \"#utility.yul\":17937:17982   */\n      tag_252\n      jump\t// in\n    tag_481:\n        /* \"#utility.yul\":17932:17935   */\n      dup3\n        /* \"#utility.yul\":17925:17983   */\n      mstore\n        /* \"#utility.yul\":17832:17989   */\n      pop\n      pop\n      jump\t// out\n        /* \"#utility.yul\":17995:18143   */\n    tag_254:\n        /* \"#utility.yul\":18097:18108   */\n      0x00\n        /* \"#utility.yul\":18134:18137   */\n      dup2\n        /* \"#utility.yul\":18119:18137   */\n      swap1\n      pop\n        /* \"#utility.yul\":17995:18143   */\n      swap3\n      swap2\n      pop\n      pop\n      jump\t// out\n        /* \"#utility.yul\":18149:18322   */\n    tag_255:\n        /* \"#utility.yul\":18289:18314   */\n      0x6d6574617472616e73616374696f6e20566f74696e6720000000000000000000\n        /* \"#utility.yul\":18285:18286   */\n      0x00\n        /* \"#utility.yul\":18277:18283   */\n      dup3\n        /* \"#utility.yul\":18273:18287   */\n      add\n        /* \"#utility.yul\":18266:18315   */\n      mstore\n        /* \"#utility.yul\":18149:18322   */\n      pop\n      jump\t// out\n        /* \"#utility.yul\":18328:18730   */\n    tag_256:\n        /* \"#utility.yul\":18488:18491   */\n      0x00\n        /* \"#utility.yul\":18509:18594   */\n      tag_486\n        /* \"#utility.yul\":18591:18593   */\n      0x17\n        /* \"#utility.yul\":18586:18589   */\n      dup4\n        /* \"#utility.yul\":18509:18594   */\n      tag_254\n      jump\t// in\n    tag_486:\n        /* \"#utility.yul\":18502:18594   */\n      swap2\n      pop\n        /* \"#utility.yul\":18603:18696   */\n      tag_487\n        /* \"#utility.yul\":18692:18695   */\n      dup3\n        /* \"#utility.yul\":18603:18696   */\n      tag_255\n      jump\t// in\n    tag_487:\n        /* \"#utility.yul\":18721:18723   */\n      0x17\n        /* \"#utility.yul\":18716:18719   */\n      dup3\n        /* \"#utility.yul\":18712:18724   */\n      add\n        /* \"#utility.yul\":18705:18724   */\n      swap1\n      pop\n        /* \"#utility.yul\":18328:18730   */\n      swap2\n      swap1\n      pop\n      jump\t// out\n        /* \"#utility.yul\":18736:19113   */\n    tag_257:\n        /* \"#utility.yul\":18842:18845   */\n      0x00\n        /* \"#utility.yul\":18870:18909   */\n      tag_489\n        /* \"#utility.yul\":18903:18908   */\n      dup3\n        /* \"#utility.yul\":18870:18909   */\n      tag_220\n      jump\t// in\n    tag_489:\n        /* \"#utility.yul\":18925:19014   */\n      tag_490\n        /* \"#utility.yul\":19007:19013   */\n      dup2\n        /* \"#utility.yul\":19002:19005   */\n      dup6\n        /* \"#utility.yul\":18925:19014   */\n      tag_254\n      jump\t// in\n    tag_490:\n        /* \"#utility.yul\":18918:19014   */\n      swap4\n      pop\n        /* \"#utility.yul\":19023:19075   */\n      tag_491\n        /* \"#utility.yul\":19068:19074   */\n      dup2\n        /* \"#utility.yul\":19063:19066   */\n      dup6\n        /* \"#utility.yul\":19056:19060   */\n      0x20\n        /* \"#utility.yul\":19049:19054   */\n      dup7\n        /* \"#utility.yul\":19045:19061   */\n      add\n        /* \"#utility.yul\":19023:19075   */\n      tag_222\n      jump\t// in\n    tag_491:\n        /* \"#utility.yul\":19100:19106   */\n      dup1\n        /* \"#utility.yul\":19095:19098   */\n      dup5\n        /* \"#utility.yul\":19091:19107   */\n      add\n        /* \"#utility.yul\":19084:19107   */\n      swap2\n      pop\n        /* \"#utility.yul\":18846:19113   */\n      pop\n        /* \"#utility.yul\":18736:19113   */\n      swap3\n      swap2\n      pop\n      pop\n      jump\t// out\n        /* \"#utility.yul\":19119:19198   */\n    tag_258:\n        /* \"#utility.yul\":19158:19165   */\n      0x00\n        /* \"#utility.yul\":19187:19192   */\n      dup2\n        /* \"#utility.yul\":19176:19192   */\n      swap1\n      pop\n        /* \"#utility.yul\":19119:19198   */\n      swap2\n      swap1\n      pop\n      jump\t// out\n        /* \"#utility.yul\":19204:19361   */\n    tag_259:\n        /* \"#utility.yul\":19309:19354   */\n      tag_494\n        /* \"#utility.yul\":19329:19353   */\n      tag_495\n        /* \"#utility.yul\":19347:19352   */\n      dup3\n        /* \"#utility.yul\":19329:19353   */\n      tag_212\n      jump\t// in\n    tag_495:\n        /* \"#utility.yul\":19309:19354   */\n      tag_258\n      jump\t// in\n    tag_494:\n        /* \"#utility.yul\":19304:19307   */\n      dup3\n        /* \"#utility.yul\":19297:19355   */\n      mstore\n        /* \"#utility.yul\":19204:19361   */\n      pop\n      pop\n      jump\t// out\n        /* \"#utility.yul\":19367:20472   */\n    tag_88:\n        /* \"#utility.yul\":19712:19715   */\n      0x00\n        /* \"#utility.yul\":19727:19802   */\n      tag_497\n        /* \"#utility.yul\":19798:19801   */\n      dup3\n        /* \"#utility.yul\":19789:19795   */\n      dup9\n        /* \"#utility.yul\":19727:19802   */\n      tag_253\n      jump\t// in\n    tag_497:\n        /* \"#utility.yul\":19827:19829   */\n      0x14\n        /* \"#utility.yul\":19822:19825   */\n      dup3\n        /* \"#utility.yul\":19818:19830   */\n      add\n        /* \"#utility.yul\":19811:19830   */\n      swap2\n      pop\n        /* \"#utility.yul\":19847:19995   */\n      tag_498\n        /* \"#utility.yul\":19991:19994   */\n      dup3\n        /* \"#utility.yul\":19847:19995   */\n      tag_256\n      jump\t// in\n    tag_498:\n        /* \"#utility.yul\":19840:19995   */\n      swap2\n      pop\n        /* \"#utility.yul\":20005:20080   */\n      tag_499\n        /* \"#utility.yul\":20076:20079   */\n      dup3\n        /* \"#utility.yul\":20067:20073   */\n      dup8\n        /* \"#utility.yul\":20005:20080   */\n      tag_253\n      jump\t// in\n    tag_499:\n        /* \"#utility.yul\":20105:20107   */\n      0x14\n        /* \"#utility.yul\":20100:20103   */\n      dup3\n        /* \"#utility.yul\":20096:20108   */\n      add\n        /* \"#utility.yul\":20089:20108   */\n      swap2\n      pop\n        /* \"#utility.yul\":20125:20220   */\n      tag_500\n        /* \"#utility.yul\":20216:20219   */\n      dup3\n        /* \"#utility.yul\":20207:20213   */\n      dup7\n        /* \"#utility.yul\":20125:20220   */\n      tag_257\n      jump\t// in\n    tag_500:\n        /* \"#utility.yul\":20118:20220   */\n      swap2\n      pop\n        /* \"#utility.yul\":20230:20305   */\n      tag_501\n        /* \"#utility.yul\":20301:20304   */\n      dup3\n        /* \"#utility.yul\":20292:20298   */\n      dup6\n        /* \"#utility.yul\":20230:20305   */\n      tag_259\n      jump\t// in\n    tag_501:\n        /* \"#utility.yul\":20330:20332   */\n      0x20\n        /* \"#utility.yul\":20325:20328   */\n      dup3\n        /* \"#utility.yul\":20321:20333   */\n      add\n        /* \"#utility.yul\":20314:20333   */\n      swap2\n      pop\n        /* \"#utility.yul\":20343:20418   */\n      tag_502\n        /* \"#utility.yul\":20414:20417   */\n      dup3\n        /* \"#utility.yul\":20405:20411   */\n      dup5\n        /* \"#utility.yul\":20343:20418   */\n      tag_259\n      jump\t// in\n    tag_502:\n        /* \"#utility.yul\":20443:20445   */\n      0x20\n        /* \"#utility.yul\":20438:20441   */\n      dup3\n        /* \"#utility.yul\":20434:20446   */\n      add\n        /* \"#utility.yul\":20427:20446   */\n      swap2\n      pop\n        /* \"#utility.yul\":20463:20466   */\n      dup2\n        /* \"#utility.yul\":20456:20466   */\n      swap1\n      pop\n        /* \"#utility.yul\":19367:20472   */\n      swap7\n      swap6\n      pop\n      pop\n      pop\n      pop\n      pop\n      pop\n      jump\t// out\n        /* \"#utility.yul\":20478:20753   */\n    tag_91:\n        /* \"#utility.yul\":20610:20613   */\n      0x00\n        /* \"#utility.yul\":20632:20727   */\n      tag_504\n        /* \"#utility.yul\":20723:20726   */\n      dup3\n        /* \"#utility.yul\":20714:20720   */\n      dup5\n        /* \"#utility.yul\":20632:20727   */\n      tag_257\n      jump\t// in\n    tag_504:\n        /* \"#utility.yul\":20625:20727   */\n      swap2\n      pop\n        /* \"#utility.yul\":20744:20747   */\n      dup2\n        /* \"#utility.yul\":20737:20747   */\n      swap1\n      pop\n        /* \"#utility.yul\":20478:20753   */\n      swap3\n      swap2\n      pop\n      pop\n      jump\t// out\n        /* \"#utility.yul\":20759:20988   */\n    tag_260:\n        /* \"#utility.yul\":20899:20933   */\n      0x54686973206164647265737320646f6573206e6f742065786973742061732061\n        /* \"#utility.yul\":20895:20896   */\n      0x00\n        /* \"#utility.yul\":20887:20893   */\n      dup3\n        /* \"#utility.yul\":20883:20897   */\n      add\n        /* \"#utility.yul\":20876:20934   */\n      mstore\n        /* \"#utility.yul\":20968:20980   */\n      0x2063616e64696461746500000000000000000000000000000000000000000000\n        /* \"#utility.yul\":20963:20965   */\n      0x20\n        /* \"#utility.yul\":20955:20961   */\n      dup3\n        /* \"#utility.yul\":20951:20966   */\n      add\n        /* \"#utility.yul\":20944:20981   */\n      mstore\n        /* \"#utility.yul\":20759:20988   */\n      pop\n      jump\t// out\n        /* \"#utility.yul\":20994:21360   */\n    tag_261:\n        /* \"#utility.yul\":21136:21139   */\n      0x00\n        /* \"#utility.yul\":21157:21224   */\n      tag_507\n        /* \"#utility.yul\":21221:21223   */\n      0x2a\n        /* \"#utility.yul\":21216:21219   */\n      dup4\n        /* \"#utility.yul\":21157:21224   */\n      tag_221\n      jump\t// in\n    tag_507:\n        /* \"#utility.yul\":21150:21224   */\n      swap2\n      pop\n        /* \"#utility.yul\":21233:21326   */\n      tag_508\n        /* \"#utility.yul\":21322:21325   */\n      dup3\n        /* \"#utility.yul\":21233:21326   */\n      tag_260\n      jump\t// in\n    tag_508:\n        /* \"#utility.yul\":21351:21353   */\n      0x40\n        /* \"#utility.yul\":21346:21349   */\n      dup3\n        /* \"#utility.yul\":21342:21354   */\n      add\n        /* \"#utility.yul\":21335:21354   */\n      swap1\n      pop\n        /* \"#utility.yul\":20994:21360   */\n      swap2\n      swap1\n      pop\n      jump\t// out\n        /* \"#utility.yul\":21366:21785   */\n    tag_96:\n        /* \"#utility.yul\":21532:21536   */\n      0x00\n        /* \"#utility.yul\":21570:21572   */\n      0x20\n        /* \"#utility.yul\":21559:21568   */\n      dup3\n        /* \"#utility.yul\":21555:21573   */\n      add\n        /* \"#utility.yul\":21547:21573   */\n      swap1\n      pop\n        /* \"#utility.yul\":21619:21628   */\n      dup2\n        /* \"#utility.yul\":21613:21617   */\n      dup2\n        /* \"#utility.yul\":21609:21629   */\n      sub\n        /* \"#utility.yul\":21605:21606   */\n      0x00\n        /* \"#utility.yul\":21594:21603   */\n      dup4\n        /* \"#utility.yul\":21590:21607   */\n      add\n        /* \"#utility.yul\":21583:21630   */\n      mstore\n        /* \"#utility.yul\":21647:21778   */\n      tag_510\n        /* \"#utility.yul\":21773:21777   */\n      dup2\n        /* \"#utility.yul\":21647:21778   */\n      tag_261\n      jump\t// in\n    tag_510:\n        /* \"#utility.yul\":21639:21778   */\n      swap1\n      pop\n        /* \"#utility.yul\":21366:21785   */\n      swap2\n      swap1\n      pop\n      jump\t// out\n        /* \"#utility.yul\":21791:21957   */\n    tag_262:\n        /* \"#utility.yul\":21931:21949   */\n      0x766f74696e672068617320656e64656400000000000000000000000000000000\n        /* \"#utility.yul\":21927:21928   */\n      0x00\n        /* \"#utility.yul\":21919:21925   */\n      dup3\n        /* \"#utility.yul\":21915:21929   */\n      add\n        /* \"#utility.yul\":21908:21950   */\n      mstore\n        /* \"#utility.yul\":21791:21957   */\n      pop\n      jump\t// out\n        /* \"#utility.yul\":21963:22329   */\n    tag_263:\n        /* \"#utility.yul\":22105:22108   */\n      0x00\n        /* \"#utility.yul\":22126:22193   */\n      tag_513\n        /* \"#utility.yul\":22190:22192   */\n      0x10\n        /* \"#utility.yul\":22185:22188   */\n      dup4\n        /* \"#utility.yul\":22126:22193   */\n      tag_221\n      jump\t// in\n    tag_513:\n        /* \"#utility.yul\":22119:22193   */\n      swap2\n      pop\n        /* \"#utility.yul\":22202:22295   */\n      tag_514\n        /* \"#utility.yul\":22291:22294   */\n      dup3\n        /* \"#utility.yul\":22202:22295   */\n      tag_262\n      jump\t// in\n    tag_514:\n        /* \"#utility.yul\":22320:22322   */\n      0x20\n        /* \"#utility.yul\":22315:22318   */\n      dup3\n        /* \"#utility.yul\":22311:22323   */\n      add\n        /* \"#utility.yul\":22304:22323   */\n      swap1\n      pop\n        /* \"#utility.yul\":21963:22329   */\n      swap2\n      swap1\n      pop\n      jump\t// out\n        /* \"#utility.yul\":22335:22754   */\n    tag_101:\n        /* \"#utility.yul\":22501:22505   */\n      0x00\n        /* \"#utility.yul\":22539:22541   */\n      0x20\n        /* \"#utility.yul\":22528:22537   */\n      dup3\n        /* \"#utility.yul\":22524:22542   */\n      add\n        /* \"#utility.yul\":22516:22542   */\n      swap1\n      pop\n        /* \"#utility.yul\":22588:22597   */\n      dup2\n        /* \"#utility.yul\":22582:22586   */\n      dup2\n        /* \"#utility.yul\":22578:22598   */\n      sub\n        /* \"#utility.yul\":22574:22575   */\n      0x00\n        /* \"#utility.yul\":22563:22572   */\n      dup4\n        /* \"#utility.yul\":22559:22576   */\n      add\n        /* \"#utility.yul\":22552:22599   */\n      mstore\n        /* \"#utility.yul\":22616:22747   */\n      tag_516\n        /* \"#utility.yul\":22742:22746   */\n      dup2\n        /* \"#utility.yul\":22616:22747   */\n      tag_263\n      jump\t// in\n    tag_516:\n        /* \"#utility.yul\":22608:22747   */\n      swap1\n      pop\n        /* \"#utility.yul\":22335:22754   */\n      swap2\n      swap1\n      pop\n      jump\t// out\n        /* \"#utility.yul\":22760:22940   */\n    tag_264:\n        /* \"#utility.yul\":22808:22885   */\n      0x4e487b7100000000000000000000000000000000000000000000000000000000\n        /* \"#utility.yul\":22805:22806   */\n      0x00\n        /* \"#utility.yul\":22798:22886   */\n      mstore\n        /* \"#utility.yul\":22905:22909   */\n      0x11\n        /* \"#utility.yul\":22902:22903   */\n      0x04\n        /* \"#utility.yul\":22895:22910   */\n      mstore\n        /* \"#utility.yul\":22929:22933   */\n      0x24\n        /* \"#utility.yul\":22926:22927   */\n      0x00\n        /* \"#utility.yul\":22919:22934   */\n      revert\n        /* \"#utility.yul\":22946:23179   */\n    tag_109:\n        /* \"#utility.yul\":22985:22988   */\n      0x00\n        /* \"#utility.yul\":23008:23032   */\n      tag_519\n        /* \"#utility.yul\":23026:23031   */\n      dup3\n        /* \"#utility.yul\":23008:23032   */\n      tag_212\n      jump\t// in\n    tag_519:\n        /* \"#utility.yul\":22999:23032   */\n      swap2\n      pop\n        /* \"#utility.yul\":23054:23120   */\n      0xffffffffffffffffffffffffffffffffffffffffffffffffffffffffffffffff\n        /* \"#utility.yul\":23047:23052   */\n      dup3\n        /* \"#utility.yul\":23044:23121   */\n      eq\n        /* \"#utility.yul\":23041:23144   */\n      iszero\n      tag_520\n      jumpi\n        /* \"#utility.yul\":23124:23142   */\n      tag_521\n      tag_264\n      jump\t// in\n    tag_521:\n        /* \"#utility.yul\":23041:23144   */\n    tag_520:\n        /* \"#utility.yul\":23171:23172   */\n      0x01\n        /* \"#utility.yul\":23164:23169   */\n      dup3\n        /* \"#utility.yul\":23160:23173   */\n      add\n        /* \"#utility.yul\":23153:23173   */\n      swap1\n      pop\n        /* \"#utility.yul\":22946:23179   */\n      swap2\n      swap1\n      pop\n      jump\t// out\n        /* \"#utility.yul\":23185:23352   */\n    tag_265:\n        /* \"#utility.yul\":23325:23344   */\n      0x596f7520616c726561647920766f746564000000000000000000000000000000\n        /* \"#utility.yul\":23321:23322   */\n      0x00\n        /* \"#utility.yul\":23313:23319   */\n      dup3\n        /* \"#utility.yul\":23309:23323   */\n      add\n        /* \"#utility.yul\":23302:23345   */\n      mstore\n        /* \"#utility.yul\":23185:23352   */\n      pop\n      jump\t// out\n        /* \"#utility.yul\":23358:23724   */\n    tag_266:\n        /* \"#utility.yul\":23500:23503   */\n      0x00\n        /* \"#utility.yul\":23521:23588   */\n      tag_524\n        /* \"#utility.yul\":23585:23587   */\n      0x11\n        /* \"#utility.yul\":23580:23583   */\n      dup4\n        /* \"#utility.yul\":23521:23588   */\n      tag_221\n      jump\t// in\n    tag_524:\n        /* \"#utility.yul\":23514:23588   */\n      swap2\n      pop\n        /* \"#utility.yul\":23597:23690   */\n      tag_525\n        /* \"#utility.yul\":23686:23689   */\n      dup3\n        /* \"#utility.yul\":23597:23690   */\n      tag_265\n      jump\t// in\n    tag_525:\n        /* \"#utility.yul\":23715:23717   */\n      0x20\n        /* \"#utility.yul\":23710:23713   */\n      dup3\n        /* \"#utility.yul\":23706:23718   */\n      add\n        /* \"#utility.yul\":23699:23718   */\n      swap1\n      pop\n        /* \"#utility.yul\":23358:23724   */\n      swap2\n      swap1\n      pop\n      jump\t// out\n        /* \"#utility.yul\":23730:24149   */\n    tag_113:\n        /* \"#utility.yul\":23896:23900   */\n      0x00\n        /* \"#utility.yul\":23934:23936   */\n      0x20\n        /* \"#utility.yul\":23923:23932   */\n      dup3\n        /* \"#utility.yul\":23919:23937   */\n      add\n        /* \"#utility.yul\":23911:23937   */\n      swap1\n      pop\n        /* \"#utility.yul\":23983:23992   */\n      dup2\n        /* \"#utility.yul\":23977:23981   */\n      dup2\n        /* \"#utility.yul\":23973:23993   */\n      sub\n        /* \"#utility.yul\":23969:23970   */\n      0x00\n        /* \"#utility.yul\":23958:23967   */\n      dup4\n        /* \"#utility.yul\":23954:23971   */\n      add\n        /* \"#utility.yul\":23947:23994   */\n      mstore\n        /* \"#utility.yul\":24011:24142   */\n      tag_527\n        /* \"#utility.yul\":24137:24141   */\n      dup2\n        /* \"#utility.yul\":24011:24142   */\n      tag_266\n      jump\t// in\n    tag_527:\n        /* \"#utility.yul\":24003:24142   */\n      swap1\n      pop\n        /* \"#utility.yul\":23730:24149   */\n      swap2\n      swap1\n      pop\n      jump\t// out\n        /* \"#utility.yul\":24155:24475   */\n    tag_117:\n        /* \"#utility.yul\":24270:24274   */\n      0x00\n        /* \"#utility.yul\":24308:24310   */\n      0x40\n        /* \"#utility.yul\":24297:24306   */\n      dup3\n        /* \"#utility.yul\":24293:24311   */\n      add\n        /* \"#utility.yul\":24285:24311   */\n      swap1\n      pop\n        /* \"#utility.yul\":24321:24392   */\n      tag_529\n        /* \"#utility.yul\":24389:24390   */\n      0x00\n        /* \"#utility.yul\":24378:24387   */\n      dup4\n        /* \"#utility.yul\":24374:24391   */\n      add\n        /* \"#utility.yul\":24365:24371   */\n      dup6\n        /* \"#utility.yul\":24321:24392   */\n      tag_235\n      jump\t// in\n    tag_529:\n        /* \"#utility.yul\":24402:24468   */\n      tag_530\n        /* \"#utility.yul\":24464:24466   */\n      0x20\n        /* \"#utility.yul\":24453:24462   */\n      dup4\n        /* \"#utility.yul\":24449:24467   */\n      add\n        /* \"#utility.yul\":24440:24446   */\n      dup5\n        /* \"#utility.yul\":24402:24468   */\n      tag_242\n      jump\t// in\n    tag_530:\n        /* \"#utility.yul\":24155:24475   */\n      swap4\n      swap3\n      pop\n      pop\n      pop\n      jump\t// out\n        /* \"#utility.yul\":24481:24661   */\n    tag_129:\n        /* \"#utility.yul\":24529:24606   */\n      0x4e487b7100000000000000000000000000000000000000000000000000000000\n        /* \"#utility.yul\":24526:24527   */\n      0x00\n        /* \"#utility.yul\":24519:24607   */\n      mstore\n        /* \"#utility.yul\":24626:24630   */\n      0x32\n        /* \"#utility.yul\":24623:24624   */\n      0x04\n        /* \"#utility.yul\":24616:24631   */\n      mstore\n        /* \"#utility.yul\":24650:24654   */\n      0x24\n        /* \"#utility.yul\":24647:24648   */\n      0x00\n        /* \"#utility.yul\":24640:24655   */\n      revert\n        /* \"#utility.yul\":24667:24837   */\n    tag_267:\n        /* \"#utility.yul\":24807:24829   */\n      0x79657420746f20637265617465206120706f6c6c000000000000000000000000\n        /* \"#utility.yul\":24803:24804   */\n      0x00\n        /* \"#utility.yul\":24795:24801   */\n      dup3\n        /* \"#utility.yul\":24791:24805   */\n      add\n        /* \"#utility.yul\":24784:24830   */\n      mstore\n        /* \"#utility.yul\":24667:24837   */\n      pop\n      jump\t// out\n        /* \"#utility.yul\":24843:25209   */\n    tag_268:\n        /* \"#utility.yul\":24985:24988   */\n      0x00\n        /* \"#utility.yul\":25006:25073   */\n      tag_534\n        /* \"#utility.yul\":25070:25072   */\n      0x14\n        /* \"#utility.yul\":25065:25068   */\n      dup4\n        /* \"#utility.yul\":25006:25073   */\n      tag_221\n      jump\t// in\n    tag_534:\n        /* \"#utility.yul\":24999:25073   */\n      swap2\n      pop\n        /* \"#utility.yul\":25082:25175   */\n      tag_535\n        /* \"#utility.yul\":25171:25174   */\n      dup3\n        /* \"#utility.yul\":25082:25175   */\n      tag_267\n      jump\t// in\n    tag_535:\n        /* \"#utility.yul\":25200:25202   */\n      0x20\n        /* \"#utility.yul\":25195:25198   */\n      dup3\n        /* \"#utility.yul\":25191:25203   */\n      add\n        /* \"#utility.yul\":25184:25203   */\n      swap1\n      pop\n        /* \"#utility.yul\":24843:25209   */\n      swap2\n      swap1\n      pop\n      jump\t// out\n        /* \"#utility.yul\":25215:25634   */\n    tag_148:\n        /* \"#utility.yul\":25381:25385   */\n      0x00\n        /* \"#utility.yul\":25419:25421   */\n      0x20\n        /* \"#utility.yul\":25408:25417   */\n      dup3\n        /* \"#utility.yul\":25404:25422   */\n      add\n        /* \"#utility.yul\":25396:25422   */\n      swap1\n      pop\n        /* \"#utility.yul\":25468:25477   */\n      dup2\n        /* \"#utility.yul\":25462:25466   */\n      dup2\n        /* \"#utility.yul\":25458:25478   */\n      sub\n        /* \"#utility.yul\":25454:25455   */\n      0x00\n        /* \"#utility.yul\":25443:25452   */\n      dup4\n        /* \"#utility.yul\":25439:25456   */\n      add\n        /* \"#utility.yul\":25432:25479   */\n      mstore\n        /* \"#utility.yul\":25496:25627   */\n      tag_537\n        /* \"#utility.yul\":25622:25626   */\n      dup2\n        /* \"#utility.yul\":25496:25627   */\n      tag_268\n      jump\t// in\n    tag_537:\n        /* \"#utility.yul\":25488:25627   */\n      swap1\n      pop\n        /* \"#utility.yul\":25215:25634   */\n      swap2\n      swap1\n      pop\n      jump\t// out\n        /* \"#utility.yul\":25640:25820   */\n    tag_151:\n        /* \"#utility.yul\":25688:25765   */\n      0x4e487b7100000000000000000000000000000000000000000000000000000000\n        /* \"#utility.yul\":25685:25686   */\n      0x00\n        /* \"#utility.yul\":25678:25766   */\n      mstore\n        /* \"#utility.yul\":25785:25789   */\n      0x01\n        /* \"#utility.yul\":25782:25783   */\n      0x04\n        /* \"#utility.yul\":25775:25790   */\n      mstore\n        /* \"#utility.yul\":25809:25813   */\n      0x24\n        /* \"#utility.yul\":25806:25807   */\n      0x00\n        /* \"#utility.yul\":25799:25814   */\n      revert\n        /* \"#utility.yul\":25826:26059   */\n    tag_269:\n        /* \"#utility.yul\":25966:26000   */\n      0x6d6178696d756d206e6f206f662063616e646964617465207065722073657373\n        /* \"#utility.yul\":25962:25963   */\n      0x00\n        /* \"#utility.yul\":25954:25960   */\n      dup3\n        /* \"#utility.yul\":25950:25964   */\n      add\n        /* \"#utility.yul\":25943:26001   */\n      mstore\n        /* \"#utility.yul\":26035:26051   */\n      0x696f6e2072656769737465726564000000000000000000000000000000000000\n        /* \"#utility.yul\":26030:26032   */\n      0x20\n        /* \"#utility.yul\":26022:26028   */\n      dup3\n        /* \"#utility.yul\":26018:26033   */\n      add\n        /* \"#utility.yul\":26011:26052   */\n      mstore\n        /* \"#utility.yul\":25826:26059   */\n      pop\n      jump\t// out\n        /* \"#utility.yul\":26065:26431   */\n    tag_270:\n        /* \"#utility.yul\":26207:26210   */\n      0x00\n        /* \"#utility.yul\":26228:26295   */\n      tag_541\n        /* \"#utility.yul\":26292:26294   */\n      0x2e\n        /* \"#utility.yul\":26287:26290   */\n      dup4\n        /* \"#utility.yul\":26228:26295   */\n      tag_221\n      jump\t// in\n    tag_541:\n        /* \"#utility.yul\":26221:26295   */\n      swap2\n      pop\n        /* \"#utility.yul\":26304:26397   */\n      tag_542\n        /* \"#utility.yul\":26393:26396   */\n      dup3\n        /* \"#utility.yul\":26304:26397   */\n      tag_269\n      jump\t// in\n    tag_542:\n        /* \"#utility.yul\":26422:26424   */\n      0x40\n        /* \"#utility.yul\":26417:26420   */\n      dup3\n        /* \"#utility.yul\":26413:26425   */\n      add\n        /* \"#utility.yul\":26406:26425   */\n      swap1\n      pop\n        /* \"#utility.yul\":26065:26431   */\n      swap2\n      swap1\n      pop\n      jump\t// out\n        /* \"#utility.yul\":26437:26856   */\n    tag_154:\n        /* \"#utility.yul\":26603:26607   */\n      0x00\n        /* \"#utility.yul\":26641:26643   */\n      0x20\n        /* \"#utility.yul\":26630:26639   */\n      dup3\n        /* \"#utility.yul\":26626:26644   */\n      add\n        /* \"#utility.yul\":26618:26644   */\n      swap1\n      pop\n        /* \"#utility.yul\":26690:26699   */\n      dup2\n        /* \"#utility.yul\":26684:26688   */\n      dup2\n        /* \"#utility.yul\":26680:26700   */\n      sub\n        /* \"#utility.yul\":26676:26677   */\n      0x00\n        /* \"#utility.yul\":26665:26674   */\n      dup4\n        /* \"#utility.yul\":26661:26678   */\n      add\n        /* \"#utility.yul\":26654:26701   */\n      mstore\n        /* \"#utility.yul\":26718:26849   */\n      tag_544\n        /* \"#utility.yul\":26844:26848   */\n      dup2\n        /* \"#utility.yul\":26718:26849   */\n      tag_270\n      jump\t// in\n    tag_544:\n        /* \"#utility.yul\":26710:26849   */\n      swap1\n      pop\n        /* \"#utility.yul\":26437:26856   */\n      swap2\n      swap1\n      pop\n      jump\t// out\n        /* \"#utility.yul\":26862:27033   */\n    tag_157:\n        /* \"#utility.yul\":26900:26903   */\n      0x00\n        /* \"#utility.yul\":26923:26946   */\n      tag_546\n        /* \"#utility.yul\":26940:26945   */\n      dup3\n        /* \"#utility.yul\":26923:26946   */\n      tag_217\n      jump\t// in\n    tag_546:\n        /* \"#utility.yul\":26914:26946   */\n      swap2\n      pop\n        /* \"#utility.yul\":26968:26974   */\n      0xffff\n        /* \"#utility.yul\":26961:26966   */\n      dup3\n        /* \"#utility.yul\":26958:26975   */\n      eq\n        /* \"#utility.yul\":26955:26998   */\n      iszero\n      tag_547\n      jumpi\n        /* \"#utility.yul\":26978:26996   */\n      tag_548\n      tag_264\n      jump\t// in\n    tag_548:\n        /* \"#utility.yul\":26955:26998   */\n    tag_547:\n        /* \"#utility.yul\":27025:27026   */\n      0x01\n        /* \"#utility.yul\":27018:27023   */\n      dup3\n        /* \"#utility.yul\":27014:27027   */\n      add\n        /* \"#utility.yul\":27007:27027   */\n      swap1\n      pop\n        /* \"#utility.yul\":26862:27033   */\n      swap2\n      swap1\n      pop\n      jump\t// out\n        /* \"#utility.yul\":27039:27261   */\n    tag_159:\n        /* \"#utility.yul\":27132:27136   */\n      0x00\n        /* \"#utility.yul\":27170:27172   */\n      0x20\n        /* \"#utility.yul\":27159:27168   */\n      dup3\n        /* \"#utility.yul\":27155:27173   */\n      add\n        /* \"#utility.yul\":27147:27173   */\n      swap1\n      pop\n        /* \"#utility.yul\":27183:27254   */\n      tag_550\n        /* \"#utility.yul\":27251:27252   */\n      0x00\n        /* \"#utility.yul\":27240:27249   */\n      dup4\n        /* \"#utility.yul\":27236:27253   */\n      add\n        /* \"#utility.yul\":27227:27233   */\n      dup5\n        /* \"#utility.yul\":27183:27254   */\n      tag_235\n      jump\t// in\n    tag_550:\n        /* \"#utility.yul\":27039:27261   */\n      swap3\n      swap2\n      pop\n      pop\n      jump\t// out\n        /* \"#utility.yul\":27267:27433   */\n    tag_271:\n        /* \"#utility.yul\":27407:27425   */\n      0x6e6f74207468652063686169726d616e00000000000000000000000000000000\n        /* \"#utility.yul\":27403:27404   */\n      0x00\n        /* \"#utility.yul\":27395:27401   */\n      dup3\n        /* \"#utility.yul\":27391:27405   */\n      add\n        /* \"#utility.yul\":27384:27426   */\n      mstore\n        /* \"#utility.yul\":27267:27433   */\n      pop\n      jump\t// out\n        /* \"#utility.yul\":27439:27805   */\n    tag_272:\n        /* \"#utility.yul\":27581:27584   */\n      0x00\n        /* \"#utility.yul\":27602:27669   */\n      tag_553\n        /* \"#utility.yul\":27666:27668   */\n      0x10\n        /* \"#utility.yul\":27661:27664   */\n      dup4\n        /* \"#utility.yul\":27602:27669   */\n      tag_221\n      jump\t// in\n    tag_553:\n        /* \"#utility.yul\":27595:27669   */\n      swap2\n      pop\n        /* \"#utility.yul\":27678:27771   */\n      tag_554\n        /* \"#utility.yul\":27767:27770   */\n      dup3\n        /* \"#utility.yul\":27678:27771   */\n      tag_271\n      jump\t// in\n    tag_554:\n        /* \"#utility.yul\":27796:27798   */\n      0x20\n        /* \"#utility.yul\":27791:27794   */\n      dup3\n        /* \"#utility.yul\":27787:27799   */\n      add\n        /* \"#utility.yul\":27780:27799   */\n      swap1\n      pop\n        /* \"#utility.yul\":27439:27805   */\n      swap2\n      swap1\n      pop\n      jump\t// out\n        /* \"#utility.yul\":27811:28230   */\n    tag_164:\n        /* \"#utility.yul\":27977:27981   */\n      0x00\n        /* \"#utility.yul\":28015:28017   */\n      0x20\n        /* \"#utility.yul\":28004:28013   */\n      dup3\n        /* \"#utility.yul\":28000:28018   */\n      add\n        /* \"#utility.yul\":27992:28018   */\n      swap1\n      pop\n        /* \"#utility.yul\":28064:28073   */\n      dup2\n        /* \"#utility.yul\":28058:28062   */\n      dup2\n        /* \"#utility.yul\":28054:28074   */\n      sub\n        /* \"#utility.yul\":28050:28051   */\n      0x00\n        /* \"#utility.yul\":28039:28048   */\n      dup4\n        /* \"#utility.yul\":28035:28052   */\n      add\n        /* \"#utility.yul\":28028:28075   */\n      mstore\n        /* \"#utility.yul\":28092:28223   */\n      tag_556\n        /* \"#utility.yul\":28218:28222   */\n      dup2\n        /* \"#utility.yul\":28092:28223   */\n      tag_272\n      jump\t// in\n    tag_556:\n        /* \"#utility.yul\":28084:28223   */\n      swap1\n      pop\n        /* \"#utility.yul\":27811:28230   */\n      swap2\n      swap1\n      pop\n      jump\t// out\n        /* \"#utility.yul\":28236:28322   */\n    tag_273:\n        /* \"#utility.yul\":28271:28278   */\n      0x00\n        /* \"#utility.yul\":28311:28315   */\n      0xff\n        /* \"#utility.yul\":28304:28309   */\n      dup3\n        /* \"#utility.yul\":28300:28316   */\n      and\n        /* \"#utility.yul\":28289:28316   */\n      swap1\n      pop\n        /* \"#utility.yul\":28236:28322   */\n      swap2\n      swap1\n      pop\n      jump\t// out\n        /* \"#utility.yul\":28328:28565   */\n    tag_183:\n        /* \"#utility.yul\":28366:28369   */\n      0x00\n        /* \"#utility.yul\":28385:28403   */\n      tag_559\n        /* \"#utility.yul\":28401:28402   */\n      dup3\n        /* \"#utility.yul\":28385:28403   */\n      tag_273\n      jump\t// in\n    tag_559:\n        /* \"#utility.yul\":28380:28403   */\n      swap2\n      pop\n        /* \"#utility.yul\":28417:28435   */\n      tag_560\n        /* \"#utility.yul\":28433:28434   */\n      dup4\n        /* \"#utility.yul\":28417:28435   */\n      tag_273\n      jump\t// in\n    tag_560:\n        /* \"#utility.yul\":28412:28435   */\n      swap3\n      pop\n        /* \"#utility.yul\":28507:28508   */\n      dup3\n        /* \"#utility.yul\":28501:28505   */\n      0xff\n        /* \"#utility.yul\":28497:28509   */\n      sub\n        /* \"#utility.yul\":28494:28495   */\n      dup3\n        /* \"#utility.yul\":28491:28510   */\n      gt\n        /* \"#utility.yul\":28488:28533   */\n      iszero\n      tag_561\n      jumpi\n        /* \"#utility.yul\":28513:28531   */\n      tag_562\n      tag_264\n      jump\t// in\n    tag_562:\n        /* \"#utility.yul\":28488:28533   */\n    tag_561:\n        /* \"#utility.yul\":28557:28558   */\n      dup3\n        /* \"#utility.yul\":28554:28555   */\n      dup3\n        /* \"#utility.yul\":28550:28559   */\n      add\n        /* \"#utility.yul\":28543:28559   */\n      swap1\n      pop\n        /* \"#utility.yul\":28328:28565   */\n      swap3\n      swap2\n      pop\n      pop\n      jump\t// out\n        /* \"#utility.yul\":28571:28785   */\n    tag_274:\n        /* \"#utility.yul\":28711:28777   */\n      0x19457468657265756d205369676e6564204d6573736167653a0a333200000000\n        /* \"#utility.yul\":28707:28708   */\n      0x00\n        /* \"#utility.yul\":28699:28705   */\n      dup3\n        /* \"#utility.yul\":28695:28709   */\n      add\n        /* \"#utility.yul\":28688:28778   */\n      mstore\n        /* \"#utility.yul\":28571:28785   */\n      pop\n      jump\t// out\n        /* \"#utility.yul\":28791:29193   */\n    tag_275:\n        /* \"#utility.yul\":28951:28954   */\n      0x00\n        /* \"#utility.yul\":28972:29057   */\n      tag_565\n        /* \"#utility.yul\":29054:29056   */\n      0x1c\n        /* \"#utility.yul\":29049:29052   */\n      dup4\n        /* \"#utility.yul\":28972:29057   */\n      tag_254\n      jump\t// in\n    tag_565:\n        /* \"#utility.yul\":28965:29057   */\n      swap2\n      pop\n        /* \"#utility.yul\":29066:29159   */\n      tag_566\n        /* \"#utility.yul\":29155:29158   */\n      dup3\n        /* \"#utility.yul\":29066:29159   */\n      tag_274\n      jump\t// in\n    tag_566:\n        /* \"#utility.yul\":29184:29186   */\n      0x1c\n        /* \"#utility.yul\":29179:29182   */\n      dup3\n        /* \"#utility.yul\":29175:29187   */\n      add\n        /* \"#utility.yul\":29168:29187   */\n      swap1\n      pop\n        /* \"#utility.yul\":28791:29193   */\n      swap2\n      swap1\n      pop\n      jump\t// out\n        /* \"#utility.yul\":29199:29278   */\n    tag_276:\n        /* \"#utility.yul\":29238:29245   */\n      0x00\n        /* \"#utility.yul\":29267:29272   */\n      dup2\n        /* \"#utility.yul\":29256:29272   */\n      swap1\n      pop\n        /* \"#utility.yul\":29199:29278   */\n      swap2\n      swap1\n      pop\n      jump\t// out\n        /* \"#utility.yul\":29284:29441   */\n    tag_277:\n        /* \"#utility.yul\":29389:29434   */\n      tag_569\n        /* \"#utility.yul\":29409:29433   */\n      tag_570\n        /* \"#utility.yul\":29427:29432   */\n      dup3\n        /* \"#utility.yul\":29409:29433   */\n      tag_215\n      jump\t// in\n    tag_570:\n        /* \"#utility.yul\":29389:29434   */\n      tag_276\n      jump\t// in\n    tag_569:\n        /* \"#utility.yul\":29384:29387   */\n      dup3\n        /* \"#utility.yul\":29377:29435   */\n      mstore\n        /* \"#utility.yul\":29284:29441   */\n      pop\n      pop\n      jump\t// out\n        /* \"#utility.yul\":29447:29969   */\n    tag_188:\n        /* \"#utility.yul\":29660:29663   */\n      0x00\n        /* \"#utility.yul\":29682:29830   */\n      tag_572\n        /* \"#utility.yul\":29826:29829   */\n      dup3\n        /* \"#utility.yul\":29682:29830   */\n      tag_275\n      jump\t// in\n    tag_572:\n        /* \"#utility.yul\":29675:29830   */\n      swap2\n      pop\n        /* \"#utility.yul\":29840:29915   */\n      tag_573\n        /* \"#utility.yul\":29911:29914   */\n      dup3\n        /* \"#utility.yul\":29902:29908   */\n      dup5\n        /* \"#utility.yul\":29840:29915   */\n      tag_277\n      jump\t// in\n    tag_573:\n        /* \"#utility.yul\":29940:29942   */\n      0x20\n        /* \"#utility.yul\":29935:29938   */\n      dup3\n        /* \"#utility.yul\":29931:29943   */\n      add\n        /* \"#utility.yul\":29924:29943   */\n      swap2\n      pop\n        /* \"#utility.yul\":29960:29963   */\n      dup2\n        /* \"#utility.yul\":29953:29963   */\n      swap1\n      pop\n        /* \"#utility.yul\":29447:29969   */\n      swap3\n      swap2\n      pop\n      pop\n      jump\t// out\n        /* \"#utility.yul\":29975:30087   */\n    tag_278:\n        /* \"#utility.yul\":30058:30080   */\n      tag_575\n        /* \"#utility.yul\":30074:30079   */\n      dup2\n        /* \"#utility.yul\":30058:30080   */\n      tag_273\n      jump\t// in\n    tag_575:\n        /* \"#utility.yul\":30053:30056   */\n      dup3\n        /* \"#utility.yul\":30046:30081   */\n      mstore\n        /* \"#utility.yul\":29975:30087   */\n      pop\n      pop\n      jump\t// out\n        /* \"#utility.yul\":30093:30638   */\n    tag_190:\n        /* \"#utility.yul\":30266:30270   */\n      0x00\n        /* \"#utility.yul\":30304:30307   */\n      0x80\n        /* \"#utility.yul\":30293:30302   */\n      dup3\n        /* \"#utility.yul\":30289:30308   */\n      add\n        /* \"#utility.yul\":30281:30308   */\n      swap1\n      pop\n        /* \"#utility.yul\":30318:30389   */\n      tag_577\n        /* \"#utility.yul\":30386:30387   */\n      0x00\n        /* \"#utility.yul\":30375:30384   */\n      dup4\n        /* \"#utility.yul\":30371:30388   */\n      add\n        /* \"#utility.yul\":30362:30368   */\n      dup8\n        /* \"#utility.yul\":30318:30389   */\n      tag_216\n      jump\t// in\n    tag_577:\n        /* \"#utility.yul\":30399:30467   */\n      tag_578\n        /* \"#utility.yul\":30463:30465   */\n      0x20\n        /* \"#utility.yul\":30452:30461   */\n      dup4\n        /* \"#utility.yul\":30448:30466   */\n      add\n        /* \"#utility.yul\":30439:30445   */\n      dup7\n        /* \"#utility.yul\":30399:30467   */\n      tag_278\n      jump\t// in\n    tag_578:\n        /* \"#utility.yul\":30477:30549   */\n      tag_579\n        /* \"#utility.yul\":30545:30547   */\n      0x40\n        /* \"#utility.yul\":30534:30543   */\n      dup4\n        /* \"#utility.yul\":30530:30548   */\n      add\n        /* \"#utility.yul\":30521:30527   */\n      dup6\n        /* \"#utility.yul\":30477:30549   */\n      tag_216\n      jump\t// in\n    tag_579:\n        /* \"#utility.yul\":30559:30631   */\n      tag_580\n        /* \"#utility.yul\":30627:30629   */\n      0x60\n        /* \"#utility.yul\":30616:30625   */\n      dup4\n        /* \"#utility.yul\":30612:30630   */\n      add\n        /* \"#utility.yul\":30603:30609   */\n      dup5\n        /* \"#utility.yul\":30559:30631   */\n      tag_216\n      jump\t// in\n    tag_580:\n        /* \"#utility.yul\":30093:30638   */\n      swap6\n      swap5\n      pop\n      pop\n      pop\n      pop\n      pop\n      jump\t// out\n\n    auxdata: 0xa26469706673582212209ca65a96e6f1f175d4dff9e9480d3db75aa54e502c7fe7a03d267af054142fb764736f6c634300080a0033\n}\n",
				"bytecode": {
					"linkReferences": {},
					"object": "608060405234801561001057600080fd5b50612368806100206000396000f3fe6080604052600436106100ab5760003560e01c806367d407df1161006457806367d407df1461020557806382e305ab146102425780638579cacd1461025e578063a886e61b1461029b578063af7cbc0d146102dd578063f0e4de221461031a576100b2565b806301ff993b146100b75780630968d4b1146100f457806312f0da4b146101325780634fcf1f391461015b57806357f539671461019a57806363ee965a146101c3576100b2565b366100b257005b600080fd5b3480156100c357600080fd5b506100de60048036038101906100d9919061155a565b610343565b6040516100eb91906115f6565b60405180910390f35b34801561010057600080fd5b5061011b6004803603810190610116919061164b565b61037e565b60405161012992919061173e565b60405180910390f35b34801561013e57600080fd5b506101596004803603810190610154919061180f565b610422565b005b34801561016757600080fd5b50610182600480360381019061017d91906118ae565b610759565b604051610191939291906119c4565b60405180910390f35b3480156101a657600080fd5b506101c160048036038101906101bc9190611a02565b6109f9565b005b3480156101cf57600080fd5b506101ea60048036038101906101e591906118ae565b610cb9565b6040516101fc96959493929190611aca565b60405180910390f35b34801561021157600080fd5b5061022c60048036038101906102279190611b2b565b610d7e565b6040516102399190611b58565b60405180910390f35b61025c600480360381019061025791906118ae565b610d96565b005b34801561026a57600080fd5b50610285600480360381019061028091906118ae565b610eb7565b6040516102929190611b58565b60405180910390f35b3480156102a757600080fd5b506102c260048036038101906102bd9190611b73565b610ef9565b6040516102d496959493929190611aca565b60405180910390f35b3480156102e957600080fd5b5061030460048036038101906102ff91906118ae565b610fb8565b6040516103119190611c5e565b60405180910390f35b34801561032657600080fd5b50610341600480360381019061033c91906118ae565b61106d565b005b6000308585858560405160200161035e959493929190611d71565b604051602081830303815290604052805190602001209050949350505050565b60606000806001856040516103939190611dd7565b90815260200160405180910390209050338160000160006101000a81548173ffffffffffffffffffffffffffffffffffffffff021916908373ffffffffffffffffffffffffffffffffffffffff1602179055508361ffff168160020160006101000a81548163ffffffff021916908363ffffffff16021790555084848061ffff16905092509250509250929050565b838360006001826040516104369190611dd7565b90815260200160405180910390209050600115158160030160008573ffffffffffffffffffffffffffffffffffffffff1673ffffffffffffffffffffffffffffffffffffffff16815260200190815260200160002060009054906101000a900460ff161515146104db576040517f08c379a00000000000000000000000000000000000000000000000000000000081526004016104d290611e60565b60405180910390fd5b8560006001826040516104ee9190611dd7565b90815260200160405180910390209050600115158160020160169054906101000a900460ff16151514610556576040517f08c379a000000000000000000000000000000000000000000000000000000000815260040161054d90611ecc565b60405180910390fd5b60006105648a8a8a42610343565b905060006105728289611153565b9050600073ffffffffffffffffffffffffffffffffffffffff168173ffffffffffffffffffffffffffffffffffffffff1614156105ae57600080fd5b600260008273ffffffffffffffffffffffffffffffffffffffff1673ffffffffffffffffffffffffffffffffffffffff1681526020019081526020016000205489146105f957600080fd5b600260008273ffffffffffffffffffffffffffffffffffffffff1673ffffffffffffffffffffffffffffffffffffffff168152602001908152602001600020600081548092919061064990611f1b565b9190505550600060018b6040516106609190611dd7565b90815260200160405180910390209050600015158160040160008473ffffffffffffffffffffffffffffffffffffffff1673ffffffffffffffffffffffffffffffffffffffff16815260200190815260200160002060009054906101000a900460ff16151514610705576040517f08c379a00000000000000000000000000000000000000000000000000000000081526004016106fc90611fb0565b60405180910390fd5b6107108c8c8461124c565b507ff3f16a15f074b71c5138107dfc7c63b80524d5411cb967caa97d8d9f12b2fd6b8c6001604051610743929190611fd0565b60405180910390a1505050505050505050505050565b606060008060006001856040516107709190611dd7565b90815260200160405180910390209050806001018054905067ffffffffffffffff8111156107a1576107a06113f9565b5b6040519080825280602002602001820160405280156107cf5781602001602082028036833780820191505090505b50935060008060005b865181116109e557828460050160008660010184815481106107fd576107fc611ff9565b5b9060005260206000200160009054906101000a900473ffffffffffffffffffffffffffffffffffffffff1673ffffffffffffffffffffffffffffffffffffffff1673ffffffffffffffffffffffffffffffffffffffff1681526020019081526020016000205411156109315783600501600085600101838154811061088557610884611ff9565b5b9060005260206000200160009054906101000a900473ffffffffffffffffffffffffffffffffffffffff1673ffffffffffffffffffffffffffffffffffffffff1673ffffffffffffffffffffffffffffffffffffffff16815260200190815260200160002054925083600101818154811061090357610902611ff9565b5b9060005260206000200160009054906101000a900473ffffffffffffffffffffffffffffffffffffffff1691505b83600501600085600101838154811061094d5761094c611ff9565b5b9060005260206000200160009054906101000a900473ffffffffffffffffffffffffffffffffffffffff1673ffffffffffffffffffffffffffffffffffffffff1673ffffffffffffffffffffffffffffffffffffffff168152602001908152602001600020548782815181106109c6576109c5611ff9565b5b60200260200101818152505080806109dd90611f1b565b9150506107d8565b508581839550955095505050509193909250565b6000600182604051610a0b9190611dd7565b90815260200160405180910390209050600073ffffffffffffffffffffffffffffffffffffffff168160000160009054906101000a900473ffffffffffffffffffffffffffffffffffffffff1673ffffffffffffffffffffffffffffffffffffffff161415610aaf576040517f08c379a0000000000000000000000000000000000000000000000000000000008152600401610aa690612074565b60405180910390fd5b3373ffffffffffffffffffffffffffffffffffffffff168160000160009054906101000a900473ffffffffffffffffffffffffffffffffffffffff1673ffffffffffffffffffffffffffffffffffffffff1614610b0f57610b0e612094565b5b8060020160009054906101000a900463ffffffff1663ffffffff168160020160149054906101000a900461ffff1661ffff1610610b81576040517f08c379a0000000000000000000000000000000000000000000000000000000008152600401610b7890612135565b60405180910390fd5b60018160030160008573ffffffffffffffffffffffffffffffffffffffff1673ffffffffffffffffffffffffffffffffffffffff16815260200190815260200160002060006101000a81548160ff02191690831515021790555080600101839080600181540180825580915050600190039060005260206000200160009091909190916101000a81548173ffffffffffffffffffffffffffffffffffffffff021916908373ffffffffffffffffffffffffffffffffffffffff16021790555080600201601481819054906101000a900461ffff1680929190610c6290612155565b91906101000a81548161ffff021916908361ffff160217905550507fc19c59aa93348e8fc54764bc642eca975e2639f44cc683ef8f027e1529cbda3283604051610cac9190612180565b60405180910390a1505050565b6001818051602081018201805184825260208301602085012081835280955050505050506000915090508060000160009054906101000a900473ffffffffffffffffffffffffffffffffffffffff16908060020160009054906101000a900463ffffffff16908060020160049054906101000a900467ffffffffffffffff169080600201600c9054906101000a900467ffffffffffffffff16908060020160149054906101000a900461ffff16908060020160169054906101000a900460ff16905086565b60026020528060005260406000206000915090505481565b6000600182604051610da89190611dd7565b908152602001604051809103902090508060000160009054906101000a900473ffffffffffffffffffffffffffffffffffffffff1673ffffffffffffffffffffffffffffffffffffffff163373ffffffffffffffffffffffffffffffffffffffff1614610e4a576040517f08c379a0000000000000000000000000000000000000000000000000000000008152600401610e41906121e7565b60405180910390fd5b3373ffffffffffffffffffffffffffffffffffffffff166108fc82600201600c9054906101000a900467ffffffffffffffff1667ffffffffffffffff169081150290604051600060405180830381858888f19350505050158015610eb2573d6000803e3d6000fd5b505050565b600080600183604051610eca9190611dd7565b908152602001604051809103902090508060020160149054906101000a900461ffff1661ffff16915050919050565b60008181548110610f0957600080fd5b90600052602060002090600602016000915090508060000160009054906101000a900473ffffffffffffffffffffffffffffffffffffffff16908060020160009054906101000a900463ffffffff16908060020160049054906101000a900467ffffffffffffffff169080600201600c9054906101000a900467ffffffffffffffff16908060020160149054906101000a900461ffff16908060020160169054906101000a900460ff16905086565b60606000600183604051610fcc9190611dd7565b908152602001604051809103902090508060010180548060200260200160405190810160405280929190818152602001828054801561106057602002820191906000526020600020905b8160009054906101000a900473ffffffffffffffffffffffffffffffffffffffff1673ffffffffffffffffffffffffffffffffffffffff1681526020019060010190808311611016575b5050505050915050919050565b600060018260405161107f9190611dd7565b908152602001604051809103902090503373ffffffffffffffffffffffffffffffffffffffff168160000160009054906101000a900473ffffffffffffffffffffffffffffffffffffffff1673ffffffffffffffffffffffffffffffffffffffff1614611121576040517f08c379a0000000000000000000000000000000000000000000000000000000008152600401611118906121e7565b60405180910390fd5b8060020160169054906101000a900460ff16158160020160166101000a81548160ff0219169083151502179055505050565b600080600080604185511461116e5760009350505050611246565b6020850151925060408501519150606085015160001a9050601b8160ff1610156111a257601b8161119f9190612214565b90505b601b8160ff16141580156111ba5750601c8160ff1614155b156111cb5760009350505050611246565b6001866040516020016111de91906122b8565b604051602081830303815290604052805190602001208285856040516000815260200160405260405161121494939291906122ed565b6020604051602081039080840390855afa158015611236573d6000803e3d6000fd5b5050506020604051035193505050505b92915050565b60008060018460405161125f9190611dd7565b9081526020016040518091039020905060018160040160008573ffffffffffffffffffffffffffffffffffffffff1673ffffffffffffffffffffffffffffffffffffffff16815260200190815260200160002060006101000a81548160ff0219169083151502179055508060050160008673ffffffffffffffffffffffffffffffffffffffff1673ffffffffffffffffffffffffffffffffffffffff168152602001908152602001600020600081548092919061131b90611f1b565b91905055508060050160008673ffffffffffffffffffffffffffffffffffffffff1673ffffffffffffffffffffffffffffffffffffffff168152602001908152602001600020549150509392505050565b6000604051905090565b600080fd5b600080fd5b600073ffffffffffffffffffffffffffffffffffffffff82169050919050565b60006113ab82611380565b9050919050565b6113bb816113a0565b81146113c657600080fd5b50565b6000813590506113d8816113b2565b92915050565b600080fd5b600080fd5b6000601f19601f8301169050919050565b7f4e487b7100000000000000000000000000000000000000000000000000000000600052604160045260246000fd5b611431826113e8565b810181811067ffffffffffffffff821117156114505761144f6113f9565b5b80604052505050565b600061146361136c565b905061146f8282611428565b919050565b600067ffffffffffffffff82111561148f5761148e6113f9565b5b611498826113e8565b9050602081019050919050565b82818337600083830152505050565b60006114c76114c284611474565b611459565b9050828152602081018484840111156114e3576114e26113e3565b5b6114ee8482856114a5565b509392505050565b600082601f83011261150b5761150a6113de565b5b813561151b8482602086016114b4565b91505092915050565b6000819050919050565b61153781611524565b811461154257600080fd5b50565b6000813590506115548161152e565b92915050565b6000806000806080858703121561157457611573611376565b5b6000611582878288016113c9565b945050602085013567ffffffffffffffff8111156115a3576115a261137b565b5b6115af878288016114f6565b93505060406115c087828801611545565b92505060606115d187828801611545565b91505092959194509250565b6000819050919050565b6115f0816115dd565b82525050565b600060208201905061160b60008301846115e7565b92915050565b600061ffff82169050919050565b61162881611611565b811461163357600080fd5b50565b6000813590506116458161161f565b92915050565b6000806040838503121561166257611661611376565b5b600083013567ffffffffffffffff8111156116805761167f61137b565b5b61168c858286016114f6565b925050602061169d85828601611636565b9150509250929050565b600081519050919050565b600082825260208201905092915050565b60005b838110156116e15780820151818401526020810190506116c6565b838111156116f0576000848401525b50505050565b6000611701826116a7565b61170b81856116b2565b935061171b8185602086016116c3565b611724816113e8565b840191505092915050565b61173881611524565b82525050565b6000604082019050818103600083015261175881856116f6565b9050611767602083018461172f565b9392505050565b600067ffffffffffffffff821115611789576117886113f9565b5b611792826113e8565b9050602081019050919050565b60006117b26117ad8461176e565b611459565b9050828152602081018484840111156117ce576117cd6113e3565b5b6117d98482856114a5565b509392505050565b600082601f8301126117f6576117f56113de565b5b813561180684826020860161179f565b91505092915050565b6000806000806080858703121561182957611828611376565b5b6000611837878288016113c9565b945050602085013567ffffffffffffffff8111156118585761185761137b565b5b611864878288016114f6565b935050604061187587828801611545565b925050606085013567ffffffffffffffff8111156118965761189561137b565b5b6118a2878288016117e1565b91505092959194509250565b6000602082840312156118c4576118c3611376565b5b600082013567ffffffffffffffff8111156118e2576118e161137b565b5b6118ee848285016114f6565b91505092915050565b600081519050919050565b600082825260208201905092915050565b6000819050602082019050919050565b61192c81611524565b82525050565b600061193e8383611923565b60208301905092915050565b6000602082019050919050565b6000611962826118f7565b61196c8185611902565b935061197783611913565b8060005b838110156119a857815161198f8882611932565b975061199a8361194a565b92505060018101905061197b565b5085935050505092915050565b6119be816113a0565b82525050565b600060608201905081810360008301526119de8186611957565b90506119ed60208301856119b5565b6119fa604083018461172f565b949350505050565b60008060408385031215611a1957611a18611376565b5b6000611a27858286016113c9565b925050602083013567ffffffffffffffff811115611a4857611a4761137b565b5b611a54858286016114f6565b9150509250929050565b600063ffffffff82169050919050565b611a7781611a5e565b82525050565b600067ffffffffffffffff82169050919050565b611a9a81611a7d565b82525050565b611aa981611611565b82525050565b60008115159050919050565b611ac481611aaf565b82525050565b600060c082019050611adf60008301896119b5565b611aec6020830188611a6e565b611af96040830187611a91565b611b066060830186611a91565b611b136080830185611aa0565b611b2060a0830184611abb565b979650505050505050565b600060208284031215611b4157611b40611376565b5b6000611b4f848285016113c9565b91505092915050565b6000602082019050611b6d600083018461172f565b92915050565b600060208284031215611b8957611b88611376565b5b6000611b9784828501611545565b91505092915050565b600081519050919050565b600082825260208201905092915050565b6000819050602082019050919050565b611bd5816113a0565b82525050565b6000611be78383611bcc565b60208301905092915050565b6000602082019050919050565b6000611c0b82611ba0565b611c158185611bab565b9350611c2083611bbc565b8060005b83811015611c51578151611c388882611bdb565b9750611c4383611bf3565b925050600181019050611c24565b5085935050505092915050565b60006020820190508181036000830152611c788184611c00565b905092915050565b60008160601b9050919050565b6000611c9882611c80565b9050919050565b6000611caa82611c8d565b9050919050565b611cc2611cbd826113a0565b611c9f565b82525050565b600081905092915050565b7f6d6574617472616e73616374696f6e20566f74696e6720000000000000000000600082015250565b6000611d09601783611cc8565b9150611d1482611cd3565b601782019050919050565b6000611d2a826116a7565b611d348185611cc8565b9350611d448185602086016116c3565b80840191505092915050565b6000819050919050565b611d6b611d6682611524565b611d50565b82525050565b6000611d7d8288611cb1565b601482019150611d8c82611cfc565b9150611d988287611cb1565b601482019150611da88286611d1f565b9150611db48285611d5a565b602082019150611dc48284611d5a565b6020820191508190509695505050505050565b6000611de38284611d1f565b915081905092915050565b7f54686973206164647265737320646f6573206e6f74206578697374206173206160008201527f2063616e64696461746500000000000000000000000000000000000000000000602082015250565b6000611e4a602a836116b2565b9150611e5582611dee565b604082019050919050565b60006020820190508181036000830152611e7981611e3d565b9050919050565b7f766f74696e672068617320656e64656400000000000000000000000000000000600082015250565b6000611eb66010836116b2565b9150611ec182611e80565b602082019050919050565b60006020820190508181036000830152611ee581611ea9565b9050919050565b7f4e487b7100000000000000000000000000000000000000000000000000000000600052601160045260246000fd5b6000611f2682611524565b91507fffffffffffffffffffffffffffffffffffffffffffffffffffffffffffffffff821415611f5957611f58611eec565b5b600182019050919050565b7f596f7520616c726561647920766f746564000000000000000000000000000000600082015250565b6000611f9a6011836116b2565b9150611fa582611f64565b602082019050919050565b60006020820190508181036000830152611fc981611f8d565b9050919050565b6000604082019050611fe560008301856119b5565b611ff26020830184611abb565b9392505050565b7f4e487b7100000000000000000000000000000000000000000000000000000000600052603260045260246000fd5b7f79657420746f20637265617465206120706f6c6c000000000000000000000000600082015250565b600061205e6014836116b2565b915061206982612028565b602082019050919050565b6000602082019050818103600083015261208d81612051565b9050919050565b7f4e487b7100000000000000000000000000000000000000000000000000000000600052600160045260246000fd5b7f6d6178696d756d206e6f206f662063616e64696461746520706572207365737360008201527f696f6e2072656769737465726564000000000000000000000000000000000000602082015250565b600061211f602e836116b2565b915061212a826120c3565b604082019050919050565b6000602082019050818103600083015261214e81612112565b9050919050565b600061216082611611565b915061ffff82141561217557612174611eec565b5b600182019050919050565b600060208201905061219560008301846119b5565b92915050565b7f6e6f74207468652063686169726d616e00000000000000000000000000000000600082015250565b60006121d16010836116b2565b91506121dc8261219b565b602082019050919050565b60006020820190508181036000830152612200816121c4565b9050919050565b600060ff82169050919050565b600061221f82612207565b915061222a83612207565b92508260ff038211156122405761223f611eec565b5b828201905092915050565b7f19457468657265756d205369676e6564204d6573736167653a0a333200000000600082015250565b6000612281601c83611cc8565b915061228c8261224b565b601c82019050919050565b6000819050919050565b6122b26122ad826115dd565b612297565b82525050565b60006122c382612274565b91506122cf82846122a1565b60208201915081905092915050565b6122e781612207565b82525050565b600060808201905061230260008301876115e7565b61230f60208301866122de565b61231c60408301856115e7565b61232960608301846115e7565b9594505050505056fea26469706673582212209ca65a96e6f1f175d4dff9e9480d3db75aa54e502c7fe7a03d267af054142fb764736f6c634300080a0033",
					"opcodes": "PUSH1 0x80 PUSH1 0x40 MSTORE CALLVALUE DUP1 ISZERO PUSH2 0x10 JUMPI PUSH1 0x0 DUP1 REVERT JUMPDEST POP PUSH2 0x2368 DUP1 PUSH2 0x20 PUSH1 0x0 CODECOPY PUSH1 0x0 RETURN INVALID PUSH1 0x80 PUSH1 0x40 MSTORE PUSH1 0x4 CALLDATASIZE LT PUSH2 0xAB JUMPI PUSH1 0x0 CALLDATALOAD PUSH1 0xE0 SHR DUP1 PUSH4 0x67D407DF GT PUSH2 0x64 JUMPI DUP1 PUSH4 0x67D407DF EQ PUSH2 0x205 JUMPI DUP1 PUSH4 0x82E305AB EQ PUSH2 0x242 JUMPI DUP1 PUSH4 0x8579CACD EQ PUSH2 0x25E JUMPI DUP1 PUSH4 0xA886E61B EQ PUSH2 0x29B JUMPI DUP1 PUSH4 0xAF7CBC0D EQ PUSH2 0x2DD JUMPI DUP1 PUSH4 0xF0E4DE22 EQ PUSH2 0x31A JUMPI PUSH2 0xB2 JUMP JUMPDEST DUP1 PUSH4 0x1FF993B EQ PUSH2 0xB7 JUMPI DUP1 PUSH4 0x968D4B1 EQ PUSH2 0xF4 JUMPI DUP1 PUSH4 0x12F0DA4B EQ PUSH2 0x132 JUMPI DUP1 PUSH4 0x4FCF1F39 EQ PUSH2 0x15B JUMPI DUP1 PUSH4 0x57F53967 EQ PUSH2 0x19A JUMPI DUP1 PUSH4 0x63EE965A EQ PUSH2 0x1C3 JUMPI PUSH2 0xB2 JUMP JUMPDEST CALLDATASIZE PUSH2 0xB2 JUMPI STOP JUMPDEST PUSH1 0x0 DUP1 REVERT JUMPDEST CALLVALUE DUP1 ISZERO PUSH2 0xC3 JUMPI PUSH1 0x0 DUP1 REVERT JUMPDEST POP PUSH2 0xDE PUSH1 0x4 DUP1 CALLDATASIZE SUB DUP2 ADD SWAP1 PUSH2 0xD9 SWAP2 SWAP1 PUSH2 0x155A JUMP JUMPDEST PUSH2 0x343 JUMP JUMPDEST PUSH1 0x40 MLOAD PUSH2 0xEB SWAP2 SWAP1 PUSH2 0x15F6 JUMP JUMPDEST PUSH1 0x40 MLOAD DUP1 SWAP2 SUB SWAP1 RETURN JUMPDEST CALLVALUE DUP1 ISZERO PUSH2 0x100 JUMPI PUSH1 0x0 DUP1 REVERT JUMPDEST POP PUSH2 0x11B PUSH1 0x4 DUP1 CALLDATASIZE SUB DUP2 ADD SWAP1 PUSH2 0x116 SWAP2 SWAP1 PUSH2 0x164B JUMP JUMPDEST PUSH2 0x37E JUMP JUMPDEST PUSH1 0x40 MLOAD PUSH2 0x129 SWAP3 SWAP2 SWAP1 PUSH2 0x173E JUMP JUMPDEST PUSH1 0x40 MLOAD DUP1 SWAP2 SUB SWAP1 RETURN JUMPDEST CALLVALUE DUP1 ISZERO PUSH2 0x13E JUMPI PUSH1 0x0 DUP1 REVERT JUMPDEST POP PUSH2 0x159 PUSH1 0x4 DUP1 CALLDATASIZE SUB DUP2 ADD SWAP1 PUSH2 0x154 SWAP2 SWAP1 PUSH2 0x180F JUMP JUMPDEST PUSH2 0x422 JUMP JUMPDEST STOP JUMPDEST CALLVALUE DUP1 ISZERO PUSH2 0x167 JUMPI PUSH1 0x0 DUP1 REVERT JUMPDEST POP PUSH2 0x182 PUSH1 0x4 DUP1 CALLDATASIZE SUB DUP2 ADD SWAP1 PUSH2 0x17D SWAP2 SWAP1 PUSH2 0x18AE JUMP JUMPDEST PUSH2 0x759 JUMP JUMPDEST PUSH1 0x40 MLOAD PUSH2 0x191 SWAP4 SWAP3 SWAP2 SWAP1 PUSH2 0x19C4 JUMP JUMPDEST PUSH1 0x40 MLOAD DUP1 SWAP2 SUB SWAP1 RETURN JUMPDEST CALLVALUE DUP1 ISZERO PUSH2 0x1A6 JUMPI PUSH1 0x0 DUP1 REVERT JUMPDEST POP PUSH2 0x1C1 PUSH1 0x4 DUP1 CALLDATASIZE SUB DUP2 ADD SWAP1 PUSH2 0x1BC SWAP2 SWAP1 PUSH2 0x1A02 JUMP JUMPDEST PUSH2 0x9F9 JUMP JUMPDEST STOP JUMPDEST CALLVALUE DUP1 ISZERO PUSH2 0x1CF JUMPI PUSH1 0x0 DUP1 REVERT JUMPDEST POP PUSH2 0x1EA PUSH1 0x4 DUP1 CALLDATASIZE SUB DUP2 ADD SWAP1 PUSH2 0x1E5 SWAP2 SWAP1 PUSH2 0x18AE JUMP JUMPDEST PUSH2 0xCB9 JUMP JUMPDEST PUSH1 0x40 MLOAD PUSH2 0x1FC SWAP7 SWAP6 SWAP5 SWAP4 SWAP3 SWAP2 SWAP1 PUSH2 0x1ACA JUMP JUMPDEST PUSH1 0x40 MLOAD DUP1 SWAP2 SUB SWAP1 RETURN JUMPDEST CALLVALUE DUP1 ISZERO PUSH2 0x211 JUMPI PUSH1 0x0 DUP1 REVERT JUMPDEST POP PUSH2 0x22C PUSH1 0x4 DUP1 CALLDATASIZE SUB DUP2 ADD SWAP1 PUSH2 0x227 SWAP2 SWAP1 PUSH2 0x1B2B JUMP JUMPDEST PUSH2 0xD7E JUMP JUMPDEST PUSH1 0x40 MLOAD PUSH2 0x239 SWAP2 SWAP1 PUSH2 0x1B58 JUMP JUMPDEST PUSH1 0x40 MLOAD DUP1 SWAP2 SUB SWAP1 RETURN JUMPDEST PUSH2 0x25C PUSH1 0x4 DUP1 CALLDATASIZE SUB DUP2 ADD SWAP1 PUSH2 0x257 SWAP2 SWAP1 PUSH2 0x18AE JUMP JUMPDEST PUSH2 0xD96 JUMP JUMPDEST STOP JUMPDEST CALLVALUE DUP1 ISZERO PUSH2 0x26A JUMPI PUSH1 0x0 DUP1 REVERT JUMPDEST POP PUSH2 0x285 PUSH1 0x4 DUP1 CALLDATASIZE SUB DUP2 ADD SWAP1 PUSH2 0x280 SWAP2 SWAP1 PUSH2 0x18AE JUMP JUMPDEST PUSH2 0xEB7 JUMP JUMPDEST PUSH1 0x40 MLOAD PUSH2 0x292 SWAP2 SWAP1 PUSH2 0x1B58 JUMP JUMPDEST PUSH1 0x40 MLOAD DUP1 SWAP2 SUB SWAP1 RETURN JUMPDEST CALLVALUE DUP1 ISZERO PUSH2 0x2A7 JUMPI PUSH1 0x0 DUP1 REVERT JUMPDEST POP PUSH2 0x2C2 PUSH1 0x4 DUP1 CALLDATASIZE SUB DUP2 ADD SWAP1 PUSH2 0x2BD SWAP2 SWAP1 PUSH2 0x1B73 JUMP JUMPDEST PUSH2 0xEF9 JUMP JUMPDEST PUSH1 0x40 MLOAD PUSH2 0x2D4 SWAP7 SWAP6 SWAP5 SWAP4 SWAP3 SWAP2 SWAP1 PUSH2 0x1ACA JUMP JUMPDEST PUSH1 0x40 MLOAD DUP1 SWAP2 SUB SWAP1 RETURN JUMPDEST CALLVALUE DUP1 ISZERO PUSH2 0x2E9 JUMPI PUSH1 0x0 DUP1 REVERT JUMPDEST POP PUSH2 0x304 PUSH1 0x4 DUP1 CALLDATASIZE SUB DUP2 ADD SWAP1 PUSH2 0x2FF SWAP2 SWAP1 PUSH2 0x18AE JUMP JUMPDEST PUSH2 0xFB8 JUMP JUMPDEST PUSH1 0x40 MLOAD PUSH2 0x311 SWAP2 SWAP1 PUSH2 0x1C5E JUMP JUMPDEST PUSH1 0x40 MLOAD DUP1 SWAP2 SUB SWAP1 RETURN JUMPDEST CALLVALUE DUP1 ISZERO PUSH2 0x326 JUMPI PUSH1 0x0 DUP1 REVERT JUMPDEST POP PUSH2 0x341 PUSH1 0x4 DUP1 CALLDATASIZE SUB DUP2 ADD SWAP1 PUSH2 0x33C SWAP2 SWAP1 PUSH2 0x18AE JUMP JUMPDEST PUSH2 0x106D JUMP JUMPDEST STOP JUMPDEST PUSH1 0x0 ADDRESS DUP6 DUP6 DUP6 DUP6 PUSH1 0x40 MLOAD PUSH1 0x20 ADD PUSH2 0x35E SWAP6 SWAP5 SWAP4 SWAP3 SWAP2 SWAP1 PUSH2 0x1D71 JUMP JUMPDEST PUSH1 0x40 MLOAD PUSH1 0x20 DUP2 DUP4 SUB SUB DUP2 MSTORE SWAP1 PUSH1 0x40 MSTORE DUP1 MLOAD SWAP1 PUSH1 0x20 ADD KECCAK256 SWAP1 POP SWAP5 SWAP4 POP POP POP POP JUMP JUMPDEST PUSH1 0x60 PUSH1 0x0 DUP1 PUSH1 0x1 DUP6 PUSH1 0x40 MLOAD PUSH2 0x393 SWAP2 SWAP1 PUSH2 0x1DD7 JUMP JUMPDEST SWAP1 DUP2 MSTORE PUSH1 0x20 ADD PUSH1 0x40 MLOAD DUP1 SWAP2 SUB SWAP1 KECCAK256 SWAP1 POP CALLER DUP2 PUSH1 0x0 ADD PUSH1 0x0 PUSH2 0x100 EXP DUP2 SLOAD DUP2 PUSH20 0xFFFFFFFFFFFFFFFFFFFFFFFFFFFFFFFFFFFFFFFF MUL NOT AND SWAP1 DUP4 PUSH20 0xFFFFFFFFFFFFFFFFFFFFFFFFFFFFFFFFFFFFFFFF AND MUL OR SWAP1 SSTORE POP DUP4 PUSH2 0xFFFF AND DUP2 PUSH1 0x2 ADD PUSH1 0x0 PUSH2 0x100 EXP DUP2 SLOAD DUP2 PUSH4 0xFFFFFFFF MUL NOT AND SWAP1 DUP4 PUSH4 0xFFFFFFFF AND MUL OR SWAP1 SSTORE POP DUP5 DUP5 DUP1 PUSH2 0xFFFF AND SWAP1 POP SWAP3 POP SWAP3 POP POP SWAP3 POP SWAP3 SWAP1 POP JUMP JUMPDEST DUP4 DUP4 PUSH1 0x0 PUSH1 0x1 DUP3 PUSH1 0x40 MLOAD PUSH2 0x436 SWAP2 SWAP1 PUSH2 0x1DD7 JUMP JUMPDEST SWAP1 DUP2 MSTORE PUSH1 0x20 ADD PUSH1 0x40 MLOAD DUP1 SWAP2 SUB SWAP1 KECCAK256 SWAP1 POP PUSH1 0x1 ISZERO ISZERO DUP2 PUSH1 0x3 ADD PUSH1 0x0 DUP6 PUSH20 0xFFFFFFFFFFFFFFFFFFFFFFFFFFFFFFFFFFFFFFFF AND PUSH20 0xFFFFFFFFFFFFFFFFFFFFFFFFFFFFFFFFFFFFFFFF AND DUP2 MSTORE PUSH1 0x20 ADD SWAP1 DUP2 MSTORE PUSH1 0x20 ADD PUSH1 0x0 KECCAK256 PUSH1 0x0 SWAP1 SLOAD SWAP1 PUSH2 0x100 EXP SWAP1 DIV PUSH1 0xFF AND ISZERO ISZERO EQ PUSH2 0x4DB JUMPI PUSH1 0x40 MLOAD PUSH32 0x8C379A000000000000000000000000000000000000000000000000000000000 DUP2 MSTORE PUSH1 0x4 ADD PUSH2 0x4D2 SWAP1 PUSH2 0x1E60 JUMP JUMPDEST PUSH1 0x40 MLOAD DUP1 SWAP2 SUB SWAP1 REVERT JUMPDEST DUP6 PUSH1 0x0 PUSH1 0x1 DUP3 PUSH1 0x40 MLOAD PUSH2 0x4EE SWAP2 SWAP1 PUSH2 0x1DD7 JUMP JUMPDEST SWAP1 DUP2 MSTORE PUSH1 0x20 ADD PUSH1 0x40 MLOAD DUP1 SWAP2 SUB SWAP1 KECCAK256 SWAP1 POP PUSH1 0x1 ISZERO ISZERO DUP2 PUSH1 0x2 ADD PUSH1 0x16 SWAP1 SLOAD SWAP1 PUSH2 0x100 EXP SWAP1 DIV PUSH1 0xFF AND ISZERO ISZERO EQ PUSH2 0x556 JUMPI PUSH1 0x40 MLOAD PUSH32 0x8C379A000000000000000000000000000000000000000000000000000000000 DUP2 MSTORE PUSH1 0x4 ADD PUSH2 0x54D SWAP1 PUSH2 0x1ECC JUMP JUMPDEST PUSH1 0x40 MLOAD DUP1 SWAP2 SUB SWAP1 REVERT JUMPDEST PUSH1 0x0 PUSH2 0x564 DUP11 DUP11 DUP11 TIMESTAMP PUSH2 0x343 JUMP JUMPDEST SWAP1 POP PUSH1 0x0 PUSH2 0x572 DUP3 DUP10 PUSH2 0x1153 JUMP JUMPDEST SWAP1 POP PUSH1 0x0 PUSH20 0xFFFFFFFFFFFFFFFFFFFFFFFFFFFFFFFFFFFFFFFF AND DUP2 PUSH20 0xFFFFFFFFFFFFFFFFFFFFFFFFFFFFFFFFFFFFFFFF AND EQ ISZERO PUSH2 0x5AE JUMPI PUSH1 0x0 DUP1 REVERT JUMPDEST PUSH1 0x2 PUSH1 0x0 DUP3 PUSH20 0xFFFFFFFFFFFFFFFFFFFFFFFFFFFFFFFFFFFFFFFF AND PUSH20 0xFFFFFFFFFFFFFFFFFFFFFFFFFFFFFFFFFFFFFFFF AND DUP2 MSTORE PUSH1 0x20 ADD SWAP1 DUP2 MSTORE PUSH1 0x20 ADD PUSH1 0x0 KECCAK256 SLOAD DUP10 EQ PUSH2 0x5F9 JUMPI PUSH1 0x0 DUP1 REVERT JUMPDEST PUSH1 0x2 PUSH1 0x0 DUP3 PUSH20 0xFFFFFFFFFFFFFFFFFFFFFFFFFFFFFFFFFFFFFFFF AND PUSH20 0xFFFFFFFFFFFFFFFFFFFFFFFFFFFFFFFFFFFFFFFF AND DUP2 MSTORE PUSH1 0x20 ADD SWAP1 DUP2 MSTORE PUSH1 0x20 ADD PUSH1 0x0 KECCAK256 PUSH1 0x0 DUP2 SLOAD DUP1 SWAP3 SWAP2 SWAP1 PUSH2 0x649 SWAP1 PUSH2 0x1F1B JUMP JUMPDEST SWAP2 SWAP1 POP SSTORE POP PUSH1 0x0 PUSH1 0x1 DUP12 PUSH1 0x40 MLOAD PUSH2 0x660 SWAP2 SWAP1 PUSH2 0x1DD7 JUMP JUMPDEST SWAP1 DUP2 MSTORE PUSH1 0x20 ADD PUSH1 0x40 MLOAD DUP1 SWAP2 SUB SWAP1 KECCAK256 SWAP1 POP PUSH1 0x0 ISZERO ISZERO DUP2 PUSH1 0x4 ADD PUSH1 0x0 DUP5 PUSH20 0xFFFFFFFFFFFFFFFFFFFFFFFFFFFFFFFFFFFFFFFF AND PUSH20 0xFFFFFFFFFFFFFFFFFFFFFFFFFFFFFFFFFFFFFFFF AND DUP2 MSTORE PUSH1 0x20 ADD SWAP1 DUP2 MSTORE PUSH1 0x20 ADD PUSH1 0x0 KECCAK256 PUSH1 0x0 SWAP1 SLOAD SWAP1 PUSH2 0x100 EXP SWAP1 DIV PUSH1 0xFF AND ISZERO ISZERO EQ PUSH2 0x705 JUMPI PUSH1 0x40 MLOAD PUSH32 0x8C379A000000000000000000000000000000000000000000000000000000000 DUP2 MSTORE PUSH1 0x4 ADD PUSH2 0x6FC SWAP1 PUSH2 0x1FB0 JUMP JUMPDEST PUSH1 0x40 MLOAD DUP1 SWAP2 SUB SWAP1 REVERT JUMPDEST PUSH2 0x710 DUP13 DUP13 DUP5 PUSH2 0x124C JUMP JUMPDEST POP PUSH32 0xF3F16A15F074B71C5138107DFC7C63B80524D5411CB967CAA97D8D9F12B2FD6B DUP13 PUSH1 0x1 PUSH1 0x40 MLOAD PUSH2 0x743 SWAP3 SWAP2 SWAP1 PUSH2 0x1FD0 JUMP JUMPDEST PUSH1 0x40 MLOAD DUP1 SWAP2 SUB SWAP1 LOG1 POP POP POP POP POP POP POP POP POP POP POP POP JUMP JUMPDEST PUSH1 0x60 PUSH1 0x0 DUP1 PUSH1 0x0 PUSH1 0x1 DUP6 PUSH1 0x40 MLOAD PUSH2 0x770 SWAP2 SWAP1 PUSH2 0x1DD7 JUMP JUMPDEST SWAP1 DUP2 MSTORE PUSH1 0x20 ADD PUSH1 0x40 MLOAD DUP1 SWAP2 SUB SWAP1 KECCAK256 SWAP1 POP DUP1 PUSH1 0x1 ADD DUP1 SLOAD SWAP1 POP PUSH8 0xFFFFFFFFFFFFFFFF DUP2 GT ISZERO PUSH2 0x7A1 JUMPI PUSH2 0x7A0 PUSH2 0x13F9 JUMP JUMPDEST JUMPDEST PUSH1 0x40 MLOAD SWAP1 DUP1 DUP3 MSTORE DUP1 PUSH1 0x20 MUL PUSH1 0x20 ADD DUP3 ADD PUSH1 0x40 MSTORE DUP1 ISZERO PUSH2 0x7CF JUMPI DUP2 PUSH1 0x20 ADD PUSH1 0x20 DUP3 MUL DUP1 CALLDATASIZE DUP4 CALLDATACOPY DUP1 DUP3 ADD SWAP2 POP POP SWAP1 POP JUMPDEST POP SWAP4 POP PUSH1 0x0 DUP1 PUSH1 0x0 JUMPDEST DUP7 MLOAD DUP2 GT PUSH2 0x9E5 JUMPI DUP3 DUP5 PUSH1 0x5 ADD PUSH1 0x0 DUP7 PUSH1 0x1 ADD DUP5 DUP2 SLOAD DUP2 LT PUSH2 0x7FD JUMPI PUSH2 0x7FC PUSH2 0x1FF9 JUMP JUMPDEST JUMPDEST SWAP1 PUSH1 0x0 MSTORE PUSH1 0x20 PUSH1 0x0 KECCAK256 ADD PUSH1 0x0 SWAP1 SLOAD SWAP1 PUSH2 0x100 EXP SWAP1 DIV PUSH20 0xFFFFFFFFFFFFFFFFFFFFFFFFFFFFFFFFFFFFFFFF AND PUSH20 0xFFFFFFFFFFFFFFFFFFFFFFFFFFFFFFFFFFFFFFFF AND PUSH20 0xFFFFFFFFFFFFFFFFFFFFFFFFFFFFFFFFFFFFFFFF AND DUP2 MSTORE PUSH1 0x20 ADD SWAP1 DUP2 MSTORE PUSH1 0x20 ADD PUSH1 0x0 KECCAK256 SLOAD GT ISZERO PUSH2 0x931 JUMPI DUP4 PUSH1 0x5 ADD PUSH1 0x0 DUP6 PUSH1 0x1 ADD DUP4 DUP2 SLOAD DUP2 LT PUSH2 0x885 JUMPI PUSH2 0x884 PUSH2 0x1FF9 JUMP JUMPDEST JUMPDEST SWAP1 PUSH1 0x0 MSTORE PUSH1 0x20 PUSH1 0x0 KECCAK256 ADD PUSH1 0x0 SWAP1 SLOAD SWAP1 PUSH2 0x100 EXP SWAP1 DIV PUSH20 0xFFFFFFFFFFFFFFFFFFFFFFFFFFFFFFFFFFFFFFFF AND PUSH20 0xFFFFFFFFFFFFFFFFFFFFFFFFFFFFFFFFFFFFFFFF AND PUSH20 0xFFFFFFFFFFFFFFFFFFFFFFFFFFFFFFFFFFFFFFFF AND DUP2 MSTORE PUSH1 0x20 ADD SWAP1 DUP2 MSTORE PUSH1 0x20 ADD PUSH1 0x0 KECCAK256 SLOAD SWAP3 POP DUP4 PUSH1 0x1 ADD DUP2 DUP2 SLOAD DUP2 LT PUSH2 0x903 JUMPI PUSH2 0x902 PUSH2 0x1FF9 JUMP JUMPDEST JUMPDEST SWAP1 PUSH1 0x0 MSTORE PUSH1 0x20 PUSH1 0x0 KECCAK256 ADD PUSH1 0x0 SWAP1 SLOAD SWAP1 PUSH2 0x100 EXP SWAP1 DIV PUSH20 0xFFFFFFFFFFFFFFFFFFFFFFFFFFFFFFFFFFFFFFFF AND SWAP2 POP JUMPDEST DUP4 PUSH1 0x5 ADD PUSH1 0x0 DUP6 PUSH1 0x1 ADD DUP4 DUP2 SLOAD DUP2 LT PUSH2 0x94D JUMPI PUSH2 0x94C PUSH2 0x1FF9 JUMP JUMPDEST JUMPDEST SWAP1 PUSH1 0x0 MSTORE PUSH1 0x20 PUSH1 0x0 KECCAK256 ADD PUSH1 0x0 SWAP1 SLOAD SWAP1 PUSH2 0x100 EXP SWAP1 DIV PUSH20 0xFFFFFFFFFFFFFFFFFFFFFFFFFFFFFFFFFFFFFFFF AND PUSH20 0xFFFFFFFFFFFFFFFFFFFFFFFFFFFFFFFFFFFFFFFF AND PUSH20 0xFFFFFFFFFFFFFFFFFFFFFFFFFFFFFFFFFFFFFFFF AND DUP2 MSTORE PUSH1 0x20 ADD SWAP1 DUP2 MSTORE PUSH1 0x20 ADD PUSH1 0x0 KECCAK256 SLOAD DUP8 DUP3 DUP2 MLOAD DUP2 LT PUSH2 0x9C6 JUMPI PUSH2 0x9C5 PUSH2 0x1FF9 JUMP JUMPDEST JUMPDEST PUSH1 0x20 MUL PUSH1 0x20 ADD ADD DUP2 DUP2 MSTORE POP POP DUP1 DUP1 PUSH2 0x9DD SWAP1 PUSH2 0x1F1B JUMP JUMPDEST SWAP2 POP POP PUSH2 0x7D8 JUMP JUMPDEST POP DUP6 DUP2 DUP4 SWAP6 POP SWAP6 POP SWAP6 POP POP POP POP SWAP2 SWAP4 SWAP1 SWAP3 POP JUMP JUMPDEST PUSH1 0x0 PUSH1 0x1 DUP3 PUSH1 0x40 MLOAD PUSH2 0xA0B SWAP2 SWAP1 PUSH2 0x1DD7 JUMP JUMPDEST SWAP1 DUP2 MSTORE PUSH1 0x20 ADD PUSH1 0x40 MLOAD DUP1 SWAP2 SUB SWAP1 KECCAK256 SWAP1 POP PUSH1 0x0 PUSH20 0xFFFFFFFFFFFFFFFFFFFFFFFFFFFFFFFFFFFFFFFF AND DUP2 PUSH1 0x0 ADD PUSH1 0x0 SWAP1 SLOAD SWAP1 PUSH2 0x100 EXP SWAP1 DIV PUSH20 0xFFFFFFFFFFFFFFFFFFFFFFFFFFFFFFFFFFFFFFFF AND PUSH20 0xFFFFFFFFFFFFFFFFFFFFFFFFFFFFFFFFFFFFFFFF AND EQ ISZERO PUSH2 0xAAF JUMPI PUSH1 0x40 MLOAD PUSH32 0x8C379A000000000000000000000000000000000000000000000000000000000 DUP2 MSTORE PUSH1 0x4 ADD PUSH2 0xAA6 SWAP1 PUSH2 0x2074 JUMP JUMPDEST PUSH1 0x40 MLOAD DUP1 SWAP2 SUB SWAP1 REVERT JUMPDEST CALLER PUSH20 0xFFFFFFFFFFFFFFFFFFFFFFFFFFFFFFFFFFFFFFFF AND DUP2 PUSH1 0x0 ADD PUSH1 0x0 SWAP1 SLOAD SWAP1 PUSH2 0x100 EXP SWAP1 DIV PUSH20 0xFFFFFFFFFFFFFFFFFFFFFFFFFFFFFFFFFFFFFFFF AND PUSH20 0xFFFFFFFFFFFFFFFFFFFFFFFFFFFFFFFFFFFFFFFF AND EQ PUSH2 0xB0F JUMPI PUSH2 0xB0E PUSH2 0x2094 JUMP JUMPDEST JUMPDEST DUP1 PUSH1 0x2 ADD PUSH1 0x0 SWAP1 SLOAD SWAP1 PUSH2 0x100 EXP SWAP1 DIV PUSH4 0xFFFFFFFF AND PUSH4 0xFFFFFFFF AND DUP2 PUSH1 0x2 ADD PUSH1 0x14 SWAP1 SLOAD SWAP1 PUSH2 0x100 EXP SWAP1 DIV PUSH2 0xFFFF AND PUSH2 0xFFFF AND LT PUSH2 0xB81 JUMPI PUSH1 0x40 MLOAD PUSH32 0x8C379A000000000000000000000000000000000000000000000000000000000 DUP2 MSTORE PUSH1 0x4 ADD PUSH2 0xB78 SWAP1 PUSH2 0x2135 JUMP JUMPDEST PUSH1 0x40 MLOAD DUP1 SWAP2 SUB SWAP1 REVERT JUMPDEST PUSH1 0x1 DUP2 PUSH1 0x3 ADD PUSH1 0x0 DUP6 PUSH20 0xFFFFFFFFFFFFFFFFFFFFFFFFFFFFFFFFFFFFFFFF AND PUSH20 0xFFFFFFFFFFFFFFFFFFFFFFFFFFFFFFFFFFFFFFFF AND DUP2 MSTORE PUSH1 0x20 ADD SWAP1 DUP2 MSTORE PUSH1 0x20 ADD PUSH1 0x0 KECCAK256 PUSH1 0x0 PUSH2 0x100 EXP DUP2 SLOAD DUP2 PUSH1 0xFF MUL NOT AND SWAP1 DUP4 ISZERO ISZERO MUL OR SWAP1 SSTORE POP DUP1 PUSH1 0x1 ADD DUP4 SWAP1 DUP1 PUSH1 0x1 DUP2 SLOAD ADD DUP1 DUP3 SSTORE DUP1 SWAP2 POP POP PUSH1 0x1 SWAP1 SUB SWAP1 PUSH1 0x0 MSTORE PUSH1 0x20 PUSH1 0x0 KECCAK256 ADD PUSH1 0x0 SWAP1 SWAP2 SWAP1 SWAP2 SWAP1 SWAP2 PUSH2 0x100 EXP DUP2 SLOAD DUP2 PUSH20 0xFFFFFFFFFFFFFFFFFFFFFFFFFFFFFFFFFFFFFFFF MUL NOT AND SWAP1 DUP4 PUSH20 0xFFFFFFFFFFFFFFFFFFFFFFFFFFFFFFFFFFFFFFFF AND MUL OR SWAP1 SSTORE POP DUP1 PUSH1 0x2 ADD PUSH1 0x14 DUP2 DUP2 SWAP1 SLOAD SWAP1 PUSH2 0x100 EXP SWAP1 DIV PUSH2 0xFFFF AND DUP1 SWAP3 SWAP2 SWAP1 PUSH2 0xC62 SWAP1 PUSH2 0x2155 JUMP JUMPDEST SWAP2 SWAP1 PUSH2 0x100 EXP DUP2 SLOAD DUP2 PUSH2 0xFFFF MUL NOT AND SWAP1 DUP4 PUSH2 0xFFFF AND MUL OR SWAP1 SSTORE POP POP PUSH32 0xC19C59AA93348E8FC54764BC642ECA975E2639F44CC683EF8F027E1529CBDA32 DUP4 PUSH1 0x40 MLOAD PUSH2 0xCAC SWAP2 SWAP1 PUSH2 0x2180 JUMP JUMPDEST PUSH1 0x40 MLOAD DUP1 SWAP2 SUB SWAP1 LOG1 POP POP POP JUMP JUMPDEST PUSH1 0x1 DUP2 DUP1 MLOAD PUSH1 0x20 DUP2 ADD DUP3 ADD DUP1 MLOAD DUP5 DUP3 MSTORE PUSH1 0x20 DUP4 ADD PUSH1 0x20 DUP6 ADD KECCAK256 DUP2 DUP4 MSTORE DUP1 SWAP6 POP POP POP POP POP POP PUSH1 0x0 SWAP2 POP SWAP1 POP DUP1 PUSH1 0x0 ADD PUSH1 0x0 SWAP1 SLOAD SWAP1 PUSH2 0x100 EXP SWAP1 DIV PUSH20 0xFFFFFFFFFFFFFFFFFFFFFFFFFFFFFFFFFFFFFFFF AND SWAP1 DUP1 PUSH1 0x2 ADD PUSH1 0x0 SWAP1 SLOAD SWAP1 PUSH2 0x100 EXP SWAP1 DIV PUSH4 0xFFFFFFFF AND SWAP1 DUP1 PUSH1 0x2 ADD PUSH1 0x4 SWAP1 SLOAD SWAP1 PUSH2 0x100 EXP SWAP1 DIV PUSH8 0xFFFFFFFFFFFFFFFF AND SWAP1 DUP1 PUSH1 0x2 ADD PUSH1 0xC SWAP1 SLOAD SWAP1 PUSH2 0x100 EXP SWAP1 DIV PUSH8 0xFFFFFFFFFFFFFFFF AND SWAP1 DUP1 PUSH1 0x2 ADD PUSH1 0x14 SWAP1 SLOAD SWAP1 PUSH2 0x100 EXP SWAP1 DIV PUSH2 0xFFFF AND SWAP1 DUP1 PUSH1 0x2 ADD PUSH1 0x16 SWAP1 SLOAD SWAP1 PUSH2 0x100 EXP SWAP1 DIV PUSH1 0xFF AND SWAP1 POP DUP7 JUMP JUMPDEST PUSH1 0x2 PUSH1 0x20 MSTORE DUP1 PUSH1 0x0 MSTORE PUSH1 0x40 PUSH1 0x0 KECCAK256 PUSH1 0x0 SWAP2 POP SWAP1 POP SLOAD DUP2 JUMP JUMPDEST PUSH1 0x0 PUSH1 0x1 DUP3 PUSH1 0x40 MLOAD PUSH2 0xDA8 SWAP2 SWAP1 PUSH2 0x1DD7 JUMP JUMPDEST SWAP1 DUP2 MSTORE PUSH1 0x20 ADD PUSH1 0x40 MLOAD DUP1 SWAP2 SUB SWAP1 KECCAK256 SWAP1 POP DUP1 PUSH1 0x0 ADD PUSH1 0x0 SWAP1 SLOAD SWAP1 PUSH2 0x100 EXP SWAP1 DIV PUSH20 0xFFFFFFFFFFFFFFFFFFFFFFFFFFFFFFFFFFFFFFFF AND PUSH20 0xFFFFFFFFFFFFFFFFFFFFFFFFFFFFFFFFFFFFFFFF AND CALLER PUSH20 0xFFFFFFFFFFFFFFFFFFFFFFFFFFFFFFFFFFFFFFFF AND EQ PUSH2 0xE4A JUMPI PUSH1 0x40 MLOAD PUSH32 0x8C379A000000000000000000000000000000000000000000000000000000000 DUP2 MSTORE PUSH1 0x4 ADD PUSH2 0xE41 SWAP1 PUSH2 0x21E7 JUMP JUMPDEST PUSH1 0x40 MLOAD DUP1 SWAP2 SUB SWAP1 REVERT JUMPDEST CALLER PUSH20 0xFFFFFFFFFFFFFFFFFFFFFFFFFFFFFFFFFFFFFFFF AND PUSH2 0x8FC DUP3 PUSH1 0x2 ADD PUSH1 0xC SWAP1 SLOAD SWAP1 PUSH2 0x100 EXP SWAP1 DIV PUSH8 0xFFFFFFFFFFFFFFFF AND PUSH8 0xFFFFFFFFFFFFFFFF AND SWAP1 DUP2 ISZERO MUL SWAP1 PUSH1 0x40 MLOAD PUSH1 0x0 PUSH1 0x40 MLOAD DUP1 DUP4 SUB DUP2 DUP6 DUP9 DUP9 CALL SWAP4 POP POP POP POP ISZERO DUP1 ISZERO PUSH2 0xEB2 JUMPI RETURNDATASIZE PUSH1 0x0 DUP1 RETURNDATACOPY RETURNDATASIZE PUSH1 0x0 REVERT JUMPDEST POP POP POP JUMP JUMPDEST PUSH1 0x0 DUP1 PUSH1 0x1 DUP4 PUSH1 0x40 MLOAD PUSH2 0xECA SWAP2 SWAP1 PUSH2 0x1DD7 JUMP JUMPDEST SWAP1 DUP2 MSTORE PUSH1 0x20 ADD PUSH1 0x40 MLOAD DUP1 SWAP2 SUB SWAP1 KECCAK256 SWAP1 POP DUP1 PUSH1 0x2 ADD PUSH1 0x14 SWAP1 SLOAD SWAP1 PUSH2 0x100 EXP SWAP1 DIV PUSH2 0xFFFF AND PUSH2 0xFFFF AND SWAP2 POP POP SWAP2 SWAP1 POP JUMP JUMPDEST PUSH1 0x0 DUP2 DUP2 SLOAD DUP2 LT PUSH2 0xF09 JUMPI PUSH1 0x0 DUP1 REVERT JUMPDEST SWAP1 PUSH1 0x0 MSTORE PUSH1 0x20 PUSH1 0x0 KECCAK256 SWAP1 PUSH1 0x6 MUL ADD PUSH1 0x0 SWAP2 POP SWAP1 POP DUP1 PUSH1 0x0 ADD PUSH1 0x0 SWAP1 SLOAD SWAP1 PUSH2 0x100 EXP SWAP1 DIV PUSH20 0xFFFFFFFFFFFFFFFFFFFFFFFFFFFFFFFFFFFFFFFF AND SWAP1 DUP1 PUSH1 0x2 ADD PUSH1 0x0 SWAP1 SLOAD SWAP1 PUSH2 0x100 EXP SWAP1 DIV PUSH4 0xFFFFFFFF AND SWAP1 DUP1 PUSH1 0x2 ADD PUSH1 0x4 SWAP1 SLOAD SWAP1 PUSH2 0x100 EXP SWAP1 DIV PUSH8 0xFFFFFFFFFFFFFFFF AND SWAP1 DUP1 PUSH1 0x2 ADD PUSH1 0xC SWAP1 SLOAD SWAP1 PUSH2 0x100 EXP SWAP1 DIV PUSH8 0xFFFFFFFFFFFFFFFF AND SWAP1 DUP1 PUSH1 0x2 ADD PUSH1 0x14 SWAP1 SLOAD SWAP1 PUSH2 0x100 EXP SWAP1 DIV PUSH2 0xFFFF AND SWAP1 DUP1 PUSH1 0x2 ADD PUSH1 0x16 SWAP1 SLOAD SWAP1 PUSH2 0x100 EXP SWAP1 DIV PUSH1 0xFF AND SWAP1 POP DUP7 JUMP JUMPDEST PUSH1 0x60 PUSH1 0x0 PUSH1 0x1 DUP4 PUSH1 0x40 MLOAD PUSH2 0xFCC SWAP2 SWAP1 PUSH2 0x1DD7 JUMP JUMPDEST SWAP1 DUP2 MSTORE PUSH1 0x20 ADD PUSH1 0x40 MLOAD DUP1 SWAP2 SUB SWAP1 KECCAK256 SWAP1 POP DUP1 PUSH1 0x1 ADD DUP1 SLOAD DUP1 PUSH1 0x20 MUL PUSH1 0x20 ADD PUSH1 0x40 MLOAD SWAP1 DUP2 ADD PUSH1 0x40 MSTORE DUP1 SWAP3 SWAP2 SWAP1 DUP2 DUP2 MSTORE PUSH1 0x20 ADD DUP3 DUP1 SLOAD DUP1 ISZERO PUSH2 0x1060 JUMPI PUSH1 0x20 MUL DUP3 ADD SWAP2 SWAP1 PUSH1 0x0 MSTORE PUSH1 0x20 PUSH1 0x0 KECCAK256 SWAP1 JUMPDEST DUP2 PUSH1 0x0 SWAP1 SLOAD SWAP1 PUSH2 0x100 EXP SWAP1 DIV PUSH20 0xFFFFFFFFFFFFFFFFFFFFFFFFFFFFFFFFFFFFFFFF AND PUSH20 0xFFFFFFFFFFFFFFFFFFFFFFFFFFFFFFFFFFFFFFFF AND DUP2 MSTORE PUSH1 0x20 ADD SWAP1 PUSH1 0x1 ADD SWAP1 DUP1 DUP4 GT PUSH2 0x1016 JUMPI JUMPDEST POP POP POP POP POP SWAP2 POP POP SWAP2 SWAP1 POP JUMP JUMPDEST PUSH1 0x0 PUSH1 0x1 DUP3 PUSH1 0x40 MLOAD PUSH2 0x107F SWAP2 SWAP1 PUSH2 0x1DD7 JUMP JUMPDEST SWAP1 DUP2 MSTORE PUSH1 0x20 ADD PUSH1 0x40 MLOAD DUP1 SWAP2 SUB SWAP1 KECCAK256 SWAP1 POP CALLER PUSH20 0xFFFFFFFFFFFFFFFFFFFFFFFFFFFFFFFFFFFFFFFF AND DUP2 PUSH1 0x0 ADD PUSH1 0x0 SWAP1 SLOAD SWAP1 PUSH2 0x100 EXP SWAP1 DIV PUSH20 0xFFFFFFFFFFFFFFFFFFFFFFFFFFFFFFFFFFFFFFFF AND PUSH20 0xFFFFFFFFFFFFFFFFFFFFFFFFFFFFFFFFFFFFFFFF AND EQ PUSH2 0x1121 JUMPI PUSH1 0x40 MLOAD PUSH32 0x8C379A000000000000000000000000000000000000000000000000000000000 DUP2 MSTORE PUSH1 0x4 ADD PUSH2 0x1118 SWAP1 PUSH2 0x21E7 JUMP JUMPDEST PUSH1 0x40 MLOAD DUP1 SWAP2 SUB SWAP1 REVERT JUMPDEST DUP1 PUSH1 0x2 ADD PUSH1 0x16 SWAP1 SLOAD SWAP1 PUSH2 0x100 EXP SWAP1 DIV PUSH1 0xFF AND ISZERO DUP2 PUSH1 0x2 ADD PUSH1 0x16 PUSH2 0x100 EXP DUP2 SLOAD DUP2 PUSH1 0xFF MUL NOT AND SWAP1 DUP4 ISZERO ISZERO MUL OR SWAP1 SSTORE POP POP POP JUMP JUMPDEST PUSH1 0x0 DUP1 PUSH1 0x0 DUP1 PUSH1 0x41 DUP6 MLOAD EQ PUSH2 0x116E JUMPI PUSH1 0x0 SWAP4 POP POP POP POP PUSH2 0x1246 JUMP JUMPDEST PUSH1 0x20 DUP6 ADD MLOAD SWAP3 POP PUSH1 0x40 DUP6 ADD MLOAD SWAP2 POP PUSH1 0x60 DUP6 ADD MLOAD PUSH1 0x0 BYTE SWAP1 POP PUSH1 0x1B DUP2 PUSH1 0xFF AND LT ISZERO PUSH2 0x11A2 JUMPI PUSH1 0x1B DUP2 PUSH2 0x119F SWAP2 SWAP1 PUSH2 0x2214 JUMP JUMPDEST SWAP1 POP JUMPDEST PUSH1 0x1B DUP2 PUSH1 0xFF AND EQ ISZERO DUP1 ISZERO PUSH2 0x11BA JUMPI POP PUSH1 0x1C DUP2 PUSH1 0xFF AND EQ ISZERO JUMPDEST ISZERO PUSH2 0x11CB JUMPI PUSH1 0x0 SWAP4 POP POP POP POP PUSH2 0x1246 JUMP JUMPDEST PUSH1 0x1 DUP7 PUSH1 0x40 MLOAD PUSH1 0x20 ADD PUSH2 0x11DE SWAP2 SWAP1 PUSH2 0x22B8 JUMP JUMPDEST PUSH1 0x40 MLOAD PUSH1 0x20 DUP2 DUP4 SUB SUB DUP2 MSTORE SWAP1 PUSH1 0x40 MSTORE DUP1 MLOAD SWAP1 PUSH1 0x20 ADD KECCAK256 DUP3 DUP6 DUP6 PUSH1 0x40 MLOAD PUSH1 0x0 DUP2 MSTORE PUSH1 0x20 ADD PUSH1 0x40 MSTORE PUSH1 0x40 MLOAD PUSH2 0x1214 SWAP5 SWAP4 SWAP3 SWAP2 SWAP1 PUSH2 0x22ED JUMP JUMPDEST PUSH1 0x20 PUSH1 0x40 MLOAD PUSH1 0x20 DUP2 SUB SWAP1 DUP1 DUP5 SUB SWAP1 DUP6 GAS STATICCALL ISZERO DUP1 ISZERO PUSH2 0x1236 JUMPI RETURNDATASIZE PUSH1 0x0 DUP1 RETURNDATACOPY RETURNDATASIZE PUSH1 0x0 REVERT JUMPDEST POP POP POP PUSH1 0x20 PUSH1 0x40 MLOAD SUB MLOAD SWAP4 POP POP POP POP JUMPDEST SWAP3 SWAP2 POP POP JUMP JUMPDEST PUSH1 0x0 DUP1 PUSH1 0x1 DUP5 PUSH1 0x40 MLOAD PUSH2 0x125F SWAP2 SWAP1 PUSH2 0x1DD7 JUMP JUMPDEST SWAP1 DUP2 MSTORE PUSH1 0x20 ADD PUSH1 0x40 MLOAD DUP1 SWAP2 SUB SWAP1 KECCAK256 SWAP1 POP PUSH1 0x1 DUP2 PUSH1 0x4 ADD PUSH1 0x0 DUP6 PUSH20 0xFFFFFFFFFFFFFFFFFFFFFFFFFFFFFFFFFFFFFFFF AND PUSH20 0xFFFFFFFFFFFFFFFFFFFFFFFFFFFFFFFFFFFFFFFF AND DUP2 MSTORE PUSH1 0x20 ADD SWAP1 DUP2 MSTORE PUSH1 0x20 ADD PUSH1 0x0 KECCAK256 PUSH1 0x0 PUSH2 0x100 EXP DUP2 SLOAD DUP2 PUSH1 0xFF MUL NOT AND SWAP1 DUP4 ISZERO ISZERO MUL OR SWAP1 SSTORE POP DUP1 PUSH1 0x5 ADD PUSH1 0x0 DUP7 PUSH20 0xFFFFFFFFFFFFFFFFFFFFFFFFFFFFFFFFFFFFFFFF AND PUSH20 0xFFFFFFFFFFFFFFFFFFFFFFFFFFFFFFFFFFFFFFFF AND DUP2 MSTORE PUSH1 0x20 ADD SWAP1 DUP2 MSTORE PUSH1 0x20 ADD PUSH1 0x0 KECCAK256 PUSH1 0x0 DUP2 SLOAD DUP1 SWAP3 SWAP2 SWAP1 PUSH2 0x131B SWAP1 PUSH2 0x1F1B JUMP JUMPDEST SWAP2 SWAP1 POP SSTORE POP DUP1 PUSH1 0x5 ADD PUSH1 0x0 DUP7 PUSH20 0xFFFFFFFFFFFFFFFFFFFFFFFFFFFFFFFFFFFFFFFF AND PUSH20 0xFFFFFFFFFFFFFFFFFFFFFFFFFFFFFFFFFFFFFFFF AND DUP2 MSTORE PUSH1 0x20 ADD SWAP1 DUP2 MSTORE PUSH1 0x20 ADD PUSH1 0x0 KECCAK256 SLOAD SWAP2 POP POP SWAP4 SWAP3 POP POP POP JUMP JUMPDEST PUSH1 0x0 PUSH1 0x40 MLOAD SWAP1 POP SWAP1 JUMP JUMPDEST PUSH1 0x0 DUP1 REVERT JUMPDEST PUSH1 0x0 DUP1 REVERT JUMPDEST PUSH1 0x0 PUSH20 0xFFFFFFFFFFFFFFFFFFFFFFFFFFFFFFFFFFFFFFFF DUP3 AND SWAP1 POP SWAP2 SWAP1 POP JUMP JUMPDEST PUSH1 0x0 PUSH2 0x13AB DUP3 PUSH2 0x1380 JUMP JUMPDEST SWAP1 POP SWAP2 SWAP1 POP JUMP JUMPDEST PUSH2 0x13BB DUP2 PUSH2 0x13A0 JUMP JUMPDEST DUP2 EQ PUSH2 0x13C6 JUMPI PUSH1 0x0 DUP1 REVERT JUMPDEST POP JUMP JUMPDEST PUSH1 0x0 DUP2 CALLDATALOAD SWAP1 POP PUSH2 0x13D8 DUP2 PUSH2 0x13B2 JUMP JUMPDEST SWAP3 SWAP2 POP POP JUMP JUMPDEST PUSH1 0x0 DUP1 REVERT JUMPDEST PUSH1 0x0 DUP1 REVERT JUMPDEST PUSH1 0x0 PUSH1 0x1F NOT PUSH1 0x1F DUP4 ADD AND SWAP1 POP SWAP2 SWAP1 POP JUMP JUMPDEST PUSH32 0x4E487B7100000000000000000000000000000000000000000000000000000000 PUSH1 0x0 MSTORE PUSH1 0x41 PUSH1 0x4 MSTORE PUSH1 0x24 PUSH1 0x0 REVERT JUMPDEST PUSH2 0x1431 DUP3 PUSH2 0x13E8 JUMP JUMPDEST DUP2 ADD DUP2 DUP2 LT PUSH8 0xFFFFFFFFFFFFFFFF DUP3 GT OR ISZERO PUSH2 0x1450 JUMPI PUSH2 0x144F PUSH2 0x13F9 JUMP JUMPDEST JUMPDEST DUP1 PUSH1 0x40 MSTORE POP POP POP JUMP JUMPDEST PUSH1 0x0 PUSH2 0x1463 PUSH2 0x136C JUMP JUMPDEST SWAP1 POP PUSH2 0x146F DUP3 DUP3 PUSH2 0x1428 JUMP JUMPDEST SWAP2 SWAP1 POP JUMP JUMPDEST PUSH1 0x0 PUSH8 0xFFFFFFFFFFFFFFFF DUP3 GT ISZERO PUSH2 0x148F JUMPI PUSH2 0x148E PUSH2 0x13F9 JUMP JUMPDEST JUMPDEST PUSH2 0x1498 DUP3 PUSH2 0x13E8 JUMP JUMPDEST SWAP1 POP PUSH1 0x20 DUP2 ADD SWAP1 POP SWAP2 SWAP1 POP JUMP JUMPDEST DUP3 DUP2 DUP4 CALLDATACOPY PUSH1 0x0 DUP4 DUP4 ADD MSTORE POP POP POP JUMP JUMPDEST PUSH1 0x0 PUSH2 0x14C7 PUSH2 0x14C2 DUP5 PUSH2 0x1474 JUMP JUMPDEST PUSH2 0x1459 JUMP JUMPDEST SWAP1 POP DUP3 DUP2 MSTORE PUSH1 0x20 DUP2 ADD DUP5 DUP5 DUP5 ADD GT ISZERO PUSH2 0x14E3 JUMPI PUSH2 0x14E2 PUSH2 0x13E3 JUMP JUMPDEST JUMPDEST PUSH2 0x14EE DUP5 DUP3 DUP6 PUSH2 0x14A5 JUMP JUMPDEST POP SWAP4 SWAP3 POP POP POP JUMP JUMPDEST PUSH1 0x0 DUP3 PUSH1 0x1F DUP4 ADD SLT PUSH2 0x150B JUMPI PUSH2 0x150A PUSH2 0x13DE JUMP JUMPDEST JUMPDEST DUP2 CALLDATALOAD PUSH2 0x151B DUP5 DUP3 PUSH1 0x20 DUP7 ADD PUSH2 0x14B4 JUMP JUMPDEST SWAP2 POP POP SWAP3 SWAP2 POP POP JUMP JUMPDEST PUSH1 0x0 DUP2 SWAP1 POP SWAP2 SWAP1 POP JUMP JUMPDEST PUSH2 0x1537 DUP2 PUSH2 0x1524 JUMP JUMPDEST DUP2 EQ PUSH2 0x1542 JUMPI PUSH1 0x0 DUP1 REVERT JUMPDEST POP JUMP JUMPDEST PUSH1 0x0 DUP2 CALLDATALOAD SWAP1 POP PUSH2 0x1554 DUP2 PUSH2 0x152E JUMP JUMPDEST SWAP3 SWAP2 POP POP JUMP JUMPDEST PUSH1 0x0 DUP1 PUSH1 0x0 DUP1 PUSH1 0x80 DUP6 DUP8 SUB SLT ISZERO PUSH2 0x1574 JUMPI PUSH2 0x1573 PUSH2 0x1376 JUMP JUMPDEST JUMPDEST PUSH1 0x0 PUSH2 0x1582 DUP8 DUP3 DUP9 ADD PUSH2 0x13C9 JUMP JUMPDEST SWAP5 POP POP PUSH1 0x20 DUP6 ADD CALLDATALOAD PUSH8 0xFFFFFFFFFFFFFFFF DUP2 GT ISZERO PUSH2 0x15A3 JUMPI PUSH2 0x15A2 PUSH2 0x137B JUMP JUMPDEST JUMPDEST PUSH2 0x15AF DUP8 DUP3 DUP9 ADD PUSH2 0x14F6 JUMP JUMPDEST SWAP4 POP POP PUSH1 0x40 PUSH2 0x15C0 DUP8 DUP3 DUP9 ADD PUSH2 0x1545 JUMP JUMPDEST SWAP3 POP POP PUSH1 0x60 PUSH2 0x15D1 DUP8 DUP3 DUP9 ADD PUSH2 0x1545 JUMP JUMPDEST SWAP2 POP POP SWAP3 SWAP6 SWAP2 SWAP5 POP SWAP3 POP JUMP JUMPDEST PUSH1 0x0 DUP2 SWAP1 POP SWAP2 SWAP1 POP JUMP JUMPDEST PUSH2 0x15F0 DUP2 PUSH2 0x15DD JUMP JUMPDEST DUP3 MSTORE POP POP JUMP JUMPDEST PUSH1 0x0 PUSH1 0x20 DUP3 ADD SWAP1 POP PUSH2 0x160B PUSH1 0x0 DUP4 ADD DUP5 PUSH2 0x15E7 JUMP JUMPDEST SWAP3 SWAP2 POP POP JUMP JUMPDEST PUSH1 0x0 PUSH2 0xFFFF DUP3 AND SWAP1 POP SWAP2 SWAP1 POP JUMP JUMPDEST PUSH2 0x1628 DUP2 PUSH2 0x1611 JUMP JUMPDEST DUP2 EQ PUSH2 0x1633 JUMPI PUSH1 0x0 DUP1 REVERT JUMPDEST POP JUMP JUMPDEST PUSH1 0x0 DUP2 CALLDATALOAD SWAP1 POP PUSH2 0x1645 DUP2 PUSH2 0x161F JUMP JUMPDEST SWAP3 SWAP2 POP POP JUMP JUMPDEST PUSH1 0x0 DUP1 PUSH1 0x40 DUP4 DUP6 SUB SLT ISZERO PUSH2 0x1662 JUMPI PUSH2 0x1661 PUSH2 0x1376 JUMP JUMPDEST JUMPDEST PUSH1 0x0 DUP4 ADD CALLDATALOAD PUSH8 0xFFFFFFFFFFFFFFFF DUP2 GT ISZERO PUSH2 0x1680 JUMPI PUSH2 0x167F PUSH2 0x137B JUMP JUMPDEST JUMPDEST PUSH2 0x168C DUP6 DUP3 DUP7 ADD PUSH2 0x14F6 JUMP JUMPDEST SWAP3 POP POP PUSH1 0x20 PUSH2 0x169D DUP6 DUP3 DUP7 ADD PUSH2 0x1636 JUMP JUMPDEST SWAP2 POP POP SWAP3 POP SWAP3 SWAP1 POP JUMP JUMPDEST PUSH1 0x0 DUP2 MLOAD SWAP1 POP SWAP2 SWAP1 POP JUMP JUMPDEST PUSH1 0x0 DUP3 DUP3 MSTORE PUSH1 0x20 DUP3 ADD SWAP1 POP SWAP3 SWAP2 POP POP JUMP JUMPDEST PUSH1 0x0 JUMPDEST DUP4 DUP2 LT ISZERO PUSH2 0x16E1 JUMPI DUP1 DUP3 ADD MLOAD DUP2 DUP5 ADD MSTORE PUSH1 0x20 DUP2 ADD SWAP1 POP PUSH2 0x16C6 JUMP JUMPDEST DUP4 DUP2 GT ISZERO PUSH2 0x16F0 JUMPI PUSH1 0x0 DUP5 DUP5 ADD MSTORE JUMPDEST POP POP POP POP JUMP JUMPDEST PUSH1 0x0 PUSH2 0x1701 DUP3 PUSH2 0x16A7 JUMP JUMPDEST PUSH2 0x170B DUP2 DUP6 PUSH2 0x16B2 JUMP JUMPDEST SWAP4 POP PUSH2 0x171B DUP2 DUP6 PUSH1 0x20 DUP7 ADD PUSH2 0x16C3 JUMP JUMPDEST PUSH2 0x1724 DUP2 PUSH2 0x13E8 JUMP JUMPDEST DUP5 ADD SWAP2 POP POP SWAP3 SWAP2 POP POP JUMP JUMPDEST PUSH2 0x1738 DUP2 PUSH2 0x1524 JUMP JUMPDEST DUP3 MSTORE POP POP JUMP JUMPDEST PUSH1 0x0 PUSH1 0x40 DUP3 ADD SWAP1 POP DUP2 DUP2 SUB PUSH1 0x0 DUP4 ADD MSTORE PUSH2 0x1758 DUP2 DUP6 PUSH2 0x16F6 JUMP JUMPDEST SWAP1 POP PUSH2 0x1767 PUSH1 0x20 DUP4 ADD DUP5 PUSH2 0x172F JUMP JUMPDEST SWAP4 SWAP3 POP POP POP JUMP JUMPDEST PUSH1 0x0 PUSH8 0xFFFFFFFFFFFFFFFF DUP3 GT ISZERO PUSH2 0x1789 JUMPI PUSH2 0x1788 PUSH2 0x13F9 JUMP JUMPDEST JUMPDEST PUSH2 0x1792 DUP3 PUSH2 0x13E8 JUMP JUMPDEST SWAP1 POP PUSH1 0x20 DUP2 ADD SWAP1 POP SWAP2 SWAP1 POP JUMP JUMPDEST PUSH1 0x0 PUSH2 0x17B2 PUSH2 0x17AD DUP5 PUSH2 0x176E JUMP JUMPDEST PUSH2 0x1459 JUMP JUMPDEST SWAP1 POP DUP3 DUP2 MSTORE PUSH1 0x20 DUP2 ADD DUP5 DUP5 DUP5 ADD GT ISZERO PUSH2 0x17CE JUMPI PUSH2 0x17CD PUSH2 0x13E3 JUMP JUMPDEST JUMPDEST PUSH2 0x17D9 DUP5 DUP3 DUP6 PUSH2 0x14A5 JUMP JUMPDEST POP SWAP4 SWAP3 POP POP POP JUMP JUMPDEST PUSH1 0x0 DUP3 PUSH1 0x1F DUP4 ADD SLT PUSH2 0x17F6 JUMPI PUSH2 0x17F5 PUSH2 0x13DE JUMP JUMPDEST JUMPDEST DUP2 CALLDATALOAD PUSH2 0x1806 DUP5 DUP3 PUSH1 0x20 DUP7 ADD PUSH2 0x179F JUMP JUMPDEST SWAP2 POP POP SWAP3 SWAP2 POP POP JUMP JUMPDEST PUSH1 0x0 DUP1 PUSH1 0x0 DUP1 PUSH1 0x80 DUP6 DUP8 SUB SLT ISZERO PUSH2 0x1829 JUMPI PUSH2 0x1828 PUSH2 0x1376 JUMP JUMPDEST JUMPDEST PUSH1 0x0 PUSH2 0x1837 DUP8 DUP3 DUP9 ADD PUSH2 0x13C9 JUMP JUMPDEST SWAP5 POP POP PUSH1 0x20 DUP6 ADD CALLDATALOAD PUSH8 0xFFFFFFFFFFFFFFFF DUP2 GT ISZERO PUSH2 0x1858 JUMPI PUSH2 0x1857 PUSH2 0x137B JUMP JUMPDEST JUMPDEST PUSH2 0x1864 DUP8 DUP3 DUP9 ADD PUSH2 0x14F6 JUMP JUMPDEST SWAP4 POP POP PUSH1 0x40 PUSH2 0x1875 DUP8 DUP3 DUP9 ADD PUSH2 0x1545 JUMP JUMPDEST SWAP3 POP POP PUSH1 0x60 DUP6 ADD CALLDATALOAD PUSH8 0xFFFFFFFFFFFFFFFF DUP2 GT ISZERO PUSH2 0x1896 JUMPI PUSH2 0x1895 PUSH2 0x137B JUMP JUMPDEST JUMPDEST PUSH2 0x18A2 DUP8 DUP3 DUP9 ADD PUSH2 0x17E1 JUMP JUMPDEST SWAP2 POP POP SWAP3 SWAP6 SWAP2 SWAP5 POP SWAP3 POP JUMP JUMPDEST PUSH1 0x0 PUSH1 0x20 DUP3 DUP5 SUB SLT ISZERO PUSH2 0x18C4 JUMPI PUSH2 0x18C3 PUSH2 0x1376 JUMP JUMPDEST JUMPDEST PUSH1 0x0 DUP3 ADD CALLDATALOAD PUSH8 0xFFFFFFFFFFFFFFFF DUP2 GT ISZERO PUSH2 0x18E2 JUMPI PUSH2 0x18E1 PUSH2 0x137B JUMP JUMPDEST JUMPDEST PUSH2 0x18EE DUP5 DUP3 DUP6 ADD PUSH2 0x14F6 JUMP JUMPDEST SWAP2 POP POP SWAP3 SWAP2 POP POP JUMP JUMPDEST PUSH1 0x0 DUP2 MLOAD SWAP1 POP SWAP2 SWAP1 POP JUMP JUMPDEST PUSH1 0x0 DUP3 DUP3 MSTORE PUSH1 0x20 DUP3 ADD SWAP1 POP SWAP3 SWAP2 POP POP JUMP JUMPDEST PUSH1 0x0 DUP2 SWAP1 POP PUSH1 0x20 DUP3 ADD SWAP1 POP SWAP2 SWAP1 POP JUMP JUMPDEST PUSH2 0x192C DUP2 PUSH2 0x1524 JUMP JUMPDEST DUP3 MSTORE POP POP JUMP JUMPDEST PUSH1 0x0 PUSH2 0x193E DUP4 DUP4 PUSH2 0x1923 JUMP JUMPDEST PUSH1 0x20 DUP4 ADD SWAP1 POP SWAP3 SWAP2 POP POP JUMP JUMPDEST PUSH1 0x0 PUSH1 0x20 DUP3 ADD SWAP1 POP SWAP2 SWAP1 POP JUMP JUMPDEST PUSH1 0x0 PUSH2 0x1962 DUP3 PUSH2 0x18F7 JUMP JUMPDEST PUSH2 0x196C DUP2 DUP6 PUSH2 0x1902 JUMP JUMPDEST SWAP4 POP PUSH2 0x1977 DUP4 PUSH2 0x1913 JUMP JUMPDEST DUP1 PUSH1 0x0 JUMPDEST DUP4 DUP2 LT ISZERO PUSH2 0x19A8 JUMPI DUP2 MLOAD PUSH2 0x198F DUP9 DUP3 PUSH2 0x1932 JUMP JUMPDEST SWAP8 POP PUSH2 0x199A DUP4 PUSH2 0x194A JUMP JUMPDEST SWAP3 POP POP PUSH1 0x1 DUP2 ADD SWAP1 POP PUSH2 0x197B JUMP JUMPDEST POP DUP6 SWAP4 POP POP POP POP SWAP3 SWAP2 POP POP JUMP JUMPDEST PUSH2 0x19BE DUP2 PUSH2 0x13A0 JUMP JUMPDEST DUP3 MSTORE POP POP JUMP JUMPDEST PUSH1 0x0 PUSH1 0x60 DUP3 ADD SWAP1 POP DUP2 DUP2 SUB PUSH1 0x0 DUP4 ADD MSTORE PUSH2 0x19DE DUP2 DUP7 PUSH2 0x1957 JUMP JUMPDEST SWAP1 POP PUSH2 0x19ED PUSH1 0x20 DUP4 ADD DUP6 PUSH2 0x19B5 JUMP JUMPDEST PUSH2 0x19FA PUSH1 0x40 DUP4 ADD DUP5 PUSH2 0x172F JUMP JUMPDEST SWAP5 SWAP4 POP POP POP POP JUMP JUMPDEST PUSH1 0x0 DUP1 PUSH1 0x40 DUP4 DUP6 SUB SLT ISZERO PUSH2 0x1A19 JUMPI PUSH2 0x1A18 PUSH2 0x1376 JUMP JUMPDEST JUMPDEST PUSH1 0x0 PUSH2 0x1A27 DUP6 DUP3 DUP7 ADD PUSH2 0x13C9 JUMP JUMPDEST SWAP3 POP POP PUSH1 0x20 DUP4 ADD CALLDATALOAD PUSH8 0xFFFFFFFFFFFFFFFF DUP2 GT ISZERO PUSH2 0x1A48 JUMPI PUSH2 0x1A47 PUSH2 0x137B JUMP JUMPDEST JUMPDEST PUSH2 0x1A54 DUP6 DUP3 DUP7 ADD PUSH2 0x14F6 JUMP JUMPDEST SWAP2 POP POP SWAP3 POP SWAP3 SWAP1 POP JUMP JUMPDEST PUSH1 0x0 PUSH4 0xFFFFFFFF DUP3 AND SWAP1 POP SWAP2 SWAP1 POP JUMP JUMPDEST PUSH2 0x1A77 DUP2 PUSH2 0x1A5E JUMP JUMPDEST DUP3 MSTORE POP POP JUMP JUMPDEST PUSH1 0x0 PUSH8 0xFFFFFFFFFFFFFFFF DUP3 AND SWAP1 POP SWAP2 SWAP1 POP JUMP JUMPDEST PUSH2 0x1A9A DUP2 PUSH2 0x1A7D JUMP JUMPDEST DUP3 MSTORE POP POP JUMP JUMPDEST PUSH2 0x1AA9 DUP2 PUSH2 0x1611 JUMP JUMPDEST DUP3 MSTORE POP POP JUMP JUMPDEST PUSH1 0x0 DUP2 ISZERO ISZERO SWAP1 POP SWAP2 SWAP1 POP JUMP JUMPDEST PUSH2 0x1AC4 DUP2 PUSH2 0x1AAF JUMP JUMPDEST DUP3 MSTORE POP POP JUMP JUMPDEST PUSH1 0x0 PUSH1 0xC0 DUP3 ADD SWAP1 POP PUSH2 0x1ADF PUSH1 0x0 DUP4 ADD DUP10 PUSH2 0x19B5 JUMP JUMPDEST PUSH2 0x1AEC PUSH1 0x20 DUP4 ADD DUP9 PUSH2 0x1A6E JUMP JUMPDEST PUSH2 0x1AF9 PUSH1 0x40 DUP4 ADD DUP8 PUSH2 0x1A91 JUMP JUMPDEST PUSH2 0x1B06 PUSH1 0x60 DUP4 ADD DUP7 PUSH2 0x1A91 JUMP JUMPDEST PUSH2 0x1B13 PUSH1 0x80 DUP4 ADD DUP6 PUSH2 0x1AA0 JUMP JUMPDEST PUSH2 0x1B20 PUSH1 0xA0 DUP4 ADD DUP5 PUSH2 0x1ABB JUMP JUMPDEST SWAP8 SWAP7 POP POP POP POP POP POP POP JUMP JUMPDEST PUSH1 0x0 PUSH1 0x20 DUP3 DUP5 SUB SLT ISZERO PUSH2 0x1B41 JUMPI PUSH2 0x1B40 PUSH2 0x1376 JUMP JUMPDEST JUMPDEST PUSH1 0x0 PUSH2 0x1B4F DUP5 DUP3 DUP6 ADD PUSH2 0x13C9 JUMP JUMPDEST SWAP2 POP POP SWAP3 SWAP2 POP POP JUMP JUMPDEST PUSH1 0x0 PUSH1 0x20 DUP3 ADD SWAP1 POP PUSH2 0x1B6D PUSH1 0x0 DUP4 ADD DUP5 PUSH2 0x172F JUMP JUMPDEST SWAP3 SWAP2 POP POP JUMP JUMPDEST PUSH1 0x0 PUSH1 0x20 DUP3 DUP5 SUB SLT ISZERO PUSH2 0x1B89 JUMPI PUSH2 0x1B88 PUSH2 0x1376 JUMP JUMPDEST JUMPDEST PUSH1 0x0 PUSH2 0x1B97 DUP5 DUP3 DUP6 ADD PUSH2 0x1545 JUMP JUMPDEST SWAP2 POP POP SWAP3 SWAP2 POP POP JUMP JUMPDEST PUSH1 0x0 DUP2 MLOAD SWAP1 POP SWAP2 SWAP1 POP JUMP JUMPDEST PUSH1 0x0 DUP3 DUP3 MSTORE PUSH1 0x20 DUP3 ADD SWAP1 POP SWAP3 SWAP2 POP POP JUMP JUMPDEST PUSH1 0x0 DUP2 SWAP1 POP PUSH1 0x20 DUP3 ADD SWAP1 POP SWAP2 SWAP1 POP JUMP JUMPDEST PUSH2 0x1BD5 DUP2 PUSH2 0x13A0 JUMP JUMPDEST DUP3 MSTORE POP POP JUMP JUMPDEST PUSH1 0x0 PUSH2 0x1BE7 DUP4 DUP4 PUSH2 0x1BCC JUMP JUMPDEST PUSH1 0x20 DUP4 ADD SWAP1 POP SWAP3 SWAP2 POP POP JUMP JUMPDEST PUSH1 0x0 PUSH1 0x20 DUP3 ADD SWAP1 POP SWAP2 SWAP1 POP JUMP JUMPDEST PUSH1 0x0 PUSH2 0x1C0B DUP3 PUSH2 0x1BA0 JUMP JUMPDEST PUSH2 0x1C15 DUP2 DUP6 PUSH2 0x1BAB JUMP JUMPDEST SWAP4 POP PUSH2 0x1C20 DUP4 PUSH2 0x1BBC JUMP JUMPDEST DUP1 PUSH1 0x0 JUMPDEST DUP4 DUP2 LT ISZERO PUSH2 0x1C51 JUMPI DUP2 MLOAD PUSH2 0x1C38 DUP9 DUP3 PUSH2 0x1BDB JUMP JUMPDEST SWAP8 POP PUSH2 0x1C43 DUP4 PUSH2 0x1BF3 JUMP JUMPDEST SWAP3 POP POP PUSH1 0x1 DUP2 ADD SWAP1 POP PUSH2 0x1C24 JUMP JUMPDEST POP DUP6 SWAP4 POP POP POP POP SWAP3 SWAP2 POP POP JUMP JUMPDEST PUSH1 0x0 PUSH1 0x20 DUP3 ADD SWAP1 POP DUP2 DUP2 SUB PUSH1 0x0 DUP4 ADD MSTORE PUSH2 0x1C78 DUP2 DUP5 PUSH2 0x1C00 JUMP JUMPDEST SWAP1 POP SWAP3 SWAP2 POP POP JUMP JUMPDEST PUSH1 0x0 DUP2 PUSH1 0x60 SHL SWAP1 POP SWAP2 SWAP1 POP JUMP JUMPDEST PUSH1 0x0 PUSH2 0x1C98 DUP3 PUSH2 0x1C80 JUMP JUMPDEST SWAP1 POP SWAP2 SWAP1 POP JUMP JUMPDEST PUSH1 0x0 PUSH2 0x1CAA DUP3 PUSH2 0x1C8D JUMP JUMPDEST SWAP1 POP SWAP2 SWAP1 POP JUMP JUMPDEST PUSH2 0x1CC2 PUSH2 0x1CBD DUP3 PUSH2 0x13A0 JUMP JUMPDEST PUSH2 0x1C9F JUMP JUMPDEST DUP3 MSTORE POP POP JUMP JUMPDEST PUSH1 0x0 DUP2 SWAP1 POP SWAP3 SWAP2 POP POP JUMP JUMPDEST PUSH32 0x6D6574617472616E73616374696F6E20566F74696E6720000000000000000000 PUSH1 0x0 DUP3 ADD MSTORE POP JUMP JUMPDEST PUSH1 0x0 PUSH2 0x1D09 PUSH1 0x17 DUP4 PUSH2 0x1CC8 JUMP JUMPDEST SWAP2 POP PUSH2 0x1D14 DUP3 PUSH2 0x1CD3 JUMP JUMPDEST PUSH1 0x17 DUP3 ADD SWAP1 POP SWAP2 SWAP1 POP JUMP JUMPDEST PUSH1 0x0 PUSH2 0x1D2A DUP3 PUSH2 0x16A7 JUMP JUMPDEST PUSH2 0x1D34 DUP2 DUP6 PUSH2 0x1CC8 JUMP JUMPDEST SWAP4 POP PUSH2 0x1D44 DUP2 DUP6 PUSH1 0x20 DUP7 ADD PUSH2 0x16C3 JUMP JUMPDEST DUP1 DUP5 ADD SWAP2 POP POP SWAP3 SWAP2 POP POP JUMP JUMPDEST PUSH1 0x0 DUP2 SWAP1 POP SWAP2 SWAP1 POP JUMP JUMPDEST PUSH2 0x1D6B PUSH2 0x1D66 DUP3 PUSH2 0x1524 JUMP JUMPDEST PUSH2 0x1D50 JUMP JUMPDEST DUP3 MSTORE POP POP JUMP JUMPDEST PUSH1 0x0 PUSH2 0x1D7D DUP3 DUP9 PUSH2 0x1CB1 JUMP JUMPDEST PUSH1 0x14 DUP3 ADD SWAP2 POP PUSH2 0x1D8C DUP3 PUSH2 0x1CFC JUMP JUMPDEST SWAP2 POP PUSH2 0x1D98 DUP3 DUP8 PUSH2 0x1CB1 JUMP JUMPDEST PUSH1 0x14 DUP3 ADD SWAP2 POP PUSH2 0x1DA8 DUP3 DUP7 PUSH2 0x1D1F JUMP JUMPDEST SWAP2 POP PUSH2 0x1DB4 DUP3 DUP6 PUSH2 0x1D5A JUMP JUMPDEST PUSH1 0x20 DUP3 ADD SWAP2 POP PUSH2 0x1DC4 DUP3 DUP5 PUSH2 0x1D5A JUMP JUMPDEST PUSH1 0x20 DUP3 ADD SWAP2 POP DUP2 SWAP1 POP SWAP7 SWAP6 POP POP POP POP POP POP JUMP JUMPDEST PUSH1 0x0 PUSH2 0x1DE3 DUP3 DUP5 PUSH2 0x1D1F JUMP JUMPDEST SWAP2 POP DUP2 SWAP1 POP SWAP3 SWAP2 POP POP JUMP JUMPDEST PUSH32 0x54686973206164647265737320646F6573206E6F742065786973742061732061 PUSH1 0x0 DUP3 ADD MSTORE PUSH32 0x2063616E64696461746500000000000000000000000000000000000000000000 PUSH1 0x20 DUP3 ADD MSTORE POP JUMP JUMPDEST PUSH1 0x0 PUSH2 0x1E4A PUSH1 0x2A DUP4 PUSH2 0x16B2 JUMP JUMPDEST SWAP2 POP PUSH2 0x1E55 DUP3 PUSH2 0x1DEE JUMP JUMPDEST PUSH1 0x40 DUP3 ADD SWAP1 POP SWAP2 SWAP1 POP JUMP JUMPDEST PUSH1 0x0 PUSH1 0x20 DUP3 ADD SWAP1 POP DUP2 DUP2 SUB PUSH1 0x0 DUP4 ADD MSTORE PUSH2 0x1E79 DUP2 PUSH2 0x1E3D JUMP JUMPDEST SWAP1 POP SWAP2 SWAP1 POP JUMP JUMPDEST PUSH32 0x766F74696E672068617320656E64656400000000000000000000000000000000 PUSH1 0x0 DUP3 ADD MSTORE POP JUMP JUMPDEST PUSH1 0x0 PUSH2 0x1EB6 PUSH1 0x10 DUP4 PUSH2 0x16B2 JUMP JUMPDEST SWAP2 POP PUSH2 0x1EC1 DUP3 PUSH2 0x1E80 JUMP JUMPDEST PUSH1 0x20 DUP3 ADD SWAP1 POP SWAP2 SWAP1 POP JUMP JUMPDEST PUSH1 0x0 PUSH1 0x20 DUP3 ADD SWAP1 POP DUP2 DUP2 SUB PUSH1 0x0 DUP4 ADD MSTORE PUSH2 0x1EE5 DUP2 PUSH2 0x1EA9 JUMP JUMPDEST SWAP1 POP SWAP2 SWAP1 POP JUMP JUMPDEST PUSH32 0x4E487B7100000000000000000000000000000000000000000000000000000000 PUSH1 0x0 MSTORE PUSH1 0x11 PUSH1 0x4 MSTORE PUSH1 0x24 PUSH1 0x0 REVERT JUMPDEST PUSH1 0x0 PUSH2 0x1F26 DUP3 PUSH2 0x1524 JUMP JUMPDEST SWAP2 POP PUSH32 0xFFFFFFFFFFFFFFFFFFFFFFFFFFFFFFFFFFFFFFFFFFFFFFFFFFFFFFFFFFFFFFFF DUP3 EQ ISZERO PUSH2 0x1F59 JUMPI PUSH2 0x1F58 PUSH2 0x1EEC JUMP JUMPDEST JUMPDEST PUSH1 0x1 DUP3 ADD SWAP1 POP SWAP2 SWAP1 POP JUMP JUMPDEST PUSH32 0x596F7520616C726561647920766F746564000000000000000000000000000000 PUSH1 0x0 DUP3 ADD MSTORE POP JUMP JUMPDEST PUSH1 0x0 PUSH2 0x1F9A PUSH1 0x11 DUP4 PUSH2 0x16B2 JUMP JUMPDEST SWAP2 POP PUSH2 0x1FA5 DUP3 PUSH2 0x1F64 JUMP JUMPDEST PUSH1 0x20 DUP3 ADD SWAP1 POP SWAP2 SWAP1 POP JUMP JUMPDEST PUSH1 0x0 PUSH1 0x20 DUP3 ADD SWAP1 POP DUP2 DUP2 SUB PUSH1 0x0 DUP4 ADD MSTORE PUSH2 0x1FC9 DUP2 PUSH2 0x1F8D JUMP JUMPDEST SWAP1 POP SWAP2 SWAP1 POP JUMP JUMPDEST PUSH1 0x0 PUSH1 0x40 DUP3 ADD SWAP1 POP PUSH2 0x1FE5 PUSH1 0x0 DUP4 ADD DUP6 PUSH2 0x19B5 JUMP JUMPDEST PUSH2 0x1FF2 PUSH1 0x20 DUP4 ADD DUP5 PUSH2 0x1ABB JUMP JUMPDEST SWAP4 SWAP3 POP POP POP JUMP JUMPDEST PUSH32 0x4E487B7100000000000000000000000000000000000000000000000000000000 PUSH1 0x0 MSTORE PUSH1 0x32 PUSH1 0x4 MSTORE PUSH1 0x24 PUSH1 0x0 REVERT JUMPDEST PUSH32 0x79657420746F20637265617465206120706F6C6C000000000000000000000000 PUSH1 0x0 DUP3 ADD MSTORE POP JUMP JUMPDEST PUSH1 0x0 PUSH2 0x205E PUSH1 0x14 DUP4 PUSH2 0x16B2 JUMP JUMPDEST SWAP2 POP PUSH2 0x2069 DUP3 PUSH2 0x2028 JUMP JUMPDEST PUSH1 0x20 DUP3 ADD SWAP1 POP SWAP2 SWAP1 POP JUMP JUMPDEST PUSH1 0x0 PUSH1 0x20 DUP3 ADD SWAP1 POP DUP2 DUP2 SUB PUSH1 0x0 DUP4 ADD MSTORE PUSH2 0x208D DUP2 PUSH2 0x2051 JUMP JUMPDEST SWAP1 POP SWAP2 SWAP1 POP JUMP JUMPDEST PUSH32 0x4E487B7100000000000000000000000000000000000000000000000000000000 PUSH1 0x0 MSTORE PUSH1 0x1 PUSH1 0x4 MSTORE PUSH1 0x24 PUSH1 0x0 REVERT JUMPDEST PUSH32 0x6D6178696D756D206E6F206F662063616E646964617465207065722073657373 PUSH1 0x0 DUP3 ADD MSTORE PUSH32 0x696F6E2072656769737465726564000000000000000000000000000000000000 PUSH1 0x20 DUP3 ADD MSTORE POP JUMP JUMPDEST PUSH1 0x0 PUSH2 0x211F PUSH1 0x2E DUP4 PUSH2 0x16B2 JUMP JUMPDEST SWAP2 POP PUSH2 0x212A DUP3 PUSH2 0x20C3 JUMP JUMPDEST PUSH1 0x40 DUP3 ADD SWAP1 POP SWAP2 SWAP1 POP JUMP JUMPDEST PUSH1 0x0 PUSH1 0x20 DUP3 ADD SWAP1 POP DUP2 DUP2 SUB PUSH1 0x0 DUP4 ADD MSTORE PUSH2 0x214E DUP2 PUSH2 0x2112 JUMP JUMPDEST SWAP1 POP SWAP2 SWAP1 POP JUMP JUMPDEST PUSH1 0x0 PUSH2 0x2160 DUP3 PUSH2 0x1611 JUMP JUMPDEST SWAP2 POP PUSH2 0xFFFF DUP3 EQ ISZERO PUSH2 0x2175 JUMPI PUSH2 0x2174 PUSH2 0x1EEC JUMP JUMPDEST JUMPDEST PUSH1 0x1 DUP3 ADD SWAP1 POP SWAP2 SWAP1 POP JUMP JUMPDEST PUSH1 0x0 PUSH1 0x20 DUP3 ADD SWAP1 POP PUSH2 0x2195 PUSH1 0x0 DUP4 ADD DUP5 PUSH2 0x19B5 JUMP JUMPDEST SWAP3 SWAP2 POP POP JUMP JUMPDEST PUSH32 0x6E6F74207468652063686169726D616E00000000000000000000000000000000 PUSH1 0x0 DUP3 ADD MSTORE POP JUMP JUMPDEST PUSH1 0x0 PUSH2 0x21D1 PUSH1 0x10 DUP4 PUSH2 0x16B2 JUMP JUMPDEST SWAP2 POP PUSH2 0x21DC DUP3 PUSH2 0x219B JUMP JUMPDEST PUSH1 0x20 DUP3 ADD SWAP1 POP SWAP2 SWAP1 POP JUMP JUMPDEST PUSH1 0x0 PUSH1 0x20 DUP3 ADD SWAP1 POP DUP2 DUP2 SUB PUSH1 0x0 DUP4 ADD MSTORE PUSH2 0x2200 DUP2 PUSH2 0x21C4 JUMP JUMPDEST SWAP1 POP SWAP2 SWAP1 POP JUMP JUMPDEST PUSH1 0x0 PUSH1 0xFF DUP3 AND SWAP1 POP SWAP2 SWAP1 POP JUMP JUMPDEST PUSH1 0x0 PUSH2 0x221F DUP3 PUSH2 0x2207 JUMP JUMPDEST SWAP2 POP PUSH2 0x222A DUP4 PUSH2 0x2207 JUMP JUMPDEST SWAP3 POP DUP3 PUSH1 0xFF SUB DUP3 GT ISZERO PUSH2 0x2240 JUMPI PUSH2 0x223F PUSH2 0x1EEC JUMP JUMPDEST JUMPDEST DUP3 DUP3 ADD SWAP1 POP SWAP3 SWAP2 POP POP JUMP JUMPDEST PUSH32 0x19457468657265756D205369676E6564204D6573736167653A0A333200000000 PUSH1 0x0 DUP3 ADD MSTORE POP JUMP JUMPDEST PUSH1 0x0 PUSH2 0x2281 PUSH1 0x1C DUP4 PUSH2 0x1CC8 JUMP JUMPDEST SWAP2 POP PUSH2 0x228C DUP3 PUSH2 0x224B JUMP JUMPDEST PUSH1 0x1C DUP3 ADD SWAP1 POP SWAP2 SWAP1 POP JUMP JUMPDEST PUSH1 0x0 DUP2 SWAP1 POP SWAP2 SWAP1 POP JUMP JUMPDEST PUSH2 0x22B2 PUSH2 0x22AD DUP3 PUSH2 0x15DD JUMP JUMPDEST PUSH2 0x2297 JUMP JUMPDEST DUP3 MSTORE POP POP JUMP JUMPDEST PUSH1 0x0 PUSH2 0x22C3 DUP3 PUSH2 0x2274 JUMP JUMPDEST SWAP2 POP PUSH2 0x22CF DUP3 DUP5 PUSH2 0x22A1 JUMP JUMPDEST PUSH1 0x20 DUP3 ADD SWAP2 POP DUP2 SWAP1 POP SWAP3 SWAP2 POP POP JUMP JUMPDEST PUSH2 0x22E7 DUP2 PUSH2 0x2207 JUMP JUMPDEST DUP3 MSTORE POP POP JUMP JUMPDEST PUSH1 0x0 PUSH1 0x80 DUP3 ADD SWAP1 POP PUSH2 0x2302 PUSH1 0x0 DUP4 ADD DUP8 PUSH2 0x15E7 JUMP JUMPDEST PUSH2 0x230F PUSH1 0x20 DUP4 ADD DUP7 PUSH2 0x22DE JUMP JUMPDEST PUSH2 0x231C PUSH1 0x40 DUP4 ADD DUP6 PUSH2 0x15E7 JUMP JUMPDEST PUSH2 0x2329 PUSH1 0x60 DUP4 ADD DUP5 PUSH2 0x15E7 JUMP JUMPDEST SWAP6 SWAP5 POP POP POP POP POP JUMP INVALID LOG2 PUSH5 0x6970667358 0x22 SLT KECCAK256 SWAP13 0xA6 GAS SWAP7 0xE6 CALL CALL PUSH22 0xD4DFF9E9480D3DB75AA54E502C7FE7A03D267AF05414 0x2F 0xB7 PUSH5 0x736F6C6343 STOP ADDMOD EXP STOP CALLER "
				},
				"gasEstimates": {
					"creation": {
						"codeDepositCost": "1812800",
						"executionCost": "1912",
						"totalCost": "1814712"
					},
					"external": {
						"AddCandidate(address,string)": "infinite",
						"AllCandidates(string)": "infinite",
						"NoOfRegisteredCandidates(string)": "infinite",
						"createPoll(string,uint16)": "infinite",
						"listOfPolls(uint256)": "infinite",
						"metaVotingHash(address,string,uint256,uint256)": "infinite",
						"replayNonce(address)": "2814",
						"revealWinner(string)": "infinite",
						"setVotingState(string)": "infinite",
						"vote(address,string,uint256,bytes)": "infinite",
						"votingPoll(string)": "infinite",
						"withdawFees(string)": "infinite"
					},
					"internal": {
						"countVote(address,string memory,address)": "infinite",
						"getSigner(bytes32,bytes memory)": "infinite"
					}
				},
				"methodIdentifiers": {
					"AddCandidate(address,string)": "57f53967",
					"AllCandidates(string)": "af7cbc0d",
					"NoOfRegisteredCandidates(string)": "8579cacd",
					"createPoll(string,uint16)": "0968d4b1",
					"listOfPolls(uint256)": "a886e61b",
					"metaVotingHash(address,string,uint256,uint256)": "01ff993b",
					"replayNonce(address)": "67d407df",
					"revealWinner(string)": "4fcf1f39",
					"setVotingState(string)": "f0e4de22",
					"vote(address,string,uint256,bytes)": "12f0da4b",
					"votingPoll(string)": "63ee965a",
					"withdawFees(string)": "82e305ab"
				}
			},
			"storageLayout": {
				"storage": [
					{
						"astId": 33,
						"contract": "src/voting.sol:Voting",
						"label": "listOfPolls",
						"offset": 0,
						"slot": "0",
						"type": "t_array(t_struct(VotingPoll)29_storage)dyn_storage"
					},
					{
						"astId": 38,
						"contract": "src/voting.sol:Voting",
						"label": "votingPoll",
						"offset": 0,
						"slot": "1",
						"type": "t_mapping(t_string_memory_ptr,t_struct(VotingPoll)29_storage)"
					},
					{
						"astId": 42,
						"contract": "src/voting.sol:Voting",
						"label": "replayNonce",
						"offset": 0,
						"slot": "2",
						"type": "t_mapping(t_address,t_uint256)"
					}
				],
				"types": {
					"t_address": {
						"encoding": "inplace",
						"label": "address",
						"numberOfBytes": "20"
					},
					"t_array(t_address)dyn_storage": {
						"base": "t_address",
						"encoding": "dynamic_array",
						"label": "address[]",
						"numberOfBytes": "32"
					},
					"t_array(t_struct(VotingPoll)29_storage)dyn_storage": {
						"base": "t_struct(VotingPoll)29_storage",
						"encoding": "dynamic_array",
						"label": "struct Voting.VotingPoll[]",
						"numberOfBytes": "32"
					},
					"t_bool": {
						"encoding": "inplace",
						"label": "bool",
						"numberOfBytes": "1"
					},
					"t_mapping(t_address,t_bool)": {
						"encoding": "mapping",
						"key": "t_address",
						"label": "mapping(address => bool)",
						"numberOfBytes": "32",
						"value": "t_bool"
					},
					"t_mapping(t_address,t_uint256)": {
						"encoding": "mapping",
						"key": "t_address",
						"label": "mapping(address => uint256)",
						"numberOfBytes": "32",
						"value": "t_uint256"
					},
					"t_mapping(t_string_memory_ptr,t_struct(VotingPoll)29_storage)": {
						"encoding": "mapping",
						"key": "t_string_memory_ptr",
						"label": "mapping(string => struct Voting.VotingPoll)",
						"numberOfBytes": "32",
						"value": "t_struct(VotingPoll)29_storage"
					},
					"t_string_memory_ptr": {
						"encoding": "bytes",
						"label": "string",
						"numberOfBytes": "32"
					},
					"t_struct(VotingPoll)29_storage": {
						"encoding": "inplace",
						"label": "struct Voting.VotingPoll",
						"members": [
							{
								"astId": 3,
								"contract": "src/voting.sol:Voting",
								"label": "chairman",
								"offset": 0,
								"slot": "0",
								"type": "t_address"
							},
							{
								"astId": 6,
								"contract": "src/voting.sol:Voting",
								"label": "candidates",
								"offset": 0,
								"slot": "1",
								"type": "t_array(t_address)dyn_storage"
							},
							{
								"astId": 8,
								"contract": "src/voting.sol:Voting",
								"label": "maxNoOfCandidates",
								"offset": 0,
								"slot": "2",
								"type": "t_uint32"
							},
							{
								"astId": 10,
								"contract": "src/voting.sol:Voting",
								"label": "startTime",
								"offset": 4,
								"slot": "2",
								"type": "t_uint64"
							},
							{
								"astId": 12,
								"contract": "src/voting.sol:Voting",
								"label": "amountGenerated",
								"offset": 12,
								"slot": "2",
								"type": "t_uint64"
							},
							{
								"astId": 14,
								"contract": "src/voting.sol:Voting",
								"label": "currentNoOfCandidates",
								"offset": 20,
								"slot": "2",
								"type": "t_uint16"
							},
							{
								"astId": 16,
								"contract": "src/voting.sol:Voting",
								"label": "voting",
								"offset": 22,
								"slot": "2",
								"type": "t_bool"
							},
							{
								"astId": 20,
								"contract": "src/voting.sol:Voting",
								"label": "CandidateStatus",
								"offset": 0,
								"slot": "3",
								"type": "t_mapping(t_address,t_bool)"
							},
							{
								"astId": 24,
								"contract": "src/voting.sol:Voting",
								"label": "hasVoted",
								"offset": 0,
								"slot": "4",
								"type": "t_mapping(t_address,t_bool)"
							},
							{
								"astId": 28,
								"contract": "src/voting.sol:Voting",
								"label": "CandidateVote",
								"offset": 0,
								"slot": "5",
								"type": "t_mapping(t_address,t_uint256)"
							}
						],
						"numberOfBytes": "192"
					},
					"t_uint16": {
						"encoding": "inplace",
						"label": "uint16",
						"numberOfBytes": "2"
					},
					"t_uint256": {
						"encoding": "inplace",
						"label": "uint256",
						"numberOfBytes": "32"
					},
					"t_uint32": {
						"encoding": "inplace",
						"label": "uint32",
						"numberOfBytes": "4"
					},
					"t_uint64": {
						"encoding": "inplace",
						"label": "uint64",
						"numberOfBytes": "8"
					}
				}
			},
			"userdoc": {
				"kind": "user",
				"methods": {},
				"version": 1
			}
		}
	}
}