{
  "abi": [
    {
      "anonymous": false,
      "inputs": [
        {
          "indexed": false,
          "internalType": "address",
          "name": "NewCandidate",
          "type": "address"
        }
      ],
      "name": "becameCandidate",
      "type": "event"
    },
    {
      "anonymous": false,
      "inputs": [
        {
          "indexed": true,
          "internalType": "string",
          "name": "_name",
          "type": "string"
        },
        {
          "indexed": true,
          "internalType": "uint32",
          "name": "ExpectedNoOfCandidate",
          "type": "uint32"
        },
        {
          "indexed": true,
          "internalType": "uint256",
          "name": "_id",
          "type": "uint256"
        }
      ],
      "name": "pollCreated",
      "type": "event"
    },
    {
      "anonymous": false,
      "inputs": [
        {
          "indexed": true,
          "internalType": "bool",
          "name": "status",
          "type": "bool"
        }
      ],
      "name": "voteStatus",
      "type": "event"
    },
    {
      "anonymous": false,
      "inputs": [
        {
          "indexed": false,
          "internalType": "address",
          "name": "_candidate",
          "type": "address"
        },
        {
          "indexed": false,
          "internalType": "bool",
          "name": "status",
          "type": "bool"
        }
      ],
      "name": "voted",
      "type": "event"
    },
    {
      "inputs": [
        {
          "internalType": "address",
          "name": "_newCandidate",
          "type": "address"
        },
        {
          "internalType": "uint256",
          "name": "_id",
          "type": "uint256"
        }
      ],
      "name": "AddCandidate",
      "outputs": [],
      "stateMutability": "nonpayable",
      "type": "function"
    },
    {
      "inputs": [
        {
          "internalType": "uint256",
          "name": "_id",
          "type": "uint256"
        }
      ],
      "name": "AllCandidates",
      "outputs": [
        {
          "internalType": "address[]",
          "name": "_candidates",
          "type": "address[]"
        }
      ],
      "stateMutability": "view",
      "type": "function"
    },
    {
      "inputs": [
        {
          "internalType": "uint256",
          "name": "_id",
          "type": "uint256"
        }
      ],
      "name": "NoOfRegisteredCandidates",
      "outputs": [
        {
          "internalType": "uint256",
          "name": "",
          "type": "uint256"
        }
      ],
      "stateMutability": "view",
      "type": "function"
    },
    {
      "inputs": [
        {
          "internalType": "uint256",
          "name": "",
          "type": "uint256"
        }
      ],
      "name": "VotingKey",
      "outputs": [
        {
          "internalType": "uint256",
          "name": "",
          "type": "uint256"
        }
      ],
      "stateMutability": "view",
      "type": "function"
    },
    {
      "inputs": [
        {
          "internalType": "uint256",
          "name": "",
          "type": "uint256"
        }
      ],
      "name": "_ids",
      "outputs": [
        {
          "internalType": "uint256",
          "name": "",
          "type": "uint256"
        }
      ],
      "stateMutability": "view",
      "type": "function"
    },
    {
      "inputs": [],
      "name": "allIds",
      "outputs": [
        {
          "internalType": "uint256[]",
          "name": "",
          "type": "uint256[]"
        }
      ],
      "stateMutability": "view",
      "type": "function"
    },
    {
      "inputs": [
        {
          "internalType": "string",
          "name": "_name",
          "type": "string"
        },
        {
          "internalType": "uint32",
          "name": "ExpectedNoOfCandidate",
          "type": "uint32"
        }
      ],
      "name": "createPoll",
      "outputs": [],
      "stateMutability": "nonpayable",
      "type": "function"
    },
    {
      "inputs": [],
      "name": "getAllVotingPolls",
      "outputs": [
        {
          "components": [
            {
              "internalType": "uint256",
              "name": "id",
              "type": "uint256"
            },
            {
              "internalType": "string",
              "name": "name",
              "type": "string"
            },
            {
              "internalType": "address",
              "name": "chairman",
              "type": "address"
            },
            {
              "internalType": "address[]",
              "name": "candidates",
              "type": "address[]"
            },
            {
              "internalType": "uint32",
              "name": "maxNoOfCandidates",
              "type": "uint32"
            },
            {
              "internalType": "uint32",
              "name": "currentNoOfCandidates",
              "type": "uint32"
            },
            {
              "internalType": "bool",
              "name": "voting",
              "type": "bool"
            }
          ],
          "internalType": "struct Voting.VotingPoll[]",
          "name": "VP",
          "type": "tuple[]"
        }
      ],
      "stateMutability": "view",
      "type": "function"
    },
    {
      "inputs": [
        {
          "internalType": "uint256",
          "name": "_id",
          "type": "uint256"
        }
      ],
      "name": "getVotePollProps",
      "outputs": [
        {
          "components": [
            {
              "internalType": "uint256",
              "name": "id",
              "type": "uint256"
            },
            {
              "internalType": "string",
              "name": "name",
              "type": "string"
            },
            {
              "internalType": "address",
              "name": "chairman",
              "type": "address"
            },
            {
              "internalType": "address[]",
              "name": "candidates",
              "type": "address[]"
            },
            {
              "internalType": "uint32",
              "name": "maxNoOfCandidates",
              "type": "uint32"
            },
            {
              "internalType": "uint32",
              "name": "currentNoOfCandidates",
              "type": "uint32"
            },
            {
              "internalType": "bool",
              "name": "voting",
              "type": "bool"
            }
          ],
          "internalType": "struct Voting.VotingPoll",
          "name": "",
          "type": "tuple"
        }
      ],
      "stateMutability": "view",
      "type": "function"
    },
    {
      "inputs": [
        {
          "internalType": "address",
          "name": "Cand",
          "type": "address"
        },
        {
          "internalType": "uint256",
          "name": "_id",
          "type": "uint256"
        },
        {
          "internalType": "uint256",
          "name": "nonce",
          "type": "uint256"
        },
        {
          "internalType": "uint256",
          "name": "time",
          "type": "uint256"
        }
      ],
      "name": "metaVotingHash",
      "outputs": [
        {
          "internalType": "bytes32",
          "name": "",
          "type": "bytes32"
        }
      ],
      "stateMutability": "view",
      "type": "function"
    },
    {
      "inputs": [
        {
          "internalType": "address",
          "name": "",
          "type": "address"
        }
      ],
      "name": "replayNonce",
      "outputs": [
        {
          "internalType": "uint256",
          "name": "",
          "type": "uint256"
        }
      ],
      "stateMutability": "view",
      "type": "function"
    },
    {
      "inputs": [
        {
          "internalType": "uint256",
          "name": "",
          "type": "uint256"
        }
      ],
      "name": "retVotingPoll",
      "outputs": [
        {
          "internalType": "uint256",
          "name": "id",
          "type": "uint256"
        },
        {
          "internalType": "string",
          "name": "name",
          "type": "string"
        },
        {
          "internalType": "address",
          "name": "chairman",
          "type": "address"
        },
        {
          "internalType": "uint32",
          "name": "maxNoOfCandidates",
          "type": "uint32"
        },
        {
          "internalType": "uint32",
          "name": "currentNoOfCandidates",
          "type": "uint32"
        },
        {
          "internalType": "bool",
          "name": "voting",
          "type": "bool"
        }
      ],
      "stateMutability": "view",
      "type": "function"
    },
    {
      "inputs": [
        {
          "internalType": "uint256",
          "name": "_id",
          "type": "uint256"
        }
      ],
      "name": "revealWinner",
      "outputs": [
        {
          "internalType": "uint256[]",
          "name": "CV",
          "type": "uint256[]"
        },
        {
          "internalType": "address",
          "name": "",
          "type": "address"
        },
        {
          "internalType": "uint256",
          "name": "",
          "type": "uint256"
        }
      ],
      "stateMutability": "view",
      "type": "function"
    },
    {
      "inputs": [
        {
          "internalType": "uint256",
          "name": "_id",
          "type": "uint256"
        }
      ],
      "name": "setVotingState",
      "outputs": [],
      "stateMutability": "nonpayable",
      "type": "function"
    },
    {
      "inputs": [
        {
          "internalType": "address",
          "name": "Cand",
          "type": "address"
        },
        {
          "internalType": "uint256",
          "name": "_id",
          "type": "uint256"
        },
        {
          "internalType": "uint256",
          "name": "nonce",
          "type": "uint256"
        },
        {
          "internalType": "bytes",
          "name": "signature",
          "type": "bytes"
        }
      ],
      "name": "vote",
      "outputs": [],
      "stateMutability": "nonpayable",
      "type": "function"
    },
    {
      "inputs": [
        {
          "internalType": "uint256",
          "name": "",
          "type": "uint256"
        }
      ],
      "name": "votingPoll",
      "outputs": [
        {
          "internalType": "uint256",
          "name": "id",
          "type": "uint256"
        },
        {
          "internalType": "string",
          "name": "name",
          "type": "string"
        },
        {
          "internalType": "address",
          "name": "chairman",
          "type": "address"
        },
        {
          "internalType": "uint32",
          "name": "maxNoOfCandidates",
          "type": "uint32"
        },
        {
          "internalType": "uint32",
          "name": "currentNoOfCandidates",
          "type": "uint32"
        },
        {
          "internalType": "bool",
          "name": "voting",
          "type": "bool"
        }
      ],
      "stateMutability": "view",
      "type": "function"
    }
  ],
  "bytecode": {
    "object": "0x6080604052600160005534801561001557600080fd5b50611969806100256000396000f3fe608060405234801561001057600080fd5b50600436106101005760003560e01c80638ccb59e811610097578063c57003cc11610066578063c57003cc1461026d578063e615f10414610280578063ec04c28714610293578063f762f4c0146102a657600080fd5b80638ccb59e814610212578063ae928e3e14610234578063bfe2e25d14610247578063c10d6cec1461025a57600080fd5b806366c5343b116100d357806366c5343b1461017d57806367d407df146101bd5780638ac3c3c2146101dd5780638c413252146101fd57600080fd5b8063049d1c8b14610105578063278e2c901461011a578063391e82471461014357806346a756a914610168575b600080fd5b610118610113366004611371565b6102b9565b005b61012d61012836600461139b565b610493565b60405161013a91906114dd565b60405180910390f35b61015661015136600461139b565b610600565b60405161013a969594939291906114f7565b6101706106ea565b60405161013a9190611547565b6101af61018b36600461139b565b60009081526004602081905260409091200154640100000000900463ffffffff1690565b60405190815260200161013a565b6101af6101cb3660046115a9565b60056020526000908152604090205481565b6101f06101eb36600461139b565b610798565b60405161013a91906115c4565b61020561080a565b60405161013a919061164c565b61022561022036600461139b565b610862565b60405161013a9392919061165f565b6101af61024236600461139b565b6109ee565b6101af61025536600461168d565b610a0f565b610118610268366004611752565b610a97565b61011861027b36600461139b565b610cca565b61015661028e36600461139b565b610d84565b6101af6102a136600461139b565b610da6565b6101186102b43660046117c7565b610db6565b600081815260046020526040902060028101546001600160a01b031661031d5760405162461bcd60e51b81526020600482015260146024820152731e595d081d1bc818dc99585d194818481c1bdb1b60621b60448201526064015b60405180910390fd5b60028101546001600160a01b0316331461033957610339611836565b600481015463ffffffff80821664010000000090920416106103b45760405162461bcd60e51b815260206004820152602e60248201527f6d6178696d756d206e6f206f662063616e64696461746520706572207365737360448201526d1a5bdb881c9959da5cdd195c995960921b6064820152608401610314565b60008281526006602090815260408083206001600160a01b038716808552908352908320805460ff1916600190811790915560038501805491820181558452919092200180546001600160a01b03191690911790556004808201805463ffffffff640100000000909104169161042983611862565b91906101000a81548163ffffffff021916908363ffffffff160217905550507fc19c59aa93348e8fc54764bc642eca975e2639f44cc683ef8f027e1529cbda328360405161048691906001600160a01b0391909116815260200190565b60405180910390a1505050565b61049b6111b2565b600460008381526020019081526020016000206040518060e0016040529081600082015481526020016001820180546104d390611886565b80601f01602080910402602001604051908101604052809291908181526020018280546104ff90611886565b801561054c5780601f106105215761010080835404028352916020019161054c565b820191906000526020600020905b81548152906001019060200180831161052f57829003601f168201915b505050918352505060028201546001600160a01b031660208083019190915260038301805460408051828502810185018252828152940193928301828280156105be57602002820191906000526020600020905b81546001600160a01b031681526001909101906020018083116105a0575b50505091835250506004919091015463ffffffff80821660208401526401000000008204166040830152600160401b900460ff16151560609091015292915050565b6002818154811061061057600080fd5b6000918252602090912060059091020180546001820180549193509061063590611886565b80601f016020809104026020016040519081016040528092919081815260200182805461066190611886565b80156106ae5780601f10610683576101008083540402835291602001916106ae565b820191906000526020600020905b81548152906001019060200180831161069157829003601f168201915b50505050600283015460049093015491926001600160a01b03169163ffffffff808216925064010000000082041690600160401b900460ff1686565b606060005467ffffffffffffffff811115610707576107076116c6565b60405190808252806020026020018201604052801561074057816020015b61072d6111b2565b8152602001906001900390816107255790505b50905060005b600054811015610794576107648161075d816118c1565b9250610493565b828281518110610776576107766118dc565b6020026020010181905250808061078c906118c1565b915050610746565b5090565b60008181526004602090815260409182902060038101805484518185028101850190955280855260609492938301828280156107fd57602002820191906000526020600020905b81546001600160a01b031681526001909101906020018083116107df575b5050505050915050919050565b6060600380548060200260200160405190810160405280929190818152602001828054801561085857602002820191906000526020600020905b815481526020019060010190808311610844575b5050505050905090565b600081815260046020526040812060028101546060929182916001600160a01b03166108c25760405162461bcd60e51b815260206004820152600f60248201526e139bc81c1bdb1b0818dc99585d1959608a1b6044820152606401610314565b600381015467ffffffffffffffff8111156108df576108df6116c6565b604051908082528060200260200182016040528015610908578160200160208202803683370190505b50935060008060005b60038401548110156109e15760006109298983610fbc565b9050838111156109635780935084600301828154811061094b5761094b6118dc565b6000918252602090912001546001600160a01b031692505b60008981526007602052604081206003870180549192918590811061098a5761098a6118dc565b60009182526020808320909101546001600160a01b0316835282019290925260400190205488518990849081106109c3576109c36118dc565b602090810291909101015250806109d9816118c1565b915050610911565b5093509150509193909250565b600181815481106109fe57600080fd5b600091825260209091200154905081565b6040516bffffffffffffffffffffffff1930606090811b821660208401527f6d6574617472616e73616374696f6e20566f74696e6720000000000000000000603484015286901b16604b820152605f8101849052607f8101839052609f810182905260009060bf01604051602081830303815290604052805190602001209050949350505050565b60008381526006602090815260408083206001600160a01b03881684529091529020548490849060ff161515600114610b255760405162461bcd60e51b815260206004820152602a60248201527f54686973206164647265737320646f6573206e6f7420657869737420617320616044820152692063616e64696461746560b01b6064820152608401610314565b600085815260046020819052604090912090810154869190600160401b900460ff161515600114610b8b5760405162461bcd60e51b815260206004820152601060248201526f1d9bdd1a5b99c81a185cc8195b99195960821b6044820152606401610314565b6000610b9989898942610a0f565b90506000610ba7828861101a565b90506001600160a01b038116610bbc57600080fd5b6001600160a01b0381166000908152600560205260409020548814610be057600080fd5b6001600160a01b0381166000908152600560205260408120805491610c04836118c1565b909155505060008981526008602090815260408083206001600160a01b038516845290915290205460ff1615610c705760405162461bcd60e51b8152602060048201526011602482015270165bdd48185b1c9958591e481d9bdd1959607a1b6044820152606401610314565b610c7b8a8a83611134565b50604080516001600160a01b038c168152600160208201527ff3f16a15f074b71c5138107dfc7c63b80524d5411cb967caa97d8d9f12b2fd6b910160405180910390a150505050505050505050565b600081815260046020526040902060028101546001600160a01b03163314610d275760405162461bcd60e51b815260206004820152601060248201526f3737ba103a34329031b430b4b936b0b760811b6044820152606401610314565b60048101805460ff600160401b808304821615810260ff60401b199093169290921792839055604051919092049091161515907f7b224db641892626dca6975b376f464e9ac52ccfa180436175170c009b94dcd790600090a25050565b6004602052600090815260409020805460018201805491929161063590611886565b600381815481106109fe57600080fd5b60008054815260046020908152604090912083519091610ddd916001840191860190611206565b50600280820180546001600160a01b0319163317905560008054835560048301805463ffffffff861663ffffffff1990911617905581546001818101845592909152825460059091027f405787fa12a823e0f2b7631cc41b3ba8828b3321ca811111fa75cd3aa3bb5ace8101918255918301805484937f405787fa12a823e0f2b7631cc41b3ba8828b3321ca811111fa75cd3aa3bb5acf019190610e8090611886565b610e8b929190611286565b5060028281015490820180546001600160a01b0319166001600160a01b0390921691909117905560038083018054610ec69284019190611301565b5060049182018054918301805463ffffffff19811663ffffffff948516908117835583546401000000009081900486160267ffffffffffffffff199092161717808255915460ff600160401b918290041615150260ff60401b1990921691909117905560005491830154604051911690610f419086906118f2565b604051908190038120907fd4d0d9a1ef7f13069f1bade752fda515713d747eb14a8c30ae461c52916bf1c790600090a460008054600380546001810182559083527fc2575a0e9e593c00f959f8c92f12db2869c3395a3b0502d05e2516446f71f85b018190559080610fb2836118c1565b9190505550505050565b60008281526004602090815260408083206007909252822060038201805484919086908110610fed57610fed6118dc565b60009182526020808320909101546001600160a01b03168352820192909252604001902054949350505050565b6000806000808451604114611035576000935050505061112e565b50505060208201516040830151606084015160001a601b8110156110615761105e601b8261190e565b90505b8060ff16601b1415801561107957508060ff16601c14155b1561108a576000935050505061112e565b6040517f19457468657265756d205369676e6564204d6573736167653a0a3332000000006020820152603c8101879052600190605c0160408051601f198184030181528282528051602091820120600084529083018083525260ff841690820152606081018590526080810184905260a0016020604051602081039080840390855afa15801561111e573d6000803e3d6000fd5b5050506020604051035193505050505b92915050565b60008281526008602090815260408083206001600160a01b038086168552908352818420805460ff19166001179055858452600783528184209087168452909152812080549082611184836118c1565b9091555050506000918252506007602090815260408083206001600160a01b03949094168352929052205490565b6040518060e00160405280600081526020016060815260200160006001600160a01b0316815260200160608152602001600063ffffffff168152602001600063ffffffff1681526020016000151581525090565b82805461121290611886565b90600052602060002090601f016020900481019282611234576000855561127a565b82601f1061124d57805160ff191683800117855561127a565b8280016001018555821561127a579182015b8281111561127a57825182559160200191906001019061125f565b50610794929150611340565b82805461129290611886565b90600052602060002090601f0160209004810192826112b4576000855561127a565b82601f106112c5578054855561127a565b8280016001018555821561127a57600052602060002091601f016020900482015b8281111561127a5782548255916001019190600101906112e6565b82805482825590600052602060002090810192821561127a5760005260206000209182018281111561127a5782548255916001019190600101906112e6565b5b808211156107945760008155600101611341565b80356001600160a01b038116811461136c57600080fd5b919050565b6000806040838503121561138457600080fd5b61138d83611355565b946020939093013593505050565b6000602082840312156113ad57600080fd5b5035919050565b60005b838110156113cf5781810151838201526020016113b7565b838111156113de576000848401525b50505050565b600081518084526113fc8160208601602086016113b4565b601f01601f19169290920160200192915050565b80518252600060208083015160e08286015261142f60e08601826113e4565b6040858101516001600160a01b039081169188019190915260608087015188840391890191909152805180845290850193506000928501905b8084101561148a57845183168252938501936001939093019290850190611468565b50608087015194506114a4608089018663ffffffff169052565b60a087015194506114bd60a089018663ffffffff169052565b60c087015194506114d260c089018615159052565b979650505050505050565b6020815260006114f06020830184611410565b9392505050565b86815260c06020820152600061151060c08301886113e4565b6001600160a01b039690961660408301525063ffffffff938416606082015291909216608082015290151560a09091015292915050565b6000602080830181845280855180835260408601915060408160051b870101925083870160005b8281101561159c57603f1988860301845261158a858351611410565b9450928501929085019060010161156e565b5092979650505050505050565b6000602082840312156115bb57600080fd5b6114f082611355565b6020808252825182820181905260009190848201906040850190845b818110156116055783516001600160a01b0316835292840192918401916001016115e0565b50909695505050505050565b600081518084526020808501945080840160005b8381101561164157815187529582019590820190600101611625565b509495945050505050565b6020815260006114f06020830184611611565b6060815260006116726060830186611611565b6001600160a01b039490941660208301525060400152919050565b600080600080608085870312156116a357600080fd5b6116ac85611355565b966020860135965060408601359560600135945092505050565b634e487b7160e01b600052604160045260246000fd5b600067ffffffffffffffff808411156116f7576116f76116c6565b604051601f8501601f19908116603f0116810190828211818310171561171f5761171f6116c6565b8160405280935085815286868601111561173857600080fd5b858560208301376000602087830101525050509392505050565b6000806000806080858703121561176857600080fd5b61177185611355565b93506020850135925060408501359150606085013567ffffffffffffffff81111561179b57600080fd5b8501601f810187136117ac57600080fd5b6117bb878235602084016116dc565b91505092959194509250565b600080604083850312156117da57600080fd5b823567ffffffffffffffff8111156117f157600080fd5b8301601f8101851361180257600080fd5b611811858235602084016116dc565b925050602083013563ffffffff8116811461182b57600080fd5b809150509250929050565b634e487b7160e01b600052600160045260246000fd5b634e487b7160e01b600052601160045260246000fd5b600063ffffffff8083168181141561187c5761187c61184c565b6001019392505050565b600181811c9082168061189a57607f821691505b602082108114156118bb57634e487b7160e01b600052602260045260246000fd5b50919050565b60006000198214156118d5576118d561184c565b5060010190565b634e487b7160e01b600052603260045260246000fd5b600082516119048184602087016113b4565b9190910192915050565b600060ff821660ff84168060ff0382111561192b5761192b61184c565b01939250505056fea26469706673582212206975c8291a127de79bf194114358e7586cdb6a814a96ede7543fdd9dfa928ef264736f6c634300080a0033",
    "linkReferences": {}
  }
}