{
  "abi": [
    {
      "anonymous": false,
      "inputs": [
        {
          "indexed": false,
          "internalType": "address",
          "name": "NewCandidate",
          "type": "address"
        }
      ],
      "name": "becameCandidate",
      "type": "event"
    },
    {
      "anonymous": false,
      "inputs": [
        {
          "indexed": false,
          "internalType": "address",
          "name": "_candidate",
          "type": "address"
        },
        {
          "indexed": false,
          "internalType": "bool",
          "name": "status",
          "type": "bool"
        }
      ],
      "name": "voted",
      "type": "event"
    },
    {
      "inputs": [
        {
          "internalType": "address",
          "name": "_newCandidate",
          "type": "address"
        },
        {
          "internalType": "string",
          "name": "_name",
          "type": "string"
        }
      ],
      "name": "AddCandidate",
      "outputs": [],
      "stateMutability": "nonpayable",
      "type": "function"
    },
    {
      "inputs": [
        {
          "internalType": "string",
          "name": "_name",
          "type": "string"
        }
      ],
      "name": "AllCandidates",
      "outputs": [
        {
          "internalType": "address[]",
          "name": "_candidates",
          "type": "address[]"
        }
      ],
      "stateMutability": "view",
      "type": "function"
    },
    {
      "inputs": [
        {
          "internalType": "string",
          "name": "_name",
          "type": "string"
        }
      ],
      "name": "NoOfRegisteredCandidates",
      "outputs": [
        {
          "internalType": "uint256",
          "name": "",
          "type": "uint256"
        }
      ],
      "stateMutability": "view",
      "type": "function"
    },
    {
      "inputs": [
        {
          "internalType": "string",
          "name": "_name",
          "type": "string"
        },
        {
          "internalType": "uint16",
          "name": "ExpectedNoOfCandidate",
          "type": "uint16"
        }
      ],
      "name": "createPoll",
      "outputs": [
        {
          "internalType": "string",
          "name": "",
          "type": "string"
        },
        {
          "internalType": "uint256",
          "name": "Candidate",
          "type": "uint256"
        }
      ],
      "stateMutability": "nonpayable",
      "type": "function"
    },
    {
      "inputs": [
        {
          "internalType": "address",
          "name": "Cand",
          "type": "address"
        },
        {
          "internalType": "string",
          "name": "_name",
          "type": "string"
        },
        {
          "internalType": "uint256",
          "name": "nonce",
          "type": "uint256"
        },
        {
          "internalType": "uint256",
          "name": "time",
          "type": "uint256"
        }
      ],
      "name": "metaVotingHash",
      "outputs": [
        {
          "internalType": "bytes32",
          "name": "",
          "type": "bytes32"
        }
      ],
      "stateMutability": "view",
      "type": "function"
    },
    {
      "inputs": [
        {
          "internalType": "address",
          "name": "",
          "type": "address"
        }
      ],
      "name": "replayNonce",
      "outputs": [
        {
          "internalType": "uint256",
          "name": "",
          "type": "uint256"
        }
      ],
      "stateMutability": "view",
      "type": "function"
    },
    {
      "inputs": [
        {
          "internalType": "string",
          "name": "_name",
          "type": "string"
        }
      ],
      "name": "revealWinner",
      "outputs": [
        {
          "internalType": "uint256[]",
          "name": "CV",
          "type": "uint256[]"
        },
        {
          "internalType": "address",
          "name": "",
          "type": "address"
        },
        {
          "internalType": "uint256",
          "name": "",
          "type": "uint256"
        }
      ],
      "stateMutability": "view",
      "type": "function"
    },
    {
      "inputs": [
        {
          "internalType": "string",
          "name": "_name",
          "type": "string"
        }
      ],
      "name": "setVotingState",
      "outputs": [],
      "stateMutability": "nonpayable",
      "type": "function"
    },
    {
      "inputs": [
        {
          "internalType": "address",
          "name": "Cand",
          "type": "address"
        },
        {
          "internalType": "string",
          "name": "_name",
          "type": "string"
        },
        {
          "internalType": "uint256",
          "name": "nonce",
          "type": "uint256"
        },
        {
          "internalType": "bytes",
          "name": "signature",
          "type": "bytes"
        }
      ],
      "name": "vote",
      "outputs": [],
      "stateMutability": "nonpayable",
      "type": "function"
    },
    {
      "inputs": [
        {
          "internalType": "string",
          "name": "",
          "type": "string"
        }
      ],
      "name": "votingPoll",
      "outputs": [
        {
          "internalType": "address",
          "name": "chairman",
          "type": "address"
        },
        {
          "internalType": "uint32",
          "name": "maxNoOfCandidates",
          "type": "uint32"
        },
        {
          "internalType": "uint16",
          "name": "currentNoOfCandidates",
          "type": "uint16"
        },
        {
          "internalType": "bool",
          "name": "voting",
          "type": "bool"
        }
      ],
      "stateMutability": "view",
      "type": "function"
    }
  ],
  "bytecode": {
    "object": "0x608060405234801561001057600080fd5b5061113c806100206000396000f3fe608060405234801561001057600080fd5b506004361061009e5760003560e01c806363ee965a1161006657806363ee965a1461013457806367d407df146101ca5780638579cacd146101ea578063af7cbc0d146101fd578063f0e4de221461021d57600080fd5b806301ff993b146100a35780630968d4b1146100c957806312f0da4b146100ea5780634fcf1f39146100ff57806357f5396714610121575b600080fd5b6100b66100b1366004610cd1565b610230565b6040519081526020015b60405180910390f35b6100dc6100d7366004610d2f565b61026b565b6040516100c0929190610db8565b6100fd6100f8366004610df3565b6102c3565b005b61011261010d366004610e85565b61053d565b6040516100c093929190610ec2565b6100fd61012f366004610f18565b6106cd565b610190610142366004610e85565b80516020818301810180516000825292820191909301209152805460028201546006909201546001600160a01b039091169163ffffffff81169164010000000090910461ffff169060ff1684565b604080516001600160a01b03909516855263ffffffff909316602085015261ffff90911691830191909152151560608201526080016100c0565b6100b66101d8366004610f66565b60016020526000908152604090205481565b6100b66101f8366004610e85565b6108a3565b61021061020b366004610e85565b6108dd565b6040516100c09190610f81565b6100fd61022b366004610e85565b610965565b6000308585858560405160200161024b959493929190610fce565b604051602081830303815290604052805190602001209050949350505050565b60606000806000856040516102809190611046565b90815260405190819003602001902080546001600160a01b03191633178155600201805463ffffffff191661ffff86169081179091558593509150509250929050565b8383600080826040516102d69190611046565b908152604080519182900360209081019092206001600160a01b03861660009081526003820190935291205490915060ff1615156001146103715760405162461bcd60e51b815260206004820152602a60248201527f54686973206164647265737320646f6573206e6f7420657869737420617320616044820152692063616e64696461746560b01b60648201526084015b60405180910390fd5b85600080826040516103839190611046565b908152604051908190036020019020600681015490915060ff1615156001146103e15760405162461bcd60e51b815260206004820152601060248201526f1d9bdd1a5b99c81a185cc8195b99195960821b6044820152606401610368565b60006103ef8a8a8a42610230565b905060006103fd82896109ea565b90506001600160a01b03811661041257600080fd5b6001600160a01b038116600090815260016020526040902054891461043657600080fd5b6001600160a01b038116600090815260016020526040812080549161045a83611078565b91905055506000808b6040516104709190611046565b90815260408051602092819003830190206001600160a01b03851660009081526004820190935291205490915060ff16156104e15760405162461bcd60e51b8152602060048201526011602482015270165bdd48185b1c9958591e481d9bdd1959607a1b6044820152606401610368565b6104ec8c8c84610b04565b50604080516001600160a01b038e168152600160208201527ff3f16a15f074b71c5138107dfc7c63b80524d5411cb967caa97d8d9f12b2fd6b910160405180910390a1505050505050505050505050565b6060600080600080856040516105539190611046565b90815260405190819003602001902080549091506001600160a01b03166105ae5760405162461bcd60e51b815260206004820152600f60248201526e139bc81c1bdb1b0818dc99585d1959608a1b6044820152606401610368565b600181015467ffffffffffffffff8111156105cb576105cb610c1e565b6040519080825280602002602001820160405280156105f4578160200160208202803683370190505b50935060008060005b600184015481116106c05760006106148983610b97565b90508381111561064e5780935084600101828154811061063657610636611093565b6000918252602090912001546001600160a01b031692505b84600501600086600101848154811061066957610669611093565b60009182526020808320909101546001600160a01b0316835282019290925260400190205488518990849081106106a2576106a2611093565b602090810291909101015250806106b881611078565b9150506105fd565b5093509150509193909250565b600080826040516106de9190611046565b90815260405190819003602001902080549091506001600160a01b031661073e5760405162461bcd60e51b81526020600482015260146024820152731e595d081d1bc818dc99585d194818481c1bdb1b60621b6044820152606401610368565b80546001600160a01b03163314610757576107576110a9565b600281015463ffffffff811664010000000090910461ffff16106107d45760405162461bcd60e51b815260206004820152602e60248201527f6d6178696d756d206e6f206f662063616e64696461746520706572207365737360448201526d1a5bdb881c9959da5cdd195c995960921b6064820152608401610368565b6001600160a01b038316600081815260038301602090815260408220805460ff1916600190811790915584810180549182018155835291200180546001600160a01b031916909117905560028101805461ffff6401000000009091041690600461083d836110bf565b91906101000a81548161ffff021916908361ffff160217905550507fc19c59aa93348e8fc54764bc642eca975e2639f44cc683ef8f027e1529cbda328360405161089691906001600160a01b0391909116815260200190565b60405180910390a1505050565b6000806000836040516108b69190611046565b9081526040519081900360200190206002015461ffff640100000000909104169392505050565b6060600080836040516108f09190611046565b908152602001604051809103902090508060010180548060200260200160405190810160405280929190818152602001828054801561095857602002820191906000526020600020905b81546001600160a01b0316815260019091019060200180831161093a575b5050505050915050919050565b600080826040516109769190611046565b90815260405190819003602001902080549091506001600160a01b031633146109d45760405162461bcd60e51b815260206004820152601060248201526f3737ba103a34329031b430b4b936b0b760811b6044820152606401610368565b600601805460ff19811660ff9091161517905550565b6000806000808451604114610a055760009350505050610afe565b50505060208201516040830151606084015160001a601b811015610a3157610a2e601b826110e1565b90505b8060ff16601b14158015610a4957508060ff16601c14155b15610a5a5760009350505050610afe565b6040517f19457468657265756d205369676e6564204d6573736167653a0a3332000000006020820152603c8101879052600190605c0160408051601f198184030181528282528051602091820120600084529083018083525260ff841690820152606081018590526080810184905260a0016020604051602081039080840390855afa158015610aee573d6000803e3d6000fd5b5050506020604051035193505050505b92915050565b600080600084604051610b179190611046565b908152604080519182900360209081019092206001600160a01b038087166000908152600483018552838120805460ff1916600117905590891681526005820190935290822080549193509091610b6d83611078565b90915550506001600160a01b03851660009081526005909101602052604090205490509392505050565b600080600084604051610baa9190611046565b90815260200160405180910390209050806005016000826001018581548110610bd557610bd5611093565b60009182526020808320909101546001600160a01b03168352820192909252604001902054949350505050565b80356001600160a01b0381168114610c1957600080fd5b919050565b634e487b7160e01b600052604160045260246000fd5b600067ffffffffffffffff80841115610c4f57610c4f610c1e565b604051601f8501601f19908116603f01168101908282118183101715610c7757610c77610c1e565b81604052809350858152868686011115610c9057600080fd5b858560208301376000602087830101525050509392505050565b600082601f830112610cbb57600080fd5b610cca83833560208501610c34565b9392505050565b60008060008060808587031215610ce757600080fd5b610cf085610c02565b9350602085013567ffffffffffffffff811115610d0c57600080fd5b610d1887828801610caa565b949794965050505060408301359260600135919050565b60008060408385031215610d4257600080fd5b823567ffffffffffffffff811115610d5957600080fd5b610d6585828601610caa565b925050602083013561ffff81168114610d7d57600080fd5b809150509250929050565b60005b83811015610da3578181015183820152602001610d8b565b83811115610db2576000848401525b50505050565b6040815260008351806040840152610dd7816060850160208801610d88565b602083019390935250601f91909101601f191601606001919050565b60008060008060808587031215610e0957600080fd5b610e1285610c02565b9350602085013567ffffffffffffffff80821115610e2f57600080fd5b610e3b88838901610caa565b9450604087013593506060870135915080821115610e5857600080fd5b508501601f81018713610e6a57600080fd5b610e7987823560208401610c34565b91505092959194509250565b600060208284031215610e9757600080fd5b813567ffffffffffffffff811115610eae57600080fd5b610eba84828501610caa565b949350505050565b606080825284519082018190526000906020906080840190828801845b82811015610efb57815184529284019290840190600101610edf565b5050506001600160a01b0395909516908301525060400152919050565b60008060408385031215610f2b57600080fd5b610f3483610c02565b9150602083013567ffffffffffffffff811115610f5057600080fd5b610f5c85828601610caa565b9150509250929050565b600060208284031215610f7857600080fd5b610cca82610c02565b6020808252825182820181905260009190848201906040850190845b81811015610fc25783516001600160a01b031683529284019291840191600101610f9d565b50909695505050505050565b60006bffffffffffffffffffffffff19808860601b1683527f6d6574617472616e73616374696f6e20566f74696e67200000000000000000006014840152808760601b16602b84015250845161102b81603f850160208901610d88565b909101603f81019390935250605f820152607f019392505050565b60008251611058818460208701610d88565b9190910192915050565b634e487b7160e01b600052601160045260246000fd5b600060001982141561108c5761108c611062565b5060010190565b634e487b7160e01b600052603260045260246000fd5b634e487b7160e01b600052600160045260246000fd5b600061ffff808316818114156110d7576110d7611062565b6001019392505050565b600060ff821660ff84168060ff038211156110fe576110fe611062565b01939250505056fea26469706673582212207348e904dd26787afc9a1e7def712914f5e10cc9067a414099026fc0e8f59da764736f6c634300080a0033",
    "linkReferences": {}
  }
}