{
  "abi": [
    {
      "anonymous": false,
      "inputs": [
        {
          "indexed": false,
          "internalType": "address",
          "name": "NewCandidate",
          "type": "address"
        }
      ],
      "name": "becameCandidate",
      "type": "event"
    },
    {
      "anonymous": false,
      "inputs": [
        {
          "indexed": false,
          "internalType": "bool",
          "name": "success",
          "type": "bool"
        }
      ],
      "name": "registeredAsVoter",
      "type": "event"
    },
    {
      "anonymous": false,
      "inputs": [
        {
          "indexed": false,
          "internalType": "address",
          "name": "_candidate",
          "type": "address"
        },
        {
          "indexed": false,
          "internalType": "bool",
          "name": "status",
          "type": "bool"
        }
      ],
      "name": "voted",
      "type": "event"
    },
    {
      "inputs": [
        {
          "internalType": "address",
          "name": "_newCandidate",
          "type": "address"
        },
        {
          "internalType": "string",
          "name": "_name",
          "type": "string"
        }
      ],
      "name": "AddCandidate",
      "outputs": [],
      "stateMutability": "nonpayable",
      "type": "function"
    },
    {
      "inputs": [
        {
          "internalType": "string",
          "name": "_name",
          "type": "string"
        }
      ],
      "name": "AllCandidates",
      "outputs": [
        {
          "internalType": "address[]",
          "name": "_candidates",
          "type": "address[]"
        }
      ],
      "stateMutability": "view",
      "type": "function"
    },
    {
      "inputs": [
        {
          "internalType": "string",
          "name": "_name",
          "type": "string"
        }
      ],
      "name": "NoOfRegisteredCandidates",
      "outputs": [
        {
          "internalType": "uint256",
          "name": "",
          "type": "uint256"
        }
      ],
      "stateMutability": "view",
      "type": "function"
    },
    {
      "inputs": [
        {
          "internalType": "string",
          "name": "_name",
          "type": "string"
        }
      ],
      "name": "createId",
      "outputs": [],
      "stateMutability": "payable",
      "type": "function"
    },
    {
      "inputs": [
        {
          "internalType": "string",
          "name": "_name",
          "type": "string"
        },
        {
          "internalType": "uint256",
          "name": "_regFee",
          "type": "uint256"
        },
        {
          "internalType": "uint16",
          "name": "ExpectedNoOfCandidate",
          "type": "uint16"
        }
      ],
      "name": "createPoll",
      "outputs": [],
      "stateMutability": "nonpayable",
      "type": "function"
    },
    {
      "inputs": [
        {
          "internalType": "string",
          "name": "_name",
          "type": "string"
        }
      ],
      "name": "revealWinner",
      "outputs": [
        {
          "internalType": "uint256[]",
          "name": "CV",
          "type": "uint256[]"
        },
        {
          "internalType": "address",
          "name": "",
          "type": "address"
        },
        {
          "internalType": "uint256",
          "name": "",
          "type": "uint256"
        }
      ],
      "stateMutability": "view",
      "type": "function"
    },
    {
      "inputs": [
        {
          "internalType": "string",
          "name": "_name",
          "type": "string"
        }
      ],
      "name": "setVotingState",
      "outputs": [],
      "stateMutability": "nonpayable",
      "type": "function"
    },
    {
      "inputs": [
        {
          "internalType": "address",
          "name": "Cand",
          "type": "address"
        },
        {
          "internalType": "string",
          "name": "_name",
          "type": "string"
        }
      ],
      "name": "vote",
      "outputs": [],
      "stateMutability": "nonpayable",
      "type": "function"
    },
    {
      "inputs": [
        {
          "internalType": "string",
          "name": "",
          "type": "string"
        }
      ],
      "name": "votingPoll",
      "outputs": [
        {
          "internalType": "address",
          "name": "chairman",
          "type": "address"
        },
        {
          "internalType": "uint16",
          "name": "regFee",
          "type": "uint16"
        },
        {
          "internalType": "uint32",
          "name": "maxNoOfCandidates",
          "type": "uint32"
        },
        {
          "internalType": "uint64",
          "name": "startTime",
          "type": "uint64"
        },
        {
          "internalType": "uint64",
          "name": "amountGenerated",
          "type": "uint64"
        },
        {
          "internalType": "uint16",
          "name": "currentNoOfCandidates",
          "type": "uint16"
        },
        {
          "internalType": "bool",
          "name": "voting",
          "type": "bool"
        }
      ],
      "stateMutability": "view",
      "type": "function"
    },
    {
      "inputs": [
        {
          "internalType": "string",
          "name": "_name",
          "type": "string"
        }
      ],
      "name": "withdawFees",
      "outputs": [],
      "stateMutability": "payable",
      "type": "function"
    },
    {
      "stateMutability": "payable",
      "type": "receive"
    }
  ],
  "bytecode": {
    "object": "0x608060405234801561001057600080fd5b50611147806100206000396000f3fe6080604052600436106100945760003560e01c806382e305ab1161005957806382e305ab146102295780638579cacd1461023c578063af7cbc0d1461026a578063ec5fc86914610297578063f0e4de22146102aa57600080fd5b806211ea6f146100a05780631bf533a4146100c25780634fcf1f39146100e257806357f539671461011a57806363ee965a1461013a57600080fd5b3661009b57005b600080fd5b3480156100ac57600080fd5b506100c06100bb366004610e2f565b6102ca565b005b3480156100ce57600080fd5b506100c06100dd366004610e91565b61032a565b3480156100ee57600080fd5b506101026100fd366004610eed565b6105c5565b60405161011193929190610f2a565b60405180910390f35b34801561012657600080fd5b506100c0610135366004610e91565b61077b565b34801561014657600080fd5b506101ce610155366004610eed565b8051602081830181018051600082529282019190930120915280546002909101546001600160a01b039091169061ffff8082169162010000810463ffffffff16916601000000000000820467ffffffffffffffff90811692600160701b810490911691600160b01b82041690600160c01b900460ff1687565b604080516001600160a01b03909816885261ffff968716602089015263ffffffff9095169487019490945267ffffffffffffffff9283166060870152911660808501529190911660a0830152151560c082015260e001610111565b6100c0610237366004610eed565b6109a4565b34801561024857600080fd5b5061025c610257366004610eed565b610a5c565b604051908152602001610111565b34801561027657600080fd5b5061028a610285366004610eed565b610a95565b6040516101119190610f80565b6100c06102a5366004610eed565b610b1d565b3480156102b657600080fd5b506100c06102c5366004610eed565b610cfa565b600080846040516102db9190610fcd565b90815260405190819003602001902060028101805482546001600160a01b03191633179092556201000061ffff9485160265ffffffffffff199092169390941692909217919091179091555050565b81816000808260405161033d9190610fcd565b908152604080519182900360209081019092206001600160a01b03861660009081526003820190935291205490915060ff1615156001146103d85760405162461bcd60e51b815260206004820152602a60248201527f54686973206164647265737320646f6573206e6f7420657869737420617320616044820152692063616e64696461746560b01b60648201526084015b60405180910390fd5b3384600080826040516103eb9190610fcd565b908152604080519182900360209081019092206001600160a01b03861660009081526004820190935291205490915060ff16151560011461043e5760405162461bcd60e51b81526004016103cf90611008565b86600080826040516104509190610fcd565b908152602001604051809103902090508060020160189054906101000a900460ff16151560011515146104b85760405162461bcd60e51b815260206004820152601060248201526f1d9bdd1a5b99c81a185cc8195b99195960821b60448201526064016103cf565b6000808a6040516104c99190610fcd565b90815260408051602092819003830190203360009081526005820190935291205490915060ff16156105315760405162461bcd60e51b8152602060048201526011602482015270165bdd48185b1c9958591e481d9bdd1959607a1b60448201526064016103cf565b3360009081526005820160209081526040808320805460ff191660011790556001600160a01b038e1683526006840190915281208054916105718361107b565b9091555050604080516001600160a01b038d168152600160208201527ff3f16a15f074b71c5138107dfc7c63b80524d5411cb967caa97d8d9f12b2fd6b910160405180910390a15050505050505050505050565b6060600080600080856040516105db9190610fcd565b908152604051908190036020019020600181015490915067ffffffffffffffff81111561060a5761060a610d8c565b604051908082528060200260200182016040528015610633578160200160208202803683370190505b50935060008060005b8651811161076e578284600601600086600101848154811061066057610660611096565b60009182526020808320909101546001600160a01b0316835282019290925260400190205411156106fd578360060160008560010183815481106106a6576106a6611096565b60009182526020808320909101546001600160a01b0316835282019290925260400190205460018501805491945090829081106106e5576106e5611096565b6000918252602090912001546001600160a01b031691505b83600601600085600101838154811061071857610718611096565b60009182526020808320909101546001600160a01b03168352820192909252604001902054875188908390811061075157610751611096565b6020908102919091010152806107668161107b565b91505061063c565b5093509150509193909250565b81816000808260405161078e9190610fcd565b908152604080519182900360209081019092206001600160a01b03861660009081526004820190935291205490915060ff1615156001146107e15760405162461bcd60e51b81526004016103cf90611008565b600080856040516107f29190610fcd565b90815260405190819003602001902080549091506001600160a01b03166108525760405162461bcd60e51b81526020600482015260146024820152731e595d081d1bc818dc99585d194818481c1bdb1b60621b60448201526064016103cf565b600281015462010000810463ffffffff16600160b01b90910461ffff16106108d35760405162461bcd60e51b815260206004820152602e60248201527f6d6178696d756d206e6f206f662063616e64696461746520706572207365737360448201526d1a5bdb881c9959da5cdd195c995960921b60648201526084016103cf565b6001600160a01b038616600081815260038301602090815260408220805460ff1916600190811790915584810180549182018155835291200180546001600160a01b031916909117905560028101805461ffff600160b01b9091041690601661093b836110ac565b91906101000a81548161ffff021916908361ffff160217905550507fc19c59aa93348e8fc54764bc642eca975e2639f44cc683ef8f027e1529cbda328660405161099491906001600160a01b0391909116815260200190565b60405180910390a1505050505050565b600080826040516109b59190610fcd565b9081526040519081900360200190208054909150336001600160a01b0390911614610a155760405162461bcd60e51b815260206004820152601060248201526f3737ba103a34329031b430b4b936b0b760811b60448201526064016103cf565b6002810154604051339167ffffffffffffffff600160701b9091041680156108fc02916000818181858888f19350505050158015610a57573d6000803e3d6000fd5b505050565b600080600083604051610a6f9190610fcd565b9081526040519081900360200190206002015461ffff600160b01b909104169392505050565b606060008083604051610aa89190610fcd565b9081526020016040518091039020905080600101805480602002602001604051908101604052809291908181526020018280548015610b1057602002820191906000526020600020905b81546001600160a01b03168152600190910190602001808311610af2575b5050505050915050919050565b338160008082604051610b309190610fcd565b908152604080519182900360209081019092206001600160a01b03861660009081526004820190935291205490915060ff161515600114610b835760405162461bcd60e51b81526004016103cf90611008565b60008085604051610b949190610fcd565b908152604051908190036020019020600281015490915061ffff16341015610c1d5760405162461bcd60e51b815260206004820152603660248201527f7061796d656e74206973206c657373207468616e2074686520726571756972656044820152756420726567697374726174696f6e206665652066656560501b60648201526084016103cf565b336000908152600482016020526002820154610c3d9061ffff16346110ce565b90508015610c7457604051339082156108fc029083906000818181858888f19350505050158015610c72573d6000803e3d6000fd5b505b60028201805461ffff81169190600e90610ca0908490600160701b900467ffffffffffffffff166110e5565b92506101000a81548167ffffffffffffffff021916908367ffffffffffffffff1602179055507f887050bf7b2a68f8cc6b9abc982a48f1adc0dadd34383878f3399258c5942f086001604051610994911515815260200190565b60008082604051610d0b9190610fcd565b90815260405190819003602001902080549091506001600160a01b03163314610d695760405162461bcd60e51b815260206004820152601060248201526f3737ba103a34329031b430b4b936b0b760811b60448201526064016103cf565b600201805460ff60c01b198116600160c01b9182900460ff161590910217905550565b634e487b7160e01b600052604160045260246000fd5b600082601f830112610db357600080fd5b813567ffffffffffffffff80821115610dce57610dce610d8c565b604051601f8301601f19908116603f01168101908282118183101715610df657610df6610d8c565b81604052838152866020858801011115610e0f57600080fd5b836020870160208301376000602085830101528094505050505092915050565b600080600060608486031215610e4457600080fd5b833567ffffffffffffffff811115610e5b57600080fd5b610e6786828701610da2565b93505060208401359150604084013561ffff81168114610e8657600080fd5b809150509250925092565b60008060408385031215610ea457600080fd5b82356001600160a01b0381168114610ebb57600080fd5b9150602083013567ffffffffffffffff811115610ed757600080fd5b610ee385828601610da2565b9150509250929050565b600060208284031215610eff57600080fd5b813567ffffffffffffffff811115610f1657600080fd5b610f2284828501610da2565b949350505050565b606080825284519082018190526000906020906080840190828801845b82811015610f6357815184529284019290840190600101610f47565b5050506001600160a01b0395909516908301525060400152919050565b6020808252825182820181905260009190848201906040850190845b81811015610fc15783516001600160a01b031683529284019291840191600101610f9c565b50909695505050505050565b6000825160005b81811015610fee5760208186018101518583015201610fd4565b81811115610ffd576000828501525b509190910192915050565b60208082526037908201527f7468697320706572736f6e20686173206e6f742072656769737465726564206160408201527f732061207061727469636970616e7420746f20766f7465000000000000000000606082015260800190565b634e487b7160e01b600052601160045260246000fd5b600060001982141561108f5761108f611065565b5060010190565b634e487b7160e01b600052603260045260246000fd5b600061ffff808316818114156110c4576110c4611065565b6001019392505050565b6000828210156110e0576110e0611065565b500390565b600067ffffffffffffffff80831681851680830382111561110857611108611065565b0194935050505056fea26469706673582212209bb1846ed60cb3da08fec5508b5ba6f28f9b0e4eda268a148756675dfaf16c0164736f6c634300080a0033",
    "linkReferences": {}
  }
}