{
  "abi": [
    {
      "anonymous": false,
      "inputs": [
        {
          "indexed": false,
          "internalType": "address",
          "name": "NewCandidate",
          "type": "address"
        }
      ],
      "name": "becameCandidate",
      "type": "event"
    },
    {
      "anonymous": false,
      "inputs": [
        {
          "indexed": true,
          "internalType": "string",
          "name": "_name",
          "type": "string"
        },
        {
          "indexed": true,
          "internalType": "uint32",
          "name": "ExpectedNoOfCandidate",
          "type": "uint32"
        },
        {
          "indexed": true,
          "internalType": "uint256",
          "name": "_id",
          "type": "uint256"
        }
      ],
      "name": "pollCreated",
      "type": "event"
    },
    {
      "anonymous": false,
      "inputs": [
        {
          "indexed": true,
          "internalType": "bool",
          "name": "status",
          "type": "bool"
        }
      ],
      "name": "voteStatus",
      "type": "event"
    },
    {
      "anonymous": false,
      "inputs": [
        {
          "indexed": false,
          "internalType": "address",
          "name": "_candidate",
          "type": "address"
        },
        {
          "indexed": false,
          "internalType": "bool",
          "name": "status",
          "type": "bool"
        }
      ],
      "name": "voted",
      "type": "event"
    },
    {
      "inputs": [
        {
          "internalType": "address",
          "name": "_newCandidate",
          "type": "address"
        },
        {
          "internalType": "uint256",
          "name": "_id",
          "type": "uint256"
        }
      ],
      "name": "AddCandidate",
      "outputs": [],
      "stateMutability": "nonpayable",
      "type": "function"
    },
    {
      "inputs": [
        {
          "internalType": "uint256",
          "name": "_id",
          "type": "uint256"
        }
      ],
      "name": "AllCandidates",
      "outputs": [
        {
          "internalType": "address[]",
          "name": "_candidates",
          "type": "address[]"
        }
      ],
      "stateMutability": "view",
      "type": "function"
    },
    {
      "inputs": [
        {
          "internalType": "uint256",
          "name": "_id",
          "type": "uint256"
        }
      ],
      "name": "NoOfRegisteredCandidates",
      "outputs": [
        {
          "internalType": "uint256",
          "name": "",
          "type": "uint256"
        }
      ],
      "stateMutability": "view",
      "type": "function"
    },
    {
      "inputs": [
        {
          "internalType": "uint256",
          "name": "",
          "type": "uint256"
        }
      ],
      "name": "VotingKey",
      "outputs": [
        {
          "internalType": "uint256",
          "name": "",
          "type": "uint256"
        }
      ],
      "stateMutability": "view",
      "type": "function"
    },
    {
      "inputs": [
        {
          "internalType": "string",
          "name": "_name",
          "type": "string"
        },
        {
          "internalType": "uint32",
          "name": "ExpectedNoOfCandidate",
          "type": "uint32"
        }
      ],
      "name": "createPoll",
      "outputs": [],
      "stateMutability": "nonpayable",
      "type": "function"
    },
    {
      "inputs": [],
      "name": "getAllVotingPolls",
      "outputs": [
        {
          "components": [
            {
              "internalType": "string",
              "name": "name",
              "type": "string"
            },
            {
              "internalType": "address",
              "name": "chairman",
              "type": "address"
            },
            {
              "internalType": "address[]",
              "name": "candidates",
              "type": "address[]"
            },
            {
              "internalType": "uint32",
              "name": "maxNoOfCandidates",
              "type": "uint32"
            },
            {
              "internalType": "uint32",
              "name": "currentNoOfCandidates",
              "type": "uint32"
            },
            {
              "internalType": "bool",
              "name": "voting",
              "type": "bool"
            }
          ],
          "internalType": "struct Voting.VotingPoll[]",
          "name": "VP",
          "type": "tuple[]"
        }
      ],
      "stateMutability": "nonpayable",
      "type": "function"
    },
    {
      "inputs": [
        {
          "internalType": "uint256",
          "name": "_id",
          "type": "uint256"
        }
      ],
      "name": "getVotePollProps",
      "outputs": [
        {
          "components": [
            {
              "internalType": "string",
              "name": "name",
              "type": "string"
            },
            {
              "internalType": "address",
              "name": "chairman",
              "type": "address"
            },
            {
              "internalType": "address[]",
              "name": "candidates",
              "type": "address[]"
            },
            {
              "internalType": "uint32",
              "name": "maxNoOfCandidates",
              "type": "uint32"
            },
            {
              "internalType": "uint32",
              "name": "currentNoOfCandidates",
              "type": "uint32"
            },
            {
              "internalType": "bool",
              "name": "voting",
              "type": "bool"
            }
          ],
          "internalType": "struct Voting.VotingPoll",
          "name": "",
          "type": "tuple"
        }
      ],
      "stateMutability": "view",
      "type": "function"
    },
    {
      "inputs": [
        {
          "internalType": "address",
          "name": "Cand",
          "type": "address"
        },
        {
          "internalType": "uint256",
          "name": "_id",
          "type": "uint256"
        },
        {
          "internalType": "uint256",
          "name": "nonce",
          "type": "uint256"
        },
        {
          "internalType": "uint256",
          "name": "time",
          "type": "uint256"
        }
      ],
      "name": "metaVotingHash",
      "outputs": [
        {
          "internalType": "bytes32",
          "name": "",
          "type": "bytes32"
        }
      ],
      "stateMutability": "view",
      "type": "function"
    },
    {
      "inputs": [
        {
          "internalType": "address",
          "name": "",
          "type": "address"
        }
      ],
      "name": "replayNonce",
      "outputs": [
        {
          "internalType": "uint256",
          "name": "",
          "type": "uint256"
        }
      ],
      "stateMutability": "view",
      "type": "function"
    },
    {
      "inputs": [
        {
          "internalType": "uint256",
          "name": "",
          "type": "uint256"
        }
      ],
      "name": "retVotingPoll",
      "outputs": [
        {
          "internalType": "string",
          "name": "name",
          "type": "string"
        },
        {
          "internalType": "address",
          "name": "chairman",
          "type": "address"
        },
        {
          "internalType": "uint32",
          "name": "maxNoOfCandidates",
          "type": "uint32"
        },
        {
          "internalType": "uint32",
          "name": "currentNoOfCandidates",
          "type": "uint32"
        },
        {
          "internalType": "bool",
          "name": "voting",
          "type": "bool"
        }
      ],
      "stateMutability": "view",
      "type": "function"
    },
    {
      "inputs": [
        {
          "internalType": "uint256",
          "name": "_id",
          "type": "uint256"
        }
      ],
      "name": "revealWinner",
      "outputs": [
        {
          "internalType": "uint256[]",
          "name": "CV",
          "type": "uint256[]"
        },
        {
          "internalType": "address",
          "name": "",
          "type": "address"
        },
        {
          "internalType": "uint256",
          "name": "",
          "type": "uint256"
        }
      ],
      "stateMutability": "view",
      "type": "function"
    },
    {
      "inputs": [
        {
          "internalType": "uint256",
          "name": "_id",
          "type": "uint256"
        }
      ],
      "name": "setVotingState",
      "outputs": [],
      "stateMutability": "nonpayable",
      "type": "function"
    },
    {
      "inputs": [
        {
          "internalType": "address",
          "name": "Cand",
          "type": "address"
        },
        {
          "internalType": "uint256",
          "name": "_id",
          "type": "uint256"
        },
        {
          "internalType": "uint256",
          "name": "nonce",
          "type": "uint256"
        },
        {
          "internalType": "bytes",
          "name": "signature",
          "type": "bytes"
        }
      ],
      "name": "vote",
      "outputs": [],
      "stateMutability": "nonpayable",
      "type": "function"
    },
    {
      "inputs": [
        {
          "internalType": "uint256",
          "name": "",
          "type": "uint256"
        }
      ],
      "name": "votingPoll",
      "outputs": [
        {
          "internalType": "string",
          "name": "name",
          "type": "string"
        },
        {
          "internalType": "address",
          "name": "chairman",
          "type": "address"
        },
        {
          "internalType": "uint32",
          "name": "maxNoOfCandidates",
          "type": "uint32"
        },
        {
          "internalType": "uint32",
          "name": "currentNoOfCandidates",
          "type": "uint32"
        },
        {
          "internalType": "bool",
          "name": "voting",
          "type": "bool"
        }
      ],
      "stateMutability": "view",
      "type": "function"
    }
  ],
  "bytecode": {
    "object": "0x6080604052600160005534801561001557600080fd5b506118d3806100256000396000f3fe608060405234801561001057600080fd5b50600436106100ea5760003560e01c80638ccb59e81161008c578063c10d6cec11610066578063c10d6cec1461022d578063c57003cc14610240578063e615f10414610253578063f762f4c01461026657600080fd5b80638ccb59e8146101e5578063ae928e3e14610207578063bfe2e25d1461021a57600080fd5b806346a756a9116100c857806346a756a91461015157806366c5343b1461016657806367d407df146101a55780638ac3c3c2146101c557600080fd5b8063049d1c8b146100ef578063278e2c9014610104578063391e82471461012d575b600080fd5b6101026100fd366004611312565b610279565b005b61011761011236600461133c565b610452565b6040516101249190611474565b60405180910390f35b61014061013b36600461133c565b6105d8565b60405161012495949392919061148e565b6101596106bf565b60405161012491906114d7565b61019761017436600461133c565b60009081526003602081905260409091200154600160201b900463ffffffff1690565b604051908152602001610124565b6101976101b3366004611539565b60046020526000908152604090205481565b6101d86101d336600461133c565b61085f565b6040516101249190611554565b6101f86101f336600461133c565b6108d1565b604051610124939291906115a1565b61019761021536600461133c565b610a5d565b6101976102283660046115f7565b610a7e565b61010261023b3660046116bc565b610b06565b61010261024e36600461133c565b610d39565b61014061026136600461133c565b610df3565b610102610274366004611731565b610e0e565b600081815260036020526040902060018101546001600160a01b03166102dd5760405162461bcd60e51b81526020600482015260146024820152731e595d081d1bc818dc99585d194818481c1bdb1b60621b60448201526064015b60405180910390fd5b60018101546001600160a01b031633146102f9576102f96117a0565b600381015463ffffffff808216600160201b90920416106103735760405162461bcd60e51b815260206004820152602e60248201527f6d6178696d756d206e6f206f662063616e64696461746520706572207365737360448201526d1a5bdb881c9959da5cdd195c995960921b60648201526084016102d4565b60008281526005602090815260408083206001600160a01b038716808552908352908320805460ff1916600190811790915560028501805491820181558452919092200180546001600160a01b031916909117905560038101805463ffffffff600160201b909104169060046103e8836117cc565b91906101000a81548163ffffffff021916908363ffffffff160217905550507fc19c59aa93348e8fc54764bc642eca975e2639f44cc683ef8f027e1529cbda328360405161044591906001600160a01b0391909116815260200190565b60405180910390a1505050565b6040805160c081018252606080825260006020830181905292820181905281018290526080810182905260a081019190915260008281526003602052604090819020815160c081019092528054829082906104ac906117f0565b80601f01602080910402602001604051908101604052809291908181526020018280546104d8906117f0565b80156105255780601f106104fa57610100808354040283529160200191610525565b820191906000526020600020905b81548152906001019060200180831161050857829003601f168201915b505050918352505060018201546001600160a01b0316602080830191909152600283018054604080518285028101850182528281529401939283018282801561059757602002820191906000526020600020905b81546001600160a01b03168152600190910190602001808311610579575b50505091835250506003919091015463ffffffff8082166020840152600160201b8204166040830152600160401b900460ff16151560609091015292915050565b600281815481106105e857600080fd5b906000526020600020906004020160009150905080600001805461060b906117f0565b80601f0160208091040260200160405190810160405280929190818152602001828054610637906117f0565b80156106845780601f1061065957610100808354040283529160200191610684565b820191906000526020600020905b81548152906001019060200180831161066757829003601f168201915b50505050600183015460039093015491926001600160a01b03169163ffffffff8082169250600160201b82041690600160401b900460ff1685565b60606002805480602002602001604051908101604052809291908181526020016000905b8282101561085657838290600052602060002090600402016040518060c0016040529081600082018054610716906117f0565b80601f0160208091040260200160405190810160405280929190818152602001828054610742906117f0565b801561078f5780601f106107645761010080835404028352916020019161078f565b820191906000526020600020905b81548152906001019060200180831161077257829003601f168201915b505050918352505060018201546001600160a01b0316602080830191909152600283018054604080518285028101850182528281529401939283018282801561080157602002820191906000526020600020905b81546001600160a01b031681526001909101906020018083116107e3575b50505091835250506003919091015463ffffffff808216602080850191909152600160201b83049091166040840152600160401b90910460ff16151560609092019190915290825260019290920191016106e3565b50505050905090565b60008181526003602090815260409182902060028101805484518185028101850190955280855260609492938301828280156108c457602002820191906000526020600020905b81546001600160a01b031681526001909101906020018083116108a6575b5050505050915050919050565b600081815260036020526040812060018101546060929182916001600160a01b03166109315760405162461bcd60e51b815260206004820152600f60248201526e139bc81c1bdb1b0818dc99585d1959608a1b60448201526064016102d4565b600281015467ffffffffffffffff81111561094e5761094e611630565b604051908082528060200260200182016040528015610977578160200160208202803683370190505b50935060008060005b6002840154811015610a505760006109988983610fad565b9050838111156109d2578093508460020182815481106109ba576109ba61182b565b6000918252602090912001546001600160a01b031692505b6000898152600660205260408120600287018054919291859081106109f9576109f961182b565b60009182526020808320909101546001600160a01b031683528201929092526040019020548851899084908110610a3257610a3261182b565b60209081029190910101525080610a4881611841565b915050610980565b5093509150509193909250565b60018181548110610a6d57600080fd5b600091825260209091200154905081565b6040516bffffffffffffffffffffffff1930606090811b821660208401527f6d6574617472616e73616374696f6e20566f74696e6720000000000000000000603484015286901b16604b820152605f8101849052607f8101839052609f810182905260009060bf01604051602081830303815290604052805190602001209050949350505050565b60008381526005602090815260408083206001600160a01b03881684529091529020548490849060ff161515600114610b945760405162461bcd60e51b815260206004820152602a60248201527f54686973206164647265737320646f6573206e6f7420657869737420617320616044820152692063616e64696461746560b01b60648201526084016102d4565b600085815260036020819052604090912090810154869190600160401b900460ff161515600114610bfa5760405162461bcd60e51b815260206004820152601060248201526f1d9bdd1a5b99c81a185cc8195b99195960821b60448201526064016102d4565b6000610c0889898942610a7e565b90506000610c16828861100b565b90506001600160a01b038116610c2b57600080fd5b6001600160a01b0381166000908152600460205260409020548814610c4f57600080fd5b6001600160a01b0381166000908152600460205260408120805491610c7383611841565b909155505060008981526007602090815260408083206001600160a01b038516845290915290205460ff1615610cdf5760405162461bcd60e51b8152602060048201526011602482015270165bdd48185b1c9958591e481d9bdd1959607a1b60448201526064016102d4565b610cea8a8a83611125565b50604080516001600160a01b038c168152600160208201527ff3f16a15f074b71c5138107dfc7c63b80524d5411cb967caa97d8d9f12b2fd6b910160405180910390a150505050505050505050565b600081815260036020526040902060018101546001600160a01b03163314610d965760405162461bcd60e51b815260206004820152601060248201526f3737ba103a34329031b430b4b936b0b760811b60448201526064016102d4565b60038101805460ff600160401b808304821615810260ff60401b199093169290921792839055604051919092049091161515907f7b224db641892626dca6975b376f464e9ac52ccfa180436175170c009b94dcd790600090a25050565b60036020526000908152604090208054819061060b906117f0565b60008054815260036020908152604090912083519091610e329183918601906111a3565b50600180820180546001600160a01b0319163317905560038201805463ffffffff851663ffffffff19909116179055600280549182018155600052815482916004027f405787fa12a823e0f2b7631cc41b3ba8828b3321ca811111fa75cd3aa3bb5ace019081908390610ea4906117f0565b610eaf929190611227565b5060018281015490820180546001600160a01b0319166001600160a01b0390921691909117905560028083018054610eea92840191906112a2565b5060039182018054918301805463ffffffff19811663ffffffff94851690811783558354600160201b9081900486160267ffffffffffffffff199092161717808255915460ff600160401b918290041615150260ff60401b1990921691909117905560005491830154604051911690610f6490869061185c565b604051908190038120907fd4d0d9a1ef7f13069f1bade752fda515713d747eb14a8c30ae461c52916bf1c790600090a4600080549080610fa383611841565b9190505550505050565b60008281526003602090815260408083206006909252822060028201805484919086908110610fde57610fde61182b565b60009182526020808320909101546001600160a01b03168352820192909252604001902054949350505050565b6000806000808451604114611026576000935050505061111f565b50505060208201516040830151606084015160001a601b8110156110525761104f601b82611878565b90505b8060ff16601b1415801561106a57508060ff16601c14155b1561107b576000935050505061111f565b6040517f19457468657265756d205369676e6564204d6573736167653a0a3332000000006020820152603c8101879052600190605c0160408051601f198184030181528282528051602091820120600084529083018083525260ff841690820152606081018590526080810184905260a0016020604051602081039080840390855afa15801561110f573d6000803e3d6000fd5b5050506020604051035193505050505b92915050565b60008281526007602090815260408083206001600160a01b038086168552908352818420805460ff1916600117905585845260068352818420908716845290915281208054908261117583611841565b9091555050506000918252506006602090815260408083206001600160a01b03949094168352929052205490565b8280546111af906117f0565b90600052602060002090601f0160209004810192826111d15760008555611217565b82601f106111ea57805160ff1916838001178555611217565b82800160010185558215611217579182015b828111156112175782518255916020019190600101906111fc565b506112239291506112e1565b5090565b828054611233906117f0565b90600052602060002090601f0160209004810192826112555760008555611217565b82601f106112665780548555611217565b8280016001018555821561121757600052602060002091601f016020900482015b82811115611217578254825591600101919060010190611287565b82805482825590600052602060002090810192821561121757600052602060002091820182811115611217578254825591600101919060010190611287565b5b8082111561122357600081556001016112e2565b80356001600160a01b038116811461130d57600080fd5b919050565b6000806040838503121561132557600080fd5b61132e836112f6565b946020939093013593505050565b60006020828403121561134e57600080fd5b5035919050565b60005b83811015611370578181015183820152602001611358565b8381111561137f576000848401525b50505050565b6000815180845261139d816020860160208601611355565b601f01601f19169290920160200192915050565b6000815160c084526113c660c0850182611385565b6020848101516001600160a01b039081168783015260408087015188850391890191909152805180855290830194509192600092908401905b80841015611421578551831682529484019460019390930192908401906113ff565b506060870151945061143b606089018663ffffffff169052565b60808701519450611454608089018663ffffffff169052565b60a0870151945061146960a089018615159052565b979650505050505050565b60208152600061148760208301846113b1565b9392505050565b60a0815260006114a160a0830188611385565b6001600160a01b039690961660208301525063ffffffff9384166040820152919092166060820152901515608090910152919050565b6000602080830181845280855180835260408601915060408160051b870101925083870160005b8281101561152c57603f1988860301845261151a8583516113b1565b945092850192908501906001016114fe565b5092979650505050505050565b60006020828403121561154b57600080fd5b611487826112f6565b6020808252825182820181905260009190848201906040850190845b818110156115955783516001600160a01b031683529284019291840191600101611570565b50909695505050505050565b606080825284519082018190526000906020906080840190828801845b828110156115da578151845292840192908401906001016115be565b5050506001600160a01b0395909516908301525060400152919050565b6000806000806080858703121561160d57600080fd5b611616856112f6565b966020860135965060408601359560600135945092505050565b634e487b7160e01b600052604160045260246000fd5b600067ffffffffffffffff8084111561166157611661611630565b604051601f8501601f19908116603f0116810190828211818310171561168957611689611630565b816040528093508581528686860111156116a257600080fd5b858560208301376000602087830101525050509392505050565b600080600080608085870312156116d257600080fd5b6116db856112f6565b93506020850135925060408501359150606085013567ffffffffffffffff81111561170557600080fd5b8501601f8101871361171657600080fd5b61172587823560208401611646565b91505092959194509250565b6000806040838503121561174457600080fd5b823567ffffffffffffffff81111561175b57600080fd5b8301601f8101851361176c57600080fd5b61177b85823560208401611646565b925050602083013563ffffffff8116811461179557600080fd5b809150509250929050565b634e487b7160e01b600052600160045260246000fd5b634e487b7160e01b600052601160045260246000fd5b600063ffffffff808316818114156117e6576117e66117b6565b6001019392505050565b600181811c9082168061180457607f821691505b6020821081141561182557634e487b7160e01b600052602260045260246000fd5b50919050565b634e487b7160e01b600052603260045260246000fd5b6000600019821415611855576118556117b6565b5060010190565b6000825161186e818460208701611355565b9190910192915050565b600060ff821660ff84168060ff03821115611895576118956117b6565b01939250505056fea26469706673582212201497dd5e4b40838919bba51bb26d6b8af4682f571aa91694db7011f5c4e2be9464736f6c634300080a0033",
    "linkReferences": {}
  }
}