{
  "abi": [
    {
      "inputs": [
        {
          "internalType": "address",
          "name": "_chairman",
          "type": "address"
        },
        {
          "internalType": "uint256",
          "name": "_maxCandidate",
          "type": "uint256"
        }
      ],
      "stateMutability": "nonpayable",
      "type": "constructor"
    },
    {
      "anonymous": false,
      "inputs": [
        {
          "indexed": false,
          "internalType": "address",
          "name": "NewCandidate",
          "type": "address"
        }
      ],
      "name": "becameCandidate",
      "type": "event"
    },
    {
      "anonymous": false,
      "inputs": [
        {
          "indexed": false,
          "internalType": "bool",
          "name": "success",
          "type": "bool"
        }
      ],
      "name": "registeredAsVoter",
      "type": "event"
    },
    {
      "anonymous": false,
      "inputs": [
        {
          "indexed": false,
          "internalType": "address",
          "name": "_candidate",
          "type": "address"
        },
        {
          "indexed": false,
          "internalType": "bool",
          "name": "status",
          "type": "bool"
        }
      ],
      "name": "voted",
      "type": "event"
    },
    {
      "inputs": [
        {
          "internalType": "address",
          "name": "_newCandidate",
          "type": "address"
        }
      ],
      "name": "AddCandidate",
      "outputs": [],
      "stateMutability": "nonpayable",
      "type": "function"
    },
    {
      "inputs": [],
      "name": "AllCandidates",
      "outputs": [
        {
          "internalType": "address[]",
          "name": "_candidates",
          "type": "address[]"
        }
      ],
      "stateMutability": "view",
      "type": "function"
    },
    {
      "inputs": [
        {
          "internalType": "address",
          "name": "",
          "type": "address"
        }
      ],
      "name": "CandidateStatus",
      "outputs": [
        {
          "internalType": "bool",
          "name": "",
          "type": "bool"
        }
      ],
      "stateMutability": "view",
      "type": "function"
    },
    {
      "inputs": [
        {
          "internalType": "address",
          "name": "",
          "type": "address"
        }
      ],
      "name": "CandidateVote",
      "outputs": [
        {
          "internalType": "uint256",
          "name": "voteCount",
          "type": "uint256"
        }
      ],
      "stateMutability": "view",
      "type": "function"
    },
    {
      "inputs": [
        {
          "internalType": "uint256",
          "name": "",
          "type": "uint256"
        }
      ],
      "name": "Candidates",
      "outputs": [
        {
          "internalType": "address",
          "name": "",
          "type": "address"
        }
      ],
      "stateMutability": "view",
      "type": "function"
    },
    {
      "inputs": [],
      "name": "NoOfRegisteredCandidates",
      "outputs": [
        {
          "internalType": "uint256",
          "name": "",
          "type": "uint256"
        }
      ],
      "stateMutability": "view",
      "type": "function"
    },
    {
      "inputs": [
        {
          "internalType": "address",
          "name": "",
          "type": "address"
        }
      ],
      "name": "ParticipantStatus",
      "outputs": [
        {
          "internalType": "bool",
          "name": "",
          "type": "bool"
        }
      ],
      "stateMutability": "view",
      "type": "function"
    },
    {
      "inputs": [],
      "name": "createId",
      "outputs": [],
      "stateMutability": "payable",
      "type": "function"
    },
    {
      "inputs": [],
      "name": "regFee",
      "outputs": [
        {
          "internalType": "uint256",
          "name": "",
          "type": "uint256"
        }
      ],
      "stateMutability": "view",
      "type": "function"
    },
    {
      "inputs": [],
      "name": "revealWinner",
      "outputs": [
        {
          "components": [
            {
              "internalType": "uint256",
              "name": "voteCount",
              "type": "uint256"
            }
          ],
          "internalType": "struct Voting.Candidate[]",
          "name": "CV",
          "type": "tuple[]"
        },
        {
          "internalType": "address",
          "name": "",
          "type": "address"
        },
        {
          "internalType": "uint256",
          "name": "",
          "type": "uint256"
        }
      ],
      "stateMutability": "view",
      "type": "function"
    },
    {
      "inputs": [],
      "name": "setVotingState",
      "outputs": [],
      "stateMutability": "nonpayable",
      "type": "function"
    },
    {
      "inputs": [
        {
          "internalType": "address",
          "name": "Cand",
          "type": "address"
        }
      ],
      "name": "vote",
      "outputs": [],
      "stateMutability": "nonpayable",
      "type": "function"
    },
    {
      "inputs": [],
      "name": "withdawFees",
      "outputs": [],
      "stateMutability": "payable",
      "type": "function"
    }
  ],
  "bytecode": {
    "object": "0x60806040526801158e460913d000006000556f1e17b84357691b6403d0da800000000060015534801561003157600080fd5b50604051610da3380380610da38339810160408190526100509161009d565b6002805463ffffffff909216600160c01b027fffffffff00000000ffffffff00000000000000000000000000000000000000009092166001600160a01b03909316929092171790556100d7565b600080604083850312156100b057600080fd5b82516001600160a01b03811681146100c757600080fd5b6020939093015192949293505050565b610cbd806100e66000396000f3fe6080604052600436106100c25760003560e01c80638fff20f31161007f578063c351f49511610059578063c351f49514610229578063e964359a14610257578063f0f868ed14610279578063f51c0b81146102a957600080fd5b80638fff20f3146101cb578063909a1d6c146101e1578063a4fe1038146101e957600080fd5b8063054648b2146100c75780631231f78e146100e9578063290e9212146101145780636c6999051461014c5780636dd7d8ea146101705780637e20f05414610190575b600080fd5b3480156100d357600080fd5b506100e76100e2366004610aea565b6102b1565b005b3480156100f557600080fd5b506100fe610502565b60405161010b9190610b1a565b60405180910390f35b34801561012057600080fd5b5061013461012f366004610b67565b610564565b6040516001600160a01b03909116815260200161010b565b34801561015857600080fd5b5061016161058e565b60405161010b93929190610b80565b34801561017c57600080fd5b506100e761018b366004610aea565b610737565b34801561019c57600080fd5b506101bd6101ab366004610aea565b60046020526000908152604090205481565b60405190815260200161010b565b3480156101d757600080fd5b506101bd60015481565b6100e7610942565b3480156101f557600080fd5b50610219610204366004610aea565b60066020526000908152604090205460ff1681565b604051901515815260200161010b565b34801561023557600080fd5b506002805460ff60e01b198116600160e01b9182900460ff1615909102179055005b34801561026357600080fd5b50600254600160a01b900463ffffffff166101bd565b34801561028557600080fd5b50610219610294366004610aea565b60056020526000908152604090205460ff1681565b6100e7610a71565b6001600160a01b038116600090815260056020526040902054819060ff16151560011461034b5760405162461bcd60e51b815260206004820152603760248201527f7468697320706572736f6e20686173206e6f742072656769737465726564206160448201527f732061207061727469636970616e7420746f20766f746500000000000000000060648201526084015b60405180910390fd5b6002546001600160a01b031633146103985760405162461bcd60e51b815260206004820152601060248201526f3737ba103a34329031b430b4b936b0b760811b6044820152606401610342565b60025463ffffffff600160c01b82048116600160a01b90920416106104165760405162461bcd60e51b815260206004820152602e60248201527f6d6178696d756d206e6f206f662063616e64696461746520706572207365737360448201526d1a5bdb881c9959da5cdd195c995960921b6064820152608401610342565b6001600160a01b0382166000818152600660205260408120805460ff191660019081179091556003805491820181559091527fc2575a0e9e593c00f959f8c92f12db2869c3395a3b0502d05e2516446f71f85b0180546001600160a01b03191690911790556002805463ffffffff600160a01b9091041690601461049983610bed565b91906101000a81548163ffffffff021916908363ffffffff160217905550507fc19c59aa93348e8fc54764bc642eca975e2639f44cc683ef8f027e1529cbda32826040516104f691906001600160a01b0391909116815260200190565b60405180910390a15050565b6060600380548060200260200160405190810160405280929190818152602001828054801561055a57602002820191906000526020600020905b81546001600160a01b0316815260019091019060200180831161053c575b5050505050905090565b6003818154811061057457600080fd5b6000918252602090912001546001600160a01b0316905081565b606060008060038054905067ffffffffffffffff8111156105b1576105b1610c11565b6040519080825280602002602001820160405280156105f157816020015b6040805160208101909152600081528152602001906001900390816105cf5790505b50925060008060005b600354811161072d5782600460006003848154811061061b5761061b610c27565b60009182526020808320909101546001600160a01b0316835282019290925260400190205411156106b257600460006003838154811061065d5761065d610c27565b60009182526020808320909101546001600160a01b0316835282019290925260400190205460038054919450908290811061069a5761069a610c27565b6000918252602090912001546001600160a01b031691505b60046000600383815481106106c9576106c9610c27565b60009182526020808320909101546001600160a01b0316835282810193909352604091820190208151928301909152548152865187908390811061070f5761070f610c27565b6020026020010181905250808061072590610c3d565b9150506105fa565b5093949092509050565b6001600160a01b038116600090815260066020526040902054819060ff1615156001146107b95760405162461bcd60e51b815260206004820152602a60248201527f54686973206164647265737320646f6573206e6f7420657869737420617320616044820152692063616e64696461746560b01b6064820152608401610342565b600254600160e01b900460ff16151560011461080a5760405162461bcd60e51b815260206004820152601060248201526f1d9bdd1a5b99c81a185cc8195b99195960821b6044820152606401610342565b3360009081526005602052604090205460ff16151560011461086e5760405162461bcd60e51b815260206004820152601760248201527f6e6f7420612072656769737465726564206d656d6265720000000000000000006044820152606401610342565b3360009081526007602052604090205460ff16156108c25760405162461bcd60e51b8152602060048201526011602482015270165bdd48185b1c9958591e481d9bdd1959607a1b6044820152606401610342565b336000908152600760209081526040808320805460ff191660011790556001600160a01b0385168352600490915281208054916108fe83610c3d565b9091555050604080516001600160a01b0384168152600160208201527ff3f16a15f074b71c5138107dfc7c63b80524d5411cb967caa97d8d9f12b2fd6b91016104f6565b6001543410156109b35760405162461bcd60e51b815260206004820152603660248201527f7061796d656e74206973206c657373207468616e2074686520726571756972656044820152756420726567697374726174696f6e206665652066656560501b6064820152608401610342565b3360009081526005602052604090205460ff1615610a135760405162461bcd60e51b815260206004820152601b60248201527f796f752061726520612072656769737465726564206d656d62657200000000006044820152606401610342565b33600090815260056020528054600154610a2d9034610c58565b610a379190610c6f565b90508015610a6e57604051339082156108fc029083906000818181858888f19350505050158015610a6c573d6000803e3d6000fd5b505b50565b6002546001600160a01b03163314610abe5760405162461bcd60e51b815260206004820152601060248201526f3737ba103a34329031b430b4b936b0b760811b6044820152606401610342565b60405133904780156108fc02916000818181858888f19350505050158015610a6e573d6000803e3d6000fd5b600060208284031215610afc57600080fd5b81356001600160a01b0381168114610b1357600080fd5b9392505050565b6020808252825182820181905260009190848201906040850190845b81811015610b5b5783516001600160a01b031683529284019291840191600101610b36565b50909695505050505050565b600060208284031215610b7957600080fd5b5035919050565b606080825284519082018190526000906020906080840190828801845b82811015610bba5781515184529284019290840190600101610b9d565b5050506001600160a01b0395909516908301525060400152919050565b634e487b7160e01b600052601160045260246000fd5b600063ffffffff80831681811415610c0757610c07610bd7565b6001019392505050565b634e487b7160e01b600052604160045260246000fd5b634e487b7160e01b600052603260045260246000fd5b6000600019821415610c5157610c51610bd7565b5060010190565b600082821015610c6a57610c6a610bd7565b500390565b60008219821115610c8257610c82610bd7565b50019056fea26469706673582212207250741558eef6cdc1541919945b6e1bbb771608cae85438dfacaa16ad4a7e2364736f6c634300080a0033",
    "linkReferences": {}
  }
}