{
  "abi": [
    {
      "anonymous": false,
      "inputs": [
        {
          "indexed": false,
          "internalType": "address",
          "name": "NewCandidate",
          "type": "address"
        }
      ],
      "name": "becameCandidate",
      "type": "event"
    },
    {
      "anonymous": false,
      "inputs": [
        {
          "indexed": true,
          "internalType": "string",
          "name": "_name",
          "type": "string"
        },
        {
          "indexed": true,
          "internalType": "uint32",
          "name": "ExpectedNoOfCandidate",
          "type": "uint32"
        },
        {
          "indexed": true,
          "internalType": "address",
          "name": "chairman",
          "type": "address"
        }
      ],
      "name": "pollCreated",
      "type": "event"
    },
    {
      "anonymous": false,
      "inputs": [
        {
          "indexed": true,
          "internalType": "bool",
          "name": "status",
          "type": "bool"
        }
      ],
      "name": "voteStatus",
      "type": "event"
    },
    {
      "anonymous": false,
      "inputs": [
        {
          "indexed": false,
          "internalType": "address",
          "name": "_candidate",
          "type": "address"
        },
        {
          "indexed": false,
          "internalType": "bool",
          "name": "status",
          "type": "bool"
        }
      ],
      "name": "voted",
      "type": "event"
    },
    {
      "inputs": [
        {
          "internalType": "address",
          "name": "_newCandidate",
          "type": "address"
        },
        {
          "internalType": "uint256",
          "name": "_id",
          "type": "uint256"
        }
      ],
      "name": "AddCandidate",
      "outputs": [],
      "stateMutability": "nonpayable",
      "type": "function"
    },
    {
      "inputs": [
        {
          "internalType": "uint256",
          "name": "_id",
          "type": "uint256"
        }
      ],
      "name": "AllCandidates",
      "outputs": [
        {
          "internalType": "address[]",
          "name": "_candidates",
          "type": "address[]"
        }
      ],
      "stateMutability": "view",
      "type": "function"
    },
    {
      "inputs": [
        {
          "internalType": "uint256",
          "name": "_id",
          "type": "uint256"
        }
      ],
      "name": "NoOfRegisteredCandidates",
      "outputs": [
        {
          "internalType": "uint256",
          "name": "",
          "type": "uint256"
        }
      ],
      "stateMutability": "view",
      "type": "function"
    },
    {
      "inputs": [
        {
          "internalType": "uint256",
          "name": "",
          "type": "uint256"
        }
      ],
      "name": "VotingKey",
      "outputs": [
        {
          "internalType": "string",
          "name": "name",
          "type": "string"
        },
        {
          "internalType": "address",
          "name": "chairman",
          "type": "address"
        },
        {
          "internalType": "uint32",
          "name": "maxNoOfCandidates",
          "type": "uint32"
        },
        {
          "internalType": "uint32",
          "name": "currentNoOfCandidates",
          "type": "uint32"
        },
        {
          "internalType": "bool",
          "name": "voting",
          "type": "bool"
        }
      ],
      "stateMutability": "view",
      "type": "function"
    },
    {
      "inputs": [
        {
          "internalType": "string",
          "name": "_name",
          "type": "string"
        },
        {
          "internalType": "uint32",
          "name": "ExpectedNoOfCandidate",
          "type": "uint32"
        }
      ],
      "name": "createPoll",
      "outputs": [
        {
          "components": [
            {
              "internalType": "string",
              "name": "name",
              "type": "string"
            },
            {
              "internalType": "address",
              "name": "chairman",
              "type": "address"
            },
            {
              "internalType": "address[]",
              "name": "candidates",
              "type": "address[]"
            },
            {
              "internalType": "uint32",
              "name": "maxNoOfCandidates",
              "type": "uint32"
            },
            {
              "internalType": "uint32",
              "name": "currentNoOfCandidates",
              "type": "uint32"
            },
            {
              "internalType": "bool",
              "name": "voting",
              "type": "bool"
            }
          ],
          "internalType": "struct Voting.VotingPoll[]",
          "name": "",
          "type": "tuple[]"
        }
      ],
      "stateMutability": "nonpayable",
      "type": "function"
    },
    {
      "inputs": [],
      "name": "getStructProps",
      "outputs": [
        {
          "components": [
            {
              "internalType": "string",
              "name": "name",
              "type": "string"
            },
            {
              "internalType": "address",
              "name": "chairman",
              "type": "address"
            },
            {
              "internalType": "address[]",
              "name": "candidates",
              "type": "address[]"
            },
            {
              "internalType": "uint32",
              "name": "maxNoOfCandidates",
              "type": "uint32"
            },
            {
              "internalType": "uint32",
              "name": "currentNoOfCandidates",
              "type": "uint32"
            },
            {
              "internalType": "bool",
              "name": "voting",
              "type": "bool"
            }
          ],
          "internalType": "struct Voting.VotingPoll[]",
          "name": "RVP",
          "type": "tuple[]"
        }
      ],
      "stateMutability": "view",
      "type": "function"
    },
    {
      "inputs": [
        {
          "internalType": "address",
          "name": "Cand",
          "type": "address"
        },
        {
          "internalType": "uint256",
          "name": "_id",
          "type": "uint256"
        },
        {
          "internalType": "uint256",
          "name": "nonce",
          "type": "uint256"
        },
        {
          "internalType": "uint256",
          "name": "time",
          "type": "uint256"
        }
      ],
      "name": "metaVotingHash",
      "outputs": [
        {
          "internalType": "bytes32",
          "name": "",
          "type": "bytes32"
        }
      ],
      "stateMutability": "view",
      "type": "function"
    },
    {
      "inputs": [
        {
          "internalType": "address",
          "name": "",
          "type": "address"
        }
      ],
      "name": "replayNonce",
      "outputs": [
        {
          "internalType": "uint256",
          "name": "",
          "type": "uint256"
        }
      ],
      "stateMutability": "view",
      "type": "function"
    },
    {
      "inputs": [
        {
          "internalType": "uint256",
          "name": "_id",
          "type": "uint256"
        }
      ],
      "name": "revealWinner",
      "outputs": [
        {
          "internalType": "uint256[]",
          "name": "CV",
          "type": "uint256[]"
        },
        {
          "internalType": "address",
          "name": "",
          "type": "address"
        },
        {
          "internalType": "uint256",
          "name": "",
          "type": "uint256"
        }
      ],
      "stateMutability": "view",
      "type": "function"
    },
    {
      "inputs": [
        {
          "internalType": "uint256",
          "name": "_id",
          "type": "uint256"
        }
      ],
      "name": "setVotingState",
      "outputs": [],
      "stateMutability": "nonpayable",
      "type": "function"
    },
    {
      "inputs": [
        {
          "internalType": "address",
          "name": "Cand",
          "type": "address"
        },
        {
          "internalType": "uint256",
          "name": "_id",
          "type": "uint256"
        },
        {
          "internalType": "uint256",
          "name": "nonce",
          "type": "uint256"
        },
        {
          "internalType": "bytes",
          "name": "signature",
          "type": "bytes"
        }
      ],
      "name": "vote",
      "outputs": [],
      "stateMutability": "nonpayable",
      "type": "function"
    },
    {
      "inputs": [
        {
          "internalType": "uint256",
          "name": "",
          "type": "uint256"
        }
      ],
      "name": "votingPoll",
      "outputs": [
        {
          "internalType": "string",
          "name": "name",
          "type": "string"
        },
        {
          "internalType": "address",
          "name": "chairman",
          "type": "address"
        },
        {
          "internalType": "uint32",
          "name": "maxNoOfCandidates",
          "type": "uint32"
        },
        {
          "internalType": "uint32",
          "name": "currentNoOfCandidates",
          "type": "uint32"
        },
        {
          "internalType": "bool",
          "name": "voting",
          "type": "bool"
        }
      ],
      "stateMutability": "view",
      "type": "function"
    }
  ],
  "bytecode": {
    "object": "0x6080604052600160005534801561001557600080fd5b506118ca806100256000396000f3fe608060405234801561001057600080fd5b50600436106100b45760003560e01c8063bfe2e25d11610071578063bfe2e25d14610197578063c10d6cec146101aa578063c57003cc146101bd578063e615f104146101d0578063f762f4c0146101e3578063f84370611461020357600080fd5b8063049d1c8b146100b957806366c5343b146100ce57806367d407df146101115780638ac3c3c2146101315780638ccb59e814610151578063ae928e3e14610173575b600080fd5b6100cc6100c7366004611336565b61020b565b005b6100fe6100dc366004611360565b600090815260026020526040902060030154600160201b900463ffffffff1690565b6040519081526020015b60405180910390f35b6100fe61011f366004611379565b60036020526000908152604090205481565b61014461013f366004611360565b6103e3565b604051610108919061139b565b61016461015f366004611360565b610453565b604051610108939291906113e8565b610186610181366004611360565b6105de565b60405161010895949392919061149a565b6100fe6101a53660046114e3565b6106c5565b6100cc6101b83660046115a8565b61074d565b6100cc6101cb366004611360565b61097e565b6101866101de366004611360565b610a38565b6101f66101f136600461161d565b610a53565b604051610108919061168c565b6101f6610dad565b600081815260026020526040902060018101546001600160a01b031661026f5760405162461bcd60e51b81526020600482015260146024820152731e595d081d1bc818dc99585d194818481c1bdb1b60621b60448201526064015b60405180910390fd5b60018101546001600160a01b0316331461028b5761028b611797565b600381015463ffffffff808216600160201b90920416106103055760405162461bcd60e51b815260206004820152602e60248201527f6d6178696d756d206e6f206f662063616e64696461746520706572207365737360448201526d1a5bdb881c9959da5cdd195c995960921b6064820152608401610266565b60008281526004602081815260408084206001600160a01b038816808652908352908420805460ff1916600190811790915560028601805491820181558552919093200180546001600160a01b03191690921790915560038201805463ffffffff600160201b9091041691610379836117c3565b91906101000a81548163ffffffff021916908363ffffffff160217905550507fc19c59aa93348e8fc54764bc642eca975e2639f44cc683ef8f027e1529cbda32836040516103d691906001600160a01b0391909116815260200190565b60405180910390a1505050565b60008181526002602081815260409283902091820180548451818402810184019095528085526060949283018282801561044657602002820191906000526020600020905b81546001600160a01b03168152600190910190602001808311610428575b5050505050915050919050565b600081815260026020526040812060018101546060929182916001600160a01b03166104b35760405162461bcd60e51b815260206004820152600f60248201526e139bc81c1bdb1b0818dc99585d1959608a1b6044820152606401610266565b600281015467ffffffffffffffff8111156104d0576104d061151c565b6040519080825280602002602001820160405280156104f9578160200160208202803683370190505b50935060008060005b600284015481116105d15760006105198983610fd5565b9050838111156105535780935084600201828154811061053b5761053b6117e7565b6000918252602090912001546001600160a01b031692505b60008981526005602052604081206002870180549192918590811061057a5761057a6117e7565b60009182526020808320909101546001600160a01b0316835282019290925260400190205488518990849081106105b3576105b36117e7565b602090810291909101015250806105c9816117fd565b915050610502565b5093509150509193909250565b600181815481106105ee57600080fd5b906000526020600020906004020160009150905080600001805461061190611818565b80601f016020809104026020016040519081016040528092919081815260200182805461063d90611818565b801561068a5780601f1061065f5761010080835404028352916020019161068a565b820191906000526020600020905b81548152906001019060200180831161066d57829003601f168201915b50505050600183015460039093015491926001600160a01b03169163ffffffff8082169250600160201b82041690600160401b900460ff1685565b6040516bffffffffffffffffffffffff1930606090811b821660208401527f6d6574617472616e73616374696f6e20566f74696e6720000000000000000000603484015286901b16604b820152605f8101849052607f8101839052609f810182905260009060bf01604051602081830303815290604052805190602001209050949350505050565b60008381526004602090815260408083206001600160a01b03881684529091529020548490849060ff1615156001146107db5760405162461bcd60e51b815260206004820152602a60248201527f54686973206164647265737320646f6573206e6f7420657869737420617320616044820152692063616e64696461746560b01b6064820152608401610266565b60008581526002602052604090206003810154869190600160401b900460ff16151560011461083f5760405162461bcd60e51b815260206004820152601060248201526f1d9bdd1a5b99c81a185cc8195b99195960821b6044820152606401610266565b600061084d898989426106c5565b9050600061085b8288611035565b90506001600160a01b03811661087057600080fd5b6001600160a01b038116600090815260036020526040902054881461089457600080fd5b6001600160a01b03811660009081526003602052604081208054916108b8836117fd565b909155505060008981526006602090815260408083206001600160a01b038516845290915290205460ff16156109245760405162461bcd60e51b8152602060048201526011602482015270165bdd48185b1c9958591e481d9bdd1959607a1b6044820152606401610266565b61092f8a8a8361114d565b50604080516001600160a01b038c168152600160208201527ff3f16a15f074b71c5138107dfc7c63b80524d5411cb967caa97d8d9f12b2fd6b910160405180910390a150505050505050505050565b600081815260026020526040902060018101546001600160a01b031633146109db5760405162461bcd60e51b815260206004820152601060248201526f3737ba103a34329031b430b4b936b0b760811b6044820152606401610266565b60038101805460ff600160401b808304821615810260ff60401b199093169290921792839055604051919092049091161515907f7b224db641892626dca6975b376f464e9ac52ccfa180436175170c009b94dcd790600090a25050565b60026020526000908152604090208054819061061190611818565b6000805481526002602090815260409091208351606092610a789183918701906111cb565b50600180820180546001600160a01b0319163317905560038201805463ffffffff861663ffffffff1990911617905580548082018255600091909152815482916004027fb10e2d527612073b26eecdfd717e6a320cf44b4afac2b0732d9fcbe2b7fa0cf6019081908390610aeb90611818565b610af692919061124b565b5060018281015490820180546001600160a01b0319166001600160a01b0390921691909117905560028083018054610b3192840191906112c6565b506003918201805491909201805463ffffffff92831663ffffffff19821681178355845467ffffffffffffffff1990921617600160201b918290049093160291909117808255915460ff60401b19909216600160401b9283900460ff161515909202919091179055600080549080610ba8836117fd565b9091555050600181015460038201546040516001600160a01b039092169163ffffffff90911690610bda908790611853565b604051908190038120907f4b35e5cf01446aa899a8d21082ebf23b7497d38f2466ad49836bd1006a8d059e90600090a46001805480602002602001604051908101604052809291908181526020016000905b82821015610d9f57838290600052602060002090600402016040518060c0016040529081600082018054610c5f90611818565b80601f0160208091040260200160405190810160405280929190818152602001828054610c8b90611818565b8015610cd85780601f10610cad57610100808354040283529160200191610cd8565b820191906000526020600020905b815481529060010190602001808311610cbb57829003601f168201915b505050918352505060018201546001600160a01b03166020808301919091526002830180546040805182850281018501825282815294019392830182828015610d4a57602002820191906000526020600020905b81546001600160a01b03168152600190910190602001808311610d2c575b50505091835250506003919091015463ffffffff808216602080850191909152600160201b83049091166040840152600160401b90910460ff1615156060909201919091529082526001929092019101610c2c565b505050509150505b92915050565b60015460609067ffffffffffffffff811115610dcb57610dcb61151c565b604051908082528060200260200182016040528015610e2c57816020015b6040805160c0810182526060808252600060208084018290529383018290529082018190526080820181905260a08201528252600019909201910181610de95790505b50905060005b6001548111610fd157600060028183610e4a816117fd565b945081526020019081526020016000209050806040518060c0016040529081600082018054610e7890611818565b80601f0160208091040260200160405190810160405280929190818152602001828054610ea490611818565b8015610ef15780601f10610ec657610100808354040283529160200191610ef1565b820191906000526020600020905b815481529060010190602001808311610ed457829003601f168201915b505050918352505060018201546001600160a01b03166020808301919091526002830180546040805182850281018501825282815294019392830182828015610f6357602002820191906000526020600020905b81546001600160a01b03168152600190910190602001808311610f45575b50505091835250506003919091015463ffffffff8082166020840152600160201b8204166040830152600160401b900460ff1615156060909101528351849084908110610fb257610fb26117e7565b6020026020010181905250508080610fc9906117fd565b915050610e32565b5090565b600082815260026020818152604080842060059092528320918101805491929184919086908110611008576110086117e7565b60009182526020808320909101546001600160a01b03168352820192909252604001902054949350505050565b60008060008084516041146110505760009350505050610da7565b50505060208201516040830151606084015160001a601b81101561107c57611079601b8261186f565b90505b8060ff16601b1415801561109457508060ff16601c14155b156110a55760009350505050610da7565b6040517f19457468657265756d205369676e6564204d6573736167653a0a3332000000006020820152603c8101879052600190605c0160408051601f198184030181528282528051602091820120600084529083018083525260ff841690820152606081018590526080810184905260a0016020604051602081039080840390855afa158015611139573d6000803e3d6000fd5b505050602060405103519350505050610da7565b60008281526006602090815260408083206001600160a01b038086168552908352818420805460ff1916600117905585845260058352818420908716845290915281208054908261119d836117fd565b9091555050506000918252506005602090815260408083206001600160a01b03949094168352929052205490565b8280546111d790611818565b90600052602060002090601f0160209004810192826111f9576000855561123f565b82601f1061121257805160ff191683800117855561123f565b8280016001018555821561123f579182015b8281111561123f578251825591602001919060010190611224565b50610fd1929150611305565b82805461125790611818565b90600052602060002090601f016020900481019282611279576000855561123f565b82601f1061128a578054855561123f565b8280016001018555821561123f57600052602060002091601f016020900482015b8281111561123f5782548255916001019190600101906112ab565b82805482825590600052602060002090810192821561123f5760005260206000209182018281111561123f5782548255916001019190600101906112ab565b5b80821115610fd15760008155600101611306565b80356001600160a01b038116811461133157600080fd5b919050565b6000806040838503121561134957600080fd5b6113528361131a565b946020939093013593505050565b60006020828403121561137257600080fd5b5035919050565b60006020828403121561138b57600080fd5b6113948261131a565b9392505050565b6020808252825182820181905260009190848201906040850190845b818110156113dc5783516001600160a01b0316835292840192918401916001016113b7565b50909695505050505050565b606080825284519082018190526000906020906080840190828801845b8281101561142157815184529284019290840190600101611405565b5050506001600160a01b0395909516908301525060400152919050565b60005b83811015611459578181015183820152602001611441565b83811115611468576000848401525b50505050565b6000815180845261148681602086016020860161143e565b601f01601f19169290920160200192915050565b60a0815260006114ad60a083018861146e565b6001600160a01b039690961660208301525063ffffffff9384166040820152919092166060820152901515608090910152919050565b600080600080608085870312156114f957600080fd5b6115028561131a565b966020860135965060408601359560600135945092505050565b634e487b7160e01b600052604160045260246000fd5b600067ffffffffffffffff8084111561154d5761154d61151c565b604051601f8501601f19908116603f011681019082821181831017156115755761157561151c565b8160405280935085815286868601111561158e57600080fd5b858560208301376000602087830101525050509392505050565b600080600080608085870312156115be57600080fd5b6115c78561131a565b93506020850135925060408501359150606085013567ffffffffffffffff8111156115f157600080fd5b8501601f8101871361160257600080fd5b61161187823560208401611532565b91505092959194509250565b6000806040838503121561163057600080fd5b823567ffffffffffffffff81111561164757600080fd5b8301601f8101851361165857600080fd5b61166785823560208401611532565b925050602083013563ffffffff8116811461168157600080fd5b809150509250929050565b60006020808301818452808551808352604092508286019150828160051b8701018488016000805b8481101561178857603f198a8503018652825160c081518187526116da8288018261146e565b838c01516001600160a01b03908116898e01528b8501518983038d8b01528051808452908e01945087935090918d01905b8084101561172d57845183168252938d019360019390930192908d019061170b565b5060609350838501519250611749848a018463ffffffff169052565b60809350838501519250611764848a018463ffffffff169052565b60a094850151151598909401979097525050958801959350918701916001016116b4565b50919998505050505050505050565b634e487b7160e01b600052600160045260246000fd5b634e487b7160e01b600052601160045260246000fd5b600063ffffffff808316818114156117dd576117dd6117ad565b6001019392505050565b634e487b7160e01b600052603260045260246000fd5b6000600019821415611811576118116117ad565b5060010190565b600181811c9082168061182c57607f821691505b6020821081141561184d57634e487b7160e01b600052602260045260246000fd5b50919050565b6000825161186581846020870161143e565b9190910192915050565b600060ff821660ff84168060ff0382111561188c5761188c6117ad565b01939250505056fea2646970667358221220f2a6b7c171ff7c2cd17b675524d7cd7fdcd50a159f7da3dbbab4e0f33eee650a64736f6c634300080a0033",
    "linkReferences": {}
  }
}