{
  "abi": [
    {
      "inputs": [
        {
          "internalType": "address",
          "name": "_chairman",
          "type": "address"
        },
        {
          "internalType": "uint256",
          "name": "_maxCandidate",
          "type": "uint256"
        }
      ],
      "stateMutability": "nonpayable",
      "type": "constructor"
    },
    {
      "anonymous": false,
      "inputs": [
        {
          "indexed": false,
          "internalType": "address",
          "name": "NewCandidate",
          "type": "address"
        }
      ],
      "name": "becameCandidate",
      "type": "event"
    },
    {
      "anonymous": false,
      "inputs": [
        {
          "indexed": false,
          "internalType": "bool",
          "name": "success",
          "type": "bool"
        }
      ],
      "name": "registeredAsVoter",
      "type": "event"
    },
    {
      "anonymous": false,
      "inputs": [
        {
          "indexed": false,
          "internalType": "address",
          "name": "_candidate",
          "type": "address"
        },
        {
          "indexed": false,
          "internalType": "bool",
          "name": "status",
          "type": "bool"
        }
      ],
      "name": "voted",
      "type": "event"
    },
    {
      "inputs": [
        {
          "internalType": "address",
          "name": "_newCandidate",
          "type": "address"
        }
      ],
      "name": "AddCandidate",
      "outputs": [],
      "stateMutability": "nonpayable",
      "type": "function"
    },
    {
      "inputs": [],
      "name": "AllCandidates",
      "outputs": [
        {
          "internalType": "address[]",
          "name": "_candidates",
          "type": "address[]"
        }
      ],
      "stateMutability": "view",
      "type": "function"
    },
    {
      "inputs": [
        {
          "internalType": "address",
          "name": "",
          "type": "address"
        }
      ],
      "name": "CandidateStatus",
      "outputs": [
        {
          "internalType": "bool",
          "name": "",
          "type": "bool"
        }
      ],
      "stateMutability": "view",
      "type": "function"
    },
    {
      "inputs": [
        {
          "internalType": "address",
          "name": "",
          "type": "address"
        }
      ],
      "name": "CandidateVote",
      "outputs": [
        {
          "internalType": "uint256",
          "name": "voteCount",
          "type": "uint256"
        }
      ],
      "stateMutability": "view",
      "type": "function"
    },
    {
      "inputs": [
        {
          "internalType": "uint256",
          "name": "",
          "type": "uint256"
        }
      ],
      "name": "Candidates",
      "outputs": [
        {
          "internalType": "address",
          "name": "",
          "type": "address"
        }
      ],
      "stateMutability": "view",
      "type": "function"
    },
    {
      "inputs": [],
      "name": "NoOfRegisteredCandidates",
      "outputs": [
        {
          "internalType": "uint256",
          "name": "",
          "type": "uint256"
        }
      ],
      "stateMutability": "view",
      "type": "function"
    },
    {
      "inputs": [
        {
          "internalType": "address",
          "name": "",
          "type": "address"
        }
      ],
      "name": "ParticipantStatus",
      "outputs": [
        {
          "internalType": "bool",
          "name": "",
          "type": "bool"
        }
      ],
      "stateMutability": "view",
      "type": "function"
    },
    {
      "inputs": [],
      "name": "createId",
      "outputs": [],
      "stateMutability": "payable",
      "type": "function"
    },
    {
      "inputs": [],
      "name": "regFee",
      "outputs": [
        {
          "internalType": "uint256",
          "name": "",
          "type": "uint256"
        }
      ],
      "stateMutability": "view",
      "type": "function"
    },
    {
      "inputs": [],
      "name": "revealWinner",
      "outputs": [
        {
          "components": [
            {
              "internalType": "uint256",
              "name": "voteCount",
              "type": "uint256"
            }
          ],
          "internalType": "struct Voting.Candidate[]",
          "name": "CV",
          "type": "tuple[]"
        },
        {
          "internalType": "address",
          "name": "",
          "type": "address"
        },
        {
          "internalType": "uint256",
          "name": "",
          "type": "uint256"
        }
      ],
      "stateMutability": "view",
      "type": "function"
    },
    {
      "inputs": [
        {
          "internalType": "address",
          "name": "Cand",
          "type": "address"
        }
      ],
      "name": "vote",
      "outputs": [],
      "stateMutability": "nonpayable",
      "type": "function"
    },
    {
      "inputs": [],
      "name": "withdawFees",
      "outputs": [],
      "stateMutability": "payable",
      "type": "function"
    }
  ],
  "bytecode": {
    "object": "0x60806040526801158e460913d000006000556f1e17b84357691b6403d0da800000000060015534801561003157600080fd5b50604051610d09380380610d098339810160408190526100509161009d565b6002805463ffffffff909216600160c01b027fffffffff00000000ffffffff00000000000000000000000000000000000000009092166001600160a01b03909316929092171790556100d7565b600080604083850312156100b057600080fd5b82516001600160a01b03811681146100c757600080fd5b6020939093015192949293505050565b610c23806100e66000396000f3fe6080604052600436106100a75760003560e01c80638fff20f3116100645780638fff20f3146101b0578063909a1d6c146101c6578063a4fe1038146101ce578063e964359a1461020e578063f0f868ed14610230578063f51c0b811461026057600080fd5b8063054648b2146100ac5780631231f78e146100ce578063290e9212146100f95780636c699905146101315780636dd7d8ea146101555780637e20f05414610175575b600080fd5b3480156100b857600080fd5b506100cc6100c7366004610a50565b610268565b005b3480156100da57600080fd5b506100e36104b9565b6040516100f09190610a80565b60405180910390f35b34801561010557600080fd5b50610119610114366004610acd565b61051b565b6040516001600160a01b0390911681526020016100f0565b34801561013d57600080fd5b50610146610545565b6040516100f093929190610ae6565b34801561016157600080fd5b506100cc610170366004610a50565b6106ee565b34801561018157600080fd5b506101a2610190366004610a50565b60046020526000908152604090205481565b6040519081526020016100f0565b3480156101bc57600080fd5b506101a260015481565b6100cc6108a8565b3480156101da57600080fd5b506101fe6101e9366004610a50565b60066020526000908152604090205460ff1681565b60405190151581526020016100f0565b34801561021a57600080fd5b50600254600160a01b900463ffffffff166101a2565b34801561023c57600080fd5b506101fe61024b366004610a50565b60056020526000908152604090205460ff1681565b6100cc6109d7565b6001600160a01b038116600090815260056020526040902054819060ff1615156001146103025760405162461bcd60e51b815260206004820152603760248201527f7468697320706572736f6e20686173206e6f742072656769737465726564206160448201527f732061207061727469636970616e7420746f20766f746500000000000000000060648201526084015b60405180910390fd5b6002546001600160a01b0316331461034f5760405162461bcd60e51b815260206004820152601060248201526f3737ba103a34329031b430b4b936b0b760811b60448201526064016102f9565b60025463ffffffff600160c01b82048116600160a01b90920416106103cd5760405162461bcd60e51b815260206004820152602e60248201527f6d6178696d756d206e6f206f662063616e64696461746520706572207365737360448201526d1a5bdb881c9959da5cdd195c995960921b60648201526084016102f9565b6001600160a01b0382166000818152600660205260408120805460ff191660019081179091556003805491820181559091527fc2575a0e9e593c00f959f8c92f12db2869c3395a3b0502d05e2516446f71f85b0180546001600160a01b03191690911790556002805463ffffffff600160a01b9091041690601461045083610b53565b91906101000a81548163ffffffff021916908363ffffffff160217905550507fc19c59aa93348e8fc54764bc642eca975e2639f44cc683ef8f027e1529cbda32826040516104ad91906001600160a01b0391909116815260200190565b60405180910390a15050565b6060600380548060200260200160405190810160405280929190818152602001828054801561051157602002820191906000526020600020905b81546001600160a01b031681526001909101906020018083116104f3575b5050505050905090565b6003818154811061052b57600080fd5b6000918252602090912001546001600160a01b0316905081565b606060008060038054905067ffffffffffffffff81111561056857610568610b77565b6040519080825280602002602001820160405280156105a857816020015b6040805160208101909152600081528152602001906001900390816105865790505b50925060008060005b60035481116106e4578260046000600384815481106105d2576105d2610b8d565b60009182526020808320909101546001600160a01b03168352820192909252604001902054111561066957600460006003838154811061061457610614610b8d565b60009182526020808320909101546001600160a01b0316835282019290925260400190205460038054919450908290811061065157610651610b8d565b6000918252602090912001546001600160a01b031691505b600460006003838154811061068057610680610b8d565b60009182526020808320909101546001600160a01b031683528281019390935260409182019020815192830190915254815286518790839081106106c6576106c6610b8d565b602002602001018190525080806106dc90610ba3565b9150506105b1565b5093949092509050565b6001600160a01b038116600090815260066020526040902054819060ff1615156001146107705760405162461bcd60e51b815260206004820152602a60248201527f54686973206164647265737320646f6573206e6f7420657869737420617320616044820152692063616e64696461746560b01b60648201526084016102f9565b3360009081526005602052604090205460ff1615156001146107d45760405162461bcd60e51b815260206004820152601760248201527f6e6f7420612072656769737465726564206d656d62657200000000000000000060448201526064016102f9565b3360009081526007602052604090205460ff16156108285760405162461bcd60e51b8152602060048201526011602482015270165bdd48185b1c9958591e481d9bdd1959607a1b60448201526064016102f9565b336000908152600760209081526040808320805460ff191660011790556001600160a01b03851683526004909152812080549161086483610ba3565b9091555050604080516001600160a01b0384168152600160208201527ff3f16a15f074b71c5138107dfc7c63b80524d5411cb967caa97d8d9f12b2fd6b91016104ad565b6001543410156109195760405162461bcd60e51b815260206004820152603660248201527f7061796d656e74206973206c657373207468616e2074686520726571756972656044820152756420726567697374726174696f6e206665652066656560501b60648201526084016102f9565b3360009081526005602052604090205460ff16156109795760405162461bcd60e51b815260206004820152601b60248201527f796f752061726520612072656769737465726564206d656d626572000000000060448201526064016102f9565b336000908152600560205280546001546109939034610bbe565b61099d9190610bd5565b905080156109d457604051339082156108fc029083906000818181858888f193505050501580156109d2573d6000803e3d6000fd5b505b50565b6002546001600160a01b03163314610a245760405162461bcd60e51b815260206004820152601060248201526f3737ba103a34329031b430b4b936b0b760811b60448201526064016102f9565b60405133904780156108fc02916000818181858888f193505050501580156109d4573d6000803e3d6000fd5b600060208284031215610a6257600080fd5b81356001600160a01b0381168114610a7957600080fd5b9392505050565b6020808252825182820181905260009190848201906040850190845b81811015610ac15783516001600160a01b031683529284019291840191600101610a9c565b50909695505050505050565b600060208284031215610adf57600080fd5b5035919050565b606080825284519082018190526000906020906080840190828801845b82811015610b205781515184529284019290840190600101610b03565b5050506001600160a01b0395909516908301525060400152919050565b634e487b7160e01b600052601160045260246000fd5b600063ffffffff80831681811415610b6d57610b6d610b3d565b6001019392505050565b634e487b7160e01b600052604160045260246000fd5b634e487b7160e01b600052603260045260246000fd5b6000600019821415610bb757610bb7610b3d565b5060010190565b600082821015610bd057610bd0610b3d565b500390565b60008219821115610be857610be8610b3d565b50019056fea2646970667358221220aa99299fdf5882fe82c853e83b1c8e0541a3b6ab33348658c91ee44b3ddb198c64736f6c634300080a0033",
    "linkReferences": {}
  }
}