{
  "abi": [
    {
      "anonymous": false,
      "inputs": [
        {
          "indexed": false,
          "internalType": "address",
          "name": "NewCandidate",
          "type": "address"
        }
      ],
      "name": "becameCandidate",
      "type": "event"
    },
    {
      "anonymous": false,
      "inputs": [
        {
          "indexed": true,
          "internalType": "string",
          "name": "_name",
          "type": "string"
        },
        {
          "indexed": true,
          "internalType": "uint32",
          "name": "ExpectedNoOfCandidate",
          "type": "uint32"
        },
        {
          "indexed": true,
          "internalType": "address",
          "name": "chairman",
          "type": "address"
        }
      ],
      "name": "pollCreated",
      "type": "event"
    },
    {
      "anonymous": false,
      "inputs": [
        {
          "indexed": true,
          "internalType": "bool",
          "name": "status",
          "type": "bool"
        }
      ],
      "name": "voteStatus",
      "type": "event"
    },
    {
      "anonymous": false,
      "inputs": [
        {
          "indexed": false,
          "internalType": "address",
          "name": "_candidate",
          "type": "address"
        },
        {
          "indexed": false,
          "internalType": "bool",
          "name": "status",
          "type": "bool"
        }
      ],
      "name": "voted",
      "type": "event"
    },
    {
      "inputs": [
        {
          "internalType": "address",
          "name": "_newCandidate",
          "type": "address"
        },
        {
          "internalType": "string",
          "name": "_name",
          "type": "string"
        }
      ],
      "name": "AddCandidate",
      "outputs": [],
      "stateMutability": "nonpayable",
      "type": "function"
    },
    {
      "inputs": [
        {
          "internalType": "string",
          "name": "_name",
          "type": "string"
        }
      ],
      "name": "AllCandidates",
      "outputs": [
        {
          "internalType": "address[]",
          "name": "_candidates",
          "type": "address[]"
        }
      ],
      "stateMutability": "view",
      "type": "function"
    },
    {
      "inputs": [
        {
          "internalType": "string",
          "name": "_name",
          "type": "string"
        }
      ],
      "name": "NoOfRegisteredCandidates",
      "outputs": [
        {
          "internalType": "uint256",
          "name": "",
          "type": "uint256"
        }
      ],
      "stateMutability": "view",
      "type": "function"
    },
    {
      "inputs": [
        {
          "internalType": "string",
          "name": "_name",
          "type": "string"
        },
        {
          "internalType": "uint32",
          "name": "ExpectedNoOfCandidate",
          "type": "uint32"
        }
      ],
      "name": "createPoll",
      "outputs": [
        {
          "internalType": "string",
          "name": "",
          "type": "string"
        },
        {
          "internalType": "uint256",
          "name": "Candidate",
          "type": "uint256"
        }
      ],
      "stateMutability": "nonpayable",
      "type": "function"
    },
    {
      "inputs": [
        {
          "internalType": "address",
          "name": "Cand",
          "type": "address"
        },
        {
          "internalType": "string",
          "name": "_name",
          "type": "string"
        },
        {
          "internalType": "uint256",
          "name": "nonce",
          "type": "uint256"
        },
        {
          "internalType": "uint256",
          "name": "time",
          "type": "uint256"
        }
      ],
      "name": "metaVotingHash",
      "outputs": [
        {
          "internalType": "bytes32",
          "name": "",
          "type": "bytes32"
        }
      ],
      "stateMutability": "view",
      "type": "function"
    },
    {
      "inputs": [
        {
          "internalType": "address",
          "name": "",
          "type": "address"
        }
      ],
      "name": "replayNonce",
      "outputs": [
        {
          "internalType": "uint256",
          "name": "",
          "type": "uint256"
        }
      ],
      "stateMutability": "view",
      "type": "function"
    },
    {
      "inputs": [
        {
          "internalType": "string",
          "name": "_name",
          "type": "string"
        }
      ],
      "name": "revealWinner",
      "outputs": [
        {
          "internalType": "uint256[]",
          "name": "CV",
          "type": "uint256[]"
        },
        {
          "internalType": "address",
          "name": "",
          "type": "address"
        },
        {
          "internalType": "uint256",
          "name": "",
          "type": "uint256"
        }
      ],
      "stateMutability": "view",
      "type": "function"
    },
    {
      "inputs": [
        {
          "internalType": "string",
          "name": "_name",
          "type": "string"
        }
      ],
      "name": "setVotingState",
      "outputs": [],
      "stateMutability": "nonpayable",
      "type": "function"
    },
    {
      "inputs": [
        {
          "internalType": "address",
          "name": "Cand",
          "type": "address"
        },
        {
          "internalType": "string",
          "name": "_name",
          "type": "string"
        },
        {
          "internalType": "uint256",
          "name": "nonce",
          "type": "uint256"
        },
        {
          "internalType": "bytes",
          "name": "signature",
          "type": "bytes"
        }
      ],
      "name": "vote",
      "outputs": [],
      "stateMutability": "nonpayable",
      "type": "function"
    },
    {
      "inputs": [
        {
          "internalType": "string",
          "name": "",
          "type": "string"
        }
      ],
      "name": "votingPoll",
      "outputs": [
        {
          "internalType": "address",
          "name": "chairman",
          "type": "address"
        },
        {
          "internalType": "uint32",
          "name": "maxNoOfCandidates",
          "type": "uint32"
        },
        {
          "internalType": "uint32",
          "name": "currentNoOfCandidates",
          "type": "uint32"
        },
        {
          "internalType": "bool",
          "name": "voting",
          "type": "bool"
        }
      ],
      "stateMutability": "view",
      "type": "function"
    }
  ],
  "bytecode": {
    "object": "0x608060405234801561001057600080fd5b506111bc806100206000396000f3fe608060405234801561001057600080fd5b506004361061009e5760003560e01c806367d407df1161006657806367d407df146101a35780638579cacd146101c3578063af7cbc0d146101d6578063f0e4de22146101f6578063f762f4c01461020957600080fd5b806301ff993b146100a357806312f0da4b146100c95780634fcf1f39146100de57806357f539671461010057806363ee965a14610113575b600080fd5b6100b66100b1366004610d4d565b61022a565b6040519081526020015b60405180910390f35b6100dc6100d7366004610dab565b610265565b005b6100f16100ec366004610e3d565b6104df565b6040516100c093929190610e7a565b6100dc61010e366004610ed0565b61066f565b61016d610121366004610e3d565b80516020818301810180516000825292820191909301209152805460028201546006909201546001600160a01b039091169163ffffffff80821692640100000000909204169060ff1684565b604080516001600160a01b0395909516855263ffffffff93841660208601529190921690830152151560608201526080016100c0565b6100b66101b1366004610f1e565b60016020526000908152604090205481565b6100b66101d1366004610e3d565b610849565b6101e96101e4366004610e3d565b610885565b6040516100c09190610f39565b6100dc610204366004610e3d565b61090d565b61021c610217366004610f86565b6109c5565b6040516100c0929190611011565b6000308585858560405160200161024595949392919061104c565b604051602081830303815290604052805190602001209050949350505050565b83836000808260405161027891906110c4565b908152604080519182900360209081019092206001600160a01b03861660009081526003820190935291205490915060ff1615156001146103135760405162461bcd60e51b815260206004820152602a60248201527f54686973206164647265737320646f6573206e6f7420657869737420617320616044820152692063616e64696461746560b01b60648201526084015b60405180910390fd5b856000808260405161032591906110c4565b908152604051908190036020019020600681015490915060ff1615156001146103835760405162461bcd60e51b815260206004820152601060248201526f1d9bdd1a5b99c81a185cc8195b99195960821b604482015260640161030a565b60006103918a8a8a4261022a565b9050600061039f8289610a66565b90506001600160a01b0381166103b457600080fd5b6001600160a01b03811660009081526001602052604090205489146103d857600080fd5b6001600160a01b03811660009081526001602052604081208054916103fc836110f6565b91905055506000808b60405161041291906110c4565b90815260408051602092819003830190206001600160a01b03851660009081526004820190935291205490915060ff16156104835760405162461bcd60e51b8152602060048201526011602482015270165bdd48185b1c9958591e481d9bdd1959607a1b604482015260640161030a565b61048e8c8c84610b80565b50604080516001600160a01b038e168152600160208201527ff3f16a15f074b71c5138107dfc7c63b80524d5411cb967caa97d8d9f12b2fd6b910160405180910390a1505050505050505050505050565b6060600080600080856040516104f591906110c4565b90815260405190819003602001902080549091506001600160a01b03166105505760405162461bcd60e51b815260206004820152600f60248201526e139bc81c1bdb1b0818dc99585d1959608a1b604482015260640161030a565b600181015467ffffffffffffffff81111561056d5761056d610c9a565b604051908082528060200260200182016040528015610596578160200160208202803683370190505b50935060008060005b600184015481116106625760006105b68983610c13565b9050838111156105f0578093508460010182815481106105d8576105d8611111565b6000918252602090912001546001600160a01b031692505b84600501600086600101848154811061060b5761060b611111565b60009182526020808320909101546001600160a01b03168352820192909252604001902054885189908490811061064457610644611111565b6020908102919091010152508061065a816110f6565b91505061059f565b5093509150509193909250565b6000808260405161068091906110c4565b90815260405190819003602001902080549091506001600160a01b03166106e05760405162461bcd60e51b81526020600482015260146024820152731e595d081d1bc818dc99585d194818481c1bdb1b60621b604482015260640161030a565b80546001600160a01b031633146106f9576106f9611127565b600281015463ffffffff80821664010000000090920416106107745760405162461bcd60e51b815260206004820152602e60248201527f6d6178696d756d206e6f206f662063616e64696461746520706572207365737360448201526d1a5bdb881c9959da5cdd195c995960921b606482015260840161030a565b6001600160a01b038316600081815260038301602090815260408220805460ff1916600190811790915584810180549182018155835291200180546001600160a01b031916909117905560028101805463ffffffff640100000000909104169060046107df8361113d565b91906101000a81548163ffffffff021916908363ffffffff160217905550507fc19c59aa93348e8fc54764bc642eca975e2639f44cc683ef8f027e1529cbda328360405161083c91906001600160a01b0391909116815260200190565b60405180910390a1505050565b60008060008360405161085c91906110c4565b9081526040519081900360200190206002015463ffffffff640100000000909104169392505050565b60606000808360405161089891906110c4565b908152602001604051809103902090508060010180548060200260200160405190810160405280929190818152602001828054801561090057602002820191906000526020600020905b81546001600160a01b031681526001909101906020018083116108e2575b5050505050915050919050565b6000808260405161091e91906110c4565b90815260405190819003602001902080549091506001600160a01b0316331461097c5760405162461bcd60e51b815260206004820152601060248201526f3737ba103a34329031b430b4b936b0b760811b604482015260640161030a565b60068101805460ff19811660ff9182161590811790925560405191161515907f7b224db641892626dca6975b376f464e9ac52ccfa180436175170c009b94dcd790600090a25050565b60606000806000856040516109da91906110c4565b90815260405190819003602001812080546001600160a01b03191633908117825560028201805463ffffffff891663ffffffff19909116811790915591935091610a259088906110c4565b604051908190038120907f4b35e5cf01446aa899a8d21082ebf23b7497d38f2466ad49836bd1006a8d059e90600090a450929363ffffffff92909216925050565b6000806000808451604114610a815760009350505050610b7a565b50505060208201516040830151606084015160001a601b811015610aad57610aaa601b82611161565b90505b8060ff16601b14158015610ac557508060ff16601c14155b15610ad65760009350505050610b7a565b6040517f19457468657265756d205369676e6564204d6573736167653a0a3332000000006020820152603c8101879052600190605c0160408051601f198184030181528282528051602091820120600084529083018083525260ff841690820152606081018590526080810184905260a0016020604051602081039080840390855afa158015610b6a573d6000803e3d6000fd5b5050506020604051035193505050505b92915050565b600080600084604051610b9391906110c4565b908152604080519182900360209081019092206001600160a01b038087166000908152600483018552838120805460ff1916600117905590891681526005820190935290822080549193509091610be9836110f6565b90915550506001600160a01b03851660009081526005909101602052604090205490509392505050565b600080600084604051610c2691906110c4565b90815260200160405180910390209050806005016000826001018581548110610c5157610c51611111565b60009182526020808320909101546001600160a01b03168352820192909252604001902054949350505050565b80356001600160a01b0381168114610c9557600080fd5b919050565b634e487b7160e01b600052604160045260246000fd5b600067ffffffffffffffff80841115610ccb57610ccb610c9a565b604051601f8501601f19908116603f01168101908282118183101715610cf357610cf3610c9a565b81604052809350858152868686011115610d0c57600080fd5b858560208301376000602087830101525050509392505050565b600082601f830112610d3757600080fd5b610d4683833560208501610cb0565b9392505050565b60008060008060808587031215610d6357600080fd5b610d6c85610c7e565b9350602085013567ffffffffffffffff811115610d8857600080fd5b610d9487828801610d26565b949794965050505060408301359260600135919050565b60008060008060808587031215610dc157600080fd5b610dca85610c7e565b9350602085013567ffffffffffffffff80821115610de757600080fd5b610df388838901610d26565b9450604087013593506060870135915080821115610e1057600080fd5b508501601f81018713610e2257600080fd5b610e3187823560208401610cb0565b91505092959194509250565b600060208284031215610e4f57600080fd5b813567ffffffffffffffff811115610e6657600080fd5b610e7284828501610d26565b949350505050565b606080825284519082018190526000906020906080840190828801845b82811015610eb357815184529284019290840190600101610e97565b5050506001600160a01b0395909516908301525060400152919050565b60008060408385031215610ee357600080fd5b610eec83610c7e565b9150602083013567ffffffffffffffff811115610f0857600080fd5b610f1485828601610d26565b9150509250929050565b600060208284031215610f3057600080fd5b610d4682610c7e565b6020808252825182820181905260009190848201906040850190845b81811015610f7a5783516001600160a01b031683529284019291840191600101610f55565b50909695505050505050565b60008060408385031215610f9957600080fd5b823567ffffffffffffffff811115610fb057600080fd5b610fbc85828601610d26565b925050602083013563ffffffff81168114610fd657600080fd5b809150509250929050565b60005b83811015610ffc578181015183820152602001610fe4565b8381111561100b576000848401525b50505050565b6040815260008351806040840152611030816060850160208801610fe1565b602083019390935250601f91909101601f191601606001919050565b60006bffffffffffffffffffffffff19808860601b1683527f6d6574617472616e73616374696f6e20566f74696e67200000000000000000006014840152808760601b16602b8401525084516110a981603f850160208901610fe1565b909101603f81019390935250605f820152607f019392505050565b600082516110d6818460208701610fe1565b9190910192915050565b634e487b7160e01b600052601160045260246000fd5b600060001982141561110a5761110a6110e0565b5060010190565b634e487b7160e01b600052603260045260246000fd5b634e487b7160e01b600052600160045260246000fd5b600063ffffffff80831681811415611157576111576110e0565b6001019392505050565b600060ff821660ff84168060ff0382111561117e5761117e6110e0565b01939250505056fea26469706673582212209e14f591a737f064705d7660bf5f3e17795c648b695f2c64f585a6021381df5e64736f6c634300080a0033",
    "linkReferences": {}
  }
}