{
  "abi": [
    {
      "anonymous": false,
      "inputs": [
        {
          "indexed": false,
          "internalType": "address",
          "name": "NewCandidate",
          "type": "address"
        }
      ],
      "name": "becameCandidate",
      "type": "event"
    },
    {
      "anonymous": false,
      "inputs": [
        {
          "indexed": false,
          "internalType": "bool",
          "name": "success",
          "type": "bool"
        }
      ],
      "name": "registeredAsVoter",
      "type": "event"
    },
    {
      "anonymous": false,
      "inputs": [
        {
          "indexed": false,
          "internalType": "address",
          "name": "_candidate",
          "type": "address"
        },
        {
          "indexed": false,
          "internalType": "bool",
          "name": "status",
          "type": "bool"
        }
      ],
      "name": "voted",
      "type": "event"
    },
    {
      "inputs": [
        {
          "internalType": "address",
          "name": "_newCandidate",
          "type": "address"
        },
        {
          "internalType": "string",
          "name": "_name",
          "type": "string"
        }
      ],
      "name": "AddCandidate",
      "outputs": [],
      "stateMutability": "nonpayable",
      "type": "function"
    },
    {
      "inputs": [
        {
          "internalType": "string",
          "name": "_name",
          "type": "string"
        }
      ],
      "name": "AllCandidates",
      "outputs": [
        {
          "internalType": "address[]",
          "name": "_candidates",
          "type": "address[]"
        }
      ],
      "stateMutability": "view",
      "type": "function"
    },
    {
      "inputs": [
        {
          "internalType": "string",
          "name": "_name",
          "type": "string"
        }
      ],
      "name": "NoOfRegisteredCandidates",
      "outputs": [
        {
          "internalType": "uint256",
          "name": "",
          "type": "uint256"
        }
      ],
      "stateMutability": "view",
      "type": "function"
    },
    {
      "inputs": [
        {
          "internalType": "string",
          "name": "_name",
          "type": "string"
        }
      ],
      "name": "createId",
      "outputs": [],
      "stateMutability": "payable",
      "type": "function"
    },
    {
      "inputs": [
        {
          "internalType": "string",
          "name": "_name",
          "type": "string"
        },
        {
          "internalType": "uint256",
          "name": "_regFee",
          "type": "uint256"
        },
        {
          "internalType": "uint16",
          "name": "ExpectedNoOfCandidate",
          "type": "uint16"
        }
      ],
      "name": "createPoll",
      "outputs": [],
      "stateMutability": "nonpayable",
      "type": "function"
    },
    {
      "inputs": [
        {
          "internalType": "address",
          "name": "Cand",
          "type": "address"
        },
        {
          "internalType": "string",
          "name": "_name",
          "type": "string"
        },
        {
          "internalType": "uint256",
          "name": "nonce",
          "type": "uint256"
        },
        {
          "internalType": "uint256",
          "name": "time",
          "type": "uint256"
        }
      ],
      "name": "metaVotingHash",
      "outputs": [
        {
          "internalType": "bytes32",
          "name": "",
          "type": "bytes32"
        }
      ],
      "stateMutability": "view",
      "type": "function"
    },
    {
      "inputs": [
        {
          "internalType": "address",
          "name": "",
          "type": "address"
        }
      ],
      "name": "replayNonce",
      "outputs": [
        {
          "internalType": "uint256",
          "name": "",
          "type": "uint256"
        }
      ],
      "stateMutability": "view",
      "type": "function"
    },
    {
      "inputs": [
        {
          "internalType": "string",
          "name": "_name",
          "type": "string"
        }
      ],
      "name": "revealWinner",
      "outputs": [
        {
          "internalType": "uint256[]",
          "name": "CV",
          "type": "uint256[]"
        },
        {
          "internalType": "address",
          "name": "",
          "type": "address"
        },
        {
          "internalType": "uint256",
          "name": "",
          "type": "uint256"
        }
      ],
      "stateMutability": "view",
      "type": "function"
    },
    {
      "inputs": [
        {
          "internalType": "string",
          "name": "_name",
          "type": "string"
        }
      ],
      "name": "setVotingState",
      "outputs": [],
      "stateMutability": "nonpayable",
      "type": "function"
    },
    {
      "inputs": [
        {
          "internalType": "address",
          "name": "Cand",
          "type": "address"
        },
        {
          "internalType": "string",
          "name": "_name",
          "type": "string"
        },
        {
          "internalType": "uint256",
          "name": "nonce",
          "type": "uint256"
        },
        {
          "internalType": "bytes",
          "name": "signature",
          "type": "bytes"
        }
      ],
      "name": "vote",
      "outputs": [],
      "stateMutability": "nonpayable",
      "type": "function"
    },
    {
      "inputs": [
        {
          "internalType": "string",
          "name": "",
          "type": "string"
        }
      ],
      "name": "votingPoll",
      "outputs": [
        {
          "internalType": "address",
          "name": "chairman",
          "type": "address"
        },
        {
          "internalType": "uint16",
          "name": "regFee",
          "type": "uint16"
        },
        {
          "internalType": "uint32",
          "name": "maxNoOfCandidates",
          "type": "uint32"
        },
        {
          "internalType": "uint64",
          "name": "startTime",
          "type": "uint64"
        },
        {
          "internalType": "uint64",
          "name": "amountGenerated",
          "type": "uint64"
        },
        {
          "internalType": "uint16",
          "name": "currentNoOfCandidates",
          "type": "uint16"
        },
        {
          "internalType": "bool",
          "name": "voting",
          "type": "bool"
        }
      ],
      "stateMutability": "view",
      "type": "function"
    },
    {
      "inputs": [
        {
          "internalType": "string",
          "name": "_name",
          "type": "string"
        }
      ],
      "name": "withdawFees",
      "outputs": [],
      "stateMutability": "payable",
      "type": "function"
    },
    {
      "stateMutability": "payable",
      "type": "receive"
    }
  ],
  "bytecode": {
    "object": "0x608060405234801561001057600080fd5b50611589806100206000396000f3fe6080604052600436106100aa5760003560e01c806367d407df1161006457806367d407df1461026757806382e305ab146102945780638579cacd146102a7578063af7cbc0d146102c7578063ec5fc869146102f4578063f0e4de221461030757600080fd5b806211ea6f146100b657806301ff993b146100d857806312f0da4b1461010b5780634fcf1f391461012b57806357f539671461015a57806363ee965a1461017a57600080fd5b366100b157005b600080fd5b3480156100c257600080fd5b506100d66100d13660046110c2565b610327565b005b3480156100e457600080fd5b506100f86100f336600461113f565b610387565b6040519081526020015b60405180910390f35b34801561011757600080fd5b506100d661012636600461119c565b6103c2565b34801561013757600080fd5b5061014b61014636600461122d565b6106c2565b60405161010293929190611269565b34801561016657600080fd5b506100d66101753660046112bf565b610877565b34801561018657600080fd5b5061020d61019536600461122d565b8051602081830181018051600082529282019190930120915280546002909101546001600160a01b039091169061ffff8082169162010000810463ffffffff1691660100000000000082046001600160401b0390811692600160701b810490911691600160b01b82041690600160c01b900460ff1687565b604080516001600160a01b03909816885261ffff968716602089015263ffffffff909516948701949094526001600160401b039283166060870152911660808501529190911660a0830152151560c082015260e001610102565b34801561027357600080fd5b506100f861028236600461130c565b60016020526000908152604090205481565b6100d66102a236600461122d565b610aa0565b3480156102b357600080fd5b506100f86102c236600461122d565b610b57565b3480156102d357600080fd5b506102e76102e236600461122d565b610b90565b6040516101029190611327565b6100d661030236600461122d565b610c18565b34801561031357600080fd5b506100d661032236600461122d565b610df2565b6000808460405161033891906113af565b90815260405190819003602001902060028101805482546001600160a01b03191633179092556201000061ffff9485160265ffffffffffff199092169390941692909217919091179091555050565b600030858585856040516020016103a29594939291906113bb565b604051602081830303815290604052805190602001209050949350505050565b8383600080826040516103d591906113af565b908152604080519182900360209081019092206001600160a01b03861660009081526003820190935291205490915060ff1615156001146104705760405162461bcd60e51b815260206004820152602a60248201527f54686973206164647265737320646f6573206e6f7420657869737420617320616044820152692063616e64696461746560b01b60648201526084015b60405180910390fd5b856000808260405161048291906113af565b908152602001604051809103902090508060020160189054906101000a900460ff16151560011515146104ea5760405162461bcd60e51b815260206004820152601060248201526f1d9bdd1a5b99c81a185cc8195b99195960821b6044820152606401610467565b60006104f88a8a8a42610387565b905060006105068289610e84565b90506001600160a01b03811661051b57600080fd5b6001600160a01b038116600090815260016020526040902054891461053f57600080fd5b6001600160a01b03811660009081526001602052604081208054916105638361143c565b91905055506000808b60405161057991906113af565b908152604080519182900360209081019092206001600160a01b03851660009081526004820190935291205490915060ff1615156001146106085760405162461bcd60e51b8152602060048201526024808201527f596f7520646964206e6f742072656769737465726420666f72207468697320766044820152631bdd195960e21b6064820152608401610467565b6001600160a01b038216600090815260058201602052604090205460ff16156106675760405162461bcd60e51b8152602060048201526011602482015270165bdd48185b1c9958591e481d9bdd1959607a1b6044820152606401610467565b6106728c8c84610f9e565b604080516001600160a01b038e168152600160208201527ff3f16a15f074b71c5138107dfc7c63b80524d5411cb967caa97d8d9f12b2fd6b910160405180910390a1505050505050505050505050565b6060600080600080856040516106d891906113af565b90815260405190819003602001902060018101549091506001600160401b0381111561070657610706611010565b60405190808252806020026020018201604052801561072f578160200160208202803683370190505b50935060008060005b8651811161086a578284600601600086600101848154811061075c5761075c611457565b60009182526020808320909101546001600160a01b0316835282019290925260400190205411156107f9578360060160008560010183815481106107a2576107a2611457565b60009182526020808320909101546001600160a01b0316835282019290925260400190205460018501805491945090829081106107e1576107e1611457565b6000918252602090912001546001600160a01b031691505b83600601600085600101838154811061081457610814611457565b60009182526020808320909101546001600160a01b03168352820192909252604001902054875188908390811061084d5761084d611457565b6020908102919091010152806108628161143c565b915050610738565b5093509150509193909250565b81816000808260405161088a91906113af565b908152604080519182900360209081019092206001600160a01b03861660009081526004820190935291205490915060ff1615156001146108dd5760405162461bcd60e51b81526004016104679061146d565b600080856040516108ee91906113af565b90815260405190819003602001902080549091506001600160a01b031661094e5760405162461bcd60e51b81526020600482015260146024820152731e595d081d1bc818dc99585d194818481c1bdb1b60621b6044820152606401610467565b600281015462010000810463ffffffff16600160b01b90910461ffff16106109cf5760405162461bcd60e51b815260206004820152602e60248201527f6d6178696d756d206e6f206f662063616e64696461746520706572207365737360448201526d1a5bdb881c9959da5cdd195c995960921b6064820152608401610467565b6001600160a01b038616600081815260038301602090815260408220805460ff1916600190811790915584810180549182018155835291200180546001600160a01b031916909117905560028101805461ffff600160b01b90910416906016610a37836114ca565b91906101000a81548161ffff021916908361ffff160217905550507fc19c59aa93348e8fc54764bc642eca975e2639f44cc683ef8f027e1529cbda3286604051610a9091906001600160a01b0391909116815260200190565b60405180910390a1505050505050565b60008082604051610ab191906113af565b9081526040519081900360200190208054909150336001600160a01b0390911614610b115760405162461bcd60e51b815260206004820152601060248201526f3737ba103a34329031b430b4b936b0b760811b6044820152606401610467565b600281015460405133916001600160401b03600160701b9091041680156108fc02916000818181858888f19350505050158015610b52573d6000803e3d6000fd5b505050565b600080600083604051610b6a91906113af565b9081526040519081900360200190206002015461ffff600160b01b909104169392505050565b606060008083604051610ba391906113af565b9081526020016040518091039020905080600101805480602002602001604051908101604052809291908181526020018280548015610c0b57602002820191906000526020600020905b81546001600160a01b03168152600190910190602001808311610bed575b5050505050915050919050565b338160008082604051610c2b91906113af565b908152604080519182900360209081019092206001600160a01b03861660009081526004820190935291205490915060ff161515600114610c7e5760405162461bcd60e51b81526004016104679061146d565b60008085604051610c8f91906113af565b908152604051908190036020019020600281015490915061ffff16341015610d185760405162461bcd60e51b815260206004820152603660248201527f7061796d656e74206973206c657373207468616e2074686520726571756972656044820152756420726567697374726174696f6e206665652066656560501b6064820152608401610467565b336000908152600482016020526002820154610d389061ffff16346114ec565b90508015610d6f57604051339082156108fc029083906000818181858888f19350505050158015610d6d573d6000803e3d6000fd5b505b60028201805461ffff81169190600e90610d9a908490600160701b90046001600160401b0316611503565b92506101000a8154816001600160401b0302191690836001600160401b031602179055507f887050bf7b2a68f8cc6b9abc982a48f1adc0dadd34383878f3399258c5942f086001604051610a90911515815260200190565b60008082604051610e0391906113af565b90815260405190819003602001902080549091506001600160a01b03163314610e615760405162461bcd60e51b815260206004820152601060248201526f3737ba103a34329031b430b4b936b0b760811b6044820152606401610467565b600201805460ff60c01b198116600160c01b9182900460ff161590910217905550565b6000806000808451604114610e9f5760009350505050610f98565b50505060208201516040830151606084015160001a601b811015610ecb57610ec8601b8261152e565b90505b8060ff16601b14158015610ee357508060ff16601c14155b15610ef45760009350505050610f98565b6040517f19457468657265756d205369676e6564204d6573736167653a0a3332000000006020820152603c8101879052600190605c0160408051601f198184030181528282528051602091820120600084529083018083525260ff841690820152606081018590526080810184905260a0016020604051602081039080840390855afa158015610f88573d6000803e3d6000fd5b5050506020604051035193505050505b92915050565b60008083604051610faf91906113af565b908152604080519182900360209081019092206001600160a01b038086166000908152600583018552838120805460ff19166001179055908816815260068201909352908220805491935090916110058361143c565b919050555050505050565b634e487b7160e01b600052604160045260246000fd5b60006001600160401b038084111561104057611040611010565b604051601f8501601f19908116603f0116810190828211818310171561106857611068611010565b8160405280935085815286868601111561108157600080fd5b858560208301376000602087830101525050509392505050565b600082601f8301126110ac57600080fd5b6110bb83833560208501611026565b9392505050565b6000806000606084860312156110d757600080fd5b83356001600160401b038111156110ed57600080fd5b6110f98682870161109b565b93505060208401359150604084013561ffff8116811461111857600080fd5b809150509250925092565b80356001600160a01b038116811461113a57600080fd5b919050565b6000806000806080858703121561115557600080fd5b61115e85611123565b935060208501356001600160401b0381111561117957600080fd5b6111858782880161109b565b949794965050505060408301359260600135919050565b600080600080608085870312156111b257600080fd5b6111bb85611123565b935060208501356001600160401b03808211156111d757600080fd5b6111e38883890161109b565b945060408701359350606087013591508082111561120057600080fd5b508501601f8101871361121257600080fd5b61122187823560208401611026565b91505092959194509250565b60006020828403121561123f57600080fd5b81356001600160401b0381111561125557600080fd5b6112618482850161109b565b949350505050565b606080825284519082018190526000906020906080840190828801845b828110156112a257815184529284019290840190600101611286565b5050506001600160a01b0395909516908301525060400152919050565b600080604083850312156112d257600080fd5b6112db83611123565b915060208301356001600160401b038111156112f657600080fd5b6113028582860161109b565b9150509250929050565b60006020828403121561131e57600080fd5b6110bb82611123565b6020808252825182820181905260009190848201906040850190845b818110156113685783516001600160a01b031683529284019291840191600101611343565b50909695505050505050565b6000815160005b81811015611395576020818501810151868301520161137b565b818111156113a4576000828601525b509290920192915050565b60006110bb8284611374565b60006bffffffffffffffffffffffff19808860601b1683527f6d6574617472616e73616374696f6e20566f74696e67200000000000000000006014840152808760601b16602b84015250611412603f830186611374565b938452505060208201526040019392505050565b634e487b7160e01b600052601160045260246000fd5b600060001982141561145057611450611426565b5060010190565b634e487b7160e01b600052603260045260246000fd5b60208082526037908201527f7468697320706572736f6e20686173206e6f742072656769737465726564206160408201527f732061207061727469636970616e7420746f20766f7465000000000000000000606082015260800190565b600061ffff808316818114156114e2576114e2611426565b6001019392505050565b6000828210156114fe576114fe611426565b500390565b60006001600160401b0380831681851680830382111561152557611525611426565b01949350505050565b600060ff821660ff84168060ff0382111561154b5761154b611426565b01939250505056fea26469706673582212202ba1b4bdf1392918b76fed7274cee221a1159b42d6fd620e99a40b878b624bbd64736f6c634300080a0033",
    "linkReferences": {}
  }
}